F0010000006847800001000080019113900013050500000000000000000201502240002001COMERCIAL NOVAPEL LTDA                            D000000036600000000000000000000000100010010000000000000000000000F0010000006847800120150224000101 00000000000000000000000000000000000000000000000000000000000000000000000000000000000000000000000000000000000000000N 00000000000NCONT   00    00000000000          00000000000000000000000000000000000000000000 000000000000000A000000000000000000000000000000000000000000000 000000000000000000000000000000000000000     00000000                                                                                                                        000000000000000000
F0010000006847800002000080019113900041450500000000000000000201502240002001COMERCIAL NOVAPEL LTDA                            C000000034000000000000000000000000100010010000000000000000000000F0010000006847800220150224000101 00000000000000000000000000000000000000000000000000000000000000000000000000000000000000000000000000000000000000000N 00000000000NCONT   00    00000000000          00000000000000000000000000000000000000000000 000000000000000A000000000000000000000000000000000000000000000 000000000000000000000000000000000000000     00000000                                                                                                                        000000000000000000
F0010000006847800003000080019113900042505000000000000000000201502240002001COMERCIAL NOVAPEL LTDA                            C000000002600000000000000000000000100010010000000000000000000000F0010000006847800320150224000101 00000000000000000000000000000000000000000000000000000000000000000000000000000000000000000000000000000000000000000N 00000000000NCONT   00    00000000000          00000000000000000000000000000000000000000000 000000000000000A000000000000000000000000000000000000000000000 000000000000000000000000000000000000000     00000000                                                                                                                        000000000000000000
F0010000006847800004000080019113900023658300000000000000000201502240002001COMERCIAL NOVAPEL LTDA                            C000000000272000000000000000000000100010010000000000000000000000F0010000006847800420150224000101 00000000000000000000000000000000000000000000000000000000000000000000000000000000000000000000000000000000000000000N 00000000000NCONT   00    00000000000          00000000000000000000000000000000000000000000 000000000000000A000000000000000000000000000000000000000000000 000000000000000000000000000000000000000     00000000                                                                                                                        000000000000000000
F0010000006847800005000080019113900013552100000000000000000201502240002001COMERCIAL NOVAPEL LTDA                            D000000000272000000000000000000000100010010000000000000000000000F0010000006847800520150224000101 00000000000000000000000000000000000000000000000000000000000000000000000000000000000000000000000000000000000000000N 00000000000NCONT   00    00000000000          00000000000000000000000000000000000000000000 000000000000000A000000000000000000000000000000000000000000000 000000000000000000000000000000000000000     00000000                                                                                                                        000000000000000000
F0010000006847900001000080200863700013050500000000000000000201502240002001COPIN LTDA                                        D000000115684700000000000000000000100010010000000000000000000000F0010000006847900120150224000101 00000000000000000000000000000000000000000000000000000000000000000000000000000000000000000000000000000000000000000N 00000000000NCONT   00    00000000000          00000000000000000000000000000000000000000000 000000000000000A000000000000000000000000000000000000000000000 000000000000000000000000000000000000000     00000000                                                                                                                        000000000000000000
F0010000006847900002000080200863700041450500000000000000000201502240002001COPIN LTDA                                        C000000108230000000000000000000000100010010000000000000000000000F0010000006847900220150224000101 00000000000000000000000000000000000000000000000000000000000000000000000000000000000000000000000000000000000000000N 00000000000NCONT   00    00000000000          00000000000000000000000000000000000000000000 000000000000000A000000000000000000000000000000000000000000000 000000000000000000000000000000000000000     00000000                                                                                                                        000000000000000000
F0010000006847900003000080200863700042505000000000000000000201502240002001COPIN LTDA                                        C000000007454700000000000000000000100010010000000000000000000000F0010000006847900320150224000101 00000000000000000000000000000000000000000000000000000000000000000000000000000000000000000000000000000000000000000N 00000000000NCONT   00    00000000000          00000000000000000000000000000000000000000000 000000000000000A000000000000000000000000000000000000000000000 000000000000000000000000000000000000000     00000000                                                                                                                        000000000000000000
F0010000006847900004000080200863700023658300000000000000000201502240002001COPIN LTDA                                        C000000000865800000000000000000000100010010000000000000000000000F0010000006847900420150224000101 00000000000000000000000000000000000000000000000000000000000000000000000000000000000000000000000000000000000000000N 00000000000NCONT   00    00000000000          00000000000000000000000000000000000000000000 000000000000000A000000000000000000000000000000000000000000000 000000000000000000000000000000000000000     00000000                                                                                                                        000000000000000000
F0010000006847900005000080200863700013552100000000000000000201502240002001COPIN LTDA                                        D000000000865800000000000000000000100010010000000000000000000000F0010000006847900520150224000101 00000000000000000000000000000000000000000000000000000000000000000000000000000000000000000000000000000000000000000N 00000000000NCONT   00    00000000000          00000000000000000000000000000000000000000000 000000000000000A000000000000000000000000000000000000000000000 000000000000000000000000000000000000000     00000000                                                                                                                        000000000000000000
F0010000006848000001000000376399500013050500000000000000000201502240002001FORDPLAST                                         D000000009200000000000000000000000100010010000000000000000000000F0010000006848000120150224000101 00000000000000000000000000000000000000000000000000000000000000000000000000000000000000000000000000000000000000000N 00000000000NCONT   00    00000000000          00000000000000000000000000000000000000000000 000000000000000A000000000000000000000000000000000000000000000 000000000000000000000000000000000000000     00000000                                                                                                                        000000000000000000
F0010000006848000002000000376399500041450500000000000000000201502240002001FORDPLAST                                         C000000007370000000000000000000000100010010000000000000000000000F0010000006848000220150224000101 00000000000000000000000000000000000000000000000000000000000000000000000000000000000000000000000000000000000000000N 00000000000NCONT   00    00000000000          00000000000000000000000000000000000000000000 000000000000000A000000000000000000000000000000000000000000000 000000000000000000000000000000000000000     00000000                                                                                                                        000000000000000000
F0010000006848000003000000376399500042505000000000000000000201502240002001FORDPLAST                                         C000000001830000000000000000000000100010010000000000000000000000F0010000006848000320150224000101 00000000000000000000000000000000000000000000000000000000000000000000000000000000000000000000000000000000000000000N 00000000000NCONT   00    00000000000          00000000000000000000000000000000000000000000 000000000000000A000000000000000000000000000000000000000000000 000000000000000000000000000000000000000     00000000                                                                                                                        000000000000000000
F0010000006848000004000000376399500023658300000000000000000201502240002001FORDPLAST                                         C000000000059000000000000000000000100010010000000000000000000000F0010000006848000420150224000101 00000000000000000000000000000000000000000000000000000000000000000000000000000000000000000000000000000000000000000N 00000000000NCONT   00    00000000000          00000000000000000000000000000000000000000000 000000000000000A000000000000000000000000000000000000000000000 000000000000000000000000000000000000000     00000000                                                                                                                        000000000000000000
F0010000006848000005000000376399500013552100000000000000000201502240002001FORDPLAST                                         D000000000059000000000000000000000100010010000000000000000000000F0010000006848000520150224000101 00000000000000000000000000000000000000000000000000000000000000000000000000000000000000000000000000000000000000000N 00000000000NCONT   00    00000000000          00000000000000000000000000000000000000000000 000000000000000A000000000000000000000000000000000000000000000 000000000000000000000000000000000000000     00000000                                                                                                                        000000000000000000
F0010000006848100001000080016665600013050500000000000000000201502240002001SUMICAL DE ANTIOQUIA S.A.S                        D000000201663700000000000000000000100010010000000000000000000000F0010000006848100120150224000101 00000000000000000000000000000000000000000000000000000000000000000000000000000000000000000000000000000000000000000N 00000000000NCONT   00    00000000000          00000000000000000000000000000000000000000000 000000000000000A000000000000000000000000000000000000000000000 000000000000000000000000000000000000000     00000000                                                                                                                        000000000000000000
F0010000006848100002000080016665600041450500000000000000000201502240002001SUMICAL DE ANTIOQUIA S.A.S                        C000000170970000000000000000000000100010010000000000000000000000F0010000006848100220150224000101 00000000000000000000000000000000000000000000000000000000000000000000000000000000000000000000000000000000000000000N 00000000000NCONT   00    00000000000          00000000000000000000000000000000000000000000 000000000000000A000000000000000000000000000000000000000000000 000000000000000000000000000000000000000     00000000                                                                                                                        000000000000000000
F0010000006848100003000080016665600042505000000000000000000201502240002001SUMICAL DE ANTIOQUIA S.A.S                        C000000030693700000000000000000000100010010000000000000000000000F0010000006848100320150224000101 00000000000000000000000000000000000000000000000000000000000000000000000000000000000000000000000000000000000000000N 00000000000NCONT   00    00000000000          00000000000000000000000000000000000000000000 000000000000000A000000000000000000000000000000000000000000000 000000000000000000000000000000000000000     00000000                                                                                                                        000000000000000000
F0010000006848100004000080016665600023658300000000000000000201502240002001SUMICAL DE ANTIOQUIA S.A.S                        C000000001367800000000000000000000100010010000000000000000000000F0010000006848100420150224000101 00000000000000000000000000000000000000000000000000000000000000000000000000000000000000000000000000000000000000000N 00000000000NCONT   00    00000000000          00000000000000000000000000000000000000000000 000000000000000A000000000000000000000000000000000000000000000 000000000000000000000000000000000000000     00000000                                                                                                                        000000000000000000
F0010000006848100005000080016665600013552100000000000000000201502240002001SUMICAL DE ANTIOQUIA S.A.S                        D000000001367800000000000000000000100010010000000000000000000000F0010000006848100520150224000101 00000000000000000000000000000000000000000000000000000000000000000000000000000000000000000000000000000000000000000N 00000000000NCONT   00    00000000000          00000000000000000000000000000000000000000000 000000000000000A000000000000000000000000000000000000000000000 000000000000000000000000000000000000000     00000000                                                                                                                        000000000000000000
F0010000006848300001000089010526900013050500000000000000000201502240002001DISTRIBUCIONES CANAL Y CIA S.A.S                  D000000054074900000000000000000000100010010000000000000000000000F0010000006848300120150224000101 00000000000000000000000000000000000000000000000000000000000000000000000000000000000000000000000000000000000000000N 00000000000NCONT   00    00000000000          00000000000000000000000000000000000000000000 000000000000000A000000000000000000000000000000000000000000000 000000000000000000000000000000000000000     00000000                                                                                                                        000000000000000000
F0010000006848300002000089010526900041450500000000000000000201502240002001DISTRIBUCIONES CANAL Y CIA S.A.S                  C000000035750000000000000000000000100010010000000000000000000000F0010000006848300220150224000101 00000000000000000000000000000000000000000000000000000000000000000000000000000000000000000000000000000000000000000N 00000000000NCONT   00    00000000000          00000000000000000000000000000000000000000000 000000000000000A000000000000000000000000000000000000000000000 000000000000000000000000000000000000000     00000000                                                                                                                        000000000000000000
F0010000006848300003000089010526900042505000000000000000000201502240002001DISTRIBUCIONES CANAL Y CIA S.A.S                  C000000018324900000000000000000000100010010000000000000000000000F0010000006848300320150224000101 00000000000000000000000000000000000000000000000000000000000000000000000000000000000000000000000000000000000000000N 00000000000NCONT   00    00000000000          00000000000000000000000000000000000000000000 000000000000000A000000000000000000000000000000000000000000000 000000000000000000000000000000000000000     00000000                                                                                                                        000000000000000000
F0010000006848300004000089010526900023658300000000000000000201502240002001DISTRIBUCIONES CANAL Y CIA S.A.S                  C000000000286000000000000000000000100010010000000000000000000000F0010000006848300420150224000101 00000000000000000000000000000000000000000000000000000000000000000000000000000000000000000000000000000000000000000N 00000000000NCONT   00    00000000000          00000000000000000000000000000000000000000000 000000000000000A000000000000000000000000000000000000000000000 000000000000000000000000000000000000000     00000000                                                                                                                        000000000000000000
F0010000006848300005000089010526900013552100000000000000000201502240002001DISTRIBUCIONES CANAL Y CIA S.A.S                  D000000000286000000000000000000000100010010000000000000000000000F0010000006848300520150224000101 00000000000000000000000000000000000000000000000000000000000000000000000000000000000000000000000000000000000000000N 00000000000NCONT   00    00000000000          00000000000000000000000000000000000000000000 000000000000000A000000000000000000000000000000000000000000000 000000000000000000000000000000000000000     00000000                                                                                                                        000000000000000000
F0010000006848400001000090009800500013050500000000000000000201502240002001GLORIANT CHEMICAL DE COLOMBIA LTDA                D000000106520000000000000000000000100010010000000000000000000000F0010000006848400120150224000101 00000000000000000000000000000000000000000000000000000000000000000000000000000000000000000000000000000000000000000N 00000000000NCONT   00    00000000000          00000000000000000000000000000000000000000000 000000000000000A000000000000000000000000000000000000000000000 000000000000000000000000000000000000000     00000000                                                                                                                        000000000000000000
F0010000006848400002000090009800500041450500000000000000000201502240002001GLORIANT CHEMICAL DE COLOMBIA LTDA                C000000085940000000000000000000000100010010000000000000000000000F0010000006848400220150224000101 00000000000000000000000000000000000000000000000000000000000000000000000000000000000000000000000000000000000000000N 00000000000NCONT   00    00000000000          00000000000000000000000000000000000000000000 000000000000000A000000000000000000000000000000000000000000000 000000000000000000000000000000000000000     00000000                                                                                                                        000000000000000000
F0010000006848400003000090009800500042505000000000000000000201502240002001GLORIANT CHEMICAL DE COLOMBIA LTDA                C000000020580000000000000000000000100010010000000000000000000000F0010000006848400320150224000101 00000000000000000000000000000000000000000000000000000000000000000000000000000000000000000000000000000000000000000N 00000000000NCONT   00    00000000000          00000000000000000000000000000000000000000000 000000000000000A000000000000000000000000000000000000000000000 000000000000000000000000000000000000000     00000000                                                                                                                        000000000000000000
F0010000006848400004000090009800500023658300000000000000000201502240002001GLORIANT CHEMICAL DE COLOMBIA LTDA                C000000000687500000000000000000000100010010000000000000000000000F0010000006848400420150224000101 00000000000000000000000000000000000000000000000000000000000000000000000000000000000000000000000000000000000000000N 00000000000NCONT   00    00000000000          00000000000000000000000000000000000000000000 000000000000000A000000000000000000000000000000000000000000000 000000000000000000000000000000000000000     00000000                                                                                                                        000000000000000000
F0010000006848400005000090009800500013552100000000000000000201502240002001GLORIANT CHEMICAL DE COLOMBIA LTDA                D000000000687500000000000000000000100010010000000000000000000000F0010000006848400520150224000101 00000000000000000000000000000000000000000000000000000000000000000000000000000000000000000000000000000000000000000N 00000000000NCONT   00    00000000000          00000000000000000000000000000000000000000000 000000000000000A000000000000000000000000000000000000000000000 000000000000000000000000000000000000000     00000000                                                                                                                        000000000000000000
F0010000006848500001000083001155300013050500000000000000000201502240002001COMERCIALIZADORA RUBEN S LTDA                     D000000054165900000000000000000000100010010000000000000000000000F0010000006848500120150224000101 00000000000000000000000000000000000000000000000000000000000000000000000000000000000000000000000000000000000000000N 00000000000NCONT   00    00000000000          00000000000000000000000000000000000000000000 000000000000000A000000000000000000000000000000000000000000000 000000000000000000000000000000000000000     00000000                                                                                                                        000000000000000000
F0010000006848500002000083001155300041450500000000000000000201502240002001COMERCIALIZADORA RUBEN S LTDA                     C000000048969000000000000000000000100010010000000000000000000000F0010000006848500220150224000101 00000000000000000000000000000000000000000000000000000000000000000000000000000000000000000000000000000000000000000N 00000000000NCONT   00    00000000000          00000000000000000000000000000000000000000000 000000000000000A000000000000000000000000000000000000000000000 000000000000000000000000000000000000000     00000000                                                                                                                        000000000000000000
F0010000006848500003000083001155300042505000000000000000000201502240002001COMERCIALIZADORA RUBEN S LTDA                     C000000005196900000000000000000000100010010000000000000000000000F0010000006848500320150224000101 00000000000000000000000000000000000000000000000000000000000000000000000000000000000000000000000000000000000000000N 00000000000NCONT   00    00000000000          00000000000000000000000000000000000000000000 000000000000000A000000000000000000000000000000000000000000000 000000000000000000000000000000000000000     00000000                                                                                                                        000000000000000000
F0010000006848500004000083001155300023658300000000000000000201502240002001COMERCIALIZADORA RUBEN S LTDA                     C000000000391800000000000000000000100010010000000000000000000000F0010000006848500420150224000101 00000000000000000000000000000000000000000000000000000000000000000000000000000000000000000000000000000000000000000N 00000000000NCONT   00    00000000000          00000000000000000000000000000000000000000000 000000000000000A000000000000000000000000000000000000000000000 000000000000000000000000000000000000000     00000000                                                                                                                        000000000000000000
F0010000006848500005000083001155300013552100000000000000000201502240002001COMERCIALIZADORA RUBEN S LTDA                     D000000000391800000000000000000000100010010000000000000000000000F0010000006848500520150224000101 00000000000000000000000000000000000000000000000000000000000000000000000000000000000000000000000000000000000000000N 00000000000NCONT   00    00000000000          00000000000000000000000000000000000000000000 000000000000000A000000000000000000000000000000000000000000000 000000000000000000000000000000000000000     00000000                                                                                                                        000000000000000000
F0010000006848600001000089080078800013050500000000000000000201502240002001SUMATEC S.A.                                      D000000006395000000000000000000000100010010000000000000000000000F0010000006848600120150224000101 00000000000000000000000000000000000000000000000000000000000000000000000000000000000000000000000000000000000000000N 00000000000NCONT   00    00000000000          00000000000000000000000000000000000000000000 000000000000000A000000000000000000000000000000000000000000000 000000000000000000000000000000000000000     00000000                                                                                                                        000000000000000000
F0010000006848600002000089080078800041450500000000000000000201502240002001SUMATEC S.A.                                      C000000006160000000000000000000000100010010000000000000000000000F0010000006848600220150224000101 00000000000000000000000000000000000000000000000000000000000000000000000000000000000000000000000000000000000000000N 00000000000NCONT   00    00000000000          00000000000000000000000000000000000000000000 000000000000000A000000000000000000000000000000000000000000000 000000000000000000000000000000000000000     00000000                                                                                                                        000000000000000000
F0010000006848600003000089080078800042505000000000000000000201502240002001SUMATEC S.A.                                      C000000000235000000000000000000000100010010000000000000000000000F0010000006848600320150224000101 00000000000000000000000000000000000000000000000000000000000000000000000000000000000000000000000000000000000000000N 00000000000NCONT   00    00000000000          00000000000000000000000000000000000000000000 000000000000000A000000000000000000000000000000000000000000000 000000000000000000000000000000000000000     00000000                                                                                                                        000000000000000000
F0010000006848600004000089080078800023658300000000000000000201502240002001SUMATEC S.A.                                      C000000000049300000000000000000000100010010000000000000000000000F0010000006848600420150224000101 00000000000000000000000000000000000000000000000000000000000000000000000000000000000000000000000000000000000000000N 00000000000NCONT   00    00000000000          00000000000000000000000000000000000000000000 000000000000000A000000000000000000000000000000000000000000000 000000000000000000000000000000000000000     00000000                                                                                                                        000000000000000000
F0010000006848600005000089080078800013552100000000000000000201502240002001SUMATEC S.A.                                      D000000000049300000000000000000000100010010000000000000000000000F0010000006848600520150224000101 00000000000000000000000000000000000000000000000000000000000000000000000000000000000000000000000000000000000000000N 00000000000NCONT   00    00000000000          00000000000000000000000000000000000000000000 000000000000000A000000000000000000000000000000000000000000000 000000000000000000000000000000000000000     00000000                                                                                                                        000000000000000000
F0010000006848700001000000876579700013050500000000000000000201502240002001JOSE LUIS MUÑOZ                                  D000000002200000000000000000000000100010010000000000000000000000F0010000006848700120150224000101 00000000000000000000000000000000000000000000000000000000000000000000000000000000000000000000000000000000000000000N 00000000000NCONT   00    00000000000          00000000000000000000000000000000000000000000 000000000000000A000000000000000000000000000000000000000000000 000000000000000000000000000000000000000     00000000                                                                                                                        000000000000000000
F0010000006848700002000000876579700041450500000000000000000201502240002001JOSE LUIS MUÑOZ                                  C000000002000000000000000000000000100010010000000000000000000000F0010000006848700220150224000101 00000000000000000000000000000000000000000000000000000000000000000000000000000000000000000000000000000000000000000N 00000000000NCONT   00    00000000000          00000000000000000000000000000000000000000000 000000000000000A000000000000000000000000000000000000000000000 000000000000000000000000000000000000000     00000000                                                                                                                        000000000000000000
F0010000006848700003000000876579700042505000000000000000000201502240002001JOSE LUIS MUÑOZ                                  C000000000200000000000000000000000100010010000000000000000000000F0010000006848700320150224000101 00000000000000000000000000000000000000000000000000000000000000000000000000000000000000000000000000000000000000000N 00000000000NCONT   00    00000000000          00000000000000000000000000000000000000000000 000000000000000A000000000000000000000000000000000000000000000 000000000000000000000000000000000000000     00000000                                                                                                                        000000000000000000
F0010000006848700004000000876579700023658300000000000000000201502240002001JOSE LUIS MUÑOZ                                  C000000000016000000000000000000000100010010000000000000000000000F0010000006848700420150224000101 00000000000000000000000000000000000000000000000000000000000000000000000000000000000000000000000000000000000000000N 00000000000NCONT   00    00000000000          00000000000000000000000000000000000000000000 000000000000000A000000000000000000000000000000000000000000000 000000000000000000000000000000000000000     00000000                                                                                                                        000000000000000000
F0010000006848700005000000876579700013552100000000000000000201502240002001JOSE LUIS MUÑOZ                                  D000000000016000000000000000000000100010010000000000000000000000F0010000006848700520150224000101 00000000000000000000000000000000000000000000000000000000000000000000000000000000000000000000000000000000000000000N 00000000000NCONT   00    00000000000          00000000000000000000000000000000000000000000 000000000000000A000000000000000000000000000000000000000000000 000000000000000000000000000000000000000     00000000                                                                                                                        000000000000000000
F0010000006848800001000080016664500013050500000000000000000201502240002001TELAPLAS PANCER SAS                               D000000077833000000000000000000000100010010000000000000000000000F0010000006848800120150224000101 00000000000000000000000000000000000000000000000000000000000000000000000000000000000000000000000000000000000000000N 00000000000NCONT   00    00000000000          00000000000000000000000000000000000000000000 000000000000000A000000000000000000000000000000000000000000000 000000000000000000000000000000000000000     00000000                                                                                                                        000000000000000000
F0010000006848800002000080016664500041450500000000000000000201502240002001TELAPLAS PANCER SAS                               C000000063700000000000000000000000100010010000000000000000000000F0010000006848800220150224000101 00000000000000000000000000000000000000000000000000000000000000000000000000000000000000000000000000000000000000000N 00000000000NCONT   00    00000000000          00000000000000000000000000000000000000000000 000000000000000A000000000000000000000000000000000000000000000 000000000000000000000000000000000000000     00000000                                                                                                                        000000000000000000
F0010000006848800003000080016664500042505000000000000000000201502240002001TELAPLAS PANCER SAS                               C000000014133000000000000000000000100010010000000000000000000000F0010000006848800320150224000101 00000000000000000000000000000000000000000000000000000000000000000000000000000000000000000000000000000000000000000N 00000000000NCONT   00    00000000000          00000000000000000000000000000000000000000000 000000000000000A000000000000000000000000000000000000000000000 000000000000000000000000000000000000000     00000000                                                                                                                        000000000000000000
F0010000006848800004000080016664500023658300000000000000000201502240002001TELAPLAS PANCER SAS                               C000000000509600000000000000000000100010010000000000000000000000F0010000006848800420150224000101 00000000000000000000000000000000000000000000000000000000000000000000000000000000000000000000000000000000000000000N 00000000000NCONT   00    00000000000          00000000000000000000000000000000000000000000 000000000000000A000000000000000000000000000000000000000000000 000000000000000000000000000000000000000     00000000                                                                                                                        000000000000000000
F0010000006848800005000080016664500013552100000000000000000201502240002001TELAPLAS PANCER SAS                               D000000000509600000000000000000000100010010000000000000000000000F0010000006848800520150224000101 00000000000000000000000000000000000000000000000000000000000000000000000000000000000000000000000000000000000000000N 00000000000NCONT   00    00000000000          00000000000000000000000000000000000000000000 000000000000000A000000000000000000000000000000000000000000000 000000000000000000000000000000000000000     00000000                                                                                                                        000000000000000000
F0010000006848900001000002257933700013050500000000000000000201502240002001ROSA MARGARITA  PUCCINI SU HERRAMIENTAS Y ELECTRICD000000002990400000000000000000000100010010000000000000000000000F0010000006848900120150224000101 00000000000000000000000000000000000000000000000000000000000000000000000000000000000000000000000000000000000000000N 00000000000NCONT   00    00000000000          00000000000000000000000000000000000000000000 000000000000000A000000000000000000000000000000000000000000000 000000000000000000000000000000000000000     00000000                                                                                                                        000000000000000000
F0010000006848900002000002257933700041450500000000000000000201502240002001ROSA MARGARITA  PUCCINI SU HERRAMIENTAS Y ELECTRICC000000002280000000000000000000000100010010000000000000000000000F0010000006848900220150224000101 00000000000000000000000000000000000000000000000000000000000000000000000000000000000000000000000000000000000000000N 00000000000NCONT   00    00000000000          00000000000000000000000000000000000000000000 000000000000000A000000000000000000000000000000000000000000000 000000000000000000000000000000000000000     00000000                                                                                                                        000000000000000000
F0010000006848900003000002257933700042505000000000000000000201502240002001ROSA MARGARITA  PUCCINI SU HERRAMIENTAS Y ELECTRICC000000000710400000000000000000000100010010000000000000000000000F0010000006848900320150224000101 00000000000000000000000000000000000000000000000000000000000000000000000000000000000000000000000000000000000000000N 00000000000NCONT   00    00000000000          00000000000000000000000000000000000000000000 000000000000000A000000000000000000000000000000000000000000000 000000000000000000000000000000000000000     00000000                                                                                                                        000000000000000000
F0010000006848900004000002257933700023658300000000000000000201502240002001ROSA MARGARITA  PUCCINI SU HERRAMIENTAS Y ELECTRICC000000000018200000000000000000000100010010000000000000000000000F0010000006848900420150224000101 00000000000000000000000000000000000000000000000000000000000000000000000000000000000000000000000000000000000000000N 00000000000NCONT   00    00000000000          00000000000000000000000000000000000000000000 000000000000000A000000000000000000000000000000000000000000000 000000000000000000000000000000000000000     00000000                                                                                                                        000000000000000000
F0010000006848900005000002257933700013552100000000000000000201502240002001ROSA MARGARITA  PUCCINI SU HERRAMIENTAS Y ELECTRICD000000000018200000000000000000000100010010000000000000000000000F0010000006848900520150224000101 00000000000000000000000000000000000000000000000000000000000000000000000000000000000000000000000000000000000000000N 00000000000NCONT   00    00000000000          00000000000000000000000000000000000000000000 000000000000000A000000000000000000000000000000000000000000000 000000000000000000000000000000000000000     00000000                                                                                                                        000000000000000000
F0010000006849000001000002258669400013050500000000000000000201502240002001YURY PAOLA  SANTAMARIA ..                         D000000005026000000000000000000000100010010000000000000000000000F0010000006849000120150224000101 00000000000000000000000000000000000000000000000000000000000000000000000000000000000000000000000000000000000000000N 00000000000NCONT   00    00000000000          00000000000000000000000000000000000000000000 000000000000000A000000000000000000000000000000000000000000000 000000000000000000000000000000000000000     00000000                                                                                                                        000000000000000000
F0010000006849000002000002258669400041450500000000000000000201502240002001YURY PAOLA  SANTAMARIA ..                         C000000004520000000000000000000000100010010000000000000000000000F0010000006849000220150224000101 00000000000000000000000000000000000000000000000000000000000000000000000000000000000000000000000000000000000000000N 00000000000NCONT   00    00000000000          00000000000000000000000000000000000000000000 000000000000000A000000000000000000000000000000000000000000000 000000000000000000000000000000000000000     00000000                                                                                                                        000000000000000000
F0010000006849000003000002258669400042505000000000000000000201502240002001YURY PAOLA  SANTAMARIA ..                         C000000000506000000000000000000000100010010000000000000000000000F0010000006849000320150224000101 00000000000000000000000000000000000000000000000000000000000000000000000000000000000000000000000000000000000000000N 00000000000NCONT   00    00000000000          00000000000000000000000000000000000000000000 000000000000000A000000000000000000000000000000000000000000000 000000000000000000000000000000000000000     00000000                                                                                                                        000000000000000000
F0010000006849000004000002258669400023658300000000000000000201502240002001YURY PAOLA  SANTAMARIA ..                         C000000000036200000000000000000000100010010000000000000000000000F0010000006849000420150224000101 00000000000000000000000000000000000000000000000000000000000000000000000000000000000000000000000000000000000000000N 00000000000NCONT   00    00000000000          00000000000000000000000000000000000000000000 000000000000000A000000000000000000000000000000000000000000000 000000000000000000000000000000000000000     00000000                                                                                                                        000000000000000000
F0010000006849000005000002258669400013552100000000000000000201502240002001YURY PAOLA  SANTAMARIA ..                         D000000000036200000000000000000000100010010000000000000000000000F0010000006849000520150224000101 00000000000000000000000000000000000000000000000000000000000000000000000000000000000000000000000000000000000000000N 00000000000NCONT   00    00000000000          00000000000000000000000000000000000000000000 000000000000000A000000000000000000000000000000000000000000000 000000000000000000000000000000000000000     00000000                                                                                                                        000000000000000000
F0010000006849100001000002245670100013050500000000000000000201502240002001YOLANDA  TOBON                                    D000000035714800000000000000000000100010010000000000000000000000F0010000006849100120150224000101 00000000000000000000000000000000000000000000000000000000000000000000000000000000000000000000000000000000000000000N 00000000000NCONT   00    00000000000          00000000000000000000000000000000000000000000 000000000000000A000000000000000000000000000000000000000000000 000000000000000000000000000000000000000     00000000                                                                                                                        000000000000000000
F0010000006849100002000002245670100041450500000000000000000201502240002001YOLANDA  TOBON                                    C000000030100000000000000000000000100010010000000000000000000000F0010000006849100220150224000101 00000000000000000000000000000000000000000000000000000000000000000000000000000000000000000000000000000000000000000N 00000000000NCONT   00    00000000000          00000000000000000000000000000000000000000000 000000000000000A000000000000000000000000000000000000000000000 000000000000000000000000000000000000000     00000000                                                                                                                        000000000000000000
F0010000006849100003000002245670100042505000000000000000000201502240002001YOLANDA  TOBON                                    C000000005614800000000000000000000100010010000000000000000000000F0010000006849100320150224000101 00000000000000000000000000000000000000000000000000000000000000000000000000000000000000000000000000000000000000000N 00000000000NCONT   00    00000000000          00000000000000000000000000000000000000000000 000000000000000A000000000000000000000000000000000000000000000 000000000000000000000000000000000000000     00000000                                                                                                                        000000000000000000
F0010000006849100004000002245670100023658300000000000000000201502240002001YOLANDA  TOBON                                    C000000000240800000000000000000000100010010000000000000000000000F0010000006849100420150224000101 00000000000000000000000000000000000000000000000000000000000000000000000000000000000000000000000000000000000000000N 00000000000NCONT   00    00000000000          00000000000000000000000000000000000000000000 000000000000000A000000000000000000000000000000000000000000000 000000000000000000000000000000000000000     00000000                                                                                                                        000000000000000000
F0010000006849100005000002245670100013552100000000000000000201502240002001YOLANDA  TOBON                                    D000000000240800000000000000000000100010010000000000000000000000F0010000006849100520150224000101 00000000000000000000000000000000000000000000000000000000000000000000000000000000000000000000000000000000000000000N 00000000000NCONT   00    00000000000          00000000000000000000000000000000000000000000 000000000000000A000000000000000000000000000000000000000000000 000000000000000000000000000000000000000     00000000                                                                                                                        000000000000000000
F0010000006849200001000080200225800013050500000000000000000201502240002001PERF. TECNICOS DE LA COSTA S.A.S                  D000000005588100000000000000000000100010010000000000000000000000F0010000006849200120150224000101 00000000000000000000000000000000000000000000000000000000000000000000000000000000000000000000000000000000000000000N 00000000000NCONT   00    00000000000          00000000000000000000000000000000000000000000 000000000000000A000000000000000000000000000000000000000000000 000000000000000000000000000000000000000     00000000                                                                                                                        000000000000000000
F0010000006849200002000080200225800041450500000000000000000201502240002001PERF. TECNICOS DE LA COSTA S.A.S                  C000000004566100000000000000000000100010010000000000000000000000F0010000006849200220150224000101 00000000000000000000000000000000000000000000000000000000000000000000000000000000000000000000000000000000000000000N 00000000000NCONT   00    00000000000          00000000000000000000000000000000000000000000 000000000000000A000000000000000000000000000000000000000000000 000000000000000000000000000000000000000     00000000                                                                                                                        000000000000000000
F0010000006849200003000080200225800042505000000000000000000201502240002001PERF. TECNICOS DE LA COSTA S.A.S                  C000000001022000000000000000000000100010010000000000000000000000F0010000006849200320150224000101 00000000000000000000000000000000000000000000000000000000000000000000000000000000000000000000000000000000000000000N 00000000000NCONT   00    00000000000          00000000000000000000000000000000000000000000 000000000000000A000000000000000000000000000000000000000000000 000000000000000000000000000000000000000     00000000                                                                                                                        000000000000000000
F0010000006849200004000080200225800023658300000000000000000201502240002001PERF. TECNICOS DE LA COSTA S.A.S                  C000000000036500000000000000000000100010010000000000000000000000F0010000006849200420150224000101 00000000000000000000000000000000000000000000000000000000000000000000000000000000000000000000000000000000000000000N 00000000000NCONT   00    00000000000          00000000000000000000000000000000000000000000 000000000000000A000000000000000000000000000000000000000000000 000000000000000000000000000000000000000     00000000                                                                                                                        000000000000000000
F0010000006849200005000080200225800013552100000000000000000201502240002001PERF. TECNICOS DE LA COSTA S.A.S                  D000000000036500000000000000000000100010010000000000000000000000F0010000006849200520150224000101 00000000000000000000000000000000000000000000000000000000000000000000000000000000000000000000000000000000000000000N 00000000000NCONT   00    00000000000          00000000000000000000000000000000000000000000 000000000000000A000000000000000000000000000000000000000000000 000000000000000000000000000000000000000     00000000                                                                                                                        000000000000000000
F0010000006849300001000080002300200013050500000000000000000201502240002001DISREL S.A.                                       D000000124350000000000000000000000100010010000000000000000000000F0010000006849300120150224000101 00000000000000000000000000000000000000000000000000000000000000000000000000000000000000000000000000000000000000000N 00000000000NCONT   00    00000000000          00000000000000000000000000000000000000000000 000000000000000A000000000000000000000000000000000000000000000 000000000000000000000000000000000000000     00000000                                                                                                                        000000000000000000
F0010000006849300002000080002300200041450500000000000000000201502240002001DISREL S.A.                                       C000000100480000000000000000000000100010010000000000000000000000F0010000006849300220150224000101 00000000000000000000000000000000000000000000000000000000000000000000000000000000000000000000000000000000000000000N 00000000000NCONT   00    00000000000          00000000000000000000000000000000000000000000 000000000000000A000000000000000000000000000000000000000000000 000000000000000000000000000000000000000     00000000                                                                                                                        000000000000000000
F0010000006849300003000080002300200042505000000000000000000201502240002001DISREL S.A.                                       C000000023870000000000000000000000100010010000000000000000000000F0010000006849300320150224000101 00000000000000000000000000000000000000000000000000000000000000000000000000000000000000000000000000000000000000000N 00000000000NCONT   00    00000000000          00000000000000000000000000000000000000000000 000000000000000A000000000000000000000000000000000000000000000 000000000000000000000000000000000000000     00000000                                                                                                                        000000000000000000
F0010000006849300004000080002300200023658300000000000000000201502240002001DISREL S.A.                                       C000000000803800000000000000000000100010010000000000000000000000F0010000006849300420150224000101 00000000000000000000000000000000000000000000000000000000000000000000000000000000000000000000000000000000000000000N 00000000000NCONT   00    00000000000          00000000000000000000000000000000000000000000 000000000000000A000000000000000000000000000000000000000000000 000000000000000000000000000000000000000     00000000                                                                                                                        000000000000000000
F0010000006849300005000080002300200013552100000000000000000201502240002001DISREL S.A.                                       D000000000803800000000000000000000100010010000000000000000000000F0010000006849300520150224000101 00000000000000000000000000000000000000000000000000000000000000000000000000000000000000000000000000000000000000000N 00000000000NCONT   00    00000000000          00000000000000000000000000000000000000000000 000000000000000A000000000000000000000000000000000000000000000 000000000000000000000000000000000000000     00000000                                                                                                                        000000000000000000
F0010000006849400001000086053108300013050500000000000000000201502240002001EL PALACIO DEL ALUMINIO  LTDA                     D000000020118500000000000000000000100010010000000000000000000000F0010000006849400120150224000101 00000000000000000000000000000000000000000000000000000000000000000000000000000000000000000000000000000000000000000N 00000000000NCONT   00    00000000000          00000000000000000000000000000000000000000000 000000000000000A000000000000000000000000000000000000000000000 000000000000000000000000000000000000000     00000000                                                                                                                        000000000000000000
F0010000006849400002000086053108300041450500000000000000000201502240002001EL PALACIO DEL ALUMINIO  LTDA                     C000000016400000000000000000000000100010010000000000000000000000F0010000006849400220150224000101 00000000000000000000000000000000000000000000000000000000000000000000000000000000000000000000000000000000000000000N 00000000000NCONT   00    00000000000          00000000000000000000000000000000000000000000 000000000000000A000000000000000000000000000000000000000000000 000000000000000000000000000000000000000     00000000                                                                                                                        000000000000000000
F0010000006849400003000086053108300042505000000000000000000201502240002001EL PALACIO DEL ALUMINIO  LTDA                     C000000003718500000000000000000000100010010000000000000000000000F0010000006849400320150224000101 00000000000000000000000000000000000000000000000000000000000000000000000000000000000000000000000000000000000000000N 00000000000NCONT   00    00000000000          00000000000000000000000000000000000000000000 000000000000000A000000000000000000000000000000000000000000000 000000000000000000000000000000000000000     00000000                                                                                                                        000000000000000000
F0010000006849400004000086053108300023658300000000000000000201502240002001EL PALACIO DEL ALUMINIO  LTDA                     C000000000131200000000000000000000100010010000000000000000000000F0010000006849400420150224000101 00000000000000000000000000000000000000000000000000000000000000000000000000000000000000000000000000000000000000000N 00000000000NCONT   00    00000000000          00000000000000000000000000000000000000000000 000000000000000A000000000000000000000000000000000000000000000 000000000000000000000000000000000000000     00000000                                                                                                                        000000000000000000
F0010000006849400005000086053108300013552100000000000000000201502240002001EL PALACIO DEL ALUMINIO  LTDA                     D000000000131200000000000000000000100010010000000000000000000000F0010000006849400520150224000101 00000000000000000000000000000000000000000000000000000000000000000000000000000000000000000000000000000000000000000N 00000000000NCONT   00    00000000000          00000000000000000000000000000000000000000000 000000000000000A000000000000000000000000000000000000000000000 000000000000000000000000000000000000000     00000000                                                                                                                        000000000000000000
F0010000006849500001000090031601300013050500000000000000000201502240002001COMPAÑIA QUIMICA S.A.S.                          D000000021780000000000000000000000100010010000000000000000000000F0010000006849500120150224000101 00000000000000000000000000000000000000000000000000000000000000000000000000000000000000000000000000000000000000000N 00000000000NCONT   00    00000000000          00000000000000000000000000000000000000000000 000000000000000A000000000000000000000000000000000000000000000 000000000000000000000000000000000000000     00000000                                                                                                                        000000000000000000
F0010000006849500002000090031601300041450500000000000000000201502240002001COMPAÑIA QUIMICA S.A.S.                          C000000020640000000000000000000000100010010000000000000000000000F0010000006849500220150224000101 00000000000000000000000000000000000000000000000000000000000000000000000000000000000000000000000000000000000000000N 00000000000NCONT   00    00000000000          00000000000000000000000000000000000000000000 000000000000000A000000000000000000000000000000000000000000000 000000000000000000000000000000000000000     00000000                                                                                                                        000000000000000000
F0010000006849500003000090031601300042505000000000000000000201502240002001COMPAÑIA QUIMICA S.A.S.                          C000000001140000000000000000000000100010010000000000000000000000F0010000006849500320150224000101 00000000000000000000000000000000000000000000000000000000000000000000000000000000000000000000000000000000000000000N 00000000000NCONT   00    00000000000          00000000000000000000000000000000000000000000 000000000000000A000000000000000000000000000000000000000000000 000000000000000000000000000000000000000     00000000                                                                                                                        000000000000000000
F0010000006849500004000090031601300023658300000000000000000201502240002001COMPAÑIA QUIMICA S.A.S.                          C000000000165100000000000000000000100010010000000000000000000000F0010000006849500420150224000101 00000000000000000000000000000000000000000000000000000000000000000000000000000000000000000000000000000000000000000N 00000000000NCONT   00    00000000000          00000000000000000000000000000000000000000000 000000000000000A000000000000000000000000000000000000000000000 000000000000000000000000000000000000000     00000000                                                                                                                        000000000000000000
F0010000006849500005000090031601300013552100000000000000000201502240002001COMPAÑIA QUIMICA S.A.S.                          D000000000165100000000000000000000100010010000000000000000000000F0010000006849500520150224000101 00000000000000000000000000000000000000000000000000000000000000000000000000000000000000000000000000000000000000000N 00000000000NCONT   00    00000000000          00000000000000000000000000000000000000000000 000000000000000A000000000000000000000000000000000000000000000 000000000000000000000000000000000000000     00000000                                                                                                                        000000000000000000
F0010000006849600001000003497268300011050500000000000000000201502240002001BEATRIZ ELENA SALGADO  P.                         D000000010000000000000000000000000100010010000000000000000000000F0010000006849600120150224000101 00000000000000000000000000000000000000000000000000000000000000000000000000000000000000000000000000000000000000000N 00000000000NCONT   00    00000000000          00000000000000000000000000000000000000000000 000000000000000A000000000000000000000000000000000000000000000 000000000000000000000000000000000000000     00000000                                                                                                                        000000000000000000
F0010000006849600002000003497268300041450500000000000000000201502240002001BEATRIZ ELENA SALGADO  P.                         C000000009900000000000000000000000100010010000000000000000000000F0010000006849600220150224000101 00000000000000000000000000000000000000000000000000000000000000000000000000000000000000000000000000000000000000000N 00000000000NCONT   00    00000000000          00000000000000000000000000000000000000000000 000000000000000A000000000000000000000000000000000000000000000 000000000000000000000000000000000000000     00000000                                                                                                                        000000000000000000
F0010000006849600003000003497268300042505000000000000000000201502240002001BEATRIZ ELENA SALGADO  P.                         C000000000100000000000000000000000100010010000000000000000000000F0010000006849600320150224000101 00000000000000000000000000000000000000000000000000000000000000000000000000000000000000000000000000000000000000000N 00000000000NCONT   00    00000000000          00000000000000000000000000000000000000000000 000000000000000A000000000000000000000000000000000000000000000 000000000000000000000000000000000000000     00000000                                                                                                                        000000000000000000
F0010000006849600004000003497268300023658300000000000000000201502240002001BEATRIZ ELENA SALGADO  P.                         C000000000079200000000000000000000100010010000000000000000000000F0010000006849600420150224000101 00000000000000000000000000000000000000000000000000000000000000000000000000000000000000000000000000000000000000000N 00000000000NCONT   00    00000000000          00000000000000000000000000000000000000000000 000000000000000A000000000000000000000000000000000000000000000 000000000000000000000000000000000000000     00000000                                                                                                                        000000000000000000
F0010000006849600005000003497268300013552100000000000000000201502240002001BEATRIZ ELENA SALGADO  P.                         D000000000079200000000000000000000100010010000000000000000000000F0010000006849600520150224000101 00000000000000000000000000000000000000000000000000000000000000000000000000000000000000000000000000000000000000000N 00000000000NCONT   00    00000000000          00000000000000000000000000000000000000000000 000000000000000A000000000000000000000000000000000000000000000 000000000000000000000000000000000000000     00000000                                                                                                                        000000000000000000
F0010000006849700001000086003979400013050500000000000000000201502240002001CALYPSO BARRANQUILLA LTDA                         D000000112405400000000000000000000100010010000000000000000000000F0010000006849700120150224000101 00000000000000000000000000000000000000000000000000000000000000000000000000000000000000000000000000000000000000000N 00000000000NCONT   00    00000000000          00000000000000000000000000000000000000000000 000000000000000A000000000000000000000000000000000000000000000 000000000000000000000000000000000000000     00000000                                                                                                                        000000000000000000
F0010000006849700002000086003979400041450500000000000000000201502240002001CALYPSO BARRANQUILLA LTDA                         C000000105580000000000000000000000100010010000000000000000000000F0010000006849700220150224000101 00000000000000000000000000000000000000000000000000000000000000000000000000000000000000000000000000000000000000000N 00000000000NCONT   00    00000000000          00000000000000000000000000000000000000000000 000000000000000A000000000000000000000000000000000000000000000 000000000000000000000000000000000000000     00000000                                                                                                                        000000000000000000
F0010000006849700003000086003979400042505000000000000000000201502240002001CALYPSO BARRANQUILLA LTDA                         C000000006825400000000000000000000100010010000000000000000000000F0010000006849700320150224000101 00000000000000000000000000000000000000000000000000000000000000000000000000000000000000000000000000000000000000000N 00000000000NCONT   00    00000000000          00000000000000000000000000000000000000000000 000000000000000A000000000000000000000000000000000000000000000 000000000000000000000000000000000000000     00000000                                                                                                                        000000000000000000
F0010000006849700004000086003979400023658300000000000000000201502240002001CALYPSO BARRANQUILLA LTDA                         C000000000844600000000000000000000100010010000000000000000000000F0010000006849700420150224000101 00000000000000000000000000000000000000000000000000000000000000000000000000000000000000000000000000000000000000000N 00000000000NCONT   00    00000000000          00000000000000000000000000000000000000000000 000000000000000A000000000000000000000000000000000000000000000 000000000000000000000000000000000000000     00000000                                                                                                                        000000000000000000
F0010000006849700005000086003979400013552100000000000000000201502240002001CALYPSO BARRANQUILLA LTDA                         D000000000844600000000000000000000100010010000000000000000000000F0010000006849700520150224000101 00000000000000000000000000000000000000000000000000000000000000000000000000000000000000000000000000000000000000000N 00000000000NCONT   00    00000000000          00000000000000000000000000000000000000000000 000000000000000A000000000000000000000000000000000000000000000 000000000000000000000000000000000000000     00000000                                                                                                                        000000000000000000
F0010000006849800001000090010880700013050500000000000000000201502240002001PROELECTRICAS DE BARRANQUILLA LTDA                D000000003230000000000000000000000100010010000000000000000000000F0010000006849800120150224000101 00000000000000000000000000000000000000000000000000000000000000000000000000000000000000000000000000000000000000000N 00000000000NCONT   00    00000000000          00000000000000000000000000000000000000000000 000000000000000A000000000000000000000000000000000000000000000 000000000000000000000000000000000000000     00000000                                                                                                                        000000000000000000
F0010000006849800002000090010880700041450500000000000000000201502240002001PROELECTRICAS DE BARRANQUILLA LTDA                C000000003080000000000000000000000100010010000000000000000000000F0010000006849800220150224000101 00000000000000000000000000000000000000000000000000000000000000000000000000000000000000000000000000000000000000000N 00000000000NCONT   00    00000000000          00000000000000000000000000000000000000000000 000000000000000A000000000000000000000000000000000000000000000 000000000000000000000000000000000000000     00000000                                                                                                                        000000000000000000
F0010000006849800003000090010880700042505000000000000000000201502240002001PROELECTRICAS DE BARRANQUILLA LTDA                C000000000150000000000000000000000100010010000000000000000000000F0010000006849800320150224000101 00000000000000000000000000000000000000000000000000000000000000000000000000000000000000000000000000000000000000000N 00000000000NCONT   00    00000000000          00000000000000000000000000000000000000000000 000000000000000A000000000000000000000000000000000000000000000 000000000000000000000000000000000000000     00000000                                                                                                                        000000000000000000
F0010000006849800004000090010880700023658300000000000000000201502240002001PROELECTRICAS DE BARRANQUILLA LTDA                C000000000024600000000000000000000100010010000000000000000000000F0010000006849800420150224000101 00000000000000000000000000000000000000000000000000000000000000000000000000000000000000000000000000000000000000000N 00000000000NCONT   00    00000000000          00000000000000000000000000000000000000000000 000000000000000A000000000000000000000000000000000000000000000 000000000000000000000000000000000000000     00000000                                                                                                                        000000000000000000
F0010000006849800005000090010880700013552100000000000000000201502240002001PROELECTRICAS DE BARRANQUILLA LTDA                D000000000024600000000000000000000100010010000000000000000000000F0010000006849800520150224000101 00000000000000000000000000000000000000000000000000000000000000000000000000000000000000000000000000000000000000000N 00000000000NCONT   00    00000000000          00000000000000000000000000000000000000000000 000000000000000A000000000000000000000000000000000000000000000 000000000000000000000000000000000000000     00000000                                                                                                                        000000000000000000
F0010000006849900001000090053611800013050500000000000000000201502240002001PELETERIA COSTA CARIBE S.A .S                     D000000089514000000000000000000000100010010000000000000000000000F0010000006849900120150224000101 00000000000000000000000000000000000000000000000000000000000000000000000000000000000000000000000000000000000000000N 00000000000NCONT   00    00000000000          00000000000000000000000000000000000000000000 000000000000000A000000000000000000000000000000000000000000000 000000000000000000000000000000000000000     00000000                                                                                                                        000000000000000000
F0010000006849900002000090053611800041450500000000000000000201502240002001PELETERIA COSTA CARIBE S.A .S                     C000000070305500000000000000000000100010010000000000000000000000F0010000006849900220150224000101 00000000000000000000000000000000000000000000000000000000000000000000000000000000000000000000000000000000000000000N 00000000000NCONT   00    00000000000          00000000000000000000000000000000000000000000 000000000000000A000000000000000000000000000000000000000000000 000000000000000000000000000000000000000     00000000                                                                                                                        000000000000000000
F0010000006849900003000090053611800042505000000000000000000201502240002001PELETERIA COSTA CARIBE S.A .S                     C000000019208500000000000000000000100010010000000000000000000000F0010000006849900320150224000101 00000000000000000000000000000000000000000000000000000000000000000000000000000000000000000000000000000000000000000N 00000000000NCONT   00    00000000000          00000000000000000000000000000000000000000000 000000000000000A000000000000000000000000000000000000000000000 000000000000000000000000000000000000000     00000000                                                                                                                        000000000000000000
F0010000006849900004000090053611800023658300000000000000000201502240002001PELETERIA COSTA CARIBE S.A .S                     C000000000562400000000000000000000100010010000000000000000000000F0010000006849900420150224000101 00000000000000000000000000000000000000000000000000000000000000000000000000000000000000000000000000000000000000000N 00000000000NCONT   00    00000000000          00000000000000000000000000000000000000000000 000000000000000A000000000000000000000000000000000000000000000 000000000000000000000000000000000000000     00000000                                                                                                                        000000000000000000
F0010000006849900005000090053611800013552100000000000000000201502240002001PELETERIA COSTA CARIBE S.A .S                     D000000000562400000000000000000000100010010000000000000000000000F0010000006849900520150224000101 00000000000000000000000000000000000000000000000000000000000000000000000000000000000000000000000000000000000000000N 00000000000NCONT   00    00000000000          00000000000000000000000000000000000000000000 000000000000000A000000000000000000000000000000000000000000000 000000000000000000000000000000000000000     00000000                                                                                                                        000000000000000000
F0010000006850000001000089011719700013050500000000000000000201502240002001REP. MUNERA GALARZA LTDA (FRANCISCO MUNERA)       D000000009520000000000000000000000100010010000000000000000000000F0010000006850000120150224000101 00000000000000000000000000000000000000000000000000000000000000000000000000000000000000000000000000000000000000000N 00000000000NCONT   00    00000000000          00000000000000000000000000000000000000000000 000000000000000A000000000000000000000000000000000000000000000 000000000000000000000000000000000000000     00000000                                                                                                                        000000000000000000
F0010000006850000002000089011719700041450500000000000000000201502240002001REP. MUNERA GALARZA LTDA (FRANCISCO MUNERA)       C000000008320000000000000000000000100010010000000000000000000000F0010000006850000220150224000101 00000000000000000000000000000000000000000000000000000000000000000000000000000000000000000000000000000000000000000N 00000000000NCONT   00    00000000000          00000000000000000000000000000000000000000000 000000000000000A000000000000000000000000000000000000000000000 000000000000000000000000000000000000000     00000000                                                                                                                        000000000000000000
F0010000006850000003000089011719700042505000000000000000000201502240002001REP. MUNERA GALARZA LTDA (FRANCISCO MUNERA)       C000000001200000000000000000000000100010010000000000000000000000F0010000006850000320150224000101 00000000000000000000000000000000000000000000000000000000000000000000000000000000000000000000000000000000000000000N 00000000000NCONT   00    00000000000          00000000000000000000000000000000000000000000 000000000000000A000000000000000000000000000000000000000000000 000000000000000000000000000000000000000     00000000                                                                                                                        000000000000000000
F0010000006850000004000089011719700023658300000000000000000201502240002001REP. MUNERA GALARZA LTDA (FRANCISCO MUNERA)       C000000000066600000000000000000000100010010000000000000000000000F0010000006850000420150224000101 00000000000000000000000000000000000000000000000000000000000000000000000000000000000000000000000000000000000000000N 00000000000NCONT   00    00000000000          00000000000000000000000000000000000000000000 000000000000000A000000000000000000000000000000000000000000000 000000000000000000000000000000000000000     00000000                                                                                                                        000000000000000000
F0010000006850000005000089011719700013552100000000000000000201502240002001REP. MUNERA GALARZA LTDA (FRANCISCO MUNERA)       D000000000066600000000000000000000100010010000000000000000000000F0010000006850000520150224000101 00000000000000000000000000000000000000000000000000000000000000000000000000000000000000000000000000000000000000000N 00000000000NCONT   00    00000000000          00000000000000000000000000000000000000000000 000000000000000A000000000000000000000000000000000000000000000 000000000000000000000000000000000000000     00000000                                                                                                                        000000000000000000
F0010000006850100001000080202132300013050500000000000000000201502240002001SUM Y SERV DE LA COSTA LTDA                       D000000029050000000000000000000000100010010000000000000000000000F0010000006850100120150224000101 00000000000000000000000000000000000000000000000000000000000000000000000000000000000000000000000000000000000000000N 00000000000NCONT   00    00000000000          00000000000000000000000000000000000000000000 000000000000000A000000000000000000000000000000000000000000000 000000000000000000000000000000000000000     00000000                                                                                                                        000000000000000000
F0010000006850100002000080202132300041450500000000000000000201502240002001SUM Y SERV DE LA COSTA LTDA                       C000000027750000000000000000000000100010010000000000000000000000F0010000006850100220150224000101 00000000000000000000000000000000000000000000000000000000000000000000000000000000000000000000000000000000000000000N 00000000000NCONT   00    00000000000          00000000000000000000000000000000000000000000 000000000000000A000000000000000000000000000000000000000000000 000000000000000000000000000000000000000     00000000                                                                                                                        000000000000000000
F0010000006850100003000080202132300042505000000000000000000201502240002001SUM Y SERV DE LA COSTA LTDA                       C000000001300000000000000000000000100010010000000000000000000000F0010000006850100320150224000101 00000000000000000000000000000000000000000000000000000000000000000000000000000000000000000000000000000000000000000N 00000000000NCONT   00    00000000000          00000000000000000000000000000000000000000000 000000000000000A000000000000000000000000000000000000000000000 000000000000000000000000000000000000000     00000000                                                                                                                        000000000000000000
F0010000006850100004000080202132300023658300000000000000000201502240002001SUM Y SERV DE LA COSTA LTDA                       C000000000222000000000000000000000100010010000000000000000000000F0010000006850100420150224000101 00000000000000000000000000000000000000000000000000000000000000000000000000000000000000000000000000000000000000000N 00000000000NCONT   00    00000000000          00000000000000000000000000000000000000000000 000000000000000A000000000000000000000000000000000000000000000 000000000000000000000000000000000000000     00000000                                                                                                                        000000000000000000
F0010000006850100005000080202132300013552100000000000000000201502240002001SUM Y SERV DE LA COSTA LTDA                       D000000000222000000000000000000000100010010000000000000000000000F0010000006850100520150224000101 00000000000000000000000000000000000000000000000000000000000000000000000000000000000000000000000000000000000000000N 00000000000NCONT   00    00000000000          00000000000000000000000000000000000000000000 000000000000000A000000000000000000000000000000000000000000000 000000000000000000000000000000000000000     00000000                                                                                                                        000000000000000000
F0010000006850200001000000870907300013050500000000000000000201502240002001SURTIDOR FERRETERO                                D000000045844000000000000000000000100010010000000000000000000000F0010000006850200120150224000101 00000000000000000000000000000000000000000000000000000000000000000000000000000000000000000000000000000000000000000N 00000000000NCONT   00    00000000000          00000000000000000000000000000000000000000000 000000000000000A000000000000000000000000000000000000000000000 000000000000000000000000000000000000000     00000000                                                                                                                        000000000000000000
F0010000006850200002000000870907300041450500000000000000000201502240002001SURTIDOR FERRETERO                                C000000033920000000000000000000000100010010000000000000000000000F0010000006850200220150224000101 00000000000000000000000000000000000000000000000000000000000000000000000000000000000000000000000000000000000000000N 00000000000NCONT   00    00000000000          00000000000000000000000000000000000000000000 000000000000000A000000000000000000000000000000000000000000000 000000000000000000000000000000000000000     00000000                                                                                                                        000000000000000000
F0010000006850200003000000870907300041750100000000000000000201502240002001SURTIDOR FERRETERO                                D000000003392000000000000000000000100010010000000000000000000000F0010000006850200320150224000101 00000000000000000000000000000000000000000000000000000000000000000000000000000000000000000000000000000000000000000N 00000000000NCONT   00    00000000000          00000000000000000000000000000000000000000000 000000000000000A000000000000000000000000000000000000000000000 000000000000000000000000000000000000000     00000000                                                                                                                        000000000000000000
F0010000006850200004000000870907300042505000000000000000000201502240002001SURTIDOR FERRETERO                                C000000015316000000000000000000000100010010000000000000000000000F0010000006850200420150224000101 00000000000000000000000000000000000000000000000000000000000000000000000000000000000000000000000000000000000000000N 00000000000NCONT   00    00000000000          00000000000000000000000000000000000000000000 000000000000000A000000000000000000000000000000000000000000000 000000000000000000000000000000000000000     00000000                                                                                                                        000000000000000000
F0010000006850200005000000870907300023658300000000000000000201502240002001SURTIDOR FERRETERO                                C000000000271400000000000000000000100010010000000000000000000000F0010000006850200520150224000101 00000000000000000000000000000000000000000000000000000000000000000000000000000000000000000000000000000000000000000N 00000000000NCONT   00    00000000000          00000000000000000000000000000000000000000000 000000000000000A000000000000000000000000000000000000000000000 000000000000000000000000000000000000000     00000000                                                                                                                        000000000000000000
F0010000006850200006000000870907300013552100000000000000000201502240002001SURTIDOR FERRETERO                                D000000000271400000000000000000000100010010000000000000000000000F0010000006850200620150224000101 00000000000000000000000000000000000000000000000000000000000000000000000000000000000000000000000000000000000000000N 00000000000NCONT   00    00000000000          00000000000000000000000000000000000000000000 000000000000000A000000000000000000000000000000000000000000000 000000000000000000000000000000000000000     00000000                                                                                                                        000000000000000000
F0010000006850300001000080202229600013050500000000000000000201502240002001MUNDIAL DE ABRASIVOS S.A                          D000000020773900000000000000000000100010010000000000000000000000F0010000006850300120150224000101 00000000000000000000000000000000000000000000000000000000000000000000000000000000000000000000000000000000000000000N 00000000000NCONT   00    00000000000          00000000000000000000000000000000000000000000 000000000000000A000000000000000000000000000000000000000000000 000000000000000000000000000000000000000     00000000                                                                                                                        000000000000000000
F0010000006850300002000080202229600041450500000000000000000201502240002001MUNDIAL DE ABRASIVOS S.A                          C000000016146600000000000000000000100010010000000000000000000000F0010000006850300220150224000101 00000000000000000000000000000000000000000000000000000000000000000000000000000000000000000000000000000000000000000N 00000000000NCONT   00    00000000000          00000000000000000000000000000000000000000000 000000000000000A000000000000000000000000000000000000000000000 000000000000000000000000000000000000000     00000000                                                                                                                        000000000000000000
F0010000006850300003000080202229600042505000000000000000000201502240002001MUNDIAL DE ABRASIVOS S.A                          C000000004627300000000000000000000100010010000000000000000000000F0010000006850300320150224000101 00000000000000000000000000000000000000000000000000000000000000000000000000000000000000000000000000000000000000000N 00000000000NCONT   00    00000000000          00000000000000000000000000000000000000000000 000000000000000A000000000000000000000000000000000000000000000 000000000000000000000000000000000000000     00000000                                                                                                                        000000000000000000
F0010000006850300004000080202229600023658300000000000000000201502240002001MUNDIAL DE ABRASIVOS S.A                          C000000000129200000000000000000000100010010000000000000000000000F0010000006850300420150224000101 00000000000000000000000000000000000000000000000000000000000000000000000000000000000000000000000000000000000000000N 00000000000NCONT   00    00000000000          00000000000000000000000000000000000000000000 000000000000000A000000000000000000000000000000000000000000000 000000000000000000000000000000000000000     00000000                                                                                                                        000000000000000000
F0010000006850300005000080202229600013552100000000000000000201502240002001MUNDIAL DE ABRASIVOS S.A                          D000000000129200000000000000000000100010010000000000000000000000F0010000006850300520150224000101 00000000000000000000000000000000000000000000000000000000000000000000000000000000000000000000000000000000000000000N 00000000000NCONT   00    00000000000          00000000000000000000000000000000000000000000 000000000000000A000000000000000000000000000000000000000000000 000000000000000000000000000000000000000     00000000                                                                                                                        000000000000000000
F0010000006850400001000090044920600013050500000000000000000201502240002001QUATRO CARIBE SAS                                 D000000039878700000000000000000000100010010000000000000000000000F0010000006850400120150224000101 00000000000000000000000000000000000000000000000000000000000000000000000000000000000000000000000000000000000000000N 00000000000NCONT   00    00000000000          00000000000000000000000000000000000000000000 000000000000000A000000000000000000000000000000000000000000000 000000000000000000000000000000000000000     00000000                                                                                                                        000000000000000000
F0010000006850400002000090044920600041450500000000000000000201502240002001QUATRO CARIBE SAS                                 C000000031790000000000000000000000100010010000000000000000000000F0010000006850400220150224000101 00000000000000000000000000000000000000000000000000000000000000000000000000000000000000000000000000000000000000000N 00000000000NCONT   00    00000000000          00000000000000000000000000000000000000000000 000000000000000A000000000000000000000000000000000000000000000 000000000000000000000000000000000000000     00000000                                                                                                                        000000000000000000
F0010000006850400003000090044920600042505000000000000000000201502240002001QUATRO CARIBE SAS                                 C000000008088700000000000000000000100010010000000000000000000000F0010000006850400320150224000101 00000000000000000000000000000000000000000000000000000000000000000000000000000000000000000000000000000000000000000N 00000000000NCONT   00    00000000000          00000000000000000000000000000000000000000000 000000000000000A000000000000000000000000000000000000000000000 000000000000000000000000000000000000000     00000000                                                                                                                        000000000000000000
F0010000006850400004000090044920600023658300000000000000000201502240002001QUATRO CARIBE SAS                                 C000000000254300000000000000000000100010010000000000000000000000F0010000006850400420150224000101 00000000000000000000000000000000000000000000000000000000000000000000000000000000000000000000000000000000000000000N 00000000000NCONT   00    00000000000          00000000000000000000000000000000000000000000 000000000000000A000000000000000000000000000000000000000000000 000000000000000000000000000000000000000     00000000                                                                                                                        000000000000000000
F0010000006850400005000090044920600013552100000000000000000201502240002001QUATRO CARIBE SAS                                 D000000000254300000000000000000000100010010000000000000000000000F0010000006850400520150224000101 00000000000000000000000000000000000000000000000000000000000000000000000000000000000000000000000000000000000000000N 00000000000NCONT   00    00000000000          00000000000000000000000000000000000000000000 000000000000000A000000000000000000000000000000000000000000000 000000000000000000000000000000000000000     00000000                                                                                                                        000000000000000000
F0010000006850500001000080201127600013050500000000000000000201502240002001ELECTRICOS DEL RUIZ S.A.S.                        D000000130522200000000000000000000100010010000000000000000000000F0010000006850500120150224000101 00000000000000000000000000000000000000000000000000000000000000000000000000000000000000000000000000000000000000000N 00000000000NCONT   00    00000000000          00000000000000000000000000000000000000000000 000000000000000A000000000000000000000000000000000000000000000 000000000000000000000000000000000000000     00000000                                                                                                                        000000000000000000
F0010000006850500002000080201127600041450500000000000000000201502240002001ELECTRICOS DEL RUIZ S.A.S.                        C000000107930000000000000000000000100010010000000000000000000000F0010000006850500220150224000101 00000000000000000000000000000000000000000000000000000000000000000000000000000000000000000000000000000000000000000N 00000000000NCONT   00    00000000000          00000000000000000000000000000000000000000000 000000000000000A000000000000000000000000000000000000000000000 000000000000000000000000000000000000000     00000000                                                                                                                        000000000000000000
F0010000006850500003000080201127600042505000000000000000000201502240002001ELECTRICOS DEL RUIZ S.A.S.                        C000000022592200000000000000000000100010010000000000000000000000F0010000006850500320150224000101 00000000000000000000000000000000000000000000000000000000000000000000000000000000000000000000000000000000000000000N 00000000000NCONT   00    00000000000          00000000000000000000000000000000000000000000 000000000000000A000000000000000000000000000000000000000000000 000000000000000000000000000000000000000     00000000                                                                                                                        000000000000000000
F0010000006850500004000080201127600023658300000000000000000201502240002001ELECTRICOS DEL RUIZ S.A.S.                        C000000000863400000000000000000000100010010000000000000000000000F0010000006850500420150224000101 00000000000000000000000000000000000000000000000000000000000000000000000000000000000000000000000000000000000000000N 00000000000NCONT   00    00000000000          00000000000000000000000000000000000000000000 000000000000000A000000000000000000000000000000000000000000000 000000000000000000000000000000000000000     00000000                                                                                                                        000000000000000000
F0010000006850500005000080201127600013552100000000000000000201502240002001ELECTRICOS DEL RUIZ S.A.S.                        D000000000863400000000000000000000100010010000000000000000000000F0010000006850500520150224000101 00000000000000000000000000000000000000000000000000000000000000000000000000000000000000000000000000000000000000000N 00000000000NCONT   00    00000000000          00000000000000000000000000000000000000000000 000000000000000A000000000000000000000000000000000000000000000 000000000000000000000000000000000000000     00000000                                                                                                                        000000000000000000
F0010000006850600001000007215896800013050500000000000000000201502240002001EDDIER CIRO                                       D000000132699700000000000000000000100010010000000000000000000000F0010000006850600120150224000101 00000000000000000000000000000000000000000000000000000000000000000000000000000000000000000000000000000000000000000N 00000000000NCONT   00    00000000000          00000000000000000000000000000000000000000000 000000000000000A000000000000000000000000000000000000000000000 000000000000000000000000000000000000000     00000000                                                                                                                        000000000000000000
F0010000006850600002000007215896800041450500000000000000000201502240002001EDDIER CIRO                                       C000000103660000000000000000000000100010010000000000000000000000F0010000006850600220150224000101 00000000000000000000000000000000000000000000000000000000000000000000000000000000000000000000000000000000000000000N 00000000000NCONT   00    00000000000          00000000000000000000000000000000000000000000 000000000000000A000000000000000000000000000000000000000000000 000000000000000000000000000000000000000     00000000                                                                                                                        000000000000000000
F0010000006850600003000007215896800042505000000000000000000201502240002001EDDIER CIRO                                       C000000029039700000000000000000000100010010000000000000000000000F0010000006850600320150224000101 00000000000000000000000000000000000000000000000000000000000000000000000000000000000000000000000000000000000000000N 00000000000NCONT   00    00000000000          00000000000000000000000000000000000000000000 000000000000000A000000000000000000000000000000000000000000000 000000000000000000000000000000000000000     00000000                                                                                                                        000000000000000000
F0010000006850600004000007215896800023658300000000000000000201502240002001EDDIER CIRO                                       C000000000829300000000000000000000100010010000000000000000000000F0010000006850600420150224000101 00000000000000000000000000000000000000000000000000000000000000000000000000000000000000000000000000000000000000000N 00000000000NCONT   00    00000000000          00000000000000000000000000000000000000000000 000000000000000A000000000000000000000000000000000000000000000 000000000000000000000000000000000000000     00000000                                                                                                                        000000000000000000
F0010000006850600005000007215896800013552100000000000000000201502240002001EDDIER CIRO                                       D000000000829300000000000000000000100010010000000000000000000000F0010000006850600520150224000101 00000000000000000000000000000000000000000000000000000000000000000000000000000000000000000000000000000000000000000N 00000000000NCONT   00    00000000000          00000000000000000000000000000000000000000000 000000000000000A000000000000000000000000000000000000000000000 000000000000000000000000000000000000000     00000000                                                                                                                        000000000000000000
F0010000006850700001000007215896800013050500000000000000000201502240002001EDDIER CIRO                                       D000000023429400000000000000000000100010010000000000000000000000F0010000006850700120150224000101 00000000000000000000000000000000000000000000000000000000000000000000000000000000000000000000000000000000000000000N 00000000000NCONT   00    00000000000          00000000000000000000000000000000000000000000 000000000000000A000000000000000000000000000000000000000000000 000000000000000000000000000000000000000     00000000                                                                                                                        000000000000000000
F0010000006850700002000007215896800041450500000000000000000201502240002001EDDIER CIRO                                       C000000019240000000000000000000000100010010000000000000000000000F0010000006850700220150224000101 00000000000000000000000000000000000000000000000000000000000000000000000000000000000000000000000000000000000000000N 00000000000NCONT   00    00000000000          00000000000000000000000000000000000000000000 000000000000000A000000000000000000000000000000000000000000000 000000000000000000000000000000000000000     00000000                                                                                                                        000000000000000000
F0010000006850700003000007215896800042505000000000000000000201502240002001EDDIER CIRO                                       C000000004189400000000000000000000100010010000000000000000000000F0010000006850700320150224000101 00000000000000000000000000000000000000000000000000000000000000000000000000000000000000000000000000000000000000000N 00000000000NCONT   00    00000000000          00000000000000000000000000000000000000000000 000000000000000A000000000000000000000000000000000000000000000 000000000000000000000000000000000000000     00000000                                                                                                                        000000000000000000
F0010000006850700004000007215896800023658300000000000000000201502240002001EDDIER CIRO                                       C000000000153900000000000000000000100010010000000000000000000000F0010000006850700420150224000101 00000000000000000000000000000000000000000000000000000000000000000000000000000000000000000000000000000000000000000N 00000000000NCONT   00    00000000000          00000000000000000000000000000000000000000000 000000000000000A000000000000000000000000000000000000000000000 000000000000000000000000000000000000000     00000000                                                                                                                        000000000000000000
F0010000006850700005000007215896800013552100000000000000000201502240002001EDDIER CIRO                                       D000000000153900000000000000000000100010010000000000000000000000F0010000006850700520150224000101 00000000000000000000000000000000000000000000000000000000000000000000000000000000000000000000000000000000000000000N 00000000000NCONT   00    00000000000          00000000000000000000000000000000000000000000 000000000000000A000000000000000000000000000000000000000000000 000000000000000000000000000000000000000     00000000                                                                                                                        000000000000000000
F0010000006850800001000000431178400013050500000000000000000201502240002001EFRAIN ALVAREZ                                    D000000036135000000000000000000000100010010000000000000000000000F0010000006850800120150224000101 00000000000000000000000000000000000000000000000000000000000000000000000000000000000000000000000000000000000000000N 00000000000NCONT   00    00000000000          00000000000000000000000000000000000000000000 000000000000000A000000000000000000000000000000000000000000000 000000000000000000000000000000000000000     00000000                                                                                                                        000000000000000000
