F0010000007441800001000086000490200013050500000000000000000201508050002001PROV. DE PAPELES ANDINA S.A.                      D000000001332000000000000000000000100010010000000000000000000000F0010000007441800120150805000101 00000000000000000000000000000000000000000000000000000000000000000000000000000000000000000000000000000000000000000N 00000000000NCONT   00    00000000000          00000000000000000000000000000000000000000000 000000000000000A000000000000000000000000000000000000000000000 000000000000000000000000000000000000000     00000000                                                                                                                        000000000000000000
F0010000007441800002000086000490200041450500000000000000000201508050002001PROV. DE PAPELES ANDINA S.A.                      C000000001200000000000000000000000100010010000000000000000000000F0010000007441800220150805000101 00000000000000000000000000000000000000000000000000000000000000000000000000000000000000000000000000000000000000000N 00000000000NCONT   00    00000000000          00000000000000000000000000000000000000000000 000000000000000A000000000000000000000000000000000000000000000 000000000000000000000000000000000000000     00000000                                                                                                                        000000000000000000
F0010000007441800003000086000490200042505000000000000000000201508050002001PROV. DE PAPELES ANDINA S.A.                      C000000000132000000000000000000000100010010000000000000000000000F0010000007441800320150805000101 00000000000000000000000000000000000000000000000000000000000000000000000000000000000000000000000000000000000000000N 00000000000NCONT   00    00000000000          00000000000000000000000000000000000000000000 000000000000000A000000000000000000000000000000000000000000000 000000000000000000000000000000000000000     00000000                                                                                                                        000000000000000000
F0010000007441800004000086000490200023658300000000000000000201508050002001PROV. DE PAPELES ANDINA S.A.                      C000000000009600000000000000000000100010010000000000000000000000F0010000007441800420150805000101 00000000000000000000000000000000000000000000000000000000000000000000000000000000000000000000000000000000000000000N 00000000000NCONT   00    00000000000          00000000000000000000000000000000000000000000 000000000000000A000000000000000000000000000000000000000000000 000000000000000000000000000000000000000     00000000                                                                                                                        000000000000000000
F0010000007441800005000086000490200013552100000000000000000201508050002001PROV. DE PAPELES ANDINA S.A.                      D000000000009600000000000000000000100010010000000000000000000000F0010000007441800520150805000101 00000000000000000000000000000000000000000000000000000000000000000000000000000000000000000000000000000000000000000N 00000000000NCONT   00    00000000000          00000000000000000000000000000000000000000000 000000000000000A000000000000000000000000000000000000000000000 000000000000000000000000000000000000000     00000000                                                                                                                        000000000000000000
F0010000007441900001000003265780700011050500000000000000000201508050002001ZUNILDA GUERRERO                                  D000000003000000000000000000000000100010010000000000000000000000F0010000007441900120150805000101 00000000000000000000000000000000000000000000000000000000000000000000000000000000000000000000000000000000000000000N 00000000000NCONT   00    00000000000          00000000000000000000000000000000000000000000 000000000000000A000000000000000000000000000000000000000000000 000000000000000000000000000000000000000     00000000                                                                                                                        000000000000000000
F0010000007441900002000003265780700041450500000000000000000201508050002001ZUNILDA GUERRERO                                  C000000002500000000000000000000000100010010000000000000000000000F0010000007441900220150805000101 00000000000000000000000000000000000000000000000000000000000000000000000000000000000000000000000000000000000000000N 00000000000NCONT   00    00000000000          00000000000000000000000000000000000000000000 000000000000000A000000000000000000000000000000000000000000000 000000000000000000000000000000000000000     00000000                                                                                                                        000000000000000000
F0010000007441900003000003265780700042505000000000000000000201508050002001ZUNILDA GUERRERO                                  C000000000500000000000000000000000100010010000000000000000000000F0010000007441900320150805000101 00000000000000000000000000000000000000000000000000000000000000000000000000000000000000000000000000000000000000000N 00000000000NCONT   00    00000000000          00000000000000000000000000000000000000000000 000000000000000A000000000000000000000000000000000000000000000 000000000000000000000000000000000000000     00000000                                                                                                                        000000000000000000
F0010000007441900004000003265780700023658300000000000000000201508050002001ZUNILDA GUERRERO                                  C000000000020000000000000000000000100010010000000000000000000000F0010000007441900420150805000101 00000000000000000000000000000000000000000000000000000000000000000000000000000000000000000000000000000000000000000N 00000000000NCONT   00    00000000000          00000000000000000000000000000000000000000000 000000000000000A000000000000000000000000000000000000000000000 000000000000000000000000000000000000000     00000000                                                                                                                        000000000000000000
F0010000007441900005000003265780700013552100000000000000000201508050002001ZUNILDA GUERRERO                                  D000000000020000000000000000000000100010010000000000000000000000F0010000007441900520150805000101 00000000000000000000000000000000000000000000000000000000000000000000000000000000000000000000000000000000000000000N 00000000000NCONT   00    00000000000          00000000000000000000000000000000000000000000 000000000000000A000000000000000000000000000000000000000000000 000000000000000000000000000000000000000     00000000                                                                                                                        000000000000000000
F0010000007442000001000007225511500011050500000000000000000201508050002001MAIGEL CHADID                                     D000000001400000000000000000000000100010010000000000000000000000F0010000007442000120150805000101 00000000000000000000000000000000000000000000000000000000000000000000000000000000000000000000000000000000000000000N 00000000000NCONT   00    00000000000          00000000000000000000000000000000000000000000 000000000000000A000000000000000000000000000000000000000000000 000000000000000000000000000000000000000     00000000                                                                                                                        000000000000000000
F0010000007442000002000007225511500041450500000000000000000201508050002001MAIGEL CHADID                                     C000000001050000000000000000000000100010010000000000000000000000F0010000007442000220150805000101 00000000000000000000000000000000000000000000000000000000000000000000000000000000000000000000000000000000000000000N 00000000000NCONT   00    00000000000          00000000000000000000000000000000000000000000 000000000000000A000000000000000000000000000000000000000000000 000000000000000000000000000000000000000     00000000                                                                                                                        000000000000000000
F0010000007442000003000007225511500042505000000000000000000201508050002001MAIGEL CHADID                                     C000000000350000000000000000000000100010010000000000000000000000F0010000007442000320150805000101 00000000000000000000000000000000000000000000000000000000000000000000000000000000000000000000000000000000000000000N 00000000000NCONT   00    00000000000          00000000000000000000000000000000000000000000 000000000000000A000000000000000000000000000000000000000000000 000000000000000000000000000000000000000     00000000                                                                                                                        000000000000000000
F0010000007442000004000007225511500023658300000000000000000201508050002001MAIGEL CHADID                                     C000000000008400000000000000000000100010010000000000000000000000F0010000007442000420150805000101 00000000000000000000000000000000000000000000000000000000000000000000000000000000000000000000000000000000000000000N 00000000000NCONT   00    00000000000          00000000000000000000000000000000000000000000 000000000000000A000000000000000000000000000000000000000000000 000000000000000000000000000000000000000     00000000                                                                                                                        000000000000000000
F0010000007442000005000007225511500013552100000000000000000201508050002001MAIGEL CHADID                                     D000000000008400000000000000000000100010010000000000000000000000F0010000007442000520150805000101 00000000000000000000000000000000000000000000000000000000000000000000000000000000000000000000000000000000000000000N 00000000000NCONT   00    00000000000          00000000000000000000000000000000000000000000 000000000000000A000000000000000000000000000000000000000000000 000000000000000000000000000000000000000     00000000                                                                                                                        000000000000000000
F0010000007442100001000090020547900011050500000000000000000201508050002001COMERCIALIZADORA DAC DEL CARIBE S.A.S.            D000000003829300000000000000000000100010010000000000000000000000F0010000007442100120150805000101 00000000000000000000000000000000000000000000000000000000000000000000000000000000000000000000000000000000000000000N 00000000000NCONT   00    00000000000          00000000000000000000000000000000000000000000 000000000000000A000000000000000000000000000000000000000000000 000000000000000000000000000000000000000     00000000                                                                                                                        000000000000000000
F0010000007442100002000090020547900041450500000000000000000201508050002001COMERCIALIZADORA DAC DEL CARIBE S.A.S.            C000000002700000000000000000000000100010010000000000000000000000F0010000007442100220150805000101 00000000000000000000000000000000000000000000000000000000000000000000000000000000000000000000000000000000000000000N 00000000000NCONT   00    00000000000          00000000000000000000000000000000000000000000 000000000000000A000000000000000000000000000000000000000000000 000000000000000000000000000000000000000     00000000                                                                                                                        000000000000000000
F0010000007442100003000090020547900042505000000000000000000201508050002001COMERCIALIZADORA DAC DEL CARIBE S.A.S.            C000000001129300000000000000000000100010010000000000000000000000F0010000007442100320150805000101 00000000000000000000000000000000000000000000000000000000000000000000000000000000000000000000000000000000000000000N 00000000000NCONT   00    00000000000          00000000000000000000000000000000000000000000 000000000000000A000000000000000000000000000000000000000000000 000000000000000000000000000000000000000     00000000                                                                                                                        000000000000000000
F0010000007442100004000090020547900023658300000000000000000201508050002001COMERCIALIZADORA DAC DEL CARIBE S.A.S.            C000000000021600000000000000000000100010010000000000000000000000F0010000007442100420150805000101 00000000000000000000000000000000000000000000000000000000000000000000000000000000000000000000000000000000000000000N 00000000000NCONT   00    00000000000          00000000000000000000000000000000000000000000 000000000000000A000000000000000000000000000000000000000000000 000000000000000000000000000000000000000     00000000                                                                                                                        000000000000000000
F0010000007442100005000090020547900013552100000000000000000201508050002001COMERCIALIZADORA DAC DEL CARIBE S.A.S.            D000000000021600000000000000000000100010010000000000000000000000F0010000007442100520150805000101 00000000000000000000000000000000000000000000000000000000000000000000000000000000000000000000000000000000000000000N 00000000000NCONT   00    00000000000          00000000000000000000000000000000000000000000 000000000000000A000000000000000000000000000000000000000000000 000000000000000000000000000000000000000     00000000                                                                                                                        000000000000000000
F0010000007442200001000090020547900011050500000000000000000201508050002001COMERCIALIZADORA DAC DEL CARIBE S.A.S.            D000000001383100000000000000000000100010010000000000000000000000F0010000007442200120150805000101 00000000000000000000000000000000000000000000000000000000000000000000000000000000000000000000000000000000000000000N 00000000000NCONT   00    00000000000          00000000000000000000000000000000000000000000 000000000000000A000000000000000000000000000000000000000000000 000000000000000000000000000000000000000     00000000                                                                                                                        000000000000000000
F0010000007442200002000090020547900041450500000000000000000201508050002001COMERCIALIZADORA DAC DEL CARIBE S.A.S.            C000000000900000000000000000000000100010010000000000000000000000F0010000007442200220150805000101 00000000000000000000000000000000000000000000000000000000000000000000000000000000000000000000000000000000000000000N 00000000000NCONT   00    00000000000          00000000000000000000000000000000000000000000 000000000000000A000000000000000000000000000000000000000000000 000000000000000000000000000000000000000     00000000                                                                                                                        000000000000000000
F0010000007442200003000090020547900042505000000000000000000201508050002001COMERCIALIZADORA DAC DEL CARIBE S.A.S.            C000000000483100000000000000000000100010010000000000000000000000F0010000007442200320150805000101 00000000000000000000000000000000000000000000000000000000000000000000000000000000000000000000000000000000000000000N 00000000000NCONT   00    00000000000          00000000000000000000000000000000000000000000 000000000000000A000000000000000000000000000000000000000000000 000000000000000000000000000000000000000     00000000                                                                                                                        000000000000000000
F0010000007442200004000090020547900023658300000000000000000201508050002001COMERCIALIZADORA DAC DEL CARIBE S.A.S.            C000000000007200000000000000000000100010010000000000000000000000F0010000007442200420150805000101 00000000000000000000000000000000000000000000000000000000000000000000000000000000000000000000000000000000000000000N 00000000000NCONT   00    00000000000          00000000000000000000000000000000000000000000 000000000000000A000000000000000000000000000000000000000000000 000000000000000000000000000000000000000     00000000                                                                                                                        000000000000000000
F0010000007442200005000090020547900013552100000000000000000201508050002001COMERCIALIZADORA DAC DEL CARIBE S.A.S.            D000000000007200000000000000000000100010010000000000000000000000F0010000007442200520150805000101 00000000000000000000000000000000000000000000000000000000000000000000000000000000000000000000000000000000000000000N 00000000000NCONT   00    00000000000          00000000000000000000000000000000000000000000 000000000000000A000000000000000000000000000000000000000000000 000000000000000000000000000000000000000     00000000                                                                                                                        000000000000000000
F0010000007442300001000090020547900011050500000000000000000201508050002001COMERCIALIZADORA DAC DEL CARIBE S.A.S.            D000000004387800000000000000000000100010010000000000000000000000F0010000007442300120150805000101 00000000000000000000000000000000000000000000000000000000000000000000000000000000000000000000000000000000000000000N 00000000000NCONT   00    00000000000          00000000000000000000000000000000000000000000 000000000000000A000000000000000000000000000000000000000000000 000000000000000000000000000000000000000     00000000                                                                                                                        000000000000000000
F0010000007442300002000090020547900041450500000000000000000201508050002001COMERCIALIZADORA DAC DEL CARIBE S.A.S.            C000000003600000000000000000000000100010010000000000000000000000F0010000007442300220150805000101 00000000000000000000000000000000000000000000000000000000000000000000000000000000000000000000000000000000000000000N 00000000000NCONT   00    00000000000          00000000000000000000000000000000000000000000 000000000000000A000000000000000000000000000000000000000000000 000000000000000000000000000000000000000     00000000                                                                                                                        000000000000000000
F0010000007442300003000090020547900042505000000000000000000201508050002001COMERCIALIZADORA DAC DEL CARIBE S.A.S.            C000000000787800000000000000000000100010010000000000000000000000F0010000007442300320150805000101 00000000000000000000000000000000000000000000000000000000000000000000000000000000000000000000000000000000000000000N 00000000000NCONT   00    00000000000          00000000000000000000000000000000000000000000 000000000000000A000000000000000000000000000000000000000000000 000000000000000000000000000000000000000     00000000                                                                                                                        000000000000000000
F0010000007442300004000090020547900023658300000000000000000201508050002001COMERCIALIZADORA DAC DEL CARIBE S.A.S.            C000000000028800000000000000000000100010010000000000000000000000F0010000007442300420150805000101 00000000000000000000000000000000000000000000000000000000000000000000000000000000000000000000000000000000000000000N 00000000000NCONT   00    00000000000          00000000000000000000000000000000000000000000 000000000000000A000000000000000000000000000000000000000000000 000000000000000000000000000000000000000     00000000                                                                                                                        000000000000000000
F0010000007442300005000090020547900013552100000000000000000201508050002001COMERCIALIZADORA DAC DEL CARIBE S.A.S.            D000000000028800000000000000000000100010010000000000000000000000F0010000007442300520150805000101 00000000000000000000000000000000000000000000000000000000000000000000000000000000000000000000000000000000000000000N 00000000000NCONT   00    00000000000          00000000000000000000000000000000000000000000 000000000000000A000000000000000000000000000000000000000000000 000000000000000000000000000000000000000     00000000                                                                                                                        000000000000000000
F0010000007442400001000000257193600011050500000000000000000201508050002001OSCAR YALI PLAZA                                  D000000005500000000000000000000000100010010000000000000000000000F0010000007442400120150805000101 00000000000000000000000000000000000000000000000000000000000000000000000000000000000000000000000000000000000000000N 00000000000NCONT   00    00000000000          00000000000000000000000000000000000000000000 000000000000000A000000000000000000000000000000000000000000000 000000000000000000000000000000000000000     00000000                                                                                                                        000000000000000000
F0010000007442400002000000257193600041450500000000000000000201508050002001OSCAR YALI PLAZA                                  C000000004500000000000000000000000100010010000000000000000000000F0010000007442400220150805000101 00000000000000000000000000000000000000000000000000000000000000000000000000000000000000000000000000000000000000000N 00000000000NCONT   00    00000000000          00000000000000000000000000000000000000000000 000000000000000A000000000000000000000000000000000000000000000 000000000000000000000000000000000000000     00000000                                                                                                                        000000000000000000
F0010000007442400003000000257193600042505000000000000000000201508050002001OSCAR YALI PLAZA                                  C000000001000000000000000000000000100010010000000000000000000000F0010000007442400320150805000101 00000000000000000000000000000000000000000000000000000000000000000000000000000000000000000000000000000000000000000N 00000000000NCONT   00    00000000000          00000000000000000000000000000000000000000000 000000000000000A000000000000000000000000000000000000000000000 000000000000000000000000000000000000000     00000000                                                                                                                        000000000000000000
F0010000007442400004000000257193600023658300000000000000000201508050002001OSCAR YALI PLAZA                                  C000000000036000000000000000000000100010010000000000000000000000F0010000007442400420150805000101 00000000000000000000000000000000000000000000000000000000000000000000000000000000000000000000000000000000000000000N 00000000000NCONT   00    00000000000          00000000000000000000000000000000000000000000 000000000000000A000000000000000000000000000000000000000000000 000000000000000000000000000000000000000     00000000                                                                                                                        000000000000000000
F0010000007442400005000000257193600013552100000000000000000201508050002001OSCAR YALI PLAZA                                  D000000000036000000000000000000000100010010000000000000000000000F0010000007442400520150805000101 00000000000000000000000000000000000000000000000000000000000000000000000000000000000000000000000000000000000000000N 00000000000NCONT   00    00000000000          00000000000000000000000000000000000000000000 000000000000000A000000000000000000000000000000000000000000000 000000000000000000000000000000000000000     00000000                                                                                                                        000000000000000000
F0010000007442500001000000257193600011050500000000000000000201508050002001OSCAR YALI PLAZA                                  D000000002600000000000000000000000100010010000000000000000000000F0010000007442500120150805000101 00000000000000000000000000000000000000000000000000000000000000000000000000000000000000000000000000000000000000000N 00000000000NCONT   00    00000000000          00000000000000000000000000000000000000000000 000000000000000A000000000000000000000000000000000000000000000 000000000000000000000000000000000000000     00000000                                                                                                                        000000000000000000
F0010000007442500002000000257193600041450500000000000000000201508050002001OSCAR YALI PLAZA                                  C000000001800000000000000000000000100010010000000000000000000000F0010000007442500220150805000101 00000000000000000000000000000000000000000000000000000000000000000000000000000000000000000000000000000000000000000N 00000000000NCONT   00    00000000000          00000000000000000000000000000000000000000000 000000000000000A000000000000000000000000000000000000000000000 000000000000000000000000000000000000000     00000000                                                                                                                        000000000000000000
F0010000007442500003000000257193600042505000000000000000000201508050002001OSCAR YALI PLAZA                                  C000000000800000000000000000000000100010010000000000000000000000F0010000007442500320150805000101 00000000000000000000000000000000000000000000000000000000000000000000000000000000000000000000000000000000000000000N 00000000000NCONT   00    00000000000          00000000000000000000000000000000000000000000 000000000000000A000000000000000000000000000000000000000000000 000000000000000000000000000000000000000     00000000                                                                                                                        000000000000000000
F0010000007442500004000000257193600023658300000000000000000201508050002001OSCAR YALI PLAZA                                  C000000000014400000000000000000000100010010000000000000000000000F0010000007442500420150805000101 00000000000000000000000000000000000000000000000000000000000000000000000000000000000000000000000000000000000000000N 00000000000NCONT   00    00000000000          00000000000000000000000000000000000000000000 000000000000000A000000000000000000000000000000000000000000000 000000000000000000000000000000000000000     00000000                                                                                                                        000000000000000000
F0010000007442500005000000257193600013552100000000000000000201508050002001OSCAR YALI PLAZA                                  D000000000014400000000000000000000100010010000000000000000000000F0010000007442500520150805000101 00000000000000000000000000000000000000000000000000000000000000000000000000000000000000000000000000000000000000000N 00000000000NCONT   00    00000000000          00000000000000000000000000000000000000000000 000000000000000A000000000000000000000000000000000000000000000 000000000000000000000000000000000000000     00000000                                                                                                                        000000000000000000
F0010000007442600001000000257193600011050500000000000000000201508050002001OSCAR YALI PLAZA                                  D000000001320000000000000000000000100010010000000000000000000000F0010000007442600120150805000101 00000000000000000000000000000000000000000000000000000000000000000000000000000000000000000000000000000000000000000N 00000000000NCONT   00    00000000000          00000000000000000000000000000000000000000000 000000000000000A000000000000000000000000000000000000000000000 000000000000000000000000000000000000000     00000000                                                                                                                        000000000000000000
F0010000007442600002000000257193600041450500000000000000000201508050002001OSCAR YALI PLAZA                                  C000000001200000000000000000000000100010010000000000000000000000F0010000007442600220150805000101 00000000000000000000000000000000000000000000000000000000000000000000000000000000000000000000000000000000000000000N 00000000000NCONT   00    00000000000          00000000000000000000000000000000000000000000 000000000000000A000000000000000000000000000000000000000000000 000000000000000000000000000000000000000     00000000                                                                                                                        000000000000000000
F0010000007442600003000000257193600042505000000000000000000201508050002001OSCAR YALI PLAZA                                  C000000000120000000000000000000000100010010000000000000000000000F0010000007442600320150805000101 00000000000000000000000000000000000000000000000000000000000000000000000000000000000000000000000000000000000000000N 00000000000NCONT   00    00000000000          00000000000000000000000000000000000000000000 000000000000000A000000000000000000000000000000000000000000000 000000000000000000000000000000000000000     00000000                                                                                                                        000000000000000000
F0010000007442600004000000257193600023658300000000000000000201508050002001OSCAR YALI PLAZA                                  C000000000009600000000000000000000100010010000000000000000000000F0010000007442600420150805000101 00000000000000000000000000000000000000000000000000000000000000000000000000000000000000000000000000000000000000000N 00000000000NCONT   00    00000000000          00000000000000000000000000000000000000000000 000000000000000A000000000000000000000000000000000000000000000 000000000000000000000000000000000000000     00000000                                                                                                                        000000000000000000
F0010000007442600005000000257193600013552100000000000000000201508050002001OSCAR YALI PLAZA                                  D000000000009600000000000000000000100010010000000000000000000000F0010000007442600520150805000101 00000000000000000000000000000000000000000000000000000000000000000000000000000000000000000000000000000000000000000N 00000000000NCONT   00    00000000000          00000000000000000000000000000000000000000000 000000000000000A000000000000000000000000000000000000000000000 000000000000000000000000000000000000000     00000000                                                                                                                        000000000000000000
F0010000007442700001000000257193600011050500000000000000000201508050002001OSCAR YALI PLAZA                                  D000000005800000000000000000000000100010010000000000000000000000F0010000007442700120150805000101 00000000000000000000000000000000000000000000000000000000000000000000000000000000000000000000000000000000000000000N 00000000000NCONT   00    00000000000          00000000000000000000000000000000000000000000 000000000000000A000000000000000000000000000000000000000000000 000000000000000000000000000000000000000     00000000                                                                                                                        000000000000000000
F0010000007442700002000000257193600041450500000000000000000201508050002001OSCAR YALI PLAZA                                  C000000004800000000000000000000000100010010000000000000000000000F0010000007442700220150805000101 00000000000000000000000000000000000000000000000000000000000000000000000000000000000000000000000000000000000000000N 00000000000NCONT   00    00000000000          00000000000000000000000000000000000000000000 000000000000000A000000000000000000000000000000000000000000000 000000000000000000000000000000000000000     00000000                                                                                                                        000000000000000000
F0010000007442700003000000257193600042505000000000000000000201508050002001OSCAR YALI PLAZA                                  C000000001000000000000000000000000100010010000000000000000000000F0010000007442700320150805000101 00000000000000000000000000000000000000000000000000000000000000000000000000000000000000000000000000000000000000000N 00000000000NCONT   00    00000000000          00000000000000000000000000000000000000000000 000000000000000A000000000000000000000000000000000000000000000 000000000000000000000000000000000000000     00000000                                                                                                                        000000000000000000
F0010000007442700004000000257193600023658300000000000000000201508050002001OSCAR YALI PLAZA                                  C000000000038400000000000000000000100010010000000000000000000000F0010000007442700420150805000101 00000000000000000000000000000000000000000000000000000000000000000000000000000000000000000000000000000000000000000N 00000000000NCONT   00    00000000000          00000000000000000000000000000000000000000000 000000000000000A000000000000000000000000000000000000000000000 000000000000000000000000000000000000000     00000000                                                                                                                        000000000000000000
F0010000007442700005000000257193600013552100000000000000000201508050002001OSCAR YALI PLAZA                                  D000000000038400000000000000000000100010010000000000000000000000F0010000007442700520150805000101 00000000000000000000000000000000000000000000000000000000000000000000000000000000000000000000000000000000000000000N 00000000000NCONT   00    00000000000          00000000000000000000000000000000000000000000 000000000000000A000000000000000000000000000000000000000000000 000000000000000000000000000000000000000     00000000                                                                                                                        000000000000000000
F0010000007442800001000000257193600011050500000000000000000201508050002001OSCAR YALI PLAZA                                  D000000001700000000000000000000000100010010000000000000000000000F0010000007442800120150805000101 00000000000000000000000000000000000000000000000000000000000000000000000000000000000000000000000000000000000000000N 00000000000NCONT   00    00000000000          00000000000000000000000000000000000000000000 000000000000000A000000000000000000000000000000000000000000000 000000000000000000000000000000000000000     00000000                                                                                                                        000000000000000000
F0010000007442800002000000257193600041450500000000000000000201508050002001OSCAR YALI PLAZA                                  C000000001300000000000000000000000100010010000000000000000000000F0010000007442800220150805000101 00000000000000000000000000000000000000000000000000000000000000000000000000000000000000000000000000000000000000000N 00000000000NCONT   00    00000000000          00000000000000000000000000000000000000000000 000000000000000A000000000000000000000000000000000000000000000 000000000000000000000000000000000000000     00000000                                                                                                                        000000000000000000
F0010000007442800003000000257193600042505000000000000000000201508050002001OSCAR YALI PLAZA                                  C000000000400000000000000000000000100010010000000000000000000000F0010000007442800320150805000101 00000000000000000000000000000000000000000000000000000000000000000000000000000000000000000000000000000000000000000N 00000000000NCONT   00    00000000000          00000000000000000000000000000000000000000000 000000000000000A000000000000000000000000000000000000000000000 000000000000000000000000000000000000000     00000000                                                                                                                        000000000000000000
F0010000007442800004000000257193600023658300000000000000000201508050002001OSCAR YALI PLAZA                                  C000000000010400000000000000000000100010010000000000000000000000F0010000007442800420150805000101 00000000000000000000000000000000000000000000000000000000000000000000000000000000000000000000000000000000000000000N 00000000000NCONT   00    00000000000          00000000000000000000000000000000000000000000 000000000000000A000000000000000000000000000000000000000000000 000000000000000000000000000000000000000     00000000                                                                                                                        000000000000000000
F0010000007442800005000000257193600013552100000000000000000201508050002001OSCAR YALI PLAZA                                  D000000000010400000000000000000000100010010000000000000000000000F0010000007442800520150805000101 00000000000000000000000000000000000000000000000000000000000000000000000000000000000000000000000000000000000000000N 00000000000NCONT   00    00000000000          00000000000000000000000000000000000000000000 000000000000000A000000000000000000000000000000000000000000000 000000000000000000000000000000000000000     00000000                                                                                                                        000000000000000000
F0010000007442900001000003319910700011050500000000000000000201508050002001LUZ DARY JIMENEZ MARTINEZ                         D000000001100000000000000000000000100010010000000000000000000000F0010000007442900120150805000101 00000000000000000000000000000000000000000000000000000000000000000000000000000000000000000000000000000000000000000N 00000000000NCONT   00    00000000000          00000000000000000000000000000000000000000000 000000000000000A000000000000000000000000000000000000000000000 000000000000000000000000000000000000000     00000000                                                                                                                        000000000000000000
F0010000007442900002000003319910700041450500000000000000000201508050002001LUZ DARY JIMENEZ MARTINEZ                         C000000001000000000000000000000000100010010000000000000000000000F0010000007442900220150805000101 00000000000000000000000000000000000000000000000000000000000000000000000000000000000000000000000000000000000000000N 00000000000NCONT   00    00000000000          00000000000000000000000000000000000000000000 000000000000000A000000000000000000000000000000000000000000000 000000000000000000000000000000000000000     00000000                                                                                                                        000000000000000000
F0010000007442900003000003319910700042505000000000000000000201508050002001LUZ DARY JIMENEZ MARTINEZ                         C000000000100000000000000000000000100010010000000000000000000000F0010000007442900320150805000101 00000000000000000000000000000000000000000000000000000000000000000000000000000000000000000000000000000000000000000N 00000000000NCONT   00    00000000000          00000000000000000000000000000000000000000000 000000000000000A000000000000000000000000000000000000000000000 000000000000000000000000000000000000000     00000000                                                                                                                        000000000000000000
F0010000007442900004000003319910700023658300000000000000000201508050002001LUZ DARY JIMENEZ MARTINEZ                         C000000000008000000000000000000000100010010000000000000000000000F0010000007442900420150805000101 00000000000000000000000000000000000000000000000000000000000000000000000000000000000000000000000000000000000000000N 00000000000NCONT   00    00000000000          00000000000000000000000000000000000000000000 000000000000000A000000000000000000000000000000000000000000000 000000000000000000000000000000000000000     00000000                                                                                                                        000000000000000000
F0010000007442900005000003319910700013552100000000000000000201508050002001LUZ DARY JIMENEZ MARTINEZ                         D000000000008000000000000000000000100010010000000000000000000000F0010000007442900520150805000101 00000000000000000000000000000000000000000000000000000000000000000000000000000000000000000000000000000000000000000N 00000000000NCONT   00    00000000000          00000000000000000000000000000000000000000000 000000000000000A000000000000000000000000000000000000000000000 000000000000000000000000000000000000000     00000000                                                                                                                        000000000000000000
F0010000007443000001000090020547900011050500000000000000000201508050002001COMERCIALIZADORA DAC DEL CARIBE S.A.S.            D000000004993500000000000000000000100010010000000000000000000000F0010000007443000120150805000101 00000000000000000000000000000000000000000000000000000000000000000000000000000000000000000000000000000000000000000N 00000000000NCONT   00    00000000000          00000000000000000000000000000000000000000000 000000000000000A000000000000000000000000000000000000000000000 000000000000000000000000000000000000000     00000000                                                                                                                        000000000000000000
F0010000007443000002000090020547900041450500000000000000000201508050002001COMERCIALIZADORA DAC DEL CARIBE S.A.S.            C000000003900000000000000000000000100010010000000000000000000000F0010000007443000220150805000101 00000000000000000000000000000000000000000000000000000000000000000000000000000000000000000000000000000000000000000N 00000000000NCONT   00    00000000000          00000000000000000000000000000000000000000000 000000000000000A000000000000000000000000000000000000000000000 000000000000000000000000000000000000000     00000000                                                                                                                        000000000000000000
F0010000007443000003000090020547900042505000000000000000000201508050002001COMERCIALIZADORA DAC DEL CARIBE S.A.S.            C000000001093500000000000000000000100010010000000000000000000000F0010000007443000320150805000101 00000000000000000000000000000000000000000000000000000000000000000000000000000000000000000000000000000000000000000N 00000000000NCONT   00    00000000000          00000000000000000000000000000000000000000000 000000000000000A000000000000000000000000000000000000000000000 000000000000000000000000000000000000000     00000000                                                                                                                        000000000000000000
F0010000007443000004000090020547900023658300000000000000000201508050002001COMERCIALIZADORA DAC DEL CARIBE S.A.S.            C000000000031200000000000000000000100010010000000000000000000000F0010000007443000420150805000101 00000000000000000000000000000000000000000000000000000000000000000000000000000000000000000000000000000000000000000N 00000000000NCONT   00    00000000000          00000000000000000000000000000000000000000000 000000000000000A000000000000000000000000000000000000000000000 000000000000000000000000000000000000000     00000000                                                                                                                        000000000000000000
F0010000007443000005000090020547900013552100000000000000000201508050002001COMERCIALIZADORA DAC DEL CARIBE S.A.S.            D000000000031200000000000000000000100010010000000000000000000000F0010000007443000520150805000101 00000000000000000000000000000000000000000000000000000000000000000000000000000000000000000000000000000000000000000N 00000000000NCONT   00    00000000000          00000000000000000000000000000000000000000000 000000000000000A000000000000000000000000000000000000000000000 000000000000000000000000000000000000000     00000000                                                                                                                        000000000000000000
F0010000007443100001000090020547900011050500000000000000000201508050002001COMERCIALIZADORA DAC DEL CARIBE S.A.S.            D000000029779900000000000000000000100010010000000000000000000000F0010000007443100120150805000101 00000000000000000000000000000000000000000000000000000000000000000000000000000000000000000000000000000000000000000N 00000000000NCONT   00    00000000000          00000000000000000000000000000000000000000000 000000000000000A000000000000000000000000000000000000000000000 000000000000000000000000000000000000000     00000000                                                                                                                        000000000000000000
F0010000007443100002000090020547900041450500000000000000000201508050002001COMERCIALIZADORA DAC DEL CARIBE S.A.S.            C000000020400000000000000000000000100010010000000000000000000000F0010000007443100220150805000101 00000000000000000000000000000000000000000000000000000000000000000000000000000000000000000000000000000000000000000N 00000000000NCONT   00    00000000000          00000000000000000000000000000000000000000000 000000000000000A000000000000000000000000000000000000000000000 000000000000000000000000000000000000000     00000000                                                                                                                        000000000000000000
F0010000007443100003000090020547900042505000000000000000000201508050002001COMERCIALIZADORA DAC DEL CARIBE S.A.S.            C000000009379900000000000000000000100010010000000000000000000000F0010000007443100320150805000101 00000000000000000000000000000000000000000000000000000000000000000000000000000000000000000000000000000000000000000N 00000000000NCONT   00    00000000000          00000000000000000000000000000000000000000000 000000000000000A000000000000000000000000000000000000000000000 000000000000000000000000000000000000000     00000000                                                                                                                        000000000000000000
F0010000007443100004000090020547900023658300000000000000000201508050002001COMERCIALIZADORA DAC DEL CARIBE S.A.S.            C000000000163200000000000000000000100010010000000000000000000000F0010000007443100420150805000101 00000000000000000000000000000000000000000000000000000000000000000000000000000000000000000000000000000000000000000N 00000000000NCONT   00    00000000000          00000000000000000000000000000000000000000000 000000000000000A000000000000000000000000000000000000000000000 000000000000000000000000000000000000000     00000000                                                                                                                        000000000000000000
F0010000007443100005000090020547900013552100000000000000000201508050002001COMERCIALIZADORA DAC DEL CARIBE S.A.S.            D000000000163200000000000000000000100010010000000000000000000000F0010000007443100520150805000101 00000000000000000000000000000000000000000000000000000000000000000000000000000000000000000000000000000000000000000N 00000000000NCONT   00    00000000000          00000000000000000000000000000000000000000000 000000000000000A000000000000000000000000000000000000000000000 000000000000000000000000000000000000000     00000000                                                                                                                        000000000000000000
F0010000007443200001000090020547900011050500000000000000000201508050002001COMERCIALIZADORA DAC DEL CARIBE S.A.S.            D000000004875500000000000000000000100010010000000000000000000000F0010000007443200120150805000101 00000000000000000000000000000000000000000000000000000000000000000000000000000000000000000000000000000000000000000N 00000000000NCONT   00    00000000000          00000000000000000000000000000000000000000000 000000000000000A000000000000000000000000000000000000000000000 000000000000000000000000000000000000000     00000000                                                                                                                        000000000000000000
F0010000007443200002000090020547900041450500000000000000000201508050002001COMERCIALIZADORA DAC DEL CARIBE S.A.S.            C000000003600000000000000000000000100010010000000000000000000000F0010000007443200220150805000101 00000000000000000000000000000000000000000000000000000000000000000000000000000000000000000000000000000000000000000N 00000000000NCONT   00    00000000000          00000000000000000000000000000000000000000000 000000000000000A000000000000000000000000000000000000000000000 000000000000000000000000000000000000000     00000000                                                                                                                        000000000000000000
F0010000007443200003000090020547900042505000000000000000000201508050002001COMERCIALIZADORA DAC DEL CARIBE S.A.S.            C000000001275500000000000000000000100010010000000000000000000000F0010000007443200320150805000101 00000000000000000000000000000000000000000000000000000000000000000000000000000000000000000000000000000000000000000N 00000000000NCONT   00    00000000000          00000000000000000000000000000000000000000000 000000000000000A000000000000000000000000000000000000000000000 000000000000000000000000000000000000000     00000000                                                                                                                        000000000000000000
F0010000007443200004000090020547900023658300000000000000000201508050002001COMERCIALIZADORA DAC DEL CARIBE S.A.S.            C000000000028800000000000000000000100010010000000000000000000000F0010000007443200420150805000101 00000000000000000000000000000000000000000000000000000000000000000000000000000000000000000000000000000000000000000N 00000000000NCONT   00    00000000000          00000000000000000000000000000000000000000000 000000000000000A000000000000000000000000000000000000000000000 000000000000000000000000000000000000000     00000000                                                                                                                        000000000000000000
F0010000007443200005000090020547900013552100000000000000000201508050002001COMERCIALIZADORA DAC DEL CARIBE S.A.S.            D000000000028800000000000000000000100010010000000000000000000000F0010000007443200520150805000101 00000000000000000000000000000000000000000000000000000000000000000000000000000000000000000000000000000000000000000N 00000000000NCONT   00    00000000000          00000000000000000000000000000000000000000000 000000000000000A000000000000000000000000000000000000000000000 000000000000000000000000000000000000000     00000000                                                                                                                        000000000000000000
F0010000007443300001000090020547900011050500000000000000000201508050002001COMERCIALIZADORA DAC DEL CARIBE S.A.S.            D000000006575900000000000000000000100010010000000000000000000000F0010000007443300120150805000101 00000000000000000000000000000000000000000000000000000000000000000000000000000000000000000000000000000000000000000N 00000000000NCONT   00    00000000000          00000000000000000000000000000000000000000000 000000000000000A000000000000000000000000000000000000000000000 000000000000000000000000000000000000000     00000000                                                                                                                        000000000000000000
F0010000007443300002000090020547900041450500000000000000000201508050002001COMERCIALIZADORA DAC DEL CARIBE S.A.S.            C000000004800000000000000000000000100010010000000000000000000000F0010000007443300220150805000101 00000000000000000000000000000000000000000000000000000000000000000000000000000000000000000000000000000000000000000N 00000000000NCONT   00    00000000000          00000000000000000000000000000000000000000000 000000000000000A000000000000000000000000000000000000000000000 000000000000000000000000000000000000000     00000000                                                                                                                        000000000000000000
F0010000007443300003000090020547900042505000000000000000000201508050002001COMERCIALIZADORA DAC DEL CARIBE S.A.S.            C000000001775900000000000000000000100010010000000000000000000000F0010000007443300320150805000101 00000000000000000000000000000000000000000000000000000000000000000000000000000000000000000000000000000000000000000N 00000000000NCONT   00    00000000000          00000000000000000000000000000000000000000000 000000000000000A000000000000000000000000000000000000000000000 000000000000000000000000000000000000000     00000000                                                                                                                        000000000000000000
F0010000007443300004000090020547900023658300000000000000000201508050002001COMERCIALIZADORA DAC DEL CARIBE S.A.S.            C000000000038400000000000000000000100010010000000000000000000000F0010000007443300420150805000101 00000000000000000000000000000000000000000000000000000000000000000000000000000000000000000000000000000000000000000N 00000000000NCONT   00    00000000000          00000000000000000000000000000000000000000000 000000000000000A000000000000000000000000000000000000000000000 000000000000000000000000000000000000000     00000000                                                                                                                        000000000000000000
F0010000007443300005000090020547900013552100000000000000000201508050002001COMERCIALIZADORA DAC DEL CARIBE S.A.S.            D000000000038400000000000000000000100010010000000000000000000000F0010000007443300520150805000101 00000000000000000000000000000000000000000000000000000000000000000000000000000000000000000000000000000000000000000N 00000000000NCONT   00    00000000000          00000000000000000000000000000000000000000000 000000000000000A000000000000000000000000000000000000000000000 000000000000000000000000000000000000000     00000000                                                                                                                        000000000000000000
F0010000007443400001000090020547900011050500000000000000000201508050002001COMERCIALIZADORA DAC DEL CARIBE S.A.S.            D000000004690400000000000000000000100010010000000000000000000000F0010000007443400120150805000101 00000000000000000000000000000000000000000000000000000000000000000000000000000000000000000000000000000000000000000N 00000000000NCONT   00    00000000000          00000000000000000000000000000000000000000000 000000000000000A000000000000000000000000000000000000000000000 000000000000000000000000000000000000000     00000000                                                                                                                        000000000000000000
F0010000007443400002000090020547900041450500000000000000000201508050002001COMERCIALIZADORA DAC DEL CARIBE S.A.S.            C000000003600000000000000000000000100010010000000000000000000000F0010000007443400220150805000101 00000000000000000000000000000000000000000000000000000000000000000000000000000000000000000000000000000000000000000N 00000000000NCONT   00    00000000000          00000000000000000000000000000000000000000000 000000000000000A000000000000000000000000000000000000000000000 000000000000000000000000000000000000000     00000000                                                                                                                        000000000000000000
F0010000007443400003000090020547900042505000000000000000000201508050002001COMERCIALIZADORA DAC DEL CARIBE S.A.S.            C000000001090400000000000000000000100010010000000000000000000000F0010000007443400320150805000101 00000000000000000000000000000000000000000000000000000000000000000000000000000000000000000000000000000000000000000N 00000000000NCONT   00    00000000000          00000000000000000000000000000000000000000000 000000000000000A000000000000000000000000000000000000000000000 000000000000000000000000000000000000000     00000000                                                                                                                        000000000000000000
F0010000007443400004000090020547900023658300000000000000000201508050002001COMERCIALIZADORA DAC DEL CARIBE S.A.S.            C000000000028800000000000000000000100010010000000000000000000000F0010000007443400420150805000101 00000000000000000000000000000000000000000000000000000000000000000000000000000000000000000000000000000000000000000N 00000000000NCONT   00    00000000000          00000000000000000000000000000000000000000000 000000000000000A000000000000000000000000000000000000000000000 000000000000000000000000000000000000000     00000000                                                                                                                        000000000000000000
F0010000007443400005000090020547900013552100000000000000000201508050002001COMERCIALIZADORA DAC DEL CARIBE S.A.S.            D000000000028800000000000000000000100010010000000000000000000000F0010000007443400520150805000101 00000000000000000000000000000000000000000000000000000000000000000000000000000000000000000000000000000000000000000N 00000000000NCONT   00    00000000000          00000000000000000000000000000000000000000000 000000000000000A000000000000000000000000000000000000000000000 000000000000000000000000000000000000000     00000000                                                                                                                        000000000000000000
F0010000007443500001000090020547900011050500000000000000000201508050002001COMERCIALIZADORA DAC DEL CARIBE S.A.S.            D000000010105900000000000000000000100010010000000000000000000000F0010000007443500120150805000101 00000000000000000000000000000000000000000000000000000000000000000000000000000000000000000000000000000000000000000N 00000000000NCONT   00    00000000000          00000000000000000000000000000000000000000000 000000000000000A000000000000000000000000000000000000000000000 000000000000000000000000000000000000000     00000000                                                                                                                        000000000000000000
F0010000007443500002000090020547900041450500000000000000000201508050002001COMERCIALIZADORA DAC DEL CARIBE S.A.S.            C000000009000000000000000000000000100010010000000000000000000000F0010000007443500220150805000101 00000000000000000000000000000000000000000000000000000000000000000000000000000000000000000000000000000000000000000N 00000000000NCONT   00    00000000000          00000000000000000000000000000000000000000000 000000000000000A000000000000000000000000000000000000000000000 000000000000000000000000000000000000000     00000000                                                                                                                        000000000000000000
F0010000007443500003000090020547900042505000000000000000000201508050002001COMERCIALIZADORA DAC DEL CARIBE S.A.S.            C000000001105900000000000000000000100010010000000000000000000000F0010000007443500320150805000101 00000000000000000000000000000000000000000000000000000000000000000000000000000000000000000000000000000000000000000N 00000000000NCONT   00    00000000000          00000000000000000000000000000000000000000000 000000000000000A000000000000000000000000000000000000000000000 000000000000000000000000000000000000000     00000000                                                                                                                        000000000000000000
F0010000007443500004000090020547900023658300000000000000000201508050002001COMERCIALIZADORA DAC DEL CARIBE S.A.S.            C000000000072000000000000000000000100010010000000000000000000000F0010000007443500420150805000101 00000000000000000000000000000000000000000000000000000000000000000000000000000000000000000000000000000000000000000N 00000000000NCONT   00    00000000000          00000000000000000000000000000000000000000000 000000000000000A000000000000000000000000000000000000000000000 000000000000000000000000000000000000000     00000000                                                                                                                        000000000000000000
F0010000007443500005000090020547900013552100000000000000000201508050002001COMERCIALIZADORA DAC DEL CARIBE S.A.S.            D000000000072000000000000000000000100010010000000000000000000000F0010000007443500520150805000101 00000000000000000000000000000000000000000000000000000000000000000000000000000000000000000000000000000000000000000N 00000000000NCONT   00    00000000000          00000000000000000000000000000000000000000000 000000000000000A000000000000000000000000000000000000000000000 000000000000000000000000000000000000000     00000000                                                                                                                        000000000000000000
F0010000007443600001000004378545100011050500000000000000000201508050002001FLOR MA GARCIA RAMIREZ-COMERC. SANTUARIO          D000000018000000000000000000000000100010010000000000000000000000F0010000007443600120150805000101 00000000000000000000000000000000000000000000000000000000000000000000000000000000000000000000000000000000000000000N 00000000000NCONT   00    00000000000          00000000000000000000000000000000000000000000 000000000000000A000000000000000000000000000000000000000000000 000000000000000000000000000000000000000     00000000                                                                                                                        000000000000000000
F0010000007443600002000004378545100041450500000000000000000201508050002001FLOR MA GARCIA RAMIREZ-COMERC. SANTUARIO          C000000015000000000000000000000000100010010000000000000000000000F0010000007443600220150805000101 00000000000000000000000000000000000000000000000000000000000000000000000000000000000000000000000000000000000000000N 00000000000NCONT   00    00000000000          00000000000000000000000000000000000000000000 000000000000000A000000000000000000000000000000000000000000000 000000000000000000000000000000000000000     00000000                                                                                                                        000000000000000000
F0010000007443600003000004378545100042505000000000000000000201508050002001FLOR MA GARCIA RAMIREZ-COMERC. SANTUARIO          C000000003000000000000000000000000100010010000000000000000000000F0010000007443600320150805000101 00000000000000000000000000000000000000000000000000000000000000000000000000000000000000000000000000000000000000000N 00000000000NCONT   00    00000000000          00000000000000000000000000000000000000000000 000000000000000A000000000000000000000000000000000000000000000 000000000000000000000000000000000000000     00000000                                                                                                                        000000000000000000
F0010000007443600004000004378545100023658300000000000000000201508050002001FLOR MA GARCIA RAMIREZ-COMERC. SANTUARIO          C000000000120000000000000000000000100010010000000000000000000000F0010000007443600420150805000101 00000000000000000000000000000000000000000000000000000000000000000000000000000000000000000000000000000000000000000N 00000000000NCONT   00    00000000000          00000000000000000000000000000000000000000000 000000000000000A000000000000000000000000000000000000000000000 000000000000000000000000000000000000000     00000000                                                                                                                        000000000000000000
F0010000007443600005000004378545100013552100000000000000000201508050002001FLOR MA GARCIA RAMIREZ-COMERC. SANTUARIO          D000000000120000000000000000000000100010010000000000000000000000F0010000007443600520150805000101 00000000000000000000000000000000000000000000000000000000000000000000000000000000000000000000000000000000000000000N 00000000000NCONT   00    00000000000          00000000000000000000000000000000000000000000 000000000000000A000000000000000000000000000000000000000000000 000000000000000000000000000000000000000     00000000                                                                                                                        000000000000000000
F0010000007443700001000003263562600011050500000000000000000201508050002001LOCAL 50 - MERCEDES ARAGUREN DE CHADID (MANUEL CHAD000000016000000000000000000000000100010010000000000000000000000F0010000007443700120150805000101 00000000000000000000000000000000000000000000000000000000000000000000000000000000000000000000000000000000000000000N 00000000000NCONT   00    00000000000          00000000000000000000000000000000000000000000 000000000000000A000000000000000000000000000000000000000000000 000000000000000000000000000000000000000     00000000                                                                                                                        000000000000000000
F0010000007443700002000003263562600041450500000000000000000201508050002001LOCAL 50 - MERCEDES ARAGUREN DE CHADID (MANUEL CHAC000000012500000000000000000000000100010010000000000000000000000F0010000007443700220150805000101 00000000000000000000000000000000000000000000000000000000000000000000000000000000000000000000000000000000000000000N 00000000000NCONT   00    00000000000          00000000000000000000000000000000000000000000 000000000000000A000000000000000000000000000000000000000000000 000000000000000000000000000000000000000     00000000                                                                                                                        000000000000000000
F0010000007443700003000003263562600042505000000000000000000201508050002001LOCAL 50 - MERCEDES ARAGUREN DE CHADID (MANUEL CHAC000000003500000000000000000000000100010010000000000000000000000F0010000007443700320150805000101 00000000000000000000000000000000000000000000000000000000000000000000000000000000000000000000000000000000000000000N 00000000000NCONT   00    00000000000          00000000000000000000000000000000000000000000 000000000000000A000000000000000000000000000000000000000000000 000000000000000000000000000000000000000     00000000                                                                                                                        000000000000000000
F0010000007443700004000003263562600023658300000000000000000201508050002001LOCAL 50 - MERCEDES ARAGUREN DE CHADID (MANUEL CHAC000000000100000000000000000000000100010010000000000000000000000F0010000007443700420150805000101 00000000000000000000000000000000000000000000000000000000000000000000000000000000000000000000000000000000000000000N 00000000000NCONT   00    00000000000          00000000000000000000000000000000000000000000 000000000000000A000000000000000000000000000000000000000000000 000000000000000000000000000000000000000     00000000                                                                                                                        000000000000000000
F0010000007443700005000003263562600013552100000000000000000201508050002001LOCAL 50 - MERCEDES ARAGUREN DE CHADID (MANUEL CHAD000000000100000000000000000000000100010010000000000000000000000F0010000007443700520150805000101 00000000000000000000000000000000000000000000000000000000000000000000000000000000000000000000000000000000000000000N 00000000000NCONT   00    00000000000          00000000000000000000000000000000000000000000 000000000000000A000000000000000000000000000000000000000000000 000000000000000000000000000000000000000     00000000                                                                                                                        000000000000000000
F0010000007443800001000090027500500011050500000000000000000201508050002001MULTIALUMINIO LA 30 S.A.S.                        D000000026000000000000000000000000100010010000000000000000000000F0010000007443800120150805000101 00000000000000000000000000000000000000000000000000000000000000000000000000000000000000000000000000000000000000000N 00000000000NCONT   00    00000000000          00000000000000000000000000000000000000000000 000000000000000A000000000000000000000000000000000000000000000 000000000000000000000000000000000000000     00000000                                                                                                                        000000000000000000
F0010000007443800002000090027500500041450500000000000000000201508050002001MULTIALUMINIO LA 30 S.A.S.                        C000000019000000000000000000000000100010010000000000000000000000F0010000007443800220150805000101 00000000000000000000000000000000000000000000000000000000000000000000000000000000000000000000000000000000000000000N 00000000000NCONT   00    00000000000          00000000000000000000000000000000000000000000 000000000000000A000000000000000000000000000000000000000000000 000000000000000000000000000000000000000     00000000                                                                                                                        000000000000000000
F0010000007443800003000090027500500042505000000000000000000201508050002001MULTIALUMINIO LA 30 S.A.S.                        C000000007000000000000000000000000100010010000000000000000000000F0010000007443800320150805000101 00000000000000000000000000000000000000000000000000000000000000000000000000000000000000000000000000000000000000000N 00000000000NCONT   00    00000000000          00000000000000000000000000000000000000000000 000000000000000A000000000000000000000000000000000000000000000 000000000000000000000000000000000000000     00000000                                                                                                                        000000000000000000
F0010000007443800004000090027500500023658300000000000000000201508050002001MULTIALUMINIO LA 30 S.A.S.                        C000000000152000000000000000000000100010010000000000000000000000F0010000007443800420150805000101 00000000000000000000000000000000000000000000000000000000000000000000000000000000000000000000000000000000000000000N 00000000000NCONT   00    00000000000          00000000000000000000000000000000000000000000 000000000000000A000000000000000000000000000000000000000000000 000000000000000000000000000000000000000     00000000                                                                                                                        000000000000000000
F0010000007443800005000090027500500013552100000000000000000201508050002001MULTIALUMINIO LA 30 S.A.S.                        D000000000152000000000000000000000100010010000000000000000000000F0010000007443800520150805000101 00000000000000000000000000000000000000000000000000000000000000000000000000000000000000000000000000000000000000000N 00000000000NCONT   00    00000000000          00000000000000000000000000000000000000000000 000000000000000A000000000000000000000000000000000000000000000 000000000000000000000000000000000000000     00000000                                                                                                                        000000000000000000
F0010000007443900001000007225511500011050500000000000000000201508050002001CACHARRERIA CHADY                                 D000000002000000000000000000000000100010010000000000000000000000F0010000007443900120150805000101 00000000000000000000000000000000000000000000000000000000000000000000000000000000000000000000000000000000000000000N 00000000000NCONT   00    00000000000          00000000000000000000000000000000000000000000 000000000000000A000000000000000000000000000000000000000000000 000000000000000000000000000000000000000     00000000                                                                                                                        000000000000000000
F0010000007443900002000007225511500041450500000000000000000201508050002001CACHARRERIA CHADY                                 C000000001600000000000000000000000100010010000000000000000000000F0010000007443900220150805000101 00000000000000000000000000000000000000000000000000000000000000000000000000000000000000000000000000000000000000000N 00000000000NCONT   00    00000000000          00000000000000000000000000000000000000000000 000000000000000A000000000000000000000000000000000000000000000 000000000000000000000000000000000000000     00000000                                                                                                                        000000000000000000
F0010000007443900003000007225511500042505000000000000000000201508050002001CACHARRERIA CHADY                                 C000000000400000000000000000000000100010010000000000000000000000F0010000007443900320150805000101 00000000000000000000000000000000000000000000000000000000000000000000000000000000000000000000000000000000000000000N 00000000000NCONT   00    00000000000          00000000000000000000000000000000000000000000 000000000000000A000000000000000000000000000000000000000000000 000000000000000000000000000000000000000     00000000                                                                                                                        000000000000000000
F0010000007443900004000007225511500023658300000000000000000201508050002001CACHARRERIA CHADY                                 C000000000012800000000000000000000100010010000000000000000000000F0010000007443900420150805000101 00000000000000000000000000000000000000000000000000000000000000000000000000000000000000000000000000000000000000000N 00000000000NCONT   00    00000000000          00000000000000000000000000000000000000000000 000000000000000A000000000000000000000000000000000000000000000 000000000000000000000000000000000000000     00000000                                                                                                                        000000000000000000
F0010000007443900005000007225511500013552100000000000000000201508050002001CACHARRERIA CHADY                                 D000000000012800000000000000000000100010010000000000000000000000F0010000007443900520150805000101 00000000000000000000000000000000000000000000000000000000000000000000000000000000000000000000000000000000000000000N 00000000000NCONT   00    00000000000          00000000000000000000000000000000000000000000 000000000000000A000000000000000000000000000000000000000000000 000000000000000000000000000000000000000     00000000                                                                                                                        000000000000000000
F0010000007444000001000003262315300011050500000000000000000201508050002001CACHARRERIA LA PROPIA JICHA                       D000000002000000000000000000000000100010010000000000000000000000F0010000007444000120150805000101 00000000000000000000000000000000000000000000000000000000000000000000000000000000000000000000000000000000000000000N 00000000000NCONT   00    00000000000          00000000000000000000000000000000000000000000 000000000000000A000000000000000000000000000000000000000000000 000000000000000000000000000000000000000     00000000                                                                                                                        000000000000000000
F0010000007444000002000003262315300041450500000000000000000201508050002001CACHARRERIA LA PROPIA JICHA                       C000000001600000000000000000000000100010010000000000000000000000F0010000007444000220150805000101 00000000000000000000000000000000000000000000000000000000000000000000000000000000000000000000000000000000000000000N 00000000000NCONT   00    00000000000          00000000000000000000000000000000000000000000 000000000000000A000000000000000000000000000000000000000000000 000000000000000000000000000000000000000     00000000                                                                                                                        000000000000000000
F0010000007444000003000003262315300042505000000000000000000201508050002001CACHARRERIA LA PROPIA JICHA                       C000000000400000000000000000000000100010010000000000000000000000F0010000007444000320150805000101 00000000000000000000000000000000000000000000000000000000000000000000000000000000000000000000000000000000000000000N 00000000000NCONT   00    00000000000          00000000000000000000000000000000000000000000 000000000000000A000000000000000000000000000000000000000000000 000000000000000000000000000000000000000     00000000                                                                                                                        000000000000000000
F0010000007444000004000003262315300023658300000000000000000201508050002001CACHARRERIA LA PROPIA JICHA                       C000000000012800000000000000000000100010010000000000000000000000F0010000007444000420150805000101 00000000000000000000000000000000000000000000000000000000000000000000000000000000000000000000000000000000000000000N 00000000000NCONT   00    00000000000          00000000000000000000000000000000000000000000 000000000000000A000000000000000000000000000000000000000000000 000000000000000000000000000000000000000     00000000                                                                                                                        000000000000000000
F0010000007444000005000003262315300013552100000000000000000201508050002001CACHARRERIA LA PROPIA JICHA                       D000000000012800000000000000000000100010010000000000000000000000F0010000007444000520150805000101 00000000000000000000000000000000000000000000000000000000000000000000000000000000000000000000000000000000000000000N 00000000000NCONT   00    00000000000          00000000000000000000000000000000000000000000 000000000000000A000000000000000000000000000000000000000000000 000000000000000000000000000000000000000     00000000                                                                                                                        000000000000000000
F0010000007444100001000089031248700011050500000000000000000201508050002001DISTRIBUIDORA CALIPLASTICOS LTDA                  D000000006200000000000000000000000100010010000000000000000000000F0010000007444100120150805000101 00000000000000000000000000000000000000000000000000000000000000000000000000000000000000000000000000000000000000000N 00000000000NCONT   00    00000000000          00000000000000000000000000000000000000000000 000000000000000A000000000000000000000000000000000000000000000 000000000000000000000000000000000000000     00000000                                                                                                                        000000000000000000
F0010000007444100002000089031248700041450500000000000000000201508050002001DISTRIBUIDORA CALIPLASTICOS LTDA                  C000000006000000000000000000000000100010010000000000000000000000F0010000007444100220150805000101 00000000000000000000000000000000000000000000000000000000000000000000000000000000000000000000000000000000000000000N 00000000000NCONT   00    00000000000          00000000000000000000000000000000000000000000 000000000000000A000000000000000000000000000000000000000000000 000000000000000000000000000000000000000     00000000                                                                                                                        000000000000000000
F0010000007444100003000089031248700042505000000000000000000201508050002001DISTRIBUIDORA CALIPLASTICOS LTDA                  C000000000200000000000000000000000100010010000000000000000000000F0010000007444100320150805000101 00000000000000000000000000000000000000000000000000000000000000000000000000000000000000000000000000000000000000000N 00000000000NCONT   00    00000000000          00000000000000000000000000000000000000000000 000000000000000A000000000000000000000000000000000000000000000 000000000000000000000000000000000000000     00000000                                                                                                                        000000000000000000
F0010000007444100004000089031248700023658300000000000000000201508050002001DISTRIBUIDORA CALIPLASTICOS LTDA                  C000000000048000000000000000000000100010010000000000000000000000F0010000007444100420150805000101 00000000000000000000000000000000000000000000000000000000000000000000000000000000000000000000000000000000000000000N 00000000000NCONT   00    00000000000          00000000000000000000000000000000000000000000 000000000000000A000000000000000000000000000000000000000000000 000000000000000000000000000000000000000     00000000                                                                                                                        000000000000000000
F0010000007444100005000089031248700013552100000000000000000201508050002001DISTRIBUIDORA CALIPLASTICOS LTDA                  D000000000048000000000000000000000100010010000000000000000000000F0010000007444100520150805000101 00000000000000000000000000000000000000000000000000000000000000000000000000000000000000000000000000000000000000000N 00000000000NCONT   00    00000000000          00000000000000000000000000000000000000000000 000000000000000A000000000000000000000000000000000000000000000 000000000000000000000000000000000000000     00000000                                                                                                                        000000000000000000
F0010000007444200001000080019113900011050500000000000000000201508050002001COMERCIAL NOVAPEL LTDA                            D000000008750000000000000000000000100010010000000000000000000000F0010000007444200120150805000101 00000000000000000000000000000000000000000000000000000000000000000000000000000000000000000000000000000000000000000N 00000000000NCONT   00    00000000000          00000000000000000000000000000000000000000000 000000000000000A000000000000000000000000000000000000000000000 000000000000000000000000000000000000000     00000000                                                                                                                        000000000000000000
F0010000007444200002000080019113900041450500000000000000000201508050002001COMERCIAL NOVAPEL LTDA                            C000000008400000000000000000000000100010010000000000000000000000F0010000007444200220150805000101 00000000000000000000000000000000000000000000000000000000000000000000000000000000000000000000000000000000000000000N 00000000000NCONT   00    00000000000          00000000000000000000000000000000000000000000 000000000000000A000000000000000000000000000000000000000000000 000000000000000000000000000000000000000     00000000                                                                                                                        000000000000000000
F0010000007444200003000080019113900042505000000000000000000201508050002001COMERCIAL NOVAPEL LTDA                            C000000000350000000000000000000000100010010000000000000000000000F0010000007444200320150805000101 00000000000000000000000000000000000000000000000000000000000000000000000000000000000000000000000000000000000000000N 00000000000NCONT   00    00000000000          00000000000000000000000000000000000000000000 000000000000000A000000000000000000000000000000000000000000000 000000000000000000000000000000000000000     00000000                                                                                                                        000000000000000000
F0010000007444200004000080019113900023658300000000000000000201508050002001COMERCIAL NOVAPEL LTDA                            C000000000067200000000000000000000100010010000000000000000000000F0010000007444200420150805000101 00000000000000000000000000000000000000000000000000000000000000000000000000000000000000000000000000000000000000000N 00000000000NCONT   00    00000000000          00000000000000000000000000000000000000000000 000000000000000A000000000000000000000000000000000000000000000 000000000000000000000000000000000000000     00000000                                                                                                                        000000000000000000
F0010000007444200005000080019113900013552100000000000000000201508050002001COMERCIAL NOVAPEL LTDA                            D000000000067200000000000000000000100010010000000000000000000000F0010000007444200520150805000101 00000000000000000000000000000000000000000000000000000000000000000000000000000000000000000000000000000000000000000N 00000000000NCONT   00    00000000000          00000000000000000000000000000000000000000000 000000000000000A000000000000000000000000000000000000000000000 000000000000000000000000000000000000000     00000000                                                                                                                        000000000000000000
F0010000007444300001000001719393900011050500000000000000000201508050002001JAIRO BASTIDAS RAMIREZ                            D000000001500000000000000000000000100010010000000000000000000000F0010000007444300120150805000101 00000000000000000000000000000000000000000000000000000000000000000000000000000000000000000000000000000000000000000N 00000000000NCONT   00    00000000000          00000000000000000000000000000000000000000000 000000000000000A000000000000000000000000000000000000000000000 000000000000000000000000000000000000000     00000000                                                                                                                        000000000000000000
F0010000007444300002000001719393900041450500000000000000000201508050002001JAIRO BASTIDAS RAMIREZ                            C000000001200000000000000000000000100010010000000000000000000000F0010000007444300220150805000101 00000000000000000000000000000000000000000000000000000000000000000000000000000000000000000000000000000000000000000N 00000000000NCONT   00    00000000000          00000000000000000000000000000000000000000000 000000000000000A000000000000000000000000000000000000000000000 000000000000000000000000000000000000000     00000000                                                                                                                        000000000000000000
F0010000007444300003000001719393900042505000000000000000000201508050002001JAIRO BASTIDAS RAMIREZ                            C000000000300000000000000000000000100010010000000000000000000000F0010000007444300320150805000101 00000000000000000000000000000000000000000000000000000000000000000000000000000000000000000000000000000000000000000N 00000000000NCONT   00    00000000000          00000000000000000000000000000000000000000000 000000000000000A000000000000000000000000000000000000000000000 000000000000000000000000000000000000000     00000000                                                                                                                        000000000000000000
F0010000007444300004000001719393900023658300000000000000000201508050002001JAIRO BASTIDAS RAMIREZ                            C000000000009600000000000000000000100010010000000000000000000000F0010000007444300420150805000101 00000000000000000000000000000000000000000000000000000000000000000000000000000000000000000000000000000000000000000N 00000000000NCONT   00    00000000000          00000000000000000000000000000000000000000000 000000000000000A000000000000000000000000000000000000000000000 000000000000000000000000000000000000000     00000000                                                                                                                        000000000000000000
F0010000007444300005000001719393900013552100000000000000000201508050002001JAIRO BASTIDAS RAMIREZ                            D000000000009600000000000000000000100010010000000000000000000000F0010000007444300520150805000101 00000000000000000000000000000000000000000000000000000000000000000000000000000000000000000000000000000000000000000N 00000000000NCONT   00    00000000000          00000000000000000000000000000000000000000000 000000000000000A000000000000000000000000000000000000000000000 000000000000000000000000000000000000000     00000000                                                                                                                        000000000000000000
F0010000007444400001000002257933700011050500000000000000000201508050002001ROSA MARGARITA  PUCCINI SU HERRAMIENTAS Y ELECTRICD000000001782400000000000000000000100010010000000000000000000000F0010000007444400120150805000101 00000000000000000000000000000000000000000000000000000000000000000000000000000000000000000000000000000000000000000N 00000000000NCONT   00    00000000000          00000000000000000000000000000000000000000000 000000000000000A000000000000000000000000000000000000000000000 000000000000000000000000000000000000000     00000000                                                                                                                        000000000000000000
F0010000007444400002000002257933700041450500000000000000000201508050002001ROSA MARGARITA  PUCCINI SU HERRAMIENTAS Y ELECTRICC000000001630000000000000000000000100010010000000000000000000000F0010000007444400220150805000101 00000000000000000000000000000000000000000000000000000000000000000000000000000000000000000000000000000000000000000N 00000000000NCONT   00    00000000000          00000000000000000000000000000000000000000000 000000000000000A000000000000000000000000000000000000000000000 000000000000000000000000000000000000000     00000000                                                                                                                        000000000000000000
F0010000007444400003000002257933700042505000000000000000000201508050002001ROSA MARGARITA  PUCCINI SU HERRAMIENTAS Y ELECTRICC000000000152400000000000000000000100010010000000000000000000000F0010000007444400320150805000101 00000000000000000000000000000000000000000000000000000000000000000000000000000000000000000000000000000000000000000N 00000000000NCONT   00    00000000000          00000000000000000000000000000000000000000000 000000000000000A000000000000000000000000000000000000000000000 000000000000000000000000000000000000000     00000000                                                                                                                        000000000000000000
F0010000007444400004000002257933700023658300000000000000000201508050002001ROSA MARGARITA  PUCCINI SU HERRAMIENTAS Y ELECTRICC000000000013000000000000000000000100010010000000000000000000000F0010000007444400420150805000101 00000000000000000000000000000000000000000000000000000000000000000000000000000000000000000000000000000000000000000N 00000000000NCONT   00    00000000000          00000000000000000000000000000000000000000000 000000000000000A000000000000000000000000000000000000000000000 000000000000000000000000000000000000000     00000000                                                                                                                        000000000000000000
F0010000007444400005000002257933700013552100000000000000000201508050002001ROSA MARGARITA  PUCCINI SU HERRAMIENTAS Y ELECTRICD000000000013000000000000000000000100010010000000000000000000000F0010000007444400520150805000101 00000000000000000000000000000000000000000000000000000000000000000000000000000000000000000000000000000000000000000N 00000000000NCONT   00    00000000000          00000000000000000000000000000000000000000000 000000000000000A000000000000000000000000000000000000000000000 000000000000000000000000000000000000000     00000000                                                                                                                        000000000000000000
F0010000007444500001000090034602400011050500000000000000000201508050002001PRODUCTOS NACIONALES PARAFINICOS LA CUSTODIA S.A.SD000000001000000000000000000000000100010010000000000000000000000F0010000007444500120150805000101 00000000000000000000000000000000000000000000000000000000000000000000000000000000000000000000000000000000000000000N 00000000000NCONT   00    00000000000          00000000000000000000000000000000000000000000 000000000000000A000000000000000000000000000000000000000000000 000000000000000000000000000000000000000     00000000                                                                                                                        000000000000000000
F0010000007444500002000090034602400041450500000000000000000201508050002001PRODUCTOS NACIONALES PARAFINICOS LA CUSTODIA S.A.SC000000000900000000000000000000000100010010000000000000000000000F0010000007444500220150805000101 00000000000000000000000000000000000000000000000000000000000000000000000000000000000000000000000000000000000000000N 00000000000NCONT   00    00000000000          00000000000000000000000000000000000000000000 000000000000000A000000000000000000000000000000000000000000000 000000000000000000000000000000000000000     00000000                                                                                                                        000000000000000000
F0010000007444500003000090034602400042505000000000000000000201508050002001PRODUCTOS NACIONALES PARAFINICOS LA CUSTODIA S.A.SC000000000100000000000000000000000100010010000000000000000000000F0010000007444500320150805000101 00000000000000000000000000000000000000000000000000000000000000000000000000000000000000000000000000000000000000000N 00000000000NCONT   00    00000000000          00000000000000000000000000000000000000000000 000000000000000A000000000000000000000000000000000000000000000 000000000000000000000000000000000000000     00000000                                                                                                                        000000000000000000
F0010000007444500004000090034602400023658300000000000000000201508050002001PRODUCTOS NACIONALES PARAFINICOS LA CUSTODIA S.A.SC000000000007200000000000000000000100010010000000000000000000000F0010000007444500420150805000101 00000000000000000000000000000000000000000000000000000000000000000000000000000000000000000000000000000000000000000N 00000000000NCONT   00    00000000000          00000000000000000000000000000000000000000000 000000000000000A000000000000000000000000000000000000000000000 000000000000000000000000000000000000000     00000000                                                                                                                        000000000000000000
F0010000007444500005000090034602400013552100000000000000000201508050002001PRODUCTOS NACIONALES PARAFINICOS LA CUSTODIA S.A.SD000000000007200000000000000000000100010010000000000000000000000F0010000007444500520150805000101 00000000000000000000000000000000000000000000000000000000000000000000000000000000000000000000000000000000000000000N 00000000000NCONT   00    00000000000          00000000000000000000000000000000000000000000 000000000000000A000000000000000000000000000000000000000000000 000000000000000000000000000000000000000     00000000                                                                                                                        000000000000000000
F0010000007444600001000090034602400011050500000000000000000201508050002001PRODUCTOS NACIONALES PARAFINICOS LA CUSTODIA S.A.SD000000001300000000000000000000000100010010000000000000000000000F0010000007444600120150805000101 00000000000000000000000000000000000000000000000000000000000000000000000000000000000000000000000000000000000000000N 00000000000NCONT   00    00000000000          00000000000000000000000000000000000000000000 000000000000000A000000000000000000000000000000000000000000000 000000000000000000000000000000000000000     00000000                                                                                                                        000000000000000000
F0010000007444600002000090034602400041450500000000000000000201508050002001PRODUCTOS NACIONALES PARAFINICOS LA CUSTODIA S.A.SC000000001200000000000000000000000100010010000000000000000000000F0010000007444600220150805000101 00000000000000000000000000000000000000000000000000000000000000000000000000000000000000000000000000000000000000000N 00000000000NCONT   00    00000000000          00000000000000000000000000000000000000000000 000000000000000A000000000000000000000000000000000000000000000 000000000000000000000000000000000000000     00000000                                                                                                                        000000000000000000
F0010000007444600003000090034602400042505000000000000000000201508050002001PRODUCTOS NACIONALES PARAFINICOS LA CUSTODIA S.A.SC000000000100000000000000000000000100010010000000000000000000000F0010000007444600320150805000101 00000000000000000000000000000000000000000000000000000000000000000000000000000000000000000000000000000000000000000N 00000000000NCONT   00    00000000000          00000000000000000000000000000000000000000000 000000000000000A000000000000000000000000000000000000000000000 000000000000000000000000000000000000000     00000000                                                                                                                        000000000000000000
F0010000007444600004000090034602400023658300000000000000000201508050002001PRODUCTOS NACIONALES PARAFINICOS LA CUSTODIA S.A.SC000000000009600000000000000000000100010010000000000000000000000F0010000007444600420150805000101 00000000000000000000000000000000000000000000000000000000000000000000000000000000000000000000000000000000000000000N 00000000000NCONT   00    00000000000          00000000000000000000000000000000000000000000 000000000000000A000000000000000000000000000000000000000000000 000000000000000000000000000000000000000     00000000                                                                                                                        000000000000000000
F0010000007444600005000090034602400013552100000000000000000201508050002001PRODUCTOS NACIONALES PARAFINICOS LA CUSTODIA S.A.SD000000000009600000000000000000000100010010000000000000000000000F0010000007444600520150805000101 00000000000000000000000000000000000000000000000000000000000000000000000000000000000000000000000000000000000000000N 00000000000NCONT   00    00000000000          00000000000000000000000000000000000000000000 000000000000000A000000000000000000000000000000000000000000000 000000000000000000000000000000000000000     00000000                                                                                                                        000000000000000000
F0010000007444700001000002257933700011050500000000000000000201508050002001ROSA MARGARITA  PUCCINI SU HERRAMIENTAS Y ELECTRICD000000003463700000000000000000000100010010000000000000000000000F0010000007444700120150805000101 00000000000000000000000000000000000000000000000000000000000000000000000000000000000000000000000000000000000000000N 00000000000NCONT   00    00000000000          00000000000000000000000000000000000000000000 000000000000000A000000000000000000000000000000000000000000000 000000000000000000000000000000000000000     00000000                                                                                                                        000000000000000000
F0010000007444700002000002257933700041450500000000000000000201508050002001ROSA MARGARITA  PUCCINI SU HERRAMIENTAS Y ELECTRICC000000002280000000000000000000000100010010000000000000000000000F0010000007444700220150805000101 00000000000000000000000000000000000000000000000000000000000000000000000000000000000000000000000000000000000000000N 00000000000NCONT   00    00000000000          00000000000000000000000000000000000000000000 000000000000000A000000000000000000000000000000000000000000000 000000000000000000000000000000000000000     00000000                                                                                                                        000000000000000000
