F0010000010900900001000090007142100011050500000000000000000201712300002001TODO BELLEZA Y MAX S.A.S                          D000000006200000000000000000000000100010010000000000000000000000F0010000010900900120171230000101 00000000000000000000000000000000000000000000000000000000000000000000000000000000000000000000000000000000000000000N 00000000000NCONT   00    00000000000          00000000000000000000000000000000000000000000 000000000000000A000000000000000000000000000000000000000000000 000000000000000000000000000000000000000     00000000                                                                                                                        000000000000000000
F0010000010900900002000090007142100041450500000000000000000201712300002001TODO BELLEZA Y MAX S.A.S                          C000000006000000000000000000000000100010010000000000000000000000F0010000010900900220171230000101 00000000000000000000000000000000000000000000000000000000000000000000000000000000000000000000000000000000000000000N 00000000000NCONT   00    00000000000          00000000000000000000000000000000000000000000 000000000000000A000000000000000000000000000000000000000000000 000000000000000000000000000000000000000     00000000                                                                                                                        000000000000000000
F0010000010900900003000090007142100042505000000000000000000201712300002001TODO BELLEZA Y MAX S.A.S                          C000000000200000000000000000000000100010010000000000000000000000F0010000010900900320171230000101 00000000000000000000000000000000000000000000000000000000000000000000000000000000000000000000000000000000000000000N 00000000000NCONT   00    00000000000          00000000000000000000000000000000000000000000 000000000000000A000000000000000000000000000000000000000000000 000000000000000000000000000000000000000     00000000                                                                                                                        000000000000000000
F0010000010900900004000090007142100023658300000000000000000201712300002001TODO BELLEZA Y MAX S.A.S                          C000000000000000000000000000000000100010010000000000000000000000F0010000010900900420171230000101 00000000000000000000000000000000000000000000000000000000000000000000000000000000000000000000000000000000000000000N 00000000000NCONT   00    00000000000          00000000000000000000000000000000000000000000 000000000000000A000000000000000000000000000000000000000000000 000000000000000000000000000000000000000     00000000                                                                                                                        000000000000000000
F0010000010900900005000090007142100013552100000000000000000201712300002001TODO BELLEZA Y MAX S.A.S                          D000000000000000000000000000000000100010010000000000000000000000F0010000010900900520171230000101 00000000000000000000000000000000000000000000000000000000000000000000000000000000000000000000000000000000000000000N 00000000000NCONT   00    00000000000          00000000000000000000000000000000000000000000 000000000000000A000000000000000000000000000000000000000000000 000000000000000000000000000000000000000     00000000                                                                                                                        000000000000000000
F0010000010901000001000090007142100011050500000000000000000201712300002001TODO BELLEZA Y MAX S.A.S                          D000000002400000000000000000000000100010010000000000000000000000F0010000010901000120171230000101 00000000000000000000000000000000000000000000000000000000000000000000000000000000000000000000000000000000000000000N 00000000000NCONT   00    00000000000          00000000000000000000000000000000000000000000 000000000000000A000000000000000000000000000000000000000000000 000000000000000000000000000000000000000     00000000                                                                                                                        000000000000000000
F0010000010901000002000090007142100041450500000000000000000201712300002001TODO BELLEZA Y MAX S.A.S                          C000000002200000000000000000000000100010010000000000000000000000F0010000010901000220171230000101 00000000000000000000000000000000000000000000000000000000000000000000000000000000000000000000000000000000000000000N 00000000000NCONT   00    00000000000          00000000000000000000000000000000000000000000 000000000000000A000000000000000000000000000000000000000000000 000000000000000000000000000000000000000     00000000                                                                                                                        000000000000000000
F0010000010901000003000090007142100042505000000000000000000201712300002001TODO BELLEZA Y MAX S.A.S                          C000000000200000000000000000000000100010010000000000000000000000F0010000010901000320171230000101 00000000000000000000000000000000000000000000000000000000000000000000000000000000000000000000000000000000000000000N 00000000000NCONT   00    00000000000          00000000000000000000000000000000000000000000 000000000000000A000000000000000000000000000000000000000000000 000000000000000000000000000000000000000     00000000                                                                                                                        000000000000000000
F0010000010901000004000090007142100023658300000000000000000201712300002001TODO BELLEZA Y MAX S.A.S                          C000000000000000000000000000000000100010010000000000000000000000F0010000010901000420171230000101 00000000000000000000000000000000000000000000000000000000000000000000000000000000000000000000000000000000000000000N 00000000000NCONT   00    00000000000          00000000000000000000000000000000000000000000 000000000000000A000000000000000000000000000000000000000000000 000000000000000000000000000000000000000     00000000                                                                                                                        000000000000000000
F0010000010901000005000090007142100013552100000000000000000201712300002001TODO BELLEZA Y MAX S.A.S                          D000000000000000000000000000000000100010010000000000000000000000F0010000010901000520171230000101 00000000000000000000000000000000000000000000000000000000000000000000000000000000000000000000000000000000000000000N 00000000000NCONT   00    00000000000          00000000000000000000000000000000000000000000 000000000000000A000000000000000000000000000000000000000000000 000000000000000000000000000000000000000     00000000                                                                                                                        000000000000000000
F0010000010901100001000090007142100011050500000000000000000201712300002001TODO BELLEZA Y MAX S.A.S                          D000000002600000000000000000000000100010010000000000000000000000F0010000010901100120171230000101 00000000000000000000000000000000000000000000000000000000000000000000000000000000000000000000000000000000000000000N 00000000000NCONT   00    00000000000          00000000000000000000000000000000000000000000 000000000000000A000000000000000000000000000000000000000000000 000000000000000000000000000000000000000     00000000                                                                                                                        000000000000000000
F0010000010901100002000090007142100041450500000000000000000201712300002001TODO BELLEZA Y MAX S.A.S                          C000000002400000000000000000000000100010010000000000000000000000F0010000010901100220171230000101 00000000000000000000000000000000000000000000000000000000000000000000000000000000000000000000000000000000000000000N 00000000000NCONT   00    00000000000          00000000000000000000000000000000000000000000 000000000000000A000000000000000000000000000000000000000000000 000000000000000000000000000000000000000     00000000                                                                                                                        000000000000000000
F0010000010901100003000090007142100042505000000000000000000201712300002001TODO BELLEZA Y MAX S.A.S                          C000000000200000000000000000000000100010010000000000000000000000F0010000010901100320171230000101 00000000000000000000000000000000000000000000000000000000000000000000000000000000000000000000000000000000000000000N 00000000000NCONT   00    00000000000          00000000000000000000000000000000000000000000 000000000000000A000000000000000000000000000000000000000000000 000000000000000000000000000000000000000     00000000                                                                                                                        000000000000000000
F0010000010901100004000090007142100023658300000000000000000201712300002001TODO BELLEZA Y MAX S.A.S                          C000000000000000000000000000000000100010010000000000000000000000F0010000010901100420171230000101 00000000000000000000000000000000000000000000000000000000000000000000000000000000000000000000000000000000000000000N 00000000000NCONT   00    00000000000          00000000000000000000000000000000000000000000 000000000000000A000000000000000000000000000000000000000000000 000000000000000000000000000000000000000     00000000                                                                                                                        000000000000000000
F0010000010901100005000090007142100013552100000000000000000201712300002001TODO BELLEZA Y MAX S.A.S                          D000000000000000000000000000000000100010010000000000000000000000F0010000010901100520171230000101 00000000000000000000000000000000000000000000000000000000000000000000000000000000000000000000000000000000000000000N 00000000000NCONT   00    00000000000          00000000000000000000000000000000000000000000 000000000000000A000000000000000000000000000000000000000000000 000000000000000000000000000000000000000     00000000                                                                                                                        000000000000000000
F0010000010901200001000090007142100011050500000000000000000201712300002001TODO BELLEZA Y MAX S.A.S                          D000000003800000000000000000000000100010010000000000000000000000F0010000010901200120171230000101 00000000000000000000000000000000000000000000000000000000000000000000000000000000000000000000000000000000000000000N 00000000000NCONT   00    00000000000          00000000000000000000000000000000000000000000 000000000000000A000000000000000000000000000000000000000000000 000000000000000000000000000000000000000     00000000                                                                                                                        000000000000000000
F0010000010901200002000090007142100041450500000000000000000201712300002001TODO BELLEZA Y MAX S.A.S                          C000000003600000000000000000000000100010010000000000000000000000F0010000010901200220171230000101 00000000000000000000000000000000000000000000000000000000000000000000000000000000000000000000000000000000000000000N 00000000000NCONT   00    00000000000          00000000000000000000000000000000000000000000 000000000000000A000000000000000000000000000000000000000000000 000000000000000000000000000000000000000     00000000                                                                                                                        000000000000000000
F0010000010901200003000090007142100042505000000000000000000201712300002001TODO BELLEZA Y MAX S.A.S                          C000000000200000000000000000000000100010010000000000000000000000F0010000010901200320171230000101 00000000000000000000000000000000000000000000000000000000000000000000000000000000000000000000000000000000000000000N 00000000000NCONT   00    00000000000          00000000000000000000000000000000000000000000 000000000000000A000000000000000000000000000000000000000000000 000000000000000000000000000000000000000     00000000                                                                                                                        000000000000000000
F0010000010901200004000090007142100023658300000000000000000201712300002001TODO BELLEZA Y MAX S.A.S                          C000000000000000000000000000000000100010010000000000000000000000F0010000010901200420171230000101 00000000000000000000000000000000000000000000000000000000000000000000000000000000000000000000000000000000000000000N 00000000000NCONT   00    00000000000          00000000000000000000000000000000000000000000 000000000000000A000000000000000000000000000000000000000000000 000000000000000000000000000000000000000     00000000                                                                                                                        000000000000000000
F0010000010901200005000090007142100013552100000000000000000201712300002001TODO BELLEZA Y MAX S.A.S                          D000000000000000000000000000000000100010010000000000000000000000F0010000010901200520171230000101 00000000000000000000000000000000000000000000000000000000000000000000000000000000000000000000000000000000000000000N 00000000000NCONT   00    00000000000          00000000000000000000000000000000000000000000 000000000000000A000000000000000000000000000000000000000000000 000000000000000000000000000000000000000     00000000                                                                                                                        000000000000000000
F0010000010901300001000000866531000011050500000000000000000201712300002001CLAUDIO RAFAEL DE JESUS LLINAS MOLINA             D000000001460000000000000000000000100010010000000000000000000000F0010000010901300120171230000101 00000000000000000000000000000000000000000000000000000000000000000000000000000000000000000000000000000000000000000N 00000000000NCONT   00    00000000000          00000000000000000000000000000000000000000000 000000000000000A000000000000000000000000000000000000000000000 000000000000000000000000000000000000000     00000000                                                                                                                        000000000000000000
F0010000010901300002000000866531000041450500000000000000000201712300002001CLAUDIO RAFAEL DE JESUS LLINAS MOLINA             C000000001300000000000000000000000100010010000000000000000000000F0010000010901300220171230000101 00000000000000000000000000000000000000000000000000000000000000000000000000000000000000000000000000000000000000000N 00000000000NCONT   00    00000000000          00000000000000000000000000000000000000000000 000000000000000A000000000000000000000000000000000000000000000 000000000000000000000000000000000000000     00000000                                                                                                                        000000000000000000
F0010000010901300003000000866531000042505000000000000000000201712300002001CLAUDIO RAFAEL DE JESUS LLINAS MOLINA             C000000000160000000000000000000000100010010000000000000000000000F0010000010901300320171230000101 00000000000000000000000000000000000000000000000000000000000000000000000000000000000000000000000000000000000000000N 00000000000NCONT   00    00000000000          00000000000000000000000000000000000000000000 000000000000000A000000000000000000000000000000000000000000000 000000000000000000000000000000000000000     00000000                                                                                                                        000000000000000000
F0010000010901300004000000866531000023658300000000000000000201712300002001CLAUDIO RAFAEL DE JESUS LLINAS MOLINA             C000000000000000000000000000000000100010010000000000000000000000F0010000010901300420171230000101 00000000000000000000000000000000000000000000000000000000000000000000000000000000000000000000000000000000000000000N 00000000000NCONT   00    00000000000          00000000000000000000000000000000000000000000 000000000000000A000000000000000000000000000000000000000000000 000000000000000000000000000000000000000     00000000                                                                                                                        000000000000000000
F0010000010901300005000000866531000013552100000000000000000201712300002001CLAUDIO RAFAEL DE JESUS LLINAS MOLINA             D000000000000000000000000000000000100010010000000000000000000000F0010000010901300520171230000101 00000000000000000000000000000000000000000000000000000000000000000000000000000000000000000000000000000000000000000N 00000000000NCONT   00    00000000000          00000000000000000000000000000000000000000000 000000000000000A000000000000000000000000000000000000000000000 000000000000000000000000000000000000000     00000000                                                                                                                        000000000000000000
F0010000010901400001000000866531000011050500000000000000000201712300002001CLAUDIO RAFAEL DE JESUS LLINAS MOLINA             D000000001500000000000000000000000100010010000000000000000000000F0010000010901400120171230000101 00000000000000000000000000000000000000000000000000000000000000000000000000000000000000000000000000000000000000000N 00000000000NCONT   00    00000000000          00000000000000000000000000000000000000000000 000000000000000A000000000000000000000000000000000000000000000 000000000000000000000000000000000000000     00000000                                                                                                                        000000000000000000
F0010000010901400002000000866531000041450500000000000000000201712300002001CLAUDIO RAFAEL DE JESUS LLINAS MOLINA             C000000001300000000000000000000000100010010000000000000000000000F0010000010901400220171230000101 00000000000000000000000000000000000000000000000000000000000000000000000000000000000000000000000000000000000000000N 00000000000NCONT   00    00000000000          00000000000000000000000000000000000000000000 000000000000000A000000000000000000000000000000000000000000000 000000000000000000000000000000000000000     00000000                                                                                                                        000000000000000000
F0010000010901400003000000866531000042505000000000000000000201712300002001CLAUDIO RAFAEL DE JESUS LLINAS MOLINA             C000000000200000000000000000000000100010010000000000000000000000F0010000010901400320171230000101 00000000000000000000000000000000000000000000000000000000000000000000000000000000000000000000000000000000000000000N 00000000000NCONT   00    00000000000          00000000000000000000000000000000000000000000 000000000000000A000000000000000000000000000000000000000000000 000000000000000000000000000000000000000     00000000                                                                                                                        000000000000000000
F0010000010901400004000000866531000023658300000000000000000201712300002001CLAUDIO RAFAEL DE JESUS LLINAS MOLINA             C000000000000000000000000000000000100010010000000000000000000000F0010000010901400420171230000101 00000000000000000000000000000000000000000000000000000000000000000000000000000000000000000000000000000000000000000N 00000000000NCONT   00    00000000000          00000000000000000000000000000000000000000000 000000000000000A000000000000000000000000000000000000000000000 000000000000000000000000000000000000000     00000000                                                                                                                        000000000000000000
F0010000010901400005000000866531000013552100000000000000000201712300002001CLAUDIO RAFAEL DE JESUS LLINAS MOLINA             D000000000000000000000000000000000100010010000000000000000000000F0010000010901400520171230000101 00000000000000000000000000000000000000000000000000000000000000000000000000000000000000000000000000000000000000000N 00000000000NCONT   00    00000000000          00000000000000000000000000000000000000000000 000000000000000A000000000000000000000000000000000000000000000 000000000000000000000000000000000000000     00000000                                                                                                                        000000000000000000
F0010000010901500001000000866531000011050500000000000000000201712300002001CLAUDIO RAFAEL DE JESUS LLINAS MOLINA             D000000001550000000000000000000000100010010000000000000000000000F0010000010901500120171230000101 00000000000000000000000000000000000000000000000000000000000000000000000000000000000000000000000000000000000000000N 00000000000NCONT   00    00000000000          00000000000000000000000000000000000000000000 000000000000000A000000000000000000000000000000000000000000000 000000000000000000000000000000000000000     00000000                                                                                                                        000000000000000000
F0010000010901500002000000866531000041450500000000000000000201712300002001CLAUDIO RAFAEL DE JESUS LLINAS MOLINA             C000000001300000000000000000000000100010010000000000000000000000F0010000010901500220171230000101 00000000000000000000000000000000000000000000000000000000000000000000000000000000000000000000000000000000000000000N 00000000000NCONT   00    00000000000          00000000000000000000000000000000000000000000 000000000000000A000000000000000000000000000000000000000000000 000000000000000000000000000000000000000     00000000                                                                                                                        000000000000000000
F0010000010901500003000000866531000042505000000000000000000201712300002001CLAUDIO RAFAEL DE JESUS LLINAS MOLINA             C000000000250000000000000000000000100010010000000000000000000000F0010000010901500320171230000101 00000000000000000000000000000000000000000000000000000000000000000000000000000000000000000000000000000000000000000N 00000000000NCONT   00    00000000000          00000000000000000000000000000000000000000000 000000000000000A000000000000000000000000000000000000000000000 000000000000000000000000000000000000000     00000000                                                                                                                        000000000000000000
F0010000010901500004000000866531000023658300000000000000000201712300002001CLAUDIO RAFAEL DE JESUS LLINAS MOLINA             C000000000000000000000000000000000100010010000000000000000000000F0010000010901500420171230000101 00000000000000000000000000000000000000000000000000000000000000000000000000000000000000000000000000000000000000000N 00000000000NCONT   00    00000000000          00000000000000000000000000000000000000000000 000000000000000A000000000000000000000000000000000000000000000 000000000000000000000000000000000000000     00000000                                                                                                                        000000000000000000
F0010000010901500005000000866531000013552100000000000000000201712300002001CLAUDIO RAFAEL DE JESUS LLINAS MOLINA             D000000000000000000000000000000000100010010000000000000000000000F0010000010901500520171230000101 00000000000000000000000000000000000000000000000000000000000000000000000000000000000000000000000000000000000000000N 00000000000NCONT   00    00000000000          00000000000000000000000000000000000000000000 000000000000000A000000000000000000000000000000000000000000000 000000000000000000000000000000000000000     00000000                                                                                                                        000000000000000000
F0010000010901600001000004175790100011050500000000000000000201712300002001ROSIRIS FERIA HOYOS  (COSM. SHILLER)              D000000001500000000000000000000000100010010000000000000000000000F0010000010901600120171230000101 00000000000000000000000000000000000000000000000000000000000000000000000000000000000000000000000000000000000000000N 00000000000NCONT   00    00000000000          00000000000000000000000000000000000000000000 000000000000000A000000000000000000000000000000000000000000000 000000000000000000000000000000000000000     00000000                                                                                                                        000000000000000000
F0010000010901600002000004175790100041450500000000000000000201712300002001ROSIRIS FERIA HOYOS  (COSM. SHILLER)              C000000001000000000000000000000000100010010000000000000000000000F0010000010901600220171230000101 00000000000000000000000000000000000000000000000000000000000000000000000000000000000000000000000000000000000000000N 00000000000NCONT   00    00000000000          00000000000000000000000000000000000000000000 000000000000000A000000000000000000000000000000000000000000000 000000000000000000000000000000000000000     00000000                                                                                                                        000000000000000000
F0010000010901600003000004175790100042505000000000000000000201712300002001ROSIRIS FERIA HOYOS  (COSM. SHILLER)              C000000000500000000000000000000000100010010000000000000000000000F0010000010901600320171230000101 00000000000000000000000000000000000000000000000000000000000000000000000000000000000000000000000000000000000000000N 00000000000NCONT   00    00000000000          00000000000000000000000000000000000000000000 000000000000000A000000000000000000000000000000000000000000000 000000000000000000000000000000000000000     00000000                                                                                                                        000000000000000000
F0010000010901600004000004175790100023658300000000000000000201712300002001ROSIRIS FERIA HOYOS  (COSM. SHILLER)              C000000000000000000000000000000000100010010000000000000000000000F0010000010901600420171230000101 00000000000000000000000000000000000000000000000000000000000000000000000000000000000000000000000000000000000000000N 00000000000NCONT   00    00000000000          00000000000000000000000000000000000000000000 000000000000000A000000000000000000000000000000000000000000000 000000000000000000000000000000000000000     00000000                                                                                                                        000000000000000000
F0010000010901600005000004175790100013552100000000000000000201712300002001ROSIRIS FERIA HOYOS  (COSM. SHILLER)              D000000000000000000000000000000000100010010000000000000000000000F0010000010901600520171230000101 00000000000000000000000000000000000000000000000000000000000000000000000000000000000000000000000000000000000000000N 00000000000NCONT   00    00000000000          00000000000000000000000000000000000000000000 000000000000000A000000000000000000000000000000000000000000000 000000000000000000000000000000000000000     00000000                                                                                                                        000000000000000000
F0010000010901700001000007200023300011050500000000000000000201712300002001WILLIAM ORTEGA                                    D000000004400000000000000000000000100010010000000000000000000000F0010000010901700120171230000101 00000000000000000000000000000000000000000000000000000000000000000000000000000000000000000000000000000000000000000N 00000000000NCONT   00    00000000000          00000000000000000000000000000000000000000000 000000000000000A000000000000000000000000000000000000000000000 000000000000000000000000000000000000000     00000000                                                                                                                        000000000000000000
F0010000010901700002000007200023300041450500000000000000000201712300002001WILLIAM ORTEGA                                    C000000003900000000000000000000000100010010000000000000000000000F0010000010901700220171230000101 00000000000000000000000000000000000000000000000000000000000000000000000000000000000000000000000000000000000000000N 00000000000NCONT   00    00000000000          00000000000000000000000000000000000000000000 000000000000000A000000000000000000000000000000000000000000000 000000000000000000000000000000000000000     00000000                                                                                                                        000000000000000000
F0010000010901700003000007200023300042505000000000000000000201712300002001WILLIAM ORTEGA                                    C000000000500000000000000000000000100010010000000000000000000000F0010000010901700320171230000101 00000000000000000000000000000000000000000000000000000000000000000000000000000000000000000000000000000000000000000N 00000000000NCONT   00    00000000000          00000000000000000000000000000000000000000000 000000000000000A000000000000000000000000000000000000000000000 000000000000000000000000000000000000000     00000000                                                                                                                        000000000000000000
F0010000010901700004000007200023300023658300000000000000000201712300002001WILLIAM ORTEGA                                    C000000000000000000000000000000000100010010000000000000000000000F0010000010901700420171230000101 00000000000000000000000000000000000000000000000000000000000000000000000000000000000000000000000000000000000000000N 00000000000NCONT   00    00000000000          00000000000000000000000000000000000000000000 000000000000000A000000000000000000000000000000000000000000000 000000000000000000000000000000000000000     00000000                                                                                                                        000000000000000000
F0010000010901700005000007200023300013552100000000000000000201712300002001WILLIAM ORTEGA                                    D000000000000000000000000000000000100010010000000000000000000000F0010000010901700520171230000101 00000000000000000000000000000000000000000000000000000000000000000000000000000000000000000000000000000000000000000N 00000000000NCONT   00    00000000000          00000000000000000000000000000000000000000000 000000000000000A000000000000000000000000000000000000000000000 000000000000000000000000000000000000000     00000000                                                                                                                        000000000000000000
F0010000010901800001000007200023300011050500000000000000000201712300002001WILLIAM ORTEGA                                    D000000001250000000000000000000000100010010000000000000000000000F0010000010901800120171230000101 00000000000000000000000000000000000000000000000000000000000000000000000000000000000000000000000000000000000000000N 00000000000NCONT   00    00000000000          00000000000000000000000000000000000000000000 000000000000000A000000000000000000000000000000000000000000000 000000000000000000000000000000000000000     00000000                                                                                                                        000000000000000000
F0010000010901800002000007200023300041450500000000000000000201712300002001WILLIAM ORTEGA                                    C000000000850000000000000000000000100010010000000000000000000000F0010000010901800220171230000101 00000000000000000000000000000000000000000000000000000000000000000000000000000000000000000000000000000000000000000N 00000000000NCONT   00    00000000000          00000000000000000000000000000000000000000000 000000000000000A000000000000000000000000000000000000000000000 000000000000000000000000000000000000000     00000000                                                                                                                        000000000000000000
F0010000010901800003000007200023300042505000000000000000000201712300002001WILLIAM ORTEGA                                    C000000000400000000000000000000000100010010000000000000000000000F0010000010901800320171230000101 00000000000000000000000000000000000000000000000000000000000000000000000000000000000000000000000000000000000000000N 00000000000NCONT   00    00000000000          00000000000000000000000000000000000000000000 000000000000000A000000000000000000000000000000000000000000000 000000000000000000000000000000000000000     00000000                                                                                                                        000000000000000000
F0010000010901800004000007200023300023658300000000000000000201712300002001WILLIAM ORTEGA                                    C000000000000000000000000000000000100010010000000000000000000000F0010000010901800420171230000101 00000000000000000000000000000000000000000000000000000000000000000000000000000000000000000000000000000000000000000N 00000000000NCONT   00    00000000000          00000000000000000000000000000000000000000000 000000000000000A000000000000000000000000000000000000000000000 000000000000000000000000000000000000000     00000000                                                                                                                        000000000000000000
F0010000010901800005000007200023300013552100000000000000000201712300002001WILLIAM ORTEGA                                    D000000000000000000000000000000000100010010000000000000000000000F0010000010901800520171230000101 00000000000000000000000000000000000000000000000000000000000000000000000000000000000000000000000000000000000000000N 00000000000NCONT   00    00000000000          00000000000000000000000000000000000000000000 000000000000000A000000000000000000000000000000000000000000000 000000000000000000000000000000000000000     00000000                                                                                                                        000000000000000000
F0010000010901900001000090061985600011050500000000000000000201712300002001COMERCIALIZADORA PATRY SAS                        D000000003700000000000000000000000100010010000000000000000000000F0010000010901900120171230000101 00000000000000000000000000000000000000000000000000000000000000000000000000000000000000000000000000000000000000000N 00000000000NCONT   00    00000000000          00000000000000000000000000000000000000000000 000000000000000A000000000000000000000000000000000000000000000 000000000000000000000000000000000000000     00000000                                                                                                                        000000000000000000
F0010000010901900002000090061985600041450500000000000000000201712300002001COMERCIALIZADORA PATRY SAS                        C000000003300000000000000000000000100010010000000000000000000000F0010000010901900220171230000101 00000000000000000000000000000000000000000000000000000000000000000000000000000000000000000000000000000000000000000N 00000000000NCONT   00    00000000000          00000000000000000000000000000000000000000000 000000000000000A000000000000000000000000000000000000000000000 000000000000000000000000000000000000000     00000000                                                                                                                        000000000000000000
F0010000010901900003000090061985600042505000000000000000000201712300002001COMERCIALIZADORA PATRY SAS                        C000000000400000000000000000000000100010010000000000000000000000F0010000010901900320171230000101 00000000000000000000000000000000000000000000000000000000000000000000000000000000000000000000000000000000000000000N 00000000000NCONT   00    00000000000          00000000000000000000000000000000000000000000 000000000000000A000000000000000000000000000000000000000000000 000000000000000000000000000000000000000     00000000                                                                                                                        000000000000000000
F0010000010901900004000090061985600023658300000000000000000201712300002001COMERCIALIZADORA PATRY SAS                        C000000000000000000000000000000000100010010000000000000000000000F0010000010901900420171230000101 00000000000000000000000000000000000000000000000000000000000000000000000000000000000000000000000000000000000000000N 00000000000NCONT   00    00000000000          00000000000000000000000000000000000000000000 000000000000000A000000000000000000000000000000000000000000000 000000000000000000000000000000000000000     00000000                                                                                                                        000000000000000000
F0010000010901900005000090061985600013552100000000000000000201712300002001COMERCIALIZADORA PATRY SAS                        D000000000000000000000000000000000100010010000000000000000000000F0010000010901900520171230000101 00000000000000000000000000000000000000000000000000000000000000000000000000000000000000000000000000000000000000000N 00000000000NCONT   00    00000000000          00000000000000000000000000000000000000000000 000000000000000A000000000000000000000000000000000000000000000 000000000000000000000000000000000000000     00000000                                                                                                                        000000000000000000
F0010000010902000001000003288816200011050500000000000000000201712300002001VINKYS MARIA SUAREZ MARRUGO CREACIONES VINFYS     D000000010000000000000000000000000100010010000000000000000000000F0010000010902000120171230000101 00000000000000000000000000000000000000000000000000000000000000000000000000000000000000000000000000000000000000000N 00000000000NCONT   00    00000000000          00000000000000000000000000000000000000000000 000000000000000A000000000000000000000000000000000000000000000 000000000000000000000000000000000000000     00000000                                                                                                                        000000000000000000
F0010000010902000002000003288816200041450500000000000000000201712300002001VINKYS MARIA SUAREZ MARRUGO CREACIONES VINFYS     C000000009600000000000000000000000100010010000000000000000000000F0010000010902000220171230000101 00000000000000000000000000000000000000000000000000000000000000000000000000000000000000000000000000000000000000000N 00000000000NCONT   00    00000000000          00000000000000000000000000000000000000000000 000000000000000A000000000000000000000000000000000000000000000 000000000000000000000000000000000000000     00000000                                                                                                                        000000000000000000
F0010000010902000003000003288816200042505000000000000000000201712300002001VINKYS MARIA SUAREZ MARRUGO CREACIONES VINFYS     C000000000400000000000000000000000100010010000000000000000000000F0010000010902000320171230000101 00000000000000000000000000000000000000000000000000000000000000000000000000000000000000000000000000000000000000000N 00000000000NCONT   00    00000000000          00000000000000000000000000000000000000000000 000000000000000A000000000000000000000000000000000000000000000 000000000000000000000000000000000000000     00000000                                                                                                                        000000000000000000
F0010000010902000004000003288816200023658300000000000000000201712300002001VINKYS MARIA SUAREZ MARRUGO CREACIONES VINFYS     C000000000000000000000000000000000100010010000000000000000000000F0010000010902000420171230000101 00000000000000000000000000000000000000000000000000000000000000000000000000000000000000000000000000000000000000000N 00000000000NCONT   00    00000000000          00000000000000000000000000000000000000000000 000000000000000A000000000000000000000000000000000000000000000 000000000000000000000000000000000000000     00000000                                                                                                                        000000000000000000
F0010000010902000005000003288816200013552100000000000000000201712300002001VINKYS MARIA SUAREZ MARRUGO CREACIONES VINFYS     D000000000000000000000000000000000100010010000000000000000000000F0010000010902000520171230000101 00000000000000000000000000000000000000000000000000000000000000000000000000000000000000000000000000000000000000000N 00000000000NCONT   00    00000000000          00000000000000000000000000000000000000000000 000000000000000A000000000000000000000000000000000000000000000 000000000000000000000000000000000000000     00000000                                                                                                                        000000000000000000
