F0010000007856000001000007216101100011050500000000000000000201511060002001JESUS PEDROZO NARVAEZ                             D000000003500000000000000000000000100010010000000000000000000000F0010000007856000120151106000101 00000000000000000000000000000000000000000000000000000000000000000000000000000000000000000000000000000000000000000N 00000000000NCONT   00    00000000000          00000000000000000000000000000000000000000000 000000000000000A000000000000000000000000000000000000000000000 000000000000000000000000000000000000000     00000000                                                                                                                        000000000000000000
F0010000007856000002000007216101100041450500000000000000000201511060002001JESUS PEDROZO NARVAEZ                             C000000002700000000000000000000000100010010000000000000000000000F0010000007856000220151106000101 00000000000000000000000000000000000000000000000000000000000000000000000000000000000000000000000000000000000000000N 00000000000NCONT   00    00000000000          00000000000000000000000000000000000000000000 000000000000000A000000000000000000000000000000000000000000000 000000000000000000000000000000000000000     00000000                                                                                                                        000000000000000000
F0010000007856000003000007216101100042505000000000000000000201511060002001JESUS PEDROZO NARVAEZ                             C000000000800000000000000000000000100010010000000000000000000000F0010000007856000320151106000101 00000000000000000000000000000000000000000000000000000000000000000000000000000000000000000000000000000000000000000N 00000000000NCONT   00    00000000000          00000000000000000000000000000000000000000000 000000000000000A000000000000000000000000000000000000000000000 000000000000000000000000000000000000000     00000000                                                                                                                        000000000000000000
F0010000007856000004000007216101100023658300000000000000000201511060002001JESUS PEDROZO NARVAEZ                             C000000000021600000000000000000000100010010000000000000000000000F0010000007856000420151106000101 00000000000000000000000000000000000000000000000000000000000000000000000000000000000000000000000000000000000000000N 00000000000NCONT   00    00000000000          00000000000000000000000000000000000000000000 000000000000000A000000000000000000000000000000000000000000000 000000000000000000000000000000000000000     00000000                                                                                                                        000000000000000000
F0010000007856000005000007216101100013552100000000000000000201511060002001JESUS PEDROZO NARVAEZ                             D000000000021600000000000000000000100010010000000000000000000000F0010000007856000520151106000101 00000000000000000000000000000000000000000000000000000000000000000000000000000000000000000000000000000000000000000N 00000000000NCONT   00    00000000000          00000000000000000000000000000000000000000000 000000000000000A000000000000000000000000000000000000000000000 000000000000000000000000000000000000000     00000000                                                                                                                        000000000000000000
F0010000007856100001000080201112800013050500000000000000000201511060002001CANGURO INTERNATIONAL S.A.                        D000000123410100000000000000000000100010010000000000000000000000F0010000007856100120151106000101 00000000000000000000000000000000000000000000000000000000000000000000000000000000000000000000000000000000000000000N 00000000000NCONT   00    00000000000          00000000000000000000000000000000000000000000 000000000000000A000000000000000000000000000000000000000000000 000000000000000000000000000000000000000     00000000                                                                                                                        000000000000000000
F0010000007856100002000080201112800041450500000000000000000201511060002001CANGURO INTERNATIONAL S.A.                        C000000118881900000000000000000000100010010000000000000000000000F0010000007856100220151106000101 00000000000000000000000000000000000000000000000000000000000000000000000000000000000000000000000000000000000000000N 00000000000NCONT   00    00000000000          00000000000000000000000000000000000000000000 000000000000000A000000000000000000000000000000000000000000000 000000000000000000000000000000000000000     00000000                                                                                                                        000000000000000000
F0010000007856100003000080201112800042505000000000000000000201511060002001CANGURO INTERNATIONAL S.A.                        C000000004528200000000000000000000100010010000000000000000000000F0010000007856100320151106000101 00000000000000000000000000000000000000000000000000000000000000000000000000000000000000000000000000000000000000000N 00000000000NCONT   00    00000000000          00000000000000000000000000000000000000000000 000000000000000A000000000000000000000000000000000000000000000 000000000000000000000000000000000000000     00000000                                                                                                                        000000000000000000
F0010000007856100004000080201112800023658300000000000000000201511060002001CANGURO INTERNATIONAL S.A.                        C000000000951100000000000000000000100010010000000000000000000000F0010000007856100420151106000101 00000000000000000000000000000000000000000000000000000000000000000000000000000000000000000000000000000000000000000N 00000000000NCONT   00    00000000000          00000000000000000000000000000000000000000000 000000000000000A000000000000000000000000000000000000000000000 000000000000000000000000000000000000000     00000000                                                                                                                        000000000000000000
F0010000007856100005000080201112800013552100000000000000000201511060002001CANGURO INTERNATIONAL S.A.                        D000000000951100000000000000000000100010010000000000000000000000F0010000007856100520151106000101 00000000000000000000000000000000000000000000000000000000000000000000000000000000000000000000000000000000000000000N 00000000000NCONT   00    00000000000          00000000000000000000000000000000000000000000 000000000000000A000000000000000000000000000000000000000000000 000000000000000000000000000000000000000     00000000                                                                                                                        000000000000000000
F0010000007856200001000080201112800013050500000000000000000201511060002001CANGURO INTERNATIONAL S.A.                        D000000070522200000000000000000000100010010000000000000000000000F0010000007856200120151106000101 00000000000000000000000000000000000000000000000000000000000000000000000000000000000000000000000000000000000000000N 00000000000NCONT   00    00000000000          00000000000000000000000000000000000000000000 000000000000000A000000000000000000000000000000000000000000000 000000000000000000000000000000000000000     00000000                                                                                                                        000000000000000000
F0010000007856200002000080201112800041450500000000000000000201511060002001CANGURO INTERNATIONAL S.A.                        C000000070522200000000000000000000100010010000000000000000000000F0010000007856200220151106000101 00000000000000000000000000000000000000000000000000000000000000000000000000000000000000000000000000000000000000000N 00000000000NCONT   00    00000000000          00000000000000000000000000000000000000000000 000000000000000A000000000000000000000000000000000000000000000 000000000000000000000000000000000000000     00000000                                                                                                                        000000000000000000
F0010000007856200003000080201112800042505000000000000000000201511060002001CANGURO INTERNATIONAL S.A.                        C000000000000000000000000000000000100010010000000000000000000000F0010000007856200320151106000101 00000000000000000000000000000000000000000000000000000000000000000000000000000000000000000000000000000000000000000N 00000000000NCONT   00    00000000000          00000000000000000000000000000000000000000000 000000000000000A000000000000000000000000000000000000000000000 000000000000000000000000000000000000000     00000000                                                                                                                        000000000000000000
F0010000007856200004000080201112800023658300000000000000000201511060002001CANGURO INTERNATIONAL S.A.                        C000000000564200000000000000000000100010010000000000000000000000F0010000007856200420151106000101 00000000000000000000000000000000000000000000000000000000000000000000000000000000000000000000000000000000000000000N 00000000000NCONT   00    00000000000          00000000000000000000000000000000000000000000 000000000000000A000000000000000000000000000000000000000000000 000000000000000000000000000000000000000     00000000                                                                                                                        000000000000000000
F0010000007856200005000080201112800013552100000000000000000201511060002001CANGURO INTERNATIONAL S.A.                        D000000000564200000000000000000000100010010000000000000000000000F0010000007856200520151106000101 00000000000000000000000000000000000000000000000000000000000000000000000000000000000000000000000000000000000000000N 00000000000NCONT   00    00000000000          00000000000000000000000000000000000000000000 000000000000000A000000000000000000000000000000000000000000000 000000000000000000000000000000000000000     00000000                                                                                                                        000000000000000000
F0010000007856300001000080202094000013050500000000000000000201511060002001DISTRIB. OMAR ORREGO S.A.                         D000000082698700000000000000000000100010010000000000000000000000F0010000007856300120151106000101 00000000000000000000000000000000000000000000000000000000000000000000000000000000000000000000000000000000000000000N 00000000000NCONT   00    00000000000          00000000000000000000000000000000000000000000 000000000000000A000000000000000000000000000000000000000000000 000000000000000000000000000000000000000     00000000                                                                                                                        000000000000000000
F0010000007856300002000080202094000041450500000000000000000201511060002001DISTRIB. OMAR ORREGO S.A.                         C000000045040000000000000000000000100010010000000000000000000000F0010000007856300220151106000101 00000000000000000000000000000000000000000000000000000000000000000000000000000000000000000000000000000000000000000N 00000000000NCONT   00    00000000000          00000000000000000000000000000000000000000000 000000000000000A000000000000000000000000000000000000000000000 000000000000000000000000000000000000000     00000000                                                                                                                        000000000000000000
F0010000007856300003000080202094000042505000000000000000000201511060002001DISTRIB. OMAR ORREGO S.A.                         C000000037658700000000000000000000100010010000000000000000000000F0010000007856300320151106000101 00000000000000000000000000000000000000000000000000000000000000000000000000000000000000000000000000000000000000000N 00000000000NCONT   00    00000000000          00000000000000000000000000000000000000000000 000000000000000A000000000000000000000000000000000000000000000 000000000000000000000000000000000000000     00000000                                                                                                                        000000000000000000
F0010000007856300004000080202094000023658300000000000000000201511060002001DISTRIB. OMAR ORREGO S.A.                         C000000000360300000000000000000000100010010000000000000000000000F0010000007856300420151106000101 00000000000000000000000000000000000000000000000000000000000000000000000000000000000000000000000000000000000000000N 00000000000NCONT   00    00000000000          00000000000000000000000000000000000000000000 000000000000000A000000000000000000000000000000000000000000000 000000000000000000000000000000000000000     00000000                                                                                                                        000000000000000000
F0010000007856300005000080202094000013552100000000000000000201511060002001DISTRIB. OMAR ORREGO S.A.                         D000000000360300000000000000000000100010010000000000000000000000F0010000007856300520151106000101 00000000000000000000000000000000000000000000000000000000000000000000000000000000000000000000000000000000000000000N 00000000000NCONT   00    00000000000          00000000000000000000000000000000000000000000 000000000000000A000000000000000000000000000000000000000000000 000000000000000000000000000000000000000     00000000                                                                                                                        000000000000000000
F0010000007856400001000080202094000013050500000000000000000201511060002001DISTRIB. OMAR ORREGO S.A.                         D000000051307700000000000000000000100010010000000000000000000000F0010000007856400120151106000101 00000000000000000000000000000000000000000000000000000000000000000000000000000000000000000000000000000000000000000N 00000000000NCONT   00    00000000000          00000000000000000000000000000000000000000000 000000000000000A000000000000000000000000000000000000000000000 000000000000000000000000000000000000000     00000000                                                                                                                        000000000000000000
F0010000007856400002000080202094000041450500000000000000000201511060002001DISTRIB. OMAR ORREGO S.A.                         C000000037310000000000000000000000100010010000000000000000000000F0010000007856400220151106000101 00000000000000000000000000000000000000000000000000000000000000000000000000000000000000000000000000000000000000000N 00000000000NCONT   00    00000000000          00000000000000000000000000000000000000000000 000000000000000A000000000000000000000000000000000000000000000 000000000000000000000000000000000000000     00000000                                                                                                                        000000000000000000
F0010000007856400003000080202094000042505000000000000000000201511060002001DISTRIB. OMAR ORREGO S.A.                         C000000013997700000000000000000000100010010000000000000000000000F0010000007856400320151106000101 00000000000000000000000000000000000000000000000000000000000000000000000000000000000000000000000000000000000000000N 00000000000NCONT   00    00000000000          00000000000000000000000000000000000000000000 000000000000000A000000000000000000000000000000000000000000000 000000000000000000000000000000000000000     00000000                                                                                                                        000000000000000000
F0010000007856400004000080202094000023658300000000000000000201511060002001DISTRIB. OMAR ORREGO S.A.                         C000000000298500000000000000000000100010010000000000000000000000F0010000007856400420151106000101 00000000000000000000000000000000000000000000000000000000000000000000000000000000000000000000000000000000000000000N 00000000000NCONT   00    00000000000          00000000000000000000000000000000000000000000 000000000000000A000000000000000000000000000000000000000000000 000000000000000000000000000000000000000     00000000                                                                                                                        000000000000000000
F0010000007856400005000080202094000013552100000000000000000201511060002001DISTRIB. OMAR ORREGO S.A.                         D000000000298500000000000000000000100010010000000000000000000000F0010000007856400520151106000101 00000000000000000000000000000000000000000000000000000000000000000000000000000000000000000000000000000000000000000N 00000000000NCONT   00    00000000000          00000000000000000000000000000000000000000000 000000000000000A000000000000000000000000000000000000000000000 000000000000000000000000000000000000000     00000000                                                                                                                        000000000000000000
F0010000007856500001000089031248700013050500000000000000000201511060002001DISTRIBUIDORA CALIPLASTICOS LTDA                  D000000049468700000000000000000000100010010000000000000000000000F0010000007856500120151106000101 00000000000000000000000000000000000000000000000000000000000000000000000000000000000000000000000000000000000000000N 00000000000NCONT   00    00000000000          00000000000000000000000000000000000000000000 000000000000000A000000000000000000000000000000000000000000000 000000000000000000000000000000000000000     00000000                                                                                                                        000000000000000000
F0010000007856500002000089031248700041450500000000000000000201511060002001DISTRIBUIDORA CALIPLASTICOS LTDA                  C000000048768700000000000000000000100010010000000000000000000000F0010000007856500220151106000101 00000000000000000000000000000000000000000000000000000000000000000000000000000000000000000000000000000000000000000N 00000000000NCONT   00    00000000000          00000000000000000000000000000000000000000000 000000000000000A000000000000000000000000000000000000000000000 000000000000000000000000000000000000000     00000000                                                                                                                        000000000000000000
F0010000007856500003000089031248700042505000000000000000000201511060002001DISTRIBUIDORA CALIPLASTICOS LTDA                  C000000000700000000000000000000000100010010000000000000000000000F0010000007856500320151106000101 00000000000000000000000000000000000000000000000000000000000000000000000000000000000000000000000000000000000000000N 00000000000NCONT   00    00000000000          00000000000000000000000000000000000000000000 000000000000000A000000000000000000000000000000000000000000000 000000000000000000000000000000000000000     00000000                                                                                                                        000000000000000000
F0010000007856500004000089031248700023658300000000000000000201511060002001DISTRIBUIDORA CALIPLASTICOS LTDA                  C000000000390100000000000000000000100010010000000000000000000000F0010000007856500420151106000101 00000000000000000000000000000000000000000000000000000000000000000000000000000000000000000000000000000000000000000N 00000000000NCONT   00    00000000000          00000000000000000000000000000000000000000000 000000000000000A000000000000000000000000000000000000000000000 000000000000000000000000000000000000000     00000000                                                                                                                        000000000000000000
F0010000007856500005000089031248700013552100000000000000000201511060002001DISTRIBUIDORA CALIPLASTICOS LTDA                  D000000000390100000000000000000000100010010000000000000000000000F0010000007856500520151106000101 00000000000000000000000000000000000000000000000000000000000000000000000000000000000000000000000000000000000000000N 00000000000NCONT   00    00000000000          00000000000000000000000000000000000000000000 000000000000000A000000000000000000000000000000000000000000000 000000000000000000000000000000000000000     00000000                                                                                                                        000000000000000000
F0010000007856600001000090019362000013050500000000000000000201511060002001GENERAL SUPPLIES CIA LTDA                         D000000008719000000000000000000000100010010000000000000000000000F0010000007856600120151106000101 00000000000000000000000000000000000000000000000000000000000000000000000000000000000000000000000000000000000000000N 00000000000NCONT   00    00000000000          00000000000000000000000000000000000000000000 000000000000000A000000000000000000000000000000000000000000000 000000000000000000000000000000000000000     00000000                                                                                                                        000000000000000000
F0010000007856600002000090019362000041450500000000000000000201511060002001GENERAL SUPPLIES CIA LTDA                         C000000007550000000000000000000000100010010000000000000000000000F0010000007856600220151106000101 00000000000000000000000000000000000000000000000000000000000000000000000000000000000000000000000000000000000000000N 00000000000NCONT   00    00000000000          00000000000000000000000000000000000000000000 000000000000000A000000000000000000000000000000000000000000000 000000000000000000000000000000000000000     00000000                                                                                                                        000000000000000000
F0010000007856600003000090019362000042505000000000000000000201511060002001GENERAL SUPPLIES CIA LTDA                         C000000001169000000000000000000000100010010000000000000000000000F0010000007856600320151106000101 00000000000000000000000000000000000000000000000000000000000000000000000000000000000000000000000000000000000000000N 00000000000NCONT   00    00000000000          00000000000000000000000000000000000000000000 000000000000000A000000000000000000000000000000000000000000000 000000000000000000000000000000000000000     00000000                                                                                                                        000000000000000000
F0010000007856600004000090019362000023658300000000000000000201511060002001GENERAL SUPPLIES CIA LTDA                         C000000000060400000000000000000000100010010000000000000000000000F0010000007856600420151106000101 00000000000000000000000000000000000000000000000000000000000000000000000000000000000000000000000000000000000000000N 00000000000NCONT   00    00000000000          00000000000000000000000000000000000000000000 000000000000000A000000000000000000000000000000000000000000000 000000000000000000000000000000000000000     00000000                                                                                                                        000000000000000000
F0010000007856600005000090019362000013552100000000000000000201511060002001GENERAL SUPPLIES CIA LTDA                         D000000000060400000000000000000000100010010000000000000000000000F0010000007856600520151106000101 00000000000000000000000000000000000000000000000000000000000000000000000000000000000000000000000000000000000000000N 00000000000NCONT   00    00000000000          00000000000000000000000000000000000000000000 000000000000000A000000000000000000000000000000000000000000000 000000000000000000000000000000000000000     00000000                                                                                                                        000000000000000000
F0010000007856700001000080000083500013050500000000000000000201511060002001ALIPAR Y CIA LTDA                                 D000000019420000000000000000000000100010010000000000000000000000F0010000007856700120151106000101 00000000000000000000000000000000000000000000000000000000000000000000000000000000000000000000000000000000000000000N 00000000000NCONT   00    00000000000          00000000000000000000000000000000000000000000 000000000000000A000000000000000000000000000000000000000000000 000000000000000000000000000000000000000     00000000                                                                                                                        000000000000000000
F0010000007856700002000080000083500041450500000000000000000201511060002001ALIPAR Y CIA LTDA                                 C000000016000000000000000000000000100010010000000000000000000000F0010000007856700220151106000101 00000000000000000000000000000000000000000000000000000000000000000000000000000000000000000000000000000000000000000N 00000000000NCONT   00    00000000000          00000000000000000000000000000000000000000000 000000000000000A000000000000000000000000000000000000000000000 000000000000000000000000000000000000000     00000000                                                                                                                        000000000000000000
F0010000007856700003000080000083500042505000000000000000000201511060002001ALIPAR Y CIA LTDA                                 C000000003420000000000000000000000100010010000000000000000000000F0010000007856700320151106000101 00000000000000000000000000000000000000000000000000000000000000000000000000000000000000000000000000000000000000000N 00000000000NCONT   00    00000000000          00000000000000000000000000000000000000000000 000000000000000A000000000000000000000000000000000000000000000 000000000000000000000000000000000000000     00000000                                                                                                                        000000000000000000
F0010000007856700004000080000083500023658300000000000000000201511060002001ALIPAR Y CIA LTDA                                 C000000000128000000000000000000000100010010000000000000000000000F0010000007856700420151106000101 00000000000000000000000000000000000000000000000000000000000000000000000000000000000000000000000000000000000000000N 00000000000NCONT   00    00000000000          00000000000000000000000000000000000000000000 000000000000000A000000000000000000000000000000000000000000000 000000000000000000000000000000000000000     00000000                                                                                                                        000000000000000000
F0010000007856700005000080000083500013552100000000000000000201511060002001ALIPAR Y CIA LTDA                                 D000000000128000000000000000000000100010010000000000000000000000F0010000007856700520151106000101 00000000000000000000000000000000000000000000000000000000000000000000000000000000000000000000000000000000000000000N 00000000000NCONT   00    00000000000          00000000000000000000000000000000000000000000 000000000000000A000000000000000000000000000000000000000000000 000000000000000000000000000000000000000     00000000                                                                                                                        000000000000000000
F0010000007856800001000001022529300013050500000000000000000201511060002001ALBERTO ALVAREZ ISAZA                             D000000006860700000000000000000000100010010000000000000000000000F0010000007856800120151106000101 00000000000000000000000000000000000000000000000000000000000000000000000000000000000000000000000000000000000000000N 00000000000NCONT   00    00000000000          00000000000000000000000000000000000000000000 000000000000000A000000000000000000000000000000000000000000000 000000000000000000000000000000000000000     00000000                                                                                                                        000000000000000000
F0010000007856800002000001022529300041450500000000000000000201511060002001ALBERTO ALVAREZ ISAZA                             C000000006430000000000000000000000100010010000000000000000000000F0010000007856800220151106000101 00000000000000000000000000000000000000000000000000000000000000000000000000000000000000000000000000000000000000000N 00000000000NCONT   00    00000000000          00000000000000000000000000000000000000000000 000000000000000A000000000000000000000000000000000000000000000 000000000000000000000000000000000000000     00000000                                                                                                                        000000000000000000
F0010000007856800003000001022529300042505000000000000000000201511060002001ALBERTO ALVAREZ ISAZA                             C000000000430700000000000000000000100010010000000000000000000000F0010000007856800320151106000101 00000000000000000000000000000000000000000000000000000000000000000000000000000000000000000000000000000000000000000N 00000000000NCONT   00    00000000000          00000000000000000000000000000000000000000000 000000000000000A000000000000000000000000000000000000000000000 000000000000000000000000000000000000000     00000000                                                                                                                        000000000000000000
F0010000007856800004000001022529300023658300000000000000000201511060002001ALBERTO ALVAREZ ISAZA                             C000000000051400000000000000000000100010010000000000000000000000F0010000007856800420151106000101 00000000000000000000000000000000000000000000000000000000000000000000000000000000000000000000000000000000000000000N 00000000000NCONT   00    00000000000          00000000000000000000000000000000000000000000 000000000000000A000000000000000000000000000000000000000000000 000000000000000000000000000000000000000     00000000                                                                                                                        000000000000000000
F0010000007856800005000001022529300013552100000000000000000201511060002001ALBERTO ALVAREZ ISAZA                             D000000000051400000000000000000000100010010000000000000000000000F0010000007856800520151106000101 00000000000000000000000000000000000000000000000000000000000000000000000000000000000000000000000000000000000000000N 00000000000NCONT   00    00000000000          00000000000000000000000000000000000000000000 000000000000000A000000000000000000000000000000000000000000000 000000000000000000000000000000000000000     00000000                                                                                                                        000000000000000000
F0010000007856900001000000431178400013050500000000000000000201511060002001EFRAIN ALVAREZ                                    D000000008800000000000000000000000100010010000000000000000000000F0010000007856900120151106000101 00000000000000000000000000000000000000000000000000000000000000000000000000000000000000000000000000000000000000000N 00000000000NCONT   00    00000000000          00000000000000000000000000000000000000000000 000000000000000A000000000000000000000000000000000000000000000 000000000000000000000000000000000000000     00000000                                                                                                                        000000000000000000
F0010000007856900002000000431178400041450500000000000000000201511060002001EFRAIN ALVAREZ                                    C000000007950000000000000000000000100010010000000000000000000000F0010000007856900220151106000101 00000000000000000000000000000000000000000000000000000000000000000000000000000000000000000000000000000000000000000N 00000000000NCONT   00    00000000000          00000000000000000000000000000000000000000000 000000000000000A000000000000000000000000000000000000000000000 000000000000000000000000000000000000000     00000000                                                                                                                        000000000000000000
F0010000007856900003000000431178400042505000000000000000000201511060002001EFRAIN ALVAREZ                                    C000000000850000000000000000000000100010010000000000000000000000F0010000007856900320151106000101 00000000000000000000000000000000000000000000000000000000000000000000000000000000000000000000000000000000000000000N 00000000000NCONT   00    00000000000          00000000000000000000000000000000000000000000 000000000000000A000000000000000000000000000000000000000000000 000000000000000000000000000000000000000     00000000                                                                                                                        000000000000000000
F0010000007856900004000000431178400023658300000000000000000201511060002001EFRAIN ALVAREZ                                    C000000000063600000000000000000000100010010000000000000000000000F0010000007856900420151106000101 00000000000000000000000000000000000000000000000000000000000000000000000000000000000000000000000000000000000000000N 00000000000NCONT   00    00000000000          00000000000000000000000000000000000000000000 000000000000000A000000000000000000000000000000000000000000000 000000000000000000000000000000000000000     00000000                                                                                                                        000000000000000000
F0010000007856900005000000431178400013552100000000000000000201511060002001EFRAIN ALVAREZ                                    D000000000063600000000000000000000100010010000000000000000000000F0010000007856900520151106000101 00000000000000000000000000000000000000000000000000000000000000000000000000000000000000000000000000000000000000000N 00000000000NCONT   00    00000000000          00000000000000000000000000000000000000000000 000000000000000A000000000000000000000000000000000000000000000 000000000000000000000000000000000000000     00000000                                                                                                                        000000000000000000
F0010000007857000001000007215896800013050500000000000000000201511060002001EDDIER CIRO                                       D000000023260800000000000000000000100010010000000000000000000000F0010000007857000120151106000101 00000000000000000000000000000000000000000000000000000000000000000000000000000000000000000000000000000000000000000N 00000000000NCONT   00    00000000000          00000000000000000000000000000000000000000000 000000000000000A000000000000000000000000000000000000000000000 000000000000000000000000000000000000000     00000000                                                                                                                        000000000000000000
F0010000007857000002000007215896800041450500000000000000000201511060002001EDDIER CIRO                                       C000000016560000000000000000000000100010010000000000000000000000F0010000007857000220151106000101 00000000000000000000000000000000000000000000000000000000000000000000000000000000000000000000000000000000000000000N 00000000000NCONT   00    00000000000          00000000000000000000000000000000000000000000 000000000000000A000000000000000000000000000000000000000000000 000000000000000000000000000000000000000     00000000                                                                                                                        000000000000000000
F0010000007857000003000007215896800042505000000000000000000201511060002001EDDIER CIRO                                       C000000006700800000000000000000000100010010000000000000000000000F0010000007857000320151106000101 00000000000000000000000000000000000000000000000000000000000000000000000000000000000000000000000000000000000000000N 00000000000NCONT   00    00000000000          00000000000000000000000000000000000000000000 000000000000000A000000000000000000000000000000000000000000000 000000000000000000000000000000000000000     00000000                                                                                                                        000000000000000000
F0010000007857000004000007215896800023658300000000000000000201511060002001EDDIER CIRO                                       C000000000132500000000000000000000100010010000000000000000000000F0010000007857000420151106000101 00000000000000000000000000000000000000000000000000000000000000000000000000000000000000000000000000000000000000000N 00000000000NCONT   00    00000000000          00000000000000000000000000000000000000000000 000000000000000A000000000000000000000000000000000000000000000 000000000000000000000000000000000000000     00000000                                                                                                                        000000000000000000
F0010000007857000005000007215896800013552100000000000000000201511060002001EDDIER CIRO                                       D000000000132500000000000000000000100010010000000000000000000000F0010000007857000520151106000101 00000000000000000000000000000000000000000000000000000000000000000000000000000000000000000000000000000000000000000N 00000000000NCONT   00    00000000000          00000000000000000000000000000000000000000000 000000000000000A000000000000000000000000000000000000000000000 000000000000000000000000000000000000000     00000000                                                                                                                        000000000000000000
F0010000007857100001000089030195100013050500000000000000000201511060002001LIBRERIA NACIONAL S.A.                            D000000038590000000000000000000000100010010000000000000000000000F0010000007857100120151106000101 00000000000000000000000000000000000000000000000000000000000000000000000000000000000000000000000000000000000000000N 00000000000NCONT   00    00000000000          00000000000000000000000000000000000000000000 000000000000000A000000000000000000000000000000000000000000000 000000000000000000000000000000000000000     00000000                                                                                                                        000000000000000000
F0010000007857100002000089030195100041450500000000000000000201511060002001LIBRERIA NACIONAL S.A.                            C000000030990000000000000000000000100010010000000000000000000000F0010000007857100220151106000101 00000000000000000000000000000000000000000000000000000000000000000000000000000000000000000000000000000000000000000N 00000000000NCONT   00    00000000000          00000000000000000000000000000000000000000000 000000000000000A000000000000000000000000000000000000000000000 000000000000000000000000000000000000000     00000000                                                                                                                        000000000000000000
F0010000007857100003000089030195100042505000000000000000000201511060002001LIBRERIA NACIONAL S.A.                            C000000007600000000000000000000000100010010000000000000000000000F0010000007857100320151106000101 00000000000000000000000000000000000000000000000000000000000000000000000000000000000000000000000000000000000000000N 00000000000NCONT   00    00000000000          00000000000000000000000000000000000000000000 000000000000000A000000000000000000000000000000000000000000000 000000000000000000000000000000000000000     00000000                                                                                                                        000000000000000000
F0010000007857100004000089030195100023658300000000000000000201511060002001LIBRERIA NACIONAL S.A.                            C000000000247900000000000000000000100010010000000000000000000000F0010000007857100420151106000101 00000000000000000000000000000000000000000000000000000000000000000000000000000000000000000000000000000000000000000N 00000000000NCONT   00    00000000000          00000000000000000000000000000000000000000000 000000000000000A000000000000000000000000000000000000000000000 000000000000000000000000000000000000000     00000000                                                                                                                        000000000000000000
F0010000007857100005000089030195100013552100000000000000000201511060002001LIBRERIA NACIONAL S.A.                            D000000000247900000000000000000000100010010000000000000000000000F0010000007857100520151106000101 00000000000000000000000000000000000000000000000000000000000000000000000000000000000000000000000000000000000000000N 00000000000NCONT   00    00000000000          00000000000000000000000000000000000000000000 000000000000000A000000000000000000000000000000000000000000000 000000000000000000000000000000000000000     00000000                                                                                                                        000000000000000000
F0010000007857200001000090053611800013050500000000000000000201511060002001PELETERIA COSTA CARIBE S.A .S                     D000000045621600000000000000000000100010010000000000000000000000F0010000007857200120151106000101 00000000000000000000000000000000000000000000000000000000000000000000000000000000000000000000000000000000000000000N 00000000000NCONT   00    00000000000          00000000000000000000000000000000000000000000 000000000000000A000000000000000000000000000000000000000000000 000000000000000000000000000000000000000     00000000                                                                                                                        000000000000000000
F0010000007857200002000090053611800041450500000000000000000201511060002001PELETERIA COSTA CARIBE S.A .S                     C000000035954600000000000000000000100010010000000000000000000000F0010000007857200220151106000101 00000000000000000000000000000000000000000000000000000000000000000000000000000000000000000000000000000000000000000N 00000000000NCONT   00    00000000000          00000000000000000000000000000000000000000000 000000000000000A000000000000000000000000000000000000000000000 000000000000000000000000000000000000000     00000000                                                                                                                        000000000000000000
F0010000007857200003000090053611800042505000000000000000000201511060002001PELETERIA COSTA CARIBE S.A .S                     C000000009667000000000000000000000100010010000000000000000000000F0010000007857200320151106000101 00000000000000000000000000000000000000000000000000000000000000000000000000000000000000000000000000000000000000000N 00000000000NCONT   00    00000000000          00000000000000000000000000000000000000000000 000000000000000A000000000000000000000000000000000000000000000 000000000000000000000000000000000000000     00000000                                                                                                                        000000000000000000
F0010000007857200004000090053611800023658300000000000000000201511060002001PELETERIA COSTA CARIBE S.A .S                     C000000000287600000000000000000000100010010000000000000000000000F0010000007857200420151106000101 00000000000000000000000000000000000000000000000000000000000000000000000000000000000000000000000000000000000000000N 00000000000NCONT   00    00000000000          00000000000000000000000000000000000000000000 000000000000000A000000000000000000000000000000000000000000000 000000000000000000000000000000000000000     00000000                                                                                                                        000000000000000000
F0010000007857200005000090053611800013552100000000000000000201511060002001PELETERIA COSTA CARIBE S.A .S                     D000000000287600000000000000000000100010010000000000000000000000F0010000007857200520151106000101 00000000000000000000000000000000000000000000000000000000000000000000000000000000000000000000000000000000000000000N 00000000000NCONT   00    00000000000          00000000000000000000000000000000000000000000 000000000000000A000000000000000000000000000000000000000000000 000000000000000000000000000000000000000     00000000                                                                                                                        000000000000000000
F0010000007857300001000080010983700013050500000000000000000201511060002001OHM LTDA                                          D000000010420000000000000000000000100010010000000000000000000000F0010000007857300120151106000101 00000000000000000000000000000000000000000000000000000000000000000000000000000000000000000000000000000000000000000N 00000000000NCONT   00    00000000000          00000000000000000000000000000000000000000000 000000000000000A000000000000000000000000000000000000000000000 000000000000000000000000000000000000000     00000000                                                                                                                        000000000000000000
F0010000007857300002000080010983700041450500000000000000000201511060002001OHM LTDA                                          C000000010270000000000000000000000100010010000000000000000000000F0010000007857300220151106000101 00000000000000000000000000000000000000000000000000000000000000000000000000000000000000000000000000000000000000000N 00000000000NCONT   00    00000000000          00000000000000000000000000000000000000000000 000000000000000A000000000000000000000000000000000000000000000 000000000000000000000000000000000000000     00000000                                                                                                                        000000000000000000
F0010000007857300003000080010983700042505000000000000000000201511060002001OHM LTDA                                          C000000000150000000000000000000000100010010000000000000000000000F0010000007857300320151106000101 00000000000000000000000000000000000000000000000000000000000000000000000000000000000000000000000000000000000000000N 00000000000NCONT   00    00000000000          00000000000000000000000000000000000000000000 000000000000000A000000000000000000000000000000000000000000000 000000000000000000000000000000000000000     00000000                                                                                                                        000000000000000000
F0010000007857300004000080010983700023658300000000000000000201511060002001OHM LTDA                                          C000000000082200000000000000000000100010010000000000000000000000F0010000007857300420151106000101 00000000000000000000000000000000000000000000000000000000000000000000000000000000000000000000000000000000000000000N 00000000000NCONT   00    00000000000          00000000000000000000000000000000000000000000 000000000000000A000000000000000000000000000000000000000000000 000000000000000000000000000000000000000     00000000                                                                                                                        000000000000000000
F0010000007857300005000080010983700013552100000000000000000201511060002001OHM LTDA                                          D000000000082200000000000000000000100010010000000000000000000000F0010000007857300520151106000101 00000000000000000000000000000000000000000000000000000000000000000000000000000000000000000000000000000000000000000N 00000000000NCONT   00    00000000000          00000000000000000000000000000000000000000000 000000000000000A000000000000000000000000000000000000000000000 000000000000000000000000000000000000000     00000000                                                                                                                        000000000000000000
F0010000007857400001000089010952800013050500000000000000000201511060002001IND. LITOGRAF. BOSTON S.A.S.                      D000000032550000000000000000000000100010010000000000000000000000F0010000007857400120151106000101 00000000000000000000000000000000000000000000000000000000000000000000000000000000000000000000000000000000000000000N 00000000000NCONT   00    00000000000          00000000000000000000000000000000000000000000 000000000000000A000000000000000000000000000000000000000000000 000000000000000000000000000000000000000     00000000                                                                                                                        000000000000000000
F0010000007857400002000089010952800041450500000000000000000201511060002001IND. LITOGRAF. BOSTON S.A.S.                      C000000029600000000000000000000000100010010000000000000000000000F0010000007857400220151106000101 00000000000000000000000000000000000000000000000000000000000000000000000000000000000000000000000000000000000000000N 00000000000NCONT   00    00000000000          00000000000000000000000000000000000000000000 000000000000000A000000000000000000000000000000000000000000000 000000000000000000000000000000000000000     00000000                                                                                                                        000000000000000000
F0010000007857400003000089010952800042505000000000000000000201511060002001IND. LITOGRAF. BOSTON S.A.S.                      C000000002950000000000000000000000100010010000000000000000000000F0010000007857400320151106000101 00000000000000000000000000000000000000000000000000000000000000000000000000000000000000000000000000000000000000000N 00000000000NCONT   00    00000000000          00000000000000000000000000000000000000000000 000000000000000A000000000000000000000000000000000000000000000 000000000000000000000000000000000000000     00000000                                                                                                                        000000000000000000
F0010000007857400004000089010952800023658300000000000000000201511060002001IND. LITOGRAF. BOSTON S.A.S.                      C000000000236800000000000000000000100010010000000000000000000000F0010000007857400420151106000101 00000000000000000000000000000000000000000000000000000000000000000000000000000000000000000000000000000000000000000N 00000000000NCONT   00    00000000000          00000000000000000000000000000000000000000000 000000000000000A000000000000000000000000000000000000000000000 000000000000000000000000000000000000000     00000000                                                                                                                        000000000000000000
F0010000007857400005000089010952800013552100000000000000000201511060002001IND. LITOGRAF. BOSTON S.A.S.                      D000000000236800000000000000000000100010010000000000000000000000F0010000007857400520151106000101 00000000000000000000000000000000000000000000000000000000000000000000000000000000000000000000000000000000000000000N 00000000000NCONT   00    00000000000          00000000000000000000000000000000000000000000 000000000000000A000000000000000000000000000000000000000000000 000000000000000000000000000000000000000     00000000                                                                                                                        000000000000000000
F0010000007857500001000080202132300013050500000000000000000201511060002001SUM Y SERV DE LA COSTA LTDA                       D000000013980000000000000000000000100010010000000000000000000000F0010000007857500120151106000101 00000000000000000000000000000000000000000000000000000000000000000000000000000000000000000000000000000000000000000N 00000000000NCONT   00    00000000000          00000000000000000000000000000000000000000000 000000000000000A000000000000000000000000000000000000000000000 000000000000000000000000000000000000000     00000000                                                                                                                        000000000000000000
F0010000007857500002000080202132300041450500000000000000000201511060002001SUM Y SERV DE LA COSTA LTDA                       C000000013180000000000000000000000100010010000000000000000000000F0010000007857500220151106000101 00000000000000000000000000000000000000000000000000000000000000000000000000000000000000000000000000000000000000000N 00000000000NCONT   00    00000000000          00000000000000000000000000000000000000000000 000000000000000A000000000000000000000000000000000000000000000 000000000000000000000000000000000000000     00000000                                                                                                                        000000000000000000
F0010000007857500003000080202132300042505000000000000000000201511060002001SUM Y SERV DE LA COSTA LTDA                       C000000000800000000000000000000000100010010000000000000000000000F0010000007857500320151106000101 00000000000000000000000000000000000000000000000000000000000000000000000000000000000000000000000000000000000000000N 00000000000NCONT   00    00000000000          00000000000000000000000000000000000000000000 000000000000000A000000000000000000000000000000000000000000000 000000000000000000000000000000000000000     00000000                                                                                                                        000000000000000000
F0010000007857500004000080202132300023658300000000000000000201511060002001SUM Y SERV DE LA COSTA LTDA                       C000000000105400000000000000000000100010010000000000000000000000F0010000007857500420151106000101 00000000000000000000000000000000000000000000000000000000000000000000000000000000000000000000000000000000000000000N 00000000000NCONT   00    00000000000          00000000000000000000000000000000000000000000 000000000000000A000000000000000000000000000000000000000000000 000000000000000000000000000000000000000     00000000                                                                                                                        000000000000000000
F0010000007857500005000080202132300013552100000000000000000201511060002001SUM Y SERV DE LA COSTA LTDA                       D000000000105400000000000000000000100010010000000000000000000000F0010000007857500520151106000101 00000000000000000000000000000000000000000000000000000000000000000000000000000000000000000000000000000000000000000N 00000000000NCONT   00    00000000000          00000000000000000000000000000000000000000000 000000000000000A000000000000000000000000000000000000000000000 000000000000000000000000000000000000000     00000000                                                                                                                        000000000000000000
F0010000007857600001000008020212000013050500000000000000000201511060002001COMUNICACIONES MOVILES S.A.                       D000000070000000000000000000000000100010010000000000000000000000F0010000007857600120151106000101 00000000000000000000000000000000000000000000000000000000000000000000000000000000000000000000000000000000000000000N 00000000000NCONT   00    00000000000          00000000000000000000000000000000000000000000 000000000000000A000000000000000000000000000000000000000000000 000000000000000000000000000000000000000     00000000                                                                                                                        000000000000000000
F0010000007857600002000008020212000041450500000000000000000201511060002001COMUNICACIONES MOVILES S.A.                       C000000069500000000000000000000000100010010000000000000000000000F0010000007857600220151106000101 00000000000000000000000000000000000000000000000000000000000000000000000000000000000000000000000000000000000000000N 00000000000NCONT   00    00000000000          00000000000000000000000000000000000000000000 000000000000000A000000000000000000000000000000000000000000000 000000000000000000000000000000000000000     00000000                                                                                                                        000000000000000000
F0010000007857600003000008020212000042505000000000000000000201511060002001COMUNICACIONES MOVILES S.A.                       C000000000500000000000000000000000100010010000000000000000000000F0010000007857600320151106000101 00000000000000000000000000000000000000000000000000000000000000000000000000000000000000000000000000000000000000000N 00000000000NCONT   00    00000000000          00000000000000000000000000000000000000000000 000000000000000A000000000000000000000000000000000000000000000 000000000000000000000000000000000000000     00000000                                                                                                                        000000000000000000
F0010000007857600004000008020212000023658300000000000000000201511060002001COMUNICACIONES MOVILES S.A.                       C000000000556000000000000000000000100010010000000000000000000000F0010000007857600420151106000101 00000000000000000000000000000000000000000000000000000000000000000000000000000000000000000000000000000000000000000N 00000000000NCONT   00    00000000000          00000000000000000000000000000000000000000000 000000000000000A000000000000000000000000000000000000000000000 000000000000000000000000000000000000000     00000000                                                                                                                        000000000000000000
F0010000007857600005000008020212000013552100000000000000000201511060002001COMUNICACIONES MOVILES S.A.                       D000000000556000000000000000000000100010010000000000000000000000F0010000007857600520151106000101 00000000000000000000000000000000000000000000000000000000000000000000000000000000000000000000000000000000000000000N 00000000000NCONT   00    00000000000          00000000000000000000000000000000000000000000 000000000000000A000000000000000000000000000000000000000000000 000000000000000000000000000000000000000     00000000                                                                                                                        000000000000000000
F0010000007857700001000000870907300013050500000000000000000201511060002001SURTIDOR FERRETERO                                D000000078062000000000000000000000100010010000000000000000000000F0010000007857700120151106000101 00000000000000000000000000000000000000000000000000000000000000000000000000000000000000000000000000000000000000000N 00000000000NCONT   00    00000000000          00000000000000000000000000000000000000000000 000000000000000A000000000000000000000000000000000000000000000 000000000000000000000000000000000000000     00000000                                                                                                                        000000000000000000
F0010000007857700002000000870907300041450500000000000000000201511060002001SURTIDOR FERRETERO                                C000000066250000000000000000000000100010010000000000000000000000F0010000007857700220151106000101 00000000000000000000000000000000000000000000000000000000000000000000000000000000000000000000000000000000000000000N 00000000000NCONT   00    00000000000          00000000000000000000000000000000000000000000 000000000000000A000000000000000000000000000000000000000000000 000000000000000000000000000000000000000     00000000                                                                                                                        000000000000000000
F0010000007857700003000000870907300041750100000000000000000201511060002001SURTIDOR FERRETERO                                D000000006625000000000000000000000100010010000000000000000000000F0010000007857700320151106000101 00000000000000000000000000000000000000000000000000000000000000000000000000000000000000000000000000000000000000000N 00000000000NCONT   00    00000000000          00000000000000000000000000000000000000000000 000000000000000A000000000000000000000000000000000000000000000 000000000000000000000000000000000000000     00000000                                                                                                                        000000000000000000
F0010000007857700004000000870907300042505000000000000000000201511060002001SURTIDOR FERRETERO                                C000000018437000000000000000000000100010010000000000000000000000F0010000007857700420151106000101 00000000000000000000000000000000000000000000000000000000000000000000000000000000000000000000000000000000000000000N 00000000000NCONT   00    00000000000          00000000000000000000000000000000000000000000 000000000000000A000000000000000000000000000000000000000000000 000000000000000000000000000000000000000     00000000                                                                                                                        000000000000000000
F0010000007857700005000000870907300023658300000000000000000201511060002001SURTIDOR FERRETERO                                C000000000530000000000000000000000100010010000000000000000000000F0010000007857700520151106000101 00000000000000000000000000000000000000000000000000000000000000000000000000000000000000000000000000000000000000000N 00000000000NCONT   00    00000000000          00000000000000000000000000000000000000000000 000000000000000A000000000000000000000000000000000000000000000 000000000000000000000000000000000000000     00000000                                                                                                                        000000000000000000
F0010000007857700006000000870907300013552100000000000000000201511060002001SURTIDOR FERRETERO                                D000000000530000000000000000000000100010010000000000000000000000F0010000007857700620151106000101 00000000000000000000000000000000000000000000000000000000000000000000000000000000000000000000000000000000000000000N 00000000000NCONT   00    00000000000          00000000000000000000000000000000000000000000 000000000000000A000000000000000000000000000000000000000000000 000000000000000000000000000000000000000     00000000                                                                                                                        000000000000000000
F0010000007857800001000089010272700013050500000000000000000201511060002001ALFONSOEME S.A.                                   D000000028885200000000000000000000100010010000000000000000000000F0010000007857800120151106000101 00000000000000000000000000000000000000000000000000000000000000000000000000000000000000000000000000000000000000000N 00000000000NCONT   00    00000000000          00000000000000000000000000000000000000000000 000000000000000A000000000000000000000000000000000000000000000 000000000000000000000000000000000000000     00000000                                                                                                                        000000000000000000
F0010000007857800002000089010272700041450500000000000000000201511060002001ALFONSOEME S.A.                                   C000000028983600000000000000000000100010010000000000000000000000F0010000007857800220151106000101 00000000000000000000000000000000000000000000000000000000000000000000000000000000000000000000000000000000000000000N 00000000000NCONT   00    00000000000          00000000000000000000000000000000000000000000 000000000000000A000000000000000000000000000000000000000000000 000000000000000000000000000000000000000     00000000                                                                                                                        000000000000000000
F0010000007857800003000089010272700041750100000000000000000201511060002001ALFONSOEME S.A.                                   D000000002898400000000000000000000100010010000000000000000000000F0010000007857800320151106000101 00000000000000000000000000000000000000000000000000000000000000000000000000000000000000000000000000000000000000000N 00000000000NCONT   00    00000000000          00000000000000000000000000000000000000000000 000000000000000A000000000000000000000000000000000000000000000 000000000000000000000000000000000000000     00000000                                                                                                                        000000000000000000
F0010000007857800004000089010272700042505000000000000000000201511060002001ALFONSOEME S.A.                                   C000000002800000000000000000000000100010010000000000000000000000F0010000007857800420151106000101 00000000000000000000000000000000000000000000000000000000000000000000000000000000000000000000000000000000000000000N 00000000000NCONT   00    00000000000          00000000000000000000000000000000000000000000 000000000000000A000000000000000000000000000000000000000000000 000000000000000000000000000000000000000     00000000                                                                                                                        000000000000000000
F0010000007857800005000089010272700023658300000000000000000201511060002001ALFONSOEME S.A.                                   C000000000231900000000000000000000100010010000000000000000000000F0010000007857800520151106000101 00000000000000000000000000000000000000000000000000000000000000000000000000000000000000000000000000000000000000000N 00000000000NCONT   00    00000000000          00000000000000000000000000000000000000000000 000000000000000A000000000000000000000000000000000000000000000 000000000000000000000000000000000000000     00000000                                                                                                                        000000000000000000
F0010000007857800006000089010272700013552100000000000000000201511060002001ALFONSOEME S.A.                                   D000000000231900000000000000000000100010010000000000000000000000F0010000007857800620151106000101 00000000000000000000000000000000000000000000000000000000000000000000000000000000000000000000000000000000000000000N 00000000000NCONT   00    00000000000          00000000000000000000000000000000000000000000 000000000000000A000000000000000000000000000000000000000000000 000000000000000000000000000000000000000     00000000                                                                                                                        000000000000000000
F0010000007857900001000089010272700013050500000000000000000201511060002001ALFONSOEME S.A.                                   D000000009654000000000000000000000100010010000000000000000000000F0010000007857900120151106000101 00000000000000000000000000000000000000000000000000000000000000000000000000000000000000000000000000000000000000000N 00000000000NCONT   00    00000000000          00000000000000000000000000000000000000000000 000000000000000A000000000000000000000000000000000000000000000 000000000000000000000000000000000000000     00000000                                                                                                                        000000000000000000
F0010000007857900002000089010272700041450500000000000000000201511060002001ALFONSOEME S.A.                                   C000000009660000000000000000000000100010010000000000000000000000F0010000007857900220151106000101 00000000000000000000000000000000000000000000000000000000000000000000000000000000000000000000000000000000000000000N 00000000000NCONT   00    00000000000          00000000000000000000000000000000000000000000 000000000000000A000000000000000000000000000000000000000000000 000000000000000000000000000000000000000     00000000                                                                                                                        000000000000000000
F0010000007857900003000089010272700041750100000000000000000201511060002001ALFONSOEME S.A.                                   D000000000966000000000000000000000100010010000000000000000000000F0010000007857900320151106000101 00000000000000000000000000000000000000000000000000000000000000000000000000000000000000000000000000000000000000000N 00000000000NCONT   00    00000000000          00000000000000000000000000000000000000000000 000000000000000A000000000000000000000000000000000000000000000 000000000000000000000000000000000000000     00000000                                                                                                                        000000000000000000
F0010000007857900004000089010272700042505000000000000000000201511060002001ALFONSOEME S.A.                                   C000000000960000000000000000000000100010010000000000000000000000F0010000007857900420151106000101 00000000000000000000000000000000000000000000000000000000000000000000000000000000000000000000000000000000000000000N 00000000000NCONT   00    00000000000          00000000000000000000000000000000000000000000 000000000000000A000000000000000000000000000000000000000000000 000000000000000000000000000000000000000     00000000                                                                                                                        000000000000000000
F0010000007857900005000089010272700023658300000000000000000201511060002001ALFONSOEME S.A.                                   C000000000077300000000000000000000100010010000000000000000000000F0010000007857900520151106000101 00000000000000000000000000000000000000000000000000000000000000000000000000000000000000000000000000000000000000000N 00000000000NCONT   00    00000000000          00000000000000000000000000000000000000000000 000000000000000A000000000000000000000000000000000000000000000 000000000000000000000000000000000000000     00000000                                                                                                                        000000000000000000
F0010000007857900006000089010272700013552100000000000000000201511060002001ALFONSOEME S.A.                                   D000000000077300000000000000000000100010010000000000000000000000F0010000007857900620151106000101 00000000000000000000000000000000000000000000000000000000000000000000000000000000000000000000000000000000000000000N 00000000000NCONT   00    00000000000          00000000000000000000000000000000000000000000 000000000000000A000000000000000000000000000000000000000000000 000000000000000000000000000000000000000     00000000                                                                                                                        000000000000000000
F0010000007858000001000081102758700013050500000000000000000201511060002001C.I. ABRACOL S.A EMA                              D000000077564600000000000000000000100010010000000000000000000000F0010000007858000120151106000101 00000000000000000000000000000000000000000000000000000000000000000000000000000000000000000000000000000000000000000N 00000000000NCONT   00    00000000000          00000000000000000000000000000000000000000000 000000000000000A000000000000000000000000000000000000000000000 000000000000000000000000000000000000000     00000000                                                                                                                        000000000000000000
F0010000007858000002000081102758700041450500000000000000000201511060002001C.I. ABRACOL S.A EMA                              C000000050490000000000000000000000100010010000000000000000000000F0010000007858000220151106000101 00000000000000000000000000000000000000000000000000000000000000000000000000000000000000000000000000000000000000000N 00000000000NCONT   00    00000000000          00000000000000000000000000000000000000000000 000000000000000A000000000000000000000000000000000000000000000 000000000000000000000000000000000000000     00000000                                                                                                                        000000000000000000
F0010000007858000003000081102758700041750100000000000000000201511060002001C.I. ABRACOL S.A EMA                              D000000001514700000000000000000000100010010000000000000000000000F0010000007858000320151106000101 00000000000000000000000000000000000000000000000000000000000000000000000000000000000000000000000000000000000000000N 00000000000NCONT   00    00000000000          00000000000000000000000000000000000000000000 000000000000000A000000000000000000000000000000000000000000000 000000000000000000000000000000000000000     00000000                                                                                                                        000000000000000000
F0010000007858000004000081102758700042505000000000000000000201511060002001C.I. ABRACOL S.A EMA                              C000000028589300000000000000000000100010010000000000000000000000F0010000007858000420151106000101 00000000000000000000000000000000000000000000000000000000000000000000000000000000000000000000000000000000000000000N 00000000000NCONT   00    00000000000          00000000000000000000000000000000000000000000 000000000000000A000000000000000000000000000000000000000000000 000000000000000000000000000000000000000     00000000                                                                                                                        000000000000000000
F0010000007858000005000081102758700023658300000000000000000201511060002001C.I. ABRACOL S.A EMA                              C000000000403900000000000000000000100010010000000000000000000000F0010000007858000520151106000101 00000000000000000000000000000000000000000000000000000000000000000000000000000000000000000000000000000000000000000N 00000000000NCONT   00    00000000000          00000000000000000000000000000000000000000000 000000000000000A000000000000000000000000000000000000000000000 000000000000000000000000000000000000000     00000000                                                                                                                        000000000000000000
F0010000007858000006000081102758700013552100000000000000000201511060002001C.I. ABRACOL S.A EMA                              D000000000403900000000000000000000100010010000000000000000000000F0010000007858000620151106000101 00000000000000000000000000000000000000000000000000000000000000000000000000000000000000000000000000000000000000000N 00000000000NCONT   00    00000000000          00000000000000000000000000000000000000000000 000000000000000A000000000000000000000000000000000000000000000 000000000000000000000000000000000000000     00000000                                                                                                                        000000000000000000
F0010000007858100001000081102758700013050500000000000000000201511060002001C.I. ABRACOL S.A EMA                              D000000054093200000000000000000000100010010000000000000000000000F0010000007858100120151106000101 00000000000000000000000000000000000000000000000000000000000000000000000000000000000000000000000000000000000000000N 00000000000NCONT   00    00000000000          00000000000000000000000000000000000000000000 000000000000000A000000000000000000000000000000000000000000000 000000000000000000000000000000000000000     00000000                                                                                                                        000000000000000000
F0010000007858100002000081102758700041450500000000000000000201511060002001C.I. ABRACOL S.A EMA                              C000000032480000000000000000000000100010010000000000000000000000F0010000007858100220151106000101 00000000000000000000000000000000000000000000000000000000000000000000000000000000000000000000000000000000000000000N 00000000000NCONT   00    00000000000          00000000000000000000000000000000000000000000 000000000000000A000000000000000000000000000000000000000000000 000000000000000000000000000000000000000     00000000                                                                                                                        000000000000000000
F0010000007858100003000081102758700041750100000000000000000201511060002001C.I. ABRACOL S.A EMA                              D000000000974400000000000000000000100010010000000000000000000000F0010000007858100320151106000101 00000000000000000000000000000000000000000000000000000000000000000000000000000000000000000000000000000000000000000N 00000000000NCONT   00    00000000000          00000000000000000000000000000000000000000000 000000000000000A000000000000000000000000000000000000000000000 000000000000000000000000000000000000000     00000000                                                                                                                        000000000000000000
F0010000007858100004000081102758700042505000000000000000000201511060002001C.I. ABRACOL S.A EMA                              C000000022587600000000000000000000100010010000000000000000000000F0010000007858100420151106000101 00000000000000000000000000000000000000000000000000000000000000000000000000000000000000000000000000000000000000000N 00000000000NCONT   00    00000000000          00000000000000000000000000000000000000000000 000000000000000A000000000000000000000000000000000000000000000 000000000000000000000000000000000000000     00000000                                                                                                                        000000000000000000
F0010000007858100005000081102758700023658300000000000000000201511060002001C.I. ABRACOL S.A EMA                              C000000000259800000000000000000000100010010000000000000000000000F0010000007858100520151106000101 00000000000000000000000000000000000000000000000000000000000000000000000000000000000000000000000000000000000000000N 00000000000NCONT   00    00000000000          00000000000000000000000000000000000000000000 000000000000000A000000000000000000000000000000000000000000000 000000000000000000000000000000000000000     00000000                                                                                                                        000000000000000000
F0010000007858100006000081102758700013552100000000000000000201511060002001C.I. ABRACOL S.A EMA                              D000000000259800000000000000000000100010010000000000000000000000F0010000007858100620151106000101 00000000000000000000000000000000000000000000000000000000000000000000000000000000000000000000000000000000000000000N 00000000000NCONT   00    00000000000          00000000000000000000000000000000000000000000 000000000000000A000000000000000000000000000000000000000000000 000000000000000000000000000000000000000     00000000                                                                                                                        000000000000000000
F0010000007858200001000081102758700013050500000000000000000201511060002001C.I. ABRACOL S.A EMA                              D000000038258100000000000000000000100010010000000000000000000000F0010000007858200120151106000101 00000000000000000000000000000000000000000000000000000000000000000000000000000000000000000000000000000000000000000N 00000000000NCONT   00    00000000000          00000000000000000000000000000000000000000000 000000000000000A000000000000000000000000000000000000000000000 000000000000000000000000000000000000000     00000000                                                                                                                        000000000000000000
F0010000007858200002000081102758700041450500000000000000000201511060002001C.I. ABRACOL S.A EMA                              C000000032040000000000000000000000100010010000000000000000000000F0010000007858200220151106000101 00000000000000000000000000000000000000000000000000000000000000000000000000000000000000000000000000000000000000000N 00000000000NCONT   00    00000000000          00000000000000000000000000000000000000000000 000000000000000A000000000000000000000000000000000000000000000 000000000000000000000000000000000000000     00000000                                                                                                                        000000000000000000
F0010000007858200003000081102758700041750100000000000000000201511060002001C.I. ABRACOL S.A EMA                              D000000000961200000000000000000000100010010000000000000000000000F0010000007858200320151106000101 00000000000000000000000000000000000000000000000000000000000000000000000000000000000000000000000000000000000000000N 00000000000NCONT   00    00000000000          00000000000000000000000000000000000000000000 000000000000000A000000000000000000000000000000000000000000000 000000000000000000000000000000000000000     00000000                                                                                                                        000000000000000000
F0010000007858200004000081102758700042505000000000000000000201511060002001C.I. ABRACOL S.A EMA                              C000000007179300000000000000000000100010010000000000000000000000F0010000007858200420151106000101 00000000000000000000000000000000000000000000000000000000000000000000000000000000000000000000000000000000000000000N 00000000000NCONT   00    00000000000          00000000000000000000000000000000000000000000 000000000000000A000000000000000000000000000000000000000000000 000000000000000000000000000000000000000     00000000                                                                                                                        000000000000000000
F0010000007858200005000081102758700023658300000000000000000201511060002001C.I. ABRACOL S.A EMA                              C000000000256300000000000000000000100010010000000000000000000000F0010000007858200520151106000101 00000000000000000000000000000000000000000000000000000000000000000000000000000000000000000000000000000000000000000N 00000000000NCONT   00    00000000000          00000000000000000000000000000000000000000000 000000000000000A000000000000000000000000000000000000000000000 000000000000000000000000000000000000000     00000000                                                                                                                        000000000000000000
F0010000007858200006000081102758700013552100000000000000000201511060002001C.I. ABRACOL S.A EMA                              D000000000256300000000000000000000100010010000000000000000000000F0010000007858200620151106000101 00000000000000000000000000000000000000000000000000000000000000000000000000000000000000000000000000000000000000000N 00000000000NCONT   00    00000000000          00000000000000000000000000000000000000000000 000000000000000A000000000000000000000000000000000000000000000 000000000000000000000000000000000000000     00000000                                                                                                                        000000000000000000
F0010000007858300001000003207718300011050500000000000000000201511060002001MARIA GILMA RAMIREZ GARCIA                        D000000002000000000000000000000000100010010000000000000000000000F0010000007858300120151106000101 00000000000000000000000000000000000000000000000000000000000000000000000000000000000000000000000000000000000000000N 00000000000NCONT   00    00000000000          00000000000000000000000000000000000000000000 000000000000000A000000000000000000000000000000000000000000000 000000000000000000000000000000000000000     00000000                                                                                                                        000000000000000000
F0010000007858300002000003207718300041450500000000000000000201511060002001MARIA GILMA RAMIREZ GARCIA                        C000000001600000000000000000000000100010010000000000000000000000F0010000007858300220151106000101 00000000000000000000000000000000000000000000000000000000000000000000000000000000000000000000000000000000000000000N 00000000000NCONT   00    00000000000          00000000000000000000000000000000000000000000 000000000000000A000000000000000000000000000000000000000000000 000000000000000000000000000000000000000     00000000                                                                                                                        000000000000000000
F0010000007858300003000003207718300042505000000000000000000201511060002001MARIA GILMA RAMIREZ GARCIA                        C000000000400000000000000000000000100010010000000000000000000000F0010000007858300320151106000101 00000000000000000000000000000000000000000000000000000000000000000000000000000000000000000000000000000000000000000N 00000000000NCONT   00    00000000000          00000000000000000000000000000000000000000000 000000000000000A000000000000000000000000000000000000000000000 000000000000000000000000000000000000000     00000000                                                                                                                        000000000000000000
F0010000007858300004000003207718300023658300000000000000000201511060002001MARIA GILMA RAMIREZ GARCIA                        C000000000012800000000000000000000100010010000000000000000000000F0010000007858300420151106000101 00000000000000000000000000000000000000000000000000000000000000000000000000000000000000000000000000000000000000000N 00000000000NCONT   00    00000000000          00000000000000000000000000000000000000000000 000000000000000A000000000000000000000000000000000000000000000 000000000000000000000000000000000000000     00000000                                                                                                                        000000000000000000
F0010000007858300005000003207718300013552100000000000000000201511060002001MARIA GILMA RAMIREZ GARCIA                        D000000000012800000000000000000000100010010000000000000000000000F0010000007858300520151106000101 00000000000000000000000000000000000000000000000000000000000000000000000000000000000000000000000000000000000000000N 00000000000NCONT   00    00000000000          00000000000000000000000000000000000000000000 000000000000000A000000000000000000000000000000000000000000000 000000000000000000000000000000000000000     00000000                                                                                                                        000000000000000000
F0010000007858400001000000866048200011050500000000000000000201511060002001REGINALDO TURIZO                                  D000000004500000000000000000000000100010010000000000000000000000F0010000007858400120151106000101 00000000000000000000000000000000000000000000000000000000000000000000000000000000000000000000000000000000000000000N 00000000000NCONT   00    00000000000          00000000000000000000000000000000000000000000 000000000000000A000000000000000000000000000000000000000000000 000000000000000000000000000000000000000     00000000                                                                                                                        000000000000000000
F0010000007858400002000000866048200041450500000000000000000201511060002001REGINALDO TURIZO                                  C000000003100000000000000000000000100010010000000000000000000000F0010000007858400220151106000101 00000000000000000000000000000000000000000000000000000000000000000000000000000000000000000000000000000000000000000N 00000000000NCONT   00    00000000000          00000000000000000000000000000000000000000000 000000000000000A000000000000000000000000000000000000000000000 000000000000000000000000000000000000000     00000000                                                                                                                        000000000000000000
F0010000007858400003000000866048200042505000000000000000000201511060002001REGINALDO TURIZO                                  C000000001400000000000000000000000100010010000000000000000000000F0010000007858400320151106000101 00000000000000000000000000000000000000000000000000000000000000000000000000000000000000000000000000000000000000000N 00000000000NCONT   00    00000000000          00000000000000000000000000000000000000000000 000000000000000A000000000000000000000000000000000000000000000 000000000000000000000000000000000000000     00000000                                                                                                                        000000000000000000
F0010000007858400004000000866048200023658300000000000000000201511060002001REGINALDO TURIZO                                  C000000000024800000000000000000000100010010000000000000000000000F0010000007858400420151106000101 00000000000000000000000000000000000000000000000000000000000000000000000000000000000000000000000000000000000000000N 00000000000NCONT   00    00000000000          00000000000000000000000000000000000000000000 000000000000000A000000000000000000000000000000000000000000000 000000000000000000000000000000000000000     00000000                                                                                                                        000000000000000000
F0010000007858400005000000866048200013552100000000000000000201511060002001REGINALDO TURIZO                                  D000000000024800000000000000000000100010010000000000000000000000F0010000007858400520151106000101 00000000000000000000000000000000000000000000000000000000000000000000000000000000000000000000000000000000000000000N 00000000000NCONT   00    00000000000          00000000000000000000000000000000000000000000 000000000000000A000000000000000000000000000000000000000000000 000000000000000000000000000000000000000     00000000                                                                                                                        000000000000000000
F0010000007858500001000083008772100011050500000000000000000201511060002001ILUMEC SAS                                        D000000001800000000000000000000000100010010000000000000000000000F0010000007858500120151106000101 00000000000000000000000000000000000000000000000000000000000000000000000000000000000000000000000000000000000000000N 00000000000NCONT   00    00000000000          00000000000000000000000000000000000000000000 000000000000000A000000000000000000000000000000000000000000000 000000000000000000000000000000000000000     00000000                                                                                                                        000000000000000000
F0010000007858500002000083008772100041450500000000000000000201511060002001ILUMEC SAS                                        C000000001000000000000000000000000100010010000000000000000000000F0010000007858500220151106000101 00000000000000000000000000000000000000000000000000000000000000000000000000000000000000000000000000000000000000000N 00000000000NCONT   00    00000000000          00000000000000000000000000000000000000000000 000000000000000A000000000000000000000000000000000000000000000 000000000000000000000000000000000000000     00000000                                                                                                                        000000000000000000
F0010000007858500003000083008772100042505000000000000000000201511060002001ILUMEC SAS                                        C000000000800000000000000000000000100010010000000000000000000000F0010000007858500320151106000101 00000000000000000000000000000000000000000000000000000000000000000000000000000000000000000000000000000000000000000N 00000000000NCONT   00    00000000000          00000000000000000000000000000000000000000000 000000000000000A000000000000000000000000000000000000000000000 000000000000000000000000000000000000000     00000000                                                                                                                        000000000000000000
F0010000007858500004000083008772100023658300000000000000000201511060002001ILUMEC SAS                                        C000000000008000000000000000000000100010010000000000000000000000F0010000007858500420151106000101 00000000000000000000000000000000000000000000000000000000000000000000000000000000000000000000000000000000000000000N 00000000000NCONT   00    00000000000          00000000000000000000000000000000000000000000 000000000000000A000000000000000000000000000000000000000000000 000000000000000000000000000000000000000     00000000                                                                                                                        000000000000000000
F0010000007858500005000083008772100013552100000000000000000201511060002001ILUMEC SAS                                        D000000000008000000000000000000000100010010000000000000000000000F0010000007858500520151106000101 00000000000000000000000000000000000000000000000000000000000000000000000000000000000000000000000000000000000000000N 00000000000NCONT   00    00000000000          00000000000000000000000000000000000000000000 000000000000000A000000000000000000000000000000000000000000000 000000000000000000000000000000000000000     00000000                                                                                                                        000000000000000000
F0010000007858600001000083008772100011050500000000000000000201511060002001ILUMEC SAS                                        D000000001300000000000000000000000100010010000000000000000000000F0010000007858600120151106000101 00000000000000000000000000000000000000000000000000000000000000000000000000000000000000000000000000000000000000000N 00000000000NCONT   00    00000000000          00000000000000000000000000000000000000000000 000000000000000A000000000000000000000000000000000000000000000 000000000000000000000000000000000000000     00000000                                                                                                                        000000000000000000
F0010000007858600002000083008772100041450500000000000000000201511060002001ILUMEC SAS                                        C000000000800000000000000000000000100010010000000000000000000000F0010000007858600220151106000101 00000000000000000000000000000000000000000000000000000000000000000000000000000000000000000000000000000000000000000N 00000000000NCONT   00    00000000000          00000000000000000000000000000000000000000000 000000000000000A000000000000000000000000000000000000000000000 000000000000000000000000000000000000000     00000000                                                                                                                        000000000000000000
F0010000007858600003000083008772100042505000000000000000000201511060002001ILUMEC SAS                                        C000000000500000000000000000000000100010010000000000000000000000F0010000007858600320151106000101 00000000000000000000000000000000000000000000000000000000000000000000000000000000000000000000000000000000000000000N 00000000000NCONT   00    00000000000          00000000000000000000000000000000000000000000 000000000000000A000000000000000000000000000000000000000000000 000000000000000000000000000000000000000     00000000                                                                                                                        000000000000000000
F0010000007858600004000083008772100023658300000000000000000201511060002001ILUMEC SAS                                        C000000000006400000000000000000000100010010000000000000000000000F0010000007858600420151106000101 00000000000000000000000000000000000000000000000000000000000000000000000000000000000000000000000000000000000000000N 00000000000NCONT   00    00000000000          00000000000000000000000000000000000000000000 000000000000000A000000000000000000000000000000000000000000000 000000000000000000000000000000000000000     00000000                                                                                                                        000000000000000000
F0010000007858600005000083008772100013552100000000000000000201511060002001ILUMEC SAS                                        D000000000006400000000000000000000100010010000000000000000000000F0010000007858600520151106000101 00000000000000000000000000000000000000000000000000000000000000000000000000000000000000000000000000000000000000000N 00000000000NCONT   00    00000000000          00000000000000000000000000000000000000000000 000000000000000A000000000000000000000000000000000000000000000 000000000000000000000000000000000000000     00000000                                                                                                                        000000000000000000
F0010000007858700001000000905999300011050500000000000000000201511060002001CARLOS CAEZ TURIZO                                D000000013000000000000000000000000100010010000000000000000000000F0010000007858700120151106000101 00000000000000000000000000000000000000000000000000000000000000000000000000000000000000000000000000000000000000000N 00000000000NCONT   00    00000000000          00000000000000000000000000000000000000000000 000000000000000A000000000000000000000000000000000000000000000 000000000000000000000000000000000000000     00000000                                                                                                                        000000000000000000
F0010000007858700002000000905999300041450500000000000000000201511060002001CARLOS CAEZ TURIZO                                C000000012500000000000000000000000100010010000000000000000000000F0010000007858700220151106000101 00000000000000000000000000000000000000000000000000000000000000000000000000000000000000000000000000000000000000000N 00000000000NCONT   00    00000000000          00000000000000000000000000000000000000000000 000000000000000A000000000000000000000000000000000000000000000 000000000000000000000000000000000000000     00000000                                                                                                                        000000000000000000
F0010000007858700003000000905999300042505000000000000000000201511060002001CARLOS CAEZ TURIZO                                C000000000500000000000000000000000100010010000000000000000000000F0010000007858700320151106000101 00000000000000000000000000000000000000000000000000000000000000000000000000000000000000000000000000000000000000000N 00000000000NCONT   00    00000000000          00000000000000000000000000000000000000000000 000000000000000A000000000000000000000000000000000000000000000 000000000000000000000000000000000000000     00000000                                                                                                                        000000000000000000
F0010000007858700004000000905999300023658300000000000000000201511060002001CARLOS CAEZ TURIZO                                C000000000100000000000000000000000100010010000000000000000000000F0010000007858700420151106000101 00000000000000000000000000000000000000000000000000000000000000000000000000000000000000000000000000000000000000000N 00000000000NCONT   00    00000000000          00000000000000000000000000000000000000000000 000000000000000A000000000000000000000000000000000000000000000 000000000000000000000000000000000000000     00000000                                                                                                                        000000000000000000
F0010000007858700005000000905999300013552100000000000000000201511060002001CARLOS CAEZ TURIZO                                D000000000100000000000000000000000100010010000000000000000000000F0010000007858700520151106000101 00000000000000000000000000000000000000000000000000000000000000000000000000000000000000000000000000000000000000000N 00000000000NCONT   00    00000000000          00000000000000000000000000000000000000000000 000000000000000A000000000000000000000000000000000000000000000 000000000000000000000000000000000000000     00000000                                                                                                                        000000000000000000
F0010000007858800001000007227698400011050500000000000000000201511060002001MUNDO DE ACERO P.J                                D000000012000000000000000000000000100010010000000000000000000000F0010000007858800120151106000101 00000000000000000000000000000000000000000000000000000000000000000000000000000000000000000000000000000000000000000N 00000000000NCONT   00    00000000000          00000000000000000000000000000000000000000000 000000000000000A000000000000000000000000000000000000000000000 000000000000000000000000000000000000000     00000000                                                                                                                        000000000000000000
