F0010000007539000001000090024483300011050500000000000000000201508270002001COSMETICOS A-GUZ                                  D000000002000000000000000000000000100010010000000000000000000000F0010000007539000120150827000101 00000000000000000000000000000000000000000000000000000000000000000000000000000000000000000000000000000000000000000N 00000000000NCONT   00    00000000000          00000000000000000000000000000000000000000000 000000000000000A000000000000000000000000000000000000000000000 000000000000000000000000000000000000000     00000000                                                                                                                        000000000000000000
F0010000007539000002000090024483300041450500000000000000000201508270002001COSMETICOS A-GUZ                                  C000000001800000000000000000000000100010010000000000000000000000F0010000007539000220150827000101 00000000000000000000000000000000000000000000000000000000000000000000000000000000000000000000000000000000000000000N 00000000000NCONT   00    00000000000          00000000000000000000000000000000000000000000 000000000000000A000000000000000000000000000000000000000000000 000000000000000000000000000000000000000     00000000                                                                                                                        000000000000000000
F0010000007539000003000090024483300042505000000000000000000201508270002001COSMETICOS A-GUZ                                  C000000000200000000000000000000000100010010000000000000000000000F0010000007539000320150827000101 00000000000000000000000000000000000000000000000000000000000000000000000000000000000000000000000000000000000000000N 00000000000NCONT   00    00000000000          00000000000000000000000000000000000000000000 000000000000000A000000000000000000000000000000000000000000000 000000000000000000000000000000000000000     00000000                                                                                                                        000000000000000000
F0010000007539000004000090024483300023658300000000000000000201508270002001COSMETICOS A-GUZ                                  C000000000014400000000000000000000100010010000000000000000000000F0010000007539000420150827000101 00000000000000000000000000000000000000000000000000000000000000000000000000000000000000000000000000000000000000000N 00000000000NCONT   00    00000000000          00000000000000000000000000000000000000000000 000000000000000A000000000000000000000000000000000000000000000 000000000000000000000000000000000000000     00000000                                                                                                                        000000000000000000
F0010000007539000005000090024483300013552100000000000000000201508270002001COSMETICOS A-GUZ                                  D000000000014400000000000000000000100010010000000000000000000000F0010000007539000520150827000101 00000000000000000000000000000000000000000000000000000000000000000000000000000000000000000000000000000000000000000N 00000000000NCONT   00    00000000000          00000000000000000000000000000000000000000000 000000000000000A000000000000000000000000000000000000000000000 000000000000000000000000000000000000000     00000000                                                                                                                        000000000000000000
F0010000007539100001000100144365000011050500000000000000000201508270002001JESUS SAMUEL CIRO DAZA                            D000000022000000000000000000000000100010010000000000000000000000F0010000007539100120150827000101 00000000000000000000000000000000000000000000000000000000000000000000000000000000000000000000000000000000000000000N 00000000000NCONT   00    00000000000          00000000000000000000000000000000000000000000 000000000000000A000000000000000000000000000000000000000000000 000000000000000000000000000000000000000     00000000                                                                                                                        000000000000000000
F0010000007539100002000100144365000041450500000000000000000201508270002001JESUS SAMUEL CIRO DAZA                            C000000020400000000000000000000000100010010000000000000000000000F0010000007539100220150827000101 00000000000000000000000000000000000000000000000000000000000000000000000000000000000000000000000000000000000000000N 00000000000NCONT   00    00000000000          00000000000000000000000000000000000000000000 000000000000000A000000000000000000000000000000000000000000000 000000000000000000000000000000000000000     00000000                                                                                                                        000000000000000000
F0010000007539100003000100144365000042505000000000000000000201508270002001JESUS SAMUEL CIRO DAZA                            C000000001600000000000000000000000100010010000000000000000000000F0010000007539100320150827000101 00000000000000000000000000000000000000000000000000000000000000000000000000000000000000000000000000000000000000000N 00000000000NCONT   00    00000000000          00000000000000000000000000000000000000000000 000000000000000A000000000000000000000000000000000000000000000 000000000000000000000000000000000000000     00000000                                                                                                                        000000000000000000
F0010000007539100004000100144365000023658300000000000000000201508270002001JESUS SAMUEL CIRO DAZA                            C000000000163200000000000000000000100010010000000000000000000000F0010000007539100420150827000101 00000000000000000000000000000000000000000000000000000000000000000000000000000000000000000000000000000000000000000N 00000000000NCONT   00    00000000000          00000000000000000000000000000000000000000000 000000000000000A000000000000000000000000000000000000000000000 000000000000000000000000000000000000000     00000000                                                                                                                        000000000000000000
F0010000007539100005000100144365000013552100000000000000000201508270002001JESUS SAMUEL CIRO DAZA                            D000000000163200000000000000000000100010010000000000000000000000F0010000007539100520150827000101 00000000000000000000000000000000000000000000000000000000000000000000000000000000000000000000000000000000000000000N 00000000000NCONT   00    00000000000          00000000000000000000000000000000000000000000 000000000000000A000000000000000000000000000000000000000000000 000000000000000000000000000000000000000     00000000                                                                                                                        000000000000000000
F0010000007539200001000100144365000011050500000000000000000201508270002001JESUS SAMUEL CIRO DAZA                            D000000022000000000000000000000000100010010000000000000000000000F0010000007539200120150827000101 00000000000000000000000000000000000000000000000000000000000000000000000000000000000000000000000000000000000000000N 00000000000NCONT   00    00000000000          00000000000000000000000000000000000000000000 000000000000000A000000000000000000000000000000000000000000000 000000000000000000000000000000000000000     00000000                                                                                                                        000000000000000000
F0010000007539200002000100144365000041450500000000000000000201508270002001JESUS SAMUEL CIRO DAZA                            C000000020400000000000000000000000100010010000000000000000000000F0010000007539200220150827000101 00000000000000000000000000000000000000000000000000000000000000000000000000000000000000000000000000000000000000000N 00000000000NCONT   00    00000000000          00000000000000000000000000000000000000000000 000000000000000A000000000000000000000000000000000000000000000 000000000000000000000000000000000000000     00000000                                                                                                                        000000000000000000
F0010000007539200003000100144365000042505000000000000000000201508270002001JESUS SAMUEL CIRO DAZA                            C000000001600000000000000000000000100010010000000000000000000000F0010000007539200320150827000101 00000000000000000000000000000000000000000000000000000000000000000000000000000000000000000000000000000000000000000N 00000000000NCONT   00    00000000000          00000000000000000000000000000000000000000000 000000000000000A000000000000000000000000000000000000000000000 000000000000000000000000000000000000000     00000000                                                                                                                        000000000000000000
F0010000007539200004000100144365000023658300000000000000000201508270002001JESUS SAMUEL CIRO DAZA                            C000000000163200000000000000000000100010010000000000000000000000F0010000007539200420150827000101 00000000000000000000000000000000000000000000000000000000000000000000000000000000000000000000000000000000000000000N 00000000000NCONT   00    00000000000          00000000000000000000000000000000000000000000 000000000000000A000000000000000000000000000000000000000000000 000000000000000000000000000000000000000     00000000                                                                                                                        000000000000000000
F0010000007539200005000100144365000013552100000000000000000201508270002001JESUS SAMUEL CIRO DAZA                            D000000000163200000000000000000000100010010000000000000000000000F0010000007539200520150827000101 00000000000000000000000000000000000000000000000000000000000000000000000000000000000000000000000000000000000000000N 00000000000NCONT   00    00000000000          00000000000000000000000000000000000000000000 000000000000000A000000000000000000000000000000000000000000000 000000000000000000000000000000000000000     00000000                                                                                                                        000000000000000000
F0010000007539300001000003265780700011050500000000000000000201508270002001ZUNILDA GUERRERO                                  D000000001500000000000000000000000100010010000000000000000000000F0010000007539300120150827000101 00000000000000000000000000000000000000000000000000000000000000000000000000000000000000000000000000000000000000000N 00000000000NCONT   00    00000000000          00000000000000000000000000000000000000000000 000000000000000A000000000000000000000000000000000000000000000 000000000000000000000000000000000000000     00000000                                                                                                                        000000000000000000
F0010000007539300002000003265780700041450500000000000000000201508270002001ZUNILDA GUERRERO                                  C000000001100000000000000000000000100010010000000000000000000000F0010000007539300220150827000101 00000000000000000000000000000000000000000000000000000000000000000000000000000000000000000000000000000000000000000N 00000000000NCONT   00    00000000000          00000000000000000000000000000000000000000000 000000000000000A000000000000000000000000000000000000000000000 000000000000000000000000000000000000000     00000000                                                                                                                        000000000000000000
F0010000007539300003000003265780700042505000000000000000000201508270002001ZUNILDA GUERRERO                                  C000000000400000000000000000000000100010010000000000000000000000F0010000007539300320150827000101 00000000000000000000000000000000000000000000000000000000000000000000000000000000000000000000000000000000000000000N 00000000000NCONT   00    00000000000          00000000000000000000000000000000000000000000 000000000000000A000000000000000000000000000000000000000000000 000000000000000000000000000000000000000     00000000                                                                                                                        000000000000000000
F0010000007539300004000003265780700023658300000000000000000201508270002001ZUNILDA GUERRERO                                  C000000000008800000000000000000000100010010000000000000000000000F0010000007539300420150827000101 00000000000000000000000000000000000000000000000000000000000000000000000000000000000000000000000000000000000000000N 00000000000NCONT   00    00000000000          00000000000000000000000000000000000000000000 000000000000000A000000000000000000000000000000000000000000000 000000000000000000000000000000000000000     00000000                                                                                                                        000000000000000000
F0010000007539300005000003265780700013552100000000000000000201508270002001ZUNILDA GUERRERO                                  D000000000008800000000000000000000100010010000000000000000000000F0010000007539300520150827000101 00000000000000000000000000000000000000000000000000000000000000000000000000000000000000000000000000000000000000000N 00000000000NCONT   00    00000000000          00000000000000000000000000000000000000000000 000000000000000A000000000000000000000000000000000000000000000 000000000000000000000000000000000000000     00000000                                                                                                                        000000000000000000
F0010000007539400001000003265780700011050500000000000000000201508270002001ZUNILDA GUERRERO                                  D000000001300000000000000000000000100010010000000000000000000000F0010000007539400120150827000101 00000000000000000000000000000000000000000000000000000000000000000000000000000000000000000000000000000000000000000N 00000000000NCONT   00    00000000000          00000000000000000000000000000000000000000000 000000000000000A000000000000000000000000000000000000000000000 000000000000000000000000000000000000000     00000000                                                                                                                        000000000000000000
F0010000007539400002000003265780700041450500000000000000000201508270002001ZUNILDA GUERRERO                                  C000000001000000000000000000000000100010010000000000000000000000F0010000007539400220150827000101 00000000000000000000000000000000000000000000000000000000000000000000000000000000000000000000000000000000000000000N 00000000000NCONT   00    00000000000          00000000000000000000000000000000000000000000 000000000000000A000000000000000000000000000000000000000000000 000000000000000000000000000000000000000     00000000                                                                                                                        000000000000000000
F0010000007539400003000003265780700042505000000000000000000201508270002001ZUNILDA GUERRERO                                  C000000000300000000000000000000000100010010000000000000000000000F0010000007539400320150827000101 00000000000000000000000000000000000000000000000000000000000000000000000000000000000000000000000000000000000000000N 00000000000NCONT   00    00000000000          00000000000000000000000000000000000000000000 000000000000000A000000000000000000000000000000000000000000000 000000000000000000000000000000000000000     00000000                                                                                                                        000000000000000000
F0010000007539400004000003265780700023658300000000000000000201508270002001ZUNILDA GUERRERO                                  C000000000008000000000000000000000100010010000000000000000000000F0010000007539400420150827000101 00000000000000000000000000000000000000000000000000000000000000000000000000000000000000000000000000000000000000000N 00000000000NCONT   00    00000000000          00000000000000000000000000000000000000000000 000000000000000A000000000000000000000000000000000000000000000 000000000000000000000000000000000000000     00000000                                                                                                                        000000000000000000
F0010000007539400005000003265780700013552100000000000000000201508270002001ZUNILDA GUERRERO                                  D000000000008000000000000000000000100010010000000000000000000000F0010000007539400520150827000101 00000000000000000000000000000000000000000000000000000000000000000000000000000000000000000000000000000000000000000N 00000000000NCONT   00    00000000000          00000000000000000000000000000000000000000000 000000000000000A000000000000000000000000000000000000000000000 000000000000000000000000000000000000000     00000000                                                                                                                        000000000000000000
F0010000007539500001000003207718300011050500000000000000000201508270002001MARIA GILMA  RAMIREZ GARCIA                       D000000010000000000000000000000000100010010000000000000000000000F0010000007539500120150827000101 00000000000000000000000000000000000000000000000000000000000000000000000000000000000000000000000000000000000000000N 00000000000NCONT   00    00000000000          00000000000000000000000000000000000000000000 000000000000000A000000000000000000000000000000000000000000000 000000000000000000000000000000000000000     00000000                                                                                                                        000000000000000000
F0010000007539500002000003207718300041450500000000000000000201508270002001MARIA GILMA  RAMIREZ GARCIA                       C000000007500000000000000000000000100010010000000000000000000000F0010000007539500220150827000101 00000000000000000000000000000000000000000000000000000000000000000000000000000000000000000000000000000000000000000N 00000000000NCONT   00    00000000000          00000000000000000000000000000000000000000000 000000000000000A000000000000000000000000000000000000000000000 000000000000000000000000000000000000000     00000000                                                                                                                        000000000000000000
F0010000007539500003000003207718300042505000000000000000000201508270002001MARIA GILMA  RAMIREZ GARCIA                       C000000002500000000000000000000000100010010000000000000000000000F0010000007539500320150827000101 00000000000000000000000000000000000000000000000000000000000000000000000000000000000000000000000000000000000000000N 00000000000NCONT   00    00000000000          00000000000000000000000000000000000000000000 000000000000000A000000000000000000000000000000000000000000000 000000000000000000000000000000000000000     00000000                                                                                                                        000000000000000000
F0010000007539500004000003207718300023658300000000000000000201508270002001MARIA GILMA  RAMIREZ GARCIA                       C000000000060000000000000000000000100010010000000000000000000000F0010000007539500420150827000101 00000000000000000000000000000000000000000000000000000000000000000000000000000000000000000000000000000000000000000N 00000000000NCONT   00    00000000000          00000000000000000000000000000000000000000000 000000000000000A000000000000000000000000000000000000000000000 000000000000000000000000000000000000000     00000000                                                                                                                        000000000000000000
F0010000007539500005000003207718300013552100000000000000000201508270002001MARIA GILMA  RAMIREZ GARCIA                       D000000000060000000000000000000000100010010000000000000000000000F0010000007539500520150827000101 00000000000000000000000000000000000000000000000000000000000000000000000000000000000000000000000000000000000000000N 00000000000NCONT   00    00000000000          00000000000000000000000000000000000000000000 000000000000000A000000000000000000000000000000000000000000000 000000000000000000000000000000000000000     00000000                                                                                                                        000000000000000000
F0010000007539600001000000869402400011050500000000000000000201508270002001ISRAEL MANGA                                      D000000001500000000000000000000000100010010000000000000000000000F0010000007539600120150827000101 00000000000000000000000000000000000000000000000000000000000000000000000000000000000000000000000000000000000000000N 00000000000NCONT   00    00000000000          00000000000000000000000000000000000000000000 000000000000000A000000000000000000000000000000000000000000000 000000000000000000000000000000000000000     00000000                                                                                                                        000000000000000000
F0010000007539600002000000869402400041450500000000000000000201508270002001ISRAEL MANGA                                      C000000001200000000000000000000000100010010000000000000000000000F0010000007539600220150827000101 00000000000000000000000000000000000000000000000000000000000000000000000000000000000000000000000000000000000000000N 00000000000NCONT   00    00000000000          00000000000000000000000000000000000000000000 000000000000000A000000000000000000000000000000000000000000000 000000000000000000000000000000000000000     00000000                                                                                                                        000000000000000000
F0010000007539600003000000869402400042505000000000000000000201508270002001ISRAEL MANGA                                      C000000000300000000000000000000000100010010000000000000000000000F0010000007539600320150827000101 00000000000000000000000000000000000000000000000000000000000000000000000000000000000000000000000000000000000000000N 00000000000NCONT   00    00000000000          00000000000000000000000000000000000000000000 000000000000000A000000000000000000000000000000000000000000000 000000000000000000000000000000000000000     00000000                                                                                                                        000000000000000000
F0010000007539600004000000869402400023658300000000000000000201508270002001ISRAEL MANGA                                      C000000000009600000000000000000000100010010000000000000000000000F0010000007539600420150827000101 00000000000000000000000000000000000000000000000000000000000000000000000000000000000000000000000000000000000000000N 00000000000NCONT   00    00000000000          00000000000000000000000000000000000000000000 000000000000000A000000000000000000000000000000000000000000000 000000000000000000000000000000000000000     00000000                                                                                                                        000000000000000000
F0010000007539600005000000869402400013552100000000000000000201508270002001ISRAEL MANGA                                      D000000000009600000000000000000000100010010000000000000000000000F0010000007539600520150827000101 00000000000000000000000000000000000000000000000000000000000000000000000000000000000000000000000000000000000000000N 00000000000NCONT   00    00000000000          00000000000000000000000000000000000000000000 000000000000000A000000000000000000000000000000000000000000000 000000000000000000000000000000000000000     00000000                                                                                                                        000000000000000000
F0010000007539700001000000869402400011050500000000000000000201508270002001ISRAEL MANGA                                      D000000001400000000000000000000000100010010000000000000000000000F0010000007539700120150827000101 00000000000000000000000000000000000000000000000000000000000000000000000000000000000000000000000000000000000000000N 00000000000NCONT   00    00000000000          00000000000000000000000000000000000000000000 000000000000000A000000000000000000000000000000000000000000000 000000000000000000000000000000000000000     00000000                                                                                                                        000000000000000000
F0010000007539700002000000869402400041450500000000000000000201508270002001ISRAEL MANGA                                      C000000001200000000000000000000000100010010000000000000000000000F0010000007539700220150827000101 00000000000000000000000000000000000000000000000000000000000000000000000000000000000000000000000000000000000000000N 00000000000NCONT   00    00000000000          00000000000000000000000000000000000000000000 000000000000000A000000000000000000000000000000000000000000000 000000000000000000000000000000000000000     00000000                                                                                                                        000000000000000000
F0010000007539700003000000869402400042505000000000000000000201508270002001ISRAEL MANGA                                      C000000000200000000000000000000000100010010000000000000000000000F0010000007539700320150827000101 00000000000000000000000000000000000000000000000000000000000000000000000000000000000000000000000000000000000000000N 00000000000NCONT   00    00000000000          00000000000000000000000000000000000000000000 000000000000000A000000000000000000000000000000000000000000000 000000000000000000000000000000000000000     00000000                                                                                                                        000000000000000000
F0010000007539700004000000869402400023658300000000000000000201508270002001ISRAEL MANGA                                      C000000000009600000000000000000000100010010000000000000000000000F0010000007539700420150827000101 00000000000000000000000000000000000000000000000000000000000000000000000000000000000000000000000000000000000000000N 00000000000NCONT   00    00000000000          00000000000000000000000000000000000000000000 000000000000000A000000000000000000000000000000000000000000000 000000000000000000000000000000000000000     00000000                                                                                                                        000000000000000000
F0010000007539700005000000869402400013552100000000000000000201508270002001ISRAEL MANGA                                      D000000000009600000000000000000000100010010000000000000000000000F0010000007539700520150827000101 00000000000000000000000000000000000000000000000000000000000000000000000000000000000000000000000000000000000000000N 00000000000NCONT   00    00000000000          00000000000000000000000000000000000000000000 000000000000000A000000000000000000000000000000000000000000000 000000000000000000000000000000000000000     00000000                                                                                                                        000000000000000000
F0010000007539800001000000431178400011050500000000000000000201508270002001EFRAIN ALVAREZ                                    D000000005460000000000000000000000100010010000000000000000000000F0010000007539800120150827000101 00000000000000000000000000000000000000000000000000000000000000000000000000000000000000000000000000000000000000000N 00000000000NCONT   00    00000000000          00000000000000000000000000000000000000000000 000000000000000A000000000000000000000000000000000000000000000 000000000000000000000000000000000000000     00000000                                                                                                                        000000000000000000
F0010000007539800002000000431178400041450500000000000000000201508270002001EFRAIN ALVAREZ                                    C000000005160000000000000000000000100010010000000000000000000000F0010000007539800220150827000101 00000000000000000000000000000000000000000000000000000000000000000000000000000000000000000000000000000000000000000N 00000000000NCONT   00    00000000000          00000000000000000000000000000000000000000000 000000000000000A000000000000000000000000000000000000000000000 000000000000000000000000000000000000000     00000000                                                                                                                        000000000000000000
F0010000007539800003000000431178400042505000000000000000000201508270002001EFRAIN ALVAREZ                                    C000000000300000000000000000000000100010010000000000000000000000F0010000007539800320150827000101 00000000000000000000000000000000000000000000000000000000000000000000000000000000000000000000000000000000000000000N 00000000000NCONT   00    00000000000          00000000000000000000000000000000000000000000 000000000000000A000000000000000000000000000000000000000000000 000000000000000000000000000000000000000     00000000                                                                                                                        000000000000000000
F0010000007539800004000000431178400023658300000000000000000201508270002001EFRAIN ALVAREZ                                    C000000000041300000000000000000000100010010000000000000000000000F0010000007539800420150827000101 00000000000000000000000000000000000000000000000000000000000000000000000000000000000000000000000000000000000000000N 00000000000NCONT   00    00000000000          00000000000000000000000000000000000000000000 000000000000000A000000000000000000000000000000000000000000000 000000000000000000000000000000000000000     00000000                                                                                                                        000000000000000000
F0010000007539800005000000431178400013552100000000000000000201508270002001EFRAIN ALVAREZ                                    D000000000041300000000000000000000100010010000000000000000000000F0010000007539800520150827000101 00000000000000000000000000000000000000000000000000000000000000000000000000000000000000000000000000000000000000000N 00000000000NCONT   00    00000000000          00000000000000000000000000000000000000000000 000000000000000A000000000000000000000000000000000000000000000 000000000000000000000000000000000000000     00000000                                                                                                                        000000000000000000
F0010000007539900001000000431178400011050500000000000000000201508270002001EFRAIN ALVAREZ                                    D000000001895000000000000000000000100010010000000000000000000000F0010000007539900120150827000101 00000000000000000000000000000000000000000000000000000000000000000000000000000000000000000000000000000000000000000N 00000000000NCONT   00    00000000000          00000000000000000000000000000000000000000000 000000000000000A000000000000000000000000000000000000000000000 000000000000000000000000000000000000000     00000000                                                                                                                        000000000000000000
F0010000007539900002000000431178400041450500000000000000000201508270002001EFRAIN ALVAREZ                                    C000000001720000000000000000000000100010010000000000000000000000F0010000007539900220150827000101 00000000000000000000000000000000000000000000000000000000000000000000000000000000000000000000000000000000000000000N 00000000000NCONT   00    00000000000          00000000000000000000000000000000000000000000 000000000000000A000000000000000000000000000000000000000000000 000000000000000000000000000000000000000     00000000                                                                                                                        000000000000000000
F0010000007539900003000000431178400042505000000000000000000201508270002001EFRAIN ALVAREZ                                    C000000000175000000000000000000000100010010000000000000000000000F0010000007539900320150827000101 00000000000000000000000000000000000000000000000000000000000000000000000000000000000000000000000000000000000000000N 00000000000NCONT   00    00000000000          00000000000000000000000000000000000000000000 000000000000000A000000000000000000000000000000000000000000000 000000000000000000000000000000000000000     00000000                                                                                                                        000000000000000000
F0010000007539900004000000431178400023658300000000000000000201508270002001EFRAIN ALVAREZ                                    C000000000013800000000000000000000100010010000000000000000000000F0010000007539900420150827000101 00000000000000000000000000000000000000000000000000000000000000000000000000000000000000000000000000000000000000000N 00000000000NCONT   00    00000000000          00000000000000000000000000000000000000000000 000000000000000A000000000000000000000000000000000000000000000 000000000000000000000000000000000000000     00000000                                                                                                                        000000000000000000
F0010000007539900005000000431178400013552100000000000000000201508270002001EFRAIN ALVAREZ                                    D000000000013800000000000000000000100010010000000000000000000000F0010000007539900520150827000101 00000000000000000000000000000000000000000000000000000000000000000000000000000000000000000000000000000000000000000N 00000000000NCONT   00    00000000000          00000000000000000000000000000000000000000000 000000000000000A000000000000000000000000000000000000000000000 000000000000000000000000000000000000000     00000000                                                                                                                        000000000000000000
F0010000007540000001000000431178400011050500000000000000000201508270002001EFRAIN ALVAREZ                                    D000000002830000000000000000000000100010010000000000000000000000F0010000007540000120150827000101 00000000000000000000000000000000000000000000000000000000000000000000000000000000000000000000000000000000000000000N 00000000000NCONT   00    00000000000          00000000000000000000000000000000000000000000 000000000000000A000000000000000000000000000000000000000000000 000000000000000000000000000000000000000     00000000                                                                                                                        000000000000000000
F0010000007540000002000000431178400041450500000000000000000201508270002001EFRAIN ALVAREZ                                    C000000002580000000000000000000000100010010000000000000000000000F0010000007540000220150827000101 00000000000000000000000000000000000000000000000000000000000000000000000000000000000000000000000000000000000000000N 00000000000NCONT   00    00000000000          00000000000000000000000000000000000000000000 000000000000000A000000000000000000000000000000000000000000000 000000000000000000000000000000000000000     00000000                                                                                                                        000000000000000000
F0010000007540000003000000431178400042505000000000000000000201508270002001EFRAIN ALVAREZ                                    C000000000250000000000000000000000100010010000000000000000000000F0010000007540000320150827000101 00000000000000000000000000000000000000000000000000000000000000000000000000000000000000000000000000000000000000000N 00000000000NCONT   00    00000000000          00000000000000000000000000000000000000000000 000000000000000A000000000000000000000000000000000000000000000 000000000000000000000000000000000000000     00000000                                                                                                                        000000000000000000
F0010000007540000004000000431178400023658300000000000000000201508270002001EFRAIN ALVAREZ                                    C000000000020600000000000000000000100010010000000000000000000000F0010000007540000420150827000101 00000000000000000000000000000000000000000000000000000000000000000000000000000000000000000000000000000000000000000N 00000000000NCONT   00    00000000000          00000000000000000000000000000000000000000000 000000000000000A000000000000000000000000000000000000000000000 000000000000000000000000000000000000000     00000000                                                                                                                        000000000000000000
F0010000007540000005000000431178400013552100000000000000000201508270002001EFRAIN ALVAREZ                                    D000000000020600000000000000000000100010010000000000000000000000F0010000007540000520150827000101 00000000000000000000000000000000000000000000000000000000000000000000000000000000000000000000000000000000000000000N 00000000000NCONT   00    00000000000          00000000000000000000000000000000000000000000 000000000000000A000000000000000000000000000000000000000000000 000000000000000000000000000000000000000     00000000                                                                                                                        000000000000000000
F0010000007540100001000000431178400011050500000000000000000201508270002001EFRAIN ALVAREZ                                    D000000000985000000000000000000000100010010000000000000000000000F0010000007540100120150827000101 00000000000000000000000000000000000000000000000000000000000000000000000000000000000000000000000000000000000000000N 00000000000NCONT   00    00000000000          00000000000000000000000000000000000000000000 000000000000000A000000000000000000000000000000000000000000000 000000000000000000000000000000000000000     00000000                                                                                                                        000000000000000000
F0010000007540100002000000431178400041450500000000000000000201508270002001EFRAIN ALVAREZ                                    C000000000860000000000000000000000100010010000000000000000000000F0010000007540100220150827000101 00000000000000000000000000000000000000000000000000000000000000000000000000000000000000000000000000000000000000000N 00000000000NCONT   00    00000000000          00000000000000000000000000000000000000000000 000000000000000A000000000000000000000000000000000000000000000 000000000000000000000000000000000000000     00000000                                                                                                                        000000000000000000
F0010000007540100003000000431178400042505000000000000000000201508270002001EFRAIN ALVAREZ                                    C000000000125000000000000000000000100010010000000000000000000000F0010000007540100320150827000101 00000000000000000000000000000000000000000000000000000000000000000000000000000000000000000000000000000000000000000N 00000000000NCONT   00    00000000000          00000000000000000000000000000000000000000000 000000000000000A000000000000000000000000000000000000000000000 000000000000000000000000000000000000000     00000000                                                                                                                        000000000000000000
F0010000007540100004000000431178400023658300000000000000000201508270002001EFRAIN ALVAREZ                                    C000000000006900000000000000000000100010010000000000000000000000F0010000007540100420150827000101 00000000000000000000000000000000000000000000000000000000000000000000000000000000000000000000000000000000000000000N 00000000000NCONT   00    00000000000          00000000000000000000000000000000000000000000 000000000000000A000000000000000000000000000000000000000000000 000000000000000000000000000000000000000     00000000                                                                                                                        000000000000000000
F0010000007540100005000000431178400013552100000000000000000201508270002001EFRAIN ALVAREZ                                    D000000000006900000000000000000000100010010000000000000000000000F0010000007540100520150827000101 00000000000000000000000000000000000000000000000000000000000000000000000000000000000000000000000000000000000000000N 00000000000NCONT   00    00000000000          00000000000000000000000000000000000000000000 000000000000000A000000000000000000000000000000000000000000000 000000000000000000000000000000000000000     00000000                                                                                                                        000000000000000000
F0010000007540200001000090034602400011050500000000000000000201508270002001PRODUCTOS NACIONALES PARAFINICOS LA CUSTODIA S.A.SD000000001000000000000000000000000100010010000000000000000000000F0010000007540200120150827000101 00000000000000000000000000000000000000000000000000000000000000000000000000000000000000000000000000000000000000000N 00000000000NCONT   00    00000000000          00000000000000000000000000000000000000000000 000000000000000A000000000000000000000000000000000000000000000 000000000000000000000000000000000000000     00000000                                                                                                                        000000000000000000
F0010000007540200002000090034602400041450500000000000000000201508270002001PRODUCTOS NACIONALES PARAFINICOS LA CUSTODIA S.A.SC000000000900000000000000000000000100010010000000000000000000000F0010000007540200220150827000101 00000000000000000000000000000000000000000000000000000000000000000000000000000000000000000000000000000000000000000N 00000000000NCONT   00    00000000000          00000000000000000000000000000000000000000000 000000000000000A000000000000000000000000000000000000000000000 000000000000000000000000000000000000000     00000000                                                                                                                        000000000000000000
F0010000007540200003000090034602400042505000000000000000000201508270002001PRODUCTOS NACIONALES PARAFINICOS LA CUSTODIA S.A.SC000000000100000000000000000000000100010010000000000000000000000F0010000007540200320150827000101 00000000000000000000000000000000000000000000000000000000000000000000000000000000000000000000000000000000000000000N 00000000000NCONT   00    00000000000          00000000000000000000000000000000000000000000 000000000000000A000000000000000000000000000000000000000000000 000000000000000000000000000000000000000     00000000                                                                                                                        000000000000000000
F0010000007540200004000090034602400023658300000000000000000201508270002001PRODUCTOS NACIONALES PARAFINICOS LA CUSTODIA S.A.SC000000000007200000000000000000000100010010000000000000000000000F0010000007540200420150827000101 00000000000000000000000000000000000000000000000000000000000000000000000000000000000000000000000000000000000000000N 00000000000NCONT   00    00000000000          00000000000000000000000000000000000000000000 000000000000000A000000000000000000000000000000000000000000000 000000000000000000000000000000000000000     00000000                                                                                                                        000000000000000000
F0010000007540200005000090034602400013552100000000000000000201508270002001PRODUCTOS NACIONALES PARAFINICOS LA CUSTODIA S.A.SD000000000007200000000000000000000100010010000000000000000000000F0010000007540200520150827000101 00000000000000000000000000000000000000000000000000000000000000000000000000000000000000000000000000000000000000000N 00000000000NCONT   00    00000000000          00000000000000000000000000000000000000000000 000000000000000A000000000000000000000000000000000000000000000 000000000000000000000000000000000000000     00000000                                                                                                                        000000000000000000
F0010000007540300001000000431178400011050500000000000000000201508270002001EFRAIN ALVAREZ                                    D000000000885000000000000000000000100010010000000000000000000000F0010000007540300120150827000101 00000000000000000000000000000000000000000000000000000000000000000000000000000000000000000000000000000000000000000N 00000000000NCONT   00    00000000000          00000000000000000000000000000000000000000000 000000000000000A000000000000000000000000000000000000000000000 000000000000000000000000000000000000000     00000000                                                                                                                        000000000000000000
F0010000007540300002000000431178400041450500000000000000000201508270002001EFRAIN ALVAREZ                                    C000000000860000000000000000000000100010010000000000000000000000F0010000007540300220150827000101 00000000000000000000000000000000000000000000000000000000000000000000000000000000000000000000000000000000000000000N 00000000000NCONT   00    00000000000          00000000000000000000000000000000000000000000 000000000000000A000000000000000000000000000000000000000000000 000000000000000000000000000000000000000     00000000                                                                                                                        000000000000000000
F0010000007540300003000000431178400042505000000000000000000201508270002001EFRAIN ALVAREZ                                    C000000000025000000000000000000000100010010000000000000000000000F0010000007540300320150827000101 00000000000000000000000000000000000000000000000000000000000000000000000000000000000000000000000000000000000000000N 00000000000NCONT   00    00000000000          00000000000000000000000000000000000000000000 000000000000000A000000000000000000000000000000000000000000000 000000000000000000000000000000000000000     00000000                                                                                                                        000000000000000000
F0010000007540300004000000431178400023658300000000000000000201508270002001EFRAIN ALVAREZ                                    C000000000006900000000000000000000100010010000000000000000000000F0010000007540300420150827000101 00000000000000000000000000000000000000000000000000000000000000000000000000000000000000000000000000000000000000000N 00000000000NCONT   00    00000000000          00000000000000000000000000000000000000000000 000000000000000A000000000000000000000000000000000000000000000 000000000000000000000000000000000000000     00000000                                                                                                                        000000000000000000
F0010000007540300005000000431178400013552100000000000000000201508270002001EFRAIN ALVAREZ                                    D000000000006900000000000000000000100010010000000000000000000000F0010000007540300520150827000101 00000000000000000000000000000000000000000000000000000000000000000000000000000000000000000000000000000000000000000N 00000000000NCONT   00    00000000000          00000000000000000000000000000000000000000000 000000000000000A000000000000000000000000000000000000000000000 000000000000000000000000000000000000000     00000000                                                                                                                        000000000000000000
F0010000007540400001000000431178400011050500000000000000000201508270002001EFRAIN ALVAREZ                                    D000000004550000000000000000000000100010010000000000000000000000F0010000007540400120150827000101 00000000000000000000000000000000000000000000000000000000000000000000000000000000000000000000000000000000000000000N 00000000000NCONT   00    00000000000          00000000000000000000000000000000000000000000 000000000000000A000000000000000000000000000000000000000000000 000000000000000000000000000000000000000     00000000                                                                                                                        000000000000000000
F0010000007540400002000000431178400041450500000000000000000201508270002001EFRAIN ALVAREZ                                    C000000004300000000000000000000000100010010000000000000000000000F0010000007540400220150827000101 00000000000000000000000000000000000000000000000000000000000000000000000000000000000000000000000000000000000000000N 00000000000NCONT   00    00000000000          00000000000000000000000000000000000000000000 000000000000000A000000000000000000000000000000000000000000000 000000000000000000000000000000000000000     00000000                                                                                                                        000000000000000000
F0010000007540400003000000431178400042505000000000000000000201508270002001EFRAIN ALVAREZ                                    C000000000250000000000000000000000100010010000000000000000000000F0010000007540400320150827000101 00000000000000000000000000000000000000000000000000000000000000000000000000000000000000000000000000000000000000000N 00000000000NCONT   00    00000000000          00000000000000000000000000000000000000000000 000000000000000A000000000000000000000000000000000000000000000 000000000000000000000000000000000000000     00000000                                                                                                                        000000000000000000
F0010000007540400004000000431178400023658300000000000000000201508270002001EFRAIN ALVAREZ                                    C000000000034400000000000000000000100010010000000000000000000000F0010000007540400420150827000101 00000000000000000000000000000000000000000000000000000000000000000000000000000000000000000000000000000000000000000N 00000000000NCONT   00    00000000000          00000000000000000000000000000000000000000000 000000000000000A000000000000000000000000000000000000000000000 000000000000000000000000000000000000000     00000000                                                                                                                        000000000000000000
F0010000007540400005000000431178400013552100000000000000000201508270002001EFRAIN ALVAREZ                                    D000000000034400000000000000000000100010010000000000000000000000F0010000007540400520150827000101 00000000000000000000000000000000000000000000000000000000000000000000000000000000000000000000000000000000000000000N 00000000000NCONT   00    00000000000          00000000000000000000000000000000000000000000 000000000000000A000000000000000000000000000000000000000000000 000000000000000000000000000000000000000     00000000                                                                                                                        000000000000000000
F0010000007540500001000001022529300011050500000000000000000201508270002001ALBERTO ALVAREZ ISAZA                             D000000000700000000000000000000000100010010000000000000000000000F0010000007540500120150827000101 00000000000000000000000000000000000000000000000000000000000000000000000000000000000000000000000000000000000000000N 00000000000NCONT   00    00000000000          00000000000000000000000000000000000000000000 000000000000000A000000000000000000000000000000000000000000000 000000000000000000000000000000000000000     00000000                                                                                                                        000000000000000000
F0010000007540500002000001022529300041450500000000000000000201508270002001ALBERTO ALVAREZ ISAZA                             C000000000700000000000000000000000100010010000000000000000000000F0010000007540500220150827000101 00000000000000000000000000000000000000000000000000000000000000000000000000000000000000000000000000000000000000000N 00000000000NCONT   00    00000000000          00000000000000000000000000000000000000000000 000000000000000A000000000000000000000000000000000000000000000 000000000000000000000000000000000000000     00000000                                                                                                                        000000000000000000
F0010000007540500003000001022529300042505000000000000000000201508270002001ALBERTO ALVAREZ ISAZA                             C000000000000000000000000000000000100010010000000000000000000000F0010000007540500320150827000101 00000000000000000000000000000000000000000000000000000000000000000000000000000000000000000000000000000000000000000N 00000000000NCONT   00    00000000000          00000000000000000000000000000000000000000000 000000000000000A000000000000000000000000000000000000000000000 000000000000000000000000000000000000000     00000000                                                                                                                        000000000000000000
F0010000007540500004000001022529300023658300000000000000000201508270002001ALBERTO ALVAREZ ISAZA                             C000000000005600000000000000000000100010010000000000000000000000F0010000007540500420150827000101 00000000000000000000000000000000000000000000000000000000000000000000000000000000000000000000000000000000000000000N 00000000000NCONT   00    00000000000          00000000000000000000000000000000000000000000 000000000000000A000000000000000000000000000000000000000000000 000000000000000000000000000000000000000     00000000                                                                                                                        000000000000000000
F0010000007540500005000001022529300013552100000000000000000201508270002001ALBERTO ALVAREZ ISAZA                             D000000000005600000000000000000000100010010000000000000000000000F0010000007540500520150827000101 00000000000000000000000000000000000000000000000000000000000000000000000000000000000000000000000000000000000000000N 00000000000NCONT   00    00000000000          00000000000000000000000000000000000000000000 000000000000000A000000000000000000000000000000000000000000000 000000000000000000000000000000000000000     00000000                                                                                                                        000000000000000000
F0010000007540600001000090007142100011050500000000000000000201508270002001TODO BELLEZA Y MAX S.A.S                          D000000002250000000000000000000000100010010000000000000000000000F0010000007540600120150827000101 00000000000000000000000000000000000000000000000000000000000000000000000000000000000000000000000000000000000000000N 00000000000NCONT   00    00000000000          00000000000000000000000000000000000000000000 000000000000000A000000000000000000000000000000000000000000000 000000000000000000000000000000000000000     00000000                                                                                                                        000000000000000000
F0010000007540600002000090007142100041450500000000000000000201508270002001TODO BELLEZA Y MAX S.A.S                          C000000002200000000000000000000000100010010000000000000000000000F0010000007540600220150827000101 00000000000000000000000000000000000000000000000000000000000000000000000000000000000000000000000000000000000000000N 00000000000NCONT   00    00000000000          00000000000000000000000000000000000000000000 000000000000000A000000000000000000000000000000000000000000000 000000000000000000000000000000000000000     00000000                                                                                                                        000000000000000000
F0010000007540600003000090007142100042505000000000000000000201508270002001TODO BELLEZA Y MAX S.A.S                          C000000000050000000000000000000000100010010000000000000000000000F0010000007540600320150827000101 00000000000000000000000000000000000000000000000000000000000000000000000000000000000000000000000000000000000000000N 00000000000NCONT   00    00000000000          00000000000000000000000000000000000000000000 000000000000000A000000000000000000000000000000000000000000000 000000000000000000000000000000000000000     00000000                                                                                                                        000000000000000000
F0010000007540600004000090007142100023658300000000000000000201508270002001TODO BELLEZA Y MAX S.A.S                          C000000000017600000000000000000000100010010000000000000000000000F0010000007540600420150827000101 00000000000000000000000000000000000000000000000000000000000000000000000000000000000000000000000000000000000000000N 00000000000NCONT   00    00000000000          00000000000000000000000000000000000000000000 000000000000000A000000000000000000000000000000000000000000000 000000000000000000000000000000000000000     00000000                                                                                                                        000000000000000000
F0010000007540600005000090007142100013552100000000000000000201508270002001TODO BELLEZA Y MAX S.A.S                          D000000000017600000000000000000000100010010000000000000000000000F0010000007540600520150827000101 00000000000000000000000000000000000000000000000000000000000000000000000000000000000000000000000000000000000000000N 00000000000NCONT   00    00000000000          00000000000000000000000000000000000000000000 000000000000000A000000000000000000000000000000000000000000000 000000000000000000000000000000000000000     00000000                                                                                                                        000000000000000000
F0010000007540700001000090007142100011050500000000000000000201508270002001TODO BELLEZA Y MAX S.A.S                          D000000006050000000000000000000000100010010000000000000000000000F0010000007540700120150827000101 00000000000000000000000000000000000000000000000000000000000000000000000000000000000000000000000000000000000000000N 00000000000NCONT   00    00000000000          00000000000000000000000000000000000000000000 000000000000000A000000000000000000000000000000000000000000000 000000000000000000000000000000000000000     00000000                                                                                                                        000000000000000000
F0010000007540700002000090007142100041450500000000000000000201508270002001TODO BELLEZA Y MAX S.A.S                          C000000006000000000000000000000000100010010000000000000000000000F0010000007540700220150827000101 00000000000000000000000000000000000000000000000000000000000000000000000000000000000000000000000000000000000000000N 00000000000NCONT   00    00000000000          00000000000000000000000000000000000000000000 000000000000000A000000000000000000000000000000000000000000000 000000000000000000000000000000000000000     00000000                                                                                                                        000000000000000000
F0010000007540700003000090007142100042505000000000000000000201508270002001TODO BELLEZA Y MAX S.A.S                          C000000000050000000000000000000000100010010000000000000000000000F0010000007540700320150827000101 00000000000000000000000000000000000000000000000000000000000000000000000000000000000000000000000000000000000000000N 00000000000NCONT   00    00000000000          00000000000000000000000000000000000000000000 000000000000000A000000000000000000000000000000000000000000000 000000000000000000000000000000000000000     00000000                                                                                                                        000000000000000000
F0010000007540700004000090007142100023658300000000000000000201508270002001TODO BELLEZA Y MAX S.A.S                          C000000000048000000000000000000000100010010000000000000000000000F0010000007540700420150827000101 00000000000000000000000000000000000000000000000000000000000000000000000000000000000000000000000000000000000000000N 00000000000NCONT   00    00000000000          00000000000000000000000000000000000000000000 000000000000000A000000000000000000000000000000000000000000000 000000000000000000000000000000000000000     00000000                                                                                                                        000000000000000000
F0010000007540700005000090007142100013552100000000000000000201508270002001TODO BELLEZA Y MAX S.A.S                          D000000000048000000000000000000000100010010000000000000000000000F0010000007540700520150827000101 00000000000000000000000000000000000000000000000000000000000000000000000000000000000000000000000000000000000000000N 00000000000NCONT   00    00000000000          00000000000000000000000000000000000000000000 000000000000000A000000000000000000000000000000000000000000000 000000000000000000000000000000000000000     00000000                                                                                                                        000000000000000000
F0010000007540800001000090007142100011050500000000000000000201508270002001TODO BELLEZA Y MAX S.A.S                          D000000012650000000000000000000000100010010000000000000000000000F0010000007540800120150827000101 00000000000000000000000000000000000000000000000000000000000000000000000000000000000000000000000000000000000000000N 00000000000NCONT   00    00000000000          00000000000000000000000000000000000000000000 000000000000000A000000000000000000000000000000000000000000000 000000000000000000000000000000000000000     00000000                                                                                                                        000000000000000000
F0010000007540800002000090007142100041450500000000000000000201508270002001TODO BELLEZA Y MAX S.A.S                          C000000012450000000000000000000000100010010000000000000000000000F0010000007540800220150827000101 00000000000000000000000000000000000000000000000000000000000000000000000000000000000000000000000000000000000000000N 00000000000NCONT   00    00000000000          00000000000000000000000000000000000000000000 000000000000000A000000000000000000000000000000000000000000000 000000000000000000000000000000000000000     00000000                                                                                                                        000000000000000000
F0010000007540800003000090007142100042505000000000000000000201508270002001TODO BELLEZA Y MAX S.A.S                          C000000000200000000000000000000000100010010000000000000000000000F0010000007540800320150827000101 00000000000000000000000000000000000000000000000000000000000000000000000000000000000000000000000000000000000000000N 00000000000NCONT   00    00000000000          00000000000000000000000000000000000000000000 000000000000000A000000000000000000000000000000000000000000000 000000000000000000000000000000000000000     00000000                                                                                                                        000000000000000000
F0010000007540800004000090007142100023658300000000000000000201508270002001TODO BELLEZA Y MAX S.A.S                          C000000000099600000000000000000000100010010000000000000000000000F0010000007540800420150827000101 00000000000000000000000000000000000000000000000000000000000000000000000000000000000000000000000000000000000000000N 00000000000NCONT   00    00000000000          00000000000000000000000000000000000000000000 000000000000000A000000000000000000000000000000000000000000000 000000000000000000000000000000000000000     00000000                                                                                                                        000000000000000000
F0010000007540800005000090007142100013552100000000000000000201508270002001TODO BELLEZA Y MAX S.A.S                          D000000000099600000000000000000000100010010000000000000000000000F0010000007540800520150827000101 00000000000000000000000000000000000000000000000000000000000000000000000000000000000000000000000000000000000000000N 00000000000NCONT   00    00000000000          00000000000000000000000000000000000000000000 000000000000000A000000000000000000000000000000000000000000000 000000000000000000000000000000000000000     00000000                                                                                                                        000000000000000000
F0010000007540900001000090007142100011050500000000000000000201508270002001TODO BELLEZA Y MAX S.A.S                          D000000015550000000000000000000000100010010000000000000000000000F0010000007540900120150827000101 00000000000000000000000000000000000000000000000000000000000000000000000000000000000000000000000000000000000000000N 00000000000NCONT   00    00000000000          00000000000000000000000000000000000000000000 000000000000000A000000000000000000000000000000000000000000000 000000000000000000000000000000000000000     00000000                                                                                                                        000000000000000000
F0010000007540900002000090007142100041450500000000000000000201508270002001TODO BELLEZA Y MAX S.A.S                          C000000015400000000000000000000000100010010000000000000000000000F0010000007540900220150827000101 00000000000000000000000000000000000000000000000000000000000000000000000000000000000000000000000000000000000000000N 00000000000NCONT   00    00000000000          00000000000000000000000000000000000000000000 000000000000000A000000000000000000000000000000000000000000000 000000000000000000000000000000000000000     00000000                                                                                                                        000000000000000000
F0010000007540900003000090007142100042505000000000000000000201508270002001TODO BELLEZA Y MAX S.A.S                          C000000000150000000000000000000000100010010000000000000000000000F0010000007540900320150827000101 00000000000000000000000000000000000000000000000000000000000000000000000000000000000000000000000000000000000000000N 00000000000NCONT   00    00000000000          00000000000000000000000000000000000000000000 000000000000000A000000000000000000000000000000000000000000000 000000000000000000000000000000000000000     00000000                                                                                                                        000000000000000000
F0010000007540900004000090007142100023658300000000000000000201508270002001TODO BELLEZA Y MAX S.A.S                          C000000000123200000000000000000000100010010000000000000000000000F0010000007540900420150827000101 00000000000000000000000000000000000000000000000000000000000000000000000000000000000000000000000000000000000000000N 00000000000NCONT   00    00000000000          00000000000000000000000000000000000000000000 000000000000000A000000000000000000000000000000000000000000000 000000000000000000000000000000000000000     00000000                                                                                                                        000000000000000000
F0010000007540900005000090007142100013552100000000000000000201508270002001TODO BELLEZA Y MAX S.A.S                          D000000000123200000000000000000000100010010000000000000000000000F0010000007540900520150827000101 00000000000000000000000000000000000000000000000000000000000000000000000000000000000000000000000000000000000000000N 00000000000NCONT   00    00000000000          00000000000000000000000000000000000000000000 000000000000000A000000000000000000000000000000000000000000000 000000000000000000000000000000000000000     00000000                                                                                                                        000000000000000000
F0010000007541000001000090007142100011050500000000000000000201508270002001TODO BELLEZA Y MAX S.A.S                          D000000000855000000000000000000000100010010000000000000000000000F0010000007541000120150827000101 00000000000000000000000000000000000000000000000000000000000000000000000000000000000000000000000000000000000000000N 00000000000NCONT   00    00000000000          00000000000000000000000000000000000000000000 000000000000000A000000000000000000000000000000000000000000000 000000000000000000000000000000000000000     00000000                                                                                                                        000000000000000000
F0010000007541000002000090007142100041450500000000000000000201508270002001TODO BELLEZA Y MAX S.A.S                          C000000000830000000000000000000000100010010000000000000000000000F0010000007541000220150827000101 00000000000000000000000000000000000000000000000000000000000000000000000000000000000000000000000000000000000000000N 00000000000NCONT   00    00000000000          00000000000000000000000000000000000000000000 000000000000000A000000000000000000000000000000000000000000000 000000000000000000000000000000000000000     00000000                                                                                                                        000000000000000000
F0010000007541000003000090007142100042505000000000000000000201508270002001TODO BELLEZA Y MAX S.A.S                          C000000000025000000000000000000000100010010000000000000000000000F0010000007541000320150827000101 00000000000000000000000000000000000000000000000000000000000000000000000000000000000000000000000000000000000000000N 00000000000NCONT   00    00000000000          00000000000000000000000000000000000000000000 000000000000000A000000000000000000000000000000000000000000000 000000000000000000000000000000000000000     00000000                                                                                                                        000000000000000000
F0010000007541000004000090007142100023658300000000000000000201508270002001TODO BELLEZA Y MAX S.A.S                          C000000000006600000000000000000000100010010000000000000000000000F0010000007541000420150827000101 00000000000000000000000000000000000000000000000000000000000000000000000000000000000000000000000000000000000000000N 00000000000NCONT   00    00000000000          00000000000000000000000000000000000000000000 000000000000000A000000000000000000000000000000000000000000000 000000000000000000000000000000000000000     00000000                                                                                                                        000000000000000000
F0010000007541000005000090007142100013552100000000000000000201508270002001TODO BELLEZA Y MAX S.A.S                          D000000000006600000000000000000000100010010000000000000000000000F0010000007541000520150827000101 00000000000000000000000000000000000000000000000000000000000000000000000000000000000000000000000000000000000000000N 00000000000NCONT   00    00000000000          00000000000000000000000000000000000000000000 000000000000000A000000000000000000000000000000000000000000000 000000000000000000000000000000000000000     00000000                                                                                                                        000000000000000000
F0010000007541100001000007229328500011050500000000000000000201508270002001PV ELECTRIC   DEL CARIBE                          D000000001100000000000000000000000100010010000000000000000000000F0010000007541100120150827000101 00000000000000000000000000000000000000000000000000000000000000000000000000000000000000000000000000000000000000000N 00000000000NCONT   00    00000000000          00000000000000000000000000000000000000000000 000000000000000A000000000000000000000000000000000000000000000 000000000000000000000000000000000000000     00000000                                                                                                                        000000000000000000
F0010000007541100002000007229328500041450500000000000000000201508270002001PV ELECTRIC   DEL CARIBE                          C000000001000000000000000000000000100010010000000000000000000000F0010000007541100220150827000101 00000000000000000000000000000000000000000000000000000000000000000000000000000000000000000000000000000000000000000N 00000000000NCONT   00    00000000000          00000000000000000000000000000000000000000000 000000000000000A000000000000000000000000000000000000000000000 000000000000000000000000000000000000000     00000000                                                                                                                        000000000000000000
F0010000007541100003000007229328500042505000000000000000000201508270002001PV ELECTRIC   DEL CARIBE                          C000000000100000000000000000000000100010010000000000000000000000F0010000007541100320150827000101 00000000000000000000000000000000000000000000000000000000000000000000000000000000000000000000000000000000000000000N 00000000000NCONT   00    00000000000          00000000000000000000000000000000000000000000 000000000000000A000000000000000000000000000000000000000000000 000000000000000000000000000000000000000     00000000                                                                                                                        000000000000000000
F0010000007541100004000007229328500023658300000000000000000201508270002001PV ELECTRIC   DEL CARIBE                          C000000000008000000000000000000000100010010000000000000000000000F0010000007541100420150827000101 00000000000000000000000000000000000000000000000000000000000000000000000000000000000000000000000000000000000000000N 00000000000NCONT   00    00000000000          00000000000000000000000000000000000000000000 000000000000000A000000000000000000000000000000000000000000000 000000000000000000000000000000000000000     00000000                                                                                                                        000000000000000000
F0010000007541100005000007229328500013552100000000000000000201508270002001PV ELECTRIC   DEL CARIBE                          D000000000008000000000000000000000100010010000000000000000000000F0010000007541100520150827000101 00000000000000000000000000000000000000000000000000000000000000000000000000000000000000000000000000000000000000000N 00000000000NCONT   00    00000000000          00000000000000000000000000000000000000000000 000000000000000A000000000000000000000000000000000000000000000 000000000000000000000000000000000000000     00000000                                                                                                                        000000000000000000
F0010000007541200001000007229328500011050500000000000000000201508270002001PV ELECTRIC   DEL CARIBE                          D000000003000000000000000000000000100010010000000000000000000000F0010000007541200120150827000101 00000000000000000000000000000000000000000000000000000000000000000000000000000000000000000000000000000000000000000N 00000000000NCONT   00    00000000000          00000000000000000000000000000000000000000000 000000000000000A000000000000000000000000000000000000000000000 000000000000000000000000000000000000000     00000000                                                                                                                        000000000000000000
F0010000007541200002000007229328500041450500000000000000000201508270002001PV ELECTRIC   DEL CARIBE                          C000000002700000000000000000000000100010010000000000000000000000F0010000007541200220150827000101 00000000000000000000000000000000000000000000000000000000000000000000000000000000000000000000000000000000000000000N 00000000000NCONT   00    00000000000          00000000000000000000000000000000000000000000 000000000000000A000000000000000000000000000000000000000000000 000000000000000000000000000000000000000     00000000                                                                                                                        000000000000000000
F0010000007541200003000007229328500042505000000000000000000201508270002001PV ELECTRIC   DEL CARIBE                          C000000000300000000000000000000000100010010000000000000000000000F0010000007541200320150827000101 00000000000000000000000000000000000000000000000000000000000000000000000000000000000000000000000000000000000000000N 00000000000NCONT   00    00000000000          00000000000000000000000000000000000000000000 000000000000000A000000000000000000000000000000000000000000000 000000000000000000000000000000000000000     00000000                                                                                                                        000000000000000000
F0010000007541200004000007229328500023658300000000000000000201508270002001PV ELECTRIC   DEL CARIBE                          C000000000021600000000000000000000100010010000000000000000000000F0010000007541200420150827000101 00000000000000000000000000000000000000000000000000000000000000000000000000000000000000000000000000000000000000000N 00000000000NCONT   00    00000000000          00000000000000000000000000000000000000000000 000000000000000A000000000000000000000000000000000000000000000 000000000000000000000000000000000000000     00000000                                                                                                                        000000000000000000
F0010000007541200005000007229328500013552100000000000000000201508270002001PV ELECTRIC   DEL CARIBE                          D000000000021600000000000000000000100010010000000000000000000000F0010000007541200520150827000101 00000000000000000000000000000000000000000000000000000000000000000000000000000000000000000000000000000000000000000N 00000000000NCONT   00    00000000000          00000000000000000000000000000000000000000000 000000000000000A000000000000000000000000000000000000000000000 000000000000000000000000000000000000000     00000000                                                                                                                        000000000000000000
F0010000007541300001000080014190300011050500000000000000000201508270002001QUIMINSA LTDA                                     D000000003450000000000000000000000100010010000000000000000000000F0010000007541300120150827000101 00000000000000000000000000000000000000000000000000000000000000000000000000000000000000000000000000000000000000000N 00000000000NCONT   00    00000000000          00000000000000000000000000000000000000000000 000000000000000A000000000000000000000000000000000000000000000 000000000000000000000000000000000000000     00000000                                                                                                                        000000000000000000
F0010000007541300002000080014190300041450500000000000000000201508270002001QUIMINSA LTDA                                     C000000003320000000000000000000000100010010000000000000000000000F0010000007541300220150827000101 00000000000000000000000000000000000000000000000000000000000000000000000000000000000000000000000000000000000000000N 00000000000NCONT   00    00000000000          00000000000000000000000000000000000000000000 000000000000000A000000000000000000000000000000000000000000000 000000000000000000000000000000000000000     00000000                                                                                                                        000000000000000000
F0010000007541300003000080014190300042505000000000000000000201508270002001QUIMINSA LTDA                                     C000000000130000000000000000000000100010010000000000000000000000F0010000007541300320150827000101 00000000000000000000000000000000000000000000000000000000000000000000000000000000000000000000000000000000000000000N 00000000000NCONT   00    00000000000          00000000000000000000000000000000000000000000 000000000000000A000000000000000000000000000000000000000000000 000000000000000000000000000000000000000     00000000                                                                                                                        000000000000000000
F0010000007541300004000080014190300023658300000000000000000201508270002001QUIMINSA LTDA                                     C000000000026600000000000000000000100010010000000000000000000000F0010000007541300420150827000101 00000000000000000000000000000000000000000000000000000000000000000000000000000000000000000000000000000000000000000N 00000000000NCONT   00    00000000000          00000000000000000000000000000000000000000000 000000000000000A000000000000000000000000000000000000000000000 000000000000000000000000000000000000000     00000000                                                                                                                        000000000000000000
F0010000007541300005000080014190300013552100000000000000000201508270002001QUIMINSA LTDA                                     D000000000026600000000000000000000100010010000000000000000000000F0010000007541300520150827000101 00000000000000000000000000000000000000000000000000000000000000000000000000000000000000000000000000000000000000000N 00000000000NCONT   00    00000000000          00000000000000000000000000000000000000000000 000000000000000A000000000000000000000000000000000000000000000 000000000000000000000000000000000000000     00000000                                                                                                                        000000000000000000
F0010000007541400001000080201703900011050500000000000000000201508270002001MUNDIAL CHEMICAL LTDA                             D000000002900000000000000000000000100010010000000000000000000000F0010000007541400120150827000101 00000000000000000000000000000000000000000000000000000000000000000000000000000000000000000000000000000000000000000N 00000000000NCONT   00    00000000000          00000000000000000000000000000000000000000000 000000000000000A000000000000000000000000000000000000000000000 000000000000000000000000000000000000000     00000000                                                                                                                        000000000000000000
F0010000007541400002000080201703900041450500000000000000000201508270002001MUNDIAL CHEMICAL LTDA                             C000000002800000000000000000000000100010010000000000000000000000F0010000007541400220150827000101 00000000000000000000000000000000000000000000000000000000000000000000000000000000000000000000000000000000000000000N 00000000000NCONT   00    00000000000          00000000000000000000000000000000000000000000 000000000000000A000000000000000000000000000000000000000000000 000000000000000000000000000000000000000     00000000                                                                                                                        000000000000000000
F0010000007541400003000080201703900042505000000000000000000201508270002001MUNDIAL CHEMICAL LTDA                             C000000000100000000000000000000000100010010000000000000000000000F0010000007541400320150827000101 00000000000000000000000000000000000000000000000000000000000000000000000000000000000000000000000000000000000000000N 00000000000NCONT   00    00000000000          00000000000000000000000000000000000000000000 000000000000000A000000000000000000000000000000000000000000000 000000000000000000000000000000000000000     00000000                                                                                                                        000000000000000000
F0010000007541400004000080201703900023658300000000000000000201508270002001MUNDIAL CHEMICAL LTDA                             C000000000022400000000000000000000100010010000000000000000000000F0010000007541400420150827000101 00000000000000000000000000000000000000000000000000000000000000000000000000000000000000000000000000000000000000000N 00000000000NCONT   00    00000000000          00000000000000000000000000000000000000000000 000000000000000A000000000000000000000000000000000000000000000 000000000000000000000000000000000000000     00000000                                                                                                                        000000000000000000
F0010000007541400005000080201703900013552100000000000000000201508270002001MUNDIAL CHEMICAL LTDA                             D000000000022400000000000000000000100010010000000000000000000000F0010000007541400520150827000101 00000000000000000000000000000000000000000000000000000000000000000000000000000000000000000000000000000000000000000N 00000000000NCONT   00    00000000000          00000000000000000000000000000000000000000000 000000000000000A000000000000000000000000000000000000000000000 000000000000000000000000000000000000000     00000000                                                                                                                        000000000000000000
F0010000007541500001000104501677500011050500000000000000000201508270002001MONICA CECILIA GIRALDO ZULUAGA                    D000000085000000000000000000000000100010010000000000000000000000F0010000007541500120150827000101 00000000000000000000000000000000000000000000000000000000000000000000000000000000000000000000000000000000000000000N 00000000000NCONT   00    00000000000          00000000000000000000000000000000000000000000 000000000000000A000000000000000000000000000000000000000000000 000000000000000000000000000000000000000     00000000                                                                                                                        000000000000000000
F0010000007541500002000104501677500041450500000000000000000201508270002001MONICA CECILIA GIRALDO ZULUAGA                    C000000070000000000000000000000000100010010000000000000000000000F0010000007541500220150827000101 00000000000000000000000000000000000000000000000000000000000000000000000000000000000000000000000000000000000000000N 00000000000NCONT   00    00000000000          00000000000000000000000000000000000000000000 000000000000000A000000000000000000000000000000000000000000000 000000000000000000000000000000000000000     00000000                                                                                                                        000000000000000000
F0010000007541500003000104501677500042505000000000000000000201508270002001MONICA CECILIA GIRALDO ZULUAGA                    C000000015000000000000000000000000100010010000000000000000000000F0010000007541500320150827000101 00000000000000000000000000000000000000000000000000000000000000000000000000000000000000000000000000000000000000000N 00000000000NCONT   00    00000000000          00000000000000000000000000000000000000000000 000000000000000A000000000000000000000000000000000000000000000 000000000000000000000000000000000000000     00000000                                                                                                                        000000000000000000
F0010000007541500004000104501677500023658300000000000000000201508270002001MONICA CECILIA GIRALDO ZULUAGA                    C000000000560000000000000000000000100010010000000000000000000000F0010000007541500420150827000101 00000000000000000000000000000000000000000000000000000000000000000000000000000000000000000000000000000000000000000N 00000000000NCONT   00    00000000000          00000000000000000000000000000000000000000000 000000000000000A000000000000000000000000000000000000000000000 000000000000000000000000000000000000000     00000000                                                                                                                        000000000000000000
F0010000007541500005000104501677500013552100000000000000000201508270002001MONICA CECILIA GIRALDO ZULUAGA                    D000000000560000000000000000000000100010010000000000000000000000F0010000007541500520150827000101 00000000000000000000000000000000000000000000000000000000000000000000000000000000000000000000000000000000000000000N 00000000000NCONT   00    00000000000          00000000000000000000000000000000000000000000 000000000000000A000000000000000000000000000000000000000000000 000000000000000000000000000000000000000     00000000                                                                                                                        000000000000000000
F0010000007541600001000001022529300011050500000000000000000201508270002001ALBERTO ALVAREZ ISAZA                             D000000001050000000000000000000000100010010000000000000000000000F0010000007541600120150827000101 00000000000000000000000000000000000000000000000000000000000000000000000000000000000000000000000000000000000000000N 00000000000NCONT   00    00000000000          00000000000000000000000000000000000000000000 000000000000000A000000000000000000000000000000000000000000000 000000000000000000000000000000000000000     00000000                                                                                                                        000000000000000000
F0010000007541600002000001022529300041450500000000000000000201508270002001ALBERTO ALVAREZ ISAZA                             C000000001050000000000000000000000100010010000000000000000000000F0010000007541600220150827000101 00000000000000000000000000000000000000000000000000000000000000000000000000000000000000000000000000000000000000000N 00000000000NCONT   00    00000000000          00000000000000000000000000000000000000000000 000000000000000A000000000000000000000000000000000000000000000 000000000000000000000000000000000000000     00000000                                                                                                                        000000000000000000
F0010000007541600003000001022529300042505000000000000000000201508270002001ALBERTO ALVAREZ ISAZA                             C000000000000000000000000000000000100010010000000000000000000000F0010000007541600320150827000101 00000000000000000000000000000000000000000000000000000000000000000000000000000000000000000000000000000000000000000N 00000000000NCONT   00    00000000000          00000000000000000000000000000000000000000000 000000000000000A000000000000000000000000000000000000000000000 000000000000000000000000000000000000000     00000000                                                                                                                        000000000000000000
F0010000007541600004000001022529300023658300000000000000000201508270002001ALBERTO ALVAREZ ISAZA                             C000000000008400000000000000000000100010010000000000000000000000F0010000007541600420150827000101 00000000000000000000000000000000000000000000000000000000000000000000000000000000000000000000000000000000000000000N 00000000000NCONT   00    00000000000          00000000000000000000000000000000000000000000 000000000000000A000000000000000000000000000000000000000000000 000000000000000000000000000000000000000     00000000                                                                                                                        000000000000000000
F0010000007541600005000001022529300013552100000000000000000201508270002001ALBERTO ALVAREZ ISAZA                             D000000000008400000000000000000000100010010000000000000000000000F0010000007541600520150827000101 00000000000000000000000000000000000000000000000000000000000000000000000000000000000000000000000000000000000000000N 00000000000NCONT   00    00000000000          00000000000000000000000000000000000000000000 000000000000000A000000000000000000000000000000000000000000000 000000000000000000000000000000000000000     00000000                                                                                                                        000000000000000000
F0010000007541700001000001022529300011050500000000000000000201508270002001ALBERTO ALVAREZ ISAZA                             D000000000350000000000000000000000100010010000000000000000000000F0010000007541700120150827000101 00000000000000000000000000000000000000000000000000000000000000000000000000000000000000000000000000000000000000000N 00000000000NCONT   00    00000000000          00000000000000000000000000000000000000000000 000000000000000A000000000000000000000000000000000000000000000 000000000000000000000000000000000000000     00000000                                                                                                                        000000000000000000
F0010000007541700002000001022529300041450500000000000000000201508270002001ALBERTO ALVAREZ ISAZA                             C000000000350000000000000000000000100010010000000000000000000000F0010000007541700220150827000101 00000000000000000000000000000000000000000000000000000000000000000000000000000000000000000000000000000000000000000N 00000000000NCONT   00    00000000000          00000000000000000000000000000000000000000000 000000000000000A000000000000000000000000000000000000000000000 000000000000000000000000000000000000000     00000000                                                                                                                        000000000000000000
F0010000007541700003000001022529300042505000000000000000000201508270002001ALBERTO ALVAREZ ISAZA                             C000000000000000000000000000000000100010010000000000000000000000F0010000007541700320150827000101 00000000000000000000000000000000000000000000000000000000000000000000000000000000000000000000000000000000000000000N 00000000000NCONT   00    00000000000          00000000000000000000000000000000000000000000 000000000000000A000000000000000000000000000000000000000000000 000000000000000000000000000000000000000     00000000                                                                                                                        000000000000000000
F0010000007541700004000001022529300023658300000000000000000201508270002001ALBERTO ALVAREZ ISAZA                             C000000000002800000000000000000000100010010000000000000000000000F0010000007541700420150827000101 00000000000000000000000000000000000000000000000000000000000000000000000000000000000000000000000000000000000000000N 00000000000NCONT   00    00000000000          00000000000000000000000000000000000000000000 000000000000000A000000000000000000000000000000000000000000000 000000000000000000000000000000000000000     00000000                                                                                                                        000000000000000000
F0010000007541700005000001022529300013552100000000000000000201508270002001ALBERTO ALVAREZ ISAZA                             D000000000002800000000000000000000100010010000000000000000000000F0010000007541700520150827000101 00000000000000000000000000000000000000000000000000000000000000000000000000000000000000000000000000000000000000000N 00000000000NCONT   00    00000000000          00000000000000000000000000000000000000000000 000000000000000A000000000000000000000000000000000000000000000 000000000000000000000000000000000000000     00000000                                                                                                                        000000000000000000
F0010000007541800001000001022529300011050500000000000000000201508270002001ALBERTO ALVAREZ ISAZA                             D000000000700000000000000000000000100010010000000000000000000000F0010000007541800120150827000101 00000000000000000000000000000000000000000000000000000000000000000000000000000000000000000000000000000000000000000N 00000000000NCONT   00    00000000000          00000000000000000000000000000000000000000000 000000000000000A000000000000000000000000000000000000000000000 000000000000000000000000000000000000000     00000000                                                                                                                        000000000000000000
F0010000007541800002000001022529300041450500000000000000000201508270002001ALBERTO ALVAREZ ISAZA                             C000000000700000000000000000000000100010010000000000000000000000F0010000007541800220150827000101 00000000000000000000000000000000000000000000000000000000000000000000000000000000000000000000000000000000000000000N 00000000000NCONT   00    00000000000          00000000000000000000000000000000000000000000 000000000000000A000000000000000000000000000000000000000000000 000000000000000000000000000000000000000     00000000                                                                                                                        000000000000000000
F0010000007541800003000001022529300042505000000000000000000201508270002001ALBERTO ALVAREZ ISAZA                             C000000000000000000000000000000000100010010000000000000000000000F0010000007541800320150827000101 00000000000000000000000000000000000000000000000000000000000000000000000000000000000000000000000000000000000000000N 00000000000NCONT   00    00000000000          00000000000000000000000000000000000000000000 000000000000000A000000000000000000000000000000000000000000000 000000000000000000000000000000000000000     00000000                                                                                                                        000000000000000000
F0010000007541800004000001022529300023658300000000000000000201508270002001ALBERTO ALVAREZ ISAZA                             C000000000005600000000000000000000100010010000000000000000000000F0010000007541800420150827000101 00000000000000000000000000000000000000000000000000000000000000000000000000000000000000000000000000000000000000000N 00000000000NCONT   00    00000000000          00000000000000000000000000000000000000000000 000000000000000A000000000000000000000000000000000000000000000 000000000000000000000000000000000000000     00000000                                                                                                                        000000000000000000
F0010000007541800005000001022529300013552100000000000000000201508270002001ALBERTO ALVAREZ ISAZA                             D000000000005600000000000000000000100010010000000000000000000000F0010000007541800520150827000101 00000000000000000000000000000000000000000000000000000000000000000000000000000000000000000000000000000000000000000N 00000000000NCONT   00    00000000000          00000000000000000000000000000000000000000000 000000000000000A000000000000000000000000000000000000000000000 000000000000000000000000000000000000000     00000000                                                                                                                        000000000000000000
F0010000007541900001000001022529300011050500000000000000000201508270002001ALBERTO ALVAREZ ISAZA                             D000000001050000000000000000000000100010010000000000000000000000F0010000007541900120150827000101 00000000000000000000000000000000000000000000000000000000000000000000000000000000000000000000000000000000000000000N 00000000000NCONT   00    00000000000          00000000000000000000000000000000000000000000 000000000000000A000000000000000000000000000000000000000000000 000000000000000000000000000000000000000     00000000                                                                                                                        000000000000000000
F0010000007541900002000001022529300041450500000000000000000201508270002001ALBERTO ALVAREZ ISAZA                             C000000001050000000000000000000000100010010000000000000000000000F0010000007541900220150827000101 00000000000000000000000000000000000000000000000000000000000000000000000000000000000000000000000000000000000000000N 00000000000NCONT   00    00000000000          00000000000000000000000000000000000000000000 000000000000000A000000000000000000000000000000000000000000000 000000000000000000000000000000000000000     00000000                                                                                                                        000000000000000000
