F0010000009033000001000002245670100013050500000000000000000201608250002001YOLANDA  TOBON                                    D000000016065000000000000000000000100010010000000000000000000000F0010000009033000120160825000101 00000000000000000000000000000000000000000000000000000000000000000000000000000000000000000000000000000000000000000N 00000000000NCONT   00    00000000000          00000000000000000000000000000000000000000000 000000000000000A000000000000000000000000000000000000000000000 000000000000000000000000000000000000000     00000000                                                                                                                        000000000000000000
F0010000009033000002000002245670100041450500000000000000000201608250002001YOLANDA  TOBON                                    C000000012600000000000000000000000100010010000000000000000000000F0010000009033000220160825000101 00000000000000000000000000000000000000000000000000000000000000000000000000000000000000000000000000000000000000000N 00000000000NCONT   00    00000000000          00000000000000000000000000000000000000000000 000000000000000A000000000000000000000000000000000000000000000 000000000000000000000000000000000000000     00000000                                                                                                                        000000000000000000
F0010000009033000003000002245670100042505000000000000000000201608250002001YOLANDA  TOBON                                    C000000003465000000000000000000000100010010000000000000000000000F0010000009033000320160825000101 00000000000000000000000000000000000000000000000000000000000000000000000000000000000000000000000000000000000000000N 00000000000NCONT   00    00000000000          00000000000000000000000000000000000000000000 000000000000000A000000000000000000000000000000000000000000000 000000000000000000000000000000000000000     00000000                                                                                                                        000000000000000000
F0010000009033000004000002245670100023658300000000000000000201608250002001YOLANDA  TOBON                                    C000000000100800000000000000000000100010010000000000000000000000F0010000009033000420160825000101 00000000000000000000000000000000000000000000000000000000000000000000000000000000000000000000000000000000000000000N 00000000000NCONT   00    00000000000          00000000000000000000000000000000000000000000 000000000000000A000000000000000000000000000000000000000000000 000000000000000000000000000000000000000     00000000                                                                                                                        000000000000000000
F0010000009033000005000002245670100013552100000000000000000201608250002001YOLANDA  TOBON                                    D000000000100800000000000000000000100010010000000000000000000000F0010000009033000520160825000101 00000000000000000000000000000000000000000000000000000000000000000000000000000000000000000000000000000000000000000N 00000000000NCONT   00    00000000000          00000000000000000000000000000000000000000000 000000000000000A000000000000000000000000000000000000000000000 000000000000000000000000000000000000000     00000000                                                                                                                        000000000000000000
F0010000009033100001000002258669400013050500000000000000000201608250002001YURY PAOLA  SANTAMARIA ..                         D000000011880000000000000000000000100010010000000000000000000000F0010000009033100120160825000101 00000000000000000000000000000000000000000000000000000000000000000000000000000000000000000000000000000000000000000N 00000000000NCONT   00    00000000000          00000000000000000000000000000000000000000000 000000000000000A000000000000000000000000000000000000000000000 000000000000000000000000000000000000000     00000000                                                                                                                        000000000000000000
F0010000009033100002000002258669400041450500000000000000000201608250002001YURY PAOLA  SANTAMARIA ..                         C000000009330000000000000000000000100010010000000000000000000000F0010000009033100220160825000101 00000000000000000000000000000000000000000000000000000000000000000000000000000000000000000000000000000000000000000N 00000000000NCONT   00    00000000000          00000000000000000000000000000000000000000000 000000000000000A000000000000000000000000000000000000000000000 000000000000000000000000000000000000000     00000000                                                                                                                        000000000000000000
F0010000009033100003000002258669400042505000000000000000000201608250002001YURY PAOLA  SANTAMARIA ..                         C000000002550000000000000000000000100010010000000000000000000000F0010000009033100320160825000101 00000000000000000000000000000000000000000000000000000000000000000000000000000000000000000000000000000000000000000N 00000000000NCONT   00    00000000000          00000000000000000000000000000000000000000000 000000000000000A000000000000000000000000000000000000000000000 000000000000000000000000000000000000000     00000000                                                                                                                        000000000000000000
F0010000009033100004000002258669400023658300000000000000000201608250002001YURY PAOLA  SANTAMARIA ..                         C000000000074600000000000000000000100010010000000000000000000000F0010000009033100420160825000101 00000000000000000000000000000000000000000000000000000000000000000000000000000000000000000000000000000000000000000N 00000000000NCONT   00    00000000000          00000000000000000000000000000000000000000000 000000000000000A000000000000000000000000000000000000000000000 000000000000000000000000000000000000000     00000000                                                                                                                        000000000000000000
F0010000009033100005000002258669400013552100000000000000000201608250002001YURY PAOLA  SANTAMARIA ..                         D000000000074600000000000000000000100010010000000000000000000000F0010000009033100520160825000101 00000000000000000000000000000000000000000000000000000000000000000000000000000000000000000000000000000000000000000N 00000000000NCONT   00    00000000000          00000000000000000000000000000000000000000000 000000000000000A000000000000000000000000000000000000000000000 000000000000000000000000000000000000000     00000000                                                                                                                        000000000000000000
F0010000009033200001000080200608400013050500000000000000000201608250002001HIT DISTRIBUCIONES SAS                            D000000023410000000000000000000000100010010000000000000000000000F0010000009033200120160825000101 00000000000000000000000000000000000000000000000000000000000000000000000000000000000000000000000000000000000000000N 00000000000NCONT   00    00000000000          00000000000000000000000000000000000000000000 000000000000000A000000000000000000000000000000000000000000000 000000000000000000000000000000000000000     00000000                                                                                                                        000000000000000000
F0010000009033200002000080200608400041450500000000000000000201608250002001HIT DISTRIBUCIONES SAS                            C000000020100000000000000000000000100010010000000000000000000000F0010000009033200220160825000101 00000000000000000000000000000000000000000000000000000000000000000000000000000000000000000000000000000000000000000N 00000000000NCONT   00    00000000000          00000000000000000000000000000000000000000000 000000000000000A000000000000000000000000000000000000000000000 000000000000000000000000000000000000000     00000000                                                                                                                        000000000000000000
F0010000009033200003000080200608400042505000000000000000000201608250002001HIT DISTRIBUCIONES SAS                            C000000003310000000000000000000000100010010000000000000000000000F0010000009033200320160825000101 00000000000000000000000000000000000000000000000000000000000000000000000000000000000000000000000000000000000000000N 00000000000NCONT   00    00000000000          00000000000000000000000000000000000000000000 000000000000000A000000000000000000000000000000000000000000000 000000000000000000000000000000000000000     00000000                                                                                                                        000000000000000000
F0010000009033200004000080200608400023658300000000000000000201608250002001HIT DISTRIBUCIONES SAS                            C000000000160800000000000000000000100010010000000000000000000000F0010000009033200420160825000101 00000000000000000000000000000000000000000000000000000000000000000000000000000000000000000000000000000000000000000N 00000000000NCONT   00    00000000000          00000000000000000000000000000000000000000000 000000000000000A000000000000000000000000000000000000000000000 000000000000000000000000000000000000000     00000000                                                                                                                        000000000000000000
F0010000009033200005000080200608400013552100000000000000000201608250002001HIT DISTRIBUCIONES SAS                            D000000000160800000000000000000000100010010000000000000000000000F0010000009033200520160825000101 00000000000000000000000000000000000000000000000000000000000000000000000000000000000000000000000000000000000000000N 00000000000NCONT   00    00000000000          00000000000000000000000000000000000000000000 000000000000000A000000000000000000000000000000000000000000000 000000000000000000000000000000000000000     00000000                                                                                                                        000000000000000000
F0010000009033300001000080019113900013050500000000000000000201608250002001COMERCIAL NOVAPEL LTDA                            D000000027740000000000000000000000100010010000000000000000000000F0010000009033300120160825000101 00000000000000000000000000000000000000000000000000000000000000000000000000000000000000000000000000000000000000000N 00000000000NCONT   00    00000000000          00000000000000000000000000000000000000000000 000000000000000A000000000000000000000000000000000000000000000 000000000000000000000000000000000000000     00000000                                                                                                                        000000000000000000
F0010000009033300002000080019113900041450500000000000000000201608250002001COMERCIAL NOVAPEL LTDA                            C000000023000000000000000000000000100010010000000000000000000000F0010000009033300220160825000101 00000000000000000000000000000000000000000000000000000000000000000000000000000000000000000000000000000000000000000N 00000000000NCONT   00    00000000000          00000000000000000000000000000000000000000000 000000000000000A000000000000000000000000000000000000000000000 000000000000000000000000000000000000000     00000000                                                                                                                        000000000000000000
F0010000009033300003000080019113900042505000000000000000000201608250002001COMERCIAL NOVAPEL LTDA                            C000000004740000000000000000000000100010010000000000000000000000F0010000009033300320160825000101 00000000000000000000000000000000000000000000000000000000000000000000000000000000000000000000000000000000000000000N 00000000000NCONT   00    00000000000          00000000000000000000000000000000000000000000 000000000000000A000000000000000000000000000000000000000000000 000000000000000000000000000000000000000     00000000                                                                                                                        000000000000000000
F0010000009033300004000080019113900023658300000000000000000201608250002001COMERCIAL NOVAPEL LTDA                            C000000000184000000000000000000000100010010000000000000000000000F0010000009033300420160825000101 00000000000000000000000000000000000000000000000000000000000000000000000000000000000000000000000000000000000000000N 00000000000NCONT   00    00000000000          00000000000000000000000000000000000000000000 000000000000000A000000000000000000000000000000000000000000000 000000000000000000000000000000000000000     00000000                                                                                                                        000000000000000000
F0010000009033300005000080019113900013552100000000000000000201608250002001COMERCIAL NOVAPEL LTDA                            D000000000184000000000000000000000100010010000000000000000000000F0010000009033300520160825000101 00000000000000000000000000000000000000000000000000000000000000000000000000000000000000000000000000000000000000000N 00000000000NCONT   00    00000000000          00000000000000000000000000000000000000000000 000000000000000A000000000000000000000000000000000000000000000 000000000000000000000000000000000000000     00000000                                                                                                                        000000000000000000
F0010000009033400001000090050863700013050500000000000000000201608250002001COMERCIALIZADORA PERFECT SAS                      D000000023033500000000000000000000100010010000000000000000000000F0010000009033400120160825000101 00000000000000000000000000000000000000000000000000000000000000000000000000000000000000000000000000000000000000000N 00000000000NCONT   00    00000000000          00000000000000000000000000000000000000000000 000000000000000A000000000000000000000000000000000000000000000 000000000000000000000000000000000000000     00000000                                                                                                                        000000000000000000
F0010000009033400002000090050863700041450500000000000000000201608250002001COMERCIALIZADORA PERFECT SAS                      C000000019958500000000000000000000100010010000000000000000000000F0010000009033400220160825000101 00000000000000000000000000000000000000000000000000000000000000000000000000000000000000000000000000000000000000000N 00000000000NCONT   00    00000000000          00000000000000000000000000000000000000000000 000000000000000A000000000000000000000000000000000000000000000 000000000000000000000000000000000000000     00000000                                                                                                                        000000000000000000
F0010000009033400003000090050863700042505000000000000000000201608250002001COMERCIALIZADORA PERFECT SAS                      C000000003075000000000000000000000100010010000000000000000000000F0010000009033400320160825000101 00000000000000000000000000000000000000000000000000000000000000000000000000000000000000000000000000000000000000000N 00000000000NCONT   00    00000000000          00000000000000000000000000000000000000000000 000000000000000A000000000000000000000000000000000000000000000 000000000000000000000000000000000000000     00000000                                                                                                                        000000000000000000
F0010000009033400004000090050863700023658300000000000000000201608250002001COMERCIALIZADORA PERFECT SAS                      C000000000159700000000000000000000100010010000000000000000000000F0010000009033400420160825000101 00000000000000000000000000000000000000000000000000000000000000000000000000000000000000000000000000000000000000000N 00000000000NCONT   00    00000000000          00000000000000000000000000000000000000000000 000000000000000A000000000000000000000000000000000000000000000 000000000000000000000000000000000000000     00000000                                                                                                                        000000000000000000
F0010000009033400005000090050863700013552100000000000000000201608250002001COMERCIALIZADORA PERFECT SAS                      D000000000159700000000000000000000100010010000000000000000000000F0010000009033400520160825000101 00000000000000000000000000000000000000000000000000000000000000000000000000000000000000000000000000000000000000000N 00000000000NCONT   00    00000000000          00000000000000000000000000000000000000000000 000000000000000A000000000000000000000000000000000000000000000 000000000000000000000000000000000000000     00000000                                                                                                                        000000000000000000
F0010000009033500001000089010038800013050500000000000000000201608250002001CRISTALERIA SELMAN SAS                            D000000026800000000000000000000000100010010000000000000000000000F0010000009033500120160825000101 00000000000000000000000000000000000000000000000000000000000000000000000000000000000000000000000000000000000000000N 00000000000NCONT   00    00000000000          00000000000000000000000000000000000000000000 000000000000000A000000000000000000000000000000000000000000000 000000000000000000000000000000000000000     00000000                                                                                                                        000000000000000000
F0010000009033500002000089010038800041450500000000000000000201608250002001CRISTALERIA SELMAN SAS                            C000000024800000000000000000000000100010010000000000000000000000F0010000009033500220160825000101 00000000000000000000000000000000000000000000000000000000000000000000000000000000000000000000000000000000000000000N 00000000000NCONT   00    00000000000          00000000000000000000000000000000000000000000 000000000000000A000000000000000000000000000000000000000000000 000000000000000000000000000000000000000     00000000                                                                                                                        000000000000000000
F0010000009033500003000089010038800042505000000000000000000201608250002001CRISTALERIA SELMAN SAS                            C000000002000000000000000000000000100010010000000000000000000000F0010000009033500320160825000101 00000000000000000000000000000000000000000000000000000000000000000000000000000000000000000000000000000000000000000N 00000000000NCONT   00    00000000000          00000000000000000000000000000000000000000000 000000000000000A000000000000000000000000000000000000000000000 000000000000000000000000000000000000000     00000000                                                                                                                        000000000000000000
F0010000009033500004000089010038800023658300000000000000000201608250002001CRISTALERIA SELMAN SAS                            C000000000198400000000000000000000100010010000000000000000000000F0010000009033500420160825000101 00000000000000000000000000000000000000000000000000000000000000000000000000000000000000000000000000000000000000000N 00000000000NCONT   00    00000000000          00000000000000000000000000000000000000000000 000000000000000A000000000000000000000000000000000000000000000 000000000000000000000000000000000000000     00000000                                                                                                                        000000000000000000
F0010000009033500005000089010038800013552100000000000000000201608250002001CRISTALERIA SELMAN SAS                            D000000000198400000000000000000000100010010000000000000000000000F0010000009033500520160825000101 00000000000000000000000000000000000000000000000000000000000000000000000000000000000000000000000000000000000000000N 00000000000NCONT   00    00000000000          00000000000000000000000000000000000000000000 000000000000000A000000000000000000000000000000000000000000000 000000000000000000000000000000000000000     00000000                                                                                                                        000000000000000000
F0010000009033700001000089011492400013050500000000000000000201608250002001AGE. CAUCHO SOL DE LA COSTA  SAS                  D000000097486600000000000000000000100010010000000000000000000000F0010000009033700120160825000101 00000000000000000000000000000000000000000000000000000000000000000000000000000000000000000000000000000000000000000N 00000000000NCONT   00    00000000000          00000000000000000000000000000000000000000000 000000000000000A000000000000000000000000000000000000000000000 000000000000000000000000000000000000000     00000000                                                                                                                        000000000000000000
F0010000009033700002000089011492400041450500000000000000000201608250002001AGE. CAUCHO SOL DE LA COSTA  SAS                  C000000043160000000000000000000000100010010000000000000000000000F0010000009033700220160825000101 00000000000000000000000000000000000000000000000000000000000000000000000000000000000000000000000000000000000000000N 00000000000NCONT   00    00000000000          00000000000000000000000000000000000000000000 000000000000000A000000000000000000000000000000000000000000000 000000000000000000000000000000000000000     00000000                                                                                                                        000000000000000000
F0010000009033700003000089011492400042505000000000000000000201608250002001AGE. CAUCHO SOL DE LA COSTA  SAS                  C000000054326600000000000000000000100010010000000000000000000000F0010000009033700320160825000101 00000000000000000000000000000000000000000000000000000000000000000000000000000000000000000000000000000000000000000N 00000000000NCONT   00    00000000000          00000000000000000000000000000000000000000000 000000000000000A000000000000000000000000000000000000000000000 000000000000000000000000000000000000000     00000000                                                                                                                        000000000000000000
F0010000009033700004000089011492400023658300000000000000000201608250002001AGE. CAUCHO SOL DE LA COSTA  SAS                  C000000000345300000000000000000000100010010000000000000000000000F0010000009033700420160825000101 00000000000000000000000000000000000000000000000000000000000000000000000000000000000000000000000000000000000000000N 00000000000NCONT   00    00000000000          00000000000000000000000000000000000000000000 000000000000000A000000000000000000000000000000000000000000000 000000000000000000000000000000000000000     00000000                                                                                                                        000000000000000000
F0010000009033700005000089011492400013552100000000000000000201608250002001AGE. CAUCHO SOL DE LA COSTA  SAS                  D000000000345300000000000000000000100010010000000000000000000000F0010000009033700520160825000101 00000000000000000000000000000000000000000000000000000000000000000000000000000000000000000000000000000000000000000N 00000000000NCONT   00    00000000000          00000000000000000000000000000000000000000000 000000000000000A000000000000000000000000000000000000000000000 000000000000000000000000000000000000000     00000000                                                                                                                        000000000000000000
F0010000009033800001000007229328500013050500000000000000000201608250002001PV ELECTRIC   DEL CARIBE                          D000000021100000000000000000000000100010010000000000000000000000F0010000009033800120160825000101 00000000000000000000000000000000000000000000000000000000000000000000000000000000000000000000000000000000000000000N 00000000000NCONT   00    00000000000          00000000000000000000000000000000000000000000 000000000000000A000000000000000000000000000000000000000000000 000000000000000000000000000000000000000     00000000                                                                                                                        000000000000000000
F0010000009033800002000007229328500041450500000000000000000201608250002001PV ELECTRIC   DEL CARIBE                          C000000018900000000000000000000000100010010000000000000000000000F0010000009033800220160825000101 00000000000000000000000000000000000000000000000000000000000000000000000000000000000000000000000000000000000000000N 00000000000NCONT   00    00000000000          00000000000000000000000000000000000000000000 000000000000000A000000000000000000000000000000000000000000000 000000000000000000000000000000000000000     00000000                                                                                                                        000000000000000000
F0010000009033800003000007229328500042505000000000000000000201608250002001PV ELECTRIC   DEL CARIBE                          C000000002200000000000000000000000100010010000000000000000000000F0010000009033800320160825000101 00000000000000000000000000000000000000000000000000000000000000000000000000000000000000000000000000000000000000000N 00000000000NCONT   00    00000000000          00000000000000000000000000000000000000000000 000000000000000A000000000000000000000000000000000000000000000 000000000000000000000000000000000000000     00000000                                                                                                                        000000000000000000
F0010000009033800004000007229328500023658300000000000000000201608250002001PV ELECTRIC   DEL CARIBE                          C000000000151200000000000000000000100010010000000000000000000000F0010000009033800420160825000101 00000000000000000000000000000000000000000000000000000000000000000000000000000000000000000000000000000000000000000N 00000000000NCONT   00    00000000000          00000000000000000000000000000000000000000000 000000000000000A000000000000000000000000000000000000000000000 000000000000000000000000000000000000000     00000000                                                                                                                        000000000000000000
F0010000009033800005000007229328500013552100000000000000000201608250002001PV ELECTRIC   DEL CARIBE                          D000000000151200000000000000000000100010010000000000000000000000F0010000009033800520160825000101 00000000000000000000000000000000000000000000000000000000000000000000000000000000000000000000000000000000000000000N 00000000000NCONT   00    00000000000          00000000000000000000000000000000000000000000 000000000000000A000000000000000000000000000000000000000000000 000000000000000000000000000000000000000     00000000                                                                                                                        000000000000000000
F0010000009033900001000002257933700013050500000000000000000201608250002001ROSA MARGARITA  PUCCINI SU HERRAMIENTAS Y ELECTRICD000000002367800000000000000000000100010010000000000000000000000F0010000009033900120160825000101 00000000000000000000000000000000000000000000000000000000000000000000000000000000000000000000000000000000000000000N 00000000000NCONT   00    00000000000          00000000000000000000000000000000000000000000 000000000000000A000000000000000000000000000000000000000000000 000000000000000000000000000000000000000     00000000                                                                                                                        000000000000000000
F0010000009033900002000002257933700041450500000000000000000201608250002001ROSA MARGARITA  PUCCINI SU HERRAMIENTAS Y ELECTRICC000000001660000000000000000000000100010010000000000000000000000F0010000009033900220160825000101 00000000000000000000000000000000000000000000000000000000000000000000000000000000000000000000000000000000000000000N 00000000000NCONT   00    00000000000          00000000000000000000000000000000000000000000 000000000000000A000000000000000000000000000000000000000000000 000000000000000000000000000000000000000     00000000                                                                                                                        000000000000000000
F0010000009033900003000002257933700042505000000000000000000201608250002001ROSA MARGARITA  PUCCINI SU HERRAMIENTAS Y ELECTRICC000000000707800000000000000000000100010010000000000000000000000F0010000009033900320160825000101 00000000000000000000000000000000000000000000000000000000000000000000000000000000000000000000000000000000000000000N 00000000000NCONT   00    00000000000          00000000000000000000000000000000000000000000 000000000000000A000000000000000000000000000000000000000000000 000000000000000000000000000000000000000     00000000                                                                                                                        000000000000000000
F0010000009033900004000002257933700023658300000000000000000201608250002001ROSA MARGARITA  PUCCINI SU HERRAMIENTAS Y ELECTRICC000000000013300000000000000000000100010010000000000000000000000F0010000009033900420160825000101 00000000000000000000000000000000000000000000000000000000000000000000000000000000000000000000000000000000000000000N 00000000000NCONT   00    00000000000          00000000000000000000000000000000000000000000 000000000000000A000000000000000000000000000000000000000000000 000000000000000000000000000000000000000     00000000                                                                                                                        000000000000000000
F0010000009033900005000002257933700013552100000000000000000201608250002001ROSA MARGARITA  PUCCINI SU HERRAMIENTAS Y ELECTRICD000000000013300000000000000000000100010010000000000000000000000F0010000009033900520160825000101 00000000000000000000000000000000000000000000000000000000000000000000000000000000000000000000000000000000000000000N 00000000000NCONT   00    00000000000          00000000000000000000000000000000000000000000 000000000000000A000000000000000000000000000000000000000000000 000000000000000000000000000000000000000     00000000                                                                                                                        000000000000000000
F0010000009034000001000090008711200013050500000000000000000201608250002001PACKAGING SUPPLIERS S.A.                          D000000023864300000000000000000000100010010000000000000000000000F0010000009034000120160825000101 00000000000000000000000000000000000000000000000000000000000000000000000000000000000000000000000000000000000000000N 00000000000NCONT   00    00000000000          00000000000000000000000000000000000000000000 000000000000000A000000000000000000000000000000000000000000000 000000000000000000000000000000000000000     00000000                                                                                                                        000000000000000000
F0010000009034000002000090008711200041450500000000000000000201608250002001PACKAGING SUPPLIERS S.A.                          C000000020596800000000000000000000100010010000000000000000000000F0010000009034000220160825000101 00000000000000000000000000000000000000000000000000000000000000000000000000000000000000000000000000000000000000000N 00000000000NCONT   00    00000000000          00000000000000000000000000000000000000000000 000000000000000A000000000000000000000000000000000000000000000 000000000000000000000000000000000000000     00000000                                                                                                                        000000000000000000
F0010000009034000003000090008711200042505000000000000000000201608250002001PACKAGING SUPPLIERS S.A.                          C000000003267500000000000000000000100010010000000000000000000000F0010000009034000320160825000101 00000000000000000000000000000000000000000000000000000000000000000000000000000000000000000000000000000000000000000N 00000000000NCONT   00    00000000000          00000000000000000000000000000000000000000000 000000000000000A000000000000000000000000000000000000000000000 000000000000000000000000000000000000000     00000000                                                                                                                        000000000000000000
F0010000009034000004000090008711200023658300000000000000000201608250002001PACKAGING SUPPLIERS S.A.                          C000000000164800000000000000000000100010010000000000000000000000F0010000009034000420160825000101 00000000000000000000000000000000000000000000000000000000000000000000000000000000000000000000000000000000000000000N 00000000000NCONT   00    00000000000          00000000000000000000000000000000000000000000 000000000000000A000000000000000000000000000000000000000000000 000000000000000000000000000000000000000     00000000                                                                                                                        000000000000000000
F0010000009034000005000090008711200013552100000000000000000201608250002001PACKAGING SUPPLIERS S.A.                          D000000000164800000000000000000000100010010000000000000000000000F0010000009034000520160825000101 00000000000000000000000000000000000000000000000000000000000000000000000000000000000000000000000000000000000000000N 00000000000NCONT   00    00000000000          00000000000000000000000000000000000000000000 000000000000000A000000000000000000000000000000000000000000000 000000000000000000000000000000000000000     00000000                                                                                                                        000000000000000000
F0010000009034100001000083007900600013050500000000000000000201608250002001EXPRESO ANDINO DE CARGA SA                        D000000012100000000000000000000000100010010000000000000000000000F0010000009034100120160825000101 00000000000000000000000000000000000000000000000000000000000000000000000000000000000000000000000000000000000000000N 00000000000NCONT   00    00000000000          00000000000000000000000000000000000000000000 000000000000000A000000000000000000000000000000000000000000000 000000000000000000000000000000000000000     00000000                                                                                                                        000000000000000000
F0010000009034100002000083007900600041450500000000000000000201608250002001EXPRESO ANDINO DE CARGA SA                        C000000011500000000000000000000000100010010000000000000000000000F0010000009034100220160825000101 00000000000000000000000000000000000000000000000000000000000000000000000000000000000000000000000000000000000000000N 00000000000NCONT   00    00000000000          00000000000000000000000000000000000000000000 000000000000000A000000000000000000000000000000000000000000000 000000000000000000000000000000000000000     00000000                                                                                                                        000000000000000000
F0010000009034100003000083007900600042505000000000000000000201608250002001EXPRESO ANDINO DE CARGA SA                        C000000000600000000000000000000000100010010000000000000000000000F0010000009034100320160825000101 00000000000000000000000000000000000000000000000000000000000000000000000000000000000000000000000000000000000000000N 00000000000NCONT   00    00000000000          00000000000000000000000000000000000000000000 000000000000000A000000000000000000000000000000000000000000000 000000000000000000000000000000000000000     00000000                                                                                                                        000000000000000000
F0010000009034100004000083007900600023658300000000000000000201608250002001EXPRESO ANDINO DE CARGA SA                        C000000000092000000000000000000000100010010000000000000000000000F0010000009034100420160825000101 00000000000000000000000000000000000000000000000000000000000000000000000000000000000000000000000000000000000000000N 00000000000NCONT   00    00000000000          00000000000000000000000000000000000000000000 000000000000000A000000000000000000000000000000000000000000000 000000000000000000000000000000000000000     00000000                                                                                                                        000000000000000000
F0010000009034100005000083007900600013552100000000000000000201608250002001EXPRESO ANDINO DE CARGA SA                        D000000000092000000000000000000000100010010000000000000000000000F0010000009034100520160825000101 00000000000000000000000000000000000000000000000000000000000000000000000000000000000000000000000000000000000000000N 00000000000NCONT   00    00000000000          00000000000000000000000000000000000000000000 000000000000000A000000000000000000000000000000000000000000000 000000000000000000000000000000000000000     00000000                                                                                                                        000000000000000000
F0010000009034200001000089031248700013050500000000000000000201608250002001DISTRIBUIDORA CALIPLASTICOS LTDA                  D000000057294800000000000000000000100010010000000000000000000000F0010000009034200120160825000101 00000000000000000000000000000000000000000000000000000000000000000000000000000000000000000000000000000000000000000N 00000000000NCONT   00    00000000000          00000000000000000000000000000000000000000000 000000000000000A000000000000000000000000000000000000000000000 000000000000000000000000000000000000000     00000000                                                                                                                        000000000000000000
F0010000009034200002000089031248700041450500000000000000000201608250002001DISTRIBUIDORA CALIPLASTICOS LTDA                  C000000053659800000000000000000000100010010000000000000000000000F0010000009034200220160825000101 00000000000000000000000000000000000000000000000000000000000000000000000000000000000000000000000000000000000000000N 00000000000NCONT   00    00000000000          00000000000000000000000000000000000000000000 000000000000000A000000000000000000000000000000000000000000000 000000000000000000000000000000000000000     00000000                                                                                                                        000000000000000000
F0010000009034200003000089031248700042505000000000000000000201608250002001DISTRIBUIDORA CALIPLASTICOS LTDA                  C000000003635000000000000000000000100010010000000000000000000000F0010000009034200320160825000101 00000000000000000000000000000000000000000000000000000000000000000000000000000000000000000000000000000000000000000N 00000000000NCONT   00    00000000000          00000000000000000000000000000000000000000000 000000000000000A000000000000000000000000000000000000000000000 000000000000000000000000000000000000000     00000000                                                                                                                        000000000000000000
F0010000009034200004000089031248700023658300000000000000000201608250002001DISTRIBUIDORA CALIPLASTICOS LTDA                  C000000000429300000000000000000000100010010000000000000000000000F0010000009034200420160825000101 00000000000000000000000000000000000000000000000000000000000000000000000000000000000000000000000000000000000000000N 00000000000NCONT   00    00000000000          00000000000000000000000000000000000000000000 000000000000000A000000000000000000000000000000000000000000000 000000000000000000000000000000000000000     00000000                                                                                                                        000000000000000000
F0010000009034200005000089031248700013552100000000000000000201608250002001DISTRIBUIDORA CALIPLASTICOS LTDA                  D000000000429300000000000000000000100010010000000000000000000000F0010000009034200520160825000101 00000000000000000000000000000000000000000000000000000000000000000000000000000000000000000000000000000000000000000N 00000000000NCONT   00    00000000000          00000000000000000000000000000000000000000000 000000000000000A000000000000000000000000000000000000000000000 000000000000000000000000000000000000000     00000000                                                                                                                        000000000000000000
F0010000009034300001000090064982900013050500000000000000000201608250002001DISDIES S.A.S                                     D000000040782500000000000000000000100010010000000000000000000000F0010000009034300120160825000101 00000000000000000000000000000000000000000000000000000000000000000000000000000000000000000000000000000000000000000N 00000000000NCONT   00    00000000000          00000000000000000000000000000000000000000000 000000000000000A000000000000000000000000000000000000000000000 000000000000000000000000000000000000000     00000000                                                                                                                        000000000000000000
F0010000009034300002000090064982900041450500000000000000000201608250002001DISDIES S.A.S                                     C000000035230700000000000000000000100010010000000000000000000000F0010000009034300220160825000101 00000000000000000000000000000000000000000000000000000000000000000000000000000000000000000000000000000000000000000N 00000000000NCONT   00    00000000000          00000000000000000000000000000000000000000000 000000000000000A000000000000000000000000000000000000000000000 000000000000000000000000000000000000000     00000000                                                                                                                        000000000000000000
F0010000009034300003000090064982900042505000000000000000000201608250002001DISDIES S.A.S                                     C000000005551800000000000000000000100010010000000000000000000000F0010000009034300320160825000101 00000000000000000000000000000000000000000000000000000000000000000000000000000000000000000000000000000000000000000N 00000000000NCONT   00    00000000000          00000000000000000000000000000000000000000000 000000000000000A000000000000000000000000000000000000000000000 000000000000000000000000000000000000000     00000000                                                                                                                        000000000000000000
F0010000009034300004000090064982900023658300000000000000000201608250002001DISDIES S.A.S                                     C000000000281800000000000000000000100010010000000000000000000000F0010000009034300420160825000101 00000000000000000000000000000000000000000000000000000000000000000000000000000000000000000000000000000000000000000N 00000000000NCONT   00    00000000000          00000000000000000000000000000000000000000000 000000000000000A000000000000000000000000000000000000000000000 000000000000000000000000000000000000000     00000000                                                                                                                        000000000000000000
F0010000009034300005000090064982900013552100000000000000000201608250002001DISDIES S.A.S                                     D000000000281800000000000000000000100010010000000000000000000000F0010000009034300520160825000101 00000000000000000000000000000000000000000000000000000000000000000000000000000000000000000000000000000000000000000N 00000000000NCONT   00    00000000000          00000000000000000000000000000000000000000000 000000000000000A000000000000000000000000000000000000000000000 000000000000000000000000000000000000000     00000000                                                                                                                        000000000000000000
F0010000009034400001000090000859400013050500000000000000000201608250002001COMERCIAL JOTACE LTDA                             D000000022813500000000000000000000100010010000000000000000000000F0010000009034400120160825000101 00000000000000000000000000000000000000000000000000000000000000000000000000000000000000000000000000000000000000000N 00000000000NCONT   00    00000000000          00000000000000000000000000000000000000000000 000000000000000A000000000000000000000000000000000000000000000 000000000000000000000000000000000000000     00000000                                                                                                                        000000000000000000
F0010000009034400002000090000859400041450500000000000000000201608250002001COMERCIAL JOTACE LTDA                             C000000020280000000000000000000000100010010000000000000000000000F0010000009034400220160825000101 00000000000000000000000000000000000000000000000000000000000000000000000000000000000000000000000000000000000000000N 00000000000NCONT   00    00000000000          00000000000000000000000000000000000000000000 000000000000000A000000000000000000000000000000000000000000000 000000000000000000000000000000000000000     00000000                                                                                                                        000000000000000000
F0010000009034400003000090000859400042505000000000000000000201608250002001COMERCIAL JOTACE LTDA                             C000000002533500000000000000000000100010010000000000000000000000F0010000009034400320160825000101 00000000000000000000000000000000000000000000000000000000000000000000000000000000000000000000000000000000000000000N 00000000000NCONT   00    00000000000          00000000000000000000000000000000000000000000 000000000000000A000000000000000000000000000000000000000000000 000000000000000000000000000000000000000     00000000                                                                                                                        000000000000000000
F0010000009034400004000090000859400023658300000000000000000201608250002001COMERCIAL JOTACE LTDA                             C000000000162200000000000000000000100010010000000000000000000000F0010000009034400420160825000101 00000000000000000000000000000000000000000000000000000000000000000000000000000000000000000000000000000000000000000N 00000000000NCONT   00    00000000000          00000000000000000000000000000000000000000000 000000000000000A000000000000000000000000000000000000000000000 000000000000000000000000000000000000000     00000000                                                                                                                        000000000000000000
F0010000009034400005000090000859400013552100000000000000000201608250002001COMERCIAL JOTACE LTDA                             D000000000162200000000000000000000100010010000000000000000000000F0010000009034400520160825000101 00000000000000000000000000000000000000000000000000000000000000000000000000000000000000000000000000000000000000000N 00000000000NCONT   00    00000000000          00000000000000000000000000000000000000000000 000000000000000A000000000000000000000000000000000000000000000 000000000000000000000000000000000000000     00000000                                                                                                                        000000000000000000
F0010000009034500001000090060531100013050500000000000000000201608250002001RECUBRIMIENTOS ESENCIALES SAS                     D000000047728000000000000000000000100010010000000000000000000000F0010000009034500120160825000101 00000000000000000000000000000000000000000000000000000000000000000000000000000000000000000000000000000000000000000N 00000000000NCONT   00    00000000000          00000000000000000000000000000000000000000000 000000000000000A000000000000000000000000000000000000000000000 000000000000000000000000000000000000000     00000000                                                                                                                        000000000000000000
F0010000009034500002000090060531100041450500000000000000000201608250002001RECUBRIMIENTOS ESENCIALES SAS                     C000000043728000000000000000000000100010010000000000000000000000F0010000009034500220160825000101 00000000000000000000000000000000000000000000000000000000000000000000000000000000000000000000000000000000000000000N 00000000000NCONT   00    00000000000          00000000000000000000000000000000000000000000 000000000000000A000000000000000000000000000000000000000000000 000000000000000000000000000000000000000     00000000                                                                                                                        000000000000000000
F0010000009034500003000090060531100042505000000000000000000201608250002001RECUBRIMIENTOS ESENCIALES SAS                     C000000004000000000000000000000000100010010000000000000000000000F0010000009034500320160825000101 00000000000000000000000000000000000000000000000000000000000000000000000000000000000000000000000000000000000000000N 00000000000NCONT   00    00000000000          00000000000000000000000000000000000000000000 000000000000000A000000000000000000000000000000000000000000000 000000000000000000000000000000000000000     00000000                                                                                                                        000000000000000000
F0010000009034500004000090060531100023658300000000000000000201608250002001RECUBRIMIENTOS ESENCIALES SAS                     C000000000349800000000000000000000100010010000000000000000000000F0010000009034500420160825000101 00000000000000000000000000000000000000000000000000000000000000000000000000000000000000000000000000000000000000000N 00000000000NCONT   00    00000000000          00000000000000000000000000000000000000000000 000000000000000A000000000000000000000000000000000000000000000 000000000000000000000000000000000000000     00000000                                                                                                                        000000000000000000
F0010000009034500005000090060531100013552100000000000000000201608250002001RECUBRIMIENTOS ESENCIALES SAS                     D000000000349800000000000000000000100010010000000000000000000000F0010000009034500520160825000101 00000000000000000000000000000000000000000000000000000000000000000000000000000000000000000000000000000000000000000N 00000000000NCONT   00    00000000000          00000000000000000000000000000000000000000000 000000000000000A000000000000000000000000000000000000000000000 000000000000000000000000000000000000000     00000000                                                                                                                        000000000000000000
F0010000009034600001000000376399500013050500000000000000000201608250002001FORDPLAST                                         D000000004390000000000000000000000100010010000000000000000000000F0010000009034600120160825000101 00000000000000000000000000000000000000000000000000000000000000000000000000000000000000000000000000000000000000000N 00000000000NCONT   00    00000000000          00000000000000000000000000000000000000000000 000000000000000A000000000000000000000000000000000000000000000 000000000000000000000000000000000000000     00000000                                                                                                                        000000000000000000
F0010000009034600002000000376399500041450500000000000000000201608250002001FORDPLAST                                         C000000003340000000000000000000000100010010000000000000000000000F0010000009034600220160825000101 00000000000000000000000000000000000000000000000000000000000000000000000000000000000000000000000000000000000000000N 00000000000NCONT   00    00000000000          00000000000000000000000000000000000000000000 000000000000000A000000000000000000000000000000000000000000000 000000000000000000000000000000000000000     00000000                                                                                                                        000000000000000000
F0010000009034600003000000376399500042505000000000000000000201608250002001FORDPLAST                                         C000000001050000000000000000000000100010010000000000000000000000F0010000009034600320160825000101 00000000000000000000000000000000000000000000000000000000000000000000000000000000000000000000000000000000000000000N 00000000000NCONT   00    00000000000          00000000000000000000000000000000000000000000 000000000000000A000000000000000000000000000000000000000000000 000000000000000000000000000000000000000     00000000                                                                                                                        000000000000000000
F0010000009034600004000000376399500023658300000000000000000201608250002001FORDPLAST                                         C000000000026700000000000000000000100010010000000000000000000000F0010000009034600420160825000101 00000000000000000000000000000000000000000000000000000000000000000000000000000000000000000000000000000000000000000N 00000000000NCONT   00    00000000000          00000000000000000000000000000000000000000000 000000000000000A000000000000000000000000000000000000000000000 000000000000000000000000000000000000000     00000000                                                                                                                        000000000000000000
F0010000009034600005000000376399500013552100000000000000000201608250002001FORDPLAST                                         D000000000026700000000000000000000100010010000000000000000000000F0010000009034600520160825000101 00000000000000000000000000000000000000000000000000000000000000000000000000000000000000000000000000000000000000000N 00000000000NCONT   00    00000000000          00000000000000000000000000000000000000000000 000000000000000A000000000000000000000000000000000000000000000 000000000000000000000000000000000000000     00000000                                                                                                                        000000000000000000
F0010000009034700001000000748239700013050500000000000000000201608250002001RAFAEL NAVARRO URIBE                              D000000015315400000000000000000000100010010000000000000000000000F0010000009034700120160825000101 00000000000000000000000000000000000000000000000000000000000000000000000000000000000000000000000000000000000000000N 00000000000NCONT   00    00000000000          00000000000000000000000000000000000000000000 000000000000000A000000000000000000000000000000000000000000000 000000000000000000000000000000000000000     00000000                                                                                                                        000000000000000000
F0010000009034700002000000748239700041450500000000000000000201608250002001RAFAEL NAVARRO URIBE                              C000000011080000000000000000000000100010010000000000000000000000F0010000009034700220160825000101 00000000000000000000000000000000000000000000000000000000000000000000000000000000000000000000000000000000000000000N 00000000000NCONT   00    00000000000          00000000000000000000000000000000000000000000 000000000000000A000000000000000000000000000000000000000000000 000000000000000000000000000000000000000     00000000                                                                                                                        000000000000000000
F0010000009034700003000000748239700042505000000000000000000201608250002001RAFAEL NAVARRO URIBE                              C000000004235400000000000000000000100010010000000000000000000000F0010000009034700320160825000101 00000000000000000000000000000000000000000000000000000000000000000000000000000000000000000000000000000000000000000N 00000000000NCONT   00    00000000000          00000000000000000000000000000000000000000000 000000000000000A000000000000000000000000000000000000000000000 000000000000000000000000000000000000000     00000000                                                                                                                        000000000000000000
F0010000009034700004000000748239700023658300000000000000000201608250002001RAFAEL NAVARRO URIBE                              C000000000088600000000000000000000100010010000000000000000000000F0010000009034700420160825000101 00000000000000000000000000000000000000000000000000000000000000000000000000000000000000000000000000000000000000000N 00000000000NCONT   00    00000000000          00000000000000000000000000000000000000000000 000000000000000A000000000000000000000000000000000000000000000 000000000000000000000000000000000000000     00000000                                                                                                                        000000000000000000
F0010000009034700005000000748239700013552100000000000000000201608250002001RAFAEL NAVARRO URIBE                              D000000000088600000000000000000000100010010000000000000000000000F0010000009034700520160825000101 00000000000000000000000000000000000000000000000000000000000000000000000000000000000000000000000000000000000000000N 00000000000NCONT   00    00000000000          00000000000000000000000000000000000000000000 000000000000000A000000000000000000000000000000000000000000000 000000000000000000000000000000000000000     00000000                                                                                                                        000000000000000000
F0010000009034800001000090069145000013050500000000000000000201608250002001TGV DE COLOMBIA SAS                               D000000045200000000000000000000000100010010000000000000000000000F0010000009034800120160825000101 00000000000000000000000000000000000000000000000000000000000000000000000000000000000000000000000000000000000000000N 00000000000NCONT   00    00000000000          00000000000000000000000000000000000000000000 000000000000000A000000000000000000000000000000000000000000000 000000000000000000000000000000000000000     00000000                                                                                                                        000000000000000000
F0010000009034800002000090069145000041450500000000000000000201608250002001TGV DE COLOMBIA SAS                               C000000042700000000000000000000000100010010000000000000000000000F0010000009034800220160825000101 00000000000000000000000000000000000000000000000000000000000000000000000000000000000000000000000000000000000000000N 00000000000NCONT   00    00000000000          00000000000000000000000000000000000000000000 000000000000000A000000000000000000000000000000000000000000000 000000000000000000000000000000000000000     00000000                                                                                                                        000000000000000000
F0010000009034800003000090069145000042505000000000000000000201608250002001TGV DE COLOMBIA SAS                               C000000002500000000000000000000000100010010000000000000000000000F0010000009034800320160825000101 00000000000000000000000000000000000000000000000000000000000000000000000000000000000000000000000000000000000000000N 00000000000NCONT   00    00000000000          00000000000000000000000000000000000000000000 000000000000000A000000000000000000000000000000000000000000000 000000000000000000000000000000000000000     00000000                                                                                                                        000000000000000000
F0010000009034800004000090069145000023658300000000000000000201608250002001TGV DE COLOMBIA SAS                               C000000000341600000000000000000000100010010000000000000000000000F0010000009034800420160825000101 00000000000000000000000000000000000000000000000000000000000000000000000000000000000000000000000000000000000000000N 00000000000NCONT   00    00000000000          00000000000000000000000000000000000000000000 000000000000000A000000000000000000000000000000000000000000000 000000000000000000000000000000000000000     00000000                                                                                                                        000000000000000000
F0010000009034800005000090069145000013552100000000000000000201608250002001TGV DE COLOMBIA SAS                               D000000000341600000000000000000000100010010000000000000000000000F0010000009034800520160825000101 00000000000000000000000000000000000000000000000000000000000000000000000000000000000000000000000000000000000000000N 00000000000NCONT   00    00000000000          00000000000000000000000000000000000000000000 000000000000000A000000000000000000000000000000000000000000000 000000000000000000000000000000000000000     00000000                                                                                                                        000000000000000000
F0010000009034900001000080200069100013050500000000000000000201608250002001PEGANTES Y PINTURAS ATLAS LTDA                    D000000012706900000000000000000000100010010000000000000000000000F0010000009034900120160825000101 00000000000000000000000000000000000000000000000000000000000000000000000000000000000000000000000000000000000000000N 00000000000NCONT   00    00000000000          00000000000000000000000000000000000000000000 000000000000000A000000000000000000000000000000000000000000000 000000000000000000000000000000000000000     00000000                                                                                                                        000000000000000000
F0010000009034900002000080200069100041450500000000000000000201608250002001PEGANTES Y PINTURAS ATLAS LTDA                    C000000011000000000000000000000000100010010000000000000000000000F0010000009034900220160825000101 00000000000000000000000000000000000000000000000000000000000000000000000000000000000000000000000000000000000000000N 00000000000NCONT   00    00000000000          00000000000000000000000000000000000000000000 000000000000000A000000000000000000000000000000000000000000000 000000000000000000000000000000000000000     00000000                                                                                                                        000000000000000000
F0010000009034900003000080200069100042505000000000000000000201608250002001PEGANTES Y PINTURAS ATLAS LTDA                    C000000001706900000000000000000000100010010000000000000000000000F0010000009034900320160825000101 00000000000000000000000000000000000000000000000000000000000000000000000000000000000000000000000000000000000000000N 00000000000NCONT   00    00000000000          00000000000000000000000000000000000000000000 000000000000000A000000000000000000000000000000000000000000000 000000000000000000000000000000000000000     00000000                                                                                                                        000000000000000000
F0010000009034900004000080200069100023658300000000000000000201608250002001PEGANTES Y PINTURAS ATLAS LTDA                    C000000000088000000000000000000000100010010000000000000000000000F0010000009034900420160825000101 00000000000000000000000000000000000000000000000000000000000000000000000000000000000000000000000000000000000000000N 00000000000NCONT   00    00000000000          00000000000000000000000000000000000000000000 000000000000000A000000000000000000000000000000000000000000000 000000000000000000000000000000000000000     00000000                                                                                                                        000000000000000000
F0010000009034900005000080200069100013552100000000000000000201608250002001PEGANTES Y PINTURAS ATLAS LTDA                    D000000000088000000000000000000000100010010000000000000000000000F0010000009034900520160825000101 00000000000000000000000000000000000000000000000000000000000000000000000000000000000000000000000000000000000000000N 00000000000NCONT   00    00000000000          00000000000000000000000000000000000000000000 000000000000000A000000000000000000000000000000000000000000000 000000000000000000000000000000000000000     00000000                                                                                                                        000000000000000000
F0010000009035000001000090009800500013050500000000000000000201608250002001GLORIANT CHEMICHALS DE COLOMBIA LTDA              D000000013365000000000000000000000100010010000000000000000000000F0010000009035000120160825000101 00000000000000000000000000000000000000000000000000000000000000000000000000000000000000000000000000000000000000000N 00000000000NCONT   00    00000000000          00000000000000000000000000000000000000000000 000000000000000A000000000000000000000000000000000000000000000 000000000000000000000000000000000000000     00000000                                                                                                                        000000000000000000
F0010000009035000002000090009800500041450500000000000000000201608250002001GLORIANT CHEMICHALS DE COLOMBIA LTDA              C000000010950000000000000000000000100010010000000000000000000000F0010000009035000220160825000101 00000000000000000000000000000000000000000000000000000000000000000000000000000000000000000000000000000000000000000N 00000000000NCONT   00    00000000000          00000000000000000000000000000000000000000000 000000000000000A000000000000000000000000000000000000000000000 000000000000000000000000000000000000000     00000000                                                                                                                        000000000000000000
F0010000009035000003000090009800500042505000000000000000000201608250002001GLORIANT CHEMICHALS DE COLOMBIA LTDA              C000000002415000000000000000000000100010010000000000000000000000F0010000009035000320160825000101 00000000000000000000000000000000000000000000000000000000000000000000000000000000000000000000000000000000000000000N 00000000000NCONT   00    00000000000          00000000000000000000000000000000000000000000 000000000000000A000000000000000000000000000000000000000000000 000000000000000000000000000000000000000     00000000                                                                                                                        000000000000000000
F0010000009035000004000090009800500023658300000000000000000201608250002001GLORIANT CHEMICHALS DE COLOMBIA LTDA              C000000000087600000000000000000000100010010000000000000000000000F0010000009035000420160825000101 00000000000000000000000000000000000000000000000000000000000000000000000000000000000000000000000000000000000000000N 00000000000NCONT   00    00000000000          00000000000000000000000000000000000000000000 000000000000000A000000000000000000000000000000000000000000000 000000000000000000000000000000000000000     00000000                                                                                                                        000000000000000000
F0010000009035000005000090009800500013552100000000000000000201608250002001GLORIANT CHEMICHALS DE COLOMBIA LTDA              D000000000087600000000000000000000100010010000000000000000000000F0010000009035000520160825000101 00000000000000000000000000000000000000000000000000000000000000000000000000000000000000000000000000000000000000000N 00000000000NCONT   00    00000000000          00000000000000000000000000000000000000000000 000000000000000A000000000000000000000000000000000000000000000 000000000000000000000000000000000000000     00000000                                                                                                                        000000000000000000
F0010000009035100001000090044443800013050500000000000000000201608250002001DISTRIBUCIONES UFRE S.A.S.                        D000000010157500000000000000000000100010010000000000000000000000F0010000009035100120160825000101 00000000000000000000000000000000000000000000000000000000000000000000000000000000000000000000000000000000000000000N 00000000000NCONT   00    00000000000          00000000000000000000000000000000000000000000 000000000000000A000000000000000000000000000000000000000000000 000000000000000000000000000000000000000     00000000                                                                                                                        000000000000000000
F0010000009035100002000090044443800041450500000000000000000201608250002001DISTRIBUCIONES UFRE S.A.S.                        C000000008480000000000000000000000100010010000000000000000000000F0010000009035100220160825000101 00000000000000000000000000000000000000000000000000000000000000000000000000000000000000000000000000000000000000000N 00000000000NCONT   00    00000000000          00000000000000000000000000000000000000000000 000000000000000A000000000000000000000000000000000000000000000 000000000000000000000000000000000000000     00000000                                                                                                                        000000000000000000
F0010000009035100003000090044443800042505000000000000000000201608250002001DISTRIBUCIONES UFRE S.A.S.                        C000000001677500000000000000000000100010010000000000000000000000F0010000009035100320160825000101 00000000000000000000000000000000000000000000000000000000000000000000000000000000000000000000000000000000000000000N 00000000000NCONT   00    00000000000          00000000000000000000000000000000000000000000 000000000000000A000000000000000000000000000000000000000000000 000000000000000000000000000000000000000     00000000                                                                                                                        000000000000000000
F0010000009035100004000090044443800023658300000000000000000201608250002001DISTRIBUCIONES UFRE S.A.S.                        C000000000067800000000000000000000100010010000000000000000000000F0010000009035100420160825000101 00000000000000000000000000000000000000000000000000000000000000000000000000000000000000000000000000000000000000000N 00000000000NCONT   00    00000000000          00000000000000000000000000000000000000000000 000000000000000A000000000000000000000000000000000000000000000 000000000000000000000000000000000000000     00000000                                                                                                                        000000000000000000
F0010000009035100005000090044443800013552100000000000000000201608250002001DISTRIBUCIONES UFRE S.A.S.                        D000000000067800000000000000000000100010010000000000000000000000F0010000009035100520160825000101 00000000000000000000000000000000000000000000000000000000000000000000000000000000000000000000000000000000000000000N 00000000000NCONT   00    00000000000          00000000000000000000000000000000000000000000 000000000000000A000000000000000000000000000000000000000000000 000000000000000000000000000000000000000     00000000                                                                                                                        000000000000000000
F0010000009035200001000089010260300013050500000000000000000201608250002001FEDERICO OSORIO A. S.A.                           D000000097952400000000000000000000100010010000000000000000000000F0010000009035200120160825000101 00000000000000000000000000000000000000000000000000000000000000000000000000000000000000000000000000000000000000000N 00000000000NCONT   00    00000000000          00000000000000000000000000000000000000000000 000000000000000A000000000000000000000000000000000000000000000 000000000000000000000000000000000000000     00000000                                                                                                                        000000000000000000
F0010000009035200002000089010260300041450500000000000000000201608250002001FEDERICO OSORIO A. S.A.                           C000000092470000000000000000000000100010010000000000000000000000F0010000009035200220160825000101 00000000000000000000000000000000000000000000000000000000000000000000000000000000000000000000000000000000000000000N 00000000000NCONT   00    00000000000          00000000000000000000000000000000000000000000 000000000000000A000000000000000000000000000000000000000000000 000000000000000000000000000000000000000     00000000                                                                                                                        000000000000000000
F0010000009035200003000089010260300042505000000000000000000201608250002001FEDERICO OSORIO A. S.A.                           C000000005482400000000000000000000100010010000000000000000000000F0010000009035200320160825000101 00000000000000000000000000000000000000000000000000000000000000000000000000000000000000000000000000000000000000000N 00000000000NCONT   00    00000000000          00000000000000000000000000000000000000000000 000000000000000A000000000000000000000000000000000000000000000 000000000000000000000000000000000000000     00000000                                                                                                                        000000000000000000
F0010000009035200004000089010260300023658300000000000000000201608250002001FEDERICO OSORIO A. S.A.                           C000000000739800000000000000000000100010010000000000000000000000F0010000009035200420160825000101 00000000000000000000000000000000000000000000000000000000000000000000000000000000000000000000000000000000000000000N 00000000000NCONT   00    00000000000          00000000000000000000000000000000000000000000 000000000000000A000000000000000000000000000000000000000000000 000000000000000000000000000000000000000     00000000                                                                                                                        000000000000000000
F0010000009035200005000089010260300013552100000000000000000201608250002001FEDERICO OSORIO A. S.A.                           D000000000739800000000000000000000100010010000000000000000000000F0010000009035200520160825000101 00000000000000000000000000000000000000000000000000000000000000000000000000000000000000000000000000000000000000000N 00000000000NCONT   00    00000000000          00000000000000000000000000000000000000000000 000000000000000A000000000000000000000000000000000000000000000 000000000000000000000000000000000000000     00000000                                                                                                                        000000000000000000
F0010000009035300001000080016664500013050500000000000000000201608250002001TELAPLAS PANCER SAS                               D000000028497000000000000000000000100010010000000000000000000000F0010000009035300120160825000101 00000000000000000000000000000000000000000000000000000000000000000000000000000000000000000000000000000000000000000N 00000000000NCONT   00    00000000000          00000000000000000000000000000000000000000000 000000000000000A000000000000000000000000000000000000000000000 000000000000000000000000000000000000000     00000000                                                                                                                        000000000000000000
F0010000009035300002000080016664500041450500000000000000000201608250002001TELAPLAS PANCER SAS                               C000000024870000000000000000000000100010010000000000000000000000F0010000009035300220160825000101 00000000000000000000000000000000000000000000000000000000000000000000000000000000000000000000000000000000000000000N 00000000000NCONT   00    00000000000          00000000000000000000000000000000000000000000 000000000000000A000000000000000000000000000000000000000000000 000000000000000000000000000000000000000     00000000                                                                                                                        000000000000000000
F0010000009035300003000080016664500042505000000000000000000201608250002001TELAPLAS PANCER SAS                               C000000003627000000000000000000000100010010000000000000000000000F0010000009035300320160825000101 00000000000000000000000000000000000000000000000000000000000000000000000000000000000000000000000000000000000000000N 00000000000NCONT   00    00000000000          00000000000000000000000000000000000000000000 000000000000000A000000000000000000000000000000000000000000000 000000000000000000000000000000000000000     00000000                                                                                                                        000000000000000000
F0010000009035300004000080016664500023658300000000000000000201608250002001TELAPLAS PANCER SAS                               C000000000199000000000000000000000100010010000000000000000000000F0010000009035300420160825000101 00000000000000000000000000000000000000000000000000000000000000000000000000000000000000000000000000000000000000000N 00000000000NCONT   00    00000000000          00000000000000000000000000000000000000000000 000000000000000A000000000000000000000000000000000000000000000 000000000000000000000000000000000000000     00000000                                                                                                                        000000000000000000
F0010000009035300005000080016664500013552100000000000000000201608250002001TELAPLAS PANCER SAS                               D000000000199000000000000000000000100010010000000000000000000000F0010000009035300520160825000101 00000000000000000000000000000000000000000000000000000000000000000000000000000000000000000000000000000000000000000N 00000000000NCONT   00    00000000000          00000000000000000000000000000000000000000000 000000000000000A000000000000000000000000000000000000000000000 000000000000000000000000000000000000000     00000000                                                                                                                        000000000000000000
F0010000009035400001000090052543100013050500000000000000000201608250002001SECRET COLOR SAS                                  D000000010600000000000000000000000100010010000000000000000000000F0010000009035400120160825000101 00000000000000000000000000000000000000000000000000000000000000000000000000000000000000000000000000000000000000000N 00000000000NCONT   00    00000000000          00000000000000000000000000000000000000000000 000000000000000A000000000000000000000000000000000000000000000 000000000000000000000000000000000000000     00000000                                                                                                                        000000000000000000
F0010000009035400002000090052543100041450500000000000000000201608250002001SECRET COLOR SAS                                  C000000010600000000000000000000000100010010000000000000000000000F0010000009035400220160825000101 00000000000000000000000000000000000000000000000000000000000000000000000000000000000000000000000000000000000000000N 00000000000NCONT   00    00000000000          00000000000000000000000000000000000000000000 000000000000000A000000000000000000000000000000000000000000000 000000000000000000000000000000000000000     00000000                                                                                                                        000000000000000000
F0010000009035400003000090052543100042505000000000000000000201608250002001SECRET COLOR SAS                                  C000000000000000000000000000000000100010010000000000000000000000F0010000009035400320160825000101 00000000000000000000000000000000000000000000000000000000000000000000000000000000000000000000000000000000000000000N 00000000000NCONT   00    00000000000          00000000000000000000000000000000000000000000 000000000000000A000000000000000000000000000000000000000000000 000000000000000000000000000000000000000     00000000                                                                                                                        000000000000000000
F0010000009035400004000090052543100023658300000000000000000201608250002001SECRET COLOR SAS                                  C000000000084800000000000000000000100010010000000000000000000000F0010000009035400420160825000101 00000000000000000000000000000000000000000000000000000000000000000000000000000000000000000000000000000000000000000N 00000000000NCONT   00    00000000000          00000000000000000000000000000000000000000000 000000000000000A000000000000000000000000000000000000000000000 000000000000000000000000000000000000000     00000000                                                                                                                        000000000000000000
F0010000009035400005000090052543100013552100000000000000000201608250002001SECRET COLOR SAS                                  D000000000084800000000000000000000100010010000000000000000000000F0010000009035400520160825000101 00000000000000000000000000000000000000000000000000000000000000000000000000000000000000000000000000000000000000000N 00000000000NCONT   00    00000000000          00000000000000000000000000000000000000000000 000000000000000A000000000000000000000000000000000000000000000 000000000000000000000000000000000000000     00000000                                                                                                                        000000000000000000
F0010000009035500001000080004943800013050500000000000000000201608250002001PAPELERIA EL CID S.A.                             D000000067190000000000000000000000100010010000000000000000000000F0010000009035500120160825000101 00000000000000000000000000000000000000000000000000000000000000000000000000000000000000000000000000000000000000000N 00000000000NCONT   00    00000000000          00000000000000000000000000000000000000000000 000000000000000A000000000000000000000000000000000000000000000 000000000000000000000000000000000000000     00000000                                                                                                                        000000000000000000
F0010000009035500002000080004943800041450500000000000000000201608250002001PAPELERIA EL CID S.A.                             C000000062100000000000000000000000100010010000000000000000000000F0010000009035500220160825000101 00000000000000000000000000000000000000000000000000000000000000000000000000000000000000000000000000000000000000000N 00000000000NCONT   00    00000000000          00000000000000000000000000000000000000000000 000000000000000A000000000000000000000000000000000000000000000 000000000000000000000000000000000000000     00000000                                                                                                                        000000000000000000
F0010000009035500003000080004943800042505000000000000000000201608250002001PAPELERIA EL CID S.A.                             C000000005090000000000000000000000100010010000000000000000000000F0010000009035500320160825000101 00000000000000000000000000000000000000000000000000000000000000000000000000000000000000000000000000000000000000000N 00000000000NCONT   00    00000000000          00000000000000000000000000000000000000000000 000000000000000A000000000000000000000000000000000000000000000 000000000000000000000000000000000000000     00000000                                                                                                                        000000000000000000
F0010000009035500004000080004943800023658300000000000000000201608250002001PAPELERIA EL CID S.A.                             C000000000496800000000000000000000100010010000000000000000000000F0010000009035500420160825000101 00000000000000000000000000000000000000000000000000000000000000000000000000000000000000000000000000000000000000000N 00000000000NCONT   00    00000000000          00000000000000000000000000000000000000000000 000000000000000A000000000000000000000000000000000000000000000 000000000000000000000000000000000000000     00000000                                                                                                                        000000000000000000
F0010000009035500005000080004943800013552100000000000000000201608250002001PAPELERIA EL CID S.A.                             D000000000496800000000000000000000100010010000000000000000000000F0010000009035500520160825000101 00000000000000000000000000000000000000000000000000000000000000000000000000000000000000000000000000000000000000000N 00000000000NCONT   00    00000000000          00000000000000000000000000000000000000000000 000000000000000A000000000000000000000000000000000000000000000 000000000000000000000000000000000000000     00000000                                                                                                                        000000000000000000
F0010000009035600001000000869402400011050500000000000000000201608250002001ISRAEL MANGA                                      D000000001550000000000000000000000100010010000000000000000000000F0010000009035600120160825000101 00000000000000000000000000000000000000000000000000000000000000000000000000000000000000000000000000000000000000000N 00000000000NCONT   00    00000000000          00000000000000000000000000000000000000000000 000000000000000A000000000000000000000000000000000000000000000 000000000000000000000000000000000000000     00000000                                                                                                                        000000000000000000
F0010000009035600002000000869402400041450500000000000000000201608250002001ISRAEL MANGA                                      C000000001300000000000000000000000100010010000000000000000000000F0010000009035600220160825000101 00000000000000000000000000000000000000000000000000000000000000000000000000000000000000000000000000000000000000000N 00000000000NCONT   00    00000000000          00000000000000000000000000000000000000000000 000000000000000A000000000000000000000000000000000000000000000 000000000000000000000000000000000000000     00000000                                                                                                                        000000000000000000
F0010000009035600003000000869402400042505000000000000000000201608250002001ISRAEL MANGA                                      C000000000250000000000000000000000100010010000000000000000000000F0010000009035600320160825000101 00000000000000000000000000000000000000000000000000000000000000000000000000000000000000000000000000000000000000000N 00000000000NCONT   00    00000000000          00000000000000000000000000000000000000000000 000000000000000A000000000000000000000000000000000000000000000 000000000000000000000000000000000000000     00000000                                                                                                                        000000000000000000
F0010000009035600004000000869402400023658300000000000000000201608250002001ISRAEL MANGA                                      C000000000010400000000000000000000100010010000000000000000000000F0010000009035600420160825000101 00000000000000000000000000000000000000000000000000000000000000000000000000000000000000000000000000000000000000000N 00000000000NCONT   00    00000000000          00000000000000000000000000000000000000000000 000000000000000A000000000000000000000000000000000000000000000 000000000000000000000000000000000000000     00000000                                                                                                                        000000000000000000
F0010000009035600005000000869402400013552100000000000000000201608250002001ISRAEL MANGA                                      D000000000010400000000000000000000100010010000000000000000000000F0010000009035600520160825000101 00000000000000000000000000000000000000000000000000000000000000000000000000000000000000000000000000000000000000000N 00000000000NCONT   00    00000000000          00000000000000000000000000000000000000000000 000000000000000A000000000000000000000000000000000000000000000 000000000000000000000000000000000000000     00000000                                                                                                                        000000000000000000
F0010000009035700001000000869402400011050500000000000000000201608250002001ISRAEL MANGA                                      D000000002000000000000000000000000100010010000000000000000000000F0010000009035700120160825000101 00000000000000000000000000000000000000000000000000000000000000000000000000000000000000000000000000000000000000000N 00000000000NCONT   00    00000000000          00000000000000000000000000000000000000000000 000000000000000A000000000000000000000000000000000000000000000 000000000000000000000000000000000000000     00000000                                                                                                                        000000000000000000
F0010000009035700002000000869402400041450500000000000000000201608250002001ISRAEL MANGA                                      C000000001300000000000000000000000100010010000000000000000000000F0010000009035700220160825000101 00000000000000000000000000000000000000000000000000000000000000000000000000000000000000000000000000000000000000000N 00000000000NCONT   00    00000000000          00000000000000000000000000000000000000000000 000000000000000A000000000000000000000000000000000000000000000 000000000000000000000000000000000000000     00000000                                                                                                                        000000000000000000
F0010000009035700003000000869402400042505000000000000000000201608250002001ISRAEL MANGA                                      C000000000700000000000000000000000100010010000000000000000000000F0010000009035700320160825000101 00000000000000000000000000000000000000000000000000000000000000000000000000000000000000000000000000000000000000000N 00000000000NCONT   00    00000000000          00000000000000000000000000000000000000000000 000000000000000A000000000000000000000000000000000000000000000 000000000000000000000000000000000000000     00000000                                                                                                                        000000000000000000
F0010000009035700004000000869402400023658300000000000000000201608250002001ISRAEL MANGA                                      C000000000010400000000000000000000100010010000000000000000000000F0010000009035700420160825000101 00000000000000000000000000000000000000000000000000000000000000000000000000000000000000000000000000000000000000000N 00000000000NCONT   00    00000000000          00000000000000000000000000000000000000000000 000000000000000A000000000000000000000000000000000000000000000 000000000000000000000000000000000000000     00000000                                                                                                                        000000000000000000
F0010000009035700005000000869402400013552100000000000000000201608250002001ISRAEL MANGA                                      D000000000010400000000000000000000100010010000000000000000000000F0010000009035700520160825000101 00000000000000000000000000000000000000000000000000000000000000000000000000000000000000000000000000000000000000000N 00000000000NCONT   00    00000000000          00000000000000000000000000000000000000000000 000000000000000A000000000000000000000000000000000000000000000 000000000000000000000000000000000000000     00000000                                                                                                                        000000000000000000
F0010000009035800001000002242960100011050500000000000000000201608250002001SOCORRO QUINTERO RINCON- ALM. HERRERA             D000000001700000000000000000000000100010010000000000000000000000F0010000009035800120160825000101 00000000000000000000000000000000000000000000000000000000000000000000000000000000000000000000000000000000000000000N 00000000000NCONT   00    00000000000          00000000000000000000000000000000000000000000 000000000000000A000000000000000000000000000000000000000000000 000000000000000000000000000000000000000     00000000                                                                                                                        000000000000000000
F0010000009035800002000002242960100041450500000000000000000201608250002001SOCORRO QUINTERO RINCON- ALM. HERRERA             C000000001300000000000000000000000100010010000000000000000000000F0010000009035800220160825000101 00000000000000000000000000000000000000000000000000000000000000000000000000000000000000000000000000000000000000000N 00000000000NCONT   00    00000000000          00000000000000000000000000000000000000000000 000000000000000A000000000000000000000000000000000000000000000 000000000000000000000000000000000000000     00000000                                                                                                                        000000000000000000
F0010000009035800003000002242960100042505000000000000000000201608250002001SOCORRO QUINTERO RINCON- ALM. HERRERA             C000000000400000000000000000000000100010010000000000000000000000F0010000009035800320160825000101 00000000000000000000000000000000000000000000000000000000000000000000000000000000000000000000000000000000000000000N 00000000000NCONT   00    00000000000          00000000000000000000000000000000000000000000 000000000000000A000000000000000000000000000000000000000000000 000000000000000000000000000000000000000     00000000                                                                                                                        000000000000000000
F0010000009035800004000002242960100023658300000000000000000201608250002001SOCORRO QUINTERO RINCON- ALM. HERRERA             C000000000010400000000000000000000100010010000000000000000000000F0010000009035800420160825000101 00000000000000000000000000000000000000000000000000000000000000000000000000000000000000000000000000000000000000000N 00000000000NCONT   00    00000000000          00000000000000000000000000000000000000000000 000000000000000A000000000000000000000000000000000000000000000 000000000000000000000000000000000000000     00000000                                                                                                                        000000000000000000
F0010000009035800005000002242960100013552100000000000000000201608250002001SOCORRO QUINTERO RINCON- ALM. HERRERA             D000000000010400000000000000000000100010010000000000000000000000F0010000009035800520160825000101 00000000000000000000000000000000000000000000000000000000000000000000000000000000000000000000000000000000000000000N 00000000000NCONT   00    00000000000          00000000000000000000000000000000000000000000 000000000000000A000000000000000000000000000000000000000000000 000000000000000000000000000000000000000     00000000                                                                                                                        000000000000000000
F0010000009035900001000003265780700011050500000000000000000201608250002001ZUNILDA GUERRERO                                  D000000001500000000000000000000000100010010000000000000000000000F0010000009035900120160825000101 00000000000000000000000000000000000000000000000000000000000000000000000000000000000000000000000000000000000000000N 00000000000NCONT   00    00000000000          00000000000000000000000000000000000000000000 000000000000000A000000000000000000000000000000000000000000000 000000000000000000000000000000000000000     00000000                                                                                                                        000000000000000000
F0010000009035900002000003265780700041450500000000000000000201608250002001ZUNILDA GUERRERO                                  C000000001000000000000000000000000100010010000000000000000000000F0010000009035900220160825000101 00000000000000000000000000000000000000000000000000000000000000000000000000000000000000000000000000000000000000000N 00000000000NCONT   00    00000000000          00000000000000000000000000000000000000000000 000000000000000A000000000000000000000000000000000000000000000 000000000000000000000000000000000000000     00000000                                                                                                                        000000000000000000
F0010000009035900003000003265780700042505000000000000000000201608250002001ZUNILDA GUERRERO                                  C000000000500000000000000000000000100010010000000000000000000000F0010000009035900320160825000101 00000000000000000000000000000000000000000000000000000000000000000000000000000000000000000000000000000000000000000N 00000000000NCONT   00    00000000000          00000000000000000000000000000000000000000000 000000000000000A000000000000000000000000000000000000000000000 000000000000000000000000000000000000000     00000000                                                                                                                        000000000000000000
F0010000009035900004000003265780700023658300000000000000000201608250002001ZUNILDA GUERRERO                                  C000000000008000000000000000000000100010010000000000000000000000F0010000009035900420160825000101 00000000000000000000000000000000000000000000000000000000000000000000000000000000000000000000000000000000000000000N 00000000000NCONT   00    00000000000          00000000000000000000000000000000000000000000 000000000000000A000000000000000000000000000000000000000000000 000000000000000000000000000000000000000     00000000                                                                                                                        000000000000000000
F0010000009035900005000003265780700013552100000000000000000201608250002001ZUNILDA GUERRERO                                  D000000000008000000000000000000000100010010000000000000000000000F0010000009035900520160825000101 00000000000000000000000000000000000000000000000000000000000000000000000000000000000000000000000000000000000000000N 00000000000NCONT   00    00000000000          00000000000000000000000000000000000000000000 000000000000000A000000000000000000000000000000000000000000000 000000000000000000000000000000000000000     00000000                                                                                                                        000000000000000000
F0010000009036000001000090001736600011050500000000000000000201608250002001AF SUMINISTROS E.U.                               D000000001600000000000000000000000100010010000000000000000000000F0010000009036000120160825000101 00000000000000000000000000000000000000000000000000000000000000000000000000000000000000000000000000000000000000000N 00000000000NCONT   00    00000000000          00000000000000000000000000000000000000000000 000000000000000A000000000000000000000000000000000000000000000 000000000000000000000000000000000000000     00000000                                                                                                                        000000000000000000
F0010000009036000002000090001736600041450500000000000000000201608250002001AF SUMINISTROS E.U.                               C000000001500000000000000000000000100010010000000000000000000000F0010000009036000220160825000101 00000000000000000000000000000000000000000000000000000000000000000000000000000000000000000000000000000000000000000N 00000000000NCONT   00    00000000000          00000000000000000000000000000000000000000000 000000000000000A000000000000000000000000000000000000000000000 000000000000000000000000000000000000000     00000000                                                                                                                        000000000000000000
