F0010000007626900001000090031826300011050500000000000000000201509160002001COVECO S.A.S.                                     D000000012000000000000000000000000100010010000000000000000000000F0010000007626900120150916000101 00000000000000000000000000000000000000000000000000000000000000000000000000000000000000000000000000000000000000000N 00000000000NCONT   00    00000000000          00000000000000000000000000000000000000000000 000000000000000A000000000000000000000000000000000000000000000 000000000000000000000000000000000000000     00000000                                                                                                                        000000000000000000
F0010000007626900002000090031826300041450500000000000000000201509160002001COVECO S.A.S.                                     C000000011200000000000000000000000100010010000000000000000000000F0010000007626900220150916000101 00000000000000000000000000000000000000000000000000000000000000000000000000000000000000000000000000000000000000000N 00000000000NCONT   00    00000000000          00000000000000000000000000000000000000000000 000000000000000A000000000000000000000000000000000000000000000 000000000000000000000000000000000000000     00000000                                                                                                                        000000000000000000
F0010000007626900003000090031826300042505000000000000000000201509160002001COVECO S.A.S.                                     C000000000800000000000000000000000100010010000000000000000000000F0010000007626900320150916000101 00000000000000000000000000000000000000000000000000000000000000000000000000000000000000000000000000000000000000000N 00000000000NCONT   00    00000000000          00000000000000000000000000000000000000000000 000000000000000A000000000000000000000000000000000000000000000 000000000000000000000000000000000000000     00000000                                                                                                                        000000000000000000
F0010000007626900004000090031826300023658300000000000000000201509160002001COVECO S.A.S.                                     C000000000089600000000000000000000100010010000000000000000000000F0010000007626900420150916000101 00000000000000000000000000000000000000000000000000000000000000000000000000000000000000000000000000000000000000000N 00000000000NCONT   00    00000000000          00000000000000000000000000000000000000000000 000000000000000A000000000000000000000000000000000000000000000 000000000000000000000000000000000000000     00000000                                                                                                                        000000000000000000
F0010000007626900005000090031826300013552100000000000000000201509160002001COVECO S.A.S.                                     D000000000089600000000000000000000100010010000000000000000000000F0010000007626900520150916000101 00000000000000000000000000000000000000000000000000000000000000000000000000000000000000000000000000000000000000000N 00000000000NCONT   00    00000000000          00000000000000000000000000000000000000000000 000000000000000A000000000000000000000000000000000000000000000 000000000000000000000000000000000000000     00000000                                                                                                                        000000000000000000
F0010000007627000001000090059316900013050500000000000000000201509160002001DISTRIBUCIONES Y REPRESENTACIONES MANA            D000000010180000000000000000000000100010010000000000000000000000F0010000007627000120150916000101 00000000000000000000000000000000000000000000000000000000000000000000000000000000000000000000000000000000000000000N 00000000000NCONT   00    00000000000          00000000000000000000000000000000000000000000 000000000000000A000000000000000000000000000000000000000000000 000000000000000000000000000000000000000     00000000                                                                                                                        000000000000000000
F0010000007627000002000090059316900041450500000000000000000201509160002001DISTRIBUCIONES Y REPRESENTACIONES MANA            C000000009030000000000000000000000100010010000000000000000000000F0010000007627000220150916000101 00000000000000000000000000000000000000000000000000000000000000000000000000000000000000000000000000000000000000000N 00000000000NCONT   00    00000000000          00000000000000000000000000000000000000000000 000000000000000A000000000000000000000000000000000000000000000 000000000000000000000000000000000000000     00000000                                                                                                                        000000000000000000
F0010000007627000003000090059316900042505000000000000000000201509160002001DISTRIBUCIONES Y REPRESENTACIONES MANA            C000000001150000000000000000000000100010010000000000000000000000F0010000007627000320150916000101 00000000000000000000000000000000000000000000000000000000000000000000000000000000000000000000000000000000000000000N 00000000000NCONT   00    00000000000          00000000000000000000000000000000000000000000 000000000000000A000000000000000000000000000000000000000000000 000000000000000000000000000000000000000     00000000                                                                                                                        000000000000000000
F0010000007627000004000090059316900023658300000000000000000201509160002001DISTRIBUCIONES Y REPRESENTACIONES MANA            C000000000072200000000000000000000100010010000000000000000000000F0010000007627000420150916000101 00000000000000000000000000000000000000000000000000000000000000000000000000000000000000000000000000000000000000000N 00000000000NCONT   00    00000000000          00000000000000000000000000000000000000000000 000000000000000A000000000000000000000000000000000000000000000 000000000000000000000000000000000000000     00000000                                                                                                                        000000000000000000
F0010000007627000005000090059316900013552100000000000000000201509160002001DISTRIBUCIONES Y REPRESENTACIONES MANA            D000000000072200000000000000000000100010010000000000000000000000F0010000007627000520150916000101 00000000000000000000000000000000000000000000000000000000000000000000000000000000000000000000000000000000000000000N 00000000000NCONT   00    00000000000          00000000000000000000000000000000000000000000 000000000000000A000000000000000000000000000000000000000000000 000000000000000000000000000000000000000     00000000                                                                                                                        000000000000000000
F0010000007627100001000089031248700013050500000000000000000201509160002001DISTRIBUIDORA CALIPLASTICOS LTDA                  D000000038469700000000000000000000100010010000000000000000000000F0010000007627100120150916000101 00000000000000000000000000000000000000000000000000000000000000000000000000000000000000000000000000000000000000000N 00000000000NCONT   00    00000000000          00000000000000000000000000000000000000000000 000000000000000A000000000000000000000000000000000000000000000 000000000000000000000000000000000000000     00000000                                                                                                                        000000000000000000
F0010000007627100002000089031248700041450500000000000000000201509160002001DISTRIBUIDORA CALIPLASTICOS LTDA                  C000000036794700000000000000000000100010010000000000000000000000F0010000007627100220150916000101 00000000000000000000000000000000000000000000000000000000000000000000000000000000000000000000000000000000000000000N 00000000000NCONT   00    00000000000          00000000000000000000000000000000000000000000 000000000000000A000000000000000000000000000000000000000000000 000000000000000000000000000000000000000     00000000                                                                                                                        000000000000000000
F0010000007627100003000089031248700042505000000000000000000201509160002001DISTRIBUIDORA CALIPLASTICOS LTDA                  C000000001675000000000000000000000100010010000000000000000000000F0010000007627100320150916000101 00000000000000000000000000000000000000000000000000000000000000000000000000000000000000000000000000000000000000000N 00000000000NCONT   00    00000000000          00000000000000000000000000000000000000000000 000000000000000A000000000000000000000000000000000000000000000 000000000000000000000000000000000000000     00000000                                                                                                                        000000000000000000
F0010000007627100004000089031248700023658300000000000000000201509160002001DISTRIBUIDORA CALIPLASTICOS LTDA                  C000000000294400000000000000000000100010010000000000000000000000F0010000007627100420150916000101 00000000000000000000000000000000000000000000000000000000000000000000000000000000000000000000000000000000000000000N 00000000000NCONT   00    00000000000          00000000000000000000000000000000000000000000 000000000000000A000000000000000000000000000000000000000000000 000000000000000000000000000000000000000     00000000                                                                                                                        000000000000000000
F0010000007627100005000089031248700013552100000000000000000201509160002001DISTRIBUIDORA CALIPLASTICOS LTDA                  D000000000294400000000000000000000100010010000000000000000000000F0010000007627100520150916000101 00000000000000000000000000000000000000000000000000000000000000000000000000000000000000000000000000000000000000000N 00000000000NCONT   00    00000000000          00000000000000000000000000000000000000000000 000000000000000A000000000000000000000000000000000000000000000 000000000000000000000000000000000000000     00000000                                                                                                                        000000000000000000
F0010000007627200001000080201127600013050500000000000000000201509160002001ELECTRICOS DEL RUIZ S.A.S.                        D000000037174000000000000000000000100010010000000000000000000000F0010000007627200120150916000101 00000000000000000000000000000000000000000000000000000000000000000000000000000000000000000000000000000000000000000N 00000000000NCONT   00    00000000000          00000000000000000000000000000000000000000000 000000000000000A000000000000000000000000000000000000000000000 000000000000000000000000000000000000000     00000000                                                                                                                        000000000000000000
F0010000007627200002000080201127600041450500000000000000000201509160002001ELECTRICOS DEL RUIZ S.A.S.                        C000000030010000000000000000000000100010010000000000000000000000F0010000007627200220150916000101 00000000000000000000000000000000000000000000000000000000000000000000000000000000000000000000000000000000000000000N 00000000000NCONT   00    00000000000          00000000000000000000000000000000000000000000 000000000000000A000000000000000000000000000000000000000000000 000000000000000000000000000000000000000     00000000                                                                                                                        000000000000000000
F0010000007627200003000080201127600042505000000000000000000201509160002001ELECTRICOS DEL RUIZ S.A.S.                        C000000007164000000000000000000000100010010000000000000000000000F0010000007627200320150916000101 00000000000000000000000000000000000000000000000000000000000000000000000000000000000000000000000000000000000000000N 00000000000NCONT   00    00000000000          00000000000000000000000000000000000000000000 000000000000000A000000000000000000000000000000000000000000000 000000000000000000000000000000000000000     00000000                                                                                                                        000000000000000000
F0010000007627200004000080201127600023658300000000000000000201509160002001ELECTRICOS DEL RUIZ S.A.S.                        C000000000240100000000000000000000100010010000000000000000000000F0010000007627200420150916000101 00000000000000000000000000000000000000000000000000000000000000000000000000000000000000000000000000000000000000000N 00000000000NCONT   00    00000000000          00000000000000000000000000000000000000000000 000000000000000A000000000000000000000000000000000000000000000 000000000000000000000000000000000000000     00000000                                                                                                                        000000000000000000
F0010000007627200005000080201127600013552100000000000000000201509160002001ELECTRICOS DEL RUIZ S.A.S.                        D000000000240100000000000000000000100010010000000000000000000000F0010000007627200520150916000101 00000000000000000000000000000000000000000000000000000000000000000000000000000000000000000000000000000000000000000N 00000000000NCONT   00    00000000000          00000000000000000000000000000000000000000000 000000000000000A000000000000000000000000000000000000000000000 000000000000000000000000000000000000000     00000000                                                                                                                        000000000000000000
F0010000007627300001000080202132300013050500000000000000000201509160002001SUM Y SERV DE LA COSTA LTDA                       D000000013610000000000000000000000100010010000000000000000000000F0010000007627300120150916000101 00000000000000000000000000000000000000000000000000000000000000000000000000000000000000000000000000000000000000000N 00000000000NCONT   00    00000000000          00000000000000000000000000000000000000000000 000000000000000A000000000000000000000000000000000000000000000 000000000000000000000000000000000000000     00000000                                                                                                                        000000000000000000
F0010000007627300002000080202132300041450500000000000000000201509160002001SUM Y SERV DE LA COSTA LTDA                       C000000012710000000000000000000000100010010000000000000000000000F0010000007627300220150916000101 00000000000000000000000000000000000000000000000000000000000000000000000000000000000000000000000000000000000000000N 00000000000NCONT   00    00000000000          00000000000000000000000000000000000000000000 000000000000000A000000000000000000000000000000000000000000000 000000000000000000000000000000000000000     00000000                                                                                                                        000000000000000000
F0010000007627300003000080202132300042505000000000000000000201509160002001SUM Y SERV DE LA COSTA LTDA                       C000000000900000000000000000000000100010010000000000000000000000F0010000007627300320150916000101 00000000000000000000000000000000000000000000000000000000000000000000000000000000000000000000000000000000000000000N 00000000000NCONT   00    00000000000          00000000000000000000000000000000000000000000 000000000000000A000000000000000000000000000000000000000000000 000000000000000000000000000000000000000     00000000                                                                                                                        000000000000000000
F0010000007627300004000080202132300023658300000000000000000201509160002001SUM Y SERV DE LA COSTA LTDA                       C000000000101700000000000000000000100010010000000000000000000000F0010000007627300420150916000101 00000000000000000000000000000000000000000000000000000000000000000000000000000000000000000000000000000000000000000N 00000000000NCONT   00    00000000000          00000000000000000000000000000000000000000000 000000000000000A000000000000000000000000000000000000000000000 000000000000000000000000000000000000000     00000000                                                                                                                        000000000000000000
F0010000007627300005000080202132300013552100000000000000000201509160002001SUM Y SERV DE LA COSTA LTDA                       D000000000101700000000000000000000100010010000000000000000000000F0010000007627300520150916000101 00000000000000000000000000000000000000000000000000000000000000000000000000000000000000000000000000000000000000000N 00000000000NCONT   00    00000000000          00000000000000000000000000000000000000000000 000000000000000A000000000000000000000000000000000000000000000 000000000000000000000000000000000000000     00000000                                                                                                                        000000000000000000
F0010000007627400001000000744822500013050500000000000000000201509160002001LABORATORIO Y PERFUMERIA BORGE                    D000000039180000000000000000000000100010010000000000000000000000F0010000007627400120150916000101 00000000000000000000000000000000000000000000000000000000000000000000000000000000000000000000000000000000000000000N 00000000000NCONT   00    00000000000          00000000000000000000000000000000000000000000 000000000000000A000000000000000000000000000000000000000000000 000000000000000000000000000000000000000     00000000                                                                                                                        000000000000000000
F0010000007627400002000000744822500041450500000000000000000201509160002001LABORATORIO Y PERFUMERIA BORGE                    C000000030740000000000000000000000100010010000000000000000000000F0010000007627400220150916000101 00000000000000000000000000000000000000000000000000000000000000000000000000000000000000000000000000000000000000000N 00000000000NCONT   00    00000000000          00000000000000000000000000000000000000000000 000000000000000A000000000000000000000000000000000000000000000 000000000000000000000000000000000000000     00000000                                                                                                                        000000000000000000
F0010000007627400003000000744822500042505000000000000000000201509160002001LABORATORIO Y PERFUMERIA BORGE                    C000000008440000000000000000000000100010010000000000000000000000F0010000007627400320150916000101 00000000000000000000000000000000000000000000000000000000000000000000000000000000000000000000000000000000000000000N 00000000000NCONT   00    00000000000          00000000000000000000000000000000000000000000 000000000000000A000000000000000000000000000000000000000000000 000000000000000000000000000000000000000     00000000                                                                                                                        000000000000000000
F0010000007627400004000000744822500023658300000000000000000201509160002001LABORATORIO Y PERFUMERIA BORGE                    C000000000245900000000000000000000100010010000000000000000000000F0010000007627400420150916000101 00000000000000000000000000000000000000000000000000000000000000000000000000000000000000000000000000000000000000000N 00000000000NCONT   00    00000000000          00000000000000000000000000000000000000000000 000000000000000A000000000000000000000000000000000000000000000 000000000000000000000000000000000000000     00000000                                                                                                                        000000000000000000
F0010000007627400005000000744822500013552100000000000000000201509160002001LABORATORIO Y PERFUMERIA BORGE                    D000000000245900000000000000000000100010010000000000000000000000F0010000007627400520150916000101 00000000000000000000000000000000000000000000000000000000000000000000000000000000000000000000000000000000000000000N 00000000000NCONT   00    00000000000          00000000000000000000000000000000000000000000 000000000000000A000000000000000000000000000000000000000000000 000000000000000000000000000000000000000     00000000                                                                                                                        000000000000000000
F0010000007627500001000007215896800013050500000000000000000201509160002001EDDIER CIRO                                       D000000043546600000000000000000000100010010000000000000000000000F0010000007627500120150916000101 00000000000000000000000000000000000000000000000000000000000000000000000000000000000000000000000000000000000000000N 00000000000NCONT   00    00000000000          00000000000000000000000000000000000000000000 000000000000000A000000000000000000000000000000000000000000000 000000000000000000000000000000000000000     00000000                                                                                                                        000000000000000000
F0010000007627500002000007215896800041450500000000000000000201509160002001EDDIER CIRO                                       C000000034600000000000000000000000100010010000000000000000000000F0010000007627500220150916000101 00000000000000000000000000000000000000000000000000000000000000000000000000000000000000000000000000000000000000000N 00000000000NCONT   00    00000000000          00000000000000000000000000000000000000000000 000000000000000A000000000000000000000000000000000000000000000 000000000000000000000000000000000000000     00000000                                                                                                                        000000000000000000
F0010000007627500003000007215896800042505000000000000000000201509160002001EDDIER CIRO                                       C000000008946600000000000000000000100010010000000000000000000000F0010000007627500320150916000101 00000000000000000000000000000000000000000000000000000000000000000000000000000000000000000000000000000000000000000N 00000000000NCONT   00    00000000000          00000000000000000000000000000000000000000000 000000000000000A000000000000000000000000000000000000000000000 000000000000000000000000000000000000000     00000000                                                                                                                        000000000000000000
F0010000007627500004000007215896800023658300000000000000000201509160002001EDDIER CIRO                                       C000000000276800000000000000000000100010010000000000000000000000F0010000007627500420150916000101 00000000000000000000000000000000000000000000000000000000000000000000000000000000000000000000000000000000000000000N 00000000000NCONT   00    00000000000          00000000000000000000000000000000000000000000 000000000000000A000000000000000000000000000000000000000000000 000000000000000000000000000000000000000     00000000                                                                                                                        000000000000000000
F0010000007627500005000007215896800013552100000000000000000201509160002001EDDIER CIRO                                       D000000000276800000000000000000000100010010000000000000000000000F0010000007627500520150916000101 00000000000000000000000000000000000000000000000000000000000000000000000000000000000000000000000000000000000000000N 00000000000NCONT   00    00000000000          00000000000000000000000000000000000000000000 000000000000000A000000000000000000000000000000000000000000000 000000000000000000000000000000000000000     00000000                                                                                                                        000000000000000000
F0010000007627600001000090044920600013050500000000000000000201509160002001QUATRO CARIBE SAS                                 D000000025508800000000000000000000100010010000000000000000000000F0010000007627600120150916000101 00000000000000000000000000000000000000000000000000000000000000000000000000000000000000000000000000000000000000000N 00000000000NCONT   00    00000000000          00000000000000000000000000000000000000000000 000000000000000A000000000000000000000000000000000000000000000 000000000000000000000000000000000000000     00000000                                                                                                                        000000000000000000
F0010000007627600002000090044920600041450500000000000000000201509160002001QUATRO CARIBE SAS                                 C000000020380000000000000000000000100010010000000000000000000000F0010000007627600220150916000101 00000000000000000000000000000000000000000000000000000000000000000000000000000000000000000000000000000000000000000N 00000000000NCONT   00    00000000000          00000000000000000000000000000000000000000000 000000000000000A000000000000000000000000000000000000000000000 000000000000000000000000000000000000000     00000000                                                                                                                        000000000000000000
F0010000007627600003000090044920600042505000000000000000000201509160002001QUATRO CARIBE SAS                                 C000000005128800000000000000000000100010010000000000000000000000F0010000007627600320150916000101 00000000000000000000000000000000000000000000000000000000000000000000000000000000000000000000000000000000000000000N 00000000000NCONT   00    00000000000          00000000000000000000000000000000000000000000 000000000000000A000000000000000000000000000000000000000000000 000000000000000000000000000000000000000     00000000                                                                                                                        000000000000000000
F0010000007627600004000090044920600023658300000000000000000201509160002001QUATRO CARIBE SAS                                 C000000000163000000000000000000000100010010000000000000000000000F0010000007627600420150916000101 00000000000000000000000000000000000000000000000000000000000000000000000000000000000000000000000000000000000000000N 00000000000NCONT   00    00000000000          00000000000000000000000000000000000000000000 000000000000000A000000000000000000000000000000000000000000000 000000000000000000000000000000000000000     00000000                                                                                                                        000000000000000000
F0010000007627600005000090044920600013552100000000000000000201509160002001QUATRO CARIBE SAS                                 D000000000163000000000000000000000100010010000000000000000000000F0010000007627600520150916000101 00000000000000000000000000000000000000000000000000000000000000000000000000000000000000000000000000000000000000000N 00000000000NCONT   00    00000000000          00000000000000000000000000000000000000000000 000000000000000A000000000000000000000000000000000000000000000 000000000000000000000000000000000000000     00000000                                                                                                                        000000000000000000
F0010000007627700001000090050863700013050500000000000000000201509160002001COMERCIALIZADORA PERFECT SAS                      D000000011515000000000000000000000100010010000000000000000000000F0010000007627700120150916000101 00000000000000000000000000000000000000000000000000000000000000000000000000000000000000000000000000000000000000000N 00000000000NCONT   00    00000000000          00000000000000000000000000000000000000000000 000000000000000A000000000000000000000000000000000000000000000 000000000000000000000000000000000000000     00000000                                                                                                                        000000000000000000
F0010000007627700002000090050863700041450500000000000000000201509160002001COMERCIALIZADORA PERFECT SAS                      C000000008340000000000000000000000100010010000000000000000000000F0010000007627700220150916000101 00000000000000000000000000000000000000000000000000000000000000000000000000000000000000000000000000000000000000000N 00000000000NCONT   00    00000000000          00000000000000000000000000000000000000000000 000000000000000A000000000000000000000000000000000000000000000 000000000000000000000000000000000000000     00000000                                                                                                                        000000000000000000
F0010000007627700003000090050863700042505000000000000000000201509160002001COMERCIALIZADORA PERFECT SAS                      C000000003175000000000000000000000100010010000000000000000000000F0010000007627700320150916000101 00000000000000000000000000000000000000000000000000000000000000000000000000000000000000000000000000000000000000000N 00000000000NCONT   00    00000000000          00000000000000000000000000000000000000000000 000000000000000A000000000000000000000000000000000000000000000 000000000000000000000000000000000000000     00000000                                                                                                                        000000000000000000
F0010000007627700004000090050863700023658300000000000000000201509160002001COMERCIALIZADORA PERFECT SAS                      C000000000066700000000000000000000100010010000000000000000000000F0010000007627700420150916000101 00000000000000000000000000000000000000000000000000000000000000000000000000000000000000000000000000000000000000000N 00000000000NCONT   00    00000000000          00000000000000000000000000000000000000000000 000000000000000A000000000000000000000000000000000000000000000 000000000000000000000000000000000000000     00000000                                                                                                                        000000000000000000
F0010000007627700005000090050863700013552100000000000000000201509160002001COMERCIALIZADORA PERFECT SAS                      D000000000066700000000000000000000100010010000000000000000000000F0010000007627700520150916000101 00000000000000000000000000000000000000000000000000000000000000000000000000000000000000000000000000000000000000000N 00000000000NCONT   00    00000000000          00000000000000000000000000000000000000000000 000000000000000A000000000000000000000000000000000000000000000 000000000000000000000000000000000000000     00000000                                                                                                                        000000000000000000
F0010000007627800001000004175790100013050500000000000000000201509160002001ROSIRIS FERIA HOYOS  (COSM. SHILLER)              D000000006000000000000000000000000100010010000000000000000000000F0010000007627800120150916000101 00000000000000000000000000000000000000000000000000000000000000000000000000000000000000000000000000000000000000000N 00000000000NCONT   00    00000000000          00000000000000000000000000000000000000000000 000000000000000A000000000000000000000000000000000000000000000 000000000000000000000000000000000000000     00000000                                                                                                                        000000000000000000
F0010000007627800002000004175790100041450500000000000000000201509160002001ROSIRIS FERIA HOYOS  (COSM. SHILLER)              C000000004500000000000000000000000100010010000000000000000000000F0010000007627800220150916000101 00000000000000000000000000000000000000000000000000000000000000000000000000000000000000000000000000000000000000000N 00000000000NCONT   00    00000000000          00000000000000000000000000000000000000000000 000000000000000A000000000000000000000000000000000000000000000 000000000000000000000000000000000000000     00000000                                                                                                                        000000000000000000
F0010000007627800003000004175790100042505000000000000000000201509160002001ROSIRIS FERIA HOYOS  (COSM. SHILLER)              C000000001500000000000000000000000100010010000000000000000000000F0010000007627800320150916000101 00000000000000000000000000000000000000000000000000000000000000000000000000000000000000000000000000000000000000000N 00000000000NCONT   00    00000000000          00000000000000000000000000000000000000000000 000000000000000A000000000000000000000000000000000000000000000 000000000000000000000000000000000000000     00000000                                                                                                                        000000000000000000
F0010000007627800004000004175790100023658300000000000000000201509160002001ROSIRIS FERIA HOYOS  (COSM. SHILLER)              C000000000036000000000000000000000100010010000000000000000000000F0010000007627800420150916000101 00000000000000000000000000000000000000000000000000000000000000000000000000000000000000000000000000000000000000000N 00000000000NCONT   00    00000000000          00000000000000000000000000000000000000000000 000000000000000A000000000000000000000000000000000000000000000 000000000000000000000000000000000000000     00000000                                                                                                                        000000000000000000
F0010000007627800005000004175790100013552100000000000000000201509160002001ROSIRIS FERIA HOYOS  (COSM. SHILLER)              D000000000036000000000000000000000100010010000000000000000000000F0010000007627800520150916000101 00000000000000000000000000000000000000000000000000000000000000000000000000000000000000000000000000000000000000000N 00000000000NCONT   00    00000000000          00000000000000000000000000000000000000000000 000000000000000A000000000000000000000000000000000000000000000 000000000000000000000000000000000000000     00000000                                                                                                                        000000000000000000
F0010000007627900001000086003979400013050500000000000000000201509160002001CALYPSO BARRANQUILLA LTDA                         D000000033450200000000000000000000100010010000000000000000000000F0010000007627900120150916000101 00000000000000000000000000000000000000000000000000000000000000000000000000000000000000000000000000000000000000000N 00000000000NCONT   00    00000000000          00000000000000000000000000000000000000000000 000000000000000A000000000000000000000000000000000000000000000 000000000000000000000000000000000000000     00000000                                                                                                                        000000000000000000
F0010000007627900002000086003979400041450500000000000000000201509160002001CALYPSO BARRANQUILLA LTDA                         C000000030100000000000000000000000100010010000000000000000000000F0010000007627900220150916000101 00000000000000000000000000000000000000000000000000000000000000000000000000000000000000000000000000000000000000000N 00000000000NCONT   00    00000000000          00000000000000000000000000000000000000000000 000000000000000A000000000000000000000000000000000000000000000 000000000000000000000000000000000000000     00000000                                                                                                                        000000000000000000
F0010000007627900003000086003979400042505000000000000000000201509160002001CALYPSO BARRANQUILLA LTDA                         C000000003350200000000000000000000100010010000000000000000000000F0010000007627900320150916000101 00000000000000000000000000000000000000000000000000000000000000000000000000000000000000000000000000000000000000000N 00000000000NCONT   00    00000000000          00000000000000000000000000000000000000000000 000000000000000A000000000000000000000000000000000000000000000 000000000000000000000000000000000000000     00000000                                                                                                                        000000000000000000
F0010000007627900004000086003979400023658300000000000000000201509160002001CALYPSO BARRANQUILLA LTDA                         C000000000240800000000000000000000100010010000000000000000000000F0010000007627900420150916000101 00000000000000000000000000000000000000000000000000000000000000000000000000000000000000000000000000000000000000000N 00000000000NCONT   00    00000000000          00000000000000000000000000000000000000000000 000000000000000A000000000000000000000000000000000000000000000 000000000000000000000000000000000000000     00000000                                                                                                                        000000000000000000
F0010000007627900005000086003979400013552100000000000000000201509160002001CALYPSO BARRANQUILLA LTDA                         D000000000240800000000000000000000100010010000000000000000000000F0010000007627900520150916000101 00000000000000000000000000000000000000000000000000000000000000000000000000000000000000000000000000000000000000000N 00000000000NCONT   00    00000000000          00000000000000000000000000000000000000000000 000000000000000A000000000000000000000000000000000000000000000 000000000000000000000000000000000000000     00000000                                                                                                                        000000000000000000
F0010000007628000001000089010272700013050500000000000000000201509160002001ALFONSOEME S.A.                                   D000000035115400000000000000000000100010010000000000000000000000F0010000007628000120150916000101 00000000000000000000000000000000000000000000000000000000000000000000000000000000000000000000000000000000000000000N 00000000000NCONT   00    00000000000          00000000000000000000000000000000000000000000 000000000000000A000000000000000000000000000000000000000000000 000000000000000000000000000000000000000     00000000                                                                                                                        000000000000000000
F0010000007628000002000089010272700041450500000000000000000201509160002001ALFONSOEME S.A.                                   C000000035906000000000000000000000100010010000000000000000000000F0010000007628000220150916000101 00000000000000000000000000000000000000000000000000000000000000000000000000000000000000000000000000000000000000000N 00000000000NCONT   00    00000000000          00000000000000000000000000000000000000000000 000000000000000A000000000000000000000000000000000000000000000 000000000000000000000000000000000000000     00000000                                                                                                                        000000000000000000
F0010000007628000003000089010272700041750100000000000000000201509160002001ALFONSOEME S.A.                                   D000000003590600000000000000000000100010010000000000000000000000F0010000007628000320150916000101 00000000000000000000000000000000000000000000000000000000000000000000000000000000000000000000000000000000000000000N 00000000000NCONT   00    00000000000          00000000000000000000000000000000000000000000 000000000000000A000000000000000000000000000000000000000000000 000000000000000000000000000000000000000     00000000                                                                                                                        000000000000000000
F0010000007628000004000089010272700042505000000000000000000201509160002001ALFONSOEME S.A.                                   C000000002800000000000000000000000100010010000000000000000000000F0010000007628000420150916000101 00000000000000000000000000000000000000000000000000000000000000000000000000000000000000000000000000000000000000000N 00000000000NCONT   00    00000000000          00000000000000000000000000000000000000000000 000000000000000A000000000000000000000000000000000000000000000 000000000000000000000000000000000000000     00000000                                                                                                                        000000000000000000
F0010000007628000005000089010272700023658300000000000000000201509160002001ALFONSOEME S.A.                                   C000000000287200000000000000000000100010010000000000000000000000F0010000007628000520150916000101 00000000000000000000000000000000000000000000000000000000000000000000000000000000000000000000000000000000000000000N 00000000000NCONT   00    00000000000          00000000000000000000000000000000000000000000 000000000000000A000000000000000000000000000000000000000000000 000000000000000000000000000000000000000     00000000                                                                                                                        000000000000000000
F0010000007628000006000089010272700013552100000000000000000201509160002001ALFONSOEME S.A.                                   D000000000287200000000000000000000100010010000000000000000000000F0010000007628000620150916000101 00000000000000000000000000000000000000000000000000000000000000000000000000000000000000000000000000000000000000000N 00000000000NCONT   00    00000000000          00000000000000000000000000000000000000000000 000000000000000A000000000000000000000000000000000000000000000 000000000000000000000000000000000000000     00000000                                                                                                                        000000000000000000
F0010000007628100001000089010272700013050500000000000000000201509160002001ALFONSOEME S.A.                                   D000000011558100000000000000000000100010010000000000000000000000F0010000007628100120150916000101 00000000000000000000000000000000000000000000000000000000000000000000000000000000000000000000000000000000000000000N 00000000000NCONT   00    00000000000          00000000000000000000000000000000000000000000 000000000000000A000000000000000000000000000000000000000000000 000000000000000000000000000000000000000     00000000                                                                                                                        000000000000000000
F0010000007628100002000089010272700041450500000000000000000201509160002001ALFONSOEME S.A.                                   C000000011509000000000000000000000100010010000000000000000000000F0010000007628100220150916000101 00000000000000000000000000000000000000000000000000000000000000000000000000000000000000000000000000000000000000000N 00000000000NCONT   00    00000000000          00000000000000000000000000000000000000000000 000000000000000A000000000000000000000000000000000000000000000 000000000000000000000000000000000000000     00000000                                                                                                                        000000000000000000
F0010000007628100003000089010272700041750100000000000000000201509160002001ALFONSOEME S.A.                                   D000000001150900000000000000000000100010010000000000000000000000F0010000007628100320150916000101 00000000000000000000000000000000000000000000000000000000000000000000000000000000000000000000000000000000000000000N 00000000000NCONT   00    00000000000          00000000000000000000000000000000000000000000 000000000000000A000000000000000000000000000000000000000000000 000000000000000000000000000000000000000     00000000                                                                                                                        000000000000000000
F0010000007628100004000089010272700042505000000000000000000201509160002001ALFONSOEME S.A.                                   C000000001200000000000000000000000100010010000000000000000000000F0010000007628100420150916000101 00000000000000000000000000000000000000000000000000000000000000000000000000000000000000000000000000000000000000000N 00000000000NCONT   00    00000000000          00000000000000000000000000000000000000000000 000000000000000A000000000000000000000000000000000000000000000 000000000000000000000000000000000000000     00000000                                                                                                                        000000000000000000
F0010000007628100005000089010272700023658300000000000000000201509160002001ALFONSOEME S.A.                                   C000000000092100000000000000000000100010010000000000000000000000F0010000007628100520150916000101 00000000000000000000000000000000000000000000000000000000000000000000000000000000000000000000000000000000000000000N 00000000000NCONT   00    00000000000          00000000000000000000000000000000000000000000 000000000000000A000000000000000000000000000000000000000000000 000000000000000000000000000000000000000     00000000                                                                                                                        000000000000000000
F0010000007628100006000089010272700013552100000000000000000201509160002001ALFONSOEME S.A.                                   D000000000092100000000000000000000100010010000000000000000000000F0010000007628100620150916000101 00000000000000000000000000000000000000000000000000000000000000000000000000000000000000000000000000000000000000000N 00000000000NCONT   00    00000000000          00000000000000000000000000000000000000000000 000000000000000A000000000000000000000000000000000000000000000 000000000000000000000000000000000000000     00000000                                                                                                                        000000000000000000
F0010000007628200001000089010952800013050500000000000000000201509160002001IND. LITOGRAF. BOSTON S.A.S.                      D000000040578200000000000000000000100010010000000000000000000000F0010000007628200120150916000101 00000000000000000000000000000000000000000000000000000000000000000000000000000000000000000000000000000000000000000N 00000000000NCONT   00    00000000000          00000000000000000000000000000000000000000000 000000000000000A000000000000000000000000000000000000000000000 000000000000000000000000000000000000000     00000000                                                                                                                        000000000000000000
F0010000007628200002000089010952800041450500000000000000000201509160002001IND. LITOGRAF. BOSTON S.A.S.                      C000000035228200000000000000000000100010010000000000000000000000F0010000007628200220150916000101 00000000000000000000000000000000000000000000000000000000000000000000000000000000000000000000000000000000000000000N 00000000000NCONT   00    00000000000          00000000000000000000000000000000000000000000 000000000000000A000000000000000000000000000000000000000000000 000000000000000000000000000000000000000     00000000                                                                                                                        000000000000000000
F0010000007628200003000089010952800042505000000000000000000201509160002001IND. LITOGRAF. BOSTON S.A.S.                      C000000005350000000000000000000000100010010000000000000000000000F0010000007628200320150916000101 00000000000000000000000000000000000000000000000000000000000000000000000000000000000000000000000000000000000000000N 00000000000NCONT   00    00000000000          00000000000000000000000000000000000000000000 000000000000000A000000000000000000000000000000000000000000000 000000000000000000000000000000000000000     00000000                                                                                                                        000000000000000000
F0010000007628200004000089010952800023658300000000000000000201509160002001IND. LITOGRAF. BOSTON S.A.S.                      C000000000281800000000000000000000100010010000000000000000000000F0010000007628200420150916000101 00000000000000000000000000000000000000000000000000000000000000000000000000000000000000000000000000000000000000000N 00000000000NCONT   00    00000000000          00000000000000000000000000000000000000000000 000000000000000A000000000000000000000000000000000000000000000 000000000000000000000000000000000000000     00000000                                                                                                                        000000000000000000
F0010000007628200005000089010952800013552100000000000000000201509160002001IND. LITOGRAF. BOSTON S.A.S.                      D000000000281800000000000000000000100010010000000000000000000000F0010000007628200520150916000101 00000000000000000000000000000000000000000000000000000000000000000000000000000000000000000000000000000000000000000N 00000000000NCONT   00    00000000000          00000000000000000000000000000000000000000000 000000000000000A000000000000000000000000000000000000000000000 000000000000000000000000000000000000000     00000000                                                                                                                        000000000000000000
F0010000007628300001000090073498600011050500000000000000000201509160002001VALTAC S.A.S                                      D000000003000000000000000000000000100010010000000000000000000000F0010000007628300120150916000101 00000000000000000000000000000000000000000000000000000000000000000000000000000000000000000000000000000000000000000N 00000000000NCONT   00    00000000000          00000000000000000000000000000000000000000000 000000000000000A000000000000000000000000000000000000000000000 000000000000000000000000000000000000000     00000000                                                                                                                        000000000000000000
F0010000007628300002000090073498600041450500000000000000000201509160002001VALTAC S.A.S                                      C000000002700000000000000000000000100010010000000000000000000000F0010000007628300220150916000101 00000000000000000000000000000000000000000000000000000000000000000000000000000000000000000000000000000000000000000N 00000000000NCONT   00    00000000000          00000000000000000000000000000000000000000000 000000000000000A000000000000000000000000000000000000000000000 000000000000000000000000000000000000000     00000000                                                                                                                        000000000000000000
F0010000007628300003000090073498600042505000000000000000000201509160002001VALTAC S.A.S                                      C000000000300000000000000000000000100010010000000000000000000000F0010000007628300320150916000101 00000000000000000000000000000000000000000000000000000000000000000000000000000000000000000000000000000000000000000N 00000000000NCONT   00    00000000000          00000000000000000000000000000000000000000000 000000000000000A000000000000000000000000000000000000000000000 000000000000000000000000000000000000000     00000000                                                                                                                        000000000000000000
F0010000007628300004000090073498600023658300000000000000000201509160002001VALTAC S.A.S                                      C000000000021600000000000000000000100010010000000000000000000000F0010000007628300420150916000101 00000000000000000000000000000000000000000000000000000000000000000000000000000000000000000000000000000000000000000N 00000000000NCONT   00    00000000000          00000000000000000000000000000000000000000000 000000000000000A000000000000000000000000000000000000000000000 000000000000000000000000000000000000000     00000000                                                                                                                        000000000000000000
F0010000007628300005000090073498600013552100000000000000000201509160002001VALTAC S.A.S                                      D000000000021600000000000000000000100010010000000000000000000000F0010000007628300520150916000101 00000000000000000000000000000000000000000000000000000000000000000000000000000000000000000000000000000000000000000N 00000000000NCONT   00    00000000000          00000000000000000000000000000000000000000000 000000000000000A000000000000000000000000000000000000000000000 000000000000000000000000000000000000000     00000000                                                                                                                        000000000000000000
F0010000007628400001000000869402400011050500000000000000000201509160002001ISRAEL MANGA                                      D000000002900000000000000000000000100010010000000000000000000000F0010000007628400120150916000101 00000000000000000000000000000000000000000000000000000000000000000000000000000000000000000000000000000000000000000N 00000000000NCONT   00    00000000000          00000000000000000000000000000000000000000000 000000000000000A000000000000000000000000000000000000000000000 000000000000000000000000000000000000000     00000000                                                                                                                        000000000000000000
F0010000007628400002000000869402400041450500000000000000000201509160002001ISRAEL MANGA                                      C000000002400000000000000000000000100010010000000000000000000000F0010000007628400220150916000101 00000000000000000000000000000000000000000000000000000000000000000000000000000000000000000000000000000000000000000N 00000000000NCONT   00    00000000000          00000000000000000000000000000000000000000000 000000000000000A000000000000000000000000000000000000000000000 000000000000000000000000000000000000000     00000000                                                                                                                        000000000000000000
F0010000007628400003000000869402400042505000000000000000000201509160002001ISRAEL MANGA                                      C000000000500000000000000000000000100010010000000000000000000000F0010000007628400320150916000101 00000000000000000000000000000000000000000000000000000000000000000000000000000000000000000000000000000000000000000N 00000000000NCONT   00    00000000000          00000000000000000000000000000000000000000000 000000000000000A000000000000000000000000000000000000000000000 000000000000000000000000000000000000000     00000000                                                                                                                        000000000000000000
F0010000007628400004000000869402400023658300000000000000000201509160002001ISRAEL MANGA                                      C000000000019200000000000000000000100010010000000000000000000000F0010000007628400420150916000101 00000000000000000000000000000000000000000000000000000000000000000000000000000000000000000000000000000000000000000N 00000000000NCONT   00    00000000000          00000000000000000000000000000000000000000000 000000000000000A000000000000000000000000000000000000000000000 000000000000000000000000000000000000000     00000000                                                                                                                        000000000000000000
F0010000007628400005000000869402400013552100000000000000000201509160002001ISRAEL MANGA                                      D000000000019200000000000000000000100010010000000000000000000000F0010000007628400520150916000101 00000000000000000000000000000000000000000000000000000000000000000000000000000000000000000000000000000000000000000N 00000000000NCONT   00    00000000000          00000000000000000000000000000000000000000000 000000000000000A000000000000000000000000000000000000000000000 000000000000000000000000000000000000000     00000000                                                                                                                        000000000000000000
F0010000007628500001000080202486100011050500000000000000000201509160002001DISTRIBUIDORA RAMBAL LTDA                         D000000007000000000000000000000000100010010000000000000000000000F0010000007628500120150916000101 00000000000000000000000000000000000000000000000000000000000000000000000000000000000000000000000000000000000000000N 00000000000NCONT   00    00000000000          00000000000000000000000000000000000000000000 000000000000000A000000000000000000000000000000000000000000000 000000000000000000000000000000000000000     00000000                                                                                                                        000000000000000000
F0010000007628500002000080202486100041450500000000000000000201509160002001DISTRIBUIDORA RAMBAL LTDA                         C000000006000000000000000000000000100010010000000000000000000000F0010000007628500220150916000101 00000000000000000000000000000000000000000000000000000000000000000000000000000000000000000000000000000000000000000N 00000000000NCONT   00    00000000000          00000000000000000000000000000000000000000000 000000000000000A000000000000000000000000000000000000000000000 000000000000000000000000000000000000000     00000000                                                                                                                        000000000000000000
F0010000007628500003000080202486100042505000000000000000000201509160002001DISTRIBUIDORA RAMBAL LTDA                         C000000001000000000000000000000000100010010000000000000000000000F0010000007628500320150916000101 00000000000000000000000000000000000000000000000000000000000000000000000000000000000000000000000000000000000000000N 00000000000NCONT   00    00000000000          00000000000000000000000000000000000000000000 000000000000000A000000000000000000000000000000000000000000000 000000000000000000000000000000000000000     00000000                                                                                                                        000000000000000000
F0010000007628500004000080202486100023658300000000000000000201509160002001DISTRIBUIDORA RAMBAL LTDA                         C000000000048000000000000000000000100010010000000000000000000000F0010000007628500420150916000101 00000000000000000000000000000000000000000000000000000000000000000000000000000000000000000000000000000000000000000N 00000000000NCONT   00    00000000000          00000000000000000000000000000000000000000000 000000000000000A000000000000000000000000000000000000000000000 000000000000000000000000000000000000000     00000000                                                                                                                        000000000000000000
F0010000007628500005000080202486100013552100000000000000000201509160002001DISTRIBUIDORA RAMBAL LTDA                         D000000000048000000000000000000000100010010000000000000000000000F0010000007628500520150916000101 00000000000000000000000000000000000000000000000000000000000000000000000000000000000000000000000000000000000000000N 00000000000NCONT   00    00000000000          00000000000000000000000000000000000000000000 000000000000000A000000000000000000000000000000000000000000000 000000000000000000000000000000000000000     00000000                                                                                                                        000000000000000000
F0010000007628600001000000869805000011050500000000000000000201509160002001WILLMAN RAMBAL                                    D000000003900000000000000000000000100010010000000000000000000000F0010000007628600120150916000101 00000000000000000000000000000000000000000000000000000000000000000000000000000000000000000000000000000000000000000N 00000000000NCONT   00    00000000000          00000000000000000000000000000000000000000000 000000000000000A000000000000000000000000000000000000000000000 000000000000000000000000000000000000000     00000000                                                                                                                        000000000000000000
F0010000007628600002000000869805000041450500000000000000000201509160002001WILLMAN RAMBAL                                    C000000003600000000000000000000000100010010000000000000000000000F0010000007628600220150916000101 00000000000000000000000000000000000000000000000000000000000000000000000000000000000000000000000000000000000000000N 00000000000NCONT   00    00000000000          00000000000000000000000000000000000000000000 000000000000000A000000000000000000000000000000000000000000000 000000000000000000000000000000000000000     00000000                                                                                                                        000000000000000000
F0010000007628600003000000869805000042505000000000000000000201509160002001WILLMAN RAMBAL                                    C000000000300000000000000000000000100010010000000000000000000000F0010000007628600320150916000101 00000000000000000000000000000000000000000000000000000000000000000000000000000000000000000000000000000000000000000N 00000000000NCONT   00    00000000000          00000000000000000000000000000000000000000000 000000000000000A000000000000000000000000000000000000000000000 000000000000000000000000000000000000000     00000000                                                                                                                        000000000000000000
F0010000007628600004000000869805000023658300000000000000000201509160002001WILLMAN RAMBAL                                    C000000000028800000000000000000000100010010000000000000000000000F0010000007628600420150916000101 00000000000000000000000000000000000000000000000000000000000000000000000000000000000000000000000000000000000000000N 00000000000NCONT   00    00000000000          00000000000000000000000000000000000000000000 000000000000000A000000000000000000000000000000000000000000000 000000000000000000000000000000000000000     00000000                                                                                                                        000000000000000000
F0010000007628600005000000869805000013552100000000000000000201509160002001WILLMAN RAMBAL                                    D000000000028800000000000000000000100010010000000000000000000000F0010000007628600520150916000101 00000000000000000000000000000000000000000000000000000000000000000000000000000000000000000000000000000000000000000N 00000000000NCONT   00    00000000000          00000000000000000000000000000000000000000000 000000000000000A000000000000000000000000000000000000000000000 000000000000000000000000000000000000000     00000000                                                                                                                        000000000000000000
F0010000007628700001000003207718300011050500000000000000000201509160002001MARIA GILMA RAMIREZ GARCIA                        D000000001100000000000000000000000100010010000000000000000000000F0010000007628700120150916000101 00000000000000000000000000000000000000000000000000000000000000000000000000000000000000000000000000000000000000000N 00000000000NCONT   00    00000000000          00000000000000000000000000000000000000000000 000000000000000A000000000000000000000000000000000000000000000 000000000000000000000000000000000000000     00000000                                                                                                                        000000000000000000
F0010000007628700002000003207718300041450500000000000000000201509160002001MARIA GILMA RAMIREZ GARCIA                        C000000001000000000000000000000000100010010000000000000000000000F0010000007628700220150916000101 00000000000000000000000000000000000000000000000000000000000000000000000000000000000000000000000000000000000000000N 00000000000NCONT   00    00000000000          00000000000000000000000000000000000000000000 000000000000000A000000000000000000000000000000000000000000000 000000000000000000000000000000000000000     00000000                                                                                                                        000000000000000000
F0010000007628700003000003207718300042505000000000000000000201509160002001MARIA GILMA RAMIREZ GARCIA                        C000000000100000000000000000000000100010010000000000000000000000F0010000007628700320150916000101 00000000000000000000000000000000000000000000000000000000000000000000000000000000000000000000000000000000000000000N 00000000000NCONT   00    00000000000          00000000000000000000000000000000000000000000 000000000000000A000000000000000000000000000000000000000000000 000000000000000000000000000000000000000     00000000                                                                                                                        000000000000000000
F0010000007628700004000003207718300023658300000000000000000201509160002001MARIA GILMA RAMIREZ GARCIA                        C000000000008000000000000000000000100010010000000000000000000000F0010000007628700420150916000101 00000000000000000000000000000000000000000000000000000000000000000000000000000000000000000000000000000000000000000N 00000000000NCONT   00    00000000000          00000000000000000000000000000000000000000000 000000000000000A000000000000000000000000000000000000000000000 000000000000000000000000000000000000000     00000000                                                                                                                        000000000000000000
F0010000007628700005000003207718300013552100000000000000000201509160002001MARIA GILMA RAMIREZ GARCIA                        D000000000008000000000000000000000100010010000000000000000000000F0010000007628700520150916000101 00000000000000000000000000000000000000000000000000000000000000000000000000000000000000000000000000000000000000000N 00000000000NCONT   00    00000000000          00000000000000000000000000000000000000000000 000000000000000A000000000000000000000000000000000000000000000 000000000000000000000000000000000000000     00000000                                                                                                                        000000000000000000
F0010000007628800001000003207718300011050500000000000000000201509160002001MARIA GILMA RAMIREZ GARCIA                        D000000002800000000000000000000000100010010000000000000000000000F0010000007628800120150916000101 00000000000000000000000000000000000000000000000000000000000000000000000000000000000000000000000000000000000000000N 00000000000NCONT   00    00000000000          00000000000000000000000000000000000000000000 000000000000000A000000000000000000000000000000000000000000000 000000000000000000000000000000000000000     00000000                                                                                                                        000000000000000000
F0010000007628800002000003207718300041450500000000000000000201509160002001MARIA GILMA RAMIREZ GARCIA                        C000000002400000000000000000000000100010010000000000000000000000F0010000007628800220150916000101 00000000000000000000000000000000000000000000000000000000000000000000000000000000000000000000000000000000000000000N 00000000000NCONT   00    00000000000          00000000000000000000000000000000000000000000 000000000000000A000000000000000000000000000000000000000000000 000000000000000000000000000000000000000     00000000                                                                                                                        000000000000000000
F0010000007628800003000003207718300042505000000000000000000201509160002001MARIA GILMA RAMIREZ GARCIA                        C000000000400000000000000000000000100010010000000000000000000000F0010000007628800320150916000101 00000000000000000000000000000000000000000000000000000000000000000000000000000000000000000000000000000000000000000N 00000000000NCONT   00    00000000000          00000000000000000000000000000000000000000000 000000000000000A000000000000000000000000000000000000000000000 000000000000000000000000000000000000000     00000000                                                                                                                        000000000000000000
F0010000007628800004000003207718300023658300000000000000000201509160002001MARIA GILMA RAMIREZ GARCIA                        C000000000019200000000000000000000100010010000000000000000000000F0010000007628800420150916000101 00000000000000000000000000000000000000000000000000000000000000000000000000000000000000000000000000000000000000000N 00000000000NCONT   00    00000000000          00000000000000000000000000000000000000000000 000000000000000A000000000000000000000000000000000000000000000 000000000000000000000000000000000000000     00000000                                                                                                                        000000000000000000
F0010000007628800005000003207718300013552100000000000000000201509160002001MARIA GILMA RAMIREZ GARCIA                        D000000000019200000000000000000000100010010000000000000000000000F0010000007628800520150916000101 00000000000000000000000000000000000000000000000000000000000000000000000000000000000000000000000000000000000000000N 00000000000NCONT   00    00000000000          00000000000000000000000000000000000000000000 000000000000000A000000000000000000000000000000000000000000000 000000000000000000000000000000000000000     00000000                                                                                                                        000000000000000000
F0010000007628900001000080201411900011050500000000000000000201509160002001PLASTISERVICIOS S DE H                            D000000001000000000000000000000000100010010000000000000000000000F0010000007628900120150916000101 00000000000000000000000000000000000000000000000000000000000000000000000000000000000000000000000000000000000000000N 00000000000NCONT   00    00000000000          00000000000000000000000000000000000000000000 000000000000000A000000000000000000000000000000000000000000000 000000000000000000000000000000000000000     00000000                                                                                                                        000000000000000000
F0010000007628900002000080201411900041450500000000000000000201509160002001PLASTISERVICIOS S DE H                            C000000000900000000000000000000000100010010000000000000000000000F0010000007628900220150916000101 00000000000000000000000000000000000000000000000000000000000000000000000000000000000000000000000000000000000000000N 00000000000NCONT   00    00000000000          00000000000000000000000000000000000000000000 000000000000000A000000000000000000000000000000000000000000000 000000000000000000000000000000000000000     00000000                                                                                                                        000000000000000000
F0010000007628900003000080201411900042505000000000000000000201509160002001PLASTISERVICIOS S DE H                            C000000000100000000000000000000000100010010000000000000000000000F0010000007628900320150916000101 00000000000000000000000000000000000000000000000000000000000000000000000000000000000000000000000000000000000000000N 00000000000NCONT   00    00000000000          00000000000000000000000000000000000000000000 000000000000000A000000000000000000000000000000000000000000000 000000000000000000000000000000000000000     00000000                                                                                                                        000000000000000000
F0010000007628900004000080201411900023658300000000000000000201509160002001PLASTISERVICIOS S DE H                            C000000000007200000000000000000000100010010000000000000000000000F0010000007628900420150916000101 00000000000000000000000000000000000000000000000000000000000000000000000000000000000000000000000000000000000000000N 00000000000NCONT   00    00000000000          00000000000000000000000000000000000000000000 000000000000000A000000000000000000000000000000000000000000000 000000000000000000000000000000000000000     00000000                                                                                                                        000000000000000000
F0010000007628900005000080201411900013552100000000000000000201509160002001PLASTISERVICIOS S DE H                            D000000000007200000000000000000000100010010000000000000000000000F0010000007628900520150916000101 00000000000000000000000000000000000000000000000000000000000000000000000000000000000000000000000000000000000000000N 00000000000NCONT   00    00000000000          00000000000000000000000000000000000000000000 000000000000000A000000000000000000000000000000000000000000000 000000000000000000000000000000000000000     00000000                                                                                                                        000000000000000000
F0010000007629000001000000870907300011050500000000000000000201509160002001SURTIDOR FERRETERO                                D000000003800000000000000000000000100010010000000000000000000000F0010000007629000120150916000101 00000000000000000000000000000000000000000000000000000000000000000000000000000000000000000000000000000000000000000N 00000000000NCONT   00    00000000000          00000000000000000000000000000000000000000000 000000000000000A000000000000000000000000000000000000000000000 000000000000000000000000000000000000000     00000000                                                                                                                        000000000000000000
F0010000007629000002000000870907300041450500000000000000000201509160002001SURTIDOR FERRETERO                                C000000002400000000000000000000000100010010000000000000000000000F0010000007629000220150916000101 00000000000000000000000000000000000000000000000000000000000000000000000000000000000000000000000000000000000000000N 00000000000NCONT   00    00000000000          00000000000000000000000000000000000000000000 000000000000000A000000000000000000000000000000000000000000000 000000000000000000000000000000000000000     00000000                                                                                                                        000000000000000000
F0010000007629000003000000870907300042505000000000000000000201509160002001SURTIDOR FERRETERO                                C000000001400000000000000000000000100010010000000000000000000000F0010000007629000320150916000101 00000000000000000000000000000000000000000000000000000000000000000000000000000000000000000000000000000000000000000N 00000000000NCONT   00    00000000000          00000000000000000000000000000000000000000000 000000000000000A000000000000000000000000000000000000000000000 000000000000000000000000000000000000000     00000000                                                                                                                        000000000000000000
F0010000007629000004000000870907300023658300000000000000000201509160002001SURTIDOR FERRETERO                                C000000000019200000000000000000000100010010000000000000000000000F0010000007629000420150916000101 00000000000000000000000000000000000000000000000000000000000000000000000000000000000000000000000000000000000000000N 00000000000NCONT   00    00000000000          00000000000000000000000000000000000000000000 000000000000000A000000000000000000000000000000000000000000000 000000000000000000000000000000000000000     00000000                                                                                                                        000000000000000000
F0010000007629000005000000870907300013552100000000000000000201509160002001SURTIDOR FERRETERO                                D000000000019200000000000000000000100010010000000000000000000000F0010000007629000520150916000101 00000000000000000000000000000000000000000000000000000000000000000000000000000000000000000000000000000000000000000N 00000000000NCONT   00    00000000000          00000000000000000000000000000000000000000000 000000000000000A000000000000000000000000000000000000000000000 000000000000000000000000000000000000000     00000000                                                                                                                        000000000000000000
F0010000007629100001000090007142100011050500000000000000000201509160002001TODO BELLEZA Y MAX S.A.S                          D000000016350000000000000000000000100010010000000000000000000000F0010000007629100120150916000101 00000000000000000000000000000000000000000000000000000000000000000000000000000000000000000000000000000000000000000N 00000000000NCONT   00    00000000000          00000000000000000000000000000000000000000000 000000000000000A000000000000000000000000000000000000000000000 000000000000000000000000000000000000000     00000000                                                                                                                        000000000000000000
F0010000007629100002000090007142100041450500000000000000000201509160002001TODO BELLEZA Y MAX S.A.S                          C000000016200000000000000000000000100010010000000000000000000000F0010000007629100220150916000101 00000000000000000000000000000000000000000000000000000000000000000000000000000000000000000000000000000000000000000N 00000000000NCONT   00    00000000000          00000000000000000000000000000000000000000000 000000000000000A000000000000000000000000000000000000000000000 000000000000000000000000000000000000000     00000000                                                                                                                        000000000000000000
F0010000007629100003000090007142100042505000000000000000000201509160002001TODO BELLEZA Y MAX S.A.S                          C000000000150000000000000000000000100010010000000000000000000000F0010000007629100320150916000101 00000000000000000000000000000000000000000000000000000000000000000000000000000000000000000000000000000000000000000N 00000000000NCONT   00    00000000000          00000000000000000000000000000000000000000000 000000000000000A000000000000000000000000000000000000000000000 000000000000000000000000000000000000000     00000000                                                                                                                        000000000000000000
F0010000007629100004000090007142100023658300000000000000000201509160002001TODO BELLEZA Y MAX S.A.S                          C000000000129600000000000000000000100010010000000000000000000000F0010000007629100420150916000101 00000000000000000000000000000000000000000000000000000000000000000000000000000000000000000000000000000000000000000N 00000000000NCONT   00    00000000000          00000000000000000000000000000000000000000000 000000000000000A000000000000000000000000000000000000000000000 000000000000000000000000000000000000000     00000000                                                                                                                        000000000000000000
F0010000007629100005000090007142100013552100000000000000000201509160002001TODO BELLEZA Y MAX S.A.S                          D000000000129600000000000000000000100010010000000000000000000000F0010000007629100520150916000101 00000000000000000000000000000000000000000000000000000000000000000000000000000000000000000000000000000000000000000N 00000000000NCONT   00    00000000000          00000000000000000000000000000000000000000000 000000000000000A000000000000000000000000000000000000000000000 000000000000000000000000000000000000000     00000000                                                                                                                        000000000000000000
F0010000007629200001000003287795000011050500000000000000000201509160002001COMERCIALIZADORA KUZMAR                           D000000010500000000000000000000000100010010000000000000000000000F0010000007629200120150916000101 00000000000000000000000000000000000000000000000000000000000000000000000000000000000000000000000000000000000000000N 00000000000NCONT   00    00000000000          00000000000000000000000000000000000000000000 000000000000000A000000000000000000000000000000000000000000000 000000000000000000000000000000000000000     00000000                                                                                                                        000000000000000000
F0010000007629200002000003287795000041450500000000000000000201509160002001COMERCIALIZADORA KUZMAR                           C000000010000000000000000000000000100010010000000000000000000000F0010000007629200220150916000101 00000000000000000000000000000000000000000000000000000000000000000000000000000000000000000000000000000000000000000N 00000000000NCONT   00    00000000000          00000000000000000000000000000000000000000000 000000000000000A000000000000000000000000000000000000000000000 000000000000000000000000000000000000000     00000000                                                                                                                        000000000000000000
F0010000007629200003000003287795000042505000000000000000000201509160002001COMERCIALIZADORA KUZMAR                           C000000000500000000000000000000000100010010000000000000000000000F0010000007629200320150916000101 00000000000000000000000000000000000000000000000000000000000000000000000000000000000000000000000000000000000000000N 00000000000NCONT   00    00000000000          00000000000000000000000000000000000000000000 000000000000000A000000000000000000000000000000000000000000000 000000000000000000000000000000000000000     00000000                                                                                                                        000000000000000000
F0010000007629200004000003287795000023658300000000000000000201509160002001COMERCIALIZADORA KUZMAR                           C000000000080000000000000000000000100010010000000000000000000000F0010000007629200420150916000101 00000000000000000000000000000000000000000000000000000000000000000000000000000000000000000000000000000000000000000N 00000000000NCONT   00    00000000000          00000000000000000000000000000000000000000000 000000000000000A000000000000000000000000000000000000000000000 000000000000000000000000000000000000000     00000000                                                                                                                        000000000000000000
F0010000007629200005000003287795000013552100000000000000000201509160002001COMERCIALIZADORA KUZMAR                           D000000000080000000000000000000000100010010000000000000000000000F0010000007629200520150916000101 00000000000000000000000000000000000000000000000000000000000000000000000000000000000000000000000000000000000000000N 00000000000NCONT   00    00000000000          00000000000000000000000000000000000000000000 000000000000000A000000000000000000000000000000000000000000000 000000000000000000000000000000000000000     00000000                                                                                                                        000000000000000000
F0010000007629300001000007200023300011050500000000000000000201509160002001WILLIAM ORTEGA                                    D000000003000000000000000000000000100010010000000000000000000000F0010000007629300120150916000101 00000000000000000000000000000000000000000000000000000000000000000000000000000000000000000000000000000000000000000N 00000000000NCONT   00    00000000000          00000000000000000000000000000000000000000000 000000000000000A000000000000000000000000000000000000000000000 000000000000000000000000000000000000000     00000000                                                                                                                        000000000000000000
F0010000007629300002000007200023300041450500000000000000000201509160002001WILLIAM ORTEGA                                    C000000002700000000000000000000000100010010000000000000000000000F0010000007629300220150916000101 00000000000000000000000000000000000000000000000000000000000000000000000000000000000000000000000000000000000000000N 00000000000NCONT   00    00000000000          00000000000000000000000000000000000000000000 000000000000000A000000000000000000000000000000000000000000000 000000000000000000000000000000000000000     00000000                                                                                                                        000000000000000000
F0010000007629300003000007200023300042505000000000000000000201509160002001WILLIAM ORTEGA                                    C000000000300000000000000000000000100010010000000000000000000000F0010000007629300320150916000101 00000000000000000000000000000000000000000000000000000000000000000000000000000000000000000000000000000000000000000N 00000000000NCONT   00    00000000000          00000000000000000000000000000000000000000000 000000000000000A000000000000000000000000000000000000000000000 000000000000000000000000000000000000000     00000000                                                                                                                        000000000000000000
F0010000007629300004000007200023300023658300000000000000000201509160002001WILLIAM ORTEGA                                    C000000000021600000000000000000000100010010000000000000000000000F0010000007629300420150916000101 00000000000000000000000000000000000000000000000000000000000000000000000000000000000000000000000000000000000000000N 00000000000NCONT   00    00000000000          00000000000000000000000000000000000000000000 000000000000000A000000000000000000000000000000000000000000000 000000000000000000000000000000000000000     00000000                                                                                                                        000000000000000000
F0010000007629300005000007200023300013552100000000000000000201509160002001WILLIAM ORTEGA                                    D000000000021600000000000000000000100010010000000000000000000000F0010000007629300520150916000101 00000000000000000000000000000000000000000000000000000000000000000000000000000000000000000000000000000000000000000N 00000000000NCONT   00    00000000000          00000000000000000000000000000000000000000000 000000000000000A000000000000000000000000000000000000000000000 000000000000000000000000000000000000000     00000000                                                                                                                        000000000000000000
F0010000007629400001000007200023300011050500000000000000000201509160002001WILLIAM ORTEGA                                    D000000003000000000000000000000000100010010000000000000000000000F0010000007629400120150916000101 00000000000000000000000000000000000000000000000000000000000000000000000000000000000000000000000000000000000000000N 00000000000NCONT   00    00000000000          00000000000000000000000000000000000000000000 000000000000000A000000000000000000000000000000000000000000000 000000000000000000000000000000000000000     00000000                                                                                                                        000000000000000000
F0010000007629400002000007200023300041450500000000000000000201509160002001WILLIAM ORTEGA                                    C000000002500000000000000000000000100010010000000000000000000000F0010000007629400220150916000101 00000000000000000000000000000000000000000000000000000000000000000000000000000000000000000000000000000000000000000N 00000000000NCONT   00    00000000000          00000000000000000000000000000000000000000000 000000000000000A000000000000000000000000000000000000000000000 000000000000000000000000000000000000000     00000000                                                                                                                        000000000000000000
F0010000007629400003000007200023300042505000000000000000000201509160002001WILLIAM ORTEGA                                    C000000000500000000000000000000000100010010000000000000000000000F0010000007629400320150916000101 00000000000000000000000000000000000000000000000000000000000000000000000000000000000000000000000000000000000000000N 00000000000NCONT   00    00000000000          00000000000000000000000000000000000000000000 000000000000000A000000000000000000000000000000000000000000000 000000000000000000000000000000000000000     00000000                                                                                                                        000000000000000000
F0010000007629400004000007200023300023658300000000000000000201509160002001WILLIAM ORTEGA                                    C000000000020000000000000000000000100010010000000000000000000000F0010000007629400420150916000101 00000000000000000000000000000000000000000000000000000000000000000000000000000000000000000000000000000000000000000N 00000000000NCONT   00    00000000000          00000000000000000000000000000000000000000000 000000000000000A000000000000000000000000000000000000000000000 000000000000000000000000000000000000000     00000000                                                                                                                        000000000000000000
F0010000007629400005000007200023300013552100000000000000000201509160002001WILLIAM ORTEGA                                    D000000000020000000000000000000000100010010000000000000000000000F0010000007629400520150916000101 00000000000000000000000000000000000000000000000000000000000000000000000000000000000000000000000000000000000000000N 00000000000NCONT   00    00000000000          00000000000000000000000000000000000000000000 000000000000000A000000000000000000000000000000000000000000000 000000000000000000000000000000000000000     00000000                                                                                                                        000000000000000000
F0010000007629500001000090052543100011050500000000000000000201509160002001SECRET COLOR SAS                                  D000000000900000000000000000000000100010010000000000000000000000F0010000007629500120150916000101 00000000000000000000000000000000000000000000000000000000000000000000000000000000000000000000000000000000000000000N 00000000000NCONT   00    00000000000          00000000000000000000000000000000000000000000 000000000000000A000000000000000000000000000000000000000000000 000000000000000000000000000000000000000     00000000                                                                                                                        000000000000000000
F0010000007629500002000090052543100041450500000000000000000201509160002001SECRET COLOR SAS                                  C000000000800000000000000000000000100010010000000000000000000000F0010000007629500220150916000101 00000000000000000000000000000000000000000000000000000000000000000000000000000000000000000000000000000000000000000N 00000000000NCONT   00    00000000000          00000000000000000000000000000000000000000000 000000000000000A000000000000000000000000000000000000000000000 000000000000000000000000000000000000000     00000000                                                                                                                        000000000000000000
F0010000007629500003000090052543100042505000000000000000000201509160002001SECRET COLOR SAS                                  C000000000100000000000000000000000100010010000000000000000000000F0010000007629500320150916000101 00000000000000000000000000000000000000000000000000000000000000000000000000000000000000000000000000000000000000000N 00000000000NCONT   00    00000000000          00000000000000000000000000000000000000000000 000000000000000A000000000000000000000000000000000000000000000 000000000000000000000000000000000000000     00000000                                                                                                                        000000000000000000
F0010000007629500004000090052543100023658300000000000000000201509160002001SECRET COLOR SAS                                  C000000000006400000000000000000000100010010000000000000000000000F0010000007629500420150916000101 00000000000000000000000000000000000000000000000000000000000000000000000000000000000000000000000000000000000000000N 00000000000NCONT   00    00000000000          00000000000000000000000000000000000000000000 000000000000000A000000000000000000000000000000000000000000000 000000000000000000000000000000000000000     00000000                                                                                                                        000000000000000000
F0010000007629500005000090052543100013552100000000000000000201509160002001SECRET COLOR SAS                                  D000000000006400000000000000000000100010010000000000000000000000F0010000007629500520150916000101 00000000000000000000000000000000000000000000000000000000000000000000000000000000000000000000000000000000000000000N 00000000000NCONT   00    00000000000          00000000000000000000000000000000000000000000 000000000000000A000000000000000000000000000000000000000000000 000000000000000000000000000000000000000     00000000                                                                                                                        000000000000000000
F0010000007629600001000090052543100011050500000000000000000201509160002001SECRET COLOR SAS                                  D000000000850000000000000000000000100010010000000000000000000000F0010000007629600120150916000101 00000000000000000000000000000000000000000000000000000000000000000000000000000000000000000000000000000000000000000N 00000000000NCONT   00    00000000000          00000000000000000000000000000000000000000000 000000000000000A000000000000000000000000000000000000000000000 000000000000000000000000000000000000000     00000000                                                                                                                        000000000000000000
F0010000007629600002000090052543100041450500000000000000000201509160002001SECRET COLOR SAS                                  C000000000750000000000000000000000100010010000000000000000000000F0010000007629600220150916000101 00000000000000000000000000000000000000000000000000000000000000000000000000000000000000000000000000000000000000000N 00000000000NCONT   00    00000000000          00000000000000000000000000000000000000000000 000000000000000A000000000000000000000000000000000000000000000 000000000000000000000000000000000000000     00000000                                                                                                                        000000000000000000
F0010000007629600003000090052543100042505000000000000000000201509160002001SECRET COLOR SAS                                  C000000000100000000000000000000000100010010000000000000000000000F0010000007629600320150916000101 00000000000000000000000000000000000000000000000000000000000000000000000000000000000000000000000000000000000000000N 00000000000NCONT   00    00000000000          00000000000000000000000000000000000000000000 000000000000000A000000000000000000000000000000000000000000000 000000000000000000000000000000000000000     00000000                                                                                                                        000000000000000000
F0010000007629600004000090052543100023658300000000000000000201509160002001SECRET COLOR SAS                                  C000000000006000000000000000000000100010010000000000000000000000F0010000007629600420150916000101 00000000000000000000000000000000000000000000000000000000000000000000000000000000000000000000000000000000000000000N 00000000000NCONT   00    00000000000          00000000000000000000000000000000000000000000 000000000000000A000000000000000000000000000000000000000000000 000000000000000000000000000000000000000     00000000                                                                                                                        000000000000000000
F0010000007629600005000090052543100013552100000000000000000201509160002001SECRET COLOR SAS                                  D000000000006000000000000000000000100010010000000000000000000000F0010000007629600520150916000101 00000000000000000000000000000000000000000000000000000000000000000000000000000000000000000000000000000000000000000N 00000000000NCONT   00    00000000000          00000000000000000000000000000000000000000000 000000000000000A000000000000000000000000000000000000000000000 000000000000000000000000000000000000000     00000000                                                                                                                        000000000000000000
F0010000007629700001000090055180500011050500000000000000000201509160002001LAMINAS Y SUELAS DE COLOMBIA S.A.S                D000000003500000000000000000000000100010010000000000000000000000F0010000007629700120150916000101 00000000000000000000000000000000000000000000000000000000000000000000000000000000000000000000000000000000000000000N 00000000000NCONT   00    00000000000          00000000000000000000000000000000000000000000 000000000000000A000000000000000000000000000000000000000000000 000000000000000000000000000000000000000     00000000                                                                                                                        000000000000000000
F0010000007629700002000090055180500041450500000000000000000201509160002001LAMINAS Y SUELAS DE COLOMBIA S.A.S                C000000002500000000000000000000000100010010000000000000000000000F0010000007629700220150916000101 00000000000000000000000000000000000000000000000000000000000000000000000000000000000000000000000000000000000000000N 00000000000NCONT   00    00000000000          00000000000000000000000000000000000000000000 000000000000000A000000000000000000000000000000000000000000000 000000000000000000000000000000000000000     00000000                                                                                                                        000000000000000000
F0010000007629700003000090055180500042505000000000000000000201509160002001LAMINAS Y SUELAS DE COLOMBIA S.A.S                C000000001000000000000000000000000100010010000000000000000000000F0010000007629700320150916000101 00000000000000000000000000000000000000000000000000000000000000000000000000000000000000000000000000000000000000000N 00000000000NCONT   00    00000000000          00000000000000000000000000000000000000000000 000000000000000A000000000000000000000000000000000000000000000 000000000000000000000000000000000000000     00000000                                                                                                                        000000000000000000
F0010000007629700004000090055180500023658300000000000000000201509160002001LAMINAS Y SUELAS DE COLOMBIA S.A.S                C000000000020000000000000000000000100010010000000000000000000000F0010000007629700420150916000101 00000000000000000000000000000000000000000000000000000000000000000000000000000000000000000000000000000000000000000N 00000000000NCONT   00    00000000000          00000000000000000000000000000000000000000000 000000000000000A000000000000000000000000000000000000000000000 000000000000000000000000000000000000000     00000000                                                                                                                        000000000000000000
F0010000007629700005000090055180500013552100000000000000000201509160002001LAMINAS Y SUELAS DE COLOMBIA S.A.S                D000000000020000000000000000000000100010010000000000000000000000F0010000007629700520150916000101 00000000000000000000000000000000000000000000000000000000000000000000000000000000000000000000000000000000000000000N 00000000000NCONT   00    00000000000          00000000000000000000000000000000000000000000 000000000000000A000000000000000000000000000000000000000000000 000000000000000000000000000000000000000     00000000                                                                                                                        000000000000000000
