F0010000010226800001000080200608400013050500000000000000000201708090002001HIT DISTRIBUCIONES SAS                            D000000004550000000000000000000000100010010000000000000000000000F0010000010226800120170809000101 00000000000000000000000000000000000000000000000000000000000000000000000000000000000000000000000000000000000000000N 00000000000NCONT   00    00000000000          00000000000000000000000000000000000000000000 000000000000000A000000000000000000000000000000000000000000000 000000000000000000000000000000000000000     00000000                                                                                                                        000000000000000000
F0010000010226800002000080200608400041450500000000000000000201708090002001HIT DISTRIBUCIONES SAS                            C000000003550000000000000000000000100010010000000000000000000000F0010000010226800220170809000101 00000000000000000000000000000000000000000000000000000000000000000000000000000000000000000000000000000000000000000N 00000000000NCONT   00    00000000000          00000000000000000000000000000000000000000000 000000000000000A000000000000000000000000000000000000000000000 000000000000000000000000000000000000000     00000000                                                                                                                        000000000000000000
F0010000010226800003000080200608400042505000000000000000000201708090002001HIT DISTRIBUCIONES SAS                            C000000001000000000000000000000000100010010000000000000000000000F0010000010226800320170809000101 00000000000000000000000000000000000000000000000000000000000000000000000000000000000000000000000000000000000000000N 00000000000NCONT   00    00000000000          00000000000000000000000000000000000000000000 000000000000000A000000000000000000000000000000000000000000000 000000000000000000000000000000000000000     00000000                                                                                                                        000000000000000000
F0010000010226800004000080200608400023658300000000000000000201708090002001HIT DISTRIBUCIONES SAS                            C000000000000000000000000000000000100010010000000000000000000000F0010000010226800420170809000101 00000000000000000000000000000000000000000000000000000000000000000000000000000000000000000000000000000000000000000N 00000000000NCONT   00    00000000000          00000000000000000000000000000000000000000000 000000000000000A000000000000000000000000000000000000000000000 000000000000000000000000000000000000000     00000000                                                                                                                        000000000000000000
F0010000010226800005000080200608400013552100000000000000000201708090002001HIT DISTRIBUCIONES SAS                            D000000000000000000000000000000000100010010000000000000000000000F0010000010226800520170809000101 00000000000000000000000000000000000000000000000000000000000000000000000000000000000000000000000000000000000000000N 00000000000NCONT   00    00000000000          00000000000000000000000000000000000000000000 000000000000000A000000000000000000000000000000000000000000000 000000000000000000000000000000000000000     00000000                                                                                                                        000000000000000000
F0010000010226900001000089031248700013050500000000000000000201708090002001DISTRIBUIDORA CALIPLASTICOS LTDA                  D000000059424800000000000000000000100010010000000000000000000000F0010000010226900120170809000101 00000000000000000000000000000000000000000000000000000000000000000000000000000000000000000000000000000000000000000N 00000000000NCONT   00    00000000000          00000000000000000000000000000000000000000000 000000000000000A000000000000000000000000000000000000000000000 000000000000000000000000000000000000000     00000000                                                                                                                        000000000000000000
F0010000010226900002000089031248700041450500000000000000000201708090002001DISTRIBUIDORA CALIPLASTICOS LTDA                  C000000057299800000000000000000000100010010000000000000000000000F0010000010226900220170809000101 00000000000000000000000000000000000000000000000000000000000000000000000000000000000000000000000000000000000000000N 00000000000NCONT   00    00000000000          00000000000000000000000000000000000000000000 000000000000000A000000000000000000000000000000000000000000000 000000000000000000000000000000000000000     00000000                                                                                                                        000000000000000000
F0010000010226900003000089031248700042505000000000000000000201708090002001DISTRIBUIDORA CALIPLASTICOS LTDA                  C000000002125000000000000000000000100010010000000000000000000000F0010000010226900320170809000101 00000000000000000000000000000000000000000000000000000000000000000000000000000000000000000000000000000000000000000N 00000000000NCONT   00    00000000000          00000000000000000000000000000000000000000000 000000000000000A000000000000000000000000000000000000000000000 000000000000000000000000000000000000000     00000000                                                                                                                        000000000000000000
F0010000010226900004000089031248700023658300000000000000000201708090002001DISTRIBUIDORA CALIPLASTICOS LTDA                  C000000000000000000000000000000000100010010000000000000000000000F0010000010226900420170809000101 00000000000000000000000000000000000000000000000000000000000000000000000000000000000000000000000000000000000000000N 00000000000NCONT   00    00000000000          00000000000000000000000000000000000000000000 000000000000000A000000000000000000000000000000000000000000000 000000000000000000000000000000000000000     00000000                                                                                                                        000000000000000000
F0010000010226900005000089031248700013552100000000000000000201708090002001DISTRIBUIDORA CALIPLASTICOS LTDA                  D000000000000000000000000000000000100010010000000000000000000000F0010000010226900520170809000101 00000000000000000000000000000000000000000000000000000000000000000000000000000000000000000000000000000000000000000N 00000000000NCONT   00    00000000000          00000000000000000000000000000000000000000000 000000000000000A000000000000000000000000000000000000000000000 000000000000000000000000000000000000000     00000000                                                                                                                        000000000000000000
