F0010000009041400001000090087846000011050500000000000000000201608260002001INTERCOMERCIAL DL SAS                             D000000001600000000000000000000000100010010000000000000000000000F0010000009041400120160826000101 00000000000000000000000000000000000000000000000000000000000000000000000000000000000000000000000000000000000000000N 00000000000NCONT   00    00000000000          00000000000000000000000000000000000000000000 000000000000000A000000000000000000000000000000000000000000000 000000000000000000000000000000000000000     00000000                                                                                                                        000000000000000000
F0010000009041400002000090087846000041450500000000000000000201608260002001INTERCOMERCIAL DL SAS                             C000000001500000000000000000000000100010010000000000000000000000F0010000009041400220160826000101 00000000000000000000000000000000000000000000000000000000000000000000000000000000000000000000000000000000000000000N 00000000000NCONT   00    00000000000          00000000000000000000000000000000000000000000 000000000000000A000000000000000000000000000000000000000000000 000000000000000000000000000000000000000     00000000                                                                                                                        000000000000000000
F0010000009041400003000090087846000042505000000000000000000201608260002001INTERCOMERCIAL DL SAS                             C000000000100000000000000000000000100010010000000000000000000000F0010000009041400320160826000101 00000000000000000000000000000000000000000000000000000000000000000000000000000000000000000000000000000000000000000N 00000000000NCONT   00    00000000000          00000000000000000000000000000000000000000000 000000000000000A000000000000000000000000000000000000000000000 000000000000000000000000000000000000000     00000000                                                                                                                        000000000000000000
F0010000009041400004000090087846000023658300000000000000000201608260002001INTERCOMERCIAL DL SAS                             C000000000012000000000000000000000100010010000000000000000000000F0010000009041400420160826000101 00000000000000000000000000000000000000000000000000000000000000000000000000000000000000000000000000000000000000000N 00000000000NCONT   00    00000000000          00000000000000000000000000000000000000000000 000000000000000A000000000000000000000000000000000000000000000 000000000000000000000000000000000000000     00000000                                                                                                                        000000000000000000
F0010000009041400005000090087846000013552100000000000000000201608260002001INTERCOMERCIAL DL SAS                             D000000000012000000000000000000000100010010000000000000000000000F0010000009041400520160826000101 00000000000000000000000000000000000000000000000000000000000000000000000000000000000000000000000000000000000000000N 00000000000NCONT   00    00000000000          00000000000000000000000000000000000000000000 000000000000000A000000000000000000000000000000000000000000000 000000000000000000000000000000000000000     00000000                                                                                                                        000000000000000000
F0010000009041500001000090087846000011050500000000000000000201608260002001INTERCOMERCIAL DL SAS                             D000000001600000000000000000000000100010010000000000000000000000F0010000009041500120160826000101 00000000000000000000000000000000000000000000000000000000000000000000000000000000000000000000000000000000000000000N 00000000000NCONT   00    00000000000          00000000000000000000000000000000000000000000 000000000000000A000000000000000000000000000000000000000000000 000000000000000000000000000000000000000     00000000                                                                                                                        000000000000000000
F0010000009041500002000090087846000041450500000000000000000201608260002001INTERCOMERCIAL DL SAS                             C000000001500000000000000000000000100010010000000000000000000000F0010000009041500220160826000101 00000000000000000000000000000000000000000000000000000000000000000000000000000000000000000000000000000000000000000N 00000000000NCONT   00    00000000000          00000000000000000000000000000000000000000000 000000000000000A000000000000000000000000000000000000000000000 000000000000000000000000000000000000000     00000000                                                                                                                        000000000000000000
F0010000009041500003000090087846000042505000000000000000000201608260002001INTERCOMERCIAL DL SAS                             C000000000100000000000000000000000100010010000000000000000000000F0010000009041500320160826000101 00000000000000000000000000000000000000000000000000000000000000000000000000000000000000000000000000000000000000000N 00000000000NCONT   00    00000000000          00000000000000000000000000000000000000000000 000000000000000A000000000000000000000000000000000000000000000 000000000000000000000000000000000000000     00000000                                                                                                                        000000000000000000
F0010000009041500004000090087846000023658300000000000000000201608260002001INTERCOMERCIAL DL SAS                             C000000000012000000000000000000000100010010000000000000000000000F0010000009041500420160826000101 00000000000000000000000000000000000000000000000000000000000000000000000000000000000000000000000000000000000000000N 00000000000NCONT   00    00000000000          00000000000000000000000000000000000000000000 000000000000000A000000000000000000000000000000000000000000000 000000000000000000000000000000000000000     00000000                                                                                                                        000000000000000000
F0010000009041500005000090087846000013552100000000000000000201608260002001INTERCOMERCIAL DL SAS                             D000000000012000000000000000000000100010010000000000000000000000F0010000009041500520160826000101 00000000000000000000000000000000000000000000000000000000000000000000000000000000000000000000000000000000000000000N 00000000000NCONT   00    00000000000          00000000000000000000000000000000000000000000 000000000000000A000000000000000000000000000000000000000000000 000000000000000000000000000000000000000     00000000                                                                                                                        000000000000000000
F0010000009041600001000080202094000013050500000000000000000201608260002001DISTRIB. OMAR ORREGO S.A.                         D000000079694300000000000000000000100010010000000000000000000000F0010000009041600120160826000101 00000000000000000000000000000000000000000000000000000000000000000000000000000000000000000000000000000000000000000N 00000000000NCONT   00    00000000000          00000000000000000000000000000000000000000000 000000000000000A000000000000000000000000000000000000000000000 000000000000000000000000000000000000000     00000000                                                                                                                        000000000000000000
F0010000009041600002000080202094000041450500000000000000000201608260002001DISTRIB. OMAR ORREGO S.A.                         C000000048650000000000000000000000100010010000000000000000000000F0010000009041600220160826000101 00000000000000000000000000000000000000000000000000000000000000000000000000000000000000000000000000000000000000000N 00000000000NCONT   00    00000000000          00000000000000000000000000000000000000000000 000000000000000A000000000000000000000000000000000000000000000 000000000000000000000000000000000000000     00000000                                                                                                                        000000000000000000
F0010000009041600003000080202094000042505000000000000000000201608260002001DISTRIB. OMAR ORREGO S.A.                         C000000031044300000000000000000000100010010000000000000000000000F0010000009041600320160826000101 00000000000000000000000000000000000000000000000000000000000000000000000000000000000000000000000000000000000000000N 00000000000NCONT   00    00000000000          00000000000000000000000000000000000000000000 000000000000000A000000000000000000000000000000000000000000000 000000000000000000000000000000000000000     00000000                                                                                                                        000000000000000000
F0010000009041600004000080202094000023658300000000000000000201608260002001DISTRIB. OMAR ORREGO S.A.                         C000000000389200000000000000000000100010010000000000000000000000F0010000009041600420160826000101 00000000000000000000000000000000000000000000000000000000000000000000000000000000000000000000000000000000000000000N 00000000000NCONT   00    00000000000          00000000000000000000000000000000000000000000 000000000000000A000000000000000000000000000000000000000000000 000000000000000000000000000000000000000     00000000                                                                                                                        000000000000000000
F0010000009041600005000080202094000013552100000000000000000201608260002001DISTRIB. OMAR ORREGO S.A.                         D000000000389200000000000000000000100010010000000000000000000000F0010000009041600520160826000101 00000000000000000000000000000000000000000000000000000000000000000000000000000000000000000000000000000000000000000N 00000000000NCONT   00    00000000000          00000000000000000000000000000000000000000000 000000000000000A000000000000000000000000000000000000000000000 000000000000000000000000000000000000000     00000000                                                                                                                        000000000000000000
F0010000009041700001000080202094000013050500000000000000000201608260002001DISTRIB. OMAR ORREGO S.A.                         D000000029563800000000000000000000100010010000000000000000000000F0010000009041700120160826000101 00000000000000000000000000000000000000000000000000000000000000000000000000000000000000000000000000000000000000000N 00000000000NCONT   00    00000000000          00000000000000000000000000000000000000000000 000000000000000A000000000000000000000000000000000000000000000 000000000000000000000000000000000000000     00000000                                                                                                                        000000000000000000
F0010000009041700002000080202094000041450500000000000000000201608260002001DISTRIB. OMAR ORREGO S.A.                         C000000018240000000000000000000000100010010000000000000000000000F0010000009041700220160826000101 00000000000000000000000000000000000000000000000000000000000000000000000000000000000000000000000000000000000000000N 00000000000NCONT   00    00000000000          00000000000000000000000000000000000000000000 000000000000000A000000000000000000000000000000000000000000000 000000000000000000000000000000000000000     00000000                                                                                                                        000000000000000000
F0010000009041700003000080202094000042505000000000000000000201608260002001DISTRIB. OMAR ORREGO S.A.                         C000000011323800000000000000000000100010010000000000000000000000F0010000009041700320160826000101 00000000000000000000000000000000000000000000000000000000000000000000000000000000000000000000000000000000000000000N 00000000000NCONT   00    00000000000          00000000000000000000000000000000000000000000 000000000000000A000000000000000000000000000000000000000000000 000000000000000000000000000000000000000     00000000                                                                                                                        000000000000000000
F0010000009041700004000080202094000023658300000000000000000201608260002001DISTRIB. OMAR ORREGO S.A.                         C000000000145900000000000000000000100010010000000000000000000000F0010000009041700420160826000101 00000000000000000000000000000000000000000000000000000000000000000000000000000000000000000000000000000000000000000N 00000000000NCONT   00    00000000000          00000000000000000000000000000000000000000000 000000000000000A000000000000000000000000000000000000000000000 000000000000000000000000000000000000000     00000000                                                                                                                        000000000000000000
F0010000009041700005000080202094000013552100000000000000000201608260002001DISTRIB. OMAR ORREGO S.A.                         D000000000145900000000000000000000100010010000000000000000000000F0010000009041700520160826000101 00000000000000000000000000000000000000000000000000000000000000000000000000000000000000000000000000000000000000000N 00000000000NCONT   00    00000000000          00000000000000000000000000000000000000000000 000000000000000A000000000000000000000000000000000000000000000 000000000000000000000000000000000000000     00000000                                                                                                                        000000000000000000
F0010000009041800001000004249706000011050500000000000000000201608260002001ANA GOMEZ ALCALA                                  D000000001500000000000000000000000100010010000000000000000000000F0010000009041800120160826000101 00000000000000000000000000000000000000000000000000000000000000000000000000000000000000000000000000000000000000000N 00000000000NCONT   00    00000000000          00000000000000000000000000000000000000000000 000000000000000A000000000000000000000000000000000000000000000 000000000000000000000000000000000000000     00000000                                                                                                                        000000000000000000
F0010000009041800002000004249706000041450500000000000000000201608260002001ANA GOMEZ ALCALA                                  C000000001300000000000000000000000100010010000000000000000000000F0010000009041800220160826000101 00000000000000000000000000000000000000000000000000000000000000000000000000000000000000000000000000000000000000000N 00000000000NCONT   00    00000000000          00000000000000000000000000000000000000000000 000000000000000A000000000000000000000000000000000000000000000 000000000000000000000000000000000000000     00000000                                                                                                                        000000000000000000
F0010000009041800003000004249706000042505000000000000000000201608260002001ANA GOMEZ ALCALA                                  C000000000200000000000000000000000100010010000000000000000000000F0010000009041800320160826000101 00000000000000000000000000000000000000000000000000000000000000000000000000000000000000000000000000000000000000000N 00000000000NCONT   00    00000000000          00000000000000000000000000000000000000000000 000000000000000A000000000000000000000000000000000000000000000 000000000000000000000000000000000000000     00000000                                                                                                                        000000000000000000
F0010000009041800004000004249706000023658300000000000000000201608260002001ANA GOMEZ ALCALA                                  C000000000010400000000000000000000100010010000000000000000000000F0010000009041800420160826000101 00000000000000000000000000000000000000000000000000000000000000000000000000000000000000000000000000000000000000000N 00000000000NCONT   00    00000000000          00000000000000000000000000000000000000000000 000000000000000A000000000000000000000000000000000000000000000 000000000000000000000000000000000000000     00000000                                                                                                                        000000000000000000
F0010000009041800005000004249706000013552100000000000000000201608260002001ANA GOMEZ ALCALA                                  D000000000010400000000000000000000100010010000000000000000000000F0010000009041800520160826000101 00000000000000000000000000000000000000000000000000000000000000000000000000000000000000000000000000000000000000000N 00000000000NCONT   00    00000000000          00000000000000000000000000000000000000000000 000000000000000A000000000000000000000000000000000000000000000 000000000000000000000000000000000000000     00000000                                                                                                                        000000000000000000
F0010000009041900001000090029584600011050500000000000000000201608260002001TQM DISTRIBUCIONES SAS                            D000000001800000000000000000000000100010010000000000000000000000F0010000009041900120160826000101 00000000000000000000000000000000000000000000000000000000000000000000000000000000000000000000000000000000000000000N 00000000000NCONT   00    00000000000          00000000000000000000000000000000000000000000 000000000000000A000000000000000000000000000000000000000000000 000000000000000000000000000000000000000     00000000                                                                                                                        000000000000000000
F0010000009041900002000090029584600041450500000000000000000201608260002001TQM DISTRIBUCIONES SAS                            C000000001400000000000000000000000100010010000000000000000000000F0010000009041900220160826000101 00000000000000000000000000000000000000000000000000000000000000000000000000000000000000000000000000000000000000000N 00000000000NCONT   00    00000000000          00000000000000000000000000000000000000000000 000000000000000A000000000000000000000000000000000000000000000 000000000000000000000000000000000000000     00000000                                                                                                                        000000000000000000
F0010000009041900003000090029584600042505000000000000000000201608260002001TQM DISTRIBUCIONES SAS                            C000000000400000000000000000000000100010010000000000000000000000F0010000009041900320160826000101 00000000000000000000000000000000000000000000000000000000000000000000000000000000000000000000000000000000000000000N 00000000000NCONT   00    00000000000          00000000000000000000000000000000000000000000 000000000000000A000000000000000000000000000000000000000000000 000000000000000000000000000000000000000     00000000                                                                                                                        000000000000000000
F0010000009041900004000090029584600023658300000000000000000201608260002001TQM DISTRIBUCIONES SAS                            C000000000011200000000000000000000100010010000000000000000000000F0010000009041900420160826000101 00000000000000000000000000000000000000000000000000000000000000000000000000000000000000000000000000000000000000000N 00000000000NCONT   00    00000000000          00000000000000000000000000000000000000000000 000000000000000A000000000000000000000000000000000000000000000 000000000000000000000000000000000000000     00000000                                                                                                                        000000000000000000
F0010000009041900005000090029584600013552100000000000000000201608260002001TQM DISTRIBUCIONES SAS                            D000000000011200000000000000000000100010010000000000000000000000F0010000009041900520160826000101 00000000000000000000000000000000000000000000000000000000000000000000000000000000000000000000000000000000000000000N 00000000000NCONT   00    00000000000          00000000000000000000000000000000000000000000 000000000000000A000000000000000000000000000000000000000000000 000000000000000000000000000000000000000     00000000                                                                                                                        000000000000000000
F0010000009042000001000080201112800013050500000000000000000201608260002001CANGURO INTERNATIONAL S.A.                        D000000119587600000000000000000000100010010000000000000000000000F0010000009042000120160826000101 00000000000000000000000000000000000000000000000000000000000000000000000000000000000000000000000000000000000000000N 00000000000NCONT   00    00000000000          00000000000000000000000000000000000000000000 000000000000000A000000000000000000000000000000000000000000000 000000000000000000000000000000000000000     00000000                                                                                                                        000000000000000000
F0010000009042000002000080201112800041450500000000000000000201608260002001CANGURO INTERNATIONAL S.A.                        C000000119587600000000000000000000100010010000000000000000000000F0010000009042000220160826000101 00000000000000000000000000000000000000000000000000000000000000000000000000000000000000000000000000000000000000000N 00000000000NCONT   00    00000000000          00000000000000000000000000000000000000000000 000000000000000A000000000000000000000000000000000000000000000 000000000000000000000000000000000000000     00000000                                                                                                                        000000000000000000
F0010000009042000003000080201112800042505000000000000000000201608260002001CANGURO INTERNATIONAL S.A.                        C000000000000000000000000000000000100010010000000000000000000000F0010000009042000320160826000101 00000000000000000000000000000000000000000000000000000000000000000000000000000000000000000000000000000000000000000N 00000000000NCONT   00    00000000000          00000000000000000000000000000000000000000000 000000000000000A000000000000000000000000000000000000000000000 000000000000000000000000000000000000000     00000000                                                                                                                        000000000000000000
F0010000009042000004000080201112800023658300000000000000000201608260002001CANGURO INTERNATIONAL S.A.                        C000000000956700000000000000000000100010010000000000000000000000F0010000009042000420160826000101 00000000000000000000000000000000000000000000000000000000000000000000000000000000000000000000000000000000000000000N 00000000000NCONT   00    00000000000          00000000000000000000000000000000000000000000 000000000000000A000000000000000000000000000000000000000000000 000000000000000000000000000000000000000     00000000                                                                                                                        000000000000000000
F0010000009042000005000080201112800013552100000000000000000201608260002001CANGURO INTERNATIONAL S.A.                        D000000000956700000000000000000000100010010000000000000000000000F0010000009042000520160826000101 00000000000000000000000000000000000000000000000000000000000000000000000000000000000000000000000000000000000000000N 00000000000NCONT   00    00000000000          00000000000000000000000000000000000000000000 000000000000000A000000000000000000000000000000000000000000000 000000000000000000000000000000000000000     00000000                                                                                                                        000000000000000000
F0010000009042100001000080201112800013050500000000000000000201608260002001CANGURO INTERNATIONAL S.A.                        D000000265848900000000000000000000100010010000000000000000000000F0010000009042100120160826000101 00000000000000000000000000000000000000000000000000000000000000000000000000000000000000000000000000000000000000000N 00000000000NCONT   00    00000000000          00000000000000000000000000000000000000000000 000000000000000A000000000000000000000000000000000000000000000 000000000000000000000000000000000000000     00000000                                                                                                                        000000000000000000
F0010000009042100002000080201112800041450500000000000000000201608260002001CANGURO INTERNATIONAL S.A.                        C000000251713000000000000000000000100010010000000000000000000000F0010000009042100220160826000101 00000000000000000000000000000000000000000000000000000000000000000000000000000000000000000000000000000000000000000N 00000000000NCONT   00    00000000000          00000000000000000000000000000000000000000000 000000000000000A000000000000000000000000000000000000000000000 000000000000000000000000000000000000000     00000000                                                                                                                        000000000000000000
F0010000009042100003000080201112800042505000000000000000000201608260002001CANGURO INTERNATIONAL S.A.                        C000000014135900000000000000000000100010010000000000000000000000F0010000009042100320160826000101 00000000000000000000000000000000000000000000000000000000000000000000000000000000000000000000000000000000000000000N 00000000000NCONT   00    00000000000          00000000000000000000000000000000000000000000 000000000000000A000000000000000000000000000000000000000000000 000000000000000000000000000000000000000     00000000                                                                                                                        000000000000000000
F0010000009042100004000080201112800023658300000000000000000201608260002001CANGURO INTERNATIONAL S.A.                        C000000002013700000000000000000000100010010000000000000000000000F0010000009042100420160826000101 00000000000000000000000000000000000000000000000000000000000000000000000000000000000000000000000000000000000000000N 00000000000NCONT   00    00000000000          00000000000000000000000000000000000000000000 000000000000000A000000000000000000000000000000000000000000000 000000000000000000000000000000000000000     00000000                                                                                                                        000000000000000000
F0010000009042100005000080201112800013552100000000000000000201608260002001CANGURO INTERNATIONAL S.A.                        D000000002013700000000000000000000100010010000000000000000000000F0010000009042100520160826000101 00000000000000000000000000000000000000000000000000000000000000000000000000000000000000000000000000000000000000000N 00000000000NCONT   00    00000000000          00000000000000000000000000000000000000000000 000000000000000A000000000000000000000000000000000000000000000 000000000000000000000000000000000000000     00000000                                                                                                                        000000000000000000
F0010000009042200001000080201112800013050500000000000000000201608260002001CANGURO INTERNATIONAL S.A.                        D000000034020900000000000000000000100010010000000000000000000000F0010000009042200120160826000101 00000000000000000000000000000000000000000000000000000000000000000000000000000000000000000000000000000000000000000N 00000000000NCONT   00    00000000000          00000000000000000000000000000000000000000000 000000000000000A000000000000000000000000000000000000000000000 000000000000000000000000000000000000000     00000000                                                                                                                        000000000000000000
F0010000009042200002000080201112800041450500000000000000000201608260002001CANGURO INTERNATIONAL S.A.                        C000000034020900000000000000000000100010010000000000000000000000F0010000009042200220160826000101 00000000000000000000000000000000000000000000000000000000000000000000000000000000000000000000000000000000000000000N 00000000000NCONT   00    00000000000          00000000000000000000000000000000000000000000 000000000000000A000000000000000000000000000000000000000000000 000000000000000000000000000000000000000     00000000                                                                                                                        000000000000000000
F0010000009042200003000080201112800042505000000000000000000201608260002001CANGURO INTERNATIONAL S.A.                        C000000000000000000000000000000000100010010000000000000000000000F0010000009042200320160826000101 00000000000000000000000000000000000000000000000000000000000000000000000000000000000000000000000000000000000000000N 00000000000NCONT   00    00000000000          00000000000000000000000000000000000000000000 000000000000000A000000000000000000000000000000000000000000000 000000000000000000000000000000000000000     00000000                                                                                                                        000000000000000000
F0010000009042200004000080201112800023658300000000000000000201608260002001CANGURO INTERNATIONAL S.A.                        C000000000272200000000000000000000100010010000000000000000000000F0010000009042200420160826000101 00000000000000000000000000000000000000000000000000000000000000000000000000000000000000000000000000000000000000000N 00000000000NCONT   00    00000000000          00000000000000000000000000000000000000000000 000000000000000A000000000000000000000000000000000000000000000 000000000000000000000000000000000000000     00000000                                                                                                                        000000000000000000
F0010000009042200005000080201112800013552100000000000000000201608260002001CANGURO INTERNATIONAL S.A.                        D000000000272200000000000000000000100010010000000000000000000000F0010000009042200520160826000101 00000000000000000000000000000000000000000000000000000000000000000000000000000000000000000000000000000000000000000N 00000000000NCONT   00    00000000000          00000000000000000000000000000000000000000000 000000000000000A000000000000000000000000000000000000000000000 000000000000000000000000000000000000000     00000000                                                                                                                        000000000000000000
F0010000009042300001000080201601700013050500000000000000000201608260002001PLASTICOS SUPERIOR S.A.                           D000000059090000000000000000000000100010010000000000000000000000F0010000009042300120160826000101 00000000000000000000000000000000000000000000000000000000000000000000000000000000000000000000000000000000000000000N 00000000000NCONT   00    00000000000          00000000000000000000000000000000000000000000 000000000000000A000000000000000000000000000000000000000000000 000000000000000000000000000000000000000     00000000                                                                                                                        000000000000000000
F0010000009042300002000080201601700041450500000000000000000201608260002001PLASTICOS SUPERIOR S.A.                           C000000057090000000000000000000000100010010000000000000000000000F0010000009042300220160826000101 00000000000000000000000000000000000000000000000000000000000000000000000000000000000000000000000000000000000000000N 00000000000NCONT   00    00000000000          00000000000000000000000000000000000000000000 000000000000000A000000000000000000000000000000000000000000000 000000000000000000000000000000000000000     00000000                                                                                                                        000000000000000000
F0010000009042300003000080201601700042505000000000000000000201608260002001PLASTICOS SUPERIOR S.A.                           C000000002000000000000000000000000100010010000000000000000000000F0010000009042300320160826000101 00000000000000000000000000000000000000000000000000000000000000000000000000000000000000000000000000000000000000000N 00000000000NCONT   00    00000000000          00000000000000000000000000000000000000000000 000000000000000A000000000000000000000000000000000000000000000 000000000000000000000000000000000000000     00000000                                                                                                                        000000000000000000
F0010000009042300004000080201601700023658300000000000000000201608260002001PLASTICOS SUPERIOR S.A.                           C000000000456700000000000000000000100010010000000000000000000000F0010000009042300420160826000101 00000000000000000000000000000000000000000000000000000000000000000000000000000000000000000000000000000000000000000N 00000000000NCONT   00    00000000000          00000000000000000000000000000000000000000000 000000000000000A000000000000000000000000000000000000000000000 000000000000000000000000000000000000000     00000000                                                                                                                        000000000000000000
F0010000009042300005000080201601700013552100000000000000000201608260002001PLASTICOS SUPERIOR S.A.                           D000000000456700000000000000000000100010010000000000000000000000F0010000009042300520160826000101 00000000000000000000000000000000000000000000000000000000000000000000000000000000000000000000000000000000000000000N 00000000000NCONT   00    00000000000          00000000000000000000000000000000000000000000 000000000000000A000000000000000000000000000000000000000000000 000000000000000000000000000000000000000     00000000                                                                                                                        000000000000000000
F0010000009042400001000003207718300011050500000000000000000201608260002001MARIA GILMA RAMIREZ GARCIA                        D000000003000000000000000000000000100010010000000000000000000000F0010000009042400120160826000101 00000000000000000000000000000000000000000000000000000000000000000000000000000000000000000000000000000000000000000N 00000000000NCONT   00    00000000000          00000000000000000000000000000000000000000000 000000000000000A000000000000000000000000000000000000000000000 000000000000000000000000000000000000000     00000000                                                                                                                        000000000000000000
F0010000009042400002000003207718300041450500000000000000000201608260002001MARIA GILMA RAMIREZ GARCIA                        C000000002600000000000000000000000100010010000000000000000000000F0010000009042400220160826000101 00000000000000000000000000000000000000000000000000000000000000000000000000000000000000000000000000000000000000000N 00000000000NCONT   00    00000000000          00000000000000000000000000000000000000000000 000000000000000A000000000000000000000000000000000000000000000 000000000000000000000000000000000000000     00000000                                                                                                                        000000000000000000
F0010000009042400003000003207718300042505000000000000000000201608260002001MARIA GILMA RAMIREZ GARCIA                        C000000000400000000000000000000000100010010000000000000000000000F0010000009042400320160826000101 00000000000000000000000000000000000000000000000000000000000000000000000000000000000000000000000000000000000000000N 00000000000NCONT   00    00000000000          00000000000000000000000000000000000000000000 000000000000000A000000000000000000000000000000000000000000000 000000000000000000000000000000000000000     00000000                                                                                                                        000000000000000000
F0010000009042400004000003207718300023658300000000000000000201608260002001MARIA GILMA RAMIREZ GARCIA                        C000000000020800000000000000000000100010010000000000000000000000F0010000009042400420160826000101 00000000000000000000000000000000000000000000000000000000000000000000000000000000000000000000000000000000000000000N 00000000000NCONT   00    00000000000          00000000000000000000000000000000000000000000 000000000000000A000000000000000000000000000000000000000000000 000000000000000000000000000000000000000     00000000                                                                                                                        000000000000000000
F0010000009042400005000003207718300013552100000000000000000201608260002001MARIA GILMA RAMIREZ GARCIA                        D000000000020800000000000000000000100010010000000000000000000000F0010000009042400520160826000101 00000000000000000000000000000000000000000000000000000000000000000000000000000000000000000000000000000000000000000N 00000000000NCONT   00    00000000000          00000000000000000000000000000000000000000000 000000000000000A000000000000000000000000000000000000000000000 000000000000000000000000000000000000000     00000000                                                                                                                        000000000000000000
F0010000009042500001000080201411900011050500000000000000000201608260002001PLASTISERVICIOS S DE H                            D000000001600000000000000000000000100010010000000000000000000000F0010000009042500120160826000101 00000000000000000000000000000000000000000000000000000000000000000000000000000000000000000000000000000000000000000N 00000000000NCONT   00    00000000000          00000000000000000000000000000000000000000000 000000000000000A000000000000000000000000000000000000000000000 000000000000000000000000000000000000000     00000000                                                                                                                        000000000000000000
F0010000009042500002000080201411900041450500000000000000000201608260002001PLASTISERVICIOS S DE H                            C000000001000000000000000000000000100010010000000000000000000000F0010000009042500220160826000101 00000000000000000000000000000000000000000000000000000000000000000000000000000000000000000000000000000000000000000N 00000000000NCONT   00    00000000000          00000000000000000000000000000000000000000000 000000000000000A000000000000000000000000000000000000000000000 000000000000000000000000000000000000000     00000000                                                                                                                        000000000000000000
F0010000009042500003000080201411900042505000000000000000000201608260002001PLASTISERVICIOS S DE H                            C000000000600000000000000000000000100010010000000000000000000000F0010000009042500320160826000101 00000000000000000000000000000000000000000000000000000000000000000000000000000000000000000000000000000000000000000N 00000000000NCONT   00    00000000000          00000000000000000000000000000000000000000000 000000000000000A000000000000000000000000000000000000000000000 000000000000000000000000000000000000000     00000000                                                                                                                        000000000000000000
F0010000009042500004000080201411900023658300000000000000000201608260002001PLASTISERVICIOS S DE H                            C000000000008000000000000000000000100010010000000000000000000000F0010000009042500420160826000101 00000000000000000000000000000000000000000000000000000000000000000000000000000000000000000000000000000000000000000N 00000000000NCONT   00    00000000000          00000000000000000000000000000000000000000000 000000000000000A000000000000000000000000000000000000000000000 000000000000000000000000000000000000000     00000000                                                                                                                        000000000000000000
F0010000009042500005000080201411900013552100000000000000000201608260002001PLASTISERVICIOS S DE H                            D000000000008000000000000000000000100010010000000000000000000000F0010000009042500520160826000101 00000000000000000000000000000000000000000000000000000000000000000000000000000000000000000000000000000000000000000N 00000000000NCONT   00    00000000000          00000000000000000000000000000000000000000000 000000000000000A000000000000000000000000000000000000000000000 000000000000000000000000000000000000000     00000000                                                                                                                        000000000000000000
F0010000009042600001000000744496800011050500000000000000000201608260002001TOMAS SANCHEZ                                     D000000001000000000000000000000000100010010000000000000000000000F0010000009042600120160826000101 00000000000000000000000000000000000000000000000000000000000000000000000000000000000000000000000000000000000000000N 00000000000NCONT   00    00000000000          00000000000000000000000000000000000000000000 000000000000000A000000000000000000000000000000000000000000000 000000000000000000000000000000000000000     00000000                                                                                                                        000000000000000000
F0010000009042600002000000744496800041450500000000000000000201608260002001TOMAS SANCHEZ                                     C000000000900000000000000000000000100010010000000000000000000000F0010000009042600220160826000101 00000000000000000000000000000000000000000000000000000000000000000000000000000000000000000000000000000000000000000N 00000000000NCONT   00    00000000000          00000000000000000000000000000000000000000000 000000000000000A000000000000000000000000000000000000000000000 000000000000000000000000000000000000000     00000000                                                                                                                        000000000000000000
F0010000009042600003000000744496800042505000000000000000000201608260002001TOMAS SANCHEZ                                     C000000000100000000000000000000000100010010000000000000000000000F0010000009042600320160826000101 00000000000000000000000000000000000000000000000000000000000000000000000000000000000000000000000000000000000000000N 00000000000NCONT   00    00000000000          00000000000000000000000000000000000000000000 000000000000000A000000000000000000000000000000000000000000000 000000000000000000000000000000000000000     00000000                                                                                                                        000000000000000000
F0010000009042600004000000744496800023658300000000000000000201608260002001TOMAS SANCHEZ                                     C000000000007200000000000000000000100010010000000000000000000000F0010000009042600420160826000101 00000000000000000000000000000000000000000000000000000000000000000000000000000000000000000000000000000000000000000N 00000000000NCONT   00    00000000000          00000000000000000000000000000000000000000000 000000000000000A000000000000000000000000000000000000000000000 000000000000000000000000000000000000000     00000000                                                                                                                        000000000000000000
F0010000009042600005000000744496800013552100000000000000000201608260002001TOMAS SANCHEZ                                     D000000000007200000000000000000000100010010000000000000000000000F0010000009042600520160826000101 00000000000000000000000000000000000000000000000000000000000000000000000000000000000000000000000000000000000000000N 00000000000NCONT   00    00000000000          00000000000000000000000000000000000000000000 000000000000000A000000000000000000000000000000000000000000000 000000000000000000000000000000000000000     00000000                                                                                                                        000000000000000000
F0010000009042700001000003319910700011050500000000000000000201608260002001LUZ DARY JIMENEZ MARTINEZ                         D000000001100000000000000000000000100010010000000000000000000000F0010000009042700120160826000101 00000000000000000000000000000000000000000000000000000000000000000000000000000000000000000000000000000000000000000N 00000000000NCONT   00    00000000000          00000000000000000000000000000000000000000000 000000000000000A000000000000000000000000000000000000000000000 000000000000000000000000000000000000000     00000000                                                                                                                        000000000000000000
F0010000009042700002000003319910700041450500000000000000000201608260002001LUZ DARY JIMENEZ MARTINEZ                         C000000001000000000000000000000000100010010000000000000000000000F0010000009042700220160826000101 00000000000000000000000000000000000000000000000000000000000000000000000000000000000000000000000000000000000000000N 00000000000NCONT   00    00000000000          00000000000000000000000000000000000000000000 000000000000000A000000000000000000000000000000000000000000000 000000000000000000000000000000000000000     00000000                                                                                                                        000000000000000000
F0010000009042700003000003319910700042505000000000000000000201608260002001LUZ DARY JIMENEZ MARTINEZ                         C000000000100000000000000000000000100010010000000000000000000000F0010000009042700320160826000101 00000000000000000000000000000000000000000000000000000000000000000000000000000000000000000000000000000000000000000N 00000000000NCONT   00    00000000000          00000000000000000000000000000000000000000000 000000000000000A000000000000000000000000000000000000000000000 000000000000000000000000000000000000000     00000000                                                                                                                        000000000000000000
F0010000009042700004000003319910700023658300000000000000000201608260002001LUZ DARY JIMENEZ MARTINEZ                         C000000000008000000000000000000000100010010000000000000000000000F0010000009042700420160826000101 00000000000000000000000000000000000000000000000000000000000000000000000000000000000000000000000000000000000000000N 00000000000NCONT   00    00000000000          00000000000000000000000000000000000000000000 000000000000000A000000000000000000000000000000000000000000000 000000000000000000000000000000000000000     00000000                                                                                                                        000000000000000000
F0010000009042700005000003319910700013552100000000000000000201608260002001LUZ DARY JIMENEZ MARTINEZ                         D000000000008000000000000000000000100010010000000000000000000000F0010000009042700520160826000101 00000000000000000000000000000000000000000000000000000000000000000000000000000000000000000000000000000000000000000N 00000000000NCONT   00    00000000000          00000000000000000000000000000000000000000000 000000000000000A000000000000000000000000000000000000000000000 000000000000000000000000000000000000000     00000000                                                                                                                        000000000000000000
F0010000009042800001000001535146600011050500000000000000000201608260002001ORLANDO OROZCO NAVARRO                            D000000004000000000000000000000000100010010000000000000000000000F0010000009042800120160826000101 00000000000000000000000000000000000000000000000000000000000000000000000000000000000000000000000000000000000000000N 00000000000NCONT   00    00000000000          00000000000000000000000000000000000000000000 000000000000000A000000000000000000000000000000000000000000000 000000000000000000000000000000000000000     00000000                                                                                                                        000000000000000000
F0010000009042800002000001535146600041450500000000000000000201608260002001ORLANDO OROZCO NAVARRO                            C000000003900000000000000000000000100010010000000000000000000000F0010000009042800220160826000101 00000000000000000000000000000000000000000000000000000000000000000000000000000000000000000000000000000000000000000N 00000000000NCONT   00    00000000000          00000000000000000000000000000000000000000000 000000000000000A000000000000000000000000000000000000000000000 000000000000000000000000000000000000000     00000000                                                                                                                        000000000000000000
F0010000009042800003000001535146600042505000000000000000000201608260002001ORLANDO OROZCO NAVARRO                            C000000000100000000000000000000000100010010000000000000000000000F0010000009042800320160826000101 00000000000000000000000000000000000000000000000000000000000000000000000000000000000000000000000000000000000000000N 00000000000NCONT   00    00000000000          00000000000000000000000000000000000000000000 000000000000000A000000000000000000000000000000000000000000000 000000000000000000000000000000000000000     00000000                                                                                                                        000000000000000000
F0010000009042800004000001535146600023658300000000000000000201608260002001ORLANDO OROZCO NAVARRO                            C000000000031200000000000000000000100010010000000000000000000000F0010000009042800420160826000101 00000000000000000000000000000000000000000000000000000000000000000000000000000000000000000000000000000000000000000N 00000000000NCONT   00    00000000000          00000000000000000000000000000000000000000000 000000000000000A000000000000000000000000000000000000000000000 000000000000000000000000000000000000000     00000000                                                                                                                        000000000000000000
F0010000009042800005000001535146600013552100000000000000000201608260002001ORLANDO OROZCO NAVARRO                            D000000000031200000000000000000000100010010000000000000000000000F0010000009042800520160826000101 00000000000000000000000000000000000000000000000000000000000000000000000000000000000000000000000000000000000000000N 00000000000NCONT   00    00000000000          00000000000000000000000000000000000000000000 000000000000000A000000000000000000000000000000000000000000000 000000000000000000000000000000000000000     00000000                                                                                                                        000000000000000000
F0010000009042900001000007213133300011050500000000000000000201608260002001ALVARO ALBERTO FANDIO GOMEZ                     D000000001100000000000000000000000100010010000000000000000000000F0010000009042900120160826000101 00000000000000000000000000000000000000000000000000000000000000000000000000000000000000000000000000000000000000000N 00000000000NCONT   00    00000000000          00000000000000000000000000000000000000000000 000000000000000A000000000000000000000000000000000000000000000 000000000000000000000000000000000000000     00000000                                                                                                                        000000000000000000
F0010000009042900002000007213133300041450500000000000000000201608260002001ALVARO ALBERTO FANDIO GOMEZ                     C000000001000000000000000000000000100010010000000000000000000000F0010000009042900220160826000101 00000000000000000000000000000000000000000000000000000000000000000000000000000000000000000000000000000000000000000N 00000000000NCONT   00    00000000000          00000000000000000000000000000000000000000000 000000000000000A000000000000000000000000000000000000000000000 000000000000000000000000000000000000000     00000000                                                                                                                        000000000000000000
F0010000009042900003000007213133300042505000000000000000000201608260002001ALVARO ALBERTO FANDIO GOMEZ                     C000000000100000000000000000000000100010010000000000000000000000F0010000009042900320160826000101 00000000000000000000000000000000000000000000000000000000000000000000000000000000000000000000000000000000000000000N 00000000000NCONT   00    00000000000          00000000000000000000000000000000000000000000 000000000000000A000000000000000000000000000000000000000000000 000000000000000000000000000000000000000     00000000                                                                                                                        000000000000000000
F0010000009042900004000007213133300023658300000000000000000201608260002001ALVARO ALBERTO FANDIO GOMEZ                     C000000000008000000000000000000000100010010000000000000000000000F0010000009042900420160826000101 00000000000000000000000000000000000000000000000000000000000000000000000000000000000000000000000000000000000000000N 00000000000NCONT   00    00000000000          00000000000000000000000000000000000000000000 000000000000000A000000000000000000000000000000000000000000000 000000000000000000000000000000000000000     00000000                                                                                                                        000000000000000000
F0010000009042900005000007213133300013552100000000000000000201608260002001ALVARO ALBERTO FANDIO GOMEZ                     D000000000008000000000000000000000100010010000000000000000000000F0010000009042900520160826000101 00000000000000000000000000000000000000000000000000000000000000000000000000000000000000000000000000000000000000000N 00000000000NCONT   00    00000000000          00000000000000000000000000000000000000000000 000000000000000A000000000000000000000000000000000000000000000 000000000000000000000000000000000000000     00000000                                                                                                                        000000000000000000
F0010000009043000001000090034602400011050500000000000000000201608260002001PRODUCTOS NACIONALES PARAFINICOS LA CUSTODIA S.A.SD000000001050000000000000000000000100010010000000000000000000000F0010000009043000120160826000101 00000000000000000000000000000000000000000000000000000000000000000000000000000000000000000000000000000000000000000N 00000000000NCONT   00    00000000000          00000000000000000000000000000000000000000000 000000000000000A000000000000000000000000000000000000000000000 000000000000000000000000000000000000000     00000000                                                                                                                        000000000000000000
F0010000009043000002000090034602400041450500000000000000000201608260002001PRODUCTOS NACIONALES PARAFINICOS LA CUSTODIA S.A.SC000000000950000000000000000000000100010010000000000000000000000F0010000009043000220160826000101 00000000000000000000000000000000000000000000000000000000000000000000000000000000000000000000000000000000000000000N 00000000000NCONT   00    00000000000          00000000000000000000000000000000000000000000 000000000000000A000000000000000000000000000000000000000000000 000000000000000000000000000000000000000     00000000                                                                                                                        000000000000000000
F0010000009043000003000090034602400042505000000000000000000201608260002001PRODUCTOS NACIONALES PARAFINICOS LA CUSTODIA S.A.SC000000000100000000000000000000000100010010000000000000000000000F0010000009043000320160826000101 00000000000000000000000000000000000000000000000000000000000000000000000000000000000000000000000000000000000000000N 00000000000NCONT   00    00000000000          00000000000000000000000000000000000000000000 000000000000000A000000000000000000000000000000000000000000000 000000000000000000000000000000000000000     00000000                                                                                                                        000000000000000000
F0010000009043000004000090034602400023658300000000000000000201608260002001PRODUCTOS NACIONALES PARAFINICOS LA CUSTODIA S.A.SC000000000007600000000000000000000100010010000000000000000000000F0010000009043000420160826000101 00000000000000000000000000000000000000000000000000000000000000000000000000000000000000000000000000000000000000000N 00000000000NCONT   00    00000000000          00000000000000000000000000000000000000000000 000000000000000A000000000000000000000000000000000000000000000 000000000000000000000000000000000000000     00000000                                                                                                                        000000000000000000
F0010000009043000005000090034602400013552100000000000000000201608260002001PRODUCTOS NACIONALES PARAFINICOS LA CUSTODIA S.A.SD000000000007600000000000000000000100010010000000000000000000000F0010000009043000520160826000101 00000000000000000000000000000000000000000000000000000000000000000000000000000000000000000000000000000000000000000N 00000000000NCONT   00    00000000000          00000000000000000000000000000000000000000000 000000000000000A000000000000000000000000000000000000000000000 000000000000000000000000000000000000000     00000000                                                                                                                        000000000000000000
F0010000009043100001000090034602400011050500000000000000000201608260002001PRODUCTOS NACIONALES PARAFINICOS LA CUSTODIA S.A.SD000000001050000000000000000000000100010010000000000000000000000F0010000009043100120160826000101 00000000000000000000000000000000000000000000000000000000000000000000000000000000000000000000000000000000000000000N 00000000000NCONT   00    00000000000          00000000000000000000000000000000000000000000 000000000000000A000000000000000000000000000000000000000000000 000000000000000000000000000000000000000     00000000                                                                                                                        000000000000000000
F0010000009043100002000090034602400041450500000000000000000201608260002001PRODUCTOS NACIONALES PARAFINICOS LA CUSTODIA S.A.SC000000000950000000000000000000000100010010000000000000000000000F0010000009043100220160826000101 00000000000000000000000000000000000000000000000000000000000000000000000000000000000000000000000000000000000000000N 00000000000NCONT   00    00000000000          00000000000000000000000000000000000000000000 000000000000000A000000000000000000000000000000000000000000000 000000000000000000000000000000000000000     00000000                                                                                                                        000000000000000000
F0010000009043100003000090034602400042505000000000000000000201608260002001PRODUCTOS NACIONALES PARAFINICOS LA CUSTODIA S.A.SC000000000100000000000000000000000100010010000000000000000000000F0010000009043100320160826000101 00000000000000000000000000000000000000000000000000000000000000000000000000000000000000000000000000000000000000000N 00000000000NCONT   00    00000000000          00000000000000000000000000000000000000000000 000000000000000A000000000000000000000000000000000000000000000 000000000000000000000000000000000000000     00000000                                                                                                                        000000000000000000
F0010000009043100004000090034602400023658300000000000000000201608260002001PRODUCTOS NACIONALES PARAFINICOS LA CUSTODIA S.A.SC000000000007600000000000000000000100010010000000000000000000000F0010000009043100420160826000101 00000000000000000000000000000000000000000000000000000000000000000000000000000000000000000000000000000000000000000N 00000000000NCONT   00    00000000000          00000000000000000000000000000000000000000000 000000000000000A000000000000000000000000000000000000000000000 000000000000000000000000000000000000000     00000000                                                                                                                        000000000000000000
F0010000009043100005000090034602400013552100000000000000000201608260002001PRODUCTOS NACIONALES PARAFINICOS LA CUSTODIA S.A.SD000000000007600000000000000000000100010010000000000000000000000F0010000009043100520160826000101 00000000000000000000000000000000000000000000000000000000000000000000000000000000000000000000000000000000000000000N 00000000000NCONT   00    00000000000          00000000000000000000000000000000000000000000 000000000000000A000000000000000000000000000000000000000000000 000000000000000000000000000000000000000     00000000                                                                                                                        000000000000000000
F0010000009043200001000007356957400011050500000000000000000201608260002001ORLANDO JIMENEZ                                   D000000001100000000000000000000000100010010000000000000000000000F0010000009043200120160826000101 00000000000000000000000000000000000000000000000000000000000000000000000000000000000000000000000000000000000000000N 00000000000NCONT   00    00000000000          00000000000000000000000000000000000000000000 000000000000000A000000000000000000000000000000000000000000000 000000000000000000000000000000000000000     00000000                                                                                                                        000000000000000000
F0010000009043200002000007356957400041450500000000000000000201608260002001ORLANDO JIMENEZ                                   C000000001000000000000000000000000100010010000000000000000000000F0010000009043200220160826000101 00000000000000000000000000000000000000000000000000000000000000000000000000000000000000000000000000000000000000000N 00000000000NCONT   00    00000000000          00000000000000000000000000000000000000000000 000000000000000A000000000000000000000000000000000000000000000 000000000000000000000000000000000000000     00000000                                                                                                                        000000000000000000
F0010000009043200003000007356957400042505000000000000000000201608260002001ORLANDO JIMENEZ                                   C000000000100000000000000000000000100010010000000000000000000000F0010000009043200320160826000101 00000000000000000000000000000000000000000000000000000000000000000000000000000000000000000000000000000000000000000N 00000000000NCONT   00    00000000000          00000000000000000000000000000000000000000000 000000000000000A000000000000000000000000000000000000000000000 000000000000000000000000000000000000000     00000000                                                                                                                        000000000000000000
F0010000009043200004000007356957400023658300000000000000000201608260002001ORLANDO JIMENEZ                                   C000000000008000000000000000000000100010010000000000000000000000F0010000009043200420160826000101 00000000000000000000000000000000000000000000000000000000000000000000000000000000000000000000000000000000000000000N 00000000000NCONT   00    00000000000          00000000000000000000000000000000000000000000 000000000000000A000000000000000000000000000000000000000000000 000000000000000000000000000000000000000     00000000                                                                                                                        000000000000000000
F0010000009043200005000007356957400013552100000000000000000201608260002001ORLANDO JIMENEZ                                   D000000000008000000000000000000000100010010000000000000000000000F0010000009043200520160826000101 00000000000000000000000000000000000000000000000000000000000000000000000000000000000000000000000000000000000000000N 00000000000NCONT   00    00000000000          00000000000000000000000000000000000000000000 000000000000000A000000000000000000000000000000000000000000000 000000000000000000000000000000000000000     00000000                                                                                                                        000000000000000000
F0010000009043300001000000870907300011050500000000000000000201608260002001SURTIDOR FERRETERO                                D000000004453000000000000000000000100010010000000000000000000000F0010000009043300120160826000101 00000000000000000000000000000000000000000000000000000000000000000000000000000000000000000000000000000000000000000N 00000000000NCONT   00    00000000000          00000000000000000000000000000000000000000000 000000000000000A000000000000000000000000000000000000000000000 000000000000000000000000000000000000000     00000000                                                                                                                        000000000000000000
F0010000009043300002000000870907300041450500000000000000000201608260002001SURTIDOR FERRETERO                                C000000003360000000000000000000000100010010000000000000000000000F0010000009043300220160826000101 00000000000000000000000000000000000000000000000000000000000000000000000000000000000000000000000000000000000000000N 00000000000NCONT   00    00000000000          00000000000000000000000000000000000000000000 000000000000000A000000000000000000000000000000000000000000000 000000000000000000000000000000000000000     00000000                                                                                                                        000000000000000000
F0010000009043300003000000870907300042505000000000000000000201608260002001SURTIDOR FERRETERO                                C000000001093000000000000000000000100010010000000000000000000000F0010000009043300320160826000101 00000000000000000000000000000000000000000000000000000000000000000000000000000000000000000000000000000000000000000N 00000000000NCONT   00    00000000000          00000000000000000000000000000000000000000000 000000000000000A000000000000000000000000000000000000000000000 000000000000000000000000000000000000000     00000000                                                                                                                        000000000000000000
F0010000009043300004000000870907300023658300000000000000000201608260002001SURTIDOR FERRETERO                                C000000000026900000000000000000000100010010000000000000000000000F0010000009043300420160826000101 00000000000000000000000000000000000000000000000000000000000000000000000000000000000000000000000000000000000000000N 00000000000NCONT   00    00000000000          00000000000000000000000000000000000000000000 000000000000000A000000000000000000000000000000000000000000000 000000000000000000000000000000000000000     00000000                                                                                                                        000000000000000000
F0010000009043300005000000870907300013552100000000000000000201608260002001SURTIDOR FERRETERO                                D000000000026900000000000000000000100010010000000000000000000000F0010000009043300520160826000101 00000000000000000000000000000000000000000000000000000000000000000000000000000000000000000000000000000000000000000N 00000000000NCONT   00    00000000000          00000000000000000000000000000000000000000000 000000000000000A000000000000000000000000000000000000000000000 000000000000000000000000000000000000000     00000000                                                                                                                        000000000000000000
F0010000009043400001000000870907300011050500000000000000000201608260002001SURTIDOR FERRETERO                                D000000010194000000000000000000000100010010000000000000000000000F0010000009043400120160826000101 00000000000000000000000000000000000000000000000000000000000000000000000000000000000000000000000000000000000000000N 00000000000NCONT   00    00000000000          00000000000000000000000000000000000000000000 000000000000000A000000000000000000000000000000000000000000000 000000000000000000000000000000000000000     00000000                                                                                                                        000000000000000000
F0010000009043400002000000870907300041450500000000000000000201608260002001SURTIDOR FERRETERO                                C000000006720000000000000000000000100010010000000000000000000000F0010000009043400220160826000101 00000000000000000000000000000000000000000000000000000000000000000000000000000000000000000000000000000000000000000N 00000000000NCONT   00    00000000000          00000000000000000000000000000000000000000000 000000000000000A000000000000000000000000000000000000000000000 000000000000000000000000000000000000000     00000000                                                                                                                        000000000000000000
F0010000009043400003000000870907300042505000000000000000000201608260002001SURTIDOR FERRETERO                                C000000003474000000000000000000000100010010000000000000000000000F0010000009043400320160826000101 00000000000000000000000000000000000000000000000000000000000000000000000000000000000000000000000000000000000000000N 00000000000NCONT   00    00000000000          00000000000000000000000000000000000000000000 000000000000000A000000000000000000000000000000000000000000000 000000000000000000000000000000000000000     00000000                                                                                                                        000000000000000000
F0010000009043400004000000870907300023658300000000000000000201608260002001SURTIDOR FERRETERO                                C000000000053800000000000000000000100010010000000000000000000000F0010000009043400420160826000101 00000000000000000000000000000000000000000000000000000000000000000000000000000000000000000000000000000000000000000N 00000000000NCONT   00    00000000000          00000000000000000000000000000000000000000000 000000000000000A000000000000000000000000000000000000000000000 000000000000000000000000000000000000000     00000000                                                                                                                        000000000000000000
F0010000009043400005000000870907300013552100000000000000000201608260002001SURTIDOR FERRETERO                                D000000000053800000000000000000000100010010000000000000000000000F0010000009043400520160826000101 00000000000000000000000000000000000000000000000000000000000000000000000000000000000000000000000000000000000000000N 00000000000NCONT   00    00000000000          00000000000000000000000000000000000000000000 000000000000000A000000000000000000000000000000000000000000000 000000000000000000000000000000000000000     00000000                                                                                                                        000000000000000000
F0010000009043500001000090050144800011050500000000000000000201608260002001PLASTICOS JR ASOCIADOS SAS                        D000000004500000000000000000000000100010010000000000000000000000F0010000009043500120160826000101 00000000000000000000000000000000000000000000000000000000000000000000000000000000000000000000000000000000000000000N 00000000000NCONT   00    00000000000          00000000000000000000000000000000000000000000 000000000000000A000000000000000000000000000000000000000000000 000000000000000000000000000000000000000     00000000                                                                                                                        000000000000000000
F0010000009043500002000090050144800041450500000000000000000201608260002001PLASTICOS JR ASOCIADOS SAS                        C000000003800000000000000000000000100010010000000000000000000000F0010000009043500220160826000101 00000000000000000000000000000000000000000000000000000000000000000000000000000000000000000000000000000000000000000N 00000000000NCONT   00    00000000000          00000000000000000000000000000000000000000000 000000000000000A000000000000000000000000000000000000000000000 000000000000000000000000000000000000000     00000000                                                                                                                        000000000000000000
F0010000009043500003000090050144800042505000000000000000000201608260002001PLASTICOS JR ASOCIADOS SAS                        C000000000700000000000000000000000100010010000000000000000000000F0010000009043500320160826000101 00000000000000000000000000000000000000000000000000000000000000000000000000000000000000000000000000000000000000000N 00000000000NCONT   00    00000000000          00000000000000000000000000000000000000000000 000000000000000A000000000000000000000000000000000000000000000 000000000000000000000000000000000000000     00000000                                                                                                                        000000000000000000
F0010000009043500004000090050144800023658300000000000000000201608260002001PLASTICOS JR ASOCIADOS SAS                        C000000000030400000000000000000000100010010000000000000000000000F0010000009043500420160826000101 00000000000000000000000000000000000000000000000000000000000000000000000000000000000000000000000000000000000000000N 00000000000NCONT   00    00000000000          00000000000000000000000000000000000000000000 000000000000000A000000000000000000000000000000000000000000000 000000000000000000000000000000000000000     00000000                                                                                                                        000000000000000000
F0010000009043500005000090050144800013552100000000000000000201608260002001PLASTICOS JR ASOCIADOS SAS                        D000000000030400000000000000000000100010010000000000000000000000F0010000009043500520160826000101 00000000000000000000000000000000000000000000000000000000000000000000000000000000000000000000000000000000000000000N 00000000000NCONT   00    00000000000          00000000000000000000000000000000000000000000 000000000000000A000000000000000000000000000000000000000000000 000000000000000000000000000000000000000     00000000                                                                                                                        000000000000000000
F0010000009043600001000090020547900011050500000000000000000201608260002001COMERCIALIZADORA DAC DEL CARIBE S.A.S.            D000000003600000000000000000000000100010010000000000000000000000F0010000009043600120160826000101 00000000000000000000000000000000000000000000000000000000000000000000000000000000000000000000000000000000000000000N 00000000000NCONT   00    00000000000          00000000000000000000000000000000000000000000 000000000000000A000000000000000000000000000000000000000000000 000000000000000000000000000000000000000     00000000                                                                                                                        000000000000000000
F0010000009043600002000090020547900041450500000000000000000201608260002001COMERCIALIZADORA DAC DEL CARIBE S.A.S.            C000000003000000000000000000000000100010010000000000000000000000F0010000009043600220160826000101 00000000000000000000000000000000000000000000000000000000000000000000000000000000000000000000000000000000000000000N 00000000000NCONT   00    00000000000          00000000000000000000000000000000000000000000 000000000000000A000000000000000000000000000000000000000000000 000000000000000000000000000000000000000     00000000                                                                                                                        000000000000000000
F0010000009043600003000090020547900042505000000000000000000201608260002001COMERCIALIZADORA DAC DEL CARIBE S.A.S.            C000000000600000000000000000000000100010010000000000000000000000F0010000009043600320160826000101 00000000000000000000000000000000000000000000000000000000000000000000000000000000000000000000000000000000000000000N 00000000000NCONT   00    00000000000          00000000000000000000000000000000000000000000 000000000000000A000000000000000000000000000000000000000000000 000000000000000000000000000000000000000     00000000                                                                                                                        000000000000000000
F0010000009043600004000090020547900023658300000000000000000201608260002001COMERCIALIZADORA DAC DEL CARIBE S.A.S.            C000000000024000000000000000000000100010010000000000000000000000F0010000009043600420160826000101 00000000000000000000000000000000000000000000000000000000000000000000000000000000000000000000000000000000000000000N 00000000000NCONT   00    00000000000          00000000000000000000000000000000000000000000 000000000000000A000000000000000000000000000000000000000000000 000000000000000000000000000000000000000     00000000                                                                                                                        000000000000000000
F0010000009043600005000090020547900013552100000000000000000201608260002001COMERCIALIZADORA DAC DEL CARIBE S.A.S.            D000000000024000000000000000000000100010010000000000000000000000F0010000009043600520160826000101 00000000000000000000000000000000000000000000000000000000000000000000000000000000000000000000000000000000000000000N 00000000000NCONT   00    00000000000          00000000000000000000000000000000000000000000 000000000000000A000000000000000000000000000000000000000000000 000000000000000000000000000000000000000     00000000                                                                                                                        000000000000000000
F0010000009043700001000007213847800011050500000000000000000201608260002001ALEJANDRO MEZA ALVAREZ                            D000000003400000000000000000000000100010010000000000000000000000F0010000009043700120160826000101 00000000000000000000000000000000000000000000000000000000000000000000000000000000000000000000000000000000000000000N 00000000000NCONT   00    00000000000          00000000000000000000000000000000000000000000 000000000000000A000000000000000000000000000000000000000000000 000000000000000000000000000000000000000     00000000                                                                                                                        000000000000000000
F0010000009043700002000007213847800041450500000000000000000201608260002001ALEJANDRO MEZA ALVAREZ                            C000000002400000000000000000000000100010010000000000000000000000F0010000009043700220160826000101 00000000000000000000000000000000000000000000000000000000000000000000000000000000000000000000000000000000000000000N 00000000000NCONT   00    00000000000          00000000000000000000000000000000000000000000 000000000000000A000000000000000000000000000000000000000000000 000000000000000000000000000000000000000     00000000                                                                                                                        000000000000000000
F0010000009043700003000007213847800042505000000000000000000201608260002001ALEJANDRO MEZA ALVAREZ                            C000000001000000000000000000000000100010010000000000000000000000F0010000009043700320160826000101 00000000000000000000000000000000000000000000000000000000000000000000000000000000000000000000000000000000000000000N 00000000000NCONT   00    00000000000          00000000000000000000000000000000000000000000 000000000000000A000000000000000000000000000000000000000000000 000000000000000000000000000000000000000     00000000                                                                                                                        000000000000000000
F0010000009043700004000007213847800023658300000000000000000201608260002001ALEJANDRO MEZA ALVAREZ                            C000000000019200000000000000000000100010010000000000000000000000F0010000009043700420160826000101 00000000000000000000000000000000000000000000000000000000000000000000000000000000000000000000000000000000000000000N 00000000000NCONT   00    00000000000          00000000000000000000000000000000000000000000 000000000000000A000000000000000000000000000000000000000000000 000000000000000000000000000000000000000     00000000                                                                                                                        000000000000000000
F0010000009043700005000007213847800013552100000000000000000201608260002001ALEJANDRO MEZA ALVAREZ                            D000000000019200000000000000000000100010010000000000000000000000F0010000009043700520160826000101 00000000000000000000000000000000000000000000000000000000000000000000000000000000000000000000000000000000000000000N 00000000000NCONT   00    00000000000          00000000000000000000000000000000000000000000 000000000000000A000000000000000000000000000000000000000000000 000000000000000000000000000000000000000     00000000                                                                                                                        000000000000000000
F0010000009043800001000080201112800011050500000000000000000201608260002001CANGURO INTERNATIONAL S.A.                        D000000002400000000000000000000000100010010000000000000000000000F0010000009043800120160826000101 00000000000000000000000000000000000000000000000000000000000000000000000000000000000000000000000000000000000000000N 00000000000NCONT   00    00000000000          00000000000000000000000000000000000000000000 000000000000000A000000000000000000000000000000000000000000000 000000000000000000000000000000000000000     00000000                                                                                                                        000000000000000000
F0010000009043800002000080201112800041450500000000000000000201608260002001CANGURO INTERNATIONAL S.A.                        C000000002400000000000000000000000100010010000000000000000000000F0010000009043800220160826000101 00000000000000000000000000000000000000000000000000000000000000000000000000000000000000000000000000000000000000000N 00000000000NCONT   00    00000000000          00000000000000000000000000000000000000000000 000000000000000A000000000000000000000000000000000000000000000 000000000000000000000000000000000000000     00000000                                                                                                                        000000000000000000
F0010000009043800003000080201112800042505000000000000000000201608260002001CANGURO INTERNATIONAL S.A.                        C000000000000000000000000000000000100010010000000000000000000000F0010000009043800320160826000101 00000000000000000000000000000000000000000000000000000000000000000000000000000000000000000000000000000000000000000N 00000000000NCONT   00    00000000000          00000000000000000000000000000000000000000000 000000000000000A000000000000000000000000000000000000000000000 000000000000000000000000000000000000000     00000000                                                                                                                        000000000000000000
F0010000009043800004000080201112800023658300000000000000000201608260002001CANGURO INTERNATIONAL S.A.                        C000000000019200000000000000000000100010010000000000000000000000F0010000009043800420160826000101 00000000000000000000000000000000000000000000000000000000000000000000000000000000000000000000000000000000000000000N 00000000000NCONT   00    00000000000          00000000000000000000000000000000000000000000 000000000000000A000000000000000000000000000000000000000000000 000000000000000000000000000000000000000     00000000                                                                                                                        000000000000000000
F0010000009043800005000080201112800013552100000000000000000201608260002001CANGURO INTERNATIONAL S.A.                        D000000000019200000000000000000000100010010000000000000000000000F0010000009043800520160826000101 00000000000000000000000000000000000000000000000000000000000000000000000000000000000000000000000000000000000000000N 00000000000NCONT   00    00000000000          00000000000000000000000000000000000000000000 000000000000000A000000000000000000000000000000000000000000000 000000000000000000000000000000000000000     00000000                                                                                                                        000000000000000000
F0010000009043900001000080202350700011050500000000000000000201608260002001CONNY DE LA COSTA SAS                             D000000000900000000000000000000000100010010000000000000000000000F0010000009043900120160826000101 00000000000000000000000000000000000000000000000000000000000000000000000000000000000000000000000000000000000000000N 00000000000NCONT   00    00000000000          00000000000000000000000000000000000000000000 000000000000000A000000000000000000000000000000000000000000000 000000000000000000000000000000000000000     00000000                                                                                                                        000000000000000000
F0010000009043900002000080202350700041450500000000000000000201608260002001CONNY DE LA COSTA SAS                             C000000000850000000000000000000000100010010000000000000000000000F0010000009043900220160826000101 00000000000000000000000000000000000000000000000000000000000000000000000000000000000000000000000000000000000000000N 00000000000NCONT   00    00000000000          00000000000000000000000000000000000000000000 000000000000000A000000000000000000000000000000000000000000000 000000000000000000000000000000000000000     00000000                                                                                                                        000000000000000000
F0010000009043900003000080202350700042505000000000000000000201608260002001CONNY DE LA COSTA SAS                             C000000000050000000000000000000000100010010000000000000000000000F0010000009043900320160826000101 00000000000000000000000000000000000000000000000000000000000000000000000000000000000000000000000000000000000000000N 00000000000NCONT   00    00000000000          00000000000000000000000000000000000000000000 000000000000000A000000000000000000000000000000000000000000000 000000000000000000000000000000000000000     00000000                                                                                                                        000000000000000000
F0010000009043900004000080202350700023658300000000000000000201608260002001CONNY DE LA COSTA SAS                             C000000000006800000000000000000000100010010000000000000000000000F0010000009043900420160826000101 00000000000000000000000000000000000000000000000000000000000000000000000000000000000000000000000000000000000000000N 00000000000NCONT   00    00000000000          00000000000000000000000000000000000000000000 000000000000000A000000000000000000000000000000000000000000000 000000000000000000000000000000000000000     00000000                                                                                                                        000000000000000000
F0010000009043900005000080202350700013552100000000000000000201608260002001CONNY DE LA COSTA SAS                             D000000000006800000000000000000000100010010000000000000000000000F0010000009043900520160826000101 00000000000000000000000000000000000000000000000000000000000000000000000000000000000000000000000000000000000000000N 00000000000NCONT   00    00000000000          00000000000000000000000000000000000000000000 000000000000000A000000000000000000000000000000000000000000000 000000000000000000000000000000000000000     00000000                                                                                                                        000000000000000000
F0010000009044000001000080201490100011050500000000000000000201608260002001C.I FLOREZ DE LIZ SAS                             D000000002900000000000000000000000100010010000000000000000000000F0010000009044000120160826000101 00000000000000000000000000000000000000000000000000000000000000000000000000000000000000000000000000000000000000000N 00000000000NCONT   00    00000000000          00000000000000000000000000000000000000000000 000000000000000A000000000000000000000000000000000000000000000 000000000000000000000000000000000000000     00000000                                                                                                                        000000000000000000
F0010000009044000002000080201490100041450500000000000000000201608260002001C.I FLOREZ DE LIZ SAS                             C000000002400000000000000000000000100010010000000000000000000000F0010000009044000220160826000101 00000000000000000000000000000000000000000000000000000000000000000000000000000000000000000000000000000000000000000N 00000000000NCONT   00    00000000000          00000000000000000000000000000000000000000000 000000000000000A000000000000000000000000000000000000000000000 000000000000000000000000000000000000000     00000000                                                                                                                        000000000000000000
F0010000009044000003000080201490100042505000000000000000000201608260002001C.I FLOREZ DE LIZ SAS                             C000000000500000000000000000000000100010010000000000000000000000F0010000009044000320160826000101 00000000000000000000000000000000000000000000000000000000000000000000000000000000000000000000000000000000000000000N 00000000000NCONT   00    00000000000          00000000000000000000000000000000000000000000 000000000000000A000000000000000000000000000000000000000000000 000000000000000000000000000000000000000     00000000                                                                                                                        000000000000000000
F0010000009044000004000080201490100023658300000000000000000201608260002001C.I FLOREZ DE LIZ SAS                             C000000000019200000000000000000000100010010000000000000000000000F0010000009044000420160826000101 00000000000000000000000000000000000000000000000000000000000000000000000000000000000000000000000000000000000000000N 00000000000NCONT   00    00000000000          00000000000000000000000000000000000000000000 000000000000000A000000000000000000000000000000000000000000000 000000000000000000000000000000000000000     00000000                                                                                                                        000000000000000000
F0010000009044000005000080201490100013552100000000000000000201608260002001C.I FLOREZ DE LIZ SAS                             D000000000019200000000000000000000100010010000000000000000000000F0010000009044000520160826000101 00000000000000000000000000000000000000000000000000000000000000000000000000000000000000000000000000000000000000000N 00000000000NCONT   00    00000000000          00000000000000000000000000000000000000000000 000000000000000A000000000000000000000000000000000000000000000 000000000000000000000000000000000000000     00000000                                                                                                                        000000000000000000
F0010000009044100001000000742399700011050500000000000000000201608260002001CACHARRERIA EL NUEVO CHADID                       D000000007800000000000000000000000100010010000000000000000000000F0010000009044100120160826000101 00000000000000000000000000000000000000000000000000000000000000000000000000000000000000000000000000000000000000000N 00000000000NCONT   00    00000000000          00000000000000000000000000000000000000000000 000000000000000A000000000000000000000000000000000000000000000 000000000000000000000000000000000000000     00000000                                                                                                                        000000000000000000
F0010000009044100002000000742399700041450500000000000000000201608260002001CACHARRERIA EL NUEVO CHADID                       C000000006000000000000000000000000100010010000000000000000000000F0010000009044100220160826000101 00000000000000000000000000000000000000000000000000000000000000000000000000000000000000000000000000000000000000000N 00000000000NCONT   00    00000000000          00000000000000000000000000000000000000000000 000000000000000A000000000000000000000000000000000000000000000 000000000000000000000000000000000000000     00000000                                                                                                                        000000000000000000
F0010000009044100003000000742399700042505000000000000000000201608260002001CACHARRERIA EL NUEVO CHADID                       C000000001800000000000000000000000100010010000000000000000000000F0010000009044100320160826000101 00000000000000000000000000000000000000000000000000000000000000000000000000000000000000000000000000000000000000000N 00000000000NCONT   00    00000000000          00000000000000000000000000000000000000000000 000000000000000A000000000000000000000000000000000000000000000 000000000000000000000000000000000000000     00000000                                                                                                                        000000000000000000
F0010000009044100004000000742399700023658300000000000000000201608260002001CACHARRERIA EL NUEVO CHADID                       C000000000048000000000000000000000100010010000000000000000000000F0010000009044100420160826000101 00000000000000000000000000000000000000000000000000000000000000000000000000000000000000000000000000000000000000000N 00000000000NCONT   00    00000000000          00000000000000000000000000000000000000000000 000000000000000A000000000000000000000000000000000000000000000 000000000000000000000000000000000000000     00000000                                                                                                                        000000000000000000
F0010000009044100005000000742399700013552100000000000000000201608260002001CACHARRERIA EL NUEVO CHADID                       D000000000048000000000000000000000100010010000000000000000000000F0010000009044100520160826000101 00000000000000000000000000000000000000000000000000000000000000000000000000000000000000000000000000000000000000000N 00000000000NCONT   00    00000000000          00000000000000000000000000000000000000000000 000000000000000A000000000000000000000000000000000000000000000 000000000000000000000000000000000000000     00000000                                                                                                                        000000000000000000
F0010000009044200001000086003979400011050500000000000000000201608260002001CALYPSO BARRANQUILLA LTDA                         D000000001830000000000000000000000100010010000000000000000000000F0010000009044200120160826000101 00000000000000000000000000000000000000000000000000000000000000000000000000000000000000000000000000000000000000000N 00000000000NCONT   00    00000000000          00000000000000000000000000000000000000000000 000000000000000A000000000000000000000000000000000000000000000 000000000000000000000000000000000000000     00000000                                                                                                                        000000000000000000
F0010000009044200002000086003979400041450500000000000000000201608260002001CALYPSO BARRANQUILLA LTDA                         C000000001320000000000000000000000100010010000000000000000000000F0010000009044200220160826000101 00000000000000000000000000000000000000000000000000000000000000000000000000000000000000000000000000000000000000000N 00000000000NCONT   00    00000000000          00000000000000000000000000000000000000000000 000000000000000A000000000000000000000000000000000000000000000 000000000000000000000000000000000000000     00000000                                                                                                                        000000000000000000
F0010000009044200003000086003979400042505000000000000000000201608260002001CALYPSO BARRANQUILLA LTDA                         C000000000510000000000000000000000100010010000000000000000000000F0010000009044200320160826000101 00000000000000000000000000000000000000000000000000000000000000000000000000000000000000000000000000000000000000000N 00000000000NCONT   00    00000000000          00000000000000000000000000000000000000000000 000000000000000A000000000000000000000000000000000000000000000 000000000000000000000000000000000000000     00000000                                                                                                                        000000000000000000
F0010000009044200004000086003979400023658300000000000000000201608260002001CALYPSO BARRANQUILLA LTDA                         C000000000010600000000000000000000100010010000000000000000000000F0010000009044200420160826000101 00000000000000000000000000000000000000000000000000000000000000000000000000000000000000000000000000000000000000000N 00000000000NCONT   00    00000000000          00000000000000000000000000000000000000000000 000000000000000A000000000000000000000000000000000000000000000 000000000000000000000000000000000000000     00000000                                                                                                                        000000000000000000
F0010000009044200005000086003979400013552100000000000000000201608260002001CALYPSO BARRANQUILLA LTDA                         D000000000010600000000000000000000100010010000000000000000000000F0010000009044200520160826000101 00000000000000000000000000000000000000000000000000000000000000000000000000000000000000000000000000000000000000000N 00000000000NCONT   00    00000000000          00000000000000000000000000000000000000000000 000000000000000A000000000000000000000000000000000000000000000 000000000000000000000000000000000000000     00000000                                                                                                                        000000000000000000
F0010000009044300001000080200594400011050500000000000000000201608260002001NOVEDADES JOTA JOTA                               D000000003500000000000000000000000100010010000000000000000000000F0010000009044300120160826000101 00000000000000000000000000000000000000000000000000000000000000000000000000000000000000000000000000000000000000000N 00000000000NCONT   00    00000000000          00000000000000000000000000000000000000000000 000000000000000A000000000000000000000000000000000000000000000 000000000000000000000000000000000000000     00000000                                                                                                                        000000000000000000
F0010000009044300002000080200594400041450500000000000000000201608260002001NOVEDADES JOTA JOTA                               C000000001000000000000000000000000100010010000000000000000000000F0010000009044300220160826000101 00000000000000000000000000000000000000000000000000000000000000000000000000000000000000000000000000000000000000000N 00000000000NCONT   00    00000000000          00000000000000000000000000000000000000000000 000000000000000A000000000000000000000000000000000000000000000 000000000000000000000000000000000000000     00000000                                                                                                                        000000000000000000
