F0010000008252500001000000878369700011050500000000000000000201602150002001REYNALDO PANZA DE LA HOZ                          D000000001300000000000000000000000100010010000000000000000000000F0010000008252500120160215000101 00000000000000000000000000000000000000000000000000000000000000000000000000000000000000000000000000000000000000000N 00000000000NCONT   00    00000000000          00000000000000000000000000000000000000000000 000000000000000A000000000000000000000000000000000000000000000 000000000000000000000000000000000000000     00000000                                                                                                                        000000000000000000
F0010000008252500002000000878369700041450500000000000000000201602150002001REYNALDO PANZA DE LA HOZ                          C000000000900000000000000000000000100010010000000000000000000000F0010000008252500220160215000101 00000000000000000000000000000000000000000000000000000000000000000000000000000000000000000000000000000000000000000N 00000000000NCONT   00    00000000000          00000000000000000000000000000000000000000000 000000000000000A000000000000000000000000000000000000000000000 000000000000000000000000000000000000000     00000000                                                                                                                        000000000000000000
F0010000008252500003000000878369700042505000000000000000000201602150002001REYNALDO PANZA DE LA HOZ                          C000000000400000000000000000000000100010010000000000000000000000F0010000008252500320160215000101 00000000000000000000000000000000000000000000000000000000000000000000000000000000000000000000000000000000000000000N 00000000000NCONT   00    00000000000          00000000000000000000000000000000000000000000 000000000000000A000000000000000000000000000000000000000000000 000000000000000000000000000000000000000     00000000                                                                                                                        000000000000000000
F0010000008252500004000000878369700023658300000000000000000201602150002001REYNALDO PANZA DE LA HOZ                          C000000000007200000000000000000000100010010000000000000000000000F0010000008252500420160215000101 00000000000000000000000000000000000000000000000000000000000000000000000000000000000000000000000000000000000000000N 00000000000NCONT   00    00000000000          00000000000000000000000000000000000000000000 000000000000000A000000000000000000000000000000000000000000000 000000000000000000000000000000000000000     00000000                                                                                                                        000000000000000000
F0010000008252500005000000878369700013552100000000000000000201602150002001REYNALDO PANZA DE LA HOZ                          D000000000007200000000000000000000100010010000000000000000000000F0010000008252500520160215000101 00000000000000000000000000000000000000000000000000000000000000000000000000000000000000000000000000000000000000000N 00000000000NCONT   00    00000000000          00000000000000000000000000000000000000000000 000000000000000A000000000000000000000000000000000000000000000 000000000000000000000000000000000000000     00000000                                                                                                                        000000000000000000
F0010000008252600001000007213653800011050500000000000000000201602150002001VICTOR ECHAVEZ                                    D000000001500000000000000000000000100010010000000000000000000000F0010000008252600120160215000101 00000000000000000000000000000000000000000000000000000000000000000000000000000000000000000000000000000000000000000N 00000000000NCONT   00    00000000000          00000000000000000000000000000000000000000000 000000000000000A000000000000000000000000000000000000000000000 000000000000000000000000000000000000000     00000000                                                                                                                        000000000000000000
F0010000008252600002000007213653800041450500000000000000000201602150002001VICTOR ECHAVEZ                                    C000000000900000000000000000000000100010010000000000000000000000F0010000008252600220160215000101 00000000000000000000000000000000000000000000000000000000000000000000000000000000000000000000000000000000000000000N 00000000000NCONT   00    00000000000          00000000000000000000000000000000000000000000 000000000000000A000000000000000000000000000000000000000000000 000000000000000000000000000000000000000     00000000                                                                                                                        000000000000000000
F0010000008252600003000007213653800042505000000000000000000201602150002001VICTOR ECHAVEZ                                    C000000000600000000000000000000000100010010000000000000000000000F0010000008252600320160215000101 00000000000000000000000000000000000000000000000000000000000000000000000000000000000000000000000000000000000000000N 00000000000NCONT   00    00000000000          00000000000000000000000000000000000000000000 000000000000000A000000000000000000000000000000000000000000000 000000000000000000000000000000000000000     00000000                                                                                                                        000000000000000000
F0010000008252600004000007213653800023658300000000000000000201602150002001VICTOR ECHAVEZ                                    C000000000007200000000000000000000100010010000000000000000000000F0010000008252600420160215000101 00000000000000000000000000000000000000000000000000000000000000000000000000000000000000000000000000000000000000000N 00000000000NCONT   00    00000000000          00000000000000000000000000000000000000000000 000000000000000A000000000000000000000000000000000000000000000 000000000000000000000000000000000000000     00000000                                                                                                                        000000000000000000
F0010000008252600005000007213653800013552100000000000000000201602150002001VICTOR ECHAVEZ                                    D000000000007200000000000000000000100010010000000000000000000000F0010000008252600520160215000101 00000000000000000000000000000000000000000000000000000000000000000000000000000000000000000000000000000000000000000N 00000000000NCONT   00    00000000000          00000000000000000000000000000000000000000000 000000000000000A000000000000000000000000000000000000000000000 000000000000000000000000000000000000000     00000000                                                                                                                        000000000000000000
F0010000008252700001000000866531000011050500000000000000000201602150002001CLAUDIO LLINAS MOLINA                             D000000003000000000000000000000000100010010000000000000000000000F0010000008252700120160215000101 00000000000000000000000000000000000000000000000000000000000000000000000000000000000000000000000000000000000000000N 00000000000NCONT   00    00000000000          00000000000000000000000000000000000000000000 000000000000000A000000000000000000000000000000000000000000000 000000000000000000000000000000000000000     00000000                                                                                                                        000000000000000000
F0010000008252700002000000866531000041450500000000000000000201602150002001CLAUDIO LLINAS MOLINA                             C000000002500000000000000000000000100010010000000000000000000000F0010000008252700220160215000101 00000000000000000000000000000000000000000000000000000000000000000000000000000000000000000000000000000000000000000N 00000000000NCONT   00    00000000000          00000000000000000000000000000000000000000000 000000000000000A000000000000000000000000000000000000000000000 000000000000000000000000000000000000000     00000000                                                                                                                        000000000000000000
F0010000008252700003000000866531000042505000000000000000000201602150002001CLAUDIO LLINAS MOLINA                             C000000000500000000000000000000000100010010000000000000000000000F0010000008252700320160215000101 00000000000000000000000000000000000000000000000000000000000000000000000000000000000000000000000000000000000000000N 00000000000NCONT   00    00000000000          00000000000000000000000000000000000000000000 000000000000000A000000000000000000000000000000000000000000000 000000000000000000000000000000000000000     00000000                                                                                                                        000000000000000000
F0010000008252700004000000866531000023658300000000000000000201602150002001CLAUDIO LLINAS MOLINA                             C000000000020000000000000000000000100010010000000000000000000000F0010000008252700420160215000101 00000000000000000000000000000000000000000000000000000000000000000000000000000000000000000000000000000000000000000N 00000000000NCONT   00    00000000000          00000000000000000000000000000000000000000000 000000000000000A000000000000000000000000000000000000000000000 000000000000000000000000000000000000000     00000000                                                                                                                        000000000000000000
F0010000008252700005000000866531000013552100000000000000000201602150002001CLAUDIO LLINAS MOLINA                             D000000000020000000000000000000000100010010000000000000000000000F0010000008252700520160215000101 00000000000000000000000000000000000000000000000000000000000000000000000000000000000000000000000000000000000000000N 00000000000NCONT   00    00000000000          00000000000000000000000000000000000000000000 000000000000000A000000000000000000000000000000000000000000000 000000000000000000000000000000000000000     00000000                                                                                                                        000000000000000000
F0010000008252800001000081102758700013050500000000000000000201602150002001C.I. ABRACOL S.A EMA                              D000000063085200000000000000000000100010010000000000000000000000F0010000008252800120160215000101 00000000000000000000000000000000000000000000000000000000000000000000000000000000000000000000000000000000000000000N 00000000000NCONT   00    00000000000          00000000000000000000000000000000000000000000 000000000000000A000000000000000000000000000000000000000000000 000000000000000000000000000000000000000     00000000                                                                                                                        000000000000000000
F0010000008252800002000081102758700041450500000000000000000201602150002001C.I. ABRACOL S.A EMA                              C000000032900000000000000000000000100010010000000000000000000000F0010000008252800220160215000101 00000000000000000000000000000000000000000000000000000000000000000000000000000000000000000000000000000000000000000N 00000000000NCONT   00    00000000000          00000000000000000000000000000000000000000000 000000000000000A000000000000000000000000000000000000000000000 000000000000000000000000000000000000000     00000000                                                                                                                        000000000000000000
F0010000008252800003000081102758700041750100000000000000000201602150002001C.I. ABRACOL S.A EMA                              D000000000987000000000000000000000100010010000000000000000000000F0010000008252800320160215000101 00000000000000000000000000000000000000000000000000000000000000000000000000000000000000000000000000000000000000000N 00000000000NCONT   00    00000000000          00000000000000000000000000000000000000000000 000000000000000A000000000000000000000000000000000000000000000 000000000000000000000000000000000000000     00000000                                                                                                                        000000000000000000
F0010000008252800004000081102758700042505000000000000000000201602150002001C.I. ABRACOL S.A EMA                              C000000031172200000000000000000000100010010000000000000000000000F0010000008252800420160215000101 00000000000000000000000000000000000000000000000000000000000000000000000000000000000000000000000000000000000000000N 00000000000NCONT   00    00000000000          00000000000000000000000000000000000000000000 000000000000000A000000000000000000000000000000000000000000000 000000000000000000000000000000000000000     00000000                                                                                                                        000000000000000000
F0010000008252800005000081102758700023658300000000000000000201602150002001C.I. ABRACOL S.A EMA                              C000000000263200000000000000000000100010010000000000000000000000F0010000008252800520160215000101 00000000000000000000000000000000000000000000000000000000000000000000000000000000000000000000000000000000000000000N 00000000000NCONT   00    00000000000          00000000000000000000000000000000000000000000 000000000000000A000000000000000000000000000000000000000000000 000000000000000000000000000000000000000     00000000                                                                                                                        000000000000000000
F0010000008252800006000081102758700013552100000000000000000201602150002001C.I. ABRACOL S.A EMA                              D000000000263200000000000000000000100010010000000000000000000000F0010000008252800620160215000101 00000000000000000000000000000000000000000000000000000000000000000000000000000000000000000000000000000000000000000N 00000000000NCONT   00    00000000000          00000000000000000000000000000000000000000000 000000000000000A000000000000000000000000000000000000000000000 000000000000000000000000000000000000000     00000000                                                                                                                        000000000000000000
F0010000008252900001000083007900600013050500000000000000000201602150002001EXPRESO ANDINO DE CARGA SA                        D000000047000000000000000000000000100010010000000000000000000000F0010000008252900120160215000101 00000000000000000000000000000000000000000000000000000000000000000000000000000000000000000000000000000000000000000N 00000000000NCONT   00    00000000000          00000000000000000000000000000000000000000000 000000000000000A000000000000000000000000000000000000000000000 000000000000000000000000000000000000000     00000000                                                                                                                        000000000000000000
F0010000008252900002000083007900600041450500000000000000000201602150002001EXPRESO ANDINO DE CARGA SA                        C000000046400000000000000000000000100010010000000000000000000000F0010000008252900220160215000101 00000000000000000000000000000000000000000000000000000000000000000000000000000000000000000000000000000000000000000N 00000000000NCONT   00    00000000000          00000000000000000000000000000000000000000000 000000000000000A000000000000000000000000000000000000000000000 000000000000000000000000000000000000000     00000000                                                                                                                        000000000000000000
F0010000008252900003000083007900600042505000000000000000000201602150002001EXPRESO ANDINO DE CARGA SA                        C000000000600000000000000000000000100010010000000000000000000000F0010000008252900320160215000101 00000000000000000000000000000000000000000000000000000000000000000000000000000000000000000000000000000000000000000N 00000000000NCONT   00    00000000000          00000000000000000000000000000000000000000000 000000000000000A000000000000000000000000000000000000000000000 000000000000000000000000000000000000000     00000000                                                                                                                        000000000000000000
F0010000008252900004000083007900600023658300000000000000000201602150002001EXPRESO ANDINO DE CARGA SA                        C000000000371200000000000000000000100010010000000000000000000000F0010000008252900420160215000101 00000000000000000000000000000000000000000000000000000000000000000000000000000000000000000000000000000000000000000N 00000000000NCONT   00    00000000000          00000000000000000000000000000000000000000000 000000000000000A000000000000000000000000000000000000000000000 000000000000000000000000000000000000000     00000000                                                                                                                        000000000000000000
F0010000008252900005000083007900600013552100000000000000000201602150002001EXPRESO ANDINO DE CARGA SA                        D000000000371200000000000000000000100010010000000000000000000000F0010000008252900520160215000101 00000000000000000000000000000000000000000000000000000000000000000000000000000000000000000000000000000000000000000N 00000000000NCONT   00    00000000000          00000000000000000000000000000000000000000000 000000000000000A000000000000000000000000000000000000000000000 000000000000000000000000000000000000000     00000000                                                                                                                        000000000000000000
F0010000008253100001000080016664500013050500000000000000000201602150002001TELAPLAS PANCER SAS                               D000000027242000000000000000000000100010010000000000000000000000F0010000008253100120160215000101 00000000000000000000000000000000000000000000000000000000000000000000000000000000000000000000000000000000000000000N 00000000000NCONT   00    00000000000          00000000000000000000000000000000000000000000 000000000000000A000000000000000000000000000000000000000000000 000000000000000000000000000000000000000     00000000                                                                                                                        000000000000000000
F0010000008253100002000080016664500041450500000000000000000201602150002001TELAPLAS PANCER SAS                               C000000021430000000000000000000000100010010000000000000000000000F0010000008253100220160215000101 00000000000000000000000000000000000000000000000000000000000000000000000000000000000000000000000000000000000000000N 00000000000NCONT   00    00000000000          00000000000000000000000000000000000000000000 000000000000000A000000000000000000000000000000000000000000000 000000000000000000000000000000000000000     00000000                                                                                                                        000000000000000000
F0010000008253100003000080016664500042505000000000000000000201602150002001TELAPLAS PANCER SAS                               C000000005812000000000000000000000100010010000000000000000000000F0010000008253100320160215000101 00000000000000000000000000000000000000000000000000000000000000000000000000000000000000000000000000000000000000000N 00000000000NCONT   00    00000000000          00000000000000000000000000000000000000000000 000000000000000A000000000000000000000000000000000000000000000 000000000000000000000000000000000000000     00000000                                                                                                                        000000000000000000
F0010000008253100004000080016664500023658300000000000000000201602150002001TELAPLAS PANCER SAS                               C000000000171400000000000000000000100010010000000000000000000000F0010000008253100420160215000101 00000000000000000000000000000000000000000000000000000000000000000000000000000000000000000000000000000000000000000N 00000000000NCONT   00    00000000000          00000000000000000000000000000000000000000000 000000000000000A000000000000000000000000000000000000000000000 000000000000000000000000000000000000000     00000000                                                                                                                        000000000000000000
F0010000008253100005000080016664500013552100000000000000000201602150002001TELAPLAS PANCER SAS                               D000000000171400000000000000000000100010010000000000000000000000F0010000008253100520160215000101 00000000000000000000000000000000000000000000000000000000000000000000000000000000000000000000000000000000000000000N 00000000000NCONT   00    00000000000          00000000000000000000000000000000000000000000 000000000000000A000000000000000000000000000000000000000000000 000000000000000000000000000000000000000     00000000                                                                                                                        000000000000000000
F0010000008253200001000002245670100013050500000000000000000201602150002001YOLANDA  TOBON                                    D000000024623900000000000000000000100010010000000000000000000000F0010000008253200120160215000101 00000000000000000000000000000000000000000000000000000000000000000000000000000000000000000000000000000000000000000N 00000000000NCONT   00    00000000000          00000000000000000000000000000000000000000000 000000000000000A000000000000000000000000000000000000000000000 000000000000000000000000000000000000000     00000000                                                                                                                        000000000000000000
F0010000008253200002000002245670100041450500000000000000000201602150002001YOLANDA  TOBON                                    C000000018560000000000000000000000100010010000000000000000000000F0010000008253200220160215000101 00000000000000000000000000000000000000000000000000000000000000000000000000000000000000000000000000000000000000000N 00000000000NCONT   00    00000000000          00000000000000000000000000000000000000000000 000000000000000A000000000000000000000000000000000000000000000 000000000000000000000000000000000000000     00000000                                                                                                                        000000000000000000
F0010000008253200003000002245670100042505000000000000000000201602150002001YOLANDA  TOBON                                    C000000006063900000000000000000000100010010000000000000000000000F0010000008253200320160215000101 00000000000000000000000000000000000000000000000000000000000000000000000000000000000000000000000000000000000000000N 00000000000NCONT   00    00000000000          00000000000000000000000000000000000000000000 000000000000000A000000000000000000000000000000000000000000000 000000000000000000000000000000000000000     00000000                                                                                                                        000000000000000000
F0010000008253200004000002245670100023658300000000000000000201602150002001YOLANDA  TOBON                                    C000000000148500000000000000000000100010010000000000000000000000F0010000008253200420160215000101 00000000000000000000000000000000000000000000000000000000000000000000000000000000000000000000000000000000000000000N 00000000000NCONT   00    00000000000          00000000000000000000000000000000000000000000 000000000000000A000000000000000000000000000000000000000000000 000000000000000000000000000000000000000     00000000                                                                                                                        000000000000000000
F0010000008253200005000002245670100013552100000000000000000201602150002001YOLANDA  TOBON                                    D000000000148500000000000000000000100010010000000000000000000000F0010000008253200520160215000101 00000000000000000000000000000000000000000000000000000000000000000000000000000000000000000000000000000000000000000N 00000000000NCONT   00    00000000000          00000000000000000000000000000000000000000000 000000000000000A000000000000000000000000000000000000000000000 000000000000000000000000000000000000000     00000000                                                                                                                        000000000000000000
F0010000008253300001000002258669400013050500000000000000000201602150002001YURY PAOLA  SANTAMARIA ..                         D000000016415000000000000000000000100010010000000000000000000000F0010000008253300120160215000101 00000000000000000000000000000000000000000000000000000000000000000000000000000000000000000000000000000000000000000N 00000000000NCONT   00    00000000000          00000000000000000000000000000000000000000000 000000000000000A000000000000000000000000000000000000000000000 000000000000000000000000000000000000000     00000000                                                                                                                        000000000000000000
F0010000008253300002000002258669400041450500000000000000000201602150002001YURY PAOLA  SANTAMARIA ..                         C000000015090000000000000000000000100010010000000000000000000000F0010000008253300220160215000101 00000000000000000000000000000000000000000000000000000000000000000000000000000000000000000000000000000000000000000N 00000000000NCONT   00    00000000000          00000000000000000000000000000000000000000000 000000000000000A000000000000000000000000000000000000000000000 000000000000000000000000000000000000000     00000000                                                                                                                        000000000000000000
F0010000008253300003000002258669400042505000000000000000000201602150002001YURY PAOLA  SANTAMARIA ..                         C000000001325000000000000000000000100010010000000000000000000000F0010000008253300320160215000101 00000000000000000000000000000000000000000000000000000000000000000000000000000000000000000000000000000000000000000N 00000000000NCONT   00    00000000000          00000000000000000000000000000000000000000000 000000000000000A000000000000000000000000000000000000000000000 000000000000000000000000000000000000000     00000000                                                                                                                        000000000000000000
F0010000008253300004000002258669400023658300000000000000000201602150002001YURY PAOLA  SANTAMARIA ..                         C000000000120700000000000000000000100010010000000000000000000000F0010000008253300420160215000101 00000000000000000000000000000000000000000000000000000000000000000000000000000000000000000000000000000000000000000N 00000000000NCONT   00    00000000000          00000000000000000000000000000000000000000000 000000000000000A000000000000000000000000000000000000000000000 000000000000000000000000000000000000000     00000000                                                                                                                        000000000000000000
F0010000008253300005000002258669400013552100000000000000000201602150002001YURY PAOLA  SANTAMARIA ..                         D000000000120700000000000000000000100010010000000000000000000000F0010000008253300520160215000101 00000000000000000000000000000000000000000000000000000000000000000000000000000000000000000000000000000000000000000N 00000000000NCONT   00    00000000000          00000000000000000000000000000000000000000000 000000000000000A000000000000000000000000000000000000000000000 000000000000000000000000000000000000000     00000000                                                                                                                        000000000000000000
F0010000008253400001000090060531100013050500000000000000000201602150002001RECUBRIMIENTOS ESENCIALES SAS                     D000000015550000000000000000000000100010010000000000000000000000F0010000008253400120160215000101 00000000000000000000000000000000000000000000000000000000000000000000000000000000000000000000000000000000000000000N 00000000000NCONT   00    00000000000          00000000000000000000000000000000000000000000 000000000000000A000000000000000000000000000000000000000000000 000000000000000000000000000000000000000     00000000                                                                                                                        000000000000000000
F0010000008253400002000090060531100041450500000000000000000201602150002001RECUBRIMIENTOS ESENCIALES SAS                     C000000014700000000000000000000000100010010000000000000000000000F0010000008253400220160215000101 00000000000000000000000000000000000000000000000000000000000000000000000000000000000000000000000000000000000000000N 00000000000NCONT   00    00000000000          00000000000000000000000000000000000000000000 000000000000000A000000000000000000000000000000000000000000000 000000000000000000000000000000000000000     00000000                                                                                                                        000000000000000000
F0010000008253400003000090060531100042505000000000000000000201602150002001RECUBRIMIENTOS ESENCIALES SAS                     C000000000850000000000000000000000100010010000000000000000000000F0010000008253400320160215000101 00000000000000000000000000000000000000000000000000000000000000000000000000000000000000000000000000000000000000000N 00000000000NCONT   00    00000000000          00000000000000000000000000000000000000000000 000000000000000A000000000000000000000000000000000000000000000 000000000000000000000000000000000000000     00000000                                                                                                                        000000000000000000
F0010000008253400004000090060531100023658300000000000000000201602150002001RECUBRIMIENTOS ESENCIALES SAS                     C000000000117600000000000000000000100010010000000000000000000000F0010000008253400420160215000101 00000000000000000000000000000000000000000000000000000000000000000000000000000000000000000000000000000000000000000N 00000000000NCONT   00    00000000000          00000000000000000000000000000000000000000000 000000000000000A000000000000000000000000000000000000000000000 000000000000000000000000000000000000000     00000000                                                                                                                        000000000000000000
F0010000008253400005000090060531100013552100000000000000000201602150002001RECUBRIMIENTOS ESENCIALES SAS                     D000000000117600000000000000000000100010010000000000000000000000F0010000008253400520160215000101 00000000000000000000000000000000000000000000000000000000000000000000000000000000000000000000000000000000000000000N 00000000000NCONT   00    00000000000          00000000000000000000000000000000000000000000 000000000000000A000000000000000000000000000000000000000000000 000000000000000000000000000000000000000     00000000                                                                                                                        000000000000000000
F0010000008253500001000089010260300013050500000000000000000201602150002001FEDERICO OSORIO A. S.A.                           D000000063281400000000000000000000100010010000000000000000000000F0010000008253500120160215000101 00000000000000000000000000000000000000000000000000000000000000000000000000000000000000000000000000000000000000000N 00000000000NCONT   00    00000000000          00000000000000000000000000000000000000000000 000000000000000A000000000000000000000000000000000000000000000 000000000000000000000000000000000000000     00000000                                                                                                                        000000000000000000
F0010000008253500002000089010260300041450500000000000000000201602150002001FEDERICO OSORIO A. S.A.                           C000000059020000000000000000000000100010010000000000000000000000F0010000008253500220160215000101 00000000000000000000000000000000000000000000000000000000000000000000000000000000000000000000000000000000000000000N 00000000000NCONT   00    00000000000          00000000000000000000000000000000000000000000 000000000000000A000000000000000000000000000000000000000000000 000000000000000000000000000000000000000     00000000                                                                                                                        000000000000000000
F0010000008253500003000089010260300042505000000000000000000201602150002001FEDERICO OSORIO A. S.A.                           C000000004261400000000000000000000100010010000000000000000000000F0010000008253500320160215000101 00000000000000000000000000000000000000000000000000000000000000000000000000000000000000000000000000000000000000000N 00000000000NCONT   00    00000000000          00000000000000000000000000000000000000000000 000000000000000A000000000000000000000000000000000000000000000 000000000000000000000000000000000000000     00000000                                                                                                                        000000000000000000
F0010000008253500004000089010260300023658300000000000000000201602150002001FEDERICO OSORIO A. S.A.                           C000000000472200000000000000000000100010010000000000000000000000F0010000008253500420160215000101 00000000000000000000000000000000000000000000000000000000000000000000000000000000000000000000000000000000000000000N 00000000000NCONT   00    00000000000          00000000000000000000000000000000000000000000 000000000000000A000000000000000000000000000000000000000000000 000000000000000000000000000000000000000     00000000                                                                                                                        000000000000000000
F0010000008253500005000089010260300013552100000000000000000201602150002001FEDERICO OSORIO A. S.A.                           D000000000472200000000000000000000100010010000000000000000000000F0010000008253500520160215000101 00000000000000000000000000000000000000000000000000000000000000000000000000000000000000000000000000000000000000000N 00000000000NCONT   00    00000000000          00000000000000000000000000000000000000000000 000000000000000A000000000000000000000000000000000000000000000 000000000000000000000000000000000000000     00000000                                                                                                                        000000000000000000
F0010000008253600001000080202094000013050500000000000000000201602150002001DISTRIB. OMAR ORREGO S.A.                         D000000067601500000000000000000000100010010000000000000000000000F0010000008253600120160215000101 00000000000000000000000000000000000000000000000000000000000000000000000000000000000000000000000000000000000000000N 00000000000NCONT   00    00000000000          00000000000000000000000000000000000000000000 000000000000000A000000000000000000000000000000000000000000000 000000000000000000000000000000000000000     00000000                                                                                                                        000000000000000000
F0010000008253600002000080202094000041450500000000000000000201602150002001DISTRIB. OMAR ORREGO S.A.                         C000000034910000000000000000000000100010010000000000000000000000F0010000008253600220160215000101 00000000000000000000000000000000000000000000000000000000000000000000000000000000000000000000000000000000000000000N 00000000000NCONT   00    00000000000          00000000000000000000000000000000000000000000 000000000000000A000000000000000000000000000000000000000000000 000000000000000000000000000000000000000     00000000                                                                                                                        000000000000000000
F0010000008253600003000080202094000042505000000000000000000201602150002001DISTRIB. OMAR ORREGO S.A.                         C000000032691500000000000000000000100010010000000000000000000000F0010000008253600320160215000101 00000000000000000000000000000000000000000000000000000000000000000000000000000000000000000000000000000000000000000N 00000000000NCONT   00    00000000000          00000000000000000000000000000000000000000000 000000000000000A000000000000000000000000000000000000000000000 000000000000000000000000000000000000000     00000000                                                                                                                        000000000000000000
F0010000008253600004000080202094000023658300000000000000000201602150002001DISTRIB. OMAR ORREGO S.A.                         C000000000279300000000000000000000100010010000000000000000000000F0010000008253600420160215000101 00000000000000000000000000000000000000000000000000000000000000000000000000000000000000000000000000000000000000000N 00000000000NCONT   00    00000000000          00000000000000000000000000000000000000000000 000000000000000A000000000000000000000000000000000000000000000 000000000000000000000000000000000000000     00000000                                                                                                                        000000000000000000
F0010000008253600005000080202094000013552100000000000000000201602150002001DISTRIB. OMAR ORREGO S.A.                         D000000000279300000000000000000000100010010000000000000000000000F0010000008253600520160215000101 00000000000000000000000000000000000000000000000000000000000000000000000000000000000000000000000000000000000000000N 00000000000NCONT   00    00000000000          00000000000000000000000000000000000000000000 000000000000000A000000000000000000000000000000000000000000000 000000000000000000000000000000000000000     00000000                                                                                                                        000000000000000000
F0010000008253700001000090064982900013050500000000000000000201602150002001DISDIES S.A.S                                     D000000050888600000000000000000000100010010000000000000000000000F0010000008253700120160215000101 00000000000000000000000000000000000000000000000000000000000000000000000000000000000000000000000000000000000000000N 00000000000NCONT   00    00000000000          00000000000000000000000000000000000000000000 000000000000000A000000000000000000000000000000000000000000000 000000000000000000000000000000000000000     00000000                                                                                                                        000000000000000000
F0010000008253700002000090064982900041450500000000000000000201602150002001DISDIES S.A.S                                     C000000047188600000000000000000000100010010000000000000000000000F0010000008253700220160215000101 00000000000000000000000000000000000000000000000000000000000000000000000000000000000000000000000000000000000000000N 00000000000NCONT   00    00000000000          00000000000000000000000000000000000000000000 000000000000000A000000000000000000000000000000000000000000000 000000000000000000000000000000000000000     00000000                                                                                                                        000000000000000000
F0010000008253700003000090064982900042505000000000000000000201602150002001DISDIES S.A.S                                     C000000003700000000000000000000000100010010000000000000000000000F0010000008253700320160215000101 00000000000000000000000000000000000000000000000000000000000000000000000000000000000000000000000000000000000000000N 00000000000NCONT   00    00000000000          00000000000000000000000000000000000000000000 000000000000000A000000000000000000000000000000000000000000000 000000000000000000000000000000000000000     00000000                                                                                                                        000000000000000000
F0010000008253700004000090064982900023658300000000000000000201602150002001DISDIES S.A.S                                     C000000000377500000000000000000000100010010000000000000000000000F0010000008253700420160215000101 00000000000000000000000000000000000000000000000000000000000000000000000000000000000000000000000000000000000000000N 00000000000NCONT   00    00000000000          00000000000000000000000000000000000000000000 000000000000000A000000000000000000000000000000000000000000000 000000000000000000000000000000000000000     00000000                                                                                                                        000000000000000000
F0010000008253700005000090064982900013552100000000000000000201602150002001DISDIES S.A.S                                     D000000000377500000000000000000000100010010000000000000000000000F0010000008253700520160215000101 00000000000000000000000000000000000000000000000000000000000000000000000000000000000000000000000000000000000000000N 00000000000NCONT   00    00000000000          00000000000000000000000000000000000000000000 000000000000000A000000000000000000000000000000000000000000000 000000000000000000000000000000000000000     00000000                                                                                                                        000000000000000000
F0010000008253800001000090008711200013050500000000000000000201602150002001PACKAGING SUPPLIERS S.A.                          D000000046358400000000000000000000100010010000000000000000000000F0010000008253800120160215000101 00000000000000000000000000000000000000000000000000000000000000000000000000000000000000000000000000000000000000000N 00000000000NCONT   00    00000000000          00000000000000000000000000000000000000000000 000000000000000A000000000000000000000000000000000000000000000 000000000000000000000000000000000000000     00000000                                                                                                                        000000000000000000
F0010000008253800002000090008711200041450500000000000000000201602150002001PACKAGING SUPPLIERS S.A.                          C000000042713400000000000000000000100010010000000000000000000000F0010000008253800220160215000101 00000000000000000000000000000000000000000000000000000000000000000000000000000000000000000000000000000000000000000N 00000000000NCONT   00    00000000000          00000000000000000000000000000000000000000000 000000000000000A000000000000000000000000000000000000000000000 000000000000000000000000000000000000000     00000000                                                                                                                        000000000000000000
F0010000008253800003000090008711200042505000000000000000000201602150002001PACKAGING SUPPLIERS S.A.                          C000000003645000000000000000000000100010010000000000000000000000F0010000008253800320160215000101 00000000000000000000000000000000000000000000000000000000000000000000000000000000000000000000000000000000000000000N 00000000000NCONT   00    00000000000          00000000000000000000000000000000000000000000 000000000000000A000000000000000000000000000000000000000000000 000000000000000000000000000000000000000     00000000                                                                                                                        000000000000000000
F0010000008253800004000090008711200023658300000000000000000201602150002001PACKAGING SUPPLIERS S.A.                          C000000000341700000000000000000000100010010000000000000000000000F0010000008253800420160215000101 00000000000000000000000000000000000000000000000000000000000000000000000000000000000000000000000000000000000000000N 00000000000NCONT   00    00000000000          00000000000000000000000000000000000000000000 000000000000000A000000000000000000000000000000000000000000000 000000000000000000000000000000000000000     00000000                                                                                                                        000000000000000000
F0010000008253800005000090008711200013552100000000000000000201602150002001PACKAGING SUPPLIERS S.A.                          D000000000341700000000000000000000100010010000000000000000000000F0010000008253800520160215000101 00000000000000000000000000000000000000000000000000000000000000000000000000000000000000000000000000000000000000000N 00000000000NCONT   00    00000000000          00000000000000000000000000000000000000000000 000000000000000A000000000000000000000000000000000000000000000 000000000000000000000000000000000000000     00000000                                                                                                                        000000000000000000
F0010000008253900001000083001155300013050500000000000000000201602150002001COMERCIALIZADORA RUBEN S LTDA                     D000000040977400000000000000000000100010010000000000000000000000F0010000008253900120160215000101 00000000000000000000000000000000000000000000000000000000000000000000000000000000000000000000000000000000000000000N 00000000000NCONT   00    00000000000          00000000000000000000000000000000000000000000 000000000000000A000000000000000000000000000000000000000000000 000000000000000000000000000000000000000     00000000                                                                                                                        000000000000000000
F0010000008253900002000083001155300041450500000000000000000201602150002001COMERCIALIZADORA RUBEN S LTDA                     C000000035910000000000000000000000100010010000000000000000000000F0010000008253900220160215000101 00000000000000000000000000000000000000000000000000000000000000000000000000000000000000000000000000000000000000000N 00000000000NCONT   00    00000000000          00000000000000000000000000000000000000000000 000000000000000A000000000000000000000000000000000000000000000 000000000000000000000000000000000000000     00000000                                                                                                                        000000000000000000
F0010000008253900003000083001155300042505000000000000000000201602150002001COMERCIALIZADORA RUBEN S LTDA                     C000000005067400000000000000000000100010010000000000000000000000F0010000008253900320160215000101 00000000000000000000000000000000000000000000000000000000000000000000000000000000000000000000000000000000000000000N 00000000000NCONT   00    00000000000          00000000000000000000000000000000000000000000 000000000000000A000000000000000000000000000000000000000000000 000000000000000000000000000000000000000     00000000                                                                                                                        000000000000000000
F0010000008253900004000083001155300023658300000000000000000201602150002001COMERCIALIZADORA RUBEN S LTDA                     C000000000287300000000000000000000100010010000000000000000000000F0010000008253900420160215000101 00000000000000000000000000000000000000000000000000000000000000000000000000000000000000000000000000000000000000000N 00000000000NCONT   00    00000000000          00000000000000000000000000000000000000000000 000000000000000A000000000000000000000000000000000000000000000 000000000000000000000000000000000000000     00000000                                                                                                                        000000000000000000
F0010000008253900005000083001155300013552100000000000000000201602150002001COMERCIALIZADORA RUBEN S LTDA                     D000000000287300000000000000000000100010010000000000000000000000F0010000008253900520160215000101 00000000000000000000000000000000000000000000000000000000000000000000000000000000000000000000000000000000000000000N 00000000000NCONT   00    00000000000          00000000000000000000000000000000000000000000 000000000000000A000000000000000000000000000000000000000000000 000000000000000000000000000000000000000     00000000                                                                                                                        000000000000000000
F0010000008254000001000000748239700013050500000000000000000201602150002001RAFAEL NAVARRO URIBE                              D000000040493700000000000000000000100010010000000000000000000000F0010000008254000120160215000101 00000000000000000000000000000000000000000000000000000000000000000000000000000000000000000000000000000000000000000N 00000000000NCONT   00    00000000000          00000000000000000000000000000000000000000000 000000000000000A000000000000000000000000000000000000000000000 000000000000000000000000000000000000000     00000000                                                                                                                        000000000000000000
F0010000008254000002000000748239700041450500000000000000000201602150002001RAFAEL NAVARRO URIBE                              C000000022630000000000000000000000100010010000000000000000000000F0010000008254000220160215000101 00000000000000000000000000000000000000000000000000000000000000000000000000000000000000000000000000000000000000000N 00000000000NCONT   00    00000000000          00000000000000000000000000000000000000000000 000000000000000A000000000000000000000000000000000000000000000 000000000000000000000000000000000000000     00000000                                                                                                                        000000000000000000
F0010000008254000003000000748239700042505000000000000000000201602150002001RAFAEL NAVARRO URIBE                              C000000017863700000000000000000000100010010000000000000000000000F0010000008254000320160215000101 00000000000000000000000000000000000000000000000000000000000000000000000000000000000000000000000000000000000000000N 00000000000NCONT   00    00000000000          00000000000000000000000000000000000000000000 000000000000000A000000000000000000000000000000000000000000000 000000000000000000000000000000000000000     00000000                                                                                                                        000000000000000000
F0010000008254000004000000748239700023658300000000000000000201602150002001RAFAEL NAVARRO URIBE                              C000000000181000000000000000000000100010010000000000000000000000F0010000008254000420160215000101 00000000000000000000000000000000000000000000000000000000000000000000000000000000000000000000000000000000000000000N 00000000000NCONT   00    00000000000          00000000000000000000000000000000000000000000 000000000000000A000000000000000000000000000000000000000000000 000000000000000000000000000000000000000     00000000                                                                                                                        000000000000000000
F0010000008254000005000000748239700013552100000000000000000201602150002001RAFAEL NAVARRO URIBE                              D000000000181000000000000000000000100010010000000000000000000000F0010000008254000520160215000101 00000000000000000000000000000000000000000000000000000000000000000000000000000000000000000000000000000000000000000N 00000000000NCONT   00    00000000000          00000000000000000000000000000000000000000000 000000000000000A000000000000000000000000000000000000000000000 000000000000000000000000000000000000000     00000000                                                                                                                        000000000000000000
F0010000008254100001000000871714900013050500000000000000000201602150002001ROLNAN DE LA ROSA  INSIGNARES                     D000000055485400000000000000000000100010010000000000000000000000F0010000008254100120160215000101 00000000000000000000000000000000000000000000000000000000000000000000000000000000000000000000000000000000000000000N 00000000000NCONT   00    00000000000          00000000000000000000000000000000000000000000 000000000000000A000000000000000000000000000000000000000000000 000000000000000000000000000000000000000     00000000                                                                                                                        000000000000000000
F0010000008254100002000000871714900041450500000000000000000201602150002001ROLNAN DE LA ROSA  INSIGNARES                     C000000045932900000000000000000000100010010000000000000000000000F0010000008254100220160215000101 00000000000000000000000000000000000000000000000000000000000000000000000000000000000000000000000000000000000000000N 00000000000NCONT   00    00000000000          00000000000000000000000000000000000000000000 000000000000000A000000000000000000000000000000000000000000000 000000000000000000000000000000000000000     00000000                                                                                                                        000000000000000000
F0010000008254100003000000871714900042505000000000000000000201602150002001ROLNAN DE LA ROSA  INSIGNARES                     C000000009552500000000000000000000100010010000000000000000000000F0010000008254100320160215000101 00000000000000000000000000000000000000000000000000000000000000000000000000000000000000000000000000000000000000000N 00000000000NCONT   00    00000000000          00000000000000000000000000000000000000000000 000000000000000A000000000000000000000000000000000000000000000 000000000000000000000000000000000000000     00000000                                                                                                                        000000000000000000
F0010000008254100004000000871714900023658300000000000000000201602150002001ROLNAN DE LA ROSA  INSIGNARES                     C000000000367500000000000000000000100010010000000000000000000000F0010000008254100420160215000101 00000000000000000000000000000000000000000000000000000000000000000000000000000000000000000000000000000000000000000N 00000000000NCONT   00    00000000000          00000000000000000000000000000000000000000000 000000000000000A000000000000000000000000000000000000000000000 000000000000000000000000000000000000000     00000000                                                                                                                        000000000000000000
F0010000008254100005000000871714900013552100000000000000000201602150002001ROLNAN DE LA ROSA  INSIGNARES                     D000000000367500000000000000000000100010010000000000000000000000F0010000008254100520160215000101 00000000000000000000000000000000000000000000000000000000000000000000000000000000000000000000000000000000000000000N 00000000000NCONT   00    00000000000          00000000000000000000000000000000000000000000 000000000000000A000000000000000000000000000000000000000000000 000000000000000000000000000000000000000     00000000                                                                                                                        000000000000000000
F0010000008254200001000080200863700013050500000000000000000201602150002001COPIN S.A.S                                       D000000066508000000000000000000000100010010000000000000000000000F0010000008254200120160215000101 00000000000000000000000000000000000000000000000000000000000000000000000000000000000000000000000000000000000000000N 00000000000NCONT   00    00000000000          00000000000000000000000000000000000000000000 000000000000000A000000000000000000000000000000000000000000000 000000000000000000000000000000000000000     00000000                                                                                                                        000000000000000000
F0010000008254200002000080200863700041450500000000000000000201602150002001COPIN S.A.S                                       C000000057260000000000000000000000100010010000000000000000000000F0010000008254200220160215000101 00000000000000000000000000000000000000000000000000000000000000000000000000000000000000000000000000000000000000000N 00000000000NCONT   00    00000000000          00000000000000000000000000000000000000000000 000000000000000A000000000000000000000000000000000000000000000 000000000000000000000000000000000000000     00000000                                                                                                                        000000000000000000
F0010000008254200003000080200863700042505000000000000000000201602150002001COPIN S.A.S                                       C000000009248000000000000000000000100010010000000000000000000000F0010000008254200320160215000101 00000000000000000000000000000000000000000000000000000000000000000000000000000000000000000000000000000000000000000N 00000000000NCONT   00    00000000000          00000000000000000000000000000000000000000000 000000000000000A000000000000000000000000000000000000000000000 000000000000000000000000000000000000000     00000000                                                                                                                        000000000000000000
F0010000008254200004000080200863700023658300000000000000000201602150002001COPIN S.A.S                                       C000000000458100000000000000000000100010010000000000000000000000F0010000008254200420160215000101 00000000000000000000000000000000000000000000000000000000000000000000000000000000000000000000000000000000000000000N 00000000000NCONT   00    00000000000          00000000000000000000000000000000000000000000 000000000000000A000000000000000000000000000000000000000000000 000000000000000000000000000000000000000     00000000                                                                                                                        000000000000000000
F0010000008254200005000080200863700013552100000000000000000201602150002001COPIN S.A.S                                       D000000000458100000000000000000000100010010000000000000000000000F0010000008254200520160215000101 00000000000000000000000000000000000000000000000000000000000000000000000000000000000000000000000000000000000000000N 00000000000NCONT   00    00000000000          00000000000000000000000000000000000000000000 000000000000000A000000000000000000000000000000000000000000000 000000000000000000000000000000000000000     00000000                                                                                                                        000000000000000000
F0010000008254300001000089011492400013050500000000000000000201602150002001AGE. CAUCHO SOL DE LA COSTA  SAS                  D000000084982600000000000000000000100010010000000000000000000000F0010000008254300120160215000101 00000000000000000000000000000000000000000000000000000000000000000000000000000000000000000000000000000000000000000N 00000000000NCONT   00    00000000000          00000000000000000000000000000000000000000000 000000000000000A000000000000000000000000000000000000000000000 000000000000000000000000000000000000000     00000000                                                                                                                        000000000000000000
F0010000008254300002000089011492400041450500000000000000000201602150002001AGE. CAUCHO SOL DE LA COSTA  SAS                  C000000058650000000000000000000000100010010000000000000000000000F0010000008254300220160215000101 00000000000000000000000000000000000000000000000000000000000000000000000000000000000000000000000000000000000000000N 00000000000NCONT   00    00000000000          00000000000000000000000000000000000000000000 000000000000000A000000000000000000000000000000000000000000000 000000000000000000000000000000000000000     00000000                                                                                                                        000000000000000000
F0010000008254300003000089011492400042505000000000000000000201602150002001AGE. CAUCHO SOL DE LA COSTA  SAS                  C000000026332600000000000000000000100010010000000000000000000000F0010000008254300320160215000101 00000000000000000000000000000000000000000000000000000000000000000000000000000000000000000000000000000000000000000N 00000000000NCONT   00    00000000000          00000000000000000000000000000000000000000000 000000000000000A000000000000000000000000000000000000000000000 000000000000000000000000000000000000000     00000000                                                                                                                        000000000000000000
F0010000008254300004000089011492400023658300000000000000000201602150002001AGE. CAUCHO SOL DE LA COSTA  SAS                  C000000000469200000000000000000000100010010000000000000000000000F0010000008254300420160215000101 00000000000000000000000000000000000000000000000000000000000000000000000000000000000000000000000000000000000000000N 00000000000NCONT   00    00000000000          00000000000000000000000000000000000000000000 000000000000000A000000000000000000000000000000000000000000000 000000000000000000000000000000000000000     00000000                                                                                                                        000000000000000000
F0010000008254300005000089011492400013552100000000000000000201602150002001AGE. CAUCHO SOL DE LA COSTA  SAS                  D000000000469200000000000000000000100010010000000000000000000000F0010000008254300520160215000101 00000000000000000000000000000000000000000000000000000000000000000000000000000000000000000000000000000000000000000N 00000000000NCONT   00    00000000000          00000000000000000000000000000000000000000000 000000000000000A000000000000000000000000000000000000000000000 000000000000000000000000000000000000000     00000000                                                                                                                        000000000000000000
F0010000008254400001000089011492400013050500000000000000000201602150002001AGE. CAUCHO SOL DE LA COSTA  SAS                  D000000053572600000000000000000000100010010000000000000000000000F0010000008254400120160215000101 00000000000000000000000000000000000000000000000000000000000000000000000000000000000000000000000000000000000000000N 00000000000NCONT   00    00000000000          00000000000000000000000000000000000000000000 000000000000000A000000000000000000000000000000000000000000000 000000000000000000000000000000000000000     00000000                                                                                                                        000000000000000000
F0010000008254400002000089011492400041450500000000000000000201602150002001AGE. CAUCHO SOL DE LA COSTA  SAS                  C000000036000000000000000000000000100010010000000000000000000000F0010000008254400220160215000101 00000000000000000000000000000000000000000000000000000000000000000000000000000000000000000000000000000000000000000N 00000000000NCONT   00    00000000000          00000000000000000000000000000000000000000000 000000000000000A000000000000000000000000000000000000000000000 000000000000000000000000000000000000000     00000000                                                                                                                        000000000000000000
F0010000008254400003000089011492400042505000000000000000000201602150002001AGE. CAUCHO SOL DE LA COSTA  SAS                  C000000017572600000000000000000000100010010000000000000000000000F0010000008254400320160215000101 00000000000000000000000000000000000000000000000000000000000000000000000000000000000000000000000000000000000000000N 00000000000NCONT   00    00000000000          00000000000000000000000000000000000000000000 000000000000000A000000000000000000000000000000000000000000000 000000000000000000000000000000000000000     00000000                                                                                                                        000000000000000000
F0010000008254400004000089011492400023658300000000000000000201602150002001AGE. CAUCHO SOL DE LA COSTA  SAS                  C000000000288000000000000000000000100010010000000000000000000000F0010000008254400420160215000101 00000000000000000000000000000000000000000000000000000000000000000000000000000000000000000000000000000000000000000N 00000000000NCONT   00    00000000000          00000000000000000000000000000000000000000000 000000000000000A000000000000000000000000000000000000000000000 000000000000000000000000000000000000000     00000000                                                                                                                        000000000000000000
F0010000008254400005000089011492400013552100000000000000000201602150002001AGE. CAUCHO SOL DE LA COSTA  SAS                  D000000000288000000000000000000000100010010000000000000000000000F0010000008254400520160215000101 00000000000000000000000000000000000000000000000000000000000000000000000000000000000000000000000000000000000000000N 00000000000NCONT   00    00000000000          00000000000000000000000000000000000000000000 000000000000000A000000000000000000000000000000000000000000000 000000000000000000000000000000000000000     00000000                                                                                                                        000000000000000000
F0010000008254500001000080201112800013050500000000000000000201602150002001CANGURO INTERNATIONAL S.A.                        D000000127859200000000000000000000100010010000000000000000000000F0010000008254500120160215000101 00000000000000000000000000000000000000000000000000000000000000000000000000000000000000000000000000000000000000000N 00000000000NCONT   00    00000000000          00000000000000000000000000000000000000000000 000000000000000A000000000000000000000000000000000000000000000 000000000000000000000000000000000000000     00000000                                                                                                                        000000000000000000
F0010000008254500002000080201112800041450500000000000000000201602150002001CANGURO INTERNATIONAL S.A.                        C000000127859200000000000000000000100010010000000000000000000000F0010000008254500220160215000101 00000000000000000000000000000000000000000000000000000000000000000000000000000000000000000000000000000000000000000N 00000000000NCONT   00    00000000000          00000000000000000000000000000000000000000000 000000000000000A000000000000000000000000000000000000000000000 000000000000000000000000000000000000000     00000000                                                                                                                        000000000000000000
F0010000008254500003000080201112800042505000000000000000000201602150002001CANGURO INTERNATIONAL S.A.                        C000000000000000000000000000000000100010010000000000000000000000F0010000008254500320160215000101 00000000000000000000000000000000000000000000000000000000000000000000000000000000000000000000000000000000000000000N 00000000000NCONT   00    00000000000          00000000000000000000000000000000000000000000 000000000000000A000000000000000000000000000000000000000000000 000000000000000000000000000000000000000     00000000                                                                                                                        000000000000000000
F0010000008254500004000080201112800023658300000000000000000201602150002001CANGURO INTERNATIONAL S.A.                        C000000001022900000000000000000000100010010000000000000000000000F0010000008254500420160215000101 00000000000000000000000000000000000000000000000000000000000000000000000000000000000000000000000000000000000000000N 00000000000NCONT   00    00000000000          00000000000000000000000000000000000000000000 000000000000000A000000000000000000000000000000000000000000000 000000000000000000000000000000000000000     00000000                                                                                                                        000000000000000000
F0010000008254500005000080201112800013552100000000000000000201602150002001CANGURO INTERNATIONAL S.A.                        D000000001022900000000000000000000100010010000000000000000000000F0010000008254500520160215000101 00000000000000000000000000000000000000000000000000000000000000000000000000000000000000000000000000000000000000000N 00000000000NCONT   00    00000000000          00000000000000000000000000000000000000000000 000000000000000A000000000000000000000000000000000000000000000 000000000000000000000000000000000000000     00000000                                                                                                                        000000000000000000
F0010000008254600001000080201112800013050500000000000000000201602150002001CANGURO INTERNATIONAL S.A.                        D000000055333700000000000000000000100010010000000000000000000000F0010000008254600120160215000101 00000000000000000000000000000000000000000000000000000000000000000000000000000000000000000000000000000000000000000N 00000000000NCONT   00    00000000000          00000000000000000000000000000000000000000000 000000000000000A000000000000000000000000000000000000000000000 000000000000000000000000000000000000000     00000000                                                                                                                        000000000000000000
F0010000008254600002000080201112800041450500000000000000000201602150002001CANGURO INTERNATIONAL S.A.                        C000000055333700000000000000000000100010010000000000000000000000F0010000008254600220160215000101 00000000000000000000000000000000000000000000000000000000000000000000000000000000000000000000000000000000000000000N 00000000000NCONT   00    00000000000          00000000000000000000000000000000000000000000 000000000000000A000000000000000000000000000000000000000000000 000000000000000000000000000000000000000     00000000                                                                                                                        000000000000000000
F0010000008254600003000080201112800042505000000000000000000201602150002001CANGURO INTERNATIONAL S.A.                        C000000000000000000000000000000000100010010000000000000000000000F0010000008254600320160215000101 00000000000000000000000000000000000000000000000000000000000000000000000000000000000000000000000000000000000000000N 00000000000NCONT   00    00000000000          00000000000000000000000000000000000000000000 000000000000000A000000000000000000000000000000000000000000000 000000000000000000000000000000000000000     00000000                                                                                                                        000000000000000000
F0010000008254600004000080201112800023658300000000000000000201602150002001CANGURO INTERNATIONAL S.A.                        C000000000442700000000000000000000100010010000000000000000000000F0010000008254600420160215000101 00000000000000000000000000000000000000000000000000000000000000000000000000000000000000000000000000000000000000000N 00000000000NCONT   00    00000000000          00000000000000000000000000000000000000000000 000000000000000A000000000000000000000000000000000000000000000 000000000000000000000000000000000000000     00000000                                                                                                                        000000000000000000
F0010000008254600005000080201112800013552100000000000000000201602150002001CANGURO INTERNATIONAL S.A.                        D000000000442700000000000000000000100010010000000000000000000000F0010000008254600520160215000101 00000000000000000000000000000000000000000000000000000000000000000000000000000000000000000000000000000000000000000N 00000000000NCONT   00    00000000000          00000000000000000000000000000000000000000000 000000000000000A000000000000000000000000000000000000000000000 000000000000000000000000000000000000000     00000000                                                                                                                        000000000000000000
F0010000008254700001000090034602400011050500000000000000000201602150002001PRODUCTOS NACIONALES PARAFINICOS LA CUSTODIA S.A.SD000000002000000000000000000000000100010010000000000000000000000F0010000008254700120160215000101 00000000000000000000000000000000000000000000000000000000000000000000000000000000000000000000000000000000000000000N 00000000000NCONT   00    00000000000          00000000000000000000000000000000000000000000 000000000000000A000000000000000000000000000000000000000000000 000000000000000000000000000000000000000     00000000                                                                                                                        000000000000000000
F0010000008254700002000090034602400041450500000000000000000201602150002001PRODUCTOS NACIONALES PARAFINICOS LA CUSTODIA S.A.SC000000001800000000000000000000000100010010000000000000000000000F0010000008254700220160215000101 00000000000000000000000000000000000000000000000000000000000000000000000000000000000000000000000000000000000000000N 00000000000NCONT   00    00000000000          00000000000000000000000000000000000000000000 000000000000000A000000000000000000000000000000000000000000000 000000000000000000000000000000000000000     00000000                                                                                                                        000000000000000000
F0010000008254700003000090034602400042505000000000000000000201602150002001PRODUCTOS NACIONALES PARAFINICOS LA CUSTODIA S.A.SC000000000200000000000000000000000100010010000000000000000000000F0010000008254700320160215000101 00000000000000000000000000000000000000000000000000000000000000000000000000000000000000000000000000000000000000000N 00000000000NCONT   00    00000000000          00000000000000000000000000000000000000000000 000000000000000A000000000000000000000000000000000000000000000 000000000000000000000000000000000000000     00000000                                                                                                                        000000000000000000
F0010000008254700004000090034602400023658300000000000000000201602150002001PRODUCTOS NACIONALES PARAFINICOS LA CUSTODIA S.A.SC000000000014400000000000000000000100010010000000000000000000000F0010000008254700420160215000101 00000000000000000000000000000000000000000000000000000000000000000000000000000000000000000000000000000000000000000N 00000000000NCONT   00    00000000000          00000000000000000000000000000000000000000000 000000000000000A000000000000000000000000000000000000000000000 000000000000000000000000000000000000000     00000000                                                                                                                        000000000000000000
F0010000008254700005000090034602400013552100000000000000000201602150002001PRODUCTOS NACIONALES PARAFINICOS LA CUSTODIA S.A.SD000000000014400000000000000000000100010010000000000000000000000F0010000008254700520160215000101 00000000000000000000000000000000000000000000000000000000000000000000000000000000000000000000000000000000000000000N 00000000000NCONT   00    00000000000          00000000000000000000000000000000000000000000 000000000000000A000000000000000000000000000000000000000000000 000000000000000000000000000000000000000     00000000                                                                                                                        000000000000000000
F0010000008254800001000080201411900011050500000000000000000201602150002001PLASTISERVICIOS S DE H                            D000000001200000000000000000000000100010010000000000000000000000F0010000008254800120160215000101 00000000000000000000000000000000000000000000000000000000000000000000000000000000000000000000000000000000000000000N 00000000000NCONT   00    00000000000          00000000000000000000000000000000000000000000 000000000000000A000000000000000000000000000000000000000000000 000000000000000000000000000000000000000     00000000                                                                                                                        000000000000000000
F0010000008254800002000080201411900041450500000000000000000201602150002001PLASTISERVICIOS S DE H                            C000000000900000000000000000000000100010010000000000000000000000F0010000008254800220160215000101 00000000000000000000000000000000000000000000000000000000000000000000000000000000000000000000000000000000000000000N 00000000000NCONT   00    00000000000          00000000000000000000000000000000000000000000 000000000000000A000000000000000000000000000000000000000000000 000000000000000000000000000000000000000     00000000                                                                                                                        000000000000000000
F0010000008254800003000080201411900042505000000000000000000201602150002001PLASTISERVICIOS S DE H                            C000000000300000000000000000000000100010010000000000000000000000F0010000008254800320160215000101 00000000000000000000000000000000000000000000000000000000000000000000000000000000000000000000000000000000000000000N 00000000000NCONT   00    00000000000          00000000000000000000000000000000000000000000 000000000000000A000000000000000000000000000000000000000000000 000000000000000000000000000000000000000     00000000                                                                                                                        000000000000000000
F0010000008254800004000080201411900023658300000000000000000201602150002001PLASTISERVICIOS S DE H                            C000000000007200000000000000000000100010010000000000000000000000F0010000008254800420160215000101 00000000000000000000000000000000000000000000000000000000000000000000000000000000000000000000000000000000000000000N 00000000000NCONT   00    00000000000          00000000000000000000000000000000000000000000 000000000000000A000000000000000000000000000000000000000000000 000000000000000000000000000000000000000     00000000                                                                                                                        000000000000000000
F0010000008254800005000080201411900013552100000000000000000201602150002001PLASTISERVICIOS S DE H                            D000000000007200000000000000000000100010010000000000000000000000F0010000008254800520160215000101 00000000000000000000000000000000000000000000000000000000000000000000000000000000000000000000000000000000000000000N 00000000000NCONT   00    00000000000          00000000000000000000000000000000000000000000 000000000000000A000000000000000000000000000000000000000000000 000000000000000000000000000000000000000     00000000                                                                                                                        000000000000000000
F0010000008254900001000007213847800011050500000000000000000201602150002001ALEJANDRO MEZA ALVAREZ                            D000000001700000000000000000000000100010010000000000000000000000F0010000008254900120160215000101 00000000000000000000000000000000000000000000000000000000000000000000000000000000000000000000000000000000000000000N 00000000000NCONT   00    00000000000          00000000000000000000000000000000000000000000 000000000000000A000000000000000000000000000000000000000000000 000000000000000000000000000000000000000     00000000                                                                                                                        000000000000000000
F0010000008254900002000007213847800041450500000000000000000201602150002001ALEJANDRO MEZA ALVAREZ                            C000000001500000000000000000000000100010010000000000000000000000F0010000008254900220160215000101 00000000000000000000000000000000000000000000000000000000000000000000000000000000000000000000000000000000000000000N 00000000000NCONT   00    00000000000          00000000000000000000000000000000000000000000 000000000000000A000000000000000000000000000000000000000000000 000000000000000000000000000000000000000     00000000                                                                                                                        000000000000000000
F0010000008254900003000007213847800042505000000000000000000201602150002001ALEJANDRO MEZA ALVAREZ                            C000000000200000000000000000000000100010010000000000000000000000F0010000008254900320160215000101 00000000000000000000000000000000000000000000000000000000000000000000000000000000000000000000000000000000000000000N 00000000000NCONT   00    00000000000          00000000000000000000000000000000000000000000 000000000000000A000000000000000000000000000000000000000000000 000000000000000000000000000000000000000     00000000                                                                                                                        000000000000000000
F0010000008254900004000007213847800023658300000000000000000201602150002001ALEJANDRO MEZA ALVAREZ                            C000000000012000000000000000000000100010010000000000000000000000F0010000008254900420160215000101 00000000000000000000000000000000000000000000000000000000000000000000000000000000000000000000000000000000000000000N 00000000000NCONT   00    00000000000          00000000000000000000000000000000000000000000 000000000000000A000000000000000000000000000000000000000000000 000000000000000000000000000000000000000     00000000                                                                                                                        000000000000000000
F0010000008254900005000007213847800013552100000000000000000201602150002001ALEJANDRO MEZA ALVAREZ                            D000000000012000000000000000000000100010010000000000000000000000F0010000008254900520160215000101 00000000000000000000000000000000000000000000000000000000000000000000000000000000000000000000000000000000000000000N 00000000000NCONT   00    00000000000          00000000000000000000000000000000000000000000 000000000000000A000000000000000000000000000000000000000000000 000000000000000000000000000000000000000     00000000                                                                                                                        000000000000000000
F0010000008255000001000080201703900011050500000000000000000201602150002001MUNDIAL CHEMICAL LTDA                             D000000001110000000000000000000000100010010000000000000000000000F0010000008255000120160215000101 00000000000000000000000000000000000000000000000000000000000000000000000000000000000000000000000000000000000000000N 00000000000NCONT   00    00000000000          00000000000000000000000000000000000000000000 000000000000000A000000000000000000000000000000000000000000000 000000000000000000000000000000000000000     00000000                                                                                                                        000000000000000000
F0010000008255000002000080201703900041450500000000000000000201602150002001MUNDIAL CHEMICAL LTDA                             C000000000830000000000000000000000100010010000000000000000000000F0010000008255000220160215000101 00000000000000000000000000000000000000000000000000000000000000000000000000000000000000000000000000000000000000000N 00000000000NCONT   00    00000000000          00000000000000000000000000000000000000000000 000000000000000A000000000000000000000000000000000000000000000 000000000000000000000000000000000000000     00000000                                                                                                                        000000000000000000
F0010000008255000003000080201703900042505000000000000000000201602150002001MUNDIAL CHEMICAL LTDA                             C000000000280000000000000000000000100010010000000000000000000000F0010000008255000320160215000101 00000000000000000000000000000000000000000000000000000000000000000000000000000000000000000000000000000000000000000N 00000000000NCONT   00    00000000000          00000000000000000000000000000000000000000000 000000000000000A000000000000000000000000000000000000000000000 000000000000000000000000000000000000000     00000000                                                                                                                        000000000000000000
F0010000008255000004000080201703900023658300000000000000000201602150002001MUNDIAL CHEMICAL LTDA                             C000000000006600000000000000000000100010010000000000000000000000F0010000008255000420160215000101 00000000000000000000000000000000000000000000000000000000000000000000000000000000000000000000000000000000000000000N 00000000000NCONT   00    00000000000          00000000000000000000000000000000000000000000 000000000000000A000000000000000000000000000000000000000000000 000000000000000000000000000000000000000     00000000                                                                                                                        000000000000000000
F0010000008255000005000080201703900013552100000000000000000201602150002001MUNDIAL CHEMICAL LTDA                             D000000000006600000000000000000000100010010000000000000000000000F0010000008255000520160215000101 00000000000000000000000000000000000000000000000000000000000000000000000000000000000000000000000000000000000000000N 00000000000NCONT   00    00000000000          00000000000000000000000000000000000000000000 000000000000000A000000000000000000000000000000000000000000000 000000000000000000000000000000000000000     00000000                                                                                                                        000000000000000000
F0010000008255100001000001719393900011050500000000000000000201602150002001JAIRO BASTIDAS RAMIREZ                            D000000009000000000000000000000000100010010000000000000000000000F0010000008255100120160215000101 00000000000000000000000000000000000000000000000000000000000000000000000000000000000000000000000000000000000000000N 00000000000NCONT   00    00000000000          00000000000000000000000000000000000000000000 000000000000000A000000000000000000000000000000000000000000000 000000000000000000000000000000000000000     00000000                                                                                                                        000000000000000000
F0010000008255100002000001719393900041450500000000000000000201602150002001JAIRO BASTIDAS RAMIREZ                            C000000007200000000000000000000000100010010000000000000000000000F0010000008255100220160215000101 00000000000000000000000000000000000000000000000000000000000000000000000000000000000000000000000000000000000000000N 00000000000NCONT   00    00000000000          00000000000000000000000000000000000000000000 000000000000000A000000000000000000000000000000000000000000000 000000000000000000000000000000000000000     00000000                                                                                                                        000000000000000000
F0010000008255100003000001719393900042505000000000000000000201602150002001JAIRO BASTIDAS RAMIREZ                            C000000001800000000000000000000000100010010000000000000000000000F0010000008255100320160215000101 00000000000000000000000000000000000000000000000000000000000000000000000000000000000000000000000000000000000000000N 00000000000NCONT   00    00000000000          00000000000000000000000000000000000000000000 000000000000000A000000000000000000000000000000000000000000000 000000000000000000000000000000000000000     00000000                                                                                                                        000000000000000000
F0010000008255100004000001719393900023658300000000000000000201602150002001JAIRO BASTIDAS RAMIREZ                            C000000000057600000000000000000000100010010000000000000000000000F0010000008255100420160215000101 00000000000000000000000000000000000000000000000000000000000000000000000000000000000000000000000000000000000000000N 00000000000NCONT   00    00000000000          00000000000000000000000000000000000000000000 000000000000000A000000000000000000000000000000000000000000000 000000000000000000000000000000000000000     00000000                                                                                                                        000000000000000000
F0010000008255100005000001719393900013552100000000000000000201602150002001JAIRO BASTIDAS RAMIREZ                            D000000000057600000000000000000000100010010000000000000000000000F0010000008255100520160215000101 00000000000000000000000000000000000000000000000000000000000000000000000000000000000000000000000000000000000000000N 00000000000NCONT   00    00000000000          00000000000000000000000000000000000000000000 000000000000000A000000000000000000000000000000000000000000000 000000000000000000000000000000000000000     00000000                                                                                                                        000000000000000000
F0010000008255200001000001719393900011050500000000000000000201602150002001JAIRO BASTIDAS RAMIREZ                            D000000001400000000000000000000000100010010000000000000000000000F0010000008255200120160215000101 00000000000000000000000000000000000000000000000000000000000000000000000000000000000000000000000000000000000000000N 00000000000NCONT   00    00000000000          00000000000000000000000000000000000000000000 000000000000000A000000000000000000000000000000000000000000000 000000000000000000000000000000000000000     00000000                                                                                                                        000000000000000000
F0010000008255200002000001719393900041450500000000000000000201602150002001JAIRO BASTIDAS RAMIREZ                            C000000001200000000000000000000000100010010000000000000000000000F0010000008255200220160215000101 00000000000000000000000000000000000000000000000000000000000000000000000000000000000000000000000000000000000000000N 00000000000NCONT   00    00000000000          00000000000000000000000000000000000000000000 000000000000000A000000000000000000000000000000000000000000000 000000000000000000000000000000000000000     00000000                                                                                                                        000000000000000000
F0010000008255200003000001719393900042505000000000000000000201602150002001JAIRO BASTIDAS RAMIREZ                            C000000000200000000000000000000000100010010000000000000000000000F0010000008255200320160215000101 00000000000000000000000000000000000000000000000000000000000000000000000000000000000000000000000000000000000000000N 00000000000NCONT   00    00000000000          00000000000000000000000000000000000000000000 000000000000000A000000000000000000000000000000000000000000000 000000000000000000000000000000000000000     00000000                                                                                                                        000000000000000000
F0010000008255200004000001719393900023658300000000000000000201602150002001JAIRO BASTIDAS RAMIREZ                            C000000000009600000000000000000000100010010000000000000000000000F0010000008255200420160215000101 00000000000000000000000000000000000000000000000000000000000000000000000000000000000000000000000000000000000000000N 00000000000NCONT   00    00000000000          00000000000000000000000000000000000000000000 000000000000000A000000000000000000000000000000000000000000000 000000000000000000000000000000000000000     00000000                                                                                                                        000000000000000000
F0010000008255200005000001719393900013552100000000000000000201602150002001JAIRO BASTIDAS RAMIREZ                            D000000000009600000000000000000000100010010000000000000000000000F0010000008255200520160215000101 00000000000000000000000000000000000000000000000000000000000000000000000000000000000000000000000000000000000000000N 00000000000NCONT   00    00000000000          00000000000000000000000000000000000000000000 000000000000000A000000000000000000000000000000000000000000000 000000000000000000000000000000000000000     00000000                                                                                                                        000000000000000000
F0010000008255300001000001719393900011050500000000000000000201602150002001JAIRO BASTIDAS RAMIREZ                            D000000001400000000000000000000000100010010000000000000000000000F0010000008255300120160215000101 00000000000000000000000000000000000000000000000000000000000000000000000000000000000000000000000000000000000000000N 00000000000NCONT   00    00000000000          00000000000000000000000000000000000000000000 000000000000000A000000000000000000000000000000000000000000000 000000000000000000000000000000000000000     00000000                                                                                                                        000000000000000000
F0010000008255300002000001719393900041450500000000000000000201602150002001JAIRO BASTIDAS RAMIREZ                            C000000001100000000000000000000000100010010000000000000000000000F0010000008255300220160215000101 00000000000000000000000000000000000000000000000000000000000000000000000000000000000000000000000000000000000000000N 00000000000NCONT   00    00000000000          00000000000000000000000000000000000000000000 000000000000000A000000000000000000000000000000000000000000000 000000000000000000000000000000000000000     00000000                                                                                                                        000000000000000000
F0010000008255300003000001719393900042505000000000000000000201602150002001JAIRO BASTIDAS RAMIREZ                            C000000000300000000000000000000000100010010000000000000000000000F0010000008255300320160215000101 00000000000000000000000000000000000000000000000000000000000000000000000000000000000000000000000000000000000000000N 00000000000NCONT   00    00000000000          00000000000000000000000000000000000000000000 000000000000000A000000000000000000000000000000000000000000000 000000000000000000000000000000000000000     00000000                                                                                                                        000000000000000000
F0010000008255300004000001719393900023658300000000000000000201602150002001JAIRO BASTIDAS RAMIREZ                            C000000000008800000000000000000000100010010000000000000000000000F0010000008255300420160215000101 00000000000000000000000000000000000000000000000000000000000000000000000000000000000000000000000000000000000000000N 00000000000NCONT   00    00000000000          00000000000000000000000000000000000000000000 000000000000000A000000000000000000000000000000000000000000000 000000000000000000000000000000000000000     00000000                                                                                                                        000000000000000000
F0010000008255300005000001719393900013552100000000000000000201602150002001JAIRO BASTIDAS RAMIREZ                            D000000000008800000000000000000000100010010000000000000000000000F0010000008255300520160215000101 00000000000000000000000000000000000000000000000000000000000000000000000000000000000000000000000000000000000000000N 00000000000NCONT   00    00000000000          00000000000000000000000000000000000000000000 000000000000000A000000000000000000000000000000000000000000000 000000000000000000000000000000000000000     00000000                                                                                                                        000000000000000000
F0010000008255400001000001719393900011050500000000000000000201602150002001JAIRO BASTIDAS RAMIREZ                            D000000001300000000000000000000000100010010000000000000000000000F0010000008255400120160215000101 00000000000000000000000000000000000000000000000000000000000000000000000000000000000000000000000000000000000000000N 00000000000NCONT   00    00000000000          00000000000000000000000000000000000000000000 000000000000000A000000000000000000000000000000000000000000000 000000000000000000000000000000000000000     00000000                                                                                                                        000000000000000000
F0010000008255400002000001719393900041450500000000000000000201602150002001JAIRO BASTIDAS RAMIREZ                            C000000001200000000000000000000000100010010000000000000000000000F0010000008255400220160215000101 00000000000000000000000000000000000000000000000000000000000000000000000000000000000000000000000000000000000000000N 00000000000NCONT   00    00000000000          00000000000000000000000000000000000000000000 000000000000000A000000000000000000000000000000000000000000000 000000000000000000000000000000000000000     00000000                                                                                                                        000000000000000000
F0010000008255400003000001719393900042505000000000000000000201602150002001JAIRO BASTIDAS RAMIREZ                            C000000000100000000000000000000000100010010000000000000000000000F0010000008255400320160215000101 00000000000000000000000000000000000000000000000000000000000000000000000000000000000000000000000000000000000000000N 00000000000NCONT   00    00000000000          00000000000000000000000000000000000000000000 000000000000000A000000000000000000000000000000000000000000000 000000000000000000000000000000000000000     00000000                                                                                                                        000000000000000000
F0010000008255400004000001719393900023658300000000000000000201602150002001JAIRO BASTIDAS RAMIREZ                            C000000000009600000000000000000000100010010000000000000000000000F0010000008255400420160215000101 00000000000000000000000000000000000000000000000000000000000000000000000000000000000000000000000000000000000000000N 00000000000NCONT   00    00000000000          00000000000000000000000000000000000000000000 000000000000000A000000000000000000000000000000000000000000000 000000000000000000000000000000000000000     00000000                                                                                                                        000000000000000000
F0010000008255400005000001719393900013552100000000000000000201602150002001JAIRO BASTIDAS RAMIREZ                            D000000000009600000000000000000000100010010000000000000000000000F0010000008255400520160215000101 00000000000000000000000000000000000000000000000000000000000000000000000000000000000000000000000000000000000000000N 00000000000NCONT   00    00000000000          00000000000000000000000000000000000000000000 000000000000000A000000000000000000000000000000000000000000000 000000000000000000000000000000000000000     00000000                                                                                                                        000000000000000000
F0010000008255500001000001719393900011050500000000000000000201602150002001JAIRO BASTIDAS RAMIREZ                            D000000003100000000000000000000000100010010000000000000000000000F0010000008255500120160215000101 00000000000000000000000000000000000000000000000000000000000000000000000000000000000000000000000000000000000000000N 00000000000NCONT   00    00000000000          00000000000000000000000000000000000000000000 000000000000000A000000000000000000000000000000000000000000000 000000000000000000000000000000000000000     00000000                                                                                                                        000000000000000000
