F0010000010236100001000080200250700013050500000000000000000201708170002001ETICOL SAS                                        D000000013471000000000000000000000100010010000000000000000000000F0010000010236100120170817000101 00000000000000000000000000000000000000000000000000000000000000000000000000000000000000000000000000000000000000000N 00000000000NCONT   00    00000000000          00000000000000000000000000000000000000000000 000000000000000A000000000000000000000000000000000000000000000 000000000000000000000000000000000000000     00000000                                                                                                                        000000000000000000
F0010000010236100002000080200250700041450500000000000000000201708170002001ETICOL SAS                                        C000000012171000000000000000000000100010010000000000000000000000F0010000010236100220170817000101 00000000000000000000000000000000000000000000000000000000000000000000000000000000000000000000000000000000000000000N 00000000000NCONT   00    00000000000          00000000000000000000000000000000000000000000 000000000000000A000000000000000000000000000000000000000000000 000000000000000000000000000000000000000     00000000                                                                                                                        000000000000000000
F0010000010236100003000080200250700042505000000000000000000201708170002001ETICOL SAS                                        C000000001300000000000000000000000100010010000000000000000000000F0010000010236100320170817000101 00000000000000000000000000000000000000000000000000000000000000000000000000000000000000000000000000000000000000000N 00000000000NCONT   00    00000000000          00000000000000000000000000000000000000000000 000000000000000A000000000000000000000000000000000000000000000 000000000000000000000000000000000000000     00000000                                                                                                                        000000000000000000
F0010000010236100004000080200250700023658300000000000000000201708170002001ETICOL SAS                                        C000000000000000000000000000000000100010010000000000000000000000F0010000010236100420170817000101 00000000000000000000000000000000000000000000000000000000000000000000000000000000000000000000000000000000000000000N 00000000000NCONT   00    00000000000          00000000000000000000000000000000000000000000 000000000000000A000000000000000000000000000000000000000000000 000000000000000000000000000000000000000     00000000                                                                                                                        000000000000000000
F0010000010236100005000080200250700013552100000000000000000201708170002001ETICOL SAS                                        D000000000000000000000000000000000100010010000000000000000000000F0010000010236100520170817000101 00000000000000000000000000000000000000000000000000000000000000000000000000000000000000000000000000000000000000000N 00000000000NCONT   00    00000000000          00000000000000000000000000000000000000000000 000000000000000A000000000000000000000000000000000000000000000 000000000000000000000000000000000000000     00000000                                                                                                                        000000000000000000
F0010000010236200001000090067091400013050500000000000000000201708170002001COMERCIALIZADORA ESCOBAR ORTIZ                    D000000010300000000000000000000000100010010000000000000000000000F0010000010236200120170817000101 00000000000000000000000000000000000000000000000000000000000000000000000000000000000000000000000000000000000000000N 00000000000NCONT   00    00000000000          00000000000000000000000000000000000000000000 000000000000000A000000000000000000000000000000000000000000000 000000000000000000000000000000000000000     00000000                                                                                                                        000000000000000000
F0010000010236200002000090067091400041450500000000000000000201708170002001COMERCIALIZADORA ESCOBAR ORTIZ                    C000000004900000000000000000000000100010010000000000000000000000F0010000010236200220170817000101 00000000000000000000000000000000000000000000000000000000000000000000000000000000000000000000000000000000000000000N 00000000000NCONT   00    00000000000          00000000000000000000000000000000000000000000 000000000000000A000000000000000000000000000000000000000000000 000000000000000000000000000000000000000     00000000                                                                                                                        000000000000000000
F0010000010236200003000090067091400042505000000000000000000201708170002001COMERCIALIZADORA ESCOBAR ORTIZ                    C000000005400000000000000000000000100010010000000000000000000000F0010000010236200320170817000101 00000000000000000000000000000000000000000000000000000000000000000000000000000000000000000000000000000000000000000N 00000000000NCONT   00    00000000000          00000000000000000000000000000000000000000000 000000000000000A000000000000000000000000000000000000000000000 000000000000000000000000000000000000000     00000000                                                                                                                        000000000000000000
F0010000010236200004000090067091400023658300000000000000000201708170002001COMERCIALIZADORA ESCOBAR ORTIZ                    C000000000000000000000000000000000100010010000000000000000000000F0010000010236200420170817000101 00000000000000000000000000000000000000000000000000000000000000000000000000000000000000000000000000000000000000000N 00000000000NCONT   00    00000000000          00000000000000000000000000000000000000000000 000000000000000A000000000000000000000000000000000000000000000 000000000000000000000000000000000000000     00000000                                                                                                                        000000000000000000
F0010000010236200005000090067091400013552100000000000000000201708170002001COMERCIALIZADORA ESCOBAR ORTIZ                    D000000000000000000000000000000000100010010000000000000000000000F0010000010236200520170817000101 00000000000000000000000000000000000000000000000000000000000000000000000000000000000000000000000000000000000000000N 00000000000NCONT   00    00000000000          00000000000000000000000000000000000000000000 000000000000000A000000000000000000000000000000000000000000000 000000000000000000000000000000000000000     00000000                                                                                                                        000000000000000000
F0010000010236300001000089031248700013050500000000000000000201708170002001DISTRIBUIDORA CALIPLASTICOS LTDA                  D000000050178200000000000000000000100010010000000000000000000000F0010000010236300120170817000101 00000000000000000000000000000000000000000000000000000000000000000000000000000000000000000000000000000000000000000N 00000000000NCONT   00    00000000000          00000000000000000000000000000000000000000000 000000000000000A000000000000000000000000000000000000000000000 000000000000000000000000000000000000000     00000000                                                                                                                        000000000000000000
F0010000010236300002000089031248700041450500000000000000000201708170002001DISTRIBUIDORA CALIPLASTICOS LTDA                  C000000048178200000000000000000000100010010000000000000000000000F0010000010236300220170817000101 00000000000000000000000000000000000000000000000000000000000000000000000000000000000000000000000000000000000000000N 00000000000NCONT   00    00000000000          00000000000000000000000000000000000000000000 000000000000000A000000000000000000000000000000000000000000000 000000000000000000000000000000000000000     00000000                                                                                                                        000000000000000000
F0010000010236300003000089031248700042505000000000000000000201708170002001DISTRIBUIDORA CALIPLASTICOS LTDA                  C000000002000000000000000000000000100010010000000000000000000000F0010000010236300320170817000101 00000000000000000000000000000000000000000000000000000000000000000000000000000000000000000000000000000000000000000N 00000000000NCONT   00    00000000000          00000000000000000000000000000000000000000000 000000000000000A000000000000000000000000000000000000000000000 000000000000000000000000000000000000000     00000000                                                                                                                        000000000000000000
F0010000010236300004000089031248700023658300000000000000000201708170002001DISTRIBUIDORA CALIPLASTICOS LTDA                  C000000000000000000000000000000000100010010000000000000000000000F0010000010236300420170817000101 00000000000000000000000000000000000000000000000000000000000000000000000000000000000000000000000000000000000000000N 00000000000NCONT   00    00000000000          00000000000000000000000000000000000000000000 000000000000000A000000000000000000000000000000000000000000000 000000000000000000000000000000000000000     00000000                                                                                                                        000000000000000000
F0010000010236300005000089031248700013552100000000000000000201708170002001DISTRIBUIDORA CALIPLASTICOS LTDA                  D000000000000000000000000000000000100010010000000000000000000000F0010000010236300520170817000101 00000000000000000000000000000000000000000000000000000000000000000000000000000000000000000000000000000000000000000N 00000000000NCONT   00    00000000000          00000000000000000000000000000000000000000000 000000000000000A000000000000000000000000000000000000000000000 000000000000000000000000000000000000000     00000000                                                                                                                        000000000000000000
F0010000010236400001000089030195100013050500000000000000000201708170002001LIBRERIA NACIONAL S.A.                            D000000051900000000000000000000000100010010000000000000000000000F0010000010236400120170817000101 00000000000000000000000000000000000000000000000000000000000000000000000000000000000000000000000000000000000000000N 00000000000NCONT   00    00000000000          00000000000000000000000000000000000000000000 000000000000000A000000000000000000000000000000000000000000000 000000000000000000000000000000000000000     00000000                                                                                                                        000000000000000000
F0010000010236400002000089030195100041450500000000000000000201708170002001LIBRERIA NACIONAL S.A.                            C000000043500000000000000000000000100010010000000000000000000000F0010000010236400220170817000101 00000000000000000000000000000000000000000000000000000000000000000000000000000000000000000000000000000000000000000N 00000000000NCONT   00    00000000000          00000000000000000000000000000000000000000000 000000000000000A000000000000000000000000000000000000000000000 000000000000000000000000000000000000000     00000000                                                                                                                        000000000000000000
F0010000010236400003000089030195100042505000000000000000000201708170002001LIBRERIA NACIONAL S.A.                            C000000008400000000000000000000000100010010000000000000000000000F0010000010236400320170817000101 00000000000000000000000000000000000000000000000000000000000000000000000000000000000000000000000000000000000000000N 00000000000NCONT   00    00000000000          00000000000000000000000000000000000000000000 000000000000000A000000000000000000000000000000000000000000000 000000000000000000000000000000000000000     00000000                                                                                                                        000000000000000000
F0010000010236400004000089030195100023658300000000000000000201708170002001LIBRERIA NACIONAL S.A.                            C000000000000000000000000000000000100010010000000000000000000000F0010000010236400420170817000101 00000000000000000000000000000000000000000000000000000000000000000000000000000000000000000000000000000000000000000N 00000000000NCONT   00    00000000000          00000000000000000000000000000000000000000000 000000000000000A000000000000000000000000000000000000000000000 000000000000000000000000000000000000000     00000000                                                                                                                        000000000000000000
F0010000010236400005000089030195100013552100000000000000000201708170002001LIBRERIA NACIONAL S.A.                            D000000000000000000000000000000000100010010000000000000000000000F0010000010236400520170817000101 00000000000000000000000000000000000000000000000000000000000000000000000000000000000000000000000000000000000000000N 00000000000NCONT   00    00000000000          00000000000000000000000000000000000000000000 000000000000000A000000000000000000000000000000000000000000000 000000000000000000000000000000000000000     00000000                                                                                                                        000000000000000000
F0010000010236500001000089010952800013050500000000000000000201708170002001IND. LITOGRAF. BOSTON S.A.S.                      D000000034090000000000000000000000100010010000000000000000000000F0010000010236500120170817000101 00000000000000000000000000000000000000000000000000000000000000000000000000000000000000000000000000000000000000000N 00000000000NCONT   00    00000000000          00000000000000000000000000000000000000000000 000000000000000A000000000000000000000000000000000000000000000 000000000000000000000000000000000000000     00000000                                                                                                                        000000000000000000
F0010000010236500002000089010952800041450500000000000000000201708170002001IND. LITOGRAF. BOSTON S.A.S.                      C000000030440000000000000000000000100010010000000000000000000000F0010000010236500220170817000101 00000000000000000000000000000000000000000000000000000000000000000000000000000000000000000000000000000000000000000N 00000000000NCONT   00    00000000000          00000000000000000000000000000000000000000000 000000000000000A000000000000000000000000000000000000000000000 000000000000000000000000000000000000000     00000000                                                                                                                        000000000000000000
F0010000010236500003000089010952800042505000000000000000000201708170002001IND. LITOGRAF. BOSTON S.A.S.                      C000000003650000000000000000000000100010010000000000000000000000F0010000010236500320170817000101 00000000000000000000000000000000000000000000000000000000000000000000000000000000000000000000000000000000000000000N 00000000000NCONT   00    00000000000          00000000000000000000000000000000000000000000 000000000000000A000000000000000000000000000000000000000000000 000000000000000000000000000000000000000     00000000                                                                                                                        000000000000000000
F0010000010236500004000089010952800023658300000000000000000201708170002001IND. LITOGRAF. BOSTON S.A.S.                      C000000000000000000000000000000000100010010000000000000000000000F0010000010236500420170817000101 00000000000000000000000000000000000000000000000000000000000000000000000000000000000000000000000000000000000000000N 00000000000NCONT   00    00000000000          00000000000000000000000000000000000000000000 000000000000000A000000000000000000000000000000000000000000000 000000000000000000000000000000000000000     00000000                                                                                                                        000000000000000000
F0010000010236500005000089010952800013552100000000000000000201708170002001IND. LITOGRAF. BOSTON S.A.S.                      D000000000000000000000000000000000100010010000000000000000000000F0010000010236500520170817000101 00000000000000000000000000000000000000000000000000000000000000000000000000000000000000000000000000000000000000000N 00000000000NCONT   00    00000000000          00000000000000000000000000000000000000000000 000000000000000A000000000000000000000000000000000000000000000 000000000000000000000000000000000000000     00000000                                                                                                                        000000000000000000
F0010000010236600001000000748239700013050500000000000000000201708170002001RAFAEL NAVARRO URIBE                              D000000039743400000000000000000000100010010000000000000000000000F0010000010236600120170817000101 00000000000000000000000000000000000000000000000000000000000000000000000000000000000000000000000000000000000000000N 00000000000NCONT   00    00000000000          00000000000000000000000000000000000000000000 000000000000000A000000000000000000000000000000000000000000000 000000000000000000000000000000000000000     00000000                                                                                                                        000000000000000000
F0010000010236600002000000748239700041450500000000000000000201708170002001RAFAEL NAVARRO URIBE                              C000000026610000000000000000000000100010010000000000000000000000F0010000010236600220170817000101 00000000000000000000000000000000000000000000000000000000000000000000000000000000000000000000000000000000000000000N 00000000000NCONT   00    00000000000          00000000000000000000000000000000000000000000 000000000000000A000000000000000000000000000000000000000000000 000000000000000000000000000000000000000     00000000                                                                                                                        000000000000000000
F0010000010236600003000000748239700042505000000000000000000201708170002001RAFAEL NAVARRO URIBE                              C000000013133400000000000000000000100010010000000000000000000000F0010000010236600320170817000101 00000000000000000000000000000000000000000000000000000000000000000000000000000000000000000000000000000000000000000N 00000000000NCONT   00    00000000000          00000000000000000000000000000000000000000000 000000000000000A000000000000000000000000000000000000000000000 000000000000000000000000000000000000000     00000000                                                                                                                        000000000000000000
F0010000010236600004000000748239700023658300000000000000000201708170002001RAFAEL NAVARRO URIBE                              C000000000000000000000000000000000100010010000000000000000000000F0010000010236600420170817000101 00000000000000000000000000000000000000000000000000000000000000000000000000000000000000000000000000000000000000000N 00000000000NCONT   00    00000000000          00000000000000000000000000000000000000000000 000000000000000A000000000000000000000000000000000000000000000 000000000000000000000000000000000000000     00000000                                                                                                                        000000000000000000
F0010000010236600005000000748239700013552100000000000000000201708170002001RAFAEL NAVARRO URIBE                              D000000000000000000000000000000000100010010000000000000000000000F0010000010236600520170817000101 00000000000000000000000000000000000000000000000000000000000000000000000000000000000000000000000000000000000000000N 00000000000NCONT   00    00000000000          00000000000000000000000000000000000000000000 000000000000000A000000000000000000000000000000000000000000000 000000000000000000000000000000000000000     00000000                                                                                                                        000000000000000000
F0010000010236700001000080201127600013050500000000000000000201708170002001ELECTRICOS DEL RUIZ S.A.S.                        D000000037683000000000000000000000100010010000000000000000000000F0010000010236700120170817000101 00000000000000000000000000000000000000000000000000000000000000000000000000000000000000000000000000000000000000000N 00000000000NCONT   00    00000000000          00000000000000000000000000000000000000000000 000000000000000A000000000000000000000000000000000000000000000 000000000000000000000000000000000000000     00000000                                                                                                                        000000000000000000
F0010000010236700002000080201127600041450500000000000000000201708170002001ELECTRICOS DEL RUIZ S.A.S.                        C000000031680000000000000000000000100010010000000000000000000000F0010000010236700220170817000101 00000000000000000000000000000000000000000000000000000000000000000000000000000000000000000000000000000000000000000N 00000000000NCONT   00    00000000000          00000000000000000000000000000000000000000000 000000000000000A000000000000000000000000000000000000000000000 000000000000000000000000000000000000000     00000000                                                                                                                        000000000000000000
F0010000010236700003000080201127600042505000000000000000000201708170002001ELECTRICOS DEL RUIZ S.A.S.                        C000000006003000000000000000000000100010010000000000000000000000F0010000010236700320170817000101 00000000000000000000000000000000000000000000000000000000000000000000000000000000000000000000000000000000000000000N 00000000000NCONT   00    00000000000          00000000000000000000000000000000000000000000 000000000000000A000000000000000000000000000000000000000000000 000000000000000000000000000000000000000     00000000                                                                                                                        000000000000000000
F0010000010236700004000080201127600023658300000000000000000201708170002001ELECTRICOS DEL RUIZ S.A.S.                        C000000000000000000000000000000000100010010000000000000000000000F0010000010236700420170817000101 00000000000000000000000000000000000000000000000000000000000000000000000000000000000000000000000000000000000000000N 00000000000NCONT   00    00000000000          00000000000000000000000000000000000000000000 000000000000000A000000000000000000000000000000000000000000000 000000000000000000000000000000000000000     00000000                                                                                                                        000000000000000000
F0010000010236700005000080201127600013552100000000000000000201708170002001ELECTRICOS DEL RUIZ S.A.S.                        D000000000000000000000000000000000100010010000000000000000000000F0010000010236700520170817000101 00000000000000000000000000000000000000000000000000000000000000000000000000000000000000000000000000000000000000000N 00000000000NCONT   00    00000000000          00000000000000000000000000000000000000000000 000000000000000A000000000000000000000000000000000000000000000 000000000000000000000000000000000000000     00000000                                                                                                                        000000000000000000
F0010000010236800001000080200069100013050500000000000000000201708170002001PEGANTES Y PINTURAS ATLAS LTDA                    D000000012590000000000000000000000100010010000000000000000000000F0010000010236800120170817000101 00000000000000000000000000000000000000000000000000000000000000000000000000000000000000000000000000000000000000000N 00000000000NCONT   00    00000000000          00000000000000000000000000000000000000000000 000000000000000A000000000000000000000000000000000000000000000 000000000000000000000000000000000000000     00000000                                                                                                                        000000000000000000
F0010000010236800002000080200069100041450500000000000000000201708170002001PEGANTES Y PINTURAS ATLAS LTDA                    C000000010890000000000000000000000100010010000000000000000000000F0010000010236800220170817000101 00000000000000000000000000000000000000000000000000000000000000000000000000000000000000000000000000000000000000000N 00000000000NCONT   00    00000000000          00000000000000000000000000000000000000000000 000000000000000A000000000000000000000000000000000000000000000 000000000000000000000000000000000000000     00000000                                                                                                                        000000000000000000
F0010000010236800003000080200069100042505000000000000000000201708170002001PEGANTES Y PINTURAS ATLAS LTDA                    C000000001700000000000000000000000100010010000000000000000000000F0010000010236800320170817000101 00000000000000000000000000000000000000000000000000000000000000000000000000000000000000000000000000000000000000000N 00000000000NCONT   00    00000000000          00000000000000000000000000000000000000000000 000000000000000A000000000000000000000000000000000000000000000 000000000000000000000000000000000000000     00000000                                                                                                                        000000000000000000
F0010000010236800004000080200069100023658300000000000000000201708170002001PEGANTES Y PINTURAS ATLAS LTDA                    C000000000000000000000000000000000100010010000000000000000000000F0010000010236800420170817000101 00000000000000000000000000000000000000000000000000000000000000000000000000000000000000000000000000000000000000000N 00000000000NCONT   00    00000000000          00000000000000000000000000000000000000000000 000000000000000A000000000000000000000000000000000000000000000 000000000000000000000000000000000000000     00000000                                                                                                                        000000000000000000
F0010000010236800005000080200069100013552100000000000000000201708170002001PEGANTES Y PINTURAS ATLAS LTDA                    D000000000000000000000000000000000100010010000000000000000000000F0010000010236800520170817000101 00000000000000000000000000000000000000000000000000000000000000000000000000000000000000000000000000000000000000000N 00000000000NCONT   00    00000000000          00000000000000000000000000000000000000000000 000000000000000A000000000000000000000000000000000000000000000 000000000000000000000000000000000000000     00000000                                                                                                                        000000000000000000
F0010000010236900001000090009800500013050500000000000000000201708170002001GLORIANT CHEMICHALS DE COLOMBIA LTDA              D000000029167000000000000000000000100010010000000000000000000000F0010000010236900120170817000101 00000000000000000000000000000000000000000000000000000000000000000000000000000000000000000000000000000000000000000N 00000000000NCONT   00    00000000000          00000000000000000000000000000000000000000000 000000000000000A000000000000000000000000000000000000000000000 000000000000000000000000000000000000000     00000000                                                                                                                        000000000000000000
F0010000010236900002000090009800500041450500000000000000000201708170002001GLORIANT CHEMICHALS DE COLOMBIA LTDA              C000000024320000000000000000000000100010010000000000000000000000F0010000010236900220170817000101 00000000000000000000000000000000000000000000000000000000000000000000000000000000000000000000000000000000000000000N 00000000000NCONT   00    00000000000          00000000000000000000000000000000000000000000 000000000000000A000000000000000000000000000000000000000000000 000000000000000000000000000000000000000     00000000                                                                                                                        000000000000000000
F0010000010236900003000090009800500042505000000000000000000201708170002001GLORIANT CHEMICHALS DE COLOMBIA LTDA              C000000004847000000000000000000000100010010000000000000000000000F0010000010236900320170817000101 00000000000000000000000000000000000000000000000000000000000000000000000000000000000000000000000000000000000000000N 00000000000NCONT   00    00000000000          00000000000000000000000000000000000000000000 000000000000000A000000000000000000000000000000000000000000000 000000000000000000000000000000000000000     00000000                                                                                                                        000000000000000000
F0010000010236900004000090009800500023658300000000000000000201708170002001GLORIANT CHEMICHALS DE COLOMBIA LTDA              C000000000000000000000000000000000100010010000000000000000000000F0010000010236900420170817000101 00000000000000000000000000000000000000000000000000000000000000000000000000000000000000000000000000000000000000000N 00000000000NCONT   00    00000000000          00000000000000000000000000000000000000000000 000000000000000A000000000000000000000000000000000000000000000 000000000000000000000000000000000000000     00000000                                                                                                                        000000000000000000
F0010000010236900005000090009800500013552100000000000000000201708170002001GLORIANT CHEMICHALS DE COLOMBIA LTDA              D000000000000000000000000000000000100010010000000000000000000000F0010000010236900520170817000101 00000000000000000000000000000000000000000000000000000000000000000000000000000000000000000000000000000000000000000N 00000000000NCONT   00    00000000000          00000000000000000000000000000000000000000000 000000000000000A000000000000000000000000000000000000000000000 000000000000000000000000000000000000000     00000000                                                                                                                        000000000000000000
F0010000010237000001000090060531100013050500000000000000000201708170002001RECUBRIMIENTOS ESENCIALES SAS                     D000000035280000000000000000000000100010010000000000000000000000F0010000010237000120170817000101 00000000000000000000000000000000000000000000000000000000000000000000000000000000000000000000000000000000000000000N 00000000000NCONT   00    00000000000          00000000000000000000000000000000000000000000 000000000000000A000000000000000000000000000000000000000000000 000000000000000000000000000000000000000     00000000                                                                                                                        000000000000000000
F0010000010237000002000090060531100041450500000000000000000201708170002001RECUBRIMIENTOS ESENCIALES SAS                     C000000033580000000000000000000000100010010000000000000000000000F0010000010237000220170817000101 00000000000000000000000000000000000000000000000000000000000000000000000000000000000000000000000000000000000000000N 00000000000NCONT   00    00000000000          00000000000000000000000000000000000000000000 000000000000000A000000000000000000000000000000000000000000000 000000000000000000000000000000000000000     00000000                                                                                                                        000000000000000000
F0010000010237000003000090060531100042505000000000000000000201708170002001RECUBRIMIENTOS ESENCIALES SAS                     C000000001700000000000000000000000100010010000000000000000000000F0010000010237000320170817000101 00000000000000000000000000000000000000000000000000000000000000000000000000000000000000000000000000000000000000000N 00000000000NCONT   00    00000000000          00000000000000000000000000000000000000000000 000000000000000A000000000000000000000000000000000000000000000 000000000000000000000000000000000000000     00000000                                                                                                                        000000000000000000
F0010000010237000004000090060531100023658300000000000000000201708170002001RECUBRIMIENTOS ESENCIALES SAS                     C000000000000000000000000000000000100010010000000000000000000000F0010000010237000420170817000101 00000000000000000000000000000000000000000000000000000000000000000000000000000000000000000000000000000000000000000N 00000000000NCONT   00    00000000000          00000000000000000000000000000000000000000000 000000000000000A000000000000000000000000000000000000000000000 000000000000000000000000000000000000000     00000000                                                                                                                        000000000000000000
F0010000010237000005000090060531100013552100000000000000000201708170002001RECUBRIMIENTOS ESENCIALES SAS                     D000000000000000000000000000000000100010010000000000000000000000F0010000010237000520170817000101 00000000000000000000000000000000000000000000000000000000000000000000000000000000000000000000000000000000000000000N 00000000000NCONT   00    00000000000          00000000000000000000000000000000000000000000 000000000000000A000000000000000000000000000000000000000000000 000000000000000000000000000000000000000     00000000                                                                                                                        000000000000000000
F0010000010237100001000086000490200013050500000000000000000201708170002001PROV. DE PAPELES ANDINA S.A.                      D000000016120500000000000000000000100010010000000000000000000000F0010000010237100120170817000101 00000000000000000000000000000000000000000000000000000000000000000000000000000000000000000000000000000000000000000N 00000000000NCONT   00    00000000000          00000000000000000000000000000000000000000000 000000000000000A000000000000000000000000000000000000000000000 000000000000000000000000000000000000000     00000000                                                                                                                        000000000000000000
F0010000010237100002000086000490200041450500000000000000000201708170002001PROV. DE PAPELES ANDINA S.A.                      C000000014803000000000000000000000100010010000000000000000000000F0010000010237100220170817000101 00000000000000000000000000000000000000000000000000000000000000000000000000000000000000000000000000000000000000000N 00000000000NCONT   00    00000000000          00000000000000000000000000000000000000000000 000000000000000A000000000000000000000000000000000000000000000 000000000000000000000000000000000000000     00000000                                                                                                                        000000000000000000
F0010000010237100003000086000490200042505000000000000000000201708170002001PROV. DE PAPELES ANDINA S.A.                      C000000001317500000000000000000000100010010000000000000000000000F0010000010237100320170817000101 00000000000000000000000000000000000000000000000000000000000000000000000000000000000000000000000000000000000000000N 00000000000NCONT   00    00000000000          00000000000000000000000000000000000000000000 000000000000000A000000000000000000000000000000000000000000000 000000000000000000000000000000000000000     00000000                                                                                                                        000000000000000000
F0010000010237100004000086000490200023658300000000000000000201708170002001PROV. DE PAPELES ANDINA S.A.                      C000000000000000000000000000000000100010010000000000000000000000F0010000010237100420170817000101 00000000000000000000000000000000000000000000000000000000000000000000000000000000000000000000000000000000000000000N 00000000000NCONT   00    00000000000          00000000000000000000000000000000000000000000 000000000000000A000000000000000000000000000000000000000000000 000000000000000000000000000000000000000     00000000                                                                                                                        000000000000000000
F0010000010237100005000086000490200013552100000000000000000201708170002001PROV. DE PAPELES ANDINA S.A.                      D000000000000000000000000000000000100010010000000000000000000000F0010000010237100520170817000101 00000000000000000000000000000000000000000000000000000000000000000000000000000000000000000000000000000000000000000N 00000000000NCONT   00    00000000000          00000000000000000000000000000000000000000000 000000000000000A000000000000000000000000000000000000000000000 000000000000000000000000000000000000000     00000000                                                                                                                        000000000000000000
F0010000010237200001000089080176300013050500000000000000000201708170002001SEGAR S.A.                                        D000000115198600000000000000000000100010010000000000000000000000F0010000010237200120170817000101 00000000000000000000000000000000000000000000000000000000000000000000000000000000000000000000000000000000000000000N 00000000000NCONT   00    00000000000          00000000000000000000000000000000000000000000 000000000000000A000000000000000000000000000000000000000000000 000000000000000000000000000000000000000     00000000                                                                                                                        000000000000000000
F0010000010237200002000089080176300041450500000000000000000201708170002001SEGAR S.A.                                        C000000097246100000000000000000000100010010000000000000000000000F0010000010237200220170817000101 00000000000000000000000000000000000000000000000000000000000000000000000000000000000000000000000000000000000000000N 00000000000NCONT   00    00000000000          00000000000000000000000000000000000000000000 000000000000000A000000000000000000000000000000000000000000000 000000000000000000000000000000000000000     00000000                                                                                                                        000000000000000000
F0010000010237200003000089080176300042505000000000000000000201708170002001SEGAR S.A.                                        C000000017952500000000000000000000100010010000000000000000000000F0010000010237200320170817000101 00000000000000000000000000000000000000000000000000000000000000000000000000000000000000000000000000000000000000000N 00000000000NCONT   00    00000000000          00000000000000000000000000000000000000000000 000000000000000A000000000000000000000000000000000000000000000 000000000000000000000000000000000000000     00000000                                                                                                                        000000000000000000
F0010000010237200004000089080176300023658300000000000000000201708170002001SEGAR S.A.                                        C000000000000000000000000000000000100010010000000000000000000000F0010000010237200420170817000101 00000000000000000000000000000000000000000000000000000000000000000000000000000000000000000000000000000000000000000N 00000000000NCONT   00    00000000000          00000000000000000000000000000000000000000000 000000000000000A000000000000000000000000000000000000000000000 000000000000000000000000000000000000000     00000000                                                                                                                        000000000000000000
F0010000010237200005000089080176300013552100000000000000000201708170002001SEGAR S.A.                                        D000000000000000000000000000000000100010010000000000000000000000F0010000010237200520170817000101 00000000000000000000000000000000000000000000000000000000000000000000000000000000000000000000000000000000000000000N 00000000000NCONT   00    00000000000          00000000000000000000000000000000000000000000 000000000000000A000000000000000000000000000000000000000000000 000000000000000000000000000000000000000     00000000                                                                                                                        000000000000000000
F0010000010237300001000089080176300013050500000000000000000201708170002001SEGAR S.A.                                        D000000060859300000000000000000000100010010000000000000000000000F0010000010237300120170817000101 00000000000000000000000000000000000000000000000000000000000000000000000000000000000000000000000000000000000000000N 00000000000NCONT   00    00000000000          00000000000000000000000000000000000000000000 000000000000000A000000000000000000000000000000000000000000000 000000000000000000000000000000000000000     00000000                                                                                                                        000000000000000000
F0010000010237300002000089080176300041450500000000000000000201708170002001SEGAR S.A.                                        C000000048301100000000000000000000100010010000000000000000000000F0010000010237300220170817000101 00000000000000000000000000000000000000000000000000000000000000000000000000000000000000000000000000000000000000000N 00000000000NCONT   00    00000000000          00000000000000000000000000000000000000000000 000000000000000A000000000000000000000000000000000000000000000 000000000000000000000000000000000000000     00000000                                                                                                                        000000000000000000
F0010000010237300003000089080176300042505000000000000000000201708170002001SEGAR S.A.                                        C000000012558200000000000000000000100010010000000000000000000000F0010000010237300320170817000101 00000000000000000000000000000000000000000000000000000000000000000000000000000000000000000000000000000000000000000N 00000000000NCONT   00    00000000000          00000000000000000000000000000000000000000000 000000000000000A000000000000000000000000000000000000000000000 000000000000000000000000000000000000000     00000000                                                                                                                        000000000000000000
F0010000010237300004000089080176300023658300000000000000000201708170002001SEGAR S.A.                                        C000000000000000000000000000000000100010010000000000000000000000F0010000010237300420170817000101 00000000000000000000000000000000000000000000000000000000000000000000000000000000000000000000000000000000000000000N 00000000000NCONT   00    00000000000          00000000000000000000000000000000000000000000 000000000000000A000000000000000000000000000000000000000000000 000000000000000000000000000000000000000     00000000                                                                                                                        000000000000000000
F0010000010237300005000089080176300013552100000000000000000201708170002001SEGAR S.A.                                        D000000000000000000000000000000000100010010000000000000000000000F0010000010237300520170817000101 00000000000000000000000000000000000000000000000000000000000000000000000000000000000000000000000000000000000000000N 00000000000NCONT   00    00000000000          00000000000000000000000000000000000000000000 000000000000000A000000000000000000000000000000000000000000000 000000000000000000000000000000000000000     00000000                                                                                                                        000000000000000000
F0010000010237400001000089080176300013050500000000000000000201708170002001SEGAR S.A.                                        D000000013773700000000000000000000100010010000000000000000000000F0010000010237400120170817000101 00000000000000000000000000000000000000000000000000000000000000000000000000000000000000000000000000000000000000000N 00000000000NCONT   00    00000000000          00000000000000000000000000000000000000000000 000000000000000A000000000000000000000000000000000000000000000 000000000000000000000000000000000000000     00000000                                                                                                                        000000000000000000
F0010000010237400002000089080176300041450500000000000000000201708170002001SEGAR S.A.                                        C000000010089600000000000000000000100010010000000000000000000000F0010000010237400220170817000101 00000000000000000000000000000000000000000000000000000000000000000000000000000000000000000000000000000000000000000N 00000000000NCONT   00    00000000000          00000000000000000000000000000000000000000000 000000000000000A000000000000000000000000000000000000000000000 000000000000000000000000000000000000000     00000000                                                                                                                        000000000000000000
F0010000010237400003000089080176300042505000000000000000000201708170002001SEGAR S.A.                                        C000000003684100000000000000000000100010010000000000000000000000F0010000010237400320170817000101 00000000000000000000000000000000000000000000000000000000000000000000000000000000000000000000000000000000000000000N 00000000000NCONT   00    00000000000          00000000000000000000000000000000000000000000 000000000000000A000000000000000000000000000000000000000000000 000000000000000000000000000000000000000     00000000                                                                                                                        000000000000000000
F0010000010237400004000089080176300023658300000000000000000201708170002001SEGAR S.A.                                        C000000000000000000000000000000000100010010000000000000000000000F0010000010237400420170817000101 00000000000000000000000000000000000000000000000000000000000000000000000000000000000000000000000000000000000000000N 00000000000NCONT   00    00000000000          00000000000000000000000000000000000000000000 000000000000000A000000000000000000000000000000000000000000000 000000000000000000000000000000000000000     00000000                                                                                                                        000000000000000000
F0010000010237400005000089080176300013552100000000000000000201708170002001SEGAR S.A.                                        D000000000000000000000000000000000100010010000000000000000000000F0010000010237400520170817000101 00000000000000000000000000000000000000000000000000000000000000000000000000000000000000000000000000000000000000000N 00000000000NCONT   00    00000000000          00000000000000000000000000000000000000000000 000000000000000A000000000000000000000000000000000000000000000 000000000000000000000000000000000000000     00000000                                                                                                                        000000000000000000
