F0010000008172900001000089031248700011050500000000000000000201601270002001DISTRIBUIDORA CALIPLASTICOS LTDA                  D000000001440000000000000000000000100010010000000000000000000000F0010000008172900120160127000101 00000000000000000000000000000000000000000000000000000000000000000000000000000000000000000000000000000000000000000N 00000000000NCONT   00    00000000000          00000000000000000000000000000000000000000000 000000000000000A000000000000000000000000000000000000000000000 000000000000000000000000000000000000000     00000000                                                                                                                        000000000000000000
F0010000008172900002000089031248700041450500000000000000000201601270002001DISTRIBUIDORA CALIPLASTICOS LTDA                  C000000001400000000000000000000000100010010000000000000000000000F0010000008172900220160127000101 00000000000000000000000000000000000000000000000000000000000000000000000000000000000000000000000000000000000000000N 00000000000NCONT   00    00000000000          00000000000000000000000000000000000000000000 000000000000000A000000000000000000000000000000000000000000000 000000000000000000000000000000000000000     00000000                                                                                                                        000000000000000000
F0010000008172900003000089031248700042505000000000000000000201601270002001DISTRIBUIDORA CALIPLASTICOS LTDA                  C000000000040000000000000000000000100010010000000000000000000000F0010000008172900320160127000101 00000000000000000000000000000000000000000000000000000000000000000000000000000000000000000000000000000000000000000N 00000000000NCONT   00    00000000000          00000000000000000000000000000000000000000000 000000000000000A000000000000000000000000000000000000000000000 000000000000000000000000000000000000000     00000000                                                                                                                        000000000000000000
F0010000008172900004000089031248700023658300000000000000000201601270002001DISTRIBUIDORA CALIPLASTICOS LTDA                  C000000000011200000000000000000000100010010000000000000000000000F0010000008172900420160127000101 00000000000000000000000000000000000000000000000000000000000000000000000000000000000000000000000000000000000000000N 00000000000NCONT   00    00000000000          00000000000000000000000000000000000000000000 000000000000000A000000000000000000000000000000000000000000000 000000000000000000000000000000000000000     00000000                                                                                                                        000000000000000000
F0010000008172900005000089031248700013552100000000000000000201601270002001DISTRIBUIDORA CALIPLASTICOS LTDA                  D000000000011200000000000000000000100010010000000000000000000000F0010000008172900520160127000101 00000000000000000000000000000000000000000000000000000000000000000000000000000000000000000000000000000000000000000N 00000000000NCONT   00    00000000000          00000000000000000000000000000000000000000000 000000000000000A000000000000000000000000000000000000000000000 000000000000000000000000000000000000000     00000000                                                                                                                        000000000000000000
F0010000008173000001000007719033000011050500000000000000000201601270002001ALMACEN SALPICON                                  D000000001300000000000000000000000100010010000000000000000000000F0010000008173000120160127000101 00000000000000000000000000000000000000000000000000000000000000000000000000000000000000000000000000000000000000000N 00000000000NCONT   00    00000000000          00000000000000000000000000000000000000000000 000000000000000A000000000000000000000000000000000000000000000 000000000000000000000000000000000000000     00000000                                                                                                                        000000000000000000
F0010000008173000002000007719033000041450500000000000000000201601270002001ALMACEN SALPICON                                  C000000001200000000000000000000000100010010000000000000000000000F0010000008173000220160127000101 00000000000000000000000000000000000000000000000000000000000000000000000000000000000000000000000000000000000000000N 00000000000NCONT   00    00000000000          00000000000000000000000000000000000000000000 000000000000000A000000000000000000000000000000000000000000000 000000000000000000000000000000000000000     00000000                                                                                                                        000000000000000000
F0010000008173000003000007719033000042505000000000000000000201601270002001ALMACEN SALPICON                                  C000000000100000000000000000000000100010010000000000000000000000F0010000008173000320160127000101 00000000000000000000000000000000000000000000000000000000000000000000000000000000000000000000000000000000000000000N 00000000000NCONT   00    00000000000          00000000000000000000000000000000000000000000 000000000000000A000000000000000000000000000000000000000000000 000000000000000000000000000000000000000     00000000                                                                                                                        000000000000000000
F0010000008173000004000007719033000023658300000000000000000201601270002001ALMACEN SALPICON                                  C000000000009600000000000000000000100010010000000000000000000000F0010000008173000420160127000101 00000000000000000000000000000000000000000000000000000000000000000000000000000000000000000000000000000000000000000N 00000000000NCONT   00    00000000000          00000000000000000000000000000000000000000000 000000000000000A000000000000000000000000000000000000000000000 000000000000000000000000000000000000000     00000000                                                                                                                        000000000000000000
F0010000008173000005000007719033000013552100000000000000000201601270002001ALMACEN SALPICON                                  D000000000009600000000000000000000100010010000000000000000000000F0010000008173000520160127000101 00000000000000000000000000000000000000000000000000000000000000000000000000000000000000000000000000000000000000000N 00000000000NCONT   00    00000000000          00000000000000000000000000000000000000000000 000000000000000A000000000000000000000000000000000000000000000 000000000000000000000000000000000000000     00000000                                                                                                                        000000000000000000
F0010000008173100001000090073498600011050500000000000000000201601270002001VALTAC S.A.S                                      D000000001000000000000000000000000100010010000000000000000000000F0010000008173100120160127000101 00000000000000000000000000000000000000000000000000000000000000000000000000000000000000000000000000000000000000000N 00000000000NCONT   00    00000000000          00000000000000000000000000000000000000000000 000000000000000A000000000000000000000000000000000000000000000 000000000000000000000000000000000000000     00000000                                                                                                                        000000000000000000
F0010000008173100002000090073498600041450500000000000000000201601270002001VALTAC S.A.S                                      C000000000900000000000000000000000100010010000000000000000000000F0010000008173100220160127000101 00000000000000000000000000000000000000000000000000000000000000000000000000000000000000000000000000000000000000000N 00000000000NCONT   00    00000000000          00000000000000000000000000000000000000000000 000000000000000A000000000000000000000000000000000000000000000 000000000000000000000000000000000000000     00000000                                                                                                                        000000000000000000
F0010000008173100003000090073498600042505000000000000000000201601270002001VALTAC S.A.S                                      C000000000100000000000000000000000100010010000000000000000000000F0010000008173100320160127000101 00000000000000000000000000000000000000000000000000000000000000000000000000000000000000000000000000000000000000000N 00000000000NCONT   00    00000000000          00000000000000000000000000000000000000000000 000000000000000A000000000000000000000000000000000000000000000 000000000000000000000000000000000000000     00000000                                                                                                                        000000000000000000
F0010000008173100004000090073498600023658300000000000000000201601270002001VALTAC S.A.S                                      C000000000007200000000000000000000100010010000000000000000000000F0010000008173100420160127000101 00000000000000000000000000000000000000000000000000000000000000000000000000000000000000000000000000000000000000000N 00000000000NCONT   00    00000000000          00000000000000000000000000000000000000000000 000000000000000A000000000000000000000000000000000000000000000 000000000000000000000000000000000000000     00000000                                                                                                                        000000000000000000
F0010000008173100005000090073498600013552100000000000000000201601270002001VALTAC S.A.S                                      D000000000007200000000000000000000100010010000000000000000000000F0010000008173100520160127000101 00000000000000000000000000000000000000000000000000000000000000000000000000000000000000000000000000000000000000000N 00000000000NCONT   00    00000000000          00000000000000000000000000000000000000000000 000000000000000A000000000000000000000000000000000000000000000 000000000000000000000000000000000000000     00000000                                                                                                                        000000000000000000
F0010000008173200001000090013859100011050500000000000000000201601270002001ALUMARKET BARRANQUILLA S.A.S.                     D000000004000000000000000000000000100010010000000000000000000000F0010000008173200120160127000101 00000000000000000000000000000000000000000000000000000000000000000000000000000000000000000000000000000000000000000N 00000000000NCONT   00    00000000000          00000000000000000000000000000000000000000000 000000000000000A000000000000000000000000000000000000000000000 000000000000000000000000000000000000000     00000000                                                                                                                        000000000000000000
F0010000008173200002000090013859100041450500000000000000000201601270002001ALUMARKET BARRANQUILLA S.A.S.                     C000000003500000000000000000000000100010010000000000000000000000F0010000008173200220160127000101 00000000000000000000000000000000000000000000000000000000000000000000000000000000000000000000000000000000000000000N 00000000000NCONT   00    00000000000          00000000000000000000000000000000000000000000 000000000000000A000000000000000000000000000000000000000000000 000000000000000000000000000000000000000     00000000                                                                                                                        000000000000000000
F0010000008173200003000090013859100042505000000000000000000201601270002001ALUMARKET BARRANQUILLA S.A.S.                     C000000000500000000000000000000000100010010000000000000000000000F0010000008173200320160127000101 00000000000000000000000000000000000000000000000000000000000000000000000000000000000000000000000000000000000000000N 00000000000NCONT   00    00000000000          00000000000000000000000000000000000000000000 000000000000000A000000000000000000000000000000000000000000000 000000000000000000000000000000000000000     00000000                                                                                                                        000000000000000000
F0010000008173200004000090013859100023658300000000000000000201601270002001ALUMARKET BARRANQUILLA S.A.S.                     C000000000028000000000000000000000100010010000000000000000000000F0010000008173200420160127000101 00000000000000000000000000000000000000000000000000000000000000000000000000000000000000000000000000000000000000000N 00000000000NCONT   00    00000000000          00000000000000000000000000000000000000000000 000000000000000A000000000000000000000000000000000000000000000 000000000000000000000000000000000000000     00000000                                                                                                                        000000000000000000
F0010000008173200005000090013859100013552100000000000000000201601270002001ALUMARKET BARRANQUILLA S.A.S.                     D000000000028000000000000000000000100010010000000000000000000000F0010000008173200520160127000101 00000000000000000000000000000000000000000000000000000000000000000000000000000000000000000000000000000000000000000N 00000000000NCONT   00    00000000000          00000000000000000000000000000000000000000000 000000000000000A000000000000000000000000000000000000000000000 000000000000000000000000000000000000000     00000000                                                                                                                        000000000000000000
F0010000008173300001000003265780700011050500000000000000000201601270002001ZUNILDA GUERRERO                                  D000000003500000000000000000000000100010010000000000000000000000F0010000008173300120160127000101 00000000000000000000000000000000000000000000000000000000000000000000000000000000000000000000000000000000000000000N 00000000000NCONT   00    00000000000          00000000000000000000000000000000000000000000 000000000000000A000000000000000000000000000000000000000000000 000000000000000000000000000000000000000     00000000                                                                                                                        000000000000000000
F0010000008173300002000003265780700041450500000000000000000201601270002001ZUNILDA GUERRERO                                  C000000003000000000000000000000000100010010000000000000000000000F0010000008173300220160127000101 00000000000000000000000000000000000000000000000000000000000000000000000000000000000000000000000000000000000000000N 00000000000NCONT   00    00000000000          00000000000000000000000000000000000000000000 000000000000000A000000000000000000000000000000000000000000000 000000000000000000000000000000000000000     00000000                                                                                                                        000000000000000000
F0010000008173300003000003265780700042505000000000000000000201601270002001ZUNILDA GUERRERO                                  C000000000500000000000000000000000100010010000000000000000000000F0010000008173300320160127000101 00000000000000000000000000000000000000000000000000000000000000000000000000000000000000000000000000000000000000000N 00000000000NCONT   00    00000000000          00000000000000000000000000000000000000000000 000000000000000A000000000000000000000000000000000000000000000 000000000000000000000000000000000000000     00000000                                                                                                                        000000000000000000
F0010000008173300004000003265780700023658300000000000000000201601270002001ZUNILDA GUERRERO                                  C000000000024000000000000000000000100010010000000000000000000000F0010000008173300420160127000101 00000000000000000000000000000000000000000000000000000000000000000000000000000000000000000000000000000000000000000N 00000000000NCONT   00    00000000000          00000000000000000000000000000000000000000000 000000000000000A000000000000000000000000000000000000000000000 000000000000000000000000000000000000000     00000000                                                                                                                        000000000000000000
F0010000008173300005000003265780700013552100000000000000000201601270002001ZUNILDA GUERRERO                                  D000000000024000000000000000000000100010010000000000000000000000F0010000008173300520160127000101 00000000000000000000000000000000000000000000000000000000000000000000000000000000000000000000000000000000000000000N 00000000000NCONT   00    00000000000          00000000000000000000000000000000000000000000 000000000000000A000000000000000000000000000000000000000000000 000000000000000000000000000000000000000     00000000                                                                                                                        000000000000000000
F0010000008173400001000090085194100011050500000000000000000201601270002001LA 70 CONSTRUCCIONES SAS                          D000000002650000000000000000000000100010010000000000000000000000F0010000008173400120160127000101 00000000000000000000000000000000000000000000000000000000000000000000000000000000000000000000000000000000000000000N 00000000000NCONT   00    00000000000          00000000000000000000000000000000000000000000 000000000000000A000000000000000000000000000000000000000000000 000000000000000000000000000000000000000     00000000                                                                                                                        000000000000000000
F0010000008173400002000090085194100041450500000000000000000201601270002001LA 70 CONSTRUCCIONES SAS                          C000000002250000000000000000000000100010010000000000000000000000F0010000008173400220160127000101 00000000000000000000000000000000000000000000000000000000000000000000000000000000000000000000000000000000000000000N 00000000000NCONT   00    00000000000          00000000000000000000000000000000000000000000 000000000000000A000000000000000000000000000000000000000000000 000000000000000000000000000000000000000     00000000                                                                                                                        000000000000000000
F0010000008173400003000090085194100042505000000000000000000201601270002001LA 70 CONSTRUCCIONES SAS                          C000000000400000000000000000000000100010010000000000000000000000F0010000008173400320160127000101 00000000000000000000000000000000000000000000000000000000000000000000000000000000000000000000000000000000000000000N 00000000000NCONT   00    00000000000          00000000000000000000000000000000000000000000 000000000000000A000000000000000000000000000000000000000000000 000000000000000000000000000000000000000     00000000                                                                                                                        000000000000000000
F0010000008173400004000090085194100023658300000000000000000201601270002001LA 70 CONSTRUCCIONES SAS                          C000000000018000000000000000000000100010010000000000000000000000F0010000008173400420160127000101 00000000000000000000000000000000000000000000000000000000000000000000000000000000000000000000000000000000000000000N 00000000000NCONT   00    00000000000          00000000000000000000000000000000000000000000 000000000000000A000000000000000000000000000000000000000000000 000000000000000000000000000000000000000     00000000                                                                                                                        000000000000000000
F0010000008173400005000090085194100013552100000000000000000201601270002001LA 70 CONSTRUCCIONES SAS                          D000000000018000000000000000000000100010010000000000000000000000F0010000008173400520160127000101 00000000000000000000000000000000000000000000000000000000000000000000000000000000000000000000000000000000000000000N 00000000000NCONT   00    00000000000          00000000000000000000000000000000000000000000 000000000000000A000000000000000000000000000000000000000000000 000000000000000000000000000000000000000     00000000                                                                                                                        000000000000000000
F0010000008173500001000003319910700011050500000000000000000201601270002001LUZ DARY JIMENEZ MARTINEZ                         D000000001100000000000000000000000100010010000000000000000000000F0010000008173500120160127000101 00000000000000000000000000000000000000000000000000000000000000000000000000000000000000000000000000000000000000000N 00000000000NCONT   00    00000000000          00000000000000000000000000000000000000000000 000000000000000A000000000000000000000000000000000000000000000 000000000000000000000000000000000000000     00000000                                                                                                                        000000000000000000
F0010000008173500002000003319910700041450500000000000000000201601270002001LUZ DARY JIMENEZ MARTINEZ                         C000000001000000000000000000000000100010010000000000000000000000F0010000008173500220160127000101 00000000000000000000000000000000000000000000000000000000000000000000000000000000000000000000000000000000000000000N 00000000000NCONT   00    00000000000          00000000000000000000000000000000000000000000 000000000000000A000000000000000000000000000000000000000000000 000000000000000000000000000000000000000     00000000                                                                                                                        000000000000000000
F0010000008173500003000003319910700042505000000000000000000201601270002001LUZ DARY JIMENEZ MARTINEZ                         C000000000100000000000000000000000100010010000000000000000000000F0010000008173500320160127000101 00000000000000000000000000000000000000000000000000000000000000000000000000000000000000000000000000000000000000000N 00000000000NCONT   00    00000000000          00000000000000000000000000000000000000000000 000000000000000A000000000000000000000000000000000000000000000 000000000000000000000000000000000000000     00000000                                                                                                                        000000000000000000
F0010000008173500004000003319910700023658300000000000000000201601270002001LUZ DARY JIMENEZ MARTINEZ                         C000000000008000000000000000000000100010010000000000000000000000F0010000008173500420160127000101 00000000000000000000000000000000000000000000000000000000000000000000000000000000000000000000000000000000000000000N 00000000000NCONT   00    00000000000          00000000000000000000000000000000000000000000 000000000000000A000000000000000000000000000000000000000000000 000000000000000000000000000000000000000     00000000                                                                                                                        000000000000000000
F0010000008173500005000003319910700013552100000000000000000201601270002001LUZ DARY JIMENEZ MARTINEZ                         D000000000008000000000000000000000100010010000000000000000000000F0010000008173500520160127000101 00000000000000000000000000000000000000000000000000000000000000000000000000000000000000000000000000000000000000000N 00000000000NCONT   00    00000000000          00000000000000000000000000000000000000000000 000000000000000A000000000000000000000000000000000000000000000 000000000000000000000000000000000000000     00000000                                                                                                                        000000000000000000
F0010000008173600001000003319910700011050500000000000000000201601270002001LUZ DARY JIMENEZ MARTINEZ                         D000000001100000000000000000000000100010010000000000000000000000F0010000008173600120160127000101 00000000000000000000000000000000000000000000000000000000000000000000000000000000000000000000000000000000000000000N 00000000000NCONT   00    00000000000          00000000000000000000000000000000000000000000 000000000000000A000000000000000000000000000000000000000000000 000000000000000000000000000000000000000     00000000                                                                                                                        000000000000000000
F0010000008173600002000003319910700041450500000000000000000201601270002001LUZ DARY JIMENEZ MARTINEZ                         C000000001000000000000000000000000100010010000000000000000000000F0010000008173600220160127000101 00000000000000000000000000000000000000000000000000000000000000000000000000000000000000000000000000000000000000000N 00000000000NCONT   00    00000000000          00000000000000000000000000000000000000000000 000000000000000A000000000000000000000000000000000000000000000 000000000000000000000000000000000000000     00000000                                                                                                                        000000000000000000
F0010000008173600003000003319910700042505000000000000000000201601270002001LUZ DARY JIMENEZ MARTINEZ                         C000000000100000000000000000000000100010010000000000000000000000F0010000008173600320160127000101 00000000000000000000000000000000000000000000000000000000000000000000000000000000000000000000000000000000000000000N 00000000000NCONT   00    00000000000          00000000000000000000000000000000000000000000 000000000000000A000000000000000000000000000000000000000000000 000000000000000000000000000000000000000     00000000                                                                                                                        000000000000000000
F0010000008173600004000003319910700023658300000000000000000201601270002001LUZ DARY JIMENEZ MARTINEZ                         C000000000008000000000000000000000100010010000000000000000000000F0010000008173600420160127000101 00000000000000000000000000000000000000000000000000000000000000000000000000000000000000000000000000000000000000000N 00000000000NCONT   00    00000000000          00000000000000000000000000000000000000000000 000000000000000A000000000000000000000000000000000000000000000 000000000000000000000000000000000000000     00000000                                                                                                                        000000000000000000
F0010000008173600005000003319910700013552100000000000000000201601270002001LUZ DARY JIMENEZ MARTINEZ                         D000000000008000000000000000000000100010010000000000000000000000F0010000008173600520160127000101 00000000000000000000000000000000000000000000000000000000000000000000000000000000000000000000000000000000000000000N 00000000000NCONT   00    00000000000          00000000000000000000000000000000000000000000 000000000000000A000000000000000000000000000000000000000000000 000000000000000000000000000000000000000     00000000                                                                                                                        000000000000000000
F0010000008173700001000004977415500011050500000000000000000201601270002001NINFA ISABEL FONSECA ROMERO                       D000000002410000000000000000000000100010010000000000000000000000F0010000008173700120160127000101 00000000000000000000000000000000000000000000000000000000000000000000000000000000000000000000000000000000000000000N 00000000000NCONT   00    00000000000          00000000000000000000000000000000000000000000 000000000000000A000000000000000000000000000000000000000000000 000000000000000000000000000000000000000     00000000                                                                                                                        000000000000000000
F0010000008173700002000004977415500041450500000000000000000201601270002001NINFA ISABEL FONSECA ROMERO                       C000000002010000000000000000000000100010010000000000000000000000F0010000008173700220160127000101 00000000000000000000000000000000000000000000000000000000000000000000000000000000000000000000000000000000000000000N 00000000000NCONT   00    00000000000          00000000000000000000000000000000000000000000 000000000000000A000000000000000000000000000000000000000000000 000000000000000000000000000000000000000     00000000                                                                                                                        000000000000000000
F0010000008173700003000004977415500042505000000000000000000201601270002001NINFA ISABEL FONSECA ROMERO                       C000000000400000000000000000000000100010010000000000000000000000F0010000008173700320160127000101 00000000000000000000000000000000000000000000000000000000000000000000000000000000000000000000000000000000000000000N 00000000000NCONT   00    00000000000          00000000000000000000000000000000000000000000 000000000000000A000000000000000000000000000000000000000000000 000000000000000000000000000000000000000     00000000                                                                                                                        000000000000000000
F0010000008173700004000004977415500023658300000000000000000201601270002001NINFA ISABEL FONSECA ROMERO                       C000000000016100000000000000000000100010010000000000000000000000F0010000008173700420160127000101 00000000000000000000000000000000000000000000000000000000000000000000000000000000000000000000000000000000000000000N 00000000000NCONT   00    00000000000          00000000000000000000000000000000000000000000 000000000000000A000000000000000000000000000000000000000000000 000000000000000000000000000000000000000     00000000                                                                                                                        000000000000000000
F0010000008173700005000004977415500013552100000000000000000201601270002001NINFA ISABEL FONSECA ROMERO                       D000000000016100000000000000000000100010010000000000000000000000F0010000008173700520160127000101 00000000000000000000000000000000000000000000000000000000000000000000000000000000000000000000000000000000000000000N 00000000000NCONT   00    00000000000          00000000000000000000000000000000000000000000 000000000000000A000000000000000000000000000000000000000000000 000000000000000000000000000000000000000     00000000                                                                                                                        000000000000000000
F0010000008173800001000080014190300011050500000000000000000201601270002001QUIMINSA LTDA                                     D000000002100000000000000000000000100010010000000000000000000000F0010000008173800120160127000101 00000000000000000000000000000000000000000000000000000000000000000000000000000000000000000000000000000000000000000N 00000000000NCONT   00    00000000000          00000000000000000000000000000000000000000000 000000000000000A000000000000000000000000000000000000000000000 000000000000000000000000000000000000000     00000000                                                                                                                        000000000000000000
F0010000008173800002000080014190300041450500000000000000000201601270002001QUIMINSA LTDA                                     C000000001660000000000000000000000100010010000000000000000000000F0010000008173800220160127000101 00000000000000000000000000000000000000000000000000000000000000000000000000000000000000000000000000000000000000000N 00000000000NCONT   00    00000000000          00000000000000000000000000000000000000000000 000000000000000A000000000000000000000000000000000000000000000 000000000000000000000000000000000000000     00000000                                                                                                                        000000000000000000
F0010000008173800003000080014190300042505000000000000000000201601270002001QUIMINSA LTDA                                     C000000000440000000000000000000000100010010000000000000000000000F0010000008173800320160127000101 00000000000000000000000000000000000000000000000000000000000000000000000000000000000000000000000000000000000000000N 00000000000NCONT   00    00000000000          00000000000000000000000000000000000000000000 000000000000000A000000000000000000000000000000000000000000000 000000000000000000000000000000000000000     00000000                                                                                                                        000000000000000000
F0010000008173800004000080014190300023658300000000000000000201601270002001QUIMINSA LTDA                                     C000000000013300000000000000000000100010010000000000000000000000F0010000008173800420160127000101 00000000000000000000000000000000000000000000000000000000000000000000000000000000000000000000000000000000000000000N 00000000000NCONT   00    00000000000          00000000000000000000000000000000000000000000 000000000000000A000000000000000000000000000000000000000000000 000000000000000000000000000000000000000     00000000                                                                                                                        000000000000000000
F0010000008173800005000080014190300013552100000000000000000201601270002001QUIMINSA LTDA                                     D000000000013300000000000000000000100010010000000000000000000000F0010000008173800520160127000101 00000000000000000000000000000000000000000000000000000000000000000000000000000000000000000000000000000000000000000N 00000000000NCONT   00    00000000000          00000000000000000000000000000000000000000000 000000000000000A000000000000000000000000000000000000000000000 000000000000000000000000000000000000000     00000000                                                                                                                        000000000000000000
F0010000008173900001000080201703900011050500000000000000000201601270002001MUNDIAL CHEMICAL LTDA                             D000000001880000000000000000000000100010010000000000000000000000F0010000008173900120160127000101 00000000000000000000000000000000000000000000000000000000000000000000000000000000000000000000000000000000000000000N 00000000000NCONT   00    00000000000          00000000000000000000000000000000000000000000 000000000000000A000000000000000000000000000000000000000000000 000000000000000000000000000000000000000     00000000                                                                                                                        000000000000000000
F0010000008173900002000080201703900041450500000000000000000201601270002001MUNDIAL CHEMICAL LTDA                             C000000001660000000000000000000000100010010000000000000000000000F0010000008173900220160127000101 00000000000000000000000000000000000000000000000000000000000000000000000000000000000000000000000000000000000000000N 00000000000NCONT   00    00000000000          00000000000000000000000000000000000000000000 000000000000000A000000000000000000000000000000000000000000000 000000000000000000000000000000000000000     00000000                                                                                                                        000000000000000000
F0010000008173900003000080201703900042505000000000000000000201601270002001MUNDIAL CHEMICAL LTDA                             C000000000220000000000000000000000100010010000000000000000000000F0010000008173900320160127000101 00000000000000000000000000000000000000000000000000000000000000000000000000000000000000000000000000000000000000000N 00000000000NCONT   00    00000000000          00000000000000000000000000000000000000000000 000000000000000A000000000000000000000000000000000000000000000 000000000000000000000000000000000000000     00000000                                                                                                                        000000000000000000
F0010000008173900004000080201703900023658300000000000000000201601270002001MUNDIAL CHEMICAL LTDA                             C000000000013300000000000000000000100010010000000000000000000000F0010000008173900420160127000101 00000000000000000000000000000000000000000000000000000000000000000000000000000000000000000000000000000000000000000N 00000000000NCONT   00    00000000000          00000000000000000000000000000000000000000000 000000000000000A000000000000000000000000000000000000000000000 000000000000000000000000000000000000000     00000000                                                                                                                        000000000000000000
F0010000008173900005000080201703900013552100000000000000000201601270002001MUNDIAL CHEMICAL LTDA                             D000000000013300000000000000000000100010010000000000000000000000F0010000008173900520160127000101 00000000000000000000000000000000000000000000000000000000000000000000000000000000000000000000000000000000000000000N 00000000000NCONT   00    00000000000          00000000000000000000000000000000000000000000 000000000000000A000000000000000000000000000000000000000000000 000000000000000000000000000000000000000     00000000                                                                                                                        000000000000000000
F0010000008174000001000009120302700011050500000000000000000201601270002001CALZADO REY ESTEBAN                               D000000001900000000000000000000000100010010000000000000000000000F0010000008174000120160127000101 00000000000000000000000000000000000000000000000000000000000000000000000000000000000000000000000000000000000000000N 00000000000NCONT   00    00000000000          00000000000000000000000000000000000000000000 000000000000000A000000000000000000000000000000000000000000000 000000000000000000000000000000000000000     00000000                                                                                                                        000000000000000000
F0010000008174000002000009120302700041450500000000000000000201601270002001CALZADO REY ESTEBAN                               C000000001400000000000000000000000100010010000000000000000000000F0010000008174000220160127000101 00000000000000000000000000000000000000000000000000000000000000000000000000000000000000000000000000000000000000000N 00000000000NCONT   00    00000000000          00000000000000000000000000000000000000000000 000000000000000A000000000000000000000000000000000000000000000 000000000000000000000000000000000000000     00000000                                                                                                                        000000000000000000
F0010000008174000003000009120302700042505000000000000000000201601270002001CALZADO REY ESTEBAN                               C000000000500000000000000000000000100010010000000000000000000000F0010000008174000320160127000101 00000000000000000000000000000000000000000000000000000000000000000000000000000000000000000000000000000000000000000N 00000000000NCONT   00    00000000000          00000000000000000000000000000000000000000000 000000000000000A000000000000000000000000000000000000000000000 000000000000000000000000000000000000000     00000000                                                                                                                        000000000000000000
F0010000008174000004000009120302700023658300000000000000000201601270002001CALZADO REY ESTEBAN                               C000000000011200000000000000000000100010010000000000000000000000F0010000008174000420160127000101 00000000000000000000000000000000000000000000000000000000000000000000000000000000000000000000000000000000000000000N 00000000000NCONT   00    00000000000          00000000000000000000000000000000000000000000 000000000000000A000000000000000000000000000000000000000000000 000000000000000000000000000000000000000     00000000                                                                                                                        000000000000000000
F0010000008174000005000009120302700013552100000000000000000201601270002001CALZADO REY ESTEBAN                               D000000000011200000000000000000000100010010000000000000000000000F0010000008174000520160127000101 00000000000000000000000000000000000000000000000000000000000000000000000000000000000000000000000000000000000000000N 00000000000NCONT   00    00000000000          00000000000000000000000000000000000000000000 000000000000000A000000000000000000000000000000000000000000000 000000000000000000000000000000000000000     00000000                                                                                                                        000000000000000000
F0010000008174100001000009120302700011050500000000000000000201601270002001CALZADO REY ESTEBAN                               D000000002100000000000000000000000100010010000000000000000000000F0010000008174100120160127000101 00000000000000000000000000000000000000000000000000000000000000000000000000000000000000000000000000000000000000000N 00000000000NCONT   00    00000000000          00000000000000000000000000000000000000000000 000000000000000A000000000000000000000000000000000000000000000 000000000000000000000000000000000000000     00000000                                                                                                                        000000000000000000
F0010000008174100002000009120302700041450500000000000000000201601270002001CALZADO REY ESTEBAN                               C000000001500000000000000000000000100010010000000000000000000000F0010000008174100220160127000101 00000000000000000000000000000000000000000000000000000000000000000000000000000000000000000000000000000000000000000N 00000000000NCONT   00    00000000000          00000000000000000000000000000000000000000000 000000000000000A000000000000000000000000000000000000000000000 000000000000000000000000000000000000000     00000000                                                                                                                        000000000000000000
F0010000008174100003000009120302700042505000000000000000000201601270002001CALZADO REY ESTEBAN                               C000000000600000000000000000000000100010010000000000000000000000F0010000008174100320160127000101 00000000000000000000000000000000000000000000000000000000000000000000000000000000000000000000000000000000000000000N 00000000000NCONT   00    00000000000          00000000000000000000000000000000000000000000 000000000000000A000000000000000000000000000000000000000000000 000000000000000000000000000000000000000     00000000                                                                                                                        000000000000000000
F0010000008174100004000009120302700023658300000000000000000201601270002001CALZADO REY ESTEBAN                               C000000000012000000000000000000000100010010000000000000000000000F0010000008174100420160127000101 00000000000000000000000000000000000000000000000000000000000000000000000000000000000000000000000000000000000000000N 00000000000NCONT   00    00000000000          00000000000000000000000000000000000000000000 000000000000000A000000000000000000000000000000000000000000000 000000000000000000000000000000000000000     00000000                                                                                                                        000000000000000000
F0010000008174100005000009120302700013552100000000000000000201601270002001CALZADO REY ESTEBAN                               D000000000012000000000000000000000100010010000000000000000000000F0010000008174100520160127000101 00000000000000000000000000000000000000000000000000000000000000000000000000000000000000000000000000000000000000000N 00000000000NCONT   00    00000000000          00000000000000000000000000000000000000000000 000000000000000A000000000000000000000000000000000000000000000 000000000000000000000000000000000000000     00000000                                                                                                                        000000000000000000
F0010000008174200001000009120302700011050500000000000000000201601270002001CALZADO REY ESTEBAN                               D000000002000000000000000000000000100010010000000000000000000000F0010000008174200120160127000101 00000000000000000000000000000000000000000000000000000000000000000000000000000000000000000000000000000000000000000N 00000000000NCONT   00    00000000000          00000000000000000000000000000000000000000000 000000000000000A000000000000000000000000000000000000000000000 000000000000000000000000000000000000000     00000000                                                                                                                        000000000000000000
F0010000008174200002000009120302700041450500000000000000000201601270002001CALZADO REY ESTEBAN                               C000000001400000000000000000000000100010010000000000000000000000F0010000008174200220160127000101 00000000000000000000000000000000000000000000000000000000000000000000000000000000000000000000000000000000000000000N 00000000000NCONT   00    00000000000          00000000000000000000000000000000000000000000 000000000000000A000000000000000000000000000000000000000000000 000000000000000000000000000000000000000     00000000                                                                                                                        000000000000000000
F0010000008174200003000009120302700042505000000000000000000201601270002001CALZADO REY ESTEBAN                               C000000000600000000000000000000000100010010000000000000000000000F0010000008174200320160127000101 00000000000000000000000000000000000000000000000000000000000000000000000000000000000000000000000000000000000000000N 00000000000NCONT   00    00000000000          00000000000000000000000000000000000000000000 000000000000000A000000000000000000000000000000000000000000000 000000000000000000000000000000000000000     00000000                                                                                                                        000000000000000000
F0010000008174200004000009120302700023658300000000000000000201601270002001CALZADO REY ESTEBAN                               C000000000011200000000000000000000100010010000000000000000000000F0010000008174200420160127000101 00000000000000000000000000000000000000000000000000000000000000000000000000000000000000000000000000000000000000000N 00000000000NCONT   00    00000000000          00000000000000000000000000000000000000000000 000000000000000A000000000000000000000000000000000000000000000 000000000000000000000000000000000000000     00000000                                                                                                                        000000000000000000
F0010000008174200005000009120302700013552100000000000000000201601270002001CALZADO REY ESTEBAN                               D000000000011200000000000000000000100010010000000000000000000000F0010000008174200520160127000101 00000000000000000000000000000000000000000000000000000000000000000000000000000000000000000000000000000000000000000N 00000000000NCONT   00    00000000000          00000000000000000000000000000000000000000000 000000000000000A000000000000000000000000000000000000000000000 000000000000000000000000000000000000000     00000000                                                                                                                        000000000000000000
F0010000008174300001000000872671800011050500000000000000000201601270002001RUBEN ARENAS PARRA                                D000000003600000000000000000000000100010010000000000000000000000F0010000008174300120160127000101 00000000000000000000000000000000000000000000000000000000000000000000000000000000000000000000000000000000000000000N 00000000000NCONT   00    00000000000          00000000000000000000000000000000000000000000 000000000000000A000000000000000000000000000000000000000000000 000000000000000000000000000000000000000     00000000                                                                                                                        000000000000000000
F0010000008174300002000000872671800041450500000000000000000201601270002001RUBEN ARENAS PARRA                                C000000002300000000000000000000000100010010000000000000000000000F0010000008174300220160127000101 00000000000000000000000000000000000000000000000000000000000000000000000000000000000000000000000000000000000000000N 00000000000NCONT   00    00000000000          00000000000000000000000000000000000000000000 000000000000000A000000000000000000000000000000000000000000000 000000000000000000000000000000000000000     00000000                                                                                                                        000000000000000000
F0010000008174300003000000872671800042505000000000000000000201601270002001RUBEN ARENAS PARRA                                C000000001300000000000000000000000100010010000000000000000000000F0010000008174300320160127000101 00000000000000000000000000000000000000000000000000000000000000000000000000000000000000000000000000000000000000000N 00000000000NCONT   00    00000000000          00000000000000000000000000000000000000000000 000000000000000A000000000000000000000000000000000000000000000 000000000000000000000000000000000000000     00000000                                                                                                                        000000000000000000
F0010000008174300004000000872671800023658300000000000000000201601270002001RUBEN ARENAS PARRA                                C000000000018400000000000000000000100010010000000000000000000000F0010000008174300420160127000101 00000000000000000000000000000000000000000000000000000000000000000000000000000000000000000000000000000000000000000N 00000000000NCONT   00    00000000000          00000000000000000000000000000000000000000000 000000000000000A000000000000000000000000000000000000000000000 000000000000000000000000000000000000000     00000000                                                                                                                        000000000000000000
F0010000008174300005000000872671800013552100000000000000000201601270002001RUBEN ARENAS PARRA                                D000000000018400000000000000000000100010010000000000000000000000F0010000008174300520160127000101 00000000000000000000000000000000000000000000000000000000000000000000000000000000000000000000000000000000000000000N 00000000000NCONT   00    00000000000          00000000000000000000000000000000000000000000 000000000000000A000000000000000000000000000000000000000000000 000000000000000000000000000000000000000     00000000                                                                                                                        000000000000000000
F0010000008174400001000000872671800011050500000000000000000201601270002001RUBEN ARENAS PARRA                                D000000001800000000000000000000000100010010000000000000000000000F0010000008174400120160127000101 00000000000000000000000000000000000000000000000000000000000000000000000000000000000000000000000000000000000000000N 00000000000NCONT   00    00000000000          00000000000000000000000000000000000000000000 000000000000000A000000000000000000000000000000000000000000000 000000000000000000000000000000000000000     00000000                                                                                                                        000000000000000000
F0010000008174400002000000872671800041450500000000000000000201601270002001RUBEN ARENAS PARRA                                C000000001200000000000000000000000100010010000000000000000000000F0010000008174400220160127000101 00000000000000000000000000000000000000000000000000000000000000000000000000000000000000000000000000000000000000000N 00000000000NCONT   00    00000000000          00000000000000000000000000000000000000000000 000000000000000A000000000000000000000000000000000000000000000 000000000000000000000000000000000000000     00000000                                                                                                                        000000000000000000
F0010000008174400003000000872671800042505000000000000000000201601270002001RUBEN ARENAS PARRA                                C000000000600000000000000000000000100010010000000000000000000000F0010000008174400320160127000101 00000000000000000000000000000000000000000000000000000000000000000000000000000000000000000000000000000000000000000N 00000000000NCONT   00    00000000000          00000000000000000000000000000000000000000000 000000000000000A000000000000000000000000000000000000000000000 000000000000000000000000000000000000000     00000000                                                                                                                        000000000000000000
F0010000008174400004000000872671800023658300000000000000000201601270002001RUBEN ARENAS PARRA                                C000000000009600000000000000000000100010010000000000000000000000F0010000008174400420160127000101 00000000000000000000000000000000000000000000000000000000000000000000000000000000000000000000000000000000000000000N 00000000000NCONT   00    00000000000          00000000000000000000000000000000000000000000 000000000000000A000000000000000000000000000000000000000000000 000000000000000000000000000000000000000     00000000                                                                                                                        000000000000000000
F0010000008174400005000000872671800013552100000000000000000201601270002001RUBEN ARENAS PARRA                                D000000000009600000000000000000000100010010000000000000000000000F0010000008174400520160127000101 00000000000000000000000000000000000000000000000000000000000000000000000000000000000000000000000000000000000000000N 00000000000NCONT   00    00000000000          00000000000000000000000000000000000000000000 000000000000000A000000000000000000000000000000000000000000000 000000000000000000000000000000000000000     00000000                                                                                                                        000000000000000000
F0010000008174500001000007035286400011050500000000000000000201601270002001MANUEL GOMEZ                                      D000000002500000000000000000000000100010010000000000000000000000F0010000008174500120160127000101 00000000000000000000000000000000000000000000000000000000000000000000000000000000000000000000000000000000000000000N 00000000000NCONT   00    00000000000          00000000000000000000000000000000000000000000 000000000000000A000000000000000000000000000000000000000000000 000000000000000000000000000000000000000     00000000                                                                                                                        000000000000000000
F0010000008174500002000007035286400041450500000000000000000201601270002001MANUEL GOMEZ                                      C000000001800000000000000000000000100010010000000000000000000000F0010000008174500220160127000101 00000000000000000000000000000000000000000000000000000000000000000000000000000000000000000000000000000000000000000N 00000000000NCONT   00    00000000000          00000000000000000000000000000000000000000000 000000000000000A000000000000000000000000000000000000000000000 000000000000000000000000000000000000000     00000000                                                                                                                        000000000000000000
F0010000008174500003000007035286400042505000000000000000000201601270002001MANUEL GOMEZ                                      C000000000700000000000000000000000100010010000000000000000000000F0010000008174500320160127000101 00000000000000000000000000000000000000000000000000000000000000000000000000000000000000000000000000000000000000000N 00000000000NCONT   00    00000000000          00000000000000000000000000000000000000000000 000000000000000A000000000000000000000000000000000000000000000 000000000000000000000000000000000000000     00000000                                                                                                                        000000000000000000
F0010000008174500004000007035286400023658300000000000000000201601270002001MANUEL GOMEZ                                      C000000000014400000000000000000000100010010000000000000000000000F0010000008174500420160127000101 00000000000000000000000000000000000000000000000000000000000000000000000000000000000000000000000000000000000000000N 00000000000NCONT   00    00000000000          00000000000000000000000000000000000000000000 000000000000000A000000000000000000000000000000000000000000000 000000000000000000000000000000000000000     00000000                                                                                                                        000000000000000000
F0010000008174500005000007035286400013552100000000000000000201601270002001MANUEL GOMEZ                                      D000000000014400000000000000000000100010010000000000000000000000F0010000008174500520160127000101 00000000000000000000000000000000000000000000000000000000000000000000000000000000000000000000000000000000000000000N 00000000000NCONT   00    00000000000          00000000000000000000000000000000000000000000 000000000000000A000000000000000000000000000000000000000000000 000000000000000000000000000000000000000     00000000                                                                                                                        000000000000000000
F0010000008174600001000007035286400011050500000000000000000201601270002001MANUEL GOMEZ                                      D000000003100000000000000000000000100010010000000000000000000000F0010000008174600120160127000101 00000000000000000000000000000000000000000000000000000000000000000000000000000000000000000000000000000000000000000N 00000000000NCONT   00    00000000000          00000000000000000000000000000000000000000000 000000000000000A000000000000000000000000000000000000000000000 000000000000000000000000000000000000000     00000000                                                                                                                        000000000000000000
F0010000008174600002000007035286400041450500000000000000000201601270002001MANUEL GOMEZ                                      C000000002400000000000000000000000100010010000000000000000000000F0010000008174600220160127000101 00000000000000000000000000000000000000000000000000000000000000000000000000000000000000000000000000000000000000000N 00000000000NCONT   00    00000000000          00000000000000000000000000000000000000000000 000000000000000A000000000000000000000000000000000000000000000 000000000000000000000000000000000000000     00000000                                                                                                                        000000000000000000
F0010000008174600003000007035286400042505000000000000000000201601270002001MANUEL GOMEZ                                      C000000000700000000000000000000000100010010000000000000000000000F0010000008174600320160127000101 00000000000000000000000000000000000000000000000000000000000000000000000000000000000000000000000000000000000000000N 00000000000NCONT   00    00000000000          00000000000000000000000000000000000000000000 000000000000000A000000000000000000000000000000000000000000000 000000000000000000000000000000000000000     00000000                                                                                                                        000000000000000000
F0010000008174600004000007035286400023658300000000000000000201601270002001MANUEL GOMEZ                                      C000000000019200000000000000000000100010010000000000000000000000F0010000008174600420160127000101 00000000000000000000000000000000000000000000000000000000000000000000000000000000000000000000000000000000000000000N 00000000000NCONT   00    00000000000          00000000000000000000000000000000000000000000 000000000000000A000000000000000000000000000000000000000000000 000000000000000000000000000000000000000     00000000                                                                                                                        000000000000000000
F0010000008174600005000007035286400013552100000000000000000201601270002001MANUEL GOMEZ                                      D000000000019200000000000000000000100010010000000000000000000000F0010000008174600520160127000101 00000000000000000000000000000000000000000000000000000000000000000000000000000000000000000000000000000000000000000N 00000000000NCONT   00    00000000000          00000000000000000000000000000000000000000000 000000000000000A000000000000000000000000000000000000000000000 000000000000000000000000000000000000000     00000000                                                                                                                        000000000000000000
F0010000008174700001000007035286400011050500000000000000000201601270002001MANUEL GOMEZ                                      D000000001600000000000000000000000100010010000000000000000000000F0010000008174700120160127000101 00000000000000000000000000000000000000000000000000000000000000000000000000000000000000000000000000000000000000000N 00000000000NCONT   00    00000000000          00000000000000000000000000000000000000000000 000000000000000A000000000000000000000000000000000000000000000 000000000000000000000000000000000000000     00000000                                                                                                                        000000000000000000
F0010000008174700002000007035286400041450500000000000000000201601270002001MANUEL GOMEZ                                      C000000000900000000000000000000000100010010000000000000000000000F0010000008174700220160127000101 00000000000000000000000000000000000000000000000000000000000000000000000000000000000000000000000000000000000000000N 00000000000NCONT   00    00000000000          00000000000000000000000000000000000000000000 000000000000000A000000000000000000000000000000000000000000000 000000000000000000000000000000000000000     00000000                                                                                                                        000000000000000000
F0010000008174700003000007035286400042505000000000000000000201601270002001MANUEL GOMEZ                                      C000000000700000000000000000000000100010010000000000000000000000F0010000008174700320160127000101 00000000000000000000000000000000000000000000000000000000000000000000000000000000000000000000000000000000000000000N 00000000000NCONT   00    00000000000          00000000000000000000000000000000000000000000 000000000000000A000000000000000000000000000000000000000000000 000000000000000000000000000000000000000     00000000                                                                                                                        000000000000000000
F0010000008174700004000007035286400023658300000000000000000201601270002001MANUEL GOMEZ                                      C000000000007200000000000000000000100010010000000000000000000000F0010000008174700420160127000101 00000000000000000000000000000000000000000000000000000000000000000000000000000000000000000000000000000000000000000N 00000000000NCONT   00    00000000000          00000000000000000000000000000000000000000000 000000000000000A000000000000000000000000000000000000000000000 000000000000000000000000000000000000000     00000000                                                                                                                        000000000000000000
F0010000008174700005000007035286400013552100000000000000000201601270002001MANUEL GOMEZ                                      D000000000007200000000000000000000100010010000000000000000000000F0010000008174700520160127000101 00000000000000000000000000000000000000000000000000000000000000000000000000000000000000000000000000000000000000000N 00000000000NCONT   00    00000000000          00000000000000000000000000000000000000000000 000000000000000A000000000000000000000000000000000000000000000 000000000000000000000000000000000000000     00000000                                                                                                                        000000000000000000
F0010000008174800001000007035286400011050500000000000000000201601270002001MANUEL GOMEZ                                      D000000001600000000000000000000000100010010000000000000000000000F0010000008174800120160127000101 00000000000000000000000000000000000000000000000000000000000000000000000000000000000000000000000000000000000000000N 00000000000NCONT   00    00000000000          00000000000000000000000000000000000000000000 000000000000000A000000000000000000000000000000000000000000000 000000000000000000000000000000000000000     00000000                                                                                                                        000000000000000000
F0010000008174800002000007035286400041450500000000000000000201601270002001MANUEL GOMEZ                                      C000000000900000000000000000000000100010010000000000000000000000F0010000008174800220160127000101 00000000000000000000000000000000000000000000000000000000000000000000000000000000000000000000000000000000000000000N 00000000000NCONT   00    00000000000          00000000000000000000000000000000000000000000 000000000000000A000000000000000000000000000000000000000000000 000000000000000000000000000000000000000     00000000                                                                                                                        000000000000000000
F0010000008174800003000007035286400042505000000000000000000201601270002001MANUEL GOMEZ                                      C000000000700000000000000000000000100010010000000000000000000000F0010000008174800320160127000101 00000000000000000000000000000000000000000000000000000000000000000000000000000000000000000000000000000000000000000N 00000000000NCONT   00    00000000000          00000000000000000000000000000000000000000000 000000000000000A000000000000000000000000000000000000000000000 000000000000000000000000000000000000000     00000000                                                                                                                        000000000000000000
F0010000008174800004000007035286400023658300000000000000000201601270002001MANUEL GOMEZ                                      C000000000007200000000000000000000100010010000000000000000000000F0010000008174800420160127000101 00000000000000000000000000000000000000000000000000000000000000000000000000000000000000000000000000000000000000000N 00000000000NCONT   00    00000000000          00000000000000000000000000000000000000000000 000000000000000A000000000000000000000000000000000000000000000 000000000000000000000000000000000000000     00000000                                                                                                                        000000000000000000
F0010000008174800005000007035286400013552100000000000000000201601270002001MANUEL GOMEZ                                      D000000000007200000000000000000000100010010000000000000000000000F0010000008174800520160127000101 00000000000000000000000000000000000000000000000000000000000000000000000000000000000000000000000000000000000000000N 00000000000NCONT   00    00000000000          00000000000000000000000000000000000000000000 000000000000000A000000000000000000000000000000000000000000000 000000000000000000000000000000000000000     00000000                                                                                                                        000000000000000000
F0010000008174900001000008824410800011050500000000000000000201601270002001CESAR DUQUE                                       D000000010000000000000000000000000100010010000000000000000000000F0010000008174900120160127000101 00000000000000000000000000000000000000000000000000000000000000000000000000000000000000000000000000000000000000000N 00000000000NCONT   00    00000000000          00000000000000000000000000000000000000000000 000000000000000A000000000000000000000000000000000000000000000 000000000000000000000000000000000000000     00000000                                                                                                                        000000000000000000
F0010000008174900002000008824410800041450500000000000000000201601270002001CESAR DUQUE                                       C000000009300000000000000000000000100010010000000000000000000000F0010000008174900220160127000101 00000000000000000000000000000000000000000000000000000000000000000000000000000000000000000000000000000000000000000N 00000000000NCONT   00    00000000000          00000000000000000000000000000000000000000000 000000000000000A000000000000000000000000000000000000000000000 000000000000000000000000000000000000000     00000000                                                                                                                        000000000000000000
F0010000008174900003000008824410800042505000000000000000000201601270002001CESAR DUQUE                                       C000000000700000000000000000000000100010010000000000000000000000F0010000008174900320160127000101 00000000000000000000000000000000000000000000000000000000000000000000000000000000000000000000000000000000000000000N 00000000000NCONT   00    00000000000          00000000000000000000000000000000000000000000 000000000000000A000000000000000000000000000000000000000000000 000000000000000000000000000000000000000     00000000                                                                                                                        000000000000000000
F0010000008174900004000008824410800023658300000000000000000201601270002001CESAR DUQUE                                       C000000000074400000000000000000000100010010000000000000000000000F0010000008174900420160127000101 00000000000000000000000000000000000000000000000000000000000000000000000000000000000000000000000000000000000000000N 00000000000NCONT   00    00000000000          00000000000000000000000000000000000000000000 000000000000000A000000000000000000000000000000000000000000000 000000000000000000000000000000000000000     00000000                                                                                                                        000000000000000000
F0010000008174900005000008824410800013552100000000000000000201601270002001CESAR DUQUE                                       D000000000074400000000000000000000100010010000000000000000000000F0010000008174900520160127000101 00000000000000000000000000000000000000000000000000000000000000000000000000000000000000000000000000000000000000000N 00000000000NCONT   00    00000000000          00000000000000000000000000000000000000000000 000000000000000A000000000000000000000000000000000000000000000 000000000000000000000000000000000000000     00000000                                                                                                                        000000000000000000
F0010000008175000001000000870907300011050500000000000000000201601270002001SURTIDOR FERRETERO                                D000000002000000000000000000000000100010010000000000000000000000F0010000008175000120160127000101 00000000000000000000000000000000000000000000000000000000000000000000000000000000000000000000000000000000000000000N 00000000000NCONT   00    00000000000          00000000000000000000000000000000000000000000 000000000000000A000000000000000000000000000000000000000000000 000000000000000000000000000000000000000     00000000                                                                                                                        000000000000000000
F0010000008175000002000000870907300041450500000000000000000201601270002001SURTIDOR FERRETERO                                C000000000800000000000000000000000100010010000000000000000000000F0010000008175000220160127000101 00000000000000000000000000000000000000000000000000000000000000000000000000000000000000000000000000000000000000000N 00000000000NCONT   00    00000000000          00000000000000000000000000000000000000000000 000000000000000A000000000000000000000000000000000000000000000 000000000000000000000000000000000000000     00000000                                                                                                                        000000000000000000
F0010000008175000003000000870907300042505000000000000000000201601270002001SURTIDOR FERRETERO                                C000000001200000000000000000000000100010010000000000000000000000F0010000008175000320160127000101 00000000000000000000000000000000000000000000000000000000000000000000000000000000000000000000000000000000000000000N 00000000000NCONT   00    00000000000          00000000000000000000000000000000000000000000 000000000000000A000000000000000000000000000000000000000000000 000000000000000000000000000000000000000     00000000                                                                                                                        000000000000000000
F0010000008175000004000000870907300023658300000000000000000201601270002001SURTIDOR FERRETERO                                C000000000006400000000000000000000100010010000000000000000000000F0010000008175000420160127000101 00000000000000000000000000000000000000000000000000000000000000000000000000000000000000000000000000000000000000000N 00000000000NCONT   00    00000000000          00000000000000000000000000000000000000000000 000000000000000A000000000000000000000000000000000000000000000 000000000000000000000000000000000000000     00000000                                                                                                                        000000000000000000
F0010000008175000005000000870907300013552100000000000000000201601270002001SURTIDOR FERRETERO                                D000000000006400000000000000000000100010010000000000000000000000F0010000008175000520160127000101 00000000000000000000000000000000000000000000000000000000000000000000000000000000000000000000000000000000000000000N 00000000000NCONT   00    00000000000          00000000000000000000000000000000000000000000 000000000000000A000000000000000000000000000000000000000000000 000000000000000000000000000000000000000     00000000                                                                                                                        000000000000000000
F0010000008175100001000080202350700011050500000000000000000201601270002001CONNY DE LA COSTA SAS                             D000000000900000000000000000000000100010010000000000000000000000F0010000008175100120160127000101 00000000000000000000000000000000000000000000000000000000000000000000000000000000000000000000000000000000000000000N 00000000000NCONT   00    00000000000          00000000000000000000000000000000000000000000 000000000000000A000000000000000000000000000000000000000000000 000000000000000000000000000000000000000     00000000                                                                                                                        000000000000000000
F0010000008175100002000080202350700041450500000000000000000201601270002001CONNY DE LA COSTA SAS                             C000000000800000000000000000000000100010010000000000000000000000F0010000008175100220160127000101 00000000000000000000000000000000000000000000000000000000000000000000000000000000000000000000000000000000000000000N 00000000000NCONT   00    00000000000          00000000000000000000000000000000000000000000 000000000000000A000000000000000000000000000000000000000000000 000000000000000000000000000000000000000     00000000                                                                                                                        000000000000000000
F0010000008175100003000080202350700042505000000000000000000201601270002001CONNY DE LA COSTA SAS                             C000000000100000000000000000000000100010010000000000000000000000F0010000008175100320160127000101 00000000000000000000000000000000000000000000000000000000000000000000000000000000000000000000000000000000000000000N 00000000000NCONT   00    00000000000          00000000000000000000000000000000000000000000 000000000000000A000000000000000000000000000000000000000000000 000000000000000000000000000000000000000     00000000                                                                                                                        000000000000000000
F0010000008175100004000080202350700023658300000000000000000201601270002001CONNY DE LA COSTA SAS                             C000000000006400000000000000000000100010010000000000000000000000F0010000008175100420160127000101 00000000000000000000000000000000000000000000000000000000000000000000000000000000000000000000000000000000000000000N 00000000000NCONT   00    00000000000          00000000000000000000000000000000000000000000 000000000000000A000000000000000000000000000000000000000000000 000000000000000000000000000000000000000     00000000                                                                                                                        000000000000000000
F0010000008175100005000080202350700013552100000000000000000201601270002001CONNY DE LA COSTA SAS                             D000000000006400000000000000000000100010010000000000000000000000F0010000008175100520160127000101 00000000000000000000000000000000000000000000000000000000000000000000000000000000000000000000000000000000000000000N 00000000000NCONT   00    00000000000          00000000000000000000000000000000000000000000 000000000000000A000000000000000000000000000000000000000000000 000000000000000000000000000000000000000     00000000                                                                                                                        000000000000000000
F0010000008175200001000090061985600011050500000000000000000201601270002001COMERCIALIZADORA PATRY SAS                        D000000001200000000000000000000000100010010000000000000000000000F0010000008175200120160127000101 00000000000000000000000000000000000000000000000000000000000000000000000000000000000000000000000000000000000000000N 00000000000NCONT   00    00000000000          00000000000000000000000000000000000000000000 000000000000000A000000000000000000000000000000000000000000000 000000000000000000000000000000000000000     00000000                                                                                                                        000000000000000000
F0010000008175200002000090061985600041450500000000000000000201601270002001COMERCIALIZADORA PATRY SAS                        C000000000900000000000000000000000100010010000000000000000000000F0010000008175200220160127000101 00000000000000000000000000000000000000000000000000000000000000000000000000000000000000000000000000000000000000000N 00000000000NCONT   00    00000000000          00000000000000000000000000000000000000000000 000000000000000A000000000000000000000000000000000000000000000 000000000000000000000000000000000000000     00000000                                                                                                                        000000000000000000
F0010000008175200003000090061985600042505000000000000000000201601270002001COMERCIALIZADORA PATRY SAS                        C000000000300000000000000000000000100010010000000000000000000000F0010000008175200320160127000101 00000000000000000000000000000000000000000000000000000000000000000000000000000000000000000000000000000000000000000N 00000000000NCONT   00    00000000000          00000000000000000000000000000000000000000000 000000000000000A000000000000000000000000000000000000000000000 000000000000000000000000000000000000000     00000000                                                                                                                        000000000000000000
F0010000008175200004000090061985600023658300000000000000000201601270002001COMERCIALIZADORA PATRY SAS                        C000000000007200000000000000000000100010010000000000000000000000F0010000008175200420160127000101 00000000000000000000000000000000000000000000000000000000000000000000000000000000000000000000000000000000000000000N 00000000000NCONT   00    00000000000          00000000000000000000000000000000000000000000 000000000000000A000000000000000000000000000000000000000000000 000000000000000000000000000000000000000     00000000                                                                                                                        000000000000000000
F0010000008175200005000090061985600013552100000000000000000201601270002001COMERCIALIZADORA PATRY SAS                        D000000000007200000000000000000000100010010000000000000000000000F0010000008175200520160127000101 00000000000000000000000000000000000000000000000000000000000000000000000000000000000000000000000000000000000000000N 00000000000NCONT   00    00000000000          00000000000000000000000000000000000000000000 000000000000000A000000000000000000000000000000000000000000000 000000000000000000000000000000000000000     00000000                                                                                                                        000000000000000000
F0010000008175300001000000869805000011050500000000000000000201601270002001WILMAN RAMBAL LARA                                D000000004200000000000000000000000100010010000000000000000000000F0010000008175300120160127000101 00000000000000000000000000000000000000000000000000000000000000000000000000000000000000000000000000000000000000000N 00000000000NCONT   00    00000000000          00000000000000000000000000000000000000000000 000000000000000A000000000000000000000000000000000000000000000 000000000000000000000000000000000000000     00000000                                                                                                                        000000000000000000
F0010000008175300002000000869805000041450500000000000000000201601270002001WILMAN RAMBAL LARA                                C000000003700000000000000000000000100010010000000000000000000000F0010000008175300220160127000101 00000000000000000000000000000000000000000000000000000000000000000000000000000000000000000000000000000000000000000N 00000000000NCONT   00    00000000000          00000000000000000000000000000000000000000000 000000000000000A000000000000000000000000000000000000000000000 000000000000000000000000000000000000000     00000000                                                                                                                        000000000000000000
F0010000008175300003000000869805000042505000000000000000000201601270002001WILMAN RAMBAL LARA                                C000000000500000000000000000000000100010010000000000000000000000F0010000008175300320160127000101 00000000000000000000000000000000000000000000000000000000000000000000000000000000000000000000000000000000000000000N 00000000000NCONT   00    00000000000          00000000000000000000000000000000000000000000 000000000000000A000000000000000000000000000000000000000000000 000000000000000000000000000000000000000     00000000                                                                                                                        000000000000000000
F0010000008175300004000000869805000023658300000000000000000201601270002001WILMAN RAMBAL LARA                                C000000000029600000000000000000000100010010000000000000000000000F0010000008175300420160127000101 00000000000000000000000000000000000000000000000000000000000000000000000000000000000000000000000000000000000000000N 00000000000NCONT   00    00000000000          00000000000000000000000000000000000000000000 000000000000000A000000000000000000000000000000000000000000000 000000000000000000000000000000000000000     00000000                                                                                                                        000000000000000000
F0010000008175300005000000869805000013552100000000000000000201601270002001WILMAN RAMBAL LARA                                D000000000029600000000000000000000100010010000000000000000000000F0010000008175300520160127000101 00000000000000000000000000000000000000000000000000000000000000000000000000000000000000000000000000000000000000000N 00000000000NCONT   00    00000000000          00000000000000000000000000000000000000000000 000000000000000A000000000000000000000000000000000000000000000 000000000000000000000000000000000000000     00000000                                                                                                                        000000000000000000
F0010000008175400001000089070997800011050500000000000000000201601270002001CENTRAL DE TORNILLOS                              D000000001820000000000000000000000100010010000000000000000000000F0010000008175400120160127000101 00000000000000000000000000000000000000000000000000000000000000000000000000000000000000000000000000000000000000000N 00000000000NCONT   00    00000000000          00000000000000000000000000000000000000000000 000000000000000A000000000000000000000000000000000000000000000 000000000000000000000000000000000000000     00000000                                                                                                                        000000000000000000
F0010000008175400002000089070997800041450500000000000000000201601270002001CENTRAL DE TORNILLOS                              C000000001620000000000000000000000100010010000000000000000000000F0010000008175400220160127000101 00000000000000000000000000000000000000000000000000000000000000000000000000000000000000000000000000000000000000000N 00000000000NCONT   00    00000000000          00000000000000000000000000000000000000000000 000000000000000A000000000000000000000000000000000000000000000 000000000000000000000000000000000000000     00000000                                                                                                                        000000000000000000
F0010000008175400003000089070997800042505000000000000000000201601270002001CENTRAL DE TORNILLOS                              C000000000200000000000000000000000100010010000000000000000000000F0010000008175400320160127000101 00000000000000000000000000000000000000000000000000000000000000000000000000000000000000000000000000000000000000000N 00000000000NCONT   00    00000000000          00000000000000000000000000000000000000000000 000000000000000A000000000000000000000000000000000000000000000 000000000000000000000000000000000000000     00000000                                                                                                                        000000000000000000
F0010000008175400004000089070997800023658300000000000000000201601270002001CENTRAL DE TORNILLOS                              C000000000013000000000000000000000100010010000000000000000000000F0010000008175400420160127000101 00000000000000000000000000000000000000000000000000000000000000000000000000000000000000000000000000000000000000000N 00000000000NCONT   00    00000000000          00000000000000000000000000000000000000000000 000000000000000A000000000000000000000000000000000000000000000 000000000000000000000000000000000000000     00000000                                                                                                                        000000000000000000
F0010000008175400005000089070997800013552100000000000000000201601270002001CENTRAL DE TORNILLOS                              D000000000013000000000000000000000100010010000000000000000000000F0010000008175400520160127000101 00000000000000000000000000000000000000000000000000000000000000000000000000000000000000000000000000000000000000000N 00000000000NCONT   00    00000000000          00000000000000000000000000000000000000000000 000000000000000A000000000000000000000000000000000000000000000 000000000000000000000000000000000000000     00000000                                                                                                                        000000000000000000
F0010000008175500001000089070997800011050500000000000000000201601270002001CENTRAL DE TORNILLOS                              D000000001820000000000000000000000100010010000000000000000000000F0010000008175500120160127000101 00000000000000000000000000000000000000000000000000000000000000000000000000000000000000000000000000000000000000000N 00000000000NCONT   00    00000000000          00000000000000000000000000000000000000000000 000000000000000A000000000000000000000000000000000000000000000 000000000000000000000000000000000000000     00000000                                                                                                                        000000000000000000
F0010000008175500002000089070997800041450500000000000000000201601270002001CENTRAL DE TORNILLOS                              C000000001620000000000000000000000100010010000000000000000000000F0010000008175500220160127000101 00000000000000000000000000000000000000000000000000000000000000000000000000000000000000000000000000000000000000000N 00000000000NCONT   00    00000000000          00000000000000000000000000000000000000000000 000000000000000A000000000000000000000000000000000000000000000 000000000000000000000000000000000000000     00000000                                                                                                                        000000000000000000
F0010000008175500003000089070997800042505000000000000000000201601270002001CENTRAL DE TORNILLOS                              C000000000200000000000000000000000100010010000000000000000000000F0010000008175500320160127000101 00000000000000000000000000000000000000000000000000000000000000000000000000000000000000000000000000000000000000000N 00000000000NCONT   00    00000000000          00000000000000000000000000000000000000000000 000000000000000A000000000000000000000000000000000000000000000 000000000000000000000000000000000000000     00000000                                                                                                                        000000000000000000
F0010000008175500004000089070997800023658300000000000000000201601270002001CENTRAL DE TORNILLOS                              C000000000013000000000000000000000100010010000000000000000000000F0010000008175500420160127000101 00000000000000000000000000000000000000000000000000000000000000000000000000000000000000000000000000000000000000000N 00000000000NCONT   00    00000000000          00000000000000000000000000000000000000000000 000000000000000A000000000000000000000000000000000000000000000 000000000000000000000000000000000000000     00000000                                                                                                                        000000000000000000
F0010000008175500005000089070997800013552100000000000000000201601270002001CENTRAL DE TORNILLOS                              D000000000013000000000000000000000100010010000000000000000000000F0010000008175500520160127000101 00000000000000000000000000000000000000000000000000000000000000000000000000000000000000000000000000000000000000000N 00000000000NCONT   00    00000000000          00000000000000000000000000000000000000000000 000000000000000A000000000000000000000000000000000000000000000 000000000000000000000000000000000000000     00000000                                                                                                                        000000000000000000
F0010000008175600001000089070997800011050500000000000000000201601270002001CENTRAL DE TORNILLOS                              D000000009100000000000000000000000100010010000000000000000000000F0010000008175600120160127000101 00000000000000000000000000000000000000000000000000000000000000000000000000000000000000000000000000000000000000000N 00000000000NCONT   00    00000000000          00000000000000000000000000000000000000000000 000000000000000A000000000000000000000000000000000000000000000 000000000000000000000000000000000000000     00000000                                                                                                                        000000000000000000
F0010000008175600002000089070997800041450500000000000000000201601270002001CENTRAL DE TORNILLOS                              C000000008100000000000000000000000100010010000000000000000000000F0010000008175600220160127000101 00000000000000000000000000000000000000000000000000000000000000000000000000000000000000000000000000000000000000000N 00000000000NCONT   00    00000000000          00000000000000000000000000000000000000000000 000000000000000A000000000000000000000000000000000000000000000 000000000000000000000000000000000000000     00000000                                                                                                                        000000000000000000
F0010000008175600003000089070997800042505000000000000000000201601270002001CENTRAL DE TORNILLOS                              C000000001000000000000000000000000100010010000000000000000000000F0010000008175600320160127000101 00000000000000000000000000000000000000000000000000000000000000000000000000000000000000000000000000000000000000000N 00000000000NCONT   00    00000000000          00000000000000000000000000000000000000000000 000000000000000A000000000000000000000000000000000000000000000 000000000000000000000000000000000000000     00000000                                                                                                                        000000000000000000
F0010000008175600004000089070997800023658300000000000000000201601270002001CENTRAL DE TORNILLOS                              C000000000064800000000000000000000100010010000000000000000000000F0010000008175600420160127000101 00000000000000000000000000000000000000000000000000000000000000000000000000000000000000000000000000000000000000000N 00000000000NCONT   00    00000000000          00000000000000000000000000000000000000000000 000000000000000A000000000000000000000000000000000000000000000 000000000000000000000000000000000000000     00000000                                                                                                                        000000000000000000
F0010000008175600005000089070997800013552100000000000000000201601270002001CENTRAL DE TORNILLOS                              D000000000064800000000000000000000100010010000000000000000000000F0010000008175600520160127000101 00000000000000000000000000000000000000000000000000000000000000000000000000000000000000000000000000000000000000000N 00000000000NCONT   00    00000000000          00000000000000000000000000000000000000000000 000000000000000A000000000000000000000000000000000000000000000 000000000000000000000000000000000000000     00000000                                                                                                                        000000000000000000
F0010000008175700001000090050144800011050500000000000000000201601270002001PLASTICOS JR ASOCIADOS SAS                        D000000001930000000000000000000000100010010000000000000000000000F0010000008175700120160127000101 00000000000000000000000000000000000000000000000000000000000000000000000000000000000000000000000000000000000000000N 00000000000NCONT   00    00000000000          00000000000000000000000000000000000000000000 000000000000000A000000000000000000000000000000000000000000000 000000000000000000000000000000000000000     00000000                                                                                                                        000000000000000000
F0010000008175700002000090050144800041450500000000000000000201601270002001PLASTICOS JR ASOCIADOS SAS                        C000000001800000000000000000000000100010010000000000000000000000F0010000008175700220160127000101 00000000000000000000000000000000000000000000000000000000000000000000000000000000000000000000000000000000000000000N 00000000000NCONT   00    00000000000          00000000000000000000000000000000000000000000 000000000000000A000000000000000000000000000000000000000000000 000000000000000000000000000000000000000     00000000                                                                                                                        000000000000000000
F0010000008175700003000090050144800042505000000000000000000201601270002001PLASTICOS JR ASOCIADOS SAS                        C000000000130000000000000000000000100010010000000000000000000000F0010000008175700320160127000101 00000000000000000000000000000000000000000000000000000000000000000000000000000000000000000000000000000000000000000N 00000000000NCONT   00    00000000000          00000000000000000000000000000000000000000000 000000000000000A000000000000000000000000000000000000000000000 000000000000000000000000000000000000000     00000000                                                                                                                        000000000000000000
F0010000008175700004000090050144800023658300000000000000000201601270002001PLASTICOS JR ASOCIADOS SAS                        C000000000014400000000000000000000100010010000000000000000000000F0010000008175700420160127000101 00000000000000000000000000000000000000000000000000000000000000000000000000000000000000000000000000000000000000000N 00000000000NCONT   00    00000000000          00000000000000000000000000000000000000000000 000000000000000A000000000000000000000000000000000000000000000 000000000000000000000000000000000000000     00000000                                                                                                                        000000000000000000
F0010000008175700005000090050144800013552100000000000000000201601270002001PLASTICOS JR ASOCIADOS SAS                        D000000000014400000000000000000000100010010000000000000000000000F0010000008175700520160127000101 00000000000000000000000000000000000000000000000000000000000000000000000000000000000000000000000000000000000000000N 00000000000NCONT   00    00000000000          00000000000000000000000000000000000000000000 000000000000000A000000000000000000000000000000000000000000000 000000000000000000000000000000000000000     00000000                                                                                                                        000000000000000000
F0010000008175800001000090050144800011050500000000000000000201601270002001PLASTICOS JR ASOCIADOS SAS                        D000000002300000000000000000000000100010010000000000000000000000F0010000008175800120160127000101 00000000000000000000000000000000000000000000000000000000000000000000000000000000000000000000000000000000000000000N 00000000000NCONT   00    00000000000          00000000000000000000000000000000000000000000 000000000000000A000000000000000000000000000000000000000000000 000000000000000000000000000000000000000     00000000                                                                                                                        000000000000000000
F0010000008175800002000090050144800041450500000000000000000201601270002001PLASTICOS JR ASOCIADOS SAS                        C000000001800000000000000000000000100010010000000000000000000000F0010000008175800220160127000101 00000000000000000000000000000000000000000000000000000000000000000000000000000000000000000000000000000000000000000N 00000000000NCONT   00    00000000000          00000000000000000000000000000000000000000000 000000000000000A000000000000000000000000000000000000000000000 000000000000000000000000000000000000000     00000000                                                                                                                        000000000000000000
