F0010000006019600001000002245670100011050500000000000000000201407120002001YOLANDA  TOBON                                    D000000002600000000000000000000000100010010000000000000000000000F0010000006019600120140712000101 00000000000000000000000000000000000000000000000000000000000000000000000000000000000000000000000000000000000000000N 00000000000NCONT   00    00000000000          00000000000000000000000000000000000000000000 000000000000000A000000000000000000000000000000000000000000000 000000000000000000000000000000000000000     00000000                                                                                                                        000000000000000000
F0010000006019600002000002245670100041450500000000000000000201407120002001YOLANDA  TOBON                                    C000000002150000000000000000000000100010010000000000000000000000F0010000006019600220140712000101 00000000000000000000000000000000000000000000000000000000000000000000000000000000000000000000000000000000000000000N 00000000000NCONT   00    00000000000          00000000000000000000000000000000000000000000 000000000000000A000000000000000000000000000000000000000000000 000000000000000000000000000000000000000     00000000                                                                                                                        000000000000000000
F0010000006019600003000002245670100042505000000000000000000201407120002001YOLANDA  TOBON                                    C000000000450000000000000000000000100010010000000000000000000000F0010000006019600320140712000101 00000000000000000000000000000000000000000000000000000000000000000000000000000000000000000000000000000000000000000N 00000000000NCONT   00    00000000000          00000000000000000000000000000000000000000000 000000000000000A000000000000000000000000000000000000000000000 000000000000000000000000000000000000000     00000000                                                                                                                        000000000000000000
F0010000006019600004000002245670100023658300000000000000000201407120002001YOLANDA  TOBON                                    C000000000017200000000000000000000100010010000000000000000000000F0010000006019600420140712000101 00000000000000000000000000000000000000000000000000000000000000000000000000000000000000000000000000000000000000000N 00000000000NCONT   00    00000000000          00000000000000000000000000000000000000000000 000000000000000A000000000000000000000000000000000000000000000 000000000000000000000000000000000000000     00000000                                                                                                                        000000000000000000
F0010000006019600005000002245670100013552100000000000000000201407120002001YOLANDA  TOBON                                    D000000000017200000000000000000000100010010000000000000000000000F0010000006019600520140712000101 00000000000000000000000000000000000000000000000000000000000000000000000000000000000000000000000000000000000000000N 00000000000NCONT   00    00000000000          00000000000000000000000000000000000000000000 000000000000000A000000000000000000000000000000000000000000000 000000000000000000000000000000000000000     00000000                                                                                                                        000000000000000000
F0010000006019700001000001502923600011050500000000000000000201407120002001ALCIDES MARTINEZ                                  D000000001000000000000000000000000100010010000000000000000000000F0010000006019700120140712000101 00000000000000000000000000000000000000000000000000000000000000000000000000000000000000000000000000000000000000000N 00000000000NCONT   00    00000000000          00000000000000000000000000000000000000000000 000000000000000A000000000000000000000000000000000000000000000 000000000000000000000000000000000000000     00000000                                                                                                                        000000000000000000
F0010000006019700002000001502923600041450500000000000000000201407120002001ALCIDES MARTINEZ                                  C000000000900000000000000000000000100010010000000000000000000000F0010000006019700220140712000101 00000000000000000000000000000000000000000000000000000000000000000000000000000000000000000000000000000000000000000N 00000000000NCONT   00    00000000000          00000000000000000000000000000000000000000000 000000000000000A000000000000000000000000000000000000000000000 000000000000000000000000000000000000000     00000000                                                                                                                        000000000000000000
F0010000006019700003000001502923600042505000000000000000000201407120002001ALCIDES MARTINEZ                                  C000000000100000000000000000000000100010010000000000000000000000F0010000006019700320140712000101 00000000000000000000000000000000000000000000000000000000000000000000000000000000000000000000000000000000000000000N 00000000000NCONT   00    00000000000          00000000000000000000000000000000000000000000 000000000000000A000000000000000000000000000000000000000000000 000000000000000000000000000000000000000     00000000                                                                                                                        000000000000000000
F0010000006019700004000001502923600023658300000000000000000201407120002001ALCIDES MARTINEZ                                  C000000000007200000000000000000000100010010000000000000000000000F0010000006019700420140712000101 00000000000000000000000000000000000000000000000000000000000000000000000000000000000000000000000000000000000000000N 00000000000NCONT   00    00000000000          00000000000000000000000000000000000000000000 000000000000000A000000000000000000000000000000000000000000000 000000000000000000000000000000000000000     00000000                                                                                                                        000000000000000000
F0010000006019700005000001502923600013552100000000000000000201407120002001ALCIDES MARTINEZ                                  D000000000007200000000000000000000100010010000000000000000000000F0010000006019700520140712000101 00000000000000000000000000000000000000000000000000000000000000000000000000000000000000000000000000000000000000000N 00000000000NCONT   00    00000000000          00000000000000000000000000000000000000000000 000000000000000A000000000000000000000000000000000000000000000 000000000000000000000000000000000000000     00000000                                                                                                                        000000000000000000
F0010000006019800001000007223972300011050500000000000000000201407120002001LUIS VALENCIA                                     D000000003700000000000000000000000100010010000000000000000000000F0010000006019800120140712000101 00000000000000000000000000000000000000000000000000000000000000000000000000000000000000000000000000000000000000000N 00000000000NCONT   00    00000000000          00000000000000000000000000000000000000000000 000000000000000A000000000000000000000000000000000000000000000 000000000000000000000000000000000000000     00000000                                                                                                                        000000000000000000
F0010000006019800002000007223972300041450500000000000000000201407120002001LUIS VALENCIA                                     C000000002700000000000000000000000100010010000000000000000000000F0010000006019800220140712000101 00000000000000000000000000000000000000000000000000000000000000000000000000000000000000000000000000000000000000000N 00000000000NCONT   00    00000000000          00000000000000000000000000000000000000000000 000000000000000A000000000000000000000000000000000000000000000 000000000000000000000000000000000000000     00000000                                                                                                                        000000000000000000
F0010000006019800003000007223972300042505000000000000000000201407120002001LUIS VALENCIA                                     C000000001000000000000000000000000100010010000000000000000000000F0010000006019800320140712000101 00000000000000000000000000000000000000000000000000000000000000000000000000000000000000000000000000000000000000000N 00000000000NCONT   00    00000000000          00000000000000000000000000000000000000000000 000000000000000A000000000000000000000000000000000000000000000 000000000000000000000000000000000000000     00000000                                                                                                                        000000000000000000
F0010000006019800004000007223972300023658300000000000000000201407120002001LUIS VALENCIA                                     C000000000021600000000000000000000100010010000000000000000000000F0010000006019800420140712000101 00000000000000000000000000000000000000000000000000000000000000000000000000000000000000000000000000000000000000000N 00000000000NCONT   00    00000000000          00000000000000000000000000000000000000000000 000000000000000A000000000000000000000000000000000000000000000 000000000000000000000000000000000000000     00000000                                                                                                                        000000000000000000
F0010000006019800005000007223972300013552100000000000000000201407120002001LUIS VALENCIA                                     D000000000021600000000000000000000100010010000000000000000000000F0010000006019800520140712000101 00000000000000000000000000000000000000000000000000000000000000000000000000000000000000000000000000000000000000000N 00000000000NCONT   00    00000000000          00000000000000000000000000000000000000000000 000000000000000A000000000000000000000000000000000000000000000 000000000000000000000000000000000000000     00000000                                                                                                                        000000000000000000
F0010000006019900001000090037881900011050500000000000000000201407120002001COMERCIALIZADORA RACOPI S.A.S                     D000000001460000000000000000000000100010010000000000000000000000F0010000006019900120140712000101 00000000000000000000000000000000000000000000000000000000000000000000000000000000000000000000000000000000000000000N 00000000000NCONT   00    00000000000          00000000000000000000000000000000000000000000 000000000000000A000000000000000000000000000000000000000000000 000000000000000000000000000000000000000     00000000                                                                                                                        000000000000000000
F0010000006019900002000090037881900041450500000000000000000201407120002001COMERCIALIZADORA RACOPI S.A.S                     C000000000960000000000000000000000100010010000000000000000000000F0010000006019900220140712000101 00000000000000000000000000000000000000000000000000000000000000000000000000000000000000000000000000000000000000000N 00000000000NCONT   00    00000000000          00000000000000000000000000000000000000000000 000000000000000A000000000000000000000000000000000000000000000 000000000000000000000000000000000000000     00000000                                                                                                                        000000000000000000
F0010000006019900003000090037881900042505000000000000000000201407120002001COMERCIALIZADORA RACOPI S.A.S                     C000000000500000000000000000000000100010010000000000000000000000F0010000006019900320140712000101 00000000000000000000000000000000000000000000000000000000000000000000000000000000000000000000000000000000000000000N 00000000000NCONT   00    00000000000          00000000000000000000000000000000000000000000 000000000000000A000000000000000000000000000000000000000000000 000000000000000000000000000000000000000     00000000                                                                                                                        000000000000000000
F0010000006019900004000090037881900023658300000000000000000201407120002001COMERCIALIZADORA RACOPI S.A.S                     C000000000007700000000000000000000100010010000000000000000000000F0010000006019900420140712000101 00000000000000000000000000000000000000000000000000000000000000000000000000000000000000000000000000000000000000000N 00000000000NCONT   00    00000000000          00000000000000000000000000000000000000000000 000000000000000A000000000000000000000000000000000000000000000 000000000000000000000000000000000000000     00000000                                                                                                                        000000000000000000
F0010000006019900005000090037881900013552100000000000000000201407120002001COMERCIALIZADORA RACOPI S.A.S                     D000000000007700000000000000000000100010010000000000000000000000F0010000006019900520140712000101 00000000000000000000000000000000000000000000000000000000000000000000000000000000000000000000000000000000000000000N 00000000000NCONT   00    00000000000          00000000000000000000000000000000000000000000 000000000000000A000000000000000000000000000000000000000000000 000000000000000000000000000000000000000     00000000                                                                                                                        000000000000000000
F0010000006020000001000000000000000011050500000000000000000201407120002001MARLYN GARCIA                                     D000000001100000000000000000000000100010010000000000000000000000F0010000006020000120140712000101 00000000000000000000000000000000000000000000000000000000000000000000000000000000000000000000000000000000000000000N 00000000000NCONT   00    00000000000          00000000000000000000000000000000000000000000 000000000000000A000000000000000000000000000000000000000000000 000000000000000000000000000000000000000     00000000                                                                                                                        000000000000000000
F0010000006020000002000000000000000041450500000000000000000201407120002001MARLYN GARCIA                                     C000000000900000000000000000000000100010010000000000000000000000F0010000006020000220140712000101 00000000000000000000000000000000000000000000000000000000000000000000000000000000000000000000000000000000000000000N 00000000000NCONT   00    00000000000          00000000000000000000000000000000000000000000 000000000000000A000000000000000000000000000000000000000000000 000000000000000000000000000000000000000     00000000                                                                                                                        000000000000000000
F0010000006020000003000000000000000042505000000000000000000201407120002001MARLYN GARCIA                                     C000000000200000000000000000000000100010010000000000000000000000F0010000006020000320140712000101 00000000000000000000000000000000000000000000000000000000000000000000000000000000000000000000000000000000000000000N 00000000000NCONT   00    00000000000          00000000000000000000000000000000000000000000 000000000000000A000000000000000000000000000000000000000000000 000000000000000000000000000000000000000     00000000                                                                                                                        000000000000000000
F0010000006020000004000000000000000023658300000000000000000201407120002001MARLYN GARCIA                                     C000000000007200000000000000000000100010010000000000000000000000F0010000006020000420140712000101 00000000000000000000000000000000000000000000000000000000000000000000000000000000000000000000000000000000000000000N 00000000000NCONT   00    00000000000          00000000000000000000000000000000000000000000 000000000000000A000000000000000000000000000000000000000000000 000000000000000000000000000000000000000     00000000                                                                                                                        000000000000000000
F0010000006020000005000000000000000013552100000000000000000201407120002001MARLYN GARCIA                                     D000000000007200000000000000000000100010010000000000000000000000F0010000006020000520140712000101 00000000000000000000000000000000000000000000000000000000000000000000000000000000000000000000000000000000000000000N 00000000000NCONT   00    00000000000          00000000000000000000000000000000000000000000 000000000000000A000000000000000000000000000000000000000000000 000000000000000000000000000000000000000     00000000                                                                                                                        000000000000000000
F0010000006020100001000000431178400011050500000000000000000201407120002001EFRAIN ALVAREZ                                    D000000001770000000000000000000000100010010000000000000000000000F0010000006020100120140712000101 00000000000000000000000000000000000000000000000000000000000000000000000000000000000000000000000000000000000000000N 00000000000NCONT   00    00000000000          00000000000000000000000000000000000000000000 000000000000000A000000000000000000000000000000000000000000000 000000000000000000000000000000000000000     00000000                                                                                                                        000000000000000000
F0010000006020100002000000431178400041450500000000000000000201407120002001EFRAIN ALVAREZ                                    C000000001720000000000000000000000100010010000000000000000000000F0010000006020100220140712000101 00000000000000000000000000000000000000000000000000000000000000000000000000000000000000000000000000000000000000000N 00000000000NCONT   00    00000000000          00000000000000000000000000000000000000000000 000000000000000A000000000000000000000000000000000000000000000 000000000000000000000000000000000000000     00000000                                                                                                                        000000000000000000
F0010000006020100003000000431178400042505000000000000000000201407120002001EFRAIN ALVAREZ                                    C000000000050000000000000000000000100010010000000000000000000000F0010000006020100320140712000101 00000000000000000000000000000000000000000000000000000000000000000000000000000000000000000000000000000000000000000N 00000000000NCONT   00    00000000000          00000000000000000000000000000000000000000000 000000000000000A000000000000000000000000000000000000000000000 000000000000000000000000000000000000000     00000000                                                                                                                        000000000000000000
F0010000006020100004000000431178400023658300000000000000000201407120002001EFRAIN ALVAREZ                                    C000000000013800000000000000000000100010010000000000000000000000F0010000006020100420140712000101 00000000000000000000000000000000000000000000000000000000000000000000000000000000000000000000000000000000000000000N 00000000000NCONT   00    00000000000          00000000000000000000000000000000000000000000 000000000000000A000000000000000000000000000000000000000000000 000000000000000000000000000000000000000     00000000                                                                                                                        000000000000000000
F0010000006020100005000000431178400013552100000000000000000201407120002001EFRAIN ALVAREZ                                    D000000000013800000000000000000000100010010000000000000000000000F0010000006020100520140712000101 00000000000000000000000000000000000000000000000000000000000000000000000000000000000000000000000000000000000000000N 00000000000NCONT   00    00000000000          00000000000000000000000000000000000000000000 000000000000000A000000000000000000000000000000000000000000000 000000000000000000000000000000000000000     00000000                                                                                                                        000000000000000000
F0010000006020200001000000431178400011050500000000000000000201407120002001EFRAIN ALVAREZ                                    D000000000910000000000000000000000100010010000000000000000000000F0010000006020200120140712000101 00000000000000000000000000000000000000000000000000000000000000000000000000000000000000000000000000000000000000000N 00000000000NCONT   00    00000000000          00000000000000000000000000000000000000000000 000000000000000A000000000000000000000000000000000000000000000 000000000000000000000000000000000000000     00000000                                                                                                                        000000000000000000
F0010000006020200002000000431178400041450500000000000000000201407120002001EFRAIN ALVAREZ                                    C000000000860000000000000000000000100010010000000000000000000000F0010000006020200220140712000101 00000000000000000000000000000000000000000000000000000000000000000000000000000000000000000000000000000000000000000N 00000000000NCONT   00    00000000000          00000000000000000000000000000000000000000000 000000000000000A000000000000000000000000000000000000000000000 000000000000000000000000000000000000000     00000000                                                                                                                        000000000000000000
F0010000006020200003000000431178400042505000000000000000000201407120002001EFRAIN ALVAREZ                                    C000000000050000000000000000000000100010010000000000000000000000F0010000006020200320140712000101 00000000000000000000000000000000000000000000000000000000000000000000000000000000000000000000000000000000000000000N 00000000000NCONT   00    00000000000          00000000000000000000000000000000000000000000 000000000000000A000000000000000000000000000000000000000000000 000000000000000000000000000000000000000     00000000                                                                                                                        000000000000000000
F0010000006020200004000000431178400023658300000000000000000201407120002001EFRAIN ALVAREZ                                    C000000000006900000000000000000000100010010000000000000000000000F0010000006020200420140712000101 00000000000000000000000000000000000000000000000000000000000000000000000000000000000000000000000000000000000000000N 00000000000NCONT   00    00000000000          00000000000000000000000000000000000000000000 000000000000000A000000000000000000000000000000000000000000000 000000000000000000000000000000000000000     00000000                                                                                                                        000000000000000000
F0010000006020200005000000431178400013552100000000000000000201407120002001EFRAIN ALVAREZ                                    D000000000006900000000000000000000100010010000000000000000000000F0010000006020200520140712000101 00000000000000000000000000000000000000000000000000000000000000000000000000000000000000000000000000000000000000000N 00000000000NCONT   00    00000000000          00000000000000000000000000000000000000000000 000000000000000A000000000000000000000000000000000000000000000 000000000000000000000000000000000000000     00000000                                                                                                                        000000000000000000
F0010000006020300001000001022529300011050500000000000000000201407120002001ALBERTO ALVAREZ ISAZA                             D000000000900000000000000000000000100010010000000000000000000000F0010000006020300120140712000101 00000000000000000000000000000000000000000000000000000000000000000000000000000000000000000000000000000000000000000N 00000000000NCONT   00    00000000000          00000000000000000000000000000000000000000000 000000000000000A000000000000000000000000000000000000000000000 000000000000000000000000000000000000000     00000000                                                                                                                        000000000000000000
F0010000006020300002000001022529300041450500000000000000000201407120002001ALBERTO ALVAREZ ISAZA                             C000000000860000000000000000000000100010010000000000000000000000F0010000006020300220140712000101 00000000000000000000000000000000000000000000000000000000000000000000000000000000000000000000000000000000000000000N 00000000000NCONT   00    00000000000          00000000000000000000000000000000000000000000 000000000000000A000000000000000000000000000000000000000000000 000000000000000000000000000000000000000     00000000                                                                                                                        000000000000000000
F0010000006020300003000001022529300042505000000000000000000201407120002001ALBERTO ALVAREZ ISAZA                             C000000000040000000000000000000000100010010000000000000000000000F0010000006020300320140712000101 00000000000000000000000000000000000000000000000000000000000000000000000000000000000000000000000000000000000000000N 00000000000NCONT   00    00000000000          00000000000000000000000000000000000000000000 000000000000000A000000000000000000000000000000000000000000000 000000000000000000000000000000000000000     00000000                                                                                                                        000000000000000000
F0010000006020300004000001022529300023658300000000000000000201407120002001ALBERTO ALVAREZ ISAZA                             C000000000006900000000000000000000100010010000000000000000000000F0010000006020300420140712000101 00000000000000000000000000000000000000000000000000000000000000000000000000000000000000000000000000000000000000000N 00000000000NCONT   00    00000000000          00000000000000000000000000000000000000000000 000000000000000A000000000000000000000000000000000000000000000 000000000000000000000000000000000000000     00000000                                                                                                                        000000000000000000
F0010000006020300005000001022529300013552100000000000000000201407120002001ALBERTO ALVAREZ ISAZA                             D000000000006900000000000000000000100010010000000000000000000000F0010000006020300520140712000101 00000000000000000000000000000000000000000000000000000000000000000000000000000000000000000000000000000000000000000N 00000000000NCONT   00    00000000000          00000000000000000000000000000000000000000000 000000000000000A000000000000000000000000000000000000000000000 000000000000000000000000000000000000000     00000000                                                                                                                        000000000000000000
F0010000006020400001000007200023300011050500000000000000000201407120002001WILLIAM ORTEGA                                    D000000002000000000000000000000000100010010000000000000000000000F0010000006020400120140712000101 00000000000000000000000000000000000000000000000000000000000000000000000000000000000000000000000000000000000000000N 00000000000NCONT   00    00000000000          00000000000000000000000000000000000000000000 000000000000000A000000000000000000000000000000000000000000000 000000000000000000000000000000000000000     00000000                                                                                                                        000000000000000000
F0010000006020400002000007200023300041450500000000000000000201407120002001WILLIAM ORTEGA                                    C000000001800000000000000000000000100010010000000000000000000000F0010000006020400220140712000101 00000000000000000000000000000000000000000000000000000000000000000000000000000000000000000000000000000000000000000N 00000000000NCONT   00    00000000000          00000000000000000000000000000000000000000000 000000000000000A000000000000000000000000000000000000000000000 000000000000000000000000000000000000000     00000000                                                                                                                        000000000000000000
F0010000006020400003000007200023300042505000000000000000000201407120002001WILLIAM ORTEGA                                    C000000000200000000000000000000000100010010000000000000000000000F0010000006020400320140712000101 00000000000000000000000000000000000000000000000000000000000000000000000000000000000000000000000000000000000000000N 00000000000NCONT   00    00000000000          00000000000000000000000000000000000000000000 000000000000000A000000000000000000000000000000000000000000000 000000000000000000000000000000000000000     00000000                                                                                                                        000000000000000000
F0010000006020400004000007200023300023658300000000000000000201407120002001WILLIAM ORTEGA                                    C000000000014400000000000000000000100010010000000000000000000000F0010000006020400420140712000101 00000000000000000000000000000000000000000000000000000000000000000000000000000000000000000000000000000000000000000N 00000000000NCONT   00    00000000000          00000000000000000000000000000000000000000000 000000000000000A000000000000000000000000000000000000000000000 000000000000000000000000000000000000000     00000000                                                                                                                        000000000000000000
F0010000006020400005000007200023300013552100000000000000000201407120002001WILLIAM ORTEGA                                    D000000000014400000000000000000000100010010000000000000000000000F0010000006020400520140712000101 00000000000000000000000000000000000000000000000000000000000000000000000000000000000000000000000000000000000000000N 00000000000NCONT   00    00000000000          00000000000000000000000000000000000000000000 000000000000000A000000000000000000000000000000000000000000000 000000000000000000000000000000000000000     00000000                                                                                                                        000000000000000000
F0010000006020500001000007217025600011050500000000000000000201407120002001CRISTIAN JIMENEZ                                  D000000008000000000000000000000000100010010000000000000000000000F0010000006020500120140712000101 00000000000000000000000000000000000000000000000000000000000000000000000000000000000000000000000000000000000000000N 00000000000NCONT   00    00000000000          00000000000000000000000000000000000000000000 000000000000000A000000000000000000000000000000000000000000000 000000000000000000000000000000000000000     00000000                                                                                                                        000000000000000000
F0010000006020500002000007217025600041450500000000000000000201407120002001CRISTIAN JIMENEZ                                  C000000007900000000000000000000000100010010000000000000000000000F0010000006020500220140712000101 00000000000000000000000000000000000000000000000000000000000000000000000000000000000000000000000000000000000000000N 00000000000NCONT   00    00000000000          00000000000000000000000000000000000000000000 000000000000000A000000000000000000000000000000000000000000000 000000000000000000000000000000000000000     00000000                                                                                                                        000000000000000000
F0010000006020500003000007217025600042505000000000000000000201407120002001CRISTIAN JIMENEZ                                  C000000000100000000000000000000000100010010000000000000000000000F0010000006020500320140712000101 00000000000000000000000000000000000000000000000000000000000000000000000000000000000000000000000000000000000000000N 00000000000NCONT   00    00000000000          00000000000000000000000000000000000000000000 000000000000000A000000000000000000000000000000000000000000000 000000000000000000000000000000000000000     00000000                                                                                                                        000000000000000000
F0010000006020500004000007217025600023658300000000000000000201407120002001CRISTIAN JIMENEZ                                  C000000000063200000000000000000000100010010000000000000000000000F0010000006020500420140712000101 00000000000000000000000000000000000000000000000000000000000000000000000000000000000000000000000000000000000000000N 00000000000NCONT   00    00000000000          00000000000000000000000000000000000000000000 000000000000000A000000000000000000000000000000000000000000000 000000000000000000000000000000000000000     00000000                                                                                                                        000000000000000000
F0010000006020500005000007217025600013552100000000000000000201407120002001CRISTIAN JIMENEZ                                  D000000000063200000000000000000000100010010000000000000000000000F0010000006020500520140712000101 00000000000000000000000000000000000000000000000000000000000000000000000000000000000000000000000000000000000000000N 00000000000NCONT   00    00000000000          00000000000000000000000000000000000000000000 000000000000000A000000000000000000000000000000000000000000000 000000000000000000000000000000000000000     00000000                                                                                                                        000000000000000000
F0010000006020600001000090020547900011050500000000000000000201407120002001DAC DEL CARIBE S.A.S.                             D000000001600000000000000000000000100010010000000000000000000000F0010000006020600120140712000101 00000000000000000000000000000000000000000000000000000000000000000000000000000000000000000000000000000000000000000N 00000000000NCONT   00    00000000000          00000000000000000000000000000000000000000000 000000000000000A000000000000000000000000000000000000000000000 000000000000000000000000000000000000000     00000000                                                                                                                        000000000000000000
F0010000006020600002000090020547900041450500000000000000000201407120002001DAC DEL CARIBE S.A.S.                             C000000001200000000000000000000000100010010000000000000000000000F0010000006020600220140712000101 00000000000000000000000000000000000000000000000000000000000000000000000000000000000000000000000000000000000000000N 00000000000NCONT   00    00000000000          00000000000000000000000000000000000000000000 000000000000000A000000000000000000000000000000000000000000000 000000000000000000000000000000000000000     00000000                                                                                                                        000000000000000000
F0010000006020600003000090020547900042505000000000000000000201407120002001DAC DEL CARIBE S.A.S.                             C000000000400000000000000000000000100010010000000000000000000000F0010000006020600320140712000101 00000000000000000000000000000000000000000000000000000000000000000000000000000000000000000000000000000000000000000N 00000000000NCONT   00    00000000000          00000000000000000000000000000000000000000000 000000000000000A000000000000000000000000000000000000000000000 000000000000000000000000000000000000000     00000000                                                                                                                        000000000000000000
F0010000006020600004000090020547900023658300000000000000000201407120002001DAC DEL CARIBE S.A.S.                             C000000000009600000000000000000000100010010000000000000000000000F0010000006020600420140712000101 00000000000000000000000000000000000000000000000000000000000000000000000000000000000000000000000000000000000000000N 00000000000NCONT   00    00000000000          00000000000000000000000000000000000000000000 000000000000000A000000000000000000000000000000000000000000000 000000000000000000000000000000000000000     00000000                                                                                                                        000000000000000000
F0010000006020600005000090020547900013552100000000000000000201407120002001DAC DEL CARIBE S.A.S.                             D000000000009600000000000000000000100010010000000000000000000000F0010000006020600520140712000101 00000000000000000000000000000000000000000000000000000000000000000000000000000000000000000000000000000000000000000N 00000000000NCONT   00    00000000000          00000000000000000000000000000000000000000000 000000000000000A000000000000000000000000000000000000000000000 000000000000000000000000000000000000000     00000000                                                                                                                        000000000000000000
F0010000006020700001000090020547900011050500000000000000000201407120002001DAC DEL CARIBE S.A.S.                             D000000001600000000000000000000000100010010000000000000000000000F0010000006020700120140712000101 00000000000000000000000000000000000000000000000000000000000000000000000000000000000000000000000000000000000000000N 00000000000NCONT   00    00000000000          00000000000000000000000000000000000000000000 000000000000000A000000000000000000000000000000000000000000000 000000000000000000000000000000000000000     00000000                                                                                                                        000000000000000000
F0010000006020700002000090020547900041450500000000000000000201407120002001DAC DEL CARIBE S.A.S.                             C000000001200000000000000000000000100010010000000000000000000000F0010000006020700220140712000101 00000000000000000000000000000000000000000000000000000000000000000000000000000000000000000000000000000000000000000N 00000000000NCONT   00    00000000000          00000000000000000000000000000000000000000000 000000000000000A000000000000000000000000000000000000000000000 000000000000000000000000000000000000000     00000000                                                                                                                        000000000000000000
F0010000006020700003000090020547900042505000000000000000000201407120002001DAC DEL CARIBE S.A.S.                             C000000000400000000000000000000000100010010000000000000000000000F0010000006020700320140712000101 00000000000000000000000000000000000000000000000000000000000000000000000000000000000000000000000000000000000000000N 00000000000NCONT   00    00000000000          00000000000000000000000000000000000000000000 000000000000000A000000000000000000000000000000000000000000000 000000000000000000000000000000000000000     00000000                                                                                                                        000000000000000000
F0010000006020700004000090020547900023658300000000000000000201407120002001DAC DEL CARIBE S.A.S.                             C000000000009600000000000000000000100010010000000000000000000000F0010000006020700420140712000101 00000000000000000000000000000000000000000000000000000000000000000000000000000000000000000000000000000000000000000N 00000000000NCONT   00    00000000000          00000000000000000000000000000000000000000000 000000000000000A000000000000000000000000000000000000000000000 000000000000000000000000000000000000000     00000000                                                                                                                        000000000000000000
F0010000006020700005000090020547900013552100000000000000000201407120002001DAC DEL CARIBE S.A.S.                             D000000000009600000000000000000000100010010000000000000000000000F0010000006020700520140712000101 00000000000000000000000000000000000000000000000000000000000000000000000000000000000000000000000000000000000000000N 00000000000NCONT   00    00000000000          00000000000000000000000000000000000000000000 000000000000000A000000000000000000000000000000000000000000000 000000000000000000000000000000000000000     00000000                                                                                                                        000000000000000000
F0010000006020800001000090020547900011050500000000000000000201407120002001DAC DEL CARIBE S.A.S.                             D000000002100000000000000000000000100010010000000000000000000000F0010000006020800120140712000101 00000000000000000000000000000000000000000000000000000000000000000000000000000000000000000000000000000000000000000N 00000000000NCONT   00    00000000000          00000000000000000000000000000000000000000000 000000000000000A000000000000000000000000000000000000000000000 000000000000000000000000000000000000000     00000000                                                                                                                        000000000000000000
F0010000006020800002000090020547900041450500000000000000000201407120002001DAC DEL CARIBE S.A.S.                             C000000001800000000000000000000000100010010000000000000000000000F0010000006020800220140712000101 00000000000000000000000000000000000000000000000000000000000000000000000000000000000000000000000000000000000000000N 00000000000NCONT   00    00000000000          00000000000000000000000000000000000000000000 000000000000000A000000000000000000000000000000000000000000000 000000000000000000000000000000000000000     00000000                                                                                                                        000000000000000000
F0010000006020800003000090020547900042505000000000000000000201407120002001DAC DEL CARIBE S.A.S.                             C000000000300000000000000000000000100010010000000000000000000000F0010000006020800320140712000101 00000000000000000000000000000000000000000000000000000000000000000000000000000000000000000000000000000000000000000N 00000000000NCONT   00    00000000000          00000000000000000000000000000000000000000000 000000000000000A000000000000000000000000000000000000000000000 000000000000000000000000000000000000000     00000000                                                                                                                        000000000000000000
F0010000006020800004000090020547900023658300000000000000000201407120002001DAC DEL CARIBE S.A.S.                             C000000000014400000000000000000000100010010000000000000000000000F0010000006020800420140712000101 00000000000000000000000000000000000000000000000000000000000000000000000000000000000000000000000000000000000000000N 00000000000NCONT   00    00000000000          00000000000000000000000000000000000000000000 000000000000000A000000000000000000000000000000000000000000000 000000000000000000000000000000000000000     00000000                                                                                                                        000000000000000000
F0010000006020800005000090020547900013552100000000000000000201407120002001DAC DEL CARIBE S.A.S.                             D000000000014400000000000000000000100010010000000000000000000000F0010000006020800520140712000101 00000000000000000000000000000000000000000000000000000000000000000000000000000000000000000000000000000000000000000N 00000000000NCONT   00    00000000000          00000000000000000000000000000000000000000000 000000000000000A000000000000000000000000000000000000000000000 000000000000000000000000000000000000000     00000000                                                                                                                        000000000000000000
F0010000006020900001000090020547900011050500000000000000000201407120002001DAC DEL CARIBE S.A.S.                             D000000001650000000000000000000000100010010000000000000000000000F0010000006020900120140712000101 00000000000000000000000000000000000000000000000000000000000000000000000000000000000000000000000000000000000000000N 00000000000NCONT   00    00000000000          00000000000000000000000000000000000000000000 000000000000000A000000000000000000000000000000000000000000000 000000000000000000000000000000000000000     00000000                                                                                                                        000000000000000000
F0010000006020900002000090020547900041450500000000000000000201407120002001DAC DEL CARIBE S.A.S.                             C000000001200000000000000000000000100010010000000000000000000000F0010000006020900220140712000101 00000000000000000000000000000000000000000000000000000000000000000000000000000000000000000000000000000000000000000N 00000000000NCONT   00    00000000000          00000000000000000000000000000000000000000000 000000000000000A000000000000000000000000000000000000000000000 000000000000000000000000000000000000000     00000000                                                                                                                        000000000000000000
F0010000006020900003000090020547900042505000000000000000000201407120002001DAC DEL CARIBE S.A.S.                             C000000000450000000000000000000000100010010000000000000000000000F0010000006020900320140712000101 00000000000000000000000000000000000000000000000000000000000000000000000000000000000000000000000000000000000000000N 00000000000NCONT   00    00000000000          00000000000000000000000000000000000000000000 000000000000000A000000000000000000000000000000000000000000000 000000000000000000000000000000000000000     00000000                                                                                                                        000000000000000000
F0010000006020900004000090020547900023658300000000000000000201407120002001DAC DEL CARIBE S.A.S.                             C000000000009600000000000000000000100010010000000000000000000000F0010000006020900420140712000101 00000000000000000000000000000000000000000000000000000000000000000000000000000000000000000000000000000000000000000N 00000000000NCONT   00    00000000000          00000000000000000000000000000000000000000000 000000000000000A000000000000000000000000000000000000000000000 000000000000000000000000000000000000000     00000000                                                                                                                        000000000000000000
F0010000006020900005000090020547900013552100000000000000000201407120002001DAC DEL CARIBE S.A.S.                             D000000000009600000000000000000000100010010000000000000000000000F0010000006020900520140712000101 00000000000000000000000000000000000000000000000000000000000000000000000000000000000000000000000000000000000000000N 00000000000NCONT   00    00000000000          00000000000000000000000000000000000000000000 000000000000000A000000000000000000000000000000000000000000000 000000000000000000000000000000000000000     00000000                                                                                                                        000000000000000000
F0010000006021000001000090020547900011050500000000000000000201407120002001DAC DEL CARIBE S.A.S.                             D000000001600000000000000000000000100010010000000000000000000000F0010000006021000120140712000101 00000000000000000000000000000000000000000000000000000000000000000000000000000000000000000000000000000000000000000N 00000000000NCONT   00    00000000000          00000000000000000000000000000000000000000000 000000000000000A000000000000000000000000000000000000000000000 000000000000000000000000000000000000000     00000000                                                                                                                        000000000000000000
F0010000006021000002000090020547900041450500000000000000000201407120002001DAC DEL CARIBE S.A.S.                             C000000001200000000000000000000000100010010000000000000000000000F0010000006021000220140712000101 00000000000000000000000000000000000000000000000000000000000000000000000000000000000000000000000000000000000000000N 00000000000NCONT   00    00000000000          00000000000000000000000000000000000000000000 000000000000000A000000000000000000000000000000000000000000000 000000000000000000000000000000000000000     00000000                                                                                                                        000000000000000000
F0010000006021000003000090020547900042505000000000000000000201407120002001DAC DEL CARIBE S.A.S.                             C000000000400000000000000000000000100010010000000000000000000000F0010000006021000320140712000101 00000000000000000000000000000000000000000000000000000000000000000000000000000000000000000000000000000000000000000N 00000000000NCONT   00    00000000000          00000000000000000000000000000000000000000000 000000000000000A000000000000000000000000000000000000000000000 000000000000000000000000000000000000000     00000000                                                                                                                        000000000000000000
F0010000006021000004000090020547900023658300000000000000000201407120002001DAC DEL CARIBE S.A.S.                             C000000000009600000000000000000000100010010000000000000000000000F0010000006021000420140712000101 00000000000000000000000000000000000000000000000000000000000000000000000000000000000000000000000000000000000000000N 00000000000NCONT   00    00000000000          00000000000000000000000000000000000000000000 000000000000000A000000000000000000000000000000000000000000000 000000000000000000000000000000000000000     00000000                                                                                                                        000000000000000000
F0010000006021000005000090020547900013552100000000000000000201407120002001DAC DEL CARIBE S.A.S.                             D000000000009600000000000000000000100010010000000000000000000000F0010000006021000520140712000101 00000000000000000000000000000000000000000000000000000000000000000000000000000000000000000000000000000000000000000N 00000000000NCONT   00    00000000000          00000000000000000000000000000000000000000000 000000000000000A000000000000000000000000000000000000000000000 000000000000000000000000000000000000000     00000000                                                                                                                        000000000000000000
F0010000006021100001000090020547900011050500000000000000000201407120002001DAC DEL CARIBE S.A.S.                             D000000001600000000000000000000000100010010000000000000000000000F0010000006021100120140712000101 00000000000000000000000000000000000000000000000000000000000000000000000000000000000000000000000000000000000000000N 00000000000NCONT   00    00000000000          00000000000000000000000000000000000000000000 000000000000000A000000000000000000000000000000000000000000000 000000000000000000000000000000000000000     00000000                                                                                                                        000000000000000000
F0010000006021100002000090020547900041450500000000000000000201407120002001DAC DEL CARIBE S.A.S.                             C000000001200000000000000000000000100010010000000000000000000000F0010000006021100220140712000101 00000000000000000000000000000000000000000000000000000000000000000000000000000000000000000000000000000000000000000N 00000000000NCONT   00    00000000000          00000000000000000000000000000000000000000000 000000000000000A000000000000000000000000000000000000000000000 000000000000000000000000000000000000000     00000000                                                                                                                        000000000000000000
F0010000006021100003000090020547900042505000000000000000000201407120002001DAC DEL CARIBE S.A.S.                             C000000000400000000000000000000000100010010000000000000000000000F0010000006021100320140712000101 00000000000000000000000000000000000000000000000000000000000000000000000000000000000000000000000000000000000000000N 00000000000NCONT   00    00000000000          00000000000000000000000000000000000000000000 000000000000000A000000000000000000000000000000000000000000000 000000000000000000000000000000000000000     00000000                                                                                                                        000000000000000000
F0010000006021100004000090020547900023658300000000000000000201407120002001DAC DEL CARIBE S.A.S.                             C000000000009600000000000000000000100010010000000000000000000000F0010000006021100420140712000101 00000000000000000000000000000000000000000000000000000000000000000000000000000000000000000000000000000000000000000N 00000000000NCONT   00    00000000000          00000000000000000000000000000000000000000000 000000000000000A000000000000000000000000000000000000000000000 000000000000000000000000000000000000000     00000000                                                                                                                        000000000000000000
F0010000006021100005000090020547900013552100000000000000000201407120002001DAC DEL CARIBE S.A.S.                             D000000000009600000000000000000000100010010000000000000000000000F0010000006021100520140712000101 00000000000000000000000000000000000000000000000000000000000000000000000000000000000000000000000000000000000000000N 00000000000NCONT   00    00000000000          00000000000000000000000000000000000000000000 000000000000000A000000000000000000000000000000000000000000000 000000000000000000000000000000000000000     00000000                                                                                                                        000000000000000000
F0010000006021200001000090020547900011050500000000000000000201407120002001DAC DEL CARIBE S.A.S.                             D000000001600000000000000000000000100010010000000000000000000000F0010000006021200120140712000101 00000000000000000000000000000000000000000000000000000000000000000000000000000000000000000000000000000000000000000N 00000000000NCONT   00    00000000000          00000000000000000000000000000000000000000000 000000000000000A000000000000000000000000000000000000000000000 000000000000000000000000000000000000000     00000000                                                                                                                        000000000000000000
F0010000006021200002000090020547900041450500000000000000000201407120002001DAC DEL CARIBE S.A.S.                             C000000001200000000000000000000000100010010000000000000000000000F0010000006021200220140712000101 00000000000000000000000000000000000000000000000000000000000000000000000000000000000000000000000000000000000000000N 00000000000NCONT   00    00000000000          00000000000000000000000000000000000000000000 000000000000000A000000000000000000000000000000000000000000000 000000000000000000000000000000000000000     00000000                                                                                                                        000000000000000000
F0010000006021200003000090020547900042505000000000000000000201407120002001DAC DEL CARIBE S.A.S.                             C000000000400000000000000000000000100010010000000000000000000000F0010000006021200320140712000101 00000000000000000000000000000000000000000000000000000000000000000000000000000000000000000000000000000000000000000N 00000000000NCONT   00    00000000000          00000000000000000000000000000000000000000000 000000000000000A000000000000000000000000000000000000000000000 000000000000000000000000000000000000000     00000000                                                                                                                        000000000000000000
F0010000006021200004000090020547900023658300000000000000000201407120002001DAC DEL CARIBE S.A.S.                             C000000000009600000000000000000000100010010000000000000000000000F0010000006021200420140712000101 00000000000000000000000000000000000000000000000000000000000000000000000000000000000000000000000000000000000000000N 00000000000NCONT   00    00000000000          00000000000000000000000000000000000000000000 000000000000000A000000000000000000000000000000000000000000000 000000000000000000000000000000000000000     00000000                                                                                                                        000000000000000000
F0010000006021200005000090020547900013552100000000000000000201407120002001DAC DEL CARIBE S.A.S.                             D000000000009600000000000000000000100010010000000000000000000000F0010000006021200520140712000101 00000000000000000000000000000000000000000000000000000000000000000000000000000000000000000000000000000000000000000N 00000000000NCONT   00    00000000000          00000000000000000000000000000000000000000000 000000000000000A000000000000000000000000000000000000000000000 000000000000000000000000000000000000000     00000000                                                                                                                        000000000000000000
F0010000006021300001000090020547900011050500000000000000000201407120002001DAC DEL CARIBE S.A.S.                             D000000001600000000000000000000000100010010000000000000000000000F0010000006021300120140712000101 00000000000000000000000000000000000000000000000000000000000000000000000000000000000000000000000000000000000000000N 00000000000NCONT   00    00000000000          00000000000000000000000000000000000000000000 000000000000000A000000000000000000000000000000000000000000000 000000000000000000000000000000000000000     00000000                                                                                                                        000000000000000000
F0010000006021300002000090020547900041450500000000000000000201407120002001DAC DEL CARIBE S.A.S.                             C000000001200000000000000000000000100010010000000000000000000000F0010000006021300220140712000101 00000000000000000000000000000000000000000000000000000000000000000000000000000000000000000000000000000000000000000N 00000000000NCONT   00    00000000000          00000000000000000000000000000000000000000000 000000000000000A000000000000000000000000000000000000000000000 000000000000000000000000000000000000000     00000000                                                                                                                        000000000000000000
F0010000006021300003000090020547900042505000000000000000000201407120002001DAC DEL CARIBE S.A.S.                             C000000000400000000000000000000000100010010000000000000000000000F0010000006021300320140712000101 00000000000000000000000000000000000000000000000000000000000000000000000000000000000000000000000000000000000000000N 00000000000NCONT   00    00000000000          00000000000000000000000000000000000000000000 000000000000000A000000000000000000000000000000000000000000000 000000000000000000000000000000000000000     00000000                                                                                                                        000000000000000000
F0010000006021300004000090020547900023658300000000000000000201407120002001DAC DEL CARIBE S.A.S.                             C000000000009600000000000000000000100010010000000000000000000000F0010000006021300420140712000101 00000000000000000000000000000000000000000000000000000000000000000000000000000000000000000000000000000000000000000N 00000000000NCONT   00    00000000000          00000000000000000000000000000000000000000000 000000000000000A000000000000000000000000000000000000000000000 000000000000000000000000000000000000000     00000000                                                                                                                        000000000000000000
F0010000006021300005000090020547900013552100000000000000000201407120002001DAC DEL CARIBE S.A.S.                             D000000000009600000000000000000000100010010000000000000000000000F0010000006021300520140712000101 00000000000000000000000000000000000000000000000000000000000000000000000000000000000000000000000000000000000000000N 00000000000NCONT   00    00000000000          00000000000000000000000000000000000000000000 000000000000000A000000000000000000000000000000000000000000000 000000000000000000000000000000000000000     00000000                                                                                                                        000000000000000000
F0010000006021400001000090020547900011050500000000000000000201407120002001DAC DEL CARIBE S.A.S.                             D000000001400000000000000000000000100010010000000000000000000000F0010000006021400120140712000101 00000000000000000000000000000000000000000000000000000000000000000000000000000000000000000000000000000000000000000N 00000000000NCONT   00    00000000000          00000000000000000000000000000000000000000000 000000000000000A000000000000000000000000000000000000000000000 000000000000000000000000000000000000000     00000000                                                                                                                        000000000000000000
F0010000006021400002000090020547900041450500000000000000000201407120002001DAC DEL CARIBE S.A.S.                             C000000001200000000000000000000000100010010000000000000000000000F0010000006021400220140712000101 00000000000000000000000000000000000000000000000000000000000000000000000000000000000000000000000000000000000000000N 00000000000NCONT   00    00000000000          00000000000000000000000000000000000000000000 000000000000000A000000000000000000000000000000000000000000000 000000000000000000000000000000000000000     00000000                                                                                                                        000000000000000000
F0010000006021400003000090020547900042505000000000000000000201407120002001DAC DEL CARIBE S.A.S.                             C000000000200000000000000000000000100010010000000000000000000000F0010000006021400320140712000101 00000000000000000000000000000000000000000000000000000000000000000000000000000000000000000000000000000000000000000N 00000000000NCONT   00    00000000000          00000000000000000000000000000000000000000000 000000000000000A000000000000000000000000000000000000000000000 000000000000000000000000000000000000000     00000000                                                                                                                        000000000000000000
F0010000006021400004000090020547900023658300000000000000000201407120002001DAC DEL CARIBE S.A.S.                             C000000000009600000000000000000000100010010000000000000000000000F0010000006021400420140712000101 00000000000000000000000000000000000000000000000000000000000000000000000000000000000000000000000000000000000000000N 00000000000NCONT   00    00000000000          00000000000000000000000000000000000000000000 000000000000000A000000000000000000000000000000000000000000000 000000000000000000000000000000000000000     00000000                                                                                                                        000000000000000000
F0010000006021400005000090020547900013552100000000000000000201407120002001DAC DEL CARIBE S.A.S.                             D000000000009600000000000000000000100010010000000000000000000000F0010000006021400520140712000101 00000000000000000000000000000000000000000000000000000000000000000000000000000000000000000000000000000000000000000N 00000000000NCONT   00    00000000000          00000000000000000000000000000000000000000000 000000000000000A000000000000000000000000000000000000000000000 000000000000000000000000000000000000000     00000000                                                                                                                        000000000000000000
F0010000006021500001000090020547900011050500000000000000000201407120002001DAC DEL CARIBE S.A.S.                             D000000002000000000000000000000000100010010000000000000000000000F0010000006021500120140712000101 00000000000000000000000000000000000000000000000000000000000000000000000000000000000000000000000000000000000000000N 00000000000NCONT   00    00000000000          00000000000000000000000000000000000000000000 000000000000000A000000000000000000000000000000000000000000000 000000000000000000000000000000000000000     00000000                                                                                                                        000000000000000000
F0010000006021500002000090020547900041450500000000000000000201407120002001DAC DEL CARIBE S.A.S.                             C000000001500000000000000000000000100010010000000000000000000000F0010000006021500220140712000101 00000000000000000000000000000000000000000000000000000000000000000000000000000000000000000000000000000000000000000N 00000000000NCONT   00    00000000000          00000000000000000000000000000000000000000000 000000000000000A000000000000000000000000000000000000000000000 000000000000000000000000000000000000000     00000000                                                                                                                        000000000000000000
F0010000006021500003000090020547900042505000000000000000000201407120002001DAC DEL CARIBE S.A.S.                             C000000000500000000000000000000000100010010000000000000000000000F0010000006021500320140712000101 00000000000000000000000000000000000000000000000000000000000000000000000000000000000000000000000000000000000000000N 00000000000NCONT   00    00000000000          00000000000000000000000000000000000000000000 000000000000000A000000000000000000000000000000000000000000000 000000000000000000000000000000000000000     00000000                                                                                                                        000000000000000000
F0010000006021500004000090020547900023658300000000000000000201407120002001DAC DEL CARIBE S.A.S.                             C000000000012000000000000000000000100010010000000000000000000000F0010000006021500420140712000101 00000000000000000000000000000000000000000000000000000000000000000000000000000000000000000000000000000000000000000N 00000000000NCONT   00    00000000000          00000000000000000000000000000000000000000000 000000000000000A000000000000000000000000000000000000000000000 000000000000000000000000000000000000000     00000000                                                                                                                        000000000000000000
F0010000006021500005000090020547900013552100000000000000000201407120002001DAC DEL CARIBE S.A.S.                             D000000000012000000000000000000000100010010000000000000000000000F0010000006021500520140712000101 00000000000000000000000000000000000000000000000000000000000000000000000000000000000000000000000000000000000000000N 00000000000NCONT   00    00000000000          00000000000000000000000000000000000000000000 000000000000000A000000000000000000000000000000000000000000000 000000000000000000000000000000000000000     00000000                                                                                                                        000000000000000000
F0010000006021600001000090020547900011050500000000000000000201407120002001DAC DEL CARIBE S.A.S.                             D000000001400000000000000000000000100010010000000000000000000000F0010000006021600120140712000101 00000000000000000000000000000000000000000000000000000000000000000000000000000000000000000000000000000000000000000N 00000000000NCONT   00    00000000000          00000000000000000000000000000000000000000000 000000000000000A000000000000000000000000000000000000000000000 000000000000000000000000000000000000000     00000000                                                                                                                        000000000000000000
F0010000006021600002000090020547900041450500000000000000000201407120002001DAC DEL CARIBE S.A.S.                             C000000001200000000000000000000000100010010000000000000000000000F0010000006021600220140712000101 00000000000000000000000000000000000000000000000000000000000000000000000000000000000000000000000000000000000000000N 00000000000NCONT   00    00000000000          00000000000000000000000000000000000000000000 000000000000000A000000000000000000000000000000000000000000000 000000000000000000000000000000000000000     00000000                                                                                                                        000000000000000000
F0010000006021600003000090020547900042505000000000000000000201407120002001DAC DEL CARIBE S.A.S.                             C000000000200000000000000000000000100010010000000000000000000000F0010000006021600320140712000101 00000000000000000000000000000000000000000000000000000000000000000000000000000000000000000000000000000000000000000N 00000000000NCONT   00    00000000000          00000000000000000000000000000000000000000000 000000000000000A000000000000000000000000000000000000000000000 000000000000000000000000000000000000000     00000000                                                                                                                        000000000000000000
F0010000006021600004000090020547900023658300000000000000000201407120002001DAC DEL CARIBE S.A.S.                             C000000000009600000000000000000000100010010000000000000000000000F0010000006021600420140712000101 00000000000000000000000000000000000000000000000000000000000000000000000000000000000000000000000000000000000000000N 00000000000NCONT   00    00000000000          00000000000000000000000000000000000000000000 000000000000000A000000000000000000000000000000000000000000000 000000000000000000000000000000000000000     00000000                                                                                                                        000000000000000000
F0010000006021600005000090020547900013552100000000000000000201407120002001DAC DEL CARIBE S.A.S.                             D000000000009600000000000000000000100010010000000000000000000000F0010000006021600520140712000101 00000000000000000000000000000000000000000000000000000000000000000000000000000000000000000000000000000000000000000N 00000000000NCONT   00    00000000000          00000000000000000000000000000000000000000000 000000000000000A000000000000000000000000000000000000000000000 000000000000000000000000000000000000000     00000000                                                                                                                        000000000000000000
F0010000006021700001000090020547900011050500000000000000000201407120002001DAC DEL CARIBE S.A.S.                             D000000001600000000000000000000000100010010000000000000000000000F0010000006021700120140712000101 00000000000000000000000000000000000000000000000000000000000000000000000000000000000000000000000000000000000000000N 00000000000NCONT   00    00000000000          00000000000000000000000000000000000000000000 000000000000000A000000000000000000000000000000000000000000000 000000000000000000000000000000000000000     00000000                                                                                                                        000000000000000000
F0010000006021700002000090020547900041450500000000000000000201407120002001DAC DEL CARIBE S.A.S.                             C000000001200000000000000000000000100010010000000000000000000000F0010000006021700220140712000101 00000000000000000000000000000000000000000000000000000000000000000000000000000000000000000000000000000000000000000N 00000000000NCONT   00    00000000000          00000000000000000000000000000000000000000000 000000000000000A000000000000000000000000000000000000000000000 000000000000000000000000000000000000000     00000000                                                                                                                        000000000000000000
F0010000006021700003000090020547900042505000000000000000000201407120002001DAC DEL CARIBE S.A.S.                             C000000000400000000000000000000000100010010000000000000000000000F0010000006021700320140712000101 00000000000000000000000000000000000000000000000000000000000000000000000000000000000000000000000000000000000000000N 00000000000NCONT   00    00000000000          00000000000000000000000000000000000000000000 000000000000000A000000000000000000000000000000000000000000000 000000000000000000000000000000000000000     00000000                                                                                                                        000000000000000000
F0010000006021700004000090020547900023658300000000000000000201407120002001DAC DEL CARIBE S.A.S.                             C000000000009600000000000000000000100010010000000000000000000000F0010000006021700420140712000101 00000000000000000000000000000000000000000000000000000000000000000000000000000000000000000000000000000000000000000N 00000000000NCONT   00    00000000000          00000000000000000000000000000000000000000000 000000000000000A000000000000000000000000000000000000000000000 000000000000000000000000000000000000000     00000000                                                                                                                        000000000000000000
F0010000006021700005000090020547900013552100000000000000000201407120002001DAC DEL CARIBE S.A.S.                             D000000000009600000000000000000000100010010000000000000000000000F0010000006021700520140712000101 00000000000000000000000000000000000000000000000000000000000000000000000000000000000000000000000000000000000000000N 00000000000NCONT   00    00000000000          00000000000000000000000000000000000000000000 000000000000000A000000000000000000000000000000000000000000000 000000000000000000000000000000000000000     00000000                                                                                                                        000000000000000000
F0010000006021800001000090020547900011050500000000000000000201407120002001DAC DEL CARIBE S.A.S.                             D000000003100000000000000000000000100010010000000000000000000000F0010000006021800120140712000101 00000000000000000000000000000000000000000000000000000000000000000000000000000000000000000000000000000000000000000N 00000000000NCONT   00    00000000000          00000000000000000000000000000000000000000000 000000000000000A000000000000000000000000000000000000000000000 000000000000000000000000000000000000000     00000000                                                                                                                        000000000000000000
F0010000006021800002000090020547900041450500000000000000000201407120002001DAC DEL CARIBE S.A.S.                             C000000002400000000000000000000000100010010000000000000000000000F0010000006021800220140712000101 00000000000000000000000000000000000000000000000000000000000000000000000000000000000000000000000000000000000000000N 00000000000NCONT   00    00000000000          00000000000000000000000000000000000000000000 000000000000000A000000000000000000000000000000000000000000000 000000000000000000000000000000000000000     00000000                                                                                                                        000000000000000000
F0010000006021800003000090020547900042505000000000000000000201407120002001DAC DEL CARIBE S.A.S.                             C000000000700000000000000000000000100010010000000000000000000000F0010000006021800320140712000101 00000000000000000000000000000000000000000000000000000000000000000000000000000000000000000000000000000000000000000N 00000000000NCONT   00    00000000000          00000000000000000000000000000000000000000000 000000000000000A000000000000000000000000000000000000000000000 000000000000000000000000000000000000000     00000000                                                                                                                        000000000000000000
F0010000006021800004000090020547900023658300000000000000000201407120002001DAC DEL CARIBE S.A.S.                             C000000000019200000000000000000000100010010000000000000000000000F0010000006021800420140712000101 00000000000000000000000000000000000000000000000000000000000000000000000000000000000000000000000000000000000000000N 00000000000NCONT   00    00000000000          00000000000000000000000000000000000000000000 000000000000000A000000000000000000000000000000000000000000000 000000000000000000000000000000000000000     00000000                                                                                                                        000000000000000000
F0010000006021800005000090020547900013552100000000000000000201407120002001DAC DEL CARIBE S.A.S.                             D000000000019200000000000000000000100010010000000000000000000000F0010000006021800520140712000101 00000000000000000000000000000000000000000000000000000000000000000000000000000000000000000000000000000000000000000N 00000000000NCONT   00    00000000000          00000000000000000000000000000000000000000000 000000000000000A000000000000000000000000000000000000000000000 000000000000000000000000000000000000000     00000000                                                                                                                        000000000000000000
F0010000006021900001000090020547900011050500000000000000000201407120002001DAC DEL CARIBE S.A.S.                             D000000001700000000000000000000000100010010000000000000000000000F0010000006021900120140712000101 00000000000000000000000000000000000000000000000000000000000000000000000000000000000000000000000000000000000000000N 00000000000NCONT   00    00000000000          00000000000000000000000000000000000000000000 000000000000000A000000000000000000000000000000000000000000000 000000000000000000000000000000000000000     00000000                                                                                                                        000000000000000000
F0010000006021900002000090020547900041450500000000000000000201407120002001DAC DEL CARIBE S.A.S.                             C000000001200000000000000000000000100010010000000000000000000000F0010000006021900220140712000101 00000000000000000000000000000000000000000000000000000000000000000000000000000000000000000000000000000000000000000N 00000000000NCONT   00    00000000000          00000000000000000000000000000000000000000000 000000000000000A000000000000000000000000000000000000000000000 000000000000000000000000000000000000000     00000000                                                                                                                        000000000000000000
F0010000006021900003000090020547900042505000000000000000000201407120002001DAC DEL CARIBE S.A.S.                             C000000000500000000000000000000000100010010000000000000000000000F0010000006021900320140712000101 00000000000000000000000000000000000000000000000000000000000000000000000000000000000000000000000000000000000000000N 00000000000NCONT   00    00000000000          00000000000000000000000000000000000000000000 000000000000000A000000000000000000000000000000000000000000000 000000000000000000000000000000000000000     00000000                                                                                                                        000000000000000000
F0010000006021900004000090020547900023658300000000000000000201407120002001DAC DEL CARIBE S.A.S.                             C000000000009600000000000000000000100010010000000000000000000000F0010000006021900420140712000101 00000000000000000000000000000000000000000000000000000000000000000000000000000000000000000000000000000000000000000N 00000000000NCONT   00    00000000000          00000000000000000000000000000000000000000000 000000000000000A000000000000000000000000000000000000000000000 000000000000000000000000000000000000000     00000000                                                                                                                        000000000000000000
F0010000006021900005000090020547900013552100000000000000000201407120002001DAC DEL CARIBE S.A.S.                             D000000000009600000000000000000000100010010000000000000000000000F0010000006021900520140712000101 00000000000000000000000000000000000000000000000000000000000000000000000000000000000000000000000000000000000000000N 00000000000NCONT   00    00000000000          00000000000000000000000000000000000000000000 000000000000000A000000000000000000000000000000000000000000000 000000000000000000000000000000000000000     00000000                                                                                                                        000000000000000000
F0010000006022000001000090020547900011050500000000000000000201407120002001DAC DEL CARIBE S.A.S.                             D000000003200000000000000000000000100010010000000000000000000000F0010000006022000120140712000101 00000000000000000000000000000000000000000000000000000000000000000000000000000000000000000000000000000000000000000N 00000000000NCONT   00    00000000000          00000000000000000000000000000000000000000000 000000000000000A000000000000000000000000000000000000000000000 000000000000000000000000000000000000000     00000000                                                                                                                        000000000000000000
F0010000006022000002000090020547900041450500000000000000000201407120002001DAC DEL CARIBE S.A.S.                             C000000002400000000000000000000000100010010000000000000000000000F0010000006022000220140712000101 00000000000000000000000000000000000000000000000000000000000000000000000000000000000000000000000000000000000000000N 00000000000NCONT   00    00000000000          00000000000000000000000000000000000000000000 000000000000000A000000000000000000000000000000000000000000000 000000000000000000000000000000000000000     00000000                                                                                                                        000000000000000000
F0010000006022000003000090020547900042505000000000000000000201407120002001DAC DEL CARIBE S.A.S.                             C000000000800000000000000000000000100010010000000000000000000000F0010000006022000320140712000101 00000000000000000000000000000000000000000000000000000000000000000000000000000000000000000000000000000000000000000N 00000000000NCONT   00    00000000000          00000000000000000000000000000000000000000000 000000000000000A000000000000000000000000000000000000000000000 000000000000000000000000000000000000000     00000000                                                                                                                        000000000000000000
F0010000006022000004000090020547900023658300000000000000000201407120002001DAC DEL CARIBE S.A.S.                             C000000000019200000000000000000000100010010000000000000000000000F0010000006022000420140712000101 00000000000000000000000000000000000000000000000000000000000000000000000000000000000000000000000000000000000000000N 00000000000NCONT   00    00000000000          00000000000000000000000000000000000000000000 000000000000000A000000000000000000000000000000000000000000000 000000000000000000000000000000000000000     00000000                                                                                                                        000000000000000000
F0010000006022000005000090020547900013552100000000000000000201407120002001DAC DEL CARIBE S.A.S.                             D000000000019200000000000000000000100010010000000000000000000000F0010000006022000520140712000101 00000000000000000000000000000000000000000000000000000000000000000000000000000000000000000000000000000000000000000N 00000000000NCONT   00    00000000000          00000000000000000000000000000000000000000000 000000000000000A000000000000000000000000000000000000000000000 000000000000000000000000000000000000000     00000000                                                                                                                        000000000000000000
F0010000006022100001000090020547900011050500000000000000000201407120002001DAC DEL CARIBE S.A.S.                             D000000001500000000000000000000000100010010000000000000000000000F0010000006022100120140712000101 00000000000000000000000000000000000000000000000000000000000000000000000000000000000000000000000000000000000000000N 00000000000NCONT   00    00000000000          00000000000000000000000000000000000000000000 000000000000000A000000000000000000000000000000000000000000000 000000000000000000000000000000000000000     00000000                                                                                                                        000000000000000000
F0010000006022100002000090020547900041450500000000000000000201407120002001DAC DEL CARIBE S.A.S.                             C000000001200000000000000000000000100010010000000000000000000000F0010000006022100220140712000101 00000000000000000000000000000000000000000000000000000000000000000000000000000000000000000000000000000000000000000N 00000000000NCONT   00    00000000000          00000000000000000000000000000000000000000000 000000000000000A000000000000000000000000000000000000000000000 000000000000000000000000000000000000000     00000000                                                                                                                        000000000000000000
F0010000006022100003000090020547900042505000000000000000000201407120002001DAC DEL CARIBE S.A.S.                             C000000000300000000000000000000000100010010000000000000000000000F0010000006022100320140712000101 00000000000000000000000000000000000000000000000000000000000000000000000000000000000000000000000000000000000000000N 00000000000NCONT   00    00000000000          00000000000000000000000000000000000000000000 000000000000000A000000000000000000000000000000000000000000000 000000000000000000000000000000000000000     00000000                                                                                                                        000000000000000000
F0010000006022100004000090020547900023658300000000000000000201407120002001DAC DEL CARIBE S.A.S.                             C000000000009600000000000000000000100010010000000000000000000000F0010000006022100420140712000101 00000000000000000000000000000000000000000000000000000000000000000000000000000000000000000000000000000000000000000N 00000000000NCONT   00    00000000000          00000000000000000000000000000000000000000000 000000000000000A000000000000000000000000000000000000000000000 000000000000000000000000000000000000000     00000000                                                                                                                        000000000000000000
F0010000006022100005000090020547900013552100000000000000000201407120002001DAC DEL CARIBE S.A.S.                             D000000000009600000000000000000000100010010000000000000000000000F0010000006022100520140712000101 00000000000000000000000000000000000000000000000000000000000000000000000000000000000000000000000000000000000000000N 00000000000NCONT   00    00000000000          00000000000000000000000000000000000000000000 000000000000000A000000000000000000000000000000000000000000000 000000000000000000000000000000000000000     00000000                                                                                                                        000000000000000000
F0010000006022200001000090020547900011050500000000000000000201407120002001DAC DEL CARIBE S.A.S.                             D000000003200000000000000000000000100010010000000000000000000000F0010000006022200120140712000101 00000000000000000000000000000000000000000000000000000000000000000000000000000000000000000000000000000000000000000N 00000000000NCONT   00    00000000000          00000000000000000000000000000000000000000000 000000000000000A000000000000000000000000000000000000000000000 000000000000000000000000000000000000000     00000000                                                                                                                        000000000000000000
F0010000006022200002000090020547900041450500000000000000000201407120002001DAC DEL CARIBE S.A.S.                             C000000002400000000000000000000000100010010000000000000000000000F0010000006022200220140712000101 00000000000000000000000000000000000000000000000000000000000000000000000000000000000000000000000000000000000000000N 00000000000NCONT   00    00000000000          00000000000000000000000000000000000000000000 000000000000000A000000000000000000000000000000000000000000000 000000000000000000000000000000000000000     00000000                                                                                                                        000000000000000000
F0010000006022200003000090020547900042505000000000000000000201407120002001DAC DEL CARIBE S.A.S.                             C000000000800000000000000000000000100010010000000000000000000000F0010000006022200320140712000101 00000000000000000000000000000000000000000000000000000000000000000000000000000000000000000000000000000000000000000N 00000000000NCONT   00    00000000000          00000000000000000000000000000000000000000000 000000000000000A000000000000000000000000000000000000000000000 000000000000000000000000000000000000000     00000000                                                                                                                        000000000000000000
F0010000006022200004000090020547900023658300000000000000000201407120002001DAC DEL CARIBE S.A.S.                             C000000000019200000000000000000000100010010000000000000000000000F0010000006022200420140712000101 00000000000000000000000000000000000000000000000000000000000000000000000000000000000000000000000000000000000000000N 00000000000NCONT   00    00000000000          00000000000000000000000000000000000000000000 000000000000000A000000000000000000000000000000000000000000000 000000000000000000000000000000000000000     00000000                                                                                                                        000000000000000000
F0010000006022200005000090020547900013552100000000000000000201407120002001DAC DEL CARIBE S.A.S.                             D000000000019200000000000000000000100010010000000000000000000000F0010000006022200520140712000101 00000000000000000000000000000000000000000000000000000000000000000000000000000000000000000000000000000000000000000N 00000000000NCONT   00    00000000000          00000000000000000000000000000000000000000000 000000000000000A000000000000000000000000000000000000000000000 000000000000000000000000000000000000000     00000000                                                                                                                        000000000000000000
F0010000006022300001000090020547900011050500000000000000000201407120002001DAC DEL CARIBE S.A.S.                             D000000001400000000000000000000000100010010000000000000000000000F0010000006022300120140712000101 00000000000000000000000000000000000000000000000000000000000000000000000000000000000000000000000000000000000000000N 00000000000NCONT   00    00000000000          00000000000000000000000000000000000000000000 000000000000000A000000000000000000000000000000000000000000000 000000000000000000000000000000000000000     00000000                                                                                                                        000000000000000000
F0010000006022300002000090020547900041450500000000000000000201407120002001DAC DEL CARIBE S.A.S.                             C000000001200000000000000000000000100010010000000000000000000000F0010000006022300220140712000101 00000000000000000000000000000000000000000000000000000000000000000000000000000000000000000000000000000000000000000N 00000000000NCONT   00    00000000000          00000000000000000000000000000000000000000000 000000000000000A000000000000000000000000000000000000000000000 000000000000000000000000000000000000000     00000000                                                                                                                        000000000000000000
F0010000006022300003000090020547900042505000000000000000000201407120002001DAC DEL CARIBE S.A.S.                             C000000000200000000000000000000000100010010000000000000000000000F0010000006022300320140712000101 00000000000000000000000000000000000000000000000000000000000000000000000000000000000000000000000000000000000000000N 00000000000NCONT   00    00000000000          00000000000000000000000000000000000000000000 000000000000000A000000000000000000000000000000000000000000000 000000000000000000000000000000000000000     00000000                                                                                                                        000000000000000000
F0010000006022300004000090020547900023658300000000000000000201407120002001DAC DEL CARIBE S.A.S.                             C000000000009600000000000000000000100010010000000000000000000000F0010000006022300420140712000101 00000000000000000000000000000000000000000000000000000000000000000000000000000000000000000000000000000000000000000N 00000000000NCONT   00    00000000000          00000000000000000000000000000000000000000000 000000000000000A000000000000000000000000000000000000000000000 000000000000000000000000000000000000000     00000000                                                                                                                        000000000000000000
F0010000006022300005000090020547900013552100000000000000000201407120002001DAC DEL CARIBE S.A.S.                             D000000000009600000000000000000000100010010000000000000000000000F0010000006022300520140712000101 00000000000000000000000000000000000000000000000000000000000000000000000000000000000000000000000000000000000000000N 00000000000NCONT   00    00000000000          00000000000000000000000000000000000000000000 000000000000000A000000000000000000000000000000000000000000000 000000000000000000000000000000000000000     00000000                                                                                                                        000000000000000000
F0010000006022400001000090020547900011050500000000000000000201407120002001DAC DEL CARIBE S.A.S.                             D000000005100000000000000000000000100010010000000000000000000000F0010000006022400120140712000101 00000000000000000000000000000000000000000000000000000000000000000000000000000000000000000000000000000000000000000N 00000000000NCONT   00    00000000000          00000000000000000000000000000000000000000000 000000000000000A000000000000000000000000000000000000000000000 000000000000000000000000000000000000000     00000000                                                                                                                        000000000000000000
F0010000006022400002000090020547900041450500000000000000000201407120002001DAC DEL CARIBE S.A.S.                             C000000003600000000000000000000000100010010000000000000000000000F0010000006022400220140712000101 00000000000000000000000000000000000000000000000000000000000000000000000000000000000000000000000000000000000000000N 00000000000NCONT   00    00000000000          00000000000000000000000000000000000000000000 000000000000000A000000000000000000000000000000000000000000000 000000000000000000000000000000000000000     00000000                                                                                                                        000000000000000000
F0010000006022400003000090020547900042505000000000000000000201407120002001DAC DEL CARIBE S.A.S.                             C000000001500000000000000000000000100010010000000000000000000000F0010000006022400320140712000101 00000000000000000000000000000000000000000000000000000000000000000000000000000000000000000000000000000000000000000N 00000000000NCONT   00    00000000000          00000000000000000000000000000000000000000000 000000000000000A000000000000000000000000000000000000000000000 000000000000000000000000000000000000000     00000000                                                                                                                        000000000000000000
F0010000006022400004000090020547900023658300000000000000000201407120002001DAC DEL CARIBE S.A.S.                             C000000000028800000000000000000000100010010000000000000000000000F0010000006022400420140712000101 00000000000000000000000000000000000000000000000000000000000000000000000000000000000000000000000000000000000000000N 00000000000NCONT   00    00000000000          00000000000000000000000000000000000000000000 000000000000000A000000000000000000000000000000000000000000000 000000000000000000000000000000000000000     00000000                                                                                                                        000000000000000000
F0010000006022400005000090020547900013552100000000000000000201407120002001DAC DEL CARIBE S.A.S.                             D000000000028800000000000000000000100010010000000000000000000000F0010000006022400520140712000101 00000000000000000000000000000000000000000000000000000000000000000000000000000000000000000000000000000000000000000N 00000000000NCONT   00    00000000000          00000000000000000000000000000000000000000000 000000000000000A000000000000000000000000000000000000000000000 000000000000000000000000000000000000000     00000000                                                                                                                        000000000000000000
F0010000006022500001000090020547900011050500000000000000000201407120002001DAC DEL CARIBE S.A.S.                             D000000003100000000000000000000000100010010000000000000000000000F0010000006022500120140712000101 00000000000000000000000000000000000000000000000000000000000000000000000000000000000000000000000000000000000000000N 00000000000NCONT   00    00000000000          00000000000000000000000000000000000000000000 000000000000000A000000000000000000000000000000000000000000000 000000000000000000000000000000000000000     00000000                                                                                                                        000000000000000000
F0010000006022500002000090020547900041450500000000000000000201407120002001DAC DEL CARIBE S.A.S.                             C000000002400000000000000000000000100010010000000000000000000000F0010000006022500220140712000101 00000000000000000000000000000000000000000000000000000000000000000000000000000000000000000000000000000000000000000N 00000000000NCONT   00    00000000000          00000000000000000000000000000000000000000000 000000000000000A000000000000000000000000000000000000000000000 000000000000000000000000000000000000000     00000000                                                                                                                        000000000000000000
