F0010000008273000001000003277766800011050500000000000000000201602180002001SUGUEY MOLINA                                     D000000005200000000000000000000000100010010000000000000000000000F0010000008273000120160218000101 00000000000000000000000000000000000000000000000000000000000000000000000000000000000000000000000000000000000000000N 00000000000NCONT   00    00000000000          00000000000000000000000000000000000000000000 000000000000000A000000000000000000000000000000000000000000000 000000000000000000000000000000000000000     00000000                                                                                                                        000000000000000000
F0010000008273000002000003277766800041450500000000000000000201602180002001SUGUEY MOLINA                                     C000000004200000000000000000000000100010010000000000000000000000F0010000008273000220160218000101 00000000000000000000000000000000000000000000000000000000000000000000000000000000000000000000000000000000000000000N 00000000000NCONT   00    00000000000          00000000000000000000000000000000000000000000 000000000000000A000000000000000000000000000000000000000000000 000000000000000000000000000000000000000     00000000                                                                                                                        000000000000000000
F0010000008273000003000003277766800042505000000000000000000201602180002001SUGUEY MOLINA                                     C000000001000000000000000000000000100010010000000000000000000000F0010000008273000320160218000101 00000000000000000000000000000000000000000000000000000000000000000000000000000000000000000000000000000000000000000N 00000000000NCONT   00    00000000000          00000000000000000000000000000000000000000000 000000000000000A000000000000000000000000000000000000000000000 000000000000000000000000000000000000000     00000000                                                                                                                        000000000000000000
F0010000008273000004000003277766800023658300000000000000000201602180002001SUGUEY MOLINA                                     C000000000033600000000000000000000100010010000000000000000000000F0010000008273000420160218000101 00000000000000000000000000000000000000000000000000000000000000000000000000000000000000000000000000000000000000000N 00000000000NCONT   00    00000000000          00000000000000000000000000000000000000000000 000000000000000A000000000000000000000000000000000000000000000 000000000000000000000000000000000000000     00000000                                                                                                                        000000000000000000
F0010000008273000005000003277766800013552100000000000000000201602180002001SUGUEY MOLINA                                     D000000000033600000000000000000000100010010000000000000000000000F0010000008273000520160218000101 00000000000000000000000000000000000000000000000000000000000000000000000000000000000000000000000000000000000000000N 00000000000NCONT   00    00000000000          00000000000000000000000000000000000000000000 000000000000000A000000000000000000000000000000000000000000000 000000000000000000000000000000000000000     00000000                                                                                                                        000000000000000000
F0010000008273100001000001087756900011050500000000000000000201602180002001ALVARO BALLESTAS                                  D000000006500000000000000000000000100010010000000000000000000000F0010000008273100120160218000101 00000000000000000000000000000000000000000000000000000000000000000000000000000000000000000000000000000000000000000N 00000000000NCONT   00    00000000000          00000000000000000000000000000000000000000000 000000000000000A000000000000000000000000000000000000000000000 000000000000000000000000000000000000000     00000000                                                                                                                        000000000000000000
F0010000008273100002000001087756900041450500000000000000000201602180002001ALVARO BALLESTAS                                  C000000006100000000000000000000000100010010000000000000000000000F0010000008273100220160218000101 00000000000000000000000000000000000000000000000000000000000000000000000000000000000000000000000000000000000000000N 00000000000NCONT   00    00000000000          00000000000000000000000000000000000000000000 000000000000000A000000000000000000000000000000000000000000000 000000000000000000000000000000000000000     00000000                                                                                                                        000000000000000000
F0010000008273100003000001087756900042505000000000000000000201602180002001ALVARO BALLESTAS                                  C000000000400000000000000000000000100010010000000000000000000000F0010000008273100320160218000101 00000000000000000000000000000000000000000000000000000000000000000000000000000000000000000000000000000000000000000N 00000000000NCONT   00    00000000000          00000000000000000000000000000000000000000000 000000000000000A000000000000000000000000000000000000000000000 000000000000000000000000000000000000000     00000000                                                                                                                        000000000000000000
F0010000008273100004000001087756900023658300000000000000000201602180002001ALVARO BALLESTAS                                  C000000000048800000000000000000000100010010000000000000000000000F0010000008273100420160218000101 00000000000000000000000000000000000000000000000000000000000000000000000000000000000000000000000000000000000000000N 00000000000NCONT   00    00000000000          00000000000000000000000000000000000000000000 000000000000000A000000000000000000000000000000000000000000000 000000000000000000000000000000000000000     00000000                                                                                                                        000000000000000000
F0010000008273100005000001087756900013552100000000000000000201602180002001ALVARO BALLESTAS                                  D000000000048800000000000000000000100010010000000000000000000000F0010000008273100520160218000101 00000000000000000000000000000000000000000000000000000000000000000000000000000000000000000000000000000000000000000N 00000000000NCONT   00    00000000000          00000000000000000000000000000000000000000000 000000000000000A000000000000000000000000000000000000000000000 000000000000000000000000000000000000000     00000000                                                                                                                        000000000000000000
F0010000008273200001000112956935000011050500000000000000000201602180002001GERSON IGNACIO VESGA URIBE                        D000000003300000000000000000000000100010010000000000000000000000F0010000008273200120160218000101 00000000000000000000000000000000000000000000000000000000000000000000000000000000000000000000000000000000000000000N 00000000000NCONT   00    00000000000          00000000000000000000000000000000000000000000 000000000000000A000000000000000000000000000000000000000000000 000000000000000000000000000000000000000     00000000                                                                                                                        000000000000000000
F0010000008273200002000112956935000041450500000000000000000201602180002001GERSON IGNACIO VESGA URIBE                        C000000002800000000000000000000000100010010000000000000000000000F0010000008273200220160218000101 00000000000000000000000000000000000000000000000000000000000000000000000000000000000000000000000000000000000000000N 00000000000NCONT   00    00000000000          00000000000000000000000000000000000000000000 000000000000000A000000000000000000000000000000000000000000000 000000000000000000000000000000000000000     00000000                                                                                                                        000000000000000000
F0010000008273200003000112956935000042505000000000000000000201602180002001GERSON IGNACIO VESGA URIBE                        C000000000500000000000000000000000100010010000000000000000000000F0010000008273200320160218000101 00000000000000000000000000000000000000000000000000000000000000000000000000000000000000000000000000000000000000000N 00000000000NCONT   00    00000000000          00000000000000000000000000000000000000000000 000000000000000A000000000000000000000000000000000000000000000 000000000000000000000000000000000000000     00000000                                                                                                                        000000000000000000
F0010000008273200004000112956935000023658300000000000000000201602180002001GERSON IGNACIO VESGA URIBE                        C000000000022400000000000000000000100010010000000000000000000000F0010000008273200420160218000101 00000000000000000000000000000000000000000000000000000000000000000000000000000000000000000000000000000000000000000N 00000000000NCONT   00    00000000000          00000000000000000000000000000000000000000000 000000000000000A000000000000000000000000000000000000000000000 000000000000000000000000000000000000000     00000000                                                                                                                        000000000000000000
F0010000008273200005000112956935000013552100000000000000000201602180002001GERSON IGNACIO VESGA URIBE                        D000000000022400000000000000000000100010010000000000000000000000F0010000008273200520160218000101 00000000000000000000000000000000000000000000000000000000000000000000000000000000000000000000000000000000000000000N 00000000000NCONT   00    00000000000          00000000000000000000000000000000000000000000 000000000000000A000000000000000000000000000000000000000000000 000000000000000000000000000000000000000     00000000                                                                                                                        000000000000000000
F0010000008273300001000007221007700011050500000000000000000201602180002001LEANDRO POLO                                      D000000001500000000000000000000000100010010000000000000000000000F0010000008273300120160218000101 00000000000000000000000000000000000000000000000000000000000000000000000000000000000000000000000000000000000000000N 00000000000NCONT   00    00000000000          00000000000000000000000000000000000000000000 000000000000000A000000000000000000000000000000000000000000000 000000000000000000000000000000000000000     00000000                                                                                                                        000000000000000000
F0010000008273300002000007221007700041450500000000000000000201602180002001LEANDRO POLO                                      C000000001400000000000000000000000100010010000000000000000000000F0010000008273300220160218000101 00000000000000000000000000000000000000000000000000000000000000000000000000000000000000000000000000000000000000000N 00000000000NCONT   00    00000000000          00000000000000000000000000000000000000000000 000000000000000A000000000000000000000000000000000000000000000 000000000000000000000000000000000000000     00000000                                                                                                                        000000000000000000
F0010000008273300003000007221007700042505000000000000000000201602180002001LEANDRO POLO                                      C000000000100000000000000000000000100010010000000000000000000000F0010000008273300320160218000101 00000000000000000000000000000000000000000000000000000000000000000000000000000000000000000000000000000000000000000N 00000000000NCONT   00    00000000000          00000000000000000000000000000000000000000000 000000000000000A000000000000000000000000000000000000000000000 000000000000000000000000000000000000000     00000000                                                                                                                        000000000000000000
F0010000008273300004000007221007700023658300000000000000000201602180002001LEANDRO POLO                                      C000000000011200000000000000000000100010010000000000000000000000F0010000008273300420160218000101 00000000000000000000000000000000000000000000000000000000000000000000000000000000000000000000000000000000000000000N 00000000000NCONT   00    00000000000          00000000000000000000000000000000000000000000 000000000000000A000000000000000000000000000000000000000000000 000000000000000000000000000000000000000     00000000                                                                                                                        000000000000000000
F0010000008273300005000007221007700013552100000000000000000201602180002001LEANDRO POLO                                      D000000000011200000000000000000000100010010000000000000000000000F0010000008273300520160218000101 00000000000000000000000000000000000000000000000000000000000000000000000000000000000000000000000000000000000000000N 00000000000NCONT   00    00000000000          00000000000000000000000000000000000000000000 000000000000000A000000000000000000000000000000000000000000000 000000000000000000000000000000000000000     00000000                                                                                                                        000000000000000000
F0010000008273400001000003319910700011050500000000000000000201602180002001LUZ DARY JIMENEZ MARTINEZ                         D000000001100000000000000000000000100010010000000000000000000000F0010000008273400120160218000101 00000000000000000000000000000000000000000000000000000000000000000000000000000000000000000000000000000000000000000N 00000000000NCONT   00    00000000000          00000000000000000000000000000000000000000000 000000000000000A000000000000000000000000000000000000000000000 000000000000000000000000000000000000000     00000000                                                                                                                        000000000000000000
F0010000008273400002000003319910700041450500000000000000000201602180002001LUZ DARY JIMENEZ MARTINEZ                         C000000001000000000000000000000000100010010000000000000000000000F0010000008273400220160218000101 00000000000000000000000000000000000000000000000000000000000000000000000000000000000000000000000000000000000000000N 00000000000NCONT   00    00000000000          00000000000000000000000000000000000000000000 000000000000000A000000000000000000000000000000000000000000000 000000000000000000000000000000000000000     00000000                                                                                                                        000000000000000000
F0010000008273400003000003319910700042505000000000000000000201602180002001LUZ DARY JIMENEZ MARTINEZ                         C000000000100000000000000000000000100010010000000000000000000000F0010000008273400320160218000101 00000000000000000000000000000000000000000000000000000000000000000000000000000000000000000000000000000000000000000N 00000000000NCONT   00    00000000000          00000000000000000000000000000000000000000000 000000000000000A000000000000000000000000000000000000000000000 000000000000000000000000000000000000000     00000000                                                                                                                        000000000000000000
F0010000008273400004000003319910700023658300000000000000000201602180002001LUZ DARY JIMENEZ MARTINEZ                         C000000000008000000000000000000000100010010000000000000000000000F0010000008273400420160218000101 00000000000000000000000000000000000000000000000000000000000000000000000000000000000000000000000000000000000000000N 00000000000NCONT   00    00000000000          00000000000000000000000000000000000000000000 000000000000000A000000000000000000000000000000000000000000000 000000000000000000000000000000000000000     00000000                                                                                                                        000000000000000000
F0010000008273400005000003319910700013552100000000000000000201602180002001LUZ DARY JIMENEZ MARTINEZ                         D000000000008000000000000000000000100010010000000000000000000000F0010000008273400520160218000101 00000000000000000000000000000000000000000000000000000000000000000000000000000000000000000000000000000000000000000N 00000000000NCONT   00    00000000000          00000000000000000000000000000000000000000000 000000000000000A000000000000000000000000000000000000000000000 000000000000000000000000000000000000000     00000000                                                                                                                        000000000000000000
F0010000008273500001000080202350700011050500000000000000000201602180002001CONNY DE LA COSTA SAS                             D000000001400000000000000000000000100010010000000000000000000000F0010000008273500120160218000101 00000000000000000000000000000000000000000000000000000000000000000000000000000000000000000000000000000000000000000N 00000000000NCONT   00    00000000000          00000000000000000000000000000000000000000000 000000000000000A000000000000000000000000000000000000000000000 000000000000000000000000000000000000000     00000000                                                                                                                        000000000000000000
F0010000008273500002000080202350700041450500000000000000000201602180002001CONNY DE LA COSTA SAS                             C000000001300000000000000000000000100010010000000000000000000000F0010000008273500220160218000101 00000000000000000000000000000000000000000000000000000000000000000000000000000000000000000000000000000000000000000N 00000000000NCONT   00    00000000000          00000000000000000000000000000000000000000000 000000000000000A000000000000000000000000000000000000000000000 000000000000000000000000000000000000000     00000000                                                                                                                        000000000000000000
F0010000008273500003000080202350700042505000000000000000000201602180002001CONNY DE LA COSTA SAS                             C000000000100000000000000000000000100010010000000000000000000000F0010000008273500320160218000101 00000000000000000000000000000000000000000000000000000000000000000000000000000000000000000000000000000000000000000N 00000000000NCONT   00    00000000000          00000000000000000000000000000000000000000000 000000000000000A000000000000000000000000000000000000000000000 000000000000000000000000000000000000000     00000000                                                                                                                        000000000000000000
F0010000008273500004000080202350700023658300000000000000000201602180002001CONNY DE LA COSTA SAS                             C000000000010400000000000000000000100010010000000000000000000000F0010000008273500420160218000101 00000000000000000000000000000000000000000000000000000000000000000000000000000000000000000000000000000000000000000N 00000000000NCONT   00    00000000000          00000000000000000000000000000000000000000000 000000000000000A000000000000000000000000000000000000000000000 000000000000000000000000000000000000000     00000000                                                                                                                        000000000000000000
F0010000008273500005000080202350700013552100000000000000000201602180002001CONNY DE LA COSTA SAS                             D000000000010400000000000000000000100010010000000000000000000000F0010000008273500520160218000101 00000000000000000000000000000000000000000000000000000000000000000000000000000000000000000000000000000000000000000N 00000000000NCONT   00    00000000000          00000000000000000000000000000000000000000000 000000000000000A000000000000000000000000000000000000000000000 000000000000000000000000000000000000000     00000000                                                                                                                        000000000000000000
F0010000008273600001000000742399700011050500000000000000000201602180002001CACHARRERIA EL NUEVO CHADID                       D000000001700000000000000000000000100010010000000000000000000000F0010000008273600120160218000101 00000000000000000000000000000000000000000000000000000000000000000000000000000000000000000000000000000000000000000N 00000000000NCONT   00    00000000000          00000000000000000000000000000000000000000000 000000000000000A000000000000000000000000000000000000000000000 000000000000000000000000000000000000000     00000000                                                                                                                        000000000000000000
F0010000008273600002000000742399700041450500000000000000000201602180002001CACHARRERIA EL NUEVO CHADID                       C000000001600000000000000000000000100010010000000000000000000000F0010000008273600220160218000101 00000000000000000000000000000000000000000000000000000000000000000000000000000000000000000000000000000000000000000N 00000000000NCONT   00    00000000000          00000000000000000000000000000000000000000000 000000000000000A000000000000000000000000000000000000000000000 000000000000000000000000000000000000000     00000000                                                                                                                        000000000000000000
F0010000008273600003000000742399700042505000000000000000000201602180002001CACHARRERIA EL NUEVO CHADID                       C000000000100000000000000000000000100010010000000000000000000000F0010000008273600320160218000101 00000000000000000000000000000000000000000000000000000000000000000000000000000000000000000000000000000000000000000N 00000000000NCONT   00    00000000000          00000000000000000000000000000000000000000000 000000000000000A000000000000000000000000000000000000000000000 000000000000000000000000000000000000000     00000000                                                                                                                        000000000000000000
F0010000008273600004000000742399700023658300000000000000000201602180002001CACHARRERIA EL NUEVO CHADID                       C000000000012800000000000000000000100010010000000000000000000000F0010000008273600420160218000101 00000000000000000000000000000000000000000000000000000000000000000000000000000000000000000000000000000000000000000N 00000000000NCONT   00    00000000000          00000000000000000000000000000000000000000000 000000000000000A000000000000000000000000000000000000000000000 000000000000000000000000000000000000000     00000000                                                                                                                        000000000000000000
F0010000008273600005000000742399700013552100000000000000000201602180002001CACHARRERIA EL NUEVO CHADID                       D000000000012800000000000000000000100010010000000000000000000000F0010000008273600520160218000101 00000000000000000000000000000000000000000000000000000000000000000000000000000000000000000000000000000000000000000N 00000000000NCONT   00    00000000000          00000000000000000000000000000000000000000000 000000000000000A000000000000000000000000000000000000000000000 000000000000000000000000000000000000000     00000000                                                                                                                        000000000000000000
F0010000008273700001000007957099900011050500000000000000000201602180002001RUBEN GOMEZ                                       D000000003200000000000000000000000100010010000000000000000000000F0010000008273700120160218000101 00000000000000000000000000000000000000000000000000000000000000000000000000000000000000000000000000000000000000000N 00000000000NCONT   00    00000000000          00000000000000000000000000000000000000000000 000000000000000A000000000000000000000000000000000000000000000 000000000000000000000000000000000000000     00000000                                                                                                                        000000000000000000
F0010000008273700002000007957099900041450500000000000000000201602180002001RUBEN GOMEZ                                       C000000002400000000000000000000000100010010000000000000000000000F0010000008273700220160218000101 00000000000000000000000000000000000000000000000000000000000000000000000000000000000000000000000000000000000000000N 00000000000NCONT   00    00000000000          00000000000000000000000000000000000000000000 000000000000000A000000000000000000000000000000000000000000000 000000000000000000000000000000000000000     00000000                                                                                                                        000000000000000000
F0010000008273700003000007957099900042505000000000000000000201602180002001RUBEN GOMEZ                                       C000000000800000000000000000000000100010010000000000000000000000F0010000008273700320160218000101 00000000000000000000000000000000000000000000000000000000000000000000000000000000000000000000000000000000000000000N 00000000000NCONT   00    00000000000          00000000000000000000000000000000000000000000 000000000000000A000000000000000000000000000000000000000000000 000000000000000000000000000000000000000     00000000                                                                                                                        000000000000000000
F0010000008273700004000007957099900023658300000000000000000201602180002001RUBEN GOMEZ                                       C000000000019200000000000000000000100010010000000000000000000000F0010000008273700420160218000101 00000000000000000000000000000000000000000000000000000000000000000000000000000000000000000000000000000000000000000N 00000000000NCONT   00    00000000000          00000000000000000000000000000000000000000000 000000000000000A000000000000000000000000000000000000000000000 000000000000000000000000000000000000000     00000000                                                                                                                        000000000000000000
F0010000008273700005000007957099900013552100000000000000000201602180002001RUBEN GOMEZ                                       D000000000019200000000000000000000100010010000000000000000000000F0010000008273700520160218000101 00000000000000000000000000000000000000000000000000000000000000000000000000000000000000000000000000000000000000000N 00000000000NCONT   00    00000000000          00000000000000000000000000000000000000000000 000000000000000A000000000000000000000000000000000000000000000 000000000000000000000000000000000000000     00000000                                                                                                                        000000000000000000
F0010000008273800001000000871573200011050500000000000000000201602180002001ACCESORIAS ARQUITECTONI KJ                        D000000001000000000000000000000000100010010000000000000000000000F0010000008273800120160218000101 00000000000000000000000000000000000000000000000000000000000000000000000000000000000000000000000000000000000000000N 00000000000NCONT   00    00000000000          00000000000000000000000000000000000000000000 000000000000000A000000000000000000000000000000000000000000000 000000000000000000000000000000000000000     00000000                                                                                                                        000000000000000000
F0010000008273800002000000871573200041450500000000000000000201602180002001ACCESORIAS ARQUITECTONI KJ                        C000000000900000000000000000000000100010010000000000000000000000F0010000008273800220160218000101 00000000000000000000000000000000000000000000000000000000000000000000000000000000000000000000000000000000000000000N 00000000000NCONT   00    00000000000          00000000000000000000000000000000000000000000 000000000000000A000000000000000000000000000000000000000000000 000000000000000000000000000000000000000     00000000                                                                                                                        000000000000000000
F0010000008273800003000000871573200042505000000000000000000201602180002001ACCESORIAS ARQUITECTONI KJ                        C000000000100000000000000000000000100010010000000000000000000000F0010000008273800320160218000101 00000000000000000000000000000000000000000000000000000000000000000000000000000000000000000000000000000000000000000N 00000000000NCONT   00    00000000000          00000000000000000000000000000000000000000000 000000000000000A000000000000000000000000000000000000000000000 000000000000000000000000000000000000000     00000000                                                                                                                        000000000000000000
F0010000008273800004000000871573200023658300000000000000000201602180002001ACCESORIAS ARQUITECTONI KJ                        C000000000007200000000000000000000100010010000000000000000000000F0010000008273800420160218000101 00000000000000000000000000000000000000000000000000000000000000000000000000000000000000000000000000000000000000000N 00000000000NCONT   00    00000000000          00000000000000000000000000000000000000000000 000000000000000A000000000000000000000000000000000000000000000 000000000000000000000000000000000000000     00000000                                                                                                                        000000000000000000
F0010000008273800005000000871573200013552100000000000000000201602180002001ACCESORIAS ARQUITECTONI KJ                        D000000000007200000000000000000000100010010000000000000000000000F0010000008273800520160218000101 00000000000000000000000000000000000000000000000000000000000000000000000000000000000000000000000000000000000000000N 00000000000NCONT   00    00000000000          00000000000000000000000000000000000000000000 000000000000000A000000000000000000000000000000000000000000000 000000000000000000000000000000000000000     00000000                                                                                                                        000000000000000000
F0010000008273900001000000871573200011050500000000000000000201602180002001ACCESORIAS ARQUITECTONI KJ                        D000000001800000000000000000000000100010010000000000000000000000F0010000008273900120160218000101 00000000000000000000000000000000000000000000000000000000000000000000000000000000000000000000000000000000000000000N 00000000000NCONT   00    00000000000          00000000000000000000000000000000000000000000 000000000000000A000000000000000000000000000000000000000000000 000000000000000000000000000000000000000     00000000                                                                                                                        000000000000000000
F0010000008273900002000000871573200041450500000000000000000201602180002001ACCESORIAS ARQUITECTONI KJ                        C000000001200000000000000000000000100010010000000000000000000000F0010000008273900220160218000101 00000000000000000000000000000000000000000000000000000000000000000000000000000000000000000000000000000000000000000N 00000000000NCONT   00    00000000000          00000000000000000000000000000000000000000000 000000000000000A000000000000000000000000000000000000000000000 000000000000000000000000000000000000000     00000000                                                                                                                        000000000000000000
F0010000008273900003000000871573200042505000000000000000000201602180002001ACCESORIAS ARQUITECTONI KJ                        C000000000600000000000000000000000100010010000000000000000000000F0010000008273900320160218000101 00000000000000000000000000000000000000000000000000000000000000000000000000000000000000000000000000000000000000000N 00000000000NCONT   00    00000000000          00000000000000000000000000000000000000000000 000000000000000A000000000000000000000000000000000000000000000 000000000000000000000000000000000000000     00000000                                                                                                                        000000000000000000
F0010000008273900004000000871573200023658300000000000000000201602180002001ACCESORIAS ARQUITECTONI KJ                        C000000000009600000000000000000000100010010000000000000000000000F0010000008273900420160218000101 00000000000000000000000000000000000000000000000000000000000000000000000000000000000000000000000000000000000000000N 00000000000NCONT   00    00000000000          00000000000000000000000000000000000000000000 000000000000000A000000000000000000000000000000000000000000000 000000000000000000000000000000000000000     00000000                                                                                                                        000000000000000000
F0010000008273900005000000871573200013552100000000000000000201602180002001ACCESORIAS ARQUITECTONI KJ                        D000000000009600000000000000000000100010010000000000000000000000F0010000008273900520160218000101 00000000000000000000000000000000000000000000000000000000000000000000000000000000000000000000000000000000000000000N 00000000000NCONT   00    00000000000          00000000000000000000000000000000000000000000 000000000000000A000000000000000000000000000000000000000000000 000000000000000000000000000000000000000     00000000                                                                                                                        000000000000000000
F0010000008274000001000089011078600011050500000000000000000201602180002001DIST. NUEVO MUNDO S.A.S.                          D000000021252800000000000000000000100010010000000000000000000000F0010000008274000120160218000101 00000000000000000000000000000000000000000000000000000000000000000000000000000000000000000000000000000000000000000N 00000000000NCONT   00    00000000000          00000000000000000000000000000000000000000000 000000000000000A000000000000000000000000000000000000000000000 000000000000000000000000000000000000000     00000000                                                                                                                        000000000000000000
F0010000008274000002000089011078600041450500000000000000000201602180002001DIST. NUEVO MUNDO S.A.S.                          C000000020100000000000000000000000100010010000000000000000000000F0010000008274000220160218000101 00000000000000000000000000000000000000000000000000000000000000000000000000000000000000000000000000000000000000000N 00000000000NCONT   00    00000000000          00000000000000000000000000000000000000000000 000000000000000A000000000000000000000000000000000000000000000 000000000000000000000000000000000000000     00000000                                                                                                                        000000000000000000
F0010000008274000003000089011078600042505000000000000000000201602180002001DIST. NUEVO MUNDO S.A.S.                          C000000001152800000000000000000000100010010000000000000000000000F0010000008274000320160218000101 00000000000000000000000000000000000000000000000000000000000000000000000000000000000000000000000000000000000000000N 00000000000NCONT   00    00000000000          00000000000000000000000000000000000000000000 000000000000000A000000000000000000000000000000000000000000000 000000000000000000000000000000000000000     00000000                                                                                                                        000000000000000000
F0010000008274000004000089011078600023658300000000000000000201602180002001DIST. NUEVO MUNDO S.A.S.                          C000000000160800000000000000000000100010010000000000000000000000F0010000008274000420160218000101 00000000000000000000000000000000000000000000000000000000000000000000000000000000000000000000000000000000000000000N 00000000000NCONT   00    00000000000          00000000000000000000000000000000000000000000 000000000000000A000000000000000000000000000000000000000000000 000000000000000000000000000000000000000     00000000                                                                                                                        000000000000000000
F0010000008274000005000089011078600013552100000000000000000201602180002001DIST. NUEVO MUNDO S.A.S.                          D000000000160800000000000000000000100010010000000000000000000000F0010000008274000520160218000101 00000000000000000000000000000000000000000000000000000000000000000000000000000000000000000000000000000000000000000N 00000000000NCONT   00    00000000000          00000000000000000000000000000000000000000000 000000000000000A000000000000000000000000000000000000000000000 000000000000000000000000000000000000000     00000000                                                                                                                        000000000000000000
F0010000008274100001000090050144800011050500000000000000000201602180002001PLASTICOS JR ASOCIADOS SAS                        D000000001000000000000000000000000100010010000000000000000000000F0010000008274100120160218000101 00000000000000000000000000000000000000000000000000000000000000000000000000000000000000000000000000000000000000000N 00000000000NCONT   00    00000000000          00000000000000000000000000000000000000000000 000000000000000A000000000000000000000000000000000000000000000 000000000000000000000000000000000000000     00000000                                                                                                                        000000000000000000
F0010000008274100002000090050144800041450500000000000000000201602180002001PLASTICOS JR ASOCIADOS SAS                        C000000000900000000000000000000000100010010000000000000000000000F0010000008274100220160218000101 00000000000000000000000000000000000000000000000000000000000000000000000000000000000000000000000000000000000000000N 00000000000NCONT   00    00000000000          00000000000000000000000000000000000000000000 000000000000000A000000000000000000000000000000000000000000000 000000000000000000000000000000000000000     00000000                                                                                                                        000000000000000000
F0010000008274100003000090050144800042505000000000000000000201602180002001PLASTICOS JR ASOCIADOS SAS                        C000000000100000000000000000000000100010010000000000000000000000F0010000008274100320160218000101 00000000000000000000000000000000000000000000000000000000000000000000000000000000000000000000000000000000000000000N 00000000000NCONT   00    00000000000          00000000000000000000000000000000000000000000 000000000000000A000000000000000000000000000000000000000000000 000000000000000000000000000000000000000     00000000                                                                                                                        000000000000000000
F0010000008274100004000090050144800023658300000000000000000201602180002001PLASTICOS JR ASOCIADOS SAS                        C000000000007200000000000000000000100010010000000000000000000000F0010000008274100420160218000101 00000000000000000000000000000000000000000000000000000000000000000000000000000000000000000000000000000000000000000N 00000000000NCONT   00    00000000000          00000000000000000000000000000000000000000000 000000000000000A000000000000000000000000000000000000000000000 000000000000000000000000000000000000000     00000000                                                                                                                        000000000000000000
F0010000008274100005000090050144800013552100000000000000000201602180002001PLASTICOS JR ASOCIADOS SAS                        D000000000007200000000000000000000100010010000000000000000000000F0010000008274100520160218000101 00000000000000000000000000000000000000000000000000000000000000000000000000000000000000000000000000000000000000000N 00000000000NCONT   00    00000000000          00000000000000000000000000000000000000000000 000000000000000A000000000000000000000000000000000000000000000 000000000000000000000000000000000000000     00000000                                                                                                                        000000000000000000
F0010000008274200001000090050144800011050500000000000000000201602180002001PLASTICOS JR ASOCIADOS SAS                        D000000001100000000000000000000000100010010000000000000000000000F0010000008274200120160218000101 00000000000000000000000000000000000000000000000000000000000000000000000000000000000000000000000000000000000000000N 00000000000NCONT   00    00000000000          00000000000000000000000000000000000000000000 000000000000000A000000000000000000000000000000000000000000000 000000000000000000000000000000000000000     00000000                                                                                                                        000000000000000000
F0010000008274200002000090050144800041450500000000000000000201602180002001PLASTICOS JR ASOCIADOS SAS                        C000000000900000000000000000000000100010010000000000000000000000F0010000008274200220160218000101 00000000000000000000000000000000000000000000000000000000000000000000000000000000000000000000000000000000000000000N 00000000000NCONT   00    00000000000          00000000000000000000000000000000000000000000 000000000000000A000000000000000000000000000000000000000000000 000000000000000000000000000000000000000     00000000                                                                                                                        000000000000000000
F0010000008274200003000090050144800042505000000000000000000201602180002001PLASTICOS JR ASOCIADOS SAS                        C000000000200000000000000000000000100010010000000000000000000000F0010000008274200320160218000101 00000000000000000000000000000000000000000000000000000000000000000000000000000000000000000000000000000000000000000N 00000000000NCONT   00    00000000000          00000000000000000000000000000000000000000000 000000000000000A000000000000000000000000000000000000000000000 000000000000000000000000000000000000000     00000000                                                                                                                        000000000000000000
F0010000008274200004000090050144800023658300000000000000000201602180002001PLASTICOS JR ASOCIADOS SAS                        C000000000007200000000000000000000100010010000000000000000000000F0010000008274200420160218000101 00000000000000000000000000000000000000000000000000000000000000000000000000000000000000000000000000000000000000000N 00000000000NCONT   00    00000000000          00000000000000000000000000000000000000000000 000000000000000A000000000000000000000000000000000000000000000 000000000000000000000000000000000000000     00000000                                                                                                                        000000000000000000
F0010000008274200005000090050144800013552100000000000000000201602180002001PLASTICOS JR ASOCIADOS SAS                        D000000000007200000000000000000000100010010000000000000000000000F0010000008274200520160218000101 00000000000000000000000000000000000000000000000000000000000000000000000000000000000000000000000000000000000000000N 00000000000NCONT   00    00000000000          00000000000000000000000000000000000000000000 000000000000000A000000000000000000000000000000000000000000000 000000000000000000000000000000000000000     00000000                                                                                                                        000000000000000000
F0010000008274300001000007200023300011050500000000000000000201602180002001WILLIAM ORTEGA                                    D000000003400000000000000000000000100010010000000000000000000000F0010000008274300120160218000101 00000000000000000000000000000000000000000000000000000000000000000000000000000000000000000000000000000000000000000N 00000000000NCONT   00    00000000000          00000000000000000000000000000000000000000000 000000000000000A000000000000000000000000000000000000000000000 000000000000000000000000000000000000000     00000000                                                                                                                        000000000000000000
F0010000008274300002000007200023300041450500000000000000000201602180002001WILLIAM ORTEGA                                    C000000003000000000000000000000000100010010000000000000000000000F0010000008274300220160218000101 00000000000000000000000000000000000000000000000000000000000000000000000000000000000000000000000000000000000000000N 00000000000NCONT   00    00000000000          00000000000000000000000000000000000000000000 000000000000000A000000000000000000000000000000000000000000000 000000000000000000000000000000000000000     00000000                                                                                                                        000000000000000000
F0010000008274300003000007200023300042505000000000000000000201602180002001WILLIAM ORTEGA                                    C000000000400000000000000000000000100010010000000000000000000000F0010000008274300320160218000101 00000000000000000000000000000000000000000000000000000000000000000000000000000000000000000000000000000000000000000N 00000000000NCONT   00    00000000000          00000000000000000000000000000000000000000000 000000000000000A000000000000000000000000000000000000000000000 000000000000000000000000000000000000000     00000000                                                                                                                        000000000000000000
F0010000008274300004000007200023300023658300000000000000000201602180002001WILLIAM ORTEGA                                    C000000000024000000000000000000000100010010000000000000000000000F0010000008274300420160218000101 00000000000000000000000000000000000000000000000000000000000000000000000000000000000000000000000000000000000000000N 00000000000NCONT   00    00000000000          00000000000000000000000000000000000000000000 000000000000000A000000000000000000000000000000000000000000000 000000000000000000000000000000000000000     00000000                                                                                                                        000000000000000000
F0010000008274300005000007200023300013552100000000000000000201602180002001WILLIAM ORTEGA                                    D000000000024000000000000000000000100010010000000000000000000000F0010000008274300520160218000101 00000000000000000000000000000000000000000000000000000000000000000000000000000000000000000000000000000000000000000N 00000000000NCONT   00    00000000000          00000000000000000000000000000000000000000000 000000000000000A000000000000000000000000000000000000000000000 000000000000000000000000000000000000000     00000000                                                                                                                        000000000000000000
F0010000008274400001000007223972300011050500000000000000000201602180002001LUIS VALENCIA                                     D000000006900000000000000000000000100010010000000000000000000000F0010000008274400120160218000101 00000000000000000000000000000000000000000000000000000000000000000000000000000000000000000000000000000000000000000N 00000000000NCONT   00    00000000000          00000000000000000000000000000000000000000000 000000000000000A000000000000000000000000000000000000000000000 000000000000000000000000000000000000000     00000000                                                                                                                        000000000000000000
F0010000008274400002000007223972300041450500000000000000000201602180002001LUIS VALENCIA                                     C000000006300000000000000000000000100010010000000000000000000000F0010000008274400220160218000101 00000000000000000000000000000000000000000000000000000000000000000000000000000000000000000000000000000000000000000N 00000000000NCONT   00    00000000000          00000000000000000000000000000000000000000000 000000000000000A000000000000000000000000000000000000000000000 000000000000000000000000000000000000000     00000000                                                                                                                        000000000000000000
F0010000008274400003000007223972300042505000000000000000000201602180002001LUIS VALENCIA                                     C000000000600000000000000000000000100010010000000000000000000000F0010000008274400320160218000101 00000000000000000000000000000000000000000000000000000000000000000000000000000000000000000000000000000000000000000N 00000000000NCONT   00    00000000000          00000000000000000000000000000000000000000000 000000000000000A000000000000000000000000000000000000000000000 000000000000000000000000000000000000000     00000000                                                                                                                        000000000000000000
F0010000008274400004000007223972300023658300000000000000000201602180002001LUIS VALENCIA                                     C000000000050400000000000000000000100010010000000000000000000000F0010000008274400420160218000101 00000000000000000000000000000000000000000000000000000000000000000000000000000000000000000000000000000000000000000N 00000000000NCONT   00    00000000000          00000000000000000000000000000000000000000000 000000000000000A000000000000000000000000000000000000000000000 000000000000000000000000000000000000000     00000000                                                                                                                        000000000000000000
F0010000008274400005000007223972300013552100000000000000000201602180002001LUIS VALENCIA                                     D000000000050400000000000000000000100010010000000000000000000000F0010000008274400520160218000101 00000000000000000000000000000000000000000000000000000000000000000000000000000000000000000000000000000000000000000N 00000000000NCONT   00    00000000000          00000000000000000000000000000000000000000000 000000000000000A000000000000000000000000000000000000000000000 000000000000000000000000000000000000000     00000000                                                                                                                        000000000000000000
F0010000008274500001000000431178400011050500000000000000000201602180002001EFRAIN ALVAREZ                                    D000000001040000000000000000000000100010010000000000000000000000F0010000008274500120160218000101 00000000000000000000000000000000000000000000000000000000000000000000000000000000000000000000000000000000000000000N 00000000000NCONT   00    00000000000          00000000000000000000000000000000000000000000 000000000000000A000000000000000000000000000000000000000000000 000000000000000000000000000000000000000     00000000                                                                                                                        000000000000000000
F0010000008274500002000000431178400041450500000000000000000201602180002001EFRAIN ALVAREZ                                    C000000000860000000000000000000000100010010000000000000000000000F0010000008274500220160218000101 00000000000000000000000000000000000000000000000000000000000000000000000000000000000000000000000000000000000000000N 00000000000NCONT   00    00000000000          00000000000000000000000000000000000000000000 000000000000000A000000000000000000000000000000000000000000000 000000000000000000000000000000000000000     00000000                                                                                                                        000000000000000000
F0010000008274500003000000431178400042505000000000000000000201602180002001EFRAIN ALVAREZ                                    C000000000180000000000000000000000100010010000000000000000000000F0010000008274500320160218000101 00000000000000000000000000000000000000000000000000000000000000000000000000000000000000000000000000000000000000000N 00000000000NCONT   00    00000000000          00000000000000000000000000000000000000000000 000000000000000A000000000000000000000000000000000000000000000 000000000000000000000000000000000000000     00000000                                                                                                                        000000000000000000
F0010000008274500004000000431178400023658300000000000000000201602180002001EFRAIN ALVAREZ                                    C000000000006900000000000000000000100010010000000000000000000000F0010000008274500420160218000101 00000000000000000000000000000000000000000000000000000000000000000000000000000000000000000000000000000000000000000N 00000000000NCONT   00    00000000000          00000000000000000000000000000000000000000000 000000000000000A000000000000000000000000000000000000000000000 000000000000000000000000000000000000000     00000000                                                                                                                        000000000000000000
F0010000008274500005000000431178400013552100000000000000000201602180002001EFRAIN ALVAREZ                                    D000000000006900000000000000000000100010010000000000000000000000F0010000008274500520160218000101 00000000000000000000000000000000000000000000000000000000000000000000000000000000000000000000000000000000000000000N 00000000000NCONT   00    00000000000          00000000000000000000000000000000000000000000 000000000000000A000000000000000000000000000000000000000000000 000000000000000000000000000000000000000     00000000                                                                                                                        000000000000000000
F0010000008274600001000000431178400011050500000000000000000201602180002001EFRAIN ALVAREZ                                    D000000001860000000000000000000000100010010000000000000000000000F0010000008274600120160218000101 00000000000000000000000000000000000000000000000000000000000000000000000000000000000000000000000000000000000000000N 00000000000NCONT   00    00000000000          00000000000000000000000000000000000000000000 000000000000000A000000000000000000000000000000000000000000000 000000000000000000000000000000000000000     00000000                                                                                                                        000000000000000000
F0010000008274600002000000431178400041450500000000000000000201602180002001EFRAIN ALVAREZ                                    C000000001760000000000000000000000100010010000000000000000000000F0010000008274600220160218000101 00000000000000000000000000000000000000000000000000000000000000000000000000000000000000000000000000000000000000000N 00000000000NCONT   00    00000000000          00000000000000000000000000000000000000000000 000000000000000A000000000000000000000000000000000000000000000 000000000000000000000000000000000000000     00000000                                                                                                                        000000000000000000
F0010000008274600003000000431178400042505000000000000000000201602180002001EFRAIN ALVAREZ                                    C000000000100000000000000000000000100010010000000000000000000000F0010000008274600320160218000101 00000000000000000000000000000000000000000000000000000000000000000000000000000000000000000000000000000000000000000N 00000000000NCONT   00    00000000000          00000000000000000000000000000000000000000000 000000000000000A000000000000000000000000000000000000000000000 000000000000000000000000000000000000000     00000000                                                                                                                        000000000000000000
F0010000008274600004000000431178400023658300000000000000000201602180002001EFRAIN ALVAREZ                                    C000000000014100000000000000000000100010010000000000000000000000F0010000008274600420160218000101 00000000000000000000000000000000000000000000000000000000000000000000000000000000000000000000000000000000000000000N 00000000000NCONT   00    00000000000          00000000000000000000000000000000000000000000 000000000000000A000000000000000000000000000000000000000000000 000000000000000000000000000000000000000     00000000                                                                                                                        000000000000000000
F0010000008274600005000000431178400013552100000000000000000201602180002001EFRAIN ALVAREZ                                    D000000000014100000000000000000000100010010000000000000000000000F0010000008274600520160218000101 00000000000000000000000000000000000000000000000000000000000000000000000000000000000000000000000000000000000000000N 00000000000NCONT   00    00000000000          00000000000000000000000000000000000000000000 000000000000000A000000000000000000000000000000000000000000000 000000000000000000000000000000000000000     00000000                                                                                                                        000000000000000000
F0010000008274700001000090013859100011050500000000000000000201602180002001ALUMARKET BARRANQUILLA S.A.S.                     D000000003139600000000000000000000100010010000000000000000000000F0010000008274700120160218000101 00000000000000000000000000000000000000000000000000000000000000000000000000000000000000000000000000000000000000000N 00000000000NCONT   00    00000000000          00000000000000000000000000000000000000000000 000000000000000A000000000000000000000000000000000000000000000 000000000000000000000000000000000000000     00000000                                                                                                                        000000000000000000
F0010000008274700002000090013859100041450500000000000000000201602180002001ALUMARKET BARRANQUILLA S.A.S.                     C000000002700000000000000000000000100010010000000000000000000000F0010000008274700220160218000101 00000000000000000000000000000000000000000000000000000000000000000000000000000000000000000000000000000000000000000N 00000000000NCONT   00    00000000000          00000000000000000000000000000000000000000000 000000000000000A000000000000000000000000000000000000000000000 000000000000000000000000000000000000000     00000000                                                                                                                        000000000000000000
F0010000008274700003000090013859100042505000000000000000000201602180002001ALUMARKET BARRANQUILLA S.A.S.                     C000000000439600000000000000000000100010010000000000000000000000F0010000008274700320160218000101 00000000000000000000000000000000000000000000000000000000000000000000000000000000000000000000000000000000000000000N 00000000000NCONT   00    00000000000          00000000000000000000000000000000000000000000 000000000000000A000000000000000000000000000000000000000000000 000000000000000000000000000000000000000     00000000                                                                                                                        000000000000000000
F0010000008274700004000090013859100023658300000000000000000201602180002001ALUMARKET BARRANQUILLA S.A.S.                     C000000000021600000000000000000000100010010000000000000000000000F0010000008274700420160218000101 00000000000000000000000000000000000000000000000000000000000000000000000000000000000000000000000000000000000000000N 00000000000NCONT   00    00000000000          00000000000000000000000000000000000000000000 000000000000000A000000000000000000000000000000000000000000000 000000000000000000000000000000000000000     00000000                                                                                                                        000000000000000000
F0010000008274700005000090013859100013552100000000000000000201602180002001ALUMARKET BARRANQUILLA S.A.S.                     D000000000021600000000000000000000100010010000000000000000000000F0010000008274700520160218000101 00000000000000000000000000000000000000000000000000000000000000000000000000000000000000000000000000000000000000000N 00000000000NCONT   00    00000000000          00000000000000000000000000000000000000000000 000000000000000A000000000000000000000000000000000000000000000 000000000000000000000000000000000000000     00000000                                                                                                                        000000000000000000
F0010000008274800001000000431178400011050500000000000000000201602180002001EFRAIN ALVAREZ                                    D000000001910000000000000000000000100010010000000000000000000000F0010000008274800120160218000101 00000000000000000000000000000000000000000000000000000000000000000000000000000000000000000000000000000000000000000N 00000000000NCONT   00    00000000000          00000000000000000000000000000000000000000000 000000000000000A000000000000000000000000000000000000000000000 000000000000000000000000000000000000000     00000000                                                                                                                        000000000000000000
F0010000008274800002000000431178400041450500000000000000000201602180002001EFRAIN ALVAREZ                                    C000000001760000000000000000000000100010010000000000000000000000F0010000008274800220160218000101 00000000000000000000000000000000000000000000000000000000000000000000000000000000000000000000000000000000000000000N 00000000000NCONT   00    00000000000          00000000000000000000000000000000000000000000 000000000000000A000000000000000000000000000000000000000000000 000000000000000000000000000000000000000     00000000                                                                                                                        000000000000000000
F0010000008274800003000000431178400042505000000000000000000201602180002001EFRAIN ALVAREZ                                    C000000000150000000000000000000000100010010000000000000000000000F0010000008274800320160218000101 00000000000000000000000000000000000000000000000000000000000000000000000000000000000000000000000000000000000000000N 00000000000NCONT   00    00000000000          00000000000000000000000000000000000000000000 000000000000000A000000000000000000000000000000000000000000000 000000000000000000000000000000000000000     00000000                                                                                                                        000000000000000000
F0010000008274800004000000431178400023658300000000000000000201602180002001EFRAIN ALVAREZ                                    C000000000014100000000000000000000100010010000000000000000000000F0010000008274800420160218000101 00000000000000000000000000000000000000000000000000000000000000000000000000000000000000000000000000000000000000000N 00000000000NCONT   00    00000000000          00000000000000000000000000000000000000000000 000000000000000A000000000000000000000000000000000000000000000 000000000000000000000000000000000000000     00000000                                                                                                                        000000000000000000
F0010000008274800005000000431178400013552100000000000000000201602180002001EFRAIN ALVAREZ                                    D000000000014100000000000000000000100010010000000000000000000000F0010000008274800520160218000101 00000000000000000000000000000000000000000000000000000000000000000000000000000000000000000000000000000000000000000N 00000000000NCONT   00    00000000000          00000000000000000000000000000000000000000000 000000000000000A000000000000000000000000000000000000000000000 000000000000000000000000000000000000000     00000000                                                                                                                        000000000000000000
F0010000008274900001000000431178400011050500000000000000000201602180002001EFRAIN ALVAREZ                                    D000000003940000000000000000000000100010010000000000000000000000F0010000008274900120160218000101 00000000000000000000000000000000000000000000000000000000000000000000000000000000000000000000000000000000000000000N 00000000000NCONT   00    00000000000          00000000000000000000000000000000000000000000 000000000000000A000000000000000000000000000000000000000000000 000000000000000000000000000000000000000     00000000                                                                                                                        000000000000000000
F0010000008274900002000000431178400041450500000000000000000201602180002001EFRAIN ALVAREZ                                    C000000003440000000000000000000000100010010000000000000000000000F0010000008274900220160218000101 00000000000000000000000000000000000000000000000000000000000000000000000000000000000000000000000000000000000000000N 00000000000NCONT   00    00000000000          00000000000000000000000000000000000000000000 000000000000000A000000000000000000000000000000000000000000000 000000000000000000000000000000000000000     00000000                                                                                                                        000000000000000000
F0010000008274900003000000431178400042505000000000000000000201602180002001EFRAIN ALVAREZ                                    C000000000500000000000000000000000100010010000000000000000000000F0010000008274900320160218000101 00000000000000000000000000000000000000000000000000000000000000000000000000000000000000000000000000000000000000000N 00000000000NCONT   00    00000000000          00000000000000000000000000000000000000000000 000000000000000A000000000000000000000000000000000000000000000 000000000000000000000000000000000000000     00000000                                                                                                                        000000000000000000
F0010000008274900004000000431178400023658300000000000000000201602180002001EFRAIN ALVAREZ                                    C000000000027500000000000000000000100010010000000000000000000000F0010000008274900420160218000101 00000000000000000000000000000000000000000000000000000000000000000000000000000000000000000000000000000000000000000N 00000000000NCONT   00    00000000000          00000000000000000000000000000000000000000000 000000000000000A000000000000000000000000000000000000000000000 000000000000000000000000000000000000000     00000000                                                                                                                        000000000000000000
F0010000008274900005000000431178400013552100000000000000000201602180002001EFRAIN ALVAREZ                                    D000000000027500000000000000000000100010010000000000000000000000F0010000008274900520160218000101 00000000000000000000000000000000000000000000000000000000000000000000000000000000000000000000000000000000000000000N 00000000000NCONT   00    00000000000          00000000000000000000000000000000000000000000 000000000000000A000000000000000000000000000000000000000000000 000000000000000000000000000000000000000     00000000                                                                                                                        000000000000000000
F0010000008275000001000000431178400011050500000000000000000201602180002001EFRAIN ALVAREZ                                    D000000006450000000000000000000000100010010000000000000000000000F0010000008275000120160218000101 00000000000000000000000000000000000000000000000000000000000000000000000000000000000000000000000000000000000000000N 00000000000NCONT   00    00000000000          00000000000000000000000000000000000000000000 000000000000000A000000000000000000000000000000000000000000000 000000000000000000000000000000000000000     00000000                                                                                                                        000000000000000000
F0010000008275000002000000431178400041450500000000000000000201602180002001EFRAIN ALVAREZ                                    C000000005950000000000000000000000100010010000000000000000000000F0010000008275000220160218000101 00000000000000000000000000000000000000000000000000000000000000000000000000000000000000000000000000000000000000000N 00000000000NCONT   00    00000000000          00000000000000000000000000000000000000000000 000000000000000A000000000000000000000000000000000000000000000 000000000000000000000000000000000000000     00000000                                                                                                                        000000000000000000
F0010000008275000003000000431178400042505000000000000000000201602180002001EFRAIN ALVAREZ                                    C000000000500000000000000000000000100010010000000000000000000000F0010000008275000320160218000101 00000000000000000000000000000000000000000000000000000000000000000000000000000000000000000000000000000000000000000N 00000000000NCONT   00    00000000000          00000000000000000000000000000000000000000000 000000000000000A000000000000000000000000000000000000000000000 000000000000000000000000000000000000000     00000000                                                                                                                        000000000000000000
F0010000008275000004000000431178400023658300000000000000000201602180002001EFRAIN ALVAREZ                                    C000000000047600000000000000000000100010010000000000000000000000F0010000008275000420160218000101 00000000000000000000000000000000000000000000000000000000000000000000000000000000000000000000000000000000000000000N 00000000000NCONT   00    00000000000          00000000000000000000000000000000000000000000 000000000000000A000000000000000000000000000000000000000000000 000000000000000000000000000000000000000     00000000                                                                                                                        000000000000000000
F0010000008275000005000000431178400013552100000000000000000201602180002001EFRAIN ALVAREZ                                    D000000000047600000000000000000000100010010000000000000000000000F0010000008275000520160218000101 00000000000000000000000000000000000000000000000000000000000000000000000000000000000000000000000000000000000000000N 00000000000NCONT   00    00000000000          00000000000000000000000000000000000000000000 000000000000000A000000000000000000000000000000000000000000000 000000000000000000000000000000000000000     00000000                                                                                                                        000000000000000000
F0010000008275100001000001719393900011050500000000000000000201602180002001JAIRO BASTIDAS RAMIREZ                            D000000005700000000000000000000000100010010000000000000000000000F0010000008275100120160218000101 00000000000000000000000000000000000000000000000000000000000000000000000000000000000000000000000000000000000000000N 00000000000NCONT   00    00000000000          00000000000000000000000000000000000000000000 000000000000000A000000000000000000000000000000000000000000000 000000000000000000000000000000000000000     00000000                                                                                                                        000000000000000000
F0010000008275100002000001719393900041450500000000000000000201602180002001JAIRO BASTIDAS RAMIREZ                            C000000004500000000000000000000000100010010000000000000000000000F0010000008275100220160218000101 00000000000000000000000000000000000000000000000000000000000000000000000000000000000000000000000000000000000000000N 00000000000NCONT   00    00000000000          00000000000000000000000000000000000000000000 000000000000000A000000000000000000000000000000000000000000000 000000000000000000000000000000000000000     00000000                                                                                                                        000000000000000000
F0010000008275100003000001719393900042505000000000000000000201602180002001JAIRO BASTIDAS RAMIREZ                            C000000001200000000000000000000000100010010000000000000000000000F0010000008275100320160218000101 00000000000000000000000000000000000000000000000000000000000000000000000000000000000000000000000000000000000000000N 00000000000NCONT   00    00000000000          00000000000000000000000000000000000000000000 000000000000000A000000000000000000000000000000000000000000000 000000000000000000000000000000000000000     00000000                                                                                                                        000000000000000000
F0010000008275100004000001719393900023658300000000000000000201602180002001JAIRO BASTIDAS RAMIREZ                            C000000000036000000000000000000000100010010000000000000000000000F0010000008275100420160218000101 00000000000000000000000000000000000000000000000000000000000000000000000000000000000000000000000000000000000000000N 00000000000NCONT   00    00000000000          00000000000000000000000000000000000000000000 000000000000000A000000000000000000000000000000000000000000000 000000000000000000000000000000000000000     00000000                                                                                                                        000000000000000000
F0010000008275100005000001719393900013552100000000000000000201602180002001JAIRO BASTIDAS RAMIREZ                            D000000000036000000000000000000000100010010000000000000000000000F0010000008275100520160218000101 00000000000000000000000000000000000000000000000000000000000000000000000000000000000000000000000000000000000000000N 00000000000NCONT   00    00000000000          00000000000000000000000000000000000000000000 000000000000000A000000000000000000000000000000000000000000000 000000000000000000000000000000000000000     00000000                                                                                                                        000000000000000000
F0010000008275200001000001719393900011050500000000000000000201602180002001JAIRO BASTIDAS RAMIREZ                            D000000001700000000000000000000000100010010000000000000000000000F0010000008275200120160218000101 00000000000000000000000000000000000000000000000000000000000000000000000000000000000000000000000000000000000000000N 00000000000NCONT   00    00000000000          00000000000000000000000000000000000000000000 000000000000000A000000000000000000000000000000000000000000000 000000000000000000000000000000000000000     00000000                                                                                                                        000000000000000000
F0010000008275200002000001719393900041450500000000000000000201602180002001JAIRO BASTIDAS RAMIREZ                            C000000001300000000000000000000000100010010000000000000000000000F0010000008275200220160218000101 00000000000000000000000000000000000000000000000000000000000000000000000000000000000000000000000000000000000000000N 00000000000NCONT   00    00000000000          00000000000000000000000000000000000000000000 000000000000000A000000000000000000000000000000000000000000000 000000000000000000000000000000000000000     00000000                                                                                                                        000000000000000000
F0010000008275200003000001719393900042505000000000000000000201602180002001JAIRO BASTIDAS RAMIREZ                            C000000000400000000000000000000000100010010000000000000000000000F0010000008275200320160218000101 00000000000000000000000000000000000000000000000000000000000000000000000000000000000000000000000000000000000000000N 00000000000NCONT   00    00000000000          00000000000000000000000000000000000000000000 000000000000000A000000000000000000000000000000000000000000000 000000000000000000000000000000000000000     00000000                                                                                                                        000000000000000000
F0010000008275200004000001719393900023658300000000000000000201602180002001JAIRO BASTIDAS RAMIREZ                            C000000000010400000000000000000000100010010000000000000000000000F0010000008275200420160218000101 00000000000000000000000000000000000000000000000000000000000000000000000000000000000000000000000000000000000000000N 00000000000NCONT   00    00000000000          00000000000000000000000000000000000000000000 000000000000000A000000000000000000000000000000000000000000000 000000000000000000000000000000000000000     00000000                                                                                                                        000000000000000000
F0010000008275200005000001719393900013552100000000000000000201602180002001JAIRO BASTIDAS RAMIREZ                            D000000000010400000000000000000000100010010000000000000000000000F0010000008275200520160218000101 00000000000000000000000000000000000000000000000000000000000000000000000000000000000000000000000000000000000000000N 00000000000NCONT   00    00000000000          00000000000000000000000000000000000000000000 000000000000000A000000000000000000000000000000000000000000000 000000000000000000000000000000000000000     00000000                                                                                                                        000000000000000000
F0010000008275300001000001719393900011050500000000000000000201602180002001JAIRO BASTIDAS RAMIREZ                            D000000005200000000000000000000000100010010000000000000000000000F0010000008275300120160218000101 00000000000000000000000000000000000000000000000000000000000000000000000000000000000000000000000000000000000000000N 00000000000NCONT   00    00000000000          00000000000000000000000000000000000000000000 000000000000000A000000000000000000000000000000000000000000000 000000000000000000000000000000000000000     00000000                                                                                                                        000000000000000000
F0010000008275300002000001719393900041450500000000000000000201602180002001JAIRO BASTIDAS RAMIREZ                            C000000004800000000000000000000000100010010000000000000000000000F0010000008275300220160218000101 00000000000000000000000000000000000000000000000000000000000000000000000000000000000000000000000000000000000000000N 00000000000NCONT   00    00000000000          00000000000000000000000000000000000000000000 000000000000000A000000000000000000000000000000000000000000000 000000000000000000000000000000000000000     00000000                                                                                                                        000000000000000000
F0010000008275300003000001719393900042505000000000000000000201602180002001JAIRO BASTIDAS RAMIREZ                            C000000000400000000000000000000000100010010000000000000000000000F0010000008275300320160218000101 00000000000000000000000000000000000000000000000000000000000000000000000000000000000000000000000000000000000000000N 00000000000NCONT   00    00000000000          00000000000000000000000000000000000000000000 000000000000000A000000000000000000000000000000000000000000000 000000000000000000000000000000000000000     00000000                                                                                                                        000000000000000000
F0010000008275300004000001719393900023658300000000000000000201602180002001JAIRO BASTIDAS RAMIREZ                            C000000000038400000000000000000000100010010000000000000000000000F0010000008275300420160218000101 00000000000000000000000000000000000000000000000000000000000000000000000000000000000000000000000000000000000000000N 00000000000NCONT   00    00000000000          00000000000000000000000000000000000000000000 000000000000000A000000000000000000000000000000000000000000000 000000000000000000000000000000000000000     00000000                                                                                                                        000000000000000000
F0010000008275300005000001719393900013552100000000000000000201602180002001JAIRO BASTIDAS RAMIREZ                            D000000000038400000000000000000000100010010000000000000000000000F0010000008275300520160218000101 00000000000000000000000000000000000000000000000000000000000000000000000000000000000000000000000000000000000000000N 00000000000NCONT   00    00000000000          00000000000000000000000000000000000000000000 000000000000000A000000000000000000000000000000000000000000000 000000000000000000000000000000000000000     00000000                                                                                                                        000000000000000000
F0010000008275400001000001022529300011050500000000000000000201602180002001ALBERTO ALVAREZ ISAZA                             D000000001662400000000000000000000100010010000000000000000000000F0010000008275400120160218000101 00000000000000000000000000000000000000000000000000000000000000000000000000000000000000000000000000000000000000000N 00000000000NCONT   00    00000000000          00000000000000000000000000000000000000000000 000000000000000A000000000000000000000000000000000000000000000 000000000000000000000000000000000000000     00000000                                                                                                                        000000000000000000
F0010000008275400002000001022529300041450500000000000000000201602180002001ALBERTO ALVAREZ ISAZA                             C000000001500000000000000000000000100010010000000000000000000000F0010000008275400220160218000101 00000000000000000000000000000000000000000000000000000000000000000000000000000000000000000000000000000000000000000N 00000000000NCONT   00    00000000000          00000000000000000000000000000000000000000000 000000000000000A000000000000000000000000000000000000000000000 000000000000000000000000000000000000000     00000000                                                                                                                        000000000000000000
F0010000008275400003000001022529300042505000000000000000000201602180002001ALBERTO ALVAREZ ISAZA                             C000000000162400000000000000000000100010010000000000000000000000F0010000008275400320160218000101 00000000000000000000000000000000000000000000000000000000000000000000000000000000000000000000000000000000000000000N 00000000000NCONT   00    00000000000          00000000000000000000000000000000000000000000 000000000000000A000000000000000000000000000000000000000000000 000000000000000000000000000000000000000     00000000                                                                                                                        000000000000000000
F0010000008275400004000001022529300023658300000000000000000201602180002001ALBERTO ALVAREZ ISAZA                             C000000000012000000000000000000000100010010000000000000000000000F0010000008275400420160218000101 00000000000000000000000000000000000000000000000000000000000000000000000000000000000000000000000000000000000000000N 00000000000NCONT   00    00000000000          00000000000000000000000000000000000000000000 000000000000000A000000000000000000000000000000000000000000000 000000000000000000000000000000000000000     00000000                                                                                                                        000000000000000000
F0010000008275400005000001022529300013552100000000000000000201602180002001ALBERTO ALVAREZ ISAZA                             D000000000012000000000000000000000100010010000000000000000000000F0010000008275400520160218000101 00000000000000000000000000000000000000000000000000000000000000000000000000000000000000000000000000000000000000000N 00000000000NCONT   00    00000000000          00000000000000000000000000000000000000000000 000000000000000A000000000000000000000000000000000000000000000 000000000000000000000000000000000000000     00000000                                                                                                                        000000000000000000
F0010000008275500001000001022529300011050500000000000000000201602180002001ALBERTO ALVAREZ ISAZA                             D000000003826500000000000000000000100010010000000000000000000000F0010000008275500120160218000101 00000000000000000000000000000000000000000000000000000000000000000000000000000000000000000000000000000000000000000N 00000000000NCONT   00    00000000000          00000000000000000000000000000000000000000000 000000000000000A000000000000000000000000000000000000000000000 000000000000000000000000000000000000000     00000000                                                                                                                        000000000000000000
F0010000008275500002000001022529300041450500000000000000000201602180002001ALBERTO ALVAREZ ISAZA                             C000000003520000000000000000000000100010010000000000000000000000F0010000008275500220160218000101 00000000000000000000000000000000000000000000000000000000000000000000000000000000000000000000000000000000000000000N 00000000000NCONT   00    00000000000          00000000000000000000000000000000000000000000 000000000000000A000000000000000000000000000000000000000000000 000000000000000000000000000000000000000     00000000                                                                                                                        000000000000000000
F0010000008275500003000001022529300042505000000000000000000201602180002001ALBERTO ALVAREZ ISAZA                             C000000000306500000000000000000000100010010000000000000000000000F0010000008275500320160218000101 00000000000000000000000000000000000000000000000000000000000000000000000000000000000000000000000000000000000000000N 00000000000NCONT   00    00000000000          00000000000000000000000000000000000000000000 000000000000000A000000000000000000000000000000000000000000000 000000000000000000000000000000000000000     00000000                                                                                                                        000000000000000000
F0010000008275500004000001022529300023658300000000000000000201602180002001ALBERTO ALVAREZ ISAZA                             C000000000028200000000000000000000100010010000000000000000000000F0010000008275500420160218000101 00000000000000000000000000000000000000000000000000000000000000000000000000000000000000000000000000000000000000000N 00000000000NCONT   00    00000000000          00000000000000000000000000000000000000000000 000000000000000A000000000000000000000000000000000000000000000 000000000000000000000000000000000000000     00000000                                                                                                                        000000000000000000
F0010000008275500005000001022529300013552100000000000000000201602180002001ALBERTO ALVAREZ ISAZA                             D000000000028200000000000000000000100010010000000000000000000000F0010000008275500520160218000101 00000000000000000000000000000000000000000000000000000000000000000000000000000000000000000000000000000000000000000N 00000000000NCONT   00    00000000000          00000000000000000000000000000000000000000000 000000000000000A000000000000000000000000000000000000000000000 000000000000000000000000000000000000000     00000000                                                                                                                        000000000000000000
F0010000008275600001000001022529300011050500000000000000000201602180002001ALBERTO ALVAREZ ISAZA                             D000000005747600000000000000000000100010010000000000000000000000F0010000008275600120160218000101 00000000000000000000000000000000000000000000000000000000000000000000000000000000000000000000000000000000000000000N 00000000000NCONT   00    00000000000          00000000000000000000000000000000000000000000 000000000000000A000000000000000000000000000000000000000000000 000000000000000000000000000000000000000     00000000                                                                                                                        000000000000000000
F0010000008275600002000001022529300041450500000000000000000201602180002001ALBERTO ALVAREZ ISAZA                             C000000005280000000000000000000000100010010000000000000000000000F0010000008275600220160218000101 00000000000000000000000000000000000000000000000000000000000000000000000000000000000000000000000000000000000000000N 00000000000NCONT   00    00000000000          00000000000000000000000000000000000000000000 000000000000000A000000000000000000000000000000000000000000000 000000000000000000000000000000000000000     00000000                                                                                                                        000000000000000000
F0010000008275600003000001022529300042505000000000000000000201602180002001ALBERTO ALVAREZ ISAZA                             C000000000467600000000000000000000100010010000000000000000000000F0010000008275600320160218000101 00000000000000000000000000000000000000000000000000000000000000000000000000000000000000000000000000000000000000000N 00000000000NCONT   00    00000000000          00000000000000000000000000000000000000000000 000000000000000A000000000000000000000000000000000000000000000 000000000000000000000000000000000000000     00000000                                                                                                                        000000000000000000
F0010000008275600004000001022529300023658300000000000000000201602180002001ALBERTO ALVAREZ ISAZA                             C000000000042200000000000000000000100010010000000000000000000000F0010000008275600420160218000101 00000000000000000000000000000000000000000000000000000000000000000000000000000000000000000000000000000000000000000N 00000000000NCONT   00    00000000000          00000000000000000000000000000000000000000000 000000000000000A000000000000000000000000000000000000000000000 000000000000000000000000000000000000000     00000000                                                                                                                        000000000000000000
F0010000008275600005000001022529300013552100000000000000000201602180002001ALBERTO ALVAREZ ISAZA                             D000000000042200000000000000000000100010010000000000000000000000F0010000008275600520160218000101 00000000000000000000000000000000000000000000000000000000000000000000000000000000000000000000000000000000000000000N 00000000000NCONT   00    00000000000          00000000000000000000000000000000000000000000 000000000000000A000000000000000000000000000000000000000000000 000000000000000000000000000000000000000     00000000                                                                                                                        000000000000000000
F0010000008275700001000001022529300011050500000000000000000201602180002001ALBERTO ALVAREZ ISAZA                             D000000001615400000000000000000000100010010000000000000000000000F0010000008275700120160218000101 00000000000000000000000000000000000000000000000000000000000000000000000000000000000000000000000000000000000000000N 00000000000NCONT   00    00000000000          00000000000000000000000000000000000000000000 000000000000000A000000000000000000000000000000000000000000000 000000000000000000000000000000000000000     00000000                                                                                                                        000000000000000000
F0010000008275700002000001022529300041450500000000000000000201602180002001ALBERTO ALVAREZ ISAZA                             C000000001500000000000000000000000100010010000000000000000000000F0010000008275700220160218000101 00000000000000000000000000000000000000000000000000000000000000000000000000000000000000000000000000000000000000000N 00000000000NCONT   00    00000000000          00000000000000000000000000000000000000000000 000000000000000A000000000000000000000000000000000000000000000 000000000000000000000000000000000000000     00000000                                                                                                                        000000000000000000
F0010000008275700003000001022529300042505000000000000000000201602180002001ALBERTO ALVAREZ ISAZA                             C000000000115400000000000000000000100010010000000000000000000000F0010000008275700320160218000101 00000000000000000000000000000000000000000000000000000000000000000000000000000000000000000000000000000000000000000N 00000000000NCONT   00    00000000000          00000000000000000000000000000000000000000000 000000000000000A000000000000000000000000000000000000000000000 000000000000000000000000000000000000000     00000000                                                                                                                        000000000000000000
F0010000008275700004000001022529300023658300000000000000000201602180002001ALBERTO ALVAREZ ISAZA                             C000000000012000000000000000000000100010010000000000000000000000F0010000008275700420160218000101 00000000000000000000000000000000000000000000000000000000000000000000000000000000000000000000000000000000000000000N 00000000000NCONT   00    00000000000          00000000000000000000000000000000000000000000 000000000000000A000000000000000000000000000000000000000000000 000000000000000000000000000000000000000     00000000                                                                                                                        000000000000000000
F0010000008275700005000001022529300013552100000000000000000201602180002001ALBERTO ALVAREZ ISAZA                             D000000000012000000000000000000000100010010000000000000000000000F0010000008275700520160218000101 00000000000000000000000000000000000000000000000000000000000000000000000000000000000000000000000000000000000000000N 00000000000NCONT   00    00000000000          00000000000000000000000000000000000000000000 000000000000000A000000000000000000000000000000000000000000000 000000000000000000000000000000000000000     00000000                                                                                                                        000000000000000000
F0010000008275800001000007213653800011050500000000000000000201602180002001VICTOR ECHAVEZ                                    D000000002300000000000000000000000100010010000000000000000000000F0010000008275800120160218000101 00000000000000000000000000000000000000000000000000000000000000000000000000000000000000000000000000000000000000000N 00000000000NCONT   00    00000000000          00000000000000000000000000000000000000000000 000000000000000A000000000000000000000000000000000000000000000 000000000000000000000000000000000000000     00000000                                                                                                                        000000000000000000
F0010000008275800002000007213653800041450500000000000000000201602180002001VICTOR ECHAVEZ                                    C000000001800000000000000000000000100010010000000000000000000000F0010000008275800220160218000101 00000000000000000000000000000000000000000000000000000000000000000000000000000000000000000000000000000000000000000N 00000000000NCONT   00    00000000000          00000000000000000000000000000000000000000000 000000000000000A000000000000000000000000000000000000000000000 000000000000000000000000000000000000000     00000000                                                                                                                        000000000000000000
F0010000008275800003000007213653800042505000000000000000000201602180002001VICTOR ECHAVEZ                                    C000000000500000000000000000000000100010010000000000000000000000F0010000008275800320160218000101 00000000000000000000000000000000000000000000000000000000000000000000000000000000000000000000000000000000000000000N 00000000000NCONT   00    00000000000          00000000000000000000000000000000000000000000 000000000000000A000000000000000000000000000000000000000000000 000000000000000000000000000000000000000     00000000                                                                                                                        000000000000000000
F0010000008275800004000007213653800023658300000000000000000201602180002001VICTOR ECHAVEZ                                    C000000000014400000000000000000000100010010000000000000000000000F0010000008275800420160218000101 00000000000000000000000000000000000000000000000000000000000000000000000000000000000000000000000000000000000000000N 00000000000NCONT   00    00000000000          00000000000000000000000000000000000000000000 000000000000000A000000000000000000000000000000000000000000000 000000000000000000000000000000000000000     00000000                                                                                                                        000000000000000000
F0010000008275800005000007213653800013552100000000000000000201602180002001VICTOR ECHAVEZ                                    D000000000014400000000000000000000100010010000000000000000000000F0010000008275800520160218000101 00000000000000000000000000000000000000000000000000000000000000000000000000000000000000000000000000000000000000000N 00000000000NCONT   00    00000000000          00000000000000000000000000000000000000000000 000000000000000A000000000000000000000000000000000000000000000 000000000000000000000000000000000000000     00000000                                                                                                                        000000000000000000
F0010000008275900001000090007142100011050500000000000000000201602180002001TODO BELLEZA Y MAX S.A.S                          D000000007670000000000000000000000100010010000000000000000000000F0010000008275900120160218000101 00000000000000000000000000000000000000000000000000000000000000000000000000000000000000000000000000000000000000000N 00000000000NCONT   00    00000000000          00000000000000000000000000000000000000000000 000000000000000A000000000000000000000000000000000000000000000 000000000000000000000000000000000000000     00000000                                                                                                                        000000000000000000
F0010000008275900002000090007142100041450500000000000000000201602180002001TODO BELLEZA Y MAX S.A.S                          C000000007470000000000000000000000100010010000000000000000000000F0010000008275900220160218000101 00000000000000000000000000000000000000000000000000000000000000000000000000000000000000000000000000000000000000000N 00000000000NCONT   00    00000000000          00000000000000000000000000000000000000000000 000000000000000A000000000000000000000000000000000000000000000 000000000000000000000000000000000000000     00000000                                                                                                                        000000000000000000
