F0010000007017900001000089011508200011050500000000000000000201504140002001ALMACEN Y TALLER CICLOCOSTA                       D000000001300000000000000000000000100010010000000000000000000000F0010000007017900120150414000101 00000000000000000000000000000000000000000000000000000000000000000000000000000000000000000000000000000000000000000N 00000000000NCONT   00    00000000000          00000000000000000000000000000000000000000000 000000000000000A000000000000000000000000000000000000000000000 000000000000000000000000000000000000000     00000000                                                                                                                        000000000000000000
F0010000007017900002000089011508200041450500000000000000000201504140002001ALMACEN Y TALLER CICLOCOSTA                       C000000000900000000000000000000000100010010000000000000000000000F0010000007017900220150414000101 00000000000000000000000000000000000000000000000000000000000000000000000000000000000000000000000000000000000000000N 00000000000NCONT   00    00000000000          00000000000000000000000000000000000000000000 000000000000000A000000000000000000000000000000000000000000000 000000000000000000000000000000000000000     00000000                                                                                                                        000000000000000000
F0010000007017900003000089011508200042505000000000000000000201504140002001ALMACEN Y TALLER CICLOCOSTA                       C000000000400000000000000000000000100010010000000000000000000000F0010000007017900320150414000101 00000000000000000000000000000000000000000000000000000000000000000000000000000000000000000000000000000000000000000N 00000000000NCONT   00    00000000000          00000000000000000000000000000000000000000000 000000000000000A000000000000000000000000000000000000000000000 000000000000000000000000000000000000000     00000000                                                                                                                        000000000000000000
F0010000007017900004000089011508200023658300000000000000000201504140002001ALMACEN Y TALLER CICLOCOSTA                       C000000000007200000000000000000000100010010000000000000000000000F0010000007017900420150414000101 00000000000000000000000000000000000000000000000000000000000000000000000000000000000000000000000000000000000000000N 00000000000NCONT   00    00000000000          00000000000000000000000000000000000000000000 000000000000000A000000000000000000000000000000000000000000000 000000000000000000000000000000000000000     00000000                                                                                                                        000000000000000000
F0010000007017900005000089011508200013552100000000000000000201504140002001ALMACEN Y TALLER CICLOCOSTA                       D000000000007200000000000000000000100010010000000000000000000000F0010000007017900520150414000101 00000000000000000000000000000000000000000000000000000000000000000000000000000000000000000000000000000000000000000N 00000000000NCONT   00    00000000000          00000000000000000000000000000000000000000000 000000000000000A000000000000000000000000000000000000000000000 000000000000000000000000000000000000000     00000000                                                                                                                        000000000000000000
F0010000007018000001000000744496800011050500000000000000000201504140002001TOMAS SANCHEZ                                     D000000001000000000000000000000000100010010000000000000000000000F0010000007018000120150414000101 00000000000000000000000000000000000000000000000000000000000000000000000000000000000000000000000000000000000000000N 00000000000NCONT   00    00000000000          00000000000000000000000000000000000000000000 000000000000000A000000000000000000000000000000000000000000000 000000000000000000000000000000000000000     00000000                                                                                                                        000000000000000000
F0010000007018000002000000744496800041450500000000000000000201504140002001TOMAS SANCHEZ                                     C000000000900000000000000000000000100010010000000000000000000000F0010000007018000220150414000101 00000000000000000000000000000000000000000000000000000000000000000000000000000000000000000000000000000000000000000N 00000000000NCONT   00    00000000000          00000000000000000000000000000000000000000000 000000000000000A000000000000000000000000000000000000000000000 000000000000000000000000000000000000000     00000000                                                                                                                        000000000000000000
F0010000007018000003000000744496800042505000000000000000000201504140002001TOMAS SANCHEZ                                     C000000000100000000000000000000000100010010000000000000000000000F0010000007018000320150414000101 00000000000000000000000000000000000000000000000000000000000000000000000000000000000000000000000000000000000000000N 00000000000NCONT   00    00000000000          00000000000000000000000000000000000000000000 000000000000000A000000000000000000000000000000000000000000000 000000000000000000000000000000000000000     00000000                                                                                                                        000000000000000000
F0010000007018000004000000744496800023658300000000000000000201504140002001TOMAS SANCHEZ                                     C000000000007200000000000000000000100010010000000000000000000000F0010000007018000420150414000101 00000000000000000000000000000000000000000000000000000000000000000000000000000000000000000000000000000000000000000N 00000000000NCONT   00    00000000000          00000000000000000000000000000000000000000000 000000000000000A000000000000000000000000000000000000000000000 000000000000000000000000000000000000000     00000000                                                                                                                        000000000000000000
F0010000007018000005000000744496800013552100000000000000000201504140002001TOMAS SANCHEZ                                     D000000000007200000000000000000000100010010000000000000000000000F0010000007018000520150414000101 00000000000000000000000000000000000000000000000000000000000000000000000000000000000000000000000000000000000000000N 00000000000NCONT   00    00000000000          00000000000000000000000000000000000000000000 000000000000000A000000000000000000000000000000000000000000000 000000000000000000000000000000000000000     00000000                                                                                                                        000000000000000000
F0010000007018100001000000747559300011050500000000000000000201504140002001RAFAEL SERRANO                                    D000000001500000000000000000000000100010010000000000000000000000F0010000007018100120150414000101 00000000000000000000000000000000000000000000000000000000000000000000000000000000000000000000000000000000000000000N 00000000000NCONT   00    00000000000          00000000000000000000000000000000000000000000 000000000000000A000000000000000000000000000000000000000000000 000000000000000000000000000000000000000     00000000                                                                                                                        000000000000000000
F0010000007018100002000000747559300041450500000000000000000201504140002001RAFAEL SERRANO                                    C000000001000000000000000000000000100010010000000000000000000000F0010000007018100220150414000101 00000000000000000000000000000000000000000000000000000000000000000000000000000000000000000000000000000000000000000N 00000000000NCONT   00    00000000000          00000000000000000000000000000000000000000000 000000000000000A000000000000000000000000000000000000000000000 000000000000000000000000000000000000000     00000000                                                                                                                        000000000000000000
F0010000007018100003000000747559300042505000000000000000000201504140002001RAFAEL SERRANO                                    C000000000500000000000000000000000100010010000000000000000000000F0010000007018100320150414000101 00000000000000000000000000000000000000000000000000000000000000000000000000000000000000000000000000000000000000000N 00000000000NCONT   00    00000000000          00000000000000000000000000000000000000000000 000000000000000A000000000000000000000000000000000000000000000 000000000000000000000000000000000000000     00000000                                                                                                                        000000000000000000
F0010000007018100004000000747559300023658300000000000000000201504140002001RAFAEL SERRANO                                    C000000000008000000000000000000000100010010000000000000000000000F0010000007018100420150414000101 00000000000000000000000000000000000000000000000000000000000000000000000000000000000000000000000000000000000000000N 00000000000NCONT   00    00000000000          00000000000000000000000000000000000000000000 000000000000000A000000000000000000000000000000000000000000000 000000000000000000000000000000000000000     00000000                                                                                                                        000000000000000000
F0010000007018100005000000747559300013552100000000000000000201504140002001RAFAEL SERRANO                                    D000000000008000000000000000000000100010010000000000000000000000F0010000007018100520150414000101 00000000000000000000000000000000000000000000000000000000000000000000000000000000000000000000000000000000000000000N 00000000000NCONT   00    00000000000          00000000000000000000000000000000000000000000 000000000000000A000000000000000000000000000000000000000000000 000000000000000000000000000000000000000     00000000                                                                                                                        000000000000000000
F0010000007018200001000007016511700011050500000000000000000201504140002001YEISON CASTAÑO                                   D000000007600000000000000000000000100010010000000000000000000000F0010000007018200120150414000101 00000000000000000000000000000000000000000000000000000000000000000000000000000000000000000000000000000000000000000N 00000000000NCONT   00    00000000000          00000000000000000000000000000000000000000000 000000000000000A000000000000000000000000000000000000000000000 000000000000000000000000000000000000000     00000000                                                                                                                        000000000000000000
F0010000007018200002000007016511700041450500000000000000000201504140002001YEISON CASTAÑO                                   C000000006600000000000000000000000100010010000000000000000000000F0010000007018200220150414000101 00000000000000000000000000000000000000000000000000000000000000000000000000000000000000000000000000000000000000000N 00000000000NCONT   00    00000000000          00000000000000000000000000000000000000000000 000000000000000A000000000000000000000000000000000000000000000 000000000000000000000000000000000000000     00000000                                                                                                                        000000000000000000
F0010000007018200003000007016511700042505000000000000000000201504140002001YEISON CASTAÑO                                   C000000001000000000000000000000000100010010000000000000000000000F0010000007018200320150414000101 00000000000000000000000000000000000000000000000000000000000000000000000000000000000000000000000000000000000000000N 00000000000NCONT   00    00000000000          00000000000000000000000000000000000000000000 000000000000000A000000000000000000000000000000000000000000000 000000000000000000000000000000000000000     00000000                                                                                                                        000000000000000000
F0010000007018200004000007016511700023658300000000000000000201504140002001YEISON CASTAÑO                                   C000000000052800000000000000000000100010010000000000000000000000F0010000007018200420150414000101 00000000000000000000000000000000000000000000000000000000000000000000000000000000000000000000000000000000000000000N 00000000000NCONT   00    00000000000          00000000000000000000000000000000000000000000 000000000000000A000000000000000000000000000000000000000000000 000000000000000000000000000000000000000     00000000                                                                                                                        000000000000000000
F0010000007018200005000007016511700013552100000000000000000201504140002001YEISON CASTAÑO                                   D000000000052800000000000000000000100010010000000000000000000000F0010000007018200520150414000101 00000000000000000000000000000000000000000000000000000000000000000000000000000000000000000000000000000000000000000N 00000000000NCONT   00    00000000000          00000000000000000000000000000000000000000000 000000000000000A000000000000000000000000000000000000000000000 000000000000000000000000000000000000000     00000000                                                                                                                        000000000000000000
F0010000007018300001000000721252700011050500000000000000000201504140002001LEONEL RODRIGUEZ ..                               D000000017000000000000000000000000100010010000000000000000000000F0010000007018300120150414000101 00000000000000000000000000000000000000000000000000000000000000000000000000000000000000000000000000000000000000000N 00000000000NCONT   00    00000000000          00000000000000000000000000000000000000000000 000000000000000A000000000000000000000000000000000000000000000 000000000000000000000000000000000000000     00000000                                                                                                                        000000000000000000
F0010000007018300002000000721252700041450500000000000000000201504140002001LEONEL RODRIGUEZ ..                               C000000016900000000000000000000000100010010000000000000000000000F0010000007018300220150414000101 00000000000000000000000000000000000000000000000000000000000000000000000000000000000000000000000000000000000000000N 00000000000NCONT   00    00000000000          00000000000000000000000000000000000000000000 000000000000000A000000000000000000000000000000000000000000000 000000000000000000000000000000000000000     00000000                                                                                                                        000000000000000000
F0010000007018300003000000721252700042505000000000000000000201504140002001LEONEL RODRIGUEZ ..                               C000000000100000000000000000000000100010010000000000000000000000F0010000007018300320150414000101 00000000000000000000000000000000000000000000000000000000000000000000000000000000000000000000000000000000000000000N 00000000000NCONT   00    00000000000          00000000000000000000000000000000000000000000 000000000000000A000000000000000000000000000000000000000000000 000000000000000000000000000000000000000     00000000                                                                                                                        000000000000000000
F0010000007018300004000000721252700023658300000000000000000201504140002001LEONEL RODRIGUEZ ..                               C000000000135200000000000000000000100010010000000000000000000000F0010000007018300420150414000101 00000000000000000000000000000000000000000000000000000000000000000000000000000000000000000000000000000000000000000N 00000000000NCONT   00    00000000000          00000000000000000000000000000000000000000000 000000000000000A000000000000000000000000000000000000000000000 000000000000000000000000000000000000000     00000000                                                                                                                        000000000000000000
F0010000007018300005000000721252700013552100000000000000000201504140002001LEONEL RODRIGUEZ ..                               D000000000135200000000000000000000100010010000000000000000000000F0010000007018300520150414000101 00000000000000000000000000000000000000000000000000000000000000000000000000000000000000000000000000000000000000000N 00000000000NCONT   00    00000000000          00000000000000000000000000000000000000000000 000000000000000A000000000000000000000000000000000000000000000 000000000000000000000000000000000000000     00000000                                                                                                                        000000000000000000
F0010000007018400001000086053108300011050500000000000000000201504140002001EL PALACIO DEL ALUMINIO  LTDA                     D000000002200000000000000000000000100010010000000000000000000000F0010000007018400120150414000101 00000000000000000000000000000000000000000000000000000000000000000000000000000000000000000000000000000000000000000N 00000000000NCONT   00    00000000000          00000000000000000000000000000000000000000000 000000000000000A000000000000000000000000000000000000000000000 000000000000000000000000000000000000000     00000000                                                                                                                        000000000000000000
F0010000007018400002000086053108300041450500000000000000000201504140002001EL PALACIO DEL ALUMINIO  LTDA                     C000000002100000000000000000000000100010010000000000000000000000F0010000007018400220150414000101 00000000000000000000000000000000000000000000000000000000000000000000000000000000000000000000000000000000000000000N 00000000000NCONT   00    00000000000          00000000000000000000000000000000000000000000 000000000000000A000000000000000000000000000000000000000000000 000000000000000000000000000000000000000     00000000                                                                                                                        000000000000000000
F0010000007018400003000086053108300042505000000000000000000201504140002001EL PALACIO DEL ALUMINIO  LTDA                     C000000000100000000000000000000000100010010000000000000000000000F0010000007018400320150414000101 00000000000000000000000000000000000000000000000000000000000000000000000000000000000000000000000000000000000000000N 00000000000NCONT   00    00000000000          00000000000000000000000000000000000000000000 000000000000000A000000000000000000000000000000000000000000000 000000000000000000000000000000000000000     00000000                                                                                                                        000000000000000000
F0010000007018400004000086053108300023658300000000000000000201504140002001EL PALACIO DEL ALUMINIO  LTDA                     C000000000016800000000000000000000100010010000000000000000000000F0010000007018400420150414000101 00000000000000000000000000000000000000000000000000000000000000000000000000000000000000000000000000000000000000000N 00000000000NCONT   00    00000000000          00000000000000000000000000000000000000000000 000000000000000A000000000000000000000000000000000000000000000 000000000000000000000000000000000000000     00000000                                                                                                                        000000000000000000
F0010000007018400005000086053108300013552100000000000000000201504140002001EL PALACIO DEL ALUMINIO  LTDA                     D000000000016800000000000000000000100010010000000000000000000000F0010000007018400520150414000101 00000000000000000000000000000000000000000000000000000000000000000000000000000000000000000000000000000000000000000N 00000000000NCONT   00    00000000000          00000000000000000000000000000000000000000000 000000000000000A000000000000000000000000000000000000000000000 000000000000000000000000000000000000000     00000000                                                                                                                        000000000000000000
F0010000007018500001000005525050200011050500000000000000000201504140002001PLASTICOS  DE LA COSTA                            D000000001800000000000000000000000100010010000000000000000000000F0010000007018500120150414000101 00000000000000000000000000000000000000000000000000000000000000000000000000000000000000000000000000000000000000000N 00000000000NCONT   00    00000000000          00000000000000000000000000000000000000000000 000000000000000A000000000000000000000000000000000000000000000 000000000000000000000000000000000000000     00000000                                                                                                                        000000000000000000
F0010000007018500002000005525050200041450500000000000000000201504140002001PLASTICOS  DE LA COSTA                            C000000001700000000000000000000000100010010000000000000000000000F0010000007018500220150414000101 00000000000000000000000000000000000000000000000000000000000000000000000000000000000000000000000000000000000000000N 00000000000NCONT   00    00000000000          00000000000000000000000000000000000000000000 000000000000000A000000000000000000000000000000000000000000000 000000000000000000000000000000000000000     00000000                                                                                                                        000000000000000000
F0010000007018500003000005525050200042505000000000000000000201504140002001PLASTICOS  DE LA COSTA                            C000000000100000000000000000000000100010010000000000000000000000F0010000007018500320150414000101 00000000000000000000000000000000000000000000000000000000000000000000000000000000000000000000000000000000000000000N 00000000000NCONT   00    00000000000          00000000000000000000000000000000000000000000 000000000000000A000000000000000000000000000000000000000000000 000000000000000000000000000000000000000     00000000                                                                                                                        000000000000000000
F0010000007018500004000005525050200023658300000000000000000201504140002001PLASTICOS  DE LA COSTA                            C000000000013600000000000000000000100010010000000000000000000000F0010000007018500420150414000101 00000000000000000000000000000000000000000000000000000000000000000000000000000000000000000000000000000000000000000N 00000000000NCONT   00    00000000000          00000000000000000000000000000000000000000000 000000000000000A000000000000000000000000000000000000000000000 000000000000000000000000000000000000000     00000000                                                                                                                        000000000000000000
F0010000007018500005000005525050200013552100000000000000000201504140002001PLASTICOS  DE LA COSTA                            D000000000013600000000000000000000100010010000000000000000000000F0010000007018500520150414000101 00000000000000000000000000000000000000000000000000000000000000000000000000000000000000000000000000000000000000000N 00000000000NCONT   00    00000000000          00000000000000000000000000000000000000000000 000000000000000A000000000000000000000000000000000000000000000 000000000000000000000000000000000000000     00000000                                                                                                                        000000000000000000
F0010000007018600001000007200289400011050500000000000000000201504140002001MIGUEL CORTINA                                    D000000003000000000000000000000000100010010000000000000000000000F0010000007018600120150414000101 00000000000000000000000000000000000000000000000000000000000000000000000000000000000000000000000000000000000000000N 00000000000NCONT   00    00000000000          00000000000000000000000000000000000000000000 000000000000000A000000000000000000000000000000000000000000000 000000000000000000000000000000000000000     00000000                                                                                                                        000000000000000000
F0010000007018600002000007200289400041450500000000000000000201504140002001MIGUEL CORTINA                                    C000000002400000000000000000000000100010010000000000000000000000F0010000007018600220150414000101 00000000000000000000000000000000000000000000000000000000000000000000000000000000000000000000000000000000000000000N 00000000000NCONT   00    00000000000          00000000000000000000000000000000000000000000 000000000000000A000000000000000000000000000000000000000000000 000000000000000000000000000000000000000     00000000                                                                                                                        000000000000000000
F0010000007018600003000007200289400042505000000000000000000201504140002001MIGUEL CORTINA                                    C000000000600000000000000000000000100010010000000000000000000000F0010000007018600320150414000101 00000000000000000000000000000000000000000000000000000000000000000000000000000000000000000000000000000000000000000N 00000000000NCONT   00    00000000000          00000000000000000000000000000000000000000000 000000000000000A000000000000000000000000000000000000000000000 000000000000000000000000000000000000000     00000000                                                                                                                        000000000000000000
F0010000007018600004000007200289400023658300000000000000000201504140002001MIGUEL CORTINA                                    C000000000019200000000000000000000100010010000000000000000000000F0010000007018600420150414000101 00000000000000000000000000000000000000000000000000000000000000000000000000000000000000000000000000000000000000000N 00000000000NCONT   00    00000000000          00000000000000000000000000000000000000000000 000000000000000A000000000000000000000000000000000000000000000 000000000000000000000000000000000000000     00000000                                                                                                                        000000000000000000
F0010000007018600005000007200289400013552100000000000000000201504140002001MIGUEL CORTINA                                    D000000000019200000000000000000000100010010000000000000000000000F0010000007018600520150414000101 00000000000000000000000000000000000000000000000000000000000000000000000000000000000000000000000000000000000000000N 00000000000NCONT   00    00000000000          00000000000000000000000000000000000000000000 000000000000000A000000000000000000000000000000000000000000000 000000000000000000000000000000000000000     00000000                                                                                                                        000000000000000000
F0010000007018700001000080023327700011050500000000000000000201504140002001DISINCO LTDA                                      D000000001900000000000000000000000100010010000000000000000000000F0010000007018700120150414000101 00000000000000000000000000000000000000000000000000000000000000000000000000000000000000000000000000000000000000000N 00000000000NCONT   00    00000000000          00000000000000000000000000000000000000000000 000000000000000A000000000000000000000000000000000000000000000 000000000000000000000000000000000000000     00000000                                                                                                                        000000000000000000
F0010000007018700002000080023327700041450500000000000000000201504140002001DISINCO LTDA                                      C000000001800000000000000000000000100010010000000000000000000000F0010000007018700220150414000101 00000000000000000000000000000000000000000000000000000000000000000000000000000000000000000000000000000000000000000N 00000000000NCONT   00    00000000000          00000000000000000000000000000000000000000000 000000000000000A000000000000000000000000000000000000000000000 000000000000000000000000000000000000000     00000000                                                                                                                        000000000000000000
F0010000007018700003000080023327700042505000000000000000000201504140002001DISINCO LTDA                                      C000000000100000000000000000000000100010010000000000000000000000F0010000007018700320150414000101 00000000000000000000000000000000000000000000000000000000000000000000000000000000000000000000000000000000000000000N 00000000000NCONT   00    00000000000          00000000000000000000000000000000000000000000 000000000000000A000000000000000000000000000000000000000000000 000000000000000000000000000000000000000     00000000                                                                                                                        000000000000000000
F0010000007018700004000080023327700023658300000000000000000201504140002001DISINCO LTDA                                      C000000000014400000000000000000000100010010000000000000000000000F0010000007018700420150414000101 00000000000000000000000000000000000000000000000000000000000000000000000000000000000000000000000000000000000000000N 00000000000NCONT   00    00000000000          00000000000000000000000000000000000000000000 000000000000000A000000000000000000000000000000000000000000000 000000000000000000000000000000000000000     00000000                                                                                                                        000000000000000000
F0010000007018700005000080023327700013552100000000000000000201504140002001DISINCO LTDA                                      D000000000014400000000000000000000100010010000000000000000000000F0010000007018700520150414000101 00000000000000000000000000000000000000000000000000000000000000000000000000000000000000000000000000000000000000000N 00000000000NCONT   00    00000000000          00000000000000000000000000000000000000000000 000000000000000A000000000000000000000000000000000000000000000 000000000000000000000000000000000000000     00000000                                                                                                                        000000000000000000
F0010000007018800001000080202486100011050500000000000000000201504140002001DISTRIBUIDORA RAMBAL LTDA                         D000000001300000000000000000000000100010010000000000000000000000F0010000007018800120150414000101 00000000000000000000000000000000000000000000000000000000000000000000000000000000000000000000000000000000000000000N 00000000000NCONT   00    00000000000          00000000000000000000000000000000000000000000 000000000000000A000000000000000000000000000000000000000000000 000000000000000000000000000000000000000     00000000                                                                                                                        000000000000000000
F0010000007018800002000080202486100041450500000000000000000201504140002001DISTRIBUIDORA RAMBAL LTDA                         C000000001200000000000000000000000100010010000000000000000000000F0010000007018800220150414000101 00000000000000000000000000000000000000000000000000000000000000000000000000000000000000000000000000000000000000000N 00000000000NCONT   00    00000000000          00000000000000000000000000000000000000000000 000000000000000A000000000000000000000000000000000000000000000 000000000000000000000000000000000000000     00000000                                                                                                                        000000000000000000
F0010000007018800003000080202486100042505000000000000000000201504140002001DISTRIBUIDORA RAMBAL LTDA                         C000000000100000000000000000000000100010010000000000000000000000F0010000007018800320150414000101 00000000000000000000000000000000000000000000000000000000000000000000000000000000000000000000000000000000000000000N 00000000000NCONT   00    00000000000          00000000000000000000000000000000000000000000 000000000000000A000000000000000000000000000000000000000000000 000000000000000000000000000000000000000     00000000                                                                                                                        000000000000000000
F0010000007018800004000080202486100023658300000000000000000201504140002001DISTRIBUIDORA RAMBAL LTDA                         C000000000009600000000000000000000100010010000000000000000000000F0010000007018800420150414000101 00000000000000000000000000000000000000000000000000000000000000000000000000000000000000000000000000000000000000000N 00000000000NCONT   00    00000000000          00000000000000000000000000000000000000000000 000000000000000A000000000000000000000000000000000000000000000 000000000000000000000000000000000000000     00000000                                                                                                                        000000000000000000
F0010000007018800005000080202486100013552100000000000000000201504140002001DISTRIBUIDORA RAMBAL LTDA                         D000000000009600000000000000000000100010010000000000000000000000F0010000007018800520150414000101 00000000000000000000000000000000000000000000000000000000000000000000000000000000000000000000000000000000000000000N 00000000000NCONT   00    00000000000          00000000000000000000000000000000000000000000 000000000000000A000000000000000000000000000000000000000000000 000000000000000000000000000000000000000     00000000                                                                                                                        000000000000000000
F0010000007018900001000000866309000011050500000000000000000201504140002001MARCO MORA PATIÑO                                D000000001500000000000000000000000100010010000000000000000000000F0010000007018900120150414000101 00000000000000000000000000000000000000000000000000000000000000000000000000000000000000000000000000000000000000000N 00000000000NCONT   00    00000000000          00000000000000000000000000000000000000000000 000000000000000A000000000000000000000000000000000000000000000 000000000000000000000000000000000000000     00000000                                                                                                                        000000000000000000
F0010000007018900002000000866309000041450500000000000000000201504140002001MARCO MORA PATIÑO                                C000000001400000000000000000000000100010010000000000000000000000F0010000007018900220150414000101 00000000000000000000000000000000000000000000000000000000000000000000000000000000000000000000000000000000000000000N 00000000000NCONT   00    00000000000          00000000000000000000000000000000000000000000 000000000000000A000000000000000000000000000000000000000000000 000000000000000000000000000000000000000     00000000                                                                                                                        000000000000000000
F0010000007018900003000000866309000042505000000000000000000201504140002001MARCO MORA PATIÑO                                C000000000100000000000000000000000100010010000000000000000000000F0010000007018900320150414000101 00000000000000000000000000000000000000000000000000000000000000000000000000000000000000000000000000000000000000000N 00000000000NCONT   00    00000000000          00000000000000000000000000000000000000000000 000000000000000A000000000000000000000000000000000000000000000 000000000000000000000000000000000000000     00000000                                                                                                                        000000000000000000
F0010000007018900004000000866309000023658300000000000000000201504140002001MARCO MORA PATIÑO                                C000000000011200000000000000000000100010010000000000000000000000F0010000007018900420150414000101 00000000000000000000000000000000000000000000000000000000000000000000000000000000000000000000000000000000000000000N 00000000000NCONT   00    00000000000          00000000000000000000000000000000000000000000 000000000000000A000000000000000000000000000000000000000000000 000000000000000000000000000000000000000     00000000                                                                                                                        000000000000000000
F0010000007018900005000000866309000013552100000000000000000201504140002001MARCO MORA PATIÑO                                D000000000011200000000000000000000100010010000000000000000000000F0010000007018900520150414000101 00000000000000000000000000000000000000000000000000000000000000000000000000000000000000000000000000000000000000000N 00000000000NCONT   00    00000000000          00000000000000000000000000000000000000000000 000000000000000A000000000000000000000000000000000000000000000 000000000000000000000000000000000000000     00000000                                                                                                                        000000000000000000
F0010000007019000001000086000061500011050500000000000000000201504140002001DISTRIBUIDORA CORDOBA                             D000000006500000000000000000000000100010010000000000000000000000F0010000007019000120150414000101 00000000000000000000000000000000000000000000000000000000000000000000000000000000000000000000000000000000000000000N 00000000000NCONT   00    00000000000          00000000000000000000000000000000000000000000 000000000000000A000000000000000000000000000000000000000000000 000000000000000000000000000000000000000     00000000                                                                                                                        000000000000000000
F0010000007019000002000086000061500041450500000000000000000201504140002001DISTRIBUIDORA CORDOBA                             C000000005950000000000000000000000100010010000000000000000000000F0010000007019000220150414000101 00000000000000000000000000000000000000000000000000000000000000000000000000000000000000000000000000000000000000000N 00000000000NCONT   00    00000000000          00000000000000000000000000000000000000000000 000000000000000A000000000000000000000000000000000000000000000 000000000000000000000000000000000000000     00000000                                                                                                                        000000000000000000
F0010000007019000003000086000061500042505000000000000000000201504140002001DISTRIBUIDORA CORDOBA                             C000000000550000000000000000000000100010010000000000000000000000F0010000007019000320150414000101 00000000000000000000000000000000000000000000000000000000000000000000000000000000000000000000000000000000000000000N 00000000000NCONT   00    00000000000          00000000000000000000000000000000000000000000 000000000000000A000000000000000000000000000000000000000000000 000000000000000000000000000000000000000     00000000                                                                                                                        000000000000000000
F0010000007019000004000086000061500023658300000000000000000201504140002001DISTRIBUIDORA CORDOBA                             C000000000047600000000000000000000100010010000000000000000000000F0010000007019000420150414000101 00000000000000000000000000000000000000000000000000000000000000000000000000000000000000000000000000000000000000000N 00000000000NCONT   00    00000000000          00000000000000000000000000000000000000000000 000000000000000A000000000000000000000000000000000000000000000 000000000000000000000000000000000000000     00000000                                                                                                                        000000000000000000
F0010000007019000005000086000061500013552100000000000000000201504140002001DISTRIBUIDORA CORDOBA                             D000000000047600000000000000000000100010010000000000000000000000F0010000007019000520150414000101 00000000000000000000000000000000000000000000000000000000000000000000000000000000000000000000000000000000000000000N 00000000000NCONT   00    00000000000          00000000000000000000000000000000000000000000 000000000000000A000000000000000000000000000000000000000000000 000000000000000000000000000000000000000     00000000                                                                                                                        000000000000000000
F0010000007019100001000080202350700011050500000000000000000201504140002001CONNY DE LA COSTA SAS                             D000000003200000000000000000000000100010010000000000000000000000F0010000007019100120150414000101 00000000000000000000000000000000000000000000000000000000000000000000000000000000000000000000000000000000000000000N 00000000000NCONT   00    00000000000          00000000000000000000000000000000000000000000 000000000000000A000000000000000000000000000000000000000000000 000000000000000000000000000000000000000     00000000                                                                                                                        000000000000000000
F0010000007019100002000080202350700041450500000000000000000201504140002001CONNY DE LA COSTA SAS                             C000000002600000000000000000000000100010010000000000000000000000F0010000007019100220150414000101 00000000000000000000000000000000000000000000000000000000000000000000000000000000000000000000000000000000000000000N 00000000000NCONT   00    00000000000          00000000000000000000000000000000000000000000 000000000000000A000000000000000000000000000000000000000000000 000000000000000000000000000000000000000     00000000                                                                                                                        000000000000000000
F0010000007019100003000080202350700042505000000000000000000201504140002001CONNY DE LA COSTA SAS                             C000000000600000000000000000000000100010010000000000000000000000F0010000007019100320150414000101 00000000000000000000000000000000000000000000000000000000000000000000000000000000000000000000000000000000000000000N 00000000000NCONT   00    00000000000          00000000000000000000000000000000000000000000 000000000000000A000000000000000000000000000000000000000000000 000000000000000000000000000000000000000     00000000                                                                                                                        000000000000000000
F0010000007019100004000080202350700023658300000000000000000201504140002001CONNY DE LA COSTA SAS                             C000000000020800000000000000000000100010010000000000000000000000F0010000007019100420150414000101 00000000000000000000000000000000000000000000000000000000000000000000000000000000000000000000000000000000000000000N 00000000000NCONT   00    00000000000          00000000000000000000000000000000000000000000 000000000000000A000000000000000000000000000000000000000000000 000000000000000000000000000000000000000     00000000                                                                                                                        000000000000000000
F0010000007019100005000080202350700013552100000000000000000201504140002001CONNY DE LA COSTA SAS                             D000000000020800000000000000000000100010010000000000000000000000F0010000007019100520150414000101 00000000000000000000000000000000000000000000000000000000000000000000000000000000000000000000000000000000000000000N 00000000000NCONT   00    00000000000          00000000000000000000000000000000000000000000 000000000000000A000000000000000000000000000000000000000000000 000000000000000000000000000000000000000     00000000                                                                                                                        000000000000000000
F0010000007019200001000080202350700011050500000000000000000201504140002001CONNY DE LA COSTA SAS                             D000000003400000000000000000000000100010010000000000000000000000F0010000007019200120150414000101 00000000000000000000000000000000000000000000000000000000000000000000000000000000000000000000000000000000000000000N 00000000000NCONT   00    00000000000          00000000000000000000000000000000000000000000 000000000000000A000000000000000000000000000000000000000000000 000000000000000000000000000000000000000     00000000                                                                                                                        000000000000000000
F0010000007019200002000080202350700041450500000000000000000201504140002001CONNY DE LA COSTA SAS                             C000000002600000000000000000000000100010010000000000000000000000F0010000007019200220150414000101 00000000000000000000000000000000000000000000000000000000000000000000000000000000000000000000000000000000000000000N 00000000000NCONT   00    00000000000          00000000000000000000000000000000000000000000 000000000000000A000000000000000000000000000000000000000000000 000000000000000000000000000000000000000     00000000                                                                                                                        000000000000000000
F0010000007019200003000080202350700042505000000000000000000201504140002001CONNY DE LA COSTA SAS                             C000000000800000000000000000000000100010010000000000000000000000F0010000007019200320150414000101 00000000000000000000000000000000000000000000000000000000000000000000000000000000000000000000000000000000000000000N 00000000000NCONT   00    00000000000          00000000000000000000000000000000000000000000 000000000000000A000000000000000000000000000000000000000000000 000000000000000000000000000000000000000     00000000                                                                                                                        000000000000000000
F0010000007019200004000080202350700023658300000000000000000201504140002001CONNY DE LA COSTA SAS                             C000000000020800000000000000000000100010010000000000000000000000F0010000007019200420150414000101 00000000000000000000000000000000000000000000000000000000000000000000000000000000000000000000000000000000000000000N 00000000000NCONT   00    00000000000          00000000000000000000000000000000000000000000 000000000000000A000000000000000000000000000000000000000000000 000000000000000000000000000000000000000     00000000                                                                                                                        000000000000000000
F0010000007019200005000080202350700013552100000000000000000201504140002001CONNY DE LA COSTA SAS                             D000000000020800000000000000000000100010010000000000000000000000F0010000007019200520150414000101 00000000000000000000000000000000000000000000000000000000000000000000000000000000000000000000000000000000000000000N 00000000000NCONT   00    00000000000          00000000000000000000000000000000000000000000 000000000000000A000000000000000000000000000000000000000000000 000000000000000000000000000000000000000     00000000                                                                                                                        000000000000000000
F0010000007019300001000002245670100011050500000000000000000201504140002001YOLANDA  TOBON                                    D000000001500000000000000000000000100010010000000000000000000000F0010000007019300120150414000101 00000000000000000000000000000000000000000000000000000000000000000000000000000000000000000000000000000000000000000N 00000000000NCONT   00    00000000000          00000000000000000000000000000000000000000000 000000000000000A000000000000000000000000000000000000000000000 000000000000000000000000000000000000000     00000000                                                                                                                        000000000000000000
F0010000007019300002000002245670100041450500000000000000000201504140002001YOLANDA  TOBON                                    C000000001200000000000000000000000100010010000000000000000000000F0010000007019300220150414000101 00000000000000000000000000000000000000000000000000000000000000000000000000000000000000000000000000000000000000000N 00000000000NCONT   00    00000000000          00000000000000000000000000000000000000000000 000000000000000A000000000000000000000000000000000000000000000 000000000000000000000000000000000000000     00000000                                                                                                                        000000000000000000
F0010000007019300003000002245670100042505000000000000000000201504140002001YOLANDA  TOBON                                    C000000000300000000000000000000000100010010000000000000000000000F0010000007019300320150414000101 00000000000000000000000000000000000000000000000000000000000000000000000000000000000000000000000000000000000000000N 00000000000NCONT   00    00000000000          00000000000000000000000000000000000000000000 000000000000000A000000000000000000000000000000000000000000000 000000000000000000000000000000000000000     00000000                                                                                                                        000000000000000000
F0010000007019300004000002245670100023658300000000000000000201504140002001YOLANDA  TOBON                                    C000000000009600000000000000000000100010010000000000000000000000F0010000007019300420150414000101 00000000000000000000000000000000000000000000000000000000000000000000000000000000000000000000000000000000000000000N 00000000000NCONT   00    00000000000          00000000000000000000000000000000000000000000 000000000000000A000000000000000000000000000000000000000000000 000000000000000000000000000000000000000     00000000                                                                                                                        000000000000000000
F0010000007019300005000002245670100013552100000000000000000201504140002001YOLANDA  TOBON                                    D000000000009600000000000000000000100010010000000000000000000000F0010000007019300520150414000101 00000000000000000000000000000000000000000000000000000000000000000000000000000000000000000000000000000000000000000N 00000000000NCONT   00    00000000000          00000000000000000000000000000000000000000000 000000000000000A000000000000000000000000000000000000000000000 000000000000000000000000000000000000000     00000000                                                                                                                        000000000000000000
F0010000007019400001000002245670100011050500000000000000000201504140002001YOLANDA  TOBON                                    D000000000800000000000000000000000100010010000000000000000000000F0010000007019400120150414000101 00000000000000000000000000000000000000000000000000000000000000000000000000000000000000000000000000000000000000000N 00000000000NCONT   00    00000000000          00000000000000000000000000000000000000000000 000000000000000A000000000000000000000000000000000000000000000 000000000000000000000000000000000000000     00000000                                                                                                                        000000000000000000
F0010000007019400002000002245670100041450500000000000000000201504140002001YOLANDA  TOBON                                    C000000000650000000000000000000000100010010000000000000000000000F0010000007019400220150414000101 00000000000000000000000000000000000000000000000000000000000000000000000000000000000000000000000000000000000000000N 00000000000NCONT   00    00000000000          00000000000000000000000000000000000000000000 000000000000000A000000000000000000000000000000000000000000000 000000000000000000000000000000000000000     00000000                                                                                                                        000000000000000000
F0010000007019400003000002245670100042505000000000000000000201504140002001YOLANDA  TOBON                                    C000000000150000000000000000000000100010010000000000000000000000F0010000007019400320150414000101 00000000000000000000000000000000000000000000000000000000000000000000000000000000000000000000000000000000000000000N 00000000000NCONT   00    00000000000          00000000000000000000000000000000000000000000 000000000000000A000000000000000000000000000000000000000000000 000000000000000000000000000000000000000     00000000                                                                                                                        000000000000000000
F0010000007019400004000002245670100023658300000000000000000201504140002001YOLANDA  TOBON                                    C000000000005200000000000000000000100010010000000000000000000000F0010000007019400420150414000101 00000000000000000000000000000000000000000000000000000000000000000000000000000000000000000000000000000000000000000N 00000000000NCONT   00    00000000000          00000000000000000000000000000000000000000000 000000000000000A000000000000000000000000000000000000000000000 000000000000000000000000000000000000000     00000000                                                                                                                        000000000000000000
F0010000007019400005000002245670100013552100000000000000000201504140002001YOLANDA  TOBON                                    D000000000005200000000000000000000100010010000000000000000000000F0010000007019400520150414000101 00000000000000000000000000000000000000000000000000000000000000000000000000000000000000000000000000000000000000000N 00000000000NCONT   00    00000000000          00000000000000000000000000000000000000000000 000000000000000A000000000000000000000000000000000000000000000 000000000000000000000000000000000000000     00000000                                                                                                                        000000000000000000
F0010000007019500001000002245486800011050500000000000000000201504140002001ALMACEN  DISTRIBEL                                D000000003000000000000000000000000100010010000000000000000000000F0010000007019500120150414000101 00000000000000000000000000000000000000000000000000000000000000000000000000000000000000000000000000000000000000000N 00000000000NCONT   00    00000000000          00000000000000000000000000000000000000000000 000000000000000A000000000000000000000000000000000000000000000 000000000000000000000000000000000000000     00000000                                                                                                                        000000000000000000
F0010000007019500002000002245486800041450500000000000000000201504140002001ALMACEN  DISTRIBEL                                C000000002600000000000000000000000100010010000000000000000000000F0010000007019500220150414000101 00000000000000000000000000000000000000000000000000000000000000000000000000000000000000000000000000000000000000000N 00000000000NCONT   00    00000000000          00000000000000000000000000000000000000000000 000000000000000A000000000000000000000000000000000000000000000 000000000000000000000000000000000000000     00000000                                                                                                                        000000000000000000
F0010000007019500003000002245486800042505000000000000000000201504140002001ALMACEN  DISTRIBEL                                C000000000400000000000000000000000100010010000000000000000000000F0010000007019500320150414000101 00000000000000000000000000000000000000000000000000000000000000000000000000000000000000000000000000000000000000000N 00000000000NCONT   00    00000000000          00000000000000000000000000000000000000000000 000000000000000A000000000000000000000000000000000000000000000 000000000000000000000000000000000000000     00000000                                                                                                                        000000000000000000
F0010000007019500004000002245486800023658300000000000000000201504140002001ALMACEN  DISTRIBEL                                C000000000020800000000000000000000100010010000000000000000000000F0010000007019500420150414000101 00000000000000000000000000000000000000000000000000000000000000000000000000000000000000000000000000000000000000000N 00000000000NCONT   00    00000000000          00000000000000000000000000000000000000000000 000000000000000A000000000000000000000000000000000000000000000 000000000000000000000000000000000000000     00000000                                                                                                                        000000000000000000
F0010000007019500005000002245486800013552100000000000000000201504140002001ALMACEN  DISTRIBEL                                D000000000020800000000000000000000100010010000000000000000000000F0010000007019500520150414000101 00000000000000000000000000000000000000000000000000000000000000000000000000000000000000000000000000000000000000000N 00000000000NCONT   00    00000000000          00000000000000000000000000000000000000000000 000000000000000A000000000000000000000000000000000000000000000 000000000000000000000000000000000000000     00000000                                                                                                                        000000000000000000
F0010000007019600001000007229328500011050500000000000000000201504140002001PV ELECTRIC   DEL CARIBE                          D000000010400000000000000000000000100010010000000000000000000000F0010000007019600120150414000101 00000000000000000000000000000000000000000000000000000000000000000000000000000000000000000000000000000000000000000N 00000000000NCONT   00    00000000000          00000000000000000000000000000000000000000000 000000000000000A000000000000000000000000000000000000000000000 000000000000000000000000000000000000000     00000000                                                                                                                        000000000000000000
F0010000007019600002000007229328500041450500000000000000000201504140002001PV ELECTRIC   DEL CARIBE                          C000000009600000000000000000000000100010010000000000000000000000F0010000007019600220150414000101 00000000000000000000000000000000000000000000000000000000000000000000000000000000000000000000000000000000000000000N 00000000000NCONT   00    00000000000          00000000000000000000000000000000000000000000 000000000000000A000000000000000000000000000000000000000000000 000000000000000000000000000000000000000     00000000                                                                                                                        000000000000000000
F0010000007019600003000007229328500042505000000000000000000201504140002001PV ELECTRIC   DEL CARIBE                          C000000000800000000000000000000000100010010000000000000000000000F0010000007019600320150414000101 00000000000000000000000000000000000000000000000000000000000000000000000000000000000000000000000000000000000000000N 00000000000NCONT   00    00000000000          00000000000000000000000000000000000000000000 000000000000000A000000000000000000000000000000000000000000000 000000000000000000000000000000000000000     00000000                                                                                                                        000000000000000000
F0010000007019600004000007229328500023658300000000000000000201504140002001PV ELECTRIC   DEL CARIBE                          C000000000076800000000000000000000100010010000000000000000000000F0010000007019600420150414000101 00000000000000000000000000000000000000000000000000000000000000000000000000000000000000000000000000000000000000000N 00000000000NCONT   00    00000000000          00000000000000000000000000000000000000000000 000000000000000A000000000000000000000000000000000000000000000 000000000000000000000000000000000000000     00000000                                                                                                                        000000000000000000
F0010000007019600005000007229328500013552100000000000000000201504140002001PV ELECTRIC   DEL CARIBE                          D000000000076800000000000000000000100010010000000000000000000000F0010000007019600520150414000101 00000000000000000000000000000000000000000000000000000000000000000000000000000000000000000000000000000000000000000N 00000000000NCONT   00    00000000000          00000000000000000000000000000000000000000000 000000000000000A000000000000000000000000000000000000000000000 000000000000000000000000000000000000000     00000000                                                                                                                        000000000000000000
F0010000007019700001000007229328500011050500000000000000000201504140002001PV ELECTRIC   DEL CARIBE                          D000000006100000000000000000000000100010010000000000000000000000F0010000007019700120150414000101 00000000000000000000000000000000000000000000000000000000000000000000000000000000000000000000000000000000000000000N 00000000000NCONT   00    00000000000          00000000000000000000000000000000000000000000 000000000000000A000000000000000000000000000000000000000000000 000000000000000000000000000000000000000     00000000                                                                                                                        000000000000000000
F0010000007019700002000007229328500041450500000000000000000201504140002001PV ELECTRIC   DEL CARIBE                          C000000005600000000000000000000000100010010000000000000000000000F0010000007019700220150414000101 00000000000000000000000000000000000000000000000000000000000000000000000000000000000000000000000000000000000000000N 00000000000NCONT   00    00000000000          00000000000000000000000000000000000000000000 000000000000000A000000000000000000000000000000000000000000000 000000000000000000000000000000000000000     00000000                                                                                                                        000000000000000000
F0010000007019700003000007229328500042505000000000000000000201504140002001PV ELECTRIC   DEL CARIBE                          C000000000500000000000000000000000100010010000000000000000000000F0010000007019700320150414000101 00000000000000000000000000000000000000000000000000000000000000000000000000000000000000000000000000000000000000000N 00000000000NCONT   00    00000000000          00000000000000000000000000000000000000000000 000000000000000A000000000000000000000000000000000000000000000 000000000000000000000000000000000000000     00000000                                                                                                                        000000000000000000
F0010000007019700004000007229328500023658300000000000000000201504140002001PV ELECTRIC   DEL CARIBE                          C000000000044800000000000000000000100010010000000000000000000000F0010000007019700420150414000101 00000000000000000000000000000000000000000000000000000000000000000000000000000000000000000000000000000000000000000N 00000000000NCONT   00    00000000000          00000000000000000000000000000000000000000000 000000000000000A000000000000000000000000000000000000000000000 000000000000000000000000000000000000000     00000000                                                                                                                        000000000000000000
F0010000007019700005000007229328500013552100000000000000000201504140002001PV ELECTRIC   DEL CARIBE                          D000000000044800000000000000000000100010010000000000000000000000F0010000007019700520150414000101 00000000000000000000000000000000000000000000000000000000000000000000000000000000000000000000000000000000000000000N 00000000000NCONT   00    00000000000          00000000000000000000000000000000000000000000 000000000000000A000000000000000000000000000000000000000000000 000000000000000000000000000000000000000     00000000                                                                                                                        000000000000000000
F0010000007019800001000007229328500011050500000000000000000201504140002001PV ELECTRIC   DEL CARIBE                          D000000007200000000000000000000000100010010000000000000000000000F0010000007019800120150414000101 00000000000000000000000000000000000000000000000000000000000000000000000000000000000000000000000000000000000000000N 00000000000NCONT   00    00000000000          00000000000000000000000000000000000000000000 000000000000000A000000000000000000000000000000000000000000000 000000000000000000000000000000000000000     00000000                                                                                                                        000000000000000000
F0010000007019800002000007229328500041450500000000000000000201504140002001PV ELECTRIC   DEL CARIBE                          C000000006400000000000000000000000100010010000000000000000000000F0010000007019800220150414000101 00000000000000000000000000000000000000000000000000000000000000000000000000000000000000000000000000000000000000000N 00000000000NCONT   00    00000000000          00000000000000000000000000000000000000000000 000000000000000A000000000000000000000000000000000000000000000 000000000000000000000000000000000000000     00000000                                                                                                                        000000000000000000
F0010000007019800003000007229328500042505000000000000000000201504140002001PV ELECTRIC   DEL CARIBE                          C000000000800000000000000000000000100010010000000000000000000000F0010000007019800320150414000101 00000000000000000000000000000000000000000000000000000000000000000000000000000000000000000000000000000000000000000N 00000000000NCONT   00    00000000000          00000000000000000000000000000000000000000000 000000000000000A000000000000000000000000000000000000000000000 000000000000000000000000000000000000000     00000000                                                                                                                        000000000000000000
F0010000007019800004000007229328500023658300000000000000000201504140002001PV ELECTRIC   DEL CARIBE                          C000000000051200000000000000000000100010010000000000000000000000F0010000007019800420150414000101 00000000000000000000000000000000000000000000000000000000000000000000000000000000000000000000000000000000000000000N 00000000000NCONT   00    00000000000          00000000000000000000000000000000000000000000 000000000000000A000000000000000000000000000000000000000000000 000000000000000000000000000000000000000     00000000                                                                                                                        000000000000000000
F0010000007019800005000007229328500013552100000000000000000201504140002001PV ELECTRIC   DEL CARIBE                          D000000000051200000000000000000000100010010000000000000000000000F0010000007019800520150414000101 00000000000000000000000000000000000000000000000000000000000000000000000000000000000000000000000000000000000000000N 00000000000NCONT   00    00000000000          00000000000000000000000000000000000000000000 000000000000000A000000000000000000000000000000000000000000000 000000000000000000000000000000000000000     00000000                                                                                                                        000000000000000000
F0010000007019900001000007229328500011050500000000000000000201504140002001PV ELECTRIC   DEL CARIBE                          D000000001100000000000000000000000100010010000000000000000000000F0010000007019900120150414000101 00000000000000000000000000000000000000000000000000000000000000000000000000000000000000000000000000000000000000000N 00000000000NCONT   00    00000000000          00000000000000000000000000000000000000000000 000000000000000A000000000000000000000000000000000000000000000 000000000000000000000000000000000000000     00000000                                                                                                                        000000000000000000
F0010000007019900002000007229328500041450500000000000000000201504140002001PV ELECTRIC   DEL CARIBE                          C000000001000000000000000000000000100010010000000000000000000000F0010000007019900220150414000101 00000000000000000000000000000000000000000000000000000000000000000000000000000000000000000000000000000000000000000N 00000000000NCONT   00    00000000000          00000000000000000000000000000000000000000000 000000000000000A000000000000000000000000000000000000000000000 000000000000000000000000000000000000000     00000000                                                                                                                        000000000000000000
F0010000007019900003000007229328500042505000000000000000000201504140002001PV ELECTRIC   DEL CARIBE                          C000000000100000000000000000000000100010010000000000000000000000F0010000007019900320150414000101 00000000000000000000000000000000000000000000000000000000000000000000000000000000000000000000000000000000000000000N 00000000000NCONT   00    00000000000          00000000000000000000000000000000000000000000 000000000000000A000000000000000000000000000000000000000000000 000000000000000000000000000000000000000     00000000                                                                                                                        000000000000000000
F0010000007019900004000007229328500023658300000000000000000201504140002001PV ELECTRIC   DEL CARIBE                          C000000000008000000000000000000000100010010000000000000000000000F0010000007019900420150414000101 00000000000000000000000000000000000000000000000000000000000000000000000000000000000000000000000000000000000000000N 00000000000NCONT   00    00000000000          00000000000000000000000000000000000000000000 000000000000000A000000000000000000000000000000000000000000000 000000000000000000000000000000000000000     00000000                                                                                                                        000000000000000000
F0010000007019900005000007229328500013552100000000000000000201504140002001PV ELECTRIC   DEL CARIBE                          D000000000008000000000000000000000100010010000000000000000000000F0010000007019900520150414000101 00000000000000000000000000000000000000000000000000000000000000000000000000000000000000000000000000000000000000000N 00000000000NCONT   00    00000000000          00000000000000000000000000000000000000000000 000000000000000A000000000000000000000000000000000000000000000 000000000000000000000000000000000000000     00000000                                                                                                                        000000000000000000
F0010000007020000001000000856905200011050500000000000000000201504140002001SUELAS Y MATERIALES BARRANQUILL                   D000000003000000000000000000000000100010010000000000000000000000F0010000007020000120150414000101 00000000000000000000000000000000000000000000000000000000000000000000000000000000000000000000000000000000000000000N 00000000000NCONT   00    00000000000          00000000000000000000000000000000000000000000 000000000000000A000000000000000000000000000000000000000000000 000000000000000000000000000000000000000     00000000                                                                                                                        000000000000000000
F0010000007020000002000000856905200041450500000000000000000201504140002001SUELAS Y MATERIALES BARRANQUILL                   C000000002800000000000000000000000100010010000000000000000000000F0010000007020000220150414000101 00000000000000000000000000000000000000000000000000000000000000000000000000000000000000000000000000000000000000000N 00000000000NCONT   00    00000000000          00000000000000000000000000000000000000000000 000000000000000A000000000000000000000000000000000000000000000 000000000000000000000000000000000000000     00000000                                                                                                                        000000000000000000
F0010000007020000003000000856905200042505000000000000000000201504140002001SUELAS Y MATERIALES BARRANQUILL                   C000000000200000000000000000000000100010010000000000000000000000F0010000007020000320150414000101 00000000000000000000000000000000000000000000000000000000000000000000000000000000000000000000000000000000000000000N 00000000000NCONT   00    00000000000          00000000000000000000000000000000000000000000 000000000000000A000000000000000000000000000000000000000000000 000000000000000000000000000000000000000     00000000                                                                                                                        000000000000000000
F0010000007020000004000000856905200023658300000000000000000201504140002001SUELAS Y MATERIALES BARRANQUILL                   C000000000022400000000000000000000100010010000000000000000000000F0010000007020000420150414000101 00000000000000000000000000000000000000000000000000000000000000000000000000000000000000000000000000000000000000000N 00000000000NCONT   00    00000000000          00000000000000000000000000000000000000000000 000000000000000A000000000000000000000000000000000000000000000 000000000000000000000000000000000000000     00000000                                                                                                                        000000000000000000
F0010000007020000005000000856905200013552100000000000000000201504140002001SUELAS Y MATERIALES BARRANQUILL                   D000000000022400000000000000000000100010010000000000000000000000F0010000007020000520150414000101 00000000000000000000000000000000000000000000000000000000000000000000000000000000000000000000000000000000000000000N 00000000000NCONT   00    00000000000          00000000000000000000000000000000000000000000 000000000000000A000000000000000000000000000000000000000000000 000000000000000000000000000000000000000     00000000                                                                                                                        000000000000000000
F0010000007020100001000001719393900011050500000000000000000201504140002001JAIRO BASTIDAS RAMIREZ                            D000000001400000000000000000000000100010010000000000000000000000F0010000007020100120150414000101 00000000000000000000000000000000000000000000000000000000000000000000000000000000000000000000000000000000000000000N 00000000000NCONT   00    00000000000          00000000000000000000000000000000000000000000 000000000000000A000000000000000000000000000000000000000000000 000000000000000000000000000000000000000     00000000                                                                                                                        000000000000000000
F0010000007020100002000001719393900041450500000000000000000201504140002001JAIRO BASTIDAS RAMIREZ                            C000000001200000000000000000000000100010010000000000000000000000F0010000007020100220150414000101 00000000000000000000000000000000000000000000000000000000000000000000000000000000000000000000000000000000000000000N 00000000000NCONT   00    00000000000          00000000000000000000000000000000000000000000 000000000000000A000000000000000000000000000000000000000000000 000000000000000000000000000000000000000     00000000                                                                                                                        000000000000000000
F0010000007020100003000001719393900042505000000000000000000201504140002001JAIRO BASTIDAS RAMIREZ                            C000000000200000000000000000000000100010010000000000000000000000F0010000007020100320150414000101 00000000000000000000000000000000000000000000000000000000000000000000000000000000000000000000000000000000000000000N 00000000000NCONT   00    00000000000          00000000000000000000000000000000000000000000 000000000000000A000000000000000000000000000000000000000000000 000000000000000000000000000000000000000     00000000                                                                                                                        000000000000000000
F0010000007020100004000001719393900023658300000000000000000201504140002001JAIRO BASTIDAS RAMIREZ                            C000000000009600000000000000000000100010010000000000000000000000F0010000007020100420150414000101 00000000000000000000000000000000000000000000000000000000000000000000000000000000000000000000000000000000000000000N 00000000000NCONT   00    00000000000          00000000000000000000000000000000000000000000 000000000000000A000000000000000000000000000000000000000000000 000000000000000000000000000000000000000     00000000                                                                                                                        000000000000000000
F0010000007020100005000001719393900013552100000000000000000201504140002001JAIRO BASTIDAS RAMIREZ                            D000000000009600000000000000000000100010010000000000000000000000F0010000007020100520150414000101 00000000000000000000000000000000000000000000000000000000000000000000000000000000000000000000000000000000000000000N 00000000000NCONT   00    00000000000          00000000000000000000000000000000000000000000 000000000000000A000000000000000000000000000000000000000000000 000000000000000000000000000000000000000     00000000                                                                                                                        000000000000000000
F0010000007020200001000090050144800011050500000000000000000201504140002001PLASTICOS JR ASOCIADOS SAS                        D000000001100000000000000000000000100010010000000000000000000000F0010000007020200120150414000101 00000000000000000000000000000000000000000000000000000000000000000000000000000000000000000000000000000000000000000N 00000000000NCONT   00    00000000000          00000000000000000000000000000000000000000000 000000000000000A000000000000000000000000000000000000000000000 000000000000000000000000000000000000000     00000000                                                                                                                        000000000000000000
F0010000007020200002000090050144800041450500000000000000000201504140002001PLASTICOS JR ASOCIADOS SAS                        C000000000850000000000000000000000100010010000000000000000000000F0010000007020200220150414000101 00000000000000000000000000000000000000000000000000000000000000000000000000000000000000000000000000000000000000000N 00000000000NCONT   00    00000000000          00000000000000000000000000000000000000000000 000000000000000A000000000000000000000000000000000000000000000 000000000000000000000000000000000000000     00000000                                                                                                                        000000000000000000
F0010000007020200003000090050144800042505000000000000000000201504140002001PLASTICOS JR ASOCIADOS SAS                        C000000000250000000000000000000000100010010000000000000000000000F0010000007020200320150414000101 00000000000000000000000000000000000000000000000000000000000000000000000000000000000000000000000000000000000000000N 00000000000NCONT   00    00000000000          00000000000000000000000000000000000000000000 000000000000000A000000000000000000000000000000000000000000000 000000000000000000000000000000000000000     00000000                                                                                                                        000000000000000000
F0010000007020200004000090050144800023658300000000000000000201504140002001PLASTICOS JR ASOCIADOS SAS                        C000000000006800000000000000000000100010010000000000000000000000F0010000007020200420150414000101 00000000000000000000000000000000000000000000000000000000000000000000000000000000000000000000000000000000000000000N 00000000000NCONT   00    00000000000          00000000000000000000000000000000000000000000 000000000000000A000000000000000000000000000000000000000000000 000000000000000000000000000000000000000     00000000                                                                                                                        000000000000000000
F0010000007020200005000090050144800013552100000000000000000201504140002001PLASTICOS JR ASOCIADOS SAS                        D000000000006800000000000000000000100010010000000000000000000000F0010000007020200520150414000101 00000000000000000000000000000000000000000000000000000000000000000000000000000000000000000000000000000000000000000N 00000000000NCONT   00    00000000000          00000000000000000000000000000000000000000000 000000000000000A000000000000000000000000000000000000000000000 000000000000000000000000000000000000000     00000000                                                                                                                        000000000000000000
F0010000007020300001000090050144800011050500000000000000000201504140002001PLASTICOS JR ASOCIADOS SAS                        D000000005800000000000000000000000100010010000000000000000000000F0010000007020300120150414000101 00000000000000000000000000000000000000000000000000000000000000000000000000000000000000000000000000000000000000000N 00000000000NCONT   00    00000000000          00000000000000000000000000000000000000000000 000000000000000A000000000000000000000000000000000000000000000 000000000000000000000000000000000000000     00000000                                                                                                                        000000000000000000
F0010000007020300002000090050144800041450500000000000000000201504140002001PLASTICOS JR ASOCIADOS SAS                        C000000005100000000000000000000000100010010000000000000000000000F0010000007020300220150414000101 00000000000000000000000000000000000000000000000000000000000000000000000000000000000000000000000000000000000000000N 00000000000NCONT   00    00000000000          00000000000000000000000000000000000000000000 000000000000000A000000000000000000000000000000000000000000000 000000000000000000000000000000000000000     00000000                                                                                                                        000000000000000000
F0010000007020300003000090050144800042505000000000000000000201504140002001PLASTICOS JR ASOCIADOS SAS                        C000000000700000000000000000000000100010010000000000000000000000F0010000007020300320150414000101 00000000000000000000000000000000000000000000000000000000000000000000000000000000000000000000000000000000000000000N 00000000000NCONT   00    00000000000          00000000000000000000000000000000000000000000 000000000000000A000000000000000000000000000000000000000000000 000000000000000000000000000000000000000     00000000                                                                                                                        000000000000000000
F0010000007020300004000090050144800023658300000000000000000201504140002001PLASTICOS JR ASOCIADOS SAS                        C000000000040800000000000000000000100010010000000000000000000000F0010000007020300420150414000101 00000000000000000000000000000000000000000000000000000000000000000000000000000000000000000000000000000000000000000N 00000000000NCONT   00    00000000000          00000000000000000000000000000000000000000000 000000000000000A000000000000000000000000000000000000000000000 000000000000000000000000000000000000000     00000000                                                                                                                        000000000000000000
F0010000007020300005000090050144800013552100000000000000000201504140002001PLASTICOS JR ASOCIADOS SAS                        D000000000040800000000000000000000100010010000000000000000000000F0010000007020300520150414000101 00000000000000000000000000000000000000000000000000000000000000000000000000000000000000000000000000000000000000000N 00000000000NCONT   00    00000000000          00000000000000000000000000000000000000000000 000000000000000A000000000000000000000000000000000000000000000 000000000000000000000000000000000000000     00000000                                                                                                                        000000000000000000
F0010000007020400001000001022529300011050500000000000000000201504140002001ALBERTO ALVAREZ ISAZA                             D000000000910000000000000000000000100010010000000000000000000000F0010000007020400120150414000101 00000000000000000000000000000000000000000000000000000000000000000000000000000000000000000000000000000000000000000N 00000000000NCONT   00    00000000000          00000000000000000000000000000000000000000000 000000000000000A000000000000000000000000000000000000000000000 000000000000000000000000000000000000000     00000000                                                                                                                        000000000000000000
F0010000007020400002000001022529300041450500000000000000000201504140002001ALBERTO ALVAREZ ISAZA                             C000000000860000000000000000000000100010010000000000000000000000F0010000007020400220150414000101 00000000000000000000000000000000000000000000000000000000000000000000000000000000000000000000000000000000000000000N 00000000000NCONT   00    00000000000          00000000000000000000000000000000000000000000 000000000000000A000000000000000000000000000000000000000000000 000000000000000000000000000000000000000     00000000                                                                                                                        000000000000000000
F0010000007020400003000001022529300042505000000000000000000201504140002001ALBERTO ALVAREZ ISAZA                             C000000000050000000000000000000000100010010000000000000000000000F0010000007020400320150414000101 00000000000000000000000000000000000000000000000000000000000000000000000000000000000000000000000000000000000000000N 00000000000NCONT   00    00000000000          00000000000000000000000000000000000000000000 000000000000000A000000000000000000000000000000000000000000000 000000000000000000000000000000000000000     00000000                                                                                                                        000000000000000000
F0010000007020400004000001022529300023658300000000000000000201504140002001ALBERTO ALVAREZ ISAZA                             C000000000006900000000000000000000100010010000000000000000000000F0010000007020400420150414000101 00000000000000000000000000000000000000000000000000000000000000000000000000000000000000000000000000000000000000000N 00000000000NCONT   00    00000000000          00000000000000000000000000000000000000000000 000000000000000A000000000000000000000000000000000000000000000 000000000000000000000000000000000000000     00000000                                                                                                                        000000000000000000
F0010000007020400005000001022529300013552100000000000000000201504140002001ALBERTO ALVAREZ ISAZA                             D000000000006900000000000000000000100010010000000000000000000000F0010000007020400520150414000101 00000000000000000000000000000000000000000000000000000000000000000000000000000000000000000000000000000000000000000N 00000000000NCONT   00    00000000000          00000000000000000000000000000000000000000000 000000000000000A000000000000000000000000000000000000000000000 000000000000000000000000000000000000000     00000000                                                                                                                        000000000000000000
F0010000007020500001000001022529300011050500000000000000000201504140002001ALBERTO ALVAREZ ISAZA                             D000000008400000000000000000000000100010010000000000000000000000F0010000007020500120150414000101 00000000000000000000000000000000000000000000000000000000000000000000000000000000000000000000000000000000000000000N 00000000000NCONT   00    00000000000          00000000000000000000000000000000000000000000 000000000000000A000000000000000000000000000000000000000000000 000000000000000000000000000000000000000     00000000                                                                                                                        000000000000000000
F0010000007020500002000001022529300041450500000000000000000201504140002001ALBERTO ALVAREZ ISAZA                             C000000008100000000000000000000000100010010000000000000000000000F0010000007020500220150414000101 00000000000000000000000000000000000000000000000000000000000000000000000000000000000000000000000000000000000000000N 00000000000NCONT   00    00000000000          00000000000000000000000000000000000000000000 000000000000000A000000000000000000000000000000000000000000000 000000000000000000000000000000000000000     00000000                                                                                                                        000000000000000000
F0010000007020500003000001022529300042505000000000000000000201504140002001ALBERTO ALVAREZ ISAZA                             C000000000300000000000000000000000100010010000000000000000000000F0010000007020500320150414000101 00000000000000000000000000000000000000000000000000000000000000000000000000000000000000000000000000000000000000000N 00000000000NCONT   00    00000000000          00000000000000000000000000000000000000000000 000000000000000A000000000000000000000000000000000000000000000 000000000000000000000000000000000000000     00000000                                                                                                                        000000000000000000
F0010000007020500004000001022529300023658300000000000000000201504140002001ALBERTO ALVAREZ ISAZA                             C000000000064800000000000000000000100010010000000000000000000000F0010000007020500420150414000101 00000000000000000000000000000000000000000000000000000000000000000000000000000000000000000000000000000000000000000N 00000000000NCONT   00    00000000000          00000000000000000000000000000000000000000000 000000000000000A000000000000000000000000000000000000000000000 000000000000000000000000000000000000000     00000000                                                                                                                        000000000000000000
F0010000007020500005000001022529300013552100000000000000000201504140002001ALBERTO ALVAREZ ISAZA                             D000000000064800000000000000000000100010010000000000000000000000F0010000007020500520150414000101 00000000000000000000000000000000000000000000000000000000000000000000000000000000000000000000000000000000000000000N 00000000000NCONT   00    00000000000          00000000000000000000000000000000000000000000 000000000000000A000000000000000000000000000000000000000000000 000000000000000000000000000000000000000     00000000                                                                                                                        000000000000000000
F0010000007020600001000001022529300011050500000000000000000201504140002001ALBERTO ALVAREZ ISAZA                             D000000004680000000000000000000000100010010000000000000000000000F0010000007020600120150414000101 00000000000000000000000000000000000000000000000000000000000000000000000000000000000000000000000000000000000000000N 00000000000NCONT   00    00000000000          00000000000000000000000000000000000000000000 000000000000000A000000000000000000000000000000000000000000000 000000000000000000000000000000000000000     00000000                                                                                                                        000000000000000000
F0010000007020600002000001022529300041450500000000000000000201504140002001ALBERTO ALVAREZ ISAZA                             C000000004530000000000000000000000100010010000000000000000000000F0010000007020600220150414000101 00000000000000000000000000000000000000000000000000000000000000000000000000000000000000000000000000000000000000000N 00000000000NCONT   00    00000000000          00000000000000000000000000000000000000000000 000000000000000A000000000000000000000000000000000000000000000 000000000000000000000000000000000000000     00000000                                                                                                                        000000000000000000
F0010000007020600003000001022529300042505000000000000000000201504140002001ALBERTO ALVAREZ ISAZA                             C000000000150000000000000000000000100010010000000000000000000000F0010000007020600320150414000101 00000000000000000000000000000000000000000000000000000000000000000000000000000000000000000000000000000000000000000N 00000000000NCONT   00    00000000000          00000000000000000000000000000000000000000000 000000000000000A000000000000000000000000000000000000000000000 000000000000000000000000000000000000000     00000000                                                                                                                        000000000000000000
F0010000007020600004000001022529300023658300000000000000000201504140002001ALBERTO ALVAREZ ISAZA                             C000000000036200000000000000000000100010010000000000000000000000F0010000007020600420150414000101 00000000000000000000000000000000000000000000000000000000000000000000000000000000000000000000000000000000000000000N 00000000000NCONT   00    00000000000          00000000000000000000000000000000000000000000 000000000000000A000000000000000000000000000000000000000000000 000000000000000000000000000000000000000     00000000                                                                                                                        000000000000000000
F0010000007020600005000001022529300013552100000000000000000201504140002001ALBERTO ALVAREZ ISAZA                             D000000000036200000000000000000000100010010000000000000000000000F0010000007020600520150414000101 00000000000000000000000000000000000000000000000000000000000000000000000000000000000000000000000000000000000000000N 00000000000NCONT   00    00000000000          00000000000000000000000000000000000000000000 000000000000000A000000000000000000000000000000000000000000000 000000000000000000000000000000000000000     00000000                                                                                                                        000000000000000000
F0010000007020700001000001022529300011050500000000000000000201504140002001ALBERTO ALVAREZ ISAZA                             D000000003490000000000000000000000100010010000000000000000000000F0010000007020700120150414000101 00000000000000000000000000000000000000000000000000000000000000000000000000000000000000000000000000000000000000000N 00000000000NCONT   00    00000000000          00000000000000000000000000000000000000000000 000000000000000A000000000000000000000000000000000000000000000 000000000000000000000000000000000000000     00000000                                                                                                                        000000000000000000
F0010000007020700002000001022529300041450500000000000000000201504140002001ALBERTO ALVAREZ ISAZA                             C000000003240000000000000000000000100010010000000000000000000000F0010000007020700220150414000101 00000000000000000000000000000000000000000000000000000000000000000000000000000000000000000000000000000000000000000N 00000000000NCONT   00    00000000000          00000000000000000000000000000000000000000000 000000000000000A000000000000000000000000000000000000000000000 000000000000000000000000000000000000000     00000000                                                                                                                        000000000000000000
F0010000007020700003000001022529300042505000000000000000000201504140002001ALBERTO ALVAREZ ISAZA                             C000000000250000000000000000000000100010010000000000000000000000F0010000007020700320150414000101 00000000000000000000000000000000000000000000000000000000000000000000000000000000000000000000000000000000000000000N 00000000000NCONT   00    00000000000          00000000000000000000000000000000000000000000 000000000000000A000000000000000000000000000000000000000000000 000000000000000000000000000000000000000     00000000                                                                                                                        000000000000000000
F0010000007020700004000001022529300023658300000000000000000201504140002001ALBERTO ALVAREZ ISAZA                             C000000000025900000000000000000000100010010000000000000000000000F0010000007020700420150414000101 00000000000000000000000000000000000000000000000000000000000000000000000000000000000000000000000000000000000000000N 00000000000NCONT   00    00000000000          00000000000000000000000000000000000000000000 000000000000000A000000000000000000000000000000000000000000000 000000000000000000000000000000000000000     00000000                                                                                                                        000000000000000000
F0010000007020700005000001022529300013552100000000000000000201504140002001ALBERTO ALVAREZ ISAZA                             D000000000025900000000000000000000100010010000000000000000000000F0010000007020700520150414000101 00000000000000000000000000000000000000000000000000000000000000000000000000000000000000000000000000000000000000000N 00000000000NCONT   00    00000000000          00000000000000000000000000000000000000000000 000000000000000A000000000000000000000000000000000000000000000 000000000000000000000000000000000000000     00000000                                                                                                                        000000000000000000
F0010000007020800001000001022529300011050500000000000000000201504140002001ALBERTO ALVAREZ ISAZA                             D000000003725000000000000000000000100010010000000000000000000000F0010000007020800120150414000101 00000000000000000000000000000000000000000000000000000000000000000000000000000000000000000000000000000000000000000N 00000000000NCONT   00    00000000000          00000000000000000000000000000000000000000000 000000000000000A000000000000000000000000000000000000000000000 000000000000000000000000000000000000000     00000000                                                                                                                        000000000000000000
F0010000007020800002000001022529300041450500000000000000000201504140002001ALBERTO ALVAREZ ISAZA                             C000000003600000000000000000000000100010010000000000000000000000F0010000007020800220150414000101 00000000000000000000000000000000000000000000000000000000000000000000000000000000000000000000000000000000000000000N 00000000000NCONT   00    00000000000          00000000000000000000000000000000000000000000 000000000000000A000000000000000000000000000000000000000000000 000000000000000000000000000000000000000     00000000                                                                                                                        000000000000000000
