F0010000008594200001000000460251100011050500000000000000000201605120002001JORGE GONZALEZ                                    D000000002000000000000000000000000100010010000000000000000000000F0010000008594200120160512000101 00000000000000000000000000000000000000000000000000000000000000000000000000000000000000000000000000000000000000000N 00000000000NCONT   00    00000000000          00000000000000000000000000000000000000000000 000000000000000A000000000000000000000000000000000000000000000 000000000000000000000000000000000000000     00000000                                                                                                                        000000000000000000
F0010000008594200002000000460251100041450500000000000000000201605120002001JORGE GONZALEZ                                    C000000001500000000000000000000000100010010000000000000000000000F0010000008594200220160512000101 00000000000000000000000000000000000000000000000000000000000000000000000000000000000000000000000000000000000000000N 00000000000NCONT   00    00000000000          00000000000000000000000000000000000000000000 000000000000000A000000000000000000000000000000000000000000000 000000000000000000000000000000000000000     00000000                                                                                                                        000000000000000000
F0010000008594200003000000460251100042505000000000000000000201605120002001JORGE GONZALEZ                                    C000000000500000000000000000000000100010010000000000000000000000F0010000008594200320160512000101 00000000000000000000000000000000000000000000000000000000000000000000000000000000000000000000000000000000000000000N 00000000000NCONT   00    00000000000          00000000000000000000000000000000000000000000 000000000000000A000000000000000000000000000000000000000000000 000000000000000000000000000000000000000     00000000                                                                                                                        000000000000000000
F0010000008594200004000000460251100023658300000000000000000201605120002001JORGE GONZALEZ                                    C000000000012000000000000000000000100010010000000000000000000000F0010000008594200420160512000101 00000000000000000000000000000000000000000000000000000000000000000000000000000000000000000000000000000000000000000N 00000000000NCONT   00    00000000000          00000000000000000000000000000000000000000000 000000000000000A000000000000000000000000000000000000000000000 000000000000000000000000000000000000000     00000000                                                                                                                        000000000000000000
F0010000008594200005000000460251100013552100000000000000000201605120002001JORGE GONZALEZ                                    D000000000012000000000000000000000100010010000000000000000000000F0010000008594200520160512000101 00000000000000000000000000000000000000000000000000000000000000000000000000000000000000000000000000000000000000000N 00000000000NCONT   00    00000000000          00000000000000000000000000000000000000000000 000000000000000A000000000000000000000000000000000000000000000 000000000000000000000000000000000000000     00000000                                                                                                                        000000000000000000
F0010000008594300001000007719033000011050500000000000000000201605120002001ALMACEN SALPICON                                  D000000002800000000000000000000000100010010000000000000000000000F0010000008594300120160512000101 00000000000000000000000000000000000000000000000000000000000000000000000000000000000000000000000000000000000000000N 00000000000NCONT   00    00000000000          00000000000000000000000000000000000000000000 000000000000000A000000000000000000000000000000000000000000000 000000000000000000000000000000000000000     00000000                                                                                                                        000000000000000000
F0010000008594300002000007719033000041450500000000000000000201605120002001ALMACEN SALPICON                                  C000000002600000000000000000000000100010010000000000000000000000F0010000008594300220160512000101 00000000000000000000000000000000000000000000000000000000000000000000000000000000000000000000000000000000000000000N 00000000000NCONT   00    00000000000          00000000000000000000000000000000000000000000 000000000000000A000000000000000000000000000000000000000000000 000000000000000000000000000000000000000     00000000                                                                                                                        000000000000000000
F0010000008594300003000007719033000042505000000000000000000201605120002001ALMACEN SALPICON                                  C000000000200000000000000000000000100010010000000000000000000000F0010000008594300320160512000101 00000000000000000000000000000000000000000000000000000000000000000000000000000000000000000000000000000000000000000N 00000000000NCONT   00    00000000000          00000000000000000000000000000000000000000000 000000000000000A000000000000000000000000000000000000000000000 000000000000000000000000000000000000000     00000000                                                                                                                        000000000000000000
F0010000008594300004000007719033000023658300000000000000000201605120002001ALMACEN SALPICON                                  C000000000020800000000000000000000100010010000000000000000000000F0010000008594300420160512000101 00000000000000000000000000000000000000000000000000000000000000000000000000000000000000000000000000000000000000000N 00000000000NCONT   00    00000000000          00000000000000000000000000000000000000000000 000000000000000A000000000000000000000000000000000000000000000 000000000000000000000000000000000000000     00000000                                                                                                                        000000000000000000
F0010000008594300005000007719033000013552100000000000000000201605120002001ALMACEN SALPICON                                  D000000000020800000000000000000000100010010000000000000000000000F0010000008594300520160512000101 00000000000000000000000000000000000000000000000000000000000000000000000000000000000000000000000000000000000000000N 00000000000NCONT   00    00000000000          00000000000000000000000000000000000000000000 000000000000000A000000000000000000000000000000000000000000000 000000000000000000000000000000000000000     00000000                                                                                                                        000000000000000000
F0010000008594400001000080201694400011050500000000000000000201605120002001FERROTEC LTDA                                     D000000007000000000000000000000000100010010000000000000000000000F0010000008594400120160512000101 00000000000000000000000000000000000000000000000000000000000000000000000000000000000000000000000000000000000000000N 00000000000NCONT   00    00000000000          00000000000000000000000000000000000000000000 000000000000000A000000000000000000000000000000000000000000000 000000000000000000000000000000000000000     00000000                                                                                                                        000000000000000000
F0010000008594400002000080201694400041450500000000000000000201605120002001FERROTEC LTDA                                     C000000006700000000000000000000000100010010000000000000000000000F0010000008594400220160512000101 00000000000000000000000000000000000000000000000000000000000000000000000000000000000000000000000000000000000000000N 00000000000NCONT   00    00000000000          00000000000000000000000000000000000000000000 000000000000000A000000000000000000000000000000000000000000000 000000000000000000000000000000000000000     00000000                                                                                                                        000000000000000000
F0010000008594400003000080201694400042505000000000000000000201605120002001FERROTEC LTDA                                     C000000000300000000000000000000000100010010000000000000000000000F0010000008594400320160512000101 00000000000000000000000000000000000000000000000000000000000000000000000000000000000000000000000000000000000000000N 00000000000NCONT   00    00000000000          00000000000000000000000000000000000000000000 000000000000000A000000000000000000000000000000000000000000000 000000000000000000000000000000000000000     00000000                                                                                                                        000000000000000000
F0010000008594400004000080201694400023658300000000000000000201605120002001FERROTEC LTDA                                     C000000000053600000000000000000000100010010000000000000000000000F0010000008594400420160512000101 00000000000000000000000000000000000000000000000000000000000000000000000000000000000000000000000000000000000000000N 00000000000NCONT   00    00000000000          00000000000000000000000000000000000000000000 000000000000000A000000000000000000000000000000000000000000000 000000000000000000000000000000000000000     00000000                                                                                                                        000000000000000000
F0010000008594400005000080201694400013552100000000000000000201605120002001FERROTEC LTDA                                     D000000000053600000000000000000000100010010000000000000000000000F0010000008594400520160512000101 00000000000000000000000000000000000000000000000000000000000000000000000000000000000000000000000000000000000000000N 00000000000NCONT   00    00000000000          00000000000000000000000000000000000000000000 000000000000000A000000000000000000000000000000000000000000000 000000000000000000000000000000000000000     00000000                                                                                                                        000000000000000000
F0010000008594500001000090058244200011050500000000000000000201605120002001ARQUILUXES SAS                                    D000000006000000000000000000000000100010010000000000000000000000F0010000008594500120160512000101 00000000000000000000000000000000000000000000000000000000000000000000000000000000000000000000000000000000000000000N 00000000000NCONT   00    00000000000          00000000000000000000000000000000000000000000 000000000000000A000000000000000000000000000000000000000000000 000000000000000000000000000000000000000     00000000                                                                                                                        000000000000000000
F0010000008594500002000090058244200041450500000000000000000201605120002001ARQUILUXES SAS                                    C000000005900000000000000000000000100010010000000000000000000000F0010000008594500220160512000101 00000000000000000000000000000000000000000000000000000000000000000000000000000000000000000000000000000000000000000N 00000000000NCONT   00    00000000000          00000000000000000000000000000000000000000000 000000000000000A000000000000000000000000000000000000000000000 000000000000000000000000000000000000000     00000000                                                                                                                        000000000000000000
F0010000008594500003000090058244200042505000000000000000000201605120002001ARQUILUXES SAS                                    C000000000100000000000000000000000100010010000000000000000000000F0010000008594500320160512000101 00000000000000000000000000000000000000000000000000000000000000000000000000000000000000000000000000000000000000000N 00000000000NCONT   00    00000000000          00000000000000000000000000000000000000000000 000000000000000A000000000000000000000000000000000000000000000 000000000000000000000000000000000000000     00000000                                                                                                                        000000000000000000
F0010000008594500004000090058244200023658300000000000000000201605120002001ARQUILUXES SAS                                    C000000000047200000000000000000000100010010000000000000000000000F0010000008594500420160512000101 00000000000000000000000000000000000000000000000000000000000000000000000000000000000000000000000000000000000000000N 00000000000NCONT   00    00000000000          00000000000000000000000000000000000000000000 000000000000000A000000000000000000000000000000000000000000000 000000000000000000000000000000000000000     00000000                                                                                                                        000000000000000000
F0010000008594500005000090058244200013552100000000000000000201605120002001ARQUILUXES SAS                                    D000000000047200000000000000000000100010010000000000000000000000F0010000008594500520160512000101 00000000000000000000000000000000000000000000000000000000000000000000000000000000000000000000000000000000000000000N 00000000000NCONT   00    00000000000          00000000000000000000000000000000000000000000 000000000000000A000000000000000000000000000000000000000000000 000000000000000000000000000000000000000     00000000                                                                                                                        000000000000000000
F0010000008594600001000080201411900011050500000000000000000201605120002001PLASTISERVICIOS S DE H                            D000000001270000000000000000000000100010010000000000000000000000F0010000008594600120160512000101 00000000000000000000000000000000000000000000000000000000000000000000000000000000000000000000000000000000000000000N 00000000000NCONT   00    00000000000          00000000000000000000000000000000000000000000 000000000000000A000000000000000000000000000000000000000000000 000000000000000000000000000000000000000     00000000                                                                                                                        000000000000000000
F0010000008594600002000080201411900041450500000000000000000201605120002001PLASTISERVICIOS S DE H                            C000000000970000000000000000000000100010010000000000000000000000F0010000008594600220160512000101 00000000000000000000000000000000000000000000000000000000000000000000000000000000000000000000000000000000000000000N 00000000000NCONT   00    00000000000          00000000000000000000000000000000000000000000 000000000000000A000000000000000000000000000000000000000000000 000000000000000000000000000000000000000     00000000                                                                                                                        000000000000000000
F0010000008594600003000080201411900042505000000000000000000201605120002001PLASTISERVICIOS S DE H                            C000000000300000000000000000000000100010010000000000000000000000F0010000008594600320160512000101 00000000000000000000000000000000000000000000000000000000000000000000000000000000000000000000000000000000000000000N 00000000000NCONT   00    00000000000          00000000000000000000000000000000000000000000 000000000000000A000000000000000000000000000000000000000000000 000000000000000000000000000000000000000     00000000                                                                                                                        000000000000000000
F0010000008594600004000080201411900023658300000000000000000201605120002001PLASTISERVICIOS S DE H                            C000000000007800000000000000000000100010010000000000000000000000F0010000008594600420160512000101 00000000000000000000000000000000000000000000000000000000000000000000000000000000000000000000000000000000000000000N 00000000000NCONT   00    00000000000          00000000000000000000000000000000000000000000 000000000000000A000000000000000000000000000000000000000000000 000000000000000000000000000000000000000     00000000                                                                                                                        000000000000000000
F0010000008594600005000080201411900013552100000000000000000201605120002001PLASTISERVICIOS S DE H                            D000000000007800000000000000000000100010010000000000000000000000F0010000008594600520160512000101 00000000000000000000000000000000000000000000000000000000000000000000000000000000000000000000000000000000000000000N 00000000000NCONT   00    00000000000          00000000000000000000000000000000000000000000 000000000000000A000000000000000000000000000000000000000000000 000000000000000000000000000000000000000     00000000                                                                                                                        000000000000000000
F0010000008594700001000080201411900011050500000000000000000201605120002001PLASTISERVICIOS S DE H                            D000000001060000000000000000000000100010010000000000000000000000F0010000008594700120160512000101 00000000000000000000000000000000000000000000000000000000000000000000000000000000000000000000000000000000000000000N 00000000000NCONT   00    00000000000          00000000000000000000000000000000000000000000 000000000000000A000000000000000000000000000000000000000000000 000000000000000000000000000000000000000     00000000                                                                                                                        000000000000000000
F0010000008594700002000080201411900041450500000000000000000201605120002001PLASTISERVICIOS S DE H                            C000000000950000000000000000000000100010010000000000000000000000F0010000008594700220160512000101 00000000000000000000000000000000000000000000000000000000000000000000000000000000000000000000000000000000000000000N 00000000000NCONT   00    00000000000          00000000000000000000000000000000000000000000 000000000000000A000000000000000000000000000000000000000000000 000000000000000000000000000000000000000     00000000                                                                                                                        000000000000000000
F0010000008594700003000080201411900042505000000000000000000201605120002001PLASTISERVICIOS S DE H                            C000000000110000000000000000000000100010010000000000000000000000F0010000008594700320160512000101 00000000000000000000000000000000000000000000000000000000000000000000000000000000000000000000000000000000000000000N 00000000000NCONT   00    00000000000          00000000000000000000000000000000000000000000 000000000000000A000000000000000000000000000000000000000000000 000000000000000000000000000000000000000     00000000                                                                                                                        000000000000000000
F0010000008594700004000080201411900023658300000000000000000201605120002001PLASTISERVICIOS S DE H                            C000000000007600000000000000000000100010010000000000000000000000F0010000008594700420160512000101 00000000000000000000000000000000000000000000000000000000000000000000000000000000000000000000000000000000000000000N 00000000000NCONT   00    00000000000          00000000000000000000000000000000000000000000 000000000000000A000000000000000000000000000000000000000000000 000000000000000000000000000000000000000     00000000                                                                                                                        000000000000000000
F0010000008594700005000080201411900013552100000000000000000201605120002001PLASTISERVICIOS S DE H                            D000000000007600000000000000000000100010010000000000000000000000F0010000008594700520160512000101 00000000000000000000000000000000000000000000000000000000000000000000000000000000000000000000000000000000000000000N 00000000000NCONT   00    00000000000          00000000000000000000000000000000000000000000 000000000000000A000000000000000000000000000000000000000000000 000000000000000000000000000000000000000     00000000                                                                                                                        000000000000000000
F0010000008594800001000004973318100011050500000000000000000201605120002001COMERCIALIZADORA DIANA                            D000000002000000000000000000000000100010010000000000000000000000F0010000008594800120160512000101 00000000000000000000000000000000000000000000000000000000000000000000000000000000000000000000000000000000000000000N 00000000000NCONT   00    00000000000          00000000000000000000000000000000000000000000 000000000000000A000000000000000000000000000000000000000000000 000000000000000000000000000000000000000     00000000                                                                                                                        000000000000000000
F0010000008594800002000004973318100041450500000000000000000201605120002001COMERCIALIZADORA DIANA                            C000000001890000000000000000000000100010010000000000000000000000F0010000008594800220160512000101 00000000000000000000000000000000000000000000000000000000000000000000000000000000000000000000000000000000000000000N 00000000000NCONT   00    00000000000          00000000000000000000000000000000000000000000 000000000000000A000000000000000000000000000000000000000000000 000000000000000000000000000000000000000     00000000                                                                                                                        000000000000000000
F0010000008594800003000004973318100042505000000000000000000201605120002001COMERCIALIZADORA DIANA                            C000000000110000000000000000000000100010010000000000000000000000F0010000008594800320160512000101 00000000000000000000000000000000000000000000000000000000000000000000000000000000000000000000000000000000000000000N 00000000000NCONT   00    00000000000          00000000000000000000000000000000000000000000 000000000000000A000000000000000000000000000000000000000000000 000000000000000000000000000000000000000     00000000                                                                                                                        000000000000000000
F0010000008594800004000004973318100023658300000000000000000201605120002001COMERCIALIZADORA DIANA                            C000000000015100000000000000000000100010010000000000000000000000F0010000008594800420160512000101 00000000000000000000000000000000000000000000000000000000000000000000000000000000000000000000000000000000000000000N 00000000000NCONT   00    00000000000          00000000000000000000000000000000000000000000 000000000000000A000000000000000000000000000000000000000000000 000000000000000000000000000000000000000     00000000                                                                                                                        000000000000000000
F0010000008594800005000004973318100013552100000000000000000201605120002001COMERCIALIZADORA DIANA                            D000000000015100000000000000000000100010010000000000000000000000F0010000008594800520160512000101 00000000000000000000000000000000000000000000000000000000000000000000000000000000000000000000000000000000000000000N 00000000000NCONT   00    00000000000          00000000000000000000000000000000000000000000 000000000000000A000000000000000000000000000000000000000000000 000000000000000000000000000000000000000     00000000                                                                                                                        000000000000000000
F0010000008594900001000090036646700011050500000000000000000201605120002001FERREPROYECTOS S.A.S                              D000000005000000000000000000000000100010010000000000000000000000F0010000008594900120160512000101 00000000000000000000000000000000000000000000000000000000000000000000000000000000000000000000000000000000000000000N 00000000000NCONT   00    00000000000          00000000000000000000000000000000000000000000 000000000000000A000000000000000000000000000000000000000000000 000000000000000000000000000000000000000     00000000                                                                                                                        000000000000000000
F0010000008594900002000090036646700041450500000000000000000201605120002001FERREPROYECTOS S.A.S                              C000000004900000000000000000000000100010010000000000000000000000F0010000008594900220160512000101 00000000000000000000000000000000000000000000000000000000000000000000000000000000000000000000000000000000000000000N 00000000000NCONT   00    00000000000          00000000000000000000000000000000000000000000 000000000000000A000000000000000000000000000000000000000000000 000000000000000000000000000000000000000     00000000                                                                                                                        000000000000000000
F0010000008594900003000090036646700042505000000000000000000201605120002001FERREPROYECTOS S.A.S                              C000000000100000000000000000000000100010010000000000000000000000F0010000008594900320160512000101 00000000000000000000000000000000000000000000000000000000000000000000000000000000000000000000000000000000000000000N 00000000000NCONT   00    00000000000          00000000000000000000000000000000000000000000 000000000000000A000000000000000000000000000000000000000000000 000000000000000000000000000000000000000     00000000                                                                                                                        000000000000000000
F0010000008594900004000090036646700023658300000000000000000201605120002001FERREPROYECTOS S.A.S                              C000000000039200000000000000000000100010010000000000000000000000F0010000008594900420160512000101 00000000000000000000000000000000000000000000000000000000000000000000000000000000000000000000000000000000000000000N 00000000000NCONT   00    00000000000          00000000000000000000000000000000000000000000 000000000000000A000000000000000000000000000000000000000000000 000000000000000000000000000000000000000     00000000                                                                                                                        000000000000000000
F0010000008594900005000090036646700013552100000000000000000201605120002001FERREPROYECTOS S.A.S                              D000000000039200000000000000000000100010010000000000000000000000F0010000008594900520160512000101 00000000000000000000000000000000000000000000000000000000000000000000000000000000000000000000000000000000000000000N 00000000000NCONT   00    00000000000          00000000000000000000000000000000000000000000 000000000000000A000000000000000000000000000000000000000000000 000000000000000000000000000000000000000     00000000                                                                                                                        000000000000000000
F0010000008595000001000003319910700011050500000000000000000201605120002001LUZ DARY JIMENEZ MARTINEZ                         D000000001100000000000000000000000100010010000000000000000000000F0010000008595000120160512000101 00000000000000000000000000000000000000000000000000000000000000000000000000000000000000000000000000000000000000000N 00000000000NCONT   00    00000000000          00000000000000000000000000000000000000000000 000000000000000A000000000000000000000000000000000000000000000 000000000000000000000000000000000000000     00000000                                                                                                                        000000000000000000
F0010000008595000002000003319910700041450500000000000000000201605120002001LUZ DARY JIMENEZ MARTINEZ                         C000000001000000000000000000000000100010010000000000000000000000F0010000008595000220160512000101 00000000000000000000000000000000000000000000000000000000000000000000000000000000000000000000000000000000000000000N 00000000000NCONT   00    00000000000          00000000000000000000000000000000000000000000 000000000000000A000000000000000000000000000000000000000000000 000000000000000000000000000000000000000     00000000                                                                                                                        000000000000000000
F0010000008595000003000003319910700042505000000000000000000201605120002001LUZ DARY JIMENEZ MARTINEZ                         C000000000100000000000000000000000100010010000000000000000000000F0010000008595000320160512000101 00000000000000000000000000000000000000000000000000000000000000000000000000000000000000000000000000000000000000000N 00000000000NCONT   00    00000000000          00000000000000000000000000000000000000000000 000000000000000A000000000000000000000000000000000000000000000 000000000000000000000000000000000000000     00000000                                                                                                                        000000000000000000
F0010000008595000004000003319910700023658300000000000000000201605120002001LUZ DARY JIMENEZ MARTINEZ                         C000000000008000000000000000000000100010010000000000000000000000F0010000008595000420160512000101 00000000000000000000000000000000000000000000000000000000000000000000000000000000000000000000000000000000000000000N 00000000000NCONT   00    00000000000          00000000000000000000000000000000000000000000 000000000000000A000000000000000000000000000000000000000000000 000000000000000000000000000000000000000     00000000                                                                                                                        000000000000000000
F0010000008595000005000003319910700013552100000000000000000201605120002001LUZ DARY JIMENEZ MARTINEZ                         D000000000008000000000000000000000100010010000000000000000000000F0010000008595000520160512000101 00000000000000000000000000000000000000000000000000000000000000000000000000000000000000000000000000000000000000000N 00000000000NCONT   00    00000000000          00000000000000000000000000000000000000000000 000000000000000A000000000000000000000000000000000000000000000 000000000000000000000000000000000000000     00000000                                                                                                                        000000000000000000
F0010000008595100001000003319910700011050500000000000000000201605120002001LUZ DARY JIMENEZ MARTINEZ                         D000000001010000000000000000000000100010010000000000000000000000F0010000008595100120160512000101 00000000000000000000000000000000000000000000000000000000000000000000000000000000000000000000000000000000000000000N 00000000000NCONT   00    00000000000          00000000000000000000000000000000000000000000 000000000000000A000000000000000000000000000000000000000000000 000000000000000000000000000000000000000     00000000                                                                                                                        000000000000000000
F0010000008595100002000003319910700041450500000000000000000201605120002001LUZ DARY JIMENEZ MARTINEZ                         C000000001000000000000000000000000100010010000000000000000000000F0010000008595100220160512000101 00000000000000000000000000000000000000000000000000000000000000000000000000000000000000000000000000000000000000000N 00000000000NCONT   00    00000000000          00000000000000000000000000000000000000000000 000000000000000A000000000000000000000000000000000000000000000 000000000000000000000000000000000000000     00000000                                                                                                                        000000000000000000
F0010000008595100003000003319910700042505000000000000000000201605120002001LUZ DARY JIMENEZ MARTINEZ                         C000000000010000000000000000000000100010010000000000000000000000F0010000008595100320160512000101 00000000000000000000000000000000000000000000000000000000000000000000000000000000000000000000000000000000000000000N 00000000000NCONT   00    00000000000          00000000000000000000000000000000000000000000 000000000000000A000000000000000000000000000000000000000000000 000000000000000000000000000000000000000     00000000                                                                                                                        000000000000000000
F0010000008595100004000003319910700023658300000000000000000201605120002001LUZ DARY JIMENEZ MARTINEZ                         C000000000008000000000000000000000100010010000000000000000000000F0010000008595100420160512000101 00000000000000000000000000000000000000000000000000000000000000000000000000000000000000000000000000000000000000000N 00000000000NCONT   00    00000000000          00000000000000000000000000000000000000000000 000000000000000A000000000000000000000000000000000000000000000 000000000000000000000000000000000000000     00000000                                                                                                                        000000000000000000
F0010000008595100005000003319910700013552100000000000000000201605120002001LUZ DARY JIMENEZ MARTINEZ                         D000000000008000000000000000000000100010010000000000000000000000F0010000008595100520160512000101 00000000000000000000000000000000000000000000000000000000000000000000000000000000000000000000000000000000000000000N 00000000000NCONT   00    00000000000          00000000000000000000000000000000000000000000 000000000000000A000000000000000000000000000000000000000000000 000000000000000000000000000000000000000     00000000                                                                                                                        000000000000000000
F0010000008595200001000003287795000011050500000000000000000201605120002001COMERCIALIZADORA KUZMAR                           D000000001650000000000000000000000100010010000000000000000000000F0010000008595200120160512000101 00000000000000000000000000000000000000000000000000000000000000000000000000000000000000000000000000000000000000000N 00000000000NCONT   00    00000000000          00000000000000000000000000000000000000000000 000000000000000A000000000000000000000000000000000000000000000 000000000000000000000000000000000000000     00000000                                                                                                                        000000000000000000
F0010000008595200002000003287795000041450500000000000000000201605120002001COMERCIALIZADORA KUZMAR                           C000000001400000000000000000000000100010010000000000000000000000F0010000008595200220160512000101 00000000000000000000000000000000000000000000000000000000000000000000000000000000000000000000000000000000000000000N 00000000000NCONT   00    00000000000          00000000000000000000000000000000000000000000 000000000000000A000000000000000000000000000000000000000000000 000000000000000000000000000000000000000     00000000                                                                                                                        000000000000000000
F0010000008595200003000003287795000042505000000000000000000201605120002001COMERCIALIZADORA KUZMAR                           C000000000250000000000000000000000100010010000000000000000000000F0010000008595200320160512000101 00000000000000000000000000000000000000000000000000000000000000000000000000000000000000000000000000000000000000000N 00000000000NCONT   00    00000000000          00000000000000000000000000000000000000000000 000000000000000A000000000000000000000000000000000000000000000 000000000000000000000000000000000000000     00000000                                                                                                                        000000000000000000
F0010000008595200004000003287795000023658300000000000000000201605120002001COMERCIALIZADORA KUZMAR                           C000000000011200000000000000000000100010010000000000000000000000F0010000008595200420160512000101 00000000000000000000000000000000000000000000000000000000000000000000000000000000000000000000000000000000000000000N 00000000000NCONT   00    00000000000          00000000000000000000000000000000000000000000 000000000000000A000000000000000000000000000000000000000000000 000000000000000000000000000000000000000     00000000                                                                                                                        000000000000000000
F0010000008595200005000003287795000013552100000000000000000201605120002001COMERCIALIZADORA KUZMAR                           D000000000011200000000000000000000100010010000000000000000000000F0010000008595200520160512000101 00000000000000000000000000000000000000000000000000000000000000000000000000000000000000000000000000000000000000000N 00000000000NCONT   00    00000000000          00000000000000000000000000000000000000000000 000000000000000A000000000000000000000000000000000000000000000 000000000000000000000000000000000000000     00000000                                                                                                                        000000000000000000
F0010000008595300001000090050144800011050500000000000000000201605120002001PLASTICOS JR ASOCIADOS SAS                        D000000003200000000000000000000000100010010000000000000000000000F0010000008595300120160512000101 00000000000000000000000000000000000000000000000000000000000000000000000000000000000000000000000000000000000000000N 00000000000NCONT   00    00000000000          00000000000000000000000000000000000000000000 000000000000000A000000000000000000000000000000000000000000000 000000000000000000000000000000000000000     00000000                                                                                                                        000000000000000000
F0010000008595300002000090050144800041450500000000000000000201605120002001PLASTICOS JR ASOCIADOS SAS                        C000000002900000000000000000000000100010010000000000000000000000F0010000008595300220160512000101 00000000000000000000000000000000000000000000000000000000000000000000000000000000000000000000000000000000000000000N 00000000000NCONT   00    00000000000          00000000000000000000000000000000000000000000 000000000000000A000000000000000000000000000000000000000000000 000000000000000000000000000000000000000     00000000                                                                                                                        000000000000000000
F0010000008595300003000090050144800042505000000000000000000201605120002001PLASTICOS JR ASOCIADOS SAS                        C000000000300000000000000000000000100010010000000000000000000000F0010000008595300320160512000101 00000000000000000000000000000000000000000000000000000000000000000000000000000000000000000000000000000000000000000N 00000000000NCONT   00    00000000000          00000000000000000000000000000000000000000000 000000000000000A000000000000000000000000000000000000000000000 000000000000000000000000000000000000000     00000000                                                                                                                        000000000000000000
F0010000008595300004000090050144800023658300000000000000000201605120002001PLASTICOS JR ASOCIADOS SAS                        C000000000023200000000000000000000100010010000000000000000000000F0010000008595300420160512000101 00000000000000000000000000000000000000000000000000000000000000000000000000000000000000000000000000000000000000000N 00000000000NCONT   00    00000000000          00000000000000000000000000000000000000000000 000000000000000A000000000000000000000000000000000000000000000 000000000000000000000000000000000000000     00000000                                                                                                                        000000000000000000
F0010000008595300005000090050144800013552100000000000000000201605120002001PLASTICOS JR ASOCIADOS SAS                        D000000000023200000000000000000000100010010000000000000000000000F0010000008595300520160512000101 00000000000000000000000000000000000000000000000000000000000000000000000000000000000000000000000000000000000000000N 00000000000NCONT   00    00000000000          00000000000000000000000000000000000000000000 000000000000000A000000000000000000000000000000000000000000000 000000000000000000000000000000000000000     00000000                                                                                                                        000000000000000000
F0010000008595400001000000870907300011050500000000000000000201605120002001SURTIDOR FERRETERO                                D000000010300000000000000000000000100010010000000000000000000000F0010000008595400120160512000101 00000000000000000000000000000000000000000000000000000000000000000000000000000000000000000000000000000000000000000N 00000000000NCONT   00    00000000000          00000000000000000000000000000000000000000000 000000000000000A000000000000000000000000000000000000000000000 000000000000000000000000000000000000000     00000000                                                                                                                        000000000000000000
F0010000008595400002000000870907300041450500000000000000000201605120002001SURTIDOR FERRETERO                                C000000007600000000000000000000000100010010000000000000000000000F0010000008595400220160512000101 00000000000000000000000000000000000000000000000000000000000000000000000000000000000000000000000000000000000000000N 00000000000NCONT   00    00000000000          00000000000000000000000000000000000000000000 000000000000000A000000000000000000000000000000000000000000000 000000000000000000000000000000000000000     00000000                                                                                                                        000000000000000000
F0010000008595400003000000870907300042505000000000000000000201605120002001SURTIDOR FERRETERO                                C000000002700000000000000000000000100010010000000000000000000000F0010000008595400320160512000101 00000000000000000000000000000000000000000000000000000000000000000000000000000000000000000000000000000000000000000N 00000000000NCONT   00    00000000000          00000000000000000000000000000000000000000000 000000000000000A000000000000000000000000000000000000000000000 000000000000000000000000000000000000000     00000000                                                                                                                        000000000000000000
F0010000008595400004000000870907300023658300000000000000000201605120002001SURTIDOR FERRETERO                                C000000000060800000000000000000000100010010000000000000000000000F0010000008595400420160512000101 00000000000000000000000000000000000000000000000000000000000000000000000000000000000000000000000000000000000000000N 00000000000NCONT   00    00000000000          00000000000000000000000000000000000000000000 000000000000000A000000000000000000000000000000000000000000000 000000000000000000000000000000000000000     00000000                                                                                                                        000000000000000000
F0010000008595400005000000870907300013552100000000000000000201605120002001SURTIDOR FERRETERO                                D000000000060800000000000000000000100010010000000000000000000000F0010000008595400520160512000101 00000000000000000000000000000000000000000000000000000000000000000000000000000000000000000000000000000000000000000N 00000000000NCONT   00    00000000000          00000000000000000000000000000000000000000000 000000000000000A000000000000000000000000000000000000000000000 000000000000000000000000000000000000000     00000000                                                                                                                        000000000000000000
F0010000008595500001000000917734000011050500000000000000000201605120002001ENRIQUE RAFAEL LARA CASTELLAR                     D000000004100000000000000000000000100010010000000000000000000000F0010000008595500120160512000101 00000000000000000000000000000000000000000000000000000000000000000000000000000000000000000000000000000000000000000N 00000000000NCONT   00    00000000000          00000000000000000000000000000000000000000000 000000000000000A000000000000000000000000000000000000000000000 000000000000000000000000000000000000000     00000000                                                                                                                        000000000000000000
F0010000008595500002000000917734000041450500000000000000000201605120002001ENRIQUE RAFAEL LARA CASTELLAR                     C000000003600000000000000000000000100010010000000000000000000000F0010000008595500220160512000101 00000000000000000000000000000000000000000000000000000000000000000000000000000000000000000000000000000000000000000N 00000000000NCONT   00    00000000000          00000000000000000000000000000000000000000000 000000000000000A000000000000000000000000000000000000000000000 000000000000000000000000000000000000000     00000000                                                                                                                        000000000000000000
F0010000008595500003000000917734000042505000000000000000000201605120002001ENRIQUE RAFAEL LARA CASTELLAR                     C000000000500000000000000000000000100010010000000000000000000000F0010000008595500320160512000101 00000000000000000000000000000000000000000000000000000000000000000000000000000000000000000000000000000000000000000N 00000000000NCONT   00    00000000000          00000000000000000000000000000000000000000000 000000000000000A000000000000000000000000000000000000000000000 000000000000000000000000000000000000000     00000000                                                                                                                        000000000000000000
F0010000008595500004000000917734000023658300000000000000000201605120002001ENRIQUE RAFAEL LARA CASTELLAR                     C000000000028800000000000000000000100010010000000000000000000000F0010000008595500420160512000101 00000000000000000000000000000000000000000000000000000000000000000000000000000000000000000000000000000000000000000N 00000000000NCONT   00    00000000000          00000000000000000000000000000000000000000000 000000000000000A000000000000000000000000000000000000000000000 000000000000000000000000000000000000000     00000000                                                                                                                        000000000000000000
F0010000008595500005000000917734000013552100000000000000000201605120002001ENRIQUE RAFAEL LARA CASTELLAR                     D000000000028800000000000000000000100010010000000000000000000000F0010000008595500520160512000101 00000000000000000000000000000000000000000000000000000000000000000000000000000000000000000000000000000000000000000N 00000000000NCONT   00    00000000000          00000000000000000000000000000000000000000000 000000000000000A000000000000000000000000000000000000000000000 000000000000000000000000000000000000000     00000000                                                                                                                        000000000000000000
F0010000008595600001000000870907300011050500000000000000000201605120002001SURTIDOR FERRETERO                                D000000001140000000000000000000000100010010000000000000000000000F0010000008595600120160512000101 00000000000000000000000000000000000000000000000000000000000000000000000000000000000000000000000000000000000000000N 00000000000NCONT   00    00000000000          00000000000000000000000000000000000000000000 000000000000000A000000000000000000000000000000000000000000000 000000000000000000000000000000000000000     00000000                                                                                                                        000000000000000000
F0010000008595600002000000870907300041450500000000000000000201605120002001SURTIDOR FERRETERO                                C000000000840000000000000000000000100010010000000000000000000000F0010000008595600220160512000101 00000000000000000000000000000000000000000000000000000000000000000000000000000000000000000000000000000000000000000N 00000000000NCONT   00    00000000000          00000000000000000000000000000000000000000000 000000000000000A000000000000000000000000000000000000000000000 000000000000000000000000000000000000000     00000000                                                                                                                        000000000000000000
F0010000008595600003000000870907300042505000000000000000000201605120002001SURTIDOR FERRETERO                                C000000000300000000000000000000000100010010000000000000000000000F0010000008595600320160512000101 00000000000000000000000000000000000000000000000000000000000000000000000000000000000000000000000000000000000000000N 00000000000NCONT   00    00000000000          00000000000000000000000000000000000000000000 000000000000000A000000000000000000000000000000000000000000000 000000000000000000000000000000000000000     00000000                                                                                                                        000000000000000000
F0010000008595600004000000870907300023658300000000000000000201605120002001SURTIDOR FERRETERO                                C000000000006700000000000000000000100010010000000000000000000000F0010000008595600420160512000101 00000000000000000000000000000000000000000000000000000000000000000000000000000000000000000000000000000000000000000N 00000000000NCONT   00    00000000000          00000000000000000000000000000000000000000000 000000000000000A000000000000000000000000000000000000000000000 000000000000000000000000000000000000000     00000000                                                                                                                        000000000000000000
F0010000008595600005000000870907300013552100000000000000000201605120002001SURTIDOR FERRETERO                                D000000000006700000000000000000000100010010000000000000000000000F0010000008595600520160512000101 00000000000000000000000000000000000000000000000000000000000000000000000000000000000000000000000000000000000000000N 00000000000NCONT   00    00000000000          00000000000000000000000000000000000000000000 000000000000000A000000000000000000000000000000000000000000000 000000000000000000000000000000000000000     00000000                                                                                                                        000000000000000000
F0010000008595700001000001022529300011050500000000000000000201605120002001ALBERTO ALVAREZ ISAZA                             D000000000350000000000000000000000100010010000000000000000000000F0010000008595700120160512000101 00000000000000000000000000000000000000000000000000000000000000000000000000000000000000000000000000000000000000000N 00000000000NCONT   00    00000000000          00000000000000000000000000000000000000000000 000000000000000A000000000000000000000000000000000000000000000 000000000000000000000000000000000000000     00000000                                                                                                                        000000000000000000
F0010000008595700002000001022529300041450500000000000000000201605120002001ALBERTO ALVAREZ ISAZA                             C000000000350000000000000000000000100010010000000000000000000000F0010000008595700220160512000101 00000000000000000000000000000000000000000000000000000000000000000000000000000000000000000000000000000000000000000N 00000000000NCONT   00    00000000000          00000000000000000000000000000000000000000000 000000000000000A000000000000000000000000000000000000000000000 000000000000000000000000000000000000000     00000000                                                                                                                        000000000000000000
F0010000008595700003000001022529300042505000000000000000000201605120002001ALBERTO ALVAREZ ISAZA                             C000000000000000000000000000000000100010010000000000000000000000F0010000008595700320160512000101 00000000000000000000000000000000000000000000000000000000000000000000000000000000000000000000000000000000000000000N 00000000000NCONT   00    00000000000          00000000000000000000000000000000000000000000 000000000000000A000000000000000000000000000000000000000000000 000000000000000000000000000000000000000     00000000                                                                                                                        000000000000000000
F0010000008595700004000001022529300023658300000000000000000201605120002001ALBERTO ALVAREZ ISAZA                             C000000000002800000000000000000000100010010000000000000000000000F0010000008595700420160512000101 00000000000000000000000000000000000000000000000000000000000000000000000000000000000000000000000000000000000000000N 00000000000NCONT   00    00000000000          00000000000000000000000000000000000000000000 000000000000000A000000000000000000000000000000000000000000000 000000000000000000000000000000000000000     00000000                                                                                                                        000000000000000000
F0010000008595700005000001022529300013552100000000000000000201605120002001ALBERTO ALVAREZ ISAZA                             D000000000002800000000000000000000100010010000000000000000000000F0010000008595700520160512000101 00000000000000000000000000000000000000000000000000000000000000000000000000000000000000000000000000000000000000000N 00000000000NCONT   00    00000000000          00000000000000000000000000000000000000000000 000000000000000A000000000000000000000000000000000000000000000 000000000000000000000000000000000000000     00000000                                                                                                                        000000000000000000
F0010000008595800001000001022529300011050500000000000000000201605120002001ALBERTO ALVAREZ ISAZA                             D000000000479400000000000000000000100010010000000000000000000000F0010000008595800120160512000101 00000000000000000000000000000000000000000000000000000000000000000000000000000000000000000000000000000000000000000N 00000000000NCONT   00    00000000000          00000000000000000000000000000000000000000000 000000000000000A000000000000000000000000000000000000000000000 000000000000000000000000000000000000000     00000000                                                                                                                        000000000000000000
F0010000008595800002000001022529300041450500000000000000000201605120002001ALBERTO ALVAREZ ISAZA                             C000000000410000000000000000000000100010010000000000000000000000F0010000008595800220160512000101 00000000000000000000000000000000000000000000000000000000000000000000000000000000000000000000000000000000000000000N 00000000000NCONT   00    00000000000          00000000000000000000000000000000000000000000 000000000000000A000000000000000000000000000000000000000000000 000000000000000000000000000000000000000     00000000                                                                                                                        000000000000000000
F0010000008595800003000001022529300042505000000000000000000201605120002001ALBERTO ALVAREZ ISAZA                             C000000000069400000000000000000000100010010000000000000000000000F0010000008595800320160512000101 00000000000000000000000000000000000000000000000000000000000000000000000000000000000000000000000000000000000000000N 00000000000NCONT   00    00000000000          00000000000000000000000000000000000000000000 000000000000000A000000000000000000000000000000000000000000000 000000000000000000000000000000000000000     00000000                                                                                                                        000000000000000000
F0010000008595800004000001022529300023658300000000000000000201605120002001ALBERTO ALVAREZ ISAZA                             C000000000003300000000000000000000100010010000000000000000000000F0010000008595800420160512000101 00000000000000000000000000000000000000000000000000000000000000000000000000000000000000000000000000000000000000000N 00000000000NCONT   00    00000000000          00000000000000000000000000000000000000000000 000000000000000A000000000000000000000000000000000000000000000 000000000000000000000000000000000000000     00000000                                                                                                                        000000000000000000
F0010000008595800005000001022529300013552100000000000000000201605120002001ALBERTO ALVAREZ ISAZA                             D000000000003300000000000000000000100010010000000000000000000000F0010000008595800520160512000101 00000000000000000000000000000000000000000000000000000000000000000000000000000000000000000000000000000000000000000N 00000000000NCONT   00    00000000000          00000000000000000000000000000000000000000000 000000000000000A000000000000000000000000000000000000000000000 000000000000000000000000000000000000000     00000000                                                                                                                        000000000000000000
F0010000008595900001000001022529300011050500000000000000000201605120002001ALBERTO ALVAREZ ISAZA                             D000000000700000000000000000000000100010010000000000000000000000F0010000008595900120160512000101 00000000000000000000000000000000000000000000000000000000000000000000000000000000000000000000000000000000000000000N 00000000000NCONT   00    00000000000          00000000000000000000000000000000000000000000 000000000000000A000000000000000000000000000000000000000000000 000000000000000000000000000000000000000     00000000                                                                                                                        000000000000000000
F0010000008595900002000001022529300041450500000000000000000201605120002001ALBERTO ALVAREZ ISAZA                             C000000000700000000000000000000000100010010000000000000000000000F0010000008595900220160512000101 00000000000000000000000000000000000000000000000000000000000000000000000000000000000000000000000000000000000000000N 00000000000NCONT   00    00000000000          00000000000000000000000000000000000000000000 000000000000000A000000000000000000000000000000000000000000000 000000000000000000000000000000000000000     00000000                                                                                                                        000000000000000000
F0010000008595900003000001022529300042505000000000000000000201605120002001ALBERTO ALVAREZ ISAZA                             C000000000000000000000000000000000100010010000000000000000000000F0010000008595900320160512000101 00000000000000000000000000000000000000000000000000000000000000000000000000000000000000000000000000000000000000000N 00000000000NCONT   00    00000000000          00000000000000000000000000000000000000000000 000000000000000A000000000000000000000000000000000000000000000 000000000000000000000000000000000000000     00000000                                                                                                                        000000000000000000
F0010000008595900004000001022529300023658300000000000000000201605120002001ALBERTO ALVAREZ ISAZA                             C000000000005600000000000000000000100010010000000000000000000000F0010000008595900420160512000101 00000000000000000000000000000000000000000000000000000000000000000000000000000000000000000000000000000000000000000N 00000000000NCONT   00    00000000000          00000000000000000000000000000000000000000000 000000000000000A000000000000000000000000000000000000000000000 000000000000000000000000000000000000000     00000000                                                                                                                        000000000000000000
F0010000008595900005000001022529300013552100000000000000000201605120002001ALBERTO ALVAREZ ISAZA                             D000000000005600000000000000000000100010010000000000000000000000F0010000008595900520160512000101 00000000000000000000000000000000000000000000000000000000000000000000000000000000000000000000000000000000000000000N 00000000000NCONT   00    00000000000          00000000000000000000000000000000000000000000 000000000000000A000000000000000000000000000000000000000000000 000000000000000000000000000000000000000     00000000                                                                                                                        000000000000000000
F0010000008596000001000002701404300011050500000000000000000201605120002001PAULINA QUINTERO                                  D000000004500000000000000000000000100010010000000000000000000000F0010000008596000120160512000101 00000000000000000000000000000000000000000000000000000000000000000000000000000000000000000000000000000000000000000N 00000000000NCONT   00    00000000000          00000000000000000000000000000000000000000000 000000000000000A000000000000000000000000000000000000000000000 000000000000000000000000000000000000000     00000000                                                                                                                        000000000000000000
F0010000008596000002000002701404300041450500000000000000000201605120002001PAULINA QUINTERO                                  C000000004000000000000000000000000100010010000000000000000000000F0010000008596000220160512000101 00000000000000000000000000000000000000000000000000000000000000000000000000000000000000000000000000000000000000000N 00000000000NCONT   00    00000000000          00000000000000000000000000000000000000000000 000000000000000A000000000000000000000000000000000000000000000 000000000000000000000000000000000000000     00000000                                                                                                                        000000000000000000
F0010000008596000003000002701404300042505000000000000000000201605120002001PAULINA QUINTERO                                  C000000000500000000000000000000000100010010000000000000000000000F0010000008596000320160512000101 00000000000000000000000000000000000000000000000000000000000000000000000000000000000000000000000000000000000000000N 00000000000NCONT   00    00000000000          00000000000000000000000000000000000000000000 000000000000000A000000000000000000000000000000000000000000000 000000000000000000000000000000000000000     00000000                                                                                                                        000000000000000000
F0010000008596000004000002701404300023658300000000000000000201605120002001PAULINA QUINTERO                                  C000000000032000000000000000000000100010010000000000000000000000F0010000008596000420160512000101 00000000000000000000000000000000000000000000000000000000000000000000000000000000000000000000000000000000000000000N 00000000000NCONT   00    00000000000          00000000000000000000000000000000000000000000 000000000000000A000000000000000000000000000000000000000000000 000000000000000000000000000000000000000     00000000                                                                                                                        000000000000000000
F0010000008596000005000002701404300013552100000000000000000201605120002001PAULINA QUINTERO                                  D000000000032000000000000000000000100010010000000000000000000000F0010000008596000520160512000101 00000000000000000000000000000000000000000000000000000000000000000000000000000000000000000000000000000000000000000N 00000000000NCONT   00    00000000000          00000000000000000000000000000000000000000000 000000000000000A000000000000000000000000000000000000000000000 000000000000000000000000000000000000000     00000000                                                                                                                        000000000000000000
F0010000008596100001000000431178400011050500000000000000000201605120002001EFRAIN ALVAREZ                                    D000000006740000000000000000000000100010010000000000000000000000F0010000008596100120160512000101 00000000000000000000000000000000000000000000000000000000000000000000000000000000000000000000000000000000000000000N 00000000000NCONT   00    00000000000          00000000000000000000000000000000000000000000 000000000000000A000000000000000000000000000000000000000000000 000000000000000000000000000000000000000     00000000                                                                                                                        000000000000000000
F0010000008596100002000000431178400041450500000000000000000201605120002001EFRAIN ALVAREZ                                    C000000006440000000000000000000000100010010000000000000000000000F0010000008596100220160512000101 00000000000000000000000000000000000000000000000000000000000000000000000000000000000000000000000000000000000000000N 00000000000NCONT   00    00000000000          00000000000000000000000000000000000000000000 000000000000000A000000000000000000000000000000000000000000000 000000000000000000000000000000000000000     00000000                                                                                                                        000000000000000000
F0010000008596100003000000431178400042505000000000000000000201605120002001EFRAIN ALVAREZ                                    C000000000300000000000000000000000100010010000000000000000000000F0010000008596100320160512000101 00000000000000000000000000000000000000000000000000000000000000000000000000000000000000000000000000000000000000000N 00000000000NCONT   00    00000000000          00000000000000000000000000000000000000000000 000000000000000A000000000000000000000000000000000000000000000 000000000000000000000000000000000000000     00000000                                                                                                                        000000000000000000
F0010000008596100004000000431178400023658300000000000000000201605120002001EFRAIN ALVAREZ                                    C000000000051500000000000000000000100010010000000000000000000000F0010000008596100420160512000101 00000000000000000000000000000000000000000000000000000000000000000000000000000000000000000000000000000000000000000N 00000000000NCONT   00    00000000000          00000000000000000000000000000000000000000000 000000000000000A000000000000000000000000000000000000000000000 000000000000000000000000000000000000000     00000000                                                                                                                        000000000000000000
F0010000008596100005000000431178400013552100000000000000000201605120002001EFRAIN ALVAREZ                                    D000000000051500000000000000000000100010010000000000000000000000F0010000008596100520160512000101 00000000000000000000000000000000000000000000000000000000000000000000000000000000000000000000000000000000000000000N 00000000000NCONT   00    00000000000          00000000000000000000000000000000000000000000 000000000000000A000000000000000000000000000000000000000000000 000000000000000000000000000000000000000     00000000                                                                                                                        000000000000000000
F0010000008596200001000007200023300011050500000000000000000201605120002001WILLIAM ORTEGA                                    D000000002500000000000000000000000100010010000000000000000000000F0010000008596200120160512000101 00000000000000000000000000000000000000000000000000000000000000000000000000000000000000000000000000000000000000000N 00000000000NCONT   00    00000000000          00000000000000000000000000000000000000000000 000000000000000A000000000000000000000000000000000000000000000 000000000000000000000000000000000000000     00000000                                                                                                                        000000000000000000
F0010000008596200002000007200023300041450500000000000000000201605120002001WILLIAM ORTEGA                                    C000000002100000000000000000000000100010010000000000000000000000F0010000008596200220160512000101 00000000000000000000000000000000000000000000000000000000000000000000000000000000000000000000000000000000000000000N 00000000000NCONT   00    00000000000          00000000000000000000000000000000000000000000 000000000000000A000000000000000000000000000000000000000000000 000000000000000000000000000000000000000     00000000                                                                                                                        000000000000000000
F0010000008596200003000007200023300042505000000000000000000201605120002001WILLIAM ORTEGA                                    C000000000400000000000000000000000100010010000000000000000000000F0010000008596200320160512000101 00000000000000000000000000000000000000000000000000000000000000000000000000000000000000000000000000000000000000000N 00000000000NCONT   00    00000000000          00000000000000000000000000000000000000000000 000000000000000A000000000000000000000000000000000000000000000 000000000000000000000000000000000000000     00000000                                                                                                                        000000000000000000
F0010000008596200004000007200023300023658300000000000000000201605120002001WILLIAM ORTEGA                                    C000000000016800000000000000000000100010010000000000000000000000F0010000008596200420160512000101 00000000000000000000000000000000000000000000000000000000000000000000000000000000000000000000000000000000000000000N 00000000000NCONT   00    00000000000          00000000000000000000000000000000000000000000 000000000000000A000000000000000000000000000000000000000000000 000000000000000000000000000000000000000     00000000                                                                                                                        000000000000000000
F0010000008596200005000007200023300013552100000000000000000201605120002001WILLIAM ORTEGA                                    D000000000016800000000000000000000100010010000000000000000000000F0010000008596200520160512000101 00000000000000000000000000000000000000000000000000000000000000000000000000000000000000000000000000000000000000000N 00000000000NCONT   00    00000000000          00000000000000000000000000000000000000000000 000000000000000A000000000000000000000000000000000000000000000 000000000000000000000000000000000000000     00000000                                                                                                                        000000000000000000
F0010000008596300001000007200023300011050500000000000000000201605120002001WILLIAM ORTEGA                                    D000000003100000000000000000000000100010010000000000000000000000F0010000008596300120160512000101 00000000000000000000000000000000000000000000000000000000000000000000000000000000000000000000000000000000000000000N 00000000000NCONT   00    00000000000          00000000000000000000000000000000000000000000 000000000000000A000000000000000000000000000000000000000000000 000000000000000000000000000000000000000     00000000                                                                                                                        000000000000000000
F0010000008596300002000007200023300041450500000000000000000201605120002001WILLIAM ORTEGA                                    C000000002600000000000000000000000100010010000000000000000000000F0010000008596300220160512000101 00000000000000000000000000000000000000000000000000000000000000000000000000000000000000000000000000000000000000000N 00000000000NCONT   00    00000000000          00000000000000000000000000000000000000000000 000000000000000A000000000000000000000000000000000000000000000 000000000000000000000000000000000000000     00000000                                                                                                                        000000000000000000
F0010000008596300003000007200023300042505000000000000000000201605120002001WILLIAM ORTEGA                                    C000000000500000000000000000000000100010010000000000000000000000F0010000008596300320160512000101 00000000000000000000000000000000000000000000000000000000000000000000000000000000000000000000000000000000000000000N 00000000000NCONT   00    00000000000          00000000000000000000000000000000000000000000 000000000000000A000000000000000000000000000000000000000000000 000000000000000000000000000000000000000     00000000                                                                                                                        000000000000000000
F0010000008596300004000007200023300023658300000000000000000201605120002001WILLIAM ORTEGA                                    C000000000020800000000000000000000100010010000000000000000000000F0010000008596300420160512000101 00000000000000000000000000000000000000000000000000000000000000000000000000000000000000000000000000000000000000000N 00000000000NCONT   00    00000000000          00000000000000000000000000000000000000000000 000000000000000A000000000000000000000000000000000000000000000 000000000000000000000000000000000000000     00000000                                                                                                                        000000000000000000
F0010000008596300005000007200023300013552100000000000000000201605120002001WILLIAM ORTEGA                                    D000000000020800000000000000000000100010010000000000000000000000F0010000008596300520160512000101 00000000000000000000000000000000000000000000000000000000000000000000000000000000000000000000000000000000000000000N 00000000000NCONT   00    00000000000          00000000000000000000000000000000000000000000 000000000000000A000000000000000000000000000000000000000000000 000000000000000000000000000000000000000     00000000                                                                                                                        000000000000000000
F0010000008596400001000007200023300011050500000000000000000201605120002001WILLIAM ORTEGA                                    D000000003000000000000000000000000100010010000000000000000000000F0010000008596400120160512000101 00000000000000000000000000000000000000000000000000000000000000000000000000000000000000000000000000000000000000000N 00000000000NCONT   00    00000000000          00000000000000000000000000000000000000000000 000000000000000A000000000000000000000000000000000000000000000 000000000000000000000000000000000000000     00000000                                                                                                                        000000000000000000
F0010000008596400002000007200023300041450500000000000000000201605120002001WILLIAM ORTEGA                                    C000000002600000000000000000000000100010010000000000000000000000F0010000008596400220160512000101 00000000000000000000000000000000000000000000000000000000000000000000000000000000000000000000000000000000000000000N 00000000000NCONT   00    00000000000          00000000000000000000000000000000000000000000 000000000000000A000000000000000000000000000000000000000000000 000000000000000000000000000000000000000     00000000                                                                                                                        000000000000000000
F0010000008596400003000007200023300042505000000000000000000201605120002001WILLIAM ORTEGA                                    C000000000400000000000000000000000100010010000000000000000000000F0010000008596400320160512000101 00000000000000000000000000000000000000000000000000000000000000000000000000000000000000000000000000000000000000000N 00000000000NCONT   00    00000000000          00000000000000000000000000000000000000000000 000000000000000A000000000000000000000000000000000000000000000 000000000000000000000000000000000000000     00000000                                                                                                                        000000000000000000
F0010000008596400004000007200023300023658300000000000000000201605120002001WILLIAM ORTEGA                                    C000000000020800000000000000000000100010010000000000000000000000F0010000008596400420160512000101 00000000000000000000000000000000000000000000000000000000000000000000000000000000000000000000000000000000000000000N 00000000000NCONT   00    00000000000          00000000000000000000000000000000000000000000 000000000000000A000000000000000000000000000000000000000000000 000000000000000000000000000000000000000     00000000                                                                                                                        000000000000000000
F0010000008596400005000007200023300013552100000000000000000201605120002001WILLIAM ORTEGA                                    D000000000020800000000000000000000100010010000000000000000000000F0010000008596400520160512000101 00000000000000000000000000000000000000000000000000000000000000000000000000000000000000000000000000000000000000000N 00000000000NCONT   00    00000000000          00000000000000000000000000000000000000000000 000000000000000A000000000000000000000000000000000000000000000 000000000000000000000000000000000000000     00000000                                                                                                                        000000000000000000
F0010000008596500001000007200023300011050500000000000000000201605120002001WILLIAM ORTEGA                                    D000000001100000000000000000000000100010010000000000000000000000F0010000008596500120160512000101 00000000000000000000000000000000000000000000000000000000000000000000000000000000000000000000000000000000000000000N 00000000000NCONT   00    00000000000          00000000000000000000000000000000000000000000 000000000000000A000000000000000000000000000000000000000000000 000000000000000000000000000000000000000     00000000                                                                                                                        000000000000000000
F0010000008596500002000007200023300041450500000000000000000201605120002001WILLIAM ORTEGA                                    C000000001000000000000000000000000100010010000000000000000000000F0010000008596500220160512000101 00000000000000000000000000000000000000000000000000000000000000000000000000000000000000000000000000000000000000000N 00000000000NCONT   00    00000000000          00000000000000000000000000000000000000000000 000000000000000A000000000000000000000000000000000000000000000 000000000000000000000000000000000000000     00000000                                                                                                                        000000000000000000
F0010000008596500003000007200023300042505000000000000000000201605120002001WILLIAM ORTEGA                                    C000000000100000000000000000000000100010010000000000000000000000F0010000008596500320160512000101 00000000000000000000000000000000000000000000000000000000000000000000000000000000000000000000000000000000000000000N 00000000000NCONT   00    00000000000          00000000000000000000000000000000000000000000 000000000000000A000000000000000000000000000000000000000000000 000000000000000000000000000000000000000     00000000                                                                                                                        000000000000000000
F0010000008596500004000007200023300023658300000000000000000201605120002001WILLIAM ORTEGA                                    C000000000008000000000000000000000100010010000000000000000000000F0010000008596500420160512000101 00000000000000000000000000000000000000000000000000000000000000000000000000000000000000000000000000000000000000000N 00000000000NCONT   00    00000000000          00000000000000000000000000000000000000000000 000000000000000A000000000000000000000000000000000000000000000 000000000000000000000000000000000000000     00000000                                                                                                                        000000000000000000
F0010000008596500005000007200023300013552100000000000000000201605120002001WILLIAM ORTEGA                                    D000000000008000000000000000000000100010010000000000000000000000F0010000008596500520160512000101 00000000000000000000000000000000000000000000000000000000000000000000000000000000000000000000000000000000000000000N 00000000000NCONT   00    00000000000          00000000000000000000000000000000000000000000 000000000000000A000000000000000000000000000000000000000000000 000000000000000000000000000000000000000     00000000                                                                                                                        000000000000000000
F0010000008596600001000004175790100011050500000000000000000201605120002001ROSIRIS FERIA HOYOS  (COSM. SHILLER)              D000000001400000000000000000000000100010010000000000000000000000F0010000008596600120160512000101 00000000000000000000000000000000000000000000000000000000000000000000000000000000000000000000000000000000000000000N 00000000000NCONT   00    00000000000          00000000000000000000000000000000000000000000 000000000000000A000000000000000000000000000000000000000000000 000000000000000000000000000000000000000     00000000                                                                                                                        000000000000000000
F0010000008596600002000004175790100041450500000000000000000201605120002001ROSIRIS FERIA HOYOS  (COSM. SHILLER)              C000000001300000000000000000000000100010010000000000000000000000F0010000008596600220160512000101 00000000000000000000000000000000000000000000000000000000000000000000000000000000000000000000000000000000000000000N 00000000000NCONT   00    00000000000          00000000000000000000000000000000000000000000 000000000000000A000000000000000000000000000000000000000000000 000000000000000000000000000000000000000     00000000                                                                                                                        000000000000000000
F0010000008596600003000004175790100042505000000000000000000201605120002001ROSIRIS FERIA HOYOS  (COSM. SHILLER)              C000000000100000000000000000000000100010010000000000000000000000F0010000008596600320160512000101 00000000000000000000000000000000000000000000000000000000000000000000000000000000000000000000000000000000000000000N 00000000000NCONT   00    00000000000          00000000000000000000000000000000000000000000 000000000000000A000000000000000000000000000000000000000000000 000000000000000000000000000000000000000     00000000                                                                                                                        000000000000000000
F0010000008596600004000004175790100023658300000000000000000201605120002001ROSIRIS FERIA HOYOS  (COSM. SHILLER)              C000000000010400000000000000000000100010010000000000000000000000F0010000008596600420160512000101 00000000000000000000000000000000000000000000000000000000000000000000000000000000000000000000000000000000000000000N 00000000000NCONT   00    00000000000          00000000000000000000000000000000000000000000 000000000000000A000000000000000000000000000000000000000000000 000000000000000000000000000000000000000     00000000                                                                                                                        000000000000000000
F0010000008596600005000004175790100013552100000000000000000201605120002001ROSIRIS FERIA HOYOS  (COSM. SHILLER)              D000000000010400000000000000000000100010010000000000000000000000F0010000008596600520160512000101 00000000000000000000000000000000000000000000000000000000000000000000000000000000000000000000000000000000000000000N 00000000000NCONT   00    00000000000          00000000000000000000000000000000000000000000 000000000000000A000000000000000000000000000000000000000000000 000000000000000000000000000000000000000     00000000                                                                                                                        000000000000000000
F0010000008596700001000004175790100011050500000000000000000201605120002001ROSIRIS FERIA HOYOS  (COSM. SHILLER)              D000000000700000000000000000000000100010010000000000000000000000F0010000008596700120160512000101 00000000000000000000000000000000000000000000000000000000000000000000000000000000000000000000000000000000000000000N 00000000000NCONT   00    00000000000          00000000000000000000000000000000000000000000 000000000000000A000000000000000000000000000000000000000000000 000000000000000000000000000000000000000     00000000                                                                                                                        000000000000000000
F0010000008596700002000004175790100041450500000000000000000201605120002001ROSIRIS FERIA HOYOS  (COSM. SHILLER)              C000000000600000000000000000000000100010010000000000000000000000F0010000008596700220160512000101 00000000000000000000000000000000000000000000000000000000000000000000000000000000000000000000000000000000000000000N 00000000000NCONT   00    00000000000          00000000000000000000000000000000000000000000 000000000000000A000000000000000000000000000000000000000000000 000000000000000000000000000000000000000     00000000                                                                                                                        000000000000000000
F0010000008596700003000004175790100042505000000000000000000201605120002001ROSIRIS FERIA HOYOS  (COSM. SHILLER)              C000000000100000000000000000000000100010010000000000000000000000F0010000008596700320160512000101 00000000000000000000000000000000000000000000000000000000000000000000000000000000000000000000000000000000000000000N 00000000000NCONT   00    00000000000          00000000000000000000000000000000000000000000 000000000000000A000000000000000000000000000000000000000000000 000000000000000000000000000000000000000     00000000                                                                                                                        000000000000000000
F0010000008596700004000004175790100023658300000000000000000201605120002001ROSIRIS FERIA HOYOS  (COSM. SHILLER)              C000000000004800000000000000000000100010010000000000000000000000F0010000008596700420160512000101 00000000000000000000000000000000000000000000000000000000000000000000000000000000000000000000000000000000000000000N 00000000000NCONT   00    00000000000          00000000000000000000000000000000000000000000 000000000000000A000000000000000000000000000000000000000000000 000000000000000000000000000000000000000     00000000                                                                                                                        000000000000000000
F0010000008596700005000004175790100013552100000000000000000201605120002001ROSIRIS FERIA HOYOS  (COSM. SHILLER)              D000000000004800000000000000000000100010010000000000000000000000F0010000008596700520160512000101 00000000000000000000000000000000000000000000000000000000000000000000000000000000000000000000000000000000000000000N 00000000000NCONT   00    00000000000          00000000000000000000000000000000000000000000 000000000000000A000000000000000000000000000000000000000000000 000000000000000000000000000000000000000     00000000                                                                                                                        000000000000000000
F0010000008596800001000090007142100011050500000000000000000201605120002001TODO BELLEZA Y MAX S.A.S                          D000000001150000000000000000000000100010010000000000000000000000F0010000008596800120160512000101 00000000000000000000000000000000000000000000000000000000000000000000000000000000000000000000000000000000000000000N 00000000000NCONT   00    00000000000          00000000000000000000000000000000000000000000 000000000000000A000000000000000000000000000000000000000000000 000000000000000000000000000000000000000     00000000                                                                                                                        000000000000000000
F0010000008596800002000090007142100041450500000000000000000201605120002001TODO BELLEZA Y MAX S.A.S                          C000000001100000000000000000000000100010010000000000000000000000F0010000008596800220160512000101 00000000000000000000000000000000000000000000000000000000000000000000000000000000000000000000000000000000000000000N 00000000000NCONT   00    00000000000          00000000000000000000000000000000000000000000 000000000000000A000000000000000000000000000000000000000000000 000000000000000000000000000000000000000     00000000                                                                                                                        000000000000000000
F0010000008596800003000090007142100042505000000000000000000201605120002001TODO BELLEZA Y MAX S.A.S                          C000000000050000000000000000000000100010010000000000000000000000F0010000008596800320160512000101 00000000000000000000000000000000000000000000000000000000000000000000000000000000000000000000000000000000000000000N 00000000000NCONT   00    00000000000          00000000000000000000000000000000000000000000 000000000000000A000000000000000000000000000000000000000000000 000000000000000000000000000000000000000     00000000                                                                                                                        000000000000000000
F0010000008596800004000090007142100023658300000000000000000201605120002001TODO BELLEZA Y MAX S.A.S                          C000000000008800000000000000000000100010010000000000000000000000F0010000008596800420160512000101 00000000000000000000000000000000000000000000000000000000000000000000000000000000000000000000000000000000000000000N 00000000000NCONT   00    00000000000          00000000000000000000000000000000000000000000 000000000000000A000000000000000000000000000000000000000000000 000000000000000000000000000000000000000     00000000                                                                                                                        000000000000000000
F0010000008596800005000090007142100013552100000000000000000201605120002001TODO BELLEZA Y MAX S.A.S                          D000000000008800000000000000000000100010010000000000000000000000F0010000008596800520160512000101 00000000000000000000000000000000000000000000000000000000000000000000000000000000000000000000000000000000000000000N 00000000000NCONT   00    00000000000          00000000000000000000000000000000000000000000 000000000000000A000000000000000000000000000000000000000000000 000000000000000000000000000000000000000     00000000                                                                                                                        000000000000000000
F0010000008596900001000002245670100011050500000000000000000201605120002001YOLANDA  TOBON                                    D000000003600000000000000000000000100010010000000000000000000000F0010000008596900120160512000101 00000000000000000000000000000000000000000000000000000000000000000000000000000000000000000000000000000000000000000N 00000000000NCONT   00    00000000000          00000000000000000000000000000000000000000000 000000000000000A000000000000000000000000000000000000000000000 000000000000000000000000000000000000000     00000000                                                                                                                        000000000000000000
F0010000008596900002000002245670100041450500000000000000000201605120002001YOLANDA  TOBON                                    C000000002600000000000000000000000100010010000000000000000000000F0010000008596900220160512000101 00000000000000000000000000000000000000000000000000000000000000000000000000000000000000000000000000000000000000000N 00000000000NCONT   00    00000000000          00000000000000000000000000000000000000000000 000000000000000A000000000000000000000000000000000000000000000 000000000000000000000000000000000000000     00000000                                                                                                                        000000000000000000
F0010000008596900003000002245670100042505000000000000000000201605120002001YOLANDA  TOBON                                    C000000001000000000000000000000000100010010000000000000000000000F0010000008596900320160512000101 00000000000000000000000000000000000000000000000000000000000000000000000000000000000000000000000000000000000000000N 00000000000NCONT   00    00000000000          00000000000000000000000000000000000000000000 000000000000000A000000000000000000000000000000000000000000000 000000000000000000000000000000000000000     00000000                                                                                                                        000000000000000000
F0010000008596900004000002245670100023658300000000000000000201605120002001YOLANDA  TOBON                                    C000000000020800000000000000000000100010010000000000000000000000F0010000008596900420160512000101 00000000000000000000000000000000000000000000000000000000000000000000000000000000000000000000000000000000000000000N 00000000000NCONT   00    00000000000          00000000000000000000000000000000000000000000 000000000000000A000000000000000000000000000000000000000000000 000000000000000000000000000000000000000     00000000                                                                                                                        000000000000000000
F0010000008596900005000002245670100013552100000000000000000201605120002001YOLANDA  TOBON                                    D000000000020800000000000000000000100010010000000000000000000000F0010000008596900520160512000101 00000000000000000000000000000000000000000000000000000000000000000000000000000000000000000000000000000000000000000N 00000000000NCONT   00    00000000000          00000000000000000000000000000000000000000000 000000000000000A000000000000000000000000000000000000000000000 000000000000000000000000000000000000000     00000000                                                                                                                        000000000000000000
F0010000008597000001000007314673400011050500000000000000000201605120002001ALONSO GABRIEL LOPEZ PEREIRA                      D000000001600000000000000000000000100010010000000000000000000000F0010000008597000120160512000101 00000000000000000000000000000000000000000000000000000000000000000000000000000000000000000000000000000000000000000N 00000000000NCONT   00    00000000000          00000000000000000000000000000000000000000000 000000000000000A000000000000000000000000000000000000000000000 000000000000000000000000000000000000000     00000000                                                                                                                        000000000000000000
F0010000008597000002000007314673400041450500000000000000000201605120002001ALONSO GABRIEL LOPEZ PEREIRA                      C000000001300000000000000000000000100010010000000000000000000000F0010000008597000220160512000101 00000000000000000000000000000000000000000000000000000000000000000000000000000000000000000000000000000000000000000N 00000000000NCONT   00    00000000000          00000000000000000000000000000000000000000000 000000000000000A000000000000000000000000000000000000000000000 000000000000000000000000000000000000000     00000000                                                                                                                        000000000000000000
F0010000008597000003000007314673400042505000000000000000000201605120002001ALONSO GABRIEL LOPEZ PEREIRA                      C000000000300000000000000000000000100010010000000000000000000000F0010000008597000320160512000101 00000000000000000000000000000000000000000000000000000000000000000000000000000000000000000000000000000000000000000N 00000000000NCONT   00    00000000000          00000000000000000000000000000000000000000000 000000000000000A000000000000000000000000000000000000000000000 000000000000000000000000000000000000000     00000000                                                                                                                        000000000000000000
F0010000008597000004000007314673400023658300000000000000000201605120002001ALONSO GABRIEL LOPEZ PEREIRA                      C000000000010400000000000000000000100010010000000000000000000000F0010000008597000420160512000101 00000000000000000000000000000000000000000000000000000000000000000000000000000000000000000000000000000000000000000N 00000000000NCONT   00    00000000000          00000000000000000000000000000000000000000000 000000000000000A000000000000000000000000000000000000000000000 000000000000000000000000000000000000000     00000000                                                                                                                        000000000000000000
F0010000008597000005000007314673400013552100000000000000000201605120002001ALONSO GABRIEL LOPEZ PEREIRA                      D000000000010400000000000000000000100010010000000000000000000000F0010000008597000520160512000101 00000000000000000000000000000000000000000000000000000000000000000000000000000000000000000000000000000000000000000N 00000000000NCONT   00    00000000000          00000000000000000000000000000000000000000000 000000000000000A000000000000000000000000000000000000000000000 000000000000000000000000000000000000000     00000000                                                                                                                        000000000000000000
F0010000008597100001000090061985600011050500000000000000000201605120002001COMERCIALIZADORA PATRY SAS                        D000000001400000000000000000000000100010010000000000000000000000F0010000008597100120160512000101 00000000000000000000000000000000000000000000000000000000000000000000000000000000000000000000000000000000000000000N 00000000000NCONT   00    00000000000          00000000000000000000000000000000000000000000 000000000000000A000000000000000000000000000000000000000000000 000000000000000000000000000000000000000     00000000                                                                                                                        000000000000000000
F0010000008597100002000090061985600041450500000000000000000201605120002001COMERCIALIZADORA PATRY SAS                        C000000000900000000000000000000000100010010000000000000000000000F0010000008597100220160512000101 00000000000000000000000000000000000000000000000000000000000000000000000000000000000000000000000000000000000000000N 00000000000NCONT   00    00000000000          00000000000000000000000000000000000000000000 000000000000000A000000000000000000000000000000000000000000000 000000000000000000000000000000000000000     00000000                                                                                                                        000000000000000000
