F0010000006666000001000080200863700013050500000000000000000201412230002001COPIN LTDA                                        D000000048209600000000000000000000100010010000000000000000000000F0010000006666000120141223000101 00000000000000000000000000000000000000000000000000000000000000000000000000000000000000000000000000000000000000000N 00000000000NCONT   00    00000000000          00000000000000000000000000000000000000000000 000000000000000A000000000000000000000000000000000000000000000 000000000000000000000000000000000000000     00000000                                                                                                                        000000000000000000
F0010000006666000002000080200863700041450500000000000000000201412230002001COPIN LTDA                                        C000000043880000000000000000000000100010010000000000000000000000F0010000006666000220141223000101 00000000000000000000000000000000000000000000000000000000000000000000000000000000000000000000000000000000000000000N 00000000000NCONT   00    00000000000          00000000000000000000000000000000000000000000 000000000000000A000000000000000000000000000000000000000000000 000000000000000000000000000000000000000     00000000                                                                                                                        000000000000000000
F0010000006666000003000080200863700042505000000000000000000201412230002001COPIN LTDA                                        C000000004329600000000000000000000100010010000000000000000000000F0010000006666000320141223000101 00000000000000000000000000000000000000000000000000000000000000000000000000000000000000000000000000000000000000000N 00000000000NCONT   00    00000000000          00000000000000000000000000000000000000000000 000000000000000A000000000000000000000000000000000000000000000 000000000000000000000000000000000000000     00000000                                                                                                                        000000000000000000
F0010000006666000004000080200863700023658300000000000000000201412230002001COPIN LTDA                                        C000000000351000000000000000000000100010010000000000000000000000F0010000006666000420141223000101 00000000000000000000000000000000000000000000000000000000000000000000000000000000000000000000000000000000000000000N 00000000000NCONT   00    00000000000          00000000000000000000000000000000000000000000 000000000000000A000000000000000000000000000000000000000000000 000000000000000000000000000000000000000     00000000                                                                                                                        000000000000000000
F0010000006666000005000080200863700013552100000000000000000201412230002001COPIN LTDA                                        D000000000351000000000000000000000100010010000000000000000000000F0010000006666000520141223000101 00000000000000000000000000000000000000000000000000000000000000000000000000000000000000000000000000000000000000000N 00000000000NCONT   00    00000000000          00000000000000000000000000000000000000000000 000000000000000A000000000000000000000000000000000000000000000 000000000000000000000000000000000000000     00000000                                                                                                                        000000000000000000
F0010000006666100001000090020547900011050500000000000000000201412230002001DAC DEL CARIBE S.A.S.                             D000000005000000000000000000000000100010010000000000000000000000F0010000006666100120141223000101 00000000000000000000000000000000000000000000000000000000000000000000000000000000000000000000000000000000000000000N 00000000000NCONT   00    00000000000          00000000000000000000000000000000000000000000 000000000000000A000000000000000000000000000000000000000000000 000000000000000000000000000000000000000     00000000                                                                                                                        000000000000000000
F0010000006666100002000090020547900041450500000000000000000201412230002001DAC DEL CARIBE S.A.S.                             C000000003700000000000000000000000100010010000000000000000000000F0010000006666100220141223000101 00000000000000000000000000000000000000000000000000000000000000000000000000000000000000000000000000000000000000000N 00000000000NCONT   00    00000000000          00000000000000000000000000000000000000000000 000000000000000A000000000000000000000000000000000000000000000 000000000000000000000000000000000000000     00000000                                                                                                                        000000000000000000
F0010000006666100003000090020547900042505000000000000000000201412230002001DAC DEL CARIBE S.A.S.                             C000000001300000000000000000000000100010010000000000000000000000F0010000006666100320141223000101 00000000000000000000000000000000000000000000000000000000000000000000000000000000000000000000000000000000000000000N 00000000000NCONT   00    00000000000          00000000000000000000000000000000000000000000 000000000000000A000000000000000000000000000000000000000000000 000000000000000000000000000000000000000     00000000                                                                                                                        000000000000000000
F0010000006666100004000090020547900023658300000000000000000201412230002001DAC DEL CARIBE S.A.S.                             C000000000029600000000000000000000100010010000000000000000000000F0010000006666100420141223000101 00000000000000000000000000000000000000000000000000000000000000000000000000000000000000000000000000000000000000000N 00000000000NCONT   00    00000000000          00000000000000000000000000000000000000000000 000000000000000A000000000000000000000000000000000000000000000 000000000000000000000000000000000000000     00000000                                                                                                                        000000000000000000
F0010000006666100005000090020547900013552100000000000000000201412230002001DAC DEL CARIBE S.A.S.                             D000000000029600000000000000000000100010010000000000000000000000F0010000006666100520141223000101 00000000000000000000000000000000000000000000000000000000000000000000000000000000000000000000000000000000000000000N 00000000000NCONT   00    00000000000          00000000000000000000000000000000000000000000 000000000000000A000000000000000000000000000000000000000000000 000000000000000000000000000000000000000     00000000                                                                                                                        000000000000000000
F0010000006666200001000003207718300011050500000000000000000201412230002001MARIA GILMA RAMIREZ GARCIA                        D000000009000000000000000000000000100010010000000000000000000000F0010000006666200120141223000101 00000000000000000000000000000000000000000000000000000000000000000000000000000000000000000000000000000000000000000N 00000000000NCONT   00    00000000000          00000000000000000000000000000000000000000000 000000000000000A000000000000000000000000000000000000000000000 000000000000000000000000000000000000000     00000000                                                                                                                        000000000000000000
F0010000006666200002000003207718300041450500000000000000000201412230002001MARIA GILMA RAMIREZ GARCIA                        C000000007300000000000000000000000100010010000000000000000000000F0010000006666200220141223000101 00000000000000000000000000000000000000000000000000000000000000000000000000000000000000000000000000000000000000000N 00000000000NCONT   00    00000000000          00000000000000000000000000000000000000000000 000000000000000A000000000000000000000000000000000000000000000 000000000000000000000000000000000000000     00000000                                                                                                                        000000000000000000
F0010000006666200003000003207718300042505000000000000000000201412230002001MARIA GILMA RAMIREZ GARCIA                        C000000001700000000000000000000000100010010000000000000000000000F0010000006666200320141223000101 00000000000000000000000000000000000000000000000000000000000000000000000000000000000000000000000000000000000000000N 00000000000NCONT   00    00000000000          00000000000000000000000000000000000000000000 000000000000000A000000000000000000000000000000000000000000000 000000000000000000000000000000000000000     00000000                                                                                                                        000000000000000000
F0010000006666200004000003207718300023658300000000000000000201412230002001MARIA GILMA RAMIREZ GARCIA                        C000000000058400000000000000000000100010010000000000000000000000F0010000006666200420141223000101 00000000000000000000000000000000000000000000000000000000000000000000000000000000000000000000000000000000000000000N 00000000000NCONT   00    00000000000          00000000000000000000000000000000000000000000 000000000000000A000000000000000000000000000000000000000000000 000000000000000000000000000000000000000     00000000                                                                                                                        000000000000000000
F0010000006666200005000003207718300013552100000000000000000201412230002001MARIA GILMA RAMIREZ GARCIA                        D000000000058400000000000000000000100010010000000000000000000000F0010000006666200520141223000101 00000000000000000000000000000000000000000000000000000000000000000000000000000000000000000000000000000000000000000N 00000000000NCONT   00    00000000000          00000000000000000000000000000000000000000000 000000000000000A000000000000000000000000000000000000000000000 000000000000000000000000000000000000000     00000000                                                                                                                        000000000000000000
F0010000006666300001000090055180500011050500000000000000000201412230002001LAMINAS Y SUELAS DE COLOMBIA S.A.S                D000000001400000000000000000000000100010010000000000000000000000F0010000006666300120141223000101 00000000000000000000000000000000000000000000000000000000000000000000000000000000000000000000000000000000000000000N 00000000000NCONT   00    00000000000          00000000000000000000000000000000000000000000 000000000000000A000000000000000000000000000000000000000000000 000000000000000000000000000000000000000     00000000                                                                                                                        000000000000000000
F0010000006666300002000090055180500041450500000000000000000201412230002001LAMINAS Y SUELAS DE COLOMBIA S.A.S                C000000001000000000000000000000000100010010000000000000000000000F0010000006666300220141223000101 00000000000000000000000000000000000000000000000000000000000000000000000000000000000000000000000000000000000000000N 00000000000NCONT   00    00000000000          00000000000000000000000000000000000000000000 000000000000000A000000000000000000000000000000000000000000000 000000000000000000000000000000000000000     00000000                                                                                                                        000000000000000000
F0010000006666300003000090055180500042505000000000000000000201412230002001LAMINAS Y SUELAS DE COLOMBIA S.A.S                C000000000400000000000000000000000100010010000000000000000000000F0010000006666300320141223000101 00000000000000000000000000000000000000000000000000000000000000000000000000000000000000000000000000000000000000000N 00000000000NCONT   00    00000000000          00000000000000000000000000000000000000000000 000000000000000A000000000000000000000000000000000000000000000 000000000000000000000000000000000000000     00000000                                                                                                                        000000000000000000
F0010000006666300004000090055180500023658300000000000000000201412230002001LAMINAS Y SUELAS DE COLOMBIA S.A.S                C000000000008000000000000000000000100010010000000000000000000000F0010000006666300420141223000101 00000000000000000000000000000000000000000000000000000000000000000000000000000000000000000000000000000000000000000N 00000000000NCONT   00    00000000000          00000000000000000000000000000000000000000000 000000000000000A000000000000000000000000000000000000000000000 000000000000000000000000000000000000000     00000000                                                                                                                        000000000000000000
F0010000006666300005000090055180500013552100000000000000000201412230002001LAMINAS Y SUELAS DE COLOMBIA S.A.S                D000000000008000000000000000000000100010010000000000000000000000F0010000006666300520141223000101 00000000000000000000000000000000000000000000000000000000000000000000000000000000000000000000000000000000000000000N 00000000000NCONT   00    00000000000          00000000000000000000000000000000000000000000 000000000000000A000000000000000000000000000000000000000000000 000000000000000000000000000000000000000     00000000                                                                                                                        000000000000000000
F0010000006666400001000007016511700011050500000000000000000201412230002001YEISON CASTAÑO                                   D000000001100000000000000000000000100010010000000000000000000000F0010000006666400120141223000101 00000000000000000000000000000000000000000000000000000000000000000000000000000000000000000000000000000000000000000N 00000000000NCONT   00    00000000000          00000000000000000000000000000000000000000000 000000000000000A000000000000000000000000000000000000000000000 000000000000000000000000000000000000000     00000000                                                                                                                        000000000000000000
F0010000006666400002000007016511700041450500000000000000000201412230002001YEISON CASTAÑO                                   C000000001000000000000000000000000100010010000000000000000000000F0010000006666400220141223000101 00000000000000000000000000000000000000000000000000000000000000000000000000000000000000000000000000000000000000000N 00000000000NCONT   00    00000000000          00000000000000000000000000000000000000000000 000000000000000A000000000000000000000000000000000000000000000 000000000000000000000000000000000000000     00000000                                                                                                                        000000000000000000
F0010000006666400003000007016511700042505000000000000000000201412230002001YEISON CASTAÑO                                   C000000000100000000000000000000000100010010000000000000000000000F0010000006666400320141223000101 00000000000000000000000000000000000000000000000000000000000000000000000000000000000000000000000000000000000000000N 00000000000NCONT   00    00000000000          00000000000000000000000000000000000000000000 000000000000000A000000000000000000000000000000000000000000000 000000000000000000000000000000000000000     00000000                                                                                                                        000000000000000000
F0010000006666400004000007016511700023658300000000000000000201412230002001YEISON CASTAÑO                                   C000000000008000000000000000000000100010010000000000000000000000F0010000006666400420141223000101 00000000000000000000000000000000000000000000000000000000000000000000000000000000000000000000000000000000000000000N 00000000000NCONT   00    00000000000          00000000000000000000000000000000000000000000 000000000000000A000000000000000000000000000000000000000000000 000000000000000000000000000000000000000     00000000                                                                                                                        000000000000000000
F0010000006666400005000007016511700013552100000000000000000201412230002001YEISON CASTAÑO                                   D000000000008000000000000000000000100010010000000000000000000000F0010000006666400520141223000101 00000000000000000000000000000000000000000000000000000000000000000000000000000000000000000000000000000000000000000N 00000000000NCONT   00    00000000000          00000000000000000000000000000000000000000000 000000000000000A000000000000000000000000000000000000000000000 000000000000000000000000000000000000000     00000000                                                                                                                        000000000000000000
F0010000006666500001000000745492100011050500000000000000000201412230002001DARIO CABARCAS ..                                 D000000002300000000000000000000000100010010000000000000000000000F0010000006666500120141223000101 00000000000000000000000000000000000000000000000000000000000000000000000000000000000000000000000000000000000000000N 00000000000NCONT   00    00000000000          00000000000000000000000000000000000000000000 000000000000000A000000000000000000000000000000000000000000000 000000000000000000000000000000000000000     00000000                                                                                                                        000000000000000000
F0010000006666500002000000745492100041450500000000000000000201412230002001DARIO CABARCAS ..                                 C000000001800000000000000000000000100010010000000000000000000000F0010000006666500220141223000101 00000000000000000000000000000000000000000000000000000000000000000000000000000000000000000000000000000000000000000N 00000000000NCONT   00    00000000000          00000000000000000000000000000000000000000000 000000000000000A000000000000000000000000000000000000000000000 000000000000000000000000000000000000000     00000000                                                                                                                        000000000000000000
F0010000006666500003000000745492100042505000000000000000000201412230002001DARIO CABARCAS ..                                 C000000000500000000000000000000000100010010000000000000000000000F0010000006666500320141223000101 00000000000000000000000000000000000000000000000000000000000000000000000000000000000000000000000000000000000000000N 00000000000NCONT   00    00000000000          00000000000000000000000000000000000000000000 000000000000000A000000000000000000000000000000000000000000000 000000000000000000000000000000000000000     00000000                                                                                                                        000000000000000000
F0010000006666500004000000745492100023658300000000000000000201412230002001DARIO CABARCAS ..                                 C000000000014400000000000000000000100010010000000000000000000000F0010000006666500420141223000101 00000000000000000000000000000000000000000000000000000000000000000000000000000000000000000000000000000000000000000N 00000000000NCONT   00    00000000000          00000000000000000000000000000000000000000000 000000000000000A000000000000000000000000000000000000000000000 000000000000000000000000000000000000000     00000000                                                                                                                        000000000000000000
F0010000006666500005000000745492100013552100000000000000000201412230002001DARIO CABARCAS ..                                 D000000000014400000000000000000000100010010000000000000000000000F0010000006666500520141223000101 00000000000000000000000000000000000000000000000000000000000000000000000000000000000000000000000000000000000000000N 00000000000NCONT   00    00000000000          00000000000000000000000000000000000000000000 000000000000000A000000000000000000000000000000000000000000000 000000000000000000000000000000000000000     00000000                                                                                                                        000000000000000000
F0010000006666600001000090051494400011050500000000000000000201412230002001MUNDINOX SAS                                      D000000005000000000000000000000000100010010000000000000000000000F0010000006666600120141223000101 00000000000000000000000000000000000000000000000000000000000000000000000000000000000000000000000000000000000000000N 00000000000NCONT   00    00000000000          00000000000000000000000000000000000000000000 000000000000000A000000000000000000000000000000000000000000000 000000000000000000000000000000000000000     00000000                                                                                                                        000000000000000000
F0010000006666600002000090051494400041450500000000000000000201412230002001MUNDINOX SAS                                      C000000004100000000000000000000000100010010000000000000000000000F0010000006666600220141223000101 00000000000000000000000000000000000000000000000000000000000000000000000000000000000000000000000000000000000000000N 00000000000NCONT   00    00000000000          00000000000000000000000000000000000000000000 000000000000000A000000000000000000000000000000000000000000000 000000000000000000000000000000000000000     00000000                                                                                                                        000000000000000000
F0010000006666600003000090051494400042505000000000000000000201412230002001MUNDINOX SAS                                      C000000000900000000000000000000000100010010000000000000000000000F0010000006666600320141223000101 00000000000000000000000000000000000000000000000000000000000000000000000000000000000000000000000000000000000000000N 00000000000NCONT   00    00000000000          00000000000000000000000000000000000000000000 000000000000000A000000000000000000000000000000000000000000000 000000000000000000000000000000000000000     00000000                                                                                                                        000000000000000000
F0010000006666600004000090051494400023658300000000000000000201412230002001MUNDINOX SAS                                      C000000000032800000000000000000000100010010000000000000000000000F0010000006666600420141223000101 00000000000000000000000000000000000000000000000000000000000000000000000000000000000000000000000000000000000000000N 00000000000NCONT   00    00000000000          00000000000000000000000000000000000000000000 000000000000000A000000000000000000000000000000000000000000000 000000000000000000000000000000000000000     00000000                                                                                                                        000000000000000000
F0010000006666600005000090051494400013552100000000000000000201412230002001MUNDINOX SAS                                      D000000000032800000000000000000000100010010000000000000000000000F0010000006666600520141223000101 00000000000000000000000000000000000000000000000000000000000000000000000000000000000000000000000000000000000000000N 00000000000NCONT   00    00000000000          00000000000000000000000000000000000000000000 000000000000000A000000000000000000000000000000000000000000000 000000000000000000000000000000000000000     00000000                                                                                                                        000000000000000000
F0010000006666700001000007222012100011050500000000000000000201412230002001LUIS NAVARRO AVILA                                D000000001000000000000000000000000100010010000000000000000000000F0010000006666700120141223000101 00000000000000000000000000000000000000000000000000000000000000000000000000000000000000000000000000000000000000000N 00000000000NCONT   00    00000000000          00000000000000000000000000000000000000000000 000000000000000A000000000000000000000000000000000000000000000 000000000000000000000000000000000000000     00000000                                                                                                                        000000000000000000
F0010000006666700002000007222012100041450500000000000000000201412230002001LUIS NAVARRO AVILA                                C000000000900000000000000000000000100010010000000000000000000000F0010000006666700220141223000101 00000000000000000000000000000000000000000000000000000000000000000000000000000000000000000000000000000000000000000N 00000000000NCONT   00    00000000000          00000000000000000000000000000000000000000000 000000000000000A000000000000000000000000000000000000000000000 000000000000000000000000000000000000000     00000000                                                                                                                        000000000000000000
F0010000006666700003000007222012100042505000000000000000000201412230002001LUIS NAVARRO AVILA                                C000000000100000000000000000000000100010010000000000000000000000F0010000006666700320141223000101 00000000000000000000000000000000000000000000000000000000000000000000000000000000000000000000000000000000000000000N 00000000000NCONT   00    00000000000          00000000000000000000000000000000000000000000 000000000000000A000000000000000000000000000000000000000000000 000000000000000000000000000000000000000     00000000                                                                                                                        000000000000000000
F0010000006666700004000007222012100023658300000000000000000201412230002001LUIS NAVARRO AVILA                                C000000000007200000000000000000000100010010000000000000000000000F0010000006666700420141223000101 00000000000000000000000000000000000000000000000000000000000000000000000000000000000000000000000000000000000000000N 00000000000NCONT   00    00000000000          00000000000000000000000000000000000000000000 000000000000000A000000000000000000000000000000000000000000000 000000000000000000000000000000000000000     00000000                                                                                                                        000000000000000000
F0010000006666700005000007222012100013552100000000000000000201412230002001LUIS NAVARRO AVILA                                D000000000007200000000000000000000100010010000000000000000000000F0010000006666700520141223000101 00000000000000000000000000000000000000000000000000000000000000000000000000000000000000000000000000000000000000000N 00000000000NCONT   00    00000000000          00000000000000000000000000000000000000000000 000000000000000A000000000000000000000000000000000000000000000 000000000000000000000000000000000000000     00000000                                                                                                                        000000000000000000
F0010000006666800001000007214782600011050500000000000000000201412230002001OSCAR JOSE LIAN ROCHA                             D000000001000000000000000000000000100010010000000000000000000000F0010000006666800120141223000101 00000000000000000000000000000000000000000000000000000000000000000000000000000000000000000000000000000000000000000N 00000000000NCONT   00    00000000000          00000000000000000000000000000000000000000000 000000000000000A000000000000000000000000000000000000000000000 000000000000000000000000000000000000000     00000000                                                                                                                        000000000000000000
F0010000006666800002000007214782600041450500000000000000000201412230002001OSCAR JOSE LIAN ROCHA                             C000000000900000000000000000000000100010010000000000000000000000F0010000006666800220141223000101 00000000000000000000000000000000000000000000000000000000000000000000000000000000000000000000000000000000000000000N 00000000000NCONT   00    00000000000          00000000000000000000000000000000000000000000 000000000000000A000000000000000000000000000000000000000000000 000000000000000000000000000000000000000     00000000                                                                                                                        000000000000000000
F0010000006666800003000007214782600042505000000000000000000201412230002001OSCAR JOSE LIAN ROCHA                             C000000000100000000000000000000000100010010000000000000000000000F0010000006666800320141223000101 00000000000000000000000000000000000000000000000000000000000000000000000000000000000000000000000000000000000000000N 00000000000NCONT   00    00000000000          00000000000000000000000000000000000000000000 000000000000000A000000000000000000000000000000000000000000000 000000000000000000000000000000000000000     00000000                                                                                                                        000000000000000000
F0010000006666800004000007214782600023658300000000000000000201412230002001OSCAR JOSE LIAN ROCHA                             C000000000007200000000000000000000100010010000000000000000000000F0010000006666800420141223000101 00000000000000000000000000000000000000000000000000000000000000000000000000000000000000000000000000000000000000000N 00000000000NCONT   00    00000000000          00000000000000000000000000000000000000000000 000000000000000A000000000000000000000000000000000000000000000 000000000000000000000000000000000000000     00000000                                                                                                                        000000000000000000
F0010000006666800005000007214782600013552100000000000000000201412230002001OSCAR JOSE LIAN ROCHA                             D000000000007200000000000000000000100010010000000000000000000000F0010000006666800520141223000101 00000000000000000000000000000000000000000000000000000000000000000000000000000000000000000000000000000000000000000N 00000000000NCONT   00    00000000000          00000000000000000000000000000000000000000000 000000000000000A000000000000000000000000000000000000000000000 000000000000000000000000000000000000000     00000000                                                                                                                        000000000000000000
F0010000006666900001000000871573200011050500000000000000000201412230002001ACCESORIAS ARQUITECTONI KJ                        D000000002200000000000000000000000100010010000000000000000000000F0010000006666900120141223000101 00000000000000000000000000000000000000000000000000000000000000000000000000000000000000000000000000000000000000000N 00000000000NCONT   00    00000000000          00000000000000000000000000000000000000000000 000000000000000A000000000000000000000000000000000000000000000 000000000000000000000000000000000000000     00000000                                                                                                                        000000000000000000
F0010000006666900002000000871573200041450500000000000000000201412230002001ACCESORIAS ARQUITECTONI KJ                        C000000001200000000000000000000000100010010000000000000000000000F0010000006666900220141223000101 00000000000000000000000000000000000000000000000000000000000000000000000000000000000000000000000000000000000000000N 00000000000NCONT   00    00000000000          00000000000000000000000000000000000000000000 000000000000000A000000000000000000000000000000000000000000000 000000000000000000000000000000000000000     00000000                                                                                                                        000000000000000000
F0010000006666900003000000871573200042505000000000000000000201412230002001ACCESORIAS ARQUITECTONI KJ                        C000000001000000000000000000000000100010010000000000000000000000F0010000006666900320141223000101 00000000000000000000000000000000000000000000000000000000000000000000000000000000000000000000000000000000000000000N 00000000000NCONT   00    00000000000          00000000000000000000000000000000000000000000 000000000000000A000000000000000000000000000000000000000000000 000000000000000000000000000000000000000     00000000                                                                                                                        000000000000000000
F0010000006666900004000000871573200023658300000000000000000201412230002001ACCESORIAS ARQUITECTONI KJ                        C000000000009600000000000000000000100010010000000000000000000000F0010000006666900420141223000101 00000000000000000000000000000000000000000000000000000000000000000000000000000000000000000000000000000000000000000N 00000000000NCONT   00    00000000000          00000000000000000000000000000000000000000000 000000000000000A000000000000000000000000000000000000000000000 000000000000000000000000000000000000000     00000000                                                                                                                        000000000000000000
F0010000006666900005000000871573200013552100000000000000000201412230002001ACCESORIAS ARQUITECTONI KJ                        D000000000009600000000000000000000100010010000000000000000000000F0010000006666900520141223000101 00000000000000000000000000000000000000000000000000000000000000000000000000000000000000000000000000000000000000000N 00000000000NCONT   00    00000000000          00000000000000000000000000000000000000000000 000000000000000A000000000000000000000000000000000000000000000 000000000000000000000000000000000000000     00000000                                                                                                                        000000000000000000
F0010000006667000001000090034602400011050500000000000000000201412230002001LA CUSTODIA                                       D000000004000000000000000000000000100010010000000000000000000000F0010000006667000120141223000101 00000000000000000000000000000000000000000000000000000000000000000000000000000000000000000000000000000000000000000N 00000000000NCONT   00    00000000000          00000000000000000000000000000000000000000000 000000000000000A000000000000000000000000000000000000000000000 000000000000000000000000000000000000000     00000000                                                                                                                        000000000000000000
F0010000006667000002000090034602400041450500000000000000000201412230002001LA CUSTODIA                                       C000000003600000000000000000000000100010010000000000000000000000F0010000006667000220141223000101 00000000000000000000000000000000000000000000000000000000000000000000000000000000000000000000000000000000000000000N 00000000000NCONT   00    00000000000          00000000000000000000000000000000000000000000 000000000000000A000000000000000000000000000000000000000000000 000000000000000000000000000000000000000     00000000                                                                                                                        000000000000000000
F0010000006667000003000090034602400042505000000000000000000201412230002001LA CUSTODIA                                       C000000000400000000000000000000000100010010000000000000000000000F0010000006667000320141223000101 00000000000000000000000000000000000000000000000000000000000000000000000000000000000000000000000000000000000000000N 00000000000NCONT   00    00000000000          00000000000000000000000000000000000000000000 000000000000000A000000000000000000000000000000000000000000000 000000000000000000000000000000000000000     00000000                                                                                                                        000000000000000000
F0010000006667000004000090034602400023658300000000000000000201412230002001LA CUSTODIA                                       C000000000028800000000000000000000100010010000000000000000000000F0010000006667000420141223000101 00000000000000000000000000000000000000000000000000000000000000000000000000000000000000000000000000000000000000000N 00000000000NCONT   00    00000000000          00000000000000000000000000000000000000000000 000000000000000A000000000000000000000000000000000000000000000 000000000000000000000000000000000000000     00000000                                                                                                                        000000000000000000
F0010000006667000005000090034602400013552100000000000000000201412230002001LA CUSTODIA                                       D000000000028800000000000000000000100010010000000000000000000000F0010000006667000520141223000101 00000000000000000000000000000000000000000000000000000000000000000000000000000000000000000000000000000000000000000N 00000000000NCONT   00    00000000000          00000000000000000000000000000000000000000000 000000000000000A000000000000000000000000000000000000000000000 000000000000000000000000000000000000000     00000000                                                                                                                        000000000000000000
F0010000006667100001000000871573200011050500000000000000000201412230002001ACCESORIAS ARQUITECTONI KJ                        D000000002500000000000000000000000100010010000000000000000000000F0010000006667100120141223000101 00000000000000000000000000000000000000000000000000000000000000000000000000000000000000000000000000000000000000000N 00000000000NCONT   00    00000000000          00000000000000000000000000000000000000000000 000000000000000A000000000000000000000000000000000000000000000 000000000000000000000000000000000000000     00000000                                                                                                                        000000000000000000
F0010000006667100002000000871573200041450500000000000000000201412230002001ACCESORIAS ARQUITECTONI KJ                        C000000001300000000000000000000000100010010000000000000000000000F0010000006667100220141223000101 00000000000000000000000000000000000000000000000000000000000000000000000000000000000000000000000000000000000000000N 00000000000NCONT   00    00000000000          00000000000000000000000000000000000000000000 000000000000000A000000000000000000000000000000000000000000000 000000000000000000000000000000000000000     00000000                                                                                                                        000000000000000000
F0010000006667100003000000871573200042505000000000000000000201412230002001ACCESORIAS ARQUITECTONI KJ                        C000000001200000000000000000000000100010010000000000000000000000F0010000006667100320141223000101 00000000000000000000000000000000000000000000000000000000000000000000000000000000000000000000000000000000000000000N 00000000000NCONT   00    00000000000          00000000000000000000000000000000000000000000 000000000000000A000000000000000000000000000000000000000000000 000000000000000000000000000000000000000     00000000                                                                                                                        000000000000000000
F0010000006667100004000000871573200023658300000000000000000201412230002001ACCESORIAS ARQUITECTONI KJ                        C000000000010400000000000000000000100010010000000000000000000000F0010000006667100420141223000101 00000000000000000000000000000000000000000000000000000000000000000000000000000000000000000000000000000000000000000N 00000000000NCONT   00    00000000000          00000000000000000000000000000000000000000000 000000000000000A000000000000000000000000000000000000000000000 000000000000000000000000000000000000000     00000000                                                                                                                        000000000000000000
F0010000006667100005000000871573200013552100000000000000000201412230002001ACCESORIAS ARQUITECTONI KJ                        D000000000010400000000000000000000100010010000000000000000000000F0010000006667100520141223000101 00000000000000000000000000000000000000000000000000000000000000000000000000000000000000000000000000000000000000000N 00000000000NCONT   00    00000000000          00000000000000000000000000000000000000000000 000000000000000A000000000000000000000000000000000000000000000 000000000000000000000000000000000000000     00000000                                                                                                                        000000000000000000
F0010000006667200001000000871573200011050500000000000000000201412230002001ACCESORIAS ARQUITECTONI KJ                        D000000006200000000000000000000000100010010000000000000000000000F0010000006667200120141223000101 00000000000000000000000000000000000000000000000000000000000000000000000000000000000000000000000000000000000000000N 00000000000NCONT   00    00000000000          00000000000000000000000000000000000000000000 000000000000000A000000000000000000000000000000000000000000000 000000000000000000000000000000000000000     00000000                                                                                                                        000000000000000000
F0010000006667200002000000871573200041450500000000000000000201412230002001ACCESORIAS ARQUITECTONI KJ                        C000000004000000000000000000000000100010010000000000000000000000F0010000006667200220141223000101 00000000000000000000000000000000000000000000000000000000000000000000000000000000000000000000000000000000000000000N 00000000000NCONT   00    00000000000          00000000000000000000000000000000000000000000 000000000000000A000000000000000000000000000000000000000000000 000000000000000000000000000000000000000     00000000                                                                                                                        000000000000000000
F0010000006667200003000000871573200042505000000000000000000201412230002001ACCESORIAS ARQUITECTONI KJ                        C000000002200000000000000000000000100010010000000000000000000000F0010000006667200320141223000101 00000000000000000000000000000000000000000000000000000000000000000000000000000000000000000000000000000000000000000N 00000000000NCONT   00    00000000000          00000000000000000000000000000000000000000000 000000000000000A000000000000000000000000000000000000000000000 000000000000000000000000000000000000000     00000000                                                                                                                        000000000000000000
F0010000006667200004000000871573200023658300000000000000000201412230002001ACCESORIAS ARQUITECTONI KJ                        C000000000032000000000000000000000100010010000000000000000000000F0010000006667200420141223000101 00000000000000000000000000000000000000000000000000000000000000000000000000000000000000000000000000000000000000000N 00000000000NCONT   00    00000000000          00000000000000000000000000000000000000000000 000000000000000A000000000000000000000000000000000000000000000 000000000000000000000000000000000000000     00000000                                                                                                                        000000000000000000
F0010000006667200005000000871573200013552100000000000000000201412230002001ACCESORIAS ARQUITECTONI KJ                        D000000000032000000000000000000000100010010000000000000000000000F0010000006667200520141223000101 00000000000000000000000000000000000000000000000000000000000000000000000000000000000000000000000000000000000000000N 00000000000NCONT   00    00000000000          00000000000000000000000000000000000000000000 000000000000000A000000000000000000000000000000000000000000000 000000000000000000000000000000000000000     00000000                                                                                                                        000000000000000000
F0010000006667300001000000871573200011050500000000000000000201412230002001ACCESORIAS ARQUITECTONI KJ                        D000000001800000000000000000000000100010010000000000000000000000F0010000006667300120141223000101 00000000000000000000000000000000000000000000000000000000000000000000000000000000000000000000000000000000000000000N 00000000000NCONT   00    00000000000          00000000000000000000000000000000000000000000 000000000000000A000000000000000000000000000000000000000000000 000000000000000000000000000000000000000     00000000                                                                                                                        000000000000000000
F0010000006667300002000000871573200041450500000000000000000201412230002001ACCESORIAS ARQUITECTONI KJ                        C000000001200000000000000000000000100010010000000000000000000000F0010000006667300220141223000101 00000000000000000000000000000000000000000000000000000000000000000000000000000000000000000000000000000000000000000N 00000000000NCONT   00    00000000000          00000000000000000000000000000000000000000000 000000000000000A000000000000000000000000000000000000000000000 000000000000000000000000000000000000000     00000000                                                                                                                        000000000000000000
F0010000006667300003000000871573200042505000000000000000000201412230002001ACCESORIAS ARQUITECTONI KJ                        C000000000600000000000000000000000100010010000000000000000000000F0010000006667300320141223000101 00000000000000000000000000000000000000000000000000000000000000000000000000000000000000000000000000000000000000000N 00000000000NCONT   00    00000000000          00000000000000000000000000000000000000000000 000000000000000A000000000000000000000000000000000000000000000 000000000000000000000000000000000000000     00000000                                                                                                                        000000000000000000
F0010000006667300004000000871573200023658300000000000000000201412230002001ACCESORIAS ARQUITECTONI KJ                        C000000000009600000000000000000000100010010000000000000000000000F0010000006667300420141223000101 00000000000000000000000000000000000000000000000000000000000000000000000000000000000000000000000000000000000000000N 00000000000NCONT   00    00000000000          00000000000000000000000000000000000000000000 000000000000000A000000000000000000000000000000000000000000000 000000000000000000000000000000000000000     00000000                                                                                                                        000000000000000000
F0010000006667300005000000871573200013552100000000000000000201412230002001ACCESORIAS ARQUITECTONI KJ                        D000000000009600000000000000000000100010010000000000000000000000F0010000006667300520141223000101 00000000000000000000000000000000000000000000000000000000000000000000000000000000000000000000000000000000000000000N 00000000000NCONT   00    00000000000          00000000000000000000000000000000000000000000 000000000000000A000000000000000000000000000000000000000000000 000000000000000000000000000000000000000     00000000                                                                                                                        000000000000000000
F0010000006667400001000000871573200011050500000000000000000201412230002001ACCESORIAS ARQUITECTONI KJ                        D000000001500000000000000000000000100010010000000000000000000000F0010000006667400120141223000101 00000000000000000000000000000000000000000000000000000000000000000000000000000000000000000000000000000000000000000N 00000000000NCONT   00    00000000000          00000000000000000000000000000000000000000000 000000000000000A000000000000000000000000000000000000000000000 000000000000000000000000000000000000000     00000000                                                                                                                        000000000000000000
F0010000006667400002000000871573200041450500000000000000000201412230002001ACCESORIAS ARQUITECTONI KJ                        C000000001200000000000000000000000100010010000000000000000000000F0010000006667400220141223000101 00000000000000000000000000000000000000000000000000000000000000000000000000000000000000000000000000000000000000000N 00000000000NCONT   00    00000000000          00000000000000000000000000000000000000000000 000000000000000A000000000000000000000000000000000000000000000 000000000000000000000000000000000000000     00000000                                                                                                                        000000000000000000
F0010000006667400003000000871573200042505000000000000000000201412230002001ACCESORIAS ARQUITECTONI KJ                        C000000000300000000000000000000000100010010000000000000000000000F0010000006667400320141223000101 00000000000000000000000000000000000000000000000000000000000000000000000000000000000000000000000000000000000000000N 00000000000NCONT   00    00000000000          00000000000000000000000000000000000000000000 000000000000000A000000000000000000000000000000000000000000000 000000000000000000000000000000000000000     00000000                                                                                                                        000000000000000000
F0010000006667400004000000871573200023658300000000000000000201412230002001ACCESORIAS ARQUITECTONI KJ                        C000000000009600000000000000000000100010010000000000000000000000F0010000006667400420141223000101 00000000000000000000000000000000000000000000000000000000000000000000000000000000000000000000000000000000000000000N 00000000000NCONT   00    00000000000          00000000000000000000000000000000000000000000 000000000000000A000000000000000000000000000000000000000000000 000000000000000000000000000000000000000     00000000                                                                                                                        000000000000000000
F0010000006667400005000000871573200013552100000000000000000201412230002001ACCESORIAS ARQUITECTONI KJ                        D000000000009600000000000000000000100010010000000000000000000000F0010000006667400520141223000101 00000000000000000000000000000000000000000000000000000000000000000000000000000000000000000000000000000000000000000N 00000000000NCONT   00    00000000000          00000000000000000000000000000000000000000000 000000000000000A000000000000000000000000000000000000000000000 000000000000000000000000000000000000000     00000000                                                                                                                        000000000000000000
F0010000006667500001000000871573200011050500000000000000000201412230002001ACCESORIAS ARQUITECTONI KJ                        D000000004000000000000000000000000100010010000000000000000000000F0010000006667500120141223000101 00000000000000000000000000000000000000000000000000000000000000000000000000000000000000000000000000000000000000000N 00000000000NCONT   00    00000000000          00000000000000000000000000000000000000000000 000000000000000A000000000000000000000000000000000000000000000 000000000000000000000000000000000000000     00000000                                                                                                                        000000000000000000
F0010000006667500002000000871573200041450500000000000000000201412230002001ACCESORIAS ARQUITECTONI KJ                        C000000002600000000000000000000000100010010000000000000000000000F0010000006667500220141223000101 00000000000000000000000000000000000000000000000000000000000000000000000000000000000000000000000000000000000000000N 00000000000NCONT   00    00000000000          00000000000000000000000000000000000000000000 000000000000000A000000000000000000000000000000000000000000000 000000000000000000000000000000000000000     00000000                                                                                                                        000000000000000000
F0010000006667500003000000871573200042505000000000000000000201412230002001ACCESORIAS ARQUITECTONI KJ                        C000000001400000000000000000000000100010010000000000000000000000F0010000006667500320141223000101 00000000000000000000000000000000000000000000000000000000000000000000000000000000000000000000000000000000000000000N 00000000000NCONT   00    00000000000          00000000000000000000000000000000000000000000 000000000000000A000000000000000000000000000000000000000000000 000000000000000000000000000000000000000     00000000                                                                                                                        000000000000000000
F0010000006667500004000000871573200023658300000000000000000201412230002001ACCESORIAS ARQUITECTONI KJ                        C000000000020800000000000000000000100010010000000000000000000000F0010000006667500420141223000101 00000000000000000000000000000000000000000000000000000000000000000000000000000000000000000000000000000000000000000N 00000000000NCONT   00    00000000000          00000000000000000000000000000000000000000000 000000000000000A000000000000000000000000000000000000000000000 000000000000000000000000000000000000000     00000000                                                                                                                        000000000000000000
F0010000006667500005000000871573200013552100000000000000000201412230002001ACCESORIAS ARQUITECTONI KJ                        D000000000020800000000000000000000100010010000000000000000000000F0010000006667500520141223000101 00000000000000000000000000000000000000000000000000000000000000000000000000000000000000000000000000000000000000000N 00000000000NCONT   00    00000000000          00000000000000000000000000000000000000000000 000000000000000A000000000000000000000000000000000000000000000 000000000000000000000000000000000000000     00000000                                                                                                                        000000000000000000
F0010000006667600001000082400670800013050500000000000000000201412230002001PALMAGRO SA                                       D000000018000000000000000000000000100010010000000000000000000000F0010000006667600120141223000101 00000000000000000000000000000000000000000000000000000000000000000000000000000000000000000000000000000000000000000N 00000000000NCONT   00    00000000000          00000000000000000000000000000000000000000000 000000000000000A000000000000000000000000000000000000000000000 000000000000000000000000000000000000000     00000000                                                                                                                        000000000000000000
F0010000006667600002000082400670800041450500000000000000000201412230002001PALMAGRO SA                                       C000000017000000000000000000000000100010010000000000000000000000F0010000006667600220141223000101 00000000000000000000000000000000000000000000000000000000000000000000000000000000000000000000000000000000000000000N 00000000000NCONT   00    00000000000          00000000000000000000000000000000000000000000 000000000000000A000000000000000000000000000000000000000000000 000000000000000000000000000000000000000     00000000                                                                                                                        000000000000000000
F0010000006667600003000082400670800042505000000000000000000201412230002001PALMAGRO SA                                       C000000001000000000000000000000000100010010000000000000000000000F0010000006667600320141223000101 00000000000000000000000000000000000000000000000000000000000000000000000000000000000000000000000000000000000000000N 00000000000NCONT   00    00000000000          00000000000000000000000000000000000000000000 000000000000000A000000000000000000000000000000000000000000000 000000000000000000000000000000000000000     00000000                                                                                                                        000000000000000000
F0010000006667600004000082400670800023658300000000000000000201412230002001PALMAGRO SA                                       C000000000136000000000000000000000100010010000000000000000000000F0010000006667600420141223000101 00000000000000000000000000000000000000000000000000000000000000000000000000000000000000000000000000000000000000000N 00000000000NCONT   00    00000000000          00000000000000000000000000000000000000000000 000000000000000A000000000000000000000000000000000000000000000 000000000000000000000000000000000000000     00000000                                                                                                                        000000000000000000
F0010000006667600005000082400670800013552100000000000000000201412230002001PALMAGRO SA                                       D000000000136000000000000000000000100010010000000000000000000000F0010000006667600520141223000101 00000000000000000000000000000000000000000000000000000000000000000000000000000000000000000000000000000000000000000N 00000000000NCONT   00    00000000000          00000000000000000000000000000000000000000000 000000000000000A000000000000000000000000000000000000000000000 000000000000000000000000000000000000000     00000000                                                                                                                        000000000000000000
F0010000006667700001000002252724200011050500000000000000000201412230002001LAURA SIERRA ZAPATA                               D000000003000000000000000000000000100010010000000000000000000000F0010000006667700120141223000101 00000000000000000000000000000000000000000000000000000000000000000000000000000000000000000000000000000000000000000N 00000000000NCONT   00    00000000000          00000000000000000000000000000000000000000000 000000000000000A000000000000000000000000000000000000000000000 000000000000000000000000000000000000000     00000000                                                                                                                        000000000000000000
F0010000006667700002000002252724200041450500000000000000000201412230002001LAURA SIERRA ZAPATA                               C000000002700000000000000000000000100010010000000000000000000000F0010000006667700220141223000101 00000000000000000000000000000000000000000000000000000000000000000000000000000000000000000000000000000000000000000N 00000000000NCONT   00    00000000000          00000000000000000000000000000000000000000000 000000000000000A000000000000000000000000000000000000000000000 000000000000000000000000000000000000000     00000000                                                                                                                        000000000000000000
F0010000006667700003000002252724200042505000000000000000000201412230002001LAURA SIERRA ZAPATA                               C000000000300000000000000000000000100010010000000000000000000000F0010000006667700320141223000101 00000000000000000000000000000000000000000000000000000000000000000000000000000000000000000000000000000000000000000N 00000000000NCONT   00    00000000000          00000000000000000000000000000000000000000000 000000000000000A000000000000000000000000000000000000000000000 000000000000000000000000000000000000000     00000000                                                                                                                        000000000000000000
F0010000006667700004000002252724200023658300000000000000000201412230002001LAURA SIERRA ZAPATA                               C000000000021600000000000000000000100010010000000000000000000000F0010000006667700420141223000101 00000000000000000000000000000000000000000000000000000000000000000000000000000000000000000000000000000000000000000N 00000000000NCONT   00    00000000000          00000000000000000000000000000000000000000000 000000000000000A000000000000000000000000000000000000000000000 000000000000000000000000000000000000000     00000000                                                                                                                        000000000000000000
F0010000006667700005000002252724200013552100000000000000000201412230002001LAURA SIERRA ZAPATA                               D000000000021600000000000000000000100010010000000000000000000000F0010000006667700520141223000101 00000000000000000000000000000000000000000000000000000000000000000000000000000000000000000000000000000000000000000N 00000000000NCONT   00    00000000000          00000000000000000000000000000000000000000000 000000000000000A000000000000000000000000000000000000000000000 000000000000000000000000000000000000000     00000000                                                                                                                        000000000000000000
F0010000006667800001000003260618400011050500000000000000000201412230002001PELETERIA TAURO                                   D000000004900000000000000000000000100010010000000000000000000000F0010000006667800120141223000101 00000000000000000000000000000000000000000000000000000000000000000000000000000000000000000000000000000000000000000N 00000000000NCONT   00    00000000000          00000000000000000000000000000000000000000000 000000000000000A000000000000000000000000000000000000000000000 000000000000000000000000000000000000000     00000000                                                                                                                        000000000000000000
F0010000006667800002000003260618400041450500000000000000000201412230002001PELETERIA TAURO                                   C000000004500000000000000000000000100010010000000000000000000000F0010000006667800220141223000101 00000000000000000000000000000000000000000000000000000000000000000000000000000000000000000000000000000000000000000N 00000000000NCONT   00    00000000000          00000000000000000000000000000000000000000000 000000000000000A000000000000000000000000000000000000000000000 000000000000000000000000000000000000000     00000000                                                                                                                        000000000000000000
F0010000006667800003000003260618400042505000000000000000000201412230002001PELETERIA TAURO                                   C000000000400000000000000000000000100010010000000000000000000000F0010000006667800320141223000101 00000000000000000000000000000000000000000000000000000000000000000000000000000000000000000000000000000000000000000N 00000000000NCONT   00    00000000000          00000000000000000000000000000000000000000000 000000000000000A000000000000000000000000000000000000000000000 000000000000000000000000000000000000000     00000000                                                                                                                        000000000000000000
F0010000006667800004000003260618400023658300000000000000000201412230002001PELETERIA TAURO                                   C000000000036000000000000000000000100010010000000000000000000000F0010000006667800420141223000101 00000000000000000000000000000000000000000000000000000000000000000000000000000000000000000000000000000000000000000N 00000000000NCONT   00    00000000000          00000000000000000000000000000000000000000000 000000000000000A000000000000000000000000000000000000000000000 000000000000000000000000000000000000000     00000000                                                                                                                        000000000000000000
F0010000006667800005000003260618400013552100000000000000000201412230002001PELETERIA TAURO                                   D000000000036000000000000000000000100010010000000000000000000000F0010000006667800520141223000101 00000000000000000000000000000000000000000000000000000000000000000000000000000000000000000000000000000000000000000N 00000000000NCONT   00    00000000000          00000000000000000000000000000000000000000000 000000000000000A000000000000000000000000000000000000000000000 000000000000000000000000000000000000000     00000000                                                                                                                        000000000000000000
F0010000006667900001000090044443800011050500000000000000000201412230002001DISTRIBUCIONES UFRE S.A.S.                        D000000000309000000000000000000000100010010000000000000000000000F0010000006667900120141223000101 00000000000000000000000000000000000000000000000000000000000000000000000000000000000000000000000000000000000000000N 00000000000NCONT   00    00000000000          00000000000000000000000000000000000000000000 000000000000000A000000000000000000000000000000000000000000000 000000000000000000000000000000000000000     00000000                                                                                                                        000000000000000000
F0010000006667900002000090044443800041450500000000000000000201412230002001DISTRIBUCIONES UFRE S.A.S.                        C000000000200000000000000000000000100010010000000000000000000000F0010000006667900220141223000101 00000000000000000000000000000000000000000000000000000000000000000000000000000000000000000000000000000000000000000N 00000000000NCONT   00    00000000000          00000000000000000000000000000000000000000000 000000000000000A000000000000000000000000000000000000000000000 000000000000000000000000000000000000000     00000000                                                                                                                        000000000000000000
F0010000006667900003000090044443800042505000000000000000000201412230002001DISTRIBUCIONES UFRE S.A.S.                        C000000000109000000000000000000000100010010000000000000000000000F0010000006667900320141223000101 00000000000000000000000000000000000000000000000000000000000000000000000000000000000000000000000000000000000000000N 00000000000NCONT   00    00000000000          00000000000000000000000000000000000000000000 000000000000000A000000000000000000000000000000000000000000000 000000000000000000000000000000000000000     00000000                                                                                                                        000000000000000000
F0010000006667900004000090044443800023658300000000000000000201412230002001DISTRIBUCIONES UFRE S.A.S.                        C000000000001600000000000000000000100010010000000000000000000000F0010000006667900420141223000101 00000000000000000000000000000000000000000000000000000000000000000000000000000000000000000000000000000000000000000N 00000000000NCONT   00    00000000000          00000000000000000000000000000000000000000000 000000000000000A000000000000000000000000000000000000000000000 000000000000000000000000000000000000000     00000000                                                                                                                        000000000000000000
F0010000006667900005000090044443800013552100000000000000000201412230002001DISTRIBUCIONES UFRE S.A.S.                        D000000000001600000000000000000000100010010000000000000000000000F0010000006667900520141223000101 00000000000000000000000000000000000000000000000000000000000000000000000000000000000000000000000000000000000000000N 00000000000NCONT   00    00000000000          00000000000000000000000000000000000000000000 000000000000000A000000000000000000000000000000000000000000000 000000000000000000000000000000000000000     00000000                                                                                                                        000000000000000000
F0010000006668000001000000866840800011050500000000000000000201412230002001CACHARRERIA MARTIN                                D000000001000000000000000000000000100010010000000000000000000000F0010000006668000120141223000101 00000000000000000000000000000000000000000000000000000000000000000000000000000000000000000000000000000000000000000N 00000000000NCONT   00    00000000000          00000000000000000000000000000000000000000000 000000000000000A000000000000000000000000000000000000000000000 000000000000000000000000000000000000000     00000000                                                                                                                        000000000000000000
F0010000006668000002000000866840800041450500000000000000000201412230002001CACHARRERIA MARTIN                                C000000000900000000000000000000000100010010000000000000000000000F0010000006668000220141223000101 00000000000000000000000000000000000000000000000000000000000000000000000000000000000000000000000000000000000000000N 00000000000NCONT   00    00000000000          00000000000000000000000000000000000000000000 000000000000000A000000000000000000000000000000000000000000000 000000000000000000000000000000000000000     00000000                                                                                                                        000000000000000000
F0010000006668000003000000866840800042505000000000000000000201412230002001CACHARRERIA MARTIN                                C000000000100000000000000000000000100010010000000000000000000000F0010000006668000320141223000101 00000000000000000000000000000000000000000000000000000000000000000000000000000000000000000000000000000000000000000N 00000000000NCONT   00    00000000000          00000000000000000000000000000000000000000000 000000000000000A000000000000000000000000000000000000000000000 000000000000000000000000000000000000000     00000000                                                                                                                        000000000000000000
F0010000006668000004000000866840800023658300000000000000000201412230002001CACHARRERIA MARTIN                                C000000000007200000000000000000000100010010000000000000000000000F0010000006668000420141223000101 00000000000000000000000000000000000000000000000000000000000000000000000000000000000000000000000000000000000000000N 00000000000NCONT   00    00000000000          00000000000000000000000000000000000000000000 000000000000000A000000000000000000000000000000000000000000000 000000000000000000000000000000000000000     00000000                                                                                                                        000000000000000000
F0010000006668000005000000866840800013552100000000000000000201412230002001CACHARRERIA MARTIN                                D000000000007200000000000000000000100010010000000000000000000000F0010000006668000520141223000101 00000000000000000000000000000000000000000000000000000000000000000000000000000000000000000000000000000000000000000N 00000000000NCONT   00    00000000000          00000000000000000000000000000000000000000000 000000000000000A000000000000000000000000000000000000000000000 000000000000000000000000000000000000000     00000000                                                                                                                        000000000000000000
F0010000006668100001000000742399700011050500000000000000000201412230002001CACHARRERIA EL NUEVO CHADID                       D000000000950000000000000000000000100010010000000000000000000000F0010000006668100120141223000101 00000000000000000000000000000000000000000000000000000000000000000000000000000000000000000000000000000000000000000N 00000000000NCONT   00    00000000000          00000000000000000000000000000000000000000000 000000000000000A000000000000000000000000000000000000000000000 000000000000000000000000000000000000000     00000000                                                                                                                        000000000000000000
F0010000006668100002000000742399700041450500000000000000000201412230002001CACHARRERIA EL NUEVO CHADID                       C000000000750000000000000000000000100010010000000000000000000000F0010000006668100220141223000101 00000000000000000000000000000000000000000000000000000000000000000000000000000000000000000000000000000000000000000N 00000000000NCONT   00    00000000000          00000000000000000000000000000000000000000000 000000000000000A000000000000000000000000000000000000000000000 000000000000000000000000000000000000000     00000000                                                                                                                        000000000000000000
F0010000006668100003000000742399700042505000000000000000000201412230002001CACHARRERIA EL NUEVO CHADID                       C000000000200000000000000000000000100010010000000000000000000000F0010000006668100320141223000101 00000000000000000000000000000000000000000000000000000000000000000000000000000000000000000000000000000000000000000N 00000000000NCONT   00    00000000000          00000000000000000000000000000000000000000000 000000000000000A000000000000000000000000000000000000000000000 000000000000000000000000000000000000000     00000000                                                                                                                        000000000000000000
F0010000006668100004000000742399700023658300000000000000000201412230002001CACHARRERIA EL NUEVO CHADID                       C000000000006000000000000000000000100010010000000000000000000000F0010000006668100420141223000101 00000000000000000000000000000000000000000000000000000000000000000000000000000000000000000000000000000000000000000N 00000000000NCONT   00    00000000000          00000000000000000000000000000000000000000000 000000000000000A000000000000000000000000000000000000000000000 000000000000000000000000000000000000000     00000000                                                                                                                        000000000000000000
F0010000006668100005000000742399700013552100000000000000000201412230002001CACHARRERIA EL NUEVO CHADID                       D000000000006000000000000000000000100010010000000000000000000000F0010000006668100520141223000101 00000000000000000000000000000000000000000000000000000000000000000000000000000000000000000000000000000000000000000N 00000000000NCONT   00    00000000000          00000000000000000000000000000000000000000000 000000000000000A000000000000000000000000000000000000000000000 000000000000000000000000000000000000000     00000000                                                                                                                        000000000000000000
F0010000006668200001000007314673400011050500000000000000000201412230002001ALONSO LOPEZ                                      D000000001700000000000000000000000100010010000000000000000000000F0010000006668200120141223000101 00000000000000000000000000000000000000000000000000000000000000000000000000000000000000000000000000000000000000000N 00000000000NCONT   00    00000000000          00000000000000000000000000000000000000000000 000000000000000A000000000000000000000000000000000000000000000 000000000000000000000000000000000000000     00000000                                                                                                                        000000000000000000
F0010000006668200002000007314673400041450500000000000000000201412230002001ALONSO LOPEZ                                      C000000001200000000000000000000000100010010000000000000000000000F0010000006668200220141223000101 00000000000000000000000000000000000000000000000000000000000000000000000000000000000000000000000000000000000000000N 00000000000NCONT   00    00000000000          00000000000000000000000000000000000000000000 000000000000000A000000000000000000000000000000000000000000000 000000000000000000000000000000000000000     00000000                                                                                                                        000000000000000000
F0010000006668200003000007314673400042505000000000000000000201412230002001ALONSO LOPEZ                                      C000000000500000000000000000000000100010010000000000000000000000F0010000006668200320141223000101 00000000000000000000000000000000000000000000000000000000000000000000000000000000000000000000000000000000000000000N 00000000000NCONT   00    00000000000          00000000000000000000000000000000000000000000 000000000000000A000000000000000000000000000000000000000000000 000000000000000000000000000000000000000     00000000                                                                                                                        000000000000000000
F0010000006668200004000007314673400023658300000000000000000201412230002001ALONSO LOPEZ                                      C000000000009600000000000000000000100010010000000000000000000000F0010000006668200420141223000101 00000000000000000000000000000000000000000000000000000000000000000000000000000000000000000000000000000000000000000N 00000000000NCONT   00    00000000000          00000000000000000000000000000000000000000000 000000000000000A000000000000000000000000000000000000000000000 000000000000000000000000000000000000000     00000000                                                                                                                        000000000000000000
F0010000006668200005000007314673400013552100000000000000000201412230002001ALONSO LOPEZ                                      D000000000009600000000000000000000100010010000000000000000000000F0010000006668200520141223000101 00000000000000000000000000000000000000000000000000000000000000000000000000000000000000000000000000000000000000000N 00000000000NCONT   00    00000000000          00000000000000000000000000000000000000000000 000000000000000A000000000000000000000000000000000000000000000 000000000000000000000000000000000000000     00000000                                                                                                                        000000000000000000
F0010000006668300001000090024619400011050500000000000000000201412230002001COMERCIALIZADORA SALMAR LTDA                      D000000001300000000000000000000000100010010000000000000000000000F0010000006668300120141223000101 00000000000000000000000000000000000000000000000000000000000000000000000000000000000000000000000000000000000000000N 00000000000NCONT   00    00000000000          00000000000000000000000000000000000000000000 000000000000000A000000000000000000000000000000000000000000000 000000000000000000000000000000000000000     00000000                                                                                                                        000000000000000000
F0010000006668300002000090024619400041450500000000000000000201412230002001COMERCIALIZADORA SALMAR LTDA                      C000000000900000000000000000000000100010010000000000000000000000F0010000006668300220141223000101 00000000000000000000000000000000000000000000000000000000000000000000000000000000000000000000000000000000000000000N 00000000000NCONT   00    00000000000          00000000000000000000000000000000000000000000 000000000000000A000000000000000000000000000000000000000000000 000000000000000000000000000000000000000     00000000                                                                                                                        000000000000000000
F0010000006668300003000090024619400042505000000000000000000201412230002001COMERCIALIZADORA SALMAR LTDA                      C000000000400000000000000000000000100010010000000000000000000000F0010000006668300320141223000101 00000000000000000000000000000000000000000000000000000000000000000000000000000000000000000000000000000000000000000N 00000000000NCONT   00    00000000000          00000000000000000000000000000000000000000000 000000000000000A000000000000000000000000000000000000000000000 000000000000000000000000000000000000000     00000000                                                                                                                        000000000000000000
F0010000006668300004000090024619400023658300000000000000000201412230002001COMERCIALIZADORA SALMAR LTDA                      C000000000007200000000000000000000100010010000000000000000000000F0010000006668300420141223000101 00000000000000000000000000000000000000000000000000000000000000000000000000000000000000000000000000000000000000000N 00000000000NCONT   00    00000000000          00000000000000000000000000000000000000000000 000000000000000A000000000000000000000000000000000000000000000 000000000000000000000000000000000000000     00000000                                                                                                                        000000000000000000
F0010000006668300005000090024619400013552100000000000000000201412230002001COMERCIALIZADORA SALMAR LTDA                      D000000000007200000000000000000000100010010000000000000000000000F0010000006668300520141223000101 00000000000000000000000000000000000000000000000000000000000000000000000000000000000000000000000000000000000000000N 00000000000NCONT   00    00000000000          00000000000000000000000000000000000000000000 000000000000000A000000000000000000000000000000000000000000000 000000000000000000000000000000000000000     00000000                                                                                                                        000000000000000000
F0010000006668400001000090024619400011050500000000000000000201412230002001COMERCIALIZADORA SALMAR LTDA                      D000000001300000000000000000000000100010010000000000000000000000F0010000006668400120141223000101 00000000000000000000000000000000000000000000000000000000000000000000000000000000000000000000000000000000000000000N 00000000000NCONT   00    00000000000          00000000000000000000000000000000000000000000 000000000000000A000000000000000000000000000000000000000000000 000000000000000000000000000000000000000     00000000                                                                                                                        000000000000000000
F0010000006668400002000090024619400041450500000000000000000201412230002001COMERCIALIZADORA SALMAR LTDA                      C000000000900000000000000000000000100010010000000000000000000000F0010000006668400220141223000101 00000000000000000000000000000000000000000000000000000000000000000000000000000000000000000000000000000000000000000N 00000000000NCONT   00    00000000000          00000000000000000000000000000000000000000000 000000000000000A000000000000000000000000000000000000000000000 000000000000000000000000000000000000000     00000000                                                                                                                        000000000000000000
F0010000006668400003000090024619400042505000000000000000000201412230002001COMERCIALIZADORA SALMAR LTDA                      C000000000400000000000000000000000100010010000000000000000000000F0010000006668400320141223000101 00000000000000000000000000000000000000000000000000000000000000000000000000000000000000000000000000000000000000000N 00000000000NCONT   00    00000000000          00000000000000000000000000000000000000000000 000000000000000A000000000000000000000000000000000000000000000 000000000000000000000000000000000000000     00000000                                                                                                                        000000000000000000
F0010000006668400004000090024619400023658300000000000000000201412230002001COMERCIALIZADORA SALMAR LTDA                      C000000000007200000000000000000000100010010000000000000000000000F0010000006668400420141223000101 00000000000000000000000000000000000000000000000000000000000000000000000000000000000000000000000000000000000000000N 00000000000NCONT   00    00000000000          00000000000000000000000000000000000000000000 000000000000000A000000000000000000000000000000000000000000000 000000000000000000000000000000000000000     00000000                                                                                                                        000000000000000000
F0010000006668400005000090024619400013552100000000000000000201412230002001COMERCIALIZADORA SALMAR LTDA                      D000000000007200000000000000000000100010010000000000000000000000F0010000006668400520141223000101 00000000000000000000000000000000000000000000000000000000000000000000000000000000000000000000000000000000000000000N 00000000000NCONT   00    00000000000          00000000000000000000000000000000000000000000 000000000000000A000000000000000000000000000000000000000000000 000000000000000000000000000000000000000     00000000                                                                                                                        000000000000000000
F0010000006668500001000000869238600011050500000000000000000201412230002001EDUARDO MERIÑO ALMANZA                           D000000003800000000000000000000000100010010000000000000000000000F0010000006668500120141223000101 00000000000000000000000000000000000000000000000000000000000000000000000000000000000000000000000000000000000000000N 00000000000NCONT   00    00000000000          00000000000000000000000000000000000000000000 000000000000000A000000000000000000000000000000000000000000000 000000000000000000000000000000000000000     00000000                                                                                                                        000000000000000000
F0010000006668500002000000869238600041450500000000000000000201412230002001EDUARDO MERIÑO ALMANZA                           C000000002400000000000000000000000100010010000000000000000000000F0010000006668500220141223000101 00000000000000000000000000000000000000000000000000000000000000000000000000000000000000000000000000000000000000000N 00000000000NCONT   00    00000000000          00000000000000000000000000000000000000000000 000000000000000A000000000000000000000000000000000000000000000 000000000000000000000000000000000000000     00000000                                                                                                                        000000000000000000
F0010000006668500003000000869238600042505000000000000000000201412230002001EDUARDO MERIÑO ALMANZA                           C000000001400000000000000000000000100010010000000000000000000000F0010000006668500320141223000101 00000000000000000000000000000000000000000000000000000000000000000000000000000000000000000000000000000000000000000N 00000000000NCONT   00    00000000000          00000000000000000000000000000000000000000000 000000000000000A000000000000000000000000000000000000000000000 000000000000000000000000000000000000000     00000000                                                                                                                        000000000000000000
F0010000006668500004000000869238600023658300000000000000000201412230002001EDUARDO MERIÑO ALMANZA                           C000000000019200000000000000000000100010010000000000000000000000F0010000006668500420141223000101 00000000000000000000000000000000000000000000000000000000000000000000000000000000000000000000000000000000000000000N 00000000000NCONT   00    00000000000          00000000000000000000000000000000000000000000 000000000000000A000000000000000000000000000000000000000000000 000000000000000000000000000000000000000     00000000                                                                                                                        000000000000000000
F0010000006668500005000000869238600013552100000000000000000201412230002001EDUARDO MERIÑO ALMANZA                           D000000000019200000000000000000000100010010000000000000000000000F0010000006668500520141223000101 00000000000000000000000000000000000000000000000000000000000000000000000000000000000000000000000000000000000000000N 00000000000NCONT   00    00000000000          00000000000000000000000000000000000000000000 000000000000000A000000000000000000000000000000000000000000000 000000000000000000000000000000000000000     00000000                                                                                                                        000000000000000000
F0010000006668600001000004175790100011050500000000000000000201412230002001ROSIRIS FERIA HOYOS  (COSM. SHILLER)              D000000000900000000000000000000000100010010000000000000000000000F0010000006668600120141223000101 00000000000000000000000000000000000000000000000000000000000000000000000000000000000000000000000000000000000000000N 00000000000NCONT   00    00000000000          00000000000000000000000000000000000000000000 000000000000000A000000000000000000000000000000000000000000000 000000000000000000000000000000000000000     00000000                                                                                                                        000000000000000000
F0010000006668600002000004175790100041450500000000000000000201412230002001ROSIRIS FERIA HOYOS  (COSM. SHILLER)              C000000000800000000000000000000000100010010000000000000000000000F0010000006668600220141223000101 00000000000000000000000000000000000000000000000000000000000000000000000000000000000000000000000000000000000000000N 00000000000NCONT   00    00000000000          00000000000000000000000000000000000000000000 000000000000000A000000000000000000000000000000000000000000000 000000000000000000000000000000000000000     00000000                                                                                                                        000000000000000000
F0010000006668600003000004175790100042505000000000000000000201412230002001ROSIRIS FERIA HOYOS  (COSM. SHILLER)              C000000000100000000000000000000000100010010000000000000000000000F0010000006668600320141223000101 00000000000000000000000000000000000000000000000000000000000000000000000000000000000000000000000000000000000000000N 00000000000NCONT   00    00000000000          00000000000000000000000000000000000000000000 000000000000000A000000000000000000000000000000000000000000000 000000000000000000000000000000000000000     00000000                                                                                                                        000000000000000000
F0010000006668600004000004175790100023658300000000000000000201412230002001ROSIRIS FERIA HOYOS  (COSM. SHILLER)              C000000000006400000000000000000000100010010000000000000000000000F0010000006668600420141223000101 00000000000000000000000000000000000000000000000000000000000000000000000000000000000000000000000000000000000000000N 00000000000NCONT   00    00000000000          00000000000000000000000000000000000000000000 000000000000000A000000000000000000000000000000000000000000000 000000000000000000000000000000000000000     00000000                                                                                                                        000000000000000000
F0010000006668600005000004175790100013552100000000000000000201412230002001ROSIRIS FERIA HOYOS  (COSM. SHILLER)              D000000000006400000000000000000000100010010000000000000000000000F0010000006668600520141223000101 00000000000000000000000000000000000000000000000000000000000000000000000000000000000000000000000000000000000000000N 00000000000NCONT   00    00000000000          00000000000000000000000000000000000000000000 000000000000000A000000000000000000000000000000000000000000000 000000000000000000000000000000000000000     00000000                                                                                                                        000000000000000000
F0010000006668700001000000869238600011050500000000000000000201412230002001EDUARDO MERIÑO ALMANZA                           D000000002200000000000000000000000100010010000000000000000000000F0010000006668700120141223000101 00000000000000000000000000000000000000000000000000000000000000000000000000000000000000000000000000000000000000000N 00000000000NCONT   00    00000000000          00000000000000000000000000000000000000000000 000000000000000A000000000000000000000000000000000000000000000 000000000000000000000000000000000000000     00000000                                                                                                                        000000000000000000
F0010000006668700002000000869238600041450500000000000000000201412230002001EDUARDO MERIÑO ALMANZA                           C000000001200000000000000000000000100010010000000000000000000000F0010000006668700220141223000101 00000000000000000000000000000000000000000000000000000000000000000000000000000000000000000000000000000000000000000N 00000000000NCONT   00    00000000000          00000000000000000000000000000000000000000000 000000000000000A000000000000000000000000000000000000000000000 000000000000000000000000000000000000000     00000000                                                                                                                        000000000000000000
F0010000006668700003000000869238600042505000000000000000000201412230002001EDUARDO MERIÑO ALMANZA                           C000000001000000000000000000000000100010010000000000000000000000F0010000006668700320141223000101 00000000000000000000000000000000000000000000000000000000000000000000000000000000000000000000000000000000000000000N 00000000000NCONT   00    00000000000          00000000000000000000000000000000000000000000 000000000000000A000000000000000000000000000000000000000000000 000000000000000000000000000000000000000     00000000                                                                                                                        000000000000000000
F0010000006668700004000000869238600023658300000000000000000201412230002001EDUARDO MERIÑO ALMANZA                           C000000000009600000000000000000000100010010000000000000000000000F0010000006668700420141223000101 00000000000000000000000000000000000000000000000000000000000000000000000000000000000000000000000000000000000000000N 00000000000NCONT   00    00000000000          00000000000000000000000000000000000000000000 000000000000000A000000000000000000000000000000000000000000000 000000000000000000000000000000000000000     00000000                                                                                                                        000000000000000000
F0010000006668700005000000869238600013552100000000000000000201412230002001EDUARDO MERIÑO ALMANZA                           D000000000009600000000000000000000100010010000000000000000000000F0010000006668700520141223000101 00000000000000000000000000000000000000000000000000000000000000000000000000000000000000000000000000000000000000000N 00000000000NCONT   00    00000000000          00000000000000000000000000000000000000000000 000000000000000A000000000000000000000000000000000000000000000 000000000000000000000000000000000000000     00000000                                                                                                                        000000000000000000
F0010000006668800001000007200023300011050500000000000000000201412230002001WILLIAM ORTEGA                                    D000000001500000000000000000000000100010010000000000000000000000F0010000006668800120141223000101 00000000000000000000000000000000000000000000000000000000000000000000000000000000000000000000000000000000000000000N 00000000000NCONT   00    00000000000          00000000000000000000000000000000000000000000 000000000000000A000000000000000000000000000000000000000000000 000000000000000000000000000000000000000     00000000                                                                                                                        000000000000000000
F0010000006668800002000007200023300041450500000000000000000201412230002001WILLIAM ORTEGA                                    C000000001300000000000000000000000100010010000000000000000000000F0010000006668800220141223000101 00000000000000000000000000000000000000000000000000000000000000000000000000000000000000000000000000000000000000000N 00000000000NCONT   00    00000000000          00000000000000000000000000000000000000000000 000000000000000A000000000000000000000000000000000000000000000 000000000000000000000000000000000000000     00000000                                                                                                                        000000000000000000
F0010000006668800003000007200023300042505000000000000000000201412230002001WILLIAM ORTEGA                                    C000000000200000000000000000000000100010010000000000000000000000F0010000006668800320141223000101 00000000000000000000000000000000000000000000000000000000000000000000000000000000000000000000000000000000000000000N 00000000000NCONT   00    00000000000          00000000000000000000000000000000000000000000 000000000000000A000000000000000000000000000000000000000000000 000000000000000000000000000000000000000     00000000                                                                                                                        000000000000000000
F0010000006668800004000007200023300023658300000000000000000201412230002001WILLIAM ORTEGA                                    C000000000010400000000000000000000100010010000000000000000000000F0010000006668800420141223000101 00000000000000000000000000000000000000000000000000000000000000000000000000000000000000000000000000000000000000000N 00000000000NCONT   00    00000000000          00000000000000000000000000000000000000000000 000000000000000A000000000000000000000000000000000000000000000 000000000000000000000000000000000000000     00000000                                                                                                                        000000000000000000
F0010000006668800005000007200023300013552100000000000000000201412230002001WILLIAM ORTEGA                                    D000000000010400000000000000000000100010010000000000000000000000F0010000006668800520141223000101 00000000000000000000000000000000000000000000000000000000000000000000000000000000000000000000000000000000000000000N 00000000000NCONT   00    00000000000          00000000000000000000000000000000000000000000 000000000000000A000000000000000000000000000000000000000000000 000000000000000000000000000000000000000     00000000                                                                                                                        000000000000000000
F0010000006668900001000001719393900011050500000000000000000201412230002001JAIRO BASTIDAS RAMIREZ                            D000000002800000000000000000000000100010010000000000000000000000F0010000006668900120141223000101 00000000000000000000000000000000000000000000000000000000000000000000000000000000000000000000000000000000000000000N 00000000000NCONT   00    00000000000          00000000000000000000000000000000000000000000 000000000000000A000000000000000000000000000000000000000000000 000000000000000000000000000000000000000     00000000                                                                                                                        000000000000000000
F0010000006668900002000001719393900041450500000000000000000201412230002001JAIRO BASTIDAS RAMIREZ                            C000000002400000000000000000000000100010010000000000000000000000F0010000006668900220141223000101 00000000000000000000000000000000000000000000000000000000000000000000000000000000000000000000000000000000000000000N 00000000000NCONT   00    00000000000          00000000000000000000000000000000000000000000 000000000000000A000000000000000000000000000000000000000000000 000000000000000000000000000000000000000     00000000                                                                                                                        000000000000000000
