F0010000009170800001000000908086400011050500000000000000000201609230002001JOSE DEL CRISTO SANES FERNANDEZ                   D000000004824000000000000000000000100010010000000000000000000000F0010000009170800120160923000101 00000000000000000000000000000000000000000000000000000000000000000000000000000000000000000000000000000000000000000N 00000000000NCONT   00    00000000000          00000000000000000000000000000000000000000000 000000000000000A000000000000000000000000000000000000000000000 000000000000000000000000000000000000000     00000000                                                                                                                        000000000000000000
F0010000009170800002000000908086400041450500000000000000000201609230002001JOSE DEL CRISTO SANES FERNANDEZ                   C000000004200000000000000000000000100010010000000000000000000000F0010000009170800220160923000101 00000000000000000000000000000000000000000000000000000000000000000000000000000000000000000000000000000000000000000N 00000000000NCONT   00    00000000000          00000000000000000000000000000000000000000000 000000000000000A000000000000000000000000000000000000000000000 000000000000000000000000000000000000000     00000000                                                                                                                        000000000000000000
F0010000009170800003000000908086400042505000000000000000000201609230002001JOSE DEL CRISTO SANES FERNANDEZ                   C000000000624000000000000000000000100010010000000000000000000000F0010000009170800320160923000101 00000000000000000000000000000000000000000000000000000000000000000000000000000000000000000000000000000000000000000N 00000000000NCONT   00    00000000000          00000000000000000000000000000000000000000000 000000000000000A000000000000000000000000000000000000000000000 000000000000000000000000000000000000000     00000000                                                                                                                        000000000000000000
F0010000009170800004000000908086400023658300000000000000000201609230002001JOSE DEL CRISTO SANES FERNANDEZ                   C000000000033600000000000000000000100010010000000000000000000000F0010000009170800420160923000101 00000000000000000000000000000000000000000000000000000000000000000000000000000000000000000000000000000000000000000N 00000000000NCONT   00    00000000000          00000000000000000000000000000000000000000000 000000000000000A000000000000000000000000000000000000000000000 000000000000000000000000000000000000000     00000000                                                                                                                        000000000000000000
F0010000009170800005000000908086400013552100000000000000000201609230002001JOSE DEL CRISTO SANES FERNANDEZ                   D000000000033600000000000000000000100010010000000000000000000000F0010000009170800520160923000101 00000000000000000000000000000000000000000000000000000000000000000000000000000000000000000000000000000000000000000N 00000000000NCONT   00    00000000000          00000000000000000000000000000000000000000000 000000000000000A000000000000000000000000000000000000000000000 000000000000000000000000000000000000000     00000000                                                                                                                        000000000000000000
F0010000009170900001000090049854300013050500000000000000000201609230002001TRAPOS INDUSTRIALES DE COLOMBIA SAS               D000000011268800000000000000000000100010010000000000000000000000F0010000009170900120160923000101 00000000000000000000000000000000000000000000000000000000000000000000000000000000000000000000000000000000000000000N 00000000000NCONT   00    00000000000          00000000000000000000000000000000000000000000 000000000000000A000000000000000000000000000000000000000000000 000000000000000000000000000000000000000     00000000                                                                                                                        000000000000000000
F0010000009170900002000090049854300041450500000000000000000201609230002001TRAPOS INDUSTRIALES DE COLOMBIA SAS               C000000010200000000000000000000000100010010000000000000000000000F0010000009170900220160923000101 00000000000000000000000000000000000000000000000000000000000000000000000000000000000000000000000000000000000000000N 00000000000NCONT   00    00000000000          00000000000000000000000000000000000000000000 000000000000000A000000000000000000000000000000000000000000000 000000000000000000000000000000000000000     00000000                                                                                                                        000000000000000000
F0010000009170900003000090049854300042505000000000000000000201609230002001TRAPOS INDUSTRIALES DE COLOMBIA SAS               C000000001068800000000000000000000100010010000000000000000000000F0010000009170900320160923000101 00000000000000000000000000000000000000000000000000000000000000000000000000000000000000000000000000000000000000000N 00000000000NCONT   00    00000000000          00000000000000000000000000000000000000000000 000000000000000A000000000000000000000000000000000000000000000 000000000000000000000000000000000000000     00000000                                                                                                                        000000000000000000
F0010000009170900004000090049854300023658300000000000000000201609230002001TRAPOS INDUSTRIALES DE COLOMBIA SAS               C000000000081600000000000000000000100010010000000000000000000000F0010000009170900420160923000101 00000000000000000000000000000000000000000000000000000000000000000000000000000000000000000000000000000000000000000N 00000000000NCONT   00    00000000000          00000000000000000000000000000000000000000000 000000000000000A000000000000000000000000000000000000000000000 000000000000000000000000000000000000000     00000000                                                                                                                        000000000000000000
F0010000009170900005000090049854300013552100000000000000000201609230002001TRAPOS INDUSTRIALES DE COLOMBIA SAS               D000000000081600000000000000000000100010010000000000000000000000F0010000009170900520160923000101 00000000000000000000000000000000000000000000000000000000000000000000000000000000000000000000000000000000000000000N 00000000000NCONT   00    00000000000          00000000000000000000000000000000000000000000 000000000000000A000000000000000000000000000000000000000000000 000000000000000000000000000000000000000     00000000                                                                                                                        000000000000000000
F0010000009171000001000083010094900011050500000000000000000201609230002001TRANSQUINTERO LTDA                                D000000002000000000000000000000000100010010000000000000000000000F0010000009171000120160923000101 00000000000000000000000000000000000000000000000000000000000000000000000000000000000000000000000000000000000000000N 00000000000NCONT   00    00000000000          00000000000000000000000000000000000000000000 000000000000000A000000000000000000000000000000000000000000000 000000000000000000000000000000000000000     00000000                                                                                                                        000000000000000000
F0010000009171000002000083010094900041450500000000000000000201609230002001TRANSQUINTERO LTDA                                C000000001200000000000000000000000100010010000000000000000000000F0010000009171000220160923000101 00000000000000000000000000000000000000000000000000000000000000000000000000000000000000000000000000000000000000000N 00000000000NCONT   00    00000000000          00000000000000000000000000000000000000000000 000000000000000A000000000000000000000000000000000000000000000 000000000000000000000000000000000000000     00000000                                                                                                                        000000000000000000
F0010000009171000003000083010094900042505000000000000000000201609230002001TRANSQUINTERO LTDA                                C000000000800000000000000000000000100010010000000000000000000000F0010000009171000320160923000101 00000000000000000000000000000000000000000000000000000000000000000000000000000000000000000000000000000000000000000N 00000000000NCONT   00    00000000000          00000000000000000000000000000000000000000000 000000000000000A000000000000000000000000000000000000000000000 000000000000000000000000000000000000000     00000000                                                                                                                        000000000000000000
F0010000009171000004000083010094900023658300000000000000000201609230002001TRANSQUINTERO LTDA                                C000000000009600000000000000000000100010010000000000000000000000F0010000009171000420160923000101 00000000000000000000000000000000000000000000000000000000000000000000000000000000000000000000000000000000000000000N 00000000000NCONT   00    00000000000          00000000000000000000000000000000000000000000 000000000000000A000000000000000000000000000000000000000000000 000000000000000000000000000000000000000     00000000                                                                                                                        000000000000000000
F0010000009171000005000083010094900013552100000000000000000201609230002001TRANSQUINTERO LTDA                                D000000000009600000000000000000000100010010000000000000000000000F0010000009171000520160923000101 00000000000000000000000000000000000000000000000000000000000000000000000000000000000000000000000000000000000000000N 00000000000NCONT   00    00000000000          00000000000000000000000000000000000000000000 000000000000000A000000000000000000000000000000000000000000000 000000000000000000000000000000000000000     00000000                                                                                                                        000000000000000000
F0010000009171100001000008410378900011050500000000000000000201609230002001ANDRES TORRES FRAGOZO                             D000000006000000000000000000000000100010010000000000000000000000F0010000009171100120160923000101 00000000000000000000000000000000000000000000000000000000000000000000000000000000000000000000000000000000000000000N 00000000000NCONT   00    00000000000          00000000000000000000000000000000000000000000 000000000000000A000000000000000000000000000000000000000000000 000000000000000000000000000000000000000     00000000                                                                                                                        000000000000000000
F0010000009171100002000008410378900041450500000000000000000201609230002001ANDRES TORRES FRAGOZO                             C000000005500000000000000000000000100010010000000000000000000000F0010000009171100220160923000101 00000000000000000000000000000000000000000000000000000000000000000000000000000000000000000000000000000000000000000N 00000000000NCONT   00    00000000000          00000000000000000000000000000000000000000000 000000000000000A000000000000000000000000000000000000000000000 000000000000000000000000000000000000000     00000000                                                                                                                        000000000000000000
F0010000009171100003000008410378900042505000000000000000000201609230002001ANDRES TORRES FRAGOZO                             C000000000500000000000000000000000100010010000000000000000000000F0010000009171100320160923000101 00000000000000000000000000000000000000000000000000000000000000000000000000000000000000000000000000000000000000000N 00000000000NCONT   00    00000000000          00000000000000000000000000000000000000000000 000000000000000A000000000000000000000000000000000000000000000 000000000000000000000000000000000000000     00000000                                                                                                                        000000000000000000
F0010000009171100004000008410378900023658300000000000000000201609230002001ANDRES TORRES FRAGOZO                             C000000000044000000000000000000000100010010000000000000000000000F0010000009171100420160923000101 00000000000000000000000000000000000000000000000000000000000000000000000000000000000000000000000000000000000000000N 00000000000NCONT   00    00000000000          00000000000000000000000000000000000000000000 000000000000000A000000000000000000000000000000000000000000000 000000000000000000000000000000000000000     00000000                                                                                                                        000000000000000000
F0010000009171100005000008410378900013552100000000000000000201609230002001ANDRES TORRES FRAGOZO                             D000000000044000000000000000000000100010010000000000000000000000F0010000009171100520160923000101 00000000000000000000000000000000000000000000000000000000000000000000000000000000000000000000000000000000000000000N 00000000000NCONT   00    00000000000          00000000000000000000000000000000000000000000 000000000000000A000000000000000000000000000000000000000000000 000000000000000000000000000000000000000     00000000                                                                                                                        000000000000000000
F0010000009171200001000000873968200011050500000000000000000201609230002001HUGO ZULUAGA BORGE                                D000000004000000000000000000000000100010010000000000000000000000F0010000009171200120160923000101 00000000000000000000000000000000000000000000000000000000000000000000000000000000000000000000000000000000000000000N 00000000000NCONT   00    00000000000          00000000000000000000000000000000000000000000 000000000000000A000000000000000000000000000000000000000000000 000000000000000000000000000000000000000     00000000                                                                                                                        000000000000000000
F0010000009171200002000000873968200041450500000000000000000201609230002001HUGO ZULUAGA BORGE                                C000000003000000000000000000000000100010010000000000000000000000F0010000009171200220160923000101 00000000000000000000000000000000000000000000000000000000000000000000000000000000000000000000000000000000000000000N 00000000000NCONT   00    00000000000          00000000000000000000000000000000000000000000 000000000000000A000000000000000000000000000000000000000000000 000000000000000000000000000000000000000     00000000                                                                                                                        000000000000000000
F0010000009171200003000000873968200042505000000000000000000201609230002001HUGO ZULUAGA BORGE                                C000000001000000000000000000000000100010010000000000000000000000F0010000009171200320160923000101 00000000000000000000000000000000000000000000000000000000000000000000000000000000000000000000000000000000000000000N 00000000000NCONT   00    00000000000          00000000000000000000000000000000000000000000 000000000000000A000000000000000000000000000000000000000000000 000000000000000000000000000000000000000     00000000                                                                                                                        000000000000000000
F0010000009171200004000000873968200023658300000000000000000201609230002001HUGO ZULUAGA BORGE                                C000000000024000000000000000000000100010010000000000000000000000F0010000009171200420160923000101 00000000000000000000000000000000000000000000000000000000000000000000000000000000000000000000000000000000000000000N 00000000000NCONT   00    00000000000          00000000000000000000000000000000000000000000 000000000000000A000000000000000000000000000000000000000000000 000000000000000000000000000000000000000     00000000                                                                                                                        000000000000000000
F0010000009171200005000000873968200013552100000000000000000201609230002001HUGO ZULUAGA BORGE                                D000000000024000000000000000000000100010010000000000000000000000F0010000009171200520160923000101 00000000000000000000000000000000000000000000000000000000000000000000000000000000000000000000000000000000000000000N 00000000000NCONT   00    00000000000          00000000000000000000000000000000000000000000 000000000000000A000000000000000000000000000000000000000000000 000000000000000000000000000000000000000     00000000                                                                                                                        000000000000000000
F0010000009171300001000080201411900011050500000000000000000201609230002001PLASTISERVICIOS S DE H                            D000000001200000000000000000000000100010010000000000000000000000F0010000009171300120160923000101 00000000000000000000000000000000000000000000000000000000000000000000000000000000000000000000000000000000000000000N 00000000000NCONT   00    00000000000          00000000000000000000000000000000000000000000 000000000000000A000000000000000000000000000000000000000000000 000000000000000000000000000000000000000     00000000                                                                                                                        000000000000000000
F0010000009171300002000080201411900041450500000000000000000201609230002001PLASTISERVICIOS S DE H                            C000000001000000000000000000000000100010010000000000000000000000F0010000009171300220160923000101 00000000000000000000000000000000000000000000000000000000000000000000000000000000000000000000000000000000000000000N 00000000000NCONT   00    00000000000          00000000000000000000000000000000000000000000 000000000000000A000000000000000000000000000000000000000000000 000000000000000000000000000000000000000     00000000                                                                                                                        000000000000000000
F0010000009171300003000080201411900042505000000000000000000201609230002001PLASTISERVICIOS S DE H                            C000000000200000000000000000000000100010010000000000000000000000F0010000009171300320160923000101 00000000000000000000000000000000000000000000000000000000000000000000000000000000000000000000000000000000000000000N 00000000000NCONT   00    00000000000          00000000000000000000000000000000000000000000 000000000000000A000000000000000000000000000000000000000000000 000000000000000000000000000000000000000     00000000                                                                                                                        000000000000000000
F0010000009171300004000080201411900023658300000000000000000201609230002001PLASTISERVICIOS S DE H                            C000000000008000000000000000000000100010010000000000000000000000F0010000009171300420160923000101 00000000000000000000000000000000000000000000000000000000000000000000000000000000000000000000000000000000000000000N 00000000000NCONT   00    00000000000          00000000000000000000000000000000000000000000 000000000000000A000000000000000000000000000000000000000000000 000000000000000000000000000000000000000     00000000                                                                                                                        000000000000000000
F0010000009171300005000080201411900013552100000000000000000201609230002001PLASTISERVICIOS S DE H                            D000000000008000000000000000000000100010010000000000000000000000F0010000009171300520160923000101 00000000000000000000000000000000000000000000000000000000000000000000000000000000000000000000000000000000000000000N 00000000000NCONT   00    00000000000          00000000000000000000000000000000000000000000 000000000000000A000000000000000000000000000000000000000000000 000000000000000000000000000000000000000     00000000                                                                                                                        000000000000000000
F0010000009171400001000080201411900011050500000000000000000201609230002001PLASTISERVICIOS S DE H                            D000000007100000000000000000000000100010010000000000000000000000F0010000009171400120160923000101 00000000000000000000000000000000000000000000000000000000000000000000000000000000000000000000000000000000000000000N 00000000000NCONT   00    00000000000          00000000000000000000000000000000000000000000 000000000000000A000000000000000000000000000000000000000000000 000000000000000000000000000000000000000     00000000                                                                                                                        000000000000000000
F0010000009171400002000080201411900041450500000000000000000201609230002001PLASTISERVICIOS S DE H                            C000000006000000000000000000000000100010010000000000000000000000F0010000009171400220160923000101 00000000000000000000000000000000000000000000000000000000000000000000000000000000000000000000000000000000000000000N 00000000000NCONT   00    00000000000          00000000000000000000000000000000000000000000 000000000000000A000000000000000000000000000000000000000000000 000000000000000000000000000000000000000     00000000                                                                                                                        000000000000000000
F0010000009171400003000080201411900042505000000000000000000201609230002001PLASTISERVICIOS S DE H                            C000000001100000000000000000000000100010010000000000000000000000F0010000009171400320160923000101 00000000000000000000000000000000000000000000000000000000000000000000000000000000000000000000000000000000000000000N 00000000000NCONT   00    00000000000          00000000000000000000000000000000000000000000 000000000000000A000000000000000000000000000000000000000000000 000000000000000000000000000000000000000     00000000                                                                                                                        000000000000000000
F0010000009171400004000080201411900023658300000000000000000201609230002001PLASTISERVICIOS S DE H                            C000000000048000000000000000000000100010010000000000000000000000F0010000009171400420160923000101 00000000000000000000000000000000000000000000000000000000000000000000000000000000000000000000000000000000000000000N 00000000000NCONT   00    00000000000          00000000000000000000000000000000000000000000 000000000000000A000000000000000000000000000000000000000000000 000000000000000000000000000000000000000     00000000                                                                                                                        000000000000000000
F0010000009171400005000080201411900013552100000000000000000201609230002001PLASTISERVICIOS S DE H                            D000000000048000000000000000000000100010010000000000000000000000F0010000009171400520160923000101 00000000000000000000000000000000000000000000000000000000000000000000000000000000000000000000000000000000000000000N 00000000000NCONT   00    00000000000          00000000000000000000000000000000000000000000 000000000000000A000000000000000000000000000000000000000000000 000000000000000000000000000000000000000     00000000                                                                                                                        000000000000000000
F0010000009171500001000090097869600011050500000000000000000201609230002001DEKATON S.A.S.                                    D000000001300000000000000000000000100010010000000000000000000000F0010000009171500120160923000101 00000000000000000000000000000000000000000000000000000000000000000000000000000000000000000000000000000000000000000N 00000000000NCONT   00    00000000000          00000000000000000000000000000000000000000000 000000000000000A000000000000000000000000000000000000000000000 000000000000000000000000000000000000000     00000000                                                                                                                        000000000000000000
F0010000009171500002000090097869600041450500000000000000000201609230002001DEKATON S.A.S.                                    C000000001200000000000000000000000100010010000000000000000000000F0010000009171500220160923000101 00000000000000000000000000000000000000000000000000000000000000000000000000000000000000000000000000000000000000000N 00000000000NCONT   00    00000000000          00000000000000000000000000000000000000000000 000000000000000A000000000000000000000000000000000000000000000 000000000000000000000000000000000000000     00000000                                                                                                                        000000000000000000
F0010000009171500003000090097869600042505000000000000000000201609230002001DEKATON S.A.S.                                    C000000000100000000000000000000000100010010000000000000000000000F0010000009171500320160923000101 00000000000000000000000000000000000000000000000000000000000000000000000000000000000000000000000000000000000000000N 00000000000NCONT   00    00000000000          00000000000000000000000000000000000000000000 000000000000000A000000000000000000000000000000000000000000000 000000000000000000000000000000000000000     00000000                                                                                                                        000000000000000000
F0010000009171500004000090097869600023658300000000000000000201609230002001DEKATON S.A.S.                                    C000000000009600000000000000000000100010010000000000000000000000F0010000009171500420160923000101 00000000000000000000000000000000000000000000000000000000000000000000000000000000000000000000000000000000000000000N 00000000000NCONT   00    00000000000          00000000000000000000000000000000000000000000 000000000000000A000000000000000000000000000000000000000000000 000000000000000000000000000000000000000     00000000                                                                                                                        000000000000000000
F0010000009171500005000090097869600013552100000000000000000201609230002001DEKATON S.A.S.                                    D000000000009600000000000000000000100010010000000000000000000000F0010000009171500520160923000101 00000000000000000000000000000000000000000000000000000000000000000000000000000000000000000000000000000000000000000N 00000000000NCONT   00    00000000000          00000000000000000000000000000000000000000000 000000000000000A000000000000000000000000000000000000000000000 000000000000000000000000000000000000000     00000000                                                                                                                        000000000000000000
F0010000009171600001000000979721900011050500000000000000000201609230002001DOUGLAS CIRUIS .                                  D000000055000000000000000000000000100010010000000000000000000000F0010000009171600120160923000101 00000000000000000000000000000000000000000000000000000000000000000000000000000000000000000000000000000000000000000N 00000000000NCONT   00    00000000000          00000000000000000000000000000000000000000000 000000000000000A000000000000000000000000000000000000000000000 000000000000000000000000000000000000000     00000000                                                                                                                        000000000000000000
F0010000009171600002000000979721900041450500000000000000000201609230002001DOUGLAS CIRUIS .                                  C000000045000000000000000000000000100010010000000000000000000000F0010000009171600220160923000101 00000000000000000000000000000000000000000000000000000000000000000000000000000000000000000000000000000000000000000N 00000000000NCONT   00    00000000000          00000000000000000000000000000000000000000000 000000000000000A000000000000000000000000000000000000000000000 000000000000000000000000000000000000000     00000000                                                                                                                        000000000000000000
F0010000009171600003000000979721900042505000000000000000000201609230002001DOUGLAS CIRUIS .                                  C000000010000000000000000000000000100010010000000000000000000000F0010000009171600320160923000101 00000000000000000000000000000000000000000000000000000000000000000000000000000000000000000000000000000000000000000N 00000000000NCONT   00    00000000000          00000000000000000000000000000000000000000000 000000000000000A000000000000000000000000000000000000000000000 000000000000000000000000000000000000000     00000000                                                                                                                        000000000000000000
F0010000009171600004000000979721900023658300000000000000000201609230002001DOUGLAS CIRUIS .                                  C000000000360000000000000000000000100010010000000000000000000000F0010000009171600420160923000101 00000000000000000000000000000000000000000000000000000000000000000000000000000000000000000000000000000000000000000N 00000000000NCONT   00    00000000000          00000000000000000000000000000000000000000000 000000000000000A000000000000000000000000000000000000000000000 000000000000000000000000000000000000000     00000000                                                                                                                        000000000000000000
F0010000009171600005000000979721900013552100000000000000000201609230002001DOUGLAS CIRUIS .                                  D000000000360000000000000000000000100010010000000000000000000000F0010000009171600520160923000101 00000000000000000000000000000000000000000000000000000000000000000000000000000000000000000000000000000000000000000N 00000000000NCONT   00    00000000000          00000000000000000000000000000000000000000000 000000000000000A000000000000000000000000000000000000000000000 000000000000000000000000000000000000000     00000000                                                                                                                        000000000000000000
F0010000009171700001000007213133300011050500000000000000000201609230002001ALVARO ALBERTO FANDIÑO GOMEZ                     D000000001100000000000000000000000100010010000000000000000000000F0010000009171700120160923000101 00000000000000000000000000000000000000000000000000000000000000000000000000000000000000000000000000000000000000000N 00000000000NCONT   00    00000000000          00000000000000000000000000000000000000000000 000000000000000A000000000000000000000000000000000000000000000 000000000000000000000000000000000000000     00000000                                                                                                                        000000000000000000
F0010000009171700002000007213133300041450500000000000000000201609230002001ALVARO ALBERTO FANDIÑO GOMEZ                     C000000001000000000000000000000000100010010000000000000000000000F0010000009171700220160923000101 00000000000000000000000000000000000000000000000000000000000000000000000000000000000000000000000000000000000000000N 00000000000NCONT   00    00000000000          00000000000000000000000000000000000000000000 000000000000000A000000000000000000000000000000000000000000000 000000000000000000000000000000000000000     00000000                                                                                                                        000000000000000000
F0010000009171700003000007213133300042505000000000000000000201609230002001ALVARO ALBERTO FANDIÑO GOMEZ                     C000000000100000000000000000000000100010010000000000000000000000F0010000009171700320160923000101 00000000000000000000000000000000000000000000000000000000000000000000000000000000000000000000000000000000000000000N 00000000000NCONT   00    00000000000          00000000000000000000000000000000000000000000 000000000000000A000000000000000000000000000000000000000000000 000000000000000000000000000000000000000     00000000                                                                                                                        000000000000000000
F0010000009171700004000007213133300023658300000000000000000201609230002001ALVARO ALBERTO FANDIÑO GOMEZ                     C000000000008000000000000000000000100010010000000000000000000000F0010000009171700420160923000101 00000000000000000000000000000000000000000000000000000000000000000000000000000000000000000000000000000000000000000N 00000000000NCONT   00    00000000000          00000000000000000000000000000000000000000000 000000000000000A000000000000000000000000000000000000000000000 000000000000000000000000000000000000000     00000000                                                                                                                        000000000000000000
F0010000009171700005000007213133300013552100000000000000000201609230002001ALVARO ALBERTO FANDIÑO GOMEZ                     D000000000008000000000000000000000100010010000000000000000000000F0010000009171700520160923000101 00000000000000000000000000000000000000000000000000000000000000000000000000000000000000000000000000000000000000000N 00000000000NCONT   00    00000000000          00000000000000000000000000000000000000000000 000000000000000A000000000000000000000000000000000000000000000 000000000000000000000000000000000000000     00000000                                                                                                                        000000000000000000
F0010000009171800001000105182976700011050500000000000000000201609230002001ALBERTO LUIS GARCIA ROJAS                         D000000001100000000000000000000000100010010000000000000000000000F0010000009171800120160923000101 00000000000000000000000000000000000000000000000000000000000000000000000000000000000000000000000000000000000000000N 00000000000NCONT   00    00000000000          00000000000000000000000000000000000000000000 000000000000000A000000000000000000000000000000000000000000000 000000000000000000000000000000000000000     00000000                                                                                                                        000000000000000000
F0010000009171800002000105182976700041450500000000000000000201609230002001ALBERTO LUIS GARCIA ROJAS                         C000000001000000000000000000000000100010010000000000000000000000F0010000009171800220160923000101 00000000000000000000000000000000000000000000000000000000000000000000000000000000000000000000000000000000000000000N 00000000000NCONT   00    00000000000          00000000000000000000000000000000000000000000 000000000000000A000000000000000000000000000000000000000000000 000000000000000000000000000000000000000     00000000                                                                                                                        000000000000000000
F0010000009171800003000105182976700042505000000000000000000201609230002001ALBERTO LUIS GARCIA ROJAS                         C000000000100000000000000000000000100010010000000000000000000000F0010000009171800320160923000101 00000000000000000000000000000000000000000000000000000000000000000000000000000000000000000000000000000000000000000N 00000000000NCONT   00    00000000000          00000000000000000000000000000000000000000000 000000000000000A000000000000000000000000000000000000000000000 000000000000000000000000000000000000000     00000000                                                                                                                        000000000000000000
F0010000009171800004000105182976700023658300000000000000000201609230002001ALBERTO LUIS GARCIA ROJAS                         C000000000008000000000000000000000100010010000000000000000000000F0010000009171800420160923000101 00000000000000000000000000000000000000000000000000000000000000000000000000000000000000000000000000000000000000000N 00000000000NCONT   00    00000000000          00000000000000000000000000000000000000000000 000000000000000A000000000000000000000000000000000000000000000 000000000000000000000000000000000000000     00000000                                                                                                                        000000000000000000
F0010000009171800005000105182976700013552100000000000000000201609230002001ALBERTO LUIS GARCIA ROJAS                         D000000000008000000000000000000000100010010000000000000000000000F0010000009171800520160923000101 00000000000000000000000000000000000000000000000000000000000000000000000000000000000000000000000000000000000000000N 00000000000NCONT   00    00000000000          00000000000000000000000000000000000000000000 000000000000000A000000000000000000000000000000000000000000000 000000000000000000000000000000000000000     00000000                                                                                                                        000000000000000000
F0010000009171900001000105182976700011050500000000000000000201609230002001ALBERTO LUIS GARCIA ROJAS                         D000000001100000000000000000000000100010010000000000000000000000F0010000009171900120160923000101 00000000000000000000000000000000000000000000000000000000000000000000000000000000000000000000000000000000000000000N 00000000000NCONT   00    00000000000          00000000000000000000000000000000000000000000 000000000000000A000000000000000000000000000000000000000000000 000000000000000000000000000000000000000     00000000                                                                                                                        000000000000000000
F0010000009171900002000105182976700041450500000000000000000201609230002001ALBERTO LUIS GARCIA ROJAS                         C000000001000000000000000000000000100010010000000000000000000000F0010000009171900220160923000101 00000000000000000000000000000000000000000000000000000000000000000000000000000000000000000000000000000000000000000N 00000000000NCONT   00    00000000000          00000000000000000000000000000000000000000000 000000000000000A000000000000000000000000000000000000000000000 000000000000000000000000000000000000000     00000000                                                                                                                        000000000000000000
F0010000009171900003000105182976700042505000000000000000000201609230002001ALBERTO LUIS GARCIA ROJAS                         C000000000100000000000000000000000100010010000000000000000000000F0010000009171900320160923000101 00000000000000000000000000000000000000000000000000000000000000000000000000000000000000000000000000000000000000000N 00000000000NCONT   00    00000000000          00000000000000000000000000000000000000000000 000000000000000A000000000000000000000000000000000000000000000 000000000000000000000000000000000000000     00000000                                                                                                                        000000000000000000
F0010000009171900004000105182976700023658300000000000000000201609230002001ALBERTO LUIS GARCIA ROJAS                         C000000000008000000000000000000000100010010000000000000000000000F0010000009171900420160923000101 00000000000000000000000000000000000000000000000000000000000000000000000000000000000000000000000000000000000000000N 00000000000NCONT   00    00000000000          00000000000000000000000000000000000000000000 000000000000000A000000000000000000000000000000000000000000000 000000000000000000000000000000000000000     00000000                                                                                                                        000000000000000000
F0010000009171900005000105182976700013552100000000000000000201609230002001ALBERTO LUIS GARCIA ROJAS                         D000000000008000000000000000000000100010010000000000000000000000F0010000009171900520160923000101 00000000000000000000000000000000000000000000000000000000000000000000000000000000000000000000000000000000000000000N 00000000000NCONT   00    00000000000          00000000000000000000000000000000000000000000 000000000000000A000000000000000000000000000000000000000000000 000000000000000000000000000000000000000     00000000                                                                                                                        000000000000000000
F0010000009172000001000080014190300011050500000000000000000201609230002001QUIMINSA LTDA                                     D000000003360000000000000000000000100010010000000000000000000000F0010000009172000120160923000101 00000000000000000000000000000000000000000000000000000000000000000000000000000000000000000000000000000000000000000N 00000000000NCONT   00    00000000000          00000000000000000000000000000000000000000000 000000000000000A000000000000000000000000000000000000000000000 000000000000000000000000000000000000000     00000000                                                                                                                        000000000000000000
F0010000009172000002000080014190300041450500000000000000000201609230002001QUIMINSA LTDA                                     C000000002760000000000000000000000100010010000000000000000000000F0010000009172000220160923000101 00000000000000000000000000000000000000000000000000000000000000000000000000000000000000000000000000000000000000000N 00000000000NCONT   00    00000000000          00000000000000000000000000000000000000000000 000000000000000A000000000000000000000000000000000000000000000 000000000000000000000000000000000000000     00000000                                                                                                                        000000000000000000
F0010000009172000003000080014190300042505000000000000000000201609230002001QUIMINSA LTDA                                     C000000000600000000000000000000000100010010000000000000000000000F0010000009172000320160923000101 00000000000000000000000000000000000000000000000000000000000000000000000000000000000000000000000000000000000000000N 00000000000NCONT   00    00000000000          00000000000000000000000000000000000000000000 000000000000000A000000000000000000000000000000000000000000000 000000000000000000000000000000000000000     00000000                                                                                                                        000000000000000000
F0010000009172000004000080014190300023658300000000000000000201609230002001QUIMINSA LTDA                                     C000000000022100000000000000000000100010010000000000000000000000F0010000009172000420160923000101 00000000000000000000000000000000000000000000000000000000000000000000000000000000000000000000000000000000000000000N 00000000000NCONT   00    00000000000          00000000000000000000000000000000000000000000 000000000000000A000000000000000000000000000000000000000000000 000000000000000000000000000000000000000     00000000                                                                                                                        000000000000000000
F0010000009172000005000080014190300013552100000000000000000201609230002001QUIMINSA LTDA                                     D000000000022100000000000000000000100010010000000000000000000000F0010000009172000520160923000101 00000000000000000000000000000000000000000000000000000000000000000000000000000000000000000000000000000000000000000N 00000000000NCONT   00    00000000000          00000000000000000000000000000000000000000000 000000000000000A000000000000000000000000000000000000000000000 000000000000000000000000000000000000000     00000000                                                                                                                        000000000000000000
F0010000009172100001000090087617400011050500000000000000000201609230002001MASTERGLASS PREMIUM GROUP SAS                     D000000002000000000000000000000000100010010000000000000000000000F0010000009172100120160923000101 00000000000000000000000000000000000000000000000000000000000000000000000000000000000000000000000000000000000000000N 00000000000NCONT   00    00000000000          00000000000000000000000000000000000000000000 000000000000000A000000000000000000000000000000000000000000000 000000000000000000000000000000000000000     00000000                                                                                                                        000000000000000000
F0010000009172100002000090087617400041450500000000000000000201609230002001MASTERGLASS PREMIUM GROUP SAS                     C000000001600000000000000000000000100010010000000000000000000000F0010000009172100220160923000101 00000000000000000000000000000000000000000000000000000000000000000000000000000000000000000000000000000000000000000N 00000000000NCONT   00    00000000000          00000000000000000000000000000000000000000000 000000000000000A000000000000000000000000000000000000000000000 000000000000000000000000000000000000000     00000000                                                                                                                        000000000000000000
F0010000009172100003000090087617400042505000000000000000000201609230002001MASTERGLASS PREMIUM GROUP SAS                     C000000000400000000000000000000000100010010000000000000000000000F0010000009172100320160923000101 00000000000000000000000000000000000000000000000000000000000000000000000000000000000000000000000000000000000000000N 00000000000NCONT   00    00000000000          00000000000000000000000000000000000000000000 000000000000000A000000000000000000000000000000000000000000000 000000000000000000000000000000000000000     00000000                                                                                                                        000000000000000000
F0010000009172100004000090087617400023658300000000000000000201609230002001MASTERGLASS PREMIUM GROUP SAS                     C000000000012800000000000000000000100010010000000000000000000000F0010000009172100420160923000101 00000000000000000000000000000000000000000000000000000000000000000000000000000000000000000000000000000000000000000N 00000000000NCONT   00    00000000000          00000000000000000000000000000000000000000000 000000000000000A000000000000000000000000000000000000000000000 000000000000000000000000000000000000000     00000000                                                                                                                        000000000000000000
F0010000009172100005000090087617400013552100000000000000000201609230002001MASTERGLASS PREMIUM GROUP SAS                     D000000000012800000000000000000000100010010000000000000000000000F0010000009172100520160923000101 00000000000000000000000000000000000000000000000000000000000000000000000000000000000000000000000000000000000000000N 00000000000NCONT   00    00000000000          00000000000000000000000000000000000000000000 000000000000000A000000000000000000000000000000000000000000000 000000000000000000000000000000000000000     00000000                                                                                                                        000000000000000000
F0010000009172200001000083008772100011050500000000000000000201609230002001ILUMEC SAS                                        D000000001280000000000000000000000100010010000000000000000000000F0010000009172200120160923000101 00000000000000000000000000000000000000000000000000000000000000000000000000000000000000000000000000000000000000000N 00000000000NCONT   00    00000000000          00000000000000000000000000000000000000000000 000000000000000A000000000000000000000000000000000000000000000 000000000000000000000000000000000000000     00000000                                                                                                                        000000000000000000
F0010000009172200002000083008772100041450500000000000000000201609230002001ILUMEC SAS                                        C000000000880000000000000000000000100010010000000000000000000000F0010000009172200220160923000101 00000000000000000000000000000000000000000000000000000000000000000000000000000000000000000000000000000000000000000N 00000000000NCONT   00    00000000000          00000000000000000000000000000000000000000000 000000000000000A000000000000000000000000000000000000000000000 000000000000000000000000000000000000000     00000000                                                                                                                        000000000000000000
F0010000009172200003000083008772100042505000000000000000000201609230002001ILUMEC SAS                                        C000000000400000000000000000000000100010010000000000000000000000F0010000009172200320160923000101 00000000000000000000000000000000000000000000000000000000000000000000000000000000000000000000000000000000000000000N 00000000000NCONT   00    00000000000          00000000000000000000000000000000000000000000 000000000000000A000000000000000000000000000000000000000000000 000000000000000000000000000000000000000     00000000                                                                                                                        000000000000000000
F0010000009172200004000083008772100023658300000000000000000201609230002001ILUMEC SAS                                        C000000000007000000000000000000000100010010000000000000000000000F0010000009172200420160923000101 00000000000000000000000000000000000000000000000000000000000000000000000000000000000000000000000000000000000000000N 00000000000NCONT   00    00000000000          00000000000000000000000000000000000000000000 000000000000000A000000000000000000000000000000000000000000000 000000000000000000000000000000000000000     00000000                                                                                                                        000000000000000000
F0010000009172200005000083008772100013552100000000000000000201609230002001ILUMEC SAS                                        D000000000007000000000000000000000100010010000000000000000000000F0010000009172200520160923000101 00000000000000000000000000000000000000000000000000000000000000000000000000000000000000000000000000000000000000000N 00000000000NCONT   00    00000000000          00000000000000000000000000000000000000000000 000000000000000A000000000000000000000000000000000000000000000 000000000000000000000000000000000000000     00000000                                                                                                                        000000000000000000
F0010000009172300001000080012418800011050500000000000000000201609230002001DISTRITEC S.A.S                                   D000000012000000000000000000000000100010010000000000000000000000F0010000009172300120160923000101 00000000000000000000000000000000000000000000000000000000000000000000000000000000000000000000000000000000000000000N 00000000000NCONT   00    00000000000          00000000000000000000000000000000000000000000 000000000000000A000000000000000000000000000000000000000000000 000000000000000000000000000000000000000     00000000                                                                                                                        000000000000000000
F0010000009172300002000080012418800041450500000000000000000201609230002001DISTRITEC S.A.S                                   C000000011200000000000000000000000100010010000000000000000000000F0010000009172300220160923000101 00000000000000000000000000000000000000000000000000000000000000000000000000000000000000000000000000000000000000000N 00000000000NCONT   00    00000000000          00000000000000000000000000000000000000000000 000000000000000A000000000000000000000000000000000000000000000 000000000000000000000000000000000000000     00000000                                                                                                                        000000000000000000
F0010000009172300003000080012418800042505000000000000000000201609230002001DISTRITEC S.A.S                                   C000000000800000000000000000000000100010010000000000000000000000F0010000009172300320160923000101 00000000000000000000000000000000000000000000000000000000000000000000000000000000000000000000000000000000000000000N 00000000000NCONT   00    00000000000          00000000000000000000000000000000000000000000 000000000000000A000000000000000000000000000000000000000000000 000000000000000000000000000000000000000     00000000                                                                                                                        000000000000000000
F0010000009172300004000080012418800023658300000000000000000201609230002001DISTRITEC S.A.S                                   C000000000089600000000000000000000100010010000000000000000000000F0010000009172300420160923000101 00000000000000000000000000000000000000000000000000000000000000000000000000000000000000000000000000000000000000000N 00000000000NCONT   00    00000000000          00000000000000000000000000000000000000000000 000000000000000A000000000000000000000000000000000000000000000 000000000000000000000000000000000000000     00000000                                                                                                                        000000000000000000
F0010000009172300005000080012418800013552100000000000000000201609230002001DISTRITEC S.A.S                                   D000000000089600000000000000000000100010010000000000000000000000F0010000009172300520160923000101 00000000000000000000000000000000000000000000000000000000000000000000000000000000000000000000000000000000000000000N 00000000000NCONT   00    00000000000          00000000000000000000000000000000000000000000 000000000000000A000000000000000000000000000000000000000000000 000000000000000000000000000000000000000     00000000                                                                                                                        000000000000000000
F0010000009172400001000083008772100011050500000000000000000201609230002001ILUMEC SAS                                        D000000002110000000000000000000000100010010000000000000000000000F0010000009172400120160923000101 00000000000000000000000000000000000000000000000000000000000000000000000000000000000000000000000000000000000000000N 00000000000NCONT   00    00000000000          00000000000000000000000000000000000000000000 000000000000000A000000000000000000000000000000000000000000000 000000000000000000000000000000000000000     00000000                                                                                                                        000000000000000000
F0010000009172400002000083008772100041450500000000000000000201609230002001ILUMEC SAS                                        C000000001760000000000000000000000100010010000000000000000000000F0010000009172400220160923000101 00000000000000000000000000000000000000000000000000000000000000000000000000000000000000000000000000000000000000000N 00000000000NCONT   00    00000000000          00000000000000000000000000000000000000000000 000000000000000A000000000000000000000000000000000000000000000 000000000000000000000000000000000000000     00000000                                                                                                                        000000000000000000
F0010000009172400003000083008772100042505000000000000000000201609230002001ILUMEC SAS                                        C000000000350000000000000000000000100010010000000000000000000000F0010000009172400320160923000101 00000000000000000000000000000000000000000000000000000000000000000000000000000000000000000000000000000000000000000N 00000000000NCONT   00    00000000000          00000000000000000000000000000000000000000000 000000000000000A000000000000000000000000000000000000000000000 000000000000000000000000000000000000000     00000000                                                                                                                        000000000000000000
F0010000009172400004000083008772100023658300000000000000000201609230002001ILUMEC SAS                                        C000000000014100000000000000000000100010010000000000000000000000F0010000009172400420160923000101 00000000000000000000000000000000000000000000000000000000000000000000000000000000000000000000000000000000000000000N 00000000000NCONT   00    00000000000          00000000000000000000000000000000000000000000 000000000000000A000000000000000000000000000000000000000000000 000000000000000000000000000000000000000     00000000                                                                                                                        000000000000000000
F0010000009172400005000083008772100013552100000000000000000201609230002001ILUMEC SAS                                        D000000000014100000000000000000000100010010000000000000000000000F0010000009172400520160923000101 00000000000000000000000000000000000000000000000000000000000000000000000000000000000000000000000000000000000000000N 00000000000NCONT   00    00000000000          00000000000000000000000000000000000000000000 000000000000000A000000000000000000000000000000000000000000000 000000000000000000000000000000000000000     00000000                                                                                                                        000000000000000000
F0010000009172500001000090037350200011050500000000000000000201609230002001JIMAR C Y J LTDA                                  D000000001000000000000000000000000100010010000000000000000000000F0010000009172500120160923000101 00000000000000000000000000000000000000000000000000000000000000000000000000000000000000000000000000000000000000000N 00000000000NCONT   00    00000000000          00000000000000000000000000000000000000000000 000000000000000A000000000000000000000000000000000000000000000 000000000000000000000000000000000000000     00000000                                                                                                                        000000000000000000
F0010000009172500002000090037350200041450500000000000000000201609230002001JIMAR C Y J LTDA                                  C000000000900000000000000000000000100010010000000000000000000000F0010000009172500220160923000101 00000000000000000000000000000000000000000000000000000000000000000000000000000000000000000000000000000000000000000N 00000000000NCONT   00    00000000000          00000000000000000000000000000000000000000000 000000000000000A000000000000000000000000000000000000000000000 000000000000000000000000000000000000000     00000000                                                                                                                        000000000000000000
F0010000009172500003000090037350200042505000000000000000000201609230002001JIMAR C Y J LTDA                                  C000000000100000000000000000000000100010010000000000000000000000F0010000009172500320160923000101 00000000000000000000000000000000000000000000000000000000000000000000000000000000000000000000000000000000000000000N 00000000000NCONT   00    00000000000          00000000000000000000000000000000000000000000 000000000000000A000000000000000000000000000000000000000000000 000000000000000000000000000000000000000     00000000                                                                                                                        000000000000000000
F0010000009172500004000090037350200023658300000000000000000201609230002001JIMAR C Y J LTDA                                  C000000000007200000000000000000000100010010000000000000000000000F0010000009172500420160923000101 00000000000000000000000000000000000000000000000000000000000000000000000000000000000000000000000000000000000000000N 00000000000NCONT   00    00000000000          00000000000000000000000000000000000000000000 000000000000000A000000000000000000000000000000000000000000000 000000000000000000000000000000000000000     00000000                                                                                                                        000000000000000000
F0010000009172500005000090037350200013552100000000000000000201609230002001JIMAR C Y J LTDA                                  D000000000007200000000000000000000100010010000000000000000000000F0010000009172500520160923000101 00000000000000000000000000000000000000000000000000000000000000000000000000000000000000000000000000000000000000000N 00000000000NCONT   00    00000000000          00000000000000000000000000000000000000000000 000000000000000A000000000000000000000000000000000000000000000 000000000000000000000000000000000000000     00000000                                                                                                                        000000000000000000
F0010000009172600001000001325248300011050500000000000000000201609230002001LUBRICANTE LA 37                                  D000000002000000000000000000000000100010010000000000000000000000F0010000009172600120160923000101 00000000000000000000000000000000000000000000000000000000000000000000000000000000000000000000000000000000000000000N 00000000000NCONT   00    00000000000          00000000000000000000000000000000000000000000 000000000000000A000000000000000000000000000000000000000000000 000000000000000000000000000000000000000     00000000                                                                                                                        000000000000000000
F0010000009172600002000001325248300041450500000000000000000201609230002001LUBRICANTE LA 37                                  C000000001700000000000000000000000100010010000000000000000000000F0010000009172600220160923000101 00000000000000000000000000000000000000000000000000000000000000000000000000000000000000000000000000000000000000000N 00000000000NCONT   00    00000000000          00000000000000000000000000000000000000000000 000000000000000A000000000000000000000000000000000000000000000 000000000000000000000000000000000000000     00000000                                                                                                                        000000000000000000
F0010000009172600003000001325248300042505000000000000000000201609230002001LUBRICANTE LA 37                                  C000000000300000000000000000000000100010010000000000000000000000F0010000009172600320160923000101 00000000000000000000000000000000000000000000000000000000000000000000000000000000000000000000000000000000000000000N 00000000000NCONT   00    00000000000          00000000000000000000000000000000000000000000 000000000000000A000000000000000000000000000000000000000000000 000000000000000000000000000000000000000     00000000                                                                                                                        000000000000000000
F0010000009172600004000001325248300023658300000000000000000201609230002001LUBRICANTE LA 37                                  C000000000013600000000000000000000100010010000000000000000000000F0010000009172600420160923000101 00000000000000000000000000000000000000000000000000000000000000000000000000000000000000000000000000000000000000000N 00000000000NCONT   00    00000000000          00000000000000000000000000000000000000000000 000000000000000A000000000000000000000000000000000000000000000 000000000000000000000000000000000000000     00000000                                                                                                                        000000000000000000
F0010000009172600005000001325248300013552100000000000000000201609230002001LUBRICANTE LA 37                                  D000000000013600000000000000000000100010010000000000000000000000F0010000009172600520160923000101 00000000000000000000000000000000000000000000000000000000000000000000000000000000000000000000000000000000000000000N 00000000000NCONT   00    00000000000          00000000000000000000000000000000000000000000 000000000000000A000000000000000000000000000000000000000000000 000000000000000000000000000000000000000     00000000                                                                                                                        000000000000000000
F0010000009172700001000002245670100011050500000000000000000201609230002001YOLANDA  TOBON                                    D000000001042400000000000000000000100010010000000000000000000000F0010000009172700120160923000101 00000000000000000000000000000000000000000000000000000000000000000000000000000000000000000000000000000000000000000N 00000000000NCONT   00    00000000000          00000000000000000000000000000000000000000000 000000000000000A000000000000000000000000000000000000000000000 000000000000000000000000000000000000000     00000000                                                                                                                        000000000000000000
F0010000009172700002000002245670100041450500000000000000000201609230002001YOLANDA  TOBON                                    C000000000800000000000000000000000100010010000000000000000000000F0010000009172700220160923000101 00000000000000000000000000000000000000000000000000000000000000000000000000000000000000000000000000000000000000000N 00000000000NCONT   00    00000000000          00000000000000000000000000000000000000000000 000000000000000A000000000000000000000000000000000000000000000 000000000000000000000000000000000000000     00000000                                                                                                                        000000000000000000
F0010000009172700003000002245670100042505000000000000000000201609230002001YOLANDA  TOBON                                    C000000000242400000000000000000000100010010000000000000000000000F0010000009172700320160923000101 00000000000000000000000000000000000000000000000000000000000000000000000000000000000000000000000000000000000000000N 00000000000NCONT   00    00000000000          00000000000000000000000000000000000000000000 000000000000000A000000000000000000000000000000000000000000000 000000000000000000000000000000000000000     00000000                                                                                                                        000000000000000000
F0010000009172700004000002245670100023658300000000000000000201609230002001YOLANDA  TOBON                                    C000000000006400000000000000000000100010010000000000000000000000F0010000009172700420160923000101 00000000000000000000000000000000000000000000000000000000000000000000000000000000000000000000000000000000000000000N 00000000000NCONT   00    00000000000          00000000000000000000000000000000000000000000 000000000000000A000000000000000000000000000000000000000000000 000000000000000000000000000000000000000     00000000                                                                                                                        000000000000000000
F0010000009172700005000002245670100013552100000000000000000201609230002001YOLANDA  TOBON                                    D000000000006400000000000000000000100010010000000000000000000000F0010000009172700520160923000101 00000000000000000000000000000000000000000000000000000000000000000000000000000000000000000000000000000000000000000N 00000000000NCONT   00    00000000000          00000000000000000000000000000000000000000000 000000000000000A000000000000000000000000000000000000000000000 000000000000000000000000000000000000000     00000000                                                                                                                        000000000000000000
F0010000009172800001000080202350700011050500000000000000000201609230002001CONNY DE LA COSTA SAS                             D000000008450000000000000000000000100010010000000000000000000000F0010000009172800120160923000101 00000000000000000000000000000000000000000000000000000000000000000000000000000000000000000000000000000000000000000N 00000000000NCONT   00    00000000000          00000000000000000000000000000000000000000000 000000000000000A000000000000000000000000000000000000000000000 000000000000000000000000000000000000000     00000000                                                                                                                        000000000000000000
F0010000009172800002000080202350700041450500000000000000000201609230002001CONNY DE LA COSTA SAS                             C000000008400000000000000000000000100010010000000000000000000000F0010000009172800220160923000101 00000000000000000000000000000000000000000000000000000000000000000000000000000000000000000000000000000000000000000N 00000000000NCONT   00    00000000000          00000000000000000000000000000000000000000000 000000000000000A000000000000000000000000000000000000000000000 000000000000000000000000000000000000000     00000000                                                                                                                        000000000000000000
F0010000009172800003000080202350700042505000000000000000000201609230002001CONNY DE LA COSTA SAS                             C000000000050000000000000000000000100010010000000000000000000000F0010000009172800320160923000101 00000000000000000000000000000000000000000000000000000000000000000000000000000000000000000000000000000000000000000N 00000000000NCONT   00    00000000000          00000000000000000000000000000000000000000000 000000000000000A000000000000000000000000000000000000000000000 000000000000000000000000000000000000000     00000000                                                                                                                        000000000000000000
F0010000009172800004000080202350700023658300000000000000000201609230002001CONNY DE LA COSTA SAS                             C000000000067200000000000000000000100010010000000000000000000000F0010000009172800420160923000101 00000000000000000000000000000000000000000000000000000000000000000000000000000000000000000000000000000000000000000N 00000000000NCONT   00    00000000000          00000000000000000000000000000000000000000000 000000000000000A000000000000000000000000000000000000000000000 000000000000000000000000000000000000000     00000000                                                                                                                        000000000000000000
F0010000009172800005000080202350700013552100000000000000000201609230002001CONNY DE LA COSTA SAS                             D000000000067200000000000000000000100010010000000000000000000000F0010000009172800520160923000101 00000000000000000000000000000000000000000000000000000000000000000000000000000000000000000000000000000000000000000N 00000000000NCONT   00    00000000000          00000000000000000000000000000000000000000000 000000000000000A000000000000000000000000000000000000000000000 000000000000000000000000000000000000000     00000000                                                                                                                        000000000000000000
F0010000009172900001000000742399700011050500000000000000000201609230002001CACHARRERIA EL NUEVO CHADID                       D000000010300000000000000000000000100010010000000000000000000000F0010000009172900120160923000101 00000000000000000000000000000000000000000000000000000000000000000000000000000000000000000000000000000000000000000N 00000000000NCONT   00    00000000000          00000000000000000000000000000000000000000000 000000000000000A000000000000000000000000000000000000000000000 000000000000000000000000000000000000000     00000000                                                                                                                        000000000000000000
F0010000009172900002000000742399700041450500000000000000000201609230002001CACHARRERIA EL NUEVO CHADID                       C000000007800000000000000000000000100010010000000000000000000000F0010000009172900220160923000101 00000000000000000000000000000000000000000000000000000000000000000000000000000000000000000000000000000000000000000N 00000000000NCONT   00    00000000000          00000000000000000000000000000000000000000000 000000000000000A000000000000000000000000000000000000000000000 000000000000000000000000000000000000000     00000000                                                                                                                        000000000000000000
F0010000009172900003000000742399700042505000000000000000000201609230002001CACHARRERIA EL NUEVO CHADID                       C000000002500000000000000000000000100010010000000000000000000000F0010000009172900320160923000101 00000000000000000000000000000000000000000000000000000000000000000000000000000000000000000000000000000000000000000N 00000000000NCONT   00    00000000000          00000000000000000000000000000000000000000000 000000000000000A000000000000000000000000000000000000000000000 000000000000000000000000000000000000000     00000000                                                                                                                        000000000000000000
F0010000009172900004000000742399700023658300000000000000000201609230002001CACHARRERIA EL NUEVO CHADID                       C000000000062400000000000000000000100010010000000000000000000000F0010000009172900420160923000101 00000000000000000000000000000000000000000000000000000000000000000000000000000000000000000000000000000000000000000N 00000000000NCONT   00    00000000000          00000000000000000000000000000000000000000000 000000000000000A000000000000000000000000000000000000000000000 000000000000000000000000000000000000000     00000000                                                                                                                        000000000000000000
F0010000009172900005000000742399700013552100000000000000000201609230002001CACHARRERIA EL NUEVO CHADID                       D000000000062400000000000000000000100010010000000000000000000000F0010000009172900520160923000101 00000000000000000000000000000000000000000000000000000000000000000000000000000000000000000000000000000000000000000N 00000000000NCONT   00    00000000000          00000000000000000000000000000000000000000000 000000000000000A000000000000000000000000000000000000000000000 000000000000000000000000000000000000000     00000000                                                                                                                        000000000000000000
F0010000009173000001000000742399700011050500000000000000000201609230002001CACHARRERIA EL NUEVO CHADID                       D000000001800000000000000000000000100010010000000000000000000000F0010000009173000120160923000101 00000000000000000000000000000000000000000000000000000000000000000000000000000000000000000000000000000000000000000N 00000000000NCONT   00    00000000000          00000000000000000000000000000000000000000000 000000000000000A000000000000000000000000000000000000000000000 000000000000000000000000000000000000000     00000000                                                                                                                        000000000000000000
F0010000009173000002000000742399700041450500000000000000000201609230002001CACHARRERIA EL NUEVO CHADID                       C000000001300000000000000000000000100010010000000000000000000000F0010000009173000220160923000101 00000000000000000000000000000000000000000000000000000000000000000000000000000000000000000000000000000000000000000N 00000000000NCONT   00    00000000000          00000000000000000000000000000000000000000000 000000000000000A000000000000000000000000000000000000000000000 000000000000000000000000000000000000000     00000000                                                                                                                        000000000000000000
F0010000009173000003000000742399700042505000000000000000000201609230002001CACHARRERIA EL NUEVO CHADID                       C000000000500000000000000000000000100010010000000000000000000000F0010000009173000320160923000101 00000000000000000000000000000000000000000000000000000000000000000000000000000000000000000000000000000000000000000N 00000000000NCONT   00    00000000000          00000000000000000000000000000000000000000000 000000000000000A000000000000000000000000000000000000000000000 000000000000000000000000000000000000000     00000000                                                                                                                        000000000000000000
F0010000009173000004000000742399700023658300000000000000000201609230002001CACHARRERIA EL NUEVO CHADID                       C000000000010400000000000000000000100010010000000000000000000000F0010000009173000420160923000101 00000000000000000000000000000000000000000000000000000000000000000000000000000000000000000000000000000000000000000N 00000000000NCONT   00    00000000000          00000000000000000000000000000000000000000000 000000000000000A000000000000000000000000000000000000000000000 000000000000000000000000000000000000000     00000000                                                                                                                        000000000000000000
F0010000009173000005000000742399700013552100000000000000000201609230002001CACHARRERIA EL NUEVO CHADID                       D000000000010400000000000000000000100010010000000000000000000000F0010000009173000520160923000101 00000000000000000000000000000000000000000000000000000000000000000000000000000000000000000000000000000000000000000N 00000000000NCONT   00    00000000000          00000000000000000000000000000000000000000000 000000000000000A000000000000000000000000000000000000000000000 000000000000000000000000000000000000000     00000000                                                                                                                        000000000000000000
F0010000009173100001000000742399700011050500000000000000000201609230002001CACHARRERIA EL NUEVO CHADID                       D000000001100000000000000000000000100010010000000000000000000000F0010000009173100120160923000101 00000000000000000000000000000000000000000000000000000000000000000000000000000000000000000000000000000000000000000N 00000000000NCONT   00    00000000000          00000000000000000000000000000000000000000000 000000000000000A000000000000000000000000000000000000000000000 000000000000000000000000000000000000000     00000000                                                                                                                        000000000000000000
F0010000009173100002000000742399700041450500000000000000000201609230002001CACHARRERIA EL NUEVO CHADID                       C000000001000000000000000000000000100010010000000000000000000000F0010000009173100220160923000101 00000000000000000000000000000000000000000000000000000000000000000000000000000000000000000000000000000000000000000N 00000000000NCONT   00    00000000000          00000000000000000000000000000000000000000000 000000000000000A000000000000000000000000000000000000000000000 000000000000000000000000000000000000000     00000000                                                                                                                        000000000000000000
F0010000009173100003000000742399700042505000000000000000000201609230002001CACHARRERIA EL NUEVO CHADID                       C000000000100000000000000000000000100010010000000000000000000000F0010000009173100320160923000101 00000000000000000000000000000000000000000000000000000000000000000000000000000000000000000000000000000000000000000N 00000000000NCONT   00    00000000000          00000000000000000000000000000000000000000000 000000000000000A000000000000000000000000000000000000000000000 000000000000000000000000000000000000000     00000000                                                                                                                        000000000000000000
F0010000009173100004000000742399700023658300000000000000000201609230002001CACHARRERIA EL NUEVO CHADID                       C000000000008000000000000000000000100010010000000000000000000000F0010000009173100420160923000101 00000000000000000000000000000000000000000000000000000000000000000000000000000000000000000000000000000000000000000N 00000000000NCONT   00    00000000000          00000000000000000000000000000000000000000000 000000000000000A000000000000000000000000000000000000000000000 000000000000000000000000000000000000000     00000000                                                                                                                        000000000000000000
F0010000009173100005000000742399700013552100000000000000000201609230002001CACHARRERIA EL NUEVO CHADID                       D000000000008000000000000000000000100010010000000000000000000000F0010000009173100520160923000101 00000000000000000000000000000000000000000000000000000000000000000000000000000000000000000000000000000000000000000N 00000000000NCONT   00    00000000000          00000000000000000000000000000000000000000000 000000000000000A000000000000000000000000000000000000000000000 000000000000000000000000000000000000000     00000000                                                                                                                        000000000000000000
F0010000009173200001000080202350700011050500000000000000000201609230002001CONNY DE LA COSTA SAS                             D000000006000000000000000000000000100010010000000000000000000000F0010000009173200120160923000101 00000000000000000000000000000000000000000000000000000000000000000000000000000000000000000000000000000000000000000N 00000000000NCONT   00    00000000000          00000000000000000000000000000000000000000000 000000000000000A000000000000000000000000000000000000000000000 000000000000000000000000000000000000000     00000000                                                                                                                        000000000000000000
F0010000009173200002000080202350700041450500000000000000000201609230002001CONNY DE LA COSTA SAS                             C000000005950000000000000000000000100010010000000000000000000000F0010000009173200220160923000101 00000000000000000000000000000000000000000000000000000000000000000000000000000000000000000000000000000000000000000N 00000000000NCONT   00    00000000000          00000000000000000000000000000000000000000000 000000000000000A000000000000000000000000000000000000000000000 000000000000000000000000000000000000000     00000000                                                                                                                        000000000000000000
F0010000009173200003000080202350700042505000000000000000000201609230002001CONNY DE LA COSTA SAS                             C000000000050000000000000000000000100010010000000000000000000000F0010000009173200320160923000101 00000000000000000000000000000000000000000000000000000000000000000000000000000000000000000000000000000000000000000N 00000000000NCONT   00    00000000000          00000000000000000000000000000000000000000000 000000000000000A000000000000000000000000000000000000000000000 000000000000000000000000000000000000000     00000000                                                                                                                        000000000000000000
F0010000009173200004000080202350700023658300000000000000000201609230002001CONNY DE LA COSTA SAS                             C000000000047600000000000000000000100010010000000000000000000000F0010000009173200420160923000101 00000000000000000000000000000000000000000000000000000000000000000000000000000000000000000000000000000000000000000N 00000000000NCONT   00    00000000000          00000000000000000000000000000000000000000000 000000000000000A000000000000000000000000000000000000000000000 000000000000000000000000000000000000000     00000000                                                                                                                        000000000000000000
F0010000009173200005000080202350700013552100000000000000000201609230002001CONNY DE LA COSTA SAS                             D000000000047600000000000000000000100010010000000000000000000000F0010000009173200520160923000101 00000000000000000000000000000000000000000000000000000000000000000000000000000000000000000000000000000000000000000N 00000000000NCONT   00    00000000000          00000000000000000000000000000000000000000000 000000000000000A000000000000000000000000000000000000000000000 000000000000000000000000000000000000000     00000000                                                                                                                        000000000000000000
F0010000009173300001000102390001700011050500000000000000000201609230002001LILIANA HERNANDEZ PINILLA                         D000000010000000000000000000000000100010010000000000000000000000F0010000009173300120160923000101 00000000000000000000000000000000000000000000000000000000000000000000000000000000000000000000000000000000000000000N 00000000000NCONT   00    00000000000          00000000000000000000000000000000000000000000 000000000000000A000000000000000000000000000000000000000000000 000000000000000000000000000000000000000     00000000                                                                                                                        000000000000000000
F0010000009173300002000102390001700041450500000000000000000201609230002001LILIANA HERNANDEZ PINILLA                         C000000007500000000000000000000000100010010000000000000000000000F0010000009173300220160923000101 00000000000000000000000000000000000000000000000000000000000000000000000000000000000000000000000000000000000000000N 00000000000NCONT   00    00000000000          00000000000000000000000000000000000000000000 000000000000000A000000000000000000000000000000000000000000000 000000000000000000000000000000000000000     00000000                                                                                                                        000000000000000000
F0010000009173300003000102390001700042505000000000000000000201609230002001LILIANA HERNANDEZ PINILLA                         C000000002500000000000000000000000100010010000000000000000000000F0010000009173300320160923000101 00000000000000000000000000000000000000000000000000000000000000000000000000000000000000000000000000000000000000000N 00000000000NCONT   00    00000000000          00000000000000000000000000000000000000000000 000000000000000A000000000000000000000000000000000000000000000 000000000000000000000000000000000000000     00000000                                                                                                                        000000000000000000
F0010000009173300004000102390001700023658300000000000000000201609230002001LILIANA HERNANDEZ PINILLA                         C000000000060000000000000000000000100010010000000000000000000000F0010000009173300420160923000101 00000000000000000000000000000000000000000000000000000000000000000000000000000000000000000000000000000000000000000N 00000000000NCONT   00    00000000000          00000000000000000000000000000000000000000000 000000000000000A000000000000000000000000000000000000000000000 000000000000000000000000000000000000000     00000000                                                                                                                        000000000000000000
F0010000009173300005000102390001700013552100000000000000000201609230002001LILIANA HERNANDEZ PINILLA                         D000000000060000000000000000000000100010010000000000000000000000F0010000009173300520160923000101 00000000000000000000000000000000000000000000000000000000000000000000000000000000000000000000000000000000000000000N 00000000000NCONT   00    00000000000          00000000000000000000000000000000000000000000 000000000000000A000000000000000000000000000000000000000000000 000000000000000000000000000000000000000     00000000                                                                                                                        000000000000000000
F0010000009173400001000090061985600011050500000000000000000201609230002001COMERCIALIZADORA PATRY SAS                        D000000001500000000000000000000000100010010000000000000000000000F0010000009173400120160923000101 00000000000000000000000000000000000000000000000000000000000000000000000000000000000000000000000000000000000000000N 00000000000NCONT   00    00000000000          00000000000000000000000000000000000000000000 000000000000000A000000000000000000000000000000000000000000000 000000000000000000000000000000000000000     00000000                                                                                                                        000000000000000000
F0010000009173400002000090061985600041450500000000000000000201609230002001COMERCIALIZADORA PATRY SAS                        C000000001000000000000000000000000100010010000000000000000000000F0010000009173400220160923000101 00000000000000000000000000000000000000000000000000000000000000000000000000000000000000000000000000000000000000000N 00000000000NCONT   00    00000000000          00000000000000000000000000000000000000000000 000000000000000A000000000000000000000000000000000000000000000 000000000000000000000000000000000000000     00000000                                                                                                                        000000000000000000
F0010000009173400003000090061985600042505000000000000000000201609230002001COMERCIALIZADORA PATRY SAS                        C000000000500000000000000000000000100010010000000000000000000000F0010000009173400320160923000101 00000000000000000000000000000000000000000000000000000000000000000000000000000000000000000000000000000000000000000N 00000000000NCONT   00    00000000000          00000000000000000000000000000000000000000000 000000000000000A000000000000000000000000000000000000000000000 000000000000000000000000000000000000000     00000000                                                                                                                        000000000000000000
F0010000009173400004000090061985600023658300000000000000000201609230002001COMERCIALIZADORA PATRY SAS                        C000000000008000000000000000000000100010010000000000000000000000F0010000009173400420160923000101 00000000000000000000000000000000000000000000000000000000000000000000000000000000000000000000000000000000000000000N 00000000000NCONT   00    00000000000          00000000000000000000000000000000000000000000 000000000000000A000000000000000000000000000000000000000000000 000000000000000000000000000000000000000     00000000                                                                                                                        000000000000000000
F0010000009173400005000090061985600013552100000000000000000201609230002001COMERCIALIZADORA PATRY SAS                        D000000000008000000000000000000000100010010000000000000000000000F0010000009173400520160923000101 00000000000000000000000000000000000000000000000000000000000000000000000000000000000000000000000000000000000000000N 00000000000NCONT   00    00000000000          00000000000000000000000000000000000000000000 000000000000000A000000000000000000000000000000000000000000000 000000000000000000000000000000000000000     00000000                                                                                                                        000000000000000000
F0010000009173500001000090007142100011050500000000000000000201609230002001TODO BELLEZA Y MAX S.A.S                          D000000004600000000000000000000000100010010000000000000000000000F0010000009173500120160923000101 00000000000000000000000000000000000000000000000000000000000000000000000000000000000000000000000000000000000000000N 00000000000NCONT   00    00000000000          00000000000000000000000000000000000000000000 000000000000000A000000000000000000000000000000000000000000000 000000000000000000000000000000000000000     00000000                                                                                                                        000000000000000000
F0010000009173500002000090007142100041450500000000000000000201609230002001TODO BELLEZA Y MAX S.A.S                          C000000004400000000000000000000000100010010000000000000000000000F0010000009173500220160923000101 00000000000000000000000000000000000000000000000000000000000000000000000000000000000000000000000000000000000000000N 00000000000NCONT   00    00000000000          00000000000000000000000000000000000000000000 000000000000000A000000000000000000000000000000000000000000000 000000000000000000000000000000000000000     00000000                                                                                                                        000000000000000000
F0010000009173500003000090007142100042505000000000000000000201609230002001TODO BELLEZA Y MAX S.A.S                          C000000000200000000000000000000000100010010000000000000000000000F0010000009173500320160923000101 00000000000000000000000000000000000000000000000000000000000000000000000000000000000000000000000000000000000000000N 00000000000NCONT   00    00000000000          00000000000000000000000000000000000000000000 000000000000000A000000000000000000000000000000000000000000000 000000000000000000000000000000000000000     00000000                                                                                                                        000000000000000000
F0010000009173500004000090007142100023658300000000000000000201609230002001TODO BELLEZA Y MAX S.A.S                          C000000000035200000000000000000000100010010000000000000000000000F0010000009173500420160923000101 00000000000000000000000000000000000000000000000000000000000000000000000000000000000000000000000000000000000000000N 00000000000NCONT   00    00000000000          00000000000000000000000000000000000000000000 000000000000000A000000000000000000000000000000000000000000000 000000000000000000000000000000000000000     00000000                                                                                                                        000000000000000000
F0010000009173500005000090007142100013552100000000000000000201609230002001TODO BELLEZA Y MAX S.A.S                          D000000000035200000000000000000000100010010000000000000000000000F0010000009173500520160923000101 00000000000000000000000000000000000000000000000000000000000000000000000000000000000000000000000000000000000000000N 00000000000NCONT   00    00000000000          00000000000000000000000000000000000000000000 000000000000000A000000000000000000000000000000000000000000000 000000000000000000000000000000000000000     00000000                                                                                                                        000000000000000000
F0010000009173600001000090007142100011050500000000000000000201609230002001TODO BELLEZA Y MAX S.A.S                          D000000001150000000000000000000000100010010000000000000000000000F0010000009173600120160923000101 00000000000000000000000000000000000000000000000000000000000000000000000000000000000000000000000000000000000000000N 00000000000NCONT   00    00000000000          00000000000000000000000000000000000000000000 000000000000000A000000000000000000000000000000000000000000000 000000000000000000000000000000000000000     00000000                                                                                                                        000000000000000000
F0010000009173600002000090007142100041450500000000000000000201609230002001TODO BELLEZA Y MAX S.A.S                          C000000001100000000000000000000000100010010000000000000000000000F0010000009173600220160923000101 00000000000000000000000000000000000000000000000000000000000000000000000000000000000000000000000000000000000000000N 00000000000NCONT   00    00000000000          00000000000000000000000000000000000000000000 000000000000000A000000000000000000000000000000000000000000000 000000000000000000000000000000000000000     00000000                                                                                                                        000000000000000000
F0010000009173600003000090007142100042505000000000000000000201609230002001TODO BELLEZA Y MAX S.A.S                          C000000000050000000000000000000000100010010000000000000000000000F0010000009173600320160923000101 00000000000000000000000000000000000000000000000000000000000000000000000000000000000000000000000000000000000000000N 00000000000NCONT   00    00000000000          00000000000000000000000000000000000000000000 000000000000000A000000000000000000000000000000000000000000000 000000000000000000000000000000000000000     00000000                                                                                                                        000000000000000000
F0010000009173600004000090007142100023658300000000000000000201609230002001TODO BELLEZA Y MAX S.A.S                          C000000000008800000000000000000000100010010000000000000000000000F0010000009173600420160923000101 00000000000000000000000000000000000000000000000000000000000000000000000000000000000000000000000000000000000000000N 00000000000NCONT   00    00000000000          00000000000000000000000000000000000000000000 000000000000000A000000000000000000000000000000000000000000000 000000000000000000000000000000000000000     00000000                                                                                                                        000000000000000000
F0010000009173600005000090007142100013552100000000000000000201609230002001TODO BELLEZA Y MAX S.A.S                          D000000000008800000000000000000000100010010000000000000000000000F0010000009173600520160923000101 00000000000000000000000000000000000000000000000000000000000000000000000000000000000000000000000000000000000000000N 00000000000NCONT   00    00000000000          00000000000000000000000000000000000000000000 000000000000000A000000000000000000000000000000000000000000000 000000000000000000000000000000000000000     00000000                                                                                                                        000000000000000000
F0010000009173700001000090007142100011050500000000000000000201609230002001TODO BELLEZA Y MAX S.A.S                          D000000000950000000000000000000000100010010000000000000000000000F0010000009173700120160923000101 00000000000000000000000000000000000000000000000000000000000000000000000000000000000000000000000000000000000000000N 00000000000NCONT   00    00000000000          00000000000000000000000000000000000000000000 000000000000000A000000000000000000000000000000000000000000000 000000000000000000000000000000000000000     00000000                                                                                                                        000000000000000000
F0010000009173700002000090007142100041450500000000000000000201609230002001TODO BELLEZA Y MAX S.A.S                          C000000000900000000000000000000000100010010000000000000000000000F0010000009173700220160923000101 00000000000000000000000000000000000000000000000000000000000000000000000000000000000000000000000000000000000000000N 00000000000NCONT   00    00000000000          00000000000000000000000000000000000000000000 000000000000000A000000000000000000000000000000000000000000000 000000000000000000000000000000000000000     00000000                                                                                                                        000000000000000000
