F0010000005887700001000000870907300011050500000000000000000201406050002001SURTIDOR FERRETERO                                D000000000400000000000000000000000100010010000000000000000000000F0010000005887700120140605000101 00000000000000000000000000000000000000000000000000000000000000000000000000000000000000000000000000000000000000000N 00000000000NCONT   00    00000000000          00000000000000000000000000000000000000000000 000000000000000A000000000000000000000000000000000000000000000 000000000000000000000000000000000000000     00000000                                                                                                                        000000000000000000
F0010000005887700002000000870907300041450500000000000000000201406050002001SURTIDOR FERRETERO                                C000000000300000000000000000000000100010010000000000000000000000F0010000005887700220140605000101 00000000000000000000000000000000000000000000000000000000000000000000000000000000000000000000000000000000000000000N 00000000000NCONT   00    00000000000          00000000000000000000000000000000000000000000 000000000000000A000000000000000000000000000000000000000000000 000000000000000000000000000000000000000     00000000                                                                                                                        000000000000000000
F0010000005887700003000000870907300042505000000000000000000201406050002001SURTIDOR FERRETERO                                C000000000100000000000000000000000100010010000000000000000000000F0010000005887700320140605000101 00000000000000000000000000000000000000000000000000000000000000000000000000000000000000000000000000000000000000000N 00000000000NCONT   00    00000000000          00000000000000000000000000000000000000000000 000000000000000A000000000000000000000000000000000000000000000 000000000000000000000000000000000000000     00000000                                                                                                                        000000000000000000
F0010000005887700004000000870907300023658300000000000000000201406050002001SURTIDOR FERRETERO                                C000000000002400000000000000000000100010010000000000000000000000F0010000005887700420140605000101 00000000000000000000000000000000000000000000000000000000000000000000000000000000000000000000000000000000000000000N 00000000000NCONT   00    00000000000          00000000000000000000000000000000000000000000 000000000000000A000000000000000000000000000000000000000000000 000000000000000000000000000000000000000     00000000                                                                                                                        000000000000000000
F0010000005887700005000000870907300013552100000000000000000201406050002001SURTIDOR FERRETERO                                D000000000002400000000000000000000100010010000000000000000000000F0010000005887700520140605000101 00000000000000000000000000000000000000000000000000000000000000000000000000000000000000000000000000000000000000000N 00000000000NCONT   00    00000000000          00000000000000000000000000000000000000000000 000000000000000A000000000000000000000000000000000000000000000 000000000000000000000000000000000000000     00000000                                                                                                                        000000000000000000
F0010000005887800001000081102758700013050500000000000000000201406050002001C.I. ABRACOL S.A EMA                              D000000038835300000000000000000000100010010000000000000000000000F0010000005887800120140605000101 00000000000000000000000000000000000000000000000000000000000000000000000000000000000000000000000000000000000000000N 00000000000NCONT   00    00000000000          00000000000000000000000000000000000000000000 000000000000000A000000000000000000000000000000000000000000000 000000000000000000000000000000000000000     00000000                                                                                                                        000000000000000000
F0010000005887800002000081102758700041450500000000000000000201406050002001C.I. ABRACOL S.A EMA                              C000000021120000000000000000000000100010010000000000000000000000F0010000005887800220140605000101 00000000000000000000000000000000000000000000000000000000000000000000000000000000000000000000000000000000000000000N 00000000000NCONT   00    00000000000          00000000000000000000000000000000000000000000 000000000000000A000000000000000000000000000000000000000000000 000000000000000000000000000000000000000     00000000                                                                                                                        000000000000000000
F0010000005887800003000081102758700041750100000000000000000201406050002001C.I. ABRACOL S.A EMA                              D000000000633600000000000000000000100010010000000000000000000000F0010000005887800320140605000101 00000000000000000000000000000000000000000000000000000000000000000000000000000000000000000000000000000000000000000N 00000000000NCONT   00    00000000000          00000000000000000000000000000000000000000000 000000000000000A000000000000000000000000000000000000000000000 000000000000000000000000000000000000000     00000000                                                                                                                        000000000000000000
F0010000005887800004000081102758700042505000000000000000000201406050002001C.I. ABRACOL S.A EMA                              C000000018348900000000000000000000100010010000000000000000000000F0010000005887800420140605000101 00000000000000000000000000000000000000000000000000000000000000000000000000000000000000000000000000000000000000000N 00000000000NCONT   00    00000000000          00000000000000000000000000000000000000000000 000000000000000A000000000000000000000000000000000000000000000 000000000000000000000000000000000000000     00000000                                                                                                                        000000000000000000
F0010000005887800005000081102758700023658300000000000000000201406050002001C.I. ABRACOL S.A EMA                              C000000000169000000000000000000000100010010000000000000000000000F0010000005887800520140605000101 00000000000000000000000000000000000000000000000000000000000000000000000000000000000000000000000000000000000000000N 00000000000NCONT   00    00000000000          00000000000000000000000000000000000000000000 000000000000000A000000000000000000000000000000000000000000000 000000000000000000000000000000000000000     00000000                                                                                                                        000000000000000000
F0010000005887800006000081102758700013552100000000000000000201406050002001C.I. ABRACOL S.A EMA                              D000000000169000000000000000000000100010010000000000000000000000F0010000005887800620140605000101 00000000000000000000000000000000000000000000000000000000000000000000000000000000000000000000000000000000000000000N 00000000000NCONT   00    00000000000          00000000000000000000000000000000000000000000 000000000000000A000000000000000000000000000000000000000000000 000000000000000000000000000000000000000     00000000                                                                                                                        000000000000000000
F0010000005887900001000081102758700013050500000000000000000201406050002001C.I. ABRACOL S.A EMA                              D000000065087600000000000000000000100010010000000000000000000000F0010000005887900120140605000101 00000000000000000000000000000000000000000000000000000000000000000000000000000000000000000000000000000000000000000N 00000000000NCONT   00    00000000000          00000000000000000000000000000000000000000000 000000000000000A000000000000000000000000000000000000000000000 000000000000000000000000000000000000000     00000000                                                                                                                        000000000000000000
F0010000005887900002000081102758700041450500000000000000000201406050002001C.I. ABRACOL S.A EMA                              C000000041880000000000000000000000100010010000000000000000000000F0010000005887900220140605000101 00000000000000000000000000000000000000000000000000000000000000000000000000000000000000000000000000000000000000000N 00000000000NCONT   00    00000000000          00000000000000000000000000000000000000000000 000000000000000A000000000000000000000000000000000000000000000 000000000000000000000000000000000000000     00000000                                                                                                                        000000000000000000
F0010000005887900003000081102758700041750100000000000000000201406050002001C.I. ABRACOL S.A EMA                              D000000001256400000000000000000000100010010000000000000000000000F0010000005887900320140605000101 00000000000000000000000000000000000000000000000000000000000000000000000000000000000000000000000000000000000000000N 00000000000NCONT   00    00000000000          00000000000000000000000000000000000000000000 000000000000000A000000000000000000000000000000000000000000000 000000000000000000000000000000000000000     00000000                                                                                                                        000000000000000000
F0010000005887900004000081102758700042505000000000000000000201406050002001C.I. ABRACOL S.A EMA                              C000000024464000000000000000000000100010010000000000000000000000F0010000005887900420140605000101 00000000000000000000000000000000000000000000000000000000000000000000000000000000000000000000000000000000000000000N 00000000000NCONT   00    00000000000          00000000000000000000000000000000000000000000 000000000000000A000000000000000000000000000000000000000000000 000000000000000000000000000000000000000     00000000                                                                                                                        000000000000000000
F0010000005887900005000081102758700023658300000000000000000201406050002001C.I. ABRACOL S.A EMA                              C000000000335000000000000000000000100010010000000000000000000000F0010000005887900520140605000101 00000000000000000000000000000000000000000000000000000000000000000000000000000000000000000000000000000000000000000N 00000000000NCONT   00    00000000000          00000000000000000000000000000000000000000000 000000000000000A000000000000000000000000000000000000000000000 000000000000000000000000000000000000000     00000000                                                                                                                        000000000000000000
F0010000005887900006000081102758700013552100000000000000000201406050002001C.I. ABRACOL S.A EMA                              D000000000335000000000000000000000100010010000000000000000000000F0010000005887900620140605000101 00000000000000000000000000000000000000000000000000000000000000000000000000000000000000000000000000000000000000000N 00000000000NCONT   00    00000000000          00000000000000000000000000000000000000000000 000000000000000A000000000000000000000000000000000000000000000 000000000000000000000000000000000000000     00000000                                                                                                                        000000000000000000
F0010000005888000001000081102758700013050500000000000000000201406050002001C.I. ABRACOL S.A EMA                              D000000062143100000000000000000000100010010000000000000000000000F0010000005888000120140605000101 00000000000000000000000000000000000000000000000000000000000000000000000000000000000000000000000000000000000000000N 00000000000NCONT   00    00000000000          00000000000000000000000000000000000000000000 000000000000000A000000000000000000000000000000000000000000000 000000000000000000000000000000000000000     00000000                                                                                                                        000000000000000000
F0010000005888000002000081102758700041450500000000000000000201406050002001C.I. ABRACOL S.A EMA                              C000000038270000000000000000000000100010010000000000000000000000F0010000005888000220140605000101 00000000000000000000000000000000000000000000000000000000000000000000000000000000000000000000000000000000000000000N 00000000000NCONT   00    00000000000          00000000000000000000000000000000000000000000 000000000000000A000000000000000000000000000000000000000000000 000000000000000000000000000000000000000     00000000                                                                                                                        000000000000000000
F0010000005888000003000081102758700041750100000000000000000201406050002001C.I. ABRACOL S.A EMA                              D000000001148100000000000000000000100010010000000000000000000000F0010000005888000320140605000101 00000000000000000000000000000000000000000000000000000000000000000000000000000000000000000000000000000000000000000N 00000000000NCONT   00    00000000000          00000000000000000000000000000000000000000000 000000000000000A000000000000000000000000000000000000000000000 000000000000000000000000000000000000000     00000000                                                                                                                        000000000000000000
F0010000005888000004000081102758700042505000000000000000000201406050002001C.I. ABRACOL S.A EMA                              C000000025021200000000000000000000100010010000000000000000000000F0010000005888000420140605000101 00000000000000000000000000000000000000000000000000000000000000000000000000000000000000000000000000000000000000000N 00000000000NCONT   00    00000000000          00000000000000000000000000000000000000000000 000000000000000A000000000000000000000000000000000000000000000 000000000000000000000000000000000000000     00000000                                                                                                                        000000000000000000
F0010000005888000005000081102758700023658300000000000000000201406050002001C.I. ABRACOL S.A EMA                              C000000000306200000000000000000000100010010000000000000000000000F0010000005888000520140605000101 00000000000000000000000000000000000000000000000000000000000000000000000000000000000000000000000000000000000000000N 00000000000NCONT   00    00000000000          00000000000000000000000000000000000000000000 000000000000000A000000000000000000000000000000000000000000000 000000000000000000000000000000000000000     00000000                                                                                                                        000000000000000000
F0010000005888000006000081102758700013552100000000000000000201406050002001C.I. ABRACOL S.A EMA                              D000000000306200000000000000000000100010010000000000000000000000F0010000005888000620140605000101 00000000000000000000000000000000000000000000000000000000000000000000000000000000000000000000000000000000000000000N 00000000000NCONT   00    00000000000          00000000000000000000000000000000000000000000 000000000000000A000000000000000000000000000000000000000000000 000000000000000000000000000000000000000     00000000                                                                                                                        000000000000000000
F0010000005888100001000081102758700013050500000000000000000201406050002001C.I. ABRACOL S.A EMA                              D000000060315400000000000000000000100010010000000000000000000000F0010000005888100120140605000101 00000000000000000000000000000000000000000000000000000000000000000000000000000000000000000000000000000000000000000N 00000000000NCONT   00    00000000000          00000000000000000000000000000000000000000000 000000000000000A000000000000000000000000000000000000000000000 000000000000000000000000000000000000000     00000000                                                                                                                        000000000000000000
F0010000005888100002000081102758700041450500000000000000000201406050002001C.I. ABRACOL S.A EMA                              C000000042280000000000000000000000100010010000000000000000000000F0010000005888100220140605000101 00000000000000000000000000000000000000000000000000000000000000000000000000000000000000000000000000000000000000000N 00000000000NCONT   00    00000000000          00000000000000000000000000000000000000000000 000000000000000A000000000000000000000000000000000000000000000 000000000000000000000000000000000000000     00000000                                                                                                                        000000000000000000
F0010000005888100003000081102758700041750100000000000000000201406050002001C.I. ABRACOL S.A EMA                              D000000001268400000000000000000000100010010000000000000000000000F0010000005888100320140605000101 00000000000000000000000000000000000000000000000000000000000000000000000000000000000000000000000000000000000000000N 00000000000NCONT   00    00000000000          00000000000000000000000000000000000000000000 000000000000000A000000000000000000000000000000000000000000000 000000000000000000000000000000000000000     00000000                                                                                                                        000000000000000000
F0010000005888100004000081102758700042505000000000000000000201406050002001C.I. ABRACOL S.A EMA                              C000000019303800000000000000000000100010010000000000000000000000F0010000005888100420140605000101 00000000000000000000000000000000000000000000000000000000000000000000000000000000000000000000000000000000000000000N 00000000000NCONT   00    00000000000          00000000000000000000000000000000000000000000 000000000000000A000000000000000000000000000000000000000000000 000000000000000000000000000000000000000     00000000                                                                                                                        000000000000000000
F0010000005888100005000081102758700023658300000000000000000201406050002001C.I. ABRACOL S.A EMA                              C000000000338200000000000000000000100010010000000000000000000000F0010000005888100520140605000101 00000000000000000000000000000000000000000000000000000000000000000000000000000000000000000000000000000000000000000N 00000000000NCONT   00    00000000000          00000000000000000000000000000000000000000000 000000000000000A000000000000000000000000000000000000000000000 000000000000000000000000000000000000000     00000000                                                                                                                        000000000000000000
F0010000005888100006000081102758700013552100000000000000000201406050002001C.I. ABRACOL S.A EMA                              D000000000338200000000000000000000100010010000000000000000000000F0010000005888100620140605000101 00000000000000000000000000000000000000000000000000000000000000000000000000000000000000000000000000000000000000000N 00000000000NCONT   00    00000000000          00000000000000000000000000000000000000000000 000000000000000A000000000000000000000000000000000000000000000 000000000000000000000000000000000000000     00000000                                                                                                                        000000000000000000
F0010000005888200001000081102758700013050500000000000000000201406050002001C.I. ABRACOL S.A EMA                              D000000069155700000000000000000000100010010000000000000000000000F0010000005888200120140605000101 00000000000000000000000000000000000000000000000000000000000000000000000000000000000000000000000000000000000000000N 00000000000NCONT   00    00000000000          00000000000000000000000000000000000000000000 000000000000000A000000000000000000000000000000000000000000000 000000000000000000000000000000000000000     00000000                                                                                                                        000000000000000000
F0010000005888200002000081102758700041450500000000000000000201406050002001C.I. ABRACOL S.A EMA                              C000000048180000000000000000000000100010010000000000000000000000F0010000005888200220140605000101 00000000000000000000000000000000000000000000000000000000000000000000000000000000000000000000000000000000000000000N 00000000000NCONT   00    00000000000          00000000000000000000000000000000000000000000 000000000000000A000000000000000000000000000000000000000000000 000000000000000000000000000000000000000     00000000                                                                                                                        000000000000000000
F0010000005888200003000081102758700041750100000000000000000201406050002001C.I. ABRACOL S.A EMA                              D000000001445400000000000000000000100010010000000000000000000000F0010000005888200320140605000101 00000000000000000000000000000000000000000000000000000000000000000000000000000000000000000000000000000000000000000N 00000000000NCONT   00    00000000000          00000000000000000000000000000000000000000000 000000000000000A000000000000000000000000000000000000000000000 000000000000000000000000000000000000000     00000000                                                                                                                        000000000000000000
F0010000005888200004000081102758700042505000000000000000000201406050002001C.I. ABRACOL S.A EMA                              C000000022421100000000000000000000100010010000000000000000000000F0010000005888200420140605000101 00000000000000000000000000000000000000000000000000000000000000000000000000000000000000000000000000000000000000000N 00000000000NCONT   00    00000000000          00000000000000000000000000000000000000000000 000000000000000A000000000000000000000000000000000000000000000 000000000000000000000000000000000000000     00000000                                                                                                                        000000000000000000
F0010000005888200005000081102758700023658300000000000000000201406050002001C.I. ABRACOL S.A EMA                              C000000000385400000000000000000000100010010000000000000000000000F0010000005888200520140605000101 00000000000000000000000000000000000000000000000000000000000000000000000000000000000000000000000000000000000000000N 00000000000NCONT   00    00000000000          00000000000000000000000000000000000000000000 000000000000000A000000000000000000000000000000000000000000000 000000000000000000000000000000000000000     00000000                                                                                                                        000000000000000000
F0010000005888200006000081102758700013552100000000000000000201406050002001C.I. ABRACOL S.A EMA                              D000000000385400000000000000000000100010010000000000000000000000F0010000005888200620140605000101 00000000000000000000000000000000000000000000000000000000000000000000000000000000000000000000000000000000000000000N 00000000000NCONT   00    00000000000          00000000000000000000000000000000000000000000 000000000000000A000000000000000000000000000000000000000000000 000000000000000000000000000000000000000     00000000                                                                                                                        000000000000000000
F0010000005888300001000089011758300013050500000000000000000201406050002001GARCILLANTAS BARRANQUILLA S.A.                    D000000070495400000000000000000000100010010000000000000000000000F0010000005888300120140605000101 00000000000000000000000000000000000000000000000000000000000000000000000000000000000000000000000000000000000000000N 00000000000NCONT   00    00000000000          00000000000000000000000000000000000000000000 000000000000000A000000000000000000000000000000000000000000000 000000000000000000000000000000000000000     00000000                                                                                                                        000000000000000000
F0010000005888300002000089011758300041450500000000000000000201406050002001GARCILLANTAS BARRANQUILLA S.A.                    C000000045000000000000000000000000100010010000000000000000000000F0010000005888300220140605000101 00000000000000000000000000000000000000000000000000000000000000000000000000000000000000000000000000000000000000000N 00000000000NCONT   00    00000000000          00000000000000000000000000000000000000000000 000000000000000A000000000000000000000000000000000000000000000 000000000000000000000000000000000000000     00000000                                                                                                                        000000000000000000
F0010000005888300003000089011758300042505000000000000000000201406050002001GARCILLANTAS BARRANQUILLA S.A.                    C000000025495400000000000000000000100010010000000000000000000000F0010000005888300320140605000101 00000000000000000000000000000000000000000000000000000000000000000000000000000000000000000000000000000000000000000N 00000000000NCONT   00    00000000000          00000000000000000000000000000000000000000000 000000000000000A000000000000000000000000000000000000000000000 000000000000000000000000000000000000000     00000000                                                                                                                        000000000000000000
F0010000005888300004000089011758300023658300000000000000000201406050002001GARCILLANTAS BARRANQUILLA S.A.                    C000000000360000000000000000000000100010010000000000000000000000F0010000005888300420140605000101 00000000000000000000000000000000000000000000000000000000000000000000000000000000000000000000000000000000000000000N 00000000000NCONT   00    00000000000          00000000000000000000000000000000000000000000 000000000000000A000000000000000000000000000000000000000000000 000000000000000000000000000000000000000     00000000                                                                                                                        000000000000000000
F0010000005888300005000089011758300013552100000000000000000201406050002001GARCILLANTAS BARRANQUILLA S.A.                    D000000000360000000000000000000000100010010000000000000000000000F0010000005888300520140605000101 00000000000000000000000000000000000000000000000000000000000000000000000000000000000000000000000000000000000000000N 00000000000NCONT   00    00000000000          00000000000000000000000000000000000000000000 000000000000000A000000000000000000000000000000000000000000000 000000000000000000000000000000000000000     00000000                                                                                                                        000000000000000000
F0010000005888400001000080200503400013050500000000000000000201406050002001INGEQUIMICA LTDA                                  D000000122118000000000000000000000100010010000000000000000000000F0010000005888400120140605000101 00000000000000000000000000000000000000000000000000000000000000000000000000000000000000000000000000000000000000000N 00000000000NCONT   00    00000000000          00000000000000000000000000000000000000000000 000000000000000A000000000000000000000000000000000000000000000 000000000000000000000000000000000000000     00000000                                                                                                                        000000000000000000
F0010000005888400002000080200503400041450500000000000000000201406050002001INGEQUIMICA LTDA                                  C000000100000000000000000000000000100010010000000000000000000000F0010000005888400220140605000101 00000000000000000000000000000000000000000000000000000000000000000000000000000000000000000000000000000000000000000N 00000000000NCONT   00    00000000000          00000000000000000000000000000000000000000000 000000000000000A000000000000000000000000000000000000000000000 000000000000000000000000000000000000000     00000000                                                                                                                        000000000000000000
F0010000005888400003000080200503400042505000000000000000000201406050002001INGEQUIMICA LTDA                                  C000000022118000000000000000000000100010010000000000000000000000F0010000005888400320140605000101 00000000000000000000000000000000000000000000000000000000000000000000000000000000000000000000000000000000000000000N 00000000000NCONT   00    00000000000          00000000000000000000000000000000000000000000 000000000000000A000000000000000000000000000000000000000000000 000000000000000000000000000000000000000     00000000                                                                                                                        000000000000000000
F0010000005888400004000080200503400023658300000000000000000201406050002001INGEQUIMICA LTDA                                  C000000000800000000000000000000000100010010000000000000000000000F0010000005888400420140605000101 00000000000000000000000000000000000000000000000000000000000000000000000000000000000000000000000000000000000000000N 00000000000NCONT   00    00000000000          00000000000000000000000000000000000000000000 000000000000000A000000000000000000000000000000000000000000000 000000000000000000000000000000000000000     00000000                                                                                                                        000000000000000000
F0010000005888400005000080200503400013552100000000000000000201406050002001INGEQUIMICA LTDA                                  D000000000800000000000000000000000100010010000000000000000000000F0010000005888400520140605000101 00000000000000000000000000000000000000000000000000000000000000000000000000000000000000000000000000000000000000000N 00000000000NCONT   00    00000000000          00000000000000000000000000000000000000000000 000000000000000A000000000000000000000000000000000000000000000 000000000000000000000000000000000000000     00000000                                                                                                                        000000000000000000
F0010000005888500001000089011492400013050500000000000000000201406050002001AGE. CAUCHO SOL DE LA COSTA  SAS                  D000000074643800000000000000000000100010010000000000000000000000F0010000005888500120140605000101 00000000000000000000000000000000000000000000000000000000000000000000000000000000000000000000000000000000000000000N 00000000000NCONT   00    00000000000          00000000000000000000000000000000000000000000 000000000000000A000000000000000000000000000000000000000000000 000000000000000000000000000000000000000     00000000                                                                                                                        000000000000000000
F0010000005888500002000089011492400041450500000000000000000201406050002001AGE. CAUCHO SOL DE LA COSTA  SAS                  C000000042870000000000000000000000100010010000000000000000000000F0010000005888500220140605000101 00000000000000000000000000000000000000000000000000000000000000000000000000000000000000000000000000000000000000000N 00000000000NCONT   00    00000000000          00000000000000000000000000000000000000000000 000000000000000A000000000000000000000000000000000000000000000 000000000000000000000000000000000000000     00000000                                                                                                                        000000000000000000
F0010000005888500003000089011492400042505000000000000000000201406050002001AGE. CAUCHO SOL DE LA COSTA  SAS                  C000000031773800000000000000000000100010010000000000000000000000F0010000005888500320140605000101 00000000000000000000000000000000000000000000000000000000000000000000000000000000000000000000000000000000000000000N 00000000000NCONT   00    00000000000          00000000000000000000000000000000000000000000 000000000000000A000000000000000000000000000000000000000000000 000000000000000000000000000000000000000     00000000                                                                                                                        000000000000000000
F0010000005888500004000089011492400023658300000000000000000201406050002001AGE. CAUCHO SOL DE LA COSTA  SAS                  C000000000343000000000000000000000100010010000000000000000000000F0010000005888500420140605000101 00000000000000000000000000000000000000000000000000000000000000000000000000000000000000000000000000000000000000000N 00000000000NCONT   00    00000000000          00000000000000000000000000000000000000000000 000000000000000A000000000000000000000000000000000000000000000 000000000000000000000000000000000000000     00000000                                                                                                                        000000000000000000
F0010000005888500005000089011492400013552100000000000000000201406050002001AGE. CAUCHO SOL DE LA COSTA  SAS                  D000000000343000000000000000000000100010010000000000000000000000F0010000005888500520140605000101 00000000000000000000000000000000000000000000000000000000000000000000000000000000000000000000000000000000000000000N 00000000000NCONT   00    00000000000          00000000000000000000000000000000000000000000 000000000000000A000000000000000000000000000000000000000000000 000000000000000000000000000000000000000     00000000                                                                                                                        000000000000000000
F0010000005888600001000089011492400013050500000000000000000201406050002001AGE. CAUCHO SOL DE LA COSTA  SAS                  D000000087869100000000000000000000100010010000000000000000000000F0010000005888600120140605000101 00000000000000000000000000000000000000000000000000000000000000000000000000000000000000000000000000000000000000000N 00000000000NCONT   00    00000000000          00000000000000000000000000000000000000000000 000000000000000A000000000000000000000000000000000000000000000 000000000000000000000000000000000000000     00000000                                                                                                                        000000000000000000
F0010000005888600002000089011492400041450500000000000000000201406050002001AGE. CAUCHO SOL DE LA COSTA  SAS                  C000000049940000000000000000000000100010010000000000000000000000F0010000005888600220140605000101 00000000000000000000000000000000000000000000000000000000000000000000000000000000000000000000000000000000000000000N 00000000000NCONT   00    00000000000          00000000000000000000000000000000000000000000 000000000000000A000000000000000000000000000000000000000000000 000000000000000000000000000000000000000     00000000                                                                                                                        000000000000000000
F0010000005888600003000089011492400042505000000000000000000201406050002001AGE. CAUCHO SOL DE LA COSTA  SAS                  C000000037929100000000000000000000100010010000000000000000000000F0010000005888600320140605000101 00000000000000000000000000000000000000000000000000000000000000000000000000000000000000000000000000000000000000000N 00000000000NCONT   00    00000000000          00000000000000000000000000000000000000000000 000000000000000A000000000000000000000000000000000000000000000 000000000000000000000000000000000000000     00000000                                                                                                                        000000000000000000
F0010000005888600004000089011492400023658300000000000000000201406050002001AGE. CAUCHO SOL DE LA COSTA  SAS                  C000000000399500000000000000000000100010010000000000000000000000F0010000005888600420140605000101 00000000000000000000000000000000000000000000000000000000000000000000000000000000000000000000000000000000000000000N 00000000000NCONT   00    00000000000          00000000000000000000000000000000000000000000 000000000000000A000000000000000000000000000000000000000000000 000000000000000000000000000000000000000     00000000                                                                                                                        000000000000000000
F0010000005888600005000089011492400013552100000000000000000201406050002001AGE. CAUCHO SOL DE LA COSTA  SAS                  D000000000399500000000000000000000100010010000000000000000000000F0010000005888600520140605000101 00000000000000000000000000000000000000000000000000000000000000000000000000000000000000000000000000000000000000000N 00000000000NCONT   00    00000000000          00000000000000000000000000000000000000000000 000000000000000A000000000000000000000000000000000000000000000 000000000000000000000000000000000000000     00000000                                                                                                                        000000000000000000
F0010000005888700001000007218571000011050500000000000000000201406050002001MANUEL MENDOZA                                    D000000001300000000000000000000000100010010000000000000000000000F0010000005888700120140605000101 00000000000000000000000000000000000000000000000000000000000000000000000000000000000000000000000000000000000000000N 00000000000NCONT   00    00000000000          00000000000000000000000000000000000000000000 000000000000000A000000000000000000000000000000000000000000000 000000000000000000000000000000000000000     00000000                                                                                                                        000000000000000000
F0010000005888700002000007218571000041450500000000000000000201406050002001MANUEL MENDOZA                                    C000000001200000000000000000000000100010010000000000000000000000F0010000005888700220140605000101 00000000000000000000000000000000000000000000000000000000000000000000000000000000000000000000000000000000000000000N 00000000000NCONT   00    00000000000          00000000000000000000000000000000000000000000 000000000000000A000000000000000000000000000000000000000000000 000000000000000000000000000000000000000     00000000                                                                                                                        000000000000000000
F0010000005888700003000007218571000042505000000000000000000201406050002001MANUEL MENDOZA                                    C000000000100000000000000000000000100010010000000000000000000000F0010000005888700320140605000101 00000000000000000000000000000000000000000000000000000000000000000000000000000000000000000000000000000000000000000N 00000000000NCONT   00    00000000000          00000000000000000000000000000000000000000000 000000000000000A000000000000000000000000000000000000000000000 000000000000000000000000000000000000000     00000000                                                                                                                        000000000000000000
F0010000005888700004000007218571000023658300000000000000000201406050002001MANUEL MENDOZA                                    C000000000009600000000000000000000100010010000000000000000000000F0010000005888700420140605000101 00000000000000000000000000000000000000000000000000000000000000000000000000000000000000000000000000000000000000000N 00000000000NCONT   00    00000000000          00000000000000000000000000000000000000000000 000000000000000A000000000000000000000000000000000000000000000 000000000000000000000000000000000000000     00000000                                                                                                                        000000000000000000
F0010000005888700005000007218571000013552100000000000000000201406050002001MANUEL MENDOZA                                    D000000000009600000000000000000000100010010000000000000000000000F0010000005888700520140605000101 00000000000000000000000000000000000000000000000000000000000000000000000000000000000000000000000000000000000000000N 00000000000NCONT   00    00000000000          00000000000000000000000000000000000000000000 000000000000000A000000000000000000000000000000000000000000000 000000000000000000000000000000000000000     00000000                                                                                                                        000000000000000000
F0010000005888800001000081102758700013050500000000000000000201406050002001C.I. ABRACOL S.A EMA                              D000000064073500000000000000000000100010010000000000000000000000F0010000005888800120140605000101 00000000000000000000000000000000000000000000000000000000000000000000000000000000000000000000000000000000000000000N 00000000000NCONT   00    00000000000          00000000000000000000000000000000000000000000 000000000000000A000000000000000000000000000000000000000000000 000000000000000000000000000000000000000     00000000                                                                                                                        000000000000000000
F0010000005888800002000081102758700041450500000000000000000201406050002001C.I. ABRACOL S.A EMA                              C000000038770000000000000000000000100010010000000000000000000000F0010000005888800220140605000101 00000000000000000000000000000000000000000000000000000000000000000000000000000000000000000000000000000000000000000N 00000000000NCONT   00    00000000000          00000000000000000000000000000000000000000000 000000000000000A000000000000000000000000000000000000000000000 000000000000000000000000000000000000000     00000000                                                                                                                        000000000000000000
F0010000005888800003000081102758700041750100000000000000000201406050002001C.I. ABRACOL S.A EMA                              D000000001163100000000000000000000100010010000000000000000000000F0010000005888800320140605000101 00000000000000000000000000000000000000000000000000000000000000000000000000000000000000000000000000000000000000000N 00000000000NCONT   00    00000000000          00000000000000000000000000000000000000000000 000000000000000A000000000000000000000000000000000000000000000 000000000000000000000000000000000000000     00000000                                                                                                                        000000000000000000
F0010000005888800004000081102758700042505000000000000000000201406050002001C.I. ABRACOL S.A EMA                              C000000026466600000000000000000000100010010000000000000000000000F0010000005888800420140605000101 00000000000000000000000000000000000000000000000000000000000000000000000000000000000000000000000000000000000000000N 00000000000NCONT   00    00000000000          00000000000000000000000000000000000000000000 000000000000000A000000000000000000000000000000000000000000000 000000000000000000000000000000000000000     00000000                                                                                                                        000000000000000000
F0010000005888800005000081102758700023658300000000000000000201406050002001C.I. ABRACOL S.A EMA                              C000000000310200000000000000000000100010010000000000000000000000F0010000005888800520140605000101 00000000000000000000000000000000000000000000000000000000000000000000000000000000000000000000000000000000000000000N 00000000000NCONT   00    00000000000          00000000000000000000000000000000000000000000 000000000000000A000000000000000000000000000000000000000000000 000000000000000000000000000000000000000     00000000                                                                                                                        000000000000000000
F0010000005888800006000081102758700013552100000000000000000201406050002001C.I. ABRACOL S.A EMA                              D000000000310200000000000000000000100010010000000000000000000000F0010000005888800620140605000101 00000000000000000000000000000000000000000000000000000000000000000000000000000000000000000000000000000000000000000N 00000000000NCONT   00    00000000000          00000000000000000000000000000000000000000000 000000000000000A000000000000000000000000000000000000000000000 000000000000000000000000000000000000000     00000000                                                                                                                        000000000000000000
F0010000005888900001000081102758700013050500000000000000000201406050002001C.I. ABRACOL S.A EMA                              D000000071442600000000000000000000100010010000000000000000000000F0010000005888900120140605000101 00000000000000000000000000000000000000000000000000000000000000000000000000000000000000000000000000000000000000000N 00000000000NCONT   00    00000000000          00000000000000000000000000000000000000000000 000000000000000A000000000000000000000000000000000000000000000 000000000000000000000000000000000000000     00000000                                                                                                                        000000000000000000
F0010000005888900002000081102758700041450500000000000000000201406050002001C.I. ABRACOL S.A EMA                              C000000045700000000000000000000000100010010000000000000000000000F0010000005888900220140605000101 00000000000000000000000000000000000000000000000000000000000000000000000000000000000000000000000000000000000000000N 00000000000NCONT   00    00000000000          00000000000000000000000000000000000000000000 000000000000000A000000000000000000000000000000000000000000000 000000000000000000000000000000000000000     00000000                                                                                                                        000000000000000000
F0010000005888900003000081102758700041750100000000000000000201406050002001C.I. ABRACOL S.A EMA                              D000000001371000000000000000000000100010010000000000000000000000F0010000005888900320140605000101 00000000000000000000000000000000000000000000000000000000000000000000000000000000000000000000000000000000000000000N 00000000000NCONT   00    00000000000          00000000000000000000000000000000000000000000 000000000000000A000000000000000000000000000000000000000000000 000000000000000000000000000000000000000     00000000                                                                                                                        000000000000000000
F0010000005888900004000081102758700042505000000000000000000201406050002001C.I. ABRACOL S.A EMA                              C000000027113600000000000000000000100010010000000000000000000000F0010000005888900420140605000101 00000000000000000000000000000000000000000000000000000000000000000000000000000000000000000000000000000000000000000N 00000000000NCONT   00    00000000000          00000000000000000000000000000000000000000000 000000000000000A000000000000000000000000000000000000000000000 000000000000000000000000000000000000000     00000000                                                                                                                        000000000000000000
F0010000005888900005000081102758700023658300000000000000000201406050002001C.I. ABRACOL S.A EMA                              C000000000365600000000000000000000100010010000000000000000000000F0010000005888900520140605000101 00000000000000000000000000000000000000000000000000000000000000000000000000000000000000000000000000000000000000000N 00000000000NCONT   00    00000000000          00000000000000000000000000000000000000000000 000000000000000A000000000000000000000000000000000000000000000 000000000000000000000000000000000000000     00000000                                                                                                                        000000000000000000
F0010000005888900006000081102758700013552100000000000000000201406050002001C.I. ABRACOL S.A EMA                              D000000000365600000000000000000000100010010000000000000000000000F0010000005888900620140605000101 00000000000000000000000000000000000000000000000000000000000000000000000000000000000000000000000000000000000000000N 00000000000NCONT   00    00000000000          00000000000000000000000000000000000000000000 000000000000000A000000000000000000000000000000000000000000000 000000000000000000000000000000000000000     00000000                                                                                                                        000000000000000000
F0010000005889000001000081102758700013050500000000000000000201406050002001C.I. ABRACOL S.A EMA                              D000000009703500000000000000000000100010010000000000000000000000F0010000005889000120140605000101 00000000000000000000000000000000000000000000000000000000000000000000000000000000000000000000000000000000000000000N 00000000000NCONT   00    00000000000          00000000000000000000000000000000000000000000 000000000000000A000000000000000000000000000000000000000000000 000000000000000000000000000000000000000     00000000                                                                                                                        000000000000000000
F0010000005889000002000081102758700041450500000000000000000201406050002001C.I. ABRACOL S.A EMA                              C000000006230000000000000000000000100010010000000000000000000000F0010000005889000220140605000101 00000000000000000000000000000000000000000000000000000000000000000000000000000000000000000000000000000000000000000N 00000000000NCONT   00    00000000000          00000000000000000000000000000000000000000000 000000000000000A000000000000000000000000000000000000000000000 000000000000000000000000000000000000000     00000000                                                                                                                        000000000000000000
F0010000005889000003000081102758700041750100000000000000000201406050002001C.I. ABRACOL S.A EMA                              D000000000186900000000000000000000100010010000000000000000000000F0010000005889000320140605000101 00000000000000000000000000000000000000000000000000000000000000000000000000000000000000000000000000000000000000000N 00000000000NCONT   00    00000000000          00000000000000000000000000000000000000000000 000000000000000A000000000000000000000000000000000000000000000 000000000000000000000000000000000000000     00000000                                                                                                                        000000000000000000
F0010000005889000004000081102758700042505000000000000000000201406050002001C.I. ABRACOL S.A EMA                              C000000003660400000000000000000000100010010000000000000000000000F0010000005889000420140605000101 00000000000000000000000000000000000000000000000000000000000000000000000000000000000000000000000000000000000000000N 00000000000NCONT   00    00000000000          00000000000000000000000000000000000000000000 000000000000000A000000000000000000000000000000000000000000000 000000000000000000000000000000000000000     00000000                                                                                                                        000000000000000000
F0010000005889000005000081102758700023658300000000000000000201406050002001C.I. ABRACOL S.A EMA                              C000000000049800000000000000000000100010010000000000000000000000F0010000005889000520140605000101 00000000000000000000000000000000000000000000000000000000000000000000000000000000000000000000000000000000000000000N 00000000000NCONT   00    00000000000          00000000000000000000000000000000000000000000 000000000000000A000000000000000000000000000000000000000000000 000000000000000000000000000000000000000     00000000                                                                                                                        000000000000000000
F0010000005889000006000081102758700013552100000000000000000201406050002001C.I. ABRACOL S.A EMA                              D000000000049800000000000000000000100010010000000000000000000000F0010000005889000620140605000101 00000000000000000000000000000000000000000000000000000000000000000000000000000000000000000000000000000000000000000N 00000000000NCONT   00    00000000000          00000000000000000000000000000000000000000000 000000000000000A000000000000000000000000000000000000000000000 000000000000000000000000000000000000000     00000000                                                                                                                        000000000000000000
F0010000005889100001000081102758700013050500000000000000000201406050002001C.I. ABRACOL S.A EMA                              D000000055866900000000000000000000100010010000000000000000000000F0010000005889100120140605000101 00000000000000000000000000000000000000000000000000000000000000000000000000000000000000000000000000000000000000000N 00000000000NCONT   00    00000000000          00000000000000000000000000000000000000000000 000000000000000A000000000000000000000000000000000000000000000 000000000000000000000000000000000000000     00000000                                                                                                                        000000000000000000
F0010000005889100002000081102758700041450500000000000000000201406050002001C.I. ABRACOL S.A EMA                              C000000042116500000000000000000000100010010000000000000000000000F0010000005889100220140605000101 00000000000000000000000000000000000000000000000000000000000000000000000000000000000000000000000000000000000000000N 00000000000NCONT   00    00000000000          00000000000000000000000000000000000000000000 000000000000000A000000000000000000000000000000000000000000000 000000000000000000000000000000000000000     00000000                                                                                                                        000000000000000000
F0010000005889100003000081102758700041750100000000000000000201406050002001C.I. ABRACOL S.A EMA                              D000000001263500000000000000000000100010010000000000000000000000F0010000005889100320140605000101 00000000000000000000000000000000000000000000000000000000000000000000000000000000000000000000000000000000000000000N 00000000000NCONT   00    00000000000          00000000000000000000000000000000000000000000 000000000000000A000000000000000000000000000000000000000000000 000000000000000000000000000000000000000     00000000                                                                                                                        000000000000000000
F0010000005889100004000081102758700042505000000000000000000201406050002001C.I. ABRACOL S.A EMA                              C000000015013900000000000000000000100010010000000000000000000000F0010000005889100420140605000101 00000000000000000000000000000000000000000000000000000000000000000000000000000000000000000000000000000000000000000N 00000000000NCONT   00    00000000000          00000000000000000000000000000000000000000000 000000000000000A000000000000000000000000000000000000000000000 000000000000000000000000000000000000000     00000000                                                                                                                        000000000000000000
F0010000005889100005000081102758700023658300000000000000000201406050002001C.I. ABRACOL S.A EMA                              C000000000336900000000000000000000100010010000000000000000000000F0010000005889100520140605000101 00000000000000000000000000000000000000000000000000000000000000000000000000000000000000000000000000000000000000000N 00000000000NCONT   00    00000000000          00000000000000000000000000000000000000000000 000000000000000A000000000000000000000000000000000000000000000 000000000000000000000000000000000000000     00000000                                                                                                                        000000000000000000
F0010000005889100006000081102758700013552100000000000000000201406050002001C.I. ABRACOL S.A EMA                              D000000000336900000000000000000000100010010000000000000000000000F0010000005889100620140605000101 00000000000000000000000000000000000000000000000000000000000000000000000000000000000000000000000000000000000000000N 00000000000NCONT   00    00000000000          00000000000000000000000000000000000000000000 000000000000000A000000000000000000000000000000000000000000000 000000000000000000000000000000000000000     00000000                                                                                                                        000000000000000000
F0010000005889200001000080202229600013050500000000000000000201406050002001MUNDIAL DE ABRASIVOS S.A                          D000000049248600000000000000000000100010010000000000000000000000F0010000005889200120140605000101 00000000000000000000000000000000000000000000000000000000000000000000000000000000000000000000000000000000000000000N 00000000000NCONT   00    00000000000          00000000000000000000000000000000000000000000 000000000000000A000000000000000000000000000000000000000000000 000000000000000000000000000000000000000     00000000                                                                                                                        000000000000000000
F0010000005889200002000080202229600041450500000000000000000201406050002001MUNDIAL DE ABRASIVOS S.A                          C000000041782600000000000000000000100010010000000000000000000000F0010000005889200220140605000101 00000000000000000000000000000000000000000000000000000000000000000000000000000000000000000000000000000000000000000N 00000000000NCONT   00    00000000000          00000000000000000000000000000000000000000000 000000000000000A000000000000000000000000000000000000000000000 000000000000000000000000000000000000000     00000000                                                                                                                        000000000000000000
F0010000005889200003000080202229600042505000000000000000000201406050002001MUNDIAL DE ABRASIVOS S.A                          C000000007466000000000000000000000100010010000000000000000000000F0010000005889200320140605000101 00000000000000000000000000000000000000000000000000000000000000000000000000000000000000000000000000000000000000000N 00000000000NCONT   00    00000000000          00000000000000000000000000000000000000000000 000000000000000A000000000000000000000000000000000000000000000 000000000000000000000000000000000000000     00000000                                                                                                                        000000000000000000
F0010000005889200004000080202229600023658300000000000000000201406050002001MUNDIAL DE ABRASIVOS S.A                          C000000000334300000000000000000000100010010000000000000000000000F0010000005889200420140605000101 00000000000000000000000000000000000000000000000000000000000000000000000000000000000000000000000000000000000000000N 00000000000NCONT   00    00000000000          00000000000000000000000000000000000000000000 000000000000000A000000000000000000000000000000000000000000000 000000000000000000000000000000000000000     00000000                                                                                                                        000000000000000000
F0010000005889200005000080202229600013552100000000000000000201406050002001MUNDIAL DE ABRASIVOS S.A                          D000000000334300000000000000000000100010010000000000000000000000F0010000005889200520140605000101 00000000000000000000000000000000000000000000000000000000000000000000000000000000000000000000000000000000000000000N 00000000000NCONT   00    00000000000          00000000000000000000000000000000000000000000 000000000000000A000000000000000000000000000000000000000000000 000000000000000000000000000000000000000     00000000                                                                                                                        000000000000000000
F0010000005889300001000080202229600013050500000000000000000201406050002001MUNDIAL DE ABRASIVOS S.A                          D000000037560600000000000000000000100010010000000000000000000000F0010000005889300120140605000101 00000000000000000000000000000000000000000000000000000000000000000000000000000000000000000000000000000000000000000N 00000000000NCONT   00    00000000000          00000000000000000000000000000000000000000000 000000000000000A000000000000000000000000000000000000000000000 000000000000000000000000000000000000000     00000000                                                                                                                        000000000000000000
F0010000005889300002000080202229600041450500000000000000000201406050002001MUNDIAL DE ABRASIVOS S.A                          C000000031479800000000000000000000100010010000000000000000000000F0010000005889300220140605000101 00000000000000000000000000000000000000000000000000000000000000000000000000000000000000000000000000000000000000000N 00000000000NCONT   00    00000000000          00000000000000000000000000000000000000000000 000000000000000A000000000000000000000000000000000000000000000 000000000000000000000000000000000000000     00000000                                                                                                                        000000000000000000
F0010000005889300003000080202229600042505000000000000000000201406050002001MUNDIAL DE ABRASIVOS S.A                          C000000006080800000000000000000000100010010000000000000000000000F0010000005889300320140605000101 00000000000000000000000000000000000000000000000000000000000000000000000000000000000000000000000000000000000000000N 00000000000NCONT   00    00000000000          00000000000000000000000000000000000000000000 000000000000000A000000000000000000000000000000000000000000000 000000000000000000000000000000000000000     00000000                                                                                                                        000000000000000000
F0010000005889300004000080202229600023658300000000000000000201406050002001MUNDIAL DE ABRASIVOS S.A                          C000000000251800000000000000000000100010010000000000000000000000F0010000005889300420140605000101 00000000000000000000000000000000000000000000000000000000000000000000000000000000000000000000000000000000000000000N 00000000000NCONT   00    00000000000          00000000000000000000000000000000000000000000 000000000000000A000000000000000000000000000000000000000000000 000000000000000000000000000000000000000     00000000                                                                                                                        000000000000000000
F0010000005889300005000080202229600013552100000000000000000201406050002001MUNDIAL DE ABRASIVOS S.A                          D000000000251800000000000000000000100010010000000000000000000000F0010000005889300520140605000101 00000000000000000000000000000000000000000000000000000000000000000000000000000000000000000000000000000000000000000N 00000000000NCONT   00    00000000000          00000000000000000000000000000000000000000000 000000000000000A000000000000000000000000000000000000000000000 000000000000000000000000000000000000000     00000000                                                                                                                        000000000000000000
F0010000005889400001000080202229600013050500000000000000000201406050002001MUNDIAL DE ABRASIVOS S.A                          D000000025957900000000000000000000100010010000000000000000000000F0010000005889400120140605000101 00000000000000000000000000000000000000000000000000000000000000000000000000000000000000000000000000000000000000000N 00000000000NCONT   00    00000000000          00000000000000000000000000000000000000000000 000000000000000A000000000000000000000000000000000000000000000 000000000000000000000000000000000000000     00000000                                                                                                                        000000000000000000
F0010000005889400002000080202229600041450500000000000000000201406050002001MUNDIAL DE ABRASIVOS S.A                          C000000020850400000000000000000000100010010000000000000000000000F0010000005889400220140605000101 00000000000000000000000000000000000000000000000000000000000000000000000000000000000000000000000000000000000000000N 00000000000NCONT   00    00000000000          00000000000000000000000000000000000000000000 000000000000000A000000000000000000000000000000000000000000000 000000000000000000000000000000000000000     00000000                                                                                                                        000000000000000000
F0010000005889400003000080202229600042505000000000000000000201406050002001MUNDIAL DE ABRASIVOS S.A                          C000000005107500000000000000000000100010010000000000000000000000F0010000005889400320140605000101 00000000000000000000000000000000000000000000000000000000000000000000000000000000000000000000000000000000000000000N 00000000000NCONT   00    00000000000          00000000000000000000000000000000000000000000 000000000000000A000000000000000000000000000000000000000000000 000000000000000000000000000000000000000     00000000                                                                                                                        000000000000000000
F0010000005889400004000080202229600023658300000000000000000201406050002001MUNDIAL DE ABRASIVOS S.A                          C000000000166800000000000000000000100010010000000000000000000000F0010000005889400420140605000101 00000000000000000000000000000000000000000000000000000000000000000000000000000000000000000000000000000000000000000N 00000000000NCONT   00    00000000000          00000000000000000000000000000000000000000000 000000000000000A000000000000000000000000000000000000000000000 000000000000000000000000000000000000000     00000000                                                                                                                        000000000000000000
F0010000005889400005000080202229600013552100000000000000000201406050002001MUNDIAL DE ABRASIVOS S.A                          D000000000166800000000000000000000100010010000000000000000000000F0010000005889400520140605000101 00000000000000000000000000000000000000000000000000000000000000000000000000000000000000000000000000000000000000000N 00000000000NCONT   00    00000000000          00000000000000000000000000000000000000000000 000000000000000A000000000000000000000000000000000000000000000 000000000000000000000000000000000000000     00000000                                                                                                                        000000000000000000
F0010000005889500001000086000089600013050500000000000000000201406050002001SIKA COLOMBIA S.A.                                D000000004454700000000000000000000100010010000000000000000000000F0010000005889500120140605000101 00000000000000000000000000000000000000000000000000000000000000000000000000000000000000000000000000000000000000000N 00000000000NCONT   00    00000000000          00000000000000000000000000000000000000000000 000000000000000A000000000000000000000000000000000000000000000 000000000000000000000000000000000000000     00000000                                                                                                                        000000000000000000
F0010000005889500002000086000089600041450500000000000000000201406050002001SIKA COLOMBIA S.A.                                C000000003573800000000000000000000100010010000000000000000000000F0010000005889500220140605000101 00000000000000000000000000000000000000000000000000000000000000000000000000000000000000000000000000000000000000000N 00000000000NCONT   00    00000000000          00000000000000000000000000000000000000000000 000000000000000A000000000000000000000000000000000000000000000 000000000000000000000000000000000000000     00000000                                                                                                                        000000000000000000
F0010000005889500003000086000089600042505000000000000000000201406050002001SIKA COLOMBIA S.A.                                C000000000880900000000000000000000100010010000000000000000000000F0010000005889500320140605000101 00000000000000000000000000000000000000000000000000000000000000000000000000000000000000000000000000000000000000000N 00000000000NCONT   00    00000000000          00000000000000000000000000000000000000000000 000000000000000A000000000000000000000000000000000000000000000 000000000000000000000000000000000000000     00000000                                                                                                                        000000000000000000
F0010000005889500004000086000089600023658300000000000000000201406050002001SIKA COLOMBIA S.A.                                C000000000028600000000000000000000100010010000000000000000000000F0010000005889500420140605000101 00000000000000000000000000000000000000000000000000000000000000000000000000000000000000000000000000000000000000000N 00000000000NCONT   00    00000000000          00000000000000000000000000000000000000000000 000000000000000A000000000000000000000000000000000000000000000 000000000000000000000000000000000000000     00000000                                                                                                                        000000000000000000
F0010000005889500005000086000089600013552100000000000000000201406050002001SIKA COLOMBIA S.A.                                D000000000028600000000000000000000100010010000000000000000000000F0010000005889500520140605000101 00000000000000000000000000000000000000000000000000000000000000000000000000000000000000000000000000000000000000000N 00000000000NCONT   00    00000000000          00000000000000000000000000000000000000000000 000000000000000A000000000000000000000000000000000000000000000 000000000000000000000000000000000000000     00000000                                                                                                                        000000000000000000
F0010000005889600001000086000089600013050500000000000000000201406050002001SIKA COLOMBIA S.A.                                D000000022970800000000000000000000100010010000000000000000000000F0010000005889600120140605000101 00000000000000000000000000000000000000000000000000000000000000000000000000000000000000000000000000000000000000000N 00000000000NCONT   00    00000000000          00000000000000000000000000000000000000000000 000000000000000A000000000000000000000000000000000000000000000 000000000000000000000000000000000000000     00000000                                                                                                                        000000000000000000
F0010000005889600002000086000089600041450500000000000000000201406050002001SIKA COLOMBIA S.A.                                C000000020444700000000000000000000100010010000000000000000000000F0010000005889600220140605000101 00000000000000000000000000000000000000000000000000000000000000000000000000000000000000000000000000000000000000000N 00000000000NCONT   00    00000000000          00000000000000000000000000000000000000000000 000000000000000A000000000000000000000000000000000000000000000 000000000000000000000000000000000000000     00000000                                                                                                                        000000000000000000
F0010000005889600003000086000089600042505000000000000000000201406050002001SIKA COLOMBIA S.A.                                C000000002526100000000000000000000100010010000000000000000000000F0010000005889600320140605000101 00000000000000000000000000000000000000000000000000000000000000000000000000000000000000000000000000000000000000000N 00000000000NCONT   00    00000000000          00000000000000000000000000000000000000000000 000000000000000A000000000000000000000000000000000000000000000 000000000000000000000000000000000000000     00000000                                                                                                                        000000000000000000
F0010000005889600004000086000089600023658300000000000000000201406050002001SIKA COLOMBIA S.A.                                C000000000163600000000000000000000100010010000000000000000000000F0010000005889600420140605000101 00000000000000000000000000000000000000000000000000000000000000000000000000000000000000000000000000000000000000000N 00000000000NCONT   00    00000000000          00000000000000000000000000000000000000000000 000000000000000A000000000000000000000000000000000000000000000 000000000000000000000000000000000000000     00000000                                                                                                                        000000000000000000
F0010000005889600005000086000089600013552100000000000000000201406050002001SIKA COLOMBIA S.A.                                D000000000163600000000000000000000100010010000000000000000000000F0010000005889600520140605000101 00000000000000000000000000000000000000000000000000000000000000000000000000000000000000000000000000000000000000000N 00000000000NCONT   00    00000000000          00000000000000000000000000000000000000000000 000000000000000A000000000000000000000000000000000000000000000 000000000000000000000000000000000000000     00000000                                                                                                                        000000000000000000
F0010000005889700001000007213653800011050500000000000000000201406050002001VICTOR ECHAVEZ                                    D000000002400000000000000000000000100010010000000000000000000000F0010000005889700120140605000101 00000000000000000000000000000000000000000000000000000000000000000000000000000000000000000000000000000000000000000N 00000000000NCONT   00    00000000000          00000000000000000000000000000000000000000000 000000000000000A000000000000000000000000000000000000000000000 000000000000000000000000000000000000000     00000000                                                                                                                        000000000000000000
F0010000005889700002000007213653800041450500000000000000000201406050002001VICTOR ECHAVEZ                                    C000000001900000000000000000000000100010010000000000000000000000F0010000005889700220140605000101 00000000000000000000000000000000000000000000000000000000000000000000000000000000000000000000000000000000000000000N 00000000000NCONT   00    00000000000          00000000000000000000000000000000000000000000 000000000000000A000000000000000000000000000000000000000000000 000000000000000000000000000000000000000     00000000                                                                                                                        000000000000000000
F0010000005889700003000007213653800042505000000000000000000201406050002001VICTOR ECHAVEZ                                    C000000000500000000000000000000000100010010000000000000000000000F0010000005889700320140605000101 00000000000000000000000000000000000000000000000000000000000000000000000000000000000000000000000000000000000000000N 00000000000NCONT   00    00000000000          00000000000000000000000000000000000000000000 000000000000000A000000000000000000000000000000000000000000000 000000000000000000000000000000000000000     00000000                                                                                                                        000000000000000000
F0010000005889700004000007213653800023658300000000000000000201406050002001VICTOR ECHAVEZ                                    C000000000015200000000000000000000100010010000000000000000000000F0010000005889700420140605000101 00000000000000000000000000000000000000000000000000000000000000000000000000000000000000000000000000000000000000000N 00000000000NCONT   00    00000000000          00000000000000000000000000000000000000000000 000000000000000A000000000000000000000000000000000000000000000 000000000000000000000000000000000000000     00000000                                                                                                                        000000000000000000
F0010000005889700005000007213653800013552100000000000000000201406050002001VICTOR ECHAVEZ                                    D000000000015200000000000000000000100010010000000000000000000000F0010000005889700520140605000101 00000000000000000000000000000000000000000000000000000000000000000000000000000000000000000000000000000000000000000N 00000000000NCONT   00    00000000000          00000000000000000000000000000000000000000000 000000000000000A000000000000000000000000000000000000000000000 000000000000000000000000000000000000000     00000000                                                                                                                        000000000000000000
F0010000005889800001000086000089600013050500000000000000000201406050002001SIKA COLOMBIA S.A.                                D000000121072300000000000000000000100010010000000000000000000000F0010000005889800120140605000101 00000000000000000000000000000000000000000000000000000000000000000000000000000000000000000000000000000000000000000N 00000000000NCONT   00    00000000000          00000000000000000000000000000000000000000000 000000000000000A000000000000000000000000000000000000000000000 000000000000000000000000000000000000000     00000000                                                                                                                        000000000000000000
F0010000005889800002000086000089600041450500000000000000000201406050002001SIKA COLOMBIA S.A.                                C000000116000000000000000000000000100010010000000000000000000000F0010000005889800220140605000101 00000000000000000000000000000000000000000000000000000000000000000000000000000000000000000000000000000000000000000N 00000000000NCONT   00    00000000000          00000000000000000000000000000000000000000000 000000000000000A000000000000000000000000000000000000000000000 000000000000000000000000000000000000000     00000000                                                                                                                        000000000000000000
F0010000005889800003000086000089600042505000000000000000000201406050002001SIKA COLOMBIA S.A.                                C000000005072300000000000000000000100010010000000000000000000000F0010000005889800320140605000101 00000000000000000000000000000000000000000000000000000000000000000000000000000000000000000000000000000000000000000N 00000000000NCONT   00    00000000000          00000000000000000000000000000000000000000000 000000000000000A000000000000000000000000000000000000000000000 000000000000000000000000000000000000000     00000000                                                                                                                        000000000000000000
F0010000005889800004000086000089600023658300000000000000000201406050002001SIKA COLOMBIA S.A.                                C000000000928000000000000000000000100010010000000000000000000000F0010000005889800420140605000101 00000000000000000000000000000000000000000000000000000000000000000000000000000000000000000000000000000000000000000N 00000000000NCONT   00    00000000000          00000000000000000000000000000000000000000000 000000000000000A000000000000000000000000000000000000000000000 000000000000000000000000000000000000000     00000000                                                                                                                        000000000000000000
F0010000005889800005000086000089600013552100000000000000000201406050002001SIKA COLOMBIA S.A.                                D000000000928000000000000000000000100010010000000000000000000000F0010000005889800520140605000101 00000000000000000000000000000000000000000000000000000000000000000000000000000000000000000000000000000000000000000N 00000000000NCONT   00    00000000000          00000000000000000000000000000000000000000000 000000000000000A000000000000000000000000000000000000000000000 000000000000000000000000000000000000000     00000000                                                                                                                        000000000000000000
F0010000005889900001000083050133900011050500000000000000000201406050002001VALTAC DEL CARIBE LTDA                            D000000005000000000000000000000000100010010000000000000000000000F0010000005889900120140605000101 00000000000000000000000000000000000000000000000000000000000000000000000000000000000000000000000000000000000000000N 00000000000NCONT   00    00000000000          00000000000000000000000000000000000000000000 000000000000000A000000000000000000000000000000000000000000000 000000000000000000000000000000000000000     00000000                                                                                                                        000000000000000000
F0010000005889900002000083050133900041450500000000000000000201406050002001VALTAC DEL CARIBE LTDA                            C000000004500000000000000000000000100010010000000000000000000000F0010000005889900220140605000101 00000000000000000000000000000000000000000000000000000000000000000000000000000000000000000000000000000000000000000N 00000000000NCONT   00    00000000000          00000000000000000000000000000000000000000000 000000000000000A000000000000000000000000000000000000000000000 000000000000000000000000000000000000000     00000000                                                                                                                        000000000000000000
F0010000005889900003000083050133900042505000000000000000000201406050002001VALTAC DEL CARIBE LTDA                            C000000000500000000000000000000000100010010000000000000000000000F0010000005889900320140605000101 00000000000000000000000000000000000000000000000000000000000000000000000000000000000000000000000000000000000000000N 00000000000NCONT   00    00000000000          00000000000000000000000000000000000000000000 000000000000000A000000000000000000000000000000000000000000000 000000000000000000000000000000000000000     00000000                                                                                                                        000000000000000000
F0010000005889900004000083050133900023658300000000000000000201406050002001VALTAC DEL CARIBE LTDA                            C000000000036000000000000000000000100010010000000000000000000000F0010000005889900420140605000101 00000000000000000000000000000000000000000000000000000000000000000000000000000000000000000000000000000000000000000N 00000000000NCONT   00    00000000000          00000000000000000000000000000000000000000000 000000000000000A000000000000000000000000000000000000000000000 000000000000000000000000000000000000000     00000000                                                                                                                        000000000000000000
F0010000005889900005000083050133900013552100000000000000000201406050002001VALTAC DEL CARIBE LTDA                            D000000000036000000000000000000000100010010000000000000000000000F0010000005889900520140605000101 00000000000000000000000000000000000000000000000000000000000000000000000000000000000000000000000000000000000000000N 00000000000NCONT   00    00000000000          00000000000000000000000000000000000000000000 000000000000000A000000000000000000000000000000000000000000000 000000000000000000000000000000000000000     00000000                                                                                                                        000000000000000000
F0010000005890000001000086000089600013050500000000000000000201406050002001SIKA COLOMBIA S.A.                                D000000184673000000000000000000000100010010000000000000000000000F0010000005890000120140605000101 00000000000000000000000000000000000000000000000000000000000000000000000000000000000000000000000000000000000000000N 00000000000NCONT   00    00000000000          00000000000000000000000000000000000000000000 000000000000000A000000000000000000000000000000000000000000000 000000000000000000000000000000000000000     00000000                                                                                                                        000000000000000000
F0010000005890000002000086000089600041450500000000000000000201406050002001SIKA COLOMBIA S.A.                                C000000179684900000000000000000000100010010000000000000000000000F0010000005890000220140605000101 00000000000000000000000000000000000000000000000000000000000000000000000000000000000000000000000000000000000000000N 00000000000NCONT   00    00000000000          00000000000000000000000000000000000000000000 000000000000000A000000000000000000000000000000000000000000000 000000000000000000000000000000000000000     00000000                                                                                                                        000000000000000000
F0010000005890000003000086000089600042505000000000000000000201406050002001SIKA COLOMBIA S.A.                                C000000004988100000000000000000000100010010000000000000000000000F0010000005890000320140605000101 00000000000000000000000000000000000000000000000000000000000000000000000000000000000000000000000000000000000000000N 00000000000NCONT   00    00000000000          00000000000000000000000000000000000000000000 000000000000000A000000000000000000000000000000000000000000000 000000000000000000000000000000000000000     00000000                                                                                                                        000000000000000000
F0010000005890000004000086000089600023658300000000000000000201406050002001SIKA COLOMBIA S.A.                                C000000001437500000000000000000000100010010000000000000000000000F0010000005890000420140605000101 00000000000000000000000000000000000000000000000000000000000000000000000000000000000000000000000000000000000000000N 00000000000NCONT   00    00000000000          00000000000000000000000000000000000000000000 000000000000000A000000000000000000000000000000000000000000000 000000000000000000000000000000000000000     00000000                                                                                                                        000000000000000000
F0010000005890000005000086000089600013552100000000000000000201406050002001SIKA COLOMBIA S.A.                                D000000001437500000000000000000000100010010000000000000000000000F0010000005890000520140605000101 00000000000000000000000000000000000000000000000000000000000000000000000000000000000000000000000000000000000000000N 00000000000NCONT   00    00000000000          00000000000000000000000000000000000000000000 000000000000000A000000000000000000000000000000000000000000000 000000000000000000000000000000000000000     00000000                                                                                                                        000000000000000000
F0010000005890100001000080202486100011050500000000000000000201406050002001DISTRIBUIDORA RAMBAL LTDA                         D000000001450000000000000000000000100010010000000000000000000000F0010000005890100120140605000101 00000000000000000000000000000000000000000000000000000000000000000000000000000000000000000000000000000000000000000N 00000000000NCONT   00    00000000000          00000000000000000000000000000000000000000000 000000000000000A000000000000000000000000000000000000000000000 000000000000000000000000000000000000000     00000000                                                                                                                        000000000000000000
F0010000005890100002000080202486100041450500000000000000000201406050002001DISTRIBUIDORA RAMBAL LTDA                         C000000001350000000000000000000000100010010000000000000000000000F0010000005890100220140605000101 00000000000000000000000000000000000000000000000000000000000000000000000000000000000000000000000000000000000000000N 00000000000NCONT   00    00000000000          00000000000000000000000000000000000000000000 000000000000000A000000000000000000000000000000000000000000000 000000000000000000000000000000000000000     00000000                                                                                                                        000000000000000000
F0010000005890100003000080202486100042505000000000000000000201406050002001DISTRIBUIDORA RAMBAL LTDA                         C000000000100000000000000000000000100010010000000000000000000000F0010000005890100320140605000101 00000000000000000000000000000000000000000000000000000000000000000000000000000000000000000000000000000000000000000N 00000000000NCONT   00    00000000000          00000000000000000000000000000000000000000000 000000000000000A000000000000000000000000000000000000000000000 000000000000000000000000000000000000000     00000000                                                                                                                        000000000000000000
F0010000005890100004000080202486100023658300000000000000000201406050002001DISTRIBUIDORA RAMBAL LTDA                         C000000000010800000000000000000000100010010000000000000000000000F0010000005890100420140605000101 00000000000000000000000000000000000000000000000000000000000000000000000000000000000000000000000000000000000000000N 00000000000NCONT   00    00000000000          00000000000000000000000000000000000000000000 000000000000000A000000000000000000000000000000000000000000000 000000000000000000000000000000000000000     00000000                                                                                                                        000000000000000000
F0010000005890100005000080202486100013552100000000000000000201406050002001DISTRIBUIDORA RAMBAL LTDA                         D000000000010800000000000000000000100010010000000000000000000000F0010000005890100520140605000101 00000000000000000000000000000000000000000000000000000000000000000000000000000000000000000000000000000000000000000N 00000000000NCONT   00    00000000000          00000000000000000000000000000000000000000000 000000000000000A000000000000000000000000000000000000000000000 000000000000000000000000000000000000000     00000000                                                                                                                        000000000000000000
F0010000005890200001000002245670100011050500000000000000000201406050002001YOLANDA  TOBON                                    D000000010500000000000000000000000100010010000000000000000000000F0010000005890200120140605000101 00000000000000000000000000000000000000000000000000000000000000000000000000000000000000000000000000000000000000000N 00000000000NCONT   00    00000000000          00000000000000000000000000000000000000000000 000000000000000A000000000000000000000000000000000000000000000 000000000000000000000000000000000000000     00000000                                                                                                                        000000000000000000
F0010000005890200002000002245670100041450500000000000000000201406050002001YOLANDA  TOBON                                    C000000008900000000000000000000000100010010000000000000000000000F0010000005890200220140605000101 00000000000000000000000000000000000000000000000000000000000000000000000000000000000000000000000000000000000000000N 00000000000NCONT   00    00000000000          00000000000000000000000000000000000000000000 000000000000000A000000000000000000000000000000000000000000000 000000000000000000000000000000000000000     00000000                                                                                                                        000000000000000000
F0010000005890200003000002245670100042505000000000000000000201406050002001YOLANDA  TOBON                                    C000000001600000000000000000000000100010010000000000000000000000F0010000005890200320140605000101 00000000000000000000000000000000000000000000000000000000000000000000000000000000000000000000000000000000000000000N 00000000000NCONT   00    00000000000          00000000000000000000000000000000000000000000 000000000000000A000000000000000000000000000000000000000000000 000000000000000000000000000000000000000     00000000                                                                                                                        000000000000000000
F0010000005890200004000002245670100023658300000000000000000201406050002001YOLANDA  TOBON                                    C000000000071200000000000000000000100010010000000000000000000000F0010000005890200420140605000101 00000000000000000000000000000000000000000000000000000000000000000000000000000000000000000000000000000000000000000N 00000000000NCONT   00    00000000000          00000000000000000000000000000000000000000000 000000000000000A000000000000000000000000000000000000000000000 000000000000000000000000000000000000000     00000000                                                                                                                        000000000000000000
F0010000005890200005000002245670100013552100000000000000000201406050002001YOLANDA  TOBON                                    D000000000071200000000000000000000100010010000000000000000000000F0010000005890200520140605000101 00000000000000000000000000000000000000000000000000000000000000000000000000000000000000000000000000000000000000000N 00000000000NCONT   00    00000000000          00000000000000000000000000000000000000000000 000000000000000A000000000000000000000000000000000000000000000 000000000000000000000000000000000000000     00000000                                                                                                                        000000000000000000
F0010000005890300001000090034602400011050500000000000000000201406050002001LA CUSTODIA                                       D000000008000000000000000000000000100010010000000000000000000000F0010000005890300120140605000101 00000000000000000000000000000000000000000000000000000000000000000000000000000000000000000000000000000000000000000N 00000000000NCONT   00    00000000000          00000000000000000000000000000000000000000000 000000000000000A000000000000000000000000000000000000000000000 000000000000000000000000000000000000000     00000000                                                                                                                        000000000000000000
F0010000005890300002000090034602400041450500000000000000000201406050002001LA CUSTODIA                                       C000000007200000000000000000000000100010010000000000000000000000F0010000005890300220140605000101 00000000000000000000000000000000000000000000000000000000000000000000000000000000000000000000000000000000000000000N 00000000000NCONT   00    00000000000          00000000000000000000000000000000000000000000 000000000000000A000000000000000000000000000000000000000000000 000000000000000000000000000000000000000     00000000                                                                                                                        000000000000000000
F0010000005890300003000090034602400042505000000000000000000201406050002001LA CUSTODIA                                       C000000000800000000000000000000000100010010000000000000000000000F0010000005890300320140605000101 00000000000000000000000000000000000000000000000000000000000000000000000000000000000000000000000000000000000000000N 00000000000NCONT   00    00000000000          00000000000000000000000000000000000000000000 000000000000000A000000000000000000000000000000000000000000000 000000000000000000000000000000000000000     00000000                                                                                                                        000000000000000000
F0010000005890300004000090034602400023658300000000000000000201406050002001LA CUSTODIA                                       C000000000057600000000000000000000100010010000000000000000000000F0010000005890300420140605000101 00000000000000000000000000000000000000000000000000000000000000000000000000000000000000000000000000000000000000000N 00000000000NCONT   00    00000000000          00000000000000000000000000000000000000000000 000000000000000A000000000000000000000000000000000000000000000 000000000000000000000000000000000000000     00000000                                                                                                                        000000000000000000
F0010000005890300005000090034602400013552100000000000000000201406050002001LA CUSTODIA                                       D000000000057600000000000000000000100010010000000000000000000000F0010000005890300520140605000101 00000000000000000000000000000000000000000000000000000000000000000000000000000000000000000000000000000000000000000N 00000000000NCONT   00    00000000000          00000000000000000000000000000000000000000000 000000000000000A000000000000000000000000000000000000000000000 000000000000000000000000000000000000000     00000000                                                                                                                        000000000000000000
F0010000005890400001000090034602400011050500000000000000000201406050002001LA CUSTODIA                                       D000000001000000000000000000000000100010010000000000000000000000F0010000005890400120140605000101 00000000000000000000000000000000000000000000000000000000000000000000000000000000000000000000000000000000000000000N 00000000000NCONT   00    00000000000          00000000000000000000000000000000000000000000 000000000000000A000000000000000000000000000000000000000000000 000000000000000000000000000000000000000     00000000                                                                                                                        000000000000000000
F0010000005890400002000090034602400041450500000000000000000201406050002001LA CUSTODIA                                       C000000000900000000000000000000000100010010000000000000000000000F0010000005890400220140605000101 00000000000000000000000000000000000000000000000000000000000000000000000000000000000000000000000000000000000000000N 00000000000NCONT   00    00000000000          00000000000000000000000000000000000000000000 000000000000000A000000000000000000000000000000000000000000000 000000000000000000000000000000000000000     00000000                                                                                                                        000000000000000000
F0010000005890400003000090034602400042505000000000000000000201406050002001LA CUSTODIA                                       C000000000100000000000000000000000100010010000000000000000000000F0010000005890400320140605000101 00000000000000000000000000000000000000000000000000000000000000000000000000000000000000000000000000000000000000000N 00000000000NCONT   00    00000000000          00000000000000000000000000000000000000000000 000000000000000A000000000000000000000000000000000000000000000 000000000000000000000000000000000000000     00000000                                                                                                                        000000000000000000
