F0010000006322800001000080201112800013050500000000000000000201409260002001CANGURO INTERNATIONAL S.A.                        D000000135938600000000000000000000100010010000000000000000000000F0010000006322800120140926000101 00000000000000000000000000000000000000000000000000000000000000000000000000000000000000000000000000000000000000000N 00000000000NCONT   00    00000000000          00000000000000000000000000000000000000000000 000000000000000A000000000000000000000000000000000000000000000 000000000000000000000000000000000000000     00000000                                                                                                                        000000000000000000
F0010000006322800002000080201112800041450500000000000000000201409260002001CANGURO INTERNATIONAL S.A.                        C000000135728800000000000000000000100010010000000000000000000000F0010000006322800220140926000101 00000000000000000000000000000000000000000000000000000000000000000000000000000000000000000000000000000000000000000N 00000000000NCONT   00    00000000000          00000000000000000000000000000000000000000000 000000000000000A000000000000000000000000000000000000000000000 000000000000000000000000000000000000000     00000000                                                                                                                        000000000000000000
F0010000006322800003000080201112800042505000000000000000000201409260002001CANGURO INTERNATIONAL S.A.                        C000000000209800000000000000000000100010010000000000000000000000F0010000006322800320140926000101 00000000000000000000000000000000000000000000000000000000000000000000000000000000000000000000000000000000000000000N 00000000000NCONT   00    00000000000          00000000000000000000000000000000000000000000 000000000000000A000000000000000000000000000000000000000000000 000000000000000000000000000000000000000     00000000                                                                                                                        000000000000000000
F0010000006322800004000080201112800023658300000000000000000201409260002001CANGURO INTERNATIONAL S.A.                        C000000001085800000000000000000000100010010000000000000000000000F0010000006322800420140926000101 00000000000000000000000000000000000000000000000000000000000000000000000000000000000000000000000000000000000000000N 00000000000NCONT   00    00000000000          00000000000000000000000000000000000000000000 000000000000000A000000000000000000000000000000000000000000000 000000000000000000000000000000000000000     00000000                                                                                                                        000000000000000000
F0010000006322800005000080201112800013552100000000000000000201409260002001CANGURO INTERNATIONAL S.A.                        D000000001085800000000000000000000100010010000000000000000000000F0010000006322800520140926000101 00000000000000000000000000000000000000000000000000000000000000000000000000000000000000000000000000000000000000000N 00000000000NCONT   00    00000000000          00000000000000000000000000000000000000000000 000000000000000A000000000000000000000000000000000000000000000 000000000000000000000000000000000000000     00000000                                                                                                                        000000000000000000
F0010000006322900001000080201112800013050500000000000000000201409260002001CANGURO INTERNATIONAL S.A.                        D000000109911500000000000000000000100010010000000000000000000000F0010000006322900120140926000101 00000000000000000000000000000000000000000000000000000000000000000000000000000000000000000000000000000000000000000N 00000000000NCONT   00    00000000000          00000000000000000000000000000000000000000000 000000000000000A000000000000000000000000000000000000000000000 000000000000000000000000000000000000000     00000000                                                                                                                        000000000000000000
F0010000006322900002000080201112800041450500000000000000000201409260002001CANGURO INTERNATIONAL S.A.                        C000000109775400000000000000000000100010010000000000000000000000F0010000006322900220140926000101 00000000000000000000000000000000000000000000000000000000000000000000000000000000000000000000000000000000000000000N 00000000000NCONT   00    00000000000          00000000000000000000000000000000000000000000 000000000000000A000000000000000000000000000000000000000000000 000000000000000000000000000000000000000     00000000                                                                                                                        000000000000000000
F0010000006322900003000080201112800042505000000000000000000201409260002001CANGURO INTERNATIONAL S.A.                        C000000000136100000000000000000000100010010000000000000000000000F0010000006322900320140926000101 00000000000000000000000000000000000000000000000000000000000000000000000000000000000000000000000000000000000000000N 00000000000NCONT   00    00000000000          00000000000000000000000000000000000000000000 000000000000000A000000000000000000000000000000000000000000000 000000000000000000000000000000000000000     00000000                                                                                                                        000000000000000000
F0010000006322900004000080201112800023658300000000000000000201409260002001CANGURO INTERNATIONAL S.A.                        C000000000878200000000000000000000100010010000000000000000000000F0010000006322900420140926000101 00000000000000000000000000000000000000000000000000000000000000000000000000000000000000000000000000000000000000000N 00000000000NCONT   00    00000000000          00000000000000000000000000000000000000000000 000000000000000A000000000000000000000000000000000000000000000 000000000000000000000000000000000000000     00000000                                                                                                                        000000000000000000
F0010000006322900005000080201112800013552100000000000000000201409260002001CANGURO INTERNATIONAL S.A.                        D000000000878200000000000000000000100010010000000000000000000000F0010000006322900520140926000101 00000000000000000000000000000000000000000000000000000000000000000000000000000000000000000000000000000000000000000N 00000000000NCONT   00    00000000000          00000000000000000000000000000000000000000000 000000000000000A000000000000000000000000000000000000000000000 000000000000000000000000000000000000000     00000000                                                                                                                        000000000000000000
F0010000006323000001000080201112800013050500000000000000000201409260002001CANGURO INTERNATIONAL S.A.                        D000000005641000000000000000000000100010010000000000000000000000F0010000006323000120140926000101 00000000000000000000000000000000000000000000000000000000000000000000000000000000000000000000000000000000000000000N 00000000000NCONT   00    00000000000          00000000000000000000000000000000000000000000 000000000000000A000000000000000000000000000000000000000000000 000000000000000000000000000000000000000     00000000                                                                                                                        000000000000000000
F0010000006323000002000080201112800041450500000000000000000201409260002001CANGURO INTERNATIONAL S.A.                        C000000005641000000000000000000000100010010000000000000000000000F0010000006323000220140926000101 00000000000000000000000000000000000000000000000000000000000000000000000000000000000000000000000000000000000000000N 00000000000NCONT   00    00000000000          00000000000000000000000000000000000000000000 000000000000000A000000000000000000000000000000000000000000000 000000000000000000000000000000000000000     00000000                                                                                                                        000000000000000000
F0010000006323000003000080201112800042505000000000000000000201409260002001CANGURO INTERNATIONAL S.A.                        C000000000000000000000000000000000100010010000000000000000000000F0010000006323000320140926000101 00000000000000000000000000000000000000000000000000000000000000000000000000000000000000000000000000000000000000000N 00000000000NCONT   00    00000000000          00000000000000000000000000000000000000000000 000000000000000A000000000000000000000000000000000000000000000 000000000000000000000000000000000000000     00000000                                                                                                                        000000000000000000
F0010000006323000004000080201112800023658300000000000000000201409260002001CANGURO INTERNATIONAL S.A.                        C000000000045100000000000000000000100010010000000000000000000000F0010000006323000420140926000101 00000000000000000000000000000000000000000000000000000000000000000000000000000000000000000000000000000000000000000N 00000000000NCONT   00    00000000000          00000000000000000000000000000000000000000000 000000000000000A000000000000000000000000000000000000000000000 000000000000000000000000000000000000000     00000000                                                                                                                        000000000000000000
F0010000006323000005000080201112800013552100000000000000000201409260002001CANGURO INTERNATIONAL S.A.                        D000000000045100000000000000000000100010010000000000000000000000F0010000006323000520140926000101 00000000000000000000000000000000000000000000000000000000000000000000000000000000000000000000000000000000000000000N 00000000000NCONT   00    00000000000          00000000000000000000000000000000000000000000 000000000000000A000000000000000000000000000000000000000000000 000000000000000000000000000000000000000     00000000                                                                                                                        000000000000000000
F0010000006323100001000000746639000011050500000000000000000201409260002001LIBARDO AHUMADA GOMEZ(JUAN DAVID GALEANO)         D000000005000000000000000000000000100010010000000000000000000000F0010000006323100120140926000101 00000000000000000000000000000000000000000000000000000000000000000000000000000000000000000000000000000000000000000N 00000000000NCONT   00    00000000000          00000000000000000000000000000000000000000000 000000000000000A000000000000000000000000000000000000000000000 000000000000000000000000000000000000000     00000000                                                                                                                        000000000000000000
F0010000006323100002000000746639000041450500000000000000000201409260002001LIBARDO AHUMADA GOMEZ(JUAN DAVID GALEANO)         C000000004500000000000000000000000100010010000000000000000000000F0010000006323100220140926000101 00000000000000000000000000000000000000000000000000000000000000000000000000000000000000000000000000000000000000000N 00000000000NCONT   00    00000000000          00000000000000000000000000000000000000000000 000000000000000A000000000000000000000000000000000000000000000 000000000000000000000000000000000000000     00000000                                                                                                                        000000000000000000
F0010000006323100003000000746639000042505000000000000000000201409260002001LIBARDO AHUMADA GOMEZ(JUAN DAVID GALEANO)         C000000000500000000000000000000000100010010000000000000000000000F0010000006323100320140926000101 00000000000000000000000000000000000000000000000000000000000000000000000000000000000000000000000000000000000000000N 00000000000NCONT   00    00000000000          00000000000000000000000000000000000000000000 000000000000000A000000000000000000000000000000000000000000000 000000000000000000000000000000000000000     00000000                                                                                                                        000000000000000000
F0010000006323100004000000746639000023658300000000000000000201409260002001LIBARDO AHUMADA GOMEZ(JUAN DAVID GALEANO)         C000000000036000000000000000000000100010010000000000000000000000F0010000006323100420140926000101 00000000000000000000000000000000000000000000000000000000000000000000000000000000000000000000000000000000000000000N 00000000000NCONT   00    00000000000          00000000000000000000000000000000000000000000 000000000000000A000000000000000000000000000000000000000000000 000000000000000000000000000000000000000     00000000                                                                                                                        000000000000000000
F0010000006323100005000000746639000013552100000000000000000201409260002001LIBARDO AHUMADA GOMEZ(JUAN DAVID GALEANO)         D000000000036000000000000000000000100010010000000000000000000000F0010000006323100520140926000101 00000000000000000000000000000000000000000000000000000000000000000000000000000000000000000000000000000000000000000N 00000000000NCONT   00    00000000000          00000000000000000000000000000000000000000000 000000000000000A000000000000000000000000000000000000000000000 000000000000000000000000000000000000000     00000000                                                                                                                        000000000000000000
F0010000006323200001000080000084600011050500000000000000000201409260002001ALUMINIOS Y ACCESORIOS DEL ATLANTICO LTDA         D000000007000000000000000000000000100010010000000000000000000000F0010000006323200120140926000101 00000000000000000000000000000000000000000000000000000000000000000000000000000000000000000000000000000000000000000N 00000000000NCONT   00    00000000000          00000000000000000000000000000000000000000000 000000000000000A000000000000000000000000000000000000000000000 000000000000000000000000000000000000000     00000000                                                                                                                        000000000000000000
F0010000006323200002000080000084600041450500000000000000000201409260002001ALUMINIOS Y ACCESORIOS DEL ATLANTICO LTDA         C000000006100000000000000000000000100010010000000000000000000000F0010000006323200220140926000101 00000000000000000000000000000000000000000000000000000000000000000000000000000000000000000000000000000000000000000N 00000000000NCONT   00    00000000000          00000000000000000000000000000000000000000000 000000000000000A000000000000000000000000000000000000000000000 000000000000000000000000000000000000000     00000000                                                                                                                        000000000000000000
F0010000006323200003000080000084600042505000000000000000000201409260002001ALUMINIOS Y ACCESORIOS DEL ATLANTICO LTDA         C000000000900000000000000000000000100010010000000000000000000000F0010000006323200320140926000101 00000000000000000000000000000000000000000000000000000000000000000000000000000000000000000000000000000000000000000N 00000000000NCONT   00    00000000000          00000000000000000000000000000000000000000000 000000000000000A000000000000000000000000000000000000000000000 000000000000000000000000000000000000000     00000000                                                                                                                        000000000000000000
F0010000006323200004000080000084600023658300000000000000000201409260002001ALUMINIOS Y ACCESORIOS DEL ATLANTICO LTDA         C000000000048800000000000000000000100010010000000000000000000000F0010000006323200420140926000101 00000000000000000000000000000000000000000000000000000000000000000000000000000000000000000000000000000000000000000N 00000000000NCONT   00    00000000000          00000000000000000000000000000000000000000000 000000000000000A000000000000000000000000000000000000000000000 000000000000000000000000000000000000000     00000000                                                                                                                        000000000000000000
F0010000006323200005000080000084600013552100000000000000000201409260002001ALUMINIOS Y ACCESORIOS DEL ATLANTICO LTDA         D000000000048800000000000000000000100010010000000000000000000000F0010000006323200520140926000101 00000000000000000000000000000000000000000000000000000000000000000000000000000000000000000000000000000000000000000N 00000000000NCONT   00    00000000000          00000000000000000000000000000000000000000000 000000000000000A000000000000000000000000000000000000000000000 000000000000000000000000000000000000000     00000000                                                                                                                        000000000000000000
F0010000006323300001000114081940500011050500000000000000000201409260002001JOAQUIN BALLESTAS POLO                            D000000001200000000000000000000000100010010000000000000000000000F0010000006323300120140926000101 00000000000000000000000000000000000000000000000000000000000000000000000000000000000000000000000000000000000000000N 00000000000NCONT   00    00000000000          00000000000000000000000000000000000000000000 000000000000000A000000000000000000000000000000000000000000000 000000000000000000000000000000000000000     00000000                                                                                                                        000000000000000000
F0010000006323300002000114081940500041450500000000000000000201409260002001JOAQUIN BALLESTAS POLO                            C000000000900000000000000000000000100010010000000000000000000000F0010000006323300220140926000101 00000000000000000000000000000000000000000000000000000000000000000000000000000000000000000000000000000000000000000N 00000000000NCONT   00    00000000000          00000000000000000000000000000000000000000000 000000000000000A000000000000000000000000000000000000000000000 000000000000000000000000000000000000000     00000000                                                                                                                        000000000000000000
F0010000006323300003000114081940500042505000000000000000000201409260002001JOAQUIN BALLESTAS POLO                            C000000000300000000000000000000000100010010000000000000000000000F0010000006323300320140926000101 00000000000000000000000000000000000000000000000000000000000000000000000000000000000000000000000000000000000000000N 00000000000NCONT   00    00000000000          00000000000000000000000000000000000000000000 000000000000000A000000000000000000000000000000000000000000000 000000000000000000000000000000000000000     00000000                                                                                                                        000000000000000000
F0010000006323300004000114081940500023658300000000000000000201409260002001JOAQUIN BALLESTAS POLO                            C000000000007200000000000000000000100010010000000000000000000000F0010000006323300420140926000101 00000000000000000000000000000000000000000000000000000000000000000000000000000000000000000000000000000000000000000N 00000000000NCONT   00    00000000000          00000000000000000000000000000000000000000000 000000000000000A000000000000000000000000000000000000000000000 000000000000000000000000000000000000000     00000000                                                                                                                        000000000000000000
F0010000006323300005000114081940500013552100000000000000000201409260002001JOAQUIN BALLESTAS POLO                            D000000000007200000000000000000000100010010000000000000000000000F0010000006323300520140926000101 00000000000000000000000000000000000000000000000000000000000000000000000000000000000000000000000000000000000000000N 00000000000NCONT   00    00000000000          00000000000000000000000000000000000000000000 000000000000000A000000000000000000000000000000000000000000000 000000000000000000000000000000000000000     00000000                                                                                                                        000000000000000000
F0010000006323400001000114081940500011050500000000000000000201409260002001JOAQUIN BALLESTAS POLO                            D000000005500000000000000000000000100010010000000000000000000000F0010000006323400120140926000101 00000000000000000000000000000000000000000000000000000000000000000000000000000000000000000000000000000000000000000N 00000000000NCONT   00    00000000000          00000000000000000000000000000000000000000000 000000000000000A000000000000000000000000000000000000000000000 000000000000000000000000000000000000000     00000000                                                                                                                        000000000000000000
F0010000006323400002000114081940500041450500000000000000000201409260002001JOAQUIN BALLESTAS POLO                            C000000004500000000000000000000000100010010000000000000000000000F0010000006323400220140926000101 00000000000000000000000000000000000000000000000000000000000000000000000000000000000000000000000000000000000000000N 00000000000NCONT   00    00000000000          00000000000000000000000000000000000000000000 000000000000000A000000000000000000000000000000000000000000000 000000000000000000000000000000000000000     00000000                                                                                                                        000000000000000000
F0010000006323400003000114081940500042505000000000000000000201409260002001JOAQUIN BALLESTAS POLO                            C000000001000000000000000000000000100010010000000000000000000000F0010000006323400320140926000101 00000000000000000000000000000000000000000000000000000000000000000000000000000000000000000000000000000000000000000N 00000000000NCONT   00    00000000000          00000000000000000000000000000000000000000000 000000000000000A000000000000000000000000000000000000000000000 000000000000000000000000000000000000000     00000000                                                                                                                        000000000000000000
F0010000006323400004000114081940500023658300000000000000000201409260002001JOAQUIN BALLESTAS POLO                            C000000000036000000000000000000000100010010000000000000000000000F0010000006323400420140926000101 00000000000000000000000000000000000000000000000000000000000000000000000000000000000000000000000000000000000000000N 00000000000NCONT   00    00000000000          00000000000000000000000000000000000000000000 000000000000000A000000000000000000000000000000000000000000000 000000000000000000000000000000000000000     00000000                                                                                                                        000000000000000000
F0010000006323400005000114081940500013552100000000000000000201409260002001JOAQUIN BALLESTAS POLO                            D000000000036000000000000000000000100010010000000000000000000000F0010000006323400520140926000101 00000000000000000000000000000000000000000000000000000000000000000000000000000000000000000000000000000000000000000N 00000000000NCONT   00    00000000000          00000000000000000000000000000000000000000000 000000000000000A000000000000000000000000000000000000000000000 000000000000000000000000000000000000000     00000000                                                                                                                        000000000000000000
F0010000006323500001000114081940500011050500000000000000000201409260002001JOAQUIN BALLESTAS POLO                            D000000005500000000000000000000000100010010000000000000000000000F0010000006323500120140926000101 00000000000000000000000000000000000000000000000000000000000000000000000000000000000000000000000000000000000000000N 00000000000NCONT   00    00000000000          00000000000000000000000000000000000000000000 000000000000000A000000000000000000000000000000000000000000000 000000000000000000000000000000000000000     00000000                                                                                                                        000000000000000000
F0010000006323500002000114081940500041450500000000000000000201409260002001JOAQUIN BALLESTAS POLO                            C000000004500000000000000000000000100010010000000000000000000000F0010000006323500220140926000101 00000000000000000000000000000000000000000000000000000000000000000000000000000000000000000000000000000000000000000N 00000000000NCONT   00    00000000000          00000000000000000000000000000000000000000000 000000000000000A000000000000000000000000000000000000000000000 000000000000000000000000000000000000000     00000000                                                                                                                        000000000000000000
F0010000006323500003000114081940500042505000000000000000000201409260002001JOAQUIN BALLESTAS POLO                            C000000001000000000000000000000000100010010000000000000000000000F0010000006323500320140926000101 00000000000000000000000000000000000000000000000000000000000000000000000000000000000000000000000000000000000000000N 00000000000NCONT   00    00000000000          00000000000000000000000000000000000000000000 000000000000000A000000000000000000000000000000000000000000000 000000000000000000000000000000000000000     00000000                                                                                                                        000000000000000000
F0010000006323500004000114081940500023658300000000000000000201409260002001JOAQUIN BALLESTAS POLO                            C000000000036000000000000000000000100010010000000000000000000000F0010000006323500420140926000101 00000000000000000000000000000000000000000000000000000000000000000000000000000000000000000000000000000000000000000N 00000000000NCONT   00    00000000000          00000000000000000000000000000000000000000000 000000000000000A000000000000000000000000000000000000000000000 000000000000000000000000000000000000000     00000000                                                                                                                        000000000000000000
F0010000006323500005000114081940500013552100000000000000000201409260002001JOAQUIN BALLESTAS POLO                            D000000000036000000000000000000000100010010000000000000000000000F0010000006323500520140926000101 00000000000000000000000000000000000000000000000000000000000000000000000000000000000000000000000000000000000000000N 00000000000NCONT   00    00000000000          00000000000000000000000000000000000000000000 000000000000000A000000000000000000000000000000000000000000000 000000000000000000000000000000000000000     00000000                                                                                                                        000000000000000000
F0010000006323600001000114081940500011050500000000000000000201409260002001JOAQUIN BALLESTAS POLO                            D000000002300000000000000000000000100010010000000000000000000000F0010000006323600120140926000101 00000000000000000000000000000000000000000000000000000000000000000000000000000000000000000000000000000000000000000N 00000000000NCONT   00    00000000000          00000000000000000000000000000000000000000000 000000000000000A000000000000000000000000000000000000000000000 000000000000000000000000000000000000000     00000000                                                                                                                        000000000000000000
F0010000006323600002000114081940500041450500000000000000000201409260002001JOAQUIN BALLESTAS POLO                            C000000001800000000000000000000000100010010000000000000000000000F0010000006323600220140926000101 00000000000000000000000000000000000000000000000000000000000000000000000000000000000000000000000000000000000000000N 00000000000NCONT   00    00000000000          00000000000000000000000000000000000000000000 000000000000000A000000000000000000000000000000000000000000000 000000000000000000000000000000000000000     00000000                                                                                                                        000000000000000000
F0010000006323600003000114081940500042505000000000000000000201409260002001JOAQUIN BALLESTAS POLO                            C000000000500000000000000000000000100010010000000000000000000000F0010000006323600320140926000101 00000000000000000000000000000000000000000000000000000000000000000000000000000000000000000000000000000000000000000N 00000000000NCONT   00    00000000000          00000000000000000000000000000000000000000000 000000000000000A000000000000000000000000000000000000000000000 000000000000000000000000000000000000000     00000000                                                                                                                        000000000000000000
F0010000006323600004000114081940500023658300000000000000000201409260002001JOAQUIN BALLESTAS POLO                            C000000000014400000000000000000000100010010000000000000000000000F0010000006323600420140926000101 00000000000000000000000000000000000000000000000000000000000000000000000000000000000000000000000000000000000000000N 00000000000NCONT   00    00000000000          00000000000000000000000000000000000000000000 000000000000000A000000000000000000000000000000000000000000000 000000000000000000000000000000000000000     00000000                                                                                                                        000000000000000000
F0010000006323600005000114081940500013552100000000000000000201409260002001JOAQUIN BALLESTAS POLO                            D000000000014400000000000000000000100010010000000000000000000000F0010000006323600520140926000101 00000000000000000000000000000000000000000000000000000000000000000000000000000000000000000000000000000000000000000N 00000000000NCONT   00    00000000000          00000000000000000000000000000000000000000000 000000000000000A000000000000000000000000000000000000000000000 000000000000000000000000000000000000000     00000000                                                                                                                        000000000000000000
F0010000006323700001000000820258900011050500000000000000000201409260002001RAFAEL SAAVEDRA ROJAS                             D000000012000000000000000000000000100010010000000000000000000000F0010000006323700120140926000101 00000000000000000000000000000000000000000000000000000000000000000000000000000000000000000000000000000000000000000N 00000000000NCONT   00    00000000000          00000000000000000000000000000000000000000000 000000000000000A000000000000000000000000000000000000000000000 000000000000000000000000000000000000000     00000000                                                                                                                        000000000000000000
F0010000006323700002000000820258900041450500000000000000000201409260002001RAFAEL SAAVEDRA ROJAS                             C000000011400000000000000000000000100010010000000000000000000000F0010000006323700220140926000101 00000000000000000000000000000000000000000000000000000000000000000000000000000000000000000000000000000000000000000N 00000000000NCONT   00    00000000000          00000000000000000000000000000000000000000000 000000000000000A000000000000000000000000000000000000000000000 000000000000000000000000000000000000000     00000000                                                                                                                        000000000000000000
F0010000006323700003000000820258900042505000000000000000000201409260002001RAFAEL SAAVEDRA ROJAS                             C000000000600000000000000000000000100010010000000000000000000000F0010000006323700320140926000101 00000000000000000000000000000000000000000000000000000000000000000000000000000000000000000000000000000000000000000N 00000000000NCONT   00    00000000000          00000000000000000000000000000000000000000000 000000000000000A000000000000000000000000000000000000000000000 000000000000000000000000000000000000000     00000000                                                                                                                        000000000000000000
F0010000006323700004000000820258900023658300000000000000000201409260002001RAFAEL SAAVEDRA ROJAS                             C000000000091200000000000000000000100010010000000000000000000000F0010000006323700420140926000101 00000000000000000000000000000000000000000000000000000000000000000000000000000000000000000000000000000000000000000N 00000000000NCONT   00    00000000000          00000000000000000000000000000000000000000000 000000000000000A000000000000000000000000000000000000000000000 000000000000000000000000000000000000000     00000000                                                                                                                        000000000000000000
F0010000006323700005000000820258900013552100000000000000000201409260002001RAFAEL SAAVEDRA ROJAS                             D000000000091200000000000000000000100010010000000000000000000000F0010000006323700520140926000101 00000000000000000000000000000000000000000000000000000000000000000000000000000000000000000000000000000000000000000N 00000000000NCONT   00    00000000000          00000000000000000000000000000000000000000000 000000000000000A000000000000000000000000000000000000000000000 000000000000000000000000000000000000000     00000000                                                                                                                        000000000000000000
F0010000006323800001000080022903500013050500000000000000000201409260002001TECNOGLASS S.A                                    D000000112104100000000000000000000100010010000000000000000000000F0010000006323800120140926000101 00000000000000000000000000000000000000000000000000000000000000000000000000000000000000000000000000000000000000000N 00000000000NCONT   00    00000000000          00000000000000000000000000000000000000000000 000000000000000A000000000000000000000000000000000000000000000 000000000000000000000000000000000000000     00000000                                                                                                                        000000000000000000
F0010000006323800002000080022903500041450500000000000000000201409260002001TECNOGLASS S.A                                    C000000104821400000000000000000000100010010000000000000000000000F0010000006323800220140926000101 00000000000000000000000000000000000000000000000000000000000000000000000000000000000000000000000000000000000000000N 00000000000NCONT   00    00000000000          00000000000000000000000000000000000000000000 000000000000000A000000000000000000000000000000000000000000000 000000000000000000000000000000000000000     00000000                                                                                                                        000000000000000000
F0010000006323800003000080022903500042505000000000000000000201409260002001TECNOGLASS S.A                                    C000000007282700000000000000000000100010010000000000000000000000F0010000006323800320140926000101 00000000000000000000000000000000000000000000000000000000000000000000000000000000000000000000000000000000000000000N 00000000000NCONT   00    00000000000          00000000000000000000000000000000000000000000 000000000000000A000000000000000000000000000000000000000000000 000000000000000000000000000000000000000     00000000                                                                                                                        000000000000000000
F0010000006323800004000080022903500023658300000000000000000201409260002001TECNOGLASS S.A                                    C000000000838600000000000000000000100010010000000000000000000000F0010000006323800420140926000101 00000000000000000000000000000000000000000000000000000000000000000000000000000000000000000000000000000000000000000N 00000000000NCONT   00    00000000000          00000000000000000000000000000000000000000000 000000000000000A000000000000000000000000000000000000000000000 000000000000000000000000000000000000000     00000000                                                                                                                        000000000000000000
F0010000006323800005000080022903500013552100000000000000000201409260002001TECNOGLASS S.A                                    D000000000838600000000000000000000100010010000000000000000000000F0010000006323800520140926000101 00000000000000000000000000000000000000000000000000000000000000000000000000000000000000000000000000000000000000000N 00000000000NCONT   00    00000000000          00000000000000000000000000000000000000000000 000000000000000A000000000000000000000000000000000000000000000 000000000000000000000000000000000000000     00000000                                                                                                                        000000000000000000
F0010000006323900001000090024483300011050500000000000000000201409260002001COSMETICOS A-GUZ                                  D000000002300000000000000000000000100010010000000000000000000000F0010000006323900120140926000101 00000000000000000000000000000000000000000000000000000000000000000000000000000000000000000000000000000000000000000N 00000000000NCONT   00    00000000000          00000000000000000000000000000000000000000000 000000000000000A000000000000000000000000000000000000000000000 000000000000000000000000000000000000000     00000000                                                                                                                        000000000000000000
F0010000006323900002000090024483300041450500000000000000000201409260002001COSMETICOS A-GUZ                                  C000000002000000000000000000000000100010010000000000000000000000F0010000006323900220140926000101 00000000000000000000000000000000000000000000000000000000000000000000000000000000000000000000000000000000000000000N 00000000000NCONT   00    00000000000          00000000000000000000000000000000000000000000 000000000000000A000000000000000000000000000000000000000000000 000000000000000000000000000000000000000     00000000                                                                                                                        000000000000000000
F0010000006323900003000090024483300042505000000000000000000201409260002001COSMETICOS A-GUZ                                  C000000000300000000000000000000000100010010000000000000000000000F0010000006323900320140926000101 00000000000000000000000000000000000000000000000000000000000000000000000000000000000000000000000000000000000000000N 00000000000NCONT   00    00000000000          00000000000000000000000000000000000000000000 000000000000000A000000000000000000000000000000000000000000000 000000000000000000000000000000000000000     00000000                                                                                                                        000000000000000000
F0010000006323900004000090024483300023658300000000000000000201409260002001COSMETICOS A-GUZ                                  C000000000016000000000000000000000100010010000000000000000000000F0010000006323900420140926000101 00000000000000000000000000000000000000000000000000000000000000000000000000000000000000000000000000000000000000000N 00000000000NCONT   00    00000000000          00000000000000000000000000000000000000000000 000000000000000A000000000000000000000000000000000000000000000 000000000000000000000000000000000000000     00000000                                                                                                                        000000000000000000
F0010000006323900005000090024483300013552100000000000000000201409260002001COSMETICOS A-GUZ                                  D000000000016000000000000000000000100010010000000000000000000000F0010000006323900520140926000101 00000000000000000000000000000000000000000000000000000000000000000000000000000000000000000000000000000000000000000N 00000000000NCONT   00    00000000000          00000000000000000000000000000000000000000000 000000000000000A000000000000000000000000000000000000000000000 000000000000000000000000000000000000000     00000000                                                                                                                        000000000000000000
F0010000006324000001000080001060100011050500000000000000000201409260002001DROGUERIA INDUSTRIAL INQUICOSTA LTDA              D000000001500000000000000000000000100010010000000000000000000000F0010000006324000120140926000101 00000000000000000000000000000000000000000000000000000000000000000000000000000000000000000000000000000000000000000N 00000000000NCONT   00    00000000000          00000000000000000000000000000000000000000000 000000000000000A000000000000000000000000000000000000000000000 000000000000000000000000000000000000000     00000000                                                                                                                        000000000000000000
F0010000006324000002000080001060100041450500000000000000000201409260002001DROGUERIA INDUSTRIAL INQUICOSTA LTDA              C000000001100000000000000000000000100010010000000000000000000000F0010000006324000220140926000101 00000000000000000000000000000000000000000000000000000000000000000000000000000000000000000000000000000000000000000N 00000000000NCONT   00    00000000000          00000000000000000000000000000000000000000000 000000000000000A000000000000000000000000000000000000000000000 000000000000000000000000000000000000000     00000000                                                                                                                        000000000000000000
F0010000006324000003000080001060100042505000000000000000000201409260002001DROGUERIA INDUSTRIAL INQUICOSTA LTDA              C000000000400000000000000000000000100010010000000000000000000000F0010000006324000320140926000101 00000000000000000000000000000000000000000000000000000000000000000000000000000000000000000000000000000000000000000N 00000000000NCONT   00    00000000000          00000000000000000000000000000000000000000000 000000000000000A000000000000000000000000000000000000000000000 000000000000000000000000000000000000000     00000000                                                                                                                        000000000000000000
F0010000006324000004000080001060100023658300000000000000000201409260002001DROGUERIA INDUSTRIAL INQUICOSTA LTDA              C000000000008800000000000000000000100010010000000000000000000000F0010000006324000420140926000101 00000000000000000000000000000000000000000000000000000000000000000000000000000000000000000000000000000000000000000N 00000000000NCONT   00    00000000000          00000000000000000000000000000000000000000000 000000000000000A000000000000000000000000000000000000000000000 000000000000000000000000000000000000000     00000000                                                                                                                        000000000000000000
F0010000006324000005000080001060100013552100000000000000000201409260002001DROGUERIA INDUSTRIAL INQUICOSTA LTDA              D000000000008800000000000000000000100010010000000000000000000000F0010000006324000520140926000101 00000000000000000000000000000000000000000000000000000000000000000000000000000000000000000000000000000000000000000N 00000000000NCONT   00    00000000000          00000000000000000000000000000000000000000000 000000000000000A000000000000000000000000000000000000000000000 000000000000000000000000000000000000000     00000000                                                                                                                        000000000000000000
F0010000006324100001000090055180500011050500000000000000000201409260002001LAMINAS Y SUELAS DE COLOMBIA S.A.S                D000000006200000000000000000000000100010010000000000000000000000F0010000006324100120140926000101 00000000000000000000000000000000000000000000000000000000000000000000000000000000000000000000000000000000000000000N 00000000000NCONT   00    00000000000          00000000000000000000000000000000000000000000 000000000000000A000000000000000000000000000000000000000000000 000000000000000000000000000000000000000     00000000                                                                                                                        000000000000000000
F0010000006324100002000090055180500041450500000000000000000201409260002001LAMINAS Y SUELAS DE COLOMBIA S.A.S                C000000005500000000000000000000000100010010000000000000000000000F0010000006324100220140926000101 00000000000000000000000000000000000000000000000000000000000000000000000000000000000000000000000000000000000000000N 00000000000NCONT   00    00000000000          00000000000000000000000000000000000000000000 000000000000000A000000000000000000000000000000000000000000000 000000000000000000000000000000000000000     00000000                                                                                                                        000000000000000000
F0010000006324100003000090055180500042505000000000000000000201409260002001LAMINAS Y SUELAS DE COLOMBIA S.A.S                C000000000700000000000000000000000100010010000000000000000000000F0010000006324100320140926000101 00000000000000000000000000000000000000000000000000000000000000000000000000000000000000000000000000000000000000000N 00000000000NCONT   00    00000000000          00000000000000000000000000000000000000000000 000000000000000A000000000000000000000000000000000000000000000 000000000000000000000000000000000000000     00000000                                                                                                                        000000000000000000
F0010000006324100004000090055180500023658300000000000000000201409260002001LAMINAS Y SUELAS DE COLOMBIA S.A.S                C000000000044000000000000000000000100010010000000000000000000000F0010000006324100420140926000101 00000000000000000000000000000000000000000000000000000000000000000000000000000000000000000000000000000000000000000N 00000000000NCONT   00    00000000000          00000000000000000000000000000000000000000000 000000000000000A000000000000000000000000000000000000000000000 000000000000000000000000000000000000000     00000000                                                                                                                        000000000000000000
F0010000006324100005000090055180500013552100000000000000000201409260002001LAMINAS Y SUELAS DE COLOMBIA S.A.S                D000000000044000000000000000000000100010010000000000000000000000F0010000006324100520140926000101 00000000000000000000000000000000000000000000000000000000000000000000000000000000000000000000000000000000000000000N 00000000000NCONT   00    00000000000          00000000000000000000000000000000000000000000 000000000000000A000000000000000000000000000000000000000000000 000000000000000000000000000000000000000     00000000                                                                                                                        000000000000000000
F0010000006324200001000090055180500011050500000000000000000201409260002001LAMINAS Y SUELAS DE COLOMBIA S.A.S                D000000002630000000000000000000000100010010000000000000000000000F0010000006324200120140926000101 00000000000000000000000000000000000000000000000000000000000000000000000000000000000000000000000000000000000000000N 00000000000NCONT   00    00000000000          00000000000000000000000000000000000000000000 000000000000000A000000000000000000000000000000000000000000000 000000000000000000000000000000000000000     00000000                                                                                                                        000000000000000000
F0010000006324200002000090055180500041450500000000000000000201409260002001LAMINAS Y SUELAS DE COLOMBIA S.A.S                C000000002500000000000000000000000100010010000000000000000000000F0010000006324200220140926000101 00000000000000000000000000000000000000000000000000000000000000000000000000000000000000000000000000000000000000000N 00000000000NCONT   00    00000000000          00000000000000000000000000000000000000000000 000000000000000A000000000000000000000000000000000000000000000 000000000000000000000000000000000000000     00000000                                                                                                                        000000000000000000
F0010000006324200003000090055180500042505000000000000000000201409260002001LAMINAS Y SUELAS DE COLOMBIA S.A.S                C000000000130000000000000000000000100010010000000000000000000000F0010000006324200320140926000101 00000000000000000000000000000000000000000000000000000000000000000000000000000000000000000000000000000000000000000N 00000000000NCONT   00    00000000000          00000000000000000000000000000000000000000000 000000000000000A000000000000000000000000000000000000000000000 000000000000000000000000000000000000000     00000000                                                                                                                        000000000000000000
F0010000006324200004000090055180500023658300000000000000000201409260002001LAMINAS Y SUELAS DE COLOMBIA S.A.S                C000000000020000000000000000000000100010010000000000000000000000F0010000006324200420140926000101 00000000000000000000000000000000000000000000000000000000000000000000000000000000000000000000000000000000000000000N 00000000000NCONT   00    00000000000          00000000000000000000000000000000000000000000 000000000000000A000000000000000000000000000000000000000000000 000000000000000000000000000000000000000     00000000                                                                                                                        000000000000000000
F0010000006324200005000090055180500013552100000000000000000201409260002001LAMINAS Y SUELAS DE COLOMBIA S.A.S                D000000000020000000000000000000000100010010000000000000000000000F0010000006324200520140926000101 00000000000000000000000000000000000000000000000000000000000000000000000000000000000000000000000000000000000000000N 00000000000NCONT   00    00000000000          00000000000000000000000000000000000000000000 000000000000000A000000000000000000000000000000000000000000000 000000000000000000000000000000000000000     00000000                                                                                                                        000000000000000000
F0010000006324300001000002245670100011050500000000000000000201409260002001YOLANDA  TOBON                                    D000000000700000000000000000000000100010010000000000000000000000F0010000006324300120140926000101 00000000000000000000000000000000000000000000000000000000000000000000000000000000000000000000000000000000000000000N 00000000000NCONT   00    00000000000          00000000000000000000000000000000000000000000 000000000000000A000000000000000000000000000000000000000000000 000000000000000000000000000000000000000     00000000                                                                                                                        000000000000000000
F0010000006324300002000002245670100041450500000000000000000201409260002001YOLANDA  TOBON                                    C000000000600000000000000000000000100010010000000000000000000000F0010000006324300220140926000101 00000000000000000000000000000000000000000000000000000000000000000000000000000000000000000000000000000000000000000N 00000000000NCONT   00    00000000000          00000000000000000000000000000000000000000000 000000000000000A000000000000000000000000000000000000000000000 000000000000000000000000000000000000000     00000000                                                                                                                        000000000000000000
F0010000006324300003000002245670100042505000000000000000000201409260002001YOLANDA  TOBON                                    C000000000100000000000000000000000100010010000000000000000000000F0010000006324300320140926000101 00000000000000000000000000000000000000000000000000000000000000000000000000000000000000000000000000000000000000000N 00000000000NCONT   00    00000000000          00000000000000000000000000000000000000000000 000000000000000A000000000000000000000000000000000000000000000 000000000000000000000000000000000000000     00000000                                                                                                                        000000000000000000
F0010000006324300004000002245670100023658300000000000000000201409260002001YOLANDA  TOBON                                    C000000000004800000000000000000000100010010000000000000000000000F0010000006324300420140926000101 00000000000000000000000000000000000000000000000000000000000000000000000000000000000000000000000000000000000000000N 00000000000NCONT   00    00000000000          00000000000000000000000000000000000000000000 000000000000000A000000000000000000000000000000000000000000000 000000000000000000000000000000000000000     00000000                                                                                                                        000000000000000000
F0010000006324300005000002245670100013552100000000000000000201409260002001YOLANDA  TOBON                                    D000000000004800000000000000000000100010010000000000000000000000F0010000006324300520140926000101 00000000000000000000000000000000000000000000000000000000000000000000000000000000000000000000000000000000000000000N 00000000000NCONT   00    00000000000          00000000000000000000000000000000000000000000 000000000000000A000000000000000000000000000000000000000000000 000000000000000000000000000000000000000     00000000                                                                                                                        000000000000000000
F0010000006324400001000002245670100011050500000000000000000201409260002001YOLANDA  TOBON                                    D000000001800000000000000000000000100010010000000000000000000000F0010000006324400120140926000101 00000000000000000000000000000000000000000000000000000000000000000000000000000000000000000000000000000000000000000N 00000000000NCONT   00    00000000000          00000000000000000000000000000000000000000000 000000000000000A000000000000000000000000000000000000000000000 000000000000000000000000000000000000000     00000000                                                                                                                        000000000000000000
F0010000006324400002000002245670100041450500000000000000000201409260002001YOLANDA  TOBON                                    C000000001500000000000000000000000100010010000000000000000000000F0010000006324400220140926000101 00000000000000000000000000000000000000000000000000000000000000000000000000000000000000000000000000000000000000000N 00000000000NCONT   00    00000000000          00000000000000000000000000000000000000000000 000000000000000A000000000000000000000000000000000000000000000 000000000000000000000000000000000000000     00000000                                                                                                                        000000000000000000
F0010000006324400003000002245670100042505000000000000000000201409260002001YOLANDA  TOBON                                    C000000000300000000000000000000000100010010000000000000000000000F0010000006324400320140926000101 00000000000000000000000000000000000000000000000000000000000000000000000000000000000000000000000000000000000000000N 00000000000NCONT   00    00000000000          00000000000000000000000000000000000000000000 000000000000000A000000000000000000000000000000000000000000000 000000000000000000000000000000000000000     00000000                                                                                                                        000000000000000000
F0010000006324400004000002245670100023658300000000000000000201409260002001YOLANDA  TOBON                                    C000000000012000000000000000000000100010010000000000000000000000F0010000006324400420140926000101 00000000000000000000000000000000000000000000000000000000000000000000000000000000000000000000000000000000000000000N 00000000000NCONT   00    00000000000          00000000000000000000000000000000000000000000 000000000000000A000000000000000000000000000000000000000000000 000000000000000000000000000000000000000     00000000                                                                                                                        000000000000000000
F0010000006324400005000002245670100013552100000000000000000201409260002001YOLANDA  TOBON                                    D000000000012000000000000000000000100010010000000000000000000000F0010000006324400520140926000101 00000000000000000000000000000000000000000000000000000000000000000000000000000000000000000000000000000000000000000N 00000000000NCONT   00    00000000000          00000000000000000000000000000000000000000000 000000000000000A000000000000000000000000000000000000000000000 000000000000000000000000000000000000000     00000000                                                                                                                        000000000000000000
F0010000006324500001000086003979400011050500000000000000000201409260002001CALYPSO BARRANQUILLA LTDA                         D000000000800000000000000000000000100010010000000000000000000000F0010000006324500120140926000101 00000000000000000000000000000000000000000000000000000000000000000000000000000000000000000000000000000000000000000N 00000000000NCONT   00    00000000000          00000000000000000000000000000000000000000000 000000000000000A000000000000000000000000000000000000000000000 000000000000000000000000000000000000000     00000000                                                                                                                        000000000000000000
F0010000006324500002000086003979400041450500000000000000000201409260002001CALYPSO BARRANQUILLA LTDA                         C000000000700000000000000000000000100010010000000000000000000000F0010000006324500220140926000101 00000000000000000000000000000000000000000000000000000000000000000000000000000000000000000000000000000000000000000N 00000000000NCONT   00    00000000000          00000000000000000000000000000000000000000000 000000000000000A000000000000000000000000000000000000000000000 000000000000000000000000000000000000000     00000000                                                                                                                        000000000000000000
F0010000006324500003000086003979400042505000000000000000000201409260002001CALYPSO BARRANQUILLA LTDA                         C000000000100000000000000000000000100010010000000000000000000000F0010000006324500320140926000101 00000000000000000000000000000000000000000000000000000000000000000000000000000000000000000000000000000000000000000N 00000000000NCONT   00    00000000000          00000000000000000000000000000000000000000000 000000000000000A000000000000000000000000000000000000000000000 000000000000000000000000000000000000000     00000000                                                                                                                        000000000000000000
F0010000006324500004000086003979400023658300000000000000000201409260002001CALYPSO BARRANQUILLA LTDA                         C000000000005600000000000000000000100010010000000000000000000000F0010000006324500420140926000101 00000000000000000000000000000000000000000000000000000000000000000000000000000000000000000000000000000000000000000N 00000000000NCONT   00    00000000000          00000000000000000000000000000000000000000000 000000000000000A000000000000000000000000000000000000000000000 000000000000000000000000000000000000000     00000000                                                                                                                        000000000000000000
F0010000006324500005000086003979400013552100000000000000000201409260002001CALYPSO BARRANQUILLA LTDA                         D000000000005600000000000000000000100010010000000000000000000000F0010000006324500520140926000101 00000000000000000000000000000000000000000000000000000000000000000000000000000000000000000000000000000000000000000N 00000000000NCONT   00    00000000000          00000000000000000000000000000000000000000000 000000000000000A000000000000000000000000000000000000000000000 000000000000000000000000000000000000000     00000000                                                                                                                        000000000000000000
F0010000006324600001000080202350700011050500000000000000000201409260002001CONNY DE LA COSTA SAS                             D000000001800000000000000000000000100010010000000000000000000000F0010000006324600120140926000101 00000000000000000000000000000000000000000000000000000000000000000000000000000000000000000000000000000000000000000N 00000000000NCONT   00    00000000000          00000000000000000000000000000000000000000000 000000000000000A000000000000000000000000000000000000000000000 000000000000000000000000000000000000000     00000000                                                                                                                        000000000000000000
F0010000006324600002000080202350700041450500000000000000000201409260002001CONNY DE LA COSTA SAS                             C000000001600000000000000000000000100010010000000000000000000000F0010000006324600220140926000101 00000000000000000000000000000000000000000000000000000000000000000000000000000000000000000000000000000000000000000N 00000000000NCONT   00    00000000000          00000000000000000000000000000000000000000000 000000000000000A000000000000000000000000000000000000000000000 000000000000000000000000000000000000000     00000000                                                                                                                        000000000000000000
F0010000006324600003000080202350700042505000000000000000000201409260002001CONNY DE LA COSTA SAS                             C000000000200000000000000000000000100010010000000000000000000000F0010000006324600320140926000101 00000000000000000000000000000000000000000000000000000000000000000000000000000000000000000000000000000000000000000N 00000000000NCONT   00    00000000000          00000000000000000000000000000000000000000000 000000000000000A000000000000000000000000000000000000000000000 000000000000000000000000000000000000000     00000000                                                                                                                        000000000000000000
F0010000006324600004000080202350700023658300000000000000000201409260002001CONNY DE LA COSTA SAS                             C000000000012800000000000000000000100010010000000000000000000000F0010000006324600420140926000101 00000000000000000000000000000000000000000000000000000000000000000000000000000000000000000000000000000000000000000N 00000000000NCONT   00    00000000000          00000000000000000000000000000000000000000000 000000000000000A000000000000000000000000000000000000000000000 000000000000000000000000000000000000000     00000000                                                                                                                        000000000000000000
F0010000006324600005000080202350700013552100000000000000000201409260002001CONNY DE LA COSTA SAS                             D000000000012800000000000000000000100010010000000000000000000000F0010000006324600520140926000101 00000000000000000000000000000000000000000000000000000000000000000000000000000000000000000000000000000000000000000N 00000000000NCONT   00    00000000000          00000000000000000000000000000000000000000000 000000000000000A000000000000000000000000000000000000000000000 000000000000000000000000000000000000000     00000000                                                                                                                        000000000000000000
F0010000006324700001000080202350700011050500000000000000000201409260002001CONNY DE LA COSTA SAS                             D000000001100000000000000000000000100010010000000000000000000000F0010000006324700120140926000101 00000000000000000000000000000000000000000000000000000000000000000000000000000000000000000000000000000000000000000N 00000000000NCONT   00    00000000000          00000000000000000000000000000000000000000000 000000000000000A000000000000000000000000000000000000000000000 000000000000000000000000000000000000000     00000000                                                                                                                        000000000000000000
F0010000006324700002000080202350700041450500000000000000000201409260002001CONNY DE LA COSTA SAS                             C000000000800000000000000000000000100010010000000000000000000000F0010000006324700220140926000101 00000000000000000000000000000000000000000000000000000000000000000000000000000000000000000000000000000000000000000N 00000000000NCONT   00    00000000000          00000000000000000000000000000000000000000000 000000000000000A000000000000000000000000000000000000000000000 000000000000000000000000000000000000000     00000000                                                                                                                        000000000000000000
F0010000006324700003000080202350700042505000000000000000000201409260002001CONNY DE LA COSTA SAS                             C000000000300000000000000000000000100010010000000000000000000000F0010000006324700320140926000101 00000000000000000000000000000000000000000000000000000000000000000000000000000000000000000000000000000000000000000N 00000000000NCONT   00    00000000000          00000000000000000000000000000000000000000000 000000000000000A000000000000000000000000000000000000000000000 000000000000000000000000000000000000000     00000000                                                                                                                        000000000000000000
F0010000006324700004000080202350700023658300000000000000000201409260002001CONNY DE LA COSTA SAS                             C000000000006400000000000000000000100010010000000000000000000000F0010000006324700420140926000101 00000000000000000000000000000000000000000000000000000000000000000000000000000000000000000000000000000000000000000N 00000000000NCONT   00    00000000000          00000000000000000000000000000000000000000000 000000000000000A000000000000000000000000000000000000000000000 000000000000000000000000000000000000000     00000000                                                                                                                        000000000000000000
F0010000006324700005000080202350700013552100000000000000000201409260002001CONNY DE LA COSTA SAS                             D000000000006400000000000000000000100010010000000000000000000000F0010000006324700520140926000101 00000000000000000000000000000000000000000000000000000000000000000000000000000000000000000000000000000000000000000N 00000000000NCONT   00    00000000000          00000000000000000000000000000000000000000000 000000000000000A000000000000000000000000000000000000000000000 000000000000000000000000000000000000000     00000000                                                                                                                        000000000000000000
F0010000006324800001000080201703900011050500000000000000000201409260002001MUNDIAL CHEMICAL LTDA                             D000000001840000000000000000000000100010010000000000000000000000F0010000006324800120140926000101 00000000000000000000000000000000000000000000000000000000000000000000000000000000000000000000000000000000000000000N 00000000000NCONT   00    00000000000          00000000000000000000000000000000000000000000 000000000000000A000000000000000000000000000000000000000000000 000000000000000000000000000000000000000     00000000                                                                                                                        000000000000000000
F0010000006324800002000080201703900041450500000000000000000201409260002001MUNDIAL CHEMICAL LTDA                             C000000001660000000000000000000000100010010000000000000000000000F0010000006324800220140926000101 00000000000000000000000000000000000000000000000000000000000000000000000000000000000000000000000000000000000000000N 00000000000NCONT   00    00000000000          00000000000000000000000000000000000000000000 000000000000000A000000000000000000000000000000000000000000000 000000000000000000000000000000000000000     00000000                                                                                                                        000000000000000000
F0010000006324800003000080201703900042505000000000000000000201409260002001MUNDIAL CHEMICAL LTDA                             C000000000180000000000000000000000100010010000000000000000000000F0010000006324800320140926000101 00000000000000000000000000000000000000000000000000000000000000000000000000000000000000000000000000000000000000000N 00000000000NCONT   00    00000000000          00000000000000000000000000000000000000000000 000000000000000A000000000000000000000000000000000000000000000 000000000000000000000000000000000000000     00000000                                                                                                                        000000000000000000
F0010000006324800004000080201703900023658300000000000000000201409260002001MUNDIAL CHEMICAL LTDA                             C000000000013300000000000000000000100010010000000000000000000000F0010000006324800420140926000101 00000000000000000000000000000000000000000000000000000000000000000000000000000000000000000000000000000000000000000N 00000000000NCONT   00    00000000000          00000000000000000000000000000000000000000000 000000000000000A000000000000000000000000000000000000000000000 000000000000000000000000000000000000000     00000000                                                                                                                        000000000000000000
F0010000006324800005000080201703900013552100000000000000000201409260002001MUNDIAL CHEMICAL LTDA                             D000000000013300000000000000000000100010010000000000000000000000F0010000006324800520140926000101 00000000000000000000000000000000000000000000000000000000000000000000000000000000000000000000000000000000000000000N 00000000000NCONT   00    00000000000          00000000000000000000000000000000000000000000 000000000000000A000000000000000000000000000000000000000000000 000000000000000000000000000000000000000     00000000                                                                                                                        000000000000000000
F0010000006324900001000090050144800011050500000000000000000201409260002001PLASTICOS JR ASOCIADOS SAS                        D000000003800000000000000000000000100010010000000000000000000000F0010000006324900120140926000101 00000000000000000000000000000000000000000000000000000000000000000000000000000000000000000000000000000000000000000N 00000000000NCONT   00    00000000000          00000000000000000000000000000000000000000000 000000000000000A000000000000000000000000000000000000000000000 000000000000000000000000000000000000000     00000000                                                                                                                        000000000000000000
F0010000006324900002000090050144800041450500000000000000000201409260002001PLASTICOS JR ASOCIADOS SAS                        C000000003400000000000000000000000100010010000000000000000000000F0010000006324900220140926000101 00000000000000000000000000000000000000000000000000000000000000000000000000000000000000000000000000000000000000000N 00000000000NCONT   00    00000000000          00000000000000000000000000000000000000000000 000000000000000A000000000000000000000000000000000000000000000 000000000000000000000000000000000000000     00000000                                                                                                                        000000000000000000
F0010000006324900003000090050144800042505000000000000000000201409260002001PLASTICOS JR ASOCIADOS SAS                        C000000000400000000000000000000000100010010000000000000000000000F0010000006324900320140926000101 00000000000000000000000000000000000000000000000000000000000000000000000000000000000000000000000000000000000000000N 00000000000NCONT   00    00000000000          00000000000000000000000000000000000000000000 000000000000000A000000000000000000000000000000000000000000000 000000000000000000000000000000000000000     00000000                                                                                                                        000000000000000000
F0010000006324900004000090050144800023658300000000000000000201409260002001PLASTICOS JR ASOCIADOS SAS                        C000000000027200000000000000000000100010010000000000000000000000F0010000006324900420140926000101 00000000000000000000000000000000000000000000000000000000000000000000000000000000000000000000000000000000000000000N 00000000000NCONT   00    00000000000          00000000000000000000000000000000000000000000 000000000000000A000000000000000000000000000000000000000000000 000000000000000000000000000000000000000     00000000                                                                                                                        000000000000000000
F0010000006324900005000090050144800013552100000000000000000201409260002001PLASTICOS JR ASOCIADOS SAS                        D000000000027200000000000000000000100010010000000000000000000000F0010000006324900520140926000101 00000000000000000000000000000000000000000000000000000000000000000000000000000000000000000000000000000000000000000N 00000000000NCONT   00    00000000000          00000000000000000000000000000000000000000000 000000000000000A000000000000000000000000000000000000000000000 000000000000000000000000000000000000000     00000000                                                                                                                        000000000000000000
F0010000006325000001000000866309000011050500000000000000000201409260002001MARCO MORA PATIO                                D000000001840000000000000000000000100010010000000000000000000000F0010000006325000120140926000101 00000000000000000000000000000000000000000000000000000000000000000000000000000000000000000000000000000000000000000N 00000000000NCONT   00    00000000000          00000000000000000000000000000000000000000000 000000000000000A000000000000000000000000000000000000000000000 000000000000000000000000000000000000000     00000000                                                                                                                        000000000000000000
F0010000006325000002000000866309000041450500000000000000000201409260002001MARCO MORA PATIO                                C000000001300000000000000000000000100010010000000000000000000000F0010000006325000220140926000101 00000000000000000000000000000000000000000000000000000000000000000000000000000000000000000000000000000000000000000N 00000000000NCONT   00    00000000000          00000000000000000000000000000000000000000000 000000000000000A000000000000000000000000000000000000000000000 000000000000000000000000000000000000000     00000000                                                                                                                        000000000000000000
F0010000006325000003000000866309000042505000000000000000000201409260002001MARCO MORA PATIO                                C000000000540000000000000000000000100010010000000000000000000000F0010000006325000320140926000101 00000000000000000000000000000000000000000000000000000000000000000000000000000000000000000000000000000000000000000N 00000000000NCONT   00    00000000000          00000000000000000000000000000000000000000000 000000000000000A000000000000000000000000000000000000000000000 000000000000000000000000000000000000000     00000000                                                                                                                        000000000000000000
F0010000006325000004000000866309000023658300000000000000000201409260002001MARCO MORA PATIO                                C000000000010400000000000000000000100010010000000000000000000000F0010000006325000420140926000101 00000000000000000000000000000000000000000000000000000000000000000000000000000000000000000000000000000000000000000N 00000000000NCONT   00    00000000000          00000000000000000000000000000000000000000000 000000000000000A000000000000000000000000000000000000000000000 000000000000000000000000000000000000000     00000000                                                                                                                        000000000000000000
F0010000006325000005000000866309000013552100000000000000000201409260002001MARCO MORA PATIO                                D000000000010400000000000000000000100010010000000000000000000000F0010000006325000520140926000101 00000000000000000000000000000000000000000000000000000000000000000000000000000000000000000000000000000000000000000N 00000000000NCONT   00    00000000000          00000000000000000000000000000000000000000000 000000000000000A000000000000000000000000000000000000000000000 000000000000000000000000000000000000000     00000000                                                                                                                        000000000000000000
F0010000006325100001000090037350200011050500000000000000000201409260002001JIMAR C Y J LTDA                                  D000000001000000000000000000000000100010010000000000000000000000F0010000006325100120140926000101 00000000000000000000000000000000000000000000000000000000000000000000000000000000000000000000000000000000000000000N 00000000000NCONT   00    00000000000          00000000000000000000000000000000000000000000 000000000000000A000000000000000000000000000000000000000000000 000000000000000000000000000000000000000     00000000                                                                                                                        000000000000000000
F0010000006325100002000090037350200041450500000000000000000201409260002001JIMAR C Y J LTDA                                  C000000000900000000000000000000000100010010000000000000000000000F0010000006325100220140926000101 00000000000000000000000000000000000000000000000000000000000000000000000000000000000000000000000000000000000000000N 00000000000NCONT   00    00000000000          00000000000000000000000000000000000000000000 000000000000000A000000000000000000000000000000000000000000000 000000000000000000000000000000000000000     00000000                                                                                                                        000000000000000000
F0010000006325100003000090037350200042505000000000000000000201409260002001JIMAR C Y J LTDA                                  C000000000100000000000000000000000100010010000000000000000000000F0010000006325100320140926000101 00000000000000000000000000000000000000000000000000000000000000000000000000000000000000000000000000000000000000000N 00000000000NCONT   00    00000000000          00000000000000000000000000000000000000000000 000000000000000A000000000000000000000000000000000000000000000 000000000000000000000000000000000000000     00000000                                                                                                                        000000000000000000
F0010000006325100004000090037350200023658300000000000000000201409260002001JIMAR C Y J LTDA                                  C000000000007200000000000000000000100010010000000000000000000000F0010000006325100420140926000101 00000000000000000000000000000000000000000000000000000000000000000000000000000000000000000000000000000000000000000N 00000000000NCONT   00    00000000000          00000000000000000000000000000000000000000000 000000000000000A000000000000000000000000000000000000000000000 000000000000000000000000000000000000000     00000000                                                                                                                        000000000000000000
F0010000006325100005000090037350200013552100000000000000000201409260002001JIMAR C Y J LTDA                                  D000000000007200000000000000000000100010010000000000000000000000F0010000006325100520140926000101 00000000000000000000000000000000000000000000000000000000000000000000000000000000000000000000000000000000000000000N 00000000000NCONT   00    00000000000          00000000000000000000000000000000000000000000 000000000000000A000000000000000000000000000000000000000000000 000000000000000000000000000000000000000     00000000                                                                                                                        000000000000000000
F0010000006325200001000090037350200011050500000000000000000201409260002001JIMAR C Y J LTDA                                  D000000001000000000000000000000000100010010000000000000000000000F0010000006325200120140926000101 00000000000000000000000000000000000000000000000000000000000000000000000000000000000000000000000000000000000000000N 00000000000NCONT   00    00000000000          00000000000000000000000000000000000000000000 000000000000000A000000000000000000000000000000000000000000000 000000000000000000000000000000000000000     00000000                                                                                                                        000000000000000000
F0010000006325200002000090037350200041450500000000000000000201409260002001JIMAR C Y J LTDA                                  C000000000900000000000000000000000100010010000000000000000000000F0010000006325200220140926000101 00000000000000000000000000000000000000000000000000000000000000000000000000000000000000000000000000000000000000000N 00000000000NCONT   00    00000000000          00000000000000000000000000000000000000000000 000000000000000A000000000000000000000000000000000000000000000 000000000000000000000000000000000000000     00000000                                                                                                                        000000000000000000
F0010000006325200003000090037350200042505000000000000000000201409260002001JIMAR C Y J LTDA                                  C000000000100000000000000000000000100010010000000000000000000000F0010000006325200320140926000101 00000000000000000000000000000000000000000000000000000000000000000000000000000000000000000000000000000000000000000N 00000000000NCONT   00    00000000000          00000000000000000000000000000000000000000000 000000000000000A000000000000000000000000000000000000000000000 000000000000000000000000000000000000000     00000000                                                                                                                        000000000000000000
F0010000006325200004000090037350200023658300000000000000000201409260002001JIMAR C Y J LTDA                                  C000000000007200000000000000000000100010010000000000000000000000F0010000006325200420140926000101 00000000000000000000000000000000000000000000000000000000000000000000000000000000000000000000000000000000000000000N 00000000000NCONT   00    00000000000          00000000000000000000000000000000000000000000 000000000000000A000000000000000000000000000000000000000000000 000000000000000000000000000000000000000     00000000                                                                                                                        000000000000000000
F0010000006325200005000090037350200013552100000000000000000201409260002001JIMAR C Y J LTDA                                  D000000000007200000000000000000000100010010000000000000000000000F0010000006325200520140926000101 00000000000000000000000000000000000000000000000000000000000000000000000000000000000000000000000000000000000000000N 00000000000NCONT   00    00000000000          00000000000000000000000000000000000000000000 000000000000000A000000000000000000000000000000000000000000000 000000000000000000000000000000000000000     00000000                                                                                                                        000000000000000000
F0010000006325300001000080012418800011050500000000000000000201409260002001DISTRITEC S.A.S                                   D000000000910000000000000000000000100010010000000000000000000000F0010000006325300120140926000101 00000000000000000000000000000000000000000000000000000000000000000000000000000000000000000000000000000000000000000N 00000000000NCONT   00    00000000000          00000000000000000000000000000000000000000000 000000000000000A000000000000000000000000000000000000000000000 000000000000000000000000000000000000000     00000000                                                                                                                        000000000000000000
F0010000006325300002000080012418800041450500000000000000000201409260002001DISTRITEC S.A.S                                   C000000000850000000000000000000000100010010000000000000000000000F0010000006325300220140926000101 00000000000000000000000000000000000000000000000000000000000000000000000000000000000000000000000000000000000000000N 00000000000NCONT   00    00000000000          00000000000000000000000000000000000000000000 000000000000000A000000000000000000000000000000000000000000000 000000000000000000000000000000000000000     00000000                                                                                                                        000000000000000000
F0010000006325300003000080012418800042505000000000000000000201409260002001DISTRITEC S.A.S                                   C000000000060000000000000000000000100010010000000000000000000000F0010000006325300320140926000101 00000000000000000000000000000000000000000000000000000000000000000000000000000000000000000000000000000000000000000N 00000000000NCONT   00    00000000000          00000000000000000000000000000000000000000000 000000000000000A000000000000000000000000000000000000000000000 000000000000000000000000000000000000000     00000000                                                                                                                        000000000000000000
F0010000006325300004000080012418800023658300000000000000000201409260002001DISTRITEC S.A.S                                   C000000000006800000000000000000000100010010000000000000000000000F0010000006325300420140926000101 00000000000000000000000000000000000000000000000000000000000000000000000000000000000000000000000000000000000000000N 00000000000NCONT   00    00000000000          00000000000000000000000000000000000000000000 000000000000000A000000000000000000000000000000000000000000000 000000000000000000000000000000000000000     00000000                                                                                                                        000000000000000000
F0010000006325300005000080012418800013552100000000000000000201409260002001DISTRITEC S.A.S                                   D000000000006800000000000000000000100010010000000000000000000000F0010000006325300520140926000101 00000000000000000000000000000000000000000000000000000000000000000000000000000000000000000000000000000000000000000N 00000000000NCONT   00    00000000000          00000000000000000000000000000000000000000000 000000000000000A000000000000000000000000000000000000000000000 000000000000000000000000000000000000000     00000000                                                                                                                        000000000000000000
F0010000006325400001000089011069100011050500000000000000000201409260002001LA CASA DE LAS ALFOMBRAS LTDA                     D000000005400000000000000000000000100010010000000000000000000000F0010000006325400120140926000101 00000000000000000000000000000000000000000000000000000000000000000000000000000000000000000000000000000000000000000N 00000000000NCONT   00    00000000000          00000000000000000000000000000000000000000000 000000000000000A000000000000000000000000000000000000000000000 000000000000000000000000000000000000000     00000000                                                                                                                        000000000000000000
F0010000006325400002000089011069100041450500000000000000000201409260002001LA CASA DE LAS ALFOMBRAS LTDA                     C000000004500000000000000000000000100010010000000000000000000000F0010000006325400220140926000101 00000000000000000000000000000000000000000000000000000000000000000000000000000000000000000000000000000000000000000N 00000000000NCONT   00    00000000000          00000000000000000000000000000000000000000000 000000000000000A000000000000000000000000000000000000000000000 000000000000000000000000000000000000000     00000000                                                                                                                        000000000000000000
F0010000006325400003000089011069100042505000000000000000000201409260002001LA CASA DE LAS ALFOMBRAS LTDA                     C000000000900000000000000000000000100010010000000000000000000000F0010000006325400320140926000101 00000000000000000000000000000000000000000000000000000000000000000000000000000000000000000000000000000000000000000N 00000000000NCONT   00    00000000000          00000000000000000000000000000000000000000000 000000000000000A000000000000000000000000000000000000000000000 000000000000000000000000000000000000000     00000000                                                                                                                        000000000000000000
F0010000006325400004000089011069100023658300000000000000000201409260002001LA CASA DE LAS ALFOMBRAS LTDA                     C000000000036000000000000000000000100010010000000000000000000000F0010000006325400420140926000101 00000000000000000000000000000000000000000000000000000000000000000000000000000000000000000000000000000000000000000N 00000000000NCONT   00    00000000000          00000000000000000000000000000000000000000000 000000000000000A000000000000000000000000000000000000000000000 000000000000000000000000000000000000000     00000000                                                                                                                        000000000000000000
F0010000006325400005000089011069100013552100000000000000000201409260002001LA CASA DE LAS ALFOMBRAS LTDA                     D000000000036000000000000000000000100010010000000000000000000000F0010000006325400520140926000101 00000000000000000000000000000000000000000000000000000000000000000000000000000000000000000000000000000000000000000N 00000000000NCONT   00    00000000000          00000000000000000000000000000000000000000000 000000000000000A000000000000000000000000000000000000000000000 000000000000000000000000000000000000000     00000000                                                                                                                        000000000000000000
F0010000006325500001000086000061500011050500000000000000000201409260002001DISTRIBUIDORA CORDOBA                             D000000003870000000000000000000000100010010000000000000000000000F0010000006325500120140926000101 00000000000000000000000000000000000000000000000000000000000000000000000000000000000000000000000000000000000000000N 00000000000NCONT   00    00000000000          00000000000000000000000000000000000000000000 000000000000000A000000000000000000000000000000000000000000000 000000000000000000000000000000000000000     00000000                                                                                                                        000000000000000000
F0010000006325500002000086000061500041450500000000000000000201409260002001DISTRIBUIDORA CORDOBA                             C000000003400000000000000000000000100010010000000000000000000000F0010000006325500220140926000101 00000000000000000000000000000000000000000000000000000000000000000000000000000000000000000000000000000000000000000N 00000000000NCONT   00    00000000000          00000000000000000000000000000000000000000000 000000000000000A000000000000000000000000000000000000000000000 000000000000000000000000000000000000000     00000000                                                                                                                        000000000000000000
F0010000006325500003000086000061500042505000000000000000000201409260002001DISTRIBUIDORA CORDOBA                             C000000000470000000000000000000000100010010000000000000000000000F0010000006325500320140926000101 00000000000000000000000000000000000000000000000000000000000000000000000000000000000000000000000000000000000000000N 00000000000NCONT   00    00000000000          00000000000000000000000000000000000000000000 000000000000000A000000000000000000000000000000000000000000000 000000000000000000000000000000000000000     00000000                                                                                                                        000000000000000000
F0010000006325500004000086000061500023658300000000000000000201409260002001DISTRIBUIDORA CORDOBA                             C000000000027200000000000000000000100010010000000000000000000000F0010000006325500420140926000101 00000000000000000000000000000000000000000000000000000000000000000000000000000000000000000000000000000000000000000N 00000000000NCONT   00    00000000000          00000000000000000000000000000000000000000000 000000000000000A000000000000000000000000000000000000000000000 000000000000000000000000000000000000000     00000000                                                                                                                        000000000000000000
F0010000006325500005000086000061500013552100000000000000000201409260002001DISTRIBUIDORA CORDOBA                             D000000000027200000000000000000000100010010000000000000000000000F0010000006325500520140926000101 00000000000000000000000000000000000000000000000000000000000000000000000000000000000000000000000000000000000000000N 00000000000NCONT   00    00000000000          00000000000000000000000000000000000000000000 000000000000000A000000000000000000000000000000000000000000000 000000000000000000000000000000000000000     00000000                                                                                                                        000000000000000000
F0010000006325600001000007200205100011050500000000000000000201409260002001LUIS MOLINA                                       D000000001040000000000000000000000100010010000000000000000000000F0010000006325600120140926000101 00000000000000000000000000000000000000000000000000000000000000000000000000000000000000000000000000000000000000000N 00000000000NCONT   00    00000000000          00000000000000000000000000000000000000000000 000000000000000A000000000000000000000000000000000000000000000 000000000000000000000000000000000000000     00000000                                                                                                                        000000000000000000
F0010000006325600002000007200205100041450500000000000000000201409260002001LUIS MOLINA                                       C000000000940000000000000000000000100010010000000000000000000000F0010000006325600220140926000101 00000000000000000000000000000000000000000000000000000000000000000000000000000000000000000000000000000000000000000N 00000000000NCONT   00    00000000000          00000000000000000000000000000000000000000000 000000000000000A000000000000000000000000000000000000000000000 000000000000000000000000000000000000000     00000000                                                                                                                        000000000000000000
F0010000006325600003000007200205100042505000000000000000000201409260002001LUIS MOLINA                                       C000000000100000000000000000000000100010010000000000000000000000F0010000006325600320140926000101 00000000000000000000000000000000000000000000000000000000000000000000000000000000000000000000000000000000000000000N 00000000000NCONT   00    00000000000          00000000000000000000000000000000000000000000 000000000000000A000000000000000000000000000000000000000000000 000000000000000000000000000000000000000     00000000                                                                                                                        000000000000000000
F0010000006325600004000007200205100023658300000000000000000201409260002001LUIS MOLINA                                       C000000000007500000000000000000000100010010000000000000000000000F0010000006325600420140926000101 00000000000000000000000000000000000000000000000000000000000000000000000000000000000000000000000000000000000000000N 00000000000NCONT   00    00000000000          00000000000000000000000000000000000000000000 000000000000000A000000000000000000000000000000000000000000000 000000000000000000000000000000000000000     00000000                                                                                                                        000000000000000000
F0010000006325600005000007200205100013552100000000000000000201409260002001LUIS MOLINA                                       D000000000007500000000000000000000100010010000000000000000000000F0010000006325600520140926000101 00000000000000000000000000000000000000000000000000000000000000000000000000000000000000000000000000000000000000000N 00000000000NCONT   00    00000000000          00000000000000000000000000000000000000000000 000000000000000A000000000000000000000000000000000000000000000 000000000000000000000000000000000000000     00000000                                                                                                                        000000000000000000
F0010000006325700001000000431178400011050500000000000000000201409260002001EFRAIN ALVAREZ                                    D000000000550000000000000000000000100010010000000000000000000000F0010000006325700120140926000101 00000000000000000000000000000000000000000000000000000000000000000000000000000000000000000000000000000000000000000N 00000000000NCONT   00    00000000000          00000000000000000000000000000000000000000000 000000000000000A000000000000000000000000000000000000000000000 000000000000000000000000000000000000000     00000000                                                                                                                        000000000000000000
F0010000006325700002000000431178400041450500000000000000000201409260002001EFRAIN ALVAREZ                                    C000000000500000000000000000000000100010010000000000000000000000F0010000006325700220140926000101 00000000000000000000000000000000000000000000000000000000000000000000000000000000000000000000000000000000000000000N 00000000000NCONT   00    00000000000          00000000000000000000000000000000000000000000 000000000000000A000000000000000000000000000000000000000000000 000000000000000000000000000000000000000     00000000                                                                                                                        000000000000000000
