F0010000008134200001000007082550800011050500000000000000000201601190002001FERRELECTRICOS EL PASEO                           D000000011000000000000000000000000100010010000000000000000000000F0010000008134200120160119000101 00000000000000000000000000000000000000000000000000000000000000000000000000000000000000000000000000000000000000000N 00000000000NCONT   00    00000000000          00000000000000000000000000000000000000000000 000000000000000A000000000000000000000000000000000000000000000 000000000000000000000000000000000000000     00000000                                                                                                                        000000000000000000
F0010000008134200002000007082550800041450500000000000000000201601190002001FERRELECTRICOS EL PASEO                           C000000010800000000000000000000000100010010000000000000000000000F0010000008134200220160119000101 00000000000000000000000000000000000000000000000000000000000000000000000000000000000000000000000000000000000000000N 00000000000NCONT   00    00000000000          00000000000000000000000000000000000000000000 000000000000000A000000000000000000000000000000000000000000000 000000000000000000000000000000000000000     00000000                                                                                                                        000000000000000000
F0010000008134200003000007082550800042505000000000000000000201601190002001FERRELECTRICOS EL PASEO                           C000000000200000000000000000000000100010010000000000000000000000F0010000008134200320160119000101 00000000000000000000000000000000000000000000000000000000000000000000000000000000000000000000000000000000000000000N 00000000000NCONT   00    00000000000          00000000000000000000000000000000000000000000 000000000000000A000000000000000000000000000000000000000000000 000000000000000000000000000000000000000     00000000                                                                                                                        000000000000000000
F0010000008134200004000007082550800023658300000000000000000201601190002001FERRELECTRICOS EL PASEO                           C000000000086400000000000000000000100010010000000000000000000000F0010000008134200420160119000101 00000000000000000000000000000000000000000000000000000000000000000000000000000000000000000000000000000000000000000N 00000000000NCONT   00    00000000000          00000000000000000000000000000000000000000000 000000000000000A000000000000000000000000000000000000000000000 000000000000000000000000000000000000000     00000000                                                                                                                        000000000000000000
F0010000008134200005000007082550800013552100000000000000000201601190002001FERRELECTRICOS EL PASEO                           D000000000086400000000000000000000100010010000000000000000000000F0010000008134200520160119000101 00000000000000000000000000000000000000000000000000000000000000000000000000000000000000000000000000000000000000000N 00000000000NCONT   00    00000000000          00000000000000000000000000000000000000000000 000000000000000A000000000000000000000000000000000000000000000 000000000000000000000000000000000000000     00000000                                                                                                                        000000000000000000
F0010000008134300001000083001155300013050500000000000000000201601190002001COMERCIALIZADORA RUBEN S LTDA                     D000000039676400000000000000000000100010010000000000000000000000F0010000008134300120160119000101 00000000000000000000000000000000000000000000000000000000000000000000000000000000000000000000000000000000000000000N 00000000000NCONT   00    00000000000          00000000000000000000000000000000000000000000 000000000000000A000000000000000000000000000000000000000000000 000000000000000000000000000000000000000     00000000                                                                                                                        000000000000000000
F0010000008134300002000083001155300041450500000000000000000201601190002001COMERCIALIZADORA RUBEN S LTDA                     C000000035348900000000000000000000100010010000000000000000000000F0010000008134300220160119000101 00000000000000000000000000000000000000000000000000000000000000000000000000000000000000000000000000000000000000000N 00000000000NCONT   00    00000000000          00000000000000000000000000000000000000000000 000000000000000A000000000000000000000000000000000000000000000 000000000000000000000000000000000000000     00000000                                                                                                                        000000000000000000
F0010000008134300003000083001155300042505000000000000000000201601190002001COMERCIALIZADORA RUBEN S LTDA                     C000000004327500000000000000000000100010010000000000000000000000F0010000008134300320160119000101 00000000000000000000000000000000000000000000000000000000000000000000000000000000000000000000000000000000000000000N 00000000000NCONT   00    00000000000          00000000000000000000000000000000000000000000 000000000000000A000000000000000000000000000000000000000000000 000000000000000000000000000000000000000     00000000                                                                                                                        000000000000000000
F0010000008134300004000083001155300023658300000000000000000201601190002001COMERCIALIZADORA RUBEN S LTDA                     C000000000282800000000000000000000100010010000000000000000000000F0010000008134300420160119000101 00000000000000000000000000000000000000000000000000000000000000000000000000000000000000000000000000000000000000000N 00000000000NCONT   00    00000000000          00000000000000000000000000000000000000000000 000000000000000A000000000000000000000000000000000000000000000 000000000000000000000000000000000000000     00000000                                                                                                                        000000000000000000
F0010000008134300005000083001155300013552100000000000000000201601190002001COMERCIALIZADORA RUBEN S LTDA                     D000000000282800000000000000000000100010010000000000000000000000F0010000008134300520160119000101 00000000000000000000000000000000000000000000000000000000000000000000000000000000000000000000000000000000000000000N 00000000000NCONT   00    00000000000          00000000000000000000000000000000000000000000 000000000000000A000000000000000000000000000000000000000000000 000000000000000000000000000000000000000     00000000                                                                                                                        000000000000000000
F0010000008134400001000090049854300013050500000000000000000201601190002001TRAPOS INDUSTRIALES DE COLOMBIA SAS               D000000028620000000000000000000000100010010000000000000000000000F0010000008134400120160119000101 00000000000000000000000000000000000000000000000000000000000000000000000000000000000000000000000000000000000000000N 00000000000NCONT   00    00000000000          00000000000000000000000000000000000000000000 000000000000000A000000000000000000000000000000000000000000000 000000000000000000000000000000000000000     00000000                                                                                                                        000000000000000000
F0010000008134400002000090049854300041450500000000000000000201601190002001TRAPOS INDUSTRIALES DE COLOMBIA SAS               C000000026000000000000000000000000100010010000000000000000000000F0010000008134400220160119000101 00000000000000000000000000000000000000000000000000000000000000000000000000000000000000000000000000000000000000000N 00000000000NCONT   00    00000000000          00000000000000000000000000000000000000000000 000000000000000A000000000000000000000000000000000000000000000 000000000000000000000000000000000000000     00000000                                                                                                                        000000000000000000
F0010000008134400003000090049854300042505000000000000000000201601190002001TRAPOS INDUSTRIALES DE COLOMBIA SAS               C000000002620000000000000000000000100010010000000000000000000000F0010000008134400320160119000101 00000000000000000000000000000000000000000000000000000000000000000000000000000000000000000000000000000000000000000N 00000000000NCONT   00    00000000000          00000000000000000000000000000000000000000000 000000000000000A000000000000000000000000000000000000000000000 000000000000000000000000000000000000000     00000000                                                                                                                        000000000000000000
F0010000008134400004000090049854300023658300000000000000000201601190002001TRAPOS INDUSTRIALES DE COLOMBIA SAS               C000000000208000000000000000000000100010010000000000000000000000F0010000008134400420160119000101 00000000000000000000000000000000000000000000000000000000000000000000000000000000000000000000000000000000000000000N 00000000000NCONT   00    00000000000          00000000000000000000000000000000000000000000 000000000000000A000000000000000000000000000000000000000000000 000000000000000000000000000000000000000     00000000                                                                                                                        000000000000000000
F0010000008134400005000090049854300013552100000000000000000201601190002001TRAPOS INDUSTRIALES DE COLOMBIA SAS               D000000000208000000000000000000000100010010000000000000000000000F0010000008134400520160119000101 00000000000000000000000000000000000000000000000000000000000000000000000000000000000000000000000000000000000000000N 00000000000NCONT   00    00000000000          00000000000000000000000000000000000000000000 000000000000000A000000000000000000000000000000000000000000000 000000000000000000000000000000000000000     00000000                                                                                                                        000000000000000000
F0010000008134500001000080012418800013050500000000000000000201601190002001DISTRITEC S.A.S                                   D000000003310000000000000000000000100010010000000000000000000000F0010000008134500120160119000101 00000000000000000000000000000000000000000000000000000000000000000000000000000000000000000000000000000000000000000N 00000000000NCONT   00    00000000000          00000000000000000000000000000000000000000000 000000000000000A000000000000000000000000000000000000000000000 000000000000000000000000000000000000000     00000000                                                                                                                        000000000000000000
F0010000008134500002000080012418800041450500000000000000000201601190002001DISTRITEC S.A.S                                   C000000003210000000000000000000000100010010000000000000000000000F0010000008134500220160119000101 00000000000000000000000000000000000000000000000000000000000000000000000000000000000000000000000000000000000000000N 00000000000NCONT   00    00000000000          00000000000000000000000000000000000000000000 000000000000000A000000000000000000000000000000000000000000000 000000000000000000000000000000000000000     00000000                                                                                                                        000000000000000000
F0010000008134500003000080012418800042505000000000000000000201601190002001DISTRITEC S.A.S                                   C000000000100000000000000000000000100010010000000000000000000000F0010000008134500320160119000101 00000000000000000000000000000000000000000000000000000000000000000000000000000000000000000000000000000000000000000N 00000000000NCONT   00    00000000000          00000000000000000000000000000000000000000000 000000000000000A000000000000000000000000000000000000000000000 000000000000000000000000000000000000000     00000000                                                                                                                        000000000000000000
F0010000008134500004000080012418800023658300000000000000000201601190002001DISTRITEC S.A.S                                   C000000000025700000000000000000000100010010000000000000000000000F0010000008134500420160119000101 00000000000000000000000000000000000000000000000000000000000000000000000000000000000000000000000000000000000000000N 00000000000NCONT   00    00000000000          00000000000000000000000000000000000000000000 000000000000000A000000000000000000000000000000000000000000000 000000000000000000000000000000000000000     00000000                                                                                                                        000000000000000000
F0010000008134500005000080012418800013552100000000000000000201601190002001DISTRITEC S.A.S                                   D000000000025700000000000000000000100010010000000000000000000000F0010000008134500520160119000101 00000000000000000000000000000000000000000000000000000000000000000000000000000000000000000000000000000000000000000N 00000000000NCONT   00    00000000000          00000000000000000000000000000000000000000000 000000000000000A000000000000000000000000000000000000000000000 000000000000000000000000000000000000000     00000000                                                                                                                        000000000000000000
F0010000008134600001000080202120100013050500000000000000000201601190002001COMUNICACIONES MOVILES S.A.                       D000000016000000000000000000000000100010010000000000000000000000F0010000008134600120160119000101 00000000000000000000000000000000000000000000000000000000000000000000000000000000000000000000000000000000000000000N 00000000000NCONT   00    00000000000          00000000000000000000000000000000000000000000 000000000000000A000000000000000000000000000000000000000000000 000000000000000000000000000000000000000     00000000                                                                                                                        000000000000000000
F0010000008134600002000080202120100041450500000000000000000201601190002001COMUNICACIONES MOVILES S.A.                       C000000015000000000000000000000000100010010000000000000000000000F0010000008134600220160119000101 00000000000000000000000000000000000000000000000000000000000000000000000000000000000000000000000000000000000000000N 00000000000NCONT   00    00000000000          00000000000000000000000000000000000000000000 000000000000000A000000000000000000000000000000000000000000000 000000000000000000000000000000000000000     00000000                                                                                                                        000000000000000000
F0010000008134600003000080202120100042505000000000000000000201601190002001COMUNICACIONES MOVILES S.A.                       C000000001000000000000000000000000100010010000000000000000000000F0010000008134600320160119000101 00000000000000000000000000000000000000000000000000000000000000000000000000000000000000000000000000000000000000000N 00000000000NCONT   00    00000000000          00000000000000000000000000000000000000000000 000000000000000A000000000000000000000000000000000000000000000 000000000000000000000000000000000000000     00000000                                                                                                                        000000000000000000
F0010000008134600004000080202120100023658300000000000000000201601190002001COMUNICACIONES MOVILES S.A.                       C000000000120000000000000000000000100010010000000000000000000000F0010000008134600420160119000101 00000000000000000000000000000000000000000000000000000000000000000000000000000000000000000000000000000000000000000N 00000000000NCONT   00    00000000000          00000000000000000000000000000000000000000000 000000000000000A000000000000000000000000000000000000000000000 000000000000000000000000000000000000000     00000000                                                                                                                        000000000000000000
F0010000008134600005000080202120100013552100000000000000000201601190002001COMUNICACIONES MOVILES S.A.                       D000000000120000000000000000000000100010010000000000000000000000F0010000008134600520160119000101 00000000000000000000000000000000000000000000000000000000000000000000000000000000000000000000000000000000000000000N 00000000000NCONT   00    00000000000          00000000000000000000000000000000000000000000 000000000000000A000000000000000000000000000000000000000000000 000000000000000000000000000000000000000     00000000                                                                                                                        000000000000000000
F0010000008134700001000090013324200013050500000000000000000201601190002001PLASTICOHEN E.U                                   D000000019820000000000000000000000100010010000000000000000000000F0010000008134700120160119000101 00000000000000000000000000000000000000000000000000000000000000000000000000000000000000000000000000000000000000000N 00000000000NCONT   00    00000000000          00000000000000000000000000000000000000000000 000000000000000A000000000000000000000000000000000000000000000 000000000000000000000000000000000000000     00000000                                                                                                                        000000000000000000
F0010000008134700002000090013324200041450500000000000000000201601190002001PLASTICOHEN E.U                                   C000000017820000000000000000000000100010010000000000000000000000F0010000008134700220160119000101 00000000000000000000000000000000000000000000000000000000000000000000000000000000000000000000000000000000000000000N 00000000000NCONT   00    00000000000          00000000000000000000000000000000000000000000 000000000000000A000000000000000000000000000000000000000000000 000000000000000000000000000000000000000     00000000                                                                                                                        000000000000000000
F0010000008134700003000090013324200042505000000000000000000201601190002001PLASTICOHEN E.U                                   C000000002000000000000000000000000100010010000000000000000000000F0010000008134700320160119000101 00000000000000000000000000000000000000000000000000000000000000000000000000000000000000000000000000000000000000000N 00000000000NCONT   00    00000000000          00000000000000000000000000000000000000000000 000000000000000A000000000000000000000000000000000000000000000 000000000000000000000000000000000000000     00000000                                                                                                                        000000000000000000
F0010000008134700004000090013324200023658300000000000000000201601190002001PLASTICOHEN E.U                                   C000000000142600000000000000000000100010010000000000000000000000F0010000008134700420160119000101 00000000000000000000000000000000000000000000000000000000000000000000000000000000000000000000000000000000000000000N 00000000000NCONT   00    00000000000          00000000000000000000000000000000000000000000 000000000000000A000000000000000000000000000000000000000000000 000000000000000000000000000000000000000     00000000                                                                                                                        000000000000000000
F0010000008134700005000090013324200013552100000000000000000201601190002001PLASTICOHEN E.U                                   D000000000142600000000000000000000100010010000000000000000000000F0010000008134700520160119000101 00000000000000000000000000000000000000000000000000000000000000000000000000000000000000000000000000000000000000000N 00000000000NCONT   00    00000000000          00000000000000000000000000000000000000000000 000000000000000A000000000000000000000000000000000000000000000 000000000000000000000000000000000000000     00000000                                                                                                                        000000000000000000
F0010000008134800001000090055568800013050500000000000000000201601190002001IMPORTADORA CRUZ Y BELTRAN                        D000000019300000000000000000000000100010010000000000000000000000F0010000008134800120160119000101 00000000000000000000000000000000000000000000000000000000000000000000000000000000000000000000000000000000000000000N 00000000000NCONT   00    00000000000          00000000000000000000000000000000000000000000 000000000000000A000000000000000000000000000000000000000000000 000000000000000000000000000000000000000     00000000                                                                                                                        000000000000000000
F0010000008134800002000090055568800041450500000000000000000201601190002001IMPORTADORA CRUZ Y BELTRAN                        C000000019200000000000000000000000100010010000000000000000000000F0010000008134800220160119000101 00000000000000000000000000000000000000000000000000000000000000000000000000000000000000000000000000000000000000000N 00000000000NCONT   00    00000000000          00000000000000000000000000000000000000000000 000000000000000A000000000000000000000000000000000000000000000 000000000000000000000000000000000000000     00000000                                                                                                                        000000000000000000
F0010000008134800003000090055568800042505000000000000000000201601190002001IMPORTADORA CRUZ Y BELTRAN                        C000000000100000000000000000000000100010010000000000000000000000F0010000008134800320160119000101 00000000000000000000000000000000000000000000000000000000000000000000000000000000000000000000000000000000000000000N 00000000000NCONT   00    00000000000          00000000000000000000000000000000000000000000 000000000000000A000000000000000000000000000000000000000000000 000000000000000000000000000000000000000     00000000                                                                                                                        000000000000000000
F0010000008134800004000090055568800023658300000000000000000201601190002001IMPORTADORA CRUZ Y BELTRAN                        C000000000153600000000000000000000100010010000000000000000000000F0010000008134800420160119000101 00000000000000000000000000000000000000000000000000000000000000000000000000000000000000000000000000000000000000000N 00000000000NCONT   00    00000000000          00000000000000000000000000000000000000000000 000000000000000A000000000000000000000000000000000000000000000 000000000000000000000000000000000000000     00000000                                                                                                                        000000000000000000
F0010000008134800005000090055568800013552100000000000000000201601190002001IMPORTADORA CRUZ Y BELTRAN                        D000000000153600000000000000000000100010010000000000000000000000F0010000008134800520160119000101 00000000000000000000000000000000000000000000000000000000000000000000000000000000000000000000000000000000000000000N 00000000000NCONT   00    00000000000          00000000000000000000000000000000000000000000 000000000000000A000000000000000000000000000000000000000000000 000000000000000000000000000000000000000     00000000                                                                                                                        000000000000000000
F0010000008134900001000089011033000013050500000000000000000201601190002001INDUSTRIAS CRUZ & CAÑON LTDA                     D000000016000000000000000000000000100010010000000000000000000000F0010000008134900120160119000101 00000000000000000000000000000000000000000000000000000000000000000000000000000000000000000000000000000000000000000N 00000000000NCONT   00    00000000000          00000000000000000000000000000000000000000000 000000000000000A000000000000000000000000000000000000000000000 000000000000000000000000000000000000000     00000000                                                                                                                        000000000000000000
F0010000008134900002000089011033000041450500000000000000000201601190002001INDUSTRIAS CRUZ & CAÑON LTDA                     C000000014000000000000000000000000100010010000000000000000000000F0010000008134900220160119000101 00000000000000000000000000000000000000000000000000000000000000000000000000000000000000000000000000000000000000000N 00000000000NCONT   00    00000000000          00000000000000000000000000000000000000000000 000000000000000A000000000000000000000000000000000000000000000 000000000000000000000000000000000000000     00000000                                                                                                                        000000000000000000
F0010000008134900003000089011033000042505000000000000000000201601190002001INDUSTRIAS CRUZ & CAÑON LTDA                     C000000002000000000000000000000000100010010000000000000000000000F0010000008134900320160119000101 00000000000000000000000000000000000000000000000000000000000000000000000000000000000000000000000000000000000000000N 00000000000NCONT   00    00000000000          00000000000000000000000000000000000000000000 000000000000000A000000000000000000000000000000000000000000000 000000000000000000000000000000000000000     00000000                                                                                                                        000000000000000000
F0010000008134900004000089011033000023658300000000000000000201601190002001INDUSTRIAS CRUZ & CAÑON LTDA                     C000000000112000000000000000000000100010010000000000000000000000F0010000008134900420160119000101 00000000000000000000000000000000000000000000000000000000000000000000000000000000000000000000000000000000000000000N 00000000000NCONT   00    00000000000          00000000000000000000000000000000000000000000 000000000000000A000000000000000000000000000000000000000000000 000000000000000000000000000000000000000     00000000                                                                                                                        000000000000000000
F0010000008134900005000089011033000013552100000000000000000201601190002001INDUSTRIAS CRUZ & CAÑON LTDA                     D000000000112000000000000000000000100010010000000000000000000000F0010000008134900520160119000101 00000000000000000000000000000000000000000000000000000000000000000000000000000000000000000000000000000000000000000N 00000000000NCONT   00    00000000000          00000000000000000000000000000000000000000000 000000000000000A000000000000000000000000000000000000000000000 000000000000000000000000000000000000000     00000000                                                                                                                        000000000000000000
F0010000008135000001000080019113900013050500000000000000000201601190002001COMERCIAL NOVAPEL LTDA                            D000000006100000000000000000000000100010010000000000000000000000F0010000008135000120160119000101 00000000000000000000000000000000000000000000000000000000000000000000000000000000000000000000000000000000000000000N 00000000000NCONT   00    00000000000          00000000000000000000000000000000000000000000 000000000000000A000000000000000000000000000000000000000000000 000000000000000000000000000000000000000     00000000                                                                                                                        000000000000000000
F0010000008135000002000080019113900041450500000000000000000201601190002001COMERCIAL NOVAPEL LTDA                            C000000005400000000000000000000000100010010000000000000000000000F0010000008135000220160119000101 00000000000000000000000000000000000000000000000000000000000000000000000000000000000000000000000000000000000000000N 00000000000NCONT   00    00000000000          00000000000000000000000000000000000000000000 000000000000000A000000000000000000000000000000000000000000000 000000000000000000000000000000000000000     00000000                                                                                                                        000000000000000000
F0010000008135000003000080019113900042505000000000000000000201601190002001COMERCIAL NOVAPEL LTDA                            C000000000700000000000000000000000100010010000000000000000000000F0010000008135000320160119000101 00000000000000000000000000000000000000000000000000000000000000000000000000000000000000000000000000000000000000000N 00000000000NCONT   00    00000000000          00000000000000000000000000000000000000000000 000000000000000A000000000000000000000000000000000000000000000 000000000000000000000000000000000000000     00000000                                                                                                                        000000000000000000
F0010000008135000004000080019113900023658300000000000000000201601190002001COMERCIAL NOVAPEL LTDA                            C000000000043200000000000000000000100010010000000000000000000000F0010000008135000420160119000101 00000000000000000000000000000000000000000000000000000000000000000000000000000000000000000000000000000000000000000N 00000000000NCONT   00    00000000000          00000000000000000000000000000000000000000000 000000000000000A000000000000000000000000000000000000000000000 000000000000000000000000000000000000000     00000000                                                                                                                        000000000000000000
F0010000008135000005000080019113900013552100000000000000000201601190002001COMERCIAL NOVAPEL LTDA                            D000000000043200000000000000000000100010010000000000000000000000F0010000008135000520160119000101 00000000000000000000000000000000000000000000000000000000000000000000000000000000000000000000000000000000000000000N 00000000000NCONT   00    00000000000          00000000000000000000000000000000000000000000 000000000000000A000000000000000000000000000000000000000000000 000000000000000000000000000000000000000     00000000                                                                                                                        000000000000000000
F0010000008135100001000083007900600013050500000000000000000201601190002001EXPRESO ANDINO DE CARGA SA                        D000000011800000000000000000000000100010010000000000000000000000F0010000008135100120160119000101 00000000000000000000000000000000000000000000000000000000000000000000000000000000000000000000000000000000000000000N 00000000000NCONT   00    00000000000          00000000000000000000000000000000000000000000 000000000000000A000000000000000000000000000000000000000000000 000000000000000000000000000000000000000     00000000                                                                                                                        000000000000000000
F0010000008135100002000083007900600041450500000000000000000201601190002001EXPRESO ANDINO DE CARGA SA                        C000000011700000000000000000000000100010010000000000000000000000F0010000008135100220160119000101 00000000000000000000000000000000000000000000000000000000000000000000000000000000000000000000000000000000000000000N 00000000000NCONT   00    00000000000          00000000000000000000000000000000000000000000 000000000000000A000000000000000000000000000000000000000000000 000000000000000000000000000000000000000     00000000                                                                                                                        000000000000000000
F0010000008135100003000083007900600042505000000000000000000201601190002001EXPRESO ANDINO DE CARGA SA                        C000000000100000000000000000000000100010010000000000000000000000F0010000008135100320160119000101 00000000000000000000000000000000000000000000000000000000000000000000000000000000000000000000000000000000000000000N 00000000000NCONT   00    00000000000          00000000000000000000000000000000000000000000 000000000000000A000000000000000000000000000000000000000000000 000000000000000000000000000000000000000     00000000                                                                                                                        000000000000000000
F0010000008135100004000083007900600023658300000000000000000201601190002001EXPRESO ANDINO DE CARGA SA                        C000000000093600000000000000000000100010010000000000000000000000F0010000008135100420160119000101 00000000000000000000000000000000000000000000000000000000000000000000000000000000000000000000000000000000000000000N 00000000000NCONT   00    00000000000          00000000000000000000000000000000000000000000 000000000000000A000000000000000000000000000000000000000000000 000000000000000000000000000000000000000     00000000                                                                                                                        000000000000000000
F0010000008135100005000083007900600013552100000000000000000201601190002001EXPRESO ANDINO DE CARGA SA                        D000000000093600000000000000000000100010010000000000000000000000F0010000008135100520160119000101 00000000000000000000000000000000000000000000000000000000000000000000000000000000000000000000000000000000000000000N 00000000000NCONT   00    00000000000          00000000000000000000000000000000000000000000 000000000000000A000000000000000000000000000000000000000000000 000000000000000000000000000000000000000     00000000                                                                                                                        000000000000000000
F0010000008135200001000000871714900013050500000000000000000201601190002001ROLNAN DE LA ROSA  INSIGNARES                     D000000027439200000000000000000000100010010000000000000000000000F0010000008135200120160119000101 00000000000000000000000000000000000000000000000000000000000000000000000000000000000000000000000000000000000000000N 00000000000NCONT   00    00000000000          00000000000000000000000000000000000000000000 000000000000000A000000000000000000000000000000000000000000000 000000000000000000000000000000000000000     00000000                                                                                                                        000000000000000000
F0010000008135200002000000871714900041450500000000000000000201601190002001ROLNAN DE LA ROSA  INSIGNARES                     C000000022989800000000000000000000100010010000000000000000000000F0010000008135200220160119000101 00000000000000000000000000000000000000000000000000000000000000000000000000000000000000000000000000000000000000000N 00000000000NCONT   00    00000000000          00000000000000000000000000000000000000000000 000000000000000A000000000000000000000000000000000000000000000 000000000000000000000000000000000000000     00000000                                                                                                                        000000000000000000
F0010000008135200003000000871714900042505000000000000000000201601190002001ROLNAN DE LA ROSA  INSIGNARES                     C000000004449400000000000000000000100010010000000000000000000000F0010000008135200320160119000101 00000000000000000000000000000000000000000000000000000000000000000000000000000000000000000000000000000000000000000N 00000000000NCONT   00    00000000000          00000000000000000000000000000000000000000000 000000000000000A000000000000000000000000000000000000000000000 000000000000000000000000000000000000000     00000000                                                                                                                        000000000000000000
F0010000008135200004000000871714900023658300000000000000000201601190002001ROLNAN DE LA ROSA  INSIGNARES                     C000000000183900000000000000000000100010010000000000000000000000F0010000008135200420160119000101 00000000000000000000000000000000000000000000000000000000000000000000000000000000000000000000000000000000000000000N 00000000000NCONT   00    00000000000          00000000000000000000000000000000000000000000 000000000000000A000000000000000000000000000000000000000000000 000000000000000000000000000000000000000     00000000                                                                                                                        000000000000000000
F0010000008135200005000000871714900013552100000000000000000201601190002001ROLNAN DE LA ROSA  INSIGNARES                     D000000000183900000000000000000000100010010000000000000000000000F0010000008135200520160119000101 00000000000000000000000000000000000000000000000000000000000000000000000000000000000000000000000000000000000000000N 00000000000NCONT   00    00000000000          00000000000000000000000000000000000000000000 000000000000000A000000000000000000000000000000000000000000000 000000000000000000000000000000000000000     00000000                                                                                                                        000000000000000000
F0010000008135300001000090059316900013050500000000000000000201601190002001DISTRIBUCIONES Y REPRESENTACIONES MANA            D000000008479000000000000000000000100010010000000000000000000000F0010000008135300120160119000101 00000000000000000000000000000000000000000000000000000000000000000000000000000000000000000000000000000000000000000N 00000000000NCONT   00    00000000000          00000000000000000000000000000000000000000000 000000000000000A000000000000000000000000000000000000000000000 000000000000000000000000000000000000000     00000000                                                                                                                        000000000000000000
F0010000008135300002000090059316900041450500000000000000000201601190002001DISTRIBUCIONES Y REPRESENTACIONES MANA            C000000006540000000000000000000000100010010000000000000000000000F0010000008135300220160119000101 00000000000000000000000000000000000000000000000000000000000000000000000000000000000000000000000000000000000000000N 00000000000NCONT   00    00000000000          00000000000000000000000000000000000000000000 000000000000000A000000000000000000000000000000000000000000000 000000000000000000000000000000000000000     00000000                                                                                                                        000000000000000000
F0010000008135300003000090059316900042505000000000000000000201601190002001DISTRIBUCIONES Y REPRESENTACIONES MANA            C000000001939000000000000000000000100010010000000000000000000000F0010000008135300320160119000101 00000000000000000000000000000000000000000000000000000000000000000000000000000000000000000000000000000000000000000N 00000000000NCONT   00    00000000000          00000000000000000000000000000000000000000000 000000000000000A000000000000000000000000000000000000000000000 000000000000000000000000000000000000000     00000000                                                                                                                        000000000000000000
F0010000008135300004000090059316900023658300000000000000000201601190002001DISTRIBUCIONES Y REPRESENTACIONES MANA            C000000000052300000000000000000000100010010000000000000000000000F0010000008135300420160119000101 00000000000000000000000000000000000000000000000000000000000000000000000000000000000000000000000000000000000000000N 00000000000NCONT   00    00000000000          00000000000000000000000000000000000000000000 000000000000000A000000000000000000000000000000000000000000000 000000000000000000000000000000000000000     00000000                                                                                                                        000000000000000000
F0010000008135300005000090059316900013552100000000000000000201601190002001DISTRIBUCIONES Y REPRESENTACIONES MANA            D000000000052300000000000000000000100010010000000000000000000000F0010000008135300520160119000101 00000000000000000000000000000000000000000000000000000000000000000000000000000000000000000000000000000000000000000N 00000000000NCONT   00    00000000000          00000000000000000000000000000000000000000000 000000000000000A000000000000000000000000000000000000000000000 000000000000000000000000000000000000000     00000000                                                                                                                        000000000000000000
F0010000008135400001000089080078800013050500000000000000000201601190002001SUMATEC S.A.                                      D000000009868000000000000000000000100010010000000000000000000000F0010000008135400120160119000101 00000000000000000000000000000000000000000000000000000000000000000000000000000000000000000000000000000000000000000N 00000000000NCONT   00    00000000000          00000000000000000000000000000000000000000000 000000000000000A000000000000000000000000000000000000000000000 000000000000000000000000000000000000000     00000000                                                                                                                        000000000000000000
F0010000008135400002000089080078800041450500000000000000000201601190002001SUMATEC S.A.                                      C000000008800000000000000000000000100010010000000000000000000000F0010000008135400220160119000101 00000000000000000000000000000000000000000000000000000000000000000000000000000000000000000000000000000000000000000N 00000000000NCONT   00    00000000000          00000000000000000000000000000000000000000000 000000000000000A000000000000000000000000000000000000000000000 000000000000000000000000000000000000000     00000000                                                                                                                        000000000000000000
F0010000008135400003000089080078800042505000000000000000000201601190002001SUMATEC S.A.                                      C000000001068000000000000000000000100010010000000000000000000000F0010000008135400320160119000101 00000000000000000000000000000000000000000000000000000000000000000000000000000000000000000000000000000000000000000N 00000000000NCONT   00    00000000000          00000000000000000000000000000000000000000000 000000000000000A000000000000000000000000000000000000000000000 000000000000000000000000000000000000000     00000000                                                                                                                        000000000000000000
F0010000008135400004000089080078800023658300000000000000000201601190002001SUMATEC S.A.                                      C000000000070400000000000000000000100010010000000000000000000000F0010000008135400420160119000101 00000000000000000000000000000000000000000000000000000000000000000000000000000000000000000000000000000000000000000N 00000000000NCONT   00    00000000000          00000000000000000000000000000000000000000000 000000000000000A000000000000000000000000000000000000000000000 000000000000000000000000000000000000000     00000000                                                                                                                        000000000000000000
F0010000008135400005000089080078800013552100000000000000000201601190002001SUMATEC S.A.                                      D000000000070400000000000000000000100010010000000000000000000000F0010000008135400520160119000101 00000000000000000000000000000000000000000000000000000000000000000000000000000000000000000000000000000000000000000N 00000000000NCONT   00    00000000000          00000000000000000000000000000000000000000000 000000000000000A000000000000000000000000000000000000000000000 000000000000000000000000000000000000000     00000000                                                                                                                        000000000000000000
F0010000008135500001000080002300200013050500000000000000000201601190002001DISREL S.A.                                       D000000012750000000000000000000000100010010000000000000000000000F0010000008135500120160119000101 00000000000000000000000000000000000000000000000000000000000000000000000000000000000000000000000000000000000000000N 00000000000NCONT   00    00000000000          00000000000000000000000000000000000000000000 000000000000000A000000000000000000000000000000000000000000000 000000000000000000000000000000000000000     00000000                                                                                                                        000000000000000000
F0010000008135500002000080002300200041450500000000000000000201601190002001DISREL S.A.                                       C000000010200000000000000000000000100010010000000000000000000000F0010000008135500220160119000101 00000000000000000000000000000000000000000000000000000000000000000000000000000000000000000000000000000000000000000N 00000000000NCONT   00    00000000000          00000000000000000000000000000000000000000000 000000000000000A000000000000000000000000000000000000000000000 000000000000000000000000000000000000000     00000000                                                                                                                        000000000000000000
F0010000008135500003000080002300200042505000000000000000000201601190002001DISREL S.A.                                       C000000002550000000000000000000000100010010000000000000000000000F0010000008135500320160119000101 00000000000000000000000000000000000000000000000000000000000000000000000000000000000000000000000000000000000000000N 00000000000NCONT   00    00000000000          00000000000000000000000000000000000000000000 000000000000000A000000000000000000000000000000000000000000000 000000000000000000000000000000000000000     00000000                                                                                                                        000000000000000000
F0010000008135500004000080002300200023658300000000000000000201601190002001DISREL S.A.                                       C000000000081600000000000000000000100010010000000000000000000000F0010000008135500420160119000101 00000000000000000000000000000000000000000000000000000000000000000000000000000000000000000000000000000000000000000N 00000000000NCONT   00    00000000000          00000000000000000000000000000000000000000000 000000000000000A000000000000000000000000000000000000000000000 000000000000000000000000000000000000000     00000000                                                                                                                        000000000000000000
F0010000008135500005000080002300200013552100000000000000000201601190002001DISREL S.A.                                       D000000000081600000000000000000000100010010000000000000000000000F0010000008135500520160119000101 00000000000000000000000000000000000000000000000000000000000000000000000000000000000000000000000000000000000000000N 00000000000NCONT   00    00000000000          00000000000000000000000000000000000000000000 000000000000000A000000000000000000000000000000000000000000000 000000000000000000000000000000000000000     00000000                                                                                                                        000000000000000000
F0010000008135600001000007215902600013050500000000000000000201601190002001KRISS LORENA BLANCO  (BANTEX)                     D000000016310000000000000000000000100010010000000000000000000000F0010000008135600120160119000101 00000000000000000000000000000000000000000000000000000000000000000000000000000000000000000000000000000000000000000N 00000000000NCONT   00    00000000000          00000000000000000000000000000000000000000000 000000000000000A000000000000000000000000000000000000000000000 000000000000000000000000000000000000000     00000000                                                                                                                        000000000000000000
F0010000008135600002000007215902600041450500000000000000000201601190002001KRISS LORENA BLANCO  (BANTEX)                     C000000014300000000000000000000000100010010000000000000000000000F0010000008135600220160119000101 00000000000000000000000000000000000000000000000000000000000000000000000000000000000000000000000000000000000000000N 00000000000NCONT   00    00000000000          00000000000000000000000000000000000000000000 000000000000000A000000000000000000000000000000000000000000000 000000000000000000000000000000000000000     00000000                                                                                                                        000000000000000000
F0010000008135600003000007215902600042505000000000000000000201601190002001KRISS LORENA BLANCO  (BANTEX)                     C000000002010000000000000000000000100010010000000000000000000000F0010000008135600320160119000101 00000000000000000000000000000000000000000000000000000000000000000000000000000000000000000000000000000000000000000N 00000000000NCONT   00    00000000000          00000000000000000000000000000000000000000000 000000000000000A000000000000000000000000000000000000000000000 000000000000000000000000000000000000000     00000000                                                                                                                        000000000000000000
F0010000008135600004000007215902600023658300000000000000000201601190002001KRISS LORENA BLANCO  (BANTEX)                     C000000000114400000000000000000000100010010000000000000000000000F0010000008135600420160119000101 00000000000000000000000000000000000000000000000000000000000000000000000000000000000000000000000000000000000000000N 00000000000NCONT   00    00000000000          00000000000000000000000000000000000000000000 000000000000000A000000000000000000000000000000000000000000000 000000000000000000000000000000000000000     00000000                                                                                                                        000000000000000000
F0010000008135600005000007215902600013552100000000000000000201601190002001KRISS LORENA BLANCO  (BANTEX)                     D000000000114400000000000000000000100010010000000000000000000000F0010000008135600520160119000101 00000000000000000000000000000000000000000000000000000000000000000000000000000000000000000000000000000000000000000N 00000000000NCONT   00    00000000000          00000000000000000000000000000000000000000000 000000000000000A000000000000000000000000000000000000000000000 000000000000000000000000000000000000000     00000000                                                                                                                        000000000000000000
F0010000008135700001000083008772100013050500000000000000000201601190002001ILUMEC SAS                                        D000000035475500000000000000000000100010010000000000000000000000F0010000008135700120160119000101 00000000000000000000000000000000000000000000000000000000000000000000000000000000000000000000000000000000000000000N 00000000000NCONT   00    00000000000          00000000000000000000000000000000000000000000 000000000000000A000000000000000000000000000000000000000000000 000000000000000000000000000000000000000     00000000                                                                                                                        000000000000000000
F0010000008135700002000083008772100041450500000000000000000201601190002001ILUMEC SAS                                        C000000025400000000000000000000000100010010000000000000000000000F0010000008135700220160119000101 00000000000000000000000000000000000000000000000000000000000000000000000000000000000000000000000000000000000000000N 00000000000NCONT   00    00000000000          00000000000000000000000000000000000000000000 000000000000000A000000000000000000000000000000000000000000000 000000000000000000000000000000000000000     00000000                                                                                                                        000000000000000000
F0010000008135700003000083008772100042505000000000000000000201601190002001ILUMEC SAS                                        C000000010075500000000000000000000100010010000000000000000000000F0010000008135700320160119000101 00000000000000000000000000000000000000000000000000000000000000000000000000000000000000000000000000000000000000000N 00000000000NCONT   00    00000000000          00000000000000000000000000000000000000000000 000000000000000A000000000000000000000000000000000000000000000 000000000000000000000000000000000000000     00000000                                                                                                                        000000000000000000
F0010000008135700004000083008772100023658300000000000000000201601190002001ILUMEC SAS                                        C000000000203200000000000000000000100010010000000000000000000000F0010000008135700420160119000101 00000000000000000000000000000000000000000000000000000000000000000000000000000000000000000000000000000000000000000N 00000000000NCONT   00    00000000000          00000000000000000000000000000000000000000000 000000000000000A000000000000000000000000000000000000000000000 000000000000000000000000000000000000000     00000000                                                                                                                        000000000000000000
F0010000008135700005000083008772100013552100000000000000000201601190002001ILUMEC SAS                                        D000000000203200000000000000000000100010010000000000000000000000F0010000008135700520160119000101 00000000000000000000000000000000000000000000000000000000000000000000000000000000000000000000000000000000000000000N 00000000000NCONT   00    00000000000          00000000000000000000000000000000000000000000 000000000000000A000000000000000000000000000000000000000000000 000000000000000000000000000000000000000     00000000                                                                                                                        000000000000000000
F0010000008135800001000000868487100013050500000000000000000201601190002001JAIME PIÑEROS                                    D000000004930000000000000000000000100010010000000000000000000000F0010000008135800120160119000101 00000000000000000000000000000000000000000000000000000000000000000000000000000000000000000000000000000000000000000N 00000000000NCONT   00    00000000000          00000000000000000000000000000000000000000000 000000000000000A000000000000000000000000000000000000000000000 000000000000000000000000000000000000000     00000000                                                                                                                        000000000000000000
F0010000008135800002000000868487100041450500000000000000000201601190002001JAIME PIÑEROS                                    C000000003690000000000000000000000100010010000000000000000000000F0010000008135800220160119000101 00000000000000000000000000000000000000000000000000000000000000000000000000000000000000000000000000000000000000000N 00000000000NCONT   00    00000000000          00000000000000000000000000000000000000000000 000000000000000A000000000000000000000000000000000000000000000 000000000000000000000000000000000000000     00000000                                                                                                                        000000000000000000
F0010000008135800003000000868487100042505000000000000000000201601190002001JAIME PIÑEROS                                    C000000001240000000000000000000000100010010000000000000000000000F0010000008135800320160119000101 00000000000000000000000000000000000000000000000000000000000000000000000000000000000000000000000000000000000000000N 00000000000NCONT   00    00000000000          00000000000000000000000000000000000000000000 000000000000000A000000000000000000000000000000000000000000000 000000000000000000000000000000000000000     00000000                                                                                                                        000000000000000000
F0010000008135800004000000868487100023658300000000000000000201601190002001JAIME PIÑEROS                                    C000000000029500000000000000000000100010010000000000000000000000F0010000008135800420160119000101 00000000000000000000000000000000000000000000000000000000000000000000000000000000000000000000000000000000000000000N 00000000000NCONT   00    00000000000          00000000000000000000000000000000000000000000 000000000000000A000000000000000000000000000000000000000000000 000000000000000000000000000000000000000     00000000                                                                                                                        000000000000000000
F0010000008135800005000000868487100013552100000000000000000201601190002001JAIME PIÑEROS                                    D000000000029500000000000000000000100010010000000000000000000000F0010000008135800520160119000101 00000000000000000000000000000000000000000000000000000000000000000000000000000000000000000000000000000000000000000N 00000000000NCONT   00    00000000000          00000000000000000000000000000000000000000000 000000000000000A000000000000000000000000000000000000000000000 000000000000000000000000000000000000000     00000000                                                                                                                        000000000000000000
F0010000008135900001000090037881900013050500000000000000000201601190002001COMERCIALIZADORA RACOPI S.A.S                     D000000004920000000000000000000000100010010000000000000000000000F0010000008135900120160119000101 00000000000000000000000000000000000000000000000000000000000000000000000000000000000000000000000000000000000000000N 00000000000NCONT   00    00000000000          00000000000000000000000000000000000000000000 000000000000000A000000000000000000000000000000000000000000000 000000000000000000000000000000000000000     00000000                                                                                                                        000000000000000000
F0010000008135900002000090037881900041450500000000000000000201601190002001COMERCIALIZADORA RACOPI S.A.S                     C000000004320000000000000000000000100010010000000000000000000000F0010000008135900220160119000101 00000000000000000000000000000000000000000000000000000000000000000000000000000000000000000000000000000000000000000N 00000000000NCONT   00    00000000000          00000000000000000000000000000000000000000000 000000000000000A000000000000000000000000000000000000000000000 000000000000000000000000000000000000000     00000000                                                                                                                        000000000000000000
F0010000008135900003000090037881900042505000000000000000000201601190002001COMERCIALIZADORA RACOPI S.A.S                     C000000000600000000000000000000000100010010000000000000000000000F0010000008135900320160119000101 00000000000000000000000000000000000000000000000000000000000000000000000000000000000000000000000000000000000000000N 00000000000NCONT   00    00000000000          00000000000000000000000000000000000000000000 000000000000000A000000000000000000000000000000000000000000000 000000000000000000000000000000000000000     00000000                                                                                                                        000000000000000000
F0010000008135900004000090037881900023658300000000000000000201601190002001COMERCIALIZADORA RACOPI S.A.S                     C000000000034600000000000000000000100010010000000000000000000000F0010000008135900420160119000101 00000000000000000000000000000000000000000000000000000000000000000000000000000000000000000000000000000000000000000N 00000000000NCONT   00    00000000000          00000000000000000000000000000000000000000000 000000000000000A000000000000000000000000000000000000000000000 000000000000000000000000000000000000000     00000000                                                                                                                        000000000000000000
F0010000008135900005000090037881900013552100000000000000000201601190002001COMERCIALIZADORA RACOPI S.A.S                     D000000000034600000000000000000000100010010000000000000000000000F0010000008135900520160119000101 00000000000000000000000000000000000000000000000000000000000000000000000000000000000000000000000000000000000000000N 00000000000NCONT   00    00000000000          00000000000000000000000000000000000000000000 000000000000000A000000000000000000000000000000000000000000000 000000000000000000000000000000000000000     00000000                                                                                                                        000000000000000000
F0010000008136000001000080201112800013050500000000000000000201601190002001CANGURO INTERNATIONAL S.A.                        D000000028980000000000000000000000100010010000000000000000000000F0010000008136000120160119000101 00000000000000000000000000000000000000000000000000000000000000000000000000000000000000000000000000000000000000000N 00000000000NCONT   00    00000000000          00000000000000000000000000000000000000000000 000000000000000A000000000000000000000000000000000000000000000 000000000000000000000000000000000000000     00000000                                                                                                                        000000000000000000
F0010000008136000002000080201112800041450500000000000000000201601190002001CANGURO INTERNATIONAL S.A.                        C000000022080000000000000000000000100010010000000000000000000000F0010000008136000220160119000101 00000000000000000000000000000000000000000000000000000000000000000000000000000000000000000000000000000000000000000N 00000000000NCONT   00    00000000000          00000000000000000000000000000000000000000000 000000000000000A000000000000000000000000000000000000000000000 000000000000000000000000000000000000000     00000000                                                                                                                        000000000000000000
F0010000008136000003000080201112800042505000000000000000000201601190002001CANGURO INTERNATIONAL S.A.                        C000000006900000000000000000000000100010010000000000000000000000F0010000008136000320160119000101 00000000000000000000000000000000000000000000000000000000000000000000000000000000000000000000000000000000000000000N 00000000000NCONT   00    00000000000          00000000000000000000000000000000000000000000 000000000000000A000000000000000000000000000000000000000000000 000000000000000000000000000000000000000     00000000                                                                                                                        000000000000000000
F0010000008136000004000080201112800023658300000000000000000201601190002001CANGURO INTERNATIONAL S.A.                        C000000000176600000000000000000000100010010000000000000000000000F0010000008136000420160119000101 00000000000000000000000000000000000000000000000000000000000000000000000000000000000000000000000000000000000000000N 00000000000NCONT   00    00000000000          00000000000000000000000000000000000000000000 000000000000000A000000000000000000000000000000000000000000000 000000000000000000000000000000000000000     00000000                                                                                                                        000000000000000000
F0010000008136000005000080201112800013552100000000000000000201601190002001CANGURO INTERNATIONAL S.A.                        D000000000176600000000000000000000100010010000000000000000000000F0010000008136000520160119000101 00000000000000000000000000000000000000000000000000000000000000000000000000000000000000000000000000000000000000000N 00000000000NCONT   00    00000000000          00000000000000000000000000000000000000000000 000000000000000A000000000000000000000000000000000000000000000 000000000000000000000000000000000000000     00000000                                                                                                                        000000000000000000
F0010000008136100001000089031248700013050500000000000000000201601190002001DISTRIBUIDORA CALIPLASTICOS LTDA                  D000000147167400000000000000000000100010010000000000000000000000F0010000008136100120160119000101 00000000000000000000000000000000000000000000000000000000000000000000000000000000000000000000000000000000000000000N 00000000000NCONT   00    00000000000          00000000000000000000000000000000000000000000 000000000000000A000000000000000000000000000000000000000000000 000000000000000000000000000000000000000     00000000                                                                                                                        000000000000000000
F0010000008136100002000089031248700041450500000000000000000201601190002001DISTRIBUIDORA CALIPLASTICOS LTDA                  C000000143432400000000000000000000100010010000000000000000000000F0010000008136100220160119000101 00000000000000000000000000000000000000000000000000000000000000000000000000000000000000000000000000000000000000000N 00000000000NCONT   00    00000000000          00000000000000000000000000000000000000000000 000000000000000A000000000000000000000000000000000000000000000 000000000000000000000000000000000000000     00000000                                                                                                                        000000000000000000
F0010000008136100003000089031248700042505000000000000000000201601190002001DISTRIBUIDORA CALIPLASTICOS LTDA                  C000000003735000000000000000000000100010010000000000000000000000F0010000008136100320160119000101 00000000000000000000000000000000000000000000000000000000000000000000000000000000000000000000000000000000000000000N 00000000000NCONT   00    00000000000          00000000000000000000000000000000000000000000 000000000000000A000000000000000000000000000000000000000000000 000000000000000000000000000000000000000     00000000                                                                                                                        000000000000000000
F0010000008136100004000089031248700023658300000000000000000201601190002001DISTRIBUIDORA CALIPLASTICOS LTDA                  C000000001147500000000000000000000100010010000000000000000000000F0010000008136100420160119000101 00000000000000000000000000000000000000000000000000000000000000000000000000000000000000000000000000000000000000000N 00000000000NCONT   00    00000000000          00000000000000000000000000000000000000000000 000000000000000A000000000000000000000000000000000000000000000 000000000000000000000000000000000000000     00000000                                                                                                                        000000000000000000
F0010000008136100005000089031248700013552100000000000000000201601190002001DISTRIBUIDORA CALIPLASTICOS LTDA                  D000000001147500000000000000000000100010010000000000000000000000F0010000008136100520160119000101 00000000000000000000000000000000000000000000000000000000000000000000000000000000000000000000000000000000000000000N 00000000000NCONT   00    00000000000          00000000000000000000000000000000000000000000 000000000000000A000000000000000000000000000000000000000000000 000000000000000000000000000000000000000     00000000                                                                                                                        000000000000000000
F0010000008136200001000090044920600013050500000000000000000201601190002001QUATRO CARIBE SAS                                 D000000034645000000000000000000000100010010000000000000000000000F0010000008136200120160119000101 00000000000000000000000000000000000000000000000000000000000000000000000000000000000000000000000000000000000000000N 00000000000NCONT   00    00000000000          00000000000000000000000000000000000000000000 000000000000000A000000000000000000000000000000000000000000000 000000000000000000000000000000000000000     00000000                                                                                                                        000000000000000000
F0010000008136200002000090044920600041450500000000000000000201601190002001QUATRO CARIBE SAS                                 C000000027420000000000000000000000100010010000000000000000000000F0010000008136200220160119000101 00000000000000000000000000000000000000000000000000000000000000000000000000000000000000000000000000000000000000000N 00000000000NCONT   00    00000000000          00000000000000000000000000000000000000000000 000000000000000A000000000000000000000000000000000000000000000 000000000000000000000000000000000000000     00000000                                                                                                                        000000000000000000
F0010000008136200003000090044920600042505000000000000000000201601190002001QUATRO CARIBE SAS                                 C000000007225000000000000000000000100010010000000000000000000000F0010000008136200320160119000101 00000000000000000000000000000000000000000000000000000000000000000000000000000000000000000000000000000000000000000N 00000000000NCONT   00    00000000000          00000000000000000000000000000000000000000000 000000000000000A000000000000000000000000000000000000000000000 000000000000000000000000000000000000000     00000000                                                                                                                        000000000000000000
F0010000008136200004000090044920600023658300000000000000000201601190002001QUATRO CARIBE SAS                                 C000000000219400000000000000000000100010010000000000000000000000F0010000008136200420160119000101 00000000000000000000000000000000000000000000000000000000000000000000000000000000000000000000000000000000000000000N 00000000000NCONT   00    00000000000          00000000000000000000000000000000000000000000 000000000000000A000000000000000000000000000000000000000000000 000000000000000000000000000000000000000     00000000                                                                                                                        000000000000000000
F0010000008136200005000090044920600013552100000000000000000201601190002001QUATRO CARIBE SAS                                 D000000000219400000000000000000000100010010000000000000000000000F0010000008136200520160119000101 00000000000000000000000000000000000000000000000000000000000000000000000000000000000000000000000000000000000000000N 00000000000NCONT   00    00000000000          00000000000000000000000000000000000000000000 000000000000000A000000000000000000000000000000000000000000000 000000000000000000000000000000000000000     00000000                                                                                                                        000000000000000000
F0010000008136300001000089010952800013050500000000000000000201601190002001IND. LITOGRAF. BOSTON S.A.S.                      D000000085570000000000000000000000100010010000000000000000000000F0010000008136300120160119000101 00000000000000000000000000000000000000000000000000000000000000000000000000000000000000000000000000000000000000000N 00000000000NCONT   00    00000000000          00000000000000000000000000000000000000000000 000000000000000A000000000000000000000000000000000000000000000 000000000000000000000000000000000000000     00000000                                                                                                                        000000000000000000
F0010000008136300002000089010952800041450500000000000000000201601190002001IND. LITOGRAF. BOSTON S.A.S.                      C000000073470000000000000000000000100010010000000000000000000000F0010000008136300220160119000101 00000000000000000000000000000000000000000000000000000000000000000000000000000000000000000000000000000000000000000N 00000000000NCONT   00    00000000000          00000000000000000000000000000000000000000000 000000000000000A000000000000000000000000000000000000000000000 000000000000000000000000000000000000000     00000000                                                                                                                        000000000000000000
F0010000008136300003000089010952800042505000000000000000000201601190002001IND. LITOGRAF. BOSTON S.A.S.                      C000000012100000000000000000000000100010010000000000000000000000F0010000008136300320160119000101 00000000000000000000000000000000000000000000000000000000000000000000000000000000000000000000000000000000000000000N 00000000000NCONT   00    00000000000          00000000000000000000000000000000000000000000 000000000000000A000000000000000000000000000000000000000000000 000000000000000000000000000000000000000     00000000                                                                                                                        000000000000000000
F0010000008136300004000089010952800023658300000000000000000201601190002001IND. LITOGRAF. BOSTON S.A.S.                      C000000000587800000000000000000000100010010000000000000000000000F0010000008136300420160119000101 00000000000000000000000000000000000000000000000000000000000000000000000000000000000000000000000000000000000000000N 00000000000NCONT   00    00000000000          00000000000000000000000000000000000000000000 000000000000000A000000000000000000000000000000000000000000000 000000000000000000000000000000000000000     00000000                                                                                                                        000000000000000000
F0010000008136300005000089010952800013552100000000000000000201601190002001IND. LITOGRAF. BOSTON S.A.S.                      D000000000587800000000000000000000100010010000000000000000000000F0010000008136300520160119000101 00000000000000000000000000000000000000000000000000000000000000000000000000000000000000000000000000000000000000000N 00000000000NCONT   00    00000000000          00000000000000000000000000000000000000000000 000000000000000A000000000000000000000000000000000000000000000 000000000000000000000000000000000000000     00000000                                                                                                                        000000000000000000
F0010000008136400001000080018877200011050500000000000000000201601190002001DROGUERIA INDUSTRIAL JEMAR LTDA                   D000000000600000000000000000000000100010010000000000000000000000F0010000008136400120160119000101 00000000000000000000000000000000000000000000000000000000000000000000000000000000000000000000000000000000000000000N 00000000000NCONT   00    00000000000          00000000000000000000000000000000000000000000 000000000000000A000000000000000000000000000000000000000000000 000000000000000000000000000000000000000     00000000                                                                                                                        000000000000000000
F0010000008136400002000080018877200041450500000000000000000201601190002001DROGUERIA INDUSTRIAL JEMAR LTDA                   C000000000500000000000000000000000100010010000000000000000000000F0010000008136400220160119000101 00000000000000000000000000000000000000000000000000000000000000000000000000000000000000000000000000000000000000000N 00000000000NCONT   00    00000000000          00000000000000000000000000000000000000000000 000000000000000A000000000000000000000000000000000000000000000 000000000000000000000000000000000000000     00000000                                                                                                                        000000000000000000
F0010000008136400003000080018877200042505000000000000000000201601190002001DROGUERIA INDUSTRIAL JEMAR LTDA                   C000000000100000000000000000000000100010010000000000000000000000F0010000008136400320160119000101 00000000000000000000000000000000000000000000000000000000000000000000000000000000000000000000000000000000000000000N 00000000000NCONT   00    00000000000          00000000000000000000000000000000000000000000 000000000000000A000000000000000000000000000000000000000000000 000000000000000000000000000000000000000     00000000                                                                                                                        000000000000000000
F0010000008136400004000080018877200023658300000000000000000201601190002001DROGUERIA INDUSTRIAL JEMAR LTDA                   C000000000004000000000000000000000100010010000000000000000000000F0010000008136400420160119000101 00000000000000000000000000000000000000000000000000000000000000000000000000000000000000000000000000000000000000000N 00000000000NCONT   00    00000000000          00000000000000000000000000000000000000000000 000000000000000A000000000000000000000000000000000000000000000 000000000000000000000000000000000000000     00000000                                                                                                                        000000000000000000
F0010000008136400005000080018877200013552100000000000000000201601190002001DROGUERIA INDUSTRIAL JEMAR LTDA                   D000000000004000000000000000000000100010010000000000000000000000F0010000008136400520160119000101 00000000000000000000000000000000000000000000000000000000000000000000000000000000000000000000000000000000000000000N 00000000000NCONT   00    00000000000          00000000000000000000000000000000000000000000 000000000000000A000000000000000000000000000000000000000000000 000000000000000000000000000000000000000     00000000                                                                                                                        000000000000000000
F0010000008136500001000090015305700011050500000000000000000201601190002001PLASTICOS Y SERVICIOS BARRANQUILLA EU             D000000008000000000000000000000000100010010000000000000000000000F0010000008136500120160119000101 00000000000000000000000000000000000000000000000000000000000000000000000000000000000000000000000000000000000000000N 00000000000NCONT   00    00000000000          00000000000000000000000000000000000000000000 000000000000000A000000000000000000000000000000000000000000000 000000000000000000000000000000000000000     00000000                                                                                                                        000000000000000000
F0010000008136500002000090015305700041450500000000000000000201601190002001PLASTICOS Y SERVICIOS BARRANQUILLA EU             C000000006500000000000000000000000100010010000000000000000000000F0010000008136500220160119000101 00000000000000000000000000000000000000000000000000000000000000000000000000000000000000000000000000000000000000000N 00000000000NCONT   00    00000000000          00000000000000000000000000000000000000000000 000000000000000A000000000000000000000000000000000000000000000 000000000000000000000000000000000000000     00000000                                                                                                                        000000000000000000
F0010000008136500003000090015305700042505000000000000000000201601190002001PLASTICOS Y SERVICIOS BARRANQUILLA EU             C000000001500000000000000000000000100010010000000000000000000000F0010000008136500320160119000101 00000000000000000000000000000000000000000000000000000000000000000000000000000000000000000000000000000000000000000N 00000000000NCONT   00    00000000000          00000000000000000000000000000000000000000000 000000000000000A000000000000000000000000000000000000000000000 000000000000000000000000000000000000000     00000000                                                                                                                        000000000000000000
F0010000008136500004000090015305700023658300000000000000000201601190002001PLASTICOS Y SERVICIOS BARRANQUILLA EU             C000000000052000000000000000000000100010010000000000000000000000F0010000008136500420160119000101 00000000000000000000000000000000000000000000000000000000000000000000000000000000000000000000000000000000000000000N 00000000000NCONT   00    00000000000          00000000000000000000000000000000000000000000 000000000000000A000000000000000000000000000000000000000000000 000000000000000000000000000000000000000     00000000                                                                                                                        000000000000000000
F0010000008136500005000090015305700013552100000000000000000201601190002001PLASTICOS Y SERVICIOS BARRANQUILLA EU             D000000000052000000000000000000000100010010000000000000000000000F0010000008136500520160119000101 00000000000000000000000000000000000000000000000000000000000000000000000000000000000000000000000000000000000000000N 00000000000NCONT   00    00000000000          00000000000000000000000000000000000000000000 000000000000000A000000000000000000000000000000000000000000000 000000000000000000000000000000000000000     00000000                                                                                                                        000000000000000000
F0010000008136600001000080001161300011050500000000000000000201601190002001FERRETERIA OPTIMA                                 D000000003000000000000000000000000100010010000000000000000000000F0010000008136600120160119000101 00000000000000000000000000000000000000000000000000000000000000000000000000000000000000000000000000000000000000000N 00000000000NCONT   00    00000000000          00000000000000000000000000000000000000000000 000000000000000A000000000000000000000000000000000000000000000 000000000000000000000000000000000000000     00000000                                                                                                                        000000000000000000
F0010000008136600002000080001161300041450500000000000000000201601190002001FERRETERIA OPTIMA                                 C000000002900000000000000000000000100010010000000000000000000000F0010000008136600220160119000101 00000000000000000000000000000000000000000000000000000000000000000000000000000000000000000000000000000000000000000N 00000000000NCONT   00    00000000000          00000000000000000000000000000000000000000000 000000000000000A000000000000000000000000000000000000000000000 000000000000000000000000000000000000000     00000000                                                                                                                        000000000000000000
F0010000008136600003000080001161300042505000000000000000000201601190002001FERRETERIA OPTIMA                                 C000000000100000000000000000000000100010010000000000000000000000F0010000008136600320160119000101 00000000000000000000000000000000000000000000000000000000000000000000000000000000000000000000000000000000000000000N 00000000000NCONT   00    00000000000          00000000000000000000000000000000000000000000 000000000000000A000000000000000000000000000000000000000000000 000000000000000000000000000000000000000     00000000                                                                                                                        000000000000000000
F0010000008136600004000080001161300023658300000000000000000201601190002001FERRETERIA OPTIMA                                 C000000000023200000000000000000000100010010000000000000000000000F0010000008136600420160119000101 00000000000000000000000000000000000000000000000000000000000000000000000000000000000000000000000000000000000000000N 00000000000NCONT   00    00000000000          00000000000000000000000000000000000000000000 000000000000000A000000000000000000000000000000000000000000000 000000000000000000000000000000000000000     00000000                                                                                                                        000000000000000000
F0010000008136600005000080001161300013552100000000000000000201601190002001FERRETERIA OPTIMA                                 D000000000023200000000000000000000100010010000000000000000000000F0010000008136600520160119000101 00000000000000000000000000000000000000000000000000000000000000000000000000000000000000000000000000000000000000000N 00000000000NCONT   00    00000000000          00000000000000000000000000000000000000000000 000000000000000A000000000000000000000000000000000000000000000 000000000000000000000000000000000000000     00000000                                                                                                                        000000000000000000
F0010000008136700001000001337710700011050500000000000000000201601190002001EMEIRO ANTONIO ZUÑIGA CAÑAS                     D000000002300000000000000000000000100010010000000000000000000000F0010000008136700120160119000101 00000000000000000000000000000000000000000000000000000000000000000000000000000000000000000000000000000000000000000N 00000000000NCONT   00    00000000000          00000000000000000000000000000000000000000000 000000000000000A000000000000000000000000000000000000000000000 000000000000000000000000000000000000000     00000000                                                                                                                        000000000000000000
F0010000008136700002000001337710700041450500000000000000000201601190002001EMEIRO ANTONIO ZUÑIGA CAÑAS                     C000000001800000000000000000000000100010010000000000000000000000F0010000008136700220160119000101 00000000000000000000000000000000000000000000000000000000000000000000000000000000000000000000000000000000000000000N 00000000000NCONT   00    00000000000          00000000000000000000000000000000000000000000 000000000000000A000000000000000000000000000000000000000000000 000000000000000000000000000000000000000     00000000                                                                                                                        000000000000000000
F0010000008136700003000001337710700042505000000000000000000201601190002001EMEIRO ANTONIO ZUÑIGA CAÑAS                     C000000000500000000000000000000000100010010000000000000000000000F0010000008136700320160119000101 00000000000000000000000000000000000000000000000000000000000000000000000000000000000000000000000000000000000000000N 00000000000NCONT   00    00000000000          00000000000000000000000000000000000000000000 000000000000000A000000000000000000000000000000000000000000000 000000000000000000000000000000000000000     00000000                                                                                                                        000000000000000000
F0010000008136700004000001337710700023658300000000000000000201601190002001EMEIRO ANTONIO ZUÑIGA CAÑAS                     C000000000014400000000000000000000100010010000000000000000000000F0010000008136700420160119000101 00000000000000000000000000000000000000000000000000000000000000000000000000000000000000000000000000000000000000000N 00000000000NCONT   00    00000000000          00000000000000000000000000000000000000000000 000000000000000A000000000000000000000000000000000000000000000 000000000000000000000000000000000000000     00000000                                                                                                                        000000000000000000
F0010000008136700005000001337710700013552100000000000000000201601190002001EMEIRO ANTONIO ZUÑIGA CAÑAS                     D000000000014400000000000000000000100010010000000000000000000000F0010000008136700520160119000101 00000000000000000000000000000000000000000000000000000000000000000000000000000000000000000000000000000000000000000N 00000000000NCONT   00    00000000000          00000000000000000000000000000000000000000000 000000000000000A000000000000000000000000000000000000000000000 000000000000000000000000000000000000000     00000000                                                                                                                        000000000000000000
F0010000008136800001000090034602400011050500000000000000000201601190002001PRODUCTOS NACIONALES PARAFINICOS LA CUSTODIA S.A.SD000000001000000000000000000000000100010010000000000000000000000F0010000008136800120160119000101 00000000000000000000000000000000000000000000000000000000000000000000000000000000000000000000000000000000000000000N 00000000000NCONT   00    00000000000          00000000000000000000000000000000000000000000 000000000000000A000000000000000000000000000000000000000000000 000000000000000000000000000000000000000     00000000                                                                                                                        000000000000000000
F0010000008136800002000090034602400041450500000000000000000201601190002001PRODUCTOS NACIONALES PARAFINICOS LA CUSTODIA S.A.SC000000000900000000000000000000000100010010000000000000000000000F0010000008136800220160119000101 00000000000000000000000000000000000000000000000000000000000000000000000000000000000000000000000000000000000000000N 00000000000NCONT   00    00000000000          00000000000000000000000000000000000000000000 000000000000000A000000000000000000000000000000000000000000000 000000000000000000000000000000000000000     00000000                                                                                                                        000000000000000000
F0010000008136800003000090034602400042505000000000000000000201601190002001PRODUCTOS NACIONALES PARAFINICOS LA CUSTODIA S.A.SC000000000100000000000000000000000100010010000000000000000000000F0010000008136800320160119000101 00000000000000000000000000000000000000000000000000000000000000000000000000000000000000000000000000000000000000000N 00000000000NCONT   00    00000000000          00000000000000000000000000000000000000000000 000000000000000A000000000000000000000000000000000000000000000 000000000000000000000000000000000000000     00000000                                                                                                                        000000000000000000
F0010000008136800004000090034602400023658300000000000000000201601190002001PRODUCTOS NACIONALES PARAFINICOS LA CUSTODIA S.A.SC000000000007200000000000000000000100010010000000000000000000000F0010000008136800420160119000101 00000000000000000000000000000000000000000000000000000000000000000000000000000000000000000000000000000000000000000N 00000000000NCONT   00    00000000000          00000000000000000000000000000000000000000000 000000000000000A000000000000000000000000000000000000000000000 000000000000000000000000000000000000000     00000000                                                                                                                        000000000000000000
F0010000008136800005000090034602400013552100000000000000000201601190002001PRODUCTOS NACIONALES PARAFINICOS LA CUSTODIA S.A.SD000000000007200000000000000000000100010010000000000000000000000F0010000008136800520160119000101 00000000000000000000000000000000000000000000000000000000000000000000000000000000000000000000000000000000000000000N 00000000000NCONT   00    00000000000          00000000000000000000000000000000000000000000 000000000000000A000000000000000000000000000000000000000000000 000000000000000000000000000000000000000     00000000                                                                                                                        000000000000000000
F0010000008136900001000090034602400011050500000000000000000201601190002001PRODUCTOS NACIONALES PARAFINICOS LA CUSTODIA S.A.SD000000001000000000000000000000000100010010000000000000000000000F0010000008136900120160119000101 00000000000000000000000000000000000000000000000000000000000000000000000000000000000000000000000000000000000000000N 00000000000NCONT   00    00000000000          00000000000000000000000000000000000000000000 000000000000000A000000000000000000000000000000000000000000000 000000000000000000000000000000000000000     00000000                                                                                                                        000000000000000000
F0010000008136900002000090034602400041450500000000000000000201601190002001PRODUCTOS NACIONALES PARAFINICOS LA CUSTODIA S.A.SC000000000900000000000000000000000100010010000000000000000000000F0010000008136900220160119000101 00000000000000000000000000000000000000000000000000000000000000000000000000000000000000000000000000000000000000000N 00000000000NCONT   00    00000000000          00000000000000000000000000000000000000000000 000000000000000A000000000000000000000000000000000000000000000 000000000000000000000000000000000000000     00000000                                                                                                                        000000000000000000
F0010000008136900003000090034602400042505000000000000000000201601190002001PRODUCTOS NACIONALES PARAFINICOS LA CUSTODIA S.A.SC000000000100000000000000000000000100010010000000000000000000000F0010000008136900320160119000101 00000000000000000000000000000000000000000000000000000000000000000000000000000000000000000000000000000000000000000N 00000000000NCONT   00    00000000000          00000000000000000000000000000000000000000000 000000000000000A000000000000000000000000000000000000000000000 000000000000000000000000000000000000000     00000000                                                                                                                        000000000000000000
F0010000008136900004000090034602400023658300000000000000000201601190002001PRODUCTOS NACIONALES PARAFINICOS LA CUSTODIA S.A.SC000000000007200000000000000000000100010010000000000000000000000F0010000008136900420160119000101 00000000000000000000000000000000000000000000000000000000000000000000000000000000000000000000000000000000000000000N 00000000000NCONT   00    00000000000          00000000000000000000000000000000000000000000 000000000000000A000000000000000000000000000000000000000000000 000000000000000000000000000000000000000     00000000                                                                                                                        000000000000000000
F0010000008136900005000090034602400013552100000000000000000201601190002001PRODUCTOS NACIONALES PARAFINICOS LA CUSTODIA S.A.SD000000000007200000000000000000000100010010000000000000000000000F0010000008136900520160119000101 00000000000000000000000000000000000000000000000000000000000000000000000000000000000000000000000000000000000000000N 00000000000NCONT   00    00000000000          00000000000000000000000000000000000000000000 000000000000000A000000000000000000000000000000000000000000000 000000000000000000000000000000000000000     00000000                                                                                                                        000000000000000000
F0010000008137000001000090055568800011050500000000000000000201601190002001IMPORTADORA CRUZ Y BELTRAN                        D000000005300000000000000000000000100010010000000000000000000000F0010000008137000120160119000101 00000000000000000000000000000000000000000000000000000000000000000000000000000000000000000000000000000000000000000N 00000000000NCONT   00    00000000000          00000000000000000000000000000000000000000000 000000000000000A000000000000000000000000000000000000000000000 000000000000000000000000000000000000000     00000000                                                                                                                        000000000000000000
F0010000008137000002000090055568800041450500000000000000000201601190002001IMPORTADORA CRUZ Y BELTRAN                        C000000005200000000000000000000000100010010000000000000000000000F0010000008137000220160119000101 00000000000000000000000000000000000000000000000000000000000000000000000000000000000000000000000000000000000000000N 00000000000NCONT   00    00000000000          00000000000000000000000000000000000000000000 000000000000000A000000000000000000000000000000000000000000000 000000000000000000000000000000000000000     00000000                                                                                                                        000000000000000000
F0010000008137000003000090055568800042505000000000000000000201601190002001IMPORTADORA CRUZ Y BELTRAN                        C000000000100000000000000000000000100010010000000000000000000000F0010000008137000320160119000101 00000000000000000000000000000000000000000000000000000000000000000000000000000000000000000000000000000000000000000N 00000000000NCONT   00    00000000000          00000000000000000000000000000000000000000000 000000000000000A000000000000000000000000000000000000000000000 000000000000000000000000000000000000000     00000000                                                                                                                        000000000000000000
F0010000008137000004000090055568800023658300000000000000000201601190002001IMPORTADORA CRUZ Y BELTRAN                        C000000000041600000000000000000000100010010000000000000000000000F0010000008137000420160119000101 00000000000000000000000000000000000000000000000000000000000000000000000000000000000000000000000000000000000000000N 00000000000NCONT   00    00000000000          00000000000000000000000000000000000000000000 000000000000000A000000000000000000000000000000000000000000000 000000000000000000000000000000000000000     00000000                                                                                                                        000000000000000000
F0010000008137000005000090055568800013552100000000000000000201601190002001IMPORTADORA CRUZ Y BELTRAN                        D000000000041600000000000000000000100010010000000000000000000000F0010000008137000520160119000101 00000000000000000000000000000000000000000000000000000000000000000000000000000000000000000000000000000000000000000N 00000000000NCONT   00    00000000000          00000000000000000000000000000000000000000000 000000000000000A000000000000000000000000000000000000000000000 000000000000000000000000000000000000000     00000000                                                                                                                        000000000000000000
F0010000008137100001000002237545400011050500000000000000000201601190002001MARIA SOLEDAD SALAZAR ROMERO / MUEBLES METALICOS SD000000003300000000000000000000000100010010000000000000000000000F0010000008137100120160119000101 00000000000000000000000000000000000000000000000000000000000000000000000000000000000000000000000000000000000000000N 00000000000NCONT   00    00000000000          00000000000000000000000000000000000000000000 000000000000000A000000000000000000000000000000000000000000000 000000000000000000000000000000000000000     00000000                                                                                                                        000000000000000000
F0010000008137100002000002237545400041450500000000000000000201601190002001MARIA SOLEDAD SALAZAR ROMERO / MUEBLES METALICOS SC000000003000000000000000000000000100010010000000000000000000000F0010000008137100220160119000101 00000000000000000000000000000000000000000000000000000000000000000000000000000000000000000000000000000000000000000N 00000000000NCONT   00    00000000000          00000000000000000000000000000000000000000000 000000000000000A000000000000000000000000000000000000000000000 000000000000000000000000000000000000000     00000000                                                                                                                        000000000000000000
