F0010000007621800001000086003979400011050500000000000000000201509150002001CALYPSO BARRANQUILLA LTDA                         D000000000720500000000000000000000100010010000000000000000000000F0010000007621800120150915000101 00000000000000000000000000000000000000000000000000000000000000000000000000000000000000000000000000000000000000000N 00000000000NCONT   00    00000000000          00000000000000000000000000000000000000000000 000000000000000A000000000000000000000000000000000000000000000 000000000000000000000000000000000000000     00000000                                                                                                                        000000000000000000
F0010000007621800002000086003979400041450500000000000000000201509150002001CALYPSO BARRANQUILLA LTDA                         C000000000660000000000000000000000100010010000000000000000000000F0010000007621800220150915000101 00000000000000000000000000000000000000000000000000000000000000000000000000000000000000000000000000000000000000000N 00000000000NCONT   00    00000000000          00000000000000000000000000000000000000000000 000000000000000A000000000000000000000000000000000000000000000 000000000000000000000000000000000000000     00000000                                                                                                                        000000000000000000
F0010000007621800003000086003979400042505000000000000000000201509150002001CALYPSO BARRANQUILLA LTDA                         C000000000060500000000000000000000100010010000000000000000000000F0010000007621800320150915000101 00000000000000000000000000000000000000000000000000000000000000000000000000000000000000000000000000000000000000000N 00000000000NCONT   00    00000000000          00000000000000000000000000000000000000000000 000000000000000A000000000000000000000000000000000000000000000 000000000000000000000000000000000000000     00000000                                                                                                                        000000000000000000
F0010000007621800004000086003979400023658300000000000000000201509150002001CALYPSO BARRANQUILLA LTDA                         C000000000005300000000000000000000100010010000000000000000000000F0010000007621800420150915000101 00000000000000000000000000000000000000000000000000000000000000000000000000000000000000000000000000000000000000000N 00000000000NCONT   00    00000000000          00000000000000000000000000000000000000000000 000000000000000A000000000000000000000000000000000000000000000 000000000000000000000000000000000000000     00000000                                                                                                                        000000000000000000
F0010000007621800005000086003979400013552100000000000000000201509150002001CALYPSO BARRANQUILLA LTDA                         D000000000005300000000000000000000100010010000000000000000000000F0010000007621800520150915000101 00000000000000000000000000000000000000000000000000000000000000000000000000000000000000000000000000000000000000000N 00000000000NCONT   00    00000000000          00000000000000000000000000000000000000000000 000000000000000A000000000000000000000000000000000000000000000 000000000000000000000000000000000000000     00000000                                                                                                                        000000000000000000
F0010000007621900001000080200863700013050500000000000000000201509150002001COPIN S.A.S                                       D000000082257300000000000000000000100010010000000000000000000000F0010000007621900120150915000101 00000000000000000000000000000000000000000000000000000000000000000000000000000000000000000000000000000000000000000N 00000000000NCONT   00    00000000000          00000000000000000000000000000000000000000000 000000000000000A000000000000000000000000000000000000000000000 000000000000000000000000000000000000000     00000000                                                                                                                        000000000000000000
F0010000007621900002000080200863700041450500000000000000000201509150002001COPIN S.A.S                                       C000000074380000000000000000000000100010010000000000000000000000F0010000007621900220150915000101 00000000000000000000000000000000000000000000000000000000000000000000000000000000000000000000000000000000000000000N 00000000000NCONT   00    00000000000          00000000000000000000000000000000000000000000 000000000000000A000000000000000000000000000000000000000000000 000000000000000000000000000000000000000     00000000                                                                                                                        000000000000000000
F0010000007621900003000080200863700042505000000000000000000201509150002001COPIN S.A.S                                       C000000007877300000000000000000000100010010000000000000000000000F0010000007621900320150915000101 00000000000000000000000000000000000000000000000000000000000000000000000000000000000000000000000000000000000000000N 00000000000NCONT   00    00000000000          00000000000000000000000000000000000000000000 000000000000000A000000000000000000000000000000000000000000000 000000000000000000000000000000000000000     00000000                                                                                                                        000000000000000000
F0010000007621900004000080200863700023658300000000000000000201509150002001COPIN S.A.S                                       C000000000595000000000000000000000100010010000000000000000000000F0010000007621900420150915000101 00000000000000000000000000000000000000000000000000000000000000000000000000000000000000000000000000000000000000000N 00000000000NCONT   00    00000000000          00000000000000000000000000000000000000000000 000000000000000A000000000000000000000000000000000000000000000 000000000000000000000000000000000000000     00000000                                                                                                                        000000000000000000
F0010000007621900005000080200863700013552100000000000000000201509150002001COPIN S.A.S                                       D000000000595000000000000000000000100010010000000000000000000000F0010000007621900520150915000101 00000000000000000000000000000000000000000000000000000000000000000000000000000000000000000000000000000000000000000N 00000000000NCONT   00    00000000000          00000000000000000000000000000000000000000000 000000000000000A000000000000000000000000000000000000000000000 000000000000000000000000000000000000000     00000000                                                                                                                        000000000000000000
F0010000007622000001000080004943800013050500000000000000000201509150002001PAPELERIA EL CID S.A.                             D000000078332500000000000000000000100010010000000000000000000000F0010000007622000120150915000101 00000000000000000000000000000000000000000000000000000000000000000000000000000000000000000000000000000000000000000N 00000000000NCONT   00    00000000000          00000000000000000000000000000000000000000000 000000000000000A000000000000000000000000000000000000000000000 000000000000000000000000000000000000000     00000000                                                                                                                        000000000000000000
F0010000007622000002000080004943800041450500000000000000000201509150002001PAPELERIA EL CID S.A.                             C000000065530000000000000000000000100010010000000000000000000000F0010000007622000220150915000101 00000000000000000000000000000000000000000000000000000000000000000000000000000000000000000000000000000000000000000N 00000000000NCONT   00    00000000000          00000000000000000000000000000000000000000000 000000000000000A000000000000000000000000000000000000000000000 000000000000000000000000000000000000000     00000000                                                                                                                        000000000000000000
F0010000007622000003000080004943800042505000000000000000000201509150002001PAPELERIA EL CID S.A.                             C000000012802500000000000000000000100010010000000000000000000000F0010000007622000320150915000101 00000000000000000000000000000000000000000000000000000000000000000000000000000000000000000000000000000000000000000N 00000000000NCONT   00    00000000000          00000000000000000000000000000000000000000000 000000000000000A000000000000000000000000000000000000000000000 000000000000000000000000000000000000000     00000000                                                                                                                        000000000000000000
F0010000007622000004000080004943800023658300000000000000000201509150002001PAPELERIA EL CID S.A.                             C000000000524200000000000000000000100010010000000000000000000000F0010000007622000420150915000101 00000000000000000000000000000000000000000000000000000000000000000000000000000000000000000000000000000000000000000N 00000000000NCONT   00    00000000000          00000000000000000000000000000000000000000000 000000000000000A000000000000000000000000000000000000000000000 000000000000000000000000000000000000000     00000000                                                                                                                        000000000000000000
F0010000007622000005000080004943800013552100000000000000000201509150002001PAPELERIA EL CID S.A.                             D000000000524200000000000000000000100010010000000000000000000000F0010000007622000520150915000101 00000000000000000000000000000000000000000000000000000000000000000000000000000000000000000000000000000000000000000N 00000000000NCONT   00    00000000000          00000000000000000000000000000000000000000000 000000000000000A000000000000000000000000000000000000000000000 000000000000000000000000000000000000000     00000000                                                                                                                        000000000000000000
F0010000007622100001000000871714900013050500000000000000000201509150002001ROLNAN DE LA ROSA  INSIGNARES                     D000000034619900000000000000000000100010010000000000000000000000F0010000007622100120150915000101 00000000000000000000000000000000000000000000000000000000000000000000000000000000000000000000000000000000000000000N 00000000000NCONT   00    00000000000          00000000000000000000000000000000000000000000 000000000000000A000000000000000000000000000000000000000000000 000000000000000000000000000000000000000     00000000                                                                                                                        000000000000000000
F0010000007622100002000000871714900041450500000000000000000201509150002001ROLNAN DE LA ROSA  INSIGNARES                     C000000029182400000000000000000000100010010000000000000000000000F0010000007622100220150915000101 00000000000000000000000000000000000000000000000000000000000000000000000000000000000000000000000000000000000000000N 00000000000NCONT   00    00000000000          00000000000000000000000000000000000000000000 000000000000000A000000000000000000000000000000000000000000000 000000000000000000000000000000000000000     00000000                                                                                                                        000000000000000000
F0010000007622100003000000871714900042505000000000000000000201509150002001ROLNAN DE LA ROSA  INSIGNARES                     C000000005437500000000000000000000100010010000000000000000000000F0010000007622100320150915000101 00000000000000000000000000000000000000000000000000000000000000000000000000000000000000000000000000000000000000000N 00000000000NCONT   00    00000000000          00000000000000000000000000000000000000000000 000000000000000A000000000000000000000000000000000000000000000 000000000000000000000000000000000000000     00000000                                                                                                                        000000000000000000
F0010000007622100004000000871714900023658300000000000000000201509150002001ROLNAN DE LA ROSA  INSIGNARES                     C000000000233500000000000000000000100010010000000000000000000000F0010000007622100420150915000101 00000000000000000000000000000000000000000000000000000000000000000000000000000000000000000000000000000000000000000N 00000000000NCONT   00    00000000000          00000000000000000000000000000000000000000000 000000000000000A000000000000000000000000000000000000000000000 000000000000000000000000000000000000000     00000000                                                                                                                        000000000000000000
F0010000007622100005000000871714900013552100000000000000000201509150002001ROLNAN DE LA ROSA  INSIGNARES                     D000000000233500000000000000000000100010010000000000000000000000F0010000007622100520150915000101 00000000000000000000000000000000000000000000000000000000000000000000000000000000000000000000000000000000000000000N 00000000000NCONT   00    00000000000          00000000000000000000000000000000000000000000 000000000000000A000000000000000000000000000000000000000000000 000000000000000000000000000000000000000     00000000                                                                                                                        000000000000000000
F0010000007622200001000000748239700013050500000000000000000201509150002001RAFAEL NAVARRO URIBE                              D000000045549200000000000000000000100010010000000000000000000000F0010000007622200120150915000101 00000000000000000000000000000000000000000000000000000000000000000000000000000000000000000000000000000000000000000N 00000000000NCONT   00    00000000000          00000000000000000000000000000000000000000000 000000000000000A000000000000000000000000000000000000000000000 000000000000000000000000000000000000000     00000000                                                                                                                        000000000000000000
F0010000007622200002000000748239700041450500000000000000000201509150002001RAFAEL NAVARRO URIBE                              C000000021050000000000000000000000100010010000000000000000000000F0010000007622200220150915000101 00000000000000000000000000000000000000000000000000000000000000000000000000000000000000000000000000000000000000000N 00000000000NCONT   00    00000000000          00000000000000000000000000000000000000000000 000000000000000A000000000000000000000000000000000000000000000 000000000000000000000000000000000000000     00000000                                                                                                                        000000000000000000
F0010000007622200003000000748239700042505000000000000000000201509150002001RAFAEL NAVARRO URIBE                              C000000024499200000000000000000000100010010000000000000000000000F0010000007622200320150915000101 00000000000000000000000000000000000000000000000000000000000000000000000000000000000000000000000000000000000000000N 00000000000NCONT   00    00000000000          00000000000000000000000000000000000000000000 000000000000000A000000000000000000000000000000000000000000000 000000000000000000000000000000000000000     00000000                                                                                                                        000000000000000000
F0010000007622200004000000748239700023658300000000000000000201509150002001RAFAEL NAVARRO URIBE                              C000000000168400000000000000000000100010010000000000000000000000F0010000007622200420150915000101 00000000000000000000000000000000000000000000000000000000000000000000000000000000000000000000000000000000000000000N 00000000000NCONT   00    00000000000          00000000000000000000000000000000000000000000 000000000000000A000000000000000000000000000000000000000000000 000000000000000000000000000000000000000     00000000                                                                                                                        000000000000000000
F0010000007622200005000000748239700013552100000000000000000201509150002001RAFAEL NAVARRO URIBE                              D000000000168400000000000000000000100010010000000000000000000000F0010000007622200520150915000101 00000000000000000000000000000000000000000000000000000000000000000000000000000000000000000000000000000000000000000N 00000000000NCONT   00    00000000000          00000000000000000000000000000000000000000000 000000000000000A000000000000000000000000000000000000000000000 000000000000000000000000000000000000000     00000000                                                                                                                        000000000000000000
F0010000007622300001000080201112800013050500000000000000000201509150002001CANGURO INTERNATIONAL S.A.                        D000000143092900000000000000000000100010010000000000000000000000F0010000007622300120150915000101 00000000000000000000000000000000000000000000000000000000000000000000000000000000000000000000000000000000000000000N 00000000000NCONT   00    00000000000          00000000000000000000000000000000000000000000 000000000000000A000000000000000000000000000000000000000000000 000000000000000000000000000000000000000     00000000                                                                                                                        000000000000000000
F0010000007622300002000080201112800041450500000000000000000201509150002001CANGURO INTERNATIONAL S.A.                        C000000141001300000000000000000000100010010000000000000000000000F0010000007622300220150915000101 00000000000000000000000000000000000000000000000000000000000000000000000000000000000000000000000000000000000000000N 00000000000NCONT   00    00000000000          00000000000000000000000000000000000000000000 000000000000000A000000000000000000000000000000000000000000000 000000000000000000000000000000000000000     00000000                                                                                                                        000000000000000000
F0010000007622300003000080201112800042505000000000000000000201509150002001CANGURO INTERNATIONAL S.A.                        C000000002091600000000000000000000100010010000000000000000000000F0010000007622300320150915000101 00000000000000000000000000000000000000000000000000000000000000000000000000000000000000000000000000000000000000000N 00000000000NCONT   00    00000000000          00000000000000000000000000000000000000000000 000000000000000A000000000000000000000000000000000000000000000 000000000000000000000000000000000000000     00000000                                                                                                                        000000000000000000
F0010000007622300004000080201112800023658300000000000000000201509150002001CANGURO INTERNATIONAL S.A.                        C000000001128000000000000000000000100010010000000000000000000000F0010000007622300420150915000101 00000000000000000000000000000000000000000000000000000000000000000000000000000000000000000000000000000000000000000N 00000000000NCONT   00    00000000000          00000000000000000000000000000000000000000000 000000000000000A000000000000000000000000000000000000000000000 000000000000000000000000000000000000000     00000000                                                                                                                        000000000000000000
F0010000007622300005000080201112800013552100000000000000000201509150002001CANGURO INTERNATIONAL S.A.                        D000000001128000000000000000000000100010010000000000000000000000F0010000007622300520150915000101 00000000000000000000000000000000000000000000000000000000000000000000000000000000000000000000000000000000000000000N 00000000000NCONT   00    00000000000          00000000000000000000000000000000000000000000 000000000000000A000000000000000000000000000000000000000000000 000000000000000000000000000000000000000     00000000                                                                                                                        000000000000000000
F0010000007622400001000090059316900013050500000000000000000201509150002001DISTRIBUCIONES Y REPRESENTACIONES MANA            D000000005640000000000000000000000100010010000000000000000000000F0010000007622400120150915000101 00000000000000000000000000000000000000000000000000000000000000000000000000000000000000000000000000000000000000000N 00000000000NCONT   00    00000000000          00000000000000000000000000000000000000000000 000000000000000A000000000000000000000000000000000000000000000 000000000000000000000000000000000000000     00000000                                                                                                                        000000000000000000
F0010000007622400002000090059316900041450500000000000000000201509150002001DISTRIBUCIONES Y REPRESENTACIONES MANA            C000000004840000000000000000000000100010010000000000000000000000F0010000007622400220150915000101 00000000000000000000000000000000000000000000000000000000000000000000000000000000000000000000000000000000000000000N 00000000000NCONT   00    00000000000          00000000000000000000000000000000000000000000 000000000000000A000000000000000000000000000000000000000000000 000000000000000000000000000000000000000     00000000                                                                                                                        000000000000000000
F0010000007622400003000090059316900042505000000000000000000201509150002001DISTRIBUCIONES Y REPRESENTACIONES MANA            C000000000800000000000000000000000100010010000000000000000000000F0010000007622400320150915000101 00000000000000000000000000000000000000000000000000000000000000000000000000000000000000000000000000000000000000000N 00000000000NCONT   00    00000000000          00000000000000000000000000000000000000000000 000000000000000A000000000000000000000000000000000000000000000 000000000000000000000000000000000000000     00000000                                                                                                                        000000000000000000
F0010000007622400004000090059316900023658300000000000000000201509150002001DISTRIBUCIONES Y REPRESENTACIONES MANA            C000000000038700000000000000000000100010010000000000000000000000F0010000007622400420150915000101 00000000000000000000000000000000000000000000000000000000000000000000000000000000000000000000000000000000000000000N 00000000000NCONT   00    00000000000          00000000000000000000000000000000000000000000 000000000000000A000000000000000000000000000000000000000000000 000000000000000000000000000000000000000     00000000                                                                                                                        000000000000000000
F0010000007622400005000090059316900013552100000000000000000201509150002001DISTRIBUCIONES Y REPRESENTACIONES MANA            D000000000038700000000000000000000100010010000000000000000000000F0010000007622400520150915000101 00000000000000000000000000000000000000000000000000000000000000000000000000000000000000000000000000000000000000000N 00000000000NCONT   00    00000000000          00000000000000000000000000000000000000000000 000000000000000A000000000000000000000000000000000000000000000 000000000000000000000000000000000000000     00000000                                                                                                                        000000000000000000
F0010000007622500001000080016665600013050500000000000000000201509150002001SUMICAL DE ANTIOQUIA S.A.S                        D000000046123400000000000000000000100010010000000000000000000000F0010000007622500120150915000101 00000000000000000000000000000000000000000000000000000000000000000000000000000000000000000000000000000000000000000N 00000000000NCONT   00    00000000000          00000000000000000000000000000000000000000000 000000000000000A000000000000000000000000000000000000000000000 000000000000000000000000000000000000000     00000000                                                                                                                        000000000000000000
F0010000007622500002000080016665600041450500000000000000000201509150002001SUMICAL DE ANTIOQUIA S.A.S                        C000000040380000000000000000000000100010010000000000000000000000F0010000007622500220150915000101 00000000000000000000000000000000000000000000000000000000000000000000000000000000000000000000000000000000000000000N 00000000000NCONT   00    00000000000          00000000000000000000000000000000000000000000 000000000000000A000000000000000000000000000000000000000000000 000000000000000000000000000000000000000     00000000                                                                                                                        000000000000000000
F0010000007622500003000080016665600042505000000000000000000201509150002001SUMICAL DE ANTIOQUIA S.A.S                        C000000005743400000000000000000000100010010000000000000000000000F0010000007622500320150915000101 00000000000000000000000000000000000000000000000000000000000000000000000000000000000000000000000000000000000000000N 00000000000NCONT   00    00000000000          00000000000000000000000000000000000000000000 000000000000000A000000000000000000000000000000000000000000000 000000000000000000000000000000000000000     00000000                                                                                                                        000000000000000000
F0010000007622500004000080016665600023658300000000000000000201509150002001SUMICAL DE ANTIOQUIA S.A.S                        C000000000323000000000000000000000100010010000000000000000000000F0010000007622500420150915000101 00000000000000000000000000000000000000000000000000000000000000000000000000000000000000000000000000000000000000000N 00000000000NCONT   00    00000000000          00000000000000000000000000000000000000000000 000000000000000A000000000000000000000000000000000000000000000 000000000000000000000000000000000000000     00000000                                                                                                                        000000000000000000
F0010000007622500005000080016665600013552100000000000000000201509150002001SUMICAL DE ANTIOQUIA S.A.S                        D000000000323000000000000000000000100010010000000000000000000000F0010000007622500520150915000101 00000000000000000000000000000000000000000000000000000000000000000000000000000000000000000000000000000000000000000N 00000000000NCONT   00    00000000000          00000000000000000000000000000000000000000000 000000000000000A000000000000000000000000000000000000000000000 000000000000000000000000000000000000000     00000000                                                                                                                        000000000000000000
F0010000007622600001000080200069100013050500000000000000000201509150002001PEGANTES Y PINTURAS ATLAS LTDA                    D000000007094800000000000000000000100010010000000000000000000000F0010000007622600120150915000101 00000000000000000000000000000000000000000000000000000000000000000000000000000000000000000000000000000000000000000N 00000000000NCONT   00    00000000000          00000000000000000000000000000000000000000000 000000000000000A000000000000000000000000000000000000000000000 000000000000000000000000000000000000000     00000000                                                                                                                        000000000000000000
F0010000007622600002000080200069100041450500000000000000000201509150002001PEGANTES Y PINTURAS ATLAS LTDA                    C000000006000000000000000000000000100010010000000000000000000000F0010000007622600220150915000101 00000000000000000000000000000000000000000000000000000000000000000000000000000000000000000000000000000000000000000N 00000000000NCONT   00    00000000000          00000000000000000000000000000000000000000000 000000000000000A000000000000000000000000000000000000000000000 000000000000000000000000000000000000000     00000000                                                                                                                        000000000000000000
F0010000007622600003000080200069100042505000000000000000000201509150002001PEGANTES Y PINTURAS ATLAS LTDA                    C000000001094800000000000000000000100010010000000000000000000000F0010000007622600320150915000101 00000000000000000000000000000000000000000000000000000000000000000000000000000000000000000000000000000000000000000N 00000000000NCONT   00    00000000000          00000000000000000000000000000000000000000000 000000000000000A000000000000000000000000000000000000000000000 000000000000000000000000000000000000000     00000000                                                                                                                        000000000000000000
F0010000007622600004000080200069100023658300000000000000000201509150002001PEGANTES Y PINTURAS ATLAS LTDA                    C000000000048000000000000000000000100010010000000000000000000000F0010000007622600420150915000101 00000000000000000000000000000000000000000000000000000000000000000000000000000000000000000000000000000000000000000N 00000000000NCONT   00    00000000000          00000000000000000000000000000000000000000000 000000000000000A000000000000000000000000000000000000000000000 000000000000000000000000000000000000000     00000000                                                                                                                        000000000000000000
F0010000007622600005000080200069100013552100000000000000000201509150002001PEGANTES Y PINTURAS ATLAS LTDA                    D000000000048000000000000000000000100010010000000000000000000000F0010000007622600520150915000101 00000000000000000000000000000000000000000000000000000000000000000000000000000000000000000000000000000000000000000N 00000000000NCONT   00    00000000000          00000000000000000000000000000000000000000000 000000000000000A000000000000000000000000000000000000000000000 000000000000000000000000000000000000000     00000000                                                                                                                        000000000000000000
F0010000007622700001000089010260300013050500000000000000000201509150002001FEDERICO OSORIO A. S.A.                           D000000107240700000000000000000000100010010000000000000000000000F0010000007622700120150915000101 00000000000000000000000000000000000000000000000000000000000000000000000000000000000000000000000000000000000000000N 00000000000NCONT   00    00000000000          00000000000000000000000000000000000000000000 000000000000000A000000000000000000000000000000000000000000000 000000000000000000000000000000000000000     00000000                                                                                                                        000000000000000000
F0010000007622700002000089010260300041450500000000000000000201509150002001FEDERICO OSORIO A. S.A.                           C000000102690000000000000000000000100010010000000000000000000000F0010000007622700220150915000101 00000000000000000000000000000000000000000000000000000000000000000000000000000000000000000000000000000000000000000N 00000000000NCONT   00    00000000000          00000000000000000000000000000000000000000000 000000000000000A000000000000000000000000000000000000000000000 000000000000000000000000000000000000000     00000000                                                                                                                        000000000000000000
F0010000007622700003000089010260300042505000000000000000000201509150002001FEDERICO OSORIO A. S.A.                           C000000004550700000000000000000000100010010000000000000000000000F0010000007622700320150915000101 00000000000000000000000000000000000000000000000000000000000000000000000000000000000000000000000000000000000000000N 00000000000NCONT   00    00000000000          00000000000000000000000000000000000000000000 000000000000000A000000000000000000000000000000000000000000000 000000000000000000000000000000000000000     00000000                                                                                                                        000000000000000000
F0010000007622700004000089010260300023658300000000000000000201509150002001FEDERICO OSORIO A. S.A.                           C000000000821500000000000000000000100010010000000000000000000000F0010000007622700420150915000101 00000000000000000000000000000000000000000000000000000000000000000000000000000000000000000000000000000000000000000N 00000000000NCONT   00    00000000000          00000000000000000000000000000000000000000000 000000000000000A000000000000000000000000000000000000000000000 000000000000000000000000000000000000000     00000000                                                                                                                        000000000000000000
F0010000007622700005000089010260300013552100000000000000000201509150002001FEDERICO OSORIO A. S.A.                           D000000000821500000000000000000000100010010000000000000000000000F0010000007622700520150915000101 00000000000000000000000000000000000000000000000000000000000000000000000000000000000000000000000000000000000000000N 00000000000NCONT   00    00000000000          00000000000000000000000000000000000000000000 000000000000000A000000000000000000000000000000000000000000000 000000000000000000000000000000000000000     00000000                                                                                                                        000000000000000000
F0010000007622800001000090013035500013050500000000000000000201509150002001FUJIAN SHAN S.A.                                  D000000063829800000000000000000000100010010000000000000000000000F0010000007622800120150915000101 00000000000000000000000000000000000000000000000000000000000000000000000000000000000000000000000000000000000000000N 00000000000NCONT   00    00000000000          00000000000000000000000000000000000000000000 000000000000000A000000000000000000000000000000000000000000000 000000000000000000000000000000000000000     00000000                                                                                                                        000000000000000000
F0010000007622800002000090013035500041450500000000000000000201509150002001FUJIAN SHAN S.A.                                  C000000062329800000000000000000000100010010000000000000000000000F0010000007622800220150915000101 00000000000000000000000000000000000000000000000000000000000000000000000000000000000000000000000000000000000000000N 00000000000NCONT   00    00000000000          00000000000000000000000000000000000000000000 000000000000000A000000000000000000000000000000000000000000000 000000000000000000000000000000000000000     00000000                                                                                                                        000000000000000000
F0010000007622800003000090013035500042505000000000000000000201509150002001FUJIAN SHAN S.A.                                  C000000001500000000000000000000000100010010000000000000000000000F0010000007622800320150915000101 00000000000000000000000000000000000000000000000000000000000000000000000000000000000000000000000000000000000000000N 00000000000NCONT   00    00000000000          00000000000000000000000000000000000000000000 000000000000000A000000000000000000000000000000000000000000000 000000000000000000000000000000000000000     00000000                                                                                                                        000000000000000000
F0010000007622800004000090013035500023658300000000000000000201509150002001FUJIAN SHAN S.A.                                  C000000000498600000000000000000000100010010000000000000000000000F0010000007622800420150915000101 00000000000000000000000000000000000000000000000000000000000000000000000000000000000000000000000000000000000000000N 00000000000NCONT   00    00000000000          00000000000000000000000000000000000000000000 000000000000000A000000000000000000000000000000000000000000000 000000000000000000000000000000000000000     00000000                                                                                                                        000000000000000000
F0010000007622800005000090013035500013552100000000000000000201509150002001FUJIAN SHAN S.A.                                  D000000000498600000000000000000000100010010000000000000000000000F0010000007622800520150915000101 00000000000000000000000000000000000000000000000000000000000000000000000000000000000000000000000000000000000000000N 00000000000NCONT   00    00000000000          00000000000000000000000000000000000000000000 000000000000000A000000000000000000000000000000000000000000000 000000000000000000000000000000000000000     00000000                                                                                                                        000000000000000000
F0010000007622900001000080022903500013050500000000000000000201509150002001TECNOGLASS S.A                                    D000000041048100000000000000000000100010010000000000000000000000F0010000007622900120150915000101 00000000000000000000000000000000000000000000000000000000000000000000000000000000000000000000000000000000000000000N 00000000000NCONT   00    00000000000          00000000000000000000000000000000000000000000 000000000000000A000000000000000000000000000000000000000000000 000000000000000000000000000000000000000     00000000                                                                                                                        000000000000000000
F0010000007622900002000080022903500041450500000000000000000201509150002001TECNOGLASS S.A                                    C000000033582800000000000000000000100010010000000000000000000000F0010000007622900220150915000101 00000000000000000000000000000000000000000000000000000000000000000000000000000000000000000000000000000000000000000N 00000000000NCONT   00    00000000000          00000000000000000000000000000000000000000000 000000000000000A000000000000000000000000000000000000000000000 000000000000000000000000000000000000000     00000000                                                                                                                        000000000000000000
F0010000007622900003000080022903500042505000000000000000000201509150002001TECNOGLASS S.A                                    C000000007465300000000000000000000100010010000000000000000000000F0010000007622900320150915000101 00000000000000000000000000000000000000000000000000000000000000000000000000000000000000000000000000000000000000000N 00000000000NCONT   00    00000000000          00000000000000000000000000000000000000000000 000000000000000A000000000000000000000000000000000000000000000 000000000000000000000000000000000000000     00000000                                                                                                                        000000000000000000
F0010000007622900004000080022903500023658300000000000000000201509150002001TECNOGLASS S.A                                    C000000000268700000000000000000000100010010000000000000000000000F0010000007622900420150915000101 00000000000000000000000000000000000000000000000000000000000000000000000000000000000000000000000000000000000000000N 00000000000NCONT   00    00000000000          00000000000000000000000000000000000000000000 000000000000000A000000000000000000000000000000000000000000000 000000000000000000000000000000000000000     00000000                                                                                                                        000000000000000000
F0010000007622900005000080022903500013552100000000000000000201509150002001TECNOGLASS S.A                                    D000000000268700000000000000000000100010010000000000000000000000F0010000007622900520150915000101 00000000000000000000000000000000000000000000000000000000000000000000000000000000000000000000000000000000000000000N 00000000000NCONT   00    00000000000          00000000000000000000000000000000000000000000 000000000000000A000000000000000000000000000000000000000000000 000000000000000000000000000000000000000     00000000                                                                                                                        000000000000000000
F0010000007623000001000081102758700013050500000000000000000201509150002001C.I. ABRACOL S.A EMA                              D000000066588000000000000000000000100010010000000000000000000000F0010000007623000120150915000101 00000000000000000000000000000000000000000000000000000000000000000000000000000000000000000000000000000000000000000N 00000000000NCONT   00    00000000000          00000000000000000000000000000000000000000000 000000000000000A000000000000000000000000000000000000000000000 000000000000000000000000000000000000000     00000000                                                                                                                        000000000000000000
F0010000007623000002000081102758700041450500000000000000000201509150002001C.I. ABRACOL S.A EMA                              C000000042980000000000000000000000100010010000000000000000000000F0010000007623000220150915000101 00000000000000000000000000000000000000000000000000000000000000000000000000000000000000000000000000000000000000000N 00000000000NCONT   00    00000000000          00000000000000000000000000000000000000000000 000000000000000A000000000000000000000000000000000000000000000 000000000000000000000000000000000000000     00000000                                                                                                                        000000000000000000
F0010000007623000003000081102758700041750100000000000000000201509150002001C.I. ABRACOL S.A EMA                              D000000001289400000000000000000000100010010000000000000000000000F0010000007623000320150915000101 00000000000000000000000000000000000000000000000000000000000000000000000000000000000000000000000000000000000000000N 00000000000NCONT   00    00000000000          00000000000000000000000000000000000000000000 000000000000000A000000000000000000000000000000000000000000000 000000000000000000000000000000000000000     00000000                                                                                                                        000000000000000000
F0010000007623000004000081102758700042505000000000000000000201509150002001C.I. ABRACOL S.A EMA                              C000000024897400000000000000000000100010010000000000000000000000F0010000007623000420150915000101 00000000000000000000000000000000000000000000000000000000000000000000000000000000000000000000000000000000000000000N 00000000000NCONT   00    00000000000          00000000000000000000000000000000000000000000 000000000000000A000000000000000000000000000000000000000000000 000000000000000000000000000000000000000     00000000                                                                                                                        000000000000000000
F0010000007623000005000081102758700023658300000000000000000201509150002001C.I. ABRACOL S.A EMA                              C000000000343800000000000000000000100010010000000000000000000000F0010000007623000520150915000101 00000000000000000000000000000000000000000000000000000000000000000000000000000000000000000000000000000000000000000N 00000000000NCONT   00    00000000000          00000000000000000000000000000000000000000000 000000000000000A000000000000000000000000000000000000000000000 000000000000000000000000000000000000000     00000000                                                                                                                        000000000000000000
F0010000007623000006000081102758700013552100000000000000000201509150002001C.I. ABRACOL S.A EMA                              D000000000343800000000000000000000100010010000000000000000000000F0010000007623000620150915000101 00000000000000000000000000000000000000000000000000000000000000000000000000000000000000000000000000000000000000000N 00000000000NCONT   00    00000000000          00000000000000000000000000000000000000000000 000000000000000A000000000000000000000000000000000000000000000 000000000000000000000000000000000000000     00000000                                                                                                                        000000000000000000
F0010000007623100001000081102758700013050500000000000000000201509150002001C.I. ABRACOL S.A EMA                              D000000047206100000000000000000000100010010000000000000000000000F0010000007623100120150915000101 00000000000000000000000000000000000000000000000000000000000000000000000000000000000000000000000000000000000000000N 00000000000NCONT   00    00000000000          00000000000000000000000000000000000000000000 000000000000000A000000000000000000000000000000000000000000000 000000000000000000000000000000000000000     00000000                                                                                                                        000000000000000000
F0010000007623100002000081102758700041450500000000000000000201509150002001C.I. ABRACOL S.A EMA                              C000000033322000000000000000000000100010010000000000000000000000F0010000007623100220150915000101 00000000000000000000000000000000000000000000000000000000000000000000000000000000000000000000000000000000000000000N 00000000000NCONT   00    00000000000          00000000000000000000000000000000000000000000 000000000000000A000000000000000000000000000000000000000000000 000000000000000000000000000000000000000     00000000                                                                                                                        000000000000000000
F0010000007623100003000081102758700041750100000000000000000201509150002001C.I. ABRACOL S.A EMA                              D000000000999700000000000000000000100010010000000000000000000000F0010000007623100320150915000101 00000000000000000000000000000000000000000000000000000000000000000000000000000000000000000000000000000000000000000N 00000000000NCONT   00    00000000000          00000000000000000000000000000000000000000000 000000000000000A000000000000000000000000000000000000000000000 000000000000000000000000000000000000000     00000000                                                                                                                        000000000000000000
F0010000007623100004000081102758700042505000000000000000000201509150002001C.I. ABRACOL S.A EMA                              C000000014883800000000000000000000100010010000000000000000000000F0010000007623100420150915000101 00000000000000000000000000000000000000000000000000000000000000000000000000000000000000000000000000000000000000000N 00000000000NCONT   00    00000000000          00000000000000000000000000000000000000000000 000000000000000A000000000000000000000000000000000000000000000 000000000000000000000000000000000000000     00000000                                                                                                                        000000000000000000
F0010000007623100005000081102758700023658300000000000000000201509150002001C.I. ABRACOL S.A EMA                              C000000000266600000000000000000000100010010000000000000000000000F0010000007623100520150915000101 00000000000000000000000000000000000000000000000000000000000000000000000000000000000000000000000000000000000000000N 00000000000NCONT   00    00000000000          00000000000000000000000000000000000000000000 000000000000000A000000000000000000000000000000000000000000000 000000000000000000000000000000000000000     00000000                                                                                                                        000000000000000000
F0010000007623100006000081102758700013552100000000000000000201509150002001C.I. ABRACOL S.A EMA                              D000000000266600000000000000000000100010010000000000000000000000F0010000007623100620150915000101 00000000000000000000000000000000000000000000000000000000000000000000000000000000000000000000000000000000000000000N 00000000000NCONT   00    00000000000          00000000000000000000000000000000000000000000 000000000000000A000000000000000000000000000000000000000000000 000000000000000000000000000000000000000     00000000                                                                                                                        000000000000000000
F0010000007623200001000086053108300011050500000000000000000201509150002001EL PALACIO DEL ALUMINIO  LTDA                     D000000011000000000000000000000000100010010000000000000000000000F0010000007623200120150915000101 00000000000000000000000000000000000000000000000000000000000000000000000000000000000000000000000000000000000000000N 00000000000NCONT   00    00000000000          00000000000000000000000000000000000000000000 000000000000000A000000000000000000000000000000000000000000000 000000000000000000000000000000000000000     00000000                                                                                                                        000000000000000000
F0010000007623200002000086053108300041450500000000000000000201509150002001EL PALACIO DEL ALUMINIO  LTDA                     C000000009000000000000000000000000100010010000000000000000000000F0010000007623200220150915000101 00000000000000000000000000000000000000000000000000000000000000000000000000000000000000000000000000000000000000000N 00000000000NCONT   00    00000000000          00000000000000000000000000000000000000000000 000000000000000A000000000000000000000000000000000000000000000 000000000000000000000000000000000000000     00000000                                                                                                                        000000000000000000
F0010000007623200003000086053108300042505000000000000000000201509150002001EL PALACIO DEL ALUMINIO  LTDA                     C000000002000000000000000000000000100010010000000000000000000000F0010000007623200320150915000101 00000000000000000000000000000000000000000000000000000000000000000000000000000000000000000000000000000000000000000N 00000000000NCONT   00    00000000000          00000000000000000000000000000000000000000000 000000000000000A000000000000000000000000000000000000000000000 000000000000000000000000000000000000000     00000000                                                                                                                        000000000000000000
F0010000007623200004000086053108300023658300000000000000000201509150002001EL PALACIO DEL ALUMINIO  LTDA                     C000000000072000000000000000000000100010010000000000000000000000F0010000007623200420150915000101 00000000000000000000000000000000000000000000000000000000000000000000000000000000000000000000000000000000000000000N 00000000000NCONT   00    00000000000          00000000000000000000000000000000000000000000 000000000000000A000000000000000000000000000000000000000000000 000000000000000000000000000000000000000     00000000                                                                                                                        000000000000000000
F0010000007623200005000086053108300013552100000000000000000201509150002001EL PALACIO DEL ALUMINIO  LTDA                     D000000000072000000000000000000000100010010000000000000000000000F0010000007623200520150915000101 00000000000000000000000000000000000000000000000000000000000000000000000000000000000000000000000000000000000000000N 00000000000NCONT   00    00000000000          00000000000000000000000000000000000000000000 000000000000000A000000000000000000000000000000000000000000000 000000000000000000000000000000000000000     00000000                                                                                                                        000000000000000000
F0010000007623300001000086053108300011050500000000000000000201509150002001EL PALACIO DEL ALUMINIO  LTDA                     D000000001800000000000000000000000100010010000000000000000000000F0010000007623300120150915000101 00000000000000000000000000000000000000000000000000000000000000000000000000000000000000000000000000000000000000000N 00000000000NCONT   00    00000000000          00000000000000000000000000000000000000000000 000000000000000A000000000000000000000000000000000000000000000 000000000000000000000000000000000000000     00000000                                                                                                                        000000000000000000
F0010000007623300002000086053108300041450500000000000000000201509150002001EL PALACIO DEL ALUMINIO  LTDA                     C000000001500000000000000000000000100010010000000000000000000000F0010000007623300220150915000101 00000000000000000000000000000000000000000000000000000000000000000000000000000000000000000000000000000000000000000N 00000000000NCONT   00    00000000000          00000000000000000000000000000000000000000000 000000000000000A000000000000000000000000000000000000000000000 000000000000000000000000000000000000000     00000000                                                                                                                        000000000000000000
F0010000007623300003000086053108300042505000000000000000000201509150002001EL PALACIO DEL ALUMINIO  LTDA                     C000000000300000000000000000000000100010010000000000000000000000F0010000007623300320150915000101 00000000000000000000000000000000000000000000000000000000000000000000000000000000000000000000000000000000000000000N 00000000000NCONT   00    00000000000          00000000000000000000000000000000000000000000 000000000000000A000000000000000000000000000000000000000000000 000000000000000000000000000000000000000     00000000                                                                                                                        000000000000000000
F0010000007623300004000086053108300023658300000000000000000201509150002001EL PALACIO DEL ALUMINIO  LTDA                     C000000000012000000000000000000000100010010000000000000000000000F0010000007623300420150915000101 00000000000000000000000000000000000000000000000000000000000000000000000000000000000000000000000000000000000000000N 00000000000NCONT   00    00000000000          00000000000000000000000000000000000000000000 000000000000000A000000000000000000000000000000000000000000000 000000000000000000000000000000000000000     00000000                                                                                                                        000000000000000000
F0010000007623300005000086053108300013552100000000000000000201509150002001EL PALACIO DEL ALUMINIO  LTDA                     D000000000012000000000000000000000100010010000000000000000000000F0010000007623300520150915000101 00000000000000000000000000000000000000000000000000000000000000000000000000000000000000000000000000000000000000000N 00000000000NCONT   00    00000000000          00000000000000000000000000000000000000000000 000000000000000A000000000000000000000000000000000000000000000 000000000000000000000000000000000000000     00000000                                                                                                                        000000000000000000
F0010000007623400001000009249843700011050500000000000000000201509150002001CESAR MERCADO                                     D000000002500000000000000000000000100010010000000000000000000000F0010000007623400120150915000101 00000000000000000000000000000000000000000000000000000000000000000000000000000000000000000000000000000000000000000N 00000000000NCONT   00    00000000000          00000000000000000000000000000000000000000000 000000000000000A000000000000000000000000000000000000000000000 000000000000000000000000000000000000000     00000000                                                                                                                        000000000000000000
F0010000007623400002000009249843700041450500000000000000000201509150002001CESAR MERCADO                                     C000000002300000000000000000000000100010010000000000000000000000F0010000007623400220150915000101 00000000000000000000000000000000000000000000000000000000000000000000000000000000000000000000000000000000000000000N 00000000000NCONT   00    00000000000          00000000000000000000000000000000000000000000 000000000000000A000000000000000000000000000000000000000000000 000000000000000000000000000000000000000     00000000                                                                                                                        000000000000000000
F0010000007623400003000009249843700042505000000000000000000201509150002001CESAR MERCADO                                     C000000000200000000000000000000000100010010000000000000000000000F0010000007623400320150915000101 00000000000000000000000000000000000000000000000000000000000000000000000000000000000000000000000000000000000000000N 00000000000NCONT   00    00000000000          00000000000000000000000000000000000000000000 000000000000000A000000000000000000000000000000000000000000000 000000000000000000000000000000000000000     00000000                                                                                                                        000000000000000000
F0010000007623400004000009249843700023658300000000000000000201509150002001CESAR MERCADO                                     C000000000018400000000000000000000100010010000000000000000000000F0010000007623400420150915000101 00000000000000000000000000000000000000000000000000000000000000000000000000000000000000000000000000000000000000000N 00000000000NCONT   00    00000000000          00000000000000000000000000000000000000000000 000000000000000A000000000000000000000000000000000000000000000 000000000000000000000000000000000000000     00000000                                                                                                                        000000000000000000
F0010000007623400005000009249843700013552100000000000000000201509150002001CESAR MERCADO                                     D000000000018400000000000000000000100010010000000000000000000000F0010000007623400520150915000101 00000000000000000000000000000000000000000000000000000000000000000000000000000000000000000000000000000000000000000N 00000000000NCONT   00    00000000000          00000000000000000000000000000000000000000000 000000000000000A000000000000000000000000000000000000000000000 000000000000000000000000000000000000000     00000000                                                                                                                        000000000000000000
F0010000007623500001000080019113900011050500000000000000000201509150002001COMERCIAL NOVAPEL LTDA                            D000000008450000000000000000000000100010010000000000000000000000F0010000007623500120150915000101 00000000000000000000000000000000000000000000000000000000000000000000000000000000000000000000000000000000000000000N 00000000000NCONT   00    00000000000          00000000000000000000000000000000000000000000 000000000000000A000000000000000000000000000000000000000000000 000000000000000000000000000000000000000     00000000                                                                                                                        000000000000000000
F0010000007623500002000080019113900041450500000000000000000201509150002001COMERCIAL NOVAPEL LTDA                            C000000008000000000000000000000000100010010000000000000000000000F0010000007623500220150915000101 00000000000000000000000000000000000000000000000000000000000000000000000000000000000000000000000000000000000000000N 00000000000NCONT   00    00000000000          00000000000000000000000000000000000000000000 000000000000000A000000000000000000000000000000000000000000000 000000000000000000000000000000000000000     00000000                                                                                                                        000000000000000000
F0010000007623500003000080019113900042505000000000000000000201509150002001COMERCIAL NOVAPEL LTDA                            C000000000450000000000000000000000100010010000000000000000000000F0010000007623500320150915000101 00000000000000000000000000000000000000000000000000000000000000000000000000000000000000000000000000000000000000000N 00000000000NCONT   00    00000000000          00000000000000000000000000000000000000000000 000000000000000A000000000000000000000000000000000000000000000 000000000000000000000000000000000000000     00000000                                                                                                                        000000000000000000
F0010000007623500004000080019113900023658300000000000000000201509150002001COMERCIAL NOVAPEL LTDA                            C000000000064000000000000000000000100010010000000000000000000000F0010000007623500420150915000101 00000000000000000000000000000000000000000000000000000000000000000000000000000000000000000000000000000000000000000N 00000000000NCONT   00    00000000000          00000000000000000000000000000000000000000000 000000000000000A000000000000000000000000000000000000000000000 000000000000000000000000000000000000000     00000000                                                                                                                        000000000000000000
F0010000007623500005000080019113900013552100000000000000000201509150002001COMERCIAL NOVAPEL LTDA                            D000000000064000000000000000000000100010010000000000000000000000F0010000007623500520150915000101 00000000000000000000000000000000000000000000000000000000000000000000000000000000000000000000000000000000000000000N 00000000000NCONT   00    00000000000          00000000000000000000000000000000000000000000 000000000000000A000000000000000000000000000000000000000000000 000000000000000000000000000000000000000     00000000                                                                                                                        000000000000000000
F0010000007623600001000001719393900011050500000000000000000201509150002001JAIRO BASTIDAS RAMIREZ                            D000000014000000000000000000000000100010010000000000000000000000F0010000007623600120150915000101 00000000000000000000000000000000000000000000000000000000000000000000000000000000000000000000000000000000000000000N 00000000000NCONT   00    00000000000          00000000000000000000000000000000000000000000 000000000000000A000000000000000000000000000000000000000000000 000000000000000000000000000000000000000     00000000                                                                                                                        000000000000000000
F0010000007623600002000001719393900041450500000000000000000201509150002001JAIRO BASTIDAS RAMIREZ                            C000000012500000000000000000000000100010010000000000000000000000F0010000007623600220150915000101 00000000000000000000000000000000000000000000000000000000000000000000000000000000000000000000000000000000000000000N 00000000000NCONT   00    00000000000          00000000000000000000000000000000000000000000 000000000000000A000000000000000000000000000000000000000000000 000000000000000000000000000000000000000     00000000                                                                                                                        000000000000000000
F0010000007623600003000001719393900042505000000000000000000201509150002001JAIRO BASTIDAS RAMIREZ                            C000000001500000000000000000000000100010010000000000000000000000F0010000007623600320150915000101 00000000000000000000000000000000000000000000000000000000000000000000000000000000000000000000000000000000000000000N 00000000000NCONT   00    00000000000          00000000000000000000000000000000000000000000 000000000000000A000000000000000000000000000000000000000000000 000000000000000000000000000000000000000     00000000                                                                                                                        000000000000000000
F0010000007623600004000001719393900023658300000000000000000201509150002001JAIRO BASTIDAS RAMIREZ                            C000000000100000000000000000000000100010010000000000000000000000F0010000007623600420150915000101 00000000000000000000000000000000000000000000000000000000000000000000000000000000000000000000000000000000000000000N 00000000000NCONT   00    00000000000          00000000000000000000000000000000000000000000 000000000000000A000000000000000000000000000000000000000000000 000000000000000000000000000000000000000     00000000                                                                                                                        000000000000000000
F0010000007623600005000001719393900013552100000000000000000201509150002001JAIRO BASTIDAS RAMIREZ                            D000000000100000000000000000000000100010010000000000000000000000F0010000007623600520150915000101 00000000000000000000000000000000000000000000000000000000000000000000000000000000000000000000000000000000000000000N 00000000000NCONT   00    00000000000          00000000000000000000000000000000000000000000 000000000000000A000000000000000000000000000000000000000000000 000000000000000000000000000000000000000     00000000                                                                                                                        000000000000000000
F0010000007623700001000001719393900011050500000000000000000201509150002001JAIRO BASTIDAS RAMIREZ                            D000000011000000000000000000000000100010010000000000000000000000F0010000007623700120150915000101 00000000000000000000000000000000000000000000000000000000000000000000000000000000000000000000000000000000000000000N 00000000000NCONT   00    00000000000          00000000000000000000000000000000000000000000 000000000000000A000000000000000000000000000000000000000000000 000000000000000000000000000000000000000     00000000                                                                                                                        000000000000000000
F0010000007623700002000001719393900041450500000000000000000201509150002001JAIRO BASTIDAS RAMIREZ                            C000000009400000000000000000000000100010010000000000000000000000F0010000007623700220150915000101 00000000000000000000000000000000000000000000000000000000000000000000000000000000000000000000000000000000000000000N 00000000000NCONT   00    00000000000          00000000000000000000000000000000000000000000 000000000000000A000000000000000000000000000000000000000000000 000000000000000000000000000000000000000     00000000                                                                                                                        000000000000000000
F0010000007623700003000001719393900042505000000000000000000201509150002001JAIRO BASTIDAS RAMIREZ                            C000000001600000000000000000000000100010010000000000000000000000F0010000007623700320150915000101 00000000000000000000000000000000000000000000000000000000000000000000000000000000000000000000000000000000000000000N 00000000000NCONT   00    00000000000          00000000000000000000000000000000000000000000 000000000000000A000000000000000000000000000000000000000000000 000000000000000000000000000000000000000     00000000                                                                                                                        000000000000000000
F0010000007623700004000001719393900023658300000000000000000201509150002001JAIRO BASTIDAS RAMIREZ                            C000000000075200000000000000000000100010010000000000000000000000F0010000007623700420150915000101 00000000000000000000000000000000000000000000000000000000000000000000000000000000000000000000000000000000000000000N 00000000000NCONT   00    00000000000          00000000000000000000000000000000000000000000 000000000000000A000000000000000000000000000000000000000000000 000000000000000000000000000000000000000     00000000                                                                                                                        000000000000000000
F0010000007623700005000001719393900013552100000000000000000201509150002001JAIRO BASTIDAS RAMIREZ                            D000000000075200000000000000000000100010010000000000000000000000F0010000007623700520150915000101 00000000000000000000000000000000000000000000000000000000000000000000000000000000000000000000000000000000000000000N 00000000000NCONT   00    00000000000          00000000000000000000000000000000000000000000 000000000000000A000000000000000000000000000000000000000000000 000000000000000000000000000000000000000     00000000                                                                                                                        000000000000000000
F0010000007623800001000001719393900011050500000000000000000201509150002001JAIRO BASTIDAS RAMIREZ                            D000000001800000000000000000000000100010010000000000000000000000F0010000007623800120150915000101 00000000000000000000000000000000000000000000000000000000000000000000000000000000000000000000000000000000000000000N 00000000000NCONT   00    00000000000          00000000000000000000000000000000000000000000 000000000000000A000000000000000000000000000000000000000000000 000000000000000000000000000000000000000     00000000                                                                                                                        000000000000000000
F0010000007623800002000001719393900041450500000000000000000201509150002001JAIRO BASTIDAS RAMIREZ                            C000000001200000000000000000000000100010010000000000000000000000F0010000007623800220150915000101 00000000000000000000000000000000000000000000000000000000000000000000000000000000000000000000000000000000000000000N 00000000000NCONT   00    00000000000          00000000000000000000000000000000000000000000 000000000000000A000000000000000000000000000000000000000000000 000000000000000000000000000000000000000     00000000                                                                                                                        000000000000000000
F0010000007623800003000001719393900042505000000000000000000201509150002001JAIRO BASTIDAS RAMIREZ                            C000000000600000000000000000000000100010010000000000000000000000F0010000007623800320150915000101 00000000000000000000000000000000000000000000000000000000000000000000000000000000000000000000000000000000000000000N 00000000000NCONT   00    00000000000          00000000000000000000000000000000000000000000 000000000000000A000000000000000000000000000000000000000000000 000000000000000000000000000000000000000     00000000                                                                                                                        000000000000000000
F0010000007623800004000001719393900023658300000000000000000201509150002001JAIRO BASTIDAS RAMIREZ                            C000000000009600000000000000000000100010010000000000000000000000F0010000007623800420150915000101 00000000000000000000000000000000000000000000000000000000000000000000000000000000000000000000000000000000000000000N 00000000000NCONT   00    00000000000          00000000000000000000000000000000000000000000 000000000000000A000000000000000000000000000000000000000000000 000000000000000000000000000000000000000     00000000                                                                                                                        000000000000000000
F0010000007623800005000001719393900013552100000000000000000201509150002001JAIRO BASTIDAS RAMIREZ                            D000000000009600000000000000000000100010010000000000000000000000F0010000007623800520150915000101 00000000000000000000000000000000000000000000000000000000000000000000000000000000000000000000000000000000000000000N 00000000000NCONT   00    00000000000          00000000000000000000000000000000000000000000 000000000000000A000000000000000000000000000000000000000000000 000000000000000000000000000000000000000     00000000                                                                                                                        000000000000000000
F0010000007623900001000004544401900011050500000000000000000201509150002001FISIOTER                                          D000000001500000000000000000000000100010010000000000000000000000F0010000007623900120150915000101 00000000000000000000000000000000000000000000000000000000000000000000000000000000000000000000000000000000000000000N 00000000000NCONT   00    00000000000          00000000000000000000000000000000000000000000 000000000000000A000000000000000000000000000000000000000000000 000000000000000000000000000000000000000     00000000                                                                                                                        000000000000000000
F0010000007623900002000004544401900041450500000000000000000201509150002001FISIOTER                                          C000000001000000000000000000000000100010010000000000000000000000F0010000007623900220150915000101 00000000000000000000000000000000000000000000000000000000000000000000000000000000000000000000000000000000000000000N 00000000000NCONT   00    00000000000          00000000000000000000000000000000000000000000 000000000000000A000000000000000000000000000000000000000000000 000000000000000000000000000000000000000     00000000                                                                                                                        000000000000000000
F0010000007623900003000004544401900042505000000000000000000201509150002001FISIOTER                                          C000000000500000000000000000000000100010010000000000000000000000F0010000007623900320150915000101 00000000000000000000000000000000000000000000000000000000000000000000000000000000000000000000000000000000000000000N 00000000000NCONT   00    00000000000          00000000000000000000000000000000000000000000 000000000000000A000000000000000000000000000000000000000000000 000000000000000000000000000000000000000     00000000                                                                                                                        000000000000000000
F0010000007623900004000004544401900023658300000000000000000201509150002001FISIOTER                                          C000000000008000000000000000000000100010010000000000000000000000F0010000007623900420150915000101 00000000000000000000000000000000000000000000000000000000000000000000000000000000000000000000000000000000000000000N 00000000000NCONT   00    00000000000          00000000000000000000000000000000000000000000 000000000000000A000000000000000000000000000000000000000000000 000000000000000000000000000000000000000     00000000                                                                                                                        000000000000000000
F0010000007623900005000004544401900013552100000000000000000201509150002001FISIOTER                                          D000000000008000000000000000000000100010010000000000000000000000F0010000007623900520150915000101 00000000000000000000000000000000000000000000000000000000000000000000000000000000000000000000000000000000000000000N 00000000000NCONT   00    00000000000          00000000000000000000000000000000000000000000 000000000000000A000000000000000000000000000000000000000000000 000000000000000000000000000000000000000     00000000                                                                                                                        000000000000000000
F0010000007624000001000007016511700011050500000000000000000201509150002001YEISON CASTAO                                   D000000001300000000000000000000000100010010000000000000000000000F0010000007624000120150915000101 00000000000000000000000000000000000000000000000000000000000000000000000000000000000000000000000000000000000000000N 00000000000NCONT   00    00000000000          00000000000000000000000000000000000000000000 000000000000000A000000000000000000000000000000000000000000000 000000000000000000000000000000000000000     00000000                                                                                                                        000000000000000000
F0010000007624000002000007016511700041450500000000000000000201509150002001YEISON CASTAO                                   C000000001200000000000000000000000100010010000000000000000000000F0010000007624000220150915000101 00000000000000000000000000000000000000000000000000000000000000000000000000000000000000000000000000000000000000000N 00000000000NCONT   00    00000000000          00000000000000000000000000000000000000000000 000000000000000A000000000000000000000000000000000000000000000 000000000000000000000000000000000000000     00000000                                                                                                                        000000000000000000
F0010000007624000003000007016511700042505000000000000000000201509150002001YEISON CASTAO                                   C000000000100000000000000000000000100010010000000000000000000000F0010000007624000320150915000101 00000000000000000000000000000000000000000000000000000000000000000000000000000000000000000000000000000000000000000N 00000000000NCONT   00    00000000000          00000000000000000000000000000000000000000000 000000000000000A000000000000000000000000000000000000000000000 000000000000000000000000000000000000000     00000000                                                                                                                        000000000000000000
F0010000007624000004000007016511700023658300000000000000000201509150002001YEISON CASTAO                                   C000000000009600000000000000000000100010010000000000000000000000F0010000007624000420150915000101 00000000000000000000000000000000000000000000000000000000000000000000000000000000000000000000000000000000000000000N 00000000000NCONT   00    00000000000          00000000000000000000000000000000000000000000 000000000000000A000000000000000000000000000000000000000000000 000000000000000000000000000000000000000     00000000                                                                                                                        000000000000000000
F0010000007624000005000007016511700013552100000000000000000201509150002001YEISON CASTAO                                   D000000000009600000000000000000000100010010000000000000000000000F0010000007624000520150915000101 00000000000000000000000000000000000000000000000000000000000000000000000000000000000000000000000000000000000000000N 00000000000NCONT   00    00000000000          00000000000000000000000000000000000000000000 000000000000000A000000000000000000000000000000000000000000000 000000000000000000000000000000000000000     00000000                                                                                                                        000000000000000000
F0010000007624100001000090055180500011050500000000000000000201509150002001LAMINAS Y SUELAS DE COLOMBIA S.A.S                D000000002850000000000000000000000100010010000000000000000000000F0010000007624100120150915000101 00000000000000000000000000000000000000000000000000000000000000000000000000000000000000000000000000000000000000000N 00000000000NCONT   00    00000000000          00000000000000000000000000000000000000000000 000000000000000A000000000000000000000000000000000000000000000 000000000000000000000000000000000000000     00000000                                                                                                                        000000000000000000
F0010000007624100002000090055180500041450500000000000000000201509150002001LAMINAS Y SUELAS DE COLOMBIA S.A.S                C000000002500000000000000000000000100010010000000000000000000000F0010000007624100220150915000101 00000000000000000000000000000000000000000000000000000000000000000000000000000000000000000000000000000000000000000N 00000000000NCONT   00    00000000000          00000000000000000000000000000000000000000000 000000000000000A000000000000000000000000000000000000000000000 000000000000000000000000000000000000000     00000000                                                                                                                        000000000000000000
F0010000007624100003000090055180500042505000000000000000000201509150002001LAMINAS Y SUELAS DE COLOMBIA S.A.S                C000000000350000000000000000000000100010010000000000000000000000F0010000007624100320150915000101 00000000000000000000000000000000000000000000000000000000000000000000000000000000000000000000000000000000000000000N 00000000000NCONT   00    00000000000          00000000000000000000000000000000000000000000 000000000000000A000000000000000000000000000000000000000000000 000000000000000000000000000000000000000     00000000                                                                                                                        000000000000000000
F0010000007624100004000090055180500023658300000000000000000201509150002001LAMINAS Y SUELAS DE COLOMBIA S.A.S                C000000000020000000000000000000000100010010000000000000000000000F0010000007624100420150915000101 00000000000000000000000000000000000000000000000000000000000000000000000000000000000000000000000000000000000000000N 00000000000NCONT   00    00000000000          00000000000000000000000000000000000000000000 000000000000000A000000000000000000000000000000000000000000000 000000000000000000000000000000000000000     00000000                                                                                                                        000000000000000000
F0010000007624100005000090055180500013552100000000000000000201509150002001LAMINAS Y SUELAS DE COLOMBIA S.A.S                D000000000020000000000000000000000100010010000000000000000000000F0010000007624100520150915000101 00000000000000000000000000000000000000000000000000000000000000000000000000000000000000000000000000000000000000000N 00000000000NCONT   00    00000000000          00000000000000000000000000000000000000000000 000000000000000A000000000000000000000000000000000000000000000 000000000000000000000000000000000000000     00000000                                                                                                                        000000000000000000
F0010000007624200001000090055180500011050500000000000000000201509150002001LAMINAS Y SUELAS DE COLOMBIA S.A.S                D000000001050000000000000000000000100010010000000000000000000000F0010000007624200120150915000101 00000000000000000000000000000000000000000000000000000000000000000000000000000000000000000000000000000000000000000N 00000000000NCONT   00    00000000000          00000000000000000000000000000000000000000000 000000000000000A000000000000000000000000000000000000000000000 000000000000000000000000000000000000000     00000000                                                                                                                        000000000000000000
F0010000007624200002000090055180500041450500000000000000000201509150002001LAMINAS Y SUELAS DE COLOMBIA S.A.S                C000000001000000000000000000000000100010010000000000000000000000F0010000007624200220150915000101 00000000000000000000000000000000000000000000000000000000000000000000000000000000000000000000000000000000000000000N 00000000000NCONT   00    00000000000          00000000000000000000000000000000000000000000 000000000000000A000000000000000000000000000000000000000000000 000000000000000000000000000000000000000     00000000                                                                                                                        000000000000000000
F0010000007624200003000090055180500042505000000000000000000201509150002001LAMINAS Y SUELAS DE COLOMBIA S.A.S                C000000000050000000000000000000000100010010000000000000000000000F0010000007624200320150915000101 00000000000000000000000000000000000000000000000000000000000000000000000000000000000000000000000000000000000000000N 00000000000NCONT   00    00000000000          00000000000000000000000000000000000000000000 000000000000000A000000000000000000000000000000000000000000000 000000000000000000000000000000000000000     00000000                                                                                                                        000000000000000000
F0010000007624200004000090055180500023658300000000000000000201509150002001LAMINAS Y SUELAS DE COLOMBIA S.A.S                C000000000008000000000000000000000100010010000000000000000000000F0010000007624200420150915000101 00000000000000000000000000000000000000000000000000000000000000000000000000000000000000000000000000000000000000000N 00000000000NCONT   00    00000000000          00000000000000000000000000000000000000000000 000000000000000A000000000000000000000000000000000000000000000 000000000000000000000000000000000000000     00000000                                                                                                                        000000000000000000
F0010000007624200005000090055180500013552100000000000000000201509150002001LAMINAS Y SUELAS DE COLOMBIA S.A.S                D000000000008000000000000000000000100010010000000000000000000000F0010000007624200520150915000101 00000000000000000000000000000000000000000000000000000000000000000000000000000000000000000000000000000000000000000N 00000000000NCONT   00    00000000000          00000000000000000000000000000000000000000000 000000000000000A000000000000000000000000000000000000000000000 000000000000000000000000000000000000000     00000000                                                                                                                        000000000000000000
F0010000007624300001000090007142100011050500000000000000000201509150002001TODO BELLEZA Y MAX S.A.S                          D000000015125000000000000000000000100010010000000000000000000000F0010000007624300120150915000101 00000000000000000000000000000000000000000000000000000000000000000000000000000000000000000000000000000000000000000N 00000000000NCONT   00    00000000000          00000000000000000000000000000000000000000000 000000000000000A000000000000000000000000000000000000000000000 000000000000000000000000000000000000000     00000000                                                                                                                        000000000000000000
F0010000007624300002000090007142100041450500000000000000000201509150002001TODO BELLEZA Y MAX S.A.S                          C000000015000000000000000000000000100010010000000000000000000000F0010000007624300220150915000101 00000000000000000000000000000000000000000000000000000000000000000000000000000000000000000000000000000000000000000N 00000000000NCONT   00    00000000000          00000000000000000000000000000000000000000000 000000000000000A000000000000000000000000000000000000000000000 000000000000000000000000000000000000000     00000000                                                                                                                        000000000000000000
F0010000007624300003000090007142100042505000000000000000000201509150002001TODO BELLEZA Y MAX S.A.S                          C000000000125000000000000000000000100010010000000000000000000000F0010000007624300320150915000101 00000000000000000000000000000000000000000000000000000000000000000000000000000000000000000000000000000000000000000N 00000000000NCONT   00    00000000000          00000000000000000000000000000000000000000000 000000000000000A000000000000000000000000000000000000000000000 000000000000000000000000000000000000000     00000000                                                                                                                        000000000000000000
F0010000007624300004000090007142100023658300000000000000000201509150002001TODO BELLEZA Y MAX S.A.S                          C000000000120000000000000000000000100010010000000000000000000000F0010000007624300420150915000101 00000000000000000000000000000000000000000000000000000000000000000000000000000000000000000000000000000000000000000N 00000000000NCONT   00    00000000000          00000000000000000000000000000000000000000000 000000000000000A000000000000000000000000000000000000000000000 000000000000000000000000000000000000000     00000000                                                                                                                        000000000000000000
F0010000007624300005000090007142100013552100000000000000000201509150002001TODO BELLEZA Y MAX S.A.S                          D000000000120000000000000000000000100010010000000000000000000000F0010000007624300520150915000101 00000000000000000000000000000000000000000000000000000000000000000000000000000000000000000000000000000000000000000N 00000000000NCONT   00    00000000000          00000000000000000000000000000000000000000000 000000000000000A000000000000000000000000000000000000000000000 000000000000000000000000000000000000000     00000000                                                                                                                        000000000000000000
F0010000007624400001000090064474900011050500000000000000000201509150002001CENTRO ARTE PAPERIA SAS                           D000000002600000000000000000000000100010010000000000000000000000F0010000007624400120150915000101 00000000000000000000000000000000000000000000000000000000000000000000000000000000000000000000000000000000000000000N 00000000000NCONT   00    00000000000          00000000000000000000000000000000000000000000 000000000000000A000000000000000000000000000000000000000000000 000000000000000000000000000000000000000     00000000                                                                                                                        000000000000000000
F0010000007624400002000090064474900041450500000000000000000201509150002001CENTRO ARTE PAPERIA SAS                           C000000002400000000000000000000000100010010000000000000000000000F0010000007624400220150915000101 00000000000000000000000000000000000000000000000000000000000000000000000000000000000000000000000000000000000000000N 00000000000NCONT   00    00000000000          00000000000000000000000000000000000000000000 000000000000000A000000000000000000000000000000000000000000000 000000000000000000000000000000000000000     00000000                                                                                                                        000000000000000000
F0010000007624400003000090064474900042505000000000000000000201509150002001CENTRO ARTE PAPERIA SAS                           C000000000200000000000000000000000100010010000000000000000000000F0010000007624400320150915000101 00000000000000000000000000000000000000000000000000000000000000000000000000000000000000000000000000000000000000000N 00000000000NCONT   00    00000000000          00000000000000000000000000000000000000000000 000000000000000A000000000000000000000000000000000000000000000 000000000000000000000000000000000000000     00000000                                                                                                                        000000000000000000
F0010000007624400004000090064474900023658300000000000000000201509150002001CENTRO ARTE PAPERIA SAS                           C000000000019200000000000000000000100010010000000000000000000000F0010000007624400420150915000101 00000000000000000000000000000000000000000000000000000000000000000000000000000000000000000000000000000000000000000N 00000000000NCONT   00    00000000000          00000000000000000000000000000000000000000000 000000000000000A000000000000000000000000000000000000000000000 000000000000000000000000000000000000000     00000000                                                                                                                        000000000000000000
F0010000007624400005000090064474900013552100000000000000000201509150002001CENTRO ARTE PAPERIA SAS                           D000000000019200000000000000000000100010010000000000000000000000F0010000007624400520150915000101 00000000000000000000000000000000000000000000000000000000000000000000000000000000000000000000000000000000000000000N 00000000000NCONT   00    00000000000          00000000000000000000000000000000000000000000 000000000000000A000000000000000000000000000000000000000000000 000000000000000000000000000000000000000     00000000                                                                                                                        000000000000000000
F0010000007624500001000001022529300011050500000000000000000201509150002001ALBERTO ALVAREZ ISAZA                             D000000006270000000000000000000000100010010000000000000000000000F0010000007624500120150915000101 00000000000000000000000000000000000000000000000000000000000000000000000000000000000000000000000000000000000000000N 00000000000NCONT   00    00000000000          00000000000000000000000000000000000000000000 000000000000000A000000000000000000000000000000000000000000000 000000000000000000000000000000000000000     00000000                                                                                                                        000000000000000000
F0010000007624500002000001022529300041450500000000000000000201509150002001ALBERTO ALVAREZ ISAZA                             C000000005520000000000000000000000100010010000000000000000000000F0010000007624500220150915000101 00000000000000000000000000000000000000000000000000000000000000000000000000000000000000000000000000000000000000000N 00000000000NCONT   00    00000000000          00000000000000000000000000000000000000000000 000000000000000A000000000000000000000000000000000000000000000 000000000000000000000000000000000000000     00000000                                                                                                                        000000000000000000
F0010000007624500003000001022529300042505000000000000000000201509150002001ALBERTO ALVAREZ ISAZA                             C000000000750000000000000000000000100010010000000000000000000000F0010000007624500320150915000101 00000000000000000000000000000000000000000000000000000000000000000000000000000000000000000000000000000000000000000N 00000000000NCONT   00    00000000000          00000000000000000000000000000000000000000000 000000000000000A000000000000000000000000000000000000000000000 000000000000000000000000000000000000000     00000000                                                                                                                        000000000000000000
F0010000007624500004000001022529300023658300000000000000000201509150002001ALBERTO ALVAREZ ISAZA                             C000000000044200000000000000000000100010010000000000000000000000F0010000007624500420150915000101 00000000000000000000000000000000000000000000000000000000000000000000000000000000000000000000000000000000000000000N 00000000000NCONT   00    00000000000          00000000000000000000000000000000000000000000 000000000000000A000000000000000000000000000000000000000000000 000000000000000000000000000000000000000     00000000                                                                                                                        000000000000000000
F0010000007624500005000001022529300013552100000000000000000201509150002001ALBERTO ALVAREZ ISAZA                             D000000000044200000000000000000000100010010000000000000000000000F0010000007624500520150915000101 00000000000000000000000000000000000000000000000000000000000000000000000000000000000000000000000000000000000000000N 00000000000NCONT   00    00000000000          00000000000000000000000000000000000000000000 000000000000000A000000000000000000000000000000000000000000000 000000000000000000000000000000000000000     00000000                                                                                                                        000000000000000000
F0010000007624600001000001022529300011050500000000000000000201509150002001ALBERTO ALVAREZ ISAZA                             D000000000820000000000000000000000100010010000000000000000000000F0010000007624600120150915000101 00000000000000000000000000000000000000000000000000000000000000000000000000000000000000000000000000000000000000000N 00000000000NCONT   00    00000000000          00000000000000000000000000000000000000000000 000000000000000A000000000000000000000000000000000000000000000 000000000000000000000000000000000000000     00000000                                                                                                                        000000000000000000
F0010000007624600002000001022529300041450500000000000000000201509150002001ALBERTO ALVAREZ ISAZA                             C000000000820000000000000000000000100010010000000000000000000000F0010000007624600220150915000101 00000000000000000000000000000000000000000000000000000000000000000000000000000000000000000000000000000000000000000N 00000000000NCONT   00    00000000000          00000000000000000000000000000000000000000000 000000000000000A000000000000000000000000000000000000000000000 000000000000000000000000000000000000000     00000000                                                                                                                        000000000000000000
F0010000007624600003000001022529300042505000000000000000000201509150002001ALBERTO ALVAREZ ISAZA                             C000000000000000000000000000000000100010010000000000000000000000F0010000007624600320150915000101 00000000000000000000000000000000000000000000000000000000000000000000000000000000000000000000000000000000000000000N 00000000000NCONT   00    00000000000          00000000000000000000000000000000000000000000 000000000000000A000000000000000000000000000000000000000000000 000000000000000000000000000000000000000     00000000                                                                                                                        000000000000000000
F0010000007624600004000001022529300023658300000000000000000201509150002001ALBERTO ALVAREZ ISAZA                             C000000000006600000000000000000000100010010000000000000000000000F0010000007624600420150915000101 00000000000000000000000000000000000000000000000000000000000000000000000000000000000000000000000000000000000000000N 00000000000NCONT   00    00000000000          00000000000000000000000000000000000000000000 000000000000000A000000000000000000000000000000000000000000000 000000000000000000000000000000000000000     00000000                                                                                                                        000000000000000000
F0010000007624600005000001022529300013552100000000000000000201509150002001ALBERTO ALVAREZ ISAZA                             D000000000006600000000000000000000100010010000000000000000000000F0010000007624600520150915000101 00000000000000000000000000000000000000000000000000000000000000000000000000000000000000000000000000000000000000000N 00000000000NCONT   00    00000000000          00000000000000000000000000000000000000000000 000000000000000A000000000000000000000000000000000000000000000 000000000000000000000000000000000000000     00000000                                                                                                                        000000000000000000
