F0010000010269300001000003207718300011050500000000000000000201708300002001MARIA GILMA RAMIREZ GARCIA                        D000000009000000000000000000000000100010010000000000000000000000F0010000010269300120170830000101 00000000000000000000000000000000000000000000000000000000000000000000000000000000000000000000000000000000000000000N 00000000000NCONT   00    00000000000          00000000000000000000000000000000000000000000 000000000000000A000000000000000000000000000000000000000000000 000000000000000000000000000000000000000     00000000                                                                                                                        000000000000000000
F0010000010269300002000003207718300041450500000000000000000201708300002001MARIA GILMA RAMIREZ GARCIA                        C000000008000000000000000000000000100010010000000000000000000000F0010000010269300220170830000101 00000000000000000000000000000000000000000000000000000000000000000000000000000000000000000000000000000000000000000N 00000000000NCONT   00    00000000000          00000000000000000000000000000000000000000000 000000000000000A000000000000000000000000000000000000000000000 000000000000000000000000000000000000000     00000000                                                                                                                        000000000000000000
F0010000010269300003000003207718300042505000000000000000000201708300002001MARIA GILMA RAMIREZ GARCIA                        C000000001000000000000000000000000100010010000000000000000000000F0010000010269300320170830000101 00000000000000000000000000000000000000000000000000000000000000000000000000000000000000000000000000000000000000000N 00000000000NCONT   00    00000000000          00000000000000000000000000000000000000000000 000000000000000A000000000000000000000000000000000000000000000 000000000000000000000000000000000000000     00000000                                                                                                                        000000000000000000
F0010000010269300004000003207718300023658300000000000000000201708300002001MARIA GILMA RAMIREZ GARCIA                        C000000000000000000000000000000000100010010000000000000000000000F0010000010269300420170830000101 00000000000000000000000000000000000000000000000000000000000000000000000000000000000000000000000000000000000000000N 00000000000NCONT   00    00000000000          00000000000000000000000000000000000000000000 000000000000000A000000000000000000000000000000000000000000000 000000000000000000000000000000000000000     00000000                                                                                                                        000000000000000000
F0010000010269300005000003207718300013552100000000000000000201708300002001MARIA GILMA RAMIREZ GARCIA                        D000000000000000000000000000000000100010010000000000000000000000F0010000010269300520170830000101 00000000000000000000000000000000000000000000000000000000000000000000000000000000000000000000000000000000000000000N 00000000000NCONT   00    00000000000          00000000000000000000000000000000000000000000 000000000000000A000000000000000000000000000000000000000000000 000000000000000000000000000000000000000     00000000                                                                                                                        000000000000000000
F0010000010269400001000104572842100011050500000000000000000201708300002001DEIVISON ROA SALAZAR                              D000000016000000000000000000000000100010010000000000000000000000F0010000010269400120170830000101 00000000000000000000000000000000000000000000000000000000000000000000000000000000000000000000000000000000000000000N 00000000000NCONT   00    00000000000          00000000000000000000000000000000000000000000 000000000000000A000000000000000000000000000000000000000000000 000000000000000000000000000000000000000     00000000                                                                                                                        000000000000000000
F0010000010269400002000104572842100041450500000000000000000201708300002001DEIVISON ROA SALAZAR                              C000000015900000000000000000000000100010010000000000000000000000F0010000010269400220170830000101 00000000000000000000000000000000000000000000000000000000000000000000000000000000000000000000000000000000000000000N 00000000000NCONT   00    00000000000          00000000000000000000000000000000000000000000 000000000000000A000000000000000000000000000000000000000000000 000000000000000000000000000000000000000     00000000                                                                                                                        000000000000000000
F0010000010269400003000104572842100042505000000000000000000201708300002001DEIVISON ROA SALAZAR                              C000000000100000000000000000000000100010010000000000000000000000F0010000010269400320170830000101 00000000000000000000000000000000000000000000000000000000000000000000000000000000000000000000000000000000000000000N 00000000000NCONT   00    00000000000          00000000000000000000000000000000000000000000 000000000000000A000000000000000000000000000000000000000000000 000000000000000000000000000000000000000     00000000                                                                                                                        000000000000000000
F0010000010269400004000104572842100023658300000000000000000201708300002001DEIVISON ROA SALAZAR                              C000000000000000000000000000000000100010010000000000000000000000F0010000010269400420170830000101 00000000000000000000000000000000000000000000000000000000000000000000000000000000000000000000000000000000000000000N 00000000000NCONT   00    00000000000          00000000000000000000000000000000000000000000 000000000000000A000000000000000000000000000000000000000000000 000000000000000000000000000000000000000     00000000                                                                                                                        000000000000000000
F0010000010269400005000104572842100013552100000000000000000201708300002001DEIVISON ROA SALAZAR                              D000000000000000000000000000000000100010010000000000000000000000F0010000010269400520170830000101 00000000000000000000000000000000000000000000000000000000000000000000000000000000000000000000000000000000000000000N 00000000000NCONT   00    00000000000          00000000000000000000000000000000000000000000 000000000000000A000000000000000000000000000000000000000000000 000000000000000000000000000000000000000     00000000                                                                                                                        000000000000000000
F0010000010269500001000090070882400011050500000000000000000201708300002001FERRESOLDAR DEL CARIBE S.A.S                      D000000001600000000000000000000000100010010000000000000000000000F0010000010269500120170830000101 00000000000000000000000000000000000000000000000000000000000000000000000000000000000000000000000000000000000000000N 00000000000NCONT   00    00000000000          00000000000000000000000000000000000000000000 000000000000000A000000000000000000000000000000000000000000000 000000000000000000000000000000000000000     00000000                                                                                                                        000000000000000000
F0010000010269500002000090070882400041450500000000000000000201708300002001FERRESOLDAR DEL CARIBE S.A.S                      C000000001500000000000000000000000100010010000000000000000000000F0010000010269500220170830000101 00000000000000000000000000000000000000000000000000000000000000000000000000000000000000000000000000000000000000000N 00000000000NCONT   00    00000000000          00000000000000000000000000000000000000000000 000000000000000A000000000000000000000000000000000000000000000 000000000000000000000000000000000000000     00000000                                                                                                                        000000000000000000
F0010000010269500003000090070882400042505000000000000000000201708300002001FERRESOLDAR DEL CARIBE S.A.S                      C000000000100000000000000000000000100010010000000000000000000000F0010000010269500320170830000101 00000000000000000000000000000000000000000000000000000000000000000000000000000000000000000000000000000000000000000N 00000000000NCONT   00    00000000000          00000000000000000000000000000000000000000000 000000000000000A000000000000000000000000000000000000000000000 000000000000000000000000000000000000000     00000000                                                                                                                        000000000000000000
F0010000010269500004000090070882400023658300000000000000000201708300002001FERRESOLDAR DEL CARIBE S.A.S                      C000000000000000000000000000000000100010010000000000000000000000F0010000010269500420170830000101 00000000000000000000000000000000000000000000000000000000000000000000000000000000000000000000000000000000000000000N 00000000000NCONT   00    00000000000          00000000000000000000000000000000000000000000 000000000000000A000000000000000000000000000000000000000000000 000000000000000000000000000000000000000     00000000                                                                                                                        000000000000000000
F0010000010269500005000090070882400013552100000000000000000201708300002001FERRESOLDAR DEL CARIBE S.A.S                      D000000000000000000000000000000000100010010000000000000000000000F0010000010269500520170830000101 00000000000000000000000000000000000000000000000000000000000000000000000000000000000000000000000000000000000000000N 00000000000NCONT   00    00000000000          00000000000000000000000000000000000000000000 000000000000000A000000000000000000000000000000000000000000000 000000000000000000000000000000000000000     00000000                                                                                                                        000000000000000000
F0010000010269600001000080201411900011050500000000000000000201708300002001PLASTISERVICIOS S DE H                            D000000002600000000000000000000000100010010000000000000000000000F0010000010269600120170830000101 00000000000000000000000000000000000000000000000000000000000000000000000000000000000000000000000000000000000000000N 00000000000NCONT   00    00000000000          00000000000000000000000000000000000000000000 000000000000000A000000000000000000000000000000000000000000000 000000000000000000000000000000000000000     00000000                                                                                                                        000000000000000000
F0010000010269600002000080201411900041450500000000000000000201708300002001PLASTISERVICIOS S DE H                            C000000002200000000000000000000000100010010000000000000000000000F0010000010269600220170830000101 00000000000000000000000000000000000000000000000000000000000000000000000000000000000000000000000000000000000000000N 00000000000NCONT   00    00000000000          00000000000000000000000000000000000000000000 000000000000000A000000000000000000000000000000000000000000000 000000000000000000000000000000000000000     00000000                                                                                                                        000000000000000000
F0010000010269600003000080201411900042505000000000000000000201708300002001PLASTISERVICIOS S DE H                            C000000000400000000000000000000000100010010000000000000000000000F0010000010269600320170830000101 00000000000000000000000000000000000000000000000000000000000000000000000000000000000000000000000000000000000000000N 00000000000NCONT   00    00000000000          00000000000000000000000000000000000000000000 000000000000000A000000000000000000000000000000000000000000000 000000000000000000000000000000000000000     00000000                                                                                                                        000000000000000000
F0010000010269600004000080201411900023658300000000000000000201708300002001PLASTISERVICIOS S DE H                            C000000000000000000000000000000000100010010000000000000000000000F0010000010269600420170830000101 00000000000000000000000000000000000000000000000000000000000000000000000000000000000000000000000000000000000000000N 00000000000NCONT   00    00000000000          00000000000000000000000000000000000000000000 000000000000000A000000000000000000000000000000000000000000000 000000000000000000000000000000000000000     00000000                                                                                                                        000000000000000000
F0010000010269600005000080201411900013552100000000000000000201708300002001PLASTISERVICIOS S DE H                            D000000000000000000000000000000000100010010000000000000000000000F0010000010269600520170830000101 00000000000000000000000000000000000000000000000000000000000000000000000000000000000000000000000000000000000000000N 00000000000NCONT   00    00000000000          00000000000000000000000000000000000000000000 000000000000000A000000000000000000000000000000000000000000000 000000000000000000000000000000000000000     00000000                                                                                                                        000000000000000000
F0010000010269700001000000870053600011050500000000000000000201708300002001FARID ARRIETA                                     D000000001300000000000000000000000100010010000000000000000000000F0010000010269700120170830000101 00000000000000000000000000000000000000000000000000000000000000000000000000000000000000000000000000000000000000000N 00000000000NCONT   00    00000000000          00000000000000000000000000000000000000000000 000000000000000A000000000000000000000000000000000000000000000 000000000000000000000000000000000000000     00000000                                                                                                                        000000000000000000
F0010000010269700002000000870053600041450500000000000000000201708300002001FARID ARRIETA                                     C000000001200000000000000000000000100010010000000000000000000000F0010000010269700220170830000101 00000000000000000000000000000000000000000000000000000000000000000000000000000000000000000000000000000000000000000N 00000000000NCONT   00    00000000000          00000000000000000000000000000000000000000000 000000000000000A000000000000000000000000000000000000000000000 000000000000000000000000000000000000000     00000000                                                                                                                        000000000000000000
F0010000010269700003000000870053600042505000000000000000000201708300002001FARID ARRIETA                                     C000000000100000000000000000000000100010010000000000000000000000F0010000010269700320170830000101 00000000000000000000000000000000000000000000000000000000000000000000000000000000000000000000000000000000000000000N 00000000000NCONT   00    00000000000          00000000000000000000000000000000000000000000 000000000000000A000000000000000000000000000000000000000000000 000000000000000000000000000000000000000     00000000                                                                                                                        000000000000000000
F0010000010269700004000000870053600023658300000000000000000201708300002001FARID ARRIETA                                     C000000000000000000000000000000000100010010000000000000000000000F0010000010269700420170830000101 00000000000000000000000000000000000000000000000000000000000000000000000000000000000000000000000000000000000000000N 00000000000NCONT   00    00000000000          00000000000000000000000000000000000000000000 000000000000000A000000000000000000000000000000000000000000000 000000000000000000000000000000000000000     00000000                                                                                                                        000000000000000000
F0010000010269700005000000870053600013552100000000000000000201708300002001FARID ARRIETA                                     D000000000000000000000000000000000100010010000000000000000000000F0010000010269700520170830000101 00000000000000000000000000000000000000000000000000000000000000000000000000000000000000000000000000000000000000000N 00000000000NCONT   00    00000000000          00000000000000000000000000000000000000000000 000000000000000A000000000000000000000000000000000000000000000 000000000000000000000000000000000000000     00000000                                                                                                                        000000000000000000
F0010000010269800001000090060180600011050500000000000000000201708300002001INTERSOLES SAS                                    D000000000800000000000000000000000100010010000000000000000000000F0010000010269800120170830000101 00000000000000000000000000000000000000000000000000000000000000000000000000000000000000000000000000000000000000000N 00000000000NCONT   00    00000000000          00000000000000000000000000000000000000000000 000000000000000A000000000000000000000000000000000000000000000 000000000000000000000000000000000000000     00000000                                                                                                                        000000000000000000
F0010000010269800002000090060180600041450500000000000000000201708300002001INTERSOLES SAS                                    C000000000750000000000000000000000100010010000000000000000000000F0010000010269800220170830000101 00000000000000000000000000000000000000000000000000000000000000000000000000000000000000000000000000000000000000000N 00000000000NCONT   00    00000000000          00000000000000000000000000000000000000000000 000000000000000A000000000000000000000000000000000000000000000 000000000000000000000000000000000000000     00000000                                                                                                                        000000000000000000
F0010000010269800003000090060180600042505000000000000000000201708300002001INTERSOLES SAS                                    C000000000050000000000000000000000100010010000000000000000000000F0010000010269800320170830000101 00000000000000000000000000000000000000000000000000000000000000000000000000000000000000000000000000000000000000000N 00000000000NCONT   00    00000000000          00000000000000000000000000000000000000000000 000000000000000A000000000000000000000000000000000000000000000 000000000000000000000000000000000000000     00000000                                                                                                                        000000000000000000
F0010000010269800004000090060180600023658300000000000000000201708300002001INTERSOLES SAS                                    C000000000000000000000000000000000100010010000000000000000000000F0010000010269800420170830000101 00000000000000000000000000000000000000000000000000000000000000000000000000000000000000000000000000000000000000000N 00000000000NCONT   00    00000000000          00000000000000000000000000000000000000000000 000000000000000A000000000000000000000000000000000000000000000 000000000000000000000000000000000000000     00000000                                                                                                                        000000000000000000
F0010000010269800005000090060180600013552100000000000000000201708300002001INTERSOLES SAS                                    D000000000000000000000000000000000100010010000000000000000000000F0010000010269800520170830000101 00000000000000000000000000000000000000000000000000000000000000000000000000000000000000000000000000000000000000000N 00000000000NCONT   00    00000000000          00000000000000000000000000000000000000000000 000000000000000A000000000000000000000000000000000000000000000 000000000000000000000000000000000000000     00000000                                                                                                                        000000000000000000
F0010000010269900001000080202094000011050500000000000000000201708300002001DISTRIB. OMAR ORREGO S.A.                         D000000004200000000000000000000000100010010000000000000000000000F0010000010269900120170830000101 00000000000000000000000000000000000000000000000000000000000000000000000000000000000000000000000000000000000000000N 00000000000NCONT   00    00000000000          00000000000000000000000000000000000000000000 000000000000000A000000000000000000000000000000000000000000000 000000000000000000000000000000000000000     00000000                                                                                                                        000000000000000000
F0010000010269900002000080202094000041450500000000000000000201708300002001DISTRIB. OMAR ORREGO S.A.                         C000000004000000000000000000000000100010010000000000000000000000F0010000010269900220170830000101 00000000000000000000000000000000000000000000000000000000000000000000000000000000000000000000000000000000000000000N 00000000000NCONT   00    00000000000          00000000000000000000000000000000000000000000 000000000000000A000000000000000000000000000000000000000000000 000000000000000000000000000000000000000     00000000                                                                                                                        000000000000000000
F0010000010269900003000080202094000042505000000000000000000201708300002001DISTRIB. OMAR ORREGO S.A.                         C000000000200000000000000000000000100010010000000000000000000000F0010000010269900320170830000101 00000000000000000000000000000000000000000000000000000000000000000000000000000000000000000000000000000000000000000N 00000000000NCONT   00    00000000000          00000000000000000000000000000000000000000000 000000000000000A000000000000000000000000000000000000000000000 000000000000000000000000000000000000000     00000000                                                                                                                        000000000000000000
F0010000010269900004000080202094000023658300000000000000000201708300002001DISTRIB. OMAR ORREGO S.A.                         C000000000000000000000000000000000100010010000000000000000000000F0010000010269900420170830000101 00000000000000000000000000000000000000000000000000000000000000000000000000000000000000000000000000000000000000000N 00000000000NCONT   00    00000000000          00000000000000000000000000000000000000000000 000000000000000A000000000000000000000000000000000000000000000 000000000000000000000000000000000000000     00000000                                                                                                                        000000000000000000
F0010000010269900005000080202094000013552100000000000000000201708300002001DISTRIB. OMAR ORREGO S.A.                         D000000000000000000000000000000000100010010000000000000000000000F0010000010269900520170830000101 00000000000000000000000000000000000000000000000000000000000000000000000000000000000000000000000000000000000000000N 00000000000NCONT   00    00000000000          00000000000000000000000000000000000000000000 000000000000000A000000000000000000000000000000000000000000000 000000000000000000000000000000000000000     00000000                                                                                                                        000000000000000000
F0010000010270000001000005531330700011050500000000000000000201708300002001NOVEDADES OKEY                                    D000000007000000000000000000000000100010010000000000000000000000F0010000010270000120170830000101 00000000000000000000000000000000000000000000000000000000000000000000000000000000000000000000000000000000000000000N 00000000000NCONT   00    00000000000          00000000000000000000000000000000000000000000 000000000000000A000000000000000000000000000000000000000000000 000000000000000000000000000000000000000     00000000                                                                                                                        000000000000000000
F0010000010270000002000005531330700041450500000000000000000201708300002001NOVEDADES OKEY                                    C000000004500000000000000000000000100010010000000000000000000000F0010000010270000220170830000101 00000000000000000000000000000000000000000000000000000000000000000000000000000000000000000000000000000000000000000N 00000000000NCONT   00    00000000000          00000000000000000000000000000000000000000000 000000000000000A000000000000000000000000000000000000000000000 000000000000000000000000000000000000000     00000000                                                                                                                        000000000000000000
F0010000010270000003000005531330700042505000000000000000000201708300002001NOVEDADES OKEY                                    C000000002500000000000000000000000100010010000000000000000000000F0010000010270000320170830000101 00000000000000000000000000000000000000000000000000000000000000000000000000000000000000000000000000000000000000000N 00000000000NCONT   00    00000000000          00000000000000000000000000000000000000000000 000000000000000A000000000000000000000000000000000000000000000 000000000000000000000000000000000000000     00000000                                                                                                                        000000000000000000
F0010000010270000004000005531330700023658300000000000000000201708300002001NOVEDADES OKEY                                    C000000000000000000000000000000000100010010000000000000000000000F0010000010270000420170830000101 00000000000000000000000000000000000000000000000000000000000000000000000000000000000000000000000000000000000000000N 00000000000NCONT   00    00000000000          00000000000000000000000000000000000000000000 000000000000000A000000000000000000000000000000000000000000000 000000000000000000000000000000000000000     00000000                                                                                                                        000000000000000000
F0010000010270000005000005531330700013552100000000000000000201708300002001NOVEDADES OKEY                                    D000000000000000000000000000000000100010010000000000000000000000F0010000010270000520170830000101 00000000000000000000000000000000000000000000000000000000000000000000000000000000000000000000000000000000000000000N 00000000000NCONT   00    00000000000          00000000000000000000000000000000000000000000 000000000000000A000000000000000000000000000000000000000000000 000000000000000000000000000000000000000     00000000                                                                                                                        000000000000000000
F0010000010270100001000081600151900011050500000000000000000201708300002001DECORARCO SA                                      D000000001200000000000000000000000100010010000000000000000000000F0010000010270100120170830000101 00000000000000000000000000000000000000000000000000000000000000000000000000000000000000000000000000000000000000000N 00000000000NCONT   00    00000000000          00000000000000000000000000000000000000000000 000000000000000A000000000000000000000000000000000000000000000 000000000000000000000000000000000000000     00000000                                                                                                                        000000000000000000
F0010000010270100002000081600151900041450500000000000000000201708300002001DECORARCO SA                                      C000000001100000000000000000000000100010010000000000000000000000F0010000010270100220170830000101 00000000000000000000000000000000000000000000000000000000000000000000000000000000000000000000000000000000000000000N 00000000000NCONT   00    00000000000          00000000000000000000000000000000000000000000 000000000000000A000000000000000000000000000000000000000000000 000000000000000000000000000000000000000     00000000                                                                                                                        000000000000000000
F0010000010270100003000081600151900042505000000000000000000201708300002001DECORARCO SA                                      C000000000100000000000000000000000100010010000000000000000000000F0010000010270100320170830000101 00000000000000000000000000000000000000000000000000000000000000000000000000000000000000000000000000000000000000000N 00000000000NCONT   00    00000000000          00000000000000000000000000000000000000000000 000000000000000A000000000000000000000000000000000000000000000 000000000000000000000000000000000000000     00000000                                                                                                                        000000000000000000
F0010000010270100004000081600151900023658300000000000000000201708300002001DECORARCO SA                                      C000000000000000000000000000000000100010010000000000000000000000F0010000010270100420170830000101 00000000000000000000000000000000000000000000000000000000000000000000000000000000000000000000000000000000000000000N 00000000000NCONT   00    00000000000          00000000000000000000000000000000000000000000 000000000000000A000000000000000000000000000000000000000000000 000000000000000000000000000000000000000     00000000                                                                                                                        000000000000000000
F0010000010270100005000081600151900013552100000000000000000201708300002001DECORARCO SA                                      D000000000000000000000000000000000100010010000000000000000000000F0010000010270100520170830000101 00000000000000000000000000000000000000000000000000000000000000000000000000000000000000000000000000000000000000000N 00000000000NCONT   00    00000000000          00000000000000000000000000000000000000000000 000000000000000A000000000000000000000000000000000000000000000 000000000000000000000000000000000000000     00000000                                                                                                                        000000000000000000
F0010000010270200001000004544401900011050500000000000000000201708300002001FISIOTER                                          D000000001300000000000000000000000100010010000000000000000000000F0010000010270200120170830000101 00000000000000000000000000000000000000000000000000000000000000000000000000000000000000000000000000000000000000000N 00000000000NCONT   00    00000000000          00000000000000000000000000000000000000000000 000000000000000A000000000000000000000000000000000000000000000 000000000000000000000000000000000000000     00000000                                                                                                                        000000000000000000
F0010000010270200002000004544401900041450500000000000000000201708300002001FISIOTER                                          C000000001100000000000000000000000100010010000000000000000000000F0010000010270200220170830000101 00000000000000000000000000000000000000000000000000000000000000000000000000000000000000000000000000000000000000000N 00000000000NCONT   00    00000000000          00000000000000000000000000000000000000000000 000000000000000A000000000000000000000000000000000000000000000 000000000000000000000000000000000000000     00000000                                                                                                                        000000000000000000
F0010000010270200003000004544401900042505000000000000000000201708300002001FISIOTER                                          C000000000200000000000000000000000100010010000000000000000000000F0010000010270200320170830000101 00000000000000000000000000000000000000000000000000000000000000000000000000000000000000000000000000000000000000000N 00000000000NCONT   00    00000000000          00000000000000000000000000000000000000000000 000000000000000A000000000000000000000000000000000000000000000 000000000000000000000000000000000000000     00000000                                                                                                                        000000000000000000
F0010000010270200004000004544401900023658300000000000000000201708300002001FISIOTER                                          C000000000000000000000000000000000100010010000000000000000000000F0010000010270200420170830000101 00000000000000000000000000000000000000000000000000000000000000000000000000000000000000000000000000000000000000000N 00000000000NCONT   00    00000000000          00000000000000000000000000000000000000000000 000000000000000A000000000000000000000000000000000000000000000 000000000000000000000000000000000000000     00000000                                                                                                                        000000000000000000
F0010000010270200005000004544401900013552100000000000000000201708300002001FISIOTER                                          D000000000000000000000000000000000100010010000000000000000000000F0010000010270200520170830000101 00000000000000000000000000000000000000000000000000000000000000000000000000000000000000000000000000000000000000000N 00000000000NCONT   00    00000000000          00000000000000000000000000000000000000000000 000000000000000A000000000000000000000000000000000000000000000 000000000000000000000000000000000000000     00000000                                                                                                                        000000000000000000
F0010000010270300001000007200023300011050500000000000000000201708300002001WILLIAM ORTEGA                                    D000000003000000000000000000000000100010010000000000000000000000F0010000010270300120170830000101 00000000000000000000000000000000000000000000000000000000000000000000000000000000000000000000000000000000000000000N 00000000000NCONT   00    00000000000          00000000000000000000000000000000000000000000 000000000000000A000000000000000000000000000000000000000000000 000000000000000000000000000000000000000     00000000                                                                                                                        000000000000000000
F0010000010270300002000007200023300041450500000000000000000201708300002001WILLIAM ORTEGA                                    C000000002700000000000000000000000100010010000000000000000000000F0010000010270300220170830000101 00000000000000000000000000000000000000000000000000000000000000000000000000000000000000000000000000000000000000000N 00000000000NCONT   00    00000000000          00000000000000000000000000000000000000000000 000000000000000A000000000000000000000000000000000000000000000 000000000000000000000000000000000000000     00000000                                                                                                                        000000000000000000
F0010000010270300003000007200023300042505000000000000000000201708300002001WILLIAM ORTEGA                                    C000000000300000000000000000000000100010010000000000000000000000F0010000010270300320170830000101 00000000000000000000000000000000000000000000000000000000000000000000000000000000000000000000000000000000000000000N 00000000000NCONT   00    00000000000          00000000000000000000000000000000000000000000 000000000000000A000000000000000000000000000000000000000000000 000000000000000000000000000000000000000     00000000                                                                                                                        000000000000000000
F0010000010270300004000007200023300023658300000000000000000201708300002001WILLIAM ORTEGA                                    C000000000000000000000000000000000100010010000000000000000000000F0010000010270300420170830000101 00000000000000000000000000000000000000000000000000000000000000000000000000000000000000000000000000000000000000000N 00000000000NCONT   00    00000000000          00000000000000000000000000000000000000000000 000000000000000A000000000000000000000000000000000000000000000 000000000000000000000000000000000000000     00000000                                                                                                                        000000000000000000
F0010000010270300005000007200023300013552100000000000000000201708300002001WILLIAM ORTEGA                                    D000000000000000000000000000000000100010010000000000000000000000F0010000010270300520170830000101 00000000000000000000000000000000000000000000000000000000000000000000000000000000000000000000000000000000000000000N 00000000000NCONT   00    00000000000          00000000000000000000000000000000000000000000 000000000000000A000000000000000000000000000000000000000000000 000000000000000000000000000000000000000     00000000                                                                                                                        000000000000000000
F0010000010270400001000007200023300011050500000000000000000201708300002001WILLIAM ORTEGA                                    D000000001400000000000000000000000100010010000000000000000000000F0010000010270400120170830000101 00000000000000000000000000000000000000000000000000000000000000000000000000000000000000000000000000000000000000000N 00000000000NCONT   00    00000000000          00000000000000000000000000000000000000000000 000000000000000A000000000000000000000000000000000000000000000 000000000000000000000000000000000000000     00000000                                                                                                                        000000000000000000
F0010000010270400002000007200023300041450500000000000000000201708300002001WILLIAM ORTEGA                                    C000000001200000000000000000000000100010010000000000000000000000F0010000010270400220170830000101 00000000000000000000000000000000000000000000000000000000000000000000000000000000000000000000000000000000000000000N 00000000000NCONT   00    00000000000          00000000000000000000000000000000000000000000 000000000000000A000000000000000000000000000000000000000000000 000000000000000000000000000000000000000     00000000                                                                                                                        000000000000000000
F0010000010270400003000007200023300042505000000000000000000201708300002001WILLIAM ORTEGA                                    C000000000200000000000000000000000100010010000000000000000000000F0010000010270400320170830000101 00000000000000000000000000000000000000000000000000000000000000000000000000000000000000000000000000000000000000000N 00000000000NCONT   00    00000000000          00000000000000000000000000000000000000000000 000000000000000A000000000000000000000000000000000000000000000 000000000000000000000000000000000000000     00000000                                                                                                                        000000000000000000
F0010000010270400004000007200023300023658300000000000000000201708300002001WILLIAM ORTEGA                                    C000000000000000000000000000000000100010010000000000000000000000F0010000010270400420170830000101 00000000000000000000000000000000000000000000000000000000000000000000000000000000000000000000000000000000000000000N 00000000000NCONT   00    00000000000          00000000000000000000000000000000000000000000 000000000000000A000000000000000000000000000000000000000000000 000000000000000000000000000000000000000     00000000                                                                                                                        000000000000000000
F0010000010270400005000007200023300013552100000000000000000201708300002001WILLIAM ORTEGA                                    D000000000000000000000000000000000100010010000000000000000000000F0010000010270400520170830000101 00000000000000000000000000000000000000000000000000000000000000000000000000000000000000000000000000000000000000000N 00000000000NCONT   00    00000000000          00000000000000000000000000000000000000000000 000000000000000A000000000000000000000000000000000000000000000 000000000000000000000000000000000000000     00000000                                                                                                                        000000000000000000
F0010000010270500001000007200023300011050500000000000000000201708300002001WILLIAM ORTEGA                                    D000000001560000000000000000000000100010010000000000000000000000F0010000010270500120170830000101 00000000000000000000000000000000000000000000000000000000000000000000000000000000000000000000000000000000000000000N 00000000000NCONT   00    00000000000          00000000000000000000000000000000000000000000 000000000000000A000000000000000000000000000000000000000000000 000000000000000000000000000000000000000     00000000                                                                                                                        000000000000000000
F0010000010270500002000007200023300041450500000000000000000201708300002001WILLIAM ORTEGA                                    C000000001300000000000000000000000100010010000000000000000000000F0010000010270500220170830000101 00000000000000000000000000000000000000000000000000000000000000000000000000000000000000000000000000000000000000000N 00000000000NCONT   00    00000000000          00000000000000000000000000000000000000000000 000000000000000A000000000000000000000000000000000000000000000 000000000000000000000000000000000000000     00000000                                                                                                                        000000000000000000
F0010000010270500003000007200023300042505000000000000000000201708300002001WILLIAM ORTEGA                                    C000000000260000000000000000000000100010010000000000000000000000F0010000010270500320170830000101 00000000000000000000000000000000000000000000000000000000000000000000000000000000000000000000000000000000000000000N 00000000000NCONT   00    00000000000          00000000000000000000000000000000000000000000 000000000000000A000000000000000000000000000000000000000000000 000000000000000000000000000000000000000     00000000                                                                                                                        000000000000000000
F0010000010270500004000007200023300023658300000000000000000201708300002001WILLIAM ORTEGA                                    C000000000000000000000000000000000100010010000000000000000000000F0010000010270500420170830000101 00000000000000000000000000000000000000000000000000000000000000000000000000000000000000000000000000000000000000000N 00000000000NCONT   00    00000000000          00000000000000000000000000000000000000000000 000000000000000A000000000000000000000000000000000000000000000 000000000000000000000000000000000000000     00000000                                                                                                                        000000000000000000
F0010000010270500005000007200023300013552100000000000000000201708300002001WILLIAM ORTEGA                                    D000000000000000000000000000000000100010010000000000000000000000F0010000010270500520170830000101 00000000000000000000000000000000000000000000000000000000000000000000000000000000000000000000000000000000000000000N 00000000000NCONT   00    00000000000          00000000000000000000000000000000000000000000 000000000000000A000000000000000000000000000000000000000000000 000000000000000000000000000000000000000     00000000                                                                                                                        000000000000000000
F0010000010270600001000003319910700011050500000000000000000201708300002001LUZ DARY JIMENEZ MARTINEZ                         D000000001200000000000000000000000100010010000000000000000000000F0010000010270600120170830000101 00000000000000000000000000000000000000000000000000000000000000000000000000000000000000000000000000000000000000000N 00000000000NCONT   00    00000000000          00000000000000000000000000000000000000000000 000000000000000A000000000000000000000000000000000000000000000 000000000000000000000000000000000000000     00000000                                                                                                                        000000000000000000
F0010000010270600002000003319910700041450500000000000000000201708300002001LUZ DARY JIMENEZ MARTINEZ                         C000000001100000000000000000000000100010010000000000000000000000F0010000010270600220170830000101 00000000000000000000000000000000000000000000000000000000000000000000000000000000000000000000000000000000000000000N 00000000000NCONT   00    00000000000          00000000000000000000000000000000000000000000 000000000000000A000000000000000000000000000000000000000000000 000000000000000000000000000000000000000     00000000                                                                                                                        000000000000000000
F0010000010270600003000003319910700042505000000000000000000201708300002001LUZ DARY JIMENEZ MARTINEZ                         C000000000100000000000000000000000100010010000000000000000000000F0010000010270600320170830000101 00000000000000000000000000000000000000000000000000000000000000000000000000000000000000000000000000000000000000000N 00000000000NCONT   00    00000000000          00000000000000000000000000000000000000000000 000000000000000A000000000000000000000000000000000000000000000 000000000000000000000000000000000000000     00000000                                                                                                                        000000000000000000
F0010000010270600004000003319910700023658300000000000000000201708300002001LUZ DARY JIMENEZ MARTINEZ                         C000000000000000000000000000000000100010010000000000000000000000F0010000010270600420170830000101 00000000000000000000000000000000000000000000000000000000000000000000000000000000000000000000000000000000000000000N 00000000000NCONT   00    00000000000          00000000000000000000000000000000000000000000 000000000000000A000000000000000000000000000000000000000000000 000000000000000000000000000000000000000     00000000                                                                                                                        000000000000000000
F0010000010270600005000003319910700013552100000000000000000201708300002001LUZ DARY JIMENEZ MARTINEZ                         D000000000000000000000000000000000100010010000000000000000000000F0010000010270600520170830000101 00000000000000000000000000000000000000000000000000000000000000000000000000000000000000000000000000000000000000000N 00000000000NCONT   00    00000000000          00000000000000000000000000000000000000000000 000000000000000A000000000000000000000000000000000000000000000 000000000000000000000000000000000000000     00000000                                                                                                                        000000000000000000
F0010000010270700001000003207718300011050500000000000000000201708300002001MARIA GILMA  RAMIREZ GARCIA                       D000000004450000000000000000000000100010010000000000000000000000F0010000010270700120170830000101 00000000000000000000000000000000000000000000000000000000000000000000000000000000000000000000000000000000000000000N 00000000000NCONT   00    00000000000          00000000000000000000000000000000000000000000 000000000000000A000000000000000000000000000000000000000000000 000000000000000000000000000000000000000     00000000                                                                                                                        000000000000000000
F0010000010270700002000003207718300041450500000000000000000201708300002001MARIA GILMA  RAMIREZ GARCIA                       C000000003600000000000000000000000100010010000000000000000000000F0010000010270700220170830000101 00000000000000000000000000000000000000000000000000000000000000000000000000000000000000000000000000000000000000000N 00000000000NCONT   00    00000000000          00000000000000000000000000000000000000000000 000000000000000A000000000000000000000000000000000000000000000 000000000000000000000000000000000000000     00000000                                                                                                                        000000000000000000
F0010000010270700003000003207718300042505000000000000000000201708300002001MARIA GILMA  RAMIREZ GARCIA                       C000000000850000000000000000000000100010010000000000000000000000F0010000010270700320170830000101 00000000000000000000000000000000000000000000000000000000000000000000000000000000000000000000000000000000000000000N 00000000000NCONT   00    00000000000          00000000000000000000000000000000000000000000 000000000000000A000000000000000000000000000000000000000000000 000000000000000000000000000000000000000     00000000                                                                                                                        000000000000000000
F0010000010270700004000003207718300023658300000000000000000201708300002001MARIA GILMA  RAMIREZ GARCIA                       C000000000000000000000000000000000100010010000000000000000000000F0010000010270700420170830000101 00000000000000000000000000000000000000000000000000000000000000000000000000000000000000000000000000000000000000000N 00000000000NCONT   00    00000000000          00000000000000000000000000000000000000000000 000000000000000A000000000000000000000000000000000000000000000 000000000000000000000000000000000000000     00000000                                                                                                                        000000000000000000
F0010000010270700005000003207718300013552100000000000000000201708300002001MARIA GILMA  RAMIREZ GARCIA                       D000000000000000000000000000000000100010010000000000000000000000F0010000010270700520170830000101 00000000000000000000000000000000000000000000000000000000000000000000000000000000000000000000000000000000000000000N 00000000000NCONT   00    00000000000          00000000000000000000000000000000000000000000 000000000000000A000000000000000000000000000000000000000000000 000000000000000000000000000000000000000     00000000                                                                                                                        000000000000000000
F0010000010270800001000090050144800011050500000000000000000201708300002001PLASTICOS JR ASOCIADOS SAS                        D000000002500000000000000000000000100010010000000000000000000000F0010000010270800120170830000101 00000000000000000000000000000000000000000000000000000000000000000000000000000000000000000000000000000000000000000N 00000000000NCONT   00    00000000000          00000000000000000000000000000000000000000000 000000000000000A000000000000000000000000000000000000000000000 000000000000000000000000000000000000000     00000000                                                                                                                        000000000000000000
F0010000010270800002000090050144800041450500000000000000000201708300002001PLASTICOS JR ASOCIADOS SAS                        C000000002200000000000000000000000100010010000000000000000000000F0010000010270800220170830000101 00000000000000000000000000000000000000000000000000000000000000000000000000000000000000000000000000000000000000000N 00000000000NCONT   00    00000000000          00000000000000000000000000000000000000000000 000000000000000A000000000000000000000000000000000000000000000 000000000000000000000000000000000000000     00000000                                                                                                                        000000000000000000
F0010000010270800003000090050144800042505000000000000000000201708300002001PLASTICOS JR ASOCIADOS SAS                        C000000000300000000000000000000000100010010000000000000000000000F0010000010270800320170830000101 00000000000000000000000000000000000000000000000000000000000000000000000000000000000000000000000000000000000000000N 00000000000NCONT   00    00000000000          00000000000000000000000000000000000000000000 000000000000000A000000000000000000000000000000000000000000000 000000000000000000000000000000000000000     00000000                                                                                                                        000000000000000000
F0010000010270800004000090050144800023658300000000000000000201708300002001PLASTICOS JR ASOCIADOS SAS                        C000000000000000000000000000000000100010010000000000000000000000F0010000010270800420170830000101 00000000000000000000000000000000000000000000000000000000000000000000000000000000000000000000000000000000000000000N 00000000000NCONT   00    00000000000          00000000000000000000000000000000000000000000 000000000000000A000000000000000000000000000000000000000000000 000000000000000000000000000000000000000     00000000                                                                                                                        000000000000000000
F0010000010270800005000090050144800013552100000000000000000201708300002001PLASTICOS JR ASOCIADOS SAS                        D000000000000000000000000000000000100010010000000000000000000000F0010000010270800520170830000101 00000000000000000000000000000000000000000000000000000000000000000000000000000000000000000000000000000000000000000N 00000000000NCONT   00    00000000000          00000000000000000000000000000000000000000000 000000000000000A000000000000000000000000000000000000000000000 000000000000000000000000000000000000000     00000000                                                                                                                        000000000000000000
F0010000010270900001000001022529300011050500000000000000000201708300002001ALBERTO ALVAREZ ISAZA                             D000000000700000000000000000000000100010010000000000000000000000F0010000010270900120170830000101 00000000000000000000000000000000000000000000000000000000000000000000000000000000000000000000000000000000000000000N 00000000000NCONT   00    00000000000          00000000000000000000000000000000000000000000 000000000000000A000000000000000000000000000000000000000000000 000000000000000000000000000000000000000     00000000                                                                                                                        000000000000000000
F0010000010270900002000001022529300041450500000000000000000201708300002001ALBERTO ALVAREZ ISAZA                             C000000000700000000000000000000000100010010000000000000000000000F0010000010270900220170830000101 00000000000000000000000000000000000000000000000000000000000000000000000000000000000000000000000000000000000000000N 00000000000NCONT   00    00000000000          00000000000000000000000000000000000000000000 000000000000000A000000000000000000000000000000000000000000000 000000000000000000000000000000000000000     00000000                                                                                                                        000000000000000000
F0010000010270900003000001022529300042505000000000000000000201708300002001ALBERTO ALVAREZ ISAZA                             C000000000000000000000000000000000100010010000000000000000000000F0010000010270900320170830000101 00000000000000000000000000000000000000000000000000000000000000000000000000000000000000000000000000000000000000000N 00000000000NCONT   00    00000000000          00000000000000000000000000000000000000000000 000000000000000A000000000000000000000000000000000000000000000 000000000000000000000000000000000000000     00000000                                                                                                                        000000000000000000
F0010000010270900004000001022529300023658300000000000000000201708300002001ALBERTO ALVAREZ ISAZA                             C000000000000000000000000000000000100010010000000000000000000000F0010000010270900420170830000101 00000000000000000000000000000000000000000000000000000000000000000000000000000000000000000000000000000000000000000N 00000000000NCONT   00    00000000000          00000000000000000000000000000000000000000000 000000000000000A000000000000000000000000000000000000000000000 000000000000000000000000000000000000000     00000000                                                                                                                        000000000000000000
F0010000010270900005000001022529300013552100000000000000000201708300002001ALBERTO ALVAREZ ISAZA                             D000000000000000000000000000000000100010010000000000000000000000F0010000010270900520170830000101 00000000000000000000000000000000000000000000000000000000000000000000000000000000000000000000000000000000000000000N 00000000000NCONT   00    00000000000          00000000000000000000000000000000000000000000 000000000000000A000000000000000000000000000000000000000000000 000000000000000000000000000000000000000     00000000                                                                                                                        000000000000000000
F0010000010271000001000001022529300011050500000000000000000201708300002001ALBERTO ALVAREZ ISAZA                             D000000000880000000000000000000000100010010000000000000000000000F0010000010271000120170830000101 00000000000000000000000000000000000000000000000000000000000000000000000000000000000000000000000000000000000000000N 00000000000NCONT   00    00000000000          00000000000000000000000000000000000000000000 000000000000000A000000000000000000000000000000000000000000000 000000000000000000000000000000000000000     00000000                                                                                                                        000000000000000000
F0010000010271000002000001022529300041450500000000000000000201708300002001ALBERTO ALVAREZ ISAZA                             C000000000880000000000000000000000100010010000000000000000000000F0010000010271000220170830000101 00000000000000000000000000000000000000000000000000000000000000000000000000000000000000000000000000000000000000000N 00000000000NCONT   00    00000000000          00000000000000000000000000000000000000000000 000000000000000A000000000000000000000000000000000000000000000 000000000000000000000000000000000000000     00000000                                                                                                                        000000000000000000
F0010000010271000003000001022529300042505000000000000000000201708300002001ALBERTO ALVAREZ ISAZA                             C000000000000000000000000000000000100010010000000000000000000000F0010000010271000320170830000101 00000000000000000000000000000000000000000000000000000000000000000000000000000000000000000000000000000000000000000N 00000000000NCONT   00    00000000000          00000000000000000000000000000000000000000000 000000000000000A000000000000000000000000000000000000000000000 000000000000000000000000000000000000000     00000000                                                                                                                        000000000000000000
F0010000010271000004000001022529300023658300000000000000000201708300002001ALBERTO ALVAREZ ISAZA                             C000000000000000000000000000000000100010010000000000000000000000F0010000010271000420170830000101 00000000000000000000000000000000000000000000000000000000000000000000000000000000000000000000000000000000000000000N 00000000000NCONT   00    00000000000          00000000000000000000000000000000000000000000 000000000000000A000000000000000000000000000000000000000000000 000000000000000000000000000000000000000     00000000                                                                                                                        000000000000000000
F0010000010271000005000001022529300013552100000000000000000201708300002001ALBERTO ALVAREZ ISAZA                             D000000000000000000000000000000000100010010000000000000000000000F0010000010271000520170830000101 00000000000000000000000000000000000000000000000000000000000000000000000000000000000000000000000000000000000000000N 00000000000NCONT   00    00000000000          00000000000000000000000000000000000000000000 000000000000000A000000000000000000000000000000000000000000000 000000000000000000000000000000000000000     00000000                                                                                                                        000000000000000000
F0010000010271100001000083008772100011050500000000000000000201708300002001ILUMEC SAS                                        D000000001000000000000000000000000100010010000000000000000000000F0010000010271100120170830000101 00000000000000000000000000000000000000000000000000000000000000000000000000000000000000000000000000000000000000000N 00000000000NCONT   00    00000000000          00000000000000000000000000000000000000000000 000000000000000A000000000000000000000000000000000000000000000 000000000000000000000000000000000000000     00000000                                                                                                                        000000000000000000
F0010000010271100002000083008772100041450500000000000000000201708300002001ILUMEC SAS                                        C000000000950000000000000000000000100010010000000000000000000000F0010000010271100220170830000101 00000000000000000000000000000000000000000000000000000000000000000000000000000000000000000000000000000000000000000N 00000000000NCONT   00    00000000000          00000000000000000000000000000000000000000000 000000000000000A000000000000000000000000000000000000000000000 000000000000000000000000000000000000000     00000000                                                                                                                        000000000000000000
F0010000010271100003000083008772100042505000000000000000000201708300002001ILUMEC SAS                                        C000000000050000000000000000000000100010010000000000000000000000F0010000010271100320170830000101 00000000000000000000000000000000000000000000000000000000000000000000000000000000000000000000000000000000000000000N 00000000000NCONT   00    00000000000          00000000000000000000000000000000000000000000 000000000000000A000000000000000000000000000000000000000000000 000000000000000000000000000000000000000     00000000                                                                                                                        000000000000000000
F0010000010271100004000083008772100023658300000000000000000201708300002001ILUMEC SAS                                        C000000000000000000000000000000000100010010000000000000000000000F0010000010271100420170830000101 00000000000000000000000000000000000000000000000000000000000000000000000000000000000000000000000000000000000000000N 00000000000NCONT   00    00000000000          00000000000000000000000000000000000000000000 000000000000000A000000000000000000000000000000000000000000000 000000000000000000000000000000000000000     00000000                                                                                                                        000000000000000000
F0010000010271100005000083008772100013552100000000000000000201708300002001ILUMEC SAS                                        D000000000000000000000000000000000100010010000000000000000000000F0010000010271100520170830000101 00000000000000000000000000000000000000000000000000000000000000000000000000000000000000000000000000000000000000000N 00000000000NCONT   00    00000000000          00000000000000000000000000000000000000000000 000000000000000A000000000000000000000000000000000000000000000 000000000000000000000000000000000000000     00000000                                                                                                                        000000000000000000
F0010000010271200001000102390001700011050500000000000000000201708300002001LILIANA HERNANDEZ PINILLA                         D000000009800000000000000000000000100010010000000000000000000000F0010000010271200120170830000101 00000000000000000000000000000000000000000000000000000000000000000000000000000000000000000000000000000000000000000N 00000000000NCONT   00    00000000000          00000000000000000000000000000000000000000000 000000000000000A000000000000000000000000000000000000000000000 000000000000000000000000000000000000000     00000000                                                                                                                        000000000000000000
F0010000010271200002000102390001700041450500000000000000000201708300002001LILIANA HERNANDEZ PINILLA                         C000000007800000000000000000000000100010010000000000000000000000F0010000010271200220170830000101 00000000000000000000000000000000000000000000000000000000000000000000000000000000000000000000000000000000000000000N 00000000000NCONT   00    00000000000          00000000000000000000000000000000000000000000 000000000000000A000000000000000000000000000000000000000000000 000000000000000000000000000000000000000     00000000                                                                                                                        000000000000000000
F0010000010271200003000102390001700042505000000000000000000201708300002001LILIANA HERNANDEZ PINILLA                         C000000002000000000000000000000000100010010000000000000000000000F0010000010271200320170830000101 00000000000000000000000000000000000000000000000000000000000000000000000000000000000000000000000000000000000000000N 00000000000NCONT   00    00000000000          00000000000000000000000000000000000000000000 000000000000000A000000000000000000000000000000000000000000000 000000000000000000000000000000000000000     00000000                                                                                                                        000000000000000000
F0010000010271200004000102390001700023658300000000000000000201708300002001LILIANA HERNANDEZ PINILLA                         C000000000000000000000000000000000100010010000000000000000000000F0010000010271200420170830000101 00000000000000000000000000000000000000000000000000000000000000000000000000000000000000000000000000000000000000000N 00000000000NCONT   00    00000000000          00000000000000000000000000000000000000000000 000000000000000A000000000000000000000000000000000000000000000 000000000000000000000000000000000000000     00000000                                                                                                                        000000000000000000
F0010000010271200005000102390001700013552100000000000000000201708300002001LILIANA HERNANDEZ PINILLA                         D000000000000000000000000000000000100010010000000000000000000000F0010000010271200520170830000101 00000000000000000000000000000000000000000000000000000000000000000000000000000000000000000000000000000000000000000N 00000000000NCONT   00    00000000000          00000000000000000000000000000000000000000000 000000000000000A000000000000000000000000000000000000000000000 000000000000000000000000000000000000000     00000000                                                                                                                        000000000000000000
F0010000010271300001000102390001700011050500000000000000000201708300002001LILIANA HERNANDEZ PINILLA                         D000000018400000000000000000000000100010010000000000000000000000F0010000010271300120170830000101 00000000000000000000000000000000000000000000000000000000000000000000000000000000000000000000000000000000000000000N 00000000000NCONT   00    00000000000          00000000000000000000000000000000000000000000 000000000000000A000000000000000000000000000000000000000000000 000000000000000000000000000000000000000     00000000                                                                                                                        000000000000000000
F0010000010271300002000102390001700041450500000000000000000201708300002001LILIANA HERNANDEZ PINILLA                         C000000015400000000000000000000000100010010000000000000000000000F0010000010271300220170830000101 00000000000000000000000000000000000000000000000000000000000000000000000000000000000000000000000000000000000000000N 00000000000NCONT   00    00000000000          00000000000000000000000000000000000000000000 000000000000000A000000000000000000000000000000000000000000000 000000000000000000000000000000000000000     00000000                                                                                                                        000000000000000000
F0010000010271300003000102390001700042505000000000000000000201708300002001LILIANA HERNANDEZ PINILLA                         C000000003000000000000000000000000100010010000000000000000000000F0010000010271300320170830000101 00000000000000000000000000000000000000000000000000000000000000000000000000000000000000000000000000000000000000000N 00000000000NCONT   00    00000000000          00000000000000000000000000000000000000000000 000000000000000A000000000000000000000000000000000000000000000 000000000000000000000000000000000000000     00000000                                                                                                                        000000000000000000
F0010000010271300004000102390001700023658300000000000000000201708300002001LILIANA HERNANDEZ PINILLA                         C000000000000000000000000000000000100010010000000000000000000000F0010000010271300420170830000101 00000000000000000000000000000000000000000000000000000000000000000000000000000000000000000000000000000000000000000N 00000000000NCONT   00    00000000000          00000000000000000000000000000000000000000000 000000000000000A000000000000000000000000000000000000000000000 000000000000000000000000000000000000000     00000000                                                                                                                        000000000000000000
F0010000010271300005000102390001700013552100000000000000000201708300002001LILIANA HERNANDEZ PINILLA                         D000000000000000000000000000000000100010010000000000000000000000F0010000010271300520170830000101 00000000000000000000000000000000000000000000000000000000000000000000000000000000000000000000000000000000000000000N 00000000000NCONT   00    00000000000          00000000000000000000000000000000000000000000 000000000000000A000000000000000000000000000000000000000000000 000000000000000000000000000000000000000     00000000                                                                                                                        000000000000000000
F0010000010271400001000102390001700011050500000000000000000201708300002001LILIANA HERNANDEZ PINILLA                         D000000001600000000000000000000000100010010000000000000000000000F0010000010271400120170830000101 00000000000000000000000000000000000000000000000000000000000000000000000000000000000000000000000000000000000000000N 00000000000NCONT   00    00000000000          00000000000000000000000000000000000000000000 000000000000000A000000000000000000000000000000000000000000000 000000000000000000000000000000000000000     00000000                                                                                                                        000000000000000000
F0010000010271400002000102390001700041450500000000000000000201708300002001LILIANA HERNANDEZ PINILLA                         C000000001100000000000000000000000100010010000000000000000000000F0010000010271400220170830000101 00000000000000000000000000000000000000000000000000000000000000000000000000000000000000000000000000000000000000000N 00000000000NCONT   00    00000000000          00000000000000000000000000000000000000000000 000000000000000A000000000000000000000000000000000000000000000 000000000000000000000000000000000000000     00000000                                                                                                                        000000000000000000
F0010000010271400003000102390001700042505000000000000000000201708300002001LILIANA HERNANDEZ PINILLA                         C000000000500000000000000000000000100010010000000000000000000000F0010000010271400320170830000101 00000000000000000000000000000000000000000000000000000000000000000000000000000000000000000000000000000000000000000N 00000000000NCONT   00    00000000000          00000000000000000000000000000000000000000000 000000000000000A000000000000000000000000000000000000000000000 000000000000000000000000000000000000000     00000000                                                                                                                        000000000000000000
F0010000010271400004000102390001700023658300000000000000000201708300002001LILIANA HERNANDEZ PINILLA                         C000000000000000000000000000000000100010010000000000000000000000F0010000010271400420170830000101 00000000000000000000000000000000000000000000000000000000000000000000000000000000000000000000000000000000000000000N 00000000000NCONT   00    00000000000          00000000000000000000000000000000000000000000 000000000000000A000000000000000000000000000000000000000000000 000000000000000000000000000000000000000     00000000                                                                                                                        000000000000000000
F0010000010271400005000102390001700013552100000000000000000201708300002001LILIANA HERNANDEZ PINILLA                         D000000000000000000000000000000000100010010000000000000000000000F0010000010271400520170830000101 00000000000000000000000000000000000000000000000000000000000000000000000000000000000000000000000000000000000000000N 00000000000NCONT   00    00000000000          00000000000000000000000000000000000000000000 000000000000000A000000000000000000000000000000000000000000000 000000000000000000000000000000000000000     00000000                                                                                                                        000000000000000000
F0010000010271500001000102390001700011050500000000000000000201708300002001LILIANA HERNANDEZ PINILLA                         D000000005900000000000000000000000100010010000000000000000000000F0010000010271500120170830000101 00000000000000000000000000000000000000000000000000000000000000000000000000000000000000000000000000000000000000000N 00000000000NCONT   00    00000000000          00000000000000000000000000000000000000000000 000000000000000A000000000000000000000000000000000000000000000 000000000000000000000000000000000000000     00000000                                                                                                                        000000000000000000
F0010000010271500002000102390001700041450500000000000000000201708300002001LILIANA HERNANDEZ PINILLA                         C000000004400000000000000000000000100010010000000000000000000000F0010000010271500220170830000101 00000000000000000000000000000000000000000000000000000000000000000000000000000000000000000000000000000000000000000N 00000000000NCONT   00    00000000000          00000000000000000000000000000000000000000000 000000000000000A000000000000000000000000000000000000000000000 000000000000000000000000000000000000000     00000000                                                                                                                        000000000000000000
F0010000010271500003000102390001700042505000000000000000000201708300002001LILIANA HERNANDEZ PINILLA                         C000000001500000000000000000000000100010010000000000000000000000F0010000010271500320170830000101 00000000000000000000000000000000000000000000000000000000000000000000000000000000000000000000000000000000000000000N 00000000000NCONT   00    00000000000          00000000000000000000000000000000000000000000 000000000000000A000000000000000000000000000000000000000000000 000000000000000000000000000000000000000     00000000                                                                                                                        000000000000000000
F0010000010271500004000102390001700023658300000000000000000201708300002001LILIANA HERNANDEZ PINILLA                         C000000000000000000000000000000000100010010000000000000000000000F0010000010271500420170830000101 00000000000000000000000000000000000000000000000000000000000000000000000000000000000000000000000000000000000000000N 00000000000NCONT   00    00000000000          00000000000000000000000000000000000000000000 000000000000000A000000000000000000000000000000000000000000000 000000000000000000000000000000000000000     00000000                                                                                                                        000000000000000000
F0010000010271500005000102390001700013552100000000000000000201708300002001LILIANA HERNANDEZ PINILLA                         D000000000000000000000000000000000100010010000000000000000000000F0010000010271500520170830000101 00000000000000000000000000000000000000000000000000000000000000000000000000000000000000000000000000000000000000000N 00000000000NCONT   00    00000000000          00000000000000000000000000000000000000000000 000000000000000A000000000000000000000000000000000000000000000 000000000000000000000000000000000000000     00000000                                                                                                                        000000000000000000
F0010000010271600001000089010038800011050500000000000000000201708300002001CRISTALERIA SELMAN SAS                            D000000001300000000000000000000000100010010000000000000000000000F0010000010271600120170830000101 00000000000000000000000000000000000000000000000000000000000000000000000000000000000000000000000000000000000000000N 00000000000NCONT   00    00000000000          00000000000000000000000000000000000000000000 000000000000000A000000000000000000000000000000000000000000000 000000000000000000000000000000000000000     00000000                                                                                                                        000000000000000000
F0010000010271600002000089010038800041450500000000000000000201708300002001CRISTALERIA SELMAN SAS                            C000000001200000000000000000000000100010010000000000000000000000F0010000010271600220170830000101 00000000000000000000000000000000000000000000000000000000000000000000000000000000000000000000000000000000000000000N 00000000000NCONT   00    00000000000          00000000000000000000000000000000000000000000 000000000000000A000000000000000000000000000000000000000000000 000000000000000000000000000000000000000     00000000                                                                                                                        000000000000000000
F0010000010271600003000089010038800042505000000000000000000201708300002001CRISTALERIA SELMAN SAS                            C000000000100000000000000000000000100010010000000000000000000000F0010000010271600320170830000101 00000000000000000000000000000000000000000000000000000000000000000000000000000000000000000000000000000000000000000N 00000000000NCONT   00    00000000000          00000000000000000000000000000000000000000000 000000000000000A000000000000000000000000000000000000000000000 000000000000000000000000000000000000000     00000000                                                                                                                        000000000000000000
F0010000010271600004000089010038800023658300000000000000000201708300002001CRISTALERIA SELMAN SAS                            C000000000000000000000000000000000100010010000000000000000000000F0010000010271600420170830000101 00000000000000000000000000000000000000000000000000000000000000000000000000000000000000000000000000000000000000000N 00000000000NCONT   00    00000000000          00000000000000000000000000000000000000000000 000000000000000A000000000000000000000000000000000000000000000 000000000000000000000000000000000000000     00000000                                                                                                                        000000000000000000
F0010000010271600005000089010038800013552100000000000000000201708300002001CRISTALERIA SELMAN SAS                            D000000000000000000000000000000000100010010000000000000000000000F0010000010271600520170830000101 00000000000000000000000000000000000000000000000000000000000000000000000000000000000000000000000000000000000000000N 00000000000NCONT   00    00000000000          00000000000000000000000000000000000000000000 000000000000000A000000000000000000000000000000000000000000000 000000000000000000000000000000000000000     00000000                                                                                                                        000000000000000000
F0010000010271700001000000431178400011050500000000000000000201708300002001EFRAIN ALVAREZ                                    D000000000480000000000000000000000100010010000000000000000000000F0010000010271700120170830000101 00000000000000000000000000000000000000000000000000000000000000000000000000000000000000000000000000000000000000000N 00000000000NCONT   00    00000000000          00000000000000000000000000000000000000000000 000000000000000A000000000000000000000000000000000000000000000 000000000000000000000000000000000000000     00000000                                                                                                                        000000000000000000
F0010000010271700002000000431178400041450500000000000000000201708300002001EFRAIN ALVAREZ                                    C000000000430000000000000000000000100010010000000000000000000000F0010000010271700220170830000101 00000000000000000000000000000000000000000000000000000000000000000000000000000000000000000000000000000000000000000N 00000000000NCONT   00    00000000000          00000000000000000000000000000000000000000000 000000000000000A000000000000000000000000000000000000000000000 000000000000000000000000000000000000000     00000000                                                                                                                        000000000000000000
F0010000010271700003000000431178400042505000000000000000000201708300002001EFRAIN ALVAREZ                                    C000000000050000000000000000000000100010010000000000000000000000F0010000010271700320170830000101 00000000000000000000000000000000000000000000000000000000000000000000000000000000000000000000000000000000000000000N 00000000000NCONT   00    00000000000          00000000000000000000000000000000000000000000 000000000000000A000000000000000000000000000000000000000000000 000000000000000000000000000000000000000     00000000                                                                                                                        000000000000000000
F0010000010271700004000000431178400023658300000000000000000201708300002001EFRAIN ALVAREZ                                    C000000000000000000000000000000000100010010000000000000000000000F0010000010271700420170830000101 00000000000000000000000000000000000000000000000000000000000000000000000000000000000000000000000000000000000000000N 00000000000NCONT   00    00000000000          00000000000000000000000000000000000000000000 000000000000000A000000000000000000000000000000000000000000000 000000000000000000000000000000000000000     00000000                                                                                                                        000000000000000000
F0010000010271700005000000431178400013552100000000000000000201708300002001EFRAIN ALVAREZ                                    D000000000000000000000000000000000100010010000000000000000000000F0010000010271700520170830000101 00000000000000000000000000000000000000000000000000000000000000000000000000000000000000000000000000000000000000000N 00000000000NCONT   00    00000000000          00000000000000000000000000000000000000000000 000000000000000A000000000000000000000000000000000000000000000 000000000000000000000000000000000000000     00000000                                                                                                                        000000000000000000
F0010000010271800001000001022529300011050500000000000000000201708300002001ALBERTO ALVAREZ ISAZA                             D000000001760000000000000000000000100010010000000000000000000000F0010000010271800120170830000101 00000000000000000000000000000000000000000000000000000000000000000000000000000000000000000000000000000000000000000N 00000000000NCONT   00    00000000000          00000000000000000000000000000000000000000000 000000000000000A000000000000000000000000000000000000000000000 000000000000000000000000000000000000000     00000000                                                                                                                        000000000000000000
F0010000010271800002000001022529300041450500000000000000000201708300002001ALBERTO ALVAREZ ISAZA                             C000000001760000000000000000000000100010010000000000000000000000F0010000010271800220170830000101 00000000000000000000000000000000000000000000000000000000000000000000000000000000000000000000000000000000000000000N 00000000000NCONT   00    00000000000          00000000000000000000000000000000000000000000 000000000000000A000000000000000000000000000000000000000000000 000000000000000000000000000000000000000     00000000                                                                                                                        000000000000000000
F0010000010271800003000001022529300042505000000000000000000201708300002001ALBERTO ALVAREZ ISAZA                             C000000000000000000000000000000000100010010000000000000000000000F0010000010271800320170830000101 00000000000000000000000000000000000000000000000000000000000000000000000000000000000000000000000000000000000000000N 00000000000NCONT   00    00000000000          00000000000000000000000000000000000000000000 000000000000000A000000000000000000000000000000000000000000000 000000000000000000000000000000000000000     00000000                                                                                                                        000000000000000000
F0010000010271800004000001022529300023658300000000000000000201708300002001ALBERTO ALVAREZ ISAZA                             C000000000000000000000000000000000100010010000000000000000000000F0010000010271800420170830000101 00000000000000000000000000000000000000000000000000000000000000000000000000000000000000000000000000000000000000000N 00000000000NCONT   00    00000000000          00000000000000000000000000000000000000000000 000000000000000A000000000000000000000000000000000000000000000 000000000000000000000000000000000000000     00000000                                                                                                                        000000000000000000
F0010000010271800005000001022529300013552100000000000000000201708300002001ALBERTO ALVAREZ ISAZA                             D000000000000000000000000000000000100010010000000000000000000000F0010000010271800520170830000101 00000000000000000000000000000000000000000000000000000000000000000000000000000000000000000000000000000000000000000N 00000000000NCONT   00    00000000000          00000000000000000000000000000000000000000000 000000000000000A000000000000000000000000000000000000000000000 000000000000000000000000000000000000000     00000000                                                                                                                        000000000000000000
F0010000010271900001000001022529300011050500000000000000000201708300002001ALBERTO ALVAREZ ISAZA                             D000000001760000000000000000000000100010010000000000000000000000F0010000010271900120170830000101 00000000000000000000000000000000000000000000000000000000000000000000000000000000000000000000000000000000000000000N 00000000000NCONT   00    00000000000          00000000000000000000000000000000000000000000 000000000000000A000000000000000000000000000000000000000000000 000000000000000000000000000000000000000     00000000                                                                                                                        000000000000000000
F0010000010271900002000001022529300041450500000000000000000201708300002001ALBERTO ALVAREZ ISAZA                             C000000001760000000000000000000000100010010000000000000000000000F0010000010271900220170830000101 00000000000000000000000000000000000000000000000000000000000000000000000000000000000000000000000000000000000000000N 00000000000NCONT   00    00000000000          00000000000000000000000000000000000000000000 000000000000000A000000000000000000000000000000000000000000000 000000000000000000000000000000000000000     00000000                                                                                                                        000000000000000000
F0010000010271900003000001022529300042505000000000000000000201708300002001ALBERTO ALVAREZ ISAZA                             C000000000000000000000000000000000100010010000000000000000000000F0010000010271900320170830000101 00000000000000000000000000000000000000000000000000000000000000000000000000000000000000000000000000000000000000000N 00000000000NCONT   00    00000000000          00000000000000000000000000000000000000000000 000000000000000A000000000000000000000000000000000000000000000 000000000000000000000000000000000000000     00000000                                                                                                                        000000000000000000
F0010000010271900004000001022529300023658300000000000000000201708300002001ALBERTO ALVAREZ ISAZA                             C000000000000000000000000000000000100010010000000000000000000000F0010000010271900420170830000101 00000000000000000000000000000000000000000000000000000000000000000000000000000000000000000000000000000000000000000N 00000000000NCONT   00    00000000000          00000000000000000000000000000000000000000000 000000000000000A000000000000000000000000000000000000000000000 000000000000000000000000000000000000000     00000000                                                                                                                        000000000000000000
F0010000010271900005000001022529300013552100000000000000000201708300002001ALBERTO ALVAREZ ISAZA                             D000000000000000000000000000000000100010010000000000000000000000F0010000010271900520170830000101 00000000000000000000000000000000000000000000000000000000000000000000000000000000000000000000000000000000000000000N 00000000000NCONT   00    00000000000          00000000000000000000000000000000000000000000 000000000000000A000000000000000000000000000000000000000000000 000000000000000000000000000000000000000     00000000                                                                                                                        000000000000000000
F0010000010272000001000001022529300011050500000000000000000201708300002001ALBERTO ALVAREZ ISAZA                             D000000000350000000000000000000000100010010000000000000000000000F0010000010272000120170830000101 00000000000000000000000000000000000000000000000000000000000000000000000000000000000000000000000000000000000000000N 00000000000NCONT   00    00000000000          00000000000000000000000000000000000000000000 000000000000000A000000000000000000000000000000000000000000000 000000000000000000000000000000000000000     00000000                                                                                                                        000000000000000000
F0010000010272000002000001022529300041450500000000000000000201708300002001ALBERTO ALVAREZ ISAZA                             C000000000350000000000000000000000100010010000000000000000000000F0010000010272000220170830000101 00000000000000000000000000000000000000000000000000000000000000000000000000000000000000000000000000000000000000000N 00000000000NCONT   00    00000000000          00000000000000000000000000000000000000000000 000000000000000A000000000000000000000000000000000000000000000 000000000000000000000000000000000000000     00000000                                                                                                                        000000000000000000
F0010000010272000003000001022529300042505000000000000000000201708300002001ALBERTO ALVAREZ ISAZA                             C000000000000000000000000000000000100010010000000000000000000000F0010000010272000320170830000101 00000000000000000000000000000000000000000000000000000000000000000000000000000000000000000000000000000000000000000N 00000000000NCONT   00    00000000000          00000000000000000000000000000000000000000000 000000000000000A000000000000000000000000000000000000000000000 000000000000000000000000000000000000000     00000000                                                                                                                        000000000000000000
F0010000010272000004000001022529300023658300000000000000000201708300002001ALBERTO ALVAREZ ISAZA                             C000000000000000000000000000000000100010010000000000000000000000F0010000010272000420170830000101 00000000000000000000000000000000000000000000000000000000000000000000000000000000000000000000000000000000000000000N 00000000000NCONT   00    00000000000          00000000000000000000000000000000000000000000 000000000000000A000000000000000000000000000000000000000000000 000000000000000000000000000000000000000     00000000                                                                                                                        000000000000000000
F0010000010272000005000001022529300013552100000000000000000201708300002001ALBERTO ALVAREZ ISAZA                             D000000000000000000000000000000000100010010000000000000000000000F0010000010272000520170830000101 00000000000000000000000000000000000000000000000000000000000000000000000000000000000000000000000000000000000000000N 00000000000NCONT   00    00000000000          00000000000000000000000000000000000000000000 000000000000000A000000000000000000000000000000000000000000000 000000000000000000000000000000000000000     00000000                                                                                                                        000000000000000000
F0010000010272100001000001022529300011050500000000000000000201708300002001ALBERTO ALVAREZ ISAZA                             D000000000350000000000000000000000100010010000000000000000000000F0010000010272100120170830000101 00000000000000000000000000000000000000000000000000000000000000000000000000000000000000000000000000000000000000000N 00000000000NCONT   00    00000000000          00000000000000000000000000000000000000000000 000000000000000A000000000000000000000000000000000000000000000 000000000000000000000000000000000000000     00000000                                                                                                                        000000000000000000
F0010000010272100002000001022529300041450500000000000000000201708300002001ALBERTO ALVAREZ ISAZA                             C000000000350000000000000000000000100010010000000000000000000000F0010000010272100220170830000101 00000000000000000000000000000000000000000000000000000000000000000000000000000000000000000000000000000000000000000N 00000000000NCONT   00    00000000000          00000000000000000000000000000000000000000000 000000000000000A000000000000000000000000000000000000000000000 000000000000000000000000000000000000000     00000000                                                                                                                        000000000000000000
F0010000010272100003000001022529300042505000000000000000000201708300002001ALBERTO ALVAREZ ISAZA                             C000000000000000000000000000000000100010010000000000000000000000F0010000010272100320170830000101 00000000000000000000000000000000000000000000000000000000000000000000000000000000000000000000000000000000000000000N 00000000000NCONT   00    00000000000          00000000000000000000000000000000000000000000 000000000000000A000000000000000000000000000000000000000000000 000000000000000000000000000000000000000     00000000                                                                                                                        000000000000000000
F0010000010272100004000001022529300023658300000000000000000201708300002001ALBERTO ALVAREZ ISAZA                             C000000000000000000000000000000000100010010000000000000000000000F0010000010272100420170830000101 00000000000000000000000000000000000000000000000000000000000000000000000000000000000000000000000000000000000000000N 00000000000NCONT   00    00000000000          00000000000000000000000000000000000000000000 000000000000000A000000000000000000000000000000000000000000000 000000000000000000000000000000000000000     00000000                                                                                                                        000000000000000000
F0010000010272100005000001022529300013552100000000000000000201708300002001ALBERTO ALVAREZ ISAZA                             D000000000000000000000000000000000100010010000000000000000000000F0010000010272100520170830000101 00000000000000000000000000000000000000000000000000000000000000000000000000000000000000000000000000000000000000000N 00000000000NCONT   00    00000000000          00000000000000000000000000000000000000000000 000000000000000A000000000000000000000000000000000000000000000 000000000000000000000000000000000000000     00000000                                                                                                                        000000000000000000
F0010000010272200001000001022529300011050500000000000000000201708300002001ALBERTO ALVAREZ ISAZA                             D000000000350000000000000000000000100010010000000000000000000000F0010000010272200120170830000101 00000000000000000000000000000000000000000000000000000000000000000000000000000000000000000000000000000000000000000N 00000000000NCONT   00    00000000000          00000000000000000000000000000000000000000000 000000000000000A000000000000000000000000000000000000000000000 000000000000000000000000000000000000000     00000000                                                                                                                        000000000000000000
F0010000010272200002000001022529300041450500000000000000000201708300002001ALBERTO ALVAREZ ISAZA                             C000000000350000000000000000000000100010010000000000000000000000F0010000010272200220170830000101 00000000000000000000000000000000000000000000000000000000000000000000000000000000000000000000000000000000000000000N 00000000000NCONT   00    00000000000          00000000000000000000000000000000000000000000 000000000000000A000000000000000000000000000000000000000000000 000000000000000000000000000000000000000     00000000                                                                                                                        000000000000000000
