F0010000008711700001000090051494400011050500000000000000000201606120002001MUNDINOX SAS                                      D000000001770000000000000000000000100010010000000000000000000000F0010000008711700120160612000101 00000000000000000000000000000000000000000000000000000000000000000000000000000000000000000000000000000000000000000N 00000000000NCONT   00    00000000000          00000000000000000000000000000000000000000000 000000000000000A000000000000000000000000000000000000000000000 000000000000000000000000000000000000000     00000000                                                                                                                        000000000000000000
F0010000008711700002000090051494400041450500000000000000000201606120002001MUNDINOX SAS                                      C000000001470000000000000000000000100010010000000000000000000000F0010000008711700220160612000101 00000000000000000000000000000000000000000000000000000000000000000000000000000000000000000000000000000000000000000N 00000000000NCONT   00    00000000000          00000000000000000000000000000000000000000000 000000000000000A000000000000000000000000000000000000000000000 000000000000000000000000000000000000000     00000000                                                                                                                        000000000000000000
F0010000008711700003000090051494400042505000000000000000000201606120002001MUNDINOX SAS                                      C000000000300000000000000000000000100010010000000000000000000000F0010000008711700320160612000101 00000000000000000000000000000000000000000000000000000000000000000000000000000000000000000000000000000000000000000N 00000000000NCONT   00    00000000000          00000000000000000000000000000000000000000000 000000000000000A000000000000000000000000000000000000000000000 000000000000000000000000000000000000000     00000000                                                                                                                        000000000000000000
F0010000008711700004000090051494400023658300000000000000000201606120002001MUNDINOX SAS                                      C000000000011800000000000000000000100010010000000000000000000000F0010000008711700420160612000101 00000000000000000000000000000000000000000000000000000000000000000000000000000000000000000000000000000000000000000N 00000000000NCONT   00    00000000000          00000000000000000000000000000000000000000000 000000000000000A000000000000000000000000000000000000000000000 000000000000000000000000000000000000000     00000000                                                                                                                        000000000000000000
F0010000008711700005000090051494400013552100000000000000000201606120002001MUNDINOX SAS                                      D000000000011800000000000000000000100010010000000000000000000000F0010000008711700520160612000101 00000000000000000000000000000000000000000000000000000000000000000000000000000000000000000000000000000000000000000N 00000000000NCONT   00    00000000000          00000000000000000000000000000000000000000000 000000000000000A000000000000000000000000000000000000000000000 000000000000000000000000000000000000000     00000000                                                                                                                        000000000000000000
