F0010000008973500001000000257193600011050500000000000000000201608100002001DISTRIBUCIONES YALY                               D000000002600000000000000000000000100010010000000000000000000000F0010000008973500120160810000101 00000000000000000000000000000000000000000000000000000000000000000000000000000000000000000000000000000000000000000N 00000000000NCONT   00    00000000000          00000000000000000000000000000000000000000000 000000000000000A000000000000000000000000000000000000000000000 000000000000000000000000000000000000000     00000000                                                                                                                        000000000000000000
F0010000008973500002000000257193600041450500000000000000000201608100002001DISTRIBUCIONES YALY                               C000000002000000000000000000000000100010010000000000000000000000F0010000008973500220160810000101 00000000000000000000000000000000000000000000000000000000000000000000000000000000000000000000000000000000000000000N 00000000000NCONT   00    00000000000          00000000000000000000000000000000000000000000 000000000000000A000000000000000000000000000000000000000000000 000000000000000000000000000000000000000     00000000                                                                                                                        000000000000000000
F0010000008973500003000000257193600042505000000000000000000201608100002001DISTRIBUCIONES YALY                               C000000000600000000000000000000000100010010000000000000000000000F0010000008973500320160810000101 00000000000000000000000000000000000000000000000000000000000000000000000000000000000000000000000000000000000000000N 00000000000NCONT   00    00000000000          00000000000000000000000000000000000000000000 000000000000000A000000000000000000000000000000000000000000000 000000000000000000000000000000000000000     00000000                                                                                                                        000000000000000000
F0010000008973500004000000257193600023658300000000000000000201608100002001DISTRIBUCIONES YALY                               C000000000016000000000000000000000100010010000000000000000000000F0010000008973500420160810000101 00000000000000000000000000000000000000000000000000000000000000000000000000000000000000000000000000000000000000000N 00000000000NCONT   00    00000000000          00000000000000000000000000000000000000000000 000000000000000A000000000000000000000000000000000000000000000 000000000000000000000000000000000000000     00000000                                                                                                                        000000000000000000
F0010000008973500005000000257193600013552100000000000000000201608100002001DISTRIBUCIONES YALY                               D000000000016000000000000000000000100010010000000000000000000000F0010000008973500520160810000101 00000000000000000000000000000000000000000000000000000000000000000000000000000000000000000000000000000000000000000N 00000000000NCONT   00    00000000000          00000000000000000000000000000000000000000000 000000000000000A000000000000000000000000000000000000000000000 000000000000000000000000000000000000000     00000000                                                                                                                        000000000000000000
F0010000008973600001000000257193600011050500000000000000000201608100002001DISTRIBUCIONES YALY                               D000000001350000000000000000000000100010010000000000000000000000F0010000008973600120160810000101 00000000000000000000000000000000000000000000000000000000000000000000000000000000000000000000000000000000000000000N 00000000000NCONT   00    00000000000          00000000000000000000000000000000000000000000 000000000000000A000000000000000000000000000000000000000000000 000000000000000000000000000000000000000     00000000                                                                                                                        000000000000000000
F0010000008973600002000000257193600041450500000000000000000201608100002001DISTRIBUCIONES YALY                               C000000001000000000000000000000000100010010000000000000000000000F0010000008973600220160810000101 00000000000000000000000000000000000000000000000000000000000000000000000000000000000000000000000000000000000000000N 00000000000NCONT   00    00000000000          00000000000000000000000000000000000000000000 000000000000000A000000000000000000000000000000000000000000000 000000000000000000000000000000000000000     00000000                                                                                                                        000000000000000000
F0010000008973600003000000257193600042505000000000000000000201608100002001DISTRIBUCIONES YALY                               C000000000350000000000000000000000100010010000000000000000000000F0010000008973600320160810000101 00000000000000000000000000000000000000000000000000000000000000000000000000000000000000000000000000000000000000000N 00000000000NCONT   00    00000000000          00000000000000000000000000000000000000000000 000000000000000A000000000000000000000000000000000000000000000 000000000000000000000000000000000000000     00000000                                                                                                                        000000000000000000
F0010000008973600004000000257193600023658300000000000000000201608100002001DISTRIBUCIONES YALY                               C000000000008000000000000000000000100010010000000000000000000000F0010000008973600420160810000101 00000000000000000000000000000000000000000000000000000000000000000000000000000000000000000000000000000000000000000N 00000000000NCONT   00    00000000000          00000000000000000000000000000000000000000000 000000000000000A000000000000000000000000000000000000000000000 000000000000000000000000000000000000000     00000000                                                                                                                        000000000000000000
F0010000008973600005000000257193600013552100000000000000000201608100002001DISTRIBUCIONES YALY                               D000000000008000000000000000000000100010010000000000000000000000F0010000008973600520160810000101 00000000000000000000000000000000000000000000000000000000000000000000000000000000000000000000000000000000000000000N 00000000000NCONT   00    00000000000          00000000000000000000000000000000000000000000 000000000000000A000000000000000000000000000000000000000000000 000000000000000000000000000000000000000     00000000                                                                                                                        000000000000000000
F0010000008973700001000080018337600011050500000000000000000201608100002001CENTRO FERRETERO INDUSTRIAL S.A.S                 D000000008350000000000000000000000100010010000000000000000000000F0010000008973700120160810000101 00000000000000000000000000000000000000000000000000000000000000000000000000000000000000000000000000000000000000000N 00000000000NCONT   00    00000000000          00000000000000000000000000000000000000000000 000000000000000A000000000000000000000000000000000000000000000 000000000000000000000000000000000000000     00000000                                                                                                                        000000000000000000
F0010000008973700002000080018337600041450500000000000000000201608100002001CENTRO FERRETERO INDUSTRIAL S.A.S                 C000000008000000000000000000000000100010010000000000000000000000F0010000008973700220160810000101 00000000000000000000000000000000000000000000000000000000000000000000000000000000000000000000000000000000000000000N 00000000000NCONT   00    00000000000          00000000000000000000000000000000000000000000 000000000000000A000000000000000000000000000000000000000000000 000000000000000000000000000000000000000     00000000                                                                                                                        000000000000000000
F0010000008973700003000080018337600042505000000000000000000201608100002001CENTRO FERRETERO INDUSTRIAL S.A.S                 C000000000350000000000000000000000100010010000000000000000000000F0010000008973700320160810000101 00000000000000000000000000000000000000000000000000000000000000000000000000000000000000000000000000000000000000000N 00000000000NCONT   00    00000000000          00000000000000000000000000000000000000000000 000000000000000A000000000000000000000000000000000000000000000 000000000000000000000000000000000000000     00000000                                                                                                                        000000000000000000
F0010000008973700004000080018337600023658300000000000000000201608100002001CENTRO FERRETERO INDUSTRIAL S.A.S                 C000000000064000000000000000000000100010010000000000000000000000F0010000008973700420160810000101 00000000000000000000000000000000000000000000000000000000000000000000000000000000000000000000000000000000000000000N 00000000000NCONT   00    00000000000          00000000000000000000000000000000000000000000 000000000000000A000000000000000000000000000000000000000000000 000000000000000000000000000000000000000     00000000                                                                                                                        000000000000000000
F0010000008973700005000080018337600013552100000000000000000201608100002001CENTRO FERRETERO INDUSTRIAL S.A.S                 D000000000064000000000000000000000100010010000000000000000000000F0010000008973700520160810000101 00000000000000000000000000000000000000000000000000000000000000000000000000000000000000000000000000000000000000000N 00000000000NCONT   00    00000000000          00000000000000000000000000000000000000000000 000000000000000A000000000000000000000000000000000000000000000 000000000000000000000000000000000000000     00000000                                                                                                                        000000000000000000
F0010000008973800001000086053108300011050500000000000000000201608100002001EL PALACIO DEL ALUMINIO  LTDA                     D000000021600000000000000000000000100010010000000000000000000000F0010000008973800120160810000101 00000000000000000000000000000000000000000000000000000000000000000000000000000000000000000000000000000000000000000N 00000000000NCONT   00    00000000000          00000000000000000000000000000000000000000000 000000000000000A000000000000000000000000000000000000000000000 000000000000000000000000000000000000000     00000000                                                                                                                        000000000000000000
F0010000008973800002000086053108300041450500000000000000000201608100002001EL PALACIO DEL ALUMINIO  LTDA                     C000000018058700000000000000000000100010010000000000000000000000F0010000008973800220160810000101 00000000000000000000000000000000000000000000000000000000000000000000000000000000000000000000000000000000000000000N 00000000000NCONT   00    00000000000          00000000000000000000000000000000000000000000 000000000000000A000000000000000000000000000000000000000000000 000000000000000000000000000000000000000     00000000                                                                                                                        000000000000000000
F0010000008973800003000086053108300042505000000000000000000201608100002001EL PALACIO DEL ALUMINIO  LTDA                     C000000003541300000000000000000000100010010000000000000000000000F0010000008973800320160810000101 00000000000000000000000000000000000000000000000000000000000000000000000000000000000000000000000000000000000000000N 00000000000NCONT   00    00000000000          00000000000000000000000000000000000000000000 000000000000000A000000000000000000000000000000000000000000000 000000000000000000000000000000000000000     00000000                                                                                                                        000000000000000000
F0010000008973800004000086053108300023658300000000000000000201608100002001EL PALACIO DEL ALUMINIO  LTDA                     C000000000144500000000000000000000100010010000000000000000000000F0010000008973800420160810000101 00000000000000000000000000000000000000000000000000000000000000000000000000000000000000000000000000000000000000000N 00000000000NCONT   00    00000000000          00000000000000000000000000000000000000000000 000000000000000A000000000000000000000000000000000000000000000 000000000000000000000000000000000000000     00000000                                                                                                                        000000000000000000
F0010000008973800005000086053108300013552100000000000000000201608100002001EL PALACIO DEL ALUMINIO  LTDA                     D000000000144500000000000000000000100010010000000000000000000000F0010000008973800520160810000101 00000000000000000000000000000000000000000000000000000000000000000000000000000000000000000000000000000000000000000N 00000000000NCONT   00    00000000000          00000000000000000000000000000000000000000000 000000000000000A000000000000000000000000000000000000000000000 000000000000000000000000000000000000000     00000000                                                                                                                        000000000000000000
F0010000008973900001000000856527900011050500000000000000000201608100002001CESAR MIER BUELVAS                                D000000001100000000000000000000000100010010000000000000000000000F0010000008973900120160810000101 00000000000000000000000000000000000000000000000000000000000000000000000000000000000000000000000000000000000000000N 00000000000NCONT   00    00000000000          00000000000000000000000000000000000000000000 000000000000000A000000000000000000000000000000000000000000000 000000000000000000000000000000000000000     00000000                                                                                                                        000000000000000000
F0010000008973900002000000856527900041450500000000000000000201608100002001CESAR MIER BUELVAS                                C000000001000000000000000000000000100010010000000000000000000000F0010000008973900220160810000101 00000000000000000000000000000000000000000000000000000000000000000000000000000000000000000000000000000000000000000N 00000000000NCONT   00    00000000000          00000000000000000000000000000000000000000000 000000000000000A000000000000000000000000000000000000000000000 000000000000000000000000000000000000000     00000000                                                                                                                        000000000000000000
F0010000008973900003000000856527900042505000000000000000000201608100002001CESAR MIER BUELVAS                                C000000000100000000000000000000000100010010000000000000000000000F0010000008973900320160810000101 00000000000000000000000000000000000000000000000000000000000000000000000000000000000000000000000000000000000000000N 00000000000NCONT   00    00000000000          00000000000000000000000000000000000000000000 000000000000000A000000000000000000000000000000000000000000000 000000000000000000000000000000000000000     00000000                                                                                                                        000000000000000000
F0010000008973900004000000856527900023658300000000000000000201608100002001CESAR MIER BUELVAS                                C000000000008000000000000000000000100010010000000000000000000000F0010000008973900420160810000101 00000000000000000000000000000000000000000000000000000000000000000000000000000000000000000000000000000000000000000N 00000000000NCONT   00    00000000000          00000000000000000000000000000000000000000000 000000000000000A000000000000000000000000000000000000000000000 000000000000000000000000000000000000000     00000000                                                                                                                        000000000000000000
F0010000008973900005000000856527900013552100000000000000000201608100002001CESAR MIER BUELVAS                                D000000000008000000000000000000000100010010000000000000000000000F0010000008973900520160810000101 00000000000000000000000000000000000000000000000000000000000000000000000000000000000000000000000000000000000000000N 00000000000NCONT   00    00000000000          00000000000000000000000000000000000000000000 000000000000000A000000000000000000000000000000000000000000000 000000000000000000000000000000000000000     00000000                                                                                                                        000000000000000000
F0010000008974000001000000856527900011050500000000000000000201608100002001CESAR MIER BUELVAS                                D000000001200000000000000000000000100010010000000000000000000000F0010000008974000120160810000101 00000000000000000000000000000000000000000000000000000000000000000000000000000000000000000000000000000000000000000N 00000000000NCONT   00    00000000000          00000000000000000000000000000000000000000000 000000000000000A000000000000000000000000000000000000000000000 000000000000000000000000000000000000000     00000000                                                                                                                        000000000000000000
F0010000008974000002000000856527900041450500000000000000000201608100002001CESAR MIER BUELVAS                                C000000001100000000000000000000000100010010000000000000000000000F0010000008974000220160810000101 00000000000000000000000000000000000000000000000000000000000000000000000000000000000000000000000000000000000000000N 00000000000NCONT   00    00000000000          00000000000000000000000000000000000000000000 000000000000000A000000000000000000000000000000000000000000000 000000000000000000000000000000000000000     00000000                                                                                                                        000000000000000000
F0010000008974000003000000856527900042505000000000000000000201608100002001CESAR MIER BUELVAS                                C000000000100000000000000000000000100010010000000000000000000000F0010000008974000320160810000101 00000000000000000000000000000000000000000000000000000000000000000000000000000000000000000000000000000000000000000N 00000000000NCONT   00    00000000000          00000000000000000000000000000000000000000000 000000000000000A000000000000000000000000000000000000000000000 000000000000000000000000000000000000000     00000000                                                                                                                        000000000000000000
F0010000008974000004000000856527900023658300000000000000000201608100002001CESAR MIER BUELVAS                                C000000000008800000000000000000000100010010000000000000000000000F0010000008974000420160810000101 00000000000000000000000000000000000000000000000000000000000000000000000000000000000000000000000000000000000000000N 00000000000NCONT   00    00000000000          00000000000000000000000000000000000000000000 000000000000000A000000000000000000000000000000000000000000000 000000000000000000000000000000000000000     00000000                                                                                                                        000000000000000000
F0010000008974000005000000856527900013552100000000000000000201608100002001CESAR MIER BUELVAS                                D000000000008800000000000000000000100010010000000000000000000000F0010000008974000520160810000101 00000000000000000000000000000000000000000000000000000000000000000000000000000000000000000000000000000000000000000N 00000000000NCONT   00    00000000000          00000000000000000000000000000000000000000000 000000000000000A000000000000000000000000000000000000000000000 000000000000000000000000000000000000000     00000000                                                                                                                        000000000000000000
F0010000008974100001000000257193600011050500000000000000000201608100002001DISTRIBUCIONES YALY                               D000000004800000000000000000000000100010010000000000000000000000F0010000008974100120160810000101 00000000000000000000000000000000000000000000000000000000000000000000000000000000000000000000000000000000000000000N 00000000000NCONT   00    00000000000          00000000000000000000000000000000000000000000 000000000000000A000000000000000000000000000000000000000000000 000000000000000000000000000000000000000     00000000                                                                                                                        000000000000000000
F0010000008974100002000000257193600041450500000000000000000201608100002001DISTRIBUCIONES YALY                               C000000004200000000000000000000000100010010000000000000000000000F0010000008974100220160810000101 00000000000000000000000000000000000000000000000000000000000000000000000000000000000000000000000000000000000000000N 00000000000NCONT   00    00000000000          00000000000000000000000000000000000000000000 000000000000000A000000000000000000000000000000000000000000000 000000000000000000000000000000000000000     00000000                                                                                                                        000000000000000000
F0010000008974100003000000257193600042505000000000000000000201608100002001DISTRIBUCIONES YALY                               C000000000600000000000000000000000100010010000000000000000000000F0010000008974100320160810000101 00000000000000000000000000000000000000000000000000000000000000000000000000000000000000000000000000000000000000000N 00000000000NCONT   00    00000000000          00000000000000000000000000000000000000000000 000000000000000A000000000000000000000000000000000000000000000 000000000000000000000000000000000000000     00000000                                                                                                                        000000000000000000
F0010000008974100004000000257193600023658300000000000000000201608100002001DISTRIBUCIONES YALY                               C000000000033600000000000000000000100010010000000000000000000000F0010000008974100420160810000101 00000000000000000000000000000000000000000000000000000000000000000000000000000000000000000000000000000000000000000N 00000000000NCONT   00    00000000000          00000000000000000000000000000000000000000000 000000000000000A000000000000000000000000000000000000000000000 000000000000000000000000000000000000000     00000000                                                                                                                        000000000000000000
F0010000008974100005000000257193600013552100000000000000000201608100002001DISTRIBUCIONES YALY                               D000000000033600000000000000000000100010010000000000000000000000F0010000008974100520160810000101 00000000000000000000000000000000000000000000000000000000000000000000000000000000000000000000000000000000000000000N 00000000000NCONT   00    00000000000          00000000000000000000000000000000000000000000 000000000000000A000000000000000000000000000000000000000000000 000000000000000000000000000000000000000     00000000                                                                                                                        000000000000000000
F0010000008974200001000000871573200011050500000000000000000201608100002001ACCESORIAS ARQUITECTONI KJ                        D000000001900000000000000000000000100010010000000000000000000000F0010000008974200120160810000101 00000000000000000000000000000000000000000000000000000000000000000000000000000000000000000000000000000000000000000N 00000000000NCONT   00    00000000000          00000000000000000000000000000000000000000000 000000000000000A000000000000000000000000000000000000000000000 000000000000000000000000000000000000000     00000000                                                                                                                        000000000000000000
F0010000008974200002000000871573200041450500000000000000000201608100002001ACCESORIAS ARQUITECTONI KJ                        C000000001000000000000000000000000100010010000000000000000000000F0010000008974200220160810000101 00000000000000000000000000000000000000000000000000000000000000000000000000000000000000000000000000000000000000000N 00000000000NCONT   00    00000000000          00000000000000000000000000000000000000000000 000000000000000A000000000000000000000000000000000000000000000 000000000000000000000000000000000000000     00000000                                                                                                                        000000000000000000
F0010000008974200003000000871573200042505000000000000000000201608100002001ACCESORIAS ARQUITECTONI KJ                        C000000000900000000000000000000000100010010000000000000000000000F0010000008974200320160810000101 00000000000000000000000000000000000000000000000000000000000000000000000000000000000000000000000000000000000000000N 00000000000NCONT   00    00000000000          00000000000000000000000000000000000000000000 000000000000000A000000000000000000000000000000000000000000000 000000000000000000000000000000000000000     00000000                                                                                                                        000000000000000000
F0010000008974200004000000871573200023658300000000000000000201608100002001ACCESORIAS ARQUITECTONI KJ                        C000000000008000000000000000000000100010010000000000000000000000F0010000008974200420160810000101 00000000000000000000000000000000000000000000000000000000000000000000000000000000000000000000000000000000000000000N 00000000000NCONT   00    00000000000          00000000000000000000000000000000000000000000 000000000000000A000000000000000000000000000000000000000000000 000000000000000000000000000000000000000     00000000                                                                                                                        000000000000000000
F0010000008974200005000000871573200013552100000000000000000201608100002001ACCESORIAS ARQUITECTONI KJ                        D000000000008000000000000000000000100010010000000000000000000000F0010000008974200520160810000101 00000000000000000000000000000000000000000000000000000000000000000000000000000000000000000000000000000000000000000N 00000000000NCONT   00    00000000000          00000000000000000000000000000000000000000000 000000000000000A000000000000000000000000000000000000000000000 000000000000000000000000000000000000000     00000000                                                                                                                        000000000000000000
F0010000008974300001000000871573200011050500000000000000000201608100002001ACCESORIAS ARQUITECTONI KJ                        D000000001850000000000000000000000100010010000000000000000000000F0010000008974300120160810000101 00000000000000000000000000000000000000000000000000000000000000000000000000000000000000000000000000000000000000000N 00000000000NCONT   00    00000000000          00000000000000000000000000000000000000000000 000000000000000A000000000000000000000000000000000000000000000 000000000000000000000000000000000000000     00000000                                                                                                                        000000000000000000
F0010000008974300002000000871573200041450500000000000000000201608100002001ACCESORIAS ARQUITECTONI KJ                        C000000001200000000000000000000000100010010000000000000000000000F0010000008974300220160810000101 00000000000000000000000000000000000000000000000000000000000000000000000000000000000000000000000000000000000000000N 00000000000NCONT   00    00000000000          00000000000000000000000000000000000000000000 000000000000000A000000000000000000000000000000000000000000000 000000000000000000000000000000000000000     00000000                                                                                                                        000000000000000000
F0010000008974300003000000871573200042505000000000000000000201608100002001ACCESORIAS ARQUITECTONI KJ                        C000000000650000000000000000000000100010010000000000000000000000F0010000008974300320160810000101 00000000000000000000000000000000000000000000000000000000000000000000000000000000000000000000000000000000000000000N 00000000000NCONT   00    00000000000          00000000000000000000000000000000000000000000 000000000000000A000000000000000000000000000000000000000000000 000000000000000000000000000000000000000     00000000                                                                                                                        000000000000000000
F0010000008974300004000000871573200023658300000000000000000201608100002001ACCESORIAS ARQUITECTONI KJ                        C000000000009600000000000000000000100010010000000000000000000000F0010000008974300420160810000101 00000000000000000000000000000000000000000000000000000000000000000000000000000000000000000000000000000000000000000N 00000000000NCONT   00    00000000000          00000000000000000000000000000000000000000000 000000000000000A000000000000000000000000000000000000000000000 000000000000000000000000000000000000000     00000000                                                                                                                        000000000000000000
F0010000008974300005000000871573200013552100000000000000000201608100002001ACCESORIAS ARQUITECTONI KJ                        D000000000009600000000000000000000100010010000000000000000000000F0010000008974300520160810000101 00000000000000000000000000000000000000000000000000000000000000000000000000000000000000000000000000000000000000000N 00000000000NCONT   00    00000000000          00000000000000000000000000000000000000000000 000000000000000A000000000000000000000000000000000000000000000 000000000000000000000000000000000000000     00000000                                                                                                                        000000000000000000
F0010000008974400001000000871573200011050500000000000000000201608100002001ACCESORIAS ARQUITECTONI KJ                        D000000010300000000000000000000000100010010000000000000000000000F0010000008974400120160810000101 00000000000000000000000000000000000000000000000000000000000000000000000000000000000000000000000000000000000000000N 00000000000NCONT   00    00000000000          00000000000000000000000000000000000000000000 000000000000000A000000000000000000000000000000000000000000000 000000000000000000000000000000000000000     00000000                                                                                                                        000000000000000000
F0010000008974400002000000871573200041450500000000000000000201608100002001ACCESORIAS ARQUITECTONI KJ                        C000000006000000000000000000000000100010010000000000000000000000F0010000008974400220160810000101 00000000000000000000000000000000000000000000000000000000000000000000000000000000000000000000000000000000000000000N 00000000000NCONT   00    00000000000          00000000000000000000000000000000000000000000 000000000000000A000000000000000000000000000000000000000000000 000000000000000000000000000000000000000     00000000                                                                                                                        000000000000000000
F0010000008974400003000000871573200042505000000000000000000201608100002001ACCESORIAS ARQUITECTONI KJ                        C000000004300000000000000000000000100010010000000000000000000000F0010000008974400320160810000101 00000000000000000000000000000000000000000000000000000000000000000000000000000000000000000000000000000000000000000N 00000000000NCONT   00    00000000000          00000000000000000000000000000000000000000000 000000000000000A000000000000000000000000000000000000000000000 000000000000000000000000000000000000000     00000000                                                                                                                        000000000000000000
F0010000008974400004000000871573200023658300000000000000000201608100002001ACCESORIAS ARQUITECTONI KJ                        C000000000048000000000000000000000100010010000000000000000000000F0010000008974400420160810000101 00000000000000000000000000000000000000000000000000000000000000000000000000000000000000000000000000000000000000000N 00000000000NCONT   00    00000000000          00000000000000000000000000000000000000000000 000000000000000A000000000000000000000000000000000000000000000 000000000000000000000000000000000000000     00000000                                                                                                                        000000000000000000
F0010000008974400005000000871573200013552100000000000000000201608100002001ACCESORIAS ARQUITECTONI KJ                        D000000000048000000000000000000000100010010000000000000000000000F0010000008974400520160810000101 00000000000000000000000000000000000000000000000000000000000000000000000000000000000000000000000000000000000000000N 00000000000NCONT   00    00000000000          00000000000000000000000000000000000000000000 000000000000000A000000000000000000000000000000000000000000000 000000000000000000000000000000000000000     00000000                                                                                                                        000000000000000000
F0010000008974500001000000876579700011050500000000000000000201608100002001JOSE LUIS MUÑOZ                                  D000000001500000000000000000000000100010010000000000000000000000F0010000008974500120160810000101 00000000000000000000000000000000000000000000000000000000000000000000000000000000000000000000000000000000000000000N 00000000000NCONT   00    00000000000          00000000000000000000000000000000000000000000 000000000000000A000000000000000000000000000000000000000000000 000000000000000000000000000000000000000     00000000                                                                                                                        000000000000000000
F0010000008974500002000000876579700041450500000000000000000201608100002001JOSE LUIS MUÑOZ                                  C000000001300000000000000000000000100010010000000000000000000000F0010000008974500220160810000101 00000000000000000000000000000000000000000000000000000000000000000000000000000000000000000000000000000000000000000N 00000000000NCONT   00    00000000000          00000000000000000000000000000000000000000000 000000000000000A000000000000000000000000000000000000000000000 000000000000000000000000000000000000000     00000000                                                                                                                        000000000000000000
F0010000008974500003000000876579700042505000000000000000000201608100002001JOSE LUIS MUÑOZ                                  C000000000200000000000000000000000100010010000000000000000000000F0010000008974500320160810000101 00000000000000000000000000000000000000000000000000000000000000000000000000000000000000000000000000000000000000000N 00000000000NCONT   00    00000000000          00000000000000000000000000000000000000000000 000000000000000A000000000000000000000000000000000000000000000 000000000000000000000000000000000000000     00000000                                                                                                                        000000000000000000
F0010000008974500004000000876579700023658300000000000000000201608100002001JOSE LUIS MUÑOZ                                  C000000000010400000000000000000000100010010000000000000000000000F0010000008974500420160810000101 00000000000000000000000000000000000000000000000000000000000000000000000000000000000000000000000000000000000000000N 00000000000NCONT   00    00000000000          00000000000000000000000000000000000000000000 000000000000000A000000000000000000000000000000000000000000000 000000000000000000000000000000000000000     00000000                                                                                                                        000000000000000000
F0010000008974500005000000876579700013552100000000000000000201608100002001JOSE LUIS MUÑOZ                                  D000000000010400000000000000000000100010010000000000000000000000F0010000008974500520160810000101 00000000000000000000000000000000000000000000000000000000000000000000000000000000000000000000000000000000000000000N 00000000000NCONT   00    00000000000          00000000000000000000000000000000000000000000 000000000000000A000000000000000000000000000000000000000000000 000000000000000000000000000000000000000     00000000                                                                                                                        000000000000000000
F0010000008974600001000000870907300011050500000000000000000201608100002001SURTIDOR FERRETERO                                D000000007380000000000000000000000100010010000000000000000000000F0010000008974600120160810000101 00000000000000000000000000000000000000000000000000000000000000000000000000000000000000000000000000000000000000000N 00000000000NCONT   00    00000000000          00000000000000000000000000000000000000000000 000000000000000A000000000000000000000000000000000000000000000 000000000000000000000000000000000000000     00000000                                                                                                                        000000000000000000
F0010000008974600002000000870907300041450500000000000000000201608100002001SURTIDOR FERRETERO                                C000000005040000000000000000000000100010010000000000000000000000F0010000008974600220160810000101 00000000000000000000000000000000000000000000000000000000000000000000000000000000000000000000000000000000000000000N 00000000000NCONT   00    00000000000          00000000000000000000000000000000000000000000 000000000000000A000000000000000000000000000000000000000000000 000000000000000000000000000000000000000     00000000                                                                                                                        000000000000000000
F0010000008974600003000000870907300042505000000000000000000201608100002001SURTIDOR FERRETERO                                C000000002340000000000000000000000100010010000000000000000000000F0010000008974600320160810000101 00000000000000000000000000000000000000000000000000000000000000000000000000000000000000000000000000000000000000000N 00000000000NCONT   00    00000000000          00000000000000000000000000000000000000000000 000000000000000A000000000000000000000000000000000000000000000 000000000000000000000000000000000000000     00000000                                                                                                                        000000000000000000
F0010000008974600004000000870907300023658300000000000000000201608100002001SURTIDOR FERRETERO                                C000000000040300000000000000000000100010010000000000000000000000F0010000008974600420160810000101 00000000000000000000000000000000000000000000000000000000000000000000000000000000000000000000000000000000000000000N 00000000000NCONT   00    00000000000          00000000000000000000000000000000000000000000 000000000000000A000000000000000000000000000000000000000000000 000000000000000000000000000000000000000     00000000                                                                                                                        000000000000000000
F0010000008974600005000000870907300013552100000000000000000201608100002001SURTIDOR FERRETERO                                D000000000040300000000000000000000100010010000000000000000000000F0010000008974600520160810000101 00000000000000000000000000000000000000000000000000000000000000000000000000000000000000000000000000000000000000000N 00000000000NCONT   00    00000000000          00000000000000000000000000000000000000000000 000000000000000A000000000000000000000000000000000000000000000 000000000000000000000000000000000000000     00000000                                                                                                                        000000000000000000
F0010000008974700001000102390001700011050500000000000000000201608100002001LILIANA HERNANDEZ PINILLA                         D000000007000000000000000000000000100010010000000000000000000000F0010000008974700120160810000101 00000000000000000000000000000000000000000000000000000000000000000000000000000000000000000000000000000000000000000N 00000000000NCONT   00    00000000000          00000000000000000000000000000000000000000000 000000000000000A000000000000000000000000000000000000000000000 000000000000000000000000000000000000000     00000000                                                                                                                        000000000000000000
F0010000008974700002000102390001700041450500000000000000000201608100002001LILIANA HERNANDEZ PINILLA                         C000000005000000000000000000000000100010010000000000000000000000F0010000008974700220160810000101 00000000000000000000000000000000000000000000000000000000000000000000000000000000000000000000000000000000000000000N 00000000000NCONT   00    00000000000          00000000000000000000000000000000000000000000 000000000000000A000000000000000000000000000000000000000000000 000000000000000000000000000000000000000     00000000                                                                                                                        000000000000000000
F0010000008974700003000102390001700042505000000000000000000201608100002001LILIANA HERNANDEZ PINILLA                         C000000002000000000000000000000000100010010000000000000000000000F0010000008974700320160810000101 00000000000000000000000000000000000000000000000000000000000000000000000000000000000000000000000000000000000000000N 00000000000NCONT   00    00000000000          00000000000000000000000000000000000000000000 000000000000000A000000000000000000000000000000000000000000000 000000000000000000000000000000000000000     00000000                                                                                                                        000000000000000000
F0010000008974700004000102390001700023658300000000000000000201608100002001LILIANA HERNANDEZ PINILLA                         C000000000040000000000000000000000100010010000000000000000000000F0010000008974700420160810000101 00000000000000000000000000000000000000000000000000000000000000000000000000000000000000000000000000000000000000000N 00000000000NCONT   00    00000000000          00000000000000000000000000000000000000000000 000000000000000A000000000000000000000000000000000000000000000 000000000000000000000000000000000000000     00000000                                                                                                                        000000000000000000
F0010000008974700005000102390001700013552100000000000000000201608100002001LILIANA HERNANDEZ PINILLA                         D000000000040000000000000000000000100010010000000000000000000000F0010000008974700520160810000101 00000000000000000000000000000000000000000000000000000000000000000000000000000000000000000000000000000000000000000N 00000000000NCONT   00    00000000000          00000000000000000000000000000000000000000000 000000000000000A000000000000000000000000000000000000000000000 000000000000000000000000000000000000000     00000000                                                                                                                        000000000000000000
F0010000008974800001000009149922500011050500000000000000000201608100002001CARLOS DAVID HERNANDEZ A                          D000000002000000000000000000000000100010010000000000000000000000F0010000008974800120160810000101 00000000000000000000000000000000000000000000000000000000000000000000000000000000000000000000000000000000000000000N 00000000000NCONT   00    00000000000          00000000000000000000000000000000000000000000 000000000000000A000000000000000000000000000000000000000000000 000000000000000000000000000000000000000     00000000                                                                                                                        000000000000000000
F0010000008974800002000009149922500041450500000000000000000201608100002001CARLOS DAVID HERNANDEZ A                          C000000001500000000000000000000000100010010000000000000000000000F0010000008974800220160810000101 00000000000000000000000000000000000000000000000000000000000000000000000000000000000000000000000000000000000000000N 00000000000NCONT   00    00000000000          00000000000000000000000000000000000000000000 000000000000000A000000000000000000000000000000000000000000000 000000000000000000000000000000000000000     00000000                                                                                                                        000000000000000000
F0010000008974800003000009149922500042505000000000000000000201608100002001CARLOS DAVID HERNANDEZ A                          C000000000500000000000000000000000100010010000000000000000000000F0010000008974800320160810000101 00000000000000000000000000000000000000000000000000000000000000000000000000000000000000000000000000000000000000000N 00000000000NCONT   00    00000000000          00000000000000000000000000000000000000000000 000000000000000A000000000000000000000000000000000000000000000 000000000000000000000000000000000000000     00000000                                                                                                                        000000000000000000
F0010000008974800004000009149922500023658300000000000000000201608100002001CARLOS DAVID HERNANDEZ A                          C000000000012000000000000000000000100010010000000000000000000000F0010000008974800420160810000101 00000000000000000000000000000000000000000000000000000000000000000000000000000000000000000000000000000000000000000N 00000000000NCONT   00    00000000000          00000000000000000000000000000000000000000000 000000000000000A000000000000000000000000000000000000000000000 000000000000000000000000000000000000000     00000000                                                                                                                        000000000000000000
F0010000008974800005000009149922500013552100000000000000000201608100002001CARLOS DAVID HERNANDEZ A                          D000000000012000000000000000000000100010010000000000000000000000F0010000008974800520160810000101 00000000000000000000000000000000000000000000000000000000000000000000000000000000000000000000000000000000000000000N 00000000000NCONT   00    00000000000          00000000000000000000000000000000000000000000 000000000000000A000000000000000000000000000000000000000000000 000000000000000000000000000000000000000     00000000                                                                                                                        000000000000000000
F0010000008974900001000089010038800011050500000000000000000201608100002001CRISTALERIA SELMAN SAS                            D000000004700000000000000000000000100010010000000000000000000000F0010000008974900120160810000101 00000000000000000000000000000000000000000000000000000000000000000000000000000000000000000000000000000000000000000N 00000000000NCONT   00    00000000000          00000000000000000000000000000000000000000000 000000000000000A000000000000000000000000000000000000000000000 000000000000000000000000000000000000000     00000000                                                                                                                        000000000000000000
F0010000008974900002000089010038800041450500000000000000000201608100002001CRISTALERIA SELMAN SAS                            C000000004000000000000000000000000100010010000000000000000000000F0010000008974900220160810000101 00000000000000000000000000000000000000000000000000000000000000000000000000000000000000000000000000000000000000000N 00000000000NCONT   00    00000000000          00000000000000000000000000000000000000000000 000000000000000A000000000000000000000000000000000000000000000 000000000000000000000000000000000000000     00000000                                                                                                                        000000000000000000
F0010000008974900003000089010038800042505000000000000000000201608100002001CRISTALERIA SELMAN SAS                            C000000000700000000000000000000000100010010000000000000000000000F0010000008974900320160810000101 00000000000000000000000000000000000000000000000000000000000000000000000000000000000000000000000000000000000000000N 00000000000NCONT   00    00000000000          00000000000000000000000000000000000000000000 000000000000000A000000000000000000000000000000000000000000000 000000000000000000000000000000000000000     00000000                                                                                                                        000000000000000000
F0010000008974900004000089010038800023658300000000000000000201608100002001CRISTALERIA SELMAN SAS                            C000000000032000000000000000000000100010010000000000000000000000F0010000008974900420160810000101 00000000000000000000000000000000000000000000000000000000000000000000000000000000000000000000000000000000000000000N 00000000000NCONT   00    00000000000          00000000000000000000000000000000000000000000 000000000000000A000000000000000000000000000000000000000000000 000000000000000000000000000000000000000     00000000                                                                                                                        000000000000000000
F0010000008974900005000089010038800013552100000000000000000201608100002001CRISTALERIA SELMAN SAS                            D000000000032000000000000000000000100010010000000000000000000000F0010000008974900520160810000101 00000000000000000000000000000000000000000000000000000000000000000000000000000000000000000000000000000000000000000N 00000000000NCONT   00    00000000000          00000000000000000000000000000000000000000000 000000000000000A000000000000000000000000000000000000000000000 000000000000000000000000000000000000000     00000000                                                                                                                        000000000000000000
F0010000008975000001000001022529300011050500000000000000000201608100002001ALBERTO ALVAREZ ISAZA                             D000000000700000000000000000000000100010010000000000000000000000F0010000008975000120160810000101 00000000000000000000000000000000000000000000000000000000000000000000000000000000000000000000000000000000000000000N 00000000000NCONT   00    00000000000          00000000000000000000000000000000000000000000 000000000000000A000000000000000000000000000000000000000000000 000000000000000000000000000000000000000     00000000                                                                                                                        000000000000000000
F0010000008975000002000001022529300041450500000000000000000201608100002001ALBERTO ALVAREZ ISAZA                             C000000000700000000000000000000000100010010000000000000000000000F0010000008975000220160810000101 00000000000000000000000000000000000000000000000000000000000000000000000000000000000000000000000000000000000000000N 00000000000NCONT   00    00000000000          00000000000000000000000000000000000000000000 000000000000000A000000000000000000000000000000000000000000000 000000000000000000000000000000000000000     00000000                                                                                                                        000000000000000000
F0010000008975000003000001022529300042505000000000000000000201608100002001ALBERTO ALVAREZ ISAZA                             C000000000000000000000000000000000100010010000000000000000000000F0010000008975000320160810000101 00000000000000000000000000000000000000000000000000000000000000000000000000000000000000000000000000000000000000000N 00000000000NCONT   00    00000000000          00000000000000000000000000000000000000000000 000000000000000A000000000000000000000000000000000000000000000 000000000000000000000000000000000000000     00000000                                                                                                                        000000000000000000
F0010000008975000004000001022529300023658300000000000000000201608100002001ALBERTO ALVAREZ ISAZA                             C000000000005600000000000000000000100010010000000000000000000000F0010000008975000420160810000101 00000000000000000000000000000000000000000000000000000000000000000000000000000000000000000000000000000000000000000N 00000000000NCONT   00    00000000000          00000000000000000000000000000000000000000000 000000000000000A000000000000000000000000000000000000000000000 000000000000000000000000000000000000000     00000000                                                                                                                        000000000000000000
F0010000008975000005000001022529300013552100000000000000000201608100002001ALBERTO ALVAREZ ISAZA                             D000000000005600000000000000000000100010010000000000000000000000F0010000008975000520160810000101 00000000000000000000000000000000000000000000000000000000000000000000000000000000000000000000000000000000000000000N 00000000000NCONT   00    00000000000          00000000000000000000000000000000000000000000 000000000000000A000000000000000000000000000000000000000000000 000000000000000000000000000000000000000     00000000                                                                                                                        000000000000000000
F0010000008975100001000001022529300011050500000000000000000201608100002001ALBERTO ALVAREZ ISAZA                             D000000000350000000000000000000000100010010000000000000000000000F0010000008975100120160810000101 00000000000000000000000000000000000000000000000000000000000000000000000000000000000000000000000000000000000000000N 00000000000NCONT   00    00000000000          00000000000000000000000000000000000000000000 000000000000000A000000000000000000000000000000000000000000000 000000000000000000000000000000000000000     00000000                                                                                                                        000000000000000000
F0010000008975100002000001022529300041450500000000000000000201608100002001ALBERTO ALVAREZ ISAZA                             C000000000350000000000000000000000100010010000000000000000000000F0010000008975100220160810000101 00000000000000000000000000000000000000000000000000000000000000000000000000000000000000000000000000000000000000000N 00000000000NCONT   00    00000000000          00000000000000000000000000000000000000000000 000000000000000A000000000000000000000000000000000000000000000 000000000000000000000000000000000000000     00000000                                                                                                                        000000000000000000
F0010000008975100003000001022529300042505000000000000000000201608100002001ALBERTO ALVAREZ ISAZA                             C000000000000000000000000000000000100010010000000000000000000000F0010000008975100320160810000101 00000000000000000000000000000000000000000000000000000000000000000000000000000000000000000000000000000000000000000N 00000000000NCONT   00    00000000000          00000000000000000000000000000000000000000000 000000000000000A000000000000000000000000000000000000000000000 000000000000000000000000000000000000000     00000000                                                                                                                        000000000000000000
F0010000008975100004000001022529300023658300000000000000000201608100002001ALBERTO ALVAREZ ISAZA                             C000000000002800000000000000000000100010010000000000000000000000F0010000008975100420160810000101 00000000000000000000000000000000000000000000000000000000000000000000000000000000000000000000000000000000000000000N 00000000000NCONT   00    00000000000          00000000000000000000000000000000000000000000 000000000000000A000000000000000000000000000000000000000000000 000000000000000000000000000000000000000     00000000                                                                                                                        000000000000000000
F0010000008975100005000001022529300013552100000000000000000201608100002001ALBERTO ALVAREZ ISAZA                             D000000000002800000000000000000000100010010000000000000000000000F0010000008975100520160810000101 00000000000000000000000000000000000000000000000000000000000000000000000000000000000000000000000000000000000000000N 00000000000NCONT   00    00000000000          00000000000000000000000000000000000000000000 000000000000000A000000000000000000000000000000000000000000000 000000000000000000000000000000000000000     00000000                                                                                                                        000000000000000000
F0010000008975200001000090047878200011050500000000000000000201608100002001GRUMAD SAS                                        D000000012500000000000000000000000100010010000000000000000000000F0010000008975200120160810000101 00000000000000000000000000000000000000000000000000000000000000000000000000000000000000000000000000000000000000000N 00000000000NCONT   00    00000000000          00000000000000000000000000000000000000000000 000000000000000A000000000000000000000000000000000000000000000 000000000000000000000000000000000000000     00000000                                                                                                                        000000000000000000
F0010000008975200002000090047878200041450500000000000000000201608100002001GRUMAD SAS                                        C000000011000000000000000000000000100010010000000000000000000000F0010000008975200220160810000101 00000000000000000000000000000000000000000000000000000000000000000000000000000000000000000000000000000000000000000N 00000000000NCONT   00    00000000000          00000000000000000000000000000000000000000000 000000000000000A000000000000000000000000000000000000000000000 000000000000000000000000000000000000000     00000000                                                                                                                        000000000000000000
F0010000008975200003000090047878200042505000000000000000000201608100002001GRUMAD SAS                                        C000000001500000000000000000000000100010010000000000000000000000F0010000008975200320160810000101 00000000000000000000000000000000000000000000000000000000000000000000000000000000000000000000000000000000000000000N 00000000000NCONT   00    00000000000          00000000000000000000000000000000000000000000 000000000000000A000000000000000000000000000000000000000000000 000000000000000000000000000000000000000     00000000                                                                                                                        000000000000000000
F0010000008975200004000090047878200023658300000000000000000201608100002001GRUMAD SAS                                        C000000000088000000000000000000000100010010000000000000000000000F0010000008975200420160810000101 00000000000000000000000000000000000000000000000000000000000000000000000000000000000000000000000000000000000000000N 00000000000NCONT   00    00000000000          00000000000000000000000000000000000000000000 000000000000000A000000000000000000000000000000000000000000000 000000000000000000000000000000000000000     00000000                                                                                                                        000000000000000000
F0010000008975200005000090047878200013552100000000000000000201608100002001GRUMAD SAS                                        D000000000088000000000000000000000100010010000000000000000000000F0010000008975200520160810000101 00000000000000000000000000000000000000000000000000000000000000000000000000000000000000000000000000000000000000000N 00000000000NCONT   00    00000000000          00000000000000000000000000000000000000000000 000000000000000A000000000000000000000000000000000000000000000 000000000000000000000000000000000000000     00000000                                                                                                                        000000000000000000
F0010000008975300001000090047878200011050500000000000000000201608100002001GRUMAD SAS                                        D000000006000000000000000000000000100010010000000000000000000000F0010000008975300120160810000101 00000000000000000000000000000000000000000000000000000000000000000000000000000000000000000000000000000000000000000N 00000000000NCONT   00    00000000000          00000000000000000000000000000000000000000000 000000000000000A000000000000000000000000000000000000000000000 000000000000000000000000000000000000000     00000000                                                                                                                        000000000000000000
F0010000008975300002000090047878200041450500000000000000000201608100002001GRUMAD SAS                                        C000000005000000000000000000000000100010010000000000000000000000F0010000008975300220160810000101 00000000000000000000000000000000000000000000000000000000000000000000000000000000000000000000000000000000000000000N 00000000000NCONT   00    00000000000          00000000000000000000000000000000000000000000 000000000000000A000000000000000000000000000000000000000000000 000000000000000000000000000000000000000     00000000                                                                                                                        000000000000000000
F0010000008975300003000090047878200042505000000000000000000201608100002001GRUMAD SAS                                        C000000001000000000000000000000000100010010000000000000000000000F0010000008975300320160810000101 00000000000000000000000000000000000000000000000000000000000000000000000000000000000000000000000000000000000000000N 00000000000NCONT   00    00000000000          00000000000000000000000000000000000000000000 000000000000000A000000000000000000000000000000000000000000000 000000000000000000000000000000000000000     00000000                                                                                                                        000000000000000000
F0010000008975300004000090047878200023658300000000000000000201608100002001GRUMAD SAS                                        C000000000040000000000000000000000100010010000000000000000000000F0010000008975300420160810000101 00000000000000000000000000000000000000000000000000000000000000000000000000000000000000000000000000000000000000000N 00000000000NCONT   00    00000000000          00000000000000000000000000000000000000000000 000000000000000A000000000000000000000000000000000000000000000 000000000000000000000000000000000000000     00000000                                                                                                                        000000000000000000
F0010000008975300005000090047878200013552100000000000000000201608100002001GRUMAD SAS                                        D000000000040000000000000000000000100010010000000000000000000000F0010000008975300520160810000101 00000000000000000000000000000000000000000000000000000000000000000000000000000000000000000000000000000000000000000N 00000000000NCONT   00    00000000000          00000000000000000000000000000000000000000000 000000000000000A000000000000000000000000000000000000000000000 000000000000000000000000000000000000000     00000000                                                                                                                        000000000000000000
F0010000008975400001000083008772100011050500000000000000000201608100002001ILUMEC SAS                                        D000000001030000000000000000000000100010010000000000000000000000F0010000008975400120160810000101 00000000000000000000000000000000000000000000000000000000000000000000000000000000000000000000000000000000000000000N 00000000000NCONT   00    00000000000          00000000000000000000000000000000000000000000 000000000000000A000000000000000000000000000000000000000000000 000000000000000000000000000000000000000     00000000                                                                                                                        000000000000000000
F0010000008975400002000083008772100041450500000000000000000201608100002001ILUMEC SAS                                        C000000000880000000000000000000000100010010000000000000000000000F0010000008975400220160810000101 00000000000000000000000000000000000000000000000000000000000000000000000000000000000000000000000000000000000000000N 00000000000NCONT   00    00000000000          00000000000000000000000000000000000000000000 000000000000000A000000000000000000000000000000000000000000000 000000000000000000000000000000000000000     00000000                                                                                                                        000000000000000000
F0010000008975400003000083008772100042505000000000000000000201608100002001ILUMEC SAS                                        C000000000150000000000000000000000100010010000000000000000000000F0010000008975400320160810000101 00000000000000000000000000000000000000000000000000000000000000000000000000000000000000000000000000000000000000000N 00000000000NCONT   00    00000000000          00000000000000000000000000000000000000000000 000000000000000A000000000000000000000000000000000000000000000 000000000000000000000000000000000000000     00000000                                                                                                                        000000000000000000
F0010000008975400004000083008772100023658300000000000000000201608100002001ILUMEC SAS                                        C000000000007000000000000000000000100010010000000000000000000000F0010000008975400420160810000101 00000000000000000000000000000000000000000000000000000000000000000000000000000000000000000000000000000000000000000N 00000000000NCONT   00    00000000000          00000000000000000000000000000000000000000000 000000000000000A000000000000000000000000000000000000000000000 000000000000000000000000000000000000000     00000000                                                                                                                        000000000000000000
F0010000008975400005000083008772100013552100000000000000000201608100002001ILUMEC SAS                                        D000000000007000000000000000000000100010010000000000000000000000F0010000008975400520160810000101 00000000000000000000000000000000000000000000000000000000000000000000000000000000000000000000000000000000000000000N 00000000000NCONT   00    00000000000          00000000000000000000000000000000000000000000 000000000000000A000000000000000000000000000000000000000000000 000000000000000000000000000000000000000     00000000                                                                                                                        000000000000000000
F0010000008975500001000080022558300011050500000000000000000201608100002001INSTRUCONTROLES SAS                               D000000008500000000000000000000000100010010000000000000000000000F0010000008975500120160810000101 00000000000000000000000000000000000000000000000000000000000000000000000000000000000000000000000000000000000000000N 00000000000NCONT   00    00000000000          00000000000000000000000000000000000000000000 000000000000000A000000000000000000000000000000000000000000000 000000000000000000000000000000000000000     00000000                                                                                                                        000000000000000000
F0010000008975500002000080022558300041450500000000000000000201608100002001INSTRUCONTROLES SAS                               C000000008000000000000000000000000100010010000000000000000000000F0010000008975500220160810000101 00000000000000000000000000000000000000000000000000000000000000000000000000000000000000000000000000000000000000000N 00000000000NCONT   00    00000000000          00000000000000000000000000000000000000000000 000000000000000A000000000000000000000000000000000000000000000 000000000000000000000000000000000000000     00000000                                                                                                                        000000000000000000
F0010000008975500003000080022558300042505000000000000000000201608100002001INSTRUCONTROLES SAS                               C000000000500000000000000000000000100010010000000000000000000000F0010000008975500320160810000101 00000000000000000000000000000000000000000000000000000000000000000000000000000000000000000000000000000000000000000N 00000000000NCONT   00    00000000000          00000000000000000000000000000000000000000000 000000000000000A000000000000000000000000000000000000000000000 000000000000000000000000000000000000000     00000000                                                                                                                        000000000000000000
F0010000008975500004000080022558300023658300000000000000000201608100002001INSTRUCONTROLES SAS                               C000000000064000000000000000000000100010010000000000000000000000F0010000008975500420160810000101 00000000000000000000000000000000000000000000000000000000000000000000000000000000000000000000000000000000000000000N 00000000000NCONT   00    00000000000          00000000000000000000000000000000000000000000 000000000000000A000000000000000000000000000000000000000000000 000000000000000000000000000000000000000     00000000                                                                                                                        000000000000000000
F0010000008975500005000080022558300013552100000000000000000201608100002001INSTRUCONTROLES SAS                               D000000000064000000000000000000000100010010000000000000000000000F0010000008975500520160810000101 00000000000000000000000000000000000000000000000000000000000000000000000000000000000000000000000000000000000000000N 00000000000NCONT   00    00000000000          00000000000000000000000000000000000000000000 000000000000000A000000000000000000000000000000000000000000000 000000000000000000000000000000000000000     00000000                                                                                                                        000000000000000000
F0010000008975600001000090047878200011050500000000000000000201608100002001GRUMAD SAS                                        D000000015000000000000000000000000100010010000000000000000000000F0010000008975600120160810000101 00000000000000000000000000000000000000000000000000000000000000000000000000000000000000000000000000000000000000000N 00000000000NCONT   00    00000000000          00000000000000000000000000000000000000000000 000000000000000A000000000000000000000000000000000000000000000 000000000000000000000000000000000000000     00000000                                                                                                                        000000000000000000
F0010000008975600002000090047878200041450500000000000000000201608100002001GRUMAD SAS                                        C000000013500000000000000000000000100010010000000000000000000000F0010000008975600220160810000101 00000000000000000000000000000000000000000000000000000000000000000000000000000000000000000000000000000000000000000N 00000000000NCONT   00    00000000000          00000000000000000000000000000000000000000000 000000000000000A000000000000000000000000000000000000000000000 000000000000000000000000000000000000000     00000000                                                                                                                        000000000000000000
F0010000008975600003000090047878200042505000000000000000000201608100002001GRUMAD SAS                                        C000000001500000000000000000000000100010010000000000000000000000F0010000008975600320160810000101 00000000000000000000000000000000000000000000000000000000000000000000000000000000000000000000000000000000000000000N 00000000000NCONT   00    00000000000          00000000000000000000000000000000000000000000 000000000000000A000000000000000000000000000000000000000000000 000000000000000000000000000000000000000     00000000                                                                                                                        000000000000000000
F0010000008975600004000090047878200023658300000000000000000201608100002001GRUMAD SAS                                        C000000000108000000000000000000000100010010000000000000000000000F0010000008975600420160810000101 00000000000000000000000000000000000000000000000000000000000000000000000000000000000000000000000000000000000000000N 00000000000NCONT   00    00000000000          00000000000000000000000000000000000000000000 000000000000000A000000000000000000000000000000000000000000000 000000000000000000000000000000000000000     00000000                                                                                                                        000000000000000000
F0010000008975600005000090047878200013552100000000000000000201608100002001GRUMAD SAS                                        D000000000108000000000000000000000100010010000000000000000000000F0010000008975600520160810000101 00000000000000000000000000000000000000000000000000000000000000000000000000000000000000000000000000000000000000000N 00000000000NCONT   00    00000000000          00000000000000000000000000000000000000000000 000000000000000A000000000000000000000000000000000000000000000 000000000000000000000000000000000000000     00000000                                                                                                                        000000000000000000
F0010000008975700001000080014190300011050500000000000000000201608100002001QUIMINSA LTDA                                     D000000003152500000000000000000000100010010000000000000000000000F0010000008975700120160810000101 00000000000000000000000000000000000000000000000000000000000000000000000000000000000000000000000000000000000000000N 00000000000NCONT   00    00000000000          00000000000000000000000000000000000000000000 000000000000000A000000000000000000000000000000000000000000000 000000000000000000000000000000000000000     00000000                                                                                                                        000000000000000000
F0010000008975700002000080014190300041450500000000000000000201608100002001QUIMINSA LTDA                                     C000000002547000000000000000000000100010010000000000000000000000F0010000008975700220160810000101 00000000000000000000000000000000000000000000000000000000000000000000000000000000000000000000000000000000000000000N 00000000000NCONT   00    00000000000          00000000000000000000000000000000000000000000 000000000000000A000000000000000000000000000000000000000000000 000000000000000000000000000000000000000     00000000                                                                                                                        000000000000000000
F0010000008975700003000080014190300042505000000000000000000201608100002001QUIMINSA LTDA                                     C000000000605500000000000000000000100010010000000000000000000000F0010000008975700320160810000101 00000000000000000000000000000000000000000000000000000000000000000000000000000000000000000000000000000000000000000N 00000000000NCONT   00    00000000000          00000000000000000000000000000000000000000000 000000000000000A000000000000000000000000000000000000000000000 000000000000000000000000000000000000000     00000000                                                                                                                        000000000000000000
F0010000008975700004000080014190300023658300000000000000000201608100002001QUIMINSA LTDA                                     C000000000020400000000000000000000100010010000000000000000000000F0010000008975700420160810000101 00000000000000000000000000000000000000000000000000000000000000000000000000000000000000000000000000000000000000000N 00000000000NCONT   00    00000000000          00000000000000000000000000000000000000000000 000000000000000A000000000000000000000000000000000000000000000 000000000000000000000000000000000000000     00000000                                                                                                                        000000000000000000
F0010000008975700005000080014190300013552100000000000000000201608100002001QUIMINSA LTDA                                     D000000000020400000000000000000000100010010000000000000000000000F0010000008975700520160810000101 00000000000000000000000000000000000000000000000000000000000000000000000000000000000000000000000000000000000000000N 00000000000NCONT   00    00000000000          00000000000000000000000000000000000000000000 000000000000000A000000000000000000000000000000000000000000000 000000000000000000000000000000000000000     00000000                                                                                                                        000000000000000000
F0010000008975800001000003314755400011050500000000000000000201608100002001RUMATEX DE COLOMBIA                               D000000001800000000000000000000000100010010000000000000000000000F0010000008975800120160810000101 00000000000000000000000000000000000000000000000000000000000000000000000000000000000000000000000000000000000000000N 00000000000NCONT   00    00000000000          00000000000000000000000000000000000000000000 000000000000000A000000000000000000000000000000000000000000000 000000000000000000000000000000000000000     00000000                                                                                                                        000000000000000000
F0010000008975800002000003314755400041450500000000000000000201608100002001RUMATEX DE COLOMBIA                               C000000001300000000000000000000000100010010000000000000000000000F0010000008975800220160810000101 00000000000000000000000000000000000000000000000000000000000000000000000000000000000000000000000000000000000000000N 00000000000NCONT   00    00000000000          00000000000000000000000000000000000000000000 000000000000000A000000000000000000000000000000000000000000000 000000000000000000000000000000000000000     00000000                                                                                                                        000000000000000000
F0010000008975800003000003314755400042505000000000000000000201608100002001RUMATEX DE COLOMBIA                               C000000000500000000000000000000000100010010000000000000000000000F0010000008975800320160810000101 00000000000000000000000000000000000000000000000000000000000000000000000000000000000000000000000000000000000000000N 00000000000NCONT   00    00000000000          00000000000000000000000000000000000000000000 000000000000000A000000000000000000000000000000000000000000000 000000000000000000000000000000000000000     00000000                                                                                                                        000000000000000000
F0010000008975800004000003314755400023658300000000000000000201608100002001RUMATEX DE COLOMBIA                               C000000000010400000000000000000000100010010000000000000000000000F0010000008975800420160810000101 00000000000000000000000000000000000000000000000000000000000000000000000000000000000000000000000000000000000000000N 00000000000NCONT   00    00000000000          00000000000000000000000000000000000000000000 000000000000000A000000000000000000000000000000000000000000000 000000000000000000000000000000000000000     00000000                                                                                                                        000000000000000000
F0010000008975800005000003314755400013552100000000000000000201608100002001RUMATEX DE COLOMBIA                               D000000000010400000000000000000000100010010000000000000000000000F0010000008975800520160810000101 00000000000000000000000000000000000000000000000000000000000000000000000000000000000000000000000000000000000000000N 00000000000NCONT   00    00000000000          00000000000000000000000000000000000000000000 000000000000000A000000000000000000000000000000000000000000000 000000000000000000000000000000000000000     00000000                                                                                                                        000000000000000000
F0010000008975900001000003314755400011050500000000000000000201608100002001RUMATEX DE COLOMBIA                               D000000001800000000000000000000000100010010000000000000000000000F0010000008975900120160810000101 00000000000000000000000000000000000000000000000000000000000000000000000000000000000000000000000000000000000000000N 00000000000NCONT   00    00000000000          00000000000000000000000000000000000000000000 000000000000000A000000000000000000000000000000000000000000000 000000000000000000000000000000000000000     00000000                                                                                                                        000000000000000000
F0010000008975900002000003314755400041450500000000000000000201608100002001RUMATEX DE COLOMBIA                               C000000001300000000000000000000000100010010000000000000000000000F0010000008975900220160810000101 00000000000000000000000000000000000000000000000000000000000000000000000000000000000000000000000000000000000000000N 00000000000NCONT   00    00000000000          00000000000000000000000000000000000000000000 000000000000000A000000000000000000000000000000000000000000000 000000000000000000000000000000000000000     00000000                                                                                                                        000000000000000000
F0010000008975900003000003314755400042505000000000000000000201608100002001RUMATEX DE COLOMBIA                               C000000000500000000000000000000000100010010000000000000000000000F0010000008975900320160810000101 00000000000000000000000000000000000000000000000000000000000000000000000000000000000000000000000000000000000000000N 00000000000NCONT   00    00000000000          00000000000000000000000000000000000000000000 000000000000000A000000000000000000000000000000000000000000000 000000000000000000000000000000000000000     00000000                                                                                                                        000000000000000000
F0010000008975900004000003314755400023658300000000000000000201608100002001RUMATEX DE COLOMBIA                               C000000000010400000000000000000000100010010000000000000000000000F0010000008975900420160810000101 00000000000000000000000000000000000000000000000000000000000000000000000000000000000000000000000000000000000000000N 00000000000NCONT   00    00000000000          00000000000000000000000000000000000000000000 000000000000000A000000000000000000000000000000000000000000000 000000000000000000000000000000000000000     00000000                                                                                                                        000000000000000000
F0010000008975900005000003314755400013552100000000000000000201608100002001RUMATEX DE COLOMBIA                               D000000000010400000000000000000000100010010000000000000000000000F0010000008975900520160810000101 00000000000000000000000000000000000000000000000000000000000000000000000000000000000000000000000000000000000000000N 00000000000NCONT   00    00000000000          00000000000000000000000000000000000000000000 000000000000000A000000000000000000000000000000000000000000000 000000000000000000000000000000000000000     00000000                                                                                                                        000000000000000000
F0010000008976000001000003314755400011050500000000000000000201608100002001RUMATEX DE COLOMBIA                               D000000001400000000000000000000000100010010000000000000000000000F0010000008976000120160810000101 00000000000000000000000000000000000000000000000000000000000000000000000000000000000000000000000000000000000000000N 00000000000NCONT   00    00000000000          00000000000000000000000000000000000000000000 000000000000000A000000000000000000000000000000000000000000000 000000000000000000000000000000000000000     00000000                                                                                                                        000000000000000000
F0010000008976000002000003314755400041450500000000000000000201608100002001RUMATEX DE COLOMBIA                               C000000001000000000000000000000000100010010000000000000000000000F0010000008976000220160810000101 00000000000000000000000000000000000000000000000000000000000000000000000000000000000000000000000000000000000000000N 00000000000NCONT   00    00000000000          00000000000000000000000000000000000000000000 000000000000000A000000000000000000000000000000000000000000000 000000000000000000000000000000000000000     00000000                                                                                                                        000000000000000000
F0010000008976000003000003314755400042505000000000000000000201608100002001RUMATEX DE COLOMBIA                               C000000000400000000000000000000000100010010000000000000000000000F0010000008976000320160810000101 00000000000000000000000000000000000000000000000000000000000000000000000000000000000000000000000000000000000000000N 00000000000NCONT   00    00000000000          00000000000000000000000000000000000000000000 000000000000000A000000000000000000000000000000000000000000000 000000000000000000000000000000000000000     00000000                                                                                                                        000000000000000000
F0010000008976000004000003314755400023658300000000000000000201608100002001RUMATEX DE COLOMBIA                               C000000000008000000000000000000000100010010000000000000000000000F0010000008976000420160810000101 00000000000000000000000000000000000000000000000000000000000000000000000000000000000000000000000000000000000000000N 00000000000NCONT   00    00000000000          00000000000000000000000000000000000000000000 000000000000000A000000000000000000000000000000000000000000000 000000000000000000000000000000000000000     00000000                                                                                                                        000000000000000000
F0010000008976000005000003314755400013552100000000000000000201608100002001RUMATEX DE COLOMBIA                               D000000000008000000000000000000000100010010000000000000000000000F0010000008976000520160810000101 00000000000000000000000000000000000000000000000000000000000000000000000000000000000000000000000000000000000000000N 00000000000NCONT   00    00000000000          00000000000000000000000000000000000000000000 000000000000000A000000000000000000000000000000000000000000000 000000000000000000000000000000000000000     00000000                                                                                                                        000000000000000000
F0010000008976100001000003314755400011050500000000000000000201608100002001RUMATEX DE COLOMBIA                               D000000001400000000000000000000000100010010000000000000000000000F0010000008976100120160810000101 00000000000000000000000000000000000000000000000000000000000000000000000000000000000000000000000000000000000000000N 00000000000NCONT   00    00000000000          00000000000000000000000000000000000000000000 000000000000000A000000000000000000000000000000000000000000000 000000000000000000000000000000000000000     00000000                                                                                                                        000000000000000000
F0010000008976100002000003314755400041450500000000000000000201608100002001RUMATEX DE COLOMBIA                               C000000001000000000000000000000000100010010000000000000000000000F0010000008976100220160810000101 00000000000000000000000000000000000000000000000000000000000000000000000000000000000000000000000000000000000000000N 00000000000NCONT   00    00000000000          00000000000000000000000000000000000000000000 000000000000000A000000000000000000000000000000000000000000000 000000000000000000000000000000000000000     00000000                                                                                                                        000000000000000000
F0010000008976100003000003314755400042505000000000000000000201608100002001RUMATEX DE COLOMBIA                               C000000000400000000000000000000000100010010000000000000000000000F0010000008976100320160810000101 00000000000000000000000000000000000000000000000000000000000000000000000000000000000000000000000000000000000000000N 00000000000NCONT   00    00000000000          00000000000000000000000000000000000000000000 000000000000000A000000000000000000000000000000000000000000000 000000000000000000000000000000000000000     00000000                                                                                                                        000000000000000000
F0010000008976100004000003314755400023658300000000000000000201608100002001RUMATEX DE COLOMBIA                               C000000000008000000000000000000000100010010000000000000000000000F0010000008976100420160810000101 00000000000000000000000000000000000000000000000000000000000000000000000000000000000000000000000000000000000000000N 00000000000NCONT   00    00000000000          00000000000000000000000000000000000000000000 000000000000000A000000000000000000000000000000000000000000000 000000000000000000000000000000000000000     00000000                                                                                                                        000000000000000000
F0010000008976100005000003314755400013552100000000000000000201608100002001RUMATEX DE COLOMBIA                               D000000000008000000000000000000000100010010000000000000000000000F0010000008976100520160810000101 00000000000000000000000000000000000000000000000000000000000000000000000000000000000000000000000000000000000000000N 00000000000NCONT   00    00000000000          00000000000000000000000000000000000000000000 000000000000000A000000000000000000000000000000000000000000000 000000000000000000000000000000000000000     00000000                                                                                                                        000000000000000000
F0010000008976200001000003314755400011050500000000000000000201608100002001RUMATEX DE COLOMBIA                               D000000003800000000000000000000000100010010000000000000000000000F0010000008976200120160810000101 00000000000000000000000000000000000000000000000000000000000000000000000000000000000000000000000000000000000000000N 00000000000NCONT   00    00000000000          00000000000000000000000000000000000000000000 000000000000000A000000000000000000000000000000000000000000000 000000000000000000000000000000000000000     00000000                                                                                                                        000000000000000000
F0010000008976200002000003314755400041450500000000000000000201608100002001RUMATEX DE COLOMBIA                               C000000002600000000000000000000000100010010000000000000000000000F0010000008976200220160810000101 00000000000000000000000000000000000000000000000000000000000000000000000000000000000000000000000000000000000000000N 00000000000NCONT   00    00000000000          00000000000000000000000000000000000000000000 000000000000000A000000000000000000000000000000000000000000000 000000000000000000000000000000000000000     00000000                                                                                                                        000000000000000000
F0010000008976200003000003314755400042505000000000000000000201608100002001RUMATEX DE COLOMBIA                               C000000001200000000000000000000000100010010000000000000000000000F0010000008976200320160810000101 00000000000000000000000000000000000000000000000000000000000000000000000000000000000000000000000000000000000000000N 00000000000NCONT   00    00000000000          00000000000000000000000000000000000000000000 000000000000000A000000000000000000000000000000000000000000000 000000000000000000000000000000000000000     00000000                                                                                                                        000000000000000000
F0010000008976200004000003314755400023658300000000000000000201608100002001RUMATEX DE COLOMBIA                               C000000000020800000000000000000000100010010000000000000000000000F0010000008976200420160810000101 00000000000000000000000000000000000000000000000000000000000000000000000000000000000000000000000000000000000000000N 00000000000NCONT   00    00000000000          00000000000000000000000000000000000000000000 000000000000000A000000000000000000000000000000000000000000000 000000000000000000000000000000000000000     00000000                                                                                                                        000000000000000000
F0010000008976200005000003314755400013552100000000000000000201608100002001RUMATEX DE COLOMBIA                               D000000000020800000000000000000000100010010000000000000000000000F0010000008976200520160810000101 00000000000000000000000000000000000000000000000000000000000000000000000000000000000000000000000000000000000000000N 00000000000NCONT   00    00000000000          00000000000000000000000000000000000000000000 000000000000000A000000000000000000000000000000000000000000000 000000000000000000000000000000000000000     00000000                                                                                                                        000000000000000000
F0010000008976300001000003314755400011050500000000000000000201608100002001RUMATEX DE COLOMBIA                               D000000002300000000000000000000000100010010000000000000000000000F0010000008976300120160810000101 00000000000000000000000000000000000000000000000000000000000000000000000000000000000000000000000000000000000000000N 00000000000NCONT   00    00000000000          00000000000000000000000000000000000000000000 000000000000000A000000000000000000000000000000000000000000000 000000000000000000000000000000000000000     00000000                                                                                                                        000000000000000000
F0010000008976300002000003314755400041450500000000000000000201608100002001RUMATEX DE COLOMBIA                               C000000001300000000000000000000000100010010000000000000000000000F0010000008976300220160810000101 00000000000000000000000000000000000000000000000000000000000000000000000000000000000000000000000000000000000000000N 00000000000NCONT   00    00000000000          00000000000000000000000000000000000000000000 000000000000000A000000000000000000000000000000000000000000000 000000000000000000000000000000000000000     00000000                                                                                                                        000000000000000000
F0010000008976300003000003314755400042505000000000000000000201608100002001RUMATEX DE COLOMBIA                               C000000001000000000000000000000000100010010000000000000000000000F0010000008976300320160810000101 00000000000000000000000000000000000000000000000000000000000000000000000000000000000000000000000000000000000000000N 00000000000NCONT   00    00000000000          00000000000000000000000000000000000000000000 000000000000000A000000000000000000000000000000000000000000000 000000000000000000000000000000000000000     00000000                                                                                                                        000000000000000000
F0010000008976300004000003314755400023658300000000000000000201608100002001RUMATEX DE COLOMBIA                               C000000000010400000000000000000000100010010000000000000000000000F0010000008976300420160810000101 00000000000000000000000000000000000000000000000000000000000000000000000000000000000000000000000000000000000000000N 00000000000NCONT   00    00000000000          00000000000000000000000000000000000000000000 000000000000000A000000000000000000000000000000000000000000000 000000000000000000000000000000000000000     00000000                                                                                                                        000000000000000000
F0010000008976300005000003314755400013552100000000000000000201608100002001RUMATEX DE COLOMBIA                               D000000000010400000000000000000000100010010000000000000000000000F0010000008976300520160810000101 00000000000000000000000000000000000000000000000000000000000000000000000000000000000000000000000000000000000000000N 00000000000NCONT   00    00000000000          00000000000000000000000000000000000000000000 000000000000000A000000000000000000000000000000000000000000000 000000000000000000000000000000000000000     00000000                                                                                                                        000000000000000000
F0010000008976400001000090007142100011050500000000000000000201608100002001TODO BELLEZA Y MAX S.A.S                          D000000004050000000000000000000000100010010000000000000000000000F0010000008976400120160810000101 00000000000000000000000000000000000000000000000000000000000000000000000000000000000000000000000000000000000000000N 00000000000NCONT   00    00000000000          00000000000000000000000000000000000000000000 000000000000000A000000000000000000000000000000000000000000000 000000000000000000000000000000000000000     00000000                                                                                                                        000000000000000000
F0010000008976400002000090007142100041450500000000000000000201608100002001TODO BELLEZA Y MAX S.A.S                          C000000003300000000000000000000000100010010000000000000000000000F0010000008976400220160810000101 00000000000000000000000000000000000000000000000000000000000000000000000000000000000000000000000000000000000000000N 00000000000NCONT   00    00000000000          00000000000000000000000000000000000000000000 000000000000000A000000000000000000000000000000000000000000000 000000000000000000000000000000000000000     00000000                                                                                                                        000000000000000000
