F0010000006581300001000007222906400011050500000000000000000201412040002001JORGE ALBERTO OROZCO LOPEZ                        D000000006000000000000000000000000100010010000000000000000000000F0010000006581300120141204000101 00000000000000000000000000000000000000000000000000000000000000000000000000000000000000000000000000000000000000000N 00000000000NCONT   00    00000000000          00000000000000000000000000000000000000000000 000000000000000A000000000000000000000000000000000000000000000 000000000000000000000000000000000000000     00000000                                                                                                                        000000000000000000
F0010000006581300002000007222906400041450500000000000000000201412040002001JORGE ALBERTO OROZCO LOPEZ                        C000000005000000000000000000000000100010010000000000000000000000F0010000006581300220141204000101 00000000000000000000000000000000000000000000000000000000000000000000000000000000000000000000000000000000000000000N 00000000000NCONT   00    00000000000          00000000000000000000000000000000000000000000 000000000000000A000000000000000000000000000000000000000000000 000000000000000000000000000000000000000     00000000                                                                                                                        000000000000000000
F0010000006581300003000007222906400042505000000000000000000201412040002001JORGE ALBERTO OROZCO LOPEZ                        C000000001000000000000000000000000100010010000000000000000000000F0010000006581300320141204000101 00000000000000000000000000000000000000000000000000000000000000000000000000000000000000000000000000000000000000000N 00000000000NCONT   00    00000000000          00000000000000000000000000000000000000000000 000000000000000A000000000000000000000000000000000000000000000 000000000000000000000000000000000000000     00000000                                                                                                                        000000000000000000
F0010000006581300004000007222906400023658300000000000000000201412040002001JORGE ALBERTO OROZCO LOPEZ                        C000000000040000000000000000000000100010010000000000000000000000F0010000006581300420141204000101 00000000000000000000000000000000000000000000000000000000000000000000000000000000000000000000000000000000000000000N 00000000000NCONT   00    00000000000          00000000000000000000000000000000000000000000 000000000000000A000000000000000000000000000000000000000000000 000000000000000000000000000000000000000     00000000                                                                                                                        000000000000000000
F0010000006581300005000007222906400013552100000000000000000201412040002001JORGE ALBERTO OROZCO LOPEZ                        D000000000040000000000000000000000100010010000000000000000000000F0010000006581300520141204000101 00000000000000000000000000000000000000000000000000000000000000000000000000000000000000000000000000000000000000000N 00000000000NCONT   00    00000000000          00000000000000000000000000000000000000000000 000000000000000A000000000000000000000000000000000000000000000 000000000000000000000000000000000000000     00000000                                                                                                                        000000000000000000
F0010000006581400001000081102758700013050500000000000000000201412040002001C.I. ABRACOL S.A EMA                              D000000140097800000000000000000000100010010000000000000000000000F0010000006581400120141204000101 00000000000000000000000000000000000000000000000000000000000000000000000000000000000000000000000000000000000000000N 00000000000NCONT   00    00000000000          00000000000000000000000000000000000000000000 000000000000000A000000000000000000000000000000000000000000000 000000000000000000000000000000000000000     00000000                                                                                                                        000000000000000000
F0010000006581400002000081102758700041450500000000000000000201412040002001C.I. ABRACOL S.A EMA                              C000000103820000000000000000000000100010010000000000000000000000F0010000006581400220141204000101 00000000000000000000000000000000000000000000000000000000000000000000000000000000000000000000000000000000000000000N 00000000000NCONT   00    00000000000          00000000000000000000000000000000000000000000 000000000000000A000000000000000000000000000000000000000000000 000000000000000000000000000000000000000     00000000                                                                                                                        000000000000000000
F0010000006581400003000081102758700041750100000000000000000201412040002001C.I. ABRACOL S.A EMA                              D000000003114600000000000000000000100010010000000000000000000000F0010000006581400320141204000101 00000000000000000000000000000000000000000000000000000000000000000000000000000000000000000000000000000000000000000N 00000000000NCONT   00    00000000000          00000000000000000000000000000000000000000000 000000000000000A000000000000000000000000000000000000000000000 000000000000000000000000000000000000000     00000000                                                                                                                        000000000000000000
F0010000006581400004000081102758700042505000000000000000000201412040002001C.I. ABRACOL S.A EMA                              C000000039392400000000000000000000100010010000000000000000000000F0010000006581400420141204000101 00000000000000000000000000000000000000000000000000000000000000000000000000000000000000000000000000000000000000000N 00000000000NCONT   00    00000000000          00000000000000000000000000000000000000000000 000000000000000A000000000000000000000000000000000000000000000 000000000000000000000000000000000000000     00000000                                                                                                                        000000000000000000
F0010000006581400005000081102758700023658300000000000000000201412040002001C.I. ABRACOL S.A EMA                              C000000000830600000000000000000000100010010000000000000000000000F0010000006581400520141204000101 00000000000000000000000000000000000000000000000000000000000000000000000000000000000000000000000000000000000000000N 00000000000NCONT   00    00000000000          00000000000000000000000000000000000000000000 000000000000000A000000000000000000000000000000000000000000000 000000000000000000000000000000000000000     00000000                                                                                                                        000000000000000000
F0010000006581400006000081102758700013552100000000000000000201412040002001C.I. ABRACOL S.A EMA                              D000000000830600000000000000000000100010010000000000000000000000F0010000006581400620141204000101 00000000000000000000000000000000000000000000000000000000000000000000000000000000000000000000000000000000000000000N 00000000000NCONT   00    00000000000          00000000000000000000000000000000000000000000 000000000000000A000000000000000000000000000000000000000000000 000000000000000000000000000000000000000     00000000                                                                                                                        000000000000000000
F0010000006581500001000081102758700013050500000000000000000201412040002001C.I. ABRACOL S.A EMA                              D000000044751600000000000000000000100010010000000000000000000000F0010000006581500120141204000101 00000000000000000000000000000000000000000000000000000000000000000000000000000000000000000000000000000000000000000N 00000000000NCONT   00    00000000000          00000000000000000000000000000000000000000000 000000000000000A000000000000000000000000000000000000000000000 000000000000000000000000000000000000000     00000000                                                                                                                        000000000000000000
F0010000006581500002000081102758700041450500000000000000000201412040002001C.I. ABRACOL S.A EMA                              C000000032160000000000000000000000100010010000000000000000000000F0010000006581500220141204000101 00000000000000000000000000000000000000000000000000000000000000000000000000000000000000000000000000000000000000000N 00000000000NCONT   00    00000000000          00000000000000000000000000000000000000000000 000000000000000A000000000000000000000000000000000000000000000 000000000000000000000000000000000000000     00000000                                                                                                                        000000000000000000
F0010000006581500003000081102758700041750100000000000000000201412040002001C.I. ABRACOL S.A EMA                              D000000000964800000000000000000000100010010000000000000000000000F0010000006581500320141204000101 00000000000000000000000000000000000000000000000000000000000000000000000000000000000000000000000000000000000000000N 00000000000NCONT   00    00000000000          00000000000000000000000000000000000000000000 000000000000000A000000000000000000000000000000000000000000000 000000000000000000000000000000000000000     00000000                                                                                                                        000000000000000000
F0010000006581500004000081102758700042505000000000000000000201412040002001C.I. ABRACOL S.A EMA                              C000000013556400000000000000000000100010010000000000000000000000F0010000006581500420141204000101 00000000000000000000000000000000000000000000000000000000000000000000000000000000000000000000000000000000000000000N 00000000000NCONT   00    00000000000          00000000000000000000000000000000000000000000 000000000000000A000000000000000000000000000000000000000000000 000000000000000000000000000000000000000     00000000                                                                                                                        000000000000000000
F0010000006581500005000081102758700023658300000000000000000201412040002001C.I. ABRACOL S.A EMA                              C000000000257300000000000000000000100010010000000000000000000000F0010000006581500520141204000101 00000000000000000000000000000000000000000000000000000000000000000000000000000000000000000000000000000000000000000N 00000000000NCONT   00    00000000000          00000000000000000000000000000000000000000000 000000000000000A000000000000000000000000000000000000000000000 000000000000000000000000000000000000000     00000000                                                                                                                        000000000000000000
F0010000006581500006000081102758700013552100000000000000000201412040002001C.I. ABRACOL S.A EMA                              D000000000257300000000000000000000100010010000000000000000000000F0010000006581500620141204000101 00000000000000000000000000000000000000000000000000000000000000000000000000000000000000000000000000000000000000000N 00000000000NCONT   00    00000000000          00000000000000000000000000000000000000000000 000000000000000A000000000000000000000000000000000000000000000 000000000000000000000000000000000000000     00000000                                                                                                                        000000000000000000
F0010000006581700001000089010260300013050500000000000000000201412040002001FEDERICO OSORIO A. S.A.                           D000000133570300000000000000000000100010010000000000000000000000F0010000006581700120141204000101 00000000000000000000000000000000000000000000000000000000000000000000000000000000000000000000000000000000000000000N 00000000000NCONT   00    00000000000          00000000000000000000000000000000000000000000 000000000000000A000000000000000000000000000000000000000000000 000000000000000000000000000000000000000     00000000                                                                                                                        000000000000000000
F0010000006581700002000089010260300041450500000000000000000201412040002001FEDERICO OSORIO A. S.A.                           C000000125090000000000000000000000100010010000000000000000000000F0010000006581700220141204000101 00000000000000000000000000000000000000000000000000000000000000000000000000000000000000000000000000000000000000000N 00000000000NCONT   00    00000000000          00000000000000000000000000000000000000000000 000000000000000A000000000000000000000000000000000000000000000 000000000000000000000000000000000000000     00000000                                                                                                                        000000000000000000
F0010000006581700003000089010260300042505000000000000000000201412040002001FEDERICO OSORIO A. S.A.                           C000000008480300000000000000000000100010010000000000000000000000F0010000006581700320141204000101 00000000000000000000000000000000000000000000000000000000000000000000000000000000000000000000000000000000000000000N 00000000000NCONT   00    00000000000          00000000000000000000000000000000000000000000 000000000000000A000000000000000000000000000000000000000000000 000000000000000000000000000000000000000     00000000                                                                                                                        000000000000000000
F0010000006581700004000089010260300023658300000000000000000201412040002001FEDERICO OSORIO A. S.A.                           C000000001000700000000000000000000100010010000000000000000000000F0010000006581700420141204000101 00000000000000000000000000000000000000000000000000000000000000000000000000000000000000000000000000000000000000000N 00000000000NCONT   00    00000000000          00000000000000000000000000000000000000000000 000000000000000A000000000000000000000000000000000000000000000 000000000000000000000000000000000000000     00000000                                                                                                                        000000000000000000
F0010000006581700005000089010260300013552100000000000000000201412040002001FEDERICO OSORIO A. S.A.                           D000000001000700000000000000000000100010010000000000000000000000F0010000006581700520141204000101 00000000000000000000000000000000000000000000000000000000000000000000000000000000000000000000000000000000000000000N 00000000000NCONT   00    00000000000          00000000000000000000000000000000000000000000 000000000000000A000000000000000000000000000000000000000000000 000000000000000000000000000000000000000     00000000                                                                                                                        000000000000000000
F0010000006581800001000089010260300013050500000000000000000201412040002001FEDERICO OSORIO A. S.A.                           D000000010897700000000000000000000100010010000000000000000000000F0010000006581800120141204000101 00000000000000000000000000000000000000000000000000000000000000000000000000000000000000000000000000000000000000000N 00000000000NCONT   00    00000000000          00000000000000000000000000000000000000000000 000000000000000A000000000000000000000000000000000000000000000 000000000000000000000000000000000000000     00000000                                                                                                                        000000000000000000
F0010000006581800002000089010260300041450500000000000000000201412040002001FEDERICO OSORIO A. S.A.                           C000000009750000000000000000000000100010010000000000000000000000F0010000006581800220141204000101 00000000000000000000000000000000000000000000000000000000000000000000000000000000000000000000000000000000000000000N 00000000000NCONT   00    00000000000          00000000000000000000000000000000000000000000 000000000000000A000000000000000000000000000000000000000000000 000000000000000000000000000000000000000     00000000                                                                                                                        000000000000000000
F0010000006581800003000089010260300042505000000000000000000201412040002001FEDERICO OSORIO A. S.A.                           C000000001147700000000000000000000100010010000000000000000000000F0010000006581800320141204000101 00000000000000000000000000000000000000000000000000000000000000000000000000000000000000000000000000000000000000000N 00000000000NCONT   00    00000000000          00000000000000000000000000000000000000000000 000000000000000A000000000000000000000000000000000000000000000 000000000000000000000000000000000000000     00000000                                                                                                                        000000000000000000
F0010000006581800004000089010260300023658300000000000000000201412040002001FEDERICO OSORIO A. S.A.                           C000000000078000000000000000000000100010010000000000000000000000F0010000006581800420141204000101 00000000000000000000000000000000000000000000000000000000000000000000000000000000000000000000000000000000000000000N 00000000000NCONT   00    00000000000          00000000000000000000000000000000000000000000 000000000000000A000000000000000000000000000000000000000000000 000000000000000000000000000000000000000     00000000                                                                                                                        000000000000000000
F0010000006581800005000089010260300013552100000000000000000201412040002001FEDERICO OSORIO A. S.A.                           D000000000078000000000000000000000100010010000000000000000000000F0010000006581800520141204000101 00000000000000000000000000000000000000000000000000000000000000000000000000000000000000000000000000000000000000000N 00000000000NCONT   00    00000000000          00000000000000000000000000000000000000000000 000000000000000A000000000000000000000000000000000000000000000 000000000000000000000000000000000000000     00000000                                                                                                                        000000000000000000
F0010000006581900001000080200863700013050500000000000000000201412040002001COPIN LTDA                                        D000000221350700000000000000000000100010010000000000000000000000F0010000006581900120141204000101 00000000000000000000000000000000000000000000000000000000000000000000000000000000000000000000000000000000000000000N 00000000000NCONT   00    00000000000          00000000000000000000000000000000000000000000 000000000000000A000000000000000000000000000000000000000000000 000000000000000000000000000000000000000     00000000                                                                                                                        000000000000000000
F0010000006581900002000080200863700041450500000000000000000201412040002001COPIN LTDA                                        C000000199370000000000000000000000100010010000000000000000000000F0010000006581900220141204000101 00000000000000000000000000000000000000000000000000000000000000000000000000000000000000000000000000000000000000000N 00000000000NCONT   00    00000000000          00000000000000000000000000000000000000000000 000000000000000A000000000000000000000000000000000000000000000 000000000000000000000000000000000000000     00000000                                                                                                                        000000000000000000
F0010000006581900003000080200863700042505000000000000000000201412040002001COPIN LTDA                                        C000000021980700000000000000000000100010010000000000000000000000F0010000006581900320141204000101 00000000000000000000000000000000000000000000000000000000000000000000000000000000000000000000000000000000000000000N 00000000000NCONT   00    00000000000          00000000000000000000000000000000000000000000 000000000000000A000000000000000000000000000000000000000000000 000000000000000000000000000000000000000     00000000                                                                                                                        000000000000000000
F0010000006581900004000080200863700023658300000000000000000201412040002001COPIN LTDA                                        C000000001595000000000000000000000100010010000000000000000000000F0010000006581900420141204000101 00000000000000000000000000000000000000000000000000000000000000000000000000000000000000000000000000000000000000000N 00000000000NCONT   00    00000000000          00000000000000000000000000000000000000000000 000000000000000A000000000000000000000000000000000000000000000 000000000000000000000000000000000000000     00000000                                                                                                                        000000000000000000
F0010000006581900005000080200863700013552100000000000000000201412040002001COPIN LTDA                                        D000000001595000000000000000000000100010010000000000000000000000F0010000006581900520141204000101 00000000000000000000000000000000000000000000000000000000000000000000000000000000000000000000000000000000000000000N 00000000000NCONT   00    00000000000          00000000000000000000000000000000000000000000 000000000000000A000000000000000000000000000000000000000000000 000000000000000000000000000000000000000     00000000                                                                                                                        000000000000000000
F0010000006582000001000080202094000013050500000000000000000201412040002001DISTRIB. OMAR ORREGO S.A.                         D000000069374400000000000000000000100010010000000000000000000000F0010000006582000120141204000101 00000000000000000000000000000000000000000000000000000000000000000000000000000000000000000000000000000000000000000N 00000000000NCONT   00    00000000000          00000000000000000000000000000000000000000000 000000000000000A000000000000000000000000000000000000000000000 000000000000000000000000000000000000000     00000000                                                                                                                        000000000000000000
F0010000006582000002000080202094000041450500000000000000000201412040002001DISTRIB. OMAR ORREGO S.A.                         C000000044790000000000000000000000100010010000000000000000000000F0010000006582000220141204000101 00000000000000000000000000000000000000000000000000000000000000000000000000000000000000000000000000000000000000000N 00000000000NCONT   00    00000000000          00000000000000000000000000000000000000000000 000000000000000A000000000000000000000000000000000000000000000 000000000000000000000000000000000000000     00000000                                                                                                                        000000000000000000
F0010000006582000003000080202094000042505000000000000000000201412040002001DISTRIB. OMAR ORREGO S.A.                         C000000024584400000000000000000000100010010000000000000000000000F0010000006582000320141204000101 00000000000000000000000000000000000000000000000000000000000000000000000000000000000000000000000000000000000000000N 00000000000NCONT   00    00000000000          00000000000000000000000000000000000000000000 000000000000000A000000000000000000000000000000000000000000000 000000000000000000000000000000000000000     00000000                                                                                                                        000000000000000000
F0010000006582000004000080202094000023658300000000000000000201412040002001DISTRIB. OMAR ORREGO S.A.                         C000000000358300000000000000000000100010010000000000000000000000F0010000006582000420141204000101 00000000000000000000000000000000000000000000000000000000000000000000000000000000000000000000000000000000000000000N 00000000000NCONT   00    00000000000          00000000000000000000000000000000000000000000 000000000000000A000000000000000000000000000000000000000000000 000000000000000000000000000000000000000     00000000                                                                                                                        000000000000000000
F0010000006582000005000080202094000013552100000000000000000201412040002001DISTRIB. OMAR ORREGO S.A.                         D000000000358300000000000000000000100010010000000000000000000000F0010000006582000520141204000101 00000000000000000000000000000000000000000000000000000000000000000000000000000000000000000000000000000000000000000N 00000000000NCONT   00    00000000000          00000000000000000000000000000000000000000000 000000000000000A000000000000000000000000000000000000000000000 000000000000000000000000000000000000000     00000000                                                                                                                        000000000000000000
F0010000006582100001000080202094000013050500000000000000000201412040002001DISTRIB. OMAR ORREGO S.A.                         D000000058185100000000000000000000100010010000000000000000000000F0010000006582100120141204000101 00000000000000000000000000000000000000000000000000000000000000000000000000000000000000000000000000000000000000000N 00000000000NCONT   00    00000000000          00000000000000000000000000000000000000000000 000000000000000A000000000000000000000000000000000000000000000 000000000000000000000000000000000000000     00000000                                                                                                                        000000000000000000
F0010000006582100002000080202094000041450500000000000000000201412040002001DISTRIB. OMAR ORREGO S.A.                         C000000037760000000000000000000000100010010000000000000000000000F0010000006582100220141204000101 00000000000000000000000000000000000000000000000000000000000000000000000000000000000000000000000000000000000000000N 00000000000NCONT   00    00000000000          00000000000000000000000000000000000000000000 000000000000000A000000000000000000000000000000000000000000000 000000000000000000000000000000000000000     00000000                                                                                                                        000000000000000000
F0010000006582100003000080202094000042505000000000000000000201412040002001DISTRIB. OMAR ORREGO S.A.                         C000000020425100000000000000000000100010010000000000000000000000F0010000006582100320141204000101 00000000000000000000000000000000000000000000000000000000000000000000000000000000000000000000000000000000000000000N 00000000000NCONT   00    00000000000          00000000000000000000000000000000000000000000 000000000000000A000000000000000000000000000000000000000000000 000000000000000000000000000000000000000     00000000                                                                                                                        000000000000000000
F0010000006582100004000080202094000023658300000000000000000201412040002001DISTRIB. OMAR ORREGO S.A.                         C000000000302100000000000000000000100010010000000000000000000000F0010000006582100420141204000101 00000000000000000000000000000000000000000000000000000000000000000000000000000000000000000000000000000000000000000N 00000000000NCONT   00    00000000000          00000000000000000000000000000000000000000000 000000000000000A000000000000000000000000000000000000000000000 000000000000000000000000000000000000000     00000000                                                                                                                        000000000000000000
F0010000006582100005000080202094000013552100000000000000000201412040002001DISTRIB. OMAR ORREGO S.A.                         D000000000302100000000000000000000100010010000000000000000000000F0010000006582100520141204000101 00000000000000000000000000000000000000000000000000000000000000000000000000000000000000000000000000000000000000000N 00000000000NCONT   00    00000000000          00000000000000000000000000000000000000000000 000000000000000A000000000000000000000000000000000000000000000 000000000000000000000000000000000000000     00000000                                                                                                                        000000000000000000
F0010000006582200001000080202094000013050500000000000000000201412040002001DISTRIB. OMAR ORREGO S.A.                         D000000003295500000000000000000000100010010000000000000000000000F0010000006582200120141204000101 00000000000000000000000000000000000000000000000000000000000000000000000000000000000000000000000000000000000000000N 00000000000NCONT   00    00000000000          00000000000000000000000000000000000000000000 000000000000000A000000000000000000000000000000000000000000000 000000000000000000000000000000000000000     00000000                                                                                                                        000000000000000000
F0010000006582200002000080202094000041450500000000000000000201412040002001DISTRIB. OMAR ORREGO S.A.                         C000000001470000000000000000000000100010010000000000000000000000F0010000006582200220141204000101 00000000000000000000000000000000000000000000000000000000000000000000000000000000000000000000000000000000000000000N 00000000000NCONT   00    00000000000          00000000000000000000000000000000000000000000 000000000000000A000000000000000000000000000000000000000000000 000000000000000000000000000000000000000     00000000                                                                                                                        000000000000000000
F0010000006582200003000080202094000042505000000000000000000201412040002001DISTRIB. OMAR ORREGO S.A.                         C000000001825500000000000000000000100010010000000000000000000000F0010000006582200320141204000101 00000000000000000000000000000000000000000000000000000000000000000000000000000000000000000000000000000000000000000N 00000000000NCONT   00    00000000000          00000000000000000000000000000000000000000000 000000000000000A000000000000000000000000000000000000000000000 000000000000000000000000000000000000000     00000000                                                                                                                        000000000000000000
F0010000006582200004000080202094000023658300000000000000000201412040002001DISTRIB. OMAR ORREGO S.A.                         C000000000011800000000000000000000100010010000000000000000000000F0010000006582200420141204000101 00000000000000000000000000000000000000000000000000000000000000000000000000000000000000000000000000000000000000000N 00000000000NCONT   00    00000000000          00000000000000000000000000000000000000000000 000000000000000A000000000000000000000000000000000000000000000 000000000000000000000000000000000000000     00000000                                                                                                                        000000000000000000
F0010000006582200005000080202094000013552100000000000000000201412040002001DISTRIB. OMAR ORREGO S.A.                         D000000000011800000000000000000000100010010000000000000000000000F0010000006582200520141204000101 00000000000000000000000000000000000000000000000000000000000000000000000000000000000000000000000000000000000000000N 00000000000NCONT   00    00000000000          00000000000000000000000000000000000000000000 000000000000000A000000000000000000000000000000000000000000000 000000000000000000000000000000000000000     00000000                                                                                                                        000000000000000000
F0010000006582300001000080002300200013050500000000000000000201412040002001DISREL S.A.                                       D000000057800000000000000000000000100010010000000000000000000000F0010000006582300120141204000101 00000000000000000000000000000000000000000000000000000000000000000000000000000000000000000000000000000000000000000N 00000000000NCONT   00    00000000000          00000000000000000000000000000000000000000000 000000000000000A000000000000000000000000000000000000000000000 000000000000000000000000000000000000000     00000000                                                                                                                        000000000000000000
F0010000006582300002000080002300200041450500000000000000000201412040002001DISREL S.A.                                       C000000057800000000000000000000000100010010000000000000000000000F0010000006582300220141204000101 00000000000000000000000000000000000000000000000000000000000000000000000000000000000000000000000000000000000000000N 00000000000NCONT   00    00000000000          00000000000000000000000000000000000000000000 000000000000000A000000000000000000000000000000000000000000000 000000000000000000000000000000000000000     00000000                                                                                                                        000000000000000000
F0010000006582300003000080002300200042505000000000000000000201412040002001DISREL S.A.                                       C000000000000000000000000000000000100010010000000000000000000000F0010000006582300320141204000101 00000000000000000000000000000000000000000000000000000000000000000000000000000000000000000000000000000000000000000N 00000000000NCONT   00    00000000000          00000000000000000000000000000000000000000000 000000000000000A000000000000000000000000000000000000000000000 000000000000000000000000000000000000000     00000000                                                                                                                        000000000000000000
F0010000006582300004000080002300200023658300000000000000000201412040002001DISREL S.A.                                       C000000000462400000000000000000000100010010000000000000000000000F0010000006582300420141204000101 00000000000000000000000000000000000000000000000000000000000000000000000000000000000000000000000000000000000000000N 00000000000NCONT   00    00000000000          00000000000000000000000000000000000000000000 000000000000000A000000000000000000000000000000000000000000000 000000000000000000000000000000000000000     00000000                                                                                                                        000000000000000000
F0010000006582300005000080002300200013552100000000000000000201412040002001DISREL S.A.                                       D000000000462400000000000000000000100010010000000000000000000000F0010000006582300520141204000101 00000000000000000000000000000000000000000000000000000000000000000000000000000000000000000000000000000000000000000N 00000000000NCONT   00    00000000000          00000000000000000000000000000000000000000000 000000000000000A000000000000000000000000000000000000000000000 000000000000000000000000000000000000000     00000000                                                                                                                        000000000000000000
F0010000006582400001000080016664500013050500000000000000000201412040002001TELAPLAS PANCER SAS                               D000000078848000000000000000000000100010010000000000000000000000F0010000006582400120141204000101 00000000000000000000000000000000000000000000000000000000000000000000000000000000000000000000000000000000000000000N 00000000000NCONT   00    00000000000          00000000000000000000000000000000000000000000 000000000000000A000000000000000000000000000000000000000000000 000000000000000000000000000000000000000     00000000                                                                                                                        000000000000000000
F0010000006582400002000080016664500041450500000000000000000201412040002001TELAPLAS PANCER SAS                               C000000065084000000000000000000000100010010000000000000000000000F0010000006582400220141204000101 00000000000000000000000000000000000000000000000000000000000000000000000000000000000000000000000000000000000000000N 00000000000NCONT   00    00000000000          00000000000000000000000000000000000000000000 000000000000000A000000000000000000000000000000000000000000000 000000000000000000000000000000000000000     00000000                                                                                                                        000000000000000000
F0010000006582400003000080016664500042505000000000000000000201412040002001TELAPLAS PANCER SAS                               C000000013764000000000000000000000100010010000000000000000000000F0010000006582400320141204000101 00000000000000000000000000000000000000000000000000000000000000000000000000000000000000000000000000000000000000000N 00000000000NCONT   00    00000000000          00000000000000000000000000000000000000000000 000000000000000A000000000000000000000000000000000000000000000 000000000000000000000000000000000000000     00000000                                                                                                                        000000000000000000
F0010000006582400004000080016664500023658300000000000000000201412040002001TELAPLAS PANCER SAS                               C000000000520700000000000000000000100010010000000000000000000000F0010000006582400420141204000101 00000000000000000000000000000000000000000000000000000000000000000000000000000000000000000000000000000000000000000N 00000000000NCONT   00    00000000000          00000000000000000000000000000000000000000000 000000000000000A000000000000000000000000000000000000000000000 000000000000000000000000000000000000000     00000000                                                                                                                        000000000000000000
F0010000006582400005000080016664500013552100000000000000000201412040002001TELAPLAS PANCER SAS                               D000000000520700000000000000000000100010010000000000000000000000F0010000006582400520141204000101 00000000000000000000000000000000000000000000000000000000000000000000000000000000000000000000000000000000000000000N 00000000000NCONT   00    00000000000          00000000000000000000000000000000000000000000 000000000000000A000000000000000000000000000000000000000000000 000000000000000000000000000000000000000     00000000                                                                                                                        000000000000000000
F0010000006582500001000080016665600013050500000000000000000201412040002001SUMICAL DE ANTIOQUIA S.A.S                        D000000017297700000000000000000000100010010000000000000000000000F0010000006582500120141204000101 00000000000000000000000000000000000000000000000000000000000000000000000000000000000000000000000000000000000000000N 00000000000NCONT   00    00000000000          00000000000000000000000000000000000000000000 000000000000000A000000000000000000000000000000000000000000000 000000000000000000000000000000000000000     00000000                                                                                                                        000000000000000000
F0010000006582500002000080016665600041450500000000000000000201412040002001SUMICAL DE ANTIOQUIA S.A.S                        C000000015330000000000000000000000100010010000000000000000000000F0010000006582500220141204000101 00000000000000000000000000000000000000000000000000000000000000000000000000000000000000000000000000000000000000000N 00000000000NCONT   00    00000000000          00000000000000000000000000000000000000000000 000000000000000A000000000000000000000000000000000000000000000 000000000000000000000000000000000000000     00000000                                                                                                                        000000000000000000
F0010000006582500003000080016665600042505000000000000000000201412040002001SUMICAL DE ANTIOQUIA S.A.S                        C000000001967700000000000000000000100010010000000000000000000000F0010000006582500320141204000101 00000000000000000000000000000000000000000000000000000000000000000000000000000000000000000000000000000000000000000N 00000000000NCONT   00    00000000000          00000000000000000000000000000000000000000000 000000000000000A000000000000000000000000000000000000000000000 000000000000000000000000000000000000000     00000000                                                                                                                        000000000000000000
F0010000006582500004000080016665600023658300000000000000000201412040002001SUMICAL DE ANTIOQUIA S.A.S                        C000000000122600000000000000000000100010010000000000000000000000F0010000006582500420141204000101 00000000000000000000000000000000000000000000000000000000000000000000000000000000000000000000000000000000000000000N 00000000000NCONT   00    00000000000          00000000000000000000000000000000000000000000 000000000000000A000000000000000000000000000000000000000000000 000000000000000000000000000000000000000     00000000                                                                                                                        000000000000000000
F0010000006582500005000080016665600013552100000000000000000201412040002001SUMICAL DE ANTIOQUIA S.A.S                        D000000000122600000000000000000000100010010000000000000000000000F0010000006582500520141204000101 00000000000000000000000000000000000000000000000000000000000000000000000000000000000000000000000000000000000000000N 00000000000NCONT   00    00000000000          00000000000000000000000000000000000000000000 000000000000000A000000000000000000000000000000000000000000000 000000000000000000000000000000000000000     00000000                                                                                                                        000000000000000000
F0010000006582600001000080200225800013050500000000000000000201412040002001PERF. TECNICOS DE LA COSTA S.A.S                  D000000052486000000000000000000000100010010000000000000000000000F0010000006582600120141204000101 00000000000000000000000000000000000000000000000000000000000000000000000000000000000000000000000000000000000000000N 00000000000NCONT   00    00000000000          00000000000000000000000000000000000000000000 000000000000000A000000000000000000000000000000000000000000000 000000000000000000000000000000000000000     00000000                                                                                                                        000000000000000000
F0010000006582600002000080200225800041450500000000000000000201412040002001PERF. TECNICOS DE LA COSTA S.A.S                  C000000045192000000000000000000000100010010000000000000000000000F0010000006582600220141204000101 00000000000000000000000000000000000000000000000000000000000000000000000000000000000000000000000000000000000000000N 00000000000NCONT   00    00000000000          00000000000000000000000000000000000000000000 000000000000000A000000000000000000000000000000000000000000000 000000000000000000000000000000000000000     00000000                                                                                                                        000000000000000000
F0010000006582600003000080200225800042505000000000000000000201412040002001PERF. TECNICOS DE LA COSTA S.A.S                  C000000007294000000000000000000000100010010000000000000000000000F0010000006582600320141204000101 00000000000000000000000000000000000000000000000000000000000000000000000000000000000000000000000000000000000000000N 00000000000NCONT   00    00000000000          00000000000000000000000000000000000000000000 000000000000000A000000000000000000000000000000000000000000000 000000000000000000000000000000000000000     00000000                                                                                                                        000000000000000000
F0010000006582600004000080200225800023658300000000000000000201412040002001PERF. TECNICOS DE LA COSTA S.A.S                  C000000000361500000000000000000000100010010000000000000000000000F0010000006582600420141204000101 00000000000000000000000000000000000000000000000000000000000000000000000000000000000000000000000000000000000000000N 00000000000NCONT   00    00000000000          00000000000000000000000000000000000000000000 000000000000000A000000000000000000000000000000000000000000000 000000000000000000000000000000000000000     00000000                                                                                                                        000000000000000000
F0010000006582600005000080200225800013552100000000000000000201412040002001PERF. TECNICOS DE LA COSTA S.A.S                  D000000000361500000000000000000000100010010000000000000000000000F0010000006582600520141204000101 00000000000000000000000000000000000000000000000000000000000000000000000000000000000000000000000000000000000000000N 00000000000NCONT   00    00000000000          00000000000000000000000000000000000000000000 000000000000000A000000000000000000000000000000000000000000000 000000000000000000000000000000000000000     00000000                                                                                                                        000000000000000000
F0010000006582700001000090013035500013050500000000000000000201412040002001FUJIAN SHAN S.A.                                  D000000028279200000000000000000000100010010000000000000000000000F0010000006582700120141204000101 00000000000000000000000000000000000000000000000000000000000000000000000000000000000000000000000000000000000000000N 00000000000NCONT   00    00000000000          00000000000000000000000000000000000000000000 000000000000000A000000000000000000000000000000000000000000000 000000000000000000000000000000000000000     00000000                                                                                                                        000000000000000000
F0010000006582700002000090013035500041450500000000000000000201412040002001FUJIAN SHAN S.A.                                  C000000027279200000000000000000000100010010000000000000000000000F0010000006582700220141204000101 00000000000000000000000000000000000000000000000000000000000000000000000000000000000000000000000000000000000000000N 00000000000NCONT   00    00000000000          00000000000000000000000000000000000000000000 000000000000000A000000000000000000000000000000000000000000000 000000000000000000000000000000000000000     00000000                                                                                                                        000000000000000000
F0010000006582700003000090013035500042505000000000000000000201412040002001FUJIAN SHAN S.A.                                  C000000001000000000000000000000000100010010000000000000000000000F0010000006582700320141204000101 00000000000000000000000000000000000000000000000000000000000000000000000000000000000000000000000000000000000000000N 00000000000NCONT   00    00000000000          00000000000000000000000000000000000000000000 000000000000000A000000000000000000000000000000000000000000000 000000000000000000000000000000000000000     00000000                                                                                                                        000000000000000000
F0010000006582700004000090013035500023658300000000000000000201412040002001FUJIAN SHAN S.A.                                  C000000000218200000000000000000000100010010000000000000000000000F0010000006582700420141204000101 00000000000000000000000000000000000000000000000000000000000000000000000000000000000000000000000000000000000000000N 00000000000NCONT   00    00000000000          00000000000000000000000000000000000000000000 000000000000000A000000000000000000000000000000000000000000000 000000000000000000000000000000000000000     00000000                                                                                                                        000000000000000000
F0010000006582700005000090013035500013552100000000000000000201412040002001FUJIAN SHAN S.A.                                  D000000000218200000000000000000000100010010000000000000000000000F0010000006582700520141204000101 00000000000000000000000000000000000000000000000000000000000000000000000000000000000000000000000000000000000000000N 00000000000NCONT   00    00000000000          00000000000000000000000000000000000000000000 000000000000000A000000000000000000000000000000000000000000000 000000000000000000000000000000000000000     00000000                                                                                                                        000000000000000000
F0010000006582800001000090060531100013050500000000000000000201412040002001RECUBRIMIENTO ESENCIALES SAS                      D000000010250000000000000000000000100010010000000000000000000000F0010000006582800120141204000101 00000000000000000000000000000000000000000000000000000000000000000000000000000000000000000000000000000000000000000N 00000000000NCONT   00    00000000000          00000000000000000000000000000000000000000000 000000000000000A000000000000000000000000000000000000000000000 000000000000000000000000000000000000000     00000000                                                                                                                        000000000000000000
F0010000006582800002000090060531100041450500000000000000000201412040002001RECUBRIMIENTO ESENCIALES SAS                      C000000009660000000000000000000000100010010000000000000000000000F0010000006582800220141204000101 00000000000000000000000000000000000000000000000000000000000000000000000000000000000000000000000000000000000000000N 00000000000NCONT   00    00000000000          00000000000000000000000000000000000000000000 000000000000000A000000000000000000000000000000000000000000000 000000000000000000000000000000000000000     00000000                                                                                                                        000000000000000000
F0010000006582800003000090060531100042505000000000000000000201412040002001RECUBRIMIENTO ESENCIALES SAS                      C000000000590000000000000000000000100010010000000000000000000000F0010000006582800320141204000101 00000000000000000000000000000000000000000000000000000000000000000000000000000000000000000000000000000000000000000N 00000000000NCONT   00    00000000000          00000000000000000000000000000000000000000000 000000000000000A000000000000000000000000000000000000000000000 000000000000000000000000000000000000000     00000000                                                                                                                        000000000000000000
F0010000006582800004000090060531100023658300000000000000000201412040002001RECUBRIMIENTO ESENCIALES SAS                      C000000000077300000000000000000000100010010000000000000000000000F0010000006582800420141204000101 00000000000000000000000000000000000000000000000000000000000000000000000000000000000000000000000000000000000000000N 00000000000NCONT   00    00000000000          00000000000000000000000000000000000000000000 000000000000000A000000000000000000000000000000000000000000000 000000000000000000000000000000000000000     00000000                                                                                                                        000000000000000000
F0010000006582800005000090060531100013552100000000000000000201412040002001RECUBRIMIENTO ESENCIALES SAS                      D000000000077300000000000000000000100010010000000000000000000000F0010000006582800520141204000101 00000000000000000000000000000000000000000000000000000000000000000000000000000000000000000000000000000000000000000N 00000000000NCONT   00    00000000000          00000000000000000000000000000000000000000000 000000000000000A000000000000000000000000000000000000000000000 000000000000000000000000000000000000000     00000000                                                                                                                        000000000000000000
F0010000006582900001000090048173700013050500000000000000000201412040002001ESPECIALIDADES QUIMICAS DEL NORTE SAS             D000000031579600000000000000000000100010010000000000000000000000F0010000006582900120141204000101 00000000000000000000000000000000000000000000000000000000000000000000000000000000000000000000000000000000000000000N 00000000000NCONT   00    00000000000          00000000000000000000000000000000000000000000 000000000000000A000000000000000000000000000000000000000000000 000000000000000000000000000000000000000     00000000                                                                                                                        000000000000000000
F0010000006582900002000090048173700041450500000000000000000201412040002001ESPECIALIDADES QUIMICAS DEL NORTE SAS             C000000029976900000000000000000000100010010000000000000000000000F0010000006582900220141204000101 00000000000000000000000000000000000000000000000000000000000000000000000000000000000000000000000000000000000000000N 00000000000NCONT   00    00000000000          00000000000000000000000000000000000000000000 000000000000000A000000000000000000000000000000000000000000000 000000000000000000000000000000000000000     00000000                                                                                                                        000000000000000000
F0010000006582900003000090048173700042505000000000000000000201412040002001ESPECIALIDADES QUIMICAS DEL NORTE SAS             C000000001602700000000000000000000100010010000000000000000000000F0010000006582900320141204000101 00000000000000000000000000000000000000000000000000000000000000000000000000000000000000000000000000000000000000000N 00000000000NCONT   00    00000000000          00000000000000000000000000000000000000000000 000000000000000A000000000000000000000000000000000000000000000 000000000000000000000000000000000000000     00000000                                                                                                                        000000000000000000
F0010000006582900004000090048173700023658300000000000000000201412040002001ESPECIALIDADES QUIMICAS DEL NORTE SAS             C000000000239800000000000000000000100010010000000000000000000000F0010000006582900420141204000101 00000000000000000000000000000000000000000000000000000000000000000000000000000000000000000000000000000000000000000N 00000000000NCONT   00    00000000000          00000000000000000000000000000000000000000000 000000000000000A000000000000000000000000000000000000000000000 000000000000000000000000000000000000000     00000000                                                                                                                        000000000000000000
F0010000006582900005000090048173700013552100000000000000000201412040002001ESPECIALIDADES QUIMICAS DEL NORTE SAS             D000000000239800000000000000000000100010010000000000000000000000F0010000006582900520141204000101 00000000000000000000000000000000000000000000000000000000000000000000000000000000000000000000000000000000000000000N 00000000000NCONT   00    00000000000          00000000000000000000000000000000000000000000 000000000000000A000000000000000000000000000000000000000000000 000000000000000000000000000000000000000     00000000                                                                                                                        000000000000000000
F0010000006583000001000080004943800013050500000000000000000201412040002001PAPELERIA EL CID S.A.                             D000000045107500000000000000000000100010010000000000000000000000F0010000006583000120141204000101 00000000000000000000000000000000000000000000000000000000000000000000000000000000000000000000000000000000000000000N 00000000000NCONT   00    00000000000          00000000000000000000000000000000000000000000 000000000000000A000000000000000000000000000000000000000000000 000000000000000000000000000000000000000     00000000                                                                                                                        000000000000000000
F0010000006583000002000080004943800041450500000000000000000201412040002001PAPELERIA EL CID S.A.                             C000000042290000000000000000000000100010010000000000000000000000F0010000006583000220141204000101 00000000000000000000000000000000000000000000000000000000000000000000000000000000000000000000000000000000000000000N 00000000000NCONT   00    00000000000          00000000000000000000000000000000000000000000 000000000000000A000000000000000000000000000000000000000000000 000000000000000000000000000000000000000     00000000                                                                                                                        000000000000000000
F0010000006583000003000080004943800042505000000000000000000201412040002001PAPELERIA EL CID S.A.                             C000000002817500000000000000000000100010010000000000000000000000F0010000006583000320141204000101 00000000000000000000000000000000000000000000000000000000000000000000000000000000000000000000000000000000000000000N 00000000000NCONT   00    00000000000          00000000000000000000000000000000000000000000 000000000000000A000000000000000000000000000000000000000000000 000000000000000000000000000000000000000     00000000                                                                                                                        000000000000000000
F0010000006583000004000080004943800023658300000000000000000201412040002001PAPELERIA EL CID S.A.                             C000000000338300000000000000000000100010010000000000000000000000F0010000006583000420141204000101 00000000000000000000000000000000000000000000000000000000000000000000000000000000000000000000000000000000000000000N 00000000000NCONT   00    00000000000          00000000000000000000000000000000000000000000 000000000000000A000000000000000000000000000000000000000000000 000000000000000000000000000000000000000     00000000                                                                                                                        000000000000000000
F0010000006583000005000080004943800013552100000000000000000201412040002001PAPELERIA EL CID S.A.                             D000000000338300000000000000000000100010010000000000000000000000F0010000006583000520141204000101 00000000000000000000000000000000000000000000000000000000000000000000000000000000000000000000000000000000000000000N 00000000000NCONT   00    00000000000          00000000000000000000000000000000000000000000 000000000000000A000000000000000000000000000000000000000000000 000000000000000000000000000000000000000     00000000                                                                                                                        000000000000000000
F0010000006583100001000090064982900013050500000000000000000201412040002001DISDIES S.A.S                                     D000000032806600000000000000000000100010010000000000000000000000F0010000006583100120141204000101 00000000000000000000000000000000000000000000000000000000000000000000000000000000000000000000000000000000000000000N 00000000000NCONT   00    00000000000          00000000000000000000000000000000000000000000 000000000000000A000000000000000000000000000000000000000000000 000000000000000000000000000000000000000     00000000                                                                                                                        000000000000000000
F0010000006583100002000090064982900041450500000000000000000201412040002001DISDIES S.A.S                                     C000000028528900000000000000000000100010010000000000000000000000F0010000006583100220141204000101 00000000000000000000000000000000000000000000000000000000000000000000000000000000000000000000000000000000000000000N 00000000000NCONT   00    00000000000          00000000000000000000000000000000000000000000 000000000000000A000000000000000000000000000000000000000000000 000000000000000000000000000000000000000     00000000                                                                                                                        000000000000000000
F0010000006583100003000090064982900042505000000000000000000201412040002001DISDIES S.A.S                                     C000000004277700000000000000000000100010010000000000000000000000F0010000006583100320141204000101 00000000000000000000000000000000000000000000000000000000000000000000000000000000000000000000000000000000000000000N 00000000000NCONT   00    00000000000          00000000000000000000000000000000000000000000 000000000000000A000000000000000000000000000000000000000000000 000000000000000000000000000000000000000     00000000                                                                                                                        000000000000000000
F0010000006583100004000090064982900023658300000000000000000201412040002001DISDIES S.A.S                                     C000000000228200000000000000000000100010010000000000000000000000F0010000006583100420141204000101 00000000000000000000000000000000000000000000000000000000000000000000000000000000000000000000000000000000000000000N 00000000000NCONT   00    00000000000          00000000000000000000000000000000000000000000 000000000000000A000000000000000000000000000000000000000000000 000000000000000000000000000000000000000     00000000                                                                                                                        000000000000000000
F0010000006583100005000090064982900013552100000000000000000201412040002001DISDIES S.A.S                                     D000000000228200000000000000000000100010010000000000000000000000F0010000006583100520141204000101 00000000000000000000000000000000000000000000000000000000000000000000000000000000000000000000000000000000000000000N 00000000000NCONT   00    00000000000          00000000000000000000000000000000000000000000 000000000000000A000000000000000000000000000000000000000000000 000000000000000000000000000000000000000     00000000                                                                                                                        000000000000000000
F0010000006583200001000090008711200013050500000000000000000201412040002001PACKAGING SUPPLIERS S.A.                          D000000029249000000000000000000000100010010000000000000000000000F0010000006583200120141204000101 00000000000000000000000000000000000000000000000000000000000000000000000000000000000000000000000000000000000000000N 00000000000NCONT   00    00000000000          00000000000000000000000000000000000000000000 000000000000000A000000000000000000000000000000000000000000000 000000000000000000000000000000000000000     00000000                                                                                                                        000000000000000000
F0010000006583200002000090008711200041450500000000000000000201412040002001PACKAGING SUPPLIERS S.A.                          C000000027833600000000000000000000100010010000000000000000000000F0010000006583200220141204000101 00000000000000000000000000000000000000000000000000000000000000000000000000000000000000000000000000000000000000000N 00000000000NCONT   00    00000000000          00000000000000000000000000000000000000000000 000000000000000A000000000000000000000000000000000000000000000 000000000000000000000000000000000000000     00000000                                                                                                                        000000000000000000
F0010000006583200003000090008711200042505000000000000000000201412040002001PACKAGING SUPPLIERS S.A.                          C000000001415400000000000000000000100010010000000000000000000000F0010000006583200320141204000101 00000000000000000000000000000000000000000000000000000000000000000000000000000000000000000000000000000000000000000N 00000000000NCONT   00    00000000000          00000000000000000000000000000000000000000000 000000000000000A000000000000000000000000000000000000000000000 000000000000000000000000000000000000000     00000000                                                                                                                        000000000000000000
F0010000006583200004000090008711200023658300000000000000000201412040002001PACKAGING SUPPLIERS S.A.                          C000000000222700000000000000000000100010010000000000000000000000F0010000006583200420141204000101 00000000000000000000000000000000000000000000000000000000000000000000000000000000000000000000000000000000000000000N 00000000000NCONT   00    00000000000          00000000000000000000000000000000000000000000 000000000000000A000000000000000000000000000000000000000000000 000000000000000000000000000000000000000     00000000                                                                                                                        000000000000000000
F0010000006583200005000090008711200013552100000000000000000201412040002001PACKAGING SUPPLIERS S.A.                          D000000000222700000000000000000000100010010000000000000000000000F0010000006583200520141204000101 00000000000000000000000000000000000000000000000000000000000000000000000000000000000000000000000000000000000000000N 00000000000NCONT   00    00000000000          00000000000000000000000000000000000000000000 000000000000000A000000000000000000000000000000000000000000000 000000000000000000000000000000000000000     00000000                                                                                                                        000000000000000000
F0010000006583300001000089010526900013050500000000000000000201412040002001DISTRIBUCIONES CANAL Y CIA S.A.S                  D000000022335200000000000000000000100010010000000000000000000000F0010000006583300120141204000101 00000000000000000000000000000000000000000000000000000000000000000000000000000000000000000000000000000000000000000N 00000000000NCONT   00    00000000000          00000000000000000000000000000000000000000000 000000000000000A000000000000000000000000000000000000000000000 000000000000000000000000000000000000000     00000000                                                                                                                        000000000000000000
F0010000006583300002000089010526900041450500000000000000000201412040002001DISTRIBUCIONES CANAL Y CIA S.A.S                  C000000016510000000000000000000000100010010000000000000000000000F0010000006583300220141204000101 00000000000000000000000000000000000000000000000000000000000000000000000000000000000000000000000000000000000000000N 00000000000NCONT   00    00000000000          00000000000000000000000000000000000000000000 000000000000000A000000000000000000000000000000000000000000000 000000000000000000000000000000000000000     00000000                                                                                                                        000000000000000000
F0010000006583300003000089010526900042505000000000000000000201412040002001DISTRIBUCIONES CANAL Y CIA S.A.S                  C000000005825200000000000000000000100010010000000000000000000000F0010000006583300320141204000101 00000000000000000000000000000000000000000000000000000000000000000000000000000000000000000000000000000000000000000N 00000000000NCONT   00    00000000000          00000000000000000000000000000000000000000000 000000000000000A000000000000000000000000000000000000000000000 000000000000000000000000000000000000000     00000000                                                                                                                        000000000000000000
F0010000006583300004000089010526900023658300000000000000000201412040002001DISTRIBUCIONES CANAL Y CIA S.A.S                  C000000000132100000000000000000000100010010000000000000000000000F0010000006583300420141204000101 00000000000000000000000000000000000000000000000000000000000000000000000000000000000000000000000000000000000000000N 00000000000NCONT   00    00000000000          00000000000000000000000000000000000000000000 000000000000000A000000000000000000000000000000000000000000000 000000000000000000000000000000000000000     00000000                                                                                                                        000000000000000000
F0010000006583300005000089010526900013552100000000000000000201412040002001DISTRIBUCIONES CANAL Y CIA S.A.S                  D000000000132100000000000000000000100010010000000000000000000000F0010000006583300520141204000101 00000000000000000000000000000000000000000000000000000000000000000000000000000000000000000000000000000000000000000N 00000000000NCONT   00    00000000000          00000000000000000000000000000000000000000000 000000000000000A000000000000000000000000000000000000000000000 000000000000000000000000000000000000000     00000000                                                                                                                        000000000000000000
F0010000006583400001000090035510100013050500000000000000000201412040002001GRAINGER COLOMBIA S.A.S.                          D000000110088000000000000000000000100010010000000000000000000000F0010000006583400120141204000101 00000000000000000000000000000000000000000000000000000000000000000000000000000000000000000000000000000000000000000N 00000000000NCONT   00    00000000000          00000000000000000000000000000000000000000000 000000000000000A000000000000000000000000000000000000000000000 000000000000000000000000000000000000000     00000000                                                                                                                        000000000000000000
F0010000006583400002000090035510100041450500000000000000000201412040002001GRAINGER COLOMBIA S.A.S.                          C000000075093800000000000000000000100010010000000000000000000000F0010000006583400220141204000101 00000000000000000000000000000000000000000000000000000000000000000000000000000000000000000000000000000000000000000N 00000000000NCONT   00    00000000000          00000000000000000000000000000000000000000000 000000000000000A000000000000000000000000000000000000000000000 000000000000000000000000000000000000000     00000000                                                                                                                        000000000000000000
F0010000006583400003000090035510100042505000000000000000000201412040002001GRAINGER COLOMBIA S.A.S.                          C000000034994200000000000000000000100010010000000000000000000000F0010000006583400320141204000101 00000000000000000000000000000000000000000000000000000000000000000000000000000000000000000000000000000000000000000N 00000000000NCONT   00    00000000000          00000000000000000000000000000000000000000000 000000000000000A000000000000000000000000000000000000000000000 000000000000000000000000000000000000000     00000000                                                                                                                        000000000000000000
F0010000006583400004000090035510100023658300000000000000000201412040002001GRAINGER COLOMBIA S.A.S.                          C000000000600800000000000000000000100010010000000000000000000000F0010000006583400420141204000101 00000000000000000000000000000000000000000000000000000000000000000000000000000000000000000000000000000000000000000N 00000000000NCONT   00    00000000000          00000000000000000000000000000000000000000000 000000000000000A000000000000000000000000000000000000000000000 000000000000000000000000000000000000000     00000000                                                                                                                        000000000000000000
F0010000006583400005000090035510100013552100000000000000000201412040002001GRAINGER COLOMBIA S.A.S.                          D000000000600800000000000000000000100010010000000000000000000000F0010000006583400520141204000101 00000000000000000000000000000000000000000000000000000000000000000000000000000000000000000000000000000000000000000N 00000000000NCONT   00    00000000000          00000000000000000000000000000000000000000000 000000000000000A000000000000000000000000000000000000000000000 000000000000000000000000000000000000000     00000000                                                                                                                        000000000000000000
F0010000006583500001000007090373900013050500000000000000000201412040002001CACHARRERIA LOS MARINILLOS                        D000000077700000000000000000000000100010010000000000000000000000F0010000006583500120141204000101 00000000000000000000000000000000000000000000000000000000000000000000000000000000000000000000000000000000000000000N 00000000000NCONT   00    00000000000          00000000000000000000000000000000000000000000 000000000000000A000000000000000000000000000000000000000000000 000000000000000000000000000000000000000     00000000                                                                                                                        000000000000000000
F0010000006583500002000007090373900041450500000000000000000201412040002001CACHARRERIA LOS MARINILLOS                        C000000067700000000000000000000000100010010000000000000000000000F0010000006583500220141204000101 00000000000000000000000000000000000000000000000000000000000000000000000000000000000000000000000000000000000000000N 00000000000NCONT   00    00000000000          00000000000000000000000000000000000000000000 000000000000000A000000000000000000000000000000000000000000000 000000000000000000000000000000000000000     00000000                                                                                                                        000000000000000000
F0010000006583500003000007090373900042505000000000000000000201412040002001CACHARRERIA LOS MARINILLOS                        C000000010000000000000000000000000100010010000000000000000000000F0010000006583500320141204000101 00000000000000000000000000000000000000000000000000000000000000000000000000000000000000000000000000000000000000000N 00000000000NCONT   00    00000000000          00000000000000000000000000000000000000000000 000000000000000A000000000000000000000000000000000000000000000 000000000000000000000000000000000000000     00000000                                                                                                                        000000000000000000
F0010000006583500004000007090373900023658300000000000000000201412040002001CACHARRERIA LOS MARINILLOS                        C000000000541600000000000000000000100010010000000000000000000000F0010000006583500420141204000101 00000000000000000000000000000000000000000000000000000000000000000000000000000000000000000000000000000000000000000N 00000000000NCONT   00    00000000000          00000000000000000000000000000000000000000000 000000000000000A000000000000000000000000000000000000000000000 000000000000000000000000000000000000000     00000000                                                                                                                        000000000000000000
F0010000006583500005000007090373900013552100000000000000000201412040002001CACHARRERIA LOS MARINILLOS                        D000000000541600000000000000000000100010010000000000000000000000F0010000006583500520141204000101 00000000000000000000000000000000000000000000000000000000000000000000000000000000000000000000000000000000000000000N 00000000000NCONT   00    00000000000          00000000000000000000000000000000000000000000 000000000000000A000000000000000000000000000000000000000000000 000000000000000000000000000000000000000     00000000                                                                                                                        000000000000000000
F0010000006583600001000081102758700013050500000000000000000201412040002001C.I. ABRACOL S.A EMA                              D000000095242200000000000000000000100010010000000000000000000000F0010000006583600120141204000101 00000000000000000000000000000000000000000000000000000000000000000000000000000000000000000000000000000000000000000N 00000000000NCONT   00    00000000000          00000000000000000000000000000000000000000000 000000000000000A000000000000000000000000000000000000000000000 000000000000000000000000000000000000000     00000000                                                                                                                        000000000000000000
F0010000006583600002000081102758700041450500000000000000000201412040002001C.I. ABRACOL S.A EMA                              C000000060787000000000000000000000100010010000000000000000000000F0010000006583600220141204000101 00000000000000000000000000000000000000000000000000000000000000000000000000000000000000000000000000000000000000000N 00000000000NCONT   00    00000000000          00000000000000000000000000000000000000000000 000000000000000A000000000000000000000000000000000000000000000 000000000000000000000000000000000000000     00000000                                                                                                                        000000000000000000
F0010000006583600003000081102758700041750100000000000000000201412040002001C.I. ABRACOL S.A EMA                              D000000001823600000000000000000000100010010000000000000000000000F0010000006583600320141204000101 00000000000000000000000000000000000000000000000000000000000000000000000000000000000000000000000000000000000000000N 00000000000NCONT   00    00000000000          00000000000000000000000000000000000000000000 000000000000000A000000000000000000000000000000000000000000000 000000000000000000000000000000000000000     00000000                                                                                                                        000000000000000000
F0010000006583600004000081102758700042505000000000000000000201412040002001C.I. ABRACOL S.A EMA                              C000000036278800000000000000000000100010010000000000000000000000F0010000006583600420141204000101 00000000000000000000000000000000000000000000000000000000000000000000000000000000000000000000000000000000000000000N 00000000000NCONT   00    00000000000          00000000000000000000000000000000000000000000 000000000000000A000000000000000000000000000000000000000000000 000000000000000000000000000000000000000     00000000                                                                                                                        000000000000000000
F0010000006583600005000081102758700023658300000000000000000201412040002001C.I. ABRACOL S.A EMA                              C000000000486300000000000000000000100010010000000000000000000000F0010000006583600520141204000101 00000000000000000000000000000000000000000000000000000000000000000000000000000000000000000000000000000000000000000N 00000000000NCONT   00    00000000000          00000000000000000000000000000000000000000000 000000000000000A000000000000000000000000000000000000000000000 000000000000000000000000000000000000000     00000000                                                                                                                        000000000000000000
F0010000006583600006000081102758700013552100000000000000000201412040002001C.I. ABRACOL S.A EMA                              D000000000486300000000000000000000100010010000000000000000000000F0010000006583600620141204000101 00000000000000000000000000000000000000000000000000000000000000000000000000000000000000000000000000000000000000000N 00000000000NCONT   00    00000000000          00000000000000000000000000000000000000000000 000000000000000A000000000000000000000000000000000000000000000 000000000000000000000000000000000000000     00000000                                                                                                                        000000000000000000
F0010000006583700001000002245670100013050500000000000000000201412040002001YOLANDA  TOBON                                    D000000035385300000000000000000000100010010000000000000000000000F0010000006583700120141204000101 00000000000000000000000000000000000000000000000000000000000000000000000000000000000000000000000000000000000000000N 00000000000NCONT   00    00000000000          00000000000000000000000000000000000000000000 000000000000000A000000000000000000000000000000000000000000000 000000000000000000000000000000000000000     00000000                                                                                                                        000000000000000000
F0010000006583700002000002245670100041450500000000000000000201412040002001YOLANDA  TOBON                                    C000000028200000000000000000000000100010010000000000000000000000F0010000006583700220141204000101 00000000000000000000000000000000000000000000000000000000000000000000000000000000000000000000000000000000000000000N 00000000000NCONT   00    00000000000          00000000000000000000000000000000000000000000 000000000000000A000000000000000000000000000000000000000000000 000000000000000000000000000000000000000     00000000                                                                                                                        000000000000000000
F0010000006583700003000002245670100042505000000000000000000201412040002001YOLANDA  TOBON                                    C000000007185300000000000000000000100010010000000000000000000000F0010000006583700320141204000101 00000000000000000000000000000000000000000000000000000000000000000000000000000000000000000000000000000000000000000N 00000000000NCONT   00    00000000000          00000000000000000000000000000000000000000000 000000000000000A000000000000000000000000000000000000000000000 000000000000000000000000000000000000000     00000000                                                                                                                        000000000000000000
F0010000006583700004000002245670100023658300000000000000000201412040002001YOLANDA  TOBON                                    C000000000225600000000000000000000100010010000000000000000000000F0010000006583700420141204000101 00000000000000000000000000000000000000000000000000000000000000000000000000000000000000000000000000000000000000000N 00000000000NCONT   00    00000000000          00000000000000000000000000000000000000000000 000000000000000A000000000000000000000000000000000000000000000 000000000000000000000000000000000000000     00000000                                                                                                                        000000000000000000
F0010000006583700005000002245670100013552100000000000000000201412040002001YOLANDA  TOBON                                    D000000000225600000000000000000000100010010000000000000000000000F0010000006583700520141204000101 00000000000000000000000000000000000000000000000000000000000000000000000000000000000000000000000000000000000000000N 00000000000NCONT   00    00000000000          00000000000000000000000000000000000000000000 000000000000000A000000000000000000000000000000000000000000000 000000000000000000000000000000000000000     00000000                                                                                                                        000000000000000000
F0010000006583800001000080014190300013050500000000000000000201412040002001QUIMINSA LTDA                                     D000000009892000000000000000000000100010010000000000000000000000F0010000006583800120141204000101 00000000000000000000000000000000000000000000000000000000000000000000000000000000000000000000000000000000000000000N 00000000000NCONT   00    00000000000          00000000000000000000000000000000000000000000 000000000000000A000000000000000000000000000000000000000000000 000000000000000000000000000000000000000     00000000                                                                                                                        000000000000000000
F0010000006583800002000080014190300041450500000000000000000201412040002001QUIMINSA LTDA                                     C000000008080000000000000000000000100010010000000000000000000000F0010000006583800220141204000101 00000000000000000000000000000000000000000000000000000000000000000000000000000000000000000000000000000000000000000N 00000000000NCONT   00    00000000000          00000000000000000000000000000000000000000000 000000000000000A000000000000000000000000000000000000000000000 000000000000000000000000000000000000000     00000000                                                                                                                        000000000000000000
F0010000006583800003000080014190300042505000000000000000000201412040002001QUIMINSA LTDA                                     C000000001812000000000000000000000100010010000000000000000000000F0010000006583800320141204000101 00000000000000000000000000000000000000000000000000000000000000000000000000000000000000000000000000000000000000000N 00000000000NCONT   00    00000000000          00000000000000000000000000000000000000000000 000000000000000A000000000000000000000000000000000000000000000 000000000000000000000000000000000000000     00000000                                                                                                                        000000000000000000
F0010000006583800004000080014190300023658300000000000000000201412040002001QUIMINSA LTDA                                     C000000000064600000000000000000000100010010000000000000000000000F0010000006583800420141204000101 00000000000000000000000000000000000000000000000000000000000000000000000000000000000000000000000000000000000000000N 00000000000NCONT   00    00000000000          00000000000000000000000000000000000000000000 000000000000000A000000000000000000000000000000000000000000000 000000000000000000000000000000000000000     00000000                                                                                                                        000000000000000000
F0010000006583800005000080014190300013552100000000000000000201412040002001QUIMINSA LTDA                                     D000000000064600000000000000000000100010010000000000000000000000F0010000006583800520141204000101 00000000000000000000000000000000000000000000000000000000000000000000000000000000000000000000000000000000000000000N 00000000000NCONT   00    00000000000          00000000000000000000000000000000000000000000 000000000000000A000000000000000000000000000000000000000000000 000000000000000000000000000000000000000     00000000                                                                                                                        000000000000000000
F0010000006583900001000080200962900013050500000000000000000201412040002001ACERO & MALLAS S.A.S.                             D000000003730000000000000000000000100010010000000000000000000000F0010000006583900120141204000101 00000000000000000000000000000000000000000000000000000000000000000000000000000000000000000000000000000000000000000N 00000000000NCONT   00    00000000000          00000000000000000000000000000000000000000000 000000000000000A000000000000000000000000000000000000000000000 000000000000000000000000000000000000000     00000000                                                                                                                        000000000000000000
F0010000006583900002000080200962900041450500000000000000000201412040002001ACERO & MALLAS S.A.S.                             C000000003030000000000000000000000100010010000000000000000000000F0010000006583900220141204000101 00000000000000000000000000000000000000000000000000000000000000000000000000000000000000000000000000000000000000000N 00000000000NCONT   00    00000000000          00000000000000000000000000000000000000000000 000000000000000A000000000000000000000000000000000000000000000 000000000000000000000000000000000000000     00000000                                                                                                                        000000000000000000
F0010000006583900003000080200962900042505000000000000000000201412040002001ACERO & MALLAS S.A.S.                             C000000000700000000000000000000000100010010000000000000000000000F0010000006583900320141204000101 00000000000000000000000000000000000000000000000000000000000000000000000000000000000000000000000000000000000000000N 00000000000NCONT   00    00000000000          00000000000000000000000000000000000000000000 000000000000000A000000000000000000000000000000000000000000000 000000000000000000000000000000000000000     00000000                                                                                                                        000000000000000000
F0010000006583900004000080200962900023658300000000000000000201412040002001ACERO & MALLAS S.A.S.                             C000000000024200000000000000000000100010010000000000000000000000F0010000006583900420141204000101 00000000000000000000000000000000000000000000000000000000000000000000000000000000000000000000000000000000000000000N 00000000000NCONT   00    00000000000          00000000000000000000000000000000000000000000 000000000000000A000000000000000000000000000000000000000000000 000000000000000000000000000000000000000     00000000                                                                                                                        000000000000000000
F0010000006583900005000080200962900013552100000000000000000201412040002001ACERO & MALLAS S.A.S.                             D000000000024200000000000000000000100010010000000000000000000000F0010000006583900520141204000101 00000000000000000000000000000000000000000000000000000000000000000000000000000000000000000000000000000000000000000N 00000000000NCONT   00    00000000000          00000000000000000000000000000000000000000000 000000000000000A000000000000000000000000000000000000000000000 000000000000000000000000000000000000000     00000000                                                                                                                        000000000000000000
F0010000006584000001000080201601700013050500000000000000000201412040002001PLASTICOS SUPERIOR S.A.                           D000000021243900000000000000000000100010010000000000000000000000F0010000006584000120141204000101 00000000000000000000000000000000000000000000000000000000000000000000000000000000000000000000000000000000000000000N 00000000000NCONT   00    00000000000          00000000000000000000000000000000000000000000 000000000000000A000000000000000000000000000000000000000000000 000000000000000000000000000000000000000     00000000                                                                                                                        000000000000000000
F0010000006584000002000080201601700041450500000000000000000201412040002001PLASTICOS SUPERIOR S.A.                           C000000016830000000000000000000000100010010000000000000000000000F0010000006584000220141204000101 00000000000000000000000000000000000000000000000000000000000000000000000000000000000000000000000000000000000000000N 00000000000NCONT   00    00000000000          00000000000000000000000000000000000000000000 000000000000000A000000000000000000000000000000000000000000000 000000000000000000000000000000000000000     00000000                                                                                                                        000000000000000000
F0010000006584000003000080201601700042505000000000000000000201412040002001PLASTICOS SUPERIOR S.A.                           C000000004413900000000000000000000100010010000000000000000000000F0010000006584000320141204000101 00000000000000000000000000000000000000000000000000000000000000000000000000000000000000000000000000000000000000000N 00000000000NCONT   00    00000000000          00000000000000000000000000000000000000000000 000000000000000A000000000000000000000000000000000000000000000 000000000000000000000000000000000000000     00000000                                                                                                                        000000000000000000
F0010000006584000004000080201601700023658300000000000000000201412040002001PLASTICOS SUPERIOR S.A.                           C000000000134600000000000000000000100010010000000000000000000000F0010000006584000420141204000101 00000000000000000000000000000000000000000000000000000000000000000000000000000000000000000000000000000000000000000N 00000000000NCONT   00    00000000000          00000000000000000000000000000000000000000000 000000000000000A000000000000000000000000000000000000000000000 000000000000000000000000000000000000000     00000000                                                                                                                        000000000000000000
F0010000006584000005000080201601700013552100000000000000000201412040002001PLASTICOS SUPERIOR S.A.                           D000000000134600000000000000000000100010010000000000000000000000F0010000006584000520141204000101 00000000000000000000000000000000000000000000000000000000000000000000000000000000000000000000000000000000000000000N 00000000000NCONT   00    00000000000          00000000000000000000000000000000000000000000 000000000000000A000000000000000000000000000000000000000000000 000000000000000000000000000000000000000     00000000                                                                                                                        000000000000000000
F0010000006584100001000089190114700013050500000000000000000201412040002001SUPAPEL S.A.S                                     D000000000470400000000000000000000100010010000000000000000000000F0010000006584100120141204000101 00000000000000000000000000000000000000000000000000000000000000000000000000000000000000000000000000000000000000000N 00000000000NCONT   00    00000000000          00000000000000000000000000000000000000000000 000000000000000A000000000000000000000000000000000000000000000 000000000000000000000000000000000000000     00000000                                                                                                                        000000000000000000
F0010000006584100002000089190114700041450500000000000000000201412040002001SUPAPEL S.A.S                                     C000000000420000000000000000000000100010010000000000000000000000F0010000006584100220141204000101 00000000000000000000000000000000000000000000000000000000000000000000000000000000000000000000000000000000000000000N 00000000000NCONT   00    00000000000          00000000000000000000000000000000000000000000 000000000000000A000000000000000000000000000000000000000000000 000000000000000000000000000000000000000     00000000                                                                                                                        000000000000000000
F0010000006584100003000089190114700042505000000000000000000201412040002001SUPAPEL S.A.S                                     C000000000050400000000000000000000100010010000000000000000000000F0010000006584100320141204000101 00000000000000000000000000000000000000000000000000000000000000000000000000000000000000000000000000000000000000000N 00000000000NCONT   00    00000000000          00000000000000000000000000000000000000000000 000000000000000A000000000000000000000000000000000000000000000 000000000000000000000000000000000000000     00000000                                                                                                                        000000000000000000
F0010000006584100004000089190114700023658300000000000000000201412040002001SUPAPEL S.A.S                                     C000000000003400000000000000000000100010010000000000000000000000F0010000006584100420141204000101 00000000000000000000000000000000000000000000000000000000000000000000000000000000000000000000000000000000000000000N 00000000000NCONT   00    00000000000          00000000000000000000000000000000000000000000 000000000000000A000000000000000000000000000000000000000000000 000000000000000000000000000000000000000     00000000                                                                                                                        000000000000000000
F0010000006584100005000089190114700013552100000000000000000201412040002001SUPAPEL S.A.S                                     D000000000003400000000000000000000100010010000000000000000000000F0010000006584100520141204000101 00000000000000000000000000000000000000000000000000000000000000000000000000000000000000000000000000000000000000000N 00000000000NCONT   00    00000000000          00000000000000000000000000000000000000000000 000000000000000A000000000000000000000000000000000000000000000 000000000000000000000000000000000000000     00000000                                                                                                                        000000000000000000
F0010000006584200001000086000490200013050500000000000000000201412040002001PROV. DE PAPELES ANDINA S.A.                      D000000000759100000000000000000000100010010000000000000000000000F0010000006584200120141204000101 00000000000000000000000000000000000000000000000000000000000000000000000000000000000000000000000000000000000000000N 00000000000NCONT   00    00000000000          00000000000000000000000000000000000000000000 000000000000000A000000000000000000000000000000000000000000000 000000000000000000000000000000000000000     00000000                                                                                                                        000000000000000000
F0010000006584200002000086000490200041450500000000000000000201412040002001PROV. DE PAPELES ANDINA S.A.                      C000000000685000000000000000000000100010010000000000000000000000F0010000006584200220141204000101 00000000000000000000000000000000000000000000000000000000000000000000000000000000000000000000000000000000000000000N 00000000000NCONT   00    00000000000          00000000000000000000000000000000000000000000 000000000000000A000000000000000000000000000000000000000000000 000000000000000000000000000000000000000     00000000                                                                                                                        000000000000000000
F0010000006584200003000086000490200042505000000000000000000201412040002001PROV. DE PAPELES ANDINA S.A.                      C000000000074100000000000000000000100010010000000000000000000000F0010000006584200320141204000101 00000000000000000000000000000000000000000000000000000000000000000000000000000000000000000000000000000000000000000N 00000000000NCONT   00    00000000000          00000000000000000000000000000000000000000000 000000000000000A000000000000000000000000000000000000000000000 000000000000000000000000000000000000000     00000000                                                                                                                        000000000000000000
F0010000006584200004000086000490200023658300000000000000000201412040002001PROV. DE PAPELES ANDINA S.A.                      C000000000005500000000000000000000100010010000000000000000000000F0010000006584200420141204000101 00000000000000000000000000000000000000000000000000000000000000000000000000000000000000000000000000000000000000000N 00000000000NCONT   00    00000000000          00000000000000000000000000000000000000000000 000000000000000A000000000000000000000000000000000000000000000 000000000000000000000000000000000000000     00000000                                                                                                                        000000000000000000
