F0010000005888900001000081102758700013050500000000000000000201406160002001C.I. ABRACOL S.A EMA                              D000000071442600000000000000000000100010010000000000000000000000F0010000005888900120140616000101 00000000000000000000000000000000000000000000000000000000000000000000000000000000000000000000000000000000000000000N 00000000000NCONT   00    00000000000          00000000000000000000000000000000000000000000 000000000000000A000000000000000000000000000000000000000000000 000000000000000000000000000000000000000     00000000                                                                                                                        000000000000000000
F0010000005888900002000081102758700041450500000000000000000201406160002001C.I. ABRACOL S.A EMA                              C000000045700000000000000000000000100010010000000000000000000000F0010000005888900220140616000101 00000000000000000000000000000000000000000000000000000000000000000000000000000000000000000000000000000000000000000N 00000000000NCONT   00    00000000000          00000000000000000000000000000000000000000000 000000000000000A000000000000000000000000000000000000000000000 000000000000000000000000000000000000000     00000000                                                                                                                        000000000000000000
F0010000005888900003000081102758700041750100000000000000000201406160002001C.I. ABRACOL S.A EMA                              D000000001371000000000000000000000100010010000000000000000000000F0010000005888900320140616000101 00000000000000000000000000000000000000000000000000000000000000000000000000000000000000000000000000000000000000000N 00000000000NCONT   00    00000000000          00000000000000000000000000000000000000000000 000000000000000A000000000000000000000000000000000000000000000 000000000000000000000000000000000000000     00000000                                                                                                                        000000000000000000
F0010000005888900004000081102758700042505000000000000000000201406160002001C.I. ABRACOL S.A EMA                              C000000027113600000000000000000000100010010000000000000000000000F0010000005888900420140616000101 00000000000000000000000000000000000000000000000000000000000000000000000000000000000000000000000000000000000000000N 00000000000NCONT   00    00000000000          00000000000000000000000000000000000000000000 000000000000000A000000000000000000000000000000000000000000000 000000000000000000000000000000000000000     00000000                                                                                                                        000000000000000000
F0010000005888900005000081102758700023658300000000000000000201406160002001C.I. ABRACOL S.A EMA                              C000000000365600000000000000000000100010010000000000000000000000F0010000005888900520140616000101 00000000000000000000000000000000000000000000000000000000000000000000000000000000000000000000000000000000000000000N 00000000000NCONT   00    00000000000          00000000000000000000000000000000000000000000 000000000000000A000000000000000000000000000000000000000000000 000000000000000000000000000000000000000     00000000                                                                                                                        000000000000000000
F0010000005888900006000081102758700013552100000000000000000201406160002001C.I. ABRACOL S.A EMA                              D000000000365600000000000000000000100010010000000000000000000000F0010000005888900620140616000101 00000000000000000000000000000000000000000000000000000000000000000000000000000000000000000000000000000000000000000N 00000000000NCONT   00    00000000000          00000000000000000000000000000000000000000000 000000000000000A000000000000000000000000000000000000000000000 000000000000000000000000000000000000000     00000000                                                                                                                        000000000000000000
F0010000005927200001000086000089600013050500000000000000000201406160002001SIKA COLOMBIA S.A.                                D000000032230600000000000000000000100010010000000000000000000000F0010000005927200120140616000101 00000000000000000000000000000000000000000000000000000000000000000000000000000000000000000000000000000000000000000N 00000000000NCONT   00    00000000000          00000000000000000000000000000000000000000000 000000000000000A000000000000000000000000000000000000000000000 000000000000000000000000000000000000000     00000000                                                                                                                        000000000000000000
F0010000005927200002000086000089600041450500000000000000000201406160002001SIKA COLOMBIA S.A.                                C000000031200000000000000000000000100010010000000000000000000000F0010000005927200220140616000101 00000000000000000000000000000000000000000000000000000000000000000000000000000000000000000000000000000000000000000N 00000000000NCONT   00    00000000000          00000000000000000000000000000000000000000000 000000000000000A000000000000000000000000000000000000000000000 000000000000000000000000000000000000000     00000000                                                                                                                        000000000000000000
F0010000005927200003000086000089600042505000000000000000000201406160002001SIKA COLOMBIA S.A.                                C000000001030600000000000000000000100010010000000000000000000000F0010000005927200320140616000101 00000000000000000000000000000000000000000000000000000000000000000000000000000000000000000000000000000000000000000N 00000000000NCONT   00    00000000000          00000000000000000000000000000000000000000000 000000000000000A000000000000000000000000000000000000000000000 000000000000000000000000000000000000000     00000000                                                                                                                        000000000000000000
F0010000005927200004000086000089600023658300000000000000000201406160002001SIKA COLOMBIA S.A.                                C000000000249600000000000000000000100010010000000000000000000000F0010000005927200420140616000101 00000000000000000000000000000000000000000000000000000000000000000000000000000000000000000000000000000000000000000N 00000000000NCONT   00    00000000000          00000000000000000000000000000000000000000000 000000000000000A000000000000000000000000000000000000000000000 000000000000000000000000000000000000000     00000000                                                                                                                        000000000000000000
F0010000005927200005000086000089600013552100000000000000000201406160002001SIKA COLOMBIA S.A.                                D000000000249600000000000000000000100010010000000000000000000000F0010000005927200520140616000101 00000000000000000000000000000000000000000000000000000000000000000000000000000000000000000000000000000000000000000N 00000000000NCONT   00    00000000000          00000000000000000000000000000000000000000000 000000000000000A000000000000000000000000000000000000000000000 000000000000000000000000000000000000000     00000000                                                                                                                        000000000000000000
F0010000005927300001000086000089600013050500000000000000000201406160002001SIKA COLOMBIA S.A.                                D000000116604000000000000000000000100010010000000000000000000000F0010000005927300120140616000101 00000000000000000000000000000000000000000000000000000000000000000000000000000000000000000000000000000000000000000N 00000000000NCONT   00    00000000000          00000000000000000000000000000000000000000000 000000000000000A000000000000000000000000000000000000000000000 000000000000000000000000000000000000000     00000000                                                                                                                        000000000000000000
F0010000005927300002000086000089600041450500000000000000000201406160002001SIKA COLOMBIA S.A.                                C000000104578500000000000000000000100010010000000000000000000000F0010000005927300220140616000101 00000000000000000000000000000000000000000000000000000000000000000000000000000000000000000000000000000000000000000N 00000000000NCONT   00    00000000000          00000000000000000000000000000000000000000000 000000000000000A000000000000000000000000000000000000000000000 000000000000000000000000000000000000000     00000000                                                                                                                        000000000000000000
F0010000005927300003000086000089600042505000000000000000000201406160002001SIKA COLOMBIA S.A.                                C000000012025500000000000000000000100010010000000000000000000000F0010000005927300320140616000101 00000000000000000000000000000000000000000000000000000000000000000000000000000000000000000000000000000000000000000N 00000000000NCONT   00    00000000000          00000000000000000000000000000000000000000000 000000000000000A000000000000000000000000000000000000000000000 000000000000000000000000000000000000000     00000000                                                                                                                        000000000000000000
F0010000005927300004000086000089600023658300000000000000000201406160002001SIKA COLOMBIA S.A.                                C000000000836600000000000000000000100010010000000000000000000000F0010000005927300420140616000101 00000000000000000000000000000000000000000000000000000000000000000000000000000000000000000000000000000000000000000N 00000000000NCONT   00    00000000000          00000000000000000000000000000000000000000000 000000000000000A000000000000000000000000000000000000000000000 000000000000000000000000000000000000000     00000000                                                                                                                        000000000000000000
F0010000005927300005000086000089600013552100000000000000000201406160002001SIKA COLOMBIA S.A.                                D000000000836600000000000000000000100010010000000000000000000000F0010000005927300520140616000101 00000000000000000000000000000000000000000000000000000000000000000000000000000000000000000000000000000000000000000N 00000000000NCONT   00    00000000000          00000000000000000000000000000000000000000000 000000000000000A000000000000000000000000000000000000000000000 000000000000000000000000000000000000000     00000000                                                                                                                        000000000000000000
F0010000005927400001000090049854300013050500000000000000000201406160002001TRAPOS INDUSTRIALES DE COLOMBIA SAS               D000000022100000000000000000000000100010010000000000000000000000F0010000005927400120140616000101 00000000000000000000000000000000000000000000000000000000000000000000000000000000000000000000000000000000000000000N 00000000000NCONT   00    00000000000          00000000000000000000000000000000000000000000 000000000000000A000000000000000000000000000000000000000000000 000000000000000000000000000000000000000     00000000                                                                                                                        000000000000000000
F0010000005927400002000090049854300041450500000000000000000201406160002001TRAPOS INDUSTRIALES DE COLOMBIA SAS               C000000020000000000000000000000000100010010000000000000000000000F0010000005927400220140616000101 00000000000000000000000000000000000000000000000000000000000000000000000000000000000000000000000000000000000000000N 00000000000NCONT   00    00000000000          00000000000000000000000000000000000000000000 000000000000000A000000000000000000000000000000000000000000000 000000000000000000000000000000000000000     00000000                                                                                                                        000000000000000000
F0010000005927400003000090049854300042505000000000000000000201406160002001TRAPOS INDUSTRIALES DE COLOMBIA SAS               C000000002100000000000000000000000100010010000000000000000000000F0010000005927400320140616000101 00000000000000000000000000000000000000000000000000000000000000000000000000000000000000000000000000000000000000000N 00000000000NCONT   00    00000000000          00000000000000000000000000000000000000000000 000000000000000A000000000000000000000000000000000000000000000 000000000000000000000000000000000000000     00000000                                                                                                                        000000000000000000
F0010000005927400004000090049854300023658300000000000000000201406160002001TRAPOS INDUSTRIALES DE COLOMBIA SAS               C000000000160000000000000000000000100010010000000000000000000000F0010000005927400420140616000101 00000000000000000000000000000000000000000000000000000000000000000000000000000000000000000000000000000000000000000N 00000000000NCONT   00    00000000000          00000000000000000000000000000000000000000000 000000000000000A000000000000000000000000000000000000000000000 000000000000000000000000000000000000000     00000000                                                                                                                        000000000000000000
F0010000005927400005000090049854300013552100000000000000000201406160002001TRAPOS INDUSTRIALES DE COLOMBIA SAS               D000000000160000000000000000000000100010010000000000000000000000F0010000005927400520140616000101 00000000000000000000000000000000000000000000000000000000000000000000000000000000000000000000000000000000000000000N 00000000000NCONT   00    00000000000          00000000000000000000000000000000000000000000 000000000000000A000000000000000000000000000000000000000000000 000000000000000000000000000000000000000     00000000                                                                                                                        000000000000000000
F0010000005927500001000080022903500013050500000000000000000201406160002001TECNOGLASS S.A                                    D000000179910100000000000000000000100010010000000000000000000000F0010000005927500120140616000101 00000000000000000000000000000000000000000000000000000000000000000000000000000000000000000000000000000000000000000N 00000000000NCONT   00    00000000000          00000000000000000000000000000000000000000000 000000000000000A000000000000000000000000000000000000000000000 000000000000000000000000000000000000000     00000000                                                                                                                        000000000000000000
F0010000005927500002000080022903500041450500000000000000000201406160002001TECNOGLASS S.A                                    C000000157771900000000000000000000100010010000000000000000000000F0010000005927500220140616000101 00000000000000000000000000000000000000000000000000000000000000000000000000000000000000000000000000000000000000000N 00000000000NCONT   00    00000000000          00000000000000000000000000000000000000000000 000000000000000A000000000000000000000000000000000000000000000 000000000000000000000000000000000000000     00000000                                                                                                                        000000000000000000
F0010000005927500003000080022903500042505000000000000000000201406160002001TECNOGLASS S.A                                    C000000022138200000000000000000000100010010000000000000000000000F0010000005927500320140616000101 00000000000000000000000000000000000000000000000000000000000000000000000000000000000000000000000000000000000000000N 00000000000NCONT   00    00000000000          00000000000000000000000000000000000000000000 000000000000000A000000000000000000000000000000000000000000000 000000000000000000000000000000000000000     00000000                                                                                                                        000000000000000000
F0010000005927500004000080022903500023658300000000000000000201406160002001TECNOGLASS S.A                                    C000000001262200000000000000000000100010010000000000000000000000F0010000005927500420140616000101 00000000000000000000000000000000000000000000000000000000000000000000000000000000000000000000000000000000000000000N 00000000000NCONT   00    00000000000          00000000000000000000000000000000000000000000 000000000000000A000000000000000000000000000000000000000000000 000000000000000000000000000000000000000     00000000                                                                                                                        000000000000000000
F0010000005927500005000080022903500013552100000000000000000201406160002001TECNOGLASS S.A                                    D000000001262200000000000000000000100010010000000000000000000000F0010000005927500520140616000101 00000000000000000000000000000000000000000000000000000000000000000000000000000000000000000000000000000000000000000N 00000000000NCONT   00    00000000000          00000000000000000000000000000000000000000000 000000000000000A000000000000000000000000000000000000000000000 000000000000000000000000000000000000000     00000000                                                                                                                        000000000000000000
F0010000005927600001000086000089600013050500000000000000000201406160002001SIKA COLOMBIA S.A.                                D000000092764000000000000000000000100010010000000000000000000000F0010000005927600120140616000101 00000000000000000000000000000000000000000000000000000000000000000000000000000000000000000000000000000000000000000N 00000000000NCONT   00    00000000000          00000000000000000000000000000000000000000000 000000000000000A000000000000000000000000000000000000000000000 000000000000000000000000000000000000000     00000000                                                                                                                        000000000000000000
F0010000005927600002000086000089600041450500000000000000000201406160002001SIKA COLOMBIA S.A.                                C000000091064800000000000000000000100010010000000000000000000000F0010000005927600220140616000101 00000000000000000000000000000000000000000000000000000000000000000000000000000000000000000000000000000000000000000N 00000000000NCONT   00    00000000000          00000000000000000000000000000000000000000000 000000000000000A000000000000000000000000000000000000000000000 000000000000000000000000000000000000000     00000000                                                                                                                        000000000000000000
F0010000005927600003000086000089600042505000000000000000000201406160002001SIKA COLOMBIA S.A.                                C000000001699200000000000000000000100010010000000000000000000000F0010000005927600320140616000101 00000000000000000000000000000000000000000000000000000000000000000000000000000000000000000000000000000000000000000N 00000000000NCONT   00    00000000000          00000000000000000000000000000000000000000000 000000000000000A000000000000000000000000000000000000000000000 000000000000000000000000000000000000000     00000000                                                                                                                        000000000000000000
F0010000005927600004000086000089600023658300000000000000000201406160002001SIKA COLOMBIA S.A.                                C000000000728500000000000000000000100010010000000000000000000000F0010000005927600420140616000101 00000000000000000000000000000000000000000000000000000000000000000000000000000000000000000000000000000000000000000N 00000000000NCONT   00    00000000000          00000000000000000000000000000000000000000000 000000000000000A000000000000000000000000000000000000000000000 000000000000000000000000000000000000000     00000000                                                                                                                        000000000000000000
F0010000005927600005000086000089600013552100000000000000000201406160002001SIKA COLOMBIA S.A.                                D000000000728500000000000000000000100010010000000000000000000000F0010000005927600520140616000101 00000000000000000000000000000000000000000000000000000000000000000000000000000000000000000000000000000000000000000N 00000000000NCONT   00    00000000000          00000000000000000000000000000000000000000000 000000000000000A000000000000000000000000000000000000000000000 000000000000000000000000000000000000000     00000000                                                                                                                        000000000000000000
F0010000005927700001000003319910700011050500000000000000000201406160002001LUZ DARY JIMENEZ MARTINEZ                         D000000001100000000000000000000000100010010000000000000000000000F0010000005927700120140616000101 00000000000000000000000000000000000000000000000000000000000000000000000000000000000000000000000000000000000000000N 00000000000NCONT   00    00000000000          00000000000000000000000000000000000000000000 000000000000000A000000000000000000000000000000000000000000000 000000000000000000000000000000000000000     00000000                                                                                                                        000000000000000000
F0010000005927700002000003319910700041450500000000000000000201406160002001LUZ DARY JIMENEZ MARTINEZ                         C000000001000000000000000000000000100010010000000000000000000000F0010000005927700220140616000101 00000000000000000000000000000000000000000000000000000000000000000000000000000000000000000000000000000000000000000N 00000000000NCONT   00    00000000000          00000000000000000000000000000000000000000000 000000000000000A000000000000000000000000000000000000000000000 000000000000000000000000000000000000000     00000000                                                                                                                        000000000000000000
F0010000005927700003000003319910700042505000000000000000000201406160002001LUZ DARY JIMENEZ MARTINEZ                         C000000000100000000000000000000000100010010000000000000000000000F0010000005927700320140616000101 00000000000000000000000000000000000000000000000000000000000000000000000000000000000000000000000000000000000000000N 00000000000NCONT   00    00000000000          00000000000000000000000000000000000000000000 000000000000000A000000000000000000000000000000000000000000000 000000000000000000000000000000000000000     00000000                                                                                                                        000000000000000000
F0010000005927700004000003319910700023658300000000000000000201406160002001LUZ DARY JIMENEZ MARTINEZ                         C000000000008000000000000000000000100010010000000000000000000000F0010000005927700420140616000101 00000000000000000000000000000000000000000000000000000000000000000000000000000000000000000000000000000000000000000N 00000000000NCONT   00    00000000000          00000000000000000000000000000000000000000000 000000000000000A000000000000000000000000000000000000000000000 000000000000000000000000000000000000000     00000000                                                                                                                        000000000000000000
F0010000005927700005000003319910700013552100000000000000000201406160002001LUZ DARY JIMENEZ MARTINEZ                         D000000000008000000000000000000000100010010000000000000000000000F0010000005927700520140616000101 00000000000000000000000000000000000000000000000000000000000000000000000000000000000000000000000000000000000000000N 00000000000NCONT   00    00000000000          00000000000000000000000000000000000000000000 000000000000000A000000000000000000000000000000000000000000000 000000000000000000000000000000000000000     00000000                                                                                                                        000000000000000000
F0010000005927800001000090037110300011050500000000000000000201406160002001SURTINEGOCIOS  LO MAXIMO                          D000000010000000000000000000000000100010010000000000000000000000F0010000005927800120140616000101 00000000000000000000000000000000000000000000000000000000000000000000000000000000000000000000000000000000000000000N 00000000000NCONT   00    00000000000          00000000000000000000000000000000000000000000 000000000000000A000000000000000000000000000000000000000000000 000000000000000000000000000000000000000     00000000                                                                                                                        000000000000000000
F0010000005927800002000090037110300041450500000000000000000201406160002001SURTINEGOCIOS  LO MAXIMO                          C000000008000000000000000000000000100010010000000000000000000000F0010000005927800220140616000101 00000000000000000000000000000000000000000000000000000000000000000000000000000000000000000000000000000000000000000N 00000000000NCONT   00    00000000000          00000000000000000000000000000000000000000000 000000000000000A000000000000000000000000000000000000000000000 000000000000000000000000000000000000000     00000000                                                                                                                        000000000000000000
F0010000005927800003000090037110300042505000000000000000000201406160002001SURTINEGOCIOS  LO MAXIMO                          C000000002000000000000000000000000100010010000000000000000000000F0010000005927800320140616000101 00000000000000000000000000000000000000000000000000000000000000000000000000000000000000000000000000000000000000000N 00000000000NCONT   00    00000000000          00000000000000000000000000000000000000000000 000000000000000A000000000000000000000000000000000000000000000 000000000000000000000000000000000000000     00000000                                                                                                                        000000000000000000
F0010000005927800004000090037110300023658300000000000000000201406160002001SURTINEGOCIOS  LO MAXIMO                          C000000000064000000000000000000000100010010000000000000000000000F0010000005927800420140616000101 00000000000000000000000000000000000000000000000000000000000000000000000000000000000000000000000000000000000000000N 00000000000NCONT   00    00000000000          00000000000000000000000000000000000000000000 000000000000000A000000000000000000000000000000000000000000000 000000000000000000000000000000000000000     00000000                                                                                                                        000000000000000000
F0010000005927800005000090037110300013552100000000000000000201406160002001SURTINEGOCIOS  LO MAXIMO                          D000000000064000000000000000000000100010010000000000000000000000F0010000005927800520140616000101 00000000000000000000000000000000000000000000000000000000000000000000000000000000000000000000000000000000000000000N 00000000000NCONT   00    00000000000          00000000000000000000000000000000000000000000 000000000000000A000000000000000000000000000000000000000000000 000000000000000000000000000000000000000     00000000                                                                                                                        000000000000000000
F0010000005927900001000090037110300011050500000000000000000201406160002001SURTINEGOCIOS  LO MAXIMO                          D000000007000000000000000000000000100010010000000000000000000000F0010000005927900120140616000101 00000000000000000000000000000000000000000000000000000000000000000000000000000000000000000000000000000000000000000N 00000000000NCONT   00    00000000000          00000000000000000000000000000000000000000000 000000000000000A000000000000000000000000000000000000000000000 000000000000000000000000000000000000000     00000000                                                                                                                        000000000000000000
F0010000005927900002000090037110300041450500000000000000000201406160002001SURTINEGOCIOS  LO MAXIMO                          C000000006000000000000000000000000100010010000000000000000000000F0010000005927900220140616000101 00000000000000000000000000000000000000000000000000000000000000000000000000000000000000000000000000000000000000000N 00000000000NCONT   00    00000000000          00000000000000000000000000000000000000000000 000000000000000A000000000000000000000000000000000000000000000 000000000000000000000000000000000000000     00000000                                                                                                                        000000000000000000
F0010000005927900003000090037110300042505000000000000000000201406160002001SURTINEGOCIOS  LO MAXIMO                          C000000001000000000000000000000000100010010000000000000000000000F0010000005927900320140616000101 00000000000000000000000000000000000000000000000000000000000000000000000000000000000000000000000000000000000000000N 00000000000NCONT   00    00000000000          00000000000000000000000000000000000000000000 000000000000000A000000000000000000000000000000000000000000000 000000000000000000000000000000000000000     00000000                                                                                                                        000000000000000000
F0010000005927900004000090037110300023658300000000000000000201406160002001SURTINEGOCIOS  LO MAXIMO                          C000000000048000000000000000000000100010010000000000000000000000F0010000005927900420140616000101 00000000000000000000000000000000000000000000000000000000000000000000000000000000000000000000000000000000000000000N 00000000000NCONT   00    00000000000          00000000000000000000000000000000000000000000 000000000000000A000000000000000000000000000000000000000000000 000000000000000000000000000000000000000     00000000                                                                                                                        000000000000000000
F0010000005927900005000090037110300013552100000000000000000201406160002001SURTINEGOCIOS  LO MAXIMO                          D000000000048000000000000000000000100010010000000000000000000000F0010000005927900520140616000101 00000000000000000000000000000000000000000000000000000000000000000000000000000000000000000000000000000000000000000N 00000000000NCONT   00    00000000000          00000000000000000000000000000000000000000000 000000000000000A000000000000000000000000000000000000000000000 000000000000000000000000000000000000000     00000000                                                                                                                        000000000000000000
F0010000005928000001000080202486100011050500000000000000000201406160002001DISTRIBUIDORA RAMBAL LTDA                         D000000001500000000000000000000000100010010000000000000000000000F0010000005928000120140616000101 00000000000000000000000000000000000000000000000000000000000000000000000000000000000000000000000000000000000000000N 00000000000NCONT   00    00000000000          00000000000000000000000000000000000000000000 000000000000000A000000000000000000000000000000000000000000000 000000000000000000000000000000000000000     00000000                                                                                                                        000000000000000000
F0010000005928000002000080202486100041450500000000000000000201406160002001DISTRIBUIDORA RAMBAL LTDA                         C000000001400000000000000000000000100010010000000000000000000000F0010000005928000220140616000101 00000000000000000000000000000000000000000000000000000000000000000000000000000000000000000000000000000000000000000N 00000000000NCONT   00    00000000000          00000000000000000000000000000000000000000000 000000000000000A000000000000000000000000000000000000000000000 000000000000000000000000000000000000000     00000000                                                                                                                        000000000000000000
F0010000005928000003000080202486100042505000000000000000000201406160002001DISTRIBUIDORA RAMBAL LTDA                         C000000000100000000000000000000000100010010000000000000000000000F0010000005928000320140616000101 00000000000000000000000000000000000000000000000000000000000000000000000000000000000000000000000000000000000000000N 00000000000NCONT   00    00000000000          00000000000000000000000000000000000000000000 000000000000000A000000000000000000000000000000000000000000000 000000000000000000000000000000000000000     00000000                                                                                                                        000000000000000000
F0010000005928000004000080202486100023658300000000000000000201406160002001DISTRIBUIDORA RAMBAL LTDA                         C000000000011200000000000000000000100010010000000000000000000000F0010000005928000420140616000101 00000000000000000000000000000000000000000000000000000000000000000000000000000000000000000000000000000000000000000N 00000000000NCONT   00    00000000000          00000000000000000000000000000000000000000000 000000000000000A000000000000000000000000000000000000000000000 000000000000000000000000000000000000000     00000000                                                                                                                        000000000000000000
F0010000005928000005000080202486100013552100000000000000000201406160002001DISTRIBUIDORA RAMBAL LTDA                         D000000000011200000000000000000000100010010000000000000000000000F0010000005928000520140616000101 00000000000000000000000000000000000000000000000000000000000000000000000000000000000000000000000000000000000000000N 00000000000NCONT   00    00000000000          00000000000000000000000000000000000000000000 000000000000000A000000000000000000000000000000000000000000000 000000000000000000000000000000000000000     00000000                                                                                                                        000000000000000000
F0010000005928100001000090050144800011050500000000000000000201406160002001PLASTICOS JR ASOCIADOS SAS                        D000000005800000000000000000000000100010010000000000000000000000F0010000005928100120140616000101 00000000000000000000000000000000000000000000000000000000000000000000000000000000000000000000000000000000000000000N 00000000000NCONT   00    00000000000          00000000000000000000000000000000000000000000 000000000000000A000000000000000000000000000000000000000000000 000000000000000000000000000000000000000     00000000                                                                                                                        000000000000000000
F0010000005928100002000090050144800041450500000000000000000201406160002001PLASTICOS JR ASOCIADOS SAS                        C000000005100000000000000000000000100010010000000000000000000000F0010000005928100220140616000101 00000000000000000000000000000000000000000000000000000000000000000000000000000000000000000000000000000000000000000N 00000000000NCONT   00    00000000000          00000000000000000000000000000000000000000000 000000000000000A000000000000000000000000000000000000000000000 000000000000000000000000000000000000000     00000000                                                                                                                        000000000000000000
F0010000005928100003000090050144800042505000000000000000000201406160002001PLASTICOS JR ASOCIADOS SAS                        C000000000700000000000000000000000100010010000000000000000000000F0010000005928100320140616000101 00000000000000000000000000000000000000000000000000000000000000000000000000000000000000000000000000000000000000000N 00000000000NCONT   00    00000000000          00000000000000000000000000000000000000000000 000000000000000A000000000000000000000000000000000000000000000 000000000000000000000000000000000000000     00000000                                                                                                                        000000000000000000
F0010000005928100004000090050144800023658300000000000000000201406160002001PLASTICOS JR ASOCIADOS SAS                        C000000000040800000000000000000000100010010000000000000000000000F0010000005928100420140616000101 00000000000000000000000000000000000000000000000000000000000000000000000000000000000000000000000000000000000000000N 00000000000NCONT   00    00000000000          00000000000000000000000000000000000000000000 000000000000000A000000000000000000000000000000000000000000000 000000000000000000000000000000000000000     00000000                                                                                                                        000000000000000000
F0010000005928100005000090050144800013552100000000000000000201406160002001PLASTICOS JR ASOCIADOS SAS                        D000000000040800000000000000000000100010010000000000000000000000F0010000005928100520140616000101 00000000000000000000000000000000000000000000000000000000000000000000000000000000000000000000000000000000000000000N 00000000000NCONT   00    00000000000          00000000000000000000000000000000000000000000 000000000000000A000000000000000000000000000000000000000000000 000000000000000000000000000000000000000     00000000                                                                                                                        000000000000000000
F0010000005928200001000090036991700011050500000000000000000201406160002001DELTA INTERNACIONAL  S.A.S                        D000000003000000000000000000000000100010010000000000000000000000F0010000005928200120140616000101 00000000000000000000000000000000000000000000000000000000000000000000000000000000000000000000000000000000000000000N 00000000000NCONT   00    00000000000          00000000000000000000000000000000000000000000 000000000000000A000000000000000000000000000000000000000000000 000000000000000000000000000000000000000     00000000                                                                                                                        000000000000000000
F0010000005928200002000090036991700041450500000000000000000201406160002001DELTA INTERNACIONAL  S.A.S                        C000000002600000000000000000000000100010010000000000000000000000F0010000005928200220140616000101 00000000000000000000000000000000000000000000000000000000000000000000000000000000000000000000000000000000000000000N 00000000000NCONT   00    00000000000          00000000000000000000000000000000000000000000 000000000000000A000000000000000000000000000000000000000000000 000000000000000000000000000000000000000     00000000                                                                                                                        000000000000000000
F0010000005928200003000090036991700042505000000000000000000201406160002001DELTA INTERNACIONAL  S.A.S                        C000000000400000000000000000000000100010010000000000000000000000F0010000005928200320140616000101 00000000000000000000000000000000000000000000000000000000000000000000000000000000000000000000000000000000000000000N 00000000000NCONT   00    00000000000          00000000000000000000000000000000000000000000 000000000000000A000000000000000000000000000000000000000000000 000000000000000000000000000000000000000     00000000                                                                                                                        000000000000000000
F0010000005928200004000090036991700023658300000000000000000201406160002001DELTA INTERNACIONAL  S.A.S                        C000000000020800000000000000000000100010010000000000000000000000F0010000005928200420140616000101 00000000000000000000000000000000000000000000000000000000000000000000000000000000000000000000000000000000000000000N 00000000000NCONT   00    00000000000          00000000000000000000000000000000000000000000 000000000000000A000000000000000000000000000000000000000000000 000000000000000000000000000000000000000     00000000                                                                                                                        000000000000000000
F0010000005928200005000090036991700013552100000000000000000201406160002001DELTA INTERNACIONAL  S.A.S                        D000000000020800000000000000000000100010010000000000000000000000F0010000005928200520140616000101 00000000000000000000000000000000000000000000000000000000000000000000000000000000000000000000000000000000000000000N 00000000000NCONT   00    00000000000          00000000000000000000000000000000000000000000 000000000000000A000000000000000000000000000000000000000000000 000000000000000000000000000000000000000     00000000                                                                                                                        000000000000000000
F0010000005928300001000000870907300011050500000000000000000201406160002001SURTIDOR FERRETERO                                D000000002300000000000000000000000100010010000000000000000000000F0010000005928300120140616000101 00000000000000000000000000000000000000000000000000000000000000000000000000000000000000000000000000000000000000000N 00000000000NCONT   00    00000000000          00000000000000000000000000000000000000000000 000000000000000A000000000000000000000000000000000000000000000 000000000000000000000000000000000000000     00000000                                                                                                                        000000000000000000
F0010000005928300002000000870907300041450500000000000000000201406160002001SURTIDOR FERRETERO                                C000000001500000000000000000000000100010010000000000000000000000F0010000005928300220140616000101 00000000000000000000000000000000000000000000000000000000000000000000000000000000000000000000000000000000000000000N 00000000000NCONT   00    00000000000          00000000000000000000000000000000000000000000 000000000000000A000000000000000000000000000000000000000000000 000000000000000000000000000000000000000     00000000                                                                                                                        000000000000000000
F0010000005928300003000000870907300042505000000000000000000201406160002001SURTIDOR FERRETERO                                C000000000800000000000000000000000100010010000000000000000000000F0010000005928300320140616000101 00000000000000000000000000000000000000000000000000000000000000000000000000000000000000000000000000000000000000000N 00000000000NCONT   00    00000000000          00000000000000000000000000000000000000000000 000000000000000A000000000000000000000000000000000000000000000 000000000000000000000000000000000000000     00000000                                                                                                                        000000000000000000
F0010000005928300004000000870907300023658300000000000000000201406160002001SURTIDOR FERRETERO                                C000000000012000000000000000000000100010010000000000000000000000F0010000005928300420140616000101 00000000000000000000000000000000000000000000000000000000000000000000000000000000000000000000000000000000000000000N 00000000000NCONT   00    00000000000          00000000000000000000000000000000000000000000 000000000000000A000000000000000000000000000000000000000000000 000000000000000000000000000000000000000     00000000                                                                                                                        000000000000000000
F0010000005928300005000000870907300013552100000000000000000201406160002001SURTIDOR FERRETERO                                D000000000012000000000000000000000100010010000000000000000000000F0010000005928300520140616000101 00000000000000000000000000000000000000000000000000000000000000000000000000000000000000000000000000000000000000000N 00000000000NCONT   00    00000000000          00000000000000000000000000000000000000000000 000000000000000A000000000000000000000000000000000000000000000 000000000000000000000000000000000000000     00000000                                                                                                                        000000000000000000
F0010000005928400001000000870907300011050500000000000000000201406160002001SURTIDOR FERRETERO                                D000000016000000000000000000000000100010010000000000000000000000F0010000005928400120140616000101 00000000000000000000000000000000000000000000000000000000000000000000000000000000000000000000000000000000000000000N 00000000000NCONT   00    00000000000          00000000000000000000000000000000000000000000 000000000000000A000000000000000000000000000000000000000000000 000000000000000000000000000000000000000     00000000                                                                                                                        000000000000000000
F0010000005928400002000000870907300041450500000000000000000201406160002001SURTIDOR FERRETERO                                C000000010100000000000000000000000100010010000000000000000000000F0010000005928400220140616000101 00000000000000000000000000000000000000000000000000000000000000000000000000000000000000000000000000000000000000000N 00000000000NCONT   00    00000000000          00000000000000000000000000000000000000000000 000000000000000A000000000000000000000000000000000000000000000 000000000000000000000000000000000000000     00000000                                                                                                                        000000000000000000
F0010000005928400003000000870907300042505000000000000000000201406160002001SURTIDOR FERRETERO                                C000000005900000000000000000000000100010010000000000000000000000F0010000005928400320140616000101 00000000000000000000000000000000000000000000000000000000000000000000000000000000000000000000000000000000000000000N 00000000000NCONT   00    00000000000          00000000000000000000000000000000000000000000 000000000000000A000000000000000000000000000000000000000000000 000000000000000000000000000000000000000     00000000                                                                                                                        000000000000000000
F0010000005928400004000000870907300023658300000000000000000201406160002001SURTIDOR FERRETERO                                C000000000080800000000000000000000100010010000000000000000000000F0010000005928400420140616000101 00000000000000000000000000000000000000000000000000000000000000000000000000000000000000000000000000000000000000000N 00000000000NCONT   00    00000000000          00000000000000000000000000000000000000000000 000000000000000A000000000000000000000000000000000000000000000 000000000000000000000000000000000000000     00000000                                                                                                                        000000000000000000
F0010000005928400005000000870907300013552100000000000000000201406160002001SURTIDOR FERRETERO                                D000000000080800000000000000000000100010010000000000000000000000F0010000005928400520140616000101 00000000000000000000000000000000000000000000000000000000000000000000000000000000000000000000000000000000000000000N 00000000000NCONT   00    00000000000          00000000000000000000000000000000000000000000 000000000000000A000000000000000000000000000000000000000000000 000000000000000000000000000000000000000     00000000                                                                                                                        000000000000000000
F0010000005928500001000090034602400011050500000000000000000201406160002001LA CUSTODIA                                       D000000001000000000000000000000000100010010000000000000000000000F0010000005928500120140616000101 00000000000000000000000000000000000000000000000000000000000000000000000000000000000000000000000000000000000000000N 00000000000NCONT   00    00000000000          00000000000000000000000000000000000000000000 000000000000000A000000000000000000000000000000000000000000000 000000000000000000000000000000000000000     00000000                                                                                                                        000000000000000000
F0010000005928500002000090034602400041450500000000000000000201406160002001LA CUSTODIA                                       C000000000900000000000000000000000100010010000000000000000000000F0010000005928500220140616000101 00000000000000000000000000000000000000000000000000000000000000000000000000000000000000000000000000000000000000000N 00000000000NCONT   00    00000000000          00000000000000000000000000000000000000000000 000000000000000A000000000000000000000000000000000000000000000 000000000000000000000000000000000000000     00000000                                                                                                                        000000000000000000
F0010000005928500003000090034602400042505000000000000000000201406160002001LA CUSTODIA                                       C000000000100000000000000000000000100010010000000000000000000000F0010000005928500320140616000101 00000000000000000000000000000000000000000000000000000000000000000000000000000000000000000000000000000000000000000N 00000000000NCONT   00    00000000000          00000000000000000000000000000000000000000000 000000000000000A000000000000000000000000000000000000000000000 000000000000000000000000000000000000000     00000000                                                                                                                        000000000000000000
F0010000005928500004000090034602400023658300000000000000000201406160002001LA CUSTODIA                                       C000000000007200000000000000000000100010010000000000000000000000F0010000005928500420140616000101 00000000000000000000000000000000000000000000000000000000000000000000000000000000000000000000000000000000000000000N 00000000000NCONT   00    00000000000          00000000000000000000000000000000000000000000 000000000000000A000000000000000000000000000000000000000000000 000000000000000000000000000000000000000     00000000                                                                                                                        000000000000000000
F0010000005928500005000090034602400013552100000000000000000201406160002001LA CUSTODIA                                       D000000000007200000000000000000000100010010000000000000000000000F0010000005928500520140616000101 00000000000000000000000000000000000000000000000000000000000000000000000000000000000000000000000000000000000000000N 00000000000NCONT   00    00000000000          00000000000000000000000000000000000000000000 000000000000000A000000000000000000000000000000000000000000000 000000000000000000000000000000000000000     00000000                                                                                                                        000000000000000000
F0010000005928600001000007200023300011050500000000000000000201406160002001WILLIAM ORTEGA                                    D000000004600000000000000000000000100010010000000000000000000000F0010000005928600120140616000101 00000000000000000000000000000000000000000000000000000000000000000000000000000000000000000000000000000000000000000N 00000000000NCONT   00    00000000000          00000000000000000000000000000000000000000000 000000000000000A000000000000000000000000000000000000000000000 000000000000000000000000000000000000000     00000000                                                                                                                        000000000000000000
F0010000005928600002000007200023300041450500000000000000000201406160002001WILLIAM ORTEGA                                    C000000004000000000000000000000000100010010000000000000000000000F0010000005928600220140616000101 00000000000000000000000000000000000000000000000000000000000000000000000000000000000000000000000000000000000000000N 00000000000NCONT   00    00000000000          00000000000000000000000000000000000000000000 000000000000000A000000000000000000000000000000000000000000000 000000000000000000000000000000000000000     00000000                                                                                                                        000000000000000000
F0010000005928600003000007200023300042505000000000000000000201406160002001WILLIAM ORTEGA                                    C000000000600000000000000000000000100010010000000000000000000000F0010000005928600320140616000101 00000000000000000000000000000000000000000000000000000000000000000000000000000000000000000000000000000000000000000N 00000000000NCONT   00    00000000000          00000000000000000000000000000000000000000000 000000000000000A000000000000000000000000000000000000000000000 000000000000000000000000000000000000000     00000000                                                                                                                        000000000000000000
F0010000005928600004000007200023300023658300000000000000000201406160002001WILLIAM ORTEGA                                    C000000000032000000000000000000000100010010000000000000000000000F0010000005928600420140616000101 00000000000000000000000000000000000000000000000000000000000000000000000000000000000000000000000000000000000000000N 00000000000NCONT   00    00000000000          00000000000000000000000000000000000000000000 000000000000000A000000000000000000000000000000000000000000000 000000000000000000000000000000000000000     00000000                                                                                                                        000000000000000000
F0010000005928600005000007200023300013552100000000000000000201406160002001WILLIAM ORTEGA                                    D000000000032000000000000000000000100010010000000000000000000000F0010000005928600520140616000101 00000000000000000000000000000000000000000000000000000000000000000000000000000000000000000000000000000000000000000N 00000000000NCONT   00    00000000000          00000000000000000000000000000000000000000000 000000000000000A000000000000000000000000000000000000000000000 000000000000000000000000000000000000000     00000000                                                                                                                        000000000000000000
F0010000005928700001000004175790100011050500000000000000000201406160002001ROSIRIS FERIA HOYOS  (COSM. SHILLER)              D000000000900000000000000000000000100010010000000000000000000000F0010000005928700120140616000101 00000000000000000000000000000000000000000000000000000000000000000000000000000000000000000000000000000000000000000N 00000000000NCONT   00    00000000000          00000000000000000000000000000000000000000000 000000000000000A000000000000000000000000000000000000000000000 000000000000000000000000000000000000000     00000000                                                                                                                        000000000000000000
F0010000005928700002000004175790100041450500000000000000000201406160002001ROSIRIS FERIA HOYOS  (COSM. SHILLER)              C000000000800000000000000000000000100010010000000000000000000000F0010000005928700220140616000101 00000000000000000000000000000000000000000000000000000000000000000000000000000000000000000000000000000000000000000N 00000000000NCONT   00    00000000000          00000000000000000000000000000000000000000000 000000000000000A000000000000000000000000000000000000000000000 000000000000000000000000000000000000000     00000000                                                                                                                        000000000000000000
F0010000005928700003000004175790100042505000000000000000000201406160002001ROSIRIS FERIA HOYOS  (COSM. SHILLER)              C000000000100000000000000000000000100010010000000000000000000000F0010000005928700320140616000101 00000000000000000000000000000000000000000000000000000000000000000000000000000000000000000000000000000000000000000N 00000000000NCONT   00    00000000000          00000000000000000000000000000000000000000000 000000000000000A000000000000000000000000000000000000000000000 000000000000000000000000000000000000000     00000000                                                                                                                        000000000000000000
F0010000005928700004000004175790100023658300000000000000000201406160002001ROSIRIS FERIA HOYOS  (COSM. SHILLER)              C000000000006400000000000000000000100010010000000000000000000000F0010000005928700420140616000101 00000000000000000000000000000000000000000000000000000000000000000000000000000000000000000000000000000000000000000N 00000000000NCONT   00    00000000000          00000000000000000000000000000000000000000000 000000000000000A000000000000000000000000000000000000000000000 000000000000000000000000000000000000000     00000000                                                                                                                        000000000000000000
F0010000005928700005000004175790100013552100000000000000000201406160002001ROSIRIS FERIA HOYOS  (COSM. SHILLER)              D000000000006400000000000000000000100010010000000000000000000000F0010000005928700520140616000101 00000000000000000000000000000000000000000000000000000000000000000000000000000000000000000000000000000000000000000N 00000000000NCONT   00    00000000000          00000000000000000000000000000000000000000000 000000000000000A000000000000000000000000000000000000000000000 000000000000000000000000000000000000000     00000000                                                                                                                        000000000000000000
F0010000005928800001000000431178400011050500000000000000000201406160002001EFRAIN ALVAREZ                                    D000000000900000000000000000000000100010010000000000000000000000F0010000005928800120140616000101 00000000000000000000000000000000000000000000000000000000000000000000000000000000000000000000000000000000000000000N 00000000000NCONT   00    00000000000          00000000000000000000000000000000000000000000 000000000000000A000000000000000000000000000000000000000000000 000000000000000000000000000000000000000     00000000                                                                                                                        000000000000000000
F0010000005928800002000000431178400041450500000000000000000201406160002001EFRAIN ALVAREZ                                    C000000000850000000000000000000000100010010000000000000000000000F0010000005928800220140616000101 00000000000000000000000000000000000000000000000000000000000000000000000000000000000000000000000000000000000000000N 00000000000NCONT   00    00000000000          00000000000000000000000000000000000000000000 000000000000000A000000000000000000000000000000000000000000000 000000000000000000000000000000000000000     00000000                                                                                                                        000000000000000000
F0010000005928800003000000431178400042505000000000000000000201406160002001EFRAIN ALVAREZ                                    C000000000050000000000000000000000100010010000000000000000000000F0010000005928800320140616000101 00000000000000000000000000000000000000000000000000000000000000000000000000000000000000000000000000000000000000000N 00000000000NCONT   00    00000000000          00000000000000000000000000000000000000000000 000000000000000A000000000000000000000000000000000000000000000 000000000000000000000000000000000000000     00000000                                                                                                                        000000000000000000
F0010000005928800004000000431178400023658300000000000000000201406160002001EFRAIN ALVAREZ                                    C000000000006800000000000000000000100010010000000000000000000000F0010000005928800420140616000101 00000000000000000000000000000000000000000000000000000000000000000000000000000000000000000000000000000000000000000N 00000000000NCONT   00    00000000000          00000000000000000000000000000000000000000000 000000000000000A000000000000000000000000000000000000000000000 000000000000000000000000000000000000000     00000000                                                                                                                        000000000000000000
F0010000005928800005000000431178400013552100000000000000000201406160002001EFRAIN ALVAREZ                                    D000000000006800000000000000000000100010010000000000000000000000F0010000005928800520140616000101 00000000000000000000000000000000000000000000000000000000000000000000000000000000000000000000000000000000000000000N 00000000000NCONT   00    00000000000          00000000000000000000000000000000000000000000 000000000000000A000000000000000000000000000000000000000000000 000000000000000000000000000000000000000     00000000                                                                                                                        000000000000000000
F0010000005928900001000000431178400011050500000000000000000201406160002001EFRAIN ALVAREZ                                    D000000002400000000000000000000000100010010000000000000000000000F0010000005928900120140616000101 00000000000000000000000000000000000000000000000000000000000000000000000000000000000000000000000000000000000000000N 00000000000NCONT   00    00000000000          00000000000000000000000000000000000000000000 000000000000000A000000000000000000000000000000000000000000000 000000000000000000000000000000000000000     00000000                                                                                                                        000000000000000000
F0010000005928900002000000431178400041450500000000000000000201406160002001EFRAIN ALVAREZ                                    C000000002300000000000000000000000100010010000000000000000000000F0010000005928900220140616000101 00000000000000000000000000000000000000000000000000000000000000000000000000000000000000000000000000000000000000000N 00000000000NCONT   00    00000000000          00000000000000000000000000000000000000000000 000000000000000A000000000000000000000000000000000000000000000 000000000000000000000000000000000000000     00000000                                                                                                                        000000000000000000
F0010000005928900003000000431178400042505000000000000000000201406160002001EFRAIN ALVAREZ                                    C000000000100000000000000000000000100010010000000000000000000000F0010000005928900320140616000101 00000000000000000000000000000000000000000000000000000000000000000000000000000000000000000000000000000000000000000N 00000000000NCONT   00    00000000000          00000000000000000000000000000000000000000000 000000000000000A000000000000000000000000000000000000000000000 000000000000000000000000000000000000000     00000000                                                                                                                        000000000000000000
F0010000005928900004000000431178400023658300000000000000000201406160002001EFRAIN ALVAREZ                                    C000000000018400000000000000000000100010010000000000000000000000F0010000005928900420140616000101 00000000000000000000000000000000000000000000000000000000000000000000000000000000000000000000000000000000000000000N 00000000000NCONT   00    00000000000          00000000000000000000000000000000000000000000 000000000000000A000000000000000000000000000000000000000000000 000000000000000000000000000000000000000     00000000                                                                                                                        000000000000000000
F0010000005928900005000000431178400013552100000000000000000201406160002001EFRAIN ALVAREZ                                    D000000000018400000000000000000000100010010000000000000000000000F0010000005928900520140616000101 00000000000000000000000000000000000000000000000000000000000000000000000000000000000000000000000000000000000000000N 00000000000NCONT   00    00000000000          00000000000000000000000000000000000000000000 000000000000000A000000000000000000000000000000000000000000000 000000000000000000000000000000000000000     00000000                                                                                                                        000000000000000000
F0010000005929000001000000431178400011050500000000000000000201406160002001EFRAIN ALVAREZ                                    D000000002500000000000000000000000100010010000000000000000000000F0010000005929000120140616000101 00000000000000000000000000000000000000000000000000000000000000000000000000000000000000000000000000000000000000000N 00000000000NCONT   00    00000000000          00000000000000000000000000000000000000000000 000000000000000A000000000000000000000000000000000000000000000 000000000000000000000000000000000000000     00000000                                                                                                                        000000000000000000
F0010000005929000002000000431178400041450500000000000000000201406160002001EFRAIN ALVAREZ                                    C000000002300000000000000000000000100010010000000000000000000000F0010000005929000220140616000101 00000000000000000000000000000000000000000000000000000000000000000000000000000000000000000000000000000000000000000N 00000000000NCONT   00    00000000000          00000000000000000000000000000000000000000000 000000000000000A000000000000000000000000000000000000000000000 000000000000000000000000000000000000000     00000000                                                                                                                        000000000000000000
F0010000005929000003000000431178400042505000000000000000000201406160002001EFRAIN ALVAREZ                                    C000000000200000000000000000000000100010010000000000000000000000F0010000005929000320140616000101 00000000000000000000000000000000000000000000000000000000000000000000000000000000000000000000000000000000000000000N 00000000000NCONT   00    00000000000          00000000000000000000000000000000000000000000 000000000000000A000000000000000000000000000000000000000000000 000000000000000000000000000000000000000     00000000                                                                                                                        000000000000000000
F0010000005929000004000000431178400023658300000000000000000201406160002001EFRAIN ALVAREZ                                    C000000000018400000000000000000000100010010000000000000000000000F0010000005929000420140616000101 00000000000000000000000000000000000000000000000000000000000000000000000000000000000000000000000000000000000000000N 00000000000NCONT   00    00000000000          00000000000000000000000000000000000000000000 000000000000000A000000000000000000000000000000000000000000000 000000000000000000000000000000000000000     00000000                                                                                                                        000000000000000000
F0010000005929000005000000431178400013552100000000000000000201406160002001EFRAIN ALVAREZ                                    D000000000018400000000000000000000100010010000000000000000000000F0010000005929000520140616000101 00000000000000000000000000000000000000000000000000000000000000000000000000000000000000000000000000000000000000000N 00000000000NCONT   00    00000000000          00000000000000000000000000000000000000000000 000000000000000A000000000000000000000000000000000000000000000 000000000000000000000000000000000000000     00000000                                                                                                                        000000000000000000
F0010000005929100001000000431178400011050500000000000000000201406160002001EFRAIN ALVAREZ                                    D000000001300000000000000000000000100010010000000000000000000000F0010000005929100120140616000101 00000000000000000000000000000000000000000000000000000000000000000000000000000000000000000000000000000000000000000N 00000000000NCONT   00    00000000000          00000000000000000000000000000000000000000000 000000000000000A000000000000000000000000000000000000000000000 000000000000000000000000000000000000000     00000000                                                                                                                        000000000000000000
F0010000005929100002000000431178400041450500000000000000000201406160002001EFRAIN ALVAREZ                                    C000000001200000000000000000000000100010010000000000000000000000F0010000005929100220140616000101 00000000000000000000000000000000000000000000000000000000000000000000000000000000000000000000000000000000000000000N 00000000000NCONT   00    00000000000          00000000000000000000000000000000000000000000 000000000000000A000000000000000000000000000000000000000000000 000000000000000000000000000000000000000     00000000                                                                                                                        000000000000000000
F0010000005929100003000000431178400042505000000000000000000201406160002001EFRAIN ALVAREZ                                    C000000000100000000000000000000000100010010000000000000000000000F0010000005929100320140616000101 00000000000000000000000000000000000000000000000000000000000000000000000000000000000000000000000000000000000000000N 00000000000NCONT   00    00000000000          00000000000000000000000000000000000000000000 000000000000000A000000000000000000000000000000000000000000000 000000000000000000000000000000000000000     00000000                                                                                                                        000000000000000000
F0010000005929100004000000431178400023658300000000000000000201406160002001EFRAIN ALVAREZ                                    C000000000009600000000000000000000100010010000000000000000000000F0010000005929100420140616000101 00000000000000000000000000000000000000000000000000000000000000000000000000000000000000000000000000000000000000000N 00000000000NCONT   00    00000000000          00000000000000000000000000000000000000000000 000000000000000A000000000000000000000000000000000000000000000 000000000000000000000000000000000000000     00000000                                                                                                                        000000000000000000
F0010000005929100005000000431178400013552100000000000000000201406160002001EFRAIN ALVAREZ                                    D000000000009600000000000000000000100010010000000000000000000000F0010000005929100520140616000101 00000000000000000000000000000000000000000000000000000000000000000000000000000000000000000000000000000000000000000N 00000000000NCONT   00    00000000000          00000000000000000000000000000000000000000000 000000000000000A000000000000000000000000000000000000000000000 000000000000000000000000000000000000000     00000000                                                                                                                        000000000000000000
F0010000005929200001000000431178400011050500000000000000000201406160002001EFRAIN ALVAREZ                                    D000000001000000000000000000000000100010010000000000000000000000F0010000005929200120140616000101 00000000000000000000000000000000000000000000000000000000000000000000000000000000000000000000000000000000000000000N 00000000000NCONT   00    00000000000          00000000000000000000000000000000000000000000 000000000000000A000000000000000000000000000000000000000000000 000000000000000000000000000000000000000     00000000                                                                                                                        000000000000000000
F0010000005929200002000000431178400041450500000000000000000201406160002001EFRAIN ALVAREZ                                    C000000000850000000000000000000000100010010000000000000000000000F0010000005929200220140616000101 00000000000000000000000000000000000000000000000000000000000000000000000000000000000000000000000000000000000000000N 00000000000NCONT   00    00000000000          00000000000000000000000000000000000000000000 000000000000000A000000000000000000000000000000000000000000000 000000000000000000000000000000000000000     00000000                                                                                                                        000000000000000000
F0010000005929200003000000431178400042505000000000000000000201406160002001EFRAIN ALVAREZ                                    C000000000150000000000000000000000100010010000000000000000000000F0010000005929200320140616000101 00000000000000000000000000000000000000000000000000000000000000000000000000000000000000000000000000000000000000000N 00000000000NCONT   00    00000000000          00000000000000000000000000000000000000000000 000000000000000A000000000000000000000000000000000000000000000 000000000000000000000000000000000000000     00000000                                                                                                                        000000000000000000
F0010000005929200004000000431178400023658300000000000000000201406160002001EFRAIN ALVAREZ                                    C000000000006800000000000000000000100010010000000000000000000000F0010000005929200420140616000101 00000000000000000000000000000000000000000000000000000000000000000000000000000000000000000000000000000000000000000N 00000000000NCONT   00    00000000000          00000000000000000000000000000000000000000000 000000000000000A000000000000000000000000000000000000000000000 000000000000000000000000000000000000000     00000000                                                                                                                        000000000000000000
F0010000005929200005000000431178400013552100000000000000000201406160002001EFRAIN ALVAREZ                                    D000000000006800000000000000000000100010010000000000000000000000F0010000005929200520140616000101 00000000000000000000000000000000000000000000000000000000000000000000000000000000000000000000000000000000000000000N 00000000000NCONT   00    00000000000          00000000000000000000000000000000000000000000 000000000000000A000000000000000000000000000000000000000000000 000000000000000000000000000000000000000     00000000                                                                                                                        000000000000000000
F0010000005929300001000000431178400011050500000000000000000201406160002001EFRAIN ALVAREZ                                    D000000001800000000000000000000000100010010000000000000000000000F0010000005929300120140616000101 00000000000000000000000000000000000000000000000000000000000000000000000000000000000000000000000000000000000000000N 00000000000NCONT   00    00000000000          00000000000000000000000000000000000000000000 000000000000000A000000000000000000000000000000000000000000000 000000000000000000000000000000000000000     00000000                                                                                                                        000000000000000000
F0010000005929300002000000431178400041450500000000000000000201406160002001EFRAIN ALVAREZ                                    C000000001700000000000000000000000100010010000000000000000000000F0010000005929300220140616000101 00000000000000000000000000000000000000000000000000000000000000000000000000000000000000000000000000000000000000000N 00000000000NCONT   00    00000000000          00000000000000000000000000000000000000000000 000000000000000A000000000000000000000000000000000000000000000 000000000000000000000000000000000000000     00000000                                                                                                                        000000000000000000
F0010000005929300003000000431178400042505000000000000000000201406160002001EFRAIN ALVAREZ                                    C000000000100000000000000000000000100010010000000000000000000000F0010000005929300320140616000101 00000000000000000000000000000000000000000000000000000000000000000000000000000000000000000000000000000000000000000N 00000000000NCONT   00    00000000000          00000000000000000000000000000000000000000000 000000000000000A000000000000000000000000000000000000000000000 000000000000000000000000000000000000000     00000000                                                                                                                        000000000000000000
F0010000005929300004000000431178400023658300000000000000000201406160002001EFRAIN ALVAREZ                                    C000000000013600000000000000000000100010010000000000000000000000F0010000005929300420140616000101 00000000000000000000000000000000000000000000000000000000000000000000000000000000000000000000000000000000000000000N 00000000000NCONT   00    00000000000          00000000000000000000000000000000000000000000 000000000000000A000000000000000000000000000000000000000000000 000000000000000000000000000000000000000     00000000                                                                                                                        000000000000000000
F0010000005929300005000000431178400013552100000000000000000201406160002001EFRAIN ALVAREZ                                    D000000000013600000000000000000000100010010000000000000000000000F0010000005929300520140616000101 00000000000000000000000000000000000000000000000000000000000000000000000000000000000000000000000000000000000000000N 00000000000NCONT   00    00000000000          00000000000000000000000000000000000000000000 000000000000000A000000000000000000000000000000000000000000000 000000000000000000000000000000000000000     00000000                                                                                                                        000000000000000000
F0010000005929400001000089011508200011050500000000000000000201406160002001ALMACEN Y TALLER CICLOCOSTA                       D000000011460000000000000000000000100010010000000000000000000000F0010000005929400120140616000101 00000000000000000000000000000000000000000000000000000000000000000000000000000000000000000000000000000000000000000N 00000000000NCONT   00    00000000000          00000000000000000000000000000000000000000000 000000000000000A000000000000000000000000000000000000000000000 000000000000000000000000000000000000000     00000000                                                                                                                        000000000000000000
F0010000005929400002000089011508200041450500000000000000000201406160002001ALMACEN Y TALLER CICLOCOSTA                       C000000008460000000000000000000000100010010000000000000000000000F0010000005929400220140616000101 00000000000000000000000000000000000000000000000000000000000000000000000000000000000000000000000000000000000000000N 00000000000NCONT   00    00000000000          00000000000000000000000000000000000000000000 000000000000000A000000000000000000000000000000000000000000000 000000000000000000000000000000000000000     00000000                                                                                                                        000000000000000000
F0010000005929400003000089011508200042505000000000000000000201406160002001ALMACEN Y TALLER CICLOCOSTA                       C000000003000000000000000000000000100010010000000000000000000000F0010000005929400320140616000101 00000000000000000000000000000000000000000000000000000000000000000000000000000000000000000000000000000000000000000N 00000000000NCONT   00    00000000000          00000000000000000000000000000000000000000000 000000000000000A000000000000000000000000000000000000000000000 000000000000000000000000000000000000000     00000000                                                                                                                        000000000000000000
F0010000005929400004000089011508200023658300000000000000000201406160002001ALMACEN Y TALLER CICLOCOSTA                       C000000000067700000000000000000000100010010000000000000000000000F0010000005929400420140616000101 00000000000000000000000000000000000000000000000000000000000000000000000000000000000000000000000000000000000000000N 00000000000NCONT   00    00000000000          00000000000000000000000000000000000000000000 000000000000000A000000000000000000000000000000000000000000000 000000000000000000000000000000000000000     00000000                                                                                                                        000000000000000000
F0010000005929400005000089011508200013552100000000000000000201406160002001ALMACEN Y TALLER CICLOCOSTA                       D000000000067700000000000000000000100010010000000000000000000000F0010000005929400520140616000101 00000000000000000000000000000000000000000000000000000000000000000000000000000000000000000000000000000000000000000N 00000000000NCONT   00    00000000000          00000000000000000000000000000000000000000000 000000000000000A000000000000000000000000000000000000000000000 000000000000000000000000000000000000000     00000000                                                                                                                        000000000000000000
F0010000005929500001000089011508200011050500000000000000000201406160002001ALMACEN Y TALLER CICLOCOSTA                       D000000001480000000000000000000000100010010000000000000000000000F0010000005929500120140616000101 00000000000000000000000000000000000000000000000000000000000000000000000000000000000000000000000000000000000000000N 00000000000NCONT   00    00000000000          00000000000000000000000000000000000000000000 000000000000000A000000000000000000000000000000000000000000000 000000000000000000000000000000000000000     00000000                                                                                                                        000000000000000000
F0010000005929500002000089011508200041450500000000000000000201406160002001ALMACEN Y TALLER CICLOCOSTA                       C000000000780000000000000000000000100010010000000000000000000000F0010000005929500220140616000101 00000000000000000000000000000000000000000000000000000000000000000000000000000000000000000000000000000000000000000N 00000000000NCONT   00    00000000000          00000000000000000000000000000000000000000000 000000000000000A000000000000000000000000000000000000000000000 000000000000000000000000000000000000000     00000000                                                                                                                        000000000000000000
F0010000005929500003000089011508200042505000000000000000000201406160002001ALMACEN Y TALLER CICLOCOSTA                       C000000000700000000000000000000000100010010000000000000000000000F0010000005929500320140616000101 00000000000000000000000000000000000000000000000000000000000000000000000000000000000000000000000000000000000000000N 00000000000NCONT   00    00000000000          00000000000000000000000000000000000000000000 000000000000000A000000000000000000000000000000000000000000000 000000000000000000000000000000000000000     00000000                                                                                                                        000000000000000000
F0010000005929500004000089011508200023658300000000000000000201406160002001ALMACEN Y TALLER CICLOCOSTA                       C000000000006200000000000000000000100010010000000000000000000000F0010000005929500420140616000101 00000000000000000000000000000000000000000000000000000000000000000000000000000000000000000000000000000000000000000N 00000000000NCONT   00    00000000000          00000000000000000000000000000000000000000000 000000000000000A000000000000000000000000000000000000000000000 000000000000000000000000000000000000000     00000000                                                                                                                        000000000000000000
F0010000005929500005000089011508200013552100000000000000000201406160002001ALMACEN Y TALLER CICLOCOSTA                       D000000000006200000000000000000000100010010000000000000000000000F0010000005929500520140616000101 00000000000000000000000000000000000000000000000000000000000000000000000000000000000000000000000000000000000000000N 00000000000NCONT   00    00000000000          00000000000000000000000000000000000000000000 000000000000000A000000000000000000000000000000000000000000000 000000000000000000000000000000000000000     00000000                                                                                                                        000000000000000000
F0010000005929600001000090037881900011050500000000000000000201406160002001COMERCIALIZADORA RACOPI S.A.S                     D000000001200000000000000000000000100010010000000000000000000000F0010000005929600120140616000101 00000000000000000000000000000000000000000000000000000000000000000000000000000000000000000000000000000000000000000N 00000000000NCONT   00    00000000000          00000000000000000000000000000000000000000000 000000000000000A000000000000000000000000000000000000000000000 000000000000000000000000000000000000000     00000000                                                                                                                        000000000000000000
F0010000005929600002000090037881900041450500000000000000000201406160002001COMERCIALIZADORA RACOPI S.A.S                     C000000001000000000000000000000000100010010000000000000000000000F0010000005929600220140616000101 00000000000000000000000000000000000000000000000000000000000000000000000000000000000000000000000000000000000000000N 00000000000NCONT   00    00000000000          00000000000000000000000000000000000000000000 000000000000000A000000000000000000000000000000000000000000000 000000000000000000000000000000000000000     00000000                                                                                                                        000000000000000000
F0010000005929600003000090037881900042505000000000000000000201406160002001COMERCIALIZADORA RACOPI S.A.S                     C000000000200000000000000000000000100010010000000000000000000000F0010000005929600320140616000101 00000000000000000000000000000000000000000000000000000000000000000000000000000000000000000000000000000000000000000N 00000000000NCONT   00    00000000000          00000000000000000000000000000000000000000000 000000000000000A000000000000000000000000000000000000000000000 000000000000000000000000000000000000000     00000000                                                                                                                        000000000000000000
F0010000005929600004000090037881900023658300000000000000000201406160002001COMERCIALIZADORA RACOPI S.A.S                     C000000000008000000000000000000000100010010000000000000000000000F0010000005929600420140616000101 00000000000000000000000000000000000000000000000000000000000000000000000000000000000000000000000000000000000000000N 00000000000NCONT   00    00000000000          00000000000000000000000000000000000000000000 000000000000000A000000000000000000000000000000000000000000000 000000000000000000000000000000000000000     00000000                                                                                                                        000000000000000000
F0010000005929600005000090037881900013552100000000000000000201406160002001COMERCIALIZADORA RACOPI S.A.S                     D000000000008000000000000000000000100010010000000000000000000000F0010000005929600520140616000101 00000000000000000000000000000000000000000000000000000000000000000000000000000000000000000000000000000000000000000N 00000000000NCONT   00    00000000000          00000000000000000000000000000000000000000000 000000000000000A000000000000000000000000000000000000000000000 000000000000000000000000000000000000000     00000000                                                                                                                        000000000000000000
F0010000005929700001000090061985600011050500000000000000000201406160002001COMERCIALIZADORA PATRY SAS                        D000000002300000000000000000000000100010010000000000000000000000F0010000005929700120140616000101 00000000000000000000000000000000000000000000000000000000000000000000000000000000000000000000000000000000000000000N 00000000000NCONT   00    00000000000          00000000000000000000000000000000000000000000 000000000000000A000000000000000000000000000000000000000000000 000000000000000000000000000000000000000     00000000                                                                                                                        000000000000000000
F0010000005929700002000090061985600041450500000000000000000201406160002001COMERCIALIZADORA PATRY SAS                        C000000001800000000000000000000000100010010000000000000000000000F0010000005929700220140616000101 00000000000000000000000000000000000000000000000000000000000000000000000000000000000000000000000000000000000000000N 00000000000NCONT   00    00000000000          00000000000000000000000000000000000000000000 000000000000000A000000000000000000000000000000000000000000000 000000000000000000000000000000000000000     00000000                                                                                                                        000000000000000000
F0010000005929700003000090061985600042505000000000000000000201406160002001COMERCIALIZADORA PATRY SAS                        C000000000500000000000000000000000100010010000000000000000000000F0010000005929700320140616000101 00000000000000000000000000000000000000000000000000000000000000000000000000000000000000000000000000000000000000000N 00000000000NCONT   00    00000000000          00000000000000000000000000000000000000000000 000000000000000A000000000000000000000000000000000000000000000 000000000000000000000000000000000000000     00000000                                                                                                                        000000000000000000
F0010000005929700004000090061985600023658300000000000000000201406160002001COMERCIALIZADORA PATRY SAS                        C000000000014400000000000000000000100010010000000000000000000000F0010000005929700420140616000101 00000000000000000000000000000000000000000000000000000000000000000000000000000000000000000000000000000000000000000N 00000000000NCONT   00    00000000000          00000000000000000000000000000000000000000000 000000000000000A000000000000000000000000000000000000000000000 000000000000000000000000000000000000000     00000000                                                                                                                        000000000000000000
F0010000005929700005000090061985600013552100000000000000000201406160002001COMERCIALIZADORA PATRY SAS                        D000000000014400000000000000000000100010010000000000000000000000F0010000005929700520140616000101 00000000000000000000000000000000000000000000000000000000000000000000000000000000000000000000000000000000000000000N 00000000000NCONT   00    00000000000          00000000000000000000000000000000000000000000 000000000000000A000000000000000000000000000000000000000000000 000000000000000000000000000000000000000     00000000                                                                                                                        000000000000000000
F0010000005929800001000003263562600011050500000000000000000201406160002001LOCAL 50 - MERCEDES ARAGUREN DE CHADID (MANUEL CHAD000000005500000000000000000000000100010010000000000000000000000F0010000005929800120140616000101 00000000000000000000000000000000000000000000000000000000000000000000000000000000000000000000000000000000000000000N 00000000000NCONT   00    00000000000          00000000000000000000000000000000000000000000 000000000000000A000000000000000000000000000000000000000000000 000000000000000000000000000000000000000     00000000                                                                                                                        000000000000000000
F0010000005929800002000003263562600041450500000000000000000201406160002001LOCAL 50 - MERCEDES ARAGUREN DE CHADID (MANUEL CHAC000000005000000000000000000000000100010010000000000000000000000F0010000005929800220140616000101 00000000000000000000000000000000000000000000000000000000000000000000000000000000000000000000000000000000000000000N 00000000000NCONT   00    00000000000          00000000000000000000000000000000000000000000 000000000000000A000000000000000000000000000000000000000000000 000000000000000000000000000000000000000     00000000                                                                                                                        000000000000000000
F0010000005929800003000003263562600042505000000000000000000201406160002001LOCAL 50 - MERCEDES ARAGUREN DE CHADID (MANUEL CHAC000000000500000000000000000000000100010010000000000000000000000F0010000005929800320140616000101 00000000000000000000000000000000000000000000000000000000000000000000000000000000000000000000000000000000000000000N 00000000000NCONT   00    00000000000          00000000000000000000000000000000000000000000 000000000000000A000000000000000000000000000000000000000000000 000000000000000000000000000000000000000     00000000                                                                                                                        000000000000000000
F0010000005929800004000003263562600023658300000000000000000201406160002001LOCAL 50 - MERCEDES ARAGUREN DE CHADID (MANUEL CHAC000000000040000000000000000000000100010010000000000000000000000F0010000005929800420140616000101 00000000000000000000000000000000000000000000000000000000000000000000000000000000000000000000000000000000000000000N 00000000000NCONT   00    00000000000          00000000000000000000000000000000000000000000 000000000000000A000000000000000000000000000000000000000000000 000000000000000000000000000000000000000     00000000                                                                                                                        000000000000000000
F0010000005929800005000003263562600013552100000000000000000201406160002001LOCAL 50 - MERCEDES ARAGUREN DE CHADID (MANUEL CHAD000000000040000000000000000000000100010010000000000000000000000F0010000005929800520140616000101 00000000000000000000000000000000000000000000000000000000000000000000000000000000000000000000000000000000000000000N 00000000000NCONT   00    00000000000          00000000000000000000000000000000000000000000 000000000000000A000000000000000000000000000000000000000000000 000000000000000000000000000000000000000     00000000                                                                                                                        000000000000000000
F0010000005929900001000080202435000011050500000000000000000201406160002001DISTRIBUIDORA MACEA SAS                           D000000007500000000000000000000000100010010000000000000000000000F0010000005929900120140616000101 00000000000000000000000000000000000000000000000000000000000000000000000000000000000000000000000000000000000000000N 00000000000NCONT   00    00000000000          00000000000000000000000000000000000000000000 000000000000000A000000000000000000000000000000000000000000000 000000000000000000000000000000000000000     00000000                                                                                                                        000000000000000000
F0010000005929900002000080202435000041450500000000000000000201406160002001DISTRIBUIDORA MACEA SAS                           C000000006500000000000000000000000100010010000000000000000000000F0010000005929900220140616000101 00000000000000000000000000000000000000000000000000000000000000000000000000000000000000000000000000000000000000000N 00000000000NCONT   00    00000000000          00000000000000000000000000000000000000000000 000000000000000A000000000000000000000000000000000000000000000 000000000000000000000000000000000000000     00000000                                                                                                                        000000000000000000
F0010000005929900003000080202435000042505000000000000000000201406160002001DISTRIBUIDORA MACEA SAS                           C000000001000000000000000000000000100010010000000000000000000000F0010000005929900320140616000101 00000000000000000000000000000000000000000000000000000000000000000000000000000000000000000000000000000000000000000N 00000000000NCONT   00    00000000000          00000000000000000000000000000000000000000000 000000000000000A000000000000000000000000000000000000000000000 000000000000000000000000000000000000000     00000000                                                                                                                        000000000000000000
F0010000005929900004000080202435000023658300000000000000000201406160002001DISTRIBUIDORA MACEA SAS                           C000000000052000000000000000000000100010010000000000000000000000F0010000005929900420140616000101 00000000000000000000000000000000000000000000000000000000000000000000000000000000000000000000000000000000000000000N 00000000000NCONT   00    00000000000          00000000000000000000000000000000000000000000 000000000000000A000000000000000000000000000000000000000000000 000000000000000000000000000000000000000     00000000                                                                                                                        000000000000000000
F0010000005929900005000080202435000013552100000000000000000201406160002001DISTRIBUIDORA MACEA SAS                           D000000000052000000000000000000000100010010000000000000000000000F0010000005929900520140616000101 00000000000000000000000000000000000000000000000000000000000000000000000000000000000000000000000000000000000000000N 00000000000NCONT   00    00000000000          00000000000000000000000000000000000000000000 000000000000000A000000000000000000000000000000000000000000000 000000000000000000000000000000000000000     00000000                                                                                                                        000000000000000000
F0010000005930000001000083007900600011050500000000000000000201406160002001EXPRESO ANDINO DE CARGA SA                        D000000005100000000000000000000000100010010000000000000000000000F0010000005930000120140616000101 00000000000000000000000000000000000000000000000000000000000000000000000000000000000000000000000000000000000000000N 00000000000NCONT   00    00000000000          00000000000000000000000000000000000000000000 000000000000000A000000000000000000000000000000000000000000000 000000000000000000000000000000000000000     00000000                                                                                                                        000000000000000000
