F0010000008711800001000007217314700011050500000000000000000201606130002001ALBERTO NUÑEZ BARRANCO                           D000000003800000000000000000000000100010010000000000000000000000F0010000008711800120160613000101 00000000000000000000000000000000000000000000000000000000000000000000000000000000000000000000000000000000000000000N 00000000000NCONT   00    00000000000          00000000000000000000000000000000000000000000 000000000000000A000000000000000000000000000000000000000000000 000000000000000000000000000000000000000     00000000                                                                                                                        000000000000000000
F0010000008711800002000007217314700041450500000000000000000201606130002001ALBERTO NUÑEZ BARRANCO                           C000000002800000000000000000000000100010010000000000000000000000F0010000008711800220160613000101 00000000000000000000000000000000000000000000000000000000000000000000000000000000000000000000000000000000000000000N 00000000000NCONT   00    00000000000          00000000000000000000000000000000000000000000 000000000000000A000000000000000000000000000000000000000000000 000000000000000000000000000000000000000     00000000                                                                                                                        000000000000000000
F0010000008711800003000007217314700042505000000000000000000201606130002001ALBERTO NUÑEZ BARRANCO                           C000000001000000000000000000000000100010010000000000000000000000F0010000008711800320160613000101 00000000000000000000000000000000000000000000000000000000000000000000000000000000000000000000000000000000000000000N 00000000000NCONT   00    00000000000          00000000000000000000000000000000000000000000 000000000000000A000000000000000000000000000000000000000000000 000000000000000000000000000000000000000     00000000                                                                                                                        000000000000000000
F0010000008711800004000007217314700023658300000000000000000201606130002001ALBERTO NUÑEZ BARRANCO                           C000000000022400000000000000000000100010010000000000000000000000F0010000008711800420160613000101 00000000000000000000000000000000000000000000000000000000000000000000000000000000000000000000000000000000000000000N 00000000000NCONT   00    00000000000          00000000000000000000000000000000000000000000 000000000000000A000000000000000000000000000000000000000000000 000000000000000000000000000000000000000     00000000                                                                                                                        000000000000000000
F0010000008711800005000007217314700013552100000000000000000201606130002001ALBERTO NUÑEZ BARRANCO                           D000000000022400000000000000000000100010010000000000000000000000F0010000008711800520160613000101 00000000000000000000000000000000000000000000000000000000000000000000000000000000000000000000000000000000000000000N 00000000000NCONT   00    00000000000          00000000000000000000000000000000000000000000 000000000000000A000000000000000000000000000000000000000000000 000000000000000000000000000000000000000     00000000                                                                                                                        000000000000000000
F0010000008711900001000089080176300013050500000000000000000201606130002001SEGAR S.A.                                        D000000030880200000000000000000000100010010000000000000000000000F0010000008711900120160613000101 00000000000000000000000000000000000000000000000000000000000000000000000000000000000000000000000000000000000000000N 00000000000NCONT   00    00000000000          00000000000000000000000000000000000000000000 000000000000000A000000000000000000000000000000000000000000000 000000000000000000000000000000000000000     00000000                                                                                                                        000000000000000000
F0010000008711900002000089080176300041450500000000000000000201606130002001SEGAR S.A.                                        C000000025354300000000000000000000100010010000000000000000000000F0010000008711900220160613000101 00000000000000000000000000000000000000000000000000000000000000000000000000000000000000000000000000000000000000000N 00000000000NCONT   00    00000000000          00000000000000000000000000000000000000000000 000000000000000A000000000000000000000000000000000000000000000 000000000000000000000000000000000000000     00000000                                                                                                                        000000000000000000
F0010000008711900003000089080176300042505000000000000000000201606130002001SEGAR S.A.                                        C000000005525900000000000000000000100010010000000000000000000000F0010000008711900320160613000101 00000000000000000000000000000000000000000000000000000000000000000000000000000000000000000000000000000000000000000N 00000000000NCONT   00    00000000000          00000000000000000000000000000000000000000000 000000000000000A000000000000000000000000000000000000000000000 000000000000000000000000000000000000000     00000000                                                                                                                        000000000000000000
F0010000008711900004000089080176300023658300000000000000000201606130002001SEGAR S.A.                                        C000000000202800000000000000000000100010010000000000000000000000F0010000008711900420160613000101 00000000000000000000000000000000000000000000000000000000000000000000000000000000000000000000000000000000000000000N 00000000000NCONT   00    00000000000          00000000000000000000000000000000000000000000 000000000000000A000000000000000000000000000000000000000000000 000000000000000000000000000000000000000     00000000                                                                                                                        000000000000000000
F0010000008711900005000089080176300013552100000000000000000201606130002001SEGAR S.A.                                        D000000000202800000000000000000000100010010000000000000000000000F0010000008711900520160613000101 00000000000000000000000000000000000000000000000000000000000000000000000000000000000000000000000000000000000000000N 00000000000NCONT   00    00000000000          00000000000000000000000000000000000000000000 000000000000000A000000000000000000000000000000000000000000000 000000000000000000000000000000000000000     00000000                                                                                                                        000000000000000000
F0010000008712000001000089011492400013050500000000000000000201606130002001AGE. CAUCHO SOL DE LA COSTA  SAS                  D000000033712800000000000000000000100010010000000000000000000000F0010000008712000120160613000101 00000000000000000000000000000000000000000000000000000000000000000000000000000000000000000000000000000000000000000N 00000000000NCONT   00    00000000000          00000000000000000000000000000000000000000000 000000000000000A000000000000000000000000000000000000000000000 000000000000000000000000000000000000000     00000000                                                                                                                        000000000000000000
F0010000008712000002000089011492400041450500000000000000000201606130002001AGE. CAUCHO SOL DE LA COSTA  SAS                  C000000015840000000000000000000000100010010000000000000000000000F0010000008712000220160613000101 00000000000000000000000000000000000000000000000000000000000000000000000000000000000000000000000000000000000000000N 00000000000NCONT   00    00000000000          00000000000000000000000000000000000000000000 000000000000000A000000000000000000000000000000000000000000000 000000000000000000000000000000000000000     00000000                                                                                                                        000000000000000000
F0010000008712000003000089011492400042505000000000000000000201606130002001AGE. CAUCHO SOL DE LA COSTA  SAS                  C000000017872800000000000000000000100010010000000000000000000000F0010000008712000320160613000101 00000000000000000000000000000000000000000000000000000000000000000000000000000000000000000000000000000000000000000N 00000000000NCONT   00    00000000000          00000000000000000000000000000000000000000000 000000000000000A000000000000000000000000000000000000000000000 000000000000000000000000000000000000000     00000000                                                                                                                        000000000000000000
F0010000008712000004000089011492400023658300000000000000000201606130002001AGE. CAUCHO SOL DE LA COSTA  SAS                  C000000000126700000000000000000000100010010000000000000000000000F0010000008712000420160613000101 00000000000000000000000000000000000000000000000000000000000000000000000000000000000000000000000000000000000000000N 00000000000NCONT   00    00000000000          00000000000000000000000000000000000000000000 000000000000000A000000000000000000000000000000000000000000000 000000000000000000000000000000000000000     00000000                                                                                                                        000000000000000000
F0010000008712000005000089011492400013552100000000000000000201606130002001AGE. CAUCHO SOL DE LA COSTA  SAS                  D000000000126700000000000000000000100010010000000000000000000000F0010000008712000520160613000101 00000000000000000000000000000000000000000000000000000000000000000000000000000000000000000000000000000000000000000N 00000000000NCONT   00    00000000000          00000000000000000000000000000000000000000000 000000000000000A000000000000000000000000000000000000000000000 000000000000000000000000000000000000000     00000000                                                                                                                        000000000000000000
F0010000008712100001000080200863700013050500000000000000000201606130002001COPIN S.A.S                                       D000000064876000000000000000000000100010010000000000000000000000F0010000008712100120160613000101 00000000000000000000000000000000000000000000000000000000000000000000000000000000000000000000000000000000000000000N 00000000000NCONT   00    00000000000          00000000000000000000000000000000000000000000 000000000000000A000000000000000000000000000000000000000000000 000000000000000000000000000000000000000     00000000                                                                                                                        000000000000000000
F0010000008712100002000080200863700041450500000000000000000201606130002001COPIN S.A.S                                       C000000058930000000000000000000000100010010000000000000000000000F0010000008712100220160613000101 00000000000000000000000000000000000000000000000000000000000000000000000000000000000000000000000000000000000000000N 00000000000NCONT   00    00000000000          00000000000000000000000000000000000000000000 000000000000000A000000000000000000000000000000000000000000000 000000000000000000000000000000000000000     00000000                                                                                                                        000000000000000000
F0010000008712100003000080200863700042505000000000000000000201606130002001COPIN S.A.S                                       C000000005946000000000000000000000100010010000000000000000000000F0010000008712100320160613000101 00000000000000000000000000000000000000000000000000000000000000000000000000000000000000000000000000000000000000000N 00000000000NCONT   00    00000000000          00000000000000000000000000000000000000000000 000000000000000A000000000000000000000000000000000000000000000 000000000000000000000000000000000000000     00000000                                                                                                                        000000000000000000
F0010000008712100004000080200863700023658300000000000000000201606130002001COPIN S.A.S                                       C000000000471400000000000000000000100010010000000000000000000000F0010000008712100420160613000101 00000000000000000000000000000000000000000000000000000000000000000000000000000000000000000000000000000000000000000N 00000000000NCONT   00    00000000000          00000000000000000000000000000000000000000000 000000000000000A000000000000000000000000000000000000000000000 000000000000000000000000000000000000000     00000000                                                                                                                        000000000000000000
F0010000008712100005000080200863700013552100000000000000000201606130002001COPIN S.A.S                                       D000000000471400000000000000000000100010010000000000000000000000F0010000008712100520160613000101 00000000000000000000000000000000000000000000000000000000000000000000000000000000000000000000000000000000000000000N 00000000000NCONT   00    00000000000          00000000000000000000000000000000000000000000 000000000000000A000000000000000000000000000000000000000000000 000000000000000000000000000000000000000     00000000                                                                                                                        000000000000000000
F0010000008712200001000080022903500013050500000000000000000201606130002001TECNOGLASS S.A                                    D000000023352700000000000000000000100010010000000000000000000000F0010000008712200120160613000101 00000000000000000000000000000000000000000000000000000000000000000000000000000000000000000000000000000000000000000N 00000000000NCONT   00    00000000000          00000000000000000000000000000000000000000000 000000000000000A000000000000000000000000000000000000000000000 000000000000000000000000000000000000000     00000000                                                                                                                        000000000000000000
F0010000008712200002000080022903500041450500000000000000000201606130002001TECNOGLASS S.A                                    C000000019750000000000000000000000100010010000000000000000000000F0010000008712200220160613000101 00000000000000000000000000000000000000000000000000000000000000000000000000000000000000000000000000000000000000000N 00000000000NCONT   00    00000000000          00000000000000000000000000000000000000000000 000000000000000A000000000000000000000000000000000000000000000 000000000000000000000000000000000000000     00000000                                                                                                                        000000000000000000
F0010000008712200003000080022903500042505000000000000000000201606130002001TECNOGLASS S.A                                    C000000003602700000000000000000000100010010000000000000000000000F0010000008712200320160613000101 00000000000000000000000000000000000000000000000000000000000000000000000000000000000000000000000000000000000000000N 00000000000NCONT   00    00000000000          00000000000000000000000000000000000000000000 000000000000000A000000000000000000000000000000000000000000000 000000000000000000000000000000000000000     00000000                                                                                                                        000000000000000000
F0010000008712200004000080022903500023658300000000000000000201606130002001TECNOGLASS S.A                                    C000000000158000000000000000000000100010010000000000000000000000F0010000008712200420160613000101 00000000000000000000000000000000000000000000000000000000000000000000000000000000000000000000000000000000000000000N 00000000000NCONT   00    00000000000          00000000000000000000000000000000000000000000 000000000000000A000000000000000000000000000000000000000000000 000000000000000000000000000000000000000     00000000                                                                                                                        000000000000000000
F0010000008712200005000080022903500013552100000000000000000201606130002001TECNOGLASS S.A                                    D000000000158000000000000000000000100010010000000000000000000000F0010000008712200520160613000101 00000000000000000000000000000000000000000000000000000000000000000000000000000000000000000000000000000000000000000N 00000000000NCONT   00    00000000000          00000000000000000000000000000000000000000000 000000000000000A000000000000000000000000000000000000000000000 000000000000000000000000000000000000000     00000000                                                                                                                        000000000000000000
F0010000008712300001000080016665600013050500000000000000000201606130002001SUMICAL DE ANTIOQUIA S.A.S                        D000000016207900000000000000000000100010010000000000000000000000F0010000008712300120160613000101 00000000000000000000000000000000000000000000000000000000000000000000000000000000000000000000000000000000000000000N 00000000000NCONT   00    00000000000          00000000000000000000000000000000000000000000 000000000000000A000000000000000000000000000000000000000000000 000000000000000000000000000000000000000     00000000                                                                                                                        000000000000000000
F0010000008712300002000080016665600041450500000000000000000201606130002001SUMICAL DE ANTIOQUIA S.A.S                        C000000013580000000000000000000000100010010000000000000000000000F0010000008712300220160613000101 00000000000000000000000000000000000000000000000000000000000000000000000000000000000000000000000000000000000000000N 00000000000NCONT   00    00000000000          00000000000000000000000000000000000000000000 000000000000000A000000000000000000000000000000000000000000000 000000000000000000000000000000000000000     00000000                                                                                                                        000000000000000000
F0010000008712300003000080016665600042505000000000000000000201606130002001SUMICAL DE ANTIOQUIA S.A.S                        C000000002627900000000000000000000100010010000000000000000000000F0010000008712300320160613000101 00000000000000000000000000000000000000000000000000000000000000000000000000000000000000000000000000000000000000000N 00000000000NCONT   00    00000000000          00000000000000000000000000000000000000000000 000000000000000A000000000000000000000000000000000000000000000 000000000000000000000000000000000000000     00000000                                                                                                                        000000000000000000
F0010000008712300004000080016665600023658300000000000000000201606130002001SUMICAL DE ANTIOQUIA S.A.S                        C000000000108600000000000000000000100010010000000000000000000000F0010000008712300420160613000101 00000000000000000000000000000000000000000000000000000000000000000000000000000000000000000000000000000000000000000N 00000000000NCONT   00    00000000000          00000000000000000000000000000000000000000000 000000000000000A000000000000000000000000000000000000000000000 000000000000000000000000000000000000000     00000000                                                                                                                        000000000000000000
F0010000008712300005000080016665600013552100000000000000000201606130002001SUMICAL DE ANTIOQUIA S.A.S                        D000000000108600000000000000000000100010010000000000000000000000F0010000008712300520160613000101 00000000000000000000000000000000000000000000000000000000000000000000000000000000000000000000000000000000000000000N 00000000000NCONT   00    00000000000          00000000000000000000000000000000000000000000 000000000000000A000000000000000000000000000000000000000000000 000000000000000000000000000000000000000     00000000                                                                                                                        000000000000000000
F0010000008712400001000090029584600011050500000000000000000201606130002001TQM DISTRIBUCIONES SAS                            D000000001600000000000000000000000100010010000000000000000000000F0010000008712400120160613000101 00000000000000000000000000000000000000000000000000000000000000000000000000000000000000000000000000000000000000000N 00000000000NCONT   00    00000000000          00000000000000000000000000000000000000000000 000000000000000A000000000000000000000000000000000000000000000 000000000000000000000000000000000000000     00000000                                                                                                                        000000000000000000
F0010000008712400002000090029584600041450500000000000000000201606130002001TQM DISTRIBUCIONES SAS                            C000000001300000000000000000000000100010010000000000000000000000F0010000008712400220160613000101 00000000000000000000000000000000000000000000000000000000000000000000000000000000000000000000000000000000000000000N 00000000000NCONT   00    00000000000          00000000000000000000000000000000000000000000 000000000000000A000000000000000000000000000000000000000000000 000000000000000000000000000000000000000     00000000                                                                                                                        000000000000000000
F0010000008712400003000090029584600042505000000000000000000201606130002001TQM DISTRIBUCIONES SAS                            C000000000300000000000000000000000100010010000000000000000000000F0010000008712400320160613000101 00000000000000000000000000000000000000000000000000000000000000000000000000000000000000000000000000000000000000000N 00000000000NCONT   00    00000000000          00000000000000000000000000000000000000000000 000000000000000A000000000000000000000000000000000000000000000 000000000000000000000000000000000000000     00000000                                                                                                                        000000000000000000
F0010000008712400004000090029584600023658300000000000000000201606130002001TQM DISTRIBUCIONES SAS                            C000000000010400000000000000000000100010010000000000000000000000F0010000008712400420160613000101 00000000000000000000000000000000000000000000000000000000000000000000000000000000000000000000000000000000000000000N 00000000000NCONT   00    00000000000          00000000000000000000000000000000000000000000 000000000000000A000000000000000000000000000000000000000000000 000000000000000000000000000000000000000     00000000                                                                                                                        000000000000000000
F0010000008712400005000090029584600013552100000000000000000201606130002001TQM DISTRIBUCIONES SAS                            D000000000010400000000000000000000100010010000000000000000000000F0010000008712400520160613000101 00000000000000000000000000000000000000000000000000000000000000000000000000000000000000000000000000000000000000000N 00000000000NCONT   00    00000000000          00000000000000000000000000000000000000000000 000000000000000A000000000000000000000000000000000000000000000 000000000000000000000000000000000000000     00000000                                                                                                                        000000000000000000
F0010000008712500001000090029584600011050500000000000000000201606130002001TQM DISTRIBUCIONES SAS                            D000000001500000000000000000000000100010010000000000000000000000F0010000008712500120160613000101 00000000000000000000000000000000000000000000000000000000000000000000000000000000000000000000000000000000000000000N 00000000000NCONT   00    00000000000          00000000000000000000000000000000000000000000 000000000000000A000000000000000000000000000000000000000000000 000000000000000000000000000000000000000     00000000                                                                                                                        000000000000000000
F0010000008712500002000090029584600041450500000000000000000201606130002001TQM DISTRIBUCIONES SAS                            C000000001300000000000000000000000100010010000000000000000000000F0010000008712500220160613000101 00000000000000000000000000000000000000000000000000000000000000000000000000000000000000000000000000000000000000000N 00000000000NCONT   00    00000000000          00000000000000000000000000000000000000000000 000000000000000A000000000000000000000000000000000000000000000 000000000000000000000000000000000000000     00000000                                                                                                                        000000000000000000
F0010000008712500003000090029584600042505000000000000000000201606130002001TQM DISTRIBUCIONES SAS                            C000000000200000000000000000000000100010010000000000000000000000F0010000008712500320160613000101 00000000000000000000000000000000000000000000000000000000000000000000000000000000000000000000000000000000000000000N 00000000000NCONT   00    00000000000          00000000000000000000000000000000000000000000 000000000000000A000000000000000000000000000000000000000000000 000000000000000000000000000000000000000     00000000                                                                                                                        000000000000000000
F0010000008712500004000090029584600023658300000000000000000201606130002001TQM DISTRIBUCIONES SAS                            C000000000010400000000000000000000100010010000000000000000000000F0010000008712500420160613000101 00000000000000000000000000000000000000000000000000000000000000000000000000000000000000000000000000000000000000000N 00000000000NCONT   00    00000000000          00000000000000000000000000000000000000000000 000000000000000A000000000000000000000000000000000000000000000 000000000000000000000000000000000000000     00000000                                                                                                                        000000000000000000
F0010000008712500005000090029584600013552100000000000000000201606130002001TQM DISTRIBUCIONES SAS                            D000000000010400000000000000000000100010010000000000000000000000F0010000008712500520160613000101 00000000000000000000000000000000000000000000000000000000000000000000000000000000000000000000000000000000000000000N 00000000000NCONT   00    00000000000          00000000000000000000000000000000000000000000 000000000000000A000000000000000000000000000000000000000000000 000000000000000000000000000000000000000     00000000                                                                                                                        000000000000000000
F0010000008712600001000090064982900013050500000000000000000201606130002001DISDIES S.A.S                                     D000000061426500000000000000000000100010010000000000000000000000F0010000008712600120160613000101 00000000000000000000000000000000000000000000000000000000000000000000000000000000000000000000000000000000000000000N 00000000000NCONT   00    00000000000          00000000000000000000000000000000000000000000 000000000000000A000000000000000000000000000000000000000000000 000000000000000000000000000000000000000     00000000                                                                                                                        000000000000000000
F0010000008712600002000090064982900041450500000000000000000201606130002001DISDIES S.A.S                                     C000000055052600000000000000000000100010010000000000000000000000F0010000008712600220160613000101 00000000000000000000000000000000000000000000000000000000000000000000000000000000000000000000000000000000000000000N 00000000000NCONT   00    00000000000          00000000000000000000000000000000000000000000 000000000000000A000000000000000000000000000000000000000000000 000000000000000000000000000000000000000     00000000                                                                                                                        000000000000000000
F0010000008712600003000090064982900042505000000000000000000201606130002001DISDIES S.A.S                                     C000000006373900000000000000000000100010010000000000000000000000F0010000008712600320160613000101 00000000000000000000000000000000000000000000000000000000000000000000000000000000000000000000000000000000000000000N 00000000000NCONT   00    00000000000          00000000000000000000000000000000000000000000 000000000000000A000000000000000000000000000000000000000000000 000000000000000000000000000000000000000     00000000                                                                                                                        000000000000000000
F0010000008712600004000090064982900023658300000000000000000201606130002001DISDIES S.A.S                                     C000000000440400000000000000000000100010010000000000000000000000F0010000008712600420160613000101 00000000000000000000000000000000000000000000000000000000000000000000000000000000000000000000000000000000000000000N 00000000000NCONT   00    00000000000          00000000000000000000000000000000000000000000 000000000000000A000000000000000000000000000000000000000000000 000000000000000000000000000000000000000     00000000                                                                                                                        000000000000000000
F0010000008712600005000090064982900013552100000000000000000201606130002001DISDIES S.A.S                                     D000000000440400000000000000000000100010010000000000000000000000F0010000008712600520160613000101 00000000000000000000000000000000000000000000000000000000000000000000000000000000000000000000000000000000000000000N 00000000000NCONT   00    00000000000          00000000000000000000000000000000000000000000 000000000000000A000000000000000000000000000000000000000000000 000000000000000000000000000000000000000     00000000                                                                                                                        000000000000000000
F0010000008712700001000089010526900013050500000000000000000201606130002001DISTRIBUCIONES CANAL Y CIA S.A.S                  D000000010333600000000000000000000100010010000000000000000000000F0010000008712700120160613000101 00000000000000000000000000000000000000000000000000000000000000000000000000000000000000000000000000000000000000000N 00000000000NCONT   00    00000000000          00000000000000000000000000000000000000000000 000000000000000A000000000000000000000000000000000000000000000 000000000000000000000000000000000000000     00000000                                                                                                                        000000000000000000
F0010000008712700002000089010526900041450500000000000000000201606130002001DISTRIBUCIONES CANAL Y CIA S.A.S                  C000000007340000000000000000000000100010010000000000000000000000F0010000008712700220160613000101 00000000000000000000000000000000000000000000000000000000000000000000000000000000000000000000000000000000000000000N 00000000000NCONT   00    00000000000          00000000000000000000000000000000000000000000 000000000000000A000000000000000000000000000000000000000000000 000000000000000000000000000000000000000     00000000                                                                                                                        000000000000000000
F0010000008712700003000089010526900042505000000000000000000201606130002001DISTRIBUCIONES CANAL Y CIA S.A.S                  C000000002993600000000000000000000100010010000000000000000000000F0010000008712700320160613000101 00000000000000000000000000000000000000000000000000000000000000000000000000000000000000000000000000000000000000000N 00000000000NCONT   00    00000000000          00000000000000000000000000000000000000000000 000000000000000A000000000000000000000000000000000000000000000 000000000000000000000000000000000000000     00000000                                                                                                                        000000000000000000
F0010000008712700004000089010526900023658300000000000000000201606130002001DISTRIBUCIONES CANAL Y CIA S.A.S                  C000000000058700000000000000000000100010010000000000000000000000F0010000008712700420160613000101 00000000000000000000000000000000000000000000000000000000000000000000000000000000000000000000000000000000000000000N 00000000000NCONT   00    00000000000          00000000000000000000000000000000000000000000 000000000000000A000000000000000000000000000000000000000000000 000000000000000000000000000000000000000     00000000                                                                                                                        000000000000000000
F0010000008712700005000089010526900013552100000000000000000201606130002001DISTRIBUCIONES CANAL Y CIA S.A.S                  D000000000058700000000000000000000100010010000000000000000000000F0010000008712700520160613000101 00000000000000000000000000000000000000000000000000000000000000000000000000000000000000000000000000000000000000000N 00000000000NCONT   00    00000000000          00000000000000000000000000000000000000000000 000000000000000A000000000000000000000000000000000000000000000 000000000000000000000000000000000000000     00000000                                                                                                                        000000000000000000
F0010000008712800001000083007900600013050500000000000000000201606130002001EXPRESO ANDINO DE CARGA SA                        D000000016400000000000000000000000100010010000000000000000000000F0010000008712800120160613000101 00000000000000000000000000000000000000000000000000000000000000000000000000000000000000000000000000000000000000000N 00000000000NCONT   00    00000000000          00000000000000000000000000000000000000000000 000000000000000A000000000000000000000000000000000000000000000 000000000000000000000000000000000000000     00000000                                                                                                                        000000000000000000
F0010000008712800002000083007900600041450500000000000000000201606130002001EXPRESO ANDINO DE CARGA SA                        C000000016200000000000000000000000100010010000000000000000000000F0010000008712800220160613000101 00000000000000000000000000000000000000000000000000000000000000000000000000000000000000000000000000000000000000000N 00000000000NCONT   00    00000000000          00000000000000000000000000000000000000000000 000000000000000A000000000000000000000000000000000000000000000 000000000000000000000000000000000000000     00000000                                                                                                                        000000000000000000
F0010000008712800003000083007900600042505000000000000000000201606130002001EXPRESO ANDINO DE CARGA SA                        C000000000200000000000000000000000100010010000000000000000000000F0010000008712800320160613000101 00000000000000000000000000000000000000000000000000000000000000000000000000000000000000000000000000000000000000000N 00000000000NCONT   00    00000000000          00000000000000000000000000000000000000000000 000000000000000A000000000000000000000000000000000000000000000 000000000000000000000000000000000000000     00000000                                                                                                                        000000000000000000
F0010000008712800004000083007900600023658300000000000000000201606130002001EXPRESO ANDINO DE CARGA SA                        C000000000129600000000000000000000100010010000000000000000000000F0010000008712800420160613000101 00000000000000000000000000000000000000000000000000000000000000000000000000000000000000000000000000000000000000000N 00000000000NCONT   00    00000000000          00000000000000000000000000000000000000000000 000000000000000A000000000000000000000000000000000000000000000 000000000000000000000000000000000000000     00000000                                                                                                                        000000000000000000
F0010000008712800005000083007900600013552100000000000000000201606130002001EXPRESO ANDINO DE CARGA SA                        D000000000129600000000000000000000100010010000000000000000000000F0010000008712800520160613000101 00000000000000000000000000000000000000000000000000000000000000000000000000000000000000000000000000000000000000000N 00000000000NCONT   00    00000000000          00000000000000000000000000000000000000000000 000000000000000A000000000000000000000000000000000000000000000 000000000000000000000000000000000000000     00000000                                                                                                                        000000000000000000
F0010000008712900001000090001736600013050500000000000000000201606130002001AF SUMINISTROS E.U.                               D000000002500000000000000000000000100010010000000000000000000000F0010000008712900120160613000101 00000000000000000000000000000000000000000000000000000000000000000000000000000000000000000000000000000000000000000N 00000000000NCONT   00    00000000000          00000000000000000000000000000000000000000000 000000000000000A000000000000000000000000000000000000000000000 000000000000000000000000000000000000000     00000000                                                                                                                        000000000000000000
F0010000008712900002000090001736600041450500000000000000000201606130002001AF SUMINISTROS E.U.                               C000000002200000000000000000000000100010010000000000000000000000F0010000008712900220160613000101 00000000000000000000000000000000000000000000000000000000000000000000000000000000000000000000000000000000000000000N 00000000000NCONT   00    00000000000          00000000000000000000000000000000000000000000 000000000000000A000000000000000000000000000000000000000000000 000000000000000000000000000000000000000     00000000                                                                                                                        000000000000000000
F0010000008712900003000090001736600042505000000000000000000201606130002001AF SUMINISTROS E.U.                               C000000000300000000000000000000000100010010000000000000000000000F0010000008712900320160613000101 00000000000000000000000000000000000000000000000000000000000000000000000000000000000000000000000000000000000000000N 00000000000NCONT   00    00000000000          00000000000000000000000000000000000000000000 000000000000000A000000000000000000000000000000000000000000000 000000000000000000000000000000000000000     00000000                                                                                                                        000000000000000000
F0010000008712900004000090001736600023658300000000000000000201606130002001AF SUMINISTROS E.U.                               C000000000017600000000000000000000100010010000000000000000000000F0010000008712900420160613000101 00000000000000000000000000000000000000000000000000000000000000000000000000000000000000000000000000000000000000000N 00000000000NCONT   00    00000000000          00000000000000000000000000000000000000000000 000000000000000A000000000000000000000000000000000000000000000 000000000000000000000000000000000000000     00000000                                                                                                                        000000000000000000
F0010000008712900005000090001736600013552100000000000000000201606130002001AF SUMINISTROS E.U.                               D000000000017600000000000000000000100010010000000000000000000000F0010000008712900520160613000101 00000000000000000000000000000000000000000000000000000000000000000000000000000000000000000000000000000000000000000N 00000000000NCONT   00    00000000000          00000000000000000000000000000000000000000000 000000000000000A000000000000000000000000000000000000000000000 000000000000000000000000000000000000000     00000000                                                                                                                        000000000000000000
F0010000008713000001000080000083500013050500000000000000000201606130002001ALIPAR Y CIA LTDA                                 D000000011330000000000000000000000100010010000000000000000000000F0010000008713000120160613000101 00000000000000000000000000000000000000000000000000000000000000000000000000000000000000000000000000000000000000000N 00000000000NCONT   00    00000000000          00000000000000000000000000000000000000000000 000000000000000A000000000000000000000000000000000000000000000 000000000000000000000000000000000000000     00000000                                                                                                                        000000000000000000
F0010000008713000002000080000083500041450500000000000000000201606130002001ALIPAR Y CIA LTDA                                 C000000009430000000000000000000000100010010000000000000000000000F0010000008713000220160613000101 00000000000000000000000000000000000000000000000000000000000000000000000000000000000000000000000000000000000000000N 00000000000NCONT   00    00000000000          00000000000000000000000000000000000000000000 000000000000000A000000000000000000000000000000000000000000000 000000000000000000000000000000000000000     00000000                                                                                                                        000000000000000000
F0010000008713000003000080000083500042505000000000000000000201606130002001ALIPAR Y CIA LTDA                                 C000000001900000000000000000000000100010010000000000000000000000F0010000008713000320160613000101 00000000000000000000000000000000000000000000000000000000000000000000000000000000000000000000000000000000000000000N 00000000000NCONT   00    00000000000          00000000000000000000000000000000000000000000 000000000000000A000000000000000000000000000000000000000000000 000000000000000000000000000000000000000     00000000                                                                                                                        000000000000000000
F0010000008713000004000080000083500023658300000000000000000201606130002001ALIPAR Y CIA LTDA                                 C000000000075400000000000000000000100010010000000000000000000000F0010000008713000420160613000101 00000000000000000000000000000000000000000000000000000000000000000000000000000000000000000000000000000000000000000N 00000000000NCONT   00    00000000000          00000000000000000000000000000000000000000000 000000000000000A000000000000000000000000000000000000000000000 000000000000000000000000000000000000000     00000000                                                                                                                        000000000000000000
F0010000008713000005000080000083500013552100000000000000000201606130002001ALIPAR Y CIA LTDA                                 D000000000075400000000000000000000100010010000000000000000000000F0010000008713000520160613000101 00000000000000000000000000000000000000000000000000000000000000000000000000000000000000000000000000000000000000000N 00000000000NCONT   00    00000000000          00000000000000000000000000000000000000000000 000000000000000A000000000000000000000000000000000000000000000 000000000000000000000000000000000000000     00000000                                                                                                                        000000000000000000
F0010000008713100001000090009800500013050500000000000000000201606130002001GLORIANT CHEMICAL DE COLOMBIA LTDA                D000000009264000000000000000000000100010010000000000000000000000F0010000008713100120160613000101 00000000000000000000000000000000000000000000000000000000000000000000000000000000000000000000000000000000000000000N 00000000000NCONT   00    00000000000          00000000000000000000000000000000000000000000 000000000000000A000000000000000000000000000000000000000000000 000000000000000000000000000000000000000     00000000                                                                                                                        000000000000000000
F0010000008713100002000090009800500041450500000000000000000201606130002001GLORIANT CHEMICAL DE COLOMBIA LTDA                C000000007220000000000000000000000100010010000000000000000000000F0010000008713100220160613000101 00000000000000000000000000000000000000000000000000000000000000000000000000000000000000000000000000000000000000000N 00000000000NCONT   00    00000000000          00000000000000000000000000000000000000000000 000000000000000A000000000000000000000000000000000000000000000 000000000000000000000000000000000000000     00000000                                                                                                                        000000000000000000
F0010000008713100003000090009800500042505000000000000000000201606130002001GLORIANT CHEMICAL DE COLOMBIA LTDA                C000000002044000000000000000000000100010010000000000000000000000F0010000008713100320160613000101 00000000000000000000000000000000000000000000000000000000000000000000000000000000000000000000000000000000000000000N 00000000000NCONT   00    00000000000          00000000000000000000000000000000000000000000 000000000000000A000000000000000000000000000000000000000000000 000000000000000000000000000000000000000     00000000                                                                                                                        000000000000000000
F0010000008713100004000090009800500023658300000000000000000201606130002001GLORIANT CHEMICAL DE COLOMBIA LTDA                C000000000057800000000000000000000100010010000000000000000000000F0010000008713100420160613000101 00000000000000000000000000000000000000000000000000000000000000000000000000000000000000000000000000000000000000000N 00000000000NCONT   00    00000000000          00000000000000000000000000000000000000000000 000000000000000A000000000000000000000000000000000000000000000 000000000000000000000000000000000000000     00000000                                                                                                                        000000000000000000
F0010000008713100005000090009800500013552100000000000000000201606130002001GLORIANT CHEMICAL DE COLOMBIA LTDA                D000000000057800000000000000000000100010010000000000000000000000F0010000008713100520160613000101 00000000000000000000000000000000000000000000000000000000000000000000000000000000000000000000000000000000000000000N 00000000000NCONT   00    00000000000          00000000000000000000000000000000000000000000 000000000000000A000000000000000000000000000000000000000000000 000000000000000000000000000000000000000     00000000                                                                                                                        000000000000000000
F0010000008713200001000007221440100011050500000000000000000201606130002001FRANCISCO HURTADO CABRERA                         D000000001100000000000000000000000100010010000000000000000000000F0010000008713200120160613000101 00000000000000000000000000000000000000000000000000000000000000000000000000000000000000000000000000000000000000000N 00000000000NCONT   00    00000000000          00000000000000000000000000000000000000000000 000000000000000A000000000000000000000000000000000000000000000 000000000000000000000000000000000000000     00000000                                                                                                                        000000000000000000
F0010000008713200002000007221440100041450500000000000000000201606130002001FRANCISCO HURTADO CABRERA                         C000000001000000000000000000000000100010010000000000000000000000F0010000008713200220160613000101 00000000000000000000000000000000000000000000000000000000000000000000000000000000000000000000000000000000000000000N 00000000000NCONT   00    00000000000          00000000000000000000000000000000000000000000 000000000000000A000000000000000000000000000000000000000000000 000000000000000000000000000000000000000     00000000                                                                                                                        000000000000000000
F0010000008713200003000007221440100042505000000000000000000201606130002001FRANCISCO HURTADO CABRERA                         C000000000100000000000000000000000100010010000000000000000000000F0010000008713200320160613000101 00000000000000000000000000000000000000000000000000000000000000000000000000000000000000000000000000000000000000000N 00000000000NCONT   00    00000000000          00000000000000000000000000000000000000000000 000000000000000A000000000000000000000000000000000000000000000 000000000000000000000000000000000000000     00000000                                                                                                                        000000000000000000
F0010000008713200004000007221440100023658300000000000000000201606130002001FRANCISCO HURTADO CABRERA                         C000000000008000000000000000000000100010010000000000000000000000F0010000008713200420160613000101 00000000000000000000000000000000000000000000000000000000000000000000000000000000000000000000000000000000000000000N 00000000000NCONT   00    00000000000          00000000000000000000000000000000000000000000 000000000000000A000000000000000000000000000000000000000000000 000000000000000000000000000000000000000     00000000                                                                                                                        000000000000000000
F0010000008713200005000007221440100013552100000000000000000201606130002001FRANCISCO HURTADO CABRERA                         D000000000008000000000000000000000100010010000000000000000000000F0010000008713200520160613000101 00000000000000000000000000000000000000000000000000000000000000000000000000000000000000000000000000000000000000000N 00000000000NCONT   00    00000000000          00000000000000000000000000000000000000000000 000000000000000A000000000000000000000000000000000000000000000 000000000000000000000000000000000000000     00000000                                                                                                                        000000000000000000
F0010000008713300001000080016664500013050500000000000000000201606130002001TELAPLAS PANCER SAS                               D000000035841000000000000000000000100010010000000000000000000000F0010000008713300120160613000101 00000000000000000000000000000000000000000000000000000000000000000000000000000000000000000000000000000000000000000N 00000000000NCONT   00    00000000000          00000000000000000000000000000000000000000000 000000000000000A000000000000000000000000000000000000000000000 000000000000000000000000000000000000000     00000000                                                                                                                        000000000000000000
F0010000008713300002000080016664500041450500000000000000000201606130002001TELAPLAS PANCER SAS                               C000000028460000000000000000000000100010010000000000000000000000F0010000008713300220160613000101 00000000000000000000000000000000000000000000000000000000000000000000000000000000000000000000000000000000000000000N 00000000000NCONT   00    00000000000          00000000000000000000000000000000000000000000 000000000000000A000000000000000000000000000000000000000000000 000000000000000000000000000000000000000     00000000                                                                                                                        000000000000000000
F0010000008713300003000080016664500042505000000000000000000201606130002001TELAPLAS PANCER SAS                               C000000007381000000000000000000000100010010000000000000000000000F0010000008713300320160613000101 00000000000000000000000000000000000000000000000000000000000000000000000000000000000000000000000000000000000000000N 00000000000NCONT   00    00000000000          00000000000000000000000000000000000000000000 000000000000000A000000000000000000000000000000000000000000000 000000000000000000000000000000000000000     00000000                                                                                                                        000000000000000000
F0010000008713300004000080016664500023658300000000000000000201606130002001TELAPLAS PANCER SAS                               C000000000227700000000000000000000100010010000000000000000000000F0010000008713300420160613000101 00000000000000000000000000000000000000000000000000000000000000000000000000000000000000000000000000000000000000000N 00000000000NCONT   00    00000000000          00000000000000000000000000000000000000000000 000000000000000A000000000000000000000000000000000000000000000 000000000000000000000000000000000000000     00000000                                                                                                                        000000000000000000
F0010000008713300005000080016664500013552100000000000000000201606130002001TELAPLAS PANCER SAS                               D000000000227700000000000000000000100010010000000000000000000000F0010000008713300520160613000101 00000000000000000000000000000000000000000000000000000000000000000000000000000000000000000000000000000000000000000N 00000000000NCONT   00    00000000000          00000000000000000000000000000000000000000000 000000000000000A000000000000000000000000000000000000000000000 000000000000000000000000000000000000000     00000000                                                                                                                        000000000000000000
F0010000008713400001000080200069100013050500000000000000000201606130002001PEGANTES Y PINTURAS ATLAS LTDA                    D000000012706900000000000000000000100010010000000000000000000000F0010000008713400120160613000101 00000000000000000000000000000000000000000000000000000000000000000000000000000000000000000000000000000000000000000N 00000000000NCONT   00    00000000000          00000000000000000000000000000000000000000000 000000000000000A000000000000000000000000000000000000000000000 000000000000000000000000000000000000000     00000000                                                                                                                        000000000000000000
F0010000008713400002000080200069100041450500000000000000000201606130002001PEGANTES Y PINTURAS ATLAS LTDA                    C000000011000000000000000000000000100010010000000000000000000000F0010000008713400220160613000101 00000000000000000000000000000000000000000000000000000000000000000000000000000000000000000000000000000000000000000N 00000000000NCONT   00    00000000000          00000000000000000000000000000000000000000000 000000000000000A000000000000000000000000000000000000000000000 000000000000000000000000000000000000000     00000000                                                                                                                        000000000000000000
F0010000008713400003000080200069100042505000000000000000000201606130002001PEGANTES Y PINTURAS ATLAS LTDA                    C000000001706900000000000000000000100010010000000000000000000000F0010000008713400320160613000101 00000000000000000000000000000000000000000000000000000000000000000000000000000000000000000000000000000000000000000N 00000000000NCONT   00    00000000000          00000000000000000000000000000000000000000000 000000000000000A000000000000000000000000000000000000000000000 000000000000000000000000000000000000000     00000000                                                                                                                        000000000000000000
F0010000008713400004000080200069100023658300000000000000000201606130002001PEGANTES Y PINTURAS ATLAS LTDA                    C000000000088000000000000000000000100010010000000000000000000000F0010000008713400420160613000101 00000000000000000000000000000000000000000000000000000000000000000000000000000000000000000000000000000000000000000N 00000000000NCONT   00    00000000000          00000000000000000000000000000000000000000000 000000000000000A000000000000000000000000000000000000000000000 000000000000000000000000000000000000000     00000000                                                                                                                        000000000000000000
F0010000008713400005000080200069100013552100000000000000000201606130002001PEGANTES Y PINTURAS ATLAS LTDA                    D000000000088000000000000000000000100010010000000000000000000000F0010000008713400520160613000101 00000000000000000000000000000000000000000000000000000000000000000000000000000000000000000000000000000000000000000N 00000000000NCONT   00    00000000000          00000000000000000000000000000000000000000000 000000000000000A000000000000000000000000000000000000000000000 000000000000000000000000000000000000000     00000000                                                                                                                        000000000000000000
F0010000008713500001000000871714900013050500000000000000000201606130002001ROLNAN DE LA ROSA  INSIGNARES                     D000000079376700000000000000000000100010010000000000000000000000F0010000008713500120160613000101 00000000000000000000000000000000000000000000000000000000000000000000000000000000000000000000000000000000000000000N 00000000000NCONT   00    00000000000          00000000000000000000000000000000000000000000 000000000000000A000000000000000000000000000000000000000000000 000000000000000000000000000000000000000     00000000                                                                                                                        000000000000000000
F0010000008713500002000000871714900041450500000000000000000201606130002001ROLNAN DE LA ROSA  INSIGNARES                     C000000065632200000000000000000000100010010000000000000000000000F0010000008713500220160613000101 00000000000000000000000000000000000000000000000000000000000000000000000000000000000000000000000000000000000000000N 00000000000NCONT   00    00000000000          00000000000000000000000000000000000000000000 000000000000000A000000000000000000000000000000000000000000000 000000000000000000000000000000000000000     00000000                                                                                                                        000000000000000000
F0010000008713500003000000871714900042505000000000000000000201606130002001ROLNAN DE LA ROSA  INSIGNARES                     C000000013744500000000000000000000100010010000000000000000000000F0010000008713500320160613000101 00000000000000000000000000000000000000000000000000000000000000000000000000000000000000000000000000000000000000000N 00000000000NCONT   00    00000000000          00000000000000000000000000000000000000000000 000000000000000A000000000000000000000000000000000000000000000 000000000000000000000000000000000000000     00000000                                                                                                                        000000000000000000
F0010000008713500004000000871714900023658300000000000000000201606130002001ROLNAN DE LA ROSA  INSIGNARES                     C000000000525100000000000000000000100010010000000000000000000000F0010000008713500420160613000101 00000000000000000000000000000000000000000000000000000000000000000000000000000000000000000000000000000000000000000N 00000000000NCONT   00    00000000000          00000000000000000000000000000000000000000000 000000000000000A000000000000000000000000000000000000000000000 000000000000000000000000000000000000000     00000000                                                                                                                        000000000000000000
F0010000008713500005000000871714900013552100000000000000000201606130002001ROLNAN DE LA ROSA  INSIGNARES                     D000000000525100000000000000000000100010010000000000000000000000F0010000008713500520160613000101 00000000000000000000000000000000000000000000000000000000000000000000000000000000000000000000000000000000000000000N 00000000000NCONT   00    00000000000          00000000000000000000000000000000000000000000 000000000000000A000000000000000000000000000000000000000000000 000000000000000000000000000000000000000     00000000                                                                                                                        000000000000000000
F0010000008713600001000080201703900013050500000000000000000201606130002001MUNDIAL CHEMICAL LTDA                             D000000002229800000000000000000000100010010000000000000000000000F0010000008713600120160613000101 00000000000000000000000000000000000000000000000000000000000000000000000000000000000000000000000000000000000000000N 00000000000NCONT   00    00000000000          00000000000000000000000000000000000000000000 000000000000000A000000000000000000000000000000000000000000000 000000000000000000000000000000000000000     00000000                                                                                                                        000000000000000000
F0010000008713600002000080201703900041450500000000000000000201606130002001MUNDIAL CHEMICAL LTDA                             C000000001820000000000000000000000100010010000000000000000000000F0010000008713600220160613000101 00000000000000000000000000000000000000000000000000000000000000000000000000000000000000000000000000000000000000000N 00000000000NCONT   00    00000000000          00000000000000000000000000000000000000000000 000000000000000A000000000000000000000000000000000000000000000 000000000000000000000000000000000000000     00000000                                                                                                                        000000000000000000
F0010000008713600003000080201703900042505000000000000000000201606130002001MUNDIAL CHEMICAL LTDA                             C000000000409800000000000000000000100010010000000000000000000000F0010000008713600320160613000101 00000000000000000000000000000000000000000000000000000000000000000000000000000000000000000000000000000000000000000N 00000000000NCONT   00    00000000000          00000000000000000000000000000000000000000000 000000000000000A000000000000000000000000000000000000000000000 000000000000000000000000000000000000000     00000000                                                                                                                        000000000000000000
F0010000008713600004000080201703900023658300000000000000000201606130002001MUNDIAL CHEMICAL LTDA                             C000000000014600000000000000000000100010010000000000000000000000F0010000008713600420160613000101 00000000000000000000000000000000000000000000000000000000000000000000000000000000000000000000000000000000000000000N 00000000000NCONT   00    00000000000          00000000000000000000000000000000000000000000 000000000000000A000000000000000000000000000000000000000000000 000000000000000000000000000000000000000     00000000                                                                                                                        000000000000000000
F0010000008713600005000080201703900013552100000000000000000201606130002001MUNDIAL CHEMICAL LTDA                             D000000000014600000000000000000000100010010000000000000000000000F0010000008713600520160613000101 00000000000000000000000000000000000000000000000000000000000000000000000000000000000000000000000000000000000000000N 00000000000NCONT   00    00000000000          00000000000000000000000000000000000000000000 000000000000000A000000000000000000000000000000000000000000000 000000000000000000000000000000000000000     00000000                                                                                                                        000000000000000000
F0010000008713700001000080002300200013050500000000000000000201606130002001DISREL S.A.                                       D000000021850000000000000000000000100010010000000000000000000000F0010000008713700120160613000101 00000000000000000000000000000000000000000000000000000000000000000000000000000000000000000000000000000000000000000N 00000000000NCONT   00    00000000000          00000000000000000000000000000000000000000000 000000000000000A000000000000000000000000000000000000000000000 000000000000000000000000000000000000000     00000000                                                                                                                        000000000000000000
F0010000008713700002000080002300200041450500000000000000000201606130002001DISREL S.A.                                       C000000017550000000000000000000000100010010000000000000000000000F0010000008713700220160613000101 00000000000000000000000000000000000000000000000000000000000000000000000000000000000000000000000000000000000000000N 00000000000NCONT   00    00000000000          00000000000000000000000000000000000000000000 000000000000000A000000000000000000000000000000000000000000000 000000000000000000000000000000000000000     00000000                                                                                                                        000000000000000000
F0010000008713700003000080002300200042505000000000000000000201606130002001DISREL S.A.                                       C000000004300000000000000000000000100010010000000000000000000000F0010000008713700320160613000101 00000000000000000000000000000000000000000000000000000000000000000000000000000000000000000000000000000000000000000N 00000000000NCONT   00    00000000000          00000000000000000000000000000000000000000000 000000000000000A000000000000000000000000000000000000000000000 000000000000000000000000000000000000000     00000000                                                                                                                        000000000000000000
F0010000008713700004000080002300200023658300000000000000000201606130002001DISREL S.A.                                       C000000000140400000000000000000000100010010000000000000000000000F0010000008713700420160613000101 00000000000000000000000000000000000000000000000000000000000000000000000000000000000000000000000000000000000000000N 00000000000NCONT   00    00000000000          00000000000000000000000000000000000000000000 000000000000000A000000000000000000000000000000000000000000000 000000000000000000000000000000000000000     00000000                                                                                                                        000000000000000000
F0010000008713700005000080002300200013552100000000000000000201606130002001DISREL S.A.                                       D000000000140400000000000000000000100010010000000000000000000000F0010000008713700520160613000101 00000000000000000000000000000000000000000000000000000000000000000000000000000000000000000000000000000000000000000N 00000000000NCONT   00    00000000000          00000000000000000000000000000000000000000000 000000000000000A000000000000000000000000000000000000000000000 000000000000000000000000000000000000000     00000000                                                                                                                        000000000000000000
F0010000008713800001000086000490200013050500000000000000000201606130002001PROV. DE PAPELES ANDINA S.A.                      D000000047126000000000000000000000100010010000000000000000000000F0010000008713800120160613000101 00000000000000000000000000000000000000000000000000000000000000000000000000000000000000000000000000000000000000000N 00000000000NCONT   00    00000000000          00000000000000000000000000000000000000000000 000000000000000A000000000000000000000000000000000000000000000 000000000000000000000000000000000000000     00000000                                                                                                                        000000000000000000
F0010000008713800002000086000490200041450500000000000000000201606130002001PROV. DE PAPELES ANDINA S.A.                      C000000043637800000000000000000000100010010000000000000000000000F0010000008713800220160613000101 00000000000000000000000000000000000000000000000000000000000000000000000000000000000000000000000000000000000000000N 00000000000NCONT   00    00000000000          00000000000000000000000000000000000000000000 000000000000000A000000000000000000000000000000000000000000000 000000000000000000000000000000000000000     00000000                                                                                                                        000000000000000000
F0010000008713800003000086000490200042505000000000000000000201606130002001PROV. DE PAPELES ANDINA S.A.                      C000000003488200000000000000000000100010010000000000000000000000F0010000008713800320160613000101 00000000000000000000000000000000000000000000000000000000000000000000000000000000000000000000000000000000000000000N 00000000000NCONT   00    00000000000          00000000000000000000000000000000000000000000 000000000000000A000000000000000000000000000000000000000000000 000000000000000000000000000000000000000     00000000                                                                                                                        000000000000000000
F0010000008713800004000086000490200023658300000000000000000201606130002001PROV. DE PAPELES ANDINA S.A.                      C000000000349100000000000000000000100010010000000000000000000000F0010000008713800420160613000101 00000000000000000000000000000000000000000000000000000000000000000000000000000000000000000000000000000000000000000N 00000000000NCONT   00    00000000000          00000000000000000000000000000000000000000000 000000000000000A000000000000000000000000000000000000000000000 000000000000000000000000000000000000000     00000000                                                                                                                        000000000000000000
F0010000008713800005000086000490200013552100000000000000000201606130002001PROV. DE PAPELES ANDINA S.A.                      D000000000349100000000000000000000100010010000000000000000000000F0010000008713800520160613000101 00000000000000000000000000000000000000000000000000000000000000000000000000000000000000000000000000000000000000000N 00000000000NCONT   00    00000000000          00000000000000000000000000000000000000000000 000000000000000A000000000000000000000000000000000000000000000 000000000000000000000000000000000000000     00000000                                                                                                                        000000000000000000
F0010000008713900001000000748239700013050500000000000000000201606130002001RAFAEL NAVARRO URIBE                              D000000152001500000000000000000000100010010000000000000000000000F0010000008713900120160613000101 00000000000000000000000000000000000000000000000000000000000000000000000000000000000000000000000000000000000000000N 00000000000NCONT   00    00000000000          00000000000000000000000000000000000000000000 000000000000000A000000000000000000000000000000000000000000000 000000000000000000000000000000000000000     00000000                                                                                                                        000000000000000000
F0010000008713900002000000748239700041450500000000000000000201606130002001RAFAEL NAVARRO URIBE                              C000000122550000000000000000000000100010010000000000000000000000F0010000008713900220160613000101 00000000000000000000000000000000000000000000000000000000000000000000000000000000000000000000000000000000000000000N 00000000000NCONT   00    00000000000          00000000000000000000000000000000000000000000 000000000000000A000000000000000000000000000000000000000000000 000000000000000000000000000000000000000     00000000                                                                                                                        000000000000000000
F0010000008713900003000000748239700042505000000000000000000201606130002001RAFAEL NAVARRO URIBE                              C000000029451500000000000000000000100010010000000000000000000000F0010000008713900320160613000101 00000000000000000000000000000000000000000000000000000000000000000000000000000000000000000000000000000000000000000N 00000000000NCONT   00    00000000000          00000000000000000000000000000000000000000000 000000000000000A000000000000000000000000000000000000000000000 000000000000000000000000000000000000000     00000000                                                                                                                        000000000000000000
F0010000008713900004000000748239700023658300000000000000000201606130002001RAFAEL NAVARRO URIBE                              C000000000980400000000000000000000100010010000000000000000000000F0010000008713900420160613000101 00000000000000000000000000000000000000000000000000000000000000000000000000000000000000000000000000000000000000000N 00000000000NCONT   00    00000000000          00000000000000000000000000000000000000000000 000000000000000A000000000000000000000000000000000000000000000 000000000000000000000000000000000000000     00000000                                                                                                                        000000000000000000
F0010000008713900005000000748239700013552100000000000000000201606130002001RAFAEL NAVARRO URIBE                              D000000000980400000000000000000000100010010000000000000000000000F0010000008713900520160613000101 00000000000000000000000000000000000000000000000000000000000000000000000000000000000000000000000000000000000000000N 00000000000NCONT   00    00000000000          00000000000000000000000000000000000000000000 000000000000000A000000000000000000000000000000000000000000000 000000000000000000000000000000000000000     00000000                                                                                                                        000000000000000000
F0010000008714000001000089080078800013050500000000000000000201606130002001SUMATEC SA                                        D000000026081000000000000000000000100010010000000000000000000000F0010000008714000120160613000101 00000000000000000000000000000000000000000000000000000000000000000000000000000000000000000000000000000000000000000N 00000000000NCONT   00    00000000000          00000000000000000000000000000000000000000000 000000000000000A000000000000000000000000000000000000000000000 000000000000000000000000000000000000000     00000000                                                                                                                        000000000000000000
F0010000008714000002000089080078800041450500000000000000000201606130002001SUMATEC SA                                        C000000025000000000000000000000000100010010000000000000000000000F0010000008714000220160613000101 00000000000000000000000000000000000000000000000000000000000000000000000000000000000000000000000000000000000000000N 00000000000NCONT   00    00000000000          00000000000000000000000000000000000000000000 000000000000000A000000000000000000000000000000000000000000000 000000000000000000000000000000000000000     00000000                                                                                                                        000000000000000000
F0010000008714000003000089080078800042505000000000000000000201606130002001SUMATEC SA                                        C000000001081000000000000000000000100010010000000000000000000000F0010000008714000320160613000101 00000000000000000000000000000000000000000000000000000000000000000000000000000000000000000000000000000000000000000N 00000000000NCONT   00    00000000000          00000000000000000000000000000000000000000000 000000000000000A000000000000000000000000000000000000000000000 000000000000000000000000000000000000000     00000000                                                                                                                        000000000000000000
F0010000008714000004000089080078800023658300000000000000000201606130002001SUMATEC SA                                        C000000000200000000000000000000000100010010000000000000000000000F0010000008714000420160613000101 00000000000000000000000000000000000000000000000000000000000000000000000000000000000000000000000000000000000000000N 00000000000NCONT   00    00000000000          00000000000000000000000000000000000000000000 000000000000000A000000000000000000000000000000000000000000000 000000000000000000000000000000000000000     00000000                                                                                                                        000000000000000000
F0010000008714000005000089080078800013552100000000000000000201606130002001SUMATEC SA                                        D000000000200000000000000000000000100010010000000000000000000000F0010000008714000520160613000101 00000000000000000000000000000000000000000000000000000000000000000000000000000000000000000000000000000000000000000N 00000000000NCONT   00    00000000000          00000000000000000000000000000000000000000000 000000000000000A000000000000000000000000000000000000000000000 000000000000000000000000000000000000000     00000000                                                                                                                        000000000000000000
F0010000008714100001000090050144800011050500000000000000000201606130002001PLASTICOS JR ASOCIADOS SAS                        D000000002500000000000000000000000100010010000000000000000000000F0010000008714100120160613000101 00000000000000000000000000000000000000000000000000000000000000000000000000000000000000000000000000000000000000000N 00000000000NCONT   00    00000000000          00000000000000000000000000000000000000000000 000000000000000A000000000000000000000000000000000000000000000 000000000000000000000000000000000000000     00000000                                                                                                                        000000000000000000
F0010000008714100002000090050144800041450500000000000000000201606130002001PLASTICOS JR ASOCIADOS SAS                        C000000001900000000000000000000000100010010000000000000000000000F0010000008714100220160613000101 00000000000000000000000000000000000000000000000000000000000000000000000000000000000000000000000000000000000000000N 00000000000NCONT   00    00000000000          00000000000000000000000000000000000000000000 000000000000000A000000000000000000000000000000000000000000000 000000000000000000000000000000000000000     00000000                                                                                                                        000000000000000000
F0010000008714100003000090050144800042505000000000000000000201606130002001PLASTICOS JR ASOCIADOS SAS                        C000000000600000000000000000000000100010010000000000000000000000F0010000008714100320160613000101 00000000000000000000000000000000000000000000000000000000000000000000000000000000000000000000000000000000000000000N 00000000000NCONT   00    00000000000          00000000000000000000000000000000000000000000 000000000000000A000000000000000000000000000000000000000000000 000000000000000000000000000000000000000     00000000                                                                                                                        000000000000000000
F0010000008714100004000090050144800023658300000000000000000201606130002001PLASTICOS JR ASOCIADOS SAS                        C000000000015200000000000000000000100010010000000000000000000000F0010000008714100420160613000101 00000000000000000000000000000000000000000000000000000000000000000000000000000000000000000000000000000000000000000N 00000000000NCONT   00    00000000000          00000000000000000000000000000000000000000000 000000000000000A000000000000000000000000000000000000000000000 000000000000000000000000000000000000000     00000000                                                                                                                        000000000000000000
F0010000008714100005000090050144800013552100000000000000000201606130002001PLASTICOS JR ASOCIADOS SAS                        D000000000015200000000000000000000100010010000000000000000000000F0010000008714100520160613000101 00000000000000000000000000000000000000000000000000000000000000000000000000000000000000000000000000000000000000000N 00000000000NCONT   00    00000000000          00000000000000000000000000000000000000000000 000000000000000A000000000000000000000000000000000000000000000 000000000000000000000000000000000000000     00000000                                                                                                                        000000000000000000
F0010000008714200001000090008711200013050500000000000000000201606130002001PACKAGING SUPPLIERS S.A.                          D000000025514000000000000000000000100010010000000000000000000000F0010000008714200120160613000101 00000000000000000000000000000000000000000000000000000000000000000000000000000000000000000000000000000000000000000N 00000000000NCONT   00    00000000000          00000000000000000000000000000000000000000000 000000000000000A000000000000000000000000000000000000000000000 000000000000000000000000000000000000000     00000000                                                                                                                        000000000000000000
F0010000008714200002000090008711200041450500000000000000000201606130002001PACKAGING SUPPLIERS S.A.                          C000000022150000000000000000000000100010010000000000000000000000F0010000008714200220160613000101 00000000000000000000000000000000000000000000000000000000000000000000000000000000000000000000000000000000000000000N 00000000000NCONT   00    00000000000          00000000000000000000000000000000000000000000 000000000000000A000000000000000000000000000000000000000000000 000000000000000000000000000000000000000     00000000                                                                                                                        000000000000000000
F0010000008714200003000090008711200042505000000000000000000201606130002001PACKAGING SUPPLIERS S.A.                          C000000003364000000000000000000000100010010000000000000000000000F0010000008714200320160613000101 00000000000000000000000000000000000000000000000000000000000000000000000000000000000000000000000000000000000000000N 00000000000NCONT   00    00000000000          00000000000000000000000000000000000000000000 000000000000000A000000000000000000000000000000000000000000000 000000000000000000000000000000000000000     00000000                                                                                                                        000000000000000000
F0010000008714200004000090008711200023658300000000000000000201606130002001PACKAGING SUPPLIERS S.A.                          C000000000177200000000000000000000100010010000000000000000000000F0010000008714200420160613000101 00000000000000000000000000000000000000000000000000000000000000000000000000000000000000000000000000000000000000000N 00000000000NCONT   00    00000000000          00000000000000000000000000000000000000000000 000000000000000A000000000000000000000000000000000000000000000 000000000000000000000000000000000000000     00000000                                                                                                                        000000000000000000
F0010000008714200005000090008711200013552100000000000000000201606130002001PACKAGING SUPPLIERS S.A.                          D000000000177200000000000000000000100010010000000000000000000000F0010000008714200520160613000101 00000000000000000000000000000000000000000000000000000000000000000000000000000000000000000000000000000000000000000N 00000000000NCONT   00    00000000000          00000000000000000000000000000000000000000000 000000000000000A000000000000000000000000000000000000000000000 000000000000000000000000000000000000000     00000000                                                                                                                        000000000000000000
F0010000008714300001000090050144800011050500000000000000000201606130002001PLASTICOS JR ASOCIADOS SAS                        D000000002200000000000000000000000100010010000000000000000000000F0010000008714300120160613000101 00000000000000000000000000000000000000000000000000000000000000000000000000000000000000000000000000000000000000000N 00000000000NCONT   00    00000000000          00000000000000000000000000000000000000000000 000000000000000A000000000000000000000000000000000000000000000 000000000000000000000000000000000000000     00000000                                                                                                                        000000000000000000
F0010000008714300002000090050144800041450500000000000000000201606130002001PLASTICOS JR ASOCIADOS SAS                        C000000001900000000000000000000000100010010000000000000000000000F0010000008714300220160613000101 00000000000000000000000000000000000000000000000000000000000000000000000000000000000000000000000000000000000000000N 00000000000NCONT   00    00000000000          00000000000000000000000000000000000000000000 000000000000000A000000000000000000000000000000000000000000000 000000000000000000000000000000000000000     00000000                                                                                                                        000000000000000000
F0010000008714300003000090050144800042505000000000000000000201606130002001PLASTICOS JR ASOCIADOS SAS                        C000000000300000000000000000000000100010010000000000000000000000F0010000008714300320160613000101 00000000000000000000000000000000000000000000000000000000000000000000000000000000000000000000000000000000000000000N 00000000000NCONT   00    00000000000          00000000000000000000000000000000000000000000 000000000000000A000000000000000000000000000000000000000000000 000000000000000000000000000000000000000     00000000                                                                                                                        000000000000000000
F0010000008714300004000090050144800023658300000000000000000201606130002001PLASTICOS JR ASOCIADOS SAS                        C000000000015200000000000000000000100010010000000000000000000000F0010000008714300420160613000101 00000000000000000000000000000000000000000000000000000000000000000000000000000000000000000000000000000000000000000N 00000000000NCONT   00    00000000000          00000000000000000000000000000000000000000000 000000000000000A000000000000000000000000000000000000000000000 000000000000000000000000000000000000000     00000000                                                                                                                        000000000000000000
F0010000008714300005000090050144800013552100000000000000000201606130002001PLASTICOS JR ASOCIADOS SAS                        D000000000015200000000000000000000100010010000000000000000000000F0010000008714300520160613000101 00000000000000000000000000000000000000000000000000000000000000000000000000000000000000000000000000000000000000000N 00000000000NCONT   00    00000000000          00000000000000000000000000000000000000000000 000000000000000A000000000000000000000000000000000000000000000 000000000000000000000000000000000000000     00000000                                                                                                                        000000000000000000
F0010000008714400001000080004943800013050500000000000000000201606130002001PAPELERIA EL CID S.A.                             D000000020857500000000000000000000100010010000000000000000000000F0010000008714400120160613000101 00000000000000000000000000000000000000000000000000000000000000000000000000000000000000000000000000000000000000000N 00000000000NCONT   00    00000000000          00000000000000000000000000000000000000000000 000000000000000A000000000000000000000000000000000000000000000 000000000000000000000000000000000000000     00000000                                                                                                                        000000000000000000
F0010000008714400002000080004943800041450500000000000000000201606130002001PAPELERIA EL CID S.A.                             C000000015470000000000000000000000100010010000000000000000000000F0010000008714400220160613000101 00000000000000000000000000000000000000000000000000000000000000000000000000000000000000000000000000000000000000000N 00000000000NCONT   00    00000000000          00000000000000000000000000000000000000000000 000000000000000A000000000000000000000000000000000000000000000 000000000000000000000000000000000000000     00000000                                                                                                                        000000000000000000
F0010000008714400003000080004943800042505000000000000000000201606130002001PAPELERIA EL CID S.A.                             C000000005387500000000000000000000100010010000000000000000000000F0010000008714400320160613000101 00000000000000000000000000000000000000000000000000000000000000000000000000000000000000000000000000000000000000000N 00000000000NCONT   00    00000000000          00000000000000000000000000000000000000000000 000000000000000A000000000000000000000000000000000000000000000 000000000000000000000000000000000000000     00000000                                                                                                                        000000000000000000
F0010000008714400004000080004943800023658300000000000000000201606130002001PAPELERIA EL CID S.A.                             C000000000123800000000000000000000100010010000000000000000000000F0010000008714400420160613000101 00000000000000000000000000000000000000000000000000000000000000000000000000000000000000000000000000000000000000000N 00000000000NCONT   00    00000000000          00000000000000000000000000000000000000000000 000000000000000A000000000000000000000000000000000000000000000 000000000000000000000000000000000000000     00000000                                                                                                                        000000000000000000
F0010000008714400005000080004943800013552100000000000000000201606130002001PAPELERIA EL CID S.A.                             D000000000123800000000000000000000100010010000000000000000000000F0010000008714400520160613000101 00000000000000000000000000000000000000000000000000000000000000000000000000000000000000000000000000000000000000000N 00000000000NCONT   00    00000000000          00000000000000000000000000000000000000000000 000000000000000A000000000000000000000000000000000000000000000 000000000000000000000000000000000000000     00000000                                                                                                                        000000000000000000
F0010000008714500001000003058152700011050500000000000000000201606130002001ELENA NISPERUZA                                   D000000008000000000000000000000000100010010000000000000000000000F0010000008714500120160613000101 00000000000000000000000000000000000000000000000000000000000000000000000000000000000000000000000000000000000000000N 00000000000NCONT   00    00000000000          00000000000000000000000000000000000000000000 000000000000000A000000000000000000000000000000000000000000000 000000000000000000000000000000000000000     00000000                                                                                                                        000000000000000000
F0010000008714500002000003058152700041450500000000000000000201606130002001ELENA NISPERUZA                                   C000000007000000000000000000000000100010010000000000000000000000F0010000008714500220160613000101 00000000000000000000000000000000000000000000000000000000000000000000000000000000000000000000000000000000000000000N 00000000000NCONT   00    00000000000          00000000000000000000000000000000000000000000 000000000000000A000000000000000000000000000000000000000000000 000000000000000000000000000000000000000     00000000                                                                                                                        000000000000000000
F0010000008714500003000003058152700042505000000000000000000201606130002001ELENA NISPERUZA                                   C000000001000000000000000000000000100010010000000000000000000000F0010000008714500320160613000101 00000000000000000000000000000000000000000000000000000000000000000000000000000000000000000000000000000000000000000N 00000000000NCONT   00    00000000000          00000000000000000000000000000000000000000000 000000000000000A000000000000000000000000000000000000000000000 000000000000000000000000000000000000000     00000000                                                                                                                        000000000000000000
F0010000008714500004000003058152700023658300000000000000000201606130002001ELENA NISPERUZA                                   C000000000056000000000000000000000100010010000000000000000000000F0010000008714500420160613000101 00000000000000000000000000000000000000000000000000000000000000000000000000000000000000000000000000000000000000000N 00000000000NCONT   00    00000000000          00000000000000000000000000000000000000000000 000000000000000A000000000000000000000000000000000000000000000 000000000000000000000000000000000000000     00000000                                                                                                                        000000000000000000
F0010000008714500005000003058152700013552100000000000000000201606130002001ELENA NISPERUZA                                   D000000000056000000000000000000000100010010000000000000000000000F0010000008714500520160613000101 00000000000000000000000000000000000000000000000000000000000000000000000000000000000000000000000000000000000000000N 00000000000NCONT   00    00000000000          00000000000000000000000000000000000000000000 000000000000000A000000000000000000000000000000000000000000000 000000000000000000000000000000000000000     00000000                                                                                                                        000000000000000000
F0010000008714600001000001022529300011050500000000000000000201606130002001ALBERTO ALVAREZ ISAZA                             D000000003520000000000000000000000100010010000000000000000000000F0010000008714600120160613000101 00000000000000000000000000000000000000000000000000000000000000000000000000000000000000000000000000000000000000000N 00000000000NCONT   00    00000000000          00000000000000000000000000000000000000000000 000000000000000A000000000000000000000000000000000000000000000 000000000000000000000000000000000000000     00000000                                                                                                                        000000000000000000
F0010000008714600002000001022529300041450500000000000000000201606130002001ALBERTO ALVAREZ ISAZA                             C000000003520000000000000000000000100010010000000000000000000000F0010000008714600220160613000101 00000000000000000000000000000000000000000000000000000000000000000000000000000000000000000000000000000000000000000N 00000000000NCONT   00    00000000000          00000000000000000000000000000000000000000000 000000000000000A000000000000000000000000000000000000000000000 000000000000000000000000000000000000000     00000000                                                                                                                        000000000000000000
F0010000008714600003000001022529300042505000000000000000000201606130002001ALBERTO ALVAREZ ISAZA                             C000000000000000000000000000000000100010010000000000000000000000F0010000008714600320160613000101 00000000000000000000000000000000000000000000000000000000000000000000000000000000000000000000000000000000000000000N 00000000000NCONT   00    00000000000          00000000000000000000000000000000000000000000 000000000000000A000000000000000000000000000000000000000000000 000000000000000000000000000000000000000     00000000                                                                                                                        000000000000000000
F0010000008714600004000001022529300023658300000000000000000201606130002001ALBERTO ALVAREZ ISAZA                             C000000000028200000000000000000000100010010000000000000000000000F0010000008714600420160613000101 00000000000000000000000000000000000000000000000000000000000000000000000000000000000000000000000000000000000000000N 00000000000NCONT   00    00000000000          00000000000000000000000000000000000000000000 000000000000000A000000000000000000000000000000000000000000000 000000000000000000000000000000000000000     00000000                                                                                                                        000000000000000000
F0010000008714600005000001022529300013552100000000000000000201606130002001ALBERTO ALVAREZ ISAZA                             D000000000028200000000000000000000100010010000000000000000000000F0010000008714600520160613000101 00000000000000000000000000000000000000000000000000000000000000000000000000000000000000000000000000000000000000000N 00000000000NCONT   00    00000000000          00000000000000000000000000000000000000000000 000000000000000A000000000000000000000000000000000000000000000 000000000000000000000000000000000000000     00000000                                                                                                                        000000000000000000
F0010000008714700001000001022529300011050500000000000000000201606130002001ALBERTO ALVAREZ ISAZA                             D000000010560000000000000000000000100010010000000000000000000000F0010000008714700120160613000101 00000000000000000000000000000000000000000000000000000000000000000000000000000000000000000000000000000000000000000N 00000000000NCONT   00    00000000000          00000000000000000000000000000000000000000000 000000000000000A000000000000000000000000000000000000000000000 000000000000000000000000000000000000000     00000000                                                                                                                        000000000000000000
F0010000008714700002000001022529300041450500000000000000000201606130002001ALBERTO ALVAREZ ISAZA                             C000000010560000000000000000000000100010010000000000000000000000F0010000008714700220160613000101 00000000000000000000000000000000000000000000000000000000000000000000000000000000000000000000000000000000000000000N 00000000000NCONT   00    00000000000          00000000000000000000000000000000000000000000 000000000000000A000000000000000000000000000000000000000000000 000000000000000000000000000000000000000     00000000                                                                                                                        000000000000000000
