F0010000006567000001000089021246300013050500000000000000000201412010002001LUBRIGRAS S.A.                                    D000000103942900000000000000000000100010010000000000000000000000F0010000006567000120141201000101 00000000000000000000000000000000000000000000000000000000000000000000000000000000000000000000000000000000000000000N 00000000000NCONT   00    00000000000          00000000000000000000000000000000000000000000 000000000000000A000000000000000000000000000000000000000000000 000000000000000000000000000000000000000     00000000                                                                                                                        000000000000000000
F0010000006567000002000089021246300041450500000000000000000201412010002001LUBRIGRAS S.A.                                    C000000100650000000000000000000000100010010000000000000000000000F0010000006567000220141201000101 00000000000000000000000000000000000000000000000000000000000000000000000000000000000000000000000000000000000000000N 00000000000NCONT   00    00000000000          00000000000000000000000000000000000000000000 000000000000000A000000000000000000000000000000000000000000000 000000000000000000000000000000000000000     00000000                                                                                                                        000000000000000000
F0010000006567000003000089021246300042505000000000000000000201412010002001LUBRIGRAS S.A.                                    C000000003292900000000000000000000100010010000000000000000000000F0010000006567000320141201000101 00000000000000000000000000000000000000000000000000000000000000000000000000000000000000000000000000000000000000000N 00000000000NCONT   00    00000000000          00000000000000000000000000000000000000000000 000000000000000A000000000000000000000000000000000000000000000 000000000000000000000000000000000000000     00000000                                                                                                                        000000000000000000
F0010000006567000004000089021246300023658300000000000000000201412010002001LUBRIGRAS S.A.                                    C000000000805200000000000000000000100010010000000000000000000000F0010000006567000420141201000101 00000000000000000000000000000000000000000000000000000000000000000000000000000000000000000000000000000000000000000N 00000000000NCONT   00    00000000000          00000000000000000000000000000000000000000000 000000000000000A000000000000000000000000000000000000000000000 000000000000000000000000000000000000000     00000000                                                                                                                        000000000000000000
F0010000006567000005000089021246300013552100000000000000000201412010002001LUBRIGRAS S.A.                                    D000000000805200000000000000000000100010010000000000000000000000F0010000006567000520141201000101 00000000000000000000000000000000000000000000000000000000000000000000000000000000000000000000000000000000000000000N 00000000000NCONT   00    00000000000          00000000000000000000000000000000000000000000 000000000000000A000000000000000000000000000000000000000000000 000000000000000000000000000000000000000     00000000                                                                                                                        000000000000000000
F0010000006567100001000081102758700013050500000000000000000201412010002001C.I. ABRACOL S.A EMA                              D000000084021900000000000000000000100010010000000000000000000000F0010000006567100120141201000101 00000000000000000000000000000000000000000000000000000000000000000000000000000000000000000000000000000000000000000N 00000000000NCONT   00    00000000000          00000000000000000000000000000000000000000000 000000000000000A000000000000000000000000000000000000000000000 000000000000000000000000000000000000000     00000000                                                                                                                        000000000000000000
F0010000006567100002000081102758700041450500000000000000000201412010002001C.I. ABRACOL S.A EMA                              C000000059340000000000000000000000100010010000000000000000000000F0010000006567100220141201000101 00000000000000000000000000000000000000000000000000000000000000000000000000000000000000000000000000000000000000000N 00000000000NCONT   00    00000000000          00000000000000000000000000000000000000000000 000000000000000A000000000000000000000000000000000000000000000 000000000000000000000000000000000000000     00000000                                                                                                                        000000000000000000
F0010000006567100003000081102758700041750100000000000000000201412010002001C.I. ABRACOL S.A EMA                              D000000001780200000000000000000000100010010000000000000000000000F0010000006567100320141201000101 00000000000000000000000000000000000000000000000000000000000000000000000000000000000000000000000000000000000000000N 00000000000NCONT   00    00000000000          00000000000000000000000000000000000000000000 000000000000000A000000000000000000000000000000000000000000000 000000000000000000000000000000000000000     00000000                                                                                                                        000000000000000000
F0010000006567100004000081102758700042505000000000000000000201412010002001C.I. ABRACOL S.A EMA                              C000000026462100000000000000000000100010010000000000000000000000F0010000006567100420141201000101 00000000000000000000000000000000000000000000000000000000000000000000000000000000000000000000000000000000000000000N 00000000000NCONT   00    00000000000          00000000000000000000000000000000000000000000 000000000000000A000000000000000000000000000000000000000000000 000000000000000000000000000000000000000     00000000                                                                                                                        000000000000000000
F0010000006567100005000081102758700023658300000000000000000201412010002001C.I. ABRACOL S.A EMA                              C000000000474700000000000000000000100010010000000000000000000000F0010000006567100520141201000101 00000000000000000000000000000000000000000000000000000000000000000000000000000000000000000000000000000000000000000N 00000000000NCONT   00    00000000000          00000000000000000000000000000000000000000000 000000000000000A000000000000000000000000000000000000000000000 000000000000000000000000000000000000000     00000000                                                                                                                        000000000000000000
F0010000006567100006000081102758700013552100000000000000000201412010002001C.I. ABRACOL S.A EMA                              D000000000474700000000000000000000100010010000000000000000000000F0010000006567100620141201000101 00000000000000000000000000000000000000000000000000000000000000000000000000000000000000000000000000000000000000000N 00000000000NCONT   00    00000000000          00000000000000000000000000000000000000000000 000000000000000A000000000000000000000000000000000000000000000 000000000000000000000000000000000000000     00000000                                                                                                                        000000000000000000
F0010000006567200001000081102758700013050500000000000000000201412010002001C.I. ABRACOL S.A EMA                              D000000103727300000000000000000000100010010000000000000000000000F0010000006567200120141201000101 00000000000000000000000000000000000000000000000000000000000000000000000000000000000000000000000000000000000000000N 00000000000NCONT   00    00000000000          00000000000000000000000000000000000000000000 000000000000000A000000000000000000000000000000000000000000000 000000000000000000000000000000000000000     00000000                                                                                                                        000000000000000000
F0010000006567200002000081102758700041450500000000000000000201412010002001C.I. ABRACOL S.A EMA                              C000000069510000000000000000000000100010010000000000000000000000F0010000006567200220141201000101 00000000000000000000000000000000000000000000000000000000000000000000000000000000000000000000000000000000000000000N 00000000000NCONT   00    00000000000          00000000000000000000000000000000000000000000 000000000000000A000000000000000000000000000000000000000000000 000000000000000000000000000000000000000     00000000                                                                                                                        000000000000000000
F0010000006567200003000081102758700041750100000000000000000201412010002001C.I. ABRACOL S.A EMA                              D000000002085300000000000000000000100010010000000000000000000000F0010000006567200320141201000101 00000000000000000000000000000000000000000000000000000000000000000000000000000000000000000000000000000000000000000N 00000000000NCONT   00    00000000000          00000000000000000000000000000000000000000000 000000000000000A000000000000000000000000000000000000000000000 000000000000000000000000000000000000000     00000000                                                                                                                        000000000000000000
F0010000006567200004000081102758700042505000000000000000000201412010002001C.I. ABRACOL S.A EMA                              C000000036302600000000000000000000100010010000000000000000000000F0010000006567200420141201000101 00000000000000000000000000000000000000000000000000000000000000000000000000000000000000000000000000000000000000000N 00000000000NCONT   00    00000000000          00000000000000000000000000000000000000000000 000000000000000A000000000000000000000000000000000000000000000 000000000000000000000000000000000000000     00000000                                                                                                                        000000000000000000
F0010000006567200005000081102758700023658300000000000000000201412010002001C.I. ABRACOL S.A EMA                              C000000000556100000000000000000000100010010000000000000000000000F0010000006567200520141201000101 00000000000000000000000000000000000000000000000000000000000000000000000000000000000000000000000000000000000000000N 00000000000NCONT   00    00000000000          00000000000000000000000000000000000000000000 000000000000000A000000000000000000000000000000000000000000000 000000000000000000000000000000000000000     00000000                                                                                                                        000000000000000000
F0010000006567200006000081102758700013552100000000000000000201412010002001C.I. ABRACOL S.A EMA                              D000000000556100000000000000000000100010010000000000000000000000F0010000006567200620141201000101 00000000000000000000000000000000000000000000000000000000000000000000000000000000000000000000000000000000000000000N 00000000000NCONT   00    00000000000          00000000000000000000000000000000000000000000 000000000000000A000000000000000000000000000000000000000000000 000000000000000000000000000000000000000     00000000                                                                                                                        000000000000000000
F0010000006567300001000081102758700013050500000000000000000201412010002001C.I. ABRACOL S.A EMA                              D000000076138300000000000000000000100010010000000000000000000000F0010000006567300120141201000101 00000000000000000000000000000000000000000000000000000000000000000000000000000000000000000000000000000000000000000N 00000000000NCONT   00    00000000000          00000000000000000000000000000000000000000000 000000000000000A000000000000000000000000000000000000000000000 000000000000000000000000000000000000000     00000000                                                                                                                        000000000000000000
F0010000006567300002000081102758700041450500000000000000000201412010002001C.I. ABRACOL S.A EMA                              C000000051650000000000000000000000100010010000000000000000000000F0010000006567300220141201000101 00000000000000000000000000000000000000000000000000000000000000000000000000000000000000000000000000000000000000000N 00000000000NCONT   00    00000000000          00000000000000000000000000000000000000000000 000000000000000A000000000000000000000000000000000000000000000 000000000000000000000000000000000000000     00000000                                                                                                                        000000000000000000
F0010000006567300003000081102758700041750100000000000000000201412010002001C.I. ABRACOL S.A EMA                              D000000001549500000000000000000000100010010000000000000000000000F0010000006567300320141201000101 00000000000000000000000000000000000000000000000000000000000000000000000000000000000000000000000000000000000000000N 00000000000NCONT   00    00000000000          00000000000000000000000000000000000000000000 000000000000000A000000000000000000000000000000000000000000000 000000000000000000000000000000000000000     00000000                                                                                                                        000000000000000000
F0010000006567300004000081102758700042505000000000000000000201412010002001C.I. ABRACOL S.A EMA                              C000000026037800000000000000000000100010010000000000000000000000F0010000006567300420141201000101 00000000000000000000000000000000000000000000000000000000000000000000000000000000000000000000000000000000000000000N 00000000000NCONT   00    00000000000          00000000000000000000000000000000000000000000 000000000000000A000000000000000000000000000000000000000000000 000000000000000000000000000000000000000     00000000                                                                                                                        000000000000000000
F0010000006567300005000081102758700023658300000000000000000201412010002001C.I. ABRACOL S.A EMA                              C000000000413200000000000000000000100010010000000000000000000000F0010000006567300520141201000101 00000000000000000000000000000000000000000000000000000000000000000000000000000000000000000000000000000000000000000N 00000000000NCONT   00    00000000000          00000000000000000000000000000000000000000000 000000000000000A000000000000000000000000000000000000000000000 000000000000000000000000000000000000000     00000000                                                                                                                        000000000000000000
F0010000006567300006000081102758700013552100000000000000000201412010002001C.I. ABRACOL S.A EMA                              D000000000413200000000000000000000100010010000000000000000000000F0010000006567300620141201000101 00000000000000000000000000000000000000000000000000000000000000000000000000000000000000000000000000000000000000000N 00000000000NCONT   00    00000000000          00000000000000000000000000000000000000000000 000000000000000A000000000000000000000000000000000000000000000 000000000000000000000000000000000000000     00000000                                                                                                                        000000000000000000
F0010000006567400001000081102758700013050500000000000000000201412010002001C.I. ABRACOL S.A EMA                              D000000090957500000000000000000000100010010000000000000000000000F0010000006567400120141201000101 00000000000000000000000000000000000000000000000000000000000000000000000000000000000000000000000000000000000000000N 00000000000NCONT   00    00000000000          00000000000000000000000000000000000000000000 000000000000000A000000000000000000000000000000000000000000000 000000000000000000000000000000000000000     00000000                                                                                                                        000000000000000000
F0010000006567400002000081102758700041450500000000000000000201412010002001C.I. ABRACOL S.A EMA                              C000000052160000000000000000000000100010010000000000000000000000F0010000006567400220141201000101 00000000000000000000000000000000000000000000000000000000000000000000000000000000000000000000000000000000000000000N 00000000000NCONT   00    00000000000          00000000000000000000000000000000000000000000 000000000000000A000000000000000000000000000000000000000000000 000000000000000000000000000000000000000     00000000                                                                                                                        000000000000000000
F0010000006567400003000081102758700041750100000000000000000201412010002001C.I. ABRACOL S.A EMA                              D000000001564800000000000000000000100010010000000000000000000000F0010000006567400320141201000101 00000000000000000000000000000000000000000000000000000000000000000000000000000000000000000000000000000000000000000N 00000000000NCONT   00    00000000000          00000000000000000000000000000000000000000000 000000000000000A000000000000000000000000000000000000000000000 000000000000000000000000000000000000000     00000000                                                                                                                        000000000000000000
F0010000006567400004000081102758700042505000000000000000000201412010002001C.I. ABRACOL S.A EMA                              C000000040362300000000000000000000100010010000000000000000000000F0010000006567400420141201000101 00000000000000000000000000000000000000000000000000000000000000000000000000000000000000000000000000000000000000000N 00000000000NCONT   00    00000000000          00000000000000000000000000000000000000000000 000000000000000A000000000000000000000000000000000000000000000 000000000000000000000000000000000000000     00000000                                                                                                                        000000000000000000
F0010000006567400005000081102758700023658300000000000000000201412010002001C.I. ABRACOL S.A EMA                              C000000000417300000000000000000000100010010000000000000000000000F0010000006567400520141201000101 00000000000000000000000000000000000000000000000000000000000000000000000000000000000000000000000000000000000000000N 00000000000NCONT   00    00000000000          00000000000000000000000000000000000000000000 000000000000000A000000000000000000000000000000000000000000000 000000000000000000000000000000000000000     00000000                                                                                                                        000000000000000000
F0010000006567400006000081102758700013552100000000000000000201412010002001C.I. ABRACOL S.A EMA                              D000000000417300000000000000000000100010010000000000000000000000F0010000006567400620141201000101 00000000000000000000000000000000000000000000000000000000000000000000000000000000000000000000000000000000000000000N 00000000000NCONT   00    00000000000          00000000000000000000000000000000000000000000 000000000000000A000000000000000000000000000000000000000000000 000000000000000000000000000000000000000     00000000                                                                                                                        000000000000000000
F0010000006567500001000007225219800011050500000000000000000201412010002001MAURICIO ALVAREZ VARELO                           D000000007900000000000000000000000100010010000000000000000000000F0010000006567500120141201000101 00000000000000000000000000000000000000000000000000000000000000000000000000000000000000000000000000000000000000000N 00000000000NCONT   00    00000000000          00000000000000000000000000000000000000000000 000000000000000A000000000000000000000000000000000000000000000 000000000000000000000000000000000000000     00000000                                                                                                                        000000000000000000
F0010000006567500002000007225219800041450500000000000000000201412010002001MAURICIO ALVAREZ VARELO                           C000000006250000000000000000000000100010010000000000000000000000F0010000006567500220141201000101 00000000000000000000000000000000000000000000000000000000000000000000000000000000000000000000000000000000000000000N 00000000000NCONT   00    00000000000          00000000000000000000000000000000000000000000 000000000000000A000000000000000000000000000000000000000000000 000000000000000000000000000000000000000     00000000                                                                                                                        000000000000000000
F0010000006567500003000007225219800042505000000000000000000201412010002001MAURICIO ALVAREZ VARELO                           C000000001650000000000000000000000100010010000000000000000000000F0010000006567500320141201000101 00000000000000000000000000000000000000000000000000000000000000000000000000000000000000000000000000000000000000000N 00000000000NCONT   00    00000000000          00000000000000000000000000000000000000000000 000000000000000A000000000000000000000000000000000000000000000 000000000000000000000000000000000000000     00000000                                                                                                                        000000000000000000
F0010000006567500004000007225219800023658300000000000000000201412010002001MAURICIO ALVAREZ VARELO                           C000000000050000000000000000000000100010010000000000000000000000F0010000006567500420141201000101 00000000000000000000000000000000000000000000000000000000000000000000000000000000000000000000000000000000000000000N 00000000000NCONT   00    00000000000          00000000000000000000000000000000000000000000 000000000000000A000000000000000000000000000000000000000000000 000000000000000000000000000000000000000     00000000                                                                                                                        000000000000000000
F0010000006567500005000007225219800013552100000000000000000201412010002001MAURICIO ALVAREZ VARELO                           D000000000050000000000000000000000100010010000000000000000000000F0010000006567500520141201000101 00000000000000000000000000000000000000000000000000000000000000000000000000000000000000000000000000000000000000000N 00000000000NCONT   00    00000000000          00000000000000000000000000000000000000000000 000000000000000A000000000000000000000000000000000000000000000 000000000000000000000000000000000000000     00000000                                                                                                                        000000000000000000
F0010000006567600001000090059638100011050500000000000000000201412010002001CACHARRERIA MAGANGUE                              D000000008500000000000000000000000100010010000000000000000000000F0010000006567600120141201000101 00000000000000000000000000000000000000000000000000000000000000000000000000000000000000000000000000000000000000000N 00000000000NCONT   00    00000000000          00000000000000000000000000000000000000000000 000000000000000A000000000000000000000000000000000000000000000 000000000000000000000000000000000000000     00000000                                                                                                                        000000000000000000
F0010000006567600002000090059638100041450500000000000000000201412010002001CACHARRERIA MAGANGUE                              C000000007000000000000000000000000100010010000000000000000000000F0010000006567600220141201000101 00000000000000000000000000000000000000000000000000000000000000000000000000000000000000000000000000000000000000000N 00000000000NCONT   00    00000000000          00000000000000000000000000000000000000000000 000000000000000A000000000000000000000000000000000000000000000 000000000000000000000000000000000000000     00000000                                                                                                                        000000000000000000
F0010000006567600003000090059638100042505000000000000000000201412010002001CACHARRERIA MAGANGUE                              C000000001500000000000000000000000100010010000000000000000000000F0010000006567600320141201000101 00000000000000000000000000000000000000000000000000000000000000000000000000000000000000000000000000000000000000000N 00000000000NCONT   00    00000000000          00000000000000000000000000000000000000000000 000000000000000A000000000000000000000000000000000000000000000 000000000000000000000000000000000000000     00000000                                                                                                                        000000000000000000
F0010000006567600004000090059638100023658300000000000000000201412010002001CACHARRERIA MAGANGUE                              C000000000056000000000000000000000100010010000000000000000000000F0010000006567600420141201000101 00000000000000000000000000000000000000000000000000000000000000000000000000000000000000000000000000000000000000000N 00000000000NCONT   00    00000000000          00000000000000000000000000000000000000000000 000000000000000A000000000000000000000000000000000000000000000 000000000000000000000000000000000000000     00000000                                                                                                                        000000000000000000
F0010000006567600005000090059638100013552100000000000000000201412010002001CACHARRERIA MAGANGUE                              D000000000056000000000000000000000100010010000000000000000000000F0010000006567600520141201000101 00000000000000000000000000000000000000000000000000000000000000000000000000000000000000000000000000000000000000000N 00000000000NCONT   00    00000000000          00000000000000000000000000000000000000000000 000000000000000A000000000000000000000000000000000000000000000 000000000000000000000000000000000000000     00000000                                                                                                                        000000000000000000
F0010000006567700001000090059638100011050500000000000000000201412010002001CACHARRERIA MAGANGUE                              D000000008500000000000000000000000100010010000000000000000000000F0010000006567700120141201000101 00000000000000000000000000000000000000000000000000000000000000000000000000000000000000000000000000000000000000000N 00000000000NCONT   00    00000000000          00000000000000000000000000000000000000000000 000000000000000A000000000000000000000000000000000000000000000 000000000000000000000000000000000000000     00000000                                                                                                                        000000000000000000
F0010000006567700002000090059638100041450500000000000000000201412010002001CACHARRERIA MAGANGUE                              C000000007000000000000000000000000100010010000000000000000000000F0010000006567700220141201000101 00000000000000000000000000000000000000000000000000000000000000000000000000000000000000000000000000000000000000000N 00000000000NCONT   00    00000000000          00000000000000000000000000000000000000000000 000000000000000A000000000000000000000000000000000000000000000 000000000000000000000000000000000000000     00000000                                                                                                                        000000000000000000
F0010000006567700003000090059638100042505000000000000000000201412010002001CACHARRERIA MAGANGUE                              C000000001500000000000000000000000100010010000000000000000000000F0010000006567700320141201000101 00000000000000000000000000000000000000000000000000000000000000000000000000000000000000000000000000000000000000000N 00000000000NCONT   00    00000000000          00000000000000000000000000000000000000000000 000000000000000A000000000000000000000000000000000000000000000 000000000000000000000000000000000000000     00000000                                                                                                                        000000000000000000
F0010000006567700004000090059638100023658300000000000000000201412010002001CACHARRERIA MAGANGUE                              C000000000056000000000000000000000100010010000000000000000000000F0010000006567700420141201000101 00000000000000000000000000000000000000000000000000000000000000000000000000000000000000000000000000000000000000000N 00000000000NCONT   00    00000000000          00000000000000000000000000000000000000000000 000000000000000A000000000000000000000000000000000000000000000 000000000000000000000000000000000000000     00000000                                                                                                                        000000000000000000
F0010000006567700005000090059638100013552100000000000000000201412010002001CACHARRERIA MAGANGUE                              D000000000056000000000000000000000100010010000000000000000000000F0010000006567700520141201000101 00000000000000000000000000000000000000000000000000000000000000000000000000000000000000000000000000000000000000000N 00000000000NCONT   00    00000000000          00000000000000000000000000000000000000000000 000000000000000A000000000000000000000000000000000000000000000 000000000000000000000000000000000000000     00000000                                                                                                                        000000000000000000
F0010000006567800001000090059638100011050500000000000000000201412010002001CACHARRERIA MAGANGUE                              D000000007500000000000000000000000100010010000000000000000000000F0010000006567800120141201000101 00000000000000000000000000000000000000000000000000000000000000000000000000000000000000000000000000000000000000000N 00000000000NCONT   00    00000000000          00000000000000000000000000000000000000000000 000000000000000A000000000000000000000000000000000000000000000 000000000000000000000000000000000000000     00000000                                                                                                                        000000000000000000
F0010000006567800002000090059638100041450500000000000000000201412010002001CACHARRERIA MAGANGUE                              C000000005500000000000000000000000100010010000000000000000000000F0010000006567800220141201000101 00000000000000000000000000000000000000000000000000000000000000000000000000000000000000000000000000000000000000000N 00000000000NCONT   00    00000000000          00000000000000000000000000000000000000000000 000000000000000A000000000000000000000000000000000000000000000 000000000000000000000000000000000000000     00000000                                                                                                                        000000000000000000
F0010000006567800003000090059638100042505000000000000000000201412010002001CACHARRERIA MAGANGUE                              C000000002000000000000000000000000100010010000000000000000000000F0010000006567800320141201000101 00000000000000000000000000000000000000000000000000000000000000000000000000000000000000000000000000000000000000000N 00000000000NCONT   00    00000000000          00000000000000000000000000000000000000000000 000000000000000A000000000000000000000000000000000000000000000 000000000000000000000000000000000000000     00000000                                                                                                                        000000000000000000
F0010000006567800004000090059638100023658300000000000000000201412010002001CACHARRERIA MAGANGUE                              C000000000044000000000000000000000100010010000000000000000000000F0010000006567800420141201000101 00000000000000000000000000000000000000000000000000000000000000000000000000000000000000000000000000000000000000000N 00000000000NCONT   00    00000000000          00000000000000000000000000000000000000000000 000000000000000A000000000000000000000000000000000000000000000 000000000000000000000000000000000000000     00000000                                                                                                                        000000000000000000
F0010000006567800005000090059638100013552100000000000000000201412010002001CACHARRERIA MAGANGUE                              D000000000044000000000000000000000100010010000000000000000000000F0010000006567800520141201000101 00000000000000000000000000000000000000000000000000000000000000000000000000000000000000000000000000000000000000000N 00000000000NCONT   00    00000000000          00000000000000000000000000000000000000000000 000000000000000A000000000000000000000000000000000000000000000 000000000000000000000000000000000000000     00000000                                                                                                                        000000000000000000
F0010000006567900001000003265780700011050500000000000000000201412010002001ZUNILDA GUERRERO                                  D000000001600000000000000000000000100010010000000000000000000000F0010000006567900120141201000101 00000000000000000000000000000000000000000000000000000000000000000000000000000000000000000000000000000000000000000N 00000000000NCONT   00    00000000000          00000000000000000000000000000000000000000000 000000000000000A000000000000000000000000000000000000000000000 000000000000000000000000000000000000000     00000000                                                                                                                        000000000000000000
F0010000006567900002000003265780700041450500000000000000000201412010002001ZUNILDA GUERRERO                                  C000000001000000000000000000000000100010010000000000000000000000F0010000006567900220141201000101 00000000000000000000000000000000000000000000000000000000000000000000000000000000000000000000000000000000000000000N 00000000000NCONT   00    00000000000          00000000000000000000000000000000000000000000 000000000000000A000000000000000000000000000000000000000000000 000000000000000000000000000000000000000     00000000                                                                                                                        000000000000000000
F0010000006567900003000003265780700042505000000000000000000201412010002001ZUNILDA GUERRERO                                  C000000000600000000000000000000000100010010000000000000000000000F0010000006567900320141201000101 00000000000000000000000000000000000000000000000000000000000000000000000000000000000000000000000000000000000000000N 00000000000NCONT   00    00000000000          00000000000000000000000000000000000000000000 000000000000000A000000000000000000000000000000000000000000000 000000000000000000000000000000000000000     00000000                                                                                                                        000000000000000000
F0010000006567900004000003265780700023658300000000000000000201412010002001ZUNILDA GUERRERO                                  C000000000008000000000000000000000100010010000000000000000000000F0010000006567900420141201000101 00000000000000000000000000000000000000000000000000000000000000000000000000000000000000000000000000000000000000000N 00000000000NCONT   00    00000000000          00000000000000000000000000000000000000000000 000000000000000A000000000000000000000000000000000000000000000 000000000000000000000000000000000000000     00000000                                                                                                                        000000000000000000
F0010000006567900005000003265780700013552100000000000000000201412010002001ZUNILDA GUERRERO                                  D000000000008000000000000000000000100010010000000000000000000000F0010000006567900520141201000101 00000000000000000000000000000000000000000000000000000000000000000000000000000000000000000000000000000000000000000N 00000000000NCONT   00    00000000000          00000000000000000000000000000000000000000000 000000000000000A000000000000000000000000000000000000000000000 000000000000000000000000000000000000000     00000000                                                                                                                        000000000000000000
F0010000006568000001000002247995200011050500000000000000000201412010002001JAIDITH  VALENCIA ..                              D000000002000000000000000000000000100010010000000000000000000000F0010000006568000120141201000101 00000000000000000000000000000000000000000000000000000000000000000000000000000000000000000000000000000000000000000N 00000000000NCONT   00    00000000000          00000000000000000000000000000000000000000000 000000000000000A000000000000000000000000000000000000000000000 000000000000000000000000000000000000000     00000000                                                                                                                        000000000000000000
F0010000006568000002000002247995200041450500000000000000000201412010002001JAIDITH  VALENCIA ..                              C000000001900000000000000000000000100010010000000000000000000000F0010000006568000220141201000101 00000000000000000000000000000000000000000000000000000000000000000000000000000000000000000000000000000000000000000N 00000000000NCONT   00    00000000000          00000000000000000000000000000000000000000000 000000000000000A000000000000000000000000000000000000000000000 000000000000000000000000000000000000000     00000000                                                                                                                        000000000000000000
F0010000006568000003000002247995200042505000000000000000000201412010002001JAIDITH  VALENCIA ..                              C000000000100000000000000000000000100010010000000000000000000000F0010000006568000320141201000101 00000000000000000000000000000000000000000000000000000000000000000000000000000000000000000000000000000000000000000N 00000000000NCONT   00    00000000000          00000000000000000000000000000000000000000000 000000000000000A000000000000000000000000000000000000000000000 000000000000000000000000000000000000000     00000000                                                                                                                        000000000000000000
F0010000006568000004000002247995200023658300000000000000000201412010002001JAIDITH  VALENCIA ..                              C000000000015200000000000000000000100010010000000000000000000000F0010000006568000420141201000101 00000000000000000000000000000000000000000000000000000000000000000000000000000000000000000000000000000000000000000N 00000000000NCONT   00    00000000000          00000000000000000000000000000000000000000000 000000000000000A000000000000000000000000000000000000000000000 000000000000000000000000000000000000000     00000000                                                                                                                        000000000000000000
F0010000006568000005000002247995200013552100000000000000000201412010002001JAIDITH  VALENCIA ..                              D000000000015200000000000000000000100010010000000000000000000000F0010000006568000520141201000101 00000000000000000000000000000000000000000000000000000000000000000000000000000000000000000000000000000000000000000N 00000000000NCONT   00    00000000000          00000000000000000000000000000000000000000000 000000000000000A000000000000000000000000000000000000000000000 000000000000000000000000000000000000000     00000000                                                                                                                        000000000000000000
F0010000006568100001000080201411900011050500000000000000000201412010002001PLASTISERVICIOS S DE H                            D000000002300000000000000000000000100010010000000000000000000000F0010000006568100120141201000101 00000000000000000000000000000000000000000000000000000000000000000000000000000000000000000000000000000000000000000N 00000000000NCONT   00    00000000000          00000000000000000000000000000000000000000000 000000000000000A000000000000000000000000000000000000000000000 000000000000000000000000000000000000000     00000000                                                                                                                        000000000000000000
F0010000006568100002000080201411900041450500000000000000000201412010002001PLASTISERVICIOS S DE H                            C000000001850000000000000000000000100010010000000000000000000000F0010000006568100220141201000101 00000000000000000000000000000000000000000000000000000000000000000000000000000000000000000000000000000000000000000N 00000000000NCONT   00    00000000000          00000000000000000000000000000000000000000000 000000000000000A000000000000000000000000000000000000000000000 000000000000000000000000000000000000000     00000000                                                                                                                        000000000000000000
F0010000006568100003000080201411900042505000000000000000000201412010002001PLASTISERVICIOS S DE H                            C000000000450000000000000000000000100010010000000000000000000000F0010000006568100320141201000101 00000000000000000000000000000000000000000000000000000000000000000000000000000000000000000000000000000000000000000N 00000000000NCONT   00    00000000000          00000000000000000000000000000000000000000000 000000000000000A000000000000000000000000000000000000000000000 000000000000000000000000000000000000000     00000000                                                                                                                        000000000000000000
F0010000006568100004000080201411900023658300000000000000000201412010002001PLASTISERVICIOS S DE H                            C000000000014800000000000000000000100010010000000000000000000000F0010000006568100420141201000101 00000000000000000000000000000000000000000000000000000000000000000000000000000000000000000000000000000000000000000N 00000000000NCONT   00    00000000000          00000000000000000000000000000000000000000000 000000000000000A000000000000000000000000000000000000000000000 000000000000000000000000000000000000000     00000000                                                                                                                        000000000000000000
F0010000006568100005000080201411900013552100000000000000000201412010002001PLASTISERVICIOS S DE H                            D000000000014800000000000000000000100010010000000000000000000000F0010000006568100520141201000101 00000000000000000000000000000000000000000000000000000000000000000000000000000000000000000000000000000000000000000N 00000000000NCONT   00    00000000000          00000000000000000000000000000000000000000000 000000000000000A000000000000000000000000000000000000000000000 000000000000000000000000000000000000000     00000000                                                                                                                        000000000000000000
F0010000006568200001000007225583900011050500000000000000000201412010002001JORGE LUIS NIÑO BLANCO                           D000000003500000000000000000000000100010010000000000000000000000F0010000006568200120141201000101 00000000000000000000000000000000000000000000000000000000000000000000000000000000000000000000000000000000000000000N 00000000000NCONT   00    00000000000          00000000000000000000000000000000000000000000 000000000000000A000000000000000000000000000000000000000000000 000000000000000000000000000000000000000     00000000                                                                                                                        000000000000000000
F0010000006568200002000007225583900041450500000000000000000201412010002001JORGE LUIS NIÑO BLANCO                           C000000003250000000000000000000000100010010000000000000000000000F0010000006568200220141201000101 00000000000000000000000000000000000000000000000000000000000000000000000000000000000000000000000000000000000000000N 00000000000NCONT   00    00000000000          00000000000000000000000000000000000000000000 000000000000000A000000000000000000000000000000000000000000000 000000000000000000000000000000000000000     00000000                                                                                                                        000000000000000000
F0010000006568200003000007225583900042505000000000000000000201412010002001JORGE LUIS NIÑO BLANCO                           C000000000250000000000000000000000100010010000000000000000000000F0010000006568200320141201000101 00000000000000000000000000000000000000000000000000000000000000000000000000000000000000000000000000000000000000000N 00000000000NCONT   00    00000000000          00000000000000000000000000000000000000000000 000000000000000A000000000000000000000000000000000000000000000 000000000000000000000000000000000000000     00000000                                                                                                                        000000000000000000
F0010000006568200004000007225583900023658300000000000000000201412010002001JORGE LUIS NIÑO BLANCO                           C000000000026000000000000000000000100010010000000000000000000000F0010000006568200420141201000101 00000000000000000000000000000000000000000000000000000000000000000000000000000000000000000000000000000000000000000N 00000000000NCONT   00    00000000000          00000000000000000000000000000000000000000000 000000000000000A000000000000000000000000000000000000000000000 000000000000000000000000000000000000000     00000000                                                                                                                        000000000000000000
F0010000006568200005000007225583900013552100000000000000000201412010002001JORGE LUIS NIÑO BLANCO                           D000000000026000000000000000000000100010010000000000000000000000F0010000006568200520141201000101 00000000000000000000000000000000000000000000000000000000000000000000000000000000000000000000000000000000000000000N 00000000000NCONT   00    00000000000          00000000000000000000000000000000000000000000 000000000000000A000000000000000000000000000000000000000000000 000000000000000000000000000000000000000     00000000                                                                                                                        000000000000000000
F0010000006568300001000004091814800011050500000000000000000201412010002001ROSMERY DE ARMAS PINEDO                           D000000022000000000000000000000000100010010000000000000000000000F0010000006568300120141201000101 00000000000000000000000000000000000000000000000000000000000000000000000000000000000000000000000000000000000000000N 00000000000NCONT   00    00000000000          00000000000000000000000000000000000000000000 000000000000000A000000000000000000000000000000000000000000000 000000000000000000000000000000000000000     00000000                                                                                                                        000000000000000000
F0010000006568300002000004091814800041450500000000000000000201412010002001ROSMERY DE ARMAS PINEDO                           C000000020000000000000000000000000100010010000000000000000000000F0010000006568300220141201000101 00000000000000000000000000000000000000000000000000000000000000000000000000000000000000000000000000000000000000000N 00000000000NCONT   00    00000000000          00000000000000000000000000000000000000000000 000000000000000A000000000000000000000000000000000000000000000 000000000000000000000000000000000000000     00000000                                                                                                                        000000000000000000
F0010000006568300003000004091814800042505000000000000000000201412010002001ROSMERY DE ARMAS PINEDO                           C000000002000000000000000000000000100010010000000000000000000000F0010000006568300320141201000101 00000000000000000000000000000000000000000000000000000000000000000000000000000000000000000000000000000000000000000N 00000000000NCONT   00    00000000000          00000000000000000000000000000000000000000000 000000000000000A000000000000000000000000000000000000000000000 000000000000000000000000000000000000000     00000000                                                                                                                        000000000000000000
F0010000006568300004000004091814800023658300000000000000000201412010002001ROSMERY DE ARMAS PINEDO                           C000000000160000000000000000000000100010010000000000000000000000F0010000006568300420141201000101 00000000000000000000000000000000000000000000000000000000000000000000000000000000000000000000000000000000000000000N 00000000000NCONT   00    00000000000          00000000000000000000000000000000000000000000 000000000000000A000000000000000000000000000000000000000000000 000000000000000000000000000000000000000     00000000                                                                                                                        000000000000000000
F0010000006568300005000004091814800013552100000000000000000201412010002001ROSMERY DE ARMAS PINEDO                           D000000000160000000000000000000000100010010000000000000000000000F0010000006568300520141201000101 00000000000000000000000000000000000000000000000000000000000000000000000000000000000000000000000000000000000000000N 00000000000NCONT   00    00000000000          00000000000000000000000000000000000000000000 000000000000000A000000000000000000000000000000000000000000000 000000000000000000000000000000000000000     00000000                                                                                                                        000000000000000000
F0010000006568400001000000869805000011050500000000000000000201412010002001WILMAN RAMBAL LARA                                D000000001100000000000000000000000100010010000000000000000000000F0010000006568400120141201000101 00000000000000000000000000000000000000000000000000000000000000000000000000000000000000000000000000000000000000000N 00000000000NCONT   00    00000000000          00000000000000000000000000000000000000000000 000000000000000A000000000000000000000000000000000000000000000 000000000000000000000000000000000000000     00000000                                                                                                                        000000000000000000
F0010000006568400002000000869805000041450500000000000000000201412010002001WILMAN RAMBAL LARA                                C000000001000000000000000000000000100010010000000000000000000000F0010000006568400220141201000101 00000000000000000000000000000000000000000000000000000000000000000000000000000000000000000000000000000000000000000N 00000000000NCONT   00    00000000000          00000000000000000000000000000000000000000000 000000000000000A000000000000000000000000000000000000000000000 000000000000000000000000000000000000000     00000000                                                                                                                        000000000000000000
F0010000006568400003000000869805000042505000000000000000000201412010002001WILMAN RAMBAL LARA                                C000000000100000000000000000000000100010010000000000000000000000F0010000006568400320141201000101 00000000000000000000000000000000000000000000000000000000000000000000000000000000000000000000000000000000000000000N 00000000000NCONT   00    00000000000          00000000000000000000000000000000000000000000 000000000000000A000000000000000000000000000000000000000000000 000000000000000000000000000000000000000     00000000                                                                                                                        000000000000000000
F0010000006568400004000000869805000023658300000000000000000201412010002001WILMAN RAMBAL LARA                                C000000000008000000000000000000000100010010000000000000000000000F0010000006568400420141201000101 00000000000000000000000000000000000000000000000000000000000000000000000000000000000000000000000000000000000000000N 00000000000NCONT   00    00000000000          00000000000000000000000000000000000000000000 000000000000000A000000000000000000000000000000000000000000000 000000000000000000000000000000000000000     00000000                                                                                                                        000000000000000000
F0010000006568400005000000869805000013552100000000000000000201412010002001WILMAN RAMBAL LARA                                D000000000008000000000000000000000100010010000000000000000000000F0010000006568400520141201000101 00000000000000000000000000000000000000000000000000000000000000000000000000000000000000000000000000000000000000000N 00000000000NCONT   00    00000000000          00000000000000000000000000000000000000000000 000000000000000A000000000000000000000000000000000000000000000 000000000000000000000000000000000000000     00000000                                                                                                                        000000000000000000
F0010000006568500001000000431178400011050500000000000000000201412010002001EFRAIN ALVAREZ                                    D000000001240000000000000000000000100010010000000000000000000000F0010000006568500120141201000101 00000000000000000000000000000000000000000000000000000000000000000000000000000000000000000000000000000000000000000N 00000000000NCONT   00    00000000000          00000000000000000000000000000000000000000000 000000000000000A000000000000000000000000000000000000000000000 000000000000000000000000000000000000000     00000000                                                                                                                        000000000000000000
F0010000006568500002000000431178400041450500000000000000000201412010002001EFRAIN ALVAREZ                                    C000000001190000000000000000000000100010010000000000000000000000F0010000006568500220141201000101 00000000000000000000000000000000000000000000000000000000000000000000000000000000000000000000000000000000000000000N 00000000000NCONT   00    00000000000          00000000000000000000000000000000000000000000 000000000000000A000000000000000000000000000000000000000000000 000000000000000000000000000000000000000     00000000                                                                                                                        000000000000000000
F0010000006568500003000000431178400042505000000000000000000201412010002001EFRAIN ALVAREZ                                    C000000000050000000000000000000000100010010000000000000000000000F0010000006568500320141201000101 00000000000000000000000000000000000000000000000000000000000000000000000000000000000000000000000000000000000000000N 00000000000NCONT   00    00000000000          00000000000000000000000000000000000000000000 000000000000000A000000000000000000000000000000000000000000000 000000000000000000000000000000000000000     00000000                                                                                                                        000000000000000000
F0010000006568500004000000431178400023658300000000000000000201412010002001EFRAIN ALVAREZ                                    C000000000009500000000000000000000100010010000000000000000000000F0010000006568500420141201000101 00000000000000000000000000000000000000000000000000000000000000000000000000000000000000000000000000000000000000000N 00000000000NCONT   00    00000000000          00000000000000000000000000000000000000000000 000000000000000A000000000000000000000000000000000000000000000 000000000000000000000000000000000000000     00000000                                                                                                                        000000000000000000
F0010000006568500005000000431178400013552100000000000000000201412010002001EFRAIN ALVAREZ                                    D000000000009500000000000000000000100010010000000000000000000000F0010000006568500520141201000101 00000000000000000000000000000000000000000000000000000000000000000000000000000000000000000000000000000000000000000N 00000000000NCONT   00    00000000000          00000000000000000000000000000000000000000000 000000000000000A000000000000000000000000000000000000000000000 000000000000000000000000000000000000000     00000000                                                                                                                        000000000000000000
F0010000006568600001000000431178400011050500000000000000000201412010002001EFRAIN ALVAREZ                                    D000000001870000000000000000000000100010010000000000000000000000F0010000006568600120141201000101 00000000000000000000000000000000000000000000000000000000000000000000000000000000000000000000000000000000000000000N 00000000000NCONT   00    00000000000          00000000000000000000000000000000000000000000 000000000000000A000000000000000000000000000000000000000000000 000000000000000000000000000000000000000     00000000                                                                                                                        000000000000000000
F0010000006568600002000000431178400041450500000000000000000201412010002001EFRAIN ALVAREZ                                    C000000001720000000000000000000000100010010000000000000000000000F0010000006568600220141201000101 00000000000000000000000000000000000000000000000000000000000000000000000000000000000000000000000000000000000000000N 00000000000NCONT   00    00000000000          00000000000000000000000000000000000000000000 000000000000000A000000000000000000000000000000000000000000000 000000000000000000000000000000000000000     00000000                                                                                                                        000000000000000000
F0010000006568600003000000431178400042505000000000000000000201412010002001EFRAIN ALVAREZ                                    C000000000150000000000000000000000100010010000000000000000000000F0010000006568600320141201000101 00000000000000000000000000000000000000000000000000000000000000000000000000000000000000000000000000000000000000000N 00000000000NCONT   00    00000000000          00000000000000000000000000000000000000000000 000000000000000A000000000000000000000000000000000000000000000 000000000000000000000000000000000000000     00000000                                                                                                                        000000000000000000
F0010000006568600004000000431178400023658300000000000000000201412010002001EFRAIN ALVAREZ                                    C000000000013800000000000000000000100010010000000000000000000000F0010000006568600420141201000101 00000000000000000000000000000000000000000000000000000000000000000000000000000000000000000000000000000000000000000N 00000000000NCONT   00    00000000000          00000000000000000000000000000000000000000000 000000000000000A000000000000000000000000000000000000000000000 000000000000000000000000000000000000000     00000000                                                                                                                        000000000000000000
F0010000006568600005000000431178400013552100000000000000000201412010002001EFRAIN ALVAREZ                                    D000000000013800000000000000000000100010010000000000000000000000F0010000006568600520141201000101 00000000000000000000000000000000000000000000000000000000000000000000000000000000000000000000000000000000000000000N 00000000000NCONT   00    00000000000          00000000000000000000000000000000000000000000 000000000000000A000000000000000000000000000000000000000000000 000000000000000000000000000000000000000     00000000                                                                                                                        000000000000000000
F0010000006568700001000000431178400011050500000000000000000201412010002001EFRAIN ALVAREZ                                    D000000001870000000000000000000000100010010000000000000000000000F0010000006568700120141201000101 00000000000000000000000000000000000000000000000000000000000000000000000000000000000000000000000000000000000000000N 00000000000NCONT   00    00000000000          00000000000000000000000000000000000000000000 000000000000000A000000000000000000000000000000000000000000000 000000000000000000000000000000000000000     00000000                                                                                                                        000000000000000000
F0010000006568700002000000431178400041450500000000000000000201412010002001EFRAIN ALVAREZ                                    C000000001720000000000000000000000100010010000000000000000000000F0010000006568700220141201000101 00000000000000000000000000000000000000000000000000000000000000000000000000000000000000000000000000000000000000000N 00000000000NCONT   00    00000000000          00000000000000000000000000000000000000000000 000000000000000A000000000000000000000000000000000000000000000 000000000000000000000000000000000000000     00000000                                                                                                                        000000000000000000
F0010000006568700003000000431178400042505000000000000000000201412010002001EFRAIN ALVAREZ                                    C000000000150000000000000000000000100010010000000000000000000000F0010000006568700320141201000101 00000000000000000000000000000000000000000000000000000000000000000000000000000000000000000000000000000000000000000N 00000000000NCONT   00    00000000000          00000000000000000000000000000000000000000000 000000000000000A000000000000000000000000000000000000000000000 000000000000000000000000000000000000000     00000000                                                                                                                        000000000000000000
F0010000006568700004000000431178400023658300000000000000000201412010002001EFRAIN ALVAREZ                                    C000000000013800000000000000000000100010010000000000000000000000F0010000006568700420141201000101 00000000000000000000000000000000000000000000000000000000000000000000000000000000000000000000000000000000000000000N 00000000000NCONT   00    00000000000          00000000000000000000000000000000000000000000 000000000000000A000000000000000000000000000000000000000000000 000000000000000000000000000000000000000     00000000                                                                                                                        000000000000000000
F0010000006568700005000000431178400013552100000000000000000201412010002001EFRAIN ALVAREZ                                    D000000000013800000000000000000000100010010000000000000000000000F0010000006568700520141201000101 00000000000000000000000000000000000000000000000000000000000000000000000000000000000000000000000000000000000000000N 00000000000NCONT   00    00000000000          00000000000000000000000000000000000000000000 000000000000000A000000000000000000000000000000000000000000000 000000000000000000000000000000000000000     00000000                                                                                                                        000000000000000000
F0010000006568800001000000431178400011050500000000000000000201412010002001EFRAIN ALVAREZ                                    D000000001240000000000000000000000100010010000000000000000000000F0010000006568800120141201000101 00000000000000000000000000000000000000000000000000000000000000000000000000000000000000000000000000000000000000000N 00000000000NCONT   00    00000000000          00000000000000000000000000000000000000000000 000000000000000A000000000000000000000000000000000000000000000 000000000000000000000000000000000000000     00000000                                                                                                                        000000000000000000
F0010000006568800002000000431178400041450500000000000000000201412010002001EFRAIN ALVAREZ                                    C000000001190000000000000000000000100010010000000000000000000000F0010000006568800220141201000101 00000000000000000000000000000000000000000000000000000000000000000000000000000000000000000000000000000000000000000N 00000000000NCONT   00    00000000000          00000000000000000000000000000000000000000000 000000000000000A000000000000000000000000000000000000000000000 000000000000000000000000000000000000000     00000000                                                                                                                        000000000000000000
F0010000006568800003000000431178400042505000000000000000000201412010002001EFRAIN ALVAREZ                                    C000000000050000000000000000000000100010010000000000000000000000F0010000006568800320141201000101 00000000000000000000000000000000000000000000000000000000000000000000000000000000000000000000000000000000000000000N 00000000000NCONT   00    00000000000          00000000000000000000000000000000000000000000 000000000000000A000000000000000000000000000000000000000000000 000000000000000000000000000000000000000     00000000                                                                                                                        000000000000000000
F0010000006568800004000000431178400023658300000000000000000201412010002001EFRAIN ALVAREZ                                    C000000000009500000000000000000000100010010000000000000000000000F0010000006568800420141201000101 00000000000000000000000000000000000000000000000000000000000000000000000000000000000000000000000000000000000000000N 00000000000NCONT   00    00000000000          00000000000000000000000000000000000000000000 000000000000000A000000000000000000000000000000000000000000000 000000000000000000000000000000000000000     00000000                                                                                                                        000000000000000000
F0010000006568800005000000431178400013552100000000000000000201412010002001EFRAIN ALVAREZ                                    D000000000009500000000000000000000100010010000000000000000000000F0010000006568800520141201000101 00000000000000000000000000000000000000000000000000000000000000000000000000000000000000000000000000000000000000000N 00000000000NCONT   00    00000000000          00000000000000000000000000000000000000000000 000000000000000A000000000000000000000000000000000000000000000 000000000000000000000000000000000000000     00000000                                                                                                                        000000000000000000
F0010000006568900001000001022529300011050500000000000000000201412010002001ALBERTO ALVAREZ ISAZA                             D000000016150000000000000000000000100010010000000000000000000000F0010000006568900120141201000101 00000000000000000000000000000000000000000000000000000000000000000000000000000000000000000000000000000000000000000N 00000000000NCONT   00    00000000000          00000000000000000000000000000000000000000000 000000000000000A000000000000000000000000000000000000000000000 000000000000000000000000000000000000000     00000000                                                                                                                        000000000000000000
F0010000006568900002000001022529300041450500000000000000000201412010002001ALBERTO ALVAREZ ISAZA                             C000000015400000000000000000000000100010010000000000000000000000F0010000006568900220141201000101 00000000000000000000000000000000000000000000000000000000000000000000000000000000000000000000000000000000000000000N 00000000000NCONT   00    00000000000          00000000000000000000000000000000000000000000 000000000000000A000000000000000000000000000000000000000000000 000000000000000000000000000000000000000     00000000                                                                                                                        000000000000000000
F0010000006568900003000001022529300042505000000000000000000201412010002001ALBERTO ALVAREZ ISAZA                             C000000000750000000000000000000000100010010000000000000000000000F0010000006568900320141201000101 00000000000000000000000000000000000000000000000000000000000000000000000000000000000000000000000000000000000000000N 00000000000NCONT   00    00000000000          00000000000000000000000000000000000000000000 000000000000000A000000000000000000000000000000000000000000000 000000000000000000000000000000000000000     00000000                                                                                                                        000000000000000000
F0010000006568900004000001022529300023658300000000000000000201412010002001ALBERTO ALVAREZ ISAZA                             C000000000123200000000000000000000100010010000000000000000000000F0010000006568900420141201000101 00000000000000000000000000000000000000000000000000000000000000000000000000000000000000000000000000000000000000000N 00000000000NCONT   00    00000000000          00000000000000000000000000000000000000000000 000000000000000A000000000000000000000000000000000000000000000 000000000000000000000000000000000000000     00000000                                                                                                                        000000000000000000
F0010000006568900005000001022529300013552100000000000000000201412010002001ALBERTO ALVAREZ ISAZA                             D000000000123200000000000000000000100010010000000000000000000000F0010000006568900520141201000101 00000000000000000000000000000000000000000000000000000000000000000000000000000000000000000000000000000000000000000N 00000000000NCONT   00    00000000000          00000000000000000000000000000000000000000000 000000000000000A000000000000000000000000000000000000000000000 000000000000000000000000000000000000000     00000000                                                                                                                        000000000000000000
F0010000006569000001000001022529300011050500000000000000000201412010002001ALBERTO ALVAREZ ISAZA                             D000000011000000000000000000000000100010010000000000000000000000F0010000006569000120141201000101 00000000000000000000000000000000000000000000000000000000000000000000000000000000000000000000000000000000000000000N 00000000000NCONT   00    00000000000          00000000000000000000000000000000000000000000 000000000000000A000000000000000000000000000000000000000000000 000000000000000000000000000000000000000     00000000                                                                                                                        000000000000000000
F0010000006569000002000001022529300041450500000000000000000201412010002001ALBERTO ALVAREZ ISAZA                             C000000010500000000000000000000000100010010000000000000000000000F0010000006569000220141201000101 00000000000000000000000000000000000000000000000000000000000000000000000000000000000000000000000000000000000000000N 00000000000NCONT   00    00000000000          00000000000000000000000000000000000000000000 000000000000000A000000000000000000000000000000000000000000000 000000000000000000000000000000000000000     00000000                                                                                                                        000000000000000000
F0010000006569000003000001022529300042505000000000000000000201412010002001ALBERTO ALVAREZ ISAZA                             C000000000500000000000000000000000100010010000000000000000000000F0010000006569000320141201000101 00000000000000000000000000000000000000000000000000000000000000000000000000000000000000000000000000000000000000000N 00000000000NCONT   00    00000000000          00000000000000000000000000000000000000000000 000000000000000A000000000000000000000000000000000000000000000 000000000000000000000000000000000000000     00000000                                                                                                                        000000000000000000
F0010000006569000004000001022529300023658300000000000000000201412010002001ALBERTO ALVAREZ ISAZA                             C000000000084000000000000000000000100010010000000000000000000000F0010000006569000420141201000101 00000000000000000000000000000000000000000000000000000000000000000000000000000000000000000000000000000000000000000N 00000000000NCONT   00    00000000000          00000000000000000000000000000000000000000000 000000000000000A000000000000000000000000000000000000000000000 000000000000000000000000000000000000000     00000000                                                                                                                        000000000000000000
F0010000006569000005000001022529300013552100000000000000000201412010002001ALBERTO ALVAREZ ISAZA                             D000000000084000000000000000000000100010010000000000000000000000F0010000006569000520141201000101 00000000000000000000000000000000000000000000000000000000000000000000000000000000000000000000000000000000000000000N 00000000000NCONT   00    00000000000          00000000000000000000000000000000000000000000 000000000000000A000000000000000000000000000000000000000000000 000000000000000000000000000000000000000     00000000                                                                                                                        000000000000000000
F0010000006569100001000001022529300011050500000000000000000201412010002001ALBERTO ALVAREZ ISAZA                             D000000002480000000000000000000000100010010000000000000000000000F0010000006569100120141201000101 00000000000000000000000000000000000000000000000000000000000000000000000000000000000000000000000000000000000000000N 00000000000NCONT   00    00000000000          00000000000000000000000000000000000000000000 000000000000000A000000000000000000000000000000000000000000000 000000000000000000000000000000000000000     00000000                                                                                                                        000000000000000000
F0010000006569100002000001022529300041450500000000000000000201412010002001ALBERTO ALVAREZ ISAZA                             C000000002380000000000000000000000100010010000000000000000000000F0010000006569100220141201000101 00000000000000000000000000000000000000000000000000000000000000000000000000000000000000000000000000000000000000000N 00000000000NCONT   00    00000000000          00000000000000000000000000000000000000000000 000000000000000A000000000000000000000000000000000000000000000 000000000000000000000000000000000000000     00000000                                                                                                                        000000000000000000
F0010000006569100003000001022529300042505000000000000000000201412010002001ALBERTO ALVAREZ ISAZA                             C000000000100000000000000000000000100010010000000000000000000000F0010000006569100320141201000101 00000000000000000000000000000000000000000000000000000000000000000000000000000000000000000000000000000000000000000N 00000000000NCONT   00    00000000000          00000000000000000000000000000000000000000000 000000000000000A000000000000000000000000000000000000000000000 000000000000000000000000000000000000000     00000000                                                                                                                        000000000000000000
F0010000006569100004000001022529300023658300000000000000000201412010002001ALBERTO ALVAREZ ISAZA                             C000000000019000000000000000000000100010010000000000000000000000F0010000006569100420141201000101 00000000000000000000000000000000000000000000000000000000000000000000000000000000000000000000000000000000000000000N 00000000000NCONT   00    00000000000          00000000000000000000000000000000000000000000 000000000000000A000000000000000000000000000000000000000000000 000000000000000000000000000000000000000     00000000                                                                                                                        000000000000000000
F0010000006569100005000001022529300013552100000000000000000201412010002001ALBERTO ALVAREZ ISAZA                             D000000000019000000000000000000000100010010000000000000000000000F0010000006569100520141201000101 00000000000000000000000000000000000000000000000000000000000000000000000000000000000000000000000000000000000000000N 00000000000NCONT   00    00000000000          00000000000000000000000000000000000000000000 000000000000000A000000000000000000000000000000000000000000000 000000000000000000000000000000000000000     00000000                                                                                                                        000000000000000000
F0010000006569200001000001022529300011050500000000000000000201412010002001ALBERTO ALVAREZ ISAZA                             D000000001650000000000000000000000100010010000000000000000000000F0010000006569200120141201000101 00000000000000000000000000000000000000000000000000000000000000000000000000000000000000000000000000000000000000000N 00000000000NCONT   00    00000000000          00000000000000000000000000000000000000000000 000000000000000A000000000000000000000000000000000000000000000 000000000000000000000000000000000000000     00000000                                                                                                                        000000000000000000
F0010000006569200002000001022529300041450500000000000000000201412010002001ALBERTO ALVAREZ ISAZA                             C000000001500000000000000000000000100010010000000000000000000000F0010000006569200220141201000101 00000000000000000000000000000000000000000000000000000000000000000000000000000000000000000000000000000000000000000N 00000000000NCONT   00    00000000000          00000000000000000000000000000000000000000000 000000000000000A000000000000000000000000000000000000000000000 000000000000000000000000000000000000000     00000000                                                                                                                        000000000000000000
F0010000006569200003000001022529300042505000000000000000000201412010002001ALBERTO ALVAREZ ISAZA                             C000000000150000000000000000000000100010010000000000000000000000F0010000006569200320141201000101 00000000000000000000000000000000000000000000000000000000000000000000000000000000000000000000000000000000000000000N 00000000000NCONT   00    00000000000          00000000000000000000000000000000000000000000 000000000000000A000000000000000000000000000000000000000000000 000000000000000000000000000000000000000     00000000                                                                                                                        000000000000000000
F0010000006569200004000001022529300023658300000000000000000201412010002001ALBERTO ALVAREZ ISAZA                             C000000000012000000000000000000000100010010000000000000000000000F0010000006569200420141201000101 00000000000000000000000000000000000000000000000000000000000000000000000000000000000000000000000000000000000000000N 00000000000NCONT   00    00000000000          00000000000000000000000000000000000000000000 000000000000000A000000000000000000000000000000000000000000000 000000000000000000000000000000000000000     00000000                                                                                                                        000000000000000000
F0010000006569200005000001022529300013552100000000000000000201412010002001ALBERTO ALVAREZ ISAZA                             D000000000012000000000000000000000100010010000000000000000000000F0010000006569200520141201000101 00000000000000000000000000000000000000000000000000000000000000000000000000000000000000000000000000000000000000000N 00000000000NCONT   00    00000000000          00000000000000000000000000000000000000000000 000000000000000A000000000000000000000000000000000000000000000 000000000000000000000000000000000000000     00000000                                                                                                                        000000000000000000
F0010000006569300001000001022529300011050500000000000000000201412010002001ALBERTO ALVAREZ ISAZA                             D000000001300000000000000000000000100010010000000000000000000000F0010000006569300120141201000101 00000000000000000000000000000000000000000000000000000000000000000000000000000000000000000000000000000000000000000N 00000000000NCONT   00    00000000000          00000000000000000000000000000000000000000000 000000000000000A000000000000000000000000000000000000000000000 000000000000000000000000000000000000000     00000000                                                                                                                        000000000000000000
F0010000006569300002000001022529300041450500000000000000000201412010002001ALBERTO ALVAREZ ISAZA                             C000000001200000000000000000000000100010010000000000000000000000F0010000006569300220141201000101 00000000000000000000000000000000000000000000000000000000000000000000000000000000000000000000000000000000000000000N 00000000000NCONT   00    00000000000          00000000000000000000000000000000000000000000 000000000000000A000000000000000000000000000000000000000000000 000000000000000000000000000000000000000     00000000                                                                                                                        000000000000000000
F0010000006569300003000001022529300042505000000000000000000201412010002001ALBERTO ALVAREZ ISAZA                             C000000000100000000000000000000000100010010000000000000000000000F0010000006569300320141201000101 00000000000000000000000000000000000000000000000000000000000000000000000000000000000000000000000000000000000000000N 00000000000NCONT   00    00000000000          00000000000000000000000000000000000000000000 000000000000000A000000000000000000000000000000000000000000000 000000000000000000000000000000000000000     00000000                                                                                                                        000000000000000000
F0010000006569300004000001022529300023658300000000000000000201412010002001ALBERTO ALVAREZ ISAZA                             C000000000009600000000000000000000100010010000000000000000000000F0010000006569300420141201000101 00000000000000000000000000000000000000000000000000000000000000000000000000000000000000000000000000000000000000000N 00000000000NCONT   00    00000000000          00000000000000000000000000000000000000000000 000000000000000A000000000000000000000000000000000000000000000 000000000000000000000000000000000000000     00000000                                                                                                                        000000000000000000
F0010000006569300005000001022529300013552100000000000000000201412010002001ALBERTO ALVAREZ ISAZA                             D000000000009600000000000000000000100010010000000000000000000000F0010000006569300520141201000101 00000000000000000000000000000000000000000000000000000000000000000000000000000000000000000000000000000000000000000N 00000000000NCONT   00    00000000000          00000000000000000000000000000000000000000000 000000000000000A000000000000000000000000000000000000000000000 000000000000000000000000000000000000000     00000000                                                                                                                        000000000000000000
F0010000006569400001000001022529300011050500000000000000000201412010002001ALBERTO ALVAREZ ISAZA                             D000000012600000000000000000000000100010010000000000000000000000F0010000006569400120141201000101 00000000000000000000000000000000000000000000000000000000000000000000000000000000000000000000000000000000000000000N 00000000000NCONT   00    00000000000          00000000000000000000000000000000000000000000 000000000000000A000000000000000000000000000000000000000000000 000000000000000000000000000000000000000     00000000                                                                                                                        000000000000000000
F0010000006569400002000001022529300041450500000000000000000201412010002001ALBERTO ALVAREZ ISAZA                             C000000012000000000000000000000000100010010000000000000000000000F0010000006569400220141201000101 00000000000000000000000000000000000000000000000000000000000000000000000000000000000000000000000000000000000000000N 00000000000NCONT   00    00000000000          00000000000000000000000000000000000000000000 000000000000000A000000000000000000000000000000000000000000000 000000000000000000000000000000000000000     00000000                                                                                                                        000000000000000000
F0010000006569400003000001022529300042505000000000000000000201412010002001ALBERTO ALVAREZ ISAZA                             C000000000600000000000000000000000100010010000000000000000000000F0010000006569400320141201000101 00000000000000000000000000000000000000000000000000000000000000000000000000000000000000000000000000000000000000000N 00000000000NCONT   00    00000000000          00000000000000000000000000000000000000000000 000000000000000A000000000000000000000000000000000000000000000 000000000000000000000000000000000000000     00000000                                                                                                                        000000000000000000
F0010000006569400004000001022529300023658300000000000000000201412010002001ALBERTO ALVAREZ ISAZA                             C000000000096000000000000000000000100010010000000000000000000000F0010000006569400420141201000101 00000000000000000000000000000000000000000000000000000000000000000000000000000000000000000000000000000000000000000N 00000000000NCONT   00    00000000000          00000000000000000000000000000000000000000000 000000000000000A000000000000000000000000000000000000000000000 000000000000000000000000000000000000000     00000000                                                                                                                        000000000000000000
F0010000006569400005000001022529300013552100000000000000000201412010002001ALBERTO ALVAREZ ISAZA                             D000000000096000000000000000000000100010010000000000000000000000F0010000006569400520141201000101 00000000000000000000000000000000000000000000000000000000000000000000000000000000000000000000000000000000000000000N 00000000000NCONT   00    00000000000          00000000000000000000000000000000000000000000 000000000000000A000000000000000000000000000000000000000000000 000000000000000000000000000000000000000     00000000                                                                                                                        000000000000000000
F0010000006569500001000001022529300011050500000000000000000201412010002001ALBERTO ALVAREZ ISAZA                             D000000001600000000000000000000000100010010000000000000000000000F0010000006569500120141201000101 00000000000000000000000000000000000000000000000000000000000000000000000000000000000000000000000000000000000000000N 00000000000NCONT   00    00000000000          00000000000000000000000000000000000000000000 000000000000000A000000000000000000000000000000000000000000000 000000000000000000000000000000000000000     00000000                                                                                                                        000000000000000000
F0010000006569500002000001022529300041450500000000000000000201412010002001ALBERTO ALVAREZ ISAZA                             C000000001500000000000000000000000100010010000000000000000000000F0010000006569500220141201000101 00000000000000000000000000000000000000000000000000000000000000000000000000000000000000000000000000000000000000000N 00000000000NCONT   00    00000000000          00000000000000000000000000000000000000000000 000000000000000A000000000000000000000000000000000000000000000 000000000000000000000000000000000000000     00000000                                                                                                                        000000000000000000
F0010000006569500003000001022529300042505000000000000000000201412010002001ALBERTO ALVAREZ ISAZA                             C000000000100000000000000000000000100010010000000000000000000000F0010000006569500320141201000101 00000000000000000000000000000000000000000000000000000000000000000000000000000000000000000000000000000000000000000N 00000000000NCONT   00    00000000000          00000000000000000000000000000000000000000000 000000000000000A000000000000000000000000000000000000000000000 000000000000000000000000000000000000000     00000000                                                                                                                        000000000000000000
F0010000006569500004000001022529300023658300000000000000000201412010002001ALBERTO ALVAREZ ISAZA                             C000000000012000000000000000000000100010010000000000000000000000F0010000006569500420141201000101 00000000000000000000000000000000000000000000000000000000000000000000000000000000000000000000000000000000000000000N 00000000000NCONT   00    00000000000          00000000000000000000000000000000000000000000 000000000000000A000000000000000000000000000000000000000000000 000000000000000000000000000000000000000     00000000                                                                                                                        000000000000000000
F0010000006569500005000001022529300013552100000000000000000201412010002001ALBERTO ALVAREZ ISAZA                             D000000000012000000000000000000000100010010000000000000000000000F0010000006569500520141201000101 00000000000000000000000000000000000000000000000000000000000000000000000000000000000000000000000000000000000000000N 00000000000NCONT   00    00000000000          00000000000000000000000000000000000000000000 000000000000000A000000000000000000000000000000000000000000000 000000000000000000000000000000000000000     00000000                                                                                                                        000000000000000000
F0010000006569600001000002245670100011050500000000000000000201412010002001YOLANDA  TOBON                                    D000000002100000000000000000000000100010010000000000000000000000F0010000006569600120141201000101 00000000000000000000000000000000000000000000000000000000000000000000000000000000000000000000000000000000000000000N 00000000000NCONT   00    00000000000          00000000000000000000000000000000000000000000 000000000000000A000000000000000000000000000000000000000000000 000000000000000000000000000000000000000     00000000                                                                                                                        000000000000000000
F0010000006569600002000002245670100041450500000000000000000201412010002001YOLANDA  TOBON                                    C000000001900000000000000000000000100010010000000000000000000000F0010000006569600220141201000101 00000000000000000000000000000000000000000000000000000000000000000000000000000000000000000000000000000000000000000N 00000000000NCONT   00    00000000000          00000000000000000000000000000000000000000000 000000000000000A000000000000000000000000000000000000000000000 000000000000000000000000000000000000000     00000000                                                                                                                        000000000000000000
F0010000006569600003000002245670100042505000000000000000000201412010002001YOLANDA  TOBON                                    C000000000200000000000000000000000100010010000000000000000000000F0010000006569600320141201000101 00000000000000000000000000000000000000000000000000000000000000000000000000000000000000000000000000000000000000000N 00000000000NCONT   00    00000000000          00000000000000000000000000000000000000000000 000000000000000A000000000000000000000000000000000000000000000 000000000000000000000000000000000000000     00000000                                                                                                                        000000000000000000
F0010000006569600004000002245670100023658300000000000000000201412010002001YOLANDA  TOBON                                    C000000000015200000000000000000000100010010000000000000000000000F0010000006569600420141201000101 00000000000000000000000000000000000000000000000000000000000000000000000000000000000000000000000000000000000000000N 00000000000NCONT   00    00000000000          00000000000000000000000000000000000000000000 000000000000000A000000000000000000000000000000000000000000000 000000000000000000000000000000000000000     00000000                                                                                                                        000000000000000000
F0010000006569600005000002245670100013552100000000000000000201412010002001YOLANDA  TOBON                                    D000000000015200000000000000000000100010010000000000000000000000F0010000006569600520141201000101 00000000000000000000000000000000000000000000000000000000000000000000000000000000000000000000000000000000000000000N 00000000000NCONT   00    00000000000          00000000000000000000000000000000000000000000 000000000000000A000000000000000000000000000000000000000000000 000000000000000000000000000000000000000     00000000                                                                                                                        000000000000000000
F0010000006569700001000007904689600011050500000000000000000201412010002001VICTOR MANUEL BOCANEGRA RAMIREZ                   D000000002000000000000000000000000100010010000000000000000000000F0010000006569700120141201000101 00000000000000000000000000000000000000000000000000000000000000000000000000000000000000000000000000000000000000000N 00000000000NCONT   00    00000000000          00000000000000000000000000000000000000000000 000000000000000A000000000000000000000000000000000000000000000 000000000000000000000000000000000000000     00000000                                                                                                                        000000000000000000
F0010000006569700002000007904689600041450500000000000000000201412010002001VICTOR MANUEL BOCANEGRA RAMIREZ                   C000000001800000000000000000000000100010010000000000000000000000F0010000006569700220141201000101 00000000000000000000000000000000000000000000000000000000000000000000000000000000000000000000000000000000000000000N 00000000000NCONT   00    00000000000          00000000000000000000000000000000000000000000 000000000000000A000000000000000000000000000000000000000000000 000000000000000000000000000000000000000     00000000                                                                                                                        000000000000000000
F0010000006569700003000007904689600042505000000000000000000201412010002001VICTOR MANUEL BOCANEGRA RAMIREZ                   C000000000200000000000000000000000100010010000000000000000000000F0010000006569700320141201000101 00000000000000000000000000000000000000000000000000000000000000000000000000000000000000000000000000000000000000000N 00000000000NCONT   00    00000000000          00000000000000000000000000000000000000000000 000000000000000A000000000000000000000000000000000000000000000 000000000000000000000000000000000000000     00000000                                                                                                                        000000000000000000
F0010000006569700004000007904689600023658300000000000000000201412010002001VICTOR MANUEL BOCANEGRA RAMIREZ                   C000000000014400000000000000000000100010010000000000000000000000F0010000006569700420141201000101 00000000000000000000000000000000000000000000000000000000000000000000000000000000000000000000000000000000000000000N 00000000000NCONT   00    00000000000          00000000000000000000000000000000000000000000 000000000000000A000000000000000000000000000000000000000000000 000000000000000000000000000000000000000     00000000                                                                                                                        000000000000000000
F0010000006569700005000007904689600013552100000000000000000201412010002001VICTOR MANUEL BOCANEGRA RAMIREZ                   D000000000014400000000000000000000100010010000000000000000000000F0010000006569700520141201000101 00000000000000000000000000000000000000000000000000000000000000000000000000000000000000000000000000000000000000000N 00000000000NCONT   00    00000000000          00000000000000000000000000000000000000000000 000000000000000A000000000000000000000000000000000000000000000 000000000000000000000000000000000000000     00000000                                                                                                                        000000000000000000
F0010000006569800001000007904689600011050500000000000000000201412010002001VICTOR MANUEL BOCANEGRA RAMIREZ                   D000000001000000000000000000000000100010010000000000000000000000F0010000006569800120141201000101 00000000000000000000000000000000000000000000000000000000000000000000000000000000000000000000000000000000000000000N 00000000000NCONT   00    00000000000          00000000000000000000000000000000000000000000 000000000000000A000000000000000000000000000000000000000000000 000000000000000000000000000000000000000     00000000                                                                                                                        000000000000000000
F0010000006569800002000007904689600041450500000000000000000201412010002001VICTOR MANUEL BOCANEGRA RAMIREZ                   C000000000900000000000000000000000100010010000000000000000000000F0010000006569800220141201000101 00000000000000000000000000000000000000000000000000000000000000000000000000000000000000000000000000000000000000000N 00000000000NCONT   00    00000000000          00000000000000000000000000000000000000000000 000000000000000A000000000000000000000000000000000000000000000 000000000000000000000000000000000000000     00000000                                                                                                                        000000000000000000
F0010000006569800003000007904689600042505000000000000000000201412010002001VICTOR MANUEL BOCANEGRA RAMIREZ                   C000000000100000000000000000000000100010010000000000000000000000F0010000006569800320141201000101 00000000000000000000000000000000000000000000000000000000000000000000000000000000000000000000000000000000000000000N 00000000000NCONT   00    00000000000          00000000000000000000000000000000000000000000 000000000000000A000000000000000000000000000000000000000000000 000000000000000000000000000000000000000     00000000                                                                                                                        000000000000000000
