F0010000007888200001000090020547900013050500000000000000000201511130002001COMERCIALIZADORA DAC DEL CARIBE S.A.S.            D000000007510000000000000000000000100010010000000000000000000000F0010000007888200120151113000101 00000000000000000000000000000000000000000000000000000000000000000000000000000000000000000000000000000000000000000N 00000000000NCONT   00    00000000000          00000000000000000000000000000000000000000000 000000000000000A000000000000000000000000000000000000000000000 000000000000000000000000000000000000000     00000000                                                                                                                        000000000000000000
F0010000007888200002000090020547900041450500000000000000000201511130002001COMERCIALIZADORA DAC DEL CARIBE S.A.S.            C000000006000000000000000000000000100010010000000000000000000000F0010000007888200220151113000101 00000000000000000000000000000000000000000000000000000000000000000000000000000000000000000000000000000000000000000N 00000000000NCONT   00    00000000000          00000000000000000000000000000000000000000000 000000000000000A000000000000000000000000000000000000000000000 000000000000000000000000000000000000000     00000000                                                                                                                        000000000000000000
F0010000007888200003000090020547900042505000000000000000000201511130002001COMERCIALIZADORA DAC DEL CARIBE S.A.S.            C000000001510000000000000000000000100010010000000000000000000000F0010000007888200320151113000101 00000000000000000000000000000000000000000000000000000000000000000000000000000000000000000000000000000000000000000N 00000000000NCONT   00    00000000000          00000000000000000000000000000000000000000000 000000000000000A000000000000000000000000000000000000000000000 000000000000000000000000000000000000000     00000000                                                                                                                        000000000000000000
F0010000007888200004000090020547900023658300000000000000000201511130002001COMERCIALIZADORA DAC DEL CARIBE S.A.S.            C000000000048000000000000000000000100010010000000000000000000000F0010000007888200420151113000101 00000000000000000000000000000000000000000000000000000000000000000000000000000000000000000000000000000000000000000N 00000000000NCONT   00    00000000000          00000000000000000000000000000000000000000000 000000000000000A000000000000000000000000000000000000000000000 000000000000000000000000000000000000000     00000000                                                                                                                        000000000000000000
F0010000007888200005000090020547900013552100000000000000000201511130002001COMERCIALIZADORA DAC DEL CARIBE S.A.S.            D000000000048000000000000000000000100010010000000000000000000000F0010000007888200520151113000101 00000000000000000000000000000000000000000000000000000000000000000000000000000000000000000000000000000000000000000N 00000000000NCONT   00    00000000000          00000000000000000000000000000000000000000000 000000000000000A000000000000000000000000000000000000000000000 000000000000000000000000000000000000000     00000000                                                                                                                        000000000000000000
F0010000007888300001000000431178400013050500000000000000000201511130002001EFRAIN ALVAREZ                                    D000000022840000000000000000000000100010010000000000000000000000F0010000007888300120151113000101 00000000000000000000000000000000000000000000000000000000000000000000000000000000000000000000000000000000000000000N 00000000000NCONT   00    00000000000          00000000000000000000000000000000000000000000 000000000000000A000000000000000000000000000000000000000000000 000000000000000000000000000000000000000     00000000                                                                                                                        000000000000000000
F0010000007888300002000000431178400041450500000000000000000201511130002001EFRAIN ALVAREZ                                    C000000021000000000000000000000000100010010000000000000000000000F0010000007888300220151113000101 00000000000000000000000000000000000000000000000000000000000000000000000000000000000000000000000000000000000000000N 00000000000NCONT   00    00000000000          00000000000000000000000000000000000000000000 000000000000000A000000000000000000000000000000000000000000000 000000000000000000000000000000000000000     00000000                                                                                                                        000000000000000000
F0010000007888300003000000431178400042505000000000000000000201511130002001EFRAIN ALVAREZ                                    C000000001840000000000000000000000100010010000000000000000000000F0010000007888300320151113000101 00000000000000000000000000000000000000000000000000000000000000000000000000000000000000000000000000000000000000000N 00000000000NCONT   00    00000000000          00000000000000000000000000000000000000000000 000000000000000A000000000000000000000000000000000000000000000 000000000000000000000000000000000000000     00000000                                                                                                                        000000000000000000
F0010000007888300004000000431178400023658300000000000000000201511130002001EFRAIN ALVAREZ                                    C000000000168000000000000000000000100010010000000000000000000000F0010000007888300420151113000101 00000000000000000000000000000000000000000000000000000000000000000000000000000000000000000000000000000000000000000N 00000000000NCONT   00    00000000000          00000000000000000000000000000000000000000000 000000000000000A000000000000000000000000000000000000000000000 000000000000000000000000000000000000000     00000000                                                                                                                        000000000000000000
F0010000007888300005000000431178400013552100000000000000000201511130002001EFRAIN ALVAREZ                                    D000000000168000000000000000000000100010010000000000000000000000F0010000007888300520151113000101 00000000000000000000000000000000000000000000000000000000000000000000000000000000000000000000000000000000000000000N 00000000000NCONT   00    00000000000          00000000000000000000000000000000000000000000 000000000000000A000000000000000000000000000000000000000000000 000000000000000000000000000000000000000     00000000                                                                                                                        000000000000000000
F0010000007888400001000000744822500013050500000000000000000201511130002001LABORATORIO Y PERFUMERIA BORGE                    D000000023840000000000000000000000100010010000000000000000000000F0010000007888400120151113000101 00000000000000000000000000000000000000000000000000000000000000000000000000000000000000000000000000000000000000000N 00000000000NCONT   00    00000000000          00000000000000000000000000000000000000000000 000000000000000A000000000000000000000000000000000000000000000 000000000000000000000000000000000000000     00000000                                                                                                                        000000000000000000
F0010000007888400002000000744822500041450500000000000000000201511130002001LABORATORIO Y PERFUMERIA BORGE                    C000000016570000000000000000000000100010010000000000000000000000F0010000007888400220151113000101 00000000000000000000000000000000000000000000000000000000000000000000000000000000000000000000000000000000000000000N 00000000000NCONT   00    00000000000          00000000000000000000000000000000000000000000 000000000000000A000000000000000000000000000000000000000000000 000000000000000000000000000000000000000     00000000                                                                                                                        000000000000000000
F0010000007888400003000000744822500042505000000000000000000201511130002001LABORATORIO Y PERFUMERIA BORGE                    C000000007270000000000000000000000100010010000000000000000000000F0010000007888400320151113000101 00000000000000000000000000000000000000000000000000000000000000000000000000000000000000000000000000000000000000000N 00000000000NCONT   00    00000000000          00000000000000000000000000000000000000000000 000000000000000A000000000000000000000000000000000000000000000 000000000000000000000000000000000000000     00000000                                                                                                                        000000000000000000
F0010000007888400004000000744822500023658300000000000000000201511130002001LABORATORIO Y PERFUMERIA BORGE                    C000000000132600000000000000000000100010010000000000000000000000F0010000007888400420151113000101 00000000000000000000000000000000000000000000000000000000000000000000000000000000000000000000000000000000000000000N 00000000000NCONT   00    00000000000          00000000000000000000000000000000000000000000 000000000000000A000000000000000000000000000000000000000000000 000000000000000000000000000000000000000     00000000                                                                                                                        000000000000000000
F0010000007888400005000000744822500013552100000000000000000201511130002001LABORATORIO Y PERFUMERIA BORGE                    D000000000132600000000000000000000100010010000000000000000000000F0010000007888400520151113000101 00000000000000000000000000000000000000000000000000000000000000000000000000000000000000000000000000000000000000000N 00000000000NCONT   00    00000000000          00000000000000000000000000000000000000000000 000000000000000A000000000000000000000000000000000000000000000 000000000000000000000000000000000000000     00000000                                                                                                                        000000000000000000
F0010000007888500001000089010272700013050500000000000000000201511130002001ALFONSOEME S.A.                                   D000000035427800000000000000000000100010010000000000000000000000F0010000007888500120151113000101 00000000000000000000000000000000000000000000000000000000000000000000000000000000000000000000000000000000000000000N 00000000000NCONT   00    00000000000          00000000000000000000000000000000000000000000 000000000000000A000000000000000000000000000000000000000000000 000000000000000000000000000000000000000     00000000                                                                                                                        000000000000000000
F0010000007888500002000089010272700041450500000000000000000201511130002001ALFONSOEME S.A.                                   C000000035719800000000000000000000100010010000000000000000000000F0010000007888500220151113000101 00000000000000000000000000000000000000000000000000000000000000000000000000000000000000000000000000000000000000000N 00000000000NCONT   00    00000000000          00000000000000000000000000000000000000000000 000000000000000A000000000000000000000000000000000000000000000 000000000000000000000000000000000000000     00000000                                                                                                                        000000000000000000
F0010000007888500003000089010272700041750100000000000000000201511130002001ALFONSOEME S.A.                                   D000000003572000000000000000000000100010010000000000000000000000F0010000007888500320151113000101 00000000000000000000000000000000000000000000000000000000000000000000000000000000000000000000000000000000000000000N 00000000000NCONT   00    00000000000          00000000000000000000000000000000000000000000 000000000000000A000000000000000000000000000000000000000000000 000000000000000000000000000000000000000     00000000                                                                                                                        000000000000000000
F0010000007888500004000089010272700042505000000000000000000201511130002001ALFONSOEME S.A.                                   C000000003280000000000000000000000100010010000000000000000000000F0010000007888500420151113000101 00000000000000000000000000000000000000000000000000000000000000000000000000000000000000000000000000000000000000000N 00000000000NCONT   00    00000000000          00000000000000000000000000000000000000000000 000000000000000A000000000000000000000000000000000000000000000 000000000000000000000000000000000000000     00000000                                                                                                                        000000000000000000
F0010000007888500005000089010272700023658300000000000000000201511130002001ALFONSOEME S.A.                                   C000000000285800000000000000000000100010010000000000000000000000F0010000007888500520151113000101 00000000000000000000000000000000000000000000000000000000000000000000000000000000000000000000000000000000000000000N 00000000000NCONT   00    00000000000          00000000000000000000000000000000000000000000 000000000000000A000000000000000000000000000000000000000000000 000000000000000000000000000000000000000     00000000                                                                                                                        000000000000000000
F0010000007888500006000089010272700013552100000000000000000201511130002001ALFONSOEME S.A.                                   D000000000285800000000000000000000100010010000000000000000000000F0010000007888500620151113000101 00000000000000000000000000000000000000000000000000000000000000000000000000000000000000000000000000000000000000000N 00000000000NCONT   00    00000000000          00000000000000000000000000000000000000000000 000000000000000A000000000000000000000000000000000000000000000 000000000000000000000000000000000000000     00000000                                                                                                                        000000000000000000
F0010000007888600001000089010272700013050500000000000000000201511130002001ALFONSOEME S.A.                                   D000000000808000000000000000000000100010010000000000000000000000F0010000007888600120151113000101 00000000000000000000000000000000000000000000000000000000000000000000000000000000000000000000000000000000000000000N 00000000000NCONT   00    00000000000          00000000000000000000000000000000000000000000 000000000000000A000000000000000000000000000000000000000000000 000000000000000000000000000000000000000     00000000                                                                                                                        000000000000000000
F0010000007888600002000089010272700041450500000000000000000201511130002001ALFONSOEME S.A.                                   C000000000720000000000000000000000100010010000000000000000000000F0010000007888600220151113000101 00000000000000000000000000000000000000000000000000000000000000000000000000000000000000000000000000000000000000000N 00000000000NCONT   00    00000000000          00000000000000000000000000000000000000000000 000000000000000A000000000000000000000000000000000000000000000 000000000000000000000000000000000000000     00000000                                                                                                                        000000000000000000
F0010000007888600003000089010272700041750100000000000000000201511130002001ALFONSOEME S.A.                                   D000000000072000000000000000000000100010010000000000000000000000F0010000007888600320151113000101 00000000000000000000000000000000000000000000000000000000000000000000000000000000000000000000000000000000000000000N 00000000000NCONT   00    00000000000          00000000000000000000000000000000000000000000 000000000000000A000000000000000000000000000000000000000000000 000000000000000000000000000000000000000     00000000                                                                                                                        000000000000000000
F0010000007888600004000089010272700042505000000000000000000201511130002001ALFONSOEME S.A.                                   C000000000160000000000000000000000100010010000000000000000000000F0010000007888600420151113000101 00000000000000000000000000000000000000000000000000000000000000000000000000000000000000000000000000000000000000000N 00000000000NCONT   00    00000000000          00000000000000000000000000000000000000000000 000000000000000A000000000000000000000000000000000000000000000 000000000000000000000000000000000000000     00000000                                                                                                                        000000000000000000
F0010000007888600005000089010272700023658300000000000000000201511130002001ALFONSOEME S.A.                                   C000000000005800000000000000000000100010010000000000000000000000F0010000007888600520151113000101 00000000000000000000000000000000000000000000000000000000000000000000000000000000000000000000000000000000000000000N 00000000000NCONT   00    00000000000          00000000000000000000000000000000000000000000 000000000000000A000000000000000000000000000000000000000000000 000000000000000000000000000000000000000     00000000                                                                                                                        000000000000000000
F0010000007888600006000089010272700013552100000000000000000201511130002001ALFONSOEME S.A.                                   D000000000005800000000000000000000100010010000000000000000000000F0010000007888600620151113000101 00000000000000000000000000000000000000000000000000000000000000000000000000000000000000000000000000000000000000000N 00000000000NCONT   00    00000000000          00000000000000000000000000000000000000000000 000000000000000A000000000000000000000000000000000000000000000 000000000000000000000000000000000000000     00000000                                                                                                                        000000000000000000
F0010000007888700001000090036646700013050500000000000000000201511130002001FERREPROYECTOS S.A.S                              D000000008300000000000000000000000100010010000000000000000000000F0010000007888700120151113000101 00000000000000000000000000000000000000000000000000000000000000000000000000000000000000000000000000000000000000000N 00000000000NCONT   00    00000000000          00000000000000000000000000000000000000000000 000000000000000A000000000000000000000000000000000000000000000 000000000000000000000000000000000000000     00000000                                                                                                                        000000000000000000
F0010000007888700002000090036646700041450500000000000000000201511130002001FERREPROYECTOS S.A.S                              C000000006100000000000000000000000100010010000000000000000000000F0010000007888700220151113000101 00000000000000000000000000000000000000000000000000000000000000000000000000000000000000000000000000000000000000000N 00000000000NCONT   00    00000000000          00000000000000000000000000000000000000000000 000000000000000A000000000000000000000000000000000000000000000 000000000000000000000000000000000000000     00000000                                                                                                                        000000000000000000
F0010000007888700003000090036646700042505000000000000000000201511130002001FERREPROYECTOS S.A.S                              C000000002200000000000000000000000100010010000000000000000000000F0010000007888700320151113000101 00000000000000000000000000000000000000000000000000000000000000000000000000000000000000000000000000000000000000000N 00000000000NCONT   00    00000000000          00000000000000000000000000000000000000000000 000000000000000A000000000000000000000000000000000000000000000 000000000000000000000000000000000000000     00000000                                                                                                                        000000000000000000
F0010000007888700004000090036646700023658300000000000000000201511130002001FERREPROYECTOS S.A.S                              C000000000048800000000000000000000100010010000000000000000000000F0010000007888700420151113000101 00000000000000000000000000000000000000000000000000000000000000000000000000000000000000000000000000000000000000000N 00000000000NCONT   00    00000000000          00000000000000000000000000000000000000000000 000000000000000A000000000000000000000000000000000000000000000 000000000000000000000000000000000000000     00000000                                                                                                                        000000000000000000
F0010000007888700005000090036646700013552100000000000000000201511130002001FERREPROYECTOS S.A.S                              D000000000048800000000000000000000100010010000000000000000000000F0010000007888700520151113000101 00000000000000000000000000000000000000000000000000000000000000000000000000000000000000000000000000000000000000000N 00000000000NCONT   00    00000000000          00000000000000000000000000000000000000000000 000000000000000A000000000000000000000000000000000000000000000 000000000000000000000000000000000000000     00000000                                                                                                                        000000000000000000
F0010000007888800001000090044920600013050500000000000000000201511130002001QUATRO CARIBE SAS                                 D000000029960000000000000000000000100010010000000000000000000000F0010000007888800120151113000101 00000000000000000000000000000000000000000000000000000000000000000000000000000000000000000000000000000000000000000N 00000000000NCONT   00    00000000000          00000000000000000000000000000000000000000000 000000000000000A000000000000000000000000000000000000000000000 000000000000000000000000000000000000000     00000000                                                                                                                        000000000000000000
F0010000007888800002000090044920600041450500000000000000000201511130002001QUATRO CARIBE SAS                                 C000000021960000000000000000000000100010010000000000000000000000F0010000007888800220151113000101 00000000000000000000000000000000000000000000000000000000000000000000000000000000000000000000000000000000000000000N 00000000000NCONT   00    00000000000          00000000000000000000000000000000000000000000 000000000000000A000000000000000000000000000000000000000000000 000000000000000000000000000000000000000     00000000                                                                                                                        000000000000000000
F0010000007888800003000090044920600042505000000000000000000201511130002001QUATRO CARIBE SAS                                 C000000008000000000000000000000000100010010000000000000000000000F0010000007888800320151113000101 00000000000000000000000000000000000000000000000000000000000000000000000000000000000000000000000000000000000000000N 00000000000NCONT   00    00000000000          00000000000000000000000000000000000000000000 000000000000000A000000000000000000000000000000000000000000000 000000000000000000000000000000000000000     00000000                                                                                                                        000000000000000000
F0010000007888800004000090044920600023658300000000000000000201511130002001QUATRO CARIBE SAS                                 C000000000175700000000000000000000100010010000000000000000000000F0010000007888800420151113000101 00000000000000000000000000000000000000000000000000000000000000000000000000000000000000000000000000000000000000000N 00000000000NCONT   00    00000000000          00000000000000000000000000000000000000000000 000000000000000A000000000000000000000000000000000000000000000 000000000000000000000000000000000000000     00000000                                                                                                                        000000000000000000
F0010000007888800005000090044920600013552100000000000000000201511130002001QUATRO CARIBE SAS                                 D000000000175700000000000000000000100010010000000000000000000000F0010000007888800520151113000101 00000000000000000000000000000000000000000000000000000000000000000000000000000000000000000000000000000000000000000N 00000000000NCONT   00    00000000000          00000000000000000000000000000000000000000000 000000000000000A000000000000000000000000000000000000000000000 000000000000000000000000000000000000000     00000000                                                                                                                        000000000000000000
F0010000007888900001000086003979400013050500000000000000000201511130002001CALYPSO BARRANQUILLA LTDA                         D000000031399900000000000000000000100010010000000000000000000000F0010000007888900120151113000101 00000000000000000000000000000000000000000000000000000000000000000000000000000000000000000000000000000000000000000N 00000000000NCONT   00    00000000000          00000000000000000000000000000000000000000000 000000000000000A000000000000000000000000000000000000000000000 000000000000000000000000000000000000000     00000000                                                                                                                        000000000000000000
F0010000007888900002000086003979400041450500000000000000000201511130002001CALYPSO BARRANQUILLA LTDA                         C000000028900000000000000000000000100010010000000000000000000000F0010000007888900220151113000101 00000000000000000000000000000000000000000000000000000000000000000000000000000000000000000000000000000000000000000N 00000000000NCONT   00    00000000000          00000000000000000000000000000000000000000000 000000000000000A000000000000000000000000000000000000000000000 000000000000000000000000000000000000000     00000000                                                                                                                        000000000000000000
F0010000007888900003000086003979400042505000000000000000000201511130002001CALYPSO BARRANQUILLA LTDA                         C000000002499900000000000000000000100010010000000000000000000000F0010000007888900320151113000101 00000000000000000000000000000000000000000000000000000000000000000000000000000000000000000000000000000000000000000N 00000000000NCONT   00    00000000000          00000000000000000000000000000000000000000000 000000000000000A000000000000000000000000000000000000000000000 000000000000000000000000000000000000000     00000000                                                                                                                        000000000000000000
F0010000007888900004000086003979400023658300000000000000000201511130002001CALYPSO BARRANQUILLA LTDA                         C000000000231200000000000000000000100010010000000000000000000000F0010000007888900420151113000101 00000000000000000000000000000000000000000000000000000000000000000000000000000000000000000000000000000000000000000N 00000000000NCONT   00    00000000000          00000000000000000000000000000000000000000000 000000000000000A000000000000000000000000000000000000000000000 000000000000000000000000000000000000000     00000000                                                                                                                        000000000000000000
F0010000007888900005000086003979400013552100000000000000000201511130002001CALYPSO BARRANQUILLA LTDA                         D000000000231200000000000000000000100010010000000000000000000000F0010000007888900520151113000101 00000000000000000000000000000000000000000000000000000000000000000000000000000000000000000000000000000000000000000N 00000000000NCONT   00    00000000000          00000000000000000000000000000000000000000000 000000000000000A000000000000000000000000000000000000000000000 000000000000000000000000000000000000000     00000000                                                                                                                        000000000000000000
F0010000007889000001000107252647100013050500000000000000000201511130002001JHON BYRON DUQUE DONADO (BODEGA JHONIFER)         D000000008800000000000000000000000100010010000000000000000000000F0010000007889000120151113000101 00000000000000000000000000000000000000000000000000000000000000000000000000000000000000000000000000000000000000000N 00000000000NCONT   00    00000000000          00000000000000000000000000000000000000000000 000000000000000A000000000000000000000000000000000000000000000 000000000000000000000000000000000000000     00000000                                                                                                                        000000000000000000
F0010000007889000002000107252647100041450500000000000000000201511130002001JHON BYRON DUQUE DONADO (BODEGA JHONIFER)         C000000007400000000000000000000000100010010000000000000000000000F0010000007889000220151113000101 00000000000000000000000000000000000000000000000000000000000000000000000000000000000000000000000000000000000000000N 00000000000NCONT   00    00000000000          00000000000000000000000000000000000000000000 000000000000000A000000000000000000000000000000000000000000000 000000000000000000000000000000000000000     00000000                                                                                                                        000000000000000000
F0010000007889000003000107252647100042505000000000000000000201511130002001JHON BYRON DUQUE DONADO (BODEGA JHONIFER)         C000000001400000000000000000000000100010010000000000000000000000F0010000007889000320151113000101 00000000000000000000000000000000000000000000000000000000000000000000000000000000000000000000000000000000000000000N 00000000000NCONT   00    00000000000          00000000000000000000000000000000000000000000 000000000000000A000000000000000000000000000000000000000000000 000000000000000000000000000000000000000     00000000                                                                                                                        000000000000000000
F0010000007889000004000107252647100023658300000000000000000201511130002001JHON BYRON DUQUE DONADO (BODEGA JHONIFER)         C000000000059200000000000000000000100010010000000000000000000000F0010000007889000420151113000101 00000000000000000000000000000000000000000000000000000000000000000000000000000000000000000000000000000000000000000N 00000000000NCONT   00    00000000000          00000000000000000000000000000000000000000000 000000000000000A000000000000000000000000000000000000000000000 000000000000000000000000000000000000000     00000000                                                                                                                        000000000000000000
F0010000007889000005000107252647100013552100000000000000000201511130002001JHON BYRON DUQUE DONADO (BODEGA JHONIFER)         D000000000059200000000000000000000100010010000000000000000000000F0010000007889000520151113000101 00000000000000000000000000000000000000000000000000000000000000000000000000000000000000000000000000000000000000000N 00000000000NCONT   00    00000000000          00000000000000000000000000000000000000000000 000000000000000A000000000000000000000000000000000000000000000 000000000000000000000000000000000000000     00000000                                                                                                                        000000000000000000
F0010000007889100001000004175790100013050500000000000000000201511130002001ROSIRIS FERIA HOYOS  (COSM. SHILLER)              D000000015520000000000000000000000100010010000000000000000000000F0010000007889100120151113000101 00000000000000000000000000000000000000000000000000000000000000000000000000000000000000000000000000000000000000000N 00000000000NCONT   00    00000000000          00000000000000000000000000000000000000000000 000000000000000A000000000000000000000000000000000000000000000 000000000000000000000000000000000000000     00000000                                                                                                                        000000000000000000
F0010000007889100002000004175790100041450500000000000000000201511130002001ROSIRIS FERIA HOYOS  (COSM. SHILLER)              C000000013820000000000000000000000100010010000000000000000000000F0010000007889100220151113000101 00000000000000000000000000000000000000000000000000000000000000000000000000000000000000000000000000000000000000000N 00000000000NCONT   00    00000000000          00000000000000000000000000000000000000000000 000000000000000A000000000000000000000000000000000000000000000 000000000000000000000000000000000000000     00000000                                                                                                                        000000000000000000
F0010000007889100003000004175790100042505000000000000000000201511130002001ROSIRIS FERIA HOYOS  (COSM. SHILLER)              C000000001700000000000000000000000100010010000000000000000000000F0010000007889100320151113000101 00000000000000000000000000000000000000000000000000000000000000000000000000000000000000000000000000000000000000000N 00000000000NCONT   00    00000000000          00000000000000000000000000000000000000000000 000000000000000A000000000000000000000000000000000000000000000 000000000000000000000000000000000000000     00000000                                                                                                                        000000000000000000
F0010000007889100004000004175790100023658300000000000000000201511130002001ROSIRIS FERIA HOYOS  (COSM. SHILLER)              C000000000110600000000000000000000100010010000000000000000000000F0010000007889100420151113000101 00000000000000000000000000000000000000000000000000000000000000000000000000000000000000000000000000000000000000000N 00000000000NCONT   00    00000000000          00000000000000000000000000000000000000000000 000000000000000A000000000000000000000000000000000000000000000 000000000000000000000000000000000000000     00000000                                                                                                                        000000000000000000
F0010000007889100005000004175790100013552100000000000000000201511130002001ROSIRIS FERIA HOYOS  (COSM. SHILLER)              D000000000110600000000000000000000100010010000000000000000000000F0010000007889100520151113000101 00000000000000000000000000000000000000000000000000000000000000000000000000000000000000000000000000000000000000000N 00000000000NCONT   00    00000000000          00000000000000000000000000000000000000000000 000000000000000A000000000000000000000000000000000000000000000 000000000000000000000000000000000000000     00000000                                                                                                                        000000000000000000
F0010000007889200001000089010952800013050500000000000000000201511130002001IND. LITOGRAF. BOSTON S.A.S.                      D000000042040000000000000000000000100010010000000000000000000000F0010000007889200120151113000101 00000000000000000000000000000000000000000000000000000000000000000000000000000000000000000000000000000000000000000N 00000000000NCONT   00    00000000000          00000000000000000000000000000000000000000000 000000000000000A000000000000000000000000000000000000000000000 000000000000000000000000000000000000000     00000000                                                                                                                        000000000000000000
F0010000007889200002000089010952800041450500000000000000000201511130002001IND. LITOGRAF. BOSTON S.A.S.                      C000000037090000000000000000000000100010010000000000000000000000F0010000007889200220151113000101 00000000000000000000000000000000000000000000000000000000000000000000000000000000000000000000000000000000000000000N 00000000000NCONT   00    00000000000          00000000000000000000000000000000000000000000 000000000000000A000000000000000000000000000000000000000000000 000000000000000000000000000000000000000     00000000                                                                                                                        000000000000000000
F0010000007889200003000089010952800042505000000000000000000201511130002001IND. LITOGRAF. BOSTON S.A.S.                      C000000004950000000000000000000000100010010000000000000000000000F0010000007889200320151113000101 00000000000000000000000000000000000000000000000000000000000000000000000000000000000000000000000000000000000000000N 00000000000NCONT   00    00000000000          00000000000000000000000000000000000000000000 000000000000000A000000000000000000000000000000000000000000000 000000000000000000000000000000000000000     00000000                                                                                                                        000000000000000000
F0010000007889200004000089010952800023658300000000000000000201511130002001IND. LITOGRAF. BOSTON S.A.S.                      C000000000296700000000000000000000100010010000000000000000000000F0010000007889200420151113000101 00000000000000000000000000000000000000000000000000000000000000000000000000000000000000000000000000000000000000000N 00000000000NCONT   00    00000000000          00000000000000000000000000000000000000000000 000000000000000A000000000000000000000000000000000000000000000 000000000000000000000000000000000000000     00000000                                                                                                                        000000000000000000
F0010000007889200005000089010952800013552100000000000000000201511130002001IND. LITOGRAF. BOSTON S.A.S.                      D000000000296700000000000000000000100010010000000000000000000000F0010000007889200520151113000101 00000000000000000000000000000000000000000000000000000000000000000000000000000000000000000000000000000000000000000N 00000000000NCONT   00    00000000000          00000000000000000000000000000000000000000000 000000000000000A000000000000000000000000000000000000000000000 000000000000000000000000000000000000000     00000000                                                                                                                        000000000000000000
F0010000007889300001000080201127600013050500000000000000000201511130002001ELECTRICOS DEL RUIZ S.A.S.                        D000000035504800000000000000000000100010010000000000000000000000F0010000007889300120151113000101 00000000000000000000000000000000000000000000000000000000000000000000000000000000000000000000000000000000000000000N 00000000000NCONT   00    00000000000          00000000000000000000000000000000000000000000 000000000000000A000000000000000000000000000000000000000000000 000000000000000000000000000000000000000     00000000                                                                                                                        000000000000000000
F0010000007889300002000080201127600041450500000000000000000201511130002001ELECTRICOS DEL RUIZ S.A.S.                        C000000026180000000000000000000000100010010000000000000000000000F0010000007889300220151113000101 00000000000000000000000000000000000000000000000000000000000000000000000000000000000000000000000000000000000000000N 00000000000NCONT   00    00000000000          00000000000000000000000000000000000000000000 000000000000000A000000000000000000000000000000000000000000000 000000000000000000000000000000000000000     00000000                                                                                                                        000000000000000000
F0010000007889300003000080201127600042505000000000000000000201511130002001ELECTRICOS DEL RUIZ S.A.S.                        C000000009324800000000000000000000100010010000000000000000000000F0010000007889300320151113000101 00000000000000000000000000000000000000000000000000000000000000000000000000000000000000000000000000000000000000000N 00000000000NCONT   00    00000000000          00000000000000000000000000000000000000000000 000000000000000A000000000000000000000000000000000000000000000 000000000000000000000000000000000000000     00000000                                                                                                                        000000000000000000
F0010000007889300004000080201127600023658300000000000000000201511130002001ELECTRICOS DEL RUIZ S.A.S.                        C000000000209400000000000000000000100010010000000000000000000000F0010000007889300420151113000101 00000000000000000000000000000000000000000000000000000000000000000000000000000000000000000000000000000000000000000N 00000000000NCONT   00    00000000000          00000000000000000000000000000000000000000000 000000000000000A000000000000000000000000000000000000000000000 000000000000000000000000000000000000000     00000000                                                                                                                        000000000000000000
F0010000007889300005000080201127600013552100000000000000000201511130002001ELECTRICOS DEL RUIZ S.A.S.                        D000000000209400000000000000000000100010010000000000000000000000F0010000007889300520151113000101 00000000000000000000000000000000000000000000000000000000000000000000000000000000000000000000000000000000000000000N 00000000000NCONT   00    00000000000          00000000000000000000000000000000000000000000 000000000000000A000000000000000000000000000000000000000000000 000000000000000000000000000000000000000     00000000                                                                                                                        000000000000000000
F0010000007889400001000090019362000013050500000000000000000201511130002001GENERAL SUPPLIES CIA LTDA                         D000000015730000000000000000000000100010010000000000000000000000F0010000007889400120151113000101 00000000000000000000000000000000000000000000000000000000000000000000000000000000000000000000000000000000000000000N 00000000000NCONT   00    00000000000          00000000000000000000000000000000000000000000 000000000000000A000000000000000000000000000000000000000000000 000000000000000000000000000000000000000     00000000                                                                                                                        000000000000000000
F0010000007889400002000090019362000041450500000000000000000201511130002001GENERAL SUPPLIES CIA LTDA                         C000000013350000000000000000000000100010010000000000000000000000F0010000007889400220151113000101 00000000000000000000000000000000000000000000000000000000000000000000000000000000000000000000000000000000000000000N 00000000000NCONT   00    00000000000          00000000000000000000000000000000000000000000 000000000000000A000000000000000000000000000000000000000000000 000000000000000000000000000000000000000     00000000                                                                                                                        000000000000000000
F0010000007889400003000090019362000042505000000000000000000201511130002001GENERAL SUPPLIES CIA LTDA                         C000000002380000000000000000000000100010010000000000000000000000F0010000007889400320151113000101 00000000000000000000000000000000000000000000000000000000000000000000000000000000000000000000000000000000000000000N 00000000000NCONT   00    00000000000          00000000000000000000000000000000000000000000 000000000000000A000000000000000000000000000000000000000000000 000000000000000000000000000000000000000     00000000                                                                                                                        000000000000000000
F0010000007889400004000090019362000023658300000000000000000201511130002001GENERAL SUPPLIES CIA LTDA                         C000000000106800000000000000000000100010010000000000000000000000F0010000007889400420151113000101 00000000000000000000000000000000000000000000000000000000000000000000000000000000000000000000000000000000000000000N 00000000000NCONT   00    00000000000          00000000000000000000000000000000000000000000 000000000000000A000000000000000000000000000000000000000000000 000000000000000000000000000000000000000     00000000                                                                                                                        000000000000000000
F0010000007889400005000090019362000013552100000000000000000201511130002001GENERAL SUPPLIES CIA LTDA                         D000000000106800000000000000000000100010010000000000000000000000F0010000007889400520151113000101 00000000000000000000000000000000000000000000000000000000000000000000000000000000000000000000000000000000000000000N 00000000000NCONT   00    00000000000          00000000000000000000000000000000000000000000 000000000000000A000000000000000000000000000000000000000000000 000000000000000000000000000000000000000     00000000                                                                                                                        000000000000000000
F0010000007889500001000000827614700013050500000000000000000201511130002001ALVARO  HERNAN  PEREZ ALVAREZ                     D000000020570000000000000000000000100010010000000000000000000000F0010000007889500120151113000101 00000000000000000000000000000000000000000000000000000000000000000000000000000000000000000000000000000000000000000N 00000000000NCONT   00    00000000000          00000000000000000000000000000000000000000000 000000000000000A000000000000000000000000000000000000000000000 000000000000000000000000000000000000000     00000000                                                                                                                        000000000000000000
F0010000007889500002000000827614700041450500000000000000000201511130002001ALVARO  HERNAN  PEREZ ALVAREZ                     C000000019200000000000000000000000100010010000000000000000000000F0010000007889500220151113000101 00000000000000000000000000000000000000000000000000000000000000000000000000000000000000000000000000000000000000000N 00000000000NCONT   00    00000000000          00000000000000000000000000000000000000000000 000000000000000A000000000000000000000000000000000000000000000 000000000000000000000000000000000000000     00000000                                                                                                                        000000000000000000
F0010000007889500003000000827614700042505000000000000000000201511130002001ALVARO  HERNAN  PEREZ ALVAREZ                     C000000001370000000000000000000000100010010000000000000000000000F0010000007889500320151113000101 00000000000000000000000000000000000000000000000000000000000000000000000000000000000000000000000000000000000000000N 00000000000NCONT   00    00000000000          00000000000000000000000000000000000000000000 000000000000000A000000000000000000000000000000000000000000000 000000000000000000000000000000000000000     00000000                                                                                                                        000000000000000000
F0010000007889500004000000827614700023658300000000000000000201511130002001ALVARO  HERNAN  PEREZ ALVAREZ                     C000000000153600000000000000000000100010010000000000000000000000F0010000007889500420151113000101 00000000000000000000000000000000000000000000000000000000000000000000000000000000000000000000000000000000000000000N 00000000000NCONT   00    00000000000          00000000000000000000000000000000000000000000 000000000000000A000000000000000000000000000000000000000000000 000000000000000000000000000000000000000     00000000                                                                                                                        000000000000000000
F0010000007889500005000000827614700013552100000000000000000201511130002001ALVARO  HERNAN  PEREZ ALVAREZ                     D000000000153600000000000000000000100010010000000000000000000000F0010000007889500520151113000101 00000000000000000000000000000000000000000000000000000000000000000000000000000000000000000000000000000000000000000N 00000000000NCONT   00    00000000000          00000000000000000000000000000000000000000000 000000000000000A000000000000000000000000000000000000000000000 000000000000000000000000000000000000000     00000000                                                                                                                        000000000000000000
F0010000007889600001000007215896800013050500000000000000000201511130002001EDDIER CIRO                                       D000000042342300000000000000000000100010010000000000000000000000F0010000007889600120151113000101 00000000000000000000000000000000000000000000000000000000000000000000000000000000000000000000000000000000000000000N 00000000000NCONT   00    00000000000          00000000000000000000000000000000000000000000 000000000000000A000000000000000000000000000000000000000000000 000000000000000000000000000000000000000     00000000                                                                                                                        000000000000000000
F0010000007889600002000007215896800041450500000000000000000201511130002001EDDIER CIRO                                       C000000032250000000000000000000000100010010000000000000000000000F0010000007889600220151113000101 00000000000000000000000000000000000000000000000000000000000000000000000000000000000000000000000000000000000000000N 00000000000NCONT   00    00000000000          00000000000000000000000000000000000000000000 000000000000000A000000000000000000000000000000000000000000000 000000000000000000000000000000000000000     00000000                                                                                                                        000000000000000000
F0010000007889600003000007215896800042505000000000000000000201511130002001EDDIER CIRO                                       C000000010092300000000000000000000100010010000000000000000000000F0010000007889600320151113000101 00000000000000000000000000000000000000000000000000000000000000000000000000000000000000000000000000000000000000000N 00000000000NCONT   00    00000000000          00000000000000000000000000000000000000000000 000000000000000A000000000000000000000000000000000000000000000 000000000000000000000000000000000000000     00000000                                                                                                                        000000000000000000
F0010000007889600004000007215896800023658300000000000000000201511130002001EDDIER CIRO                                       C000000000258000000000000000000000100010010000000000000000000000F0010000007889600420151113000101 00000000000000000000000000000000000000000000000000000000000000000000000000000000000000000000000000000000000000000N 00000000000NCONT   00    00000000000          00000000000000000000000000000000000000000000 000000000000000A000000000000000000000000000000000000000000000 000000000000000000000000000000000000000     00000000                                                                                                                        000000000000000000
F0010000007889600005000007215896800013552100000000000000000201511130002001EDDIER CIRO                                       D000000000258000000000000000000000100010010000000000000000000000F0010000007889600520151113000101 00000000000000000000000000000000000000000000000000000000000000000000000000000000000000000000000000000000000000000N 00000000000NCONT   00    00000000000          00000000000000000000000000000000000000000000 000000000000000A000000000000000000000000000000000000000000000 000000000000000000000000000000000000000     00000000                                                                                                                        000000000000000000
F0010000007889700001000003264509600013050500000000000000000201511130002001ROSA E. AGAMEZ                                    D000000004240000000000000000000000100010010000000000000000000000F0010000007889700120151113000101 00000000000000000000000000000000000000000000000000000000000000000000000000000000000000000000000000000000000000000N 00000000000NCONT   00    00000000000          00000000000000000000000000000000000000000000 000000000000000A000000000000000000000000000000000000000000000 000000000000000000000000000000000000000     00000000                                                                                                                        000000000000000000
F0010000007889700002000003264509600041450500000000000000000201511130002001ROSA E. AGAMEZ                                    C000000002910000000000000000000000100010010000000000000000000000F0010000007889700220151113000101 00000000000000000000000000000000000000000000000000000000000000000000000000000000000000000000000000000000000000000N 00000000000NCONT   00    00000000000          00000000000000000000000000000000000000000000 000000000000000A000000000000000000000000000000000000000000000 000000000000000000000000000000000000000     00000000                                                                                                                        000000000000000000
F0010000007889700003000003264509600042505000000000000000000201511130002001ROSA E. AGAMEZ                                    C000000001330000000000000000000000100010010000000000000000000000F0010000007889700320151113000101 00000000000000000000000000000000000000000000000000000000000000000000000000000000000000000000000000000000000000000N 00000000000NCONT   00    00000000000          00000000000000000000000000000000000000000000 000000000000000A000000000000000000000000000000000000000000000 000000000000000000000000000000000000000     00000000                                                                                                                        000000000000000000
F0010000007889700004000003264509600023658300000000000000000201511130002001ROSA E. AGAMEZ                                    C000000000023300000000000000000000100010010000000000000000000000F0010000007889700420151113000101 00000000000000000000000000000000000000000000000000000000000000000000000000000000000000000000000000000000000000000N 00000000000NCONT   00    00000000000          00000000000000000000000000000000000000000000 000000000000000A000000000000000000000000000000000000000000000 000000000000000000000000000000000000000     00000000                                                                                                                        000000000000000000
F0010000007889700005000003264509600013552100000000000000000201511130002001ROSA E. AGAMEZ                                    D000000000023300000000000000000000100010010000000000000000000000F0010000007889700520151113000101 00000000000000000000000000000000000000000000000000000000000000000000000000000000000000000000000000000000000000000N 00000000000NCONT   00    00000000000          00000000000000000000000000000000000000000000 000000000000000A000000000000000000000000000000000000000000000 000000000000000000000000000000000000000     00000000                                                                                                                        000000000000000000
F0010000007889800001000090064337300013050500000000000000000201511130002001DISCOMERCIAL TEXTIL DEL CARIBE SAS                D000000016360000000000000000000000100010010000000000000000000000F0010000007889800120151113000101 00000000000000000000000000000000000000000000000000000000000000000000000000000000000000000000000000000000000000000N 00000000000NCONT   00    00000000000          00000000000000000000000000000000000000000000 000000000000000A000000000000000000000000000000000000000000000 000000000000000000000000000000000000000     00000000                                                                                                                        000000000000000000
F0010000007889800002000090064337300041450500000000000000000201511130002001DISCOMERCIAL TEXTIL DEL CARIBE SAS                C000000013500000000000000000000000100010010000000000000000000000F0010000007889800220151113000101 00000000000000000000000000000000000000000000000000000000000000000000000000000000000000000000000000000000000000000N 00000000000NCONT   00    00000000000          00000000000000000000000000000000000000000000 000000000000000A000000000000000000000000000000000000000000000 000000000000000000000000000000000000000     00000000                                                                                                                        000000000000000000
F0010000007889800003000090064337300042505000000000000000000201511130002001DISCOMERCIAL TEXTIL DEL CARIBE SAS                C000000002860000000000000000000000100010010000000000000000000000F0010000007889800320151113000101 00000000000000000000000000000000000000000000000000000000000000000000000000000000000000000000000000000000000000000N 00000000000NCONT   00    00000000000          00000000000000000000000000000000000000000000 000000000000000A000000000000000000000000000000000000000000000 000000000000000000000000000000000000000     00000000                                                                                                                        000000000000000000
F0010000007889800004000090064337300023658300000000000000000201511130002001DISCOMERCIAL TEXTIL DEL CARIBE SAS                C000000000108000000000000000000000100010010000000000000000000000F0010000007889800420151113000101 00000000000000000000000000000000000000000000000000000000000000000000000000000000000000000000000000000000000000000N 00000000000NCONT   00    00000000000          00000000000000000000000000000000000000000000 000000000000000A000000000000000000000000000000000000000000000 000000000000000000000000000000000000000     00000000                                                                                                                        000000000000000000
F0010000007889800005000090064337300013552100000000000000000201511130002001DISCOMERCIAL TEXTIL DEL CARIBE SAS                D000000000108000000000000000000000100010010000000000000000000000F0010000007889800520151113000101 00000000000000000000000000000000000000000000000000000000000000000000000000000000000000000000000000000000000000000N 00000000000NCONT   00    00000000000          00000000000000000000000000000000000000000000 000000000000000A000000000000000000000000000000000000000000000 000000000000000000000000000000000000000     00000000                                                                                                                        000000000000000000
F0010000007889900001000007219697600013050500000000000000000201511130002001ROBERTO SOSA POLO                                 D000000013450000000000000000000000100010010000000000000000000000F0010000007889900120151113000101 00000000000000000000000000000000000000000000000000000000000000000000000000000000000000000000000000000000000000000N 00000000000NCONT   00    00000000000          00000000000000000000000000000000000000000000 000000000000000A000000000000000000000000000000000000000000000 000000000000000000000000000000000000000     00000000                                                                                                                        000000000000000000
F0010000007889900002000007219697600041450500000000000000000201511130002001ROBERTO SOSA POLO                                 C000000012650000000000000000000000100010010000000000000000000000F0010000007889900220151113000101 00000000000000000000000000000000000000000000000000000000000000000000000000000000000000000000000000000000000000000N 00000000000NCONT   00    00000000000          00000000000000000000000000000000000000000000 000000000000000A000000000000000000000000000000000000000000000 000000000000000000000000000000000000000     00000000                                                                                                                        000000000000000000
F0010000007889900003000007219697600042505000000000000000000201511130002001ROBERTO SOSA POLO                                 C000000000800000000000000000000000100010010000000000000000000000F0010000007889900320151113000101 00000000000000000000000000000000000000000000000000000000000000000000000000000000000000000000000000000000000000000N 00000000000NCONT   00    00000000000          00000000000000000000000000000000000000000000 000000000000000A000000000000000000000000000000000000000000000 000000000000000000000000000000000000000     00000000                                                                                                                        000000000000000000
F0010000007889900004000007219697600023658300000000000000000201511130002001ROBERTO SOSA POLO                                 C000000000101200000000000000000000100010010000000000000000000000F0010000007889900420151113000101 00000000000000000000000000000000000000000000000000000000000000000000000000000000000000000000000000000000000000000N 00000000000NCONT   00    00000000000          00000000000000000000000000000000000000000000 000000000000000A000000000000000000000000000000000000000000000 000000000000000000000000000000000000000     00000000                                                                                                                        000000000000000000
F0010000007889900005000007219697600013552100000000000000000201511130002001ROBERTO SOSA POLO                                 D000000000101200000000000000000000100010010000000000000000000000F0010000007889900520151113000101 00000000000000000000000000000000000000000000000000000000000000000000000000000000000000000000000000000000000000000N 00000000000NCONT   00    00000000000          00000000000000000000000000000000000000000000 000000000000000A000000000000000000000000000000000000000000000 000000000000000000000000000000000000000     00000000                                                                                                                        000000000000000000
F0010000007890000001000003276535300013050500000000000000000201511130002001YASLEYS CATAO ESCOBAR                           D000000004212000000000000000000000100010010000000000000000000000F0010000007890000120151113000101 00000000000000000000000000000000000000000000000000000000000000000000000000000000000000000000000000000000000000000N 00000000000NCONT   00    00000000000          00000000000000000000000000000000000000000000 000000000000000A000000000000000000000000000000000000000000000 000000000000000000000000000000000000000     00000000                                                                                                                        000000000000000000
F0010000007890000002000003276535300041450500000000000000000201511130002001YASLEYS CATAO ESCOBAR                           C000000003280000000000000000000000100010010000000000000000000000F0010000007890000220151113000101 00000000000000000000000000000000000000000000000000000000000000000000000000000000000000000000000000000000000000000N 00000000000NCONT   00    00000000000          00000000000000000000000000000000000000000000 000000000000000A000000000000000000000000000000000000000000000 000000000000000000000000000000000000000     00000000                                                                                                                        000000000000000000
F0010000007890000003000003276535300042505000000000000000000201511130002001YASLEYS CATAO ESCOBAR                           C000000000932000000000000000000000100010010000000000000000000000F0010000007890000320151113000101 00000000000000000000000000000000000000000000000000000000000000000000000000000000000000000000000000000000000000000N 00000000000NCONT   00    00000000000          00000000000000000000000000000000000000000000 000000000000000A000000000000000000000000000000000000000000000 000000000000000000000000000000000000000     00000000                                                                                                                        000000000000000000
F0010000007890000004000003276535300023658300000000000000000201511130002001YASLEYS CATAO ESCOBAR                           C000000000026200000000000000000000100010010000000000000000000000F0010000007890000420151113000101 00000000000000000000000000000000000000000000000000000000000000000000000000000000000000000000000000000000000000000N 00000000000NCONT   00    00000000000          00000000000000000000000000000000000000000000 000000000000000A000000000000000000000000000000000000000000000 000000000000000000000000000000000000000     00000000                                                                                                                        000000000000000000
F0010000007890000005000003276535300013552100000000000000000201511130002001YASLEYS CATAO ESCOBAR                           D000000000026200000000000000000000100010010000000000000000000000F0010000007890000520151113000101 00000000000000000000000000000000000000000000000000000000000000000000000000000000000000000000000000000000000000000N 00000000000NCONT   00    00000000000          00000000000000000000000000000000000000000000 000000000000000A000000000000000000000000000000000000000000000 000000000000000000000000000000000000000     00000000                                                                                                                        000000000000000000
F0010000007890100001000000868487100013050500000000000000000201511130002001JAIME PIEROS                                    D000000005500000000000000000000000100010010000000000000000000000F0010000007890100120151113000101 00000000000000000000000000000000000000000000000000000000000000000000000000000000000000000000000000000000000000000N 00000000000NCONT   00    00000000000          00000000000000000000000000000000000000000000 000000000000000A000000000000000000000000000000000000000000000 000000000000000000000000000000000000000     00000000                                                                                                                        000000000000000000
F0010000007890100002000000868487100041450500000000000000000201511130002001JAIME PIEROS                                    C000000004540000000000000000000000100010010000000000000000000000F0010000007890100220151113000101 00000000000000000000000000000000000000000000000000000000000000000000000000000000000000000000000000000000000000000N 00000000000NCONT   00    00000000000          00000000000000000000000000000000000000000000 000000000000000A000000000000000000000000000000000000000000000 000000000000000000000000000000000000000     00000000                                                                                                                        000000000000000000
F0010000007890100003000000868487100042505000000000000000000201511130002001JAIME PIEROS                                    C000000000960000000000000000000000100010010000000000000000000000F0010000007890100320151113000101 00000000000000000000000000000000000000000000000000000000000000000000000000000000000000000000000000000000000000000N 00000000000NCONT   00    00000000000          00000000000000000000000000000000000000000000 000000000000000A000000000000000000000000000000000000000000000 000000000000000000000000000000000000000     00000000                                                                                                                        000000000000000000
F0010000007890100004000000868487100023658300000000000000000201511130002001JAIME PIEROS                                    C000000000036300000000000000000000100010010000000000000000000000F0010000007890100420151113000101 00000000000000000000000000000000000000000000000000000000000000000000000000000000000000000000000000000000000000000N 00000000000NCONT   00    00000000000          00000000000000000000000000000000000000000000 000000000000000A000000000000000000000000000000000000000000000 000000000000000000000000000000000000000     00000000                                                                                                                        000000000000000000
F0010000007890100005000000868487100013552100000000000000000201511130002001JAIME PIEROS                                    D000000000036300000000000000000000100010010000000000000000000000F0010000007890100520151113000101 00000000000000000000000000000000000000000000000000000000000000000000000000000000000000000000000000000000000000000N 00000000000NCONT   00    00000000000          00000000000000000000000000000000000000000000 000000000000000A000000000000000000000000000000000000000000000 000000000000000000000000000000000000000     00000000                                                                                                                        000000000000000000
F0010000007890200001000089011078600013050500000000000000000201511130002001DIST. NUEVO MUNDO S.A.S.                          D000000017533900000000000000000000100010010000000000000000000000F0010000007890200120151113000101 00000000000000000000000000000000000000000000000000000000000000000000000000000000000000000000000000000000000000000N 00000000000NCONT   00    00000000000          00000000000000000000000000000000000000000000 000000000000000A000000000000000000000000000000000000000000000 000000000000000000000000000000000000000     00000000                                                                                                                        000000000000000000
F0010000007890200002000089011078600041450500000000000000000201511130002001DIST. NUEVO MUNDO S.A.S.                          C000000016020000000000000000000000100010010000000000000000000000F0010000007890200220151113000101 00000000000000000000000000000000000000000000000000000000000000000000000000000000000000000000000000000000000000000N 00000000000NCONT   00    00000000000          00000000000000000000000000000000000000000000 000000000000000A000000000000000000000000000000000000000000000 000000000000000000000000000000000000000     00000000                                                                                                                        000000000000000000
F0010000007890200003000089011078600042505000000000000000000201511130002001DIST. NUEVO MUNDO S.A.S.                          C000000001513900000000000000000000100010010000000000000000000000F0010000007890200320151113000101 00000000000000000000000000000000000000000000000000000000000000000000000000000000000000000000000000000000000000000N 00000000000NCONT   00    00000000000          00000000000000000000000000000000000000000000 000000000000000A000000000000000000000000000000000000000000000 000000000000000000000000000000000000000     00000000                                                                                                                        000000000000000000
F0010000007890200004000089011078600023658300000000000000000201511130002001DIST. NUEVO MUNDO S.A.S.                          C000000000128200000000000000000000100010010000000000000000000000F0010000007890200420151113000101 00000000000000000000000000000000000000000000000000000000000000000000000000000000000000000000000000000000000000000N 00000000000NCONT   00    00000000000          00000000000000000000000000000000000000000000 000000000000000A000000000000000000000000000000000000000000000 000000000000000000000000000000000000000     00000000                                                                                                                        000000000000000000
F0010000007890200005000089011078600013552100000000000000000201511130002001DIST. NUEVO MUNDO S.A.S.                          D000000000128200000000000000000000100010010000000000000000000000F0010000007890200520151113000101 00000000000000000000000000000000000000000000000000000000000000000000000000000000000000000000000000000000000000000N 00000000000NCONT   00    00000000000          00000000000000000000000000000000000000000000 000000000000000A000000000000000000000000000000000000000000000 000000000000000000000000000000000000000     00000000                                                                                                                        000000000000000000
F0010000007890300001000080001063400013050500000000000000000201511130002001PRODUCTOS JULIAO SAS                              D000000059721400000000000000000000100010010000000000000000000000F0010000007890300120151113000101 00000000000000000000000000000000000000000000000000000000000000000000000000000000000000000000000000000000000000000N 00000000000NCONT   00    00000000000          00000000000000000000000000000000000000000000 000000000000000A000000000000000000000000000000000000000000000 000000000000000000000000000000000000000     00000000                                                                                                                        000000000000000000
F0010000007890300002000080001063400041450500000000000000000201511130002001PRODUCTOS JULIAO SAS                              C000000056560000000000000000000000100010010000000000000000000000F0010000007890300220151113000101 00000000000000000000000000000000000000000000000000000000000000000000000000000000000000000000000000000000000000000N 00000000000NCONT   00    00000000000          00000000000000000000000000000000000000000000 000000000000000A000000000000000000000000000000000000000000000 000000000000000000000000000000000000000     00000000                                                                                                                        000000000000000000
F0010000007890300003000080001063400042505000000000000000000201511130002001PRODUCTOS JULIAO SAS                              C000000003161400000000000000000000100010010000000000000000000000F0010000007890300320151113000101 00000000000000000000000000000000000000000000000000000000000000000000000000000000000000000000000000000000000000000N 00000000000NCONT   00    00000000000          00000000000000000000000000000000000000000000 000000000000000A000000000000000000000000000000000000000000000 000000000000000000000000000000000000000     00000000                                                                                                                        000000000000000000
F0010000007890300004000080001063400023658300000000000000000201511130002001PRODUCTOS JULIAO SAS                              C000000000452500000000000000000000100010010000000000000000000000F0010000007890300420151113000101 00000000000000000000000000000000000000000000000000000000000000000000000000000000000000000000000000000000000000000N 00000000000NCONT   00    00000000000          00000000000000000000000000000000000000000000 000000000000000A000000000000000000000000000000000000000000000 000000000000000000000000000000000000000     00000000                                                                                                                        000000000000000000
F0010000007890300005000080001063400013552100000000000000000201511130002001PRODUCTOS JULIAO SAS                              D000000000452500000000000000000000100010010000000000000000000000F0010000007890300520151113000101 00000000000000000000000000000000000000000000000000000000000000000000000000000000000000000000000000000000000000000N 00000000000NCONT   00    00000000000          00000000000000000000000000000000000000000000 000000000000000A000000000000000000000000000000000000000000000 000000000000000000000000000000000000000     00000000                                                                                                                        000000000000000000
F0010000007890400001000090010880700013050500000000000000000201511130002001PROELECTRICAS DE BARRANQUILLA LTDA                D000000005190000000000000000000000100010010000000000000000000000F0010000007890400120151113000101 00000000000000000000000000000000000000000000000000000000000000000000000000000000000000000000000000000000000000000N 00000000000NCONT   00    00000000000          00000000000000000000000000000000000000000000 000000000000000A000000000000000000000000000000000000000000000 000000000000000000000000000000000000000     00000000                                                                                                                        000000000000000000
F0010000007890400002000090010880700041450500000000000000000201511130002001PROELECTRICAS DE BARRANQUILLA LTDA                C000000004840000000000000000000000100010010000000000000000000000F0010000007890400220151113000101 00000000000000000000000000000000000000000000000000000000000000000000000000000000000000000000000000000000000000000N 00000000000NCONT   00    00000000000          00000000000000000000000000000000000000000000 000000000000000A000000000000000000000000000000000000000000000 000000000000000000000000000000000000000     00000000                                                                                                                        000000000000000000
F0010000007890400003000090010880700042505000000000000000000201511130002001PROELECTRICAS DE BARRANQUILLA LTDA                C000000000350000000000000000000000100010010000000000000000000000F0010000007890400320151113000101 00000000000000000000000000000000000000000000000000000000000000000000000000000000000000000000000000000000000000000N 00000000000NCONT   00    00000000000          00000000000000000000000000000000000000000000 000000000000000A000000000000000000000000000000000000000000000 000000000000000000000000000000000000000     00000000                                                                                                                        000000000000000000
F0010000007890400004000090010880700023658300000000000000000201511130002001PROELECTRICAS DE BARRANQUILLA LTDA                C000000000038700000000000000000000100010010000000000000000000000F0010000007890400420151113000101 00000000000000000000000000000000000000000000000000000000000000000000000000000000000000000000000000000000000000000N 00000000000NCONT   00    00000000000          00000000000000000000000000000000000000000000 000000000000000A000000000000000000000000000000000000000000000 000000000000000000000000000000000000000     00000000                                                                                                                        000000000000000000
F0010000007890400005000090010880700013552100000000000000000201511130002001PROELECTRICAS DE BARRANQUILLA LTDA                D000000000038700000000000000000000100010010000000000000000000000F0010000007890400520151113000101 00000000000000000000000000000000000000000000000000000000000000000000000000000000000000000000000000000000000000000N 00000000000NCONT   00    00000000000          00000000000000000000000000000000000000000000 000000000000000A000000000000000000000000000000000000000000000 000000000000000000000000000000000000000     00000000                                                                                                                        000000000000000000
F0010000007890500001000081102758700013050500000000000000000201511130002001C.I. ABRACOL S.A EMA                              D000000101609500000000000000000000100010010000000000000000000000F0010000007890500120151113000101 00000000000000000000000000000000000000000000000000000000000000000000000000000000000000000000000000000000000000000N 00000000000NCONT   00    00000000000          00000000000000000000000000000000000000000000 000000000000000A000000000000000000000000000000000000000000000 000000000000000000000000000000000000000     00000000                                                                                                                        000000000000000000
F0010000007890500002000081102758700041450500000000000000000201511130002001C.I. ABRACOL S.A EMA                              C000000060735000000000000000000000100010010000000000000000000000F0010000007890500220151113000101 00000000000000000000000000000000000000000000000000000000000000000000000000000000000000000000000000000000000000000N 00000000000NCONT   00    00000000000          00000000000000000000000000000000000000000000 000000000000000A000000000000000000000000000000000000000000000 000000000000000000000000000000000000000     00000000                                                                                                                        000000000000000000
F0010000007890500003000081102758700041750100000000000000000201511130002001C.I. ABRACOL S.A EMA                              D000000001786500000000000000000000100010010000000000000000000000F0010000007890500320151113000101 00000000000000000000000000000000000000000000000000000000000000000000000000000000000000000000000000000000000000000N 00000000000NCONT   00    00000000000          00000000000000000000000000000000000000000000 000000000000000A000000000000000000000000000000000000000000000 000000000000000000000000000000000000000     00000000                                                                                                                        000000000000000000
F0010000007890500004000081102758700042505000000000000000000201511130002001C.I. ABRACOL S.A EMA                              C000000042661000000000000000000000100010010000000000000000000000F0010000007890500420151113000101 00000000000000000000000000000000000000000000000000000000000000000000000000000000000000000000000000000000000000000N 00000000000NCONT   00    00000000000          00000000000000000000000000000000000000000000 000000000000000A000000000000000000000000000000000000000000000 000000000000000000000000000000000000000     00000000                                                                                                                        000000000000000000
F0010000007890500005000081102758700023658300000000000000000201511130002001C.I. ABRACOL S.A EMA                              C000000000485900000000000000000000100010010000000000000000000000F0010000007890500520151113000101 00000000000000000000000000000000000000000000000000000000000000000000000000000000000000000000000000000000000000000N 00000000000NCONT   00    00000000000          00000000000000000000000000000000000000000000 000000000000000A000000000000000000000000000000000000000000000 000000000000000000000000000000000000000     00000000                                                                                                                        000000000000000000
F0010000007890500006000081102758700013552100000000000000000201511130002001C.I. ABRACOL S.A EMA                              D000000000485900000000000000000000100010010000000000000000000000F0010000007890500620151113000101 00000000000000000000000000000000000000000000000000000000000000000000000000000000000000000000000000000000000000000N 00000000000NCONT   00    00000000000          00000000000000000000000000000000000000000000 000000000000000A000000000000000000000000000000000000000000000 000000000000000000000000000000000000000     00000000                                                                                                                        000000000000000000
F0010000007890600001000003207718300011050500000000000000000201511130002001MARIA GILMA  RAMIREZ GARCIA                       D000000004300000000000000000000000100010010000000000000000000000F0010000007890600120151113000101 00000000000000000000000000000000000000000000000000000000000000000000000000000000000000000000000000000000000000000N 00000000000NCONT   00    00000000000          00000000000000000000000000000000000000000000 000000000000000A000000000000000000000000000000000000000000000 000000000000000000000000000000000000000     00000000                                                                                                                        000000000000000000
F0010000007890600002000003207718300041450500000000000000000201511130002001MARIA GILMA  RAMIREZ GARCIA                       C000000003600000000000000000000000100010010000000000000000000000F0010000007890600220151113000101 00000000000000000000000000000000000000000000000000000000000000000000000000000000000000000000000000000000000000000N 00000000000NCONT   00    00000000000          00000000000000000000000000000000000000000000 000000000000000A000000000000000000000000000000000000000000000 000000000000000000000000000000000000000     00000000                                                                                                                        000000000000000000
F0010000007890600003000003207718300042505000000000000000000201511130002001MARIA GILMA  RAMIREZ GARCIA                       C000000000700000000000000000000000100010010000000000000000000000F0010000007890600320151113000101 00000000000000000000000000000000000000000000000000000000000000000000000000000000000000000000000000000000000000000N 00000000000NCONT   00    00000000000          00000000000000000000000000000000000000000000 000000000000000A000000000000000000000000000000000000000000000 000000000000000000000000000000000000000     00000000                                                                                                                        000000000000000000
F0010000007890600004000003207718300023658300000000000000000201511130002001MARIA GILMA  RAMIREZ GARCIA                       C000000000028800000000000000000000100010010000000000000000000000F0010000007890600420151113000101 00000000000000000000000000000000000000000000000000000000000000000000000000000000000000000000000000000000000000000N 00000000000NCONT   00    00000000000          00000000000000000000000000000000000000000000 000000000000000A000000000000000000000000000000000000000000000 000000000000000000000000000000000000000     00000000                                                                                                                        000000000000000000
F0010000007890600005000003207718300013552100000000000000000201511130002001MARIA GILMA  RAMIREZ GARCIA                       D000000000028800000000000000000000100010010000000000000000000000F0010000007890600520151113000101 00000000000000000000000000000000000000000000000000000000000000000000000000000000000000000000000000000000000000000N 00000000000NCONT   00    00000000000          00000000000000000000000000000000000000000000 000000000000000A000000000000000000000000000000000000000000000 000000000000000000000000000000000000000     00000000                                                                                                                        000000000000000000
F0010000007890700001000080200819200011050500000000000000000201511130002001TAURO PAPELERIA                                   D000000002000000000000000000000000100010010000000000000000000000F0010000007890700120151113000101 00000000000000000000000000000000000000000000000000000000000000000000000000000000000000000000000000000000000000000N 00000000000NCONT   00    00000000000          00000000000000000000000000000000000000000000 000000000000000A000000000000000000000000000000000000000000000 000000000000000000000000000000000000000     00000000                                                                                                                        000000000000000000
F0010000007890700002000080200819200041450500000000000000000201511130002001TAURO PAPELERIA                                   C000000001800000000000000000000000100010010000000000000000000000F0010000007890700220151113000101 00000000000000000000000000000000000000000000000000000000000000000000000000000000000000000000000000000000000000000N 00000000000NCONT   00    00000000000          00000000000000000000000000000000000000000000 000000000000000A000000000000000000000000000000000000000000000 000000000000000000000000000000000000000     00000000                                                                                                                        000000000000000000
F0010000007890700003000080200819200042505000000000000000000201511130002001TAURO PAPELERIA                                   C000000000200000000000000000000000100010010000000000000000000000F0010000007890700320151113000101 00000000000000000000000000000000000000000000000000000000000000000000000000000000000000000000000000000000000000000N 00000000000NCONT   00    00000000000          00000000000000000000000000000000000000000000 000000000000000A000000000000000000000000000000000000000000000 000000000000000000000000000000000000000     00000000                                                                                                                        000000000000000000
F0010000007890700004000080200819200023658300000000000000000201511130002001TAURO PAPELERIA                                   C000000000014400000000000000000000100010010000000000000000000000F0010000007890700420151113000101 00000000000000000000000000000000000000000000000000000000000000000000000000000000000000000000000000000000000000000N 00000000000NCONT   00    00000000000          00000000000000000000000000000000000000000000 000000000000000A000000000000000000000000000000000000000000000 000000000000000000000000000000000000000     00000000                                                                                                                        000000000000000000
F0010000007890700005000080200819200013552100000000000000000201511130002001TAURO PAPELERIA                                   D000000000014400000000000000000000100010010000000000000000000000F0010000007890700520151113000101 00000000000000000000000000000000000000000000000000000000000000000000000000000000000000000000000000000000000000000N 00000000000NCONT   00    00000000000          00000000000000000000000000000000000000000000 000000000000000A000000000000000000000000000000000000000000000 000000000000000000000000000000000000000     00000000                                                                                                                        000000000000000000
F0010000007890800001000089011492400013050500000000000000000201511130002001AGE. CAUCHO SOL DE LA COSTA  SAS                  D000000134462700000000000000000000100010010000000000000000000000F0010000007890800120151113000101 00000000000000000000000000000000000000000000000000000000000000000000000000000000000000000000000000000000000000000N 00000000000NCONT   00    00000000000          00000000000000000000000000000000000000000000 000000000000000A000000000000000000000000000000000000000000000 000000000000000000000000000000000000000     00000000                                                                                                                        000000000000000000
F0010000007890800002000089011492400041450500000000000000000201511130002001AGE. CAUCHO SOL DE LA COSTA  SAS                  C000000070640000000000000000000000100010010000000000000000000000F0010000007890800220151113000101 00000000000000000000000000000000000000000000000000000000000000000000000000000000000000000000000000000000000000000N 00000000000NCONT   00    00000000000          00000000000000000000000000000000000000000000 000000000000000A000000000000000000000000000000000000000000000 000000000000000000000000000000000000000     00000000                                                                                                                        000000000000000000
F0010000007890800003000089011492400042505000000000000000000201511130002001AGE. CAUCHO SOL DE LA COSTA  SAS                  C000000063822700000000000000000000100010010000000000000000000000F0010000007890800320151113000101 00000000000000000000000000000000000000000000000000000000000000000000000000000000000000000000000000000000000000000N 00000000000NCONT   00    00000000000          00000000000000000000000000000000000000000000 000000000000000A000000000000000000000000000000000000000000000 000000000000000000000000000000000000000     00000000                                                                                                                        000000000000000000
F0010000007890800004000089011492400023658300000000000000000201511130002001AGE. CAUCHO SOL DE LA COSTA  SAS                  C000000000565100000000000000000000100010010000000000000000000000F0010000007890800420151113000101 00000000000000000000000000000000000000000000000000000000000000000000000000000000000000000000000000000000000000000N 00000000000NCONT   00    00000000000          00000000000000000000000000000000000000000000 000000000000000A000000000000000000000000000000000000000000000 000000000000000000000000000000000000000     00000000                                                                                                                        000000000000000000
F0010000007890800005000089011492400013552100000000000000000201511130002001AGE. CAUCHO SOL DE LA COSTA  SAS                  D000000000565100000000000000000000100010010000000000000000000000F0010000007890800520151113000101 00000000000000000000000000000000000000000000000000000000000000000000000000000000000000000000000000000000000000000N 00000000000NCONT   00    00000000000          00000000000000000000000000000000000000000000 000000000000000A000000000000000000000000000000000000000000000 000000000000000000000000000000000000000     00000000                                                                                                                        000000000000000000
F0010000007890900001000080201112800013050500000000000000000201511130002001CANGURO INTERNATIONAL S.A.                        D000000078535200000000000000000000100010010000000000000000000000F0010000007890900120151113000101 00000000000000000000000000000000000000000000000000000000000000000000000000000000000000000000000000000000000000000N 00000000000NCONT   00    00000000000          00000000000000000000000000000000000000000000 000000000000000A000000000000000000000000000000000000000000000 000000000000000000000000000000000000000     00000000                                                                                                                        000000000000000000
F0010000007890900002000080201112800041450500000000000000000201511130002001CANGURO INTERNATIONAL S.A.                        C000000078535200000000000000000000100010010000000000000000000000F0010000007890900220151113000101 00000000000000000000000000000000000000000000000000000000000000000000000000000000000000000000000000000000000000000N 00000000000NCONT   00    00000000000          00000000000000000000000000000000000000000000 000000000000000A000000000000000000000000000000000000000000000 000000000000000000000000000000000000000     00000000                                                                                                                        000000000000000000
F0010000007890900003000080201112800042505000000000000000000201511130002001CANGURO INTERNATIONAL S.A.                        C000000000000000000000000000000000100010010000000000000000000000F0010000007890900320151113000101 00000000000000000000000000000000000000000000000000000000000000000000000000000000000000000000000000000000000000000N 00000000000NCONT   00    00000000000          00000000000000000000000000000000000000000000 000000000000000A000000000000000000000000000000000000000000000 000000000000000000000000000000000000000     00000000                                                                                                                        000000000000000000
F0010000007890900004000080201112800023658300000000000000000201511130002001CANGURO INTERNATIONAL S.A.                        C000000000628300000000000000000000100010010000000000000000000000F0010000007890900420151113000101 00000000000000000000000000000000000000000000000000000000000000000000000000000000000000000000000000000000000000000N 00000000000NCONT   00    00000000000          00000000000000000000000000000000000000000000 000000000000000A000000000000000000000000000000000000000000000 000000000000000000000000000000000000000     00000000                                                                                                                        000000000000000000
F0010000007890900005000080201112800013552100000000000000000201511130002001CANGURO INTERNATIONAL S.A.                        D000000000628300000000000000000000100010010000000000000000000000F0010000007890900520151113000101 00000000000000000000000000000000000000000000000000000000000000000000000000000000000000000000000000000000000000000N 00000000000NCONT   00    00000000000          00000000000000000000000000000000000000000000 000000000000000A000000000000000000000000000000000000000000000 000000000000000000000000000000000000000     00000000                                                                                                                        000000000000000000
F0010000007891000001000080200069100013050500000000000000000201511130002001PEGANTES Y PINTURAS ATLAS LTDA                    D000000016889600000000000000000000100010010000000000000000000000F0010000007891000120151113000101 00000000000000000000000000000000000000000000000000000000000000000000000000000000000000000000000000000000000000000N 00000000000NCONT   00    00000000000          00000000000000000000000000000000000000000000 000000000000000A000000000000000000000000000000000000000000000 000000000000000000000000000000000000000     00000000                                                                                                                        000000000000000000
F0010000007891000002000080200069100041450500000000000000000201511130002001PEGANTES Y PINTURAS ATLAS LTDA                    C000000014500000000000000000000000100010010000000000000000000000F0010000007891000220151113000101 00000000000000000000000000000000000000000000000000000000000000000000000000000000000000000000000000000000000000000N 00000000000NCONT   00    00000000000          00000000000000000000000000000000000000000000 000000000000000A000000000000000000000000000000000000000000000 000000000000000000000000000000000000000     00000000                                                                                                                        000000000000000000
F0010000007891000003000080200069100042505000000000000000000201511130002001PEGANTES Y PINTURAS ATLAS LTDA                    C000000002389600000000000000000000100010010000000000000000000000F0010000007891000320151113000101 00000000000000000000000000000000000000000000000000000000000000000000000000000000000000000000000000000000000000000N 00000000000NCONT   00    00000000000          00000000000000000000000000000000000000000000 000000000000000A000000000000000000000000000000000000000000000 000000000000000000000000000000000000000     00000000                                                                                                                        000000000000000000
F0010000007891000004000080200069100023658300000000000000000201511130002001PEGANTES Y PINTURAS ATLAS LTDA                    C000000000116000000000000000000000100010010000000000000000000000F0010000007891000420151113000101 00000000000000000000000000000000000000000000000000000000000000000000000000000000000000000000000000000000000000000N 00000000000NCONT   00    00000000000          00000000000000000000000000000000000000000000 000000000000000A000000000000000000000000000000000000000000000 000000000000000000000000000000000000000     00000000                                                                                                                        000000000000000000
