F0010000006675500001000002245670100011050500000000000000000201412310002001YOLANDA  TOBON                                    D000000001900000000000000000000000100010010000000000000000000000F0010000006675500120141231000101 00000000000000000000000000000000000000000000000000000000000000000000000000000000000000000000000000000000000000000N 00000000000NCONT   00    00000000000          00000000000000000000000000000000000000000000 000000000000000A000000000000000000000000000000000000000000000 000000000000000000000000000000000000000     00000000                                                                                                                        000000000000000000
F0010000006675500002000002245670100041450500000000000000000201412310002001YOLANDA  TOBON                                    C000000001700000000000000000000000100010010000000000000000000000F0010000006675500220141231000101 00000000000000000000000000000000000000000000000000000000000000000000000000000000000000000000000000000000000000000N 00000000000NCONT   00    00000000000          00000000000000000000000000000000000000000000 000000000000000A000000000000000000000000000000000000000000000 000000000000000000000000000000000000000     00000000                                                                                                                        000000000000000000
F0010000006675500003000002245670100042505000000000000000000201412310002001YOLANDA  TOBON                                    C000000000200000000000000000000000100010010000000000000000000000F0010000006675500320141231000101 00000000000000000000000000000000000000000000000000000000000000000000000000000000000000000000000000000000000000000N 00000000000NCONT   00    00000000000          00000000000000000000000000000000000000000000 000000000000000A000000000000000000000000000000000000000000000 000000000000000000000000000000000000000     00000000                                                                                                                        000000000000000000
F0010000006675500004000002245670100023658300000000000000000201412310002001YOLANDA  TOBON                                    C000000000013600000000000000000000100010010000000000000000000000F0010000006675500420141231000101 00000000000000000000000000000000000000000000000000000000000000000000000000000000000000000000000000000000000000000N 00000000000NCONT   00    00000000000          00000000000000000000000000000000000000000000 000000000000000A000000000000000000000000000000000000000000000 000000000000000000000000000000000000000     00000000                                                                                                                        000000000000000000
F0010000006675500005000002245670100013552100000000000000000201412310002001YOLANDA  TOBON                                    D000000000013600000000000000000000100010010000000000000000000000F0010000006675500520141231000101 00000000000000000000000000000000000000000000000000000000000000000000000000000000000000000000000000000000000000000N 00000000000NCONT   00    00000000000          00000000000000000000000000000000000000000000 000000000000000A000000000000000000000000000000000000000000000 000000000000000000000000000000000000000     00000000                                                                                                                        000000000000000000
F0010000006675600001000004420619000011050500000000000000000201412310002001YOVANA GARCIA                                     D000000001400000000000000000000000100010010000000000000000000000F0010000006675600120141231000101 00000000000000000000000000000000000000000000000000000000000000000000000000000000000000000000000000000000000000000N 00000000000NCONT   00    00000000000          00000000000000000000000000000000000000000000 000000000000000A000000000000000000000000000000000000000000000 000000000000000000000000000000000000000     00000000                                                                                                                        000000000000000000
F0010000006675600002000004420619000041450500000000000000000201412310002001YOVANA GARCIA                                     C000000001200000000000000000000000100010010000000000000000000000F0010000006675600220141231000101 00000000000000000000000000000000000000000000000000000000000000000000000000000000000000000000000000000000000000000N 00000000000NCONT   00    00000000000          00000000000000000000000000000000000000000000 000000000000000A000000000000000000000000000000000000000000000 000000000000000000000000000000000000000     00000000                                                                                                                        000000000000000000
F0010000006675600003000004420619000042505000000000000000000201412310002001YOVANA GARCIA                                     C000000000200000000000000000000000100010010000000000000000000000F0010000006675600320141231000101 00000000000000000000000000000000000000000000000000000000000000000000000000000000000000000000000000000000000000000N 00000000000NCONT   00    00000000000          00000000000000000000000000000000000000000000 000000000000000A000000000000000000000000000000000000000000000 000000000000000000000000000000000000000     00000000                                                                                                                        000000000000000000
F0010000006675600004000004420619000023658300000000000000000201412310002001YOVANA GARCIA                                     C000000000009600000000000000000000100010010000000000000000000000F0010000006675600420141231000101 00000000000000000000000000000000000000000000000000000000000000000000000000000000000000000000000000000000000000000N 00000000000NCONT   00    00000000000          00000000000000000000000000000000000000000000 000000000000000A000000000000000000000000000000000000000000000 000000000000000000000000000000000000000     00000000                                                                                                                        000000000000000000
F0010000006675600005000004420619000013552100000000000000000201412310002001YOVANA GARCIA                                     D000000000009600000000000000000000100010010000000000000000000000F0010000006675600520141231000101 00000000000000000000000000000000000000000000000000000000000000000000000000000000000000000000000000000000000000000N 00000000000NCONT   00    00000000000          00000000000000000000000000000000000000000000 000000000000000A000000000000000000000000000000000000000000000 000000000000000000000000000000000000000     00000000                                                                                                                        000000000000000000
F0010000006675700001000004420619000011050500000000000000000201412310002001YOVANA GARCIA                                     D000000001400000000000000000000000100010010000000000000000000000F0010000006675700120141231000101 00000000000000000000000000000000000000000000000000000000000000000000000000000000000000000000000000000000000000000N 00000000000NCONT   00    00000000000          00000000000000000000000000000000000000000000 000000000000000A000000000000000000000000000000000000000000000 000000000000000000000000000000000000000     00000000                                                                                                                        000000000000000000
F0010000006675700002000004420619000041450500000000000000000201412310002001YOVANA GARCIA                                     C000000001200000000000000000000000100010010000000000000000000000F0010000006675700220141231000101 00000000000000000000000000000000000000000000000000000000000000000000000000000000000000000000000000000000000000000N 00000000000NCONT   00    00000000000          00000000000000000000000000000000000000000000 000000000000000A000000000000000000000000000000000000000000000 000000000000000000000000000000000000000     00000000                                                                                                                        000000000000000000
F0010000006675700003000004420619000042505000000000000000000201412310002001YOVANA GARCIA                                     C000000000200000000000000000000000100010010000000000000000000000F0010000006675700320141231000101 00000000000000000000000000000000000000000000000000000000000000000000000000000000000000000000000000000000000000000N 00000000000NCONT   00    00000000000          00000000000000000000000000000000000000000000 000000000000000A000000000000000000000000000000000000000000000 000000000000000000000000000000000000000     00000000                                                                                                                        000000000000000000
F0010000006675700004000004420619000023658300000000000000000201412310002001YOVANA GARCIA                                     C000000000009600000000000000000000100010010000000000000000000000F0010000006675700420141231000101 00000000000000000000000000000000000000000000000000000000000000000000000000000000000000000000000000000000000000000N 00000000000NCONT   00    00000000000          00000000000000000000000000000000000000000000 000000000000000A000000000000000000000000000000000000000000000 000000000000000000000000000000000000000     00000000                                                                                                                        000000000000000000
F0010000006675700005000004420619000013552100000000000000000201412310002001YOVANA GARCIA                                     D000000000009600000000000000000000100010010000000000000000000000F0010000006675700520141231000101 00000000000000000000000000000000000000000000000000000000000000000000000000000000000000000000000000000000000000000N 00000000000NCONT   00    00000000000          00000000000000000000000000000000000000000000 000000000000000A000000000000000000000000000000000000000000000 000000000000000000000000000000000000000     00000000                                                                                                                        000000000000000000
F0010000006675800001000007213847800011050500000000000000000201412310002001ALEJANDRO MEZA ALVAREZ                            D000000001200000000000000000000000100010010000000000000000000000F0010000006675800120141231000101 00000000000000000000000000000000000000000000000000000000000000000000000000000000000000000000000000000000000000000N 00000000000NCONT   00    00000000000          00000000000000000000000000000000000000000000 000000000000000A000000000000000000000000000000000000000000000 000000000000000000000000000000000000000     00000000                                                                                                                        000000000000000000
F0010000006675800002000007213847800041450500000000000000000201412310002001ALEJANDRO MEZA ALVAREZ                            C000000001150000000000000000000000100010010000000000000000000000F0010000006675800220141231000101 00000000000000000000000000000000000000000000000000000000000000000000000000000000000000000000000000000000000000000N 00000000000NCONT   00    00000000000          00000000000000000000000000000000000000000000 000000000000000A000000000000000000000000000000000000000000000 000000000000000000000000000000000000000     00000000                                                                                                                        000000000000000000
F0010000006675800003000007213847800042505000000000000000000201412310002001ALEJANDRO MEZA ALVAREZ                            C000000000050000000000000000000000100010010000000000000000000000F0010000006675800320141231000101 00000000000000000000000000000000000000000000000000000000000000000000000000000000000000000000000000000000000000000N 00000000000NCONT   00    00000000000          00000000000000000000000000000000000000000000 000000000000000A000000000000000000000000000000000000000000000 000000000000000000000000000000000000000     00000000                                                                                                                        000000000000000000
F0010000006675800004000007213847800023658300000000000000000201412310002001ALEJANDRO MEZA ALVAREZ                            C000000000009200000000000000000000100010010000000000000000000000F0010000006675800420141231000101 00000000000000000000000000000000000000000000000000000000000000000000000000000000000000000000000000000000000000000N 00000000000NCONT   00    00000000000          00000000000000000000000000000000000000000000 000000000000000A000000000000000000000000000000000000000000000 000000000000000000000000000000000000000     00000000                                                                                                                        000000000000000000
F0010000006675800005000007213847800013552100000000000000000201412310002001ALEJANDRO MEZA ALVAREZ                            D000000000009200000000000000000000100010010000000000000000000000F0010000006675800520141231000101 00000000000000000000000000000000000000000000000000000000000000000000000000000000000000000000000000000000000000000N 00000000000NCONT   00    00000000000          00000000000000000000000000000000000000000000 000000000000000A000000000000000000000000000000000000000000000 000000000000000000000000000000000000000     00000000                                                                                                                        000000000000000000
F0010000006675900001000004175790100011050500000000000000000201412310002001ROSIRIS FERIA HOYOS  (COSM. SHILLER)              D000000000850000000000000000000000100010010000000000000000000000F0010000006675900120141231000101 00000000000000000000000000000000000000000000000000000000000000000000000000000000000000000000000000000000000000000N 00000000000NCONT   00    00000000000          00000000000000000000000000000000000000000000 000000000000000A000000000000000000000000000000000000000000000 000000000000000000000000000000000000000     00000000                                                                                                                        000000000000000000
F0010000006675900002000004175790100041450500000000000000000201412310002001ROSIRIS FERIA HOYOS  (COSM. SHILLER)              C000000000750000000000000000000000100010010000000000000000000000F0010000006675900220141231000101 00000000000000000000000000000000000000000000000000000000000000000000000000000000000000000000000000000000000000000N 00000000000NCONT   00    00000000000          00000000000000000000000000000000000000000000 000000000000000A000000000000000000000000000000000000000000000 000000000000000000000000000000000000000     00000000                                                                                                                        000000000000000000
F0010000006675900003000004175790100042505000000000000000000201412310002001ROSIRIS FERIA HOYOS  (COSM. SHILLER)              C000000000100000000000000000000000100010010000000000000000000000F0010000006675900320141231000101 00000000000000000000000000000000000000000000000000000000000000000000000000000000000000000000000000000000000000000N 00000000000NCONT   00    00000000000          00000000000000000000000000000000000000000000 000000000000000A000000000000000000000000000000000000000000000 000000000000000000000000000000000000000     00000000                                                                                                                        000000000000000000
F0010000006675900004000004175790100023658300000000000000000201412310002001ROSIRIS FERIA HOYOS  (COSM. SHILLER)              C000000000006000000000000000000000100010010000000000000000000000F0010000006675900420141231000101 00000000000000000000000000000000000000000000000000000000000000000000000000000000000000000000000000000000000000000N 00000000000NCONT   00    00000000000          00000000000000000000000000000000000000000000 000000000000000A000000000000000000000000000000000000000000000 000000000000000000000000000000000000000     00000000                                                                                                                        000000000000000000
F0010000006675900005000004175790100013552100000000000000000201412310002001ROSIRIS FERIA HOYOS  (COSM. SHILLER)              D000000000006000000000000000000000100010010000000000000000000000F0010000006675900520141231000101 00000000000000000000000000000000000000000000000000000000000000000000000000000000000000000000000000000000000000000N 00000000000NCONT   00    00000000000          00000000000000000000000000000000000000000000 000000000000000A000000000000000000000000000000000000000000000 000000000000000000000000000000000000000     00000000                                                                                                                        000000000000000000
F0010000006676000001000004175790100011050500000000000000000201412310002001ROSIRIS FERIA HOYOS  (COSM. SHILLER)              D000000000900000000000000000000000100010010000000000000000000000F0010000006676000120141231000101 00000000000000000000000000000000000000000000000000000000000000000000000000000000000000000000000000000000000000000N 00000000000NCONT   00    00000000000          00000000000000000000000000000000000000000000 000000000000000A000000000000000000000000000000000000000000000 000000000000000000000000000000000000000     00000000                                                                                                                        000000000000000000
F0010000006676000002000004175790100041450500000000000000000201412310002001ROSIRIS FERIA HOYOS  (COSM. SHILLER)              C000000000800000000000000000000000100010010000000000000000000000F0010000006676000220141231000101 00000000000000000000000000000000000000000000000000000000000000000000000000000000000000000000000000000000000000000N 00000000000NCONT   00    00000000000          00000000000000000000000000000000000000000000 000000000000000A000000000000000000000000000000000000000000000 000000000000000000000000000000000000000     00000000                                                                                                                        000000000000000000
F0010000006676000003000004175790100042505000000000000000000201412310002001ROSIRIS FERIA HOYOS  (COSM. SHILLER)              C000000000100000000000000000000000100010010000000000000000000000F0010000006676000320141231000101 00000000000000000000000000000000000000000000000000000000000000000000000000000000000000000000000000000000000000000N 00000000000NCONT   00    00000000000          00000000000000000000000000000000000000000000 000000000000000A000000000000000000000000000000000000000000000 000000000000000000000000000000000000000     00000000                                                                                                                        000000000000000000
F0010000006676000004000004175790100023658300000000000000000201412310002001ROSIRIS FERIA HOYOS  (COSM. SHILLER)              C000000000006400000000000000000000100010010000000000000000000000F0010000006676000420141231000101 00000000000000000000000000000000000000000000000000000000000000000000000000000000000000000000000000000000000000000N 00000000000NCONT   00    00000000000          00000000000000000000000000000000000000000000 000000000000000A000000000000000000000000000000000000000000000 000000000000000000000000000000000000000     00000000                                                                                                                        000000000000000000
F0010000006676000005000004175790100013552100000000000000000201412310002001ROSIRIS FERIA HOYOS  (COSM. SHILLER)              D000000000006400000000000000000000100010010000000000000000000000F0010000006676000520141231000101 00000000000000000000000000000000000000000000000000000000000000000000000000000000000000000000000000000000000000000N 00000000000NCONT   00    00000000000          00000000000000000000000000000000000000000000 000000000000000A000000000000000000000000000000000000000000000 000000000000000000000000000000000000000     00000000                                                                                                                        000000000000000000
F0010000006676100001000004175790100011050500000000000000000201412310002001ROSIRIS FERIA HOYOS  (COSM. SHILLER)              D000000000900000000000000000000000100010010000000000000000000000F0010000006676100120141231000101 00000000000000000000000000000000000000000000000000000000000000000000000000000000000000000000000000000000000000000N 00000000000NCONT   00    00000000000          00000000000000000000000000000000000000000000 000000000000000A000000000000000000000000000000000000000000000 000000000000000000000000000000000000000     00000000                                                                                                                        000000000000000000
F0010000006676100002000004175790100041450500000000000000000201412310002001ROSIRIS FERIA HOYOS  (COSM. SHILLER)              C000000000800000000000000000000000100010010000000000000000000000F0010000006676100220141231000101 00000000000000000000000000000000000000000000000000000000000000000000000000000000000000000000000000000000000000000N 00000000000NCONT   00    00000000000          00000000000000000000000000000000000000000000 000000000000000A000000000000000000000000000000000000000000000 000000000000000000000000000000000000000     00000000                                                                                                                        000000000000000000
F0010000006676100003000004175790100042505000000000000000000201412310002001ROSIRIS FERIA HOYOS  (COSM. SHILLER)              C000000000100000000000000000000000100010010000000000000000000000F0010000006676100320141231000101 00000000000000000000000000000000000000000000000000000000000000000000000000000000000000000000000000000000000000000N 00000000000NCONT   00    00000000000          00000000000000000000000000000000000000000000 000000000000000A000000000000000000000000000000000000000000000 000000000000000000000000000000000000000     00000000                                                                                                                        000000000000000000
F0010000006676100004000004175790100023658300000000000000000201412310002001ROSIRIS FERIA HOYOS  (COSM. SHILLER)              C000000000006400000000000000000000100010010000000000000000000000F0010000006676100420141231000101 00000000000000000000000000000000000000000000000000000000000000000000000000000000000000000000000000000000000000000N 00000000000NCONT   00    00000000000          00000000000000000000000000000000000000000000 000000000000000A000000000000000000000000000000000000000000000 000000000000000000000000000000000000000     00000000                                                                                                                        000000000000000000
F0010000006676100005000004175790100013552100000000000000000201412310002001ROSIRIS FERIA HOYOS  (COSM. SHILLER)              D000000000006400000000000000000000100010010000000000000000000000F0010000006676100520141231000101 00000000000000000000000000000000000000000000000000000000000000000000000000000000000000000000000000000000000000000N 00000000000NCONT   00    00000000000          00000000000000000000000000000000000000000000 000000000000000A000000000000000000000000000000000000000000000 000000000000000000000000000000000000000     00000000                                                                                                                        000000000000000000
