F0010000010044200001000080201393400011050500000000000000000201704090002001DOMEDICOS DEL NORTE                               D000000005300000000000000000000000100010010000000000000000000000F00100000010044200120170409000101 00000000000000000000000000000000000000000000000000000000000000000000000000000000000000000000000000000000000000000N 00000000000NCONT   00    00000000000          00000000000000000000000000000000000000000000 000000000000000A000000000000000000000000000000000000000000000 000000000000000000000000000000000000000     00000000                                                                                                                        000000000000000000
F00100000010044200002000080201393400041450500000000000000000201704090002001DOMEDICOS DEL NORTE                               C000000004800000000000000000000000100010010000000000000000000000F00100000010044200220170409000101 00000000000000000000000000000000000000000000000000000000000000000000000000000000000000000000000000000000000000000N 00000000000NCONT   00    00000000000          00000000000000000000000000000000000000000000 000000000000000A000000000000000000000000000000000000000000000 000000000000000000000000000000000000000     00000000                                                                                                                        000000000000000000
F00100000010044200003000080201393400042505000000000000000000201704090002001DOMEDICOS DEL NORTE                               C000000000500000000000000000000000100010010000000000000000000000F00100000010044200320170409000101 00000000000000000000000000000000000000000000000000000000000000000000000000000000000000000000000000000000000000000N 00000000000NCONT   00    00000000000          00000000000000000000000000000000000000000000 000000000000000A000000000000000000000000000000000000000000000 000000000000000000000000000000000000000     00000000                                                                                                                        000000000000000000
F00100000010044200004000080201393400023658300000000000000000201704090002001DOMEDICOS DEL NORTE                               C000000000038400000000000000000000100010010000000000000000000000F00100000010044200420170409000101 00000000000000000000000000000000000000000000000000000000000000000000000000000000000000000000000000000000000000000N 00000000000NCONT   00    00000000000          00000000000000000000000000000000000000000000 000000000000000A000000000000000000000000000000000000000000000 000000000000000000000000000000000000000     00000000                                                                                                                        000000000000000000
F00100000010044200005000080201393400013552100000000000000000201704090002001DOMEDICOS DEL NORTE                               D000000000038400000000000000000000100010010000000000000000000000F00100000010044200520170409000101 00000000000000000000000000000000000000000000000000000000000000000000000000000000000000000000000000000000000000000N 00000000000NCONT   00    00000000000          00000000000000000000000000000000000000000000 000000000000000A000000000000000000000000000000000000000000000 000000000000000000000000000000000000000     00000000                                                                                                                        000000000000000000
F0010000010044300001000080100264400011050500000000000000000201704090002001MATERIALES EMO SA                                 D000000047000000000000000000000000100010010000000000000000000000F00100000010044300120170409000101 00000000000000000000000000000000000000000000000000000000000000000000000000000000000000000000000000000000000000000N 00000000000NCONT   00    00000000000          00000000000000000000000000000000000000000000 000000000000000A000000000000000000000000000000000000000000000 000000000000000000000000000000000000000     00000000                                                                                                                        000000000000000000
F00100000010044300002000080100264400041450500000000000000000201704090002001MATERIALES EMO SA                                 C000000046000000000000000000000000100010010000000000000000000000F00100000010044300220170409000101 00000000000000000000000000000000000000000000000000000000000000000000000000000000000000000000000000000000000000000N 00000000000NCONT   00    00000000000          00000000000000000000000000000000000000000000 000000000000000A000000000000000000000000000000000000000000000 000000000000000000000000000000000000000     00000000                                                                                                                        000000000000000000
F00100000010044300003000080100264400042505000000000000000000201704090002001MATERIALES EMO SA                                 C000000001000000000000000000000000100010010000000000000000000000F00100000010044300320170409000101 00000000000000000000000000000000000000000000000000000000000000000000000000000000000000000000000000000000000000000N 00000000000NCONT   00    00000000000          00000000000000000000000000000000000000000000 000000000000000A000000000000000000000000000000000000000000000 000000000000000000000000000000000000000     00000000                                                                                                                        000000000000000000
F00100000010044300004000080100264400023658300000000000000000201704090002001MATERIALES EMO SA                                 C000000000368000000000000000000000100010010000000000000000000000F00100000010044300420170409000101 00000000000000000000000000000000000000000000000000000000000000000000000000000000000000000000000000000000000000000N 00000000000NCONT   00    00000000000          00000000000000000000000000000000000000000000 000000000000000A000000000000000000000000000000000000000000000 000000000000000000000000000000000000000     00000000                                                                                                                        000000000000000000
F00100000010044300005000080100264400013552100000000000000000201704090002001MATERIALES EMO SA                                 D000000000368000000000000000000000100010010000000000000000000000F00100000010044300520170409000101 00000000000000000000000000000000000000000000000000000000000000000000000000000000000000000000000000000000000000000N 00000000000NCONT   00    00000000000          00000000000000000000000000000000000000000000 000000000000000A000000000000000000000000000000000000000000000 000000000000000000000000000000000000000     00000000                                                                                                                        000000000000000000
F0010000010044400001000000372734800011050500000000000000000201704090002001JULIO CESAR CARBO GOMEZ                           D000000034400000000000000000000000100010010000000000000000000000F00100000010044400120170409000101 00000000000000000000000000000000000000000000000000000000000000000000000000000000000000000000000000000000000000000N 00000000000NCONT   00    00000000000          00000000000000000000000000000000000000000000 000000000000000A000000000000000000000000000000000000000000000 000000000000000000000000000000000000000     00000000                                                                                                                        000000000000000000
F00100000010044400002000000372734800041450500000000000000000201704090002001JULIO CESAR CARBO GOMEZ                           C000000032400000000000000000000000100010010000000000000000000000F00100000010044400220170409000101 00000000000000000000000000000000000000000000000000000000000000000000000000000000000000000000000000000000000000000N 00000000000NCONT   00    00000000000          00000000000000000000000000000000000000000000 000000000000000A000000000000000000000000000000000000000000000 000000000000000000000000000000000000000     00000000                                                                                                                        000000000000000000
F00100000010044400003000000372734800042505000000000000000000201704090002001JULIO CESAR CARBO GOMEZ                           C000000002000000000000000000000000100010010000000000000000000000F00100000010044400320170409000101 00000000000000000000000000000000000000000000000000000000000000000000000000000000000000000000000000000000000000000N 00000000000NCONT   00    00000000000          00000000000000000000000000000000000000000000 000000000000000A000000000000000000000000000000000000000000000 000000000000000000000000000000000000000     00000000                                                                                                                        000000000000000000
F00100000010044400004000000372734800023658300000000000000000201704090002001JULIO CESAR CARBO GOMEZ                           C000000000259200000000000000000000100010010000000000000000000000F00100000010044400420170409000101 00000000000000000000000000000000000000000000000000000000000000000000000000000000000000000000000000000000000000000N 00000000000NCONT   00    00000000000          00000000000000000000000000000000000000000000 000000000000000A000000000000000000000000000000000000000000000 000000000000000000000000000000000000000     00000000                                                                                                                        000000000000000000
F00100000010044400005000000372734800013552100000000000000000201704090002001JULIO CESAR CARBO GOMEZ                           D000000000259200000000000000000000100010010000000000000000000000F00100000010044400520170409000101 00000000000000000000000000000000000000000000000000000000000000000000000000000000000000000000000000000000000000000N 00000000000NCONT   00    00000000000          00000000000000000000000000000000000000000000 000000000000000A000000000000000000000000000000000000000000000 000000000000000000000000000000000000000     00000000                                                                                                                        000000000000000000
