F0010000009346200001000000872328300011050500000000000000000201610310002001DISTRIBUCIONES LAO                                D000000003000000000000000000000000100010010000000000000000000000F0019346200120161031000101 00000000000000000000000000000000000000000000000000000000000000000000000000000000000000000000000000000000000000000N 00000000000NCONT   00    00000000000          00000000000000000000000000000000000000000000 000000000000000A000000000000000000000000000000000000000000000 000000000000000000000000000000000000000     00000000                                                                                                                        000000000000000000
F0010000009346200002000000872328300041450500000000000000000201610310002001DISTRIBUCIONES LAO                                C000000002000000000000000000000000100010010000000000000000000000F0019346200220161031000101 00000000000000000000000000000000000000000000000000000000000000000000000000000000000000000000000000000000000000000N 00000000000NCONT   00    00000000000          00000000000000000000000000000000000000000000 000000000000000A000000000000000000000000000000000000000000000 000000000000000000000000000000000000000     00000000                                                                                                                        000000000000000000
F0010000009346200003000000872328300042505000000000000000000201610310002001DISTRIBUCIONES LAO                                C000000001000000000000000000000000100010010000000000000000000000F0019346200320161031000101 00000000000000000000000000000000000000000000000000000000000000000000000000000000000000000000000000000000000000000N 00000000000NCONT   00    00000000000          00000000000000000000000000000000000000000000 000000000000000A000000000000000000000000000000000000000000000 000000000000000000000000000000000000000     00000000                                                                                                                        000000000000000000
F0010000009346200004000000872328300023658300000000000000000201610310002001DISTRIBUCIONES LAO                                C000000000016000000000000000000000100010010000000000000000000000F0019346200420161031000101 00000000000000000000000000000000000000000000000000000000000000000000000000000000000000000000000000000000000000000N 00000000000NCONT   00    00000000000          00000000000000000000000000000000000000000000 000000000000000A000000000000000000000000000000000000000000000 000000000000000000000000000000000000000     00000000                                                                                                                        000000000000000000
F0010000009346200005000000872328300013552100000000000000000201610310002001DISTRIBUCIONES LAO                                D000000000016000000000000000000000100010010000000000000000000000F0019346200520161031000101 00000000000000000000000000000000000000000000000000000000000000000000000000000000000000000000000000000000000000000N 00000000000NCONT   00    00000000000          00000000000000000000000000000000000000000000 000000000000000A000000000000000000000000000000000000000000000 000000000000000000000000000000000000000     00000000                                                                                                                        000000000000000000
F0010000009346300001000000866048200011050500000000000000000201610310002001REGINALDO TURIZO                                  D000000002500000000000000000000000100010010000000000000000000000F0019346300120161031000101 00000000000000000000000000000000000000000000000000000000000000000000000000000000000000000000000000000000000000000N 00000000000NCONT   00    00000000000          00000000000000000000000000000000000000000000 000000000000000A000000000000000000000000000000000000000000000 000000000000000000000000000000000000000     00000000                                                                                                                        000000000000000000
F0010000009346300002000000866048200041450500000000000000000201610310002001REGINALDO TURIZO                                  C000000001500000000000000000000000100010010000000000000000000000F0019346300220161031000101 00000000000000000000000000000000000000000000000000000000000000000000000000000000000000000000000000000000000000000N 00000000000NCONT   00    00000000000          00000000000000000000000000000000000000000000 000000000000000A000000000000000000000000000000000000000000000 000000000000000000000000000000000000000     00000000                                                                                                                        000000000000000000
F0010000009346300003000000866048200042505000000000000000000201610310002001REGINALDO TURIZO                                  C000000001000000000000000000000000100010010000000000000000000000F0019346300320161031000101 00000000000000000000000000000000000000000000000000000000000000000000000000000000000000000000000000000000000000000N 00000000000NCONT   00    00000000000          00000000000000000000000000000000000000000000 000000000000000A000000000000000000000000000000000000000000000 000000000000000000000000000000000000000     00000000                                                                                                                        000000000000000000
F0010000009346300004000000866048200023658300000000000000000201610310002001REGINALDO TURIZO                                  C000000000012000000000000000000000100010010000000000000000000000F0019346300420161031000101 00000000000000000000000000000000000000000000000000000000000000000000000000000000000000000000000000000000000000000N 00000000000NCONT   00    00000000000          00000000000000000000000000000000000000000000 000000000000000A000000000000000000000000000000000000000000000 000000000000000000000000000000000000000     00000000                                                                                                                        000000000000000000
F0010000009346300005000000866048200013552100000000000000000201610310002001REGINALDO TURIZO                                  D000000000012000000000000000000000100010010000000000000000000000F0019346300520161031000101 00000000000000000000000000000000000000000000000000000000000000000000000000000000000000000000000000000000000000000N 00000000000NCONT   00    00000000000          00000000000000000000000000000000000000000000 000000000000000A000000000000000000000000000000000000000000000 000000000000000000000000000000000000000     00000000                                                                                                                        000000000000000000
F0010000009346400001000090087617400011050500000000000000000201610310002001MASTERGLASS PREMIUM GROUP SAS                     D000000003500000000000000000000000100010010000000000000000000000F0019346400120161031000101 00000000000000000000000000000000000000000000000000000000000000000000000000000000000000000000000000000000000000000N 00000000000NCONT   00    00000000000          00000000000000000000000000000000000000000000 000000000000000A000000000000000000000000000000000000000000000 000000000000000000000000000000000000000     00000000                                                                                                                        000000000000000000
F0010000009346400002000090087617400041450500000000000000000201610310002001MASTERGLASS PREMIUM GROUP SAS                     C000000002900000000000000000000000100010010000000000000000000000F0019346400220161031000101 00000000000000000000000000000000000000000000000000000000000000000000000000000000000000000000000000000000000000000N 00000000000NCONT   00    00000000000          00000000000000000000000000000000000000000000 000000000000000A000000000000000000000000000000000000000000000 000000000000000000000000000000000000000     00000000                                                                                                                        000000000000000000
F0010000009346400003000090087617400042505000000000000000000201610310002001MASTERGLASS PREMIUM GROUP SAS                     C000000000600000000000000000000000100010010000000000000000000000F0019346400320161031000101 00000000000000000000000000000000000000000000000000000000000000000000000000000000000000000000000000000000000000000N 00000000000NCONT   00    00000000000          00000000000000000000000000000000000000000000 000000000000000A000000000000000000000000000000000000000000000 000000000000000000000000000000000000000     00000000                                                                                                                        000000000000000000
F0010000009346400004000090087617400023658300000000000000000201610310002001MASTERGLASS PREMIUM GROUP SAS                     C000000000023200000000000000000000100010010000000000000000000000F0019346400420161031000101 00000000000000000000000000000000000000000000000000000000000000000000000000000000000000000000000000000000000000000N 00000000000NCONT   00    00000000000          00000000000000000000000000000000000000000000 000000000000000A000000000000000000000000000000000000000000000 000000000000000000000000000000000000000     00000000                                                                                                                        000000000000000000
F0010000009346400005000090087617400013552100000000000000000201610310002001MASTERGLASS PREMIUM GROUP SAS                     D000000000023200000000000000000000100010010000000000000000000000F0019346400520161031000101 00000000000000000000000000000000000000000000000000000000000000000000000000000000000000000000000000000000000000000N 00000000000NCONT   00    00000000000          00000000000000000000000000000000000000000000 000000000000000A000000000000000000000000000000000000000000000 000000000000000000000000000000000000000     00000000                                                                                                                        000000000000000000
F0010000009346500001000089080078800013050500000000000000000201610310002001SUMATEC S.A.                                      D000000002260200000000000000000000100010010000000000000000000000F0019346500120161031000101 00000000000000000000000000000000000000000000000000000000000000000000000000000000000000000000000000000000000000000N 00000000000NCONT   00    00000000000          00000000000000000000000000000000000000000000 000000000000000A000000000000000000000000000000000000000000000 000000000000000000000000000000000000000     00000000                                                                                                                        000000000000000000
F0010000009346500002000089080078800041450500000000000000000201610310002001SUMATEC S.A.                                      C000000000970000000000000000000000100010010000000000000000000000F0019346500220161031000101 00000000000000000000000000000000000000000000000000000000000000000000000000000000000000000000000000000000000000000N 00000000000NCONT   00    00000000000          00000000000000000000000000000000000000000000 000000000000000A000000000000000000000000000000000000000000000 000000000000000000000000000000000000000     00000000                                                                                                                        000000000000000000
F0010000009346500003000089080078800042505000000000000000000201610310002001SUMATEC S.A.                                      C000000001290200000000000000000000100010010000000000000000000000F0019346500320161031000101 00000000000000000000000000000000000000000000000000000000000000000000000000000000000000000000000000000000000000000N 00000000000NCONT   00    00000000000          00000000000000000000000000000000000000000000 000000000000000A000000000000000000000000000000000000000000000 000000000000000000000000000000000000000     00000000                                                                                                                        000000000000000000
F0010000009346500004000089080078800023658300000000000000000201610310002001SUMATEC S.A.                                      C000000000007800000000000000000000100010010000000000000000000000F0019346500420161031000101 00000000000000000000000000000000000000000000000000000000000000000000000000000000000000000000000000000000000000000N 00000000000NCONT   00    00000000000          00000000000000000000000000000000000000000000 000000000000000A000000000000000000000000000000000000000000000 000000000000000000000000000000000000000     00000000                                                                                                                        000000000000000000
F0010000009346500005000089080078800013552100000000000000000201610310002001SUMATEC S.A.                                      D000000000007800000000000000000000100010010000000000000000000000F0019346500520161031000101 00000000000000000000000000000000000000000000000000000000000000000000000000000000000000000000000000000000000000000N 00000000000NCONT   00    00000000000          00000000000000000000000000000000000000000000 000000000000000A000000000000000000000000000000000000000000000 000000000000000000000000000000000000000     00000000                                                                                                                        000000000000000000
F0010000009346600001000089070997800011050500000000000000000201610310002001CENTRAL DE TORNILLOS                              D000000008520000000000000000000000100010010000000000000000000000F0019346600120161031000101 00000000000000000000000000000000000000000000000000000000000000000000000000000000000000000000000000000000000000000N 00000000000NCONT   00    00000000000          00000000000000000000000000000000000000000000 000000000000000A000000000000000000000000000000000000000000000 000000000000000000000000000000000000000     00000000                                                                                                                        000000000000000000
F0010000009346600002000089070997800041450500000000000000000201610310002001CENTRAL DE TORNILLOS                              C000000007720000000000000000000000100010010000000000000000000000F0019346600220161031000101 00000000000000000000000000000000000000000000000000000000000000000000000000000000000000000000000000000000000000000N 00000000000NCONT   00    00000000000          00000000000000000000000000000000000000000000 000000000000000A000000000000000000000000000000000000000000000 000000000000000000000000000000000000000     00000000                                                                                                                        000000000000000000
F0010000009346600003000089070997800042505000000000000000000201610310002001CENTRAL DE TORNILLOS                              C000000000800000000000000000000000100010010000000000000000000000F0019346600320161031000101 00000000000000000000000000000000000000000000000000000000000000000000000000000000000000000000000000000000000000000N 00000000000NCONT   00    00000000000          00000000000000000000000000000000000000000000 000000000000000A000000000000000000000000000000000000000000000 000000000000000000000000000000000000000     00000000                                                                                                                        000000000000000000
F0010000009346600004000089070997800023658300000000000000000201610310002001CENTRAL DE TORNILLOS                              C000000000061800000000000000000000100010010000000000000000000000F0019346600420161031000101 00000000000000000000000000000000000000000000000000000000000000000000000000000000000000000000000000000000000000000N 00000000000NCONT   00    00000000000          00000000000000000000000000000000000000000000 000000000000000A000000000000000000000000000000000000000000000 000000000000000000000000000000000000000     00000000                                                                                                                        000000000000000000
F0010000009346600005000089070997800013552100000000000000000201610310002001CENTRAL DE TORNILLOS                              D000000000061800000000000000000000100010010000000000000000000000F0019346600520161031000101 00000000000000000000000000000000000000000000000000000000000000000000000000000000000000000000000000000000000000000N 00000000000NCONT   00    00000000000          00000000000000000000000000000000000000000000 000000000000000A000000000000000000000000000000000000000000000 000000000000000000000000000000000000000     00000000                                                                                                                        000000000000000000
F0010000009346700001000090007142100011050500000000000000000201610310002001TODO BELLEZA Y MAX S.A.S                          D000000003370000000000000000000000100010010000000000000000000000F0019346700120161031000101 00000000000000000000000000000000000000000000000000000000000000000000000000000000000000000000000000000000000000000N 00000000000NCONT   00    00000000000          00000000000000000000000000000000000000000000 000000000000000A000000000000000000000000000000000000000000000 000000000000000000000000000000000000000     00000000                                                                                                                        000000000000000000
F0010000009346700002000090007142100041450500000000000000000201610310002001TODO BELLEZA Y MAX S.A.S                          C000000003320000000000000000000000100010010000000000000000000000F0019346700220161031000101 00000000000000000000000000000000000000000000000000000000000000000000000000000000000000000000000000000000000000000N 00000000000NCONT   00    00000000000          00000000000000000000000000000000000000000000 000000000000000A000000000000000000000000000000000000000000000 000000000000000000000000000000000000000     00000000                                                                                                                        000000000000000000
F0010000009346700003000090007142100042505000000000000000000201610310002001TODO BELLEZA Y MAX S.A.S                          C000000000050000000000000000000000100010010000000000000000000000F0019346700320161031000101 00000000000000000000000000000000000000000000000000000000000000000000000000000000000000000000000000000000000000000N 00000000000NCONT   00    00000000000          00000000000000000000000000000000000000000000 000000000000000A000000000000000000000000000000000000000000000 000000000000000000000000000000000000000     00000000                                                                                                                        000000000000000000
F0010000009346700004000090007142100023658300000000000000000201610310002001TODO BELLEZA Y MAX S.A.S                          C000000000026600000000000000000000100010010000000000000000000000F0019346700420161031000101 00000000000000000000000000000000000000000000000000000000000000000000000000000000000000000000000000000000000000000N 00000000000NCONT   00    00000000000          00000000000000000000000000000000000000000000 000000000000000A000000000000000000000000000000000000000000000 000000000000000000000000000000000000000     00000000                                                                                                                        000000000000000000
F0010000009346700005000090007142100013552100000000000000000201610310002001TODO BELLEZA Y MAX S.A.S                          D000000000026600000000000000000000100010010000000000000000000000F0019346700520161031000101 00000000000000000000000000000000000000000000000000000000000000000000000000000000000000000000000000000000000000000N 00000000000NCONT   00    00000000000          00000000000000000000000000000000000000000000 000000000000000A000000000000000000000000000000000000000000000 000000000000000000000000000000000000000     00000000                                                                                                                        000000000000000000
F0010000009346800001000090007142100011050500000000000000000201610310002001TODO BELLEZA Y MAX S.A.S                          D000000003370000000000000000000000100010010000000000000000000000F0019346800120161031000101 00000000000000000000000000000000000000000000000000000000000000000000000000000000000000000000000000000000000000000N 00000000000NCONT   00    00000000000          00000000000000000000000000000000000000000000 000000000000000A000000000000000000000000000000000000000000000 000000000000000000000000000000000000000     00000000                                                                                                                        000000000000000000
F0010000009346800002000090007142100041450500000000000000000201610310002001TODO BELLEZA Y MAX S.A.S                          C000000003320000000000000000000000100010010000000000000000000000F0019346800220161031000101 00000000000000000000000000000000000000000000000000000000000000000000000000000000000000000000000000000000000000000N 00000000000NCONT   00    00000000000          00000000000000000000000000000000000000000000 000000000000000A000000000000000000000000000000000000000000000 000000000000000000000000000000000000000     00000000                                                                                                                        000000000000000000
F0010000009346800003000090007142100042505000000000000000000201610310002001TODO BELLEZA Y MAX S.A.S                          C000000000050000000000000000000000100010010000000000000000000000F0019346800320161031000101 00000000000000000000000000000000000000000000000000000000000000000000000000000000000000000000000000000000000000000N 00000000000NCONT   00    00000000000          00000000000000000000000000000000000000000000 000000000000000A000000000000000000000000000000000000000000000 000000000000000000000000000000000000000     00000000                                                                                                                        000000000000000000
F0010000009346800004000090007142100023658300000000000000000201610310002001TODO BELLEZA Y MAX S.A.S                          C000000000026600000000000000000000100010010000000000000000000000F0019346800420161031000101 00000000000000000000000000000000000000000000000000000000000000000000000000000000000000000000000000000000000000000N 00000000000NCONT   00    00000000000          00000000000000000000000000000000000000000000 000000000000000A000000000000000000000000000000000000000000000 000000000000000000000000000000000000000     00000000                                                                                                                        000000000000000000
F0010000009346800005000090007142100013552100000000000000000201610310002001TODO BELLEZA Y MAX S.A.S                          D000000000026600000000000000000000100010010000000000000000000000F0019346800520161031000101 00000000000000000000000000000000000000000000000000000000000000000000000000000000000000000000000000000000000000000N 00000000000NCONT   00    00000000000          00000000000000000000000000000000000000000000 000000000000000A000000000000000000000000000000000000000000000 000000000000000000000000000000000000000     00000000                                                                                                                        000000000000000000
F0010000009346900001000090029584600011050500000000000000000201610310002001TQM DISTRIBUCIONES SAS                            D000000001700000000000000000000000100010010000000000000000000000F0019346900120161031000101 00000000000000000000000000000000000000000000000000000000000000000000000000000000000000000000000000000000000000000N 00000000000NCONT   00    00000000000          00000000000000000000000000000000000000000000 000000000000000A000000000000000000000000000000000000000000000 000000000000000000000000000000000000000     00000000                                                                                                                        000000000000000000
F0010000009346900002000090029584600041450500000000000000000201610310002001TQM DISTRIBUCIONES SAS                            C000000001300000000000000000000000100010010000000000000000000000F0019346900220161031000101 00000000000000000000000000000000000000000000000000000000000000000000000000000000000000000000000000000000000000000N 00000000000NCONT   00    00000000000          00000000000000000000000000000000000000000000 000000000000000A000000000000000000000000000000000000000000000 000000000000000000000000000000000000000     00000000                                                                                                                        000000000000000000
F0010000009346900003000090029584600042505000000000000000000201610310002001TQM DISTRIBUCIONES SAS                            C000000000400000000000000000000000100010010000000000000000000000F0019346900320161031000101 00000000000000000000000000000000000000000000000000000000000000000000000000000000000000000000000000000000000000000N 00000000000NCONT   00    00000000000          00000000000000000000000000000000000000000000 000000000000000A000000000000000000000000000000000000000000000 000000000000000000000000000000000000000     00000000                                                                                                                        000000000000000000
F0010000009346900004000090029584600023658300000000000000000201610310002001TQM DISTRIBUCIONES SAS                            C000000000010400000000000000000000100010010000000000000000000000F0019346900420161031000101 00000000000000000000000000000000000000000000000000000000000000000000000000000000000000000000000000000000000000000N 00000000000NCONT   00    00000000000          00000000000000000000000000000000000000000000 000000000000000A000000000000000000000000000000000000000000000 000000000000000000000000000000000000000     00000000                                                                                                                        000000000000000000
F0010000009346900005000090029584600013552100000000000000000201610310002001TQM DISTRIBUCIONES SAS                            D000000000010400000000000000000000100010010000000000000000000000F0019346900520161031000101 00000000000000000000000000000000000000000000000000000000000000000000000000000000000000000000000000000000000000000N 00000000000NCONT   00    00000000000          00000000000000000000000000000000000000000000 000000000000000A000000000000000000000000000000000000000000000 000000000000000000000000000000000000000     00000000                                                                                                                        000000000000000000
F0010000009347000001000090029584600011050500000000000000000201610310002001TQM DISTRIBUCIONES SAS                            D000000001700000000000000000000000100010010000000000000000000000F0019347000120161031000101 00000000000000000000000000000000000000000000000000000000000000000000000000000000000000000000000000000000000000000N 00000000000NCONT   00    00000000000          00000000000000000000000000000000000000000000 000000000000000A000000000000000000000000000000000000000000000 000000000000000000000000000000000000000     00000000                                                                                                                        000000000000000000
F0010000009347000002000090029584600041450500000000000000000201610310002001TQM DISTRIBUCIONES SAS                            C000000001300000000000000000000000100010010000000000000000000000F0019347000220161031000101 00000000000000000000000000000000000000000000000000000000000000000000000000000000000000000000000000000000000000000N 00000000000NCONT   00    00000000000          00000000000000000000000000000000000000000000 000000000000000A000000000000000000000000000000000000000000000 000000000000000000000000000000000000000     00000000                                                                                                                        000000000000000000
F0010000009347000003000090029584600042505000000000000000000201610310002001TQM DISTRIBUCIONES SAS                            C000000000400000000000000000000000100010010000000000000000000000F0019347000320161031000101 00000000000000000000000000000000000000000000000000000000000000000000000000000000000000000000000000000000000000000N 00000000000NCONT   00    00000000000          00000000000000000000000000000000000000000000 000000000000000A000000000000000000000000000000000000000000000 000000000000000000000000000000000000000     00000000                                                                                                                        000000000000000000
F0010000009347000004000090029584600023658300000000000000000201610310002001TQM DISTRIBUCIONES SAS                            C000000000010400000000000000000000100010010000000000000000000000F0019347000420161031000101 00000000000000000000000000000000000000000000000000000000000000000000000000000000000000000000000000000000000000000N 00000000000NCONT   00    00000000000          00000000000000000000000000000000000000000000 000000000000000A000000000000000000000000000000000000000000000 000000000000000000000000000000000000000     00000000                                                                                                                        000000000000000000
F0010000009347000005000090029584600013552100000000000000000201610310002001TQM DISTRIBUCIONES SAS                            D000000000010400000000000000000000100010010000000000000000000000F0019347000520161031000101 00000000000000000000000000000000000000000000000000000000000000000000000000000000000000000000000000000000000000000N 00000000000NCONT   00    00000000000          00000000000000000000000000000000000000000000 000000000000000A000000000000000000000000000000000000000000000 000000000000000000000000000000000000000     00000000                                                                                                                        000000000000000000
F0010000009347100001000090007142100011050500000000000000000201610310002001TODO BELLEZA Y MAX S.A.S                          D000000002410000000000000000000000100010010000000000000000000000F0019347100120161031000101 00000000000000000000000000000000000000000000000000000000000000000000000000000000000000000000000000000000000000000N 00000000000NCONT   00    00000000000          00000000000000000000000000000000000000000000 000000000000000A000000000000000000000000000000000000000000000 000000000000000000000000000000000000000     00000000                                                                                                                        000000000000000000
F0010000009347100002000090007142100041450500000000000000000201610310002001TODO BELLEZA Y MAX S.A.S                          C000000001660000000000000000000000100010010000000000000000000000F0019347100220161031000101 00000000000000000000000000000000000000000000000000000000000000000000000000000000000000000000000000000000000000000N 00000000000NCONT   00    00000000000          00000000000000000000000000000000000000000000 000000000000000A000000000000000000000000000000000000000000000 000000000000000000000000000000000000000     00000000                                                                                                                        000000000000000000
F0010000009347100003000090007142100042505000000000000000000201610310002001TODO BELLEZA Y MAX S.A.S                          C000000000750000000000000000000000100010010000000000000000000000F0019347100320161031000101 00000000000000000000000000000000000000000000000000000000000000000000000000000000000000000000000000000000000000000N 00000000000NCONT   00    00000000000          00000000000000000000000000000000000000000000 000000000000000A000000000000000000000000000000000000000000000 000000000000000000000000000000000000000     00000000                                                                                                                        000000000000000000
F0010000009347100004000090007142100023658300000000000000000201610310002001TODO BELLEZA Y MAX S.A.S                          C000000000013300000000000000000000100010010000000000000000000000F0019347100420161031000101 00000000000000000000000000000000000000000000000000000000000000000000000000000000000000000000000000000000000000000N 00000000000NCONT   00    00000000000          00000000000000000000000000000000000000000000 000000000000000A000000000000000000000000000000000000000000000 000000000000000000000000000000000000000     00000000                                                                                                                        000000000000000000
F0010000009347100005000090007142100013552100000000000000000201610310002001TODO BELLEZA Y MAX S.A.S                          D000000000013300000000000000000000100010010000000000000000000000F0019347100520161031000101 00000000000000000000000000000000000000000000000000000000000000000000000000000000000000000000000000000000000000000N 00000000000NCONT   00    00000000000          00000000000000000000000000000000000000000000 000000000000000A000000000000000000000000000000000000000000000 000000000000000000000000000000000000000     00000000                                                                                                                        000000000000000000
F0010000009347200001000005531330700011050500000000000000000201610310002001NOVEDADES OKEY                                    D000000001200000000000000000000000100010010000000000000000000000F0019347200120161031000101 00000000000000000000000000000000000000000000000000000000000000000000000000000000000000000000000000000000000000000N 00000000000NCONT   00    00000000000          00000000000000000000000000000000000000000000 000000000000000A000000000000000000000000000000000000000000000 000000000000000000000000000000000000000     00000000                                                                                                                        000000000000000000
F0010000009347200002000005531330700041450500000000000000000201610310002001NOVEDADES OKEY                                    C000000001000000000000000000000000100010010000000000000000000000F0019347200220161031000101 00000000000000000000000000000000000000000000000000000000000000000000000000000000000000000000000000000000000000000N 00000000000NCONT   00    00000000000          00000000000000000000000000000000000000000000 000000000000000A000000000000000000000000000000000000000000000 000000000000000000000000000000000000000     00000000                                                                                                                        000000000000000000
F0010000009347200003000005531330700042505000000000000000000201610310002001NOVEDADES OKEY                                    C000000000200000000000000000000000100010010000000000000000000000F0019347200320161031000101 00000000000000000000000000000000000000000000000000000000000000000000000000000000000000000000000000000000000000000N 00000000000NCONT   00    00000000000          00000000000000000000000000000000000000000000 000000000000000A000000000000000000000000000000000000000000000 000000000000000000000000000000000000000     00000000                                                                                                                        000000000000000000
F0010000009347200004000005531330700023658300000000000000000201610310002001NOVEDADES OKEY                                    C000000000008000000000000000000000100010010000000000000000000000F0019347200420161031000101 00000000000000000000000000000000000000000000000000000000000000000000000000000000000000000000000000000000000000000N 00000000000NCONT   00    00000000000          00000000000000000000000000000000000000000000 000000000000000A000000000000000000000000000000000000000000000 000000000000000000000000000000000000000     00000000                                                                                                                        000000000000000000
F0010000009347200005000005531330700013552100000000000000000201610310002001NOVEDADES OKEY                                    D000000000008000000000000000000000100010010000000000000000000000F0019347200520161031000101 00000000000000000000000000000000000000000000000000000000000000000000000000000000000000000000000000000000000000000N 00000000000NCONT   00    00000000000          00000000000000000000000000000000000000000000 000000000000000A000000000000000000000000000000000000000000000 000000000000000000000000000000000000000     00000000                                                                                                                        000000000000000000
F0010000009347300001000001502923600011050500000000000000000201610310002001ALCIDES MARTINEZ MARTINEZ                         D000000001150000000000000000000000100010010000000000000000000000F0019347300120161031000101 00000000000000000000000000000000000000000000000000000000000000000000000000000000000000000000000000000000000000000N 00000000000NCONT   00    00000000000          00000000000000000000000000000000000000000000 000000000000000A000000000000000000000000000000000000000000000 000000000000000000000000000000000000000     00000000                                                                                                                        000000000000000000
F0010000009347300002000001502923600041450500000000000000000201610310002001ALCIDES MARTINEZ MARTINEZ                         C000000001000000000000000000000000100010010000000000000000000000F0019347300220161031000101 00000000000000000000000000000000000000000000000000000000000000000000000000000000000000000000000000000000000000000N 00000000000NCONT   00    00000000000          00000000000000000000000000000000000000000000 000000000000000A000000000000000000000000000000000000000000000 000000000000000000000000000000000000000     00000000                                                                                                                        000000000000000000
F0010000009347300003000001502923600042505000000000000000000201610310002001ALCIDES MARTINEZ MARTINEZ                         C000000000150000000000000000000000100010010000000000000000000000F0019347300320161031000101 00000000000000000000000000000000000000000000000000000000000000000000000000000000000000000000000000000000000000000N 00000000000NCONT   00    00000000000          00000000000000000000000000000000000000000000 000000000000000A000000000000000000000000000000000000000000000 000000000000000000000000000000000000000     00000000                                                                                                                        000000000000000000
F0010000009347300004000001502923600023658300000000000000000201610310002001ALCIDES MARTINEZ MARTINEZ                         C000000000008000000000000000000000100010010000000000000000000000F0019347300420161031000101 00000000000000000000000000000000000000000000000000000000000000000000000000000000000000000000000000000000000000000N 00000000000NCONT   00    00000000000          00000000000000000000000000000000000000000000 000000000000000A000000000000000000000000000000000000000000000 000000000000000000000000000000000000000     00000000                                                                                                                        000000000000000000
F0010000009347300005000001502923600013552100000000000000000201610310002001ALCIDES MARTINEZ MARTINEZ                         D000000000008000000000000000000000100010010000000000000000000000F0019347300520161031000101 00000000000000000000000000000000000000000000000000000000000000000000000000000000000000000000000000000000000000000N 00000000000NCONT   00    00000000000          00000000000000000000000000000000000000000000 000000000000000A000000000000000000000000000000000000000000000 000000000000000000000000000000000000000     00000000                                                                                                                        000000000000000000
F0010000009347400001000080200516200011050500000000000000000201610310002001SANTOUR SAS                                       D000000005200000000000000000000000100010010000000000000000000000F0019347400120161031000101 00000000000000000000000000000000000000000000000000000000000000000000000000000000000000000000000000000000000000000N 00000000000NCONT   00    00000000000          00000000000000000000000000000000000000000000 000000000000000A000000000000000000000000000000000000000000000 000000000000000000000000000000000000000     00000000                                                                                                                        000000000000000000
F0010000009347400002000080200516200041450500000000000000000201610310002001SANTOUR SAS                                       C000000004000000000000000000000000100010010000000000000000000000F0019347400220161031000101 00000000000000000000000000000000000000000000000000000000000000000000000000000000000000000000000000000000000000000N 00000000000NCONT   00    00000000000          00000000000000000000000000000000000000000000 000000000000000A000000000000000000000000000000000000000000000 000000000000000000000000000000000000000     00000000                                                                                                                        000000000000000000
F0010000009347400003000080200516200042505000000000000000000201610310002001SANTOUR SAS                                       C000000001200000000000000000000000100010010000000000000000000000F0019347400320161031000101 00000000000000000000000000000000000000000000000000000000000000000000000000000000000000000000000000000000000000000N 00000000000NCONT   00    00000000000          00000000000000000000000000000000000000000000 000000000000000A000000000000000000000000000000000000000000000 000000000000000000000000000000000000000     00000000                                                                                                                        000000000000000000
F0010000009347400004000080200516200023658300000000000000000201610310002001SANTOUR SAS                                       C000000000032000000000000000000000100010010000000000000000000000F0019347400420161031000101 00000000000000000000000000000000000000000000000000000000000000000000000000000000000000000000000000000000000000000N 00000000000NCONT   00    00000000000          00000000000000000000000000000000000000000000 000000000000000A000000000000000000000000000000000000000000000 000000000000000000000000000000000000000     00000000                                                                                                                        000000000000000000
F0010000009347400005000080200516200013552100000000000000000201610310002001SANTOUR SAS                                       D000000000032000000000000000000000100010010000000000000000000000F0019347400520161031000101 00000000000000000000000000000000000000000000000000000000000000000000000000000000000000000000000000000000000000000N 00000000000NCONT   00    00000000000          00000000000000000000000000000000000000000000 000000000000000A000000000000000000000000000000000000000000000 000000000000000000000000000000000000000     00000000                                                                                                                        000000000000000000
F0010000009347500001000000870907300011050500000000000000000201610310002001SURTIDOR FERRETERO                                D000000002430000000000000000000000100010010000000000000000000000F0019347500120161031000101 00000000000000000000000000000000000000000000000000000000000000000000000000000000000000000000000000000000000000000N 00000000000NCONT   00    00000000000          00000000000000000000000000000000000000000000 000000000000000A000000000000000000000000000000000000000000000 000000000000000000000000000000000000000     00000000                                                                                                                        000000000000000000
F0010000009347500002000000870907300041450500000000000000000201610310002001SURTIDOR FERRETERO                                C000000001680000000000000000000000100010010000000000000000000000F0019347500220161031000101 00000000000000000000000000000000000000000000000000000000000000000000000000000000000000000000000000000000000000000N 00000000000NCONT   00    00000000000          00000000000000000000000000000000000000000000 000000000000000A000000000000000000000000000000000000000000000 000000000000000000000000000000000000000     00000000                                                                                                                        000000000000000000
F0010000009347500003000000870907300042505000000000000000000201610310002001SURTIDOR FERRETERO                                C000000000750000000000000000000000100010010000000000000000000000F0019347500320161031000101 00000000000000000000000000000000000000000000000000000000000000000000000000000000000000000000000000000000000000000N 00000000000NCONT   00    00000000000          00000000000000000000000000000000000000000000 000000000000000A000000000000000000000000000000000000000000000 000000000000000000000000000000000000000     00000000                                                                                                                        000000000000000000
F0010000009347500004000000870907300023658300000000000000000201610310002001SURTIDOR FERRETERO                                C000000000013400000000000000000000100010010000000000000000000000F0019347500420161031000101 00000000000000000000000000000000000000000000000000000000000000000000000000000000000000000000000000000000000000000N 00000000000NCONT   00    00000000000          00000000000000000000000000000000000000000000 000000000000000A000000000000000000000000000000000000000000000 000000000000000000000000000000000000000     00000000                                                                                                                        000000000000000000
F0010000009347500005000000870907300013552100000000000000000201610310002001SURTIDOR FERRETERO                                D000000000013400000000000000000000100010010000000000000000000000F0019347500520161031000101 00000000000000000000000000000000000000000000000000000000000000000000000000000000000000000000000000000000000000000N 00000000000NCONT   00    00000000000          00000000000000000000000000000000000000000000 000000000000000A000000000000000000000000000000000000000000000 000000000000000000000000000000000000000     00000000                                                                                                                        000000000000000000
F0010000009347600001000000870907300011050500000000000000000201610310002001SURTIDOR FERRETERO                                D000000002680000000000000000000000100010010000000000000000000000F0019347600120161031000101 00000000000000000000000000000000000000000000000000000000000000000000000000000000000000000000000000000000000000000N 00000000000NCONT   00    00000000000          00000000000000000000000000000000000000000000 000000000000000A000000000000000000000000000000000000000000000 000000000000000000000000000000000000000     00000000                                                                                                                        000000000000000000
F0010000009347600002000000870907300041450500000000000000000201610310002001SURTIDOR FERRETERO                                C000000001680000000000000000000000100010010000000000000000000000F0019347600220161031000101 00000000000000000000000000000000000000000000000000000000000000000000000000000000000000000000000000000000000000000N 00000000000NCONT   00    00000000000          00000000000000000000000000000000000000000000 000000000000000A000000000000000000000000000000000000000000000 000000000000000000000000000000000000000     00000000                                                                                                                        000000000000000000
F0010000009347600003000000870907300042505000000000000000000201610310002001SURTIDOR FERRETERO                                C000000001000000000000000000000000100010010000000000000000000000F0019347600320161031000101 00000000000000000000000000000000000000000000000000000000000000000000000000000000000000000000000000000000000000000N 00000000000NCONT   00    00000000000          00000000000000000000000000000000000000000000 000000000000000A000000000000000000000000000000000000000000000 000000000000000000000000000000000000000     00000000                                                                                                                        000000000000000000
F0010000009347600004000000870907300023658300000000000000000201610310002001SURTIDOR FERRETERO                                C000000000013400000000000000000000100010010000000000000000000000F0019347600420161031000101 00000000000000000000000000000000000000000000000000000000000000000000000000000000000000000000000000000000000000000N 00000000000NCONT   00    00000000000          00000000000000000000000000000000000000000000 000000000000000A000000000000000000000000000000000000000000000 000000000000000000000000000000000000000     00000000                                                                                                                        000000000000000000
F0010000009347600005000000870907300013552100000000000000000201610310002001SURTIDOR FERRETERO                                D000000000013400000000000000000000100010010000000000000000000000F0019347600520161031000101 00000000000000000000000000000000000000000000000000000000000000000000000000000000000000000000000000000000000000000N 00000000000NCONT   00    00000000000          00000000000000000000000000000000000000000000 000000000000000A000000000000000000000000000000000000000000000 000000000000000000000000000000000000000     00000000                                                                                                                        000000000000000000
F0010000009347700001000000870907300011050500000000000000000201610310002001SURTIDOR FERRETERO                                D000000005980000000000000000000000100010010000000000000000000000F0019347700120161031000101 00000000000000000000000000000000000000000000000000000000000000000000000000000000000000000000000000000000000000000N 00000000000NCONT   00    00000000000          00000000000000000000000000000000000000000000 000000000000000A000000000000000000000000000000000000000000000 000000000000000000000000000000000000000     00000000                                                                                                                        000000000000000000
F0010000009347700002000000870907300041450500000000000000000201610310002001SURTIDOR FERRETERO                                C000000003360000000000000000000000100010010000000000000000000000F0019347700220161031000101 00000000000000000000000000000000000000000000000000000000000000000000000000000000000000000000000000000000000000000N 00000000000NCONT   00    00000000000          00000000000000000000000000000000000000000000 000000000000000A000000000000000000000000000000000000000000000 000000000000000000000000000000000000000     00000000                                                                                                                        000000000000000000
F0010000009347700003000000870907300042505000000000000000000201610310002001SURTIDOR FERRETERO                                C000000002620000000000000000000000100010010000000000000000000000F0019347700320161031000101 00000000000000000000000000000000000000000000000000000000000000000000000000000000000000000000000000000000000000000N 00000000000NCONT   00    00000000000          00000000000000000000000000000000000000000000 000000000000000A000000000000000000000000000000000000000000000 000000000000000000000000000000000000000     00000000                                                                                                                        000000000000000000
F0010000009347700004000000870907300023658300000000000000000201610310002001SURTIDOR FERRETERO                                C000000000026900000000000000000000100010010000000000000000000000F0019347700420161031000101 00000000000000000000000000000000000000000000000000000000000000000000000000000000000000000000000000000000000000000N 00000000000NCONT   00    00000000000          00000000000000000000000000000000000000000000 000000000000000A000000000000000000000000000000000000000000000 000000000000000000000000000000000000000     00000000                                                                                                                        000000000000000000
F0010000009347700005000000870907300013552100000000000000000201610310002001SURTIDOR FERRETERO                                D000000000026900000000000000000000100010010000000000000000000000F0019347700520161031000101 00000000000000000000000000000000000000000000000000000000000000000000000000000000000000000000000000000000000000000N 00000000000NCONT   00    00000000000          00000000000000000000000000000000000000000000 000000000000000A000000000000000000000000000000000000000000000 000000000000000000000000000000000000000     00000000                                                                                                                        000000000000000000
F0010000009347800001000000870907300011050500000000000000000201610310002001SURTIDOR FERRETERO                                D000000001640000000000000000000000100010010000000000000000000000F0019347800120161031000101 00000000000000000000000000000000000000000000000000000000000000000000000000000000000000000000000000000000000000000N 00000000000NCONT   00    00000000000          00000000000000000000000000000000000000000000 000000000000000A000000000000000000000000000000000000000000000 000000000000000000000000000000000000000     00000000                                                                                                                        000000000000000000
F0010000009347800002000000870907300041450500000000000000000201610310002001SURTIDOR FERRETERO                                C000000000840000000000000000000000100010010000000000000000000000F0019347800220161031000101 00000000000000000000000000000000000000000000000000000000000000000000000000000000000000000000000000000000000000000N 00000000000NCONT   00    00000000000          00000000000000000000000000000000000000000000 000000000000000A000000000000000000000000000000000000000000000 000000000000000000000000000000000000000     00000000                                                                                                                        000000000000000000
F0010000009347800003000000870907300042505000000000000000000201610310002001SURTIDOR FERRETERO                                C000000000800000000000000000000000100010010000000000000000000000F0019347800320161031000101 00000000000000000000000000000000000000000000000000000000000000000000000000000000000000000000000000000000000000000N 00000000000NCONT   00    00000000000          00000000000000000000000000000000000000000000 000000000000000A000000000000000000000000000000000000000000000 000000000000000000000000000000000000000     00000000                                                                                                                        000000000000000000
F0010000009347800004000000870907300023658300000000000000000201610310002001SURTIDOR FERRETERO                                C000000000006700000000000000000000100010010000000000000000000000F0019347800420161031000101 00000000000000000000000000000000000000000000000000000000000000000000000000000000000000000000000000000000000000000N 00000000000NCONT   00    00000000000          00000000000000000000000000000000000000000000 000000000000000A000000000000000000000000000000000000000000000 000000000000000000000000000000000000000     00000000                                                                                                                        000000000000000000
F0010000009347800005000000870907300013552100000000000000000201610310002001SURTIDOR FERRETERO                                D000000000006700000000000000000000100010010000000000000000000000F0019347800520161031000101 00000000000000000000000000000000000000000000000000000000000000000000000000000000000000000000000000000000000000000N 00000000000NCONT   00    00000000000          00000000000000000000000000000000000000000000 000000000000000A000000000000000000000000000000000000000000000 000000000000000000000000000000000000000     00000000                                                                                                                        000000000000000000
F0010000009347900001000090050144800011050500000000000000000201610310002001PLASTICOS JR ASOCIADOS SAS                        D000000001100000000000000000000000100010010000000000000000000000F0019347900120161031000101 00000000000000000000000000000000000000000000000000000000000000000000000000000000000000000000000000000000000000000N 00000000000NCONT   00    00000000000          00000000000000000000000000000000000000000000 000000000000000A000000000000000000000000000000000000000000000 000000000000000000000000000000000000000     00000000                                                                                                                        000000000000000000
F0010000009347900002000090050144800041450500000000000000000201610310002001PLASTICOS JR ASOCIADOS SAS                        C000000000950000000000000000000000100010010000000000000000000000F0019347900220161031000101 00000000000000000000000000000000000000000000000000000000000000000000000000000000000000000000000000000000000000000N 00000000000NCONT   00    00000000000          00000000000000000000000000000000000000000000 000000000000000A000000000000000000000000000000000000000000000 000000000000000000000000000000000000000     00000000                                                                                                                        000000000000000000
F0010000009347900003000090050144800042505000000000000000000201610310002001PLASTICOS JR ASOCIADOS SAS                        C000000000150000000000000000000000100010010000000000000000000000F0019347900320161031000101 00000000000000000000000000000000000000000000000000000000000000000000000000000000000000000000000000000000000000000N 00000000000NCONT   00    00000000000          00000000000000000000000000000000000000000000 000000000000000A000000000000000000000000000000000000000000000 000000000000000000000000000000000000000     00000000                                                                                                                        000000000000000000
F0010000009347900004000090050144800023658300000000000000000201610310002001PLASTICOS JR ASOCIADOS SAS                        C000000000007600000000000000000000100010010000000000000000000000F0019347900420161031000101 00000000000000000000000000000000000000000000000000000000000000000000000000000000000000000000000000000000000000000N 00000000000NCONT   00    00000000000          00000000000000000000000000000000000000000000 000000000000000A000000000000000000000000000000000000000000000 000000000000000000000000000000000000000     00000000                                                                                                                        000000000000000000
F0010000009347900005000090050144800013552100000000000000000201610310002001PLASTICOS JR ASOCIADOS SAS                        D000000000007600000000000000000000100010010000000000000000000000F0019347900520161031000101 00000000000000000000000000000000000000000000000000000000000000000000000000000000000000000000000000000000000000000N 00000000000NCONT   00    00000000000          00000000000000000000000000000000000000000000 000000000000000A000000000000000000000000000000000000000000000 000000000000000000000000000000000000000     00000000                                                                                                                        000000000000000000
F0010000009348000001000004175790100011050500000000000000000201610310002001ROSIRIS FERIA HOYOS  (COSM. SHILLER)              D000000001000000000000000000000000100010010000000000000000000000F0019348000120161031000101 00000000000000000000000000000000000000000000000000000000000000000000000000000000000000000000000000000000000000000N 00000000000NCONT   00    00000000000          00000000000000000000000000000000000000000000 000000000000000A000000000000000000000000000000000000000000000 000000000000000000000000000000000000000     00000000                                                                                                                        000000000000000000
F0010000009348000002000004175790100041450500000000000000000201610310002001ROSIRIS FERIA HOYOS  (COSM. SHILLER)              C000000000900000000000000000000000100010010000000000000000000000F0019348000220161031000101 00000000000000000000000000000000000000000000000000000000000000000000000000000000000000000000000000000000000000000N 00000000000NCONT   00    00000000000          00000000000000000000000000000000000000000000 000000000000000A000000000000000000000000000000000000000000000 000000000000000000000000000000000000000     00000000                                                                                                                        000000000000000000
F0010000009348000003000004175790100042505000000000000000000201610310002001ROSIRIS FERIA HOYOS  (COSM. SHILLER)              C000000000100000000000000000000000100010010000000000000000000000F0019348000320161031000101 00000000000000000000000000000000000000000000000000000000000000000000000000000000000000000000000000000000000000000N 00000000000NCONT   00    00000000000          00000000000000000000000000000000000000000000 000000000000000A000000000000000000000000000000000000000000000 000000000000000000000000000000000000000     00000000                                                                                                                        000000000000000000
F0010000009348000004000004175790100023658300000000000000000201610310002001ROSIRIS FERIA HOYOS  (COSM. SHILLER)              C000000000007200000000000000000000100010010000000000000000000000F0019348000420161031000101 00000000000000000000000000000000000000000000000000000000000000000000000000000000000000000000000000000000000000000N 00000000000NCONT   00    00000000000          00000000000000000000000000000000000000000000 000000000000000A000000000000000000000000000000000000000000000 000000000000000000000000000000000000000     00000000                                                                                                                        000000000000000000
F0010000009348000005000004175790100013552100000000000000000201610310002001ROSIRIS FERIA HOYOS  (COSM. SHILLER)              D000000000007200000000000000000000100010010000000000000000000000F0019348000520161031000101 00000000000000000000000000000000000000000000000000000000000000000000000000000000000000000000000000000000000000000N 00000000000NCONT   00    00000000000          00000000000000000000000000000000000000000000 000000000000000A000000000000000000000000000000000000000000000 000000000000000000000000000000000000000     00000000                                                                                                                        000000000000000000
F0010000009348100001000000431178400011050500000000000000000201610310002001EFRAIN ALVAREZ                                    D000000002840000000000000000000000100010010000000000000000000000F0019348100120161031000101 00000000000000000000000000000000000000000000000000000000000000000000000000000000000000000000000000000000000000000N 00000000000NCONT   00    00000000000          00000000000000000000000000000000000000000000 000000000000000A000000000000000000000000000000000000000000000 000000000000000000000000000000000000000     00000000                                                                                                                        000000000000000000
F0010000009348100002000000431178400041450500000000000000000201610310002001EFRAIN ALVAREZ                                    C000000002540000000000000000000000100010010000000000000000000000F0019348100220161031000101 00000000000000000000000000000000000000000000000000000000000000000000000000000000000000000000000000000000000000000N 00000000000NCONT   00    00000000000          00000000000000000000000000000000000000000000 000000000000000A000000000000000000000000000000000000000000000 000000000000000000000000000000000000000     00000000                                                                                                                        000000000000000000
F0010000009348100003000000431178400042505000000000000000000201610310002001EFRAIN ALVAREZ                                    C000000000300000000000000000000000100010010000000000000000000000F0019348100320161031000101 00000000000000000000000000000000000000000000000000000000000000000000000000000000000000000000000000000000000000000N 00000000000NCONT   00    00000000000          00000000000000000000000000000000000000000000 000000000000000A000000000000000000000000000000000000000000000 000000000000000000000000000000000000000     00000000                                                                                                                        000000000000000000
F0010000009348100004000000431178400023658300000000000000000201610310002001EFRAIN ALVAREZ                                    C000000000020300000000000000000000100010010000000000000000000000F0019348100420161031000101 00000000000000000000000000000000000000000000000000000000000000000000000000000000000000000000000000000000000000000N 00000000000NCONT   00    00000000000          00000000000000000000000000000000000000000000 000000000000000A000000000000000000000000000000000000000000000 000000000000000000000000000000000000000     00000000                                                                                                                        000000000000000000
F0010000009348100005000000431178400013552100000000000000000201610310002001EFRAIN ALVAREZ                                    D000000000020300000000000000000000100010010000000000000000000000F0019348100520161031000101 00000000000000000000000000000000000000000000000000000000000000000000000000000000000000000000000000000000000000000N 00000000000NCONT   00    00000000000          00000000000000000000000000000000000000000000 000000000000000A000000000000000000000000000000000000000000000 000000000000000000000000000000000000000     00000000                                                                                                                        000000000000000000
F0010000009348200001000000431178400011050500000000000000000201610310002001EFRAIN ALVAREZ                                    D000000008950000000000000000000000100010010000000000000000000000F0019348200120161031000101 00000000000000000000000000000000000000000000000000000000000000000000000000000000000000000000000000000000000000000N 00000000000NCONT   00    00000000000          00000000000000000000000000000000000000000000 000000000000000A000000000000000000000000000000000000000000000 000000000000000000000000000000000000000     00000000                                                                                                                        000000000000000000
F0010000009348200002000000431178400041450500000000000000000201610310002001EFRAIN ALVAREZ                                    C000000008650000000000000000000000100010010000000000000000000000F0019348200220161031000101 00000000000000000000000000000000000000000000000000000000000000000000000000000000000000000000000000000000000000000N 00000000000NCONT   00    00000000000          00000000000000000000000000000000000000000000 000000000000000A000000000000000000000000000000000000000000000 000000000000000000000000000000000000000     00000000                                                                                                                        000000000000000000
F0010000009348200003000000431178400042505000000000000000000201610310002001EFRAIN ALVAREZ                                    C000000000300000000000000000000000100010010000000000000000000000F0019348200320161031000101 00000000000000000000000000000000000000000000000000000000000000000000000000000000000000000000000000000000000000000N 00000000000NCONT   00    00000000000          00000000000000000000000000000000000000000000 000000000000000A000000000000000000000000000000000000000000000 000000000000000000000000000000000000000     00000000                                                                                                                        000000000000000000
F0010000009348200004000000431178400023658300000000000000000201610310002001EFRAIN ALVAREZ                                    C000000000069200000000000000000000100010010000000000000000000000F0019348200420161031000101 00000000000000000000000000000000000000000000000000000000000000000000000000000000000000000000000000000000000000000N 00000000000NCONT   00    00000000000          00000000000000000000000000000000000000000000 000000000000000A000000000000000000000000000000000000000000000 000000000000000000000000000000000000000     00000000                                                                                                                        000000000000000000
F0010000009348200005000000431178400013552100000000000000000201610310002001EFRAIN ALVAREZ                                    D000000000069200000000000000000000100010010000000000000000000000F0019348200520161031000101 00000000000000000000000000000000000000000000000000000000000000000000000000000000000000000000000000000000000000000N 00000000000NCONT   00    00000000000          00000000000000000000000000000000000000000000 000000000000000A000000000000000000000000000000000000000000000 000000000000000000000000000000000000000     00000000                                                                                                                        000000000000000000
F0010000009348300001000000431178400011050500000000000000000201610310002001EFRAIN ALVAREZ                                    D000000007220000000000000000000000100010010000000000000000000000F0019348300120161031000101 00000000000000000000000000000000000000000000000000000000000000000000000000000000000000000000000000000000000000000N 00000000000NCONT   00    00000000000          00000000000000000000000000000000000000000000 000000000000000A000000000000000000000000000000000000000000000 000000000000000000000000000000000000000     00000000                                                                                                                        000000000000000000
F0010000009348300002000000431178400041450500000000000000000201610310002001EFRAIN ALVAREZ                                    C000000006920000000000000000000000100010010000000000000000000000F0019348300220161031000101 00000000000000000000000000000000000000000000000000000000000000000000000000000000000000000000000000000000000000000N 00000000000NCONT   00    00000000000          00000000000000000000000000000000000000000000 000000000000000A000000000000000000000000000000000000000000000 000000000000000000000000000000000000000     00000000                                                                                                                        000000000000000000
F0010000009348300003000000431178400042505000000000000000000201610310002001EFRAIN ALVAREZ                                    C000000000300000000000000000000000100010010000000000000000000000F0019348300320161031000101 00000000000000000000000000000000000000000000000000000000000000000000000000000000000000000000000000000000000000000N 00000000000NCONT   00    00000000000          00000000000000000000000000000000000000000000 000000000000000A000000000000000000000000000000000000000000000 000000000000000000000000000000000000000     00000000                                                                                                                        000000000000000000
F0010000009348300004000000431178400023658300000000000000000201610310002001EFRAIN ALVAREZ                                    C000000000055400000000000000000000100010010000000000000000000000F0019348300420161031000101 00000000000000000000000000000000000000000000000000000000000000000000000000000000000000000000000000000000000000000N 00000000000NCONT   00    00000000000          00000000000000000000000000000000000000000000 000000000000000A000000000000000000000000000000000000000000000 000000000000000000000000000000000000000     00000000                                                                                                                        000000000000000000
F0010000009348300005000000431178400013552100000000000000000201610310002001EFRAIN ALVAREZ                                    D000000000055400000000000000000000100010010000000000000000000000F0019348300520161031000101 00000000000000000000000000000000000000000000000000000000000000000000000000000000000000000000000000000000000000000N 00000000000NCONT   00    00000000000          00000000000000000000000000000000000000000000 000000000000000A000000000000000000000000000000000000000000000 000000000000000000000000000000000000000     00000000                                                                                                                        000000000000000000
F0010000009348400001000000431178400011050500000000000000000201610310002001EFRAIN ALVAREZ                                    D000000001070000000000000000000000100010010000000000000000000000F0019348400120161031000101 00000000000000000000000000000000000000000000000000000000000000000000000000000000000000000000000000000000000000000N 00000000000NCONT   00    00000000000          00000000000000000000000000000000000000000000 000000000000000A000000000000000000000000000000000000000000000 000000000000000000000000000000000000000     00000000                                                                                                                        000000000000000000
F0010000009348400002000000431178400041450500000000000000000201610310002001EFRAIN ALVAREZ                                    C000000000920000000000000000000000100010010000000000000000000000F0019348400220161031000101 00000000000000000000000000000000000000000000000000000000000000000000000000000000000000000000000000000000000000000N 00000000000NCONT   00    00000000000          00000000000000000000000000000000000000000000 000000000000000A000000000000000000000000000000000000000000000 000000000000000000000000000000000000000     00000000                                                                                                                        000000000000000000
F0010000009348400003000000431178400042505000000000000000000201610310002001EFRAIN ALVAREZ                                    C000000000150000000000000000000000100010010000000000000000000000F0019348400320161031000101 00000000000000000000000000000000000000000000000000000000000000000000000000000000000000000000000000000000000000000N 00000000000NCONT   00    00000000000          00000000000000000000000000000000000000000000 000000000000000A000000000000000000000000000000000000000000000 000000000000000000000000000000000000000     00000000                                                                                                                        000000000000000000
F0010000009348400004000000431178400023658300000000000000000201610310002001EFRAIN ALVAREZ                                    C000000000007400000000000000000000100010010000000000000000000000F0019348400420161031000101 00000000000000000000000000000000000000000000000000000000000000000000000000000000000000000000000000000000000000000N 00000000000NCONT   00    00000000000          00000000000000000000000000000000000000000000 000000000000000A000000000000000000000000000000000000000000000 000000000000000000000000000000000000000     00000000                                                                                                                        000000000000000000
F0010000009348400005000000431178400013552100000000000000000201610310002001EFRAIN ALVAREZ                                    D000000000007400000000000000000000100010010000000000000000000000F0019348400520161031000101 00000000000000000000000000000000000000000000000000000000000000000000000000000000000000000000000000000000000000000N 00000000000NCONT   00    00000000000          00000000000000000000000000000000000000000000 000000000000000A000000000000000000000000000000000000000000000 000000000000000000000000000000000000000     00000000                                                                                                                        000000000000000000
F0010000009348500001000000431178400011050500000000000000000201610310002001EFRAIN ALVAREZ                                    D000000002740000000000000000000000100010010000000000000000000000F0019348500120161031000101 00000000000000000000000000000000000000000000000000000000000000000000000000000000000000000000000000000000000000000N 00000000000NCONT   00    00000000000          00000000000000000000000000000000000000000000 000000000000000A000000000000000000000000000000000000000000000 000000000000000000000000000000000000000     00000000                                                                                                                        000000000000000000
F0010000009348500002000000431178400041450500000000000000000201610310002001EFRAIN ALVAREZ                                    C000000002540000000000000000000000100010010000000000000000000000F0019348500220161031000101 00000000000000000000000000000000000000000000000000000000000000000000000000000000000000000000000000000000000000000N 00000000000NCONT   00    00000000000          00000000000000000000000000000000000000000000 000000000000000A000000000000000000000000000000000000000000000 000000000000000000000000000000000000000     00000000                                                                                                                        000000000000000000
F0010000009348500003000000431178400042505000000000000000000201610310002001EFRAIN ALVAREZ                                    C000000000200000000000000000000000100010010000000000000000000000F0019348500320161031000101 00000000000000000000000000000000000000000000000000000000000000000000000000000000000000000000000000000000000000000N 00000000000NCONT   00    00000000000          00000000000000000000000000000000000000000000 000000000000000A000000000000000000000000000000000000000000000 000000000000000000000000000000000000000     00000000                                                                                                                        000000000000000000
F0010000009348500004000000431178400023658300000000000000000201610310002001EFRAIN ALVAREZ                                    C000000000020300000000000000000000100010010000000000000000000000F0019348500420161031000101 00000000000000000000000000000000000000000000000000000000000000000000000000000000000000000000000000000000000000000N 00000000000NCONT   00    00000000000          00000000000000000000000000000000000000000000 000000000000000A000000000000000000000000000000000000000000000 000000000000000000000000000000000000000     00000000                                                                                                                        000000000000000000
F0010000009348500005000000431178400013552100000000000000000201610310002001EFRAIN ALVAREZ                                    D000000000020300000000000000000000100010010000000000000000000000F0019348500520161031000101 00000000000000000000000000000000000000000000000000000000000000000000000000000000000000000000000000000000000000000N 00000000000NCONT   00    00000000000          00000000000000000000000000000000000000000000 000000000000000A000000000000000000000000000000000000000000000 000000000000000000000000000000000000000     00000000                                                                                                                        000000000000000000
F0010000009348600001000000431178400011050500000000000000000201610310002001EFRAIN ALVAREZ                                    D000000001420000000000000000000000100010010000000000000000000000F0019348600120161031000101 00000000000000000000000000000000000000000000000000000000000000000000000000000000000000000000000000000000000000000N 00000000000NCONT   00    00000000000          00000000000000000000000000000000000000000000 000000000000000A000000000000000000000000000000000000000000000 000000000000000000000000000000000000000     00000000                                                                                                                        000000000000000000
F0010000009348600002000000431178400041450500000000000000000201610310002001EFRAIN ALVAREZ                                    C000000001270000000000000000000000100010010000000000000000000000F0019348600220161031000101 00000000000000000000000000000000000000000000000000000000000000000000000000000000000000000000000000000000000000000N 00000000000NCONT   00    00000000000          00000000000000000000000000000000000000000000 000000000000000A000000000000000000000000000000000000000000000 000000000000000000000000000000000000000     00000000                                                                                                                        000000000000000000
F0010000009348600003000000431178400042505000000000000000000201610310002001EFRAIN ALVAREZ                                    C000000000150000000000000000000000100010010000000000000000000000F0019348600320161031000101 00000000000000000000000000000000000000000000000000000000000000000000000000000000000000000000000000000000000000000N 00000000000NCONT   00    00000000000          00000000000000000000000000000000000000000000 000000000000000A000000000000000000000000000000000000000000000 000000000000000000000000000000000000000     00000000                                                                                                                        000000000000000000
F0010000009348600004000000431178400023658300000000000000000201610310002001EFRAIN ALVAREZ                                    C000000000010200000000000000000000100010010000000000000000000000F0019348600420161031000101 00000000000000000000000000000000000000000000000000000000000000000000000000000000000000000000000000000000000000000N 00000000000NCONT   00    00000000000          00000000000000000000000000000000000000000000 000000000000000A000000000000000000000000000000000000000000000 000000000000000000000000000000000000000     00000000                                                                                                                        000000000000000000
F0010000009348600005000000431178400013552100000000000000000201610310002001EFRAIN ALVAREZ                                    D000000000010200000000000000000000100010010000000000000000000000F0019348600520161031000101 00000000000000000000000000000000000000000000000000000000000000000000000000000000000000000000000000000000000000000N 00000000000NCONT   00    00000000000          00000000000000000000000000000000000000000000 000000000000000A000000000000000000000000000000000000000000000 000000000000000000000000000000000000000     00000000                                                                                                                        000000000000000000
F0010000009348700001000000431178400011050500000000000000000201610310002001EFRAIN ALVAREZ                                    D000000001695000000000000000000000100010010000000000000000000000F0019348700120161031000101 00000000000000000000000000000000000000000000000000000000000000000000000000000000000000000000000000000000000000000N 00000000000NCONT   00    00000000000          00000000000000000000000000000000000000000000 000000000000000A000000000000000000000000000000000000000000000 000000000000000000000000000000000000000     00000000                                                                                                                        000000000000000000
F0010000009348700002000000431178400041450500000000000000000201610310002001EFRAIN ALVAREZ                                    C000000001620000000000000000000000100010010000000000000000000000F0019348700220161031000101 00000000000000000000000000000000000000000000000000000000000000000000000000000000000000000000000000000000000000000N 00000000000NCONT   00    00000000000          00000000000000000000000000000000000000000000 000000000000000A000000000000000000000000000000000000000000000 000000000000000000000000000000000000000     00000000                                                                                                                        000000000000000000
F0010000009348700003000000431178400042505000000000000000000201610310002001EFRAIN ALVAREZ                                    C000000000075000000000000000000000100010010000000000000000000000F0019348700320161031000101 00000000000000000000000000000000000000000000000000000000000000000000000000000000000000000000000000000000000000000N 00000000000NCONT   00    00000000000          00000000000000000000000000000000000000000000 000000000000000A000000000000000000000000000000000000000000000 000000000000000000000000000000000000000     00000000                                                                                                                        000000000000000000
F0010000009348700004000000431178400023658300000000000000000201610310002001EFRAIN ALVAREZ                                    C000000000013000000000000000000000100010010000000000000000000000F0019348700420161031000101 00000000000000000000000000000000000000000000000000000000000000000000000000000000000000000000000000000000000000000N 00000000000NCONT   00    00000000000          00000000000000000000000000000000000000000000 000000000000000A000000000000000000000000000000000000000000000 000000000000000000000000000000000000000     00000000                                                                                                                        000000000000000000
F0010000009348700005000000431178400013552100000000000000000201610310002001EFRAIN ALVAREZ                                    D000000000013000000000000000000000100010010000000000000000000000F0019348700520161031000101 00000000000000000000000000000000000000000000000000000000000000000000000000000000000000000000000000000000000000000N 00000000000NCONT   00    00000000000          00000000000000000000000000000000000000000000 000000000000000A000000000000000000000000000000000000000000000 000000000000000000000000000000000000000     00000000                                                                                                                        000000000000000000
F0010000009348800001000000431178400011050500000000000000000201610310002001EFRAIN ALVAREZ                                    D000000002740000000000000000000000100010010000000000000000000000F0019348800120161031000101 00000000000000000000000000000000000000000000000000000000000000000000000000000000000000000000000000000000000000000N 00000000000NCONT   00    00000000000          00000000000000000000000000000000000000000000 000000000000000A000000000000000000000000000000000000000000000 000000000000000000000000000000000000000     00000000                                                                                                                        000000000000000000
F0010000009348800002000000431178400041450500000000000000000201610310002001EFRAIN ALVAREZ                                    C000000002540000000000000000000000100010010000000000000000000000F0019348800220161031000101 00000000000000000000000000000000000000000000000000000000000000000000000000000000000000000000000000000000000000000N 00000000000NCONT   00    00000000000          00000000000000000000000000000000000000000000 000000000000000A000000000000000000000000000000000000000000000 000000000000000000000000000000000000000     00000000                                                                                                                        000000000000000000
F0010000009348800003000000431178400042505000000000000000000201610310002001EFRAIN ALVAREZ                                    C000000000200000000000000000000000100010010000000000000000000000F0019348800320161031000101 00000000000000000000000000000000000000000000000000000000000000000000000000000000000000000000000000000000000000000N 00000000000NCONT   00    00000000000          00000000000000000000000000000000000000000000 000000000000000A000000000000000000000000000000000000000000000 000000000000000000000000000000000000000     00000000                                                                                                                        000000000000000000
F0010000009348800004000000431178400023658300000000000000000201610310002001EFRAIN ALVAREZ                                    C000000000020300000000000000000000100010010000000000000000000000F0019348800420161031000101 00000000000000000000000000000000000000000000000000000000000000000000000000000000000000000000000000000000000000000N 00000000000NCONT   00    00000000000          00000000000000000000000000000000000000000000 000000000000000A000000000000000000000000000000000000000000000 000000000000000000000000000000000000000     00000000                                                                                                                        000000000000000000
F0010000009348800005000000431178400013552100000000000000000201610310002001EFRAIN ALVAREZ                                    D000000000020300000000000000000000100010010000000000000000000000F0019348800520161031000101 00000000000000000000000000000000000000000000000000000000000000000000000000000000000000000000000000000000000000000N 00000000000NCONT   00    00000000000          00000000000000000000000000000000000000000000 000000000000000A000000000000000000000000000000000000000000000 000000000000000000000000000000000000000     00000000                                                                                                                        000000000000000000
F0010000009348900001000000431178400011050500000000000000000201610310002001EFRAIN ALVAREZ                                    D000000002740000000000000000000000100010010000000000000000000000F0019348900120161031000101 00000000000000000000000000000000000000000000000000000000000000000000000000000000000000000000000000000000000000000N 00000000000NCONT   00    00000000000          00000000000000000000000000000000000000000000 000000000000000A000000000000000000000000000000000000000000000 000000000000000000000000000000000000000     00000000                                                                                                                        000000000000000000
F0010000009348900002000000431178400041450500000000000000000201610310002001EFRAIN ALVAREZ                                    C000000002540000000000000000000000100010010000000000000000000000F0019348900220161031000101 00000000000000000000000000000000000000000000000000000000000000000000000000000000000000000000000000000000000000000N 00000000000NCONT   00    00000000000          00000000000000000000000000000000000000000000 000000000000000A000000000000000000000000000000000000000000000 000000000000000000000000000000000000000     00000000                                                                                                                        000000000000000000
F0010000009348900003000000431178400042505000000000000000000201610310002001EFRAIN ALVAREZ                                    C000000000200000000000000000000000100010010000000000000000000000F0019348900320161031000101 00000000000000000000000000000000000000000000000000000000000000000000000000000000000000000000000000000000000000000N 00000000000NCONT   00    00000000000          00000000000000000000000000000000000000000000 000000000000000A000000000000000000000000000000000000000000000 000000000000000000000000000000000000000     00000000                                                                                                                        000000000000000000
F0010000009348900004000000431178400023658300000000000000000201610310002001EFRAIN ALVAREZ                                    C000000000020300000000000000000000100010010000000000000000000000F0019348900420161031000101 00000000000000000000000000000000000000000000000000000000000000000000000000000000000000000000000000000000000000000N 00000000000NCONT   00    00000000000          00000000000000000000000000000000000000000000 000000000000000A000000000000000000000000000000000000000000000 000000000000000000000000000000000000000     00000000                                                                                                                        000000000000000000
F0010000009348900005000000431178400013552100000000000000000201610310002001EFRAIN ALVAREZ                                    D000000000020300000000000000000000100010010000000000000000000000F0019348900520161031000101 00000000000000000000000000000000000000000000000000000000000000000000000000000000000000000000000000000000000000000N 00000000000NCONT   00    00000000000          00000000000000000000000000000000000000000000 000000000000000A000000000000000000000000000000000000000000000 000000000000000000000000000000000000000     00000000                                                                                                                        000000000000000000
F0010000009349000001000000431178400011050500000000000000000201610310002001EFRAIN ALVAREZ                                    D000000001370000000000000000000000100010010000000000000000000000F0019349000120161031000101 00000000000000000000000000000000000000000000000000000000000000000000000000000000000000000000000000000000000000000N 00000000000NCONT   00    00000000000          00000000000000000000000000000000000000000000 000000000000000A000000000000000000000000000000000000000000000 000000000000000000000000000000000000000     00000000                                                                                                                        000000000000000000
F0010000009349000002000000431178400041450500000000000000000201610310002001EFRAIN ALVAREZ                                    C000000001270000000000000000000000100010010000000000000000000000F0019349000220161031000101 00000000000000000000000000000000000000000000000000000000000000000000000000000000000000000000000000000000000000000N 00000000000NCONT   00    00000000000          00000000000000000000000000000000000000000000 000000000000000A000000000000000000000000000000000000000000000 000000000000000000000000000000000000000     00000000                                                                                                                        000000000000000000
F0010000009349000003000000431178400042505000000000000000000201610310002001EFRAIN ALVAREZ                                    C000000000100000000000000000000000100010010000000000000000000000F0019349000320161031000101 00000000000000000000000000000000000000000000000000000000000000000000000000000000000000000000000000000000000000000N 00000000000NCONT   00    00000000000          00000000000000000000000000000000000000000000 000000000000000A000000000000000000000000000000000000000000000 000000000000000000000000000000000000000     00000000                                                                                                                        000000000000000000
F0010000009349000004000000431178400023658300000000000000000201610310002001EFRAIN ALVAREZ                                    C000000000010200000000000000000000100010010000000000000000000000F0019349000420161031000101 00000000000000000000000000000000000000000000000000000000000000000000000000000000000000000000000000000000000000000N 00000000000NCONT   00    00000000000          00000000000000000000000000000000000000000000 000000000000000A000000000000000000000000000000000000000000000 000000000000000000000000000000000000000     00000000                                                                                                                        000000000000000000
F0010000009349000005000000431178400013552100000000000000000201610310002001EFRAIN ALVAREZ                                    D000000000010200000000000000000000100010010000000000000000000000F0019349000520161031000101 00000000000000000000000000000000000000000000000000000000000000000000000000000000000000000000000000000000000000000N 00000000000NCONT   00    00000000000          00000000000000000000000000000000000000000000 000000000000000A000000000000000000000000000000000000000000000 000000000000000000000000000000000000000     00000000                                                                                                                        000000000000000000
F0010000009349100001000000431178400011050500000000000000000201610310002001EFRAIN ALVAREZ                                    D000000001320000000000000000000000100010010000000000000000000000F0019349100120161031000101 00000000000000000000000000000000000000000000000000000000000000000000000000000000000000000000000000000000000000000N 00000000000NCONT   00    00000000000          00000000000000000000000000000000000000000000 000000000000000A000000000000000000000000000000000000000000000 000000000000000000000000000000000000000     00000000                                                                                                                        000000000000000000
F0010000009349100002000000431178400041450500000000000000000201610310002001EFRAIN ALVAREZ                                    C000000001270000000000000000000000100010010000000000000000000000F0019349100220161031000101 00000000000000000000000000000000000000000000000000000000000000000000000000000000000000000000000000000000000000000N 00000000000NCONT   00    00000000000          00000000000000000000000000000000000000000000 000000000000000A000000000000000000000000000000000000000000000 000000000000000000000000000000000000000     00000000                                                                                                                        000000000000000000
F0010000009349100003000000431178400042505000000000000000000201610310002001EFRAIN ALVAREZ                                    C000000000050000000000000000000000100010010000000000000000000000F0019349100320161031000101 00000000000000000000000000000000000000000000000000000000000000000000000000000000000000000000000000000000000000000N 00000000000NCONT   00    00000000000          00000000000000000000000000000000000000000000 000000000000000A000000000000000000000000000000000000000000000 000000000000000000000000000000000000000     00000000                                                                                                                        000000000000000000
