F0010000007064400001000007934219000011050500000000000000000201504260002001CANDELEC ILUMINACIONE                             D000000005000000000000000000000000100010010000000000000000000000F0010000007064400120150426000101 00000000000000000000000000000000000000000000000000000000000000000000000000000000000000000000000000000000000000000N 00000000000NCONT   00    00000000000          00000000000000000000000000000000000000000000 000000000000000A000000000000000000000000000000000000000000000 000000000000000000000000000000000000000     00000000                                                                                                                        000000000000000000
F0010000007064400002000007934219000041450500000000000000000201504260002001CANDELEC ILUMINACIONE                             C000000004000000000000000000000000100010010000000000000000000000F0010000007064400220150426000101 00000000000000000000000000000000000000000000000000000000000000000000000000000000000000000000000000000000000000000N 00000000000NCONT   00    00000000000          00000000000000000000000000000000000000000000 000000000000000A000000000000000000000000000000000000000000000 000000000000000000000000000000000000000     00000000                                                                                                                        000000000000000000
F0010000007064400003000007934219000042505000000000000000000201504260002001CANDELEC ILUMINACIONE                             C000000001000000000000000000000000100010010000000000000000000000F0010000007064400320150426000101 00000000000000000000000000000000000000000000000000000000000000000000000000000000000000000000000000000000000000000N 00000000000NCONT   00    00000000000          00000000000000000000000000000000000000000000 000000000000000A000000000000000000000000000000000000000000000 000000000000000000000000000000000000000     00000000                                                                                                                        000000000000000000
F0010000007064400004000007934219000023658300000000000000000201504260002001CANDELEC ILUMINACIONE                             C000000000032000000000000000000000100010010000000000000000000000F0010000007064400420150426000101 00000000000000000000000000000000000000000000000000000000000000000000000000000000000000000000000000000000000000000N 00000000000NCONT   00    00000000000          00000000000000000000000000000000000000000000 000000000000000A000000000000000000000000000000000000000000000 000000000000000000000000000000000000000     00000000                                                                                                                        000000000000000000
F0010000007064400005000007934219000013552100000000000000000201504260002001CANDELEC ILUMINACIONE                             D000000000032000000000000000000000100010010000000000000000000000F0010000007064400520150426000101 00000000000000000000000000000000000000000000000000000000000000000000000000000000000000000000000000000000000000000N 00000000000NCONT   00    00000000000          00000000000000000000000000000000000000000000 000000000000000A000000000000000000000000000000000000000000000 000000000000000000000000000000000000000     00000000                                                                                                                        000000000000000000
