F0010000009076600001000000646115900011050500000000000000000201609030002001MIGUEL JIMENEZ GOMEZ                              D000000013000000000000000000000000100010010000000000000000000000F0010000009076600120160903000101 00000000000000000000000000000000000000000000000000000000000000000000000000000000000000000000000000000000000000000N 00000000000NCONT   00    00000000000          00000000000000000000000000000000000000000000 000000000000000A000000000000000000000000000000000000000000000 000000000000000000000000000000000000000     00000000                                                                                                                        000000000000000000
F0010000009076600002000000646115900041450500000000000000000201609030002001MIGUEL JIMENEZ GOMEZ                              C000000012500000000000000000000000100010010000000000000000000000F0010000009076600220160903000101 00000000000000000000000000000000000000000000000000000000000000000000000000000000000000000000000000000000000000000N 00000000000NCONT   00    00000000000          00000000000000000000000000000000000000000000 000000000000000A000000000000000000000000000000000000000000000 000000000000000000000000000000000000000     00000000                                                                                                                        000000000000000000
F0010000009076600003000000646115900042505000000000000000000201609030002001MIGUEL JIMENEZ GOMEZ                              C000000000500000000000000000000000100010010000000000000000000000F0010000009076600320160903000101 00000000000000000000000000000000000000000000000000000000000000000000000000000000000000000000000000000000000000000N 00000000000NCONT   00    00000000000          00000000000000000000000000000000000000000000 000000000000000A000000000000000000000000000000000000000000000 000000000000000000000000000000000000000     00000000                                                                                                                        000000000000000000
F0010000009076600004000000646115900023658300000000000000000201609030002001MIGUEL JIMENEZ GOMEZ                              C000000000100000000000000000000000100010010000000000000000000000F0010000009076600420160903000101 00000000000000000000000000000000000000000000000000000000000000000000000000000000000000000000000000000000000000000N 00000000000NCONT   00    00000000000          00000000000000000000000000000000000000000000 000000000000000A000000000000000000000000000000000000000000000 000000000000000000000000000000000000000     00000000                                                                                                                        000000000000000000
F0010000009076600005000000646115900013552100000000000000000201609030002001MIGUEL JIMENEZ GOMEZ                              D000000000100000000000000000000000100010010000000000000000000000F0010000009076600520160903000101 00000000000000000000000000000000000000000000000000000000000000000000000000000000000000000000000000000000000000000N 00000000000NCONT   00    00000000000          00000000000000000000000000000000000000000000 000000000000000A000000000000000000000000000000000000000000000 000000000000000000000000000000000000000     00000000                                                                                                                        000000000000000000
F0010000009076700001000002245670100011050500000000000000000201609030002001YOLANDA  TOBON                                    D000000008600000000000000000000000100010010000000000000000000000F0010000009076700120160903000101 00000000000000000000000000000000000000000000000000000000000000000000000000000000000000000000000000000000000000000N 00000000000NCONT   00    00000000000          00000000000000000000000000000000000000000000 000000000000000A000000000000000000000000000000000000000000000 000000000000000000000000000000000000000     00000000                                                                                                                        000000000000000000
F0010000009076700002000002245670100041450500000000000000000201609030002001YOLANDA  TOBON                                    C000000007000000000000000000000000100010010000000000000000000000F0010000009076700220160903000101 00000000000000000000000000000000000000000000000000000000000000000000000000000000000000000000000000000000000000000N 00000000000NCONT   00    00000000000          00000000000000000000000000000000000000000000 000000000000000A000000000000000000000000000000000000000000000 000000000000000000000000000000000000000     00000000                                                                                                                        000000000000000000
F0010000009076700003000002245670100042505000000000000000000201609030002001YOLANDA  TOBON                                    C000000001600000000000000000000000100010010000000000000000000000F0010000009076700320160903000101 00000000000000000000000000000000000000000000000000000000000000000000000000000000000000000000000000000000000000000N 00000000000NCONT   00    00000000000          00000000000000000000000000000000000000000000 000000000000000A000000000000000000000000000000000000000000000 000000000000000000000000000000000000000     00000000                                                                                                                        000000000000000000
F0010000009076700004000002245670100023658300000000000000000201609030002001YOLANDA  TOBON                                    C000000000056000000000000000000000100010010000000000000000000000F0010000009076700420160903000101 00000000000000000000000000000000000000000000000000000000000000000000000000000000000000000000000000000000000000000N 00000000000NCONT   00    00000000000          00000000000000000000000000000000000000000000 000000000000000A000000000000000000000000000000000000000000000 000000000000000000000000000000000000000     00000000                                                                                                                        000000000000000000
F0010000009076700005000002245670100013552100000000000000000201609030002001YOLANDA  TOBON                                    D000000000056000000000000000000000100010010000000000000000000000F0010000009076700520160903000101 00000000000000000000000000000000000000000000000000000000000000000000000000000000000000000000000000000000000000000N 00000000000NCONT   00    00000000000          00000000000000000000000000000000000000000000 000000000000000A000000000000000000000000000000000000000000000 000000000000000000000000000000000000000     00000000                                                                                                                        000000000000000000
F0010000009076800001000002245670100011050500000000000000000201609030002001YOLANDA  TOBON                                    D000000001660000000000000000000000100010010000000000000000000000F0010000009076800120160903000101 00000000000000000000000000000000000000000000000000000000000000000000000000000000000000000000000000000000000000000N 00000000000NCONT   00    00000000000          00000000000000000000000000000000000000000000 000000000000000A000000000000000000000000000000000000000000000 000000000000000000000000000000000000000     00000000                                                                                                                        000000000000000000
F0010000009076800002000002245670100041450500000000000000000201609030002001YOLANDA  TOBON                                    C000000001400000000000000000000000100010010000000000000000000000F0010000009076800220160903000101 00000000000000000000000000000000000000000000000000000000000000000000000000000000000000000000000000000000000000000N 00000000000NCONT   00    00000000000          00000000000000000000000000000000000000000000 000000000000000A000000000000000000000000000000000000000000000 000000000000000000000000000000000000000     00000000                                                                                                                        000000000000000000
F0010000009076800003000002245670100042505000000000000000000201609030002001YOLANDA  TOBON                                    C000000000260000000000000000000000100010010000000000000000000000F0010000009076800320160903000101 00000000000000000000000000000000000000000000000000000000000000000000000000000000000000000000000000000000000000000N 00000000000NCONT   00    00000000000          00000000000000000000000000000000000000000000 000000000000000A000000000000000000000000000000000000000000000 000000000000000000000000000000000000000     00000000                                                                                                                        000000000000000000
F0010000009076800004000002245670100023658300000000000000000201609030002001YOLANDA  TOBON                                    C000000000011200000000000000000000100010010000000000000000000000F0010000009076800420160903000101 00000000000000000000000000000000000000000000000000000000000000000000000000000000000000000000000000000000000000000N 00000000000NCONT   00    00000000000          00000000000000000000000000000000000000000000 000000000000000A000000000000000000000000000000000000000000000 000000000000000000000000000000000000000     00000000                                                                                                                        000000000000000000
F0010000009076800005000002245670100013552100000000000000000201609030002001YOLANDA  TOBON                                    D000000000011200000000000000000000100010010000000000000000000000F0010000009076800520160903000101 00000000000000000000000000000000000000000000000000000000000000000000000000000000000000000000000000000000000000000N 00000000000NCONT   00    00000000000          00000000000000000000000000000000000000000000 000000000000000A000000000000000000000000000000000000000000000 000000000000000000000000000000000000000     00000000                                                                                                                        000000000000000000
F0010000009076900001000002245670100011050500000000000000000201609030002001YOLANDA  TOBON                                    D000000000800000000000000000000000100010010000000000000000000000F0010000009076900120160903000101 00000000000000000000000000000000000000000000000000000000000000000000000000000000000000000000000000000000000000000N 00000000000NCONT   00    00000000000          00000000000000000000000000000000000000000000 000000000000000A000000000000000000000000000000000000000000000 000000000000000000000000000000000000000     00000000                                                                                                                        000000000000000000
F0010000009076900002000002245670100041450500000000000000000201609030002001YOLANDA  TOBON                                    C000000000650000000000000000000000100010010000000000000000000000F0010000009076900220160903000101 00000000000000000000000000000000000000000000000000000000000000000000000000000000000000000000000000000000000000000N 00000000000NCONT   00    00000000000          00000000000000000000000000000000000000000000 000000000000000A000000000000000000000000000000000000000000000 000000000000000000000000000000000000000     00000000                                                                                                                        000000000000000000
F0010000009076900003000002245670100042505000000000000000000201609030002001YOLANDA  TOBON                                    C000000000150000000000000000000000100010010000000000000000000000F0010000009076900320160903000101 00000000000000000000000000000000000000000000000000000000000000000000000000000000000000000000000000000000000000000N 00000000000NCONT   00    00000000000          00000000000000000000000000000000000000000000 000000000000000A000000000000000000000000000000000000000000000 000000000000000000000000000000000000000     00000000                                                                                                                        000000000000000000
F0010000009076900004000002245670100023658300000000000000000201609030002001YOLANDA  TOBON                                    C000000000005200000000000000000000100010010000000000000000000000F0010000009076900420160903000101 00000000000000000000000000000000000000000000000000000000000000000000000000000000000000000000000000000000000000000N 00000000000NCONT   00    00000000000          00000000000000000000000000000000000000000000 000000000000000A000000000000000000000000000000000000000000000 000000000000000000000000000000000000000     00000000                                                                                                                        000000000000000000
F0010000009076900005000002245670100013552100000000000000000201609030002001YOLANDA  TOBON                                    D000000000005200000000000000000000100010010000000000000000000000F0010000009076900520160903000101 00000000000000000000000000000000000000000000000000000000000000000000000000000000000000000000000000000000000000000N 00000000000NCONT   00    00000000000          00000000000000000000000000000000000000000000 000000000000000A000000000000000000000000000000000000000000000 000000000000000000000000000000000000000     00000000                                                                                                                        000000000000000000
F0010000009077000001000000742399700011050500000000000000000201609030002001CACHARRERIA EL NUEVO CHADID                       D000000003100000000000000000000000100010010000000000000000000000F0010000009077000120160903000101 00000000000000000000000000000000000000000000000000000000000000000000000000000000000000000000000000000000000000000N 00000000000NCONT   00    00000000000          00000000000000000000000000000000000000000000 000000000000000A000000000000000000000000000000000000000000000 000000000000000000000000000000000000000     00000000                                                                                                                        000000000000000000
F0010000009077000002000000742399700041450500000000000000000201609030002001CACHARRERIA EL NUEVO CHADID                       C000000002600000000000000000000000100010010000000000000000000000F0010000009077000220160903000101 00000000000000000000000000000000000000000000000000000000000000000000000000000000000000000000000000000000000000000N 00000000000NCONT   00    00000000000          00000000000000000000000000000000000000000000 000000000000000A000000000000000000000000000000000000000000000 000000000000000000000000000000000000000     00000000                                                                                                                        000000000000000000
F0010000009077000003000000742399700042505000000000000000000201609030002001CACHARRERIA EL NUEVO CHADID                       C000000000500000000000000000000000100010010000000000000000000000F0010000009077000320160903000101 00000000000000000000000000000000000000000000000000000000000000000000000000000000000000000000000000000000000000000N 00000000000NCONT   00    00000000000          00000000000000000000000000000000000000000000 000000000000000A000000000000000000000000000000000000000000000 000000000000000000000000000000000000000     00000000                                                                                                                        000000000000000000
F0010000009077000004000000742399700023658300000000000000000201609030002001CACHARRERIA EL NUEVO CHADID                       C000000000020800000000000000000000100010010000000000000000000000F0010000009077000420160903000101 00000000000000000000000000000000000000000000000000000000000000000000000000000000000000000000000000000000000000000N 00000000000NCONT   00    00000000000          00000000000000000000000000000000000000000000 000000000000000A000000000000000000000000000000000000000000000 000000000000000000000000000000000000000     00000000                                                                                                                        000000000000000000
F0010000009077000005000000742399700013552100000000000000000201609030002001CACHARRERIA EL NUEVO CHADID                       D000000000020800000000000000000000100010010000000000000000000000F0010000009077000520160903000101 00000000000000000000000000000000000000000000000000000000000000000000000000000000000000000000000000000000000000000N 00000000000NCONT   00    00000000000          00000000000000000000000000000000000000000000 000000000000000A000000000000000000000000000000000000000000000 000000000000000000000000000000000000000     00000000                                                                                                                        000000000000000000
F0010000009077100001000114345993300011050500000000000000000201609030002001JAIRO PORTILLO CAMARG                             D000000004500000000000000000000000100010010000000000000000000000F0010000009077100120160903000101 00000000000000000000000000000000000000000000000000000000000000000000000000000000000000000000000000000000000000000N 00000000000NCONT   00    00000000000          00000000000000000000000000000000000000000000 000000000000000A000000000000000000000000000000000000000000000 000000000000000000000000000000000000000     00000000                                                                                                                        000000000000000000
F0010000009077100002000114345993300041450500000000000000000201609030002001JAIRO PORTILLO CAMARG                             C000000003300000000000000000000000100010010000000000000000000000F0010000009077100220160903000101 00000000000000000000000000000000000000000000000000000000000000000000000000000000000000000000000000000000000000000N 00000000000NCONT   00    00000000000          00000000000000000000000000000000000000000000 000000000000000A000000000000000000000000000000000000000000000 000000000000000000000000000000000000000     00000000                                                                                                                        000000000000000000
F0010000009077100003000114345993300042505000000000000000000201609030002001JAIRO PORTILLO CAMARG                             C000000001200000000000000000000000100010010000000000000000000000F0010000009077100320160903000101 00000000000000000000000000000000000000000000000000000000000000000000000000000000000000000000000000000000000000000N 00000000000NCONT   00    00000000000          00000000000000000000000000000000000000000000 000000000000000A000000000000000000000000000000000000000000000 000000000000000000000000000000000000000     00000000                                                                                                                        000000000000000000
F0010000009077100004000114345993300023658300000000000000000201609030002001JAIRO PORTILLO CAMARG                             C000000000026400000000000000000000100010010000000000000000000000F0010000009077100420160903000101 00000000000000000000000000000000000000000000000000000000000000000000000000000000000000000000000000000000000000000N 00000000000NCONT   00    00000000000          00000000000000000000000000000000000000000000 000000000000000A000000000000000000000000000000000000000000000 000000000000000000000000000000000000000     00000000                                                                                                                        000000000000000000
F0010000009077100005000114345993300013552100000000000000000201609030002001JAIRO PORTILLO CAMARG                             D000000000026400000000000000000000100010010000000000000000000000F0010000009077100520160903000101 00000000000000000000000000000000000000000000000000000000000000000000000000000000000000000000000000000000000000000N 00000000000NCONT   00    00000000000          00000000000000000000000000000000000000000000 000000000000000A000000000000000000000000000000000000000000000 000000000000000000000000000000000000000     00000000                                                                                                                        000000000000000000
F0010000009077200001000080202435000011050500000000000000000201609030002001DISTRIBUIDORA MACEA SAS                           D000000008200000000000000000000000100010010000000000000000000000F0010000009077200120160903000101 00000000000000000000000000000000000000000000000000000000000000000000000000000000000000000000000000000000000000000N 00000000000NCONT   00    00000000000          00000000000000000000000000000000000000000000 000000000000000A000000000000000000000000000000000000000000000 000000000000000000000000000000000000000     00000000                                                                                                                        000000000000000000
F0010000009077200002000080202435000041450500000000000000000201609030002001DISTRIBUIDORA MACEA SAS                           C000000007500000000000000000000000100010010000000000000000000000F0010000009077200220160903000101 00000000000000000000000000000000000000000000000000000000000000000000000000000000000000000000000000000000000000000N 00000000000NCONT   00    00000000000          00000000000000000000000000000000000000000000 000000000000000A000000000000000000000000000000000000000000000 000000000000000000000000000000000000000     00000000                                                                                                                        000000000000000000
F0010000009077200003000080202435000042505000000000000000000201609030002001DISTRIBUIDORA MACEA SAS                           C000000000700000000000000000000000100010010000000000000000000000F0010000009077200320160903000101 00000000000000000000000000000000000000000000000000000000000000000000000000000000000000000000000000000000000000000N 00000000000NCONT   00    00000000000          00000000000000000000000000000000000000000000 000000000000000A000000000000000000000000000000000000000000000 000000000000000000000000000000000000000     00000000                                                                                                                        000000000000000000
F0010000009077200004000080202435000023658300000000000000000201609030002001DISTRIBUIDORA MACEA SAS                           C000000000060000000000000000000000100010010000000000000000000000F0010000009077200420160903000101 00000000000000000000000000000000000000000000000000000000000000000000000000000000000000000000000000000000000000000N 00000000000NCONT   00    00000000000          00000000000000000000000000000000000000000000 000000000000000A000000000000000000000000000000000000000000000 000000000000000000000000000000000000000     00000000                                                                                                                        000000000000000000
F0010000009077200005000080202435000013552100000000000000000201609030002001DISTRIBUIDORA MACEA SAS                           D000000000060000000000000000000000100010010000000000000000000000F0010000009077200520160903000101 00000000000000000000000000000000000000000000000000000000000000000000000000000000000000000000000000000000000000000N 00000000000NCONT   00    00000000000          00000000000000000000000000000000000000000000 000000000000000A000000000000000000000000000000000000000000000 000000000000000000000000000000000000000     00000000                                                                                                                        000000000000000000
F0010000009077300001000000866309000011050500000000000000000201609030002001MARCO MORA PATIÑO                                D000000001520000000000000000000000100010010000000000000000000000F0010000009077300120160903000101 00000000000000000000000000000000000000000000000000000000000000000000000000000000000000000000000000000000000000000N 00000000000NCONT   00    00000000000          00000000000000000000000000000000000000000000 000000000000000A000000000000000000000000000000000000000000000 000000000000000000000000000000000000000     00000000                                                                                                                        000000000000000000
F0010000009077300002000000866309000041450500000000000000000201609030002001MARCO MORA PATIÑO                                C000000001400000000000000000000000100010010000000000000000000000F0010000009077300220160903000101 00000000000000000000000000000000000000000000000000000000000000000000000000000000000000000000000000000000000000000N 00000000000NCONT   00    00000000000          00000000000000000000000000000000000000000000 000000000000000A000000000000000000000000000000000000000000000 000000000000000000000000000000000000000     00000000                                                                                                                        000000000000000000
F0010000009077300003000000866309000042505000000000000000000201609030002001MARCO MORA PATIÑO                                C000000000120000000000000000000000100010010000000000000000000000F0010000009077300320160903000101 00000000000000000000000000000000000000000000000000000000000000000000000000000000000000000000000000000000000000000N 00000000000NCONT   00    00000000000          00000000000000000000000000000000000000000000 000000000000000A000000000000000000000000000000000000000000000 000000000000000000000000000000000000000     00000000                                                                                                                        000000000000000000
F0010000009077300004000000866309000023658300000000000000000201609030002001MARCO MORA PATIÑO                                C000000000011200000000000000000000100010010000000000000000000000F0010000009077300420160903000101 00000000000000000000000000000000000000000000000000000000000000000000000000000000000000000000000000000000000000000N 00000000000NCONT   00    00000000000          00000000000000000000000000000000000000000000 000000000000000A000000000000000000000000000000000000000000000 000000000000000000000000000000000000000     00000000                                                                                                                        000000000000000000
F0010000009077300005000000866309000013552100000000000000000201609030002001MARCO MORA PATIÑO                                D000000000011200000000000000000000100010010000000000000000000000F0010000009077300520160903000101 00000000000000000000000000000000000000000000000000000000000000000000000000000000000000000000000000000000000000000N 00000000000NCONT   00    00000000000          00000000000000000000000000000000000000000000 000000000000000A000000000000000000000000000000000000000000000 000000000000000000000000000000000000000     00000000                                                                                                                        000000000000000000
F0010000009077400001000001022529300011050500000000000000000201609030002001ALBERTO ALVAREZ ISAZA                             D000000000350000000000000000000000100010010000000000000000000000F0010000009077400120160903000101 00000000000000000000000000000000000000000000000000000000000000000000000000000000000000000000000000000000000000000N 00000000000NCONT   00    00000000000          00000000000000000000000000000000000000000000 000000000000000A000000000000000000000000000000000000000000000 000000000000000000000000000000000000000     00000000                                                                                                                        000000000000000000
F0010000009077400002000001022529300041450500000000000000000201609030002001ALBERTO ALVAREZ ISAZA                             C000000000350000000000000000000000100010010000000000000000000000F0010000009077400220160903000101 00000000000000000000000000000000000000000000000000000000000000000000000000000000000000000000000000000000000000000N 00000000000NCONT   00    00000000000          00000000000000000000000000000000000000000000 000000000000000A000000000000000000000000000000000000000000000 000000000000000000000000000000000000000     00000000                                                                                                                        000000000000000000
F0010000009077400003000001022529300042505000000000000000000201609030002001ALBERTO ALVAREZ ISAZA                             C000000000000000000000000000000000100010010000000000000000000000F0010000009077400320160903000101 00000000000000000000000000000000000000000000000000000000000000000000000000000000000000000000000000000000000000000N 00000000000NCONT   00    00000000000          00000000000000000000000000000000000000000000 000000000000000A000000000000000000000000000000000000000000000 000000000000000000000000000000000000000     00000000                                                                                                                        000000000000000000
F0010000009077400004000001022529300023658300000000000000000201609030002001ALBERTO ALVAREZ ISAZA                             C000000000002800000000000000000000100010010000000000000000000000F0010000009077400420160903000101 00000000000000000000000000000000000000000000000000000000000000000000000000000000000000000000000000000000000000000N 00000000000NCONT   00    00000000000          00000000000000000000000000000000000000000000 000000000000000A000000000000000000000000000000000000000000000 000000000000000000000000000000000000000     00000000                                                                                                                        000000000000000000
F0010000009077400005000001022529300013552100000000000000000201609030002001ALBERTO ALVAREZ ISAZA                             D000000000002800000000000000000000100010010000000000000000000000F0010000009077400520160903000101 00000000000000000000000000000000000000000000000000000000000000000000000000000000000000000000000000000000000000000N 00000000000NCONT   00    00000000000          00000000000000000000000000000000000000000000 000000000000000A000000000000000000000000000000000000000000000 000000000000000000000000000000000000000     00000000                                                                                                                        000000000000000000
F0010000009077500001000090047878200011050500000000000000000201609030002001GRUMAD SAS                                        D000000006000000000000000000000000100010010000000000000000000000F0010000009077500120160903000101 00000000000000000000000000000000000000000000000000000000000000000000000000000000000000000000000000000000000000000N 00000000000NCONT   00    00000000000          00000000000000000000000000000000000000000000 000000000000000A000000000000000000000000000000000000000000000 000000000000000000000000000000000000000     00000000                                                                                                                        000000000000000000
F0010000009077500002000090047878200041450500000000000000000201609030002001GRUMAD SAS                                        C000000005300000000000000000000000100010010000000000000000000000F0010000009077500220160903000101 00000000000000000000000000000000000000000000000000000000000000000000000000000000000000000000000000000000000000000N 00000000000NCONT   00    00000000000          00000000000000000000000000000000000000000000 000000000000000A000000000000000000000000000000000000000000000 000000000000000000000000000000000000000     00000000                                                                                                                        000000000000000000
F0010000009077500003000090047878200042505000000000000000000201609030002001GRUMAD SAS                                        C000000000700000000000000000000000100010010000000000000000000000F0010000009077500320160903000101 00000000000000000000000000000000000000000000000000000000000000000000000000000000000000000000000000000000000000000N 00000000000NCONT   00    00000000000          00000000000000000000000000000000000000000000 000000000000000A000000000000000000000000000000000000000000000 000000000000000000000000000000000000000     00000000                                                                                                                        000000000000000000
F0010000009077500004000090047878200023658300000000000000000201609030002001GRUMAD SAS                                        C000000000042400000000000000000000100010010000000000000000000000F0010000009077500420160903000101 00000000000000000000000000000000000000000000000000000000000000000000000000000000000000000000000000000000000000000N 00000000000NCONT   00    00000000000          00000000000000000000000000000000000000000000 000000000000000A000000000000000000000000000000000000000000000 000000000000000000000000000000000000000     00000000                                                                                                                        000000000000000000
F0010000009077500005000090047878200013552100000000000000000201609030002001GRUMAD SAS                                        D000000000042400000000000000000000100010010000000000000000000000F0010000009077500520160903000101 00000000000000000000000000000000000000000000000000000000000000000000000000000000000000000000000000000000000000000N 00000000000NCONT   00    00000000000          00000000000000000000000000000000000000000000 000000000000000A000000000000000000000000000000000000000000000 000000000000000000000000000000000000000     00000000                                                                                                                        000000000000000000
F0010000009077600001000007200023300011050500000000000000000201609030002001WILLIAM ORTEGA                                    D000000007000000000000000000000000100010010000000000000000000000F0010000009077600120160903000101 00000000000000000000000000000000000000000000000000000000000000000000000000000000000000000000000000000000000000000N 00000000000NCONT   00    00000000000          00000000000000000000000000000000000000000000 000000000000000A000000000000000000000000000000000000000000000 000000000000000000000000000000000000000     00000000                                                                                                                        000000000000000000
F0010000009077600002000007200023300041450500000000000000000201609030002001WILLIAM ORTEGA                                    C000000006000000000000000000000000100010010000000000000000000000F0010000009077600220160903000101 00000000000000000000000000000000000000000000000000000000000000000000000000000000000000000000000000000000000000000N 00000000000NCONT   00    00000000000          00000000000000000000000000000000000000000000 000000000000000A000000000000000000000000000000000000000000000 000000000000000000000000000000000000000     00000000                                                                                                                        000000000000000000
F0010000009077600003000007200023300042505000000000000000000201609030002001WILLIAM ORTEGA                                    C000000001000000000000000000000000100010010000000000000000000000F0010000009077600320160903000101 00000000000000000000000000000000000000000000000000000000000000000000000000000000000000000000000000000000000000000N 00000000000NCONT   00    00000000000          00000000000000000000000000000000000000000000 000000000000000A000000000000000000000000000000000000000000000 000000000000000000000000000000000000000     00000000                                                                                                                        000000000000000000
F0010000009077600004000007200023300023658300000000000000000201609030002001WILLIAM ORTEGA                                    C000000000048000000000000000000000100010010000000000000000000000F0010000009077600420160903000101 00000000000000000000000000000000000000000000000000000000000000000000000000000000000000000000000000000000000000000N 00000000000NCONT   00    00000000000          00000000000000000000000000000000000000000000 000000000000000A000000000000000000000000000000000000000000000 000000000000000000000000000000000000000     00000000                                                                                                                        000000000000000000
F0010000009077600005000007200023300013552100000000000000000201609030002001WILLIAM ORTEGA                                    D000000000048000000000000000000000100010010000000000000000000000F0010000009077600520160903000101 00000000000000000000000000000000000000000000000000000000000000000000000000000000000000000000000000000000000000000N 00000000000NCONT   00    00000000000          00000000000000000000000000000000000000000000 000000000000000A000000000000000000000000000000000000000000000 000000000000000000000000000000000000000     00000000                                                                                                                        000000000000000000
F0010000009077700001000080202350700011050500000000000000000201609030002001CONNY DE LA COSTA SAS                             D000000001250000000000000000000000100010010000000000000000000000F0010000009077700120160903000101 00000000000000000000000000000000000000000000000000000000000000000000000000000000000000000000000000000000000000000N 00000000000NCONT   00    00000000000          00000000000000000000000000000000000000000000 000000000000000A000000000000000000000000000000000000000000000 000000000000000000000000000000000000000     00000000                                                                                                                        000000000000000000
F0010000009077700002000080202350700041450500000000000000000201609030002001CONNY DE LA COSTA SAS                             C000000001200000000000000000000000100010010000000000000000000000F0010000009077700220160903000101 00000000000000000000000000000000000000000000000000000000000000000000000000000000000000000000000000000000000000000N 00000000000NCONT   00    00000000000          00000000000000000000000000000000000000000000 000000000000000A000000000000000000000000000000000000000000000 000000000000000000000000000000000000000     00000000                                                                                                                        000000000000000000
F0010000009077700003000080202350700042505000000000000000000201609030002001CONNY DE LA COSTA SAS                             C000000000050000000000000000000000100010010000000000000000000000F0010000009077700320160903000101 00000000000000000000000000000000000000000000000000000000000000000000000000000000000000000000000000000000000000000N 00000000000NCONT   00    00000000000          00000000000000000000000000000000000000000000 000000000000000A000000000000000000000000000000000000000000000 000000000000000000000000000000000000000     00000000                                                                                                                        000000000000000000
F0010000009077700004000080202350700023658300000000000000000201609030002001CONNY DE LA COSTA SAS                             C000000000009600000000000000000000100010010000000000000000000000F0010000009077700420160903000101 00000000000000000000000000000000000000000000000000000000000000000000000000000000000000000000000000000000000000000N 00000000000NCONT   00    00000000000          00000000000000000000000000000000000000000000 000000000000000A000000000000000000000000000000000000000000000 000000000000000000000000000000000000000     00000000                                                                                                                        000000000000000000
F0010000009077700005000080202350700013552100000000000000000201609030002001CONNY DE LA COSTA SAS                             D000000000009600000000000000000000100010010000000000000000000000F0010000009077700520160903000101 00000000000000000000000000000000000000000000000000000000000000000000000000000000000000000000000000000000000000000N 00000000000NCONT   00    00000000000          00000000000000000000000000000000000000000000 000000000000000A000000000000000000000000000000000000000000000 000000000000000000000000000000000000000     00000000                                                                                                                        000000000000000000
F0010000009077800001000102390001700011050500000000000000000201609030002001LILIANA HERNANDEZ PINILLA                         D000000003600000000000000000000000100010010000000000000000000000F0010000009077800120160903000101 00000000000000000000000000000000000000000000000000000000000000000000000000000000000000000000000000000000000000000N 00000000000NCONT   00    00000000000          00000000000000000000000000000000000000000000 000000000000000A000000000000000000000000000000000000000000000 000000000000000000000000000000000000000     00000000                                                                                                                        000000000000000000
F0010000009077800002000102390001700041450500000000000000000201609030002001LILIANA HERNANDEZ PINILLA                         C000000002600000000000000000000000100010010000000000000000000000F0010000009077800220160903000101 00000000000000000000000000000000000000000000000000000000000000000000000000000000000000000000000000000000000000000N 00000000000NCONT   00    00000000000          00000000000000000000000000000000000000000000 000000000000000A000000000000000000000000000000000000000000000 000000000000000000000000000000000000000     00000000                                                                                                                        000000000000000000
F0010000009077800003000102390001700042505000000000000000000201609030002001LILIANA HERNANDEZ PINILLA                         C000000001000000000000000000000000100010010000000000000000000000F0010000009077800320160903000101 00000000000000000000000000000000000000000000000000000000000000000000000000000000000000000000000000000000000000000N 00000000000NCONT   00    00000000000          00000000000000000000000000000000000000000000 000000000000000A000000000000000000000000000000000000000000000 000000000000000000000000000000000000000     00000000                                                                                                                        000000000000000000
F0010000009077800004000102390001700023658300000000000000000201609030002001LILIANA HERNANDEZ PINILLA                         C000000000020800000000000000000000100010010000000000000000000000F0010000009077800420160903000101 00000000000000000000000000000000000000000000000000000000000000000000000000000000000000000000000000000000000000000N 00000000000NCONT   00    00000000000          00000000000000000000000000000000000000000000 000000000000000A000000000000000000000000000000000000000000000 000000000000000000000000000000000000000     00000000                                                                                                                        000000000000000000
F0010000009077800005000102390001700013552100000000000000000201609030002001LILIANA HERNANDEZ PINILLA                         D000000000020800000000000000000000100010010000000000000000000000F0010000009077800520160903000101 00000000000000000000000000000000000000000000000000000000000000000000000000000000000000000000000000000000000000000N 00000000000NCONT   00    00000000000          00000000000000000000000000000000000000000000 000000000000000A000000000000000000000000000000000000000000000 000000000000000000000000000000000000000     00000000                                                                                                                        000000000000000000
F0010000009077900001000000870907300011050500000000000000000201609030002001SURTIDOR FERRETERO                                D000000003300000000000000000000000100010010000000000000000000000F0010000009077900120160903000101 00000000000000000000000000000000000000000000000000000000000000000000000000000000000000000000000000000000000000000N 00000000000NCONT   00    00000000000          00000000000000000000000000000000000000000000 000000000000000A000000000000000000000000000000000000000000000 000000000000000000000000000000000000000     00000000                                                                                                                        000000000000000000
F0010000009077900002000000870907300041450500000000000000000201609030002001SURTIDOR FERRETERO                                C000000002600000000000000000000000100010010000000000000000000000F0010000009077900220160903000101 00000000000000000000000000000000000000000000000000000000000000000000000000000000000000000000000000000000000000000N 00000000000NCONT   00    00000000000          00000000000000000000000000000000000000000000 000000000000000A000000000000000000000000000000000000000000000 000000000000000000000000000000000000000     00000000                                                                                                                        000000000000000000
F0010000009077900003000000870907300042505000000000000000000201609030002001SURTIDOR FERRETERO                                C000000000700000000000000000000000100010010000000000000000000000F0010000009077900320160903000101 00000000000000000000000000000000000000000000000000000000000000000000000000000000000000000000000000000000000000000N 00000000000NCONT   00    00000000000          00000000000000000000000000000000000000000000 000000000000000A000000000000000000000000000000000000000000000 000000000000000000000000000000000000000     00000000                                                                                                                        000000000000000000
F0010000009077900004000000870907300023658300000000000000000201609030002001SURTIDOR FERRETERO                                C000000000020800000000000000000000100010010000000000000000000000F0010000009077900420160903000101 00000000000000000000000000000000000000000000000000000000000000000000000000000000000000000000000000000000000000000N 00000000000NCONT   00    00000000000          00000000000000000000000000000000000000000000 000000000000000A000000000000000000000000000000000000000000000 000000000000000000000000000000000000000     00000000                                                                                                                        000000000000000000
F0010000009077900005000000870907300013552100000000000000000201609030002001SURTIDOR FERRETERO                                D000000000020800000000000000000000100010010000000000000000000000F0010000009077900520160903000101 00000000000000000000000000000000000000000000000000000000000000000000000000000000000000000000000000000000000000000N 00000000000NCONT   00    00000000000          00000000000000000000000000000000000000000000 000000000000000A000000000000000000000000000000000000000000000 000000000000000000000000000000000000000     00000000                                                                                                                        000000000000000000
F0010000009078000001000112957371100011050500000000000000000201609030002001DAGOBERTO CABARCAS ALTAMAR                        D000000026000000000000000000000000100010010000000000000000000000F0010000009078000120160903000101 00000000000000000000000000000000000000000000000000000000000000000000000000000000000000000000000000000000000000000N 00000000000NCONT   00    00000000000          00000000000000000000000000000000000000000000 000000000000000A000000000000000000000000000000000000000000000 000000000000000000000000000000000000000     00000000                                                                                                                        000000000000000000
F0010000009078000002000112957371100041450500000000000000000201609030002001DAGOBERTO CABARCAS ALTAMAR                        C000000025000000000000000000000000100010010000000000000000000000F0010000009078000220160903000101 00000000000000000000000000000000000000000000000000000000000000000000000000000000000000000000000000000000000000000N 00000000000NCONT   00    00000000000          00000000000000000000000000000000000000000000 000000000000000A000000000000000000000000000000000000000000000 000000000000000000000000000000000000000     00000000                                                                                                                        000000000000000000
F0010000009078000003000112957371100042505000000000000000000201609030002001DAGOBERTO CABARCAS ALTAMAR                        C000000001000000000000000000000000100010010000000000000000000000F0010000009078000320160903000101 00000000000000000000000000000000000000000000000000000000000000000000000000000000000000000000000000000000000000000N 00000000000NCONT   00    00000000000          00000000000000000000000000000000000000000000 000000000000000A000000000000000000000000000000000000000000000 000000000000000000000000000000000000000     00000000                                                                                                                        000000000000000000
F0010000009078000004000112957371100023658300000000000000000201609030002001DAGOBERTO CABARCAS ALTAMAR                        C000000000200000000000000000000000100010010000000000000000000000F0010000009078000420160903000101 00000000000000000000000000000000000000000000000000000000000000000000000000000000000000000000000000000000000000000N 00000000000NCONT   00    00000000000          00000000000000000000000000000000000000000000 000000000000000A000000000000000000000000000000000000000000000 000000000000000000000000000000000000000     00000000                                                                                                                        000000000000000000
F0010000009078000005000112957371100013552100000000000000000201609030002001DAGOBERTO CABARCAS ALTAMAR                        D000000000200000000000000000000000100010010000000000000000000000F0010000009078000520160903000101 00000000000000000000000000000000000000000000000000000000000000000000000000000000000000000000000000000000000000000N 00000000000NCONT   00    00000000000          00000000000000000000000000000000000000000000 000000000000000A000000000000000000000000000000000000000000000 000000000000000000000000000000000000000     00000000                                                                                                                        000000000000000000
F0010000009078100001000001022529300011050500000000000000000201609030002001ALBERTO ALVAREZ ISAZA                             D000000000880000000000000000000000100010010000000000000000000000F0010000009078100120160903000101 00000000000000000000000000000000000000000000000000000000000000000000000000000000000000000000000000000000000000000N 00000000000NCONT   00    00000000000          00000000000000000000000000000000000000000000 000000000000000A000000000000000000000000000000000000000000000 000000000000000000000000000000000000000     00000000                                                                                                                        000000000000000000
F0010000009078100002000001022529300041450500000000000000000201609030002001ALBERTO ALVAREZ ISAZA                             C000000000880000000000000000000000100010010000000000000000000000F0010000009078100220160903000101 00000000000000000000000000000000000000000000000000000000000000000000000000000000000000000000000000000000000000000N 00000000000NCONT   00    00000000000          00000000000000000000000000000000000000000000 000000000000000A000000000000000000000000000000000000000000000 000000000000000000000000000000000000000     00000000                                                                                                                        000000000000000000
F0010000009078100003000001022529300042505000000000000000000201609030002001ALBERTO ALVAREZ ISAZA                             C000000000000000000000000000000000100010010000000000000000000000F0010000009078100320160903000101 00000000000000000000000000000000000000000000000000000000000000000000000000000000000000000000000000000000000000000N 00000000000NCONT   00    00000000000          00000000000000000000000000000000000000000000 000000000000000A000000000000000000000000000000000000000000000 000000000000000000000000000000000000000     00000000                                                                                                                        000000000000000000
F0010000009078100004000001022529300023658300000000000000000201609030002001ALBERTO ALVAREZ ISAZA                             C000000000007000000000000000000000100010010000000000000000000000F0010000009078100420160903000101 00000000000000000000000000000000000000000000000000000000000000000000000000000000000000000000000000000000000000000N 00000000000NCONT   00    00000000000          00000000000000000000000000000000000000000000 000000000000000A000000000000000000000000000000000000000000000 000000000000000000000000000000000000000     00000000                                                                                                                        000000000000000000
F0010000009078100005000001022529300013552100000000000000000201609030002001ALBERTO ALVAREZ ISAZA                             D000000000007000000000000000000000100010010000000000000000000000F0010000009078100520160903000101 00000000000000000000000000000000000000000000000000000000000000000000000000000000000000000000000000000000000000000N 00000000000NCONT   00    00000000000          00000000000000000000000000000000000000000000 000000000000000A000000000000000000000000000000000000000000000 000000000000000000000000000000000000000     00000000                                                                                                                        000000000000000000
F0010000009078200001000001022529300011050500000000000000000201609030002001ALBERTO ALVAREZ ISAZA                             D000000001400000000000000000000000100010010000000000000000000000F0010000009078200120160903000101 00000000000000000000000000000000000000000000000000000000000000000000000000000000000000000000000000000000000000000N 00000000000NCONT   00    00000000000          00000000000000000000000000000000000000000000 000000000000000A000000000000000000000000000000000000000000000 000000000000000000000000000000000000000     00000000                                                                                                                        000000000000000000
F0010000009078200002000001022529300041450500000000000000000201609030002001ALBERTO ALVAREZ ISAZA                             C000000001400000000000000000000000100010010000000000000000000000F0010000009078200220160903000101 00000000000000000000000000000000000000000000000000000000000000000000000000000000000000000000000000000000000000000N 00000000000NCONT   00    00000000000          00000000000000000000000000000000000000000000 000000000000000A000000000000000000000000000000000000000000000 000000000000000000000000000000000000000     00000000                                                                                                                        000000000000000000
F0010000009078200003000001022529300042505000000000000000000201609030002001ALBERTO ALVAREZ ISAZA                             C000000000000000000000000000000000100010010000000000000000000000F0010000009078200320160903000101 00000000000000000000000000000000000000000000000000000000000000000000000000000000000000000000000000000000000000000N 00000000000NCONT   00    00000000000          00000000000000000000000000000000000000000000 000000000000000A000000000000000000000000000000000000000000000 000000000000000000000000000000000000000     00000000                                                                                                                        000000000000000000
F0010000009078200004000001022529300023658300000000000000000201609030002001ALBERTO ALVAREZ ISAZA                             C000000000011200000000000000000000100010010000000000000000000000F0010000009078200420160903000101 00000000000000000000000000000000000000000000000000000000000000000000000000000000000000000000000000000000000000000N 00000000000NCONT   00    00000000000          00000000000000000000000000000000000000000000 000000000000000A000000000000000000000000000000000000000000000 000000000000000000000000000000000000000     00000000                                                                                                                        000000000000000000
F0010000009078200005000001022529300013552100000000000000000201609030002001ALBERTO ALVAREZ ISAZA                             D000000000011200000000000000000000100010010000000000000000000000F0010000009078200520160903000101 00000000000000000000000000000000000000000000000000000000000000000000000000000000000000000000000000000000000000000N 00000000000NCONT   00    00000000000          00000000000000000000000000000000000000000000 000000000000000A000000000000000000000000000000000000000000000 000000000000000000000000000000000000000     00000000                                                                                                                        000000000000000000
F0010000009078300001000004175790100011050500000000000000000201609030002001ROSIRIS FERIA HOYOS  (COSM. SHILLER)              D000000001200000000000000000000000100010010000000000000000000000F0010000009078300120160903000101 00000000000000000000000000000000000000000000000000000000000000000000000000000000000000000000000000000000000000000N 00000000000NCONT   00    00000000000          00000000000000000000000000000000000000000000 000000000000000A000000000000000000000000000000000000000000000 000000000000000000000000000000000000000     00000000                                                                                                                        000000000000000000
F0010000009078300002000004175790100041450500000000000000000201609030002001ROSIRIS FERIA HOYOS  (COSM. SHILLER)              C000000001100000000000000000000000100010010000000000000000000000F0010000009078300220160903000101 00000000000000000000000000000000000000000000000000000000000000000000000000000000000000000000000000000000000000000N 00000000000NCONT   00    00000000000          00000000000000000000000000000000000000000000 000000000000000A000000000000000000000000000000000000000000000 000000000000000000000000000000000000000     00000000                                                                                                                        000000000000000000
F0010000009078300003000004175790100042505000000000000000000201609030002001ROSIRIS FERIA HOYOS  (COSM. SHILLER)              C000000000100000000000000000000000100010010000000000000000000000F0010000009078300320160903000101 00000000000000000000000000000000000000000000000000000000000000000000000000000000000000000000000000000000000000000N 00000000000NCONT   00    00000000000          00000000000000000000000000000000000000000000 000000000000000A000000000000000000000000000000000000000000000 000000000000000000000000000000000000000     00000000                                                                                                                        000000000000000000
F0010000009078300004000004175790100023658300000000000000000201609030002001ROSIRIS FERIA HOYOS  (COSM. SHILLER)              C000000000008800000000000000000000100010010000000000000000000000F0010000009078300420160903000101 00000000000000000000000000000000000000000000000000000000000000000000000000000000000000000000000000000000000000000N 00000000000NCONT   00    00000000000          00000000000000000000000000000000000000000000 000000000000000A000000000000000000000000000000000000000000000 000000000000000000000000000000000000000     00000000                                                                                                                        000000000000000000
F0010000009078300005000004175790100013552100000000000000000201609030002001ROSIRIS FERIA HOYOS  (COSM. SHILLER)              D000000000008800000000000000000000100010010000000000000000000000F0010000009078300520160903000101 00000000000000000000000000000000000000000000000000000000000000000000000000000000000000000000000000000000000000000N 00000000000NCONT   00    00000000000          00000000000000000000000000000000000000000000 000000000000000A000000000000000000000000000000000000000000000 000000000000000000000000000000000000000     00000000                                                                                                                        000000000000000000
F0010000009078400001000004175790100011050500000000000000000201609030002001ROSIRIS FERIA HOYOS  (COSM. SHILLER)              D000000001400000000000000000000000100010010000000000000000000000F0010000009078400120160903000101 00000000000000000000000000000000000000000000000000000000000000000000000000000000000000000000000000000000000000000N 00000000000NCONT   00    00000000000          00000000000000000000000000000000000000000000 000000000000000A000000000000000000000000000000000000000000000 000000000000000000000000000000000000000     00000000                                                                                                                        000000000000000000
F0010000009078400002000004175790100041450500000000000000000201609030002001ROSIRIS FERIA HOYOS  (COSM. SHILLER)              C000000001300000000000000000000000100010010000000000000000000000F0010000009078400220160903000101 00000000000000000000000000000000000000000000000000000000000000000000000000000000000000000000000000000000000000000N 00000000000NCONT   00    00000000000          00000000000000000000000000000000000000000000 000000000000000A000000000000000000000000000000000000000000000 000000000000000000000000000000000000000     00000000                                                                                                                        000000000000000000
F0010000009078400003000004175790100042505000000000000000000201609030002001ROSIRIS FERIA HOYOS  (COSM. SHILLER)              C000000000100000000000000000000000100010010000000000000000000000F0010000009078400320160903000101 00000000000000000000000000000000000000000000000000000000000000000000000000000000000000000000000000000000000000000N 00000000000NCONT   00    00000000000          00000000000000000000000000000000000000000000 000000000000000A000000000000000000000000000000000000000000000 000000000000000000000000000000000000000     00000000                                                                                                                        000000000000000000
F0010000009078400004000004175790100023658300000000000000000201609030002001ROSIRIS FERIA HOYOS  (COSM. SHILLER)              C000000000010400000000000000000000100010010000000000000000000000F0010000009078400420160903000101 00000000000000000000000000000000000000000000000000000000000000000000000000000000000000000000000000000000000000000N 00000000000NCONT   00    00000000000          00000000000000000000000000000000000000000000 000000000000000A000000000000000000000000000000000000000000000 000000000000000000000000000000000000000     00000000                                                                                                                        000000000000000000
F0010000009078400005000004175790100013552100000000000000000201609030002001ROSIRIS FERIA HOYOS  (COSM. SHILLER)              D000000000010400000000000000000000100010010000000000000000000000F0010000009078400520160903000101 00000000000000000000000000000000000000000000000000000000000000000000000000000000000000000000000000000000000000000N 00000000000NCONT   00    00000000000          00000000000000000000000000000000000000000000 000000000000000A000000000000000000000000000000000000000000000 000000000000000000000000000000000000000     00000000                                                                                                                        000000000000000000
F0010000009078500001000004175790100011050500000000000000000201609030002001ROSIRIS FERIA HOYOS  (COSM. SHILLER)              D000000001400000000000000000000000100010010000000000000000000000F0010000009078500120160903000101 00000000000000000000000000000000000000000000000000000000000000000000000000000000000000000000000000000000000000000N 00000000000NCONT   00    00000000000          00000000000000000000000000000000000000000000 000000000000000A000000000000000000000000000000000000000000000 000000000000000000000000000000000000000     00000000                                                                                                                        000000000000000000
F0010000009078500002000004175790100041450500000000000000000201609030002001ROSIRIS FERIA HOYOS  (COSM. SHILLER)              C000000001300000000000000000000000100010010000000000000000000000F0010000009078500220160903000101 00000000000000000000000000000000000000000000000000000000000000000000000000000000000000000000000000000000000000000N 00000000000NCONT   00    00000000000          00000000000000000000000000000000000000000000 000000000000000A000000000000000000000000000000000000000000000 000000000000000000000000000000000000000     00000000                                                                                                                        000000000000000000
F0010000009078500003000004175790100042505000000000000000000201609030002001ROSIRIS FERIA HOYOS  (COSM. SHILLER)              C000000000100000000000000000000000100010010000000000000000000000F0010000009078500320160903000101 00000000000000000000000000000000000000000000000000000000000000000000000000000000000000000000000000000000000000000N 00000000000NCONT   00    00000000000          00000000000000000000000000000000000000000000 000000000000000A000000000000000000000000000000000000000000000 000000000000000000000000000000000000000     00000000                                                                                                                        000000000000000000
F0010000009078500004000004175790100023658300000000000000000201609030002001ROSIRIS FERIA HOYOS  (COSM. SHILLER)              C000000000010400000000000000000000100010010000000000000000000000F0010000009078500420160903000101 00000000000000000000000000000000000000000000000000000000000000000000000000000000000000000000000000000000000000000N 00000000000NCONT   00    00000000000          00000000000000000000000000000000000000000000 000000000000000A000000000000000000000000000000000000000000000 000000000000000000000000000000000000000     00000000                                                                                                                        000000000000000000
F0010000009078500005000004175790100013552100000000000000000201609030002001ROSIRIS FERIA HOYOS  (COSM. SHILLER)              D000000000010400000000000000000000100010010000000000000000000000F0010000009078500520160903000101 00000000000000000000000000000000000000000000000000000000000000000000000000000000000000000000000000000000000000000N 00000000000NCONT   00    00000000000          00000000000000000000000000000000000000000000 000000000000000A000000000000000000000000000000000000000000000 000000000000000000000000000000000000000     00000000                                                                                                                        000000000000000000
F0010000009078600001000004175790100011050500000000000000000201609030002001ROSIRIS FERIA HOYOS  (COSM. SHILLER)              D000000001400000000000000000000000100010010000000000000000000000F0010000009078600120160903000101 00000000000000000000000000000000000000000000000000000000000000000000000000000000000000000000000000000000000000000N 00000000000NCONT   00    00000000000          00000000000000000000000000000000000000000000 000000000000000A000000000000000000000000000000000000000000000 000000000000000000000000000000000000000     00000000                                                                                                                        000000000000000000
F0010000009078600002000004175790100041450500000000000000000201609030002001ROSIRIS FERIA HOYOS  (COSM. SHILLER)              C000000001300000000000000000000000100010010000000000000000000000F0010000009078600220160903000101 00000000000000000000000000000000000000000000000000000000000000000000000000000000000000000000000000000000000000000N 00000000000NCONT   00    00000000000          00000000000000000000000000000000000000000000 000000000000000A000000000000000000000000000000000000000000000 000000000000000000000000000000000000000     00000000                                                                                                                        000000000000000000
F0010000009078600003000004175790100042505000000000000000000201609030002001ROSIRIS FERIA HOYOS  (COSM. SHILLER)              C000000000100000000000000000000000100010010000000000000000000000F0010000009078600320160903000101 00000000000000000000000000000000000000000000000000000000000000000000000000000000000000000000000000000000000000000N 00000000000NCONT   00    00000000000          00000000000000000000000000000000000000000000 000000000000000A000000000000000000000000000000000000000000000 000000000000000000000000000000000000000     00000000                                                                                                                        000000000000000000
F0010000009078600004000004175790100023658300000000000000000201609030002001ROSIRIS FERIA HOYOS  (COSM. SHILLER)              C000000000010400000000000000000000100010010000000000000000000000F0010000009078600420160903000101 00000000000000000000000000000000000000000000000000000000000000000000000000000000000000000000000000000000000000000N 00000000000NCONT   00    00000000000          00000000000000000000000000000000000000000000 000000000000000A000000000000000000000000000000000000000000000 000000000000000000000000000000000000000     00000000                                                                                                                        000000000000000000
F0010000009078600005000004175790100013552100000000000000000201609030002001ROSIRIS FERIA HOYOS  (COSM. SHILLER)              D000000000010400000000000000000000100010010000000000000000000000F0010000009078600520160903000101 00000000000000000000000000000000000000000000000000000000000000000000000000000000000000000000000000000000000000000N 00000000000NCONT   00    00000000000          00000000000000000000000000000000000000000000 000000000000000A000000000000000000000000000000000000000000000 000000000000000000000000000000000000000     00000000                                                                                                                        000000000000000000
F0010000009078700001000007200023300011050500000000000000000201609030002001WILLIAM ORTEGA                                    D000000003300000000000000000000000100010010000000000000000000000F0010000009078700120160903000101 00000000000000000000000000000000000000000000000000000000000000000000000000000000000000000000000000000000000000000N 00000000000NCONT   00    00000000000          00000000000000000000000000000000000000000000 000000000000000A000000000000000000000000000000000000000000000 000000000000000000000000000000000000000     00000000                                                                                                                        000000000000000000
F0010000009078700002000007200023300041450500000000000000000201609030002001WILLIAM ORTEGA                                    C000000003000000000000000000000000100010010000000000000000000000F0010000009078700220160903000101 00000000000000000000000000000000000000000000000000000000000000000000000000000000000000000000000000000000000000000N 00000000000NCONT   00    00000000000          00000000000000000000000000000000000000000000 000000000000000A000000000000000000000000000000000000000000000 000000000000000000000000000000000000000     00000000                                                                                                                        000000000000000000
F0010000009078700003000007200023300042505000000000000000000201609030002001WILLIAM ORTEGA                                    C000000000300000000000000000000000100010010000000000000000000000F0010000009078700320160903000101 00000000000000000000000000000000000000000000000000000000000000000000000000000000000000000000000000000000000000000N 00000000000NCONT   00    00000000000          00000000000000000000000000000000000000000000 000000000000000A000000000000000000000000000000000000000000000 000000000000000000000000000000000000000     00000000                                                                                                                        000000000000000000
F0010000009078700004000007200023300023658300000000000000000201609030002001WILLIAM ORTEGA                                    C000000000024000000000000000000000100010010000000000000000000000F0010000009078700420160903000101 00000000000000000000000000000000000000000000000000000000000000000000000000000000000000000000000000000000000000000N 00000000000NCONT   00    00000000000          00000000000000000000000000000000000000000000 000000000000000A000000000000000000000000000000000000000000000 000000000000000000000000000000000000000     00000000                                                                                                                        000000000000000000
F0010000009078700005000007200023300013552100000000000000000201609030002001WILLIAM ORTEGA                                    D000000000024000000000000000000000100010010000000000000000000000F0010000009078700520160903000101 00000000000000000000000000000000000000000000000000000000000000000000000000000000000000000000000000000000000000000N 00000000000NCONT   00    00000000000          00000000000000000000000000000000000000000000 000000000000000A000000000000000000000000000000000000000000000 000000000000000000000000000000000000000     00000000                                                                                                                        000000000000000000
F0010000009078800001000007200023300011050500000000000000000201609030002001WILLIAM ORTEGA                                    D000000002300000000000000000000000100010010000000000000000000000F0010000009078800120160903000101 00000000000000000000000000000000000000000000000000000000000000000000000000000000000000000000000000000000000000000N 00000000000NCONT   00    00000000000          00000000000000000000000000000000000000000000 000000000000000A000000000000000000000000000000000000000000000 000000000000000000000000000000000000000     00000000                                                                                                                        000000000000000000
F0010000009078800002000007200023300041450500000000000000000201609030002001WILLIAM ORTEGA                                    C000000002000000000000000000000000100010010000000000000000000000F0010000009078800220160903000101 00000000000000000000000000000000000000000000000000000000000000000000000000000000000000000000000000000000000000000N 00000000000NCONT   00    00000000000          00000000000000000000000000000000000000000000 000000000000000A000000000000000000000000000000000000000000000 000000000000000000000000000000000000000     00000000                                                                                                                        000000000000000000
F0010000009078800003000007200023300042505000000000000000000201609030002001WILLIAM ORTEGA                                    C000000000300000000000000000000000100010010000000000000000000000F0010000009078800320160903000101 00000000000000000000000000000000000000000000000000000000000000000000000000000000000000000000000000000000000000000N 00000000000NCONT   00    00000000000          00000000000000000000000000000000000000000000 000000000000000A000000000000000000000000000000000000000000000 000000000000000000000000000000000000000     00000000                                                                                                                        000000000000000000
F0010000009078800004000007200023300023658300000000000000000201609030002001WILLIAM ORTEGA                                    C000000000016000000000000000000000100010010000000000000000000000F0010000009078800420160903000101 00000000000000000000000000000000000000000000000000000000000000000000000000000000000000000000000000000000000000000N 00000000000NCONT   00    00000000000          00000000000000000000000000000000000000000000 000000000000000A000000000000000000000000000000000000000000000 000000000000000000000000000000000000000     00000000                                                                                                                        000000000000000000
F0010000009078800005000007200023300013552100000000000000000201609030002001WILLIAM ORTEGA                                    D000000000016000000000000000000000100010010000000000000000000000F0010000009078800520160903000101 00000000000000000000000000000000000000000000000000000000000000000000000000000000000000000000000000000000000000000N 00000000000NCONT   00    00000000000          00000000000000000000000000000000000000000000 000000000000000A000000000000000000000000000000000000000000000 000000000000000000000000000000000000000     00000000                                                                                                                        000000000000000000
F0010000009078900001000007221137900011050500000000000000000201609030002001CARLOS POLO                                       D000000001400000000000000000000000100010010000000000000000000000F0010000009078900120160903000101 00000000000000000000000000000000000000000000000000000000000000000000000000000000000000000000000000000000000000000N 00000000000NCONT   00    00000000000          00000000000000000000000000000000000000000000 000000000000000A000000000000000000000000000000000000000000000 000000000000000000000000000000000000000     00000000                                                                                                                        000000000000000000
F0010000009078900002000007221137900041450500000000000000000201609030002001CARLOS POLO                                       C000000001200000000000000000000000100010010000000000000000000000F0010000009078900220160903000101 00000000000000000000000000000000000000000000000000000000000000000000000000000000000000000000000000000000000000000N 00000000000NCONT   00    00000000000          00000000000000000000000000000000000000000000 000000000000000A000000000000000000000000000000000000000000000 000000000000000000000000000000000000000     00000000                                                                                                                        000000000000000000
F0010000009078900003000007221137900042505000000000000000000201609030002001CARLOS POLO                                       C000000000200000000000000000000000100010010000000000000000000000F0010000009078900320160903000101 00000000000000000000000000000000000000000000000000000000000000000000000000000000000000000000000000000000000000000N 00000000000NCONT   00    00000000000          00000000000000000000000000000000000000000000 000000000000000A000000000000000000000000000000000000000000000 000000000000000000000000000000000000000     00000000                                                                                                                        000000000000000000
F0010000009078900004000007221137900023658300000000000000000201609030002001CARLOS POLO                                       C000000000009600000000000000000000100010010000000000000000000000F0010000009078900420160903000101 00000000000000000000000000000000000000000000000000000000000000000000000000000000000000000000000000000000000000000N 00000000000NCONT   00    00000000000          00000000000000000000000000000000000000000000 000000000000000A000000000000000000000000000000000000000000000 000000000000000000000000000000000000000     00000000                                                                                                                        000000000000000000
F0010000009078900005000007221137900013552100000000000000000201609030002001CARLOS POLO                                       D000000000009600000000000000000000100010010000000000000000000000F0010000009078900520160903000101 00000000000000000000000000000000000000000000000000000000000000000000000000000000000000000000000000000000000000000N 00000000000NCONT   00    00000000000          00000000000000000000000000000000000000000000 000000000000000A000000000000000000000000000000000000000000000 000000000000000000000000000000000000000     00000000                                                                                                                        000000000000000000
F0010000009079000001000007221137900011050500000000000000000201609030002001CARLOS POLO                                       D000000002200000000000000000000000100010010000000000000000000000F0010000009079000120160903000101 00000000000000000000000000000000000000000000000000000000000000000000000000000000000000000000000000000000000000000N 00000000000NCONT   00    00000000000          00000000000000000000000000000000000000000000 000000000000000A000000000000000000000000000000000000000000000 000000000000000000000000000000000000000     00000000                                                                                                                        000000000000000000
F0010000009079000002000007221137900041450500000000000000000201609030002001CARLOS POLO                                       C000000001200000000000000000000000100010010000000000000000000000F0010000009079000220160903000101 00000000000000000000000000000000000000000000000000000000000000000000000000000000000000000000000000000000000000000N 00000000000NCONT   00    00000000000          00000000000000000000000000000000000000000000 000000000000000A000000000000000000000000000000000000000000000 000000000000000000000000000000000000000     00000000                                                                                                                        000000000000000000
F0010000009079000003000007221137900042505000000000000000000201609030002001CARLOS POLO                                       C000000001000000000000000000000000100010010000000000000000000000F0010000009079000320160903000101 00000000000000000000000000000000000000000000000000000000000000000000000000000000000000000000000000000000000000000N 00000000000NCONT   00    00000000000          00000000000000000000000000000000000000000000 000000000000000A000000000000000000000000000000000000000000000 000000000000000000000000000000000000000     00000000                                                                                                                        000000000000000000
F0010000009079000004000007221137900023658300000000000000000201609030002001CARLOS POLO                                       C000000000009600000000000000000000100010010000000000000000000000F0010000009079000420160903000101 00000000000000000000000000000000000000000000000000000000000000000000000000000000000000000000000000000000000000000N 00000000000NCONT   00    00000000000          00000000000000000000000000000000000000000000 000000000000000A000000000000000000000000000000000000000000000 000000000000000000000000000000000000000     00000000                                                                                                                        000000000000000000
F0010000009079000005000007221137900013552100000000000000000201609030002001CARLOS POLO                                       D000000000009600000000000000000000100010010000000000000000000000F0010000009079000520160903000101 00000000000000000000000000000000000000000000000000000000000000000000000000000000000000000000000000000000000000000N 00000000000NCONT   00    00000000000          00000000000000000000000000000000000000000000 000000000000000A000000000000000000000000000000000000000000000 000000000000000000000000000000000000000     00000000                                                                                                                        000000000000000000
F0010000009079100001000007221137900011050500000000000000000201609030002001CARLOS POLO                                       D000000002200000000000000000000000100010010000000000000000000000F0010000009079100120160903000101 00000000000000000000000000000000000000000000000000000000000000000000000000000000000000000000000000000000000000000N 00000000000NCONT   00    00000000000          00000000000000000000000000000000000000000000 000000000000000A000000000000000000000000000000000000000000000 000000000000000000000000000000000000000     00000000                                                                                                                        000000000000000000
F0010000009079100002000007221137900041450500000000000000000201609030002001CARLOS POLO                                       C000000001200000000000000000000000100010010000000000000000000000F0010000009079100220160903000101 00000000000000000000000000000000000000000000000000000000000000000000000000000000000000000000000000000000000000000N 00000000000NCONT   00    00000000000          00000000000000000000000000000000000000000000 000000000000000A000000000000000000000000000000000000000000000 000000000000000000000000000000000000000     00000000                                                                                                                        000000000000000000
F0010000009079100003000007221137900042505000000000000000000201609030002001CARLOS POLO                                       C000000001000000000000000000000000100010010000000000000000000000F0010000009079100320160903000101 00000000000000000000000000000000000000000000000000000000000000000000000000000000000000000000000000000000000000000N 00000000000NCONT   00    00000000000          00000000000000000000000000000000000000000000 000000000000000A000000000000000000000000000000000000000000000 000000000000000000000000000000000000000     00000000                                                                                                                        000000000000000000
F0010000009079100004000007221137900023658300000000000000000201609030002001CARLOS POLO                                       C000000000009600000000000000000000100010010000000000000000000000F0010000009079100420160903000101 00000000000000000000000000000000000000000000000000000000000000000000000000000000000000000000000000000000000000000N 00000000000NCONT   00    00000000000          00000000000000000000000000000000000000000000 000000000000000A000000000000000000000000000000000000000000000 000000000000000000000000000000000000000     00000000                                                                                                                        000000000000000000
F0010000009079100005000007221137900013552100000000000000000201609030002001CARLOS POLO                                       D000000000009600000000000000000000100010010000000000000000000000F0010000009079100520160903000101 00000000000000000000000000000000000000000000000000000000000000000000000000000000000000000000000000000000000000000N 00000000000NCONT   00    00000000000          00000000000000000000000000000000000000000000 000000000000000A000000000000000000000000000000000000000000000 000000000000000000000000000000000000000     00000000                                                                                                                        000000000000000000
F0010000009079200001000007221137900011050500000000000000000201609030002001CARLOS POLO                                       D000000002500000000000000000000000100010010000000000000000000000F0010000009079200120160903000101 00000000000000000000000000000000000000000000000000000000000000000000000000000000000000000000000000000000000000000N 00000000000NCONT   00    00000000000          00000000000000000000000000000000000000000000 000000000000000A000000000000000000000000000000000000000000000 000000000000000000000000000000000000000     00000000                                                                                                                        000000000000000000
F0010000009079200002000007221137900041450500000000000000000201609030002001CARLOS POLO                                       C000000002200000000000000000000000100010010000000000000000000000F0010000009079200220160903000101 00000000000000000000000000000000000000000000000000000000000000000000000000000000000000000000000000000000000000000N 00000000000NCONT   00    00000000000          00000000000000000000000000000000000000000000 000000000000000A000000000000000000000000000000000000000000000 000000000000000000000000000000000000000     00000000                                                                                                                        000000000000000000
F0010000009079200003000007221137900042505000000000000000000201609030002001CARLOS POLO                                       C000000000300000000000000000000000100010010000000000000000000000F0010000009079200320160903000101 00000000000000000000000000000000000000000000000000000000000000000000000000000000000000000000000000000000000000000N 00000000000NCONT   00    00000000000          00000000000000000000000000000000000000000000 000000000000000A000000000000000000000000000000000000000000000 000000000000000000000000000000000000000     00000000                                                                                                                        000000000000000000
F0010000009079200004000007221137900023658300000000000000000201609030002001CARLOS POLO                                       C000000000017600000000000000000000100010010000000000000000000000F0010000009079200420160903000101 00000000000000000000000000000000000000000000000000000000000000000000000000000000000000000000000000000000000000000N 00000000000NCONT   00    00000000000          00000000000000000000000000000000000000000000 000000000000000A000000000000000000000000000000000000000000000 000000000000000000000000000000000000000     00000000                                                                                                                        000000000000000000
F0010000009079200005000007221137900013552100000000000000000201609030002001CARLOS POLO                                       D000000000017600000000000000000000100010010000000000000000000000F0010000009079200520160903000101 00000000000000000000000000000000000000000000000000000000000000000000000000000000000000000000000000000000000000000N 00000000000NCONT   00    00000000000          00000000000000000000000000000000000000000000 000000000000000A000000000000000000000000000000000000000000000 000000000000000000000000000000000000000     00000000                                                                                                                        000000000000000000
F0010000009079300001000000871573200011050500000000000000000201609030002001ACCESORIAS ARQUITECTONI KJ                        D000000002000000000000000000000000100010010000000000000000000000F0010000009079300120160903000101 00000000000000000000000000000000000000000000000000000000000000000000000000000000000000000000000000000000000000000N 00000000000NCONT   00    00000000000          00000000000000000000000000000000000000000000 000000000000000A000000000000000000000000000000000000000000000 000000000000000000000000000000000000000     00000000                                                                                                                        000000000000000000
F0010000009079300002000000871573200041450500000000000000000201609030002001ACCESORIAS ARQUITECTONI KJ                        C000000001300000000000000000000000100010010000000000000000000000F0010000009079300220160903000101 00000000000000000000000000000000000000000000000000000000000000000000000000000000000000000000000000000000000000000N 00000000000NCONT   00    00000000000          00000000000000000000000000000000000000000000 000000000000000A000000000000000000000000000000000000000000000 000000000000000000000000000000000000000     00000000                                                                                                                        000000000000000000
F0010000009079300003000000871573200042505000000000000000000201609030002001ACCESORIAS ARQUITECTONI KJ                        C000000000700000000000000000000000100010010000000000000000000000F0010000009079300320160903000101 00000000000000000000000000000000000000000000000000000000000000000000000000000000000000000000000000000000000000000N 00000000000NCONT   00    00000000000          00000000000000000000000000000000000000000000 000000000000000A000000000000000000000000000000000000000000000 000000000000000000000000000000000000000     00000000                                                                                                                        000000000000000000
F0010000009079300004000000871573200023658300000000000000000201609030002001ACCESORIAS ARQUITECTONI KJ                        C000000000010400000000000000000000100010010000000000000000000000F0010000009079300420160903000101 00000000000000000000000000000000000000000000000000000000000000000000000000000000000000000000000000000000000000000N 00000000000NCONT   00    00000000000          00000000000000000000000000000000000000000000 000000000000000A000000000000000000000000000000000000000000000 000000000000000000000000000000000000000     00000000                                                                                                                        000000000000000000
F0010000009079300005000000871573200013552100000000000000000201609030002001ACCESORIAS ARQUITECTONI KJ                        D000000000010400000000000000000000100010010000000000000000000000F0010000009079300520160903000101 00000000000000000000000000000000000000000000000000000000000000000000000000000000000000000000000000000000000000000N 00000000000NCONT   00    00000000000          00000000000000000000000000000000000000000000 000000000000000A000000000000000000000000000000000000000000000 000000000000000000000000000000000000000     00000000                                                                                                                        000000000000000000
F0010000009079400001000000871573200011050500000000000000000201609030002001ACCESORIAS ARQUITECTONI KJ                        D000000008000000000000000000000000100010010000000000000000000000F0010000009079400120160903000101 00000000000000000000000000000000000000000000000000000000000000000000000000000000000000000000000000000000000000000N 00000000000NCONT   00    00000000000          00000000000000000000000000000000000000000000 000000000000000A000000000000000000000000000000000000000000000 000000000000000000000000000000000000000     00000000                                                                                                                        000000000000000000
F0010000009079400002000000871573200041450500000000000000000201609030002001ACCESORIAS ARQUITECTONI KJ                        C000000004000000000000000000000000100010010000000000000000000000F0010000009079400220160903000101 00000000000000000000000000000000000000000000000000000000000000000000000000000000000000000000000000000000000000000N 00000000000NCONT   00    00000000000          00000000000000000000000000000000000000000000 000000000000000A000000000000000000000000000000000000000000000 000000000000000000000000000000000000000     00000000                                                                                                                        000000000000000000
F0010000009079400003000000871573200042505000000000000000000201609030002001ACCESORIAS ARQUITECTONI KJ                        C000000004000000000000000000000000100010010000000000000000000000F0010000009079400320160903000101 00000000000000000000000000000000000000000000000000000000000000000000000000000000000000000000000000000000000000000N 00000000000NCONT   00    00000000000          00000000000000000000000000000000000000000000 000000000000000A000000000000000000000000000000000000000000000 000000000000000000000000000000000000000     00000000                                                                                                                        000000000000000000
F0010000009079400004000000871573200023658300000000000000000201609030002001ACCESORIAS ARQUITECTONI KJ                        C000000000032000000000000000000000100010010000000000000000000000F0010000009079400420160903000101 00000000000000000000000000000000000000000000000000000000000000000000000000000000000000000000000000000000000000000N 00000000000NCONT   00    00000000000          00000000000000000000000000000000000000000000 000000000000000A000000000000000000000000000000000000000000000 000000000000000000000000000000000000000     00000000                                                                                                                        000000000000000000
F0010000009079400005000000871573200013552100000000000000000201609030002001ACCESORIAS ARQUITECTONI KJ                        D000000000032000000000000000000000100010010000000000000000000000F0010000009079400520160903000101 00000000000000000000000000000000000000000000000000000000000000000000000000000000000000000000000000000000000000000N 00000000000NCONT   00    00000000000          00000000000000000000000000000000000000000000 000000000000000A000000000000000000000000000000000000000000000 000000000000000000000000000000000000000     00000000                                                                                                                        000000000000000000
F0010000009079500001000009120302700011050500000000000000000201609030002001CALZADO REY ESTEBAN                               D000000004200000000000000000000000100010010000000000000000000000F0010000009079500120160903000101 00000000000000000000000000000000000000000000000000000000000000000000000000000000000000000000000000000000000000000N 00000000000NCONT   00    00000000000          00000000000000000000000000000000000000000000 000000000000000A000000000000000000000000000000000000000000000 000000000000000000000000000000000000000     00000000                                                                                                                        000000000000000000
F0010000009079500002000009120302700041450500000000000000000201609030002001CALZADO REY ESTEBAN                               C000000003000000000000000000000000100010010000000000000000000000F0010000009079500220160903000101 00000000000000000000000000000000000000000000000000000000000000000000000000000000000000000000000000000000000000000N 00000000000NCONT   00    00000000000          00000000000000000000000000000000000000000000 000000000000000A000000000000000000000000000000000000000000000 000000000000000000000000000000000000000     00000000                                                                                                                        000000000000000000
