F0010000006727800001000089011033000011050500000000000000000201501230002001INDUSTRIAS CRUZ & CAÑON LTDA                     D000000006500000000000000000000000100010010000000000000000000000F0010000006727800120150123000101 00000000000000000000000000000000000000000000000000000000000000000000000000000000000000000000000000000000000000000N 00000000000NCONT   00    00000000000          00000000000000000000000000000000000000000000 000000000000000A000000000000000000000000000000000000000000000 000000000000000000000000000000000000000     00000000                                                                                                                        000000000000000000
F0010000006727800002000089011033000041450500000000000000000201501230002001INDUSTRIAS CRUZ & CAÑON LTDA                     C000000006000000000000000000000000100010010000000000000000000000F0010000006727800220150123000101 00000000000000000000000000000000000000000000000000000000000000000000000000000000000000000000000000000000000000000N 00000000000NCONT   00    00000000000          00000000000000000000000000000000000000000000 000000000000000A000000000000000000000000000000000000000000000 000000000000000000000000000000000000000     00000000                                                                                                                        000000000000000000
F0010000006727800003000089011033000042505000000000000000000201501230002001INDUSTRIAS CRUZ & CAÑON LTDA                     C000000000500000000000000000000000100010010000000000000000000000F0010000006727800320150123000101 00000000000000000000000000000000000000000000000000000000000000000000000000000000000000000000000000000000000000000N 00000000000NCONT   00    00000000000          00000000000000000000000000000000000000000000 000000000000000A000000000000000000000000000000000000000000000 000000000000000000000000000000000000000     00000000                                                                                                                        000000000000000000
F0010000006727800004000089011033000023658300000000000000000201501230002001INDUSTRIAS CRUZ & CAÑON LTDA                     C000000000048000000000000000000000100010010000000000000000000000F0010000006727800420150123000101 00000000000000000000000000000000000000000000000000000000000000000000000000000000000000000000000000000000000000000N 00000000000NCONT   00    00000000000          00000000000000000000000000000000000000000000 000000000000000A000000000000000000000000000000000000000000000 000000000000000000000000000000000000000     00000000                                                                                                                        000000000000000000
F0010000006727800005000089011033000013552100000000000000000201501230002001INDUSTRIAS CRUZ & CAÑON LTDA                     D000000000048000000000000000000000100010010000000000000000000000F0010000006727800520150123000101 00000000000000000000000000000000000000000000000000000000000000000000000000000000000000000000000000000000000000000N 00000000000NCONT   00    00000000000          00000000000000000000000000000000000000000000 000000000000000A000000000000000000000000000000000000000000000 000000000000000000000000000000000000000     00000000                                                                                                                        000000000000000000
F0010000006727900001000090020547900011050500000000000000000201501230002001DAC DEL CARIBE S.A.S.                             D000000003300000000000000000000000100010010000000000000000000000F0010000006727900120150123000101 00000000000000000000000000000000000000000000000000000000000000000000000000000000000000000000000000000000000000000N 00000000000NCONT   00    00000000000          00000000000000000000000000000000000000000000 000000000000000A000000000000000000000000000000000000000000000 000000000000000000000000000000000000000     00000000                                                                                                                        000000000000000000
F0010000006727900002000090020547900041450500000000000000000201501230002001DAC DEL CARIBE S.A.S.                             C000000002350000000000000000000000100010010000000000000000000000F0010000006727900220150123000101 00000000000000000000000000000000000000000000000000000000000000000000000000000000000000000000000000000000000000000N 00000000000NCONT   00    00000000000          00000000000000000000000000000000000000000000 000000000000000A000000000000000000000000000000000000000000000 000000000000000000000000000000000000000     00000000                                                                                                                        000000000000000000
F0010000006727900003000090020547900042505000000000000000000201501230002001DAC DEL CARIBE S.A.S.                             C000000000950000000000000000000000100010010000000000000000000000F0010000006727900320150123000101 00000000000000000000000000000000000000000000000000000000000000000000000000000000000000000000000000000000000000000N 00000000000NCONT   00    00000000000          00000000000000000000000000000000000000000000 000000000000000A000000000000000000000000000000000000000000000 000000000000000000000000000000000000000     00000000                                                                                                                        000000000000000000
F0010000006727900004000090020547900023658300000000000000000201501230002001DAC DEL CARIBE S.A.S.                             C000000000018800000000000000000000100010010000000000000000000000F0010000006727900420150123000101 00000000000000000000000000000000000000000000000000000000000000000000000000000000000000000000000000000000000000000N 00000000000NCONT   00    00000000000          00000000000000000000000000000000000000000000 000000000000000A000000000000000000000000000000000000000000000 000000000000000000000000000000000000000     00000000                                                                                                                        000000000000000000
F0010000006727900005000090020547900013552100000000000000000201501230002001DAC DEL CARIBE S.A.S.                             D000000000018800000000000000000000100010010000000000000000000000F0010000006727900520150123000101 00000000000000000000000000000000000000000000000000000000000000000000000000000000000000000000000000000000000000000N 00000000000NCONT   00    00000000000          00000000000000000000000000000000000000000000 000000000000000A000000000000000000000000000000000000000000000 000000000000000000000000000000000000000     00000000                                                                                                                        000000000000000000
F0010000006728000001000002251163600011050500000000000000000201501230002001ADRIANA SIERRA RADA                               D000000001000000000000000000000000100010010000000000000000000000F0010000006728000120150123000101 00000000000000000000000000000000000000000000000000000000000000000000000000000000000000000000000000000000000000000N 00000000000NCONT   00    00000000000          00000000000000000000000000000000000000000000 000000000000000A000000000000000000000000000000000000000000000 000000000000000000000000000000000000000     00000000                                                                                                                        000000000000000000
F0010000006728000002000002251163600041450500000000000000000201501230002001ADRIANA SIERRA RADA                               C000000000900000000000000000000000100010010000000000000000000000F0010000006728000220150123000101 00000000000000000000000000000000000000000000000000000000000000000000000000000000000000000000000000000000000000000N 00000000000NCONT   00    00000000000          00000000000000000000000000000000000000000000 000000000000000A000000000000000000000000000000000000000000000 000000000000000000000000000000000000000     00000000                                                                                                                        000000000000000000
F0010000006728000003000002251163600042505000000000000000000201501230002001ADRIANA SIERRA RADA                               C000000000100000000000000000000000100010010000000000000000000000F0010000006728000320150123000101 00000000000000000000000000000000000000000000000000000000000000000000000000000000000000000000000000000000000000000N 00000000000NCONT   00    00000000000          00000000000000000000000000000000000000000000 000000000000000A000000000000000000000000000000000000000000000 000000000000000000000000000000000000000     00000000                                                                                                                        000000000000000000
F0010000006728000004000002251163600023658300000000000000000201501230002001ADRIANA SIERRA RADA                               C000000000007200000000000000000000100010010000000000000000000000F0010000006728000420150123000101 00000000000000000000000000000000000000000000000000000000000000000000000000000000000000000000000000000000000000000N 00000000000NCONT   00    00000000000          00000000000000000000000000000000000000000000 000000000000000A000000000000000000000000000000000000000000000 000000000000000000000000000000000000000     00000000                                                                                                                        000000000000000000
F0010000006728000005000002251163600013552100000000000000000201501230002001ADRIANA SIERRA RADA                               D000000000007200000000000000000000100010010000000000000000000000F0010000006728000520150123000101 00000000000000000000000000000000000000000000000000000000000000000000000000000000000000000000000000000000000000000N 00000000000NCONT   00    00000000000          00000000000000000000000000000000000000000000 000000000000000A000000000000000000000000000000000000000000000 000000000000000000000000000000000000000     00000000                                                                                                                        000000000000000000
F0010000006728100001000090042673600011050500000000000000000201501230002001TENDENCIAS Y TEXTURAS SAS                         D000000001100000000000000000000000100010010000000000000000000000F0010000006728100120150123000101 00000000000000000000000000000000000000000000000000000000000000000000000000000000000000000000000000000000000000000N 00000000000NCONT   00    00000000000          00000000000000000000000000000000000000000000 000000000000000A000000000000000000000000000000000000000000000 000000000000000000000000000000000000000     00000000                                                                                                                        000000000000000000
F0010000006728100002000090042673600041450500000000000000000201501230002001TENDENCIAS Y TEXTURAS SAS                         C000000000900000000000000000000000100010010000000000000000000000F0010000006728100220150123000101 00000000000000000000000000000000000000000000000000000000000000000000000000000000000000000000000000000000000000000N 00000000000NCONT   00    00000000000          00000000000000000000000000000000000000000000 000000000000000A000000000000000000000000000000000000000000000 000000000000000000000000000000000000000     00000000                                                                                                                        000000000000000000
F0010000006728100003000090042673600042505000000000000000000201501230002001TENDENCIAS Y TEXTURAS SAS                         C000000000200000000000000000000000100010010000000000000000000000F0010000006728100320150123000101 00000000000000000000000000000000000000000000000000000000000000000000000000000000000000000000000000000000000000000N 00000000000NCONT   00    00000000000          00000000000000000000000000000000000000000000 000000000000000A000000000000000000000000000000000000000000000 000000000000000000000000000000000000000     00000000                                                                                                                        000000000000000000
F0010000006728100004000090042673600023658300000000000000000201501230002001TENDENCIAS Y TEXTURAS SAS                         C000000000007200000000000000000000100010010000000000000000000000F0010000006728100420150123000101 00000000000000000000000000000000000000000000000000000000000000000000000000000000000000000000000000000000000000000N 00000000000NCONT   00    00000000000          00000000000000000000000000000000000000000000 000000000000000A000000000000000000000000000000000000000000000 000000000000000000000000000000000000000     00000000                                                                                                                        000000000000000000
F0010000006728100005000090042673600013552100000000000000000201501230002001TENDENCIAS Y TEXTURAS SAS                         D000000000007200000000000000000000100010010000000000000000000000F0010000006728100520150123000101 00000000000000000000000000000000000000000000000000000000000000000000000000000000000000000000000000000000000000000N 00000000000NCONT   00    00000000000          00000000000000000000000000000000000000000000 000000000000000A000000000000000000000000000000000000000000000 000000000000000000000000000000000000000     00000000                                                                                                                        000000000000000000
F0010000006728200001000080014190300011050500000000000000000201501230002001QUIMINSA LTDA                                     D000000002770000000000000000000000100010010000000000000000000000F0010000006728200120150123000101 00000000000000000000000000000000000000000000000000000000000000000000000000000000000000000000000000000000000000000N 00000000000NCONT   00    00000000000          00000000000000000000000000000000000000000000 000000000000000A000000000000000000000000000000000000000000000 000000000000000000000000000000000000000     00000000                                                                                                                        000000000000000000
F0010000006728200002000080014190300041450500000000000000000201501230002001QUIMINSA LTDA                                     C000000002500000000000000000000000100010010000000000000000000000F0010000006728200220150123000101 00000000000000000000000000000000000000000000000000000000000000000000000000000000000000000000000000000000000000000N 00000000000NCONT   00    00000000000          00000000000000000000000000000000000000000000 000000000000000A000000000000000000000000000000000000000000000 000000000000000000000000000000000000000     00000000                                                                                                                        000000000000000000
F0010000006728200003000080014190300042505000000000000000000201501230002001QUIMINSA LTDA                                     C000000000270000000000000000000000100010010000000000000000000000F0010000006728200320150123000101 00000000000000000000000000000000000000000000000000000000000000000000000000000000000000000000000000000000000000000N 00000000000NCONT   00    00000000000          00000000000000000000000000000000000000000000 000000000000000A000000000000000000000000000000000000000000000 000000000000000000000000000000000000000     00000000                                                                                                                        000000000000000000
F0010000006728200004000080014190300023658300000000000000000201501230002001QUIMINSA LTDA                                     C000000000020000000000000000000000100010010000000000000000000000F0010000006728200420150123000101 00000000000000000000000000000000000000000000000000000000000000000000000000000000000000000000000000000000000000000N 00000000000NCONT   00    00000000000          00000000000000000000000000000000000000000000 000000000000000A000000000000000000000000000000000000000000000 000000000000000000000000000000000000000     00000000                                                                                                                        000000000000000000
F0010000006728200005000080014190300013552100000000000000000201501230002001QUIMINSA LTDA                                     D000000000020000000000000000000000100010010000000000000000000000F0010000006728200520150123000101 00000000000000000000000000000000000000000000000000000000000000000000000000000000000000000000000000000000000000000N 00000000000NCONT   00    00000000000          00000000000000000000000000000000000000000000 000000000000000A000000000000000000000000000000000000000000000 000000000000000000000000000000000000000     00000000                                                                                                                        000000000000000000
F0010000006728300001000080014190300011050500000000000000000201501230002001QUIMINSA LTDA                                     D000000001050000000000000000000000100010010000000000000000000000F0010000006728300120150123000101 00000000000000000000000000000000000000000000000000000000000000000000000000000000000000000000000000000000000000000N 00000000000NCONT   00    00000000000          00000000000000000000000000000000000000000000 000000000000000A000000000000000000000000000000000000000000000 000000000000000000000000000000000000000     00000000                                                                                                                        000000000000000000
F0010000006728300002000080014190300041450500000000000000000201501230002001QUIMINSA LTDA                                     C000000000830000000000000000000000100010010000000000000000000000F0010000006728300220150123000101 00000000000000000000000000000000000000000000000000000000000000000000000000000000000000000000000000000000000000000N 00000000000NCONT   00    00000000000          00000000000000000000000000000000000000000000 000000000000000A000000000000000000000000000000000000000000000 000000000000000000000000000000000000000     00000000                                                                                                                        000000000000000000
F0010000006728300003000080014190300042505000000000000000000201501230002001QUIMINSA LTDA                                     C000000000220000000000000000000000100010010000000000000000000000F0010000006728300320150123000101 00000000000000000000000000000000000000000000000000000000000000000000000000000000000000000000000000000000000000000N 00000000000NCONT   00    00000000000          00000000000000000000000000000000000000000000 000000000000000A000000000000000000000000000000000000000000000 000000000000000000000000000000000000000     00000000                                                                                                                        000000000000000000
F0010000006728300004000080014190300023658300000000000000000201501230002001QUIMINSA LTDA                                     C000000000006600000000000000000000100010010000000000000000000000F0010000006728300420150123000101 00000000000000000000000000000000000000000000000000000000000000000000000000000000000000000000000000000000000000000N 00000000000NCONT   00    00000000000          00000000000000000000000000000000000000000000 000000000000000A000000000000000000000000000000000000000000000 000000000000000000000000000000000000000     00000000                                                                                                                        000000000000000000
F0010000006728300005000080014190300013552100000000000000000201501230002001QUIMINSA LTDA                                     D000000000006600000000000000000000100010010000000000000000000000F0010000006728300520150123000101 00000000000000000000000000000000000000000000000000000000000000000000000000000000000000000000000000000000000000000N 00000000000NCONT   00    00000000000          00000000000000000000000000000000000000000000 000000000000000A000000000000000000000000000000000000000000000 000000000000000000000000000000000000000     00000000                                                                                                                        000000000000000000
F0010000006728400001000080201703900011050500000000000000000201501230002001MUNDIAL CHEMICAL LTDA                             D000000002600000000000000000000000100010010000000000000000000000F0010000006728400120150123000101 00000000000000000000000000000000000000000000000000000000000000000000000000000000000000000000000000000000000000000N 00000000000NCONT   00    00000000000          00000000000000000000000000000000000000000000 000000000000000A000000000000000000000000000000000000000000000 000000000000000000000000000000000000000     00000000                                                                                                                        000000000000000000
F0010000006728400002000080201703900041450500000000000000000201501230002001MUNDIAL CHEMICAL LTDA                             C000000002200000000000000000000000100010010000000000000000000000F0010000006728400220150123000101 00000000000000000000000000000000000000000000000000000000000000000000000000000000000000000000000000000000000000000N 00000000000NCONT   00    00000000000          00000000000000000000000000000000000000000000 000000000000000A000000000000000000000000000000000000000000000 000000000000000000000000000000000000000     00000000                                                                                                                        000000000000000000
F0010000006728400003000080201703900042505000000000000000000201501230002001MUNDIAL CHEMICAL LTDA                             C000000000400000000000000000000000100010010000000000000000000000F0010000006728400320150123000101 00000000000000000000000000000000000000000000000000000000000000000000000000000000000000000000000000000000000000000N 00000000000NCONT   00    00000000000          00000000000000000000000000000000000000000000 000000000000000A000000000000000000000000000000000000000000000 000000000000000000000000000000000000000     00000000                                                                                                                        000000000000000000
F0010000006728400004000080201703900023658300000000000000000201501230002001MUNDIAL CHEMICAL LTDA                             C000000000017600000000000000000000100010010000000000000000000000F0010000006728400420150123000101 00000000000000000000000000000000000000000000000000000000000000000000000000000000000000000000000000000000000000000N 00000000000NCONT   00    00000000000          00000000000000000000000000000000000000000000 000000000000000A000000000000000000000000000000000000000000000 000000000000000000000000000000000000000     00000000                                                                                                                        000000000000000000
F0010000006728400005000080201703900013552100000000000000000201501230002001MUNDIAL CHEMICAL LTDA                             D000000000017600000000000000000000100010010000000000000000000000F0010000006728400520150123000101 00000000000000000000000000000000000000000000000000000000000000000000000000000000000000000000000000000000000000000N 00000000000NCONT   00    00000000000          00000000000000000000000000000000000000000000 000000000000000A000000000000000000000000000000000000000000000 000000000000000000000000000000000000000     00000000                                                                                                                        000000000000000000
F0010000006728500001000007214782600011050500000000000000000201501230002001OSCAR JOSE LIAN ROCHA                             D000000002800000000000000000000000100010010000000000000000000000F0010000006728500120150123000101 00000000000000000000000000000000000000000000000000000000000000000000000000000000000000000000000000000000000000000N 00000000000NCONT   00    00000000000          00000000000000000000000000000000000000000000 000000000000000A000000000000000000000000000000000000000000000 000000000000000000000000000000000000000     00000000                                                                                                                        000000000000000000
F0010000006728500002000007214782600041450500000000000000000201501230002001OSCAR JOSE LIAN ROCHA                             C000000002400000000000000000000000100010010000000000000000000000F0010000006728500220150123000101 00000000000000000000000000000000000000000000000000000000000000000000000000000000000000000000000000000000000000000N 00000000000NCONT   00    00000000000          00000000000000000000000000000000000000000000 000000000000000A000000000000000000000000000000000000000000000 000000000000000000000000000000000000000     00000000                                                                                                                        000000000000000000
F0010000006728500003000007214782600042505000000000000000000201501230002001OSCAR JOSE LIAN ROCHA                             C000000000400000000000000000000000100010010000000000000000000000F0010000006728500320150123000101 00000000000000000000000000000000000000000000000000000000000000000000000000000000000000000000000000000000000000000N 00000000000NCONT   00    00000000000          00000000000000000000000000000000000000000000 000000000000000A000000000000000000000000000000000000000000000 000000000000000000000000000000000000000     00000000                                                                                                                        000000000000000000
F0010000006728500004000007214782600023658300000000000000000201501230002001OSCAR JOSE LIAN ROCHA                             C000000000019200000000000000000000100010010000000000000000000000F0010000006728500420150123000101 00000000000000000000000000000000000000000000000000000000000000000000000000000000000000000000000000000000000000000N 00000000000NCONT   00    00000000000          00000000000000000000000000000000000000000000 000000000000000A000000000000000000000000000000000000000000000 000000000000000000000000000000000000000     00000000                                                                                                                        000000000000000000
F0010000006728500005000007214782600013552100000000000000000201501230002001OSCAR JOSE LIAN ROCHA                             D000000000019200000000000000000000100010010000000000000000000000F0010000006728500520150123000101 00000000000000000000000000000000000000000000000000000000000000000000000000000000000000000000000000000000000000000N 00000000000NCONT   00    00000000000          00000000000000000000000000000000000000000000 000000000000000A000000000000000000000000000000000000000000000 000000000000000000000000000000000000000     00000000                                                                                                                        000000000000000000
F0010000006728600001000007214782600011050500000000000000000201501230002001OSCAR JOSE LIAN ROCHA                             D000000002800000000000000000000000100010010000000000000000000000F0010000006728600120150123000101 00000000000000000000000000000000000000000000000000000000000000000000000000000000000000000000000000000000000000000N 00000000000NCONT   00    00000000000          00000000000000000000000000000000000000000000 000000000000000A000000000000000000000000000000000000000000000 000000000000000000000000000000000000000     00000000                                                                                                                        000000000000000000
F0010000006728600002000007214782600041450500000000000000000201501230002001OSCAR JOSE LIAN ROCHA                             C000000002400000000000000000000000100010010000000000000000000000F0010000006728600220150123000101 00000000000000000000000000000000000000000000000000000000000000000000000000000000000000000000000000000000000000000N 00000000000NCONT   00    00000000000          00000000000000000000000000000000000000000000 000000000000000A000000000000000000000000000000000000000000000 000000000000000000000000000000000000000     00000000                                                                                                                        000000000000000000
F0010000006728600003000007214782600042505000000000000000000201501230002001OSCAR JOSE LIAN ROCHA                             C000000000400000000000000000000000100010010000000000000000000000F0010000006728600320150123000101 00000000000000000000000000000000000000000000000000000000000000000000000000000000000000000000000000000000000000000N 00000000000NCONT   00    00000000000          00000000000000000000000000000000000000000000 000000000000000A000000000000000000000000000000000000000000000 000000000000000000000000000000000000000     00000000                                                                                                                        000000000000000000
F0010000006728600004000007214782600023658300000000000000000201501230002001OSCAR JOSE LIAN ROCHA                             C000000000019200000000000000000000100010010000000000000000000000F0010000006728600420150123000101 00000000000000000000000000000000000000000000000000000000000000000000000000000000000000000000000000000000000000000N 00000000000NCONT   00    00000000000          00000000000000000000000000000000000000000000 000000000000000A000000000000000000000000000000000000000000000 000000000000000000000000000000000000000     00000000                                                                                                                        000000000000000000
F0010000006728600005000007214782600013552100000000000000000201501230002001OSCAR JOSE LIAN ROCHA                             D000000000019200000000000000000000100010010000000000000000000000F0010000006728600520150123000101 00000000000000000000000000000000000000000000000000000000000000000000000000000000000000000000000000000000000000000N 00000000000NCONT   00    00000000000          00000000000000000000000000000000000000000000 000000000000000A000000000000000000000000000000000000000000000 000000000000000000000000000000000000000     00000000                                                                                                                        000000000000000000
F0010000006728700001000007214782600011050500000000000000000201501230002001OSCAR JOSE LIAN ROCHA                             D000000001300000000000000000000000100010010000000000000000000000F0010000006728700120150123000101 00000000000000000000000000000000000000000000000000000000000000000000000000000000000000000000000000000000000000000N 00000000000NCONT   00    00000000000          00000000000000000000000000000000000000000000 000000000000000A000000000000000000000000000000000000000000000 000000000000000000000000000000000000000     00000000                                                                                                                        000000000000000000
F0010000006728700002000007214782600041450500000000000000000201501230002001OSCAR JOSE LIAN ROCHA                             C000000001200000000000000000000000100010010000000000000000000000F0010000006728700220150123000101 00000000000000000000000000000000000000000000000000000000000000000000000000000000000000000000000000000000000000000N 00000000000NCONT   00    00000000000          00000000000000000000000000000000000000000000 000000000000000A000000000000000000000000000000000000000000000 000000000000000000000000000000000000000     00000000                                                                                                                        000000000000000000
F0010000006728700003000007214782600042505000000000000000000201501230002001OSCAR JOSE LIAN ROCHA                             C000000000100000000000000000000000100010010000000000000000000000F0010000006728700320150123000101 00000000000000000000000000000000000000000000000000000000000000000000000000000000000000000000000000000000000000000N 00000000000NCONT   00    00000000000          00000000000000000000000000000000000000000000 000000000000000A000000000000000000000000000000000000000000000 000000000000000000000000000000000000000     00000000                                                                                                                        000000000000000000
F0010000006728700004000007214782600023658300000000000000000201501230002001OSCAR JOSE LIAN ROCHA                             C000000000009600000000000000000000100010010000000000000000000000F0010000006728700420150123000101 00000000000000000000000000000000000000000000000000000000000000000000000000000000000000000000000000000000000000000N 00000000000NCONT   00    00000000000          00000000000000000000000000000000000000000000 000000000000000A000000000000000000000000000000000000000000000 000000000000000000000000000000000000000     00000000                                                                                                                        000000000000000000
F0010000006728700005000007214782600013552100000000000000000201501230002001OSCAR JOSE LIAN ROCHA                             D000000000009600000000000000000000100010010000000000000000000000F0010000006728700520150123000101 00000000000000000000000000000000000000000000000000000000000000000000000000000000000000000000000000000000000000000N 00000000000NCONT   00    00000000000          00000000000000000000000000000000000000000000 000000000000000A000000000000000000000000000000000000000000000 000000000000000000000000000000000000000     00000000                                                                                                                        000000000000000000
F0010000006728800001000007214782600011050500000000000000000201501230002001OSCAR JOSE LIAN ROCHA                             D000000002800000000000000000000000100010010000000000000000000000F0010000006728800120150123000101 00000000000000000000000000000000000000000000000000000000000000000000000000000000000000000000000000000000000000000N 00000000000NCONT   00    00000000000          00000000000000000000000000000000000000000000 000000000000000A000000000000000000000000000000000000000000000 000000000000000000000000000000000000000     00000000                                                                                                                        000000000000000000
F0010000006728800002000007214782600041450500000000000000000201501230002001OSCAR JOSE LIAN ROCHA                             C000000002400000000000000000000000100010010000000000000000000000F0010000006728800220150123000101 00000000000000000000000000000000000000000000000000000000000000000000000000000000000000000000000000000000000000000N 00000000000NCONT   00    00000000000          00000000000000000000000000000000000000000000 000000000000000A000000000000000000000000000000000000000000000 000000000000000000000000000000000000000     00000000                                                                                                                        000000000000000000
F0010000006728800003000007214782600042505000000000000000000201501230002001OSCAR JOSE LIAN ROCHA                             C000000000400000000000000000000000100010010000000000000000000000F0010000006728800320150123000101 00000000000000000000000000000000000000000000000000000000000000000000000000000000000000000000000000000000000000000N 00000000000NCONT   00    00000000000          00000000000000000000000000000000000000000000 000000000000000A000000000000000000000000000000000000000000000 000000000000000000000000000000000000000     00000000                                                                                                                        000000000000000000
F0010000006728800004000007214782600023658300000000000000000201501230002001OSCAR JOSE LIAN ROCHA                             C000000000019200000000000000000000100010010000000000000000000000F0010000006728800420150123000101 00000000000000000000000000000000000000000000000000000000000000000000000000000000000000000000000000000000000000000N 00000000000NCONT   00    00000000000          00000000000000000000000000000000000000000000 000000000000000A000000000000000000000000000000000000000000000 000000000000000000000000000000000000000     00000000                                                                                                                        000000000000000000
F0010000006728800005000007214782600013552100000000000000000201501230002001OSCAR JOSE LIAN ROCHA                             D000000000019200000000000000000000100010010000000000000000000000F0010000006728800520150123000101 00000000000000000000000000000000000000000000000000000000000000000000000000000000000000000000000000000000000000000N 00000000000NCONT   00    00000000000          00000000000000000000000000000000000000000000 000000000000000A000000000000000000000000000000000000000000000 000000000000000000000000000000000000000     00000000                                                                                                                        000000000000000000
F0010000006728900001000003900336900011050500000000000000000201501230002001LUISA FERNANDA BOLAñOS                           D000000007000000000000000000000000100010010000000000000000000000F0010000006728900120150123000101 00000000000000000000000000000000000000000000000000000000000000000000000000000000000000000000000000000000000000000N 00000000000NCONT   00    00000000000          00000000000000000000000000000000000000000000 000000000000000A000000000000000000000000000000000000000000000 000000000000000000000000000000000000000     00000000                                                                                                                        000000000000000000
F0010000006728900002000003900336900041450500000000000000000201501230002001LUISA FERNANDA BOLAñOS                           C000000006900000000000000000000000100010010000000000000000000000F0010000006728900220150123000101 00000000000000000000000000000000000000000000000000000000000000000000000000000000000000000000000000000000000000000N 00000000000NCONT   00    00000000000          00000000000000000000000000000000000000000000 000000000000000A000000000000000000000000000000000000000000000 000000000000000000000000000000000000000     00000000                                                                                                                        000000000000000000
F0010000006728900003000003900336900042505000000000000000000201501230002001LUISA FERNANDA BOLAñOS                           C000000000100000000000000000000000100010010000000000000000000000F0010000006728900320150123000101 00000000000000000000000000000000000000000000000000000000000000000000000000000000000000000000000000000000000000000N 00000000000NCONT   00    00000000000          00000000000000000000000000000000000000000000 000000000000000A000000000000000000000000000000000000000000000 000000000000000000000000000000000000000     00000000                                                                                                                        000000000000000000
F0010000006728900004000003900336900023658300000000000000000201501230002001LUISA FERNANDA BOLAñOS                           C000000000055200000000000000000000100010010000000000000000000000F0010000006728900420150123000101 00000000000000000000000000000000000000000000000000000000000000000000000000000000000000000000000000000000000000000N 00000000000NCONT   00    00000000000          00000000000000000000000000000000000000000000 000000000000000A000000000000000000000000000000000000000000000 000000000000000000000000000000000000000     00000000                                                                                                                        000000000000000000
F0010000006728900005000003900336900013552100000000000000000201501230002001LUISA FERNANDA BOLAñOS                           D000000000055200000000000000000000100010010000000000000000000000F0010000006728900520150123000101 00000000000000000000000000000000000000000000000000000000000000000000000000000000000000000000000000000000000000000N 00000000000NCONT   00    00000000000          00000000000000000000000000000000000000000000 000000000000000A000000000000000000000000000000000000000000000 000000000000000000000000000000000000000     00000000                                                                                                                        000000000000000000
F0010000006729000001000086003979400011050500000000000000000201501230002001CALYPSO BARRANQUILLA LTDA                         D000000001525000000000000000000000100010010000000000000000000000F0010000006729000120150123000101 00000000000000000000000000000000000000000000000000000000000000000000000000000000000000000000000000000000000000000N 00000000000NCONT   00    00000000000          00000000000000000000000000000000000000000000 000000000000000A000000000000000000000000000000000000000000000 000000000000000000000000000000000000000     00000000                                                                                                                        000000000000000000
F0010000006729000002000086003979400041450500000000000000000201501230002001CALYPSO BARRANQUILLA LTDA                         C000000001400000000000000000000000100010010000000000000000000000F0010000006729000220150123000101 00000000000000000000000000000000000000000000000000000000000000000000000000000000000000000000000000000000000000000N 00000000000NCONT   00    00000000000          00000000000000000000000000000000000000000000 000000000000000A000000000000000000000000000000000000000000000 000000000000000000000000000000000000000     00000000                                                                                                                        000000000000000000
F0010000006729000003000086003979400042505000000000000000000201501230002001CALYPSO BARRANQUILLA LTDA                         C000000000125000000000000000000000100010010000000000000000000000F0010000006729000320150123000101 00000000000000000000000000000000000000000000000000000000000000000000000000000000000000000000000000000000000000000N 00000000000NCONT   00    00000000000          00000000000000000000000000000000000000000000 000000000000000A000000000000000000000000000000000000000000000 000000000000000000000000000000000000000     00000000                                                                                                                        000000000000000000
F0010000006729000004000086003979400023658300000000000000000201501230002001CALYPSO BARRANQUILLA LTDA                         C000000000011200000000000000000000100010010000000000000000000000F0010000006729000420150123000101 00000000000000000000000000000000000000000000000000000000000000000000000000000000000000000000000000000000000000000N 00000000000NCONT   00    00000000000          00000000000000000000000000000000000000000000 000000000000000A000000000000000000000000000000000000000000000 000000000000000000000000000000000000000     00000000                                                                                                                        000000000000000000
F0010000006729000005000086003979400013552100000000000000000201501230002001CALYPSO BARRANQUILLA LTDA                         D000000000011200000000000000000000100010010000000000000000000000F0010000006729000520150123000101 00000000000000000000000000000000000000000000000000000000000000000000000000000000000000000000000000000000000000000N 00000000000NCONT   00    00000000000          00000000000000000000000000000000000000000000 000000000000000A000000000000000000000000000000000000000000000 000000000000000000000000000000000000000     00000000                                                                                                                        000000000000000000
F0010000006729100001000001325248300011050500000000000000000201501230002001DISTRIBUIDORA DE LUBRICANTES LA 37                D000000006000000000000000000000000100010010000000000000000000000F0010000006729100120150123000101 00000000000000000000000000000000000000000000000000000000000000000000000000000000000000000000000000000000000000000N 00000000000NCONT   00    00000000000          00000000000000000000000000000000000000000000 000000000000000A000000000000000000000000000000000000000000000 000000000000000000000000000000000000000     00000000                                                                                                                        000000000000000000
F0010000006729100002000001325248300041450500000000000000000201501230002001DISTRIBUIDORA DE LUBRICANTES LA 37                C000000005300000000000000000000000100010010000000000000000000000F0010000006729100220150123000101 00000000000000000000000000000000000000000000000000000000000000000000000000000000000000000000000000000000000000000N 00000000000NCONT   00    00000000000          00000000000000000000000000000000000000000000 000000000000000A000000000000000000000000000000000000000000000 000000000000000000000000000000000000000     00000000                                                                                                                        000000000000000000
F0010000006729100003000001325248300042505000000000000000000201501230002001DISTRIBUIDORA DE LUBRICANTES LA 37                C000000000700000000000000000000000100010010000000000000000000000F0010000006729100320150123000101 00000000000000000000000000000000000000000000000000000000000000000000000000000000000000000000000000000000000000000N 00000000000NCONT   00    00000000000          00000000000000000000000000000000000000000000 000000000000000A000000000000000000000000000000000000000000000 000000000000000000000000000000000000000     00000000                                                                                                                        000000000000000000
F0010000006729100004000001325248300023658300000000000000000201501230002001DISTRIBUIDORA DE LUBRICANTES LA 37                C000000000042400000000000000000000100010010000000000000000000000F0010000006729100420150123000101 00000000000000000000000000000000000000000000000000000000000000000000000000000000000000000000000000000000000000000N 00000000000NCONT   00    00000000000          00000000000000000000000000000000000000000000 000000000000000A000000000000000000000000000000000000000000000 000000000000000000000000000000000000000     00000000                                                                                                                        000000000000000000
F0010000006729100005000001325248300013552100000000000000000201501230002001DISTRIBUIDORA DE LUBRICANTES LA 37                D000000000042400000000000000000000100010010000000000000000000000F0010000006729100520150123000101 00000000000000000000000000000000000000000000000000000000000000000000000000000000000000000000000000000000000000000N 00000000000NCONT   00    00000000000          00000000000000000000000000000000000000000000 000000000000000A000000000000000000000000000000000000000000000 000000000000000000000000000000000000000     00000000                                                                                                                        000000000000000000
F0010000006729200001000002245670100011050500000000000000000201501230002001YOLANDA  TOBON                                    D000000001500000000000000000000000100010010000000000000000000000F0010000006729200120150123000101 00000000000000000000000000000000000000000000000000000000000000000000000000000000000000000000000000000000000000000N 00000000000NCONT   00    00000000000          00000000000000000000000000000000000000000000 000000000000000A000000000000000000000000000000000000000000000 000000000000000000000000000000000000000     00000000                                                                                                                        000000000000000000
F0010000006729200002000002245670100041450500000000000000000201501230002001YOLANDA  TOBON                                    C000000001200000000000000000000000100010010000000000000000000000F0010000006729200220150123000101 00000000000000000000000000000000000000000000000000000000000000000000000000000000000000000000000000000000000000000N 00000000000NCONT   00    00000000000          00000000000000000000000000000000000000000000 000000000000000A000000000000000000000000000000000000000000000 000000000000000000000000000000000000000     00000000                                                                                                                        000000000000000000
F0010000006729200003000002245670100042505000000000000000000201501230002001YOLANDA  TOBON                                    C000000000300000000000000000000000100010010000000000000000000000F0010000006729200320150123000101 00000000000000000000000000000000000000000000000000000000000000000000000000000000000000000000000000000000000000000N 00000000000NCONT   00    00000000000          00000000000000000000000000000000000000000000 000000000000000A000000000000000000000000000000000000000000000 000000000000000000000000000000000000000     00000000                                                                                                                        000000000000000000
F0010000006729200004000002245670100023658300000000000000000201501230002001YOLANDA  TOBON                                    C000000000009600000000000000000000100010010000000000000000000000F0010000006729200420150123000101 00000000000000000000000000000000000000000000000000000000000000000000000000000000000000000000000000000000000000000N 00000000000NCONT   00    00000000000          00000000000000000000000000000000000000000000 000000000000000A000000000000000000000000000000000000000000000 000000000000000000000000000000000000000     00000000                                                                                                                        000000000000000000
F0010000006729200005000002245670100013552100000000000000000201501230002001YOLANDA  TOBON                                    D000000000009600000000000000000000100010010000000000000000000000F0010000006729200520150123000101 00000000000000000000000000000000000000000000000000000000000000000000000000000000000000000000000000000000000000000N 00000000000NCONT   00    00000000000          00000000000000000000000000000000000000000000 000000000000000A000000000000000000000000000000000000000000000 000000000000000000000000000000000000000     00000000                                                                                                                        000000000000000000
F0010000006729300001000090016338800011050500000000000000000201501230002001MASTERKOLOR SAS                                   D000000001000000000000000000000000100010010000000000000000000000F0010000006729300120150123000101 00000000000000000000000000000000000000000000000000000000000000000000000000000000000000000000000000000000000000000N 00000000000NCONT   00    00000000000          00000000000000000000000000000000000000000000 000000000000000A000000000000000000000000000000000000000000000 000000000000000000000000000000000000000     00000000                                                                                                                        000000000000000000
F0010000006729300002000090016338800041450500000000000000000201501230002001MASTERKOLOR SAS                                   C000000000900000000000000000000000100010010000000000000000000000F0010000006729300220150123000101 00000000000000000000000000000000000000000000000000000000000000000000000000000000000000000000000000000000000000000N 00000000000NCONT   00    00000000000          00000000000000000000000000000000000000000000 000000000000000A000000000000000000000000000000000000000000000 000000000000000000000000000000000000000     00000000                                                                                                                        000000000000000000
F0010000006729300003000090016338800042505000000000000000000201501230002001MASTERKOLOR SAS                                   C000000000100000000000000000000000100010010000000000000000000000F0010000006729300320150123000101 00000000000000000000000000000000000000000000000000000000000000000000000000000000000000000000000000000000000000000N 00000000000NCONT   00    00000000000          00000000000000000000000000000000000000000000 000000000000000A000000000000000000000000000000000000000000000 000000000000000000000000000000000000000     00000000                                                                                                                        000000000000000000
F0010000006729300004000090016338800023658300000000000000000201501230002001MASTERKOLOR SAS                                   C000000000007200000000000000000000100010010000000000000000000000F0010000006729300420150123000101 00000000000000000000000000000000000000000000000000000000000000000000000000000000000000000000000000000000000000000N 00000000000NCONT   00    00000000000          00000000000000000000000000000000000000000000 000000000000000A000000000000000000000000000000000000000000000 000000000000000000000000000000000000000     00000000                                                                                                                        000000000000000000
F0010000006729300005000090016338800013552100000000000000000201501230002001MASTERKOLOR SAS                                   D000000000007200000000000000000000100010010000000000000000000000F0010000006729300520150123000101 00000000000000000000000000000000000000000000000000000000000000000000000000000000000000000000000000000000000000000N 00000000000NCONT   00    00000000000          00000000000000000000000000000000000000000000 000000000000000A000000000000000000000000000000000000000000000 000000000000000000000000000000000000000     00000000                                                                                                                        000000000000000000
F0010000006729400001000090015687900011050500000000000000000201501230002001GOMEZ NARANJO & CIA LTDA                          D000000002300000000000000000000000100010010000000000000000000000F0010000006729400120150123000101 00000000000000000000000000000000000000000000000000000000000000000000000000000000000000000000000000000000000000000N 00000000000NCONT   00    00000000000          00000000000000000000000000000000000000000000 000000000000000A000000000000000000000000000000000000000000000 000000000000000000000000000000000000000     00000000                                                                                                                        000000000000000000
F0010000006729400002000090015687900041450500000000000000000201501230002001GOMEZ NARANJO & CIA LTDA                          C000000001300000000000000000000000100010010000000000000000000000F0010000006729400220150123000101 00000000000000000000000000000000000000000000000000000000000000000000000000000000000000000000000000000000000000000N 00000000000NCONT   00    00000000000          00000000000000000000000000000000000000000000 000000000000000A000000000000000000000000000000000000000000000 000000000000000000000000000000000000000     00000000                                                                                                                        000000000000000000
F0010000006729400003000090015687900042505000000000000000000201501230002001GOMEZ NARANJO & CIA LTDA                          C000000001000000000000000000000000100010010000000000000000000000F0010000006729400320150123000101 00000000000000000000000000000000000000000000000000000000000000000000000000000000000000000000000000000000000000000N 00000000000NCONT   00    00000000000          00000000000000000000000000000000000000000000 000000000000000A000000000000000000000000000000000000000000000 000000000000000000000000000000000000000     00000000                                                                                                                        000000000000000000
F0010000006729400004000090015687900023658300000000000000000201501230002001GOMEZ NARANJO & CIA LTDA                          C000000000010400000000000000000000100010010000000000000000000000F0010000006729400420150123000101 00000000000000000000000000000000000000000000000000000000000000000000000000000000000000000000000000000000000000000N 00000000000NCONT   00    00000000000          00000000000000000000000000000000000000000000 000000000000000A000000000000000000000000000000000000000000000 000000000000000000000000000000000000000     00000000                                                                                                                        000000000000000000
F0010000006729400005000090015687900013552100000000000000000201501230002001GOMEZ NARANJO & CIA LTDA                          D000000000010400000000000000000000100010010000000000000000000000F0010000006729400520150123000101 00000000000000000000000000000000000000000000000000000000000000000000000000000000000000000000000000000000000000000N 00000000000NCONT   00    00000000000          00000000000000000000000000000000000000000000 000000000000000A000000000000000000000000000000000000000000000 000000000000000000000000000000000000000     00000000                                                                                                                        000000000000000000
F0010000006729500001000090015687900011050500000000000000000201501230002001GOMEZ NARANJO & CIA LTDA                          D000000003800000000000000000000000100010010000000000000000000000F0010000006729500120150123000101 00000000000000000000000000000000000000000000000000000000000000000000000000000000000000000000000000000000000000000N 00000000000NCONT   00    00000000000          00000000000000000000000000000000000000000000 000000000000000A000000000000000000000000000000000000000000000 000000000000000000000000000000000000000     00000000                                                                                                                        000000000000000000
F0010000006729500002000090015687900041450500000000000000000201501230002001GOMEZ NARANJO & CIA LTDA                          C000000002600000000000000000000000100010010000000000000000000000F0010000006729500220150123000101 00000000000000000000000000000000000000000000000000000000000000000000000000000000000000000000000000000000000000000N 00000000000NCONT   00    00000000000          00000000000000000000000000000000000000000000 000000000000000A000000000000000000000000000000000000000000000 000000000000000000000000000000000000000     00000000                                                                                                                        000000000000000000
F0010000006729500003000090015687900042505000000000000000000201501230002001GOMEZ NARANJO & CIA LTDA                          C000000001200000000000000000000000100010010000000000000000000000F0010000006729500320150123000101 00000000000000000000000000000000000000000000000000000000000000000000000000000000000000000000000000000000000000000N 00000000000NCONT   00    00000000000          00000000000000000000000000000000000000000000 000000000000000A000000000000000000000000000000000000000000000 000000000000000000000000000000000000000     00000000                                                                                                                        000000000000000000
F0010000006729500004000090015687900023658300000000000000000201501230002001GOMEZ NARANJO & CIA LTDA                          C000000000020800000000000000000000100010010000000000000000000000F0010000006729500420150123000101 00000000000000000000000000000000000000000000000000000000000000000000000000000000000000000000000000000000000000000N 00000000000NCONT   00    00000000000          00000000000000000000000000000000000000000000 000000000000000A000000000000000000000000000000000000000000000 000000000000000000000000000000000000000     00000000                                                                                                                        000000000000000000
F0010000006729500005000090015687900013552100000000000000000201501230002001GOMEZ NARANJO & CIA LTDA                          D000000000020800000000000000000000100010010000000000000000000000F0010000006729500520150123000101 00000000000000000000000000000000000000000000000000000000000000000000000000000000000000000000000000000000000000000N 00000000000NCONT   00    00000000000          00000000000000000000000000000000000000000000 000000000000000A000000000000000000000000000000000000000000000 000000000000000000000000000000000000000     00000000                                                                                                                        000000000000000000
F0010000006729600001000080202350700011050500000000000000000201501230002001CONNY DE LA COSTA SAS                             D000000002100000000000000000000000100010010000000000000000000000F0010000006729600120150123000101 00000000000000000000000000000000000000000000000000000000000000000000000000000000000000000000000000000000000000000N 00000000000NCONT   00    00000000000          00000000000000000000000000000000000000000000 000000000000000A000000000000000000000000000000000000000000000 000000000000000000000000000000000000000     00000000                                                                                                                        000000000000000000
F0010000006729600002000080202350700041450500000000000000000201501230002001CONNY DE LA COSTA SAS                             C000000001600000000000000000000000100010010000000000000000000000F0010000006729600220150123000101 00000000000000000000000000000000000000000000000000000000000000000000000000000000000000000000000000000000000000000N 00000000000NCONT   00    00000000000          00000000000000000000000000000000000000000000 000000000000000A000000000000000000000000000000000000000000000 000000000000000000000000000000000000000     00000000                                                                                                                        000000000000000000
F0010000006729600003000080202350700042505000000000000000000201501230002001CONNY DE LA COSTA SAS                             C000000000500000000000000000000000100010010000000000000000000000F0010000006729600320150123000101 00000000000000000000000000000000000000000000000000000000000000000000000000000000000000000000000000000000000000000N 00000000000NCONT   00    00000000000          00000000000000000000000000000000000000000000 000000000000000A000000000000000000000000000000000000000000000 000000000000000000000000000000000000000     00000000                                                                                                                        000000000000000000
F0010000006729600004000080202350700023658300000000000000000201501230002001CONNY DE LA COSTA SAS                             C000000000012800000000000000000000100010010000000000000000000000F0010000006729600420150123000101 00000000000000000000000000000000000000000000000000000000000000000000000000000000000000000000000000000000000000000N 00000000000NCONT   00    00000000000          00000000000000000000000000000000000000000000 000000000000000A000000000000000000000000000000000000000000000 000000000000000000000000000000000000000     00000000                                                                                                                        000000000000000000
F0010000006729600005000080202350700013552100000000000000000201501230002001CONNY DE LA COSTA SAS                             D000000000012800000000000000000000100010010000000000000000000000F0010000006729600520150123000101 00000000000000000000000000000000000000000000000000000000000000000000000000000000000000000000000000000000000000000N 00000000000NCONT   00    00000000000          00000000000000000000000000000000000000000000 000000000000000A000000000000000000000000000000000000000000000 000000000000000000000000000000000000000     00000000                                                                                                                        000000000000000000
F0010000006729700001000090016338800011050500000000000000000201501230002001MASTERKOLOR SAS                                   D000000001000000000000000000000000100010010000000000000000000000F0010000006729700120150123000101 00000000000000000000000000000000000000000000000000000000000000000000000000000000000000000000000000000000000000000N 00000000000NCONT   00    00000000000          00000000000000000000000000000000000000000000 000000000000000A000000000000000000000000000000000000000000000 000000000000000000000000000000000000000     00000000                                                                                                                        000000000000000000
F0010000006729700002000090016338800041450500000000000000000201501230002001MASTERKOLOR SAS                                   C000000000900000000000000000000000100010010000000000000000000000F0010000006729700220150123000101 00000000000000000000000000000000000000000000000000000000000000000000000000000000000000000000000000000000000000000N 00000000000NCONT   00    00000000000          00000000000000000000000000000000000000000000 000000000000000A000000000000000000000000000000000000000000000 000000000000000000000000000000000000000     00000000                                                                                                                        000000000000000000
F0010000006729700003000090016338800042505000000000000000000201501230002001MASTERKOLOR SAS                                   C000000000100000000000000000000000100010010000000000000000000000F0010000006729700320150123000101 00000000000000000000000000000000000000000000000000000000000000000000000000000000000000000000000000000000000000000N 00000000000NCONT   00    00000000000          00000000000000000000000000000000000000000000 000000000000000A000000000000000000000000000000000000000000000 000000000000000000000000000000000000000     00000000                                                                                                                        000000000000000000
F0010000006729700004000090016338800023658300000000000000000201501230002001MASTERKOLOR SAS                                   C000000000007200000000000000000000100010010000000000000000000000F0010000006729700420150123000101 00000000000000000000000000000000000000000000000000000000000000000000000000000000000000000000000000000000000000000N 00000000000NCONT   00    00000000000          00000000000000000000000000000000000000000000 000000000000000A000000000000000000000000000000000000000000000 000000000000000000000000000000000000000     00000000                                                                                                                        000000000000000000
F0010000006729700005000090016338800013552100000000000000000201501230002001MASTERKOLOR SAS                                   D000000000007200000000000000000000100010010000000000000000000000F0010000006729700520150123000101 00000000000000000000000000000000000000000000000000000000000000000000000000000000000000000000000000000000000000000N 00000000000NCONT   00    00000000000          00000000000000000000000000000000000000000000 000000000000000A000000000000000000000000000000000000000000000 000000000000000000000000000000000000000     00000000                                                                                                                        000000000000000000
F0010000006729800001000000870907300011050500000000000000000201501230002001SURTIDOR FERRETERO                                D000000004600000000000000000000000100010010000000000000000000000F0010000006729800120150123000101 00000000000000000000000000000000000000000000000000000000000000000000000000000000000000000000000000000000000000000N 00000000000NCONT   00    00000000000          00000000000000000000000000000000000000000000 000000000000000A000000000000000000000000000000000000000000000 000000000000000000000000000000000000000     00000000                                                                                                                        000000000000000000
F0010000006729800002000000870907300041450500000000000000000201501230002001SURTIDOR FERRETERO                                C000000001600000000000000000000000100010010000000000000000000000F0010000006729800220150123000101 00000000000000000000000000000000000000000000000000000000000000000000000000000000000000000000000000000000000000000N 00000000000NCONT   00    00000000000          00000000000000000000000000000000000000000000 000000000000000A000000000000000000000000000000000000000000000 000000000000000000000000000000000000000     00000000                                                                                                                        000000000000000000
F0010000006729800003000000870907300042505000000000000000000201501230002001SURTIDOR FERRETERO                                C000000003000000000000000000000000100010010000000000000000000000F0010000006729800320150123000101 00000000000000000000000000000000000000000000000000000000000000000000000000000000000000000000000000000000000000000N 00000000000NCONT   00    00000000000          00000000000000000000000000000000000000000000 000000000000000A000000000000000000000000000000000000000000000 000000000000000000000000000000000000000     00000000                                                                                                                        000000000000000000
F0010000006729800004000000870907300023658300000000000000000201501230002001SURTIDOR FERRETERO                                C000000000012800000000000000000000100010010000000000000000000000F0010000006729800420150123000101 00000000000000000000000000000000000000000000000000000000000000000000000000000000000000000000000000000000000000000N 00000000000NCONT   00    00000000000          00000000000000000000000000000000000000000000 000000000000000A000000000000000000000000000000000000000000000 000000000000000000000000000000000000000     00000000                                                                                                                        000000000000000000
F0010000006729800005000000870907300013552100000000000000000201501230002001SURTIDOR FERRETERO                                D000000000012800000000000000000000100010010000000000000000000000F0010000006729800520150123000101 00000000000000000000000000000000000000000000000000000000000000000000000000000000000000000000000000000000000000000N 00000000000NCONT   00    00000000000          00000000000000000000000000000000000000000000 000000000000000A000000000000000000000000000000000000000000000 000000000000000000000000000000000000000     00000000                                                                                                                        000000000000000000
F0010000006729900001000006455049600011050500000000000000000201501230002001MANGUERAS Y RIEGOS DEL CARIBE                     D000000020000000000000000000000000100010010000000000000000000000F0010000006729900120150123000101 00000000000000000000000000000000000000000000000000000000000000000000000000000000000000000000000000000000000000000N 00000000000NCONT   00    00000000000          00000000000000000000000000000000000000000000 000000000000000A000000000000000000000000000000000000000000000 000000000000000000000000000000000000000     00000000                                                                                                                        000000000000000000
F0010000006729900002000006455049600041450500000000000000000201501230002001MANGUERAS Y RIEGOS DEL CARIBE                     C000000018400000000000000000000000100010010000000000000000000000F0010000006729900220150123000101 00000000000000000000000000000000000000000000000000000000000000000000000000000000000000000000000000000000000000000N 00000000000NCONT   00    00000000000          00000000000000000000000000000000000000000000 000000000000000A000000000000000000000000000000000000000000000 000000000000000000000000000000000000000     00000000                                                                                                                        000000000000000000
F0010000006729900003000006455049600042505000000000000000000201501230002001MANGUERAS Y RIEGOS DEL CARIBE                     C000000001600000000000000000000000100010010000000000000000000000F0010000006729900320150123000101 00000000000000000000000000000000000000000000000000000000000000000000000000000000000000000000000000000000000000000N 00000000000NCONT   00    00000000000          00000000000000000000000000000000000000000000 000000000000000A000000000000000000000000000000000000000000000 000000000000000000000000000000000000000     00000000                                                                                                                        000000000000000000
F0010000006729900004000006455049600023658300000000000000000201501230002001MANGUERAS Y RIEGOS DEL CARIBE                     C000000000147200000000000000000000100010010000000000000000000000F0010000006729900420150123000101 00000000000000000000000000000000000000000000000000000000000000000000000000000000000000000000000000000000000000000N 00000000000NCONT   00    00000000000          00000000000000000000000000000000000000000000 000000000000000A000000000000000000000000000000000000000000000 000000000000000000000000000000000000000     00000000                                                                                                                        000000000000000000
F0010000006729900005000006455049600013552100000000000000000201501230002001MANGUERAS Y RIEGOS DEL CARIBE                     D000000000147200000000000000000000100010010000000000000000000000F0010000006729900520150123000101 00000000000000000000000000000000000000000000000000000000000000000000000000000000000000000000000000000000000000000N 00000000000NCONT   00    00000000000          00000000000000000000000000000000000000000000 000000000000000A000000000000000000000000000000000000000000000 000000000000000000000000000000000000000     00000000                                                                                                                        000000000000000000
F0010000006730000001000090050144800011050500000000000000000201501230002001PLASTICOS JR ASOCIADOS SAS                        D000000004700000000000000000000000100010010000000000000000000000F0010000006730000120150123000101 00000000000000000000000000000000000000000000000000000000000000000000000000000000000000000000000000000000000000000N 00000000000NCONT   00    00000000000          00000000000000000000000000000000000000000000 000000000000000A000000000000000000000000000000000000000000000 000000000000000000000000000000000000000     00000000                                                                                                                        000000000000000000
F0010000006730000002000090050144800041450500000000000000000201501230002001PLASTICOS JR ASOCIADOS SAS                        C000000004300000000000000000000000100010010000000000000000000000F0010000006730000220150123000101 00000000000000000000000000000000000000000000000000000000000000000000000000000000000000000000000000000000000000000N 00000000000NCONT   00    00000000000          00000000000000000000000000000000000000000000 000000000000000A000000000000000000000000000000000000000000000 000000000000000000000000000000000000000     00000000                                                                                                                        000000000000000000
F0010000006730000003000090050144800042505000000000000000000201501230002001PLASTICOS JR ASOCIADOS SAS                        C000000000400000000000000000000000100010010000000000000000000000F0010000006730000320150123000101 00000000000000000000000000000000000000000000000000000000000000000000000000000000000000000000000000000000000000000N 00000000000NCONT   00    00000000000          00000000000000000000000000000000000000000000 000000000000000A000000000000000000000000000000000000000000000 000000000000000000000000000000000000000     00000000                                                                                                                        000000000000000000
F0010000006730000004000090050144800023658300000000000000000201501230002001PLASTICOS JR ASOCIADOS SAS                        C000000000034400000000000000000000100010010000000000000000000000F0010000006730000420150123000101 00000000000000000000000000000000000000000000000000000000000000000000000000000000000000000000000000000000000000000N 00000000000NCONT   00    00000000000          00000000000000000000000000000000000000000000 000000000000000A000000000000000000000000000000000000000000000 000000000000000000000000000000000000000     00000000                                                                                                                        000000000000000000
F0010000006730000005000090050144800013552100000000000000000201501230002001PLASTICOS JR ASOCIADOS SAS                        D000000000034400000000000000000000100010010000000000000000000000F0010000006730000520150123000101 00000000000000000000000000000000000000000000000000000000000000000000000000000000000000000000000000000000000000000N 00000000000NCONT   00    00000000000          00000000000000000000000000000000000000000000 000000000000000A000000000000000000000000000000000000000000000 000000000000000000000000000000000000000     00000000                                                                                                                        000000000000000000
F0010000006730100001000090050144800011050500000000000000000201501230002001PLASTICOS JR ASOCIADOS SAS                        D000000010000000000000000000000000100010010000000000000000000000F0010000006730100120150123000101 00000000000000000000000000000000000000000000000000000000000000000000000000000000000000000000000000000000000000000N 00000000000NCONT   00    00000000000          00000000000000000000000000000000000000000000 000000000000000A000000000000000000000000000000000000000000000 000000000000000000000000000000000000000     00000000                                                                                                                        000000000000000000
F0010000006730100002000090050144800041450500000000000000000201501230002001PLASTICOS JR ASOCIADOS SAS                        C000000009500000000000000000000000100010010000000000000000000000F0010000006730100220150123000101 00000000000000000000000000000000000000000000000000000000000000000000000000000000000000000000000000000000000000000N 00000000000NCONT   00    00000000000          00000000000000000000000000000000000000000000 000000000000000A000000000000000000000000000000000000000000000 000000000000000000000000000000000000000     00000000                                                                                                                        000000000000000000
F0010000006730100003000090050144800042505000000000000000000201501230002001PLASTICOS JR ASOCIADOS SAS                        C000000000500000000000000000000000100010010000000000000000000000F0010000006730100320150123000101 00000000000000000000000000000000000000000000000000000000000000000000000000000000000000000000000000000000000000000N 00000000000NCONT   00    00000000000          00000000000000000000000000000000000000000000 000000000000000A000000000000000000000000000000000000000000000 000000000000000000000000000000000000000     00000000                                                                                                                        000000000000000000
F0010000006730100004000090050144800023658300000000000000000201501230002001PLASTICOS JR ASOCIADOS SAS                        C000000000076000000000000000000000100010010000000000000000000000F0010000006730100420150123000101 00000000000000000000000000000000000000000000000000000000000000000000000000000000000000000000000000000000000000000N 00000000000NCONT   00    00000000000          00000000000000000000000000000000000000000000 000000000000000A000000000000000000000000000000000000000000000 000000000000000000000000000000000000000     00000000                                                                                                                        000000000000000000
F0010000006730100005000090050144800013552100000000000000000201501230002001PLASTICOS JR ASOCIADOS SAS                        D000000000076000000000000000000000100010010000000000000000000000F0010000006730100520150123000101 00000000000000000000000000000000000000000000000000000000000000000000000000000000000000000000000000000000000000000N 00000000000NCONT   00    00000000000          00000000000000000000000000000000000000000000 000000000000000A000000000000000000000000000000000000000000000 000000000000000000000000000000000000000     00000000                                                                                                                        000000000000000000
F0010000006730200001000112957914100011050500000000000000000201501230002001ALVARO HERNANDEZ                                  D000000002300000000000000000000000100010010000000000000000000000F0010000006730200120150123000101 00000000000000000000000000000000000000000000000000000000000000000000000000000000000000000000000000000000000000000N 00000000000NCONT   00    00000000000          00000000000000000000000000000000000000000000 000000000000000A000000000000000000000000000000000000000000000 000000000000000000000000000000000000000     00000000                                                                                                                        000000000000000000
F0010000006730200002000112957914100041450500000000000000000201501230002001ALVARO HERNANDEZ                                  C000000002000000000000000000000000100010010000000000000000000000F0010000006730200220150123000101 00000000000000000000000000000000000000000000000000000000000000000000000000000000000000000000000000000000000000000N 00000000000NCONT   00    00000000000          00000000000000000000000000000000000000000000 000000000000000A000000000000000000000000000000000000000000000 000000000000000000000000000000000000000     00000000                                                                                                                        000000000000000000
F0010000006730200003000112957914100042505000000000000000000201501230002001ALVARO HERNANDEZ                                  C000000000300000000000000000000000100010010000000000000000000000F0010000006730200320150123000101 00000000000000000000000000000000000000000000000000000000000000000000000000000000000000000000000000000000000000000N 00000000000NCONT   00    00000000000          00000000000000000000000000000000000000000000 000000000000000A000000000000000000000000000000000000000000000 000000000000000000000000000000000000000     00000000                                                                                                                        000000000000000000
F0010000006730200004000112957914100023658300000000000000000201501230002001ALVARO HERNANDEZ                                  C000000000016000000000000000000000100010010000000000000000000000F0010000006730200420150123000101 00000000000000000000000000000000000000000000000000000000000000000000000000000000000000000000000000000000000000000N 00000000000NCONT   00    00000000000          00000000000000000000000000000000000000000000 000000000000000A000000000000000000000000000000000000000000000 000000000000000000000000000000000000000     00000000                                                                                                                        000000000000000000
F0010000006730200005000112957914100013552100000000000000000201501230002001ALVARO HERNANDEZ                                  D000000000016000000000000000000000100010010000000000000000000000F0010000006730200520150123000101 00000000000000000000000000000000000000000000000000000000000000000000000000000000000000000000000000000000000000000N 00000000000NCONT   00    00000000000          00000000000000000000000000000000000000000000 000000000000000A000000000000000000000000000000000000000000000 000000000000000000000000000000000000000     00000000                                                                                                                        000000000000000000
F0010000006730300001000000431178400011050500000000000000000201501230002001EFRAIN ALVAREZ                                    D000000000810000000000000000000000100010010000000000000000000000F0010000006730300120150123000101 00000000000000000000000000000000000000000000000000000000000000000000000000000000000000000000000000000000000000000N 00000000000NCONT   00    00000000000          00000000000000000000000000000000000000000000 000000000000000A000000000000000000000000000000000000000000000 000000000000000000000000000000000000000     00000000                                                                                                                        000000000000000000
F0010000006730300002000000431178400041450500000000000000000201501230002001EFRAIN ALVAREZ                                    C000000000760000000000000000000000100010010000000000000000000000F0010000006730300220150123000101 00000000000000000000000000000000000000000000000000000000000000000000000000000000000000000000000000000000000000000N 00000000000NCONT   00    00000000000          00000000000000000000000000000000000000000000 000000000000000A000000000000000000000000000000000000000000000 000000000000000000000000000000000000000     00000000                                                                                                                        000000000000000000
F0010000006730300003000000431178400042505000000000000000000201501230002001EFRAIN ALVAREZ                                    C000000000050000000000000000000000100010010000000000000000000000F0010000006730300320150123000101 00000000000000000000000000000000000000000000000000000000000000000000000000000000000000000000000000000000000000000N 00000000000NCONT   00    00000000000          00000000000000000000000000000000000000000000 000000000000000A000000000000000000000000000000000000000000000 000000000000000000000000000000000000000     00000000                                                                                                                        000000000000000000
F0010000006730300004000000431178400023658300000000000000000201501230002001EFRAIN ALVAREZ                                    C000000000006100000000000000000000100010010000000000000000000000F0010000006730300420150123000101 00000000000000000000000000000000000000000000000000000000000000000000000000000000000000000000000000000000000000000N 00000000000NCONT   00    00000000000          00000000000000000000000000000000000000000000 000000000000000A000000000000000000000000000000000000000000000 000000000000000000000000000000000000000     00000000                                                                                                                        000000000000000000
F0010000006730300005000000431178400013552100000000000000000201501230002001EFRAIN ALVAREZ                                    D000000000006100000000000000000000100010010000000000000000000000F0010000006730300520150123000101 00000000000000000000000000000000000000000000000000000000000000000000000000000000000000000000000000000000000000000N 00000000000NCONT   00    00000000000          00000000000000000000000000000000000000000000 000000000000000A000000000000000000000000000000000000000000000 000000000000000000000000000000000000000     00000000                                                                                                                        000000000000000000
F0010000006730400001000000431178400011050500000000000000000201501230002001EFRAIN ALVAREZ                                    D000000000910000000000000000000000100010010000000000000000000000F0010000006730400120150123000101 00000000000000000000000000000000000000000000000000000000000000000000000000000000000000000000000000000000000000000N 00000000000NCONT   00    00000000000          00000000000000000000000000000000000000000000 000000000000000A000000000000000000000000000000000000000000000 000000000000000000000000000000000000000     00000000                                                                                                                        000000000000000000
F0010000006730400002000000431178400041450500000000000000000201501230002001EFRAIN ALVAREZ                                    C000000000860000000000000000000000100010010000000000000000000000F0010000006730400220150123000101 00000000000000000000000000000000000000000000000000000000000000000000000000000000000000000000000000000000000000000N 00000000000NCONT   00    00000000000          00000000000000000000000000000000000000000000 000000000000000A000000000000000000000000000000000000000000000 000000000000000000000000000000000000000     00000000                                                                                                                        000000000000000000
F0010000006730400003000000431178400042505000000000000000000201501230002001EFRAIN ALVAREZ                                    C000000000050000000000000000000000100010010000000000000000000000F0010000006730400320150123000101 00000000000000000000000000000000000000000000000000000000000000000000000000000000000000000000000000000000000000000N 00000000000NCONT   00    00000000000          00000000000000000000000000000000000000000000 000000000000000A000000000000000000000000000000000000000000000 000000000000000000000000000000000000000     00000000                                                                                                                        000000000000000000
F0010000006730400004000000431178400023658300000000000000000201501230002001EFRAIN ALVAREZ                                    C000000000006900000000000000000000100010010000000000000000000000F0010000006730400420150123000101 00000000000000000000000000000000000000000000000000000000000000000000000000000000000000000000000000000000000000000N 00000000000NCONT   00    00000000000          00000000000000000000000000000000000000000000 000000000000000A000000000000000000000000000000000000000000000 000000000000000000000000000000000000000     00000000                                                                                                                        000000000000000000
F0010000006730400005000000431178400013552100000000000000000201501230002001EFRAIN ALVAREZ                                    D000000000006900000000000000000000100010010000000000000000000000F0010000006730400520150123000101 00000000000000000000000000000000000000000000000000000000000000000000000000000000000000000000000000000000000000000N 00000000000NCONT   00    00000000000          00000000000000000000000000000000000000000000 000000000000000A000000000000000000000000000000000000000000000 000000000000000000000000000000000000000     00000000                                                                                                                        000000000000000000
F0010000006730500001000000431178400011050500000000000000000201501230002001EFRAIN ALVAREZ                                    D000000000910000000000000000000000100010010000000000000000000000F0010000006730500120150123000101 00000000000000000000000000000000000000000000000000000000000000000000000000000000000000000000000000000000000000000N 00000000000NCONT   00    00000000000          00000000000000000000000000000000000000000000 000000000000000A000000000000000000000000000000000000000000000 000000000000000000000000000000000000000     00000000                                                                                                                        000000000000000000
F0010000006730500002000000431178400041450500000000000000000201501230002001EFRAIN ALVAREZ                                    C000000000860000000000000000000000100010010000000000000000000000F0010000006730500220150123000101 00000000000000000000000000000000000000000000000000000000000000000000000000000000000000000000000000000000000000000N 00000000000NCONT   00    00000000000          00000000000000000000000000000000000000000000 000000000000000A000000000000000000000000000000000000000000000 000000000000000000000000000000000000000     00000000                                                                                                                        000000000000000000
F0010000006730500003000000431178400042505000000000000000000201501230002001EFRAIN ALVAREZ                                    C000000000050000000000000000000000100010010000000000000000000000F0010000006730500320150123000101 00000000000000000000000000000000000000000000000000000000000000000000000000000000000000000000000000000000000000000N 00000000000NCONT   00    00000000000          00000000000000000000000000000000000000000000 000000000000000A000000000000000000000000000000000000000000000 000000000000000000000000000000000000000     00000000                                                                                                                        000000000000000000
F0010000006730500004000000431178400023658300000000000000000201501230002001EFRAIN ALVAREZ                                    C000000000006900000000000000000000100010010000000000000000000000F0010000006730500420150123000101 00000000000000000000000000000000000000000000000000000000000000000000000000000000000000000000000000000000000000000N 00000000000NCONT   00    00000000000          00000000000000000000000000000000000000000000 000000000000000A000000000000000000000000000000000000000000000 000000000000000000000000000000000000000     00000000                                                                                                                        000000000000000000
F0010000006730500005000000431178400013552100000000000000000201501230002001EFRAIN ALVAREZ                                    D000000000006900000000000000000000100010010000000000000000000000F0010000006730500520150123000101 00000000000000000000000000000000000000000000000000000000000000000000000000000000000000000000000000000000000000000N 00000000000NCONT   00    00000000000          00000000000000000000000000000000000000000000 000000000000000A000000000000000000000000000000000000000000000 000000000000000000000000000000000000000     00000000                                                                                                                        000000000000000000
F0010000006730600001000000431178400011050500000000000000000201501230002001EFRAIN ALVAREZ                                    D000000000910000000000000000000000100010010000000000000000000000F0010000006730600120150123000101 00000000000000000000000000000000000000000000000000000000000000000000000000000000000000000000000000000000000000000N 00000000000NCONT   00    00000000000          00000000000000000000000000000000000000000000 000000000000000A000000000000000000000000000000000000000000000 000000000000000000000000000000000000000     00000000                                                                                                                        000000000000000000
F0010000006730600002000000431178400041450500000000000000000201501230002001EFRAIN ALVAREZ                                    C000000000860000000000000000000000100010010000000000000000000000F0010000006730600220150123000101 00000000000000000000000000000000000000000000000000000000000000000000000000000000000000000000000000000000000000000N 00000000000NCONT   00    00000000000          00000000000000000000000000000000000000000000 000000000000000A000000000000000000000000000000000000000000000 000000000000000000000000000000000000000     00000000                                                                                                                        000000000000000000
F0010000006730600003000000431178400042505000000000000000000201501230002001EFRAIN ALVAREZ                                    C000000000050000000000000000000000100010010000000000000000000000F0010000006730600320150123000101 00000000000000000000000000000000000000000000000000000000000000000000000000000000000000000000000000000000000000000N 00000000000NCONT   00    00000000000          00000000000000000000000000000000000000000000 000000000000000A000000000000000000000000000000000000000000000 000000000000000000000000000000000000000     00000000                                                                                                                        000000000000000000
F0010000006730600004000000431178400023658300000000000000000201501230002001EFRAIN ALVAREZ                                    C000000000006900000000000000000000100010010000000000000000000000F0010000006730600420150123000101 00000000000000000000000000000000000000000000000000000000000000000000000000000000000000000000000000000000000000000N 00000000000NCONT   00    00000000000          00000000000000000000000000000000000000000000 000000000000000A000000000000000000000000000000000000000000000 000000000000000000000000000000000000000     00000000                                                                                                                        000000000000000000
F0010000006730600005000000431178400013552100000000000000000201501230002001EFRAIN ALVAREZ                                    D000000000006900000000000000000000100010010000000000000000000000F0010000006730600520150123000101 00000000000000000000000000000000000000000000000000000000000000000000000000000000000000000000000000000000000000000N 00000000000NCONT   00    00000000000          00000000000000000000000000000000000000000000 000000000000000A000000000000000000000000000000000000000000000 000000000000000000000000000000000000000     00000000                                                                                                                        000000000000000000
F0010000006730700001000000431178400011050500000000000000000201501230002001EFRAIN ALVAREZ                                    D000000000650000000000000000000000100010010000000000000000000000F0010000006730700120150123000101 00000000000000000000000000000000000000000000000000000000000000000000000000000000000000000000000000000000000000000N 00000000000NCONT   00    00000000000          00000000000000000000000000000000000000000000 000000000000000A000000000000000000000000000000000000000000000 000000000000000000000000000000000000000     00000000                                                                                                                        000000000000000000
F0010000006730700002000000431178400041450500000000000000000201501230002001EFRAIN ALVAREZ                                    C000000000500000000000000000000000100010010000000000000000000000F0010000006730700220150123000101 00000000000000000000000000000000000000000000000000000000000000000000000000000000000000000000000000000000000000000N 00000000000NCONT   00    00000000000          00000000000000000000000000000000000000000000 000000000000000A000000000000000000000000000000000000000000000 000000000000000000000000000000000000000     00000000                                                                                                                        000000000000000000
