F0010000008226600001000002246751200011050500000000000000000201602100002001DISTRICALZADO DEL CARIBE                          D000000001800000000000000000000000100010010000000000000000000000F0010000008226600120160210000101 00000000000000000000000000000000000000000000000000000000000000000000000000000000000000000000000000000000000000000N 00000000000NCONT   00    00000000000          00000000000000000000000000000000000000000000 000000000000000A000000000000000000000000000000000000000000000 000000000000000000000000000000000000000     00000000                                                                                                                        000000000000000000
F0010000008226600002000002246751200041450500000000000000000201602100002001DISTRICALZADO DEL CARIBE                          C000000001500000000000000000000000100010010000000000000000000000F0010000008226600220160210000101 00000000000000000000000000000000000000000000000000000000000000000000000000000000000000000000000000000000000000000N 00000000000NCONT   00    00000000000          00000000000000000000000000000000000000000000 000000000000000A000000000000000000000000000000000000000000000 000000000000000000000000000000000000000     00000000                                                                                                                        000000000000000000
F0010000008226600003000002246751200042505000000000000000000201602100002001DISTRICALZADO DEL CARIBE                          C000000000300000000000000000000000100010010000000000000000000000F0010000008226600320160210000101 00000000000000000000000000000000000000000000000000000000000000000000000000000000000000000000000000000000000000000N 00000000000NCONT   00    00000000000          00000000000000000000000000000000000000000000 000000000000000A000000000000000000000000000000000000000000000 000000000000000000000000000000000000000     00000000                                                                                                                        000000000000000000
F0010000008226600004000002246751200023658300000000000000000201602100002001DISTRICALZADO DEL CARIBE                          C000000000012000000000000000000000100010010000000000000000000000F0010000008226600420160210000101 00000000000000000000000000000000000000000000000000000000000000000000000000000000000000000000000000000000000000000N 00000000000NCONT   00    00000000000          00000000000000000000000000000000000000000000 000000000000000A000000000000000000000000000000000000000000000 000000000000000000000000000000000000000     00000000                                                                                                                        000000000000000000
F0010000008226600005000002246751200013552100000000000000000201602100002001DISTRICALZADO DEL CARIBE                          D000000000012000000000000000000000100010010000000000000000000000F0010000008226600520160210000101 00000000000000000000000000000000000000000000000000000000000000000000000000000000000000000000000000000000000000000N 00000000000NCONT   00    00000000000          00000000000000000000000000000000000000000000 000000000000000A000000000000000000000000000000000000000000000 000000000000000000000000000000000000000     00000000                                                                                                                        000000000000000000
F0010000008226700001000002246751200011050500000000000000000201602100002001DISTRICALZADO DEL CARIBE                          D000000001500000000000000000000000100010010000000000000000000000F0010000008226700120160210000101 00000000000000000000000000000000000000000000000000000000000000000000000000000000000000000000000000000000000000000N 00000000000NCONT   00    00000000000          00000000000000000000000000000000000000000000 000000000000000A000000000000000000000000000000000000000000000 000000000000000000000000000000000000000     00000000                                                                                                                        000000000000000000
F0010000008226700002000002246751200041450500000000000000000201602100002001DISTRICALZADO DEL CARIBE                          C000000001200000000000000000000000100010010000000000000000000000F0010000008226700220160210000101 00000000000000000000000000000000000000000000000000000000000000000000000000000000000000000000000000000000000000000N 00000000000NCONT   00    00000000000          00000000000000000000000000000000000000000000 000000000000000A000000000000000000000000000000000000000000000 000000000000000000000000000000000000000     00000000                                                                                                                        000000000000000000
F0010000008226700003000002246751200042505000000000000000000201602100002001DISTRICALZADO DEL CARIBE                          C000000000300000000000000000000000100010010000000000000000000000F0010000008226700320160210000101 00000000000000000000000000000000000000000000000000000000000000000000000000000000000000000000000000000000000000000N 00000000000NCONT   00    00000000000          00000000000000000000000000000000000000000000 000000000000000A000000000000000000000000000000000000000000000 000000000000000000000000000000000000000     00000000                                                                                                                        000000000000000000
F0010000008226700004000002246751200023658300000000000000000201602100002001DISTRICALZADO DEL CARIBE                          C000000000009600000000000000000000100010010000000000000000000000F0010000008226700420160210000101 00000000000000000000000000000000000000000000000000000000000000000000000000000000000000000000000000000000000000000N 00000000000NCONT   00    00000000000          00000000000000000000000000000000000000000000 000000000000000A000000000000000000000000000000000000000000000 000000000000000000000000000000000000000     00000000                                                                                                                        000000000000000000
F0010000008226700005000002246751200013552100000000000000000201602100002001DISTRICALZADO DEL CARIBE                          D000000000009600000000000000000000100010010000000000000000000000F0010000008226700520160210000101 00000000000000000000000000000000000000000000000000000000000000000000000000000000000000000000000000000000000000000N 00000000000NCONT   00    00000000000          00000000000000000000000000000000000000000000 000000000000000A000000000000000000000000000000000000000000000 000000000000000000000000000000000000000     00000000                                                                                                                        000000000000000000
F0010000008226800001000002246751200011050500000000000000000201602100002001DISTRICALZADO DEL CARIBE                          D000000001500000000000000000000000100010010000000000000000000000F0010000008226800120160210000101 00000000000000000000000000000000000000000000000000000000000000000000000000000000000000000000000000000000000000000N 00000000000NCONT   00    00000000000          00000000000000000000000000000000000000000000 000000000000000A000000000000000000000000000000000000000000000 000000000000000000000000000000000000000     00000000                                                                                                                        000000000000000000
F0010000008226800002000002246751200041450500000000000000000201602100002001DISTRICALZADO DEL CARIBE                          C000000001200000000000000000000000100010010000000000000000000000F0010000008226800220160210000101 00000000000000000000000000000000000000000000000000000000000000000000000000000000000000000000000000000000000000000N 00000000000NCONT   00    00000000000          00000000000000000000000000000000000000000000 000000000000000A000000000000000000000000000000000000000000000 000000000000000000000000000000000000000     00000000                                                                                                                        000000000000000000
F0010000008226800003000002246751200042505000000000000000000201602100002001DISTRICALZADO DEL CARIBE                          C000000000300000000000000000000000100010010000000000000000000000F0010000008226800320160210000101 00000000000000000000000000000000000000000000000000000000000000000000000000000000000000000000000000000000000000000N 00000000000NCONT   00    00000000000          00000000000000000000000000000000000000000000 000000000000000A000000000000000000000000000000000000000000000 000000000000000000000000000000000000000     00000000                                                                                                                        000000000000000000
F0010000008226800004000002246751200023658300000000000000000201602100002001DISTRICALZADO DEL CARIBE                          C000000000009600000000000000000000100010010000000000000000000000F0010000008226800420160210000101 00000000000000000000000000000000000000000000000000000000000000000000000000000000000000000000000000000000000000000N 00000000000NCONT   00    00000000000          00000000000000000000000000000000000000000000 000000000000000A000000000000000000000000000000000000000000000 000000000000000000000000000000000000000     00000000                                                                                                                        000000000000000000
F0010000008226800005000002246751200013552100000000000000000201602100002001DISTRICALZADO DEL CARIBE                          D000000000009600000000000000000000100010010000000000000000000000F0010000008226800520160210000101 00000000000000000000000000000000000000000000000000000000000000000000000000000000000000000000000000000000000000000N 00000000000NCONT   00    00000000000          00000000000000000000000000000000000000000000 000000000000000A000000000000000000000000000000000000000000000 000000000000000000000000000000000000000     00000000                                                                                                                        000000000000000000
F0010000008226900001000002246751200011050500000000000000000201602100002001DISTRICALZADO DEL CARIBE                          D000000001500000000000000000000000100010010000000000000000000000F0010000008226900120160210000101 00000000000000000000000000000000000000000000000000000000000000000000000000000000000000000000000000000000000000000N 00000000000NCONT   00    00000000000          00000000000000000000000000000000000000000000 000000000000000A000000000000000000000000000000000000000000000 000000000000000000000000000000000000000     00000000                                                                                                                        000000000000000000
F0010000008226900002000002246751200041450500000000000000000201602100002001DISTRICALZADO DEL CARIBE                          C000000001200000000000000000000000100010010000000000000000000000F0010000008226900220160210000101 00000000000000000000000000000000000000000000000000000000000000000000000000000000000000000000000000000000000000000N 00000000000NCONT   00    00000000000          00000000000000000000000000000000000000000000 000000000000000A000000000000000000000000000000000000000000000 000000000000000000000000000000000000000     00000000                                                                                                                        000000000000000000
F0010000008226900003000002246751200042505000000000000000000201602100002001DISTRICALZADO DEL CARIBE                          C000000000300000000000000000000000100010010000000000000000000000F0010000008226900320160210000101 00000000000000000000000000000000000000000000000000000000000000000000000000000000000000000000000000000000000000000N 00000000000NCONT   00    00000000000          00000000000000000000000000000000000000000000 000000000000000A000000000000000000000000000000000000000000000 000000000000000000000000000000000000000     00000000                                                                                                                        000000000000000000
F0010000008226900004000002246751200023658300000000000000000201602100002001DISTRICALZADO DEL CARIBE                          C000000000009600000000000000000000100010010000000000000000000000F0010000008226900420160210000101 00000000000000000000000000000000000000000000000000000000000000000000000000000000000000000000000000000000000000000N 00000000000NCONT   00    00000000000          00000000000000000000000000000000000000000000 000000000000000A000000000000000000000000000000000000000000000 000000000000000000000000000000000000000     00000000                                                                                                                        000000000000000000
F0010000008226900005000002246751200013552100000000000000000201602100002001DISTRICALZADO DEL CARIBE                          D000000000009600000000000000000000100010010000000000000000000000F0010000008226900520160210000101 00000000000000000000000000000000000000000000000000000000000000000000000000000000000000000000000000000000000000000N 00000000000NCONT   00    00000000000          00000000000000000000000000000000000000000000 000000000000000A000000000000000000000000000000000000000000000 000000000000000000000000000000000000000     00000000                                                                                                                        000000000000000000
F0010000008227000001000009125678500011050500000000000000000201602100002001SALOMON DIAZ MONSALVE                             D000000026000000000000000000000000100010010000000000000000000000F0010000008227000120160210000101 00000000000000000000000000000000000000000000000000000000000000000000000000000000000000000000000000000000000000000N 00000000000NCONT   00    00000000000          00000000000000000000000000000000000000000000 000000000000000A000000000000000000000000000000000000000000000 000000000000000000000000000000000000000     00000000                                                                                                                        000000000000000000
F0010000008227000002000009125678500041450500000000000000000201602100002001SALOMON DIAZ MONSALVE                             C000000025000000000000000000000000100010010000000000000000000000F0010000008227000220160210000101 00000000000000000000000000000000000000000000000000000000000000000000000000000000000000000000000000000000000000000N 00000000000NCONT   00    00000000000          00000000000000000000000000000000000000000000 000000000000000A000000000000000000000000000000000000000000000 000000000000000000000000000000000000000     00000000                                                                                                                        000000000000000000
F0010000008227000003000009125678500042505000000000000000000201602100002001SALOMON DIAZ MONSALVE                             C000000001000000000000000000000000100010010000000000000000000000F0010000008227000320160210000101 00000000000000000000000000000000000000000000000000000000000000000000000000000000000000000000000000000000000000000N 00000000000NCONT   00    00000000000          00000000000000000000000000000000000000000000 000000000000000A000000000000000000000000000000000000000000000 000000000000000000000000000000000000000     00000000                                                                                                                        000000000000000000
F0010000008227000004000009125678500023658300000000000000000201602100002001SALOMON DIAZ MONSALVE                             C000000000200000000000000000000000100010010000000000000000000000F0010000008227000420160210000101 00000000000000000000000000000000000000000000000000000000000000000000000000000000000000000000000000000000000000000N 00000000000NCONT   00    00000000000          00000000000000000000000000000000000000000000 000000000000000A000000000000000000000000000000000000000000000 000000000000000000000000000000000000000     00000000                                                                                                                        000000000000000000
F0010000008227000005000009125678500013552100000000000000000201602100002001SALOMON DIAZ MONSALVE                             D000000000200000000000000000000000100010010000000000000000000000F0010000008227000520160210000101 00000000000000000000000000000000000000000000000000000000000000000000000000000000000000000000000000000000000000000N 00000000000NCONT   00    00000000000          00000000000000000000000000000000000000000000 000000000000000A000000000000000000000000000000000000000000000 000000000000000000000000000000000000000     00000000                                                                                                                        000000000000000000
F0010000008227100001000009125678500011050500000000000000000201602100002001SALOMON DIAZ MONSALVE                             D000000011000000000000000000000000100010010000000000000000000000F0010000008227100120160210000101 00000000000000000000000000000000000000000000000000000000000000000000000000000000000000000000000000000000000000000N 00000000000NCONT   00    00000000000          00000000000000000000000000000000000000000000 000000000000000A000000000000000000000000000000000000000000000 000000000000000000000000000000000000000     00000000                                                                                                                        000000000000000000
F0010000008227100002000009125678500041450500000000000000000201602100002001SALOMON DIAZ MONSALVE                             C000000010000000000000000000000000100010010000000000000000000000F0010000008227100220160210000101 00000000000000000000000000000000000000000000000000000000000000000000000000000000000000000000000000000000000000000N 00000000000NCONT   00    00000000000          00000000000000000000000000000000000000000000 000000000000000A000000000000000000000000000000000000000000000 000000000000000000000000000000000000000     00000000                                                                                                                        000000000000000000
F0010000008227100003000009125678500042505000000000000000000201602100002001SALOMON DIAZ MONSALVE                             C000000001000000000000000000000000100010010000000000000000000000F0010000008227100320160210000101 00000000000000000000000000000000000000000000000000000000000000000000000000000000000000000000000000000000000000000N 00000000000NCONT   00    00000000000          00000000000000000000000000000000000000000000 000000000000000A000000000000000000000000000000000000000000000 000000000000000000000000000000000000000     00000000                                                                                                                        000000000000000000
F0010000008227100004000009125678500023658300000000000000000201602100002001SALOMON DIAZ MONSALVE                             C000000000080000000000000000000000100010010000000000000000000000F0010000008227100420160210000101 00000000000000000000000000000000000000000000000000000000000000000000000000000000000000000000000000000000000000000N 00000000000NCONT   00    00000000000          00000000000000000000000000000000000000000000 000000000000000A000000000000000000000000000000000000000000000 000000000000000000000000000000000000000     00000000                                                                                                                        000000000000000000
F0010000008227100005000009125678500013552100000000000000000201602100002001SALOMON DIAZ MONSALVE                             D000000000080000000000000000000000100010010000000000000000000000F0010000008227100520160210000101 00000000000000000000000000000000000000000000000000000000000000000000000000000000000000000000000000000000000000000N 00000000000NCONT   00    00000000000          00000000000000000000000000000000000000000000 000000000000000A000000000000000000000000000000000000000000000 000000000000000000000000000000000000000     00000000                                                                                                                        000000000000000000
F0010000008227200001000009125678500011050500000000000000000201602100002001SALOMON DIAZ MONSALVE                             D000000002000000000000000000000000100010010000000000000000000000F0010000008227200120160210000101 00000000000000000000000000000000000000000000000000000000000000000000000000000000000000000000000000000000000000000N 00000000000NCONT   00    00000000000          00000000000000000000000000000000000000000000 000000000000000A000000000000000000000000000000000000000000000 000000000000000000000000000000000000000     00000000                                                                                                                        000000000000000000
F0010000008227200002000009125678500041450500000000000000000201602100002001SALOMON DIAZ MONSALVE                             C000000001900000000000000000000000100010010000000000000000000000F0010000008227200220160210000101 00000000000000000000000000000000000000000000000000000000000000000000000000000000000000000000000000000000000000000N 00000000000NCONT   00    00000000000          00000000000000000000000000000000000000000000 000000000000000A000000000000000000000000000000000000000000000 000000000000000000000000000000000000000     00000000                                                                                                                        000000000000000000
F0010000008227200003000009125678500042505000000000000000000201602100002001SALOMON DIAZ MONSALVE                             C000000000100000000000000000000000100010010000000000000000000000F0010000008227200320160210000101 00000000000000000000000000000000000000000000000000000000000000000000000000000000000000000000000000000000000000000N 00000000000NCONT   00    00000000000          00000000000000000000000000000000000000000000 000000000000000A000000000000000000000000000000000000000000000 000000000000000000000000000000000000000     00000000                                                                                                                        000000000000000000
F0010000008227200004000009125678500023658300000000000000000201602100002001SALOMON DIAZ MONSALVE                             C000000000015200000000000000000000100010010000000000000000000000F0010000008227200420160210000101 00000000000000000000000000000000000000000000000000000000000000000000000000000000000000000000000000000000000000000N 00000000000NCONT   00    00000000000          00000000000000000000000000000000000000000000 000000000000000A000000000000000000000000000000000000000000000 000000000000000000000000000000000000000     00000000                                                                                                                        000000000000000000
F0010000008227200005000009125678500013552100000000000000000201602100002001SALOMON DIAZ MONSALVE                             D000000000015200000000000000000000100010010000000000000000000000F0010000008227200520160210000101 00000000000000000000000000000000000000000000000000000000000000000000000000000000000000000000000000000000000000000N 00000000000NCONT   00    00000000000          00000000000000000000000000000000000000000000 000000000000000A000000000000000000000000000000000000000000000 000000000000000000000000000000000000000     00000000                                                                                                                        000000000000000000
F0010000008227300001000007213653800011050500000000000000000201602100002001VICTOR ECHAVEZ                                    D000000002800000000000000000000000100010010000000000000000000000F0010000008227300120160210000101 00000000000000000000000000000000000000000000000000000000000000000000000000000000000000000000000000000000000000000N 00000000000NCONT   00    00000000000          00000000000000000000000000000000000000000000 000000000000000A000000000000000000000000000000000000000000000 000000000000000000000000000000000000000     00000000                                                                                                                        000000000000000000
F0010000008227300002000007213653800041450500000000000000000201602100002001VICTOR ECHAVEZ                                    C000000002400000000000000000000000100010010000000000000000000000F0010000008227300220160210000101 00000000000000000000000000000000000000000000000000000000000000000000000000000000000000000000000000000000000000000N 00000000000NCONT   00    00000000000          00000000000000000000000000000000000000000000 000000000000000A000000000000000000000000000000000000000000000 000000000000000000000000000000000000000     00000000                                                                                                                        000000000000000000
F0010000008227300003000007213653800042505000000000000000000201602100002001VICTOR ECHAVEZ                                    C000000000400000000000000000000000100010010000000000000000000000F0010000008227300320160210000101 00000000000000000000000000000000000000000000000000000000000000000000000000000000000000000000000000000000000000000N 00000000000NCONT   00    00000000000          00000000000000000000000000000000000000000000 000000000000000A000000000000000000000000000000000000000000000 000000000000000000000000000000000000000     00000000                                                                                                                        000000000000000000
F0010000008227300004000007213653800023658300000000000000000201602100002001VICTOR ECHAVEZ                                    C000000000019200000000000000000000100010010000000000000000000000F0010000008227300420160210000101 00000000000000000000000000000000000000000000000000000000000000000000000000000000000000000000000000000000000000000N 00000000000NCONT   00    00000000000          00000000000000000000000000000000000000000000 000000000000000A000000000000000000000000000000000000000000000 000000000000000000000000000000000000000     00000000                                                                                                                        000000000000000000
F0010000008227300005000007213653800013552100000000000000000201602100002001VICTOR ECHAVEZ                                    D000000000019200000000000000000000100010010000000000000000000000F0010000008227300520160210000101 00000000000000000000000000000000000000000000000000000000000000000000000000000000000000000000000000000000000000000N 00000000000NCONT   00    00000000000          00000000000000000000000000000000000000000000 000000000000000A000000000000000000000000000000000000000000000 000000000000000000000000000000000000000     00000000                                                                                                                        000000000000000000
F0010000008227400001000005525050200011050500000000000000000201602100002001PLASTICOS  DE LA COSTA                            D000000001926000000000000000000000100010010000000000000000000000F0010000008227400120160210000101 00000000000000000000000000000000000000000000000000000000000000000000000000000000000000000000000000000000000000000N 00000000000NCONT   00    00000000000          00000000000000000000000000000000000000000000 000000000000000A000000000000000000000000000000000000000000000 000000000000000000000000000000000000000     00000000                                                                                                                        000000000000000000
F0010000008227400002000005525050200041450500000000000000000201602100002001PLASTICOS  DE LA COSTA                            C000000001826000000000000000000000100010010000000000000000000000F0010000008227400220160210000101 00000000000000000000000000000000000000000000000000000000000000000000000000000000000000000000000000000000000000000N 00000000000NCONT   00    00000000000          00000000000000000000000000000000000000000000 000000000000000A000000000000000000000000000000000000000000000 000000000000000000000000000000000000000     00000000                                                                                                                        000000000000000000
F0010000008227400003000005525050200042505000000000000000000201602100002001PLASTICOS  DE LA COSTA                            C000000000100000000000000000000000100010010000000000000000000000F0010000008227400320160210000101 00000000000000000000000000000000000000000000000000000000000000000000000000000000000000000000000000000000000000000N 00000000000NCONT   00    00000000000          00000000000000000000000000000000000000000000 000000000000000A000000000000000000000000000000000000000000000 000000000000000000000000000000000000000     00000000                                                                                                                        000000000000000000
F0010000008227400004000005525050200023658300000000000000000201602100002001PLASTICOS  DE LA COSTA                            C000000000014600000000000000000000100010010000000000000000000000F0010000008227400420160210000101 00000000000000000000000000000000000000000000000000000000000000000000000000000000000000000000000000000000000000000N 00000000000NCONT   00    00000000000          00000000000000000000000000000000000000000000 000000000000000A000000000000000000000000000000000000000000000 000000000000000000000000000000000000000     00000000                                                                                                                        000000000000000000
F0010000008227400005000005525050200013552100000000000000000201602100002001PLASTICOS  DE LA COSTA                            D000000000014600000000000000000000100010010000000000000000000000F0010000008227400520160210000101 00000000000000000000000000000000000000000000000000000000000000000000000000000000000000000000000000000000000000000N 00000000000NCONT   00    00000000000          00000000000000000000000000000000000000000000 000000000000000A000000000000000000000000000000000000000000000 000000000000000000000000000000000000000     00000000                                                                                                                        000000000000000000
F0010000008227500001000000554377700011050500000000000000000201602100002001TECNICARPAS (CARLOS HERRERA)                      D000000001000000000000000000000000100010010000000000000000000000F0010000008227500120160210000101 00000000000000000000000000000000000000000000000000000000000000000000000000000000000000000000000000000000000000000N 00000000000NCONT   00    00000000000          00000000000000000000000000000000000000000000 000000000000000A000000000000000000000000000000000000000000000 000000000000000000000000000000000000000     00000000                                                                                                                        000000000000000000
F0010000008227500002000000554377700041450500000000000000000201602100002001TECNICARPAS (CARLOS HERRERA)                      C000000000900000000000000000000000100010010000000000000000000000F0010000008227500220160210000101 00000000000000000000000000000000000000000000000000000000000000000000000000000000000000000000000000000000000000000N 00000000000NCONT   00    00000000000          00000000000000000000000000000000000000000000 000000000000000A000000000000000000000000000000000000000000000 000000000000000000000000000000000000000     00000000                                                                                                                        000000000000000000
F0010000008227500003000000554377700042505000000000000000000201602100002001TECNICARPAS (CARLOS HERRERA)                      C000000000100000000000000000000000100010010000000000000000000000F0010000008227500320160210000101 00000000000000000000000000000000000000000000000000000000000000000000000000000000000000000000000000000000000000000N 00000000000NCONT   00    00000000000          00000000000000000000000000000000000000000000 000000000000000A000000000000000000000000000000000000000000000 000000000000000000000000000000000000000     00000000                                                                                                                        000000000000000000
F0010000008227500004000000554377700023658300000000000000000201602100002001TECNICARPAS (CARLOS HERRERA)                      C000000000007200000000000000000000100010010000000000000000000000F0010000008227500420160210000101 00000000000000000000000000000000000000000000000000000000000000000000000000000000000000000000000000000000000000000N 00000000000NCONT   00    00000000000          00000000000000000000000000000000000000000000 000000000000000A000000000000000000000000000000000000000000000 000000000000000000000000000000000000000     00000000                                                                                                                        000000000000000000
F0010000008227500005000000554377700013552100000000000000000201602100002001TECNICARPAS (CARLOS HERRERA)                      D000000000007200000000000000000000100010010000000000000000000000F0010000008227500520160210000101 00000000000000000000000000000000000000000000000000000000000000000000000000000000000000000000000000000000000000000N 00000000000NCONT   00    00000000000          00000000000000000000000000000000000000000000 000000000000000A000000000000000000000000000000000000000000000 000000000000000000000000000000000000000     00000000                                                                                                                        000000000000000000
F0010000008227600001000003207718300011050500000000000000000201602100002001MARIA GILMA RAMIREZ GARCIA                        D000000007000000000000000000000000100010010000000000000000000000F0010000008227600120160210000101 00000000000000000000000000000000000000000000000000000000000000000000000000000000000000000000000000000000000000000N 00000000000NCONT   00    00000000000          00000000000000000000000000000000000000000000 000000000000000A000000000000000000000000000000000000000000000 000000000000000000000000000000000000000     00000000                                                                                                                        000000000000000000
F0010000008227600002000003207718300041450500000000000000000201602100002001MARIA GILMA RAMIREZ GARCIA                        C000000006000000000000000000000000100010010000000000000000000000F0010000008227600220160210000101 00000000000000000000000000000000000000000000000000000000000000000000000000000000000000000000000000000000000000000N 00000000000NCONT   00    00000000000          00000000000000000000000000000000000000000000 000000000000000A000000000000000000000000000000000000000000000 000000000000000000000000000000000000000     00000000                                                                                                                        000000000000000000
F0010000008227600003000003207718300042505000000000000000000201602100002001MARIA GILMA RAMIREZ GARCIA                        C000000001000000000000000000000000100010010000000000000000000000F0010000008227600320160210000101 00000000000000000000000000000000000000000000000000000000000000000000000000000000000000000000000000000000000000000N 00000000000NCONT   00    00000000000          00000000000000000000000000000000000000000000 000000000000000A000000000000000000000000000000000000000000000 000000000000000000000000000000000000000     00000000                                                                                                                        000000000000000000
F0010000008227600004000003207718300023658300000000000000000201602100002001MARIA GILMA RAMIREZ GARCIA                        C000000000048000000000000000000000100010010000000000000000000000F0010000008227600420160210000101 00000000000000000000000000000000000000000000000000000000000000000000000000000000000000000000000000000000000000000N 00000000000NCONT   00    00000000000          00000000000000000000000000000000000000000000 000000000000000A000000000000000000000000000000000000000000000 000000000000000000000000000000000000000     00000000                                                                                                                        000000000000000000
F0010000008227600005000003207718300013552100000000000000000201602100002001MARIA GILMA RAMIREZ GARCIA                        D000000000048000000000000000000000100010010000000000000000000000F0010000008227600520160210000101 00000000000000000000000000000000000000000000000000000000000000000000000000000000000000000000000000000000000000000N 00000000000NCONT   00    00000000000          00000000000000000000000000000000000000000000 000000000000000A000000000000000000000000000000000000000000000 000000000000000000000000000000000000000     00000000                                                                                                                        000000000000000000
F0010000008227700001000002243710500011050500000000000000000201602100002001DARIO CABARCAS                                    D000000002500000000000000000000000100010010000000000000000000000F0010000008227700120160210000101 00000000000000000000000000000000000000000000000000000000000000000000000000000000000000000000000000000000000000000N 00000000000NCONT   00    00000000000          00000000000000000000000000000000000000000000 000000000000000A000000000000000000000000000000000000000000000 000000000000000000000000000000000000000     00000000                                                                                                                        000000000000000000
F0010000008227700002000002243710500041450500000000000000000201602100002001DARIO CABARCAS                                    C000000002000000000000000000000000100010010000000000000000000000F0010000008227700220160210000101 00000000000000000000000000000000000000000000000000000000000000000000000000000000000000000000000000000000000000000N 00000000000NCONT   00    00000000000          00000000000000000000000000000000000000000000 000000000000000A000000000000000000000000000000000000000000000 000000000000000000000000000000000000000     00000000                                                                                                                        000000000000000000
F0010000008227700003000002243710500042505000000000000000000201602100002001DARIO CABARCAS                                    C000000000500000000000000000000000100010010000000000000000000000F0010000008227700320160210000101 00000000000000000000000000000000000000000000000000000000000000000000000000000000000000000000000000000000000000000N 00000000000NCONT   00    00000000000          00000000000000000000000000000000000000000000 000000000000000A000000000000000000000000000000000000000000000 000000000000000000000000000000000000000     00000000                                                                                                                        000000000000000000
F0010000008227700004000002243710500023658300000000000000000201602100002001DARIO CABARCAS                                    C000000000016000000000000000000000100010010000000000000000000000F0010000008227700420160210000101 00000000000000000000000000000000000000000000000000000000000000000000000000000000000000000000000000000000000000000N 00000000000NCONT   00    00000000000          00000000000000000000000000000000000000000000 000000000000000A000000000000000000000000000000000000000000000 000000000000000000000000000000000000000     00000000                                                                                                                        000000000000000000
F0010000008227700005000002243710500013552100000000000000000201602100002001DARIO CABARCAS                                    D000000000016000000000000000000000100010010000000000000000000000F0010000008227700520160210000101 00000000000000000000000000000000000000000000000000000000000000000000000000000000000000000000000000000000000000000N 00000000000NCONT   00    00000000000          00000000000000000000000000000000000000000000 000000000000000A000000000000000000000000000000000000000000000 000000000000000000000000000000000000000     00000000                                                                                                                        000000000000000000
F0010000008227800001000000869402400011050500000000000000000201602100002001ISRAEL MANGA                                      D000000001300000000000000000000000100010010000000000000000000000F0010000008227800120160210000101 00000000000000000000000000000000000000000000000000000000000000000000000000000000000000000000000000000000000000000N 00000000000NCONT   00    00000000000          00000000000000000000000000000000000000000000 000000000000000A000000000000000000000000000000000000000000000 000000000000000000000000000000000000000     00000000                                                                                                                        000000000000000000
F0010000008227800002000000869402400041450500000000000000000201602100002001ISRAEL MANGA                                      C000000001200000000000000000000000100010010000000000000000000000F0010000008227800220160210000101 00000000000000000000000000000000000000000000000000000000000000000000000000000000000000000000000000000000000000000N 00000000000NCONT   00    00000000000          00000000000000000000000000000000000000000000 000000000000000A000000000000000000000000000000000000000000000 000000000000000000000000000000000000000     00000000                                                                                                                        000000000000000000
F0010000008227800003000000869402400042505000000000000000000201602100002001ISRAEL MANGA                                      C000000000100000000000000000000000100010010000000000000000000000F0010000008227800320160210000101 00000000000000000000000000000000000000000000000000000000000000000000000000000000000000000000000000000000000000000N 00000000000NCONT   00    00000000000          00000000000000000000000000000000000000000000 000000000000000A000000000000000000000000000000000000000000000 000000000000000000000000000000000000000     00000000                                                                                                                        000000000000000000
F0010000008227800004000000869402400023658300000000000000000201602100002001ISRAEL MANGA                                      C000000000009600000000000000000000100010010000000000000000000000F0010000008227800420160210000101 00000000000000000000000000000000000000000000000000000000000000000000000000000000000000000000000000000000000000000N 00000000000NCONT   00    00000000000          00000000000000000000000000000000000000000000 000000000000000A000000000000000000000000000000000000000000000 000000000000000000000000000000000000000     00000000                                                                                                                        000000000000000000
F0010000008227800005000000869402400013552100000000000000000201602100002001ISRAEL MANGA                                      D000000000009600000000000000000000100010010000000000000000000000F0010000008227800520160210000101 00000000000000000000000000000000000000000000000000000000000000000000000000000000000000000000000000000000000000000N 00000000000NCONT   00    00000000000          00000000000000000000000000000000000000000000 000000000000000A000000000000000000000000000000000000000000000 000000000000000000000000000000000000000     00000000                                                                                                                        000000000000000000
F0010000008227900001000090055180500011050500000000000000000201602100002001LAMINAS Y SUELAS DE COLOMBIA S.A.S                D000000002800000000000000000000000100010010000000000000000000000F0010000008227900120160210000101 00000000000000000000000000000000000000000000000000000000000000000000000000000000000000000000000000000000000000000N 00000000000NCONT   00    00000000000          00000000000000000000000000000000000000000000 000000000000000A000000000000000000000000000000000000000000000 000000000000000000000000000000000000000     00000000                                                                                                                        000000000000000000
F0010000008227900002000090055180500041450500000000000000000201602100002001LAMINAS Y SUELAS DE COLOMBIA S.A.S                C000000002550000000000000000000000100010010000000000000000000000F0010000008227900220160210000101 00000000000000000000000000000000000000000000000000000000000000000000000000000000000000000000000000000000000000000N 00000000000NCONT   00    00000000000          00000000000000000000000000000000000000000000 000000000000000A000000000000000000000000000000000000000000000 000000000000000000000000000000000000000     00000000                                                                                                                        000000000000000000
F0010000008227900003000090055180500042505000000000000000000201602100002001LAMINAS Y SUELAS DE COLOMBIA S.A.S                C000000000250000000000000000000000100010010000000000000000000000F0010000008227900320160210000101 00000000000000000000000000000000000000000000000000000000000000000000000000000000000000000000000000000000000000000N 00000000000NCONT   00    00000000000          00000000000000000000000000000000000000000000 000000000000000A000000000000000000000000000000000000000000000 000000000000000000000000000000000000000     00000000                                                                                                                        000000000000000000
F0010000008227900004000090055180500023658300000000000000000201602100002001LAMINAS Y SUELAS DE COLOMBIA S.A.S                C000000000020400000000000000000000100010010000000000000000000000F0010000008227900420160210000101 00000000000000000000000000000000000000000000000000000000000000000000000000000000000000000000000000000000000000000N 00000000000NCONT   00    00000000000          00000000000000000000000000000000000000000000 000000000000000A000000000000000000000000000000000000000000000 000000000000000000000000000000000000000     00000000                                                                                                                        000000000000000000
F0010000008227900005000090055180500013552100000000000000000201602100002001LAMINAS Y SUELAS DE COLOMBIA S.A.S                D000000000020400000000000000000000100010010000000000000000000000F0010000008227900520160210000101 00000000000000000000000000000000000000000000000000000000000000000000000000000000000000000000000000000000000000000N 00000000000NCONT   00    00000000000          00000000000000000000000000000000000000000000 000000000000000A000000000000000000000000000000000000000000000 000000000000000000000000000000000000000     00000000                                                                                                                        000000000000000000
F0010000008228000001000090087846000011050500000000000000000201602100002001INTERCOMERCIAL DL SAS                             D000000001400000000000000000000000100010010000000000000000000000F0010000008228000120160210000101 00000000000000000000000000000000000000000000000000000000000000000000000000000000000000000000000000000000000000000N 00000000000NCONT   00    00000000000          00000000000000000000000000000000000000000000 000000000000000A000000000000000000000000000000000000000000000 000000000000000000000000000000000000000     00000000                                                                                                                        000000000000000000
F0010000008228000002000090087846000041450500000000000000000201602100002001INTERCOMERCIAL DL SAS                             C000000001200000000000000000000000100010010000000000000000000000F0010000008228000220160210000101 00000000000000000000000000000000000000000000000000000000000000000000000000000000000000000000000000000000000000000N 00000000000NCONT   00    00000000000          00000000000000000000000000000000000000000000 000000000000000A000000000000000000000000000000000000000000000 000000000000000000000000000000000000000     00000000                                                                                                                        000000000000000000
F0010000008228000003000090087846000042505000000000000000000201602100002001INTERCOMERCIAL DL SAS                             C000000000200000000000000000000000100010010000000000000000000000F0010000008228000320160210000101 00000000000000000000000000000000000000000000000000000000000000000000000000000000000000000000000000000000000000000N 00000000000NCONT   00    00000000000          00000000000000000000000000000000000000000000 000000000000000A000000000000000000000000000000000000000000000 000000000000000000000000000000000000000     00000000                                                                                                                        000000000000000000
F0010000008228000004000090087846000023658300000000000000000201602100002001INTERCOMERCIAL DL SAS                             C000000000009600000000000000000000100010010000000000000000000000F0010000008228000420160210000101 00000000000000000000000000000000000000000000000000000000000000000000000000000000000000000000000000000000000000000N 00000000000NCONT   00    00000000000          00000000000000000000000000000000000000000000 000000000000000A000000000000000000000000000000000000000000000 000000000000000000000000000000000000000     00000000                                                                                                                        000000000000000000
F0010000008228000005000090087846000013552100000000000000000201602100002001INTERCOMERCIAL DL SAS                             D000000000009600000000000000000000100010010000000000000000000000F0010000008228000520160210000101 00000000000000000000000000000000000000000000000000000000000000000000000000000000000000000000000000000000000000000N 00000000000NCONT   00    00000000000          00000000000000000000000000000000000000000000 000000000000000A000000000000000000000000000000000000000000000 000000000000000000000000000000000000000     00000000                                                                                                                        000000000000000000
F0010000008228100001000090034602400011050500000000000000000201602100002001PRODUCTOS NACIONALES PARAFINICOS LA CUSTODIA S.A.SD000000001000000000000000000000000100010010000000000000000000000F0010000008228100120160210000101 00000000000000000000000000000000000000000000000000000000000000000000000000000000000000000000000000000000000000000N 00000000000NCONT   00    00000000000          00000000000000000000000000000000000000000000 000000000000000A000000000000000000000000000000000000000000000 000000000000000000000000000000000000000     00000000                                                                                                                        000000000000000000
F0010000008228100002000090034602400041450500000000000000000201602100002001PRODUCTOS NACIONALES PARAFINICOS LA CUSTODIA S.A.SC000000000900000000000000000000000100010010000000000000000000000F0010000008228100220160210000101 00000000000000000000000000000000000000000000000000000000000000000000000000000000000000000000000000000000000000000N 00000000000NCONT   00    00000000000          00000000000000000000000000000000000000000000 000000000000000A000000000000000000000000000000000000000000000 000000000000000000000000000000000000000     00000000                                                                                                                        000000000000000000
F0010000008228100003000090034602400042505000000000000000000201602100002001PRODUCTOS NACIONALES PARAFINICOS LA CUSTODIA S.A.SC000000000100000000000000000000000100010010000000000000000000000F0010000008228100320160210000101 00000000000000000000000000000000000000000000000000000000000000000000000000000000000000000000000000000000000000000N 00000000000NCONT   00    00000000000          00000000000000000000000000000000000000000000 000000000000000A000000000000000000000000000000000000000000000 000000000000000000000000000000000000000     00000000                                                                                                                        000000000000000000
F0010000008228100004000090034602400023658300000000000000000201602100002001PRODUCTOS NACIONALES PARAFINICOS LA CUSTODIA S.A.SC000000000007200000000000000000000100010010000000000000000000000F0010000008228100420160210000101 00000000000000000000000000000000000000000000000000000000000000000000000000000000000000000000000000000000000000000N 00000000000NCONT   00    00000000000          00000000000000000000000000000000000000000000 000000000000000A000000000000000000000000000000000000000000000 000000000000000000000000000000000000000     00000000                                                                                                                        000000000000000000
F0010000008228100005000090034602400013552100000000000000000201602100002001PRODUCTOS NACIONALES PARAFINICOS LA CUSTODIA S.A.SD000000000007200000000000000000000100010010000000000000000000000F0010000008228100520160210000101 00000000000000000000000000000000000000000000000000000000000000000000000000000000000000000000000000000000000000000N 00000000000NCONT   00    00000000000          00000000000000000000000000000000000000000000 000000000000000A000000000000000000000000000000000000000000000 000000000000000000000000000000000000000     00000000                                                                                                                        000000000000000000
F0010000008228200001000002243062200011050500000000000000000201602100002001LUDIS MARIA GALVIS RODRIGUEZ                      D000000002000000000000000000000000100010010000000000000000000000F0010000008228200120160210000101 00000000000000000000000000000000000000000000000000000000000000000000000000000000000000000000000000000000000000000N 00000000000NCONT   00    00000000000          00000000000000000000000000000000000000000000 000000000000000A000000000000000000000000000000000000000000000 000000000000000000000000000000000000000     00000000                                                                                                                        000000000000000000
F0010000008228200002000002243062200041450500000000000000000201602100002001LUDIS MARIA GALVIS RODRIGUEZ                      C000000001800000000000000000000000100010010000000000000000000000F0010000008228200220160210000101 00000000000000000000000000000000000000000000000000000000000000000000000000000000000000000000000000000000000000000N 00000000000NCONT   00    00000000000          00000000000000000000000000000000000000000000 000000000000000A000000000000000000000000000000000000000000000 000000000000000000000000000000000000000     00000000                                                                                                                        000000000000000000
F0010000008228200003000002243062200042505000000000000000000201602100002001LUDIS MARIA GALVIS RODRIGUEZ                      C000000000200000000000000000000000100010010000000000000000000000F0010000008228200320160210000101 00000000000000000000000000000000000000000000000000000000000000000000000000000000000000000000000000000000000000000N 00000000000NCONT   00    00000000000          00000000000000000000000000000000000000000000 000000000000000A000000000000000000000000000000000000000000000 000000000000000000000000000000000000000     00000000                                                                                                                        000000000000000000
F0010000008228200004000002243062200023658300000000000000000201602100002001LUDIS MARIA GALVIS RODRIGUEZ                      C000000000014400000000000000000000100010010000000000000000000000F0010000008228200420160210000101 00000000000000000000000000000000000000000000000000000000000000000000000000000000000000000000000000000000000000000N 00000000000NCONT   00    00000000000          00000000000000000000000000000000000000000000 000000000000000A000000000000000000000000000000000000000000000 000000000000000000000000000000000000000     00000000                                                                                                                        000000000000000000
F0010000008228200005000002243062200013552100000000000000000201602100002001LUDIS MARIA GALVIS RODRIGUEZ                      D000000000014400000000000000000000100010010000000000000000000000F0010000008228200520160210000101 00000000000000000000000000000000000000000000000000000000000000000000000000000000000000000000000000000000000000000N 00000000000NCONT   00    00000000000          00000000000000000000000000000000000000000000 000000000000000A000000000000000000000000000000000000000000000 000000000000000000000000000000000000000     00000000                                                                                                                        000000000000000000
F0010000008228300001000002243062200011050500000000000000000201602100002001LUDIS MARIA GALVIS RODRIGUEZ                      D000000001000000000000000000000000100010010000000000000000000000F0010000008228300120160210000101 00000000000000000000000000000000000000000000000000000000000000000000000000000000000000000000000000000000000000000N 00000000000NCONT   00    00000000000          00000000000000000000000000000000000000000000 000000000000000A000000000000000000000000000000000000000000000 000000000000000000000000000000000000000     00000000                                                                                                                        000000000000000000
F0010000008228300002000002243062200041450500000000000000000201602100002001LUDIS MARIA GALVIS RODRIGUEZ                      C000000000900000000000000000000000100010010000000000000000000000F0010000008228300220160210000101 00000000000000000000000000000000000000000000000000000000000000000000000000000000000000000000000000000000000000000N 00000000000NCONT   00    00000000000          00000000000000000000000000000000000000000000 000000000000000A000000000000000000000000000000000000000000000 000000000000000000000000000000000000000     00000000                                                                                                                        000000000000000000
F0010000008228300003000002243062200042505000000000000000000201602100002001LUDIS MARIA GALVIS RODRIGUEZ                      C000000000100000000000000000000000100010010000000000000000000000F0010000008228300320160210000101 00000000000000000000000000000000000000000000000000000000000000000000000000000000000000000000000000000000000000000N 00000000000NCONT   00    00000000000          00000000000000000000000000000000000000000000 000000000000000A000000000000000000000000000000000000000000000 000000000000000000000000000000000000000     00000000                                                                                                                        000000000000000000
F0010000008228300004000002243062200023658300000000000000000201602100002001LUDIS MARIA GALVIS RODRIGUEZ                      C000000000007200000000000000000000100010010000000000000000000000F0010000008228300420160210000101 00000000000000000000000000000000000000000000000000000000000000000000000000000000000000000000000000000000000000000N 00000000000NCONT   00    00000000000          00000000000000000000000000000000000000000000 000000000000000A000000000000000000000000000000000000000000000 000000000000000000000000000000000000000     00000000                                                                                                                        000000000000000000
F0010000008228300005000002243062200013552100000000000000000201602100002001LUDIS MARIA GALVIS RODRIGUEZ                      D000000000007200000000000000000000100010010000000000000000000000F0010000008228300520160210000101 00000000000000000000000000000000000000000000000000000000000000000000000000000000000000000000000000000000000000000N 00000000000NCONT   00    00000000000          00000000000000000000000000000000000000000000 000000000000000A000000000000000000000000000000000000000000000 000000000000000000000000000000000000000     00000000                                                                                                                        000000000000000000
F0010000008228400001000089070997800011050500000000000000000201602100002001CENTRAL DE TORNILLOS                              D000000001820000000000000000000000100010010000000000000000000000F0010000008228400120160210000101 00000000000000000000000000000000000000000000000000000000000000000000000000000000000000000000000000000000000000000N 00000000000NCONT   00    00000000000          00000000000000000000000000000000000000000000 000000000000000A000000000000000000000000000000000000000000000 000000000000000000000000000000000000000     00000000                                                                                                                        000000000000000000
F0010000008228400002000089070997800041450500000000000000000201602100002001CENTRAL DE TORNILLOS                              C000000001620000000000000000000000100010010000000000000000000000F0010000008228400220160210000101 00000000000000000000000000000000000000000000000000000000000000000000000000000000000000000000000000000000000000000N 00000000000NCONT   00    00000000000          00000000000000000000000000000000000000000000 000000000000000A000000000000000000000000000000000000000000000 000000000000000000000000000000000000000     00000000                                                                                                                        000000000000000000
F0010000008228400003000089070997800042505000000000000000000201602100002001CENTRAL DE TORNILLOS                              C000000000200000000000000000000000100010010000000000000000000000F0010000008228400320160210000101 00000000000000000000000000000000000000000000000000000000000000000000000000000000000000000000000000000000000000000N 00000000000NCONT   00    00000000000          00000000000000000000000000000000000000000000 000000000000000A000000000000000000000000000000000000000000000 000000000000000000000000000000000000000     00000000                                                                                                                        000000000000000000
F0010000008228400004000089070997800023658300000000000000000201602100002001CENTRAL DE TORNILLOS                              C000000000013000000000000000000000100010010000000000000000000000F0010000008228400420160210000101 00000000000000000000000000000000000000000000000000000000000000000000000000000000000000000000000000000000000000000N 00000000000NCONT   00    00000000000          00000000000000000000000000000000000000000000 000000000000000A000000000000000000000000000000000000000000000 000000000000000000000000000000000000000     00000000                                                                                                                        000000000000000000
F0010000008228400005000089070997800013552100000000000000000201602100002001CENTRAL DE TORNILLOS                              D000000000013000000000000000000000100010010000000000000000000000F0010000008228400520160210000101 00000000000000000000000000000000000000000000000000000000000000000000000000000000000000000000000000000000000000000N 00000000000NCONT   00    00000000000          00000000000000000000000000000000000000000000 000000000000000A000000000000000000000000000000000000000000000 000000000000000000000000000000000000000     00000000                                                                                                                        000000000000000000
F0010000008228500001000007213847800011050500000000000000000201602100002001ALEJANDRO MEZA ALVAREZ                            D000000001700000000000000000000000100010010000000000000000000000F0010000008228500120160210000101 00000000000000000000000000000000000000000000000000000000000000000000000000000000000000000000000000000000000000000N 00000000000NCONT   00    00000000000          00000000000000000000000000000000000000000000 000000000000000A000000000000000000000000000000000000000000000 000000000000000000000000000000000000000     00000000                                                                                                                        000000000000000000
F0010000008228500002000007213847800041450500000000000000000201602100002001ALEJANDRO MEZA ALVAREZ                            C000000001500000000000000000000000100010010000000000000000000000F0010000008228500220160210000101 00000000000000000000000000000000000000000000000000000000000000000000000000000000000000000000000000000000000000000N 00000000000NCONT   00    00000000000          00000000000000000000000000000000000000000000 000000000000000A000000000000000000000000000000000000000000000 000000000000000000000000000000000000000     00000000                                                                                                                        000000000000000000
F0010000008228500003000007213847800042505000000000000000000201602100002001ALEJANDRO MEZA ALVAREZ                            C000000000200000000000000000000000100010010000000000000000000000F0010000008228500320160210000101 00000000000000000000000000000000000000000000000000000000000000000000000000000000000000000000000000000000000000000N 00000000000NCONT   00    00000000000          00000000000000000000000000000000000000000000 000000000000000A000000000000000000000000000000000000000000000 000000000000000000000000000000000000000     00000000                                                                                                                        000000000000000000
F0010000008228500004000007213847800023658300000000000000000201602100002001ALEJANDRO MEZA ALVAREZ                            C000000000012000000000000000000000100010010000000000000000000000F0010000008228500420160210000101 00000000000000000000000000000000000000000000000000000000000000000000000000000000000000000000000000000000000000000N 00000000000NCONT   00    00000000000          00000000000000000000000000000000000000000000 000000000000000A000000000000000000000000000000000000000000000 000000000000000000000000000000000000000     00000000                                                                                                                        000000000000000000
F0010000008228500005000007213847800013552100000000000000000201602100002001ALEJANDRO MEZA ALVAREZ                            D000000000012000000000000000000000100010010000000000000000000000F0010000008228500520160210000101 00000000000000000000000000000000000000000000000000000000000000000000000000000000000000000000000000000000000000000N 00000000000NCONT   00    00000000000          00000000000000000000000000000000000000000000 000000000000000A000000000000000000000000000000000000000000000 000000000000000000000000000000000000000     00000000                                                                                                                        000000000000000000
F0010000008228600001000089070997800011050500000000000000000201602100002001CENTRAL DE TORNILLOS                              D000000001400000000000000000000000100010010000000000000000000000F0010000008228600120160210000101 00000000000000000000000000000000000000000000000000000000000000000000000000000000000000000000000000000000000000000N 00000000000NCONT   00    00000000000          00000000000000000000000000000000000000000000 000000000000000A000000000000000000000000000000000000000000000 000000000000000000000000000000000000000     00000000                                                                                                                        000000000000000000
F0010000008228600002000089070997800041450500000000000000000201602100002001CENTRAL DE TORNILLOS                              C000000001200000000000000000000000100010010000000000000000000000F0010000008228600220160210000101 00000000000000000000000000000000000000000000000000000000000000000000000000000000000000000000000000000000000000000N 00000000000NCONT   00    00000000000          00000000000000000000000000000000000000000000 000000000000000A000000000000000000000000000000000000000000000 000000000000000000000000000000000000000     00000000                                                                                                                        000000000000000000
F0010000008228600003000089070997800042505000000000000000000201602100002001CENTRAL DE TORNILLOS                              C000000000200000000000000000000000100010010000000000000000000000F0010000008228600320160210000101 00000000000000000000000000000000000000000000000000000000000000000000000000000000000000000000000000000000000000000N 00000000000NCONT   00    00000000000          00000000000000000000000000000000000000000000 000000000000000A000000000000000000000000000000000000000000000 000000000000000000000000000000000000000     00000000                                                                                                                        000000000000000000
F0010000008228600004000089070997800023658300000000000000000201602100002001CENTRAL DE TORNILLOS                              C000000000009600000000000000000000100010010000000000000000000000F0010000008228600420160210000101 00000000000000000000000000000000000000000000000000000000000000000000000000000000000000000000000000000000000000000N 00000000000NCONT   00    00000000000          00000000000000000000000000000000000000000000 000000000000000A000000000000000000000000000000000000000000000 000000000000000000000000000000000000000     00000000                                                                                                                        000000000000000000
F0010000008228600005000089070997800013552100000000000000000201602100002001CENTRAL DE TORNILLOS                              D000000000009600000000000000000000100010010000000000000000000000F0010000008228600520160210000101 00000000000000000000000000000000000000000000000000000000000000000000000000000000000000000000000000000000000000000N 00000000000NCONT   00    00000000000          00000000000000000000000000000000000000000000 000000000000000A000000000000000000000000000000000000000000000 000000000000000000000000000000000000000     00000000                                                                                                                        000000000000000000
F0010000008228700001000089070997800011050500000000000000000201602100002001CENTRAL DE TORNILLOS                              D000000001950000000000000000000000100010010000000000000000000000F0010000008228700120160210000101 00000000000000000000000000000000000000000000000000000000000000000000000000000000000000000000000000000000000000000N 00000000000NCONT   00    00000000000          00000000000000000000000000000000000000000000 000000000000000A000000000000000000000000000000000000000000000 000000000000000000000000000000000000000     00000000                                                                                                                        000000000000000000
F0010000008228700002000089070997800041450500000000000000000201602100002001CENTRAL DE TORNILLOS                              C000000001750000000000000000000000100010010000000000000000000000F0010000008228700220160210000101 00000000000000000000000000000000000000000000000000000000000000000000000000000000000000000000000000000000000000000N 00000000000NCONT   00    00000000000          00000000000000000000000000000000000000000000 000000000000000A000000000000000000000000000000000000000000000 000000000000000000000000000000000000000     00000000                                                                                                                        000000000000000000
F0010000008228700003000089070997800042505000000000000000000201602100002001CENTRAL DE TORNILLOS                              C000000000200000000000000000000000100010010000000000000000000000F0010000008228700320160210000101 00000000000000000000000000000000000000000000000000000000000000000000000000000000000000000000000000000000000000000N 00000000000NCONT   00    00000000000          00000000000000000000000000000000000000000000 000000000000000A000000000000000000000000000000000000000000000 000000000000000000000000000000000000000     00000000                                                                                                                        000000000000000000
F0010000008228700004000089070997800023658300000000000000000201602100002001CENTRAL DE TORNILLOS                              C000000000014000000000000000000000100010010000000000000000000000F0010000008228700420160210000101 00000000000000000000000000000000000000000000000000000000000000000000000000000000000000000000000000000000000000000N 00000000000NCONT   00    00000000000          00000000000000000000000000000000000000000000 000000000000000A000000000000000000000000000000000000000000000 000000000000000000000000000000000000000     00000000                                                                                                                        000000000000000000
F0010000008228700005000089070997800013552100000000000000000201602100002001CENTRAL DE TORNILLOS                              D000000000014000000000000000000000100010010000000000000000000000F0010000008228700520160210000101 00000000000000000000000000000000000000000000000000000000000000000000000000000000000000000000000000000000000000000N 00000000000NCONT   00    00000000000          00000000000000000000000000000000000000000000 000000000000000A000000000000000000000000000000000000000000000 000000000000000000000000000000000000000     00000000                                                                                                                        000000000000000000
F0010000008228800001000090027633800011050500000000000000000201602100002001MALLAS Y CERRAMIENTOS DEL ATLANTICO LTDA          D000000004500000000000000000000000100010010000000000000000000000F0010000008228800120160210000101 00000000000000000000000000000000000000000000000000000000000000000000000000000000000000000000000000000000000000000N 00000000000NCONT   00    00000000000          00000000000000000000000000000000000000000000 000000000000000A000000000000000000000000000000000000000000000 000000000000000000000000000000000000000     00000000                                                                                                                        000000000000000000
F0010000008228800002000090027633800041450500000000000000000201602100002001MALLAS Y CERRAMIENTOS DEL ATLANTICO LTDA          C000000004200000000000000000000000100010010000000000000000000000F0010000008228800220160210000101 00000000000000000000000000000000000000000000000000000000000000000000000000000000000000000000000000000000000000000N 00000000000NCONT   00    00000000000          00000000000000000000000000000000000000000000 000000000000000A000000000000000000000000000000000000000000000 000000000000000000000000000000000000000     00000000                                                                                                                        000000000000000000
F0010000008228800003000090027633800042505000000000000000000201602100002001MALLAS Y CERRAMIENTOS DEL ATLANTICO LTDA          C000000000300000000000000000000000100010010000000000000000000000F0010000008228800320160210000101 00000000000000000000000000000000000000000000000000000000000000000000000000000000000000000000000000000000000000000N 00000000000NCONT   00    00000000000          00000000000000000000000000000000000000000000 000000000000000A000000000000000000000000000000000000000000000 000000000000000000000000000000000000000     00000000                                                                                                                        000000000000000000
F0010000008228800004000090027633800023658300000000000000000201602100002001MALLAS Y CERRAMIENTOS DEL ATLANTICO LTDA          C000000000033600000000000000000000100010010000000000000000000000F0010000008228800420160210000101 00000000000000000000000000000000000000000000000000000000000000000000000000000000000000000000000000000000000000000N 00000000000NCONT   00    00000000000          00000000000000000000000000000000000000000000 000000000000000A000000000000000000000000000000000000000000000 000000000000000000000000000000000000000     00000000                                                                                                                        000000000000000000
F0010000008228800005000090027633800013552100000000000000000201602100002001MALLAS Y CERRAMIENTOS DEL ATLANTICO LTDA          D000000000033600000000000000000000100010010000000000000000000000F0010000008228800520160210000101 00000000000000000000000000000000000000000000000000000000000000000000000000000000000000000000000000000000000000000N 00000000000NCONT   00    00000000000          00000000000000000000000000000000000000000000 000000000000000A000000000000000000000000000000000000000000000 000000000000000000000000000000000000000     00000000                                                                                                                        000000000000000000
F0010000008228900001000090079294600011050500000000000000000201602100002001ILUMELEC SAS                                      D000000002250000000000000000000000100010010000000000000000000000F0010000008228900120160210000101 00000000000000000000000000000000000000000000000000000000000000000000000000000000000000000000000000000000000000000N 00000000000NCONT   00    00000000000          00000000000000000000000000000000000000000000 000000000000000A000000000000000000000000000000000000000000000 000000000000000000000000000000000000000     00000000                                                                                                                        000000000000000000
F0010000008228900002000090079294600041450500000000000000000201602100002001ILUMELEC SAS                                      C000000000800000000000000000000000100010010000000000000000000000F0010000008228900220160210000101 00000000000000000000000000000000000000000000000000000000000000000000000000000000000000000000000000000000000000000N 00000000000NCONT   00    00000000000          00000000000000000000000000000000000000000000 000000000000000A000000000000000000000000000000000000000000000 000000000000000000000000000000000000000     00000000                                                                                                                        000000000000000000
F0010000008228900003000090079294600042505000000000000000000201602100002001ILUMELEC SAS                                      C000000001450000000000000000000000100010010000000000000000000000F0010000008228900320160210000101 00000000000000000000000000000000000000000000000000000000000000000000000000000000000000000000000000000000000000000N 00000000000NCONT   00    00000000000          00000000000000000000000000000000000000000000 000000000000000A000000000000000000000000000000000000000000000 000000000000000000000000000000000000000     00000000                                                                                                                        000000000000000000
F0010000008228900004000090079294600023658300000000000000000201602100002001ILUMELEC SAS                                      C000000000006400000000000000000000100010010000000000000000000000F0010000008228900420160210000101 00000000000000000000000000000000000000000000000000000000000000000000000000000000000000000000000000000000000000000N 00000000000NCONT   00    00000000000          00000000000000000000000000000000000000000000 000000000000000A000000000000000000000000000000000000000000000 000000000000000000000000000000000000000     00000000                                                                                                                        000000000000000000
F0010000008228900005000090079294600013552100000000000000000201602100002001ILUMELEC SAS                                      D000000000006400000000000000000000100010010000000000000000000000F0010000008228900520160210000101 00000000000000000000000000000000000000000000000000000000000000000000000000000000000000000000000000000000000000000N 00000000000NCONT   00    00000000000          00000000000000000000000000000000000000000000 000000000000000A000000000000000000000000000000000000000000000 000000000000000000000000000000000000000     00000000                                                                                                                        000000000000000000
F0010000008229000001000000870907300011050500000000000000000201602100002001SURTIDOR FERRETERO                                D000000027300000000000000000000000100010010000000000000000000000F0010000008229000120160210000101 00000000000000000000000000000000000000000000000000000000000000000000000000000000000000000000000000000000000000000N 00000000000NCONT   00    00000000000          00000000000000000000000000000000000000000000 000000000000000A000000000000000000000000000000000000000000000 000000000000000000000000000000000000000     00000000                                                                                                                        000000000000000000
F0010000008229000002000000870907300041450500000000000000000201602100002001SURTIDOR FERRETERO                                C000000019700000000000000000000000100010010000000000000000000000F0010000008229000220160210000101 00000000000000000000000000000000000000000000000000000000000000000000000000000000000000000000000000000000000000000N 00000000000NCONT   00    00000000000          00000000000000000000000000000000000000000000 000000000000000A000000000000000000000000000000000000000000000 000000000000000000000000000000000000000     00000000                                                                                                                        000000000000000000
F0010000008229000003000000870907300042505000000000000000000201602100002001SURTIDOR FERRETERO                                C000000007600000000000000000000000100010010000000000000000000000F0010000008229000320160210000101 00000000000000000000000000000000000000000000000000000000000000000000000000000000000000000000000000000000000000000N 00000000000NCONT   00    00000000000          00000000000000000000000000000000000000000000 000000000000000A000000000000000000000000000000000000000000000 000000000000000000000000000000000000000     00000000                                                                                                                        000000000000000000
F0010000008229000004000000870907300023658300000000000000000201602100002001SURTIDOR FERRETERO                                C000000000157600000000000000000000100010010000000000000000000000F0010000008229000420160210000101 00000000000000000000000000000000000000000000000000000000000000000000000000000000000000000000000000000000000000000N 00000000000NCONT   00    00000000000          00000000000000000000000000000000000000000000 000000000000000A000000000000000000000000000000000000000000000 000000000000000000000000000000000000000     00000000                                                                                                                        000000000000000000
F0010000008229000005000000870907300013552100000000000000000201602100002001SURTIDOR FERRETERO                                D000000000157600000000000000000000100010010000000000000000000000F0010000008229000520160210000101 00000000000000000000000000000000000000000000000000000000000000000000000000000000000000000000000000000000000000000N 00000000000NCONT   00    00000000000          00000000000000000000000000000000000000000000 000000000000000A000000000000000000000000000000000000000000000 000000000000000000000000000000000000000     00000000                                                                                                                        000000000000000000
F0010000008229100001000000870907300011050500000000000000000201602100002001SURTIDOR FERRETERO                                D000000007000000000000000000000000100010010000000000000000000000F0010000008229100120160210000101 00000000000000000000000000000000000000000000000000000000000000000000000000000000000000000000000000000000000000000N 00000000000NCONT   00    00000000000          00000000000000000000000000000000000000000000 000000000000000A000000000000000000000000000000000000000000000 000000000000000000000000000000000000000     00000000                                                                                                                        000000000000000000
F0010000008229100002000000870907300041450500000000000000000201602100002001SURTIDOR FERRETERO                                C000000003200000000000000000000000100010010000000000000000000000F0010000008229100220160210000101 00000000000000000000000000000000000000000000000000000000000000000000000000000000000000000000000000000000000000000N 00000000000NCONT   00    00000000000          00000000000000000000000000000000000000000000 000000000000000A000000000000000000000000000000000000000000000 000000000000000000000000000000000000000     00000000                                                                                                                        000000000000000000
F0010000008229100003000000870907300042505000000000000000000201602100002001SURTIDOR FERRETERO                                C000000003800000000000000000000000100010010000000000000000000000F0010000008229100320160210000101 00000000000000000000000000000000000000000000000000000000000000000000000000000000000000000000000000000000000000000N 00000000000NCONT   00    00000000000          00000000000000000000000000000000000000000000 000000000000000A000000000000000000000000000000000000000000000 000000000000000000000000000000000000000     00000000                                                                                                                        000000000000000000
F0010000008229100004000000870907300023658300000000000000000201602100002001SURTIDOR FERRETERO                                C000000000025600000000000000000000100010010000000000000000000000F0010000008229100420160210000101 00000000000000000000000000000000000000000000000000000000000000000000000000000000000000000000000000000000000000000N 00000000000NCONT   00    00000000000          00000000000000000000000000000000000000000000 000000000000000A000000000000000000000000000000000000000000000 000000000000000000000000000000000000000     00000000                                                                                                                        000000000000000000
F0010000008229100005000000870907300013552100000000000000000201602100002001SURTIDOR FERRETERO                                D000000000025600000000000000000000100010010000000000000000000000F0010000008229100520160210000101 00000000000000000000000000000000000000000000000000000000000000000000000000000000000000000000000000000000000000000N 00000000000NCONT   00    00000000000          00000000000000000000000000000000000000000000 000000000000000A000000000000000000000000000000000000000000000 000000000000000000000000000000000000000     00000000                                                                                                                        000000000000000000
F0010000008229200001000090079294600011050500000000000000000201602100002001ILUMELEC SAS                                      D000000001350000000000000000000000100010010000000000000000000000F0010000008229200120160210000101 00000000000000000000000000000000000000000000000000000000000000000000000000000000000000000000000000000000000000000N 00000000000NCONT   00    00000000000          00000000000000000000000000000000000000000000 000000000000000A000000000000000000000000000000000000000000000 000000000000000000000000000000000000000     00000000                                                                                                                        000000000000000000
F0010000008229200002000090079294600041450500000000000000000201602100002001ILUMELEC SAS                                      C000000000800000000000000000000000100010010000000000000000000000F0010000008229200220160210000101 00000000000000000000000000000000000000000000000000000000000000000000000000000000000000000000000000000000000000000N 00000000000NCONT   00    00000000000          00000000000000000000000000000000000000000000 000000000000000A000000000000000000000000000000000000000000000 000000000000000000000000000000000000000     00000000                                                                                                                        000000000000000000
F0010000008229200003000090079294600042505000000000000000000201602100002001ILUMELEC SAS                                      C000000000550000000000000000000000100010010000000000000000000000F0010000008229200320160210000101 00000000000000000000000000000000000000000000000000000000000000000000000000000000000000000000000000000000000000000N 00000000000NCONT   00    00000000000          00000000000000000000000000000000000000000000 000000000000000A000000000000000000000000000000000000000000000 000000000000000000000000000000000000000     00000000                                                                                                                        000000000000000000
F0010000008229200004000090079294600023658300000000000000000201602100002001ILUMELEC SAS                                      C000000000006400000000000000000000100010010000000000000000000000F0010000008229200420160210000101 00000000000000000000000000000000000000000000000000000000000000000000000000000000000000000000000000000000000000000N 00000000000NCONT   00    00000000000          00000000000000000000000000000000000000000000 000000000000000A000000000000000000000000000000000000000000000 000000000000000000000000000000000000000     00000000                                                                                                                        000000000000000000
F0010000008229200005000090079294600013552100000000000000000201602100002001ILUMELEC SAS                                      D000000000006400000000000000000000100010010000000000000000000000F0010000008229200520160210000101 00000000000000000000000000000000000000000000000000000000000000000000000000000000000000000000000000000000000000000N 00000000000NCONT   00    00000000000          00000000000000000000000000000000000000000000 000000000000000A000000000000000000000000000000000000000000000 000000000000000000000000000000000000000     00000000                                                                                                                        000000000000000000
F0010000008229300001000080012418800011050500000000000000000201602100002001DISTRITEC S.A.S                                   D000000001100000000000000000000000100010010000000000000000000000F0010000008229300120160210000101 00000000000000000000000000000000000000000000000000000000000000000000000000000000000000000000000000000000000000000N 00000000000NCONT   00    00000000000          00000000000000000000000000000000000000000000 000000000000000A000000000000000000000000000000000000000000000 000000000000000000000000000000000000000     00000000                                                                                                                        000000000000000000
F0010000008229300002000080012418800041450500000000000000000201602100002001DISTRITEC S.A.S                                   C000000001000000000000000000000000100010010000000000000000000000F0010000008229300220160210000101 00000000000000000000000000000000000000000000000000000000000000000000000000000000000000000000000000000000000000000N 00000000000NCONT   00    00000000000          00000000000000000000000000000000000000000000 000000000000000A000000000000000000000000000000000000000000000 000000000000000000000000000000000000000     00000000                                                                                                                        000000000000000000
F0010000008229300003000080012418800042505000000000000000000201602100002001DISTRITEC S.A.S                                   C000000000100000000000000000000000100010010000000000000000000000F0010000008229300320160210000101 00000000000000000000000000000000000000000000000000000000000000000000000000000000000000000000000000000000000000000N 00000000000NCONT   00    00000000000          00000000000000000000000000000000000000000000 000000000000000A000000000000000000000000000000000000000000000 000000000000000000000000000000000000000     00000000                                                                                                                        000000000000000000
F0010000008229300004000080012418800023658300000000000000000201602100002001DISTRITEC S.A.S                                   C000000000008000000000000000000000100010010000000000000000000000F0010000008229300420160210000101 00000000000000000000000000000000000000000000000000000000000000000000000000000000000000000000000000000000000000000N 00000000000NCONT   00    00000000000          00000000000000000000000000000000000000000000 000000000000000A000000000000000000000000000000000000000000000 000000000000000000000000000000000000000     00000000                                                                                                                        000000000000000000
F0010000008229300005000080012418800013552100000000000000000201602100002001DISTRITEC S.A.S                                   D000000000008000000000000000000000100010010000000000000000000000F0010000008229300520160210000101 00000000000000000000000000000000000000000000000000000000000000000000000000000000000000000000000000000000000000000N 00000000000NCONT   00    00000000000          00000000000000000000000000000000000000000000 000000000000000A000000000000000000000000000000000000000000000 000000000000000000000000000000000000000     00000000                                                                                                                        000000000000000000
F0010000008229400001000000870907300011050500000000000000000201602100002001SURTIDOR FERRETERO                                D000000001700000000000000000000000100010010000000000000000000000F0010000008229400120160210000101 00000000000000000000000000000000000000000000000000000000000000000000000000000000000000000000000000000000000000000N 00000000000NCONT   00    00000000000          00000000000000000000000000000000000000000000 000000000000000A000000000000000000000000000000000000000000000 000000000000000000000000000000000000000     00000000                                                                                                                        000000000000000000
F0010000008229400002000000870907300041450500000000000000000201602100002001SURTIDOR FERRETERO                                C000000000800000000000000000000000100010010000000000000000000000F0010000008229400220160210000101 00000000000000000000000000000000000000000000000000000000000000000000000000000000000000000000000000000000000000000N 00000000000NCONT   00    00000000000          00000000000000000000000000000000000000000000 000000000000000A000000000000000000000000000000000000000000000 000000000000000000000000000000000000000     00000000                                                                                                                        000000000000000000
F0010000008229400003000000870907300042505000000000000000000201602100002001SURTIDOR FERRETERO                                C000000000900000000000000000000000100010010000000000000000000000F0010000008229400320160210000101 00000000000000000000000000000000000000000000000000000000000000000000000000000000000000000000000000000000000000000N 00000000000NCONT   00    00000000000          00000000000000000000000000000000000000000000 000000000000000A000000000000000000000000000000000000000000000 000000000000000000000000000000000000000     00000000                                                                                                                        000000000000000000
F0010000008229400004000000870907300023658300000000000000000201602100002001SURTIDOR FERRETERO                                C000000000006400000000000000000000100010010000000000000000000000F0010000008229400420160210000101 00000000000000000000000000000000000000000000000000000000000000000000000000000000000000000000000000000000000000000N 00000000000NCONT   00    00000000000          00000000000000000000000000000000000000000000 000000000000000A000000000000000000000000000000000000000000000 000000000000000000000000000000000000000     00000000                                                                                                                        000000000000000000
F0010000008229400005000000870907300013552100000000000000000201602100002001SURTIDOR FERRETERO                                D000000000006400000000000000000000100010010000000000000000000000F0010000008229400520160210000101 00000000000000000000000000000000000000000000000000000000000000000000000000000000000000000000000000000000000000000N 00000000000NCONT   00    00000000000          00000000000000000000000000000000000000000000 000000000000000A000000000000000000000000000000000000000000000 000000000000000000000000000000000000000     00000000                                                                                                                        000000000000000000
F0010000008229500001000086000061500011050500000000000000000201602100002001DISTRIBUIDORA CORDOBA                             D000000002130000000000000000000000100010010000000000000000000000F0010000008229500120160210000101 00000000000000000000000000000000000000000000000000000000000000000000000000000000000000000000000000000000000000000N 00000000000NCONT   00    00000000000          00000000000000000000000000000000000000000000 000000000000000A000000000000000000000000000000000000000000000 000000000000000000000000000000000000000     00000000                                                                                                                        000000000000000000
F0010000008229500002000086000061500041450500000000000000000201602100002001DISTRIBUIDORA CORDOBA                             C000000001700000000000000000000000100010010000000000000000000000F0010000008229500220160210000101 00000000000000000000000000000000000000000000000000000000000000000000000000000000000000000000000000000000000000000N 00000000000NCONT   00    00000000000          00000000000000000000000000000000000000000000 000000000000000A000000000000000000000000000000000000000000000 000000000000000000000000000000000000000     00000000                                                                                                                        000000000000000000
