F0010000005856900001000007225219800011050500000000000000000201405270002001MAURICIO ALVAREZ VARELO                           D000000006700000000000000000000000100010010000000000000000000000F0010000005856900120140527000101 00000000000000000000000000000000000000000000000000000000000000000000000000000000000000000000000000000000000000000N 00000000000NCONT   00    00000000000          00000000000000000000000000000000000000000000 000000000000000A000000000000000000000000000000000000000000000 000000000000000000000000000000000000000     00000000                                                                                                                        000000000000000000
F0010000005856900002000007225219800041450500000000000000000201405270002001MAURICIO ALVAREZ VARELO                           C000000005400000000000000000000000100010010000000000000000000000F0010000005856900220140527000101 00000000000000000000000000000000000000000000000000000000000000000000000000000000000000000000000000000000000000000N 00000000000NCONT   00    00000000000          00000000000000000000000000000000000000000000 000000000000000A000000000000000000000000000000000000000000000 000000000000000000000000000000000000000     00000000                                                                                                                        000000000000000000
F0010000005856900003000007225219800042505000000000000000000201405270002001MAURICIO ALVAREZ VARELO                           C000000001300000000000000000000000100010010000000000000000000000F0010000005856900320140527000101 00000000000000000000000000000000000000000000000000000000000000000000000000000000000000000000000000000000000000000N 00000000000NCONT   00    00000000000          00000000000000000000000000000000000000000000 000000000000000A000000000000000000000000000000000000000000000 000000000000000000000000000000000000000     00000000                                                                                                                        000000000000000000
F0010000005856900004000007225219800023658300000000000000000201405270002001MAURICIO ALVAREZ VARELO                           C000000000043200000000000000000000100010010000000000000000000000F0010000005856900420140527000101 00000000000000000000000000000000000000000000000000000000000000000000000000000000000000000000000000000000000000000N 00000000000NCONT   00    00000000000          00000000000000000000000000000000000000000000 000000000000000A000000000000000000000000000000000000000000000 000000000000000000000000000000000000000     00000000                                                                                                                        000000000000000000
F0010000005856900005000007225219800013552100000000000000000201405270002001MAURICIO ALVAREZ VARELO                           D000000000043200000000000000000000100010010000000000000000000000F0010000005856900520140527000101 00000000000000000000000000000000000000000000000000000000000000000000000000000000000000000000000000000000000000000N 00000000000NCONT   00    00000000000          00000000000000000000000000000000000000000000 000000000000000A000000000000000000000000000000000000000000000 000000000000000000000000000000000000000     00000000                                                                                                                        000000000000000000
F0010000005857000001000086053108300011050500000000000000000201405270002001EL PALACIO DEL ALUMINIO  LTDA                     D000000003658600000000000000000000100010010000000000000000000000F0010000005857000120140527000101 00000000000000000000000000000000000000000000000000000000000000000000000000000000000000000000000000000000000000000N 00000000000NCONT   00    00000000000          00000000000000000000000000000000000000000000 000000000000000A000000000000000000000000000000000000000000000 000000000000000000000000000000000000000     00000000                                                                                                                        000000000000000000
F0010000005857000002000086053108300041450500000000000000000201405270002001EL PALACIO DEL ALUMINIO  LTDA                     C000000003150000000000000000000000100010010000000000000000000000F0010000005857000220140527000101 00000000000000000000000000000000000000000000000000000000000000000000000000000000000000000000000000000000000000000N 00000000000NCONT   00    00000000000          00000000000000000000000000000000000000000000 000000000000000A000000000000000000000000000000000000000000000 000000000000000000000000000000000000000     00000000                                                                                                                        000000000000000000
F0010000005857000003000086053108300042505000000000000000000201405270002001EL PALACIO DEL ALUMINIO  LTDA                     C000000000508600000000000000000000100010010000000000000000000000F0010000005857000320140527000101 00000000000000000000000000000000000000000000000000000000000000000000000000000000000000000000000000000000000000000N 00000000000NCONT   00    00000000000          00000000000000000000000000000000000000000000 000000000000000A000000000000000000000000000000000000000000000 000000000000000000000000000000000000000     00000000                                                                                                                        000000000000000000
F0010000005857000004000086053108300023658300000000000000000201405270002001EL PALACIO DEL ALUMINIO  LTDA                     C000000000025200000000000000000000100010010000000000000000000000F0010000005857000420140527000101 00000000000000000000000000000000000000000000000000000000000000000000000000000000000000000000000000000000000000000N 00000000000NCONT   00    00000000000          00000000000000000000000000000000000000000000 000000000000000A000000000000000000000000000000000000000000000 000000000000000000000000000000000000000     00000000                                                                                                                        000000000000000000
F0010000005857000005000086053108300013552100000000000000000201405270002001EL PALACIO DEL ALUMINIO  LTDA                     D000000000025200000000000000000000100010010000000000000000000000F0010000005857000520140527000101 00000000000000000000000000000000000000000000000000000000000000000000000000000000000000000000000000000000000000000N 00000000000NCONT   00    00000000000          00000000000000000000000000000000000000000000 000000000000000A000000000000000000000000000000000000000000000 000000000000000000000000000000000000000     00000000                                                                                                                        000000000000000000
F0010000005857100001000090013858900011050500000000000000000201405270002001COSMETICOS M Y E & CIA S. EN C                    D000000002600000000000000000000000100010010000000000000000000000F0010000005857100120140527000101 00000000000000000000000000000000000000000000000000000000000000000000000000000000000000000000000000000000000000000N 00000000000NCONT   00    00000000000          00000000000000000000000000000000000000000000 000000000000000A000000000000000000000000000000000000000000000 000000000000000000000000000000000000000     00000000                                                                                                                        000000000000000000
F0010000005857100002000090013858900041450500000000000000000201405270002001COSMETICOS M Y E & CIA S. EN C                    C000000002200000000000000000000000100010010000000000000000000000F0010000005857100220140527000101 00000000000000000000000000000000000000000000000000000000000000000000000000000000000000000000000000000000000000000N 00000000000NCONT   00    00000000000          00000000000000000000000000000000000000000000 000000000000000A000000000000000000000000000000000000000000000 000000000000000000000000000000000000000     00000000                                                                                                                        000000000000000000
F0010000005857100003000090013858900042505000000000000000000201405270002001COSMETICOS M Y E & CIA S. EN C                    C000000000400000000000000000000000100010010000000000000000000000F0010000005857100320140527000101 00000000000000000000000000000000000000000000000000000000000000000000000000000000000000000000000000000000000000000N 00000000000NCONT   00    00000000000          00000000000000000000000000000000000000000000 000000000000000A000000000000000000000000000000000000000000000 000000000000000000000000000000000000000     00000000                                                                                                                        000000000000000000
F0010000005857100004000090013858900023658300000000000000000201405270002001COSMETICOS M Y E & CIA S. EN C                    C000000000017600000000000000000000100010010000000000000000000000F0010000005857100420140527000101 00000000000000000000000000000000000000000000000000000000000000000000000000000000000000000000000000000000000000000N 00000000000NCONT   00    00000000000          00000000000000000000000000000000000000000000 000000000000000A000000000000000000000000000000000000000000000 000000000000000000000000000000000000000     00000000                                                                                                                        000000000000000000
F0010000005857100005000090013858900013552100000000000000000201405270002001COSMETICOS M Y E & CIA S. EN C                    D000000000017600000000000000000000100010010000000000000000000000F0010000005857100520140527000101 00000000000000000000000000000000000000000000000000000000000000000000000000000000000000000000000000000000000000000N 00000000000NCONT   00    00000000000          00000000000000000000000000000000000000000000 000000000000000A000000000000000000000000000000000000000000000 000000000000000000000000000000000000000     00000000                                                                                                                        000000000000000000
F0010000005857200001000090055180500011050500000000000000000201405270002001LAMINAS Y SUELAS DE COLOMBIA S.A.S                D000000001500000000000000000000000100010010000000000000000000000F0010000005857200120140527000101 00000000000000000000000000000000000000000000000000000000000000000000000000000000000000000000000000000000000000000N 00000000000NCONT   00    00000000000          00000000000000000000000000000000000000000000 000000000000000A000000000000000000000000000000000000000000000 000000000000000000000000000000000000000     00000000                                                                                                                        000000000000000000
F0010000005857200002000090055180500041450500000000000000000201405270002001LAMINAS Y SUELAS DE COLOMBIA S.A.S                C000000001350000000000000000000000100010010000000000000000000000F0010000005857200220140527000101 00000000000000000000000000000000000000000000000000000000000000000000000000000000000000000000000000000000000000000N 00000000000NCONT   00    00000000000          00000000000000000000000000000000000000000000 000000000000000A000000000000000000000000000000000000000000000 000000000000000000000000000000000000000     00000000                                                                                                                        000000000000000000
F0010000005857200003000090055180500042505000000000000000000201405270002001LAMINAS Y SUELAS DE COLOMBIA S.A.S                C000000000150000000000000000000000100010010000000000000000000000F0010000005857200320140527000101 00000000000000000000000000000000000000000000000000000000000000000000000000000000000000000000000000000000000000000N 00000000000NCONT   00    00000000000          00000000000000000000000000000000000000000000 000000000000000A000000000000000000000000000000000000000000000 000000000000000000000000000000000000000     00000000                                                                                                                        000000000000000000
F0010000005857200004000090055180500023658300000000000000000201405270002001LAMINAS Y SUELAS DE COLOMBIA S.A.S                C000000000010800000000000000000000100010010000000000000000000000F0010000005857200420140527000101 00000000000000000000000000000000000000000000000000000000000000000000000000000000000000000000000000000000000000000N 00000000000NCONT   00    00000000000          00000000000000000000000000000000000000000000 000000000000000A000000000000000000000000000000000000000000000 000000000000000000000000000000000000000     00000000                                                                                                                        000000000000000000
F0010000005857200005000090055180500013552100000000000000000201405270002001LAMINAS Y SUELAS DE COLOMBIA S.A.S                D000000000010800000000000000000000100010010000000000000000000000F0010000005857200520140527000101 00000000000000000000000000000000000000000000000000000000000000000000000000000000000000000000000000000000000000000N 00000000000NCONT   00    00000000000          00000000000000000000000000000000000000000000 000000000000000A000000000000000000000000000000000000000000000 000000000000000000000000000000000000000     00000000                                                                                                                        000000000000000000
F0010000005857300001000090020547900011050500000000000000000201405270002001DAC DEL CARIBE S.A.S.                             D000000010656000000000000000000000100010010000000000000000000000F0010000005857300120140527000101 00000000000000000000000000000000000000000000000000000000000000000000000000000000000000000000000000000000000000000N 00000000000NCONT   00    00000000000          00000000000000000000000000000000000000000000 000000000000000A000000000000000000000000000000000000000000000 000000000000000000000000000000000000000     00000000                                                                                                                        000000000000000000
F0010000005857300002000090020547900041450500000000000000000201405270002001DAC DEL CARIBE S.A.S.                             C000000007200000000000000000000000100010010000000000000000000000F0010000005857300220140527000101 00000000000000000000000000000000000000000000000000000000000000000000000000000000000000000000000000000000000000000N 00000000000NCONT   00    00000000000          00000000000000000000000000000000000000000000 000000000000000A000000000000000000000000000000000000000000000 000000000000000000000000000000000000000     00000000                                                                                                                        000000000000000000
F0010000005857300003000090020547900042505000000000000000000201405270002001DAC DEL CARIBE S.A.S.                             C000000003456000000000000000000000100010010000000000000000000000F0010000005857300320140527000101 00000000000000000000000000000000000000000000000000000000000000000000000000000000000000000000000000000000000000000N 00000000000NCONT   00    00000000000          00000000000000000000000000000000000000000000 000000000000000A000000000000000000000000000000000000000000000 000000000000000000000000000000000000000     00000000                                                                                                                        000000000000000000
F0010000005857300004000090020547900023658300000000000000000201405270002001DAC DEL CARIBE S.A.S.                             C000000000057600000000000000000000100010010000000000000000000000F0010000005857300420140527000101 00000000000000000000000000000000000000000000000000000000000000000000000000000000000000000000000000000000000000000N 00000000000NCONT   00    00000000000          00000000000000000000000000000000000000000000 000000000000000A000000000000000000000000000000000000000000000 000000000000000000000000000000000000000     00000000                                                                                                                        000000000000000000
F0010000005857300005000090020547900013552100000000000000000201405270002001DAC DEL CARIBE S.A.S.                             D000000000057600000000000000000000100010010000000000000000000000F0010000005857300520140527000101 00000000000000000000000000000000000000000000000000000000000000000000000000000000000000000000000000000000000000000N 00000000000NCONT   00    00000000000          00000000000000000000000000000000000000000000 000000000000000A000000000000000000000000000000000000000000000 000000000000000000000000000000000000000     00000000                                                                                                                        000000000000000000
F0010000005857400001000090020547900011050500000000000000000201405270002001DAC DEL CARIBE S.A.S.                             D000000001130000000000000000000000100010010000000000000000000000F0010000005857400120140527000101 00000000000000000000000000000000000000000000000000000000000000000000000000000000000000000000000000000000000000000N 00000000000NCONT   00    00000000000          00000000000000000000000000000000000000000000 000000000000000A000000000000000000000000000000000000000000000 000000000000000000000000000000000000000     00000000                                                                                                                        000000000000000000
F0010000005857400002000090020547900041450500000000000000000201405270002001DAC DEL CARIBE S.A.S.                             C000000000700000000000000000000000100010010000000000000000000000F0010000005857400220140527000101 00000000000000000000000000000000000000000000000000000000000000000000000000000000000000000000000000000000000000000N 00000000000NCONT   00    00000000000          00000000000000000000000000000000000000000000 000000000000000A000000000000000000000000000000000000000000000 000000000000000000000000000000000000000     00000000                                                                                                                        000000000000000000
F0010000005857400003000090020547900042505000000000000000000201405270002001DAC DEL CARIBE S.A.S.                             C000000000430000000000000000000000100010010000000000000000000000F0010000005857400320140527000101 00000000000000000000000000000000000000000000000000000000000000000000000000000000000000000000000000000000000000000N 00000000000NCONT   00    00000000000          00000000000000000000000000000000000000000000 000000000000000A000000000000000000000000000000000000000000000 000000000000000000000000000000000000000     00000000                                                                                                                        000000000000000000
F0010000005857400004000090020547900023658300000000000000000201405270002001DAC DEL CARIBE S.A.S.                             C000000000005600000000000000000000100010010000000000000000000000F0010000005857400420140527000101 00000000000000000000000000000000000000000000000000000000000000000000000000000000000000000000000000000000000000000N 00000000000NCONT   00    00000000000          00000000000000000000000000000000000000000000 000000000000000A000000000000000000000000000000000000000000000 000000000000000000000000000000000000000     00000000                                                                                                                        000000000000000000
F0010000005857400005000090020547900013552100000000000000000201405270002001DAC DEL CARIBE S.A.S.                             D000000000005600000000000000000000100010010000000000000000000000F0010000005857400520140527000101 00000000000000000000000000000000000000000000000000000000000000000000000000000000000000000000000000000000000000000N 00000000000NCONT   00    00000000000          00000000000000000000000000000000000000000000 000000000000000A000000000000000000000000000000000000000000000 000000000000000000000000000000000000000     00000000                                                                                                                        000000000000000000
F0010000005857500001000000808409100011050500000000000000000201405270002001JOSE LUIS TRILLOS BAYONA                          D000000001000000000000000000000000100010010000000000000000000000F0010000005857500120140527000101 00000000000000000000000000000000000000000000000000000000000000000000000000000000000000000000000000000000000000000N 00000000000NCONT   00    00000000000          00000000000000000000000000000000000000000000 000000000000000A000000000000000000000000000000000000000000000 000000000000000000000000000000000000000     00000000                                                                                                                        000000000000000000
F0010000005857500002000000808409100041450500000000000000000201405270002001JOSE LUIS TRILLOS BAYONA                          C000000000900000000000000000000000100010010000000000000000000000F0010000005857500220140527000101 00000000000000000000000000000000000000000000000000000000000000000000000000000000000000000000000000000000000000000N 00000000000NCONT   00    00000000000          00000000000000000000000000000000000000000000 000000000000000A000000000000000000000000000000000000000000000 000000000000000000000000000000000000000     00000000                                                                                                                        000000000000000000
F0010000005857500003000000808409100042505000000000000000000201405270002001JOSE LUIS TRILLOS BAYONA                          C000000000100000000000000000000000100010010000000000000000000000F0010000005857500320140527000101 00000000000000000000000000000000000000000000000000000000000000000000000000000000000000000000000000000000000000000N 00000000000NCONT   00    00000000000          00000000000000000000000000000000000000000000 000000000000000A000000000000000000000000000000000000000000000 000000000000000000000000000000000000000     00000000                                                                                                                        000000000000000000
F0010000005857500004000000808409100023658300000000000000000201405270002001JOSE LUIS TRILLOS BAYONA                          C000000000007200000000000000000000100010010000000000000000000000F0010000005857500420140527000101 00000000000000000000000000000000000000000000000000000000000000000000000000000000000000000000000000000000000000000N 00000000000NCONT   00    00000000000          00000000000000000000000000000000000000000000 000000000000000A000000000000000000000000000000000000000000000 000000000000000000000000000000000000000     00000000                                                                                                                        000000000000000000
F0010000005857500005000000808409100013552100000000000000000201405270002001JOSE LUIS TRILLOS BAYONA                          D000000000007200000000000000000000100010010000000000000000000000F0010000005857500520140527000101 00000000000000000000000000000000000000000000000000000000000000000000000000000000000000000000000000000000000000000N 00000000000NCONT   00    00000000000          00000000000000000000000000000000000000000000 000000000000000A000000000000000000000000000000000000000000000 000000000000000000000000000000000000000     00000000                                                                                                                        000000000000000000
F0010000005857600001000000853474300011050500000000000000000201405270002001RODRIGO EBRATH ACOSTA                             D000000012600000000000000000000000100010010000000000000000000000F0010000005857600120140527000101 00000000000000000000000000000000000000000000000000000000000000000000000000000000000000000000000000000000000000000N 00000000000NCONT   00    00000000000          00000000000000000000000000000000000000000000 000000000000000A000000000000000000000000000000000000000000000 000000000000000000000000000000000000000     00000000                                                                                                                        000000000000000000
F0010000005857600002000000853474300041450500000000000000000201405270002001RODRIGO EBRATH ACOSTA                             C000000012000000000000000000000000100010010000000000000000000000F0010000005857600220140527000101 00000000000000000000000000000000000000000000000000000000000000000000000000000000000000000000000000000000000000000N 00000000000NCONT   00    00000000000          00000000000000000000000000000000000000000000 000000000000000A000000000000000000000000000000000000000000000 000000000000000000000000000000000000000     00000000                                                                                                                        000000000000000000
F0010000005857600003000000853474300042505000000000000000000201405270002001RODRIGO EBRATH ACOSTA                             C000000000600000000000000000000000100010010000000000000000000000F0010000005857600320140527000101 00000000000000000000000000000000000000000000000000000000000000000000000000000000000000000000000000000000000000000N 00000000000NCONT   00    00000000000          00000000000000000000000000000000000000000000 000000000000000A000000000000000000000000000000000000000000000 000000000000000000000000000000000000000     00000000                                                                                                                        000000000000000000
F0010000005857600004000000853474300023658300000000000000000201405270002001RODRIGO EBRATH ACOSTA                             C000000000096000000000000000000000100010010000000000000000000000F0010000005857600420140527000101 00000000000000000000000000000000000000000000000000000000000000000000000000000000000000000000000000000000000000000N 00000000000NCONT   00    00000000000          00000000000000000000000000000000000000000000 000000000000000A000000000000000000000000000000000000000000000 000000000000000000000000000000000000000     00000000                                                                                                                        000000000000000000
F0010000005857600005000000853474300013552100000000000000000201405270002001RODRIGO EBRATH ACOSTA                             D000000000096000000000000000000000100010010000000000000000000000F0010000005857600520140527000101 00000000000000000000000000000000000000000000000000000000000000000000000000000000000000000000000000000000000000000N 00000000000NCONT   00    00000000000          00000000000000000000000000000000000000000000 000000000000000A000000000000000000000000000000000000000000000 000000000000000000000000000000000000000     00000000                                                                                                                        000000000000000000
F0010000005857700001000090047878200011050500000000000000000201405270002001GRUMAD SAS                                        D000000005000000000000000000000000100010010000000000000000000000F0010000005857700120140527000101 00000000000000000000000000000000000000000000000000000000000000000000000000000000000000000000000000000000000000000N 00000000000NCONT   00    00000000000          00000000000000000000000000000000000000000000 000000000000000A000000000000000000000000000000000000000000000 000000000000000000000000000000000000000     00000000                                                                                                                        000000000000000000
F0010000005857700002000090047878200041450500000000000000000201405270002001GRUMAD SAS                                        C000000004500000000000000000000000100010010000000000000000000000F0010000005857700220140527000101 00000000000000000000000000000000000000000000000000000000000000000000000000000000000000000000000000000000000000000N 00000000000NCONT   00    00000000000          00000000000000000000000000000000000000000000 000000000000000A000000000000000000000000000000000000000000000 000000000000000000000000000000000000000     00000000                                                                                                                        000000000000000000
F0010000005857700003000090047878200042505000000000000000000201405270002001GRUMAD SAS                                        C000000000500000000000000000000000100010010000000000000000000000F0010000005857700320140527000101 00000000000000000000000000000000000000000000000000000000000000000000000000000000000000000000000000000000000000000N 00000000000NCONT   00    00000000000          00000000000000000000000000000000000000000000 000000000000000A000000000000000000000000000000000000000000000 000000000000000000000000000000000000000     00000000                                                                                                                        000000000000000000
F0010000005857700004000090047878200023658300000000000000000201405270002001GRUMAD SAS                                        C000000000036000000000000000000000100010010000000000000000000000F0010000005857700420140527000101 00000000000000000000000000000000000000000000000000000000000000000000000000000000000000000000000000000000000000000N 00000000000NCONT   00    00000000000          00000000000000000000000000000000000000000000 000000000000000A000000000000000000000000000000000000000000000 000000000000000000000000000000000000000     00000000                                                                                                                        000000000000000000
F0010000005857700005000090047878200013552100000000000000000201405270002001GRUMAD SAS                                        D000000000036000000000000000000000100010010000000000000000000000F0010000005857700520140527000101 00000000000000000000000000000000000000000000000000000000000000000000000000000000000000000000000000000000000000000N 00000000000NCONT   00    00000000000          00000000000000000000000000000000000000000000 000000000000000A000000000000000000000000000000000000000000000 000000000000000000000000000000000000000     00000000                                                                                                                        000000000000000000
F0010000005857800001000080201411900011050500000000000000000201405270002001PLASTISERVICIOS S DE H                            D000000002200000000000000000000000100010010000000000000000000000F0010000005857800120140527000101 00000000000000000000000000000000000000000000000000000000000000000000000000000000000000000000000000000000000000000N 00000000000NCONT   00    00000000000          00000000000000000000000000000000000000000000 000000000000000A000000000000000000000000000000000000000000000 000000000000000000000000000000000000000     00000000                                                                                                                        000000000000000000
F0010000005857800002000080201411900041450500000000000000000201405270002001PLASTISERVICIOS S DE H                            C000000001800000000000000000000000100010010000000000000000000000F0010000005857800220140527000101 00000000000000000000000000000000000000000000000000000000000000000000000000000000000000000000000000000000000000000N 00000000000NCONT   00    00000000000          00000000000000000000000000000000000000000000 000000000000000A000000000000000000000000000000000000000000000 000000000000000000000000000000000000000     00000000                                                                                                                        000000000000000000
F0010000005857800003000080201411900042505000000000000000000201405270002001PLASTISERVICIOS S DE H                            C000000000400000000000000000000000100010010000000000000000000000F0010000005857800320140527000101 00000000000000000000000000000000000000000000000000000000000000000000000000000000000000000000000000000000000000000N 00000000000NCONT   00    00000000000          00000000000000000000000000000000000000000000 000000000000000A000000000000000000000000000000000000000000000 000000000000000000000000000000000000000     00000000                                                                                                                        000000000000000000
F0010000005857800004000080201411900023658300000000000000000201405270002001PLASTISERVICIOS S DE H                            C000000000014400000000000000000000100010010000000000000000000000F0010000005857800420140527000101 00000000000000000000000000000000000000000000000000000000000000000000000000000000000000000000000000000000000000000N 00000000000NCONT   00    00000000000          00000000000000000000000000000000000000000000 000000000000000A000000000000000000000000000000000000000000000 000000000000000000000000000000000000000     00000000                                                                                                                        000000000000000000
F0010000005857800005000080201411900013552100000000000000000201405270002001PLASTISERVICIOS S DE H                            D000000000014400000000000000000000100010010000000000000000000000F0010000005857800520140527000101 00000000000000000000000000000000000000000000000000000000000000000000000000000000000000000000000000000000000000000N 00000000000NCONT   00    00000000000          00000000000000000000000000000000000000000000 000000000000000A000000000000000000000000000000000000000000000 000000000000000000000000000000000000000     00000000                                                                                                                        000000000000000000
F0010000005857900001000000876579700011050500000000000000000201405270002001JOSE LUIS MUÑOZ                                  D000000003500000000000000000000000100010010000000000000000000000F0010000005857900120140527000101 00000000000000000000000000000000000000000000000000000000000000000000000000000000000000000000000000000000000000000N 00000000000NCONT   00    00000000000          00000000000000000000000000000000000000000000 000000000000000A000000000000000000000000000000000000000000000 000000000000000000000000000000000000000     00000000                                                                                                                        000000000000000000
F0010000005857900002000000876579700041450500000000000000000201405270002001JOSE LUIS MUÑOZ                                  C000000003300000000000000000000000100010010000000000000000000000F0010000005857900220140527000101 00000000000000000000000000000000000000000000000000000000000000000000000000000000000000000000000000000000000000000N 00000000000NCONT   00    00000000000          00000000000000000000000000000000000000000000 000000000000000A000000000000000000000000000000000000000000000 000000000000000000000000000000000000000     00000000                                                                                                                        000000000000000000
F0010000005857900003000000876579700042505000000000000000000201405270002001JOSE LUIS MUÑOZ                                  C000000000200000000000000000000000100010010000000000000000000000F0010000005857900320140527000101 00000000000000000000000000000000000000000000000000000000000000000000000000000000000000000000000000000000000000000N 00000000000NCONT   00    00000000000          00000000000000000000000000000000000000000000 000000000000000A000000000000000000000000000000000000000000000 000000000000000000000000000000000000000     00000000                                                                                                                        000000000000000000
F0010000005857900004000000876579700023658300000000000000000201405270002001JOSE LUIS MUÑOZ                                  C000000000026400000000000000000000100010010000000000000000000000F0010000005857900420140527000101 00000000000000000000000000000000000000000000000000000000000000000000000000000000000000000000000000000000000000000N 00000000000NCONT   00    00000000000          00000000000000000000000000000000000000000000 000000000000000A000000000000000000000000000000000000000000000 000000000000000000000000000000000000000     00000000                                                                                                                        000000000000000000
F0010000005857900005000000876579700013552100000000000000000201405270002001JOSE LUIS MUÑOZ                                  D000000000026400000000000000000000100010010000000000000000000000F0010000005857900520140527000101 00000000000000000000000000000000000000000000000000000000000000000000000000000000000000000000000000000000000000000N 00000000000NCONT   00    00000000000          00000000000000000000000000000000000000000000 000000000000000A000000000000000000000000000000000000000000000 000000000000000000000000000000000000000     00000000                                                                                                                        000000000000000000
F0010000005858000001000000870907300011050500000000000000000201405270002001SURTIDOR FERRETERO                                D000000005300000000000000000000000100010010000000000000000000000F0010000005858000120140527000101 00000000000000000000000000000000000000000000000000000000000000000000000000000000000000000000000000000000000000000N 00000000000NCONT   00    00000000000          00000000000000000000000000000000000000000000 000000000000000A000000000000000000000000000000000000000000000 000000000000000000000000000000000000000     00000000                                                                                                                        000000000000000000
F0010000005858000002000000870907300041450500000000000000000201405270002001SURTIDOR FERRETERO                                C000000003800000000000000000000000100010010000000000000000000000F0010000005858000220140527000101 00000000000000000000000000000000000000000000000000000000000000000000000000000000000000000000000000000000000000000N 00000000000NCONT   00    00000000000          00000000000000000000000000000000000000000000 000000000000000A000000000000000000000000000000000000000000000 000000000000000000000000000000000000000     00000000                                                                                                                        000000000000000000
F0010000005858000003000000870907300042505000000000000000000201405270002001SURTIDOR FERRETERO                                C000000001500000000000000000000000100010010000000000000000000000F0010000005858000320140527000101 00000000000000000000000000000000000000000000000000000000000000000000000000000000000000000000000000000000000000000N 00000000000NCONT   00    00000000000          00000000000000000000000000000000000000000000 000000000000000A000000000000000000000000000000000000000000000 000000000000000000000000000000000000000     00000000                                                                                                                        000000000000000000
F0010000005858000004000000870907300023658300000000000000000201405270002001SURTIDOR FERRETERO                                C000000000030400000000000000000000100010010000000000000000000000F0010000005858000420140527000101 00000000000000000000000000000000000000000000000000000000000000000000000000000000000000000000000000000000000000000N 00000000000NCONT   00    00000000000          00000000000000000000000000000000000000000000 000000000000000A000000000000000000000000000000000000000000000 000000000000000000000000000000000000000     00000000                                                                                                                        000000000000000000
F0010000005858000005000000870907300013552100000000000000000201405270002001SURTIDOR FERRETERO                                D000000000030400000000000000000000100010010000000000000000000000F0010000005858000520140527000101 00000000000000000000000000000000000000000000000000000000000000000000000000000000000000000000000000000000000000000N 00000000000NCONT   00    00000000000          00000000000000000000000000000000000000000000 000000000000000A000000000000000000000000000000000000000000000 000000000000000000000000000000000000000     00000000                                                                                                                        000000000000000000
F0010000005858100001000000870907300011050500000000000000000201405270002001SURTIDOR FERRETERO                                D000000001500000000000000000000000100010010000000000000000000000F0010000005858100120140527000101 00000000000000000000000000000000000000000000000000000000000000000000000000000000000000000000000000000000000000000N 00000000000NCONT   00    00000000000          00000000000000000000000000000000000000000000 000000000000000A000000000000000000000000000000000000000000000 000000000000000000000000000000000000000     00000000                                                                                                                        000000000000000000
F0010000005858100002000000870907300041450500000000000000000201405270002001SURTIDOR FERRETERO                                C000000000750000000000000000000000100010010000000000000000000000F0010000005858100220140527000101 00000000000000000000000000000000000000000000000000000000000000000000000000000000000000000000000000000000000000000N 00000000000NCONT   00    00000000000          00000000000000000000000000000000000000000000 000000000000000A000000000000000000000000000000000000000000000 000000000000000000000000000000000000000     00000000                                                                                                                        000000000000000000
F0010000005858100003000000870907300042505000000000000000000201405270002001SURTIDOR FERRETERO                                C000000000750000000000000000000000100010010000000000000000000000F0010000005858100320140527000101 00000000000000000000000000000000000000000000000000000000000000000000000000000000000000000000000000000000000000000N 00000000000NCONT   00    00000000000          00000000000000000000000000000000000000000000 000000000000000A000000000000000000000000000000000000000000000 000000000000000000000000000000000000000     00000000                                                                                                                        000000000000000000
F0010000005858100004000000870907300023658300000000000000000201405270002001SURTIDOR FERRETERO                                C000000000006000000000000000000000100010010000000000000000000000F0010000005858100420140527000101 00000000000000000000000000000000000000000000000000000000000000000000000000000000000000000000000000000000000000000N 00000000000NCONT   00    00000000000          00000000000000000000000000000000000000000000 000000000000000A000000000000000000000000000000000000000000000 000000000000000000000000000000000000000     00000000                                                                                                                        000000000000000000
F0010000005858100005000000870907300013552100000000000000000201405270002001SURTIDOR FERRETERO                                D000000000006000000000000000000000100010010000000000000000000000F0010000005858100520140527000101 00000000000000000000000000000000000000000000000000000000000000000000000000000000000000000000000000000000000000000N 00000000000NCONT   00    00000000000          00000000000000000000000000000000000000000000 000000000000000A000000000000000000000000000000000000000000000 000000000000000000000000000000000000000     00000000                                                                                                                        000000000000000000
F0010000005858200001000007213653800011050500000000000000000201405270002001VICTOR ECHAVEZ                                    D000000005600000000000000000000000100010010000000000000000000000F0010000005858200120140527000101 00000000000000000000000000000000000000000000000000000000000000000000000000000000000000000000000000000000000000000N 00000000000NCONT   00    00000000000          00000000000000000000000000000000000000000000 000000000000000A000000000000000000000000000000000000000000000 000000000000000000000000000000000000000     00000000                                                                                                                        000000000000000000
F0010000005858200002000007213653800041450500000000000000000201405270002001VICTOR ECHAVEZ                                    C000000004400000000000000000000000100010010000000000000000000000F0010000005858200220140527000101 00000000000000000000000000000000000000000000000000000000000000000000000000000000000000000000000000000000000000000N 00000000000NCONT   00    00000000000          00000000000000000000000000000000000000000000 000000000000000A000000000000000000000000000000000000000000000 000000000000000000000000000000000000000     00000000                                                                                                                        000000000000000000
F0010000005858200003000007213653800042505000000000000000000201405270002001VICTOR ECHAVEZ                                    C000000001200000000000000000000000100010010000000000000000000000F0010000005858200320140527000101 00000000000000000000000000000000000000000000000000000000000000000000000000000000000000000000000000000000000000000N 00000000000NCONT   00    00000000000          00000000000000000000000000000000000000000000 000000000000000A000000000000000000000000000000000000000000000 000000000000000000000000000000000000000     00000000                                                                                                                        000000000000000000
F0010000005858200004000007213653800023658300000000000000000201405270002001VICTOR ECHAVEZ                                    C000000000035200000000000000000000100010010000000000000000000000F0010000005858200420140527000101 00000000000000000000000000000000000000000000000000000000000000000000000000000000000000000000000000000000000000000N 00000000000NCONT   00    00000000000          00000000000000000000000000000000000000000000 000000000000000A000000000000000000000000000000000000000000000 000000000000000000000000000000000000000     00000000                                                                                                                        000000000000000000
F0010000005858200005000007213653800013552100000000000000000201405270002001VICTOR ECHAVEZ                                    D000000000035200000000000000000000100010010000000000000000000000F0010000005858200520140527000101 00000000000000000000000000000000000000000000000000000000000000000000000000000000000000000000000000000000000000000N 00000000000NCONT   00    00000000000          00000000000000000000000000000000000000000000 000000000000000A000000000000000000000000000000000000000000000 000000000000000000000000000000000000000     00000000                                                                                                                        000000000000000000
F0010000005858300001000001022529300011050500000000000000000201405270002001ALBERTO ALVAREZ ISAZA                             D000000000960000000000000000000000100010010000000000000000000000F0010000005858300120140527000101 00000000000000000000000000000000000000000000000000000000000000000000000000000000000000000000000000000000000000000N 00000000000NCONT   00    00000000000          00000000000000000000000000000000000000000000 000000000000000A000000000000000000000000000000000000000000000 000000000000000000000000000000000000000     00000000                                                                                                                        000000000000000000
F0010000005858300002000001022529300041450500000000000000000201405270002001ALBERTO ALVAREZ ISAZA                             C000000000850000000000000000000000100010010000000000000000000000F0010000005858300220140527000101 00000000000000000000000000000000000000000000000000000000000000000000000000000000000000000000000000000000000000000N 00000000000NCONT   00    00000000000          00000000000000000000000000000000000000000000 000000000000000A000000000000000000000000000000000000000000000 000000000000000000000000000000000000000     00000000                                                                                                                        000000000000000000
F0010000005858300003000001022529300042505000000000000000000201405270002001ALBERTO ALVAREZ ISAZA                             C000000000110000000000000000000000100010010000000000000000000000F0010000005858300320140527000101 00000000000000000000000000000000000000000000000000000000000000000000000000000000000000000000000000000000000000000N 00000000000NCONT   00    00000000000          00000000000000000000000000000000000000000000 000000000000000A000000000000000000000000000000000000000000000 000000000000000000000000000000000000000     00000000                                                                                                                        000000000000000000
F0010000005858300004000001022529300023658300000000000000000201405270002001ALBERTO ALVAREZ ISAZA                             C000000000006800000000000000000000100010010000000000000000000000F0010000005858300420140527000101 00000000000000000000000000000000000000000000000000000000000000000000000000000000000000000000000000000000000000000N 00000000000NCONT   00    00000000000          00000000000000000000000000000000000000000000 000000000000000A000000000000000000000000000000000000000000000 000000000000000000000000000000000000000     00000000                                                                                                                        000000000000000000
F0010000005858300005000001022529300013552100000000000000000201405270002001ALBERTO ALVAREZ ISAZA                             D000000000006800000000000000000000100010010000000000000000000000F0010000005858300520140527000101 00000000000000000000000000000000000000000000000000000000000000000000000000000000000000000000000000000000000000000N 00000000000NCONT   00    00000000000          00000000000000000000000000000000000000000000 000000000000000A000000000000000000000000000000000000000000000 000000000000000000000000000000000000000     00000000                                                                                                                        000000000000000000
F0010000005858400001000001022529300011050500000000000000000201405270002001ALBERTO ALVAREZ ISAZA                             D000000000600000000000000000000000100010010000000000000000000000F0010000005858400120140527000101 00000000000000000000000000000000000000000000000000000000000000000000000000000000000000000000000000000000000000000N 00000000000NCONT   00    00000000000          00000000000000000000000000000000000000000000 000000000000000A000000000000000000000000000000000000000000000 000000000000000000000000000000000000000     00000000                                                                                                                        000000000000000000
F0010000005858400002000001022529300041450500000000000000000201405270002001ALBERTO ALVAREZ ISAZA                             C000000000500000000000000000000000100010010000000000000000000000F0010000005858400220140527000101 00000000000000000000000000000000000000000000000000000000000000000000000000000000000000000000000000000000000000000N 00000000000NCONT   00    00000000000          00000000000000000000000000000000000000000000 000000000000000A000000000000000000000000000000000000000000000 000000000000000000000000000000000000000     00000000                                                                                                                        000000000000000000
F0010000005858400003000001022529300042505000000000000000000201405270002001ALBERTO ALVAREZ ISAZA                             C000000000100000000000000000000000100010010000000000000000000000F0010000005858400320140527000101 00000000000000000000000000000000000000000000000000000000000000000000000000000000000000000000000000000000000000000N 00000000000NCONT   00    00000000000          00000000000000000000000000000000000000000000 000000000000000A000000000000000000000000000000000000000000000 000000000000000000000000000000000000000     00000000                                                                                                                        000000000000000000
F0010000005858400004000001022529300023658300000000000000000201405270002001ALBERTO ALVAREZ ISAZA                             C000000000004000000000000000000000100010010000000000000000000000F0010000005858400420140527000101 00000000000000000000000000000000000000000000000000000000000000000000000000000000000000000000000000000000000000000N 00000000000NCONT   00    00000000000          00000000000000000000000000000000000000000000 000000000000000A000000000000000000000000000000000000000000000 000000000000000000000000000000000000000     00000000                                                                                                                        000000000000000000
F0010000005858400005000001022529300013552100000000000000000201405270002001ALBERTO ALVAREZ ISAZA                             D000000000004000000000000000000000100010010000000000000000000000F0010000005858400520140527000101 00000000000000000000000000000000000000000000000000000000000000000000000000000000000000000000000000000000000000000N 00000000000NCONT   00    00000000000          00000000000000000000000000000000000000000000 000000000000000A000000000000000000000000000000000000000000000 000000000000000000000000000000000000000     00000000                                                                                                                        000000000000000000
F0010000005858500001000001022529300011050500000000000000000201405270002001ALBERTO ALVAREZ ISAZA                             D000000000800000000000000000000000100010010000000000000000000000F0010000005858500120140527000101 00000000000000000000000000000000000000000000000000000000000000000000000000000000000000000000000000000000000000000N 00000000000NCONT   00    00000000000          00000000000000000000000000000000000000000000 000000000000000A000000000000000000000000000000000000000000000 000000000000000000000000000000000000000     00000000                                                                                                                        000000000000000000
F0010000005858500002000001022529300041450500000000000000000201405270002001ALBERTO ALVAREZ ISAZA                             C000000000700000000000000000000000100010010000000000000000000000F0010000005858500220140527000101 00000000000000000000000000000000000000000000000000000000000000000000000000000000000000000000000000000000000000000N 00000000000NCONT   00    00000000000          00000000000000000000000000000000000000000000 000000000000000A000000000000000000000000000000000000000000000 000000000000000000000000000000000000000     00000000                                                                                                                        000000000000000000
F0010000005858500003000001022529300042505000000000000000000201405270002001ALBERTO ALVAREZ ISAZA                             C000000000100000000000000000000000100010010000000000000000000000F0010000005858500320140527000101 00000000000000000000000000000000000000000000000000000000000000000000000000000000000000000000000000000000000000000N 00000000000NCONT   00    00000000000          00000000000000000000000000000000000000000000 000000000000000A000000000000000000000000000000000000000000000 000000000000000000000000000000000000000     00000000                                                                                                                        000000000000000000
F0010000005858500004000001022529300023658300000000000000000201405270002001ALBERTO ALVAREZ ISAZA                             C000000000005600000000000000000000100010010000000000000000000000F0010000005858500420140527000101 00000000000000000000000000000000000000000000000000000000000000000000000000000000000000000000000000000000000000000N 00000000000NCONT   00    00000000000          00000000000000000000000000000000000000000000 000000000000000A000000000000000000000000000000000000000000000 000000000000000000000000000000000000000     00000000                                                                                                                        000000000000000000
F0010000005858500005000001022529300013552100000000000000000201405270002001ALBERTO ALVAREZ ISAZA                             D000000000005600000000000000000000100010010000000000000000000000F0010000005858500520140527000101 00000000000000000000000000000000000000000000000000000000000000000000000000000000000000000000000000000000000000000N 00000000000NCONT   00    00000000000          00000000000000000000000000000000000000000000 000000000000000A000000000000000000000000000000000000000000000 000000000000000000000000000000000000000     00000000                                                                                                                        000000000000000000
F0010000005858600001000000431178400011050500000000000000000201405270002001EFRAIN ALVAREZ                                    D000000002700000000000000000000000100010010000000000000000000000F0010000005858600120140527000101 00000000000000000000000000000000000000000000000000000000000000000000000000000000000000000000000000000000000000000N 00000000000NCONT   00    00000000000          00000000000000000000000000000000000000000000 000000000000000A000000000000000000000000000000000000000000000 000000000000000000000000000000000000000     00000000                                                                                                                        000000000000000000
F0010000005858600002000000431178400041450500000000000000000201405270002001EFRAIN ALVAREZ                                    C000000002600000000000000000000000100010010000000000000000000000F0010000005858600220140527000101 00000000000000000000000000000000000000000000000000000000000000000000000000000000000000000000000000000000000000000N 00000000000NCONT   00    00000000000          00000000000000000000000000000000000000000000 000000000000000A000000000000000000000000000000000000000000000 000000000000000000000000000000000000000     00000000                                                                                                                        000000000000000000
F0010000005858600003000000431178400042505000000000000000000201405270002001EFRAIN ALVAREZ                                    C000000000100000000000000000000000100010010000000000000000000000F0010000005858600320140527000101 00000000000000000000000000000000000000000000000000000000000000000000000000000000000000000000000000000000000000000N 00000000000NCONT   00    00000000000          00000000000000000000000000000000000000000000 000000000000000A000000000000000000000000000000000000000000000 000000000000000000000000000000000000000     00000000                                                                                                                        000000000000000000
F0010000005858600004000000431178400023658300000000000000000201405270002001EFRAIN ALVAREZ                                    C000000000020800000000000000000000100010010000000000000000000000F0010000005858600420140527000101 00000000000000000000000000000000000000000000000000000000000000000000000000000000000000000000000000000000000000000N 00000000000NCONT   00    00000000000          00000000000000000000000000000000000000000000 000000000000000A000000000000000000000000000000000000000000000 000000000000000000000000000000000000000     00000000                                                                                                                        000000000000000000
F0010000005858600005000000431178400013552100000000000000000201405270002001EFRAIN ALVAREZ                                    D000000000020800000000000000000000100010010000000000000000000000F0010000005858600520140527000101 00000000000000000000000000000000000000000000000000000000000000000000000000000000000000000000000000000000000000000N 00000000000NCONT   00    00000000000          00000000000000000000000000000000000000000000 000000000000000A000000000000000000000000000000000000000000000 000000000000000000000000000000000000000     00000000                                                                                                                        000000000000000000
F0010000005858700001000090020547900011050500000000000000000201405270002001DAC DEL CARIBE S.A.S.                             D000000001350000000000000000000000100010010000000000000000000000F0010000005858700120140527000101 00000000000000000000000000000000000000000000000000000000000000000000000000000000000000000000000000000000000000000N 00000000000NCONT   00    00000000000          00000000000000000000000000000000000000000000 000000000000000A000000000000000000000000000000000000000000000 000000000000000000000000000000000000000     00000000                                                                                                                        000000000000000000
F0010000005858700002000090020547900041450500000000000000000201405270002001DAC DEL CARIBE S.A.S.                             C000000001000000000000000000000000100010010000000000000000000000F0010000005858700220140527000101 00000000000000000000000000000000000000000000000000000000000000000000000000000000000000000000000000000000000000000N 00000000000NCONT   00    00000000000          00000000000000000000000000000000000000000000 000000000000000A000000000000000000000000000000000000000000000 000000000000000000000000000000000000000     00000000                                                                                                                        000000000000000000
F0010000005858700003000090020547900042505000000000000000000201405270002001DAC DEL CARIBE S.A.S.                             C000000000350000000000000000000000100010010000000000000000000000F0010000005858700320140527000101 00000000000000000000000000000000000000000000000000000000000000000000000000000000000000000000000000000000000000000N 00000000000NCONT   00    00000000000          00000000000000000000000000000000000000000000 000000000000000A000000000000000000000000000000000000000000000 000000000000000000000000000000000000000     00000000                                                                                                                        000000000000000000
F0010000005858700004000090020547900023658300000000000000000201405270002001DAC DEL CARIBE S.A.S.                             C000000000008000000000000000000000100010010000000000000000000000F0010000005858700420140527000101 00000000000000000000000000000000000000000000000000000000000000000000000000000000000000000000000000000000000000000N 00000000000NCONT   00    00000000000          00000000000000000000000000000000000000000000 000000000000000A000000000000000000000000000000000000000000000 000000000000000000000000000000000000000     00000000                                                                                                                        000000000000000000
F0010000005858700005000090020547900013552100000000000000000201405270002001DAC DEL CARIBE S.A.S.                             D000000000008000000000000000000000100010010000000000000000000000F0010000005858700520140527000101 00000000000000000000000000000000000000000000000000000000000000000000000000000000000000000000000000000000000000000N 00000000000NCONT   00    00000000000          00000000000000000000000000000000000000000000 000000000000000A000000000000000000000000000000000000000000000 000000000000000000000000000000000000000     00000000                                                                                                                        000000000000000000
F0010000005858800001000090020547900011050500000000000000000201405270002001DAC DEL CARIBE S.A.S.                             D000000001400000000000000000000000100010010000000000000000000000F0010000005858800120140527000101 00000000000000000000000000000000000000000000000000000000000000000000000000000000000000000000000000000000000000000N 00000000000NCONT   00    00000000000          00000000000000000000000000000000000000000000 000000000000000A000000000000000000000000000000000000000000000 000000000000000000000000000000000000000     00000000                                                                                                                        000000000000000000
F0010000005858800002000090020547900041450500000000000000000201405270002001DAC DEL CARIBE S.A.S.                             C000000000900000000000000000000000100010010000000000000000000000F0010000005858800220140527000101 00000000000000000000000000000000000000000000000000000000000000000000000000000000000000000000000000000000000000000N 00000000000NCONT   00    00000000000          00000000000000000000000000000000000000000000 000000000000000A000000000000000000000000000000000000000000000 000000000000000000000000000000000000000     00000000                                                                                                                        000000000000000000
F0010000005858800003000090020547900042505000000000000000000201405270002001DAC DEL CARIBE S.A.S.                             C000000000500000000000000000000000100010010000000000000000000000F0010000005858800320140527000101 00000000000000000000000000000000000000000000000000000000000000000000000000000000000000000000000000000000000000000N 00000000000NCONT   00    00000000000          00000000000000000000000000000000000000000000 000000000000000A000000000000000000000000000000000000000000000 000000000000000000000000000000000000000     00000000                                                                                                                        000000000000000000
F0010000005858800004000090020547900023658300000000000000000201405270002001DAC DEL CARIBE S.A.S.                             C000000000007200000000000000000000100010010000000000000000000000F0010000005858800420140527000101 00000000000000000000000000000000000000000000000000000000000000000000000000000000000000000000000000000000000000000N 00000000000NCONT   00    00000000000          00000000000000000000000000000000000000000000 000000000000000A000000000000000000000000000000000000000000000 000000000000000000000000000000000000000     00000000                                                                                                                        000000000000000000
F0010000005858800005000090020547900013552100000000000000000201405270002001DAC DEL CARIBE S.A.S.                             D000000000007200000000000000000000100010010000000000000000000000F0010000005858800520140527000101 00000000000000000000000000000000000000000000000000000000000000000000000000000000000000000000000000000000000000000N 00000000000NCONT   00    00000000000          00000000000000000000000000000000000000000000 000000000000000A000000000000000000000000000000000000000000000 000000000000000000000000000000000000000     00000000                                                                                                                        000000000000000000
F0010000005858900001000090020547900011050500000000000000000201405270002001DAC DEL CARIBE S.A.S.                             D000000001200000000000000000000000100010010000000000000000000000F0010000005858900120140527000101 00000000000000000000000000000000000000000000000000000000000000000000000000000000000000000000000000000000000000000N 00000000000NCONT   00    00000000000          00000000000000000000000000000000000000000000 000000000000000A000000000000000000000000000000000000000000000 000000000000000000000000000000000000000     00000000                                                                                                                        000000000000000000
F0010000005858900002000090020547900041450500000000000000000201405270002001DAC DEL CARIBE S.A.S.                             C000000000900000000000000000000000100010010000000000000000000000F0010000005858900220140527000101 00000000000000000000000000000000000000000000000000000000000000000000000000000000000000000000000000000000000000000N 00000000000NCONT   00    00000000000          00000000000000000000000000000000000000000000 000000000000000A000000000000000000000000000000000000000000000 000000000000000000000000000000000000000     00000000                                                                                                                        000000000000000000
F0010000005858900003000090020547900042505000000000000000000201405270002001DAC DEL CARIBE S.A.S.                             C000000000300000000000000000000000100010010000000000000000000000F0010000005858900320140527000101 00000000000000000000000000000000000000000000000000000000000000000000000000000000000000000000000000000000000000000N 00000000000NCONT   00    00000000000          00000000000000000000000000000000000000000000 000000000000000A000000000000000000000000000000000000000000000 000000000000000000000000000000000000000     00000000                                                                                                                        000000000000000000
F0010000005858900004000090020547900023658300000000000000000201405270002001DAC DEL CARIBE S.A.S.                             C000000000007200000000000000000000100010010000000000000000000000F0010000005858900420140527000101 00000000000000000000000000000000000000000000000000000000000000000000000000000000000000000000000000000000000000000N 00000000000NCONT   00    00000000000          00000000000000000000000000000000000000000000 000000000000000A000000000000000000000000000000000000000000000 000000000000000000000000000000000000000     00000000                                                                                                                        000000000000000000
F0010000005858900005000090020547900013552100000000000000000201405270002001DAC DEL CARIBE S.A.S.                             D000000000007200000000000000000000100010010000000000000000000000F0010000005858900520140527000101 00000000000000000000000000000000000000000000000000000000000000000000000000000000000000000000000000000000000000000N 00000000000NCONT   00    00000000000          00000000000000000000000000000000000000000000 000000000000000A000000000000000000000000000000000000000000000 000000000000000000000000000000000000000     00000000                                                                                                                        000000000000000000
F0010000005859000001000090020547900011050500000000000000000201405270002001DAC DEL CARIBE S.A.S.                             D000000001500000000000000000000000100010010000000000000000000000F0010000005859000120140527000101 00000000000000000000000000000000000000000000000000000000000000000000000000000000000000000000000000000000000000000N 00000000000NCONT   00    00000000000          00000000000000000000000000000000000000000000 000000000000000A000000000000000000000000000000000000000000000 000000000000000000000000000000000000000     00000000                                                                                                                        000000000000000000
F0010000005859000002000090020547900041450500000000000000000201405270002001DAC DEL CARIBE S.A.S.                             C000000000900000000000000000000000100010010000000000000000000000F0010000005859000220140527000101 00000000000000000000000000000000000000000000000000000000000000000000000000000000000000000000000000000000000000000N 00000000000NCONT   00    00000000000          00000000000000000000000000000000000000000000 000000000000000A000000000000000000000000000000000000000000000 000000000000000000000000000000000000000     00000000                                                                                                                        000000000000000000
F0010000005859000003000090020547900042505000000000000000000201405270002001DAC DEL CARIBE S.A.S.                             C000000000600000000000000000000000100010010000000000000000000000F0010000005859000320140527000101 00000000000000000000000000000000000000000000000000000000000000000000000000000000000000000000000000000000000000000N 00000000000NCONT   00    00000000000          00000000000000000000000000000000000000000000 000000000000000A000000000000000000000000000000000000000000000 000000000000000000000000000000000000000     00000000                                                                                                                        000000000000000000
F0010000005859000004000090020547900023658300000000000000000201405270002001DAC DEL CARIBE S.A.S.                             C000000000007200000000000000000000100010010000000000000000000000F0010000005859000420140527000101 00000000000000000000000000000000000000000000000000000000000000000000000000000000000000000000000000000000000000000N 00000000000NCONT   00    00000000000          00000000000000000000000000000000000000000000 000000000000000A000000000000000000000000000000000000000000000 000000000000000000000000000000000000000     00000000                                                                                                                        000000000000000000
F0010000005859000005000090020547900013552100000000000000000201405270002001DAC DEL CARIBE S.A.S.                             D000000000007200000000000000000000100010010000000000000000000000F0010000005859000520140527000101 00000000000000000000000000000000000000000000000000000000000000000000000000000000000000000000000000000000000000000N 00000000000NCONT   00    00000000000          00000000000000000000000000000000000000000000 000000000000000A000000000000000000000000000000000000000000000 000000000000000000000000000000000000000     00000000                                                                                                                        000000000000000000
F0010000005859100001000090020547900011050500000000000000000201405270002001DAC DEL CARIBE S.A.S.                             D000000005300000000000000000000000100010010000000000000000000000F0010000005859100120140527000101 00000000000000000000000000000000000000000000000000000000000000000000000000000000000000000000000000000000000000000N 00000000000NCONT   00    00000000000          00000000000000000000000000000000000000000000 000000000000000A000000000000000000000000000000000000000000000 000000000000000000000000000000000000000     00000000                                                                                                                        000000000000000000
F0010000005859100002000090020547900041450500000000000000000201405270002001DAC DEL CARIBE S.A.S.                             C000000004400000000000000000000000100010010000000000000000000000F0010000005859100220140527000101 00000000000000000000000000000000000000000000000000000000000000000000000000000000000000000000000000000000000000000N 00000000000NCONT   00    00000000000          00000000000000000000000000000000000000000000 000000000000000A000000000000000000000000000000000000000000000 000000000000000000000000000000000000000     00000000                                                                                                                        000000000000000000
F0010000005859100003000090020547900042505000000000000000000201405270002001DAC DEL CARIBE S.A.S.                             C000000000900000000000000000000000100010010000000000000000000000F0010000005859100320140527000101 00000000000000000000000000000000000000000000000000000000000000000000000000000000000000000000000000000000000000000N 00000000000NCONT   00    00000000000          00000000000000000000000000000000000000000000 000000000000000A000000000000000000000000000000000000000000000 000000000000000000000000000000000000000     00000000                                                                                                                        000000000000000000
F0010000005859100004000090020547900023658300000000000000000201405270002001DAC DEL CARIBE S.A.S.                             C000000000035200000000000000000000100010010000000000000000000000F0010000005859100420140527000101 00000000000000000000000000000000000000000000000000000000000000000000000000000000000000000000000000000000000000000N 00000000000NCONT   00    00000000000          00000000000000000000000000000000000000000000 000000000000000A000000000000000000000000000000000000000000000 000000000000000000000000000000000000000     00000000                                                                                                                        000000000000000000
F0010000005859100005000090020547900013552100000000000000000201405270002001DAC DEL CARIBE S.A.S.                             D000000000035200000000000000000000100010010000000000000000000000F0010000005859100520140527000101 00000000000000000000000000000000000000000000000000000000000000000000000000000000000000000000000000000000000000000N 00000000000NCONT   00    00000000000          00000000000000000000000000000000000000000000 000000000000000A000000000000000000000000000000000000000000000 000000000000000000000000000000000000000     00000000                                                                                                                        000000000000000000
F0010000005859200001000090020547900011050500000000000000000201405270002001DAC DEL CARIBE S.A.S.                             D000000005600000000000000000000000100010010000000000000000000000F0010000005859200120140527000101 00000000000000000000000000000000000000000000000000000000000000000000000000000000000000000000000000000000000000000N 00000000000NCONT   00    00000000000          00000000000000000000000000000000000000000000 000000000000000A000000000000000000000000000000000000000000000 000000000000000000000000000000000000000     00000000                                                                                                                        000000000000000000
F0010000005859200002000090020547900041450500000000000000000201405270002001DAC DEL CARIBE S.A.S.                             C000000005000000000000000000000000100010010000000000000000000000F0010000005859200220140527000101 00000000000000000000000000000000000000000000000000000000000000000000000000000000000000000000000000000000000000000N 00000000000NCONT   00    00000000000          00000000000000000000000000000000000000000000 000000000000000A000000000000000000000000000000000000000000000 000000000000000000000000000000000000000     00000000                                                                                                                        000000000000000000
F0010000005859200003000090020547900042505000000000000000000201405270002001DAC DEL CARIBE S.A.S.                             C000000000600000000000000000000000100010010000000000000000000000F0010000005859200320140527000101 00000000000000000000000000000000000000000000000000000000000000000000000000000000000000000000000000000000000000000N 00000000000NCONT   00    00000000000          00000000000000000000000000000000000000000000 000000000000000A000000000000000000000000000000000000000000000 000000000000000000000000000000000000000     00000000                                                                                                                        000000000000000000
F0010000005859200004000090020547900023658300000000000000000201405270002001DAC DEL CARIBE S.A.S.                             C000000000040000000000000000000000100010010000000000000000000000F0010000005859200420140527000101 00000000000000000000000000000000000000000000000000000000000000000000000000000000000000000000000000000000000000000N 00000000000NCONT   00    00000000000          00000000000000000000000000000000000000000000 000000000000000A000000000000000000000000000000000000000000000 000000000000000000000000000000000000000     00000000                                                                                                                        000000000000000000
F0010000005859200005000090020547900013552100000000000000000201405270002001DAC DEL CARIBE S.A.S.                             D000000000040000000000000000000000100010010000000000000000000000F0010000005859200520140527000101 00000000000000000000000000000000000000000000000000000000000000000000000000000000000000000000000000000000000000000N 00000000000NCONT   00    00000000000          00000000000000000000000000000000000000000000 000000000000000A000000000000000000000000000000000000000000000 000000000000000000000000000000000000000     00000000                                                                                                                        000000000000000000
F0010000005859300001000090020547900011050500000000000000000201405270002001DAC DEL CARIBE S.A.S.                             D000000001300000000000000000000000100010010000000000000000000000F0010000005859300120140527000101 00000000000000000000000000000000000000000000000000000000000000000000000000000000000000000000000000000000000000000N 00000000000NCONT   00    00000000000          00000000000000000000000000000000000000000000 000000000000000A000000000000000000000000000000000000000000000 000000000000000000000000000000000000000     00000000                                                                                                                        000000000000000000
F0010000005859300002000090020547900041450500000000000000000201405270002001DAC DEL CARIBE S.A.S.                             C000000000900000000000000000000000100010010000000000000000000000F0010000005859300220140527000101 00000000000000000000000000000000000000000000000000000000000000000000000000000000000000000000000000000000000000000N 00000000000NCONT   00    00000000000          00000000000000000000000000000000000000000000 000000000000000A000000000000000000000000000000000000000000000 000000000000000000000000000000000000000     00000000                                                                                                                        000000000000000000
F0010000005859300003000090020547900042505000000000000000000201405270002001DAC DEL CARIBE S.A.S.                             C000000000400000000000000000000000100010010000000000000000000000F0010000005859300320140527000101 00000000000000000000000000000000000000000000000000000000000000000000000000000000000000000000000000000000000000000N 00000000000NCONT   00    00000000000          00000000000000000000000000000000000000000000 000000000000000A000000000000000000000000000000000000000000000 000000000000000000000000000000000000000     00000000                                                                                                                        000000000000000000
F0010000005859300004000090020547900023658300000000000000000201405270002001DAC DEL CARIBE S.A.S.                             C000000000007200000000000000000000100010010000000000000000000000F0010000005859300420140527000101 00000000000000000000000000000000000000000000000000000000000000000000000000000000000000000000000000000000000000000N 00000000000NCONT   00    00000000000          00000000000000000000000000000000000000000000 000000000000000A000000000000000000000000000000000000000000000 000000000000000000000000000000000000000     00000000                                                                                                                        000000000000000000
F0010000005859300005000090020547900013552100000000000000000201405270002001DAC DEL CARIBE S.A.S.                             D000000000007200000000000000000000100010010000000000000000000000F0010000005859300520140527000101 00000000000000000000000000000000000000000000000000000000000000000000000000000000000000000000000000000000000000000N 00000000000NCONT   00    00000000000          00000000000000000000000000000000000000000000 000000000000000A000000000000000000000000000000000000000000000 000000000000000000000000000000000000000     00000000                                                                                                                        000000000000000000
F0010000005859400001000090020547900011050500000000000000000201405270002001DAC DEL CARIBE S.A.S.                             D000000003300000000000000000000000100010010000000000000000000000F0010000005859400120140527000101 00000000000000000000000000000000000000000000000000000000000000000000000000000000000000000000000000000000000000000N 00000000000NCONT   00    00000000000          00000000000000000000000000000000000000000000 000000000000000A000000000000000000000000000000000000000000000 000000000000000000000000000000000000000     00000000                                                                                                                        000000000000000000
F0010000005859400002000090020547900041450500000000000000000201405270002001DAC DEL CARIBE S.A.S.                             C000000002400000000000000000000000100010010000000000000000000000F0010000005859400220140527000101 00000000000000000000000000000000000000000000000000000000000000000000000000000000000000000000000000000000000000000N 00000000000NCONT   00    00000000000          00000000000000000000000000000000000000000000 000000000000000A000000000000000000000000000000000000000000000 000000000000000000000000000000000000000     00000000                                                                                                                        000000000000000000
F0010000005859400003000090020547900042505000000000000000000201405270002001DAC DEL CARIBE S.A.S.                             C000000000900000000000000000000000100010010000000000000000000000F0010000005859400320140527000101 00000000000000000000000000000000000000000000000000000000000000000000000000000000000000000000000000000000000000000N 00000000000NCONT   00    00000000000          00000000000000000000000000000000000000000000 000000000000000A000000000000000000000000000000000000000000000 000000000000000000000000000000000000000     00000000                                                                                                                        000000000000000000
F0010000005859400004000090020547900023658300000000000000000201405270002001DAC DEL CARIBE S.A.S.                             C000000000019200000000000000000000100010010000000000000000000000F0010000005859400420140527000101 00000000000000000000000000000000000000000000000000000000000000000000000000000000000000000000000000000000000000000N 00000000000NCONT   00    00000000000          00000000000000000000000000000000000000000000 000000000000000A000000000000000000000000000000000000000000000 000000000000000000000000000000000000000     00000000                                                                                                                        000000000000000000
F0010000005859400005000090020547900013552100000000000000000201405270002001DAC DEL CARIBE S.A.S.                             D000000000019200000000000000000000100010010000000000000000000000F0010000005859400520140527000101 00000000000000000000000000000000000000000000000000000000000000000000000000000000000000000000000000000000000000000N 00000000000NCONT   00    00000000000          00000000000000000000000000000000000000000000 000000000000000A000000000000000000000000000000000000000000000 000000000000000000000000000000000000000     00000000                                                                                                                        000000000000000000
F0010000005859500001000090020547900011050500000000000000000201405270002001DAC DEL CARIBE S.A.S.                             D000000002100000000000000000000000100010010000000000000000000000F0010000005859500120140527000101 00000000000000000000000000000000000000000000000000000000000000000000000000000000000000000000000000000000000000000N 00000000000NCONT   00    00000000000          00000000000000000000000000000000000000000000 000000000000000A000000000000000000000000000000000000000000000 000000000000000000000000000000000000000     00000000                                                                                                                        000000000000000000
F0010000005859500002000090020547900041450500000000000000000201405270002001DAC DEL CARIBE S.A.S.                             C000000001300000000000000000000000100010010000000000000000000000F0010000005859500220140527000101 00000000000000000000000000000000000000000000000000000000000000000000000000000000000000000000000000000000000000000N 00000000000NCONT   00    00000000000          00000000000000000000000000000000000000000000 000000000000000A000000000000000000000000000000000000000000000 000000000000000000000000000000000000000     00000000                                                                                                                        000000000000000000
F0010000005859500003000090020547900042505000000000000000000201405270002001DAC DEL CARIBE S.A.S.                             C000000000800000000000000000000000100010010000000000000000000000F0010000005859500320140527000101 00000000000000000000000000000000000000000000000000000000000000000000000000000000000000000000000000000000000000000N 00000000000NCONT   00    00000000000          00000000000000000000000000000000000000000000 000000000000000A000000000000000000000000000000000000000000000 000000000000000000000000000000000000000     00000000                                                                                                                        000000000000000000
F0010000005859500004000090020547900023658300000000000000000201405270002001DAC DEL CARIBE S.A.S.                             C000000000010400000000000000000000100010010000000000000000000000F0010000005859500420140527000101 00000000000000000000000000000000000000000000000000000000000000000000000000000000000000000000000000000000000000000N 00000000000NCONT   00    00000000000          00000000000000000000000000000000000000000000 000000000000000A000000000000000000000000000000000000000000000 000000000000000000000000000000000000000     00000000                                                                                                                        000000000000000000
F0010000005859500005000090020547900013552100000000000000000201405270002001DAC DEL CARIBE S.A.S.                             D000000000010400000000000000000000100010010000000000000000000000F0010000005859500520140527000101 00000000000000000000000000000000000000000000000000000000000000000000000000000000000000000000000000000000000000000N 00000000000NCONT   00    00000000000          00000000000000000000000000000000000000000000 000000000000000A000000000000000000000000000000000000000000000 000000000000000000000000000000000000000     00000000                                                                                                                        000000000000000000
F0010000005859600001000089011508200011050500000000000000000201405270002001ALMACEN Y TALLER CICLOCOSTA                       D000000001950000000000000000000000100010010000000000000000000000F0010000005859600120140527000101 00000000000000000000000000000000000000000000000000000000000000000000000000000000000000000000000000000000000000000N 00000000000NCONT   00    00000000000          00000000000000000000000000000000000000000000 000000000000000A000000000000000000000000000000000000000000000 000000000000000000000000000000000000000     00000000                                                                                                                        000000000000000000
F0010000005859600002000089011508200041450500000000000000000201405270002001ALMACEN Y TALLER CICLOCOSTA                       C000000001300000000000000000000000100010010000000000000000000000F0010000005859600220140527000101 00000000000000000000000000000000000000000000000000000000000000000000000000000000000000000000000000000000000000000N 00000000000NCONT   00    00000000000          00000000000000000000000000000000000000000000 000000000000000A000000000000000000000000000000000000000000000 000000000000000000000000000000000000000     00000000                                                                                                                        000000000000000000
F0010000005859600003000089011508200042505000000000000000000201405270002001ALMACEN Y TALLER CICLOCOSTA                       C000000000650000000000000000000000100010010000000000000000000000F0010000005859600320140527000101 00000000000000000000000000000000000000000000000000000000000000000000000000000000000000000000000000000000000000000N 00000000000NCONT   00    00000000000          00000000000000000000000000000000000000000000 000000000000000A000000000000000000000000000000000000000000000 000000000000000000000000000000000000000     00000000                                                                                                                        000000000000000000
F0010000005859600004000089011508200023658300000000000000000201405270002001ALMACEN Y TALLER CICLOCOSTA                       C000000000010400000000000000000000100010010000000000000000000000F0010000005859600420140527000101 00000000000000000000000000000000000000000000000000000000000000000000000000000000000000000000000000000000000000000N 00000000000NCONT   00    00000000000          00000000000000000000000000000000000000000000 000000000000000A000000000000000000000000000000000000000000000 000000000000000000000000000000000000000     00000000                                                                                                                        000000000000000000
F0010000005859600005000089011508200013552100000000000000000201405270002001ALMACEN Y TALLER CICLOCOSTA                       D000000000010400000000000000000000100010010000000000000000000000F0010000005859600520140527000101 00000000000000000000000000000000000000000000000000000000000000000000000000000000000000000000000000000000000000000N 00000000000NCONT   00    00000000000          00000000000000000000000000000000000000000000 000000000000000A000000000000000000000000000000000000000000000 000000000000000000000000000000000000000     00000000                                                                                                                        000000000000000000
F0010000005859700001000005523851000011050500000000000000000201405270002001ARISODELI PORTILLO BALLENA                        D000000004200000000000000000000000100010010000000000000000000000F0010000005859700120140527000101 00000000000000000000000000000000000000000000000000000000000000000000000000000000000000000000000000000000000000000N 00000000000NCONT   00    00000000000          00000000000000000000000000000000000000000000 000000000000000A000000000000000000000000000000000000000000000 000000000000000000000000000000000000000     00000000                                                                                                                        000000000000000000
F0010000005859700002000005523851000041450500000000000000000201405270002001ARISODELI PORTILLO BALLENA                        C000000003900000000000000000000000100010010000000000000000000000F0010000005859700220140527000101 00000000000000000000000000000000000000000000000000000000000000000000000000000000000000000000000000000000000000000N 00000000000NCONT   00    00000000000          00000000000000000000000000000000000000000000 000000000000000A000000000000000000000000000000000000000000000 000000000000000000000000000000000000000     00000000                                                                                                                        000000000000000000
F0010000005859700003000005523851000042505000000000000000000201405270002001ARISODELI PORTILLO BALLENA                        C000000000300000000000000000000000100010010000000000000000000000F0010000005859700320140527000101 00000000000000000000000000000000000000000000000000000000000000000000000000000000000000000000000000000000000000000N 00000000000NCONT   00    00000000000          00000000000000000000000000000000000000000000 000000000000000A000000000000000000000000000000000000000000000 000000000000000000000000000000000000000     00000000                                                                                                                        000000000000000000
F0010000005859700004000005523851000023658300000000000000000201405270002001ARISODELI PORTILLO BALLENA                        C000000000031200000000000000000000100010010000000000000000000000F0010000005859700420140527000101 00000000000000000000000000000000000000000000000000000000000000000000000000000000000000000000000000000000000000000N 00000000000NCONT   00    00000000000          00000000000000000000000000000000000000000000 000000000000000A000000000000000000000000000000000000000000000 000000000000000000000000000000000000000     00000000                                                                                                                        000000000000000000
F0010000005859700005000005523851000013552100000000000000000201405270002001ARISODELI PORTILLO BALLENA                        D000000000031200000000000000000000100010010000000000000000000000F0010000005859700520140527000101 00000000000000000000000000000000000000000000000000000000000000000000000000000000000000000000000000000000000000000N 00000000000NCONT   00    00000000000          00000000000000000000000000000000000000000000 000000000000000A000000000000000000000000000000000000000000000 000000000000000000000000000000000000000     00000000                                                                                                                        000000000000000000
F0010000005859800001000080200594400011050500000000000000000201405270002001NOVEDADES JOTA JOTA                               D000000008800000000000000000000000100010010000000000000000000000F0010000005859800120140527000101 00000000000000000000000000000000000000000000000000000000000000000000000000000000000000000000000000000000000000000N 00000000000NCONT   00    00000000000          00000000000000000000000000000000000000000000 000000000000000A000000000000000000000000000000000000000000000 000000000000000000000000000000000000000     00000000                                                                                                                        000000000000000000
F0010000005859800002000080200594400041450500000000000000000201405270002001NOVEDADES JOTA JOTA                               C000000006300000000000000000000000100010010000000000000000000000F0010000005859800220140527000101 00000000000000000000000000000000000000000000000000000000000000000000000000000000000000000000000000000000000000000N 00000000000NCONT   00    00000000000          00000000000000000000000000000000000000000000 000000000000000A000000000000000000000000000000000000000000000 000000000000000000000000000000000000000     00000000                                                                                                                        000000000000000000
