F0010000009762400001000080201411900011050500000000000000000201702060002001PLASTISERVICIOS S DE H                            D000000005600000000000000000000000100010010000000000000000000000F0010000009762400120170206000101 00000000000000000000000000000000000000000000000000000000000000000000000000000000000000000000000000000000000000000N 00000000000NCONT   00    00000000000          00000000000000000000000000000000000000000000 000000000000000A000000000000000000000000000000000000000000000 000000000000000000000000000000000000000     00000000                                                                                                                        000000000000000000
F0010000009762400002000080201411900041450500000000000000000201702060002001PLASTISERVICIOS S DE H                            C000000004000000000000000000000000100010010000000000000000000000F0010000009762400220170206000101 00000000000000000000000000000000000000000000000000000000000000000000000000000000000000000000000000000000000000000N 00000000000NCONT   00    00000000000          00000000000000000000000000000000000000000000 000000000000000A000000000000000000000000000000000000000000000 000000000000000000000000000000000000000     00000000                                                                                                                        000000000000000000
F0010000009762400003000080201411900042505000000000000000000201702060002001PLASTISERVICIOS S DE H                            C000000001600000000000000000000000100010010000000000000000000000F0010000009762400320170206000101 00000000000000000000000000000000000000000000000000000000000000000000000000000000000000000000000000000000000000000N 00000000000NCONT   00    00000000000          00000000000000000000000000000000000000000000 000000000000000A000000000000000000000000000000000000000000000 000000000000000000000000000000000000000     00000000                                                                                                                        000000000000000000
F0010000009762400004000080201411900023658300000000000000000201702060002001PLASTISERVICIOS S DE H                            C000000000032000000000000000000000100010010000000000000000000000F0010000009762400420170206000101 00000000000000000000000000000000000000000000000000000000000000000000000000000000000000000000000000000000000000000N 00000000000NCONT   00    00000000000          00000000000000000000000000000000000000000000 000000000000000A000000000000000000000000000000000000000000000 000000000000000000000000000000000000000     00000000                                                                                                                        000000000000000000
F0010000009762400005000080201411900013552100000000000000000201702060002001PLASTISERVICIOS S DE H                            D000000000032000000000000000000000100010010000000000000000000000F0010000009762400520170206000101 00000000000000000000000000000000000000000000000000000000000000000000000000000000000000000000000000000000000000000N 00000000000NCONT   00    00000000000          00000000000000000000000000000000000000000000 000000000000000A000000000000000000000000000000000000000000000 000000000000000000000000000000000000000     00000000                                                                                                                        000000000000000000
F0010000009762500001000090027500500011050500000000000000000201702060002001MULTIALUMINIO LA 30 S.A.S.                        D000000006100000000000000000000000100010010000000000000000000000F0010000009762500120170206000101 00000000000000000000000000000000000000000000000000000000000000000000000000000000000000000000000000000000000000000N 00000000000NCONT   00    00000000000          00000000000000000000000000000000000000000000 000000000000000A000000000000000000000000000000000000000000000 000000000000000000000000000000000000000     00000000                                                                                                                        000000000000000000
F0010000009762500002000090027500500041450500000000000000000201702060002001MULTIALUMINIO LA 30 S.A.S.                        C000000005100000000000000000000000100010010000000000000000000000F0010000009762500220170206000101 00000000000000000000000000000000000000000000000000000000000000000000000000000000000000000000000000000000000000000N 00000000000NCONT   00    00000000000          00000000000000000000000000000000000000000000 000000000000000A000000000000000000000000000000000000000000000 000000000000000000000000000000000000000     00000000                                                                                                                        000000000000000000
F0010000009762500003000090027500500042505000000000000000000201702060002001MULTIALUMINIO LA 30 S.A.S.                        C000000001000000000000000000000000100010010000000000000000000000F0010000009762500320170206000101 00000000000000000000000000000000000000000000000000000000000000000000000000000000000000000000000000000000000000000N 00000000000NCONT   00    00000000000          00000000000000000000000000000000000000000000 000000000000000A000000000000000000000000000000000000000000000 000000000000000000000000000000000000000     00000000                                                                                                                        000000000000000000
F0010000009762500004000090027500500023658300000000000000000201702060002001MULTIALUMINIO LA 30 S.A.S.                        C000000000040800000000000000000000100010010000000000000000000000F0010000009762500420170206000101 00000000000000000000000000000000000000000000000000000000000000000000000000000000000000000000000000000000000000000N 00000000000NCONT   00    00000000000          00000000000000000000000000000000000000000000 000000000000000A000000000000000000000000000000000000000000000 000000000000000000000000000000000000000     00000000                                                                                                                        000000000000000000
F0010000009762500005000090027500500013552100000000000000000201702060002001MULTIALUMINIO LA 30 S.A.S.                        D000000000040800000000000000000000100010010000000000000000000000F0010000009762500520170206000101 00000000000000000000000000000000000000000000000000000000000000000000000000000000000000000000000000000000000000000N 00000000000NCONT   00    00000000000          00000000000000000000000000000000000000000000 000000000000000A000000000000000000000000000000000000000000000 000000000000000000000000000000000000000     00000000                                                                                                                        000000000000000000
F0010000009762600001000090027500500011050500000000000000000201702060002001MULTIALUMINIOS LA 30 SAS                          D000000002600000000000000000000000100010010000000000000000000000F0010000009762600120170206000101 00000000000000000000000000000000000000000000000000000000000000000000000000000000000000000000000000000000000000000N 00000000000NCONT   00    00000000000          00000000000000000000000000000000000000000000 000000000000000A000000000000000000000000000000000000000000000 000000000000000000000000000000000000000     00000000                                                                                                                        000000000000000000
F0010000009762600002000090027500500041450500000000000000000201702060002001MULTIALUMINIOS LA 30 SAS                          C000000002100000000000000000000000100010010000000000000000000000F0010000009762600220170206000101 00000000000000000000000000000000000000000000000000000000000000000000000000000000000000000000000000000000000000000N 00000000000NCONT   00    00000000000          00000000000000000000000000000000000000000000 000000000000000A000000000000000000000000000000000000000000000 000000000000000000000000000000000000000     00000000                                                                                                                        000000000000000000
F0010000009762600003000090027500500042505000000000000000000201702060002001MULTIALUMINIOS LA 30 SAS                          C000000000500000000000000000000000100010010000000000000000000000F0010000009762600320170206000101 00000000000000000000000000000000000000000000000000000000000000000000000000000000000000000000000000000000000000000N 00000000000NCONT   00    00000000000          00000000000000000000000000000000000000000000 000000000000000A000000000000000000000000000000000000000000000 000000000000000000000000000000000000000     00000000                                                                                                                        000000000000000000
F0010000009762600004000090027500500023658300000000000000000201702060002001MULTIALUMINIOS LA 30 SAS                          C000000000016800000000000000000000100010010000000000000000000000F0010000009762600420170206000101 00000000000000000000000000000000000000000000000000000000000000000000000000000000000000000000000000000000000000000N 00000000000NCONT   00    00000000000          00000000000000000000000000000000000000000000 000000000000000A000000000000000000000000000000000000000000000 000000000000000000000000000000000000000     00000000                                                                                                                        000000000000000000
F0010000009762600005000090027500500013552100000000000000000201702060002001MULTIALUMINIOS LA 30 SAS                          D000000000016800000000000000000000100010010000000000000000000000F0010000009762600520170206000101 00000000000000000000000000000000000000000000000000000000000000000000000000000000000000000000000000000000000000000N 00000000000NCONT   00    00000000000          00000000000000000000000000000000000000000000 000000000000000A000000000000000000000000000000000000000000000 000000000000000000000000000000000000000     00000000                                                                                                                        000000000000000000
F0010000009762700001000089070997800011050500000000000000000201702060002001CENTRAL DE TORNILLOS                              D000000002084700000000000000000000100010010000000000000000000000F0010000009762700120170206000101 00000000000000000000000000000000000000000000000000000000000000000000000000000000000000000000000000000000000000000N 00000000000NCONT   00    00000000000          00000000000000000000000000000000000000000000 000000000000000A000000000000000000000000000000000000000000000 000000000000000000000000000000000000000     00000000                                                                                                                        000000000000000000
F0010000009762700002000089070997800041450500000000000000000201702060002001CENTRAL DE TORNILLOS                              C000000001930000000000000000000000100010010000000000000000000000F0010000009762700220170206000101 00000000000000000000000000000000000000000000000000000000000000000000000000000000000000000000000000000000000000000N 00000000000NCONT   00    00000000000          00000000000000000000000000000000000000000000 000000000000000A000000000000000000000000000000000000000000000 000000000000000000000000000000000000000     00000000                                                                                                                        000000000000000000
F0010000009762700003000089070997800042505000000000000000000201702060002001CENTRAL DE TORNILLOS                              C000000000154700000000000000000000100010010000000000000000000000F0010000009762700320170206000101 00000000000000000000000000000000000000000000000000000000000000000000000000000000000000000000000000000000000000000N 00000000000NCONT   00    00000000000          00000000000000000000000000000000000000000000 000000000000000A000000000000000000000000000000000000000000000 000000000000000000000000000000000000000     00000000                                                                                                                        000000000000000000
F0010000009762700004000089070997800023658300000000000000000201702060002001CENTRAL DE TORNILLOS                              C000000000015400000000000000000000100010010000000000000000000000F0010000009762700420170206000101 00000000000000000000000000000000000000000000000000000000000000000000000000000000000000000000000000000000000000000N 00000000000NCONT   00    00000000000          00000000000000000000000000000000000000000000 000000000000000A000000000000000000000000000000000000000000000 000000000000000000000000000000000000000     00000000                                                                                                                        000000000000000000
F0010000009762700005000089070997800013552100000000000000000201702060002001CENTRAL DE TORNILLOS                              D000000000015400000000000000000000100010010000000000000000000000F0010000009762700520170206000101 00000000000000000000000000000000000000000000000000000000000000000000000000000000000000000000000000000000000000000N 00000000000NCONT   00    00000000000          00000000000000000000000000000000000000000000 000000000000000A000000000000000000000000000000000000000000000 000000000000000000000000000000000000000     00000000                                                                                                                        000000000000000000
F0010000009762800001000089070997800011050500000000000000000201702060002001CENTRAL DE TORNILLOS                              D000000002114100000000000000000000100010010000000000000000000000F0010000009762800120170206000101 00000000000000000000000000000000000000000000000000000000000000000000000000000000000000000000000000000000000000000N 00000000000NCONT   00    00000000000          00000000000000000000000000000000000000000000 000000000000000A000000000000000000000000000000000000000000000 000000000000000000000000000000000000000     00000000                                                                                                                        000000000000000000
F0010000009762800002000089070997800041450500000000000000000201702060002001CENTRAL DE TORNILLOS                              C000000001930000000000000000000000100010010000000000000000000000F0010000009762800220170206000101 00000000000000000000000000000000000000000000000000000000000000000000000000000000000000000000000000000000000000000N 00000000000NCONT   00    00000000000          00000000000000000000000000000000000000000000 000000000000000A000000000000000000000000000000000000000000000 000000000000000000000000000000000000000     00000000                                                                                                                        000000000000000000
F0010000009762800003000089070997800042505000000000000000000201702060002001CENTRAL DE TORNILLOS                              C000000000184100000000000000000000100010010000000000000000000000F0010000009762800320170206000101 00000000000000000000000000000000000000000000000000000000000000000000000000000000000000000000000000000000000000000N 00000000000NCONT   00    00000000000          00000000000000000000000000000000000000000000 000000000000000A000000000000000000000000000000000000000000000 000000000000000000000000000000000000000     00000000                                                                                                                        000000000000000000
F0010000009762800004000089070997800023658300000000000000000201702060002001CENTRAL DE TORNILLOS                              C000000000015400000000000000000000100010010000000000000000000000F0010000009762800420170206000101 00000000000000000000000000000000000000000000000000000000000000000000000000000000000000000000000000000000000000000N 00000000000NCONT   00    00000000000          00000000000000000000000000000000000000000000 000000000000000A000000000000000000000000000000000000000000000 000000000000000000000000000000000000000     00000000                                                                                                                        000000000000000000
F0010000009762800005000089070997800013552100000000000000000201702060002001CENTRAL DE TORNILLOS                              D000000000015400000000000000000000100010010000000000000000000000F0010000009762800520170206000101 00000000000000000000000000000000000000000000000000000000000000000000000000000000000000000000000000000000000000000N 00000000000NCONT   00    00000000000          00000000000000000000000000000000000000000000 000000000000000A000000000000000000000000000000000000000000000 000000000000000000000000000000000000000     00000000                                                                                                                        000000000000000000
F0010000009762900001000090060180600011050500000000000000000201702060002001INTERSOLES SAS                                    D000000004400000000000000000000000100010010000000000000000000000F0010000009762900120170206000101 00000000000000000000000000000000000000000000000000000000000000000000000000000000000000000000000000000000000000000N 00000000000NCONT   00    00000000000          00000000000000000000000000000000000000000000 000000000000000A000000000000000000000000000000000000000000000 000000000000000000000000000000000000000     00000000                                                                                                                        000000000000000000
F0010000009762900002000090060180600041450500000000000000000201702060002001INTERSOLES SAS                                    C000000003600000000000000000000000100010010000000000000000000000F0010000009762900220170206000101 00000000000000000000000000000000000000000000000000000000000000000000000000000000000000000000000000000000000000000N 00000000000NCONT   00    00000000000          00000000000000000000000000000000000000000000 000000000000000A000000000000000000000000000000000000000000000 000000000000000000000000000000000000000     00000000                                                                                                                        000000000000000000
F0010000009762900003000090060180600042505000000000000000000201702060002001INTERSOLES SAS                                    C000000000800000000000000000000000100010010000000000000000000000F0010000009762900320170206000101 00000000000000000000000000000000000000000000000000000000000000000000000000000000000000000000000000000000000000000N 00000000000NCONT   00    00000000000          00000000000000000000000000000000000000000000 000000000000000A000000000000000000000000000000000000000000000 000000000000000000000000000000000000000     00000000                                                                                                                        000000000000000000
F0010000009762900004000090060180600023658300000000000000000201702060002001INTERSOLES SAS                                    C000000000028800000000000000000000100010010000000000000000000000F0010000009762900420170206000101 00000000000000000000000000000000000000000000000000000000000000000000000000000000000000000000000000000000000000000N 00000000000NCONT   00    00000000000          00000000000000000000000000000000000000000000 000000000000000A000000000000000000000000000000000000000000000 000000000000000000000000000000000000000     00000000                                                                                                                        000000000000000000
F0010000009762900005000090060180600013552100000000000000000201702060002001INTERSOLES SAS                                    D000000000028800000000000000000000100010010000000000000000000000F0010000009762900520170206000101 00000000000000000000000000000000000000000000000000000000000000000000000000000000000000000000000000000000000000000N 00000000000NCONT   00    00000000000          00000000000000000000000000000000000000000000 000000000000000A000000000000000000000000000000000000000000000 000000000000000000000000000000000000000     00000000                                                                                                                        000000000000000000
F0010000009763000001000086003979400011050500000000000000000201702060002001CALYPSO BARRANQUILLA LTDA                         D000000001670000000000000000000000100010010000000000000000000000F0010000009763000120170206000101 00000000000000000000000000000000000000000000000000000000000000000000000000000000000000000000000000000000000000000N 00000000000NCONT   00    00000000000          00000000000000000000000000000000000000000000 000000000000000A000000000000000000000000000000000000000000000 000000000000000000000000000000000000000     00000000                                                                                                                        000000000000000000
F0010000009763000002000086003979400041450500000000000000000201702060002001CALYPSO BARRANQUILLA LTDA                         C000000001320000000000000000000000100010010000000000000000000000F0010000009763000220170206000101 00000000000000000000000000000000000000000000000000000000000000000000000000000000000000000000000000000000000000000N 00000000000NCONT   00    00000000000          00000000000000000000000000000000000000000000 000000000000000A000000000000000000000000000000000000000000000 000000000000000000000000000000000000000     00000000                                                                                                                        000000000000000000
F0010000009763000003000086003979400042505000000000000000000201702060002001CALYPSO BARRANQUILLA LTDA                         C000000000350000000000000000000000100010010000000000000000000000F0010000009763000320170206000101 00000000000000000000000000000000000000000000000000000000000000000000000000000000000000000000000000000000000000000N 00000000000NCONT   00    00000000000          00000000000000000000000000000000000000000000 000000000000000A000000000000000000000000000000000000000000000 000000000000000000000000000000000000000     00000000                                                                                                                        000000000000000000
F0010000009763000004000086003979400023658300000000000000000201702060002001CALYPSO BARRANQUILLA LTDA                         C000000000010600000000000000000000100010010000000000000000000000F0010000009763000420170206000101 00000000000000000000000000000000000000000000000000000000000000000000000000000000000000000000000000000000000000000N 00000000000NCONT   00    00000000000          00000000000000000000000000000000000000000000 000000000000000A000000000000000000000000000000000000000000000 000000000000000000000000000000000000000     00000000                                                                                                                        000000000000000000
F0010000009763000005000086003979400013552100000000000000000201702060002001CALYPSO BARRANQUILLA LTDA                         D000000000010600000000000000000000100010010000000000000000000000F0010000009763000520170206000101 00000000000000000000000000000000000000000000000000000000000000000000000000000000000000000000000000000000000000000N 00000000000NCONT   00    00000000000          00000000000000000000000000000000000000000000 000000000000000A000000000000000000000000000000000000000000000 000000000000000000000000000000000000000     00000000                                                                                                                        000000000000000000
F0010000009763100001000090087617400011050500000000000000000201702060002001MASTERGLASS PREMIUM GROUP SAS                     D000000011000000000000000000000000100010010000000000000000000000F0010000009763100120170206000101 00000000000000000000000000000000000000000000000000000000000000000000000000000000000000000000000000000000000000000N 00000000000NCONT   00    00000000000          00000000000000000000000000000000000000000000 000000000000000A000000000000000000000000000000000000000000000 000000000000000000000000000000000000000     00000000                                                                                                                        000000000000000000
F0010000009763100002000090087617400041450500000000000000000201702060002001MASTERGLASS PREMIUM GROUP SAS                     C000000008500000000000000000000000100010010000000000000000000000F0010000009763100220170206000101 00000000000000000000000000000000000000000000000000000000000000000000000000000000000000000000000000000000000000000N 00000000000NCONT   00    00000000000          00000000000000000000000000000000000000000000 000000000000000A000000000000000000000000000000000000000000000 000000000000000000000000000000000000000     00000000                                                                                                                        000000000000000000
F0010000009763100003000090087617400042505000000000000000000201702060002001MASTERGLASS PREMIUM GROUP SAS                     C000000002500000000000000000000000100010010000000000000000000000F0010000009763100320170206000101 00000000000000000000000000000000000000000000000000000000000000000000000000000000000000000000000000000000000000000N 00000000000NCONT   00    00000000000          00000000000000000000000000000000000000000000 000000000000000A000000000000000000000000000000000000000000000 000000000000000000000000000000000000000     00000000                                                                                                                        000000000000000000
F0010000009763100004000090087617400023658300000000000000000201702060002001MASTERGLASS PREMIUM GROUP SAS                     C000000000068000000000000000000000100010010000000000000000000000F0010000009763100420170206000101 00000000000000000000000000000000000000000000000000000000000000000000000000000000000000000000000000000000000000000N 00000000000NCONT   00    00000000000          00000000000000000000000000000000000000000000 000000000000000A000000000000000000000000000000000000000000000 000000000000000000000000000000000000000     00000000                                                                                                                        000000000000000000
F0010000009763100005000090087617400013552100000000000000000201702060002001MASTERGLASS PREMIUM GROUP SAS                     D000000000068000000000000000000000100010010000000000000000000000F0010000009763100520170206000101 00000000000000000000000000000000000000000000000000000000000000000000000000000000000000000000000000000000000000000N 00000000000NCONT   00    00000000000          00000000000000000000000000000000000000000000 000000000000000A000000000000000000000000000000000000000000000 000000000000000000000000000000000000000     00000000                                                                                                                        000000000000000000
F0010000009763200001000090037881900011050500000000000000000201702060002001COMERCIALIZADORA RACOPI S.A.S                     D000000001360000000000000000000000100010010000000000000000000000F0010000009763200120170206000101 00000000000000000000000000000000000000000000000000000000000000000000000000000000000000000000000000000000000000000N 00000000000NCONT   00    00000000000          00000000000000000000000000000000000000000000 000000000000000A000000000000000000000000000000000000000000000 000000000000000000000000000000000000000     00000000                                                                                                                        000000000000000000
F0010000009763200002000090037881900041450500000000000000000201702060002001COMERCIALIZADORA RACOPI S.A.S                     C000000001160000000000000000000000100010010000000000000000000000F0010000009763200220170206000101 00000000000000000000000000000000000000000000000000000000000000000000000000000000000000000000000000000000000000000N 00000000000NCONT   00    00000000000          00000000000000000000000000000000000000000000 000000000000000A000000000000000000000000000000000000000000000 000000000000000000000000000000000000000     00000000                                                                                                                        000000000000000000
F0010000009763200003000090037881900042505000000000000000000201702060002001COMERCIALIZADORA RACOPI S.A.S                     C000000000200000000000000000000000100010010000000000000000000000F0010000009763200320170206000101 00000000000000000000000000000000000000000000000000000000000000000000000000000000000000000000000000000000000000000N 00000000000NCONT   00    00000000000          00000000000000000000000000000000000000000000 000000000000000A000000000000000000000000000000000000000000000 000000000000000000000000000000000000000     00000000                                                                                                                        000000000000000000
F0010000009763200004000090037881900023658300000000000000000201702060002001COMERCIALIZADORA RACOPI S.A.S                     C000000000009300000000000000000000100010010000000000000000000000F0010000009763200420170206000101 00000000000000000000000000000000000000000000000000000000000000000000000000000000000000000000000000000000000000000N 00000000000NCONT   00    00000000000          00000000000000000000000000000000000000000000 000000000000000A000000000000000000000000000000000000000000000 000000000000000000000000000000000000000     00000000                                                                                                                        000000000000000000
F0010000009763200005000090037881900013552100000000000000000201702060002001COMERCIALIZADORA RACOPI S.A.S                     D000000000009300000000000000000000100010010000000000000000000000F0010000009763200520170206000101 00000000000000000000000000000000000000000000000000000000000000000000000000000000000000000000000000000000000000000N 00000000000NCONT   00    00000000000          00000000000000000000000000000000000000000000 000000000000000A000000000000000000000000000000000000000000000 000000000000000000000000000000000000000     00000000                                                                                                                        000000000000000000
F0010000009763300001000002245670100011050500000000000000000201702060002001YOLANDA  TOBON                                    D000000028921800000000000000000000100010010000000000000000000000F0010000009763300120170206000101 00000000000000000000000000000000000000000000000000000000000000000000000000000000000000000000000000000000000000000N 00000000000NCONT   00    00000000000          00000000000000000000000000000000000000000000 000000000000000A000000000000000000000000000000000000000000000 000000000000000000000000000000000000000     00000000                                                                                                                        000000000000000000
F0010000009763300002000002245670100041450500000000000000000201702060002001YOLANDA  TOBON                                    C000000027870000000000000000000000100010010000000000000000000000F0010000009763300220170206000101 00000000000000000000000000000000000000000000000000000000000000000000000000000000000000000000000000000000000000000N 00000000000NCONT   00    00000000000          00000000000000000000000000000000000000000000 000000000000000A000000000000000000000000000000000000000000000 000000000000000000000000000000000000000     00000000                                                                                                                        000000000000000000
F0010000009763300003000002245670100042505000000000000000000201702060002001YOLANDA  TOBON                                    C000000001051800000000000000000000100010010000000000000000000000F0010000009763300320170206000101 00000000000000000000000000000000000000000000000000000000000000000000000000000000000000000000000000000000000000000N 00000000000NCONT   00    00000000000          00000000000000000000000000000000000000000000 000000000000000A000000000000000000000000000000000000000000000 000000000000000000000000000000000000000     00000000                                                                                                                        000000000000000000
F0010000009763300004000002245670100023658300000000000000000201702060002001YOLANDA  TOBON                                    C000000000223000000000000000000000100010010000000000000000000000F0010000009763300420170206000101 00000000000000000000000000000000000000000000000000000000000000000000000000000000000000000000000000000000000000000N 00000000000NCONT   00    00000000000          00000000000000000000000000000000000000000000 000000000000000A000000000000000000000000000000000000000000000 000000000000000000000000000000000000000     00000000                                                                                                                        000000000000000000
F0010000009763300005000002245670100013552100000000000000000201702060002001YOLANDA  TOBON                                    D000000000223000000000000000000000100010010000000000000000000000F0010000009763300520170206000101 00000000000000000000000000000000000000000000000000000000000000000000000000000000000000000000000000000000000000000N 00000000000NCONT   00    00000000000          00000000000000000000000000000000000000000000 000000000000000A000000000000000000000000000000000000000000000 000000000000000000000000000000000000000     00000000                                                                                                                        000000000000000000
F0010000009763400001000090034602400011050500000000000000000201702060002001PRODUCTOS NACIONALES PARAFINICOS LA CUSTODIA S.A.SD000000001100000000000000000000000100010010000000000000000000000F0010000009763400120170206000101 00000000000000000000000000000000000000000000000000000000000000000000000000000000000000000000000000000000000000000N 00000000000NCONT   00    00000000000          00000000000000000000000000000000000000000000 000000000000000A000000000000000000000000000000000000000000000 000000000000000000000000000000000000000     00000000                                                                                                                        000000000000000000
F0010000009763400002000090034602400041450500000000000000000201702060002001PRODUCTOS NACIONALES PARAFINICOS LA CUSTODIA S.A.SC000000001000000000000000000000000100010010000000000000000000000F0010000009763400220170206000101 00000000000000000000000000000000000000000000000000000000000000000000000000000000000000000000000000000000000000000N 00000000000NCONT   00    00000000000          00000000000000000000000000000000000000000000 000000000000000A000000000000000000000000000000000000000000000 000000000000000000000000000000000000000     00000000                                                                                                                        000000000000000000
F0010000009763400003000090034602400042505000000000000000000201702060002001PRODUCTOS NACIONALES PARAFINICOS LA CUSTODIA S.A.SC000000000100000000000000000000000100010010000000000000000000000F0010000009763400320170206000101 00000000000000000000000000000000000000000000000000000000000000000000000000000000000000000000000000000000000000000N 00000000000NCONT   00    00000000000          00000000000000000000000000000000000000000000 000000000000000A000000000000000000000000000000000000000000000 000000000000000000000000000000000000000     00000000                                                                                                                        000000000000000000
F0010000009763400004000090034602400023658300000000000000000201702060002001PRODUCTOS NACIONALES PARAFINICOS LA CUSTODIA S.A.SC000000000008000000000000000000000100010010000000000000000000000F0010000009763400420170206000101 00000000000000000000000000000000000000000000000000000000000000000000000000000000000000000000000000000000000000000N 00000000000NCONT   00    00000000000          00000000000000000000000000000000000000000000 000000000000000A000000000000000000000000000000000000000000000 000000000000000000000000000000000000000     00000000                                                                                                                        000000000000000000
F0010000009763400005000090034602400013552100000000000000000201702060002001PRODUCTOS NACIONALES PARAFINICOS LA CUSTODIA S.A.SD000000000008000000000000000000000100010010000000000000000000000F0010000009763400520170206000101 00000000000000000000000000000000000000000000000000000000000000000000000000000000000000000000000000000000000000000N 00000000000NCONT   00    00000000000          00000000000000000000000000000000000000000000 000000000000000A000000000000000000000000000000000000000000000 000000000000000000000000000000000000000     00000000                                                                                                                        000000000000000000
F0010000009763500001000090061985600011050500000000000000000201702060002001COMERCIALIZADORA PATRY SAS                        D000000002500000000000000000000000100010010000000000000000000000F0010000009763500120170206000101 00000000000000000000000000000000000000000000000000000000000000000000000000000000000000000000000000000000000000000N 00000000000NCONT   00    00000000000          00000000000000000000000000000000000000000000 000000000000000A000000000000000000000000000000000000000000000 000000000000000000000000000000000000000     00000000                                                                                                                        000000000000000000
F0010000009763500002000090061985600041450500000000000000000201702060002001COMERCIALIZADORA PATRY SAS                        C000000002000000000000000000000000100010010000000000000000000000F0010000009763500220170206000101 00000000000000000000000000000000000000000000000000000000000000000000000000000000000000000000000000000000000000000N 00000000000NCONT   00    00000000000          00000000000000000000000000000000000000000000 000000000000000A000000000000000000000000000000000000000000000 000000000000000000000000000000000000000     00000000                                                                                                                        000000000000000000
F0010000009763500003000090061985600042505000000000000000000201702060002001COMERCIALIZADORA PATRY SAS                        C000000000500000000000000000000000100010010000000000000000000000F0010000009763500320170206000101 00000000000000000000000000000000000000000000000000000000000000000000000000000000000000000000000000000000000000000N 00000000000NCONT   00    00000000000          00000000000000000000000000000000000000000000 000000000000000A000000000000000000000000000000000000000000000 000000000000000000000000000000000000000     00000000                                                                                                                        000000000000000000
F0010000009763500004000090061985600023658300000000000000000201702060002001COMERCIALIZADORA PATRY SAS                        C000000000016000000000000000000000100010010000000000000000000000F0010000009763500420170206000101 00000000000000000000000000000000000000000000000000000000000000000000000000000000000000000000000000000000000000000N 00000000000NCONT   00    00000000000          00000000000000000000000000000000000000000000 000000000000000A000000000000000000000000000000000000000000000 000000000000000000000000000000000000000     00000000                                                                                                                        000000000000000000
F0010000009763500005000090061985600013552100000000000000000201702060002001COMERCIALIZADORA PATRY SAS                        D000000000016000000000000000000000100010010000000000000000000000F0010000009763500520170206000101 00000000000000000000000000000000000000000000000000000000000000000000000000000000000000000000000000000000000000000N 00000000000NCONT   00    00000000000          00000000000000000000000000000000000000000000 000000000000000A000000000000000000000000000000000000000000000 000000000000000000000000000000000000000     00000000                                                                                                                        000000000000000000
F0010000009763600001000080202350700011050500000000000000000201702060002001CONNY DE LA COSTA SAS                             D000000001000000000000000000000000100010010000000000000000000000F0010000009763600120170206000101 00000000000000000000000000000000000000000000000000000000000000000000000000000000000000000000000000000000000000000N 00000000000NCONT   00    00000000000          00000000000000000000000000000000000000000000 000000000000000A000000000000000000000000000000000000000000000 000000000000000000000000000000000000000     00000000                                                                                                                        000000000000000000
F0010000009763600002000080202350700041450500000000000000000201702060002001CONNY DE LA COSTA SAS                             C000000000900000000000000000000000100010010000000000000000000000F0010000009763600220170206000101 00000000000000000000000000000000000000000000000000000000000000000000000000000000000000000000000000000000000000000N 00000000000NCONT   00    00000000000          00000000000000000000000000000000000000000000 000000000000000A000000000000000000000000000000000000000000000 000000000000000000000000000000000000000     00000000                                                                                                                        000000000000000000
F0010000009763600003000080202350700042505000000000000000000201702060002001CONNY DE LA COSTA SAS                             C000000000100000000000000000000000100010010000000000000000000000F0010000009763600320170206000101 00000000000000000000000000000000000000000000000000000000000000000000000000000000000000000000000000000000000000000N 00000000000NCONT   00    00000000000          00000000000000000000000000000000000000000000 000000000000000A000000000000000000000000000000000000000000000 000000000000000000000000000000000000000     00000000                                                                                                                        000000000000000000
F0010000009763600004000080202350700023658300000000000000000201702060002001CONNY DE LA COSTA SAS                             C000000000007200000000000000000000100010010000000000000000000000F0010000009763600420170206000101 00000000000000000000000000000000000000000000000000000000000000000000000000000000000000000000000000000000000000000N 00000000000NCONT   00    00000000000          00000000000000000000000000000000000000000000 000000000000000A000000000000000000000000000000000000000000000 000000000000000000000000000000000000000     00000000                                                                                                                        000000000000000000
F0010000009763600005000080202350700013552100000000000000000201702060002001CONNY DE LA COSTA SAS                             D000000000007200000000000000000000100010010000000000000000000000F0010000009763600520170206000101 00000000000000000000000000000000000000000000000000000000000000000000000000000000000000000000000000000000000000000N 00000000000NCONT   00    00000000000          00000000000000000000000000000000000000000000 000000000000000A000000000000000000000000000000000000000000000 000000000000000000000000000000000000000     00000000                                                                                                                        000000000000000000
F0010000009763700001000001325248300011050500000000000000000201702060002001DISTRIBUIDORA DE LUBRICANTES LA 37                D000000003000000000000000000000000100010010000000000000000000000F0010000009763700120170206000101 00000000000000000000000000000000000000000000000000000000000000000000000000000000000000000000000000000000000000000N 00000000000NCONT   00    00000000000          00000000000000000000000000000000000000000000 000000000000000A000000000000000000000000000000000000000000000 000000000000000000000000000000000000000     00000000                                                                                                                        000000000000000000
F0010000009763700002000001325248300041450500000000000000000201702060002001DISTRIBUIDORA DE LUBRICANTES LA 37                C000000002700000000000000000000000100010010000000000000000000000F0010000009763700220170206000101 00000000000000000000000000000000000000000000000000000000000000000000000000000000000000000000000000000000000000000N 00000000000NCONT   00    00000000000          00000000000000000000000000000000000000000000 000000000000000A000000000000000000000000000000000000000000000 000000000000000000000000000000000000000     00000000                                                                                                                        000000000000000000
F0010000009763700003000001325248300042505000000000000000000201702060002001DISTRIBUIDORA DE LUBRICANTES LA 37                C000000000300000000000000000000000100010010000000000000000000000F0010000009763700320170206000101 00000000000000000000000000000000000000000000000000000000000000000000000000000000000000000000000000000000000000000N 00000000000NCONT   00    00000000000          00000000000000000000000000000000000000000000 000000000000000A000000000000000000000000000000000000000000000 000000000000000000000000000000000000000     00000000                                                                                                                        000000000000000000
F0010000009763700004000001325248300023658300000000000000000201702060002001DISTRIBUIDORA DE LUBRICANTES LA 37                C000000000021600000000000000000000100010010000000000000000000000F0010000009763700420170206000101 00000000000000000000000000000000000000000000000000000000000000000000000000000000000000000000000000000000000000000N 00000000000NCONT   00    00000000000          00000000000000000000000000000000000000000000 000000000000000A000000000000000000000000000000000000000000000 000000000000000000000000000000000000000     00000000                                                                                                                        000000000000000000
F0010000009763700005000001325248300013552100000000000000000201702060002001DISTRIBUIDORA DE LUBRICANTES LA 37                D000000000021600000000000000000000100010010000000000000000000000F0010000009763700520170206000101 00000000000000000000000000000000000000000000000000000000000000000000000000000000000000000000000000000000000000000N 00000000000NCONT   00    00000000000          00000000000000000000000000000000000000000000 000000000000000A000000000000000000000000000000000000000000000 000000000000000000000000000000000000000     00000000                                                                                                                        000000000000000000
F0010000009763800001000000505556200011050500000000000000000201702060002001ANIBAL SEGUNDO VALENCIA RANGEL                    D000000002300000000000000000000000100010010000000000000000000000F0010000009763800120170206000101 00000000000000000000000000000000000000000000000000000000000000000000000000000000000000000000000000000000000000000N 00000000000NCONT   00    00000000000          00000000000000000000000000000000000000000000 000000000000000A000000000000000000000000000000000000000000000 000000000000000000000000000000000000000     00000000                                                                                                                        000000000000000000
F0010000009763800002000000505556200041450500000000000000000201702060002001ANIBAL SEGUNDO VALENCIA RANGEL                    C000000002000000000000000000000000100010010000000000000000000000F0010000009763800220170206000101 00000000000000000000000000000000000000000000000000000000000000000000000000000000000000000000000000000000000000000N 00000000000NCONT   00    00000000000          00000000000000000000000000000000000000000000 000000000000000A000000000000000000000000000000000000000000000 000000000000000000000000000000000000000     00000000                                                                                                                        000000000000000000
F0010000009763800003000000505556200042505000000000000000000201702060002001ANIBAL SEGUNDO VALENCIA RANGEL                    C000000000300000000000000000000000100010010000000000000000000000F0010000009763800320170206000101 00000000000000000000000000000000000000000000000000000000000000000000000000000000000000000000000000000000000000000N 00000000000NCONT   00    00000000000          00000000000000000000000000000000000000000000 000000000000000A000000000000000000000000000000000000000000000 000000000000000000000000000000000000000     00000000                                                                                                                        000000000000000000
F0010000009763800004000000505556200023658300000000000000000201702060002001ANIBAL SEGUNDO VALENCIA RANGEL                    C000000000016000000000000000000000100010010000000000000000000000F0010000009763800420170206000101 00000000000000000000000000000000000000000000000000000000000000000000000000000000000000000000000000000000000000000N 00000000000NCONT   00    00000000000          00000000000000000000000000000000000000000000 000000000000000A000000000000000000000000000000000000000000000 000000000000000000000000000000000000000     00000000                                                                                                                        000000000000000000
F0010000009763800005000000505556200013552100000000000000000201702060002001ANIBAL SEGUNDO VALENCIA RANGEL                    D000000000016000000000000000000000100010010000000000000000000000F0010000009763800520170206000101 00000000000000000000000000000000000000000000000000000000000000000000000000000000000000000000000000000000000000000N 00000000000NCONT   00    00000000000          00000000000000000000000000000000000000000000 000000000000000A000000000000000000000000000000000000000000000 000000000000000000000000000000000000000     00000000                                                                                                                        000000000000000000
F0010000009763900001000001719393900011050500000000000000000201702060002001JAIRO BASTIDAS RAMIREZ                            D000000001500000000000000000000000100010010000000000000000000000F0010000009763900120170206000101 00000000000000000000000000000000000000000000000000000000000000000000000000000000000000000000000000000000000000000N 00000000000NCONT   00    00000000000          00000000000000000000000000000000000000000000 000000000000000A000000000000000000000000000000000000000000000 000000000000000000000000000000000000000     00000000                                                                                                                        000000000000000000
F0010000009763900002000001719393900041450500000000000000000201702060002001JAIRO BASTIDAS RAMIREZ                            C000000001300000000000000000000000100010010000000000000000000000F0010000009763900220170206000101 00000000000000000000000000000000000000000000000000000000000000000000000000000000000000000000000000000000000000000N 00000000000NCONT   00    00000000000          00000000000000000000000000000000000000000000 000000000000000A000000000000000000000000000000000000000000000 000000000000000000000000000000000000000     00000000                                                                                                                        000000000000000000
F0010000009763900003000001719393900042505000000000000000000201702060002001JAIRO BASTIDAS RAMIREZ                            C000000000200000000000000000000000100010010000000000000000000000F0010000009763900320170206000101 00000000000000000000000000000000000000000000000000000000000000000000000000000000000000000000000000000000000000000N 00000000000NCONT   00    00000000000          00000000000000000000000000000000000000000000 000000000000000A000000000000000000000000000000000000000000000 000000000000000000000000000000000000000     00000000                                                                                                                        000000000000000000
F0010000009763900004000001719393900023658300000000000000000201702060002001JAIRO BASTIDAS RAMIREZ                            C000000000010400000000000000000000100010010000000000000000000000F0010000009763900420170206000101 00000000000000000000000000000000000000000000000000000000000000000000000000000000000000000000000000000000000000000N 00000000000NCONT   00    00000000000          00000000000000000000000000000000000000000000 000000000000000A000000000000000000000000000000000000000000000 000000000000000000000000000000000000000     00000000                                                                                                                        000000000000000000
F0010000009763900005000001719393900013552100000000000000000201702060002001JAIRO BASTIDAS RAMIREZ                            D000000000010400000000000000000000100010010000000000000000000000F0010000009763900520170206000101 00000000000000000000000000000000000000000000000000000000000000000000000000000000000000000000000000000000000000000N 00000000000NCONT   00    00000000000          00000000000000000000000000000000000000000000 000000000000000A000000000000000000000000000000000000000000000 000000000000000000000000000000000000000     00000000                                                                                                                        000000000000000000
F0010000009764000001000106498226600011050500000000000000000201702060002001EVA PAULINA GARCIA SANCHEZ                        D000000002200000000000000000000000100010010000000000000000000000F0010000009764000120170206000101 00000000000000000000000000000000000000000000000000000000000000000000000000000000000000000000000000000000000000000N 00000000000NCONT   00    00000000000          00000000000000000000000000000000000000000000 000000000000000A000000000000000000000000000000000000000000000 000000000000000000000000000000000000000     00000000                                                                                                                        000000000000000000
F0010000009764000002000106498226600041450500000000000000000201702060002001EVA PAULINA GARCIA SANCHEZ                        C000000001300000000000000000000000100010010000000000000000000000F0010000009764000220170206000101 00000000000000000000000000000000000000000000000000000000000000000000000000000000000000000000000000000000000000000N 00000000000NCONT   00    00000000000          00000000000000000000000000000000000000000000 000000000000000A000000000000000000000000000000000000000000000 000000000000000000000000000000000000000     00000000                                                                                                                        000000000000000000
F0010000009764000003000106498226600042505000000000000000000201702060002001EVA PAULINA GARCIA SANCHEZ                        C000000000900000000000000000000000100010010000000000000000000000F0010000009764000320170206000101 00000000000000000000000000000000000000000000000000000000000000000000000000000000000000000000000000000000000000000N 00000000000NCONT   00    00000000000          00000000000000000000000000000000000000000000 000000000000000A000000000000000000000000000000000000000000000 000000000000000000000000000000000000000     00000000                                                                                                                        000000000000000000
F0010000009764000004000106498226600023658300000000000000000201702060002001EVA PAULINA GARCIA SANCHEZ                        C000000000010400000000000000000000100010010000000000000000000000F0010000009764000420170206000101 00000000000000000000000000000000000000000000000000000000000000000000000000000000000000000000000000000000000000000N 00000000000NCONT   00    00000000000          00000000000000000000000000000000000000000000 000000000000000A000000000000000000000000000000000000000000000 000000000000000000000000000000000000000     00000000                                                                                                                        000000000000000000
F0010000009764000005000106498226600013552100000000000000000201702060002001EVA PAULINA GARCIA SANCHEZ                        D000000000010400000000000000000000100010010000000000000000000000F0010000009764000520170206000101 00000000000000000000000000000000000000000000000000000000000000000000000000000000000000000000000000000000000000000N 00000000000NCONT   00    00000000000          00000000000000000000000000000000000000000000 000000000000000A000000000000000000000000000000000000000000000 000000000000000000000000000000000000000     00000000                                                                                                                        000000000000000000
F0010000009764100001000090041415100011050500000000000000000201702060002001N.T. SUMINISTROS DEL CARIBE                       D000000009200000000000000000000000100010010000000000000000000000F0010000009764100120170206000101 00000000000000000000000000000000000000000000000000000000000000000000000000000000000000000000000000000000000000000N 00000000000NCONT   00    00000000000          00000000000000000000000000000000000000000000 000000000000000A000000000000000000000000000000000000000000000 000000000000000000000000000000000000000     00000000                                                                                                                        000000000000000000
F0010000009764100002000090041415100041450500000000000000000201702060002001N.T. SUMINISTROS DEL CARIBE                       C000000009000000000000000000000000100010010000000000000000000000F0010000009764100220170206000101 00000000000000000000000000000000000000000000000000000000000000000000000000000000000000000000000000000000000000000N 00000000000NCONT   00    00000000000          00000000000000000000000000000000000000000000 000000000000000A000000000000000000000000000000000000000000000 000000000000000000000000000000000000000     00000000                                                                                                                        000000000000000000
F0010000009764100003000090041415100042505000000000000000000201702060002001N.T. SUMINISTROS DEL CARIBE                       C000000000200000000000000000000000100010010000000000000000000000F0010000009764100320170206000101 00000000000000000000000000000000000000000000000000000000000000000000000000000000000000000000000000000000000000000N 00000000000NCONT   00    00000000000          00000000000000000000000000000000000000000000 000000000000000A000000000000000000000000000000000000000000000 000000000000000000000000000000000000000     00000000                                                                                                                        000000000000000000
F0010000009764100004000090041415100023658300000000000000000201702060002001N.T. SUMINISTROS DEL CARIBE                       C000000000072000000000000000000000100010010000000000000000000000F0010000009764100420170206000101 00000000000000000000000000000000000000000000000000000000000000000000000000000000000000000000000000000000000000000N 00000000000NCONT   00    00000000000          00000000000000000000000000000000000000000000 000000000000000A000000000000000000000000000000000000000000000 000000000000000000000000000000000000000     00000000                                                                                                                        000000000000000000
F0010000009764100005000090041415100013552100000000000000000201702060002001N.T. SUMINISTROS DEL CARIBE                       D000000000072000000000000000000000100010010000000000000000000000F0010000009764100520170206000101 00000000000000000000000000000000000000000000000000000000000000000000000000000000000000000000000000000000000000000N 00000000000NCONT   00    00000000000          00000000000000000000000000000000000000000000 000000000000000A000000000000000000000000000000000000000000000 000000000000000000000000000000000000000     00000000                                                                                                                        000000000000000000
F0010000009764200001000007223972300011050500000000000000000201702060002001LUIS VALENCIA                                     D000000006500000000000000000000000100010010000000000000000000000F0010000009764200120170206000101 00000000000000000000000000000000000000000000000000000000000000000000000000000000000000000000000000000000000000000N 00000000000NCONT   00    00000000000          00000000000000000000000000000000000000000000 000000000000000A000000000000000000000000000000000000000000000 000000000000000000000000000000000000000     00000000                                                                                                                        000000000000000000
F0010000009764200002000007223972300041450500000000000000000201702060002001LUIS VALENCIA                                     C000000006000000000000000000000000100010010000000000000000000000F0010000009764200220170206000101 00000000000000000000000000000000000000000000000000000000000000000000000000000000000000000000000000000000000000000N 00000000000NCONT   00    00000000000          00000000000000000000000000000000000000000000 000000000000000A000000000000000000000000000000000000000000000 000000000000000000000000000000000000000     00000000                                                                                                                        000000000000000000
F0010000009764200003000007223972300042505000000000000000000201702060002001LUIS VALENCIA                                     C000000000500000000000000000000000100010010000000000000000000000F0010000009764200320170206000101 00000000000000000000000000000000000000000000000000000000000000000000000000000000000000000000000000000000000000000N 00000000000NCONT   00    00000000000          00000000000000000000000000000000000000000000 000000000000000A000000000000000000000000000000000000000000000 000000000000000000000000000000000000000     00000000                                                                                                                        000000000000000000
F0010000009764200004000007223972300023658300000000000000000201702060002001LUIS VALENCIA                                     C000000000048000000000000000000000100010010000000000000000000000F0010000009764200420170206000101 00000000000000000000000000000000000000000000000000000000000000000000000000000000000000000000000000000000000000000N 00000000000NCONT   00    00000000000          00000000000000000000000000000000000000000000 000000000000000A000000000000000000000000000000000000000000000 000000000000000000000000000000000000000     00000000                                                                                                                        000000000000000000
F0010000009764200005000007223972300013552100000000000000000201702060002001LUIS VALENCIA                                     D000000000048000000000000000000000100010010000000000000000000000F0010000009764200520170206000101 00000000000000000000000000000000000000000000000000000000000000000000000000000000000000000000000000000000000000000N 00000000000NCONT   00    00000000000          00000000000000000000000000000000000000000000 000000000000000A000000000000000000000000000000000000000000000 000000000000000000000000000000000000000     00000000                                                                                                                        000000000000000000
F0010000009764300001000007200023300011050500000000000000000201702060002001WILLIAM ORTEGA                                    D000000002300000000000000000000000100010010000000000000000000000F0010000009764300120170206000101 00000000000000000000000000000000000000000000000000000000000000000000000000000000000000000000000000000000000000000N 00000000000NCONT   00    00000000000          00000000000000000000000000000000000000000000 000000000000000A000000000000000000000000000000000000000000000 000000000000000000000000000000000000000     00000000                                                                                                                        000000000000000000
F0010000009764300002000007200023300041450500000000000000000201702060002001WILLIAM ORTEGA                                    C000000002000000000000000000000000100010010000000000000000000000F0010000009764300220170206000101 00000000000000000000000000000000000000000000000000000000000000000000000000000000000000000000000000000000000000000N 00000000000NCONT   00    00000000000          00000000000000000000000000000000000000000000 000000000000000A000000000000000000000000000000000000000000000 000000000000000000000000000000000000000     00000000                                                                                                                        000000000000000000
F0010000009764300003000007200023300042505000000000000000000201702060002001WILLIAM ORTEGA                                    C000000000300000000000000000000000100010010000000000000000000000F0010000009764300320170206000101 00000000000000000000000000000000000000000000000000000000000000000000000000000000000000000000000000000000000000000N 00000000000NCONT   00    00000000000          00000000000000000000000000000000000000000000 000000000000000A000000000000000000000000000000000000000000000 000000000000000000000000000000000000000     00000000                                                                                                                        000000000000000000
F0010000009764300004000007200023300023658300000000000000000201702060002001WILLIAM ORTEGA                                    C000000000016000000000000000000000100010010000000000000000000000F0010000009764300420170206000101 00000000000000000000000000000000000000000000000000000000000000000000000000000000000000000000000000000000000000000N 00000000000NCONT   00    00000000000          00000000000000000000000000000000000000000000 000000000000000A000000000000000000000000000000000000000000000 000000000000000000000000000000000000000     00000000                                                                                                                        000000000000000000
F0010000009764300005000007200023300013552100000000000000000201702060002001WILLIAM ORTEGA                                    D000000000016000000000000000000000100010010000000000000000000000F0010000009764300520170206000101 00000000000000000000000000000000000000000000000000000000000000000000000000000000000000000000000000000000000000000N 00000000000NCONT   00    00000000000          00000000000000000000000000000000000000000000 000000000000000A000000000000000000000000000000000000000000000 000000000000000000000000000000000000000     00000000                                                                                                                        000000000000000000
F0010000009764400001000007200023300011050500000000000000000201702060002001WILLIAM ORTEGA                                    D000000002400000000000000000000000100010010000000000000000000000F0010000009764400120170206000101 00000000000000000000000000000000000000000000000000000000000000000000000000000000000000000000000000000000000000000N 00000000000NCONT   00    00000000000          00000000000000000000000000000000000000000000 000000000000000A000000000000000000000000000000000000000000000 000000000000000000000000000000000000000     00000000                                                                                                                        000000000000000000
F0010000009764400002000007200023300041450500000000000000000201702060002001WILLIAM ORTEGA                                    C000000002000000000000000000000000100010010000000000000000000000F0010000009764400220170206000101 00000000000000000000000000000000000000000000000000000000000000000000000000000000000000000000000000000000000000000N 00000000000NCONT   00    00000000000          00000000000000000000000000000000000000000000 000000000000000A000000000000000000000000000000000000000000000 000000000000000000000000000000000000000     00000000                                                                                                                        000000000000000000
F0010000009764400003000007200023300042505000000000000000000201702060002001WILLIAM ORTEGA                                    C000000000400000000000000000000000100010010000000000000000000000F0010000009764400320170206000101 00000000000000000000000000000000000000000000000000000000000000000000000000000000000000000000000000000000000000000N 00000000000NCONT   00    00000000000          00000000000000000000000000000000000000000000 000000000000000A000000000000000000000000000000000000000000000 000000000000000000000000000000000000000     00000000                                                                                                                        000000000000000000
F0010000009764400004000007200023300023658300000000000000000201702060002001WILLIAM ORTEGA                                    C000000000016000000000000000000000100010010000000000000000000000F0010000009764400420170206000101 00000000000000000000000000000000000000000000000000000000000000000000000000000000000000000000000000000000000000000N 00000000000NCONT   00    00000000000          00000000000000000000000000000000000000000000 000000000000000A000000000000000000000000000000000000000000000 000000000000000000000000000000000000000     00000000                                                                                                                        000000000000000000
F0010000009764400005000007200023300013552100000000000000000201702060002001WILLIAM ORTEGA                                    D000000000016000000000000000000000100010010000000000000000000000F0010000009764400520170206000101 00000000000000000000000000000000000000000000000000000000000000000000000000000000000000000000000000000000000000000N 00000000000NCONT   00    00000000000          00000000000000000000000000000000000000000000 000000000000000A000000000000000000000000000000000000000000000 000000000000000000000000000000000000000     00000000                                                                                                                        000000000000000000
F0010000009764500001000089031248700011050500000000000000000201702060002001DISTRIBUIDORA CALIPLASTICOS LTDA                  D000000001695000000000000000000000100010010000000000000000000000F0010000009764500120170206000101 00000000000000000000000000000000000000000000000000000000000000000000000000000000000000000000000000000000000000000N 00000000000NCONT   00    00000000000          00000000000000000000000000000000000000000000 000000000000000A000000000000000000000000000000000000000000000 000000000000000000000000000000000000000     00000000                                                                                                                        000000000000000000
F0010000009764500002000089031248700041450500000000000000000201702060002001DISTRIBUIDORA CALIPLASTICOS LTDA                  C000000001620000000000000000000000100010010000000000000000000000F0010000009764500220170206000101 00000000000000000000000000000000000000000000000000000000000000000000000000000000000000000000000000000000000000000N 00000000000NCONT   00    00000000000          00000000000000000000000000000000000000000000 000000000000000A000000000000000000000000000000000000000000000 000000000000000000000000000000000000000     00000000                                                                                                                        000000000000000000
F0010000009764500003000089031248700042505000000000000000000201702060002001DISTRIBUIDORA CALIPLASTICOS LTDA                  C000000000075000000000000000000000100010010000000000000000000000F0010000009764500320170206000101 00000000000000000000000000000000000000000000000000000000000000000000000000000000000000000000000000000000000000000N 00000000000NCONT   00    00000000000          00000000000000000000000000000000000000000000 000000000000000A000000000000000000000000000000000000000000000 000000000000000000000000000000000000000     00000000                                                                                                                        000000000000000000
F0010000009764500004000089031248700023658300000000000000000201702060002001DISTRIBUIDORA CALIPLASTICOS LTDA                  C000000000013000000000000000000000100010010000000000000000000000F0010000009764500420170206000101 00000000000000000000000000000000000000000000000000000000000000000000000000000000000000000000000000000000000000000N 00000000000NCONT   00    00000000000          00000000000000000000000000000000000000000000 000000000000000A000000000000000000000000000000000000000000000 000000000000000000000000000000000000000     00000000                                                                                                                        000000000000000000
F0010000009764500005000089031248700013552100000000000000000201702060002001DISTRIBUIDORA CALIPLASTICOS LTDA                  D000000000013000000000000000000000100010010000000000000000000000F0010000009764500520170206000101 00000000000000000000000000000000000000000000000000000000000000000000000000000000000000000000000000000000000000000N 00000000000NCONT   00    00000000000          00000000000000000000000000000000000000000000 000000000000000A000000000000000000000000000000000000000000000 000000000000000000000000000000000000000     00000000                                                                                                                        000000000000000000
F0010000009764600001000089031248700011050500000000000000000201702060002001DISTRIBUIDORA CALIPLASTICOS LTDA                  D000000001695000000000000000000000100010010000000000000000000000F0010000009764600120170206000101 00000000000000000000000000000000000000000000000000000000000000000000000000000000000000000000000000000000000000000N 00000000000NCONT   00    00000000000          00000000000000000000000000000000000000000000 000000000000000A000000000000000000000000000000000000000000000 000000000000000000000000000000000000000     00000000                                                                                                                        000000000000000000
F0010000009764600002000089031248700041450500000000000000000201702060002001DISTRIBUIDORA CALIPLASTICOS LTDA                  C000000001620000000000000000000000100010010000000000000000000000F0010000009764600220170206000101 00000000000000000000000000000000000000000000000000000000000000000000000000000000000000000000000000000000000000000N 00000000000NCONT   00    00000000000          00000000000000000000000000000000000000000000 000000000000000A000000000000000000000000000000000000000000000 000000000000000000000000000000000000000     00000000                                                                                                                        000000000000000000
F0010000009764600003000089031248700042505000000000000000000201702060002001DISTRIBUIDORA CALIPLASTICOS LTDA                  C000000000075000000000000000000000100010010000000000000000000000F0010000009764600320170206000101 00000000000000000000000000000000000000000000000000000000000000000000000000000000000000000000000000000000000000000N 00000000000NCONT   00    00000000000          00000000000000000000000000000000000000000000 000000000000000A000000000000000000000000000000000000000000000 000000000000000000000000000000000000000     00000000                                                                                                                        000000000000000000
F0010000009764600004000089031248700023658300000000000000000201702060002001DISTRIBUIDORA CALIPLASTICOS LTDA                  C000000000013000000000000000000000100010010000000000000000000000F0010000009764600420170206000101 00000000000000000000000000000000000000000000000000000000000000000000000000000000000000000000000000000000000000000N 00000000000NCONT   00    00000000000          00000000000000000000000000000000000000000000 000000000000000A000000000000000000000000000000000000000000000 000000000000000000000000000000000000000     00000000                                                                                                                        000000000000000000
F0010000009764600005000089031248700013552100000000000000000201702060002001DISTRIBUIDORA CALIPLASTICOS LTDA                  D000000000013000000000000000000000100010010000000000000000000000F0010000009764600520170206000101 00000000000000000000000000000000000000000000000000000000000000000000000000000000000000000000000000000000000000000N 00000000000NCONT   00    00000000000          00000000000000000000000000000000000000000000 000000000000000A000000000000000000000000000000000000000000000 000000000000000000000000000000000000000     00000000                                                                                                                        000000000000000000
F0010000009764700001000089011078600011050500000000000000000201702060002001DIST. NUEVO MUNDO S.A.S.                          D000000002915000000000000000000000100010010000000000000000000000F0010000009764700120170206000101 00000000000000000000000000000000000000000000000000000000000000000000000000000000000000000000000000000000000000000N 00000000000NCONT   00    00000000000          00000000000000000000000000000000000000000000 000000000000000A000000000000000000000000000000000000000000000 000000000000000000000000000000000000000     00000000                                                                                                                        000000000000000000
F0010000009764700002000089011078600041450500000000000000000201702060002001DIST. NUEVO MUNDO S.A.S.                          C000000002340000000000000000000000100010010000000000000000000000F0010000009764700220170206000101 00000000000000000000000000000000000000000000000000000000000000000000000000000000000000000000000000000000000000000N 00000000000NCONT   00    00000000000          00000000000000000000000000000000000000000000 000000000000000A000000000000000000000000000000000000000000000 000000000000000000000000000000000000000     00000000                                                                                                                        000000000000000000
F0010000009764700003000089011078600042505000000000000000000201702060002001DIST. NUEVO MUNDO S.A.S.                          C000000000575000000000000000000000100010010000000000000000000000F0010000009764700320170206000101 00000000000000000000000000000000000000000000000000000000000000000000000000000000000000000000000000000000000000000N 00000000000NCONT   00    00000000000          00000000000000000000000000000000000000000000 000000000000000A000000000000000000000000000000000000000000000 000000000000000000000000000000000000000     00000000                                                                                                                        000000000000000000
F0010000009764700004000089011078600023658300000000000000000201702060002001DIST. NUEVO MUNDO S.A.S.                          C000000000018700000000000000000000100010010000000000000000000000F0010000009764700420170206000101 00000000000000000000000000000000000000000000000000000000000000000000000000000000000000000000000000000000000000000N 00000000000NCONT   00    00000000000          00000000000000000000000000000000000000000000 000000000000000A000000000000000000000000000000000000000000000 000000000000000000000000000000000000000     00000000                                                                                                                        000000000000000000
F0010000009764700005000089011078600013552100000000000000000201702060002001DIST. NUEVO MUNDO S.A.S.                          D000000000018700000000000000000000100010010000000000000000000000F0010000009764700520170206000101 00000000000000000000000000000000000000000000000000000000000000000000000000000000000000000000000000000000000000000N 00000000000NCONT   00    00000000000          00000000000000000000000000000000000000000000 000000000000000A000000000000000000000000000000000000000000000 000000000000000000000000000000000000000     00000000                                                                                                                        000000000000000000
F0010000009764800001000090007142100011050500000000000000000201702060002001TODO BELLEZA Y MAX S.A.S                          D000000006790000000000000000000000100010010000000000000000000000F0010000009764800120170206000101 00000000000000000000000000000000000000000000000000000000000000000000000000000000000000000000000000000000000000000N 00000000000NCONT   00    00000000000          00000000000000000000000000000000000000000000 000000000000000A000000000000000000000000000000000000000000000 000000000000000000000000000000000000000     00000000                                                                                                                        000000000000000000
F0010000009764800002000090007142100041450500000000000000000201702060002001TODO BELLEZA Y MAX S.A.S                          C000000006640000000000000000000000100010010000000000000000000000F0010000009764800220170206000101 00000000000000000000000000000000000000000000000000000000000000000000000000000000000000000000000000000000000000000N 00000000000NCONT   00    00000000000          00000000000000000000000000000000000000000000 000000000000000A000000000000000000000000000000000000000000000 000000000000000000000000000000000000000     00000000                                                                                                                        000000000000000000
F0010000009764800003000090007142100042505000000000000000000201702060002001TODO BELLEZA Y MAX S.A.S                          C000000000150000000000000000000000100010010000000000000000000000F0010000009764800320170206000101 00000000000000000000000000000000000000000000000000000000000000000000000000000000000000000000000000000000000000000N 00000000000NCONT   00    00000000000          00000000000000000000000000000000000000000000 000000000000000A000000000000000000000000000000000000000000000 000000000000000000000000000000000000000     00000000                                                                                                                        000000000000000000
F0010000009764800004000090007142100023658300000000000000000201702060002001TODO BELLEZA Y MAX S.A.S                          C000000000053100000000000000000000100010010000000000000000000000F0010000009764800420170206000101 00000000000000000000000000000000000000000000000000000000000000000000000000000000000000000000000000000000000000000N 00000000000NCONT   00    00000000000          00000000000000000000000000000000000000000000 000000000000000A000000000000000000000000000000000000000000000 000000000000000000000000000000000000000     00000000                                                                                                                        000000000000000000
F0010000009764800005000090007142100013552100000000000000000201702060002001TODO BELLEZA Y MAX S.A.S                          D000000000053100000000000000000000100010010000000000000000000000F0010000009764800520170206000101 00000000000000000000000000000000000000000000000000000000000000000000000000000000000000000000000000000000000000000N 00000000000NCONT   00    00000000000          00000000000000000000000000000000000000000000 000000000000000A000000000000000000000000000000000000000000000 000000000000000000000000000000000000000     00000000                                                                                                                        000000000000000000
F0010000009764900001000090007142100011050500000000000000000201702060002001TODO BELLEZA Y MAX S.A.S                          D000000006700000000000000000000000100010010000000000000000000000F0010000009764900120170206000101 00000000000000000000000000000000000000000000000000000000000000000000000000000000000000000000000000000000000000000N 00000000000NCONT   00    00000000000          00000000000000000000000000000000000000000000 000000000000000A000000000000000000000000000000000000000000000 000000000000000000000000000000000000000     00000000                                                                                                                        000000000000000000
F0010000009764900002000090007142100041450500000000000000000201702060002001TODO BELLEZA Y MAX S.A.S                          C000000006600000000000000000000000100010010000000000000000000000F0010000009764900220170206000101 00000000000000000000000000000000000000000000000000000000000000000000000000000000000000000000000000000000000000000N 00000000000NCONT   00    00000000000          00000000000000000000000000000000000000000000 000000000000000A000000000000000000000000000000000000000000000 000000000000000000000000000000000000000     00000000                                                                                                                        000000000000000000
F0010000009764900003000090007142100042505000000000000000000201702060002001TODO BELLEZA Y MAX S.A.S                          C000000000100000000000000000000000100010010000000000000000000000F0010000009764900320170206000101 00000000000000000000000000000000000000000000000000000000000000000000000000000000000000000000000000000000000000000N 00000000000NCONT   00    00000000000          00000000000000000000000000000000000000000000 000000000000000A000000000000000000000000000000000000000000000 000000000000000000000000000000000000000     00000000                                                                                                                        000000000000000000
F0010000009764900004000090007142100023658300000000000000000201702060002001TODO BELLEZA Y MAX S.A.S                          C000000000052800000000000000000000100010010000000000000000000000F0010000009764900420170206000101 00000000000000000000000000000000000000000000000000000000000000000000000000000000000000000000000000000000000000000N 00000000000NCONT   00    00000000000          00000000000000000000000000000000000000000000 000000000000000A000000000000000000000000000000000000000000000 000000000000000000000000000000000000000     00000000                                                                                                                        000000000000000000
F0010000009764900005000090007142100013552100000000000000000201702060002001TODO BELLEZA Y MAX S.A.S                          D000000000052800000000000000000000100010010000000000000000000000F0010000009764900520170206000101 00000000000000000000000000000000000000000000000000000000000000000000000000000000000000000000000000000000000000000N 00000000000NCONT   00    00000000000          00000000000000000000000000000000000000000000 000000000000000A000000000000000000000000000000000000000000000 000000000000000000000000000000000000000     00000000                                                                                                                        000000000000000000
F0010000009765000001000004175790100011050500000000000000000201702060002001ROSIRIS FERIA HOYOS  (COSM. SHILLER)              D000000001000000000000000000000000100010010000000000000000000000F0010000009765000120170206000101 00000000000000000000000000000000000000000000000000000000000000000000000000000000000000000000000000000000000000000N 00000000000NCONT   00    00000000000          00000000000000000000000000000000000000000000 000000000000000A000000000000000000000000000000000000000000000 000000000000000000000000000000000000000     00000000                                                                                                                        000000000000000000
F0010000009765000002000004175790100041450500000000000000000201702060002001ROSIRIS FERIA HOYOS  (COSM. SHILLER)              C000000000900000000000000000000000100010010000000000000000000000F0010000009765000220170206000101 00000000000000000000000000000000000000000000000000000000000000000000000000000000000000000000000000000000000000000N 00000000000NCONT   00    00000000000          00000000000000000000000000000000000000000000 000000000000000A000000000000000000000000000000000000000000000 000000000000000000000000000000000000000     00000000                                                                                                                        000000000000000000
F0010000009765000003000004175790100042505000000000000000000201702060002001ROSIRIS FERIA HOYOS  (COSM. SHILLER)              C000000000100000000000000000000000100010010000000000000000000000F0010000009765000320170206000101 00000000000000000000000000000000000000000000000000000000000000000000000000000000000000000000000000000000000000000N 00000000000NCONT   00    00000000000          00000000000000000000000000000000000000000000 000000000000000A000000000000000000000000000000000000000000000 000000000000000000000000000000000000000     00000000                                                                                                                        000000000000000000
F0010000009765000004000004175790100023658300000000000000000201702060002001ROSIRIS FERIA HOYOS  (COSM. SHILLER)              C000000000007200000000000000000000100010010000000000000000000000F0010000009765000420170206000101 00000000000000000000000000000000000000000000000000000000000000000000000000000000000000000000000000000000000000000N 00000000000NCONT   00    00000000000          00000000000000000000000000000000000000000000 000000000000000A000000000000000000000000000000000000000000000 000000000000000000000000000000000000000     00000000                                                                                                                        000000000000000000
F0010000009765000005000004175790100013552100000000000000000201702060002001ROSIRIS FERIA HOYOS  (COSM. SHILLER)              D000000000007200000000000000000000100010010000000000000000000000F0010000009765000520170206000101 00000000000000000000000000000000000000000000000000000000000000000000000000000000000000000000000000000000000000000N 00000000000NCONT   00    00000000000          00000000000000000000000000000000000000000000 000000000000000A000000000000000000000000000000000000000000000 000000000000000000000000000000000000000     00000000                                                                                                                        000000000000000000
F0010000009765100001000000431178400011050500000000000000000201702060002001EFRAIN ALVAREZ                                    D000000002640000000000000000000000100010010000000000000000000000F0010000009765100120170206000101 00000000000000000000000000000000000000000000000000000000000000000000000000000000000000000000000000000000000000000N 00000000000NCONT   00    00000000000          00000000000000000000000000000000000000000000 000000000000000A000000000000000000000000000000000000000000000 000000000000000000000000000000000000000     00000000                                                                                                                        000000000000000000
F0010000009765100002000000431178400041450500000000000000000201702060002001EFRAIN ALVAREZ                                    C000000002540000000000000000000000100010010000000000000000000000F0010000009765100220170206000101 00000000000000000000000000000000000000000000000000000000000000000000000000000000000000000000000000000000000000000N 00000000000NCONT   00    00000000000          00000000000000000000000000000000000000000000 000000000000000A000000000000000000000000000000000000000000000 000000000000000000000000000000000000000     00000000                                                                                                                        000000000000000000
F0010000009765100003000000431178400042505000000000000000000201702060002001EFRAIN ALVAREZ                                    C000000000100000000000000000000000100010010000000000000000000000F0010000009765100320170206000101 00000000000000000000000000000000000000000000000000000000000000000000000000000000000000000000000000000000000000000N 00000000000NCONT   00    00000000000          00000000000000000000000000000000000000000000 000000000000000A000000000000000000000000000000000000000000000 000000000000000000000000000000000000000     00000000                                                                                                                        000000000000000000
F0010000009765100004000000431178400023658300000000000000000201702060002001EFRAIN ALVAREZ                                    C000000000020300000000000000000000100010010000000000000000000000F0010000009765100420170206000101 00000000000000000000000000000000000000000000000000000000000000000000000000000000000000000000000000000000000000000N 00000000000NCONT   00    00000000000          00000000000000000000000000000000000000000000 000000000000000A000000000000000000000000000000000000000000000 000000000000000000000000000000000000000     00000000                                                                                                                        000000000000000000
F0010000009765100005000000431178400013552100000000000000000201702060002001EFRAIN ALVAREZ                                    D000000000020300000000000000000000100010010000000000000000000000F0010000009765100520170206000101 00000000000000000000000000000000000000000000000000000000000000000000000000000000000000000000000000000000000000000N 00000000000NCONT   00    00000000000          00000000000000000000000000000000000000000000 000000000000000A000000000000000000000000000000000000000000000 000000000000000000000000000000000000000     00000000                                                                                                                        000000000000000000
F0010000009765200001000001022529300011050500000000000000000201702060002001ALBERTO ALVAREZ ISAZA                             D000000003520000000000000000000000100010010000000000000000000000F0010000009765200120170206000101 00000000000000000000000000000000000000000000000000000000000000000000000000000000000000000000000000000000000000000N 00000000000NCONT   00    00000000000          00000000000000000000000000000000000000000000 000000000000000A000000000000000000000000000000000000000000000 000000000000000000000000000000000000000     00000000                                                                                                                        000000000000000000
F0010000009765200002000001022529300041450500000000000000000201702060002001ALBERTO ALVAREZ ISAZA                             C000000003520000000000000000000000100010010000000000000000000000F0010000009765200220170206000101 00000000000000000000000000000000000000000000000000000000000000000000000000000000000000000000000000000000000000000N 00000000000NCONT   00    00000000000          00000000000000000000000000000000000000000000 000000000000000A000000000000000000000000000000000000000000000 000000000000000000000000000000000000000     00000000                                                                                                                        000000000000000000
F0010000009765200003000001022529300042505000000000000000000201702060002001ALBERTO ALVAREZ ISAZA                             C000000000000000000000000000000000100010010000000000000000000000F0010000009765200320170206000101 00000000000000000000000000000000000000000000000000000000000000000000000000000000000000000000000000000000000000000N 00000000000NCONT   00    00000000000          00000000000000000000000000000000000000000000 000000000000000A000000000000000000000000000000000000000000000 000000000000000000000000000000000000000     00000000                                                                                                                        000000000000000000
F0010000009765200004000001022529300023658300000000000000000201702060002001ALBERTO ALVAREZ ISAZA                             C000000000028200000000000000000000100010010000000000000000000000F0010000009765200420170206000101 00000000000000000000000000000000000000000000000000000000000000000000000000000000000000000000000000000000000000000N 00000000000NCONT   00    00000000000          00000000000000000000000000000000000000000000 000000000000000A000000000000000000000000000000000000000000000 000000000000000000000000000000000000000     00000000                                                                                                                        000000000000000000
F0010000009765200005000001022529300013552100000000000000000201702060002001ALBERTO ALVAREZ ISAZA                             D000000000028200000000000000000000100010010000000000000000000000F0010000009765200520170206000101 00000000000000000000000000000000000000000000000000000000000000000000000000000000000000000000000000000000000000000N 00000000000NCONT   00    00000000000          00000000000000000000000000000000000000000000 000000000000000A000000000000000000000000000000000000000000000 000000000000000000000000000000000000000     00000000                                                                                                                        000000000000000000
F0010000009765300001000001022529300011050500000000000000000201702060002001ALBERTO ALVAREZ ISAZA                             D000000004157000000000000000000000100010010000000000000000000000F0010000009765300120170206000101 00000000000000000000000000000000000000000000000000000000000000000000000000000000000000000000000000000000000000000N 00000000000NCONT   00    00000000000          00000000000000000000000000000000000000000000 000000000000000A000000000000000000000000000000000000000000000 000000000000000000000000000000000000000     00000000                                                                                                                        000000000000000000
F0010000009765300002000001022529300041450500000000000000000201702060002001ALBERTO ALVAREZ ISAZA                             C000000003860000000000000000000000100010010000000000000000000000F0010000009765300220170206000101 00000000000000000000000000000000000000000000000000000000000000000000000000000000000000000000000000000000000000000N 00000000000NCONT   00    00000000000          00000000000000000000000000000000000000000000 000000000000000A000000000000000000000000000000000000000000000 000000000000000000000000000000000000000     00000000                                                                                                                        000000000000000000
