F0010000010747700001000090059638100011050500000000000000000201712010002001CACHARRERIA MAGANGUE                              D000000006700000000000000000000000100010010000000000000000000000F0010000010747700120171201000101 00000000000000000000000000000000000000000000000000000000000000000000000000000000000000000000000000000000000000000N 00000000000NCONT   00    00000000000          00000000000000000000000000000000000000000000 000000000000000A000000000000000000000000000000000000000000000 000000000000000000000000000000000000000     00000000                                                                                                                        000000000000000000
F0010000010747700002000090059638100041450500000000000000000201712010002001CACHARRERIA MAGANGUE                              C000000006050000000000000000000000100010010000000000000000000000F0010000010747700220171201000101 00000000000000000000000000000000000000000000000000000000000000000000000000000000000000000000000000000000000000000N 00000000000NCONT   00    00000000000          00000000000000000000000000000000000000000000 000000000000000A000000000000000000000000000000000000000000000 000000000000000000000000000000000000000     00000000                                                                                                                        000000000000000000
F0010000010747700003000090059638100042505000000000000000000201712010002001CACHARRERIA MAGANGUE                              C000000000650000000000000000000000100010010000000000000000000000F0010000010747700320171201000101 00000000000000000000000000000000000000000000000000000000000000000000000000000000000000000000000000000000000000000N 00000000000NCONT   00    00000000000          00000000000000000000000000000000000000000000 000000000000000A000000000000000000000000000000000000000000000 000000000000000000000000000000000000000     00000000                                                                                                                        000000000000000000
F0010000010747700004000090059638100023658300000000000000000201712010002001CACHARRERIA MAGANGUE                              C000000000000000000000000000000000100010010000000000000000000000F0010000010747700420171201000101 00000000000000000000000000000000000000000000000000000000000000000000000000000000000000000000000000000000000000000N 00000000000NCONT   00    00000000000          00000000000000000000000000000000000000000000 000000000000000A000000000000000000000000000000000000000000000 000000000000000000000000000000000000000     00000000                                                                                                                        000000000000000000
F0010000010747700005000090059638100013552100000000000000000201712010002001CACHARRERIA MAGANGUE                              D000000000000000000000000000000000100010010000000000000000000000F0010000010747700520171201000101 00000000000000000000000000000000000000000000000000000000000000000000000000000000000000000000000000000000000000000N 00000000000NCONT   00    00000000000          00000000000000000000000000000000000000000000 000000000000000A000000000000000000000000000000000000000000000 000000000000000000000000000000000000000     00000000                                                                                                                        000000000000000000
F0010000010747800001000007220583300011050500000000000000000201712010002001ROGER MIGUEL ARZUZA MONTES                        D000000001400000000000000000000000100010010000000000000000000000F0010000010747800120171201000101 00000000000000000000000000000000000000000000000000000000000000000000000000000000000000000000000000000000000000000N 00000000000NCONT   00    00000000000          00000000000000000000000000000000000000000000 000000000000000A000000000000000000000000000000000000000000000 000000000000000000000000000000000000000     00000000                                                                                                                        000000000000000000
F0010000010747800002000007220583300041450500000000000000000201712010002001ROGER MIGUEL ARZUZA MONTES                        C000000001300000000000000000000000100010010000000000000000000000F0010000010747800220171201000101 00000000000000000000000000000000000000000000000000000000000000000000000000000000000000000000000000000000000000000N 00000000000NCONT   00    00000000000          00000000000000000000000000000000000000000000 000000000000000A000000000000000000000000000000000000000000000 000000000000000000000000000000000000000     00000000                                                                                                                        000000000000000000
F0010000010747800003000007220583300042505000000000000000000201712010002001ROGER MIGUEL ARZUZA MONTES                        C000000000100000000000000000000000100010010000000000000000000000F0010000010747800320171201000101 00000000000000000000000000000000000000000000000000000000000000000000000000000000000000000000000000000000000000000N 00000000000NCONT   00    00000000000          00000000000000000000000000000000000000000000 000000000000000A000000000000000000000000000000000000000000000 000000000000000000000000000000000000000     00000000                                                                                                                        000000000000000000
F0010000010747800004000007220583300023658300000000000000000201712010002001ROGER MIGUEL ARZUZA MONTES                        C000000000000000000000000000000000100010010000000000000000000000F0010000010747800420171201000101 00000000000000000000000000000000000000000000000000000000000000000000000000000000000000000000000000000000000000000N 00000000000NCONT   00    00000000000          00000000000000000000000000000000000000000000 000000000000000A000000000000000000000000000000000000000000000 000000000000000000000000000000000000000     00000000                                                                                                                        000000000000000000
F0010000010747800005000007220583300013552100000000000000000201712010002001ROGER MIGUEL ARZUZA MONTES                        D000000000000000000000000000000000100010010000000000000000000000F0010000010747800520171201000101 00000000000000000000000000000000000000000000000000000000000000000000000000000000000000000000000000000000000000000N 00000000000NCONT   00    00000000000          00000000000000000000000000000000000000000000 000000000000000A000000000000000000000000000000000000000000000 000000000000000000000000000000000000000     00000000                                                                                                                        000000000000000000
F0010000010747900001000001336424200011050500000000000000000201712010002001ARMANDO LOPEZ                                     D000000006000000000000000000000000100010010000000000000000000000F0010000010747900120171201000101 00000000000000000000000000000000000000000000000000000000000000000000000000000000000000000000000000000000000000000N 00000000000NCONT   00    00000000000          00000000000000000000000000000000000000000000 000000000000000A000000000000000000000000000000000000000000000 000000000000000000000000000000000000000     00000000                                                                                                                        000000000000000000
F0010000010747900002000001336424200041450500000000000000000201712010002001ARMANDO LOPEZ                                     C000000005500000000000000000000000100010010000000000000000000000F0010000010747900220171201000101 00000000000000000000000000000000000000000000000000000000000000000000000000000000000000000000000000000000000000000N 00000000000NCONT   00    00000000000          00000000000000000000000000000000000000000000 000000000000000A000000000000000000000000000000000000000000000 000000000000000000000000000000000000000     00000000                                                                                                                        000000000000000000
F0010000010747900003000001336424200042505000000000000000000201712010002001ARMANDO LOPEZ                                     C000000000500000000000000000000000100010010000000000000000000000F0010000010747900320171201000101 00000000000000000000000000000000000000000000000000000000000000000000000000000000000000000000000000000000000000000N 00000000000NCONT   00    00000000000          00000000000000000000000000000000000000000000 000000000000000A000000000000000000000000000000000000000000000 000000000000000000000000000000000000000     00000000                                                                                                                        000000000000000000
F0010000010747900004000001336424200023658300000000000000000201712010002001ARMANDO LOPEZ                                     C000000000000000000000000000000000100010010000000000000000000000F0010000010747900420171201000101 00000000000000000000000000000000000000000000000000000000000000000000000000000000000000000000000000000000000000000N 00000000000NCONT   00    00000000000          00000000000000000000000000000000000000000000 000000000000000A000000000000000000000000000000000000000000000 000000000000000000000000000000000000000     00000000                                                                                                                        000000000000000000
F0010000010747900005000001336424200013552100000000000000000201712010002001ARMANDO LOPEZ                                     D000000000000000000000000000000000100010010000000000000000000000F0010000010747900520171201000101 00000000000000000000000000000000000000000000000000000000000000000000000000000000000000000000000000000000000000000N 00000000000NCONT   00    00000000000          00000000000000000000000000000000000000000000 000000000000000A000000000000000000000000000000000000000000000 000000000000000000000000000000000000000     00000000                                                                                                                        000000000000000000
F0010000010748000001000080200250700013050500000000000000000201712010002001ETICOL SAS                                        D000000015100000000000000000000000100010010000000000000000000000F0010000010748000120171201000101 00000000000000000000000000000000000000000000000000000000000000000000000000000000000000000000000000000000000000000N 00000000000NCONT   00    00000000000          00000000000000000000000000000000000000000000 000000000000000A000000000000000000000000000000000000000000000 000000000000000000000000000000000000000     00000000                                                                                                                        000000000000000000
F0010000010748000002000080200250700041450500000000000000000201712010002001ETICOL SAS                                        C000000013800000000000000000000000100010010000000000000000000000F0010000010748000220171201000101 00000000000000000000000000000000000000000000000000000000000000000000000000000000000000000000000000000000000000000N 00000000000NCONT   00    00000000000          00000000000000000000000000000000000000000000 000000000000000A000000000000000000000000000000000000000000000 000000000000000000000000000000000000000     00000000                                                                                                                        000000000000000000
F0010000010748000003000080200250700042505000000000000000000201712010002001ETICOL SAS                                        C000000001300000000000000000000000100010010000000000000000000000F0010000010748000320171201000101 00000000000000000000000000000000000000000000000000000000000000000000000000000000000000000000000000000000000000000N 00000000000NCONT   00    00000000000          00000000000000000000000000000000000000000000 000000000000000A000000000000000000000000000000000000000000000 000000000000000000000000000000000000000     00000000                                                                                                                        000000000000000000
F0010000010748000004000080200250700023658300000000000000000201712010002001ETICOL SAS                                        C000000000000000000000000000000000100010010000000000000000000000F0010000010748000420171201000101 00000000000000000000000000000000000000000000000000000000000000000000000000000000000000000000000000000000000000000N 00000000000NCONT   00    00000000000          00000000000000000000000000000000000000000000 000000000000000A000000000000000000000000000000000000000000000 000000000000000000000000000000000000000     00000000                                                                                                                        000000000000000000
F0010000010748000005000080200250700013552100000000000000000201712010002001ETICOL SAS                                        D000000000000000000000000000000000100010010000000000000000000000F0010000010748000520171201000101 00000000000000000000000000000000000000000000000000000000000000000000000000000000000000000000000000000000000000000N 00000000000NCONT   00    00000000000          00000000000000000000000000000000000000000000 000000000000000A000000000000000000000000000000000000000000000 000000000000000000000000000000000000000     00000000                                                                                                                        000000000000000000
F0010000010748100001000090070305900013050500000000000000000201712010002001CONSTRUCCIONES Y ASOCIADOS DE LA COSTA            D000000054560000000000000000000000100010010000000000000000000000F0010000010748100120171201000101 00000000000000000000000000000000000000000000000000000000000000000000000000000000000000000000000000000000000000000N 00000000000NCONT   00    00000000000          00000000000000000000000000000000000000000000 000000000000000A000000000000000000000000000000000000000000000 000000000000000000000000000000000000000     00000000                                                                                                                        000000000000000000
F0010000010748100002000090070305900041450500000000000000000201712010002001CONSTRUCCIONES Y ASOCIADOS DE LA COSTA            C000000053760000000000000000000000100010010000000000000000000000F0010000010748100220171201000101 00000000000000000000000000000000000000000000000000000000000000000000000000000000000000000000000000000000000000000N 00000000000NCONT   00    00000000000          00000000000000000000000000000000000000000000 000000000000000A000000000000000000000000000000000000000000000 000000000000000000000000000000000000000     00000000                                                                                                                        000000000000000000
F0010000010748100003000090070305900042505000000000000000000201712010002001CONSTRUCCIONES Y ASOCIADOS DE LA COSTA            C000000000800000000000000000000000100010010000000000000000000000F0010000010748100320171201000101 00000000000000000000000000000000000000000000000000000000000000000000000000000000000000000000000000000000000000000N 00000000000NCONT   00    00000000000          00000000000000000000000000000000000000000000 000000000000000A000000000000000000000000000000000000000000000 000000000000000000000000000000000000000     00000000                                                                                                                        000000000000000000
F0010000010748100004000090070305900023658300000000000000000201712010002001CONSTRUCCIONES Y ASOCIADOS DE LA COSTA            C000000000000000000000000000000000100010010000000000000000000000F0010000010748100420171201000101 00000000000000000000000000000000000000000000000000000000000000000000000000000000000000000000000000000000000000000N 00000000000NCONT   00    00000000000          00000000000000000000000000000000000000000000 000000000000000A000000000000000000000000000000000000000000000 000000000000000000000000000000000000000     00000000                                                                                                                        000000000000000000
F0010000010748100005000090070305900013552100000000000000000201712010002001CONSTRUCCIONES Y ASOCIADOS DE LA COSTA            D000000000000000000000000000000000100010010000000000000000000000F0010000010748100520171201000101 00000000000000000000000000000000000000000000000000000000000000000000000000000000000000000000000000000000000000000N 00000000000NCONT   00    00000000000          00000000000000000000000000000000000000000000 000000000000000A000000000000000000000000000000000000000000000 000000000000000000000000000000000000000     00000000                                                                                                                        000000000000000000
F0010000010748200001000090009800500013050500000000000000000201712010002001GLORIANT CHEMICHALS DE COLOMBIA LTDA              D000000014840000000000000000000000100010010000000000000000000000F0010000010748200120171201000101 00000000000000000000000000000000000000000000000000000000000000000000000000000000000000000000000000000000000000000N 00000000000NCONT   00    00000000000          00000000000000000000000000000000000000000000 000000000000000A000000000000000000000000000000000000000000000 000000000000000000000000000000000000000     00000000                                                                                                                        000000000000000000
F0010000010748200002000090009800500041450500000000000000000201712010002001GLORIANT CHEMICHALS DE COLOMBIA LTDA              C000000014080000000000000000000000100010010000000000000000000000F0010000010748200220171201000101 00000000000000000000000000000000000000000000000000000000000000000000000000000000000000000000000000000000000000000N 00000000000NCONT   00    00000000000          00000000000000000000000000000000000000000000 000000000000000A000000000000000000000000000000000000000000000 000000000000000000000000000000000000000     00000000                                                                                                                        000000000000000000
F0010000010748200003000090009800500042505000000000000000000201712010002001GLORIANT CHEMICHALS DE COLOMBIA LTDA              C000000000760000000000000000000000100010010000000000000000000000F0010000010748200320171201000101 00000000000000000000000000000000000000000000000000000000000000000000000000000000000000000000000000000000000000000N 00000000000NCONT   00    00000000000          00000000000000000000000000000000000000000000 000000000000000A000000000000000000000000000000000000000000000 000000000000000000000000000000000000000     00000000                                                                                                                        000000000000000000
F0010000010748200004000090009800500023658300000000000000000201712010002001GLORIANT CHEMICHALS DE COLOMBIA LTDA              C000000000000000000000000000000000100010010000000000000000000000F0010000010748200420171201000101 00000000000000000000000000000000000000000000000000000000000000000000000000000000000000000000000000000000000000000N 00000000000NCONT   00    00000000000          00000000000000000000000000000000000000000000 000000000000000A000000000000000000000000000000000000000000000 000000000000000000000000000000000000000     00000000                                                                                                                        000000000000000000
F0010000010748200005000090009800500013552100000000000000000201712010002001GLORIANT CHEMICHALS DE COLOMBIA LTDA              D000000000000000000000000000000000100010010000000000000000000000F0010000010748200520171201000101 00000000000000000000000000000000000000000000000000000000000000000000000000000000000000000000000000000000000000000N 00000000000NCONT   00    00000000000          00000000000000000000000000000000000000000000 000000000000000A000000000000000000000000000000000000000000000 000000000000000000000000000000000000000     00000000                                                                                                                        000000000000000000
F0010000010748300001000080202094000013050500000000000000000201712010002001DISTRIB. OMAR ORREGO S.A.                         D000000054546400000000000000000000100010010000000000000000000000F0010000010748300120171201000101 00000000000000000000000000000000000000000000000000000000000000000000000000000000000000000000000000000000000000000N 00000000000NCONT   00    00000000000          00000000000000000000000000000000000000000000 000000000000000A000000000000000000000000000000000000000000000 000000000000000000000000000000000000000     00000000                                                                                                                        000000000000000000
F0010000010748300002000080202094000041450500000000000000000201712010002001DISTRIB. OMAR ORREGO S.A.                         C000000017380000000000000000000000100010010000000000000000000000F0010000010748300220171201000101 00000000000000000000000000000000000000000000000000000000000000000000000000000000000000000000000000000000000000000N 00000000000NCONT   00    00000000000          00000000000000000000000000000000000000000000 000000000000000A000000000000000000000000000000000000000000000 000000000000000000000000000000000000000     00000000                                                                                                                        000000000000000000
F0010000010748300003000080202094000042505000000000000000000201712010002001DISTRIB. OMAR ORREGO S.A.                         C000000037166400000000000000000000100010010000000000000000000000F0010000010748300320171201000101 00000000000000000000000000000000000000000000000000000000000000000000000000000000000000000000000000000000000000000N 00000000000NCONT   00    00000000000          00000000000000000000000000000000000000000000 000000000000000A000000000000000000000000000000000000000000000 000000000000000000000000000000000000000     00000000                                                                                                                        000000000000000000
F0010000010748300004000080202094000023658300000000000000000201712010002001DISTRIB. OMAR ORREGO S.A.                         C000000000000000000000000000000000100010010000000000000000000000F0010000010748300420171201000101 00000000000000000000000000000000000000000000000000000000000000000000000000000000000000000000000000000000000000000N 00000000000NCONT   00    00000000000          00000000000000000000000000000000000000000000 000000000000000A000000000000000000000000000000000000000000000 000000000000000000000000000000000000000     00000000                                                                                                                        000000000000000000
F0010000010748300005000080202094000013552100000000000000000201712010002001DISTRIB. OMAR ORREGO S.A.                         D000000000000000000000000000000000100010010000000000000000000000F0010000010748300520171201000101 00000000000000000000000000000000000000000000000000000000000000000000000000000000000000000000000000000000000000000N 00000000000NCONT   00    00000000000          00000000000000000000000000000000000000000000 000000000000000A000000000000000000000000000000000000000000000 000000000000000000000000000000000000000     00000000                                                                                                                        000000000000000000
F0010000010748400001000002245670100013050500000000000000000201712010002001YOLANDA  TOBON                                    D000000060878000000000000000000000100010010000000000000000000000F0010000010748400120171201000101 00000000000000000000000000000000000000000000000000000000000000000000000000000000000000000000000000000000000000000N 00000000000NCONT   00    00000000000          00000000000000000000000000000000000000000000 000000000000000A000000000000000000000000000000000000000000000 000000000000000000000000000000000000000     00000000                                                                                                                        000000000000000000
F0010000010748400002000002245670100041450500000000000000000201712010002001YOLANDA  TOBON                                    C000000046460000000000000000000000100010010000000000000000000000F0010000010748400220171201000101 00000000000000000000000000000000000000000000000000000000000000000000000000000000000000000000000000000000000000000N 00000000000NCONT   00    00000000000          00000000000000000000000000000000000000000000 000000000000000A000000000000000000000000000000000000000000000 000000000000000000000000000000000000000     00000000                                                                                                                        000000000000000000
F0010000010748400003000002245670100042505000000000000000000201712010002001YOLANDA  TOBON                                    C000000014418000000000000000000000100010010000000000000000000000F0010000010748400320171201000101 00000000000000000000000000000000000000000000000000000000000000000000000000000000000000000000000000000000000000000N 00000000000NCONT   00    00000000000          00000000000000000000000000000000000000000000 000000000000000A000000000000000000000000000000000000000000000 000000000000000000000000000000000000000     00000000                                                                                                                        000000000000000000
F0010000010748400004000002245670100023658300000000000000000201712010002001YOLANDA  TOBON                                    C000000000000000000000000000000000100010010000000000000000000000F0010000010748400420171201000101 00000000000000000000000000000000000000000000000000000000000000000000000000000000000000000000000000000000000000000N 00000000000NCONT   00    00000000000          00000000000000000000000000000000000000000000 000000000000000A000000000000000000000000000000000000000000000 000000000000000000000000000000000000000     00000000                                                                                                                        000000000000000000
F0010000010748400005000002245670100013552100000000000000000201712010002001YOLANDA  TOBON                                    D000000000000000000000000000000000100010010000000000000000000000F0010000010748400520171201000101 00000000000000000000000000000000000000000000000000000000000000000000000000000000000000000000000000000000000000000N 00000000000NCONT   00    00000000000          00000000000000000000000000000000000000000000 000000000000000A000000000000000000000000000000000000000000000 000000000000000000000000000000000000000     00000000                                                                                                                        000000000000000000
F0010000010748500001000080200069100013050500000000000000000201712010002001PEGANTES Y PINTURAS ATLAS LTDA                    D000000008335600000000000000000000100010010000000000000000000000F0010000010748500120171201000101 00000000000000000000000000000000000000000000000000000000000000000000000000000000000000000000000000000000000000000N 00000000000NCONT   00    00000000000          00000000000000000000000000000000000000000000 000000000000000A000000000000000000000000000000000000000000000 000000000000000000000000000000000000000     00000000                                                                                                                        000000000000000000
F0010000010748500002000080200069100041450500000000000000000201712010002001PEGANTES Y PINTURAS ATLAS LTDA                    C000000007260000000000000000000000100010010000000000000000000000F0010000010748500220171201000101 00000000000000000000000000000000000000000000000000000000000000000000000000000000000000000000000000000000000000000N 00000000000NCONT   00    00000000000          00000000000000000000000000000000000000000000 000000000000000A000000000000000000000000000000000000000000000 000000000000000000000000000000000000000     00000000                                                                                                                        000000000000000000
F0010000010748500003000080200069100042505000000000000000000201712010002001PEGANTES Y PINTURAS ATLAS LTDA                    C000000001075600000000000000000000100010010000000000000000000000F0010000010748500320171201000101 00000000000000000000000000000000000000000000000000000000000000000000000000000000000000000000000000000000000000000N 00000000000NCONT   00    00000000000          00000000000000000000000000000000000000000000 000000000000000A000000000000000000000000000000000000000000000 000000000000000000000000000000000000000     00000000                                                                                                                        000000000000000000
F0010000010748500004000080200069100023658300000000000000000201712010002001PEGANTES Y PINTURAS ATLAS LTDA                    C000000000000000000000000000000000100010010000000000000000000000F0010000010748500420171201000101 00000000000000000000000000000000000000000000000000000000000000000000000000000000000000000000000000000000000000000N 00000000000NCONT   00    00000000000          00000000000000000000000000000000000000000000 000000000000000A000000000000000000000000000000000000000000000 000000000000000000000000000000000000000     00000000                                                                                                                        000000000000000000
F0010000010748500005000080200069100013552100000000000000000201712010002001PEGANTES Y PINTURAS ATLAS LTDA                    D000000000000000000000000000000000100010010000000000000000000000F0010000010748500520171201000101 00000000000000000000000000000000000000000000000000000000000000000000000000000000000000000000000000000000000000000N 00000000000NCONT   00    00000000000          00000000000000000000000000000000000000000000 000000000000000A000000000000000000000000000000000000000000000 000000000000000000000000000000000000000     00000000                                                                                                                        000000000000000000
F0010000010748600001000090008711200013050500000000000000000201712010002001PACKAGING SUPPLIERS S.A.S                         D000000017696600000000000000000000100010010000000000000000000000F0010000010748600120171201000101 00000000000000000000000000000000000000000000000000000000000000000000000000000000000000000000000000000000000000000N 00000000000NCONT   00    00000000000          00000000000000000000000000000000000000000000 000000000000000A000000000000000000000000000000000000000000000 000000000000000000000000000000000000000     00000000                                                                                                                        000000000000000000
F0010000010748600002000090008711200041450500000000000000000201712010002001PACKAGING SUPPLIERS S.A.S                         C000000015688600000000000000000000100010010000000000000000000000F0010000010748600220171201000101 00000000000000000000000000000000000000000000000000000000000000000000000000000000000000000000000000000000000000000N 00000000000NCONT   00    00000000000          00000000000000000000000000000000000000000000 000000000000000A000000000000000000000000000000000000000000000 000000000000000000000000000000000000000     00000000                                                                                                                        000000000000000000
F0010000010748600003000090008711200042505000000000000000000201712010002001PACKAGING SUPPLIERS S.A.S                         C000000002008000000000000000000000100010010000000000000000000000F0010000010748600320171201000101 00000000000000000000000000000000000000000000000000000000000000000000000000000000000000000000000000000000000000000N 00000000000NCONT   00    00000000000          00000000000000000000000000000000000000000000 000000000000000A000000000000000000000000000000000000000000000 000000000000000000000000000000000000000     00000000                                                                                                                        000000000000000000
F0010000010748600004000090008711200023658300000000000000000201712010002001PACKAGING SUPPLIERS S.A.S                         C000000000000000000000000000000000100010010000000000000000000000F0010000010748600420171201000101 00000000000000000000000000000000000000000000000000000000000000000000000000000000000000000000000000000000000000000N 00000000000NCONT   00    00000000000          00000000000000000000000000000000000000000000 000000000000000A000000000000000000000000000000000000000000000 000000000000000000000000000000000000000     00000000                                                                                                                        000000000000000000
F0010000010748600005000090008711200013552100000000000000000201712010002001PACKAGING SUPPLIERS S.A.S                         D000000000000000000000000000000000100010010000000000000000000000F0010000010748600520171201000101 00000000000000000000000000000000000000000000000000000000000000000000000000000000000000000000000000000000000000000N 00000000000NCONT   00    00000000000          00000000000000000000000000000000000000000000 000000000000000A000000000000000000000000000000000000000000000 000000000000000000000000000000000000000     00000000                                                                                                                        000000000000000000
F0010000010748700001000000748239700013050500000000000000000201712010002001RAFAEL NAVARRO URIBE                              D000000048663000000000000000000000100010010000000000000000000000F0010000010748700120171201000101 00000000000000000000000000000000000000000000000000000000000000000000000000000000000000000000000000000000000000000N 00000000000NCONT   00    00000000000          00000000000000000000000000000000000000000000 000000000000000A000000000000000000000000000000000000000000000 000000000000000000000000000000000000000     00000000                                                                                                                        000000000000000000
F0010000010748700002000000748239700041450500000000000000000201712010002001RAFAEL NAVARRO URIBE                              C000000028530000000000000000000000100010010000000000000000000000F0010000010748700220171201000101 00000000000000000000000000000000000000000000000000000000000000000000000000000000000000000000000000000000000000000N 00000000000NCONT   00    00000000000          00000000000000000000000000000000000000000000 000000000000000A000000000000000000000000000000000000000000000 000000000000000000000000000000000000000     00000000                                                                                                                        000000000000000000
F0010000010748700003000000748239700042505000000000000000000201712010002001RAFAEL NAVARRO URIBE                              C000000020133000000000000000000000100010010000000000000000000000F0010000010748700320171201000101 00000000000000000000000000000000000000000000000000000000000000000000000000000000000000000000000000000000000000000N 00000000000NCONT   00    00000000000          00000000000000000000000000000000000000000000 000000000000000A000000000000000000000000000000000000000000000 000000000000000000000000000000000000000     00000000                                                                                                                        000000000000000000
F0010000010748700004000000748239700023658300000000000000000201712010002001RAFAEL NAVARRO URIBE                              C000000000000000000000000000000000100010010000000000000000000000F0010000010748700420171201000101 00000000000000000000000000000000000000000000000000000000000000000000000000000000000000000000000000000000000000000N 00000000000NCONT   00    00000000000          00000000000000000000000000000000000000000000 000000000000000A000000000000000000000000000000000000000000000 000000000000000000000000000000000000000     00000000                                                                                                                        000000000000000000
F0010000010748700005000000748239700013552100000000000000000201712010002001RAFAEL NAVARRO URIBE                              D000000000000000000000000000000000100010010000000000000000000000F0010000010748700520171201000101 00000000000000000000000000000000000000000000000000000000000000000000000000000000000000000000000000000000000000000N 00000000000NCONT   00    00000000000          00000000000000000000000000000000000000000000 000000000000000A000000000000000000000000000000000000000000000 000000000000000000000000000000000000000     00000000                                                                                                                        000000000000000000
F0010000010748800001000080201127600013050500000000000000000201712010002001ELECTRICOS DEL RUIZ S.A.S.                        D000000037900000000000000000000000100010010000000000000000000000F0010000010748800120171201000101 00000000000000000000000000000000000000000000000000000000000000000000000000000000000000000000000000000000000000000N 00000000000NCONT   00    00000000000          00000000000000000000000000000000000000000000 000000000000000A000000000000000000000000000000000000000000000 000000000000000000000000000000000000000     00000000                                                                                                                        000000000000000000
F0010000010748800002000080201127600041450500000000000000000201712010002001ELECTRICOS DEL RUIZ S.A.S.                        C000000020900000000000000000000000100010010000000000000000000000F0010000010748800220171201000101 00000000000000000000000000000000000000000000000000000000000000000000000000000000000000000000000000000000000000000N 00000000000NCONT   00    00000000000          00000000000000000000000000000000000000000000 000000000000000A000000000000000000000000000000000000000000000 000000000000000000000000000000000000000     00000000                                                                                                                        000000000000000000
F0010000010748800003000080201127600042505000000000000000000201712010002001ELECTRICOS DEL RUIZ S.A.S.                        C000000017000000000000000000000000100010010000000000000000000000F0010000010748800320171201000101 00000000000000000000000000000000000000000000000000000000000000000000000000000000000000000000000000000000000000000N 00000000000NCONT   00    00000000000          00000000000000000000000000000000000000000000 000000000000000A000000000000000000000000000000000000000000000 000000000000000000000000000000000000000     00000000                                                                                                                        000000000000000000
F0010000010748800004000080201127600023658300000000000000000201712010002001ELECTRICOS DEL RUIZ S.A.S.                        C000000000000000000000000000000000100010010000000000000000000000F0010000010748800420171201000101 00000000000000000000000000000000000000000000000000000000000000000000000000000000000000000000000000000000000000000N 00000000000NCONT   00    00000000000          00000000000000000000000000000000000000000000 000000000000000A000000000000000000000000000000000000000000000 000000000000000000000000000000000000000     00000000                                                                                                                        000000000000000000
F0010000010748800005000080201127600013552100000000000000000201712010002001ELECTRICOS DEL RUIZ S.A.S.                        D000000000000000000000000000000000100010010000000000000000000000F0010000010748800520171201000101 00000000000000000000000000000000000000000000000000000000000000000000000000000000000000000000000000000000000000000N 00000000000NCONT   00    00000000000          00000000000000000000000000000000000000000000 000000000000000A000000000000000000000000000000000000000000000 000000000000000000000000000000000000000     00000000                                                                                                                        000000000000000000
F0010000010748900001000086000490200013050500000000000000000201712010002001PROV. DE PAPELES ANDINA S.A.                      D000000357104200000000000000000000100010010000000000000000000000F0010000010748900120171201000101 00000000000000000000000000000000000000000000000000000000000000000000000000000000000000000000000000000000000000000N 00000000000NCONT   00    00000000000          00000000000000000000000000000000000000000000 000000000000000A000000000000000000000000000000000000000000000 000000000000000000000000000000000000000     00000000                                                                                                                        000000000000000000
F0010000010748900002000086000490200041450500000000000000000201712010002001PROV. DE PAPELES ANDINA S.A.                      C000000328271700000000000000000000100010010000000000000000000000F0010000010748900220171201000101 00000000000000000000000000000000000000000000000000000000000000000000000000000000000000000000000000000000000000000N 00000000000NCONT   00    00000000000          00000000000000000000000000000000000000000000 000000000000000A000000000000000000000000000000000000000000000 000000000000000000000000000000000000000     00000000                                                                                                                        000000000000000000
F0010000010748900003000086000490200042505000000000000000000201712010002001PROV. DE PAPELES ANDINA S.A.                      C000000028832500000000000000000000100010010000000000000000000000F0010000010748900320171201000101 00000000000000000000000000000000000000000000000000000000000000000000000000000000000000000000000000000000000000000N 00000000000NCONT   00    00000000000          00000000000000000000000000000000000000000000 000000000000000A000000000000000000000000000000000000000000000 000000000000000000000000000000000000000     00000000                                                                                                                        000000000000000000
F0010000010748900004000086000490200023658300000000000000000201712010002001PROV. DE PAPELES ANDINA S.A.                      C000000000000000000000000000000000100010010000000000000000000000F0010000010748900420171201000101 00000000000000000000000000000000000000000000000000000000000000000000000000000000000000000000000000000000000000000N 00000000000NCONT   00    00000000000          00000000000000000000000000000000000000000000 000000000000000A000000000000000000000000000000000000000000000 000000000000000000000000000000000000000     00000000                                                                                                                        000000000000000000
F0010000010748900005000086000490200013552100000000000000000201712010002001PROV. DE PAPELES ANDINA S.A.                      D000000000000000000000000000000000100010010000000000000000000000F0010000010748900520171201000101 00000000000000000000000000000000000000000000000000000000000000000000000000000000000000000000000000000000000000000N 00000000000NCONT   00    00000000000          00000000000000000000000000000000000000000000 000000000000000A000000000000000000000000000000000000000000000 000000000000000000000000000000000000000     00000000                                                                                                                        000000000000000000
F0010000010749000001000090060531100013050500000000000000000201712010002001RECUBRIMIENTOS ESENCIALES SAS                     D000000188940500000000000000000000100010010000000000000000000000F0010000010749000120171201000101 00000000000000000000000000000000000000000000000000000000000000000000000000000000000000000000000000000000000000000N 00000000000NCONT   00    00000000000          00000000000000000000000000000000000000000000 000000000000000A000000000000000000000000000000000000000000000 000000000000000000000000000000000000000     00000000                                                                                                                        000000000000000000
F0010000010749000002000090060531100041450500000000000000000201712010002001RECUBRIMIENTOS ESENCIALES SAS                     C000000182640900000000000000000000100010010000000000000000000000F0010000010749000220171201000101 00000000000000000000000000000000000000000000000000000000000000000000000000000000000000000000000000000000000000000N 00000000000NCONT   00    00000000000          00000000000000000000000000000000000000000000 000000000000000A000000000000000000000000000000000000000000000 000000000000000000000000000000000000000     00000000                                                                                                                        000000000000000000
F0010000010749000003000090060531100042505000000000000000000201712010002001RECUBRIMIENTOS ESENCIALES SAS                     C000000006299600000000000000000000100010010000000000000000000000F0010000010749000320171201000101 00000000000000000000000000000000000000000000000000000000000000000000000000000000000000000000000000000000000000000N 00000000000NCONT   00    00000000000          00000000000000000000000000000000000000000000 000000000000000A000000000000000000000000000000000000000000000 000000000000000000000000000000000000000     00000000                                                                                                                        000000000000000000
F0010000010749000004000090060531100023658300000000000000000201712010002001RECUBRIMIENTOS ESENCIALES SAS                     C000000000000000000000000000000000100010010000000000000000000000F0010000010749000420171201000101 00000000000000000000000000000000000000000000000000000000000000000000000000000000000000000000000000000000000000000N 00000000000NCONT   00    00000000000          00000000000000000000000000000000000000000000 000000000000000A000000000000000000000000000000000000000000000 000000000000000000000000000000000000000     00000000                                                                                                                        000000000000000000
F0010000010749000005000090060531100013552100000000000000000201712010002001RECUBRIMIENTOS ESENCIALES SAS                     D000000000000000000000000000000000100010010000000000000000000000F0010000010749000520171201000101 00000000000000000000000000000000000000000000000000000000000000000000000000000000000000000000000000000000000000000N 00000000000NCONT   00    00000000000          00000000000000000000000000000000000000000000 000000000000000A000000000000000000000000000000000000000000000 000000000000000000000000000000000000000     00000000                                                                                                                        000000000000000000
F0010000010749100001000090048173700013050500000000000000000201712010002001ESPECIALIDADES QUIMICAS DEL NORTE SAS             D000000000906200000000000000000000100010010000000000000000000000F0010000010749100120171201000101 00000000000000000000000000000000000000000000000000000000000000000000000000000000000000000000000000000000000000000N 00000000000NCONT   00    00000000000          00000000000000000000000000000000000000000000 000000000000000A000000000000000000000000000000000000000000000 000000000000000000000000000000000000000     00000000                                                                                                                        000000000000000000
F0010000010749100002000090048173700041450500000000000000000201712010002001ESPECIALIDADES QUIMICAS DEL NORTE SAS             C000000000870000000000000000000000100010010000000000000000000000F0010000010749100220171201000101 00000000000000000000000000000000000000000000000000000000000000000000000000000000000000000000000000000000000000000N 00000000000NCONT   00    00000000000          00000000000000000000000000000000000000000000 000000000000000A000000000000000000000000000000000000000000000 000000000000000000000000000000000000000     00000000                                                                                                                        000000000000000000
F0010000010749100003000090048173700042505000000000000000000201712010002001ESPECIALIDADES QUIMICAS DEL NORTE SAS             C000000000036200000000000000000000100010010000000000000000000000F0010000010749100320171201000101 00000000000000000000000000000000000000000000000000000000000000000000000000000000000000000000000000000000000000000N 00000000000NCONT   00    00000000000          00000000000000000000000000000000000000000000 000000000000000A000000000000000000000000000000000000000000000 000000000000000000000000000000000000000     00000000                                                                                                                        000000000000000000
F0010000010749100004000090048173700023658300000000000000000201712010002001ESPECIALIDADES QUIMICAS DEL NORTE SAS             C000000000000000000000000000000000100010010000000000000000000000F0010000010749100420171201000101 00000000000000000000000000000000000000000000000000000000000000000000000000000000000000000000000000000000000000000N 00000000000NCONT   00    00000000000          00000000000000000000000000000000000000000000 000000000000000A000000000000000000000000000000000000000000000 000000000000000000000000000000000000000     00000000                                                                                                                        000000000000000000
F0010000010749100005000090048173700013552100000000000000000201712010002001ESPECIALIDADES QUIMICAS DEL NORTE SAS             D000000000000000000000000000000000100010010000000000000000000000F0010000010749100520171201000101 00000000000000000000000000000000000000000000000000000000000000000000000000000000000000000000000000000000000000000N 00000000000NCONT   00    00000000000          00000000000000000000000000000000000000000000 000000000000000A000000000000000000000000000000000000000000000 000000000000000000000000000000000000000     00000000                                                                                                                        000000000000000000
F0010000010749200001000080201112800013050500000000000000000201712010002001CANGURO INTERNATIONAL S.A.                        D000000103715100000000000000000000100010010000000000000000000000F0010000010749200120171201000101 00000000000000000000000000000000000000000000000000000000000000000000000000000000000000000000000000000000000000000N 00000000000NCONT   00    00000000000          00000000000000000000000000000000000000000000 000000000000000A000000000000000000000000000000000000000000000 000000000000000000000000000000000000000     00000000                                                                                                                        000000000000000000
F0010000010749200002000080201112800041450500000000000000000201712010002001CANGURO INTERNATIONAL S.A.                        C000000102896700000000000000000000100010010000000000000000000000F0010000010749200220171201000101 00000000000000000000000000000000000000000000000000000000000000000000000000000000000000000000000000000000000000000N 00000000000NCONT   00    00000000000          00000000000000000000000000000000000000000000 000000000000000A000000000000000000000000000000000000000000000 000000000000000000000000000000000000000     00000000                                                                                                                        000000000000000000
F0010000010749200003000080201112800042505000000000000000000201712010002001CANGURO INTERNATIONAL S.A.                        C000000000818400000000000000000000100010010000000000000000000000F0010000010749200320171201000101 00000000000000000000000000000000000000000000000000000000000000000000000000000000000000000000000000000000000000000N 00000000000NCONT   00    00000000000          00000000000000000000000000000000000000000000 000000000000000A000000000000000000000000000000000000000000000 000000000000000000000000000000000000000     00000000                                                                                                                        000000000000000000
F0010000010749200004000080201112800023658300000000000000000201712010002001CANGURO INTERNATIONAL S.A.                        C000000000000000000000000000000000100010010000000000000000000000F0010000010749200420171201000101 00000000000000000000000000000000000000000000000000000000000000000000000000000000000000000000000000000000000000000N 00000000000NCONT   00    00000000000          00000000000000000000000000000000000000000000 000000000000000A000000000000000000000000000000000000000000000 000000000000000000000000000000000000000     00000000                                                                                                                        000000000000000000
F0010000010749200005000080201112800013552100000000000000000201712010002001CANGURO INTERNATIONAL S.A.                        D000000000000000000000000000000000100010010000000000000000000000F0010000010749200520171201000101 00000000000000000000000000000000000000000000000000000000000000000000000000000000000000000000000000000000000000000N 00000000000NCONT   00    00000000000          00000000000000000000000000000000000000000000 000000000000000A000000000000000000000000000000000000000000000 000000000000000000000000000000000000000     00000000                                                                                                                        000000000000000000
F0010000010749300001000080201112800013050500000000000000000201712010002001CANGURO INTERNATIONAL S.A.                        D000000033811900000000000000000000100010010000000000000000000000F0010000010749300120171201000101 00000000000000000000000000000000000000000000000000000000000000000000000000000000000000000000000000000000000000000N 00000000000NCONT   00    00000000000          00000000000000000000000000000000000000000000 000000000000000A000000000000000000000000000000000000000000000 000000000000000000000000000000000000000     00000000                                                                                                                        000000000000000000
F0010000010749300002000080201112800041450500000000000000000201712010002001CANGURO INTERNATIONAL S.A.                        C000000033811900000000000000000000100010010000000000000000000000F0010000010749300220171201000101 00000000000000000000000000000000000000000000000000000000000000000000000000000000000000000000000000000000000000000N 00000000000NCONT   00    00000000000          00000000000000000000000000000000000000000000 000000000000000A000000000000000000000000000000000000000000000 000000000000000000000000000000000000000     00000000                                                                                                                        000000000000000000
F0010000010749300003000080201112800042505000000000000000000201712010002001CANGURO INTERNATIONAL S.A.                        C000000000000000000000000000000000100010010000000000000000000000F0010000010749300320171201000101 00000000000000000000000000000000000000000000000000000000000000000000000000000000000000000000000000000000000000000N 00000000000NCONT   00    00000000000          00000000000000000000000000000000000000000000 000000000000000A000000000000000000000000000000000000000000000 000000000000000000000000000000000000000     00000000                                                                                                                        000000000000000000
F0010000010749300004000080201112800023658300000000000000000201712010002001CANGURO INTERNATIONAL S.A.                        C000000000000000000000000000000000100010010000000000000000000000F0010000010749300420171201000101 00000000000000000000000000000000000000000000000000000000000000000000000000000000000000000000000000000000000000000N 00000000000NCONT   00    00000000000          00000000000000000000000000000000000000000000 000000000000000A000000000000000000000000000000000000000000000 000000000000000000000000000000000000000     00000000                                                                                                                        000000000000000000
F0010000010749300005000080201112800013552100000000000000000201712010002001CANGURO INTERNATIONAL S.A.                        D000000000000000000000000000000000100010010000000000000000000000F0010000010749300520171201000101 00000000000000000000000000000000000000000000000000000000000000000000000000000000000000000000000000000000000000000N 00000000000NCONT   00    00000000000          00000000000000000000000000000000000000000000 000000000000000A000000000000000000000000000000000000000000000 000000000000000000000000000000000000000     00000000                                                                                                                        000000000000000000
F0010000010749400001000080201112800013050500000000000000000201712010002001CANGURO INTERNATIONAL S.A.                        D000000312391900000000000000000000100010010000000000000000000000F0010000010749400120171201000101 00000000000000000000000000000000000000000000000000000000000000000000000000000000000000000000000000000000000000000N 00000000000NCONT   00    00000000000          00000000000000000000000000000000000000000000 000000000000000A000000000000000000000000000000000000000000000 000000000000000000000000000000000000000     00000000                                                                                                                        000000000000000000
F0010000010749400002000080201112800041450500000000000000000201712010002001CANGURO INTERNATIONAL S.A.                        C000000298415100000000000000000000100010010000000000000000000000F0010000010749400220171201000101 00000000000000000000000000000000000000000000000000000000000000000000000000000000000000000000000000000000000000000N 00000000000NCONT   00    00000000000          00000000000000000000000000000000000000000000 000000000000000A000000000000000000000000000000000000000000000 000000000000000000000000000000000000000     00000000                                                                                                                        000000000000000000
F0010000010749400003000080201112800042505000000000000000000201712010002001CANGURO INTERNATIONAL S.A.                        C000000013976800000000000000000000100010010000000000000000000000F0010000010749400320171201000101 00000000000000000000000000000000000000000000000000000000000000000000000000000000000000000000000000000000000000000N 00000000000NCONT   00    00000000000          00000000000000000000000000000000000000000000 000000000000000A000000000000000000000000000000000000000000000 000000000000000000000000000000000000000     00000000                                                                                                                        000000000000000000
F0010000010749400004000080201112800023658300000000000000000201712010002001CANGURO INTERNATIONAL S.A.                        C000000000000000000000000000000000100010010000000000000000000000F0010000010749400420171201000101 00000000000000000000000000000000000000000000000000000000000000000000000000000000000000000000000000000000000000000N 00000000000NCONT   00    00000000000          00000000000000000000000000000000000000000000 000000000000000A000000000000000000000000000000000000000000000 000000000000000000000000000000000000000     00000000                                                                                                                        000000000000000000
F0010000010749400005000080201112800013552100000000000000000201712010002001CANGURO INTERNATIONAL S.A.                        D000000000000000000000000000000000100010010000000000000000000000F0010000010749400520171201000101 00000000000000000000000000000000000000000000000000000000000000000000000000000000000000000000000000000000000000000N 00000000000NCONT   00    00000000000          00000000000000000000000000000000000000000000 000000000000000A000000000000000000000000000000000000000000000 000000000000000000000000000000000000000     00000000                                                                                                                        000000000000000000
F0010000010749500001000080201112800013050500000000000000000201712010002001CANGURO INTERNATIONAL S.A.                        D000000014218000000000000000000000100010010000000000000000000000F0010000010749500120171201000101 00000000000000000000000000000000000000000000000000000000000000000000000000000000000000000000000000000000000000000N 00000000000NCONT   00    00000000000          00000000000000000000000000000000000000000000 000000000000000A000000000000000000000000000000000000000000000 000000000000000000000000000000000000000     00000000                                                                                                                        000000000000000000
F0010000010749500002000080201112800041450500000000000000000201712010002001CANGURO INTERNATIONAL S.A.                        C000000014218000000000000000000000100010010000000000000000000000F0010000010749500220171201000101 00000000000000000000000000000000000000000000000000000000000000000000000000000000000000000000000000000000000000000N 00000000000NCONT   00    00000000000          00000000000000000000000000000000000000000000 000000000000000A000000000000000000000000000000000000000000000 000000000000000000000000000000000000000     00000000                                                                                                                        000000000000000000
F0010000010749500003000080201112800042505000000000000000000201712010002001CANGURO INTERNATIONAL S.A.                        C000000000000000000000000000000000100010010000000000000000000000F0010000010749500320171201000101 00000000000000000000000000000000000000000000000000000000000000000000000000000000000000000000000000000000000000000N 00000000000NCONT   00    00000000000          00000000000000000000000000000000000000000000 000000000000000A000000000000000000000000000000000000000000000 000000000000000000000000000000000000000     00000000                                                                                                                        000000000000000000
F0010000010749500004000080201112800023658300000000000000000201712010002001CANGURO INTERNATIONAL S.A.                        C000000000000000000000000000000000100010010000000000000000000000F0010000010749500420171201000101 00000000000000000000000000000000000000000000000000000000000000000000000000000000000000000000000000000000000000000N 00000000000NCONT   00    00000000000          00000000000000000000000000000000000000000000 000000000000000A000000000000000000000000000000000000000000000 000000000000000000000000000000000000000     00000000                                                                                                                        000000000000000000
F0010000010749500005000080201112800013552100000000000000000201712010002001CANGURO INTERNATIONAL S.A.                        D000000000000000000000000000000000100010010000000000000000000000F0010000010749500520171201000101 00000000000000000000000000000000000000000000000000000000000000000000000000000000000000000000000000000000000000000N 00000000000NCONT   00    00000000000          00000000000000000000000000000000000000000000 000000000000000A000000000000000000000000000000000000000000000 000000000000000000000000000000000000000     00000000                                                                                                                        000000000000000000
F0010000010749600001000080201112800013050500000000000000000201712010002001CANGURO INTERNATIONAL S.A.                        D000000124368000000000000000000000100010010000000000000000000000F0010000010749600120171201000101 00000000000000000000000000000000000000000000000000000000000000000000000000000000000000000000000000000000000000000N 00000000000NCONT   00    00000000000          00000000000000000000000000000000000000000000 000000000000000A000000000000000000000000000000000000000000000 000000000000000000000000000000000000000     00000000                                                                                                                        000000000000000000
F0010000010749600002000080201112800041450500000000000000000201712010002001CANGURO INTERNATIONAL S.A.                        C000000121164800000000000000000000100010010000000000000000000000F0010000010749600220171201000101 00000000000000000000000000000000000000000000000000000000000000000000000000000000000000000000000000000000000000000N 00000000000NCONT   00    00000000000          00000000000000000000000000000000000000000000 000000000000000A000000000000000000000000000000000000000000000 000000000000000000000000000000000000000     00000000                                                                                                                        000000000000000000
F0010000010749600003000080201112800042505000000000000000000201712010002001CANGURO INTERNATIONAL S.A.                        C000000003203200000000000000000000100010010000000000000000000000F0010000010749600320171201000101 00000000000000000000000000000000000000000000000000000000000000000000000000000000000000000000000000000000000000000N 00000000000NCONT   00    00000000000          00000000000000000000000000000000000000000000 000000000000000A000000000000000000000000000000000000000000000 000000000000000000000000000000000000000     00000000                                                                                                                        000000000000000000
F0010000010749600004000080201112800023658300000000000000000201712010002001CANGURO INTERNATIONAL S.A.                        C000000000000000000000000000000000100010010000000000000000000000F0010000010749600420171201000101 00000000000000000000000000000000000000000000000000000000000000000000000000000000000000000000000000000000000000000N 00000000000NCONT   00    00000000000          00000000000000000000000000000000000000000000 000000000000000A000000000000000000000000000000000000000000000 000000000000000000000000000000000000000     00000000                                                                                                                        000000000000000000
F0010000010749600005000080201112800013552100000000000000000201712010002001CANGURO INTERNATIONAL S.A.                        D000000000000000000000000000000000100010010000000000000000000000F0010000010749600520171201000101 00000000000000000000000000000000000000000000000000000000000000000000000000000000000000000000000000000000000000000N 00000000000NCONT   00    00000000000          00000000000000000000000000000000000000000000 000000000000000A000000000000000000000000000000000000000000000 000000000000000000000000000000000000000     00000000                                                                                                                        000000000000000000
F0010000010749700001000089010260300013050500000000000000000201712010002001FEDERICO OSORIO A. S.A.                           D000000092999200000000000000000000100010010000000000000000000000F0010000010749700120171201000101 00000000000000000000000000000000000000000000000000000000000000000000000000000000000000000000000000000000000000000N 00000000000NCONT   00    00000000000          00000000000000000000000000000000000000000000 000000000000000A000000000000000000000000000000000000000000000 000000000000000000000000000000000000000     00000000                                                                                                                        000000000000000000
F0010000010749700002000089010260300041450500000000000000000201712010002001FEDERICO OSORIO A. S.A.                           C000000083770000000000000000000000100010010000000000000000000000F0010000010749700220171201000101 00000000000000000000000000000000000000000000000000000000000000000000000000000000000000000000000000000000000000000N 00000000000NCONT   00    00000000000          00000000000000000000000000000000000000000000 000000000000000A000000000000000000000000000000000000000000000 000000000000000000000000000000000000000     00000000                                                                                                                        000000000000000000
F0010000010749700003000089010260300042505000000000000000000201712010002001FEDERICO OSORIO A. S.A.                           C000000009229200000000000000000000100010010000000000000000000000F0010000010749700320171201000101 00000000000000000000000000000000000000000000000000000000000000000000000000000000000000000000000000000000000000000N 00000000000NCONT   00    00000000000          00000000000000000000000000000000000000000000 000000000000000A000000000000000000000000000000000000000000000 000000000000000000000000000000000000000     00000000                                                                                                                        000000000000000000
F0010000010749700004000089010260300023658300000000000000000201712010002001FEDERICO OSORIO A. S.A.                           C000000000000000000000000000000000100010010000000000000000000000F0010000010749700420171201000101 00000000000000000000000000000000000000000000000000000000000000000000000000000000000000000000000000000000000000000N 00000000000NCONT   00    00000000000          00000000000000000000000000000000000000000000 000000000000000A000000000000000000000000000000000000000000000 000000000000000000000000000000000000000     00000000                                                                                                                        000000000000000000
F0010000010749700005000089010260300013552100000000000000000201712010002001FEDERICO OSORIO A. S.A.                           D000000000000000000000000000000000100010010000000000000000000000F0010000010749700520171201000101 00000000000000000000000000000000000000000000000000000000000000000000000000000000000000000000000000000000000000000N 00000000000NCONT   00    00000000000          00000000000000000000000000000000000000000000 000000000000000A000000000000000000000000000000000000000000000 000000000000000000000000000000000000000     00000000                                                                                                                        000000000000000000
F0010000010749800001000007215983800013050500000000000000000201712010002001INDUSTRIA  LAFERBE                                D000000001800000000000000000000000100010010000000000000000000000F0010000010749800120171201000101 00000000000000000000000000000000000000000000000000000000000000000000000000000000000000000000000000000000000000000N 00000000000NCONT   00    00000000000          00000000000000000000000000000000000000000000 000000000000000A000000000000000000000000000000000000000000000 000000000000000000000000000000000000000     00000000                                                                                                                        000000000000000000
F0010000010749800002000007215983800041450500000000000000000201712010002001INDUSTRIA  LAFERBE                                C000000001550000000000000000000000100010010000000000000000000000F0010000010749800220171201000101 00000000000000000000000000000000000000000000000000000000000000000000000000000000000000000000000000000000000000000N 00000000000NCONT   00    00000000000          00000000000000000000000000000000000000000000 000000000000000A000000000000000000000000000000000000000000000 000000000000000000000000000000000000000     00000000                                                                                                                        000000000000000000
F0010000010749800003000007215983800042505000000000000000000201712010002001INDUSTRIA  LAFERBE                                C000000000250000000000000000000000100010010000000000000000000000F0010000010749800320171201000101 00000000000000000000000000000000000000000000000000000000000000000000000000000000000000000000000000000000000000000N 00000000000NCONT   00    00000000000          00000000000000000000000000000000000000000000 000000000000000A000000000000000000000000000000000000000000000 000000000000000000000000000000000000000     00000000                                                                                                                        000000000000000000
F0010000010749800004000007215983800023658300000000000000000201712010002001INDUSTRIA  LAFERBE                                C000000000000000000000000000000000100010010000000000000000000000F0010000010749800420171201000101 00000000000000000000000000000000000000000000000000000000000000000000000000000000000000000000000000000000000000000N 00000000000NCONT   00    00000000000          00000000000000000000000000000000000000000000 000000000000000A000000000000000000000000000000000000000000000 000000000000000000000000000000000000000     00000000                                                                                                                        000000000000000000
F0010000010749800005000007215983800013552100000000000000000201712010002001INDUSTRIA  LAFERBE                                D000000000000000000000000000000000100010010000000000000000000000F0010000010749800520171201000101 00000000000000000000000000000000000000000000000000000000000000000000000000000000000000000000000000000000000000000N 00000000000NCONT   00    00000000000          00000000000000000000000000000000000000000000 000000000000000A000000000000000000000000000000000000000000000 000000000000000000000000000000000000000     00000000                                                                                                                        000000000000000000
F0010000010749900001000083007900600013050500000000000000000201712010002001EXPRESO ANDINO DE CARGA SA                        D000000061200000000000000000000000100010010000000000000000000000F0010000010749900120171201000101 00000000000000000000000000000000000000000000000000000000000000000000000000000000000000000000000000000000000000000N 00000000000NCONT   00    00000000000          00000000000000000000000000000000000000000000 000000000000000A000000000000000000000000000000000000000000000 000000000000000000000000000000000000000     00000000                                                                                                                        000000000000000000
F0010000010749900002000083007900600041450500000000000000000201712010002001EXPRESO ANDINO DE CARGA SA                        C000000059700000000000000000000000100010010000000000000000000000F0010000010749900220171201000101 00000000000000000000000000000000000000000000000000000000000000000000000000000000000000000000000000000000000000000N 00000000000NCONT   00    00000000000          00000000000000000000000000000000000000000000 000000000000000A000000000000000000000000000000000000000000000 000000000000000000000000000000000000000     00000000                                                                                                                        000000000000000000
F0010000010749900003000083007900600042505000000000000000000201712010002001EXPRESO ANDINO DE CARGA SA                        C000000001500000000000000000000000100010010000000000000000000000F0010000010749900320171201000101 00000000000000000000000000000000000000000000000000000000000000000000000000000000000000000000000000000000000000000N 00000000000NCONT   00    00000000000          00000000000000000000000000000000000000000000 000000000000000A000000000000000000000000000000000000000000000 000000000000000000000000000000000000000     00000000                                                                                                                        000000000000000000
F0010000010749900004000083007900600023658300000000000000000201712010002001EXPRESO ANDINO DE CARGA SA                        C000000000000000000000000000000000100010010000000000000000000000F0010000010749900420171201000101 00000000000000000000000000000000000000000000000000000000000000000000000000000000000000000000000000000000000000000N 00000000000NCONT   00    00000000000          00000000000000000000000000000000000000000000 000000000000000A000000000000000000000000000000000000000000000 000000000000000000000000000000000000000     00000000                                                                                                                        000000000000000000
F0010000010749900005000083007900600013552100000000000000000201712010002001EXPRESO ANDINO DE CARGA SA                        D000000000000000000000000000000000100010010000000000000000000000F0010000010749900520171201000101 00000000000000000000000000000000000000000000000000000000000000000000000000000000000000000000000000000000000000000N 00000000000NCONT   00    00000000000          00000000000000000000000000000000000000000000 000000000000000A000000000000000000000000000000000000000000000 000000000000000000000000000000000000000     00000000                                                                                                                        000000000000000000
F0010000010750000001000090069145000013050500000000000000000201712010002001TGV DE COLOMBIA SAS                               D000000081000000000000000000000000100010010000000000000000000000F0010000010750000120171201000101 00000000000000000000000000000000000000000000000000000000000000000000000000000000000000000000000000000000000000000N 00000000000NCONT   00    00000000000          00000000000000000000000000000000000000000000 000000000000000A000000000000000000000000000000000000000000000 000000000000000000000000000000000000000     00000000                                                                                                                        000000000000000000
F0010000010750000002000090069145000041450500000000000000000201712010002001TGV DE COLOMBIA SAS                               C000000079000000000000000000000000100010010000000000000000000000F0010000010750000220171201000101 00000000000000000000000000000000000000000000000000000000000000000000000000000000000000000000000000000000000000000N 00000000000NCONT   00    00000000000          00000000000000000000000000000000000000000000 000000000000000A000000000000000000000000000000000000000000000 000000000000000000000000000000000000000     00000000                                                                                                                        000000000000000000
F0010000010750000003000090069145000042505000000000000000000201712010002001TGV DE COLOMBIA SAS                               C000000002000000000000000000000000100010010000000000000000000000F0010000010750000320171201000101 00000000000000000000000000000000000000000000000000000000000000000000000000000000000000000000000000000000000000000N 00000000000NCONT   00    00000000000          00000000000000000000000000000000000000000000 000000000000000A000000000000000000000000000000000000000000000 000000000000000000000000000000000000000     00000000                                                                                                                        000000000000000000
F0010000010750000004000090069145000023658300000000000000000201712010002001TGV DE COLOMBIA SAS                               C000000000000000000000000000000000100010010000000000000000000000F0010000010750000420171201000101 00000000000000000000000000000000000000000000000000000000000000000000000000000000000000000000000000000000000000000N 00000000000NCONT   00    00000000000          00000000000000000000000000000000000000000000 000000000000000A000000000000000000000000000000000000000000000 000000000000000000000000000000000000000     00000000                                                                                                                        000000000000000000
F0010000010750000005000090069145000013552100000000000000000201712010002001TGV DE COLOMBIA SAS                               D000000000000000000000000000000000100010010000000000000000000000F0010000010750000520171201000101 00000000000000000000000000000000000000000000000000000000000000000000000000000000000000000000000000000000000000000N 00000000000NCONT   00    00000000000          00000000000000000000000000000000000000000000 000000000000000A000000000000000000000000000000000000000000000 000000000000000000000000000000000000000     00000000                                                                                                                        000000000000000000
F0010000010750400001000081102758700013050500000000000000000201712010002001C.I. ABRACOL S.A EMA                              D000000061627700000000000000000000100010010000000000000000000000F0010000010750400120171201000101 00000000000000000000000000000000000000000000000000000000000000000000000000000000000000000000000000000000000000000N 00000000000NCONT   00    00000000000          00000000000000000000000000000000000000000000 000000000000000A000000000000000000000000000000000000000000000 000000000000000000000000000000000000000     00000000                                                                                                                        000000000000000000
F0010000010750400002000081102758700041450500000000000000000201712010002001C.I. ABRACOL S.A EMA                              C000000037610000000000000000000000100010010000000000000000000000F0010000010750400220171201000101 00000000000000000000000000000000000000000000000000000000000000000000000000000000000000000000000000000000000000000N 00000000000NCONT   00    00000000000          00000000000000000000000000000000000000000000 000000000000000A000000000000000000000000000000000000000000000 000000000000000000000000000000000000000     00000000                                                                                                                        000000000000000000
F0010000010750400003000081102758700041750100000000000000000201712010002001C.I. ABRACOL S.A EMA                              D000000001128300000000000000000000100010010000000000000000000000F0010000010750400320171201000101 00000000000000000000000000000000000000000000000000000000000000000000000000000000000000000000000000000000000000000N 00000000000NCONT   00    00000000000          00000000000000000000000000000000000000000000 000000000000000A000000000000000000000000000000000000000000000 000000000000000000000000000000000000000     00000000                                                                                                                        000000000000000000
F0010000010750400004000081102758700042505000000000000000000201712010002001C.I. ABRACOL S.A EMA                              C000000025146000000000000000000000100010010000000000000000000000F0010000010750400420171201000101 00000000000000000000000000000000000000000000000000000000000000000000000000000000000000000000000000000000000000000N 00000000000NCONT   00    00000000000          00000000000000000000000000000000000000000000 000000000000000A000000000000000000000000000000000000000000000 000000000000000000000000000000000000000     00000000                                                                                                                        000000000000000000
F0010000010750400005000081102758700023658300000000000000000201712010002001C.I. ABRACOL S.A EMA                              C000000000000000000000000000000000100010010000000000000000000000F0010000010750400520171201000101 00000000000000000000000000000000000000000000000000000000000000000000000000000000000000000000000000000000000000000N 00000000000NCONT   00    00000000000          00000000000000000000000000000000000000000000 000000000000000A000000000000000000000000000000000000000000000 000000000000000000000000000000000000000     00000000                                                                                                                        000000000000000000
F0010000010750400006000081102758700013552100000000000000000201712010002001C.I. ABRACOL S.A EMA                              D000000000000000000000000000000000100010010000000000000000000000F0010000010750400620171201000101 00000000000000000000000000000000000000000000000000000000000000000000000000000000000000000000000000000000000000000N 00000000000NCONT   00    00000000000          00000000000000000000000000000000000000000000 000000000000000A000000000000000000000000000000000000000000000 000000000000000000000000000000000000000     00000000                                                                                                                        000000000000000000
F0010000010750500001000081102758700013050500000000000000000201712010002001C.I. ABRACOL S.A EMA                              D000000065158400000000000000000000100010010000000000000000000000F0010000010750500120171201000101 00000000000000000000000000000000000000000000000000000000000000000000000000000000000000000000000000000000000000000N 00000000000NCONT   00    00000000000          00000000000000000000000000000000000000000000 000000000000000A000000000000000000000000000000000000000000000 000000000000000000000000000000000000000     00000000                                                                                                                        000000000000000000
F0010000010750500002000081102758700041450500000000000000000201712010002001C.I. ABRACOL S.A EMA                              C000000051480000000000000000000000100010010000000000000000000000F0010000010750500220171201000101 00000000000000000000000000000000000000000000000000000000000000000000000000000000000000000000000000000000000000000N 00000000000NCONT   00    00000000000          00000000000000000000000000000000000000000000 000000000000000A000000000000000000000000000000000000000000000 000000000000000000000000000000000000000     00000000                                                                                                                        000000000000000000
F0010000010750500003000081102758700041750100000000000000000201712010002001C.I. ABRACOL S.A EMA                              D000000001544400000000000000000000100010010000000000000000000000F0010000010750500320171201000101 00000000000000000000000000000000000000000000000000000000000000000000000000000000000000000000000000000000000000000N 00000000000NCONT   00    00000000000          00000000000000000000000000000000000000000000 000000000000000A000000000000000000000000000000000000000000000 000000000000000000000000000000000000000     00000000                                                                                                                        000000000000000000
F0010000010750500004000081102758700042505000000000000000000201712010002001C.I. ABRACOL S.A EMA                              C000000015222800000000000000000000100010010000000000000000000000F0010000010750500420171201000101 00000000000000000000000000000000000000000000000000000000000000000000000000000000000000000000000000000000000000000N 00000000000NCONT   00    00000000000          00000000000000000000000000000000000000000000 000000000000000A000000000000000000000000000000000000000000000 000000000000000000000000000000000000000     00000000                                                                                                                        000000000000000000
F0010000010750500005000081102758700023658300000000000000000201712010002001C.I. ABRACOL S.A EMA                              C000000000000000000000000000000000100010010000000000000000000000F0010000010750500520171201000101 00000000000000000000000000000000000000000000000000000000000000000000000000000000000000000000000000000000000000000N 00000000000NCONT   00    00000000000          00000000000000000000000000000000000000000000 000000000000000A000000000000000000000000000000000000000000000 000000000000000000000000000000000000000     00000000                                                                                                                        000000000000000000
F0010000010750500006000081102758700013552100000000000000000201712010002001C.I. ABRACOL S.A EMA                              D000000000000000000000000000000000100010010000000000000000000000F0010000010750500620171201000101 00000000000000000000000000000000000000000000000000000000000000000000000000000000000000000000000000000000000000000N 00000000000NCONT   00    00000000000          00000000000000000000000000000000000000000000 000000000000000A000000000000000000000000000000000000000000000 000000000000000000000000000000000000000     00000000                                                                                                                        000000000000000000
F0010000010750600001000081102758700013050500000000000000000201712010002001C.I. ABRACOL S.A EMA                              D000000097833000000000000000000000100010010000000000000000000000F0010000010750600120171201000101 00000000000000000000000000000000000000000000000000000000000000000000000000000000000000000000000000000000000000000N 00000000000NCONT   00    00000000000          00000000000000000000000000000000000000000000 000000000000000A000000000000000000000000000000000000000000000 000000000000000000000000000000000000000     00000000                                                                                                                        000000000000000000
F0010000010750600002000081102758700041450500000000000000000201712010002001C.I. ABRACOL S.A EMA                              C000000072460000000000000000000000100010010000000000000000000000F0010000010750600220171201000101 00000000000000000000000000000000000000000000000000000000000000000000000000000000000000000000000000000000000000000N 00000000000NCONT   00    00000000000          00000000000000000000000000000000000000000000 000000000000000A000000000000000000000000000000000000000000000 000000000000000000000000000000000000000     00000000                                                                                                                        000000000000000000
F0010000010750600003000081102758700041750100000000000000000201712010002001C.I. ABRACOL S.A EMA                              D000000002173800000000000000000000100010010000000000000000000000F0010000010750600320171201000101 00000000000000000000000000000000000000000000000000000000000000000000000000000000000000000000000000000000000000000N 00000000000NCONT   00    00000000000          00000000000000000000000000000000000000000000 000000000000000A000000000000000000000000000000000000000000000 000000000000000000000000000000000000000     00000000                                                                                                                        000000000000000000
F0010000010750600004000081102758700042505000000000000000000201712010002001C.I. ABRACOL S.A EMA                              C000000027546800000000000000000000100010010000000000000000000000F0010000010750600420171201000101 00000000000000000000000000000000000000000000000000000000000000000000000000000000000000000000000000000000000000000N 00000000000NCONT   00    00000000000          00000000000000000000000000000000000000000000 000000000000000A000000000000000000000000000000000000000000000 000000000000000000000000000000000000000     00000000                                                                                                                        000000000000000000
F0010000010750600005000081102758700023658300000000000000000201712010002001C.I. ABRACOL S.A EMA                              C000000000000000000000000000000000100010010000000000000000000000F0010000010750600520171201000101 00000000000000000000000000000000000000000000000000000000000000000000000000000000000000000000000000000000000000000N 00000000000NCONT   00    00000000000          00000000000000000000000000000000000000000000 000000000000000A000000000000000000000000000000000000000000000 000000000000000000000000000000000000000     00000000                                                                                                                        000000000000000000
F0010000010750600006000081102758700013552100000000000000000201712010002001C.I. ABRACOL S.A EMA                              D000000000000000000000000000000000100010010000000000000000000000F0010000010750600620171201000101 00000000000000000000000000000000000000000000000000000000000000000000000000000000000000000000000000000000000000000N 00000000000NCONT   00    00000000000          00000000000000000000000000000000000000000000 000000000000000A000000000000000000000000000000000000000000000 000000000000000000000000000000000000000     00000000                                                                                                                        000000000000000000
F0010000010750700001000081102758700013050500000000000000000201712010002001C.I. ABRACOL S.A EMA                              D000000066926200000000000000000000100010010000000000000000000000F0010000010750700120171201000101 00000000000000000000000000000000000000000000000000000000000000000000000000000000000000000000000000000000000000000N 00000000000NCONT   00    00000000000          00000000000000000000000000000000000000000000 000000000000000A000000000000000000000000000000000000000000000 000000000000000000000000000000000000000     00000000                                                                                                                        000000000000000000
F0010000010750700002000081102758700041450500000000000000000201712010002001C.I. ABRACOL S.A EMA                              C000000048150000000000000000000000100010010000000000000000000000F0010000010750700220171201000101 00000000000000000000000000000000000000000000000000000000000000000000000000000000000000000000000000000000000000000N 00000000000NCONT   00    00000000000          00000000000000000000000000000000000000000000 000000000000000A000000000000000000000000000000000000000000000 000000000000000000000000000000000000000     00000000                                                                                                                        000000000000000000
F0010000010750700003000081102758700041750100000000000000000201712010002001C.I. ABRACOL S.A EMA                              D000000001444500000000000000000000100010010000000000000000000000F0010000010750700320171201000101 00000000000000000000000000000000000000000000000000000000000000000000000000000000000000000000000000000000000000000N 00000000000NCONT   00    00000000000          00000000000000000000000000000000000000000000 000000000000000A000000000000000000000000000000000000000000000 000000000000000000000000000000000000000     00000000                                                                                                                        000000000000000000
F0010000010750700004000081102758700042505000000000000000000201712010002001C.I. ABRACOL S.A EMA                              C000000020220700000000000000000000100010010000000000000000000000F0010000010750700420171201000101 00000000000000000000000000000000000000000000000000000000000000000000000000000000000000000000000000000000000000000N 00000000000NCONT   00    00000000000          00000000000000000000000000000000000000000000 000000000000000A000000000000000000000000000000000000000000000 000000000000000000000000000000000000000     00000000                                                                                                                        000000000000000000
F0010000010750700005000081102758700023658300000000000000000201712010002001C.I. ABRACOL S.A EMA                              C000000000000000000000000000000000100010010000000000000000000000F0010000010750700520171201000101 00000000000000000000000000000000000000000000000000000000000000000000000000000000000000000000000000000000000000000N 00000000000NCONT   00    00000000000          00000000000000000000000000000000000000000000 000000000000000A000000000000000000000000000000000000000000000 000000000000000000000000000000000000000     00000000                                                                                                                        000000000000000000
F0010000010750700006000081102758700013552100000000000000000201712010002001C.I. ABRACOL S.A EMA                              D000000000000000000000000000000000100010010000000000000000000000F0010000010750700620171201000101 00000000000000000000000000000000000000000000000000000000000000000000000000000000000000000000000000000000000000000N 00000000000NCONT   00    00000000000          00000000000000000000000000000000000000000000 000000000000000A000000000000000000000000000000000000000000000 000000000000000000000000000000000000000     00000000                                                                                                                        000000000000000000
F0010000010750800001000081102758700013050500000000000000000201712010002001C.I. ABRACOL S.A EMA                              D000000139351400000000000000000000100010010000000000000000000000F0010000010750800120171201000101 00000000000000000000000000000000000000000000000000000000000000000000000000000000000000000000000000000000000000000N 00000000000NCONT   00    00000000000          00000000000000000000000000000000000000000000 000000000000000A000000000000000000000000000000000000000000000 000000000000000000000000000000000000000     00000000                                                                                                                        000000000000000000
F0010000010750800002000081102758700041450500000000000000000201712010002001C.I. ABRACOL S.A EMA                              C000000113410000000000000000000000100010010000000000000000000000F0010000010750800220171201000101 00000000000000000000000000000000000000000000000000000000000000000000000000000000000000000000000000000000000000000N 00000000000NCONT   00    00000000000          00000000000000000000000000000000000000000000 000000000000000A000000000000000000000000000000000000000000000 000000000000000000000000000000000000000     00000000                                                                                                                        000000000000000000
F0010000010750800003000081102758700041750100000000000000000201712010002001C.I. ABRACOL S.A EMA                              D000000003402300000000000000000000100010010000000000000000000000F0010000010750800320171201000101 00000000000000000000000000000000000000000000000000000000000000000000000000000000000000000000000000000000000000000N 00000000000NCONT   00    00000000000          00000000000000000000000000000000000000000000 000000000000000A000000000000000000000000000000000000000000000 000000000000000000000000000000000000000     00000000                                                                                                                        000000000000000000
