F0010000008178100001000007213653800011050500000000000000000201601280002001VICTOR ECHAVEZ                                    D000000001200000000000000000000000100010010000000000000000000000F0010000008178100120160128000101 00000000000000000000000000000000000000000000000000000000000000000000000000000000000000000000000000000000000000000N 00000000000NCONT   00    00000000000          00000000000000000000000000000000000000000000 000000000000000A000000000000000000000000000000000000000000000 000000000000000000000000000000000000000     00000000                                                                                                                        000000000000000000
F0010000008178100002000007213653800041450500000000000000000201601280002001VICTOR ECHAVEZ                                    C000000000950000000000000000000000100010010000000000000000000000F0010000008178100220160128000101 00000000000000000000000000000000000000000000000000000000000000000000000000000000000000000000000000000000000000000N 00000000000NCONT   00    00000000000          00000000000000000000000000000000000000000000 000000000000000A000000000000000000000000000000000000000000000 000000000000000000000000000000000000000     00000000                                                                                                                        000000000000000000
F0010000008178100003000007213653800042505000000000000000000201601280002001VICTOR ECHAVEZ                                    C000000000250000000000000000000000100010010000000000000000000000F0010000008178100320160128000101 00000000000000000000000000000000000000000000000000000000000000000000000000000000000000000000000000000000000000000N 00000000000NCONT   00    00000000000          00000000000000000000000000000000000000000000 000000000000000A000000000000000000000000000000000000000000000 000000000000000000000000000000000000000     00000000                                                                                                                        000000000000000000
F0010000008178100004000007213653800023658300000000000000000201601280002001VICTOR ECHAVEZ                                    C000000000007600000000000000000000100010010000000000000000000000F0010000008178100420160128000101 00000000000000000000000000000000000000000000000000000000000000000000000000000000000000000000000000000000000000000N 00000000000NCONT   00    00000000000          00000000000000000000000000000000000000000000 000000000000000A000000000000000000000000000000000000000000000 000000000000000000000000000000000000000     00000000                                                                                                                        000000000000000000
F0010000008178100005000007213653800013552100000000000000000201601280002001VICTOR ECHAVEZ                                    D000000000007600000000000000000000100010010000000000000000000000F0010000008178100520160128000101 00000000000000000000000000000000000000000000000000000000000000000000000000000000000000000000000000000000000000000N 00000000000NCONT   00    00000000000          00000000000000000000000000000000000000000000 000000000000000A000000000000000000000000000000000000000000000 000000000000000000000000000000000000000     00000000                                                                                                                        000000000000000000
F0010000008178200001000000876579700011050500000000000000000201601280002001JOSE LUIS MUÑOZ                                  D000000001500000000000000000000000100010010000000000000000000000F0010000008178200120160128000101 00000000000000000000000000000000000000000000000000000000000000000000000000000000000000000000000000000000000000000N 00000000000NCONT   00    00000000000          00000000000000000000000000000000000000000000 000000000000000A000000000000000000000000000000000000000000000 000000000000000000000000000000000000000     00000000                                                                                                                        000000000000000000
F0010000008178200002000000876579700041450500000000000000000201601280002001JOSE LUIS MUÑOZ                                  C000000001300000000000000000000000100010010000000000000000000000F0010000008178200220160128000101 00000000000000000000000000000000000000000000000000000000000000000000000000000000000000000000000000000000000000000N 00000000000NCONT   00    00000000000          00000000000000000000000000000000000000000000 000000000000000A000000000000000000000000000000000000000000000 000000000000000000000000000000000000000     00000000                                                                                                                        000000000000000000
F0010000008178200003000000876579700042505000000000000000000201601280002001JOSE LUIS MUÑOZ                                  C000000000200000000000000000000000100010010000000000000000000000F0010000008178200320160128000101 00000000000000000000000000000000000000000000000000000000000000000000000000000000000000000000000000000000000000000N 00000000000NCONT   00    00000000000          00000000000000000000000000000000000000000000 000000000000000A000000000000000000000000000000000000000000000 000000000000000000000000000000000000000     00000000                                                                                                                        000000000000000000
F0010000008178200004000000876579700023658300000000000000000201601280002001JOSE LUIS MUÑOZ                                  C000000000010400000000000000000000100010010000000000000000000000F0010000008178200420160128000101 00000000000000000000000000000000000000000000000000000000000000000000000000000000000000000000000000000000000000000N 00000000000NCONT   00    00000000000          00000000000000000000000000000000000000000000 000000000000000A000000000000000000000000000000000000000000000 000000000000000000000000000000000000000     00000000                                                                                                                        000000000000000000
F0010000008178200005000000876579700013552100000000000000000201601280002001JOSE LUIS MUÑOZ                                  D000000000010400000000000000000000100010010000000000000000000000F0010000008178200520160128000101 00000000000000000000000000000000000000000000000000000000000000000000000000000000000000000000000000000000000000000N 00000000000NCONT   00    00000000000          00000000000000000000000000000000000000000000 000000000000000A000000000000000000000000000000000000000000000 000000000000000000000000000000000000000     00000000                                                                                                                        000000000000000000
F0010000008178300001000000744496800011050500000000000000000201601280002001TOMAS SANCHEZ                                     D000000002000000000000000000000000100010010000000000000000000000F0010000008178300120160128000101 00000000000000000000000000000000000000000000000000000000000000000000000000000000000000000000000000000000000000000N 00000000000NCONT   00    00000000000          00000000000000000000000000000000000000000000 000000000000000A000000000000000000000000000000000000000000000 000000000000000000000000000000000000000     00000000                                                                                                                        000000000000000000
F0010000008178300002000000744496800041450500000000000000000201601280002001TOMAS SANCHEZ                                     C000000001800000000000000000000000100010010000000000000000000000F0010000008178300220160128000101 00000000000000000000000000000000000000000000000000000000000000000000000000000000000000000000000000000000000000000N 00000000000NCONT   00    00000000000          00000000000000000000000000000000000000000000 000000000000000A000000000000000000000000000000000000000000000 000000000000000000000000000000000000000     00000000                                                                                                                        000000000000000000
F0010000008178300003000000744496800042505000000000000000000201601280002001TOMAS SANCHEZ                                     C000000000200000000000000000000000100010010000000000000000000000F0010000008178300320160128000101 00000000000000000000000000000000000000000000000000000000000000000000000000000000000000000000000000000000000000000N 00000000000NCONT   00    00000000000          00000000000000000000000000000000000000000000 000000000000000A000000000000000000000000000000000000000000000 000000000000000000000000000000000000000     00000000                                                                                                                        000000000000000000
F0010000008178300004000000744496800023658300000000000000000201601280002001TOMAS SANCHEZ                                     C000000000014400000000000000000000100010010000000000000000000000F0010000008178300420160128000101 00000000000000000000000000000000000000000000000000000000000000000000000000000000000000000000000000000000000000000N 00000000000NCONT   00    00000000000          00000000000000000000000000000000000000000000 000000000000000A000000000000000000000000000000000000000000000 000000000000000000000000000000000000000     00000000                                                                                                                        000000000000000000
F0010000008178300005000000744496800013552100000000000000000201601280002001TOMAS SANCHEZ                                     D000000000014400000000000000000000100010010000000000000000000000F0010000008178300520160128000101 00000000000000000000000000000000000000000000000000000000000000000000000000000000000000000000000000000000000000000N 00000000000NCONT   00    00000000000          00000000000000000000000000000000000000000000 000000000000000A000000000000000000000000000000000000000000000 000000000000000000000000000000000000000     00000000                                                                                                                        000000000000000000
F0010000008178400001000000868846900011050500000000000000000201601280002001NICOLAS DE LA HOZ SAUCEDO                         D000000001500000000000000000000000100010010000000000000000000000F0010000008178400120160128000101 00000000000000000000000000000000000000000000000000000000000000000000000000000000000000000000000000000000000000000N 00000000000NCONT   00    00000000000          00000000000000000000000000000000000000000000 000000000000000A000000000000000000000000000000000000000000000 000000000000000000000000000000000000000     00000000                                                                                                                        000000000000000000
F0010000008178400002000000868846900041450500000000000000000201601280002001NICOLAS DE LA HOZ SAUCEDO                         C000000001000000000000000000000000100010010000000000000000000000F0010000008178400220160128000101 00000000000000000000000000000000000000000000000000000000000000000000000000000000000000000000000000000000000000000N 00000000000NCONT   00    00000000000          00000000000000000000000000000000000000000000 000000000000000A000000000000000000000000000000000000000000000 000000000000000000000000000000000000000     00000000                                                                                                                        000000000000000000
F0010000008178400003000000868846900042505000000000000000000201601280002001NICOLAS DE LA HOZ SAUCEDO                         C000000000500000000000000000000000100010010000000000000000000000F0010000008178400320160128000101 00000000000000000000000000000000000000000000000000000000000000000000000000000000000000000000000000000000000000000N 00000000000NCONT   00    00000000000          00000000000000000000000000000000000000000000 000000000000000A000000000000000000000000000000000000000000000 000000000000000000000000000000000000000     00000000                                                                                                                        000000000000000000
F0010000008178400004000000868846900023658300000000000000000201601280002001NICOLAS DE LA HOZ SAUCEDO                         C000000000008000000000000000000000100010010000000000000000000000F0010000008178400420160128000101 00000000000000000000000000000000000000000000000000000000000000000000000000000000000000000000000000000000000000000N 00000000000NCONT   00    00000000000          00000000000000000000000000000000000000000000 000000000000000A000000000000000000000000000000000000000000000 000000000000000000000000000000000000000     00000000                                                                                                                        000000000000000000
F0010000008178400005000000868846900013552100000000000000000201601280002001NICOLAS DE LA HOZ SAUCEDO                         D000000000008000000000000000000000100010010000000000000000000000F0010000008178400520160128000101 00000000000000000000000000000000000000000000000000000000000000000000000000000000000000000000000000000000000000000N 00000000000NCONT   00    00000000000          00000000000000000000000000000000000000000000 000000000000000A000000000000000000000000000000000000000000000 000000000000000000000000000000000000000     00000000                                                                                                                        000000000000000000
F0010000008178500001000086006706200011050500000000000000000201601280002001FERROALUMINIOS S.A.S                              D000000003000000000000000000000000100010010000000000000000000000F0010000008178500120160128000101 00000000000000000000000000000000000000000000000000000000000000000000000000000000000000000000000000000000000000000N 00000000000NCONT   00    00000000000          00000000000000000000000000000000000000000000 000000000000000A000000000000000000000000000000000000000000000 000000000000000000000000000000000000000     00000000                                                                                                                        000000000000000000
F0010000008178500002000086006706200041450500000000000000000201601280002001FERROALUMINIOS S.A.S                              C000000002600000000000000000000000100010010000000000000000000000F0010000008178500220160128000101 00000000000000000000000000000000000000000000000000000000000000000000000000000000000000000000000000000000000000000N 00000000000NCONT   00    00000000000          00000000000000000000000000000000000000000000 000000000000000A000000000000000000000000000000000000000000000 000000000000000000000000000000000000000     00000000                                                                                                                        000000000000000000
F0010000008178500003000086006706200042505000000000000000000201601280002001FERROALUMINIOS S.A.S                              C000000000400000000000000000000000100010010000000000000000000000F0010000008178500320160128000101 00000000000000000000000000000000000000000000000000000000000000000000000000000000000000000000000000000000000000000N 00000000000NCONT   00    00000000000          00000000000000000000000000000000000000000000 000000000000000A000000000000000000000000000000000000000000000 000000000000000000000000000000000000000     00000000                                                                                                                        000000000000000000
F0010000008178500004000086006706200023658300000000000000000201601280002001FERROALUMINIOS S.A.S                              C000000000020800000000000000000000100010010000000000000000000000F0010000008178500420160128000101 00000000000000000000000000000000000000000000000000000000000000000000000000000000000000000000000000000000000000000N 00000000000NCONT   00    00000000000          00000000000000000000000000000000000000000000 000000000000000A000000000000000000000000000000000000000000000 000000000000000000000000000000000000000     00000000                                                                                                                        000000000000000000
F0010000008178500005000086006706200013552100000000000000000201601280002001FERROALUMINIOS S.A.S                              D000000000020800000000000000000000100010010000000000000000000000F0010000008178500520160128000101 00000000000000000000000000000000000000000000000000000000000000000000000000000000000000000000000000000000000000000N 00000000000NCONT   00    00000000000          00000000000000000000000000000000000000000000 000000000000000A000000000000000000000000000000000000000000000 000000000000000000000000000000000000000     00000000                                                                                                                        000000000000000000
F0010000008178600001000003207718300011050500000000000000000201601280002001MARIA GILMA RAMIREZ GARCIA                        D000000003000000000000000000000000100010010000000000000000000000F0010000008178600120160128000101 00000000000000000000000000000000000000000000000000000000000000000000000000000000000000000000000000000000000000000N 00000000000NCONT   00    00000000000          00000000000000000000000000000000000000000000 000000000000000A000000000000000000000000000000000000000000000 000000000000000000000000000000000000000     00000000                                                                                                                        000000000000000000
F0010000008178600002000003207718300041450500000000000000000201601280002001MARIA GILMA RAMIREZ GARCIA                        C000000002700000000000000000000000100010010000000000000000000000F0010000008178600220160128000101 00000000000000000000000000000000000000000000000000000000000000000000000000000000000000000000000000000000000000000N 00000000000NCONT   00    00000000000          00000000000000000000000000000000000000000000 000000000000000A000000000000000000000000000000000000000000000 000000000000000000000000000000000000000     00000000                                                                                                                        000000000000000000
F0010000008178600003000003207718300042505000000000000000000201601280002001MARIA GILMA RAMIREZ GARCIA                        C000000000300000000000000000000000100010010000000000000000000000F0010000008178600320160128000101 00000000000000000000000000000000000000000000000000000000000000000000000000000000000000000000000000000000000000000N 00000000000NCONT   00    00000000000          00000000000000000000000000000000000000000000 000000000000000A000000000000000000000000000000000000000000000 000000000000000000000000000000000000000     00000000                                                                                                                        000000000000000000
F0010000008178600004000003207718300023658300000000000000000201601280002001MARIA GILMA RAMIREZ GARCIA                        C000000000021600000000000000000000100010010000000000000000000000F0010000008178600420160128000101 00000000000000000000000000000000000000000000000000000000000000000000000000000000000000000000000000000000000000000N 00000000000NCONT   00    00000000000          00000000000000000000000000000000000000000000 000000000000000A000000000000000000000000000000000000000000000 000000000000000000000000000000000000000     00000000                                                                                                                        000000000000000000
F0010000008178600005000003207718300013552100000000000000000201601280002001MARIA GILMA RAMIREZ GARCIA                        D000000000021600000000000000000000100010010000000000000000000000F0010000008178600520160128000101 00000000000000000000000000000000000000000000000000000000000000000000000000000000000000000000000000000000000000000N 00000000000NCONT   00    00000000000          00000000000000000000000000000000000000000000 000000000000000A000000000000000000000000000000000000000000000 000000000000000000000000000000000000000     00000000                                                                                                                        000000000000000000
F0010000008178700001000003207718300011050500000000000000000201601280002001MARIA GILMA RAMIREZ GARCIA                        D000000004000000000000000000000000100010010000000000000000000000F0010000008178700120160128000101 00000000000000000000000000000000000000000000000000000000000000000000000000000000000000000000000000000000000000000N 00000000000NCONT   00    00000000000          00000000000000000000000000000000000000000000 000000000000000A000000000000000000000000000000000000000000000 000000000000000000000000000000000000000     00000000                                                                                                                        000000000000000000
F0010000008178700002000003207718300041450500000000000000000201601280002001MARIA GILMA RAMIREZ GARCIA                        C000000002400000000000000000000000100010010000000000000000000000F0010000008178700220160128000101 00000000000000000000000000000000000000000000000000000000000000000000000000000000000000000000000000000000000000000N 00000000000NCONT   00    00000000000          00000000000000000000000000000000000000000000 000000000000000A000000000000000000000000000000000000000000000 000000000000000000000000000000000000000     00000000                                                                                                                        000000000000000000
F0010000008178700003000003207718300042505000000000000000000201601280002001MARIA GILMA RAMIREZ GARCIA                        C000000001600000000000000000000000100010010000000000000000000000F0010000008178700320160128000101 00000000000000000000000000000000000000000000000000000000000000000000000000000000000000000000000000000000000000000N 00000000000NCONT   00    00000000000          00000000000000000000000000000000000000000000 000000000000000A000000000000000000000000000000000000000000000 000000000000000000000000000000000000000     00000000                                                                                                                        000000000000000000
F0010000008178700004000003207718300023658300000000000000000201601280002001MARIA GILMA RAMIREZ GARCIA                        C000000000019200000000000000000000100010010000000000000000000000F0010000008178700420160128000101 00000000000000000000000000000000000000000000000000000000000000000000000000000000000000000000000000000000000000000N 00000000000NCONT   00    00000000000          00000000000000000000000000000000000000000000 000000000000000A000000000000000000000000000000000000000000000 000000000000000000000000000000000000000     00000000                                                                                                                        000000000000000000
F0010000008178700005000003207718300013552100000000000000000201601280002001MARIA GILMA RAMIREZ GARCIA                        D000000000019200000000000000000000100010010000000000000000000000F0010000008178700520160128000101 00000000000000000000000000000000000000000000000000000000000000000000000000000000000000000000000000000000000000000N 00000000000NCONT   00    00000000000          00000000000000000000000000000000000000000000 000000000000000A000000000000000000000000000000000000000000000 000000000000000000000000000000000000000     00000000                                                                                                                        000000000000000000
F0010000008178800001000003207718300011050500000000000000000201601280002001MARIA GILMA RAMIREZ GARCIA                        D000000003600000000000000000000000100010010000000000000000000000F0010000008178800120160128000101 00000000000000000000000000000000000000000000000000000000000000000000000000000000000000000000000000000000000000000N 00000000000NCONT   00    00000000000          00000000000000000000000000000000000000000000 000000000000000A000000000000000000000000000000000000000000000 000000000000000000000000000000000000000     00000000                                                                                                                        000000000000000000
F0010000008178800002000003207718300041450500000000000000000201601280002001MARIA GILMA RAMIREZ GARCIA                        C000000002400000000000000000000000100010010000000000000000000000F0010000008178800220160128000101 00000000000000000000000000000000000000000000000000000000000000000000000000000000000000000000000000000000000000000N 00000000000NCONT   00    00000000000          00000000000000000000000000000000000000000000 000000000000000A000000000000000000000000000000000000000000000 000000000000000000000000000000000000000     00000000                                                                                                                        000000000000000000
F0010000008178800003000003207718300042505000000000000000000201601280002001MARIA GILMA RAMIREZ GARCIA                        C000000001200000000000000000000000100010010000000000000000000000F0010000008178800320160128000101 00000000000000000000000000000000000000000000000000000000000000000000000000000000000000000000000000000000000000000N 00000000000NCONT   00    00000000000          00000000000000000000000000000000000000000000 000000000000000A000000000000000000000000000000000000000000000 000000000000000000000000000000000000000     00000000                                                                                                                        000000000000000000
F0010000008178800004000003207718300023658300000000000000000201601280002001MARIA GILMA RAMIREZ GARCIA                        C000000000019200000000000000000000100010010000000000000000000000F0010000008178800420160128000101 00000000000000000000000000000000000000000000000000000000000000000000000000000000000000000000000000000000000000000N 00000000000NCONT   00    00000000000          00000000000000000000000000000000000000000000 000000000000000A000000000000000000000000000000000000000000000 000000000000000000000000000000000000000     00000000                                                                                                                        000000000000000000
F0010000008178800005000003207718300013552100000000000000000201601280002001MARIA GILMA RAMIREZ GARCIA                        D000000000019200000000000000000000100010010000000000000000000000F0010000008178800520160128000101 00000000000000000000000000000000000000000000000000000000000000000000000000000000000000000000000000000000000000000N 00000000000NCONT   00    00000000000          00000000000000000000000000000000000000000000 000000000000000A000000000000000000000000000000000000000000000 000000000000000000000000000000000000000     00000000                                                                                                                        000000000000000000
F0010000008178900001000003207718300011050500000000000000000201601280002001MARIA GILMA RAMIREZ GARCIA                        D000000001800000000000000000000000100010010000000000000000000000F0010000008178900120160128000101 00000000000000000000000000000000000000000000000000000000000000000000000000000000000000000000000000000000000000000N 00000000000NCONT   00    00000000000          00000000000000000000000000000000000000000000 000000000000000A000000000000000000000000000000000000000000000 000000000000000000000000000000000000000     00000000                                                                                                                        000000000000000000
F0010000008178900002000003207718300041450500000000000000000201601280002001MARIA GILMA RAMIREZ GARCIA                        C000000001200000000000000000000000100010010000000000000000000000F0010000008178900220160128000101 00000000000000000000000000000000000000000000000000000000000000000000000000000000000000000000000000000000000000000N 00000000000NCONT   00    00000000000          00000000000000000000000000000000000000000000 000000000000000A000000000000000000000000000000000000000000000 000000000000000000000000000000000000000     00000000                                                                                                                        000000000000000000
F0010000008178900003000003207718300042505000000000000000000201601280002001MARIA GILMA RAMIREZ GARCIA                        C000000000600000000000000000000000100010010000000000000000000000F0010000008178900320160128000101 00000000000000000000000000000000000000000000000000000000000000000000000000000000000000000000000000000000000000000N 00000000000NCONT   00    00000000000          00000000000000000000000000000000000000000000 000000000000000A000000000000000000000000000000000000000000000 000000000000000000000000000000000000000     00000000                                                                                                                        000000000000000000
F0010000008178900004000003207718300023658300000000000000000201601280002001MARIA GILMA RAMIREZ GARCIA                        C000000000009600000000000000000000100010010000000000000000000000F0010000008178900420160128000101 00000000000000000000000000000000000000000000000000000000000000000000000000000000000000000000000000000000000000000N 00000000000NCONT   00    00000000000          00000000000000000000000000000000000000000000 000000000000000A000000000000000000000000000000000000000000000 000000000000000000000000000000000000000     00000000                                                                                                                        000000000000000000
F0010000008178900005000003207718300013552100000000000000000201601280002001MARIA GILMA RAMIREZ GARCIA                        D000000000009600000000000000000000100010010000000000000000000000F0010000008178900520160128000101 00000000000000000000000000000000000000000000000000000000000000000000000000000000000000000000000000000000000000000N 00000000000NCONT   00    00000000000          00000000000000000000000000000000000000000000 000000000000000A000000000000000000000000000000000000000000000 000000000000000000000000000000000000000     00000000                                                                                                                        000000000000000000
F0010000008179000001000090015039900011050500000000000000000201601280002001METALMAX DE COLOMBIA S.A.S                        D000000002500000000000000000000000100010010000000000000000000000F0010000008179000120160128000101 00000000000000000000000000000000000000000000000000000000000000000000000000000000000000000000000000000000000000000N 00000000000NCONT   00    00000000000          00000000000000000000000000000000000000000000 000000000000000A000000000000000000000000000000000000000000000 000000000000000000000000000000000000000     00000000                                                                                                                        000000000000000000
F0010000008179000002000090015039900041450500000000000000000201601280002001METALMAX DE COLOMBIA S.A.S                        C000000002400000000000000000000000100010010000000000000000000000F0010000008179000220160128000101 00000000000000000000000000000000000000000000000000000000000000000000000000000000000000000000000000000000000000000N 00000000000NCONT   00    00000000000          00000000000000000000000000000000000000000000 000000000000000A000000000000000000000000000000000000000000000 000000000000000000000000000000000000000     00000000                                                                                                                        000000000000000000
F0010000008179000003000090015039900042505000000000000000000201601280002001METALMAX DE COLOMBIA S.A.S                        C000000000100000000000000000000000100010010000000000000000000000F0010000008179000320160128000101 00000000000000000000000000000000000000000000000000000000000000000000000000000000000000000000000000000000000000000N 00000000000NCONT   00    00000000000          00000000000000000000000000000000000000000000 000000000000000A000000000000000000000000000000000000000000000 000000000000000000000000000000000000000     00000000                                                                                                                        000000000000000000
F0010000008179000004000090015039900023658300000000000000000201601280002001METALMAX DE COLOMBIA S.A.S                        C000000000019200000000000000000000100010010000000000000000000000F0010000008179000420160128000101 00000000000000000000000000000000000000000000000000000000000000000000000000000000000000000000000000000000000000000N 00000000000NCONT   00    00000000000          00000000000000000000000000000000000000000000 000000000000000A000000000000000000000000000000000000000000000 000000000000000000000000000000000000000     00000000                                                                                                                        000000000000000000
F0010000008179000005000090015039900013552100000000000000000201601280002001METALMAX DE COLOMBIA S.A.S                        D000000000019200000000000000000000100010010000000000000000000000F0010000008179000520160128000101 00000000000000000000000000000000000000000000000000000000000000000000000000000000000000000000000000000000000000000N 00000000000NCONT   00    00000000000          00000000000000000000000000000000000000000000 000000000000000A000000000000000000000000000000000000000000000 000000000000000000000000000000000000000     00000000                                                                                                                        000000000000000000
F0010000008179100001000001502923600011050500000000000000000201601280002001ALCIDES MARTINEZ MARTINEZ                         D000000001300000000000000000000000100010010000000000000000000000F0010000008179100120160128000101 00000000000000000000000000000000000000000000000000000000000000000000000000000000000000000000000000000000000000000N 00000000000NCONT   00    00000000000          00000000000000000000000000000000000000000000 000000000000000A000000000000000000000000000000000000000000000 000000000000000000000000000000000000000     00000000                                                                                                                        000000000000000000
F0010000008179100002000001502923600041450500000000000000000201601280002001ALCIDES MARTINEZ MARTINEZ                         C000000000900000000000000000000000100010010000000000000000000000F0010000008179100220160128000101 00000000000000000000000000000000000000000000000000000000000000000000000000000000000000000000000000000000000000000N 00000000000NCONT   00    00000000000          00000000000000000000000000000000000000000000 000000000000000A000000000000000000000000000000000000000000000 000000000000000000000000000000000000000     00000000                                                                                                                        000000000000000000
F0010000008179100003000001502923600042505000000000000000000201601280002001ALCIDES MARTINEZ MARTINEZ                         C000000000400000000000000000000000100010010000000000000000000000F0010000008179100320160128000101 00000000000000000000000000000000000000000000000000000000000000000000000000000000000000000000000000000000000000000N 00000000000NCONT   00    00000000000          00000000000000000000000000000000000000000000 000000000000000A000000000000000000000000000000000000000000000 000000000000000000000000000000000000000     00000000                                                                                                                        000000000000000000
F0010000008179100004000001502923600023658300000000000000000201601280002001ALCIDES MARTINEZ MARTINEZ                         C000000000007200000000000000000000100010010000000000000000000000F0010000008179100420160128000101 00000000000000000000000000000000000000000000000000000000000000000000000000000000000000000000000000000000000000000N 00000000000NCONT   00    00000000000          00000000000000000000000000000000000000000000 000000000000000A000000000000000000000000000000000000000000000 000000000000000000000000000000000000000     00000000                                                                                                                        000000000000000000
F0010000008179100005000001502923600013552100000000000000000201601280002001ALCIDES MARTINEZ MARTINEZ                         D000000000007200000000000000000000100010010000000000000000000000F0010000008179100520160128000101 00000000000000000000000000000000000000000000000000000000000000000000000000000000000000000000000000000000000000000N 00000000000NCONT   00    00000000000          00000000000000000000000000000000000000000000 000000000000000A000000000000000000000000000000000000000000000 000000000000000000000000000000000000000     00000000                                                                                                                        000000000000000000
F0010000008179200001000090020547900011050500000000000000000201601280002001COMERCIALIZADORA DAC DEL CARIBE S.A.S.            D000000003506900000000000000000000100010010000000000000000000000F0010000008179200120160128000101 00000000000000000000000000000000000000000000000000000000000000000000000000000000000000000000000000000000000000000N 00000000000NCONT   00    00000000000          00000000000000000000000000000000000000000000 000000000000000A000000000000000000000000000000000000000000000 000000000000000000000000000000000000000     00000000                                                                                                                        000000000000000000
F0010000008179200002000090020547900041450500000000000000000201601280002001COMERCIALIZADORA DAC DEL CARIBE S.A.S.            C000000002800000000000000000000000100010010000000000000000000000F0010000008179200220160128000101 00000000000000000000000000000000000000000000000000000000000000000000000000000000000000000000000000000000000000000N 00000000000NCONT   00    00000000000          00000000000000000000000000000000000000000000 000000000000000A000000000000000000000000000000000000000000000 000000000000000000000000000000000000000     00000000                                                                                                                        000000000000000000
F0010000008179200003000090020547900042505000000000000000000201601280002001COMERCIALIZADORA DAC DEL CARIBE S.A.S.            C000000000706900000000000000000000100010010000000000000000000000F0010000008179200320160128000101 00000000000000000000000000000000000000000000000000000000000000000000000000000000000000000000000000000000000000000N 00000000000NCONT   00    00000000000          00000000000000000000000000000000000000000000 000000000000000A000000000000000000000000000000000000000000000 000000000000000000000000000000000000000     00000000                                                                                                                        000000000000000000
F0010000008179200004000090020547900023658300000000000000000201601280002001COMERCIALIZADORA DAC DEL CARIBE S.A.S.            C000000000022400000000000000000000100010010000000000000000000000F0010000008179200420160128000101 00000000000000000000000000000000000000000000000000000000000000000000000000000000000000000000000000000000000000000N 00000000000NCONT   00    00000000000          00000000000000000000000000000000000000000000 000000000000000A000000000000000000000000000000000000000000000 000000000000000000000000000000000000000     00000000                                                                                                                        000000000000000000
F0010000008179200005000090020547900013552100000000000000000201601280002001COMERCIALIZADORA DAC DEL CARIBE S.A.S.            D000000000022400000000000000000000100010010000000000000000000000F0010000008179200520160128000101 00000000000000000000000000000000000000000000000000000000000000000000000000000000000000000000000000000000000000000N 00000000000NCONT   00    00000000000          00000000000000000000000000000000000000000000 000000000000000A000000000000000000000000000000000000000000000 000000000000000000000000000000000000000     00000000                                                                                                                        000000000000000000
F0010000008179300001000080019113900011050500000000000000000201601280002001COMERCIAL NOVAPEL LTDA                            D000000000700000000000000000000000100010010000000000000000000000F0010000008179300120160128000101 00000000000000000000000000000000000000000000000000000000000000000000000000000000000000000000000000000000000000000N 00000000000NCONT   00    00000000000          00000000000000000000000000000000000000000000 000000000000000A000000000000000000000000000000000000000000000 000000000000000000000000000000000000000     00000000                                                                                                                        000000000000000000
F0010000008179300002000080019113900041450500000000000000000201601280002001COMERCIAL NOVAPEL LTDA                            C000000000600000000000000000000000100010010000000000000000000000F0010000008179300220160128000101 00000000000000000000000000000000000000000000000000000000000000000000000000000000000000000000000000000000000000000N 00000000000NCONT   00    00000000000          00000000000000000000000000000000000000000000 000000000000000A000000000000000000000000000000000000000000000 000000000000000000000000000000000000000     00000000                                                                                                                        000000000000000000
F0010000008179300003000080019113900042505000000000000000000201601280002001COMERCIAL NOVAPEL LTDA                            C000000000100000000000000000000000100010010000000000000000000000F0010000008179300320160128000101 00000000000000000000000000000000000000000000000000000000000000000000000000000000000000000000000000000000000000000N 00000000000NCONT   00    00000000000          00000000000000000000000000000000000000000000 000000000000000A000000000000000000000000000000000000000000000 000000000000000000000000000000000000000     00000000                                                                                                                        000000000000000000
F0010000008179300004000080019113900023658300000000000000000201601280002001COMERCIAL NOVAPEL LTDA                            C000000000004800000000000000000000100010010000000000000000000000F0010000008179300420160128000101 00000000000000000000000000000000000000000000000000000000000000000000000000000000000000000000000000000000000000000N 00000000000NCONT   00    00000000000          00000000000000000000000000000000000000000000 000000000000000A000000000000000000000000000000000000000000000 000000000000000000000000000000000000000     00000000                                                                                                                        000000000000000000
F0010000008179300005000080019113900013552100000000000000000201601280002001COMERCIAL NOVAPEL LTDA                            D000000000004800000000000000000000100010010000000000000000000000F0010000008179300520160128000101 00000000000000000000000000000000000000000000000000000000000000000000000000000000000000000000000000000000000000000N 00000000000NCONT   00    00000000000          00000000000000000000000000000000000000000000 000000000000000A000000000000000000000000000000000000000000000 000000000000000000000000000000000000000     00000000                                                                                                                        000000000000000000
F0010000008179400001000090039833800011050500000000000000000201601280002001AGROGANADERO DEL CARIBE S.A.S                     D000000003000000000000000000000000100010010000000000000000000000F0010000008179400120160128000101 00000000000000000000000000000000000000000000000000000000000000000000000000000000000000000000000000000000000000000N 00000000000NCONT   00    00000000000          00000000000000000000000000000000000000000000 000000000000000A000000000000000000000000000000000000000000000 000000000000000000000000000000000000000     00000000                                                                                                                        000000000000000000
F0010000008179400002000090039833800041450500000000000000000201601280002001AGROGANADERO DEL CARIBE S.A.S                     C000000002500000000000000000000000100010010000000000000000000000F0010000008179400220160128000101 00000000000000000000000000000000000000000000000000000000000000000000000000000000000000000000000000000000000000000N 00000000000NCONT   00    00000000000          00000000000000000000000000000000000000000000 000000000000000A000000000000000000000000000000000000000000000 000000000000000000000000000000000000000     00000000                                                                                                                        000000000000000000
F0010000008179400003000090039833800042505000000000000000000201601280002001AGROGANADERO DEL CARIBE S.A.S                     C000000000500000000000000000000000100010010000000000000000000000F0010000008179400320160128000101 00000000000000000000000000000000000000000000000000000000000000000000000000000000000000000000000000000000000000000N 00000000000NCONT   00    00000000000          00000000000000000000000000000000000000000000 000000000000000A000000000000000000000000000000000000000000000 000000000000000000000000000000000000000     00000000                                                                                                                        000000000000000000
F0010000008179400004000090039833800023658300000000000000000201601280002001AGROGANADERO DEL CARIBE S.A.S                     C000000000020000000000000000000000100010010000000000000000000000F0010000008179400420160128000101 00000000000000000000000000000000000000000000000000000000000000000000000000000000000000000000000000000000000000000N 00000000000NCONT   00    00000000000          00000000000000000000000000000000000000000000 000000000000000A000000000000000000000000000000000000000000000 000000000000000000000000000000000000000     00000000                                                                                                                        000000000000000000
F0010000008179400005000090039833800013552100000000000000000201601280002001AGROGANADERO DEL CARIBE S.A.S                     D000000000020000000000000000000000100010010000000000000000000000F0010000008179400520160128000101 00000000000000000000000000000000000000000000000000000000000000000000000000000000000000000000000000000000000000000N 00000000000NCONT   00    00000000000          00000000000000000000000000000000000000000000 000000000000000A000000000000000000000000000000000000000000000 000000000000000000000000000000000000000     00000000                                                                                                                        000000000000000000
F0010000008179500001000003314755400011050500000000000000000201601280002001RUMATEX DE COLOMBIA                               D000000001200000000000000000000000100010010000000000000000000000F0010000008179500120160128000101 00000000000000000000000000000000000000000000000000000000000000000000000000000000000000000000000000000000000000000N 00000000000NCONT   00    00000000000          00000000000000000000000000000000000000000000 000000000000000A000000000000000000000000000000000000000000000 000000000000000000000000000000000000000     00000000                                                                                                                        000000000000000000
F0010000008179500002000003314755400041450500000000000000000201601280002001RUMATEX DE COLOMBIA                               C000000000900000000000000000000000100010010000000000000000000000F0010000008179500220160128000101 00000000000000000000000000000000000000000000000000000000000000000000000000000000000000000000000000000000000000000N 00000000000NCONT   00    00000000000          00000000000000000000000000000000000000000000 000000000000000A000000000000000000000000000000000000000000000 000000000000000000000000000000000000000     00000000                                                                                                                        000000000000000000
F0010000008179500003000003314755400042505000000000000000000201601280002001RUMATEX DE COLOMBIA                               C000000000300000000000000000000000100010010000000000000000000000F0010000008179500320160128000101 00000000000000000000000000000000000000000000000000000000000000000000000000000000000000000000000000000000000000000N 00000000000NCONT   00    00000000000          00000000000000000000000000000000000000000000 000000000000000A000000000000000000000000000000000000000000000 000000000000000000000000000000000000000     00000000                                                                                                                        000000000000000000
F0010000008179500004000003314755400023658300000000000000000201601280002001RUMATEX DE COLOMBIA                               C000000000007200000000000000000000100010010000000000000000000000F0010000008179500420160128000101 00000000000000000000000000000000000000000000000000000000000000000000000000000000000000000000000000000000000000000N 00000000000NCONT   00    00000000000          00000000000000000000000000000000000000000000 000000000000000A000000000000000000000000000000000000000000000 000000000000000000000000000000000000000     00000000                                                                                                                        000000000000000000
F0010000008179500005000003314755400013552100000000000000000201601280002001RUMATEX DE COLOMBIA                               D000000000007200000000000000000000100010010000000000000000000000F0010000008179500520160128000101 00000000000000000000000000000000000000000000000000000000000000000000000000000000000000000000000000000000000000000N 00000000000NCONT   00    00000000000          00000000000000000000000000000000000000000000 000000000000000A000000000000000000000000000000000000000000000 000000000000000000000000000000000000000     00000000                                                                                                                        000000000000000000
F0010000008179600001000007200023300011050500000000000000000201601280002001WILLIAM ORTEGA                                    D000000001200000000000000000000000100010010000000000000000000000F0010000008179600120160128000101 00000000000000000000000000000000000000000000000000000000000000000000000000000000000000000000000000000000000000000N 00000000000NCONT   00    00000000000          00000000000000000000000000000000000000000000 000000000000000A000000000000000000000000000000000000000000000 000000000000000000000000000000000000000     00000000                                                                                                                        000000000000000000
F0010000008179600002000007200023300041450500000000000000000201601280002001WILLIAM ORTEGA                                    C000000001000000000000000000000000100010010000000000000000000000F0010000008179600220160128000101 00000000000000000000000000000000000000000000000000000000000000000000000000000000000000000000000000000000000000000N 00000000000NCONT   00    00000000000          00000000000000000000000000000000000000000000 000000000000000A000000000000000000000000000000000000000000000 000000000000000000000000000000000000000     00000000                                                                                                                        000000000000000000
F0010000008179600003000007200023300042505000000000000000000201601280002001WILLIAM ORTEGA                                    C000000000200000000000000000000000100010010000000000000000000000F0010000008179600320160128000101 00000000000000000000000000000000000000000000000000000000000000000000000000000000000000000000000000000000000000000N 00000000000NCONT   00    00000000000          00000000000000000000000000000000000000000000 000000000000000A000000000000000000000000000000000000000000000 000000000000000000000000000000000000000     00000000                                                                                                                        000000000000000000
F0010000008179600004000007200023300023658300000000000000000201601280002001WILLIAM ORTEGA                                    C000000000008000000000000000000000100010010000000000000000000000F0010000008179600420160128000101 00000000000000000000000000000000000000000000000000000000000000000000000000000000000000000000000000000000000000000N 00000000000NCONT   00    00000000000          00000000000000000000000000000000000000000000 000000000000000A000000000000000000000000000000000000000000000 000000000000000000000000000000000000000     00000000                                                                                                                        000000000000000000
F0010000008179600005000007200023300013552100000000000000000201601280002001WILLIAM ORTEGA                                    D000000000008000000000000000000000100010010000000000000000000000F0010000008179600520160128000101 00000000000000000000000000000000000000000000000000000000000000000000000000000000000000000000000000000000000000000N 00000000000NCONT   00    00000000000          00000000000000000000000000000000000000000000 000000000000000A000000000000000000000000000000000000000000000 000000000000000000000000000000000000000     00000000                                                                                                                        000000000000000000
F0010000008179700001000000431178400011050500000000000000000201601280002001EFRAIN ALVAREZ                                    D000000001890000000000000000000000100010010000000000000000000000F0010000008179700120160128000101 00000000000000000000000000000000000000000000000000000000000000000000000000000000000000000000000000000000000000000N 00000000000NCONT   00    00000000000          00000000000000000000000000000000000000000000 000000000000000A000000000000000000000000000000000000000000000 000000000000000000000000000000000000000     00000000                                                                                                                        000000000000000000
F0010000008179700002000000431178400041450500000000000000000201601280002001EFRAIN ALVAREZ                                    C000000001840000000000000000000000100010010000000000000000000000F0010000008179700220160128000101 00000000000000000000000000000000000000000000000000000000000000000000000000000000000000000000000000000000000000000N 00000000000NCONT   00    00000000000          00000000000000000000000000000000000000000000 000000000000000A000000000000000000000000000000000000000000000 000000000000000000000000000000000000000     00000000                                                                                                                        000000000000000000
F0010000008179700003000000431178400042505000000000000000000201601280002001EFRAIN ALVAREZ                                    C000000000050000000000000000000000100010010000000000000000000000F0010000008179700320160128000101 00000000000000000000000000000000000000000000000000000000000000000000000000000000000000000000000000000000000000000N 00000000000NCONT   00    00000000000          00000000000000000000000000000000000000000000 000000000000000A000000000000000000000000000000000000000000000 000000000000000000000000000000000000000     00000000                                                                                                                        000000000000000000
F0010000008179700004000000431178400023658300000000000000000201601280002001EFRAIN ALVAREZ                                    C000000000014700000000000000000000100010010000000000000000000000F0010000008179700420160128000101 00000000000000000000000000000000000000000000000000000000000000000000000000000000000000000000000000000000000000000N 00000000000NCONT   00    00000000000          00000000000000000000000000000000000000000000 000000000000000A000000000000000000000000000000000000000000000 000000000000000000000000000000000000000     00000000                                                                                                                        000000000000000000
F0010000008179700005000000431178400013552100000000000000000201601280002001EFRAIN ALVAREZ                                    D000000000014700000000000000000000100010010000000000000000000000F0010000008179700520160128000101 00000000000000000000000000000000000000000000000000000000000000000000000000000000000000000000000000000000000000000N 00000000000NCONT   00    00000000000          00000000000000000000000000000000000000000000 000000000000000A000000000000000000000000000000000000000000000 000000000000000000000000000000000000000     00000000                                                                                                                        000000000000000000
F0010000008179800001000000431178400011050500000000000000000201601280002001EFRAIN ALVAREZ                                    D000000001240000000000000000000000100010010000000000000000000000F0010000008179800120160128000101 00000000000000000000000000000000000000000000000000000000000000000000000000000000000000000000000000000000000000000N 00000000000NCONT   00    00000000000          00000000000000000000000000000000000000000000 000000000000000A000000000000000000000000000000000000000000000 000000000000000000000000000000000000000     00000000                                                                                                                        000000000000000000
F0010000008179800002000000431178400041450500000000000000000201601280002001EFRAIN ALVAREZ                                    C000000001190000000000000000000000100010010000000000000000000000F0010000008179800220160128000101 00000000000000000000000000000000000000000000000000000000000000000000000000000000000000000000000000000000000000000N 00000000000NCONT   00    00000000000          00000000000000000000000000000000000000000000 000000000000000A000000000000000000000000000000000000000000000 000000000000000000000000000000000000000     00000000                                                                                                                        000000000000000000
F0010000008179800003000000431178400042505000000000000000000201601280002001EFRAIN ALVAREZ                                    C000000000050000000000000000000000100010010000000000000000000000F0010000008179800320160128000101 00000000000000000000000000000000000000000000000000000000000000000000000000000000000000000000000000000000000000000N 00000000000NCONT   00    00000000000          00000000000000000000000000000000000000000000 000000000000000A000000000000000000000000000000000000000000000 000000000000000000000000000000000000000     00000000                                                                                                                        000000000000000000
F0010000008179800004000000431178400023658300000000000000000201601280002001EFRAIN ALVAREZ                                    C000000000009500000000000000000000100010010000000000000000000000F0010000008179800420160128000101 00000000000000000000000000000000000000000000000000000000000000000000000000000000000000000000000000000000000000000N 00000000000NCONT   00    00000000000          00000000000000000000000000000000000000000000 000000000000000A000000000000000000000000000000000000000000000 000000000000000000000000000000000000000     00000000                                                                                                                        000000000000000000
F0010000008179800005000000431178400013552100000000000000000201601280002001EFRAIN ALVAREZ                                    D000000000009500000000000000000000100010010000000000000000000000F0010000008179800520160128000101 00000000000000000000000000000000000000000000000000000000000000000000000000000000000000000000000000000000000000000N 00000000000NCONT   00    00000000000          00000000000000000000000000000000000000000000 000000000000000A000000000000000000000000000000000000000000000 000000000000000000000000000000000000000     00000000                                                                                                                        000000000000000000
F0010000008179900001000000431178400011050500000000000000000201601280002001EFRAIN ALVAREZ                                    D000000001670000000000000000000000100010010000000000000000000000F0010000008179900120160128000101 00000000000000000000000000000000000000000000000000000000000000000000000000000000000000000000000000000000000000000N 00000000000NCONT   00    00000000000          00000000000000000000000000000000000000000000 000000000000000A000000000000000000000000000000000000000000000 000000000000000000000000000000000000000     00000000                                                                                                                        000000000000000000
F0010000008179900002000000431178400041450500000000000000000201601280002001EFRAIN ALVAREZ                                    C000000001620000000000000000000000100010010000000000000000000000F0010000008179900220160128000101 00000000000000000000000000000000000000000000000000000000000000000000000000000000000000000000000000000000000000000N 00000000000NCONT   00    00000000000          00000000000000000000000000000000000000000000 000000000000000A000000000000000000000000000000000000000000000 000000000000000000000000000000000000000     00000000                                                                                                                        000000000000000000
F0010000008179900003000000431178400042505000000000000000000201601280002001EFRAIN ALVAREZ                                    C000000000050000000000000000000000100010010000000000000000000000F0010000008179900320160128000101 00000000000000000000000000000000000000000000000000000000000000000000000000000000000000000000000000000000000000000N 00000000000NCONT   00    00000000000          00000000000000000000000000000000000000000000 000000000000000A000000000000000000000000000000000000000000000 000000000000000000000000000000000000000     00000000                                                                                                                        000000000000000000
F0010000008179900004000000431178400023658300000000000000000201601280002001EFRAIN ALVAREZ                                    C000000000013000000000000000000000100010010000000000000000000000F0010000008179900420160128000101 00000000000000000000000000000000000000000000000000000000000000000000000000000000000000000000000000000000000000000N 00000000000NCONT   00    00000000000          00000000000000000000000000000000000000000000 000000000000000A000000000000000000000000000000000000000000000 000000000000000000000000000000000000000     00000000                                                                                                                        000000000000000000
F0010000008179900005000000431178400013552100000000000000000201601280002001EFRAIN ALVAREZ                                    D000000000013000000000000000000000100010010000000000000000000000F0010000008179900520160128000101 00000000000000000000000000000000000000000000000000000000000000000000000000000000000000000000000000000000000000000N 00000000000NCONT   00    00000000000          00000000000000000000000000000000000000000000 000000000000000A000000000000000000000000000000000000000000000 000000000000000000000000000000000000000     00000000                                                                                                                        000000000000000000
F0010000008180000001000000431178400011050500000000000000000201601280002001EFRAIN ALVAREZ                                    D000000003290000000000000000000000100010010000000000000000000000F0010000008180000120160128000101 00000000000000000000000000000000000000000000000000000000000000000000000000000000000000000000000000000000000000000N 00000000000NCONT   00    00000000000          00000000000000000000000000000000000000000000 000000000000000A000000000000000000000000000000000000000000000 000000000000000000000000000000000000000     00000000                                                                                                                        000000000000000000
F0010000008180000002000000431178400041450500000000000000000201601280002001EFRAIN ALVAREZ                                    C000000003240000000000000000000000100010010000000000000000000000F0010000008180000220160128000101 00000000000000000000000000000000000000000000000000000000000000000000000000000000000000000000000000000000000000000N 00000000000NCONT   00    00000000000          00000000000000000000000000000000000000000000 000000000000000A000000000000000000000000000000000000000000000 000000000000000000000000000000000000000     00000000                                                                                                                        000000000000000000
F0010000008180000003000000431178400042505000000000000000000201601280002001EFRAIN ALVAREZ                                    C000000000050000000000000000000000100010010000000000000000000000F0010000008180000320160128000101 00000000000000000000000000000000000000000000000000000000000000000000000000000000000000000000000000000000000000000N 00000000000NCONT   00    00000000000          00000000000000000000000000000000000000000000 000000000000000A000000000000000000000000000000000000000000000 000000000000000000000000000000000000000     00000000                                                                                                                        000000000000000000
F0010000008180000004000000431178400023658300000000000000000201601280002001EFRAIN ALVAREZ                                    C000000000025900000000000000000000100010010000000000000000000000F0010000008180000420160128000101 00000000000000000000000000000000000000000000000000000000000000000000000000000000000000000000000000000000000000000N 00000000000NCONT   00    00000000000          00000000000000000000000000000000000000000000 000000000000000A000000000000000000000000000000000000000000000 000000000000000000000000000000000000000     00000000                                                                                                                        000000000000000000
F0010000008180000005000000431178400013552100000000000000000201601280002001EFRAIN ALVAREZ                                    D000000000025900000000000000000000100010010000000000000000000000F0010000008180000520160128000101 00000000000000000000000000000000000000000000000000000000000000000000000000000000000000000000000000000000000000000N 00000000000NCONT   00    00000000000          00000000000000000000000000000000000000000000 000000000000000A000000000000000000000000000000000000000000000 000000000000000000000000000000000000000     00000000                                                                                                                        000000000000000000
F0010000008180100001000000431178400011050500000000000000000201601280002001EFRAIN ALVAREZ                                    D000000001010000000000000000000000100010010000000000000000000000F0010000008180100120160128000101 00000000000000000000000000000000000000000000000000000000000000000000000000000000000000000000000000000000000000000N 00000000000NCONT   00    00000000000          00000000000000000000000000000000000000000000 000000000000000A000000000000000000000000000000000000000000000 000000000000000000000000000000000000000     00000000                                                                                                                        000000000000000000
F0010000008180100002000000431178400041450500000000000000000201601280002001EFRAIN ALVAREZ                                    C000000000860000000000000000000000100010010000000000000000000000F0010000008180100220160128000101 00000000000000000000000000000000000000000000000000000000000000000000000000000000000000000000000000000000000000000N 00000000000NCONT   00    00000000000          00000000000000000000000000000000000000000000 000000000000000A000000000000000000000000000000000000000000000 000000000000000000000000000000000000000     00000000                                                                                                                        000000000000000000
F0010000008180100003000000431178400042505000000000000000000201601280002001EFRAIN ALVAREZ                                    C000000000150000000000000000000000100010010000000000000000000000F0010000008180100320160128000101 00000000000000000000000000000000000000000000000000000000000000000000000000000000000000000000000000000000000000000N 00000000000NCONT   00    00000000000          00000000000000000000000000000000000000000000 000000000000000A000000000000000000000000000000000000000000000 000000000000000000000000000000000000000     00000000                                                                                                                        000000000000000000
F0010000008180100004000000431178400023658300000000000000000201601280002001EFRAIN ALVAREZ                                    C000000000006900000000000000000000100010010000000000000000000000F0010000008180100420160128000101 00000000000000000000000000000000000000000000000000000000000000000000000000000000000000000000000000000000000000000N 00000000000NCONT   00    00000000000          00000000000000000000000000000000000000000000 000000000000000A000000000000000000000000000000000000000000000 000000000000000000000000000000000000000     00000000                                                                                                                        000000000000000000
F0010000008180100005000000431178400013552100000000000000000201601280002001EFRAIN ALVAREZ                                    D000000000006900000000000000000000100010010000000000000000000000F0010000008180100520160128000101 00000000000000000000000000000000000000000000000000000000000000000000000000000000000000000000000000000000000000000N 00000000000NCONT   00    00000000000          00000000000000000000000000000000000000000000 000000000000000A000000000000000000000000000000000000000000000 000000000000000000000000000000000000000     00000000                                                                                                                        000000000000000000
F0010000008180200001000000431178400011050500000000000000000201601280002001EFRAIN ALVAREZ                                    D000000000910000000000000000000000100010010000000000000000000000F0010000008180200120160128000101 00000000000000000000000000000000000000000000000000000000000000000000000000000000000000000000000000000000000000000N 00000000000NCONT   00    00000000000          00000000000000000000000000000000000000000000 000000000000000A000000000000000000000000000000000000000000000 000000000000000000000000000000000000000     00000000                                                                                                                        000000000000000000
F0010000008180200002000000431178400041450500000000000000000201601280002001EFRAIN ALVAREZ                                    C000000000860000000000000000000000100010010000000000000000000000F0010000008180200220160128000101 00000000000000000000000000000000000000000000000000000000000000000000000000000000000000000000000000000000000000000N 00000000000NCONT   00    00000000000          00000000000000000000000000000000000000000000 000000000000000A000000000000000000000000000000000000000000000 000000000000000000000000000000000000000     00000000                                                                                                                        000000000000000000
F0010000008180200003000000431178400042505000000000000000000201601280002001EFRAIN ALVAREZ                                    C000000000050000000000000000000000100010010000000000000000000000F0010000008180200320160128000101 00000000000000000000000000000000000000000000000000000000000000000000000000000000000000000000000000000000000000000N 00000000000NCONT   00    00000000000          00000000000000000000000000000000000000000000 000000000000000A000000000000000000000000000000000000000000000 000000000000000000000000000000000000000     00000000                                                                                                                        000000000000000000
F0010000008180200004000000431178400023658300000000000000000201601280002001EFRAIN ALVAREZ                                    C000000000006900000000000000000000100010010000000000000000000000F0010000008180200420160128000101 00000000000000000000000000000000000000000000000000000000000000000000000000000000000000000000000000000000000000000N 00000000000NCONT   00    00000000000          00000000000000000000000000000000000000000000 000000000000000A000000000000000000000000000000000000000000000 000000000000000000000000000000000000000     00000000                                                                                                                        000000000000000000
F0010000008180200005000000431178400013552100000000000000000201601280002001EFRAIN ALVAREZ                                    D000000000006900000000000000000000100010010000000000000000000000F0010000008180200520160128000101 00000000000000000000000000000000000000000000000000000000000000000000000000000000000000000000000000000000000000000N 00000000000NCONT   00    00000000000          00000000000000000000000000000000000000000000 000000000000000A000000000000000000000000000000000000000000000 000000000000000000000000000000000000000     00000000                                                                                                                        000000000000000000
F0010000008180300001000000431178400011050500000000000000000201601280002001EFRAIN ALVAREZ                                    D000000001240000000000000000000000100010010000000000000000000000F0010000008180300120160128000101 00000000000000000000000000000000000000000000000000000000000000000000000000000000000000000000000000000000000000000N 00000000000NCONT   00    00000000000          00000000000000000000000000000000000000000000 000000000000000A000000000000000000000000000000000000000000000 000000000000000000000000000000000000000     00000000                                                                                                                        000000000000000000
F0010000008180300002000000431178400041450500000000000000000201601280002001EFRAIN ALVAREZ                                    C000000001190000000000000000000000100010010000000000000000000000F0010000008180300220160128000101 00000000000000000000000000000000000000000000000000000000000000000000000000000000000000000000000000000000000000000N 00000000000NCONT   00    00000000000          00000000000000000000000000000000000000000000 000000000000000A000000000000000000000000000000000000000000000 000000000000000000000000000000000000000     00000000                                                                                                                        000000000000000000
F0010000008180300003000000431178400042505000000000000000000201601280002001EFRAIN ALVAREZ                                    C000000000050000000000000000000000100010010000000000000000000000F0010000008180300320160128000101 00000000000000000000000000000000000000000000000000000000000000000000000000000000000000000000000000000000000000000N 00000000000NCONT   00    00000000000          00000000000000000000000000000000000000000000 000000000000000A000000000000000000000000000000000000000000000 000000000000000000000000000000000000000     00000000                                                                                                                        000000000000000000
F0010000008180300004000000431178400023658300000000000000000201601280002001EFRAIN ALVAREZ                                    C000000000009500000000000000000000100010010000000000000000000000F0010000008180300420160128000101 00000000000000000000000000000000000000000000000000000000000000000000000000000000000000000000000000000000000000000N 00000000000NCONT   00    00000000000          00000000000000000000000000000000000000000000 000000000000000A000000000000000000000000000000000000000000000 000000000000000000000000000000000000000     00000000                                                                                                                        000000000000000000
F0010000008180300005000000431178400013552100000000000000000201601280002001EFRAIN ALVAREZ                                    D000000000009500000000000000000000100010010000000000000000000000F0010000008180300520160128000101 00000000000000000000000000000000000000000000000000000000000000000000000000000000000000000000000000000000000000000N 00000000000NCONT   00    00000000000          00000000000000000000000000000000000000000000 000000000000000A000000000000000000000000000000000000000000000 000000000000000000000000000000000000000     00000000                                                                                                                        000000000000000000
F0010000008180400001000001022529300011050500000000000000000201601280002001ALBERTO ALVAREZ ISAZA                             D000000000820000000000000000000000100010010000000000000000000000F0010000008180400120160128000101 00000000000000000000000000000000000000000000000000000000000000000000000000000000000000000000000000000000000000000N 00000000000NCONT   00    00000000000          00000000000000000000000000000000000000000000 000000000000000A000000000000000000000000000000000000000000000 000000000000000000000000000000000000000     00000000                                                                                                                        000000000000000000
F0010000008180400002000001022529300041450500000000000000000201601280002001ALBERTO ALVAREZ ISAZA                             C000000000820000000000000000000000100010010000000000000000000000F0010000008180400220160128000101 00000000000000000000000000000000000000000000000000000000000000000000000000000000000000000000000000000000000000000N 00000000000NCONT   00    00000000000          00000000000000000000000000000000000000000000 000000000000000A000000000000000000000000000000000000000000000 000000000000000000000000000000000000000     00000000                                                                                                                        000000000000000000
F0010000008180400003000001022529300042505000000000000000000201601280002001ALBERTO ALVAREZ ISAZA                             C000000000000000000000000000000000100010010000000000000000000000F0010000008180400320160128000101 00000000000000000000000000000000000000000000000000000000000000000000000000000000000000000000000000000000000000000N 00000000000NCONT   00    00000000000          00000000000000000000000000000000000000000000 000000000000000A000000000000000000000000000000000000000000000 000000000000000000000000000000000000000     00000000                                                                                                                        000000000000000000
F0010000008180400004000001022529300023658300000000000000000201601280002001ALBERTO ALVAREZ ISAZA                             C000000000006600000000000000000000100010010000000000000000000000F0010000008180400420160128000101 00000000000000000000000000000000000000000000000000000000000000000000000000000000000000000000000000000000000000000N 00000000000NCONT   00    00000000000          00000000000000000000000000000000000000000000 000000000000000A000000000000000000000000000000000000000000000 000000000000000000000000000000000000000     00000000                                                                                                                        000000000000000000
F0010000008180400005000001022529300013552100000000000000000201601280002001ALBERTO ALVAREZ ISAZA                             D000000000006600000000000000000000100010010000000000000000000000F0010000008180400520160128000101 00000000000000000000000000000000000000000000000000000000000000000000000000000000000000000000000000000000000000000N 00000000000NCONT   00    00000000000          00000000000000000000000000000000000000000000 000000000000000A000000000000000000000000000000000000000000000 000000000000000000000000000000000000000     00000000                                                                                                                        000000000000000000
F0010000008180500001000001022529300011050500000000000000000201601280002001ALBERTO ALVAREZ ISAZA                             D000000000350000000000000000000000100010010000000000000000000000F0010000008180500120160128000101 00000000000000000000000000000000000000000000000000000000000000000000000000000000000000000000000000000000000000000N 00000000000NCONT   00    00000000000          00000000000000000000000000000000000000000000 000000000000000A000000000000000000000000000000000000000000000 000000000000000000000000000000000000000     00000000                                                                                                                        000000000000000000
F0010000008180500002000001022529300041450500000000000000000201601280002001ALBERTO ALVAREZ ISAZA                             C000000000350000000000000000000000100010010000000000000000000000F0010000008180500220160128000101 00000000000000000000000000000000000000000000000000000000000000000000000000000000000000000000000000000000000000000N 00000000000NCONT   00    00000000000          00000000000000000000000000000000000000000000 000000000000000A000000000000000000000000000000000000000000000 000000000000000000000000000000000000000     00000000                                                                                                                        000000000000000000
F0010000008180500003000001022529300042505000000000000000000201601280002001ALBERTO ALVAREZ ISAZA                             C000000000000000000000000000000000100010010000000000000000000000F0010000008180500320160128000101 00000000000000000000000000000000000000000000000000000000000000000000000000000000000000000000000000000000000000000N 00000000000NCONT   00    00000000000          00000000000000000000000000000000000000000000 000000000000000A000000000000000000000000000000000000000000000 000000000000000000000000000000000000000     00000000                                                                                                                        000000000000000000
F0010000008180500004000001022529300023658300000000000000000201601280002001ALBERTO ALVAREZ ISAZA                             C000000000002800000000000000000000100010010000000000000000000000F0010000008180500420160128000101 00000000000000000000000000000000000000000000000000000000000000000000000000000000000000000000000000000000000000000N 00000000000NCONT   00    00000000000          00000000000000000000000000000000000000000000 000000000000000A000000000000000000000000000000000000000000000 000000000000000000000000000000000000000     00000000                                                                                                                        000000000000000000
F0010000008180500005000001022529300013552100000000000000000201601280002001ALBERTO ALVAREZ ISAZA                             D000000000002800000000000000000000100010010000000000000000000000F0010000008180500520160128000101 00000000000000000000000000000000000000000000000000000000000000000000000000000000000000000000000000000000000000000N 00000000000NCONT   00    00000000000          00000000000000000000000000000000000000000000 000000000000000A000000000000000000000000000000000000000000000 000000000000000000000000000000000000000     00000000                                                                                                                        000000000000000000
F0010000008180600001000000871573200011050500000000000000000201601280002001ACCESORIAS ARQUITECTONI KJ                        D000000001700000000000000000000000100010010000000000000000000000F0010000008180600120160128000101 00000000000000000000000000000000000000000000000000000000000000000000000000000000000000000000000000000000000000000N 00000000000NCONT   00    00000000000          00000000000000000000000000000000000000000000 000000000000000A000000000000000000000000000000000000000000000 000000000000000000000000000000000000000     00000000                                                                                                                        000000000000000000
F0010000008180600002000000871573200041450500000000000000000201601280002001ACCESORIAS ARQUITECTONI KJ                        C000000001200000000000000000000000100010010000000000000000000000F0010000008180600220160128000101 00000000000000000000000000000000000000000000000000000000000000000000000000000000000000000000000000000000000000000N 00000000000NCONT   00    00000000000          00000000000000000000000000000000000000000000 000000000000000A000000000000000000000000000000000000000000000 000000000000000000000000000000000000000     00000000                                                                                                                        000000000000000000
F0010000008180600003000000871573200042505000000000000000000201601280002001ACCESORIAS ARQUITECTONI KJ                        C000000000500000000000000000000000100010010000000000000000000000F0010000008180600320160128000101 00000000000000000000000000000000000000000000000000000000000000000000000000000000000000000000000000000000000000000N 00000000000NCONT   00    00000000000          00000000000000000000000000000000000000000000 000000000000000A000000000000000000000000000000000000000000000 000000000000000000000000000000000000000     00000000                                                                                                                        000000000000000000
F0010000008180600004000000871573200023658300000000000000000201601280002001ACCESORIAS ARQUITECTONI KJ                        C000000000009600000000000000000000100010010000000000000000000000F0010000008180600420160128000101 00000000000000000000000000000000000000000000000000000000000000000000000000000000000000000000000000000000000000000N 00000000000NCONT   00    00000000000          00000000000000000000000000000000000000000000 000000000000000A000000000000000000000000000000000000000000000 000000000000000000000000000000000000000     00000000                                                                                                                        000000000000000000
F0010000008180600005000000871573200013552100000000000000000201601280002001ACCESORIAS ARQUITECTONI KJ                        D000000000009600000000000000000000100010010000000000000000000000F0010000008180600520160128000101 00000000000000000000000000000000000000000000000000000000000000000000000000000000000000000000000000000000000000000N 00000000000NCONT   00    00000000000          00000000000000000000000000000000000000000000 000000000000000A000000000000000000000000000000000000000000000 000000000000000000000000000000000000000     00000000                                                                                                                        000000000000000000
F0010000008180700001000000871573200011050500000000000000000201601280002001ACCESORIAS ARQUITECTONI KJ                        D000000003200000000000000000000000100010010000000000000000000000F0010000008180700120160128000101 00000000000000000000000000000000000000000000000000000000000000000000000000000000000000000000000000000000000000000N 00000000000NCONT   00    00000000000          00000000000000000000000000000000000000000000 000000000000000A000000000000000000000000000000000000000000000 000000000000000000000000000000000000000     00000000                                                                                                                        000000000000000000
F0010000008180700002000000871573200041450500000000000000000201601280002001ACCESORIAS ARQUITECTONI KJ                        C000000001300000000000000000000000100010010000000000000000000000F0010000008180700220160128000101 00000000000000000000000000000000000000000000000000000000000000000000000000000000000000000000000000000000000000000N 00000000000NCONT   00    00000000000          00000000000000000000000000000000000000000000 000000000000000A000000000000000000000000000000000000000000000 000000000000000000000000000000000000000     00000000                                                                                                                        000000000000000000
F0010000008180700003000000871573200042505000000000000000000201601280002001ACCESORIAS ARQUITECTONI KJ                        C000000001900000000000000000000000100010010000000000000000000000F0010000008180700320160128000101 00000000000000000000000000000000000000000000000000000000000000000000000000000000000000000000000000000000000000000N 00000000000NCONT   00    00000000000          00000000000000000000000000000000000000000000 000000000000000A000000000000000000000000000000000000000000000 000000000000000000000000000000000000000     00000000                                                                                                                        000000000000000000
F0010000008180700004000000871573200023658300000000000000000201601280002001ACCESORIAS ARQUITECTONI KJ                        C000000000010400000000000000000000100010010000000000000000000000F0010000008180700420160128000101 00000000000000000000000000000000000000000000000000000000000000000000000000000000000000000000000000000000000000000N 00000000000NCONT   00    00000000000          00000000000000000000000000000000000000000000 000000000000000A000000000000000000000000000000000000000000000 000000000000000000000000000000000000000     00000000                                                                                                                        000000000000000000
F0010000008180700005000000871573200013552100000000000000000201601280002001ACCESORIAS ARQUITECTONI KJ                        D000000000010400000000000000000000100010010000000000000000000000F0010000008180700520160128000101 00000000000000000000000000000000000000000000000000000000000000000000000000000000000000000000000000000000000000000N 00000000000NCONT   00    00000000000          00000000000000000000000000000000000000000000 000000000000000A000000000000000000000000000000000000000000000 000000000000000000000000000000000000000     00000000                                                                                                                        000000000000000000
F0010000008180800001000000871573200011050500000000000000000201601280002001ACCESORIAS ARQUITECTONI KJ                        D000000007800000000000000000000000100010010000000000000000000000F0010000008180800120160128000101 00000000000000000000000000000000000000000000000000000000000000000000000000000000000000000000000000000000000000000N 00000000000NCONT   00    00000000000          00000000000000000000000000000000000000000000 000000000000000A000000000000000000000000000000000000000000000 000000000000000000000000000000000000000     00000000                                                                                                                        000000000000000000
F0010000008180800002000000871573200041450500000000000000000201601280002001ACCESORIAS ARQUITECTONI KJ                        C000000004800000000000000000000000100010010000000000000000000000F0010000008180800220160128000101 00000000000000000000000000000000000000000000000000000000000000000000000000000000000000000000000000000000000000000N 00000000000NCONT   00    00000000000          00000000000000000000000000000000000000000000 000000000000000A000000000000000000000000000000000000000000000 000000000000000000000000000000000000000     00000000                                                                                                                        000000000000000000
F0010000008180800003000000871573200042505000000000000000000201601280002001ACCESORIAS ARQUITECTONI KJ                        C000000003000000000000000000000000100010010000000000000000000000F0010000008180800320160128000101 00000000000000000000000000000000000000000000000000000000000000000000000000000000000000000000000000000000000000000N 00000000000NCONT   00    00000000000          00000000000000000000000000000000000000000000 000000000000000A000000000000000000000000000000000000000000000 000000000000000000000000000000000000000     00000000                                                                                                                        000000000000000000
F0010000008180800004000000871573200023658300000000000000000201601280002001ACCESORIAS ARQUITECTONI KJ                        C000000000038400000000000000000000100010010000000000000000000000F0010000008180800420160128000101 00000000000000000000000000000000000000000000000000000000000000000000000000000000000000000000000000000000000000000N 00000000000NCONT   00    00000000000          00000000000000000000000000000000000000000000 000000000000000A000000000000000000000000000000000000000000000 000000000000000000000000000000000000000     00000000                                                                                                                        000000000000000000
F0010000008180800005000000871573200013552100000000000000000201601280002001ACCESORIAS ARQUITECTONI KJ                        D000000000038400000000000000000000100010010000000000000000000000F0010000008180800520160128000101 00000000000000000000000000000000000000000000000000000000000000000000000000000000000000000000000000000000000000000N 00000000000NCONT   00    00000000000          00000000000000000000000000000000000000000000 000000000000000A000000000000000000000000000000000000000000000 000000000000000000000000000000000000000     00000000                                                                                                                        000000000000000000
F0010000008180900001000000871573200011050500000000000000000201601280002001ACCESORIAS ARQUITECTONI KJ                        D000000010000000000000000000000000100010010000000000000000000000F0010000008180900120160128000101 00000000000000000000000000000000000000000000000000000000000000000000000000000000000000000000000000000000000000000N 00000000000NCONT   00    00000000000          00000000000000000000000000000000000000000000 000000000000000A000000000000000000000000000000000000000000000 000000000000000000000000000000000000000     00000000                                                                                                                        000000000000000000
F0010000008180900002000000871573200041450500000000000000000201601280002001ACCESORIAS ARQUITECTONI KJ                        C000000004800000000000000000000000100010010000000000000000000000F0010000008180900220160128000101 00000000000000000000000000000000000000000000000000000000000000000000000000000000000000000000000000000000000000000N 00000000000NCONT   00    00000000000          00000000000000000000000000000000000000000000 000000000000000A000000000000000000000000000000000000000000000 000000000000000000000000000000000000000     00000000                                                                                                                        000000000000000000
F0010000008180900003000000871573200042505000000000000000000201601280002001ACCESORIAS ARQUITECTONI KJ                        C000000005200000000000000000000000100010010000000000000000000000F0010000008180900320160128000101 00000000000000000000000000000000000000000000000000000000000000000000000000000000000000000000000000000000000000000N 00000000000NCONT   00    00000000000          00000000000000000000000000000000000000000000 000000000000000A000000000000000000000000000000000000000000000 000000000000000000000000000000000000000     00000000                                                                                                                        000000000000000000
F0010000008180900004000000871573200023658300000000000000000201601280002001ACCESORIAS ARQUITECTONI KJ                        C000000000038400000000000000000000100010010000000000000000000000F0010000008180900420160128000101 00000000000000000000000000000000000000000000000000000000000000000000000000000000000000000000000000000000000000000N 00000000000NCONT   00    00000000000          00000000000000000000000000000000000000000000 000000000000000A000000000000000000000000000000000000000000000 000000000000000000000000000000000000000     00000000                                                                                                                        000000000000000000
F0010000008180900005000000871573200013552100000000000000000201601280002001ACCESORIAS ARQUITECTONI KJ                        D000000000038400000000000000000000100010010000000000000000000000F0010000008180900520160128000101 00000000000000000000000000000000000000000000000000000000000000000000000000000000000000000000000000000000000000000N 00000000000NCONT   00    00000000000          00000000000000000000000000000000000000000000 000000000000000A000000000000000000000000000000000000000000000 000000000000000000000000000000000000000     00000000                                                                                                                        000000000000000000
F0010000008181000001000000871573200011050500000000000000000201601280002001ACCESORIAS ARQUITECTONI KJ                        D000000002000000000000000000000000100010010000000000000000000000F0010000008181000120160128000101 00000000000000000000000000000000000000000000000000000000000000000000000000000000000000000000000000000000000000000N 00000000000NCONT   00    00000000000          00000000000000000000000000000000000000000000 000000000000000A000000000000000000000000000000000000000000000 000000000000000000000000000000000000000     00000000                                                                                                                        000000000000000000
F0010000008181000002000000871573200041450500000000000000000201601280002001ACCESORIAS ARQUITECTONI KJ                        C000000001200000000000000000000000100010010000000000000000000000F0010000008181000220160128000101 00000000000000000000000000000000000000000000000000000000000000000000000000000000000000000000000000000000000000000N 00000000000NCONT   00    00000000000          00000000000000000000000000000000000000000000 000000000000000A000000000000000000000000000000000000000000000 000000000000000000000000000000000000000     00000000                                                                                                                        000000000000000000
