F0010000010676700001000080201411900011050500000000000000000201711200002001PLASTISERVICIOS S DE H                            D000000004300000000000000000000000100010010000000000000000000000F0010000010676700120171120000101 00000000000000000000000000000000000000000000000000000000000000000000000000000000000000000000000000000000000000000N 00000000000NCONT   00    00000000000          00000000000000000000000000000000000000000000 000000000000000A000000000000000000000000000000000000000000000 000000000000000000000000000000000000000     00000000                                                                                                                        000000000000000000
F0010000010676700002000080201411900041450500000000000000000201711200002001PLASTISERVICIOS S DE H                            C000000003300000000000000000000000100010010000000000000000000000F0010000010676700220171120000101 00000000000000000000000000000000000000000000000000000000000000000000000000000000000000000000000000000000000000000N 00000000000NCONT   00    00000000000          00000000000000000000000000000000000000000000 000000000000000A000000000000000000000000000000000000000000000 000000000000000000000000000000000000000     00000000                                                                                                                        000000000000000000
F0010000010676700003000080201411900042505000000000000000000201711200002001PLASTISERVICIOS S DE H                            C000000001000000000000000000000000100010010000000000000000000000F0010000010676700320171120000101 00000000000000000000000000000000000000000000000000000000000000000000000000000000000000000000000000000000000000000N 00000000000NCONT   00    00000000000          00000000000000000000000000000000000000000000 000000000000000A000000000000000000000000000000000000000000000 000000000000000000000000000000000000000     00000000                                                                                                                        000000000000000000
F0010000010676700004000080201411900023658300000000000000000201711200002001PLASTISERVICIOS S DE H                            C000000000000000000000000000000000100010010000000000000000000000F0010000010676700420171120000101 00000000000000000000000000000000000000000000000000000000000000000000000000000000000000000000000000000000000000000N 00000000000NCONT   00    00000000000          00000000000000000000000000000000000000000000 000000000000000A000000000000000000000000000000000000000000000 000000000000000000000000000000000000000     00000000                                                                                                                        000000000000000000
F0010000010676700005000080201411900013552100000000000000000201711200002001PLASTISERVICIOS S DE H                            D000000000000000000000000000000000100010010000000000000000000000F0010000010676700520171120000101 00000000000000000000000000000000000000000000000000000000000000000000000000000000000000000000000000000000000000000N 00000000000NCONT   00    00000000000          00000000000000000000000000000000000000000000 000000000000000A000000000000000000000000000000000000000000000 000000000000000000000000000000000000000     00000000                                                                                                                        000000000000000000
F0010000010676800001000090090986500011050500000000000000000201711200002001IMPERACABADOS DEL CARIBE                          D000000005500000000000000000000000100010010000000000000000000000F0010000010676800120171120000101 00000000000000000000000000000000000000000000000000000000000000000000000000000000000000000000000000000000000000000N 00000000000NCONT   00    00000000000          00000000000000000000000000000000000000000000 000000000000000A000000000000000000000000000000000000000000000 000000000000000000000000000000000000000     00000000                                                                                                                        000000000000000000
F0010000010676800002000090090986500041450500000000000000000201711200002001IMPERACABADOS DEL CARIBE                          C000000004900000000000000000000000100010010000000000000000000000F0010000010676800220171120000101 00000000000000000000000000000000000000000000000000000000000000000000000000000000000000000000000000000000000000000N 00000000000NCONT   00    00000000000          00000000000000000000000000000000000000000000 000000000000000A000000000000000000000000000000000000000000000 000000000000000000000000000000000000000     00000000                                                                                                                        000000000000000000
F0010000010676800003000090090986500042505000000000000000000201711200002001IMPERACABADOS DEL CARIBE                          C000000000600000000000000000000000100010010000000000000000000000F0010000010676800320171120000101 00000000000000000000000000000000000000000000000000000000000000000000000000000000000000000000000000000000000000000N 00000000000NCONT   00    00000000000          00000000000000000000000000000000000000000000 000000000000000A000000000000000000000000000000000000000000000 000000000000000000000000000000000000000     00000000                                                                                                                        000000000000000000
F0010000010676800004000090090986500023658300000000000000000201711200002001IMPERACABADOS DEL CARIBE                          C000000000000000000000000000000000100010010000000000000000000000F0010000010676800420171120000101 00000000000000000000000000000000000000000000000000000000000000000000000000000000000000000000000000000000000000000N 00000000000NCONT   00    00000000000          00000000000000000000000000000000000000000000 000000000000000A000000000000000000000000000000000000000000000 000000000000000000000000000000000000000     00000000                                                                                                                        000000000000000000
F0010000010676800005000090090986500013552100000000000000000201711200002001IMPERACABADOS DEL CARIBE                          D000000000000000000000000000000000100010010000000000000000000000F0010000010676800520171120000101 00000000000000000000000000000000000000000000000000000000000000000000000000000000000000000000000000000000000000000N 00000000000NCONT   00    00000000000          00000000000000000000000000000000000000000000 000000000000000A000000000000000000000000000000000000000000000 000000000000000000000000000000000000000     00000000                                                                                                                        000000000000000000
F0010000010676900001000009249843700011050500000000000000000201711200002001CESAR MERCADO                                     D000000007000000000000000000000000100010010000000000000000000000F0010000010676900120171120000101 00000000000000000000000000000000000000000000000000000000000000000000000000000000000000000000000000000000000000000N 00000000000NCONT   00    00000000000          00000000000000000000000000000000000000000000 000000000000000A000000000000000000000000000000000000000000000 000000000000000000000000000000000000000     00000000                                                                                                                        000000000000000000
F0010000010676900002000009249843700041450500000000000000000201711200002001CESAR MERCADO                                     C000000006800000000000000000000000100010010000000000000000000000F0010000010676900220171120000101 00000000000000000000000000000000000000000000000000000000000000000000000000000000000000000000000000000000000000000N 00000000000NCONT   00    00000000000          00000000000000000000000000000000000000000000 000000000000000A000000000000000000000000000000000000000000000 000000000000000000000000000000000000000     00000000                                                                                                                        000000000000000000
F0010000010676900003000009249843700042505000000000000000000201711200002001CESAR MERCADO                                     C000000000200000000000000000000000100010010000000000000000000000F0010000010676900320171120000101 00000000000000000000000000000000000000000000000000000000000000000000000000000000000000000000000000000000000000000N 00000000000NCONT   00    00000000000          00000000000000000000000000000000000000000000 000000000000000A000000000000000000000000000000000000000000000 000000000000000000000000000000000000000     00000000                                                                                                                        000000000000000000
F0010000010676900004000009249843700023658300000000000000000201711200002001CESAR MERCADO                                     C000000000000000000000000000000000100010010000000000000000000000F0010000010676900420171120000101 00000000000000000000000000000000000000000000000000000000000000000000000000000000000000000000000000000000000000000N 00000000000NCONT   00    00000000000          00000000000000000000000000000000000000000000 000000000000000A000000000000000000000000000000000000000000000 000000000000000000000000000000000000000     00000000                                                                                                                        000000000000000000
F0010000010676900005000009249843700013552100000000000000000201711200002001CESAR MERCADO                                     D000000000000000000000000000000000100010010000000000000000000000F0010000010676900520171120000101 00000000000000000000000000000000000000000000000000000000000000000000000000000000000000000000000000000000000000000N 00000000000NCONT   00    00000000000          00000000000000000000000000000000000000000000 000000000000000A000000000000000000000000000000000000000000000 000000000000000000000000000000000000000     00000000                                                                                                                        000000000000000000
F0010000010677000001000007215487700011050500000000000000000201711200002001AGRODISTRIBUCIONES M Y M                          D000000001200000000000000000000000100010010000000000000000000000F0010000010677000120171120000101 00000000000000000000000000000000000000000000000000000000000000000000000000000000000000000000000000000000000000000N 00000000000NCONT   00    00000000000          00000000000000000000000000000000000000000000 000000000000000A000000000000000000000000000000000000000000000 000000000000000000000000000000000000000     00000000                                                                                                                        000000000000000000
F0010000010677000002000007215487700041450500000000000000000201711200002001AGRODISTRIBUCIONES M Y M                          C000000001100000000000000000000000100010010000000000000000000000F0010000010677000220171120000101 00000000000000000000000000000000000000000000000000000000000000000000000000000000000000000000000000000000000000000N 00000000000NCONT   00    00000000000          00000000000000000000000000000000000000000000 000000000000000A000000000000000000000000000000000000000000000 000000000000000000000000000000000000000     00000000                                                                                                                        000000000000000000
F0010000010677000003000007215487700042505000000000000000000201711200002001AGRODISTRIBUCIONES M Y M                          C000000000100000000000000000000000100010010000000000000000000000F0010000010677000320171120000101 00000000000000000000000000000000000000000000000000000000000000000000000000000000000000000000000000000000000000000N 00000000000NCONT   00    00000000000          00000000000000000000000000000000000000000000 000000000000000A000000000000000000000000000000000000000000000 000000000000000000000000000000000000000     00000000                                                                                                                        000000000000000000
F0010000010677000004000007215487700023658300000000000000000201711200002001AGRODISTRIBUCIONES M Y M                          C000000000000000000000000000000000100010010000000000000000000000F0010000010677000420171120000101 00000000000000000000000000000000000000000000000000000000000000000000000000000000000000000000000000000000000000000N 00000000000NCONT   00    00000000000          00000000000000000000000000000000000000000000 000000000000000A000000000000000000000000000000000000000000000 000000000000000000000000000000000000000     00000000                                                                                                                        000000000000000000
F0010000010677000005000007215487700013552100000000000000000201711200002001AGRODISTRIBUCIONES M Y M                          D000000000000000000000000000000000100010010000000000000000000000F0010000010677000520171120000101 00000000000000000000000000000000000000000000000000000000000000000000000000000000000000000000000000000000000000000N 00000000000NCONT   00    00000000000          00000000000000000000000000000000000000000000 000000000000000A000000000000000000000000000000000000000000000 000000000000000000000000000000000000000     00000000                                                                                                                        000000000000000000
F0010000010677100001000090063619500011050500000000000000000201711200002001LUZ INTEGRA SAS                                   D000000017400000000000000000000000100010010000000000000000000000F0010000010677100120171120000101 00000000000000000000000000000000000000000000000000000000000000000000000000000000000000000000000000000000000000000N 00000000000NCONT   00    00000000000          00000000000000000000000000000000000000000000 000000000000000A000000000000000000000000000000000000000000000 000000000000000000000000000000000000000     00000000                                                                                                                        000000000000000000
F0010000010677100002000090063619500041450500000000000000000201711200002001LUZ INTEGRA SAS                                   C000000012500000000000000000000000100010010000000000000000000000F0010000010677100220171120000101 00000000000000000000000000000000000000000000000000000000000000000000000000000000000000000000000000000000000000000N 00000000000NCONT   00    00000000000          00000000000000000000000000000000000000000000 000000000000000A000000000000000000000000000000000000000000000 000000000000000000000000000000000000000     00000000                                                                                                                        000000000000000000
F0010000010677100003000090063619500042505000000000000000000201711200002001LUZ INTEGRA SAS                                   C000000004900000000000000000000000100010010000000000000000000000F0010000010677100320171120000101 00000000000000000000000000000000000000000000000000000000000000000000000000000000000000000000000000000000000000000N 00000000000NCONT   00    00000000000          00000000000000000000000000000000000000000000 000000000000000A000000000000000000000000000000000000000000000 000000000000000000000000000000000000000     00000000                                                                                                                        000000000000000000
F0010000010677100004000090063619500023658300000000000000000201711200002001LUZ INTEGRA SAS                                   C000000000000000000000000000000000100010010000000000000000000000F0010000010677100420171120000101 00000000000000000000000000000000000000000000000000000000000000000000000000000000000000000000000000000000000000000N 00000000000NCONT   00    00000000000          00000000000000000000000000000000000000000000 000000000000000A000000000000000000000000000000000000000000000 000000000000000000000000000000000000000     00000000                                                                                                                        000000000000000000
F0010000010677100005000090063619500013552100000000000000000201711200002001LUZ INTEGRA SAS                                   D000000000000000000000000000000000100010010000000000000000000000F0010000010677100520171120000101 00000000000000000000000000000000000000000000000000000000000000000000000000000000000000000000000000000000000000000N 00000000000NCONT   00    00000000000          00000000000000000000000000000000000000000000 000000000000000A000000000000000000000000000000000000000000000 000000000000000000000000000000000000000     00000000                                                                                                                        000000000000000000
F0010000010677200001000001336424200011050500000000000000000201711200002001ARMANDO LOPEZ                                     D000000001600000000000000000000000100010010000000000000000000000F0010000010677200120171120000101 00000000000000000000000000000000000000000000000000000000000000000000000000000000000000000000000000000000000000000N 00000000000NCONT   00    00000000000          00000000000000000000000000000000000000000000 000000000000000A000000000000000000000000000000000000000000000 000000000000000000000000000000000000000     00000000                                                                                                                        000000000000000000
F0010000010677200002000001336424200041450500000000000000000201711200002001ARMANDO LOPEZ                                     C000000001500000000000000000000000100010010000000000000000000000F0010000010677200220171120000101 00000000000000000000000000000000000000000000000000000000000000000000000000000000000000000000000000000000000000000N 00000000000NCONT   00    00000000000          00000000000000000000000000000000000000000000 000000000000000A000000000000000000000000000000000000000000000 000000000000000000000000000000000000000     00000000                                                                                                                        000000000000000000
F0010000010677200003000001336424200042505000000000000000000201711200002001ARMANDO LOPEZ                                     C000000000100000000000000000000000100010010000000000000000000000F0010000010677200320171120000101 00000000000000000000000000000000000000000000000000000000000000000000000000000000000000000000000000000000000000000N 00000000000NCONT   00    00000000000          00000000000000000000000000000000000000000000 000000000000000A000000000000000000000000000000000000000000000 000000000000000000000000000000000000000     00000000                                                                                                                        000000000000000000
F0010000010677200004000001336424200023658300000000000000000201711200002001ARMANDO LOPEZ                                     C000000000000000000000000000000000100010010000000000000000000000F0010000010677200420171120000101 00000000000000000000000000000000000000000000000000000000000000000000000000000000000000000000000000000000000000000N 00000000000NCONT   00    00000000000          00000000000000000000000000000000000000000000 000000000000000A000000000000000000000000000000000000000000000 000000000000000000000000000000000000000     00000000                                                                                                                        000000000000000000
F0010000010677200005000001336424200013552100000000000000000201711200002001ARMANDO LOPEZ                                     D000000000000000000000000000000000100010010000000000000000000000F0010000010677200520171120000101 00000000000000000000000000000000000000000000000000000000000000000000000000000000000000000000000000000000000000000N 00000000000NCONT   00    00000000000          00000000000000000000000000000000000000000000 000000000000000A000000000000000000000000000000000000000000000 000000000000000000000000000000000000000     00000000                                                                                                                        000000000000000000
F0010000010677300001000001022529300011050500000000000000000201711200002001ALBERTO ALVAREZ ISAZA                             D000000000880000000000000000000000100010010000000000000000000000F0010000010677300120171120000101 00000000000000000000000000000000000000000000000000000000000000000000000000000000000000000000000000000000000000000N 00000000000NCONT   00    00000000000          00000000000000000000000000000000000000000000 000000000000000A000000000000000000000000000000000000000000000 000000000000000000000000000000000000000     00000000                                                                                                                        000000000000000000
F0010000010677300002000001022529300041450500000000000000000201711200002001ALBERTO ALVAREZ ISAZA                             C000000000880000000000000000000000100010010000000000000000000000F0010000010677300220171120000101 00000000000000000000000000000000000000000000000000000000000000000000000000000000000000000000000000000000000000000N 00000000000NCONT   00    00000000000          00000000000000000000000000000000000000000000 000000000000000A000000000000000000000000000000000000000000000 000000000000000000000000000000000000000     00000000                                                                                                                        000000000000000000
F0010000010677300003000001022529300042505000000000000000000201711200002001ALBERTO ALVAREZ ISAZA                             C000000000000000000000000000000000100010010000000000000000000000F0010000010677300320171120000101 00000000000000000000000000000000000000000000000000000000000000000000000000000000000000000000000000000000000000000N 00000000000NCONT   00    00000000000          00000000000000000000000000000000000000000000 000000000000000A000000000000000000000000000000000000000000000 000000000000000000000000000000000000000     00000000                                                                                                                        000000000000000000
F0010000010677300004000001022529300023658300000000000000000201711200002001ALBERTO ALVAREZ ISAZA                             C000000000000000000000000000000000100010010000000000000000000000F0010000010677300420171120000101 00000000000000000000000000000000000000000000000000000000000000000000000000000000000000000000000000000000000000000N 00000000000NCONT   00    00000000000          00000000000000000000000000000000000000000000 000000000000000A000000000000000000000000000000000000000000000 000000000000000000000000000000000000000     00000000                                                                                                                        000000000000000000
F0010000010677300005000001022529300013552100000000000000000201711200002001ALBERTO ALVAREZ ISAZA                             D000000000000000000000000000000000100010010000000000000000000000F0010000010677300520171120000101 00000000000000000000000000000000000000000000000000000000000000000000000000000000000000000000000000000000000000000N 00000000000NCONT   00    00000000000          00000000000000000000000000000000000000000000 000000000000000A000000000000000000000000000000000000000000000 000000000000000000000000000000000000000     00000000                                                                                                                        000000000000000000
F0010000010677400001000001022529300011050500000000000000000201711200002001ALBERTO ALVAREZ ISAZA                             D000000000880000000000000000000000100010010000000000000000000000F0010000010677400120171120000101 00000000000000000000000000000000000000000000000000000000000000000000000000000000000000000000000000000000000000000N 00000000000NCONT   00    00000000000          00000000000000000000000000000000000000000000 000000000000000A000000000000000000000000000000000000000000000 000000000000000000000000000000000000000     00000000                                                                                                                        000000000000000000
F0010000010677400002000001022529300041450500000000000000000201711200002001ALBERTO ALVAREZ ISAZA                             C000000000880000000000000000000000100010010000000000000000000000F0010000010677400220171120000101 00000000000000000000000000000000000000000000000000000000000000000000000000000000000000000000000000000000000000000N 00000000000NCONT   00    00000000000          00000000000000000000000000000000000000000000 000000000000000A000000000000000000000000000000000000000000000 000000000000000000000000000000000000000     00000000                                                                                                                        000000000000000000
F0010000010677400003000001022529300042505000000000000000000201711200002001ALBERTO ALVAREZ ISAZA                             C000000000000000000000000000000000100010010000000000000000000000F0010000010677400320171120000101 00000000000000000000000000000000000000000000000000000000000000000000000000000000000000000000000000000000000000000N 00000000000NCONT   00    00000000000          00000000000000000000000000000000000000000000 000000000000000A000000000000000000000000000000000000000000000 000000000000000000000000000000000000000     00000000                                                                                                                        000000000000000000
F0010000010677400004000001022529300023658300000000000000000201711200002001ALBERTO ALVAREZ ISAZA                             C000000000000000000000000000000000100010010000000000000000000000F0010000010677400420171120000101 00000000000000000000000000000000000000000000000000000000000000000000000000000000000000000000000000000000000000000N 00000000000NCONT   00    00000000000          00000000000000000000000000000000000000000000 000000000000000A000000000000000000000000000000000000000000000 000000000000000000000000000000000000000     00000000                                                                                                                        000000000000000000
F0010000010677400005000001022529300013552100000000000000000201711200002001ALBERTO ALVAREZ ISAZA                             D000000000000000000000000000000000100010010000000000000000000000F0010000010677400520171120000101 00000000000000000000000000000000000000000000000000000000000000000000000000000000000000000000000000000000000000000N 00000000000NCONT   00    00000000000          00000000000000000000000000000000000000000000 000000000000000A000000000000000000000000000000000000000000000 000000000000000000000000000000000000000     00000000                                                                                                                        000000000000000000
F0010000010677500001000001022529300011050500000000000000000201711200002001ALBERTO ALVAREZ ISAZA                             D000000000880000000000000000000000100010010000000000000000000000F0010000010677500120171120000101 00000000000000000000000000000000000000000000000000000000000000000000000000000000000000000000000000000000000000000N 00000000000NCONT   00    00000000000          00000000000000000000000000000000000000000000 000000000000000A000000000000000000000000000000000000000000000 000000000000000000000000000000000000000     00000000                                                                                                                        000000000000000000
F0010000010677500002000001022529300041450500000000000000000201711200002001ALBERTO ALVAREZ ISAZA                             C000000000880000000000000000000000100010010000000000000000000000F0010000010677500220171120000101 00000000000000000000000000000000000000000000000000000000000000000000000000000000000000000000000000000000000000000N 00000000000NCONT   00    00000000000          00000000000000000000000000000000000000000000 000000000000000A000000000000000000000000000000000000000000000 000000000000000000000000000000000000000     00000000                                                                                                                        000000000000000000
F0010000010677500003000001022529300042505000000000000000000201711200002001ALBERTO ALVAREZ ISAZA                             C000000000000000000000000000000000100010010000000000000000000000F0010000010677500320171120000101 00000000000000000000000000000000000000000000000000000000000000000000000000000000000000000000000000000000000000000N 00000000000NCONT   00    00000000000          00000000000000000000000000000000000000000000 000000000000000A000000000000000000000000000000000000000000000 000000000000000000000000000000000000000     00000000                                                                                                                        000000000000000000
F0010000010677500004000001022529300023658300000000000000000201711200002001ALBERTO ALVAREZ ISAZA                             C000000000000000000000000000000000100010010000000000000000000000F0010000010677500420171120000101 00000000000000000000000000000000000000000000000000000000000000000000000000000000000000000000000000000000000000000N 00000000000NCONT   00    00000000000          00000000000000000000000000000000000000000000 000000000000000A000000000000000000000000000000000000000000000 000000000000000000000000000000000000000     00000000                                                                                                                        000000000000000000
F0010000010677500005000001022529300013552100000000000000000201711200002001ALBERTO ALVAREZ ISAZA                             D000000000000000000000000000000000100010010000000000000000000000F0010000010677500520171120000101 00000000000000000000000000000000000000000000000000000000000000000000000000000000000000000000000000000000000000000N 00000000000NCONT   00    00000000000          00000000000000000000000000000000000000000000 000000000000000A000000000000000000000000000000000000000000000 000000000000000000000000000000000000000     00000000                                                                                                                        000000000000000000
F0010000010677600001000000431178400011050500000000000000000201711200002001EFRAIN ALVAREZ                                    D000000002810000000000000000000000100010010000000000000000000000F0010000010677600120171120000101 00000000000000000000000000000000000000000000000000000000000000000000000000000000000000000000000000000000000000000N 00000000000NCONT   00    00000000000          00000000000000000000000000000000000000000000 000000000000000A000000000000000000000000000000000000000000000 000000000000000000000000000000000000000     00000000                                                                                                                        000000000000000000
F0010000010677600002000000431178400041450500000000000000000201711200002001EFRAIN ALVAREZ                                    C000000002660000000000000000000000100010010000000000000000000000F0010000010677600220171120000101 00000000000000000000000000000000000000000000000000000000000000000000000000000000000000000000000000000000000000000N 00000000000NCONT   00    00000000000          00000000000000000000000000000000000000000000 000000000000000A000000000000000000000000000000000000000000000 000000000000000000000000000000000000000     00000000                                                                                                                        000000000000000000
F0010000010677600003000000431178400042505000000000000000000201711200002001EFRAIN ALVAREZ                                    C000000000150000000000000000000000100010010000000000000000000000F0010000010677600320171120000101 00000000000000000000000000000000000000000000000000000000000000000000000000000000000000000000000000000000000000000N 00000000000NCONT   00    00000000000          00000000000000000000000000000000000000000000 000000000000000A000000000000000000000000000000000000000000000 000000000000000000000000000000000000000     00000000                                                                                                                        000000000000000000
F0010000010677600004000000431178400023658300000000000000000201711200002001EFRAIN ALVAREZ                                    C000000000000000000000000000000000100010010000000000000000000000F0010000010677600420171120000101 00000000000000000000000000000000000000000000000000000000000000000000000000000000000000000000000000000000000000000N 00000000000NCONT   00    00000000000          00000000000000000000000000000000000000000000 000000000000000A000000000000000000000000000000000000000000000 000000000000000000000000000000000000000     00000000                                                                                                                        000000000000000000
F0010000010677600005000000431178400013552100000000000000000201711200002001EFRAIN ALVAREZ                                    D000000000000000000000000000000000100010010000000000000000000000F0010000010677600520171120000101 00000000000000000000000000000000000000000000000000000000000000000000000000000000000000000000000000000000000000000N 00000000000NCONT   00    00000000000          00000000000000000000000000000000000000000000 000000000000000A000000000000000000000000000000000000000000000 000000000000000000000000000000000000000     00000000                                                                                                                        000000000000000000
F0010000010677700001000000742399700011050500000000000000000201711200002001CACHARRERIA EL NUEVO CHADID                       D000000009300000000000000000000000100010010000000000000000000000F0010000010677700120171120000101 00000000000000000000000000000000000000000000000000000000000000000000000000000000000000000000000000000000000000000N 00000000000NCONT   00    00000000000          00000000000000000000000000000000000000000000 000000000000000A000000000000000000000000000000000000000000000 000000000000000000000000000000000000000     00000000                                                                                                                        000000000000000000
F0010000010677700002000000742399700041450500000000000000000201711200002001CACHARRERIA EL NUEVO CHADID                       C000000007700000000000000000000000100010010000000000000000000000F0010000010677700220171120000101 00000000000000000000000000000000000000000000000000000000000000000000000000000000000000000000000000000000000000000N 00000000000NCONT   00    00000000000          00000000000000000000000000000000000000000000 000000000000000A000000000000000000000000000000000000000000000 000000000000000000000000000000000000000     00000000                                                                                                                        000000000000000000
F0010000010677700003000000742399700042505000000000000000000201711200002001CACHARRERIA EL NUEVO CHADID                       C000000001600000000000000000000000100010010000000000000000000000F0010000010677700320171120000101 00000000000000000000000000000000000000000000000000000000000000000000000000000000000000000000000000000000000000000N 00000000000NCONT   00    00000000000          00000000000000000000000000000000000000000000 000000000000000A000000000000000000000000000000000000000000000 000000000000000000000000000000000000000     00000000                                                                                                                        000000000000000000
F0010000010677700004000000742399700023658300000000000000000201711200002001CACHARRERIA EL NUEVO CHADID                       C000000000000000000000000000000000100010010000000000000000000000F0010000010677700420171120000101 00000000000000000000000000000000000000000000000000000000000000000000000000000000000000000000000000000000000000000N 00000000000NCONT   00    00000000000          00000000000000000000000000000000000000000000 000000000000000A000000000000000000000000000000000000000000000 000000000000000000000000000000000000000     00000000                                                                                                                        000000000000000000
F0010000010677700005000000742399700013552100000000000000000201711200002001CACHARRERIA EL NUEVO CHADID                       D000000000000000000000000000000000100010010000000000000000000000F0010000010677700520171120000101 00000000000000000000000000000000000000000000000000000000000000000000000000000000000000000000000000000000000000000N 00000000000NCONT   00    00000000000          00000000000000000000000000000000000000000000 000000000000000A000000000000000000000000000000000000000000000 000000000000000000000000000000000000000     00000000                                                                                                                        000000000000000000
F0010000010677800001000000742399700011050500000000000000000201711200002001CACHARRERIA EL NUEVO CHADID                       D000000015100000000000000000000000100010010000000000000000000000F0010000010677800120171120000101 00000000000000000000000000000000000000000000000000000000000000000000000000000000000000000000000000000000000000000N 00000000000NCONT   00    00000000000          00000000000000000000000000000000000000000000 000000000000000A000000000000000000000000000000000000000000000 000000000000000000000000000000000000000     00000000                                                                                                                        000000000000000000
F0010000010677800002000000742399700041450500000000000000000201711200002001CACHARRERIA EL NUEVO CHADID                       C000000012100000000000000000000000100010010000000000000000000000F0010000010677800220171120000101 00000000000000000000000000000000000000000000000000000000000000000000000000000000000000000000000000000000000000000N 00000000000NCONT   00    00000000000          00000000000000000000000000000000000000000000 000000000000000A000000000000000000000000000000000000000000000 000000000000000000000000000000000000000     00000000                                                                                                                        000000000000000000
F0010000010677800003000000742399700042505000000000000000000201711200002001CACHARRERIA EL NUEVO CHADID                       C000000003000000000000000000000000100010010000000000000000000000F0010000010677800320171120000101 00000000000000000000000000000000000000000000000000000000000000000000000000000000000000000000000000000000000000000N 00000000000NCONT   00    00000000000          00000000000000000000000000000000000000000000 000000000000000A000000000000000000000000000000000000000000000 000000000000000000000000000000000000000     00000000                                                                                                                        000000000000000000
F0010000010677800004000000742399700023658300000000000000000201711200002001CACHARRERIA EL NUEVO CHADID                       C000000000000000000000000000000000100010010000000000000000000000F0010000010677800420171120000101 00000000000000000000000000000000000000000000000000000000000000000000000000000000000000000000000000000000000000000N 00000000000NCONT   00    00000000000          00000000000000000000000000000000000000000000 000000000000000A000000000000000000000000000000000000000000000 000000000000000000000000000000000000000     00000000                                                                                                                        000000000000000000
F0010000010677800005000000742399700013552100000000000000000201711200002001CACHARRERIA EL NUEVO CHADID                       D000000000000000000000000000000000100010010000000000000000000000F0010000010677800520171120000101 00000000000000000000000000000000000000000000000000000000000000000000000000000000000000000000000000000000000000000N 00000000000NCONT   00    00000000000          00000000000000000000000000000000000000000000 000000000000000A000000000000000000000000000000000000000000000 000000000000000000000000000000000000000     00000000                                                                                                                        000000000000000000
F0010000010677900001000080202350700011050500000000000000000201711200002001CONNY DE LA COSTA SAS                             D000000002100000000000000000000000100010010000000000000000000000F0010000010677900120171120000101 00000000000000000000000000000000000000000000000000000000000000000000000000000000000000000000000000000000000000000N 00000000000NCONT   00    00000000000          00000000000000000000000000000000000000000000 000000000000000A000000000000000000000000000000000000000000000 000000000000000000000000000000000000000     00000000                                                                                                                        000000000000000000
F0010000010677900002000080202350700041450500000000000000000201711200002001CONNY DE LA COSTA SAS                             C000000002000000000000000000000000100010010000000000000000000000F0010000010677900220171120000101 00000000000000000000000000000000000000000000000000000000000000000000000000000000000000000000000000000000000000000N 00000000000NCONT   00    00000000000          00000000000000000000000000000000000000000000 000000000000000A000000000000000000000000000000000000000000000 000000000000000000000000000000000000000     00000000                                                                                                                        000000000000000000
F0010000010677900003000080202350700042505000000000000000000201711200002001CONNY DE LA COSTA SAS                             C000000000100000000000000000000000100010010000000000000000000000F0010000010677900320171120000101 00000000000000000000000000000000000000000000000000000000000000000000000000000000000000000000000000000000000000000N 00000000000NCONT   00    00000000000          00000000000000000000000000000000000000000000 000000000000000A000000000000000000000000000000000000000000000 000000000000000000000000000000000000000     00000000                                                                                                                        000000000000000000
F0010000010677900004000080202350700023658300000000000000000201711200002001CONNY DE LA COSTA SAS                             C000000000000000000000000000000000100010010000000000000000000000F0010000010677900420171120000101 00000000000000000000000000000000000000000000000000000000000000000000000000000000000000000000000000000000000000000N 00000000000NCONT   00    00000000000          00000000000000000000000000000000000000000000 000000000000000A000000000000000000000000000000000000000000000 000000000000000000000000000000000000000     00000000                                                                                                                        000000000000000000
F0010000010677900005000080202350700013552100000000000000000201711200002001CONNY DE LA COSTA SAS                             D000000000000000000000000000000000100010010000000000000000000000F0010000010677900520171120000101 00000000000000000000000000000000000000000000000000000000000000000000000000000000000000000000000000000000000000000N 00000000000NCONT   00    00000000000          00000000000000000000000000000000000000000000 000000000000000A000000000000000000000000000000000000000000000 000000000000000000000000000000000000000     00000000                                                                                                                        000000000000000000
F0010000010678000001000090041415100011050500000000000000000201711200002001N.T. SUMINISTROS DEL CARIBE                       D000000007700000000000000000000000100010010000000000000000000000F0010000010678000120171120000101 00000000000000000000000000000000000000000000000000000000000000000000000000000000000000000000000000000000000000000N 00000000000NCONT   00    00000000000          00000000000000000000000000000000000000000000 000000000000000A000000000000000000000000000000000000000000000 000000000000000000000000000000000000000     00000000                                                                                                                        000000000000000000
F0010000010678000002000090041415100041450500000000000000000201711200002001N.T. SUMINISTROS DEL CARIBE                       C000000007500000000000000000000000100010010000000000000000000000F0010000010678000220171120000101 00000000000000000000000000000000000000000000000000000000000000000000000000000000000000000000000000000000000000000N 00000000000NCONT   00    00000000000          00000000000000000000000000000000000000000000 000000000000000A000000000000000000000000000000000000000000000 000000000000000000000000000000000000000     00000000                                                                                                                        000000000000000000
F0010000010678000003000090041415100042505000000000000000000201711200002001N.T. SUMINISTROS DEL CARIBE                       C000000000200000000000000000000000100010010000000000000000000000F0010000010678000320171120000101 00000000000000000000000000000000000000000000000000000000000000000000000000000000000000000000000000000000000000000N 00000000000NCONT   00    00000000000          00000000000000000000000000000000000000000000 000000000000000A000000000000000000000000000000000000000000000 000000000000000000000000000000000000000     00000000                                                                                                                        000000000000000000
F0010000010678000004000090041415100023658300000000000000000201711200002001N.T. SUMINISTROS DEL CARIBE                       C000000000000000000000000000000000100010010000000000000000000000F0010000010678000420171120000101 00000000000000000000000000000000000000000000000000000000000000000000000000000000000000000000000000000000000000000N 00000000000NCONT   00    00000000000          00000000000000000000000000000000000000000000 000000000000000A000000000000000000000000000000000000000000000 000000000000000000000000000000000000000     00000000                                                                                                                        000000000000000000
F0010000010678000005000090041415100013552100000000000000000201711200002001N.T. SUMINISTROS DEL CARIBE                       D000000000000000000000000000000000100010010000000000000000000000F0010000010678000520171120000101 00000000000000000000000000000000000000000000000000000000000000000000000000000000000000000000000000000000000000000N 00000000000NCONT   00    00000000000          00000000000000000000000000000000000000000000 000000000000000A000000000000000000000000000000000000000000000 000000000000000000000000000000000000000     00000000                                                                                                                        000000000000000000
F0010000010678100001000000431178400011050500000000000000000201711200002001EFRAIN ALVAREZ                                    D000000001430000000000000000000000100010010000000000000000000000F0010000010678100120171120000101 00000000000000000000000000000000000000000000000000000000000000000000000000000000000000000000000000000000000000000N 00000000000NCONT   00    00000000000          00000000000000000000000000000000000000000000 000000000000000A000000000000000000000000000000000000000000000 000000000000000000000000000000000000000     00000000                                                                                                                        000000000000000000
F0010000010678100002000000431178400041450500000000000000000201711200002001EFRAIN ALVAREZ                                    C000000001330000000000000000000000100010010000000000000000000000F0010000010678100220171120000101 00000000000000000000000000000000000000000000000000000000000000000000000000000000000000000000000000000000000000000N 00000000000NCONT   00    00000000000          00000000000000000000000000000000000000000000 000000000000000A000000000000000000000000000000000000000000000 000000000000000000000000000000000000000     00000000                                                                                                                        000000000000000000
F0010000010678100003000000431178400042505000000000000000000201711200002001EFRAIN ALVAREZ                                    C000000000100000000000000000000000100010010000000000000000000000F0010000010678100320171120000101 00000000000000000000000000000000000000000000000000000000000000000000000000000000000000000000000000000000000000000N 00000000000NCONT   00    00000000000          00000000000000000000000000000000000000000000 000000000000000A000000000000000000000000000000000000000000000 000000000000000000000000000000000000000     00000000                                                                                                                        000000000000000000
F0010000010678100004000000431178400023658300000000000000000201711200002001EFRAIN ALVAREZ                                    C000000000000000000000000000000000100010010000000000000000000000F0010000010678100420171120000101 00000000000000000000000000000000000000000000000000000000000000000000000000000000000000000000000000000000000000000N 00000000000NCONT   00    00000000000          00000000000000000000000000000000000000000000 000000000000000A000000000000000000000000000000000000000000000 000000000000000000000000000000000000000     00000000                                                                                                                        000000000000000000
F0010000010678100005000000431178400013552100000000000000000201711200002001EFRAIN ALVAREZ                                    D000000000000000000000000000000000100010010000000000000000000000F0010000010678100520171120000101 00000000000000000000000000000000000000000000000000000000000000000000000000000000000000000000000000000000000000000N 00000000000NCONT   00    00000000000          00000000000000000000000000000000000000000000 000000000000000A000000000000000000000000000000000000000000000 000000000000000000000000000000000000000     00000000                                                                                                                        000000000000000000
F0010000010678200001000080202350700011050500000000000000000201711200002001CONNY DE LA COSTA SAS                             D000000001000000000000000000000000100010010000000000000000000000F0010000010678200120171120000101 00000000000000000000000000000000000000000000000000000000000000000000000000000000000000000000000000000000000000000N 00000000000NCONT   00    00000000000          00000000000000000000000000000000000000000000 000000000000000A000000000000000000000000000000000000000000000 000000000000000000000000000000000000000     00000000                                                                                                                        000000000000000000
F0010000010678200002000080202350700041450500000000000000000201711200002001CONNY DE LA COSTA SAS                             C000000000900000000000000000000000100010010000000000000000000000F0010000010678200220171120000101 00000000000000000000000000000000000000000000000000000000000000000000000000000000000000000000000000000000000000000N 00000000000NCONT   00    00000000000          00000000000000000000000000000000000000000000 000000000000000A000000000000000000000000000000000000000000000 000000000000000000000000000000000000000     00000000                                                                                                                        000000000000000000
F0010000010678200003000080202350700042505000000000000000000201711200002001CONNY DE LA COSTA SAS                             C000000000100000000000000000000000100010010000000000000000000000F0010000010678200320171120000101 00000000000000000000000000000000000000000000000000000000000000000000000000000000000000000000000000000000000000000N 00000000000NCONT   00    00000000000          00000000000000000000000000000000000000000000 000000000000000A000000000000000000000000000000000000000000000 000000000000000000000000000000000000000     00000000                                                                                                                        000000000000000000
F0010000010678200004000080202350700023658300000000000000000201711200002001CONNY DE LA COSTA SAS                             C000000000000000000000000000000000100010010000000000000000000000F0010000010678200420171120000101 00000000000000000000000000000000000000000000000000000000000000000000000000000000000000000000000000000000000000000N 00000000000NCONT   00    00000000000          00000000000000000000000000000000000000000000 000000000000000A000000000000000000000000000000000000000000000 000000000000000000000000000000000000000     00000000                                                                                                                        000000000000000000
F0010000010678200005000080202350700013552100000000000000000201711200002001CONNY DE LA COSTA SAS                             D000000000000000000000000000000000100010010000000000000000000000F0010000010678200520171120000101 00000000000000000000000000000000000000000000000000000000000000000000000000000000000000000000000000000000000000000N 00000000000NCONT   00    00000000000          00000000000000000000000000000000000000000000 000000000000000A000000000000000000000000000000000000000000000 000000000000000000000000000000000000000     00000000                                                                                                                        000000000000000000
F0010000010678300001000000431178400011050500000000000000000201711200002001EFRAIN ALVAREZ                                    D000000002910000000000000000000000100010010000000000000000000000F0010000010678300120171120000101 00000000000000000000000000000000000000000000000000000000000000000000000000000000000000000000000000000000000000000N 00000000000NCONT   00    00000000000          00000000000000000000000000000000000000000000 000000000000000A000000000000000000000000000000000000000000000 000000000000000000000000000000000000000     00000000                                                                                                                        000000000000000000
F0010000010678300002000000431178400041450500000000000000000201711200002001EFRAIN ALVAREZ                                    C000000002660000000000000000000000100010010000000000000000000000F0010000010678300220171120000101 00000000000000000000000000000000000000000000000000000000000000000000000000000000000000000000000000000000000000000N 00000000000NCONT   00    00000000000          00000000000000000000000000000000000000000000 000000000000000A000000000000000000000000000000000000000000000 000000000000000000000000000000000000000     00000000                                                                                                                        000000000000000000
F0010000010678300003000000431178400042505000000000000000000201711200002001EFRAIN ALVAREZ                                    C000000000250000000000000000000000100010010000000000000000000000F0010000010678300320171120000101 00000000000000000000000000000000000000000000000000000000000000000000000000000000000000000000000000000000000000000N 00000000000NCONT   00    00000000000          00000000000000000000000000000000000000000000 000000000000000A000000000000000000000000000000000000000000000 000000000000000000000000000000000000000     00000000                                                                                                                        000000000000000000
F0010000010678300004000000431178400023658300000000000000000201711200002001EFRAIN ALVAREZ                                    C000000000000000000000000000000000100010010000000000000000000000F0010000010678300420171120000101 00000000000000000000000000000000000000000000000000000000000000000000000000000000000000000000000000000000000000000N 00000000000NCONT   00    00000000000          00000000000000000000000000000000000000000000 000000000000000A000000000000000000000000000000000000000000000 000000000000000000000000000000000000000     00000000                                                                                                                        000000000000000000
F0010000010678300005000000431178400013552100000000000000000201711200002001EFRAIN ALVAREZ                                    D000000000000000000000000000000000100010010000000000000000000000F0010000010678300520171120000101 00000000000000000000000000000000000000000000000000000000000000000000000000000000000000000000000000000000000000000N 00000000000NCONT   00    00000000000          00000000000000000000000000000000000000000000 000000000000000A000000000000000000000000000000000000000000000 000000000000000000000000000000000000000     00000000                                                                                                                        000000000000000000
F0010000010678400001000080202350700011050500000000000000000201711200002001CONNY DE LA COSTA SAS                             D000000004600000000000000000000000100010010000000000000000000000F0010000010678400120171120000101 00000000000000000000000000000000000000000000000000000000000000000000000000000000000000000000000000000000000000000N 00000000000NCONT   00    00000000000          00000000000000000000000000000000000000000000 000000000000000A000000000000000000000000000000000000000000000 000000000000000000000000000000000000000     00000000                                                                                                                        000000000000000000
F0010000010678400002000080202350700041450500000000000000000201711200002001CONNY DE LA COSTA SAS                             C000000004500000000000000000000000100010010000000000000000000000F0010000010678400220171120000101 00000000000000000000000000000000000000000000000000000000000000000000000000000000000000000000000000000000000000000N 00000000000NCONT   00    00000000000          00000000000000000000000000000000000000000000 000000000000000A000000000000000000000000000000000000000000000 000000000000000000000000000000000000000     00000000                                                                                                                        000000000000000000
F0010000010678400003000080202350700042505000000000000000000201711200002001CONNY DE LA COSTA SAS                             C000000000100000000000000000000000100010010000000000000000000000F0010000010678400320171120000101 00000000000000000000000000000000000000000000000000000000000000000000000000000000000000000000000000000000000000000N 00000000000NCONT   00    00000000000          00000000000000000000000000000000000000000000 000000000000000A000000000000000000000000000000000000000000000 000000000000000000000000000000000000000     00000000                                                                                                                        000000000000000000
F0010000010678400004000080202350700023658300000000000000000201711200002001CONNY DE LA COSTA SAS                             C000000000000000000000000000000000100010010000000000000000000000F0010000010678400420171120000101 00000000000000000000000000000000000000000000000000000000000000000000000000000000000000000000000000000000000000000N 00000000000NCONT   00    00000000000          00000000000000000000000000000000000000000000 000000000000000A000000000000000000000000000000000000000000000 000000000000000000000000000000000000000     00000000                                                                                                                        000000000000000000
F0010000010678400005000080202350700013552100000000000000000201711200002001CONNY DE LA COSTA SAS                             D000000000000000000000000000000000100010010000000000000000000000F0010000010678400520171120000101 00000000000000000000000000000000000000000000000000000000000000000000000000000000000000000000000000000000000000000N 00000000000NCONT   00    00000000000          00000000000000000000000000000000000000000000 000000000000000A000000000000000000000000000000000000000000000 000000000000000000000000000000000000000     00000000                                                                                                                        000000000000000000
F0010000010678500001000080202350700011050500000000000000000201711200002001CONNY DE LA COSTA SAS                             D000000001300000000000000000000000100010010000000000000000000000F0010000010678500120171120000101 00000000000000000000000000000000000000000000000000000000000000000000000000000000000000000000000000000000000000000N 00000000000NCONT   00    00000000000          00000000000000000000000000000000000000000000 000000000000000A000000000000000000000000000000000000000000000 000000000000000000000000000000000000000     00000000                                                                                                                        000000000000000000
F0010000010678500002000080202350700041450500000000000000000201711200002001CONNY DE LA COSTA SAS                             C000000001200000000000000000000000100010010000000000000000000000F0010000010678500220171120000101 00000000000000000000000000000000000000000000000000000000000000000000000000000000000000000000000000000000000000000N 00000000000NCONT   00    00000000000          00000000000000000000000000000000000000000000 000000000000000A000000000000000000000000000000000000000000000 000000000000000000000000000000000000000     00000000                                                                                                                        000000000000000000
F0010000010678500003000080202350700042505000000000000000000201711200002001CONNY DE LA COSTA SAS                             C000000000100000000000000000000000100010010000000000000000000000F0010000010678500320171120000101 00000000000000000000000000000000000000000000000000000000000000000000000000000000000000000000000000000000000000000N 00000000000NCONT   00    00000000000          00000000000000000000000000000000000000000000 000000000000000A000000000000000000000000000000000000000000000 000000000000000000000000000000000000000     00000000                                                                                                                        000000000000000000
F0010000010678500004000080202350700023658300000000000000000201711200002001CONNY DE LA COSTA SAS                             C000000000000000000000000000000000100010010000000000000000000000F0010000010678500420171120000101 00000000000000000000000000000000000000000000000000000000000000000000000000000000000000000000000000000000000000000N 00000000000NCONT   00    00000000000          00000000000000000000000000000000000000000000 000000000000000A000000000000000000000000000000000000000000000 000000000000000000000000000000000000000     00000000                                                                                                                        000000000000000000
F0010000010678500005000080202350700013552100000000000000000201711200002001CONNY DE LA COSTA SAS                             D000000000000000000000000000000000100010010000000000000000000000F0010000010678500520171120000101 00000000000000000000000000000000000000000000000000000000000000000000000000000000000000000000000000000000000000000N 00000000000NCONT   00    00000000000          00000000000000000000000000000000000000000000 000000000000000A000000000000000000000000000000000000000000000 000000000000000000000000000000000000000     00000000                                                                                                                        000000000000000000
F0010000010678600001000000431178400011050500000000000000000201711200002001EFRAIN ALVAREZ                                    D000000001380000000000000000000000100010010000000000000000000000F0010000010678600120171120000101 00000000000000000000000000000000000000000000000000000000000000000000000000000000000000000000000000000000000000000N 00000000000NCONT   00    00000000000          00000000000000000000000000000000000000000000 000000000000000A000000000000000000000000000000000000000000000 000000000000000000000000000000000000000     00000000                                                                                                                        000000000000000000
F0010000010678600002000000431178400041450500000000000000000201711200002001EFRAIN ALVAREZ                                    C000000001330000000000000000000000100010010000000000000000000000F0010000010678600220171120000101 00000000000000000000000000000000000000000000000000000000000000000000000000000000000000000000000000000000000000000N 00000000000NCONT   00    00000000000          00000000000000000000000000000000000000000000 000000000000000A000000000000000000000000000000000000000000000 000000000000000000000000000000000000000     00000000                                                                                                                        000000000000000000
F0010000010678600003000000431178400042505000000000000000000201711200002001EFRAIN ALVAREZ                                    C000000000050000000000000000000000100010010000000000000000000000F0010000010678600320171120000101 00000000000000000000000000000000000000000000000000000000000000000000000000000000000000000000000000000000000000000N 00000000000NCONT   00    00000000000          00000000000000000000000000000000000000000000 000000000000000A000000000000000000000000000000000000000000000 000000000000000000000000000000000000000     00000000                                                                                                                        000000000000000000
F0010000010678600004000000431178400023658300000000000000000201711200002001EFRAIN ALVAREZ                                    C000000000000000000000000000000000100010010000000000000000000000F0010000010678600420171120000101 00000000000000000000000000000000000000000000000000000000000000000000000000000000000000000000000000000000000000000N 00000000000NCONT   00    00000000000          00000000000000000000000000000000000000000000 000000000000000A000000000000000000000000000000000000000000000 000000000000000000000000000000000000000     00000000                                                                                                                        000000000000000000
F0010000010678600005000000431178400013552100000000000000000201711200002001EFRAIN ALVAREZ                                    D000000000000000000000000000000000100010010000000000000000000000F0010000010678600520171120000101 00000000000000000000000000000000000000000000000000000000000000000000000000000000000000000000000000000000000000000N 00000000000NCONT   00    00000000000          00000000000000000000000000000000000000000000 000000000000000A000000000000000000000000000000000000000000000 000000000000000000000000000000000000000     00000000                                                                                                                        000000000000000000
F0010000010678700001000007213653800011050500000000000000000201711200002001VICTOR ECHAVEZ                                    D000000005500000000000000000000000100010010000000000000000000000F0010000010678700120171120000101 00000000000000000000000000000000000000000000000000000000000000000000000000000000000000000000000000000000000000000N 00000000000NCONT   00    00000000000          00000000000000000000000000000000000000000000 000000000000000A000000000000000000000000000000000000000000000 000000000000000000000000000000000000000     00000000                                                                                                                        000000000000000000
F0010000010678700002000007213653800041450500000000000000000201711200002001VICTOR ECHAVEZ                                    C000000003300000000000000000000000100010010000000000000000000000F0010000010678700220171120000101 00000000000000000000000000000000000000000000000000000000000000000000000000000000000000000000000000000000000000000N 00000000000NCONT   00    00000000000          00000000000000000000000000000000000000000000 000000000000000A000000000000000000000000000000000000000000000 000000000000000000000000000000000000000     00000000                                                                                                                        000000000000000000
F0010000010678700003000007213653800042505000000000000000000201711200002001VICTOR ECHAVEZ                                    C000000002200000000000000000000000100010010000000000000000000000F0010000010678700320171120000101 00000000000000000000000000000000000000000000000000000000000000000000000000000000000000000000000000000000000000000N 00000000000NCONT   00    00000000000          00000000000000000000000000000000000000000000 000000000000000A000000000000000000000000000000000000000000000 000000000000000000000000000000000000000     00000000                                                                                                                        000000000000000000
F0010000010678700004000007213653800023658300000000000000000201711200002001VICTOR ECHAVEZ                                    C000000000000000000000000000000000100010010000000000000000000000F0010000010678700420171120000101 00000000000000000000000000000000000000000000000000000000000000000000000000000000000000000000000000000000000000000N 00000000000NCONT   00    00000000000          00000000000000000000000000000000000000000000 000000000000000A000000000000000000000000000000000000000000000 000000000000000000000000000000000000000     00000000                                                                                                                        000000000000000000
F0010000010678700005000007213653800013552100000000000000000201711200002001VICTOR ECHAVEZ                                    D000000000000000000000000000000000100010010000000000000000000000F0010000010678700520171120000101 00000000000000000000000000000000000000000000000000000000000000000000000000000000000000000000000000000000000000000N 00000000000NCONT   00    00000000000          00000000000000000000000000000000000000000000 000000000000000A000000000000000000000000000000000000000000000 000000000000000000000000000000000000000     00000000                                                                                                                        000000000000000000
F0010000010678800001000000431178400011050500000000000000000201711200002001EFRAIN ALVAREZ                                    D000000002760000000000000000000000100010010000000000000000000000F0010000010678800120171120000101 00000000000000000000000000000000000000000000000000000000000000000000000000000000000000000000000000000000000000000N 00000000000NCONT   00    00000000000          00000000000000000000000000000000000000000000 000000000000000A000000000000000000000000000000000000000000000 000000000000000000000000000000000000000     00000000                                                                                                                        000000000000000000
F0010000010678800002000000431178400041450500000000000000000201711200002001EFRAIN ALVAREZ                                    C000000002660000000000000000000000100010010000000000000000000000F0010000010678800220171120000101 00000000000000000000000000000000000000000000000000000000000000000000000000000000000000000000000000000000000000000N 00000000000NCONT   00    00000000000          00000000000000000000000000000000000000000000 000000000000000A000000000000000000000000000000000000000000000 000000000000000000000000000000000000000     00000000                                                                                                                        000000000000000000
F0010000010678800003000000431178400042505000000000000000000201711200002001EFRAIN ALVAREZ                                    C000000000100000000000000000000000100010010000000000000000000000F0010000010678800320171120000101 00000000000000000000000000000000000000000000000000000000000000000000000000000000000000000000000000000000000000000N 00000000000NCONT   00    00000000000          00000000000000000000000000000000000000000000 000000000000000A000000000000000000000000000000000000000000000 000000000000000000000000000000000000000     00000000                                                                                                                        000000000000000000
F0010000010678800004000000431178400023658300000000000000000201711200002001EFRAIN ALVAREZ                                    C000000000000000000000000000000000100010010000000000000000000000F0010000010678800420171120000101 00000000000000000000000000000000000000000000000000000000000000000000000000000000000000000000000000000000000000000N 00000000000NCONT   00    00000000000          00000000000000000000000000000000000000000000 000000000000000A000000000000000000000000000000000000000000000 000000000000000000000000000000000000000     00000000                                                                                                                        000000000000000000
F0010000010678800005000000431178400013552100000000000000000201711200002001EFRAIN ALVAREZ                                    D000000000000000000000000000000000100010010000000000000000000000F0010000010678800520171120000101 00000000000000000000000000000000000000000000000000000000000000000000000000000000000000000000000000000000000000000N 00000000000NCONT   00    00000000000          00000000000000000000000000000000000000000000 000000000000000A000000000000000000000000000000000000000000000 000000000000000000000000000000000000000     00000000                                                                                                                        000000000000000000
F0010000010678900001000000431178400011050500000000000000000201711200002001EFRAIN ALVAREZ                                    D000000002090000000000000000000000100010010000000000000000000000F0010000010678900120171120000101 00000000000000000000000000000000000000000000000000000000000000000000000000000000000000000000000000000000000000000N 00000000000NCONT   00    00000000000          00000000000000000000000000000000000000000000 000000000000000A000000000000000000000000000000000000000000000 000000000000000000000000000000000000000     00000000                                                                                                                        000000000000000000
F0010000010678900002000000431178400041450500000000000000000201711200002001EFRAIN ALVAREZ                                    C000000001940000000000000000000000100010010000000000000000000000F0010000010678900220171120000101 00000000000000000000000000000000000000000000000000000000000000000000000000000000000000000000000000000000000000000N 00000000000NCONT   00    00000000000          00000000000000000000000000000000000000000000 000000000000000A000000000000000000000000000000000000000000000 000000000000000000000000000000000000000     00000000                                                                                                                        000000000000000000
F0010000010678900003000000431178400042505000000000000000000201711200002001EFRAIN ALVAREZ                                    C000000000150000000000000000000000100010010000000000000000000000F0010000010678900320171120000101 00000000000000000000000000000000000000000000000000000000000000000000000000000000000000000000000000000000000000000N 00000000000NCONT   00    00000000000          00000000000000000000000000000000000000000000 000000000000000A000000000000000000000000000000000000000000000 000000000000000000000000000000000000000     00000000                                                                                                                        000000000000000000
F0010000010678900004000000431178400023658300000000000000000201711200002001EFRAIN ALVAREZ                                    C000000000000000000000000000000000100010010000000000000000000000F0010000010678900420171120000101 00000000000000000000000000000000000000000000000000000000000000000000000000000000000000000000000000000000000000000N 00000000000NCONT   00    00000000000          00000000000000000000000000000000000000000000 000000000000000A000000000000000000000000000000000000000000000 000000000000000000000000000000000000000     00000000                                                                                                                        000000000000000000
F0010000010678900005000000431178400013552100000000000000000201711200002001EFRAIN ALVAREZ                                    D000000000000000000000000000000000100010010000000000000000000000F0010000010678900520171120000101 00000000000000000000000000000000000000000000000000000000000000000000000000000000000000000000000000000000000000000N 00000000000NCONT   00    00000000000          00000000000000000000000000000000000000000000 000000000000000A000000000000000000000000000000000000000000000 000000000000000000000000000000000000000     00000000                                                                                                                        000000000000000000
F0010000010679000001000007200023300011050500000000000000000201711200002001WILLIAM ORTEGA                                    D000000001940000000000000000000000100010010000000000000000000000F0010000010679000120171120000101 00000000000000000000000000000000000000000000000000000000000000000000000000000000000000000000000000000000000000000N 00000000000NCONT   00    00000000000          00000000000000000000000000000000000000000000 000000000000000A000000000000000000000000000000000000000000000 000000000000000000000000000000000000000     00000000                                                                                                                        000000000000000000
F0010000010679000002000007200023300041450500000000000000000201711200002001WILLIAM ORTEGA                                    C000000001700000000000000000000000100010010000000000000000000000F0010000010679000220171120000101 00000000000000000000000000000000000000000000000000000000000000000000000000000000000000000000000000000000000000000N 00000000000NCONT   00    00000000000          00000000000000000000000000000000000000000000 000000000000000A000000000000000000000000000000000000000000000 000000000000000000000000000000000000000     00000000                                                                                                                        000000000000000000
F0010000010679000003000007200023300042505000000000000000000201711200002001WILLIAM ORTEGA                                    C000000000240000000000000000000000100010010000000000000000000000F0010000010679000320171120000101 00000000000000000000000000000000000000000000000000000000000000000000000000000000000000000000000000000000000000000N 00000000000NCONT   00    00000000000          00000000000000000000000000000000000000000000 000000000000000A000000000000000000000000000000000000000000000 000000000000000000000000000000000000000     00000000                                                                                                                        000000000000000000
F0010000010679000004000007200023300023658300000000000000000201711200002001WILLIAM ORTEGA                                    C000000000000000000000000000000000100010010000000000000000000000F0010000010679000420171120000101 00000000000000000000000000000000000000000000000000000000000000000000000000000000000000000000000000000000000000000N 00000000000NCONT   00    00000000000          00000000000000000000000000000000000000000000 000000000000000A000000000000000000000000000000000000000000000 000000000000000000000000000000000000000     00000000                                                                                                                        000000000000000000
F0010000010679000005000007200023300013552100000000000000000201711200002001WILLIAM ORTEGA                                    D000000000000000000000000000000000100010010000000000000000000000F0010000010679000520171120000101 00000000000000000000000000000000000000000000000000000000000000000000000000000000000000000000000000000000000000000N 00000000000NCONT   00    00000000000          00000000000000000000000000000000000000000000 000000000000000A000000000000000000000000000000000000000000000 000000000000000000000000000000000000000     00000000                                                                                                                        000000000000000000
F0010000010679100001000090067091400011050500000000000000000201711200002001COMERCIALIZADORA ESCOBAR ORTIZ                    D000000008786000000000000000000000100010010000000000000000000000F0010000010679100120171120000101 00000000000000000000000000000000000000000000000000000000000000000000000000000000000000000000000000000000000000000N 00000000000NCONT   00    00000000000          00000000000000000000000000000000000000000000 000000000000000A000000000000000000000000000000000000000000000 000000000000000000000000000000000000000     00000000                                                                                                                        000000000000000000
F0010000010679100002000090067091400041450500000000000000000201711200002001COMERCIALIZADORA ESCOBAR ORTIZ                    C000000007800000000000000000000000100010010000000000000000000000F0010000010679100220171120000101 00000000000000000000000000000000000000000000000000000000000000000000000000000000000000000000000000000000000000000N 00000000000NCONT   00    00000000000          00000000000000000000000000000000000000000000 000000000000000A000000000000000000000000000000000000000000000 000000000000000000000000000000000000000     00000000                                                                                                                        000000000000000000
F0010000010679100003000090067091400042505000000000000000000201711200002001COMERCIALIZADORA ESCOBAR ORTIZ                    C000000000986000000000000000000000100010010000000000000000000000F0010000010679100320171120000101 00000000000000000000000000000000000000000000000000000000000000000000000000000000000000000000000000000000000000000N 00000000000NCONT   00    00000000000          00000000000000000000000000000000000000000000 000000000000000A000000000000000000000000000000000000000000000 000000000000000000000000000000000000000     00000000                                                                                                                        000000000000000000
F0010000010679100004000090067091400023658300000000000000000201711200002001COMERCIALIZADORA ESCOBAR ORTIZ                    C000000000000000000000000000000000100010010000000000000000000000F0010000010679100420171120000101 00000000000000000000000000000000000000000000000000000000000000000000000000000000000000000000000000000000000000000N 00000000000NCONT   00    00000000000          00000000000000000000000000000000000000000000 000000000000000A000000000000000000000000000000000000000000000 000000000000000000000000000000000000000     00000000                                                                                                                        000000000000000000
F0010000010679100005000090067091400013552100000000000000000201711200002001COMERCIALIZADORA ESCOBAR ORTIZ                    D000000000000000000000000000000000100010010000000000000000000000F0010000010679100520171120000101 00000000000000000000000000000000000000000000000000000000000000000000000000000000000000000000000000000000000000000N 00000000000NCONT   00    00000000000          00000000000000000000000000000000000000000000 000000000000000A000000000000000000000000000000000000000000000 000000000000000000000000000000000000000     00000000                                                                                                                        000000000000000000
F0010000010679200001000090067091400011050500000000000000000201711200002001COMERCIALIZADORA ESCOBAR ORTIZ                    D000000001184000000000000000000000100010010000000000000000000000F0010000010679200120171120000101 00000000000000000000000000000000000000000000000000000000000000000000000000000000000000000000000000000000000000000N 00000000000NCONT   00    00000000000          00000000000000000000000000000000000000000000 000000000000000A000000000000000000000000000000000000000000000 000000000000000000000000000000000000000     00000000                                                                                                                        000000000000000000
F0010000010679200002000090067091400041450500000000000000000201711200002001COMERCIALIZADORA ESCOBAR ORTIZ                    C000000000600000000000000000000000100010010000000000000000000000F0010000010679200220171120000101 00000000000000000000000000000000000000000000000000000000000000000000000000000000000000000000000000000000000000000N 00000000000NCONT   00    00000000000          00000000000000000000000000000000000000000000 000000000000000A000000000000000000000000000000000000000000000 000000000000000000000000000000000000000     00000000                                                                                                                        000000000000000000
F0010000010679200003000090067091400042505000000000000000000201711200002001COMERCIALIZADORA ESCOBAR ORTIZ                    C000000000584000000000000000000000100010010000000000000000000000F0010000010679200320171120000101 00000000000000000000000000000000000000000000000000000000000000000000000000000000000000000000000000000000000000000N 00000000000NCONT   00    00000000000          00000000000000000000000000000000000000000000 000000000000000A000000000000000000000000000000000000000000000 000000000000000000000000000000000000000     00000000                                                                                                                        000000000000000000
F0010000010679200004000090067091400023658300000000000000000201711200002001COMERCIALIZADORA ESCOBAR ORTIZ                    C000000000000000000000000000000000100010010000000000000000000000F0010000010679200420171120000101 00000000000000000000000000000000000000000000000000000000000000000000000000000000000000000000000000000000000000000N 00000000000NCONT   00    00000000000          00000000000000000000000000000000000000000000 000000000000000A000000000000000000000000000000000000000000000 000000000000000000000000000000000000000     00000000                                                                                                                        000000000000000000
F0010000010679200005000090067091400013552100000000000000000201711200002001COMERCIALIZADORA ESCOBAR ORTIZ                    D000000000000000000000000000000000100010010000000000000000000000F0010000010679200520171120000101 00000000000000000000000000000000000000000000000000000000000000000000000000000000000000000000000000000000000000000N 00000000000NCONT   00    00000000000          00000000000000000000000000000000000000000000 000000000000000A000000000000000000000000000000000000000000000 000000000000000000000000000000000000000     00000000                                                                                                                        000000000000000000
F0010000010679300001000090067091400011050500000000000000000201711200002001COMERCIALIZADORA ESCOBAR ORTIZ                    D000000001400000000000000000000000100010010000000000000000000000F0010000010679300120171120000101 00000000000000000000000000000000000000000000000000000000000000000000000000000000000000000000000000000000000000000N 00000000000NCONT   00    00000000000          00000000000000000000000000000000000000000000 000000000000000A000000000000000000000000000000000000000000000 000000000000000000000000000000000000000     00000000                                                                                                                        000000000000000000
F0010000010679300002000090067091400041450500000000000000000201711200002001COMERCIALIZADORA ESCOBAR ORTIZ                    C000000000900000000000000000000000100010010000000000000000000000F0010000010679300220171120000101 00000000000000000000000000000000000000000000000000000000000000000000000000000000000000000000000000000000000000000N 00000000000NCONT   00    00000000000          00000000000000000000000000000000000000000000 000000000000000A000000000000000000000000000000000000000000000 000000000000000000000000000000000000000     00000000                                                                                                                        000000000000000000
F0010000010679300003000090067091400042505000000000000000000201711200002001COMERCIALIZADORA ESCOBAR ORTIZ                    C000000000500000000000000000000000100010010000000000000000000000F0010000010679300320171120000101 00000000000000000000000000000000000000000000000000000000000000000000000000000000000000000000000000000000000000000N 00000000000NCONT   00    00000000000          00000000000000000000000000000000000000000000 000000000000000A000000000000000000000000000000000000000000000 000000000000000000000000000000000000000     00000000                                                                                                                        000000000000000000
F0010000010679300004000090067091400023658300000000000000000201711200002001COMERCIALIZADORA ESCOBAR ORTIZ                    C000000000000000000000000000000000100010010000000000000000000000F0010000010679300420171120000101 00000000000000000000000000000000000000000000000000000000000000000000000000000000000000000000000000000000000000000N 00000000000NCONT   00    00000000000          00000000000000000000000000000000000000000000 000000000000000A000000000000000000000000000000000000000000000 000000000000000000000000000000000000000     00000000                                                                                                                        000000000000000000
F0010000010679300005000090067091400013552100000000000000000201711200002001COMERCIALIZADORA ESCOBAR ORTIZ                    D000000000000000000000000000000000100010010000000000000000000000F0010000010679300520171120000101 00000000000000000000000000000000000000000000000000000000000000000000000000000000000000000000000000000000000000000N 00000000000NCONT   00    00000000000          00000000000000000000000000000000000000000000 000000000000000A000000000000000000000000000000000000000000000 000000000000000000000000000000000000000     00000000                                                                                                                        000000000000000000
F0010000010679400001000080202350700011050500000000000000000201711200002001CONNY DE LA COSTA SAS                             D000000001250000000000000000000000100010010000000000000000000000F0010000010679400120171120000101 00000000000000000000000000000000000000000000000000000000000000000000000000000000000000000000000000000000000000000N 00000000000NCONT   00    00000000000          00000000000000000000000000000000000000000000 000000000000000A000000000000000000000000000000000000000000000 000000000000000000000000000000000000000     00000000                                                                                                                        000000000000000000
F0010000010679400002000080202350700041450500000000000000000201711200002001CONNY DE LA COSTA SAS                             C000000001200000000000000000000000100010010000000000000000000000F0010000010679400220171120000101 00000000000000000000000000000000000000000000000000000000000000000000000000000000000000000000000000000000000000000N 00000000000NCONT   00    00000000000          00000000000000000000000000000000000000000000 000000000000000A000000000000000000000000000000000000000000000 000000000000000000000000000000000000000     00000000                                                                                                                        000000000000000000
F0010000010679400003000080202350700042505000000000000000000201711200002001CONNY DE LA COSTA SAS                             C000000000050000000000000000000000100010010000000000000000000000F0010000010679400320171120000101 00000000000000000000000000000000000000000000000000000000000000000000000000000000000000000000000000000000000000000N 00000000000NCONT   00    00000000000          00000000000000000000000000000000000000000000 000000000000000A000000000000000000000000000000000000000000000 000000000000000000000000000000000000000     00000000                                                                                                                        000000000000000000
F0010000010679400004000080202350700023658300000000000000000201711200002001CONNY DE LA COSTA SAS                             C000000000000000000000000000000000100010010000000000000000000000F0010000010679400420171120000101 00000000000000000000000000000000000000000000000000000000000000000000000000000000000000000000000000000000000000000N 00000000000NCONT   00    00000000000          00000000000000000000000000000000000000000000 000000000000000A000000000000000000000000000000000000000000000 000000000000000000000000000000000000000     00000000                                                                                                                        000000000000000000
F0010000010679400005000080202350700013552100000000000000000201711200002001CONNY DE LA COSTA SAS                             D000000000000000000000000000000000100010010000000000000000000000F0010000010679400520171120000101 00000000000000000000000000000000000000000000000000000000000000000000000000000000000000000000000000000000000000000N 00000000000NCONT   00    00000000000          00000000000000000000000000000000000000000000 000000000000000A000000000000000000000000000000000000000000000 000000000000000000000000000000000000000     00000000                                                                                                                        000000000000000000
F0010000010679500001000003263562600011050500000000000000000201711200002001LOCAL 50 - MERCEDES ARAGUREN DE CHADID (MANUEL CHAD000000013300000000000000000000000100010010000000000000000000000F0010000010679500120171120000101 00000000000000000000000000000000000000000000000000000000000000000000000000000000000000000000000000000000000000000N 00000000000NCONT   00    00000000000          00000000000000000000000000000000000000000000 000000000000000A000000000000000000000000000000000000000000000 000000000000000000000000000000000000000     00000000                                                                                                                        000000000000000000
F0010000010679500002000003263562600041450500000000000000000201711200002001LOCAL 50 - MERCEDES ARAGUREN DE CHADID (MANUEL CHAC000000012100000000000000000000000100010010000000000000000000000F0010000010679500220171120000101 00000000000000000000000000000000000000000000000000000000000000000000000000000000000000000000000000000000000000000N 00000000000NCONT   00    00000000000          00000000000000000000000000000000000000000000 000000000000000A000000000000000000000000000000000000000000000 000000000000000000000000000000000000000     00000000                                                                                                                        000000000000000000
F0010000010679500003000003263562600042505000000000000000000201711200002001LOCAL 50 - MERCEDES ARAGUREN DE CHADID (MANUEL CHAC000000001200000000000000000000000100010010000000000000000000000F0010000010679500320171120000101 00000000000000000000000000000000000000000000000000000000000000000000000000000000000000000000000000000000000000000N 00000000000NCONT   00    00000000000          00000000000000000000000000000000000000000000 000000000000000A000000000000000000000000000000000000000000000 000000000000000000000000000000000000000     00000000                                                                                                                        000000000000000000
F0010000010679500004000003263562600023658300000000000000000201711200002001LOCAL 50 - MERCEDES ARAGUREN DE CHADID (MANUEL CHAC000000000000000000000000000000000100010010000000000000000000000F0010000010679500420171120000101 00000000000000000000000000000000000000000000000000000000000000000000000000000000000000000000000000000000000000000N 00000000000NCONT   00    00000000000          00000000000000000000000000000000000000000000 000000000000000A000000000000000000000000000000000000000000000 000000000000000000000000000000000000000     00000000                                                                                                                        000000000000000000
F0010000010679500005000003263562600013552100000000000000000201711200002001LOCAL 50 - MERCEDES ARAGUREN DE CHADID (MANUEL CHAD000000000000000000000000000000000100010010000000000000000000000F0010000010679500520171120000101 00000000000000000000000000000000000000000000000000000000000000000000000000000000000000000000000000000000000000000N 00000000000NCONT   00    00000000000          00000000000000000000000000000000000000000000 000000000000000A000000000000000000000000000000000000000000000 000000000000000000000000000000000000000     00000000                                                                                                                        000000000000000000
F0010000010679600001000090067091400011050500000000000000000201711200002001COMERCIALIZADORA ESCOBAR ORTIZ                    D000000004800500000000000000000000100010010000000000000000000000F0010000010679600120171120000101 00000000000000000000000000000000000000000000000000000000000000000000000000000000000000000000000000000000000000000N 00000000000NCONT   00    00000000000          00000000000000000000000000000000000000000000 000000000000000A000000000000000000000000000000000000000000000 000000000000000000000000000000000000000     00000000                                                                                                                        000000000000000000
F0010000010679600002000090067091400041450500000000000000000201711200002001COMERCIALIZADORA ESCOBAR ORTIZ                    C000000003900000000000000000000000100010010000000000000000000000F0010000010679600220171120000101 00000000000000000000000000000000000000000000000000000000000000000000000000000000000000000000000000000000000000000N 00000000000NCONT   00    00000000000          00000000000000000000000000000000000000000000 000000000000000A000000000000000000000000000000000000000000000 000000000000000000000000000000000000000     00000000                                                                                                                        000000000000000000
