F0010000007947100001000001022529300013050500000000000000000201511260002001ALBERTO ALVAREZ ISAZA                             D000000006300000000000000000000000100010010000000000000000000000F0010000007947100120151126000101 00000000000000000000000000000000000000000000000000000000000000000000000000000000000000000000000000000000000000000N 00000000000NCONT   00    00000000000          00000000000000000000000000000000000000000000 000000000000000A000000000000000000000000000000000000000000000 000000000000000000000000000000000000000     00000000                                                                                                                        000000000000000000
F0010000007947100002000001022529300041450500000000000000000201511260002001ALBERTO ALVAREZ ISAZA                             C000000006300000000000000000000000100010010000000000000000000000F0010000007947100220151126000101 00000000000000000000000000000000000000000000000000000000000000000000000000000000000000000000000000000000000000000N 00000000000NCONT   00    00000000000          00000000000000000000000000000000000000000000 000000000000000A000000000000000000000000000000000000000000000 000000000000000000000000000000000000000     00000000                                                                                                                        000000000000000000
F0010000007947100003000001022529300042505000000000000000000201511260002001ALBERTO ALVAREZ ISAZA                             C000000000000000000000000000000000100010010000000000000000000000F0010000007947100320151126000101 00000000000000000000000000000000000000000000000000000000000000000000000000000000000000000000000000000000000000000N 00000000000NCONT   00    00000000000          00000000000000000000000000000000000000000000 000000000000000A000000000000000000000000000000000000000000000 000000000000000000000000000000000000000     00000000                                                                                                                        000000000000000000
F0010000007947100004000001022529300023658300000000000000000201511260002001ALBERTO ALVAREZ ISAZA                             C000000000050400000000000000000000100010010000000000000000000000F0010000007947100420151126000101 00000000000000000000000000000000000000000000000000000000000000000000000000000000000000000000000000000000000000000N 00000000000NCONT   00    00000000000          00000000000000000000000000000000000000000000 000000000000000A000000000000000000000000000000000000000000000 000000000000000000000000000000000000000     00000000                                                                                                                        000000000000000000
F0010000007947100005000001022529300013552100000000000000000201511260002001ALBERTO ALVAREZ ISAZA                             D000000000050400000000000000000000100010010000000000000000000000F0010000007947100520151126000101 00000000000000000000000000000000000000000000000000000000000000000000000000000000000000000000000000000000000000000N 00000000000NCONT   00    00000000000          00000000000000000000000000000000000000000000 000000000000000A000000000000000000000000000000000000000000000 000000000000000000000000000000000000000     00000000                                                                                                                        000000000000000000
F0010000007947200001000000876579700013050500000000000000000201511260002001JOSE LUIS MUÑOZ                                  D000000006980000000000000000000000100010010000000000000000000000F0010000007947200120151126000101 00000000000000000000000000000000000000000000000000000000000000000000000000000000000000000000000000000000000000000N 00000000000NCONT   00    00000000000          00000000000000000000000000000000000000000000 000000000000000A000000000000000000000000000000000000000000000 000000000000000000000000000000000000000     00000000                                                                                                                        000000000000000000
F0010000007947200002000000876579700041450500000000000000000201511260002001JOSE LUIS MUÑOZ                                  C000000006580000000000000000000000100010010000000000000000000000F0010000007947200220151126000101 00000000000000000000000000000000000000000000000000000000000000000000000000000000000000000000000000000000000000000N 00000000000NCONT   00    00000000000          00000000000000000000000000000000000000000000 000000000000000A000000000000000000000000000000000000000000000 000000000000000000000000000000000000000     00000000                                                                                                                        000000000000000000
F0010000007947200003000000876579700042505000000000000000000201511260002001JOSE LUIS MUÑOZ                                  C000000000400000000000000000000000100010010000000000000000000000F0010000007947200320151126000101 00000000000000000000000000000000000000000000000000000000000000000000000000000000000000000000000000000000000000000N 00000000000NCONT   00    00000000000          00000000000000000000000000000000000000000000 000000000000000A000000000000000000000000000000000000000000000 000000000000000000000000000000000000000     00000000                                                                                                                        000000000000000000
F0010000007947200004000000876579700023658300000000000000000201511260002001JOSE LUIS MUÑOZ                                  C000000000052600000000000000000000100010010000000000000000000000F0010000007947200420151126000101 00000000000000000000000000000000000000000000000000000000000000000000000000000000000000000000000000000000000000000N 00000000000NCONT   00    00000000000          00000000000000000000000000000000000000000000 000000000000000A000000000000000000000000000000000000000000000 000000000000000000000000000000000000000     00000000                                                                                                                        000000000000000000
F0010000007947200005000000876579700013552100000000000000000201511260002001JOSE LUIS MUÑOZ                                  D000000000052600000000000000000000100010010000000000000000000000F0010000007947200520151126000101 00000000000000000000000000000000000000000000000000000000000000000000000000000000000000000000000000000000000000000N 00000000000NCONT   00    00000000000          00000000000000000000000000000000000000000000 000000000000000A000000000000000000000000000000000000000000000 000000000000000000000000000000000000000     00000000                                                                                                                        000000000000000000
F0010000007947300001000002257933700013050500000000000000000201511260002001ROSA MARGARITA  PUCCINI SU HERRAMIENTAS Y ELECTRICD000000001389100000000000000000000100010010000000000000000000000F0010000007947300120151126000101 00000000000000000000000000000000000000000000000000000000000000000000000000000000000000000000000000000000000000000N 00000000000NCONT   00    00000000000          00000000000000000000000000000000000000000000 000000000000000A000000000000000000000000000000000000000000000 000000000000000000000000000000000000000     00000000                                                                                                                        000000000000000000
F0010000007947300002000002257933700041450500000000000000000201511260002001ROSA MARGARITA  PUCCINI SU HERRAMIENTAS Y ELECTRICC000000001140000000000000000000000100010010000000000000000000000F0010000007947300220151126000101 00000000000000000000000000000000000000000000000000000000000000000000000000000000000000000000000000000000000000000N 00000000000NCONT   00    00000000000          00000000000000000000000000000000000000000000 000000000000000A000000000000000000000000000000000000000000000 000000000000000000000000000000000000000     00000000                                                                                                                        000000000000000000
F0010000007947300003000002257933700042505000000000000000000201511260002001ROSA MARGARITA  PUCCINI SU HERRAMIENTAS Y ELECTRICC000000000249100000000000000000000100010010000000000000000000000F0010000007947300320151126000101 00000000000000000000000000000000000000000000000000000000000000000000000000000000000000000000000000000000000000000N 00000000000NCONT   00    00000000000          00000000000000000000000000000000000000000000 000000000000000A000000000000000000000000000000000000000000000 000000000000000000000000000000000000000     00000000                                                                                                                        000000000000000000
F0010000007947300004000002257933700023658300000000000000000201511260002001ROSA MARGARITA  PUCCINI SU HERRAMIENTAS Y ELECTRICC000000000009100000000000000000000100010010000000000000000000000F0010000007947300420151126000101 00000000000000000000000000000000000000000000000000000000000000000000000000000000000000000000000000000000000000000N 00000000000NCONT   00    00000000000          00000000000000000000000000000000000000000000 000000000000000A000000000000000000000000000000000000000000000 000000000000000000000000000000000000000     00000000                                                                                                                        000000000000000000
F0010000007947300005000002257933700013552100000000000000000201511260002001ROSA MARGARITA  PUCCINI SU HERRAMIENTAS Y ELECTRICD000000000009100000000000000000000100010010000000000000000000000F0010000007947300520151126000101 00000000000000000000000000000000000000000000000000000000000000000000000000000000000000000000000000000000000000000N 00000000000NCONT   00    00000000000          00000000000000000000000000000000000000000000 000000000000000A000000000000000000000000000000000000000000000 000000000000000000000000000000000000000     00000000                                                                                                                        000000000000000000
F0010000007947400001000090055180500013050500000000000000000201511260002001LAMINAS Y SUELAS DE COLOMBIA S.A.S                D000000002969000000000000000000000100010010000000000000000000000F0010000007947400120151126000101 00000000000000000000000000000000000000000000000000000000000000000000000000000000000000000000000000000000000000000N 00000000000NCONT   00    00000000000          00000000000000000000000000000000000000000000 000000000000000A000000000000000000000000000000000000000000000 000000000000000000000000000000000000000     00000000                                                                                                                        000000000000000000
F0010000007947400002000090055180500041450500000000000000000201511260002001LAMINAS Y SUELAS DE COLOMBIA S.A.S                C000000002400000000000000000000000100010010000000000000000000000F0010000007947400220151126000101 00000000000000000000000000000000000000000000000000000000000000000000000000000000000000000000000000000000000000000N 00000000000NCONT   00    00000000000          00000000000000000000000000000000000000000000 000000000000000A000000000000000000000000000000000000000000000 000000000000000000000000000000000000000     00000000                                                                                                                        000000000000000000
F0010000007947400003000090055180500042505000000000000000000201511260002001LAMINAS Y SUELAS DE COLOMBIA S.A.S                C000000000569000000000000000000000100010010000000000000000000000F0010000007947400320151126000101 00000000000000000000000000000000000000000000000000000000000000000000000000000000000000000000000000000000000000000N 00000000000NCONT   00    00000000000          00000000000000000000000000000000000000000000 000000000000000A000000000000000000000000000000000000000000000 000000000000000000000000000000000000000     00000000                                                                                                                        000000000000000000
F0010000007947400004000090055180500023658300000000000000000201511260002001LAMINAS Y SUELAS DE COLOMBIA S.A.S                C000000000019200000000000000000000100010010000000000000000000000F0010000007947400420151126000101 00000000000000000000000000000000000000000000000000000000000000000000000000000000000000000000000000000000000000000N 00000000000NCONT   00    00000000000          00000000000000000000000000000000000000000000 000000000000000A000000000000000000000000000000000000000000000 000000000000000000000000000000000000000     00000000                                                                                                                        000000000000000000
F0010000007947400005000090055180500013552100000000000000000201511260002001LAMINAS Y SUELAS DE COLOMBIA S.A.S                D000000000019200000000000000000000100010010000000000000000000000F0010000007947400520151126000101 00000000000000000000000000000000000000000000000000000000000000000000000000000000000000000000000000000000000000000N 00000000000NCONT   00    00000000000          00000000000000000000000000000000000000000000 000000000000000A000000000000000000000000000000000000000000000 000000000000000000000000000000000000000     00000000                                                                                                                        000000000000000000
F0010000007947500001000003207718300011050500000000000000000201511260002001MARIA GILMA RAMIREZ GARCIA                        D000000020000000000000000000000000100010010000000000000000000000F0010000007947500120151126000101 00000000000000000000000000000000000000000000000000000000000000000000000000000000000000000000000000000000000000000N 00000000000NCONT   00    00000000000          00000000000000000000000000000000000000000000 000000000000000A000000000000000000000000000000000000000000000 000000000000000000000000000000000000000     00000000                                                                                                                        000000000000000000
F0010000007947500002000003207718300041450500000000000000000201511260002001MARIA GILMA RAMIREZ GARCIA                        C000000016000000000000000000000000100010010000000000000000000000F0010000007947500220151126000101 00000000000000000000000000000000000000000000000000000000000000000000000000000000000000000000000000000000000000000N 00000000000NCONT   00    00000000000          00000000000000000000000000000000000000000000 000000000000000A000000000000000000000000000000000000000000000 000000000000000000000000000000000000000     00000000                                                                                                                        000000000000000000
F0010000007947500003000003207718300042505000000000000000000201511260002001MARIA GILMA RAMIREZ GARCIA                        C000000004000000000000000000000000100010010000000000000000000000F0010000007947500320151126000101 00000000000000000000000000000000000000000000000000000000000000000000000000000000000000000000000000000000000000000N 00000000000NCONT   00    00000000000          00000000000000000000000000000000000000000000 000000000000000A000000000000000000000000000000000000000000000 000000000000000000000000000000000000000     00000000                                                                                                                        000000000000000000
F0010000007947500004000003207718300023658300000000000000000201511260002001MARIA GILMA RAMIREZ GARCIA                        C000000000128000000000000000000000100010010000000000000000000000F0010000007947500420151126000101 00000000000000000000000000000000000000000000000000000000000000000000000000000000000000000000000000000000000000000N 00000000000NCONT   00    00000000000          00000000000000000000000000000000000000000000 000000000000000A000000000000000000000000000000000000000000000 000000000000000000000000000000000000000     00000000                                                                                                                        000000000000000000
F0010000007947500005000003207718300013552100000000000000000201511260002001MARIA GILMA RAMIREZ GARCIA                        D000000000128000000000000000000000100010010000000000000000000000F0010000007947500520151126000101 00000000000000000000000000000000000000000000000000000000000000000000000000000000000000000000000000000000000000000N 00000000000NCONT   00    00000000000          00000000000000000000000000000000000000000000 000000000000000A000000000000000000000000000000000000000000000 000000000000000000000000000000000000000     00000000                                                                                                                        000000000000000000
F0010000007947600001000090041529500013050500000000000000000201511260002001EME IMPORTACIONES ELECTRICA                       D000000001459000000000000000000000100010010000000000000000000000F0010000007947600120151126000101 00000000000000000000000000000000000000000000000000000000000000000000000000000000000000000000000000000000000000000N 00000000000NCONT   00    00000000000          00000000000000000000000000000000000000000000 000000000000000A000000000000000000000000000000000000000000000 000000000000000000000000000000000000000     00000000                                                                                                                        000000000000000000
F0010000007947600002000090041529500041450500000000000000000201511260002001EME IMPORTACIONES ELECTRICA                       C000000000959000000000000000000000100010010000000000000000000000F0010000007947600220151126000101 00000000000000000000000000000000000000000000000000000000000000000000000000000000000000000000000000000000000000000N 00000000000NCONT   00    00000000000          00000000000000000000000000000000000000000000 000000000000000A000000000000000000000000000000000000000000000 000000000000000000000000000000000000000     00000000                                                                                                                        000000000000000000
F0010000007947600003000090041529500042505000000000000000000201511260002001EME IMPORTACIONES ELECTRICA                       C000000000500000000000000000000000100010010000000000000000000000F0010000007947600320151126000101 00000000000000000000000000000000000000000000000000000000000000000000000000000000000000000000000000000000000000000N 00000000000NCONT   00    00000000000          00000000000000000000000000000000000000000000 000000000000000A000000000000000000000000000000000000000000000 000000000000000000000000000000000000000     00000000                                                                                                                        000000000000000000
F0010000007947600004000090041529500023658300000000000000000201511260002001EME IMPORTACIONES ELECTRICA                       C000000000007700000000000000000000100010010000000000000000000000F0010000007947600420151126000101 00000000000000000000000000000000000000000000000000000000000000000000000000000000000000000000000000000000000000000N 00000000000NCONT   00    00000000000          00000000000000000000000000000000000000000000 000000000000000A000000000000000000000000000000000000000000000 000000000000000000000000000000000000000     00000000                                                                                                                        000000000000000000
F0010000007947600005000090041529500013552100000000000000000201511260002001EME IMPORTACIONES ELECTRICA                       D000000000007700000000000000000000100010010000000000000000000000F0010000007947600520151126000101 00000000000000000000000000000000000000000000000000000000000000000000000000000000000000000000000000000000000000000N 00000000000NCONT   00    00000000000          00000000000000000000000000000000000000000000 000000000000000A000000000000000000000000000000000000000000000 000000000000000000000000000000000000000     00000000                                                                                                                        000000000000000000
F0010000007947700001000000869402400011050500000000000000000201511260002001ISRAEL MANGA                                      D000000001450000000000000000000000100010010000000000000000000000F0010000007947700120151126000101 00000000000000000000000000000000000000000000000000000000000000000000000000000000000000000000000000000000000000000N 00000000000NCONT   00    00000000000          00000000000000000000000000000000000000000000 000000000000000A000000000000000000000000000000000000000000000 000000000000000000000000000000000000000     00000000                                                                                                                        000000000000000000
F0010000007947700002000000869402400041450500000000000000000201511260002001ISRAEL MANGA                                      C000000001200000000000000000000000100010010000000000000000000000F0010000007947700220151126000101 00000000000000000000000000000000000000000000000000000000000000000000000000000000000000000000000000000000000000000N 00000000000NCONT   00    00000000000          00000000000000000000000000000000000000000000 000000000000000A000000000000000000000000000000000000000000000 000000000000000000000000000000000000000     00000000                                                                                                                        000000000000000000
F0010000007947700003000000869402400042505000000000000000000201511260002001ISRAEL MANGA                                      C000000000250000000000000000000000100010010000000000000000000000F0010000007947700320151126000101 00000000000000000000000000000000000000000000000000000000000000000000000000000000000000000000000000000000000000000N 00000000000NCONT   00    00000000000          00000000000000000000000000000000000000000000 000000000000000A000000000000000000000000000000000000000000000 000000000000000000000000000000000000000     00000000                                                                                                                        000000000000000000
F0010000007947700004000000869402400023658300000000000000000201511260002001ISRAEL MANGA                                      C000000000009600000000000000000000100010010000000000000000000000F0010000007947700420151126000101 00000000000000000000000000000000000000000000000000000000000000000000000000000000000000000000000000000000000000000N 00000000000NCONT   00    00000000000          00000000000000000000000000000000000000000000 000000000000000A000000000000000000000000000000000000000000000 000000000000000000000000000000000000000     00000000                                                                                                                        000000000000000000
F0010000007947700005000000869402400013552100000000000000000201511260002001ISRAEL MANGA                                      D000000000009600000000000000000000100010010000000000000000000000F0010000007947700520151126000101 00000000000000000000000000000000000000000000000000000000000000000000000000000000000000000000000000000000000000000N 00000000000NCONT   00    00000000000          00000000000000000000000000000000000000000000 000000000000000A000000000000000000000000000000000000000000000 000000000000000000000000000000000000000     00000000                                                                                                                        000000000000000000
F0010000007947800001000090037940600011050500000000000000000201511260002001DISTRIBUIDORA DE COSMETICOS ROSA SARON LTDA       D000000001200000000000000000000000100010010000000000000000000000F0010000007947800120151126000101 00000000000000000000000000000000000000000000000000000000000000000000000000000000000000000000000000000000000000000N 00000000000NCONT   00    00000000000          00000000000000000000000000000000000000000000 000000000000000A000000000000000000000000000000000000000000000 000000000000000000000000000000000000000     00000000                                                                                                                        000000000000000000
F0010000007947800002000090037940600041450500000000000000000201511260002001DISTRIBUIDORA DE COSMETICOS ROSA SARON LTDA       C000000000950000000000000000000000100010010000000000000000000000F0010000007947800220151126000101 00000000000000000000000000000000000000000000000000000000000000000000000000000000000000000000000000000000000000000N 00000000000NCONT   00    00000000000          00000000000000000000000000000000000000000000 000000000000000A000000000000000000000000000000000000000000000 000000000000000000000000000000000000000     00000000                                                                                                                        000000000000000000
F0010000007947800003000090037940600042505000000000000000000201511260002001DISTRIBUIDORA DE COSMETICOS ROSA SARON LTDA       C000000000250000000000000000000000100010010000000000000000000000F0010000007947800320151126000101 00000000000000000000000000000000000000000000000000000000000000000000000000000000000000000000000000000000000000000N 00000000000NCONT   00    00000000000          00000000000000000000000000000000000000000000 000000000000000A000000000000000000000000000000000000000000000 000000000000000000000000000000000000000     00000000                                                                                                                        000000000000000000
F0010000007947800004000090037940600023658300000000000000000201511260002001DISTRIBUIDORA DE COSMETICOS ROSA SARON LTDA       C000000000007600000000000000000000100010010000000000000000000000F0010000007947800420151126000101 00000000000000000000000000000000000000000000000000000000000000000000000000000000000000000000000000000000000000000N 00000000000NCONT   00    00000000000          00000000000000000000000000000000000000000000 000000000000000A000000000000000000000000000000000000000000000 000000000000000000000000000000000000000     00000000                                                                                                                        000000000000000000
F0010000007947800005000090037940600013552100000000000000000201511260002001DISTRIBUIDORA DE COSMETICOS ROSA SARON LTDA       D000000000007600000000000000000000100010010000000000000000000000F0010000007947800520151126000101 00000000000000000000000000000000000000000000000000000000000000000000000000000000000000000000000000000000000000000N 00000000000NCONT   00    00000000000          00000000000000000000000000000000000000000000 000000000000000A000000000000000000000000000000000000000000000 000000000000000000000000000000000000000     00000000                                                                                                                        000000000000000000
F0010000007947900001000080023327700011050500000000000000000201511260002001DISINCO LTDA                                      D000000002800000000000000000000000100010010000000000000000000000F0010000007947900120151126000101 00000000000000000000000000000000000000000000000000000000000000000000000000000000000000000000000000000000000000000N 00000000000NCONT   00    00000000000          00000000000000000000000000000000000000000000 000000000000000A000000000000000000000000000000000000000000000 000000000000000000000000000000000000000     00000000                                                                                                                        000000000000000000
F0010000007947900002000080023327700041450500000000000000000201511260002001DISINCO LTDA                                      C000000002700000000000000000000000100010010000000000000000000000F0010000007947900220151126000101 00000000000000000000000000000000000000000000000000000000000000000000000000000000000000000000000000000000000000000N 00000000000NCONT   00    00000000000          00000000000000000000000000000000000000000000 000000000000000A000000000000000000000000000000000000000000000 000000000000000000000000000000000000000     00000000                                                                                                                        000000000000000000
F0010000007947900003000080023327700042505000000000000000000201511260002001DISINCO LTDA                                      C000000000100000000000000000000000100010010000000000000000000000F0010000007947900320151126000101 00000000000000000000000000000000000000000000000000000000000000000000000000000000000000000000000000000000000000000N 00000000000NCONT   00    00000000000          00000000000000000000000000000000000000000000 000000000000000A000000000000000000000000000000000000000000000 000000000000000000000000000000000000000     00000000                                                                                                                        000000000000000000
F0010000007947900004000080023327700023658300000000000000000201511260002001DISINCO LTDA                                      C000000000021600000000000000000000100010010000000000000000000000F0010000007947900420151126000101 00000000000000000000000000000000000000000000000000000000000000000000000000000000000000000000000000000000000000000N 00000000000NCONT   00    00000000000          00000000000000000000000000000000000000000000 000000000000000A000000000000000000000000000000000000000000000 000000000000000000000000000000000000000     00000000                                                                                                                        000000000000000000
F0010000007947900005000080023327700013552100000000000000000201511260002001DISINCO LTDA                                      D000000000021600000000000000000000100010010000000000000000000000F0010000007947900520151126000101 00000000000000000000000000000000000000000000000000000000000000000000000000000000000000000000000000000000000000000N 00000000000NCONT   00    00000000000          00000000000000000000000000000000000000000000 000000000000000A000000000000000000000000000000000000000000000 000000000000000000000000000000000000000     00000000                                                                                                                        000000000000000000
F0010000007948000001000001348100700011050500000000000000000201511260002001CALZADO ANDINO                                    D000000006400000000000000000000000100010010000000000000000000000F0010000007948000120151126000101 00000000000000000000000000000000000000000000000000000000000000000000000000000000000000000000000000000000000000000N 00000000000NCONT   00    00000000000          00000000000000000000000000000000000000000000 000000000000000A000000000000000000000000000000000000000000000 000000000000000000000000000000000000000     00000000                                                                                                                        000000000000000000
F0010000007948000002000001348100700041450500000000000000000201511260002001CALZADO ANDINO                                    C000000006000000000000000000000000100010010000000000000000000000F0010000007948000220151126000101 00000000000000000000000000000000000000000000000000000000000000000000000000000000000000000000000000000000000000000N 00000000000NCONT   00    00000000000          00000000000000000000000000000000000000000000 000000000000000A000000000000000000000000000000000000000000000 000000000000000000000000000000000000000     00000000                                                                                                                        000000000000000000
F0010000007948000003000001348100700042505000000000000000000201511260002001CALZADO ANDINO                                    C000000000400000000000000000000000100010010000000000000000000000F0010000007948000320151126000101 00000000000000000000000000000000000000000000000000000000000000000000000000000000000000000000000000000000000000000N 00000000000NCONT   00    00000000000          00000000000000000000000000000000000000000000 000000000000000A000000000000000000000000000000000000000000000 000000000000000000000000000000000000000     00000000                                                                                                                        000000000000000000
F0010000007948000004000001348100700023658300000000000000000201511260002001CALZADO ANDINO                                    C000000000048000000000000000000000100010010000000000000000000000F0010000007948000420151126000101 00000000000000000000000000000000000000000000000000000000000000000000000000000000000000000000000000000000000000000N 00000000000NCONT   00    00000000000          00000000000000000000000000000000000000000000 000000000000000A000000000000000000000000000000000000000000000 000000000000000000000000000000000000000     00000000                                                                                                                        000000000000000000
F0010000007948000005000001348100700013552100000000000000000201511260002001CALZADO ANDINO                                    D000000000048000000000000000000000100010010000000000000000000000F0010000007948000520151126000101 00000000000000000000000000000000000000000000000000000000000000000000000000000000000000000000000000000000000000000N 00000000000NCONT   00    00000000000          00000000000000000000000000000000000000000000 000000000000000A000000000000000000000000000000000000000000000 000000000000000000000000000000000000000     00000000                                                                                                                        000000000000000000
F0010000007948100001000090034602400011050500000000000000000201511260002001PRODUCTOS NACIONALES PARAFINICOS LA CUSTODIA S.A.SD000000003000000000000000000000000100010010000000000000000000000F0010000007948100120151126000101 00000000000000000000000000000000000000000000000000000000000000000000000000000000000000000000000000000000000000000N 00000000000NCONT   00    00000000000          00000000000000000000000000000000000000000000 000000000000000A000000000000000000000000000000000000000000000 000000000000000000000000000000000000000     00000000                                                                                                                        000000000000000000
F0010000007948100002000090034602400041450500000000000000000201511260002001PRODUCTOS NACIONALES PARAFINICOS LA CUSTODIA S.A.SC000000002700000000000000000000000100010010000000000000000000000F0010000007948100220151126000101 00000000000000000000000000000000000000000000000000000000000000000000000000000000000000000000000000000000000000000N 00000000000NCONT   00    00000000000          00000000000000000000000000000000000000000000 000000000000000A000000000000000000000000000000000000000000000 000000000000000000000000000000000000000     00000000                                                                                                                        000000000000000000
F0010000007948100003000090034602400042505000000000000000000201511260002001PRODUCTOS NACIONALES PARAFINICOS LA CUSTODIA S.A.SC000000000300000000000000000000000100010010000000000000000000000F0010000007948100320151126000101 00000000000000000000000000000000000000000000000000000000000000000000000000000000000000000000000000000000000000000N 00000000000NCONT   00    00000000000          00000000000000000000000000000000000000000000 000000000000000A000000000000000000000000000000000000000000000 000000000000000000000000000000000000000     00000000                                                                                                                        000000000000000000
F0010000007948100004000090034602400023658300000000000000000201511260002001PRODUCTOS NACIONALES PARAFINICOS LA CUSTODIA S.A.SC000000000021600000000000000000000100010010000000000000000000000F0010000007948100420151126000101 00000000000000000000000000000000000000000000000000000000000000000000000000000000000000000000000000000000000000000N 00000000000NCONT   00    00000000000          00000000000000000000000000000000000000000000 000000000000000A000000000000000000000000000000000000000000000 000000000000000000000000000000000000000     00000000                                                                                                                        000000000000000000
F0010000007948100005000090034602400013552100000000000000000201511260002001PRODUCTOS NACIONALES PARAFINICOS LA CUSTODIA S.A.SD000000000021600000000000000000000100010010000000000000000000000F0010000007948100520151126000101 00000000000000000000000000000000000000000000000000000000000000000000000000000000000000000000000000000000000000000N 00000000000NCONT   00    00000000000          00000000000000000000000000000000000000000000 000000000000000A000000000000000000000000000000000000000000000 000000000000000000000000000000000000000     00000000                                                                                                                        000000000000000000
F0010000007948200001000090015305700011050500000000000000000201511260002001PLASTICOS Y SERVICIOS BARRANQUILLA EU             D000000002500000000000000000000000100010010000000000000000000000F0010000007948200120151126000101 00000000000000000000000000000000000000000000000000000000000000000000000000000000000000000000000000000000000000000N 00000000000NCONT   00    00000000000          00000000000000000000000000000000000000000000 000000000000000A000000000000000000000000000000000000000000000 000000000000000000000000000000000000000     00000000                                                                                                                        000000000000000000
F0010000007948200002000090015305700041450500000000000000000201511260002001PLASTICOS Y SERVICIOS BARRANQUILLA EU             C000000001900000000000000000000000100010010000000000000000000000F0010000007948200220151126000101 00000000000000000000000000000000000000000000000000000000000000000000000000000000000000000000000000000000000000000N 00000000000NCONT   00    00000000000          00000000000000000000000000000000000000000000 000000000000000A000000000000000000000000000000000000000000000 000000000000000000000000000000000000000     00000000                                                                                                                        000000000000000000
F0010000007948200003000090015305700042505000000000000000000201511260002001PLASTICOS Y SERVICIOS BARRANQUILLA EU             C000000000600000000000000000000000100010010000000000000000000000F0010000007948200320151126000101 00000000000000000000000000000000000000000000000000000000000000000000000000000000000000000000000000000000000000000N 00000000000NCONT   00    00000000000          00000000000000000000000000000000000000000000 000000000000000A000000000000000000000000000000000000000000000 000000000000000000000000000000000000000     00000000                                                                                                                        000000000000000000
F0010000007948200004000090015305700023658300000000000000000201511260002001PLASTICOS Y SERVICIOS BARRANQUILLA EU             C000000000015200000000000000000000100010010000000000000000000000F0010000007948200420151126000101 00000000000000000000000000000000000000000000000000000000000000000000000000000000000000000000000000000000000000000N 00000000000NCONT   00    00000000000          00000000000000000000000000000000000000000000 000000000000000A000000000000000000000000000000000000000000000 000000000000000000000000000000000000000     00000000                                                                                                                        000000000000000000
F0010000007948200005000090015305700013552100000000000000000201511260002001PLASTICOS Y SERVICIOS BARRANQUILLA EU             D000000000015200000000000000000000100010010000000000000000000000F0010000007948200520151126000101 00000000000000000000000000000000000000000000000000000000000000000000000000000000000000000000000000000000000000000N 00000000000NCONT   00    00000000000          00000000000000000000000000000000000000000000 000000000000000A000000000000000000000000000000000000000000000 000000000000000000000000000000000000000     00000000                                                                                                                        000000000000000000
F0010000007948300001000080201411900011050500000000000000000201511260002001PLASTISERVICIOS S DE H                            D000000001400000000000000000000000100010010000000000000000000000F0010000007948300120151126000101 00000000000000000000000000000000000000000000000000000000000000000000000000000000000000000000000000000000000000000N 00000000000NCONT   00    00000000000          00000000000000000000000000000000000000000000 000000000000000A000000000000000000000000000000000000000000000 000000000000000000000000000000000000000     00000000                                                                                                                        000000000000000000
F0010000007948300002000080201411900041450500000000000000000201511260002001PLASTISERVICIOS S DE H                            C000000001100000000000000000000000100010010000000000000000000000F0010000007948300220151126000101 00000000000000000000000000000000000000000000000000000000000000000000000000000000000000000000000000000000000000000N 00000000000NCONT   00    00000000000          00000000000000000000000000000000000000000000 000000000000000A000000000000000000000000000000000000000000000 000000000000000000000000000000000000000     00000000                                                                                                                        000000000000000000
F0010000007948300003000080201411900042505000000000000000000201511260002001PLASTISERVICIOS S DE H                            C000000000300000000000000000000000100010010000000000000000000000F0010000007948300320151126000101 00000000000000000000000000000000000000000000000000000000000000000000000000000000000000000000000000000000000000000N 00000000000NCONT   00    00000000000          00000000000000000000000000000000000000000000 000000000000000A000000000000000000000000000000000000000000000 000000000000000000000000000000000000000     00000000                                                                                                                        000000000000000000
F0010000007948300004000080201411900023658300000000000000000201511260002001PLASTISERVICIOS S DE H                            C000000000008800000000000000000000100010010000000000000000000000F0010000007948300420151126000101 00000000000000000000000000000000000000000000000000000000000000000000000000000000000000000000000000000000000000000N 00000000000NCONT   00    00000000000          00000000000000000000000000000000000000000000 000000000000000A000000000000000000000000000000000000000000000 000000000000000000000000000000000000000     00000000                                                                                                                        000000000000000000
F0010000007948300005000080201411900013552100000000000000000201511260002001PLASTISERVICIOS S DE H                            D000000000008800000000000000000000100010010000000000000000000000F0010000007948300520151126000101 00000000000000000000000000000000000000000000000000000000000000000000000000000000000000000000000000000000000000000N 00000000000NCONT   00    00000000000          00000000000000000000000000000000000000000000 000000000000000A000000000000000000000000000000000000000000000 000000000000000000000000000000000000000     00000000                                                                                                                        000000000000000000
F0010000007948400001000002245670100011050500000000000000000201511260002001YOLANDA  TOBON                                    D000000015000000000000000000000000100010010000000000000000000000F0010000007948400120151126000101 00000000000000000000000000000000000000000000000000000000000000000000000000000000000000000000000000000000000000000N 00000000000NCONT   00    00000000000          00000000000000000000000000000000000000000000 000000000000000A000000000000000000000000000000000000000000000 000000000000000000000000000000000000000     00000000                                                                                                                        000000000000000000
F0010000007948400002000002245670100041450500000000000000000201511260002001YOLANDA  TOBON                                    C000000012100000000000000000000000100010010000000000000000000000F0010000007948400220151126000101 00000000000000000000000000000000000000000000000000000000000000000000000000000000000000000000000000000000000000000N 00000000000NCONT   00    00000000000          00000000000000000000000000000000000000000000 000000000000000A000000000000000000000000000000000000000000000 000000000000000000000000000000000000000     00000000                                                                                                                        000000000000000000
F0010000007948400003000002245670100042505000000000000000000201511260002001YOLANDA  TOBON                                    C000000002900000000000000000000000100010010000000000000000000000F0010000007948400320151126000101 00000000000000000000000000000000000000000000000000000000000000000000000000000000000000000000000000000000000000000N 00000000000NCONT   00    00000000000          00000000000000000000000000000000000000000000 000000000000000A000000000000000000000000000000000000000000000 000000000000000000000000000000000000000     00000000                                                                                                                        000000000000000000
F0010000007948400004000002245670100023658300000000000000000201511260002001YOLANDA  TOBON                                    C000000000096800000000000000000000100010010000000000000000000000F0010000007948400420151126000101 00000000000000000000000000000000000000000000000000000000000000000000000000000000000000000000000000000000000000000N 00000000000NCONT   00    00000000000          00000000000000000000000000000000000000000000 000000000000000A000000000000000000000000000000000000000000000 000000000000000000000000000000000000000     00000000                                                                                                                        000000000000000000
F0010000007948400005000002245670100013552100000000000000000201511260002001YOLANDA  TOBON                                    D000000000096800000000000000000000100010010000000000000000000000F0010000007948400520151126000101 00000000000000000000000000000000000000000000000000000000000000000000000000000000000000000000000000000000000000000N 00000000000NCONT   00    00000000000          00000000000000000000000000000000000000000000 000000000000000A000000000000000000000000000000000000000000000 000000000000000000000000000000000000000     00000000                                                                                                                        000000000000000000
F0010000007948500001000002245670100011050500000000000000000201511260002001YOLANDA  TOBON                                    D000000002600000000000000000000000100010010000000000000000000000F0010000007948500120151126000101 00000000000000000000000000000000000000000000000000000000000000000000000000000000000000000000000000000000000000000N 00000000000NCONT   00    00000000000          00000000000000000000000000000000000000000000 000000000000000A000000000000000000000000000000000000000000000 000000000000000000000000000000000000000     00000000                                                                                                                        000000000000000000
F0010000007948500002000002245670100041450500000000000000000201511260002001YOLANDA  TOBON                                    C000000002100000000000000000000000100010010000000000000000000000F0010000007948500220151126000101 00000000000000000000000000000000000000000000000000000000000000000000000000000000000000000000000000000000000000000N 00000000000NCONT   00    00000000000          00000000000000000000000000000000000000000000 000000000000000A000000000000000000000000000000000000000000000 000000000000000000000000000000000000000     00000000                                                                                                                        000000000000000000
F0010000007948500003000002245670100042505000000000000000000201511260002001YOLANDA  TOBON                                    C000000000500000000000000000000000100010010000000000000000000000F0010000007948500320151126000101 00000000000000000000000000000000000000000000000000000000000000000000000000000000000000000000000000000000000000000N 00000000000NCONT   00    00000000000          00000000000000000000000000000000000000000000 000000000000000A000000000000000000000000000000000000000000000 000000000000000000000000000000000000000     00000000                                                                                                                        000000000000000000
F0010000007948500004000002245670100023658300000000000000000201511260002001YOLANDA  TOBON                                    C000000000016800000000000000000000100010010000000000000000000000F0010000007948500420151126000101 00000000000000000000000000000000000000000000000000000000000000000000000000000000000000000000000000000000000000000N 00000000000NCONT   00    00000000000          00000000000000000000000000000000000000000000 000000000000000A000000000000000000000000000000000000000000000 000000000000000000000000000000000000000     00000000                                                                                                                        000000000000000000
F0010000007948500005000002245670100013552100000000000000000201511260002001YOLANDA  TOBON                                    D000000000016800000000000000000000100010010000000000000000000000F0010000007948500520151126000101 00000000000000000000000000000000000000000000000000000000000000000000000000000000000000000000000000000000000000000N 00000000000NCONT   00    00000000000          00000000000000000000000000000000000000000000 000000000000000A000000000000000000000000000000000000000000000 000000000000000000000000000000000000000     00000000                                                                                                                        000000000000000000
F0010000007948600001000090050144800011050500000000000000000201511260002001PLASTICOS JR ASOCIADOS SAS                        D000000004750000000000000000000000100010010000000000000000000000F0010000007948600120151126000101 00000000000000000000000000000000000000000000000000000000000000000000000000000000000000000000000000000000000000000N 00000000000NCONT   00    00000000000          00000000000000000000000000000000000000000000 000000000000000A000000000000000000000000000000000000000000000 000000000000000000000000000000000000000     00000000                                                                                                                        000000000000000000
F0010000007948600002000090050144800041450500000000000000000201511260002001PLASTICOS JR ASOCIADOS SAS                        C000000004300000000000000000000000100010010000000000000000000000F0010000007948600220151126000101 00000000000000000000000000000000000000000000000000000000000000000000000000000000000000000000000000000000000000000N 00000000000NCONT   00    00000000000          00000000000000000000000000000000000000000000 000000000000000A000000000000000000000000000000000000000000000 000000000000000000000000000000000000000     00000000                                                                                                                        000000000000000000
F0010000007948600003000090050144800042505000000000000000000201511260002001PLASTICOS JR ASOCIADOS SAS                        C000000000450000000000000000000000100010010000000000000000000000F0010000007948600320151126000101 00000000000000000000000000000000000000000000000000000000000000000000000000000000000000000000000000000000000000000N 00000000000NCONT   00    00000000000          00000000000000000000000000000000000000000000 000000000000000A000000000000000000000000000000000000000000000 000000000000000000000000000000000000000     00000000                                                                                                                        000000000000000000
F0010000007948600004000090050144800023658300000000000000000201511260002001PLASTICOS JR ASOCIADOS SAS                        C000000000034400000000000000000000100010010000000000000000000000F0010000007948600420151126000101 00000000000000000000000000000000000000000000000000000000000000000000000000000000000000000000000000000000000000000N 00000000000NCONT   00    00000000000          00000000000000000000000000000000000000000000 000000000000000A000000000000000000000000000000000000000000000 000000000000000000000000000000000000000     00000000                                                                                                                        000000000000000000
F0010000007948600005000090050144800013552100000000000000000201511260002001PLASTICOS JR ASOCIADOS SAS                        D000000000034400000000000000000000100010010000000000000000000000F0010000007948600520151126000101 00000000000000000000000000000000000000000000000000000000000000000000000000000000000000000000000000000000000000000N 00000000000NCONT   00    00000000000          00000000000000000000000000000000000000000000 000000000000000A000000000000000000000000000000000000000000000 000000000000000000000000000000000000000     00000000                                                                                                                        000000000000000000
F0010000007948700001000089011069100011050500000000000000000201511260002001LA CASA DE LAS ALFOMBRAS LTDA                     D000000001800000000000000000000000100010010000000000000000000000F0010000007948700120151126000101 00000000000000000000000000000000000000000000000000000000000000000000000000000000000000000000000000000000000000000N 00000000000NCONT   00    00000000000          00000000000000000000000000000000000000000000 000000000000000A000000000000000000000000000000000000000000000 000000000000000000000000000000000000000     00000000                                                                                                                        000000000000000000
F0010000007948700002000089011069100041450500000000000000000201511260002001LA CASA DE LAS ALFOMBRAS LTDA                     C000000001500000000000000000000000100010010000000000000000000000F0010000007948700220151126000101 00000000000000000000000000000000000000000000000000000000000000000000000000000000000000000000000000000000000000000N 00000000000NCONT   00    00000000000          00000000000000000000000000000000000000000000 000000000000000A000000000000000000000000000000000000000000000 000000000000000000000000000000000000000     00000000                                                                                                                        000000000000000000
F0010000007948700003000089011069100042505000000000000000000201511260002001LA CASA DE LAS ALFOMBRAS LTDA                     C000000000300000000000000000000000100010010000000000000000000000F0010000007948700320151126000101 00000000000000000000000000000000000000000000000000000000000000000000000000000000000000000000000000000000000000000N 00000000000NCONT   00    00000000000          00000000000000000000000000000000000000000000 000000000000000A000000000000000000000000000000000000000000000 000000000000000000000000000000000000000     00000000                                                                                                                        000000000000000000
F0010000007948700004000089011069100023658300000000000000000201511260002001LA CASA DE LAS ALFOMBRAS LTDA                     C000000000012000000000000000000000100010010000000000000000000000F0010000007948700420151126000101 00000000000000000000000000000000000000000000000000000000000000000000000000000000000000000000000000000000000000000N 00000000000NCONT   00    00000000000          00000000000000000000000000000000000000000000 000000000000000A000000000000000000000000000000000000000000000 000000000000000000000000000000000000000     00000000                                                                                                                        000000000000000000
F0010000007948700005000089011069100013552100000000000000000201511260002001LA CASA DE LAS ALFOMBRAS LTDA                     D000000000012000000000000000000000100010010000000000000000000000F0010000007948700520151126000101 00000000000000000000000000000000000000000000000000000000000000000000000000000000000000000000000000000000000000000N 00000000000NCONT   00    00000000000          00000000000000000000000000000000000000000000 000000000000000A000000000000000000000000000000000000000000000 000000000000000000000000000000000000000     00000000                                                                                                                        000000000000000000
F0010000007948800001000000742399700011050500000000000000000201511260002001CACHARRERIA EL NUEVO CHADID                       D000000005500000000000000000000000100010010000000000000000000000F0010000007948800120151126000101 00000000000000000000000000000000000000000000000000000000000000000000000000000000000000000000000000000000000000000N 00000000000NCONT   00    00000000000          00000000000000000000000000000000000000000000 000000000000000A000000000000000000000000000000000000000000000 000000000000000000000000000000000000000     00000000                                                                                                                        000000000000000000
F0010000007948800002000000742399700041450500000000000000000201511260002001CACHARRERIA EL NUEVO CHADID                       C000000004000000000000000000000000100010010000000000000000000000F0010000007948800220151126000101 00000000000000000000000000000000000000000000000000000000000000000000000000000000000000000000000000000000000000000N 00000000000NCONT   00    00000000000          00000000000000000000000000000000000000000000 000000000000000A000000000000000000000000000000000000000000000 000000000000000000000000000000000000000     00000000                                                                                                                        000000000000000000
F0010000007948800003000000742399700042505000000000000000000201511260002001CACHARRERIA EL NUEVO CHADID                       C000000001500000000000000000000000100010010000000000000000000000F0010000007948800320151126000101 00000000000000000000000000000000000000000000000000000000000000000000000000000000000000000000000000000000000000000N 00000000000NCONT   00    00000000000          00000000000000000000000000000000000000000000 000000000000000A000000000000000000000000000000000000000000000 000000000000000000000000000000000000000     00000000                                                                                                                        000000000000000000
F0010000007948800004000000742399700023658300000000000000000201511260002001CACHARRERIA EL NUEVO CHADID                       C000000000032000000000000000000000100010010000000000000000000000F0010000007948800420151126000101 00000000000000000000000000000000000000000000000000000000000000000000000000000000000000000000000000000000000000000N 00000000000NCONT   00    00000000000          00000000000000000000000000000000000000000000 000000000000000A000000000000000000000000000000000000000000000 000000000000000000000000000000000000000     00000000                                                                                                                        000000000000000000
F0010000007948800005000000742399700013552100000000000000000201511260002001CACHARRERIA EL NUEVO CHADID                       D000000000032000000000000000000000100010010000000000000000000000F0010000007948800520151126000101 00000000000000000000000000000000000000000000000000000000000000000000000000000000000000000000000000000000000000000N 00000000000NCONT   00    00000000000          00000000000000000000000000000000000000000000 000000000000000A000000000000000000000000000000000000000000000 000000000000000000000000000000000000000     00000000                                                                                                                        000000000000000000
F0010000007948900001000007225511500011050500000000000000000201511260002001MAIGEL CHADID                                     D000000006500000000000000000000000100010010000000000000000000000F0010000007948900120151126000101 00000000000000000000000000000000000000000000000000000000000000000000000000000000000000000000000000000000000000000N 00000000000NCONT   00    00000000000          00000000000000000000000000000000000000000000 000000000000000A000000000000000000000000000000000000000000000 000000000000000000000000000000000000000     00000000                                                                                                                        000000000000000000
F0010000007948900002000007225511500041450500000000000000000201511260002001MAIGEL CHADID                                     C000000005000000000000000000000000100010010000000000000000000000F0010000007948900220151126000101 00000000000000000000000000000000000000000000000000000000000000000000000000000000000000000000000000000000000000000N 00000000000NCONT   00    00000000000          00000000000000000000000000000000000000000000 000000000000000A000000000000000000000000000000000000000000000 000000000000000000000000000000000000000     00000000                                                                                                                        000000000000000000
F0010000007948900003000007225511500042505000000000000000000201511260002001MAIGEL CHADID                                     C000000001500000000000000000000000100010010000000000000000000000F0010000007948900320151126000101 00000000000000000000000000000000000000000000000000000000000000000000000000000000000000000000000000000000000000000N 00000000000NCONT   00    00000000000          00000000000000000000000000000000000000000000 000000000000000A000000000000000000000000000000000000000000000 000000000000000000000000000000000000000     00000000                                                                                                                        000000000000000000
F0010000007948900004000007225511500023658300000000000000000201511260002001MAIGEL CHADID                                     C000000000040000000000000000000000100010010000000000000000000000F0010000007948900420151126000101 00000000000000000000000000000000000000000000000000000000000000000000000000000000000000000000000000000000000000000N 00000000000NCONT   00    00000000000          00000000000000000000000000000000000000000000 000000000000000A000000000000000000000000000000000000000000000 000000000000000000000000000000000000000     00000000                                                                                                                        000000000000000000
F0010000007948900005000007225511500013552100000000000000000201511260002001MAIGEL CHADID                                     D000000000040000000000000000000000100010010000000000000000000000F0010000007948900520151126000101 00000000000000000000000000000000000000000000000000000000000000000000000000000000000000000000000000000000000000000N 00000000000NCONT   00    00000000000          00000000000000000000000000000000000000000000 000000000000000A000000000000000000000000000000000000000000000 000000000000000000000000000000000000000     00000000                                                                                                                        000000000000000000
F0010000007949000001000003262315300011050500000000000000000201511260002001CACHARRERIA LA PROPIA JICHA                       D000000005500000000000000000000000100010010000000000000000000000F0010000007949000120151126000101 00000000000000000000000000000000000000000000000000000000000000000000000000000000000000000000000000000000000000000N 00000000000NCONT   00    00000000000          00000000000000000000000000000000000000000000 000000000000000A000000000000000000000000000000000000000000000 000000000000000000000000000000000000000     00000000                                                                                                                        000000000000000000
F0010000007949000002000003262315300041450500000000000000000201511260002001CACHARRERIA LA PROPIA JICHA                       C000000004500000000000000000000000100010010000000000000000000000F0010000007949000220151126000101 00000000000000000000000000000000000000000000000000000000000000000000000000000000000000000000000000000000000000000N 00000000000NCONT   00    00000000000          00000000000000000000000000000000000000000000 000000000000000A000000000000000000000000000000000000000000000 000000000000000000000000000000000000000     00000000                                                                                                                        000000000000000000
F0010000007949000003000003262315300042505000000000000000000201511260002001CACHARRERIA LA PROPIA JICHA                       C000000001000000000000000000000000100010010000000000000000000000F0010000007949000320151126000101 00000000000000000000000000000000000000000000000000000000000000000000000000000000000000000000000000000000000000000N 00000000000NCONT   00    00000000000          00000000000000000000000000000000000000000000 000000000000000A000000000000000000000000000000000000000000000 000000000000000000000000000000000000000     00000000                                                                                                                        000000000000000000
F0010000007949000004000003262315300023658300000000000000000201511260002001CACHARRERIA LA PROPIA JICHA                       C000000000036000000000000000000000100010010000000000000000000000F0010000007949000420151126000101 00000000000000000000000000000000000000000000000000000000000000000000000000000000000000000000000000000000000000000N 00000000000NCONT   00    00000000000          00000000000000000000000000000000000000000000 000000000000000A000000000000000000000000000000000000000000000 000000000000000000000000000000000000000     00000000                                                                                                                        000000000000000000
F0010000007949000005000003262315300013552100000000000000000201511260002001CACHARRERIA LA PROPIA JICHA                       D000000000036000000000000000000000100010010000000000000000000000F0010000007949000520151126000101 00000000000000000000000000000000000000000000000000000000000000000000000000000000000000000000000000000000000000000N 00000000000NCONT   00    00000000000          00000000000000000000000000000000000000000000 000000000000000A000000000000000000000000000000000000000000000 000000000000000000000000000000000000000     00000000                                                                                                                        000000000000000000
F0010000007949100001000007957099900011050500000000000000000201511260002001RUBEN GOMEZ                                       D000000001700000000000000000000000100010010000000000000000000000F0010000007949100120151126000101 00000000000000000000000000000000000000000000000000000000000000000000000000000000000000000000000000000000000000000N 00000000000NCONT   00    00000000000          00000000000000000000000000000000000000000000 000000000000000A000000000000000000000000000000000000000000000 000000000000000000000000000000000000000     00000000                                                                                                                        000000000000000000
F0010000007949100002000007957099900041450500000000000000000201511260002001RUBEN GOMEZ                                       C000000001200000000000000000000000100010010000000000000000000000F0010000007949100220151126000101 00000000000000000000000000000000000000000000000000000000000000000000000000000000000000000000000000000000000000000N 00000000000NCONT   00    00000000000          00000000000000000000000000000000000000000000 000000000000000A000000000000000000000000000000000000000000000 000000000000000000000000000000000000000     00000000                                                                                                                        000000000000000000
F0010000007949100003000007957099900042505000000000000000000201511260002001RUBEN GOMEZ                                       C000000000500000000000000000000000100010010000000000000000000000F0010000007949100320151126000101 00000000000000000000000000000000000000000000000000000000000000000000000000000000000000000000000000000000000000000N 00000000000NCONT   00    00000000000          00000000000000000000000000000000000000000000 000000000000000A000000000000000000000000000000000000000000000 000000000000000000000000000000000000000     00000000                                                                                                                        000000000000000000
F0010000007949100004000007957099900023658300000000000000000201511260002001RUBEN GOMEZ                                       C000000000009600000000000000000000100010010000000000000000000000F0010000007949100420151126000101 00000000000000000000000000000000000000000000000000000000000000000000000000000000000000000000000000000000000000000N 00000000000NCONT   00    00000000000          00000000000000000000000000000000000000000000 000000000000000A000000000000000000000000000000000000000000000 000000000000000000000000000000000000000     00000000                                                                                                                        000000000000000000
F0010000007949100005000007957099900013552100000000000000000201511260002001RUBEN GOMEZ                                       D000000000009600000000000000000000100010010000000000000000000000F0010000007949100520151126000101 00000000000000000000000000000000000000000000000000000000000000000000000000000000000000000000000000000000000000000N 00000000000NCONT   00    00000000000          00000000000000000000000000000000000000000000 000000000000000A000000000000000000000000000000000000000000000 000000000000000000000000000000000000000     00000000                                                                                                                        000000000000000000
F0010000007949200001000007957099900011050500000000000000000201511260002001RUBEN GOMEZ                                       D000000001700000000000000000000000100010010000000000000000000000F0010000007949200120151126000101 00000000000000000000000000000000000000000000000000000000000000000000000000000000000000000000000000000000000000000N 00000000000NCONT   00    00000000000          00000000000000000000000000000000000000000000 000000000000000A000000000000000000000000000000000000000000000 000000000000000000000000000000000000000     00000000                                                                                                                        000000000000000000
F0010000007949200002000007957099900041450500000000000000000201511260002001RUBEN GOMEZ                                       C000000001200000000000000000000000100010010000000000000000000000F0010000007949200220151126000101 00000000000000000000000000000000000000000000000000000000000000000000000000000000000000000000000000000000000000000N 00000000000NCONT   00    00000000000          00000000000000000000000000000000000000000000 000000000000000A000000000000000000000000000000000000000000000 000000000000000000000000000000000000000     00000000                                                                                                                        000000000000000000
F0010000007949200003000007957099900042505000000000000000000201511260002001RUBEN GOMEZ                                       C000000000500000000000000000000000100010010000000000000000000000F0010000007949200320151126000101 00000000000000000000000000000000000000000000000000000000000000000000000000000000000000000000000000000000000000000N 00000000000NCONT   00    00000000000          00000000000000000000000000000000000000000000 000000000000000A000000000000000000000000000000000000000000000 000000000000000000000000000000000000000     00000000                                                                                                                        000000000000000000
F0010000007949200004000007957099900023658300000000000000000201511260002001RUBEN GOMEZ                                       C000000000009600000000000000000000100010010000000000000000000000F0010000007949200420151126000101 00000000000000000000000000000000000000000000000000000000000000000000000000000000000000000000000000000000000000000N 00000000000NCONT   00    00000000000          00000000000000000000000000000000000000000000 000000000000000A000000000000000000000000000000000000000000000 000000000000000000000000000000000000000     00000000                                                                                                                        000000000000000000
F0010000007949200005000007957099900013552100000000000000000201511260002001RUBEN GOMEZ                                       D000000000009600000000000000000000100010010000000000000000000000F0010000007949200520151126000101 00000000000000000000000000000000000000000000000000000000000000000000000000000000000000000000000000000000000000000N 00000000000NCONT   00    00000000000          00000000000000000000000000000000000000000000 000000000000000A000000000000000000000000000000000000000000000 000000000000000000000000000000000000000     00000000                                                                                                                        000000000000000000
F0010000007949300001000080202350700011050500000000000000000201511260002001CONNY DE LA COSTA SAS                             D000000001200000000000000000000000100010010000000000000000000000F0010000007949300120151126000101 00000000000000000000000000000000000000000000000000000000000000000000000000000000000000000000000000000000000000000N 00000000000NCONT   00    00000000000          00000000000000000000000000000000000000000000 000000000000000A000000000000000000000000000000000000000000000 000000000000000000000000000000000000000     00000000                                                                                                                        000000000000000000
F0010000007949300002000080202350700041450500000000000000000201511260002001CONNY DE LA COSTA SAS                             C000000001100000000000000000000000100010010000000000000000000000F0010000007949300220151126000101 00000000000000000000000000000000000000000000000000000000000000000000000000000000000000000000000000000000000000000N 00000000000NCONT   00    00000000000          00000000000000000000000000000000000000000000 000000000000000A000000000000000000000000000000000000000000000 000000000000000000000000000000000000000     00000000                                                                                                                        000000000000000000
F0010000007949300003000080202350700042505000000000000000000201511260002001CONNY DE LA COSTA SAS                             C000000000100000000000000000000000100010010000000000000000000000F0010000007949300320151126000101 00000000000000000000000000000000000000000000000000000000000000000000000000000000000000000000000000000000000000000N 00000000000NCONT   00    00000000000          00000000000000000000000000000000000000000000 000000000000000A000000000000000000000000000000000000000000000 000000000000000000000000000000000000000     00000000                                                                                                                        000000000000000000
F0010000007949300004000080202350700023658300000000000000000201511260002001CONNY DE LA COSTA SAS                             C000000000008800000000000000000000100010010000000000000000000000F0010000007949300420151126000101 00000000000000000000000000000000000000000000000000000000000000000000000000000000000000000000000000000000000000000N 00000000000NCONT   00    00000000000          00000000000000000000000000000000000000000000 000000000000000A000000000000000000000000000000000000000000000 000000000000000000000000000000000000000     00000000                                                                                                                        000000000000000000
F0010000007949300005000080202350700013552100000000000000000201511260002001CONNY DE LA COSTA SAS                             D000000000008800000000000000000000100010010000000000000000000000F0010000007949300520151126000101 00000000000000000000000000000000000000000000000000000000000000000000000000000000000000000000000000000000000000000N 00000000000NCONT   00    00000000000          00000000000000000000000000000000000000000000 000000000000000A000000000000000000000000000000000000000000000 000000000000000000000000000000000000000     00000000                                                                                                                        000000000000000000
F0010000007949400001000080202350700011050500000000000000000201511260002001CONNY DE LA COSTA SAS                             D000000002000000000000000000000000100010010000000000000000000000F0010000007949400120151126000101 00000000000000000000000000000000000000000000000000000000000000000000000000000000000000000000000000000000000000000N 00000000000NCONT   00    00000000000          00000000000000000000000000000000000000000000 000000000000000A000000000000000000000000000000000000000000000 000000000000000000000000000000000000000     00000000                                                                                                                        000000000000000000
F0010000007949400002000080202350700041450500000000000000000201511260002001CONNY DE LA COSTA SAS                             C000000001600000000000000000000000100010010000000000000000000000F0010000007949400220151126000101 00000000000000000000000000000000000000000000000000000000000000000000000000000000000000000000000000000000000000000N 00000000000NCONT   00    00000000000          00000000000000000000000000000000000000000000 000000000000000A000000000000000000000000000000000000000000000 000000000000000000000000000000000000000     00000000                                                                                                                        000000000000000000
F0010000007949400003000080202350700042505000000000000000000201511260002001CONNY DE LA COSTA SAS                             C000000000400000000000000000000000100010010000000000000000000000F0010000007949400320151126000101 00000000000000000000000000000000000000000000000000000000000000000000000000000000000000000000000000000000000000000N 00000000000NCONT   00    00000000000          00000000000000000000000000000000000000000000 000000000000000A000000000000000000000000000000000000000000000 000000000000000000000000000000000000000     00000000                                                                                                                        000000000000000000
F0010000007949400004000080202350700023658300000000000000000201511260002001CONNY DE LA COSTA SAS                             C000000000012800000000000000000000100010010000000000000000000000F0010000007949400420151126000101 00000000000000000000000000000000000000000000000000000000000000000000000000000000000000000000000000000000000000000N 00000000000NCONT   00    00000000000          00000000000000000000000000000000000000000000 000000000000000A000000000000000000000000000000000000000000000 000000000000000000000000000000000000000     00000000                                                                                                                        000000000000000000
F0010000007949400005000080202350700013552100000000000000000201511260002001CONNY DE LA COSTA SAS                             D000000000012800000000000000000000100010010000000000000000000000F0010000007949400520151126000101 00000000000000000000000000000000000000000000000000000000000000000000000000000000000000000000000000000000000000000N 00000000000NCONT   00    00000000000          00000000000000000000000000000000000000000000 000000000000000A000000000000000000000000000000000000000000000 000000000000000000000000000000000000000     00000000                                                                                                                        000000000000000000
F0010000007949500001000080202350700011050500000000000000000201511260002001CONNY DE LA COSTA SAS                             D000000005400000000000000000000000100010010000000000000000000000F0010000007949500120151126000101 00000000000000000000000000000000000000000000000000000000000000000000000000000000000000000000000000000000000000000N 00000000000NCONT   00    00000000000          00000000000000000000000000000000000000000000 000000000000000A000000000000000000000000000000000000000000000 000000000000000000000000000000000000000     00000000                                                                                                                        000000000000000000
F0010000007949500002000080202350700041450500000000000000000201511260002001CONNY DE LA COSTA SAS                             C000000004400000000000000000000000100010010000000000000000000000F0010000007949500220151126000101 00000000000000000000000000000000000000000000000000000000000000000000000000000000000000000000000000000000000000000N 00000000000NCONT   00    00000000000          00000000000000000000000000000000000000000000 000000000000000A000000000000000000000000000000000000000000000 000000000000000000000000000000000000000     00000000                                                                                                                        000000000000000000
F0010000007949500003000080202350700042505000000000000000000201511260002001CONNY DE LA COSTA SAS                             C000000001000000000000000000000000100010010000000000000000000000F0010000007949500320151126000101 00000000000000000000000000000000000000000000000000000000000000000000000000000000000000000000000000000000000000000N 00000000000NCONT   00    00000000000          00000000000000000000000000000000000000000000 000000000000000A000000000000000000000000000000000000000000000 000000000000000000000000000000000000000     00000000                                                                                                                        000000000000000000
F0010000007949500004000080202350700023658300000000000000000201511260002001CONNY DE LA COSTA SAS                             C000000000035200000000000000000000100010010000000000000000000000F0010000007949500420151126000101 00000000000000000000000000000000000000000000000000000000000000000000000000000000000000000000000000000000000000000N 00000000000NCONT   00    00000000000          00000000000000000000000000000000000000000000 000000000000000A000000000000000000000000000000000000000000000 000000000000000000000000000000000000000     00000000                                                                                                                        000000000000000000
F0010000007949500005000080202350700013552100000000000000000201511260002001CONNY DE LA COSTA SAS                             D000000000035200000000000000000000100010010000000000000000000000F0010000007949500520151126000101 00000000000000000000000000000000000000000000000000000000000000000000000000000000000000000000000000000000000000000N 00000000000NCONT   00    00000000000          00000000000000000000000000000000000000000000 000000000000000A000000000000000000000000000000000000000000000 000000000000000000000000000000000000000     00000000                                                                                                                        000000000000000000
F0010000007949600001000080202350700011050500000000000000000201511260002001CONNY DE LA COSTA SAS                             D000000001900000000000000000000000100010010000000000000000000000F0010000007949600120151126000101 00000000000000000000000000000000000000000000000000000000000000000000000000000000000000000000000000000000000000000N 00000000000NCONT   00    00000000000          00000000000000000000000000000000000000000000 000000000000000A000000000000000000000000000000000000000000000 000000000000000000000000000000000000000     00000000                                                                                                                        000000000000000000
F0010000007949600002000080202350700041450500000000000000000201511260002001CONNY DE LA COSTA SAS                             C000000001600000000000000000000000100010010000000000000000000000F0010000007949600220151126000101 00000000000000000000000000000000000000000000000000000000000000000000000000000000000000000000000000000000000000000N 00000000000NCONT   00    00000000000          00000000000000000000000000000000000000000000 000000000000000A000000000000000000000000000000000000000000000 000000000000000000000000000000000000000     00000000                                                                                                                        000000000000000000
F0010000007949600003000080202350700042505000000000000000000201511260002001CONNY DE LA COSTA SAS                             C000000000300000000000000000000000100010010000000000000000000000F0010000007949600320151126000101 00000000000000000000000000000000000000000000000000000000000000000000000000000000000000000000000000000000000000000N 00000000000NCONT   00    00000000000          00000000000000000000000000000000000000000000 000000000000000A000000000000000000000000000000000000000000000 000000000000000000000000000000000000000     00000000                                                                                                                        000000000000000000
F0010000007949600004000080202350700023658300000000000000000201511260002001CONNY DE LA COSTA SAS                             C000000000012800000000000000000000100010010000000000000000000000F0010000007949600420151126000101 00000000000000000000000000000000000000000000000000000000000000000000000000000000000000000000000000000000000000000N 00000000000NCONT   00    00000000000          00000000000000000000000000000000000000000000 000000000000000A000000000000000000000000000000000000000000000 000000000000000000000000000000000000000     00000000                                                                                                                        000000000000000000
F0010000007949600005000080202350700013552100000000000000000201511260002001CONNY DE LA COSTA SAS                             D000000000012800000000000000000000100010010000000000000000000000F0010000007949600520151126000101 00000000000000000000000000000000000000000000000000000000000000000000000000000000000000000000000000000000000000000N 00000000000NCONT   00    00000000000          00000000000000000000000000000000000000000000 000000000000000A000000000000000000000000000000000000000000000 000000000000000000000000000000000000000     00000000                                                                                                                        000000000000000000
F0010000007949700001000001622276700011050500000000000000000201511260002001CARLOS EDUARDO SOLEIBE CAMACHO                    D000000002500000000000000000000000100010010000000000000000000000F0010000007949700120151126000101 00000000000000000000000000000000000000000000000000000000000000000000000000000000000000000000000000000000000000000N 00000000000NCONT   00    00000000000          00000000000000000000000000000000000000000000 000000000000000A000000000000000000000000000000000000000000000 000000000000000000000000000000000000000     00000000                                                                                                                        000000000000000000
F0010000007949700002000001622276700041450500000000000000000201511260002001CARLOS EDUARDO SOLEIBE CAMACHO                    C000000002400000000000000000000000100010010000000000000000000000F0010000007949700220151126000101 00000000000000000000000000000000000000000000000000000000000000000000000000000000000000000000000000000000000000000N 00000000000NCONT   00    00000000000          00000000000000000000000000000000000000000000 000000000000000A000000000000000000000000000000000000000000000 000000000000000000000000000000000000000     00000000                                                                                                                        000000000000000000
F0010000007949700003000001622276700042505000000000000000000201511260002001CARLOS EDUARDO SOLEIBE CAMACHO                    C000000000100000000000000000000000100010010000000000000000000000F0010000007949700320151126000101 00000000000000000000000000000000000000000000000000000000000000000000000000000000000000000000000000000000000000000N 00000000000NCONT   00    00000000000          00000000000000000000000000000000000000000000 000000000000000A000000000000000000000000000000000000000000000 000000000000000000000000000000000000000     00000000                                                                                                                        000000000000000000
F0010000007949700004000001622276700023658300000000000000000201511260002001CARLOS EDUARDO SOLEIBE CAMACHO                    C000000000019200000000000000000000100010010000000000000000000000F0010000007949700420151126000101 00000000000000000000000000000000000000000000000000000000000000000000000000000000000000000000000000000000000000000N 00000000000NCONT   00    00000000000          00000000000000000000000000000000000000000000 000000000000000A000000000000000000000000000000000000000000000 000000000000000000000000000000000000000     00000000                                                                                                                        000000000000000000
F0010000007949700005000001622276700013552100000000000000000201511260002001CARLOS EDUARDO SOLEIBE CAMACHO                    D000000000019200000000000000000000100010010000000000000000000000F0010000007949700520151126000101 00000000000000000000000000000000000000000000000000000000000000000000000000000000000000000000000000000000000000000N 00000000000NCONT   00    00000000000          00000000000000000000000000000000000000000000 000000000000000A000000000000000000000000000000000000000000000 000000000000000000000000000000000000000     00000000                                                                                                                        000000000000000000
F0010000007949800001000001719393900011050500000000000000000201511260002001JAIRO BASTIDAS RAMIREZ                            D000000001500000000000000000000000100010010000000000000000000000F0010000007949800120151126000101 00000000000000000000000000000000000000000000000000000000000000000000000000000000000000000000000000000000000000000N 00000000000NCONT   00    00000000000          00000000000000000000000000000000000000000000 000000000000000A000000000000000000000000000000000000000000000 000000000000000000000000000000000000000     00000000                                                                                                                        000000000000000000
F0010000007949800002000001719393900041450500000000000000000201511260002001JAIRO BASTIDAS RAMIREZ                            C000000001300000000000000000000000100010010000000000000000000000F0010000007949800220151126000101 00000000000000000000000000000000000000000000000000000000000000000000000000000000000000000000000000000000000000000N 00000000000NCONT   00    00000000000          00000000000000000000000000000000000000000000 000000000000000A000000000000000000000000000000000000000000000 000000000000000000000000000000000000000     00000000                                                                                                                        000000000000000000
F0010000007949800003000001719393900042505000000000000000000201511260002001JAIRO BASTIDAS RAMIREZ                            C000000000200000000000000000000000100010010000000000000000000000F0010000007949800320151126000101 00000000000000000000000000000000000000000000000000000000000000000000000000000000000000000000000000000000000000000N 00000000000NCONT   00    00000000000          00000000000000000000000000000000000000000000 000000000000000A000000000000000000000000000000000000000000000 000000000000000000000000000000000000000     00000000                                                                                                                        000000000000000000
F0010000007949800004000001719393900023658300000000000000000201511260002001JAIRO BASTIDAS RAMIREZ                            C000000000010400000000000000000000100010010000000000000000000000F0010000007949800420151126000101 00000000000000000000000000000000000000000000000000000000000000000000000000000000000000000000000000000000000000000N 00000000000NCONT   00    00000000000          00000000000000000000000000000000000000000000 000000000000000A000000000000000000000000000000000000000000000 000000000000000000000000000000000000000     00000000                                                                                                                        000000000000000000
F0010000007949800005000001719393900013552100000000000000000201511260002001JAIRO BASTIDAS RAMIREZ                            D000000000010400000000000000000000100010010000000000000000000000F0010000007949800520151126000101 00000000000000000000000000000000000000000000000000000000000000000000000000000000000000000000000000000000000000000N 00000000000NCONT   00    00000000000          00000000000000000000000000000000000000000000 000000000000000A000000000000000000000000000000000000000000000 000000000000000000000000000000000000000     00000000                                                                                                                        000000000000000000
F0010000007949900001000004175790100011050500000000000000000201511260002001ROSIRIS FERIA HOYOS  (COSM. SHILLER)              D000000001100000000000000000000000100010010000000000000000000000F0010000007949900120151126000101 00000000000000000000000000000000000000000000000000000000000000000000000000000000000000000000000000000000000000000N 00000000000NCONT   00    00000000000          00000000000000000000000000000000000000000000 000000000000000A000000000000000000000000000000000000000000000 000000000000000000000000000000000000000     00000000                                                                                                                        000000000000000000
F0010000007949900002000004175790100041450500000000000000000201511260002001ROSIRIS FERIA HOYOS  (COSM. SHILLER)              C000000001000000000000000000000000100010010000000000000000000000F0010000007949900220151126000101 00000000000000000000000000000000000000000000000000000000000000000000000000000000000000000000000000000000000000000N 00000000000NCONT   00    00000000000          00000000000000000000000000000000000000000000 000000000000000A000000000000000000000000000000000000000000000 000000000000000000000000000000000000000     00000000                                                                                                                        000000000000000000
F0010000007949900003000004175790100042505000000000000000000201511260002001ROSIRIS FERIA HOYOS  (COSM. SHILLER)              C000000000100000000000000000000000100010010000000000000000000000F0010000007949900320151126000101 00000000000000000000000000000000000000000000000000000000000000000000000000000000000000000000000000000000000000000N 00000000000NCONT   00    00000000000          00000000000000000000000000000000000000000000 000000000000000A000000000000000000000000000000000000000000000 000000000000000000000000000000000000000     00000000                                                                                                                        000000000000000000
F0010000007949900004000004175790100023658300000000000000000201511260002001ROSIRIS FERIA HOYOS  (COSM. SHILLER)              C000000000008000000000000000000000100010010000000000000000000000F0010000007949900420151126000101 00000000000000000000000000000000000000000000000000000000000000000000000000000000000000000000000000000000000000000N 00000000000NCONT   00    00000000000          00000000000000000000000000000000000000000000 000000000000000A000000000000000000000000000000000000000000000 000000000000000000000000000000000000000     00000000                                                                                                                        000000000000000000
F0010000007949900005000004175790100013552100000000000000000201511260002001ROSIRIS FERIA HOYOS  (COSM. SHILLER)              D000000000008000000000000000000000100010010000000000000000000000F0010000007949900520151126000101 00000000000000000000000000000000000000000000000000000000000000000000000000000000000000000000000000000000000000000N 00000000000NCONT   00    00000000000          00000000000000000000000000000000000000000000 000000000000000A000000000000000000000000000000000000000000000 000000000000000000000000000000000000000     00000000                                                                                                                        000000000000000000
F0010000007950000001000004175790100011050500000000000000000201511260002001ROSIRIS FERIA HOYOS  (COSM. SHILLER)              D000000001200000000000000000000000100010010000000000000000000000F0010000007950000120151126000101 00000000000000000000000000000000000000000000000000000000000000000000000000000000000000000000000000000000000000000N 00000000000NCONT   00    00000000000          00000000000000000000000000000000000000000000 000000000000000A000000000000000000000000000000000000000000000 000000000000000000000000000000000000000     00000000                                                                                                                        000000000000000000
F0010000007950000002000004175790100041450500000000000000000201511260002001ROSIRIS FERIA HOYOS  (COSM. SHILLER)              C000000001100000000000000000000000100010010000000000000000000000F0010000007950000220151126000101 00000000000000000000000000000000000000000000000000000000000000000000000000000000000000000000000000000000000000000N 00000000000NCONT   00    00000000000          00000000000000000000000000000000000000000000 000000000000000A000000000000000000000000000000000000000000000 000000000000000000000000000000000000000     00000000                                                                                                                        000000000000000000
