F0010000010096500001000007231254500011050500000000000000000201704220002001FERNEY ENRIQUE ZULUAGA GOMEZ                      D000000005500000000000000000000000100010010000000000000000000000F0010000010096500120170422000101 00000000000000000000000000000000000000000000000000000000000000000000000000000000000000000000000000000000000000000N 00000000000NCONT   00    00000000000          00000000000000000000000000000000000000000000 000000000000000A000000000000000000000000000000000000000000000 000000000000000000000000000000000000000     00000000                                                                                                                        000000000000000000
F0010000010096500002000007231254500041450500000000000000000201704220002001FERNEY ENRIQUE ZULUAGA GOMEZ                      C000000004600000000000000000000000100010010000000000000000000000F0010000010096500220170422000101 00000000000000000000000000000000000000000000000000000000000000000000000000000000000000000000000000000000000000000N 00000000000NCONT   00    00000000000          00000000000000000000000000000000000000000000 000000000000000A000000000000000000000000000000000000000000000 000000000000000000000000000000000000000     00000000                                                                                                                        000000000000000000
F0010000010096500003000007231254500042505000000000000000000201704220002001FERNEY ENRIQUE ZULUAGA GOMEZ                      C000000000900000000000000000000000100010010000000000000000000000F0010000010096500320170422000101 00000000000000000000000000000000000000000000000000000000000000000000000000000000000000000000000000000000000000000N 00000000000NCONT   00    00000000000          00000000000000000000000000000000000000000000 000000000000000A000000000000000000000000000000000000000000000 000000000000000000000000000000000000000     00000000                                                                                                                        000000000000000000
F0010000010096500004000007231254500023658300000000000000000201704220002001FERNEY ENRIQUE ZULUAGA GOMEZ                      C000000000000000000000000000000000100010010000000000000000000000F0010000010096500420170422000101 00000000000000000000000000000000000000000000000000000000000000000000000000000000000000000000000000000000000000000N 00000000000NCONT   00    00000000000          00000000000000000000000000000000000000000000 000000000000000A000000000000000000000000000000000000000000000 000000000000000000000000000000000000000     00000000                                                                                                                        000000000000000000
F0010000010096500005000007231254500013552100000000000000000201704220002001FERNEY ENRIQUE ZULUAGA GOMEZ                      D000000000000000000000000000000000100010010000000000000000000000F0010000010096500520170422000101 00000000000000000000000000000000000000000000000000000000000000000000000000000000000000000000000000000000000000000N 00000000000NCONT   00    00000000000          00000000000000000000000000000000000000000000 000000000000000A000000000000000000000000000000000000000000000 000000000000000000000000000000000000000     00000000                                                                                                                        000000000000000000
F0010000010096600001000000744496800011050500000000000000000201704220002001TOMAS SANCHEZ                                     D000000002100000000000000000000000100010010000000000000000000000F0010000010096600120170422000101 00000000000000000000000000000000000000000000000000000000000000000000000000000000000000000000000000000000000000000N 00000000000NCONT   00    00000000000          00000000000000000000000000000000000000000000 000000000000000A000000000000000000000000000000000000000000000 000000000000000000000000000000000000000     00000000                                                                                                                        000000000000000000
F0010000010096600002000000744496800041450500000000000000000201704220002001TOMAS SANCHEZ                                     C000000002000000000000000000000000100010010000000000000000000000F0010000010096600220170422000101 00000000000000000000000000000000000000000000000000000000000000000000000000000000000000000000000000000000000000000N 00000000000NCONT   00    00000000000          00000000000000000000000000000000000000000000 000000000000000A000000000000000000000000000000000000000000000 000000000000000000000000000000000000000     00000000                                                                                                                        000000000000000000
F0010000010096600003000000744496800042505000000000000000000201704220002001TOMAS SANCHEZ                                     C000000000100000000000000000000000100010010000000000000000000000F0010000010096600320170422000101 00000000000000000000000000000000000000000000000000000000000000000000000000000000000000000000000000000000000000000N 00000000000NCONT   00    00000000000          00000000000000000000000000000000000000000000 000000000000000A000000000000000000000000000000000000000000000 000000000000000000000000000000000000000     00000000                                                                                                                        000000000000000000
F0010000010096600004000000744496800023658300000000000000000201704220002001TOMAS SANCHEZ                                     C000000000000000000000000000000000100010010000000000000000000000F0010000010096600420170422000101 00000000000000000000000000000000000000000000000000000000000000000000000000000000000000000000000000000000000000000N 00000000000NCONT   00    00000000000          00000000000000000000000000000000000000000000 000000000000000A000000000000000000000000000000000000000000000 000000000000000000000000000000000000000     00000000                                                                                                                        000000000000000000
F0010000010096600005000000744496800013552100000000000000000201704220002001TOMAS SANCHEZ                                     D000000000000000000000000000000000100010010000000000000000000000F0010000010096600520170422000101 00000000000000000000000000000000000000000000000000000000000000000000000000000000000000000000000000000000000000000N 00000000000NCONT   00    00000000000          00000000000000000000000000000000000000000000 000000000000000A000000000000000000000000000000000000000000000 000000000000000000000000000000000000000     00000000                                                                                                                        000000000000000000
F0010000010096700001000090067091400011050500000000000000000201704220002001COMERCIALIZADORA ESCOBAR ORTIZ                    D000000000600000000000000000000000100010010000000000000000000000F0010000010096700120170422000101 00000000000000000000000000000000000000000000000000000000000000000000000000000000000000000000000000000000000000000N 00000000000NCONT   00    00000000000          00000000000000000000000000000000000000000000 000000000000000A000000000000000000000000000000000000000000000 000000000000000000000000000000000000000     00000000                                                                                                                        000000000000000000
F0010000010096700002000090067091400041450500000000000000000201704220002001COMERCIALIZADORA ESCOBAR ORTIZ                    C000000000300000000000000000000000100010010000000000000000000000F0010000010096700220170422000101 00000000000000000000000000000000000000000000000000000000000000000000000000000000000000000000000000000000000000000N 00000000000NCONT   00    00000000000          00000000000000000000000000000000000000000000 000000000000000A000000000000000000000000000000000000000000000 000000000000000000000000000000000000000     00000000                                                                                                                        000000000000000000
F0010000010096700003000090067091400042505000000000000000000201704220002001COMERCIALIZADORA ESCOBAR ORTIZ                    C000000000300000000000000000000000100010010000000000000000000000F0010000010096700320170422000101 00000000000000000000000000000000000000000000000000000000000000000000000000000000000000000000000000000000000000000N 00000000000NCONT   00    00000000000          00000000000000000000000000000000000000000000 000000000000000A000000000000000000000000000000000000000000000 000000000000000000000000000000000000000     00000000                                                                                                                        000000000000000000
F0010000010096700004000090067091400023658300000000000000000201704220002001COMERCIALIZADORA ESCOBAR ORTIZ                    C000000000000000000000000000000000100010010000000000000000000000F0010000010096700420170422000101 00000000000000000000000000000000000000000000000000000000000000000000000000000000000000000000000000000000000000000N 00000000000NCONT   00    00000000000          00000000000000000000000000000000000000000000 000000000000000A000000000000000000000000000000000000000000000 000000000000000000000000000000000000000     00000000                                                                                                                        000000000000000000
F0010000010096700005000090067091400013552100000000000000000201704220002001COMERCIALIZADORA ESCOBAR ORTIZ                    D000000000000000000000000000000000100010010000000000000000000000F0010000010096700520170422000101 00000000000000000000000000000000000000000000000000000000000000000000000000000000000000000000000000000000000000000N 00000000000NCONT   00    00000000000          00000000000000000000000000000000000000000000 000000000000000A000000000000000000000000000000000000000000000 000000000000000000000000000000000000000     00000000                                                                                                                        000000000000000000
F0010000010096800001000007200023300011050500000000000000000201704220002001WILLIAM ORTEGA                                    D000000001500000000000000000000000100010010000000000000000000000F0010000010096800120170422000101 00000000000000000000000000000000000000000000000000000000000000000000000000000000000000000000000000000000000000000N 00000000000NCONT   00    00000000000          00000000000000000000000000000000000000000000 000000000000000A000000000000000000000000000000000000000000000 000000000000000000000000000000000000000     00000000                                                                                                                        000000000000000000
F0010000010096800002000007200023300041450500000000000000000201704220002001WILLIAM ORTEGA                                    C000000001300000000000000000000000100010010000000000000000000000F0010000010096800220170422000101 00000000000000000000000000000000000000000000000000000000000000000000000000000000000000000000000000000000000000000N 00000000000NCONT   00    00000000000          00000000000000000000000000000000000000000000 000000000000000A000000000000000000000000000000000000000000000 000000000000000000000000000000000000000     00000000                                                                                                                        000000000000000000
F0010000010096800003000007200023300042505000000000000000000201704220002001WILLIAM ORTEGA                                    C000000000200000000000000000000000100010010000000000000000000000F0010000010096800320170422000101 00000000000000000000000000000000000000000000000000000000000000000000000000000000000000000000000000000000000000000N 00000000000NCONT   00    00000000000          00000000000000000000000000000000000000000000 000000000000000A000000000000000000000000000000000000000000000 000000000000000000000000000000000000000     00000000                                                                                                                        000000000000000000
F0010000010096800004000007200023300023658300000000000000000201704220002001WILLIAM ORTEGA                                    C000000000000000000000000000000000100010010000000000000000000000F0010000010096800420170422000101 00000000000000000000000000000000000000000000000000000000000000000000000000000000000000000000000000000000000000000N 00000000000NCONT   00    00000000000          00000000000000000000000000000000000000000000 000000000000000A000000000000000000000000000000000000000000000 000000000000000000000000000000000000000     00000000                                                                                                                        000000000000000000
F0010000010096800005000007200023300013552100000000000000000201704220002001WILLIAM ORTEGA                                    D000000000000000000000000000000000100010010000000000000000000000F0010000010096800520170422000101 00000000000000000000000000000000000000000000000000000000000000000000000000000000000000000000000000000000000000000N 00000000000NCONT   00    00000000000          00000000000000000000000000000000000000000000 000000000000000A000000000000000000000000000000000000000000000 000000000000000000000000000000000000000     00000000                                                                                                                        000000000000000000
F0010000010096900001000080012418800011050500000000000000000201704220002001DISTRITEC S.A.S                                   D000000003250000000000000000000000100010010000000000000000000000F0010000010096900120170422000101 00000000000000000000000000000000000000000000000000000000000000000000000000000000000000000000000000000000000000000N 00000000000NCONT   00    00000000000          00000000000000000000000000000000000000000000 000000000000000A000000000000000000000000000000000000000000000 000000000000000000000000000000000000000     00000000                                                                                                                        000000000000000000
F0010000010096900002000080012418800041450500000000000000000201704220002001DISTRITEC S.A.S                                   C000000003000000000000000000000000100010010000000000000000000000F0010000010096900220170422000101 00000000000000000000000000000000000000000000000000000000000000000000000000000000000000000000000000000000000000000N 00000000000NCONT   00    00000000000          00000000000000000000000000000000000000000000 000000000000000A000000000000000000000000000000000000000000000 000000000000000000000000000000000000000     00000000                                                                                                                        000000000000000000
F0010000010096900003000080012418800042505000000000000000000201704220002001DISTRITEC S.A.S                                   C000000000250000000000000000000000100010010000000000000000000000F0010000010096900320170422000101 00000000000000000000000000000000000000000000000000000000000000000000000000000000000000000000000000000000000000000N 00000000000NCONT   00    00000000000          00000000000000000000000000000000000000000000 000000000000000A000000000000000000000000000000000000000000000 000000000000000000000000000000000000000     00000000                                                                                                                        000000000000000000
F0010000010096900004000080012418800023658300000000000000000201704220002001DISTRITEC S.A.S                                   C000000000000000000000000000000000100010010000000000000000000000F0010000010096900420170422000101 00000000000000000000000000000000000000000000000000000000000000000000000000000000000000000000000000000000000000000N 00000000000NCONT   00    00000000000          00000000000000000000000000000000000000000000 000000000000000A000000000000000000000000000000000000000000000 000000000000000000000000000000000000000     00000000                                                                                                                        000000000000000000
F0010000010096900005000080012418800013552100000000000000000201704220002001DISTRITEC S.A.S                                   D000000000000000000000000000000000100010010000000000000000000000F0010000010096900520170422000101 00000000000000000000000000000000000000000000000000000000000000000000000000000000000000000000000000000000000000000N 00000000000NCONT   00    00000000000          00000000000000000000000000000000000000000000 000000000000000A000000000000000000000000000000000000000000000 000000000000000000000000000000000000000     00000000                                                                                                                        000000000000000000
F0010000010097000001000001022529300011050500000000000000000201704220002001ALBERTO ALVAREZ ISAZA                             D000000001750000000000000000000000100010010000000000000000000000F0010000010097000120170422000101 00000000000000000000000000000000000000000000000000000000000000000000000000000000000000000000000000000000000000000N 00000000000NCONT   00    00000000000          00000000000000000000000000000000000000000000 000000000000000A000000000000000000000000000000000000000000000 000000000000000000000000000000000000000     00000000                                                                                                                        000000000000000000
F0010000010097000002000001022529300041450500000000000000000201704220002001ALBERTO ALVAREZ ISAZA                             C000000001750000000000000000000000100010010000000000000000000000F0010000010097000220170422000101 00000000000000000000000000000000000000000000000000000000000000000000000000000000000000000000000000000000000000000N 00000000000NCONT   00    00000000000          00000000000000000000000000000000000000000000 000000000000000A000000000000000000000000000000000000000000000 000000000000000000000000000000000000000     00000000                                                                                                                        000000000000000000
F0010000010097000003000001022529300042505000000000000000000201704220002001ALBERTO ALVAREZ ISAZA                             C000000000000000000000000000000000100010010000000000000000000000F0010000010097000320170422000101 00000000000000000000000000000000000000000000000000000000000000000000000000000000000000000000000000000000000000000N 00000000000NCONT   00    00000000000          00000000000000000000000000000000000000000000 000000000000000A000000000000000000000000000000000000000000000 000000000000000000000000000000000000000     00000000                                                                                                                        000000000000000000
F0010000010097000004000001022529300023658300000000000000000201704220002001ALBERTO ALVAREZ ISAZA                             C000000000000000000000000000000000100010010000000000000000000000F0010000010097000420170422000101 00000000000000000000000000000000000000000000000000000000000000000000000000000000000000000000000000000000000000000N 00000000000NCONT   00    00000000000          00000000000000000000000000000000000000000000 000000000000000A000000000000000000000000000000000000000000000 000000000000000000000000000000000000000     00000000                                                                                                                        000000000000000000
F0010000010097000005000001022529300013552100000000000000000201704220002001ALBERTO ALVAREZ ISAZA                             D000000000000000000000000000000000100010010000000000000000000000F0010000010097000520170422000101 00000000000000000000000000000000000000000000000000000000000000000000000000000000000000000000000000000000000000000N 00000000000NCONT   00    00000000000          00000000000000000000000000000000000000000000 000000000000000A000000000000000000000000000000000000000000000 000000000000000000000000000000000000000     00000000                                                                                                                        000000000000000000
F0010000010097100001000001022529300011050500000000000000000201704220002001ALBERTO ALVAREZ ISAZA                             D000000000700000000000000000000000100010010000000000000000000000F0010000010097100120170422000101 00000000000000000000000000000000000000000000000000000000000000000000000000000000000000000000000000000000000000000N 00000000000NCONT   00    00000000000          00000000000000000000000000000000000000000000 000000000000000A000000000000000000000000000000000000000000000 000000000000000000000000000000000000000     00000000                                                                                                                        000000000000000000
F0010000010097100002000001022529300041450500000000000000000201704220002001ALBERTO ALVAREZ ISAZA                             C000000000700000000000000000000000100010010000000000000000000000F0010000010097100220170422000101 00000000000000000000000000000000000000000000000000000000000000000000000000000000000000000000000000000000000000000N 00000000000NCONT   00    00000000000          00000000000000000000000000000000000000000000 000000000000000A000000000000000000000000000000000000000000000 000000000000000000000000000000000000000     00000000                                                                                                                        000000000000000000
F0010000010097100003000001022529300042505000000000000000000201704220002001ALBERTO ALVAREZ ISAZA                             C000000000000000000000000000000000100010010000000000000000000000F0010000010097100320170422000101 00000000000000000000000000000000000000000000000000000000000000000000000000000000000000000000000000000000000000000N 00000000000NCONT   00    00000000000          00000000000000000000000000000000000000000000 000000000000000A000000000000000000000000000000000000000000000 000000000000000000000000000000000000000     00000000                                                                                                                        000000000000000000
F0010000010097100004000001022529300023658300000000000000000201704220002001ALBERTO ALVAREZ ISAZA                             C000000000000000000000000000000000100010010000000000000000000000F0010000010097100420170422000101 00000000000000000000000000000000000000000000000000000000000000000000000000000000000000000000000000000000000000000N 00000000000NCONT   00    00000000000          00000000000000000000000000000000000000000000 000000000000000A000000000000000000000000000000000000000000000 000000000000000000000000000000000000000     00000000                                                                                                                        000000000000000000
F0010000010097100005000001022529300013552100000000000000000201704220002001ALBERTO ALVAREZ ISAZA                             D000000000000000000000000000000000100010010000000000000000000000F0010000010097100520170422000101 00000000000000000000000000000000000000000000000000000000000000000000000000000000000000000000000000000000000000000N 00000000000NCONT   00    00000000000          00000000000000000000000000000000000000000000 000000000000000A000000000000000000000000000000000000000000000 000000000000000000000000000000000000000     00000000                                                                                                                        000000000000000000
F0010000010097200001000001022529300011050500000000000000000201704220002001ALBERTO ALVAREZ ISAZA                             D000000000350000000000000000000000100010010000000000000000000000F0010000010097200120170422000101 00000000000000000000000000000000000000000000000000000000000000000000000000000000000000000000000000000000000000000N 00000000000NCONT   00    00000000000          00000000000000000000000000000000000000000000 000000000000000A000000000000000000000000000000000000000000000 000000000000000000000000000000000000000     00000000                                                                                                                        000000000000000000
F0010000010097200002000001022529300041450500000000000000000201704220002001ALBERTO ALVAREZ ISAZA                             C000000000350000000000000000000000100010010000000000000000000000F0010000010097200220170422000101 00000000000000000000000000000000000000000000000000000000000000000000000000000000000000000000000000000000000000000N 00000000000NCONT   00    00000000000          00000000000000000000000000000000000000000000 000000000000000A000000000000000000000000000000000000000000000 000000000000000000000000000000000000000     00000000                                                                                                                        000000000000000000
F0010000010097200003000001022529300042505000000000000000000201704220002001ALBERTO ALVAREZ ISAZA                             C000000000000000000000000000000000100010010000000000000000000000F0010000010097200320170422000101 00000000000000000000000000000000000000000000000000000000000000000000000000000000000000000000000000000000000000000N 00000000000NCONT   00    00000000000          00000000000000000000000000000000000000000000 000000000000000A000000000000000000000000000000000000000000000 000000000000000000000000000000000000000     00000000                                                                                                                        000000000000000000
F0010000010097200004000001022529300023658300000000000000000201704220002001ALBERTO ALVAREZ ISAZA                             C000000000000000000000000000000000100010010000000000000000000000F0010000010097200420170422000101 00000000000000000000000000000000000000000000000000000000000000000000000000000000000000000000000000000000000000000N 00000000000NCONT   00    00000000000          00000000000000000000000000000000000000000000 000000000000000A000000000000000000000000000000000000000000000 000000000000000000000000000000000000000     00000000                                                                                                                        000000000000000000
F0010000010097200005000001022529300013552100000000000000000201704220002001ALBERTO ALVAREZ ISAZA                             D000000000000000000000000000000000100010010000000000000000000000F0010000010097200520170422000101 00000000000000000000000000000000000000000000000000000000000000000000000000000000000000000000000000000000000000000N 00000000000NCONT   00    00000000000          00000000000000000000000000000000000000000000 000000000000000A000000000000000000000000000000000000000000000 000000000000000000000000000000000000000     00000000                                                                                                                        000000000000000000
F0010000010097300001000001022529300011050500000000000000000201704220002001ALBERTO ALVAREZ ISAZA                             D000000000350000000000000000000000100010010000000000000000000000F0010000010097300120170422000101 00000000000000000000000000000000000000000000000000000000000000000000000000000000000000000000000000000000000000000N 00000000000NCONT   00    00000000000          00000000000000000000000000000000000000000000 000000000000000A000000000000000000000000000000000000000000000 000000000000000000000000000000000000000     00000000                                                                                                                        000000000000000000
F0010000010097300002000001022529300041450500000000000000000201704220002001ALBERTO ALVAREZ ISAZA                             C000000000350000000000000000000000100010010000000000000000000000F0010000010097300220170422000101 00000000000000000000000000000000000000000000000000000000000000000000000000000000000000000000000000000000000000000N 00000000000NCONT   00    00000000000          00000000000000000000000000000000000000000000 000000000000000A000000000000000000000000000000000000000000000 000000000000000000000000000000000000000     00000000                                                                                                                        000000000000000000
F0010000010097300003000001022529300042505000000000000000000201704220002001ALBERTO ALVAREZ ISAZA                             C000000000000000000000000000000000100010010000000000000000000000F0010000010097300320170422000101 00000000000000000000000000000000000000000000000000000000000000000000000000000000000000000000000000000000000000000N 00000000000NCONT   00    00000000000          00000000000000000000000000000000000000000000 000000000000000A000000000000000000000000000000000000000000000 000000000000000000000000000000000000000     00000000                                                                                                                        000000000000000000
F0010000010097300004000001022529300023658300000000000000000201704220002001ALBERTO ALVAREZ ISAZA                             C000000000000000000000000000000000100010010000000000000000000000F0010000010097300420170422000101 00000000000000000000000000000000000000000000000000000000000000000000000000000000000000000000000000000000000000000N 00000000000NCONT   00    00000000000          00000000000000000000000000000000000000000000 000000000000000A000000000000000000000000000000000000000000000 000000000000000000000000000000000000000     00000000                                                                                                                        000000000000000000
F0010000010097300005000001022529300013552100000000000000000201704220002001ALBERTO ALVAREZ ISAZA                             D000000000000000000000000000000000100010010000000000000000000000F0010000010097300520170422000101 00000000000000000000000000000000000000000000000000000000000000000000000000000000000000000000000000000000000000000N 00000000000NCONT   00    00000000000          00000000000000000000000000000000000000000000 000000000000000A000000000000000000000000000000000000000000000 000000000000000000000000000000000000000     00000000                                                                                                                        000000000000000000
F0010000010097400001000001022529300011050500000000000000000201704220002001ALBERTO ALVAREZ ISAZA                             D000000000700000000000000000000000100010010000000000000000000000F0010000010097400120170422000101 00000000000000000000000000000000000000000000000000000000000000000000000000000000000000000000000000000000000000000N 00000000000NCONT   00    00000000000          00000000000000000000000000000000000000000000 000000000000000A000000000000000000000000000000000000000000000 000000000000000000000000000000000000000     00000000                                                                                                                        000000000000000000
F0010000010097400002000001022529300041450500000000000000000201704220002001ALBERTO ALVAREZ ISAZA                             C000000000700000000000000000000000100010010000000000000000000000F0010000010097400220170422000101 00000000000000000000000000000000000000000000000000000000000000000000000000000000000000000000000000000000000000000N 00000000000NCONT   00    00000000000          00000000000000000000000000000000000000000000 000000000000000A000000000000000000000000000000000000000000000 000000000000000000000000000000000000000     00000000                                                                                                                        000000000000000000
F0010000010097400003000001022529300042505000000000000000000201704220002001ALBERTO ALVAREZ ISAZA                             C000000000000000000000000000000000100010010000000000000000000000F0010000010097400320170422000101 00000000000000000000000000000000000000000000000000000000000000000000000000000000000000000000000000000000000000000N 00000000000NCONT   00    00000000000          00000000000000000000000000000000000000000000 000000000000000A000000000000000000000000000000000000000000000 000000000000000000000000000000000000000     00000000                                                                                                                        000000000000000000
F0010000010097400004000001022529300023658300000000000000000201704220002001ALBERTO ALVAREZ ISAZA                             C000000000000000000000000000000000100010010000000000000000000000F0010000010097400420170422000101 00000000000000000000000000000000000000000000000000000000000000000000000000000000000000000000000000000000000000000N 00000000000NCONT   00    00000000000          00000000000000000000000000000000000000000000 000000000000000A000000000000000000000000000000000000000000000 000000000000000000000000000000000000000     00000000                                                                                                                        000000000000000000
F0010000010097400005000001022529300013552100000000000000000201704220002001ALBERTO ALVAREZ ISAZA                             D000000000000000000000000000000000100010010000000000000000000000F0010000010097400520170422000101 00000000000000000000000000000000000000000000000000000000000000000000000000000000000000000000000000000000000000000N 00000000000NCONT   00    00000000000          00000000000000000000000000000000000000000000 000000000000000A000000000000000000000000000000000000000000000 000000000000000000000000000000000000000     00000000                                                                                                                        000000000000000000
F0010000010097500001000007223972300011050500000000000000000201704220002001LUIS VALENCIA                                     D000000008600000000000000000000000100010010000000000000000000000F0010000010097500120170422000101 00000000000000000000000000000000000000000000000000000000000000000000000000000000000000000000000000000000000000000N 00000000000NCONT   00    00000000000          00000000000000000000000000000000000000000000 000000000000000A000000000000000000000000000000000000000000000 000000000000000000000000000000000000000     00000000                                                                                                                        000000000000000000
F0010000010097500002000007223972300041450500000000000000000201704220002001LUIS VALENCIA                                     C000000008000000000000000000000000100010010000000000000000000000F0010000010097500220170422000101 00000000000000000000000000000000000000000000000000000000000000000000000000000000000000000000000000000000000000000N 00000000000NCONT   00    00000000000          00000000000000000000000000000000000000000000 000000000000000A000000000000000000000000000000000000000000000 000000000000000000000000000000000000000     00000000                                                                                                                        000000000000000000
F0010000010097500003000007223972300042505000000000000000000201704220002001LUIS VALENCIA                                     C000000000600000000000000000000000100010010000000000000000000000F0010000010097500320170422000101 00000000000000000000000000000000000000000000000000000000000000000000000000000000000000000000000000000000000000000N 00000000000NCONT   00    00000000000          00000000000000000000000000000000000000000000 000000000000000A000000000000000000000000000000000000000000000 000000000000000000000000000000000000000     00000000                                                                                                                        000000000000000000
F0010000010097500004000007223972300023658300000000000000000201704220002001LUIS VALENCIA                                     C000000000000000000000000000000000100010010000000000000000000000F0010000010097500420170422000101 00000000000000000000000000000000000000000000000000000000000000000000000000000000000000000000000000000000000000000N 00000000000NCONT   00    00000000000          00000000000000000000000000000000000000000000 000000000000000A000000000000000000000000000000000000000000000 000000000000000000000000000000000000000     00000000                                                                                                                        000000000000000000
F0010000010097500005000007223972300013552100000000000000000201704220002001LUIS VALENCIA                                     D000000000000000000000000000000000100010010000000000000000000000F0010000010097500520170422000101 00000000000000000000000000000000000000000000000000000000000000000000000000000000000000000000000000000000000000000N 00000000000NCONT   00    00000000000          00000000000000000000000000000000000000000000 000000000000000A000000000000000000000000000000000000000000000 000000000000000000000000000000000000000     00000000                                                                                                                        000000000000000000
F0010000010097600001000104442469100011050500000000000000000201704220002001ALESSANDRA DE BIASE CELIS                         D000000001050000000000000000000000100010010000000000000000000000F0010000010097600120170422000101 00000000000000000000000000000000000000000000000000000000000000000000000000000000000000000000000000000000000000000N 00000000000NCONT   00    00000000000          00000000000000000000000000000000000000000000 000000000000000A000000000000000000000000000000000000000000000 000000000000000000000000000000000000000     00000000                                                                                                                        000000000000000000
F0010000010097600002000104442469100041450500000000000000000201704220002001ALESSANDRA DE BIASE CELIS                         C000000000950000000000000000000000100010010000000000000000000000F0010000010097600220170422000101 00000000000000000000000000000000000000000000000000000000000000000000000000000000000000000000000000000000000000000N 00000000000NCONT   00    00000000000          00000000000000000000000000000000000000000000 000000000000000A000000000000000000000000000000000000000000000 000000000000000000000000000000000000000     00000000                                                                                                                        000000000000000000
F0010000010097600003000104442469100042505000000000000000000201704220002001ALESSANDRA DE BIASE CELIS                         C000000000100000000000000000000000100010010000000000000000000000F0010000010097600320170422000101 00000000000000000000000000000000000000000000000000000000000000000000000000000000000000000000000000000000000000000N 00000000000NCONT   00    00000000000          00000000000000000000000000000000000000000000 000000000000000A000000000000000000000000000000000000000000000 000000000000000000000000000000000000000     00000000                                                                                                                        000000000000000000
F0010000010097600004000104442469100023658300000000000000000201704220002001ALESSANDRA DE BIASE CELIS                         C000000000000000000000000000000000100010010000000000000000000000F0010000010097600420170422000101 00000000000000000000000000000000000000000000000000000000000000000000000000000000000000000000000000000000000000000N 00000000000NCONT   00    00000000000          00000000000000000000000000000000000000000000 000000000000000A000000000000000000000000000000000000000000000 000000000000000000000000000000000000000     00000000                                                                                                                        000000000000000000
F0010000010097600005000104442469100013552100000000000000000201704220002001ALESSANDRA DE BIASE CELIS                         D000000000000000000000000000000000100010010000000000000000000000F0010000010097600520170422000101 00000000000000000000000000000000000000000000000000000000000000000000000000000000000000000000000000000000000000000N 00000000000NCONT   00    00000000000          00000000000000000000000000000000000000000000 000000000000000A000000000000000000000000000000000000000000000 000000000000000000000000000000000000000     00000000                                                                                                                        000000000000000000
F0010000010097700001000090055114100011050500000000000000000201704220002001DISTRIPINTURAS DEL ATLANTICO S.A.S.               D000000001200000000000000000000000100010010000000000000000000000F0010000010097700120170422000101 00000000000000000000000000000000000000000000000000000000000000000000000000000000000000000000000000000000000000000N 00000000000NCONT   00    00000000000          00000000000000000000000000000000000000000000 000000000000000A000000000000000000000000000000000000000000000 000000000000000000000000000000000000000     00000000                                                                                                                        000000000000000000
F0010000010097700002000090055114100041450500000000000000000201704220002001DISTRIPINTURAS DEL ATLANTICO S.A.S.               C000000001000000000000000000000000100010010000000000000000000000F0010000010097700220170422000101 00000000000000000000000000000000000000000000000000000000000000000000000000000000000000000000000000000000000000000N 00000000000NCONT   00    00000000000          00000000000000000000000000000000000000000000 000000000000000A000000000000000000000000000000000000000000000 000000000000000000000000000000000000000     00000000                                                                                                                        000000000000000000
F0010000010097700003000090055114100042505000000000000000000201704220002001DISTRIPINTURAS DEL ATLANTICO S.A.S.               C000000000200000000000000000000000100010010000000000000000000000F0010000010097700320170422000101 00000000000000000000000000000000000000000000000000000000000000000000000000000000000000000000000000000000000000000N 00000000000NCONT   00    00000000000          00000000000000000000000000000000000000000000 000000000000000A000000000000000000000000000000000000000000000 000000000000000000000000000000000000000     00000000                                                                                                                        000000000000000000
F0010000010097700004000090055114100023658300000000000000000201704220002001DISTRIPINTURAS DEL ATLANTICO S.A.S.               C000000000000000000000000000000000100010010000000000000000000000F0010000010097700420170422000101 00000000000000000000000000000000000000000000000000000000000000000000000000000000000000000000000000000000000000000N 00000000000NCONT   00    00000000000          00000000000000000000000000000000000000000000 000000000000000A000000000000000000000000000000000000000000000 000000000000000000000000000000000000000     00000000                                                                                                                        000000000000000000
F0010000010097700005000090055114100013552100000000000000000201704220002001DISTRIPINTURAS DEL ATLANTICO S.A.S.               D000000000000000000000000000000000100010010000000000000000000000F0010000010097700520170422000101 00000000000000000000000000000000000000000000000000000000000000000000000000000000000000000000000000000000000000000N 00000000000NCONT   00    00000000000          00000000000000000000000000000000000000000000 000000000000000A000000000000000000000000000000000000000000000 000000000000000000000000000000000000000     00000000                                                                                                                        000000000000000000
F0010000010097800001000080202350700011050500000000000000000201704220002001CONNY DE LA COSTA SAS                             D000000001950000000000000000000000100010010000000000000000000000F0010000010097800120170422000101 00000000000000000000000000000000000000000000000000000000000000000000000000000000000000000000000000000000000000000N 00000000000NCONT   00    00000000000          00000000000000000000000000000000000000000000 000000000000000A000000000000000000000000000000000000000000000 000000000000000000000000000000000000000     00000000                                                                                                                        000000000000000000
F0010000010097800002000080202350700041450500000000000000000201704220002001CONNY DE LA COSTA SAS                             C000000001900000000000000000000000100010010000000000000000000000F0010000010097800220170422000101 00000000000000000000000000000000000000000000000000000000000000000000000000000000000000000000000000000000000000000N 00000000000NCONT   00    00000000000          00000000000000000000000000000000000000000000 000000000000000A000000000000000000000000000000000000000000000 000000000000000000000000000000000000000     00000000                                                                                                                        000000000000000000
F0010000010097800003000080202350700042505000000000000000000201704220002001CONNY DE LA COSTA SAS                             C000000000050000000000000000000000100010010000000000000000000000F0010000010097800320170422000101 00000000000000000000000000000000000000000000000000000000000000000000000000000000000000000000000000000000000000000N 00000000000NCONT   00    00000000000          00000000000000000000000000000000000000000000 000000000000000A000000000000000000000000000000000000000000000 000000000000000000000000000000000000000     00000000                                                                                                                        000000000000000000
F0010000010097800004000080202350700023658300000000000000000201704220002001CONNY DE LA COSTA SAS                             C000000000000000000000000000000000100010010000000000000000000000F0010000010097800420170422000101 00000000000000000000000000000000000000000000000000000000000000000000000000000000000000000000000000000000000000000N 00000000000NCONT   00    00000000000          00000000000000000000000000000000000000000000 000000000000000A000000000000000000000000000000000000000000000 000000000000000000000000000000000000000     00000000                                                                                                                        000000000000000000
F0010000010097800005000080202350700013552100000000000000000201704220002001CONNY DE LA COSTA SAS                             D000000000000000000000000000000000100010010000000000000000000000F0010000010097800520170422000101 00000000000000000000000000000000000000000000000000000000000000000000000000000000000000000000000000000000000000000N 00000000000NCONT   00    00000000000          00000000000000000000000000000000000000000000 000000000000000A000000000000000000000000000000000000000000000 000000000000000000000000000000000000000     00000000                                                                                                                        000000000000000000
F0010000010097900001000080202350700011050500000000000000000201704220002001CONNY DE LA COSTA SAS                             D000000001950000000000000000000000100010010000000000000000000000F0010000010097900120170422000101 00000000000000000000000000000000000000000000000000000000000000000000000000000000000000000000000000000000000000000N 00000000000NCONT   00    00000000000          00000000000000000000000000000000000000000000 000000000000000A000000000000000000000000000000000000000000000 000000000000000000000000000000000000000     00000000                                                                                                                        000000000000000000
F0010000010097900002000080202350700041450500000000000000000201704220002001CONNY DE LA COSTA SAS                             C000000001900000000000000000000000100010010000000000000000000000F0010000010097900220170422000101 00000000000000000000000000000000000000000000000000000000000000000000000000000000000000000000000000000000000000000N 00000000000NCONT   00    00000000000          00000000000000000000000000000000000000000000 000000000000000A000000000000000000000000000000000000000000000 000000000000000000000000000000000000000     00000000                                                                                                                        000000000000000000
F0010000010097900003000080202350700042505000000000000000000201704220002001CONNY DE LA COSTA SAS                             C000000000050000000000000000000000100010010000000000000000000000F0010000010097900320170422000101 00000000000000000000000000000000000000000000000000000000000000000000000000000000000000000000000000000000000000000N 00000000000NCONT   00    00000000000          00000000000000000000000000000000000000000000 000000000000000A000000000000000000000000000000000000000000000 000000000000000000000000000000000000000     00000000                                                                                                                        000000000000000000
F0010000010097900004000080202350700023658300000000000000000201704220002001CONNY DE LA COSTA SAS                             C000000000000000000000000000000000100010010000000000000000000000F0010000010097900420170422000101 00000000000000000000000000000000000000000000000000000000000000000000000000000000000000000000000000000000000000000N 00000000000NCONT   00    00000000000          00000000000000000000000000000000000000000000 000000000000000A000000000000000000000000000000000000000000000 000000000000000000000000000000000000000     00000000                                                                                                                        000000000000000000
F0010000010097900005000080202350700013552100000000000000000201704220002001CONNY DE LA COSTA SAS                             D000000000000000000000000000000000100010010000000000000000000000F0010000010097900520170422000101 00000000000000000000000000000000000000000000000000000000000000000000000000000000000000000000000000000000000000000N 00000000000NCONT   00    00000000000          00000000000000000000000000000000000000000000 000000000000000A000000000000000000000000000000000000000000000 000000000000000000000000000000000000000     00000000                                                                                                                        000000000000000000
F0010000010098000001000002250701100011050500000000000000000201704220002001MARYORIS MAZZILLI                                 D000000001600000000000000000000000100010010000000000000000000000F0010000010098000120170422000101 00000000000000000000000000000000000000000000000000000000000000000000000000000000000000000000000000000000000000000N 00000000000NCONT   00    00000000000          00000000000000000000000000000000000000000000 000000000000000A000000000000000000000000000000000000000000000 000000000000000000000000000000000000000     00000000                                                                                                                        000000000000000000
F0010000010098000002000002250701100041450500000000000000000201704220002001MARYORIS MAZZILLI                                 C000000001300000000000000000000000100010010000000000000000000000F0010000010098000220170422000101 00000000000000000000000000000000000000000000000000000000000000000000000000000000000000000000000000000000000000000N 00000000000NCONT   00    00000000000          00000000000000000000000000000000000000000000 000000000000000A000000000000000000000000000000000000000000000 000000000000000000000000000000000000000     00000000                                                                                                                        000000000000000000
F0010000010098000003000002250701100042505000000000000000000201704220002001MARYORIS MAZZILLI                                 C000000000300000000000000000000000100010010000000000000000000000F0010000010098000320170422000101 00000000000000000000000000000000000000000000000000000000000000000000000000000000000000000000000000000000000000000N 00000000000NCONT   00    00000000000          00000000000000000000000000000000000000000000 000000000000000A000000000000000000000000000000000000000000000 000000000000000000000000000000000000000     00000000                                                                                                                        000000000000000000
F0010000010098000004000002250701100023658300000000000000000201704220002001MARYORIS MAZZILLI                                 C000000000000000000000000000000000100010010000000000000000000000F0010000010098000420170422000101 00000000000000000000000000000000000000000000000000000000000000000000000000000000000000000000000000000000000000000N 00000000000NCONT   00    00000000000          00000000000000000000000000000000000000000000 000000000000000A000000000000000000000000000000000000000000000 000000000000000000000000000000000000000     00000000                                                                                                                        000000000000000000
F0010000010098000005000002250701100013552100000000000000000201704220002001MARYORIS MAZZILLI                                 D000000000000000000000000000000000100010010000000000000000000000F0010000010098000520170422000101 00000000000000000000000000000000000000000000000000000000000000000000000000000000000000000000000000000000000000000N 00000000000NCONT   00    00000000000          00000000000000000000000000000000000000000000 000000000000000A000000000000000000000000000000000000000000000 000000000000000000000000000000000000000     00000000                                                                                                                        000000000000000000
F0010000010098100001000090000859400011050500000000000000000201704220002001COMERCIAL JOTACE LTDA                             D000000001685700000000000000000000100010010000000000000000000000F0010000010098100120170422000101 00000000000000000000000000000000000000000000000000000000000000000000000000000000000000000000000000000000000000000N 00000000000NCONT   00    00000000000          00000000000000000000000000000000000000000000 000000000000000A000000000000000000000000000000000000000000000 000000000000000000000000000000000000000     00000000                                                                                                                        000000000000000000
F0010000010098100002000090000859400041450500000000000000000201704220002001COMERCIAL JOTACE LTDA                             C000000001500000000000000000000000100010010000000000000000000000F0010000010098100220170422000101 00000000000000000000000000000000000000000000000000000000000000000000000000000000000000000000000000000000000000000N 00000000000NCONT   00    00000000000          00000000000000000000000000000000000000000000 000000000000000A000000000000000000000000000000000000000000000 000000000000000000000000000000000000000     00000000                                                                                                                        000000000000000000
F0010000010098100003000090000859400042505000000000000000000201704220002001COMERCIAL JOTACE LTDA                             C000000000185700000000000000000000100010010000000000000000000000F0010000010098100320170422000101 00000000000000000000000000000000000000000000000000000000000000000000000000000000000000000000000000000000000000000N 00000000000NCONT   00    00000000000          00000000000000000000000000000000000000000000 000000000000000A000000000000000000000000000000000000000000000 000000000000000000000000000000000000000     00000000                                                                                                                        000000000000000000
F0010000010098100004000090000859400023658300000000000000000201704220002001COMERCIAL JOTACE LTDA                             C000000000000000000000000000000000100010010000000000000000000000F0010000010098100420170422000101 00000000000000000000000000000000000000000000000000000000000000000000000000000000000000000000000000000000000000000N 00000000000NCONT   00    00000000000          00000000000000000000000000000000000000000000 000000000000000A000000000000000000000000000000000000000000000 000000000000000000000000000000000000000     00000000                                                                                                                        000000000000000000
F0010000010098100005000090000859400013552100000000000000000201704220002001COMERCIAL JOTACE LTDA                             D000000000000000000000000000000000100010010000000000000000000000F0010000010098100520170422000101 00000000000000000000000000000000000000000000000000000000000000000000000000000000000000000000000000000000000000000N 00000000000NCONT   00    00000000000          00000000000000000000000000000000000000000000 000000000000000A000000000000000000000000000000000000000000000 000000000000000000000000000000000000000     00000000                                                                                                                        000000000000000000
F0010000010098200001000009120302700011050500000000000000000201704220002001CALZADO REY ESTEBAN                               D000000001700000000000000000000000100010010000000000000000000000F0010000010098200120170422000101 00000000000000000000000000000000000000000000000000000000000000000000000000000000000000000000000000000000000000000N 00000000000NCONT   00    00000000000          00000000000000000000000000000000000000000000 000000000000000A000000000000000000000000000000000000000000000 000000000000000000000000000000000000000     00000000                                                                                                                        000000000000000000
F0010000010098200002000009120302700041450500000000000000000201704220002001CALZADO REY ESTEBAN                               C000000001000000000000000000000000100010010000000000000000000000F0010000010098200220170422000101 00000000000000000000000000000000000000000000000000000000000000000000000000000000000000000000000000000000000000000N 00000000000NCONT   00    00000000000          00000000000000000000000000000000000000000000 000000000000000A000000000000000000000000000000000000000000000 000000000000000000000000000000000000000     00000000                                                                                                                        000000000000000000
F0010000010098200003000009120302700042505000000000000000000201704220002001CALZADO REY ESTEBAN                               C000000000700000000000000000000000100010010000000000000000000000F0010000010098200320170422000101 00000000000000000000000000000000000000000000000000000000000000000000000000000000000000000000000000000000000000000N 00000000000NCONT   00    00000000000          00000000000000000000000000000000000000000000 000000000000000A000000000000000000000000000000000000000000000 000000000000000000000000000000000000000     00000000                                                                                                                        000000000000000000
F0010000010098200004000009120302700023658300000000000000000201704220002001CALZADO REY ESTEBAN                               C000000000000000000000000000000000100010010000000000000000000000F0010000010098200420170422000101 00000000000000000000000000000000000000000000000000000000000000000000000000000000000000000000000000000000000000000N 00000000000NCONT   00    00000000000          00000000000000000000000000000000000000000000 000000000000000A000000000000000000000000000000000000000000000 000000000000000000000000000000000000000     00000000                                                                                                                        000000000000000000
F0010000010098200005000009120302700013552100000000000000000201704220002001CALZADO REY ESTEBAN                               D000000000000000000000000000000000100010010000000000000000000000F0010000010098200520170422000101 00000000000000000000000000000000000000000000000000000000000000000000000000000000000000000000000000000000000000000N 00000000000NCONT   00    00000000000          00000000000000000000000000000000000000000000 000000000000000A000000000000000000000000000000000000000000000 000000000000000000000000000000000000000     00000000                                                                                                                        000000000000000000
F0010000010098300001000007213653800011050500000000000000000201704220002001VICTOR ECHAVEZ                                    D000000002300000000000000000000000100010010000000000000000000000F0010000010098300120170422000101 00000000000000000000000000000000000000000000000000000000000000000000000000000000000000000000000000000000000000000N 00000000000NCONT   00    00000000000          00000000000000000000000000000000000000000000 000000000000000A000000000000000000000000000000000000000000000 000000000000000000000000000000000000000     00000000                                                                                                                        000000000000000000
F0010000010098300002000007213653800041450500000000000000000201704220002001VICTOR ECHAVEZ                                    C000000002000000000000000000000000100010010000000000000000000000F0010000010098300220170422000101 00000000000000000000000000000000000000000000000000000000000000000000000000000000000000000000000000000000000000000N 00000000000NCONT   00    00000000000          00000000000000000000000000000000000000000000 000000000000000A000000000000000000000000000000000000000000000 000000000000000000000000000000000000000     00000000                                                                                                                        000000000000000000
F0010000010098300003000007213653800042505000000000000000000201704220002001VICTOR ECHAVEZ                                    C000000000300000000000000000000000100010010000000000000000000000F0010000010098300320170422000101 00000000000000000000000000000000000000000000000000000000000000000000000000000000000000000000000000000000000000000N 00000000000NCONT   00    00000000000          00000000000000000000000000000000000000000000 000000000000000A000000000000000000000000000000000000000000000 000000000000000000000000000000000000000     00000000                                                                                                                        000000000000000000
F0010000010098300004000007213653800023658300000000000000000201704220002001VICTOR ECHAVEZ                                    C000000000000000000000000000000000100010010000000000000000000000F0010000010098300420170422000101 00000000000000000000000000000000000000000000000000000000000000000000000000000000000000000000000000000000000000000N 00000000000NCONT   00    00000000000          00000000000000000000000000000000000000000000 000000000000000A000000000000000000000000000000000000000000000 000000000000000000000000000000000000000     00000000                                                                                                                        000000000000000000
F0010000010098300005000007213653800013552100000000000000000201704220002001VICTOR ECHAVEZ                                    D000000000000000000000000000000000100010010000000000000000000000F0010000010098300520170422000101 00000000000000000000000000000000000000000000000000000000000000000000000000000000000000000000000000000000000000000N 00000000000NCONT   00    00000000000          00000000000000000000000000000000000000000000 000000000000000A000000000000000000000000000000000000000000000 000000000000000000000000000000000000000     00000000                                                                                                                        000000000000000000
F0010000010098400001000090067091400011050500000000000000000201704220002001COMERCIALIZADORA ESCOBAR ORTIZ                    D000000003000000000000000000000000100010010000000000000000000000F0010000010098400120170422000101 00000000000000000000000000000000000000000000000000000000000000000000000000000000000000000000000000000000000000000N 00000000000NCONT   00    00000000000          00000000000000000000000000000000000000000000 000000000000000A000000000000000000000000000000000000000000000 000000000000000000000000000000000000000     00000000                                                                                                                        000000000000000000
F0010000010098400002000090067091400041450500000000000000000201704220002001COMERCIALIZADORA ESCOBAR ORTIZ                    C000000002000000000000000000000000100010010000000000000000000000F0010000010098400220170422000101 00000000000000000000000000000000000000000000000000000000000000000000000000000000000000000000000000000000000000000N 00000000000NCONT   00    00000000000          00000000000000000000000000000000000000000000 000000000000000A000000000000000000000000000000000000000000000 000000000000000000000000000000000000000     00000000                                                                                                                        000000000000000000
F0010000010098400003000090067091400042505000000000000000000201704220002001COMERCIALIZADORA ESCOBAR ORTIZ                    C000000001000000000000000000000000100010010000000000000000000000F0010000010098400320170422000101 00000000000000000000000000000000000000000000000000000000000000000000000000000000000000000000000000000000000000000N 00000000000NCONT   00    00000000000          00000000000000000000000000000000000000000000 000000000000000A000000000000000000000000000000000000000000000 000000000000000000000000000000000000000     00000000                                                                                                                        000000000000000000
F0010000010098400004000090067091400023658300000000000000000201704220002001COMERCIALIZADORA ESCOBAR ORTIZ                    C000000000000000000000000000000000100010010000000000000000000000F0010000010098400420170422000101 00000000000000000000000000000000000000000000000000000000000000000000000000000000000000000000000000000000000000000N 00000000000NCONT   00    00000000000          00000000000000000000000000000000000000000000 000000000000000A000000000000000000000000000000000000000000000 000000000000000000000000000000000000000     00000000                                                                                                                        000000000000000000
F0010000010098400005000090067091400013552100000000000000000201704220002001COMERCIALIZADORA ESCOBAR ORTIZ                    D000000000000000000000000000000000100010010000000000000000000000F0010000010098400520170422000101 00000000000000000000000000000000000000000000000000000000000000000000000000000000000000000000000000000000000000000N 00000000000NCONT   00    00000000000          00000000000000000000000000000000000000000000 000000000000000A000000000000000000000000000000000000000000000 000000000000000000000000000000000000000     00000000                                                                                                                        000000000000000000
F0010000010098500001000090067091400011050500000000000000000201704220002001COMERCIALIZADORA ESCOBAR ORTIZ                    D000000000750000000000000000000000100010010000000000000000000000F0010000010098500120170422000101 00000000000000000000000000000000000000000000000000000000000000000000000000000000000000000000000000000000000000000N 00000000000NCONT   00    00000000000          00000000000000000000000000000000000000000000 000000000000000A000000000000000000000000000000000000000000000 000000000000000000000000000000000000000     00000000                                                                                                                        000000000000000000
F0010000010098500002000090067091400041450500000000000000000201704220002001COMERCIALIZADORA ESCOBAR ORTIZ                    C000000000350000000000000000000000100010010000000000000000000000F0010000010098500220170422000101 00000000000000000000000000000000000000000000000000000000000000000000000000000000000000000000000000000000000000000N 00000000000NCONT   00    00000000000          00000000000000000000000000000000000000000000 000000000000000A000000000000000000000000000000000000000000000 000000000000000000000000000000000000000     00000000                                                                                                                        000000000000000000
F0010000010098500003000090067091400042505000000000000000000201704220002001COMERCIALIZADORA ESCOBAR ORTIZ                    C000000000400000000000000000000000100010010000000000000000000000F0010000010098500320170422000101 00000000000000000000000000000000000000000000000000000000000000000000000000000000000000000000000000000000000000000N 00000000000NCONT   00    00000000000          00000000000000000000000000000000000000000000 000000000000000A000000000000000000000000000000000000000000000 000000000000000000000000000000000000000     00000000                                                                                                                        000000000000000000
F0010000010098500004000090067091400023658300000000000000000201704220002001COMERCIALIZADORA ESCOBAR ORTIZ                    C000000000000000000000000000000000100010010000000000000000000000F0010000010098500420170422000101 00000000000000000000000000000000000000000000000000000000000000000000000000000000000000000000000000000000000000000N 00000000000NCONT   00    00000000000          00000000000000000000000000000000000000000000 000000000000000A000000000000000000000000000000000000000000000 000000000000000000000000000000000000000     00000000                                                                                                                        000000000000000000
F0010000010098500005000090067091400013552100000000000000000201704220002001COMERCIALIZADORA ESCOBAR ORTIZ                    D000000000000000000000000000000000100010010000000000000000000000F0010000010098500520170422000101 00000000000000000000000000000000000000000000000000000000000000000000000000000000000000000000000000000000000000000N 00000000000NCONT   00    00000000000          00000000000000000000000000000000000000000000 000000000000000A000000000000000000000000000000000000000000000 000000000000000000000000000000000000000     00000000                                                                                                                        000000000000000000
F0010000010098600001000090067091400011050500000000000000000201704220002001COMERCIALIZADORA ESCOBAR ORTIZ                    D000000002500000000000000000000000100010010000000000000000000000F0010000010098600120170422000101 00000000000000000000000000000000000000000000000000000000000000000000000000000000000000000000000000000000000000000N 00000000000NCONT   00    00000000000          00000000000000000000000000000000000000000000 000000000000000A000000000000000000000000000000000000000000000 000000000000000000000000000000000000000     00000000                                                                                                                        000000000000000000
F0010000010098600002000090067091400041450500000000000000000201704220002001COMERCIALIZADORA ESCOBAR ORTIZ                    C000000001500000000000000000000000100010010000000000000000000000F0010000010098600220170422000101 00000000000000000000000000000000000000000000000000000000000000000000000000000000000000000000000000000000000000000N 00000000000NCONT   00    00000000000          00000000000000000000000000000000000000000000 000000000000000A000000000000000000000000000000000000000000000 000000000000000000000000000000000000000     00000000                                                                                                                        000000000000000000
F0010000010098600003000090067091400042505000000000000000000201704220002001COMERCIALIZADORA ESCOBAR ORTIZ                    C000000001000000000000000000000000100010010000000000000000000000F0010000010098600320170422000101 00000000000000000000000000000000000000000000000000000000000000000000000000000000000000000000000000000000000000000N 00000000000NCONT   00    00000000000          00000000000000000000000000000000000000000000 000000000000000A000000000000000000000000000000000000000000000 000000000000000000000000000000000000000     00000000                                                                                                                        000000000000000000
F0010000010098600004000090067091400023658300000000000000000201704220002001COMERCIALIZADORA ESCOBAR ORTIZ                    C000000000000000000000000000000000100010010000000000000000000000F0010000010098600420170422000101 00000000000000000000000000000000000000000000000000000000000000000000000000000000000000000000000000000000000000000N 00000000000NCONT   00    00000000000          00000000000000000000000000000000000000000000 000000000000000A000000000000000000000000000000000000000000000 000000000000000000000000000000000000000     00000000                                                                                                                        000000000000000000
F0010000010098600005000090067091400013552100000000000000000201704220002001COMERCIALIZADORA ESCOBAR ORTIZ                    D000000000000000000000000000000000100010010000000000000000000000F0010000010098600520170422000101 00000000000000000000000000000000000000000000000000000000000000000000000000000000000000000000000000000000000000000N 00000000000NCONT   00    00000000000          00000000000000000000000000000000000000000000 000000000000000A000000000000000000000000000000000000000000000 000000000000000000000000000000000000000     00000000                                                                                                                        000000000000000000
F0010000010098700001000090067091400011050500000000000000000201704220002001COMERCIALIZADORA ESCOBAR ORTIZ                    D000000001600000000000000000000000100010010000000000000000000000F0010000010098700120170422000101 00000000000000000000000000000000000000000000000000000000000000000000000000000000000000000000000000000000000000000N 00000000000NCONT   00    00000000000          00000000000000000000000000000000000000000000 000000000000000A000000000000000000000000000000000000000000000 000000000000000000000000000000000000000     00000000                                                                                                                        000000000000000000
F0010000010098700002000090067091400041450500000000000000000201704220002001COMERCIALIZADORA ESCOBAR ORTIZ                    C000000001000000000000000000000000100010010000000000000000000000F0010000010098700220170422000101 00000000000000000000000000000000000000000000000000000000000000000000000000000000000000000000000000000000000000000N 00000000000NCONT   00    00000000000          00000000000000000000000000000000000000000000 000000000000000A000000000000000000000000000000000000000000000 000000000000000000000000000000000000000     00000000                                                                                                                        000000000000000000
F0010000010098700003000090067091400042505000000000000000000201704220002001COMERCIALIZADORA ESCOBAR ORTIZ                    C000000000600000000000000000000000100010010000000000000000000000F0010000010098700320170422000101 00000000000000000000000000000000000000000000000000000000000000000000000000000000000000000000000000000000000000000N 00000000000NCONT   00    00000000000          00000000000000000000000000000000000000000000 000000000000000A000000000000000000000000000000000000000000000 000000000000000000000000000000000000000     00000000                                                                                                                        000000000000000000
F0010000010098700004000090067091400023658300000000000000000201704220002001COMERCIALIZADORA ESCOBAR ORTIZ                    C000000000000000000000000000000000100010010000000000000000000000F0010000010098700420170422000101 00000000000000000000000000000000000000000000000000000000000000000000000000000000000000000000000000000000000000000N 00000000000NCONT   00    00000000000          00000000000000000000000000000000000000000000 000000000000000A000000000000000000000000000000000000000000000 000000000000000000000000000000000000000     00000000                                                                                                                        000000000000000000
F0010000010098700005000090067091400013552100000000000000000201704220002001COMERCIALIZADORA ESCOBAR ORTIZ                    D000000000000000000000000000000000100010010000000000000000000000F0010000010098700520170422000101 00000000000000000000000000000000000000000000000000000000000000000000000000000000000000000000000000000000000000000N 00000000000NCONT   00    00000000000          00000000000000000000000000000000000000000000 000000000000000A000000000000000000000000000000000000000000000 000000000000000000000000000000000000000     00000000                                                                                                                        000000000000000000
F0010000010098800001000090067091400011050500000000000000000201704220002001COMERCIALIZADORA ESCOBAR ORTIZ                    D000000005500000000000000000000000100010010000000000000000000000F0010000010098800120170422000101 00000000000000000000000000000000000000000000000000000000000000000000000000000000000000000000000000000000000000000N 00000000000NCONT   00    00000000000          00000000000000000000000000000000000000000000 000000000000000A000000000000000000000000000000000000000000000 000000000000000000000000000000000000000     00000000                                                                                                                        000000000000000000
F0010000010098800002000090067091400041450500000000000000000201704220002001COMERCIALIZADORA ESCOBAR ORTIZ                    C000000004500000000000000000000000100010010000000000000000000000F0010000010098800220170422000101 00000000000000000000000000000000000000000000000000000000000000000000000000000000000000000000000000000000000000000N 00000000000NCONT   00    00000000000          00000000000000000000000000000000000000000000 000000000000000A000000000000000000000000000000000000000000000 000000000000000000000000000000000000000     00000000                                                                                                                        000000000000000000
F0010000010098800003000090067091400042505000000000000000000201704220002001COMERCIALIZADORA ESCOBAR ORTIZ                    C000000001000000000000000000000000100010010000000000000000000000F0010000010098800320170422000101 00000000000000000000000000000000000000000000000000000000000000000000000000000000000000000000000000000000000000000N 00000000000NCONT   00    00000000000          00000000000000000000000000000000000000000000 000000000000000A000000000000000000000000000000000000000000000 000000000000000000000000000000000000000     00000000                                                                                                                        000000000000000000
F0010000010098800004000090067091400023658300000000000000000201704220002001COMERCIALIZADORA ESCOBAR ORTIZ                    C000000000000000000000000000000000100010010000000000000000000000F0010000010098800420170422000101 00000000000000000000000000000000000000000000000000000000000000000000000000000000000000000000000000000000000000000N 00000000000NCONT   00    00000000000          00000000000000000000000000000000000000000000 000000000000000A000000000000000000000000000000000000000000000 000000000000000000000000000000000000000     00000000                                                                                                                        000000000000000000
F0010000010098800005000090067091400013552100000000000000000201704220002001COMERCIALIZADORA ESCOBAR ORTIZ                    D000000000000000000000000000000000100010010000000000000000000000F0010000010098800520170422000101 00000000000000000000000000000000000000000000000000000000000000000000000000000000000000000000000000000000000000000N 00000000000NCONT   00    00000000000          00000000000000000000000000000000000000000000 000000000000000A000000000000000000000000000000000000000000000 000000000000000000000000000000000000000     00000000                                                                                                                        000000000000000000
F0010000010098900001000090067091400011050500000000000000000201704220002001COMERCIALIZADORA ESCOBAR ORTIZ                    D000000001700000000000000000000000100010010000000000000000000000F0010000010098900120170422000101 00000000000000000000000000000000000000000000000000000000000000000000000000000000000000000000000000000000000000000N 00000000000NCONT   00    00000000000          00000000000000000000000000000000000000000000 000000000000000A000000000000000000000000000000000000000000000 000000000000000000000000000000000000000     00000000                                                                                                                        000000000000000000
F0010000010098900002000090067091400041450500000000000000000201704220002001COMERCIALIZADORA ESCOBAR ORTIZ                    C000000001000000000000000000000000100010010000000000000000000000F0010000010098900220170422000101 00000000000000000000000000000000000000000000000000000000000000000000000000000000000000000000000000000000000000000N 00000000000NCONT   00    00000000000          00000000000000000000000000000000000000000000 000000000000000A000000000000000000000000000000000000000000000 000000000000000000000000000000000000000     00000000                                                                                                                        000000000000000000
F0010000010098900003000090067091400042505000000000000000000201704220002001COMERCIALIZADORA ESCOBAR ORTIZ                    C000000000700000000000000000000000100010010000000000000000000000F0010000010098900320170422000101 00000000000000000000000000000000000000000000000000000000000000000000000000000000000000000000000000000000000000000N 00000000000NCONT   00    00000000000          00000000000000000000000000000000000000000000 000000000000000A000000000000000000000000000000000000000000000 000000000000000000000000000000000000000     00000000                                                                                                                        000000000000000000
F0010000010098900004000090067091400023658300000000000000000201704220002001COMERCIALIZADORA ESCOBAR ORTIZ                    C000000000000000000000000000000000100010010000000000000000000000F0010000010098900420170422000101 00000000000000000000000000000000000000000000000000000000000000000000000000000000000000000000000000000000000000000N 00000000000NCONT   00    00000000000          00000000000000000000000000000000000000000000 000000000000000A000000000000000000000000000000000000000000000 000000000000000000000000000000000000000     00000000                                                                                                                        000000000000000000
F0010000010098900005000090067091400013552100000000000000000201704220002001COMERCIALIZADORA ESCOBAR ORTIZ                    D000000000000000000000000000000000100010010000000000000000000000F0010000010098900520170422000101 00000000000000000000000000000000000000000000000000000000000000000000000000000000000000000000000000000000000000000N 00000000000NCONT   00    00000000000          00000000000000000000000000000000000000000000 000000000000000A000000000000000000000000000000000000000000000 000000000000000000000000000000000000000     00000000                                                                                                                        000000000000000000
F0010000010099000001000090067091400011050500000000000000000201704220002001COMERCIALIZADORA ESCOBAR ORTIZ                    D000000001300000000000000000000000100010010000000000000000000000F0010000010099000120170422000101 00000000000000000000000000000000000000000000000000000000000000000000000000000000000000000000000000000000000000000N 00000000000NCONT   00    00000000000          00000000000000000000000000000000000000000000 000000000000000A000000000000000000000000000000000000000000000 000000000000000000000000000000000000000     00000000                                                                                                                        000000000000000000
F0010000010099000002000090067091400041450500000000000000000201704220002001COMERCIALIZADORA ESCOBAR ORTIZ                    C000000001000000000000000000000000100010010000000000000000000000F0010000010099000220170422000101 00000000000000000000000000000000000000000000000000000000000000000000000000000000000000000000000000000000000000000N 00000000000NCONT   00    00000000000          00000000000000000000000000000000000000000000 000000000000000A000000000000000000000000000000000000000000000 000000000000000000000000000000000000000     00000000                                                                                                                        000000000000000000
F0010000010099000003000090067091400042505000000000000000000201704220002001COMERCIALIZADORA ESCOBAR ORTIZ                    C000000000300000000000000000000000100010010000000000000000000000F0010000010099000320170422000101 00000000000000000000000000000000000000000000000000000000000000000000000000000000000000000000000000000000000000000N 00000000000NCONT   00    00000000000          00000000000000000000000000000000000000000000 000000000000000A000000000000000000000000000000000000000000000 000000000000000000000000000000000000000     00000000                                                                                                                        000000000000000000
F0010000010099000004000090067091400023658300000000000000000201704220002001COMERCIALIZADORA ESCOBAR ORTIZ                    C000000000000000000000000000000000100010010000000000000000000000F0010000010099000420170422000101 00000000000000000000000000000000000000000000000000000000000000000000000000000000000000000000000000000000000000000N 00000000000NCONT   00    00000000000          00000000000000000000000000000000000000000000 000000000000000A000000000000000000000000000000000000000000000 000000000000000000000000000000000000000     00000000                                                                                                                        000000000000000000
F0010000010099000005000090067091400013552100000000000000000201704220002001COMERCIALIZADORA ESCOBAR ORTIZ                    D000000000000000000000000000000000100010010000000000000000000000F0010000010099000520170422000101 00000000000000000000000000000000000000000000000000000000000000000000000000000000000000000000000000000000000000000N 00000000000NCONT   00    00000000000          00000000000000000000000000000000000000000000 000000000000000A000000000000000000000000000000000000000000000 000000000000000000000000000000000000000     00000000                                                                                                                        000000000000000000
F0010000010099100001000090067091400011050500000000000000000201704220002001COMERCIALIZADORA ESCOBAR ORTIZ                    D000000003000000000000000000000000100010010000000000000000000000F0010000010099100120170422000101 00000000000000000000000000000000000000000000000000000000000000000000000000000000000000000000000000000000000000000N 00000000000NCONT   00    00000000000          00000000000000000000000000000000000000000000 000000000000000A000000000000000000000000000000000000000000000 000000000000000000000000000000000000000     00000000                                                                                                                        000000000000000000
F0010000010099100002000090067091400041450500000000000000000201704220002001COMERCIALIZADORA ESCOBAR ORTIZ                    C000000002000000000000000000000000100010010000000000000000000000F0010000010099100220170422000101 00000000000000000000000000000000000000000000000000000000000000000000000000000000000000000000000000000000000000000N 00000000000NCONT   00    00000000000          00000000000000000000000000000000000000000000 000000000000000A000000000000000000000000000000000000000000000 000000000000000000000000000000000000000     00000000                                                                                                                        000000000000000000
F0010000010099100003000090067091400042505000000000000000000201704220002001COMERCIALIZADORA ESCOBAR ORTIZ                    C000000001000000000000000000000000100010010000000000000000000000F0010000010099100320170422000101 00000000000000000000000000000000000000000000000000000000000000000000000000000000000000000000000000000000000000000N 00000000000NCONT   00    00000000000          00000000000000000000000000000000000000000000 000000000000000A000000000000000000000000000000000000000000000 000000000000000000000000000000000000000     00000000                                                                                                                        000000000000000000
F0010000010099100004000090067091400023658300000000000000000201704220002001COMERCIALIZADORA ESCOBAR ORTIZ                    C000000000000000000000000000000000100010010000000000000000000000F0010000010099100420170422000101 00000000000000000000000000000000000000000000000000000000000000000000000000000000000000000000000000000000000000000N 00000000000NCONT   00    00000000000          00000000000000000000000000000000000000000000 000000000000000A000000000000000000000000000000000000000000000 000000000000000000000000000000000000000     00000000                                                                                                                        000000000000000000
F0010000010099100005000090067091400013552100000000000000000201704220002001COMERCIALIZADORA ESCOBAR ORTIZ                    D000000000000000000000000000000000100010010000000000000000000000F0010000010099100520170422000101 00000000000000000000000000000000000000000000000000000000000000000000000000000000000000000000000000000000000000000N 00000000000NCONT   00    00000000000          00000000000000000000000000000000000000000000 000000000000000A000000000000000000000000000000000000000000000 000000000000000000000000000000000000000     00000000                                                                                                                        000000000000000000
F0010000010099200001000090067091400011050500000000000000000201704220002001COMERCIALIZADORA ESCOBAR ORTIZ                    D000000001600000000000000000000000100010010000000000000000000000F0010000010099200120170422000101 00000000000000000000000000000000000000000000000000000000000000000000000000000000000000000000000000000000000000000N 00000000000NCONT   00    00000000000          00000000000000000000000000000000000000000000 000000000000000A000000000000000000000000000000000000000000000 000000000000000000000000000000000000000     00000000                                                                                                                        000000000000000000
F0010000010099200002000090067091400041450500000000000000000201704220002001COMERCIALIZADORA ESCOBAR ORTIZ                    C000000001000000000000000000000000100010010000000000000000000000F0010000010099200220170422000101 00000000000000000000000000000000000000000000000000000000000000000000000000000000000000000000000000000000000000000N 00000000000NCONT   00    00000000000          00000000000000000000000000000000000000000000 000000000000000A000000000000000000000000000000000000000000000 000000000000000000000000000000000000000     00000000                                                                                                                        000000000000000000
F0010000010099200003000090067091400042505000000000000000000201704220002001COMERCIALIZADORA ESCOBAR ORTIZ                    C000000000600000000000000000000000100010010000000000000000000000F0010000010099200320170422000101 00000000000000000000000000000000000000000000000000000000000000000000000000000000000000000000000000000000000000000N 00000000000NCONT   00    00000000000          00000000000000000000000000000000000000000000 000000000000000A000000000000000000000000000000000000000000000 000000000000000000000000000000000000000     00000000                                                                                                                        000000000000000000
F0010000010099200004000090067091400023658300000000000000000201704220002001COMERCIALIZADORA ESCOBAR ORTIZ                    C000000000000000000000000000000000100010010000000000000000000000F0010000010099200420170422000101 00000000000000000000000000000000000000000000000000000000000000000000000000000000000000000000000000000000000000000N 00000000000NCONT   00    00000000000          00000000000000000000000000000000000000000000 000000000000000A000000000000000000000000000000000000000000000 000000000000000000000000000000000000000     00000000                                                                                                                        000000000000000000
F0010000010099200005000090067091400013552100000000000000000201704220002001COMERCIALIZADORA ESCOBAR ORTIZ                    D000000000000000000000000000000000100010010000000000000000000000F0010000010099200520170422000101 00000000000000000000000000000000000000000000000000000000000000000000000000000000000000000000000000000000000000000N 00000000000NCONT   00    00000000000          00000000000000000000000000000000000000000000 000000000000000A000000000000000000000000000000000000000000000 000000000000000000000000000000000000000     00000000                                                                                                                        000000000000000000
F0010000010099300001000090067091400011050500000000000000000201704220002001COMERCIALIZADORA ESCOBAR ORTIZ                    D000000013100000000000000000000000100010010000000000000000000000F0010000010099300120170422000101 00000000000000000000000000000000000000000000000000000000000000000000000000000000000000000000000000000000000000000N 00000000000NCONT   00    00000000000          00000000000000000000000000000000000000000000 000000000000000A000000000000000000000000000000000000000000000 000000000000000000000000000000000000000     00000000                                                                                                                        000000000000000000
F0010000010099300002000090067091400041450500000000000000000201704220002001COMERCIALIZADORA ESCOBAR ORTIZ                    C000000009100000000000000000000000100010010000000000000000000000F0010000010099300220170422000101 00000000000000000000000000000000000000000000000000000000000000000000000000000000000000000000000000000000000000000N 00000000000NCONT   00    00000000000          00000000000000000000000000000000000000000000 000000000000000A000000000000000000000000000000000000000000000 000000000000000000000000000000000000000     00000000                                                                                                                        000000000000000000
F0010000010099300003000090067091400042505000000000000000000201704220002001COMERCIALIZADORA ESCOBAR ORTIZ                    C000000004000000000000000000000000100010010000000000000000000000F0010000010099300320170422000101 00000000000000000000000000000000000000000000000000000000000000000000000000000000000000000000000000000000000000000N 00000000000NCONT   00    00000000000          00000000000000000000000000000000000000000000 000000000000000A000000000000000000000000000000000000000000000 000000000000000000000000000000000000000     00000000                                                                                                                        000000000000000000
F0010000010099300004000090067091400023658300000000000000000201704220002001COMERCIALIZADORA ESCOBAR ORTIZ                    C000000000000000000000000000000000100010010000000000000000000000F0010000010099300420170422000101 00000000000000000000000000000000000000000000000000000000000000000000000000000000000000000000000000000000000000000N 00000000000NCONT   00    00000000000          00000000000000000000000000000000000000000000 000000000000000A000000000000000000000000000000000000000000000 000000000000000000000000000000000000000     00000000                                                                                                                        000000000000000000
F0010000010099300005000090067091400013552100000000000000000201704220002001COMERCIALIZADORA ESCOBAR ORTIZ                    D000000000000000000000000000000000100010010000000000000000000000F0010000010099300520170422000101 00000000000000000000000000000000000000000000000000000000000000000000000000000000000000000000000000000000000000000N 00000000000NCONT   00    00000000000          00000000000000000000000000000000000000000000 000000000000000A000000000000000000000000000000000000000000000 000000000000000000000000000000000000000     00000000                                                                                                                        000000000000000000
F0010000010099400001000090067091400011050500000000000000000201704220002001COMERCIALIZADORA ESCOBAR ORTIZ                    D000000001945000000000000000000000100010010000000000000000000000F0010000010099400120170422000101 00000000000000000000000000000000000000000000000000000000000000000000000000000000000000000000000000000000000000000N 00000000000NCONT   00    00000000000          00000000000000000000000000000000000000000000 000000000000000A000000000000000000000000000000000000000000000 000000000000000000000000000000000000000     00000000                                                                                                                        000000000000000000
F0010000010099400002000090067091400041450500000000000000000201704220002001COMERCIALIZADORA ESCOBAR ORTIZ                    C000000001300000000000000000000000100010010000000000000000000000F0010000010099400220170422000101 00000000000000000000000000000000000000000000000000000000000000000000000000000000000000000000000000000000000000000N 00000000000NCONT   00    00000000000          00000000000000000000000000000000000000000000 000000000000000A000000000000000000000000000000000000000000000 000000000000000000000000000000000000000     00000000                                                                                                                        000000000000000000
