F0010000010618300001000007912520500011050500000000000000000201711080002001FIDEL VASQUEZ (TRANSP.AMG)-BTA                    D000000021000000000000000000000000100010010000000000000000000000F0010000010618300120171108000101 00000000000000000000000000000000000000000000000000000000000000000000000000000000000000000000000000000000000000000N 00000000000NCONT   00    00000000000          00000000000000000000000000000000000000000000 000000000000000A000000000000000000000000000000000000000000000 000000000000000000000000000000000000000     00000000                                                                                                                        000000000000000000
F0010000010618300002000007912520500041450500000000000000000201711080002001FIDEL VASQUEZ (TRANSP.AMG)-BTA                    C000000020900000000000000000000000100010010000000000000000000000F0010000010618300220171108000101 00000000000000000000000000000000000000000000000000000000000000000000000000000000000000000000000000000000000000000N 00000000000NCONT   00    00000000000          00000000000000000000000000000000000000000000 000000000000000A000000000000000000000000000000000000000000000 000000000000000000000000000000000000000     00000000                                                                                                                        000000000000000000
F0010000010618300003000007912520500042505000000000000000000201711080002001FIDEL VASQUEZ (TRANSP.AMG)-BTA                    C000000000100000000000000000000000100010010000000000000000000000F0010000010618300320171108000101 00000000000000000000000000000000000000000000000000000000000000000000000000000000000000000000000000000000000000000N 00000000000NCONT   00    00000000000          00000000000000000000000000000000000000000000 000000000000000A000000000000000000000000000000000000000000000 000000000000000000000000000000000000000     00000000                                                                                                                        000000000000000000
F0010000010618300004000007912520500023658300000000000000000201711080002001FIDEL VASQUEZ (TRANSP.AMG)-BTA                    C000000000000000000000000000000000100010010000000000000000000000F0010000010618300420171108000101 00000000000000000000000000000000000000000000000000000000000000000000000000000000000000000000000000000000000000000N 00000000000NCONT   00    00000000000          00000000000000000000000000000000000000000000 000000000000000A000000000000000000000000000000000000000000000 000000000000000000000000000000000000000     00000000                                                                                                                        000000000000000000
F0010000010618300005000007912520500013552100000000000000000201711080002001FIDEL VASQUEZ (TRANSP.AMG)-BTA                    D000000000000000000000000000000000100010010000000000000000000000F0010000010618300520171108000101 00000000000000000000000000000000000000000000000000000000000000000000000000000000000000000000000000000000000000000N 00000000000NCONT   00    00000000000          00000000000000000000000000000000000000000000 000000000000000A000000000000000000000000000000000000000000000 000000000000000000000000000000000000000     00000000                                                                                                                        000000000000000000
F0010000010618400001000090063988900011050500000000000000000201711080002001ALUMINIOS Y VENTANAS DE LA COSTA S.A.S            D000000004000000000000000000000000100010010000000000000000000000F0010000010618400120171108000101 00000000000000000000000000000000000000000000000000000000000000000000000000000000000000000000000000000000000000000N 00000000000NCONT   00    00000000000          00000000000000000000000000000000000000000000 000000000000000A000000000000000000000000000000000000000000000 000000000000000000000000000000000000000     00000000                                                                                                                        000000000000000000
F0010000010618400002000090063988900041450500000000000000000201711080002001ALUMINIOS Y VENTANAS DE LA COSTA S.A.S            C000000003800000000000000000000000100010010000000000000000000000F0010000010618400220171108000101 00000000000000000000000000000000000000000000000000000000000000000000000000000000000000000000000000000000000000000N 00000000000NCONT   00    00000000000          00000000000000000000000000000000000000000000 000000000000000A000000000000000000000000000000000000000000000 000000000000000000000000000000000000000     00000000                                                                                                                        000000000000000000
F0010000010618400003000090063988900042505000000000000000000201711080002001ALUMINIOS Y VENTANAS DE LA COSTA S.A.S            C000000000200000000000000000000000100010010000000000000000000000F0010000010618400320171108000101 00000000000000000000000000000000000000000000000000000000000000000000000000000000000000000000000000000000000000000N 00000000000NCONT   00    00000000000          00000000000000000000000000000000000000000000 000000000000000A000000000000000000000000000000000000000000000 000000000000000000000000000000000000000     00000000                                                                                                                        000000000000000000
F0010000010618400004000090063988900023658300000000000000000201711080002001ALUMINIOS Y VENTANAS DE LA COSTA S.A.S            C000000000000000000000000000000000100010010000000000000000000000F0010000010618400420171108000101 00000000000000000000000000000000000000000000000000000000000000000000000000000000000000000000000000000000000000000N 00000000000NCONT   00    00000000000          00000000000000000000000000000000000000000000 000000000000000A000000000000000000000000000000000000000000000 000000000000000000000000000000000000000     00000000                                                                                                                        000000000000000000
F0010000010618400005000090063988900013552100000000000000000201711080002001ALUMINIOS Y VENTANAS DE LA COSTA S.A.S            D000000000000000000000000000000000100010010000000000000000000000F0010000010618400520171108000101 00000000000000000000000000000000000000000000000000000000000000000000000000000000000000000000000000000000000000000N 00000000000NCONT   00    00000000000          00000000000000000000000000000000000000000000 000000000000000A000000000000000000000000000000000000000000000 000000000000000000000000000000000000000     00000000                                                                                                                        000000000000000000
F0010000010618500001000090080946500011050500000000000000000201711080002001INVERSIONES AFAP SAS                              D000000005000000000000000000000000100010010000000000000000000000F0010000010618500120171108000101 00000000000000000000000000000000000000000000000000000000000000000000000000000000000000000000000000000000000000000N 00000000000NCONT   00    00000000000          00000000000000000000000000000000000000000000 000000000000000A000000000000000000000000000000000000000000000 000000000000000000000000000000000000000     00000000                                                                                                                        000000000000000000
F0010000010618500002000090080946500041450500000000000000000201711080002001INVERSIONES AFAP SAS                              C000000003200000000000000000000000100010010000000000000000000000F0010000010618500220171108000101 00000000000000000000000000000000000000000000000000000000000000000000000000000000000000000000000000000000000000000N 00000000000NCONT   00    00000000000          00000000000000000000000000000000000000000000 000000000000000A000000000000000000000000000000000000000000000 000000000000000000000000000000000000000     00000000                                                                                                                        000000000000000000
F0010000010618500003000090080946500042505000000000000000000201711080002001INVERSIONES AFAP SAS                              C000000001800000000000000000000000100010010000000000000000000000F0010000010618500320171108000101 00000000000000000000000000000000000000000000000000000000000000000000000000000000000000000000000000000000000000000N 00000000000NCONT   00    00000000000          00000000000000000000000000000000000000000000 000000000000000A000000000000000000000000000000000000000000000 000000000000000000000000000000000000000     00000000                                                                                                                        000000000000000000
F0010000010618500004000090080946500023658300000000000000000201711080002001INVERSIONES AFAP SAS                              C000000000000000000000000000000000100010010000000000000000000000F0010000010618500420171108000101 00000000000000000000000000000000000000000000000000000000000000000000000000000000000000000000000000000000000000000N 00000000000NCONT   00    00000000000          00000000000000000000000000000000000000000000 000000000000000A000000000000000000000000000000000000000000000 000000000000000000000000000000000000000     00000000                                                                                                                        000000000000000000
F0010000010618500005000090080946500013552100000000000000000201711080002001INVERSIONES AFAP SAS                              D000000000000000000000000000000000100010010000000000000000000000F0010000010618500520171108000101 00000000000000000000000000000000000000000000000000000000000000000000000000000000000000000000000000000000000000000N 00000000000NCONT   00    00000000000          00000000000000000000000000000000000000000000 000000000000000A000000000000000000000000000000000000000000000 000000000000000000000000000000000000000     00000000                                                                                                                        000000000000000000
F0010000010618600001000090110298900011050500000000000000000201711080002001CONSTRUMALLAS SAS                                 D000000001500000000000000000000000100010010000000000000000000000F0010000010618600120171108000101 00000000000000000000000000000000000000000000000000000000000000000000000000000000000000000000000000000000000000000N 00000000000NCONT   00    00000000000          00000000000000000000000000000000000000000000 000000000000000A000000000000000000000000000000000000000000000 000000000000000000000000000000000000000     00000000                                                                                                                        000000000000000000
F0010000010618600002000090110298900041450500000000000000000201711080002001CONSTRUMALLAS SAS                                 C000000001300000000000000000000000100010010000000000000000000000F0010000010618600220171108000101 00000000000000000000000000000000000000000000000000000000000000000000000000000000000000000000000000000000000000000N 00000000000NCONT   00    00000000000          00000000000000000000000000000000000000000000 000000000000000A000000000000000000000000000000000000000000000 000000000000000000000000000000000000000     00000000                                                                                                                        000000000000000000
F0010000010618600003000090110298900042505000000000000000000201711080002001CONSTRUMALLAS SAS                                 C000000000200000000000000000000000100010010000000000000000000000F0010000010618600320171108000101 00000000000000000000000000000000000000000000000000000000000000000000000000000000000000000000000000000000000000000N 00000000000NCONT   00    00000000000          00000000000000000000000000000000000000000000 000000000000000A000000000000000000000000000000000000000000000 000000000000000000000000000000000000000     00000000                                                                                                                        000000000000000000
F0010000010618600004000090110298900023658300000000000000000201711080002001CONSTRUMALLAS SAS                                 C000000000000000000000000000000000100010010000000000000000000000F0010000010618600420171108000101 00000000000000000000000000000000000000000000000000000000000000000000000000000000000000000000000000000000000000000N 00000000000NCONT   00    00000000000          00000000000000000000000000000000000000000000 000000000000000A000000000000000000000000000000000000000000000 000000000000000000000000000000000000000     00000000                                                                                                                        000000000000000000
F0010000010618600005000090110298900013552100000000000000000201711080002001CONSTRUMALLAS SAS                                 D000000000000000000000000000000000100010010000000000000000000000F0010000010618600520171108000101 00000000000000000000000000000000000000000000000000000000000000000000000000000000000000000000000000000000000000000N 00000000000NCONT   00    00000000000          00000000000000000000000000000000000000000000 000000000000000A000000000000000000000000000000000000000000000 000000000000000000000000000000000000000     00000000                                                                                                                        000000000000000000
F0010000010618700001000090024483300011050500000000000000000201711080002001COSMETICOS A-GUZ SAS                              D000000007500000000000000000000000100010010000000000000000000000F0010000010618700120171108000101 00000000000000000000000000000000000000000000000000000000000000000000000000000000000000000000000000000000000000000N 00000000000NCONT   00    00000000000          00000000000000000000000000000000000000000000 000000000000000A000000000000000000000000000000000000000000000 000000000000000000000000000000000000000     00000000                                                                                                                        000000000000000000
F0010000010618700002000090024483300041450500000000000000000201711080002001COSMETICOS A-GUZ SAS                              C000000007100000000000000000000000100010010000000000000000000000F0010000010618700220171108000101 00000000000000000000000000000000000000000000000000000000000000000000000000000000000000000000000000000000000000000N 00000000000NCONT   00    00000000000          00000000000000000000000000000000000000000000 000000000000000A000000000000000000000000000000000000000000000 000000000000000000000000000000000000000     00000000                                                                                                                        000000000000000000
F0010000010618700003000090024483300042505000000000000000000201711080002001COSMETICOS A-GUZ SAS                              C000000000400000000000000000000000100010010000000000000000000000F0010000010618700320171108000101 00000000000000000000000000000000000000000000000000000000000000000000000000000000000000000000000000000000000000000N 00000000000NCONT   00    00000000000          00000000000000000000000000000000000000000000 000000000000000A000000000000000000000000000000000000000000000 000000000000000000000000000000000000000     00000000                                                                                                                        000000000000000000
F0010000010618700004000090024483300023658300000000000000000201711080002001COSMETICOS A-GUZ SAS                              C000000000000000000000000000000000100010010000000000000000000000F0010000010618700420171108000101 00000000000000000000000000000000000000000000000000000000000000000000000000000000000000000000000000000000000000000N 00000000000NCONT   00    00000000000          00000000000000000000000000000000000000000000 000000000000000A000000000000000000000000000000000000000000000 000000000000000000000000000000000000000     00000000                                                                                                                        000000000000000000
F0010000010618700005000090024483300013552100000000000000000201711080002001COSMETICOS A-GUZ SAS                              D000000000000000000000000000000000100010010000000000000000000000F0010000010618700520171108000101 00000000000000000000000000000000000000000000000000000000000000000000000000000000000000000000000000000000000000000N 00000000000NCONT   00    00000000000          00000000000000000000000000000000000000000000 000000000000000A000000000000000000000000000000000000000000000 000000000000000000000000000000000000000     00000000                                                                                                                        000000000000000000
F0010000010618800001000080201411900011050500000000000000000201711080002001PLASTISERVICIOS S DE H                            D000000004300000000000000000000000100010010000000000000000000000F0010000010618800120171108000101 00000000000000000000000000000000000000000000000000000000000000000000000000000000000000000000000000000000000000000N 00000000000NCONT   00    00000000000          00000000000000000000000000000000000000000000 000000000000000A000000000000000000000000000000000000000000000 000000000000000000000000000000000000000     00000000                                                                                                                        000000000000000000
F0010000010618800002000080201411900041450500000000000000000201711080002001PLASTISERVICIOS S DE H                            C000000003300000000000000000000000100010010000000000000000000000F0010000010618800220171108000101 00000000000000000000000000000000000000000000000000000000000000000000000000000000000000000000000000000000000000000N 00000000000NCONT   00    00000000000          00000000000000000000000000000000000000000000 000000000000000A000000000000000000000000000000000000000000000 000000000000000000000000000000000000000     00000000                                                                                                                        000000000000000000
F0010000010618800003000080201411900042505000000000000000000201711080002001PLASTISERVICIOS S DE H                            C000000001000000000000000000000000100010010000000000000000000000F0010000010618800320171108000101 00000000000000000000000000000000000000000000000000000000000000000000000000000000000000000000000000000000000000000N 00000000000NCONT   00    00000000000          00000000000000000000000000000000000000000000 000000000000000A000000000000000000000000000000000000000000000 000000000000000000000000000000000000000     00000000                                                                                                                        000000000000000000
F0010000010618800004000080201411900023658300000000000000000201711080002001PLASTISERVICIOS S DE H                            C000000000000000000000000000000000100010010000000000000000000000F0010000010618800420171108000101 00000000000000000000000000000000000000000000000000000000000000000000000000000000000000000000000000000000000000000N 00000000000NCONT   00    00000000000          00000000000000000000000000000000000000000000 000000000000000A000000000000000000000000000000000000000000000 000000000000000000000000000000000000000     00000000                                                                                                                        000000000000000000
F0010000010618800005000080201411900013552100000000000000000201711080002001PLASTISERVICIOS S DE H                            D000000000000000000000000000000000100010010000000000000000000000F0010000010618800520171108000101 00000000000000000000000000000000000000000000000000000000000000000000000000000000000000000000000000000000000000000N 00000000000NCONT   00    00000000000          00000000000000000000000000000000000000000000 000000000000000A000000000000000000000000000000000000000000000 000000000000000000000000000000000000000     00000000                                                                                                                        000000000000000000
F0010000010618900001000080201411900011050500000000000000000201711080002001PLASTISERVICIOS S DE H                            D000000004700000000000000000000000100010010000000000000000000000F0010000010618900120171108000101 00000000000000000000000000000000000000000000000000000000000000000000000000000000000000000000000000000000000000000N 00000000000NCONT   00    00000000000          00000000000000000000000000000000000000000000 000000000000000A000000000000000000000000000000000000000000000 000000000000000000000000000000000000000     00000000                                                                                                                        000000000000000000
F0010000010618900002000080201411900041450500000000000000000201711080002001PLASTISERVICIOS S DE H                            C000000003300000000000000000000000100010010000000000000000000000F0010000010618900220171108000101 00000000000000000000000000000000000000000000000000000000000000000000000000000000000000000000000000000000000000000N 00000000000NCONT   00    00000000000          00000000000000000000000000000000000000000000 000000000000000A000000000000000000000000000000000000000000000 000000000000000000000000000000000000000     00000000                                                                                                                        000000000000000000
F0010000010618900003000080201411900042505000000000000000000201711080002001PLASTISERVICIOS S DE H                            C000000001400000000000000000000000100010010000000000000000000000F0010000010618900320171108000101 00000000000000000000000000000000000000000000000000000000000000000000000000000000000000000000000000000000000000000N 00000000000NCONT   00    00000000000          00000000000000000000000000000000000000000000 000000000000000A000000000000000000000000000000000000000000000 000000000000000000000000000000000000000     00000000                                                                                                                        000000000000000000
F0010000010618900004000080201411900023658300000000000000000201711080002001PLASTISERVICIOS S DE H                            C000000000000000000000000000000000100010010000000000000000000000F0010000010618900420171108000101 00000000000000000000000000000000000000000000000000000000000000000000000000000000000000000000000000000000000000000N 00000000000NCONT   00    00000000000          00000000000000000000000000000000000000000000 000000000000000A000000000000000000000000000000000000000000000 000000000000000000000000000000000000000     00000000                                                                                                                        000000000000000000
F0010000010618900005000080201411900013552100000000000000000201711080002001PLASTISERVICIOS S DE H                            D000000000000000000000000000000000100010010000000000000000000000F0010000010618900520171108000101 00000000000000000000000000000000000000000000000000000000000000000000000000000000000000000000000000000000000000000N 00000000000NCONT   00    00000000000          00000000000000000000000000000000000000000000 000000000000000A000000000000000000000000000000000000000000000 000000000000000000000000000000000000000     00000000                                                                                                                        000000000000000000
F0010000010619000001000007213495000011050500000000000000000201711080002001LUIS ALFONSO REBOLLEDO BARRIOS                    D000000001200000000000000000000000100010010000000000000000000000F0010000010619000120171108000101 00000000000000000000000000000000000000000000000000000000000000000000000000000000000000000000000000000000000000000N 00000000000NCONT   00    00000000000          00000000000000000000000000000000000000000000 000000000000000A000000000000000000000000000000000000000000000 000000000000000000000000000000000000000     00000000                                                                                                                        000000000000000000
F0010000010619000002000007213495000041450500000000000000000201711080002001LUIS ALFONSO REBOLLEDO BARRIOS                    C000000001100000000000000000000000100010010000000000000000000000F0010000010619000220171108000101 00000000000000000000000000000000000000000000000000000000000000000000000000000000000000000000000000000000000000000N 00000000000NCONT   00    00000000000          00000000000000000000000000000000000000000000 000000000000000A000000000000000000000000000000000000000000000 000000000000000000000000000000000000000     00000000                                                                                                                        000000000000000000
F0010000010619000003000007213495000042505000000000000000000201711080002001LUIS ALFONSO REBOLLEDO BARRIOS                    C000000000100000000000000000000000100010010000000000000000000000F0010000010619000320171108000101 00000000000000000000000000000000000000000000000000000000000000000000000000000000000000000000000000000000000000000N 00000000000NCONT   00    00000000000          00000000000000000000000000000000000000000000 000000000000000A000000000000000000000000000000000000000000000 000000000000000000000000000000000000000     00000000                                                                                                                        000000000000000000
F0010000010619000004000007213495000023658300000000000000000201711080002001LUIS ALFONSO REBOLLEDO BARRIOS                    C000000000000000000000000000000000100010010000000000000000000000F0010000010619000420171108000101 00000000000000000000000000000000000000000000000000000000000000000000000000000000000000000000000000000000000000000N 00000000000NCONT   00    00000000000          00000000000000000000000000000000000000000000 000000000000000A000000000000000000000000000000000000000000000 000000000000000000000000000000000000000     00000000                                                                                                                        000000000000000000
F0010000010619000005000007213495000013552100000000000000000201711080002001LUIS ALFONSO REBOLLEDO BARRIOS                    D000000000000000000000000000000000100010010000000000000000000000F0010000010619000520171108000101 00000000000000000000000000000000000000000000000000000000000000000000000000000000000000000000000000000000000000000N 00000000000NCONT   00    00000000000          00000000000000000000000000000000000000000000 000000000000000A000000000000000000000000000000000000000000000 000000000000000000000000000000000000000     00000000                                                                                                                        000000000000000000
F0010000010619100001000001022529300011050500000000000000000201711080002001ALBERTO ALVAREZ ISAZA                             D000000000880000000000000000000000100010010000000000000000000000F0010000010619100120171108000101 00000000000000000000000000000000000000000000000000000000000000000000000000000000000000000000000000000000000000000N 00000000000NCONT   00    00000000000          00000000000000000000000000000000000000000000 000000000000000A000000000000000000000000000000000000000000000 000000000000000000000000000000000000000     00000000                                                                                                                        000000000000000000
F0010000010619100002000001022529300041450500000000000000000201711080002001ALBERTO ALVAREZ ISAZA                             C000000000880000000000000000000000100010010000000000000000000000F0010000010619100220171108000101 00000000000000000000000000000000000000000000000000000000000000000000000000000000000000000000000000000000000000000N 00000000000NCONT   00    00000000000          00000000000000000000000000000000000000000000 000000000000000A000000000000000000000000000000000000000000000 000000000000000000000000000000000000000     00000000                                                                                                                        000000000000000000
F0010000010619100003000001022529300042505000000000000000000201711080002001ALBERTO ALVAREZ ISAZA                             C000000000000000000000000000000000100010010000000000000000000000F0010000010619100320171108000101 00000000000000000000000000000000000000000000000000000000000000000000000000000000000000000000000000000000000000000N 00000000000NCONT   00    00000000000          00000000000000000000000000000000000000000000 000000000000000A000000000000000000000000000000000000000000000 000000000000000000000000000000000000000     00000000                                                                                                                        000000000000000000
F0010000010619100004000001022529300023658300000000000000000201711080002001ALBERTO ALVAREZ ISAZA                             C000000000000000000000000000000000100010010000000000000000000000F0010000010619100420171108000101 00000000000000000000000000000000000000000000000000000000000000000000000000000000000000000000000000000000000000000N 00000000000NCONT   00    00000000000          00000000000000000000000000000000000000000000 000000000000000A000000000000000000000000000000000000000000000 000000000000000000000000000000000000000     00000000                                                                                                                        000000000000000000
F0010000010619100005000001022529300013552100000000000000000201711080002001ALBERTO ALVAREZ ISAZA                             D000000000000000000000000000000000100010010000000000000000000000F0010000010619100520171108000101 00000000000000000000000000000000000000000000000000000000000000000000000000000000000000000000000000000000000000000N 00000000000NCONT   00    00000000000          00000000000000000000000000000000000000000000 000000000000000A000000000000000000000000000000000000000000000 000000000000000000000000000000000000000     00000000                                                                                                                        000000000000000000
F0010000010619200001000090034602400011050500000000000000000201711080002001PRODUCTOS NACIONALES PARAFINICOS LA CUSTODIA S.A.SD000000003250000000000000000000000100010010000000000000000000000F0010000010619200120171108000101 00000000000000000000000000000000000000000000000000000000000000000000000000000000000000000000000000000000000000000N 00000000000NCONT   00    00000000000          00000000000000000000000000000000000000000000 000000000000000A000000000000000000000000000000000000000000000 000000000000000000000000000000000000000     00000000                                                                                                                        000000000000000000
F0010000010619200002000090034602400041450500000000000000000201711080002001PRODUCTOS NACIONALES PARAFINICOS LA CUSTODIA S.A.SC000000003150000000000000000000000100010010000000000000000000000F0010000010619200220171108000101 00000000000000000000000000000000000000000000000000000000000000000000000000000000000000000000000000000000000000000N 00000000000NCONT   00    00000000000          00000000000000000000000000000000000000000000 000000000000000A000000000000000000000000000000000000000000000 000000000000000000000000000000000000000     00000000                                                                                                                        000000000000000000
F0010000010619200003000090034602400042505000000000000000000201711080002001PRODUCTOS NACIONALES PARAFINICOS LA CUSTODIA S.A.SC000000000100000000000000000000000100010010000000000000000000000F0010000010619200320171108000101 00000000000000000000000000000000000000000000000000000000000000000000000000000000000000000000000000000000000000000N 00000000000NCONT   00    00000000000          00000000000000000000000000000000000000000000 000000000000000A000000000000000000000000000000000000000000000 000000000000000000000000000000000000000     00000000                                                                                                                        000000000000000000
F0010000010619200004000090034602400023658300000000000000000201711080002001PRODUCTOS NACIONALES PARAFINICOS LA CUSTODIA S.A.SC000000000000000000000000000000000100010010000000000000000000000F0010000010619200420171108000101 00000000000000000000000000000000000000000000000000000000000000000000000000000000000000000000000000000000000000000N 00000000000NCONT   00    00000000000          00000000000000000000000000000000000000000000 000000000000000A000000000000000000000000000000000000000000000 000000000000000000000000000000000000000     00000000                                                                                                                        000000000000000000
F0010000010619200005000090034602400013552100000000000000000201711080002001PRODUCTOS NACIONALES PARAFINICOS LA CUSTODIA S.A.SD000000000000000000000000000000000100010010000000000000000000000F0010000010619200520171108000101 00000000000000000000000000000000000000000000000000000000000000000000000000000000000000000000000000000000000000000N 00000000000NCONT   00    00000000000          00000000000000000000000000000000000000000000 000000000000000A000000000000000000000000000000000000000000000 000000000000000000000000000000000000000     00000000                                                                                                                        000000000000000000
F0010000010619300001000090034602400011050500000000000000000201711080002001PRODUCTOS NACIONALES PARAFINICOS LA CUSTODIA S.A.SD000000002200000000000000000000000100010010000000000000000000000F0010000010619300120171108000101 00000000000000000000000000000000000000000000000000000000000000000000000000000000000000000000000000000000000000000N 00000000000NCONT   00    00000000000          00000000000000000000000000000000000000000000 000000000000000A000000000000000000000000000000000000000000000 000000000000000000000000000000000000000     00000000                                                                                                                        000000000000000000
F0010000010619300002000090034602400041450500000000000000000201711080002001PRODUCTOS NACIONALES PARAFINICOS LA CUSTODIA S.A.SC000000002100000000000000000000000100010010000000000000000000000F0010000010619300220171108000101 00000000000000000000000000000000000000000000000000000000000000000000000000000000000000000000000000000000000000000N 00000000000NCONT   00    00000000000          00000000000000000000000000000000000000000000 000000000000000A000000000000000000000000000000000000000000000 000000000000000000000000000000000000000     00000000                                                                                                                        000000000000000000
F0010000010619300003000090034602400042505000000000000000000201711080002001PRODUCTOS NACIONALES PARAFINICOS LA CUSTODIA S.A.SC000000000100000000000000000000000100010010000000000000000000000F0010000010619300320171108000101 00000000000000000000000000000000000000000000000000000000000000000000000000000000000000000000000000000000000000000N 00000000000NCONT   00    00000000000          00000000000000000000000000000000000000000000 000000000000000A000000000000000000000000000000000000000000000 000000000000000000000000000000000000000     00000000                                                                                                                        000000000000000000
F0010000010619300004000090034602400023658300000000000000000201711080002001PRODUCTOS NACIONALES PARAFINICOS LA CUSTODIA S.A.SC000000000000000000000000000000000100010010000000000000000000000F0010000010619300420171108000101 00000000000000000000000000000000000000000000000000000000000000000000000000000000000000000000000000000000000000000N 00000000000NCONT   00    00000000000          00000000000000000000000000000000000000000000 000000000000000A000000000000000000000000000000000000000000000 000000000000000000000000000000000000000     00000000                                                                                                                        000000000000000000
F0010000010619300005000090034602400013552100000000000000000201711080002001PRODUCTOS NACIONALES PARAFINICOS LA CUSTODIA S.A.SD000000000000000000000000000000000100010010000000000000000000000F0010000010619300520171108000101 00000000000000000000000000000000000000000000000000000000000000000000000000000000000000000000000000000000000000000N 00000000000NCONT   00    00000000000          00000000000000000000000000000000000000000000 000000000000000A000000000000000000000000000000000000000000000 000000000000000000000000000000000000000     00000000                                                                                                                        000000000000000000
F0010000010619400001000090098897000011050500000000000000000201711080002001IMPORTACIONES Y DISTRIBUCIONES JE SAS             D000000001448000000000000000000000100010010000000000000000000000F0010000010619400120171108000101 00000000000000000000000000000000000000000000000000000000000000000000000000000000000000000000000000000000000000000N 00000000000NCONT   00    00000000000          00000000000000000000000000000000000000000000 000000000000000A000000000000000000000000000000000000000000000 000000000000000000000000000000000000000     00000000                                                                                                                        000000000000000000
F0010000010619400002000090098897000041450500000000000000000201711080002001IMPORTACIONES Y DISTRIBUCIONES JE SAS             C000000001248000000000000000000000100010010000000000000000000000F0010000010619400220171108000101 00000000000000000000000000000000000000000000000000000000000000000000000000000000000000000000000000000000000000000N 00000000000NCONT   00    00000000000          00000000000000000000000000000000000000000000 000000000000000A000000000000000000000000000000000000000000000 000000000000000000000000000000000000000     00000000                                                                                                                        000000000000000000
F0010000010619400003000090098897000042505000000000000000000201711080002001IMPORTACIONES Y DISTRIBUCIONES JE SAS             C000000000200000000000000000000000100010010000000000000000000000F0010000010619400320171108000101 00000000000000000000000000000000000000000000000000000000000000000000000000000000000000000000000000000000000000000N 00000000000NCONT   00    00000000000          00000000000000000000000000000000000000000000 000000000000000A000000000000000000000000000000000000000000000 000000000000000000000000000000000000000     00000000                                                                                                                        000000000000000000
F0010000010619400004000090098897000023658300000000000000000201711080002001IMPORTACIONES Y DISTRIBUCIONES JE SAS             C000000000000000000000000000000000100010010000000000000000000000F0010000010619400420171108000101 00000000000000000000000000000000000000000000000000000000000000000000000000000000000000000000000000000000000000000N 00000000000NCONT   00    00000000000          00000000000000000000000000000000000000000000 000000000000000A000000000000000000000000000000000000000000000 000000000000000000000000000000000000000     00000000                                                                                                                        000000000000000000
F0010000010619400005000090098897000013552100000000000000000201711080002001IMPORTACIONES Y DISTRIBUCIONES JE SAS             D000000000000000000000000000000000100010010000000000000000000000F0010000010619400520171108000101 00000000000000000000000000000000000000000000000000000000000000000000000000000000000000000000000000000000000000000N 00000000000NCONT   00    00000000000          00000000000000000000000000000000000000000000 000000000000000A000000000000000000000000000000000000000000000 000000000000000000000000000000000000000     00000000                                                                                                                        000000000000000000
F0010000010619500001000090034602400011050500000000000000000201711080002001PRODUCTOS NACIONALES PARAFINICOS LA CUSTODIA S.A.SD000000001150000000000000000000000100010010000000000000000000000F0010000010619500120171108000101 00000000000000000000000000000000000000000000000000000000000000000000000000000000000000000000000000000000000000000N 00000000000NCONT   00    00000000000          00000000000000000000000000000000000000000000 000000000000000A000000000000000000000000000000000000000000000 000000000000000000000000000000000000000     00000000                                                                                                                        000000000000000000
F0010000010619500002000090034602400041450500000000000000000201711080002001PRODUCTOS NACIONALES PARAFINICOS LA CUSTODIA S.A.SC000000001050000000000000000000000100010010000000000000000000000F0010000010619500220171108000101 00000000000000000000000000000000000000000000000000000000000000000000000000000000000000000000000000000000000000000N 00000000000NCONT   00    00000000000          00000000000000000000000000000000000000000000 000000000000000A000000000000000000000000000000000000000000000 000000000000000000000000000000000000000     00000000                                                                                                                        000000000000000000
F0010000010619500003000090034602400042505000000000000000000201711080002001PRODUCTOS NACIONALES PARAFINICOS LA CUSTODIA S.A.SC000000000100000000000000000000000100010010000000000000000000000F0010000010619500320171108000101 00000000000000000000000000000000000000000000000000000000000000000000000000000000000000000000000000000000000000000N 00000000000NCONT   00    00000000000          00000000000000000000000000000000000000000000 000000000000000A000000000000000000000000000000000000000000000 000000000000000000000000000000000000000     00000000                                                                                                                        000000000000000000
F0010000010619500004000090034602400023658300000000000000000201711080002001PRODUCTOS NACIONALES PARAFINICOS LA CUSTODIA S.A.SC000000000000000000000000000000000100010010000000000000000000000F0010000010619500420171108000101 00000000000000000000000000000000000000000000000000000000000000000000000000000000000000000000000000000000000000000N 00000000000NCONT   00    00000000000          00000000000000000000000000000000000000000000 000000000000000A000000000000000000000000000000000000000000000 000000000000000000000000000000000000000     00000000                                                                                                                        000000000000000000
F0010000010619500005000090034602400013552100000000000000000201711080002001PRODUCTOS NACIONALES PARAFINICOS LA CUSTODIA S.A.SD000000000000000000000000000000000100010010000000000000000000000F0010000010619500520171108000101 00000000000000000000000000000000000000000000000000000000000000000000000000000000000000000000000000000000000000000N 00000000000NCONT   00    00000000000          00000000000000000000000000000000000000000000 000000000000000A000000000000000000000000000000000000000000000 000000000000000000000000000000000000000     00000000                                                                                                                        000000000000000000
F0010000010619600001000090098897000011050500000000000000000201711080002001IMPORTACIONES Y DISTRIBUCIONES JE SAS             D000000001400000000000000000000000100010010000000000000000000000F0010000010619600120171108000101 00000000000000000000000000000000000000000000000000000000000000000000000000000000000000000000000000000000000000000N 00000000000NCONT   00    00000000000          00000000000000000000000000000000000000000000 000000000000000A000000000000000000000000000000000000000000000 000000000000000000000000000000000000000     00000000                                                                                                                        000000000000000000
F0010000010619600002000090098897000041450500000000000000000201711080002001IMPORTACIONES Y DISTRIBUCIONES JE SAS             C000000001300000000000000000000000100010010000000000000000000000F0010000010619600220171108000101 00000000000000000000000000000000000000000000000000000000000000000000000000000000000000000000000000000000000000000N 00000000000NCONT   00    00000000000          00000000000000000000000000000000000000000000 000000000000000A000000000000000000000000000000000000000000000 000000000000000000000000000000000000000     00000000                                                                                                                        000000000000000000
F0010000010619600003000090098897000042505000000000000000000201711080002001IMPORTACIONES Y DISTRIBUCIONES JE SAS             C000000000100000000000000000000000100010010000000000000000000000F0010000010619600320171108000101 00000000000000000000000000000000000000000000000000000000000000000000000000000000000000000000000000000000000000000N 00000000000NCONT   00    00000000000          00000000000000000000000000000000000000000000 000000000000000A000000000000000000000000000000000000000000000 000000000000000000000000000000000000000     00000000                                                                                                                        000000000000000000
F0010000010619600004000090098897000023658300000000000000000201711080002001IMPORTACIONES Y DISTRIBUCIONES JE SAS             C000000000000000000000000000000000100010010000000000000000000000F0010000010619600420171108000101 00000000000000000000000000000000000000000000000000000000000000000000000000000000000000000000000000000000000000000N 00000000000NCONT   00    00000000000          00000000000000000000000000000000000000000000 000000000000000A000000000000000000000000000000000000000000000 000000000000000000000000000000000000000     00000000                                                                                                                        000000000000000000
F0010000010619600005000090098897000013552100000000000000000201711080002001IMPORTACIONES Y DISTRIBUCIONES JE SAS             D000000000000000000000000000000000100010010000000000000000000000F0010000010619600520171108000101 00000000000000000000000000000000000000000000000000000000000000000000000000000000000000000000000000000000000000000N 00000000000NCONT   00    00000000000          00000000000000000000000000000000000000000000 000000000000000A000000000000000000000000000000000000000000000 000000000000000000000000000000000000000     00000000                                                                                                                        000000000000000000
F0010000010619700001000002245670100011050500000000000000000201711080002001YOLANDA  TOBON                                    D000000000642500000000000000000000100010010000000000000000000000F0010000010619700120171108000101 00000000000000000000000000000000000000000000000000000000000000000000000000000000000000000000000000000000000000000N 00000000000NCONT   00    00000000000          00000000000000000000000000000000000000000000 000000000000000A000000000000000000000000000000000000000000000 000000000000000000000000000000000000000     00000000                                                                                                                        000000000000000000
F0010000010619700002000002245670100041450500000000000000000201711080002001YOLANDA  TOBON                                    C000000000400000000000000000000000100010010000000000000000000000F0010000010619700220171108000101 00000000000000000000000000000000000000000000000000000000000000000000000000000000000000000000000000000000000000000N 00000000000NCONT   00    00000000000          00000000000000000000000000000000000000000000 000000000000000A000000000000000000000000000000000000000000000 000000000000000000000000000000000000000     00000000                                                                                                                        000000000000000000
F0010000010619700003000002245670100042505000000000000000000201711080002001YOLANDA  TOBON                                    C000000000242500000000000000000000100010010000000000000000000000F0010000010619700320171108000101 00000000000000000000000000000000000000000000000000000000000000000000000000000000000000000000000000000000000000000N 00000000000NCONT   00    00000000000          00000000000000000000000000000000000000000000 000000000000000A000000000000000000000000000000000000000000000 000000000000000000000000000000000000000     00000000                                                                                                                        000000000000000000
F0010000010619700004000002245670100023658300000000000000000201711080002001YOLANDA  TOBON                                    C000000000000000000000000000000000100010010000000000000000000000F0010000010619700420171108000101 00000000000000000000000000000000000000000000000000000000000000000000000000000000000000000000000000000000000000000N 00000000000NCONT   00    00000000000          00000000000000000000000000000000000000000000 000000000000000A000000000000000000000000000000000000000000000 000000000000000000000000000000000000000     00000000                                                                                                                        000000000000000000
F0010000010619700005000002245670100013552100000000000000000201711080002001YOLANDA  TOBON                                    D000000000000000000000000000000000100010010000000000000000000000F0010000010619700520171108000101 00000000000000000000000000000000000000000000000000000000000000000000000000000000000000000000000000000000000000000N 00000000000NCONT   00    00000000000          00000000000000000000000000000000000000000000 000000000000000A000000000000000000000000000000000000000000000 000000000000000000000000000000000000000     00000000                                                                                                                        000000000000000000
F0010000010619800001000007213653800011050500000000000000000201711080002001VICTOR ECHAVEZ                                    D000000002000000000000000000000000100010010000000000000000000000F0010000010619800120171108000101 00000000000000000000000000000000000000000000000000000000000000000000000000000000000000000000000000000000000000000N 00000000000NCONT   00    00000000000          00000000000000000000000000000000000000000000 000000000000000A000000000000000000000000000000000000000000000 000000000000000000000000000000000000000     00000000                                                                                                                        000000000000000000
F0010000010619800002000007213653800041450500000000000000000201711080002001VICTOR ECHAVEZ                                    C000000001300000000000000000000000100010010000000000000000000000F0010000010619800220171108000101 00000000000000000000000000000000000000000000000000000000000000000000000000000000000000000000000000000000000000000N 00000000000NCONT   00    00000000000          00000000000000000000000000000000000000000000 000000000000000A000000000000000000000000000000000000000000000 000000000000000000000000000000000000000     00000000                                                                                                                        000000000000000000
F0010000010619800003000007213653800042505000000000000000000201711080002001VICTOR ECHAVEZ                                    C000000000700000000000000000000000100010010000000000000000000000F0010000010619800320171108000101 00000000000000000000000000000000000000000000000000000000000000000000000000000000000000000000000000000000000000000N 00000000000NCONT   00    00000000000          00000000000000000000000000000000000000000000 000000000000000A000000000000000000000000000000000000000000000 000000000000000000000000000000000000000     00000000                                                                                                                        000000000000000000
F0010000010619800004000007213653800023658300000000000000000201711080002001VICTOR ECHAVEZ                                    C000000000000000000000000000000000100010010000000000000000000000F0010000010619800420171108000101 00000000000000000000000000000000000000000000000000000000000000000000000000000000000000000000000000000000000000000N 00000000000NCONT   00    00000000000          00000000000000000000000000000000000000000000 000000000000000A000000000000000000000000000000000000000000000 000000000000000000000000000000000000000     00000000                                                                                                                        000000000000000000
F0010000010619800005000007213653800013552100000000000000000201711080002001VICTOR ECHAVEZ                                    D000000000000000000000000000000000100010010000000000000000000000F0010000010619800520171108000101 00000000000000000000000000000000000000000000000000000000000000000000000000000000000000000000000000000000000000000N 00000000000NCONT   00    00000000000          00000000000000000000000000000000000000000000 000000000000000A000000000000000000000000000000000000000000000 000000000000000000000000000000000000000     00000000                                                                                                                        000000000000000000
F0010000010619900001000080202350700011050500000000000000000201711080002001CONNY DE LA COSTA SAS                             D000000001000000000000000000000000100010010000000000000000000000F0010000010619900120171108000101 00000000000000000000000000000000000000000000000000000000000000000000000000000000000000000000000000000000000000000N 00000000000NCONT   00    00000000000          00000000000000000000000000000000000000000000 000000000000000A000000000000000000000000000000000000000000000 000000000000000000000000000000000000000     00000000                                                                                                                        000000000000000000
F0010000010619900002000080202350700041450500000000000000000201711080002001CONNY DE LA COSTA SAS                             C000000000950000000000000000000000100010010000000000000000000000F0010000010619900220171108000101 00000000000000000000000000000000000000000000000000000000000000000000000000000000000000000000000000000000000000000N 00000000000NCONT   00    00000000000          00000000000000000000000000000000000000000000 000000000000000A000000000000000000000000000000000000000000000 000000000000000000000000000000000000000     00000000                                                                                                                        000000000000000000
F0010000010619900003000080202350700042505000000000000000000201711080002001CONNY DE LA COSTA SAS                             C000000000050000000000000000000000100010010000000000000000000000F0010000010619900320171108000101 00000000000000000000000000000000000000000000000000000000000000000000000000000000000000000000000000000000000000000N 00000000000NCONT   00    00000000000          00000000000000000000000000000000000000000000 000000000000000A000000000000000000000000000000000000000000000 000000000000000000000000000000000000000     00000000                                                                                                                        000000000000000000
F0010000010619900004000080202350700023658300000000000000000201711080002001CONNY DE LA COSTA SAS                             C000000000000000000000000000000000100010010000000000000000000000F0010000010619900420171108000101 00000000000000000000000000000000000000000000000000000000000000000000000000000000000000000000000000000000000000000N 00000000000NCONT   00    00000000000          00000000000000000000000000000000000000000000 000000000000000A000000000000000000000000000000000000000000000 000000000000000000000000000000000000000     00000000                                                                                                                        000000000000000000
F0010000010619900005000080202350700013552100000000000000000201711080002001CONNY DE LA COSTA SAS                             D000000000000000000000000000000000100010010000000000000000000000F0010000010619900520171108000101 00000000000000000000000000000000000000000000000000000000000000000000000000000000000000000000000000000000000000000N 00000000000NCONT   00    00000000000          00000000000000000000000000000000000000000000 000000000000000A000000000000000000000000000000000000000000000 000000000000000000000000000000000000000     00000000                                                                                                                        000000000000000000
F0010000010620000001000090061985600011050500000000000000000201711080002001COMERCIALIZADORA PATRY SAS                        D000000002750000000000000000000000100010010000000000000000000000F0010000010620000120171108000101 00000000000000000000000000000000000000000000000000000000000000000000000000000000000000000000000000000000000000000N 00000000000NCONT   00    00000000000          00000000000000000000000000000000000000000000 000000000000000A000000000000000000000000000000000000000000000 000000000000000000000000000000000000000     00000000                                                                                                                        000000000000000000
F0010000010620000002000090061985600041450500000000000000000201711080002001COMERCIALIZADORA PATRY SAS                        C000000002600000000000000000000000100010010000000000000000000000F0010000010620000220171108000101 00000000000000000000000000000000000000000000000000000000000000000000000000000000000000000000000000000000000000000N 00000000000NCONT   00    00000000000          00000000000000000000000000000000000000000000 000000000000000A000000000000000000000000000000000000000000000 000000000000000000000000000000000000000     00000000                                                                                                                        000000000000000000
F0010000010620000003000090061985600042505000000000000000000201711080002001COMERCIALIZADORA PATRY SAS                        C000000000150000000000000000000000100010010000000000000000000000F0010000010620000320171108000101 00000000000000000000000000000000000000000000000000000000000000000000000000000000000000000000000000000000000000000N 00000000000NCONT   00    00000000000          00000000000000000000000000000000000000000000 000000000000000A000000000000000000000000000000000000000000000 000000000000000000000000000000000000000     00000000                                                                                                                        000000000000000000
F0010000010620000004000090061985600023658300000000000000000201711080002001COMERCIALIZADORA PATRY SAS                        C000000000000000000000000000000000100010010000000000000000000000F0010000010620000420171108000101 00000000000000000000000000000000000000000000000000000000000000000000000000000000000000000000000000000000000000000N 00000000000NCONT   00    00000000000          00000000000000000000000000000000000000000000 000000000000000A000000000000000000000000000000000000000000000 000000000000000000000000000000000000000     00000000                                                                                                                        000000000000000000
F0010000010620000005000090061985600013552100000000000000000201711080002001COMERCIALIZADORA PATRY SAS                        D000000000000000000000000000000000100010010000000000000000000000F0010000010620000520171108000101 00000000000000000000000000000000000000000000000000000000000000000000000000000000000000000000000000000000000000000N 00000000000NCONT   00    00000000000          00000000000000000000000000000000000000000000 000000000000000A000000000000000000000000000000000000000000000 000000000000000000000000000000000000000     00000000                                                                                                                        000000000000000000
F0010000010620100001000090061985600011050500000000000000000201711080002001COMERCIALIZADORA PATRY SAS                        D000000002500000000000000000000000100010010000000000000000000000F0010000010620100120171108000101 00000000000000000000000000000000000000000000000000000000000000000000000000000000000000000000000000000000000000000N 00000000000NCONT   00    00000000000          00000000000000000000000000000000000000000000 000000000000000A000000000000000000000000000000000000000000000 000000000000000000000000000000000000000     00000000                                                                                                                        000000000000000000
F0010000010620100002000090061985600041450500000000000000000201711080002001COMERCIALIZADORA PATRY SAS                        C000000002200000000000000000000000100010010000000000000000000000F0010000010620100220171108000101 00000000000000000000000000000000000000000000000000000000000000000000000000000000000000000000000000000000000000000N 00000000000NCONT   00    00000000000          00000000000000000000000000000000000000000000 000000000000000A000000000000000000000000000000000000000000000 000000000000000000000000000000000000000     00000000                                                                                                                        000000000000000000
F0010000010620100003000090061985600042505000000000000000000201711080002001COMERCIALIZADORA PATRY SAS                        C000000000300000000000000000000000100010010000000000000000000000F0010000010620100320171108000101 00000000000000000000000000000000000000000000000000000000000000000000000000000000000000000000000000000000000000000N 00000000000NCONT   00    00000000000          00000000000000000000000000000000000000000000 000000000000000A000000000000000000000000000000000000000000000 000000000000000000000000000000000000000     00000000                                                                                                                        000000000000000000
F0010000010620100004000090061985600023658300000000000000000201711080002001COMERCIALIZADORA PATRY SAS                        C000000000000000000000000000000000100010010000000000000000000000F0010000010620100420171108000101 00000000000000000000000000000000000000000000000000000000000000000000000000000000000000000000000000000000000000000N 00000000000NCONT   00    00000000000          00000000000000000000000000000000000000000000 000000000000000A000000000000000000000000000000000000000000000 000000000000000000000000000000000000000     00000000                                                                                                                        000000000000000000
F0010000010620100005000090061985600013552100000000000000000201711080002001COMERCIALIZADORA PATRY SAS                        D000000000000000000000000000000000100010010000000000000000000000F0010000010620100520171108000101 00000000000000000000000000000000000000000000000000000000000000000000000000000000000000000000000000000000000000000N 00000000000NCONT   00    00000000000          00000000000000000000000000000000000000000000 000000000000000A000000000000000000000000000000000000000000000 000000000000000000000000000000000000000     00000000                                                                                                                        000000000000000000
F0010000010620200001000080202350700011050500000000000000000201711080002001CONNY DE LA COSTA SAS                             D000000001900000000000000000000000100010010000000000000000000000F0010000010620200120171108000101 00000000000000000000000000000000000000000000000000000000000000000000000000000000000000000000000000000000000000000N 00000000000NCONT   00    00000000000          00000000000000000000000000000000000000000000 000000000000000A000000000000000000000000000000000000000000000 000000000000000000000000000000000000000     00000000                                                                                                                        000000000000000000
F0010000010620200002000080202350700041450500000000000000000201711080002001CONNY DE LA COSTA SAS                             C000000001800000000000000000000000100010010000000000000000000000F0010000010620200220171108000101 00000000000000000000000000000000000000000000000000000000000000000000000000000000000000000000000000000000000000000N 00000000000NCONT   00    00000000000          00000000000000000000000000000000000000000000 000000000000000A000000000000000000000000000000000000000000000 000000000000000000000000000000000000000     00000000                                                                                                                        000000000000000000
F0010000010620200003000080202350700042505000000000000000000201711080002001CONNY DE LA COSTA SAS                             C000000000100000000000000000000000100010010000000000000000000000F0010000010620200320171108000101 00000000000000000000000000000000000000000000000000000000000000000000000000000000000000000000000000000000000000000N 00000000000NCONT   00    00000000000          00000000000000000000000000000000000000000000 000000000000000A000000000000000000000000000000000000000000000 000000000000000000000000000000000000000     00000000                                                                                                                        000000000000000000
F0010000010620200004000080202350700023658300000000000000000201711080002001CONNY DE LA COSTA SAS                             C000000000000000000000000000000000100010010000000000000000000000F0010000010620200420171108000101 00000000000000000000000000000000000000000000000000000000000000000000000000000000000000000000000000000000000000000N 00000000000NCONT   00    00000000000          00000000000000000000000000000000000000000000 000000000000000A000000000000000000000000000000000000000000000 000000000000000000000000000000000000000     00000000                                                                                                                        000000000000000000
F0010000010620200005000080202350700013552100000000000000000201711080002001CONNY DE LA COSTA SAS                             D000000000000000000000000000000000100010010000000000000000000000F0010000010620200520171108000101 00000000000000000000000000000000000000000000000000000000000000000000000000000000000000000000000000000000000000000N 00000000000NCONT   00    00000000000          00000000000000000000000000000000000000000000 000000000000000A000000000000000000000000000000000000000000000 000000000000000000000000000000000000000     00000000                                                                                                                        000000000000000000
F0010000010620300001000000866840800011050500000000000000000201711080002001CACHARRERIA MARTIN                                D000000005100000000000000000000000100010010000000000000000000000F0010000010620300120171108000101 00000000000000000000000000000000000000000000000000000000000000000000000000000000000000000000000000000000000000000N 00000000000NCONT   00    00000000000          00000000000000000000000000000000000000000000 000000000000000A000000000000000000000000000000000000000000000 000000000000000000000000000000000000000     00000000                                                                                                                        000000000000000000
F0010000010620300002000000866840800041450500000000000000000201711080002001CACHARRERIA MARTIN                                C000000003300000000000000000000000100010010000000000000000000000F0010000010620300220171108000101 00000000000000000000000000000000000000000000000000000000000000000000000000000000000000000000000000000000000000000N 00000000000NCONT   00    00000000000          00000000000000000000000000000000000000000000 000000000000000A000000000000000000000000000000000000000000000 000000000000000000000000000000000000000     00000000                                                                                                                        000000000000000000
F0010000010620300003000000866840800042505000000000000000000201711080002001CACHARRERIA MARTIN                                C000000001800000000000000000000000100010010000000000000000000000F0010000010620300320171108000101 00000000000000000000000000000000000000000000000000000000000000000000000000000000000000000000000000000000000000000N 00000000000NCONT   00    00000000000          00000000000000000000000000000000000000000000 000000000000000A000000000000000000000000000000000000000000000 000000000000000000000000000000000000000     00000000                                                                                                                        000000000000000000
F0010000010620300004000000866840800023658300000000000000000201711080002001CACHARRERIA MARTIN                                C000000000000000000000000000000000100010010000000000000000000000F0010000010620300420171108000101 00000000000000000000000000000000000000000000000000000000000000000000000000000000000000000000000000000000000000000N 00000000000NCONT   00    00000000000          00000000000000000000000000000000000000000000 000000000000000A000000000000000000000000000000000000000000000 000000000000000000000000000000000000000     00000000                                                                                                                        000000000000000000
F0010000010620300005000000866840800013552100000000000000000201711080002001CACHARRERIA MARTIN                                D000000000000000000000000000000000100010010000000000000000000000F0010000010620300520171108000101 00000000000000000000000000000000000000000000000000000000000000000000000000000000000000000000000000000000000000000N 00000000000NCONT   00    00000000000          00000000000000000000000000000000000000000000 000000000000000A000000000000000000000000000000000000000000000 000000000000000000000000000000000000000     00000000                                                                                                                        000000000000000000
F0010000010620400001000007213653800011050500000000000000000201711080002001VICTOR ECHAVEZ                                    D000000003300000000000000000000000100010010000000000000000000000F0010000010620400120171108000101 00000000000000000000000000000000000000000000000000000000000000000000000000000000000000000000000000000000000000000N 00000000000NCONT   00    00000000000          00000000000000000000000000000000000000000000 000000000000000A000000000000000000000000000000000000000000000 000000000000000000000000000000000000000     00000000                                                                                                                        000000000000000000
F0010000010620400002000007213653800041450500000000000000000201711080002001VICTOR ECHAVEZ                                    C000000002600000000000000000000000100010010000000000000000000000F0010000010620400220171108000101 00000000000000000000000000000000000000000000000000000000000000000000000000000000000000000000000000000000000000000N 00000000000NCONT   00    00000000000          00000000000000000000000000000000000000000000 000000000000000A000000000000000000000000000000000000000000000 000000000000000000000000000000000000000     00000000                                                                                                                        000000000000000000
F0010000010620400003000007213653800042505000000000000000000201711080002001VICTOR ECHAVEZ                                    C000000000700000000000000000000000100010010000000000000000000000F0010000010620400320171108000101 00000000000000000000000000000000000000000000000000000000000000000000000000000000000000000000000000000000000000000N 00000000000NCONT   00    00000000000          00000000000000000000000000000000000000000000 000000000000000A000000000000000000000000000000000000000000000 000000000000000000000000000000000000000     00000000                                                                                                                        000000000000000000
F0010000010620400004000007213653800023658300000000000000000201711080002001VICTOR ECHAVEZ                                    C000000000000000000000000000000000100010010000000000000000000000F0010000010620400420171108000101 00000000000000000000000000000000000000000000000000000000000000000000000000000000000000000000000000000000000000000N 00000000000NCONT   00    00000000000          00000000000000000000000000000000000000000000 000000000000000A000000000000000000000000000000000000000000000 000000000000000000000000000000000000000     00000000                                                                                                                        000000000000000000
F0010000010620400005000007213653800013552100000000000000000201711080002001VICTOR ECHAVEZ                                    D000000000000000000000000000000000100010010000000000000000000000F0010000010620400520171108000101 00000000000000000000000000000000000000000000000000000000000000000000000000000000000000000000000000000000000000000N 00000000000NCONT   00    00000000000          00000000000000000000000000000000000000000000 000000000000000A000000000000000000000000000000000000000000000 000000000000000000000000000000000000000     00000000                                                                                                                        000000000000000000
F0010000010620500001000001961875400011050500000000000000000201711080002001JULIAN FERNANDO RIQUETT PASSO                     D000000002600000000000000000000000100010010000000000000000000000F0010000010620500120171108000101 00000000000000000000000000000000000000000000000000000000000000000000000000000000000000000000000000000000000000000N 00000000000NCONT   00    00000000000          00000000000000000000000000000000000000000000 000000000000000A000000000000000000000000000000000000000000000 000000000000000000000000000000000000000     00000000                                                                                                                        000000000000000000
F0010000010620500002000001961875400041450500000000000000000201711080002001JULIAN FERNANDO RIQUETT PASSO                     C000000002200000000000000000000000100010010000000000000000000000F0010000010620500220171108000101 00000000000000000000000000000000000000000000000000000000000000000000000000000000000000000000000000000000000000000N 00000000000NCONT   00    00000000000          00000000000000000000000000000000000000000000 000000000000000A000000000000000000000000000000000000000000000 000000000000000000000000000000000000000     00000000                                                                                                                        000000000000000000
F0010000010620500003000001961875400042505000000000000000000201711080002001JULIAN FERNANDO RIQUETT PASSO                     C000000000400000000000000000000000100010010000000000000000000000F0010000010620500320171108000101 00000000000000000000000000000000000000000000000000000000000000000000000000000000000000000000000000000000000000000N 00000000000NCONT   00    00000000000          00000000000000000000000000000000000000000000 000000000000000A000000000000000000000000000000000000000000000 000000000000000000000000000000000000000     00000000                                                                                                                        000000000000000000
F0010000010620500004000001961875400023658300000000000000000201711080002001JULIAN FERNANDO RIQUETT PASSO                     C000000000000000000000000000000000100010010000000000000000000000F0010000010620500420171108000101 00000000000000000000000000000000000000000000000000000000000000000000000000000000000000000000000000000000000000000N 00000000000NCONT   00    00000000000          00000000000000000000000000000000000000000000 000000000000000A000000000000000000000000000000000000000000000 000000000000000000000000000000000000000     00000000                                                                                                                        000000000000000000
F0010000010620500005000001961875400013552100000000000000000201711080002001JULIAN FERNANDO RIQUETT PASSO                     D000000000000000000000000000000000100010010000000000000000000000F0010000010620500520171108000101 00000000000000000000000000000000000000000000000000000000000000000000000000000000000000000000000000000000000000000N 00000000000NCONT   00    00000000000          00000000000000000000000000000000000000000000 000000000000000A000000000000000000000000000000000000000000000 000000000000000000000000000000000000000     00000000                                                                                                                        000000000000000000
F0010000010620600001000004175790100011050500000000000000000201711080002001ROSIRIS FERIA HOYOS  (COSM. SHILLER)              D000000001700000000000000000000000100010010000000000000000000000F0010000010620600120171108000101 00000000000000000000000000000000000000000000000000000000000000000000000000000000000000000000000000000000000000000N 00000000000NCONT   00    00000000000          00000000000000000000000000000000000000000000 000000000000000A000000000000000000000000000000000000000000000 000000000000000000000000000000000000000     00000000                                                                                                                        000000000000000000
F0010000010620600002000004175790100041450500000000000000000201711080002001ROSIRIS FERIA HOYOS  (COSM. SHILLER)              C000000001200000000000000000000000100010010000000000000000000000F0010000010620600220171108000101 00000000000000000000000000000000000000000000000000000000000000000000000000000000000000000000000000000000000000000N 00000000000NCONT   00    00000000000          00000000000000000000000000000000000000000000 000000000000000A000000000000000000000000000000000000000000000 000000000000000000000000000000000000000     00000000                                                                                                                        000000000000000000
F0010000010620600003000004175790100042505000000000000000000201711080002001ROSIRIS FERIA HOYOS  (COSM. SHILLER)              C000000000500000000000000000000000100010010000000000000000000000F0010000010620600320171108000101 00000000000000000000000000000000000000000000000000000000000000000000000000000000000000000000000000000000000000000N 00000000000NCONT   00    00000000000          00000000000000000000000000000000000000000000 000000000000000A000000000000000000000000000000000000000000000 000000000000000000000000000000000000000     00000000                                                                                                                        000000000000000000
F0010000010620600004000004175790100023658300000000000000000201711080002001ROSIRIS FERIA HOYOS  (COSM. SHILLER)              C000000000000000000000000000000000100010010000000000000000000000F0010000010620600420171108000101 00000000000000000000000000000000000000000000000000000000000000000000000000000000000000000000000000000000000000000N 00000000000NCONT   00    00000000000          00000000000000000000000000000000000000000000 000000000000000A000000000000000000000000000000000000000000000 000000000000000000000000000000000000000     00000000                                                                                                                        000000000000000000
F0010000010620600005000004175790100013552100000000000000000201711080002001ROSIRIS FERIA HOYOS  (COSM. SHILLER)              D000000000000000000000000000000000100010010000000000000000000000F0010000010620600520171108000101 00000000000000000000000000000000000000000000000000000000000000000000000000000000000000000000000000000000000000000N 00000000000NCONT   00    00000000000          00000000000000000000000000000000000000000000 000000000000000A000000000000000000000000000000000000000000000 000000000000000000000000000000000000000     00000000                                                                                                                        000000000000000000
F0010000010620700001000004175790100011050500000000000000000201711080002001ROSIRIS FERIA HOYOS  (COSM. SHILLER)              D000000001700000000000000000000000100010010000000000000000000000F0010000010620700120171108000101 00000000000000000000000000000000000000000000000000000000000000000000000000000000000000000000000000000000000000000N 00000000000NCONT   00    00000000000          00000000000000000000000000000000000000000000 000000000000000A000000000000000000000000000000000000000000000 000000000000000000000000000000000000000     00000000                                                                                                                        000000000000000000
F0010000010620700002000004175790100041450500000000000000000201711080002001ROSIRIS FERIA HOYOS  (COSM. SHILLER)              C000000001400000000000000000000000100010010000000000000000000000F0010000010620700220171108000101 00000000000000000000000000000000000000000000000000000000000000000000000000000000000000000000000000000000000000000N 00000000000NCONT   00    00000000000          00000000000000000000000000000000000000000000 000000000000000A000000000000000000000000000000000000000000000 000000000000000000000000000000000000000     00000000                                                                                                                        000000000000000000
F0010000010620700003000004175790100042505000000000000000000201711080002001ROSIRIS FERIA HOYOS  (COSM. SHILLER)              C000000000300000000000000000000000100010010000000000000000000000F0010000010620700320171108000101 00000000000000000000000000000000000000000000000000000000000000000000000000000000000000000000000000000000000000000N 00000000000NCONT   00    00000000000          00000000000000000000000000000000000000000000 000000000000000A000000000000000000000000000000000000000000000 000000000000000000000000000000000000000     00000000                                                                                                                        000000000000000000
F0010000010620700004000004175790100023658300000000000000000201711080002001ROSIRIS FERIA HOYOS  (COSM. SHILLER)              C000000000000000000000000000000000100010010000000000000000000000F0010000010620700420171108000101 00000000000000000000000000000000000000000000000000000000000000000000000000000000000000000000000000000000000000000N 00000000000NCONT   00    00000000000          00000000000000000000000000000000000000000000 000000000000000A000000000000000000000000000000000000000000000 000000000000000000000000000000000000000     00000000                                                                                                                        000000000000000000
F0010000010620700005000004175790100013552100000000000000000201711080002001ROSIRIS FERIA HOYOS  (COSM. SHILLER)              D000000000000000000000000000000000100010010000000000000000000000F0010000010620700520171108000101 00000000000000000000000000000000000000000000000000000000000000000000000000000000000000000000000000000000000000000N 00000000000NCONT   00    00000000000          00000000000000000000000000000000000000000000 000000000000000A000000000000000000000000000000000000000000000 000000000000000000000000000000000000000     00000000                                                                                                                        000000000000000000
F0010000010620800001000004175790100011050500000000000000000201711080002001ROSIRIS FERIA HOYOS  (COSM. SHILLER)              D000000001500000000000000000000000100010010000000000000000000000F0010000010620800120171108000101 00000000000000000000000000000000000000000000000000000000000000000000000000000000000000000000000000000000000000000N 00000000000NCONT   00    00000000000          00000000000000000000000000000000000000000000 000000000000000A000000000000000000000000000000000000000000000 000000000000000000000000000000000000000     00000000                                                                                                                        000000000000000000
F0010000010620800002000004175790100041450500000000000000000201711080002001ROSIRIS FERIA HOYOS  (COSM. SHILLER)              C000000001200000000000000000000000100010010000000000000000000000F0010000010620800220171108000101 00000000000000000000000000000000000000000000000000000000000000000000000000000000000000000000000000000000000000000N 00000000000NCONT   00    00000000000          00000000000000000000000000000000000000000000 000000000000000A000000000000000000000000000000000000000000000 000000000000000000000000000000000000000     00000000                                                                                                                        000000000000000000
F0010000010620800003000004175790100042505000000000000000000201711080002001ROSIRIS FERIA HOYOS  (COSM. SHILLER)              C000000000300000000000000000000000100010010000000000000000000000F0010000010620800320171108000101 00000000000000000000000000000000000000000000000000000000000000000000000000000000000000000000000000000000000000000N 00000000000NCONT   00    00000000000          00000000000000000000000000000000000000000000 000000000000000A000000000000000000000000000000000000000000000 000000000000000000000000000000000000000     00000000                                                                                                                        000000000000000000
F0010000010620800004000004175790100023658300000000000000000201711080002001ROSIRIS FERIA HOYOS  (COSM. SHILLER)              C000000000000000000000000000000000100010010000000000000000000000F0010000010620800420171108000101 00000000000000000000000000000000000000000000000000000000000000000000000000000000000000000000000000000000000000000N 00000000000NCONT   00    00000000000          00000000000000000000000000000000000000000000 000000000000000A000000000000000000000000000000000000000000000 000000000000000000000000000000000000000     00000000                                                                                                                        000000000000000000
F0010000010620800005000004175790100013552100000000000000000201711080002001ROSIRIS FERIA HOYOS  (COSM. SHILLER)              D000000000000000000000000000000000100010010000000000000000000000F0010000010620800520171108000101 00000000000000000000000000000000000000000000000000000000000000000000000000000000000000000000000000000000000000000N 00000000000NCONT   00    00000000000          00000000000000000000000000000000000000000000 000000000000000A000000000000000000000000000000000000000000000 000000000000000000000000000000000000000     00000000                                                                                                                        000000000000000000
F0010000010620900001000004175790100011050500000000000000000201711080002001ROSIRIS FERIA HOYOS  (COSM. SHILLER)              D000000001500000000000000000000000100010010000000000000000000000F0010000010620900120171108000101 00000000000000000000000000000000000000000000000000000000000000000000000000000000000000000000000000000000000000000N 00000000000NCONT   00    00000000000          00000000000000000000000000000000000000000000 000000000000000A000000000000000000000000000000000000000000000 000000000000000000000000000000000000000     00000000                                                                                                                        000000000000000000
F0010000010620900002000004175790100041450500000000000000000201711080002001ROSIRIS FERIA HOYOS  (COSM. SHILLER)              C000000001200000000000000000000000100010010000000000000000000000F0010000010620900220171108000101 00000000000000000000000000000000000000000000000000000000000000000000000000000000000000000000000000000000000000000N 00000000000NCONT   00    00000000000          00000000000000000000000000000000000000000000 000000000000000A000000000000000000000000000000000000000000000 000000000000000000000000000000000000000     00000000                                                                                                                        000000000000000000
F0010000010620900003000004175790100042505000000000000000000201711080002001ROSIRIS FERIA HOYOS  (COSM. SHILLER)              C000000000300000000000000000000000100010010000000000000000000000F0010000010620900320171108000101 00000000000000000000000000000000000000000000000000000000000000000000000000000000000000000000000000000000000000000N 00000000000NCONT   00    00000000000          00000000000000000000000000000000000000000000 000000000000000A000000000000000000000000000000000000000000000 000000000000000000000000000000000000000     00000000                                                                                                                        000000000000000000
F0010000010620900004000004175790100023658300000000000000000201711080002001ROSIRIS FERIA HOYOS  (COSM. SHILLER)              C000000000000000000000000000000000100010010000000000000000000000F0010000010620900420171108000101 00000000000000000000000000000000000000000000000000000000000000000000000000000000000000000000000000000000000000000N 00000000000NCONT   00    00000000000          00000000000000000000000000000000000000000000 000000000000000A000000000000000000000000000000000000000000000 000000000000000000000000000000000000000     00000000                                                                                                                        000000000000000000
F0010000010620900005000004175790100013552100000000000000000201711080002001ROSIRIS FERIA HOYOS  (COSM. SHILLER)              D000000000000000000000000000000000100010010000000000000000000000F0010000010620900520171108000101 00000000000000000000000000000000000000000000000000000000000000000000000000000000000000000000000000000000000000000N 00000000000NCONT   00    00000000000          00000000000000000000000000000000000000000000 000000000000000A000000000000000000000000000000000000000000000 000000000000000000000000000000000000000     00000000                                                                                                                        000000000000000000
F0010000010621000001000004175790100011050500000000000000000201711080002001ROSIRIS FERIA HOYOS  (COSM. SHILLER)              D000000001900000000000000000000000100010010000000000000000000000F0010000010621000120171108000101 00000000000000000000000000000000000000000000000000000000000000000000000000000000000000000000000000000000000000000N 00000000000NCONT   00    00000000000          00000000000000000000000000000000000000000000 000000000000000A000000000000000000000000000000000000000000000 000000000000000000000000000000000000000     00000000                                                                                                                        000000000000000000
F0010000010621000002000004175790100041450500000000000000000201711080002001ROSIRIS FERIA HOYOS  (COSM. SHILLER)              C000000001300000000000000000000000100010010000000000000000000000F0010000010621000220171108000101 00000000000000000000000000000000000000000000000000000000000000000000000000000000000000000000000000000000000000000N 00000000000NCONT   00    00000000000          00000000000000000000000000000000000000000000 000000000000000A000000000000000000000000000000000000000000000 000000000000000000000000000000000000000     00000000                                                                                                                        000000000000000000
F0010000010621000003000004175790100042505000000000000000000201711080002001ROSIRIS FERIA HOYOS  (COSM. SHILLER)              C000000000600000000000000000000000100010010000000000000000000000F0010000010621000320171108000101 00000000000000000000000000000000000000000000000000000000000000000000000000000000000000000000000000000000000000000N 00000000000NCONT   00    00000000000          00000000000000000000000000000000000000000000 000000000000000A000000000000000000000000000000000000000000000 000000000000000000000000000000000000000     00000000                                                                                                                        000000000000000000
F0010000010621000004000004175790100023658300000000000000000201711080002001ROSIRIS FERIA HOYOS  (COSM. SHILLER)              C000000000000000000000000000000000100010010000000000000000000000F0010000010621000420171108000101 00000000000000000000000000000000000000000000000000000000000000000000000000000000000000000000000000000000000000000N 00000000000NCONT   00    00000000000          00000000000000000000000000000000000000000000 000000000000000A000000000000000000000000000000000000000000000 000000000000000000000000000000000000000     00000000                                                                                                                        000000000000000000
F0010000010621000005000004175790100013552100000000000000000201711080002001ROSIRIS FERIA HOYOS  (COSM. SHILLER)              D000000000000000000000000000000000100010010000000000000000000000F0010000010621000520171108000101 00000000000000000000000000000000000000000000000000000000000000000000000000000000000000000000000000000000000000000N 00000000000NCONT   00    00000000000          00000000000000000000000000000000000000000000 000000000000000A000000000000000000000000000000000000000000000 000000000000000000000000000000000000000     00000000                                                                                                                        000000000000000000
F0010000010621100001000004175790100011050500000000000000000201711080002001ROSIRIS FERIA HOYOS  (COSM. SHILLER)              D000000001500000000000000000000000100010010000000000000000000000F0010000010621100120171108000101 00000000000000000000000000000000000000000000000000000000000000000000000000000000000000000000000000000000000000000N 00000000000NCONT   00    00000000000          00000000000000000000000000000000000000000000 000000000000000A000000000000000000000000000000000000000000000 000000000000000000000000000000000000000     00000000                                                                                                                        000000000000000000
F0010000010621100002000004175790100041450500000000000000000201711080002001ROSIRIS FERIA HOYOS  (COSM. SHILLER)              C000000001000000000000000000000000100010010000000000000000000000F0010000010621100220171108000101 00000000000000000000000000000000000000000000000000000000000000000000000000000000000000000000000000000000000000000N 00000000000NCONT   00    00000000000          00000000000000000000000000000000000000000000 000000000000000A000000000000000000000000000000000000000000000 000000000000000000000000000000000000000     00000000                                                                                                                        000000000000000000
F0010000010621100003000004175790100042505000000000000000000201711080002001ROSIRIS FERIA HOYOS  (COSM. SHILLER)              C000000000500000000000000000000000100010010000000000000000000000F0010000010621100320171108000101 00000000000000000000000000000000000000000000000000000000000000000000000000000000000000000000000000000000000000000N 00000000000NCONT   00    00000000000          00000000000000000000000000000000000000000000 000000000000000A000000000000000000000000000000000000000000000 000000000000000000000000000000000000000     00000000                                                                                                                        000000000000000000
F0010000010621100004000004175790100023658300000000000000000201711080002001ROSIRIS FERIA HOYOS  (COSM. SHILLER)              C000000000000000000000000000000000100010010000000000000000000000F0010000010621100420171108000101 00000000000000000000000000000000000000000000000000000000000000000000000000000000000000000000000000000000000000000N 00000000000NCONT   00    00000000000          00000000000000000000000000000000000000000000 000000000000000A000000000000000000000000000000000000000000000 000000000000000000000000000000000000000     00000000                                                                                                                        000000000000000000
F0010000010621100005000004175790100013552100000000000000000201711080002001ROSIRIS FERIA HOYOS  (COSM. SHILLER)              D000000000000000000000000000000000100010010000000000000000000000F0010000010621100520171108000101 00000000000000000000000000000000000000000000000000000000000000000000000000000000000000000000000000000000000000000N 00000000000NCONT   00    00000000000          00000000000000000000000000000000000000000000 000000000000000A000000000000000000000000000000000000000000000 000000000000000000000000000000000000000     00000000                                                                                                                        000000000000000000
F0010000010621200001000001022529300011050500000000000000000201711080002001ALBERTO ALVAREZ ISAZA                             D000000001760000000000000000000000100010010000000000000000000000F0010000010621200120171108000101 00000000000000000000000000000000000000000000000000000000000000000000000000000000000000000000000000000000000000000N 00000000000NCONT   00    00000000000          00000000000000000000000000000000000000000000 000000000000000A000000000000000000000000000000000000000000000 000000000000000000000000000000000000000     00000000                                                                                                                        000000000000000000
F0010000010621200002000001022529300041450500000000000000000201711080002001ALBERTO ALVAREZ ISAZA                             C000000001760000000000000000000000100010010000000000000000000000F0010000010621200220171108000101 00000000000000000000000000000000000000000000000000000000000000000000000000000000000000000000000000000000000000000N 00000000000NCONT   00    00000000000          00000000000000000000000000000000000000000000 000000000000000A000000000000000000000000000000000000000000000 000000000000000000000000000000000000000     00000000                                                                                                                        000000000000000000
