F0010000006026200001000080001060100011050500000000000000000201407150002001DROGUERIA INDUSTRIAL INQUICOSTA LTDA              D000000001400000000000000000000000100010010000000000000000000000F0010000006026200120140715000101 00000000000000000000000000000000000000000000000000000000000000000000000000000000000000000000000000000000000000000N 00000000000NCONT   00    00000000000          00000000000000000000000000000000000000000000 000000000000000A000000000000000000000000000000000000000000000 000000000000000000000000000000000000000     00000000                                                                                                                        000000000000000000
F0010000006026200002000080001060100041450500000000000000000201407150002001DROGUERIA INDUSTRIAL INQUICOSTA LTDA              C000000001000000000000000000000000100010010000000000000000000000F0010000006026200220140715000101 00000000000000000000000000000000000000000000000000000000000000000000000000000000000000000000000000000000000000000N 00000000000NCONT   00    00000000000          00000000000000000000000000000000000000000000 000000000000000A000000000000000000000000000000000000000000000 000000000000000000000000000000000000000     00000000                                                                                                                        000000000000000000
F0010000006026200003000080001060100042505000000000000000000201407150002001DROGUERIA INDUSTRIAL INQUICOSTA LTDA              C000000000400000000000000000000000100010010000000000000000000000F0010000006026200320140715000101 00000000000000000000000000000000000000000000000000000000000000000000000000000000000000000000000000000000000000000N 00000000000NCONT   00    00000000000          00000000000000000000000000000000000000000000 000000000000000A000000000000000000000000000000000000000000000 000000000000000000000000000000000000000     00000000                                                                                                                        000000000000000000
F0010000006026200004000080001060100023658300000000000000000201407150002001DROGUERIA INDUSTRIAL INQUICOSTA LTDA              C000000000008000000000000000000000100010010000000000000000000000F0010000006026200420140715000101 00000000000000000000000000000000000000000000000000000000000000000000000000000000000000000000000000000000000000000N 00000000000NCONT   00    00000000000          00000000000000000000000000000000000000000000 000000000000000A000000000000000000000000000000000000000000000 000000000000000000000000000000000000000     00000000                                                                                                                        000000000000000000
F0010000006026200005000080001060100013552100000000000000000201407150002001DROGUERIA INDUSTRIAL INQUICOSTA LTDA              D000000000008000000000000000000000100010010000000000000000000000F0010000006026200520140715000101 00000000000000000000000000000000000000000000000000000000000000000000000000000000000000000000000000000000000000000N 00000000000NCONT   00    00000000000          00000000000000000000000000000000000000000000 000000000000000A000000000000000000000000000000000000000000000 000000000000000000000000000000000000000     00000000                                                                                                                        000000000000000000
F0010000006026300001000080000084600011050500000000000000000201407150002001ALUMINIOS Y ACCESORIOS DEL ATLANTICO LTDA         D000000002700000000000000000000000100010010000000000000000000000F0010000006026300120140715000101 00000000000000000000000000000000000000000000000000000000000000000000000000000000000000000000000000000000000000000N 00000000000NCONT   00    00000000000          00000000000000000000000000000000000000000000 000000000000000A000000000000000000000000000000000000000000000 000000000000000000000000000000000000000     00000000                                                                                                                        000000000000000000
F0010000006026300002000080000084600041450500000000000000000201407150002001ALUMINIOS Y ACCESORIOS DEL ATLANTICO LTDA         C000000002200000000000000000000000100010010000000000000000000000F0010000006026300220140715000101 00000000000000000000000000000000000000000000000000000000000000000000000000000000000000000000000000000000000000000N 00000000000NCONT   00    00000000000          00000000000000000000000000000000000000000000 000000000000000A000000000000000000000000000000000000000000000 000000000000000000000000000000000000000     00000000                                                                                                                        000000000000000000
F0010000006026300003000080000084600042505000000000000000000201407150002001ALUMINIOS Y ACCESORIOS DEL ATLANTICO LTDA         C000000000500000000000000000000000100010010000000000000000000000F0010000006026300320140715000101 00000000000000000000000000000000000000000000000000000000000000000000000000000000000000000000000000000000000000000N 00000000000NCONT   00    00000000000          00000000000000000000000000000000000000000000 000000000000000A000000000000000000000000000000000000000000000 000000000000000000000000000000000000000     00000000                                                                                                                        000000000000000000
F0010000006026300004000080000084600023658300000000000000000201407150002001ALUMINIOS Y ACCESORIOS DEL ATLANTICO LTDA         C000000000017600000000000000000000100010010000000000000000000000F0010000006026300420140715000101 00000000000000000000000000000000000000000000000000000000000000000000000000000000000000000000000000000000000000000N 00000000000NCONT   00    00000000000          00000000000000000000000000000000000000000000 000000000000000A000000000000000000000000000000000000000000000 000000000000000000000000000000000000000     00000000                                                                                                                        000000000000000000
F0010000006026300005000080000084600013552100000000000000000201407150002001ALUMINIOS Y ACCESORIOS DEL ATLANTICO LTDA         D000000000017600000000000000000000100010010000000000000000000000F0010000006026300520140715000101 00000000000000000000000000000000000000000000000000000000000000000000000000000000000000000000000000000000000000000N 00000000000NCONT   00    00000000000          00000000000000000000000000000000000000000000 000000000000000A000000000000000000000000000000000000000000000 000000000000000000000000000000000000000     00000000                                                                                                                        000000000000000000
F0010000006026400001000090054716100013050500000000000000000201407150002001IMPORTVAL SAS                                     D000000016700000000000000000000000100010010000000000000000000000F0010000006026400120140715000101 00000000000000000000000000000000000000000000000000000000000000000000000000000000000000000000000000000000000000000N 00000000000NCONT   00    00000000000          00000000000000000000000000000000000000000000 000000000000000A000000000000000000000000000000000000000000000 000000000000000000000000000000000000000     00000000                                                                                                                        000000000000000000
F0010000006026400002000090054716100041450500000000000000000201407150002001IMPORTVAL SAS                                     C000000015000000000000000000000000100010010000000000000000000000F0010000006026400220140715000101 00000000000000000000000000000000000000000000000000000000000000000000000000000000000000000000000000000000000000000N 00000000000NCONT   00    00000000000          00000000000000000000000000000000000000000000 000000000000000A000000000000000000000000000000000000000000000 000000000000000000000000000000000000000     00000000                                                                                                                        000000000000000000
F0010000006026400003000090054716100042505000000000000000000201407150002001IMPORTVAL SAS                                     C000000001700000000000000000000000100010010000000000000000000000F0010000006026400320140715000101 00000000000000000000000000000000000000000000000000000000000000000000000000000000000000000000000000000000000000000N 00000000000NCONT   00    00000000000          00000000000000000000000000000000000000000000 000000000000000A000000000000000000000000000000000000000000000 000000000000000000000000000000000000000     00000000                                                                                                                        000000000000000000
F0010000006026400004000090054716100023658300000000000000000201407150002001IMPORTVAL SAS                                     C000000000120000000000000000000000100010010000000000000000000000F0010000006026400420140715000101 00000000000000000000000000000000000000000000000000000000000000000000000000000000000000000000000000000000000000000N 00000000000NCONT   00    00000000000          00000000000000000000000000000000000000000000 000000000000000A000000000000000000000000000000000000000000000 000000000000000000000000000000000000000     00000000                                                                                                                        000000000000000000
F0010000006026400005000090054716100013552100000000000000000201407150002001IMPORTVAL SAS                                     D000000000120000000000000000000000100010010000000000000000000000F0010000006026400520140715000101 00000000000000000000000000000000000000000000000000000000000000000000000000000000000000000000000000000000000000000N 00000000000NCONT   00    00000000000          00000000000000000000000000000000000000000000 000000000000000A000000000000000000000000000000000000000000000 000000000000000000000000000000000000000     00000000                                                                                                                        000000000000000000
F0010000006026500001000083001155300013050500000000000000000201407150002001COMERCIALIZADORA RUBEN S LTDA                     D000000025281900000000000000000000100010010000000000000000000000F0010000006026500120140715000101 00000000000000000000000000000000000000000000000000000000000000000000000000000000000000000000000000000000000000000N 00000000000NCONT   00    00000000000          00000000000000000000000000000000000000000000 000000000000000A000000000000000000000000000000000000000000000 000000000000000000000000000000000000000     00000000                                                                                                                        000000000000000000
F0010000006026500002000083001155300041450500000000000000000201407150002001COMERCIALIZADORA RUBEN S LTDA                     C000000023292000000000000000000000100010010000000000000000000000F0010000006026500220140715000101 00000000000000000000000000000000000000000000000000000000000000000000000000000000000000000000000000000000000000000N 00000000000NCONT   00    00000000000          00000000000000000000000000000000000000000000 000000000000000A000000000000000000000000000000000000000000000 000000000000000000000000000000000000000     00000000                                                                                                                        000000000000000000
F0010000006026500003000083001155300042505000000000000000000201407150002001COMERCIALIZADORA RUBEN S LTDA                     C000000001989900000000000000000000100010010000000000000000000000F0010000006026500320140715000101 00000000000000000000000000000000000000000000000000000000000000000000000000000000000000000000000000000000000000000N 00000000000NCONT   00    00000000000          00000000000000000000000000000000000000000000 000000000000000A000000000000000000000000000000000000000000000 000000000000000000000000000000000000000     00000000                                                                                                                        000000000000000000
F0010000006026500004000083001155300023658300000000000000000201407150002001COMERCIALIZADORA RUBEN S LTDA                     C000000000186300000000000000000000100010010000000000000000000000F0010000006026500420140715000101 00000000000000000000000000000000000000000000000000000000000000000000000000000000000000000000000000000000000000000N 00000000000NCONT   00    00000000000          00000000000000000000000000000000000000000000 000000000000000A000000000000000000000000000000000000000000000 000000000000000000000000000000000000000     00000000                                                                                                                        000000000000000000
F0010000006026500005000083001155300013552100000000000000000201407150002001COMERCIALIZADORA RUBEN S LTDA                     D000000000186300000000000000000000100010010000000000000000000000F0010000006026500520140715000101 00000000000000000000000000000000000000000000000000000000000000000000000000000000000000000000000000000000000000000N 00000000000NCONT   00    00000000000          00000000000000000000000000000000000000000000 000000000000000A000000000000000000000000000000000000000000000 000000000000000000000000000000000000000     00000000                                                                                                                        000000000000000000
F0010000006026600001000090013035500013050500000000000000000201407150002001FUJIAN SHAN S.A.                                  D000000136677200000000000000000000100010010000000000000000000000F0010000006026600120140715000101 00000000000000000000000000000000000000000000000000000000000000000000000000000000000000000000000000000000000000000N 00000000000NCONT   00    00000000000          00000000000000000000000000000000000000000000 000000000000000A000000000000000000000000000000000000000000000 000000000000000000000000000000000000000     00000000                                                                                                                        000000000000000000
F0010000006026600002000090013035500041450500000000000000000201407150002001FUJIAN SHAN S.A.                                  C000000134177200000000000000000000100010010000000000000000000000F0010000006026600220140715000101 00000000000000000000000000000000000000000000000000000000000000000000000000000000000000000000000000000000000000000N 00000000000NCONT   00    00000000000          00000000000000000000000000000000000000000000 000000000000000A000000000000000000000000000000000000000000000 000000000000000000000000000000000000000     00000000                                                                                                                        000000000000000000
F0010000006026600003000090013035500042505000000000000000000201407150002001FUJIAN SHAN S.A.                                  C000000002500000000000000000000000100010010000000000000000000000F0010000006026600320140715000101 00000000000000000000000000000000000000000000000000000000000000000000000000000000000000000000000000000000000000000N 00000000000NCONT   00    00000000000          00000000000000000000000000000000000000000000 000000000000000A000000000000000000000000000000000000000000000 000000000000000000000000000000000000000     00000000                                                                                                                        000000000000000000
F0010000006026600004000090013035500023658300000000000000000201407150002001FUJIAN SHAN S.A.                                  C000000001073400000000000000000000100010010000000000000000000000F0010000006026600420140715000101 00000000000000000000000000000000000000000000000000000000000000000000000000000000000000000000000000000000000000000N 00000000000NCONT   00    00000000000          00000000000000000000000000000000000000000000 000000000000000A000000000000000000000000000000000000000000000 000000000000000000000000000000000000000     00000000                                                                                                                        000000000000000000
F0010000006026600005000090013035500013552100000000000000000201407150002001FUJIAN SHAN S.A.                                  D000000001073400000000000000000000100010010000000000000000000000F0010000006026600520140715000101 00000000000000000000000000000000000000000000000000000000000000000000000000000000000000000000000000000000000000000N 00000000000NCONT   00    00000000000          00000000000000000000000000000000000000000000 000000000000000A000000000000000000000000000000000000000000000 000000000000000000000000000000000000000     00000000                                                                                                                        000000000000000000
F0010000006026700001000086000259000013050500000000000000000201407150002001BRENNTAG COLOMBIA S.A.                            D000000104133700000000000000000000100010010000000000000000000000F0010000006026700120140715000101 00000000000000000000000000000000000000000000000000000000000000000000000000000000000000000000000000000000000000000N 00000000000NCONT   00    00000000000          00000000000000000000000000000000000000000000 000000000000000A000000000000000000000000000000000000000000000 000000000000000000000000000000000000000     00000000                                                                                                                        000000000000000000
F0010000006026700002000086000259000041450500000000000000000201407150002001BRENNTAG COLOMBIA S.A.                            C000000102122800000000000000000000100010010000000000000000000000F0010000006026700220140715000101 00000000000000000000000000000000000000000000000000000000000000000000000000000000000000000000000000000000000000000N 00000000000NCONT   00    00000000000          00000000000000000000000000000000000000000000 000000000000000A000000000000000000000000000000000000000000000 000000000000000000000000000000000000000     00000000                                                                                                                        000000000000000000
F0010000006026700003000086000259000042505000000000000000000201407150002001BRENNTAG COLOMBIA S.A.                            C000000002010900000000000000000000100010010000000000000000000000F0010000006026700320140715000101 00000000000000000000000000000000000000000000000000000000000000000000000000000000000000000000000000000000000000000N 00000000000NCONT   00    00000000000          00000000000000000000000000000000000000000000 000000000000000A000000000000000000000000000000000000000000000 000000000000000000000000000000000000000     00000000                                                                                                                        000000000000000000
F0010000006026700004000086000259000023658300000000000000000201407150002001BRENNTAG COLOMBIA S.A.                            C000000000817000000000000000000000100010010000000000000000000000F0010000006026700420140715000101 00000000000000000000000000000000000000000000000000000000000000000000000000000000000000000000000000000000000000000N 00000000000NCONT   00    00000000000          00000000000000000000000000000000000000000000 000000000000000A000000000000000000000000000000000000000000000 000000000000000000000000000000000000000     00000000                                                                                                                        000000000000000000
F0010000006026700005000086000259000013552100000000000000000201407150002001BRENNTAG COLOMBIA S.A.                            D000000000817000000000000000000000100010010000000000000000000000F0010000006026700520140715000101 00000000000000000000000000000000000000000000000000000000000000000000000000000000000000000000000000000000000000000N 00000000000NCONT   00    00000000000          00000000000000000000000000000000000000000000 000000000000000A000000000000000000000000000000000000000000000 000000000000000000000000000000000000000     00000000                                                                                                                        000000000000000000
F0010000006026800001000086000089600013050500000000000000000201407150002001SIKA COLOMBIA S.A.                                D000000044917800000000000000000000100010010000000000000000000000F0010000006026800120140715000101 00000000000000000000000000000000000000000000000000000000000000000000000000000000000000000000000000000000000000000N 00000000000NCONT   00    00000000000          00000000000000000000000000000000000000000000 000000000000000A000000000000000000000000000000000000000000000 000000000000000000000000000000000000000     00000000                                                                                                                        000000000000000000
F0010000006026800002000086000089600041450500000000000000000201407150002001SIKA COLOMBIA S.A.                                C000000043211100000000000000000000100010010000000000000000000000F0010000006026800220140715000101 00000000000000000000000000000000000000000000000000000000000000000000000000000000000000000000000000000000000000000N 00000000000NCONT   00    00000000000          00000000000000000000000000000000000000000000 000000000000000A000000000000000000000000000000000000000000000 000000000000000000000000000000000000000     00000000                                                                                                                        000000000000000000
F0010000006026800003000086000089600042505000000000000000000201407150002001SIKA COLOMBIA S.A.                                C000000001706700000000000000000000100010010000000000000000000000F0010000006026800320140715000101 00000000000000000000000000000000000000000000000000000000000000000000000000000000000000000000000000000000000000000N 00000000000NCONT   00    00000000000          00000000000000000000000000000000000000000000 000000000000000A000000000000000000000000000000000000000000000 000000000000000000000000000000000000000     00000000                                                                                                                        000000000000000000
F0010000006026800004000086000089600023658300000000000000000201407150002001SIKA COLOMBIA S.A.                                C000000000345700000000000000000000100010010000000000000000000000F0010000006026800420140715000101 00000000000000000000000000000000000000000000000000000000000000000000000000000000000000000000000000000000000000000N 00000000000NCONT   00    00000000000          00000000000000000000000000000000000000000000 000000000000000A000000000000000000000000000000000000000000000 000000000000000000000000000000000000000     00000000                                                                                                                        000000000000000000
F0010000006026800005000086000089600013552100000000000000000201407150002001SIKA COLOMBIA S.A.                                D000000000345700000000000000000000100010010000000000000000000000F0010000006026800520140715000101 00000000000000000000000000000000000000000000000000000000000000000000000000000000000000000000000000000000000000000N 00000000000NCONT   00    00000000000          00000000000000000000000000000000000000000000 000000000000000A000000000000000000000000000000000000000000000 000000000000000000000000000000000000000     00000000                                                                                                                        000000000000000000
F0010000006026900001000086000089600013050500000000000000000201407150002001SIKA COLOMBIA S.A.                                D000000059860800000000000000000000100010010000000000000000000000F0010000006026900120140715000101 00000000000000000000000000000000000000000000000000000000000000000000000000000000000000000000000000000000000000000N 00000000000NCONT   00    00000000000          00000000000000000000000000000000000000000000 000000000000000A000000000000000000000000000000000000000000000 000000000000000000000000000000000000000     00000000                                                                                                                        000000000000000000
F0010000006026900002000086000089600041450500000000000000000201407150002001SIKA COLOMBIA S.A.                                C000000058000000000000000000000000100010010000000000000000000000F0010000006026900220140715000101 00000000000000000000000000000000000000000000000000000000000000000000000000000000000000000000000000000000000000000N 00000000000NCONT   00    00000000000          00000000000000000000000000000000000000000000 000000000000000A000000000000000000000000000000000000000000000 000000000000000000000000000000000000000     00000000                                                                                                                        000000000000000000
F0010000006026900003000086000089600042505000000000000000000201407150002001SIKA COLOMBIA S.A.                                C000000001860800000000000000000000100010010000000000000000000000F0010000006026900320140715000101 00000000000000000000000000000000000000000000000000000000000000000000000000000000000000000000000000000000000000000N 00000000000NCONT   00    00000000000          00000000000000000000000000000000000000000000 000000000000000A000000000000000000000000000000000000000000000 000000000000000000000000000000000000000     00000000                                                                                                                        000000000000000000
F0010000006026900004000086000089600023658300000000000000000201407150002001SIKA COLOMBIA S.A.                                C000000000464000000000000000000000100010010000000000000000000000F0010000006026900420140715000101 00000000000000000000000000000000000000000000000000000000000000000000000000000000000000000000000000000000000000000N 00000000000NCONT   00    00000000000          00000000000000000000000000000000000000000000 000000000000000A000000000000000000000000000000000000000000000 000000000000000000000000000000000000000     00000000                                                                                                                        000000000000000000
F0010000006026900005000086000089600013552100000000000000000201407150002001SIKA COLOMBIA S.A.                                D000000000464000000000000000000000100010010000000000000000000000F0010000006026900520140715000101 00000000000000000000000000000000000000000000000000000000000000000000000000000000000000000000000000000000000000000N 00000000000NCONT   00    00000000000          00000000000000000000000000000000000000000000 000000000000000A000000000000000000000000000000000000000000000 000000000000000000000000000000000000000     00000000                                                                                                                        000000000000000000
F0010000006027000001000089010131700011050500000000000000000201407150002001SOLDOGAS                                          D000000001500000000000000000000000100010010000000000000000000000F0010000006027000120140715000101 00000000000000000000000000000000000000000000000000000000000000000000000000000000000000000000000000000000000000000N 00000000000NCONT   00    00000000000          00000000000000000000000000000000000000000000 000000000000000A000000000000000000000000000000000000000000000 000000000000000000000000000000000000000     00000000                                                                                                                        000000000000000000
F0010000006027000002000089010131700041450500000000000000000201407150002001SOLDOGAS                                          C000000001270000000000000000000000100010010000000000000000000000F0010000006027000220140715000101 00000000000000000000000000000000000000000000000000000000000000000000000000000000000000000000000000000000000000000N 00000000000NCONT   00    00000000000          00000000000000000000000000000000000000000000 000000000000000A000000000000000000000000000000000000000000000 000000000000000000000000000000000000000     00000000                                                                                                                        000000000000000000
F0010000006027000003000089010131700042505000000000000000000201407150002001SOLDOGAS                                          C000000000230000000000000000000000100010010000000000000000000000F0010000006027000320140715000101 00000000000000000000000000000000000000000000000000000000000000000000000000000000000000000000000000000000000000000N 00000000000NCONT   00    00000000000          00000000000000000000000000000000000000000000 000000000000000A000000000000000000000000000000000000000000000 000000000000000000000000000000000000000     00000000                                                                                                                        000000000000000000
F0010000006027000004000089010131700023658300000000000000000201407150002001SOLDOGAS                                          C000000000010200000000000000000000100010010000000000000000000000F0010000006027000420140715000101 00000000000000000000000000000000000000000000000000000000000000000000000000000000000000000000000000000000000000000N 00000000000NCONT   00    00000000000          00000000000000000000000000000000000000000000 000000000000000A000000000000000000000000000000000000000000000 000000000000000000000000000000000000000     00000000                                                                                                                        000000000000000000
F0010000006027000005000089010131700013552100000000000000000201407150002001SOLDOGAS                                          D000000000010200000000000000000000100010010000000000000000000000F0010000006027000520140715000101 00000000000000000000000000000000000000000000000000000000000000000000000000000000000000000000000000000000000000000N 00000000000NCONT   00    00000000000          00000000000000000000000000000000000000000000 000000000000000A000000000000000000000000000000000000000000000 000000000000000000000000000000000000000     00000000                                                                                                                        000000000000000000
F0010000006027100001000003265780700011050500000000000000000201407150002001ZUNILDA GUERRERO                                  D000000001800000000000000000000000100010010000000000000000000000F0010000006027100120140715000101 00000000000000000000000000000000000000000000000000000000000000000000000000000000000000000000000000000000000000000N 00000000000NCONT   00    00000000000          00000000000000000000000000000000000000000000 000000000000000A000000000000000000000000000000000000000000000 000000000000000000000000000000000000000     00000000                                                                                                                        000000000000000000
F0010000006027100002000003265780700041450500000000000000000201407150002001ZUNILDA GUERRERO                                  C000000001300000000000000000000000100010010000000000000000000000F0010000006027100220140715000101 00000000000000000000000000000000000000000000000000000000000000000000000000000000000000000000000000000000000000000N 00000000000NCONT   00    00000000000          00000000000000000000000000000000000000000000 000000000000000A000000000000000000000000000000000000000000000 000000000000000000000000000000000000000     00000000                                                                                                                        000000000000000000
F0010000006027100003000003265780700042505000000000000000000201407150002001ZUNILDA GUERRERO                                  C000000000500000000000000000000000100010010000000000000000000000F0010000006027100320140715000101 00000000000000000000000000000000000000000000000000000000000000000000000000000000000000000000000000000000000000000N 00000000000NCONT   00    00000000000          00000000000000000000000000000000000000000000 000000000000000A000000000000000000000000000000000000000000000 000000000000000000000000000000000000000     00000000                                                                                                                        000000000000000000
F0010000006027100004000003265780700023658300000000000000000201407150002001ZUNILDA GUERRERO                                  C000000000010400000000000000000000100010010000000000000000000000F0010000006027100420140715000101 00000000000000000000000000000000000000000000000000000000000000000000000000000000000000000000000000000000000000000N 00000000000NCONT   00    00000000000          00000000000000000000000000000000000000000000 000000000000000A000000000000000000000000000000000000000000000 000000000000000000000000000000000000000     00000000                                                                                                                        000000000000000000
F0010000006027100005000003265780700013552100000000000000000201407150002001ZUNILDA GUERRERO                                  D000000000010400000000000000000000100010010000000000000000000000F0010000006027100520140715000101 00000000000000000000000000000000000000000000000000000000000000000000000000000000000000000000000000000000000000000N 00000000000NCONT   00    00000000000          00000000000000000000000000000000000000000000 000000000000000A000000000000000000000000000000000000000000000 000000000000000000000000000000000000000     00000000                                                                                                                        000000000000000000
F0010000006027200001000089011492400013050500000000000000000201407150002001AGE. CAUCHO SOL DE LA COSTA  SAS                  D000000084071100000000000000000000100010010000000000000000000000F0010000006027200120140715000101 00000000000000000000000000000000000000000000000000000000000000000000000000000000000000000000000000000000000000000N 00000000000NCONT   00    00000000000          00000000000000000000000000000000000000000000 000000000000000A000000000000000000000000000000000000000000000 000000000000000000000000000000000000000     00000000                                                                                                                        000000000000000000
F0010000006027200002000089011492400041450500000000000000000201407150002001AGE. CAUCHO SOL DE LA COSTA  SAS                  C000000049880000000000000000000000100010010000000000000000000000F0010000006027200220140715000101 00000000000000000000000000000000000000000000000000000000000000000000000000000000000000000000000000000000000000000N 00000000000NCONT   00    00000000000          00000000000000000000000000000000000000000000 000000000000000A000000000000000000000000000000000000000000000 000000000000000000000000000000000000000     00000000                                                                                                                        000000000000000000
F0010000006027200003000089011492400042505000000000000000000201407150002001AGE. CAUCHO SOL DE LA COSTA  SAS                  C000000034191100000000000000000000100010010000000000000000000000F0010000006027200320140715000101 00000000000000000000000000000000000000000000000000000000000000000000000000000000000000000000000000000000000000000N 00000000000NCONT   00    00000000000          00000000000000000000000000000000000000000000 000000000000000A000000000000000000000000000000000000000000000 000000000000000000000000000000000000000     00000000                                                                                                                        000000000000000000
F0010000006027200004000089011492400023658300000000000000000201407150002001AGE. CAUCHO SOL DE LA COSTA  SAS                  C000000000399000000000000000000000100010010000000000000000000000F0010000006027200420140715000101 00000000000000000000000000000000000000000000000000000000000000000000000000000000000000000000000000000000000000000N 00000000000NCONT   00    00000000000          00000000000000000000000000000000000000000000 000000000000000A000000000000000000000000000000000000000000000 000000000000000000000000000000000000000     00000000                                                                                                                        000000000000000000
F0010000006027200005000089011492400013552100000000000000000201407150002001AGE. CAUCHO SOL DE LA COSTA  SAS                  D000000000399000000000000000000000100010010000000000000000000000F0010000006027200520140715000101 00000000000000000000000000000000000000000000000000000000000000000000000000000000000000000000000000000000000000000N 00000000000NCONT   00    00000000000          00000000000000000000000000000000000000000000 000000000000000A000000000000000000000000000000000000000000000 000000000000000000000000000000000000000     00000000                                                                                                                        000000000000000000
F0010000006027300001000090035510100013050500000000000000000201407150002001GRAINGER COLOMBIA S.A.S.                          D000000007532600000000000000000000100010010000000000000000000000F0010000006027300120140715000101 00000000000000000000000000000000000000000000000000000000000000000000000000000000000000000000000000000000000000000N 00000000000NCONT   00    00000000000          00000000000000000000000000000000000000000000 000000000000000A000000000000000000000000000000000000000000000 000000000000000000000000000000000000000     00000000                                                                                                                        000000000000000000
F0010000006027300002000090035510100041450500000000000000000201407150002001GRAINGER COLOMBIA S.A.S.                          C000000005895200000000000000000000100010010000000000000000000000F0010000006027300220140715000101 00000000000000000000000000000000000000000000000000000000000000000000000000000000000000000000000000000000000000000N 00000000000NCONT   00    00000000000          00000000000000000000000000000000000000000000 000000000000000A000000000000000000000000000000000000000000000 000000000000000000000000000000000000000     00000000                                                                                                                        000000000000000000
F0010000006027300003000090035510100042505000000000000000000201407150002001GRAINGER COLOMBIA S.A.S.                          C000000001637400000000000000000000100010010000000000000000000000F0010000006027300320140715000101 00000000000000000000000000000000000000000000000000000000000000000000000000000000000000000000000000000000000000000N 00000000000NCONT   00    00000000000          00000000000000000000000000000000000000000000 000000000000000A000000000000000000000000000000000000000000000 000000000000000000000000000000000000000     00000000                                                                                                                        000000000000000000
F0010000006027300004000090035510100023658300000000000000000201407150002001GRAINGER COLOMBIA S.A.S.                          C000000000047200000000000000000000100010010000000000000000000000F0010000006027300420140715000101 00000000000000000000000000000000000000000000000000000000000000000000000000000000000000000000000000000000000000000N 00000000000NCONT   00    00000000000          00000000000000000000000000000000000000000000 000000000000000A000000000000000000000000000000000000000000000 000000000000000000000000000000000000000     00000000                                                                                                                        000000000000000000
F0010000006027300005000090035510100013552100000000000000000201407150002001GRAINGER COLOMBIA S.A.S.                          D000000000047200000000000000000000100010010000000000000000000000F0010000006027300520140715000101 00000000000000000000000000000000000000000000000000000000000000000000000000000000000000000000000000000000000000000N 00000000000NCONT   00    00000000000          00000000000000000000000000000000000000000000 000000000000000A000000000000000000000000000000000000000000000 000000000000000000000000000000000000000     00000000                                                                                                                        000000000000000000
F0010000006027400001000089011492400013050500000000000000000201407150002001AGE. CAUCHO SOL DE LA COSTA  SAS                  D000000083154200000000000000000000100010010000000000000000000000F0010000006027400120140715000101 00000000000000000000000000000000000000000000000000000000000000000000000000000000000000000000000000000000000000000N 00000000000NCONT   00    00000000000          00000000000000000000000000000000000000000000 000000000000000A000000000000000000000000000000000000000000000 000000000000000000000000000000000000000     00000000                                                                                                                        000000000000000000
F0010000006027400002000089011492400041450500000000000000000201407150002001AGE. CAUCHO SOL DE LA COSTA  SAS                  C000000050400000000000000000000000100010010000000000000000000000F0010000006027400220140715000101 00000000000000000000000000000000000000000000000000000000000000000000000000000000000000000000000000000000000000000N 00000000000NCONT   00    00000000000          00000000000000000000000000000000000000000000 000000000000000A000000000000000000000000000000000000000000000 000000000000000000000000000000000000000     00000000                                                                                                                        000000000000000000
F0010000006027400003000089011492400042505000000000000000000201407150002001AGE. CAUCHO SOL DE LA COSTA  SAS                  C000000032754200000000000000000000100010010000000000000000000000F0010000006027400320140715000101 00000000000000000000000000000000000000000000000000000000000000000000000000000000000000000000000000000000000000000N 00000000000NCONT   00    00000000000          00000000000000000000000000000000000000000000 000000000000000A000000000000000000000000000000000000000000000 000000000000000000000000000000000000000     00000000                                                                                                                        000000000000000000
F0010000006027400004000089011492400023658300000000000000000201407150002001AGE. CAUCHO SOL DE LA COSTA  SAS                  C000000000403200000000000000000000100010010000000000000000000000F0010000006027400420140715000101 00000000000000000000000000000000000000000000000000000000000000000000000000000000000000000000000000000000000000000N 00000000000NCONT   00    00000000000          00000000000000000000000000000000000000000000 000000000000000A000000000000000000000000000000000000000000000 000000000000000000000000000000000000000     00000000                                                                                                                        000000000000000000
F0010000006027400005000089011492400013552100000000000000000201407150002001AGE. CAUCHO SOL DE LA COSTA  SAS                  D000000000403200000000000000000000100010010000000000000000000000F0010000006027400520140715000101 00000000000000000000000000000000000000000000000000000000000000000000000000000000000000000000000000000000000000000N 00000000000NCONT   00    00000000000          00000000000000000000000000000000000000000000 000000000000000A000000000000000000000000000000000000000000000 000000000000000000000000000000000000000     00000000                                                                                                                        000000000000000000
F0010000006027500001000081102758700013050500000000000000000201407150002001C.I. ABRACOL S.A EMA                              D000000092387600000000000000000000100010010000000000000000000000F0010000006027500120140715000101 00000000000000000000000000000000000000000000000000000000000000000000000000000000000000000000000000000000000000000N 00000000000NCONT   00    00000000000          00000000000000000000000000000000000000000000 000000000000000A000000000000000000000000000000000000000000000 000000000000000000000000000000000000000     00000000                                                                                                                        000000000000000000
F0010000006027500002000081102758700041450500000000000000000201407150002001C.I. ABRACOL S.A EMA                              C000000066750000000000000000000000100010010000000000000000000000F0010000006027500220140715000101 00000000000000000000000000000000000000000000000000000000000000000000000000000000000000000000000000000000000000000N 00000000000NCONT   00    00000000000          00000000000000000000000000000000000000000000 000000000000000A000000000000000000000000000000000000000000000 000000000000000000000000000000000000000     00000000                                                                                                                        000000000000000000
F0010000006027500003000081102758700041750100000000000000000201407150002001C.I. ABRACOL S.A EMA                              D000000002002500000000000000000000100010010000000000000000000000F0010000006027500320140715000101 00000000000000000000000000000000000000000000000000000000000000000000000000000000000000000000000000000000000000000N 00000000000NCONT   00    00000000000          00000000000000000000000000000000000000000000 000000000000000A000000000000000000000000000000000000000000000 000000000000000000000000000000000000000     00000000                                                                                                                        000000000000000000
F0010000006027500004000081102758700042505000000000000000000201407150002001C.I. ABRACOL S.A EMA                              C000000027640100000000000000000000100010010000000000000000000000F0010000006027500420140715000101 00000000000000000000000000000000000000000000000000000000000000000000000000000000000000000000000000000000000000000N 00000000000NCONT   00    00000000000          00000000000000000000000000000000000000000000 000000000000000A000000000000000000000000000000000000000000000 000000000000000000000000000000000000000     00000000                                                                                                                        000000000000000000
F0010000006027500005000081102758700023658300000000000000000201407150002001C.I. ABRACOL S.A EMA                              C000000000534000000000000000000000100010010000000000000000000000F0010000006027500520140715000101 00000000000000000000000000000000000000000000000000000000000000000000000000000000000000000000000000000000000000000N 00000000000NCONT   00    00000000000          00000000000000000000000000000000000000000000 000000000000000A000000000000000000000000000000000000000000000 000000000000000000000000000000000000000     00000000                                                                                                                        000000000000000000
F0010000006027500006000081102758700013552100000000000000000201407150002001C.I. ABRACOL S.A EMA                              D000000000534000000000000000000000100010010000000000000000000000F0010000006027500620140715000101 00000000000000000000000000000000000000000000000000000000000000000000000000000000000000000000000000000000000000000N 00000000000NCONT   00    00000000000          00000000000000000000000000000000000000000000 000000000000000A000000000000000000000000000000000000000000000 000000000000000000000000000000000000000     00000000                                                                                                                        000000000000000000
F0010000006027600001000081102758700013050500000000000000000201407150002001C.I. ABRACOL S.A EMA                              D000000055552700000000000000000000100010010000000000000000000000F0010000006027600120140715000101 00000000000000000000000000000000000000000000000000000000000000000000000000000000000000000000000000000000000000000N 00000000000NCONT   00    00000000000          00000000000000000000000000000000000000000000 000000000000000A000000000000000000000000000000000000000000000 000000000000000000000000000000000000000     00000000                                                                                                                        000000000000000000
F0010000006027600002000081102758700041450500000000000000000201407150002001C.I. ABRACOL S.A EMA                              C000000032690000000000000000000000100010010000000000000000000000F0010000006027600220140715000101 00000000000000000000000000000000000000000000000000000000000000000000000000000000000000000000000000000000000000000N 00000000000NCONT   00    00000000000          00000000000000000000000000000000000000000000 000000000000000A000000000000000000000000000000000000000000000 000000000000000000000000000000000000000     00000000                                                                                                                        000000000000000000
F0010000006027600003000081102758700041750100000000000000000201407150002001C.I. ABRACOL S.A EMA                              D000000000980700000000000000000000100010010000000000000000000000F0010000006027600320140715000101 00000000000000000000000000000000000000000000000000000000000000000000000000000000000000000000000000000000000000000N 00000000000NCONT   00    00000000000          00000000000000000000000000000000000000000000 000000000000000A000000000000000000000000000000000000000000000 000000000000000000000000000000000000000     00000000                                                                                                                        000000000000000000
F0010000006027600004000081102758700042505000000000000000000201407150002001C.I. ABRACOL S.A EMA                              C000000023843400000000000000000000100010010000000000000000000000F0010000006027600420140715000101 00000000000000000000000000000000000000000000000000000000000000000000000000000000000000000000000000000000000000000N 00000000000NCONT   00    00000000000          00000000000000000000000000000000000000000000 000000000000000A000000000000000000000000000000000000000000000 000000000000000000000000000000000000000     00000000                                                                                                                        000000000000000000
F0010000006027600005000081102758700023658300000000000000000201407150002001C.I. ABRACOL S.A EMA                              C000000000261500000000000000000000100010010000000000000000000000F0010000006027600520140715000101 00000000000000000000000000000000000000000000000000000000000000000000000000000000000000000000000000000000000000000N 00000000000NCONT   00    00000000000          00000000000000000000000000000000000000000000 000000000000000A000000000000000000000000000000000000000000000 000000000000000000000000000000000000000     00000000                                                                                                                        000000000000000000
F0010000006027600006000081102758700013552100000000000000000201407150002001C.I. ABRACOL S.A EMA                              D000000000261500000000000000000000100010010000000000000000000000F0010000006027600620140715000101 00000000000000000000000000000000000000000000000000000000000000000000000000000000000000000000000000000000000000000N 00000000000NCONT   00    00000000000          00000000000000000000000000000000000000000000 000000000000000A000000000000000000000000000000000000000000000 000000000000000000000000000000000000000     00000000                                                                                                                        000000000000000000
F0010000006027700001000081102758700013050500000000000000000201407150002001C.I. ABRACOL S.A EMA                              D000000009867900000000000000000000100010010000000000000000000000F0010000006027700120140715000101 00000000000000000000000000000000000000000000000000000000000000000000000000000000000000000000000000000000000000000N 00000000000NCONT   00    00000000000          00000000000000000000000000000000000000000000 000000000000000A000000000000000000000000000000000000000000000 000000000000000000000000000000000000000     00000000                                                                                                                        000000000000000000
F0010000006027700002000081102758700041450500000000000000000201407150002001C.I. ABRACOL S.A EMA                              C000000006453600000000000000000000100010010000000000000000000000F0010000006027700220140715000101 00000000000000000000000000000000000000000000000000000000000000000000000000000000000000000000000000000000000000000N 00000000000NCONT   00    00000000000          00000000000000000000000000000000000000000000 000000000000000A000000000000000000000000000000000000000000000 000000000000000000000000000000000000000     00000000                                                                                                                        000000000000000000
F0010000006027700003000081102758700041750100000000000000000201407150002001C.I. ABRACOL S.A EMA                              D000000000193600000000000000000000100010010000000000000000000000F0010000006027700320140715000101 00000000000000000000000000000000000000000000000000000000000000000000000000000000000000000000000000000000000000000N 00000000000NCONT   00    00000000000          00000000000000000000000000000000000000000000 000000000000000A000000000000000000000000000000000000000000000 000000000000000000000000000000000000000     00000000                                                                                                                        000000000000000000
F0010000006027700004000081102758700042505000000000000000000201407150002001C.I. ABRACOL S.A EMA                              C000000003607900000000000000000000100010010000000000000000000000F0010000006027700420140715000101 00000000000000000000000000000000000000000000000000000000000000000000000000000000000000000000000000000000000000000N 00000000000NCONT   00    00000000000          00000000000000000000000000000000000000000000 000000000000000A000000000000000000000000000000000000000000000 000000000000000000000000000000000000000     00000000                                                                                                                        000000000000000000
F0010000006027700005000081102758700023658300000000000000000201407150002001C.I. ABRACOL S.A EMA                              C000000000051600000000000000000000100010010000000000000000000000F0010000006027700520140715000101 00000000000000000000000000000000000000000000000000000000000000000000000000000000000000000000000000000000000000000N 00000000000NCONT   00    00000000000          00000000000000000000000000000000000000000000 000000000000000A000000000000000000000000000000000000000000000 000000000000000000000000000000000000000     00000000                                                                                                                        000000000000000000
F0010000006027700006000081102758700013552100000000000000000201407150002001C.I. ABRACOL S.A EMA                              D000000000051600000000000000000000100010010000000000000000000000F0010000006027700620140715000101 00000000000000000000000000000000000000000000000000000000000000000000000000000000000000000000000000000000000000000N 00000000000NCONT   00    00000000000          00000000000000000000000000000000000000000000 000000000000000A000000000000000000000000000000000000000000000 000000000000000000000000000000000000000     00000000                                                                                                                        000000000000000000
F0010000006027800001000080200863700013050500000000000000000201407150002001COPIN LTDA                                        D000000151549400000000000000000000100010010000000000000000000000F0010000006027800120140715000101 00000000000000000000000000000000000000000000000000000000000000000000000000000000000000000000000000000000000000000N 00000000000NCONT   00    00000000000          00000000000000000000000000000000000000000000 000000000000000A000000000000000000000000000000000000000000000 000000000000000000000000000000000000000     00000000                                                                                                                        000000000000000000
F0010000006027800002000080200863700041450500000000000000000201407150002001COPIN LTDA                                        C000000138908000000000000000000000100010010000000000000000000000F0010000006027800220140715000101 00000000000000000000000000000000000000000000000000000000000000000000000000000000000000000000000000000000000000000N 00000000000NCONT   00    00000000000          00000000000000000000000000000000000000000000 000000000000000A000000000000000000000000000000000000000000000 000000000000000000000000000000000000000     00000000                                                                                                                        000000000000000000
F0010000006027800003000080200863700042505000000000000000000201407150002001COPIN LTDA                                        C000000012641400000000000000000000100010010000000000000000000000F0010000006027800320140715000101 00000000000000000000000000000000000000000000000000000000000000000000000000000000000000000000000000000000000000000N 00000000000NCONT   00    00000000000          00000000000000000000000000000000000000000000 000000000000000A000000000000000000000000000000000000000000000 000000000000000000000000000000000000000     00000000                                                                                                                        000000000000000000
F0010000006027800004000080200863700023658300000000000000000201407150002001COPIN LTDA                                        C000000001111300000000000000000000100010010000000000000000000000F0010000006027800420140715000101 00000000000000000000000000000000000000000000000000000000000000000000000000000000000000000000000000000000000000000N 00000000000NCONT   00    00000000000          00000000000000000000000000000000000000000000 000000000000000A000000000000000000000000000000000000000000000 000000000000000000000000000000000000000     00000000                                                                                                                        000000000000000000
F0010000006027800005000080200863700013552100000000000000000201407150002001COPIN LTDA                                        D000000001111300000000000000000000100010010000000000000000000000F0010000006027800520140715000101 00000000000000000000000000000000000000000000000000000000000000000000000000000000000000000000000000000000000000000N 00000000000NCONT   00    00000000000          00000000000000000000000000000000000000000000 000000000000000A000000000000000000000000000000000000000000000 000000000000000000000000000000000000000     00000000                                                                                                                        000000000000000000
F0010000006027900001000000808409100011050500000000000000000201407150002001JOSE LUIS TRILLOS BAYONA                          D000000001000000000000000000000000100010010000000000000000000000F0010000006027900120140715000101 00000000000000000000000000000000000000000000000000000000000000000000000000000000000000000000000000000000000000000N 00000000000NCONT   00    00000000000          00000000000000000000000000000000000000000000 000000000000000A000000000000000000000000000000000000000000000 000000000000000000000000000000000000000     00000000                                                                                                                        000000000000000000
F0010000006027900002000000808409100041450500000000000000000201407150002001JOSE LUIS TRILLOS BAYONA                          C000000000900000000000000000000000100010010000000000000000000000F0010000006027900220140715000101 00000000000000000000000000000000000000000000000000000000000000000000000000000000000000000000000000000000000000000N 00000000000NCONT   00    00000000000          00000000000000000000000000000000000000000000 000000000000000A000000000000000000000000000000000000000000000 000000000000000000000000000000000000000     00000000                                                                                                                        000000000000000000
F0010000006027900003000000808409100042505000000000000000000201407150002001JOSE LUIS TRILLOS BAYONA                          C000000000100000000000000000000000100010010000000000000000000000F0010000006027900320140715000101 00000000000000000000000000000000000000000000000000000000000000000000000000000000000000000000000000000000000000000N 00000000000NCONT   00    00000000000          00000000000000000000000000000000000000000000 000000000000000A000000000000000000000000000000000000000000000 000000000000000000000000000000000000000     00000000                                                                                                                        000000000000000000
F0010000006027900004000000808409100023658300000000000000000201407150002001JOSE LUIS TRILLOS BAYONA                          C000000000007200000000000000000000100010010000000000000000000000F0010000006027900420140715000101 00000000000000000000000000000000000000000000000000000000000000000000000000000000000000000000000000000000000000000N 00000000000NCONT   00    00000000000          00000000000000000000000000000000000000000000 000000000000000A000000000000000000000000000000000000000000000 000000000000000000000000000000000000000     00000000                                                                                                                        000000000000000000
F0010000006027900005000000808409100013552100000000000000000201407150002001JOSE LUIS TRILLOS BAYONA                          D000000000007200000000000000000000100010010000000000000000000000F0010000006027900520140715000101 00000000000000000000000000000000000000000000000000000000000000000000000000000000000000000000000000000000000000000N 00000000000NCONT   00    00000000000          00000000000000000000000000000000000000000000 000000000000000A000000000000000000000000000000000000000000000 000000000000000000000000000000000000000     00000000                                                                                                                        000000000000000000
F0010000006028000001000080013087700011050500000000000000000201407150002001MUNDIAL DE METALES LTDA                           D000000027500000000000000000000000100010010000000000000000000000F0010000006028000120140715000101 00000000000000000000000000000000000000000000000000000000000000000000000000000000000000000000000000000000000000000N 00000000000NCONT   00    00000000000          00000000000000000000000000000000000000000000 000000000000000A000000000000000000000000000000000000000000000 000000000000000000000000000000000000000     00000000                                                                                                                        000000000000000000
F0010000006028000002000080013087700041450500000000000000000201407150002001MUNDIAL DE METALES LTDA                           C000000022700000000000000000000000100010010000000000000000000000F0010000006028000220140715000101 00000000000000000000000000000000000000000000000000000000000000000000000000000000000000000000000000000000000000000N 00000000000NCONT   00    00000000000          00000000000000000000000000000000000000000000 000000000000000A000000000000000000000000000000000000000000000 000000000000000000000000000000000000000     00000000                                                                                                                        000000000000000000
F0010000006028000003000080013087700042505000000000000000000201407150002001MUNDIAL DE METALES LTDA                           C000000004800000000000000000000000100010010000000000000000000000F0010000006028000320140715000101 00000000000000000000000000000000000000000000000000000000000000000000000000000000000000000000000000000000000000000N 00000000000NCONT   00    00000000000          00000000000000000000000000000000000000000000 000000000000000A000000000000000000000000000000000000000000000 000000000000000000000000000000000000000     00000000                                                                                                                        000000000000000000
F0010000006028000004000080013087700023658300000000000000000201407150002001MUNDIAL DE METALES LTDA                           C000000000181600000000000000000000100010010000000000000000000000F0010000006028000420140715000101 00000000000000000000000000000000000000000000000000000000000000000000000000000000000000000000000000000000000000000N 00000000000NCONT   00    00000000000          00000000000000000000000000000000000000000000 000000000000000A000000000000000000000000000000000000000000000 000000000000000000000000000000000000000     00000000                                                                                                                        000000000000000000
F0010000006028000005000080013087700013552100000000000000000201407150002001MUNDIAL DE METALES LTDA                           D000000000181600000000000000000000100010010000000000000000000000F0010000006028000520140715000101 00000000000000000000000000000000000000000000000000000000000000000000000000000000000000000000000000000000000000000N 00000000000NCONT   00    00000000000          00000000000000000000000000000000000000000000 000000000000000A000000000000000000000000000000000000000000000 000000000000000000000000000000000000000     00000000                                                                                                                        000000000000000000
F0010000006028100001000090020547900011050500000000000000000201407150002001DAC DEL CARIBE S.A.S.                             D000000001200000000000000000000000100010010000000000000000000000F0010000006028100120140715000101 00000000000000000000000000000000000000000000000000000000000000000000000000000000000000000000000000000000000000000N 00000000000NCONT   00    00000000000          00000000000000000000000000000000000000000000 000000000000000A000000000000000000000000000000000000000000000 000000000000000000000000000000000000000     00000000                                                                                                                        000000000000000000
F0010000006028100002000090020547900041450500000000000000000201407150002001DAC DEL CARIBE S.A.S.                             C000000000900000000000000000000000100010010000000000000000000000F0010000006028100220140715000101 00000000000000000000000000000000000000000000000000000000000000000000000000000000000000000000000000000000000000000N 00000000000NCONT   00    00000000000          00000000000000000000000000000000000000000000 000000000000000A000000000000000000000000000000000000000000000 000000000000000000000000000000000000000     00000000                                                                                                                        000000000000000000
F0010000006028100003000090020547900042505000000000000000000201407150002001DAC DEL CARIBE S.A.S.                             C000000000300000000000000000000000100010010000000000000000000000F0010000006028100320140715000101 00000000000000000000000000000000000000000000000000000000000000000000000000000000000000000000000000000000000000000N 00000000000NCONT   00    00000000000          00000000000000000000000000000000000000000000 000000000000000A000000000000000000000000000000000000000000000 000000000000000000000000000000000000000     00000000                                                                                                                        000000000000000000
F0010000006028100004000090020547900023658300000000000000000201407150002001DAC DEL CARIBE S.A.S.                             C000000000007200000000000000000000100010010000000000000000000000F0010000006028100420140715000101 00000000000000000000000000000000000000000000000000000000000000000000000000000000000000000000000000000000000000000N 00000000000NCONT   00    00000000000          00000000000000000000000000000000000000000000 000000000000000A000000000000000000000000000000000000000000000 000000000000000000000000000000000000000     00000000                                                                                                                        000000000000000000
F0010000006028100005000090020547900013552100000000000000000201407150002001DAC DEL CARIBE S.A.S.                             D000000000007200000000000000000000100010010000000000000000000000F0010000006028100520140715000101 00000000000000000000000000000000000000000000000000000000000000000000000000000000000000000000000000000000000000000N 00000000000NCONT   00    00000000000          00000000000000000000000000000000000000000000 000000000000000A000000000000000000000000000000000000000000000 000000000000000000000000000000000000000     00000000                                                                                                                        000000000000000000
F0010000006028200001000090020547900011050500000000000000000201407150002001DAC DEL CARIBE S.A.S.                             D000000008500000000000000000000000100010010000000000000000000000F0010000006028200120140715000101 00000000000000000000000000000000000000000000000000000000000000000000000000000000000000000000000000000000000000000N 00000000000NCONT   00    00000000000          00000000000000000000000000000000000000000000 000000000000000A000000000000000000000000000000000000000000000 000000000000000000000000000000000000000     00000000                                                                                                                        000000000000000000
F0010000006028200002000090020547900041450500000000000000000201407150002001DAC DEL CARIBE S.A.S.                             C000000007000000000000000000000000100010010000000000000000000000F0010000006028200220140715000101 00000000000000000000000000000000000000000000000000000000000000000000000000000000000000000000000000000000000000000N 00000000000NCONT   00    00000000000          00000000000000000000000000000000000000000000 000000000000000A000000000000000000000000000000000000000000000 000000000000000000000000000000000000000     00000000                                                                                                                        000000000000000000
F0010000006028200003000090020547900042505000000000000000000201407150002001DAC DEL CARIBE S.A.S.                             C000000001500000000000000000000000100010010000000000000000000000F0010000006028200320140715000101 00000000000000000000000000000000000000000000000000000000000000000000000000000000000000000000000000000000000000000N 00000000000NCONT   00    00000000000          00000000000000000000000000000000000000000000 000000000000000A000000000000000000000000000000000000000000000 000000000000000000000000000000000000000     00000000                                                                                                                        000000000000000000
F0010000006028200004000090020547900023658300000000000000000201407150002001DAC DEL CARIBE S.A.S.                             C000000000056000000000000000000000100010010000000000000000000000F0010000006028200420140715000101 00000000000000000000000000000000000000000000000000000000000000000000000000000000000000000000000000000000000000000N 00000000000NCONT   00    00000000000          00000000000000000000000000000000000000000000 000000000000000A000000000000000000000000000000000000000000000 000000000000000000000000000000000000000     00000000                                                                                                                        000000000000000000
F0010000006028200005000090020547900013552100000000000000000201407150002001DAC DEL CARIBE S.A.S.                             D000000000056000000000000000000000100010010000000000000000000000F0010000006028200520140715000101 00000000000000000000000000000000000000000000000000000000000000000000000000000000000000000000000000000000000000000N 00000000000NCONT   00    00000000000          00000000000000000000000000000000000000000000 000000000000000A000000000000000000000000000000000000000000000 000000000000000000000000000000000000000     00000000                                                                                                                        000000000000000000
F0010000006028300001000090020547900011050500000000000000000201407150002001DAC DEL CARIBE S.A.S.                             D000000003100000000000000000000000100010010000000000000000000000F0010000006028300120140715000101 00000000000000000000000000000000000000000000000000000000000000000000000000000000000000000000000000000000000000000N 00000000000NCONT   00    00000000000          00000000000000000000000000000000000000000000 000000000000000A000000000000000000000000000000000000000000000 000000000000000000000000000000000000000     00000000                                                                                                                        000000000000000000
F0010000006028300002000090020547900041450500000000000000000201407150002001DAC DEL CARIBE S.A.S.                             C000000002400000000000000000000000100010010000000000000000000000F0010000006028300220140715000101 00000000000000000000000000000000000000000000000000000000000000000000000000000000000000000000000000000000000000000N 00000000000NCONT   00    00000000000          00000000000000000000000000000000000000000000 000000000000000A000000000000000000000000000000000000000000000 000000000000000000000000000000000000000     00000000                                                                                                                        000000000000000000
F0010000006028300003000090020547900042505000000000000000000201407150002001DAC DEL CARIBE S.A.S.                             C000000000700000000000000000000000100010010000000000000000000000F0010000006028300320140715000101 00000000000000000000000000000000000000000000000000000000000000000000000000000000000000000000000000000000000000000N 00000000000NCONT   00    00000000000          00000000000000000000000000000000000000000000 000000000000000A000000000000000000000000000000000000000000000 000000000000000000000000000000000000000     00000000                                                                                                                        000000000000000000
F0010000006028300004000090020547900023658300000000000000000201407150002001DAC DEL CARIBE S.A.S.                             C000000000019200000000000000000000100010010000000000000000000000F0010000006028300420140715000101 00000000000000000000000000000000000000000000000000000000000000000000000000000000000000000000000000000000000000000N 00000000000NCONT   00    00000000000          00000000000000000000000000000000000000000000 000000000000000A000000000000000000000000000000000000000000000 000000000000000000000000000000000000000     00000000                                                                                                                        000000000000000000
F0010000006028300005000090020547900013552100000000000000000201407150002001DAC DEL CARIBE S.A.S.                             D000000000019200000000000000000000100010010000000000000000000000F0010000006028300520140715000101 00000000000000000000000000000000000000000000000000000000000000000000000000000000000000000000000000000000000000000N 00000000000NCONT   00    00000000000          00000000000000000000000000000000000000000000 000000000000000A000000000000000000000000000000000000000000000 000000000000000000000000000000000000000     00000000                                                                                                                        000000000000000000
F0010000006028400001000090020547900011050500000000000000000201407150002001DAC DEL CARIBE S.A.S.                             D000000003400000000000000000000000100010010000000000000000000000F0010000006028400120140715000101 00000000000000000000000000000000000000000000000000000000000000000000000000000000000000000000000000000000000000000N 00000000000NCONT   00    00000000000          00000000000000000000000000000000000000000000 000000000000000A000000000000000000000000000000000000000000000 000000000000000000000000000000000000000     00000000                                                                                                                        000000000000000000
F0010000006028400002000090020547900041450500000000000000000201407150002001DAC DEL CARIBE S.A.S.                             C000000002400000000000000000000000100010010000000000000000000000F0010000006028400220140715000101 00000000000000000000000000000000000000000000000000000000000000000000000000000000000000000000000000000000000000000N 00000000000NCONT   00    00000000000          00000000000000000000000000000000000000000000 000000000000000A000000000000000000000000000000000000000000000 000000000000000000000000000000000000000     00000000                                                                                                                        000000000000000000
F0010000006028400003000090020547900042505000000000000000000201407150002001DAC DEL CARIBE S.A.S.                             C000000001000000000000000000000000100010010000000000000000000000F0010000006028400320140715000101 00000000000000000000000000000000000000000000000000000000000000000000000000000000000000000000000000000000000000000N 00000000000NCONT   00    00000000000          00000000000000000000000000000000000000000000 000000000000000A000000000000000000000000000000000000000000000 000000000000000000000000000000000000000     00000000                                                                                                                        000000000000000000
F0010000006028400004000090020547900023658300000000000000000201407150002001DAC DEL CARIBE S.A.S.                             C000000000019200000000000000000000100010010000000000000000000000F0010000006028400420140715000101 00000000000000000000000000000000000000000000000000000000000000000000000000000000000000000000000000000000000000000N 00000000000NCONT   00    00000000000          00000000000000000000000000000000000000000000 000000000000000A000000000000000000000000000000000000000000000 000000000000000000000000000000000000000     00000000                                                                                                                        000000000000000000
F0010000006028400005000090020547900013552100000000000000000201407150002001DAC DEL CARIBE S.A.S.                             D000000000019200000000000000000000100010010000000000000000000000F0010000006028400520140715000101 00000000000000000000000000000000000000000000000000000000000000000000000000000000000000000000000000000000000000000N 00000000000NCONT   00    00000000000          00000000000000000000000000000000000000000000 000000000000000A000000000000000000000000000000000000000000000 000000000000000000000000000000000000000     00000000                                                                                                                        000000000000000000
F0010000006028500001000090020547900011050500000000000000000201407150002001DAC DEL CARIBE S.A.S.                             D000000001600000000000000000000000100010010000000000000000000000F0010000006028500120140715000101 00000000000000000000000000000000000000000000000000000000000000000000000000000000000000000000000000000000000000000N 00000000000NCONT   00    00000000000          00000000000000000000000000000000000000000000 000000000000000A000000000000000000000000000000000000000000000 000000000000000000000000000000000000000     00000000                                                                                                                        000000000000000000
F0010000006028500002000090020547900041450500000000000000000201407150002001DAC DEL CARIBE S.A.S.                             C000000001200000000000000000000000100010010000000000000000000000F0010000006028500220140715000101 00000000000000000000000000000000000000000000000000000000000000000000000000000000000000000000000000000000000000000N 00000000000NCONT   00    00000000000          00000000000000000000000000000000000000000000 000000000000000A000000000000000000000000000000000000000000000 000000000000000000000000000000000000000     00000000                                                                                                                        000000000000000000
F0010000006028500003000090020547900042505000000000000000000201407150002001DAC DEL CARIBE S.A.S.                             C000000000400000000000000000000000100010010000000000000000000000F0010000006028500320140715000101 00000000000000000000000000000000000000000000000000000000000000000000000000000000000000000000000000000000000000000N 00000000000NCONT   00    00000000000          00000000000000000000000000000000000000000000 000000000000000A000000000000000000000000000000000000000000000 000000000000000000000000000000000000000     00000000                                                                                                                        000000000000000000
F0010000006028500004000090020547900023658300000000000000000201407150002001DAC DEL CARIBE S.A.S.                             C000000000009600000000000000000000100010010000000000000000000000F0010000006028500420140715000101 00000000000000000000000000000000000000000000000000000000000000000000000000000000000000000000000000000000000000000N 00000000000NCONT   00    00000000000          00000000000000000000000000000000000000000000 000000000000000A000000000000000000000000000000000000000000000 000000000000000000000000000000000000000     00000000                                                                                                                        000000000000000000
F0010000006028500005000090020547900013552100000000000000000201407150002001DAC DEL CARIBE S.A.S.                             D000000000009600000000000000000000100010010000000000000000000000F0010000006028500520140715000101 00000000000000000000000000000000000000000000000000000000000000000000000000000000000000000000000000000000000000000N 00000000000NCONT   00    00000000000          00000000000000000000000000000000000000000000 000000000000000A000000000000000000000000000000000000000000000 000000000000000000000000000000000000000     00000000                                                                                                                        000000000000000000
F0010000006028600001000090020547900011050500000000000000000201407150002001DAC DEL CARIBE S.A.S.                             D000000001700000000000000000000000100010010000000000000000000000F0010000006028600120140715000101 00000000000000000000000000000000000000000000000000000000000000000000000000000000000000000000000000000000000000000N 00000000000NCONT   00    00000000000          00000000000000000000000000000000000000000000 000000000000000A000000000000000000000000000000000000000000000 000000000000000000000000000000000000000     00000000                                                                                                                        000000000000000000
F0010000006028600002000090020547900041450500000000000000000201407150002001DAC DEL CARIBE S.A.S.                             C000000001300000000000000000000000100010010000000000000000000000F0010000006028600220140715000101 00000000000000000000000000000000000000000000000000000000000000000000000000000000000000000000000000000000000000000N 00000000000NCONT   00    00000000000          00000000000000000000000000000000000000000000 000000000000000A000000000000000000000000000000000000000000000 000000000000000000000000000000000000000     00000000                                                                                                                        000000000000000000
F0010000006028600003000090020547900042505000000000000000000201407150002001DAC DEL CARIBE S.A.S.                             C000000000400000000000000000000000100010010000000000000000000000F0010000006028600320140715000101 00000000000000000000000000000000000000000000000000000000000000000000000000000000000000000000000000000000000000000N 00000000000NCONT   00    00000000000          00000000000000000000000000000000000000000000 000000000000000A000000000000000000000000000000000000000000000 000000000000000000000000000000000000000     00000000                                                                                                                        000000000000000000
F0010000006028600004000090020547900023658300000000000000000201407150002001DAC DEL CARIBE S.A.S.                             C000000000010400000000000000000000100010010000000000000000000000F0010000006028600420140715000101 00000000000000000000000000000000000000000000000000000000000000000000000000000000000000000000000000000000000000000N 00000000000NCONT   00    00000000000          00000000000000000000000000000000000000000000 000000000000000A000000000000000000000000000000000000000000000 000000000000000000000000000000000000000     00000000                                                                                                                        000000000000000000
F0010000006028600005000090020547900013552100000000000000000201407150002001DAC DEL CARIBE S.A.S.                             D000000000010400000000000000000000100010010000000000000000000000F0010000006028600520140715000101 00000000000000000000000000000000000000000000000000000000000000000000000000000000000000000000000000000000000000000N 00000000000NCONT   00    00000000000          00000000000000000000000000000000000000000000 000000000000000A000000000000000000000000000000000000000000000 000000000000000000000000000000000000000     00000000                                                                                                                        000000000000000000
F0010000006028700001000090020547900011050500000000000000000201407150002001DAC DEL CARIBE S.A.S.                             D000000001100000000000000000000000100010010000000000000000000000F0010000006028700120140715000101 00000000000000000000000000000000000000000000000000000000000000000000000000000000000000000000000000000000000000000N 00000000000NCONT   00    00000000000          00000000000000000000000000000000000000000000 000000000000000A000000000000000000000000000000000000000000000 000000000000000000000000000000000000000     00000000                                                                                                                        000000000000000000
F0010000006028700002000090020547900041450500000000000000000201407150002001DAC DEL CARIBE S.A.S.                             C000000000900000000000000000000000100010010000000000000000000000F0010000006028700220140715000101 00000000000000000000000000000000000000000000000000000000000000000000000000000000000000000000000000000000000000000N 00000000000NCONT   00    00000000000          00000000000000000000000000000000000000000000 000000000000000A000000000000000000000000000000000000000000000 000000000000000000000000000000000000000     00000000                                                                                                                        000000000000000000
F0010000006028700003000090020547900042505000000000000000000201407150002001DAC DEL CARIBE S.A.S.                             C000000000200000000000000000000000100010010000000000000000000000F0010000006028700320140715000101 00000000000000000000000000000000000000000000000000000000000000000000000000000000000000000000000000000000000000000N 00000000000NCONT   00    00000000000          00000000000000000000000000000000000000000000 000000000000000A000000000000000000000000000000000000000000000 000000000000000000000000000000000000000     00000000                                                                                                                        000000000000000000
F0010000006028700004000090020547900023658300000000000000000201407150002001DAC DEL CARIBE S.A.S.                             C000000000007200000000000000000000100010010000000000000000000000F0010000006028700420140715000101 00000000000000000000000000000000000000000000000000000000000000000000000000000000000000000000000000000000000000000N 00000000000NCONT   00    00000000000          00000000000000000000000000000000000000000000 000000000000000A000000000000000000000000000000000000000000000 000000000000000000000000000000000000000     00000000                                                                                                                        000000000000000000
F0010000006028700005000090020547900013552100000000000000000201407150002001DAC DEL CARIBE S.A.S.                             D000000000007200000000000000000000100010010000000000000000000000F0010000006028700520140715000101 00000000000000000000000000000000000000000000000000000000000000000000000000000000000000000000000000000000000000000N 00000000000NCONT   00    00000000000          00000000000000000000000000000000000000000000 000000000000000A000000000000000000000000000000000000000000000 000000000000000000000000000000000000000     00000000                                                                                                                        000000000000000000
F0010000006028800001000090020547900011050500000000000000000201407150002001DAC DEL CARIBE S.A.S.                             D000000001200000000000000000000000100010010000000000000000000000F0010000006028800120140715000101 00000000000000000000000000000000000000000000000000000000000000000000000000000000000000000000000000000000000000000N 00000000000NCONT   00    00000000000          00000000000000000000000000000000000000000000 000000000000000A000000000000000000000000000000000000000000000 000000000000000000000000000000000000000     00000000                                                                                                                        000000000000000000
F0010000006028800002000090020547900041450500000000000000000201407150002001DAC DEL CARIBE S.A.S.                             C000000000900000000000000000000000100010010000000000000000000000F0010000006028800220140715000101 00000000000000000000000000000000000000000000000000000000000000000000000000000000000000000000000000000000000000000N 00000000000NCONT   00    00000000000          00000000000000000000000000000000000000000000 000000000000000A000000000000000000000000000000000000000000000 000000000000000000000000000000000000000     00000000                                                                                                                        000000000000000000
F0010000006028800003000090020547900042505000000000000000000201407150002001DAC DEL CARIBE S.A.S.                             C000000000300000000000000000000000100010010000000000000000000000F0010000006028800320140715000101 00000000000000000000000000000000000000000000000000000000000000000000000000000000000000000000000000000000000000000N 00000000000NCONT   00    00000000000          00000000000000000000000000000000000000000000 000000000000000A000000000000000000000000000000000000000000000 000000000000000000000000000000000000000     00000000                                                                                                                        000000000000000000
F0010000006028800004000090020547900023658300000000000000000201407150002001DAC DEL CARIBE S.A.S.                             C000000000007200000000000000000000100010010000000000000000000000F0010000006028800420140715000101 00000000000000000000000000000000000000000000000000000000000000000000000000000000000000000000000000000000000000000N 00000000000NCONT   00    00000000000          00000000000000000000000000000000000000000000 000000000000000A000000000000000000000000000000000000000000000 000000000000000000000000000000000000000     00000000                                                                                                                        000000000000000000
F0010000006028800005000090020547900013552100000000000000000201407150002001DAC DEL CARIBE S.A.S.                             D000000000007200000000000000000000100010010000000000000000000000F0010000006028800520140715000101 00000000000000000000000000000000000000000000000000000000000000000000000000000000000000000000000000000000000000000N 00000000000NCONT   00    00000000000          00000000000000000000000000000000000000000000 000000000000000A000000000000000000000000000000000000000000000 000000000000000000000000000000000000000     00000000                                                                                                                        000000000000000000
F0010000006028900001000090020547900011050500000000000000000201407150002001DAC DEL CARIBE S.A.S.                             D000000001300000000000000000000000100010010000000000000000000000F0010000006028900120140715000101 00000000000000000000000000000000000000000000000000000000000000000000000000000000000000000000000000000000000000000N 00000000000NCONT   00    00000000000          00000000000000000000000000000000000000000000 000000000000000A000000000000000000000000000000000000000000000 000000000000000000000000000000000000000     00000000                                                                                                                        000000000000000000
F0010000006028900002000090020547900041450500000000000000000201407150002001DAC DEL CARIBE S.A.S.                             C000000000900000000000000000000000100010010000000000000000000000F0010000006028900220140715000101 00000000000000000000000000000000000000000000000000000000000000000000000000000000000000000000000000000000000000000N 00000000000NCONT   00    00000000000          00000000000000000000000000000000000000000000 000000000000000A000000000000000000000000000000000000000000000 000000000000000000000000000000000000000     00000000                                                                                                                        000000000000000000
F0010000006028900003000090020547900042505000000000000000000201407150002001DAC DEL CARIBE S.A.S.                             C000000000400000000000000000000000100010010000000000000000000000F0010000006028900320140715000101 00000000000000000000000000000000000000000000000000000000000000000000000000000000000000000000000000000000000000000N 00000000000NCONT   00    00000000000          00000000000000000000000000000000000000000000 000000000000000A000000000000000000000000000000000000000000000 000000000000000000000000000000000000000     00000000                                                                                                                        000000000000000000
F0010000006028900004000090020547900023658300000000000000000201407150002001DAC DEL CARIBE S.A.S.                             C000000000007200000000000000000000100010010000000000000000000000F0010000006028900420140715000101 00000000000000000000000000000000000000000000000000000000000000000000000000000000000000000000000000000000000000000N 00000000000NCONT   00    00000000000          00000000000000000000000000000000000000000000 000000000000000A000000000000000000000000000000000000000000000 000000000000000000000000000000000000000     00000000                                                                                                                        000000000000000000
F0010000006028900005000090020547900013552100000000000000000201407150002001DAC DEL CARIBE S.A.S.                             D000000000007200000000000000000000100010010000000000000000000000F0010000006028900520140715000101 00000000000000000000000000000000000000000000000000000000000000000000000000000000000000000000000000000000000000000N 00000000000NCONT   00    00000000000          00000000000000000000000000000000000000000000 000000000000000A000000000000000000000000000000000000000000000 000000000000000000000000000000000000000     00000000                                                                                                                        000000000000000000
F0010000006029000001000090020547900011050500000000000000000201407150002001DAC DEL CARIBE S.A.S.                             D000000001400000000000000000000000100010010000000000000000000000F0010000006029000120140715000101 00000000000000000000000000000000000000000000000000000000000000000000000000000000000000000000000000000000000000000N 00000000000NCONT   00    00000000000          00000000000000000000000000000000000000000000 000000000000000A000000000000000000000000000000000000000000000 000000000000000000000000000000000000000     00000000                                                                                                                        000000000000000000
F0010000006029000002000090020547900041450500000000000000000201407150002001DAC DEL CARIBE S.A.S.                             C000000000900000000000000000000000100010010000000000000000000000F0010000006029000220140715000101 00000000000000000000000000000000000000000000000000000000000000000000000000000000000000000000000000000000000000000N 00000000000NCONT   00    00000000000          00000000000000000000000000000000000000000000 000000000000000A000000000000000000000000000000000000000000000 000000000000000000000000000000000000000     00000000                                                                                                                        000000000000000000
F0010000006029000003000090020547900042505000000000000000000201407150002001DAC DEL CARIBE S.A.S.                             C000000000500000000000000000000000100010010000000000000000000000F0010000006029000320140715000101 00000000000000000000000000000000000000000000000000000000000000000000000000000000000000000000000000000000000000000N 00000000000NCONT   00    00000000000          00000000000000000000000000000000000000000000 000000000000000A000000000000000000000000000000000000000000000 000000000000000000000000000000000000000     00000000                                                                                                                        000000000000000000
F0010000006029000004000090020547900023658300000000000000000201407150002001DAC DEL CARIBE S.A.S.                             C000000000007200000000000000000000100010010000000000000000000000F0010000006029000420140715000101 00000000000000000000000000000000000000000000000000000000000000000000000000000000000000000000000000000000000000000N 00000000000NCONT   00    00000000000          00000000000000000000000000000000000000000000 000000000000000A000000000000000000000000000000000000000000000 000000000000000000000000000000000000000     00000000                                                                                                                        000000000000000000
