F0010000009461800001000009149922500011050500000000000000000201611240002001CARLOS DAVID HERNANDEZ A                          D000000001400000000000000000000000100010010000000000000000000000F0010000009461800120161124000101 00000000000000000000000000000000000000000000000000000000000000000000000000000000000000000000000000000000000000000N 00000000000NCONT   00    00000000000          00000000000000000000000000000000000000000000 000000000000000A000000000000000000000000000000000000000000000 000000000000000000000000000000000000000     00000000                                                                                                                        000000000000000000
F0010000009461800002000009149922500041450500000000000000000201611240002001CARLOS DAVID HERNANDEZ A                          C000000001200000000000000000000000100010010000000000000000000000F0010000009461800220161124000101 00000000000000000000000000000000000000000000000000000000000000000000000000000000000000000000000000000000000000000N 00000000000NCONT   00    00000000000          00000000000000000000000000000000000000000000 000000000000000A000000000000000000000000000000000000000000000 000000000000000000000000000000000000000     00000000                                                                                                                        000000000000000000
F0010000009461800003000009149922500042505000000000000000000201611240002001CARLOS DAVID HERNANDEZ A                          C000000000200000000000000000000000100010010000000000000000000000F0010000009461800320161124000101 00000000000000000000000000000000000000000000000000000000000000000000000000000000000000000000000000000000000000000N 00000000000NCONT   00    00000000000          00000000000000000000000000000000000000000000 000000000000000A000000000000000000000000000000000000000000000 000000000000000000000000000000000000000     00000000                                                                                                                        000000000000000000
F0010000009461800004000009149922500023658300000000000000000201611240002001CARLOS DAVID HERNANDEZ A                          C000000000009600000000000000000000100010010000000000000000000000F0010000009461800420161124000101 00000000000000000000000000000000000000000000000000000000000000000000000000000000000000000000000000000000000000000N 00000000000NCONT   00    00000000000          00000000000000000000000000000000000000000000 000000000000000A000000000000000000000000000000000000000000000 000000000000000000000000000000000000000     00000000                                                                                                                        000000000000000000
F0010000009461800005000009149922500013552100000000000000000201611240002001CARLOS DAVID HERNANDEZ A                          D000000000009600000000000000000000100010010000000000000000000000F0010000009461800520161124000101 00000000000000000000000000000000000000000000000000000000000000000000000000000000000000000000000000000000000000000N 00000000000NCONT   00    00000000000          00000000000000000000000000000000000000000000 000000000000000A000000000000000000000000000000000000000000000 000000000000000000000000000000000000000     00000000                                                                                                                        000000000000000000
F0010000009461900001000000870907300011050500000000000000000201611240002001SURTIDOR FERRETERO                                D000000004000000000000000000000000100010010000000000000000000000F0010000009461900120161124000101 00000000000000000000000000000000000000000000000000000000000000000000000000000000000000000000000000000000000000000N 00000000000NCONT   00    00000000000          00000000000000000000000000000000000000000000 000000000000000A000000000000000000000000000000000000000000000 000000000000000000000000000000000000000     00000000                                                                                                                        000000000000000000
F0010000009461900002000000870907300041450500000000000000000201611240002001SURTIDOR FERRETERO                                C000000003100000000000000000000000100010010000000000000000000000F0010000009461900220161124000101 00000000000000000000000000000000000000000000000000000000000000000000000000000000000000000000000000000000000000000N 00000000000NCONT   00    00000000000          00000000000000000000000000000000000000000000 000000000000000A000000000000000000000000000000000000000000000 000000000000000000000000000000000000000     00000000                                                                                                                        000000000000000000
F0010000009461900003000000870907300042505000000000000000000201611240002001SURTIDOR FERRETERO                                C000000000900000000000000000000000100010010000000000000000000000F0010000009461900320161124000101 00000000000000000000000000000000000000000000000000000000000000000000000000000000000000000000000000000000000000000N 00000000000NCONT   00    00000000000          00000000000000000000000000000000000000000000 000000000000000A000000000000000000000000000000000000000000000 000000000000000000000000000000000000000     00000000                                                                                                                        000000000000000000
F0010000009461900004000000870907300023658300000000000000000201611240002001SURTIDOR FERRETERO                                C000000000024800000000000000000000100010010000000000000000000000F0010000009461900420161124000101 00000000000000000000000000000000000000000000000000000000000000000000000000000000000000000000000000000000000000000N 00000000000NCONT   00    00000000000          00000000000000000000000000000000000000000000 000000000000000A000000000000000000000000000000000000000000000 000000000000000000000000000000000000000     00000000                                                                                                                        000000000000000000
F0010000009461900005000000870907300013552100000000000000000201611240002001SURTIDOR FERRETERO                                D000000000024800000000000000000000100010010000000000000000000000F0010000009461900520161124000101 00000000000000000000000000000000000000000000000000000000000000000000000000000000000000000000000000000000000000000N 00000000000NCONT   00    00000000000          00000000000000000000000000000000000000000000 000000000000000A000000000000000000000000000000000000000000000 000000000000000000000000000000000000000     00000000                                                                                                                        000000000000000000
F0010000009462000001000000744496800011050500000000000000000201611240002001TOMAS SANCHEZ                                     D000000001100000000000000000000000100010010000000000000000000000F0010000009462000120161124000101 00000000000000000000000000000000000000000000000000000000000000000000000000000000000000000000000000000000000000000N 00000000000NCONT   00    00000000000          00000000000000000000000000000000000000000000 000000000000000A000000000000000000000000000000000000000000000 000000000000000000000000000000000000000     00000000                                                                                                                        000000000000000000
F0010000009462000002000000744496800041450500000000000000000201611240002001TOMAS SANCHEZ                                     C000000001000000000000000000000000100010010000000000000000000000F0010000009462000220161124000101 00000000000000000000000000000000000000000000000000000000000000000000000000000000000000000000000000000000000000000N 00000000000NCONT   00    00000000000          00000000000000000000000000000000000000000000 000000000000000A000000000000000000000000000000000000000000000 000000000000000000000000000000000000000     00000000                                                                                                                        000000000000000000
F0010000009462000003000000744496800042505000000000000000000201611240002001TOMAS SANCHEZ                                     C000000000100000000000000000000000100010010000000000000000000000F0010000009462000320161124000101 00000000000000000000000000000000000000000000000000000000000000000000000000000000000000000000000000000000000000000N 00000000000NCONT   00    00000000000          00000000000000000000000000000000000000000000 000000000000000A000000000000000000000000000000000000000000000 000000000000000000000000000000000000000     00000000                                                                                                                        000000000000000000
F0010000009462000004000000744496800023658300000000000000000201611240002001TOMAS SANCHEZ                                     C000000000008000000000000000000000100010010000000000000000000000F0010000009462000420161124000101 00000000000000000000000000000000000000000000000000000000000000000000000000000000000000000000000000000000000000000N 00000000000NCONT   00    00000000000          00000000000000000000000000000000000000000000 000000000000000A000000000000000000000000000000000000000000000 000000000000000000000000000000000000000     00000000                                                                                                                        000000000000000000
F0010000009462000005000000744496800013552100000000000000000201611240002001TOMAS SANCHEZ                                     D000000000008000000000000000000000100010010000000000000000000000F0010000009462000520161124000101 00000000000000000000000000000000000000000000000000000000000000000000000000000000000000000000000000000000000000000N 00000000000NCONT   00    00000000000          00000000000000000000000000000000000000000000 000000000000000A000000000000000000000000000000000000000000000 000000000000000000000000000000000000000     00000000                                                                                                                        000000000000000000
F0010000009462100001000080200250700013050500000000000000000201611240002001ETICOL SAS                                        D000000021100000000000000000000000100010010000000000000000000000F0010000009462100120161124000101 00000000000000000000000000000000000000000000000000000000000000000000000000000000000000000000000000000000000000000N 00000000000NCONT   00    00000000000          00000000000000000000000000000000000000000000 000000000000000A000000000000000000000000000000000000000000000 000000000000000000000000000000000000000     00000000                                                                                                                        000000000000000000
F0010000009462100002000080200250700041450500000000000000000201611240002001ETICOL SAS                                        C000000020400000000000000000000000100010010000000000000000000000F0010000009462100220161124000101 00000000000000000000000000000000000000000000000000000000000000000000000000000000000000000000000000000000000000000N 00000000000NCONT   00    00000000000          00000000000000000000000000000000000000000000 000000000000000A000000000000000000000000000000000000000000000 000000000000000000000000000000000000000     00000000                                                                                                                        000000000000000000
F0010000009462100003000080200250700042505000000000000000000201611240002001ETICOL SAS                                        C000000000700000000000000000000000100010010000000000000000000000F0010000009462100320161124000101 00000000000000000000000000000000000000000000000000000000000000000000000000000000000000000000000000000000000000000N 00000000000NCONT   00    00000000000          00000000000000000000000000000000000000000000 000000000000000A000000000000000000000000000000000000000000000 000000000000000000000000000000000000000     00000000                                                                                                                        000000000000000000
F0010000009462100004000080200250700023658300000000000000000201611240002001ETICOL SAS                                        C000000000163200000000000000000000100010010000000000000000000000F0010000009462100420161124000101 00000000000000000000000000000000000000000000000000000000000000000000000000000000000000000000000000000000000000000N 00000000000NCONT   00    00000000000          00000000000000000000000000000000000000000000 000000000000000A000000000000000000000000000000000000000000000 000000000000000000000000000000000000000     00000000                                                                                                                        000000000000000000
F0010000009462100005000080200250700013552100000000000000000201611240002001ETICOL SAS                                        D000000000163200000000000000000000100010010000000000000000000000F0010000009462100520161124000101 00000000000000000000000000000000000000000000000000000000000000000000000000000000000000000000000000000000000000000N 00000000000NCONT   00    00000000000          00000000000000000000000000000000000000000000 000000000000000A000000000000000000000000000000000000000000000 000000000000000000000000000000000000000     00000000                                                                                                                        000000000000000000
F0010000009462200001000000748239700013050500000000000000000201611240002001RAFAEL NAVARRO URIBE                              D000000022316900000000000000000000100010010000000000000000000000F0010000009462200120161124000101 00000000000000000000000000000000000000000000000000000000000000000000000000000000000000000000000000000000000000000N 00000000000NCONT   00    00000000000          00000000000000000000000000000000000000000000 000000000000000A000000000000000000000000000000000000000000000 000000000000000000000000000000000000000     00000000                                                                                                                        000000000000000000
F0010000009462200002000000748239700041450500000000000000000201611240002001RAFAEL NAVARRO URIBE                              C000000011990000000000000000000000100010010000000000000000000000F0010000009462200220161124000101 00000000000000000000000000000000000000000000000000000000000000000000000000000000000000000000000000000000000000000N 00000000000NCONT   00    00000000000          00000000000000000000000000000000000000000000 000000000000000A000000000000000000000000000000000000000000000 000000000000000000000000000000000000000     00000000                                                                                                                        000000000000000000
F0010000009462200003000000748239700042505000000000000000000201611240002001RAFAEL NAVARRO URIBE                              C000000010326900000000000000000000100010010000000000000000000000F0010000009462200320161124000101 00000000000000000000000000000000000000000000000000000000000000000000000000000000000000000000000000000000000000000N 00000000000NCONT   00    00000000000          00000000000000000000000000000000000000000000 000000000000000A000000000000000000000000000000000000000000000 000000000000000000000000000000000000000     00000000                                                                                                                        000000000000000000
F0010000009462200004000000748239700023658300000000000000000201611240002001RAFAEL NAVARRO URIBE                              C000000000095900000000000000000000100010010000000000000000000000F0010000009462200420161124000101 00000000000000000000000000000000000000000000000000000000000000000000000000000000000000000000000000000000000000000N 00000000000NCONT   00    00000000000          00000000000000000000000000000000000000000000 000000000000000A000000000000000000000000000000000000000000000 000000000000000000000000000000000000000     00000000                                                                                                                        000000000000000000
F0010000009462200005000000748239700013552100000000000000000201611240002001RAFAEL NAVARRO URIBE                              D000000000095900000000000000000000100010010000000000000000000000F0010000009462200520161124000101 00000000000000000000000000000000000000000000000000000000000000000000000000000000000000000000000000000000000000000N 00000000000NCONT   00    00000000000          00000000000000000000000000000000000000000000 000000000000000A000000000000000000000000000000000000000000000 000000000000000000000000000000000000000     00000000                                                                                                                        000000000000000000
F0010000009462300001000089010260300013050500000000000000000201611240002001FEDERICO OSORIO A. S.A.                           D000000069797600000000000000000000100010010000000000000000000000F0010000009462300120161124000101 00000000000000000000000000000000000000000000000000000000000000000000000000000000000000000000000000000000000000000N 00000000000NCONT   00    00000000000          00000000000000000000000000000000000000000000 000000000000000A000000000000000000000000000000000000000000000 000000000000000000000000000000000000000     00000000                                                                                                                        000000000000000000
F0010000009462300002000089010260300041450500000000000000000201611240002001FEDERICO OSORIO A. S.A.                           C000000062040000000000000000000000100010010000000000000000000000F0010000009462300220161124000101 00000000000000000000000000000000000000000000000000000000000000000000000000000000000000000000000000000000000000000N 00000000000NCONT   00    00000000000          00000000000000000000000000000000000000000000 000000000000000A000000000000000000000000000000000000000000000 000000000000000000000000000000000000000     00000000                                                                                                                        000000000000000000
F0010000009462300003000089010260300042505000000000000000000201611240002001FEDERICO OSORIO A. S.A.                           C000000007757600000000000000000000100010010000000000000000000000F0010000009462300320161124000101 00000000000000000000000000000000000000000000000000000000000000000000000000000000000000000000000000000000000000000N 00000000000NCONT   00    00000000000          00000000000000000000000000000000000000000000 000000000000000A000000000000000000000000000000000000000000000 000000000000000000000000000000000000000     00000000                                                                                                                        000000000000000000
F0010000009462300004000089010260300023658300000000000000000201611240002001FEDERICO OSORIO A. S.A.                           C000000000496300000000000000000000100010010000000000000000000000F0010000009462300420161124000101 00000000000000000000000000000000000000000000000000000000000000000000000000000000000000000000000000000000000000000N 00000000000NCONT   00    00000000000          00000000000000000000000000000000000000000000 000000000000000A000000000000000000000000000000000000000000000 000000000000000000000000000000000000000     00000000                                                                                                                        000000000000000000
F0010000009462300005000089010260300013552100000000000000000201611240002001FEDERICO OSORIO A. S.A.                           D000000000496300000000000000000000100010010000000000000000000000F0010000009462300520161124000101 00000000000000000000000000000000000000000000000000000000000000000000000000000000000000000000000000000000000000000N 00000000000NCONT   00    00000000000          00000000000000000000000000000000000000000000 000000000000000A000000000000000000000000000000000000000000000 000000000000000000000000000000000000000     00000000                                                                                                                        000000000000000000
F0010000009462500001000090009800500013050500000000000000000201611240002001GLORIANT CHEMICHALS DE COLOMBIA LTDA              D000000015626000000000000000000000100010010000000000000000000000F0010000009462500120161124000101 00000000000000000000000000000000000000000000000000000000000000000000000000000000000000000000000000000000000000000N 00000000000NCONT   00    00000000000          00000000000000000000000000000000000000000000 000000000000000A000000000000000000000000000000000000000000000 000000000000000000000000000000000000000     00000000                                                                                                                        000000000000000000
F0010000009462500002000090009800500041450500000000000000000201611240002001GLORIANT CHEMICHALS DE COLOMBIA LTDA              C000000012980000000000000000000000100010010000000000000000000000F0010000009462500220161124000101 00000000000000000000000000000000000000000000000000000000000000000000000000000000000000000000000000000000000000000N 00000000000NCONT   00    00000000000          00000000000000000000000000000000000000000000 000000000000000A000000000000000000000000000000000000000000000 000000000000000000000000000000000000000     00000000                                                                                                                        000000000000000000
F0010000009462500003000090009800500042505000000000000000000201611240002001GLORIANT CHEMICHALS DE COLOMBIA LTDA              C000000002646000000000000000000000100010010000000000000000000000F0010000009462500320161124000101 00000000000000000000000000000000000000000000000000000000000000000000000000000000000000000000000000000000000000000N 00000000000NCONT   00    00000000000          00000000000000000000000000000000000000000000 000000000000000A000000000000000000000000000000000000000000000 000000000000000000000000000000000000000     00000000                                                                                                                        000000000000000000
F0010000009462500004000090009800500023658300000000000000000201611240002001GLORIANT CHEMICHALS DE COLOMBIA LTDA              C000000000103800000000000000000000100010010000000000000000000000F0010000009462500420161124000101 00000000000000000000000000000000000000000000000000000000000000000000000000000000000000000000000000000000000000000N 00000000000NCONT   00    00000000000          00000000000000000000000000000000000000000000 000000000000000A000000000000000000000000000000000000000000000 000000000000000000000000000000000000000     00000000                                                                                                                        000000000000000000
F0010000009462500005000090009800500013552100000000000000000201611240002001GLORIANT CHEMICHALS DE COLOMBIA LTDA              D000000000103800000000000000000000100010010000000000000000000000F0010000009462500520161124000101 00000000000000000000000000000000000000000000000000000000000000000000000000000000000000000000000000000000000000000N 00000000000NCONT   00    00000000000          00000000000000000000000000000000000000000000 000000000000000A000000000000000000000000000000000000000000000 000000000000000000000000000000000000000     00000000                                                                                                                        000000000000000000
F0010000009462600001000080004943800013050500000000000000000201611240002001PAPELERIA EL CID S.A.                             D000000014850000000000000000000000100010010000000000000000000000F0010000009462600120161124000101 00000000000000000000000000000000000000000000000000000000000000000000000000000000000000000000000000000000000000000N 00000000000NCONT   00    00000000000          00000000000000000000000000000000000000000000 000000000000000A000000000000000000000000000000000000000000000 000000000000000000000000000000000000000     00000000                                                                                                                        000000000000000000
F0010000009462600002000080004943800041450500000000000000000201611240002001PAPELERIA EL CID S.A.                             C000000010370000000000000000000000100010010000000000000000000000F0010000009462600220161124000101 00000000000000000000000000000000000000000000000000000000000000000000000000000000000000000000000000000000000000000N 00000000000NCONT   00    00000000000          00000000000000000000000000000000000000000000 000000000000000A000000000000000000000000000000000000000000000 000000000000000000000000000000000000000     00000000                                                                                                                        000000000000000000
F0010000009462600003000080004943800042505000000000000000000201611240002001PAPELERIA EL CID S.A.                             C000000004480000000000000000000000100010010000000000000000000000F0010000009462600320161124000101 00000000000000000000000000000000000000000000000000000000000000000000000000000000000000000000000000000000000000000N 00000000000NCONT   00    00000000000          00000000000000000000000000000000000000000000 000000000000000A000000000000000000000000000000000000000000000 000000000000000000000000000000000000000     00000000                                                                                                                        000000000000000000
F0010000009462600004000080004943800023658300000000000000000201611240002001PAPELERIA EL CID S.A.                             C000000000083000000000000000000000100010010000000000000000000000F0010000009462600420161124000101 00000000000000000000000000000000000000000000000000000000000000000000000000000000000000000000000000000000000000000N 00000000000NCONT   00    00000000000          00000000000000000000000000000000000000000000 000000000000000A000000000000000000000000000000000000000000000 000000000000000000000000000000000000000     00000000                                                                                                                        000000000000000000
F0010000009462600005000080004943800013552100000000000000000201611240002001PAPELERIA EL CID S.A.                             D000000000083000000000000000000000100010010000000000000000000000F0010000009462600520161124000101 00000000000000000000000000000000000000000000000000000000000000000000000000000000000000000000000000000000000000000N 00000000000NCONT   00    00000000000          00000000000000000000000000000000000000000000 000000000000000A000000000000000000000000000000000000000000000 000000000000000000000000000000000000000     00000000                                                                                                                        000000000000000000
F0010000009462700001000090060531100013050500000000000000000201611240002001RECUBRIMIENTOS ESENCIALES SAS                     D000000053810000000000000000000000100010010000000000000000000000F0010000009462700120161124000101 00000000000000000000000000000000000000000000000000000000000000000000000000000000000000000000000000000000000000000N 00000000000NCONT   00    00000000000          00000000000000000000000000000000000000000000 000000000000000A000000000000000000000000000000000000000000000 000000000000000000000000000000000000000     00000000                                                                                                                        000000000000000000
F0010000009462700002000090060531100041450500000000000000000201611240002001RECUBRIMIENTOS ESENCIALES SAS                     C000000049560000000000000000000000100010010000000000000000000000F0010000009462700220161124000101 00000000000000000000000000000000000000000000000000000000000000000000000000000000000000000000000000000000000000000N 00000000000NCONT   00    00000000000          00000000000000000000000000000000000000000000 000000000000000A000000000000000000000000000000000000000000000 000000000000000000000000000000000000000     00000000                                                                                                                        000000000000000000
F0010000009462700003000090060531100042505000000000000000000201611240002001RECUBRIMIENTOS ESENCIALES SAS                     C000000004250000000000000000000000100010010000000000000000000000F0010000009462700320161124000101 00000000000000000000000000000000000000000000000000000000000000000000000000000000000000000000000000000000000000000N 00000000000NCONT   00    00000000000          00000000000000000000000000000000000000000000 000000000000000A000000000000000000000000000000000000000000000 000000000000000000000000000000000000000     00000000                                                                                                                        000000000000000000
F0010000009462700004000090060531100023658300000000000000000201611240002001RECUBRIMIENTOS ESENCIALES SAS                     C000000000396500000000000000000000100010010000000000000000000000F0010000009462700420161124000101 00000000000000000000000000000000000000000000000000000000000000000000000000000000000000000000000000000000000000000N 00000000000NCONT   00    00000000000          00000000000000000000000000000000000000000000 000000000000000A000000000000000000000000000000000000000000000 000000000000000000000000000000000000000     00000000                                                                                                                        000000000000000000
F0010000009462700005000090060531100013552100000000000000000201611240002001RECUBRIMIENTOS ESENCIALES SAS                     D000000000396500000000000000000000100010010000000000000000000000F0010000009462700520161124000101 00000000000000000000000000000000000000000000000000000000000000000000000000000000000000000000000000000000000000000N 00000000000NCONT   00    00000000000          00000000000000000000000000000000000000000000 000000000000000A000000000000000000000000000000000000000000000 000000000000000000000000000000000000000     00000000                                                                                                                        000000000000000000
F0010000009462800001000080201127600013050500000000000000000201611240002001ELECTRICOS DEL RUIZ S.A.S.                        D000000025560000000000000000000000100010010000000000000000000000F0010000009462800120161124000101 00000000000000000000000000000000000000000000000000000000000000000000000000000000000000000000000000000000000000000N 00000000000NCONT   00    00000000000          00000000000000000000000000000000000000000000 000000000000000A000000000000000000000000000000000000000000000 000000000000000000000000000000000000000     00000000                                                                                                                        000000000000000000
F0010000009462800002000080201127600041450500000000000000000201611240002001ELECTRICOS DEL RUIZ S.A.S.                        C000000021010000000000000000000000100010010000000000000000000000F0010000009462800220161124000101 00000000000000000000000000000000000000000000000000000000000000000000000000000000000000000000000000000000000000000N 00000000000NCONT   00    00000000000          00000000000000000000000000000000000000000000 000000000000000A000000000000000000000000000000000000000000000 000000000000000000000000000000000000000     00000000                                                                                                                        000000000000000000
F0010000009462800003000080201127600042505000000000000000000201611240002001ELECTRICOS DEL RUIZ S.A.S.                        C000000004550000000000000000000000100010010000000000000000000000F0010000009462800320161124000101 00000000000000000000000000000000000000000000000000000000000000000000000000000000000000000000000000000000000000000N 00000000000NCONT   00    00000000000          00000000000000000000000000000000000000000000 000000000000000A000000000000000000000000000000000000000000000 000000000000000000000000000000000000000     00000000                                                                                                                        000000000000000000
F0010000009462800004000080201127600023658300000000000000000201611240002001ELECTRICOS DEL RUIZ S.A.S.                        C000000000168100000000000000000000100010010000000000000000000000F0010000009462800420161124000101 00000000000000000000000000000000000000000000000000000000000000000000000000000000000000000000000000000000000000000N 00000000000NCONT   00    00000000000          00000000000000000000000000000000000000000000 000000000000000A000000000000000000000000000000000000000000000 000000000000000000000000000000000000000     00000000                                                                                                                        000000000000000000
F0010000009462800005000080201127600013552100000000000000000201611240002001ELECTRICOS DEL RUIZ S.A.S.                        D000000000168100000000000000000000100010010000000000000000000000F0010000009462800520161124000101 00000000000000000000000000000000000000000000000000000000000000000000000000000000000000000000000000000000000000000N 00000000000NCONT   00    00000000000          00000000000000000000000000000000000000000000 000000000000000A000000000000000000000000000000000000000000000 000000000000000000000000000000000000000     00000000                                                                                                                        000000000000000000
F0010000009462900001000090040928000013050500000000000000000201611240002001DISTRIBUCIONES FERRETERAS OTERO & AGUDELO SAS     D000000085600400000000000000000000100010010000000000000000000000F0010000009462900120161124000101 00000000000000000000000000000000000000000000000000000000000000000000000000000000000000000000000000000000000000000N 00000000000NCONT   00    00000000000          00000000000000000000000000000000000000000000 000000000000000A000000000000000000000000000000000000000000000 000000000000000000000000000000000000000     00000000                                                                                                                        000000000000000000
F0010000009462900002000090040928000041450500000000000000000201611240002001DISTRIBUCIONES FERRETERAS OTERO & AGUDELO SAS     C000000077818600000000000000000000100010010000000000000000000000F0010000009462900220161124000101 00000000000000000000000000000000000000000000000000000000000000000000000000000000000000000000000000000000000000000N 00000000000NCONT   00    00000000000          00000000000000000000000000000000000000000000 000000000000000A000000000000000000000000000000000000000000000 000000000000000000000000000000000000000     00000000                                                                                                                        000000000000000000
F0010000009462900003000090040928000042505000000000000000000201611240002001DISTRIBUCIONES FERRETERAS OTERO & AGUDELO SAS     C000000007781800000000000000000000100010010000000000000000000000F0010000009462900320161124000101 00000000000000000000000000000000000000000000000000000000000000000000000000000000000000000000000000000000000000000N 00000000000NCONT   00    00000000000          00000000000000000000000000000000000000000000 000000000000000A000000000000000000000000000000000000000000000 000000000000000000000000000000000000000     00000000                                                                                                                        000000000000000000
F0010000009462900004000090040928000023658300000000000000000201611240002001DISTRIBUCIONES FERRETERAS OTERO & AGUDELO SAS     C000000000622500000000000000000000100010010000000000000000000000F0010000009462900420161124000101 00000000000000000000000000000000000000000000000000000000000000000000000000000000000000000000000000000000000000000N 00000000000NCONT   00    00000000000          00000000000000000000000000000000000000000000 000000000000000A000000000000000000000000000000000000000000000 000000000000000000000000000000000000000     00000000                                                                                                                        000000000000000000
F0010000009462900005000090040928000013552100000000000000000201611240002001DISTRIBUCIONES FERRETERAS OTERO & AGUDELO SAS     D000000000622500000000000000000000100010010000000000000000000000F0010000009462900520161124000101 00000000000000000000000000000000000000000000000000000000000000000000000000000000000000000000000000000000000000000N 00000000000NCONT   00    00000000000          00000000000000000000000000000000000000000000 000000000000000A000000000000000000000000000000000000000000000 000000000000000000000000000000000000000     00000000                                                                                                                        000000000000000000
F0010000009463000001000080019113900013050500000000000000000201611240002001COMERCIAL NOVAPEL LTDA                            D000000021425000000000000000000000100010010000000000000000000000F0010000009463000120161124000101 00000000000000000000000000000000000000000000000000000000000000000000000000000000000000000000000000000000000000000N 00000000000NCONT   00    00000000000          00000000000000000000000000000000000000000000 000000000000000A000000000000000000000000000000000000000000000 000000000000000000000000000000000000000     00000000                                                                                                                        000000000000000000
F0010000009463000002000080019113900041450500000000000000000201611240002001COMERCIAL NOVAPEL LTDA                            C000000019400000000000000000000000100010010000000000000000000000F0010000009463000220161124000101 00000000000000000000000000000000000000000000000000000000000000000000000000000000000000000000000000000000000000000N 00000000000NCONT   00    00000000000          00000000000000000000000000000000000000000000 000000000000000A000000000000000000000000000000000000000000000 000000000000000000000000000000000000000     00000000                                                                                                                        000000000000000000
F0010000009463000003000080019113900042505000000000000000000201611240002001COMERCIAL NOVAPEL LTDA                            C000000002025000000000000000000000100010010000000000000000000000F0010000009463000320161124000101 00000000000000000000000000000000000000000000000000000000000000000000000000000000000000000000000000000000000000000N 00000000000NCONT   00    00000000000          00000000000000000000000000000000000000000000 000000000000000A000000000000000000000000000000000000000000000 000000000000000000000000000000000000000     00000000                                                                                                                        000000000000000000
F0010000009463000004000080019113900023658300000000000000000201611240002001COMERCIAL NOVAPEL LTDA                            C000000000155200000000000000000000100010010000000000000000000000F0010000009463000420161124000101 00000000000000000000000000000000000000000000000000000000000000000000000000000000000000000000000000000000000000000N 00000000000NCONT   00    00000000000          00000000000000000000000000000000000000000000 000000000000000A000000000000000000000000000000000000000000000 000000000000000000000000000000000000000     00000000                                                                                                                        000000000000000000
F0010000009463000005000080019113900013552100000000000000000201611240002001COMERCIAL NOVAPEL LTDA                            D000000000155200000000000000000000100010010000000000000000000000F0010000009463000520161124000101 00000000000000000000000000000000000000000000000000000000000000000000000000000000000000000000000000000000000000000N 00000000000NCONT   00    00000000000          00000000000000000000000000000000000000000000 000000000000000A000000000000000000000000000000000000000000000 000000000000000000000000000000000000000     00000000                                                                                                                        000000000000000000
F0010000009463100001000083007900600013050500000000000000000201611240002001EXPRESO ANDINO DE CARGA SA                        D000000032900000000000000000000000100010010000000000000000000000F0010000009463100120161124000101 00000000000000000000000000000000000000000000000000000000000000000000000000000000000000000000000000000000000000000N 00000000000NCONT   00    00000000000          00000000000000000000000000000000000000000000 000000000000000A000000000000000000000000000000000000000000000 000000000000000000000000000000000000000     00000000                                                                                                                        000000000000000000
F0010000009463100002000083007900600041450500000000000000000201611240002001EXPRESO ANDINO DE CARGA SA                        C000000032700000000000000000000000100010010000000000000000000000F0010000009463100220161124000101 00000000000000000000000000000000000000000000000000000000000000000000000000000000000000000000000000000000000000000N 00000000000NCONT   00    00000000000          00000000000000000000000000000000000000000000 000000000000000A000000000000000000000000000000000000000000000 000000000000000000000000000000000000000     00000000                                                                                                                        000000000000000000
F0010000009463100003000083007900600042505000000000000000000201611240002001EXPRESO ANDINO DE CARGA SA                        C000000000200000000000000000000000100010010000000000000000000000F0010000009463100320161124000101 00000000000000000000000000000000000000000000000000000000000000000000000000000000000000000000000000000000000000000N 00000000000NCONT   00    00000000000          00000000000000000000000000000000000000000000 000000000000000A000000000000000000000000000000000000000000000 000000000000000000000000000000000000000     00000000                                                                                                                        000000000000000000
F0010000009463100004000083007900600023658300000000000000000201611240002001EXPRESO ANDINO DE CARGA SA                        C000000000261600000000000000000000100010010000000000000000000000F0010000009463100420161124000101 00000000000000000000000000000000000000000000000000000000000000000000000000000000000000000000000000000000000000000N 00000000000NCONT   00    00000000000          00000000000000000000000000000000000000000000 000000000000000A000000000000000000000000000000000000000000000 000000000000000000000000000000000000000     00000000                                                                                                                        000000000000000000
F0010000009463100005000083007900600013552100000000000000000201611240002001EXPRESO ANDINO DE CARGA SA                        D000000000261600000000000000000000100010010000000000000000000000F0010000009463100520161124000101 00000000000000000000000000000000000000000000000000000000000000000000000000000000000000000000000000000000000000000N 00000000000NCONT   00    00000000000          00000000000000000000000000000000000000000000 000000000000000A000000000000000000000000000000000000000000000 000000000000000000000000000000000000000     00000000                                                                                                                        000000000000000000
F0010000009463200001000083007900600013050500000000000000000201611240002001EXPRESO ANDINO DE CARGA SA                        D000000038750000000000000000000000100010010000000000000000000000F0010000009463200120161124000101 00000000000000000000000000000000000000000000000000000000000000000000000000000000000000000000000000000000000000000N 00000000000NCONT   00    00000000000          00000000000000000000000000000000000000000000 000000000000000A000000000000000000000000000000000000000000000 000000000000000000000000000000000000000     00000000                                                                                                                        000000000000000000
F0010000009463200002000083007900600041450500000000000000000201611240002001EXPRESO ANDINO DE CARGA SA                        C000000038450000000000000000000000100010010000000000000000000000F0010000009463200220161124000101 00000000000000000000000000000000000000000000000000000000000000000000000000000000000000000000000000000000000000000N 00000000000NCONT   00    00000000000          00000000000000000000000000000000000000000000 000000000000000A000000000000000000000000000000000000000000000 000000000000000000000000000000000000000     00000000                                                                                                                        000000000000000000
F0010000009463200003000083007900600042505000000000000000000201611240002001EXPRESO ANDINO DE CARGA SA                        C000000000300000000000000000000000100010010000000000000000000000F0010000009463200320161124000101 00000000000000000000000000000000000000000000000000000000000000000000000000000000000000000000000000000000000000000N 00000000000NCONT   00    00000000000          00000000000000000000000000000000000000000000 000000000000000A000000000000000000000000000000000000000000000 000000000000000000000000000000000000000     00000000                                                                                                                        000000000000000000
F0010000009463200004000083007900600023658300000000000000000201611240002001EXPRESO ANDINO DE CARGA SA                        C000000000307600000000000000000000100010010000000000000000000000F0010000009463200420161124000101 00000000000000000000000000000000000000000000000000000000000000000000000000000000000000000000000000000000000000000N 00000000000NCONT   00    00000000000          00000000000000000000000000000000000000000000 000000000000000A000000000000000000000000000000000000000000000 000000000000000000000000000000000000000     00000000                                                                                                                        000000000000000000
F0010000009463200005000083007900600013552100000000000000000201611240002001EXPRESO ANDINO DE CARGA SA                        D000000000307600000000000000000000100010010000000000000000000000F0010000009463200520161124000101 00000000000000000000000000000000000000000000000000000000000000000000000000000000000000000000000000000000000000000N 00000000000NCONT   00    00000000000          00000000000000000000000000000000000000000000 000000000000000A000000000000000000000000000000000000000000000 000000000000000000000000000000000000000     00000000                                                                                                                        000000000000000000
F0010000009463300001000080202094000013050500000000000000000201611240002001DISTRIB. OMAR ORREGO S.A.                         D000000054553200000000000000000000100010010000000000000000000000F0010000009463300120161124000101 00000000000000000000000000000000000000000000000000000000000000000000000000000000000000000000000000000000000000000N 00000000000NCONT   00    00000000000          00000000000000000000000000000000000000000000 000000000000000A000000000000000000000000000000000000000000000 000000000000000000000000000000000000000     00000000                                                                                                                        000000000000000000
F0010000009463300002000080202094000041450500000000000000000201611240002001DISTRIB. OMAR ORREGO S.A.                         C000000035160000000000000000000000100010010000000000000000000000F0010000009463300220161124000101 00000000000000000000000000000000000000000000000000000000000000000000000000000000000000000000000000000000000000000N 00000000000NCONT   00    00000000000          00000000000000000000000000000000000000000000 000000000000000A000000000000000000000000000000000000000000000 000000000000000000000000000000000000000     00000000                                                                                                                        000000000000000000
F0010000009463300003000080202094000042505000000000000000000201611240002001DISTRIB. OMAR ORREGO S.A.                         C000000019393200000000000000000000100010010000000000000000000000F0010000009463300320161124000101 00000000000000000000000000000000000000000000000000000000000000000000000000000000000000000000000000000000000000000N 00000000000NCONT   00    00000000000          00000000000000000000000000000000000000000000 000000000000000A000000000000000000000000000000000000000000000 000000000000000000000000000000000000000     00000000                                                                                                                        000000000000000000
F0010000009463300004000080202094000023658300000000000000000201611240002001DISTRIB. OMAR ORREGO S.A.                         C000000000281300000000000000000000100010010000000000000000000000F0010000009463300420161124000101 00000000000000000000000000000000000000000000000000000000000000000000000000000000000000000000000000000000000000000N 00000000000NCONT   00    00000000000          00000000000000000000000000000000000000000000 000000000000000A000000000000000000000000000000000000000000000 000000000000000000000000000000000000000     00000000                                                                                                                        000000000000000000
F0010000009463300005000080202094000013552100000000000000000201611240002001DISTRIB. OMAR ORREGO S.A.                         D000000000281300000000000000000000100010010000000000000000000000F0010000009463300520161124000101 00000000000000000000000000000000000000000000000000000000000000000000000000000000000000000000000000000000000000000N 00000000000NCONT   00    00000000000          00000000000000000000000000000000000000000000 000000000000000A000000000000000000000000000000000000000000000 000000000000000000000000000000000000000     00000000                                                                                                                        000000000000000000
F0010000009463400001000080201112800013050500000000000000000201611240002001CANGURO INTERNATIONAL S.A.                        D000000117660000000000000000000000100010010000000000000000000000F0010000009463400120161124000101 00000000000000000000000000000000000000000000000000000000000000000000000000000000000000000000000000000000000000000N 00000000000NCONT   00    00000000000          00000000000000000000000000000000000000000000 000000000000000A000000000000000000000000000000000000000000000 000000000000000000000000000000000000000     00000000                                                                                                                        000000000000000000
F0010000009463400002000080201112800041450500000000000000000201611240002001CANGURO INTERNATIONAL S.A.                        C000000117660000000000000000000000100010010000000000000000000000F0010000009463400220161124000101 00000000000000000000000000000000000000000000000000000000000000000000000000000000000000000000000000000000000000000N 00000000000NCONT   00    00000000000          00000000000000000000000000000000000000000000 000000000000000A000000000000000000000000000000000000000000000 000000000000000000000000000000000000000     00000000                                                                                                                        000000000000000000
F0010000009463400003000080201112800042505000000000000000000201611240002001CANGURO INTERNATIONAL S.A.                        C000000000000000000000000000000000100010010000000000000000000000F0010000009463400320161124000101 00000000000000000000000000000000000000000000000000000000000000000000000000000000000000000000000000000000000000000N 00000000000NCONT   00    00000000000          00000000000000000000000000000000000000000000 000000000000000A000000000000000000000000000000000000000000000 000000000000000000000000000000000000000     00000000                                                                                                                        000000000000000000
F0010000009463400004000080201112800023658300000000000000000201611240002001CANGURO INTERNATIONAL S.A.                        C000000000941300000000000000000000100010010000000000000000000000F0010000009463400420161124000101 00000000000000000000000000000000000000000000000000000000000000000000000000000000000000000000000000000000000000000N 00000000000NCONT   00    00000000000          00000000000000000000000000000000000000000000 000000000000000A000000000000000000000000000000000000000000000 000000000000000000000000000000000000000     00000000                                                                                                                        000000000000000000
F0010000009463400005000080201112800013552100000000000000000201611240002001CANGURO INTERNATIONAL S.A.                        D000000000941300000000000000000000100010010000000000000000000000F0010000009463400520161124000101 00000000000000000000000000000000000000000000000000000000000000000000000000000000000000000000000000000000000000000N 00000000000NCONT   00    00000000000          00000000000000000000000000000000000000000000 000000000000000A000000000000000000000000000000000000000000000 000000000000000000000000000000000000000     00000000                                                                                                                        000000000000000000
F0010000009463500001000104442469100011050500000000000000000201611240002001ALESSANDRA DE BIASE CELIS                         D000000001300000000000000000000000100010010000000000000000000000F0010000009463500120161124000101 00000000000000000000000000000000000000000000000000000000000000000000000000000000000000000000000000000000000000000N 00000000000NCONT   00    00000000000          00000000000000000000000000000000000000000000 000000000000000A000000000000000000000000000000000000000000000 000000000000000000000000000000000000000     00000000                                                                                                                        000000000000000000
F0010000009463500002000104442469100041450500000000000000000201611240002001ALESSANDRA DE BIASE CELIS                         C000000001200000000000000000000000100010010000000000000000000000F0010000009463500220161124000101 00000000000000000000000000000000000000000000000000000000000000000000000000000000000000000000000000000000000000000N 00000000000NCONT   00    00000000000          00000000000000000000000000000000000000000000 000000000000000A000000000000000000000000000000000000000000000 000000000000000000000000000000000000000     00000000                                                                                                                        000000000000000000
F0010000009463500003000104442469100042505000000000000000000201611240002001ALESSANDRA DE BIASE CELIS                         C000000000100000000000000000000000100010010000000000000000000000F0010000009463500320161124000101 00000000000000000000000000000000000000000000000000000000000000000000000000000000000000000000000000000000000000000N 00000000000NCONT   00    00000000000          00000000000000000000000000000000000000000000 000000000000000A000000000000000000000000000000000000000000000 000000000000000000000000000000000000000     00000000                                                                                                                        000000000000000000
F0010000009463500004000104442469100023658300000000000000000201611240002001ALESSANDRA DE BIASE CELIS                         C000000000009600000000000000000000100010010000000000000000000000F0010000009463500420161124000101 00000000000000000000000000000000000000000000000000000000000000000000000000000000000000000000000000000000000000000N 00000000000NCONT   00    00000000000          00000000000000000000000000000000000000000000 000000000000000A000000000000000000000000000000000000000000000 000000000000000000000000000000000000000     00000000                                                                                                                        000000000000000000
F0010000009463500005000104442469100013552100000000000000000201611240002001ALESSANDRA DE BIASE CELIS                         D000000000009600000000000000000000100010010000000000000000000000F0010000009463500520161124000101 00000000000000000000000000000000000000000000000000000000000000000000000000000000000000000000000000000000000000000N 00000000000NCONT   00    00000000000          00000000000000000000000000000000000000000000 000000000000000A000000000000000000000000000000000000000000000 000000000000000000000000000000000000000     00000000                                                                                                                        000000000000000000
F0010000009463600001000090034602400011050500000000000000000201611240002001PRODUCTOS NACIONALES PARAFINICOS LA CUSTODIA S.A.SD000000001050000000000000000000000100010010000000000000000000000F0010000009463600120161124000101 00000000000000000000000000000000000000000000000000000000000000000000000000000000000000000000000000000000000000000N 00000000000NCONT   00    00000000000          00000000000000000000000000000000000000000000 000000000000000A000000000000000000000000000000000000000000000 000000000000000000000000000000000000000     00000000                                                                                                                        000000000000000000
F0010000009463600002000090034602400041450500000000000000000201611240002001PRODUCTOS NACIONALES PARAFINICOS LA CUSTODIA S.A.SC000000000950000000000000000000000100010010000000000000000000000F0010000009463600220161124000101 00000000000000000000000000000000000000000000000000000000000000000000000000000000000000000000000000000000000000000N 00000000000NCONT   00    00000000000          00000000000000000000000000000000000000000000 000000000000000A000000000000000000000000000000000000000000000 000000000000000000000000000000000000000     00000000                                                                                                                        000000000000000000
F0010000009463600003000090034602400042505000000000000000000201611240002001PRODUCTOS NACIONALES PARAFINICOS LA CUSTODIA S.A.SC000000000100000000000000000000000100010010000000000000000000000F0010000009463600320161124000101 00000000000000000000000000000000000000000000000000000000000000000000000000000000000000000000000000000000000000000N 00000000000NCONT   00    00000000000          00000000000000000000000000000000000000000000 000000000000000A000000000000000000000000000000000000000000000 000000000000000000000000000000000000000     00000000                                                                                                                        000000000000000000
F0010000009463600004000090034602400023658300000000000000000201611240002001PRODUCTOS NACIONALES PARAFINICOS LA CUSTODIA S.A.SC000000000007600000000000000000000100010010000000000000000000000F0010000009463600420161124000101 00000000000000000000000000000000000000000000000000000000000000000000000000000000000000000000000000000000000000000N 00000000000NCONT   00    00000000000          00000000000000000000000000000000000000000000 000000000000000A000000000000000000000000000000000000000000000 000000000000000000000000000000000000000     00000000                                                                                                                        000000000000000000
F0010000009463600005000090034602400013552100000000000000000201611240002001PRODUCTOS NACIONALES PARAFINICOS LA CUSTODIA S.A.SD000000000007600000000000000000000100010010000000000000000000000F0010000009463600520161124000101 00000000000000000000000000000000000000000000000000000000000000000000000000000000000000000000000000000000000000000N 00000000000NCONT   00    00000000000          00000000000000000000000000000000000000000000 000000000000000A000000000000000000000000000000000000000000000 000000000000000000000000000000000000000     00000000                                                                                                                        000000000000000000
F0010000009463700001000000870907300011050500000000000000000201611240002001SURTIDOR FERRETERO                                D000000003400000000000000000000000100010010000000000000000000000F0010000009463700120161124000101 00000000000000000000000000000000000000000000000000000000000000000000000000000000000000000000000000000000000000000N 00000000000NCONT   00    00000000000          00000000000000000000000000000000000000000000 000000000000000A000000000000000000000000000000000000000000000 000000000000000000000000000000000000000     00000000                                                                                                                        000000000000000000
F0010000009463700002000000870907300041450500000000000000000201611240002001SURTIDOR FERRETERO                                C000000001800000000000000000000000100010010000000000000000000000F0010000009463700220161124000101 00000000000000000000000000000000000000000000000000000000000000000000000000000000000000000000000000000000000000000N 00000000000NCONT   00    00000000000          00000000000000000000000000000000000000000000 000000000000000A000000000000000000000000000000000000000000000 000000000000000000000000000000000000000     00000000                                                                                                                        000000000000000000
F0010000009463700003000000870907300042505000000000000000000201611240002001SURTIDOR FERRETERO                                C000000001600000000000000000000000100010010000000000000000000000F0010000009463700320161124000101 00000000000000000000000000000000000000000000000000000000000000000000000000000000000000000000000000000000000000000N 00000000000NCONT   00    00000000000          00000000000000000000000000000000000000000000 000000000000000A000000000000000000000000000000000000000000000 000000000000000000000000000000000000000     00000000                                                                                                                        000000000000000000
F0010000009463700004000000870907300023658300000000000000000201611240002001SURTIDOR FERRETERO                                C000000000014400000000000000000000100010010000000000000000000000F0010000009463700420161124000101 00000000000000000000000000000000000000000000000000000000000000000000000000000000000000000000000000000000000000000N 00000000000NCONT   00    00000000000          00000000000000000000000000000000000000000000 000000000000000A000000000000000000000000000000000000000000000 000000000000000000000000000000000000000     00000000                                                                                                                        000000000000000000
F0010000009463700005000000870907300013552100000000000000000201611240002001SURTIDOR FERRETERO                                D000000000014400000000000000000000100010010000000000000000000000F0010000009463700520161124000101 00000000000000000000000000000000000000000000000000000000000000000000000000000000000000000000000000000000000000000N 00000000000NCONT   00    00000000000          00000000000000000000000000000000000000000000 000000000000000A000000000000000000000000000000000000000000000 000000000000000000000000000000000000000     00000000                                                                                                                        000000000000000000
F0010000009463800001000080014190300011050500000000000000000201611240002001QUIMINSA LTDA                                     D000000001350000000000000000000000100010010000000000000000000000F0010000009463800120161124000101 00000000000000000000000000000000000000000000000000000000000000000000000000000000000000000000000000000000000000000N 00000000000NCONT   00    00000000000          00000000000000000000000000000000000000000000 000000000000000A000000000000000000000000000000000000000000000 000000000000000000000000000000000000000     00000000                                                                                                                        000000000000000000
F0010000009463800002000080014190300041450500000000000000000201611240002001QUIMINSA LTDA                                     C000000001200000000000000000000000100010010000000000000000000000F0010000009463800220161124000101 00000000000000000000000000000000000000000000000000000000000000000000000000000000000000000000000000000000000000000N 00000000000NCONT   00    00000000000          00000000000000000000000000000000000000000000 000000000000000A000000000000000000000000000000000000000000000 000000000000000000000000000000000000000     00000000                                                                                                                        000000000000000000
F0010000009463800003000080014190300042505000000000000000000201611240002001QUIMINSA LTDA                                     C000000000150000000000000000000000100010010000000000000000000000F0010000009463800320161124000101 00000000000000000000000000000000000000000000000000000000000000000000000000000000000000000000000000000000000000000N 00000000000NCONT   00    00000000000          00000000000000000000000000000000000000000000 000000000000000A000000000000000000000000000000000000000000000 000000000000000000000000000000000000000     00000000                                                                                                                        000000000000000000
F0010000009463800004000080014190300023658300000000000000000201611240002001QUIMINSA LTDA                                     C000000000009600000000000000000000100010010000000000000000000000F0010000009463800420161124000101 00000000000000000000000000000000000000000000000000000000000000000000000000000000000000000000000000000000000000000N 00000000000NCONT   00    00000000000          00000000000000000000000000000000000000000000 000000000000000A000000000000000000000000000000000000000000000 000000000000000000000000000000000000000     00000000                                                                                                                        000000000000000000
F0010000009463800005000080014190300013552100000000000000000201611240002001QUIMINSA LTDA                                     D000000000009600000000000000000000100010010000000000000000000000F0010000009463800520161124000101 00000000000000000000000000000000000000000000000000000000000000000000000000000000000000000000000000000000000000000N 00000000000NCONT   00    00000000000          00000000000000000000000000000000000000000000 000000000000000A000000000000000000000000000000000000000000000 000000000000000000000000000000000000000     00000000                                                                                                                        000000000000000000
F0010000009463900001000080014190300011050500000000000000000201611240002001QUIMINSA LTDA                                     D000000007000000000000000000000000100010010000000000000000000000F0010000009463900120161124000101 00000000000000000000000000000000000000000000000000000000000000000000000000000000000000000000000000000000000000000N 00000000000NCONT   00    00000000000          00000000000000000000000000000000000000000000 000000000000000A000000000000000000000000000000000000000000000 000000000000000000000000000000000000000     00000000                                                                                                                        000000000000000000
F0010000009463900002000080014190300041450500000000000000000201611240002001QUIMINSA LTDA                                     C000000006200000000000000000000000100010010000000000000000000000F0010000009463900220161124000101 00000000000000000000000000000000000000000000000000000000000000000000000000000000000000000000000000000000000000000N 00000000000NCONT   00    00000000000          00000000000000000000000000000000000000000000 000000000000000A000000000000000000000000000000000000000000000 000000000000000000000000000000000000000     00000000                                                                                                                        000000000000000000
F0010000009463900003000080014190300042505000000000000000000201611240002001QUIMINSA LTDA                                     C000000000800000000000000000000000100010010000000000000000000000F0010000009463900320161124000101 00000000000000000000000000000000000000000000000000000000000000000000000000000000000000000000000000000000000000000N 00000000000NCONT   00    00000000000          00000000000000000000000000000000000000000000 000000000000000A000000000000000000000000000000000000000000000 000000000000000000000000000000000000000     00000000                                                                                                                        000000000000000000
F0010000009463900004000080014190300023658300000000000000000201611240002001QUIMINSA LTDA                                     C000000000049600000000000000000000100010010000000000000000000000F0010000009463900420161124000101 00000000000000000000000000000000000000000000000000000000000000000000000000000000000000000000000000000000000000000N 00000000000NCONT   00    00000000000          00000000000000000000000000000000000000000000 000000000000000A000000000000000000000000000000000000000000000 000000000000000000000000000000000000000     00000000                                                                                                                        000000000000000000
F0010000009463900005000080014190300013552100000000000000000201611240002001QUIMINSA LTDA                                     D000000000049600000000000000000000100010010000000000000000000000F0010000009463900520161124000101 00000000000000000000000000000000000000000000000000000000000000000000000000000000000000000000000000000000000000000N 00000000000NCONT   00    00000000000          00000000000000000000000000000000000000000000 000000000000000A000000000000000000000000000000000000000000000 000000000000000000000000000000000000000     00000000                                                                                                                        000000000000000000
F0010000009464000001000090073550700011050500000000000000000201611240002001IMPORTADORA DE RODAMIENTOS DE CORDOBA S.A.S.      D000000003200000000000000000000000100010010000000000000000000000F0010000009464000120161124000101 00000000000000000000000000000000000000000000000000000000000000000000000000000000000000000000000000000000000000000N 00000000000NCONT   00    00000000000          00000000000000000000000000000000000000000000 000000000000000A000000000000000000000000000000000000000000000 000000000000000000000000000000000000000     00000000                                                                                                                        000000000000000000
F0010000009464000002000090073550700041450500000000000000000201611240002001IMPORTADORA DE RODAMIENTOS DE CORDOBA S.A.S.      C000000003000000000000000000000000100010010000000000000000000000F0010000009464000220161124000101 00000000000000000000000000000000000000000000000000000000000000000000000000000000000000000000000000000000000000000N 00000000000NCONT   00    00000000000          00000000000000000000000000000000000000000000 000000000000000A000000000000000000000000000000000000000000000 000000000000000000000000000000000000000     00000000                                                                                                                        000000000000000000
F0010000009464000003000090073550700042505000000000000000000201611240002001IMPORTADORA DE RODAMIENTOS DE CORDOBA S.A.S.      C000000000200000000000000000000000100010010000000000000000000000F0010000009464000320161124000101 00000000000000000000000000000000000000000000000000000000000000000000000000000000000000000000000000000000000000000N 00000000000NCONT   00    00000000000          00000000000000000000000000000000000000000000 000000000000000A000000000000000000000000000000000000000000000 000000000000000000000000000000000000000     00000000                                                                                                                        000000000000000000
F0010000009464000004000090073550700023658300000000000000000201611240002001IMPORTADORA DE RODAMIENTOS DE CORDOBA S.A.S.      C000000000024000000000000000000000100010010000000000000000000000F0010000009464000420161124000101 00000000000000000000000000000000000000000000000000000000000000000000000000000000000000000000000000000000000000000N 00000000000NCONT   00    00000000000          00000000000000000000000000000000000000000000 000000000000000A000000000000000000000000000000000000000000000 000000000000000000000000000000000000000     00000000                                                                                                                        000000000000000000
F0010000009464000005000090073550700013552100000000000000000201611240002001IMPORTADORA DE RODAMIENTOS DE CORDOBA S.A.S.      D000000000024000000000000000000000100010010000000000000000000000F0010000009464000520161124000101 00000000000000000000000000000000000000000000000000000000000000000000000000000000000000000000000000000000000000000N 00000000000NCONT   00    00000000000          00000000000000000000000000000000000000000000 000000000000000A000000000000000000000000000000000000000000000 000000000000000000000000000000000000000     00000000                                                                                                                        000000000000000000
F0010000009464100001000080200426600011050500000000000000000201611240002001FERRETERIA METROPOLIS SAS                         D000000010000000000000000000000000100010010000000000000000000000F0010000009464100120161124000101 00000000000000000000000000000000000000000000000000000000000000000000000000000000000000000000000000000000000000000N 00000000000NCONT   00    00000000000          00000000000000000000000000000000000000000000 000000000000000A000000000000000000000000000000000000000000000 000000000000000000000000000000000000000     00000000                                                                                                                        000000000000000000
F0010000009464100002000080200426600041450500000000000000000201611240002001FERRETERIA METROPOLIS SAS                         C000000008000000000000000000000000100010010000000000000000000000F0010000009464100220161124000101 00000000000000000000000000000000000000000000000000000000000000000000000000000000000000000000000000000000000000000N 00000000000NCONT   00    00000000000          00000000000000000000000000000000000000000000 000000000000000A000000000000000000000000000000000000000000000 000000000000000000000000000000000000000     00000000                                                                                                                        000000000000000000
F0010000009464100003000080200426600042505000000000000000000201611240002001FERRETERIA METROPOLIS SAS                         C000000002000000000000000000000000100010010000000000000000000000F0010000009464100320161124000101 00000000000000000000000000000000000000000000000000000000000000000000000000000000000000000000000000000000000000000N 00000000000NCONT   00    00000000000          00000000000000000000000000000000000000000000 000000000000000A000000000000000000000000000000000000000000000 000000000000000000000000000000000000000     00000000                                                                                                                        000000000000000000
F0010000009464100004000080200426600023658300000000000000000201611240002001FERRETERIA METROPOLIS SAS                         C000000000064000000000000000000000100010010000000000000000000000F0010000009464100420161124000101 00000000000000000000000000000000000000000000000000000000000000000000000000000000000000000000000000000000000000000N 00000000000NCONT   00    00000000000          00000000000000000000000000000000000000000000 000000000000000A000000000000000000000000000000000000000000000 000000000000000000000000000000000000000     00000000                                                                                                                        000000000000000000
F0010000009464100005000080200426600013552100000000000000000201611240002001FERRETERIA METROPOLIS SAS                         D000000000064000000000000000000000100010010000000000000000000000F0010000009464100520161124000101 00000000000000000000000000000000000000000000000000000000000000000000000000000000000000000000000000000000000000000N 00000000000NCONT   00    00000000000          00000000000000000000000000000000000000000000 000000000000000A000000000000000000000000000000000000000000000 000000000000000000000000000000000000000     00000000                                                                                                                        000000000000000000
F0010000009464200001000002245670100011050500000000000000000201611240002001YOLANDA  TOBON                                    D000000025800000000000000000000000100010010000000000000000000000F0010000009464200120161124000101 00000000000000000000000000000000000000000000000000000000000000000000000000000000000000000000000000000000000000000N 00000000000NCONT   00    00000000000          00000000000000000000000000000000000000000000 000000000000000A000000000000000000000000000000000000000000000 000000000000000000000000000000000000000     00000000                                                                                                                        000000000000000000
F0010000009464200002000002245670100041450500000000000000000201611240002001YOLANDA  TOBON                                    C000000020000000000000000000000000100010010000000000000000000000F0010000009464200220161124000101 00000000000000000000000000000000000000000000000000000000000000000000000000000000000000000000000000000000000000000N 00000000000NCONT   00    00000000000          00000000000000000000000000000000000000000000 000000000000000A000000000000000000000000000000000000000000000 000000000000000000000000000000000000000     00000000                                                                                                                        000000000000000000
F0010000009464200003000002245670100042505000000000000000000201611240002001YOLANDA  TOBON                                    C000000005800000000000000000000000100010010000000000000000000000F0010000009464200320161124000101 00000000000000000000000000000000000000000000000000000000000000000000000000000000000000000000000000000000000000000N 00000000000NCONT   00    00000000000          00000000000000000000000000000000000000000000 000000000000000A000000000000000000000000000000000000000000000 000000000000000000000000000000000000000     00000000                                                                                                                        000000000000000000
F0010000009464200004000002245670100023658300000000000000000201611240002001YOLANDA  TOBON                                    C000000000160000000000000000000000100010010000000000000000000000F0010000009464200420161124000101 00000000000000000000000000000000000000000000000000000000000000000000000000000000000000000000000000000000000000000N 00000000000NCONT   00    00000000000          00000000000000000000000000000000000000000000 000000000000000A000000000000000000000000000000000000000000000 000000000000000000000000000000000000000     00000000                                                                                                                        000000000000000000
F0010000009464200005000002245670100013552100000000000000000201611240002001YOLANDA  TOBON                                    D000000000160000000000000000000000100010010000000000000000000000F0010000009464200520161124000101 00000000000000000000000000000000000000000000000000000000000000000000000000000000000000000000000000000000000000000N 00000000000NCONT   00    00000000000          00000000000000000000000000000000000000000000 000000000000000A000000000000000000000000000000000000000000000 000000000000000000000000000000000000000     00000000                                                                                                                        000000000000000000
F0010000009464300001000002245670100011050500000000000000000201611240002001YOLANDA  TOBON                                    D000000002700000000000000000000000100010010000000000000000000000F0010000009464300120161124000101 00000000000000000000000000000000000000000000000000000000000000000000000000000000000000000000000000000000000000000N 00000000000NCONT   00    00000000000          00000000000000000000000000000000000000000000 000000000000000A000000000000000000000000000000000000000000000 000000000000000000000000000000000000000     00000000                                                                                                                        000000000000000000
F0010000009464300002000002245670100041450500000000000000000201611240002001YOLANDA  TOBON                                    C000000002200000000000000000000000100010010000000000000000000000F0010000009464300220161124000101 00000000000000000000000000000000000000000000000000000000000000000000000000000000000000000000000000000000000000000N 00000000000NCONT   00    00000000000          00000000000000000000000000000000000000000000 000000000000000A000000000000000000000000000000000000000000000 000000000000000000000000000000000000000     00000000                                                                                                                        000000000000000000
F0010000009464300003000002245670100042505000000000000000000201611240002001YOLANDA  TOBON                                    C000000000500000000000000000000000100010010000000000000000000000F0010000009464300320161124000101 00000000000000000000000000000000000000000000000000000000000000000000000000000000000000000000000000000000000000000N 00000000000NCONT   00    00000000000          00000000000000000000000000000000000000000000 000000000000000A000000000000000000000000000000000000000000000 000000000000000000000000000000000000000     00000000                                                                                                                        000000000000000000
F0010000009464300004000002245670100023658300000000000000000201611240002001YOLANDA  TOBON                                    C000000000017600000000000000000000100010010000000000000000000000F0010000009464300420161124000101 00000000000000000000000000000000000000000000000000000000000000000000000000000000000000000000000000000000000000000N 00000000000NCONT   00    00000000000          00000000000000000000000000000000000000000000 000000000000000A000000000000000000000000000000000000000000000 000000000000000000000000000000000000000     00000000                                                                                                                        000000000000000000
F0010000009464300005000002245670100013552100000000000000000201611240002001YOLANDA  TOBON                                    D000000000017600000000000000000000100010010000000000000000000000F0010000009464300520161124000101 00000000000000000000000000000000000000000000000000000000000000000000000000000000000000000000000000000000000000000N 00000000000NCONT   00    00000000000          00000000000000000000000000000000000000000000 000000000000000A000000000000000000000000000000000000000000000 000000000000000000000000000000000000000     00000000                                                                                                                        000000000000000000
F0010000009464400001000002245670100011050500000000000000000201611240002001YOLANDA  TOBON                                    D000000010200000000000000000000000100010010000000000000000000000F0010000009464400120161124000101 00000000000000000000000000000000000000000000000000000000000000000000000000000000000000000000000000000000000000000N 00000000000NCONT   00    00000000000          00000000000000000000000000000000000000000000 000000000000000A000000000000000000000000000000000000000000000 000000000000000000000000000000000000000     00000000                                                                                                                        000000000000000000
F0010000009464400002000002245670100041450500000000000000000201611240002001YOLANDA  TOBON                                    C000000008300000000000000000000000100010010000000000000000000000F0010000009464400220161124000101 00000000000000000000000000000000000000000000000000000000000000000000000000000000000000000000000000000000000000000N 00000000000NCONT   00    00000000000          00000000000000000000000000000000000000000000 000000000000000A000000000000000000000000000000000000000000000 000000000000000000000000000000000000000     00000000                                                                                                                        000000000000000000
F0010000009464400003000002245670100042505000000000000000000201611240002001YOLANDA  TOBON                                    C000000001900000000000000000000000100010010000000000000000000000F0010000009464400320161124000101 00000000000000000000000000000000000000000000000000000000000000000000000000000000000000000000000000000000000000000N 00000000000NCONT   00    00000000000          00000000000000000000000000000000000000000000 000000000000000A000000000000000000000000000000000000000000000 000000000000000000000000000000000000000     00000000                                                                                                                        000000000000000000
F0010000009464400004000002245670100023658300000000000000000201611240002001YOLANDA  TOBON                                    C000000000066400000000000000000000100010010000000000000000000000F0010000009464400420161124000101 00000000000000000000000000000000000000000000000000000000000000000000000000000000000000000000000000000000000000000N 00000000000NCONT   00    00000000000          00000000000000000000000000000000000000000000 000000000000000A000000000000000000000000000000000000000000000 000000000000000000000000000000000000000     00000000                                                                                                                        000000000000000000
F0010000009464400005000002245670100013552100000000000000000201611240002001YOLANDA  TOBON                                    D000000000066400000000000000000000100010010000000000000000000000F0010000009464400520161124000101 00000000000000000000000000000000000000000000000000000000000000000000000000000000000000000000000000000000000000000N 00000000000NCONT   00    00000000000          00000000000000000000000000000000000000000000 000000000000000A000000000000000000000000000000000000000000000 000000000000000000000000000000000000000     00000000                                                                                                                        000000000000000000
F0010000009464500001000083008772100011050500000000000000000201611240002001ILUMEC SAS                                        D000000001080000000000000000000000100010010000000000000000000000F0010000009464500120161124000101 00000000000000000000000000000000000000000000000000000000000000000000000000000000000000000000000000000000000000000N 00000000000NCONT   00    00000000000          00000000000000000000000000000000000000000000 000000000000000A000000000000000000000000000000000000000000000 000000000000000000000000000000000000000     00000000                                                                                                                        000000000000000000
F0010000009464500002000083008772100041450500000000000000000201611240002001ILUMEC SAS                                        C000000000880000000000000000000000100010010000000000000000000000F0010000009464500220161124000101 00000000000000000000000000000000000000000000000000000000000000000000000000000000000000000000000000000000000000000N 00000000000NCONT   00    00000000000          00000000000000000000000000000000000000000000 000000000000000A000000000000000000000000000000000000000000000 000000000000000000000000000000000000000     00000000                                                                                                                        000000000000000000
F0010000009464500003000083008772100042505000000000000000000201611240002001ILUMEC SAS                                        C000000000200000000000000000000000100010010000000000000000000000F0010000009464500320161124000101 00000000000000000000000000000000000000000000000000000000000000000000000000000000000000000000000000000000000000000N 00000000000NCONT   00    00000000000          00000000000000000000000000000000000000000000 000000000000000A000000000000000000000000000000000000000000000 000000000000000000000000000000000000000     00000000                                                                                                                        000000000000000000
F0010000009464500004000083008772100023658300000000000000000201611240002001ILUMEC SAS                                        C000000000007000000000000000000000100010010000000000000000000000F0010000009464500420161124000101 00000000000000000000000000000000000000000000000000000000000000000000000000000000000000000000000000000000000000000N 00000000000NCONT   00    00000000000          00000000000000000000000000000000000000000000 000000000000000A000000000000000000000000000000000000000000000 000000000000000000000000000000000000000     00000000                                                                                                                        000000000000000000
F0010000009464500005000083008772100013552100000000000000000201611240002001ILUMEC SAS                                        D000000000007000000000000000000000100010010000000000000000000000F0010000009464500520161124000101 00000000000000000000000000000000000000000000000000000000000000000000000000000000000000000000000000000000000000000N 00000000000NCONT   00    00000000000          00000000000000000000000000000000000000000000 000000000000000A000000000000000000000000000000000000000000000 000000000000000000000000000000000000000     00000000                                                                                                                        000000000000000000
F0010000009464600001000083008772100011050500000000000000000201611240002001ILUMEC SAS                                        D000000001230000000000000000000000100010010000000000000000000000F0010000009464600120161124000101 00000000000000000000000000000000000000000000000000000000000000000000000000000000000000000000000000000000000000000N 00000000000NCONT   00    00000000000          00000000000000000000000000000000000000000000 000000000000000A000000000000000000000000000000000000000000000 000000000000000000000000000000000000000     00000000                                                                                                                        000000000000000000
F0010000009464600002000083008772100041450500000000000000000201611240002001ILUMEC SAS                                        C000000000880000000000000000000000100010010000000000000000000000F0010000009464600220161124000101 00000000000000000000000000000000000000000000000000000000000000000000000000000000000000000000000000000000000000000N 00000000000NCONT   00    00000000000          00000000000000000000000000000000000000000000 000000000000000A000000000000000000000000000000000000000000000 000000000000000000000000000000000000000     00000000                                                                                                                        000000000000000000
F0010000009464600003000083008772100042505000000000000000000201611240002001ILUMEC SAS                                        C000000000350000000000000000000000100010010000000000000000000000F0010000009464600320161124000101 00000000000000000000000000000000000000000000000000000000000000000000000000000000000000000000000000000000000000000N 00000000000NCONT   00    00000000000          00000000000000000000000000000000000000000000 000000000000000A000000000000000000000000000000000000000000000 000000000000000000000000000000000000000     00000000                                                                                                                        000000000000000000
F0010000009464600004000083008772100023658300000000000000000201611240002001ILUMEC SAS                                        C000000000007000000000000000000000100010010000000000000000000000F0010000009464600420161124000101 00000000000000000000000000000000000000000000000000000000000000000000000000000000000000000000000000000000000000000N 00000000000NCONT   00    00000000000          00000000000000000000000000000000000000000000 000000000000000A000000000000000000000000000000000000000000000 000000000000000000000000000000000000000     00000000                                                                                                                        000000000000000000
F0010000009464600005000083008772100013552100000000000000000201611240002001ILUMEC SAS                                        D000000000007000000000000000000000100010010000000000000000000000F0010000009464600520161124000101 00000000000000000000000000000000000000000000000000000000000000000000000000000000000000000000000000000000000000000N 00000000000NCONT   00    00000000000          00000000000000000000000000000000000000000000 000000000000000A000000000000000000000000000000000000000000000 000000000000000000000000000000000000000     00000000                                                                                                                        000000000000000000
F0010000009464700001000089011078600011050500000000000000000201611240002001DIST. NUEVO MUNDO S.A.S.                          D000000002865000000000000000000000100010010000000000000000000000F0010000009464700120161124000101 00000000000000000000000000000000000000000000000000000000000000000000000000000000000000000000000000000000000000000N 00000000000NCONT   00    00000000000          00000000000000000000000000000000000000000000 000000000000000A000000000000000000000000000000000000000000000 000000000000000000000000000000000000000     00000000                                                                                                                        000000000000000000
F0010000009464700002000089011078600041450500000000000000000201611240002001DIST. NUEVO MUNDO S.A.S.                          C000000002340000000000000000000000100010010000000000000000000000F0010000009464700220161124000101 00000000000000000000000000000000000000000000000000000000000000000000000000000000000000000000000000000000000000000N 00000000000NCONT   00    00000000000          00000000000000000000000000000000000000000000 000000000000000A000000000000000000000000000000000000000000000 000000000000000000000000000000000000000     00000000                                                                                                                        000000000000000000
F0010000009464700003000089011078600042505000000000000000000201611240002001DIST. NUEVO MUNDO S.A.S.                          C000000000525000000000000000000000100010010000000000000000000000F0010000009464700320161124000101 00000000000000000000000000000000000000000000000000000000000000000000000000000000000000000000000000000000000000000N 00000000000NCONT   00    00000000000          00000000000000000000000000000000000000000000 000000000000000A000000000000000000000000000000000000000000000 000000000000000000000000000000000000000     00000000                                                                                                                        000000000000000000
F0010000009464700004000089011078600023658300000000000000000201611240002001DIST. NUEVO MUNDO S.A.S.                          C000000000018700000000000000000000100010010000000000000000000000F0010000009464700420161124000101 00000000000000000000000000000000000000000000000000000000000000000000000000000000000000000000000000000000000000000N 00000000000NCONT   00    00000000000          00000000000000000000000000000000000000000000 000000000000000A000000000000000000000000000000000000000000000 000000000000000000000000000000000000000     00000000                                                                                                                        000000000000000000
F0010000009464700005000089011078600013552100000000000000000201611240002001DIST. NUEVO MUNDO S.A.S.                          D000000000018700000000000000000000100010010000000000000000000000F0010000009464700520161124000101 00000000000000000000000000000000000000000000000000000000000000000000000000000000000000000000000000000000000000000N 00000000000NCONT   00    00000000000          00000000000000000000000000000000000000000000 000000000000000A000000000000000000000000000000000000000000000 000000000000000000000000000000000000000     00000000                                                                                                                        000000000000000000
F0010000009464800001000086003979400011050500000000000000000201611240002001CALYPSO BARRANQUILLA LTDA                         D000000001563500000000000000000000100010010000000000000000000000F0010000009464800120161124000101 00000000000000000000000000000000000000000000000000000000000000000000000000000000000000000000000000000000000000000N 00000000000NCONT   00    00000000000          00000000000000000000000000000000000000000000 000000000000000A000000000000000000000000000000000000000000000 000000000000000000000000000000000000000     00000000                                                                                                                        000000000000000000
F0010000009464800002000086003979400041450500000000000000000201611240002001CALYPSO BARRANQUILLA LTDA                         C000000001320000000000000000000000100010010000000000000000000000F0010000009464800220161124000101 00000000000000000000000000000000000000000000000000000000000000000000000000000000000000000000000000000000000000000N 00000000000NCONT   00    00000000000          00000000000000000000000000000000000000000000 000000000000000A000000000000000000000000000000000000000000000 000000000000000000000000000000000000000     00000000                                                                                                                        000000000000000000
