F0010000010121800001000101846849400013050500000000000000000201704290002001SIMON JACOBO CANTILLO GALLEGO                     D000000005225000000000000000000000100010010000000000000000000000F0010000010121800120170429000101 00000000000000000000000000000000000000000000000000000000000000000000000000000000000000000000000000000000000000000N 00000000000NCONT   00    00000000000          00000000000000000000000000000000000000000000 000000000000000A000000000000000000000000000000000000000000000 000000000000000000000000000000000000000     00000000                                                                                                                        000000000000000000
F0010000010121800002000101846849400041450500000000000000000201704290002001SIMON JACOBO CANTILLO GALLEGO                     C000000004400000000000000000000000100010010000000000000000000000F0010000010121800220170429000101 00000000000000000000000000000000000000000000000000000000000000000000000000000000000000000000000000000000000000000N 00000000000NCONT   00    00000000000          00000000000000000000000000000000000000000000 000000000000000A000000000000000000000000000000000000000000000 000000000000000000000000000000000000000     00000000                                                                                                                        000000000000000000
F0010000010121800003000101846849400042505000000000000000000201704290002001SIMON JACOBO CANTILLO GALLEGO                     C000000000825000000000000000000000100010010000000000000000000000F0010000010121800320170429000101 00000000000000000000000000000000000000000000000000000000000000000000000000000000000000000000000000000000000000000N 00000000000NCONT   00    00000000000          00000000000000000000000000000000000000000000 000000000000000A000000000000000000000000000000000000000000000 000000000000000000000000000000000000000     00000000                                                                                                                        000000000000000000
F0010000010121800004000101846849400023658300000000000000000201704290002001SIMON JACOBO CANTILLO GALLEGO                     C000000000000000000000000000000000100010010000000000000000000000F0010000010121800420170429000101 00000000000000000000000000000000000000000000000000000000000000000000000000000000000000000000000000000000000000000N 00000000000NCONT   00    00000000000          00000000000000000000000000000000000000000000 000000000000000A000000000000000000000000000000000000000000000 000000000000000000000000000000000000000     00000000                                                                                                                        000000000000000000
F0010000010121800005000101846849400013552100000000000000000201704290002001SIMON JACOBO CANTILLO GALLEGO                     D000000000000000000000000000000000100010010000000000000000000000F0010000010121800520170429000101 00000000000000000000000000000000000000000000000000000000000000000000000000000000000000000000000000000000000000000N 00000000000NCONT   00    00000000000          00000000000000000000000000000000000000000000 000000000000000A000000000000000000000000000000000000000000000 000000000000000000000000000000000000000     00000000                                                                                                                        000000000000000000
F0010000010121900001000083007900600013050500000000000000000201704290002001EXPRESO ANDINO DE CARGA SA                        D000000018200000000000000000000000100010010000000000000000000000F0010000010121900120170429000101 00000000000000000000000000000000000000000000000000000000000000000000000000000000000000000000000000000000000000000N 00000000000NCONT   00    00000000000          00000000000000000000000000000000000000000000 000000000000000A000000000000000000000000000000000000000000000 000000000000000000000000000000000000000     00000000                                                                                                                        000000000000000000
F0010000010121900002000083007900600041450500000000000000000201704290002001EXPRESO ANDINO DE CARGA SA                        C000000017500000000000000000000000100010010000000000000000000000F0010000010121900220170429000101 00000000000000000000000000000000000000000000000000000000000000000000000000000000000000000000000000000000000000000N 00000000000NCONT   00    00000000000          00000000000000000000000000000000000000000000 000000000000000A000000000000000000000000000000000000000000000 000000000000000000000000000000000000000     00000000                                                                                                                        000000000000000000
F0010000010121900003000083007900600042505000000000000000000201704290002001EXPRESO ANDINO DE CARGA SA                        C000000000700000000000000000000000100010010000000000000000000000F0010000010121900320170429000101 00000000000000000000000000000000000000000000000000000000000000000000000000000000000000000000000000000000000000000N 00000000000NCONT   00    00000000000          00000000000000000000000000000000000000000000 000000000000000A000000000000000000000000000000000000000000000 000000000000000000000000000000000000000     00000000                                                                                                                        000000000000000000
F0010000010121900004000083007900600023658300000000000000000201704290002001EXPRESO ANDINO DE CARGA SA                        C000000000000000000000000000000000100010010000000000000000000000F0010000010121900420170429000101 00000000000000000000000000000000000000000000000000000000000000000000000000000000000000000000000000000000000000000N 00000000000NCONT   00    00000000000          00000000000000000000000000000000000000000000 000000000000000A000000000000000000000000000000000000000000000 000000000000000000000000000000000000000     00000000                                                                                                                        000000000000000000
F0010000010121900005000083007900600013552100000000000000000201704290002001EXPRESO ANDINO DE CARGA SA                        D000000000000000000000000000000000100010010000000000000000000000F0010000010121900520170429000101 00000000000000000000000000000000000000000000000000000000000000000000000000000000000000000000000000000000000000000N 00000000000NCONT   00    00000000000          00000000000000000000000000000000000000000000 000000000000000A000000000000000000000000000000000000000000000 000000000000000000000000000000000000000     00000000                                                                                                                        000000000000000000
