F0010000008089900001000009120302700011050500000000000000000201512270002001CALZADO REY ESTEBAN                               D000000001600000000000000000000000100010010000000000000000000000F0010000008089900120151227000101 00000000000000000000000000000000000000000000000000000000000000000000000000000000000000000000000000000000000000000N 00000000000NCONT   00    00000000000          00000000000000000000000000000000000000000000 000000000000000A000000000000000000000000000000000000000000000 000000000000000000000000000000000000000     00000000                                                                                                                        000000000000000000
F0010000008089900002000009120302700041450500000000000000000201512270002001CALZADO REY ESTEBAN                               C000000001200000000000000000000000100010010000000000000000000000F0010000008089900220151227000101 00000000000000000000000000000000000000000000000000000000000000000000000000000000000000000000000000000000000000000N 00000000000NCONT   00    00000000000          00000000000000000000000000000000000000000000 000000000000000A000000000000000000000000000000000000000000000 000000000000000000000000000000000000000     00000000                                                                                                                        000000000000000000
F0010000008089900003000009120302700042505000000000000000000201512270002001CALZADO REY ESTEBAN                               C000000000400000000000000000000000100010010000000000000000000000F0010000008089900320151227000101 00000000000000000000000000000000000000000000000000000000000000000000000000000000000000000000000000000000000000000N 00000000000NCONT   00    00000000000          00000000000000000000000000000000000000000000 000000000000000A000000000000000000000000000000000000000000000 000000000000000000000000000000000000000     00000000                                                                                                                        000000000000000000
F0010000008089900004000009120302700023658300000000000000000201512270002001CALZADO REY ESTEBAN                               C000000000009600000000000000000000100010010000000000000000000000F0010000008089900420151227000101 00000000000000000000000000000000000000000000000000000000000000000000000000000000000000000000000000000000000000000N 00000000000NCONT   00    00000000000          00000000000000000000000000000000000000000000 000000000000000A000000000000000000000000000000000000000000000 000000000000000000000000000000000000000     00000000                                                                                                                        000000000000000000
F0010000008089900005000009120302700013552100000000000000000201512270002001CALZADO REY ESTEBAN                               D000000000009600000000000000000000100010010000000000000000000000F0010000008089900520151227000101 00000000000000000000000000000000000000000000000000000000000000000000000000000000000000000000000000000000000000000N 00000000000NCONT   00    00000000000          00000000000000000000000000000000000000000000 000000000000000A000000000000000000000000000000000000000000000 000000000000000000000000000000000000000     00000000                                                                                                                        000000000000000000
F0010000008090000001000007221137900011050500000000000000000201512270002001CARLOS POLO                                       D000000001600000000000000000000000100010010000000000000000000000F0010000008090000120151227000101 00000000000000000000000000000000000000000000000000000000000000000000000000000000000000000000000000000000000000000N 00000000000NCONT   00    00000000000          00000000000000000000000000000000000000000000 000000000000000A000000000000000000000000000000000000000000000 000000000000000000000000000000000000000     00000000                                                                                                                        000000000000000000
F0010000008090000002000007221137900041450500000000000000000201512270002001CARLOS POLO                                       C000000001200000000000000000000000100010010000000000000000000000F0010000008090000220151227000101 00000000000000000000000000000000000000000000000000000000000000000000000000000000000000000000000000000000000000000N 00000000000NCONT   00    00000000000          00000000000000000000000000000000000000000000 000000000000000A000000000000000000000000000000000000000000000 000000000000000000000000000000000000000     00000000                                                                                                                        000000000000000000
F0010000008090000003000007221137900042505000000000000000000201512270002001CARLOS POLO                                       C000000000400000000000000000000000100010010000000000000000000000F0010000008090000320151227000101 00000000000000000000000000000000000000000000000000000000000000000000000000000000000000000000000000000000000000000N 00000000000NCONT   00    00000000000          00000000000000000000000000000000000000000000 000000000000000A000000000000000000000000000000000000000000000 000000000000000000000000000000000000000     00000000                                                                                                                        000000000000000000
F0010000008090000004000007221137900023658300000000000000000201512270002001CARLOS POLO                                       C000000000009600000000000000000000100010010000000000000000000000F0010000008090000420151227000101 00000000000000000000000000000000000000000000000000000000000000000000000000000000000000000000000000000000000000000N 00000000000NCONT   00    00000000000          00000000000000000000000000000000000000000000 000000000000000A000000000000000000000000000000000000000000000 000000000000000000000000000000000000000     00000000                                                                                                                        000000000000000000
F0010000008090000005000007221137900013552100000000000000000201512270002001CARLOS POLO                                       D000000000009600000000000000000000100010010000000000000000000000F0010000008090000520151227000101 00000000000000000000000000000000000000000000000000000000000000000000000000000000000000000000000000000000000000000N 00000000000NCONT   00    00000000000          00000000000000000000000000000000000000000000 000000000000000A000000000000000000000000000000000000000000000 000000000000000000000000000000000000000     00000000                                                                                                                        000000000000000000
F0010000008090100001000009120302700011050500000000000000000201512270002001CALZADO REY ESTEBAN                               D000000001200000000000000000000000100010010000000000000000000000F0010000008090100120151227000101 00000000000000000000000000000000000000000000000000000000000000000000000000000000000000000000000000000000000000000N 00000000000NCONT   00    00000000000          00000000000000000000000000000000000000000000 000000000000000A000000000000000000000000000000000000000000000 000000000000000000000000000000000000000     00000000                                                                                                                        000000000000000000
F0010000008090100002000009120302700041450500000000000000000201512270002001CALZADO REY ESTEBAN                               C000000000900000000000000000000000100010010000000000000000000000F0010000008090100220151227000101 00000000000000000000000000000000000000000000000000000000000000000000000000000000000000000000000000000000000000000N 00000000000NCONT   00    00000000000          00000000000000000000000000000000000000000000 000000000000000A000000000000000000000000000000000000000000000 000000000000000000000000000000000000000     00000000                                                                                                                        000000000000000000
F0010000008090100003000009120302700042505000000000000000000201512270002001CALZADO REY ESTEBAN                               C000000000300000000000000000000000100010010000000000000000000000F0010000008090100320151227000101 00000000000000000000000000000000000000000000000000000000000000000000000000000000000000000000000000000000000000000N 00000000000NCONT   00    00000000000          00000000000000000000000000000000000000000000 000000000000000A000000000000000000000000000000000000000000000 000000000000000000000000000000000000000     00000000                                                                                                                        000000000000000000
F0010000008090100004000009120302700023658300000000000000000201512270002001CALZADO REY ESTEBAN                               C000000000007200000000000000000000100010010000000000000000000000F0010000008090100420151227000101 00000000000000000000000000000000000000000000000000000000000000000000000000000000000000000000000000000000000000000N 00000000000NCONT   00    00000000000          00000000000000000000000000000000000000000000 000000000000000A000000000000000000000000000000000000000000000 000000000000000000000000000000000000000     00000000                                                                                                                        000000000000000000
F0010000008090100005000009120302700013552100000000000000000201512270002001CALZADO REY ESTEBAN                               D000000000007200000000000000000000100010010000000000000000000000F0010000008090100520151227000101 00000000000000000000000000000000000000000000000000000000000000000000000000000000000000000000000000000000000000000N 00000000000NCONT   00    00000000000          00000000000000000000000000000000000000000000 000000000000000A000000000000000000000000000000000000000000000 000000000000000000000000000000000000000     00000000                                                                                                                        000000000000000000
F0010000008090200001000005525050200011050500000000000000000201512270002001PLASTICOS  DE LA COSTA                            D000000002388000000000000000000000100010010000000000000000000000F0010000008090200120151227000101 00000000000000000000000000000000000000000000000000000000000000000000000000000000000000000000000000000000000000000N 00000000000NCONT   00    00000000000          00000000000000000000000000000000000000000000 000000000000000A000000000000000000000000000000000000000000000 000000000000000000000000000000000000000     00000000                                                                                                                        000000000000000000
F0010000008090200002000005525050200041450500000000000000000201512270002001PLASTICOS  DE LA COSTA                            C000000002288000000000000000000000100010010000000000000000000000F0010000008090200220151227000101 00000000000000000000000000000000000000000000000000000000000000000000000000000000000000000000000000000000000000000N 00000000000NCONT   00    00000000000          00000000000000000000000000000000000000000000 000000000000000A000000000000000000000000000000000000000000000 000000000000000000000000000000000000000     00000000                                                                                                                        000000000000000000
F0010000008090200003000005525050200042505000000000000000000201512270002001PLASTICOS  DE LA COSTA                            C000000000100000000000000000000000100010010000000000000000000000F0010000008090200320151227000101 00000000000000000000000000000000000000000000000000000000000000000000000000000000000000000000000000000000000000000N 00000000000NCONT   00    00000000000          00000000000000000000000000000000000000000000 000000000000000A000000000000000000000000000000000000000000000 000000000000000000000000000000000000000     00000000                                                                                                                        000000000000000000
F0010000008090200004000005525050200023658300000000000000000201512270002001PLASTICOS  DE LA COSTA                            C000000000018300000000000000000000100010010000000000000000000000F0010000008090200420151227000101 00000000000000000000000000000000000000000000000000000000000000000000000000000000000000000000000000000000000000000N 00000000000NCONT   00    00000000000          00000000000000000000000000000000000000000000 000000000000000A000000000000000000000000000000000000000000000 000000000000000000000000000000000000000     00000000                                                                                                                        000000000000000000
F0010000008090200005000005525050200013552100000000000000000201512270002001PLASTICOS  DE LA COSTA                            D000000000018300000000000000000000100010010000000000000000000000F0010000008090200520151227000101 00000000000000000000000000000000000000000000000000000000000000000000000000000000000000000000000000000000000000000N 00000000000NCONT   00    00000000000          00000000000000000000000000000000000000000000 000000000000000A000000000000000000000000000000000000000000000 000000000000000000000000000000000000000     00000000                                                                                                                        000000000000000000
F0010000008090300001000007221137900011050500000000000000000201512270002001CARLOS POLO                                       D000000001500000000000000000000000100010010000000000000000000000F0010000008090300120151227000101 00000000000000000000000000000000000000000000000000000000000000000000000000000000000000000000000000000000000000000N 00000000000NCONT   00    00000000000          00000000000000000000000000000000000000000000 000000000000000A000000000000000000000000000000000000000000000 000000000000000000000000000000000000000     00000000                                                                                                                        000000000000000000
F0010000008090300002000007221137900041450500000000000000000201512270002001CARLOS POLO                                       C000000001300000000000000000000000100010010000000000000000000000F0010000008090300220151227000101 00000000000000000000000000000000000000000000000000000000000000000000000000000000000000000000000000000000000000000N 00000000000NCONT   00    00000000000          00000000000000000000000000000000000000000000 000000000000000A000000000000000000000000000000000000000000000 000000000000000000000000000000000000000     00000000                                                                                                                        000000000000000000
F0010000008090300003000007221137900042505000000000000000000201512270002001CARLOS POLO                                       C000000000200000000000000000000000100010010000000000000000000000F0010000008090300320151227000101 00000000000000000000000000000000000000000000000000000000000000000000000000000000000000000000000000000000000000000N 00000000000NCONT   00    00000000000          00000000000000000000000000000000000000000000 000000000000000A000000000000000000000000000000000000000000000 000000000000000000000000000000000000000     00000000                                                                                                                        000000000000000000
F0010000008090300004000007221137900023658300000000000000000201512270002001CARLOS POLO                                       C000000000010400000000000000000000100010010000000000000000000000F0010000008090300420151227000101 00000000000000000000000000000000000000000000000000000000000000000000000000000000000000000000000000000000000000000N 00000000000NCONT   00    00000000000          00000000000000000000000000000000000000000000 000000000000000A000000000000000000000000000000000000000000000 000000000000000000000000000000000000000     00000000                                                                                                                        000000000000000000
F0010000008090300005000007221137900013552100000000000000000201512270002001CARLOS POLO                                       D000000000010400000000000000000000100010010000000000000000000000F0010000008090300520151227000101 00000000000000000000000000000000000000000000000000000000000000000000000000000000000000000000000000000000000000000N 00000000000NCONT   00    00000000000          00000000000000000000000000000000000000000000 000000000000000A000000000000000000000000000000000000000000000 000000000000000000000000000000000000000     00000000                                                                                                                        000000000000000000
