F0010000007976200001000081102758700013050500000000000000000201512020002001C.I. ABRACOL S.A EMA                              D000000093840300000000000000000000100010010000000000000000000000F0010000007976200120151202000101 00000000000000000000000000000000000000000000000000000000000000000000000000000000000000000000000000000000000000000N 00000000000NCONT   00    00000000000          00000000000000000000000000000000000000000000 000000000000000A000000000000000000000000000000000000000000000 000000000000000000000000000000000000000     00000000                                                                                                                        000000000000000000
F0010000007976200002000081102758700041450500000000000000000201512020002001C.I. ABRACOL S.A EMA                              C000000059370000000000000000000000100010010000000000000000000000F0010000007976200220151202000101 00000000000000000000000000000000000000000000000000000000000000000000000000000000000000000000000000000000000000000N 00000000000NCONT   00    00000000000          00000000000000000000000000000000000000000000 000000000000000A000000000000000000000000000000000000000000000 000000000000000000000000000000000000000     00000000                                                                                                                        000000000000000000
F0010000007976200003000081102758700041750100000000000000000201512020002001C.I. ABRACOL S.A EMA                              D000000001781100000000000000000000100010010000000000000000000000F0010000007976200320151202000101 00000000000000000000000000000000000000000000000000000000000000000000000000000000000000000000000000000000000000000N 00000000000NCONT   00    00000000000          00000000000000000000000000000000000000000000 000000000000000A000000000000000000000000000000000000000000000 000000000000000000000000000000000000000     00000000                                                                                                                        000000000000000000
F0010000007976200004000081102758700042505000000000000000000201512020002001C.I. ABRACOL S.A EMA                              C000000036251400000000000000000000100010010000000000000000000000F0010000007976200420151202000101 00000000000000000000000000000000000000000000000000000000000000000000000000000000000000000000000000000000000000000N 00000000000NCONT   00    00000000000          00000000000000000000000000000000000000000000 000000000000000A000000000000000000000000000000000000000000000 000000000000000000000000000000000000000     00000000                                                                                                                        000000000000000000
F0010000007976200005000081102758700023658300000000000000000201512020002001C.I. ABRACOL S.A EMA                              C000000000475000000000000000000000100010010000000000000000000000F0010000007976200520151202000101 00000000000000000000000000000000000000000000000000000000000000000000000000000000000000000000000000000000000000000N 00000000000NCONT   00    00000000000          00000000000000000000000000000000000000000000 000000000000000A000000000000000000000000000000000000000000000 000000000000000000000000000000000000000     00000000                                                                                                                        000000000000000000
F0010000007976200006000081102758700013552100000000000000000201512020002001C.I. ABRACOL S.A EMA                              D000000000475000000000000000000000100010010000000000000000000000F0010000007976200620151202000101 00000000000000000000000000000000000000000000000000000000000000000000000000000000000000000000000000000000000000000N 00000000000NCONT   00    00000000000          00000000000000000000000000000000000000000000 000000000000000A000000000000000000000000000000000000000000000 000000000000000000000000000000000000000     00000000                                                                                                                        000000000000000000
F0010000007976300001000081102758700013050500000000000000000201512020002001C.I. ABRACOL S.A EMA                              D000000123059500000000000000000000100010010000000000000000000000F0010000007976300120151202000101 00000000000000000000000000000000000000000000000000000000000000000000000000000000000000000000000000000000000000000N 00000000000NCONT   00    00000000000          00000000000000000000000000000000000000000000 000000000000000A000000000000000000000000000000000000000000000 000000000000000000000000000000000000000     00000000                                                                                                                        000000000000000000
F0010000007976300002000081102758700041450500000000000000000201512020002001C.I. ABRACOL S.A EMA                              C000000085880000000000000000000000100010010000000000000000000000F0010000007976300220151202000101 00000000000000000000000000000000000000000000000000000000000000000000000000000000000000000000000000000000000000000N 00000000000NCONT   00    00000000000          00000000000000000000000000000000000000000000 000000000000000A000000000000000000000000000000000000000000000 000000000000000000000000000000000000000     00000000                                                                                                                        000000000000000000
F0010000007976300003000081102758700041750100000000000000000201512020002001C.I. ABRACOL S.A EMA                              D000000002576400000000000000000000100010010000000000000000000000F0010000007976300320151202000101 00000000000000000000000000000000000000000000000000000000000000000000000000000000000000000000000000000000000000000N 00000000000NCONT   00    00000000000          00000000000000000000000000000000000000000000 000000000000000A000000000000000000000000000000000000000000000 000000000000000000000000000000000000000     00000000                                                                                                                        000000000000000000
F0010000007976300004000081102758700042505000000000000000000201512020002001C.I. ABRACOL S.A EMA                              C000000039755900000000000000000000100010010000000000000000000000F0010000007976300420151202000101 00000000000000000000000000000000000000000000000000000000000000000000000000000000000000000000000000000000000000000N 00000000000NCONT   00    00000000000          00000000000000000000000000000000000000000000 000000000000000A000000000000000000000000000000000000000000000 000000000000000000000000000000000000000     00000000                                                                                                                        000000000000000000
F0010000007976300005000081102758700023658300000000000000000201512020002001C.I. ABRACOL S.A EMA                              C000000000687000000000000000000000100010010000000000000000000000F0010000007976300520151202000101 00000000000000000000000000000000000000000000000000000000000000000000000000000000000000000000000000000000000000000N 00000000000NCONT   00    00000000000          00000000000000000000000000000000000000000000 000000000000000A000000000000000000000000000000000000000000000 000000000000000000000000000000000000000     00000000                                                                                                                        000000000000000000
F0010000007976300006000081102758700013552100000000000000000201512020002001C.I. ABRACOL S.A EMA                              D000000000687000000000000000000000100010010000000000000000000000F0010000007976300620151202000101 00000000000000000000000000000000000000000000000000000000000000000000000000000000000000000000000000000000000000000N 00000000000NCONT   00    00000000000          00000000000000000000000000000000000000000000 000000000000000A000000000000000000000000000000000000000000000 000000000000000000000000000000000000000     00000000                                                                                                                        000000000000000000
F0010000007976400001000081102758700013050500000000000000000201512020002001C.I. ABRACOL S.A EMA                              D000000123814000000000000000000000100010010000000000000000000000F0010000007976400120151202000101 00000000000000000000000000000000000000000000000000000000000000000000000000000000000000000000000000000000000000000N 00000000000NCONT   00    00000000000          00000000000000000000000000000000000000000000 000000000000000A000000000000000000000000000000000000000000000 000000000000000000000000000000000000000     00000000                                                                                                                        000000000000000000
F0010000007976400002000081102758700041450500000000000000000201512020002001C.I. ABRACOL S.A EMA                              C000000080490000000000000000000000100010010000000000000000000000F0010000007976400220151202000101 00000000000000000000000000000000000000000000000000000000000000000000000000000000000000000000000000000000000000000N 00000000000NCONT   00    00000000000          00000000000000000000000000000000000000000000 000000000000000A000000000000000000000000000000000000000000000 000000000000000000000000000000000000000     00000000                                                                                                                        000000000000000000
F0010000007976400003000081102758700041750100000000000000000201512020002001C.I. ABRACOL S.A EMA                              D000000002414700000000000000000000100010010000000000000000000000F0010000007976400320151202000101 00000000000000000000000000000000000000000000000000000000000000000000000000000000000000000000000000000000000000000N 00000000000NCONT   00    00000000000          00000000000000000000000000000000000000000000 000000000000000A000000000000000000000000000000000000000000000 000000000000000000000000000000000000000     00000000                                                                                                                        000000000000000000
F0010000007976400004000081102758700042505000000000000000000201512020002001C.I. ABRACOL S.A EMA                              C000000045738700000000000000000000100010010000000000000000000000F0010000007976400420151202000101 00000000000000000000000000000000000000000000000000000000000000000000000000000000000000000000000000000000000000000N 00000000000NCONT   00    00000000000          00000000000000000000000000000000000000000000 000000000000000A000000000000000000000000000000000000000000000 000000000000000000000000000000000000000     00000000                                                                                                                        000000000000000000
F0010000007976400005000081102758700023658300000000000000000201512020002001C.I. ABRACOL S.A EMA                              C000000000643900000000000000000000100010010000000000000000000000F0010000007976400520151202000101 00000000000000000000000000000000000000000000000000000000000000000000000000000000000000000000000000000000000000000N 00000000000NCONT   00    00000000000          00000000000000000000000000000000000000000000 000000000000000A000000000000000000000000000000000000000000000 000000000000000000000000000000000000000     00000000                                                                                                                        000000000000000000
F0010000007976400006000081102758700013552100000000000000000201512020002001C.I. ABRACOL S.A EMA                              D000000000643900000000000000000000100010010000000000000000000000F0010000007976400620151202000101 00000000000000000000000000000000000000000000000000000000000000000000000000000000000000000000000000000000000000000N 00000000000NCONT   00    00000000000          00000000000000000000000000000000000000000000 000000000000000A000000000000000000000000000000000000000000000 000000000000000000000000000000000000000     00000000                                                                                                                        000000000000000000
F0010000007976500001000081102758700013050500000000000000000201512020002001C.I. ABRACOL S.A EMA                              D000000062271400000000000000000000100010010000000000000000000000F0010000007976500120151202000101 00000000000000000000000000000000000000000000000000000000000000000000000000000000000000000000000000000000000000000N 00000000000NCONT   00    00000000000          00000000000000000000000000000000000000000000 000000000000000A000000000000000000000000000000000000000000000 000000000000000000000000000000000000000     00000000                                                                                                                        000000000000000000
F0010000007976500002000081102758700041450500000000000000000201512020002001C.I. ABRACOL S.A EMA                              C000000040160000000000000000000000100010010000000000000000000000F0010000007976500220151202000101 00000000000000000000000000000000000000000000000000000000000000000000000000000000000000000000000000000000000000000N 00000000000NCONT   00    00000000000          00000000000000000000000000000000000000000000 000000000000000A000000000000000000000000000000000000000000000 000000000000000000000000000000000000000     00000000                                                                                                                        000000000000000000
F0010000007976500003000081102758700041750100000000000000000201512020002001C.I. ABRACOL S.A EMA                              D000000001204800000000000000000000100010010000000000000000000000F0010000007976500320151202000101 00000000000000000000000000000000000000000000000000000000000000000000000000000000000000000000000000000000000000000N 00000000000NCONT   00    00000000000          00000000000000000000000000000000000000000000 000000000000000A000000000000000000000000000000000000000000000 000000000000000000000000000000000000000     00000000                                                                                                                        000000000000000000
F0010000007976500004000081102758700042505000000000000000000201512020002001C.I. ABRACOL S.A EMA                              C000000023316200000000000000000000100010010000000000000000000000F0010000007976500420151202000101 00000000000000000000000000000000000000000000000000000000000000000000000000000000000000000000000000000000000000000N 00000000000NCONT   00    00000000000          00000000000000000000000000000000000000000000 000000000000000A000000000000000000000000000000000000000000000 000000000000000000000000000000000000000     00000000                                                                                                                        000000000000000000
F0010000007976500005000081102758700023658300000000000000000201512020002001C.I. ABRACOL S.A EMA                              C000000000321300000000000000000000100010010000000000000000000000F0010000007976500520151202000101 00000000000000000000000000000000000000000000000000000000000000000000000000000000000000000000000000000000000000000N 00000000000NCONT   00    00000000000          00000000000000000000000000000000000000000000 000000000000000A000000000000000000000000000000000000000000000 000000000000000000000000000000000000000     00000000                                                                                                                        000000000000000000
F0010000007976500006000081102758700013552100000000000000000201512020002001C.I. ABRACOL S.A EMA                              D000000000321300000000000000000000100010010000000000000000000000F0010000007976500620151202000101 00000000000000000000000000000000000000000000000000000000000000000000000000000000000000000000000000000000000000000N 00000000000NCONT   00    00000000000          00000000000000000000000000000000000000000000 000000000000000A000000000000000000000000000000000000000000000 000000000000000000000000000000000000000     00000000                                                                                                                        000000000000000000
F0010000007976600001000081102758700013050500000000000000000201512020002001C.I. ABRACOL S.A EMA                              D000000035313800000000000000000000100010010000000000000000000000F0010000007976600120151202000101 00000000000000000000000000000000000000000000000000000000000000000000000000000000000000000000000000000000000000000N 00000000000NCONT   00    00000000000          00000000000000000000000000000000000000000000 000000000000000A000000000000000000000000000000000000000000000 000000000000000000000000000000000000000     00000000                                                                                                                        000000000000000000
F0010000007976600002000081102758700041450500000000000000000201512020002001C.I. ABRACOL S.A EMA                              C000000026190000000000000000000000100010010000000000000000000000F0010000007976600220151202000101 00000000000000000000000000000000000000000000000000000000000000000000000000000000000000000000000000000000000000000N 00000000000NCONT   00    00000000000          00000000000000000000000000000000000000000000 000000000000000A000000000000000000000000000000000000000000000 000000000000000000000000000000000000000     00000000                                                                                                                        000000000000000000
F0010000007976600003000081102758700041750100000000000000000201512020002001C.I. ABRACOL S.A EMA                              D000000000785700000000000000000000100010010000000000000000000000F0010000007976600320151202000101 00000000000000000000000000000000000000000000000000000000000000000000000000000000000000000000000000000000000000000N 00000000000NCONT   00    00000000000          00000000000000000000000000000000000000000000 000000000000000A000000000000000000000000000000000000000000000 000000000000000000000000000000000000000     00000000                                                                                                                        000000000000000000
F0010000007976600004000081102758700042505000000000000000000201512020002001C.I. ABRACOL S.A EMA                              C000000009909500000000000000000000100010010000000000000000000000F0010000007976600420151202000101 00000000000000000000000000000000000000000000000000000000000000000000000000000000000000000000000000000000000000000N 00000000000NCONT   00    00000000000          00000000000000000000000000000000000000000000 000000000000000A000000000000000000000000000000000000000000000 000000000000000000000000000000000000000     00000000                                                                                                                        000000000000000000
F0010000007976600005000081102758700023658300000000000000000201512020002001C.I. ABRACOL S.A EMA                              C000000000209500000000000000000000100010010000000000000000000000F0010000007976600520151202000101 00000000000000000000000000000000000000000000000000000000000000000000000000000000000000000000000000000000000000000N 00000000000NCONT   00    00000000000          00000000000000000000000000000000000000000000 000000000000000A000000000000000000000000000000000000000000000 000000000000000000000000000000000000000     00000000                                                                                                                        000000000000000000
F0010000007976600006000081102758700013552100000000000000000201512020002001C.I. ABRACOL S.A EMA                              D000000000209500000000000000000000100010010000000000000000000000F0010000007976600620151202000101 00000000000000000000000000000000000000000000000000000000000000000000000000000000000000000000000000000000000000000N 00000000000NCONT   00    00000000000          00000000000000000000000000000000000000000000 000000000000000A000000000000000000000000000000000000000000000 000000000000000000000000000000000000000     00000000                                                                                                                        000000000000000000
F0010000007976700001000080201112800013050500000000000000000201512020002001CANGURO INTERNATIONAL S.A.                        D000000136006700000000000000000000100010010000000000000000000000F0010000007976700120151202000101 00000000000000000000000000000000000000000000000000000000000000000000000000000000000000000000000000000000000000000N 00000000000NCONT   00    00000000000          00000000000000000000000000000000000000000000 000000000000000A000000000000000000000000000000000000000000000 000000000000000000000000000000000000000     00000000                                                                                                                        000000000000000000
F0010000007976700002000080201112800041450500000000000000000201512020002001CANGURO INTERNATIONAL S.A.                        C000000132286700000000000000000000100010010000000000000000000000F0010000007976700220151202000101 00000000000000000000000000000000000000000000000000000000000000000000000000000000000000000000000000000000000000000N 00000000000NCONT   00    00000000000          00000000000000000000000000000000000000000000 000000000000000A000000000000000000000000000000000000000000000 000000000000000000000000000000000000000     00000000                                                                                                                        000000000000000000
F0010000007976700003000080201112800042505000000000000000000201512020002001CANGURO INTERNATIONAL S.A.                        C000000003720000000000000000000000100010010000000000000000000000F0010000007976700320151202000101 00000000000000000000000000000000000000000000000000000000000000000000000000000000000000000000000000000000000000000N 00000000000NCONT   00    00000000000          00000000000000000000000000000000000000000000 000000000000000A000000000000000000000000000000000000000000000 000000000000000000000000000000000000000     00000000                                                                                                                        000000000000000000
F0010000007976700004000080201112800023658300000000000000000201512020002001CANGURO INTERNATIONAL S.A.                        C000000001058300000000000000000000100010010000000000000000000000F0010000007976700420151202000101 00000000000000000000000000000000000000000000000000000000000000000000000000000000000000000000000000000000000000000N 00000000000NCONT   00    00000000000          00000000000000000000000000000000000000000000 000000000000000A000000000000000000000000000000000000000000000 000000000000000000000000000000000000000     00000000                                                                                                                        000000000000000000
F0010000007976700005000080201112800013552100000000000000000201512020002001CANGURO INTERNATIONAL S.A.                        D000000001058300000000000000000000100010010000000000000000000000F0010000007976700520151202000101 00000000000000000000000000000000000000000000000000000000000000000000000000000000000000000000000000000000000000000N 00000000000NCONT   00    00000000000          00000000000000000000000000000000000000000000 000000000000000A000000000000000000000000000000000000000000000 000000000000000000000000000000000000000     00000000                                                                                                                        000000000000000000
F0010000007976800001000080201112800013050500000000000000000201512020002001CANGURO INTERNATIONAL S.A.                        D000000139701200000000000000000000100010010000000000000000000000F0010000007976800120151202000101 00000000000000000000000000000000000000000000000000000000000000000000000000000000000000000000000000000000000000000N 00000000000NCONT   00    00000000000          00000000000000000000000000000000000000000000 000000000000000A000000000000000000000000000000000000000000000 000000000000000000000000000000000000000     00000000                                                                                                                        000000000000000000
F0010000007976800002000080201112800041450500000000000000000201512020002001CANGURO INTERNATIONAL S.A.                        C000000139506800000000000000000000100010010000000000000000000000F0010000007976800220151202000101 00000000000000000000000000000000000000000000000000000000000000000000000000000000000000000000000000000000000000000N 00000000000NCONT   00    00000000000          00000000000000000000000000000000000000000000 000000000000000A000000000000000000000000000000000000000000000 000000000000000000000000000000000000000     00000000                                                                                                                        000000000000000000
F0010000007976800003000080201112800042505000000000000000000201512020002001CANGURO INTERNATIONAL S.A.                        C000000000194400000000000000000000100010010000000000000000000000F0010000007976800320151202000101 00000000000000000000000000000000000000000000000000000000000000000000000000000000000000000000000000000000000000000N 00000000000NCONT   00    00000000000          00000000000000000000000000000000000000000000 000000000000000A000000000000000000000000000000000000000000000 000000000000000000000000000000000000000     00000000                                                                                                                        000000000000000000
F0010000007976800004000080201112800023658300000000000000000201512020002001CANGURO INTERNATIONAL S.A.                        C000000001116100000000000000000000100010010000000000000000000000F0010000007976800420151202000101 00000000000000000000000000000000000000000000000000000000000000000000000000000000000000000000000000000000000000000N 00000000000NCONT   00    00000000000          00000000000000000000000000000000000000000000 000000000000000A000000000000000000000000000000000000000000000 000000000000000000000000000000000000000     00000000                                                                                                                        000000000000000000
F0010000007976800005000080201112800013552100000000000000000201512020002001CANGURO INTERNATIONAL S.A.                        D000000001116100000000000000000000100010010000000000000000000000F0010000007976800520151202000101 00000000000000000000000000000000000000000000000000000000000000000000000000000000000000000000000000000000000000000N 00000000000NCONT   00    00000000000          00000000000000000000000000000000000000000000 000000000000000A000000000000000000000000000000000000000000000 000000000000000000000000000000000000000     00000000                                                                                                                        000000000000000000
F0010000007976900001000080201112800013050500000000000000000201512020002001CANGURO INTERNATIONAL S.A.                        D000000266490900000000000000000000100010010000000000000000000000F0010000007976900120151202000101 00000000000000000000000000000000000000000000000000000000000000000000000000000000000000000000000000000000000000000N 00000000000NCONT   00    00000000000          00000000000000000000000000000000000000000000 000000000000000A000000000000000000000000000000000000000000000 000000000000000000000000000000000000000     00000000                                                                                                                        000000000000000000
F0010000007976900002000080201112800041450500000000000000000201512020002001CANGURO INTERNATIONAL S.A.                        C000000249519900000000000000000000100010010000000000000000000000F0010000007976900220151202000101 00000000000000000000000000000000000000000000000000000000000000000000000000000000000000000000000000000000000000000N 00000000000NCONT   00    00000000000          00000000000000000000000000000000000000000000 000000000000000A000000000000000000000000000000000000000000000 000000000000000000000000000000000000000     00000000                                                                                                                        000000000000000000
F0010000007976900003000080201112800042505000000000000000000201512020002001CANGURO INTERNATIONAL S.A.                        C000000016971000000000000000000000100010010000000000000000000000F0010000007976900320151202000101 00000000000000000000000000000000000000000000000000000000000000000000000000000000000000000000000000000000000000000N 00000000000NCONT   00    00000000000          00000000000000000000000000000000000000000000 000000000000000A000000000000000000000000000000000000000000000 000000000000000000000000000000000000000     00000000                                                                                                                        000000000000000000
F0010000007976900004000080201112800023658300000000000000000201512020002001CANGURO INTERNATIONAL S.A.                        C000000001996200000000000000000000100010010000000000000000000000F0010000007976900420151202000101 00000000000000000000000000000000000000000000000000000000000000000000000000000000000000000000000000000000000000000N 00000000000NCONT   00    00000000000          00000000000000000000000000000000000000000000 000000000000000A000000000000000000000000000000000000000000000 000000000000000000000000000000000000000     00000000                                                                                                                        000000000000000000
F0010000007976900005000080201112800013552100000000000000000201512020002001CANGURO INTERNATIONAL S.A.                        D000000001996200000000000000000000100010010000000000000000000000F0010000007976900520151202000101 00000000000000000000000000000000000000000000000000000000000000000000000000000000000000000000000000000000000000000N 00000000000NCONT   00    00000000000          00000000000000000000000000000000000000000000 000000000000000A000000000000000000000000000000000000000000000 000000000000000000000000000000000000000     00000000                                                                                                                        000000000000000000
F0010000007977000001000080201112800013050500000000000000000201512020002001CANGURO INTERNATIONAL S.A.                        D000000033852400000000000000000000100010010000000000000000000000F0010000007977000120151202000101 00000000000000000000000000000000000000000000000000000000000000000000000000000000000000000000000000000000000000000N 00000000000NCONT   00    00000000000          00000000000000000000000000000000000000000000 000000000000000A000000000000000000000000000000000000000000000 000000000000000000000000000000000000000     00000000                                                                                                                        000000000000000000
F0010000007977000002000080201112800041450500000000000000000201512020002001CANGURO INTERNATIONAL S.A.                        C000000032172900000000000000000000100010010000000000000000000000F0010000007977000220151202000101 00000000000000000000000000000000000000000000000000000000000000000000000000000000000000000000000000000000000000000N 00000000000NCONT   00    00000000000          00000000000000000000000000000000000000000000 000000000000000A000000000000000000000000000000000000000000000 000000000000000000000000000000000000000     00000000                                                                                                                        000000000000000000
F0010000007977000003000080201112800042505000000000000000000201512020002001CANGURO INTERNATIONAL S.A.                        C000000001679500000000000000000000100010010000000000000000000000F0010000007977000320151202000101 00000000000000000000000000000000000000000000000000000000000000000000000000000000000000000000000000000000000000000N 00000000000NCONT   00    00000000000          00000000000000000000000000000000000000000000 000000000000000A000000000000000000000000000000000000000000000 000000000000000000000000000000000000000     00000000                                                                                                                        000000000000000000
F0010000007977000004000080201112800023658300000000000000000201512020002001CANGURO INTERNATIONAL S.A.                        C000000000257400000000000000000000100010010000000000000000000000F0010000007977000420151202000101 00000000000000000000000000000000000000000000000000000000000000000000000000000000000000000000000000000000000000000N 00000000000NCONT   00    00000000000          00000000000000000000000000000000000000000000 000000000000000A000000000000000000000000000000000000000000000 000000000000000000000000000000000000000     00000000                                                                                                                        000000000000000000
F0010000007977000005000080201112800013552100000000000000000201512020002001CANGURO INTERNATIONAL S.A.                        D000000000257400000000000000000000100010010000000000000000000000F0010000007977000520151202000101 00000000000000000000000000000000000000000000000000000000000000000000000000000000000000000000000000000000000000000N 00000000000NCONT   00    00000000000          00000000000000000000000000000000000000000000 000000000000000A000000000000000000000000000000000000000000000 000000000000000000000000000000000000000     00000000                                                                                                                        000000000000000000
F0010000007977100001000089010952800013050500000000000000000201512020002001IND. LITOGRAF. BOSTON S.A.S.                      D000000065146000000000000000000000100010010000000000000000000000F0010000007977100120151202000101 00000000000000000000000000000000000000000000000000000000000000000000000000000000000000000000000000000000000000000N 00000000000NCONT   00    00000000000          00000000000000000000000000000000000000000000 000000000000000A000000000000000000000000000000000000000000000 000000000000000000000000000000000000000     00000000                                                                                                                        000000000000000000
F0010000007977100002000089010952800041450500000000000000000201512020002001IND. LITOGRAF. BOSTON S.A.S.                      C000000056696000000000000000000000100010010000000000000000000000F0010000007977100220151202000101 00000000000000000000000000000000000000000000000000000000000000000000000000000000000000000000000000000000000000000N 00000000000NCONT   00    00000000000          00000000000000000000000000000000000000000000 000000000000000A000000000000000000000000000000000000000000000 000000000000000000000000000000000000000     00000000                                                                                                                        000000000000000000
F0010000007977100003000089010952800042505000000000000000000201512020002001IND. LITOGRAF. BOSTON S.A.S.                      C000000008450000000000000000000000100010010000000000000000000000F0010000007977100320151202000101 00000000000000000000000000000000000000000000000000000000000000000000000000000000000000000000000000000000000000000N 00000000000NCONT   00    00000000000          00000000000000000000000000000000000000000000 000000000000000A000000000000000000000000000000000000000000000 000000000000000000000000000000000000000     00000000                                                                                                                        000000000000000000
F0010000007977100004000089010952800023658300000000000000000201512020002001IND. LITOGRAF. BOSTON S.A.S.                      C000000000453600000000000000000000100010010000000000000000000000F0010000007977100420151202000101 00000000000000000000000000000000000000000000000000000000000000000000000000000000000000000000000000000000000000000N 00000000000NCONT   00    00000000000          00000000000000000000000000000000000000000000 000000000000000A000000000000000000000000000000000000000000000 000000000000000000000000000000000000000     00000000                                                                                                                        000000000000000000
F0010000007977100005000089010952800013552100000000000000000201512020002001IND. LITOGRAF. BOSTON S.A.S.                      D000000000453600000000000000000000100010010000000000000000000000F0010000007977100520151202000101 00000000000000000000000000000000000000000000000000000000000000000000000000000000000000000000000000000000000000000N 00000000000NCONT   00    00000000000          00000000000000000000000000000000000000000000 000000000000000A000000000000000000000000000000000000000000000 000000000000000000000000000000000000000     00000000                                                                                                                        000000000000000000
F0010000007977200001000000870907300013050500000000000000000201512020002001SURTIDOR FERRETERO                                D000000019902500000000000000000000100010010000000000000000000000F0010000007977200120151202000101 00000000000000000000000000000000000000000000000000000000000000000000000000000000000000000000000000000000000000000N 00000000000NCONT   00    00000000000          00000000000000000000000000000000000000000000 000000000000000A000000000000000000000000000000000000000000000 000000000000000000000000000000000000000     00000000                                                                                                                        000000000000000000
F0010000007977200002000000870907300041450500000000000000000201512020002001SURTIDOR FERRETERO                                C000000015734000000000000000000000100010010000000000000000000000F0010000007977200220151202000101 00000000000000000000000000000000000000000000000000000000000000000000000000000000000000000000000000000000000000000N 00000000000NCONT   00    00000000000          00000000000000000000000000000000000000000000 000000000000000A000000000000000000000000000000000000000000000 000000000000000000000000000000000000000     00000000                                                                                                                        000000000000000000
F0010000007977200003000000870907300041750100000000000000000201512020002001SURTIDOR FERRETERO                                D000000001573400000000000000000000100010010000000000000000000000F0010000007977200320151202000101 00000000000000000000000000000000000000000000000000000000000000000000000000000000000000000000000000000000000000000N 00000000000NCONT   00    00000000000          00000000000000000000000000000000000000000000 000000000000000A000000000000000000000000000000000000000000000 000000000000000000000000000000000000000     00000000                                                                                                                        000000000000000000
F0010000007977200004000000870907300042505000000000000000000201512020002001SURTIDOR FERRETERO                                C000000005741900000000000000000000100010010000000000000000000000F0010000007977200420151202000101 00000000000000000000000000000000000000000000000000000000000000000000000000000000000000000000000000000000000000000N 00000000000NCONT   00    00000000000          00000000000000000000000000000000000000000000 000000000000000A000000000000000000000000000000000000000000000 000000000000000000000000000000000000000     00000000                                                                                                                        000000000000000000
F0010000007977200005000000870907300023658300000000000000000201512020002001SURTIDOR FERRETERO                                C000000000125900000000000000000000100010010000000000000000000000F0010000007977200520151202000101 00000000000000000000000000000000000000000000000000000000000000000000000000000000000000000000000000000000000000000N 00000000000NCONT   00    00000000000          00000000000000000000000000000000000000000000 000000000000000A000000000000000000000000000000000000000000000 000000000000000000000000000000000000000     00000000                                                                                                                        000000000000000000
F0010000007977200006000000870907300013552100000000000000000201512020002001SURTIDOR FERRETERO                                D000000000125900000000000000000000100010010000000000000000000000F0010000007977200620151202000101 00000000000000000000000000000000000000000000000000000000000000000000000000000000000000000000000000000000000000000N 00000000000NCONT   00    00000000000          00000000000000000000000000000000000000000000 000000000000000A000000000000000000000000000000000000000000000 000000000000000000000000000000000000000     00000000                                                                                                                        000000000000000000
F0010000007977300001000090035510100013050500000000000000000201512020002001GRAINGER COLOMBIA S.A.S.                          D000000255351600000000000000000000100010010000000000000000000000F0010000007977300120151202000101 00000000000000000000000000000000000000000000000000000000000000000000000000000000000000000000000000000000000000000N 00000000000NCONT   00    00000000000          00000000000000000000000000000000000000000000 000000000000000A000000000000000000000000000000000000000000000 000000000000000000000000000000000000000     00000000                                                                                                                        000000000000000000
F0010000007977300002000090035510100041450500000000000000000201512020002001GRAINGER COLOMBIA S.A.S.                          C000000186560200000000000000000000100010010000000000000000000000F0010000007977300220151202000101 00000000000000000000000000000000000000000000000000000000000000000000000000000000000000000000000000000000000000000N 00000000000NCONT   00    00000000000          00000000000000000000000000000000000000000000 000000000000000A000000000000000000000000000000000000000000000 000000000000000000000000000000000000000     00000000                                                                                                                        000000000000000000
F0010000007977300003000090035510100042505000000000000000000201512020002001GRAINGER COLOMBIA S.A.S.                          C000000068791400000000000000000000100010010000000000000000000000F0010000007977300320151202000101 00000000000000000000000000000000000000000000000000000000000000000000000000000000000000000000000000000000000000000N 00000000000NCONT   00    00000000000          00000000000000000000000000000000000000000000 000000000000000A000000000000000000000000000000000000000000000 000000000000000000000000000000000000000     00000000                                                                                                                        000000000000000000
F0010000007977300004000090035510100023658300000000000000000201512020002001GRAINGER COLOMBIA S.A.S.                          C000000001492500000000000000000000100010010000000000000000000000F0010000007977300420151202000101 00000000000000000000000000000000000000000000000000000000000000000000000000000000000000000000000000000000000000000N 00000000000NCONT   00    00000000000          00000000000000000000000000000000000000000000 000000000000000A000000000000000000000000000000000000000000000 000000000000000000000000000000000000000     00000000                                                                                                                        000000000000000000
F0010000007977300005000090035510100013552100000000000000000201512020002001GRAINGER COLOMBIA S.A.S.                          D000000001492500000000000000000000100010010000000000000000000000F0010000007977300520151202000101 00000000000000000000000000000000000000000000000000000000000000000000000000000000000000000000000000000000000000000N 00000000000NCONT   00    00000000000          00000000000000000000000000000000000000000000 000000000000000A000000000000000000000000000000000000000000000 000000000000000000000000000000000000000     00000000                                                                                                                        000000000000000000
F0010000007977400001000089010260300013050500000000000000000201512020002001FEDERICO OSORIO A. S.A.                           D000000091854400000000000000000000100010010000000000000000000000F0010000007977400120151202000101 00000000000000000000000000000000000000000000000000000000000000000000000000000000000000000000000000000000000000000N 00000000000NCONT   00    00000000000          00000000000000000000000000000000000000000000 000000000000000A000000000000000000000000000000000000000000000 000000000000000000000000000000000000000     00000000                                                                                                                        000000000000000000
F0010000007977400002000089010260300041450500000000000000000201512020002001FEDERICO OSORIO A. S.A.                           C000000080997000000000000000000000100010010000000000000000000000F0010000007977400220151202000101 00000000000000000000000000000000000000000000000000000000000000000000000000000000000000000000000000000000000000000N 00000000000NCONT   00    00000000000          00000000000000000000000000000000000000000000 000000000000000A000000000000000000000000000000000000000000000 000000000000000000000000000000000000000     00000000                                                                                                                        000000000000000000
F0010000007977400003000089010260300042505000000000000000000201512020002001FEDERICO OSORIO A. S.A.                           C000000010857400000000000000000000100010010000000000000000000000F0010000007977400320151202000101 00000000000000000000000000000000000000000000000000000000000000000000000000000000000000000000000000000000000000000N 00000000000NCONT   00    00000000000          00000000000000000000000000000000000000000000 000000000000000A000000000000000000000000000000000000000000000 000000000000000000000000000000000000000     00000000                                                                                                                        000000000000000000
F0010000007977400004000089010260300023658300000000000000000201512020002001FEDERICO OSORIO A. S.A.                           C000000000648000000000000000000000100010010000000000000000000000F0010000007977400420151202000101 00000000000000000000000000000000000000000000000000000000000000000000000000000000000000000000000000000000000000000N 00000000000NCONT   00    00000000000          00000000000000000000000000000000000000000000 000000000000000A000000000000000000000000000000000000000000000 000000000000000000000000000000000000000     00000000                                                                                                                        000000000000000000
F0010000007977400005000089010260300013552100000000000000000201512020002001FEDERICO OSORIO A. S.A.                           D000000000648000000000000000000000100010010000000000000000000000F0010000007977400520151202000101 00000000000000000000000000000000000000000000000000000000000000000000000000000000000000000000000000000000000000000N 00000000000NCONT   00    00000000000          00000000000000000000000000000000000000000000 000000000000000A000000000000000000000000000000000000000000000 000000000000000000000000000000000000000     00000000                                                                                                                        000000000000000000
F0010000007977500001000000869402400011050500000000000000000201512020002001ISRAEL MANGA                                      D000000003500000000000000000000000100010010000000000000000000000F0010000007977500120151202000101 00000000000000000000000000000000000000000000000000000000000000000000000000000000000000000000000000000000000000000N 00000000000NCONT   00    00000000000          00000000000000000000000000000000000000000000 000000000000000A000000000000000000000000000000000000000000000 000000000000000000000000000000000000000     00000000                                                                                                                        000000000000000000
F0010000007977500002000000869402400041450500000000000000000201512020002001ISRAEL MANGA                                      C000000003150000000000000000000000100010010000000000000000000000F0010000007977500220151202000101 00000000000000000000000000000000000000000000000000000000000000000000000000000000000000000000000000000000000000000N 00000000000NCONT   00    00000000000          00000000000000000000000000000000000000000000 000000000000000A000000000000000000000000000000000000000000000 000000000000000000000000000000000000000     00000000                                                                                                                        000000000000000000
F0010000007977500003000000869402400042505000000000000000000201512020002001ISRAEL MANGA                                      C000000000350000000000000000000000100010010000000000000000000000F0010000007977500320151202000101 00000000000000000000000000000000000000000000000000000000000000000000000000000000000000000000000000000000000000000N 00000000000NCONT   00    00000000000          00000000000000000000000000000000000000000000 000000000000000A000000000000000000000000000000000000000000000 000000000000000000000000000000000000000     00000000                                                                                                                        000000000000000000
F0010000007977500004000000869402400023658300000000000000000201512020002001ISRAEL MANGA                                      C000000000025200000000000000000000100010010000000000000000000000F0010000007977500420151202000101 00000000000000000000000000000000000000000000000000000000000000000000000000000000000000000000000000000000000000000N 00000000000NCONT   00    00000000000          00000000000000000000000000000000000000000000 000000000000000A000000000000000000000000000000000000000000000 000000000000000000000000000000000000000     00000000                                                                                                                        000000000000000000
F0010000007977500005000000869402400013552100000000000000000201512020002001ISRAEL MANGA                                      D000000000025200000000000000000000100010010000000000000000000000F0010000007977500520151202000101 00000000000000000000000000000000000000000000000000000000000000000000000000000000000000000000000000000000000000000N 00000000000NCONT   00    00000000000          00000000000000000000000000000000000000000000 000000000000000A000000000000000000000000000000000000000000000 000000000000000000000000000000000000000     00000000                                                                                                                        000000000000000000
F0010000007977600001000000869402400011050500000000000000000201512020002001ISRAEL MANGA                                      D000000001700000000000000000000000100010010000000000000000000000F0010000007977600120151202000101 00000000000000000000000000000000000000000000000000000000000000000000000000000000000000000000000000000000000000000N 00000000000NCONT   00    00000000000          00000000000000000000000000000000000000000000 000000000000000A000000000000000000000000000000000000000000000 000000000000000000000000000000000000000     00000000                                                                                                                        000000000000000000
F0010000007977600002000000869402400041450500000000000000000201512020002001ISRAEL MANGA                                      C000000001150000000000000000000000100010010000000000000000000000F0010000007977600220151202000101 00000000000000000000000000000000000000000000000000000000000000000000000000000000000000000000000000000000000000000N 00000000000NCONT   00    00000000000          00000000000000000000000000000000000000000000 000000000000000A000000000000000000000000000000000000000000000 000000000000000000000000000000000000000     00000000                                                                                                                        000000000000000000
F0010000007977600003000000869402400042505000000000000000000201512020002001ISRAEL MANGA                                      C000000000550000000000000000000000100010010000000000000000000000F0010000007977600320151202000101 00000000000000000000000000000000000000000000000000000000000000000000000000000000000000000000000000000000000000000N 00000000000NCONT   00    00000000000          00000000000000000000000000000000000000000000 000000000000000A000000000000000000000000000000000000000000000 000000000000000000000000000000000000000     00000000                                                                                                                        000000000000000000
F0010000007977600004000000869402400023658300000000000000000201512020002001ISRAEL MANGA                                      C000000000009200000000000000000000100010010000000000000000000000F0010000007977600420151202000101 00000000000000000000000000000000000000000000000000000000000000000000000000000000000000000000000000000000000000000N 00000000000NCONT   00    00000000000          00000000000000000000000000000000000000000000 000000000000000A000000000000000000000000000000000000000000000 000000000000000000000000000000000000000     00000000                                                                                                                        000000000000000000
F0010000007977600005000000869402400013552100000000000000000201512020002001ISRAEL MANGA                                      D000000000009200000000000000000000100010010000000000000000000000F0010000007977600520151202000101 00000000000000000000000000000000000000000000000000000000000000000000000000000000000000000000000000000000000000000N 00000000000NCONT   00    00000000000          00000000000000000000000000000000000000000000 000000000000000A000000000000000000000000000000000000000000000 000000000000000000000000000000000000000     00000000                                                                                                                        000000000000000000
F0010000007977700001000007225583900011050500000000000000000201512020002001JORGE LUIS NIO BLANCO                           D000000004100000000000000000000000100010010000000000000000000000F0010000007977700120151202000101 00000000000000000000000000000000000000000000000000000000000000000000000000000000000000000000000000000000000000000N 00000000000NCONT   00    00000000000          00000000000000000000000000000000000000000000 000000000000000A000000000000000000000000000000000000000000000 000000000000000000000000000000000000000     00000000                                                                                                                        000000000000000000
F0010000007977700002000007225583900041450500000000000000000201512020002001JORGE LUIS NIO BLANCO                           C000000004000000000000000000000000100010010000000000000000000000F0010000007977700220151202000101 00000000000000000000000000000000000000000000000000000000000000000000000000000000000000000000000000000000000000000N 00000000000NCONT   00    00000000000          00000000000000000000000000000000000000000000 000000000000000A000000000000000000000000000000000000000000000 000000000000000000000000000000000000000     00000000                                                                                                                        000000000000000000
F0010000007977700003000007225583900042505000000000000000000201512020002001JORGE LUIS NIO BLANCO                           C000000000100000000000000000000000100010010000000000000000000000F0010000007977700320151202000101 00000000000000000000000000000000000000000000000000000000000000000000000000000000000000000000000000000000000000000N 00000000000NCONT   00    00000000000          00000000000000000000000000000000000000000000 000000000000000A000000000000000000000000000000000000000000000 000000000000000000000000000000000000000     00000000                                                                                                                        000000000000000000
F0010000007977700004000007225583900023658300000000000000000201512020002001JORGE LUIS NIO BLANCO                           C000000000032000000000000000000000100010010000000000000000000000F0010000007977700420151202000101 00000000000000000000000000000000000000000000000000000000000000000000000000000000000000000000000000000000000000000N 00000000000NCONT   00    00000000000          00000000000000000000000000000000000000000000 000000000000000A000000000000000000000000000000000000000000000 000000000000000000000000000000000000000     00000000                                                                                                                        000000000000000000
F0010000007977700005000007225583900013552100000000000000000201512020002001JORGE LUIS NIO BLANCO                           D000000000032000000000000000000000100010010000000000000000000000F0010000007977700520151202000101 00000000000000000000000000000000000000000000000000000000000000000000000000000000000000000000000000000000000000000N 00000000000NCONT   00    00000000000          00000000000000000000000000000000000000000000 000000000000000A000000000000000000000000000000000000000000000 000000000000000000000000000000000000000     00000000                                                                                                                        000000000000000000
F0010000007977800001000001719393900011050500000000000000000201512020002001JAIRO BASTIDAS RAMIREZ                            D000000001400000000000000000000000100010010000000000000000000000F0010000007977800120151202000101 00000000000000000000000000000000000000000000000000000000000000000000000000000000000000000000000000000000000000000N 00000000000NCONT   00    00000000000          00000000000000000000000000000000000000000000 000000000000000A000000000000000000000000000000000000000000000 000000000000000000000000000000000000000     00000000                                                                                                                        000000000000000000
F0010000007977800002000001719393900041450500000000000000000201512020002001JAIRO BASTIDAS RAMIREZ                            C000000001200000000000000000000000100010010000000000000000000000F0010000007977800220151202000101 00000000000000000000000000000000000000000000000000000000000000000000000000000000000000000000000000000000000000000N 00000000000NCONT   00    00000000000          00000000000000000000000000000000000000000000 000000000000000A000000000000000000000000000000000000000000000 000000000000000000000000000000000000000     00000000                                                                                                                        000000000000000000
F0010000007977800003000001719393900042505000000000000000000201512020002001JAIRO BASTIDAS RAMIREZ                            C000000000200000000000000000000000100010010000000000000000000000F0010000007977800320151202000101 00000000000000000000000000000000000000000000000000000000000000000000000000000000000000000000000000000000000000000N 00000000000NCONT   00    00000000000          00000000000000000000000000000000000000000000 000000000000000A000000000000000000000000000000000000000000000 000000000000000000000000000000000000000     00000000                                                                                                                        000000000000000000
F0010000007977800004000001719393900023658300000000000000000201512020002001JAIRO BASTIDAS RAMIREZ                            C000000000009600000000000000000000100010010000000000000000000000F0010000007977800420151202000101 00000000000000000000000000000000000000000000000000000000000000000000000000000000000000000000000000000000000000000N 00000000000NCONT   00    00000000000          00000000000000000000000000000000000000000000 000000000000000A000000000000000000000000000000000000000000000 000000000000000000000000000000000000000     00000000                                                                                                                        000000000000000000
F0010000007977800005000001719393900013552100000000000000000201512020002001JAIRO BASTIDAS RAMIREZ                            D000000000009600000000000000000000100010010000000000000000000000F0010000007977800520151202000101 00000000000000000000000000000000000000000000000000000000000000000000000000000000000000000000000000000000000000000N 00000000000NCONT   00    00000000000          00000000000000000000000000000000000000000000 000000000000000A000000000000000000000000000000000000000000000 000000000000000000000000000000000000000     00000000                                                                                                                        000000000000000000
F0010000007977900001000001719393900011050500000000000000000201512020002001JAIRO BASTIDAS RAMIREZ                            D000000001400000000000000000000000100010010000000000000000000000F0010000007977900120151202000101 00000000000000000000000000000000000000000000000000000000000000000000000000000000000000000000000000000000000000000N 00000000000NCONT   00    00000000000          00000000000000000000000000000000000000000000 000000000000000A000000000000000000000000000000000000000000000 000000000000000000000000000000000000000     00000000                                                                                                                        000000000000000000
F0010000007977900002000001719393900041450500000000000000000201512020002001JAIRO BASTIDAS RAMIREZ                            C000000001200000000000000000000000100010010000000000000000000000F0010000007977900220151202000101 00000000000000000000000000000000000000000000000000000000000000000000000000000000000000000000000000000000000000000N 00000000000NCONT   00    00000000000          00000000000000000000000000000000000000000000 000000000000000A000000000000000000000000000000000000000000000 000000000000000000000000000000000000000     00000000                                                                                                                        000000000000000000
F0010000007977900003000001719393900042505000000000000000000201512020002001JAIRO BASTIDAS RAMIREZ                            C000000000200000000000000000000000100010010000000000000000000000F0010000007977900320151202000101 00000000000000000000000000000000000000000000000000000000000000000000000000000000000000000000000000000000000000000N 00000000000NCONT   00    00000000000          00000000000000000000000000000000000000000000 000000000000000A000000000000000000000000000000000000000000000 000000000000000000000000000000000000000     00000000                                                                                                                        000000000000000000
F0010000007977900004000001719393900023658300000000000000000201512020002001JAIRO BASTIDAS RAMIREZ                            C000000000009600000000000000000000100010010000000000000000000000F0010000007977900420151202000101 00000000000000000000000000000000000000000000000000000000000000000000000000000000000000000000000000000000000000000N 00000000000NCONT   00    00000000000          00000000000000000000000000000000000000000000 000000000000000A000000000000000000000000000000000000000000000 000000000000000000000000000000000000000     00000000                                                                                                                        000000000000000000
F0010000007977900005000001719393900013552100000000000000000201512020002001JAIRO BASTIDAS RAMIREZ                            D000000000009600000000000000000000100010010000000000000000000000F0010000007977900520151202000101 00000000000000000000000000000000000000000000000000000000000000000000000000000000000000000000000000000000000000000N 00000000000NCONT   00    00000000000          00000000000000000000000000000000000000000000 000000000000000A000000000000000000000000000000000000000000000 000000000000000000000000000000000000000     00000000                                                                                                                        000000000000000000
F0010000007978000001000001719393900011050500000000000000000201512020002001JAIRO BASTIDAS RAMIREZ                            D000000002700000000000000000000000100010010000000000000000000000F0010000007978000120151202000101 00000000000000000000000000000000000000000000000000000000000000000000000000000000000000000000000000000000000000000N 00000000000NCONT   00    00000000000          00000000000000000000000000000000000000000000 000000000000000A000000000000000000000000000000000000000000000 000000000000000000000000000000000000000     00000000                                                                                                                        000000000000000000
F0010000007978000002000001719393900041450500000000000000000201512020002001JAIRO BASTIDAS RAMIREZ                            C000000002400000000000000000000000100010010000000000000000000000F0010000007978000220151202000101 00000000000000000000000000000000000000000000000000000000000000000000000000000000000000000000000000000000000000000N 00000000000NCONT   00    00000000000          00000000000000000000000000000000000000000000 000000000000000A000000000000000000000000000000000000000000000 000000000000000000000000000000000000000     00000000                                                                                                                        000000000000000000
F0010000007978000003000001719393900042505000000000000000000201512020002001JAIRO BASTIDAS RAMIREZ                            C000000000300000000000000000000000100010010000000000000000000000F0010000007978000320151202000101 00000000000000000000000000000000000000000000000000000000000000000000000000000000000000000000000000000000000000000N 00000000000NCONT   00    00000000000          00000000000000000000000000000000000000000000 000000000000000A000000000000000000000000000000000000000000000 000000000000000000000000000000000000000     00000000                                                                                                                        000000000000000000
F0010000007978000004000001719393900023658300000000000000000201512020002001JAIRO BASTIDAS RAMIREZ                            C000000000019200000000000000000000100010010000000000000000000000F0010000007978000420151202000101 00000000000000000000000000000000000000000000000000000000000000000000000000000000000000000000000000000000000000000N 00000000000NCONT   00    00000000000          00000000000000000000000000000000000000000000 000000000000000A000000000000000000000000000000000000000000000 000000000000000000000000000000000000000     00000000                                                                                                                        000000000000000000
F0010000007978000005000001719393900013552100000000000000000201512020002001JAIRO BASTIDAS RAMIREZ                            D000000000019200000000000000000000100010010000000000000000000000F0010000007978000520151202000101 00000000000000000000000000000000000000000000000000000000000000000000000000000000000000000000000000000000000000000N 00000000000NCONT   00    00000000000          00000000000000000000000000000000000000000000 000000000000000A000000000000000000000000000000000000000000000 000000000000000000000000000000000000000     00000000                                                                                                                        000000000000000000
F0010000007978100001000001719393900011050500000000000000000201512020002001JAIRO BASTIDAS RAMIREZ                            D000000001300000000000000000000000100010010000000000000000000000F0010000007978100120151202000101 00000000000000000000000000000000000000000000000000000000000000000000000000000000000000000000000000000000000000000N 00000000000NCONT   00    00000000000          00000000000000000000000000000000000000000000 000000000000000A000000000000000000000000000000000000000000000 000000000000000000000000000000000000000     00000000                                                                                                                        000000000000000000
F0010000007978100002000001719393900041450500000000000000000201512020002001JAIRO BASTIDAS RAMIREZ                            C000000001200000000000000000000000100010010000000000000000000000F0010000007978100220151202000101 00000000000000000000000000000000000000000000000000000000000000000000000000000000000000000000000000000000000000000N 00000000000NCONT   00    00000000000          00000000000000000000000000000000000000000000 000000000000000A000000000000000000000000000000000000000000000 000000000000000000000000000000000000000     00000000                                                                                                                        000000000000000000
F0010000007978100003000001719393900042505000000000000000000201512020002001JAIRO BASTIDAS RAMIREZ                            C000000000100000000000000000000000100010010000000000000000000000F0010000007978100320151202000101 00000000000000000000000000000000000000000000000000000000000000000000000000000000000000000000000000000000000000000N 00000000000NCONT   00    00000000000          00000000000000000000000000000000000000000000 000000000000000A000000000000000000000000000000000000000000000 000000000000000000000000000000000000000     00000000                                                                                                                        000000000000000000
F0010000007978100004000001719393900023658300000000000000000201512020002001JAIRO BASTIDAS RAMIREZ                            C000000000009600000000000000000000100010010000000000000000000000F0010000007978100420151202000101 00000000000000000000000000000000000000000000000000000000000000000000000000000000000000000000000000000000000000000N 00000000000NCONT   00    00000000000          00000000000000000000000000000000000000000000 000000000000000A000000000000000000000000000000000000000000000 000000000000000000000000000000000000000     00000000                                                                                                                        000000000000000000
F0010000007978100005000001719393900013552100000000000000000201512020002001JAIRO BASTIDAS RAMIREZ                            D000000000009600000000000000000000100010010000000000000000000000F0010000007978100520151202000101 00000000000000000000000000000000000000000000000000000000000000000000000000000000000000000000000000000000000000000N 00000000000NCONT   00    00000000000          00000000000000000000000000000000000000000000 000000000000000A000000000000000000000000000000000000000000000 000000000000000000000000000000000000000     00000000                                                                                                                        000000000000000000
F0010000007978200001000001719393900011050500000000000000000201512020002001JAIRO BASTIDAS RAMIREZ                            D000000001500000000000000000000000100010010000000000000000000000F0010000007978200120151202000101 00000000000000000000000000000000000000000000000000000000000000000000000000000000000000000000000000000000000000000N 00000000000NCONT   00    00000000000          00000000000000000000000000000000000000000000 000000000000000A000000000000000000000000000000000000000000000 000000000000000000000000000000000000000     00000000                                                                                                                        000000000000000000
F0010000007978200002000001719393900041450500000000000000000201512020002001JAIRO BASTIDAS RAMIREZ                            C000000001300000000000000000000000100010010000000000000000000000F0010000007978200220151202000101 00000000000000000000000000000000000000000000000000000000000000000000000000000000000000000000000000000000000000000N 00000000000NCONT   00    00000000000          00000000000000000000000000000000000000000000 000000000000000A000000000000000000000000000000000000000000000 000000000000000000000000000000000000000     00000000                                                                                                                        000000000000000000
F0010000007978200003000001719393900042505000000000000000000201512020002001JAIRO BASTIDAS RAMIREZ                            C000000000200000000000000000000000100010010000000000000000000000F0010000007978200320151202000101 00000000000000000000000000000000000000000000000000000000000000000000000000000000000000000000000000000000000000000N 00000000000NCONT   00    00000000000          00000000000000000000000000000000000000000000 000000000000000A000000000000000000000000000000000000000000000 000000000000000000000000000000000000000     00000000                                                                                                                        000000000000000000
F0010000007978200004000001719393900023658300000000000000000201512020002001JAIRO BASTIDAS RAMIREZ                            C000000000010400000000000000000000100010010000000000000000000000F0010000007978200420151202000101 00000000000000000000000000000000000000000000000000000000000000000000000000000000000000000000000000000000000000000N 00000000000NCONT   00    00000000000          00000000000000000000000000000000000000000000 000000000000000A000000000000000000000000000000000000000000000 000000000000000000000000000000000000000     00000000                                                                                                                        000000000000000000
F0010000007978200005000001719393900013552100000000000000000201512020002001JAIRO BASTIDAS RAMIREZ                            D000000000010400000000000000000000100010010000000000000000000000F0010000007978200520151202000101 00000000000000000000000000000000000000000000000000000000000000000000000000000000000000000000000000000000000000000N 00000000000NCONT   00    00000000000          00000000000000000000000000000000000000000000 000000000000000A000000000000000000000000000000000000000000000 000000000000000000000000000000000000000     00000000                                                                                                                        000000000000000000
F0010000007978300001000000866048200011050500000000000000000201512020002001REGINALDO TURIZO                                  D000000002500000000000000000000000100010010000000000000000000000F0010000007978300120151202000101 00000000000000000000000000000000000000000000000000000000000000000000000000000000000000000000000000000000000000000N 00000000000NCONT   00    00000000000          00000000000000000000000000000000000000000000 000000000000000A000000000000000000000000000000000000000000000 000000000000000000000000000000000000000     00000000                                                                                                                        000000000000000000
F0010000007978300002000000866048200041450500000000000000000201512020002001REGINALDO TURIZO                                  C000000001500000000000000000000000100010010000000000000000000000F0010000007978300220151202000101 00000000000000000000000000000000000000000000000000000000000000000000000000000000000000000000000000000000000000000N 00000000000NCONT   00    00000000000          00000000000000000000000000000000000000000000 000000000000000A000000000000000000000000000000000000000000000 000000000000000000000000000000000000000     00000000                                                                                                                        000000000000000000
F0010000007978300003000000866048200042505000000000000000000201512020002001REGINALDO TURIZO                                  C000000001000000000000000000000000100010010000000000000000000000F0010000007978300320151202000101 00000000000000000000000000000000000000000000000000000000000000000000000000000000000000000000000000000000000000000N 00000000000NCONT   00    00000000000          00000000000000000000000000000000000000000000 000000000000000A000000000000000000000000000000000000000000000 000000000000000000000000000000000000000     00000000                                                                                                                        000000000000000000
F0010000007978300004000000866048200023658300000000000000000201512020002001REGINALDO TURIZO                                  C000000000012000000000000000000000100010010000000000000000000000F0010000007978300420151202000101 00000000000000000000000000000000000000000000000000000000000000000000000000000000000000000000000000000000000000000N 00000000000NCONT   00    00000000000          00000000000000000000000000000000000000000000 000000000000000A000000000000000000000000000000000000000000000 000000000000000000000000000000000000000     00000000                                                                                                                        000000000000000000
F0010000007978300005000000866048200013552100000000000000000201512020002001REGINALDO TURIZO                                  D000000000012000000000000000000000100010010000000000000000000000F0010000007978300520151202000101 00000000000000000000000000000000000000000000000000000000000000000000000000000000000000000000000000000000000000000N 00000000000NCONT   00    00000000000          00000000000000000000000000000000000000000000 000000000000000A000000000000000000000000000000000000000000000 000000000000000000000000000000000000000     00000000                                                                                                                        000000000000000000
F0010000007978400001000007213847800011050500000000000000000201512020002001ALEJANDRO MEZA ALVAREZ                            D000000002000000000000000000000000100010010000000000000000000000F0010000007978400120151202000101 00000000000000000000000000000000000000000000000000000000000000000000000000000000000000000000000000000000000000000N 00000000000NCONT   00    00000000000          00000000000000000000000000000000000000000000 000000000000000A000000000000000000000000000000000000000000000 000000000000000000000000000000000000000     00000000                                                                                                                        000000000000000000
F0010000007978400002000007213847800041450500000000000000000201512020002001ALEJANDRO MEZA ALVAREZ                            C000000001800000000000000000000000100010010000000000000000000000F0010000007978400220151202000101 00000000000000000000000000000000000000000000000000000000000000000000000000000000000000000000000000000000000000000N 00000000000NCONT   00    00000000000          00000000000000000000000000000000000000000000 000000000000000A000000000000000000000000000000000000000000000 000000000000000000000000000000000000000     00000000                                                                                                                        000000000000000000
F0010000007978400003000007213847800042505000000000000000000201512020002001ALEJANDRO MEZA ALVAREZ                            C000000000200000000000000000000000100010010000000000000000000000F0010000007978400320151202000101 00000000000000000000000000000000000000000000000000000000000000000000000000000000000000000000000000000000000000000N 00000000000NCONT   00    00000000000          00000000000000000000000000000000000000000000 000000000000000A000000000000000000000000000000000000000000000 000000000000000000000000000000000000000     00000000                                                                                                                        000000000000000000
F0010000007978400004000007213847800023658300000000000000000201512020002001ALEJANDRO MEZA ALVAREZ                            C000000000014400000000000000000000100010010000000000000000000000F0010000007978400420151202000101 00000000000000000000000000000000000000000000000000000000000000000000000000000000000000000000000000000000000000000N 00000000000NCONT   00    00000000000          00000000000000000000000000000000000000000000 000000000000000A000000000000000000000000000000000000000000000 000000000000000000000000000000000000000     00000000                                                                                                                        000000000000000000
F0010000007978400005000007213847800013552100000000000000000201512020002001ALEJANDRO MEZA ALVAREZ                            D000000000014400000000000000000000100010010000000000000000000000F0010000007978400520151202000101 00000000000000000000000000000000000000000000000000000000000000000000000000000000000000000000000000000000000000000N 00000000000NCONT   00    00000000000          00000000000000000000000000000000000000000000 000000000000000A000000000000000000000000000000000000000000000 000000000000000000000000000000000000000     00000000                                                                                                                        000000000000000000
F0010000007978500001000003319910700011050500000000000000000201512020002001LUZ DARY JIMENEZ MARTINEZ                         D000000001100000000000000000000000100010010000000000000000000000F0010000007978500120151202000101 00000000000000000000000000000000000000000000000000000000000000000000000000000000000000000000000000000000000000000N 00000000000NCONT   00    00000000000          00000000000000000000000000000000000000000000 000000000000000A000000000000000000000000000000000000000000000 000000000000000000000000000000000000000     00000000                                                                                                                        000000000000000000
F0010000007978500002000003319910700041450500000000000000000201512020002001LUZ DARY JIMENEZ MARTINEZ                         C000000001000000000000000000000000100010010000000000000000000000F0010000007978500220151202000101 00000000000000000000000000000000000000000000000000000000000000000000000000000000000000000000000000000000000000000N 00000000000NCONT   00    00000000000          00000000000000000000000000000000000000000000 000000000000000A000000000000000000000000000000000000000000000 000000000000000000000000000000000000000     00000000                                                                                                                        000000000000000000
F0010000007978500003000003319910700042505000000000000000000201512020002001LUZ DARY JIMENEZ MARTINEZ                         C000000000100000000000000000000000100010010000000000000000000000F0010000007978500320151202000101 00000000000000000000000000000000000000000000000000000000000000000000000000000000000000000000000000000000000000000N 00000000000NCONT   00    00000000000          00000000000000000000000000000000000000000000 000000000000000A000000000000000000000000000000000000000000000 000000000000000000000000000000000000000     00000000                                                                                                                        000000000000000000
F0010000007978500004000003319910700023658300000000000000000201512020002001LUZ DARY JIMENEZ MARTINEZ                         C000000000008000000000000000000000100010010000000000000000000000F0010000007978500420151202000101 00000000000000000000000000000000000000000000000000000000000000000000000000000000000000000000000000000000000000000N 00000000000NCONT   00    00000000000          00000000000000000000000000000000000000000000 000000000000000A000000000000000000000000000000000000000000000 000000000000000000000000000000000000000     00000000                                                                                                                        000000000000000000
F0010000007978500005000003319910700013552100000000000000000201512020002001LUZ DARY JIMENEZ MARTINEZ                         D000000000008000000000000000000000100010010000000000000000000000F0010000007978500520151202000101 00000000000000000000000000000000000000000000000000000000000000000000000000000000000000000000000000000000000000000N 00000000000NCONT   00    00000000000          00000000000000000000000000000000000000000000 000000000000000A000000000000000000000000000000000000000000000 000000000000000000000000000000000000000     00000000                                                                                                                        000000000000000000
F0010000007978600001000090041529500011050500000000000000000201512020002001EME IMPORTACIONES ELECTRICA                       D000000001860000000000000000000000100010010000000000000000000000F0010000007978600120151202000101 00000000000000000000000000000000000000000000000000000000000000000000000000000000000000000000000000000000000000000N 00000000000NCONT   00    00000000000          00000000000000000000000000000000000000000000 000000000000000A000000000000000000000000000000000000000000000 000000000000000000000000000000000000000     00000000                                                                                                                        000000000000000000
F0010000007978600002000090041529500041450500000000000000000201512020002001EME IMPORTACIONES ELECTRICA                       C000000000860000000000000000000000100010010000000000000000000000F0010000007978600220151202000101 00000000000000000000000000000000000000000000000000000000000000000000000000000000000000000000000000000000000000000N 00000000000NCONT   00    00000000000          00000000000000000000000000000000000000000000 000000000000000A000000000000000000000000000000000000000000000 000000000000000000000000000000000000000     00000000                                                                                                                        000000000000000000
F0010000007978600003000090041529500042505000000000000000000201512020002001EME IMPORTACIONES ELECTRICA                       C000000001000000000000000000000000100010010000000000000000000000F0010000007978600320151202000101 00000000000000000000000000000000000000000000000000000000000000000000000000000000000000000000000000000000000000000N 00000000000NCONT   00    00000000000          00000000000000000000000000000000000000000000 000000000000000A000000000000000000000000000000000000000000000 000000000000000000000000000000000000000     00000000                                                                                                                        000000000000000000
F0010000007978600004000090041529500023658300000000000000000201512020002001EME IMPORTACIONES ELECTRICA                       C000000000006900000000000000000000100010010000000000000000000000F0010000007978600420151202000101 00000000000000000000000000000000000000000000000000000000000000000000000000000000000000000000000000000000000000000N 00000000000NCONT   00    00000000000          00000000000000000000000000000000000000000000 000000000000000A000000000000000000000000000000000000000000000 000000000000000000000000000000000000000     00000000                                                                                                                        000000000000000000
F0010000007978600005000090041529500013552100000000000000000201512020002001EME IMPORTACIONES ELECTRICA                       D000000000006900000000000000000000100010010000000000000000000000F0010000007978600520151202000101 00000000000000000000000000000000000000000000000000000000000000000000000000000000000000000000000000000000000000000N 00000000000NCONT   00    00000000000          00000000000000000000000000000000000000000000 000000000000000A000000000000000000000000000000000000000000000 000000000000000000000000000000000000000     00000000                                                                                                                        000000000000000000
F0010000007978700001000090041529500011050500000000000000000201512020002001EME IMPORTACIONES ELECTRICA                       D000000001860000000000000000000000100010010000000000000000000000F0010000007978700120151202000101 00000000000000000000000000000000000000000000000000000000000000000000000000000000000000000000000000000000000000000N 00000000000NCONT   00    00000000000          00000000000000000000000000000000000000000000 000000000000000A000000000000000000000000000000000000000000000 000000000000000000000000000000000000000     00000000                                                                                                                        000000000000000000
F0010000007978700002000090041529500041450500000000000000000201512020002001EME IMPORTACIONES ELECTRICA                       C000000000860000000000000000000000100010010000000000000000000000F0010000007978700220151202000101 00000000000000000000000000000000000000000000000000000000000000000000000000000000000000000000000000000000000000000N 00000000000NCONT   00    00000000000          00000000000000000000000000000000000000000000 000000000000000A000000000000000000000000000000000000000000000 000000000000000000000000000000000000000     00000000                                                                                                                        000000000000000000
F0010000007978700003000090041529500042505000000000000000000201512020002001EME IMPORTACIONES ELECTRICA                       C000000001000000000000000000000000100010010000000000000000000000F0010000007978700320151202000101 00000000000000000000000000000000000000000000000000000000000000000000000000000000000000000000000000000000000000000N 00000000000NCONT   00    00000000000          00000000000000000000000000000000000000000000 000000000000000A000000000000000000000000000000000000000000000 000000000000000000000000000000000000000     00000000                                                                                                                        000000000000000000
F0010000007978700004000090041529500023658300000000000000000201512020002001EME IMPORTACIONES ELECTRICA                       C000000000006900000000000000000000100010010000000000000000000000F0010000007978700420151202000101 00000000000000000000000000000000000000000000000000000000000000000000000000000000000000000000000000000000000000000N 00000000000NCONT   00    00000000000          00000000000000000000000000000000000000000000 000000000000000A000000000000000000000000000000000000000000000 000000000000000000000000000000000000000     00000000                                                                                                                        000000000000000000
F0010000007978700005000090041529500013552100000000000000000201512020002001EME IMPORTACIONES ELECTRICA                       D000000000006900000000000000000000100010010000000000000000000000F0010000007978700520151202000101 00000000000000000000000000000000000000000000000000000000000000000000000000000000000000000000000000000000000000000N 00000000000NCONT   00    00000000000          00000000000000000000000000000000000000000000 000000000000000A000000000000000000000000000000000000000000000 000000000000000000000000000000000000000     00000000                                                                                                                        000000000000000000
F0010000007978800001000090041529500011050500000000000000000201512020002001EME IMPORTACIONES ELECTRICA                       D000000001860000000000000000000000100010010000000000000000000000F0010000007978800120151202000101 00000000000000000000000000000000000000000000000000000000000000000000000000000000000000000000000000000000000000000N 00000000000NCONT   00    00000000000          00000000000000000000000000000000000000000000 000000000000000A000000000000000000000000000000000000000000000 000000000000000000000000000000000000000     00000000                                                                                                                        000000000000000000
F0010000007978800002000090041529500041450500000000000000000201512020002001EME IMPORTACIONES ELECTRICA                       C000000000860000000000000000000000100010010000000000000000000000F0010000007978800220151202000101 00000000000000000000000000000000000000000000000000000000000000000000000000000000000000000000000000000000000000000N 00000000000NCONT   00    00000000000          00000000000000000000000000000000000000000000 000000000000000A000000000000000000000000000000000000000000000 000000000000000000000000000000000000000     00000000                                                                                                                        000000000000000000
F0010000007978800003000090041529500042505000000000000000000201512020002001EME IMPORTACIONES ELECTRICA                       C000000001000000000000000000000000100010010000000000000000000000F0010000007978800320151202000101 00000000000000000000000000000000000000000000000000000000000000000000000000000000000000000000000000000000000000000N 00000000000NCONT   00    00000000000          00000000000000000000000000000000000000000000 000000000000000A000000000000000000000000000000000000000000000 000000000000000000000000000000000000000     00000000                                                                                                                        000000000000000000
F0010000007978800004000090041529500023658300000000000000000201512020002001EME IMPORTACIONES ELECTRICA                       C000000000006900000000000000000000100010010000000000000000000000F0010000007978800420151202000101 00000000000000000000000000000000000000000000000000000000000000000000000000000000000000000000000000000000000000000N 00000000000NCONT   00    00000000000          00000000000000000000000000000000000000000000 000000000000000A000000000000000000000000000000000000000000000 000000000000000000000000000000000000000     00000000                                                                                                                        000000000000000000
F0010000007978800005000090041529500013552100000000000000000201512020002001EME IMPORTACIONES ELECTRICA                       D000000000006900000000000000000000100010010000000000000000000000F0010000007978800520151202000101 00000000000000000000000000000000000000000000000000000000000000000000000000000000000000000000000000000000000000000N 00000000000NCONT   00    00000000000          00000000000000000000000000000000000000000000 000000000000000A000000000000000000000000000000000000000000000 000000000000000000000000000000000000000     00000000                                                                                                                        000000000000000000
F0010000007978900001000005204371400011050500000000000000000201512020002001MARITZA IMPORTS                                   D000000002900000000000000000000000100010010000000000000000000000F0010000007978900120151202000101 00000000000000000000000000000000000000000000000000000000000000000000000000000000000000000000000000000000000000000N 00000000000NCONT   00    00000000000          00000000000000000000000000000000000000000000 000000000000000A000000000000000000000000000000000000000000000 000000000000000000000000000000000000000     00000000                                                                                                                        000000000000000000
F0010000007978900002000005204371400041450500000000000000000201512020002001MARITZA IMPORTS                                   C000000002400000000000000000000000100010010000000000000000000000F0010000007978900220151202000101 00000000000000000000000000000000000000000000000000000000000000000000000000000000000000000000000000000000000000000N 00000000000NCONT   00    00000000000          00000000000000000000000000000000000000000000 000000000000000A000000000000000000000000000000000000000000000 000000000000000000000000000000000000000     00000000                                                                                                                        000000000000000000
F0010000007978900003000005204371400042505000000000000000000201512020002001MARITZA IMPORTS                                   C000000000500000000000000000000000100010010000000000000000000000F0010000007978900320151202000101 00000000000000000000000000000000000000000000000000000000000000000000000000000000000000000000000000000000000000000N 00000000000NCONT   00    00000000000          00000000000000000000000000000000000000000000 000000000000000A000000000000000000000000000000000000000000000 000000000000000000000000000000000000000     00000000                                                                                                                        000000000000000000
F0010000007978900004000005204371400023658300000000000000000201512020002001MARITZA IMPORTS                                   C000000000019200000000000000000000100010010000000000000000000000F0010000007978900420151202000101 00000000000000000000000000000000000000000000000000000000000000000000000000000000000000000000000000000000000000000N 00000000000NCONT   00    00000000000          00000000000000000000000000000000000000000000 000000000000000A000000000000000000000000000000000000000000000 000000000000000000000000000000000000000     00000000                                                                                                                        000000000000000000
F0010000007978900005000005204371400013552100000000000000000201512020002001MARITZA IMPORTS                                   D000000000019200000000000000000000100010010000000000000000000000F0010000007978900520151202000101 00000000000000000000000000000000000000000000000000000000000000000000000000000000000000000000000000000000000000000N 00000000000NCONT   00    00000000000          00000000000000000000000000000000000000000000 000000000000000A000000000000000000000000000000000000000000000 000000000000000000000000000000000000000     00000000                                                                                                                        000000000000000000
F0010000007979000001000080202350700011050500000000000000000201512020002001CONNY DE LA COSTA SAS                             D000000003500000000000000000000000100010010000000000000000000000F0010000007979000120151202000101 00000000000000000000000000000000000000000000000000000000000000000000000000000000000000000000000000000000000000000N 00000000000NCONT   00    00000000000          00000000000000000000000000000000000000000000 000000000000000A000000000000000000000000000000000000000000000 000000000000000000000000000000000000000     00000000                                                                                                                        000000000000000000
