F0010000007684600001000090021022400011050500000000000000000201509290002001ELECTRO HERRAJES                                  D000000032000000000000000000000000100010010000000000000000000000F0010000007684600120150929000101 00000000000000000000000000000000000000000000000000000000000000000000000000000000000000000000000000000000000000000N 00000000000NCONT   00    00000000000          00000000000000000000000000000000000000000000 000000000000000A000000000000000000000000000000000000000000000 000000000000000000000000000000000000000     00000000                                                                                                                        000000000000000000
F0010000007684600002000090021022400041450500000000000000000201509290002001ELECTRO HERRAJES                                  C000000028000000000000000000000000100010010000000000000000000000F0010000007684600220150929000101 00000000000000000000000000000000000000000000000000000000000000000000000000000000000000000000000000000000000000000N 00000000000NCONT   00    00000000000          00000000000000000000000000000000000000000000 000000000000000A000000000000000000000000000000000000000000000 000000000000000000000000000000000000000     00000000                                                                                                                        000000000000000000
F0010000007684600003000090021022400042505000000000000000000201509290002001ELECTRO HERRAJES                                  C000000004000000000000000000000000100010010000000000000000000000F0010000007684600320150929000101 00000000000000000000000000000000000000000000000000000000000000000000000000000000000000000000000000000000000000000N 00000000000NCONT   00    00000000000          00000000000000000000000000000000000000000000 000000000000000A000000000000000000000000000000000000000000000 000000000000000000000000000000000000000     00000000                                                                                                                        000000000000000000
F0010000007684600004000090021022400023658300000000000000000201509290002001ELECTRO HERRAJES                                  C000000000224000000000000000000000100010010000000000000000000000F0010000007684600420150929000101 00000000000000000000000000000000000000000000000000000000000000000000000000000000000000000000000000000000000000000N 00000000000NCONT   00    00000000000          00000000000000000000000000000000000000000000 000000000000000A000000000000000000000000000000000000000000000 000000000000000000000000000000000000000     00000000                                                                                                                        000000000000000000
F0010000007684600005000090021022400013552100000000000000000201509290002001ELECTRO HERRAJES                                  D000000000224000000000000000000000100010010000000000000000000000F0010000007684600520150929000101 00000000000000000000000000000000000000000000000000000000000000000000000000000000000000000000000000000000000000000N 00000000000NCONT   00    00000000000          00000000000000000000000000000000000000000000 000000000000000A000000000000000000000000000000000000000000000 000000000000000000000000000000000000000     00000000                                                                                                                        000000000000000000
F0010000007684700001000090009800500013050500000000000000000201509290002001GLORIANT CHEMICAL DE COLOMBIA LTDA                D000000098073000000000000000000000100010010000000000000000000000F0010000007684700120150929000101 00000000000000000000000000000000000000000000000000000000000000000000000000000000000000000000000000000000000000000N 00000000000NCONT   00    00000000000          00000000000000000000000000000000000000000000 000000000000000A000000000000000000000000000000000000000000000 000000000000000000000000000000000000000     00000000                                                                                                                        000000000000000000
F0010000007684700002000090009800500041450500000000000000000201509290002001GLORIANT CHEMICAL DE COLOMBIA LTDA                C000000087010000000000000000000000100010010000000000000000000000F0010000007684700220150929000101 00000000000000000000000000000000000000000000000000000000000000000000000000000000000000000000000000000000000000000N 00000000000NCONT   00    00000000000          00000000000000000000000000000000000000000000 000000000000000A000000000000000000000000000000000000000000000 000000000000000000000000000000000000000     00000000                                                                                                                        000000000000000000
F0010000007684700003000090009800500042505000000000000000000201509290002001GLORIANT CHEMICAL DE COLOMBIA LTDA                C000000011063000000000000000000000100010010000000000000000000000F0010000007684700320150929000101 00000000000000000000000000000000000000000000000000000000000000000000000000000000000000000000000000000000000000000N 00000000000NCONT   00    00000000000          00000000000000000000000000000000000000000000 000000000000000A000000000000000000000000000000000000000000000 000000000000000000000000000000000000000     00000000                                                                                                                        000000000000000000
F0010000007684700004000090009800500023658300000000000000000201509290002001GLORIANT CHEMICAL DE COLOMBIA LTDA                C000000000696100000000000000000000100010010000000000000000000000F0010000007684700420150929000101 00000000000000000000000000000000000000000000000000000000000000000000000000000000000000000000000000000000000000000N 00000000000NCONT   00    00000000000          00000000000000000000000000000000000000000000 000000000000000A000000000000000000000000000000000000000000000 000000000000000000000000000000000000000     00000000                                                                                                                        000000000000000000
F0010000007684700005000090009800500013552100000000000000000201509290002001GLORIANT CHEMICAL DE COLOMBIA LTDA                D000000000696100000000000000000000100010010000000000000000000000F0010000007684700520150929000101 00000000000000000000000000000000000000000000000000000000000000000000000000000000000000000000000000000000000000000N 00000000000NCONT   00    00000000000          00000000000000000000000000000000000000000000 000000000000000A000000000000000000000000000000000000000000000 000000000000000000000000000000000000000     00000000                                                                                                                        000000000000000000
F0010000007684800001000080016665600013050500000000000000000201509290002001SUMICAL DE ANTIOQUIA S.A.S                        D000000063406100000000000000000000100010010000000000000000000000F0010000007684800120150929000101 00000000000000000000000000000000000000000000000000000000000000000000000000000000000000000000000000000000000000000N 00000000000NCONT   00    00000000000          00000000000000000000000000000000000000000000 000000000000000A000000000000000000000000000000000000000000000 000000000000000000000000000000000000000     00000000                                                                                                                        000000000000000000
F0010000007684800002000080016665600041450500000000000000000201509290002001SUMICAL DE ANTIOQUIA S.A.S                        C000000054640000000000000000000000100010010000000000000000000000F0010000007684800220150929000101 00000000000000000000000000000000000000000000000000000000000000000000000000000000000000000000000000000000000000000N 00000000000NCONT   00    00000000000          00000000000000000000000000000000000000000000 000000000000000A000000000000000000000000000000000000000000000 000000000000000000000000000000000000000     00000000                                                                                                                        000000000000000000
F0010000007684800003000080016665600042505000000000000000000201509290002001SUMICAL DE ANTIOQUIA S.A.S                        C000000008766100000000000000000000100010010000000000000000000000F0010000007684800320150929000101 00000000000000000000000000000000000000000000000000000000000000000000000000000000000000000000000000000000000000000N 00000000000NCONT   00    00000000000          00000000000000000000000000000000000000000000 000000000000000A000000000000000000000000000000000000000000000 000000000000000000000000000000000000000     00000000                                                                                                                        000000000000000000
F0010000007684800004000080016665600023658300000000000000000201509290002001SUMICAL DE ANTIOQUIA S.A.S                        C000000000437100000000000000000000100010010000000000000000000000F0010000007684800420150929000101 00000000000000000000000000000000000000000000000000000000000000000000000000000000000000000000000000000000000000000N 00000000000NCONT   00    00000000000          00000000000000000000000000000000000000000000 000000000000000A000000000000000000000000000000000000000000000 000000000000000000000000000000000000000     00000000                                                                                                                        000000000000000000
F0010000007684800005000080016665600013552100000000000000000201509290002001SUMICAL DE ANTIOQUIA S.A.S                        D000000000437100000000000000000000100010010000000000000000000000F0010000007684800520150929000101 00000000000000000000000000000000000000000000000000000000000000000000000000000000000000000000000000000000000000000N 00000000000NCONT   00    00000000000          00000000000000000000000000000000000000000000 000000000000000A000000000000000000000000000000000000000000000 000000000000000000000000000000000000000     00000000                                                                                                                        000000000000000000
F0010000007684900001000090059316900013050500000000000000000201509290002001DISTRIBUCIONES Y REPRESENTACIONES MANA            D000000014089000000000000000000000100010010000000000000000000000F0010000007684900120150929000101 00000000000000000000000000000000000000000000000000000000000000000000000000000000000000000000000000000000000000000N 00000000000NCONT   00    00000000000          00000000000000000000000000000000000000000000 000000000000000A000000000000000000000000000000000000000000000 000000000000000000000000000000000000000     00000000                                                                                                                        000000000000000000
F0010000007684900002000090059316900041450500000000000000000201509290002001DISTRIBUCIONES Y REPRESENTACIONES MANA            C000000011790000000000000000000000100010010000000000000000000000F0010000007684900220150929000101 00000000000000000000000000000000000000000000000000000000000000000000000000000000000000000000000000000000000000000N 00000000000NCONT   00    00000000000          00000000000000000000000000000000000000000000 000000000000000A000000000000000000000000000000000000000000000 000000000000000000000000000000000000000     00000000                                                                                                                        000000000000000000
F0010000007684900003000090059316900042505000000000000000000201509290002001DISTRIBUCIONES Y REPRESENTACIONES MANA            C000000002299000000000000000000000100010010000000000000000000000F0010000007684900320150929000101 00000000000000000000000000000000000000000000000000000000000000000000000000000000000000000000000000000000000000000N 00000000000NCONT   00    00000000000          00000000000000000000000000000000000000000000 000000000000000A000000000000000000000000000000000000000000000 000000000000000000000000000000000000000     00000000                                                                                                                        000000000000000000
F0010000007684900004000090059316900023658300000000000000000201509290002001DISTRIBUCIONES Y REPRESENTACIONES MANA            C000000000094300000000000000000000100010010000000000000000000000F0010000007684900420150929000101 00000000000000000000000000000000000000000000000000000000000000000000000000000000000000000000000000000000000000000N 00000000000NCONT   00    00000000000          00000000000000000000000000000000000000000000 000000000000000A000000000000000000000000000000000000000000000 000000000000000000000000000000000000000     00000000                                                                                                                        000000000000000000
F0010000007684900005000090059316900013552100000000000000000201509290002001DISTRIBUCIONES Y REPRESENTACIONES MANA            D000000000094300000000000000000000100010010000000000000000000000F0010000007684900520150929000101 00000000000000000000000000000000000000000000000000000000000000000000000000000000000000000000000000000000000000000N 00000000000NCONT   00    00000000000          00000000000000000000000000000000000000000000 000000000000000A000000000000000000000000000000000000000000000 000000000000000000000000000000000000000     00000000                                                                                                                        000000000000000000
F0010000007685000001000002245670100013050500000000000000000201509290002001YOLANDA  TOBON                                    D000000026623000000000000000000000100010010000000000000000000000F0010000007685000120150929000101 00000000000000000000000000000000000000000000000000000000000000000000000000000000000000000000000000000000000000000N 00000000000NCONT   00    00000000000          00000000000000000000000000000000000000000000 000000000000000A000000000000000000000000000000000000000000000 000000000000000000000000000000000000000     00000000                                                                                                                        000000000000000000
F0010000007685000002000002245670100041450500000000000000000201509290002001YOLANDA  TOBON                                    C000000019000000000000000000000000100010010000000000000000000000F0010000007685000220150929000101 00000000000000000000000000000000000000000000000000000000000000000000000000000000000000000000000000000000000000000N 00000000000NCONT   00    00000000000          00000000000000000000000000000000000000000000 000000000000000A000000000000000000000000000000000000000000000 000000000000000000000000000000000000000     00000000                                                                                                                        000000000000000000
F0010000007685000003000002245670100042505000000000000000000201509290002001YOLANDA  TOBON                                    C000000007623000000000000000000000100010010000000000000000000000F0010000007685000320150929000101 00000000000000000000000000000000000000000000000000000000000000000000000000000000000000000000000000000000000000000N 00000000000NCONT   00    00000000000          00000000000000000000000000000000000000000000 000000000000000A000000000000000000000000000000000000000000000 000000000000000000000000000000000000000     00000000                                                                                                                        000000000000000000
F0010000007685000004000002245670100023658300000000000000000201509290002001YOLANDA  TOBON                                    C000000000152000000000000000000000100010010000000000000000000000F0010000007685000420150929000101 00000000000000000000000000000000000000000000000000000000000000000000000000000000000000000000000000000000000000000N 00000000000NCONT   00    00000000000          00000000000000000000000000000000000000000000 000000000000000A000000000000000000000000000000000000000000000 000000000000000000000000000000000000000     00000000                                                                                                                        000000000000000000
F0010000007685000005000002245670100013552100000000000000000201509290002001YOLANDA  TOBON                                    D000000000152000000000000000000000100010010000000000000000000000F0010000007685000520150929000101 00000000000000000000000000000000000000000000000000000000000000000000000000000000000000000000000000000000000000000N 00000000000NCONT   00    00000000000          00000000000000000000000000000000000000000000 000000000000000A000000000000000000000000000000000000000000000 000000000000000000000000000000000000000     00000000                                                                                                                        000000000000000000
F0010000007685100001000002258669400013050500000000000000000201509290002001YURY PAOLA  SANTAMARIA ..                         D000000008460000000000000000000000100010010000000000000000000000F0010000007685100120150929000101 00000000000000000000000000000000000000000000000000000000000000000000000000000000000000000000000000000000000000000N 00000000000NCONT   00    00000000000          00000000000000000000000000000000000000000000 000000000000000A000000000000000000000000000000000000000000000 000000000000000000000000000000000000000     00000000                                                                                                                        000000000000000000
F0010000007685100002000002258669400041450500000000000000000201509290002001YURY PAOLA  SANTAMARIA ..                         C000000007560000000000000000000000100010010000000000000000000000F0010000007685100220150929000101 00000000000000000000000000000000000000000000000000000000000000000000000000000000000000000000000000000000000000000N 00000000000NCONT   00    00000000000          00000000000000000000000000000000000000000000 000000000000000A000000000000000000000000000000000000000000000 000000000000000000000000000000000000000     00000000                                                                                                                        000000000000000000
F0010000007685100003000002258669400042505000000000000000000201509290002001YURY PAOLA  SANTAMARIA ..                         C000000000900000000000000000000000100010010000000000000000000000F0010000007685100320150929000101 00000000000000000000000000000000000000000000000000000000000000000000000000000000000000000000000000000000000000000N 00000000000NCONT   00    00000000000          00000000000000000000000000000000000000000000 000000000000000A000000000000000000000000000000000000000000000 000000000000000000000000000000000000000     00000000                                                                                                                        000000000000000000
F0010000007685100004000002258669400023658300000000000000000201509290002001YURY PAOLA  SANTAMARIA ..                         C000000000060500000000000000000000100010010000000000000000000000F0010000007685100420150929000101 00000000000000000000000000000000000000000000000000000000000000000000000000000000000000000000000000000000000000000N 00000000000NCONT   00    00000000000          00000000000000000000000000000000000000000000 000000000000000A000000000000000000000000000000000000000000000 000000000000000000000000000000000000000     00000000                                                                                                                        000000000000000000
F0010000007685100005000002258669400013552100000000000000000201509290002001YURY PAOLA  SANTAMARIA ..                         D000000000060500000000000000000000100010010000000000000000000000F0010000007685100520150929000101 00000000000000000000000000000000000000000000000000000000000000000000000000000000000000000000000000000000000000000N 00000000000NCONT   00    00000000000          00000000000000000000000000000000000000000000 000000000000000A000000000000000000000000000000000000000000000 000000000000000000000000000000000000000     00000000                                                                                                                        000000000000000000
F0010000007685200001000000748239700013050500000000000000000201509290002001RAFAEL NAVARRO URIBE                              D000000076070800000000000000000000100010010000000000000000000000F0010000007685200120150929000101 00000000000000000000000000000000000000000000000000000000000000000000000000000000000000000000000000000000000000000N 00000000000NCONT   00    00000000000          00000000000000000000000000000000000000000000 000000000000000A000000000000000000000000000000000000000000000 000000000000000000000000000000000000000     00000000                                                                                                                        000000000000000000
F0010000007685200002000000748239700041450500000000000000000201509290002001RAFAEL NAVARRO URIBE                              C000000056110000000000000000000000100010010000000000000000000000F0010000007685200220150929000101 00000000000000000000000000000000000000000000000000000000000000000000000000000000000000000000000000000000000000000N 00000000000NCONT   00    00000000000          00000000000000000000000000000000000000000000 000000000000000A000000000000000000000000000000000000000000000 000000000000000000000000000000000000000     00000000                                                                                                                        000000000000000000
F0010000007685200003000000748239700042505000000000000000000201509290002001RAFAEL NAVARRO URIBE                              C000000019960800000000000000000000100010010000000000000000000000F0010000007685200320150929000101 00000000000000000000000000000000000000000000000000000000000000000000000000000000000000000000000000000000000000000N 00000000000NCONT   00    00000000000          00000000000000000000000000000000000000000000 000000000000000A000000000000000000000000000000000000000000000 000000000000000000000000000000000000000     00000000                                                                                                                        000000000000000000
F0010000007685200004000000748239700023658300000000000000000201509290002001RAFAEL NAVARRO URIBE                              C000000000448900000000000000000000100010010000000000000000000000F0010000007685200420150929000101 00000000000000000000000000000000000000000000000000000000000000000000000000000000000000000000000000000000000000000N 00000000000NCONT   00    00000000000          00000000000000000000000000000000000000000000 000000000000000A000000000000000000000000000000000000000000000 000000000000000000000000000000000000000     00000000                                                                                                                        000000000000000000
F0010000007685200005000000748239700013552100000000000000000201509290002001RAFAEL NAVARRO URIBE                              D000000000448900000000000000000000100010010000000000000000000000F0010000007685200520150929000101 00000000000000000000000000000000000000000000000000000000000000000000000000000000000000000000000000000000000000000N 00000000000NCONT   00    00000000000          00000000000000000000000000000000000000000000 000000000000000A000000000000000000000000000000000000000000000 000000000000000000000000000000000000000     00000000                                                                                                                        000000000000000000
F0010000007685300001000080004943800013050500000000000000000201509290002001PAPELERIA EL CID S.A.                             D000000053157000000000000000000000100010010000000000000000000000F0010000007685300120150929000101 00000000000000000000000000000000000000000000000000000000000000000000000000000000000000000000000000000000000000000N 00000000000NCONT   00    00000000000          00000000000000000000000000000000000000000000 000000000000000A000000000000000000000000000000000000000000000 000000000000000000000000000000000000000     00000000                                                                                                                        000000000000000000
F0010000007685300002000080004943800041450500000000000000000201509290002001PAPELERIA EL CID S.A.                             C000000045017000000000000000000000100010010000000000000000000000F0010000007685300220150929000101 00000000000000000000000000000000000000000000000000000000000000000000000000000000000000000000000000000000000000000N 00000000000NCONT   00    00000000000          00000000000000000000000000000000000000000000 000000000000000A000000000000000000000000000000000000000000000 000000000000000000000000000000000000000     00000000                                                                                                                        000000000000000000
F0010000007685300003000080004943800042505000000000000000000201509290002001PAPELERIA EL CID S.A.                             C000000008140000000000000000000000100010010000000000000000000000F0010000007685300320150929000101 00000000000000000000000000000000000000000000000000000000000000000000000000000000000000000000000000000000000000000N 00000000000NCONT   00    00000000000          00000000000000000000000000000000000000000000 000000000000000A000000000000000000000000000000000000000000000 000000000000000000000000000000000000000     00000000                                                                                                                        000000000000000000
F0010000007685300004000080004943800023658300000000000000000201509290002001PAPELERIA EL CID S.A.                             C000000000360100000000000000000000100010010000000000000000000000F0010000007685300420150929000101 00000000000000000000000000000000000000000000000000000000000000000000000000000000000000000000000000000000000000000N 00000000000NCONT   00    00000000000          00000000000000000000000000000000000000000000 000000000000000A000000000000000000000000000000000000000000000 000000000000000000000000000000000000000     00000000                                                                                                                        000000000000000000
F0010000007685300005000080004943800013552100000000000000000201509290002001PAPELERIA EL CID S.A.                             D000000000360100000000000000000000100010010000000000000000000000F0010000007685300520150929000101 00000000000000000000000000000000000000000000000000000000000000000000000000000000000000000000000000000000000000000N 00000000000NCONT   00    00000000000          00000000000000000000000000000000000000000000 000000000000000A000000000000000000000000000000000000000000000 000000000000000000000000000000000000000     00000000                                                                                                                        000000000000000000
F0010000007685400001000089010260300013050500000000000000000201509290002001FEDERICO OSORIO A. S.A.                           D000000081599000000000000000000000100010010000000000000000000000F0010000007685400120150929000101 00000000000000000000000000000000000000000000000000000000000000000000000000000000000000000000000000000000000000000N 00000000000NCONT   00    00000000000          00000000000000000000000000000000000000000000 000000000000000A000000000000000000000000000000000000000000000 000000000000000000000000000000000000000     00000000                                                                                                                        000000000000000000
F0010000007685400002000089010260300041450500000000000000000201509290002001FEDERICO OSORIO A. S.A.                           C000000073010000000000000000000000100010010000000000000000000000F0010000007685400220150929000101 00000000000000000000000000000000000000000000000000000000000000000000000000000000000000000000000000000000000000000N 00000000000NCONT   00    00000000000          00000000000000000000000000000000000000000000 000000000000000A000000000000000000000000000000000000000000000 000000000000000000000000000000000000000     00000000                                                                                                                        000000000000000000
F0010000007685400003000089010260300042505000000000000000000201509290002001FEDERICO OSORIO A. S.A.                           C000000008589000000000000000000000100010010000000000000000000000F0010000007685400320150929000101 00000000000000000000000000000000000000000000000000000000000000000000000000000000000000000000000000000000000000000N 00000000000NCONT   00    00000000000          00000000000000000000000000000000000000000000 000000000000000A000000000000000000000000000000000000000000000 000000000000000000000000000000000000000     00000000                                                                                                                        000000000000000000
F0010000007685400004000089010260300023658300000000000000000201509290002001FEDERICO OSORIO A. S.A.                           C000000000584100000000000000000000100010010000000000000000000000F0010000007685400420150929000101 00000000000000000000000000000000000000000000000000000000000000000000000000000000000000000000000000000000000000000N 00000000000NCONT   00    00000000000          00000000000000000000000000000000000000000000 000000000000000A000000000000000000000000000000000000000000000 000000000000000000000000000000000000000     00000000                                                                                                                        000000000000000000
F0010000007685400005000089010260300013552100000000000000000201509290002001FEDERICO OSORIO A. S.A.                           D000000000584100000000000000000000100010010000000000000000000000F0010000007685400520150929000101 00000000000000000000000000000000000000000000000000000000000000000000000000000000000000000000000000000000000000000N 00000000000NCONT   00    00000000000          00000000000000000000000000000000000000000000 000000000000000A000000000000000000000000000000000000000000000 000000000000000000000000000000000000000     00000000                                                                                                                        000000000000000000
F0010000007685500001000080202094000013050500000000000000000201509290002001DISTRIB. OMAR ORREGO S.A.                         D000000036267700000000000000000000100010010000000000000000000000F0010000007685500120150929000101 00000000000000000000000000000000000000000000000000000000000000000000000000000000000000000000000000000000000000000N 00000000000NCONT   00    00000000000          00000000000000000000000000000000000000000000 000000000000000A000000000000000000000000000000000000000000000 000000000000000000000000000000000000000     00000000                                                                                                                        000000000000000000
F0010000007685500002000080202094000041450500000000000000000201509290002001DISTRIB. OMAR ORREGO S.A.                         C000000015730000000000000000000000100010010000000000000000000000F0010000007685500220150929000101 00000000000000000000000000000000000000000000000000000000000000000000000000000000000000000000000000000000000000000N 00000000000NCONT   00    00000000000          00000000000000000000000000000000000000000000 000000000000000A000000000000000000000000000000000000000000000 000000000000000000000000000000000000000     00000000                                                                                                                        000000000000000000
F0010000007685500003000080202094000042505000000000000000000201509290002001DISTRIB. OMAR ORREGO S.A.                         C000000020537700000000000000000000100010010000000000000000000000F0010000007685500320150929000101 00000000000000000000000000000000000000000000000000000000000000000000000000000000000000000000000000000000000000000N 00000000000NCONT   00    00000000000          00000000000000000000000000000000000000000000 000000000000000A000000000000000000000000000000000000000000000 000000000000000000000000000000000000000     00000000                                                                                                                        000000000000000000
F0010000007685500004000080202094000023658300000000000000000201509290002001DISTRIB. OMAR ORREGO S.A.                         C000000000125800000000000000000000100010010000000000000000000000F0010000007685500420150929000101 00000000000000000000000000000000000000000000000000000000000000000000000000000000000000000000000000000000000000000N 00000000000NCONT   00    00000000000          00000000000000000000000000000000000000000000 000000000000000A000000000000000000000000000000000000000000000 000000000000000000000000000000000000000     00000000                                                                                                                        000000000000000000
F0010000007685500005000080202094000013552100000000000000000201509290002001DISTRIB. OMAR ORREGO S.A.                         D000000000125800000000000000000000100010010000000000000000000000F0010000007685500520150929000101 00000000000000000000000000000000000000000000000000000000000000000000000000000000000000000000000000000000000000000N 00000000000NCONT   00    00000000000          00000000000000000000000000000000000000000000 000000000000000A000000000000000000000000000000000000000000000 000000000000000000000000000000000000000     00000000                                                                                                                        000000000000000000
F0010000007685600001000089011078600013050500000000000000000201509290002001DIST. NUEVO MUNDO S.A.S.                          D000000006267300000000000000000000100010010000000000000000000000F0010000007685600120150929000101 00000000000000000000000000000000000000000000000000000000000000000000000000000000000000000000000000000000000000000N 00000000000NCONT   00    00000000000          00000000000000000000000000000000000000000000 000000000000000A000000000000000000000000000000000000000000000 000000000000000000000000000000000000000     00000000                                                                                                                        000000000000000000
F0010000007685600002000089011078600041450500000000000000000201509290002001DIST. NUEVO MUNDO S.A.S.                          C000000005380000000000000000000000100010010000000000000000000000F0010000007685600220150929000101 00000000000000000000000000000000000000000000000000000000000000000000000000000000000000000000000000000000000000000N 00000000000NCONT   00    00000000000          00000000000000000000000000000000000000000000 000000000000000A000000000000000000000000000000000000000000000 000000000000000000000000000000000000000     00000000                                                                                                                        000000000000000000
F0010000007685600003000089011078600042505000000000000000000201509290002001DIST. NUEVO MUNDO S.A.S.                          C000000000887300000000000000000000100010010000000000000000000000F0010000007685600320150929000101 00000000000000000000000000000000000000000000000000000000000000000000000000000000000000000000000000000000000000000N 00000000000NCONT   00    00000000000          00000000000000000000000000000000000000000000 000000000000000A000000000000000000000000000000000000000000000 000000000000000000000000000000000000000     00000000                                                                                                                        000000000000000000
F0010000007685600004000089011078600023658300000000000000000201509290002001DIST. NUEVO MUNDO S.A.S.                          C000000000043000000000000000000000100010010000000000000000000000F0010000007685600420150929000101 00000000000000000000000000000000000000000000000000000000000000000000000000000000000000000000000000000000000000000N 00000000000NCONT   00    00000000000          00000000000000000000000000000000000000000000 000000000000000A000000000000000000000000000000000000000000000 000000000000000000000000000000000000000     00000000                                                                                                                        000000000000000000
F0010000007685600005000089011078600013552100000000000000000201509290002001DIST. NUEVO MUNDO S.A.S.                          D000000000043000000000000000000000100010010000000000000000000000F0010000007685600520150929000101 00000000000000000000000000000000000000000000000000000000000000000000000000000000000000000000000000000000000000000N 00000000000NCONT   00    00000000000          00000000000000000000000000000000000000000000 000000000000000A000000000000000000000000000000000000000000000 000000000000000000000000000000000000000     00000000                                                                                                                        000000000000000000
F0010000007685700001000080001063400013050500000000000000000201509290002001PRODUCTOS JULIAO SAS                              D000000006496100000000000000000000100010010000000000000000000000F0010000007685700120150929000101 00000000000000000000000000000000000000000000000000000000000000000000000000000000000000000000000000000000000000000N 00000000000NCONT   00    00000000000          00000000000000000000000000000000000000000000 000000000000000A000000000000000000000000000000000000000000000 000000000000000000000000000000000000000     00000000                                                                                                                        000000000000000000
F0010000007685700002000080001063400041450500000000000000000201509290002001PRODUCTOS JULIAO SAS                              C000000006300000000000000000000000100010010000000000000000000000F0010000007685700220150929000101 00000000000000000000000000000000000000000000000000000000000000000000000000000000000000000000000000000000000000000N 00000000000NCONT   00    00000000000          00000000000000000000000000000000000000000000 000000000000000A000000000000000000000000000000000000000000000 000000000000000000000000000000000000000     00000000                                                                                                                        000000000000000000
F0010000007685700003000080001063400042505000000000000000000201509290002001PRODUCTOS JULIAO SAS                              C000000000196100000000000000000000100010010000000000000000000000F0010000007685700320150929000101 00000000000000000000000000000000000000000000000000000000000000000000000000000000000000000000000000000000000000000N 00000000000NCONT   00    00000000000          00000000000000000000000000000000000000000000 000000000000000A000000000000000000000000000000000000000000000 000000000000000000000000000000000000000     00000000                                                                                                                        000000000000000000
F0010000007685700004000080001063400023658300000000000000000201509290002001PRODUCTOS JULIAO SAS                              C000000000050400000000000000000000100010010000000000000000000000F0010000007685700420150929000101 00000000000000000000000000000000000000000000000000000000000000000000000000000000000000000000000000000000000000000N 00000000000NCONT   00    00000000000          00000000000000000000000000000000000000000000 000000000000000A000000000000000000000000000000000000000000000 000000000000000000000000000000000000000     00000000                                                                                                                        000000000000000000
F0010000007685700005000080001063400013552100000000000000000201509290002001PRODUCTOS JULIAO SAS                              D000000000050400000000000000000000100010010000000000000000000000F0010000007685700520150929000101 00000000000000000000000000000000000000000000000000000000000000000000000000000000000000000000000000000000000000000N 00000000000NCONT   00    00000000000          00000000000000000000000000000000000000000000 000000000000000A000000000000000000000000000000000000000000000 000000000000000000000000000000000000000     00000000                                                                                                                        000000000000000000
F0010000007685800001000090053611800013050500000000000000000201509290002001PELETERIA COSTA CARIBE S.A .S                     D000000025430400000000000000000000100010010000000000000000000000F0010000007685800120150929000101 00000000000000000000000000000000000000000000000000000000000000000000000000000000000000000000000000000000000000000N 00000000000NCONT   00    00000000000          00000000000000000000000000000000000000000000 000000000000000A000000000000000000000000000000000000000000000 000000000000000000000000000000000000000     00000000                                                                                                                        000000000000000000
F0010000007685800002000090053611800041450500000000000000000201509290002001PELETERIA COSTA CARIBE S.A .S                     C000000020382400000000000000000000100010010000000000000000000000F0010000007685800220150929000101 00000000000000000000000000000000000000000000000000000000000000000000000000000000000000000000000000000000000000000N 00000000000NCONT   00    00000000000          00000000000000000000000000000000000000000000 000000000000000A000000000000000000000000000000000000000000000 000000000000000000000000000000000000000     00000000                                                                                                                        000000000000000000
F0010000007685800003000090053611800042505000000000000000000201509290002001PELETERIA COSTA CARIBE S.A .S                     C000000005048000000000000000000000100010010000000000000000000000F0010000007685800320150929000101 00000000000000000000000000000000000000000000000000000000000000000000000000000000000000000000000000000000000000000N 00000000000NCONT   00    00000000000          00000000000000000000000000000000000000000000 000000000000000A000000000000000000000000000000000000000000000 000000000000000000000000000000000000000     00000000                                                                                                                        000000000000000000
F0010000007685800004000090053611800023658300000000000000000201509290002001PELETERIA COSTA CARIBE S.A .S                     C000000000163100000000000000000000100010010000000000000000000000F0010000007685800420150929000101 00000000000000000000000000000000000000000000000000000000000000000000000000000000000000000000000000000000000000000N 00000000000NCONT   00    00000000000          00000000000000000000000000000000000000000000 000000000000000A000000000000000000000000000000000000000000000 000000000000000000000000000000000000000     00000000                                                                                                                        000000000000000000
F0010000007685800005000090053611800013552100000000000000000201509290002001PELETERIA COSTA CARIBE S.A .S                     D000000000163100000000000000000000100010010000000000000000000000F0010000007685800520150929000101 00000000000000000000000000000000000000000000000000000000000000000000000000000000000000000000000000000000000000000N 00000000000NCONT   00    00000000000          00000000000000000000000000000000000000000000 000000000000000A000000000000000000000000000000000000000000000 000000000000000000000000000000000000000     00000000                                                                                                                        000000000000000000
F0010000007685900001000000870907300013050500000000000000000201509290002001SURTIDOR FERRETERO                                D000000046960000000000000000000000100010010000000000000000000000F0010000007685900120150929000101 00000000000000000000000000000000000000000000000000000000000000000000000000000000000000000000000000000000000000000N 00000000000NCONT   00    00000000000          00000000000000000000000000000000000000000000 000000000000000A000000000000000000000000000000000000000000000 000000000000000000000000000000000000000     00000000                                                                                                                        000000000000000000
F0010000007685900002000000870907300041450500000000000000000201509290002001SURTIDOR FERRETERO                                C000000036920000000000000000000000100010010000000000000000000000F0010000007685900220150929000101 00000000000000000000000000000000000000000000000000000000000000000000000000000000000000000000000000000000000000000N 00000000000NCONT   00    00000000000          00000000000000000000000000000000000000000000 000000000000000A000000000000000000000000000000000000000000000 000000000000000000000000000000000000000     00000000                                                                                                                        000000000000000000
F0010000007685900003000000870907300041750100000000000000000201509290002001SURTIDOR FERRETERO                                D000000003692000000000000000000000100010010000000000000000000000F0010000007685900320150929000101 00000000000000000000000000000000000000000000000000000000000000000000000000000000000000000000000000000000000000000N 00000000000NCONT   00    00000000000          00000000000000000000000000000000000000000000 000000000000000A000000000000000000000000000000000000000000000 000000000000000000000000000000000000000     00000000                                                                                                                        000000000000000000
F0010000007685900004000000870907300042505000000000000000000201509290002001SURTIDOR FERRETERO                                C000000013732000000000000000000000100010010000000000000000000000F0010000007685900420150929000101 00000000000000000000000000000000000000000000000000000000000000000000000000000000000000000000000000000000000000000N 00000000000NCONT   00    00000000000          00000000000000000000000000000000000000000000 000000000000000A000000000000000000000000000000000000000000000 000000000000000000000000000000000000000     00000000                                                                                                                        000000000000000000
F0010000007685900005000000870907300023658300000000000000000201509290002001SURTIDOR FERRETERO                                C000000000295400000000000000000000100010010000000000000000000000F0010000007685900520150929000101 00000000000000000000000000000000000000000000000000000000000000000000000000000000000000000000000000000000000000000N 00000000000NCONT   00    00000000000          00000000000000000000000000000000000000000000 000000000000000A000000000000000000000000000000000000000000000 000000000000000000000000000000000000000     00000000                                                                                                                        000000000000000000
F0010000007685900006000000870907300013552100000000000000000201509290002001SURTIDOR FERRETERO                                D000000000295400000000000000000000100010010000000000000000000000F0010000007685900620150929000101 00000000000000000000000000000000000000000000000000000000000000000000000000000000000000000000000000000000000000000N 00000000000NCONT   00    00000000000          00000000000000000000000000000000000000000000 000000000000000A000000000000000000000000000000000000000000000 000000000000000000000000000000000000000     00000000                                                                                                                        000000000000000000
F0010000007686000001000090015039900011050500000000000000000201509290002001METALMAX DE COLOMBIA S.A.S                        D000000007600000000000000000000000100010010000000000000000000000F0010000007686000120150929000101 00000000000000000000000000000000000000000000000000000000000000000000000000000000000000000000000000000000000000000N 00000000000NCONT   00    00000000000          00000000000000000000000000000000000000000000 000000000000000A000000000000000000000000000000000000000000000 000000000000000000000000000000000000000     00000000                                                                                                                        000000000000000000
F0010000007686000002000090015039900041450500000000000000000201509290002001METALMAX DE COLOMBIA S.A.S                        C000000007000000000000000000000000100010010000000000000000000000F0010000007686000220150929000101 00000000000000000000000000000000000000000000000000000000000000000000000000000000000000000000000000000000000000000N 00000000000NCONT   00    00000000000          00000000000000000000000000000000000000000000 000000000000000A000000000000000000000000000000000000000000000 000000000000000000000000000000000000000     00000000                                                                                                                        000000000000000000
F0010000007686000003000090015039900042505000000000000000000201509290002001METALMAX DE COLOMBIA S.A.S                        C000000000600000000000000000000000100010010000000000000000000000F0010000007686000320150929000101 00000000000000000000000000000000000000000000000000000000000000000000000000000000000000000000000000000000000000000N 00000000000NCONT   00    00000000000          00000000000000000000000000000000000000000000 000000000000000A000000000000000000000000000000000000000000000 000000000000000000000000000000000000000     00000000                                                                                                                        000000000000000000
F0010000007686000004000090015039900023658300000000000000000201509290002001METALMAX DE COLOMBIA S.A.S                        C000000000056000000000000000000000100010010000000000000000000000F0010000007686000420150929000101 00000000000000000000000000000000000000000000000000000000000000000000000000000000000000000000000000000000000000000N 00000000000NCONT   00    00000000000          00000000000000000000000000000000000000000000 000000000000000A000000000000000000000000000000000000000000000 000000000000000000000000000000000000000     00000000                                                                                                                        000000000000000000
F0010000007686000005000090015039900013552100000000000000000201509290002001METALMAX DE COLOMBIA S.A.S                        D000000000056000000000000000000000100010010000000000000000000000F0010000007686000520150929000101 00000000000000000000000000000000000000000000000000000000000000000000000000000000000000000000000000000000000000000N 00000000000NCONT   00    00000000000          00000000000000000000000000000000000000000000 000000000000000A000000000000000000000000000000000000000000000 000000000000000000000000000000000000000     00000000                                                                                                                        000000000000000000
F0010000007686100001000089010272700013050500000000000000000201509290002001ALFONSOEME S.A.                                   D000000027668000000000000000000000100010010000000000000000000000F0010000007686100120150929000101 00000000000000000000000000000000000000000000000000000000000000000000000000000000000000000000000000000000000000000N 00000000000NCONT   00    00000000000          00000000000000000000000000000000000000000000 000000000000000A000000000000000000000000000000000000000000000 000000000000000000000000000000000000000     00000000                                                                                                                        000000000000000000
F0010000007686100002000089010272700041450500000000000000000201509290002001ALFONSOEME S.A.                                   C000000027720000000000000000000000100010010000000000000000000000F0010000007686100220150929000101 00000000000000000000000000000000000000000000000000000000000000000000000000000000000000000000000000000000000000000N 00000000000NCONT   00    00000000000          00000000000000000000000000000000000000000000 000000000000000A000000000000000000000000000000000000000000000 000000000000000000000000000000000000000     00000000                                                                                                                        000000000000000000
F0010000007686100003000089010272700041750100000000000000000201509290002001ALFONSOEME S.A.                                   D000000002772000000000000000000000100010010000000000000000000000F0010000007686100320150929000101 00000000000000000000000000000000000000000000000000000000000000000000000000000000000000000000000000000000000000000N 00000000000NCONT   00    00000000000          00000000000000000000000000000000000000000000 000000000000000A000000000000000000000000000000000000000000000 000000000000000000000000000000000000000     00000000                                                                                                                        000000000000000000
F0010000007686100004000089010272700042505000000000000000000201509290002001ALFONSOEME S.A.                                   C000000002720000000000000000000000100010010000000000000000000000F0010000007686100420150929000101 00000000000000000000000000000000000000000000000000000000000000000000000000000000000000000000000000000000000000000N 00000000000NCONT   00    00000000000          00000000000000000000000000000000000000000000 000000000000000A000000000000000000000000000000000000000000000 000000000000000000000000000000000000000     00000000                                                                                                                        000000000000000000
F0010000007686100005000089010272700023658300000000000000000201509290002001ALFONSOEME S.A.                                   C000000000221800000000000000000000100010010000000000000000000000F0010000007686100520150929000101 00000000000000000000000000000000000000000000000000000000000000000000000000000000000000000000000000000000000000000N 00000000000NCONT   00    00000000000          00000000000000000000000000000000000000000000 000000000000000A000000000000000000000000000000000000000000000 000000000000000000000000000000000000000     00000000                                                                                                                        000000000000000000
F0010000007686100006000089010272700013552100000000000000000201509290002001ALFONSOEME S.A.                                   D000000000221800000000000000000000100010010000000000000000000000F0010000007686100620150929000101 00000000000000000000000000000000000000000000000000000000000000000000000000000000000000000000000000000000000000000N 00000000000NCONT   00    00000000000          00000000000000000000000000000000000000000000 000000000000000A000000000000000000000000000000000000000000000 000000000000000000000000000000000000000     00000000                                                                                                                        000000000000000000
F0010000007686200001000004249706000011050500000000000000000201509290002001ANA GOMEZ ALCALA                                  D000000001400000000000000000000000100010010000000000000000000000F0010000007686200120150929000101 00000000000000000000000000000000000000000000000000000000000000000000000000000000000000000000000000000000000000000N 00000000000NCONT   00    00000000000          00000000000000000000000000000000000000000000 000000000000000A000000000000000000000000000000000000000000000 000000000000000000000000000000000000000     00000000                                                                                                                        000000000000000000
F0010000007686200002000004249706000041450500000000000000000201509290002001ANA GOMEZ ALCALA                                  C000000001300000000000000000000000100010010000000000000000000000F0010000007686200220150929000101 00000000000000000000000000000000000000000000000000000000000000000000000000000000000000000000000000000000000000000N 00000000000NCONT   00    00000000000          00000000000000000000000000000000000000000000 000000000000000A000000000000000000000000000000000000000000000 000000000000000000000000000000000000000     00000000                                                                                                                        000000000000000000
F0010000007686200003000004249706000042505000000000000000000201509290002001ANA GOMEZ ALCALA                                  C000000000100000000000000000000000100010010000000000000000000000F0010000007686200320150929000101 00000000000000000000000000000000000000000000000000000000000000000000000000000000000000000000000000000000000000000N 00000000000NCONT   00    00000000000          00000000000000000000000000000000000000000000 000000000000000A000000000000000000000000000000000000000000000 000000000000000000000000000000000000000     00000000                                                                                                                        000000000000000000
F0010000007686200004000004249706000023658300000000000000000201509290002001ANA GOMEZ ALCALA                                  C000000000010400000000000000000000100010010000000000000000000000F0010000007686200420150929000101 00000000000000000000000000000000000000000000000000000000000000000000000000000000000000000000000000000000000000000N 00000000000NCONT   00    00000000000          00000000000000000000000000000000000000000000 000000000000000A000000000000000000000000000000000000000000000 000000000000000000000000000000000000000     00000000                                                                                                                        000000000000000000
F0010000007686200005000004249706000013552100000000000000000201509290002001ANA GOMEZ ALCALA                                  D000000000010400000000000000000000100010010000000000000000000000F0010000007686200520150929000101 00000000000000000000000000000000000000000000000000000000000000000000000000000000000000000000000000000000000000000N 00000000000NCONT   00    00000000000          00000000000000000000000000000000000000000000 000000000000000A000000000000000000000000000000000000000000000 000000000000000000000000000000000000000     00000000                                                                                                                        000000000000000000
F0010000007686300001000090015039900011050500000000000000000201509290002001METALMAX DE COLOMBIA S.A.S                        D000000005000000000000000000000000100010010000000000000000000000F0010000007686300120150929000101 00000000000000000000000000000000000000000000000000000000000000000000000000000000000000000000000000000000000000000N 00000000000NCONT   00    00000000000          00000000000000000000000000000000000000000000 000000000000000A000000000000000000000000000000000000000000000 000000000000000000000000000000000000000     00000000                                                                                                                        000000000000000000
F0010000007686300002000090015039900041450500000000000000000201509290002001METALMAX DE COLOMBIA S.A.S                        C000000004600000000000000000000000100010010000000000000000000000F0010000007686300220150929000101 00000000000000000000000000000000000000000000000000000000000000000000000000000000000000000000000000000000000000000N 00000000000NCONT   00    00000000000          00000000000000000000000000000000000000000000 000000000000000A000000000000000000000000000000000000000000000 000000000000000000000000000000000000000     00000000                                                                                                                        000000000000000000
F0010000007686300003000090015039900042505000000000000000000201509290002001METALMAX DE COLOMBIA S.A.S                        C000000000400000000000000000000000100010010000000000000000000000F0010000007686300320150929000101 00000000000000000000000000000000000000000000000000000000000000000000000000000000000000000000000000000000000000000N 00000000000NCONT   00    00000000000          00000000000000000000000000000000000000000000 000000000000000A000000000000000000000000000000000000000000000 000000000000000000000000000000000000000     00000000                                                                                                                        000000000000000000
F0010000007686300004000090015039900023658300000000000000000201509290002001METALMAX DE COLOMBIA S.A.S                        C000000000036800000000000000000000100010010000000000000000000000F0010000007686300420150929000101 00000000000000000000000000000000000000000000000000000000000000000000000000000000000000000000000000000000000000000N 00000000000NCONT   00    00000000000          00000000000000000000000000000000000000000000 000000000000000A000000000000000000000000000000000000000000000 000000000000000000000000000000000000000     00000000                                                                                                                        000000000000000000
F0010000007686300005000090015039900013552100000000000000000201509290002001METALMAX DE COLOMBIA S.A.S                        D000000000036800000000000000000000100010010000000000000000000000F0010000007686300520150929000101 00000000000000000000000000000000000000000000000000000000000000000000000000000000000000000000000000000000000000000N 00000000000NCONT   00    00000000000          00000000000000000000000000000000000000000000 000000000000000A000000000000000000000000000000000000000000000 000000000000000000000000000000000000000     00000000                                                                                                                        000000000000000000
F0010000007686400001000000869402400011050500000000000000000201509290002001ISRAEL MANGA                                      D000000004500000000000000000000000100010010000000000000000000000F0010000007686400120150929000101 00000000000000000000000000000000000000000000000000000000000000000000000000000000000000000000000000000000000000000N 00000000000NCONT   00    00000000000          00000000000000000000000000000000000000000000 000000000000000A000000000000000000000000000000000000000000000 000000000000000000000000000000000000000     00000000                                                                                                                        000000000000000000
F0010000007686400002000000869402400041450500000000000000000201509290002001ISRAEL MANGA                                      C000000003700000000000000000000000100010010000000000000000000000F0010000007686400220150929000101 00000000000000000000000000000000000000000000000000000000000000000000000000000000000000000000000000000000000000000N 00000000000NCONT   00    00000000000          00000000000000000000000000000000000000000000 000000000000000A000000000000000000000000000000000000000000000 000000000000000000000000000000000000000     00000000                                                                                                                        000000000000000000
F0010000007686400003000000869402400042505000000000000000000201509290002001ISRAEL MANGA                                      C000000000800000000000000000000000100010010000000000000000000000F0010000007686400320150929000101 00000000000000000000000000000000000000000000000000000000000000000000000000000000000000000000000000000000000000000N 00000000000NCONT   00    00000000000          00000000000000000000000000000000000000000000 000000000000000A000000000000000000000000000000000000000000000 000000000000000000000000000000000000000     00000000                                                                                                                        000000000000000000
F0010000007686400004000000869402400023658300000000000000000201509290002001ISRAEL MANGA                                      C000000000029600000000000000000000100010010000000000000000000000F0010000007686400420150929000101 00000000000000000000000000000000000000000000000000000000000000000000000000000000000000000000000000000000000000000N 00000000000NCONT   00    00000000000          00000000000000000000000000000000000000000000 000000000000000A000000000000000000000000000000000000000000000 000000000000000000000000000000000000000     00000000                                                                                                                        000000000000000000
F0010000007686400005000000869402400013552100000000000000000201509290002001ISRAEL MANGA                                      D000000000029600000000000000000000100010010000000000000000000000F0010000007686400520150929000101 00000000000000000000000000000000000000000000000000000000000000000000000000000000000000000000000000000000000000000N 00000000000NCONT   00    00000000000          00000000000000000000000000000000000000000000 000000000000000A000000000000000000000000000000000000000000000 000000000000000000000000000000000000000     00000000                                                                                                                        000000000000000000
F0010000007686500001000007225511500011050500000000000000000201509290002001MAIGEL CHADID                                     D000000017000000000000000000000000100010010000000000000000000000F0010000007686500120150929000101 00000000000000000000000000000000000000000000000000000000000000000000000000000000000000000000000000000000000000000N 00000000000NCONT   00    00000000000          00000000000000000000000000000000000000000000 000000000000000A000000000000000000000000000000000000000000000 000000000000000000000000000000000000000     00000000                                                                                                                        000000000000000000
F0010000007686500002000007225511500041450500000000000000000201509290002001MAIGEL CHADID                                     C000000015000000000000000000000000100010010000000000000000000000F0010000007686500220150929000101 00000000000000000000000000000000000000000000000000000000000000000000000000000000000000000000000000000000000000000N 00000000000NCONT   00    00000000000          00000000000000000000000000000000000000000000 000000000000000A000000000000000000000000000000000000000000000 000000000000000000000000000000000000000     00000000                                                                                                                        000000000000000000
F0010000007686500003000007225511500042505000000000000000000201509290002001MAIGEL CHADID                                     C000000002000000000000000000000000100010010000000000000000000000F0010000007686500320150929000101 00000000000000000000000000000000000000000000000000000000000000000000000000000000000000000000000000000000000000000N 00000000000NCONT   00    00000000000          00000000000000000000000000000000000000000000 000000000000000A000000000000000000000000000000000000000000000 000000000000000000000000000000000000000     00000000                                                                                                                        000000000000000000
F0010000007686500004000007225511500023658300000000000000000201509290002001MAIGEL CHADID                                     C000000000120000000000000000000000100010010000000000000000000000F0010000007686500420150929000101 00000000000000000000000000000000000000000000000000000000000000000000000000000000000000000000000000000000000000000N 00000000000NCONT   00    00000000000          00000000000000000000000000000000000000000000 000000000000000A000000000000000000000000000000000000000000000 000000000000000000000000000000000000000     00000000                                                                                                                        000000000000000000
F0010000007686500005000007225511500013552100000000000000000201509290002001MAIGEL CHADID                                     D000000000120000000000000000000000100010010000000000000000000000F0010000007686500520150929000101 00000000000000000000000000000000000000000000000000000000000000000000000000000000000000000000000000000000000000000N 00000000000NCONT   00    00000000000          00000000000000000000000000000000000000000000 000000000000000A000000000000000000000000000000000000000000000 000000000000000000000000000000000000000     00000000                                                                                                                        000000000000000000
F0010000007686600001000000742399700011050500000000000000000201509290002001CACHARRERIA EL NUEVO CHADID                       D000000000900000000000000000000000100010010000000000000000000000F0010000007686600120150929000101 00000000000000000000000000000000000000000000000000000000000000000000000000000000000000000000000000000000000000000N 00000000000NCONT   00    00000000000          00000000000000000000000000000000000000000000 000000000000000A000000000000000000000000000000000000000000000 000000000000000000000000000000000000000     00000000                                                                                                                        000000000000000000
F0010000007686600002000000742399700041450500000000000000000201509290002001CACHARRERIA EL NUEVO CHADID                       C000000000750000000000000000000000100010010000000000000000000000F0010000007686600220150929000101 00000000000000000000000000000000000000000000000000000000000000000000000000000000000000000000000000000000000000000N 00000000000NCONT   00    00000000000          00000000000000000000000000000000000000000000 000000000000000A000000000000000000000000000000000000000000000 000000000000000000000000000000000000000     00000000                                                                                                                        000000000000000000
F0010000007686600003000000742399700042505000000000000000000201509290002001CACHARRERIA EL NUEVO CHADID                       C000000000150000000000000000000000100010010000000000000000000000F0010000007686600320150929000101 00000000000000000000000000000000000000000000000000000000000000000000000000000000000000000000000000000000000000000N 00000000000NCONT   00    00000000000          00000000000000000000000000000000000000000000 000000000000000A000000000000000000000000000000000000000000000 000000000000000000000000000000000000000     00000000                                                                                                                        000000000000000000
F0010000007686600004000000742399700023658300000000000000000201509290002001CACHARRERIA EL NUEVO CHADID                       C000000000006000000000000000000000100010010000000000000000000000F0010000007686600420150929000101 00000000000000000000000000000000000000000000000000000000000000000000000000000000000000000000000000000000000000000N 00000000000NCONT   00    00000000000          00000000000000000000000000000000000000000000 000000000000000A000000000000000000000000000000000000000000000 000000000000000000000000000000000000000     00000000                                                                                                                        000000000000000000
F0010000007686600005000000742399700013552100000000000000000201509290002001CACHARRERIA EL NUEVO CHADID                       D000000000006000000000000000000000100010010000000000000000000000F0010000007686600520150929000101 00000000000000000000000000000000000000000000000000000000000000000000000000000000000000000000000000000000000000000N 00000000000NCONT   00    00000000000          00000000000000000000000000000000000000000000 000000000000000A000000000000000000000000000000000000000000000 000000000000000000000000000000000000000     00000000                                                                                                                        000000000000000000
F0010000007686700001000090034602400011050500000000000000000201509290002001PRODUCTOS NACIONALES PARAFINICOS LA CUSTODIA S.A.SD000000001000000000000000000000000100010010000000000000000000000F0010000007686700120150929000101 00000000000000000000000000000000000000000000000000000000000000000000000000000000000000000000000000000000000000000N 00000000000NCONT   00    00000000000          00000000000000000000000000000000000000000000 000000000000000A000000000000000000000000000000000000000000000 000000000000000000000000000000000000000     00000000                                                                                                                        000000000000000000
F0010000007686700002000090034602400041450500000000000000000201509290002001PRODUCTOS NACIONALES PARAFINICOS LA CUSTODIA S.A.SC000000000900000000000000000000000100010010000000000000000000000F0010000007686700220150929000101 00000000000000000000000000000000000000000000000000000000000000000000000000000000000000000000000000000000000000000N 00000000000NCONT   00    00000000000          00000000000000000000000000000000000000000000 000000000000000A000000000000000000000000000000000000000000000 000000000000000000000000000000000000000     00000000                                                                                                                        000000000000000000
F0010000007686700003000090034602400042505000000000000000000201509290002001PRODUCTOS NACIONALES PARAFINICOS LA CUSTODIA S.A.SC000000000100000000000000000000000100010010000000000000000000000F0010000007686700320150929000101 00000000000000000000000000000000000000000000000000000000000000000000000000000000000000000000000000000000000000000N 00000000000NCONT   00    00000000000          00000000000000000000000000000000000000000000 000000000000000A000000000000000000000000000000000000000000000 000000000000000000000000000000000000000     00000000                                                                                                                        000000000000000000
F0010000007686700004000090034602400023658300000000000000000201509290002001PRODUCTOS NACIONALES PARAFINICOS LA CUSTODIA S.A.SC000000000007200000000000000000000100010010000000000000000000000F0010000007686700420150929000101 00000000000000000000000000000000000000000000000000000000000000000000000000000000000000000000000000000000000000000N 00000000000NCONT   00    00000000000          00000000000000000000000000000000000000000000 000000000000000A000000000000000000000000000000000000000000000 000000000000000000000000000000000000000     00000000                                                                                                                        000000000000000000
F0010000007686700005000090034602400013552100000000000000000201509290002001PRODUCTOS NACIONALES PARAFINICOS LA CUSTODIA S.A.SD000000000007200000000000000000000100010010000000000000000000000F0010000007686700520150929000101 00000000000000000000000000000000000000000000000000000000000000000000000000000000000000000000000000000000000000000N 00000000000NCONT   00    00000000000          00000000000000000000000000000000000000000000 000000000000000A000000000000000000000000000000000000000000000 000000000000000000000000000000000000000     00000000                                                                                                                        000000000000000000
F0010000007686800001000090034602400011050500000000000000000201509290002001PRODUCTOS NACIONALES PARAFINICOS LA CUSTODIA S.A.SD000000003000000000000000000000000100010010000000000000000000000F0010000007686800120150929000101 00000000000000000000000000000000000000000000000000000000000000000000000000000000000000000000000000000000000000000N 00000000000NCONT   00    00000000000          00000000000000000000000000000000000000000000 000000000000000A000000000000000000000000000000000000000000000 000000000000000000000000000000000000000     00000000                                                                                                                        000000000000000000
F0010000007686800002000090034602400041450500000000000000000201509290002001PRODUCTOS NACIONALES PARAFINICOS LA CUSTODIA S.A.SC000000002700000000000000000000000100010010000000000000000000000F0010000007686800220150929000101 00000000000000000000000000000000000000000000000000000000000000000000000000000000000000000000000000000000000000000N 00000000000NCONT   00    00000000000          00000000000000000000000000000000000000000000 000000000000000A000000000000000000000000000000000000000000000 000000000000000000000000000000000000000     00000000                                                                                                                        000000000000000000
F0010000007686800003000090034602400042505000000000000000000201509290002001PRODUCTOS NACIONALES PARAFINICOS LA CUSTODIA S.A.SC000000000300000000000000000000000100010010000000000000000000000F0010000007686800320150929000101 00000000000000000000000000000000000000000000000000000000000000000000000000000000000000000000000000000000000000000N 00000000000NCONT   00    00000000000          00000000000000000000000000000000000000000000 000000000000000A000000000000000000000000000000000000000000000 000000000000000000000000000000000000000     00000000                                                                                                                        000000000000000000
F0010000007686800004000090034602400023658300000000000000000201509290002001PRODUCTOS NACIONALES PARAFINICOS LA CUSTODIA S.A.SC000000000021600000000000000000000100010010000000000000000000000F0010000007686800420150929000101 00000000000000000000000000000000000000000000000000000000000000000000000000000000000000000000000000000000000000000N 00000000000NCONT   00    00000000000          00000000000000000000000000000000000000000000 000000000000000A000000000000000000000000000000000000000000000 000000000000000000000000000000000000000     00000000                                                                                                                        000000000000000000
F0010000007686800005000090034602400013552100000000000000000201509290002001PRODUCTOS NACIONALES PARAFINICOS LA CUSTODIA S.A.SD000000000021600000000000000000000100010010000000000000000000000F0010000007686800520150929000101 00000000000000000000000000000000000000000000000000000000000000000000000000000000000000000000000000000000000000000N 00000000000NCONT   00    00000000000          00000000000000000000000000000000000000000000 000000000000000A000000000000000000000000000000000000000000000 000000000000000000000000000000000000000     00000000                                                                                                                        000000000000000000
F0010000007686900001000080202350700011050500000000000000000201509290002001CONNY DE LA COSTA SAS                             D000000002700000000000000000000000100010010000000000000000000000F0010000007686900120150929000101 00000000000000000000000000000000000000000000000000000000000000000000000000000000000000000000000000000000000000000N 00000000000NCONT   00    00000000000          00000000000000000000000000000000000000000000 000000000000000A000000000000000000000000000000000000000000000 000000000000000000000000000000000000000     00000000                                                                                                                        000000000000000000
F0010000007686900002000080202350700041450500000000000000000201509290002001CONNY DE LA COSTA SAS                             C000000002200000000000000000000000100010010000000000000000000000F0010000007686900220150929000101 00000000000000000000000000000000000000000000000000000000000000000000000000000000000000000000000000000000000000000N 00000000000NCONT   00    00000000000          00000000000000000000000000000000000000000000 000000000000000A000000000000000000000000000000000000000000000 000000000000000000000000000000000000000     00000000                                                                                                                        000000000000000000
F0010000007686900003000080202350700042505000000000000000000201509290002001CONNY DE LA COSTA SAS                             C000000000500000000000000000000000100010010000000000000000000000F0010000007686900320150929000101 00000000000000000000000000000000000000000000000000000000000000000000000000000000000000000000000000000000000000000N 00000000000NCONT   00    00000000000          00000000000000000000000000000000000000000000 000000000000000A000000000000000000000000000000000000000000000 000000000000000000000000000000000000000     00000000                                                                                                                        000000000000000000
F0010000007686900004000080202350700023658300000000000000000201509290002001CONNY DE LA COSTA SAS                             C000000000017600000000000000000000100010010000000000000000000000F0010000007686900420150929000101 00000000000000000000000000000000000000000000000000000000000000000000000000000000000000000000000000000000000000000N 00000000000NCONT   00    00000000000          00000000000000000000000000000000000000000000 000000000000000A000000000000000000000000000000000000000000000 000000000000000000000000000000000000000     00000000                                                                                                                        000000000000000000
F0010000007686900005000080202350700013552100000000000000000201509290002001CONNY DE LA COSTA SAS                             D000000000017600000000000000000000100010010000000000000000000000F0010000007686900520150929000101 00000000000000000000000000000000000000000000000000000000000000000000000000000000000000000000000000000000000000000N 00000000000NCONT   00    00000000000          00000000000000000000000000000000000000000000 000000000000000A000000000000000000000000000000000000000000000 000000000000000000000000000000000000000     00000000                                                                                                                        000000000000000000
F0010000007687000001000080202350700011050500000000000000000201509290002001CONNY DE LA COSTA SAS                             D000000002900000000000000000000000100010010000000000000000000000F0010000007687000120150929000101 00000000000000000000000000000000000000000000000000000000000000000000000000000000000000000000000000000000000000000N 00000000000NCONT   00    00000000000          00000000000000000000000000000000000000000000 000000000000000A000000000000000000000000000000000000000000000 000000000000000000000000000000000000000     00000000                                                                                                                        000000000000000000
F0010000007687000002000080202350700041450500000000000000000201509290002001CONNY DE LA COSTA SAS                             C000000002400000000000000000000000100010010000000000000000000000F0010000007687000220150929000101 00000000000000000000000000000000000000000000000000000000000000000000000000000000000000000000000000000000000000000N 00000000000NCONT   00    00000000000          00000000000000000000000000000000000000000000 000000000000000A000000000000000000000000000000000000000000000 000000000000000000000000000000000000000     00000000                                                                                                                        000000000000000000
F0010000007687000003000080202350700042505000000000000000000201509290002001CONNY DE LA COSTA SAS                             C000000000500000000000000000000000100010010000000000000000000000F0010000007687000320150929000101 00000000000000000000000000000000000000000000000000000000000000000000000000000000000000000000000000000000000000000N 00000000000NCONT   00    00000000000          00000000000000000000000000000000000000000000 000000000000000A000000000000000000000000000000000000000000000 000000000000000000000000000000000000000     00000000                                                                                                                        000000000000000000
F0010000007687000004000080202350700023658300000000000000000201509290002001CONNY DE LA COSTA SAS                             C000000000019200000000000000000000100010010000000000000000000000F0010000007687000420150929000101 00000000000000000000000000000000000000000000000000000000000000000000000000000000000000000000000000000000000000000N 00000000000NCONT   00    00000000000          00000000000000000000000000000000000000000000 000000000000000A000000000000000000000000000000000000000000000 000000000000000000000000000000000000000     00000000                                                                                                                        000000000000000000
F0010000007687000005000080202350700013552100000000000000000201509290002001CONNY DE LA COSTA SAS                             D000000000019200000000000000000000100010010000000000000000000000F0010000007687000520150929000101 00000000000000000000000000000000000000000000000000000000000000000000000000000000000000000000000000000000000000000N 00000000000NCONT   00    00000000000          00000000000000000000000000000000000000000000 000000000000000A000000000000000000000000000000000000000000000 000000000000000000000000000000000000000     00000000                                                                                                                        000000000000000000
F0010000007687100001000080012418800011050500000000000000000201509290002001DISTRITEC S.A.S                                   D000000002800000000000000000000000100010010000000000000000000000F0010000007687100120150929000101 00000000000000000000000000000000000000000000000000000000000000000000000000000000000000000000000000000000000000000N 00000000000NCONT   00    00000000000          00000000000000000000000000000000000000000000 000000000000000A000000000000000000000000000000000000000000000 000000000000000000000000000000000000000     00000000                                                                                                                        000000000000000000
F0010000007687100002000080012418800041450500000000000000000201509290002001DISTRITEC S.A.S                                   C000000002550000000000000000000000100010010000000000000000000000F0010000007687100220150929000101 00000000000000000000000000000000000000000000000000000000000000000000000000000000000000000000000000000000000000000N 00000000000NCONT   00    00000000000          00000000000000000000000000000000000000000000 000000000000000A000000000000000000000000000000000000000000000 000000000000000000000000000000000000000     00000000                                                                                                                        000000000000000000
F0010000007687100003000080012418800042505000000000000000000201509290002001DISTRITEC S.A.S                                   C000000000250000000000000000000000100010010000000000000000000000F0010000007687100320150929000101 00000000000000000000000000000000000000000000000000000000000000000000000000000000000000000000000000000000000000000N 00000000000NCONT   00    00000000000          00000000000000000000000000000000000000000000 000000000000000A000000000000000000000000000000000000000000000 000000000000000000000000000000000000000     00000000                                                                                                                        000000000000000000
F0010000007687100004000080012418800023658300000000000000000201509290002001DISTRITEC S.A.S                                   C000000000020400000000000000000000100010010000000000000000000000F0010000007687100420150929000101 00000000000000000000000000000000000000000000000000000000000000000000000000000000000000000000000000000000000000000N 00000000000NCONT   00    00000000000          00000000000000000000000000000000000000000000 000000000000000A000000000000000000000000000000000000000000000 000000000000000000000000000000000000000     00000000                                                                                                                        000000000000000000
F0010000007687100005000080012418800013552100000000000000000201509290002001DISTRITEC S.A.S                                   D000000000020400000000000000000000100010010000000000000000000000F0010000007687100520150929000101 00000000000000000000000000000000000000000000000000000000000000000000000000000000000000000000000000000000000000000N 00000000000NCONT   00    00000000000          00000000000000000000000000000000000000000000 000000000000000A000000000000000000000000000000000000000000000 000000000000000000000000000000000000000     00000000                                                                                                                        000000000000000000
F0010000007687200001000089011069100011050500000000000000000201509290002001LA CASA DE LAS ALFOMBRAS LTDA                     D000000004968000000000000000000000100010010000000000000000000000F0010000007687200120150929000101 00000000000000000000000000000000000000000000000000000000000000000000000000000000000000000000000000000000000000000N 00000000000NCONT   00    00000000000          00000000000000000000000000000000000000000000 000000000000000A000000000000000000000000000000000000000000000 000000000000000000000000000000000000000     00000000                                                                                                                        000000000000000000
F0010000007687200002000089011069100041450500000000000000000201509290002001LA CASA DE LAS ALFOMBRAS LTDA                     C000000001398000000000000000000000100010010000000000000000000000F0010000007687200220150929000101 00000000000000000000000000000000000000000000000000000000000000000000000000000000000000000000000000000000000000000N 00000000000NCONT   00    00000000000          00000000000000000000000000000000000000000000 000000000000000A000000000000000000000000000000000000000000000 000000000000000000000000000000000000000     00000000                                                                                                                        000000000000000000
F0010000007687200003000089011069100042505000000000000000000201509290002001LA CASA DE LAS ALFOMBRAS LTDA                     C000000003570000000000000000000000100010010000000000000000000000F0010000007687200320150929000101 00000000000000000000000000000000000000000000000000000000000000000000000000000000000000000000000000000000000000000N 00000000000NCONT   00    00000000000          00000000000000000000000000000000000000000000 000000000000000A000000000000000000000000000000000000000000000 000000000000000000000000000000000000000     00000000                                                                                                                        000000000000000000
F0010000007687200004000089011069100023658300000000000000000201509290002001LA CASA DE LAS ALFOMBRAS LTDA                     C000000000011200000000000000000000100010010000000000000000000000F0010000007687200420150929000101 00000000000000000000000000000000000000000000000000000000000000000000000000000000000000000000000000000000000000000N 00000000000NCONT   00    00000000000          00000000000000000000000000000000000000000000 000000000000000A000000000000000000000000000000000000000000000 000000000000000000000000000000000000000     00000000                                                                                                                        000000000000000000
F0010000007687200005000089011069100013552100000000000000000201509290002001LA CASA DE LAS ALFOMBRAS LTDA                     D000000000011200000000000000000000100010010000000000000000000000F0010000007687200520150929000101 00000000000000000000000000000000000000000000000000000000000000000000000000000000000000000000000000000000000000000N 00000000000NCONT   00    00000000000          00000000000000000000000000000000000000000000 000000000000000A000000000000000000000000000000000000000000000 000000000000000000000000000000000000000     00000000                                                                                                                        000000000000000000
F0010000007687300001000007200023300011050500000000000000000201509290002001WILLIAM ORTEGA                                    D000000003200000000000000000000000100010010000000000000000000000F0010000007687300120150929000101 00000000000000000000000000000000000000000000000000000000000000000000000000000000000000000000000000000000000000000N 00000000000NCONT   00    00000000000          00000000000000000000000000000000000000000000 000000000000000A000000000000000000000000000000000000000000000 000000000000000000000000000000000000000     00000000                                                                                                                        000000000000000000
F0010000007687300002000007200023300041450500000000000000000201509290002001WILLIAM ORTEGA                                    C000000003000000000000000000000000100010010000000000000000000000F0010000007687300220150929000101 00000000000000000000000000000000000000000000000000000000000000000000000000000000000000000000000000000000000000000N 00000000000NCONT   00    00000000000          00000000000000000000000000000000000000000000 000000000000000A000000000000000000000000000000000000000000000 000000000000000000000000000000000000000     00000000                                                                                                                        000000000000000000
F0010000007687300003000007200023300042505000000000000000000201509290002001WILLIAM ORTEGA                                    C000000000200000000000000000000000100010010000000000000000000000F0010000007687300320150929000101 00000000000000000000000000000000000000000000000000000000000000000000000000000000000000000000000000000000000000000N 00000000000NCONT   00    00000000000          00000000000000000000000000000000000000000000 000000000000000A000000000000000000000000000000000000000000000 000000000000000000000000000000000000000     00000000                                                                                                                        000000000000000000
F0010000007687300004000007200023300023658300000000000000000201509290002001WILLIAM ORTEGA                                    C000000000024000000000000000000000100010010000000000000000000000F0010000007687300420150929000101 00000000000000000000000000000000000000000000000000000000000000000000000000000000000000000000000000000000000000000N 00000000000NCONT   00    00000000000          00000000000000000000000000000000000000000000 000000000000000A000000000000000000000000000000000000000000000 000000000000000000000000000000000000000     00000000                                                                                                                        000000000000000000
F0010000007687300005000007200023300013552100000000000000000201509290002001WILLIAM ORTEGA                                    D000000000024000000000000000000000100010010000000000000000000000F0010000007687300520150929000101 00000000000000000000000000000000000000000000000000000000000000000000000000000000000000000000000000000000000000000N 00000000000NCONT   00    00000000000          00000000000000000000000000000000000000000000 000000000000000A000000000000000000000000000000000000000000000 000000000000000000000000000000000000000     00000000                                                                                                                        000000000000000000
F0010000007687400001000107252647100011050500000000000000000201509290002001JHON BYRON DUQUE DONADO (BODEGA JHONIFER)         D000000001200000000000000000000000100010010000000000000000000000F0010000007687400120150929000101 00000000000000000000000000000000000000000000000000000000000000000000000000000000000000000000000000000000000000000N 00000000000NCONT   00    00000000000          00000000000000000000000000000000000000000000 000000000000000A000000000000000000000000000000000000000000000 000000000000000000000000000000000000000     00000000                                                                                                                        000000000000000000
F0010000007687400002000107252647100041450500000000000000000201509290002001JHON BYRON DUQUE DONADO (BODEGA JHONIFER)         C000000000900000000000000000000000100010010000000000000000000000F0010000007687400220150929000101 00000000000000000000000000000000000000000000000000000000000000000000000000000000000000000000000000000000000000000N 00000000000NCONT   00    00000000000          00000000000000000000000000000000000000000000 000000000000000A000000000000000000000000000000000000000000000 000000000000000000000000000000000000000     00000000                                                                                                                        000000000000000000
F0010000007687400003000107252647100042505000000000000000000201509290002001JHON BYRON DUQUE DONADO (BODEGA JHONIFER)         C000000000300000000000000000000000100010010000000000000000000000F0010000007687400320150929000101 00000000000000000000000000000000000000000000000000000000000000000000000000000000000000000000000000000000000000000N 00000000000NCONT   00    00000000000          00000000000000000000000000000000000000000000 000000000000000A000000000000000000000000000000000000000000000 000000000000000000000000000000000000000     00000000                                                                                                                        000000000000000000
F0010000007687400004000107252647100023658300000000000000000201509290002001JHON BYRON DUQUE DONADO (BODEGA JHONIFER)         C000000000007200000000000000000000100010010000000000000000000000F0010000007687400420150929000101 00000000000000000000000000000000000000000000000000000000000000000000000000000000000000000000000000000000000000000N 00000000000NCONT   00    00000000000          00000000000000000000000000000000000000000000 000000000000000A000000000000000000000000000000000000000000000 000000000000000000000000000000000000000     00000000                                                                                                                        000000000000000000
F0010000007687400005000107252647100013552100000000000000000201509290002001JHON BYRON DUQUE DONADO (BODEGA JHONIFER)         D000000000007200000000000000000000100010010000000000000000000000F0010000007687400520150929000101 00000000000000000000000000000000000000000000000000000000000000000000000000000000000000000000000000000000000000000N 00000000000NCONT   00    00000000000          00000000000000000000000000000000000000000000 000000000000000A000000000000000000000000000000000000000000000 000000000000000000000000000000000000000     00000000                                                                                                                        000000000000000000
