F0010000009790800001000000873784400011050500000000000000000201702120002001JOSE HILARIO GONZALEZ QUINTERO                    D000000004950000000000000000000000100010010000000000000000000000F0010000009790800120170212000101 00000000000000000000000000000000000000000000000000000000000000000000000000000000000000000000000000000000000000000N 00000000000NCONT   00    00000000000          00000000000000000000000000000000000000000000 000000000000000A000000000000000000000000000000000000000000000 000000000000000000000000000000000000000     00000000                                                                                                                        000000000000000000
F0010000009790800002000000873784400041450500000000000000000201702120002001JOSE HILARIO GONZALEZ QUINTERO                    C000000004800000000000000000000000100010010000000000000000000000F0010000009790800220170212000101 00000000000000000000000000000000000000000000000000000000000000000000000000000000000000000000000000000000000000000N 00000000000NCONT   00    00000000000          00000000000000000000000000000000000000000000 000000000000000A000000000000000000000000000000000000000000000 000000000000000000000000000000000000000     00000000                                                                                                                        000000000000000000
F0010000009790800003000000873784400042505000000000000000000201702120002001JOSE HILARIO GONZALEZ QUINTERO                    C000000000150000000000000000000000100010010000000000000000000000F0010000009790800320170212000101 00000000000000000000000000000000000000000000000000000000000000000000000000000000000000000000000000000000000000000N 00000000000NCONT   00    00000000000          00000000000000000000000000000000000000000000 000000000000000A000000000000000000000000000000000000000000000 000000000000000000000000000000000000000     00000000                                                                                                                        000000000000000000
F0010000009790800004000000873784400023658300000000000000000201702120002001JOSE HILARIO GONZALEZ QUINTERO                    C000000000038400000000000000000000100010010000000000000000000000F0010000009790800420170212000101 00000000000000000000000000000000000000000000000000000000000000000000000000000000000000000000000000000000000000000N 00000000000NCONT   00    00000000000          00000000000000000000000000000000000000000000 000000000000000A000000000000000000000000000000000000000000000 000000000000000000000000000000000000000     00000000                                                                                                                        000000000000000000
F0010000009790800005000000873784400013552100000000000000000201702120002001JOSE HILARIO GONZALEZ QUINTERO                    D000000000038400000000000000000000100010010000000000000000000000F0010000009790800520170212000101 00000000000000000000000000000000000000000000000000000000000000000000000000000000000000000000000000000000000000000N 00000000000NCONT   00    00000000000          00000000000000000000000000000000000000000000 000000000000000A000000000000000000000000000000000000000000000 000000000000000000000000000000000000000     00000000                                                                                                                        000000000000000000
F0010000009790900001000000870907300011050500000000000000000201702120002001SURTIDOR FERRETERO                                D000000002245000000000000000000000100010010000000000000000000000F0010000009790900120170212000101 00000000000000000000000000000000000000000000000000000000000000000000000000000000000000000000000000000000000000000N 00000000000NCONT   00    00000000000          00000000000000000000000000000000000000000000 000000000000000A000000000000000000000000000000000000000000000 000000000000000000000000000000000000000     00000000                                                                                                                        000000000000000000
F0010000009790900002000000870907300041450500000000000000000201702120002001SURTIDOR FERRETERO                                C000000001840000000000000000000000100010010000000000000000000000F0010000009790900220170212000101 00000000000000000000000000000000000000000000000000000000000000000000000000000000000000000000000000000000000000000N 00000000000NCONT   00    00000000000          00000000000000000000000000000000000000000000 000000000000000A000000000000000000000000000000000000000000000 000000000000000000000000000000000000000     00000000                                                                                                                        000000000000000000
F0010000009790900003000000870907300042505000000000000000000201702120002001SURTIDOR FERRETERO                                C000000000405000000000000000000000100010010000000000000000000000F0010000009790900320170212000101 00000000000000000000000000000000000000000000000000000000000000000000000000000000000000000000000000000000000000000N 00000000000NCONT   00    00000000000          00000000000000000000000000000000000000000000 000000000000000A000000000000000000000000000000000000000000000 000000000000000000000000000000000000000     00000000                                                                                                                        000000000000000000
F0010000009790900004000000870907300023658300000000000000000201702120002001SURTIDOR FERRETERO                                C000000000014700000000000000000000100010010000000000000000000000F0010000009790900420170212000101 00000000000000000000000000000000000000000000000000000000000000000000000000000000000000000000000000000000000000000N 00000000000NCONT   00    00000000000          00000000000000000000000000000000000000000000 000000000000000A000000000000000000000000000000000000000000000 000000000000000000000000000000000000000     00000000                                                                                                                        000000000000000000
F0010000009790900005000000870907300013552100000000000000000201702120002001SURTIDOR FERRETERO                                D000000000014700000000000000000000100010010000000000000000000000F0010000009790900520170212000101 00000000000000000000000000000000000000000000000000000000000000000000000000000000000000000000000000000000000000000N 00000000000NCONT   00    00000000000          00000000000000000000000000000000000000000000 000000000000000A000000000000000000000000000000000000000000000 000000000000000000000000000000000000000     00000000                                                                                                                        000000000000000000
F0010000009791000001000000870907300011050500000000000000000201702120002001SURTIDOR FERRETERO                                D000000002703000000000000000000000100010010000000000000000000000F0010000009791000120170212000101 00000000000000000000000000000000000000000000000000000000000000000000000000000000000000000000000000000000000000000N 00000000000NCONT   00    00000000000          00000000000000000000000000000000000000000000 000000000000000A000000000000000000000000000000000000000000000 000000000000000000000000000000000000000     00000000                                                                                                                        000000000000000000
F0010000009791000002000000870907300041450500000000000000000201702120002001SURTIDOR FERRETERO                                C000000001840000000000000000000000100010010000000000000000000000F0010000009791000220170212000101 00000000000000000000000000000000000000000000000000000000000000000000000000000000000000000000000000000000000000000N 00000000000NCONT   00    00000000000          00000000000000000000000000000000000000000000 000000000000000A000000000000000000000000000000000000000000000 000000000000000000000000000000000000000     00000000                                                                                                                        000000000000000000
F0010000009791000003000000870907300042505000000000000000000201702120002001SURTIDOR FERRETERO                                C000000000863000000000000000000000100010010000000000000000000000F0010000009791000320170212000101 00000000000000000000000000000000000000000000000000000000000000000000000000000000000000000000000000000000000000000N 00000000000NCONT   00    00000000000          00000000000000000000000000000000000000000000 000000000000000A000000000000000000000000000000000000000000000 000000000000000000000000000000000000000     00000000                                                                                                                        000000000000000000
F0010000009791000004000000870907300023658300000000000000000201702120002001SURTIDOR FERRETERO                                C000000000014700000000000000000000100010010000000000000000000000F0010000009791000420170212000101 00000000000000000000000000000000000000000000000000000000000000000000000000000000000000000000000000000000000000000N 00000000000NCONT   00    00000000000          00000000000000000000000000000000000000000000 000000000000000A000000000000000000000000000000000000000000000 000000000000000000000000000000000000000     00000000                                                                                                                        000000000000000000
F0010000009791000005000000870907300013552100000000000000000201702120002001SURTIDOR FERRETERO                                D000000000014700000000000000000000100010010000000000000000000000F0010000009791000520170212000101 00000000000000000000000000000000000000000000000000000000000000000000000000000000000000000000000000000000000000000N 00000000000NCONT   00    00000000000          00000000000000000000000000000000000000000000 000000000000000A000000000000000000000000000000000000000000000 000000000000000000000000000000000000000     00000000                                                                                                                        000000000000000000
F0010000009791100001000007222986100011050500000000000000000201702120002001JUAN CARLOS HERRERA DURAN                         D000000015000000000000000000000000100010010000000000000000000000F0010000009791100120170212000101 00000000000000000000000000000000000000000000000000000000000000000000000000000000000000000000000000000000000000000N 00000000000NCONT   00    00000000000          00000000000000000000000000000000000000000000 000000000000000A000000000000000000000000000000000000000000000 000000000000000000000000000000000000000     00000000                                                                                                                        000000000000000000
F0010000009791100002000007222986100041450500000000000000000201702120002001JUAN CARLOS HERRERA DURAN                         C000000014700000000000000000000000100010010000000000000000000000F0010000009791100220170212000101 00000000000000000000000000000000000000000000000000000000000000000000000000000000000000000000000000000000000000000N 00000000000NCONT   00    00000000000          00000000000000000000000000000000000000000000 000000000000000A000000000000000000000000000000000000000000000 000000000000000000000000000000000000000     00000000                                                                                                                        000000000000000000
F0010000009791100003000007222986100042505000000000000000000201702120002001JUAN CARLOS HERRERA DURAN                         C000000000300000000000000000000000100010010000000000000000000000F0010000009791100320170212000101 00000000000000000000000000000000000000000000000000000000000000000000000000000000000000000000000000000000000000000N 00000000000NCONT   00    00000000000          00000000000000000000000000000000000000000000 000000000000000A000000000000000000000000000000000000000000000 000000000000000000000000000000000000000     00000000                                                                                                                        000000000000000000
F0010000009791100004000007222986100023658300000000000000000201702120002001JUAN CARLOS HERRERA DURAN                         C000000000117600000000000000000000100010010000000000000000000000F0010000009791100420170212000101 00000000000000000000000000000000000000000000000000000000000000000000000000000000000000000000000000000000000000000N 00000000000NCONT   00    00000000000          00000000000000000000000000000000000000000000 000000000000000A000000000000000000000000000000000000000000000 000000000000000000000000000000000000000     00000000                                                                                                                        000000000000000000
F0010000009791100005000007222986100013552100000000000000000201702120002001JUAN CARLOS HERRERA DURAN                         D000000000117600000000000000000000100010010000000000000000000000F0010000009791100520170212000101 00000000000000000000000000000000000000000000000000000000000000000000000000000000000000000000000000000000000000000N 00000000000NCONT   00    00000000000          00000000000000000000000000000000000000000000 000000000000000A000000000000000000000000000000000000000000000 000000000000000000000000000000000000000     00000000                                                                                                                        000000000000000000
F0010000009791200001000007221137900011050500000000000000000201702120002001CARLOS POLO                                       D000000001500000000000000000000000100010010000000000000000000000F0010000009791200120170212000101 00000000000000000000000000000000000000000000000000000000000000000000000000000000000000000000000000000000000000000N 00000000000NCONT   00    00000000000          00000000000000000000000000000000000000000000 000000000000000A000000000000000000000000000000000000000000000 000000000000000000000000000000000000000     00000000                                                                                                                        000000000000000000
F0010000009791200002000007221137900041450500000000000000000201702120002001CARLOS POLO                                       C000000001300000000000000000000000100010010000000000000000000000F0010000009791200220170212000101 00000000000000000000000000000000000000000000000000000000000000000000000000000000000000000000000000000000000000000N 00000000000NCONT   00    00000000000          00000000000000000000000000000000000000000000 000000000000000A000000000000000000000000000000000000000000000 000000000000000000000000000000000000000     00000000                                                                                                                        000000000000000000
F0010000009791200003000007221137900042505000000000000000000201702120002001CARLOS POLO                                       C000000000200000000000000000000000100010010000000000000000000000F0010000009791200320170212000101 00000000000000000000000000000000000000000000000000000000000000000000000000000000000000000000000000000000000000000N 00000000000NCONT   00    00000000000          00000000000000000000000000000000000000000000 000000000000000A000000000000000000000000000000000000000000000 000000000000000000000000000000000000000     00000000                                                                                                                        000000000000000000
F0010000009791200004000007221137900023658300000000000000000201702120002001CARLOS POLO                                       C000000000010400000000000000000000100010010000000000000000000000F0010000009791200420170212000101 00000000000000000000000000000000000000000000000000000000000000000000000000000000000000000000000000000000000000000N 00000000000NCONT   00    00000000000          00000000000000000000000000000000000000000000 000000000000000A000000000000000000000000000000000000000000000 000000000000000000000000000000000000000     00000000                                                                                                                        000000000000000000
F0010000009791200005000007221137900013552100000000000000000201702120002001CARLOS POLO                                       D000000000010400000000000000000000100010010000000000000000000000F0010000009791200520170212000101 00000000000000000000000000000000000000000000000000000000000000000000000000000000000000000000000000000000000000000N 00000000000NCONT   00    00000000000          00000000000000000000000000000000000000000000 000000000000000A000000000000000000000000000000000000000000000 000000000000000000000000000000000000000     00000000                                                                                                                        000000000000000000
