F001000000100274000011046701490200011050500000000000000000201704060002001ANGEL PEDROZO DIAZ                                D000000001500000000000000000000000100010010000000000000000000000F00100000010027400120170406000101 00000000000000000000000000000000000000000000000000000000000000000000000000000000000000000000000000000000000000000N 00000000000NCONT   00    00000000000          00000000000000000000000000000000000000000000 000000000000000A000000000000000000000000000000000000000000000 000000000000000000000000000000000000000     00000000                                                                                                                        000000000000000000
F001000000100274000021046701490200041450500000000000000000201704060002001ANGEL PEDROZO DIAZ                                C000000001300000000000000000000000100010010000000000000000000000F00100000010027400220170406000101 00000000000000000000000000000000000000000000000000000000000000000000000000000000000000000000000000000000000000000N 00000000000NCONT   00    00000000000          00000000000000000000000000000000000000000000 000000000000000A000000000000000000000000000000000000000000000 000000000000000000000000000000000000000     00000000                                                                                                                        000000000000000000
F001000000100274000031046701490200042505000000000000000000201704060002001ANGEL PEDROZO DIAZ                                C000000000200000000000000000000000100010010000000000000000000000F00100000010027400320170406000101 00000000000000000000000000000000000000000000000000000000000000000000000000000000000000000000000000000000000000000N 00000000000NCONT   00    00000000000          00000000000000000000000000000000000000000000 000000000000000A000000000000000000000000000000000000000000000 000000000000000000000000000000000000000     00000000                                                                                                                        000000000000000000
F001000000100274000041046701490200023658300000000000000000201704060002001ANGEL PEDROZO DIAZ                                C000000000010400000000000000000000100010010000000000000000000000F00100000010027400420170406000101 00000000000000000000000000000000000000000000000000000000000000000000000000000000000000000000000000000000000000000N 00000000000NCONT   00    00000000000          00000000000000000000000000000000000000000000 000000000000000A000000000000000000000000000000000000000000000 000000000000000000000000000000000000000     00000000                                                                                                                        000000000000000000
F001000000100274000051046701490200013552100000000000000000201704060002001ANGEL PEDROZO DIAZ                                D000000000010400000000000000000000100010010000000000000000000000F00100000010027400520170406000101 00000000000000000000000000000000000000000000000000000000000000000000000000000000000000000000000000000000000000000N 00000000000NCONT   00    00000000000          00000000000000000000000000000000000000000000 000000000000000A000000000000000000000000000000000000000000000 000000000000000000000000000000000000000     00000000                                                                                                                        000000000000000000
F001000000100275000010009125500500011050500000000000000000201704060002001OSMEL DE JESUS BUSTAMANTE HOYOS- LUBRICANTES EL TED000000006000000000000000000000000100010010000000000000000000000F00100000010027500120170406000101 00000000000000000000000000000000000000000000000000000000000000000000000000000000000000000000000000000000000000000N 00000000000NCONT   00    00000000000          00000000000000000000000000000000000000000000 000000000000000A000000000000000000000000000000000000000000000 000000000000000000000000000000000000000     00000000                                                                                                                        000000000000000000
F001000000100275000020009125500500041450500000000000000000201704060002001OSMEL DE JESUS BUSTAMANTE HOYOS- LUBRICANTES EL TEC000000005600000000000000000000000100010010000000000000000000000F00100000010027500220170406000101 00000000000000000000000000000000000000000000000000000000000000000000000000000000000000000000000000000000000000000N 00000000000NCONT   00    00000000000          00000000000000000000000000000000000000000000 000000000000000A000000000000000000000000000000000000000000000 000000000000000000000000000000000000000     00000000                                                                                                                        000000000000000000
F001000000100275000030009125500500042505000000000000000000201704060002001OSMEL DE JESUS BUSTAMANTE HOYOS- LUBRICANTES EL TEC000000000400000000000000000000000100010010000000000000000000000F00100000010027500320170406000101 00000000000000000000000000000000000000000000000000000000000000000000000000000000000000000000000000000000000000000N 00000000000NCONT   00    00000000000          00000000000000000000000000000000000000000000 000000000000000A000000000000000000000000000000000000000000000 000000000000000000000000000000000000000     00000000                                                                                                                        000000000000000000
F001000000100275000040009125500500023658300000000000000000201704060002001OSMEL DE JESUS BUSTAMANTE HOYOS- LUBRICANTES EL TEC000000000044800000000000000000000100010010000000000000000000000F00100000010027500420170406000101 00000000000000000000000000000000000000000000000000000000000000000000000000000000000000000000000000000000000000000N 00000000000NCONT   00    00000000000          00000000000000000000000000000000000000000000 000000000000000A000000000000000000000000000000000000000000000 000000000000000000000000000000000000000     00000000                                                                                                                        000000000000000000
F001000000100275000050009125500500013552100000000000000000201704060002001OSMEL DE JESUS BUSTAMANTE HOYOS- LUBRICANTES EL TED000000000044800000000000000000000100010010000000000000000000000F00100000010027500520170406000101 00000000000000000000000000000000000000000000000000000000000000000000000000000000000000000000000000000000000000000N 00000000000NCONT   00    00000000000          00000000000000000000000000000000000000000000 000000000000000A000000000000000000000000000000000000000000000 000000000000000000000000000000000000000     00000000                                                                                                                        000000000000000000
F001000000100276000010080201411900011050500000000000000000201704060002001PLASTISERVICIOS S DE H                            D000000001400000000000000000000000100010010000000000000000000000F00100000010027600120170406000101 00000000000000000000000000000000000000000000000000000000000000000000000000000000000000000000000000000000000000000N 00000000000NCONT   00    00000000000          00000000000000000000000000000000000000000000 000000000000000A000000000000000000000000000000000000000000000 000000000000000000000000000000000000000     00000000                                                                                                                        000000000000000000
F001000000100276000020080201411900041450500000000000000000201704060002001PLASTISERVICIOS S DE H                            C000000001100000000000000000000000100010010000000000000000000000F00100000010027600220170406000101 00000000000000000000000000000000000000000000000000000000000000000000000000000000000000000000000000000000000000000N 00000000000NCONT   00    00000000000          00000000000000000000000000000000000000000000 000000000000000A000000000000000000000000000000000000000000000 000000000000000000000000000000000000000     00000000                                                                                                                        000000000000000000
F001000000100276000030080201411900042505000000000000000000201704060002001PLASTISERVICIOS S DE H                            C000000000300000000000000000000000100010010000000000000000000000F00100000010027600320170406000101 00000000000000000000000000000000000000000000000000000000000000000000000000000000000000000000000000000000000000000N 00000000000NCONT   00    00000000000          00000000000000000000000000000000000000000000 000000000000000A000000000000000000000000000000000000000000000 000000000000000000000000000000000000000     00000000                                                                                                                        000000000000000000
F001000000100276000040080201411900023658300000000000000000201704060002001PLASTISERVICIOS S DE H                            C000000000008800000000000000000000100010010000000000000000000000F00100000010027600420170406000101 00000000000000000000000000000000000000000000000000000000000000000000000000000000000000000000000000000000000000000N 00000000000NCONT   00    00000000000          00000000000000000000000000000000000000000000 000000000000000A000000000000000000000000000000000000000000000 000000000000000000000000000000000000000     00000000                                                                                                                        000000000000000000
F001000000100276000050080201411900013552100000000000000000201704060002001PLASTISERVICIOS S DE H                            D000000000008800000000000000000000100010010000000000000000000000F00100000010027600520170406000101 00000000000000000000000000000000000000000000000000000000000000000000000000000000000000000000000000000000000000000N 00000000000NCONT   00    00000000000          00000000000000000000000000000000000000000000 000000000000000A000000000000000000000000000000000000000000000 000000000000000000000000000000000000000     00000000                                                                                                                        000000000000000000
F001000000100277000010080201411900011050500000000000000000201704060002001PLASTISERVICIOS S DE H                            D000000004000000000000000000000000100010010000000000000000000000F00100000010027700120170406000101 00000000000000000000000000000000000000000000000000000000000000000000000000000000000000000000000000000000000000000N 00000000000NCONT   00    00000000000          00000000000000000000000000000000000000000000 000000000000000A000000000000000000000000000000000000000000000 000000000000000000000000000000000000000     00000000                                                                                                                        000000000000000000
F001000000100277000020080201411900041450500000000000000000201704060002001PLASTISERVICIOS S DE H                            C000000003300000000000000000000000100010010000000000000000000000F00100000010027700220170406000101 00000000000000000000000000000000000000000000000000000000000000000000000000000000000000000000000000000000000000000N 00000000000NCONT   00    00000000000          00000000000000000000000000000000000000000000 000000000000000A000000000000000000000000000000000000000000000 000000000000000000000000000000000000000     00000000                                                                                                                        000000000000000000
F001000000100277000030080201411900042505000000000000000000201704060002001PLASTISERVICIOS S DE H                            C000000000700000000000000000000000100010010000000000000000000000F00100000010027700320170406000101 00000000000000000000000000000000000000000000000000000000000000000000000000000000000000000000000000000000000000000N 00000000000NCONT   00    00000000000          00000000000000000000000000000000000000000000 000000000000000A000000000000000000000000000000000000000000000 000000000000000000000000000000000000000     00000000                                                                                                                        000000000000000000
F001000000100277000040080201411900023658300000000000000000201704060002001PLASTISERVICIOS S DE H                            C000000000026400000000000000000000100010010000000000000000000000F00100000010027700420170406000101 00000000000000000000000000000000000000000000000000000000000000000000000000000000000000000000000000000000000000000N 00000000000NCONT   00    00000000000          00000000000000000000000000000000000000000000 000000000000000A000000000000000000000000000000000000000000000 000000000000000000000000000000000000000     00000000                                                                                                                        000000000000000000
F001000000100277000050080201411900013552100000000000000000201704060002001PLASTISERVICIOS S DE H                            D000000000026400000000000000000000100010010000000000000000000000F00100000010027700520170406000101 00000000000000000000000000000000000000000000000000000000000000000000000000000000000000000000000000000000000000000N 00000000000NCONT   00    00000000000          00000000000000000000000000000000000000000000 000000000000000A000000000000000000000000000000000000000000000 000000000000000000000000000000000000000     00000000                                                                                                                        000000000000000000
F001000000100278000010080201411900011050500000000000000000201704060002001PLASTISERVICIOS S DE H                            D000000008050000000000000000000000100010010000000000000000000000F00100000010027800120170406000101 00000000000000000000000000000000000000000000000000000000000000000000000000000000000000000000000000000000000000000N 00000000000NCONT   00    00000000000          00000000000000000000000000000000000000000000 000000000000000A000000000000000000000000000000000000000000000 000000000000000000000000000000000000000     00000000                                                                                                                        000000000000000000
F001000000100278000020080201411900041450500000000000000000201704060002001PLASTISERVICIOS S DE H                            C000000006600000000000000000000000100010010000000000000000000000F00100000010027800220170406000101 00000000000000000000000000000000000000000000000000000000000000000000000000000000000000000000000000000000000000000N 00000000000NCONT   00    00000000000          00000000000000000000000000000000000000000000 000000000000000A000000000000000000000000000000000000000000000 000000000000000000000000000000000000000     00000000                                                                                                                        000000000000000000
F001000000100278000030080201411900042505000000000000000000201704060002001PLASTISERVICIOS S DE H                            C000000001450000000000000000000000100010010000000000000000000000F00100000010027800320170406000101 00000000000000000000000000000000000000000000000000000000000000000000000000000000000000000000000000000000000000000N 00000000000NCONT   00    00000000000          00000000000000000000000000000000000000000000 000000000000000A000000000000000000000000000000000000000000000 000000000000000000000000000000000000000     00000000                                                                                                                        000000000000000000
F001000000100278000040080201411900023658300000000000000000201704060002001PLASTISERVICIOS S DE H                            C000000000052800000000000000000000100010010000000000000000000000F00100000010027800420170406000101 00000000000000000000000000000000000000000000000000000000000000000000000000000000000000000000000000000000000000000N 00000000000NCONT   00    00000000000          00000000000000000000000000000000000000000000 000000000000000A000000000000000000000000000000000000000000000 000000000000000000000000000000000000000     00000000                                                                                                                        000000000000000000
F001000000100278000050080201411900013552100000000000000000201704060002001PLASTISERVICIOS S DE H                            D000000000052800000000000000000000100010010000000000000000000000F00100000010027800520170406000101 00000000000000000000000000000000000000000000000000000000000000000000000000000000000000000000000000000000000000000N 00000000000NCONT   00    00000000000          00000000000000000000000000000000000000000000 000000000000000A000000000000000000000000000000000000000000000 000000000000000000000000000000000000000     00000000                                                                                                                        000000000000000000
F001000000100279000010080201411900011050500000000000000000201704060002001PLASTISERVICIOS S DE H                            D000000001300000000000000000000000100010010000000000000000000000F00100000010027900120170406000101 00000000000000000000000000000000000000000000000000000000000000000000000000000000000000000000000000000000000000000N 00000000000NCONT   00    00000000000          00000000000000000000000000000000000000000000 000000000000000A000000000000000000000000000000000000000000000 000000000000000000000000000000000000000     00000000                                                                                                                        000000000000000000
F001000000100279000020080201411900041450500000000000000000201704060002001PLASTISERVICIOS S DE H                            C000000001100000000000000000000000100010010000000000000000000000F00100000010027900220170406000101 00000000000000000000000000000000000000000000000000000000000000000000000000000000000000000000000000000000000000000N 00000000000NCONT   00    00000000000          00000000000000000000000000000000000000000000 000000000000000A000000000000000000000000000000000000000000000 000000000000000000000000000000000000000     00000000                                                                                                                        000000000000000000
F001000000100279000030080201411900042505000000000000000000201704060002001PLASTISERVICIOS S DE H                            C000000000200000000000000000000000100010010000000000000000000000F00100000010027900320170406000101 00000000000000000000000000000000000000000000000000000000000000000000000000000000000000000000000000000000000000000N 00000000000NCONT   00    00000000000          00000000000000000000000000000000000000000000 000000000000000A000000000000000000000000000000000000000000000 000000000000000000000000000000000000000     00000000                                                                                                                        000000000000000000
F001000000100279000040080201411900023658300000000000000000201704060002001PLASTISERVICIOS S DE H                            C000000000008800000000000000000000100010010000000000000000000000F00100000010027900420170406000101 00000000000000000000000000000000000000000000000000000000000000000000000000000000000000000000000000000000000000000N 00000000000NCONT   00    00000000000          00000000000000000000000000000000000000000000 000000000000000A000000000000000000000000000000000000000000000 000000000000000000000000000000000000000     00000000                                                                                                                        000000000000000000
F001000000100279000050080201411900013552100000000000000000201704060002001PLASTISERVICIOS S DE H                            D000000000008800000000000000000000100010010000000000000000000000F00100000010027900520170406000101 00000000000000000000000000000000000000000000000000000000000000000000000000000000000000000000000000000000000000000N 00000000000NCONT   00    00000000000          00000000000000000000000000000000000000000000 000000000000000A000000000000000000000000000000000000000000000 000000000000000000000000000000000000000     00000000                                                                                                                        000000000000000000
F001000000100280000010007223972300011050500000000000000000201704060002001LUIS VALENCIA                                     D000000001100000000000000000000000100010010000000000000000000000F00100000010028000120170406000101 00000000000000000000000000000000000000000000000000000000000000000000000000000000000000000000000000000000000000000N 00000000000NCONT   00    00000000000          00000000000000000000000000000000000000000000 000000000000000A000000000000000000000000000000000000000000000 000000000000000000000000000000000000000     00000000                                                                                                                        000000000000000000
F001000000100280000020007223972300041450500000000000000000201704060002001LUIS VALENCIA                                     C000000001000000000000000000000000100010010000000000000000000000F00100000010028000220170406000101 00000000000000000000000000000000000000000000000000000000000000000000000000000000000000000000000000000000000000000N 00000000000NCONT   00    00000000000          00000000000000000000000000000000000000000000 000000000000000A000000000000000000000000000000000000000000000 000000000000000000000000000000000000000     00000000                                                                                                                        000000000000000000
F001000000100280000030007223972300042505000000000000000000201704060002001LUIS VALENCIA                                     C000000000100000000000000000000000100010010000000000000000000000F00100000010028000320170406000101 00000000000000000000000000000000000000000000000000000000000000000000000000000000000000000000000000000000000000000N 00000000000NCONT   00    00000000000          00000000000000000000000000000000000000000000 000000000000000A000000000000000000000000000000000000000000000 000000000000000000000000000000000000000     00000000                                                                                                                        000000000000000000
F001000000100280000040007223972300023658300000000000000000201704060002001LUIS VALENCIA                                     C000000000008000000000000000000000100010010000000000000000000000F00100000010028000420170406000101 00000000000000000000000000000000000000000000000000000000000000000000000000000000000000000000000000000000000000000N 00000000000NCONT   00    00000000000          00000000000000000000000000000000000000000000 000000000000000A000000000000000000000000000000000000000000000 000000000000000000000000000000000000000     00000000                                                                                                                        000000000000000000
F001000000100280000050007223972300013552100000000000000000201704060002001LUIS VALENCIA                                     D000000000008000000000000000000000100010010000000000000000000000F00100000010028000520170406000101 00000000000000000000000000000000000000000000000000000000000000000000000000000000000000000000000000000000000000000N 00000000000NCONT   00    00000000000          00000000000000000000000000000000000000000000 000000000000000A000000000000000000000000000000000000000000000 000000000000000000000000000000000000000     00000000                                                                                                                        000000000000000000
F001000000100281000010000744496800011050500000000000000000201704060002001TOMAS SANCHEZ                                     D000000003100000000000000000000000100010010000000000000000000000F00100000010028100120170406000101 00000000000000000000000000000000000000000000000000000000000000000000000000000000000000000000000000000000000000000N 00000000000NCONT   00    00000000000          00000000000000000000000000000000000000000000 000000000000000A000000000000000000000000000000000000000000000 000000000000000000000000000000000000000     00000000                                                                                                                        000000000000000000
F001000000100281000020000744496800041450500000000000000000201704060002001TOMAS SANCHEZ                                     C000000003000000000000000000000000100010010000000000000000000000F00100000010028100220170406000101 00000000000000000000000000000000000000000000000000000000000000000000000000000000000000000000000000000000000000000N 00000000000NCONT   00    00000000000          00000000000000000000000000000000000000000000 000000000000000A000000000000000000000000000000000000000000000 000000000000000000000000000000000000000     00000000                                                                                                                        000000000000000000
F001000000100281000030000744496800042505000000000000000000201704060002001TOMAS SANCHEZ                                     C000000000100000000000000000000000100010010000000000000000000000F00100000010028100320170406000101 00000000000000000000000000000000000000000000000000000000000000000000000000000000000000000000000000000000000000000N 00000000000NCONT   00    00000000000          00000000000000000000000000000000000000000000 000000000000000A000000000000000000000000000000000000000000000 000000000000000000000000000000000000000     00000000                                                                                                                        000000000000000000
F001000000100281000040000744496800023658300000000000000000201704060002001TOMAS SANCHEZ                                     C000000000024000000000000000000000100010010000000000000000000000F00100000010028100420170406000101 00000000000000000000000000000000000000000000000000000000000000000000000000000000000000000000000000000000000000000N 00000000000NCONT   00    00000000000          00000000000000000000000000000000000000000000 000000000000000A000000000000000000000000000000000000000000000 000000000000000000000000000000000000000     00000000                                                                                                                        000000000000000000
F001000000100281000050000744496800013552100000000000000000201704060002001TOMAS SANCHEZ                                     D000000000024000000000000000000000100010010000000000000000000000F00100000010028100520170406000101 00000000000000000000000000000000000000000000000000000000000000000000000000000000000000000000000000000000000000000N 00000000000NCONT   00    00000000000          00000000000000000000000000000000000000000000 000000000000000A000000000000000000000000000000000000000000000 000000000000000000000000000000000000000     00000000                                                                                                                        000000000000000000
F001000000100282000010000870053600011050500000000000000000201704060002001FARID ARRIETA                                     D000000001300000000000000000000000100010010000000000000000000000F00100000010028200120170406000101 00000000000000000000000000000000000000000000000000000000000000000000000000000000000000000000000000000000000000000N 00000000000NCONT   00    00000000000          00000000000000000000000000000000000000000000 000000000000000A000000000000000000000000000000000000000000000 000000000000000000000000000000000000000     00000000                                                                                                                        000000000000000000
F001000000100282000020000870053600041450500000000000000000201704060002001FARID ARRIETA                                     C000000001200000000000000000000000100010010000000000000000000000F00100000010028200220170406000101 00000000000000000000000000000000000000000000000000000000000000000000000000000000000000000000000000000000000000000N 00000000000NCONT   00    00000000000          00000000000000000000000000000000000000000000 000000000000000A000000000000000000000000000000000000000000000 000000000000000000000000000000000000000     00000000                                                                                                                        000000000000000000
F001000000100282000030000870053600042505000000000000000000201704060002001FARID ARRIETA                                     C000000000100000000000000000000000100010010000000000000000000000F00100000010028200320170406000101 00000000000000000000000000000000000000000000000000000000000000000000000000000000000000000000000000000000000000000N 00000000000NCONT   00    00000000000          00000000000000000000000000000000000000000000 000000000000000A000000000000000000000000000000000000000000000 000000000000000000000000000000000000000     00000000                                                                                                                        000000000000000000
F001000000100282000040000870053600023658300000000000000000201704060002001FARID ARRIETA                                     C000000000009600000000000000000000100010010000000000000000000000F00100000010028200420170406000101 00000000000000000000000000000000000000000000000000000000000000000000000000000000000000000000000000000000000000000N 00000000000NCONT   00    00000000000          00000000000000000000000000000000000000000000 000000000000000A000000000000000000000000000000000000000000000 000000000000000000000000000000000000000     00000000                                                                                                                        000000000000000000
F001000000100282000050000870053600013552100000000000000000201704060002001FARID ARRIETA                                     D000000000009600000000000000000000100010010000000000000000000000F00100000010028200520170406000101 00000000000000000000000000000000000000000000000000000000000000000000000000000000000000000000000000000000000000000N 00000000000NCONT   00    00000000000          00000000000000000000000000000000000000000000 000000000000000A000000000000000000000000000000000000000000000 000000000000000000000000000000000000000     00000000                                                                                                                        000000000000000000
F001000000100283000010090037940600011050500000000000000000201704060002001DISTRIBUIDORA DE COSMETICOS ROSA SARON LTDA       D000000001300000000000000000000000100010010000000000000000000000F00100000010028300120170406000101 00000000000000000000000000000000000000000000000000000000000000000000000000000000000000000000000000000000000000000N 00000000000NCONT   00    00000000000          00000000000000000000000000000000000000000000 000000000000000A000000000000000000000000000000000000000000000 000000000000000000000000000000000000000     00000000                                                                                                                        000000000000000000
F001000000100283000020090037940600041450500000000000000000201704060002001DISTRIBUIDORA DE COSMETICOS ROSA SARON LTDA       C000000001000000000000000000000000100010010000000000000000000000F00100000010028300220170406000101 00000000000000000000000000000000000000000000000000000000000000000000000000000000000000000000000000000000000000000N 00000000000NCONT   00    00000000000          00000000000000000000000000000000000000000000 000000000000000A000000000000000000000000000000000000000000000 000000000000000000000000000000000000000     00000000                                                                                                                        000000000000000000
F001000000100283000030090037940600042505000000000000000000201704060002001DISTRIBUIDORA DE COSMETICOS ROSA SARON LTDA       C000000000300000000000000000000000100010010000000000000000000000F00100000010028300320170406000101 00000000000000000000000000000000000000000000000000000000000000000000000000000000000000000000000000000000000000000N 00000000000NCONT   00    00000000000          00000000000000000000000000000000000000000000 000000000000000A000000000000000000000000000000000000000000000 000000000000000000000000000000000000000     00000000                                                                                                                        000000000000000000
F001000000100283000040090037940600023658300000000000000000201704060002001DISTRIBUIDORA DE COSMETICOS ROSA SARON LTDA       C000000000008000000000000000000000100010010000000000000000000000F00100000010028300420170406000101 00000000000000000000000000000000000000000000000000000000000000000000000000000000000000000000000000000000000000000N 00000000000NCONT   00    00000000000          00000000000000000000000000000000000000000000 000000000000000A000000000000000000000000000000000000000000000 000000000000000000000000000000000000000     00000000                                                                                                                        000000000000000000
F001000000100283000050090037940600013552100000000000000000201704060002001DISTRIBUIDORA DE COSMETICOS ROSA SARON LTDA       D000000000008000000000000000000000100010010000000000000000000000F00100000010028300520170406000101 00000000000000000000000000000000000000000000000000000000000000000000000000000000000000000000000000000000000000000N 00000000000NCONT   00    00000000000          00000000000000000000000000000000000000000000 000000000000000A000000000000000000000000000000000000000000000 000000000000000000000000000000000000000     00000000                                                                                                                        000000000000000000
F001000000100284000010090061985600011050500000000000000000201704060002001COMERCIALIZADORA PATRY SAS                        D000000006200000000000000000000000100010010000000000000000000000F00100000010028400120170406000101 00000000000000000000000000000000000000000000000000000000000000000000000000000000000000000000000000000000000000000N 00000000000NCONT   00    00000000000          00000000000000000000000000000000000000000000 000000000000000A000000000000000000000000000000000000000000000 000000000000000000000000000000000000000     00000000                                                                                                                        000000000000000000
F001000000100284000020090061985600041450500000000000000000201704060002001COMERCIALIZADORA PATRY SAS                        C000000005200000000000000000000000100010010000000000000000000000F00100000010028400220170406000101 00000000000000000000000000000000000000000000000000000000000000000000000000000000000000000000000000000000000000000N 00000000000NCONT   00    00000000000          00000000000000000000000000000000000000000000 000000000000000A000000000000000000000000000000000000000000000 000000000000000000000000000000000000000     00000000                                                                                                                        000000000000000000
F001000000100284000030090061985600042505000000000000000000201704060002001COMERCIALIZADORA PATRY SAS                        C000000001000000000000000000000000100010010000000000000000000000F00100000010028400320170406000101 00000000000000000000000000000000000000000000000000000000000000000000000000000000000000000000000000000000000000000N 00000000000NCONT   00    00000000000          00000000000000000000000000000000000000000000 000000000000000A000000000000000000000000000000000000000000000 000000000000000000000000000000000000000     00000000                                                                                                                        000000000000000000
F001000000100284000040090061985600023658300000000000000000201704060002001COMERCIALIZADORA PATRY SAS                        C000000000041600000000000000000000100010010000000000000000000000F00100000010028400420170406000101 00000000000000000000000000000000000000000000000000000000000000000000000000000000000000000000000000000000000000000N 00000000000NCONT   00    00000000000          00000000000000000000000000000000000000000000 000000000000000A000000000000000000000000000000000000000000000 000000000000000000000000000000000000000     00000000                                                                                                                        000000000000000000
F001000000100284000050090061985600013552100000000000000000201704060002001COMERCIALIZADORA PATRY SAS                        D000000000041600000000000000000000100010010000000000000000000000F00100000010028400520170406000101 00000000000000000000000000000000000000000000000000000000000000000000000000000000000000000000000000000000000000000N 00000000000NCONT   00    00000000000          00000000000000000000000000000000000000000000 000000000000000A000000000000000000000000000000000000000000000 000000000000000000000000000000000000000     00000000                                                                                                                        000000000000000000
F001000000100285000010090047878200011050500000000000000000201704060002001GRUMAD SAS                                        D000000043000000000000000000000000100010010000000000000000000000F00100000010028500120170406000101 00000000000000000000000000000000000000000000000000000000000000000000000000000000000000000000000000000000000000000N 00000000000NCONT   00    00000000000          00000000000000000000000000000000000000000000 000000000000000A000000000000000000000000000000000000000000000 000000000000000000000000000000000000000     00000000                                                                                                                        000000000000000000
F001000000100285000020090047878200041450500000000000000000201704060002001GRUMAD SAS                                        C000000038000000000000000000000000100010010000000000000000000000F00100000010028500220170406000101 00000000000000000000000000000000000000000000000000000000000000000000000000000000000000000000000000000000000000000N 00000000000NCONT   00    00000000000          00000000000000000000000000000000000000000000 000000000000000A000000000000000000000000000000000000000000000 000000000000000000000000000000000000000     00000000                                                                                                                        000000000000000000
F001000000100285000030090047878200042505000000000000000000201704060002001GRUMAD SAS                                        C000000005000000000000000000000000100010010000000000000000000000F00100000010028500320170406000101 00000000000000000000000000000000000000000000000000000000000000000000000000000000000000000000000000000000000000000N 00000000000NCONT   00    00000000000          00000000000000000000000000000000000000000000 000000000000000A000000000000000000000000000000000000000000000 000000000000000000000000000000000000000     00000000                                                                                                                        000000000000000000
F001000000100285000040090047878200023658300000000000000000201704060002001GRUMAD SAS                                        C000000000304000000000000000000000100010010000000000000000000000F00100000010028500420170406000101 00000000000000000000000000000000000000000000000000000000000000000000000000000000000000000000000000000000000000000N 00000000000NCONT   00    00000000000          00000000000000000000000000000000000000000000 000000000000000A000000000000000000000000000000000000000000000 000000000000000000000000000000000000000     00000000                                                                                                                        000000000000000000
F001000000100285000050090047878200013552100000000000000000201704060002001GRUMAD SAS                                        D000000000304000000000000000000000100010010000000000000000000000F00100000010028500520170406000101 00000000000000000000000000000000000000000000000000000000000000000000000000000000000000000000000000000000000000000N 00000000000NCONT   00    00000000000          00000000000000000000000000000000000000000000 000000000000000A000000000000000000000000000000000000000000000 000000000000000000000000000000000000000     00000000                                                                                                                        000000000000000000
F001000000100286000010009249843700011050500000000000000000201704060002001CESAR MERCADO                                     D000000001100000000000000000000000100010010000000000000000000000F00100000010028600120170406000101 00000000000000000000000000000000000000000000000000000000000000000000000000000000000000000000000000000000000000000N 00000000000NCONT   00    00000000000          00000000000000000000000000000000000000000000 000000000000000A000000000000000000000000000000000000000000000 000000000000000000000000000000000000000     00000000                                                                                                                        000000000000000000
F001000000100286000020009249843700041450500000000000000000201704060002001CESAR MERCADO                                     C000000001000000000000000000000000100010010000000000000000000000F00100000010028600220170406000101 00000000000000000000000000000000000000000000000000000000000000000000000000000000000000000000000000000000000000000N 00000000000NCONT   00    00000000000          00000000000000000000000000000000000000000000 000000000000000A000000000000000000000000000000000000000000000 000000000000000000000000000000000000000     00000000                                                                                                                        000000000000000000
F001000000100286000030009249843700042505000000000000000000201704060002001CESAR MERCADO                                     C000000000100000000000000000000000100010010000000000000000000000F00100000010028600320170406000101 00000000000000000000000000000000000000000000000000000000000000000000000000000000000000000000000000000000000000000N 00000000000NCONT   00    00000000000          00000000000000000000000000000000000000000000 000000000000000A000000000000000000000000000000000000000000000 000000000000000000000000000000000000000     00000000                                                                                                                        000000000000000000
F001000000100286000040009249843700023658300000000000000000201704060002001CESAR MERCADO                                     C000000000008000000000000000000000100010010000000000000000000000F00100000010028600420170406000101 00000000000000000000000000000000000000000000000000000000000000000000000000000000000000000000000000000000000000000N 00000000000NCONT   00    00000000000          00000000000000000000000000000000000000000000 000000000000000A000000000000000000000000000000000000000000000 000000000000000000000000000000000000000     00000000                                                                                                                        000000000000000000
F001000000100286000050009249843700013552100000000000000000201704060002001CESAR MERCADO                                     D000000000008000000000000000000000100010010000000000000000000000F00100000010028600520170406000101 00000000000000000000000000000000000000000000000000000000000000000000000000000000000000000000000000000000000000000N 00000000000NCONT   00    00000000000          00000000000000000000000000000000000000000000 000000000000000A000000000000000000000000000000000000000000000 000000000000000000000000000000000000000     00000000                                                                                                                        000000000000000000
F001000000100287000010080023327700011050500000000000000000201704060002001DISINCO LTDA                                      D000000004050000000000000000000000100010010000000000000000000000F00100000010028700120170406000101 00000000000000000000000000000000000000000000000000000000000000000000000000000000000000000000000000000000000000000N 00000000000NCONT   00    00000000000          00000000000000000000000000000000000000000000 000000000000000A000000000000000000000000000000000000000000000 000000000000000000000000000000000000000     00000000                                                                                                                        000000000000000000
F001000000100287000020080023327700041450500000000000000000201704060002001DISINCO LTDA                                      C000000003680000000000000000000000100010010000000000000000000000F00100000010028700220170406000101 00000000000000000000000000000000000000000000000000000000000000000000000000000000000000000000000000000000000000000N 00000000000NCONT   00    00000000000          00000000000000000000000000000000000000000000 000000000000000A000000000000000000000000000000000000000000000 000000000000000000000000000000000000000     00000000                                                                                                                        000000000000000000
F001000000100287000030080023327700042505000000000000000000201704060002001DISINCO LTDA                                      C000000000370000000000000000000000100010010000000000000000000000F00100000010028700320170406000101 00000000000000000000000000000000000000000000000000000000000000000000000000000000000000000000000000000000000000000N 00000000000NCONT   00    00000000000          00000000000000000000000000000000000000000000 000000000000000A000000000000000000000000000000000000000000000 000000000000000000000000000000000000000     00000000                                                                                                                        000000000000000000
F001000000100287000040080023327700023658300000000000000000201704060002001DISINCO LTDA                                      C000000000029400000000000000000000100010010000000000000000000000F00100000010028700420170406000101 00000000000000000000000000000000000000000000000000000000000000000000000000000000000000000000000000000000000000000N 00000000000NCONT   00    00000000000          00000000000000000000000000000000000000000000 000000000000000A000000000000000000000000000000000000000000000 000000000000000000000000000000000000000     00000000                                                                                                                        000000000000000000
F001000000100287000050080023327700013552100000000000000000201704060002001DISINCO LTDA                                      D000000000029400000000000000000000100010010000000000000000000000F00100000010028700520170406000101 00000000000000000000000000000000000000000000000000000000000000000000000000000000000000000000000000000000000000000N 00000000000NCONT   00    00000000000          00000000000000000000000000000000000000000000 000000000000000A000000000000000000000000000000000000000000000 000000000000000000000000000000000000000     00000000                                                                                                                        000000000000000000
F001000000100288000010090020147400011050500000000000000000201704060002001PROCOQUIM SAS                                     D000000026600000000000000000000000100010010000000000000000000000F00100000010028800120170406000101 00000000000000000000000000000000000000000000000000000000000000000000000000000000000000000000000000000000000000000N 00000000000NCONT   00    00000000000          00000000000000000000000000000000000000000000 000000000000000A000000000000000000000000000000000000000000000 000000000000000000000000000000000000000     00000000                                                                                                                        000000000000000000
F001000000100288000020090020147400041450500000000000000000201704060002001PROCOQUIM SAS                                     C000000025600000000000000000000000100010010000000000000000000000F00100000010028800220170406000101 00000000000000000000000000000000000000000000000000000000000000000000000000000000000000000000000000000000000000000N 00000000000NCONT   00    00000000000          00000000000000000000000000000000000000000000 000000000000000A000000000000000000000000000000000000000000000 000000000000000000000000000000000000000     00000000                                                                                                                        000000000000000000
F001000000100288000030090020147400042505000000000000000000201704060002001PROCOQUIM SAS                                     C000000001000000000000000000000000100010010000000000000000000000F00100000010028800320170406000101 00000000000000000000000000000000000000000000000000000000000000000000000000000000000000000000000000000000000000000N 00000000000NCONT   00    00000000000          00000000000000000000000000000000000000000000 000000000000000A000000000000000000000000000000000000000000000 000000000000000000000000000000000000000     00000000                                                                                                                        000000000000000000
F001000000100288000040090020147400023658300000000000000000201704060002001PROCOQUIM SAS                                     C000000000204800000000000000000000100010010000000000000000000000F00100000010028800420170406000101 00000000000000000000000000000000000000000000000000000000000000000000000000000000000000000000000000000000000000000N 00000000000NCONT   00    00000000000          00000000000000000000000000000000000000000000 000000000000000A000000000000000000000000000000000000000000000 000000000000000000000000000000000000000     00000000                                                                                                                        000000000000000000
F001000000100288000050090020147400013552100000000000000000201704060002001PROCOQUIM SAS                                     D000000000204800000000000000000000100010010000000000000000000000F00100000010028800520170406000101 00000000000000000000000000000000000000000000000000000000000000000000000000000000000000000000000000000000000000000N 00000000000NCONT   00    00000000000          00000000000000000000000000000000000000000000 000000000000000A000000000000000000000000000000000000000000000 000000000000000000000000000000000000000     00000000                                                                                                                        000000000000000000
F001000000100289000010000866531000011050500000000000000000201704060002001CLAUDIO RAFAEL DE JESUS LLINAS MOLINA             D000000005500000000000000000000000100010010000000000000000000000F00100000010028900120170406000101 00000000000000000000000000000000000000000000000000000000000000000000000000000000000000000000000000000000000000000N 00000000000NCONT   00    00000000000          00000000000000000000000000000000000000000000 000000000000000A000000000000000000000000000000000000000000000 000000000000000000000000000000000000000     00000000                                                                                                                        000000000000000000
F001000000100289000020000866531000041450500000000000000000201704060002001CLAUDIO RAFAEL DE JESUS LLINAS MOLINA             C000000005000000000000000000000000100010010000000000000000000000F00100000010028900220170406000101 00000000000000000000000000000000000000000000000000000000000000000000000000000000000000000000000000000000000000000N 00000000000NCONT   00    00000000000          00000000000000000000000000000000000000000000 000000000000000A000000000000000000000000000000000000000000000 000000000000000000000000000000000000000     00000000                                                                                                                        000000000000000000
F001000000100289000030000866531000042505000000000000000000201704060002001CLAUDIO RAFAEL DE JESUS LLINAS MOLINA             C000000000500000000000000000000000100010010000000000000000000000F00100000010028900320170406000101 00000000000000000000000000000000000000000000000000000000000000000000000000000000000000000000000000000000000000000N 00000000000NCONT   00    00000000000          00000000000000000000000000000000000000000000 000000000000000A000000000000000000000000000000000000000000000 000000000000000000000000000000000000000     00000000                                                                                                                        000000000000000000
F001000000100289000040000866531000023658300000000000000000201704060002001CLAUDIO RAFAEL DE JESUS LLINAS MOLINA             C000000000040000000000000000000000100010010000000000000000000000F00100000010028900420170406000101 00000000000000000000000000000000000000000000000000000000000000000000000000000000000000000000000000000000000000000N 00000000000NCONT   00    00000000000          00000000000000000000000000000000000000000000 000000000000000A000000000000000000000000000000000000000000000 000000000000000000000000000000000000000     00000000                                                                                                                        000000000000000000
F001000000100289000050000866531000013552100000000000000000201704060002001CLAUDIO RAFAEL DE JESUS LLINAS MOLINA             D000000000040000000000000000000000100010010000000000000000000000F00100000010028900520170406000101 00000000000000000000000000000000000000000000000000000000000000000000000000000000000000000000000000000000000000000N 00000000000NCONT   00    00000000000          00000000000000000000000000000000000000000000 000000000000000A000000000000000000000000000000000000000000000 000000000000000000000000000000000000000     00000000                                                                                                                        000000000000000000
F001000000100290000010090067091400011050500000000000000000201704060002001COMERCIALIZADORA ESCOBAR ORTIZ                    D000000002300000000000000000000000100010010000000000000000000000F00100000010029000120170406000101 00000000000000000000000000000000000000000000000000000000000000000000000000000000000000000000000000000000000000000N 00000000000NCONT   00    00000000000          00000000000000000000000000000000000000000000 000000000000000A000000000000000000000000000000000000000000000 000000000000000000000000000000000000000     00000000                                                                                                                        000000000000000000
F001000000100290000020090067091400041450500000000000000000201704060002001COMERCIALIZADORA ESCOBAR ORTIZ                    C000000001500000000000000000000000100010010000000000000000000000F00100000010029000220170406000101 00000000000000000000000000000000000000000000000000000000000000000000000000000000000000000000000000000000000000000N 00000000000NCONT   00    00000000000          00000000000000000000000000000000000000000000 000000000000000A000000000000000000000000000000000000000000000 000000000000000000000000000000000000000     00000000                                                                                                                        000000000000000000
F001000000100290000030090067091400042505000000000000000000201704060002001COMERCIALIZADORA ESCOBAR ORTIZ                    C000000000800000000000000000000000100010010000000000000000000000F00100000010029000320170406000101 00000000000000000000000000000000000000000000000000000000000000000000000000000000000000000000000000000000000000000N 00000000000NCONT   00    00000000000          00000000000000000000000000000000000000000000 000000000000000A000000000000000000000000000000000000000000000 000000000000000000000000000000000000000     00000000                                                                                                                        000000000000000000
F001000000100290000040090067091400023658300000000000000000201704060002001COMERCIALIZADORA ESCOBAR ORTIZ                    C000000000012000000000000000000000100010010000000000000000000000F00100000010029000420170406000101 00000000000000000000000000000000000000000000000000000000000000000000000000000000000000000000000000000000000000000N 00000000000NCONT   00    00000000000          00000000000000000000000000000000000000000000 000000000000000A000000000000000000000000000000000000000000000 000000000000000000000000000000000000000     00000000                                                                                                                        000000000000000000
F001000000100290000050090067091400013552100000000000000000201704060002001COMERCIALIZADORA ESCOBAR ORTIZ                    D000000000012000000000000000000000100010010000000000000000000000F00100000010029000520170406000101 00000000000000000000000000000000000000000000000000000000000000000000000000000000000000000000000000000000000000000N 00000000000NCONT   00    00000000000          00000000000000000000000000000000000000000000 000000000000000A000000000000000000000000000000000000000000000 000000000000000000000000000000000000000     00000000                                                                                                                        000000000000000000
