F0010000009106800001000009120302700011050500000000000000000201609090002001CALZADO REY ESTEBAN                               D000000003600000000000000000000000100010010000000000000000000000F0010000009106800120160909000101 00000000000000000000000000000000000000000000000000000000000000000000000000000000000000000000000000000000000000000N 00000000000NCONT   00    00000000000          00000000000000000000000000000000000000000000 000000000000000A000000000000000000000000000000000000000000000 000000000000000000000000000000000000000     00000000                                                                                                                        000000000000000000
F0010000009106800002000009120302700041450500000000000000000201609090002001CALZADO REY ESTEBAN                               C000000002600000000000000000000000100010010000000000000000000000F0010000009106800220160909000101 00000000000000000000000000000000000000000000000000000000000000000000000000000000000000000000000000000000000000000N 00000000000NCONT   00    00000000000          00000000000000000000000000000000000000000000 000000000000000A000000000000000000000000000000000000000000000 000000000000000000000000000000000000000     00000000                                                                                                                        000000000000000000
F0010000009106800003000009120302700042505000000000000000000201609090002001CALZADO REY ESTEBAN                               C000000001000000000000000000000000100010010000000000000000000000F0010000009106800320160909000101 00000000000000000000000000000000000000000000000000000000000000000000000000000000000000000000000000000000000000000N 00000000000NCONT   00    00000000000          00000000000000000000000000000000000000000000 000000000000000A000000000000000000000000000000000000000000000 000000000000000000000000000000000000000     00000000                                                                                                                        000000000000000000
F0010000009106800004000009120302700023658300000000000000000201609090002001CALZADO REY ESTEBAN                               C000000000020800000000000000000000100010010000000000000000000000F0010000009106800420160909000101 00000000000000000000000000000000000000000000000000000000000000000000000000000000000000000000000000000000000000000N 00000000000NCONT   00    00000000000          00000000000000000000000000000000000000000000 000000000000000A000000000000000000000000000000000000000000000 000000000000000000000000000000000000000     00000000                                                                                                                        000000000000000000
F0010000009106800005000009120302700013552100000000000000000201609090002001CALZADO REY ESTEBAN                               D000000000020800000000000000000000100010010000000000000000000000F0010000009106800520160909000101 00000000000000000000000000000000000000000000000000000000000000000000000000000000000000000000000000000000000000000N 00000000000NCONT   00    00000000000          00000000000000000000000000000000000000000000 000000000000000A000000000000000000000000000000000000000000000 000000000000000000000000000000000000000     00000000                                                                                                                        000000000000000000
F0010000009106900001000089070997800013050500000000000000000201609090002001CENTRAL DE TORNILLOS                              D000000015480000000000000000000000100010010000000000000000000000F0010000009106900120160909000101 00000000000000000000000000000000000000000000000000000000000000000000000000000000000000000000000000000000000000000N 00000000000NCONT   00    00000000000          00000000000000000000000000000000000000000000 000000000000000A000000000000000000000000000000000000000000000 000000000000000000000000000000000000000     00000000                                                                                                                        000000000000000000
F0010000009106900002000089070997800041450500000000000000000201609090002001CENTRAL DE TORNILLOS                              C000000012780000000000000000000000100010010000000000000000000000F0010000009106900220160909000101 00000000000000000000000000000000000000000000000000000000000000000000000000000000000000000000000000000000000000000N 00000000000NCONT   00    00000000000          00000000000000000000000000000000000000000000 000000000000000A000000000000000000000000000000000000000000000 000000000000000000000000000000000000000     00000000                                                                                                                        000000000000000000
F0010000009106900003000089070997800042505000000000000000000201609090002001CENTRAL DE TORNILLOS                              C000000002700000000000000000000000100010010000000000000000000000F0010000009106900320160909000101 00000000000000000000000000000000000000000000000000000000000000000000000000000000000000000000000000000000000000000N 00000000000NCONT   00    00000000000          00000000000000000000000000000000000000000000 000000000000000A000000000000000000000000000000000000000000000 000000000000000000000000000000000000000     00000000                                                                                                                        000000000000000000
F0010000009106900004000089070997800023658300000000000000000201609090002001CENTRAL DE TORNILLOS                              C000000000102200000000000000000000100010010000000000000000000000F0010000009106900420160909000101 00000000000000000000000000000000000000000000000000000000000000000000000000000000000000000000000000000000000000000N 00000000000NCONT   00    00000000000          00000000000000000000000000000000000000000000 000000000000000A000000000000000000000000000000000000000000000 000000000000000000000000000000000000000     00000000                                                                                                                        000000000000000000
F0010000009106900005000089070997800013552100000000000000000201609090002001CENTRAL DE TORNILLOS                              D000000000102200000000000000000000100010010000000000000000000000F0010000009106900520160909000101 00000000000000000000000000000000000000000000000000000000000000000000000000000000000000000000000000000000000000000N 00000000000NCONT   00    00000000000          00000000000000000000000000000000000000000000 000000000000000A000000000000000000000000000000000000000000000 000000000000000000000000000000000000000     00000000                                                                                                                        000000000000000000
F0010000009107000001000000748239700013050500000000000000000201609090002001RAFAEL NAVARRO URIBE                              D000000029361700000000000000000000100010010000000000000000000000F0010000009107000120160909000101 00000000000000000000000000000000000000000000000000000000000000000000000000000000000000000000000000000000000000000N 00000000000NCONT   00    00000000000          00000000000000000000000000000000000000000000 000000000000000A000000000000000000000000000000000000000000000 000000000000000000000000000000000000000     00000000                                                                                                                        000000000000000000
F0010000009107000002000000748239700041450500000000000000000201609090002001RAFAEL NAVARRO URIBE                              C000000020030000000000000000000000100010010000000000000000000000F0010000009107000220160909000101 00000000000000000000000000000000000000000000000000000000000000000000000000000000000000000000000000000000000000000N 00000000000NCONT   00    00000000000          00000000000000000000000000000000000000000000 000000000000000A000000000000000000000000000000000000000000000 000000000000000000000000000000000000000     00000000                                                                                                                        000000000000000000
F0010000009107000003000000748239700042505000000000000000000201609090002001RAFAEL NAVARRO URIBE                              C000000009331700000000000000000000100010010000000000000000000000F0010000009107000320160909000101 00000000000000000000000000000000000000000000000000000000000000000000000000000000000000000000000000000000000000000N 00000000000NCONT   00    00000000000          00000000000000000000000000000000000000000000 000000000000000A000000000000000000000000000000000000000000000 000000000000000000000000000000000000000     00000000                                                                                                                        000000000000000000
F0010000009107000004000000748239700023658300000000000000000201609090002001RAFAEL NAVARRO URIBE                              C000000000160200000000000000000000100010010000000000000000000000F0010000009107000420160909000101 00000000000000000000000000000000000000000000000000000000000000000000000000000000000000000000000000000000000000000N 00000000000NCONT   00    00000000000          00000000000000000000000000000000000000000000 000000000000000A000000000000000000000000000000000000000000000 000000000000000000000000000000000000000     00000000                                                                                                                        000000000000000000
F0010000009107000005000000748239700013552100000000000000000201609090002001RAFAEL NAVARRO URIBE                              D000000000160200000000000000000000100010010000000000000000000000F0010000009107000520160909000101 00000000000000000000000000000000000000000000000000000000000000000000000000000000000000000000000000000000000000000N 00000000000NCONT   00    00000000000          00000000000000000000000000000000000000000000 000000000000000A000000000000000000000000000000000000000000000 000000000000000000000000000000000000000     00000000                                                                                                                        000000000000000000
F0010000009107200001000086000490200013050500000000000000000201609090002001PROV. DE PAPELES ANDINA S.A.                      D000000019807600000000000000000000100010010000000000000000000000F0010000009107200120160909000101 00000000000000000000000000000000000000000000000000000000000000000000000000000000000000000000000000000000000000000N 00000000000NCONT   00    00000000000          00000000000000000000000000000000000000000000 000000000000000A000000000000000000000000000000000000000000000 000000000000000000000000000000000000000     00000000                                                                                                                        000000000000000000
F0010000009107200002000086000490200041450500000000000000000201609090002001PROV. DE PAPELES ANDINA S.A.                      C000000018142100000000000000000000100010010000000000000000000000F0010000009107200220160909000101 00000000000000000000000000000000000000000000000000000000000000000000000000000000000000000000000000000000000000000N 00000000000NCONT   00    00000000000          00000000000000000000000000000000000000000000 000000000000000A000000000000000000000000000000000000000000000 000000000000000000000000000000000000000     00000000                                                                                                                        000000000000000000
F0010000009107200003000086000490200042505000000000000000000201609090002001PROV. DE PAPELES ANDINA S.A.                      C000000001665500000000000000000000100010010000000000000000000000F0010000009107200320160909000101 00000000000000000000000000000000000000000000000000000000000000000000000000000000000000000000000000000000000000000N 00000000000NCONT   00    00000000000          00000000000000000000000000000000000000000000 000000000000000A000000000000000000000000000000000000000000000 000000000000000000000000000000000000000     00000000                                                                                                                        000000000000000000
F0010000009107200004000086000490200023658300000000000000000201609090002001PROV. DE PAPELES ANDINA S.A.                      C000000000145100000000000000000000100010010000000000000000000000F0010000009107200420160909000101 00000000000000000000000000000000000000000000000000000000000000000000000000000000000000000000000000000000000000000N 00000000000NCONT   00    00000000000          00000000000000000000000000000000000000000000 000000000000000A000000000000000000000000000000000000000000000 000000000000000000000000000000000000000     00000000                                                                                                                        000000000000000000
F0010000009107200005000086000490200013552100000000000000000201609090002001PROV. DE PAPELES ANDINA S.A.                      D000000000145100000000000000000000100010010000000000000000000000F0010000009107200520160909000101 00000000000000000000000000000000000000000000000000000000000000000000000000000000000000000000000000000000000000000N 00000000000NCONT   00    00000000000          00000000000000000000000000000000000000000000 000000000000000A000000000000000000000000000000000000000000000 000000000000000000000000000000000000000     00000000                                                                                                                        000000000000000000
F0010000009107300001000080202094000013050500000000000000000201609090002001DISTRIB. OMAR ORREGO S.A.                         D000000047799000000000000000000000100010010000000000000000000000F0010000009107300120160909000101 00000000000000000000000000000000000000000000000000000000000000000000000000000000000000000000000000000000000000000N 00000000000NCONT   00    00000000000          00000000000000000000000000000000000000000000 000000000000000A000000000000000000000000000000000000000000000 000000000000000000000000000000000000000     00000000                                                                                                                        000000000000000000
F0010000009107300002000080202094000041450500000000000000000201609090002001DISTRIB. OMAR ORREGO S.A.                         C000000032090000000000000000000000100010010000000000000000000000F0010000009107300220160909000101 00000000000000000000000000000000000000000000000000000000000000000000000000000000000000000000000000000000000000000N 00000000000NCONT   00    00000000000          00000000000000000000000000000000000000000000 000000000000000A000000000000000000000000000000000000000000000 000000000000000000000000000000000000000     00000000                                                                                                                        000000000000000000
F0010000009107300003000080202094000042505000000000000000000201609090002001DISTRIB. OMAR ORREGO S.A.                         C000000015709000000000000000000000100010010000000000000000000000F0010000009107300320160909000101 00000000000000000000000000000000000000000000000000000000000000000000000000000000000000000000000000000000000000000N 00000000000NCONT   00    00000000000          00000000000000000000000000000000000000000000 000000000000000A000000000000000000000000000000000000000000000 000000000000000000000000000000000000000     00000000                                                                                                                        000000000000000000
F0010000009107300004000080202094000023658300000000000000000201609090002001DISTRIB. OMAR ORREGO S.A.                         C000000000256700000000000000000000100010010000000000000000000000F0010000009107300420160909000101 00000000000000000000000000000000000000000000000000000000000000000000000000000000000000000000000000000000000000000N 00000000000NCONT   00    00000000000          00000000000000000000000000000000000000000000 000000000000000A000000000000000000000000000000000000000000000 000000000000000000000000000000000000000     00000000                                                                                                                        000000000000000000
F0010000009107300005000080202094000013552100000000000000000201609090002001DISTRIB. OMAR ORREGO S.A.                         D000000000256700000000000000000000100010010000000000000000000000F0010000009107300520160909000101 00000000000000000000000000000000000000000000000000000000000000000000000000000000000000000000000000000000000000000N 00000000000NCONT   00    00000000000          00000000000000000000000000000000000000000000 000000000000000A000000000000000000000000000000000000000000000 000000000000000000000000000000000000000     00000000                                                                                                                        000000000000000000
F0010000009107400001000089010260300013050500000000000000000201609090002001FEDERICO OSORIO A. S.A.                           D000000139519600000000000000000000100010010000000000000000000000F0010000009107400120160909000101 00000000000000000000000000000000000000000000000000000000000000000000000000000000000000000000000000000000000000000N 00000000000NCONT   00    00000000000          00000000000000000000000000000000000000000000 000000000000000A000000000000000000000000000000000000000000000 000000000000000000000000000000000000000     00000000                                                                                                                        000000000000000000
F0010000009107400002000089010260300041450500000000000000000201609090002001FEDERICO OSORIO A. S.A.                           C000000128190000000000000000000000100010010000000000000000000000F0010000009107400220160909000101 00000000000000000000000000000000000000000000000000000000000000000000000000000000000000000000000000000000000000000N 00000000000NCONT   00    00000000000          00000000000000000000000000000000000000000000 000000000000000A000000000000000000000000000000000000000000000 000000000000000000000000000000000000000     00000000                                                                                                                        000000000000000000
F0010000009107400003000089010260300042505000000000000000000201609090002001FEDERICO OSORIO A. S.A.                           C000000011329600000000000000000000100010010000000000000000000000F0010000009107400320160909000101 00000000000000000000000000000000000000000000000000000000000000000000000000000000000000000000000000000000000000000N 00000000000NCONT   00    00000000000          00000000000000000000000000000000000000000000 000000000000000A000000000000000000000000000000000000000000000 000000000000000000000000000000000000000     00000000                                                                                                                        000000000000000000
F0010000009107400004000089010260300023658300000000000000000201609090002001FEDERICO OSORIO A. S.A.                           C000000001025500000000000000000000100010010000000000000000000000F0010000009107400420160909000101 00000000000000000000000000000000000000000000000000000000000000000000000000000000000000000000000000000000000000000N 00000000000NCONT   00    00000000000          00000000000000000000000000000000000000000000 000000000000000A000000000000000000000000000000000000000000000 000000000000000000000000000000000000000     00000000                                                                                                                        000000000000000000
F0010000009107400005000089010260300013552100000000000000000201609090002001FEDERICO OSORIO A. S.A.                           D000000001025500000000000000000000100010010000000000000000000000F0010000009107400520160909000101 00000000000000000000000000000000000000000000000000000000000000000000000000000000000000000000000000000000000000000N 00000000000NCONT   00    00000000000          00000000000000000000000000000000000000000000 000000000000000A000000000000000000000000000000000000000000000 000000000000000000000000000000000000000     00000000                                                                                                                        000000000000000000
F0010000009107500001000089080176300013050500000000000000000201609090002001SEGAR S.A.                                        D000000122405900000000000000000000100010010000000000000000000000F0010000009107500120160909000101 00000000000000000000000000000000000000000000000000000000000000000000000000000000000000000000000000000000000000000N 00000000000NCONT   00    00000000000          00000000000000000000000000000000000000000000 000000000000000A000000000000000000000000000000000000000000000 000000000000000000000000000000000000000     00000000                                                                                                                        000000000000000000
F0010000009107500002000089080176300041450500000000000000000201609090002001SEGAR S.A.                                        C000000104990000000000000000000000100010010000000000000000000000F0010000009107500220160909000101 00000000000000000000000000000000000000000000000000000000000000000000000000000000000000000000000000000000000000000N 00000000000NCONT   00    00000000000          00000000000000000000000000000000000000000000 000000000000000A000000000000000000000000000000000000000000000 000000000000000000000000000000000000000     00000000                                                                                                                        000000000000000000
F0010000009107500003000089080176300042505000000000000000000201609090002001SEGAR S.A.                                        C000000017415900000000000000000000100010010000000000000000000000F0010000009107500320160909000101 00000000000000000000000000000000000000000000000000000000000000000000000000000000000000000000000000000000000000000N 00000000000NCONT   00    00000000000          00000000000000000000000000000000000000000000 000000000000000A000000000000000000000000000000000000000000000 000000000000000000000000000000000000000     00000000                                                                                                                        000000000000000000
F0010000009107500004000089080176300023658300000000000000000201609090002001SEGAR S.A.                                        C000000000839900000000000000000000100010010000000000000000000000F0010000009107500420160909000101 00000000000000000000000000000000000000000000000000000000000000000000000000000000000000000000000000000000000000000N 00000000000NCONT   00    00000000000          00000000000000000000000000000000000000000000 000000000000000A000000000000000000000000000000000000000000000 000000000000000000000000000000000000000     00000000                                                                                                                        000000000000000000
F0010000009107500005000089080176300013552100000000000000000201609090002001SEGAR S.A.                                        D000000000839900000000000000000000100010010000000000000000000000F0010000009107500520160909000101 00000000000000000000000000000000000000000000000000000000000000000000000000000000000000000000000000000000000000000N 00000000000NCONT   00    00000000000          00000000000000000000000000000000000000000000 000000000000000A000000000000000000000000000000000000000000000 000000000000000000000000000000000000000     00000000                                                                                                                        000000000000000000
F0010000009107600001000089011492400013050500000000000000000201609090002001AGE. CAUCHO SOL DE LA COSTA  SAS                  D000000133363700000000000000000000100010010000000000000000000000F0010000009107600120160909000101 00000000000000000000000000000000000000000000000000000000000000000000000000000000000000000000000000000000000000000N 00000000000NCONT   00    00000000000          00000000000000000000000000000000000000000000 000000000000000A000000000000000000000000000000000000000000000 000000000000000000000000000000000000000     00000000                                                                                                                        000000000000000000
F0010000009107600002000089011492400041450500000000000000000201609090002001AGE. CAUCHO SOL DE LA COSTA  SAS                  C000000070210000000000000000000000100010010000000000000000000000F0010000009107600220160909000101 00000000000000000000000000000000000000000000000000000000000000000000000000000000000000000000000000000000000000000N 00000000000NCONT   00    00000000000          00000000000000000000000000000000000000000000 000000000000000A000000000000000000000000000000000000000000000 000000000000000000000000000000000000000     00000000                                                                                                                        000000000000000000
F0010000009107600003000089011492400042505000000000000000000201609090002001AGE. CAUCHO SOL DE LA COSTA  SAS                  C000000063153700000000000000000000100010010000000000000000000000F0010000009107600320160909000101 00000000000000000000000000000000000000000000000000000000000000000000000000000000000000000000000000000000000000000N 00000000000NCONT   00    00000000000          00000000000000000000000000000000000000000000 000000000000000A000000000000000000000000000000000000000000000 000000000000000000000000000000000000000     00000000                                                                                                                        000000000000000000
F0010000009107600004000089011492400023658300000000000000000201609090002001AGE. CAUCHO SOL DE LA COSTA  SAS                  C000000000561700000000000000000000100010010000000000000000000000F0010000009107600420160909000101 00000000000000000000000000000000000000000000000000000000000000000000000000000000000000000000000000000000000000000N 00000000000NCONT   00    00000000000          00000000000000000000000000000000000000000000 000000000000000A000000000000000000000000000000000000000000000 000000000000000000000000000000000000000     00000000                                                                                                                        000000000000000000
F0010000009107600005000089011492400013552100000000000000000201609090002001AGE. CAUCHO SOL DE LA COSTA  SAS                  D000000000561700000000000000000000100010010000000000000000000000F0010000009107600520160909000101 00000000000000000000000000000000000000000000000000000000000000000000000000000000000000000000000000000000000000000N 00000000000NCONT   00    00000000000          00000000000000000000000000000000000000000000 000000000000000A000000000000000000000000000000000000000000000 000000000000000000000000000000000000000     00000000                                                                                                                        000000000000000000
F0010000009107700001000080200863700013050500000000000000000201609090002001COPIN S.A.S                                       D000000047568300000000000000000000100010010000000000000000000000F0010000009107700120160909000101 00000000000000000000000000000000000000000000000000000000000000000000000000000000000000000000000000000000000000000N 00000000000NCONT   00    00000000000          00000000000000000000000000000000000000000000 000000000000000A000000000000000000000000000000000000000000000 000000000000000000000000000000000000000     00000000                                                                                                                        000000000000000000
F0010000009107700002000080200863700041450500000000000000000201609090002001COPIN S.A.S                                       C000000042768000000000000000000000100010010000000000000000000000F0010000009107700220160909000101 00000000000000000000000000000000000000000000000000000000000000000000000000000000000000000000000000000000000000000N 00000000000NCONT   00    00000000000          00000000000000000000000000000000000000000000 000000000000000A000000000000000000000000000000000000000000000 000000000000000000000000000000000000000     00000000                                                                                                                        000000000000000000
F0010000009107700003000080200863700042505000000000000000000201609090002001COPIN S.A.S                                       C000000004800300000000000000000000100010010000000000000000000000F0010000009107700320160909000101 00000000000000000000000000000000000000000000000000000000000000000000000000000000000000000000000000000000000000000N 00000000000NCONT   00    00000000000          00000000000000000000000000000000000000000000 000000000000000A000000000000000000000000000000000000000000000 000000000000000000000000000000000000000     00000000                                                                                                                        000000000000000000
F0010000009107700004000080200863700023658300000000000000000201609090002001COPIN S.A.S                                       C000000000342100000000000000000000100010010000000000000000000000F0010000009107700420160909000101 00000000000000000000000000000000000000000000000000000000000000000000000000000000000000000000000000000000000000000N 00000000000NCONT   00    00000000000          00000000000000000000000000000000000000000000 000000000000000A000000000000000000000000000000000000000000000 000000000000000000000000000000000000000     00000000                                                                                                                        000000000000000000
F0010000009107700005000080200863700013552100000000000000000201609090002001COPIN S.A.S                                       D000000000342100000000000000000000100010010000000000000000000000F0010000009107700520160909000101 00000000000000000000000000000000000000000000000000000000000000000000000000000000000000000000000000000000000000000N 00000000000NCONT   00    00000000000          00000000000000000000000000000000000000000000 000000000000000A000000000000000000000000000000000000000000000 000000000000000000000000000000000000000     00000000                                                                                                                        000000000000000000
F0010000009107800001000090051494400011050500000000000000000201609090002001MUNDINOX SAS                                      D000000001200000000000000000000000100010010000000000000000000000F0010000009107800120160909000101 00000000000000000000000000000000000000000000000000000000000000000000000000000000000000000000000000000000000000000N 00000000000NCONT   00    00000000000          00000000000000000000000000000000000000000000 000000000000000A000000000000000000000000000000000000000000000 000000000000000000000000000000000000000     00000000                                                                                                                        000000000000000000
F0010000009107800002000090051494400041450500000000000000000201609090002001MUNDINOX SAS                                      C000000001100000000000000000000000100010010000000000000000000000F0010000009107800220160909000101 00000000000000000000000000000000000000000000000000000000000000000000000000000000000000000000000000000000000000000N 00000000000NCONT   00    00000000000          00000000000000000000000000000000000000000000 000000000000000A000000000000000000000000000000000000000000000 000000000000000000000000000000000000000     00000000                                                                                                                        000000000000000000
F0010000009107800003000090051494400042505000000000000000000201609090002001MUNDINOX SAS                                      C000000000100000000000000000000000100010010000000000000000000000F0010000009107800320160909000101 00000000000000000000000000000000000000000000000000000000000000000000000000000000000000000000000000000000000000000N 00000000000NCONT   00    00000000000          00000000000000000000000000000000000000000000 000000000000000A000000000000000000000000000000000000000000000 000000000000000000000000000000000000000     00000000                                                                                                                        000000000000000000
F0010000009107800004000090051494400023658300000000000000000201609090002001MUNDINOX SAS                                      C000000000008800000000000000000000100010010000000000000000000000F0010000009107800420160909000101 00000000000000000000000000000000000000000000000000000000000000000000000000000000000000000000000000000000000000000N 00000000000NCONT   00    00000000000          00000000000000000000000000000000000000000000 000000000000000A000000000000000000000000000000000000000000000 000000000000000000000000000000000000000     00000000                                                                                                                        000000000000000000
F0010000009107800005000090051494400013552100000000000000000201609090002001MUNDINOX SAS                                      D000000000008800000000000000000000100010010000000000000000000000F0010000009107800520160909000101 00000000000000000000000000000000000000000000000000000000000000000000000000000000000000000000000000000000000000000N 00000000000NCONT   00    00000000000          00000000000000000000000000000000000000000000 000000000000000A000000000000000000000000000000000000000000000 000000000000000000000000000000000000000     00000000                                                                                                                        000000000000000000
F0010000009107900001000007213133300011050500000000000000000201609090002001ALVARO ALBERTO FANDIÑO GOMEZ                     D000000001100000000000000000000000100010010000000000000000000000F0010000009107900120160909000101 00000000000000000000000000000000000000000000000000000000000000000000000000000000000000000000000000000000000000000N 00000000000NCONT   00    00000000000          00000000000000000000000000000000000000000000 000000000000000A000000000000000000000000000000000000000000000 000000000000000000000000000000000000000     00000000                                                                                                                        000000000000000000
F0010000009107900002000007213133300041450500000000000000000201609090002001ALVARO ALBERTO FANDIÑO GOMEZ                     C000000001000000000000000000000000100010010000000000000000000000F0010000009107900220160909000101 00000000000000000000000000000000000000000000000000000000000000000000000000000000000000000000000000000000000000000N 00000000000NCONT   00    00000000000          00000000000000000000000000000000000000000000 000000000000000A000000000000000000000000000000000000000000000 000000000000000000000000000000000000000     00000000                                                                                                                        000000000000000000
F0010000009107900003000007213133300042505000000000000000000201609090002001ALVARO ALBERTO FANDIÑO GOMEZ                     C000000000100000000000000000000000100010010000000000000000000000F0010000009107900320160909000101 00000000000000000000000000000000000000000000000000000000000000000000000000000000000000000000000000000000000000000N 00000000000NCONT   00    00000000000          00000000000000000000000000000000000000000000 000000000000000A000000000000000000000000000000000000000000000 000000000000000000000000000000000000000     00000000                                                                                                                        000000000000000000
F0010000009107900004000007213133300023658300000000000000000201609090002001ALVARO ALBERTO FANDIÑO GOMEZ                     C000000000008000000000000000000000100010010000000000000000000000F0010000009107900420160909000101 00000000000000000000000000000000000000000000000000000000000000000000000000000000000000000000000000000000000000000N 00000000000NCONT   00    00000000000          00000000000000000000000000000000000000000000 000000000000000A000000000000000000000000000000000000000000000 000000000000000000000000000000000000000     00000000                                                                                                                        000000000000000000
F0010000009107900005000007213133300013552100000000000000000201609090002001ALVARO ALBERTO FANDIÑO GOMEZ                     D000000000008000000000000000000000100010010000000000000000000000F0010000009107900520160909000101 00000000000000000000000000000000000000000000000000000000000000000000000000000000000000000000000000000000000000000N 00000000000NCONT   00    00000000000          00000000000000000000000000000000000000000000 000000000000000A000000000000000000000000000000000000000000000 000000000000000000000000000000000000000     00000000                                                                                                                        000000000000000000
F0010000009108000001000000856527900011050500000000000000000201609090002001CESAR MIER BUELVAS                                D000000001100000000000000000000000100010010000000000000000000000F0010000009108000120160909000101 00000000000000000000000000000000000000000000000000000000000000000000000000000000000000000000000000000000000000000N 00000000000NCONT   00    00000000000          00000000000000000000000000000000000000000000 000000000000000A000000000000000000000000000000000000000000000 000000000000000000000000000000000000000     00000000                                                                                                                        000000000000000000
F0010000009108000002000000856527900041450500000000000000000201609090002001CESAR MIER BUELVAS                                C000000001000000000000000000000000100010010000000000000000000000F0010000009108000220160909000101 00000000000000000000000000000000000000000000000000000000000000000000000000000000000000000000000000000000000000000N 00000000000NCONT   00    00000000000          00000000000000000000000000000000000000000000 000000000000000A000000000000000000000000000000000000000000000 000000000000000000000000000000000000000     00000000                                                                                                                        000000000000000000
F0010000009108000003000000856527900042505000000000000000000201609090002001CESAR MIER BUELVAS                                C000000000100000000000000000000000100010010000000000000000000000F0010000009108000320160909000101 00000000000000000000000000000000000000000000000000000000000000000000000000000000000000000000000000000000000000000N 00000000000NCONT   00    00000000000          00000000000000000000000000000000000000000000 000000000000000A000000000000000000000000000000000000000000000 000000000000000000000000000000000000000     00000000                                                                                                                        000000000000000000
F0010000009108000004000000856527900023658300000000000000000201609090002001CESAR MIER BUELVAS                                C000000000008000000000000000000000100010010000000000000000000000F0010000009108000420160909000101 00000000000000000000000000000000000000000000000000000000000000000000000000000000000000000000000000000000000000000N 00000000000NCONT   00    00000000000          00000000000000000000000000000000000000000000 000000000000000A000000000000000000000000000000000000000000000 000000000000000000000000000000000000000     00000000                                                                                                                        000000000000000000
F0010000009108000005000000856527900013552100000000000000000201609090002001CESAR MIER BUELVAS                                D000000000008000000000000000000000100010010000000000000000000000F0010000009108000520160909000101 00000000000000000000000000000000000000000000000000000000000000000000000000000000000000000000000000000000000000000N 00000000000NCONT   00    00000000000          00000000000000000000000000000000000000000000 000000000000000A000000000000000000000000000000000000000000000 000000000000000000000000000000000000000     00000000                                                                                                                        000000000000000000
F0010000009108100001000102390001700011050500000000000000000201609090002001LILIANA HERNANDEZ PINILLA                         D000000009500000000000000000000000100010010000000000000000000000F0010000009108100120160909000101 00000000000000000000000000000000000000000000000000000000000000000000000000000000000000000000000000000000000000000N 00000000000NCONT   00    00000000000          00000000000000000000000000000000000000000000 000000000000000A000000000000000000000000000000000000000000000 000000000000000000000000000000000000000     00000000                                                                                                                        000000000000000000
F0010000009108100002000102390001700041450500000000000000000201609090002001LILIANA HERNANDEZ PINILLA                         C000000007000000000000000000000000100010010000000000000000000000F0010000009108100220160909000101 00000000000000000000000000000000000000000000000000000000000000000000000000000000000000000000000000000000000000000N 00000000000NCONT   00    00000000000          00000000000000000000000000000000000000000000 000000000000000A000000000000000000000000000000000000000000000 000000000000000000000000000000000000000     00000000                                                                                                                        000000000000000000
F0010000009108100003000102390001700042505000000000000000000201609090002001LILIANA HERNANDEZ PINILLA                         C000000002500000000000000000000000100010010000000000000000000000F0010000009108100320160909000101 00000000000000000000000000000000000000000000000000000000000000000000000000000000000000000000000000000000000000000N 00000000000NCONT   00    00000000000          00000000000000000000000000000000000000000000 000000000000000A000000000000000000000000000000000000000000000 000000000000000000000000000000000000000     00000000                                                                                                                        000000000000000000
F0010000009108100004000102390001700023658300000000000000000201609090002001LILIANA HERNANDEZ PINILLA                         C000000000056000000000000000000000100010010000000000000000000000F0010000009108100420160909000101 00000000000000000000000000000000000000000000000000000000000000000000000000000000000000000000000000000000000000000N 00000000000NCONT   00    00000000000          00000000000000000000000000000000000000000000 000000000000000A000000000000000000000000000000000000000000000 000000000000000000000000000000000000000     00000000                                                                                                                        000000000000000000
F0010000009108100005000102390001700013552100000000000000000201609090002001LILIANA HERNANDEZ PINILLA                         D000000000056000000000000000000000100010010000000000000000000000F0010000009108100520160909000101 00000000000000000000000000000000000000000000000000000000000000000000000000000000000000000000000000000000000000000N 00000000000NCONT   00    00000000000          00000000000000000000000000000000000000000000 000000000000000A000000000000000000000000000000000000000000000 000000000000000000000000000000000000000     00000000                                                                                                                        000000000000000000
F0010000009108200001000080202350700011050500000000000000000201609090002001CONNY DE LA COSTA SAS                             D000000000900000000000000000000000100010010000000000000000000000F0010000009108200120160909000101 00000000000000000000000000000000000000000000000000000000000000000000000000000000000000000000000000000000000000000N 00000000000NCONT   00    00000000000          00000000000000000000000000000000000000000000 000000000000000A000000000000000000000000000000000000000000000 000000000000000000000000000000000000000     00000000                                                                                                                        000000000000000000
F0010000009108200002000080202350700041450500000000000000000201609090002001CONNY DE LA COSTA SAS                             C000000000850000000000000000000000100010010000000000000000000000F0010000009108200220160909000101 00000000000000000000000000000000000000000000000000000000000000000000000000000000000000000000000000000000000000000N 00000000000NCONT   00    00000000000          00000000000000000000000000000000000000000000 000000000000000A000000000000000000000000000000000000000000000 000000000000000000000000000000000000000     00000000                                                                                                                        000000000000000000
F0010000009108200003000080202350700042505000000000000000000201609090002001CONNY DE LA COSTA SAS                             C000000000050000000000000000000000100010010000000000000000000000F0010000009108200320160909000101 00000000000000000000000000000000000000000000000000000000000000000000000000000000000000000000000000000000000000000N 00000000000NCONT   00    00000000000          00000000000000000000000000000000000000000000 000000000000000A000000000000000000000000000000000000000000000 000000000000000000000000000000000000000     00000000                                                                                                                        000000000000000000
F0010000009108200004000080202350700023658300000000000000000201609090002001CONNY DE LA COSTA SAS                             C000000000006800000000000000000000100010010000000000000000000000F0010000009108200420160909000101 00000000000000000000000000000000000000000000000000000000000000000000000000000000000000000000000000000000000000000N 00000000000NCONT   00    00000000000          00000000000000000000000000000000000000000000 000000000000000A000000000000000000000000000000000000000000000 000000000000000000000000000000000000000     00000000                                                                                                                        000000000000000000
F0010000009108200005000080202350700013552100000000000000000201609090002001CONNY DE LA COSTA SAS                             D000000000006800000000000000000000100010010000000000000000000000F0010000009108200520160909000101 00000000000000000000000000000000000000000000000000000000000000000000000000000000000000000000000000000000000000000N 00000000000NCONT   00    00000000000          00000000000000000000000000000000000000000000 000000000000000A000000000000000000000000000000000000000000000 000000000000000000000000000000000000000     00000000                                                                                                                        000000000000000000
F0010000009108300001000003263562600011050500000000000000000201609090002001LOCAL 50 - MERCEDES ARAGUREN DE CHADID (MANUEL CHAD000000002400000000000000000000000100010010000000000000000000000F0010000009108300120160909000101 00000000000000000000000000000000000000000000000000000000000000000000000000000000000000000000000000000000000000000N 00000000000NCONT   00    00000000000          00000000000000000000000000000000000000000000 000000000000000A000000000000000000000000000000000000000000000 000000000000000000000000000000000000000     00000000                                                                                                                        000000000000000000
F0010000009108300002000003263562600041450500000000000000000201609090002001LOCAL 50 - MERCEDES ARAGUREN DE CHADID (MANUEL CHAC000000002000000000000000000000000100010010000000000000000000000F0010000009108300220160909000101 00000000000000000000000000000000000000000000000000000000000000000000000000000000000000000000000000000000000000000N 00000000000NCONT   00    00000000000          00000000000000000000000000000000000000000000 000000000000000A000000000000000000000000000000000000000000000 000000000000000000000000000000000000000     00000000                                                                                                                        000000000000000000
F0010000009108300003000003263562600042505000000000000000000201609090002001LOCAL 50 - MERCEDES ARAGUREN DE CHADID (MANUEL CHAC000000000400000000000000000000000100010010000000000000000000000F0010000009108300320160909000101 00000000000000000000000000000000000000000000000000000000000000000000000000000000000000000000000000000000000000000N 00000000000NCONT   00    00000000000          00000000000000000000000000000000000000000000 000000000000000A000000000000000000000000000000000000000000000 000000000000000000000000000000000000000     00000000                                                                                                                        000000000000000000
F0010000009108300004000003263562600023658300000000000000000201609090002001LOCAL 50 - MERCEDES ARAGUREN DE CHADID (MANUEL CHAC000000000016000000000000000000000100010010000000000000000000000F0010000009108300420160909000101 00000000000000000000000000000000000000000000000000000000000000000000000000000000000000000000000000000000000000000N 00000000000NCONT   00    00000000000          00000000000000000000000000000000000000000000 000000000000000A000000000000000000000000000000000000000000000 000000000000000000000000000000000000000     00000000                                                                                                                        000000000000000000
F0010000009108300005000003263562600013552100000000000000000201609090002001LOCAL 50 - MERCEDES ARAGUREN DE CHADID (MANUEL CHAD000000000016000000000000000000000100010010000000000000000000000F0010000009108300520160909000101 00000000000000000000000000000000000000000000000000000000000000000000000000000000000000000000000000000000000000000N 00000000000NCONT   00    00000000000          00000000000000000000000000000000000000000000 000000000000000A000000000000000000000000000000000000000000000 000000000000000000000000000000000000000     00000000                                                                                                                        000000000000000000
F0010000009108400001000086003979400011050500000000000000000201609090002001CALYPSO BARRANQUILLA LTDA                         D000000001820000000000000000000000100010010000000000000000000000F0010000009108400120160909000101 00000000000000000000000000000000000000000000000000000000000000000000000000000000000000000000000000000000000000000N 00000000000NCONT   00    00000000000          00000000000000000000000000000000000000000000 000000000000000A000000000000000000000000000000000000000000000 000000000000000000000000000000000000000     00000000                                                                                                                        000000000000000000
F0010000009108400002000086003979400041450500000000000000000201609090002001CALYPSO BARRANQUILLA LTDA                         C000000001320000000000000000000000100010010000000000000000000000F0010000009108400220160909000101 00000000000000000000000000000000000000000000000000000000000000000000000000000000000000000000000000000000000000000N 00000000000NCONT   00    00000000000          00000000000000000000000000000000000000000000 000000000000000A000000000000000000000000000000000000000000000 000000000000000000000000000000000000000     00000000                                                                                                                        000000000000000000
F0010000009108400003000086003979400042505000000000000000000201609090002001CALYPSO BARRANQUILLA LTDA                         C000000000500000000000000000000000100010010000000000000000000000F0010000009108400320160909000101 00000000000000000000000000000000000000000000000000000000000000000000000000000000000000000000000000000000000000000N 00000000000NCONT   00    00000000000          00000000000000000000000000000000000000000000 000000000000000A000000000000000000000000000000000000000000000 000000000000000000000000000000000000000     00000000                                                                                                                        000000000000000000
F0010000009108400004000086003979400023658300000000000000000201609090002001CALYPSO BARRANQUILLA LTDA                         C000000000010600000000000000000000100010010000000000000000000000F0010000009108400420160909000101 00000000000000000000000000000000000000000000000000000000000000000000000000000000000000000000000000000000000000000N 00000000000NCONT   00    00000000000          00000000000000000000000000000000000000000000 000000000000000A000000000000000000000000000000000000000000000 000000000000000000000000000000000000000     00000000                                                                                                                        000000000000000000
F0010000009108400005000086003979400013552100000000000000000201609090002001CALYPSO BARRANQUILLA LTDA                         D000000000010600000000000000000000100010010000000000000000000000F0010000009108400520160909000101 00000000000000000000000000000000000000000000000000000000000000000000000000000000000000000000000000000000000000000N 00000000000NCONT   00    00000000000          00000000000000000000000000000000000000000000 000000000000000A000000000000000000000000000000000000000000000 000000000000000000000000000000000000000     00000000                                                                                                                        000000000000000000
F0010000009108500001000090034602400011050500000000000000000201609090002001PRODUCTOS NACIONALES PARAFINICOS LA CUSTODIA S.A.SD000000002100000000000000000000000100010010000000000000000000000F0010000009108500120160909000101 00000000000000000000000000000000000000000000000000000000000000000000000000000000000000000000000000000000000000000N 00000000000NCONT   00    00000000000          00000000000000000000000000000000000000000000 000000000000000A000000000000000000000000000000000000000000000 000000000000000000000000000000000000000     00000000                                                                                                                        000000000000000000
F0010000009108500002000090034602400041450500000000000000000201609090002001PRODUCTOS NACIONALES PARAFINICOS LA CUSTODIA S.A.SC000000001900000000000000000000000100010010000000000000000000000F0010000009108500220160909000101 00000000000000000000000000000000000000000000000000000000000000000000000000000000000000000000000000000000000000000N 00000000000NCONT   00    00000000000          00000000000000000000000000000000000000000000 000000000000000A000000000000000000000000000000000000000000000 000000000000000000000000000000000000000     00000000                                                                                                                        000000000000000000
F0010000009108500003000090034602400042505000000000000000000201609090002001PRODUCTOS NACIONALES PARAFINICOS LA CUSTODIA S.A.SC000000000200000000000000000000000100010010000000000000000000000F0010000009108500320160909000101 00000000000000000000000000000000000000000000000000000000000000000000000000000000000000000000000000000000000000000N 00000000000NCONT   00    00000000000          00000000000000000000000000000000000000000000 000000000000000A000000000000000000000000000000000000000000000 000000000000000000000000000000000000000     00000000                                                                                                                        000000000000000000
F0010000009108500004000090034602400023658300000000000000000201609090002001PRODUCTOS NACIONALES PARAFINICOS LA CUSTODIA S.A.SC000000000015200000000000000000000100010010000000000000000000000F0010000009108500420160909000101 00000000000000000000000000000000000000000000000000000000000000000000000000000000000000000000000000000000000000000N 00000000000NCONT   00    00000000000          00000000000000000000000000000000000000000000 000000000000000A000000000000000000000000000000000000000000000 000000000000000000000000000000000000000     00000000                                                                                                                        000000000000000000
F0010000009108500005000090034602400013552100000000000000000201609090002001PRODUCTOS NACIONALES PARAFINICOS LA CUSTODIA S.A.SD000000000015200000000000000000000100010010000000000000000000000F0010000009108500520160909000101 00000000000000000000000000000000000000000000000000000000000000000000000000000000000000000000000000000000000000000N 00000000000NCONT   00    00000000000          00000000000000000000000000000000000000000000 000000000000000A000000000000000000000000000000000000000000000 000000000000000000000000000000000000000     00000000                                                                                                                        000000000000000000
F0010000009108600001000090034602400011050500000000000000000201609090002001PRODUCTOS NACIONALES PARAFINICOS LA CUSTODIA S.A.SD000000002100000000000000000000000100010010000000000000000000000F0010000009108600120160909000101 00000000000000000000000000000000000000000000000000000000000000000000000000000000000000000000000000000000000000000N 00000000000NCONT   00    00000000000          00000000000000000000000000000000000000000000 000000000000000A000000000000000000000000000000000000000000000 000000000000000000000000000000000000000     00000000                                                                                                                        000000000000000000
F0010000009108600002000090034602400041450500000000000000000201609090002001PRODUCTOS NACIONALES PARAFINICOS LA CUSTODIA S.A.SC000000001900000000000000000000000100010010000000000000000000000F0010000009108600220160909000101 00000000000000000000000000000000000000000000000000000000000000000000000000000000000000000000000000000000000000000N 00000000000NCONT   00    00000000000          00000000000000000000000000000000000000000000 000000000000000A000000000000000000000000000000000000000000000 000000000000000000000000000000000000000     00000000                                                                                                                        000000000000000000
F0010000009108600003000090034602400042505000000000000000000201609090002001PRODUCTOS NACIONALES PARAFINICOS LA CUSTODIA S.A.SC000000000200000000000000000000000100010010000000000000000000000F0010000009108600320160909000101 00000000000000000000000000000000000000000000000000000000000000000000000000000000000000000000000000000000000000000N 00000000000NCONT   00    00000000000          00000000000000000000000000000000000000000000 000000000000000A000000000000000000000000000000000000000000000 000000000000000000000000000000000000000     00000000                                                                                                                        000000000000000000
F0010000009108600004000090034602400023658300000000000000000201609090002001PRODUCTOS NACIONALES PARAFINICOS LA CUSTODIA S.A.SC000000000015200000000000000000000100010010000000000000000000000F0010000009108600420160909000101 00000000000000000000000000000000000000000000000000000000000000000000000000000000000000000000000000000000000000000N 00000000000NCONT   00    00000000000          00000000000000000000000000000000000000000000 000000000000000A000000000000000000000000000000000000000000000 000000000000000000000000000000000000000     00000000                                                                                                                        000000000000000000
F0010000009108600005000090034602400013552100000000000000000201609090002001PRODUCTOS NACIONALES PARAFINICOS LA CUSTODIA S.A.SD000000000015200000000000000000000100010010000000000000000000000F0010000009108600520160909000101 00000000000000000000000000000000000000000000000000000000000000000000000000000000000000000000000000000000000000000N 00000000000NCONT   00    00000000000          00000000000000000000000000000000000000000000 000000000000000A000000000000000000000000000000000000000000000 000000000000000000000000000000000000000     00000000                                                                                                                        000000000000000000
F0010000009108700001000090034602400011050500000000000000000201609090002001PRODUCTOS NACIONALES PARAFINICOS LA CUSTODIA S.A.SD000000003150000000000000000000000100010010000000000000000000000F0010000009108700120160909000101 00000000000000000000000000000000000000000000000000000000000000000000000000000000000000000000000000000000000000000N 00000000000NCONT   00    00000000000          00000000000000000000000000000000000000000000 000000000000000A000000000000000000000000000000000000000000000 000000000000000000000000000000000000000     00000000                                                                                                                        000000000000000000
F0010000009108700002000090034602400041450500000000000000000201609090002001PRODUCTOS NACIONALES PARAFINICOS LA CUSTODIA S.A.SC000000002850000000000000000000000100010010000000000000000000000F0010000009108700220160909000101 00000000000000000000000000000000000000000000000000000000000000000000000000000000000000000000000000000000000000000N 00000000000NCONT   00    00000000000          00000000000000000000000000000000000000000000 000000000000000A000000000000000000000000000000000000000000000 000000000000000000000000000000000000000     00000000                                                                                                                        000000000000000000
F0010000009108700003000090034602400042505000000000000000000201609090002001PRODUCTOS NACIONALES PARAFINICOS LA CUSTODIA S.A.SC000000000300000000000000000000000100010010000000000000000000000F0010000009108700320160909000101 00000000000000000000000000000000000000000000000000000000000000000000000000000000000000000000000000000000000000000N 00000000000NCONT   00    00000000000          00000000000000000000000000000000000000000000 000000000000000A000000000000000000000000000000000000000000000 000000000000000000000000000000000000000     00000000                                                                                                                        000000000000000000
F0010000009108700004000090034602400023658300000000000000000201609090002001PRODUCTOS NACIONALES PARAFINICOS LA CUSTODIA S.A.SC000000000022800000000000000000000100010010000000000000000000000F0010000009108700420160909000101 00000000000000000000000000000000000000000000000000000000000000000000000000000000000000000000000000000000000000000N 00000000000NCONT   00    00000000000          00000000000000000000000000000000000000000000 000000000000000A000000000000000000000000000000000000000000000 000000000000000000000000000000000000000     00000000                                                                                                                        000000000000000000
F0010000009108700005000090034602400013552100000000000000000201609090002001PRODUCTOS NACIONALES PARAFINICOS LA CUSTODIA S.A.SD000000000022800000000000000000000100010010000000000000000000000F0010000009108700520160909000101 00000000000000000000000000000000000000000000000000000000000000000000000000000000000000000000000000000000000000000N 00000000000NCONT   00    00000000000          00000000000000000000000000000000000000000000 000000000000000A000000000000000000000000000000000000000000000 000000000000000000000000000000000000000     00000000                                                                                                                        000000000000000000
F0010000009108800001000001535146600011050500000000000000000201609090002001ORLANDO OROZCO NAVARRO                            D000000001000000000000000000000000100010010000000000000000000000F0010000009108800120160909000101 00000000000000000000000000000000000000000000000000000000000000000000000000000000000000000000000000000000000000000N 00000000000NCONT   00    00000000000          00000000000000000000000000000000000000000000 000000000000000A000000000000000000000000000000000000000000000 000000000000000000000000000000000000000     00000000                                                                                                                        000000000000000000
F0010000009108800002000001535146600041450500000000000000000201609090002001ORLANDO OROZCO NAVARRO                            C000000000900000000000000000000000100010010000000000000000000000F0010000009108800220160909000101 00000000000000000000000000000000000000000000000000000000000000000000000000000000000000000000000000000000000000000N 00000000000NCONT   00    00000000000          00000000000000000000000000000000000000000000 000000000000000A000000000000000000000000000000000000000000000 000000000000000000000000000000000000000     00000000                                                                                                                        000000000000000000
F0010000009108800003000001535146600042505000000000000000000201609090002001ORLANDO OROZCO NAVARRO                            C000000000100000000000000000000000100010010000000000000000000000F0010000009108800320160909000101 00000000000000000000000000000000000000000000000000000000000000000000000000000000000000000000000000000000000000000N 00000000000NCONT   00    00000000000          00000000000000000000000000000000000000000000 000000000000000A000000000000000000000000000000000000000000000 000000000000000000000000000000000000000     00000000                                                                                                                        000000000000000000
F0010000009108800004000001535146600023658300000000000000000201609090002001ORLANDO OROZCO NAVARRO                            C000000000007200000000000000000000100010010000000000000000000000F0010000009108800420160909000101 00000000000000000000000000000000000000000000000000000000000000000000000000000000000000000000000000000000000000000N 00000000000NCONT   00    00000000000          00000000000000000000000000000000000000000000 000000000000000A000000000000000000000000000000000000000000000 000000000000000000000000000000000000000     00000000                                                                                                                        000000000000000000
F0010000009108800005000001535146600013552100000000000000000201609090002001ORLANDO OROZCO NAVARRO                            D000000000007200000000000000000000100010010000000000000000000000F0010000009108800520160909000101 00000000000000000000000000000000000000000000000000000000000000000000000000000000000000000000000000000000000000000N 00000000000NCONT   00    00000000000          00000000000000000000000000000000000000000000 000000000000000A000000000000000000000000000000000000000000000 000000000000000000000000000000000000000     00000000                                                                                                                        000000000000000000
F0010000009108900001000001535146600011050500000000000000000201609090002001ORLANDO OROZCO NAVARRO                            D000000002000000000000000000000000100010010000000000000000000000F0010000009108900120160909000101 00000000000000000000000000000000000000000000000000000000000000000000000000000000000000000000000000000000000000000N 00000000000NCONT   00    00000000000          00000000000000000000000000000000000000000000 000000000000000A000000000000000000000000000000000000000000000 000000000000000000000000000000000000000     00000000                                                                                                                        000000000000000000
F0010000009108900002000001535146600041450500000000000000000201609090002001ORLANDO OROZCO NAVARRO                            C000000001800000000000000000000000100010010000000000000000000000F0010000009108900220160909000101 00000000000000000000000000000000000000000000000000000000000000000000000000000000000000000000000000000000000000000N 00000000000NCONT   00    00000000000          00000000000000000000000000000000000000000000 000000000000000A000000000000000000000000000000000000000000000 000000000000000000000000000000000000000     00000000                                                                                                                        000000000000000000
F0010000009108900003000001535146600042505000000000000000000201609090002001ORLANDO OROZCO NAVARRO                            C000000000200000000000000000000000100010010000000000000000000000F0010000009108900320160909000101 00000000000000000000000000000000000000000000000000000000000000000000000000000000000000000000000000000000000000000N 00000000000NCONT   00    00000000000          00000000000000000000000000000000000000000000 000000000000000A000000000000000000000000000000000000000000000 000000000000000000000000000000000000000     00000000                                                                                                                        000000000000000000
F0010000009108900004000001535146600023658300000000000000000201609090002001ORLANDO OROZCO NAVARRO                            C000000000014400000000000000000000100010010000000000000000000000F0010000009108900420160909000101 00000000000000000000000000000000000000000000000000000000000000000000000000000000000000000000000000000000000000000N 00000000000NCONT   00    00000000000          00000000000000000000000000000000000000000000 000000000000000A000000000000000000000000000000000000000000000 000000000000000000000000000000000000000     00000000                                                                                                                        000000000000000000
F0010000009108900005000001535146600013552100000000000000000201609090002001ORLANDO OROZCO NAVARRO                            D000000000014400000000000000000000100010010000000000000000000000F0010000009108900520160909000101 00000000000000000000000000000000000000000000000000000000000000000000000000000000000000000000000000000000000000000N 00000000000NCONT   00    00000000000          00000000000000000000000000000000000000000000 000000000000000A000000000000000000000000000000000000000000000 000000000000000000000000000000000000000     00000000                                                                                                                        000000000000000000
F0010000009109000001000090050144800011050500000000000000000201609090002001PLASTICOS JR ASOCIADOS SAS                        D000000002100000000000000000000000100010010000000000000000000000F0010000009109000120160909000101 00000000000000000000000000000000000000000000000000000000000000000000000000000000000000000000000000000000000000000N 00000000000NCONT   00    00000000000          00000000000000000000000000000000000000000000 000000000000000A000000000000000000000000000000000000000000000 000000000000000000000000000000000000000     00000000                                                                                                                        000000000000000000
F0010000009109000002000090050144800041450500000000000000000201609090002001PLASTICOS JR ASOCIADOS SAS                        C000000001900000000000000000000000100010010000000000000000000000F0010000009109000220160909000101 00000000000000000000000000000000000000000000000000000000000000000000000000000000000000000000000000000000000000000N 00000000000NCONT   00    00000000000          00000000000000000000000000000000000000000000 000000000000000A000000000000000000000000000000000000000000000 000000000000000000000000000000000000000     00000000                                                                                                                        000000000000000000
F0010000009109000003000090050144800042505000000000000000000201609090002001PLASTICOS JR ASOCIADOS SAS                        C000000000200000000000000000000000100010010000000000000000000000F0010000009109000320160909000101 00000000000000000000000000000000000000000000000000000000000000000000000000000000000000000000000000000000000000000N 00000000000NCONT   00    00000000000          00000000000000000000000000000000000000000000 000000000000000A000000000000000000000000000000000000000000000 000000000000000000000000000000000000000     00000000                                                                                                                        000000000000000000
F0010000009109000004000090050144800023658300000000000000000201609090002001PLASTICOS JR ASOCIADOS SAS                        C000000000015200000000000000000000100010010000000000000000000000F0010000009109000420160909000101 00000000000000000000000000000000000000000000000000000000000000000000000000000000000000000000000000000000000000000N 00000000000NCONT   00    00000000000          00000000000000000000000000000000000000000000 000000000000000A000000000000000000000000000000000000000000000 000000000000000000000000000000000000000     00000000                                                                                                                        000000000000000000
F0010000009109000005000090050144800013552100000000000000000201609090002001PLASTICOS JR ASOCIADOS SAS                        D000000000015200000000000000000000100010010000000000000000000000F0010000009109000520160909000101 00000000000000000000000000000000000000000000000000000000000000000000000000000000000000000000000000000000000000000N 00000000000NCONT   00    00000000000          00000000000000000000000000000000000000000000 000000000000000A000000000000000000000000000000000000000000000 000000000000000000000000000000000000000     00000000                                                                                                                        000000000000000000
F0010000009109100001000001022529300011050500000000000000000201609090002001ALBERTO ALVAREZ ISAZA                             D000000003257500000000000000000000100010010000000000000000000000F0010000009109100120160909000101 00000000000000000000000000000000000000000000000000000000000000000000000000000000000000000000000000000000000000000N 00000000000NCONT   00    00000000000          00000000000000000000000000000000000000000000 000000000000000A000000000000000000000000000000000000000000000 000000000000000000000000000000000000000     00000000                                                                                                                        000000000000000000
F0010000009109100002000001022529300041450500000000000000000201609090002001ALBERTO ALVAREZ ISAZA                             C000000003000000000000000000000000100010010000000000000000000000F0010000009109100220160909000101 00000000000000000000000000000000000000000000000000000000000000000000000000000000000000000000000000000000000000000N 00000000000NCONT   00    00000000000          00000000000000000000000000000000000000000000 000000000000000A000000000000000000000000000000000000000000000 000000000000000000000000000000000000000     00000000                                                                                                                        000000000000000000
F0010000009109100003000001022529300042505000000000000000000201609090002001ALBERTO ALVAREZ ISAZA                             C000000000257500000000000000000000100010010000000000000000000000F0010000009109100320160909000101 00000000000000000000000000000000000000000000000000000000000000000000000000000000000000000000000000000000000000000N 00000000000NCONT   00    00000000000          00000000000000000000000000000000000000000000 000000000000000A000000000000000000000000000000000000000000000 000000000000000000000000000000000000000     00000000                                                                                                                        000000000000000000
F0010000009109100004000001022529300023658300000000000000000201609090002001ALBERTO ALVAREZ ISAZA                             C000000000024000000000000000000000100010010000000000000000000000F0010000009109100420160909000101 00000000000000000000000000000000000000000000000000000000000000000000000000000000000000000000000000000000000000000N 00000000000NCONT   00    00000000000          00000000000000000000000000000000000000000000 000000000000000A000000000000000000000000000000000000000000000 000000000000000000000000000000000000000     00000000                                                                                                                        000000000000000000
F0010000009109100005000001022529300013552100000000000000000201609090002001ALBERTO ALVAREZ ISAZA                             D000000000024000000000000000000000100010010000000000000000000000F0010000009109100520160909000101 00000000000000000000000000000000000000000000000000000000000000000000000000000000000000000000000000000000000000000N 00000000000NCONT   00    00000000000          00000000000000000000000000000000000000000000 000000000000000A000000000000000000000000000000000000000000000 000000000000000000000000000000000000000     00000000                                                                                                                        000000000000000000
F0010000009109200001000090050144800011050500000000000000000201609090002001PLASTICOS JR ASOCIADOS SAS                        D000000001150000000000000000000000100010010000000000000000000000F0010000009109200120160909000101 00000000000000000000000000000000000000000000000000000000000000000000000000000000000000000000000000000000000000000N 00000000000NCONT   00    00000000000          00000000000000000000000000000000000000000000 000000000000000A000000000000000000000000000000000000000000000 000000000000000000000000000000000000000     00000000                                                                                                                        000000000000000000
F0010000009109200002000090050144800041450500000000000000000201609090002001PLASTICOS JR ASOCIADOS SAS                        C000000000950000000000000000000000100010010000000000000000000000F0010000009109200220160909000101 00000000000000000000000000000000000000000000000000000000000000000000000000000000000000000000000000000000000000000N 00000000000NCONT   00    00000000000          00000000000000000000000000000000000000000000 000000000000000A000000000000000000000000000000000000000000000 000000000000000000000000000000000000000     00000000                                                                                                                        000000000000000000
F0010000009109200003000090050144800042505000000000000000000201609090002001PLASTICOS JR ASOCIADOS SAS                        C000000000200000000000000000000000100010010000000000000000000000F0010000009109200320160909000101 00000000000000000000000000000000000000000000000000000000000000000000000000000000000000000000000000000000000000000N 00000000000NCONT   00    00000000000          00000000000000000000000000000000000000000000 000000000000000A000000000000000000000000000000000000000000000 000000000000000000000000000000000000000     00000000                                                                                                                        000000000000000000
F0010000009109200004000090050144800023658300000000000000000201609090002001PLASTICOS JR ASOCIADOS SAS                        C000000000007600000000000000000000100010010000000000000000000000F0010000009109200420160909000101 00000000000000000000000000000000000000000000000000000000000000000000000000000000000000000000000000000000000000000N 00000000000NCONT   00    00000000000          00000000000000000000000000000000000000000000 000000000000000A000000000000000000000000000000000000000000000 000000000000000000000000000000000000000     00000000                                                                                                                        000000000000000000
F0010000009109200005000090050144800013552100000000000000000201609090002001PLASTICOS JR ASOCIADOS SAS                        D000000000007600000000000000000000100010010000000000000000000000F0010000009109200520160909000101 00000000000000000000000000000000000000000000000000000000000000000000000000000000000000000000000000000000000000000N 00000000000NCONT   00    00000000000          00000000000000000000000000000000000000000000 000000000000000A000000000000000000000000000000000000000000000 000000000000000000000000000000000000000     00000000                                                                                                                        000000000000000000
F0010000009109300001000001022529300011050500000000000000000201609090002001ALBERTO ALVAREZ ISAZA                             D000000000700000000000000000000000100010010000000000000000000000F0010000009109300120160909000101 00000000000000000000000000000000000000000000000000000000000000000000000000000000000000000000000000000000000000000N 00000000000NCONT   00    00000000000          00000000000000000000000000000000000000000000 000000000000000A000000000000000000000000000000000000000000000 000000000000000000000000000000000000000     00000000                                                                                                                        000000000000000000
F0010000009109300002000001022529300041450500000000000000000201609090002001ALBERTO ALVAREZ ISAZA                             C000000000700000000000000000000000100010010000000000000000000000F0010000009109300220160909000101 00000000000000000000000000000000000000000000000000000000000000000000000000000000000000000000000000000000000000000N 00000000000NCONT   00    00000000000          00000000000000000000000000000000000000000000 000000000000000A000000000000000000000000000000000000000000000 000000000000000000000000000000000000000     00000000                                                                                                                        000000000000000000
F0010000009109300003000001022529300042505000000000000000000201609090002001ALBERTO ALVAREZ ISAZA                             C000000000000000000000000000000000100010010000000000000000000000F0010000009109300320160909000101 00000000000000000000000000000000000000000000000000000000000000000000000000000000000000000000000000000000000000000N 00000000000NCONT   00    00000000000          00000000000000000000000000000000000000000000 000000000000000A000000000000000000000000000000000000000000000 000000000000000000000000000000000000000     00000000                                                                                                                        000000000000000000
F0010000009109300004000001022529300023658300000000000000000201609090002001ALBERTO ALVAREZ ISAZA                             C000000000005600000000000000000000100010010000000000000000000000F0010000009109300420160909000101 00000000000000000000000000000000000000000000000000000000000000000000000000000000000000000000000000000000000000000N 00000000000NCONT   00    00000000000          00000000000000000000000000000000000000000000 000000000000000A000000000000000000000000000000000000000000000 000000000000000000000000000000000000000     00000000                                                                                                                        000000000000000000
F0010000009109300005000001022529300013552100000000000000000201609090002001ALBERTO ALVAREZ ISAZA                             D000000000005600000000000000000000100010010000000000000000000000F0010000009109300520160909000101 00000000000000000000000000000000000000000000000000000000000000000000000000000000000000000000000000000000000000000N 00000000000NCONT   00    00000000000          00000000000000000000000000000000000000000000 000000000000000A000000000000000000000000000000000000000000000 000000000000000000000000000000000000000     00000000                                                                                                                        000000000000000000
F0010000009109400001000001022529300011050500000000000000000201609090002001ALBERTO ALVAREZ ISAZA                             D000000000350000000000000000000000100010010000000000000000000000F0010000009109400120160909000101 00000000000000000000000000000000000000000000000000000000000000000000000000000000000000000000000000000000000000000N 00000000000NCONT   00    00000000000          00000000000000000000000000000000000000000000 000000000000000A000000000000000000000000000000000000000000000 000000000000000000000000000000000000000     00000000                                                                                                                        000000000000000000
F0010000009109400002000001022529300041450500000000000000000201609090002001ALBERTO ALVAREZ ISAZA                             C000000000350000000000000000000000100010010000000000000000000000F0010000009109400220160909000101 00000000000000000000000000000000000000000000000000000000000000000000000000000000000000000000000000000000000000000N 00000000000NCONT   00    00000000000          00000000000000000000000000000000000000000000 000000000000000A000000000000000000000000000000000000000000000 000000000000000000000000000000000000000     00000000                                                                                                                        000000000000000000
F0010000009109400003000001022529300042505000000000000000000201609090002001ALBERTO ALVAREZ ISAZA                             C000000000000000000000000000000000100010010000000000000000000000F0010000009109400320160909000101 00000000000000000000000000000000000000000000000000000000000000000000000000000000000000000000000000000000000000000N 00000000000NCONT   00    00000000000          00000000000000000000000000000000000000000000 000000000000000A000000000000000000000000000000000000000000000 000000000000000000000000000000000000000     00000000                                                                                                                        000000000000000000
F0010000009109400004000001022529300023658300000000000000000201609090002001ALBERTO ALVAREZ ISAZA                             C000000000002800000000000000000000100010010000000000000000000000F0010000009109400420160909000101 00000000000000000000000000000000000000000000000000000000000000000000000000000000000000000000000000000000000000000N 00000000000NCONT   00    00000000000          00000000000000000000000000000000000000000000 000000000000000A000000000000000000000000000000000000000000000 000000000000000000000000000000000000000     00000000                                                                                                                        000000000000000000
F0010000009109400005000001022529300013552100000000000000000201609090002001ALBERTO ALVAREZ ISAZA                             D000000000002800000000000000000000100010010000000000000000000000F0010000009109400520160909000101 00000000000000000000000000000000000000000000000000000000000000000000000000000000000000000000000000000000000000000N 00000000000NCONT   00    00000000000          00000000000000000000000000000000000000000000 000000000000000A000000000000000000000000000000000000000000000 000000000000000000000000000000000000000     00000000                                                                                                                        000000000000000000
F0010000009109500001000000870907300011050500000000000000000201609090002001SURTIDOR FERRETERO                                D000000001200000000000000000000000100010010000000000000000000000F0010000009109500120160909000101 00000000000000000000000000000000000000000000000000000000000000000000000000000000000000000000000000000000000000000N 00000000000NCONT   00    00000000000          00000000000000000000000000000000000000000000 000000000000000A000000000000000000000000000000000000000000000 000000000000000000000000000000000000000     00000000                                                                                                                        000000000000000000
F0010000009109500002000000870907300041450500000000000000000201609090002001SURTIDOR FERRETERO                                C000000000840000000000000000000000100010010000000000000000000000F0010000009109500220160909000101 00000000000000000000000000000000000000000000000000000000000000000000000000000000000000000000000000000000000000000N 00000000000NCONT   00    00000000000          00000000000000000000000000000000000000000000 000000000000000A000000000000000000000000000000000000000000000 000000000000000000000000000000000000000     00000000                                                                                                                        000000000000000000
F0010000009109500003000000870907300042505000000000000000000201609090002001SURTIDOR FERRETERO                                C000000000360000000000000000000000100010010000000000000000000000F0010000009109500320160909000101 00000000000000000000000000000000000000000000000000000000000000000000000000000000000000000000000000000000000000000N 00000000000NCONT   00    00000000000          00000000000000000000000000000000000000000000 000000000000000A000000000000000000000000000000000000000000000 000000000000000000000000000000000000000     00000000                                                                                                                        000000000000000000
F0010000009109500004000000870907300023658300000000000000000201609090002001SURTIDOR FERRETERO                                C000000000006700000000000000000000100010010000000000000000000000F0010000009109500420160909000101 00000000000000000000000000000000000000000000000000000000000000000000000000000000000000000000000000000000000000000N 00000000000NCONT   00    00000000000          00000000000000000000000000000000000000000000 000000000000000A000000000000000000000000000000000000000000000 000000000000000000000000000000000000000     00000000                                                                                                                        000000000000000000
F0010000009109500005000000870907300013552100000000000000000201609090002001SURTIDOR FERRETERO                                D000000000006700000000000000000000100010010000000000000000000000F0010000009109500520160909000101 00000000000000000000000000000000000000000000000000000000000000000000000000000000000000000000000000000000000000000N 00000000000NCONT   00    00000000000          00000000000000000000000000000000000000000000 000000000000000A000000000000000000000000000000000000000000000 000000000000000000000000000000000000000     00000000                                                                                                                        000000000000000000
F0010000009109600001000090063628300011050500000000000000000201609090002001INVERSIONES RADELCA S.A.S.                        D000000006100000000000000000000000100010010000000000000000000000F0010000009109600120160909000101 00000000000000000000000000000000000000000000000000000000000000000000000000000000000000000000000000000000000000000N 00000000000NCONT   00    00000000000          00000000000000000000000000000000000000000000 000000000000000A000000000000000000000000000000000000000000000 000000000000000000000000000000000000000     00000000                                                                                                                        000000000000000000
F0010000009109600002000090063628300041450500000000000000000201609090002001INVERSIONES RADELCA S.A.S.                        C000000005000000000000000000000000100010010000000000000000000000F0010000009109600220160909000101 00000000000000000000000000000000000000000000000000000000000000000000000000000000000000000000000000000000000000000N 00000000000NCONT   00    00000000000          00000000000000000000000000000000000000000000 000000000000000A000000000000000000000000000000000000000000000 000000000000000000000000000000000000000     00000000                                                                                                                        000000000000000000
F0010000009109600003000090063628300042505000000000000000000201609090002001INVERSIONES RADELCA S.A.S.                        C000000001100000000000000000000000100010010000000000000000000000F0010000009109600320160909000101 00000000000000000000000000000000000000000000000000000000000000000000000000000000000000000000000000000000000000000N 00000000000NCONT   00    00000000000          00000000000000000000000000000000000000000000 000000000000000A000000000000000000000000000000000000000000000 000000000000000000000000000000000000000     00000000                                                                                                                        000000000000000000
F0010000009109600004000090063628300023658300000000000000000201609090002001INVERSIONES RADELCA S.A.S.                        C000000000040000000000000000000000100010010000000000000000000000F0010000009109600420160909000101 00000000000000000000000000000000000000000000000000000000000000000000000000000000000000000000000000000000000000000N 00000000000NCONT   00    00000000000          00000000000000000000000000000000000000000000 000000000000000A000000000000000000000000000000000000000000000 000000000000000000000000000000000000000     00000000                                                                                                                        000000000000000000
F0010000009109600005000090063628300013552100000000000000000201609090002001INVERSIONES RADELCA S.A.S.                        D000000000040000000000000000000000100010010000000000000000000000F0010000009109600520160909000101 00000000000000000000000000000000000000000000000000000000000000000000000000000000000000000000000000000000000000000N 00000000000NCONT   00    00000000000          00000000000000000000000000000000000000000000 000000000000000A000000000000000000000000000000000000000000000 000000000000000000000000000000000000000     00000000                                                                                                                        000000000000000000
F0010000009109700001000086000061500011050500000000000000000201609090002001DISTRIBUIDORA CORDOBA                             D000000011574800000000000000000000100010010000000000000000000000F0010000009109700120160909000101 00000000000000000000000000000000000000000000000000000000000000000000000000000000000000000000000000000000000000000N 00000000000NCONT   00    00000000000          00000000000000000000000000000000000000000000 000000000000000A000000000000000000000000000000000000000000000 000000000000000000000000000000000000000     00000000                                                                                                                        000000000000000000
F0010000009109700002000086000061500041450500000000000000000201609090002001DISTRIBUIDORA CORDOBA                             C000000010450000000000000000000000100010010000000000000000000000F0010000009109700220160909000101 00000000000000000000000000000000000000000000000000000000000000000000000000000000000000000000000000000000000000000N 00000000000NCONT   00    00000000000          00000000000000000000000000000000000000000000 000000000000000A000000000000000000000000000000000000000000000 000000000000000000000000000000000000000     00000000                                                                                                                        000000000000000000
F0010000009109700003000086000061500042505000000000000000000201609090002001DISTRIBUIDORA CORDOBA                             C000000001124800000000000000000000100010010000000000000000000000F0010000009109700320160909000101 00000000000000000000000000000000000000000000000000000000000000000000000000000000000000000000000000000000000000000N 00000000000NCONT   00    00000000000          00000000000000000000000000000000000000000000 000000000000000A000000000000000000000000000000000000000000000 000000000000000000000000000000000000000     00000000                                                                                                                        000000000000000000
F0010000009109700004000086000061500023658300000000000000000201609090002001DISTRIBUIDORA CORDOBA                             C000000000083600000000000000000000100010010000000000000000000000F0010000009109700420160909000101 00000000000000000000000000000000000000000000000000000000000000000000000000000000000000000000000000000000000000000N 00000000000NCONT   00    00000000000          00000000000000000000000000000000000000000000 000000000000000A000000000000000000000000000000000000000000000 000000000000000000000000000000000000000     00000000                                                                                                                        000000000000000000
F0010000009109700005000086000061500013552100000000000000000201609090002001DISTRIBUIDORA CORDOBA                             D000000000083600000000000000000000100010010000000000000000000000F0010000009109700520160909000101 00000000000000000000000000000000000000000000000000000000000000000000000000000000000000000000000000000000000000000N 00000000000NCONT   00    00000000000          00000000000000000000000000000000000000000000 000000000000000A000000000000000000000000000000000000000000000 000000000000000000000000000000000000000     00000000                                                                                                                        000000000000000000
F0010000009109800001000000431178400011050500000000000000000201609090002001EFRAIN ALVAREZ                                    D000000006410000000000000000000000100010010000000000000000000000F0010000009109800120160909000101 00000000000000000000000000000000000000000000000000000000000000000000000000000000000000000000000000000000000000000N 00000000000NCONT   00    00000000000          00000000000000000000000000000000000000000000 000000000000000A000000000000000000000000000000000000000000000 000000000000000000000000000000000000000     00000000                                                                                                                        000000000000000000
F0010000009109800002000000431178400041450500000000000000000201609090002001EFRAIN ALVAREZ                                    C000000005910000000000000000000000100010010000000000000000000000F0010000009109800220160909000101 00000000000000000000000000000000000000000000000000000000000000000000000000000000000000000000000000000000000000000N 00000000000NCONT   00    00000000000          00000000000000000000000000000000000000000000 000000000000000A000000000000000000000000000000000000000000000 000000000000000000000000000000000000000     00000000                                                                                                                        000000000000000000
