F0010000008221200001000007213618800011050500000000000000000201602050002001JAIME LOGREIRA                                    D000000002500000000000000000000000100010010000000000000000000000F0010000008221200120160205000101 00000000000000000000000000000000000000000000000000000000000000000000000000000000000000000000000000000000000000000N 00000000000NCONT   00    00000000000          00000000000000000000000000000000000000000000 000000000000000A000000000000000000000000000000000000000000000 000000000000000000000000000000000000000     00000000                                                                                                                        000000000000000000
F0010000008221200002000007213618800041450500000000000000000201602050002001JAIME LOGREIRA                                    C000000001950000000000000000000000100010010000000000000000000000F0010000008221200220160205000101 00000000000000000000000000000000000000000000000000000000000000000000000000000000000000000000000000000000000000000N 00000000000NCONT   00    00000000000          00000000000000000000000000000000000000000000 000000000000000A000000000000000000000000000000000000000000000 000000000000000000000000000000000000000     00000000                                                                                                                        000000000000000000
F0010000008221200003000007213618800042505000000000000000000201602050002001JAIME LOGREIRA                                    C000000000550000000000000000000000100010010000000000000000000000F0010000008221200320160205000101 00000000000000000000000000000000000000000000000000000000000000000000000000000000000000000000000000000000000000000N 00000000000NCONT   00    00000000000          00000000000000000000000000000000000000000000 000000000000000A000000000000000000000000000000000000000000000 000000000000000000000000000000000000000     00000000                                                                                                                        000000000000000000
F0010000008221200004000007213618800023658300000000000000000201602050002001JAIME LOGREIRA                                    C000000000015600000000000000000000100010010000000000000000000000F0010000008221200420160205000101 00000000000000000000000000000000000000000000000000000000000000000000000000000000000000000000000000000000000000000N 00000000000NCONT   00    00000000000          00000000000000000000000000000000000000000000 000000000000000A000000000000000000000000000000000000000000000 000000000000000000000000000000000000000     00000000                                                                                                                        000000000000000000
F0010000008221200005000007213618800013552100000000000000000201602050002001JAIME LOGREIRA                                    D000000000015600000000000000000000100010010000000000000000000000F0010000008221200520160205000101 00000000000000000000000000000000000000000000000000000000000000000000000000000000000000000000000000000000000000000N 00000000000NCONT   00    00000000000          00000000000000000000000000000000000000000000 000000000000000A000000000000000000000000000000000000000000000 000000000000000000000000000000000000000     00000000                                                                                                                        000000000000000000
F0010000008221300001000007218448100011050500000000000000000201602050002001MARIANO SARABIA                                   D000000001300000000000000000000000100010010000000000000000000000F0010000008221300120160205000101 00000000000000000000000000000000000000000000000000000000000000000000000000000000000000000000000000000000000000000N 00000000000NCONT   00    00000000000          00000000000000000000000000000000000000000000 000000000000000A000000000000000000000000000000000000000000000 000000000000000000000000000000000000000     00000000                                                                                                                        000000000000000000
F0010000008221300002000007218448100041450500000000000000000201602050002001MARIANO SARABIA                                   C000000000900000000000000000000000100010010000000000000000000000F0010000008221300220160205000101 00000000000000000000000000000000000000000000000000000000000000000000000000000000000000000000000000000000000000000N 00000000000NCONT   00    00000000000          00000000000000000000000000000000000000000000 000000000000000A000000000000000000000000000000000000000000000 000000000000000000000000000000000000000     00000000                                                                                                                        000000000000000000
F0010000008221300003000007218448100042505000000000000000000201602050002001MARIANO SARABIA                                   C000000000400000000000000000000000100010010000000000000000000000F0010000008221300320160205000101 00000000000000000000000000000000000000000000000000000000000000000000000000000000000000000000000000000000000000000N 00000000000NCONT   00    00000000000          00000000000000000000000000000000000000000000 000000000000000A000000000000000000000000000000000000000000000 000000000000000000000000000000000000000     00000000                                                                                                                        000000000000000000
F0010000008221300004000007218448100023658300000000000000000201602050002001MARIANO SARABIA                                   C000000000007200000000000000000000100010010000000000000000000000F0010000008221300420160205000101 00000000000000000000000000000000000000000000000000000000000000000000000000000000000000000000000000000000000000000N 00000000000NCONT   00    00000000000          00000000000000000000000000000000000000000000 000000000000000A000000000000000000000000000000000000000000000 000000000000000000000000000000000000000     00000000                                                                                                                        000000000000000000
F0010000008221300005000007218448100013552100000000000000000201602050002001MARIANO SARABIA                                   D000000000007200000000000000000000100010010000000000000000000000F0010000008221300520160205000101 00000000000000000000000000000000000000000000000000000000000000000000000000000000000000000000000000000000000000000N 00000000000NCONT   00    00000000000          00000000000000000000000000000000000000000000 000000000000000A000000000000000000000000000000000000000000000 000000000000000000000000000000000000000     00000000                                                                                                                        000000000000000000
F0010000008221400001000080023327700013050500000000000000000201602050002001DISINCO LTDA                                      D000000092000000000000000000000000100010010000000000000000000000F0010000008221400120160205000101 00000000000000000000000000000000000000000000000000000000000000000000000000000000000000000000000000000000000000000N 00000000000NCONT   00    00000000000          00000000000000000000000000000000000000000000 000000000000000A000000000000000000000000000000000000000000000 000000000000000000000000000000000000000     00000000                                                                                                                        000000000000000000
F0010000008221400002000080023327700041450500000000000000000201602050002001DISINCO LTDA                                      C000000088500000000000000000000000100010010000000000000000000000F0010000008221400220160205000101 00000000000000000000000000000000000000000000000000000000000000000000000000000000000000000000000000000000000000000N 00000000000NCONT   00    00000000000          00000000000000000000000000000000000000000000 000000000000000A000000000000000000000000000000000000000000000 000000000000000000000000000000000000000     00000000                                                                                                                        000000000000000000
F0010000008221400003000080023327700042505000000000000000000201602050002001DISINCO LTDA                                      C000000003500000000000000000000000100010010000000000000000000000F0010000008221400320160205000101 00000000000000000000000000000000000000000000000000000000000000000000000000000000000000000000000000000000000000000N 00000000000NCONT   00    00000000000          00000000000000000000000000000000000000000000 000000000000000A000000000000000000000000000000000000000000000 000000000000000000000000000000000000000     00000000                                                                                                                        000000000000000000
F0010000008221400004000080023327700023658300000000000000000201602050002001DISINCO LTDA                                      C000000000708000000000000000000000100010010000000000000000000000F0010000008221400420160205000101 00000000000000000000000000000000000000000000000000000000000000000000000000000000000000000000000000000000000000000N 00000000000NCONT   00    00000000000          00000000000000000000000000000000000000000000 000000000000000A000000000000000000000000000000000000000000000 000000000000000000000000000000000000000     00000000                                                                                                                        000000000000000000
F0010000008221400005000080023327700013552100000000000000000201602050002001DISINCO LTDA                                      D000000000708000000000000000000000100010010000000000000000000000F0010000008221400520160205000101 00000000000000000000000000000000000000000000000000000000000000000000000000000000000000000000000000000000000000000N 00000000000NCONT   00    00000000000          00000000000000000000000000000000000000000000 000000000000000A000000000000000000000000000000000000000000000 000000000000000000000000000000000000000     00000000                                                                                                                        000000000000000000
F0010000008221500001000007801965300011050500000000000000000201602050002001CARLOS ESPINOZA PAEZ                              D000000003000000000000000000000000100010010000000000000000000000F0010000008221500120160205000101 00000000000000000000000000000000000000000000000000000000000000000000000000000000000000000000000000000000000000000N 00000000000NCONT   00    00000000000          00000000000000000000000000000000000000000000 000000000000000A000000000000000000000000000000000000000000000 000000000000000000000000000000000000000     00000000                                                                                                                        000000000000000000
F0010000008221500002000007801965300041450500000000000000000201602050002001CARLOS ESPINOZA PAEZ                              C000000002500000000000000000000000100010010000000000000000000000F0010000008221500220160205000101 00000000000000000000000000000000000000000000000000000000000000000000000000000000000000000000000000000000000000000N 00000000000NCONT   00    00000000000          00000000000000000000000000000000000000000000 000000000000000A000000000000000000000000000000000000000000000 000000000000000000000000000000000000000     00000000                                                                                                                        000000000000000000
F0010000008221500003000007801965300042505000000000000000000201602050002001CARLOS ESPINOZA PAEZ                              C000000000500000000000000000000000100010010000000000000000000000F0010000008221500320160205000101 00000000000000000000000000000000000000000000000000000000000000000000000000000000000000000000000000000000000000000N 00000000000NCONT   00    00000000000          00000000000000000000000000000000000000000000 000000000000000A000000000000000000000000000000000000000000000 000000000000000000000000000000000000000     00000000                                                                                                                        000000000000000000
F0010000008221500004000007801965300023658300000000000000000201602050002001CARLOS ESPINOZA PAEZ                              C000000000020000000000000000000000100010010000000000000000000000F0010000008221500420160205000101 00000000000000000000000000000000000000000000000000000000000000000000000000000000000000000000000000000000000000000N 00000000000NCONT   00    00000000000          00000000000000000000000000000000000000000000 000000000000000A000000000000000000000000000000000000000000000 000000000000000000000000000000000000000     00000000                                                                                                                        000000000000000000
F0010000008221500005000007801965300013552100000000000000000201602050002001CARLOS ESPINOZA PAEZ                              D000000000020000000000000000000000100010010000000000000000000000F0010000008221500520160205000101 00000000000000000000000000000000000000000000000000000000000000000000000000000000000000000000000000000000000000000N 00000000000NCONT   00    00000000000          00000000000000000000000000000000000000000000 000000000000000A000000000000000000000000000000000000000000000 000000000000000000000000000000000000000     00000000                                                                                                                        000000000000000000
F0010000008221600001000080021649900011050500000000000000000201602050002001AGOFER DUFERCO GROUP                              D000000050000000000000000000000000100010010000000000000000000000F0010000008221600120160205000101 00000000000000000000000000000000000000000000000000000000000000000000000000000000000000000000000000000000000000000N 00000000000NCONT   00    00000000000          00000000000000000000000000000000000000000000 000000000000000A000000000000000000000000000000000000000000000 000000000000000000000000000000000000000     00000000                                                                                                                        000000000000000000
F0010000008221600002000080021649900041450500000000000000000201602050002001AGOFER DUFERCO GROUP                              C000000045000000000000000000000000100010010000000000000000000000F0010000008221600220160205000101 00000000000000000000000000000000000000000000000000000000000000000000000000000000000000000000000000000000000000000N 00000000000NCONT   00    00000000000          00000000000000000000000000000000000000000000 000000000000000A000000000000000000000000000000000000000000000 000000000000000000000000000000000000000     00000000                                                                                                                        000000000000000000
F0010000008221600003000080021649900042505000000000000000000201602050002001AGOFER DUFERCO GROUP                              C000000005000000000000000000000000100010010000000000000000000000F0010000008221600320160205000101 00000000000000000000000000000000000000000000000000000000000000000000000000000000000000000000000000000000000000000N 00000000000NCONT   00    00000000000          00000000000000000000000000000000000000000000 000000000000000A000000000000000000000000000000000000000000000 000000000000000000000000000000000000000     00000000                                                                                                                        000000000000000000
F0010000008221600004000080021649900023658300000000000000000201602050002001AGOFER DUFERCO GROUP                              C000000000360000000000000000000000100010010000000000000000000000F0010000008221600420160205000101 00000000000000000000000000000000000000000000000000000000000000000000000000000000000000000000000000000000000000000N 00000000000NCONT   00    00000000000          00000000000000000000000000000000000000000000 000000000000000A000000000000000000000000000000000000000000000 000000000000000000000000000000000000000     00000000                                                                                                                        000000000000000000
F0010000008221600005000080021649900013552100000000000000000201602050002001AGOFER DUFERCO GROUP                              D000000000360000000000000000000000100010010000000000000000000000F0010000008221600520160205000101 00000000000000000000000000000000000000000000000000000000000000000000000000000000000000000000000000000000000000000N 00000000000NCONT   00    00000000000          00000000000000000000000000000000000000000000 000000000000000A000000000000000000000000000000000000000000000 000000000000000000000000000000000000000     00000000                                                                                                                        000000000000000000
F0010000008221700001000090027500500011050500000000000000000201602050002001MULTIALUMINIOS LA 30 SAS                          D000000002600000000000000000000000100010010000000000000000000000F0010000008221700120160205000101 00000000000000000000000000000000000000000000000000000000000000000000000000000000000000000000000000000000000000000N 00000000000NCONT   00    00000000000          00000000000000000000000000000000000000000000 000000000000000A000000000000000000000000000000000000000000000 000000000000000000000000000000000000000     00000000                                                                                                                        000000000000000000
F0010000008221700002000090027500500041450500000000000000000201602050002001MULTIALUMINIOS LA 30 SAS                          C000000002100000000000000000000000100010010000000000000000000000F0010000008221700220160205000101 00000000000000000000000000000000000000000000000000000000000000000000000000000000000000000000000000000000000000000N 00000000000NCONT   00    00000000000          00000000000000000000000000000000000000000000 000000000000000A000000000000000000000000000000000000000000000 000000000000000000000000000000000000000     00000000                                                                                                                        000000000000000000
F0010000008221700003000090027500500042505000000000000000000201602050002001MULTIALUMINIOS LA 30 SAS                          C000000000500000000000000000000000100010010000000000000000000000F0010000008221700320160205000101 00000000000000000000000000000000000000000000000000000000000000000000000000000000000000000000000000000000000000000N 00000000000NCONT   00    00000000000          00000000000000000000000000000000000000000000 000000000000000A000000000000000000000000000000000000000000000 000000000000000000000000000000000000000     00000000                                                                                                                        000000000000000000
F0010000008221700004000090027500500023658300000000000000000201602050002001MULTIALUMINIOS LA 30 SAS                          C000000000016800000000000000000000100010010000000000000000000000F0010000008221700420160205000101 00000000000000000000000000000000000000000000000000000000000000000000000000000000000000000000000000000000000000000N 00000000000NCONT   00    00000000000          00000000000000000000000000000000000000000000 000000000000000A000000000000000000000000000000000000000000000 000000000000000000000000000000000000000     00000000                                                                                                                        000000000000000000
F0010000008221700005000090027500500013552100000000000000000201602050002001MULTIALUMINIOS LA 30 SAS                          D000000000016800000000000000000000100010010000000000000000000000F0010000008221700520160205000101 00000000000000000000000000000000000000000000000000000000000000000000000000000000000000000000000000000000000000000N 00000000000NCONT   00    00000000000          00000000000000000000000000000000000000000000 000000000000000A000000000000000000000000000000000000000000000 000000000000000000000000000000000000000     00000000                                                                                                                        000000000000000000
F0010000008221800001000004249706000011050500000000000000000201602050002001ANA GOMEZ ALCALA                                  D000000001100000000000000000000000100010010000000000000000000000F0010000008221800120160205000101 00000000000000000000000000000000000000000000000000000000000000000000000000000000000000000000000000000000000000000N 00000000000NCONT   00    00000000000          00000000000000000000000000000000000000000000 000000000000000A000000000000000000000000000000000000000000000 000000000000000000000000000000000000000     00000000                                                                                                                        000000000000000000
F0010000008221800002000004249706000041450500000000000000000201602050002001ANA GOMEZ ALCALA                                  C000000001000000000000000000000000100010010000000000000000000000F0010000008221800220160205000101 00000000000000000000000000000000000000000000000000000000000000000000000000000000000000000000000000000000000000000N 00000000000NCONT   00    00000000000          00000000000000000000000000000000000000000000 000000000000000A000000000000000000000000000000000000000000000 000000000000000000000000000000000000000     00000000                                                                                                                        000000000000000000
F0010000008221800003000004249706000042505000000000000000000201602050002001ANA GOMEZ ALCALA                                  C000000000100000000000000000000000100010010000000000000000000000F0010000008221800320160205000101 00000000000000000000000000000000000000000000000000000000000000000000000000000000000000000000000000000000000000000N 00000000000NCONT   00    00000000000          00000000000000000000000000000000000000000000 000000000000000A000000000000000000000000000000000000000000000 000000000000000000000000000000000000000     00000000                                                                                                                        000000000000000000
F0010000008221800004000004249706000023658300000000000000000201602050002001ANA GOMEZ ALCALA                                  C000000000008000000000000000000000100010010000000000000000000000F0010000008221800420160205000101 00000000000000000000000000000000000000000000000000000000000000000000000000000000000000000000000000000000000000000N 00000000000NCONT   00    00000000000          00000000000000000000000000000000000000000000 000000000000000A000000000000000000000000000000000000000000000 000000000000000000000000000000000000000     00000000                                                                                                                        000000000000000000
F0010000008221800005000004249706000013552100000000000000000201602050002001ANA GOMEZ ALCALA                                  D000000000008000000000000000000000100010010000000000000000000000F0010000008221800520160205000101 00000000000000000000000000000000000000000000000000000000000000000000000000000000000000000000000000000000000000000N 00000000000NCONT   00    00000000000          00000000000000000000000000000000000000000000 000000000000000A000000000000000000000000000000000000000000000 000000000000000000000000000000000000000     00000000                                                                                                                        000000000000000000
F0010000008221900001000090015305700011050500000000000000000201602050002001PLASTICOS Y SERVICIOS BARRANQUILLA EU             D000000004400000000000000000000000100010010000000000000000000000F0010000008221900120160205000101 00000000000000000000000000000000000000000000000000000000000000000000000000000000000000000000000000000000000000000N 00000000000NCONT   00    00000000000          00000000000000000000000000000000000000000000 000000000000000A000000000000000000000000000000000000000000000 000000000000000000000000000000000000000     00000000                                                                                                                        000000000000000000
F0010000008221900002000090015305700041450500000000000000000201602050002001PLASTICOS Y SERVICIOS BARRANQUILLA EU             C000000003600000000000000000000000100010010000000000000000000000F0010000008221900220160205000101 00000000000000000000000000000000000000000000000000000000000000000000000000000000000000000000000000000000000000000N 00000000000NCONT   00    00000000000          00000000000000000000000000000000000000000000 000000000000000A000000000000000000000000000000000000000000000 000000000000000000000000000000000000000     00000000                                                                                                                        000000000000000000
F0010000008221900003000090015305700042505000000000000000000201602050002001PLASTICOS Y SERVICIOS BARRANQUILLA EU             C000000000800000000000000000000000100010010000000000000000000000F0010000008221900320160205000101 00000000000000000000000000000000000000000000000000000000000000000000000000000000000000000000000000000000000000000N 00000000000NCONT   00    00000000000          00000000000000000000000000000000000000000000 000000000000000A000000000000000000000000000000000000000000000 000000000000000000000000000000000000000     00000000                                                                                                                        000000000000000000
F0010000008221900004000090015305700023658300000000000000000201602050002001PLASTICOS Y SERVICIOS BARRANQUILLA EU             C000000000028800000000000000000000100010010000000000000000000000F0010000008221900420160205000101 00000000000000000000000000000000000000000000000000000000000000000000000000000000000000000000000000000000000000000N 00000000000NCONT   00    00000000000          00000000000000000000000000000000000000000000 000000000000000A000000000000000000000000000000000000000000000 000000000000000000000000000000000000000     00000000                                                                                                                        000000000000000000
F0010000008221900005000090015305700013552100000000000000000201602050002001PLASTICOS Y SERVICIOS BARRANQUILLA EU             D000000000028800000000000000000000100010010000000000000000000000F0010000008221900520160205000101 00000000000000000000000000000000000000000000000000000000000000000000000000000000000000000000000000000000000000000N 00000000000NCONT   00    00000000000          00000000000000000000000000000000000000000000 000000000000000A000000000000000000000000000000000000000000000 000000000000000000000000000000000000000     00000000                                                                                                                        000000000000000000
F0010000008222000001000090015305700011050500000000000000000201602050002001PLASTICOS Y SERVICIOS BARRANQUILLA EU             D000000003700000000000000000000000100010010000000000000000000000F0010000008222000120160205000101 00000000000000000000000000000000000000000000000000000000000000000000000000000000000000000000000000000000000000000N 00000000000NCONT   00    00000000000          00000000000000000000000000000000000000000000 000000000000000A000000000000000000000000000000000000000000000 000000000000000000000000000000000000000     00000000                                                                                                                        000000000000000000
F0010000008222000002000090015305700041450500000000000000000201602050002001PLASTICOS Y SERVICIOS BARRANQUILLA EU             C000000002700000000000000000000000100010010000000000000000000000F0010000008222000220160205000101 00000000000000000000000000000000000000000000000000000000000000000000000000000000000000000000000000000000000000000N 00000000000NCONT   00    00000000000          00000000000000000000000000000000000000000000 000000000000000A000000000000000000000000000000000000000000000 000000000000000000000000000000000000000     00000000                                                                                                                        000000000000000000
F0010000008222000003000090015305700042505000000000000000000201602050002001PLASTICOS Y SERVICIOS BARRANQUILLA EU             C000000001000000000000000000000000100010010000000000000000000000F0010000008222000320160205000101 00000000000000000000000000000000000000000000000000000000000000000000000000000000000000000000000000000000000000000N 00000000000NCONT   00    00000000000          00000000000000000000000000000000000000000000 000000000000000A000000000000000000000000000000000000000000000 000000000000000000000000000000000000000     00000000                                                                                                                        000000000000000000
F0010000008222000004000090015305700023658300000000000000000201602050002001PLASTICOS Y SERVICIOS BARRANQUILLA EU             C000000000021600000000000000000000100010010000000000000000000000F0010000008222000420160205000101 00000000000000000000000000000000000000000000000000000000000000000000000000000000000000000000000000000000000000000N 00000000000NCONT   00    00000000000          00000000000000000000000000000000000000000000 000000000000000A000000000000000000000000000000000000000000000 000000000000000000000000000000000000000     00000000                                                                                                                        000000000000000000
F0010000008222000005000090015305700013552100000000000000000201602050002001PLASTICOS Y SERVICIOS BARRANQUILLA EU             D000000000021600000000000000000000100010010000000000000000000000F0010000008222000520160205000101 00000000000000000000000000000000000000000000000000000000000000000000000000000000000000000000000000000000000000000N 00000000000NCONT   00    00000000000          00000000000000000000000000000000000000000000 000000000000000A000000000000000000000000000000000000000000000 000000000000000000000000000000000000000     00000000                                                                                                                        000000000000000000
F0010000008222100001000003900336900011050500000000000000000201602050002001LUISA FERNANDA BOLAñOS                           D000000017300000000000000000000000100010010000000000000000000000F0010000008222100120160205000101 00000000000000000000000000000000000000000000000000000000000000000000000000000000000000000000000000000000000000000N 00000000000NCONT   00    00000000000          00000000000000000000000000000000000000000000 000000000000000A000000000000000000000000000000000000000000000 000000000000000000000000000000000000000     00000000                                                                                                                        000000000000000000
F0010000008222100002000003900336900041450500000000000000000201602050002001LUISA FERNANDA BOLAñOS                           C000000015800000000000000000000000100010010000000000000000000000F0010000008222100220160205000101 00000000000000000000000000000000000000000000000000000000000000000000000000000000000000000000000000000000000000000N 00000000000NCONT   00    00000000000          00000000000000000000000000000000000000000000 000000000000000A000000000000000000000000000000000000000000000 000000000000000000000000000000000000000     00000000                                                                                                                        000000000000000000
F0010000008222100003000003900336900042505000000000000000000201602050002001LUISA FERNANDA BOLAñOS                           C000000001500000000000000000000000100010010000000000000000000000F0010000008222100320160205000101 00000000000000000000000000000000000000000000000000000000000000000000000000000000000000000000000000000000000000000N 00000000000NCONT   00    00000000000          00000000000000000000000000000000000000000000 000000000000000A000000000000000000000000000000000000000000000 000000000000000000000000000000000000000     00000000                                                                                                                        000000000000000000
F0010000008222100004000003900336900023658300000000000000000201602050002001LUISA FERNANDA BOLAñOS                           C000000000126400000000000000000000100010010000000000000000000000F0010000008222100420160205000101 00000000000000000000000000000000000000000000000000000000000000000000000000000000000000000000000000000000000000000N 00000000000NCONT   00    00000000000          00000000000000000000000000000000000000000000 000000000000000A000000000000000000000000000000000000000000000 000000000000000000000000000000000000000     00000000                                                                                                                        000000000000000000
F0010000008222100005000003900336900013552100000000000000000201602050002001LUISA FERNANDA BOLAñOS                           D000000000126400000000000000000000100010010000000000000000000000F0010000008222100520160205000101 00000000000000000000000000000000000000000000000000000000000000000000000000000000000000000000000000000000000000000N 00000000000NCONT   00    00000000000          00000000000000000000000000000000000000000000 000000000000000A000000000000000000000000000000000000000000000 000000000000000000000000000000000000000     00000000                                                                                                                        000000000000000000
F0010000008222200001000007213133300011050500000000000000000201602050002001ALVARO ALBERTO FANDIÑO GOMEZ                     D000000001900000000000000000000000100010010000000000000000000000F0010000008222200120160205000101 00000000000000000000000000000000000000000000000000000000000000000000000000000000000000000000000000000000000000000N 00000000000NCONT   00    00000000000          00000000000000000000000000000000000000000000 000000000000000A000000000000000000000000000000000000000000000 000000000000000000000000000000000000000     00000000                                                                                                                        000000000000000000
F0010000008222200002000007213133300041450500000000000000000201602050002001ALVARO ALBERTO FANDIÑO GOMEZ                     C000000001800000000000000000000000100010010000000000000000000000F0010000008222200220160205000101 00000000000000000000000000000000000000000000000000000000000000000000000000000000000000000000000000000000000000000N 00000000000NCONT   00    00000000000          00000000000000000000000000000000000000000000 000000000000000A000000000000000000000000000000000000000000000 000000000000000000000000000000000000000     00000000                                                                                                                        000000000000000000
F0010000008222200003000007213133300042505000000000000000000201602050002001ALVARO ALBERTO FANDIÑO GOMEZ                     C000000000100000000000000000000000100010010000000000000000000000F0010000008222200320160205000101 00000000000000000000000000000000000000000000000000000000000000000000000000000000000000000000000000000000000000000N 00000000000NCONT   00    00000000000          00000000000000000000000000000000000000000000 000000000000000A000000000000000000000000000000000000000000000 000000000000000000000000000000000000000     00000000                                                                                                                        000000000000000000
F0010000008222200004000007213133300023658300000000000000000201602050002001ALVARO ALBERTO FANDIÑO GOMEZ                     C000000000014400000000000000000000100010010000000000000000000000F0010000008222200420160205000101 00000000000000000000000000000000000000000000000000000000000000000000000000000000000000000000000000000000000000000N 00000000000NCONT   00    00000000000          00000000000000000000000000000000000000000000 000000000000000A000000000000000000000000000000000000000000000 000000000000000000000000000000000000000     00000000                                                                                                                        000000000000000000
F0010000008222200005000007213133300013552100000000000000000201602050002001ALVARO ALBERTO FANDIÑO GOMEZ                     D000000000014400000000000000000000100010010000000000000000000000F0010000008222200520160205000101 00000000000000000000000000000000000000000000000000000000000000000000000000000000000000000000000000000000000000000N 00000000000NCONT   00    00000000000          00000000000000000000000000000000000000000000 000000000000000A000000000000000000000000000000000000000000000 000000000000000000000000000000000000000     00000000                                                                                                                        000000000000000000
F0010000008222300001000090020547900011050500000000000000000201602050002001COMERCIALIZADORA DAC DEL CARIBE S.A.S.            D000000003500000000000000000000000100010010000000000000000000000F0010000008222300120160205000101 00000000000000000000000000000000000000000000000000000000000000000000000000000000000000000000000000000000000000000N 00000000000NCONT   00    00000000000          00000000000000000000000000000000000000000000 000000000000000A000000000000000000000000000000000000000000000 000000000000000000000000000000000000000     00000000                                                                                                                        000000000000000000
F0010000008222300002000090020547900041450500000000000000000201602050002001COMERCIALIZADORA DAC DEL CARIBE S.A.S.            C000000002400000000000000000000000100010010000000000000000000000F0010000008222300220160205000101 00000000000000000000000000000000000000000000000000000000000000000000000000000000000000000000000000000000000000000N 00000000000NCONT   00    00000000000          00000000000000000000000000000000000000000000 000000000000000A000000000000000000000000000000000000000000000 000000000000000000000000000000000000000     00000000                                                                                                                        000000000000000000
F0010000008222300003000090020547900042505000000000000000000201602050002001COMERCIALIZADORA DAC DEL CARIBE S.A.S.            C000000001100000000000000000000000100010010000000000000000000000F0010000008222300320160205000101 00000000000000000000000000000000000000000000000000000000000000000000000000000000000000000000000000000000000000000N 00000000000NCONT   00    00000000000          00000000000000000000000000000000000000000000 000000000000000A000000000000000000000000000000000000000000000 000000000000000000000000000000000000000     00000000                                                                                                                        000000000000000000
F0010000008222300004000090020547900023658300000000000000000201602050002001COMERCIALIZADORA DAC DEL CARIBE S.A.S.            C000000000019200000000000000000000100010010000000000000000000000F0010000008222300420160205000101 00000000000000000000000000000000000000000000000000000000000000000000000000000000000000000000000000000000000000000N 00000000000NCONT   00    00000000000          00000000000000000000000000000000000000000000 000000000000000A000000000000000000000000000000000000000000000 000000000000000000000000000000000000000     00000000                                                                                                                        000000000000000000
F0010000008222300005000090020547900013552100000000000000000201602050002001COMERCIALIZADORA DAC DEL CARIBE S.A.S.            D000000000019200000000000000000000100010010000000000000000000000F0010000008222300520160205000101 00000000000000000000000000000000000000000000000000000000000000000000000000000000000000000000000000000000000000000N 00000000000NCONT   00    00000000000          00000000000000000000000000000000000000000000 000000000000000A000000000000000000000000000000000000000000000 000000000000000000000000000000000000000     00000000                                                                                                                        000000000000000000
F0010000008222400001000090020547900011050500000000000000000201602050002001COMERCIALIZADORA DAC DEL CARIBE S.A.S.            D000000002200000000000000000000000100010010000000000000000000000F0010000008222400120160205000101 00000000000000000000000000000000000000000000000000000000000000000000000000000000000000000000000000000000000000000N 00000000000NCONT   00    00000000000          00000000000000000000000000000000000000000000 000000000000000A000000000000000000000000000000000000000000000 000000000000000000000000000000000000000     00000000                                                                                                                        000000000000000000
F0010000008222400002000090020547900041450500000000000000000201602050002001COMERCIALIZADORA DAC DEL CARIBE S.A.S.            C000000001800000000000000000000000100010010000000000000000000000F0010000008222400220160205000101 00000000000000000000000000000000000000000000000000000000000000000000000000000000000000000000000000000000000000000N 00000000000NCONT   00    00000000000          00000000000000000000000000000000000000000000 000000000000000A000000000000000000000000000000000000000000000 000000000000000000000000000000000000000     00000000                                                                                                                        000000000000000000
F0010000008222400003000090020547900042505000000000000000000201602050002001COMERCIALIZADORA DAC DEL CARIBE S.A.S.            C000000000400000000000000000000000100010010000000000000000000000F0010000008222400320160205000101 00000000000000000000000000000000000000000000000000000000000000000000000000000000000000000000000000000000000000000N 00000000000NCONT   00    00000000000          00000000000000000000000000000000000000000000 000000000000000A000000000000000000000000000000000000000000000 000000000000000000000000000000000000000     00000000                                                                                                                        000000000000000000
F0010000008222400004000090020547900023658300000000000000000201602050002001COMERCIALIZADORA DAC DEL CARIBE S.A.S.            C000000000014400000000000000000000100010010000000000000000000000F0010000008222400420160205000101 00000000000000000000000000000000000000000000000000000000000000000000000000000000000000000000000000000000000000000N 00000000000NCONT   00    00000000000          00000000000000000000000000000000000000000000 000000000000000A000000000000000000000000000000000000000000000 000000000000000000000000000000000000000     00000000                                                                                                                        000000000000000000
F0010000008222400005000090020547900013552100000000000000000201602050002001COMERCIALIZADORA DAC DEL CARIBE S.A.S.            D000000000014400000000000000000000100010010000000000000000000000F0010000008222400520160205000101 00000000000000000000000000000000000000000000000000000000000000000000000000000000000000000000000000000000000000000N 00000000000NCONT   00    00000000000          00000000000000000000000000000000000000000000 000000000000000A000000000000000000000000000000000000000000000 000000000000000000000000000000000000000     00000000                                                                                                                        000000000000000000
F0010000008222500001000090020547900011050500000000000000000201602050002001COMERCIALIZADORA DAC DEL CARIBE S.A.S.            D000000002400000000000000000000000100010010000000000000000000000F0010000008222500120160205000101 00000000000000000000000000000000000000000000000000000000000000000000000000000000000000000000000000000000000000000N 00000000000NCONT   00    00000000000          00000000000000000000000000000000000000000000 000000000000000A000000000000000000000000000000000000000000000 000000000000000000000000000000000000000     00000000                                                                                                                        000000000000000000
F0010000008222500002000090020547900041450500000000000000000201602050002001COMERCIALIZADORA DAC DEL CARIBE S.A.S.            C000000001800000000000000000000000100010010000000000000000000000F0010000008222500220160205000101 00000000000000000000000000000000000000000000000000000000000000000000000000000000000000000000000000000000000000000N 00000000000NCONT   00    00000000000          00000000000000000000000000000000000000000000 000000000000000A000000000000000000000000000000000000000000000 000000000000000000000000000000000000000     00000000                                                                                                                        000000000000000000
F0010000008222500003000090020547900042505000000000000000000201602050002001COMERCIALIZADORA DAC DEL CARIBE S.A.S.            C000000000600000000000000000000000100010010000000000000000000000F0010000008222500320160205000101 00000000000000000000000000000000000000000000000000000000000000000000000000000000000000000000000000000000000000000N 00000000000NCONT   00    00000000000          00000000000000000000000000000000000000000000 000000000000000A000000000000000000000000000000000000000000000 000000000000000000000000000000000000000     00000000                                                                                                                        000000000000000000
F0010000008222500004000090020547900023658300000000000000000201602050002001COMERCIALIZADORA DAC DEL CARIBE S.A.S.            C000000000014400000000000000000000100010010000000000000000000000F0010000008222500420160205000101 00000000000000000000000000000000000000000000000000000000000000000000000000000000000000000000000000000000000000000N 00000000000NCONT   00    00000000000          00000000000000000000000000000000000000000000 000000000000000A000000000000000000000000000000000000000000000 000000000000000000000000000000000000000     00000000                                                                                                                        000000000000000000
F0010000008222500005000090020547900013552100000000000000000201602050002001COMERCIALIZADORA DAC DEL CARIBE S.A.S.            D000000000014400000000000000000000100010010000000000000000000000F0010000008222500520160205000101 00000000000000000000000000000000000000000000000000000000000000000000000000000000000000000000000000000000000000000N 00000000000NCONT   00    00000000000          00000000000000000000000000000000000000000000 000000000000000A000000000000000000000000000000000000000000000 000000000000000000000000000000000000000     00000000                                                                                                                        000000000000000000
F0010000008222600001000090020547900011050500000000000000000201602050002001COMERCIALIZADORA DAC DEL CARIBE S.A.S.            D000000002300000000000000000000000100010010000000000000000000000F0010000008222600120160205000101 00000000000000000000000000000000000000000000000000000000000000000000000000000000000000000000000000000000000000000N 00000000000NCONT   00    00000000000          00000000000000000000000000000000000000000000 000000000000000A000000000000000000000000000000000000000000000 000000000000000000000000000000000000000     00000000                                                                                                                        000000000000000000
F0010000008222600002000090020547900041450500000000000000000201602050002001COMERCIALIZADORA DAC DEL CARIBE S.A.S.            C000000001800000000000000000000000100010010000000000000000000000F0010000008222600220160205000101 00000000000000000000000000000000000000000000000000000000000000000000000000000000000000000000000000000000000000000N 00000000000NCONT   00    00000000000          00000000000000000000000000000000000000000000 000000000000000A000000000000000000000000000000000000000000000 000000000000000000000000000000000000000     00000000                                                                                                                        000000000000000000
F0010000008222600003000090020547900042505000000000000000000201602050002001COMERCIALIZADORA DAC DEL CARIBE S.A.S.            C000000000500000000000000000000000100010010000000000000000000000F0010000008222600320160205000101 00000000000000000000000000000000000000000000000000000000000000000000000000000000000000000000000000000000000000000N 00000000000NCONT   00    00000000000          00000000000000000000000000000000000000000000 000000000000000A000000000000000000000000000000000000000000000 000000000000000000000000000000000000000     00000000                                                                                                                        000000000000000000
F0010000008222600004000090020547900023658300000000000000000201602050002001COMERCIALIZADORA DAC DEL CARIBE S.A.S.            C000000000014400000000000000000000100010010000000000000000000000F0010000008222600420160205000101 00000000000000000000000000000000000000000000000000000000000000000000000000000000000000000000000000000000000000000N 00000000000NCONT   00    00000000000          00000000000000000000000000000000000000000000 000000000000000A000000000000000000000000000000000000000000000 000000000000000000000000000000000000000     00000000                                                                                                                        000000000000000000
F0010000008222600005000090020547900013552100000000000000000201602050002001COMERCIALIZADORA DAC DEL CARIBE S.A.S.            D000000000014400000000000000000000100010010000000000000000000000F0010000008222600520160205000101 00000000000000000000000000000000000000000000000000000000000000000000000000000000000000000000000000000000000000000N 00000000000NCONT   00    00000000000          00000000000000000000000000000000000000000000 000000000000000A000000000000000000000000000000000000000000000 000000000000000000000000000000000000000     00000000                                                                                                                        000000000000000000
F0010000008222700001000090020547900011050500000000000000000201602050002001COMERCIALIZADORA DAC DEL CARIBE S.A.S.            D000000001900000000000000000000000100010010000000000000000000000F0010000008222700120160205000101 00000000000000000000000000000000000000000000000000000000000000000000000000000000000000000000000000000000000000000N 00000000000NCONT   00    00000000000          00000000000000000000000000000000000000000000 000000000000000A000000000000000000000000000000000000000000000 000000000000000000000000000000000000000     00000000                                                                                                                        000000000000000000
F0010000008222700002000090020547900041450500000000000000000201602050002001COMERCIALIZADORA DAC DEL CARIBE S.A.S.            C000000001300000000000000000000000100010010000000000000000000000F0010000008222700220160205000101 00000000000000000000000000000000000000000000000000000000000000000000000000000000000000000000000000000000000000000N 00000000000NCONT   00    00000000000          00000000000000000000000000000000000000000000 000000000000000A000000000000000000000000000000000000000000000 000000000000000000000000000000000000000     00000000                                                                                                                        000000000000000000
F0010000008222700003000090020547900042505000000000000000000201602050002001COMERCIALIZADORA DAC DEL CARIBE S.A.S.            C000000000600000000000000000000000100010010000000000000000000000F0010000008222700320160205000101 00000000000000000000000000000000000000000000000000000000000000000000000000000000000000000000000000000000000000000N 00000000000NCONT   00    00000000000          00000000000000000000000000000000000000000000 000000000000000A000000000000000000000000000000000000000000000 000000000000000000000000000000000000000     00000000                                                                                                                        000000000000000000
F0010000008222700004000090020547900023658300000000000000000201602050002001COMERCIALIZADORA DAC DEL CARIBE S.A.S.            C000000000010400000000000000000000100010010000000000000000000000F0010000008222700420160205000101 00000000000000000000000000000000000000000000000000000000000000000000000000000000000000000000000000000000000000000N 00000000000NCONT   00    00000000000          00000000000000000000000000000000000000000000 000000000000000A000000000000000000000000000000000000000000000 000000000000000000000000000000000000000     00000000                                                                                                                        000000000000000000
F0010000008222700005000090020547900013552100000000000000000201602050002001COMERCIALIZADORA DAC DEL CARIBE S.A.S.            D000000000010400000000000000000000100010010000000000000000000000F0010000008222700520160205000101 00000000000000000000000000000000000000000000000000000000000000000000000000000000000000000000000000000000000000000N 00000000000NCONT   00    00000000000          00000000000000000000000000000000000000000000 000000000000000A000000000000000000000000000000000000000000000 000000000000000000000000000000000000000     00000000                                                                                                                        000000000000000000
F0010000008222800001000080023327700011050500000000000000000201602050002001DISINCO LTDA                                      D000000002000000000000000000000000100010010000000000000000000000F0010000008222800120160205000101 00000000000000000000000000000000000000000000000000000000000000000000000000000000000000000000000000000000000000000N 00000000000NCONT   00    00000000000          00000000000000000000000000000000000000000000 000000000000000A000000000000000000000000000000000000000000000 000000000000000000000000000000000000000     00000000                                                                                                                        000000000000000000
F0010000008222800002000080023327700041450500000000000000000201602050002001DISINCO LTDA                                      C000000001900000000000000000000000100010010000000000000000000000F0010000008222800220160205000101 00000000000000000000000000000000000000000000000000000000000000000000000000000000000000000000000000000000000000000N 00000000000NCONT   00    00000000000          00000000000000000000000000000000000000000000 000000000000000A000000000000000000000000000000000000000000000 000000000000000000000000000000000000000     00000000                                                                                                                        000000000000000000
F0010000008222800003000080023327700042505000000000000000000201602050002001DISINCO LTDA                                      C000000000100000000000000000000000100010010000000000000000000000F0010000008222800320160205000101 00000000000000000000000000000000000000000000000000000000000000000000000000000000000000000000000000000000000000000N 00000000000NCONT   00    00000000000          00000000000000000000000000000000000000000000 000000000000000A000000000000000000000000000000000000000000000 000000000000000000000000000000000000000     00000000                                                                                                                        000000000000000000
F0010000008222800004000080023327700023658300000000000000000201602050002001DISINCO LTDA                                      C000000000015200000000000000000000100010010000000000000000000000F0010000008222800420160205000101 00000000000000000000000000000000000000000000000000000000000000000000000000000000000000000000000000000000000000000N 00000000000NCONT   00    00000000000          00000000000000000000000000000000000000000000 000000000000000A000000000000000000000000000000000000000000000 000000000000000000000000000000000000000     00000000                                                                                                                        000000000000000000
F0010000008222800005000080023327700013552100000000000000000201602050002001DISINCO LTDA                                      D000000000015200000000000000000000100010010000000000000000000000F0010000008222800520160205000101 00000000000000000000000000000000000000000000000000000000000000000000000000000000000000000000000000000000000000000N 00000000000NCONT   00    00000000000          00000000000000000000000000000000000000000000 000000000000000A000000000000000000000000000000000000000000000 000000000000000000000000000000000000000     00000000                                                                                                                        000000000000000000
F0010000008222900001000003287795000011050500000000000000000201602050002001COMERCIALIZADORA KUZMAR                           D000000001550000000000000000000000100010010000000000000000000000F0010000008222900120160205000101 00000000000000000000000000000000000000000000000000000000000000000000000000000000000000000000000000000000000000000N 00000000000NCONT   00    00000000000          00000000000000000000000000000000000000000000 000000000000000A000000000000000000000000000000000000000000000 000000000000000000000000000000000000000     00000000                                                                                                                        000000000000000000
F0010000008222900002000003287795000041450500000000000000000201602050002001COMERCIALIZADORA KUZMAR                           C000000000900000000000000000000000100010010000000000000000000000F0010000008222900220160205000101 00000000000000000000000000000000000000000000000000000000000000000000000000000000000000000000000000000000000000000N 00000000000NCONT   00    00000000000          00000000000000000000000000000000000000000000 000000000000000A000000000000000000000000000000000000000000000 000000000000000000000000000000000000000     00000000                                                                                                                        000000000000000000
F0010000008222900003000003287795000042505000000000000000000201602050002001COMERCIALIZADORA KUZMAR                           C000000000650000000000000000000000100010010000000000000000000000F0010000008222900320160205000101 00000000000000000000000000000000000000000000000000000000000000000000000000000000000000000000000000000000000000000N 00000000000NCONT   00    00000000000          00000000000000000000000000000000000000000000 000000000000000A000000000000000000000000000000000000000000000 000000000000000000000000000000000000000     00000000                                                                                                                        000000000000000000
F0010000008222900004000003287795000023658300000000000000000201602050002001COMERCIALIZADORA KUZMAR                           C000000000007200000000000000000000100010010000000000000000000000F0010000008222900420160205000101 00000000000000000000000000000000000000000000000000000000000000000000000000000000000000000000000000000000000000000N 00000000000NCONT   00    00000000000          00000000000000000000000000000000000000000000 000000000000000A000000000000000000000000000000000000000000000 000000000000000000000000000000000000000     00000000                                                                                                                        000000000000000000
F0010000008222900005000003287795000013552100000000000000000201602050002001COMERCIALIZADORA KUZMAR                           D000000000007200000000000000000000100010010000000000000000000000F0010000008222900520160205000101 00000000000000000000000000000000000000000000000000000000000000000000000000000000000000000000000000000000000000000N 00000000000NCONT   00    00000000000          00000000000000000000000000000000000000000000 000000000000000A000000000000000000000000000000000000000000000 000000000000000000000000000000000000000     00000000                                                                                                                        000000000000000000
F0010000008223000001000083008772100011050500000000000000000201602050002001ILUMEC SAS                                        D000000001000000000000000000000000100010010000000000000000000000F0010000008223000120160205000101 00000000000000000000000000000000000000000000000000000000000000000000000000000000000000000000000000000000000000000N 00000000000NCONT   00    00000000000          00000000000000000000000000000000000000000000 000000000000000A000000000000000000000000000000000000000000000 000000000000000000000000000000000000000     00000000                                                                                                                        000000000000000000
F0010000008223000002000083008772100041450500000000000000000201602050002001ILUMEC SAS                                        C000000000800000000000000000000000100010010000000000000000000000F0010000008223000220160205000101 00000000000000000000000000000000000000000000000000000000000000000000000000000000000000000000000000000000000000000N 00000000000NCONT   00    00000000000          00000000000000000000000000000000000000000000 000000000000000A000000000000000000000000000000000000000000000 000000000000000000000000000000000000000     00000000                                                                                                                        000000000000000000
F0010000008223000003000083008772100042505000000000000000000201602050002001ILUMEC SAS                                        C000000000200000000000000000000000100010010000000000000000000000F0010000008223000320160205000101 00000000000000000000000000000000000000000000000000000000000000000000000000000000000000000000000000000000000000000N 00000000000NCONT   00    00000000000          00000000000000000000000000000000000000000000 000000000000000A000000000000000000000000000000000000000000000 000000000000000000000000000000000000000     00000000                                                                                                                        000000000000000000
F0010000008223000004000083008772100023658300000000000000000201602050002001ILUMEC SAS                                        C000000000006400000000000000000000100010010000000000000000000000F0010000008223000420160205000101 00000000000000000000000000000000000000000000000000000000000000000000000000000000000000000000000000000000000000000N 00000000000NCONT   00    00000000000          00000000000000000000000000000000000000000000 000000000000000A000000000000000000000000000000000000000000000 000000000000000000000000000000000000000     00000000                                                                                                                        000000000000000000
F0010000008223000005000083008772100013552100000000000000000201602050002001ILUMEC SAS                                        D000000000006400000000000000000000100010010000000000000000000000F0010000008223000520160205000101 00000000000000000000000000000000000000000000000000000000000000000000000000000000000000000000000000000000000000000N 00000000000NCONT   00    00000000000          00000000000000000000000000000000000000000000 000000000000000A000000000000000000000000000000000000000000000 000000000000000000000000000000000000000     00000000                                                                                                                        000000000000000000
F0010000008223100001000083008772100011050500000000000000000201602050002001ILUMEC SAS                                        D000000001150000000000000000000000100010010000000000000000000000F0010000008223100120160205000101 00000000000000000000000000000000000000000000000000000000000000000000000000000000000000000000000000000000000000000N 00000000000NCONT   00    00000000000          00000000000000000000000000000000000000000000 000000000000000A000000000000000000000000000000000000000000000 000000000000000000000000000000000000000     00000000                                                                                                                        000000000000000000
F0010000008223100002000083008772100041450500000000000000000201602050002001ILUMEC SAS                                        C000000000800000000000000000000000100010010000000000000000000000F0010000008223100220160205000101 00000000000000000000000000000000000000000000000000000000000000000000000000000000000000000000000000000000000000000N 00000000000NCONT   00    00000000000          00000000000000000000000000000000000000000000 000000000000000A000000000000000000000000000000000000000000000 000000000000000000000000000000000000000     00000000                                                                                                                        000000000000000000
F0010000008223100003000083008772100042505000000000000000000201602050002001ILUMEC SAS                                        C000000000350000000000000000000000100010010000000000000000000000F0010000008223100320160205000101 00000000000000000000000000000000000000000000000000000000000000000000000000000000000000000000000000000000000000000N 00000000000NCONT   00    00000000000          00000000000000000000000000000000000000000000 000000000000000A000000000000000000000000000000000000000000000 000000000000000000000000000000000000000     00000000                                                                                                                        000000000000000000
F0010000008223100004000083008772100023658300000000000000000201602050002001ILUMEC SAS                                        C000000000006400000000000000000000100010010000000000000000000000F0010000008223100420160205000101 00000000000000000000000000000000000000000000000000000000000000000000000000000000000000000000000000000000000000000N 00000000000NCONT   00    00000000000          00000000000000000000000000000000000000000000 000000000000000A000000000000000000000000000000000000000000000 000000000000000000000000000000000000000     00000000                                                                                                                        000000000000000000
F0010000008223100005000083008772100013552100000000000000000201602050002001ILUMEC SAS                                        D000000000006400000000000000000000100010010000000000000000000000F0010000008223100520160205000101 00000000000000000000000000000000000000000000000000000000000000000000000000000000000000000000000000000000000000000N 00000000000NCONT   00    00000000000          00000000000000000000000000000000000000000000 000000000000000A000000000000000000000000000000000000000000000 000000000000000000000000000000000000000     00000000                                                                                                                        000000000000000000
F0010000008223200001000089011078600011050500000000000000000201602050002001DIST. NUEVO MUNDO S.A.S.                          D000000001602500000000000000000000100010010000000000000000000000F0010000008223200120160205000101 00000000000000000000000000000000000000000000000000000000000000000000000000000000000000000000000000000000000000000N 00000000000NCONT   00    00000000000          00000000000000000000000000000000000000000000 000000000000000A000000000000000000000000000000000000000000000 000000000000000000000000000000000000000     00000000                                                                                                                        000000000000000000
F0010000008223200002000089011078600041450500000000000000000201602050002001DIST. NUEVO MUNDO S.A.S.                          C000000001340000000000000000000000100010010000000000000000000000F0010000008223200220160205000101 00000000000000000000000000000000000000000000000000000000000000000000000000000000000000000000000000000000000000000N 00000000000NCONT   00    00000000000          00000000000000000000000000000000000000000000 000000000000000A000000000000000000000000000000000000000000000 000000000000000000000000000000000000000     00000000                                                                                                                        000000000000000000
F0010000008223200003000089011078600042505000000000000000000201602050002001DIST. NUEVO MUNDO S.A.S.                          C000000000262500000000000000000000100010010000000000000000000000F0010000008223200320160205000101 00000000000000000000000000000000000000000000000000000000000000000000000000000000000000000000000000000000000000000N 00000000000NCONT   00    00000000000          00000000000000000000000000000000000000000000 000000000000000A000000000000000000000000000000000000000000000 000000000000000000000000000000000000000     00000000                                                                                                                        000000000000000000
F0010000008223200004000089011078600023658300000000000000000201602050002001DIST. NUEVO MUNDO S.A.S.                          C000000000010700000000000000000000100010010000000000000000000000F0010000008223200420160205000101 00000000000000000000000000000000000000000000000000000000000000000000000000000000000000000000000000000000000000000N 00000000000NCONT   00    00000000000          00000000000000000000000000000000000000000000 000000000000000A000000000000000000000000000000000000000000000 000000000000000000000000000000000000000     00000000                                                                                                                        000000000000000000
F0010000008223200005000089011078600013552100000000000000000201602050002001DIST. NUEVO MUNDO S.A.S.                          D000000000010700000000000000000000100010010000000000000000000000F0010000008223200520160205000101 00000000000000000000000000000000000000000000000000000000000000000000000000000000000000000000000000000000000000000N 00000000000NCONT   00    00000000000          00000000000000000000000000000000000000000000 000000000000000A000000000000000000000000000000000000000000000 000000000000000000000000000000000000000     00000000                                                                                                                        000000000000000000
F0010000008223300001000000431178400011050500000000000000000201602050002001EFRAIN ALVAREZ                                    D000000001240000000000000000000000100010010000000000000000000000F0010000008223300120160205000101 00000000000000000000000000000000000000000000000000000000000000000000000000000000000000000000000000000000000000000N 00000000000NCONT   00    00000000000          00000000000000000000000000000000000000000000 000000000000000A000000000000000000000000000000000000000000000 000000000000000000000000000000000000000     00000000                                                                                                                        000000000000000000
F0010000008223300002000000431178400041450500000000000000000201602050002001EFRAIN ALVAREZ                                    C000000001190000000000000000000000100010010000000000000000000000F0010000008223300220160205000101 00000000000000000000000000000000000000000000000000000000000000000000000000000000000000000000000000000000000000000N 00000000000NCONT   00    00000000000          00000000000000000000000000000000000000000000 000000000000000A000000000000000000000000000000000000000000000 000000000000000000000000000000000000000     00000000                                                                                                                        000000000000000000
F0010000008223300003000000431178400042505000000000000000000201602050002001EFRAIN ALVAREZ                                    C000000000050000000000000000000000100010010000000000000000000000F0010000008223300320160205000101 00000000000000000000000000000000000000000000000000000000000000000000000000000000000000000000000000000000000000000N 00000000000NCONT   00    00000000000          00000000000000000000000000000000000000000000 000000000000000A000000000000000000000000000000000000000000000 000000000000000000000000000000000000000     00000000                                                                                                                        000000000000000000
F0010000008223300004000000431178400023658300000000000000000201602050002001EFRAIN ALVAREZ                                    C000000000009500000000000000000000100010010000000000000000000000F0010000008223300420160205000101 00000000000000000000000000000000000000000000000000000000000000000000000000000000000000000000000000000000000000000N 00000000000NCONT   00    00000000000          00000000000000000000000000000000000000000000 000000000000000A000000000000000000000000000000000000000000000 000000000000000000000000000000000000000     00000000                                                                                                                        000000000000000000
F0010000008223300005000000431178400013552100000000000000000201602050002001EFRAIN ALVAREZ                                    D000000000009500000000000000000000100010010000000000000000000000F0010000008223300520160205000101 00000000000000000000000000000000000000000000000000000000000000000000000000000000000000000000000000000000000000000N 00000000000NCONT   00    00000000000          00000000000000000000000000000000000000000000 000000000000000A000000000000000000000000000000000000000000000 000000000000000000000000000000000000000     00000000                                                                                                                        000000000000000000
F0010000008223400001000000431178400011050500000000000000000201602050002001EFRAIN ALVAREZ                                    D000000002580000000000000000000000100010010000000000000000000000F0010000008223400120160205000101 00000000000000000000000000000000000000000000000000000000000000000000000000000000000000000000000000000000000000000N 00000000000NCONT   00    00000000000          00000000000000000000000000000000000000000000 000000000000000A000000000000000000000000000000000000000000000 000000000000000000000000000000000000000     00000000                                                                                                                        000000000000000000
F0010000008223400002000000431178400041450500000000000000000201602050002001EFRAIN ALVAREZ                                    C000000002380000000000000000000000100010010000000000000000000000F0010000008223400220160205000101 00000000000000000000000000000000000000000000000000000000000000000000000000000000000000000000000000000000000000000N 00000000000NCONT   00    00000000000          00000000000000000000000000000000000000000000 000000000000000A000000000000000000000000000000000000000000000 000000000000000000000000000000000000000     00000000                                                                                                                        000000000000000000
F0010000008223400003000000431178400042505000000000000000000201602050002001EFRAIN ALVAREZ                                    C000000000200000000000000000000000100010010000000000000000000000F0010000008223400320160205000101 00000000000000000000000000000000000000000000000000000000000000000000000000000000000000000000000000000000000000000N 00000000000NCONT   00    00000000000          00000000000000000000000000000000000000000000 000000000000000A000000000000000000000000000000000000000000000 000000000000000000000000000000000000000     00000000                                                                                                                        000000000000000000
F0010000008223400004000000431178400023658300000000000000000201602050002001EFRAIN ALVAREZ                                    C000000000019000000000000000000000100010010000000000000000000000F0010000008223400420160205000101 00000000000000000000000000000000000000000000000000000000000000000000000000000000000000000000000000000000000000000N 00000000000NCONT   00    00000000000          00000000000000000000000000000000000000000000 000000000000000A000000000000000000000000000000000000000000000 000000000000000000000000000000000000000     00000000                                                                                                                        000000000000000000
F0010000008223400005000000431178400013552100000000000000000201602050002001EFRAIN ALVAREZ                                    D000000000019000000000000000000000100010010000000000000000000000F0010000008223400520160205000101 00000000000000000000000000000000000000000000000000000000000000000000000000000000000000000000000000000000000000000N 00000000000NCONT   00    00000000000          00000000000000000000000000000000000000000000 000000000000000A000000000000000000000000000000000000000000000 000000000000000000000000000000000000000     00000000                                                                                                                        000000000000000000
F0010000008223500001000000431178400011050500000000000000000201602050002001EFRAIN ALVAREZ                                    D000000002530000000000000000000000100010010000000000000000000000F0010000008223500120160205000101 00000000000000000000000000000000000000000000000000000000000000000000000000000000000000000000000000000000000000000N 00000000000NCONT   00    00000000000          00000000000000000000000000000000000000000000 000000000000000A000000000000000000000000000000000000000000000 000000000000000000000000000000000000000     00000000                                                                                                                        000000000000000000
F0010000008223500002000000431178400041450500000000000000000201602050002001EFRAIN ALVAREZ                                    C000000002380000000000000000000000100010010000000000000000000000F0010000008223500220160205000101 00000000000000000000000000000000000000000000000000000000000000000000000000000000000000000000000000000000000000000N 00000000000NCONT   00    00000000000          00000000000000000000000000000000000000000000 000000000000000A000000000000000000000000000000000000000000000 000000000000000000000000000000000000000     00000000                                                                                                                        000000000000000000
F0010000008223500003000000431178400042505000000000000000000201602050002001EFRAIN ALVAREZ                                    C000000000150000000000000000000000100010010000000000000000000000F0010000008223500320160205000101 00000000000000000000000000000000000000000000000000000000000000000000000000000000000000000000000000000000000000000N 00000000000NCONT   00    00000000000          00000000000000000000000000000000000000000000 000000000000000A000000000000000000000000000000000000000000000 000000000000000000000000000000000000000     00000000                                                                                                                        000000000000000000
F0010000008223500004000000431178400023658300000000000000000201602050002001EFRAIN ALVAREZ                                    C000000000019000000000000000000000100010010000000000000000000000F0010000008223500420160205000101 00000000000000000000000000000000000000000000000000000000000000000000000000000000000000000000000000000000000000000N 00000000000NCONT   00    00000000000          00000000000000000000000000000000000000000000 000000000000000A000000000000000000000000000000000000000000000 000000000000000000000000000000000000000     00000000                                                                                                                        000000000000000000
F0010000008223500005000000431178400013552100000000000000000201602050002001EFRAIN ALVAREZ                                    D000000000019000000000000000000000100010010000000000000000000000F0010000008223500520160205000101 00000000000000000000000000000000000000000000000000000000000000000000000000000000000000000000000000000000000000000N 00000000000NCONT   00    00000000000          00000000000000000000000000000000000000000000 000000000000000A000000000000000000000000000000000000000000000 000000000000000000000000000000000000000     00000000                                                                                                                        000000000000000000
F0010000008223600001000000431178400011050500000000000000000201602050002001EFRAIN ALVAREZ                                    D000000005600000000000000000000000100010010000000000000000000000F0010000008223600120160205000101 00000000000000000000000000000000000000000000000000000000000000000000000000000000000000000000000000000000000000000N 00000000000NCONT   00    00000000000          00000000000000000000000000000000000000000000 000000000000000A000000000000000000000000000000000000000000000 000000000000000000000000000000000000000     00000000                                                                                                                        000000000000000000
F0010000008223600002000000431178400041450500000000000000000201602050002001EFRAIN ALVAREZ                                    C000000005300000000000000000000000100010010000000000000000000000F0010000008223600220160205000101 00000000000000000000000000000000000000000000000000000000000000000000000000000000000000000000000000000000000000000N 00000000000NCONT   00    00000000000          00000000000000000000000000000000000000000000 000000000000000A000000000000000000000000000000000000000000000 000000000000000000000000000000000000000     00000000                                                                                                                        000000000000000000
F0010000008223600003000000431178400042505000000000000000000201602050002001EFRAIN ALVAREZ                                    C000000000300000000000000000000000100010010000000000000000000000F0010000008223600320160205000101 00000000000000000000000000000000000000000000000000000000000000000000000000000000000000000000000000000000000000000N 00000000000NCONT   00    00000000000          00000000000000000000000000000000000000000000 000000000000000A000000000000000000000000000000000000000000000 000000000000000000000000000000000000000     00000000                                                                                                                        000000000000000000
F0010000008223600004000000431178400023658300000000000000000201602050002001EFRAIN ALVAREZ                                    C000000000042400000000000000000000100010010000000000000000000000F0010000008223600420160205000101 00000000000000000000000000000000000000000000000000000000000000000000000000000000000000000000000000000000000000000N 00000000000NCONT   00    00000000000          00000000000000000000000000000000000000000000 000000000000000A000000000000000000000000000000000000000000000 000000000000000000000000000000000000000     00000000                                                                                                                        000000000000000000
F0010000008223600005000000431178400013552100000000000000000201602050002001EFRAIN ALVAREZ                                    D000000000042400000000000000000000100010010000000000000000000000F0010000008223600520160205000101 00000000000000000000000000000000000000000000000000000000000000000000000000000000000000000000000000000000000000000N 00000000000NCONT   00    00000000000          00000000000000000000000000000000000000000000 000000000000000A000000000000000000000000000000000000000000000 000000000000000000000000000000000000000     00000000                                                                                                                        000000000000000000
F0010000008223700001000000431178400011050500000000000000000201602050002001EFRAIN ALVAREZ                                    D000000008200000000000000000000000100010010000000000000000000000F0010000008223700120160205000101 00000000000000000000000000000000000000000000000000000000000000000000000000000000000000000000000000000000000000000N 00000000000NCONT   00    00000000000          00000000000000000000000000000000000000000000 000000000000000A000000000000000000000000000000000000000000000 000000000000000000000000000000000000000     00000000                                                                                                                        000000000000000000
F0010000008223700002000000431178400041450500000000000000000201602050002001EFRAIN ALVAREZ                                    C000000007950000000000000000000000100010010000000000000000000000F0010000008223700220160205000101 00000000000000000000000000000000000000000000000000000000000000000000000000000000000000000000000000000000000000000N 00000000000NCONT   00    00000000000          00000000000000000000000000000000000000000000 000000000000000A000000000000000000000000000000000000000000000 000000000000000000000000000000000000000     00000000                                                                                                                        000000000000000000
F0010000008223700003000000431178400042505000000000000000000201602050002001EFRAIN ALVAREZ                                    C000000000250000000000000000000000100010010000000000000000000000F0010000008223700320160205000101 00000000000000000000000000000000000000000000000000000000000000000000000000000000000000000000000000000000000000000N 00000000000NCONT   00    00000000000          00000000000000000000000000000000000000000000 000000000000000A000000000000000000000000000000000000000000000 000000000000000000000000000000000000000     00000000                                                                                                                        000000000000000000
F0010000008223700004000000431178400023658300000000000000000201602050002001EFRAIN ALVAREZ                                    C000000000063600000000000000000000100010010000000000000000000000F0010000008223700420160205000101 00000000000000000000000000000000000000000000000000000000000000000000000000000000000000000000000000000000000000000N 00000000000NCONT   00    00000000000          00000000000000000000000000000000000000000000 000000000000000A000000000000000000000000000000000000000000000 000000000000000000000000000000000000000     00000000                                                                                                                        000000000000000000
F0010000008223700005000000431178400013552100000000000000000201602050002001EFRAIN ALVAREZ                                    D000000000063600000000000000000000100010010000000000000000000000F0010000008223700520160205000101 00000000000000000000000000000000000000000000000000000000000000000000000000000000000000000000000000000000000000000N 00000000000NCONT   00    00000000000          00000000000000000000000000000000000000000000 000000000000000A000000000000000000000000000000000000000000000 000000000000000000000000000000000000000     00000000                                                                                                                        000000000000000000
F0010000008223800001000000431178400011050500000000000000000201602050002001EFRAIN ALVAREZ                                    D000000001240000000000000000000000100010010000000000000000000000F0010000008223800120160205000101 00000000000000000000000000000000000000000000000000000000000000000000000000000000000000000000000000000000000000000N 00000000000NCONT   00    00000000000          00000000000000000000000000000000000000000000 000000000000000A000000000000000000000000000000000000000000000 000000000000000000000000000000000000000     00000000                                                                                                                        000000000000000000
F0010000008223800002000000431178400041450500000000000000000201602050002001EFRAIN ALVAREZ                                    C000000001190000000000000000000000100010010000000000000000000000F0010000008223800220160205000101 00000000000000000000000000000000000000000000000000000000000000000000000000000000000000000000000000000000000000000N 00000000000NCONT   00    00000000000          00000000000000000000000000000000000000000000 000000000000000A000000000000000000000000000000000000000000000 000000000000000000000000000000000000000     00000000                                                                                                                        000000000000000000
F0010000008223800003000000431178400042505000000000000000000201602050002001EFRAIN ALVAREZ                                    C000000000050000000000000000000000100010010000000000000000000000F0010000008223800320160205000101 00000000000000000000000000000000000000000000000000000000000000000000000000000000000000000000000000000000000000000N 00000000000NCONT   00    00000000000          00000000000000000000000000000000000000000000 000000000000000A000000000000000000000000000000000000000000000 000000000000000000000000000000000000000     00000000                                                                                                                        000000000000000000
F0010000008223800004000000431178400023658300000000000000000201602050002001EFRAIN ALVAREZ                                    C000000000009500000000000000000000100010010000000000000000000000F0010000008223800420160205000101 00000000000000000000000000000000000000000000000000000000000000000000000000000000000000000000000000000000000000000N 00000000000NCONT   00    00000000000          00000000000000000000000000000000000000000000 000000000000000A000000000000000000000000000000000000000000000 000000000000000000000000000000000000000     00000000                                                                                                                        000000000000000000
F0010000008223800005000000431178400013552100000000000000000201602050002001EFRAIN ALVAREZ                                    D000000000009500000000000000000000100010010000000000000000000000F0010000008223800520160205000101 00000000000000000000000000000000000000000000000000000000000000000000000000000000000000000000000000000000000000000N 00000000000NCONT   00    00000000000          00000000000000000000000000000000000000000000 000000000000000A000000000000000000000000000000000000000000000 000000000000000000000000000000000000000     00000000                                                                                                                        000000000000000000
F0010000008223900001000000431178400011050500000000000000000201602050002001EFRAIN ALVAREZ                                    D000000001240000000000000000000000100010010000000000000000000000F0010000008223900120160205000101 00000000000000000000000000000000000000000000000000000000000000000000000000000000000000000000000000000000000000000N 00000000000NCONT   00    00000000000          00000000000000000000000000000000000000000000 000000000000000A000000000000000000000000000000000000000000000 000000000000000000000000000000000000000     00000000                                                                                                                        000000000000000000
F0010000008223900002000000431178400041450500000000000000000201602050002001EFRAIN ALVAREZ                                    C000000001190000000000000000000000100010010000000000000000000000F0010000008223900220160205000101 00000000000000000000000000000000000000000000000000000000000000000000000000000000000000000000000000000000000000000N 00000000000NCONT   00    00000000000          00000000000000000000000000000000000000000000 000000000000000A000000000000000000000000000000000000000000000 000000000000000000000000000000000000000     00000000                                                                                                                        000000000000000000
F0010000008223900003000000431178400042505000000000000000000201602050002001EFRAIN ALVAREZ                                    C000000000050000000000000000000000100010010000000000000000000000F0010000008223900320160205000101 00000000000000000000000000000000000000000000000000000000000000000000000000000000000000000000000000000000000000000N 00000000000NCONT   00    00000000000          00000000000000000000000000000000000000000000 000000000000000A000000000000000000000000000000000000000000000 000000000000000000000000000000000000000     00000000                                                                                                                        000000000000000000
F0010000008223900004000000431178400023658300000000000000000201602050002001EFRAIN ALVAREZ                                    C000000000009500000000000000000000100010010000000000000000000000F0010000008223900420160205000101 00000000000000000000000000000000000000000000000000000000000000000000000000000000000000000000000000000000000000000N 00000000000NCONT   00    00000000000          00000000000000000000000000000000000000000000 000000000000000A000000000000000000000000000000000000000000000 000000000000000000000000000000000000000     00000000                                                                                                                        000000000000000000
F0010000008223900005000000431178400013552100000000000000000201602050002001EFRAIN ALVAREZ                                    D000000000009500000000000000000000100010010000000000000000000000F0010000008223900520160205000101 00000000000000000000000000000000000000000000000000000000000000000000000000000000000000000000000000000000000000000N 00000000000NCONT   00    00000000000          00000000000000000000000000000000000000000000 000000000000000A000000000000000000000000000000000000000000000 000000000000000000000000000000000000000     00000000                                                                                                                        000000000000000000
F0010000008224000001000004175790100011050500000000000000000201602050002001ROSIRIS FERIA HOYOS  (COSM. SHILLER)              D000000000900000000000000000000000100010010000000000000000000000F0010000008224000120160205000101 00000000000000000000000000000000000000000000000000000000000000000000000000000000000000000000000000000000000000000N 00000000000NCONT   00    00000000000          00000000000000000000000000000000000000000000 000000000000000A000000000000000000000000000000000000000000000 000000000000000000000000000000000000000     00000000                                                                                                                        000000000000000000
F0010000008224000002000004175790100041450500000000000000000201602050002001ROSIRIS FERIA HOYOS  (COSM. SHILLER)              C000000000800000000000000000000000100010010000000000000000000000F0010000008224000220160205000101 00000000000000000000000000000000000000000000000000000000000000000000000000000000000000000000000000000000000000000N 00000000000NCONT   00    00000000000          00000000000000000000000000000000000000000000 000000000000000A000000000000000000000000000000000000000000000 000000000000000000000000000000000000000     00000000                                                                                                                        000000000000000000
F0010000008224000003000004175790100042505000000000000000000201602050002001ROSIRIS FERIA HOYOS  (COSM. SHILLER)              C000000000100000000000000000000000100010010000000000000000000000F0010000008224000320160205000101 00000000000000000000000000000000000000000000000000000000000000000000000000000000000000000000000000000000000000000N 00000000000NCONT   00    00000000000          00000000000000000000000000000000000000000000 000000000000000A000000000000000000000000000000000000000000000 000000000000000000000000000000000000000     00000000                                                                                                                        000000000000000000
F0010000008224000004000004175790100023658300000000000000000201602050002001ROSIRIS FERIA HOYOS  (COSM. SHILLER)              C000000000006400000000000000000000100010010000000000000000000000F0010000008224000420160205000101 00000000000000000000000000000000000000000000000000000000000000000000000000000000000000000000000000000000000000000N 00000000000NCONT   00    00000000000          00000000000000000000000000000000000000000000 000000000000000A000000000000000000000000000000000000000000000 000000000000000000000000000000000000000     00000000                                                                                                                        000000000000000000
F0010000008224000005000004175790100013552100000000000000000201602050002001ROSIRIS FERIA HOYOS  (COSM. SHILLER)              D000000000006400000000000000000000100010010000000000000000000000F0010000008224000520160205000101 00000000000000000000000000000000000000000000000000000000000000000000000000000000000000000000000000000000000000000N 00000000000NCONT   00    00000000000          00000000000000000000000000000000000000000000 000000000000000A000000000000000000000000000000000000000000000 000000000000000000000000000000000000000     00000000                                                                                                                        000000000000000000
F0010000008224100001000004175790100011050500000000000000000201602050002001ROSIRIS FERIA HOYOS  (COSM. SHILLER)              D000000000900000000000000000000000100010010000000000000000000000F0010000008224100120160205000101 00000000000000000000000000000000000000000000000000000000000000000000000000000000000000000000000000000000000000000N 00000000000NCONT   00    00000000000          00000000000000000000000000000000000000000000 000000000000000A000000000000000000000000000000000000000000000 000000000000000000000000000000000000000     00000000                                                                                                                        000000000000000000
F0010000008224100002000004175790100041450500000000000000000201602050002001ROSIRIS FERIA HOYOS  (COSM. SHILLER)              C000000000800000000000000000000000100010010000000000000000000000F0010000008224100220160205000101 00000000000000000000000000000000000000000000000000000000000000000000000000000000000000000000000000000000000000000N 00000000000NCONT   00    00000000000          00000000000000000000000000000000000000000000 000000000000000A000000000000000000000000000000000000000000000 000000000000000000000000000000000000000     00000000                                                                                                                        000000000000000000
