F0010000008004900001000080200049600011050500000000000000000201512090002001FAMAPAN DEL CARIBE                                D000000016000000000000000000000000100010010000000000000000000000F0010000008004900120151209000101 00000000000000000000000000000000000000000000000000000000000000000000000000000000000000000000000000000000000000000N 00000000000NCONT   00    00000000000          00000000000000000000000000000000000000000000 000000000000000A000000000000000000000000000000000000000000000 000000000000000000000000000000000000000     00000000                                                                                                                        000000000000000000
F0010000008004900002000080200049600041450500000000000000000201512090002001FAMAPAN DEL CARIBE                                C000000015000000000000000000000000100010010000000000000000000000F0010000008004900220151209000101 00000000000000000000000000000000000000000000000000000000000000000000000000000000000000000000000000000000000000000N 00000000000NCONT   00    00000000000          00000000000000000000000000000000000000000000 000000000000000A000000000000000000000000000000000000000000000 000000000000000000000000000000000000000     00000000                                                                                                                        000000000000000000
F0010000008004900003000080200049600042505000000000000000000201512090002001FAMAPAN DEL CARIBE                                C000000001000000000000000000000000100010010000000000000000000000F0010000008004900320151209000101 00000000000000000000000000000000000000000000000000000000000000000000000000000000000000000000000000000000000000000N 00000000000NCONT   00    00000000000          00000000000000000000000000000000000000000000 000000000000000A000000000000000000000000000000000000000000000 000000000000000000000000000000000000000     00000000                                                                                                                        000000000000000000
F0010000008004900004000080200049600023658300000000000000000201512090002001FAMAPAN DEL CARIBE                                C000000000120000000000000000000000100010010000000000000000000000F0010000008004900420151209000101 00000000000000000000000000000000000000000000000000000000000000000000000000000000000000000000000000000000000000000N 00000000000NCONT   00    00000000000          00000000000000000000000000000000000000000000 000000000000000A000000000000000000000000000000000000000000000 000000000000000000000000000000000000000     00000000                                                                                                                        000000000000000000
F0010000008004900005000080200049600013552100000000000000000201512090002001FAMAPAN DEL CARIBE                                D000000000120000000000000000000000100010010000000000000000000000F0010000008004900520151209000101 00000000000000000000000000000000000000000000000000000000000000000000000000000000000000000000000000000000000000000N 00000000000NCONT   00    00000000000          00000000000000000000000000000000000000000000 000000000000000A000000000000000000000000000000000000000000000 000000000000000000000000000000000000000     00000000                                                                                                                        000000000000000000
F0010000008005000001000000871745700011050500000000000000000201512090002001CONFECCIONES ORO SPORT 33                         D000000002700000000000000000000000100010010000000000000000000000F0010000008005000120151209000101 00000000000000000000000000000000000000000000000000000000000000000000000000000000000000000000000000000000000000000N 00000000000NCONT   00    00000000000          00000000000000000000000000000000000000000000 000000000000000A000000000000000000000000000000000000000000000 000000000000000000000000000000000000000     00000000                                                                                                                        000000000000000000
F0010000008005000002000000871745700041450500000000000000000201512090002001CONFECCIONES ORO SPORT 33                         C000000001200000000000000000000000100010010000000000000000000000F0010000008005000220151209000101 00000000000000000000000000000000000000000000000000000000000000000000000000000000000000000000000000000000000000000N 00000000000NCONT   00    00000000000          00000000000000000000000000000000000000000000 000000000000000A000000000000000000000000000000000000000000000 000000000000000000000000000000000000000     00000000                                                                                                                        000000000000000000
F0010000008005000003000000871745700042505000000000000000000201512090002001CONFECCIONES ORO SPORT 33                         C000000001500000000000000000000000100010010000000000000000000000F0010000008005000320151209000101 00000000000000000000000000000000000000000000000000000000000000000000000000000000000000000000000000000000000000000N 00000000000NCONT   00    00000000000          00000000000000000000000000000000000000000000 000000000000000A000000000000000000000000000000000000000000000 000000000000000000000000000000000000000     00000000                                                                                                                        000000000000000000
F0010000008005000004000000871745700023658300000000000000000201512090002001CONFECCIONES ORO SPORT 33                         C000000000009600000000000000000000100010010000000000000000000000F0010000008005000420151209000101 00000000000000000000000000000000000000000000000000000000000000000000000000000000000000000000000000000000000000000N 00000000000NCONT   00    00000000000          00000000000000000000000000000000000000000000 000000000000000A000000000000000000000000000000000000000000000 000000000000000000000000000000000000000     00000000                                                                                                                        000000000000000000
F0010000008005000005000000871745700013552100000000000000000201512090002001CONFECCIONES ORO SPORT 33                         D000000000009600000000000000000000100010010000000000000000000000F0010000008005000520151209000101 00000000000000000000000000000000000000000000000000000000000000000000000000000000000000000000000000000000000000000N 00000000000NCONT   00    00000000000          00000000000000000000000000000000000000000000 000000000000000A000000000000000000000000000000000000000000000 000000000000000000000000000000000000000     00000000                                                                                                                        000000000000000000
F0010000008005100001000090054403300011050500000000000000000201512090002001CLIMAIRES Y SERVICIOS S.A.S                       D000000004000000000000000000000000100010010000000000000000000000F0010000008005100120151209000101 00000000000000000000000000000000000000000000000000000000000000000000000000000000000000000000000000000000000000000N 00000000000NCONT   00    00000000000          00000000000000000000000000000000000000000000 000000000000000A000000000000000000000000000000000000000000000 000000000000000000000000000000000000000     00000000                                                                                                                        000000000000000000
F0010000008005100002000090054403300041450500000000000000000201512090002001CLIMAIRES Y SERVICIOS S.A.S                       C000000003500000000000000000000000100010010000000000000000000000F0010000008005100220151209000101 00000000000000000000000000000000000000000000000000000000000000000000000000000000000000000000000000000000000000000N 00000000000NCONT   00    00000000000          00000000000000000000000000000000000000000000 000000000000000A000000000000000000000000000000000000000000000 000000000000000000000000000000000000000     00000000                                                                                                                        000000000000000000
F0010000008005100003000090054403300042505000000000000000000201512090002001CLIMAIRES Y SERVICIOS S.A.S                       C000000000500000000000000000000000100010010000000000000000000000F0010000008005100320151209000101 00000000000000000000000000000000000000000000000000000000000000000000000000000000000000000000000000000000000000000N 00000000000NCONT   00    00000000000          00000000000000000000000000000000000000000000 000000000000000A000000000000000000000000000000000000000000000 000000000000000000000000000000000000000     00000000                                                                                                                        000000000000000000
F0010000008005100004000090054403300023658300000000000000000201512090002001CLIMAIRES Y SERVICIOS S.A.S                       C000000000028000000000000000000000100010010000000000000000000000F0010000008005100420151209000101 00000000000000000000000000000000000000000000000000000000000000000000000000000000000000000000000000000000000000000N 00000000000NCONT   00    00000000000          00000000000000000000000000000000000000000000 000000000000000A000000000000000000000000000000000000000000000 000000000000000000000000000000000000000     00000000                                                                                                                        000000000000000000
F0010000008005100005000090054403300013552100000000000000000201512090002001CLIMAIRES Y SERVICIOS S.A.S                       D000000000028000000000000000000000100010010000000000000000000000F0010000008005100520151209000101 00000000000000000000000000000000000000000000000000000000000000000000000000000000000000000000000000000000000000000N 00000000000NCONT   00    00000000000          00000000000000000000000000000000000000000000 000000000000000A000000000000000000000000000000000000000000000 000000000000000000000000000000000000000     00000000                                                                                                                        000000000000000000
F0010000008005200001000001129329000011050500000000000000000201512090002001CUPERTINO PAEZ MONTOYA                            D000000001200000000000000000000000100010010000000000000000000000F0010000008005200120151209000101 00000000000000000000000000000000000000000000000000000000000000000000000000000000000000000000000000000000000000000N 00000000000NCONT   00    00000000000          00000000000000000000000000000000000000000000 000000000000000A000000000000000000000000000000000000000000000 000000000000000000000000000000000000000     00000000                                                                                                                        000000000000000000
F0010000008005200002000001129329000041450500000000000000000201512090002001CUPERTINO PAEZ MONTOYA                            C000000001100000000000000000000000100010010000000000000000000000F0010000008005200220151209000101 00000000000000000000000000000000000000000000000000000000000000000000000000000000000000000000000000000000000000000N 00000000000NCONT   00    00000000000          00000000000000000000000000000000000000000000 000000000000000A000000000000000000000000000000000000000000000 000000000000000000000000000000000000000     00000000                                                                                                                        000000000000000000
F0010000008005200003000001129329000042505000000000000000000201512090002001CUPERTINO PAEZ MONTOYA                            C000000000100000000000000000000000100010010000000000000000000000F0010000008005200320151209000101 00000000000000000000000000000000000000000000000000000000000000000000000000000000000000000000000000000000000000000N 00000000000NCONT   00    00000000000          00000000000000000000000000000000000000000000 000000000000000A000000000000000000000000000000000000000000000 000000000000000000000000000000000000000     00000000                                                                                                                        000000000000000000
F0010000008005200004000001129329000023658300000000000000000201512090002001CUPERTINO PAEZ MONTOYA                            C000000000008800000000000000000000100010010000000000000000000000F0010000008005200420151209000101 00000000000000000000000000000000000000000000000000000000000000000000000000000000000000000000000000000000000000000N 00000000000NCONT   00    00000000000          00000000000000000000000000000000000000000000 000000000000000A000000000000000000000000000000000000000000000 000000000000000000000000000000000000000     00000000                                                                                                                        000000000000000000
F0010000008005200005000001129329000013552100000000000000000201512090002001CUPERTINO PAEZ MONTOYA                            D000000000008800000000000000000000100010010000000000000000000000F0010000008005200520151209000101 00000000000000000000000000000000000000000000000000000000000000000000000000000000000000000000000000000000000000000N 00000000000NCONT   00    00000000000          00000000000000000000000000000000000000000000 000000000000000A000000000000000000000000000000000000000000000 000000000000000000000000000000000000000     00000000                                                                                                                        000000000000000000
F0010000008005300001000001129329000011050500000000000000000201512090002001CUPERTINO PAEZ MONTOYA                            D000000001200000000000000000000000100010010000000000000000000000F0010000008005300120151209000101 00000000000000000000000000000000000000000000000000000000000000000000000000000000000000000000000000000000000000000N 00000000000NCONT   00    00000000000          00000000000000000000000000000000000000000000 000000000000000A000000000000000000000000000000000000000000000 000000000000000000000000000000000000000     00000000                                                                                                                        000000000000000000
F0010000008005300002000001129329000041450500000000000000000201512090002001CUPERTINO PAEZ MONTOYA                            C000000001100000000000000000000000100010010000000000000000000000F0010000008005300220151209000101 00000000000000000000000000000000000000000000000000000000000000000000000000000000000000000000000000000000000000000N 00000000000NCONT   00    00000000000          00000000000000000000000000000000000000000000 000000000000000A000000000000000000000000000000000000000000000 000000000000000000000000000000000000000     00000000                                                                                                                        000000000000000000
F0010000008005300003000001129329000042505000000000000000000201512090002001CUPERTINO PAEZ MONTOYA                            C000000000100000000000000000000000100010010000000000000000000000F0010000008005300320151209000101 00000000000000000000000000000000000000000000000000000000000000000000000000000000000000000000000000000000000000000N 00000000000NCONT   00    00000000000          00000000000000000000000000000000000000000000 000000000000000A000000000000000000000000000000000000000000000 000000000000000000000000000000000000000     00000000                                                                                                                        000000000000000000
F0010000008005300004000001129329000023658300000000000000000201512090002001CUPERTINO PAEZ MONTOYA                            C000000000008800000000000000000000100010010000000000000000000000F0010000008005300420151209000101 00000000000000000000000000000000000000000000000000000000000000000000000000000000000000000000000000000000000000000N 00000000000NCONT   00    00000000000          00000000000000000000000000000000000000000000 000000000000000A000000000000000000000000000000000000000000000 000000000000000000000000000000000000000     00000000                                                                                                                        000000000000000000
F0010000008005300005000001129329000013552100000000000000000201512090002001CUPERTINO PAEZ MONTOYA                            D000000000008800000000000000000000100010010000000000000000000000F0010000008005300520151209000101 00000000000000000000000000000000000000000000000000000000000000000000000000000000000000000000000000000000000000000N 00000000000NCONT   00    00000000000          00000000000000000000000000000000000000000000 000000000000000A000000000000000000000000000000000000000000000 000000000000000000000000000000000000000     00000000                                                                                                                        000000000000000000
F0010000008005400001000000869402400011050500000000000000000201512090002001ISRAEL MANGA                                      D000000001700000000000000000000000100010010000000000000000000000F0010000008005400120151209000101 00000000000000000000000000000000000000000000000000000000000000000000000000000000000000000000000000000000000000000N 00000000000NCONT   00    00000000000          00000000000000000000000000000000000000000000 000000000000000A000000000000000000000000000000000000000000000 000000000000000000000000000000000000000     00000000                                                                                                                        000000000000000000
F0010000008005400002000000869402400041450500000000000000000201512090002001ISRAEL MANGA                                      C000000001500000000000000000000000100010010000000000000000000000F0010000008005400220151209000101 00000000000000000000000000000000000000000000000000000000000000000000000000000000000000000000000000000000000000000N 00000000000NCONT   00    00000000000          00000000000000000000000000000000000000000000 000000000000000A000000000000000000000000000000000000000000000 000000000000000000000000000000000000000     00000000                                                                                                                        000000000000000000
F0010000008005400003000000869402400042505000000000000000000201512090002001ISRAEL MANGA                                      C000000000200000000000000000000000100010010000000000000000000000F0010000008005400320151209000101 00000000000000000000000000000000000000000000000000000000000000000000000000000000000000000000000000000000000000000N 00000000000NCONT   00    00000000000          00000000000000000000000000000000000000000000 000000000000000A000000000000000000000000000000000000000000000 000000000000000000000000000000000000000     00000000                                                                                                                        000000000000000000
F0010000008005400004000000869402400023658300000000000000000201512090002001ISRAEL MANGA                                      C000000000012000000000000000000000100010010000000000000000000000F0010000008005400420151209000101 00000000000000000000000000000000000000000000000000000000000000000000000000000000000000000000000000000000000000000N 00000000000NCONT   00    00000000000          00000000000000000000000000000000000000000000 000000000000000A000000000000000000000000000000000000000000000 000000000000000000000000000000000000000     00000000                                                                                                                        000000000000000000
F0010000008005400005000000869402400013552100000000000000000201512090002001ISRAEL MANGA                                      D000000000012000000000000000000000100010010000000000000000000000F0010000008005400520151209000101 00000000000000000000000000000000000000000000000000000000000000000000000000000000000000000000000000000000000000000N 00000000000NCONT   00    00000000000          00000000000000000000000000000000000000000000 000000000000000A000000000000000000000000000000000000000000000 000000000000000000000000000000000000000     00000000                                                                                                                        000000000000000000
F0010000008005500001000000917734000011050500000000000000000201512090002001ENRIQUE LARA ..                                   D000000003000000000000000000000000100010010000000000000000000000F0010000008005500120151209000101 00000000000000000000000000000000000000000000000000000000000000000000000000000000000000000000000000000000000000000N 00000000000NCONT   00    00000000000          00000000000000000000000000000000000000000000 000000000000000A000000000000000000000000000000000000000000000 000000000000000000000000000000000000000     00000000                                                                                                                        000000000000000000
F0010000008005500002000000917734000041450500000000000000000201512090002001ENRIQUE LARA ..                                   C000000002500000000000000000000000100010010000000000000000000000F0010000008005500220151209000101 00000000000000000000000000000000000000000000000000000000000000000000000000000000000000000000000000000000000000000N 00000000000NCONT   00    00000000000          00000000000000000000000000000000000000000000 000000000000000A000000000000000000000000000000000000000000000 000000000000000000000000000000000000000     00000000                                                                                                                        000000000000000000
F0010000008005500003000000917734000042505000000000000000000201512090002001ENRIQUE LARA ..                                   C000000000500000000000000000000000100010010000000000000000000000F0010000008005500320151209000101 00000000000000000000000000000000000000000000000000000000000000000000000000000000000000000000000000000000000000000N 00000000000NCONT   00    00000000000          00000000000000000000000000000000000000000000 000000000000000A000000000000000000000000000000000000000000000 000000000000000000000000000000000000000     00000000                                                                                                                        000000000000000000
F0010000008005500004000000917734000023658300000000000000000201512090002001ENRIQUE LARA ..                                   C000000000020000000000000000000000100010010000000000000000000000F0010000008005500420151209000101 00000000000000000000000000000000000000000000000000000000000000000000000000000000000000000000000000000000000000000N 00000000000NCONT   00    00000000000          00000000000000000000000000000000000000000000 000000000000000A000000000000000000000000000000000000000000000 000000000000000000000000000000000000000     00000000                                                                                                                        000000000000000000
F0010000008005500005000000917734000013552100000000000000000201512090002001ENRIQUE LARA ..                                   D000000000020000000000000000000000100010010000000000000000000000F0010000008005500520151209000101 00000000000000000000000000000000000000000000000000000000000000000000000000000000000000000000000000000000000000000N 00000000000NCONT   00    00000000000          00000000000000000000000000000000000000000000 000000000000000A000000000000000000000000000000000000000000000 000000000000000000000000000000000000000     00000000                                                                                                                        000000000000000000
F0010000008005600001000090034602400011050500000000000000000201512090002001PRODUCTOS NACIONALES PARAFINICOS LA CUSTODIA S.A.SD000000005000000000000000000000000100010010000000000000000000000F0010000008005600120151209000101 00000000000000000000000000000000000000000000000000000000000000000000000000000000000000000000000000000000000000000N 00000000000NCONT   00    00000000000          00000000000000000000000000000000000000000000 000000000000000A000000000000000000000000000000000000000000000 000000000000000000000000000000000000000     00000000                                                                                                                        000000000000000000
F0010000008005600002000090034602400041450500000000000000000201512090002001PRODUCTOS NACIONALES PARAFINICOS LA CUSTODIA S.A.SC000000004500000000000000000000000100010010000000000000000000000F0010000008005600220151209000101 00000000000000000000000000000000000000000000000000000000000000000000000000000000000000000000000000000000000000000N 00000000000NCONT   00    00000000000          00000000000000000000000000000000000000000000 000000000000000A000000000000000000000000000000000000000000000 000000000000000000000000000000000000000     00000000                                                                                                                        000000000000000000
F0010000008005600003000090034602400042505000000000000000000201512090002001PRODUCTOS NACIONALES PARAFINICOS LA CUSTODIA S.A.SC000000000500000000000000000000000100010010000000000000000000000F0010000008005600320151209000101 00000000000000000000000000000000000000000000000000000000000000000000000000000000000000000000000000000000000000000N 00000000000NCONT   00    00000000000          00000000000000000000000000000000000000000000 000000000000000A000000000000000000000000000000000000000000000 000000000000000000000000000000000000000     00000000                                                                                                                        000000000000000000
F0010000008005600004000090034602400023658300000000000000000201512090002001PRODUCTOS NACIONALES PARAFINICOS LA CUSTODIA S.A.SC000000000036000000000000000000000100010010000000000000000000000F0010000008005600420151209000101 00000000000000000000000000000000000000000000000000000000000000000000000000000000000000000000000000000000000000000N 00000000000NCONT   00    00000000000          00000000000000000000000000000000000000000000 000000000000000A000000000000000000000000000000000000000000000 000000000000000000000000000000000000000     00000000                                                                                                                        000000000000000000
F0010000008005600005000090034602400013552100000000000000000201512090002001PRODUCTOS NACIONALES PARAFINICOS LA CUSTODIA S.A.SD000000000036000000000000000000000100010010000000000000000000000F0010000008005600520151209000101 00000000000000000000000000000000000000000000000000000000000000000000000000000000000000000000000000000000000000000N 00000000000NCONT   00    00000000000          00000000000000000000000000000000000000000000 000000000000000A000000000000000000000000000000000000000000000 000000000000000000000000000000000000000     00000000                                                                                                                        000000000000000000
F0010000008005700001000002239856200011050500000000000000000201512090002001PURA BALLESTAS GUTIERREZ                          D000000001100000000000000000000000100010010000000000000000000000F0010000008005700120151209000101 00000000000000000000000000000000000000000000000000000000000000000000000000000000000000000000000000000000000000000N 00000000000NCONT   00    00000000000          00000000000000000000000000000000000000000000 000000000000000A000000000000000000000000000000000000000000000 000000000000000000000000000000000000000     00000000                                                                                                                        000000000000000000
F0010000008005700002000002239856200041450500000000000000000201512090002001PURA BALLESTAS GUTIERREZ                          C000000001000000000000000000000000100010010000000000000000000000F0010000008005700220151209000101 00000000000000000000000000000000000000000000000000000000000000000000000000000000000000000000000000000000000000000N 00000000000NCONT   00    00000000000          00000000000000000000000000000000000000000000 000000000000000A000000000000000000000000000000000000000000000 000000000000000000000000000000000000000     00000000                                                                                                                        000000000000000000
F0010000008005700003000002239856200042505000000000000000000201512090002001PURA BALLESTAS GUTIERREZ                          C000000000100000000000000000000000100010010000000000000000000000F0010000008005700320151209000101 00000000000000000000000000000000000000000000000000000000000000000000000000000000000000000000000000000000000000000N 00000000000NCONT   00    00000000000          00000000000000000000000000000000000000000000 000000000000000A000000000000000000000000000000000000000000000 000000000000000000000000000000000000000     00000000                                                                                                                        000000000000000000
F0010000008005700004000002239856200023658300000000000000000201512090002001PURA BALLESTAS GUTIERREZ                          C000000000008000000000000000000000100010010000000000000000000000F0010000008005700420151209000101 00000000000000000000000000000000000000000000000000000000000000000000000000000000000000000000000000000000000000000N 00000000000NCONT   00    00000000000          00000000000000000000000000000000000000000000 000000000000000A000000000000000000000000000000000000000000000 000000000000000000000000000000000000000     00000000                                                                                                                        000000000000000000
F0010000008005700005000002239856200013552100000000000000000201512090002001PURA BALLESTAS GUTIERREZ                          D000000000008000000000000000000000100010010000000000000000000000F0010000008005700520151209000101 00000000000000000000000000000000000000000000000000000000000000000000000000000000000000000000000000000000000000000N 00000000000NCONT   00    00000000000          00000000000000000000000000000000000000000000 000000000000000A000000000000000000000000000000000000000000000 000000000000000000000000000000000000000     00000000                                                                                                                        000000000000000000
F0010000008005800001000002239856200011050500000000000000000201512090002001PURA BALLESTAS GUTIERREZ                          D000000001100000000000000000000000100010010000000000000000000000F0010000008005800120151209000101 00000000000000000000000000000000000000000000000000000000000000000000000000000000000000000000000000000000000000000N 00000000000NCONT   00    00000000000          00000000000000000000000000000000000000000000 000000000000000A000000000000000000000000000000000000000000000 000000000000000000000000000000000000000     00000000                                                                                                                        000000000000000000
F0010000008005800002000002239856200041450500000000000000000201512090002001PURA BALLESTAS GUTIERREZ                          C000000001000000000000000000000000100010010000000000000000000000F0010000008005800220151209000101 00000000000000000000000000000000000000000000000000000000000000000000000000000000000000000000000000000000000000000N 00000000000NCONT   00    00000000000          00000000000000000000000000000000000000000000 000000000000000A000000000000000000000000000000000000000000000 000000000000000000000000000000000000000     00000000                                                                                                                        000000000000000000
F0010000008005800003000002239856200042505000000000000000000201512090002001PURA BALLESTAS GUTIERREZ                          C000000000100000000000000000000000100010010000000000000000000000F0010000008005800320151209000101 00000000000000000000000000000000000000000000000000000000000000000000000000000000000000000000000000000000000000000N 00000000000NCONT   00    00000000000          00000000000000000000000000000000000000000000 000000000000000A000000000000000000000000000000000000000000000 000000000000000000000000000000000000000     00000000                                                                                                                        000000000000000000
F0010000008005800004000002239856200023658300000000000000000201512090002001PURA BALLESTAS GUTIERREZ                          C000000000008000000000000000000000100010010000000000000000000000F0010000008005800420151209000101 00000000000000000000000000000000000000000000000000000000000000000000000000000000000000000000000000000000000000000N 00000000000NCONT   00    00000000000          00000000000000000000000000000000000000000000 000000000000000A000000000000000000000000000000000000000000000 000000000000000000000000000000000000000     00000000                                                                                                                        000000000000000000
F0010000008005800005000002239856200013552100000000000000000201512090002001PURA BALLESTAS GUTIERREZ                          D000000000008000000000000000000000100010010000000000000000000000F0010000008005800520151209000101 00000000000000000000000000000000000000000000000000000000000000000000000000000000000000000000000000000000000000000N 00000000000NCONT   00    00000000000          00000000000000000000000000000000000000000000 000000000000000A000000000000000000000000000000000000000000000 000000000000000000000000000000000000000     00000000                                                                                                                        000000000000000000
F0010000008005900001000000744496800011050500000000000000000201512090002001TOMAS SANCHEZ                                     D000000001000000000000000000000000100010010000000000000000000000F0010000008005900120151209000101 00000000000000000000000000000000000000000000000000000000000000000000000000000000000000000000000000000000000000000N 00000000000NCONT   00    00000000000          00000000000000000000000000000000000000000000 000000000000000A000000000000000000000000000000000000000000000 000000000000000000000000000000000000000     00000000                                                                                                                        000000000000000000
F0010000008005900002000000744496800041450500000000000000000201512090002001TOMAS SANCHEZ                                     C000000000900000000000000000000000100010010000000000000000000000F0010000008005900220151209000101 00000000000000000000000000000000000000000000000000000000000000000000000000000000000000000000000000000000000000000N 00000000000NCONT   00    00000000000          00000000000000000000000000000000000000000000 000000000000000A000000000000000000000000000000000000000000000 000000000000000000000000000000000000000     00000000                                                                                                                        000000000000000000
F0010000008005900003000000744496800042505000000000000000000201512090002001TOMAS SANCHEZ                                     C000000000100000000000000000000000100010010000000000000000000000F0010000008005900320151209000101 00000000000000000000000000000000000000000000000000000000000000000000000000000000000000000000000000000000000000000N 00000000000NCONT   00    00000000000          00000000000000000000000000000000000000000000 000000000000000A000000000000000000000000000000000000000000000 000000000000000000000000000000000000000     00000000                                                                                                                        000000000000000000
F0010000008005900004000000744496800023658300000000000000000201512090002001TOMAS SANCHEZ                                     C000000000007200000000000000000000100010010000000000000000000000F0010000008005900420151209000101 00000000000000000000000000000000000000000000000000000000000000000000000000000000000000000000000000000000000000000N 00000000000NCONT   00    00000000000          00000000000000000000000000000000000000000000 000000000000000A000000000000000000000000000000000000000000000 000000000000000000000000000000000000000     00000000                                                                                                                        000000000000000000
F0010000008005900005000000744496800013552100000000000000000201512090002001TOMAS SANCHEZ                                     D000000000007200000000000000000000100010010000000000000000000000F0010000008005900520151209000101 00000000000000000000000000000000000000000000000000000000000000000000000000000000000000000000000000000000000000000N 00000000000NCONT   00    00000000000          00000000000000000000000000000000000000000000 000000000000000A000000000000000000000000000000000000000000000 000000000000000000000000000000000000000     00000000                                                                                                                        000000000000000000
F0010000008006000001000002239856200011050500000000000000000201512090002001PURA BALLESTAS GUTIERREZ                          D000000002100000000000000000000000100010010000000000000000000000F0010000008006000120151209000101 00000000000000000000000000000000000000000000000000000000000000000000000000000000000000000000000000000000000000000N 00000000000NCONT   00    00000000000          00000000000000000000000000000000000000000000 000000000000000A000000000000000000000000000000000000000000000 000000000000000000000000000000000000000     00000000                                                                                                                        000000000000000000
F0010000008006000002000002239856200041450500000000000000000201512090002001PURA BALLESTAS GUTIERREZ                          C000000002000000000000000000000000100010010000000000000000000000F0010000008006000220151209000101 00000000000000000000000000000000000000000000000000000000000000000000000000000000000000000000000000000000000000000N 00000000000NCONT   00    00000000000          00000000000000000000000000000000000000000000 000000000000000A000000000000000000000000000000000000000000000 000000000000000000000000000000000000000     00000000                                                                                                                        000000000000000000
F0010000008006000003000002239856200042505000000000000000000201512090002001PURA BALLESTAS GUTIERREZ                          C000000000100000000000000000000000100010010000000000000000000000F0010000008006000320151209000101 00000000000000000000000000000000000000000000000000000000000000000000000000000000000000000000000000000000000000000N 00000000000NCONT   00    00000000000          00000000000000000000000000000000000000000000 000000000000000A000000000000000000000000000000000000000000000 000000000000000000000000000000000000000     00000000                                                                                                                        000000000000000000
F0010000008006000004000002239856200023658300000000000000000201512090002001PURA BALLESTAS GUTIERREZ                          C000000000016000000000000000000000100010010000000000000000000000F0010000008006000420151209000101 00000000000000000000000000000000000000000000000000000000000000000000000000000000000000000000000000000000000000000N 00000000000NCONT   00    00000000000          00000000000000000000000000000000000000000000 000000000000000A000000000000000000000000000000000000000000000 000000000000000000000000000000000000000     00000000                                                                                                                        000000000000000000
F0010000008006000005000002239856200013552100000000000000000201512090002001PURA BALLESTAS GUTIERREZ                          D000000000016000000000000000000000100010010000000000000000000000F0010000008006000520151209000101 00000000000000000000000000000000000000000000000000000000000000000000000000000000000000000000000000000000000000000N 00000000000NCONT   00    00000000000          00000000000000000000000000000000000000000000 000000000000000A000000000000000000000000000000000000000000000 000000000000000000000000000000000000000     00000000                                                                                                                        000000000000000000
F0010000008006100001000000742399700011050500000000000000000201512090002001CACHARRERIA EL NUEVO CHADID                       D000000002000000000000000000000000100010010000000000000000000000F0010000008006100120151209000101 00000000000000000000000000000000000000000000000000000000000000000000000000000000000000000000000000000000000000000N 00000000000NCONT   00    00000000000          00000000000000000000000000000000000000000000 000000000000000A000000000000000000000000000000000000000000000 000000000000000000000000000000000000000     00000000                                                                                                                        000000000000000000
F0010000008006100002000000742399700041450500000000000000000201512090002001CACHARRERIA EL NUEVO CHADID                       C000000001600000000000000000000000100010010000000000000000000000F0010000008006100220151209000101 00000000000000000000000000000000000000000000000000000000000000000000000000000000000000000000000000000000000000000N 00000000000NCONT   00    00000000000          00000000000000000000000000000000000000000000 000000000000000A000000000000000000000000000000000000000000000 000000000000000000000000000000000000000     00000000                                                                                                                        000000000000000000
F0010000008006100003000000742399700042505000000000000000000201512090002001CACHARRERIA EL NUEVO CHADID                       C000000000400000000000000000000000100010010000000000000000000000F0010000008006100320151209000101 00000000000000000000000000000000000000000000000000000000000000000000000000000000000000000000000000000000000000000N 00000000000NCONT   00    00000000000          00000000000000000000000000000000000000000000 000000000000000A000000000000000000000000000000000000000000000 000000000000000000000000000000000000000     00000000                                                                                                                        000000000000000000
F0010000008006100004000000742399700023658300000000000000000201512090002001CACHARRERIA EL NUEVO CHADID                       C000000000012800000000000000000000100010010000000000000000000000F0010000008006100420151209000101 00000000000000000000000000000000000000000000000000000000000000000000000000000000000000000000000000000000000000000N 00000000000NCONT   00    00000000000          00000000000000000000000000000000000000000000 000000000000000A000000000000000000000000000000000000000000000 000000000000000000000000000000000000000     00000000                                                                                                                        000000000000000000
F0010000008006100005000000742399700013552100000000000000000201512090002001CACHARRERIA EL NUEVO CHADID                       D000000000012800000000000000000000100010010000000000000000000000F0010000008006100520151209000101 00000000000000000000000000000000000000000000000000000000000000000000000000000000000000000000000000000000000000000N 00000000000NCONT   00    00000000000          00000000000000000000000000000000000000000000 000000000000000A000000000000000000000000000000000000000000000 000000000000000000000000000000000000000     00000000                                                                                                                        000000000000000000
F0010000008006200001000080012418800011050500000000000000000201512090002001DISTRITEC S.A.S                                   D000000001950000000000000000000000100010010000000000000000000000F0010000008006200120151209000101 00000000000000000000000000000000000000000000000000000000000000000000000000000000000000000000000000000000000000000N 00000000000NCONT   00    00000000000          00000000000000000000000000000000000000000000 000000000000000A000000000000000000000000000000000000000000000 000000000000000000000000000000000000000     00000000                                                                                                                        000000000000000000
F0010000008006200002000080012418800041450500000000000000000201512090002001DISTRITEC S.A.S                                   C000000001700000000000000000000000100010010000000000000000000000F0010000008006200220151209000101 00000000000000000000000000000000000000000000000000000000000000000000000000000000000000000000000000000000000000000N 00000000000NCONT   00    00000000000          00000000000000000000000000000000000000000000 000000000000000A000000000000000000000000000000000000000000000 000000000000000000000000000000000000000     00000000                                                                                                                        000000000000000000
F0010000008006200003000080012418800042505000000000000000000201512090002001DISTRITEC S.A.S                                   C000000000250000000000000000000000100010010000000000000000000000F0010000008006200320151209000101 00000000000000000000000000000000000000000000000000000000000000000000000000000000000000000000000000000000000000000N 00000000000NCONT   00    00000000000          00000000000000000000000000000000000000000000 000000000000000A000000000000000000000000000000000000000000000 000000000000000000000000000000000000000     00000000                                                                                                                        000000000000000000
F0010000008006200004000080012418800023658300000000000000000201512090002001DISTRITEC S.A.S                                   C000000000013600000000000000000000100010010000000000000000000000F0010000008006200420151209000101 00000000000000000000000000000000000000000000000000000000000000000000000000000000000000000000000000000000000000000N 00000000000NCONT   00    00000000000          00000000000000000000000000000000000000000000 000000000000000A000000000000000000000000000000000000000000000 000000000000000000000000000000000000000     00000000                                                                                                                        000000000000000000
F0010000008006200005000080012418800013552100000000000000000201512090002001DISTRITEC S.A.S                                   D000000000013600000000000000000000100010010000000000000000000000F0010000008006200520151209000101 00000000000000000000000000000000000000000000000000000000000000000000000000000000000000000000000000000000000000000N 00000000000NCONT   00    00000000000          00000000000000000000000000000000000000000000 000000000000000A000000000000000000000000000000000000000000000 000000000000000000000000000000000000000     00000000                                                                                                                        000000000000000000
F0010000008006300001000089011078600011050500000000000000000201512090002001DIST. NUEVO MUNDO S.A.S.                          D000000003205000000000000000000000100010010000000000000000000000F0010000008006300120151209000101 00000000000000000000000000000000000000000000000000000000000000000000000000000000000000000000000000000000000000000N 00000000000NCONT   00    00000000000          00000000000000000000000000000000000000000000 000000000000000A000000000000000000000000000000000000000000000 000000000000000000000000000000000000000     00000000                                                                                                                        000000000000000000
F0010000008006300002000089011078600041450500000000000000000201512090002001DIST. NUEVO MUNDO S.A.S.                          C000000002680000000000000000000000100010010000000000000000000000F0010000008006300220151209000101 00000000000000000000000000000000000000000000000000000000000000000000000000000000000000000000000000000000000000000N 00000000000NCONT   00    00000000000          00000000000000000000000000000000000000000000 000000000000000A000000000000000000000000000000000000000000000 000000000000000000000000000000000000000     00000000                                                                                                                        000000000000000000
F0010000008006300003000089011078600042505000000000000000000201512090002001DIST. NUEVO MUNDO S.A.S.                          C000000000525000000000000000000000100010010000000000000000000000F0010000008006300320151209000101 00000000000000000000000000000000000000000000000000000000000000000000000000000000000000000000000000000000000000000N 00000000000NCONT   00    00000000000          00000000000000000000000000000000000000000000 000000000000000A000000000000000000000000000000000000000000000 000000000000000000000000000000000000000     00000000                                                                                                                        000000000000000000
F0010000008006300004000089011078600023658300000000000000000201512090002001DIST. NUEVO MUNDO S.A.S.                          C000000000021400000000000000000000100010010000000000000000000000F0010000008006300420151209000101 00000000000000000000000000000000000000000000000000000000000000000000000000000000000000000000000000000000000000000N 00000000000NCONT   00    00000000000          00000000000000000000000000000000000000000000 000000000000000A000000000000000000000000000000000000000000000 000000000000000000000000000000000000000     00000000                                                                                                                        000000000000000000
F0010000008006300005000089011078600013552100000000000000000201512090002001DIST. NUEVO MUNDO S.A.S.                          D000000000021400000000000000000000100010010000000000000000000000F0010000008006300520151209000101 00000000000000000000000000000000000000000000000000000000000000000000000000000000000000000000000000000000000000000N 00000000000NCONT   00    00000000000          00000000000000000000000000000000000000000000 000000000000000A000000000000000000000000000000000000000000000 000000000000000000000000000000000000000     00000000                                                                                                                        000000000000000000
F0010000008006400001000083007900600011050500000000000000000201512090002001EXPRESO ANDINO DE CARGA SA                        D000000002500000000000000000000000100010010000000000000000000000F0010000008006400120151209000101 00000000000000000000000000000000000000000000000000000000000000000000000000000000000000000000000000000000000000000N 00000000000NCONT   00    00000000000          00000000000000000000000000000000000000000000 000000000000000A000000000000000000000000000000000000000000000 000000000000000000000000000000000000000     00000000                                                                                                                        000000000000000000
F0010000008006400002000083007900600041450500000000000000000201512090002001EXPRESO ANDINO DE CARGA SA                        C000000002400000000000000000000000100010010000000000000000000000F0010000008006400220151209000101 00000000000000000000000000000000000000000000000000000000000000000000000000000000000000000000000000000000000000000N 00000000000NCONT   00    00000000000          00000000000000000000000000000000000000000000 000000000000000A000000000000000000000000000000000000000000000 000000000000000000000000000000000000000     00000000                                                                                                                        000000000000000000
F0010000008006400003000083007900600042505000000000000000000201512090002001EXPRESO ANDINO DE CARGA SA                        C000000000100000000000000000000000100010010000000000000000000000F0010000008006400320151209000101 00000000000000000000000000000000000000000000000000000000000000000000000000000000000000000000000000000000000000000N 00000000000NCONT   00    00000000000          00000000000000000000000000000000000000000000 000000000000000A000000000000000000000000000000000000000000000 000000000000000000000000000000000000000     00000000                                                                                                                        000000000000000000
F0010000008006400004000083007900600023658300000000000000000201512090002001EXPRESO ANDINO DE CARGA SA                        C000000000019200000000000000000000100010010000000000000000000000F0010000008006400420151209000101 00000000000000000000000000000000000000000000000000000000000000000000000000000000000000000000000000000000000000000N 00000000000NCONT   00    00000000000          00000000000000000000000000000000000000000000 000000000000000A000000000000000000000000000000000000000000000 000000000000000000000000000000000000000     00000000                                                                                                                        000000000000000000
F0010000008006400005000083007900600013552100000000000000000201512090002001EXPRESO ANDINO DE CARGA SA                        D000000000019200000000000000000000100010010000000000000000000000F0010000008006400520151209000101 00000000000000000000000000000000000000000000000000000000000000000000000000000000000000000000000000000000000000000N 00000000000NCONT   00    00000000000          00000000000000000000000000000000000000000000 000000000000000A000000000000000000000000000000000000000000000 000000000000000000000000000000000000000     00000000                                                                                                                        000000000000000000
F0010000008006500001000083007900600011050500000000000000000201512090002001EXPRESO ANDINO DE CARGA SA                        D000000005500000000000000000000000100010010000000000000000000000F0010000008006500120151209000101 00000000000000000000000000000000000000000000000000000000000000000000000000000000000000000000000000000000000000000N 00000000000NCONT   00    00000000000          00000000000000000000000000000000000000000000 000000000000000A000000000000000000000000000000000000000000000 000000000000000000000000000000000000000     00000000                                                                                                                        000000000000000000
F0010000008006500002000083007900600041450500000000000000000201512090002001EXPRESO ANDINO DE CARGA SA                        C000000005400000000000000000000000100010010000000000000000000000F0010000008006500220151209000101 00000000000000000000000000000000000000000000000000000000000000000000000000000000000000000000000000000000000000000N 00000000000NCONT   00    00000000000          00000000000000000000000000000000000000000000 000000000000000A000000000000000000000000000000000000000000000 000000000000000000000000000000000000000     00000000                                                                                                                        000000000000000000
F0010000008006500003000083007900600042505000000000000000000201512090002001EXPRESO ANDINO DE CARGA SA                        C000000000100000000000000000000000100010010000000000000000000000F0010000008006500320151209000101 00000000000000000000000000000000000000000000000000000000000000000000000000000000000000000000000000000000000000000N 00000000000NCONT   00    00000000000          00000000000000000000000000000000000000000000 000000000000000A000000000000000000000000000000000000000000000 000000000000000000000000000000000000000     00000000                                                                                                                        000000000000000000
F0010000008006500004000083007900600023658300000000000000000201512090002001EXPRESO ANDINO DE CARGA SA                        C000000000043200000000000000000000100010010000000000000000000000F0010000008006500420151209000101 00000000000000000000000000000000000000000000000000000000000000000000000000000000000000000000000000000000000000000N 00000000000NCONT   00    00000000000          00000000000000000000000000000000000000000000 000000000000000A000000000000000000000000000000000000000000000 000000000000000000000000000000000000000     00000000                                                                                                                        000000000000000000
F0010000008006500005000083007900600013552100000000000000000201512090002001EXPRESO ANDINO DE CARGA SA                        D000000000043200000000000000000000100010010000000000000000000000F0010000008006500520151209000101 00000000000000000000000000000000000000000000000000000000000000000000000000000000000000000000000000000000000000000N 00000000000NCONT   00    00000000000          00000000000000000000000000000000000000000000 000000000000000A000000000000000000000000000000000000000000000 000000000000000000000000000000000000000     00000000                                                                                                                        000000000000000000
F0010000008006600001000083007900600011050500000000000000000201512090002001EXPRESO ANDINO DE CARGA SA                        D000000005500000000000000000000000100010010000000000000000000000F0010000008006600120151209000101 00000000000000000000000000000000000000000000000000000000000000000000000000000000000000000000000000000000000000000N 00000000000NCONT   00    00000000000          00000000000000000000000000000000000000000000 000000000000000A000000000000000000000000000000000000000000000 000000000000000000000000000000000000000     00000000                                                                                                                        000000000000000000
F0010000008006600002000083007900600041450500000000000000000201512090002001EXPRESO ANDINO DE CARGA SA                        C000000005400000000000000000000000100010010000000000000000000000F0010000008006600220151209000101 00000000000000000000000000000000000000000000000000000000000000000000000000000000000000000000000000000000000000000N 00000000000NCONT   00    00000000000          00000000000000000000000000000000000000000000 000000000000000A000000000000000000000000000000000000000000000 000000000000000000000000000000000000000     00000000                                                                                                                        000000000000000000
F0010000008006600003000083007900600042505000000000000000000201512090002001EXPRESO ANDINO DE CARGA SA                        C000000000100000000000000000000000100010010000000000000000000000F0010000008006600320151209000101 00000000000000000000000000000000000000000000000000000000000000000000000000000000000000000000000000000000000000000N 00000000000NCONT   00    00000000000          00000000000000000000000000000000000000000000 000000000000000A000000000000000000000000000000000000000000000 000000000000000000000000000000000000000     00000000                                                                                                                        000000000000000000
F0010000008006600004000083007900600023658300000000000000000201512090002001EXPRESO ANDINO DE CARGA SA                        C000000000043200000000000000000000100010010000000000000000000000F0010000008006600420151209000101 00000000000000000000000000000000000000000000000000000000000000000000000000000000000000000000000000000000000000000N 00000000000NCONT   00    00000000000          00000000000000000000000000000000000000000000 000000000000000A000000000000000000000000000000000000000000000 000000000000000000000000000000000000000     00000000                                                                                                                        000000000000000000
F0010000008006600005000083007900600013552100000000000000000201512090002001EXPRESO ANDINO DE CARGA SA                        D000000000043200000000000000000000100010010000000000000000000000F0010000008006600520151209000101 00000000000000000000000000000000000000000000000000000000000000000000000000000000000000000000000000000000000000000N 00000000000NCONT   00    00000000000          00000000000000000000000000000000000000000000 000000000000000A000000000000000000000000000000000000000000000 000000000000000000000000000000000000000     00000000                                                                                                                        000000000000000000
F0010000008006700001000083007900600011050500000000000000000201512090002001EXPRESO ANDINO DE CARGA SA                        D000000001000000000000000000000000100010010000000000000000000000F0010000008006700120151209000101 00000000000000000000000000000000000000000000000000000000000000000000000000000000000000000000000000000000000000000N 00000000000NCONT   00    00000000000          00000000000000000000000000000000000000000000 000000000000000A000000000000000000000000000000000000000000000 000000000000000000000000000000000000000     00000000                                                                                                                        000000000000000000
F0010000008006700002000083007900600041450500000000000000000201512090002001EXPRESO ANDINO DE CARGA SA                        C000000000900000000000000000000000100010010000000000000000000000F0010000008006700220151209000101 00000000000000000000000000000000000000000000000000000000000000000000000000000000000000000000000000000000000000000N 00000000000NCONT   00    00000000000          00000000000000000000000000000000000000000000 000000000000000A000000000000000000000000000000000000000000000 000000000000000000000000000000000000000     00000000                                                                                                                        000000000000000000
F0010000008006700003000083007900600042505000000000000000000201512090002001EXPRESO ANDINO DE CARGA SA                        C000000000100000000000000000000000100010010000000000000000000000F0010000008006700320151209000101 00000000000000000000000000000000000000000000000000000000000000000000000000000000000000000000000000000000000000000N 00000000000NCONT   00    00000000000          00000000000000000000000000000000000000000000 000000000000000A000000000000000000000000000000000000000000000 000000000000000000000000000000000000000     00000000                                                                                                                        000000000000000000
F0010000008006700004000083007900600023658300000000000000000201512090002001EXPRESO ANDINO DE CARGA SA                        C000000000007200000000000000000000100010010000000000000000000000F0010000008006700420151209000101 00000000000000000000000000000000000000000000000000000000000000000000000000000000000000000000000000000000000000000N 00000000000NCONT   00    00000000000          00000000000000000000000000000000000000000000 000000000000000A000000000000000000000000000000000000000000000 000000000000000000000000000000000000000     00000000                                                                                                                        000000000000000000
F0010000008006700005000083007900600013552100000000000000000201512090002001EXPRESO ANDINO DE CARGA SA                        D000000000007200000000000000000000100010010000000000000000000000F0010000008006700520151209000101 00000000000000000000000000000000000000000000000000000000000000000000000000000000000000000000000000000000000000000N 00000000000NCONT   00    00000000000          00000000000000000000000000000000000000000000 000000000000000A000000000000000000000000000000000000000000000 000000000000000000000000000000000000000     00000000                                                                                                                        000000000000000000
F0010000008006800001000083007900600011050500000000000000000201512090002001EXPRESO ANDINO DE CARGA SA                        D000000011800000000000000000000000100010010000000000000000000000F0010000008006800120151209000101 00000000000000000000000000000000000000000000000000000000000000000000000000000000000000000000000000000000000000000N 00000000000NCONT   00    00000000000          00000000000000000000000000000000000000000000 000000000000000A000000000000000000000000000000000000000000000 000000000000000000000000000000000000000     00000000                                                                                                                        000000000000000000
F0010000008006800002000083007900600041450500000000000000000201512090002001EXPRESO ANDINO DE CARGA SA                        C000000011700000000000000000000000100010010000000000000000000000F0010000008006800220151209000101 00000000000000000000000000000000000000000000000000000000000000000000000000000000000000000000000000000000000000000N 00000000000NCONT   00    00000000000          00000000000000000000000000000000000000000000 000000000000000A000000000000000000000000000000000000000000000 000000000000000000000000000000000000000     00000000                                                                                                                        000000000000000000
F0010000008006800003000083007900600042505000000000000000000201512090002001EXPRESO ANDINO DE CARGA SA                        C000000000100000000000000000000000100010010000000000000000000000F0010000008006800320151209000101 00000000000000000000000000000000000000000000000000000000000000000000000000000000000000000000000000000000000000000N 00000000000NCONT   00    00000000000          00000000000000000000000000000000000000000000 000000000000000A000000000000000000000000000000000000000000000 000000000000000000000000000000000000000     00000000                                                                                                                        000000000000000000
F0010000008006800004000083007900600023658300000000000000000201512090002001EXPRESO ANDINO DE CARGA SA                        C000000000093600000000000000000000100010010000000000000000000000F0010000008006800420151209000101 00000000000000000000000000000000000000000000000000000000000000000000000000000000000000000000000000000000000000000N 00000000000NCONT   00    00000000000          00000000000000000000000000000000000000000000 000000000000000A000000000000000000000000000000000000000000000 000000000000000000000000000000000000000     00000000                                                                                                                        000000000000000000
F0010000008006800005000083007900600013552100000000000000000201512090002001EXPRESO ANDINO DE CARGA SA                        D000000000093600000000000000000000100010010000000000000000000000F0010000008006800520151209000101 00000000000000000000000000000000000000000000000000000000000000000000000000000000000000000000000000000000000000000N 00000000000NCONT   00    00000000000          00000000000000000000000000000000000000000000 000000000000000A000000000000000000000000000000000000000000000 000000000000000000000000000000000000000     00000000                                                                                                                        000000000000000000
F0010000008006900001000080014190300011050500000000000000000201512090002001QUIMINSA LTDA                                     D000000006200000000000000000000000100010010000000000000000000000F0010000008006900120151209000101 00000000000000000000000000000000000000000000000000000000000000000000000000000000000000000000000000000000000000000N 00000000000NCONT   00    00000000000          00000000000000000000000000000000000000000000 000000000000000A000000000000000000000000000000000000000000000 000000000000000000000000000000000000000     00000000                                                                                                                        000000000000000000
F0010000008006900002000080014190300041450500000000000000000201512090002001QUIMINSA LTDA                                     C000000005000000000000000000000000100010010000000000000000000000F0010000008006900220151209000101 00000000000000000000000000000000000000000000000000000000000000000000000000000000000000000000000000000000000000000N 00000000000NCONT   00    00000000000          00000000000000000000000000000000000000000000 000000000000000A000000000000000000000000000000000000000000000 000000000000000000000000000000000000000     00000000                                                                                                                        000000000000000000
F0010000008006900003000080014190300042505000000000000000000201512090002001QUIMINSA LTDA                                     C000000001200000000000000000000000100010010000000000000000000000F0010000008006900320151209000101 00000000000000000000000000000000000000000000000000000000000000000000000000000000000000000000000000000000000000000N 00000000000NCONT   00    00000000000          00000000000000000000000000000000000000000000 000000000000000A000000000000000000000000000000000000000000000 000000000000000000000000000000000000000     00000000                                                                                                                        000000000000000000
F0010000008006900004000080014190300023658300000000000000000201512090002001QUIMINSA LTDA                                     C000000000040000000000000000000000100010010000000000000000000000F0010000008006900420151209000101 00000000000000000000000000000000000000000000000000000000000000000000000000000000000000000000000000000000000000000N 00000000000NCONT   00    00000000000          00000000000000000000000000000000000000000000 000000000000000A000000000000000000000000000000000000000000000 000000000000000000000000000000000000000     00000000                                                                                                                        000000000000000000
F0010000008006900005000080014190300013552100000000000000000201512090002001QUIMINSA LTDA                                     D000000000040000000000000000000000100010010000000000000000000000F0010000008006900520151209000101 00000000000000000000000000000000000000000000000000000000000000000000000000000000000000000000000000000000000000000N 00000000000NCONT   00    00000000000          00000000000000000000000000000000000000000000 000000000000000A000000000000000000000000000000000000000000000 000000000000000000000000000000000000000     00000000                                                                                                                        000000000000000000
F0010000008007000001000080014190300011050500000000000000000201512090002001QUIMINSA LTDA                                     D000000003100000000000000000000000100010010000000000000000000000F0010000008007000120151209000101 00000000000000000000000000000000000000000000000000000000000000000000000000000000000000000000000000000000000000000N 00000000000NCONT   00    00000000000          00000000000000000000000000000000000000000000 000000000000000A000000000000000000000000000000000000000000000 000000000000000000000000000000000000000     00000000                                                                                                                        000000000000000000
F0010000008007000002000080014190300041450500000000000000000201512090002001QUIMINSA LTDA                                     C000000002500000000000000000000000100010010000000000000000000000F0010000008007000220151209000101 00000000000000000000000000000000000000000000000000000000000000000000000000000000000000000000000000000000000000000N 00000000000NCONT   00    00000000000          00000000000000000000000000000000000000000000 000000000000000A000000000000000000000000000000000000000000000 000000000000000000000000000000000000000     00000000                                                                                                                        000000000000000000
F0010000008007000003000080014190300042505000000000000000000201512090002001QUIMINSA LTDA                                     C000000000600000000000000000000000100010010000000000000000000000F0010000008007000320151209000101 00000000000000000000000000000000000000000000000000000000000000000000000000000000000000000000000000000000000000000N 00000000000NCONT   00    00000000000          00000000000000000000000000000000000000000000 000000000000000A000000000000000000000000000000000000000000000 000000000000000000000000000000000000000     00000000                                                                                                                        000000000000000000
F0010000008007000004000080014190300023658300000000000000000201512090002001QUIMINSA LTDA                                     C000000000020000000000000000000000100010010000000000000000000000F0010000008007000420151209000101 00000000000000000000000000000000000000000000000000000000000000000000000000000000000000000000000000000000000000000N 00000000000NCONT   00    00000000000          00000000000000000000000000000000000000000000 000000000000000A000000000000000000000000000000000000000000000 000000000000000000000000000000000000000     00000000                                                                                                                        000000000000000000
F0010000008007000005000080014190300013552100000000000000000201512090002001QUIMINSA LTDA                                     D000000000020000000000000000000000100010010000000000000000000000F0010000008007000520151209000101 00000000000000000000000000000000000000000000000000000000000000000000000000000000000000000000000000000000000000000N 00000000000NCONT   00    00000000000          00000000000000000000000000000000000000000000 000000000000000A000000000000000000000000000000000000000000000 000000000000000000000000000000000000000     00000000                                                                                                                        000000000000000000
F0010000008007100001000003262315300011050500000000000000000201512090002001CACHARRERIA LA PROPIA JICHA                       D000000001200000000000000000000000100010010000000000000000000000F0010000008007100120151209000101 00000000000000000000000000000000000000000000000000000000000000000000000000000000000000000000000000000000000000000N 00000000000NCONT   00    00000000000          00000000000000000000000000000000000000000000 000000000000000A000000000000000000000000000000000000000000000 000000000000000000000000000000000000000     00000000                                                                                                                        000000000000000000
F0010000008007100002000003262315300041450500000000000000000201512090002001CACHARRERIA LA PROPIA JICHA                       C000000000800000000000000000000000100010010000000000000000000000F0010000008007100220151209000101 00000000000000000000000000000000000000000000000000000000000000000000000000000000000000000000000000000000000000000N 00000000000NCONT   00    00000000000          00000000000000000000000000000000000000000000 000000000000000A000000000000000000000000000000000000000000000 000000000000000000000000000000000000000     00000000                                                                                                                        000000000000000000
F0010000008007100003000003262315300042505000000000000000000201512090002001CACHARRERIA LA PROPIA JICHA                       C000000000400000000000000000000000100010010000000000000000000000F0010000008007100320151209000101 00000000000000000000000000000000000000000000000000000000000000000000000000000000000000000000000000000000000000000N 00000000000NCONT   00    00000000000          00000000000000000000000000000000000000000000 000000000000000A000000000000000000000000000000000000000000000 000000000000000000000000000000000000000     00000000                                                                                                                        000000000000000000
F0010000008007100004000003262315300023658300000000000000000201512090002001CACHARRERIA LA PROPIA JICHA                       C000000000006400000000000000000000100010010000000000000000000000F0010000008007100420151209000101 00000000000000000000000000000000000000000000000000000000000000000000000000000000000000000000000000000000000000000N 00000000000NCONT   00    00000000000          00000000000000000000000000000000000000000000 000000000000000A000000000000000000000000000000000000000000000 000000000000000000000000000000000000000     00000000                                                                                                                        000000000000000000
F0010000008007100005000003262315300013552100000000000000000201512090002001CACHARRERIA LA PROPIA JICHA                       D000000000006400000000000000000000100010010000000000000000000000F0010000008007100520151209000101 00000000000000000000000000000000000000000000000000000000000000000000000000000000000000000000000000000000000000000N 00000000000NCONT   00    00000000000          00000000000000000000000000000000000000000000 000000000000000A000000000000000000000000000000000000000000000 000000000000000000000000000000000000000     00000000                                                                                                                        000000000000000000
F0010000008007200001000007957099900011050500000000000000000201512090002001RUBEN GOMEZ                                       D000000008000000000000000000000000100010010000000000000000000000F0010000008007200120151209000101 00000000000000000000000000000000000000000000000000000000000000000000000000000000000000000000000000000000000000000N 00000000000NCONT   00    00000000000          00000000000000000000000000000000000000000000 000000000000000A000000000000000000000000000000000000000000000 000000000000000000000000000000000000000     00000000                                                                                                                        000000000000000000
F0010000008007200002000007957099900041450500000000000000000201512090002001RUBEN GOMEZ                                       C000000006500000000000000000000000100010010000000000000000000000F0010000008007200220151209000101 00000000000000000000000000000000000000000000000000000000000000000000000000000000000000000000000000000000000000000N 00000000000NCONT   00    00000000000          00000000000000000000000000000000000000000000 000000000000000A000000000000000000000000000000000000000000000 000000000000000000000000000000000000000     00000000                                                                                                                        000000000000000000
F0010000008007200003000007957099900042505000000000000000000201512090002001RUBEN GOMEZ                                       C000000001500000000000000000000000100010010000000000000000000000F0010000008007200320151209000101 00000000000000000000000000000000000000000000000000000000000000000000000000000000000000000000000000000000000000000N 00000000000NCONT   00    00000000000          00000000000000000000000000000000000000000000 000000000000000A000000000000000000000000000000000000000000000 000000000000000000000000000000000000000     00000000                                                                                                                        000000000000000000
F0010000008007200004000007957099900023658300000000000000000201512090002001RUBEN GOMEZ                                       C000000000052000000000000000000000100010010000000000000000000000F0010000008007200420151209000101 00000000000000000000000000000000000000000000000000000000000000000000000000000000000000000000000000000000000000000N 00000000000NCONT   00    00000000000          00000000000000000000000000000000000000000000 000000000000000A000000000000000000000000000000000000000000000 000000000000000000000000000000000000000     00000000                                                                                                                        000000000000000000
F0010000008007200005000007957099900013552100000000000000000201512090002001RUBEN GOMEZ                                       D000000000052000000000000000000000100010010000000000000000000000F0010000008007200520151209000101 00000000000000000000000000000000000000000000000000000000000000000000000000000000000000000000000000000000000000000N 00000000000NCONT   00    00000000000          00000000000000000000000000000000000000000000 000000000000000A000000000000000000000000000000000000000000000 000000000000000000000000000000000000000     00000000                                                                                                                        000000000000000000
F0010000008007300001000003314755400011050500000000000000000201512090002001RUMATEX DE COLOMBIA                               D000000001500000000000000000000000100010010000000000000000000000F0010000008007300120151209000101 00000000000000000000000000000000000000000000000000000000000000000000000000000000000000000000000000000000000000000N 00000000000NCONT   00    00000000000          00000000000000000000000000000000000000000000 000000000000000A000000000000000000000000000000000000000000000 000000000000000000000000000000000000000     00000000                                                                                                                        000000000000000000
F0010000008007300002000003314755400041450500000000000000000201512090002001RUMATEX DE COLOMBIA                               C000000000900000000000000000000000100010010000000000000000000000F0010000008007300220151209000101 00000000000000000000000000000000000000000000000000000000000000000000000000000000000000000000000000000000000000000N 00000000000NCONT   00    00000000000          00000000000000000000000000000000000000000000 000000000000000A000000000000000000000000000000000000000000000 000000000000000000000000000000000000000     00000000                                                                                                                        000000000000000000
F0010000008007300003000003314755400042505000000000000000000201512090002001RUMATEX DE COLOMBIA                               C000000000600000000000000000000000100010010000000000000000000000F0010000008007300320151209000101 00000000000000000000000000000000000000000000000000000000000000000000000000000000000000000000000000000000000000000N 00000000000NCONT   00    00000000000          00000000000000000000000000000000000000000000 000000000000000A000000000000000000000000000000000000000000000 000000000000000000000000000000000000000     00000000                                                                                                                        000000000000000000
F0010000008007300004000003314755400023658300000000000000000201512090002001RUMATEX DE COLOMBIA                               C000000000007200000000000000000000100010010000000000000000000000F0010000008007300420151209000101 00000000000000000000000000000000000000000000000000000000000000000000000000000000000000000000000000000000000000000N 00000000000NCONT   00    00000000000          00000000000000000000000000000000000000000000 000000000000000A000000000000000000000000000000000000000000000 000000000000000000000000000000000000000     00000000                                                                                                                        000000000000000000
F0010000008007300005000003314755400013552100000000000000000201512090002001RUMATEX DE COLOMBIA                               D000000000007200000000000000000000100010010000000000000000000000F0010000008007300520151209000101 00000000000000000000000000000000000000000000000000000000000000000000000000000000000000000000000000000000000000000N 00000000000NCONT   00    00000000000          00000000000000000000000000000000000000000000 000000000000000A000000000000000000000000000000000000000000000 000000000000000000000000000000000000000     00000000                                                                                                                        000000000000000000
F0010000008007400001000007223972300011050500000000000000000201512090002001LUIS VALENCIA                                     D000000004900000000000000000000000100010010000000000000000000000F0010000008007400120151209000101 00000000000000000000000000000000000000000000000000000000000000000000000000000000000000000000000000000000000000000N 00000000000NCONT   00    00000000000          00000000000000000000000000000000000000000000 000000000000000A000000000000000000000000000000000000000000000 000000000000000000000000000000000000000     00000000                                                                                                                        000000000000000000
F0010000008007400002000007223972300041450500000000000000000201512090002001LUIS VALENCIA                                     C000000004500000000000000000000000100010010000000000000000000000F0010000008007400220151209000101 00000000000000000000000000000000000000000000000000000000000000000000000000000000000000000000000000000000000000000N 00000000000NCONT   00    00000000000          00000000000000000000000000000000000000000000 000000000000000A000000000000000000000000000000000000000000000 000000000000000000000000000000000000000     00000000                                                                                                                        000000000000000000
F0010000008007400003000007223972300042505000000000000000000201512090002001LUIS VALENCIA                                     C000000000400000000000000000000000100010010000000000000000000000F0010000008007400320151209000101 00000000000000000000000000000000000000000000000000000000000000000000000000000000000000000000000000000000000000000N 00000000000NCONT   00    00000000000          00000000000000000000000000000000000000000000 000000000000000A000000000000000000000000000000000000000000000 000000000000000000000000000000000000000     00000000                                                                                                                        000000000000000000
F0010000008007400004000007223972300023658300000000000000000201512090002001LUIS VALENCIA                                     C000000000036000000000000000000000100010010000000000000000000000F0010000008007400420151209000101 00000000000000000000000000000000000000000000000000000000000000000000000000000000000000000000000000000000000000000N 00000000000NCONT   00    00000000000          00000000000000000000000000000000000000000000 000000000000000A000000000000000000000000000000000000000000000 000000000000000000000000000000000000000     00000000                                                                                                                        000000000000000000
F0010000008007400005000007223972300013552100000000000000000201512090002001LUIS VALENCIA                                     D000000000036000000000000000000000100010010000000000000000000000F0010000008007400520151209000101 00000000000000000000000000000000000000000000000000000000000000000000000000000000000000000000000000000000000000000N 00000000000NCONT   00    00000000000          00000000000000000000000000000000000000000000 000000000000000A000000000000000000000000000000000000000000000 000000000000000000000000000000000000000     00000000                                                                                                                        000000000000000000
F0010000008007500001000003314755400011050500000000000000000201512090002001RUMATEX DE COLOMBIA                               D000000001700000000000000000000000100010010000000000000000000000F0010000008007500120151209000101 00000000000000000000000000000000000000000000000000000000000000000000000000000000000000000000000000000000000000000N 00000000000NCONT   00    00000000000          00000000000000000000000000000000000000000000 000000000000000A000000000000000000000000000000000000000000000 000000000000000000000000000000000000000     00000000                                                                                                                        000000000000000000
F0010000008007500002000003314755400041450500000000000000000201512090002001RUMATEX DE COLOMBIA                               C000000000900000000000000000000000100010010000000000000000000000F0010000008007500220151209000101 00000000000000000000000000000000000000000000000000000000000000000000000000000000000000000000000000000000000000000N 00000000000NCONT   00    00000000000          00000000000000000000000000000000000000000000 000000000000000A000000000000000000000000000000000000000000000 000000000000000000000000000000000000000     00000000                                                                                                                        000000000000000000
F0010000008007500003000003314755400042505000000000000000000201512090002001RUMATEX DE COLOMBIA                               C000000000800000000000000000000000100010010000000000000000000000F0010000008007500320151209000101 00000000000000000000000000000000000000000000000000000000000000000000000000000000000000000000000000000000000000000N 00000000000NCONT   00    00000000000          00000000000000000000000000000000000000000000 000000000000000A000000000000000000000000000000000000000000000 000000000000000000000000000000000000000     00000000                                                                                                                        000000000000000000
F0010000008007500004000003314755400023658300000000000000000201512090002001RUMATEX DE COLOMBIA                               C000000000007200000000000000000000100010010000000000000000000000F0010000008007500420151209000101 00000000000000000000000000000000000000000000000000000000000000000000000000000000000000000000000000000000000000000N 00000000000NCONT   00    00000000000          00000000000000000000000000000000000000000000 000000000000000A000000000000000000000000000000000000000000000 000000000000000000000000000000000000000     00000000                                                                                                                        000000000000000000
F0010000008007500005000003314755400013552100000000000000000201512090002001RUMATEX DE COLOMBIA                               D000000000007200000000000000000000100010010000000000000000000000F0010000008007500520151209000101 00000000000000000000000000000000000000000000000000000000000000000000000000000000000000000000000000000000000000000N 00000000000NCONT   00    00000000000          00000000000000000000000000000000000000000000 000000000000000A000000000000000000000000000000000000000000000 000000000000000000000000000000000000000     00000000                                                                                                                        000000000000000000
F0010000008007600001000090007142100011050500000000000000000201512090002001TODO BELLEZA Y MAX S.A.S                          D000000005380000000000000000000000100010010000000000000000000000F0010000008007600120151209000101 00000000000000000000000000000000000000000000000000000000000000000000000000000000000000000000000000000000000000000N 00000000000NCONT   00    00000000000          00000000000000000000000000000000000000000000 000000000000000A000000000000000000000000000000000000000000000 000000000000000000000000000000000000000     00000000                                                                                                                        000000000000000000
F0010000008007600002000090007142100041450500000000000000000201512090002001TODO BELLEZA Y MAX S.A.S                          C000000005280000000000000000000000100010010000000000000000000000F0010000008007600220151209000101 00000000000000000000000000000000000000000000000000000000000000000000000000000000000000000000000000000000000000000N 00000000000NCONT   00    00000000000          00000000000000000000000000000000000000000000 000000000000000A000000000000000000000000000000000000000000000 000000000000000000000000000000000000000     00000000                                                                                                                        000000000000000000
F0010000008007600003000090007142100042505000000000000000000201512090002001TODO BELLEZA Y MAX S.A.S                          C000000000100000000000000000000000100010010000000000000000000000F0010000008007600320151209000101 00000000000000000000000000000000000000000000000000000000000000000000000000000000000000000000000000000000000000000N 00000000000NCONT   00    00000000000          00000000000000000000000000000000000000000000 000000000000000A000000000000000000000000000000000000000000000 000000000000000000000000000000000000000     00000000                                                                                                                        000000000000000000
F0010000008007600004000090007142100023658300000000000000000201512090002001TODO BELLEZA Y MAX S.A.S                          C000000000042200000000000000000000100010010000000000000000000000F0010000008007600420151209000101 00000000000000000000000000000000000000000000000000000000000000000000000000000000000000000000000000000000000000000N 00000000000NCONT   00    00000000000          00000000000000000000000000000000000000000000 000000000000000A000000000000000000000000000000000000000000000 000000000000000000000000000000000000000     00000000                                                                                                                        000000000000000000
F0010000008007600005000090007142100013552100000000000000000201512090002001TODO BELLEZA Y MAX S.A.S                          D000000000042200000000000000000000100010010000000000000000000000F0010000008007600520151209000101 00000000000000000000000000000000000000000000000000000000000000000000000000000000000000000000000000000000000000000N 00000000000NCONT   00    00000000000          00000000000000000000000000000000000000000000 000000000000000A000000000000000000000000000000000000000000000 000000000000000000000000000000000000000     00000000                                                                                                                        000000000000000000
F0010000008007700001000090007142100011050500000000000000000201512090002001TODO BELLEZA Y MAX S.A.S                          D000000006700000000000000000000000100010010000000000000000000000F0010000008007700120151209000101 00000000000000000000000000000000000000000000000000000000000000000000000000000000000000000000000000000000000000000N 00000000000NCONT   00    00000000000          00000000000000000000000000000000000000000000 000000000000000A000000000000000000000000000000000000000000000 000000000000000000000000000000000000000     00000000                                                                                                                        000000000000000000
F0010000008007700002000090007142100041450500000000000000000201512090002001TODO BELLEZA Y MAX S.A.S                          C000000006600000000000000000000000100010010000000000000000000000F0010000008007700220151209000101 00000000000000000000000000000000000000000000000000000000000000000000000000000000000000000000000000000000000000000N 00000000000NCONT   00    00000000000          00000000000000000000000000000000000000000000 000000000000000A000000000000000000000000000000000000000000000 000000000000000000000000000000000000000     00000000                                                                                                                        000000000000000000
F0010000008007700003000090007142100042505000000000000000000201512090002001TODO BELLEZA Y MAX S.A.S                          C000000000100000000000000000000000100010010000000000000000000000F0010000008007700320151209000101 00000000000000000000000000000000000000000000000000000000000000000000000000000000000000000000000000000000000000000N 00000000000NCONT   00    00000000000          00000000000000000000000000000000000000000000 000000000000000A000000000000000000000000000000000000000000000 000000000000000000000000000000000000000     00000000                                                                                                                        000000000000000000
F0010000008007700004000090007142100023658300000000000000000201512090002001TODO BELLEZA Y MAX S.A.S                          C000000000052800000000000000000000100010010000000000000000000000F0010000008007700420151209000101 00000000000000000000000000000000000000000000000000000000000000000000000000000000000000000000000000000000000000000N 00000000000NCONT   00    00000000000          00000000000000000000000000000000000000000000 000000000000000A000000000000000000000000000000000000000000000 000000000000000000000000000000000000000     00000000                                                                                                                        000000000000000000
F0010000008007700005000090007142100013552100000000000000000201512090002001TODO BELLEZA Y MAX S.A.S                          D000000000052800000000000000000000100010010000000000000000000000F0010000008007700520151209000101 00000000000000000000000000000000000000000000000000000000000000000000000000000000000000000000000000000000000000000N 00000000000NCONT   00    00000000000          00000000000000000000000000000000000000000000 000000000000000A000000000000000000000000000000000000000000000 000000000000000000000000000000000000000     00000000                                                                                                                        000000000000000000
F0010000008007800001000003207718300011050500000000000000000201512090002001MARIA GILMA RAMIREZ GARCIA                        D000000003900000000000000000000000100010010000000000000000000000F0010000008007800120151209000101 00000000000000000000000000000000000000000000000000000000000000000000000000000000000000000000000000000000000000000N 00000000000NCONT   00    00000000000          00000000000000000000000000000000000000000000 000000000000000A000000000000000000000000000000000000000000000 000000000000000000000000000000000000000     00000000                                                                                                                        000000000000000000
F0010000008007800002000003207718300041450500000000000000000201512090002001MARIA GILMA RAMIREZ GARCIA                        C000000002400000000000000000000000100010010000000000000000000000F0010000008007800220151209000101 00000000000000000000000000000000000000000000000000000000000000000000000000000000000000000000000000000000000000000N 00000000000NCONT   00    00000000000          00000000000000000000000000000000000000000000 000000000000000A000000000000000000000000000000000000000000000 000000000000000000000000000000000000000     00000000                                                                                                                        000000000000000000
