F0010000008291100001000007215896800013050500000000000000000201602230002001EDDIER CIRO                                       D000000046445100000000000000000000100010010000000000000000000000F0010000008291100120160223000101 00000000000000000000000000000000000000000000000000000000000000000000000000000000000000000000000000000000000000000N 00000000000NCONT   00    00000000000          00000000000000000000000000000000000000000000 000000000000000A000000000000000000000000000000000000000000000 000000000000000000000000000000000000000     00000000                                                                                                                        000000000000000000
F0010000008291100002000007215896800041450500000000000000000201602230002001EDDIER CIRO                                       C000000033760000000000000000000000100010010000000000000000000000F0010000008291100220160223000101 00000000000000000000000000000000000000000000000000000000000000000000000000000000000000000000000000000000000000000N 00000000000NCONT   00    00000000000          00000000000000000000000000000000000000000000 000000000000000A000000000000000000000000000000000000000000000 000000000000000000000000000000000000000     00000000                                                                                                                        000000000000000000
F0010000008291100003000007215896800042505000000000000000000201602230002001EDDIER CIRO                                       C000000012685100000000000000000000100010010000000000000000000000F0010000008291100320160223000101 00000000000000000000000000000000000000000000000000000000000000000000000000000000000000000000000000000000000000000N 00000000000NCONT   00    00000000000          00000000000000000000000000000000000000000000 000000000000000A000000000000000000000000000000000000000000000 000000000000000000000000000000000000000     00000000                                                                                                                        000000000000000000
F0010000008291100004000007215896800023658300000000000000000201602230002001EDDIER CIRO                                       C000000000270100000000000000000000100010010000000000000000000000F0010000008291100420160223000101 00000000000000000000000000000000000000000000000000000000000000000000000000000000000000000000000000000000000000000N 00000000000NCONT   00    00000000000          00000000000000000000000000000000000000000000 000000000000000A000000000000000000000000000000000000000000000 000000000000000000000000000000000000000     00000000                                                                                                                        000000000000000000
F0010000008291100005000007215896800013552100000000000000000201602230002001EDDIER CIRO                                       D000000000270100000000000000000000100010010000000000000000000000F0010000008291100520160223000101 00000000000000000000000000000000000000000000000000000000000000000000000000000000000000000000000000000000000000000N 00000000000NCONT   00    00000000000          00000000000000000000000000000000000000000000 000000000000000A000000000000000000000000000000000000000000000 000000000000000000000000000000000000000     00000000                                                                                                                        000000000000000000
F0010000008291200001000086003979400013050500000000000000000201602230002001CALYPSO BARRANQUILLA LTDA                         D000000029085000000000000000000000100010010000000000000000000000F0010000008291200120160223000101 00000000000000000000000000000000000000000000000000000000000000000000000000000000000000000000000000000000000000000N 00000000000NCONT   00    00000000000          00000000000000000000000000000000000000000000 000000000000000A000000000000000000000000000000000000000000000 000000000000000000000000000000000000000     00000000                                                                                                                        000000000000000000
F0010000008291200002000086003979400041450500000000000000000201602230002001CALYPSO BARRANQUILLA LTDA                         C000000025920000000000000000000000100010010000000000000000000000F0010000008291200220160223000101 00000000000000000000000000000000000000000000000000000000000000000000000000000000000000000000000000000000000000000N 00000000000NCONT   00    00000000000          00000000000000000000000000000000000000000000 000000000000000A000000000000000000000000000000000000000000000 000000000000000000000000000000000000000     00000000                                                                                                                        000000000000000000
F0010000008291200003000086003979400042505000000000000000000201602230002001CALYPSO BARRANQUILLA LTDA                         C000000003165000000000000000000000100010010000000000000000000000F0010000008291200320160223000101 00000000000000000000000000000000000000000000000000000000000000000000000000000000000000000000000000000000000000000N 00000000000NCONT   00    00000000000          00000000000000000000000000000000000000000000 000000000000000A000000000000000000000000000000000000000000000 000000000000000000000000000000000000000     00000000                                                                                                                        000000000000000000
F0010000008291200004000086003979400023658300000000000000000201602230002001CALYPSO BARRANQUILLA LTDA                         C000000000207400000000000000000000100010010000000000000000000000F0010000008291200420160223000101 00000000000000000000000000000000000000000000000000000000000000000000000000000000000000000000000000000000000000000N 00000000000NCONT   00    00000000000          00000000000000000000000000000000000000000000 000000000000000A000000000000000000000000000000000000000000000 000000000000000000000000000000000000000     00000000                                                                                                                        000000000000000000
F0010000008291200005000086003979400013552100000000000000000201602230002001CALYPSO BARRANQUILLA LTDA                         D000000000207400000000000000000000100010010000000000000000000000F0010000008291200520160223000101 00000000000000000000000000000000000000000000000000000000000000000000000000000000000000000000000000000000000000000N 00000000000NCONT   00    00000000000          00000000000000000000000000000000000000000000 000000000000000A000000000000000000000000000000000000000000000 000000000000000000000000000000000000000     00000000                                                                                                                        000000000000000000
F0010000008291300001000089010952800013050500000000000000000201602230002001IND. LITOGRAF. BOSTON S.A.S.                      D000000078470000000000000000000000100010010000000000000000000000F0010000008291300120160223000101 00000000000000000000000000000000000000000000000000000000000000000000000000000000000000000000000000000000000000000N 00000000000NCONT   00    00000000000          00000000000000000000000000000000000000000000 000000000000000A000000000000000000000000000000000000000000000 000000000000000000000000000000000000000     00000000                                                                                                                        000000000000000000
F0010000008291300002000089010952800041450500000000000000000201602230002001IND. LITOGRAF. BOSTON S.A.S.                      C000000066970000000000000000000000100010010000000000000000000000F0010000008291300220160223000101 00000000000000000000000000000000000000000000000000000000000000000000000000000000000000000000000000000000000000000N 00000000000NCONT   00    00000000000          00000000000000000000000000000000000000000000 000000000000000A000000000000000000000000000000000000000000000 000000000000000000000000000000000000000     00000000                                                                                                                        000000000000000000
F0010000008291300003000089010952800042505000000000000000000201602230002001IND. LITOGRAF. BOSTON S.A.S.                      C000000011500000000000000000000000100010010000000000000000000000F0010000008291300320160223000101 00000000000000000000000000000000000000000000000000000000000000000000000000000000000000000000000000000000000000000N 00000000000NCONT   00    00000000000          00000000000000000000000000000000000000000000 000000000000000A000000000000000000000000000000000000000000000 000000000000000000000000000000000000000     00000000                                                                                                                        000000000000000000
F0010000008291300004000089010952800023658300000000000000000201602230002001IND. LITOGRAF. BOSTON S.A.S.                      C000000000535800000000000000000000100010010000000000000000000000F0010000008291300420160223000101 00000000000000000000000000000000000000000000000000000000000000000000000000000000000000000000000000000000000000000N 00000000000NCONT   00    00000000000          00000000000000000000000000000000000000000000 000000000000000A000000000000000000000000000000000000000000000 000000000000000000000000000000000000000     00000000                                                                                                                        000000000000000000
F0010000008291300005000089010952800013552100000000000000000201602230002001IND. LITOGRAF. BOSTON S.A.S.                      D000000000535800000000000000000000100010010000000000000000000000F0010000008291300520160223000101 00000000000000000000000000000000000000000000000000000000000000000000000000000000000000000000000000000000000000000N 00000000000NCONT   00    00000000000          00000000000000000000000000000000000000000000 000000000000000A000000000000000000000000000000000000000000000 000000000000000000000000000000000000000     00000000                                                                                                                        000000000000000000
F0010000008291400001000004175790100013050500000000000000000201602230002001ROSIRIS FERIA HOYOS  (COSM. SHILLER)              D000000012800000000000000000000000100010010000000000000000000000F0010000008291400120160223000101 00000000000000000000000000000000000000000000000000000000000000000000000000000000000000000000000000000000000000000N 00000000000NCONT   00    00000000000          00000000000000000000000000000000000000000000 000000000000000A000000000000000000000000000000000000000000000 000000000000000000000000000000000000000     00000000                                                                                                                        000000000000000000
F0010000008291400002000004175790100041450500000000000000000201602230002001ROSIRIS FERIA HOYOS  (COSM. SHILLER)              C000000010500000000000000000000000100010010000000000000000000000F0010000008291400220160223000101 00000000000000000000000000000000000000000000000000000000000000000000000000000000000000000000000000000000000000000N 00000000000NCONT   00    00000000000          00000000000000000000000000000000000000000000 000000000000000A000000000000000000000000000000000000000000000 000000000000000000000000000000000000000     00000000                                                                                                                        000000000000000000
F0010000008291400003000004175790100042505000000000000000000201602230002001ROSIRIS FERIA HOYOS  (COSM. SHILLER)              C000000002300000000000000000000000100010010000000000000000000000F0010000008291400320160223000101 00000000000000000000000000000000000000000000000000000000000000000000000000000000000000000000000000000000000000000N 00000000000NCONT   00    00000000000          00000000000000000000000000000000000000000000 000000000000000A000000000000000000000000000000000000000000000 000000000000000000000000000000000000000     00000000                                                                                                                        000000000000000000
F0010000008291400004000004175790100023658300000000000000000201602230002001ROSIRIS FERIA HOYOS  (COSM. SHILLER)              C000000000084000000000000000000000100010010000000000000000000000F0010000008291400420160223000101 00000000000000000000000000000000000000000000000000000000000000000000000000000000000000000000000000000000000000000N 00000000000NCONT   00    00000000000          00000000000000000000000000000000000000000000 000000000000000A000000000000000000000000000000000000000000000 000000000000000000000000000000000000000     00000000                                                                                                                        000000000000000000
F0010000008291400005000004175790100013552100000000000000000201602230002001ROSIRIS FERIA HOYOS  (COSM. SHILLER)              D000000000084000000000000000000000100010010000000000000000000000F0010000008291400520160223000101 00000000000000000000000000000000000000000000000000000000000000000000000000000000000000000000000000000000000000000N 00000000000NCONT   00    00000000000          00000000000000000000000000000000000000000000 000000000000000A000000000000000000000000000000000000000000000 000000000000000000000000000000000000000     00000000                                                                                                                        000000000000000000
F0010000008291500001000089011719700013050500000000000000000201602230002001REP. MUNERA GALARZA LTDA (FRANCISCO MUNERA)       D000000009770000000000000000000000100010010000000000000000000000F0010000008291500120160223000101 00000000000000000000000000000000000000000000000000000000000000000000000000000000000000000000000000000000000000000N 00000000000NCONT   00    00000000000          00000000000000000000000000000000000000000000 000000000000000A000000000000000000000000000000000000000000000 000000000000000000000000000000000000000     00000000                                                                                                                        000000000000000000
F0010000008291500002000089011719700041450500000000000000000201602230002001REP. MUNERA GALARZA LTDA (FRANCISCO MUNERA)       C000000007860000000000000000000000100010010000000000000000000000F0010000008291500220160223000101 00000000000000000000000000000000000000000000000000000000000000000000000000000000000000000000000000000000000000000N 00000000000NCONT   00    00000000000          00000000000000000000000000000000000000000000 000000000000000A000000000000000000000000000000000000000000000 000000000000000000000000000000000000000     00000000                                                                                                                        000000000000000000
F0010000008291500003000089011719700042505000000000000000000201602230002001REP. MUNERA GALARZA LTDA (FRANCISCO MUNERA)       C000000001910000000000000000000000100010010000000000000000000000F0010000008291500320160223000101 00000000000000000000000000000000000000000000000000000000000000000000000000000000000000000000000000000000000000000N 00000000000NCONT   00    00000000000          00000000000000000000000000000000000000000000 000000000000000A000000000000000000000000000000000000000000000 000000000000000000000000000000000000000     00000000                                                                                                                        000000000000000000
F0010000008291500004000089011719700023658300000000000000000201602230002001REP. MUNERA GALARZA LTDA (FRANCISCO MUNERA)       C000000000062900000000000000000000100010010000000000000000000000F0010000008291500420160223000101 00000000000000000000000000000000000000000000000000000000000000000000000000000000000000000000000000000000000000000N 00000000000NCONT   00    00000000000          00000000000000000000000000000000000000000000 000000000000000A000000000000000000000000000000000000000000000 000000000000000000000000000000000000000     00000000                                                                                                                        000000000000000000
F0010000008291500005000089011719700013552100000000000000000201602230002001REP. MUNERA GALARZA LTDA (FRANCISCO MUNERA)       D000000000062900000000000000000000100010010000000000000000000000F0010000008291500520160223000101 00000000000000000000000000000000000000000000000000000000000000000000000000000000000000000000000000000000000000000N 00000000000NCONT   00    00000000000          00000000000000000000000000000000000000000000 000000000000000A000000000000000000000000000000000000000000000 000000000000000000000000000000000000000     00000000                                                                                                                        000000000000000000
F0010000008291600001000000827614700013050500000000000000000201602230002001ALVARO  HERNAN  PEREZ ALVAREZ                     D000000008030000000000000000000000100010010000000000000000000000F0010000008291600120160223000101 00000000000000000000000000000000000000000000000000000000000000000000000000000000000000000000000000000000000000000N 00000000000NCONT   00    00000000000          00000000000000000000000000000000000000000000 000000000000000A000000000000000000000000000000000000000000000 000000000000000000000000000000000000000     00000000                                                                                                                        000000000000000000
F0010000008291600002000000827614700041450500000000000000000201602230002001ALVARO  HERNAN  PEREZ ALVAREZ                     C000000007200000000000000000000000100010010000000000000000000000F0010000008291600220160223000101 00000000000000000000000000000000000000000000000000000000000000000000000000000000000000000000000000000000000000000N 00000000000NCONT   00    00000000000          00000000000000000000000000000000000000000000 000000000000000A000000000000000000000000000000000000000000000 000000000000000000000000000000000000000     00000000                                                                                                                        000000000000000000
F0010000008291600003000000827614700042505000000000000000000201602230002001ALVARO  HERNAN  PEREZ ALVAREZ                     C000000000830000000000000000000000100010010000000000000000000000F0010000008291600320160223000101 00000000000000000000000000000000000000000000000000000000000000000000000000000000000000000000000000000000000000000N 00000000000NCONT   00    00000000000          00000000000000000000000000000000000000000000 000000000000000A000000000000000000000000000000000000000000000 000000000000000000000000000000000000000     00000000                                                                                                                        000000000000000000
F0010000008291600004000000827614700023658300000000000000000201602230002001ALVARO  HERNAN  PEREZ ALVAREZ                     C000000000057600000000000000000000100010010000000000000000000000F0010000008291600420160223000101 00000000000000000000000000000000000000000000000000000000000000000000000000000000000000000000000000000000000000000N 00000000000NCONT   00    00000000000          00000000000000000000000000000000000000000000 000000000000000A000000000000000000000000000000000000000000000 000000000000000000000000000000000000000     00000000                                                                                                                        000000000000000000
F0010000008291600005000000827614700013552100000000000000000201602230002001ALVARO  HERNAN  PEREZ ALVAREZ                     D000000000057600000000000000000000100010010000000000000000000000F0010000008291600520160223000101 00000000000000000000000000000000000000000000000000000000000000000000000000000000000000000000000000000000000000000N 00000000000NCONT   00    00000000000          00000000000000000000000000000000000000000000 000000000000000A000000000000000000000000000000000000000000000 000000000000000000000000000000000000000     00000000                                                                                                                        000000000000000000
F0010000008291700001000000868487100013050500000000000000000201602230002001JAIME PIÑEROS                                    D000000010710000000000000000000000100010010000000000000000000000F0010000008291700120160223000101 00000000000000000000000000000000000000000000000000000000000000000000000000000000000000000000000000000000000000000N 00000000000NCONT   00    00000000000          00000000000000000000000000000000000000000000 000000000000000A000000000000000000000000000000000000000000000 000000000000000000000000000000000000000     00000000                                                                                                                        000000000000000000
F0010000008291700002000000868487100041450500000000000000000201602230002001JAIME PIÑEROS                                    C000000006800000000000000000000000100010010000000000000000000000F0010000008291700220160223000101 00000000000000000000000000000000000000000000000000000000000000000000000000000000000000000000000000000000000000000N 00000000000NCONT   00    00000000000          00000000000000000000000000000000000000000000 000000000000000A000000000000000000000000000000000000000000000 000000000000000000000000000000000000000     00000000                                                                                                                        000000000000000000
F0010000008291700003000000868487100042505000000000000000000201602230002001JAIME PIÑEROS                                    C000000003910000000000000000000000100010010000000000000000000000F0010000008291700320160223000101 00000000000000000000000000000000000000000000000000000000000000000000000000000000000000000000000000000000000000000N 00000000000NCONT   00    00000000000          00000000000000000000000000000000000000000000 000000000000000A000000000000000000000000000000000000000000000 000000000000000000000000000000000000000     00000000                                                                                                                        000000000000000000
F0010000008291700004000000868487100023658300000000000000000201602230002001JAIME PIÑEROS                                    C000000000054400000000000000000000100010010000000000000000000000F0010000008291700420160223000101 00000000000000000000000000000000000000000000000000000000000000000000000000000000000000000000000000000000000000000N 00000000000NCONT   00    00000000000          00000000000000000000000000000000000000000000 000000000000000A000000000000000000000000000000000000000000000 000000000000000000000000000000000000000     00000000                                                                                                                        000000000000000000
F0010000008291700005000000868487100013552100000000000000000201602230002001JAIME PIÑEROS                                    D000000000054400000000000000000000100010010000000000000000000000F0010000008291700520160223000101 00000000000000000000000000000000000000000000000000000000000000000000000000000000000000000000000000000000000000000N 00000000000NCONT   00    00000000000          00000000000000000000000000000000000000000000 000000000000000A000000000000000000000000000000000000000000000 000000000000000000000000000000000000000     00000000                                                                                                                        000000000000000000
F0010000008291800001000090020547900013050500000000000000000201602230002001COMERCIALIZADORA DAC DEL CARIBE S.A.S.            D000000012802700000000000000000000100010010000000000000000000000F0010000008291800120160223000101 00000000000000000000000000000000000000000000000000000000000000000000000000000000000000000000000000000000000000000N 00000000000NCONT   00    00000000000          00000000000000000000000000000000000000000000 000000000000000A000000000000000000000000000000000000000000000 000000000000000000000000000000000000000     00000000                                                                                                                        000000000000000000
F0010000008291800002000090020547900041450500000000000000000201602230002001COMERCIALIZADORA DAC DEL CARIBE S.A.S.            C000000009300000000000000000000000100010010000000000000000000000F0010000008291800220160223000101 00000000000000000000000000000000000000000000000000000000000000000000000000000000000000000000000000000000000000000N 00000000000NCONT   00    00000000000          00000000000000000000000000000000000000000000 000000000000000A000000000000000000000000000000000000000000000 000000000000000000000000000000000000000     00000000                                                                                                                        000000000000000000
F0010000008291800003000090020547900042505000000000000000000201602230002001COMERCIALIZADORA DAC DEL CARIBE S.A.S.            C000000003502700000000000000000000100010010000000000000000000000F0010000008291800320160223000101 00000000000000000000000000000000000000000000000000000000000000000000000000000000000000000000000000000000000000000N 00000000000NCONT   00    00000000000          00000000000000000000000000000000000000000000 000000000000000A000000000000000000000000000000000000000000000 000000000000000000000000000000000000000     00000000                                                                                                                        000000000000000000
F0010000008291800004000090020547900023658300000000000000000201602230002001COMERCIALIZADORA DAC DEL CARIBE S.A.S.            C000000000074400000000000000000000100010010000000000000000000000F0010000008291800420160223000101 00000000000000000000000000000000000000000000000000000000000000000000000000000000000000000000000000000000000000000N 00000000000NCONT   00    00000000000          00000000000000000000000000000000000000000000 000000000000000A000000000000000000000000000000000000000000000 000000000000000000000000000000000000000     00000000                                                                                                                        000000000000000000
F0010000008291800005000090020547900013552100000000000000000201602230002001COMERCIALIZADORA DAC DEL CARIBE S.A.S.            D000000000074400000000000000000000100010010000000000000000000000F0010000008291800520160223000101 00000000000000000000000000000000000000000000000000000000000000000000000000000000000000000000000000000000000000000N 00000000000NCONT   00    00000000000          00000000000000000000000000000000000000000000 000000000000000A000000000000000000000000000000000000000000000 000000000000000000000000000000000000000     00000000                                                                                                                        000000000000000000
F0010000008291900001000080000083500013050500000000000000000201602230002001ALIPAR Y CIA LTDA                                 D000000018710000000000000000000000100010010000000000000000000000F0010000008291900120160223000101 00000000000000000000000000000000000000000000000000000000000000000000000000000000000000000000000000000000000000000N 00000000000NCONT   00    00000000000          00000000000000000000000000000000000000000000 000000000000000A000000000000000000000000000000000000000000000 000000000000000000000000000000000000000     00000000                                                                                                                        000000000000000000
F0010000008291900002000080000083500041450500000000000000000201602230002001ALIPAR Y CIA LTDA                                 C000000016910000000000000000000000100010010000000000000000000000F0010000008291900220160223000101 00000000000000000000000000000000000000000000000000000000000000000000000000000000000000000000000000000000000000000N 00000000000NCONT   00    00000000000          00000000000000000000000000000000000000000000 000000000000000A000000000000000000000000000000000000000000000 000000000000000000000000000000000000000     00000000                                                                                                                        000000000000000000
F0010000008291900003000080000083500042505000000000000000000201602230002001ALIPAR Y CIA LTDA                                 C000000001800000000000000000000000100010010000000000000000000000F0010000008291900320160223000101 00000000000000000000000000000000000000000000000000000000000000000000000000000000000000000000000000000000000000000N 00000000000NCONT   00    00000000000          00000000000000000000000000000000000000000000 000000000000000A000000000000000000000000000000000000000000000 000000000000000000000000000000000000000     00000000                                                                                                                        000000000000000000
F0010000008291900004000080000083500023658300000000000000000201602230002001ALIPAR Y CIA LTDA                                 C000000000135300000000000000000000100010010000000000000000000000F0010000008291900420160223000101 00000000000000000000000000000000000000000000000000000000000000000000000000000000000000000000000000000000000000000N 00000000000NCONT   00    00000000000          00000000000000000000000000000000000000000000 000000000000000A000000000000000000000000000000000000000000000 000000000000000000000000000000000000000     00000000                                                                                                                        000000000000000000
F0010000008291900005000080000083500013552100000000000000000201602230002001ALIPAR Y CIA LTDA                                 D000000000135300000000000000000000100010010000000000000000000000F0010000008291900520160223000101 00000000000000000000000000000000000000000000000000000000000000000000000000000000000000000000000000000000000000000N 00000000000NCONT   00    00000000000          00000000000000000000000000000000000000000000 000000000000000A000000000000000000000000000000000000000000000 000000000000000000000000000000000000000     00000000                                                                                                                        000000000000000000
F0010000008292000001000090050863700013050500000000000000000201602230002001COMERCIALIZADORA PERFECT SAS                      D000000007260600000000000000000000100010010000000000000000000000F0010000008292000120160223000101 00000000000000000000000000000000000000000000000000000000000000000000000000000000000000000000000000000000000000000N 00000000000NCONT   00    00000000000          00000000000000000000000000000000000000000000 000000000000000A000000000000000000000000000000000000000000000 000000000000000000000000000000000000000     00000000                                                                                                                        000000000000000000
F0010000008292000002000090050863700041450500000000000000000201602230002001COMERCIALIZADORA PERFECT SAS                      C000000005210600000000000000000000100010010000000000000000000000F0010000008292000220160223000101 00000000000000000000000000000000000000000000000000000000000000000000000000000000000000000000000000000000000000000N 00000000000NCONT   00    00000000000          00000000000000000000000000000000000000000000 000000000000000A000000000000000000000000000000000000000000000 000000000000000000000000000000000000000     00000000                                                                                                                        000000000000000000
F0010000008292000003000090050863700042505000000000000000000201602230002001COMERCIALIZADORA PERFECT SAS                      C000000002050000000000000000000000100010010000000000000000000000F0010000008292000320160223000101 00000000000000000000000000000000000000000000000000000000000000000000000000000000000000000000000000000000000000000N 00000000000NCONT   00    00000000000          00000000000000000000000000000000000000000000 000000000000000A000000000000000000000000000000000000000000000 000000000000000000000000000000000000000     00000000                                                                                                                        000000000000000000
F0010000008292000004000090050863700023658300000000000000000201602230002001COMERCIALIZADORA PERFECT SAS                      C000000000041700000000000000000000100010010000000000000000000000F0010000008292000420160223000101 00000000000000000000000000000000000000000000000000000000000000000000000000000000000000000000000000000000000000000N 00000000000NCONT   00    00000000000          00000000000000000000000000000000000000000000 000000000000000A000000000000000000000000000000000000000000000 000000000000000000000000000000000000000     00000000                                                                                                                        000000000000000000
F0010000008292000005000090050863700013552100000000000000000201602230002001COMERCIALIZADORA PERFECT SAS                      D000000000041700000000000000000000100010010000000000000000000000F0010000008292000520160223000101 00000000000000000000000000000000000000000000000000000000000000000000000000000000000000000000000000000000000000000N 00000000000NCONT   00    00000000000          00000000000000000000000000000000000000000000 000000000000000A000000000000000000000000000000000000000000000 000000000000000000000000000000000000000     00000000                                                                                                                        000000000000000000
F0010000008292100001000080001403600013050500000000000000000201602230002001DISCOMERCIAL AZ                                   D000000018500000000000000000000000100010010000000000000000000000F0010000008292100120160223000101 00000000000000000000000000000000000000000000000000000000000000000000000000000000000000000000000000000000000000000N 00000000000NCONT   00    00000000000          00000000000000000000000000000000000000000000 000000000000000A000000000000000000000000000000000000000000000 000000000000000000000000000000000000000     00000000                                                                                                                        000000000000000000
F0010000008292100002000080001403600041450500000000000000000201602230002001DISCOMERCIAL AZ                                   C000000015600000000000000000000000100010010000000000000000000000F0010000008292100220160223000101 00000000000000000000000000000000000000000000000000000000000000000000000000000000000000000000000000000000000000000N 00000000000NCONT   00    00000000000          00000000000000000000000000000000000000000000 000000000000000A000000000000000000000000000000000000000000000 000000000000000000000000000000000000000     00000000                                                                                                                        000000000000000000
F0010000008292100003000080001403600042505000000000000000000201602230002001DISCOMERCIAL AZ                                   C000000002900000000000000000000000100010010000000000000000000000F0010000008292100320160223000101 00000000000000000000000000000000000000000000000000000000000000000000000000000000000000000000000000000000000000000N 00000000000NCONT   00    00000000000          00000000000000000000000000000000000000000000 000000000000000A000000000000000000000000000000000000000000000 000000000000000000000000000000000000000     00000000                                                                                                                        000000000000000000
F0010000008292100004000080001403600023658300000000000000000201602230002001DISCOMERCIAL AZ                                   C000000000124800000000000000000000100010010000000000000000000000F0010000008292100420160223000101 00000000000000000000000000000000000000000000000000000000000000000000000000000000000000000000000000000000000000000N 00000000000NCONT   00    00000000000          00000000000000000000000000000000000000000000 000000000000000A000000000000000000000000000000000000000000000 000000000000000000000000000000000000000     00000000                                                                                                                        000000000000000000
F0010000008292100005000080001403600013552100000000000000000201602230002001DISCOMERCIAL AZ                                   D000000000124800000000000000000000100010010000000000000000000000F0010000008292100520160223000101 00000000000000000000000000000000000000000000000000000000000000000000000000000000000000000000000000000000000000000N 00000000000NCONT   00    00000000000          00000000000000000000000000000000000000000000 000000000000000A000000000000000000000000000000000000000000000 000000000000000000000000000000000000000     00000000                                                                                                                        000000000000000000
F0010000008292200001000000870907300013050500000000000000000201602230002001SURTIDOR FERRETERO                                D000000053181800000000000000000000100010010000000000000000000000F0010000008292200120160223000101 00000000000000000000000000000000000000000000000000000000000000000000000000000000000000000000000000000000000000000N 00000000000NCONT   00    00000000000          00000000000000000000000000000000000000000000 000000000000000A000000000000000000000000000000000000000000000 000000000000000000000000000000000000000     00000000                                                                                                                        000000000000000000
F0010000008292200002000000870907300041450500000000000000000201602230002001SURTIDOR FERRETERO                                C000000038090000000000000000000000100010010000000000000000000000F0010000008292200220160223000101 00000000000000000000000000000000000000000000000000000000000000000000000000000000000000000000000000000000000000000N 00000000000NCONT   00    00000000000          00000000000000000000000000000000000000000000 000000000000000A000000000000000000000000000000000000000000000 000000000000000000000000000000000000000     00000000                                                                                                                        000000000000000000
F0010000008292200003000000870907300041750100000000000000000201602230002001SURTIDOR FERRETERO                                D000000003809000000000000000000000100010010000000000000000000000F0010000008292200320160223000101 00000000000000000000000000000000000000000000000000000000000000000000000000000000000000000000000000000000000000000N 00000000000NCONT   00    00000000000          00000000000000000000000000000000000000000000 000000000000000A000000000000000000000000000000000000000000000 000000000000000000000000000000000000000     00000000                                                                                                                        000000000000000000
F0010000008292200004000000870907300042505000000000000000000201602230002001SURTIDOR FERRETERO                                C000000018900800000000000000000000100010010000000000000000000000F0010000008292200420160223000101 00000000000000000000000000000000000000000000000000000000000000000000000000000000000000000000000000000000000000000N 00000000000NCONT   00    00000000000          00000000000000000000000000000000000000000000 000000000000000A000000000000000000000000000000000000000000000 000000000000000000000000000000000000000     00000000                                                                                                                        000000000000000000
F0010000008292200005000000870907300023658300000000000000000201602230002001SURTIDOR FERRETERO                                C000000000304700000000000000000000100010010000000000000000000000F0010000008292200520160223000101 00000000000000000000000000000000000000000000000000000000000000000000000000000000000000000000000000000000000000000N 00000000000NCONT   00    00000000000          00000000000000000000000000000000000000000000 000000000000000A000000000000000000000000000000000000000000000 000000000000000000000000000000000000000     00000000                                                                                                                        000000000000000000
F0010000008292200006000000870907300013552100000000000000000201602230002001SURTIDOR FERRETERO                                D000000000304700000000000000000000100010010000000000000000000000F0010000008292200620160223000101 00000000000000000000000000000000000000000000000000000000000000000000000000000000000000000000000000000000000000000N 00000000000NCONT   00    00000000000          00000000000000000000000000000000000000000000 000000000000000A000000000000000000000000000000000000000000000 000000000000000000000000000000000000000     00000000                                                                                                                        000000000000000000
F0010000008292300001000089010272700013050500000000000000000201602230002001ALFONSOEME S.A.                                   D000000031654900000000000000000000100010010000000000000000000000F0010000008292300120160223000101 00000000000000000000000000000000000000000000000000000000000000000000000000000000000000000000000000000000000000000N 00000000000NCONT   00    00000000000          00000000000000000000000000000000000000000000 000000000000000A000000000000000000000000000000000000000000000 000000000000000000000000000000000000000     00000000                                                                                                                        000000000000000000
F0010000008292300002000089010272700041450500000000000000000201602230002001ALFONSOEME S.A.                                   C000000032061000000000000000000000100010010000000000000000000000F0010000008292300220160223000101 00000000000000000000000000000000000000000000000000000000000000000000000000000000000000000000000000000000000000000N 00000000000NCONT   00    00000000000          00000000000000000000000000000000000000000000 000000000000000A000000000000000000000000000000000000000000000 000000000000000000000000000000000000000     00000000                                                                                                                        000000000000000000
F0010000008292300003000089010272700041750100000000000000000201602230002001ALFONSOEME S.A.                                   D000000003206100000000000000000000100010010000000000000000000000F0010000008292300320160223000101 00000000000000000000000000000000000000000000000000000000000000000000000000000000000000000000000000000000000000000N 00000000000NCONT   00    00000000000          00000000000000000000000000000000000000000000 000000000000000A000000000000000000000000000000000000000000000 000000000000000000000000000000000000000     00000000                                                                                                                        000000000000000000
F0010000008292300004000089010272700042505000000000000000000201602230002001ALFONSOEME S.A.                                   C000000002800000000000000000000000100010010000000000000000000000F0010000008292300420160223000101 00000000000000000000000000000000000000000000000000000000000000000000000000000000000000000000000000000000000000000N 00000000000NCONT   00    00000000000          00000000000000000000000000000000000000000000 000000000000000A000000000000000000000000000000000000000000000 000000000000000000000000000000000000000     00000000                                                                                                                        000000000000000000
F0010000008292300005000089010272700023658300000000000000000201602230002001ALFONSOEME S.A.                                   C000000000256500000000000000000000100010010000000000000000000000F0010000008292300520160223000101 00000000000000000000000000000000000000000000000000000000000000000000000000000000000000000000000000000000000000000N 00000000000NCONT   00    00000000000          00000000000000000000000000000000000000000000 000000000000000A000000000000000000000000000000000000000000000 000000000000000000000000000000000000000     00000000                                                                                                                        000000000000000000
F0010000008292300006000089010272700013552100000000000000000201602230002001ALFONSOEME S.A.                                   D000000000256500000000000000000000100010010000000000000000000000F0010000008292300620160223000101 00000000000000000000000000000000000000000000000000000000000000000000000000000000000000000000000000000000000000000N 00000000000NCONT   00    00000000000          00000000000000000000000000000000000000000000 000000000000000A000000000000000000000000000000000000000000000 000000000000000000000000000000000000000     00000000                                                                                                                        000000000000000000
F0010000008292400001000089010272700013050500000000000000000201602230002001ALFONSOEME S.A.                                   D000000003344000000000000000000000100010010000000000000000000000F0010000008292400120160223000101 00000000000000000000000000000000000000000000000000000000000000000000000000000000000000000000000000000000000000000N 00000000000NCONT   00    00000000000          00000000000000000000000000000000000000000000 000000000000000A000000000000000000000000000000000000000000000 000000000000000000000000000000000000000     00000000                                                                                                                        000000000000000000
F0010000008292400002000089010272700041450500000000000000000201602230002001ALFONSOEME S.A.                                   C000000003360000000000000000000000100010010000000000000000000000F0010000008292400220160223000101 00000000000000000000000000000000000000000000000000000000000000000000000000000000000000000000000000000000000000000N 00000000000NCONT   00    00000000000          00000000000000000000000000000000000000000000 000000000000000A000000000000000000000000000000000000000000000 000000000000000000000000000000000000000     00000000                                                                                                                        000000000000000000
F0010000008292400003000089010272700041750100000000000000000201602230002001ALFONSOEME S.A.                                   D000000000336000000000000000000000100010010000000000000000000000F0010000008292400320160223000101 00000000000000000000000000000000000000000000000000000000000000000000000000000000000000000000000000000000000000000N 00000000000NCONT   00    00000000000          00000000000000000000000000000000000000000000 000000000000000A000000000000000000000000000000000000000000000 000000000000000000000000000000000000000     00000000                                                                                                                        000000000000000000
F0010000008292400004000089010272700042505000000000000000000201602230002001ALFONSOEME S.A.                                   C000000000320000000000000000000000100010010000000000000000000000F0010000008292400420160223000101 00000000000000000000000000000000000000000000000000000000000000000000000000000000000000000000000000000000000000000N 00000000000NCONT   00    00000000000          00000000000000000000000000000000000000000000 000000000000000A000000000000000000000000000000000000000000000 000000000000000000000000000000000000000     00000000                                                                                                                        000000000000000000
F0010000008292400005000089010272700023658300000000000000000201602230002001ALFONSOEME S.A.                                   C000000000026900000000000000000000100010010000000000000000000000F0010000008292400520160223000101 00000000000000000000000000000000000000000000000000000000000000000000000000000000000000000000000000000000000000000N 00000000000NCONT   00    00000000000          00000000000000000000000000000000000000000000 000000000000000A000000000000000000000000000000000000000000000 000000000000000000000000000000000000000     00000000                                                                                                                        000000000000000000
F0010000008292400006000089010272700013552100000000000000000201602230002001ALFONSOEME S.A.                                   D000000000026900000000000000000000100010010000000000000000000000F0010000008292400620160223000101 00000000000000000000000000000000000000000000000000000000000000000000000000000000000000000000000000000000000000000N 00000000000NCONT   00    00000000000          00000000000000000000000000000000000000000000 000000000000000A000000000000000000000000000000000000000000000 000000000000000000000000000000000000000     00000000                                                                                                                        000000000000000000
F0010000008292500001000080200049600011050500000000000000000201602230002001FAMAPAN DEL CARIBE                                D000000002000000000000000000000000100010010000000000000000000000F0010000008292500120160223000101 00000000000000000000000000000000000000000000000000000000000000000000000000000000000000000000000000000000000000000N 00000000000NCONT   00    00000000000          00000000000000000000000000000000000000000000 000000000000000A000000000000000000000000000000000000000000000 000000000000000000000000000000000000000     00000000                                                                                                                        000000000000000000
F0010000008292500002000080200049600041450500000000000000000201602230002001FAMAPAN DEL CARIBE                                C000000001900000000000000000000000100010010000000000000000000000F0010000008292500220160223000101 00000000000000000000000000000000000000000000000000000000000000000000000000000000000000000000000000000000000000000N 00000000000NCONT   00    00000000000          00000000000000000000000000000000000000000000 000000000000000A000000000000000000000000000000000000000000000 000000000000000000000000000000000000000     00000000                                                                                                                        000000000000000000
F0010000008292500003000080200049600042505000000000000000000201602230002001FAMAPAN DEL CARIBE                                C000000000100000000000000000000000100010010000000000000000000000F0010000008292500320160223000101 00000000000000000000000000000000000000000000000000000000000000000000000000000000000000000000000000000000000000000N 00000000000NCONT   00    00000000000          00000000000000000000000000000000000000000000 000000000000000A000000000000000000000000000000000000000000000 000000000000000000000000000000000000000     00000000                                                                                                                        000000000000000000
F0010000008292500004000080200049600023658300000000000000000201602230002001FAMAPAN DEL CARIBE                                C000000000015200000000000000000000100010010000000000000000000000F0010000008292500420160223000101 00000000000000000000000000000000000000000000000000000000000000000000000000000000000000000000000000000000000000000N 00000000000NCONT   00    00000000000          00000000000000000000000000000000000000000000 000000000000000A000000000000000000000000000000000000000000000 000000000000000000000000000000000000000     00000000                                                                                                                        000000000000000000
F0010000008292500005000080200049600013552100000000000000000201602230002001FAMAPAN DEL CARIBE                                D000000000015200000000000000000000100010010000000000000000000000F0010000008292500520160223000101 00000000000000000000000000000000000000000000000000000000000000000000000000000000000000000000000000000000000000000N 00000000000NCONT   00    00000000000          00000000000000000000000000000000000000000000 000000000000000A000000000000000000000000000000000000000000000 000000000000000000000000000000000000000     00000000                                                                                                                        000000000000000000
F0010000008292600001000080201411900011050500000000000000000201602230002001PLASTISERVICIOS S DE H                            D000000004700000000000000000000000100010010000000000000000000000F0010000008292600120160223000101 00000000000000000000000000000000000000000000000000000000000000000000000000000000000000000000000000000000000000000N 00000000000NCONT   00    00000000000          00000000000000000000000000000000000000000000 000000000000000A000000000000000000000000000000000000000000000 000000000000000000000000000000000000000     00000000                                                                                                                        000000000000000000
F0010000008292600002000080201411900041450500000000000000000201602230002001PLASTISERVICIOS S DE H                            C000000003600000000000000000000000100010010000000000000000000000F0010000008292600220160223000101 00000000000000000000000000000000000000000000000000000000000000000000000000000000000000000000000000000000000000000N 00000000000NCONT   00    00000000000          00000000000000000000000000000000000000000000 000000000000000A000000000000000000000000000000000000000000000 000000000000000000000000000000000000000     00000000                                                                                                                        000000000000000000
F0010000008292600003000080201411900042505000000000000000000201602230002001PLASTISERVICIOS S DE H                            C000000001100000000000000000000000100010010000000000000000000000F0010000008292600320160223000101 00000000000000000000000000000000000000000000000000000000000000000000000000000000000000000000000000000000000000000N 00000000000NCONT   00    00000000000          00000000000000000000000000000000000000000000 000000000000000A000000000000000000000000000000000000000000000 000000000000000000000000000000000000000     00000000                                                                                                                        000000000000000000
F0010000008292600004000080201411900023658300000000000000000201602230002001PLASTISERVICIOS S DE H                            C000000000028800000000000000000000100010010000000000000000000000F0010000008292600420160223000101 00000000000000000000000000000000000000000000000000000000000000000000000000000000000000000000000000000000000000000N 00000000000NCONT   00    00000000000          00000000000000000000000000000000000000000000 000000000000000A000000000000000000000000000000000000000000000 000000000000000000000000000000000000000     00000000                                                                                                                        000000000000000000
F0010000008292600005000080201411900013552100000000000000000201602230002001PLASTISERVICIOS S DE H                            D000000000028800000000000000000000100010010000000000000000000000F0010000008292600520160223000101 00000000000000000000000000000000000000000000000000000000000000000000000000000000000000000000000000000000000000000N 00000000000NCONT   00    00000000000          00000000000000000000000000000000000000000000 000000000000000A000000000000000000000000000000000000000000000 000000000000000000000000000000000000000     00000000                                                                                                                        000000000000000000
F0010000008292700001000090034602400011050500000000000000000201602230002001PRODUCTOS NACIONALES PARAFINICOS LA CUSTODIA S.A.SD000000003800000000000000000000000100010010000000000000000000000F0010000008292700120160223000101 00000000000000000000000000000000000000000000000000000000000000000000000000000000000000000000000000000000000000000N 00000000000NCONT   00    00000000000          00000000000000000000000000000000000000000000 000000000000000A000000000000000000000000000000000000000000000 000000000000000000000000000000000000000     00000000                                                                                                                        000000000000000000
F0010000008292700002000090034602400041450500000000000000000201602230002001PRODUCTOS NACIONALES PARAFINICOS LA CUSTODIA S.A.SC000000003400000000000000000000000100010010000000000000000000000F0010000008292700220160223000101 00000000000000000000000000000000000000000000000000000000000000000000000000000000000000000000000000000000000000000N 00000000000NCONT   00    00000000000          00000000000000000000000000000000000000000000 000000000000000A000000000000000000000000000000000000000000000 000000000000000000000000000000000000000     00000000                                                                                                                        000000000000000000
F0010000008292700003000090034602400042505000000000000000000201602230002001PRODUCTOS NACIONALES PARAFINICOS LA CUSTODIA S.A.SC000000000400000000000000000000000100010010000000000000000000000F0010000008292700320160223000101 00000000000000000000000000000000000000000000000000000000000000000000000000000000000000000000000000000000000000000N 00000000000NCONT   00    00000000000          00000000000000000000000000000000000000000000 000000000000000A000000000000000000000000000000000000000000000 000000000000000000000000000000000000000     00000000                                                                                                                        000000000000000000
F0010000008292700004000090034602400023658300000000000000000201602230002001PRODUCTOS NACIONALES PARAFINICOS LA CUSTODIA S.A.SC000000000027200000000000000000000100010010000000000000000000000F0010000008292700420160223000101 00000000000000000000000000000000000000000000000000000000000000000000000000000000000000000000000000000000000000000N 00000000000NCONT   00    00000000000          00000000000000000000000000000000000000000000 000000000000000A000000000000000000000000000000000000000000000 000000000000000000000000000000000000000     00000000                                                                                                                        000000000000000000
F0010000008292700005000090034602400013552100000000000000000201602230002001PRODUCTOS NACIONALES PARAFINICOS LA CUSTODIA S.A.SD000000000027200000000000000000000100010010000000000000000000000F0010000008292700520160223000101 00000000000000000000000000000000000000000000000000000000000000000000000000000000000000000000000000000000000000000N 00000000000NCONT   00    00000000000          00000000000000000000000000000000000000000000 000000000000000A000000000000000000000000000000000000000000000 000000000000000000000000000000000000000     00000000                                                                                                                        000000000000000000
F0010000008292800001000090034602400011050500000000000000000201602230002001PRODUCTOS NACIONALES PARAFINICOS LA CUSTODIA S.A.SD000000008600000000000000000000000100010010000000000000000000000F0010000008292800120160223000101 00000000000000000000000000000000000000000000000000000000000000000000000000000000000000000000000000000000000000000N 00000000000NCONT   00    00000000000          00000000000000000000000000000000000000000000 000000000000000A000000000000000000000000000000000000000000000 000000000000000000000000000000000000000     00000000                                                                                                                        000000000000000000
F0010000008292800002000090034602400041450500000000000000000201602230002001PRODUCTOS NACIONALES PARAFINICOS LA CUSTODIA S.A.SC000000007700000000000000000000000100010010000000000000000000000F0010000008292800220160223000101 00000000000000000000000000000000000000000000000000000000000000000000000000000000000000000000000000000000000000000N 00000000000NCONT   00    00000000000          00000000000000000000000000000000000000000000 000000000000000A000000000000000000000000000000000000000000000 000000000000000000000000000000000000000     00000000                                                                                                                        000000000000000000
F0010000008292800003000090034602400042505000000000000000000201602230002001PRODUCTOS NACIONALES PARAFINICOS LA CUSTODIA S.A.SC000000000900000000000000000000000100010010000000000000000000000F0010000008292800320160223000101 00000000000000000000000000000000000000000000000000000000000000000000000000000000000000000000000000000000000000000N 00000000000NCONT   00    00000000000          00000000000000000000000000000000000000000000 000000000000000A000000000000000000000000000000000000000000000 000000000000000000000000000000000000000     00000000                                                                                                                        000000000000000000
F0010000008292800004000090034602400023658300000000000000000201602230002001PRODUCTOS NACIONALES PARAFINICOS LA CUSTODIA S.A.SC000000000061600000000000000000000100010010000000000000000000000F0010000008292800420160223000101 00000000000000000000000000000000000000000000000000000000000000000000000000000000000000000000000000000000000000000N 00000000000NCONT   00    00000000000          00000000000000000000000000000000000000000000 000000000000000A000000000000000000000000000000000000000000000 000000000000000000000000000000000000000     00000000                                                                                                                        000000000000000000
F0010000008292800005000090034602400013552100000000000000000201602230002001PRODUCTOS NACIONALES PARAFINICOS LA CUSTODIA S.A.SD000000000061600000000000000000000100010010000000000000000000000F0010000008292800520160223000101 00000000000000000000000000000000000000000000000000000000000000000000000000000000000000000000000000000000000000000N 00000000000NCONT   00    00000000000          00000000000000000000000000000000000000000000 000000000000000A000000000000000000000000000000000000000000000 000000000000000000000000000000000000000     00000000                                                                                                                        000000000000000000
F0010000008292900001000090034602400011050500000000000000000201602230002001PRODUCTOS NACIONALES PARAFINICOS LA CUSTODIA S.A.SD000000003800000000000000000000000100010010000000000000000000000F0010000008292900120160223000101 00000000000000000000000000000000000000000000000000000000000000000000000000000000000000000000000000000000000000000N 00000000000NCONT   00    00000000000          00000000000000000000000000000000000000000000 000000000000000A000000000000000000000000000000000000000000000 000000000000000000000000000000000000000     00000000                                                                                                                        000000000000000000
F0010000008292900002000090034602400041450500000000000000000201602230002001PRODUCTOS NACIONALES PARAFINICOS LA CUSTODIA S.A.SC000000003400000000000000000000000100010010000000000000000000000F0010000008292900220160223000101 00000000000000000000000000000000000000000000000000000000000000000000000000000000000000000000000000000000000000000N 00000000000NCONT   00    00000000000          00000000000000000000000000000000000000000000 000000000000000A000000000000000000000000000000000000000000000 000000000000000000000000000000000000000     00000000                                                                                                                        000000000000000000
F0010000008292900003000090034602400042505000000000000000000201602230002001PRODUCTOS NACIONALES PARAFINICOS LA CUSTODIA S.A.SC000000000400000000000000000000000100010010000000000000000000000F0010000008292900320160223000101 00000000000000000000000000000000000000000000000000000000000000000000000000000000000000000000000000000000000000000N 00000000000NCONT   00    00000000000          00000000000000000000000000000000000000000000 000000000000000A000000000000000000000000000000000000000000000 000000000000000000000000000000000000000     00000000                                                                                                                        000000000000000000
F0010000008292900004000090034602400023658300000000000000000201602230002001PRODUCTOS NACIONALES PARAFINICOS LA CUSTODIA S.A.SC000000000027200000000000000000000100010010000000000000000000000F0010000008292900420160223000101 00000000000000000000000000000000000000000000000000000000000000000000000000000000000000000000000000000000000000000N 00000000000NCONT   00    00000000000          00000000000000000000000000000000000000000000 000000000000000A000000000000000000000000000000000000000000000 000000000000000000000000000000000000000     00000000                                                                                                                        000000000000000000
F0010000008292900005000090034602400013552100000000000000000201602230002001PRODUCTOS NACIONALES PARAFINICOS LA CUSTODIA S.A.SD000000000027200000000000000000000100010010000000000000000000000F0010000008292900520160223000101 00000000000000000000000000000000000000000000000000000000000000000000000000000000000000000000000000000000000000000N 00000000000NCONT   00    00000000000          00000000000000000000000000000000000000000000 000000000000000A000000000000000000000000000000000000000000000 000000000000000000000000000000000000000     00000000                                                                                                                        000000000000000000
F0010000008293000001000090034602400011050500000000000000000201602230002001PRODUCTOS NACIONALES PARAFINICOS LA CUSTODIA S.A.SD000000003800000000000000000000000100010010000000000000000000000F0010000008293000120160223000101 00000000000000000000000000000000000000000000000000000000000000000000000000000000000000000000000000000000000000000N 00000000000NCONT   00    00000000000          00000000000000000000000000000000000000000000 000000000000000A000000000000000000000000000000000000000000000 000000000000000000000000000000000000000     00000000                                                                                                                        000000000000000000
F0010000008293000002000090034602400041450500000000000000000201602230002001PRODUCTOS NACIONALES PARAFINICOS LA CUSTODIA S.A.SC000000003400000000000000000000000100010010000000000000000000000F0010000008293000220160223000101 00000000000000000000000000000000000000000000000000000000000000000000000000000000000000000000000000000000000000000N 00000000000NCONT   00    00000000000          00000000000000000000000000000000000000000000 000000000000000A000000000000000000000000000000000000000000000 000000000000000000000000000000000000000     00000000                                                                                                                        000000000000000000
F0010000008293000003000090034602400042505000000000000000000201602230002001PRODUCTOS NACIONALES PARAFINICOS LA CUSTODIA S.A.SC000000000400000000000000000000000100010010000000000000000000000F0010000008293000320160223000101 00000000000000000000000000000000000000000000000000000000000000000000000000000000000000000000000000000000000000000N 00000000000NCONT   00    00000000000          00000000000000000000000000000000000000000000 000000000000000A000000000000000000000000000000000000000000000 000000000000000000000000000000000000000     00000000                                                                                                                        000000000000000000
F0010000008293000004000090034602400023658300000000000000000201602230002001PRODUCTOS NACIONALES PARAFINICOS LA CUSTODIA S.A.SC000000000027200000000000000000000100010010000000000000000000000F0010000008293000420160223000101 00000000000000000000000000000000000000000000000000000000000000000000000000000000000000000000000000000000000000000N 00000000000NCONT   00    00000000000          00000000000000000000000000000000000000000000 000000000000000A000000000000000000000000000000000000000000000 000000000000000000000000000000000000000     00000000                                                                                                                        000000000000000000
F0010000008293000005000090034602400013552100000000000000000201602230002001PRODUCTOS NACIONALES PARAFINICOS LA CUSTODIA S.A.SD000000000027200000000000000000000100010010000000000000000000000F0010000008293000520160223000101 00000000000000000000000000000000000000000000000000000000000000000000000000000000000000000000000000000000000000000N 00000000000NCONT   00    00000000000          00000000000000000000000000000000000000000000 000000000000000A000000000000000000000000000000000000000000000 000000000000000000000000000000000000000     00000000                                                                                                                        000000000000000000
F0010000008293100001000090034602400011050500000000000000000201602230002001PRODUCTOS NACIONALES PARAFINICOS LA CUSTODIA S.A.SD000000002800000000000000000000000100010010000000000000000000000F0010000008293100120160223000101 00000000000000000000000000000000000000000000000000000000000000000000000000000000000000000000000000000000000000000N 00000000000NCONT   00    00000000000          00000000000000000000000000000000000000000000 000000000000000A000000000000000000000000000000000000000000000 000000000000000000000000000000000000000     00000000                                                                                                                        000000000000000000
F0010000008293100002000090034602400041450500000000000000000201602230002001PRODUCTOS NACIONALES PARAFINICOS LA CUSTODIA S.A.SC000000002500000000000000000000000100010010000000000000000000000F0010000008293100220160223000101 00000000000000000000000000000000000000000000000000000000000000000000000000000000000000000000000000000000000000000N 00000000000NCONT   00    00000000000          00000000000000000000000000000000000000000000 000000000000000A000000000000000000000000000000000000000000000 000000000000000000000000000000000000000     00000000                                                                                                                        000000000000000000
F0010000008293100003000090034602400042505000000000000000000201602230002001PRODUCTOS NACIONALES PARAFINICOS LA CUSTODIA S.A.SC000000000300000000000000000000000100010010000000000000000000000F0010000008293100320160223000101 00000000000000000000000000000000000000000000000000000000000000000000000000000000000000000000000000000000000000000N 00000000000NCONT   00    00000000000          00000000000000000000000000000000000000000000 000000000000000A000000000000000000000000000000000000000000000 000000000000000000000000000000000000000     00000000                                                                                                                        000000000000000000
F0010000008293100004000090034602400023658300000000000000000201602230002001PRODUCTOS NACIONALES PARAFINICOS LA CUSTODIA S.A.SC000000000020000000000000000000000100010010000000000000000000000F0010000008293100420160223000101 00000000000000000000000000000000000000000000000000000000000000000000000000000000000000000000000000000000000000000N 00000000000NCONT   00    00000000000          00000000000000000000000000000000000000000000 000000000000000A000000000000000000000000000000000000000000000 000000000000000000000000000000000000000     00000000                                                                                                                        000000000000000000
F0010000008293100005000090034602400013552100000000000000000201602230002001PRODUCTOS NACIONALES PARAFINICOS LA CUSTODIA S.A.SD000000000020000000000000000000000100010010000000000000000000000F0010000008293100520160223000101 00000000000000000000000000000000000000000000000000000000000000000000000000000000000000000000000000000000000000000N 00000000000NCONT   00    00000000000          00000000000000000000000000000000000000000000 000000000000000A000000000000000000000000000000000000000000000 000000000000000000000000000000000000000     00000000                                                                                                                        000000000000000000
F0010000008293200001000000869805000011050500000000000000000201602230002001WILMAN RAMBAL LARA                                D000000004100000000000000000000000100010010000000000000000000000F0010000008293200120160223000101 00000000000000000000000000000000000000000000000000000000000000000000000000000000000000000000000000000000000000000N 00000000000NCONT   00    00000000000          00000000000000000000000000000000000000000000 000000000000000A000000000000000000000000000000000000000000000 000000000000000000000000000000000000000     00000000                                                                                                                        000000000000000000
F0010000008293200002000000869805000041450500000000000000000201602230002001WILMAN RAMBAL LARA                                C000000003600000000000000000000000100010010000000000000000000000F0010000008293200220160223000101 00000000000000000000000000000000000000000000000000000000000000000000000000000000000000000000000000000000000000000N 00000000000NCONT   00    00000000000          00000000000000000000000000000000000000000000 000000000000000A000000000000000000000000000000000000000000000 000000000000000000000000000000000000000     00000000                                                                                                                        000000000000000000
F0010000008293200003000000869805000042505000000000000000000201602230002001WILMAN RAMBAL LARA                                C000000000500000000000000000000000100010010000000000000000000000F0010000008293200320160223000101 00000000000000000000000000000000000000000000000000000000000000000000000000000000000000000000000000000000000000000N 00000000000NCONT   00    00000000000          00000000000000000000000000000000000000000000 000000000000000A000000000000000000000000000000000000000000000 000000000000000000000000000000000000000     00000000                                                                                                                        000000000000000000
F0010000008293200004000000869805000023658300000000000000000201602230002001WILMAN RAMBAL LARA                                C000000000028800000000000000000000100010010000000000000000000000F0010000008293200420160223000101 00000000000000000000000000000000000000000000000000000000000000000000000000000000000000000000000000000000000000000N 00000000000NCONT   00    00000000000          00000000000000000000000000000000000000000000 000000000000000A000000000000000000000000000000000000000000000 000000000000000000000000000000000000000     00000000                                                                                                                        000000000000000000
F0010000008293200005000000869805000013552100000000000000000201602230002001WILMAN RAMBAL LARA                                D000000000028800000000000000000000100010010000000000000000000000F0010000008293200520160223000101 00000000000000000000000000000000000000000000000000000000000000000000000000000000000000000000000000000000000000000N 00000000000NCONT   00    00000000000          00000000000000000000000000000000000000000000 000000000000000A000000000000000000000000000000000000000000000 000000000000000000000000000000000000000     00000000                                                                                                                        000000000000000000
F0010000008293300001000003319910700011050500000000000000000201602230002001LUZ DARY JIMENEZ MARTINEZ                         D000000001100000000000000000000000100010010000000000000000000000F0010000008293300120160223000101 00000000000000000000000000000000000000000000000000000000000000000000000000000000000000000000000000000000000000000N 00000000000NCONT   00    00000000000          00000000000000000000000000000000000000000000 000000000000000A000000000000000000000000000000000000000000000 000000000000000000000000000000000000000     00000000                                                                                                                        000000000000000000
F0010000008293300002000003319910700041450500000000000000000201602230002001LUZ DARY JIMENEZ MARTINEZ                         C000000001000000000000000000000000100010010000000000000000000000F0010000008293300220160223000101 00000000000000000000000000000000000000000000000000000000000000000000000000000000000000000000000000000000000000000N 00000000000NCONT   00    00000000000          00000000000000000000000000000000000000000000 000000000000000A000000000000000000000000000000000000000000000 000000000000000000000000000000000000000     00000000                                                                                                                        000000000000000000
F0010000008293300003000003319910700042505000000000000000000201602230002001LUZ DARY JIMENEZ MARTINEZ                         C000000000100000000000000000000000100010010000000000000000000000F0010000008293300320160223000101 00000000000000000000000000000000000000000000000000000000000000000000000000000000000000000000000000000000000000000N 00000000000NCONT   00    00000000000          00000000000000000000000000000000000000000000 000000000000000A000000000000000000000000000000000000000000000 000000000000000000000000000000000000000     00000000                                                                                                                        000000000000000000
F0010000008293300004000003319910700023658300000000000000000201602230002001LUZ DARY JIMENEZ MARTINEZ                         C000000000008000000000000000000000100010010000000000000000000000F0010000008293300420160223000101 00000000000000000000000000000000000000000000000000000000000000000000000000000000000000000000000000000000000000000N 00000000000NCONT   00    00000000000          00000000000000000000000000000000000000000000 000000000000000A000000000000000000000000000000000000000000000 000000000000000000000000000000000000000     00000000                                                                                                                        000000000000000000
F0010000008293300005000003319910700013552100000000000000000201602230002001LUZ DARY JIMENEZ MARTINEZ                         D000000000008000000000000000000000100010010000000000000000000000F0010000008293300520160223000101 00000000000000000000000000000000000000000000000000000000000000000000000000000000000000000000000000000000000000000N 00000000000NCONT   00    00000000000          00000000000000000000000000000000000000000000 000000000000000A000000000000000000000000000000000000000000000 000000000000000000000000000000000000000     00000000                                                                                                                        000000000000000000
F0010000008293400001000001719393900011050500000000000000000201602230002001JAIRO BASTIDAS RAMIREZ                            D000000002900000000000000000000000100010010000000000000000000000F0010000008293400120160223000101 00000000000000000000000000000000000000000000000000000000000000000000000000000000000000000000000000000000000000000N 00000000000NCONT   00    00000000000          00000000000000000000000000000000000000000000 000000000000000A000000000000000000000000000000000000000000000 000000000000000000000000000000000000000     00000000                                                                                                                        000000000000000000
F0010000008293400002000001719393900041450500000000000000000201602230002001JAIRO BASTIDAS RAMIREZ                            C000000002400000000000000000000000100010010000000000000000000000F0010000008293400220160223000101 00000000000000000000000000000000000000000000000000000000000000000000000000000000000000000000000000000000000000000N 00000000000NCONT   00    00000000000          00000000000000000000000000000000000000000000 000000000000000A000000000000000000000000000000000000000000000 000000000000000000000000000000000000000     00000000                                                                                                                        000000000000000000
F0010000008293400003000001719393900042505000000000000000000201602230002001JAIRO BASTIDAS RAMIREZ                            C000000000500000000000000000000000100010010000000000000000000000F0010000008293400320160223000101 00000000000000000000000000000000000000000000000000000000000000000000000000000000000000000000000000000000000000000N 00000000000NCONT   00    00000000000          00000000000000000000000000000000000000000000 000000000000000A000000000000000000000000000000000000000000000 000000000000000000000000000000000000000     00000000                                                                                                                        000000000000000000
F0010000008293400004000001719393900023658300000000000000000201602230002001JAIRO BASTIDAS RAMIREZ                            C000000000019200000000000000000000100010010000000000000000000000F0010000008293400420160223000101 00000000000000000000000000000000000000000000000000000000000000000000000000000000000000000000000000000000000000000N 00000000000NCONT   00    00000000000          00000000000000000000000000000000000000000000 000000000000000A000000000000000000000000000000000000000000000 000000000000000000000000000000000000000     00000000                                                                                                                        000000000000000000
F0010000008293400005000001719393900013552100000000000000000201602230002001JAIRO BASTIDAS RAMIREZ                            D000000000019200000000000000000000100010010000000000000000000000F0010000008293400520160223000101 00000000000000000000000000000000000000000000000000000000000000000000000000000000000000000000000000000000000000000N 00000000000NCONT   00    00000000000          00000000000000000000000000000000000000000000 000000000000000A000000000000000000000000000000000000000000000 000000000000000000000000000000000000000     00000000                                                                                                                        000000000000000000
F0010000008293500001000001719393900011050500000000000000000201602230002001JAIRO BASTIDAS RAMIREZ                            D000000001600000000000000000000000100010010000000000000000000000F0010000008293500120160223000101 00000000000000000000000000000000000000000000000000000000000000000000000000000000000000000000000000000000000000000N 00000000000NCONT   00    00000000000          00000000000000000000000000000000000000000000 000000000000000A000000000000000000000000000000000000000000000 000000000000000000000000000000000000000     00000000                                                                                                                        000000000000000000
F0010000008293500002000001719393900041450500000000000000000201602230002001JAIRO BASTIDAS RAMIREZ                            C000000001200000000000000000000000100010010000000000000000000000F0010000008293500220160223000101 00000000000000000000000000000000000000000000000000000000000000000000000000000000000000000000000000000000000000000N 00000000000NCONT   00    00000000000          00000000000000000000000000000000000000000000 000000000000000A000000000000000000000000000000000000000000000 000000000000000000000000000000000000000     00000000                                                                                                                        000000000000000000
F0010000008293500003000001719393900042505000000000000000000201602230002001JAIRO BASTIDAS RAMIREZ                            C000000000400000000000000000000000100010010000000000000000000000F0010000008293500320160223000101 00000000000000000000000000000000000000000000000000000000000000000000000000000000000000000000000000000000000000000N 00000000000NCONT   00    00000000000          00000000000000000000000000000000000000000000 000000000000000A000000000000000000000000000000000000000000000 000000000000000000000000000000000000000     00000000                                                                                                                        000000000000000000
F0010000008293500004000001719393900023658300000000000000000201602230002001JAIRO BASTIDAS RAMIREZ                            C000000000009600000000000000000000100010010000000000000000000000F0010000008293500420160223000101 00000000000000000000000000000000000000000000000000000000000000000000000000000000000000000000000000000000000000000N 00000000000NCONT   00    00000000000          00000000000000000000000000000000000000000000 000000000000000A000000000000000000000000000000000000000000000 000000000000000000000000000000000000000     00000000                                                                                                                        000000000000000000
F0010000008293500005000001719393900013552100000000000000000201602230002001JAIRO BASTIDAS RAMIREZ                            D000000000009600000000000000000000100010010000000000000000000000F0010000008293500520160223000101 00000000000000000000000000000000000000000000000000000000000000000000000000000000000000000000000000000000000000000N 00000000000NCONT   00    00000000000          00000000000000000000000000000000000000000000 000000000000000A000000000000000000000000000000000000000000000 000000000000000000000000000000000000000     00000000                                                                                                                        000000000000000000
F0010000008293600001000090068047500011050500000000000000000201602230002001JEVY BALLON SAS                                   D000000006500000000000000000000000100010010000000000000000000000F0010000008293600120160223000101 00000000000000000000000000000000000000000000000000000000000000000000000000000000000000000000000000000000000000000N 00000000000NCONT   00    00000000000          00000000000000000000000000000000000000000000 000000000000000A000000000000000000000000000000000000000000000 000000000000000000000000000000000000000     00000000                                                                                                                        000000000000000000
F0010000008293600002000090068047500041450500000000000000000201602230002001JEVY BALLON SAS                                   C000000006300000000000000000000000100010010000000000000000000000F0010000008293600220160223000101 00000000000000000000000000000000000000000000000000000000000000000000000000000000000000000000000000000000000000000N 00000000000NCONT   00    00000000000          00000000000000000000000000000000000000000000 000000000000000A000000000000000000000000000000000000000000000 000000000000000000000000000000000000000     00000000                                                                                                                        000000000000000000
F0010000008293600003000090068047500042505000000000000000000201602230002001JEVY BALLON SAS                                   C000000000200000000000000000000000100010010000000000000000000000F0010000008293600320160223000101 00000000000000000000000000000000000000000000000000000000000000000000000000000000000000000000000000000000000000000N 00000000000NCONT   00    00000000000          00000000000000000000000000000000000000000000 000000000000000A000000000000000000000000000000000000000000000 000000000000000000000000000000000000000     00000000                                                                                                                        000000000000000000
F0010000008293600004000090068047500023658300000000000000000201602230002001JEVY BALLON SAS                                   C000000000050400000000000000000000100010010000000000000000000000F0010000008293600420160223000101 00000000000000000000000000000000000000000000000000000000000000000000000000000000000000000000000000000000000000000N 00000000000NCONT   00    00000000000          00000000000000000000000000000000000000000000 000000000000000A000000000000000000000000000000000000000000000 000000000000000000000000000000000000000     00000000                                                                                                                        000000000000000000
F0010000008293600005000090068047500013552100000000000000000201602230002001JEVY BALLON SAS                                   D000000000050400000000000000000000100010010000000000000000000000F0010000008293600520160223000101 00000000000000000000000000000000000000000000000000000000000000000000000000000000000000000000000000000000000000000N 00000000000NCONT   00    00000000000          00000000000000000000000000000000000000000000 000000000000000A000000000000000000000000000000000000000000000 000000000000000000000000000000000000000     00000000                                                                                                                        000000000000000000
F0010000008293700001000000744496800011050500000000000000000201602230002001TOMAS SANCHEZ                                     D000000002000000000000000000000000100010010000000000000000000000F0010000008293700120160223000101 00000000000000000000000000000000000000000000000000000000000000000000000000000000000000000000000000000000000000000N 00000000000NCONT   00    00000000000          00000000000000000000000000000000000000000000 000000000000000A000000000000000000000000000000000000000000000 000000000000000000000000000000000000000     00000000                                                                                                                        000000000000000000
F0010000008293700002000000744496800041450500000000000000000201602230002001TOMAS SANCHEZ                                     C000000001800000000000000000000000100010010000000000000000000000F0010000008293700220160223000101 00000000000000000000000000000000000000000000000000000000000000000000000000000000000000000000000000000000000000000N 00000000000NCONT   00    00000000000          00000000000000000000000000000000000000000000 000000000000000A000000000000000000000000000000000000000000000 000000000000000000000000000000000000000     00000000                                                                                                                        000000000000000000
F0010000008293700003000000744496800042505000000000000000000201602230002001TOMAS SANCHEZ                                     C000000000200000000000000000000000100010010000000000000000000000F0010000008293700320160223000101 00000000000000000000000000000000000000000000000000000000000000000000000000000000000000000000000000000000000000000N 00000000000NCONT   00    00000000000          00000000000000000000000000000000000000000000 000000000000000A000000000000000000000000000000000000000000000 000000000000000000000000000000000000000     00000000                                                                                                                        000000000000000000
F0010000008293700004000000744496800023658300000000000000000201602230002001TOMAS SANCHEZ                                     C000000000014400000000000000000000100010010000000000000000000000F0010000008293700420160223000101 00000000000000000000000000000000000000000000000000000000000000000000000000000000000000000000000000000000000000000N 00000000000NCONT   00    00000000000          00000000000000000000000000000000000000000000 000000000000000A000000000000000000000000000000000000000000000 000000000000000000000000000000000000000     00000000                                                                                                                        000000000000000000
F0010000008293700005000000744496800013552100000000000000000201602230002001TOMAS SANCHEZ                                     D000000000014400000000000000000000100010010000000000000000000000F0010000008293700520160223000101 00000000000000000000000000000000000000000000000000000000000000000000000000000000000000000000000000000000000000000N 00000000000NCONT   00    00000000000          00000000000000000000000000000000000000000000 000000000000000A000000000000000000000000000000000000000000000 000000000000000000000000000000000000000     00000000                                                                                                                        000000000000000000
F0010000008293800001000090050144800011050500000000000000000201602230002001PLASTICOS JR ASOCIADOS SAS                        D000000009100000000000000000000000100010010000000000000000000000F0010000008293800120160223000101 00000000000000000000000000000000000000000000000000000000000000000000000000000000000000000000000000000000000000000N 00000000000NCONT   00    00000000000          00000000000000000000000000000000000000000000 000000000000000A000000000000000000000000000000000000000000000 000000000000000000000000000000000000000     00000000                                                                                                                        000000000000000000
F0010000008293800002000090050144800041450500000000000000000201602230002001PLASTICOS JR ASOCIADOS SAS                        C000000008100000000000000000000000100010010000000000000000000000F0010000008293800220160223000101 00000000000000000000000000000000000000000000000000000000000000000000000000000000000000000000000000000000000000000N 00000000000NCONT   00    00000000000          00000000000000000000000000000000000000000000 000000000000000A000000000000000000000000000000000000000000000 000000000000000000000000000000000000000     00000000                                                                                                                        000000000000000000
F0010000008293800003000090050144800042505000000000000000000201602230002001PLASTICOS JR ASOCIADOS SAS                        C000000001000000000000000000000000100010010000000000000000000000F0010000008293800320160223000101 00000000000000000000000000000000000000000000000000000000000000000000000000000000000000000000000000000000000000000N 00000000000NCONT   00    00000000000          00000000000000000000000000000000000000000000 000000000000000A000000000000000000000000000000000000000000000 000000000000000000000000000000000000000     00000000                                                                                                                        000000000000000000
F0010000008293800004000090050144800023658300000000000000000201602230002001PLASTICOS JR ASOCIADOS SAS                        C000000000064800000000000000000000100010010000000000000000000000F0010000008293800420160223000101 00000000000000000000000000000000000000000000000000000000000000000000000000000000000000000000000000000000000000000N 00000000000NCONT   00    00000000000          00000000000000000000000000000000000000000000 000000000000000A000000000000000000000000000000000000000000000 000000000000000000000000000000000000000     00000000                                                                                                                        000000000000000000
F0010000008293800005000090050144800013552100000000000000000201602230002001PLASTICOS JR ASOCIADOS SAS                        D000000000064800000000000000000000100010010000000000000000000000F0010000008293800520160223000101 00000000000000000000000000000000000000000000000000000000000000000000000000000000000000000000000000000000000000000N 00000000000NCONT   00    00000000000          00000000000000000000000000000000000000000000 000000000000000A000000000000000000000000000000000000000000000 000000000000000000000000000000000000000     00000000                                                                                                                        000000000000000000
F0010000008293900001000090050144800011050500000000000000000201602230002001PLASTICOS JR ASOCIADOS SAS                        D000000002000000000000000000000000100010010000000000000000000000F0010000008293900120160223000101 00000000000000000000000000000000000000000000000000000000000000000000000000000000000000000000000000000000000000000N 00000000000NCONT   00    00000000000          00000000000000000000000000000000000000000000 000000000000000A000000000000000000000000000000000000000000000 000000000000000000000000000000000000000     00000000                                                                                                                        000000000000000000
F0010000008293900002000090050144800041450500000000000000000201602230002001PLASTICOS JR ASOCIADOS SAS                        C000000001800000000000000000000000100010010000000000000000000000F0010000008293900220160223000101 00000000000000000000000000000000000000000000000000000000000000000000000000000000000000000000000000000000000000000N 00000000000NCONT   00    00000000000          00000000000000000000000000000000000000000000 000000000000000A000000000000000000000000000000000000000000000 000000000000000000000000000000000000000     00000000                                                                                                                        000000000000000000
F0010000008293900003000090050144800042505000000000000000000201602230002001PLASTICOS JR ASOCIADOS SAS                        C000000000200000000000000000000000100010010000000000000000000000F0010000008293900320160223000101 00000000000000000000000000000000000000000000000000000000000000000000000000000000000000000000000000000000000000000N 00000000000NCONT   00    00000000000          00000000000000000000000000000000000000000000 000000000000000A000000000000000000000000000000000000000000000 000000000000000000000000000000000000000     00000000                                                                                                                        000000000000000000
F0010000008293900004000090050144800023658300000000000000000201602230002001PLASTICOS JR ASOCIADOS SAS                        C000000000014400000000000000000000100010010000000000000000000000F0010000008293900420160223000101 00000000000000000000000000000000000000000000000000000000000000000000000000000000000000000000000000000000000000000N 00000000000NCONT   00    00000000000          00000000000000000000000000000000000000000000 000000000000000A000000000000000000000000000000000000000000000 000000000000000000000000000000000000000     00000000                                                                                                                        000000000000000000
