F0010000007315800001000086053108300011050500000000000000000201507060002001EL PALACIO DEL ALUMINIO  LTDA                     D000000003000000000000000000000000100010010000000000000000000000F0010000007315800120150706000101 00000000000000000000000000000000000000000000000000000000000000000000000000000000000000000000000000000000000000000N 00000000000NCONT   00    00000000000          00000000000000000000000000000000000000000000 000000000000000A000000000000000000000000000000000000000000000 000000000000000000000000000000000000000     00000000                                                                                                                        000000000000000000
F0010000007315800002000086053108300041450500000000000000000201507060002001EL PALACIO DEL ALUMINIO  LTDA                     C000000002350000000000000000000000100010010000000000000000000000F0010000007315800220150706000101 00000000000000000000000000000000000000000000000000000000000000000000000000000000000000000000000000000000000000000N 00000000000NCONT   00    00000000000          00000000000000000000000000000000000000000000 000000000000000A000000000000000000000000000000000000000000000 000000000000000000000000000000000000000     00000000                                                                                                                        000000000000000000
F0010000007315800003000086053108300042505000000000000000000201507060002001EL PALACIO DEL ALUMINIO  LTDA                     C000000000650000000000000000000000100010010000000000000000000000F0010000007315800320150706000101 00000000000000000000000000000000000000000000000000000000000000000000000000000000000000000000000000000000000000000N 00000000000NCONT   00    00000000000          00000000000000000000000000000000000000000000 000000000000000A000000000000000000000000000000000000000000000 000000000000000000000000000000000000000     00000000                                                                                                                        000000000000000000
F0010000007315800004000086053108300023658300000000000000000201507060002001EL PALACIO DEL ALUMINIO  LTDA                     C000000000018800000000000000000000100010010000000000000000000000F0010000007315800420150706000101 00000000000000000000000000000000000000000000000000000000000000000000000000000000000000000000000000000000000000000N 00000000000NCONT   00    00000000000          00000000000000000000000000000000000000000000 000000000000000A000000000000000000000000000000000000000000000 000000000000000000000000000000000000000     00000000                                                                                                                        000000000000000000
F0010000007315800005000086053108300013552100000000000000000201507060002001EL PALACIO DEL ALUMINIO  LTDA                     D000000000018800000000000000000000100010010000000000000000000000F0010000007315800520150706000101 00000000000000000000000000000000000000000000000000000000000000000000000000000000000000000000000000000000000000000N 00000000000NCONT   00    00000000000          00000000000000000000000000000000000000000000 000000000000000A000000000000000000000000000000000000000000000 000000000000000000000000000000000000000     00000000                                                                                                                        000000000000000000
F0010000007315900001000083011391400013050500000000000000000201507060002001INSTITUCIONAL STAR SERVICES LTDA                  D000000011750000000000000000000000100010010000000000000000000000F0010000007315900120150706000101 00000000000000000000000000000000000000000000000000000000000000000000000000000000000000000000000000000000000000000N 00000000000NCONT   00    00000000000          00000000000000000000000000000000000000000000 000000000000000A000000000000000000000000000000000000000000000 000000000000000000000000000000000000000     00000000                                                                                                                        000000000000000000
F0010000007315900002000083011391400041450500000000000000000201507060002001INSTITUCIONAL STAR SERVICES LTDA                  C000000011200000000000000000000000100010010000000000000000000000F0010000007315900220150706000101 00000000000000000000000000000000000000000000000000000000000000000000000000000000000000000000000000000000000000000N 00000000000NCONT   00    00000000000          00000000000000000000000000000000000000000000 000000000000000A000000000000000000000000000000000000000000000 000000000000000000000000000000000000000     00000000                                                                                                                        000000000000000000
F0010000007315900003000083011391400042505000000000000000000201507060002001INSTITUCIONAL STAR SERVICES LTDA                  C000000000550000000000000000000000100010010000000000000000000000F0010000007315900320150706000101 00000000000000000000000000000000000000000000000000000000000000000000000000000000000000000000000000000000000000000N 00000000000NCONT   00    00000000000          00000000000000000000000000000000000000000000 000000000000000A000000000000000000000000000000000000000000000 000000000000000000000000000000000000000     00000000                                                                                                                        000000000000000000
F0010000007315900004000083011391400023658300000000000000000201507060002001INSTITUCIONAL STAR SERVICES LTDA                  C000000000089600000000000000000000100010010000000000000000000000F0010000007315900420150706000101 00000000000000000000000000000000000000000000000000000000000000000000000000000000000000000000000000000000000000000N 00000000000NCONT   00    00000000000          00000000000000000000000000000000000000000000 000000000000000A000000000000000000000000000000000000000000000 000000000000000000000000000000000000000     00000000                                                                                                                        000000000000000000
F0010000007315900005000083011391400013552100000000000000000201507060002001INSTITUCIONAL STAR SERVICES LTDA                  D000000000089600000000000000000000100010010000000000000000000000F0010000007315900520150706000101 00000000000000000000000000000000000000000000000000000000000000000000000000000000000000000000000000000000000000000N 00000000000NCONT   00    00000000000          00000000000000000000000000000000000000000000 000000000000000A000000000000000000000000000000000000000000000 000000000000000000000000000000000000000     00000000                                                                                                                        000000000000000000
F0010000007316000001000104568273200011050500000000000000000201507060002001CARLOS GUERRERO CASTRO                            D000000002000000000000000000000000100010010000000000000000000000F0010000007316000120150706000101 00000000000000000000000000000000000000000000000000000000000000000000000000000000000000000000000000000000000000000N 00000000000NCONT   00    00000000000          00000000000000000000000000000000000000000000 000000000000000A000000000000000000000000000000000000000000000 000000000000000000000000000000000000000     00000000                                                                                                                        000000000000000000
F0010000007316000002000104568273200041450500000000000000000201507060002001CARLOS GUERRERO CASTRO                            C000000001800000000000000000000000100010010000000000000000000000F0010000007316000220150706000101 00000000000000000000000000000000000000000000000000000000000000000000000000000000000000000000000000000000000000000N 00000000000NCONT   00    00000000000          00000000000000000000000000000000000000000000 000000000000000A000000000000000000000000000000000000000000000 000000000000000000000000000000000000000     00000000                                                                                                                        000000000000000000
F0010000007316000003000104568273200042505000000000000000000201507060002001CARLOS GUERRERO CASTRO                            C000000000200000000000000000000000100010010000000000000000000000F0010000007316000320150706000101 00000000000000000000000000000000000000000000000000000000000000000000000000000000000000000000000000000000000000000N 00000000000NCONT   00    00000000000          00000000000000000000000000000000000000000000 000000000000000A000000000000000000000000000000000000000000000 000000000000000000000000000000000000000     00000000                                                                                                                        000000000000000000
F0010000007316000004000104568273200023658300000000000000000201507060002001CARLOS GUERRERO CASTRO                            C000000000014400000000000000000000100010010000000000000000000000F0010000007316000420150706000101 00000000000000000000000000000000000000000000000000000000000000000000000000000000000000000000000000000000000000000N 00000000000NCONT   00    00000000000          00000000000000000000000000000000000000000000 000000000000000A000000000000000000000000000000000000000000000 000000000000000000000000000000000000000     00000000                                                                                                                        000000000000000000
F0010000007316000005000104568273200013552100000000000000000201507060002001CARLOS GUERRERO CASTRO                            D000000000014400000000000000000000100010010000000000000000000000F0010000007316000520150706000101 00000000000000000000000000000000000000000000000000000000000000000000000000000000000000000000000000000000000000000N 00000000000NCONT   00    00000000000          00000000000000000000000000000000000000000000 000000000000000A000000000000000000000000000000000000000000000 000000000000000000000000000000000000000     00000000                                                                                                                        000000000000000000
F0010000007316100001000000747559300011050500000000000000000201507060002001RAFAEL SERRANO                                    D000000001500000000000000000000000100010010000000000000000000000F0010000007316100120150706000101 00000000000000000000000000000000000000000000000000000000000000000000000000000000000000000000000000000000000000000N 00000000000NCONT   00    00000000000          00000000000000000000000000000000000000000000 000000000000000A000000000000000000000000000000000000000000000 000000000000000000000000000000000000000     00000000                                                                                                                        000000000000000000
F0010000007316100002000000747559300041450500000000000000000201507060002001RAFAEL SERRANO                                    C000000001000000000000000000000000100010010000000000000000000000F0010000007316100220150706000101 00000000000000000000000000000000000000000000000000000000000000000000000000000000000000000000000000000000000000000N 00000000000NCONT   00    00000000000          00000000000000000000000000000000000000000000 000000000000000A000000000000000000000000000000000000000000000 000000000000000000000000000000000000000     00000000                                                                                                                        000000000000000000
F0010000007316100003000000747559300042505000000000000000000201507060002001RAFAEL SERRANO                                    C000000000500000000000000000000000100010010000000000000000000000F0010000007316100320150706000101 00000000000000000000000000000000000000000000000000000000000000000000000000000000000000000000000000000000000000000N 00000000000NCONT   00    00000000000          00000000000000000000000000000000000000000000 000000000000000A000000000000000000000000000000000000000000000 000000000000000000000000000000000000000     00000000                                                                                                                        000000000000000000
F0010000007316100004000000747559300023658300000000000000000201507060002001RAFAEL SERRANO                                    C000000000008000000000000000000000100010010000000000000000000000F0010000007316100420150706000101 00000000000000000000000000000000000000000000000000000000000000000000000000000000000000000000000000000000000000000N 00000000000NCONT   00    00000000000          00000000000000000000000000000000000000000000 000000000000000A000000000000000000000000000000000000000000000 000000000000000000000000000000000000000     00000000                                                                                                                        000000000000000000
F0010000007316100005000000747559300013552100000000000000000201507060002001RAFAEL SERRANO                                    D000000000008000000000000000000000100010010000000000000000000000F0010000007316100520150706000101 00000000000000000000000000000000000000000000000000000000000000000000000000000000000000000000000000000000000000000N 00000000000NCONT   00    00000000000          00000000000000000000000000000000000000000000 000000000000000A000000000000000000000000000000000000000000000 000000000000000000000000000000000000000     00000000                                                                                                                        000000000000000000
F0010000007316200001000007934219000011050500000000000000000201507060002001CANDELEC ILUMINACIONE                             D000000001900000000000000000000000100010010000000000000000000000F0010000007316200120150706000101 00000000000000000000000000000000000000000000000000000000000000000000000000000000000000000000000000000000000000000N 00000000000NCONT   00    00000000000          00000000000000000000000000000000000000000000 000000000000000A000000000000000000000000000000000000000000000 000000000000000000000000000000000000000     00000000                                                                                                                        000000000000000000
F0010000007316200002000007934219000041450500000000000000000201507060002001CANDELEC ILUMINACIONE                             C000000001800000000000000000000000100010010000000000000000000000F0010000007316200220150706000101 00000000000000000000000000000000000000000000000000000000000000000000000000000000000000000000000000000000000000000N 00000000000NCONT   00    00000000000          00000000000000000000000000000000000000000000 000000000000000A000000000000000000000000000000000000000000000 000000000000000000000000000000000000000     00000000                                                                                                                        000000000000000000
F0010000007316200003000007934219000042505000000000000000000201507060002001CANDELEC ILUMINACIONE                             C000000000100000000000000000000000100010010000000000000000000000F0010000007316200320150706000101 00000000000000000000000000000000000000000000000000000000000000000000000000000000000000000000000000000000000000000N 00000000000NCONT   00    00000000000          00000000000000000000000000000000000000000000 000000000000000A000000000000000000000000000000000000000000000 000000000000000000000000000000000000000     00000000                                                                                                                        000000000000000000
F0010000007316200004000007934219000023658300000000000000000201507060002001CANDELEC ILUMINACIONE                             C000000000014400000000000000000000100010010000000000000000000000F0010000007316200420150706000101 00000000000000000000000000000000000000000000000000000000000000000000000000000000000000000000000000000000000000000N 00000000000NCONT   00    00000000000          00000000000000000000000000000000000000000000 000000000000000A000000000000000000000000000000000000000000000 000000000000000000000000000000000000000     00000000                                                                                                                        000000000000000000
F0010000007316200005000007934219000013552100000000000000000201507060002001CANDELEC ILUMINACIONE                             D000000000014400000000000000000000100010010000000000000000000000F0010000007316200520150706000101 00000000000000000000000000000000000000000000000000000000000000000000000000000000000000000000000000000000000000000N 00000000000NCONT   00    00000000000          00000000000000000000000000000000000000000000 000000000000000A000000000000000000000000000000000000000000000 000000000000000000000000000000000000000     00000000                                                                                                                        000000000000000000
F0010000007316300001000001949591200011050500000000000000000201507060002001ALFREDO REYES .                                   D000000007000000000000000000000000100010010000000000000000000000F0010000007316300120150706000101 00000000000000000000000000000000000000000000000000000000000000000000000000000000000000000000000000000000000000000N 00000000000NCONT   00    00000000000          00000000000000000000000000000000000000000000 000000000000000A000000000000000000000000000000000000000000000 000000000000000000000000000000000000000     00000000                                                                                                                        000000000000000000
F0010000007316300002000001949591200041450500000000000000000201507060002001ALFREDO REYES .                                   C000000006550000000000000000000000100010010000000000000000000000F0010000007316300220150706000101 00000000000000000000000000000000000000000000000000000000000000000000000000000000000000000000000000000000000000000N 00000000000NCONT   00    00000000000          00000000000000000000000000000000000000000000 000000000000000A000000000000000000000000000000000000000000000 000000000000000000000000000000000000000     00000000                                                                                                                        000000000000000000
F0010000007316300003000001949591200042505000000000000000000201507060002001ALFREDO REYES .                                   C000000000450000000000000000000000100010010000000000000000000000F0010000007316300320150706000101 00000000000000000000000000000000000000000000000000000000000000000000000000000000000000000000000000000000000000000N 00000000000NCONT   00    00000000000          00000000000000000000000000000000000000000000 000000000000000A000000000000000000000000000000000000000000000 000000000000000000000000000000000000000     00000000                                                                                                                        000000000000000000
F0010000007316300004000001949591200023658300000000000000000201507060002001ALFREDO REYES .                                   C000000000052400000000000000000000100010010000000000000000000000F0010000007316300420150706000101 00000000000000000000000000000000000000000000000000000000000000000000000000000000000000000000000000000000000000000N 00000000000NCONT   00    00000000000          00000000000000000000000000000000000000000000 000000000000000A000000000000000000000000000000000000000000000 000000000000000000000000000000000000000     00000000                                                                                                                        000000000000000000
F0010000007316300005000001949591200013552100000000000000000201507060002001ALFREDO REYES .                                   D000000000052400000000000000000000100010010000000000000000000000F0010000007316300520150706000101 00000000000000000000000000000000000000000000000000000000000000000000000000000000000000000000000000000000000000000N 00000000000NCONT   00    00000000000          00000000000000000000000000000000000000000000 000000000000000A000000000000000000000000000000000000000000000 000000000000000000000000000000000000000     00000000                                                                                                                        000000000000000000
F0010000007316400001000007213653800011050500000000000000000201507060002001VICTOR ECHAVEZ                                    D000000001150000000000000000000000100010010000000000000000000000F0010000007316400120150706000101 00000000000000000000000000000000000000000000000000000000000000000000000000000000000000000000000000000000000000000N 00000000000NCONT   00    00000000000          00000000000000000000000000000000000000000000 000000000000000A000000000000000000000000000000000000000000000 000000000000000000000000000000000000000     00000000                                                                                                                        000000000000000000
F0010000007316400002000007213653800041450500000000000000000201507060002001VICTOR ECHAVEZ                                    C000000000900000000000000000000000100010010000000000000000000000F0010000007316400220150706000101 00000000000000000000000000000000000000000000000000000000000000000000000000000000000000000000000000000000000000000N 00000000000NCONT   00    00000000000          00000000000000000000000000000000000000000000 000000000000000A000000000000000000000000000000000000000000000 000000000000000000000000000000000000000     00000000                                                                                                                        000000000000000000
F0010000007316400003000007213653800042505000000000000000000201507060002001VICTOR ECHAVEZ                                    C000000000250000000000000000000000100010010000000000000000000000F0010000007316400320150706000101 00000000000000000000000000000000000000000000000000000000000000000000000000000000000000000000000000000000000000000N 00000000000NCONT   00    00000000000          00000000000000000000000000000000000000000000 000000000000000A000000000000000000000000000000000000000000000 000000000000000000000000000000000000000     00000000                                                                                                                        000000000000000000
F0010000007316400004000007213653800023658300000000000000000201507060002001VICTOR ECHAVEZ                                    C000000000007200000000000000000000100010010000000000000000000000F0010000007316400420150706000101 00000000000000000000000000000000000000000000000000000000000000000000000000000000000000000000000000000000000000000N 00000000000NCONT   00    00000000000          00000000000000000000000000000000000000000000 000000000000000A000000000000000000000000000000000000000000000 000000000000000000000000000000000000000     00000000                                                                                                                        000000000000000000
F0010000007316400005000007213653800013552100000000000000000201507060002001VICTOR ECHAVEZ                                    D000000000007200000000000000000000100010010000000000000000000000F0010000007316400520150706000101 00000000000000000000000000000000000000000000000000000000000000000000000000000000000000000000000000000000000000000N 00000000000NCONT   00    00000000000          00000000000000000000000000000000000000000000 000000000000000A000000000000000000000000000000000000000000000 000000000000000000000000000000000000000     00000000                                                                                                                        000000000000000000
F0010000007316500001000080202486100011050500000000000000000201507060002001DISTRIBUIDORA RAMBAL LTDA                         D000000001100000000000000000000000100010010000000000000000000000F0010000007316500120150706000101 00000000000000000000000000000000000000000000000000000000000000000000000000000000000000000000000000000000000000000N 00000000000NCONT   00    00000000000          00000000000000000000000000000000000000000000 000000000000000A000000000000000000000000000000000000000000000 000000000000000000000000000000000000000     00000000                                                                                                                        000000000000000000
F0010000007316500002000080202486100041450500000000000000000201507060002001DISTRIBUIDORA RAMBAL LTDA                         C000000001000000000000000000000000100010010000000000000000000000F0010000007316500220150706000101 00000000000000000000000000000000000000000000000000000000000000000000000000000000000000000000000000000000000000000N 00000000000NCONT   00    00000000000          00000000000000000000000000000000000000000000 000000000000000A000000000000000000000000000000000000000000000 000000000000000000000000000000000000000     00000000                                                                                                                        000000000000000000
F0010000007316500003000080202486100042505000000000000000000201507060002001DISTRIBUIDORA RAMBAL LTDA                         C000000000100000000000000000000000100010010000000000000000000000F0010000007316500320150706000101 00000000000000000000000000000000000000000000000000000000000000000000000000000000000000000000000000000000000000000N 00000000000NCONT   00    00000000000          00000000000000000000000000000000000000000000 000000000000000A000000000000000000000000000000000000000000000 000000000000000000000000000000000000000     00000000                                                                                                                        000000000000000000
F0010000007316500004000080202486100023658300000000000000000201507060002001DISTRIBUIDORA RAMBAL LTDA                         C000000000008000000000000000000000100010010000000000000000000000F0010000007316500420150706000101 00000000000000000000000000000000000000000000000000000000000000000000000000000000000000000000000000000000000000000N 00000000000NCONT   00    00000000000          00000000000000000000000000000000000000000000 000000000000000A000000000000000000000000000000000000000000000 000000000000000000000000000000000000000     00000000                                                                                                                        000000000000000000
F0010000007316500005000080202486100013552100000000000000000201507060002001DISTRIBUIDORA RAMBAL LTDA                         D000000000008000000000000000000000100010010000000000000000000000F0010000007316500520150706000101 00000000000000000000000000000000000000000000000000000000000000000000000000000000000000000000000000000000000000000N 00000000000NCONT   00    00000000000          00000000000000000000000000000000000000000000 000000000000000A000000000000000000000000000000000000000000000 000000000000000000000000000000000000000     00000000                                                                                                                        000000000000000000
F0010000007316600001000003656369400011050500000000000000000201507060002001LUPE LUNA HERRERA                                 D000000001500000000000000000000000100010010000000000000000000000F0010000007316600120150706000101 00000000000000000000000000000000000000000000000000000000000000000000000000000000000000000000000000000000000000000N 00000000000NCONT   00    00000000000          00000000000000000000000000000000000000000000 000000000000000A000000000000000000000000000000000000000000000 000000000000000000000000000000000000000     00000000                                                                                                                        000000000000000000
F0010000007316600002000003656369400041450500000000000000000201507060002001LUPE LUNA HERRERA                                 C000000000900000000000000000000000100010010000000000000000000000F0010000007316600220150706000101 00000000000000000000000000000000000000000000000000000000000000000000000000000000000000000000000000000000000000000N 00000000000NCONT   00    00000000000          00000000000000000000000000000000000000000000 000000000000000A000000000000000000000000000000000000000000000 000000000000000000000000000000000000000     00000000                                                                                                                        000000000000000000
F0010000007316600003000003656369400042505000000000000000000201507060002001LUPE LUNA HERRERA                                 C000000000600000000000000000000000100010010000000000000000000000F0010000007316600320150706000101 00000000000000000000000000000000000000000000000000000000000000000000000000000000000000000000000000000000000000000N 00000000000NCONT   00    00000000000          00000000000000000000000000000000000000000000 000000000000000A000000000000000000000000000000000000000000000 000000000000000000000000000000000000000     00000000                                                                                                                        000000000000000000
F0010000007316600004000003656369400023658300000000000000000201507060002001LUPE LUNA HERRERA                                 C000000000007200000000000000000000100010010000000000000000000000F0010000007316600420150706000101 00000000000000000000000000000000000000000000000000000000000000000000000000000000000000000000000000000000000000000N 00000000000NCONT   00    00000000000          00000000000000000000000000000000000000000000 000000000000000A000000000000000000000000000000000000000000000 000000000000000000000000000000000000000     00000000                                                                                                                        000000000000000000
F0010000007316600005000003656369400013552100000000000000000201507060002001LUPE LUNA HERRERA                                 D000000000007200000000000000000000100010010000000000000000000000F0010000007316600520150706000101 00000000000000000000000000000000000000000000000000000000000000000000000000000000000000000000000000000000000000000N 00000000000NCONT   00    00000000000          00000000000000000000000000000000000000000000 000000000000000A000000000000000000000000000000000000000000000 000000000000000000000000000000000000000     00000000                                                                                                                        000000000000000000
F0010000007316700001000090015305700011050500000000000000000201507060002001PLASTICOS Y SERVICIOS BARRANQUILLA EU             D000000016500000000000000000000000100010010000000000000000000000F0010000007316700120150706000101 00000000000000000000000000000000000000000000000000000000000000000000000000000000000000000000000000000000000000000N 00000000000NCONT   00    00000000000          00000000000000000000000000000000000000000000 000000000000000A000000000000000000000000000000000000000000000 000000000000000000000000000000000000000     00000000                                                                                                                        000000000000000000
F0010000007316700002000090015305700041450500000000000000000201507060002001PLASTICOS Y SERVICIOS BARRANQUILLA EU             C000000013700000000000000000000000100010010000000000000000000000F0010000007316700220150706000101 00000000000000000000000000000000000000000000000000000000000000000000000000000000000000000000000000000000000000000N 00000000000NCONT   00    00000000000          00000000000000000000000000000000000000000000 000000000000000A000000000000000000000000000000000000000000000 000000000000000000000000000000000000000     00000000                                                                                                                        000000000000000000
F0010000007316700003000090015305700042505000000000000000000201507060002001PLASTICOS Y SERVICIOS BARRANQUILLA EU             C000000002800000000000000000000000100010010000000000000000000000F0010000007316700320150706000101 00000000000000000000000000000000000000000000000000000000000000000000000000000000000000000000000000000000000000000N 00000000000NCONT   00    00000000000          00000000000000000000000000000000000000000000 000000000000000A000000000000000000000000000000000000000000000 000000000000000000000000000000000000000     00000000                                                                                                                        000000000000000000
F0010000007316700004000090015305700023658300000000000000000201507060002001PLASTICOS Y SERVICIOS BARRANQUILLA EU             C000000000109600000000000000000000100010010000000000000000000000F0010000007316700420150706000101 00000000000000000000000000000000000000000000000000000000000000000000000000000000000000000000000000000000000000000N 00000000000NCONT   00    00000000000          00000000000000000000000000000000000000000000 000000000000000A000000000000000000000000000000000000000000000 000000000000000000000000000000000000000     00000000                                                                                                                        000000000000000000
F0010000007316700005000090015305700013552100000000000000000201507060002001PLASTICOS Y SERVICIOS BARRANQUILLA EU             D000000000109600000000000000000000100010010000000000000000000000F0010000007316700520150706000101 00000000000000000000000000000000000000000000000000000000000000000000000000000000000000000000000000000000000000000N 00000000000NCONT   00    00000000000          00000000000000000000000000000000000000000000 000000000000000A000000000000000000000000000000000000000000000 000000000000000000000000000000000000000     00000000                                                                                                                        000000000000000000
F0010000007316800001000080200962900011050500000000000000000201507060002001ACERO & MALLAS S.A.S.                             D000000004130000000000000000000000100010010000000000000000000000F0010000007316800120150706000101 00000000000000000000000000000000000000000000000000000000000000000000000000000000000000000000000000000000000000000N 00000000000NCONT   00    00000000000          00000000000000000000000000000000000000000000 000000000000000A000000000000000000000000000000000000000000000 000000000000000000000000000000000000000     00000000                                                                                                                        000000000000000000
F0010000007316800002000080200962900041450500000000000000000201507060002001ACERO & MALLAS S.A.S.                             C000000003630000000000000000000000100010010000000000000000000000F0010000007316800220150706000101 00000000000000000000000000000000000000000000000000000000000000000000000000000000000000000000000000000000000000000N 00000000000NCONT   00    00000000000          00000000000000000000000000000000000000000000 000000000000000A000000000000000000000000000000000000000000000 000000000000000000000000000000000000000     00000000                                                                                                                        000000000000000000
F0010000007316800003000080200962900042505000000000000000000201507060002001ACERO & MALLAS S.A.S.                             C000000000500000000000000000000000100010010000000000000000000000F0010000007316800320150706000101 00000000000000000000000000000000000000000000000000000000000000000000000000000000000000000000000000000000000000000N 00000000000NCONT   00    00000000000          00000000000000000000000000000000000000000000 000000000000000A000000000000000000000000000000000000000000000 000000000000000000000000000000000000000     00000000                                                                                                                        000000000000000000
F0010000007316800004000080200962900023658300000000000000000201507060002001ACERO & MALLAS S.A.S.                             C000000000029000000000000000000000100010010000000000000000000000F0010000007316800420150706000101 00000000000000000000000000000000000000000000000000000000000000000000000000000000000000000000000000000000000000000N 00000000000NCONT   00    00000000000          00000000000000000000000000000000000000000000 000000000000000A000000000000000000000000000000000000000000000 000000000000000000000000000000000000000     00000000                                                                                                                        000000000000000000
F0010000007316800005000080200962900013552100000000000000000201507060002001ACERO & MALLAS S.A.S.                             D000000000029000000000000000000000100010010000000000000000000000F0010000007316800520150706000101 00000000000000000000000000000000000000000000000000000000000000000000000000000000000000000000000000000000000000000N 00000000000NCONT   00    00000000000          00000000000000000000000000000000000000000000 000000000000000A000000000000000000000000000000000000000000000 000000000000000000000000000000000000000     00000000                                                                                                                        000000000000000000
F0010000007316900001000090050144800011050500000000000000000201507060002001PLASTICOS JR ASOCIADOS SAS                        D000000004000000000000000000000000100010010000000000000000000000F0010000007316900120150706000101 00000000000000000000000000000000000000000000000000000000000000000000000000000000000000000000000000000000000000000N 00000000000NCONT   00    00000000000          00000000000000000000000000000000000000000000 000000000000000A000000000000000000000000000000000000000000000 000000000000000000000000000000000000000     00000000                                                                                                                        000000000000000000
F0010000007316900002000090050144800041450500000000000000000201507060002001PLASTICOS JR ASOCIADOS SAS                        C000000003400000000000000000000000100010010000000000000000000000F0010000007316900220150706000101 00000000000000000000000000000000000000000000000000000000000000000000000000000000000000000000000000000000000000000N 00000000000NCONT   00    00000000000          00000000000000000000000000000000000000000000 000000000000000A000000000000000000000000000000000000000000000 000000000000000000000000000000000000000     00000000                                                                                                                        000000000000000000
F0010000007316900003000090050144800042505000000000000000000201507060002001PLASTICOS JR ASOCIADOS SAS                        C000000000600000000000000000000000100010010000000000000000000000F0010000007316900320150706000101 00000000000000000000000000000000000000000000000000000000000000000000000000000000000000000000000000000000000000000N 00000000000NCONT   00    00000000000          00000000000000000000000000000000000000000000 000000000000000A000000000000000000000000000000000000000000000 000000000000000000000000000000000000000     00000000                                                                                                                        000000000000000000
F0010000007316900004000090050144800023658300000000000000000201507060002001PLASTICOS JR ASOCIADOS SAS                        C000000000027200000000000000000000100010010000000000000000000000F0010000007316900420150706000101 00000000000000000000000000000000000000000000000000000000000000000000000000000000000000000000000000000000000000000N 00000000000NCONT   00    00000000000          00000000000000000000000000000000000000000000 000000000000000A000000000000000000000000000000000000000000000 000000000000000000000000000000000000000     00000000                                                                                                                        000000000000000000
F0010000007316900005000090050144800013552100000000000000000201507060002001PLASTICOS JR ASOCIADOS SAS                        D000000000027200000000000000000000100010010000000000000000000000F0010000007316900520150706000101 00000000000000000000000000000000000000000000000000000000000000000000000000000000000000000000000000000000000000000N 00000000000NCONT   00    00000000000          00000000000000000000000000000000000000000000 000000000000000A000000000000000000000000000000000000000000000 000000000000000000000000000000000000000     00000000                                                                                                                        000000000000000000
F0010000007317000001000090050144800011050500000000000000000201507060002001PLASTICOS JR ASOCIADOS SAS                        D000000005600000000000000000000000100010010000000000000000000000F0010000007317000120150706000101 00000000000000000000000000000000000000000000000000000000000000000000000000000000000000000000000000000000000000000N 00000000000NCONT   00    00000000000          00000000000000000000000000000000000000000000 000000000000000A000000000000000000000000000000000000000000000 000000000000000000000000000000000000000     00000000                                                                                                                        000000000000000000
F0010000007317000002000090050144800041450500000000000000000201507060002001PLASTICOS JR ASOCIADOS SAS                        C000000005000000000000000000000000100010010000000000000000000000F0010000007317000220150706000101 00000000000000000000000000000000000000000000000000000000000000000000000000000000000000000000000000000000000000000N 00000000000NCONT   00    00000000000          00000000000000000000000000000000000000000000 000000000000000A000000000000000000000000000000000000000000000 000000000000000000000000000000000000000     00000000                                                                                                                        000000000000000000
F0010000007317000003000090050144800042505000000000000000000201507060002001PLASTICOS JR ASOCIADOS SAS                        C000000000600000000000000000000000100010010000000000000000000000F0010000007317000320150706000101 00000000000000000000000000000000000000000000000000000000000000000000000000000000000000000000000000000000000000000N 00000000000NCONT   00    00000000000          00000000000000000000000000000000000000000000 000000000000000A000000000000000000000000000000000000000000000 000000000000000000000000000000000000000     00000000                                                                                                                        000000000000000000
F0010000007317000004000090050144800023658300000000000000000201507060002001PLASTICOS JR ASOCIADOS SAS                        C000000000040000000000000000000000100010010000000000000000000000F0010000007317000420150706000101 00000000000000000000000000000000000000000000000000000000000000000000000000000000000000000000000000000000000000000N 00000000000NCONT   00    00000000000          00000000000000000000000000000000000000000000 000000000000000A000000000000000000000000000000000000000000000 000000000000000000000000000000000000000     00000000                                                                                                                        000000000000000000
F0010000007317000005000090050144800013552100000000000000000201507060002001PLASTICOS JR ASOCIADOS SAS                        D000000000040000000000000000000000100010010000000000000000000000F0010000007317000520150706000101 00000000000000000000000000000000000000000000000000000000000000000000000000000000000000000000000000000000000000000N 00000000000NCONT   00    00000000000          00000000000000000000000000000000000000000000 000000000000000A000000000000000000000000000000000000000000000 000000000000000000000000000000000000000     00000000                                                                                                                        000000000000000000
F0010000007317100001000090055180500011050500000000000000000201507060002001LAMINAS Y SUELAS DE COLOMBIA S.A.S                D000000004300000000000000000000000100010010000000000000000000000F0010000007317100120150706000101 00000000000000000000000000000000000000000000000000000000000000000000000000000000000000000000000000000000000000000N 00000000000NCONT   00    00000000000          00000000000000000000000000000000000000000000 000000000000000A000000000000000000000000000000000000000000000 000000000000000000000000000000000000000     00000000                                                                                                                        000000000000000000
F0010000007317100002000090055180500041450500000000000000000201507060002001LAMINAS Y SUELAS DE COLOMBIA S.A.S                C000000003500000000000000000000000100010010000000000000000000000F0010000007317100220150706000101 00000000000000000000000000000000000000000000000000000000000000000000000000000000000000000000000000000000000000000N 00000000000NCONT   00    00000000000          00000000000000000000000000000000000000000000 000000000000000A000000000000000000000000000000000000000000000 000000000000000000000000000000000000000     00000000                                                                                                                        000000000000000000
F0010000007317100003000090055180500042505000000000000000000201507060002001LAMINAS Y SUELAS DE COLOMBIA S.A.S                C000000000800000000000000000000000100010010000000000000000000000F0010000007317100320150706000101 00000000000000000000000000000000000000000000000000000000000000000000000000000000000000000000000000000000000000000N 00000000000NCONT   00    00000000000          00000000000000000000000000000000000000000000 000000000000000A000000000000000000000000000000000000000000000 000000000000000000000000000000000000000     00000000                                                                                                                        000000000000000000
F0010000007317100004000090055180500023658300000000000000000201507060002001LAMINAS Y SUELAS DE COLOMBIA S.A.S                C000000000028000000000000000000000100010010000000000000000000000F0010000007317100420150706000101 00000000000000000000000000000000000000000000000000000000000000000000000000000000000000000000000000000000000000000N 00000000000NCONT   00    00000000000          00000000000000000000000000000000000000000000 000000000000000A000000000000000000000000000000000000000000000 000000000000000000000000000000000000000     00000000                                                                                                                        000000000000000000
F0010000007317100005000090055180500013552100000000000000000201507060002001LAMINAS Y SUELAS DE COLOMBIA S.A.S                D000000000028000000000000000000000100010010000000000000000000000F0010000007317100520150706000101 00000000000000000000000000000000000000000000000000000000000000000000000000000000000000000000000000000000000000000N 00000000000NCONT   00    00000000000          00000000000000000000000000000000000000000000 000000000000000A000000000000000000000000000000000000000000000 000000000000000000000000000000000000000     00000000                                                                                                                        000000000000000000
F0010000007317200001000080012418800011050500000000000000000201507060002001DISTRITEC S.A.S                                   D000000008300000000000000000000000100010010000000000000000000000F0010000007317200120150706000101 00000000000000000000000000000000000000000000000000000000000000000000000000000000000000000000000000000000000000000N 00000000000NCONT   00    00000000000          00000000000000000000000000000000000000000000 000000000000000A000000000000000000000000000000000000000000000 000000000000000000000000000000000000000     00000000                                                                                                                        000000000000000000
F0010000007317200002000080012418800041450500000000000000000201507060002001DISTRITEC S.A.S                                   C000000007700000000000000000000000100010010000000000000000000000F0010000007317200220150706000101 00000000000000000000000000000000000000000000000000000000000000000000000000000000000000000000000000000000000000000N 00000000000NCONT   00    00000000000          00000000000000000000000000000000000000000000 000000000000000A000000000000000000000000000000000000000000000 000000000000000000000000000000000000000     00000000                                                                                                                        000000000000000000
F0010000007317200003000080012418800042505000000000000000000201507060002001DISTRITEC S.A.S                                   C000000000600000000000000000000000100010010000000000000000000000F0010000007317200320150706000101 00000000000000000000000000000000000000000000000000000000000000000000000000000000000000000000000000000000000000000N 00000000000NCONT   00    00000000000          00000000000000000000000000000000000000000000 000000000000000A000000000000000000000000000000000000000000000 000000000000000000000000000000000000000     00000000                                                                                                                        000000000000000000
F0010000007317200004000080012418800023658300000000000000000201507060002001DISTRITEC S.A.S                                   C000000000061600000000000000000000100010010000000000000000000000F0010000007317200420150706000101 00000000000000000000000000000000000000000000000000000000000000000000000000000000000000000000000000000000000000000N 00000000000NCONT   00    00000000000          00000000000000000000000000000000000000000000 000000000000000A000000000000000000000000000000000000000000000 000000000000000000000000000000000000000     00000000                                                                                                                        000000000000000000
F0010000007317200005000080012418800013552100000000000000000201507060002001DISTRITEC S.A.S                                   D000000000061600000000000000000000100010010000000000000000000000F0010000007317200520150706000101 00000000000000000000000000000000000000000000000000000000000000000000000000000000000000000000000000000000000000000N 00000000000NCONT   00    00000000000          00000000000000000000000000000000000000000000 000000000000000A000000000000000000000000000000000000000000000 000000000000000000000000000000000000000     00000000                                                                                                                        000000000000000000
F0010000007317300001000090050144800011050500000000000000000201507060002001PLASTICOS JR ASOCIADOS SAS                        D000000006880000000000000000000000100010010000000000000000000000F0010000007317300120150706000101 00000000000000000000000000000000000000000000000000000000000000000000000000000000000000000000000000000000000000000N 00000000000NCONT   00    00000000000          00000000000000000000000000000000000000000000 000000000000000A000000000000000000000000000000000000000000000 000000000000000000000000000000000000000     00000000                                                                                                                        000000000000000000
F0010000007317300002000090050144800041450500000000000000000201507060002001PLASTICOS JR ASOCIADOS SAS                        C000000005950000000000000000000000100010010000000000000000000000F0010000007317300220150706000101 00000000000000000000000000000000000000000000000000000000000000000000000000000000000000000000000000000000000000000N 00000000000NCONT   00    00000000000          00000000000000000000000000000000000000000000 000000000000000A000000000000000000000000000000000000000000000 000000000000000000000000000000000000000     00000000                                                                                                                        000000000000000000
F0010000007317300003000090050144800042505000000000000000000201507060002001PLASTICOS JR ASOCIADOS SAS                        C000000000930000000000000000000000100010010000000000000000000000F0010000007317300320150706000101 00000000000000000000000000000000000000000000000000000000000000000000000000000000000000000000000000000000000000000N 00000000000NCONT   00    00000000000          00000000000000000000000000000000000000000000 000000000000000A000000000000000000000000000000000000000000000 000000000000000000000000000000000000000     00000000                                                                                                                        000000000000000000
F0010000007317300004000090050144800023658300000000000000000201507060002001PLASTICOS JR ASOCIADOS SAS                        C000000000047600000000000000000000100010010000000000000000000000F0010000007317300420150706000101 00000000000000000000000000000000000000000000000000000000000000000000000000000000000000000000000000000000000000000N 00000000000NCONT   00    00000000000          00000000000000000000000000000000000000000000 000000000000000A000000000000000000000000000000000000000000000 000000000000000000000000000000000000000     00000000                                                                                                                        000000000000000000
F0010000007317300005000090050144800013552100000000000000000201507060002001PLASTICOS JR ASOCIADOS SAS                        D000000000047600000000000000000000100010010000000000000000000000F0010000007317300520150706000101 00000000000000000000000000000000000000000000000000000000000000000000000000000000000000000000000000000000000000000N 00000000000NCONT   00    00000000000          00000000000000000000000000000000000000000000 000000000000000A000000000000000000000000000000000000000000000 000000000000000000000000000000000000000     00000000                                                                                                                        000000000000000000
F0010000007317400001000090050144800011050500000000000000000201507060002001PLASTICOS JR ASOCIADOS SAS                        D000000001150000000000000000000000100010010000000000000000000000F0010000007317400120150706000101 00000000000000000000000000000000000000000000000000000000000000000000000000000000000000000000000000000000000000000N 00000000000NCONT   00    00000000000          00000000000000000000000000000000000000000000 000000000000000A000000000000000000000000000000000000000000000 000000000000000000000000000000000000000     00000000                                                                                                                        000000000000000000
F0010000007317400002000090050144800041450500000000000000000201507060002001PLASTICOS JR ASOCIADOS SAS                        C000000000850000000000000000000000100010010000000000000000000000F0010000007317400220150706000101 00000000000000000000000000000000000000000000000000000000000000000000000000000000000000000000000000000000000000000N 00000000000NCONT   00    00000000000          00000000000000000000000000000000000000000000 000000000000000A000000000000000000000000000000000000000000000 000000000000000000000000000000000000000     00000000                                                                                                                        000000000000000000
F0010000007317400003000090050144800042505000000000000000000201507060002001PLASTICOS JR ASOCIADOS SAS                        C000000000300000000000000000000000100010010000000000000000000000F0010000007317400320150706000101 00000000000000000000000000000000000000000000000000000000000000000000000000000000000000000000000000000000000000000N 00000000000NCONT   00    00000000000          00000000000000000000000000000000000000000000 000000000000000A000000000000000000000000000000000000000000000 000000000000000000000000000000000000000     00000000                                                                                                                        000000000000000000
F0010000007317400004000090050144800023658300000000000000000201507060002001PLASTICOS JR ASOCIADOS SAS                        C000000000006800000000000000000000100010010000000000000000000000F0010000007317400420150706000101 00000000000000000000000000000000000000000000000000000000000000000000000000000000000000000000000000000000000000000N 00000000000NCONT   00    00000000000          00000000000000000000000000000000000000000000 000000000000000A000000000000000000000000000000000000000000000 000000000000000000000000000000000000000     00000000                                                                                                                        000000000000000000
F0010000007317400005000090050144800013552100000000000000000201507060002001PLASTICOS JR ASOCIADOS SAS                        D000000000006800000000000000000000100010010000000000000000000000F0010000007317400520150706000101 00000000000000000000000000000000000000000000000000000000000000000000000000000000000000000000000000000000000000000N 00000000000NCONT   00    00000000000          00000000000000000000000000000000000000000000 000000000000000A000000000000000000000000000000000000000000000 000000000000000000000000000000000000000     00000000                                                                                                                        000000000000000000
F0010000007317500001000090037881900011050500000000000000000201507060002001COMERCIALIZADORA RACOPI S.A.S                     D000000001460000000000000000000000100010010000000000000000000000F0010000007317500120150706000101 00000000000000000000000000000000000000000000000000000000000000000000000000000000000000000000000000000000000000000N 00000000000NCONT   00    00000000000          00000000000000000000000000000000000000000000 000000000000000A000000000000000000000000000000000000000000000 000000000000000000000000000000000000000     00000000                                                                                                                        000000000000000000
F0010000007317500002000090037881900041450500000000000000000201507060002001COMERCIALIZADORA RACOPI S.A.S                     C000000001310000000000000000000000100010010000000000000000000000F0010000007317500220150706000101 00000000000000000000000000000000000000000000000000000000000000000000000000000000000000000000000000000000000000000N 00000000000NCONT   00    00000000000          00000000000000000000000000000000000000000000 000000000000000A000000000000000000000000000000000000000000000 000000000000000000000000000000000000000     00000000                                                                                                                        000000000000000000
F0010000007317500003000090037881900042505000000000000000000201507060002001COMERCIALIZADORA RACOPI S.A.S                     C000000000150000000000000000000000100010010000000000000000000000F0010000007317500320150706000101 00000000000000000000000000000000000000000000000000000000000000000000000000000000000000000000000000000000000000000N 00000000000NCONT   00    00000000000          00000000000000000000000000000000000000000000 000000000000000A000000000000000000000000000000000000000000000 000000000000000000000000000000000000000     00000000                                                                                                                        000000000000000000
F0010000007317500004000090037881900023658300000000000000000201507060002001COMERCIALIZADORA RACOPI S.A.S                     C000000000010500000000000000000000100010010000000000000000000000F0010000007317500420150706000101 00000000000000000000000000000000000000000000000000000000000000000000000000000000000000000000000000000000000000000N 00000000000NCONT   00    00000000000          00000000000000000000000000000000000000000000 000000000000000A000000000000000000000000000000000000000000000 000000000000000000000000000000000000000     00000000                                                                                                                        000000000000000000
F0010000007317500005000090037881900013552100000000000000000201507060002001COMERCIALIZADORA RACOPI S.A.S                     D000000000010500000000000000000000100010010000000000000000000000F0010000007317500520150706000101 00000000000000000000000000000000000000000000000000000000000000000000000000000000000000000000000000000000000000000N 00000000000NCONT   00    00000000000          00000000000000000000000000000000000000000000 000000000000000A000000000000000000000000000000000000000000000 000000000000000000000000000000000000000     00000000                                                                                                                        000000000000000000
F0010000007317600001000089031248700011050500000000000000000201507060002001DISTRIBUIDORA CALIPLASTICOS LTDA                  D000000001600000000000000000000000100010010000000000000000000000F0010000007317600120150706000101 00000000000000000000000000000000000000000000000000000000000000000000000000000000000000000000000000000000000000000N 00000000000NCONT   00    00000000000          00000000000000000000000000000000000000000000 000000000000000A000000000000000000000000000000000000000000000 000000000000000000000000000000000000000     00000000                                                                                                                        000000000000000000
F0010000007317600002000089031248700041450500000000000000000201507060002001DISTRIBUIDORA CALIPLASTICOS LTDA                  C000000001500000000000000000000000100010010000000000000000000000F0010000007317600220150706000101 00000000000000000000000000000000000000000000000000000000000000000000000000000000000000000000000000000000000000000N 00000000000NCONT   00    00000000000          00000000000000000000000000000000000000000000 000000000000000A000000000000000000000000000000000000000000000 000000000000000000000000000000000000000     00000000                                                                                                                        000000000000000000
F0010000007317600003000089031248700042505000000000000000000201507060002001DISTRIBUIDORA CALIPLASTICOS LTDA                  C000000000100000000000000000000000100010010000000000000000000000F0010000007317600320150706000101 00000000000000000000000000000000000000000000000000000000000000000000000000000000000000000000000000000000000000000N 00000000000NCONT   00    00000000000          00000000000000000000000000000000000000000000 000000000000000A000000000000000000000000000000000000000000000 000000000000000000000000000000000000000     00000000                                                                                                                        000000000000000000
F0010000007317600004000089031248700023658300000000000000000201507060002001DISTRIBUIDORA CALIPLASTICOS LTDA                  C000000000012000000000000000000000100010010000000000000000000000F0010000007317600420150706000101 00000000000000000000000000000000000000000000000000000000000000000000000000000000000000000000000000000000000000000N 00000000000NCONT   00    00000000000          00000000000000000000000000000000000000000000 000000000000000A000000000000000000000000000000000000000000000 000000000000000000000000000000000000000     00000000                                                                                                                        000000000000000000
F0010000007317600005000089031248700013552100000000000000000201507060002001DISTRIBUIDORA CALIPLASTICOS LTDA                  D000000000012000000000000000000000100010010000000000000000000000F0010000007317600520150706000101 00000000000000000000000000000000000000000000000000000000000000000000000000000000000000000000000000000000000000000N 00000000000NCONT   00    00000000000          00000000000000000000000000000000000000000000 000000000000000A000000000000000000000000000000000000000000000 000000000000000000000000000000000000000     00000000                                                                                                                        000000000000000000
F0010000007317700001000112951185600011050500000000000000000201507060002001DAVID DE JESUS ROSALES DUNCAN                     D000000001100000000000000000000000100010010000000000000000000000F0010000007317700120150706000101 00000000000000000000000000000000000000000000000000000000000000000000000000000000000000000000000000000000000000000N 00000000000NCONT   00    00000000000          00000000000000000000000000000000000000000000 000000000000000A000000000000000000000000000000000000000000000 000000000000000000000000000000000000000     00000000                                                                                                                        000000000000000000
F0010000007317700002000112951185600041450500000000000000000201507060002001DAVID DE JESUS ROSALES DUNCAN                     C000000001000000000000000000000000100010010000000000000000000000F0010000007317700220150706000101 00000000000000000000000000000000000000000000000000000000000000000000000000000000000000000000000000000000000000000N 00000000000NCONT   00    00000000000          00000000000000000000000000000000000000000000 000000000000000A000000000000000000000000000000000000000000000 000000000000000000000000000000000000000     00000000                                                                                                                        000000000000000000
F0010000007317700003000112951185600042505000000000000000000201507060002001DAVID DE JESUS ROSALES DUNCAN                     C000000000100000000000000000000000100010010000000000000000000000F0010000007317700320150706000101 00000000000000000000000000000000000000000000000000000000000000000000000000000000000000000000000000000000000000000N 00000000000NCONT   00    00000000000          00000000000000000000000000000000000000000000 000000000000000A000000000000000000000000000000000000000000000 000000000000000000000000000000000000000     00000000                                                                                                                        000000000000000000
F0010000007317700004000112951185600023658300000000000000000201507060002001DAVID DE JESUS ROSALES DUNCAN                     C000000000008000000000000000000000100010010000000000000000000000F0010000007317700420150706000101 00000000000000000000000000000000000000000000000000000000000000000000000000000000000000000000000000000000000000000N 00000000000NCONT   00    00000000000          00000000000000000000000000000000000000000000 000000000000000A000000000000000000000000000000000000000000000 000000000000000000000000000000000000000     00000000                                                                                                                        000000000000000000
F0010000007317700005000112951185600013552100000000000000000201507060002001DAVID DE JESUS ROSALES DUNCAN                     D000000000008000000000000000000000100010010000000000000000000000F0010000007317700520150706000101 00000000000000000000000000000000000000000000000000000000000000000000000000000000000000000000000000000000000000000N 00000000000NCONT   00    00000000000          00000000000000000000000000000000000000000000 000000000000000A000000000000000000000000000000000000000000000 000000000000000000000000000000000000000     00000000                                                                                                                        000000000000000000
F0010000007317800001000007200023300011050500000000000000000201507060002001WILLIAM ORTEGA                                    D000000004500000000000000000000000100010010000000000000000000000F0010000007317800120150706000101 00000000000000000000000000000000000000000000000000000000000000000000000000000000000000000000000000000000000000000N 00000000000NCONT   00    00000000000          00000000000000000000000000000000000000000000 000000000000000A000000000000000000000000000000000000000000000 000000000000000000000000000000000000000     00000000                                                                                                                        000000000000000000
F0010000007317800002000007200023300041450500000000000000000201507060002001WILLIAM ORTEGA                                    C000000004100000000000000000000000100010010000000000000000000000F0010000007317800220150706000101 00000000000000000000000000000000000000000000000000000000000000000000000000000000000000000000000000000000000000000N 00000000000NCONT   00    00000000000          00000000000000000000000000000000000000000000 000000000000000A000000000000000000000000000000000000000000000 000000000000000000000000000000000000000     00000000                                                                                                                        000000000000000000
F0010000007317800003000007200023300042505000000000000000000201507060002001WILLIAM ORTEGA                                    C000000000400000000000000000000000100010010000000000000000000000F0010000007317800320150706000101 00000000000000000000000000000000000000000000000000000000000000000000000000000000000000000000000000000000000000000N 00000000000NCONT   00    00000000000          00000000000000000000000000000000000000000000 000000000000000A000000000000000000000000000000000000000000000 000000000000000000000000000000000000000     00000000                                                                                                                        000000000000000000
F0010000007317800004000007200023300023658300000000000000000201507060002001WILLIAM ORTEGA                                    C000000000032800000000000000000000100010010000000000000000000000F0010000007317800420150706000101 00000000000000000000000000000000000000000000000000000000000000000000000000000000000000000000000000000000000000000N 00000000000NCONT   00    00000000000          00000000000000000000000000000000000000000000 000000000000000A000000000000000000000000000000000000000000000 000000000000000000000000000000000000000     00000000                                                                                                                        000000000000000000
F0010000007317800005000007200023300013552100000000000000000201507060002001WILLIAM ORTEGA                                    D000000000032800000000000000000000100010010000000000000000000000F0010000007317800520150706000101 00000000000000000000000000000000000000000000000000000000000000000000000000000000000000000000000000000000000000000N 00000000000NCONT   00    00000000000          00000000000000000000000000000000000000000000 000000000000000A000000000000000000000000000000000000000000000 000000000000000000000000000000000000000     00000000                                                                                                                        000000000000000000
F0010000007317900001000000431178400011050500000000000000000201507060002001EFRAIN ALVAREZ                                    D000000000430000000000000000000000100010010000000000000000000000F0010000007317900120150706000101 00000000000000000000000000000000000000000000000000000000000000000000000000000000000000000000000000000000000000000N 00000000000NCONT   00    00000000000          00000000000000000000000000000000000000000000 000000000000000A000000000000000000000000000000000000000000000 000000000000000000000000000000000000000     00000000                                                                                                                        000000000000000000
F0010000007317900002000000431178400041450500000000000000000201507060002001EFRAIN ALVAREZ                                    C000000000380000000000000000000000100010010000000000000000000000F0010000007317900220150706000101 00000000000000000000000000000000000000000000000000000000000000000000000000000000000000000000000000000000000000000N 00000000000NCONT   00    00000000000          00000000000000000000000000000000000000000000 000000000000000A000000000000000000000000000000000000000000000 000000000000000000000000000000000000000     00000000                                                                                                                        000000000000000000
F0010000007317900003000000431178400042505000000000000000000201507060002001EFRAIN ALVAREZ                                    C000000000050000000000000000000000100010010000000000000000000000F0010000007317900320150706000101 00000000000000000000000000000000000000000000000000000000000000000000000000000000000000000000000000000000000000000N 00000000000NCONT   00    00000000000          00000000000000000000000000000000000000000000 000000000000000A000000000000000000000000000000000000000000000 000000000000000000000000000000000000000     00000000                                                                                                                        000000000000000000
F0010000007317900004000000431178400023658300000000000000000201507060002001EFRAIN ALVAREZ                                    C000000000003000000000000000000000100010010000000000000000000000F0010000007317900420150706000101 00000000000000000000000000000000000000000000000000000000000000000000000000000000000000000000000000000000000000000N 00000000000NCONT   00    00000000000          00000000000000000000000000000000000000000000 000000000000000A000000000000000000000000000000000000000000000 000000000000000000000000000000000000000     00000000                                                                                                                        000000000000000000
F0010000007317900005000000431178400013552100000000000000000201507060002001EFRAIN ALVAREZ                                    D000000000003000000000000000000000100010010000000000000000000000F0010000007317900520150706000101 00000000000000000000000000000000000000000000000000000000000000000000000000000000000000000000000000000000000000000N 00000000000NCONT   00    00000000000          00000000000000000000000000000000000000000000 000000000000000A000000000000000000000000000000000000000000000 000000000000000000000000000000000000000     00000000                                                                                                                        000000000000000000
F0010000007318000001000000431178400011050500000000000000000201507060002001EFRAIN ALVAREZ                                    D000000000430000000000000000000000100010010000000000000000000000F0010000007318000120150706000101 00000000000000000000000000000000000000000000000000000000000000000000000000000000000000000000000000000000000000000N 00000000000NCONT   00    00000000000          00000000000000000000000000000000000000000000 000000000000000A000000000000000000000000000000000000000000000 000000000000000000000000000000000000000     00000000                                                                                                                        000000000000000000
F0010000007318000002000000431178400041450500000000000000000201507060002001EFRAIN ALVAREZ                                    C000000000380000000000000000000000100010010000000000000000000000F0010000007318000220150706000101 00000000000000000000000000000000000000000000000000000000000000000000000000000000000000000000000000000000000000000N 00000000000NCONT   00    00000000000          00000000000000000000000000000000000000000000 000000000000000A000000000000000000000000000000000000000000000 000000000000000000000000000000000000000     00000000                                                                                                                        000000000000000000
F0010000007318000003000000431178400042505000000000000000000201507060002001EFRAIN ALVAREZ                                    C000000000050000000000000000000000100010010000000000000000000000F0010000007318000320150706000101 00000000000000000000000000000000000000000000000000000000000000000000000000000000000000000000000000000000000000000N 00000000000NCONT   00    00000000000          00000000000000000000000000000000000000000000 000000000000000A000000000000000000000000000000000000000000000 000000000000000000000000000000000000000     00000000                                                                                                                        000000000000000000
F0010000007318000004000000431178400023658300000000000000000201507060002001EFRAIN ALVAREZ                                    C000000000003000000000000000000000100010010000000000000000000000F0010000007318000420150706000101 00000000000000000000000000000000000000000000000000000000000000000000000000000000000000000000000000000000000000000N 00000000000NCONT   00    00000000000          00000000000000000000000000000000000000000000 000000000000000A000000000000000000000000000000000000000000000 000000000000000000000000000000000000000     00000000                                                                                                                        000000000000000000
F0010000007318000005000000431178400013552100000000000000000201507060002001EFRAIN ALVAREZ                                    D000000000003000000000000000000000100010010000000000000000000000F0010000007318000520150706000101 00000000000000000000000000000000000000000000000000000000000000000000000000000000000000000000000000000000000000000N 00000000000NCONT   00    00000000000          00000000000000000000000000000000000000000000 000000000000000A000000000000000000000000000000000000000000000 000000000000000000000000000000000000000     00000000                                                                                                                        000000000000000000
F0010000007318100001000000431178400011050500000000000000000201507060002001EFRAIN ALVAREZ                                    D000000000810000000000000000000000100010010000000000000000000000F0010000007318100120150706000101 00000000000000000000000000000000000000000000000000000000000000000000000000000000000000000000000000000000000000000N 00000000000NCONT   00    00000000000          00000000000000000000000000000000000000000000 000000000000000A000000000000000000000000000000000000000000000 000000000000000000000000000000000000000     00000000                                                                                                                        000000000000000000
F0010000007318100002000000431178400041450500000000000000000201507060002001EFRAIN ALVAREZ                                    C000000000760000000000000000000000100010010000000000000000000000F0010000007318100220150706000101 00000000000000000000000000000000000000000000000000000000000000000000000000000000000000000000000000000000000000000N 00000000000NCONT   00    00000000000          00000000000000000000000000000000000000000000 000000000000000A000000000000000000000000000000000000000000000 000000000000000000000000000000000000000     00000000                                                                                                                        000000000000000000
F0010000007318100003000000431178400042505000000000000000000201507060002001EFRAIN ALVAREZ                                    C000000000050000000000000000000000100010010000000000000000000000F0010000007318100320150706000101 00000000000000000000000000000000000000000000000000000000000000000000000000000000000000000000000000000000000000000N 00000000000NCONT   00    00000000000          00000000000000000000000000000000000000000000 000000000000000A000000000000000000000000000000000000000000000 000000000000000000000000000000000000000     00000000                                                                                                                        000000000000000000
F0010000007318100004000000431178400023658300000000000000000201507060002001EFRAIN ALVAREZ                                    C000000000006100000000000000000000100010010000000000000000000000F0010000007318100420150706000101 00000000000000000000000000000000000000000000000000000000000000000000000000000000000000000000000000000000000000000N 00000000000NCONT   00    00000000000          00000000000000000000000000000000000000000000 000000000000000A000000000000000000000000000000000000000000000 000000000000000000000000000000000000000     00000000                                                                                                                        000000000000000000
F0010000007318100005000000431178400013552100000000000000000201507060002001EFRAIN ALVAREZ                                    D000000000006100000000000000000000100010010000000000000000000000F0010000007318100520150706000101 00000000000000000000000000000000000000000000000000000000000000000000000000000000000000000000000000000000000000000N 00000000000NCONT   00    00000000000          00000000000000000000000000000000000000000000 000000000000000A000000000000000000000000000000000000000000000 000000000000000000000000000000000000000     00000000                                                                                                                        000000000000000000
F0010000007318200001000000431178400011050500000000000000000201507060002001EFRAIN ALVAREZ                                    D000000000910000000000000000000000100010010000000000000000000000F0010000007318200120150706000101 00000000000000000000000000000000000000000000000000000000000000000000000000000000000000000000000000000000000000000N 00000000000NCONT   00    00000000000          00000000000000000000000000000000000000000000 000000000000000A000000000000000000000000000000000000000000000 000000000000000000000000000000000000000     00000000                                                                                                                        000000000000000000
F0010000007318200002000000431178400041450500000000000000000201507060002001EFRAIN ALVAREZ                                    C000000000860000000000000000000000100010010000000000000000000000F0010000007318200220150706000101 00000000000000000000000000000000000000000000000000000000000000000000000000000000000000000000000000000000000000000N 00000000000NCONT   00    00000000000          00000000000000000000000000000000000000000000 000000000000000A000000000000000000000000000000000000000000000 000000000000000000000000000000000000000     00000000                                                                                                                        000000000000000000
F0010000007318200003000000431178400042505000000000000000000201507060002001EFRAIN ALVAREZ                                    C000000000050000000000000000000000100010010000000000000000000000F0010000007318200320150706000101 00000000000000000000000000000000000000000000000000000000000000000000000000000000000000000000000000000000000000000N 00000000000NCONT   00    00000000000          00000000000000000000000000000000000000000000 000000000000000A000000000000000000000000000000000000000000000 000000000000000000000000000000000000000     00000000                                                                                                                        000000000000000000
F0010000007318200004000000431178400023658300000000000000000201507060002001EFRAIN ALVAREZ                                    C000000000006900000000000000000000100010010000000000000000000000F0010000007318200420150706000101 00000000000000000000000000000000000000000000000000000000000000000000000000000000000000000000000000000000000000000N 00000000000NCONT   00    00000000000          00000000000000000000000000000000000000000000 000000000000000A000000000000000000000000000000000000000000000 000000000000000000000000000000000000000     00000000                                                                                                                        000000000000000000
F0010000007318200005000000431178400013552100000000000000000201507060002001EFRAIN ALVAREZ                                    D000000000006900000000000000000000100010010000000000000000000000F0010000007318200520150706000101 00000000000000000000000000000000000000000000000000000000000000000000000000000000000000000000000000000000000000000N 00000000000NCONT   00    00000000000          00000000000000000000000000000000000000000000 000000000000000A000000000000000000000000000000000000000000000 000000000000000000000000000000000000000     00000000                                                                                                                        000000000000000000
F0010000007318300001000000431178400011050500000000000000000201507060002001EFRAIN ALVAREZ                                    D000000000550000000000000000000000100010010000000000000000000000F0010000007318300120150706000101 00000000000000000000000000000000000000000000000000000000000000000000000000000000000000000000000000000000000000000N 00000000000NCONT   00    00000000000          00000000000000000000000000000000000000000000 000000000000000A000000000000000000000000000000000000000000000 000000000000000000000000000000000000000     00000000                                                                                                                        000000000000000000
F0010000007318300002000000431178400041450500000000000000000201507060002001EFRAIN ALVAREZ                                    C000000000500000000000000000000000100010010000000000000000000000F0010000007318300220150706000101 00000000000000000000000000000000000000000000000000000000000000000000000000000000000000000000000000000000000000000N 00000000000NCONT   00    00000000000          00000000000000000000000000000000000000000000 000000000000000A000000000000000000000000000000000000000000000 000000000000000000000000000000000000000     00000000                                                                                                                        000000000000000000
F0010000007318300003000000431178400042505000000000000000000201507060002001EFRAIN ALVAREZ                                    C000000000050000000000000000000000100010010000000000000000000000F0010000007318300320150706000101 00000000000000000000000000000000000000000000000000000000000000000000000000000000000000000000000000000000000000000N 00000000000NCONT   00    00000000000          00000000000000000000000000000000000000000000 000000000000000A000000000000000000000000000000000000000000000 000000000000000000000000000000000000000     00000000                                                                                                                        000000000000000000
F0010000007318300004000000431178400023658300000000000000000201507060002001EFRAIN ALVAREZ                                    C000000000004000000000000000000000100010010000000000000000000000F0010000007318300420150706000101 00000000000000000000000000000000000000000000000000000000000000000000000000000000000000000000000000000000000000000N 00000000000NCONT   00    00000000000          00000000000000000000000000000000000000000000 000000000000000A000000000000000000000000000000000000000000000 000000000000000000000000000000000000000     00000000                                                                                                                        000000000000000000
F0010000007318300005000000431178400013552100000000000000000201507060002001EFRAIN ALVAREZ                                    D000000000004000000000000000000000100010010000000000000000000000F0010000007318300520150706000101 00000000000000000000000000000000000000000000000000000000000000000000000000000000000000000000000000000000000000000N 00000000000NCONT   00    00000000000          00000000000000000000000000000000000000000000 000000000000000A000000000000000000000000000000000000000000000 000000000000000000000000000000000000000     00000000                                                                                                                        000000000000000000
F0010000007318400001000000431178400011050500000000000000000201507060002001EFRAIN ALVAREZ                                    D000000000910000000000000000000000100010010000000000000000000000F0010000007318400120150706000101 00000000000000000000000000000000000000000000000000000000000000000000000000000000000000000000000000000000000000000N 00000000000NCONT   00    00000000000          00000000000000000000000000000000000000000000 000000000000000A000000000000000000000000000000000000000000000 000000000000000000000000000000000000000     00000000                                                                                                                        000000000000000000
F0010000007318400002000000431178400041450500000000000000000201507060002001EFRAIN ALVAREZ                                    C000000000860000000000000000000000100010010000000000000000000000F0010000007318400220150706000101 00000000000000000000000000000000000000000000000000000000000000000000000000000000000000000000000000000000000000000N 00000000000NCONT   00    00000000000          00000000000000000000000000000000000000000000 000000000000000A000000000000000000000000000000000000000000000 000000000000000000000000000000000000000     00000000                                                                                                                        000000000000000000
F0010000007318400003000000431178400042505000000000000000000201507060002001EFRAIN ALVAREZ                                    C000000000050000000000000000000000100010010000000000000000000000F0010000007318400320150706000101 00000000000000000000000000000000000000000000000000000000000000000000000000000000000000000000000000000000000000000N 00000000000NCONT   00    00000000000          00000000000000000000000000000000000000000000 000000000000000A000000000000000000000000000000000000000000000 000000000000000000000000000000000000000     00000000                                                                                                                        000000000000000000
F0010000007318400004000000431178400023658300000000000000000201507060002001EFRAIN ALVAREZ                                    C000000000006900000000000000000000100010010000000000000000000000F0010000007318400420150706000101 00000000000000000000000000000000000000000000000000000000000000000000000000000000000000000000000000000000000000000N 00000000000NCONT   00    00000000000          00000000000000000000000000000000000000000000 000000000000000A000000000000000000000000000000000000000000000 000000000000000000000000000000000000000     00000000                                                                                                                        000000000000000000
F0010000007318400005000000431178400013552100000000000000000201507060002001EFRAIN ALVAREZ                                    D000000000006900000000000000000000100010010000000000000000000000F0010000007318400520150706000101 00000000000000000000000000000000000000000000000000000000000000000000000000000000000000000000000000000000000000000N 00000000000NCONT   00    00000000000          00000000000000000000000000000000000000000000 000000000000000A000000000000000000000000000000000000000000000 000000000000000000000000000000000000000     00000000                                                                                                                        000000000000000000
F0010000007318500001000000431178400011050500000000000000000201507060002001EFRAIN ALVAREZ                                    D000000004960000000000000000000000100010010000000000000000000000F0010000007318500120150706000101 00000000000000000000000000000000000000000000000000000000000000000000000000000000000000000000000000000000000000000N 00000000000NCONT   00    00000000000          00000000000000000000000000000000000000000000 000000000000000A000000000000000000000000000000000000000000000 000000000000000000000000000000000000000     00000000                                                                                                                        000000000000000000
F0010000007318500002000000431178400041450500000000000000000201507060002001EFRAIN ALVAREZ                                    C000000004760000000000000000000000100010010000000000000000000000F0010000007318500220150706000101 00000000000000000000000000000000000000000000000000000000000000000000000000000000000000000000000000000000000000000N 00000000000NCONT   00    00000000000          00000000000000000000000000000000000000000000 000000000000000A000000000000000000000000000000000000000000000 000000000000000000000000000000000000000     00000000                                                                                                                        000000000000000000
F0010000007318500003000000431178400042505000000000000000000201507060002001EFRAIN ALVAREZ                                    C000000000200000000000000000000000100010010000000000000000000000F0010000007318500320150706000101 00000000000000000000000000000000000000000000000000000000000000000000000000000000000000000000000000000000000000000N 00000000000NCONT   00    00000000000          00000000000000000000000000000000000000000000 000000000000000A000000000000000000000000000000000000000000000 000000000000000000000000000000000000000     00000000                                                                                                                        000000000000000000
F0010000007318500004000000431178400023658300000000000000000201507060002001EFRAIN ALVAREZ                                    C000000000038100000000000000000000100010010000000000000000000000F0010000007318500420150706000101 00000000000000000000000000000000000000000000000000000000000000000000000000000000000000000000000000000000000000000N 00000000000NCONT   00    00000000000          00000000000000000000000000000000000000000000 000000000000000A000000000000000000000000000000000000000000000 000000000000000000000000000000000000000     00000000                                                                                                                        000000000000000000
F0010000007318500005000000431178400013552100000000000000000201507060002001EFRAIN ALVAREZ                                    D000000000038100000000000000000000100010010000000000000000000000F0010000007318500520150706000101 00000000000000000000000000000000000000000000000000000000000000000000000000000000000000000000000000000000000000000N 00000000000NCONT   00    00000000000          00000000000000000000000000000000000000000000 000000000000000A000000000000000000000000000000000000000000000 000000000000000000000000000000000000000     00000000                                                                                                                        000000000000000000
F0010000007318600001000000431178400011050500000000000000000201507060002001EFRAIN ALVAREZ                                    D000000002780000000000000000000000100010010000000000000000000000F0010000007318600120150706000101 00000000000000000000000000000000000000000000000000000000000000000000000000000000000000000000000000000000000000000N 00000000000NCONT   00    00000000000          00000000000000000000000000000000000000000000 000000000000000A000000000000000000000000000000000000000000000 000000000000000000000000000000000000000     00000000                                                                                                                        000000000000000000
F0010000007318600002000000431178400041450500000000000000000201507060002001EFRAIN ALVAREZ                                    C000000002580000000000000000000000100010010000000000000000000000F0010000007318600220150706000101 00000000000000000000000000000000000000000000000000000000000000000000000000000000000000000000000000000000000000000N 00000000000NCONT   00    00000000000          00000000000000000000000000000000000000000000 000000000000000A000000000000000000000000000000000000000000000 000000000000000000000000000000000000000     00000000                                                                                                                        000000000000000000
F0010000007318600003000000431178400042505000000000000000000201507060002001EFRAIN ALVAREZ                                    C000000000200000000000000000000000100010010000000000000000000000F0010000007318600320150706000101 00000000000000000000000000000000000000000000000000000000000000000000000000000000000000000000000000000000000000000N 00000000000NCONT   00    00000000000          00000000000000000000000000000000000000000000 000000000000000A000000000000000000000000000000000000000000000 000000000000000000000000000000000000000     00000000                                                                                                                        000000000000000000
F0010000007318600004000000431178400023658300000000000000000201507060002001EFRAIN ALVAREZ                                    C000000000020600000000000000000000100010010000000000000000000000F0010000007318600420150706000101 00000000000000000000000000000000000000000000000000000000000000000000000000000000000000000000000000000000000000000N 00000000000NCONT   00    00000000000          00000000000000000000000000000000000000000000 000000000000000A000000000000000000000000000000000000000000000 000000000000000000000000000000000000000     00000000                                                                                                                        000000000000000000
F0010000007318600005000000431178400013552100000000000000000201507060002001EFRAIN ALVAREZ                                    D000000000020600000000000000000000100010010000000000000000000000F0010000007318600520150706000101 00000000000000000000000000000000000000000000000000000000000000000000000000000000000000000000000000000000000000000N 00000000000NCONT   00    00000000000          00000000000000000000000000000000000000000000 000000000000000A000000000000000000000000000000000000000000000 000000000000000000000000000000000000000     00000000                                                                                                                        000000000000000000
F0010000007318700001000000431178400011050500000000000000000201507060002001EFRAIN ALVAREZ                                    D000000003870000000000000000000000100010010000000000000000000000F0010000007318700120150706000101 00000000000000000000000000000000000000000000000000000000000000000000000000000000000000000000000000000000000000000N 00000000000NCONT   00    00000000000          00000000000000000000000000000000000000000000 000000000000000A000000000000000000000000000000000000000000000 000000000000000000000000000000000000000     00000000                                                                                                                        000000000000000000
F0010000007318700002000000431178400041450500000000000000000201507060002001EFRAIN ALVAREZ                                    C000000003570000000000000000000000100010010000000000000000000000F0010000007318700220150706000101 00000000000000000000000000000000000000000000000000000000000000000000000000000000000000000000000000000000000000000N 00000000000NCONT   00    00000000000          00000000000000000000000000000000000000000000 000000000000000A000000000000000000000000000000000000000000000 000000000000000000000000000000000000000     00000000                                                                                                                        000000000000000000
