F0010000008742700001000007233989800011050500000000000000000201606210002001DEIVIS AGUERO VALIENTE                            D000000002000000000000000000000000100010010000000000000000000000F0010000008742700120160621000101 00000000000000000000000000000000000000000000000000000000000000000000000000000000000000000000000000000000000000000N 00000000000NCONT   00    00000000000          00000000000000000000000000000000000000000000 000000000000000A000000000000000000000000000000000000000000000 000000000000000000000000000000000000000     00000000                                                                                                                        000000000000000000
F0010000008742700002000007233989800041450500000000000000000201606210002001DEIVIS AGUERO VALIENTE                            C000000001350000000000000000000000100010010000000000000000000000F0010000008742700220160621000101 00000000000000000000000000000000000000000000000000000000000000000000000000000000000000000000000000000000000000000N 00000000000NCONT   00    00000000000          00000000000000000000000000000000000000000000 000000000000000A000000000000000000000000000000000000000000000 000000000000000000000000000000000000000     00000000                                                                                                                        000000000000000000
F0010000008742700003000007233989800042505000000000000000000201606210002001DEIVIS AGUERO VALIENTE                            C000000000650000000000000000000000100010010000000000000000000000F0010000008742700320160621000101 00000000000000000000000000000000000000000000000000000000000000000000000000000000000000000000000000000000000000000N 00000000000NCONT   00    00000000000          00000000000000000000000000000000000000000000 000000000000000A000000000000000000000000000000000000000000000 000000000000000000000000000000000000000     00000000                                                                                                                        000000000000000000
F0010000008742700004000007233989800023658300000000000000000201606210002001DEIVIS AGUERO VALIENTE                            C000000000010800000000000000000000100010010000000000000000000000F0010000008742700420160621000101 00000000000000000000000000000000000000000000000000000000000000000000000000000000000000000000000000000000000000000N 00000000000NCONT   00    00000000000          00000000000000000000000000000000000000000000 000000000000000A000000000000000000000000000000000000000000000 000000000000000000000000000000000000000     00000000                                                                                                                        000000000000000000
F0010000008742700005000007233989800013552100000000000000000201606210002001DEIVIS AGUERO VALIENTE                            D000000000010800000000000000000000100010010000000000000000000000F0010000008742700520160621000101 00000000000000000000000000000000000000000000000000000000000000000000000000000000000000000000000000000000000000000N 00000000000NCONT   00    00000000000          00000000000000000000000000000000000000000000 000000000000000A000000000000000000000000000000000000000000000 000000000000000000000000000000000000000     00000000                                                                                                                        000000000000000000
F0010000008742800001000000460251100011050500000000000000000201606210002001JORGE GONZALEZ                                    D000000001800000000000000000000000100010010000000000000000000000F0010000008742800120160621000101 00000000000000000000000000000000000000000000000000000000000000000000000000000000000000000000000000000000000000000N 00000000000NCONT   00    00000000000          00000000000000000000000000000000000000000000 000000000000000A000000000000000000000000000000000000000000000 000000000000000000000000000000000000000     00000000                                                                                                                        000000000000000000
F0010000008742800002000000460251100041450500000000000000000201606210002001JORGE GONZALEZ                                    C000000001300000000000000000000000100010010000000000000000000000F0010000008742800220160621000101 00000000000000000000000000000000000000000000000000000000000000000000000000000000000000000000000000000000000000000N 00000000000NCONT   00    00000000000          00000000000000000000000000000000000000000000 000000000000000A000000000000000000000000000000000000000000000 000000000000000000000000000000000000000     00000000                                                                                                                        000000000000000000
F0010000008742800003000000460251100042505000000000000000000201606210002001JORGE GONZALEZ                                    C000000000500000000000000000000000100010010000000000000000000000F0010000008742800320160621000101 00000000000000000000000000000000000000000000000000000000000000000000000000000000000000000000000000000000000000000N 00000000000NCONT   00    00000000000          00000000000000000000000000000000000000000000 000000000000000A000000000000000000000000000000000000000000000 000000000000000000000000000000000000000     00000000                                                                                                                        000000000000000000
F0010000008742800004000000460251100023658300000000000000000201606210002001JORGE GONZALEZ                                    C000000000010400000000000000000000100010010000000000000000000000F0010000008742800420160621000101 00000000000000000000000000000000000000000000000000000000000000000000000000000000000000000000000000000000000000000N 00000000000NCONT   00    00000000000          00000000000000000000000000000000000000000000 000000000000000A000000000000000000000000000000000000000000000 000000000000000000000000000000000000000     00000000                                                                                                                        000000000000000000
F0010000008742800005000000460251100013552100000000000000000201606210002001JORGE GONZALEZ                                    D000000000010400000000000000000000100010010000000000000000000000F0010000008742800520160621000101 00000000000000000000000000000000000000000000000000000000000000000000000000000000000000000000000000000000000000000N 00000000000NCONT   00    00000000000          00000000000000000000000000000000000000000000 000000000000000A000000000000000000000000000000000000000000000 000000000000000000000000000000000000000     00000000                                                                                                                        000000000000000000
F0010000008742900001000090049854300013050500000000000000000201606210002001TRAPOS INDUSTRIALES DE COLOMBIA SAS               D000000012200000000000000000000000100010010000000000000000000000F0010000008742900120160621000101 00000000000000000000000000000000000000000000000000000000000000000000000000000000000000000000000000000000000000000N 00000000000NCONT   00    00000000000          00000000000000000000000000000000000000000000 000000000000000A000000000000000000000000000000000000000000000 000000000000000000000000000000000000000     00000000                                                                                                                        000000000000000000
F0010000008742900002000090049854300041450500000000000000000201606210002001TRAPOS INDUSTRIALES DE COLOMBIA SAS               C000000007000000000000000000000000100010010000000000000000000000F0010000008742900220160621000101 00000000000000000000000000000000000000000000000000000000000000000000000000000000000000000000000000000000000000000N 00000000000NCONT   00    00000000000          00000000000000000000000000000000000000000000 000000000000000A000000000000000000000000000000000000000000000 000000000000000000000000000000000000000     00000000                                                                                                                        000000000000000000
F0010000008742900003000090049854300042505000000000000000000201606210002001TRAPOS INDUSTRIALES DE COLOMBIA SAS               C000000005200000000000000000000000100010010000000000000000000000F0010000008742900320160621000101 00000000000000000000000000000000000000000000000000000000000000000000000000000000000000000000000000000000000000000N 00000000000NCONT   00    00000000000          00000000000000000000000000000000000000000000 000000000000000A000000000000000000000000000000000000000000000 000000000000000000000000000000000000000     00000000                                                                                                                        000000000000000000
F0010000008742900004000090049854300023658300000000000000000201606210002001TRAPOS INDUSTRIALES DE COLOMBIA SAS               C000000000056000000000000000000000100010010000000000000000000000F0010000008742900420160621000101 00000000000000000000000000000000000000000000000000000000000000000000000000000000000000000000000000000000000000000N 00000000000NCONT   00    00000000000          00000000000000000000000000000000000000000000 000000000000000A000000000000000000000000000000000000000000000 000000000000000000000000000000000000000     00000000                                                                                                                        000000000000000000
F0010000008742900005000090049854300013552100000000000000000201606210002001TRAPOS INDUSTRIALES DE COLOMBIA SAS               D000000000056000000000000000000000100010010000000000000000000000F0010000008742900520160621000101 00000000000000000000000000000000000000000000000000000000000000000000000000000000000000000000000000000000000000000N 00000000000NCONT   00    00000000000          00000000000000000000000000000000000000000000 000000000000000A000000000000000000000000000000000000000000000 000000000000000000000000000000000000000     00000000                                                                                                                        000000000000000000
F0010000008743000001000083007900600013050500000000000000000201606210002001EXPRESO ANDINO DE CARGA SA                        D000000019630000000000000000000000100010010000000000000000000000F0010000008743000120160621000101 00000000000000000000000000000000000000000000000000000000000000000000000000000000000000000000000000000000000000000N 00000000000NCONT   00    00000000000          00000000000000000000000000000000000000000000 000000000000000A000000000000000000000000000000000000000000000 000000000000000000000000000000000000000     00000000                                                                                                                        000000000000000000
F0010000008743000002000083007900600041450500000000000000000201606210002001EXPRESO ANDINO DE CARGA SA                        C000000019230000000000000000000000100010010000000000000000000000F0010000008743000220160621000101 00000000000000000000000000000000000000000000000000000000000000000000000000000000000000000000000000000000000000000N 00000000000NCONT   00    00000000000          00000000000000000000000000000000000000000000 000000000000000A000000000000000000000000000000000000000000000 000000000000000000000000000000000000000     00000000                                                                                                                        000000000000000000
F0010000008743000003000083007900600042505000000000000000000201606210002001EXPRESO ANDINO DE CARGA SA                        C000000000400000000000000000000000100010010000000000000000000000F0010000008743000320160621000101 00000000000000000000000000000000000000000000000000000000000000000000000000000000000000000000000000000000000000000N 00000000000NCONT   00    00000000000          00000000000000000000000000000000000000000000 000000000000000A000000000000000000000000000000000000000000000 000000000000000000000000000000000000000     00000000                                                                                                                        000000000000000000
F0010000008743000004000083007900600023658300000000000000000201606210002001EXPRESO ANDINO DE CARGA SA                        C000000000153800000000000000000000100010010000000000000000000000F0010000008743000420160621000101 00000000000000000000000000000000000000000000000000000000000000000000000000000000000000000000000000000000000000000N 00000000000NCONT   00    00000000000          00000000000000000000000000000000000000000000 000000000000000A000000000000000000000000000000000000000000000 000000000000000000000000000000000000000     00000000                                                                                                                        000000000000000000
F0010000008743000005000083007900600013552100000000000000000201606210002001EXPRESO ANDINO DE CARGA SA                        D000000000153800000000000000000000100010010000000000000000000000F0010000008743000520160621000101 00000000000000000000000000000000000000000000000000000000000000000000000000000000000000000000000000000000000000000N 00000000000NCONT   00    00000000000          00000000000000000000000000000000000000000000 000000000000000A000000000000000000000000000000000000000000000 000000000000000000000000000000000000000     00000000                                                                                                                        000000000000000000
F0010000008743100001000081102758700013050500000000000000000201606210002001C.I. ABRACOL S.A EMA                              D000000073015500000000000000000000100010010000000000000000000000F0010000008743100120160621000101 00000000000000000000000000000000000000000000000000000000000000000000000000000000000000000000000000000000000000000N 00000000000NCONT   00    00000000000          00000000000000000000000000000000000000000000 000000000000000A000000000000000000000000000000000000000000000 000000000000000000000000000000000000000     00000000                                                                                                                        000000000000000000
F0010000008743100002000081102758700041450500000000000000000201606210002001C.I. ABRACOL S.A EMA                              C000000045710000000000000000000000100010010000000000000000000000F0010000008743100220160621000101 00000000000000000000000000000000000000000000000000000000000000000000000000000000000000000000000000000000000000000N 00000000000NCONT   00    00000000000          00000000000000000000000000000000000000000000 000000000000000A000000000000000000000000000000000000000000000 000000000000000000000000000000000000000     00000000                                                                                                                        000000000000000000
F0010000008743100003000081102758700041750100000000000000000201606210002001C.I. ABRACOL S.A EMA                              D000000001371300000000000000000000100010010000000000000000000000F0010000008743100320160621000101 00000000000000000000000000000000000000000000000000000000000000000000000000000000000000000000000000000000000000000N 00000000000NCONT   00    00000000000          00000000000000000000000000000000000000000000 000000000000000A000000000000000000000000000000000000000000000 000000000000000000000000000000000000000     00000000                                                                                                                        000000000000000000
F0010000008743100004000081102758700042505000000000000000000201606210002001C.I. ABRACOL S.A EMA                              C000000028676800000000000000000000100010010000000000000000000000F0010000008743100420160621000101 00000000000000000000000000000000000000000000000000000000000000000000000000000000000000000000000000000000000000000N 00000000000NCONT   00    00000000000          00000000000000000000000000000000000000000000 000000000000000A000000000000000000000000000000000000000000000 000000000000000000000000000000000000000     00000000                                                                                                                        000000000000000000
F0010000008743100005000081102758700023658300000000000000000201606210002001C.I. ABRACOL S.A EMA                              C000000000365700000000000000000000100010010000000000000000000000F0010000008743100520160621000101 00000000000000000000000000000000000000000000000000000000000000000000000000000000000000000000000000000000000000000N 00000000000NCONT   00    00000000000          00000000000000000000000000000000000000000000 000000000000000A000000000000000000000000000000000000000000000 000000000000000000000000000000000000000     00000000                                                                                                                        000000000000000000
F0010000008743100006000081102758700013552100000000000000000201606210002001C.I. ABRACOL S.A EMA                              D000000000365700000000000000000000100010010000000000000000000000F0010000008743100620160621000101 00000000000000000000000000000000000000000000000000000000000000000000000000000000000000000000000000000000000000000N 00000000000NCONT   00    00000000000          00000000000000000000000000000000000000000000 000000000000000A000000000000000000000000000000000000000000000 000000000000000000000000000000000000000     00000000                                                                                                                        000000000000000000
F0010000008743200001000081102758700013050500000000000000000201606210002001C.I. ABRACOL S.A EMA                              D000000025459900000000000000000000100010010000000000000000000000F0010000008743200120160621000101 00000000000000000000000000000000000000000000000000000000000000000000000000000000000000000000000000000000000000000N 00000000000NCONT   00    00000000000          00000000000000000000000000000000000000000000 000000000000000A000000000000000000000000000000000000000000000 000000000000000000000000000000000000000     00000000                                                                                                                        000000000000000000
F0010000008743200002000081102758700041450500000000000000000201606210002001C.I. ABRACOL S.A EMA                              C000000017730000000000000000000000100010010000000000000000000000F0010000008743200220160621000101 00000000000000000000000000000000000000000000000000000000000000000000000000000000000000000000000000000000000000000N 00000000000NCONT   00    00000000000          00000000000000000000000000000000000000000000 000000000000000A000000000000000000000000000000000000000000000 000000000000000000000000000000000000000     00000000                                                                                                                        000000000000000000
F0010000008743200003000081102758700041750100000000000000000201606210002001C.I. ABRACOL S.A EMA                              D000000000531900000000000000000000100010010000000000000000000000F0010000008743200320160621000101 00000000000000000000000000000000000000000000000000000000000000000000000000000000000000000000000000000000000000000N 00000000000NCONT   00    00000000000          00000000000000000000000000000000000000000000 000000000000000A000000000000000000000000000000000000000000000 000000000000000000000000000000000000000     00000000                                                                                                                        000000000000000000
F0010000008743200004000081102758700042505000000000000000000201606210002001C.I. ABRACOL S.A EMA                              C000000008261800000000000000000000100010010000000000000000000000F0010000008743200420160621000101 00000000000000000000000000000000000000000000000000000000000000000000000000000000000000000000000000000000000000000N 00000000000NCONT   00    00000000000          00000000000000000000000000000000000000000000 000000000000000A000000000000000000000000000000000000000000000 000000000000000000000000000000000000000     00000000                                                                                                                        000000000000000000
F0010000008743200005000081102758700023658300000000000000000201606210002001C.I. ABRACOL S.A EMA                              C000000000141800000000000000000000100010010000000000000000000000F0010000008743200520160621000101 00000000000000000000000000000000000000000000000000000000000000000000000000000000000000000000000000000000000000000N 00000000000NCONT   00    00000000000          00000000000000000000000000000000000000000000 000000000000000A000000000000000000000000000000000000000000000 000000000000000000000000000000000000000     00000000                                                                                                                        000000000000000000
F0010000008743200006000081102758700013552100000000000000000201606210002001C.I. ABRACOL S.A EMA                              D000000000141800000000000000000000100010010000000000000000000000F0010000008743200620160621000101 00000000000000000000000000000000000000000000000000000000000000000000000000000000000000000000000000000000000000000N 00000000000NCONT   00    00000000000          00000000000000000000000000000000000000000000 000000000000000A000000000000000000000000000000000000000000000 000000000000000000000000000000000000000     00000000                                                                                                                        000000000000000000
F0010000008743300001000090054716100013050500000000000000000201606210002001IMPORTVAL SAS                                     D000000019400000000000000000000000100010010000000000000000000000F0010000008743300120160621000101 00000000000000000000000000000000000000000000000000000000000000000000000000000000000000000000000000000000000000000N 00000000000NCONT   00    00000000000          00000000000000000000000000000000000000000000 000000000000000A000000000000000000000000000000000000000000000 000000000000000000000000000000000000000     00000000                                                                                                                        000000000000000000
F0010000008743300002000090054716100041450500000000000000000201606210002001IMPORTVAL SAS                                     C000000018000000000000000000000000100010010000000000000000000000F0010000008743300220160621000101 00000000000000000000000000000000000000000000000000000000000000000000000000000000000000000000000000000000000000000N 00000000000NCONT   00    00000000000          00000000000000000000000000000000000000000000 000000000000000A000000000000000000000000000000000000000000000 000000000000000000000000000000000000000     00000000                                                                                                                        000000000000000000
F0010000008743300003000090054716100042505000000000000000000201606210002001IMPORTVAL SAS                                     C000000001400000000000000000000000100010010000000000000000000000F0010000008743300320160621000101 00000000000000000000000000000000000000000000000000000000000000000000000000000000000000000000000000000000000000000N 00000000000NCONT   00    00000000000          00000000000000000000000000000000000000000000 000000000000000A000000000000000000000000000000000000000000000 000000000000000000000000000000000000000     00000000                                                                                                                        000000000000000000
F0010000008743300004000090054716100023658300000000000000000201606210002001IMPORTVAL SAS                                     C000000000144000000000000000000000100010010000000000000000000000F0010000008743300420160621000101 00000000000000000000000000000000000000000000000000000000000000000000000000000000000000000000000000000000000000000N 00000000000NCONT   00    00000000000          00000000000000000000000000000000000000000000 000000000000000A000000000000000000000000000000000000000000000 000000000000000000000000000000000000000     00000000                                                                                                                        000000000000000000
F0010000008743300005000090054716100013552100000000000000000201606210002001IMPORTVAL SAS                                     D000000000144000000000000000000000100010010000000000000000000000F0010000008743300520160621000101 00000000000000000000000000000000000000000000000000000000000000000000000000000000000000000000000000000000000000000N 00000000000NCONT   00    00000000000          00000000000000000000000000000000000000000000 000000000000000A000000000000000000000000000000000000000000000 000000000000000000000000000000000000000     00000000                                                                                                                        000000000000000000
F0010000008743400001000089021246300013050500000000000000000201606210002001LUBRIGRAS SA                                      D000000040285100000000000000000000100010010000000000000000000000F0010000008743400120160621000101 00000000000000000000000000000000000000000000000000000000000000000000000000000000000000000000000000000000000000000N 00000000000NCONT   00    00000000000          00000000000000000000000000000000000000000000 000000000000000A000000000000000000000000000000000000000000000 000000000000000000000000000000000000000     00000000                                                                                                                        000000000000000000
F0010000008743400002000089021246300041450500000000000000000201606210002001LUBRIGRAS SA                                      C000000038140000000000000000000000100010010000000000000000000000F0010000008743400220160621000101 00000000000000000000000000000000000000000000000000000000000000000000000000000000000000000000000000000000000000000N 00000000000NCONT   00    00000000000          00000000000000000000000000000000000000000000 000000000000000A000000000000000000000000000000000000000000000 000000000000000000000000000000000000000     00000000                                                                                                                        000000000000000000
F0010000008743400003000089021246300042505000000000000000000201606210002001LUBRIGRAS SA                                      C000000002145100000000000000000000100010010000000000000000000000F0010000008743400320160621000101 00000000000000000000000000000000000000000000000000000000000000000000000000000000000000000000000000000000000000000N 00000000000NCONT   00    00000000000          00000000000000000000000000000000000000000000 000000000000000A000000000000000000000000000000000000000000000 000000000000000000000000000000000000000     00000000                                                                                                                        000000000000000000
F0010000008743400004000089021246300023658300000000000000000201606210002001LUBRIGRAS SA                                      C000000000305100000000000000000000100010010000000000000000000000F0010000008743400420160621000101 00000000000000000000000000000000000000000000000000000000000000000000000000000000000000000000000000000000000000000N 00000000000NCONT   00    00000000000          00000000000000000000000000000000000000000000 000000000000000A000000000000000000000000000000000000000000000 000000000000000000000000000000000000000     00000000                                                                                                                        000000000000000000
F0010000008743400005000089021246300013552100000000000000000201606210002001LUBRIGRAS SA                                      D000000000305100000000000000000000100010010000000000000000000000F0010000008743400520160621000101 00000000000000000000000000000000000000000000000000000000000000000000000000000000000000000000000000000000000000000N 00000000000NCONT   00    00000000000          00000000000000000000000000000000000000000000 000000000000000A000000000000000000000000000000000000000000000 000000000000000000000000000000000000000     00000000                                                                                                                        000000000000000000
F0010000008743500001000080201411900011050500000000000000000201606210002001PLASTISERVICIOS S DE H                            D000000002600000000000000000000000100010010000000000000000000000F0010000008743500120160621000101 00000000000000000000000000000000000000000000000000000000000000000000000000000000000000000000000000000000000000000N 00000000000NCONT   00    00000000000          00000000000000000000000000000000000000000000 000000000000000A000000000000000000000000000000000000000000000 000000000000000000000000000000000000000     00000000                                                                                                                        000000000000000000
F0010000008743500002000080201411900041450500000000000000000201606210002001PLASTISERVICIOS S DE H                            C000000001900000000000000000000000100010010000000000000000000000F0010000008743500220160621000101 00000000000000000000000000000000000000000000000000000000000000000000000000000000000000000000000000000000000000000N 00000000000NCONT   00    00000000000          00000000000000000000000000000000000000000000 000000000000000A000000000000000000000000000000000000000000000 000000000000000000000000000000000000000     00000000                                                                                                                        000000000000000000
F0010000008743500003000080201411900042505000000000000000000201606210002001PLASTISERVICIOS S DE H                            C000000000700000000000000000000000100010010000000000000000000000F0010000008743500320160621000101 00000000000000000000000000000000000000000000000000000000000000000000000000000000000000000000000000000000000000000N 00000000000NCONT   00    00000000000          00000000000000000000000000000000000000000000 000000000000000A000000000000000000000000000000000000000000000 000000000000000000000000000000000000000     00000000                                                                                                                        000000000000000000
F0010000008743500004000080201411900023658300000000000000000201606210002001PLASTISERVICIOS S DE H                            C000000000015200000000000000000000100010010000000000000000000000F0010000008743500420160621000101 00000000000000000000000000000000000000000000000000000000000000000000000000000000000000000000000000000000000000000N 00000000000NCONT   00    00000000000          00000000000000000000000000000000000000000000 000000000000000A000000000000000000000000000000000000000000000 000000000000000000000000000000000000000     00000000                                                                                                                        000000000000000000
F0010000008743500005000080201411900013552100000000000000000201606210002001PLASTISERVICIOS S DE H                            D000000000015200000000000000000000100010010000000000000000000000F0010000008743500520160621000101 00000000000000000000000000000000000000000000000000000000000000000000000000000000000000000000000000000000000000000N 00000000000NCONT   00    00000000000          00000000000000000000000000000000000000000000 000000000000000A000000000000000000000000000000000000000000000 000000000000000000000000000000000000000     00000000                                                                                                                        000000000000000000
F0010000008743600001000080201411900011050500000000000000000201606210002001PLASTISERVICIOS S DE H                            D000000001100000000000000000000000100010010000000000000000000000F0010000008743600120160621000101 00000000000000000000000000000000000000000000000000000000000000000000000000000000000000000000000000000000000000000N 00000000000NCONT   00    00000000000          00000000000000000000000000000000000000000000 000000000000000A000000000000000000000000000000000000000000000 000000000000000000000000000000000000000     00000000                                                                                                                        000000000000000000
F0010000008743600002000080201411900041450500000000000000000201606210002001PLASTISERVICIOS S DE H                            C000000001000000000000000000000000100010010000000000000000000000F0010000008743600220160621000101 00000000000000000000000000000000000000000000000000000000000000000000000000000000000000000000000000000000000000000N 00000000000NCONT   00    00000000000          00000000000000000000000000000000000000000000 000000000000000A000000000000000000000000000000000000000000000 000000000000000000000000000000000000000     00000000                                                                                                                        000000000000000000
F0010000008743600003000080201411900042505000000000000000000201606210002001PLASTISERVICIOS S DE H                            C000000000100000000000000000000000100010010000000000000000000000F0010000008743600320160621000101 00000000000000000000000000000000000000000000000000000000000000000000000000000000000000000000000000000000000000000N 00000000000NCONT   00    00000000000          00000000000000000000000000000000000000000000 000000000000000A000000000000000000000000000000000000000000000 000000000000000000000000000000000000000     00000000                                                                                                                        000000000000000000
F0010000008743600004000080201411900023658300000000000000000201606210002001PLASTISERVICIOS S DE H                            C000000000008000000000000000000000100010010000000000000000000000F0010000008743600420160621000101 00000000000000000000000000000000000000000000000000000000000000000000000000000000000000000000000000000000000000000N 00000000000NCONT   00    00000000000          00000000000000000000000000000000000000000000 000000000000000A000000000000000000000000000000000000000000000 000000000000000000000000000000000000000     00000000                                                                                                                        000000000000000000
F0010000008743600005000080201411900013552100000000000000000201606210002001PLASTISERVICIOS S DE H                            D000000000008000000000000000000000100010010000000000000000000000F0010000008743600520160621000101 00000000000000000000000000000000000000000000000000000000000000000000000000000000000000000000000000000000000000000N 00000000000NCONT   00    00000000000          00000000000000000000000000000000000000000000 000000000000000A000000000000000000000000000000000000000000000 000000000000000000000000000000000000000     00000000                                                                                                                        000000000000000000
F0010000008743700001000003207718300011050500000000000000000201606210002001MARIA GILMA RAMIREZ GARCIA                        D000000004000000000000000000000000100010010000000000000000000000F0010000008743700120160621000101 00000000000000000000000000000000000000000000000000000000000000000000000000000000000000000000000000000000000000000N 00000000000NCONT   00    00000000000          00000000000000000000000000000000000000000000 000000000000000A000000000000000000000000000000000000000000000 000000000000000000000000000000000000000     00000000                                                                                                                        000000000000000000
F0010000008743700002000003207718300041450500000000000000000201606210002001MARIA GILMA RAMIREZ GARCIA                        C000000003000000000000000000000000100010010000000000000000000000F0010000008743700220160621000101 00000000000000000000000000000000000000000000000000000000000000000000000000000000000000000000000000000000000000000N 00000000000NCONT   00    00000000000          00000000000000000000000000000000000000000000 000000000000000A000000000000000000000000000000000000000000000 000000000000000000000000000000000000000     00000000                                                                                                                        000000000000000000
F0010000008743700003000003207718300042505000000000000000000201606210002001MARIA GILMA RAMIREZ GARCIA                        C000000001000000000000000000000000100010010000000000000000000000F0010000008743700320160621000101 00000000000000000000000000000000000000000000000000000000000000000000000000000000000000000000000000000000000000000N 00000000000NCONT   00    00000000000          00000000000000000000000000000000000000000000 000000000000000A000000000000000000000000000000000000000000000 000000000000000000000000000000000000000     00000000                                                                                                                        000000000000000000
F0010000008743700004000003207718300023658300000000000000000201606210002001MARIA GILMA RAMIREZ GARCIA                        C000000000024000000000000000000000100010010000000000000000000000F0010000008743700420160621000101 00000000000000000000000000000000000000000000000000000000000000000000000000000000000000000000000000000000000000000N 00000000000NCONT   00    00000000000          00000000000000000000000000000000000000000000 000000000000000A000000000000000000000000000000000000000000000 000000000000000000000000000000000000000     00000000                                                                                                                        000000000000000000
F0010000008743700005000003207718300013552100000000000000000201606210002001MARIA GILMA RAMIREZ GARCIA                        D000000000024000000000000000000000100010010000000000000000000000F0010000008743700520160621000101 00000000000000000000000000000000000000000000000000000000000000000000000000000000000000000000000000000000000000000N 00000000000NCONT   00    00000000000          00000000000000000000000000000000000000000000 000000000000000A000000000000000000000000000000000000000000000 000000000000000000000000000000000000000     00000000                                                                                                                        000000000000000000
F0010000008743800001000080201492700013050500000000000000000201606210002001ASOVITER URBANIZACION LUNA DEL RIO II             D000000036000000000000000000000000100010010000000000000000000000F0010000008743800120160621000101 00000000000000000000000000000000000000000000000000000000000000000000000000000000000000000000000000000000000000000N 00000000000NCONT   00    00000000000          00000000000000000000000000000000000000000000 000000000000000A000000000000000000000000000000000000000000000 000000000000000000000000000000000000000     00000000                                                                                                                        000000000000000000
F0010000008743800002000080201492700041450500000000000000000201606210002001ASOVITER URBANIZACION LUNA DEL RIO II             C000000033000000000000000000000000100010010000000000000000000000F0010000008743800220160621000101 00000000000000000000000000000000000000000000000000000000000000000000000000000000000000000000000000000000000000000N 00000000000NCONT   00    00000000000          00000000000000000000000000000000000000000000 000000000000000A000000000000000000000000000000000000000000000 000000000000000000000000000000000000000     00000000                                                                                                                        000000000000000000
F0010000008743800003000080201492700042505000000000000000000201606210002001ASOVITER URBANIZACION LUNA DEL RIO II             C000000003000000000000000000000000100010010000000000000000000000F0010000008743800320160621000101 00000000000000000000000000000000000000000000000000000000000000000000000000000000000000000000000000000000000000000N 00000000000NCONT   00    00000000000          00000000000000000000000000000000000000000000 000000000000000A000000000000000000000000000000000000000000000 000000000000000000000000000000000000000     00000000                                                                                                                        000000000000000000
F0010000008743800004000080201492700023658300000000000000000201606210002001ASOVITER URBANIZACION LUNA DEL RIO II             C000000000264000000000000000000000100010010000000000000000000000F0010000008743800420160621000101 00000000000000000000000000000000000000000000000000000000000000000000000000000000000000000000000000000000000000000N 00000000000NCONT   00    00000000000          00000000000000000000000000000000000000000000 000000000000000A000000000000000000000000000000000000000000000 000000000000000000000000000000000000000     00000000                                                                                                                        000000000000000000
F0010000008743800005000080201492700013552100000000000000000201606210002001ASOVITER URBANIZACION LUNA DEL RIO II             D000000000264000000000000000000000100010010000000000000000000000F0010000008743800520160621000101 00000000000000000000000000000000000000000000000000000000000000000000000000000000000000000000000000000000000000000N 00000000000NCONT   00    00000000000          00000000000000000000000000000000000000000000 000000000000000A000000000000000000000000000000000000000000000 000000000000000000000000000000000000000     00000000                                                                                                                        000000000000000000
F0010000008743900001000090011041100013050500000000000000000201606210002001OFINEXT S.A.S                                     D000000007000000000000000000000000100010010000000000000000000000F0010000008743900120160621000101 00000000000000000000000000000000000000000000000000000000000000000000000000000000000000000000000000000000000000000N 00000000000NCONT   00    00000000000          00000000000000000000000000000000000000000000 000000000000000A000000000000000000000000000000000000000000000 000000000000000000000000000000000000000     00000000                                                                                                                        000000000000000000
F0010000008743900002000090011041100041450500000000000000000201606210002001OFINEXT S.A.S                                     C000000006240000000000000000000000100010010000000000000000000000F0010000008743900220160621000101 00000000000000000000000000000000000000000000000000000000000000000000000000000000000000000000000000000000000000000N 00000000000NCONT   00    00000000000          00000000000000000000000000000000000000000000 000000000000000A000000000000000000000000000000000000000000000 000000000000000000000000000000000000000     00000000                                                                                                                        000000000000000000
F0010000008743900003000090011041100042505000000000000000000201606210002001OFINEXT S.A.S                                     C000000000760000000000000000000000100010010000000000000000000000F0010000008743900320160621000101 00000000000000000000000000000000000000000000000000000000000000000000000000000000000000000000000000000000000000000N 00000000000NCONT   00    00000000000          00000000000000000000000000000000000000000000 000000000000000A000000000000000000000000000000000000000000000 000000000000000000000000000000000000000     00000000                                                                                                                        000000000000000000
F0010000008743900004000090011041100023658300000000000000000201606210002001OFINEXT S.A.S                                     C000000000049900000000000000000000100010010000000000000000000000F0010000008743900420160621000101 00000000000000000000000000000000000000000000000000000000000000000000000000000000000000000000000000000000000000000N 00000000000NCONT   00    00000000000          00000000000000000000000000000000000000000000 000000000000000A000000000000000000000000000000000000000000000 000000000000000000000000000000000000000     00000000                                                                                                                        000000000000000000
F0010000008743900005000090011041100013552100000000000000000201606210002001OFINEXT S.A.S                                     D000000000049900000000000000000000100010010000000000000000000000F0010000008743900520160621000101 00000000000000000000000000000000000000000000000000000000000000000000000000000000000000000000000000000000000000000N 00000000000NCONT   00    00000000000          00000000000000000000000000000000000000000000 000000000000000A000000000000000000000000000000000000000000000 000000000000000000000000000000000000000     00000000                                                                                                                        000000000000000000
F0010000008744000001000080200863700013050500000000000000000201606210002001COPIN S.A.S                                       D000000100614900000000000000000000100010010000000000000000000000F0010000008744000120160621000101 00000000000000000000000000000000000000000000000000000000000000000000000000000000000000000000000000000000000000000N 00000000000NCONT   00    00000000000          00000000000000000000000000000000000000000000 000000000000000A000000000000000000000000000000000000000000000 000000000000000000000000000000000000000     00000000                                                                                                                        000000000000000000
F0010000008744000002000080200863700041450500000000000000000201606210002001COPIN S.A.S                                       C000000093156200000000000000000000100010010000000000000000000000F0010000008744000220160621000101 00000000000000000000000000000000000000000000000000000000000000000000000000000000000000000000000000000000000000000N 00000000000NCONT   00    00000000000          00000000000000000000000000000000000000000000 000000000000000A000000000000000000000000000000000000000000000 000000000000000000000000000000000000000     00000000                                                                                                                        000000000000000000
F0010000008744000003000080200863700042505000000000000000000201606210002001COPIN S.A.S                                       C000000007458700000000000000000000100010010000000000000000000000F0010000008744000320160621000101 00000000000000000000000000000000000000000000000000000000000000000000000000000000000000000000000000000000000000000N 00000000000NCONT   00    00000000000          00000000000000000000000000000000000000000000 000000000000000A000000000000000000000000000000000000000000000 000000000000000000000000000000000000000     00000000                                                                                                                        000000000000000000
F0010000008744000004000080200863700023658300000000000000000201606210002001COPIN S.A.S                                       C000000000745200000000000000000000100010010000000000000000000000F0010000008744000420160621000101 00000000000000000000000000000000000000000000000000000000000000000000000000000000000000000000000000000000000000000N 00000000000NCONT   00    00000000000          00000000000000000000000000000000000000000000 000000000000000A000000000000000000000000000000000000000000000 000000000000000000000000000000000000000     00000000                                                                                                                        000000000000000000
F0010000008744000005000080200863700013552100000000000000000201606210002001COPIN S.A.S                                       D000000000745200000000000000000000100010010000000000000000000000F0010000008744000520160621000101 00000000000000000000000000000000000000000000000000000000000000000000000000000000000000000000000000000000000000000N 00000000000NCONT   00    00000000000          00000000000000000000000000000000000000000000 000000000000000A000000000000000000000000000000000000000000000 000000000000000000000000000000000000000     00000000                                                                                                                        000000000000000000
F0010000008744100001000086000490200013050500000000000000000201606210002001PROV. DE PAPELES ANDINA S.A.                      D000000033357800000000000000000000100010010000000000000000000000F0010000008744100120160621000101 00000000000000000000000000000000000000000000000000000000000000000000000000000000000000000000000000000000000000000N 00000000000NCONT   00    00000000000          00000000000000000000000000000000000000000000 000000000000000A000000000000000000000000000000000000000000000 000000000000000000000000000000000000000     00000000                                                                                                                        000000000000000000
F0010000008744100002000086000490200041450500000000000000000201606210002001PROV. DE PAPELES ANDINA S.A.                      C000000030245300000000000000000000100010010000000000000000000000F0010000008744100220160621000101 00000000000000000000000000000000000000000000000000000000000000000000000000000000000000000000000000000000000000000N 00000000000NCONT   00    00000000000          00000000000000000000000000000000000000000000 000000000000000A000000000000000000000000000000000000000000000 000000000000000000000000000000000000000     00000000                                                                                                                        000000000000000000
F0010000008744100003000086000490200042505000000000000000000201606210002001PROV. DE PAPELES ANDINA S.A.                      C000000003112500000000000000000000100010010000000000000000000000F0010000008744100320160621000101 00000000000000000000000000000000000000000000000000000000000000000000000000000000000000000000000000000000000000000N 00000000000NCONT   00    00000000000          00000000000000000000000000000000000000000000 000000000000000A000000000000000000000000000000000000000000000 000000000000000000000000000000000000000     00000000                                                                                                                        000000000000000000
F0010000008744100004000086000490200023658300000000000000000201606210002001PROV. DE PAPELES ANDINA S.A.                      C000000000242000000000000000000000100010010000000000000000000000F0010000008744100420160621000101 00000000000000000000000000000000000000000000000000000000000000000000000000000000000000000000000000000000000000000N 00000000000NCONT   00    00000000000          00000000000000000000000000000000000000000000 000000000000000A000000000000000000000000000000000000000000000 000000000000000000000000000000000000000     00000000                                                                                                                        000000000000000000
F0010000008744100005000086000490200013552100000000000000000201606210002001PROV. DE PAPELES ANDINA S.A.                      D000000000242000000000000000000000100010010000000000000000000000F0010000008744100520160621000101 00000000000000000000000000000000000000000000000000000000000000000000000000000000000000000000000000000000000000000N 00000000000NCONT   00    00000000000          00000000000000000000000000000000000000000000 000000000000000A000000000000000000000000000000000000000000000 000000000000000000000000000000000000000     00000000                                                                                                                        000000000000000000
F0010000008744200001000081102758700013050500000000000000000201606210002001C.I. ABRACOL S.A EMA                              D000000062178100000000000000000000100010010000000000000000000000F0010000008744200120160621000101 00000000000000000000000000000000000000000000000000000000000000000000000000000000000000000000000000000000000000000N 00000000000NCONT   00    00000000000          00000000000000000000000000000000000000000000 000000000000000A000000000000000000000000000000000000000000000 000000000000000000000000000000000000000     00000000                                                                                                                        000000000000000000
F0010000008744200002000081102758700041450500000000000000000201606210002001C.I. ABRACOL S.A EMA                              C000000039217500000000000000000000100010010000000000000000000000F0010000008744200220160621000101 00000000000000000000000000000000000000000000000000000000000000000000000000000000000000000000000000000000000000000N 00000000000NCONT   00    00000000000          00000000000000000000000000000000000000000000 000000000000000A000000000000000000000000000000000000000000000 000000000000000000000000000000000000000     00000000                                                                                                                        000000000000000000
F0010000008744200003000081102758700041750100000000000000000201606210002001C.I. ABRACOL S.A EMA                              D000000001176500000000000000000000100010010000000000000000000000F0010000008744200320160621000101 00000000000000000000000000000000000000000000000000000000000000000000000000000000000000000000000000000000000000000N 00000000000NCONT   00    00000000000          00000000000000000000000000000000000000000000 000000000000000A000000000000000000000000000000000000000000000 000000000000000000000000000000000000000     00000000                                                                                                                        000000000000000000
F0010000008744200004000081102758700042505000000000000000000201606210002001C.I. ABRACOL S.A EMA                              C000000024137100000000000000000000100010010000000000000000000000F0010000008744200420160621000101 00000000000000000000000000000000000000000000000000000000000000000000000000000000000000000000000000000000000000000N 00000000000NCONT   00    00000000000          00000000000000000000000000000000000000000000 000000000000000A000000000000000000000000000000000000000000000 000000000000000000000000000000000000000     00000000                                                                                                                        000000000000000000
F0010000008744200005000081102758700023658300000000000000000201606210002001C.I. ABRACOL S.A EMA                              C000000000313700000000000000000000100010010000000000000000000000F0010000008744200520160621000101 00000000000000000000000000000000000000000000000000000000000000000000000000000000000000000000000000000000000000000N 00000000000NCONT   00    00000000000          00000000000000000000000000000000000000000000 000000000000000A000000000000000000000000000000000000000000000 000000000000000000000000000000000000000     00000000                                                                                                                        000000000000000000
F0010000008744200006000081102758700013552100000000000000000201606210002001C.I. ABRACOL S.A EMA                              D000000000313700000000000000000000100010010000000000000000000000F0010000008744200620160621000101 00000000000000000000000000000000000000000000000000000000000000000000000000000000000000000000000000000000000000000N 00000000000NCONT   00    00000000000          00000000000000000000000000000000000000000000 000000000000000A000000000000000000000000000000000000000000000 000000000000000000000000000000000000000     00000000                                                                                                                        000000000000000000
F0010000008744300001000089010952800013050500000000000000000201606210002001IND. LITOGRAF. BOSTON S.A.S.                      D000000126750000000000000000000000100010010000000000000000000000F0010000008744300120160621000101 00000000000000000000000000000000000000000000000000000000000000000000000000000000000000000000000000000000000000000N 00000000000NCONT   00    00000000000          00000000000000000000000000000000000000000000 000000000000000A000000000000000000000000000000000000000000000 000000000000000000000000000000000000000     00000000                                                                                                                        000000000000000000
F0010000008744300002000089010952800041450500000000000000000201606210002001IND. LITOGRAF. BOSTON S.A.S.                      C000000111550000000000000000000000100010010000000000000000000000F0010000008744300220160621000101 00000000000000000000000000000000000000000000000000000000000000000000000000000000000000000000000000000000000000000N 00000000000NCONT   00    00000000000          00000000000000000000000000000000000000000000 000000000000000A000000000000000000000000000000000000000000000 000000000000000000000000000000000000000     00000000                                                                                                                        000000000000000000
F0010000008744300003000089010952800042505000000000000000000201606210002001IND. LITOGRAF. BOSTON S.A.S.                      C000000015200000000000000000000000100010010000000000000000000000F0010000008744300320160621000101 00000000000000000000000000000000000000000000000000000000000000000000000000000000000000000000000000000000000000000N 00000000000NCONT   00    00000000000          00000000000000000000000000000000000000000000 000000000000000A000000000000000000000000000000000000000000000 000000000000000000000000000000000000000     00000000                                                                                                                        000000000000000000
F0010000008744300004000089010952800023658300000000000000000201606210002001IND. LITOGRAF. BOSTON S.A.S.                      C000000000892400000000000000000000100010010000000000000000000000F0010000008744300420160621000101 00000000000000000000000000000000000000000000000000000000000000000000000000000000000000000000000000000000000000000N 00000000000NCONT   00    00000000000          00000000000000000000000000000000000000000000 000000000000000A000000000000000000000000000000000000000000000 000000000000000000000000000000000000000     00000000                                                                                                                        000000000000000000
F0010000008744300005000089010952800013552100000000000000000201606210002001IND. LITOGRAF. BOSTON S.A.S.                      D000000000892400000000000000000000100010010000000000000000000000F0010000008744300520160621000101 00000000000000000000000000000000000000000000000000000000000000000000000000000000000000000000000000000000000000000N 00000000000NCONT   00    00000000000          00000000000000000000000000000000000000000000 000000000000000A000000000000000000000000000000000000000000000 000000000000000000000000000000000000000     00000000                                                                                                                        000000000000000000
F0010000008744400001000007215896800013050500000000000000000201606210002001EDDIER CIRO                                       D000000056920700000000000000000000100010010000000000000000000000F0010000008744400120160621000101 00000000000000000000000000000000000000000000000000000000000000000000000000000000000000000000000000000000000000000N 00000000000NCONT   00    00000000000          00000000000000000000000000000000000000000000 000000000000000A000000000000000000000000000000000000000000000 000000000000000000000000000000000000000     00000000                                                                                                                        000000000000000000
F0010000008744400002000007215896800041450500000000000000000201606210002001EDDIER CIRO                                       C000000042850000000000000000000000100010010000000000000000000000F0010000008744400220160621000101 00000000000000000000000000000000000000000000000000000000000000000000000000000000000000000000000000000000000000000N 00000000000NCONT   00    00000000000          00000000000000000000000000000000000000000000 000000000000000A000000000000000000000000000000000000000000000 000000000000000000000000000000000000000     00000000                                                                                                                        000000000000000000
F0010000008744400003000007215896800042505000000000000000000201606210002001EDDIER CIRO                                       C000000014070700000000000000000000100010010000000000000000000000F0010000008744400320160621000101 00000000000000000000000000000000000000000000000000000000000000000000000000000000000000000000000000000000000000000N 00000000000NCONT   00    00000000000          00000000000000000000000000000000000000000000 000000000000000A000000000000000000000000000000000000000000000 000000000000000000000000000000000000000     00000000                                                                                                                        000000000000000000
F0010000008744400004000007215896800023658300000000000000000201606210002001EDDIER CIRO                                       C000000000342800000000000000000000100010010000000000000000000000F0010000008744400420160621000101 00000000000000000000000000000000000000000000000000000000000000000000000000000000000000000000000000000000000000000N 00000000000NCONT   00    00000000000          00000000000000000000000000000000000000000000 000000000000000A000000000000000000000000000000000000000000000 000000000000000000000000000000000000000     00000000                                                                                                                        000000000000000000
F0010000008744400005000007215896800013552100000000000000000201606210002001EDDIER CIRO                                       D000000000342800000000000000000000100010010000000000000000000000F0010000008744400520160621000101 00000000000000000000000000000000000000000000000000000000000000000000000000000000000000000000000000000000000000000N 00000000000NCONT   00    00000000000          00000000000000000000000000000000000000000000 000000000000000A000000000000000000000000000000000000000000000 000000000000000000000000000000000000000     00000000                                                                                                                        000000000000000000
F0010000008744500001000090040631000013050500000000000000000201606210002001BEINEX SAS                                        D000000022809600000000000000000000100010010000000000000000000000F0010000008744500120160621000101 00000000000000000000000000000000000000000000000000000000000000000000000000000000000000000000000000000000000000000N 00000000000NCONT   00    00000000000          00000000000000000000000000000000000000000000 000000000000000A000000000000000000000000000000000000000000000 000000000000000000000000000000000000000     00000000                                                                                                                        000000000000000000
F0010000008744500002000090040631000041450500000000000000000201606210002001BEINEX SAS                                        C000000023760000000000000000000000100010010000000000000000000000F0010000008744500220160621000101 00000000000000000000000000000000000000000000000000000000000000000000000000000000000000000000000000000000000000000N 00000000000NCONT   00    00000000000          00000000000000000000000000000000000000000000 000000000000000A000000000000000000000000000000000000000000000 000000000000000000000000000000000000000     00000000                                                                                                                        000000000000000000
F0010000008744500003000090040631000041750100000000000000000201606210002001BEINEX SAS                                        D000000000950400000000000000000000100010010000000000000000000000F0010000008744500320160621000101 00000000000000000000000000000000000000000000000000000000000000000000000000000000000000000000000000000000000000000N 00000000000NCONT   00    00000000000          00000000000000000000000000000000000000000000 000000000000000A000000000000000000000000000000000000000000000 000000000000000000000000000000000000000     00000000                                                                                                                        000000000000000000
F0010000008744500004000090040631000042505000000000000000000201606210002001BEINEX SAS                                        C000000000000000000000000000000000100010010000000000000000000000F0010000008744500420160621000101 00000000000000000000000000000000000000000000000000000000000000000000000000000000000000000000000000000000000000000N 00000000000NCONT   00    00000000000          00000000000000000000000000000000000000000000 000000000000000A000000000000000000000000000000000000000000000 000000000000000000000000000000000000000     00000000                                                                                                                        000000000000000000
F0010000008744500005000090040631000023658300000000000000000201606210002001BEINEX SAS                                        C000000000190100000000000000000000100010010000000000000000000000F0010000008744500520160621000101 00000000000000000000000000000000000000000000000000000000000000000000000000000000000000000000000000000000000000000N 00000000000NCONT   00    00000000000          00000000000000000000000000000000000000000000 000000000000000A000000000000000000000000000000000000000000000 000000000000000000000000000000000000000     00000000                                                                                                                        000000000000000000
F0010000008744500006000090040631000013552100000000000000000201606210002001BEINEX SAS                                        D000000000190100000000000000000000100010010000000000000000000000F0010000008744500620160621000101 00000000000000000000000000000000000000000000000000000000000000000000000000000000000000000000000000000000000000000N 00000000000NCONT   00    00000000000          00000000000000000000000000000000000000000000 000000000000000A000000000000000000000000000000000000000000000 000000000000000000000000000000000000000     00000000                                                                                                                        000000000000000000
F0010000008744600001000090044920600013050500000000000000000201606210002001QUATRO CARIBE SAS                                 D000000028780000000000000000000000100010010000000000000000000000F0010000008744600120160621000101 00000000000000000000000000000000000000000000000000000000000000000000000000000000000000000000000000000000000000000N 00000000000NCONT   00    00000000000          00000000000000000000000000000000000000000000 000000000000000A000000000000000000000000000000000000000000000 000000000000000000000000000000000000000     00000000                                                                                                                        000000000000000000
F0010000008744600002000090044920600041450500000000000000000201606210002001QUATRO CARIBE SAS                                 C000000023430000000000000000000000100010010000000000000000000000F0010000008744600220160621000101 00000000000000000000000000000000000000000000000000000000000000000000000000000000000000000000000000000000000000000N 00000000000NCONT   00    00000000000          00000000000000000000000000000000000000000000 000000000000000A000000000000000000000000000000000000000000000 000000000000000000000000000000000000000     00000000                                                                                                                        000000000000000000
F0010000008744600003000090044920600042505000000000000000000201606210002001QUATRO CARIBE SAS                                 C000000005350000000000000000000000100010010000000000000000000000F0010000008744600320160621000101 00000000000000000000000000000000000000000000000000000000000000000000000000000000000000000000000000000000000000000N 00000000000NCONT   00    00000000000          00000000000000000000000000000000000000000000 000000000000000A000000000000000000000000000000000000000000000 000000000000000000000000000000000000000     00000000                                                                                                                        000000000000000000
F0010000008744600004000090044920600023658300000000000000000201606210002001QUATRO CARIBE SAS                                 C000000000187400000000000000000000100010010000000000000000000000F0010000008744600420160621000101 00000000000000000000000000000000000000000000000000000000000000000000000000000000000000000000000000000000000000000N 00000000000NCONT   00    00000000000          00000000000000000000000000000000000000000000 000000000000000A000000000000000000000000000000000000000000000 000000000000000000000000000000000000000     00000000                                                                                                                        000000000000000000
F0010000008744600005000090044920600013552100000000000000000201606210002001QUATRO CARIBE SAS                                 D000000000187400000000000000000000100010010000000000000000000000F0010000008744600520160621000101 00000000000000000000000000000000000000000000000000000000000000000000000000000000000000000000000000000000000000000N 00000000000NCONT   00    00000000000          00000000000000000000000000000000000000000000 000000000000000A000000000000000000000000000000000000000000000 000000000000000000000000000000000000000     00000000                                                                                                                        000000000000000000
F0010000008744700001000083008772100013050500000000000000000201606210002001ILUMEC SAS                                        D000000044605000000000000000000000100010010000000000000000000000F0010000008744700120160621000101 00000000000000000000000000000000000000000000000000000000000000000000000000000000000000000000000000000000000000000N 00000000000NCONT   00    00000000000          00000000000000000000000000000000000000000000 000000000000000A000000000000000000000000000000000000000000000 000000000000000000000000000000000000000     00000000                                                                                                                        000000000000000000
F0010000008744700002000083008772100041450500000000000000000201606210002001ILUMEC SAS                                        C000000033880000000000000000000000100010010000000000000000000000F0010000008744700220160621000101 00000000000000000000000000000000000000000000000000000000000000000000000000000000000000000000000000000000000000000N 00000000000NCONT   00    00000000000          00000000000000000000000000000000000000000000 000000000000000A000000000000000000000000000000000000000000000 000000000000000000000000000000000000000     00000000                                                                                                                        000000000000000000
F0010000008744700003000083008772100042505000000000000000000201606210002001ILUMEC SAS                                        C000000010725000000000000000000000100010010000000000000000000000F0010000008744700320160621000101 00000000000000000000000000000000000000000000000000000000000000000000000000000000000000000000000000000000000000000N 00000000000NCONT   00    00000000000          00000000000000000000000000000000000000000000 000000000000000A000000000000000000000000000000000000000000000 000000000000000000000000000000000000000     00000000                                                                                                                        000000000000000000
F0010000008744700004000083008772100023658300000000000000000201606210002001ILUMEC SAS                                        C000000000271000000000000000000000100010010000000000000000000000F0010000008744700420160621000101 00000000000000000000000000000000000000000000000000000000000000000000000000000000000000000000000000000000000000000N 00000000000NCONT   00    00000000000          00000000000000000000000000000000000000000000 000000000000000A000000000000000000000000000000000000000000000 000000000000000000000000000000000000000     00000000                                                                                                                        000000000000000000
F0010000008744700005000083008772100013552100000000000000000201606210002001ILUMEC SAS                                        D000000000271000000000000000000000100010010000000000000000000000F0010000008744700520160621000101 00000000000000000000000000000000000000000000000000000000000000000000000000000000000000000000000000000000000000000N 00000000000NCONT   00    00000000000          00000000000000000000000000000000000000000000 000000000000000A000000000000000000000000000000000000000000000 000000000000000000000000000000000000000     00000000                                                                                                                        000000000000000000
F0010000008744800001000080202132300013050500000000000000000201606210002001SUM Y SERV DE LA COSTA LTDA                       D000000017175000000000000000000000100010010000000000000000000000F0010000008744800120160621000101 00000000000000000000000000000000000000000000000000000000000000000000000000000000000000000000000000000000000000000N 00000000000NCONT   00    00000000000          00000000000000000000000000000000000000000000 000000000000000A000000000000000000000000000000000000000000000 000000000000000000000000000000000000000     00000000                                                                                                                        000000000000000000
F0010000008744800002000080202132300041450500000000000000000201606210002001SUM Y SERV DE LA COSTA LTDA                       C000000015960000000000000000000000100010010000000000000000000000F0010000008744800220160621000101 00000000000000000000000000000000000000000000000000000000000000000000000000000000000000000000000000000000000000000N 00000000000NCONT   00    00000000000          00000000000000000000000000000000000000000000 000000000000000A000000000000000000000000000000000000000000000 000000000000000000000000000000000000000     00000000                                                                                                                        000000000000000000
F0010000008744800003000080202132300042505000000000000000000201606210002001SUM Y SERV DE LA COSTA LTDA                       C000000001215000000000000000000000100010010000000000000000000000F0010000008744800320160621000101 00000000000000000000000000000000000000000000000000000000000000000000000000000000000000000000000000000000000000000N 00000000000NCONT   00    00000000000          00000000000000000000000000000000000000000000 000000000000000A000000000000000000000000000000000000000000000 000000000000000000000000000000000000000     00000000                                                                                                                        000000000000000000
F0010000008744800004000080202132300023658300000000000000000201606210002001SUM Y SERV DE LA COSTA LTDA                       C000000000127700000000000000000000100010010000000000000000000000F0010000008744800420160621000101 00000000000000000000000000000000000000000000000000000000000000000000000000000000000000000000000000000000000000000N 00000000000NCONT   00    00000000000          00000000000000000000000000000000000000000000 000000000000000A000000000000000000000000000000000000000000000 000000000000000000000000000000000000000     00000000                                                                                                                        000000000000000000
F0010000008744800005000080202132300013552100000000000000000201606210002001SUM Y SERV DE LA COSTA LTDA                       D000000000127700000000000000000000100010010000000000000000000000F0010000008744800520160621000101 00000000000000000000000000000000000000000000000000000000000000000000000000000000000000000000000000000000000000000N 00000000000NCONT   00    00000000000          00000000000000000000000000000000000000000000 000000000000000A000000000000000000000000000000000000000000000 000000000000000000000000000000000000000     00000000                                                                                                                        000000000000000000
F0010000008744900001000090060531100013050500000000000000000201606210002001RECUBRIMIENTOS ESENCIALES SAS                     D000000043910000000000000000000000100010010000000000000000000000F0010000008744900120160621000101 00000000000000000000000000000000000000000000000000000000000000000000000000000000000000000000000000000000000000000N 00000000000NCONT   00    00000000000          00000000000000000000000000000000000000000000 000000000000000A000000000000000000000000000000000000000000000 000000000000000000000000000000000000000     00000000                                                                                                                        000000000000000000
F0010000008744900002000090060531100041450500000000000000000201606210002001RECUBRIMIENTOS ESENCIALES SAS                     C000000041160000000000000000000000100010010000000000000000000000F0010000008744900220160621000101 00000000000000000000000000000000000000000000000000000000000000000000000000000000000000000000000000000000000000000N 00000000000NCONT   00    00000000000          00000000000000000000000000000000000000000000 000000000000000A000000000000000000000000000000000000000000000 000000000000000000000000000000000000000     00000000                                                                                                                        000000000000000000
F0010000008744900003000090060531100042505000000000000000000201606210002001RECUBRIMIENTOS ESENCIALES SAS                     C000000002750000000000000000000000100010010000000000000000000000F0010000008744900320160621000101 00000000000000000000000000000000000000000000000000000000000000000000000000000000000000000000000000000000000000000N 00000000000NCONT   00    00000000000          00000000000000000000000000000000000000000000 000000000000000A000000000000000000000000000000000000000000000 000000000000000000000000000000000000000     00000000                                                                                                                        000000000000000000
F0010000008744900004000090060531100023658300000000000000000201606210002001RECUBRIMIENTOS ESENCIALES SAS                     C000000000329300000000000000000000100010010000000000000000000000F0010000008744900420160621000101 00000000000000000000000000000000000000000000000000000000000000000000000000000000000000000000000000000000000000000N 00000000000NCONT   00    00000000000          00000000000000000000000000000000000000000000 000000000000000A000000000000000000000000000000000000000000000 000000000000000000000000000000000000000     00000000                                                                                                                        000000000000000000
F0010000008744900005000090060531100013552100000000000000000201606210002001RECUBRIMIENTOS ESENCIALES SAS                     D000000000329300000000000000000000100010010000000000000000000000F0010000008744900520160621000101 00000000000000000000000000000000000000000000000000000000000000000000000000000000000000000000000000000000000000000N 00000000000NCONT   00    00000000000          00000000000000000000000000000000000000000000 000000000000000A000000000000000000000000000000000000000000000 000000000000000000000000000000000000000     00000000                                                                                                                        000000000000000000
F0010000008745000001000089080078800013050500000000000000000201606210002001SUMATEC S.A.                                      D000000036650900000000000000000000100010010000000000000000000000F0010000008745000120160621000101 00000000000000000000000000000000000000000000000000000000000000000000000000000000000000000000000000000000000000000N 00000000000NCONT   00    00000000000          00000000000000000000000000000000000000000000 000000000000000A000000000000000000000000000000000000000000000 000000000000000000000000000000000000000     00000000                                                                                                                        000000000000000000
F0010000008745000002000089080078800041450500000000000000000201606210002001SUMATEC S.A.                                      C000000026660000000000000000000000100010010000000000000000000000F0010000008745000220160621000101 00000000000000000000000000000000000000000000000000000000000000000000000000000000000000000000000000000000000000000N 00000000000NCONT   00    00000000000          00000000000000000000000000000000000000000000 000000000000000A000000000000000000000000000000000000000000000 000000000000000000000000000000000000000     00000000                                                                                                                        000000000000000000
F0010000008745000003000089080078800042505000000000000000000201606210002001SUMATEC S.A.                                      C000000009990900000000000000000000100010010000000000000000000000F0010000008745000320160621000101 00000000000000000000000000000000000000000000000000000000000000000000000000000000000000000000000000000000000000000N 00000000000NCONT   00    00000000000          00000000000000000000000000000000000000000000 000000000000000A000000000000000000000000000000000000000000000 000000000000000000000000000000000000000     00000000                                                                                                                        000000000000000000
F0010000008745000004000089080078800023658300000000000000000201606210002001SUMATEC S.A.                                      C000000000213300000000000000000000100010010000000000000000000000F0010000008745000420160621000101 00000000000000000000000000000000000000000000000000000000000000000000000000000000000000000000000000000000000000000N 00000000000NCONT   00    00000000000          00000000000000000000000000000000000000000000 000000000000000A000000000000000000000000000000000000000000000 000000000000000000000000000000000000000     00000000                                                                                                                        000000000000000000
F0010000008745000005000089080078800013552100000000000000000201606210002001SUMATEC S.A.                                      D000000000213300000000000000000000100010010000000000000000000000F0010000008745000520160621000101 00000000000000000000000000000000000000000000000000000000000000000000000000000000000000000000000000000000000000000N 00000000000NCONT   00    00000000000          00000000000000000000000000000000000000000000 000000000000000A000000000000000000000000000000000000000000000 000000000000000000000000000000000000000     00000000                                                                                                                        000000000000000000
F0010000008745100001000090064982900013050500000000000000000201606210002001DISDIES S.A.S                                     D000000064911600000000000000000000100010010000000000000000000000F0010000008745100120160621000101 00000000000000000000000000000000000000000000000000000000000000000000000000000000000000000000000000000000000000000N 00000000000NCONT   00    00000000000          00000000000000000000000000000000000000000000 000000000000000A000000000000000000000000000000000000000000000 000000000000000000000000000000000000000     00000000                                                                                                                        000000000000000000
F0010000008745100002000090064982900041450500000000000000000201606210002001DISDIES S.A.S                                     C000000055996600000000000000000000100010010000000000000000000000F0010000008745100220160621000101 00000000000000000000000000000000000000000000000000000000000000000000000000000000000000000000000000000000000000000N 00000000000NCONT   00    00000000000          00000000000000000000000000000000000000000000 000000000000000A000000000000000000000000000000000000000000000 000000000000000000000000000000000000000     00000000                                                                                                                        000000000000000000
F0010000008745100003000090064982900042505000000000000000000201606210002001DISDIES S.A.S                                     C000000008915000000000000000000000100010010000000000000000000000F0010000008745100320160621000101 00000000000000000000000000000000000000000000000000000000000000000000000000000000000000000000000000000000000000000N 00000000000NCONT   00    00000000000          00000000000000000000000000000000000000000000 000000000000000A000000000000000000000000000000000000000000000 000000000000000000000000000000000000000     00000000                                                                                                                        000000000000000000
F0010000008745100004000090064982900023658300000000000000000201606210002001DISDIES S.A.S                                     C000000000448000000000000000000000100010010000000000000000000000F0010000008745100420160621000101 00000000000000000000000000000000000000000000000000000000000000000000000000000000000000000000000000000000000000000N 00000000000NCONT   00    00000000000          00000000000000000000000000000000000000000000 000000000000000A000000000000000000000000000000000000000000000 000000000000000000000000000000000000000     00000000                                                                                                                        000000000000000000
F0010000008745100005000090064982900013552100000000000000000201606210002001DISDIES S.A.S                                     D000000000448000000000000000000000100010010000000000000000000000F0010000008745100520160621000101 00000000000000000000000000000000000000000000000000000000000000000000000000000000000000000000000000000000000000000N 00000000000NCONT   00    00000000000          00000000000000000000000000000000000000000000 000000000000000A000000000000000000000000000000000000000000000 000000000000000000000000000000000000000     00000000                                                                                                                        000000000000000000
F0010000008745200001000083011391400013050500000000000000000201606210002001INSTITUCIONAL STAR SERVICES LTDA                  D000000008160000000000000000000000100010010000000000000000000000F0010000008745200120160621000101 00000000000000000000000000000000000000000000000000000000000000000000000000000000000000000000000000000000000000000N 00000000000NCONT   00    00000000000          00000000000000000000000000000000000000000000 000000000000000A000000000000000000000000000000000000000000000 000000000000000000000000000000000000000     00000000                                                                                                                        000000000000000000
F0010000008745200002000083011391400041450500000000000000000201606210002001INSTITUCIONAL STAR SERVICES LTDA                  C000000007360000000000000000000000100010010000000000000000000000F0010000008745200220160621000101 00000000000000000000000000000000000000000000000000000000000000000000000000000000000000000000000000000000000000000N 00000000000NCONT   00    00000000000          00000000000000000000000000000000000000000000 000000000000000A000000000000000000000000000000000000000000000 000000000000000000000000000000000000000     00000000                                                                                                                        000000000000000000
F0010000008745200003000083011391400042505000000000000000000201606210002001INSTITUCIONAL STAR SERVICES LTDA                  C000000000800000000000000000000000100010010000000000000000000000F0010000008745200320160621000101 00000000000000000000000000000000000000000000000000000000000000000000000000000000000000000000000000000000000000000N 00000000000NCONT   00    00000000000          00000000000000000000000000000000000000000000 000000000000000A000000000000000000000000000000000000000000000 000000000000000000000000000000000000000     00000000                                                                                                                        000000000000000000
F0010000008745200004000083011391400023658300000000000000000201606210002001INSTITUCIONAL STAR SERVICES LTDA                  C000000000058900000000000000000000100010010000000000000000000000F0010000008745200420160621000101 00000000000000000000000000000000000000000000000000000000000000000000000000000000000000000000000000000000000000000N 00000000000NCONT   00    00000000000          00000000000000000000000000000000000000000000 000000000000000A000000000000000000000000000000000000000000000 000000000000000000000000000000000000000     00000000                                                                                                                        000000000000000000
F0010000008745200005000083011391400013552100000000000000000201606210002001INSTITUCIONAL STAR SERVICES LTDA                  D000000000058900000000000000000000100010010000000000000000000000F0010000008745200520160621000101 00000000000000000000000000000000000000000000000000000000000000000000000000000000000000000000000000000000000000000N 00000000000NCONT   00    00000000000          00000000000000000000000000000000000000000000 000000000000000A000000000000000000000000000000000000000000000 000000000000000000000000000000000000000     00000000                                                                                                                        000000000000000000
F0010000008745300001000080022903500013050500000000000000000201606210002001TECNOGLASS S.A                                    D000000090661800000000000000000000100010010000000000000000000000F0010000008745300120160621000101 00000000000000000000000000000000000000000000000000000000000000000000000000000000000000000000000000000000000000000N 00000000000NCONT   00    00000000000          00000000000000000000000000000000000000000000 000000000000000A000000000000000000000000000000000000000000000 000000000000000000000000000000000000000     00000000                                                                                                                        000000000000000000
F0010000008745300002000080022903500041450500000000000000000201606210002001TECNOGLASS S.A                                    C000000065750000000000000000000000100010010000000000000000000000F0010000008745300220160621000101 00000000000000000000000000000000000000000000000000000000000000000000000000000000000000000000000000000000000000000N 00000000000NCONT   00    00000000000          00000000000000000000000000000000000000000000 000000000000000A000000000000000000000000000000000000000000000 000000000000000000000000000000000000000     00000000                                                                                                                        000000000000000000
F0010000008745300003000080022903500042505000000000000000000201606210002001TECNOGLASS S.A                                    C000000024911800000000000000000000100010010000000000000000000000F0010000008745300320160621000101 00000000000000000000000000000000000000000000000000000000000000000000000000000000000000000000000000000000000000000N 00000000000NCONT   00    00000000000          00000000000000000000000000000000000000000000 000000000000000A000000000000000000000000000000000000000000000 000000000000000000000000000000000000000     00000000                                                                                                                        000000000000000000
F0010000008745300004000080022903500023658300000000000000000201606210002001TECNOGLASS S.A                                    C000000000526000000000000000000000100010010000000000000000000000F0010000008745300420160621000101 00000000000000000000000000000000000000000000000000000000000000000000000000000000000000000000000000000000000000000N 00000000000NCONT   00    00000000000          00000000000000000000000000000000000000000000 000000000000000A000000000000000000000000000000000000000000000 000000000000000000000000000000000000000     00000000                                                                                                                        000000000000000000
F0010000008745300005000080022903500013552100000000000000000201606210002001TECNOGLASS S.A                                    D000000000526000000000000000000000100010010000000000000000000000F0010000008745300520160621000101 00000000000000000000000000000000000000000000000000000000000000000000000000000000000000000000000000000000000000000N 00000000000NCONT   00    00000000000          00000000000000000000000000000000000000000000 000000000000000A000000000000000000000000000000000000000000000 000000000000000000000000000000000000000     00000000                                                                                                                        000000000000000000
F0010000008745400001000090009800500013050500000000000000000201606210002001GLORIANT CHEMICAL DE COLOMBIA LTDA                D000000024850000000000000000000000100010010000000000000000000000F0010000008745400120160621000101 00000000000000000000000000000000000000000000000000000000000000000000000000000000000000000000000000000000000000000N 00000000000NCONT   00    00000000000          00000000000000000000000000000000000000000000 000000000000000A000000000000000000000000000000000000000000000 000000000000000000000000000000000000000     00000000                                                                                                                        000000000000000000
F0010000008745400002000090009800500041450500000000000000000201606210002001GLORIANT CHEMICAL DE COLOMBIA LTDA                C000000020850000000000000000000000100010010000000000000000000000F0010000008745400220160621000101 00000000000000000000000000000000000000000000000000000000000000000000000000000000000000000000000000000000000000000N 00000000000NCONT   00    00000000000          00000000000000000000000000000000000000000000 000000000000000A000000000000000000000000000000000000000000000 000000000000000000000000000000000000000     00000000                                                                                                                        000000000000000000
F0010000008745400003000090009800500042505000000000000000000201606210002001GLORIANT CHEMICAL DE COLOMBIA LTDA                C000000004000000000000000000000000100010010000000000000000000000F0010000008745400320160621000101 00000000000000000000000000000000000000000000000000000000000000000000000000000000000000000000000000000000000000000N 00000000000NCONT   00    00000000000          00000000000000000000000000000000000000000000 000000000000000A000000000000000000000000000000000000000000000 000000000000000000000000000000000000000     00000000                                                                                                                        000000000000000000
F0010000008745400004000090009800500023658300000000000000000201606210002001GLORIANT CHEMICAL DE COLOMBIA LTDA                C000000000166800000000000000000000100010010000000000000000000000F0010000008745400420160621000101 00000000000000000000000000000000000000000000000000000000000000000000000000000000000000000000000000000000000000000N 00000000000NCONT   00    00000000000          00000000000000000000000000000000000000000000 000000000000000A000000000000000000000000000000000000000000000 000000000000000000000000000000000000000     00000000                                                                                                                        000000000000000000
F0010000008745400005000090009800500013552100000000000000000201606210002001GLORIANT CHEMICAL DE COLOMBIA LTDA                D000000000166800000000000000000000100010010000000000000000000000F0010000008745400520160621000101 00000000000000000000000000000000000000000000000000000000000000000000000000000000000000000000000000000000000000000N 00000000000NCONT   00    00000000000          00000000000000000000000000000000000000000000 000000000000000A000000000000000000000000000000000000000000000 000000000000000000000000000000000000000     00000000                                                                                                                        000000000000000000
F0010000008745500001000080200069100013050500000000000000000201606210002001PEGANTES Y PINTURAS ATLAS LTDA                    D000000032278400000000000000000000100010010000000000000000000000F0010000008745500120160621000101 00000000000000000000000000000000000000000000000000000000000000000000000000000000000000000000000000000000000000000N 00000000000NCONT   00    00000000000          00000000000000000000000000000000000000000000 000000000000000A000000000000000000000000000000000000000000000 000000000000000000000000000000000000000     00000000                                                                                                                        000000000000000000
F0010000008745500002000080200069100041450500000000000000000201606210002001PEGANTES Y PINTURAS ATLAS LTDA                    C000000027980000000000000000000000100010010000000000000000000000F0010000008745500220160621000101 00000000000000000000000000000000000000000000000000000000000000000000000000000000000000000000000000000000000000000N 00000000000NCONT   00    00000000000          00000000000000000000000000000000000000000000 000000000000000A000000000000000000000000000000000000000000000 000000000000000000000000000000000000000     00000000                                                                                                                        000000000000000000
F0010000008745500003000080200069100042505000000000000000000201606210002001PEGANTES Y PINTURAS ATLAS LTDA                    C000000004298400000000000000000000100010010000000000000000000000F0010000008745500320160621000101 00000000000000000000000000000000000000000000000000000000000000000000000000000000000000000000000000000000000000000N 00000000000NCONT   00    00000000000          00000000000000000000000000000000000000000000 000000000000000A000000000000000000000000000000000000000000000 000000000000000000000000000000000000000     00000000                                                                                                                        000000000000000000
