F0010000009907300001000000856527900011050500000000000000000201703120002001CESAR AUGUSTO MIER BUELVAS                        D000000001100000000000000000000000100010010000000000000000000000F0010000009907300120170312000101 00000000000000000000000000000000000000000000000000000000000000000000000000000000000000000000000000000000000000000N 00000000000NCONT   00    00000000000          00000000000000000000000000000000000000000000 000000000000000A000000000000000000000000000000000000000000000 000000000000000000000000000000000000000     00000000                                                                                                                        000000000000000000
F0010000009907300002000000856527900041450500000000000000000201703120002001CESAR AUGUSTO MIER BUELVAS                        C000000001000000000000000000000000100010010000000000000000000000F0010000009907300220170312000101 00000000000000000000000000000000000000000000000000000000000000000000000000000000000000000000000000000000000000000N 00000000000NCONT   00    00000000000          00000000000000000000000000000000000000000000 000000000000000A000000000000000000000000000000000000000000000 000000000000000000000000000000000000000     00000000                                                                                                                        000000000000000000
F0010000009907300003000000856527900042505000000000000000000201703120002001CESAR AUGUSTO MIER BUELVAS                        C000000000100000000000000000000000100010010000000000000000000000F0010000009907300320170312000101 00000000000000000000000000000000000000000000000000000000000000000000000000000000000000000000000000000000000000000N 00000000000NCONT   00    00000000000          00000000000000000000000000000000000000000000 000000000000000A000000000000000000000000000000000000000000000 000000000000000000000000000000000000000     00000000                                                                                                                        000000000000000000
F0010000009907300004000000856527900023658300000000000000000201703120002001CESAR AUGUSTO MIER BUELVAS                        C000000000008000000000000000000000100010010000000000000000000000F0010000009907300420170312000101 00000000000000000000000000000000000000000000000000000000000000000000000000000000000000000000000000000000000000000N 00000000000NCONT   00    00000000000          00000000000000000000000000000000000000000000 000000000000000A000000000000000000000000000000000000000000000 000000000000000000000000000000000000000     00000000                                                                                                                        000000000000000000
F0010000009907300005000000856527900013552100000000000000000201703120002001CESAR AUGUSTO MIER BUELVAS                        D000000000008000000000000000000000100010010000000000000000000000F0010000009907300520170312000101 00000000000000000000000000000000000000000000000000000000000000000000000000000000000000000000000000000000000000000N 00000000000NCONT   00    00000000000          00000000000000000000000000000000000000000000 000000000000000A000000000000000000000000000000000000000000000 000000000000000000000000000000000000000     00000000                                                                                                                        000000000000000000
