F0010000006031700001000090059316900013050500000000000000000201407160002001DISTRIBUCIONES Y REPRESENTACIONES MANA            D000000004716000000000000000000000100010010000000000000000000000F0010000006031700120140716000101 00000000000000000000000000000000000000000000000000000000000000000000000000000000000000000000000000000000000000000N 00000000000NCONT   00    00000000000          00000000000000000000000000000000000000000000 000000000000000A000000000000000000000000000000000000000000000 000000000000000000000000000000000000000     00000000                                                                                                                        000000000000000000
F0010000006031700002000090059316900041450500000000000000000201407160002001DISTRIBUCIONES Y REPRESENTACIONES MANA            C000000004120000000000000000000000100010010000000000000000000000F0010000006031700220140716000101 00000000000000000000000000000000000000000000000000000000000000000000000000000000000000000000000000000000000000000N 00000000000NCONT   00    00000000000          00000000000000000000000000000000000000000000 000000000000000A000000000000000000000000000000000000000000000 000000000000000000000000000000000000000     00000000                                                                                                                        000000000000000000
F0010000006031700003000090059316900042505000000000000000000201407160002001DISTRIBUCIONES Y REPRESENTACIONES MANA            C000000000596000000000000000000000100010010000000000000000000000F0010000006031700320140716000101 00000000000000000000000000000000000000000000000000000000000000000000000000000000000000000000000000000000000000000N 00000000000NCONT   00    00000000000          00000000000000000000000000000000000000000000 000000000000000A000000000000000000000000000000000000000000000 000000000000000000000000000000000000000     00000000                                                                                                                        000000000000000000
F0010000006031700004000090059316900023658300000000000000000201407160002001DISTRIBUCIONES Y REPRESENTACIONES MANA            C000000000033000000000000000000000100010010000000000000000000000F0010000006031700420140716000101 00000000000000000000000000000000000000000000000000000000000000000000000000000000000000000000000000000000000000000N 00000000000NCONT   00    00000000000          00000000000000000000000000000000000000000000 000000000000000A000000000000000000000000000000000000000000000 000000000000000000000000000000000000000     00000000                                                                                                                        000000000000000000
F0010000006031700005000090059316900013552100000000000000000201407160002001DISTRIBUCIONES Y REPRESENTACIONES MANA            D000000000033000000000000000000000100010010000000000000000000000F0010000006031700520140716000101 00000000000000000000000000000000000000000000000000000000000000000000000000000000000000000000000000000000000000000N 00000000000NCONT   00    00000000000          00000000000000000000000000000000000000000000 000000000000000A000000000000000000000000000000000000000000000 000000000000000000000000000000000000000     00000000                                                                                                                        000000000000000000
F0010000006031800001000089021246300013050500000000000000000201407160002001LUBRIGRAS S.A.                                    D000000002921400000000000000000000100010010000000000000000000000F0010000006031800120140716000101 00000000000000000000000000000000000000000000000000000000000000000000000000000000000000000000000000000000000000000N 00000000000NCONT   00    00000000000          00000000000000000000000000000000000000000000 000000000000000A000000000000000000000000000000000000000000000 000000000000000000000000000000000000000     00000000                                                                                                                        000000000000000000
F0010000006031800002000089021246300041450500000000000000000201407160002001LUBRIGRAS S.A.                                    C000000002560000000000000000000000100010010000000000000000000000F0010000006031800220140716000101 00000000000000000000000000000000000000000000000000000000000000000000000000000000000000000000000000000000000000000N 00000000000NCONT   00    00000000000          00000000000000000000000000000000000000000000 000000000000000A000000000000000000000000000000000000000000000 000000000000000000000000000000000000000     00000000                                                                                                                        000000000000000000
F0010000006031800003000089021246300042505000000000000000000201407160002001LUBRIGRAS S.A.                                    C000000000361400000000000000000000100010010000000000000000000000F0010000006031800320140716000101 00000000000000000000000000000000000000000000000000000000000000000000000000000000000000000000000000000000000000000N 00000000000NCONT   00    00000000000          00000000000000000000000000000000000000000000 000000000000000A000000000000000000000000000000000000000000000 000000000000000000000000000000000000000     00000000                                                                                                                        000000000000000000
F0010000006031800004000089021246300023658300000000000000000201407160002001LUBRIGRAS S.A.                                    C000000000020500000000000000000000100010010000000000000000000000F0010000006031800420140716000101 00000000000000000000000000000000000000000000000000000000000000000000000000000000000000000000000000000000000000000N 00000000000NCONT   00    00000000000          00000000000000000000000000000000000000000000 000000000000000A000000000000000000000000000000000000000000000 000000000000000000000000000000000000000     00000000                                                                                                                        000000000000000000
F0010000006031800005000089021246300013552100000000000000000201407160002001LUBRIGRAS S.A.                                    D000000000020500000000000000000000100010010000000000000000000000F0010000006031800520140716000101 00000000000000000000000000000000000000000000000000000000000000000000000000000000000000000000000000000000000000000N 00000000000NCONT   00    00000000000          00000000000000000000000000000000000000000000 000000000000000A000000000000000000000000000000000000000000000 000000000000000000000000000000000000000     00000000                                                                                                                        000000000000000000
F0010000006031900001000090036646700013050500000000000000000201407160002001FERREPROYECTOS S.A.S                              D000000009000000000000000000000000100010010000000000000000000000F0010000006031900120140716000101 00000000000000000000000000000000000000000000000000000000000000000000000000000000000000000000000000000000000000000N 00000000000NCONT   00    00000000000          00000000000000000000000000000000000000000000 000000000000000A000000000000000000000000000000000000000000000 000000000000000000000000000000000000000     00000000                                                                                                                        000000000000000000
F0010000006031900002000090036646700041450500000000000000000201407160002001FERREPROYECTOS S.A.S                              C000000008000000000000000000000000100010010000000000000000000000F0010000006031900220140716000101 00000000000000000000000000000000000000000000000000000000000000000000000000000000000000000000000000000000000000000N 00000000000NCONT   00    00000000000          00000000000000000000000000000000000000000000 000000000000000A000000000000000000000000000000000000000000000 000000000000000000000000000000000000000     00000000                                                                                                                        000000000000000000
F0010000006031900003000090036646700042505000000000000000000201407160002001FERREPROYECTOS S.A.S                              C000000001000000000000000000000000100010010000000000000000000000F0010000006031900320140716000101 00000000000000000000000000000000000000000000000000000000000000000000000000000000000000000000000000000000000000000N 00000000000NCONT   00    00000000000          00000000000000000000000000000000000000000000 000000000000000A000000000000000000000000000000000000000000000 000000000000000000000000000000000000000     00000000                                                                                                                        000000000000000000
F0010000006031900004000090036646700023658300000000000000000201407160002001FERREPROYECTOS S.A.S                              C000000000064000000000000000000000100010010000000000000000000000F0010000006031900420140716000101 00000000000000000000000000000000000000000000000000000000000000000000000000000000000000000000000000000000000000000N 00000000000NCONT   00    00000000000          00000000000000000000000000000000000000000000 000000000000000A000000000000000000000000000000000000000000000 000000000000000000000000000000000000000     00000000                                                                                                                        000000000000000000
F0010000006031900005000090036646700013552100000000000000000201407160002001FERREPROYECTOS S.A.S                              D000000000064000000000000000000000100010010000000000000000000000F0010000006031900520140716000101 00000000000000000000000000000000000000000000000000000000000000000000000000000000000000000000000000000000000000000N 00000000000NCONT   00    00000000000          00000000000000000000000000000000000000000000 000000000000000A000000000000000000000000000000000000000000000 000000000000000000000000000000000000000     00000000                                                                                                                        000000000000000000
F0010000006032000001000090049854300013050500000000000000000201407160002001TRAPOS INDUSTRIALES DE COLOMBIA SAS               D000000021049000000000000000000000100010010000000000000000000000F0010000006032000120140716000101 00000000000000000000000000000000000000000000000000000000000000000000000000000000000000000000000000000000000000000N 00000000000NCONT   00    00000000000          00000000000000000000000000000000000000000000 000000000000000A000000000000000000000000000000000000000000000 000000000000000000000000000000000000000     00000000                                                                                                                        000000000000000000
F0010000006032000002000090049854300041450500000000000000000201407160002001TRAPOS INDUSTRIALES DE COLOMBIA SAS               C000000019500000000000000000000000100010010000000000000000000000F0010000006032000220140716000101 00000000000000000000000000000000000000000000000000000000000000000000000000000000000000000000000000000000000000000N 00000000000NCONT   00    00000000000          00000000000000000000000000000000000000000000 000000000000000A000000000000000000000000000000000000000000000 000000000000000000000000000000000000000     00000000                                                                                                                        000000000000000000
F0010000006032000003000090049854300042505000000000000000000201407160002001TRAPOS INDUSTRIALES DE COLOMBIA SAS               C000000001549000000000000000000000100010010000000000000000000000F0010000006032000320140716000101 00000000000000000000000000000000000000000000000000000000000000000000000000000000000000000000000000000000000000000N 00000000000NCONT   00    00000000000          00000000000000000000000000000000000000000000 000000000000000A000000000000000000000000000000000000000000000 000000000000000000000000000000000000000     00000000                                                                                                                        000000000000000000
F0010000006032000004000090049854300023658300000000000000000201407160002001TRAPOS INDUSTRIALES DE COLOMBIA SAS               C000000000156000000000000000000000100010010000000000000000000000F0010000006032000420140716000101 00000000000000000000000000000000000000000000000000000000000000000000000000000000000000000000000000000000000000000N 00000000000NCONT   00    00000000000          00000000000000000000000000000000000000000000 000000000000000A000000000000000000000000000000000000000000000 000000000000000000000000000000000000000     00000000                                                                                                                        000000000000000000
F0010000006032000005000090049854300013552100000000000000000201407160002001TRAPOS INDUSTRIALES DE COLOMBIA SAS               D000000000156000000000000000000000100010010000000000000000000000F0010000006032000520140716000101 00000000000000000000000000000000000000000000000000000000000000000000000000000000000000000000000000000000000000000N 00000000000NCONT   00    00000000000          00000000000000000000000000000000000000000000 000000000000000A000000000000000000000000000000000000000000000 000000000000000000000000000000000000000     00000000                                                                                                                        000000000000000000
F0010000006032100001000090031658200013050500000000000000000201407160002001ABAOS S.A.S.                                      D000000033849100000000000000000000100010010000000000000000000000F0010000006032100120140716000101 00000000000000000000000000000000000000000000000000000000000000000000000000000000000000000000000000000000000000000N 00000000000NCONT   00    00000000000          00000000000000000000000000000000000000000000 000000000000000A000000000000000000000000000000000000000000000 000000000000000000000000000000000000000     00000000                                                                                                                        000000000000000000
F0010000006032100002000090031658200041450500000000000000000201407160002001ABAOS S.A.S.                                      C000000028140000000000000000000000100010010000000000000000000000F0010000006032100220140716000101 00000000000000000000000000000000000000000000000000000000000000000000000000000000000000000000000000000000000000000N 00000000000NCONT   00    00000000000          00000000000000000000000000000000000000000000 000000000000000A000000000000000000000000000000000000000000000 000000000000000000000000000000000000000     00000000                                                                                                                        000000000000000000
F0010000006032100003000090031658200042505000000000000000000201407160002001ABAOS S.A.S.                                      C000000005709100000000000000000000100010010000000000000000000000F0010000006032100320140716000101 00000000000000000000000000000000000000000000000000000000000000000000000000000000000000000000000000000000000000000N 00000000000NCONT   00    00000000000          00000000000000000000000000000000000000000000 000000000000000A000000000000000000000000000000000000000000000 000000000000000000000000000000000000000     00000000                                                                                                                        000000000000000000
F0010000006032100004000090031658200023658300000000000000000201407160002001ABAOS S.A.S.                                      C000000000225100000000000000000000100010010000000000000000000000F0010000006032100420140716000101 00000000000000000000000000000000000000000000000000000000000000000000000000000000000000000000000000000000000000000N 00000000000NCONT   00    00000000000          00000000000000000000000000000000000000000000 000000000000000A000000000000000000000000000000000000000000000 000000000000000000000000000000000000000     00000000                                                                                                                        000000000000000000
F0010000006032100005000090031658200013552100000000000000000201407160002001ABAOS S.A.S.                                      D000000000225100000000000000000000100010010000000000000000000000F0010000006032100520140716000101 00000000000000000000000000000000000000000000000000000000000000000000000000000000000000000000000000000000000000000N 00000000000NCONT   00    00000000000          00000000000000000000000000000000000000000000 000000000000000A000000000000000000000000000000000000000000000 000000000000000000000000000000000000000     00000000                                                                                                                        000000000000000000
F0010000006032200001000090008711200013050500000000000000000201407160002001PACKAGING SUPPLIERS S.A.                          D000000058341500000000000000000000100010010000000000000000000000F0010000006032200120140716000101 00000000000000000000000000000000000000000000000000000000000000000000000000000000000000000000000000000000000000000N 00000000000NCONT   00    00000000000          00000000000000000000000000000000000000000000 000000000000000A000000000000000000000000000000000000000000000 000000000000000000000000000000000000000     00000000                                                                                                                        000000000000000000
F0010000006032200002000090008711200041450500000000000000000201407160002001PACKAGING SUPPLIERS S.A.                          C000000055400000000000000000000000100010010000000000000000000000F0010000006032200220140716000101 00000000000000000000000000000000000000000000000000000000000000000000000000000000000000000000000000000000000000000N 00000000000NCONT   00    00000000000          00000000000000000000000000000000000000000000 000000000000000A000000000000000000000000000000000000000000000 000000000000000000000000000000000000000     00000000                                                                                                                        000000000000000000
F0010000006032200003000090008711200042505000000000000000000201407160002001PACKAGING SUPPLIERS S.A.                          C000000002941500000000000000000000100010010000000000000000000000F0010000006032200320140716000101 00000000000000000000000000000000000000000000000000000000000000000000000000000000000000000000000000000000000000000N 00000000000NCONT   00    00000000000          00000000000000000000000000000000000000000000 000000000000000A000000000000000000000000000000000000000000000 000000000000000000000000000000000000000     00000000                                                                                                                        000000000000000000
F0010000006032200004000090008711200023658300000000000000000201407160002001PACKAGING SUPPLIERS S.A.                          C000000000443200000000000000000000100010010000000000000000000000F0010000006032200420140716000101 00000000000000000000000000000000000000000000000000000000000000000000000000000000000000000000000000000000000000000N 00000000000NCONT   00    00000000000          00000000000000000000000000000000000000000000 000000000000000A000000000000000000000000000000000000000000000 000000000000000000000000000000000000000     00000000                                                                                                                        000000000000000000
F0010000006032200005000090008711200013552100000000000000000201407160002001PACKAGING SUPPLIERS S.A.                          D000000000443200000000000000000000100010010000000000000000000000F0010000006032200520140716000101 00000000000000000000000000000000000000000000000000000000000000000000000000000000000000000000000000000000000000000N 00000000000NCONT   00    00000000000          00000000000000000000000000000000000000000000 000000000000000A000000000000000000000000000000000000000000000 000000000000000000000000000000000000000     00000000                                                                                                                        000000000000000000
F0010000006032300001000080200250700013050500000000000000000201407160002001ETICOL SAS                                        D000000030750000000000000000000000100010010000000000000000000000F0010000006032300120140716000101 00000000000000000000000000000000000000000000000000000000000000000000000000000000000000000000000000000000000000000N 00000000000NCONT   00    00000000000          00000000000000000000000000000000000000000000 000000000000000A000000000000000000000000000000000000000000000 000000000000000000000000000000000000000     00000000                                                                                                                        000000000000000000
F0010000006032300002000080200250700041450500000000000000000201407160002001ETICOL SAS                                        C000000028750000000000000000000000100010010000000000000000000000F0010000006032300220140716000101 00000000000000000000000000000000000000000000000000000000000000000000000000000000000000000000000000000000000000000N 00000000000NCONT   00    00000000000          00000000000000000000000000000000000000000000 000000000000000A000000000000000000000000000000000000000000000 000000000000000000000000000000000000000     00000000                                                                                                                        000000000000000000
F0010000006032300003000080200250700042505000000000000000000201407160002001ETICOL SAS                                        C000000002000000000000000000000000100010010000000000000000000000F0010000006032300320140716000101 00000000000000000000000000000000000000000000000000000000000000000000000000000000000000000000000000000000000000000N 00000000000NCONT   00    00000000000          00000000000000000000000000000000000000000000 000000000000000A000000000000000000000000000000000000000000000 000000000000000000000000000000000000000     00000000                                                                                                                        000000000000000000
F0010000006032300004000080200250700023658300000000000000000201407160002001ETICOL SAS                                        C000000000230000000000000000000000100010010000000000000000000000F0010000006032300420140716000101 00000000000000000000000000000000000000000000000000000000000000000000000000000000000000000000000000000000000000000N 00000000000NCONT   00    00000000000          00000000000000000000000000000000000000000000 000000000000000A000000000000000000000000000000000000000000000 000000000000000000000000000000000000000     00000000                                                                                                                        000000000000000000
F0010000006032300005000080200250700013552100000000000000000201407160002001ETICOL SAS                                        D000000000230000000000000000000000100010010000000000000000000000F0010000006032300520140716000101 00000000000000000000000000000000000000000000000000000000000000000000000000000000000000000000000000000000000000000N 00000000000NCONT   00    00000000000          00000000000000000000000000000000000000000000 000000000000000A000000000000000000000000000000000000000000000 000000000000000000000000000000000000000     00000000                                                                                                                        000000000000000000
F0010000006032400001000090064982900013050500000000000000000201407160002001DISDIES S.A.S                                     D000000069226500000000000000000000100010010000000000000000000000F0010000006032400120140716000101 00000000000000000000000000000000000000000000000000000000000000000000000000000000000000000000000000000000000000000N 00000000000NCONT   00    00000000000          00000000000000000000000000000000000000000000 000000000000000A000000000000000000000000000000000000000000000 000000000000000000000000000000000000000     00000000                                                                                                                        000000000000000000
F0010000006032400002000090064982900041450500000000000000000201407160002001DISDIES S.A.S                                     C000000060848300000000000000000000100010010000000000000000000000F0010000006032400220140716000101 00000000000000000000000000000000000000000000000000000000000000000000000000000000000000000000000000000000000000000N 00000000000NCONT   00    00000000000          00000000000000000000000000000000000000000000 000000000000000A000000000000000000000000000000000000000000000 000000000000000000000000000000000000000     00000000                                                                                                                        000000000000000000
F0010000006032400003000090064982900042505000000000000000000201407160002001DISDIES S.A.S                                     C000000008378200000000000000000000100010010000000000000000000000F0010000006032400320140716000101 00000000000000000000000000000000000000000000000000000000000000000000000000000000000000000000000000000000000000000N 00000000000NCONT   00    00000000000          00000000000000000000000000000000000000000000 000000000000000A000000000000000000000000000000000000000000000 000000000000000000000000000000000000000     00000000                                                                                                                        000000000000000000
F0010000006032400004000090064982900023658300000000000000000201407160002001DISDIES S.A.S                                     C000000000486800000000000000000000100010010000000000000000000000F0010000006032400420140716000101 00000000000000000000000000000000000000000000000000000000000000000000000000000000000000000000000000000000000000000N 00000000000NCONT   00    00000000000          00000000000000000000000000000000000000000000 000000000000000A000000000000000000000000000000000000000000000 000000000000000000000000000000000000000     00000000                                                                                                                        000000000000000000
F0010000006032400005000090064982900013552100000000000000000201407160002001DISDIES S.A.S                                     D000000000486800000000000000000000100010010000000000000000000000F0010000006032400520140716000101 00000000000000000000000000000000000000000000000000000000000000000000000000000000000000000000000000000000000000000N 00000000000NCONT   00    00000000000          00000000000000000000000000000000000000000000 000000000000000A000000000000000000000000000000000000000000000 000000000000000000000000000000000000000     00000000                                                                                                                        000000000000000000
F0010000006032500001000090009800500013050500000000000000000201407160002001GLORIANT CHEMICAL DE COLOMBIA LTDA                D000000118745000000000000000000000100010010000000000000000000000F0010000006032500120140716000101 00000000000000000000000000000000000000000000000000000000000000000000000000000000000000000000000000000000000000000N 00000000000NCONT   00    00000000000          00000000000000000000000000000000000000000000 000000000000000A000000000000000000000000000000000000000000000 000000000000000000000000000000000000000     00000000                                                                                                                        000000000000000000
F0010000006032500002000090009800500041450500000000000000000201407160002001GLORIANT CHEMICAL DE COLOMBIA LTDA                C000000097800000000000000000000000100010010000000000000000000000F0010000006032500220140716000101 00000000000000000000000000000000000000000000000000000000000000000000000000000000000000000000000000000000000000000N 00000000000NCONT   00    00000000000          00000000000000000000000000000000000000000000 000000000000000A000000000000000000000000000000000000000000000 000000000000000000000000000000000000000     00000000                                                                                                                        000000000000000000
F0010000006032500003000090009800500042505000000000000000000201407160002001GLORIANT CHEMICAL DE COLOMBIA LTDA                C000000020945000000000000000000000100010010000000000000000000000F0010000006032500320140716000101 00000000000000000000000000000000000000000000000000000000000000000000000000000000000000000000000000000000000000000N 00000000000NCONT   00    00000000000          00000000000000000000000000000000000000000000 000000000000000A000000000000000000000000000000000000000000000 000000000000000000000000000000000000000     00000000                                                                                                                        000000000000000000
F0010000006032500004000090009800500023658300000000000000000201407160002001GLORIANT CHEMICAL DE COLOMBIA LTDA                C000000000782400000000000000000000100010010000000000000000000000F0010000006032500420140716000101 00000000000000000000000000000000000000000000000000000000000000000000000000000000000000000000000000000000000000000N 00000000000NCONT   00    00000000000          00000000000000000000000000000000000000000000 000000000000000A000000000000000000000000000000000000000000000 000000000000000000000000000000000000000     00000000                                                                                                                        000000000000000000
F0010000006032500005000090009800500013552100000000000000000201407160002001GLORIANT CHEMICAL DE COLOMBIA LTDA                D000000000782400000000000000000000100010010000000000000000000000F0010000006032500520140716000101 00000000000000000000000000000000000000000000000000000000000000000000000000000000000000000000000000000000000000000N 00000000000NCONT   00    00000000000          00000000000000000000000000000000000000000000 000000000000000A000000000000000000000000000000000000000000000 000000000000000000000000000000000000000     00000000                                                                                                                        000000000000000000
F0010000006032600001000090020547900011050500000000000000000201407160002001DAC DEL CARIBE S.A.S.                             D000000003900000000000000000000000100010010000000000000000000000F0010000006032600120140716000101 00000000000000000000000000000000000000000000000000000000000000000000000000000000000000000000000000000000000000000N 00000000000NCONT   00    00000000000          00000000000000000000000000000000000000000000 000000000000000A000000000000000000000000000000000000000000000 000000000000000000000000000000000000000     00000000                                                                                                                        000000000000000000
F0010000006032600002000090020547900041450500000000000000000201407160002001DAC DEL CARIBE S.A.S.                             C000000002400000000000000000000000100010010000000000000000000000F0010000006032600220140716000101 00000000000000000000000000000000000000000000000000000000000000000000000000000000000000000000000000000000000000000N 00000000000NCONT   00    00000000000          00000000000000000000000000000000000000000000 000000000000000A000000000000000000000000000000000000000000000 000000000000000000000000000000000000000     00000000                                                                                                                        000000000000000000
F0010000006032600003000090020547900042505000000000000000000201407160002001DAC DEL CARIBE S.A.S.                             C000000001500000000000000000000000100010010000000000000000000000F0010000006032600320140716000101 00000000000000000000000000000000000000000000000000000000000000000000000000000000000000000000000000000000000000000N 00000000000NCONT   00    00000000000          00000000000000000000000000000000000000000000 000000000000000A000000000000000000000000000000000000000000000 000000000000000000000000000000000000000     00000000                                                                                                                        000000000000000000
F0010000006032600004000090020547900023658300000000000000000201407160002001DAC DEL CARIBE S.A.S.                             C000000000019200000000000000000000100010010000000000000000000000F0010000006032600420140716000101 00000000000000000000000000000000000000000000000000000000000000000000000000000000000000000000000000000000000000000N 00000000000NCONT   00    00000000000          00000000000000000000000000000000000000000000 000000000000000A000000000000000000000000000000000000000000000 000000000000000000000000000000000000000     00000000                                                                                                                        000000000000000000
F0010000006032600005000090020547900013552100000000000000000201407160002001DAC DEL CARIBE S.A.S.                             D000000000019200000000000000000000100010010000000000000000000000F0010000006032600520140716000101 00000000000000000000000000000000000000000000000000000000000000000000000000000000000000000000000000000000000000000N 00000000000NCONT   00    00000000000          00000000000000000000000000000000000000000000 000000000000000A000000000000000000000000000000000000000000000 000000000000000000000000000000000000000     00000000                                                                                                                        000000000000000000
F0010000006032700001000090040928000013050500000000000000000201407160002001DISTRIBUCIONES FERRETERAS OTERO & AGUDELO SAS     D000000015234600000000000000000000100010010000000000000000000000F0010000006032700120140716000101 00000000000000000000000000000000000000000000000000000000000000000000000000000000000000000000000000000000000000000N 00000000000NCONT   00    00000000000          00000000000000000000000000000000000000000000 000000000000000A000000000000000000000000000000000000000000000 000000000000000000000000000000000000000     00000000                                                                                                                        000000000000000000
F0010000006032700002000090040928000041450500000000000000000201407160002001DISTRIBUCIONES FERRETERAS OTERO & AGUDELO SAS     C000000014046500000000000000000000100010010000000000000000000000F0010000006032700220140716000101 00000000000000000000000000000000000000000000000000000000000000000000000000000000000000000000000000000000000000000N 00000000000NCONT   00    00000000000          00000000000000000000000000000000000000000000 000000000000000A000000000000000000000000000000000000000000000 000000000000000000000000000000000000000     00000000                                                                                                                        000000000000000000
F0010000006032700003000090040928000042505000000000000000000201407160002001DISTRIBUCIONES FERRETERAS OTERO & AGUDELO SAS     C000000001188100000000000000000000100010010000000000000000000000F0010000006032700320140716000101 00000000000000000000000000000000000000000000000000000000000000000000000000000000000000000000000000000000000000000N 00000000000NCONT   00    00000000000          00000000000000000000000000000000000000000000 000000000000000A000000000000000000000000000000000000000000000 000000000000000000000000000000000000000     00000000                                                                                                                        000000000000000000
F0010000006032700004000090040928000023658300000000000000000201407160002001DISTRIBUCIONES FERRETERAS OTERO & AGUDELO SAS     C000000000112400000000000000000000100010010000000000000000000000F0010000006032700420140716000101 00000000000000000000000000000000000000000000000000000000000000000000000000000000000000000000000000000000000000000N 00000000000NCONT   00    00000000000          00000000000000000000000000000000000000000000 000000000000000A000000000000000000000000000000000000000000000 000000000000000000000000000000000000000     00000000                                                                                                                        000000000000000000
F0010000006032700005000090040928000013552100000000000000000201407160002001DISTRIBUCIONES FERRETERAS OTERO & AGUDELO SAS     D000000000112400000000000000000000100010010000000000000000000000F0010000006032700520140716000101 00000000000000000000000000000000000000000000000000000000000000000000000000000000000000000000000000000000000000000N 00000000000NCONT   00    00000000000          00000000000000000000000000000000000000000000 000000000000000A000000000000000000000000000000000000000000000 000000000000000000000000000000000000000     00000000                                                                                                                        000000000000000000
F0010000006032800001000080016664500013050500000000000000000201407160002001TELAPLAS PANCER SAS                               D000000027353000000000000000000000100010010000000000000000000000F0010000006032800120140716000101 00000000000000000000000000000000000000000000000000000000000000000000000000000000000000000000000000000000000000000N 00000000000NCONT   00    00000000000          00000000000000000000000000000000000000000000 000000000000000A000000000000000000000000000000000000000000000 000000000000000000000000000000000000000     00000000                                                                                                                        000000000000000000
F0010000006032800002000080016664500041450500000000000000000201407160002001TELAPLAS PANCER SAS                               C000000022280000000000000000000000100010010000000000000000000000F0010000006032800220140716000101 00000000000000000000000000000000000000000000000000000000000000000000000000000000000000000000000000000000000000000N 00000000000NCONT   00    00000000000          00000000000000000000000000000000000000000000 000000000000000A000000000000000000000000000000000000000000000 000000000000000000000000000000000000000     00000000                                                                                                                        000000000000000000
F0010000006032800003000080016664500042505000000000000000000201407160002001TELAPLAS PANCER SAS                               C000000005073000000000000000000000100010010000000000000000000000F0010000006032800320140716000101 00000000000000000000000000000000000000000000000000000000000000000000000000000000000000000000000000000000000000000N 00000000000NCONT   00    00000000000          00000000000000000000000000000000000000000000 000000000000000A000000000000000000000000000000000000000000000 000000000000000000000000000000000000000     00000000                                                                                                                        000000000000000000
F0010000006032800004000080016664500023658300000000000000000201407160002001TELAPLAS PANCER SAS                               C000000000178200000000000000000000100010010000000000000000000000F0010000006032800420140716000101 00000000000000000000000000000000000000000000000000000000000000000000000000000000000000000000000000000000000000000N 00000000000NCONT   00    00000000000          00000000000000000000000000000000000000000000 000000000000000A000000000000000000000000000000000000000000000 000000000000000000000000000000000000000     00000000                                                                                                                        000000000000000000
F0010000006032800005000080016664500013552100000000000000000201407160002001TELAPLAS PANCER SAS                               D000000000178200000000000000000000100010010000000000000000000000F0010000006032800520140716000101 00000000000000000000000000000000000000000000000000000000000000000000000000000000000000000000000000000000000000000N 00000000000NCONT   00    00000000000          00000000000000000000000000000000000000000000 000000000000000A000000000000000000000000000000000000000000000 000000000000000000000000000000000000000     00000000                                                                                                                        000000000000000000
F0010000006032900001000089010526900013050500000000000000000201407160002001DISTRIBUCIONES CANAL Y CIA S.A.S                  D000000008850500000000000000000000100010010000000000000000000000F0010000006032900120140716000101 00000000000000000000000000000000000000000000000000000000000000000000000000000000000000000000000000000000000000000N 00000000000NCONT   00    00000000000          00000000000000000000000000000000000000000000 000000000000000A000000000000000000000000000000000000000000000 000000000000000000000000000000000000000     00000000                                                                                                                        000000000000000000
F0010000006032900002000089010526900041450500000000000000000201407160002001DISTRIBUCIONES CANAL Y CIA S.A.S                  C000000006770000000000000000000000100010010000000000000000000000F0010000006032900220140716000101 00000000000000000000000000000000000000000000000000000000000000000000000000000000000000000000000000000000000000000N 00000000000NCONT   00    00000000000          00000000000000000000000000000000000000000000 000000000000000A000000000000000000000000000000000000000000000 000000000000000000000000000000000000000     00000000                                                                                                                        000000000000000000
F0010000006032900003000089010526900042505000000000000000000201407160002001DISTRIBUCIONES CANAL Y CIA S.A.S                  C000000002080500000000000000000000100010010000000000000000000000F0010000006032900320140716000101 00000000000000000000000000000000000000000000000000000000000000000000000000000000000000000000000000000000000000000N 00000000000NCONT   00    00000000000          00000000000000000000000000000000000000000000 000000000000000A000000000000000000000000000000000000000000000 000000000000000000000000000000000000000     00000000                                                                                                                        000000000000000000
F0010000006032900004000089010526900023658300000000000000000201407160002001DISTRIBUCIONES CANAL Y CIA S.A.S                  C000000000054200000000000000000000100010010000000000000000000000F0010000006032900420140716000101 00000000000000000000000000000000000000000000000000000000000000000000000000000000000000000000000000000000000000000N 00000000000NCONT   00    00000000000          00000000000000000000000000000000000000000000 000000000000000A000000000000000000000000000000000000000000000 000000000000000000000000000000000000000     00000000                                                                                                                        000000000000000000
F0010000006032900005000089010526900013552100000000000000000201407160002001DISTRIBUCIONES CANAL Y CIA S.A.S                  D000000000054200000000000000000000100010010000000000000000000000F0010000006032900520140716000101 00000000000000000000000000000000000000000000000000000000000000000000000000000000000000000000000000000000000000000N 00000000000NCONT   00    00000000000          00000000000000000000000000000000000000000000 000000000000000A000000000000000000000000000000000000000000000 000000000000000000000000000000000000000     00000000                                                                                                                        000000000000000000
F0010000006033000001000089080078800013050500000000000000000201407160002001SUMATEC S.A.                                      D000000008740000000000000000000000100010010000000000000000000000F0010000006033000120140716000101 00000000000000000000000000000000000000000000000000000000000000000000000000000000000000000000000000000000000000000N 00000000000NCONT   00    00000000000          00000000000000000000000000000000000000000000 000000000000000A000000000000000000000000000000000000000000000 000000000000000000000000000000000000000     00000000                                                                                                                        000000000000000000
F0010000006033000002000089080078800041450500000000000000000201407160002001SUMATEC S.A.                                      C000000006160000000000000000000000100010010000000000000000000000F0010000006033000220140716000101 00000000000000000000000000000000000000000000000000000000000000000000000000000000000000000000000000000000000000000N 00000000000NCONT   00    00000000000          00000000000000000000000000000000000000000000 000000000000000A000000000000000000000000000000000000000000000 000000000000000000000000000000000000000     00000000                                                                                                                        000000000000000000
F0010000006033000003000089080078800042505000000000000000000201407160002001SUMATEC S.A.                                      C000000002580000000000000000000000100010010000000000000000000000F0010000006033000320140716000101 00000000000000000000000000000000000000000000000000000000000000000000000000000000000000000000000000000000000000000N 00000000000NCONT   00    00000000000          00000000000000000000000000000000000000000000 000000000000000A000000000000000000000000000000000000000000000 000000000000000000000000000000000000000     00000000                                                                                                                        000000000000000000
F0010000006033000004000089080078800023658300000000000000000201407160002001SUMATEC S.A.                                      C000000000049300000000000000000000100010010000000000000000000000F0010000006033000420140716000101 00000000000000000000000000000000000000000000000000000000000000000000000000000000000000000000000000000000000000000N 00000000000NCONT   00    00000000000          00000000000000000000000000000000000000000000 000000000000000A000000000000000000000000000000000000000000000 000000000000000000000000000000000000000     00000000                                                                                                                        000000000000000000
F0010000006033000005000089080078800013552100000000000000000201407160002001SUMATEC S.A.                                      D000000000049300000000000000000000100010010000000000000000000000F0010000006033000520140716000101 00000000000000000000000000000000000000000000000000000000000000000000000000000000000000000000000000000000000000000N 00000000000NCONT   00    00000000000          00000000000000000000000000000000000000000000 000000000000000A000000000000000000000000000000000000000000000 000000000000000000000000000000000000000     00000000                                                                                                                        000000000000000000
F0010000006033100001000080002300200013050500000000000000000201407160002001DISREL S.A.                                       D000000006040000000000000000000000100010010000000000000000000000F0010000006033100120140716000101 00000000000000000000000000000000000000000000000000000000000000000000000000000000000000000000000000000000000000000N 00000000000NCONT   00    00000000000          00000000000000000000000000000000000000000000 000000000000000A000000000000000000000000000000000000000000000 000000000000000000000000000000000000000     00000000                                                                                                                        000000000000000000
F0010000006033100002000080002300200041450500000000000000000201407160002001DISREL S.A.                                       C000000006040000000000000000000000100010010000000000000000000000F0010000006033100220140716000101 00000000000000000000000000000000000000000000000000000000000000000000000000000000000000000000000000000000000000000N 00000000000NCONT   00    00000000000          00000000000000000000000000000000000000000000 000000000000000A000000000000000000000000000000000000000000000 000000000000000000000000000000000000000     00000000                                                                                                                        000000000000000000
F0010000006033100003000080002300200042505000000000000000000201407160002001DISREL S.A.                                       C000000000000000000000000000000000100010010000000000000000000000F0010000006033100320140716000101 00000000000000000000000000000000000000000000000000000000000000000000000000000000000000000000000000000000000000000N 00000000000NCONT   00    00000000000          00000000000000000000000000000000000000000000 000000000000000A000000000000000000000000000000000000000000000 000000000000000000000000000000000000000     00000000                                                                                                                        000000000000000000
F0010000006033100004000080002300200023658300000000000000000201407160002001DISREL S.A.                                       C000000000048300000000000000000000100010010000000000000000000000F0010000006033100420140716000101 00000000000000000000000000000000000000000000000000000000000000000000000000000000000000000000000000000000000000000N 00000000000NCONT   00    00000000000          00000000000000000000000000000000000000000000 000000000000000A000000000000000000000000000000000000000000000 000000000000000000000000000000000000000     00000000                                                                                                                        000000000000000000
F0010000006033100005000080002300200013552100000000000000000201407160002001DISREL S.A.                                       D000000000048300000000000000000000100010010000000000000000000000F0010000006033100520140716000101 00000000000000000000000000000000000000000000000000000000000000000000000000000000000000000000000000000000000000000N 00000000000NCONT   00    00000000000          00000000000000000000000000000000000000000000 000000000000000A000000000000000000000000000000000000000000000 000000000000000000000000000000000000000     00000000                                                                                                                        000000000000000000
F0010000006033200001000090020547900011050500000000000000000201407160002001DAC DEL CARIBE S.A.S.                             D000000001700000000000000000000000100010010000000000000000000000F0010000006033200120140716000101 00000000000000000000000000000000000000000000000000000000000000000000000000000000000000000000000000000000000000000N 00000000000NCONT   00    00000000000          00000000000000000000000000000000000000000000 000000000000000A000000000000000000000000000000000000000000000 000000000000000000000000000000000000000     00000000                                                                                                                        000000000000000000
F0010000006033200002000090020547900041450500000000000000000201407160002001DAC DEL CARIBE S.A.S.                             C000000001400000000000000000000000100010010000000000000000000000F0010000006033200220140716000101 00000000000000000000000000000000000000000000000000000000000000000000000000000000000000000000000000000000000000000N 00000000000NCONT   00    00000000000          00000000000000000000000000000000000000000000 000000000000000A000000000000000000000000000000000000000000000 000000000000000000000000000000000000000     00000000                                                                                                                        000000000000000000
F0010000006033200003000090020547900042505000000000000000000201407160002001DAC DEL CARIBE S.A.S.                             C000000000300000000000000000000000100010010000000000000000000000F0010000006033200320140716000101 00000000000000000000000000000000000000000000000000000000000000000000000000000000000000000000000000000000000000000N 00000000000NCONT   00    00000000000          00000000000000000000000000000000000000000000 000000000000000A000000000000000000000000000000000000000000000 000000000000000000000000000000000000000     00000000                                                                                                                        000000000000000000
F0010000006033200004000090020547900023658300000000000000000201407160002001DAC DEL CARIBE S.A.S.                             C000000000011200000000000000000000100010010000000000000000000000F0010000006033200420140716000101 00000000000000000000000000000000000000000000000000000000000000000000000000000000000000000000000000000000000000000N 00000000000NCONT   00    00000000000          00000000000000000000000000000000000000000000 000000000000000A000000000000000000000000000000000000000000000 000000000000000000000000000000000000000     00000000                                                                                                                        000000000000000000
F0010000006033200005000090020547900013552100000000000000000201407160002001DAC DEL CARIBE S.A.S.                             D000000000011200000000000000000000100010010000000000000000000000F0010000006033200520140716000101 00000000000000000000000000000000000000000000000000000000000000000000000000000000000000000000000000000000000000000N 00000000000NCONT   00    00000000000          00000000000000000000000000000000000000000000 000000000000000A000000000000000000000000000000000000000000000 000000000000000000000000000000000000000     00000000                                                                                                                        000000000000000000
F0010000006033300001000080019113900013050500000000000000000201407160002001COMERCIAL NOVAPEL LTDA                            D000000025900000000000000000000000100010010000000000000000000000F0010000006033300120140716000101 00000000000000000000000000000000000000000000000000000000000000000000000000000000000000000000000000000000000000000N 00000000000NCONT   00    00000000000          00000000000000000000000000000000000000000000 000000000000000A000000000000000000000000000000000000000000000 000000000000000000000000000000000000000     00000000                                                                                                                        000000000000000000
F0010000006033300002000080019113900041450500000000000000000201407160002001COMERCIAL NOVAPEL LTDA                            C000000023600000000000000000000000100010010000000000000000000000F0010000006033300220140716000101 00000000000000000000000000000000000000000000000000000000000000000000000000000000000000000000000000000000000000000N 00000000000NCONT   00    00000000000          00000000000000000000000000000000000000000000 000000000000000A000000000000000000000000000000000000000000000 000000000000000000000000000000000000000     00000000                                                                                                                        000000000000000000
F0010000006033300003000080019113900042505000000000000000000201407160002001COMERCIAL NOVAPEL LTDA                            C000000002300000000000000000000000100010010000000000000000000000F0010000006033300320140716000101 00000000000000000000000000000000000000000000000000000000000000000000000000000000000000000000000000000000000000000N 00000000000NCONT   00    00000000000          00000000000000000000000000000000000000000000 000000000000000A000000000000000000000000000000000000000000000 000000000000000000000000000000000000000     00000000                                                                                                                        000000000000000000
F0010000006033300004000080019113900023658300000000000000000201407160002001COMERCIAL NOVAPEL LTDA                            C000000000188800000000000000000000100010010000000000000000000000F0010000006033300420140716000101 00000000000000000000000000000000000000000000000000000000000000000000000000000000000000000000000000000000000000000N 00000000000NCONT   00    00000000000          00000000000000000000000000000000000000000000 000000000000000A000000000000000000000000000000000000000000000 000000000000000000000000000000000000000     00000000                                                                                                                        000000000000000000
F0010000006033300005000080019113900013552100000000000000000201407160002001COMERCIAL NOVAPEL LTDA                            D000000000188800000000000000000000100010010000000000000000000000F0010000006033300520140716000101 00000000000000000000000000000000000000000000000000000000000000000000000000000000000000000000000000000000000000000N 00000000000NCONT   00    00000000000          00000000000000000000000000000000000000000000 000000000000000A000000000000000000000000000000000000000000000 000000000000000000000000000000000000000     00000000                                                                                                                        000000000000000000
F0010000006033400001000090020547900011050500000000000000000201407160002001DAC DEL CARIBE S.A.S.                             D000000001700000000000000000000000100010010000000000000000000000F0010000006033400120140716000101 00000000000000000000000000000000000000000000000000000000000000000000000000000000000000000000000000000000000000000N 00000000000NCONT   00    00000000000          00000000000000000000000000000000000000000000 000000000000000A000000000000000000000000000000000000000000000 000000000000000000000000000000000000000     00000000                                                                                                                        000000000000000000
F0010000006033400002000090020547900041450500000000000000000201407160002001DAC DEL CARIBE S.A.S.                             C000000001400000000000000000000000100010010000000000000000000000F0010000006033400220140716000101 00000000000000000000000000000000000000000000000000000000000000000000000000000000000000000000000000000000000000000N 00000000000NCONT   00    00000000000          00000000000000000000000000000000000000000000 000000000000000A000000000000000000000000000000000000000000000 000000000000000000000000000000000000000     00000000                                                                                                                        000000000000000000
F0010000006033400003000090020547900042505000000000000000000201407160002001DAC DEL CARIBE S.A.S.                             C000000000300000000000000000000000100010010000000000000000000000F0010000006033400320140716000101 00000000000000000000000000000000000000000000000000000000000000000000000000000000000000000000000000000000000000000N 00000000000NCONT   00    00000000000          00000000000000000000000000000000000000000000 000000000000000A000000000000000000000000000000000000000000000 000000000000000000000000000000000000000     00000000                                                                                                                        000000000000000000
F0010000006033400004000090020547900023658300000000000000000201407160002001DAC DEL CARIBE S.A.S.                             C000000000011200000000000000000000100010010000000000000000000000F0010000006033400420140716000101 00000000000000000000000000000000000000000000000000000000000000000000000000000000000000000000000000000000000000000N 00000000000NCONT   00    00000000000          00000000000000000000000000000000000000000000 000000000000000A000000000000000000000000000000000000000000000 000000000000000000000000000000000000000     00000000                                                                                                                        000000000000000000
F0010000006033400005000090020547900013552100000000000000000201407160002001DAC DEL CARIBE S.A.S.                             D000000000011200000000000000000000100010010000000000000000000000F0010000006033400520140716000101 00000000000000000000000000000000000000000000000000000000000000000000000000000000000000000000000000000000000000000N 00000000000NCONT   00    00000000000          00000000000000000000000000000000000000000000 000000000000000A000000000000000000000000000000000000000000000 000000000000000000000000000000000000000     00000000                                                                                                                        000000000000000000
F0010000006033500001000000376399500013050500000000000000000201407160002001FORDPLAST                                         D000000008470000000000000000000000100010010000000000000000000000F0010000006033500120140716000101 00000000000000000000000000000000000000000000000000000000000000000000000000000000000000000000000000000000000000000N 00000000000NCONT   00    00000000000          00000000000000000000000000000000000000000000 000000000000000A000000000000000000000000000000000000000000000 000000000000000000000000000000000000000     00000000                                                                                                                        000000000000000000
F0010000006033500002000000376399500041450500000000000000000201407160002001FORDPLAST                                         C000000007370000000000000000000000100010010000000000000000000000F0010000006033500220140716000101 00000000000000000000000000000000000000000000000000000000000000000000000000000000000000000000000000000000000000000N 00000000000NCONT   00    00000000000          00000000000000000000000000000000000000000000 000000000000000A000000000000000000000000000000000000000000000 000000000000000000000000000000000000000     00000000                                                                                                                        000000000000000000
F0010000006033500003000000376399500042505000000000000000000201407160002001FORDPLAST                                         C000000001100000000000000000000000100010010000000000000000000000F0010000006033500320140716000101 00000000000000000000000000000000000000000000000000000000000000000000000000000000000000000000000000000000000000000N 00000000000NCONT   00    00000000000          00000000000000000000000000000000000000000000 000000000000000A000000000000000000000000000000000000000000000 000000000000000000000000000000000000000     00000000                                                                                                                        000000000000000000
F0010000006033500004000000376399500023658300000000000000000201407160002001FORDPLAST                                         C000000000059000000000000000000000100010010000000000000000000000F0010000006033500420140716000101 00000000000000000000000000000000000000000000000000000000000000000000000000000000000000000000000000000000000000000N 00000000000NCONT   00    00000000000          00000000000000000000000000000000000000000000 000000000000000A000000000000000000000000000000000000000000000 000000000000000000000000000000000000000     00000000                                                                                                                        000000000000000000
F0010000006033500005000000376399500013552100000000000000000201407160002001FORDPLAST                                         D000000000059000000000000000000000100010010000000000000000000000F0010000006033500520140716000101 00000000000000000000000000000000000000000000000000000000000000000000000000000000000000000000000000000000000000000N 00000000000NCONT   00    00000000000          00000000000000000000000000000000000000000000 000000000000000A000000000000000000000000000000000000000000000 000000000000000000000000000000000000000     00000000                                                                                                                        000000000000000000
F0010000006033600001000090020547900011050500000000000000000201407160002001DAC DEL CARIBE S.A.S.                             D000000001700000000000000000000000100010010000000000000000000000F0010000006033600120140716000101 00000000000000000000000000000000000000000000000000000000000000000000000000000000000000000000000000000000000000000N 00000000000NCONT   00    00000000000          00000000000000000000000000000000000000000000 000000000000000A000000000000000000000000000000000000000000000 000000000000000000000000000000000000000     00000000                                                                                                                        000000000000000000
F0010000006033600002000090020547900041450500000000000000000201407160002001DAC DEL CARIBE S.A.S.                             C000000001400000000000000000000000100010010000000000000000000000F0010000006033600220140716000101 00000000000000000000000000000000000000000000000000000000000000000000000000000000000000000000000000000000000000000N 00000000000NCONT   00    00000000000          00000000000000000000000000000000000000000000 000000000000000A000000000000000000000000000000000000000000000 000000000000000000000000000000000000000     00000000                                                                                                                        000000000000000000
F0010000006033600003000090020547900042505000000000000000000201407160002001DAC DEL CARIBE S.A.S.                             C000000000300000000000000000000000100010010000000000000000000000F0010000006033600320140716000101 00000000000000000000000000000000000000000000000000000000000000000000000000000000000000000000000000000000000000000N 00000000000NCONT   00    00000000000          00000000000000000000000000000000000000000000 000000000000000A000000000000000000000000000000000000000000000 000000000000000000000000000000000000000     00000000                                                                                                                        000000000000000000
F0010000006033600004000090020547900023658300000000000000000201407160002001DAC DEL CARIBE S.A.S.                             C000000000011200000000000000000000100010010000000000000000000000F0010000006033600420140716000101 00000000000000000000000000000000000000000000000000000000000000000000000000000000000000000000000000000000000000000N 00000000000NCONT   00    00000000000          00000000000000000000000000000000000000000000 000000000000000A000000000000000000000000000000000000000000000 000000000000000000000000000000000000000     00000000                                                                                                                        000000000000000000
F0010000006033600005000090020547900013552100000000000000000201407160002001DAC DEL CARIBE S.A.S.                             D000000000011200000000000000000000100010010000000000000000000000F0010000006033600520140716000101 00000000000000000000000000000000000000000000000000000000000000000000000000000000000000000000000000000000000000000N 00000000000NCONT   00    00000000000          00000000000000000000000000000000000000000000 000000000000000A000000000000000000000000000000000000000000000 000000000000000000000000000000000000000     00000000                                                                                                                        000000000000000000
F0010000006033700001000089070997800013050500000000000000000201407160002001CENTRAL DE TORNILLOS                              D000000012620000000000000000000000100010010000000000000000000000F0010000006033700120140716000101 00000000000000000000000000000000000000000000000000000000000000000000000000000000000000000000000000000000000000000N 00000000000NCONT   00    00000000000          00000000000000000000000000000000000000000000 000000000000000A000000000000000000000000000000000000000000000 000000000000000000000000000000000000000     00000000                                                                                                                        000000000000000000
F0010000006033700002000089070997800041450500000000000000000201407160002001CENTRAL DE TORNILLOS                              C000000011220000000000000000000000100010010000000000000000000000F0010000006033700220140716000101 00000000000000000000000000000000000000000000000000000000000000000000000000000000000000000000000000000000000000000N 00000000000NCONT   00    00000000000          00000000000000000000000000000000000000000000 000000000000000A000000000000000000000000000000000000000000000 000000000000000000000000000000000000000     00000000                                                                                                                        000000000000000000
F0010000006033700003000089070997800042505000000000000000000201407160002001CENTRAL DE TORNILLOS                              C000000001400000000000000000000000100010010000000000000000000000F0010000006033700320140716000101 00000000000000000000000000000000000000000000000000000000000000000000000000000000000000000000000000000000000000000N 00000000000NCONT   00    00000000000          00000000000000000000000000000000000000000000 000000000000000A000000000000000000000000000000000000000000000 000000000000000000000000000000000000000     00000000                                                                                                                        000000000000000000
F0010000006033700004000089070997800023658300000000000000000201407160002001CENTRAL DE TORNILLOS                              C000000000089800000000000000000000100010010000000000000000000000F0010000006033700420140716000101 00000000000000000000000000000000000000000000000000000000000000000000000000000000000000000000000000000000000000000N 00000000000NCONT   00    00000000000          00000000000000000000000000000000000000000000 000000000000000A000000000000000000000000000000000000000000000 000000000000000000000000000000000000000     00000000                                                                                                                        000000000000000000
F0010000006033700005000089070997800013552100000000000000000201407160002001CENTRAL DE TORNILLOS                              D000000000089800000000000000000000100010010000000000000000000000F0010000006033700520140716000101 00000000000000000000000000000000000000000000000000000000000000000000000000000000000000000000000000000000000000000N 00000000000NCONT   00    00000000000          00000000000000000000000000000000000000000000 000000000000000A000000000000000000000000000000000000000000000 000000000000000000000000000000000000000     00000000                                                                                                                        000000000000000000
F0010000006033800001000090020547900011050500000000000000000201407160002001DAC DEL CARIBE S.A.S.                             D000000002300000000000000000000000100010010000000000000000000000F0010000006033800120140716000101 00000000000000000000000000000000000000000000000000000000000000000000000000000000000000000000000000000000000000000N 00000000000NCONT   00    00000000000          00000000000000000000000000000000000000000000 000000000000000A000000000000000000000000000000000000000000000 000000000000000000000000000000000000000     00000000                                                                                                                        000000000000000000
F0010000006033800002000090020547900041450500000000000000000201407160002001DAC DEL CARIBE S.A.S.                             C000000001700000000000000000000000100010010000000000000000000000F0010000006033800220140716000101 00000000000000000000000000000000000000000000000000000000000000000000000000000000000000000000000000000000000000000N 00000000000NCONT   00    00000000000          00000000000000000000000000000000000000000000 000000000000000A000000000000000000000000000000000000000000000 000000000000000000000000000000000000000     00000000                                                                                                                        000000000000000000
F0010000006033800003000090020547900042505000000000000000000201407160002001DAC DEL CARIBE S.A.S.                             C000000000600000000000000000000000100010010000000000000000000000F0010000006033800320140716000101 00000000000000000000000000000000000000000000000000000000000000000000000000000000000000000000000000000000000000000N 00000000000NCONT   00    00000000000          00000000000000000000000000000000000000000000 000000000000000A000000000000000000000000000000000000000000000 000000000000000000000000000000000000000     00000000                                                                                                                        000000000000000000
F0010000006033800004000090020547900023658300000000000000000201407160002001DAC DEL CARIBE S.A.S.                             C000000000013600000000000000000000100010010000000000000000000000F0010000006033800420140716000101 00000000000000000000000000000000000000000000000000000000000000000000000000000000000000000000000000000000000000000N 00000000000NCONT   00    00000000000          00000000000000000000000000000000000000000000 000000000000000A000000000000000000000000000000000000000000000 000000000000000000000000000000000000000     00000000                                                                                                                        000000000000000000
F0010000006033800005000090020547900013552100000000000000000201407160002001DAC DEL CARIBE S.A.S.                             D000000000013600000000000000000000100010010000000000000000000000F0010000006033800520140716000101 00000000000000000000000000000000000000000000000000000000000000000000000000000000000000000000000000000000000000000N 00000000000NCONT   00    00000000000          00000000000000000000000000000000000000000000 000000000000000A000000000000000000000000000000000000000000000 000000000000000000000000000000000000000     00000000                                                                                                                        000000000000000000
F0010000006033900001000002258669400013050500000000000000000201407160002001YURY PAOLA  SANTAMARIA ..                         D000000018980500000000000000000000100010010000000000000000000000F0010000006033900120140716000101 00000000000000000000000000000000000000000000000000000000000000000000000000000000000000000000000000000000000000000N 00000000000NCONT   00    00000000000          00000000000000000000000000000000000000000000 000000000000000A000000000000000000000000000000000000000000000 000000000000000000000000000000000000000     00000000                                                                                                                        000000000000000000
F0010000006033900002000002258669400041450500000000000000000201407160002001YURY PAOLA  SANTAMARIA ..                         C000000015160000000000000000000000100010010000000000000000000000F0010000006033900220140716000101 00000000000000000000000000000000000000000000000000000000000000000000000000000000000000000000000000000000000000000N 00000000000NCONT   00    00000000000          00000000000000000000000000000000000000000000 000000000000000A000000000000000000000000000000000000000000000 000000000000000000000000000000000000000     00000000                                                                                                                        000000000000000000
F0010000006033900003000002258669400042505000000000000000000201407160002001YURY PAOLA  SANTAMARIA ..                         C000000003820500000000000000000000100010010000000000000000000000F0010000006033900320140716000101 00000000000000000000000000000000000000000000000000000000000000000000000000000000000000000000000000000000000000000N 00000000000NCONT   00    00000000000          00000000000000000000000000000000000000000000 000000000000000A000000000000000000000000000000000000000000000 000000000000000000000000000000000000000     00000000                                                                                                                        000000000000000000
F0010000006033900004000002258669400023658300000000000000000201407160002001YURY PAOLA  SANTAMARIA ..                         C000000000121300000000000000000000100010010000000000000000000000F0010000006033900420140716000101 00000000000000000000000000000000000000000000000000000000000000000000000000000000000000000000000000000000000000000N 00000000000NCONT   00    00000000000          00000000000000000000000000000000000000000000 000000000000000A000000000000000000000000000000000000000000000 000000000000000000000000000000000000000     00000000                                                                                                                        000000000000000000
F0010000006033900005000002258669400013552100000000000000000201407160002001YURY PAOLA  SANTAMARIA ..                         D000000000121300000000000000000000100010010000000000000000000000F0010000006033900520140716000101 00000000000000000000000000000000000000000000000000000000000000000000000000000000000000000000000000000000000000000N 00000000000NCONT   00    00000000000          00000000000000000000000000000000000000000000 000000000000000A000000000000000000000000000000000000000000000 000000000000000000000000000000000000000     00000000                                                                                                                        000000000000000000
F0010000006034000001000090020547900011050500000000000000000201407160002001DAC DEL CARIBE S.A.S.                             D000000005000000000000000000000000100010010000000000000000000000F0010000006034000120140716000101 00000000000000000000000000000000000000000000000000000000000000000000000000000000000000000000000000000000000000000N 00000000000NCONT   00    00000000000          00000000000000000000000000000000000000000000 000000000000000A000000000000000000000000000000000000000000000 000000000000000000000000000000000000000     00000000                                                                                                                        000000000000000000
F0010000006034000002000090020547900041450500000000000000000201407160002001DAC DEL CARIBE S.A.S.                             C000000004100000000000000000000000100010010000000000000000000000F0010000006034000220140716000101 00000000000000000000000000000000000000000000000000000000000000000000000000000000000000000000000000000000000000000N 00000000000NCONT   00    00000000000          00000000000000000000000000000000000000000000 000000000000000A000000000000000000000000000000000000000000000 000000000000000000000000000000000000000     00000000                                                                                                                        000000000000000000
F0010000006034000003000090020547900042505000000000000000000201407160002001DAC DEL CARIBE S.A.S.                             C000000000900000000000000000000000100010010000000000000000000000F0010000006034000320140716000101 00000000000000000000000000000000000000000000000000000000000000000000000000000000000000000000000000000000000000000N 00000000000NCONT   00    00000000000          00000000000000000000000000000000000000000000 000000000000000A000000000000000000000000000000000000000000000 000000000000000000000000000000000000000     00000000                                                                                                                        000000000000000000
F0010000006034000004000090020547900023658300000000000000000201407160002001DAC DEL CARIBE S.A.S.                             C000000000032800000000000000000000100010010000000000000000000000F0010000006034000420140716000101 00000000000000000000000000000000000000000000000000000000000000000000000000000000000000000000000000000000000000000N 00000000000NCONT   00    00000000000          00000000000000000000000000000000000000000000 000000000000000A000000000000000000000000000000000000000000000 000000000000000000000000000000000000000     00000000                                                                                                                        000000000000000000
F0010000006034000005000090020547900013552100000000000000000201407160002001DAC DEL CARIBE S.A.S.                             D000000000032800000000000000000000100010010000000000000000000000F0010000006034000520140716000101 00000000000000000000000000000000000000000000000000000000000000000000000000000000000000000000000000000000000000000N 00000000000NCONT   00    00000000000          00000000000000000000000000000000000000000000 000000000000000A000000000000000000000000000000000000000000000 000000000000000000000000000000000000000     00000000                                                                                                                        000000000000000000
F0010000006034100001000080200069100013050500000000000000000201407160002001PEGANTES Y PINTURAS ATLAS LTDA                    D000000003466300000000000000000000100010010000000000000000000000F0010000006034100120140716000101 00000000000000000000000000000000000000000000000000000000000000000000000000000000000000000000000000000000000000000N 00000000000NCONT   00    00000000000          00000000000000000000000000000000000000000000 000000000000000A000000000000000000000000000000000000000000000 000000000000000000000000000000000000000     00000000                                                                                                                        000000000000000000
F0010000006034100002000080200069100041450500000000000000000201407160002001PEGANTES Y PINTURAS ATLAS LTDA                    C000000003000000000000000000000000100010010000000000000000000000F0010000006034100220140716000101 00000000000000000000000000000000000000000000000000000000000000000000000000000000000000000000000000000000000000000N 00000000000NCONT   00    00000000000          00000000000000000000000000000000000000000000 000000000000000A000000000000000000000000000000000000000000000 000000000000000000000000000000000000000     00000000                                                                                                                        000000000000000000
F0010000006034100003000080200069100042505000000000000000000201407160002001PEGANTES Y PINTURAS ATLAS LTDA                    C000000000466300000000000000000000100010010000000000000000000000F0010000006034100320140716000101 00000000000000000000000000000000000000000000000000000000000000000000000000000000000000000000000000000000000000000N 00000000000NCONT   00    00000000000          00000000000000000000000000000000000000000000 000000000000000A000000000000000000000000000000000000000000000 000000000000000000000000000000000000000     00000000                                                                                                                        000000000000000000
F0010000006034100004000080200069100023658300000000000000000201407160002001PEGANTES Y PINTURAS ATLAS LTDA                    C000000000024000000000000000000000100010010000000000000000000000F0010000006034100420140716000101 00000000000000000000000000000000000000000000000000000000000000000000000000000000000000000000000000000000000000000N 00000000000NCONT   00    00000000000          00000000000000000000000000000000000000000000 000000000000000A000000000000000000000000000000000000000000000 000000000000000000000000000000000000000     00000000                                                                                                                        000000000000000000
F0010000006034100005000080200069100013552100000000000000000201407160002001PEGANTES Y PINTURAS ATLAS LTDA                    D000000000024000000000000000000000100010010000000000000000000000F0010000006034100520140716000101 00000000000000000000000000000000000000000000000000000000000000000000000000000000000000000000000000000000000000000N 00000000000NCONT   00    00000000000          00000000000000000000000000000000000000000000 000000000000000A000000000000000000000000000000000000000000000 000000000000000000000000000000000000000     00000000                                                                                                                        000000000000000000
F0010000006034200001000007215983800013050500000000000000000201407160002001INDUSTRIA  LAFERBE                                D000000001630000000000000000000000100010010000000000000000000000F0010000006034200120140716000101 00000000000000000000000000000000000000000000000000000000000000000000000000000000000000000000000000000000000000000N 00000000000NCONT   00    00000000000          00000000000000000000000000000000000000000000 000000000000000A000000000000000000000000000000000000000000000 000000000000000000000000000000000000000     00000000                                                                                                                        000000000000000000
F0010000006034200002000007215983800041450500000000000000000201407160002001INDUSTRIA  LAFERBE                                C000000001130000000000000000000000100010010000000000000000000000F0010000006034200220140716000101 00000000000000000000000000000000000000000000000000000000000000000000000000000000000000000000000000000000000000000N 00000000000NCONT   00    00000000000          00000000000000000000000000000000000000000000 000000000000000A000000000000000000000000000000000000000000000 000000000000000000000000000000000000000     00000000                                                                                                                        000000000000000000
F0010000006034200003000007215983800042505000000000000000000201407160002001INDUSTRIA  LAFERBE                                C000000000500000000000000000000000100010010000000000000000000000F0010000006034200320140716000101 00000000000000000000000000000000000000000000000000000000000000000000000000000000000000000000000000000000000000000N 00000000000NCONT   00    00000000000          00000000000000000000000000000000000000000000 000000000000000A000000000000000000000000000000000000000000000 000000000000000000000000000000000000000     00000000                                                                                                                        000000000000000000
F0010000006034200004000007215983800023658300000000000000000201407160002001INDUSTRIA  LAFERBE                                C000000000009000000000000000000000100010010000000000000000000000F0010000006034200420140716000101 00000000000000000000000000000000000000000000000000000000000000000000000000000000000000000000000000000000000000000N 00000000000NCONT   00    00000000000          00000000000000000000000000000000000000000000 000000000000000A000000000000000000000000000000000000000000000 000000000000000000000000000000000000000     00000000                                                                                                                        000000000000000000
F0010000006034200005000007215983800013552100000000000000000201407160002001INDUSTRIA  LAFERBE                                D000000000009000000000000000000000100010010000000000000000000000F0010000006034200520140716000101 00000000000000000000000000000000000000000000000000000000000000000000000000000000000000000000000000000000000000000N 00000000000NCONT   00    00000000000          00000000000000000000000000000000000000000000 000000000000000A000000000000000000000000000000000000000000000 000000000000000000000000000000000000000     00000000                                                                                                                        000000000000000000
F0010000006034300001000002245670100013050500000000000000000201407160002001YOLANDA  TOBON                                    D000000015682700000000000000000000100010010000000000000000000000F0010000006034300120140716000101 00000000000000000000000000000000000000000000000000000000000000000000000000000000000000000000000000000000000000000N 00000000000NCONT   00    00000000000          00000000000000000000000000000000000000000000 000000000000000A000000000000000000000000000000000000000000000 000000000000000000000000000000000000000     00000000                                                                                                                        000000000000000000
F0010000006034300002000002245670100041450500000000000000000201407160002001YOLANDA  TOBON                                    C000000013500000000000000000000000100010010000000000000000000000F0010000006034300220140716000101 00000000000000000000000000000000000000000000000000000000000000000000000000000000000000000000000000000000000000000N 00000000000NCONT   00    00000000000          00000000000000000000000000000000000000000000 000000000000000A000000000000000000000000000000000000000000000 000000000000000000000000000000000000000     00000000                                                                                                                        000000000000000000
F0010000006034300003000002245670100042505000000000000000000201407160002001YOLANDA  TOBON                                    C000000002182700000000000000000000100010010000000000000000000000F0010000006034300320140716000101 00000000000000000000000000000000000000000000000000000000000000000000000000000000000000000000000000000000000000000N 00000000000NCONT   00    00000000000          00000000000000000000000000000000000000000000 000000000000000A000000000000000000000000000000000000000000000 000000000000000000000000000000000000000     00000000                                                                                                                        000000000000000000
F0010000006034300004000002245670100023658300000000000000000201407160002001YOLANDA  TOBON                                    C000000000108000000000000000000000100010010000000000000000000000F0010000006034300420140716000101 00000000000000000000000000000000000000000000000000000000000000000000000000000000000000000000000000000000000000000N 00000000000NCONT   00    00000000000          00000000000000000000000000000000000000000000 000000000000000A000000000000000000000000000000000000000000000 000000000000000000000000000000000000000     00000000                                                                                                                        000000000000000000
F0010000006034300005000002245670100013552100000000000000000201407160002001YOLANDA  TOBON                                    D000000000108000000000000000000000100010010000000000000000000000F0010000006034300520140716000101 00000000000000000000000000000000000000000000000000000000000000000000000000000000000000000000000000000000000000000N 00000000000NCONT   00    00000000000          00000000000000000000000000000000000000000000 000000000000000A000000000000000000000000000000000000000000000 000000000000000000000000000000000000000     00000000                                                                                                                        000000000000000000
F0010000006034400001000080200225800013050500000000000000000201407160002001PERF. TECNICOS DE LA COSTA S.A.S                  D000000016015000000000000000000000100010010000000000000000000000F0010000006034400120140716000101 00000000000000000000000000000000000000000000000000000000000000000000000000000000000000000000000000000000000000000N 00000000000NCONT   00    00000000000          00000000000000000000000000000000000000000000 000000000000000A000000000000000000000000000000000000000000000 000000000000000000000000000000000000000     00000000                                                                                                                        000000000000000000
F0010000006034400002000080200225800041450500000000000000000201407160002001PERF. TECNICOS DE LA COSTA S.A.S                  C000000013639000000000000000000000100010010000000000000000000000F0010000006034400220140716000101 00000000000000000000000000000000000000000000000000000000000000000000000000000000000000000000000000000000000000000N 00000000000NCONT   00    00000000000          00000000000000000000000000000000000000000000 000000000000000A000000000000000000000000000000000000000000000 000000000000000000000000000000000000000     00000000                                                                                                                        000000000000000000
F0010000006034400003000080200225800042505000000000000000000201407160002001PERF. TECNICOS DE LA COSTA S.A.S                  C000000002376000000000000000000000100010010000000000000000000000F0010000006034400320140716000101 00000000000000000000000000000000000000000000000000000000000000000000000000000000000000000000000000000000000000000N 00000000000NCONT   00    00000000000          00000000000000000000000000000000000000000000 000000000000000A000000000000000000000000000000000000000000000 000000000000000000000000000000000000000     00000000                                                                                                                        000000000000000000
F0010000006034400004000080200225800023658300000000000000000201407160002001PERF. TECNICOS DE LA COSTA S.A.S                  C000000000109100000000000000000000100010010000000000000000000000F0010000006034400420140716000101 00000000000000000000000000000000000000000000000000000000000000000000000000000000000000000000000000000000000000000N 00000000000NCONT   00    00000000000          00000000000000000000000000000000000000000000 000000000000000A000000000000000000000000000000000000000000000 000000000000000000000000000000000000000     00000000                                                                                                                        000000000000000000
F0010000006034400005000080200225800013552100000000000000000201407160002001PERF. TECNICOS DE LA COSTA S.A.S                  D000000000109100000000000000000000100010010000000000000000000000F0010000006034400520140716000101 00000000000000000000000000000000000000000000000000000000000000000000000000000000000000000000000000000000000000000N 00000000000NCONT   00    00000000000          00000000000000000000000000000000000000000000 000000000000000A000000000000000000000000000000000000000000000 000000000000000000000000000000000000000     00000000                                                                                                                        000000000000000000
F0010000006034500001000080016665600013050500000000000000000201407160002001SUMICAL DE ANTIOQUIA S.A.S                        D000000058074000000000000000000000100010010000000000000000000000F0010000006034500120140716000101 00000000000000000000000000000000000000000000000000000000000000000000000000000000000000000000000000000000000000000N 00000000000NCONT   00    00000000000          00000000000000000000000000000000000000000000 000000000000000A000000000000000000000000000000000000000000000 000000000000000000000000000000000000000     00000000                                                                                                                        000000000000000000
F0010000006034500002000080016665600041450500000000000000000201407160002001SUMICAL DE ANTIOQUIA S.A.S                        C000000049990000000000000000000000100010010000000000000000000000F0010000006034500220140716000101 00000000000000000000000000000000000000000000000000000000000000000000000000000000000000000000000000000000000000000N 00000000000NCONT   00    00000000000          00000000000000000000000000000000000000000000 000000000000000A000000000000000000000000000000000000000000000 000000000000000000000000000000000000000     00000000                                                                                                                        000000000000000000
F0010000006034500003000080016665600042505000000000000000000201407160002001SUMICAL DE ANTIOQUIA S.A.S                        C000000008084000000000000000000000100010010000000000000000000000F0010000006034500320140716000101 00000000000000000000000000000000000000000000000000000000000000000000000000000000000000000000000000000000000000000N 00000000000NCONT   00    00000000000          00000000000000000000000000000000000000000000 000000000000000A000000000000000000000000000000000000000000000 000000000000000000000000000000000000000     00000000                                                                                                                        000000000000000000
F0010000006034500004000080016665600023658300000000000000000201407160002001SUMICAL DE ANTIOQUIA S.A.S                        C000000000399900000000000000000000100010010000000000000000000000F0010000006034500420140716000101 00000000000000000000000000000000000000000000000000000000000000000000000000000000000000000000000000000000000000000N 00000000000NCONT   00    00000000000          00000000000000000000000000000000000000000000 000000000000000A000000000000000000000000000000000000000000000 000000000000000000000000000000000000000     00000000                                                                                                                        000000000000000000
F0010000006034500005000080016665600013552100000000000000000201407160002001SUMICAL DE ANTIOQUIA S.A.S                        D000000000399900000000000000000000100010010000000000000000000000F0010000006034500520140716000101 00000000000000000000000000000000000000000000000000000000000000000000000000000000000000000000000000000000000000000N 00000000000NCONT   00    00000000000          00000000000000000000000000000000000000000000 000000000000000A000000000000000000000000000000000000000000000 000000000000000000000000000000000000000     00000000                                                                                                                        000000000000000000
F0010000006034600001000000748239700013050500000000000000000201407160002001RAFAEL NAVARRO URIBE                              D000000104526500000000000000000000100010010000000000000000000000F0010000006034600120140716000101 00000000000000000000000000000000000000000000000000000000000000000000000000000000000000000000000000000000000000000N 00000000000NCONT   00    00000000000          00000000000000000000000000000000000000000000 000000000000000A000000000000000000000000000000000000000000000 000000000000000000000000000000000000000     00000000                                                                                                                        000000000000000000
F0010000006034600002000000748239700041450500000000000000000201407160002001RAFAEL NAVARRO URIBE                              C000000078900000000000000000000000100010010000000000000000000000F0010000006034600220140716000101 00000000000000000000000000000000000000000000000000000000000000000000000000000000000000000000000000000000000000000N 00000000000NCONT   00    00000000000          00000000000000000000000000000000000000000000 000000000000000A000000000000000000000000000000000000000000000 000000000000000000000000000000000000000     00000000                                                                                                                        000000000000000000
