F0010000005793400001000086004413600011050500000000000000000201405090002001ESPAñOLA S.A.                                    D000000003500000000000000000000000100010010000000000000000000000F0010000005793400120140509000101 00000000000000000000000000000000000000000000000000000000000000000000000000000000000000000000000000000000000000000N 00000000000NCONT   00    00000000000          00000000000000000000000000000000000000000000 000000000000000A000000000000000000000000000000000000000000000 000000000000000000000000000000000000000     00000000                                                                                                                        000000000000000000
F0010000005793400002000086004413600041450500000000000000000201405090002001ESPAñOLA S.A.                                    C000000003100000000000000000000000100010010000000000000000000000F0010000005793400220140509000101 00000000000000000000000000000000000000000000000000000000000000000000000000000000000000000000000000000000000000000N 00000000000NCONT   00    00000000000          00000000000000000000000000000000000000000000 000000000000000A000000000000000000000000000000000000000000000 000000000000000000000000000000000000000     00000000                                                                                                                        000000000000000000
F0010000005793400003000086004413600042505000000000000000000201405090002001ESPAñOLA S.A.                                    C000000000400000000000000000000000100010010000000000000000000000F0010000005793400320140509000101 00000000000000000000000000000000000000000000000000000000000000000000000000000000000000000000000000000000000000000N 00000000000NCONT   00    00000000000          00000000000000000000000000000000000000000000 000000000000000A000000000000000000000000000000000000000000000 000000000000000000000000000000000000000     00000000                                                                                                                        000000000000000000
F0010000005793400004000086004413600023658300000000000000000201405090002001ESPAñOLA S.A.                                    C000000000024800000000000000000000100010010000000000000000000000F0010000005793400420140509000101 00000000000000000000000000000000000000000000000000000000000000000000000000000000000000000000000000000000000000000N 00000000000NCONT   00    00000000000          00000000000000000000000000000000000000000000 000000000000000A000000000000000000000000000000000000000000000 000000000000000000000000000000000000000     00000000                                                                                                                        000000000000000000
F0010000005793400005000086004413600013552100000000000000000201405090002001ESPAñOLA S.A.                                    D000000000024800000000000000000000100010010000000000000000000000F0010000005793400520140509000101 00000000000000000000000000000000000000000000000000000000000000000000000000000000000000000000000000000000000000000N 00000000000NCONT   00    00000000000          00000000000000000000000000000000000000000000 000000000000000A000000000000000000000000000000000000000000000 000000000000000000000000000000000000000     00000000                                                                                                                        000000000000000000
F0010000005793500001000007204098400011050500000000000000000201405090002001SERGIO RIPPE MEJIA                                D000000009000000000000000000000000100010010000000000000000000000F0010000005793500120140509000101 00000000000000000000000000000000000000000000000000000000000000000000000000000000000000000000000000000000000000000N 00000000000NCONT   00    00000000000          00000000000000000000000000000000000000000000 000000000000000A000000000000000000000000000000000000000000000 000000000000000000000000000000000000000     00000000                                                                                                                        000000000000000000
F0010000005793500002000007204098400041450500000000000000000201405090002001SERGIO RIPPE MEJIA                                C000000008600000000000000000000000100010010000000000000000000000F0010000005793500220140509000101 00000000000000000000000000000000000000000000000000000000000000000000000000000000000000000000000000000000000000000N 00000000000NCONT   00    00000000000          00000000000000000000000000000000000000000000 000000000000000A000000000000000000000000000000000000000000000 000000000000000000000000000000000000000     00000000                                                                                                                        000000000000000000
F0010000005793500003000007204098400042505000000000000000000201405090002001SERGIO RIPPE MEJIA                                C000000000400000000000000000000000100010010000000000000000000000F0010000005793500320140509000101 00000000000000000000000000000000000000000000000000000000000000000000000000000000000000000000000000000000000000000N 00000000000NCONT   00    00000000000          00000000000000000000000000000000000000000000 000000000000000A000000000000000000000000000000000000000000000 000000000000000000000000000000000000000     00000000                                                                                                                        000000000000000000
F0010000005793500004000007204098400023658300000000000000000201405090002001SERGIO RIPPE MEJIA                                C000000000068800000000000000000000100010010000000000000000000000F0010000005793500420140509000101 00000000000000000000000000000000000000000000000000000000000000000000000000000000000000000000000000000000000000000N 00000000000NCONT   00    00000000000          00000000000000000000000000000000000000000000 000000000000000A000000000000000000000000000000000000000000000 000000000000000000000000000000000000000     00000000                                                                                                                        000000000000000000
F0010000005793500005000007204098400013552100000000000000000201405090002001SERGIO RIPPE MEJIA                                D000000000068800000000000000000000100010010000000000000000000000F0010000005793500520140509000101 00000000000000000000000000000000000000000000000000000000000000000000000000000000000000000000000000000000000000000N 00000000000NCONT   00    00000000000          00000000000000000000000000000000000000000000 000000000000000A000000000000000000000000000000000000000000000 000000000000000000000000000000000000000     00000000                                                                                                                        000000000000000000
F0010000005793600001000086000089600013050500000000000000000201405090002001SIKA COLOMBIA S.A.                                D000000082057400000000000000000000100010010000000000000000000000F0010000005793600120140509000101 00000000000000000000000000000000000000000000000000000000000000000000000000000000000000000000000000000000000000000N 00000000000NCONT   00    00000000000          00000000000000000000000000000000000000000000 000000000000000A000000000000000000000000000000000000000000000 000000000000000000000000000000000000000     00000000                                                                                                                        000000000000000000
F0010000005793600002000086000089600041450500000000000000000201405090002001SIKA COLOMBIA S.A.                                C000000080000000000000000000000000100010010000000000000000000000F0010000005793600220140509000101 00000000000000000000000000000000000000000000000000000000000000000000000000000000000000000000000000000000000000000N 00000000000NCONT   00    00000000000          00000000000000000000000000000000000000000000 000000000000000A000000000000000000000000000000000000000000000 000000000000000000000000000000000000000     00000000                                                                                                                        000000000000000000
F0010000005793600003000086000089600042505000000000000000000201405090002001SIKA COLOMBIA S.A.                                C000000002057400000000000000000000100010010000000000000000000000F0010000005793600320140509000101 00000000000000000000000000000000000000000000000000000000000000000000000000000000000000000000000000000000000000000N 00000000000NCONT   00    00000000000          00000000000000000000000000000000000000000000 000000000000000A000000000000000000000000000000000000000000000 000000000000000000000000000000000000000     00000000                                                                                                                        000000000000000000
F0010000005793600004000086000089600023658300000000000000000201405090002001SIKA COLOMBIA S.A.                                C000000000640000000000000000000000100010010000000000000000000000F0010000005793600420140509000101 00000000000000000000000000000000000000000000000000000000000000000000000000000000000000000000000000000000000000000N 00000000000NCONT   00    00000000000          00000000000000000000000000000000000000000000 000000000000000A000000000000000000000000000000000000000000000 000000000000000000000000000000000000000     00000000                                                                                                                        000000000000000000
F0010000005793600005000086000089600013552100000000000000000201405090002001SIKA COLOMBIA S.A.                                D000000000640000000000000000000000100010010000000000000000000000F0010000005793600520140509000101 00000000000000000000000000000000000000000000000000000000000000000000000000000000000000000000000000000000000000000N 00000000000NCONT   00    00000000000          00000000000000000000000000000000000000000000 000000000000000A000000000000000000000000000000000000000000000 000000000000000000000000000000000000000     00000000                                                                                                                        000000000000000000
F0010000005793700001000090020547900011050500000000000000000201405090002001DAC DEL CARIBE S.A.S.                             D000000011000000000000000000000000100010010000000000000000000000F0010000005793700120140509000101 00000000000000000000000000000000000000000000000000000000000000000000000000000000000000000000000000000000000000000N 00000000000NCONT   00    00000000000          00000000000000000000000000000000000000000000 000000000000000A000000000000000000000000000000000000000000000 000000000000000000000000000000000000000     00000000                                                                                                                        000000000000000000
F0010000005793700002000090020547900041450500000000000000000201405090002001DAC DEL CARIBE S.A.S.                             C000000009200000000000000000000000100010010000000000000000000000F0010000005793700220140509000101 00000000000000000000000000000000000000000000000000000000000000000000000000000000000000000000000000000000000000000N 00000000000NCONT   00    00000000000          00000000000000000000000000000000000000000000 000000000000000A000000000000000000000000000000000000000000000 000000000000000000000000000000000000000     00000000                                                                                                                        000000000000000000
F0010000005793700003000090020547900042505000000000000000000201405090002001DAC DEL CARIBE S.A.S.                             C000000001800000000000000000000000100010010000000000000000000000F0010000005793700320140509000101 00000000000000000000000000000000000000000000000000000000000000000000000000000000000000000000000000000000000000000N 00000000000NCONT   00    00000000000          00000000000000000000000000000000000000000000 000000000000000A000000000000000000000000000000000000000000000 000000000000000000000000000000000000000     00000000                                                                                                                        000000000000000000
F0010000005793700004000090020547900023658300000000000000000201405090002001DAC DEL CARIBE S.A.S.                             C000000000073600000000000000000000100010010000000000000000000000F0010000005793700420140509000101 00000000000000000000000000000000000000000000000000000000000000000000000000000000000000000000000000000000000000000N 00000000000NCONT   00    00000000000          00000000000000000000000000000000000000000000 000000000000000A000000000000000000000000000000000000000000000 000000000000000000000000000000000000000     00000000                                                                                                                        000000000000000000
F0010000005793700005000090020547900013552100000000000000000201405090002001DAC DEL CARIBE S.A.S.                             D000000000073600000000000000000000100010010000000000000000000000F0010000005793700520140509000101 00000000000000000000000000000000000000000000000000000000000000000000000000000000000000000000000000000000000000000N 00000000000NCONT   00    00000000000          00000000000000000000000000000000000000000000 000000000000000A000000000000000000000000000000000000000000000 000000000000000000000000000000000000000     00000000                                                                                                                        000000000000000000
F0010000005793800001000090020547900011050500000000000000000201405090002001DAC DEL CARIBE S.A.S.                             D000000007500000000000000000000000100010010000000000000000000000F0010000005793800120140509000101 00000000000000000000000000000000000000000000000000000000000000000000000000000000000000000000000000000000000000000N 00000000000NCONT   00    00000000000          00000000000000000000000000000000000000000000 000000000000000A000000000000000000000000000000000000000000000 000000000000000000000000000000000000000     00000000                                                                                                                        000000000000000000
F0010000005793800002000090020547900041450500000000000000000201405090002001DAC DEL CARIBE S.A.S.                             C000000006400000000000000000000000100010010000000000000000000000F0010000005793800220140509000101 00000000000000000000000000000000000000000000000000000000000000000000000000000000000000000000000000000000000000000N 00000000000NCONT   00    00000000000          00000000000000000000000000000000000000000000 000000000000000A000000000000000000000000000000000000000000000 000000000000000000000000000000000000000     00000000                                                                                                                        000000000000000000
F0010000005793800003000090020547900042505000000000000000000201405090002001DAC DEL CARIBE S.A.S.                             C000000001100000000000000000000000100010010000000000000000000000F0010000005793800320140509000101 00000000000000000000000000000000000000000000000000000000000000000000000000000000000000000000000000000000000000000N 00000000000NCONT   00    00000000000          00000000000000000000000000000000000000000000 000000000000000A000000000000000000000000000000000000000000000 000000000000000000000000000000000000000     00000000                                                                                                                        000000000000000000
F0010000005793800004000090020547900023658300000000000000000201405090002001DAC DEL CARIBE S.A.S.                             C000000000051200000000000000000000100010010000000000000000000000F0010000005793800420140509000101 00000000000000000000000000000000000000000000000000000000000000000000000000000000000000000000000000000000000000000N 00000000000NCONT   00    00000000000          00000000000000000000000000000000000000000000 000000000000000A000000000000000000000000000000000000000000000 000000000000000000000000000000000000000     00000000                                                                                                                        000000000000000000
F0010000005793800005000090020547900013552100000000000000000201405090002001DAC DEL CARIBE S.A.S.                             D000000000051200000000000000000000100010010000000000000000000000F0010000005793800520140509000101 00000000000000000000000000000000000000000000000000000000000000000000000000000000000000000000000000000000000000000N 00000000000NCONT   00    00000000000          00000000000000000000000000000000000000000000 000000000000000A000000000000000000000000000000000000000000000 000000000000000000000000000000000000000     00000000                                                                                                                        000000000000000000
F0010000005793900001000090020547900011050500000000000000000201405090002001DAC DEL CARIBE S.A.S.                             D000000004400000000000000000000000100010010000000000000000000000F0010000005793900120140509000101 00000000000000000000000000000000000000000000000000000000000000000000000000000000000000000000000000000000000000000N 00000000000NCONT   00    00000000000          00000000000000000000000000000000000000000000 000000000000000A000000000000000000000000000000000000000000000 000000000000000000000000000000000000000     00000000                                                                                                                        000000000000000000
F0010000005793900002000090020547900041450500000000000000000201405090002001DAC DEL CARIBE S.A.S.                             C000000003250000000000000000000000100010010000000000000000000000F0010000005793900220140509000101 00000000000000000000000000000000000000000000000000000000000000000000000000000000000000000000000000000000000000000N 00000000000NCONT   00    00000000000          00000000000000000000000000000000000000000000 000000000000000A000000000000000000000000000000000000000000000 000000000000000000000000000000000000000     00000000                                                                                                                        000000000000000000
F0010000005793900003000090020547900042505000000000000000000201405090002001DAC DEL CARIBE S.A.S.                             C000000001150000000000000000000000100010010000000000000000000000F0010000005793900320140509000101 00000000000000000000000000000000000000000000000000000000000000000000000000000000000000000000000000000000000000000N 00000000000NCONT   00    00000000000          00000000000000000000000000000000000000000000 000000000000000A000000000000000000000000000000000000000000000 000000000000000000000000000000000000000     00000000                                                                                                                        000000000000000000
F0010000005793900004000090020547900023658300000000000000000201405090002001DAC DEL CARIBE S.A.S.                             C000000000026000000000000000000000100010010000000000000000000000F0010000005793900420140509000101 00000000000000000000000000000000000000000000000000000000000000000000000000000000000000000000000000000000000000000N 00000000000NCONT   00    00000000000          00000000000000000000000000000000000000000000 000000000000000A000000000000000000000000000000000000000000000 000000000000000000000000000000000000000     00000000                                                                                                                        000000000000000000
F0010000005793900005000090020547900013552100000000000000000201405090002001DAC DEL CARIBE S.A.S.                             D000000000026000000000000000000000100010010000000000000000000000F0010000005793900520140509000101 00000000000000000000000000000000000000000000000000000000000000000000000000000000000000000000000000000000000000000N 00000000000NCONT   00    00000000000          00000000000000000000000000000000000000000000 000000000000000A000000000000000000000000000000000000000000000 000000000000000000000000000000000000000     00000000                                                                                                                        000000000000000000
F0010000005794000001000090020547900011050500000000000000000201405090002001DAC DEL CARIBE S.A.S.                             D000000002200000000000000000000000100010010000000000000000000000F0010000005794000120140509000101 00000000000000000000000000000000000000000000000000000000000000000000000000000000000000000000000000000000000000000N 00000000000NCONT   00    00000000000          00000000000000000000000000000000000000000000 000000000000000A000000000000000000000000000000000000000000000 000000000000000000000000000000000000000     00000000                                                                                                                        000000000000000000
F0010000005794000002000090020547900041450500000000000000000201405090002001DAC DEL CARIBE S.A.S.                             C000000001600000000000000000000000100010010000000000000000000000F0010000005794000220140509000101 00000000000000000000000000000000000000000000000000000000000000000000000000000000000000000000000000000000000000000N 00000000000NCONT   00    00000000000          00000000000000000000000000000000000000000000 000000000000000A000000000000000000000000000000000000000000000 000000000000000000000000000000000000000     00000000                                                                                                                        000000000000000000
F0010000005794000003000090020547900042505000000000000000000201405090002001DAC DEL CARIBE S.A.S.                             C000000000600000000000000000000000100010010000000000000000000000F0010000005794000320140509000101 00000000000000000000000000000000000000000000000000000000000000000000000000000000000000000000000000000000000000000N 00000000000NCONT   00    00000000000          00000000000000000000000000000000000000000000 000000000000000A000000000000000000000000000000000000000000000 000000000000000000000000000000000000000     00000000                                                                                                                        000000000000000000
F0010000005794000004000090020547900023658300000000000000000201405090002001DAC DEL CARIBE S.A.S.                             C000000000012800000000000000000000100010010000000000000000000000F0010000005794000420140509000101 00000000000000000000000000000000000000000000000000000000000000000000000000000000000000000000000000000000000000000N 00000000000NCONT   00    00000000000          00000000000000000000000000000000000000000000 000000000000000A000000000000000000000000000000000000000000000 000000000000000000000000000000000000000     00000000                                                                                                                        000000000000000000
F0010000005794000005000090020547900013552100000000000000000201405090002001DAC DEL CARIBE S.A.S.                             D000000000012800000000000000000000100010010000000000000000000000F0010000005794000520140509000101 00000000000000000000000000000000000000000000000000000000000000000000000000000000000000000000000000000000000000000N 00000000000NCONT   00    00000000000          00000000000000000000000000000000000000000000 000000000000000A000000000000000000000000000000000000000000000 000000000000000000000000000000000000000     00000000                                                                                                                        000000000000000000
F0010000005794100001000000556141600011050500000000000000000201405090002001HECTOR HERNANDEZ FLOREZ                           D000000003000000000000000000000000100010010000000000000000000000F0010000005794100120140509000101 00000000000000000000000000000000000000000000000000000000000000000000000000000000000000000000000000000000000000000N 00000000000NCONT   00    00000000000          00000000000000000000000000000000000000000000 000000000000000A000000000000000000000000000000000000000000000 000000000000000000000000000000000000000     00000000                                                                                                                        000000000000000000
F0010000005794100002000000556141600041450500000000000000000201405090002001HECTOR HERNANDEZ FLOREZ                           C000000002000000000000000000000000100010010000000000000000000000F0010000005794100220140509000101 00000000000000000000000000000000000000000000000000000000000000000000000000000000000000000000000000000000000000000N 00000000000NCONT   00    00000000000          00000000000000000000000000000000000000000000 000000000000000A000000000000000000000000000000000000000000000 000000000000000000000000000000000000000     00000000                                                                                                                        000000000000000000
F0010000005794100003000000556141600042505000000000000000000201405090002001HECTOR HERNANDEZ FLOREZ                           C000000001000000000000000000000000100010010000000000000000000000F0010000005794100320140509000101 00000000000000000000000000000000000000000000000000000000000000000000000000000000000000000000000000000000000000000N 00000000000NCONT   00    00000000000          00000000000000000000000000000000000000000000 000000000000000A000000000000000000000000000000000000000000000 000000000000000000000000000000000000000     00000000                                                                                                                        000000000000000000
F0010000005794100004000000556141600023658300000000000000000201405090002001HECTOR HERNANDEZ FLOREZ                           C000000000016000000000000000000000100010010000000000000000000000F0010000005794100420140509000101 00000000000000000000000000000000000000000000000000000000000000000000000000000000000000000000000000000000000000000N 00000000000NCONT   00    00000000000          00000000000000000000000000000000000000000000 000000000000000A000000000000000000000000000000000000000000000 000000000000000000000000000000000000000     00000000                                                                                                                        000000000000000000
F0010000005794100005000000556141600013552100000000000000000201405090002001HECTOR HERNANDEZ FLOREZ                           D000000000016000000000000000000000100010010000000000000000000000F0010000005794100520140509000101 00000000000000000000000000000000000000000000000000000000000000000000000000000000000000000000000000000000000000000N 00000000000NCONT   00    00000000000          00000000000000000000000000000000000000000000 000000000000000A000000000000000000000000000000000000000000000 000000000000000000000000000000000000000     00000000                                                                                                                        000000000000000000
F0010000005794200001000112956903100011050500000000000000000201405090002001LEONARDO PLATA LOZADA                             D000000002500000000000000000000000100010010000000000000000000000F0010000005794200120140509000101 00000000000000000000000000000000000000000000000000000000000000000000000000000000000000000000000000000000000000000N 00000000000NCONT   00    00000000000          00000000000000000000000000000000000000000000 000000000000000A000000000000000000000000000000000000000000000 000000000000000000000000000000000000000     00000000                                                                                                                        000000000000000000
F0010000005794200002000112956903100041450500000000000000000201405090002001LEONARDO PLATA LOZADA                             C000000002000000000000000000000000100010010000000000000000000000F0010000005794200220140509000101 00000000000000000000000000000000000000000000000000000000000000000000000000000000000000000000000000000000000000000N 00000000000NCONT   00    00000000000          00000000000000000000000000000000000000000000 000000000000000A000000000000000000000000000000000000000000000 000000000000000000000000000000000000000     00000000                                                                                                                        000000000000000000
F0010000005794200003000112956903100042505000000000000000000201405090002001LEONARDO PLATA LOZADA                             C000000000500000000000000000000000100010010000000000000000000000F0010000005794200320140509000101 00000000000000000000000000000000000000000000000000000000000000000000000000000000000000000000000000000000000000000N 00000000000NCONT   00    00000000000          00000000000000000000000000000000000000000000 000000000000000A000000000000000000000000000000000000000000000 000000000000000000000000000000000000000     00000000                                                                                                                        000000000000000000
F0010000005794200004000112956903100023658300000000000000000201405090002001LEONARDO PLATA LOZADA                             C000000000016000000000000000000000100010010000000000000000000000F0010000005794200420140509000101 00000000000000000000000000000000000000000000000000000000000000000000000000000000000000000000000000000000000000000N 00000000000NCONT   00    00000000000          00000000000000000000000000000000000000000000 000000000000000A000000000000000000000000000000000000000000000 000000000000000000000000000000000000000     00000000                                                                                                                        000000000000000000
F0010000005794200005000112956903100013552100000000000000000201405090002001LEONARDO PLATA LOZADA                             D000000000016000000000000000000000100010010000000000000000000000F0010000005794200520140509000101 00000000000000000000000000000000000000000000000000000000000000000000000000000000000000000000000000000000000000000N 00000000000NCONT   00    00000000000          00000000000000000000000000000000000000000000 000000000000000A000000000000000000000000000000000000000000000 000000000000000000000000000000000000000     00000000                                                                                                                        000000000000000000
F0010000005794300001000090036991700011050500000000000000000201405090002001DELTA INTERNACIONAL  S.A.S                        D000000003000000000000000000000000100010010000000000000000000000F0010000005794300120140509000101 00000000000000000000000000000000000000000000000000000000000000000000000000000000000000000000000000000000000000000N 00000000000NCONT   00    00000000000          00000000000000000000000000000000000000000000 000000000000000A000000000000000000000000000000000000000000000 000000000000000000000000000000000000000     00000000                                                                                                                        000000000000000000
F0010000005794300002000090036991700041450500000000000000000201405090002001DELTA INTERNACIONAL  S.A.S                        C000000002700000000000000000000000100010010000000000000000000000F0010000005794300220140509000101 00000000000000000000000000000000000000000000000000000000000000000000000000000000000000000000000000000000000000000N 00000000000NCONT   00    00000000000          00000000000000000000000000000000000000000000 000000000000000A000000000000000000000000000000000000000000000 000000000000000000000000000000000000000     00000000                                                                                                                        000000000000000000
F0010000005794300003000090036991700042505000000000000000000201405090002001DELTA INTERNACIONAL  S.A.S                        C000000000300000000000000000000000100010010000000000000000000000F0010000005794300320140509000101 00000000000000000000000000000000000000000000000000000000000000000000000000000000000000000000000000000000000000000N 00000000000NCONT   00    00000000000          00000000000000000000000000000000000000000000 000000000000000A000000000000000000000000000000000000000000000 000000000000000000000000000000000000000     00000000                                                                                                                        000000000000000000
F0010000005794300004000090036991700023658300000000000000000201405090002001DELTA INTERNACIONAL  S.A.S                        C000000000021600000000000000000000100010010000000000000000000000F0010000005794300420140509000101 00000000000000000000000000000000000000000000000000000000000000000000000000000000000000000000000000000000000000000N 00000000000NCONT   00    00000000000          00000000000000000000000000000000000000000000 000000000000000A000000000000000000000000000000000000000000000 000000000000000000000000000000000000000     00000000                                                                                                                        000000000000000000
F0010000005794300005000090036991700013552100000000000000000201405090002001DELTA INTERNACIONAL  S.A.S                        D000000000021600000000000000000000100010010000000000000000000000F0010000005794300520140509000101 00000000000000000000000000000000000000000000000000000000000000000000000000000000000000000000000000000000000000000N 00000000000NCONT   00    00000000000          00000000000000000000000000000000000000000000 000000000000000A000000000000000000000000000000000000000000000 000000000000000000000000000000000000000     00000000                                                                                                                        000000000000000000
F0010000005794400001000090036991700011050500000000000000000201405090002001DELTA INTERNACIONAL  S.A.S                        D000000001530000000000000000000000100010010000000000000000000000F0010000005794400120140509000101 00000000000000000000000000000000000000000000000000000000000000000000000000000000000000000000000000000000000000000N 00000000000NCONT   00    00000000000          00000000000000000000000000000000000000000000 000000000000000A000000000000000000000000000000000000000000000 000000000000000000000000000000000000000     00000000                                                                                                                        000000000000000000
F0010000005794400002000090036991700041450500000000000000000201405090002001DELTA INTERNACIONAL  S.A.S                        C000000001330000000000000000000000100010010000000000000000000000F0010000005794400220140509000101 00000000000000000000000000000000000000000000000000000000000000000000000000000000000000000000000000000000000000000N 00000000000NCONT   00    00000000000          00000000000000000000000000000000000000000000 000000000000000A000000000000000000000000000000000000000000000 000000000000000000000000000000000000000     00000000                                                                                                                        000000000000000000
F0010000005794400003000090036991700042505000000000000000000201405090002001DELTA INTERNACIONAL  S.A.S                        C000000000200000000000000000000000100010010000000000000000000000F0010000005794400320140509000101 00000000000000000000000000000000000000000000000000000000000000000000000000000000000000000000000000000000000000000N 00000000000NCONT   00    00000000000          00000000000000000000000000000000000000000000 000000000000000A000000000000000000000000000000000000000000000 000000000000000000000000000000000000000     00000000                                                                                                                        000000000000000000
F0010000005794400004000090036991700023658300000000000000000201405090002001DELTA INTERNACIONAL  S.A.S                        C000000000010600000000000000000000100010010000000000000000000000F0010000005794400420140509000101 00000000000000000000000000000000000000000000000000000000000000000000000000000000000000000000000000000000000000000N 00000000000NCONT   00    00000000000          00000000000000000000000000000000000000000000 000000000000000A000000000000000000000000000000000000000000000 000000000000000000000000000000000000000     00000000                                                                                                                        000000000000000000
F0010000005794400005000090036991700013552100000000000000000201405090002001DELTA INTERNACIONAL  S.A.S                        D000000000010600000000000000000000100010010000000000000000000000F0010000005794400520140509000101 00000000000000000000000000000000000000000000000000000000000000000000000000000000000000000000000000000000000000000N 00000000000NCONT   00    00000000000          00000000000000000000000000000000000000000000 000000000000000A000000000000000000000000000000000000000000000 000000000000000000000000000000000000000     00000000                                                                                                                        000000000000000000
F0010000005794500001000090055180500011050500000000000000000201405090002001LAMINAS Y SUELAS DE COLOMBIA S.A.S                D000000002600000000000000000000000100010010000000000000000000000F0010000005794500120140509000101 00000000000000000000000000000000000000000000000000000000000000000000000000000000000000000000000000000000000000000N 00000000000NCONT   00    00000000000          00000000000000000000000000000000000000000000 000000000000000A000000000000000000000000000000000000000000000 000000000000000000000000000000000000000     00000000                                                                                                                        000000000000000000
F0010000005794500002000090055180500041450500000000000000000201405090002001LAMINAS Y SUELAS DE COLOMBIA S.A.S                C000000001800000000000000000000000100010010000000000000000000000F0010000005794500220140509000101 00000000000000000000000000000000000000000000000000000000000000000000000000000000000000000000000000000000000000000N 00000000000NCONT   00    00000000000          00000000000000000000000000000000000000000000 000000000000000A000000000000000000000000000000000000000000000 000000000000000000000000000000000000000     00000000                                                                                                                        000000000000000000
F0010000005794500003000090055180500042505000000000000000000201405090002001LAMINAS Y SUELAS DE COLOMBIA S.A.S                C000000000800000000000000000000000100010010000000000000000000000F0010000005794500320140509000101 00000000000000000000000000000000000000000000000000000000000000000000000000000000000000000000000000000000000000000N 00000000000NCONT   00    00000000000          00000000000000000000000000000000000000000000 000000000000000A000000000000000000000000000000000000000000000 000000000000000000000000000000000000000     00000000                                                                                                                        000000000000000000
F0010000005794500004000090055180500023658300000000000000000201405090002001LAMINAS Y SUELAS DE COLOMBIA S.A.S                C000000000014400000000000000000000100010010000000000000000000000F0010000005794500420140509000101 00000000000000000000000000000000000000000000000000000000000000000000000000000000000000000000000000000000000000000N 00000000000NCONT   00    00000000000          00000000000000000000000000000000000000000000 000000000000000A000000000000000000000000000000000000000000000 000000000000000000000000000000000000000     00000000                                                                                                                        000000000000000000
F0010000005794500005000090055180500013552100000000000000000201405090002001LAMINAS Y SUELAS DE COLOMBIA S.A.S                D000000000014400000000000000000000100010010000000000000000000000F0010000005794500520140509000101 00000000000000000000000000000000000000000000000000000000000000000000000000000000000000000000000000000000000000000N 00000000000NCONT   00    00000000000          00000000000000000000000000000000000000000000 000000000000000A000000000000000000000000000000000000000000000 000000000000000000000000000000000000000     00000000                                                                                                                        000000000000000000
F0010000005794600001000090050144800011050500000000000000000201405090002001PLASTICOS JR ASOCIADOS SAS                        D000000001900000000000000000000000100010010000000000000000000000F0010000005794600120140509000101 00000000000000000000000000000000000000000000000000000000000000000000000000000000000000000000000000000000000000000N 00000000000NCONT   00    00000000000          00000000000000000000000000000000000000000000 000000000000000A000000000000000000000000000000000000000000000 000000000000000000000000000000000000000     00000000                                                                                                                        000000000000000000
F0010000005794600002000090050144800041450500000000000000000201405090002001PLASTICOS JR ASOCIADOS SAS                        C000000001700000000000000000000000100010010000000000000000000000F0010000005794600220140509000101 00000000000000000000000000000000000000000000000000000000000000000000000000000000000000000000000000000000000000000N 00000000000NCONT   00    00000000000          00000000000000000000000000000000000000000000 000000000000000A000000000000000000000000000000000000000000000 000000000000000000000000000000000000000     00000000                                                                                                                        000000000000000000
F0010000005794600003000090050144800042505000000000000000000201405090002001PLASTICOS JR ASOCIADOS SAS                        C000000000200000000000000000000000100010010000000000000000000000F0010000005794600320140509000101 00000000000000000000000000000000000000000000000000000000000000000000000000000000000000000000000000000000000000000N 00000000000NCONT   00    00000000000          00000000000000000000000000000000000000000000 000000000000000A000000000000000000000000000000000000000000000 000000000000000000000000000000000000000     00000000                                                                                                                        000000000000000000
F0010000005794600004000090050144800023658300000000000000000201405090002001PLASTICOS JR ASOCIADOS SAS                        C000000000013600000000000000000000100010010000000000000000000000F0010000005794600420140509000101 00000000000000000000000000000000000000000000000000000000000000000000000000000000000000000000000000000000000000000N 00000000000NCONT   00    00000000000          00000000000000000000000000000000000000000000 000000000000000A000000000000000000000000000000000000000000000 000000000000000000000000000000000000000     00000000                                                                                                                        000000000000000000
F0010000005794600005000090050144800013552100000000000000000201405090002001PLASTICOS JR ASOCIADOS SAS                        D000000000013600000000000000000000100010010000000000000000000000F0010000005794600520140509000101 00000000000000000000000000000000000000000000000000000000000000000000000000000000000000000000000000000000000000000N 00000000000NCONT   00    00000000000          00000000000000000000000000000000000000000000 000000000000000A000000000000000000000000000000000000000000000 000000000000000000000000000000000000000     00000000                                                                                                                        000000000000000000
F0010000005794700001000000741990700011050500000000000000000201405090002001FEDERICO GUILLERMO MOLINA MARRIAGA                D000000003000000000000000000000000100010010000000000000000000000F0010000005794700120140509000101 00000000000000000000000000000000000000000000000000000000000000000000000000000000000000000000000000000000000000000N 00000000000NCONT   00    00000000000          00000000000000000000000000000000000000000000 000000000000000A000000000000000000000000000000000000000000000 000000000000000000000000000000000000000     00000000                                                                                                                        000000000000000000
F0010000005794700002000000741990700041450500000000000000000201405090002001FEDERICO GUILLERMO MOLINA MARRIAGA                C000000002900000000000000000000000100010010000000000000000000000F0010000005794700220140509000101 00000000000000000000000000000000000000000000000000000000000000000000000000000000000000000000000000000000000000000N 00000000000NCONT   00    00000000000          00000000000000000000000000000000000000000000 000000000000000A000000000000000000000000000000000000000000000 000000000000000000000000000000000000000     00000000                                                                                                                        000000000000000000
F0010000005794700003000000741990700042505000000000000000000201405090002001FEDERICO GUILLERMO MOLINA MARRIAGA                C000000000100000000000000000000000100010010000000000000000000000F0010000005794700320140509000101 00000000000000000000000000000000000000000000000000000000000000000000000000000000000000000000000000000000000000000N 00000000000NCONT   00    00000000000          00000000000000000000000000000000000000000000 000000000000000A000000000000000000000000000000000000000000000 000000000000000000000000000000000000000     00000000                                                                                                                        000000000000000000
F0010000005794700004000000741990700023658300000000000000000201405090002001FEDERICO GUILLERMO MOLINA MARRIAGA                C000000000023200000000000000000000100010010000000000000000000000F0010000005794700420140509000101 00000000000000000000000000000000000000000000000000000000000000000000000000000000000000000000000000000000000000000N 00000000000NCONT   00    00000000000          00000000000000000000000000000000000000000000 000000000000000A000000000000000000000000000000000000000000000 000000000000000000000000000000000000000     00000000                                                                                                                        000000000000000000
F0010000005794700005000000741990700013552100000000000000000201405090002001FEDERICO GUILLERMO MOLINA MARRIAGA                D000000000023200000000000000000000100010010000000000000000000000F0010000005794700520140509000101 00000000000000000000000000000000000000000000000000000000000000000000000000000000000000000000000000000000000000000N 00000000000NCONT   00    00000000000          00000000000000000000000000000000000000000000 000000000000000A000000000000000000000000000000000000000000000 000000000000000000000000000000000000000     00000000                                                                                                                        000000000000000000
F0010000005794800001000001022529300011050500000000000000000201405090002001ALBERTO ALVAREZ ISAZA                             D000000003600000000000000000000000100010010000000000000000000000F0010000005794800120140509000101 00000000000000000000000000000000000000000000000000000000000000000000000000000000000000000000000000000000000000000N 00000000000NCONT   00    00000000000          00000000000000000000000000000000000000000000 000000000000000A000000000000000000000000000000000000000000000 000000000000000000000000000000000000000     00000000                                                                                                                        000000000000000000
F0010000005794800002000001022529300041450500000000000000000201405090002001ALBERTO ALVAREZ ISAZA                             C000000003400000000000000000000000100010010000000000000000000000F0010000005794800220140509000101 00000000000000000000000000000000000000000000000000000000000000000000000000000000000000000000000000000000000000000N 00000000000NCONT   00    00000000000          00000000000000000000000000000000000000000000 000000000000000A000000000000000000000000000000000000000000000 000000000000000000000000000000000000000     00000000                                                                                                                        000000000000000000
F0010000005794800003000001022529300042505000000000000000000201405090002001ALBERTO ALVAREZ ISAZA                             C000000000200000000000000000000000100010010000000000000000000000F0010000005794800320140509000101 00000000000000000000000000000000000000000000000000000000000000000000000000000000000000000000000000000000000000000N 00000000000NCONT   00    00000000000          00000000000000000000000000000000000000000000 000000000000000A000000000000000000000000000000000000000000000 000000000000000000000000000000000000000     00000000                                                                                                                        000000000000000000
F0010000005794800004000001022529300023658300000000000000000201405090002001ALBERTO ALVAREZ ISAZA                             C000000000027200000000000000000000100010010000000000000000000000F0010000005794800420140509000101 00000000000000000000000000000000000000000000000000000000000000000000000000000000000000000000000000000000000000000N 00000000000NCONT   00    00000000000          00000000000000000000000000000000000000000000 000000000000000A000000000000000000000000000000000000000000000 000000000000000000000000000000000000000     00000000                                                                                                                        000000000000000000
F0010000005794800005000001022529300013552100000000000000000201405090002001ALBERTO ALVAREZ ISAZA                             D000000000027200000000000000000000100010010000000000000000000000F0010000005794800520140509000101 00000000000000000000000000000000000000000000000000000000000000000000000000000000000000000000000000000000000000000N 00000000000NCONT   00    00000000000          00000000000000000000000000000000000000000000 000000000000000A000000000000000000000000000000000000000000000 000000000000000000000000000000000000000     00000000                                                                                                                        000000000000000000
F0010000005794900001000090034602400011050500000000000000000201405090002001LA CUSTODIA                                       D000000001000000000000000000000000100010010000000000000000000000F0010000005794900120140509000101 00000000000000000000000000000000000000000000000000000000000000000000000000000000000000000000000000000000000000000N 00000000000NCONT   00    00000000000          00000000000000000000000000000000000000000000 000000000000000A000000000000000000000000000000000000000000000 000000000000000000000000000000000000000     00000000                                                                                                                        000000000000000000
F0010000005794900002000090034602400041450500000000000000000201405090002001LA CUSTODIA                                       C000000000900000000000000000000000100010010000000000000000000000F0010000005794900220140509000101 00000000000000000000000000000000000000000000000000000000000000000000000000000000000000000000000000000000000000000N 00000000000NCONT   00    00000000000          00000000000000000000000000000000000000000000 000000000000000A000000000000000000000000000000000000000000000 000000000000000000000000000000000000000     00000000                                                                                                                        000000000000000000
F0010000005794900003000090034602400042505000000000000000000201405090002001LA CUSTODIA                                       C000000000100000000000000000000000100010010000000000000000000000F0010000005794900320140509000101 00000000000000000000000000000000000000000000000000000000000000000000000000000000000000000000000000000000000000000N 00000000000NCONT   00    00000000000          00000000000000000000000000000000000000000000 000000000000000A000000000000000000000000000000000000000000000 000000000000000000000000000000000000000     00000000                                                                                                                        000000000000000000
F0010000005794900004000090034602400023658300000000000000000201405090002001LA CUSTODIA                                       C000000000007200000000000000000000100010010000000000000000000000F0010000005794900420140509000101 00000000000000000000000000000000000000000000000000000000000000000000000000000000000000000000000000000000000000000N 00000000000NCONT   00    00000000000          00000000000000000000000000000000000000000000 000000000000000A000000000000000000000000000000000000000000000 000000000000000000000000000000000000000     00000000                                                                                                                        000000000000000000
F0010000005794900005000090034602400013552100000000000000000201405090002001LA CUSTODIA                                       D000000000007200000000000000000000100010010000000000000000000000F0010000005794900520140509000101 00000000000000000000000000000000000000000000000000000000000000000000000000000000000000000000000000000000000000000N 00000000000NCONT   00    00000000000          00000000000000000000000000000000000000000000 000000000000000A000000000000000000000000000000000000000000000 000000000000000000000000000000000000000     00000000                                                                                                                        000000000000000000
F0010000005795000001000090059038200011050500000000000000000201405090002001PRODUFENIX SAS                                    D000000011000000000000000000000000100010010000000000000000000000F0010000005795000120140509000101 00000000000000000000000000000000000000000000000000000000000000000000000000000000000000000000000000000000000000000N 00000000000NCONT   00    00000000000          00000000000000000000000000000000000000000000 000000000000000A000000000000000000000000000000000000000000000 000000000000000000000000000000000000000     00000000                                                                                                                        000000000000000000
F0010000005795000002000090059038200041450500000000000000000201405090002001PRODUFENIX SAS                                    C000000010000000000000000000000000100010010000000000000000000000F0010000005795000220140509000101 00000000000000000000000000000000000000000000000000000000000000000000000000000000000000000000000000000000000000000N 00000000000NCONT   00    00000000000          00000000000000000000000000000000000000000000 000000000000000A000000000000000000000000000000000000000000000 000000000000000000000000000000000000000     00000000                                                                                                                        000000000000000000
F0010000005795000003000090059038200042505000000000000000000201405090002001PRODUFENIX SAS                                    C000000001000000000000000000000000100010010000000000000000000000F0010000005795000320140509000101 00000000000000000000000000000000000000000000000000000000000000000000000000000000000000000000000000000000000000000N 00000000000NCONT   00    00000000000          00000000000000000000000000000000000000000000 000000000000000A000000000000000000000000000000000000000000000 000000000000000000000000000000000000000     00000000                                                                                                                        000000000000000000
F0010000005795000004000090059038200023658300000000000000000201405090002001PRODUFENIX SAS                                    C000000000080000000000000000000000100010010000000000000000000000F0010000005795000420140509000101 00000000000000000000000000000000000000000000000000000000000000000000000000000000000000000000000000000000000000000N 00000000000NCONT   00    00000000000          00000000000000000000000000000000000000000000 000000000000000A000000000000000000000000000000000000000000000 000000000000000000000000000000000000000     00000000                                                                                                                        000000000000000000
F0010000005795000005000090059038200013552100000000000000000201405090002001PRODUFENIX SAS                                    D000000000080000000000000000000000100010010000000000000000000000F0010000005795000520140509000101 00000000000000000000000000000000000000000000000000000000000000000000000000000000000000000000000000000000000000000N 00000000000NCONT   00    00000000000          00000000000000000000000000000000000000000000 000000000000000A000000000000000000000000000000000000000000000 000000000000000000000000000000000000000     00000000                                                                                                                        000000000000000000
F0010000005795100001000080012418800011050500000000000000000201405090002001DISTRITEC S.A.S                                   D000000003500000000000000000000000100010010000000000000000000000F0010000005795100120140509000101 00000000000000000000000000000000000000000000000000000000000000000000000000000000000000000000000000000000000000000N 00000000000NCONT   00    00000000000          00000000000000000000000000000000000000000000 000000000000000A000000000000000000000000000000000000000000000 000000000000000000000000000000000000000     00000000                                                                                                                        000000000000000000
F0010000005795100002000080012418800041450500000000000000000201405090002001DISTRITEC S.A.S                                   C000000003400000000000000000000000100010010000000000000000000000F0010000005795100220140509000101 00000000000000000000000000000000000000000000000000000000000000000000000000000000000000000000000000000000000000000N 00000000000NCONT   00    00000000000          00000000000000000000000000000000000000000000 000000000000000A000000000000000000000000000000000000000000000 000000000000000000000000000000000000000     00000000                                                                                                                        000000000000000000
F0010000005795100003000080012418800042505000000000000000000201405090002001DISTRITEC S.A.S                                   C000000000100000000000000000000000100010010000000000000000000000F0010000005795100320140509000101 00000000000000000000000000000000000000000000000000000000000000000000000000000000000000000000000000000000000000000N 00000000000NCONT   00    00000000000          00000000000000000000000000000000000000000000 000000000000000A000000000000000000000000000000000000000000000 000000000000000000000000000000000000000     00000000                                                                                                                        000000000000000000
F0010000005795100004000080012418800023658300000000000000000201405090002001DISTRITEC S.A.S                                   C000000000027200000000000000000000100010010000000000000000000000F0010000005795100420140509000101 00000000000000000000000000000000000000000000000000000000000000000000000000000000000000000000000000000000000000000N 00000000000NCONT   00    00000000000          00000000000000000000000000000000000000000000 000000000000000A000000000000000000000000000000000000000000000 000000000000000000000000000000000000000     00000000                                                                                                                        000000000000000000
F0010000005795100005000080012418800013552100000000000000000201405090002001DISTRITEC S.A.S                                   D000000000027200000000000000000000100010010000000000000000000000F0010000005795100520140509000101 00000000000000000000000000000000000000000000000000000000000000000000000000000000000000000000000000000000000000000N 00000000000NCONT   00    00000000000          00000000000000000000000000000000000000000000 000000000000000A000000000000000000000000000000000000000000000 000000000000000000000000000000000000000     00000000                                                                                                                        000000000000000000
F0010000005795200001000000431178400011050500000000000000000201405090002001EFRAIN ALVAREZ                                    D000000000900000000000000000000000100010010000000000000000000000F0010000005795200120140509000101 00000000000000000000000000000000000000000000000000000000000000000000000000000000000000000000000000000000000000000N 00000000000NCONT   00    00000000000          00000000000000000000000000000000000000000000 000000000000000A000000000000000000000000000000000000000000000 000000000000000000000000000000000000000     00000000                                                                                                                        000000000000000000
F0010000005795200002000000431178400041450500000000000000000201405090002001EFRAIN ALVAREZ                                    C000000000850000000000000000000000100010010000000000000000000000F0010000005795200220140509000101 00000000000000000000000000000000000000000000000000000000000000000000000000000000000000000000000000000000000000000N 00000000000NCONT   00    00000000000          00000000000000000000000000000000000000000000 000000000000000A000000000000000000000000000000000000000000000 000000000000000000000000000000000000000     00000000                                                                                                                        000000000000000000
F0010000005795200003000000431178400042505000000000000000000201405090002001EFRAIN ALVAREZ                                    C000000000050000000000000000000000100010010000000000000000000000F0010000005795200320140509000101 00000000000000000000000000000000000000000000000000000000000000000000000000000000000000000000000000000000000000000N 00000000000NCONT   00    00000000000          00000000000000000000000000000000000000000000 000000000000000A000000000000000000000000000000000000000000000 000000000000000000000000000000000000000     00000000                                                                                                                        000000000000000000
F0010000005795200004000000431178400023658300000000000000000201405090002001EFRAIN ALVAREZ                                    C000000000006800000000000000000000100010010000000000000000000000F0010000005795200420140509000101 00000000000000000000000000000000000000000000000000000000000000000000000000000000000000000000000000000000000000000N 00000000000NCONT   00    00000000000          00000000000000000000000000000000000000000000 000000000000000A000000000000000000000000000000000000000000000 000000000000000000000000000000000000000     00000000                                                                                                                        000000000000000000
F0010000005795200005000000431178400013552100000000000000000201405090002001EFRAIN ALVAREZ                                    D000000000006800000000000000000000100010010000000000000000000000F0010000005795200520140509000101 00000000000000000000000000000000000000000000000000000000000000000000000000000000000000000000000000000000000000000N 00000000000NCONT   00    00000000000          00000000000000000000000000000000000000000000 000000000000000A000000000000000000000000000000000000000000000 000000000000000000000000000000000000000     00000000                                                                                                                        000000000000000000
F0010000005795300001000000431178400011050500000000000000000201405090002001EFRAIN ALVAREZ                                    D000000000950000000000000000000000100010010000000000000000000000F0010000005795300120140509000101 00000000000000000000000000000000000000000000000000000000000000000000000000000000000000000000000000000000000000000N 00000000000NCONT   00    00000000000          00000000000000000000000000000000000000000000 000000000000000A000000000000000000000000000000000000000000000 000000000000000000000000000000000000000     00000000                                                                                                                        000000000000000000
F0010000005795300002000000431178400041450500000000000000000201405090002001EFRAIN ALVAREZ                                    C000000000850000000000000000000000100010010000000000000000000000F0010000005795300220140509000101 00000000000000000000000000000000000000000000000000000000000000000000000000000000000000000000000000000000000000000N 00000000000NCONT   00    00000000000          00000000000000000000000000000000000000000000 000000000000000A000000000000000000000000000000000000000000000 000000000000000000000000000000000000000     00000000                                                                                                                        000000000000000000
F0010000005795300003000000431178400042505000000000000000000201405090002001EFRAIN ALVAREZ                                    C000000000100000000000000000000000100010010000000000000000000000F0010000005795300320140509000101 00000000000000000000000000000000000000000000000000000000000000000000000000000000000000000000000000000000000000000N 00000000000NCONT   00    00000000000          00000000000000000000000000000000000000000000 000000000000000A000000000000000000000000000000000000000000000 000000000000000000000000000000000000000     00000000                                                                                                                        000000000000000000
F0010000005795300004000000431178400023658300000000000000000201405090002001EFRAIN ALVAREZ                                    C000000000006800000000000000000000100010010000000000000000000000F0010000005795300420140509000101 00000000000000000000000000000000000000000000000000000000000000000000000000000000000000000000000000000000000000000N 00000000000NCONT   00    00000000000          00000000000000000000000000000000000000000000 000000000000000A000000000000000000000000000000000000000000000 000000000000000000000000000000000000000     00000000                                                                                                                        000000000000000000
F0010000005795300005000000431178400013552100000000000000000201405090002001EFRAIN ALVAREZ                                    D000000000006800000000000000000000100010010000000000000000000000F0010000005795300520140509000101 00000000000000000000000000000000000000000000000000000000000000000000000000000000000000000000000000000000000000000N 00000000000NCONT   00    00000000000          00000000000000000000000000000000000000000000 000000000000000A000000000000000000000000000000000000000000000 000000000000000000000000000000000000000     00000000                                                                                                                        000000000000000000
F0010000005795400001000000431178400011050500000000000000000201405090002001EFRAIN ALVAREZ                                    D000000001600000000000000000000000100010010000000000000000000000F0010000005795400120140509000101 00000000000000000000000000000000000000000000000000000000000000000000000000000000000000000000000000000000000000000N 00000000000NCONT   00    00000000000          00000000000000000000000000000000000000000000 000000000000000A000000000000000000000000000000000000000000000 000000000000000000000000000000000000000     00000000                                                                                                                        000000000000000000
F0010000005795400002000000431178400041450500000000000000000201405090002001EFRAIN ALVAREZ                                    C000000001500000000000000000000000100010010000000000000000000000F0010000005795400220140509000101 00000000000000000000000000000000000000000000000000000000000000000000000000000000000000000000000000000000000000000N 00000000000NCONT   00    00000000000          00000000000000000000000000000000000000000000 000000000000000A000000000000000000000000000000000000000000000 000000000000000000000000000000000000000     00000000                                                                                                                        000000000000000000
F0010000005795400003000000431178400042505000000000000000000201405090002001EFRAIN ALVAREZ                                    C000000000100000000000000000000000100010010000000000000000000000F0010000005795400320140509000101 00000000000000000000000000000000000000000000000000000000000000000000000000000000000000000000000000000000000000000N 00000000000NCONT   00    00000000000          00000000000000000000000000000000000000000000 000000000000000A000000000000000000000000000000000000000000000 000000000000000000000000000000000000000     00000000                                                                                                                        000000000000000000
F0010000005795400004000000431178400023658300000000000000000201405090002001EFRAIN ALVAREZ                                    C000000000012000000000000000000000100010010000000000000000000000F0010000005795400420140509000101 00000000000000000000000000000000000000000000000000000000000000000000000000000000000000000000000000000000000000000N 00000000000NCONT   00    00000000000          00000000000000000000000000000000000000000000 000000000000000A000000000000000000000000000000000000000000000 000000000000000000000000000000000000000     00000000                                                                                                                        000000000000000000
F0010000005795400005000000431178400013552100000000000000000201405090002001EFRAIN ALVAREZ                                    D000000000012000000000000000000000100010010000000000000000000000F0010000005795400520140509000101 00000000000000000000000000000000000000000000000000000000000000000000000000000000000000000000000000000000000000000N 00000000000NCONT   00    00000000000          00000000000000000000000000000000000000000000 000000000000000A000000000000000000000000000000000000000000000 000000000000000000000000000000000000000     00000000                                                                                                                        000000000000000000
F0010000005795500001000090037881900011050500000000000000000201405090002001COMERCIALIZADORA RACOPI S.A.S                     D000000001100000000000000000000000100010010000000000000000000000F0010000005795500120140509000101 00000000000000000000000000000000000000000000000000000000000000000000000000000000000000000000000000000000000000000N 00000000000NCONT   00    00000000000          00000000000000000000000000000000000000000000 000000000000000A000000000000000000000000000000000000000000000 000000000000000000000000000000000000000     00000000                                                                                                                        000000000000000000
F0010000005795500002000090037881900041450500000000000000000201405090002001COMERCIALIZADORA RACOPI S.A.S                     C000000001000000000000000000000000100010010000000000000000000000F0010000005795500220140509000101 00000000000000000000000000000000000000000000000000000000000000000000000000000000000000000000000000000000000000000N 00000000000NCONT   00    00000000000          00000000000000000000000000000000000000000000 000000000000000A000000000000000000000000000000000000000000000 000000000000000000000000000000000000000     00000000                                                                                                                        000000000000000000
F0010000005795500003000090037881900042505000000000000000000201405090002001COMERCIALIZADORA RACOPI S.A.S                     C000000000100000000000000000000000100010010000000000000000000000F0010000005795500320140509000101 00000000000000000000000000000000000000000000000000000000000000000000000000000000000000000000000000000000000000000N 00000000000NCONT   00    00000000000          00000000000000000000000000000000000000000000 000000000000000A000000000000000000000000000000000000000000000 000000000000000000000000000000000000000     00000000                                                                                                                        000000000000000000
F0010000005795500004000090037881900023658300000000000000000201405090002001COMERCIALIZADORA RACOPI S.A.S                     C000000000008000000000000000000000100010010000000000000000000000F0010000005795500420140509000101 00000000000000000000000000000000000000000000000000000000000000000000000000000000000000000000000000000000000000000N 00000000000NCONT   00    00000000000          00000000000000000000000000000000000000000000 000000000000000A000000000000000000000000000000000000000000000 000000000000000000000000000000000000000     00000000                                                                                                                        000000000000000000
F0010000005795500005000090037881900013552100000000000000000201405090002001COMERCIALIZADORA RACOPI S.A.S                     D000000000008000000000000000000000100010010000000000000000000000F0010000005795500520140509000101 00000000000000000000000000000000000000000000000000000000000000000000000000000000000000000000000000000000000000000N 00000000000NCONT   00    00000000000          00000000000000000000000000000000000000000000 000000000000000A000000000000000000000000000000000000000000000 000000000000000000000000000000000000000     00000000                                                                                                                        000000000000000000
F0010000005795600001000000431178400011050500000000000000000201405090002001EFRAIN ALVAREZ                                    D000000000900000000000000000000000100010010000000000000000000000F0010000005795600120140509000101 00000000000000000000000000000000000000000000000000000000000000000000000000000000000000000000000000000000000000000N 00000000000NCONT   00    00000000000          00000000000000000000000000000000000000000000 000000000000000A000000000000000000000000000000000000000000000 000000000000000000000000000000000000000     00000000                                                                                                                        000000000000000000
F0010000005795600002000000431178400041450500000000000000000201405090002001EFRAIN ALVAREZ                                    C000000000850000000000000000000000100010010000000000000000000000F0010000005795600220140509000101 00000000000000000000000000000000000000000000000000000000000000000000000000000000000000000000000000000000000000000N 00000000000NCONT   00    00000000000          00000000000000000000000000000000000000000000 000000000000000A000000000000000000000000000000000000000000000 000000000000000000000000000000000000000     00000000                                                                                                                        000000000000000000
F0010000005795600003000000431178400042505000000000000000000201405090002001EFRAIN ALVAREZ                                    C000000000050000000000000000000000100010010000000000000000000000F0010000005795600320140509000101 00000000000000000000000000000000000000000000000000000000000000000000000000000000000000000000000000000000000000000N 00000000000NCONT   00    00000000000          00000000000000000000000000000000000000000000 000000000000000A000000000000000000000000000000000000000000000 000000000000000000000000000000000000000     00000000                                                                                                                        000000000000000000
F0010000005795600004000000431178400023658300000000000000000201405090002001EFRAIN ALVAREZ                                    C000000000006800000000000000000000100010010000000000000000000000F0010000005795600420140509000101 00000000000000000000000000000000000000000000000000000000000000000000000000000000000000000000000000000000000000000N 00000000000NCONT   00    00000000000          00000000000000000000000000000000000000000000 000000000000000A000000000000000000000000000000000000000000000 000000000000000000000000000000000000000     00000000                                                                                                                        000000000000000000
F0010000005795600005000000431178400013552100000000000000000201405090002001EFRAIN ALVAREZ                                    D000000000006800000000000000000000100010010000000000000000000000F0010000005795600520140509000101 00000000000000000000000000000000000000000000000000000000000000000000000000000000000000000000000000000000000000000N 00000000000NCONT   00    00000000000          00000000000000000000000000000000000000000000 000000000000000A000000000000000000000000000000000000000000000 000000000000000000000000000000000000000     00000000                                                                                                                        000000000000000000
F0010000005795700001000000431178400011050500000000000000000201405090002001EFRAIN ALVAREZ                                    D000000002800000000000000000000000100010010000000000000000000000F0010000005795700120140509000101 00000000000000000000000000000000000000000000000000000000000000000000000000000000000000000000000000000000000000000N 00000000000NCONT   00    00000000000          00000000000000000000000000000000000000000000 000000000000000A000000000000000000000000000000000000000000000 000000000000000000000000000000000000000     00000000                                                                                                                        000000000000000000
F0010000005795700002000000431178400041450500000000000000000201405090002001EFRAIN ALVAREZ                                    C000000002700000000000000000000000100010010000000000000000000000F0010000005795700220140509000101 00000000000000000000000000000000000000000000000000000000000000000000000000000000000000000000000000000000000000000N 00000000000NCONT   00    00000000000          00000000000000000000000000000000000000000000 000000000000000A000000000000000000000000000000000000000000000 000000000000000000000000000000000000000     00000000                                                                                                                        000000000000000000
F0010000005795700003000000431178400042505000000000000000000201405090002001EFRAIN ALVAREZ                                    C000000000100000000000000000000000100010010000000000000000000000F0010000005795700320140509000101 00000000000000000000000000000000000000000000000000000000000000000000000000000000000000000000000000000000000000000N 00000000000NCONT   00    00000000000          00000000000000000000000000000000000000000000 000000000000000A000000000000000000000000000000000000000000000 000000000000000000000000000000000000000     00000000                                                                                                                        000000000000000000
F0010000005795700004000000431178400023658300000000000000000201405090002001EFRAIN ALVAREZ                                    C000000000021600000000000000000000100010010000000000000000000000F0010000005795700420140509000101 00000000000000000000000000000000000000000000000000000000000000000000000000000000000000000000000000000000000000000N 00000000000NCONT   00    00000000000          00000000000000000000000000000000000000000000 000000000000000A000000000000000000000000000000000000000000000 000000000000000000000000000000000000000     00000000                                                                                                                        000000000000000000
F0010000005795700005000000431178400013552100000000000000000201405090002001EFRAIN ALVAREZ                                    D000000000021600000000000000000000100010010000000000000000000000F0010000005795700520140509000101 00000000000000000000000000000000000000000000000000000000000000000000000000000000000000000000000000000000000000000N 00000000000NCONT   00    00000000000          00000000000000000000000000000000000000000000 000000000000000A000000000000000000000000000000000000000000000 000000000000000000000000000000000000000     00000000                                                                                                                        000000000000000000
F0010000005795800001000000431178400011050500000000000000000201405090002001EFRAIN ALVAREZ                                    D000000003700000000000000000000000100010010000000000000000000000F0010000005795800120140509000101 00000000000000000000000000000000000000000000000000000000000000000000000000000000000000000000000000000000000000000N 00000000000NCONT   00    00000000000          00000000000000000000000000000000000000000000 000000000000000A000000000000000000000000000000000000000000000 000000000000000000000000000000000000000     00000000                                                                                                                        000000000000000000
F0010000005795800002000000431178400041450500000000000000000201405090002001EFRAIN ALVAREZ                                    C000000003600000000000000000000000100010010000000000000000000000F0010000005795800220140509000101 00000000000000000000000000000000000000000000000000000000000000000000000000000000000000000000000000000000000000000N 00000000000NCONT   00    00000000000          00000000000000000000000000000000000000000000 000000000000000A000000000000000000000000000000000000000000000 000000000000000000000000000000000000000     00000000                                                                                                                        000000000000000000
F0010000005795800003000000431178400042505000000000000000000201405090002001EFRAIN ALVAREZ                                    C000000000100000000000000000000000100010010000000000000000000000F0010000005795800320140509000101 00000000000000000000000000000000000000000000000000000000000000000000000000000000000000000000000000000000000000000N 00000000000NCONT   00    00000000000          00000000000000000000000000000000000000000000 000000000000000A000000000000000000000000000000000000000000000 000000000000000000000000000000000000000     00000000                                                                                                                        000000000000000000
F0010000005795800004000000431178400023658300000000000000000201405090002001EFRAIN ALVAREZ                                    C000000000028800000000000000000000100010010000000000000000000000F0010000005795800420140509000101 00000000000000000000000000000000000000000000000000000000000000000000000000000000000000000000000000000000000000000N 00000000000NCONT   00    00000000000          00000000000000000000000000000000000000000000 000000000000000A000000000000000000000000000000000000000000000 000000000000000000000000000000000000000     00000000                                                                                                                        000000000000000000
F0010000005795800005000000431178400013552100000000000000000201405090002001EFRAIN ALVAREZ                                    D000000000028800000000000000000000100010010000000000000000000000F0010000005795800520140509000101 00000000000000000000000000000000000000000000000000000000000000000000000000000000000000000000000000000000000000000N 00000000000NCONT   00    00000000000          00000000000000000000000000000000000000000000 000000000000000A000000000000000000000000000000000000000000000 000000000000000000000000000000000000000     00000000                                                                                                                        000000000000000000
F0010000005795900001000000431178400011050500000000000000000201405090002001EFRAIN ALVAREZ                                    D000000001300000000000000000000000100010010000000000000000000000F0010000005795900120140509000101 00000000000000000000000000000000000000000000000000000000000000000000000000000000000000000000000000000000000000000N 00000000000NCONT   00    00000000000          00000000000000000000000000000000000000000000 000000000000000A000000000000000000000000000000000000000000000 000000000000000000000000000000000000000     00000000                                                                                                                        000000000000000000
F0010000005795900002000000431178400041450500000000000000000201405090002001EFRAIN ALVAREZ                                    C000000001200000000000000000000000100010010000000000000000000000F0010000005795900220140509000101 00000000000000000000000000000000000000000000000000000000000000000000000000000000000000000000000000000000000000000N 00000000000NCONT   00    00000000000          00000000000000000000000000000000000000000000 000000000000000A000000000000000000000000000000000000000000000 000000000000000000000000000000000000000     00000000                                                                                                                        000000000000000000
F0010000005795900003000000431178400042505000000000000000000201405090002001EFRAIN ALVAREZ                                    C000000000100000000000000000000000100010010000000000000000000000F0010000005795900320140509000101 00000000000000000000000000000000000000000000000000000000000000000000000000000000000000000000000000000000000000000N 00000000000NCONT   00    00000000000          00000000000000000000000000000000000000000000 000000000000000A000000000000000000000000000000000000000000000 000000000000000000000000000000000000000     00000000                                                                                                                        000000000000000000
F0010000005795900004000000431178400023658300000000000000000201405090002001EFRAIN ALVAREZ                                    C000000000009600000000000000000000100010010000000000000000000000F0010000005795900420140509000101 00000000000000000000000000000000000000000000000000000000000000000000000000000000000000000000000000000000000000000N 00000000000NCONT   00    00000000000          00000000000000000000000000000000000000000000 000000000000000A000000000000000000000000000000000000000000000 000000000000000000000000000000000000000     00000000                                                                                                                        000000000000000000
F0010000005795900005000000431178400013552100000000000000000201405090002001EFRAIN ALVAREZ                                    D000000000009600000000000000000000100010010000000000000000000000F0010000005795900520140509000101 00000000000000000000000000000000000000000000000000000000000000000000000000000000000000000000000000000000000000000N 00000000000NCONT   00    00000000000          00000000000000000000000000000000000000000000 000000000000000A000000000000000000000000000000000000000000000 000000000000000000000000000000000000000     00000000                                                                                                                        000000000000000000
F0010000005796000001000000431178400011050500000000000000000201405090002001EFRAIN ALVAREZ                                    D000000001300000000000000000000000100010010000000000000000000000F0010000005796000120140509000101 00000000000000000000000000000000000000000000000000000000000000000000000000000000000000000000000000000000000000000N 00000000000NCONT   00    00000000000          00000000000000000000000000000000000000000000 000000000000000A000000000000000000000000000000000000000000000 000000000000000000000000000000000000000     00000000                                                                                                                        000000000000000000
F0010000005796000002000000431178400041450500000000000000000201405090002001EFRAIN ALVAREZ                                    C000000001200000000000000000000000100010010000000000000000000000F0010000005796000220140509000101 00000000000000000000000000000000000000000000000000000000000000000000000000000000000000000000000000000000000000000N 00000000000NCONT   00    00000000000          00000000000000000000000000000000000000000000 000000000000000A000000000000000000000000000000000000000000000 000000000000000000000000000000000000000     00000000                                                                                                                        000000000000000000
F0010000005796000003000000431178400042505000000000000000000201405090002001EFRAIN ALVAREZ                                    C000000000100000000000000000000000100010010000000000000000000000F0010000005796000320140509000101 00000000000000000000000000000000000000000000000000000000000000000000000000000000000000000000000000000000000000000N 00000000000NCONT   00    00000000000          00000000000000000000000000000000000000000000 000000000000000A000000000000000000000000000000000000000000000 000000000000000000000000000000000000000     00000000                                                                                                                        000000000000000000
F0010000005796000004000000431178400023658300000000000000000201405090002001EFRAIN ALVAREZ                                    C000000000009600000000000000000000100010010000000000000000000000F0010000005796000420140509000101 00000000000000000000000000000000000000000000000000000000000000000000000000000000000000000000000000000000000000000N 00000000000NCONT   00    00000000000          00000000000000000000000000000000000000000000 000000000000000A000000000000000000000000000000000000000000000 000000000000000000000000000000000000000     00000000                                                                                                                        000000000000000000
F0010000005796000005000000431178400013552100000000000000000201405090002001EFRAIN ALVAREZ                                    D000000000009600000000000000000000100010010000000000000000000000F0010000005796000520140509000101 00000000000000000000000000000000000000000000000000000000000000000000000000000000000000000000000000000000000000000N 00000000000NCONT   00    00000000000          00000000000000000000000000000000000000000000 000000000000000A000000000000000000000000000000000000000000000 000000000000000000000000000000000000000     00000000                                                                                                                        000000000000000000
F0010000005796100001000000431178400011050500000000000000000201405090002001EFRAIN ALVAREZ                                    D000000001700000000000000000000000100010010000000000000000000000F0010000005796100120140509000101 00000000000000000000000000000000000000000000000000000000000000000000000000000000000000000000000000000000000000000N 00000000000NCONT   00    00000000000          00000000000000000000000000000000000000000000 000000000000000A000000000000000000000000000000000000000000000 000000000000000000000000000000000000000     00000000                                                                                                                        000000000000000000
F0010000005796100002000000431178400041450500000000000000000201405090002001EFRAIN ALVAREZ                                    C000000001500000000000000000000000100010010000000000000000000000F0010000005796100220140509000101 00000000000000000000000000000000000000000000000000000000000000000000000000000000000000000000000000000000000000000N 00000000000NCONT   00    00000000000          00000000000000000000000000000000000000000000 000000000000000A000000000000000000000000000000000000000000000 000000000000000000000000000000000000000     00000000                                                                                                                        000000000000000000
F0010000005796100003000000431178400042505000000000000000000201405090002001EFRAIN ALVAREZ                                    C000000000200000000000000000000000100010010000000000000000000000F0010000005796100320140509000101 00000000000000000000000000000000000000000000000000000000000000000000000000000000000000000000000000000000000000000N 00000000000NCONT   00    00000000000          00000000000000000000000000000000000000000000 000000000000000A000000000000000000000000000000000000000000000 000000000000000000000000000000000000000     00000000                                                                                                                        000000000000000000
F0010000005796100004000000431178400023658300000000000000000201405090002001EFRAIN ALVAREZ                                    C000000000012000000000000000000000100010010000000000000000000000F0010000005796100420140509000101 00000000000000000000000000000000000000000000000000000000000000000000000000000000000000000000000000000000000000000N 00000000000NCONT   00    00000000000          00000000000000000000000000000000000000000000 000000000000000A000000000000000000000000000000000000000000000 000000000000000000000000000000000000000     00000000                                                                                                                        000000000000000000
F0010000005796100005000000431178400013552100000000000000000201405090002001EFRAIN ALVAREZ                                    D000000000012000000000000000000000100010010000000000000000000000F0010000005796100520140509000101 00000000000000000000000000000000000000000000000000000000000000000000000000000000000000000000000000000000000000000N 00000000000NCONT   00    00000000000          00000000000000000000000000000000000000000000 000000000000000A000000000000000000000000000000000000000000000 000000000000000000000000000000000000000     00000000                                                                                                                        000000000000000000
F0010000005796200001000000431178400011050500000000000000000201405090002001EFRAIN ALVAREZ                                    D000000001300000000000000000000000100010010000000000000000000000F0010000005796200120140509000101 00000000000000000000000000000000000000000000000000000000000000000000000000000000000000000000000000000000000000000N 00000000000NCONT   00    00000000000          00000000000000000000000000000000000000000000 000000000000000A000000000000000000000000000000000000000000000 000000000000000000000000000000000000000     00000000                                                                                                                        000000000000000000
F0010000005796200002000000431178400041450500000000000000000201405090002001EFRAIN ALVAREZ                                    C000000001200000000000000000000000100010010000000000000000000000F0010000005796200220140509000101 00000000000000000000000000000000000000000000000000000000000000000000000000000000000000000000000000000000000000000N 00000000000NCONT   00    00000000000          00000000000000000000000000000000000000000000 000000000000000A000000000000000000000000000000000000000000000 000000000000000000000000000000000000000     00000000                                                                                                                        000000000000000000
F0010000005796200003000000431178400042505000000000000000000201405090002001EFRAIN ALVAREZ                                    C000000000100000000000000000000000100010010000000000000000000000F0010000005796200320140509000101 00000000000000000000000000000000000000000000000000000000000000000000000000000000000000000000000000000000000000000N 00000000000NCONT   00    00000000000          00000000000000000000000000000000000000000000 000000000000000A000000000000000000000000000000000000000000000 000000000000000000000000000000000000000     00000000                                                                                                                        000000000000000000
F0010000005796200004000000431178400023658300000000000000000201405090002001EFRAIN ALVAREZ                                    C000000000009600000000000000000000100010010000000000000000000000F0010000005796200420140509000101 00000000000000000000000000000000000000000000000000000000000000000000000000000000000000000000000000000000000000000N 00000000000NCONT   00    00000000000          00000000000000000000000000000000000000000000 000000000000000A000000000000000000000000000000000000000000000 000000000000000000000000000000000000000     00000000                                                                                                                        000000000000000000
F0010000005796200005000000431178400013552100000000000000000201405090002001EFRAIN ALVAREZ                                    D000000000009600000000000000000000100010010000000000000000000000F0010000005796200520140509000101 00000000000000000000000000000000000000000000000000000000000000000000000000000000000000000000000000000000000000000N 00000000000NCONT   00    00000000000          00000000000000000000000000000000000000000000 000000000000000A000000000000000000000000000000000000000000000 000000000000000000000000000000000000000     00000000                                                                                                                        000000000000000000
F0010000005796300001000000431178400011050500000000000000000201405090002001EFRAIN ALVAREZ                                    D000000002500000000000000000000000100010010000000000000000000000F0010000005796300120140509000101 00000000000000000000000000000000000000000000000000000000000000000000000000000000000000000000000000000000000000000N 00000000000NCONT   00    00000000000          00000000000000000000000000000000000000000000 000000000000000A000000000000000000000000000000000000000000000 000000000000000000000000000000000000000     00000000                                                                                                                        000000000000000000
F0010000005796300002000000431178400041450500000000000000000201405090002001EFRAIN ALVAREZ                                    C000000002400000000000000000000000100010010000000000000000000000F0010000005796300220140509000101 00000000000000000000000000000000000000000000000000000000000000000000000000000000000000000000000000000000000000000N 00000000000NCONT   00    00000000000          00000000000000000000000000000000000000000000 000000000000000A000000000000000000000000000000000000000000000 000000000000000000000000000000000000000     00000000                                                                                                                        000000000000000000
