F0010000007223900001000000746524800011050500000000000000000201506080002001GUILLERMO BURGOS                                  D000000001300000000000000000000000100010010000000000000000000000F0010000007223900120150608000101 00000000000000000000000000000000000000000000000000000000000000000000000000000000000000000000000000000000000000000N 00000000000NCONT   00    00000000000          00000000000000000000000000000000000000000000 000000000000000A000000000000000000000000000000000000000000000 000000000000000000000000000000000000000     00000000                                                                                                                        000000000000000000
F0010000007223900002000000746524800041450500000000000000000201506080002001GUILLERMO BURGOS                                  C000000001200000000000000000000000100010010000000000000000000000F0010000007223900220150608000101 00000000000000000000000000000000000000000000000000000000000000000000000000000000000000000000000000000000000000000N 00000000000NCONT   00    00000000000          00000000000000000000000000000000000000000000 000000000000000A000000000000000000000000000000000000000000000 000000000000000000000000000000000000000     00000000                                                                                                                        000000000000000000
F0010000007223900003000000746524800042505000000000000000000201506080002001GUILLERMO BURGOS                                  C000000000100000000000000000000000100010010000000000000000000000F0010000007223900320150608000101 00000000000000000000000000000000000000000000000000000000000000000000000000000000000000000000000000000000000000000N 00000000000NCONT   00    00000000000          00000000000000000000000000000000000000000000 000000000000000A000000000000000000000000000000000000000000000 000000000000000000000000000000000000000     00000000                                                                                                                        000000000000000000
F0010000007223900004000000746524800023658300000000000000000201506080002001GUILLERMO BURGOS                                  C000000000009600000000000000000000100010010000000000000000000000F0010000007223900420150608000101 00000000000000000000000000000000000000000000000000000000000000000000000000000000000000000000000000000000000000000N 00000000000NCONT   00    00000000000          00000000000000000000000000000000000000000000 000000000000000A000000000000000000000000000000000000000000000 000000000000000000000000000000000000000     00000000                                                                                                                        000000000000000000
F0010000007223900005000000746524800013552100000000000000000201506080002001GUILLERMO BURGOS                                  D000000000009600000000000000000000100010010000000000000000000000F0010000007223900520150608000101 00000000000000000000000000000000000000000000000000000000000000000000000000000000000000000000000000000000000000000N 00000000000NCONT   00    00000000000          00000000000000000000000000000000000000000000 000000000000000A000000000000000000000000000000000000000000000 000000000000000000000000000000000000000     00000000                                                                                                                        000000000000000000
F0010000007224000001000007213653800011050500000000000000000201506080002001VICTOR ECHAVEZ                                    D000000002900000000000000000000000100010010000000000000000000000F0010000007224000120150608000101 00000000000000000000000000000000000000000000000000000000000000000000000000000000000000000000000000000000000000000N 00000000000NCONT   00    00000000000          00000000000000000000000000000000000000000000 000000000000000A000000000000000000000000000000000000000000000 000000000000000000000000000000000000000     00000000                                                                                                                        000000000000000000
F0010000007224000002000007213653800041450500000000000000000201506080002001VICTOR ECHAVEZ                                    C000000002400000000000000000000000100010010000000000000000000000F0010000007224000220150608000101 00000000000000000000000000000000000000000000000000000000000000000000000000000000000000000000000000000000000000000N 00000000000NCONT   00    00000000000          00000000000000000000000000000000000000000000 000000000000000A000000000000000000000000000000000000000000000 000000000000000000000000000000000000000     00000000                                                                                                                        000000000000000000
F0010000007224000003000007213653800042505000000000000000000201506080002001VICTOR ECHAVEZ                                    C000000000500000000000000000000000100010010000000000000000000000F0010000007224000320150608000101 00000000000000000000000000000000000000000000000000000000000000000000000000000000000000000000000000000000000000000N 00000000000NCONT   00    00000000000          00000000000000000000000000000000000000000000 000000000000000A000000000000000000000000000000000000000000000 000000000000000000000000000000000000000     00000000                                                                                                                        000000000000000000
F0010000007224000004000007213653800023658300000000000000000201506080002001VICTOR ECHAVEZ                                    C000000000019200000000000000000000100010010000000000000000000000F0010000007224000420150608000101 00000000000000000000000000000000000000000000000000000000000000000000000000000000000000000000000000000000000000000N 00000000000NCONT   00    00000000000          00000000000000000000000000000000000000000000 000000000000000A000000000000000000000000000000000000000000000 000000000000000000000000000000000000000     00000000                                                                                                                        000000000000000000
F0010000007224000005000007213653800013552100000000000000000201506080002001VICTOR ECHAVEZ                                    D000000000019200000000000000000000100010010000000000000000000000F0010000007224000520150608000101 00000000000000000000000000000000000000000000000000000000000000000000000000000000000000000000000000000000000000000N 00000000000NCONT   00    00000000000          00000000000000000000000000000000000000000000 000000000000000A000000000000000000000000000000000000000000000 000000000000000000000000000000000000000     00000000                                                                                                                        000000000000000000
F0010000007224100001000007213653800011050500000000000000000201506080002001VICTOR ECHAVEZ                                    D000000002800000000000000000000000100010010000000000000000000000F0010000007224100120150608000101 00000000000000000000000000000000000000000000000000000000000000000000000000000000000000000000000000000000000000000N 00000000000NCONT   00    00000000000          00000000000000000000000000000000000000000000 000000000000000A000000000000000000000000000000000000000000000 000000000000000000000000000000000000000     00000000                                                                                                                        000000000000000000
F0010000007224100002000007213653800041450500000000000000000201506080002001VICTOR ECHAVEZ                                    C000000002400000000000000000000000100010010000000000000000000000F0010000007224100220150608000101 00000000000000000000000000000000000000000000000000000000000000000000000000000000000000000000000000000000000000000N 00000000000NCONT   00    00000000000          00000000000000000000000000000000000000000000 000000000000000A000000000000000000000000000000000000000000000 000000000000000000000000000000000000000     00000000                                                                                                                        000000000000000000
F0010000007224100003000007213653800042505000000000000000000201506080002001VICTOR ECHAVEZ                                    C000000000400000000000000000000000100010010000000000000000000000F0010000007224100320150608000101 00000000000000000000000000000000000000000000000000000000000000000000000000000000000000000000000000000000000000000N 00000000000NCONT   00    00000000000          00000000000000000000000000000000000000000000 000000000000000A000000000000000000000000000000000000000000000 000000000000000000000000000000000000000     00000000                                                                                                                        000000000000000000
F0010000007224100004000007213653800023658300000000000000000201506080002001VICTOR ECHAVEZ                                    C000000000019200000000000000000000100010010000000000000000000000F0010000007224100420150608000101 00000000000000000000000000000000000000000000000000000000000000000000000000000000000000000000000000000000000000000N 00000000000NCONT   00    00000000000          00000000000000000000000000000000000000000000 000000000000000A000000000000000000000000000000000000000000000 000000000000000000000000000000000000000     00000000                                                                                                                        000000000000000000
F0010000007224100005000007213653800013552100000000000000000201506080002001VICTOR ECHAVEZ                                    D000000000019200000000000000000000100010010000000000000000000000F0010000007224100520150608000101 00000000000000000000000000000000000000000000000000000000000000000000000000000000000000000000000000000000000000000N 00000000000NCONT   00    00000000000          00000000000000000000000000000000000000000000 000000000000000A000000000000000000000000000000000000000000000 000000000000000000000000000000000000000     00000000                                                                                                                        000000000000000000
F0010000007224200001000007213653800011050500000000000000000201506080002001VICTOR ECHAVEZ                                    D000000005800000000000000000000000100010010000000000000000000000F0010000007224200120150608000101 00000000000000000000000000000000000000000000000000000000000000000000000000000000000000000000000000000000000000000N 00000000000NCONT   00    00000000000          00000000000000000000000000000000000000000000 000000000000000A000000000000000000000000000000000000000000000 000000000000000000000000000000000000000     00000000                                                                                                                        000000000000000000
F0010000007224200002000007213653800041450500000000000000000201506080002001VICTOR ECHAVEZ                                    C000000004800000000000000000000000100010010000000000000000000000F0010000007224200220150608000101 00000000000000000000000000000000000000000000000000000000000000000000000000000000000000000000000000000000000000000N 00000000000NCONT   00    00000000000          00000000000000000000000000000000000000000000 000000000000000A000000000000000000000000000000000000000000000 000000000000000000000000000000000000000     00000000                                                                                                                        000000000000000000
F0010000007224200003000007213653800042505000000000000000000201506080002001VICTOR ECHAVEZ                                    C000000001000000000000000000000000100010010000000000000000000000F0010000007224200320150608000101 00000000000000000000000000000000000000000000000000000000000000000000000000000000000000000000000000000000000000000N 00000000000NCONT   00    00000000000          00000000000000000000000000000000000000000000 000000000000000A000000000000000000000000000000000000000000000 000000000000000000000000000000000000000     00000000                                                                                                                        000000000000000000
F0010000007224200004000007213653800023658300000000000000000201506080002001VICTOR ECHAVEZ                                    C000000000038400000000000000000000100010010000000000000000000000F0010000007224200420150608000101 00000000000000000000000000000000000000000000000000000000000000000000000000000000000000000000000000000000000000000N 00000000000NCONT   00    00000000000          00000000000000000000000000000000000000000000 000000000000000A000000000000000000000000000000000000000000000 000000000000000000000000000000000000000     00000000                                                                                                                        000000000000000000
F0010000007224200005000007213653800013552100000000000000000201506080002001VICTOR ECHAVEZ                                    D000000000038400000000000000000000100010010000000000000000000000F0010000007224200520150608000101 00000000000000000000000000000000000000000000000000000000000000000000000000000000000000000000000000000000000000000N 00000000000NCONT   00    00000000000          00000000000000000000000000000000000000000000 000000000000000A000000000000000000000000000000000000000000000 000000000000000000000000000000000000000     00000000                                                                                                                        000000000000000000
