F0010000006434400001000080002300200013050500000000000000000201410270002001DISREL S.A.                                       D000000010400000000000000000000000100010010000000000000000000000F0010000006434400120141027000101 00000000000000000000000000000000000000000000000000000000000000000000000000000000000000000000000000000000000000000N 00000000000NCONT   00    00000000000          00000000000000000000000000000000000000000000 000000000000000A000000000000000000000000000000000000000000000 000000000000000000000000000000000000000     00000000                                                                                                                        000000000000000000
F0010000006434400002000080002300200041450500000000000000000201410270002001DISREL S.A.                                       C000000010400000000000000000000000100010010000000000000000000000F0010000006434400220141027000101 00000000000000000000000000000000000000000000000000000000000000000000000000000000000000000000000000000000000000000N 00000000000NCONT   00    00000000000          00000000000000000000000000000000000000000000 000000000000000A000000000000000000000000000000000000000000000 000000000000000000000000000000000000000     00000000                                                                                                                        000000000000000000
F0010000006434400003000080002300200042505000000000000000000201410270002001DISREL S.A.                                       C000000000000000000000000000000000100010010000000000000000000000F0010000006434400320141027000101 00000000000000000000000000000000000000000000000000000000000000000000000000000000000000000000000000000000000000000N 00000000000NCONT   00    00000000000          00000000000000000000000000000000000000000000 000000000000000A000000000000000000000000000000000000000000000 000000000000000000000000000000000000000     00000000                                                                                                                        000000000000000000
F0010000006434400004000080002300200023658300000000000000000201410270002001DISREL S.A.                                       C000000000083200000000000000000000100010010000000000000000000000F0010000006434400420141027000101 00000000000000000000000000000000000000000000000000000000000000000000000000000000000000000000000000000000000000000N 00000000000NCONT   00    00000000000          00000000000000000000000000000000000000000000 000000000000000A000000000000000000000000000000000000000000000 000000000000000000000000000000000000000     00000000                                                                                                                        000000000000000000
F0010000006434400005000080002300200013552100000000000000000201410270002001DISREL S.A.                                       D000000000083200000000000000000000100010010000000000000000000000F0010000006434400520141027000101 00000000000000000000000000000000000000000000000000000000000000000000000000000000000000000000000000000000000000000N 00000000000NCONT   00    00000000000          00000000000000000000000000000000000000000000 000000000000000A000000000000000000000000000000000000000000000 000000000000000000000000000000000000000     00000000                                                                                                                        000000000000000000
F0010000006434500001000090009800500013050500000000000000000201410270002001GLORIANT CHEMICAL DE COLOMBIA LTDA                D000000009813000000000000000000000100010010000000000000000000000F0010000006434500120141027000101 00000000000000000000000000000000000000000000000000000000000000000000000000000000000000000000000000000000000000000N 00000000000NCONT   00    00000000000          00000000000000000000000000000000000000000000 000000000000000A000000000000000000000000000000000000000000000 000000000000000000000000000000000000000     00000000                                                                                                                        000000000000000000
F0010000006434500002000090009800500041450500000000000000000201410270002001GLORIANT CHEMICAL DE COLOMBIA LTDA                C000000007560000000000000000000000100010010000000000000000000000F0010000006434500220141027000101 00000000000000000000000000000000000000000000000000000000000000000000000000000000000000000000000000000000000000000N 00000000000NCONT   00    00000000000          00000000000000000000000000000000000000000000 000000000000000A000000000000000000000000000000000000000000000 000000000000000000000000000000000000000     00000000                                                                                                                        000000000000000000
F0010000006434500003000090009800500042505000000000000000000201410270002001GLORIANT CHEMICAL DE COLOMBIA LTDA                C000000002253000000000000000000000100010010000000000000000000000F0010000006434500320141027000101 00000000000000000000000000000000000000000000000000000000000000000000000000000000000000000000000000000000000000000N 00000000000NCONT   00    00000000000          00000000000000000000000000000000000000000000 000000000000000A000000000000000000000000000000000000000000000 000000000000000000000000000000000000000     00000000                                                                                                                        000000000000000000
F0010000006434500004000090009800500023658300000000000000000201410270002001GLORIANT CHEMICAL DE COLOMBIA LTDA                C000000000060500000000000000000000100010010000000000000000000000F0010000006434500420141027000101 00000000000000000000000000000000000000000000000000000000000000000000000000000000000000000000000000000000000000000N 00000000000NCONT   00    00000000000          00000000000000000000000000000000000000000000 000000000000000A000000000000000000000000000000000000000000000 000000000000000000000000000000000000000     00000000                                                                                                                        000000000000000000
F0010000006434500005000090009800500013552100000000000000000201410270002001GLORIANT CHEMICAL DE COLOMBIA LTDA                D000000000060500000000000000000000100010010000000000000000000000F0010000006434500520141027000101 00000000000000000000000000000000000000000000000000000000000000000000000000000000000000000000000000000000000000000N 00000000000NCONT   00    00000000000          00000000000000000000000000000000000000000000 000000000000000A000000000000000000000000000000000000000000000 000000000000000000000000000000000000000     00000000                                                                                                                        000000000000000000
F0010000006434600001000090031658200013050500000000000000000201410270002001ABAOS S.A.S.                                      D000000026217900000000000000000000100010010000000000000000000000F0010000006434600120141027000101 00000000000000000000000000000000000000000000000000000000000000000000000000000000000000000000000000000000000000000N 00000000000NCONT   00    00000000000          00000000000000000000000000000000000000000000 000000000000000A000000000000000000000000000000000000000000000 000000000000000000000000000000000000000     00000000                                                                                                                        000000000000000000
F0010000006434600002000090031658200041450500000000000000000201410270002001ABAOS S.A.S.                                      C000000021840000000000000000000000100010010000000000000000000000F0010000006434600220141027000101 00000000000000000000000000000000000000000000000000000000000000000000000000000000000000000000000000000000000000000N 00000000000NCONT   00    00000000000          00000000000000000000000000000000000000000000 000000000000000A000000000000000000000000000000000000000000000 000000000000000000000000000000000000000     00000000                                                                                                                        000000000000000000
F0010000006434600003000090031658200042505000000000000000000201410270002001ABAOS S.A.S.                                      C000000004377900000000000000000000100010010000000000000000000000F0010000006434600320141027000101 00000000000000000000000000000000000000000000000000000000000000000000000000000000000000000000000000000000000000000N 00000000000NCONT   00    00000000000          00000000000000000000000000000000000000000000 000000000000000A000000000000000000000000000000000000000000000 000000000000000000000000000000000000000     00000000                                                                                                                        000000000000000000
F0010000006434600004000090031658200023658300000000000000000201410270002001ABAOS S.A.S.                                      C000000000174700000000000000000000100010010000000000000000000000F0010000006434600420141027000101 00000000000000000000000000000000000000000000000000000000000000000000000000000000000000000000000000000000000000000N 00000000000NCONT   00    00000000000          00000000000000000000000000000000000000000000 000000000000000A000000000000000000000000000000000000000000000 000000000000000000000000000000000000000     00000000                                                                                                                        000000000000000000
F0010000006434600005000090031658200013552100000000000000000201410270002001ABAOS S.A.S.                                      D000000000174700000000000000000000100010010000000000000000000000F0010000006434600520141027000101 00000000000000000000000000000000000000000000000000000000000000000000000000000000000000000000000000000000000000000N 00000000000NCONT   00    00000000000          00000000000000000000000000000000000000000000 000000000000000A000000000000000000000000000000000000000000000 000000000000000000000000000000000000000     00000000                                                                                                                        000000000000000000
F0010000006434700001000089010526900013050500000000000000000201410270002001DISTRIBUCIONES CANAL Y CIA S.A.S                  D000000032767600000000000000000000100010010000000000000000000000F0010000006434700120141027000101 00000000000000000000000000000000000000000000000000000000000000000000000000000000000000000000000000000000000000000N 00000000000NCONT   00    00000000000          00000000000000000000000000000000000000000000 000000000000000A000000000000000000000000000000000000000000000 000000000000000000000000000000000000000     00000000                                                                                                                        000000000000000000
F0010000006434700002000089010526900041450500000000000000000201410270002001DISTRIBUCIONES CANAL Y CIA S.A.S                  C000000022380000000000000000000000100010010000000000000000000000F0010000006434700220141027000101 00000000000000000000000000000000000000000000000000000000000000000000000000000000000000000000000000000000000000000N 00000000000NCONT   00    00000000000          00000000000000000000000000000000000000000000 000000000000000A000000000000000000000000000000000000000000000 000000000000000000000000000000000000000     00000000                                                                                                                        000000000000000000
F0010000006434700003000089010526900042505000000000000000000201410270002001DISTRIBUCIONES CANAL Y CIA S.A.S                  C000000010387600000000000000000000100010010000000000000000000000F0010000006434700320141027000101 00000000000000000000000000000000000000000000000000000000000000000000000000000000000000000000000000000000000000000N 00000000000NCONT   00    00000000000          00000000000000000000000000000000000000000000 000000000000000A000000000000000000000000000000000000000000000 000000000000000000000000000000000000000     00000000                                                                                                                        000000000000000000
F0010000006434700004000089010526900023658300000000000000000201410270002001DISTRIBUCIONES CANAL Y CIA S.A.S                  C000000000179000000000000000000000100010010000000000000000000000F0010000006434700420141027000101 00000000000000000000000000000000000000000000000000000000000000000000000000000000000000000000000000000000000000000N 00000000000NCONT   00    00000000000          00000000000000000000000000000000000000000000 000000000000000A000000000000000000000000000000000000000000000 000000000000000000000000000000000000000     00000000                                                                                                                        000000000000000000
F0010000006434700005000089010526900013552100000000000000000201410270002001DISTRIBUCIONES CANAL Y CIA S.A.S                  D000000000179000000000000000000000100010010000000000000000000000F0010000006434700520141027000101 00000000000000000000000000000000000000000000000000000000000000000000000000000000000000000000000000000000000000000N 00000000000NCONT   00    00000000000          00000000000000000000000000000000000000000000 000000000000000A000000000000000000000000000000000000000000000 000000000000000000000000000000000000000     00000000                                                                                                                        000000000000000000
F0010000006434800001000080200225800013050500000000000000000201410270002001PERF. TECNICOS DE LA COSTA S.A.S                  D000000068865000000000000000000000100010010000000000000000000000F0010000006434800120141027000101 00000000000000000000000000000000000000000000000000000000000000000000000000000000000000000000000000000000000000000N 00000000000NCONT   00    00000000000          00000000000000000000000000000000000000000000 000000000000000A000000000000000000000000000000000000000000000 000000000000000000000000000000000000000     00000000                                                                                                                        000000000000000000
F0010000006434800002000080200225800041450500000000000000000201410270002001PERF. TECNICOS DE LA COSTA S.A.S                  C000000059973000000000000000000000100010010000000000000000000000F0010000006434800220141027000101 00000000000000000000000000000000000000000000000000000000000000000000000000000000000000000000000000000000000000000N 00000000000NCONT   00    00000000000          00000000000000000000000000000000000000000000 000000000000000A000000000000000000000000000000000000000000000 000000000000000000000000000000000000000     00000000                                                                                                                        000000000000000000
F0010000006434800003000080200225800042505000000000000000000201410270002001PERF. TECNICOS DE LA COSTA S.A.S                  C000000008892000000000000000000000100010010000000000000000000000F0010000006434800320141027000101 00000000000000000000000000000000000000000000000000000000000000000000000000000000000000000000000000000000000000000N 00000000000NCONT   00    00000000000          00000000000000000000000000000000000000000000 000000000000000A000000000000000000000000000000000000000000000 000000000000000000000000000000000000000     00000000                                                                                                                        000000000000000000
F0010000006434800004000080200225800023658300000000000000000201410270002001PERF. TECNICOS DE LA COSTA S.A.S                  C000000000479800000000000000000000100010010000000000000000000000F0010000006434800420141027000101 00000000000000000000000000000000000000000000000000000000000000000000000000000000000000000000000000000000000000000N 00000000000NCONT   00    00000000000          00000000000000000000000000000000000000000000 000000000000000A000000000000000000000000000000000000000000000 000000000000000000000000000000000000000     00000000                                                                                                                        000000000000000000
F0010000006434800005000080200225800013552100000000000000000201410270002001PERF. TECNICOS DE LA COSTA S.A.S                  D000000000479800000000000000000000100010010000000000000000000000F0010000006434800520141027000101 00000000000000000000000000000000000000000000000000000000000000000000000000000000000000000000000000000000000000000N 00000000000NCONT   00    00000000000          00000000000000000000000000000000000000000000 000000000000000A000000000000000000000000000000000000000000000 000000000000000000000000000000000000000     00000000                                                                                                                        000000000000000000
F0010000006434900001000090049854300013050500000000000000000201410270002001TRAPOS INDUSTRIALES DE COLOMBIA SAS               D000000012363500000000000000000000100010010000000000000000000000F0010000006434900120141027000101 00000000000000000000000000000000000000000000000000000000000000000000000000000000000000000000000000000000000000000N 00000000000NCONT   00    00000000000          00000000000000000000000000000000000000000000 000000000000000A000000000000000000000000000000000000000000000 000000000000000000000000000000000000000     00000000                                                                                                                        000000000000000000
F0010000006434900002000090049854300041450500000000000000000201410270002001TRAPOS INDUSTRIALES DE COLOMBIA SAS               C000000010650000000000000000000000100010010000000000000000000000F0010000006434900220141027000101 00000000000000000000000000000000000000000000000000000000000000000000000000000000000000000000000000000000000000000N 00000000000NCONT   00    00000000000          00000000000000000000000000000000000000000000 000000000000000A000000000000000000000000000000000000000000000 000000000000000000000000000000000000000     00000000                                                                                                                        000000000000000000
F0010000006434900003000090049854300042505000000000000000000201410270002001TRAPOS INDUSTRIALES DE COLOMBIA SAS               C000000001713500000000000000000000100010010000000000000000000000F0010000006434900320141027000101 00000000000000000000000000000000000000000000000000000000000000000000000000000000000000000000000000000000000000000N 00000000000NCONT   00    00000000000          00000000000000000000000000000000000000000000 000000000000000A000000000000000000000000000000000000000000000 000000000000000000000000000000000000000     00000000                                                                                                                        000000000000000000
F0010000006434900004000090049854300023658300000000000000000201410270002001TRAPOS INDUSTRIALES DE COLOMBIA SAS               C000000000085200000000000000000000100010010000000000000000000000F0010000006434900420141027000101 00000000000000000000000000000000000000000000000000000000000000000000000000000000000000000000000000000000000000000N 00000000000NCONT   00    00000000000          00000000000000000000000000000000000000000000 000000000000000A000000000000000000000000000000000000000000000 000000000000000000000000000000000000000     00000000                                                                                                                        000000000000000000
F0010000006434900005000090049854300013552100000000000000000201410270002001TRAPOS INDUSTRIALES DE COLOMBIA SAS               D000000000085200000000000000000000100010010000000000000000000000F0010000006434900520141027000101 00000000000000000000000000000000000000000000000000000000000000000000000000000000000000000000000000000000000000000N 00000000000NCONT   00    00000000000          00000000000000000000000000000000000000000000 000000000000000A000000000000000000000000000000000000000000000 000000000000000000000000000000000000000     00000000                                                                                                                        000000000000000000
F0010000006435000001000080016665600013050500000000000000000201410270002001SUMICAL DE ANTIOQUIA S.A.S                        D000000013959300000000000000000000100010010000000000000000000000F0010000006435000120141027000101 00000000000000000000000000000000000000000000000000000000000000000000000000000000000000000000000000000000000000000N 00000000000NCONT   00    00000000000          00000000000000000000000000000000000000000000 000000000000000A000000000000000000000000000000000000000000000 000000000000000000000000000000000000000     00000000                                                                                                                        000000000000000000
F0010000006435000002000080016665600041450500000000000000000201410270002001SUMICAL DE ANTIOQUIA S.A.S                        C000000011530000000000000000000000100010010000000000000000000000F0010000006435000220141027000101 00000000000000000000000000000000000000000000000000000000000000000000000000000000000000000000000000000000000000000N 00000000000NCONT   00    00000000000          00000000000000000000000000000000000000000000 000000000000000A000000000000000000000000000000000000000000000 000000000000000000000000000000000000000     00000000                                                                                                                        000000000000000000
F0010000006435000003000080016665600042505000000000000000000201410270002001SUMICAL DE ANTIOQUIA S.A.S                        C000000002429300000000000000000000100010010000000000000000000000F0010000006435000320141027000101 00000000000000000000000000000000000000000000000000000000000000000000000000000000000000000000000000000000000000000N 00000000000NCONT   00    00000000000          00000000000000000000000000000000000000000000 000000000000000A000000000000000000000000000000000000000000000 000000000000000000000000000000000000000     00000000                                                                                                                        000000000000000000
F0010000006435000004000080016665600023658300000000000000000201410270002001SUMICAL DE ANTIOQUIA S.A.S                        C000000000092200000000000000000000100010010000000000000000000000F0010000006435000420141027000101 00000000000000000000000000000000000000000000000000000000000000000000000000000000000000000000000000000000000000000N 00000000000NCONT   00    00000000000          00000000000000000000000000000000000000000000 000000000000000A000000000000000000000000000000000000000000000 000000000000000000000000000000000000000     00000000                                                                                                                        000000000000000000
F0010000006435000005000080016665600013552100000000000000000201410270002001SUMICAL DE ANTIOQUIA S.A.S                        D000000000092200000000000000000000100010010000000000000000000000F0010000006435000520141027000101 00000000000000000000000000000000000000000000000000000000000000000000000000000000000000000000000000000000000000000N 00000000000NCONT   00    00000000000          00000000000000000000000000000000000000000000 000000000000000A000000000000000000000000000000000000000000000 000000000000000000000000000000000000000     00000000                                                                                                                        000000000000000000
F0010000006435100001000090064982900013050500000000000000000201410270002001DISDIES S.A.S                                     D000000029290800000000000000000000100010010000000000000000000000F0010000006435100120141027000101 00000000000000000000000000000000000000000000000000000000000000000000000000000000000000000000000000000000000000000N 00000000000NCONT   00    00000000000          00000000000000000000000000000000000000000000 000000000000000A000000000000000000000000000000000000000000000 000000000000000000000000000000000000000     00000000                                                                                                                        000000000000000000
F0010000006435100002000090064982900041450500000000000000000201410270002001DISDIES S.A.S                                     C000000025051300000000000000000000100010010000000000000000000000F0010000006435100220141027000101 00000000000000000000000000000000000000000000000000000000000000000000000000000000000000000000000000000000000000000N 00000000000NCONT   00    00000000000          00000000000000000000000000000000000000000000 000000000000000A000000000000000000000000000000000000000000000 000000000000000000000000000000000000000     00000000                                                                                                                        000000000000000000
F0010000006435100003000090064982900042505000000000000000000201410270002001DISDIES S.A.S                                     C000000004239500000000000000000000100010010000000000000000000000F0010000006435100320141027000101 00000000000000000000000000000000000000000000000000000000000000000000000000000000000000000000000000000000000000000N 00000000000NCONT   00    00000000000          00000000000000000000000000000000000000000000 000000000000000A000000000000000000000000000000000000000000000 000000000000000000000000000000000000000     00000000                                                                                                                        000000000000000000
F0010000006435100004000090064982900023658300000000000000000201410270002001DISDIES S.A.S                                     C000000000200400000000000000000000100010010000000000000000000000F0010000006435100420141027000101 00000000000000000000000000000000000000000000000000000000000000000000000000000000000000000000000000000000000000000N 00000000000NCONT   00    00000000000          00000000000000000000000000000000000000000000 000000000000000A000000000000000000000000000000000000000000000 000000000000000000000000000000000000000     00000000                                                                                                                        000000000000000000
F0010000006435100005000090064982900013552100000000000000000201410270002001DISDIES S.A.S                                     D000000000200400000000000000000000100010010000000000000000000000F0010000006435100520141027000101 00000000000000000000000000000000000000000000000000000000000000000000000000000000000000000000000000000000000000000N 00000000000NCONT   00    00000000000          00000000000000000000000000000000000000000000 000000000000000A000000000000000000000000000000000000000000000 000000000000000000000000000000000000000     00000000                                                                                                                        000000000000000000
F0010000006435200001000089010260300013050500000000000000000201410270002001FEDERICO OSORIO A. S.A.                           D000000149429400000000000000000000100010010000000000000000000000F0010000006435200120141027000101 00000000000000000000000000000000000000000000000000000000000000000000000000000000000000000000000000000000000000000N 00000000000NCONT   00    00000000000          00000000000000000000000000000000000000000000 000000000000000A000000000000000000000000000000000000000000000 000000000000000000000000000000000000000     00000000                                                                                                                        000000000000000000
F0010000006435200002000089010260300041450500000000000000000201410270002001FEDERICO OSORIO A. S.A.                           C000000141430000000000000000000000100010010000000000000000000000F0010000006435200220141027000101 00000000000000000000000000000000000000000000000000000000000000000000000000000000000000000000000000000000000000000N 00000000000NCONT   00    00000000000          00000000000000000000000000000000000000000000 000000000000000A000000000000000000000000000000000000000000000 000000000000000000000000000000000000000     00000000                                                                                                                        000000000000000000
F0010000006435200003000089010260300042505000000000000000000201410270002001FEDERICO OSORIO A. S.A.                           C000000007999400000000000000000000100010010000000000000000000000F0010000006435200320141027000101 00000000000000000000000000000000000000000000000000000000000000000000000000000000000000000000000000000000000000000N 00000000000NCONT   00    00000000000          00000000000000000000000000000000000000000000 000000000000000A000000000000000000000000000000000000000000000 000000000000000000000000000000000000000     00000000                                                                                                                        000000000000000000
F0010000006435200004000089010260300023658300000000000000000201410270002001FEDERICO OSORIO A. S.A.                           C000000001131400000000000000000000100010010000000000000000000000F0010000006435200420141027000101 00000000000000000000000000000000000000000000000000000000000000000000000000000000000000000000000000000000000000000N 00000000000NCONT   00    00000000000          00000000000000000000000000000000000000000000 000000000000000A000000000000000000000000000000000000000000000 000000000000000000000000000000000000000     00000000                                                                                                                        000000000000000000
F0010000006435200005000089010260300013552100000000000000000201410270002001FEDERICO OSORIO A. S.A.                           D000000001131400000000000000000000100010010000000000000000000000F0010000006435200520141027000101 00000000000000000000000000000000000000000000000000000000000000000000000000000000000000000000000000000000000000000N 00000000000NCONT   00    00000000000          00000000000000000000000000000000000000000000 000000000000000A000000000000000000000000000000000000000000000 000000000000000000000000000000000000000     00000000                                                                                                                        000000000000000000
F0010000006435300001000080201112800013050500000000000000000201410270002001CANGURO INTERNATIONAL S.A.                        D000000187363000000000000000000000100010010000000000000000000000F0010000006435300120141027000101 00000000000000000000000000000000000000000000000000000000000000000000000000000000000000000000000000000000000000000N 00000000000NCONT   00    00000000000          00000000000000000000000000000000000000000000 000000000000000A000000000000000000000000000000000000000000000 000000000000000000000000000000000000000     00000000                                                                                                                        000000000000000000
F0010000006435300002000080201112800041450500000000000000000201410270002001CANGURO INTERNATIONAL S.A.                        C000000186136700000000000000000000100010010000000000000000000000F0010000006435300220141027000101 00000000000000000000000000000000000000000000000000000000000000000000000000000000000000000000000000000000000000000N 00000000000NCONT   00    00000000000          00000000000000000000000000000000000000000000 000000000000000A000000000000000000000000000000000000000000000 000000000000000000000000000000000000000     00000000                                                                                                                        000000000000000000
F0010000006435300003000080201112800042505000000000000000000201410270002001CANGURO INTERNATIONAL S.A.                        C000000001226300000000000000000000100010010000000000000000000000F0010000006435300320141027000101 00000000000000000000000000000000000000000000000000000000000000000000000000000000000000000000000000000000000000000N 00000000000NCONT   00    00000000000          00000000000000000000000000000000000000000000 000000000000000A000000000000000000000000000000000000000000000 000000000000000000000000000000000000000     00000000                                                                                                                        000000000000000000
F0010000006435300004000080201112800023658300000000000000000201410270002001CANGURO INTERNATIONAL S.A.                        C000000001489100000000000000000000100010010000000000000000000000F0010000006435300420141027000101 00000000000000000000000000000000000000000000000000000000000000000000000000000000000000000000000000000000000000000N 00000000000NCONT   00    00000000000          00000000000000000000000000000000000000000000 000000000000000A000000000000000000000000000000000000000000000 000000000000000000000000000000000000000     00000000                                                                                                                        000000000000000000
F0010000006435300005000080201112800013552100000000000000000201410270002001CANGURO INTERNATIONAL S.A.                        D000000001489100000000000000000000100010010000000000000000000000F0010000006435300520141027000101 00000000000000000000000000000000000000000000000000000000000000000000000000000000000000000000000000000000000000000N 00000000000NCONT   00    00000000000          00000000000000000000000000000000000000000000 000000000000000A000000000000000000000000000000000000000000000 000000000000000000000000000000000000000     00000000                                                                                                                        000000000000000000
F0010000006435400001000080201112800013050500000000000000000201410270002001CANGURO INTERNATIONAL S.A.                        D000000088861000000000000000000000100010010000000000000000000000F0010000006435400120141027000101 00000000000000000000000000000000000000000000000000000000000000000000000000000000000000000000000000000000000000000N 00000000000NCONT   00    00000000000          00000000000000000000000000000000000000000000 000000000000000A000000000000000000000000000000000000000000000 000000000000000000000000000000000000000     00000000                                                                                                                        000000000000000000
F0010000006435400002000080201112800041450500000000000000000201410270002001CANGURO INTERNATIONAL S.A.                        C000000088861000000000000000000000100010010000000000000000000000F0010000006435400220141027000101 00000000000000000000000000000000000000000000000000000000000000000000000000000000000000000000000000000000000000000N 00000000000NCONT   00    00000000000          00000000000000000000000000000000000000000000 000000000000000A000000000000000000000000000000000000000000000 000000000000000000000000000000000000000     00000000                                                                                                                        000000000000000000
F0010000006435400003000080201112800042505000000000000000000201410270002001CANGURO INTERNATIONAL S.A.                        C000000000000000000000000000000000100010010000000000000000000000F0010000006435400320141027000101 00000000000000000000000000000000000000000000000000000000000000000000000000000000000000000000000000000000000000000N 00000000000NCONT   00    00000000000          00000000000000000000000000000000000000000000 000000000000000A000000000000000000000000000000000000000000000 000000000000000000000000000000000000000     00000000                                                                                                                        000000000000000000
F0010000006435400004000080201112800023658300000000000000000201410270002001CANGURO INTERNATIONAL S.A.                        C000000000710900000000000000000000100010010000000000000000000000F0010000006435400420141027000101 00000000000000000000000000000000000000000000000000000000000000000000000000000000000000000000000000000000000000000N 00000000000NCONT   00    00000000000          00000000000000000000000000000000000000000000 000000000000000A000000000000000000000000000000000000000000000 000000000000000000000000000000000000000     00000000                                                                                                                        000000000000000000
F0010000006435400005000080201112800013552100000000000000000201410270002001CANGURO INTERNATIONAL S.A.                        D000000000710900000000000000000000100010010000000000000000000000F0010000006435400520141027000101 00000000000000000000000000000000000000000000000000000000000000000000000000000000000000000000000000000000000000000N 00000000000NCONT   00    00000000000          00000000000000000000000000000000000000000000 000000000000000A000000000000000000000000000000000000000000000 000000000000000000000000000000000000000     00000000                                                                                                                        000000000000000000
F0010000006435500001000080201112800013050500000000000000000201410270002001CANGURO INTERNATIONAL S.A.                        D000000025793100000000000000000000100010010000000000000000000000F0010000006435500120141027000101 00000000000000000000000000000000000000000000000000000000000000000000000000000000000000000000000000000000000000000N 00000000000NCONT   00    00000000000          00000000000000000000000000000000000000000000 000000000000000A000000000000000000000000000000000000000000000 000000000000000000000000000000000000000     00000000                                                                                                                        000000000000000000
F0010000006435500002000080201112800041450500000000000000000201410270002001CANGURO INTERNATIONAL S.A.                        C000000024762600000000000000000000100010010000000000000000000000F0010000006435500220141027000101 00000000000000000000000000000000000000000000000000000000000000000000000000000000000000000000000000000000000000000N 00000000000NCONT   00    00000000000          00000000000000000000000000000000000000000000 000000000000000A000000000000000000000000000000000000000000000 000000000000000000000000000000000000000     00000000                                                                                                                        000000000000000000
F0010000006435500003000080201112800042505000000000000000000201410270002001CANGURO INTERNATIONAL S.A.                        C000000001030500000000000000000000100010010000000000000000000000F0010000006435500320141027000101 00000000000000000000000000000000000000000000000000000000000000000000000000000000000000000000000000000000000000000N 00000000000NCONT   00    00000000000          00000000000000000000000000000000000000000000 000000000000000A000000000000000000000000000000000000000000000 000000000000000000000000000000000000000     00000000                                                                                                                        000000000000000000
F0010000006435500004000080201112800023658300000000000000000201410270002001CANGURO INTERNATIONAL S.A.                        C000000000198100000000000000000000100010010000000000000000000000F0010000006435500420141027000101 00000000000000000000000000000000000000000000000000000000000000000000000000000000000000000000000000000000000000000N 00000000000NCONT   00    00000000000          00000000000000000000000000000000000000000000 000000000000000A000000000000000000000000000000000000000000000 000000000000000000000000000000000000000     00000000                                                                                                                        000000000000000000
F0010000006435500005000080201112800013552100000000000000000201410270002001CANGURO INTERNATIONAL S.A.                        D000000000198100000000000000000000100010010000000000000000000000F0010000006435500520141027000101 00000000000000000000000000000000000000000000000000000000000000000000000000000000000000000000000000000000000000000N 00000000000NCONT   00    00000000000          00000000000000000000000000000000000000000000 000000000000000A000000000000000000000000000000000000000000000 000000000000000000000000000000000000000     00000000                                                                                                                        000000000000000000
F0010000006435600001000080023327700013050500000000000000000201410270002001DISINCO LTDA                                      D000000009180000000000000000000000100010010000000000000000000000F0010000006435600120141027000101 00000000000000000000000000000000000000000000000000000000000000000000000000000000000000000000000000000000000000000N 00000000000NCONT   00    00000000000          00000000000000000000000000000000000000000000 000000000000000A000000000000000000000000000000000000000000000 000000000000000000000000000000000000000     00000000                                                                                                                        000000000000000000
F0010000006435600002000080023327700041450500000000000000000201410270002001DISINCO LTDA                                      C000000008800000000000000000000000100010010000000000000000000000F0010000006435600220141027000101 00000000000000000000000000000000000000000000000000000000000000000000000000000000000000000000000000000000000000000N 00000000000NCONT   00    00000000000          00000000000000000000000000000000000000000000 000000000000000A000000000000000000000000000000000000000000000 000000000000000000000000000000000000000     00000000                                                                                                                        000000000000000000
F0010000006435600003000080023327700042505000000000000000000201410270002001DISINCO LTDA                                      C000000000380000000000000000000000100010010000000000000000000000F0010000006435600320141027000101 00000000000000000000000000000000000000000000000000000000000000000000000000000000000000000000000000000000000000000N 00000000000NCONT   00    00000000000          00000000000000000000000000000000000000000000 000000000000000A000000000000000000000000000000000000000000000 000000000000000000000000000000000000000     00000000                                                                                                                        000000000000000000
F0010000006435600004000080023327700023658300000000000000000201410270002001DISINCO LTDA                                      C000000000070400000000000000000000100010010000000000000000000000F0010000006435600420141027000101 00000000000000000000000000000000000000000000000000000000000000000000000000000000000000000000000000000000000000000N 00000000000NCONT   00    00000000000          00000000000000000000000000000000000000000000 000000000000000A000000000000000000000000000000000000000000000 000000000000000000000000000000000000000     00000000                                                                                                                        000000000000000000
F0010000006435600005000080023327700013552100000000000000000201410270002001DISINCO LTDA                                      D000000000070400000000000000000000100010010000000000000000000000F0010000006435600520141027000101 00000000000000000000000000000000000000000000000000000000000000000000000000000000000000000000000000000000000000000N 00000000000NCONT   00    00000000000          00000000000000000000000000000000000000000000 000000000000000A000000000000000000000000000000000000000000000 000000000000000000000000000000000000000     00000000                                                                                                                        000000000000000000
F0010000006435700001000080202132300013050500000000000000000201410270002001SUM Y SERV DE LA COSTA LTDA                       D000000016290000000000000000000000100010010000000000000000000000F0010000006435700120141027000101 00000000000000000000000000000000000000000000000000000000000000000000000000000000000000000000000000000000000000000N 00000000000NCONT   00    00000000000          00000000000000000000000000000000000000000000 000000000000000A000000000000000000000000000000000000000000000 000000000000000000000000000000000000000     00000000                                                                                                                        000000000000000000
F0010000006435700002000080202132300041450500000000000000000201410270002001SUM Y SERV DE LA COSTA LTDA                       C000000014970000000000000000000000100010010000000000000000000000F0010000006435700220141027000101 00000000000000000000000000000000000000000000000000000000000000000000000000000000000000000000000000000000000000000N 00000000000NCONT   00    00000000000          00000000000000000000000000000000000000000000 000000000000000A000000000000000000000000000000000000000000000 000000000000000000000000000000000000000     00000000                                                                                                                        000000000000000000
F0010000006435700003000080202132300042505000000000000000000201410270002001SUM Y SERV DE LA COSTA LTDA                       C000000001320000000000000000000000100010010000000000000000000000F0010000006435700320141027000101 00000000000000000000000000000000000000000000000000000000000000000000000000000000000000000000000000000000000000000N 00000000000NCONT   00    00000000000          00000000000000000000000000000000000000000000 000000000000000A000000000000000000000000000000000000000000000 000000000000000000000000000000000000000     00000000                                                                                                                        000000000000000000
F0010000006435700004000080202132300023658300000000000000000201410270002001SUM Y SERV DE LA COSTA LTDA                       C000000000119800000000000000000000100010010000000000000000000000F0010000006435700420141027000101 00000000000000000000000000000000000000000000000000000000000000000000000000000000000000000000000000000000000000000N 00000000000NCONT   00    00000000000          00000000000000000000000000000000000000000000 000000000000000A000000000000000000000000000000000000000000000 000000000000000000000000000000000000000     00000000                                                                                                                        000000000000000000
F0010000006435700005000080202132300013552100000000000000000201410270002001SUM Y SERV DE LA COSTA LTDA                       D000000000119800000000000000000000100010010000000000000000000000F0010000006435700520141027000101 00000000000000000000000000000000000000000000000000000000000000000000000000000000000000000000000000000000000000000N 00000000000NCONT   00    00000000000          00000000000000000000000000000000000000000000 000000000000000A000000000000000000000000000000000000000000000 000000000000000000000000000000000000000     00000000                                                                                                                        000000000000000000
F0010000006435800001000000744822500013050500000000000000000201410270002001PERFUMERIA BORGE                                  D000000028105000000000000000000000100010010000000000000000000000F0010000006435800120141027000101 00000000000000000000000000000000000000000000000000000000000000000000000000000000000000000000000000000000000000000N 00000000000NCONT   00    00000000000          00000000000000000000000000000000000000000000 000000000000000A000000000000000000000000000000000000000000000 000000000000000000000000000000000000000     00000000                                                                                                                        000000000000000000
F0010000006435800002000000744822500041450500000000000000000201410270002001PERFUMERIA BORGE                                  C000000020370000000000000000000000100010010000000000000000000000F0010000006435800220141027000101 00000000000000000000000000000000000000000000000000000000000000000000000000000000000000000000000000000000000000000N 00000000000NCONT   00    00000000000          00000000000000000000000000000000000000000000 000000000000000A000000000000000000000000000000000000000000000 000000000000000000000000000000000000000     00000000                                                                                                                        000000000000000000
F0010000006435800003000000744822500042505000000000000000000201410270002001PERFUMERIA BORGE                                  C000000007735000000000000000000000100010010000000000000000000000F0010000006435800320141027000101 00000000000000000000000000000000000000000000000000000000000000000000000000000000000000000000000000000000000000000N 00000000000NCONT   00    00000000000          00000000000000000000000000000000000000000000 000000000000000A000000000000000000000000000000000000000000000 000000000000000000000000000000000000000     00000000                                                                                                                        000000000000000000
F0010000006435800004000000744822500023658300000000000000000201410270002001PERFUMERIA BORGE                                  C000000000163000000000000000000000100010010000000000000000000000F0010000006435800420141027000101 00000000000000000000000000000000000000000000000000000000000000000000000000000000000000000000000000000000000000000N 00000000000NCONT   00    00000000000          00000000000000000000000000000000000000000000 000000000000000A000000000000000000000000000000000000000000000 000000000000000000000000000000000000000     00000000                                                                                                                        000000000000000000
F0010000006435800005000000744822500013552100000000000000000201410270002001PERFUMERIA BORGE                                  D000000000163000000000000000000000100010010000000000000000000000F0010000006435800520141027000101 00000000000000000000000000000000000000000000000000000000000000000000000000000000000000000000000000000000000000000N 00000000000NCONT   00    00000000000          00000000000000000000000000000000000000000000 000000000000000A000000000000000000000000000000000000000000000 000000000000000000000000000000000000000     00000000                                                                                                                        000000000000000000
F0010000006435900001000089010272700013050500000000000000000201410270002001ALFONSOEME S.A.                                   D000000069168900000000000000000000100010010000000000000000000000F0010000006435900120141027000101 00000000000000000000000000000000000000000000000000000000000000000000000000000000000000000000000000000000000000000N 00000000000NCONT   00    00000000000          00000000000000000000000000000000000000000000 000000000000000A000000000000000000000000000000000000000000000 000000000000000000000000000000000000000     00000000                                                                                                                        000000000000000000
F0010000006435900002000089010272700041450500000000000000000201410270002001ALFONSOEME S.A.                                   C000000072498800000000000000000000100010010000000000000000000000F0010000006435900220141027000101 00000000000000000000000000000000000000000000000000000000000000000000000000000000000000000000000000000000000000000N 00000000000NCONT   00    00000000000          00000000000000000000000000000000000000000000 000000000000000A000000000000000000000000000000000000000000000 000000000000000000000000000000000000000     00000000                                                                                                                        000000000000000000
F0010000006435900003000089010272700041750100000000000000000201410270002001ALFONSOEME S.A.                                   D000000007249900000000000000000000100010010000000000000000000000F0010000006435900320141027000101 00000000000000000000000000000000000000000000000000000000000000000000000000000000000000000000000000000000000000000N 00000000000NCONT   00    00000000000          00000000000000000000000000000000000000000000 000000000000000A000000000000000000000000000000000000000000000 000000000000000000000000000000000000000     00000000                                                                                                                        000000000000000000
F0010000006435900004000089010272700042505000000000000000000201410270002001ALFONSOEME S.A.                                   C000000003920000000000000000000000100010010000000000000000000000F0010000006435900420141027000101 00000000000000000000000000000000000000000000000000000000000000000000000000000000000000000000000000000000000000000N 00000000000NCONT   00    00000000000          00000000000000000000000000000000000000000000 000000000000000A000000000000000000000000000000000000000000000 000000000000000000000000000000000000000     00000000                                                                                                                        000000000000000000
F0010000006435900005000089010272700023658300000000000000000201410270002001ALFONSOEME S.A.                                   C000000000580000000000000000000000100010010000000000000000000000F0010000006435900520141027000101 00000000000000000000000000000000000000000000000000000000000000000000000000000000000000000000000000000000000000000N 00000000000NCONT   00    00000000000          00000000000000000000000000000000000000000000 000000000000000A000000000000000000000000000000000000000000000 000000000000000000000000000000000000000     00000000                                                                                                                        000000000000000000
F0010000006435900006000089010272700013552100000000000000000201410270002001ALFONSOEME S.A.                                   D000000000580000000000000000000000100010010000000000000000000000F0010000006435900620141027000101 00000000000000000000000000000000000000000000000000000000000000000000000000000000000000000000000000000000000000000N 00000000000NCONT   00    00000000000          00000000000000000000000000000000000000000000 000000000000000A000000000000000000000000000000000000000000000 000000000000000000000000000000000000000     00000000                                                                                                                        000000000000000000
F0010000006436000001000089010272700013050500000000000000000201410270002001ALFONSOEME S.A.                                   D000000064567900000000000000000000100010010000000000000000000000F0010000006436000120141027000101 00000000000000000000000000000000000000000000000000000000000000000000000000000000000000000000000000000000000000000N 00000000000NCONT   00    00000000000          00000000000000000000000000000000000000000000 000000000000000A000000000000000000000000000000000000000000000 000000000000000000000000000000000000000     00000000                                                                                                                        000000000000000000
F0010000006436000002000089010272700041450500000000000000000201410270002001ALFONSOEME S.A.                                   C000000067831000000000000000000000100010010000000000000000000000F0010000006436000220141027000101 00000000000000000000000000000000000000000000000000000000000000000000000000000000000000000000000000000000000000000N 00000000000NCONT   00    00000000000          00000000000000000000000000000000000000000000 000000000000000A000000000000000000000000000000000000000000000 000000000000000000000000000000000000000     00000000                                                                                                                        000000000000000000
F0010000006436000003000089010272700041750100000000000000000201410270002001ALFONSOEME S.A.                                   D000000006783100000000000000000000100010010000000000000000000000F0010000006436000320141027000101 00000000000000000000000000000000000000000000000000000000000000000000000000000000000000000000000000000000000000000N 00000000000NCONT   00    00000000000          00000000000000000000000000000000000000000000 000000000000000A000000000000000000000000000000000000000000000 000000000000000000000000000000000000000     00000000                                                                                                                        000000000000000000
F0010000006436000004000089010272700042505000000000000000000201410270002001ALFONSOEME S.A.                                   C000000003520000000000000000000000100010010000000000000000000000F0010000006436000420141027000101 00000000000000000000000000000000000000000000000000000000000000000000000000000000000000000000000000000000000000000N 00000000000NCONT   00    00000000000          00000000000000000000000000000000000000000000 000000000000000A000000000000000000000000000000000000000000000 000000000000000000000000000000000000000     00000000                                                                                                                        000000000000000000
F0010000006436000005000089010272700023658300000000000000000201410270002001ALFONSOEME S.A.                                   C000000000542600000000000000000000100010010000000000000000000000F0010000006436000520141027000101 00000000000000000000000000000000000000000000000000000000000000000000000000000000000000000000000000000000000000000N 00000000000NCONT   00    00000000000          00000000000000000000000000000000000000000000 000000000000000A000000000000000000000000000000000000000000000 000000000000000000000000000000000000000     00000000                                                                                                                        000000000000000000
F0010000006436000006000089010272700013552100000000000000000201410270002001ALFONSOEME S.A.                                   D000000000542600000000000000000000100010010000000000000000000000F0010000006436000620141027000101 00000000000000000000000000000000000000000000000000000000000000000000000000000000000000000000000000000000000000000N 00000000000NCONT   00    00000000000          00000000000000000000000000000000000000000000 000000000000000A000000000000000000000000000000000000000000000 000000000000000000000000000000000000000     00000000                                                                                                                        000000000000000000
F0010000006436100001000089010272700013050500000000000000000201410270002001ALFONSOEME S.A.                                   D000000005961900000000000000000000100010010000000000000000000000F0010000006436100120141027000101 00000000000000000000000000000000000000000000000000000000000000000000000000000000000000000000000000000000000000000N 00000000000NCONT   00    00000000000          00000000000000000000000000000000000000000000 000000000000000A000000000000000000000000000000000000000000000 000000000000000000000000000000000000000     00000000                                                                                                                        000000000000000000
F0010000006436100002000089010272700041450500000000000000000201410270002001ALFONSOEME S.A.                                   C000000006002100000000000000000000100010010000000000000000000000F0010000006436100220141027000101 00000000000000000000000000000000000000000000000000000000000000000000000000000000000000000000000000000000000000000N 00000000000NCONT   00    00000000000          00000000000000000000000000000000000000000000 000000000000000A000000000000000000000000000000000000000000000 000000000000000000000000000000000000000     00000000                                                                                                                        000000000000000000
F0010000006436100003000089010272700041750100000000000000000201410270002001ALFONSOEME S.A.                                   D000000000600200000000000000000000100010010000000000000000000000F0010000006436100320141027000101 00000000000000000000000000000000000000000000000000000000000000000000000000000000000000000000000000000000000000000N 00000000000NCONT   00    00000000000          00000000000000000000000000000000000000000000 000000000000000A000000000000000000000000000000000000000000000 000000000000000000000000000000000000000     00000000                                                                                                                        000000000000000000
F0010000006436100004000089010272700042505000000000000000000201410270002001ALFONSOEME S.A.                                   C000000000560000000000000000000000100010010000000000000000000000F0010000006436100420141027000101 00000000000000000000000000000000000000000000000000000000000000000000000000000000000000000000000000000000000000000N 00000000000NCONT   00    00000000000          00000000000000000000000000000000000000000000 000000000000000A000000000000000000000000000000000000000000000 000000000000000000000000000000000000000     00000000                                                                                                                        000000000000000000
F0010000006436100005000089010272700023658300000000000000000201410270002001ALFONSOEME S.A.                                   C000000000048000000000000000000000100010010000000000000000000000F0010000006436100520141027000101 00000000000000000000000000000000000000000000000000000000000000000000000000000000000000000000000000000000000000000N 00000000000NCONT   00    00000000000          00000000000000000000000000000000000000000000 000000000000000A000000000000000000000000000000000000000000000 000000000000000000000000000000000000000     00000000                                                                                                                        000000000000000000
F0010000006436100006000089010272700013552100000000000000000201410270002001ALFONSOEME S.A.                                   D000000000048000000000000000000000100010010000000000000000000000F0010000006436100620141027000101 00000000000000000000000000000000000000000000000000000000000000000000000000000000000000000000000000000000000000000N 00000000000NCONT   00    00000000000          00000000000000000000000000000000000000000000 000000000000000A000000000000000000000000000000000000000000000 000000000000000000000000000000000000000     00000000                                                                                                                        000000000000000000
F0010000006436200001000007215896800013050500000000000000000201410270002001EDDIER CIRO                                       D000000045917500000000000000000000100010010000000000000000000000F0010000006436200120141027000101 00000000000000000000000000000000000000000000000000000000000000000000000000000000000000000000000000000000000000000N 00000000000NCONT   00    00000000000          00000000000000000000000000000000000000000000 000000000000000A000000000000000000000000000000000000000000000 000000000000000000000000000000000000000     00000000                                                                                                                        000000000000000000
F0010000006436200002000007215896800041450500000000000000000201410270002001EDDIER CIRO                                       C000000037300000000000000000000000100010010000000000000000000000F0010000006436200220141027000101 00000000000000000000000000000000000000000000000000000000000000000000000000000000000000000000000000000000000000000N 00000000000NCONT   00    00000000000          00000000000000000000000000000000000000000000 000000000000000A000000000000000000000000000000000000000000000 000000000000000000000000000000000000000     00000000                                                                                                                        000000000000000000
F0010000006436200003000007215896800042505000000000000000000201410270002001EDDIER CIRO                                       C000000008617500000000000000000000100010010000000000000000000000F0010000006436200320141027000101 00000000000000000000000000000000000000000000000000000000000000000000000000000000000000000000000000000000000000000N 00000000000NCONT   00    00000000000          00000000000000000000000000000000000000000000 000000000000000A000000000000000000000000000000000000000000000 000000000000000000000000000000000000000     00000000                                                                                                                        000000000000000000
F0010000006436200004000007215896800023658300000000000000000201410270002001EDDIER CIRO                                       C000000000298400000000000000000000100010010000000000000000000000F0010000006436200420141027000101 00000000000000000000000000000000000000000000000000000000000000000000000000000000000000000000000000000000000000000N 00000000000NCONT   00    00000000000          00000000000000000000000000000000000000000000 000000000000000A000000000000000000000000000000000000000000000 000000000000000000000000000000000000000     00000000                                                                                                                        000000000000000000
F0010000006436200005000007215896800013552100000000000000000201410270002001EDDIER CIRO                                       D000000000298400000000000000000000100010010000000000000000000000F0010000006436200520141027000101 00000000000000000000000000000000000000000000000000000000000000000000000000000000000000000000000000000000000000000N 00000000000NCONT   00    00000000000          00000000000000000000000000000000000000000000 000000000000000A000000000000000000000000000000000000000000000 000000000000000000000000000000000000000     00000000                                                                                                                        000000000000000000
F0010000006436300001000090001973700013050500000000000000000201410270002001DISTRIBUIDORA Y PAPELERIA VENEPLAS LTDA           D000000009250000000000000000000000100010010000000000000000000000F0010000006436300120141027000101 00000000000000000000000000000000000000000000000000000000000000000000000000000000000000000000000000000000000000000N 00000000000NCONT   00    00000000000          00000000000000000000000000000000000000000000 000000000000000A000000000000000000000000000000000000000000000 000000000000000000000000000000000000000     00000000                                                                                                                        000000000000000000
F0010000006436300002000090001973700041450500000000000000000201410270002001DISTRIBUIDORA Y PAPELERIA VENEPLAS LTDA           C000000008800000000000000000000000100010010000000000000000000000F0010000006436300220141027000101 00000000000000000000000000000000000000000000000000000000000000000000000000000000000000000000000000000000000000000N 00000000000NCONT   00    00000000000          00000000000000000000000000000000000000000000 000000000000000A000000000000000000000000000000000000000000000 000000000000000000000000000000000000000     00000000                                                                                                                        000000000000000000
F0010000006436300003000090001973700042505000000000000000000201410270002001DISTRIBUIDORA Y PAPELERIA VENEPLAS LTDA           C000000000450000000000000000000000100010010000000000000000000000F0010000006436300320141027000101 00000000000000000000000000000000000000000000000000000000000000000000000000000000000000000000000000000000000000000N 00000000000NCONT   00    00000000000          00000000000000000000000000000000000000000000 000000000000000A000000000000000000000000000000000000000000000 000000000000000000000000000000000000000     00000000                                                                                                                        000000000000000000
F0010000006436300004000090001973700023658300000000000000000201410270002001DISTRIBUIDORA Y PAPELERIA VENEPLAS LTDA           C000000000070400000000000000000000100010010000000000000000000000F0010000006436300420141027000101 00000000000000000000000000000000000000000000000000000000000000000000000000000000000000000000000000000000000000000N 00000000000NCONT   00    00000000000          00000000000000000000000000000000000000000000 000000000000000A000000000000000000000000000000000000000000000 000000000000000000000000000000000000000     00000000                                                                                                                        000000000000000000
F0010000006436300005000090001973700013552100000000000000000201410270002001DISTRIBUIDORA Y PAPELERIA VENEPLAS LTDA           D000000000070400000000000000000000100010010000000000000000000000F0010000006436300520141027000101 00000000000000000000000000000000000000000000000000000000000000000000000000000000000000000000000000000000000000000N 00000000000NCONT   00    00000000000          00000000000000000000000000000000000000000000 000000000000000A000000000000000000000000000000000000000000000 000000000000000000000000000000000000000     00000000                                                                                                                        000000000000000000
F0010000006436400001000090019362000013050500000000000000000201410270002001GENERAL SUPPLIES CIA LTDA                         D000000016016000000000000000000000100010010000000000000000000000F0010000006436400120141027000101 00000000000000000000000000000000000000000000000000000000000000000000000000000000000000000000000000000000000000000N 00000000000NCONT   00    00000000000          00000000000000000000000000000000000000000000 000000000000000A000000000000000000000000000000000000000000000 000000000000000000000000000000000000000     00000000                                                                                                                        000000000000000000
F0010000006436400002000090019362000041450500000000000000000201410270002001GENERAL SUPPLIES CIA LTDA                         C000000013500000000000000000000000100010010000000000000000000000F0010000006436400220141027000101 00000000000000000000000000000000000000000000000000000000000000000000000000000000000000000000000000000000000000000N 00000000000NCONT   00    00000000000          00000000000000000000000000000000000000000000 000000000000000A000000000000000000000000000000000000000000000 000000000000000000000000000000000000000     00000000                                                                                                                        000000000000000000
F0010000006436400003000090019362000042505000000000000000000201410270002001GENERAL SUPPLIES CIA LTDA                         C000000002516000000000000000000000100010010000000000000000000000F0010000006436400320141027000101 00000000000000000000000000000000000000000000000000000000000000000000000000000000000000000000000000000000000000000N 00000000000NCONT   00    00000000000          00000000000000000000000000000000000000000000 000000000000000A000000000000000000000000000000000000000000000 000000000000000000000000000000000000000     00000000                                                                                                                        000000000000000000
F0010000006436400004000090019362000023658300000000000000000201410270002001GENERAL SUPPLIES CIA LTDA                         C000000000108000000000000000000000100010010000000000000000000000F0010000006436400420141027000101 00000000000000000000000000000000000000000000000000000000000000000000000000000000000000000000000000000000000000000N 00000000000NCONT   00    00000000000          00000000000000000000000000000000000000000000 000000000000000A000000000000000000000000000000000000000000000 000000000000000000000000000000000000000     00000000                                                                                                                        000000000000000000
F0010000006436400005000090019362000013552100000000000000000201410270002001GENERAL SUPPLIES CIA LTDA                         D000000000108000000000000000000000100010010000000000000000000000F0010000006436400520141027000101 00000000000000000000000000000000000000000000000000000000000000000000000000000000000000000000000000000000000000000N 00000000000NCONT   00    00000000000          00000000000000000000000000000000000000000000 000000000000000A000000000000000000000000000000000000000000000 000000000000000000000000000000000000000     00000000                                                                                                                        000000000000000000
F0010000006436500001000090007142100013050500000000000000000201410270002001TODO BELLEZA Y MAX S.A.S                          D000000005495000000000000000000000100010010000000000000000000000F0010000006436500120141027000101 00000000000000000000000000000000000000000000000000000000000000000000000000000000000000000000000000000000000000000N 00000000000NCONT   00    00000000000          00000000000000000000000000000000000000000000 000000000000000A000000000000000000000000000000000000000000000 000000000000000000000000000000000000000     00000000                                                                                                                        000000000000000000
F0010000006436500002000090007142100041450500000000000000000201410270002001TODO BELLEZA Y MAX S.A.S                          C000000005120000000000000000000000100010010000000000000000000000F0010000006436500220141027000101 00000000000000000000000000000000000000000000000000000000000000000000000000000000000000000000000000000000000000000N 00000000000NCONT   00    00000000000          00000000000000000000000000000000000000000000 000000000000000A000000000000000000000000000000000000000000000 000000000000000000000000000000000000000     00000000                                                                                                                        000000000000000000
F0010000006436500003000090007142100042505000000000000000000201410270002001TODO BELLEZA Y MAX S.A.S                          C000000000375000000000000000000000100010010000000000000000000000F0010000006436500320141027000101 00000000000000000000000000000000000000000000000000000000000000000000000000000000000000000000000000000000000000000N 00000000000NCONT   00    00000000000          00000000000000000000000000000000000000000000 000000000000000A000000000000000000000000000000000000000000000 000000000000000000000000000000000000000     00000000                                                                                                                        000000000000000000
F0010000006436500004000090007142100023658300000000000000000201410270002001TODO BELLEZA Y MAX S.A.S                          C000000000041000000000000000000000100010010000000000000000000000F0010000006436500420141027000101 00000000000000000000000000000000000000000000000000000000000000000000000000000000000000000000000000000000000000000N 00000000000NCONT   00    00000000000          00000000000000000000000000000000000000000000 000000000000000A000000000000000000000000000000000000000000000 000000000000000000000000000000000000000     00000000                                                                                                                        000000000000000000
F0010000006436500005000090007142100013552100000000000000000201410270002001TODO BELLEZA Y MAX S.A.S                          D000000000041000000000000000000000100010010000000000000000000000F0010000006436500520141027000101 00000000000000000000000000000000000000000000000000000000000000000000000000000000000000000000000000000000000000000N 00000000000NCONT   00    00000000000          00000000000000000000000000000000000000000000 000000000000000A000000000000000000000000000000000000000000000 000000000000000000000000000000000000000     00000000                                                                                                                        000000000000000000
F0010000006436600001000000431178400013050500000000000000000201410270002001EFRAIN ALVAREZ                                    D000000016535000000000000000000000100010010000000000000000000000F0010000006436600120141027000101 00000000000000000000000000000000000000000000000000000000000000000000000000000000000000000000000000000000000000000N 00000000000NCONT   00    00000000000          00000000000000000000000000000000000000000000 000000000000000A000000000000000000000000000000000000000000000 000000000000000000000000000000000000000     00000000                                                                                                                        000000000000000000
F0010000006436600002000000431178400041450500000000000000000201410270002001EFRAIN ALVAREZ                                    C000000015760000000000000000000000100010010000000000000000000000F0010000006436600220141027000101 00000000000000000000000000000000000000000000000000000000000000000000000000000000000000000000000000000000000000000N 00000000000NCONT   00    00000000000          00000000000000000000000000000000000000000000 000000000000000A000000000000000000000000000000000000000000000 000000000000000000000000000000000000000     00000000                                                                                                                        000000000000000000
F0010000006436600003000000431178400042505000000000000000000201410270002001EFRAIN ALVAREZ                                    C000000000775000000000000000000000100010010000000000000000000000F0010000006436600320141027000101 00000000000000000000000000000000000000000000000000000000000000000000000000000000000000000000000000000000000000000N 00000000000NCONT   00    00000000000          00000000000000000000000000000000000000000000 000000000000000A000000000000000000000000000000000000000000000 000000000000000000000000000000000000000     00000000                                                                                                                        000000000000000000
F0010000006436600004000000431178400023658300000000000000000201410270002001EFRAIN ALVAREZ                                    C000000000126100000000000000000000100010010000000000000000000000F0010000006436600420141027000101 00000000000000000000000000000000000000000000000000000000000000000000000000000000000000000000000000000000000000000N 00000000000NCONT   00    00000000000          00000000000000000000000000000000000000000000 000000000000000A000000000000000000000000000000000000000000000 000000000000000000000000000000000000000     00000000                                                                                                                        000000000000000000
F0010000006436600005000000431178400013552100000000000000000201410270002001EFRAIN ALVAREZ                                    D000000000126100000000000000000000100010010000000000000000000000F0010000006436600520141027000101 00000000000000000000000000000000000000000000000000000000000000000000000000000000000000000000000000000000000000000N 00000000000NCONT   00    00000000000          00000000000000000000000000000000000000000000 000000000000000A000000000000000000000000000000000000000000000 000000000000000000000000000000000000000     00000000                                                                                                                        000000000000000000
F0010000006436700001000001022529300013050500000000000000000201410270002001ALBERTO ALVAREZ ISAZA                             D000000019715000000000000000000000100010010000000000000000000000F0010000006436700120141027000101 00000000000000000000000000000000000000000000000000000000000000000000000000000000000000000000000000000000000000000N 00000000000NCONT   00    00000000000          00000000000000000000000000000000000000000000 000000000000000A000000000000000000000000000000000000000000000 000000000000000000000000000000000000000     00000000                                                                                                                        000000000000000000
F0010000006436700002000001022529300041450500000000000000000201410270002001ALBERTO ALVAREZ ISAZA                             C000000018900000000000000000000000100010010000000000000000000000F0010000006436700220141027000101 00000000000000000000000000000000000000000000000000000000000000000000000000000000000000000000000000000000000000000N 00000000000NCONT   00    00000000000          00000000000000000000000000000000000000000000 000000000000000A000000000000000000000000000000000000000000000 000000000000000000000000000000000000000     00000000                                                                                                                        000000000000000000
F0010000006436700003000001022529300042505000000000000000000201410270002001ALBERTO ALVAREZ ISAZA                             C000000000815000000000000000000000100010010000000000000000000000F0010000006436700320141027000101 00000000000000000000000000000000000000000000000000000000000000000000000000000000000000000000000000000000000000000N 00000000000NCONT   00    00000000000          00000000000000000000000000000000000000000000 000000000000000A000000000000000000000000000000000000000000000 000000000000000000000000000000000000000     00000000                                                                                                                        000000000000000000
F0010000006436700004000001022529300023658300000000000000000201410270002001ALBERTO ALVAREZ ISAZA                             C000000000151200000000000000000000100010010000000000000000000000F0010000006436700420141027000101 00000000000000000000000000000000000000000000000000000000000000000000000000000000000000000000000000000000000000000N 00000000000NCONT   00    00000000000          00000000000000000000000000000000000000000000 000000000000000A000000000000000000000000000000000000000000000 000000000000000000000000000000000000000     00000000                                                                                                                        000000000000000000
F0010000006436700005000001022529300013552100000000000000000201410270002001ALBERTO ALVAREZ ISAZA                             D000000000151200000000000000000000100010010000000000000000000000F0010000006436700520141027000101 00000000000000000000000000000000000000000000000000000000000000000000000000000000000000000000000000000000000000000N 00000000000NCONT   00    00000000000          00000000000000000000000000000000000000000000 000000000000000A000000000000000000000000000000000000000000000 000000000000000000000000000000000000000     00000000                                                                                                                        000000000000000000
F0010000006436800001000090038852800013050500000000000000000201410270002001EL COMERCIO ELECTRICO DE LA CO                    D000000043610000000000000000000000100010010000000000000000000000F0010000006436800120141027000101 00000000000000000000000000000000000000000000000000000000000000000000000000000000000000000000000000000000000000000N 00000000000NCONT   00    00000000000          00000000000000000000000000000000000000000000 000000000000000A000000000000000000000000000000000000000000000 000000000000000000000000000000000000000     00000000                                                                                                                        000000000000000000
F0010000006436800002000090038852800041450500000000000000000201410270002001EL COMERCIO ELECTRICO DE LA CO                    C000000029040000000000000000000000100010010000000000000000000000F0010000006436800220141027000101 00000000000000000000000000000000000000000000000000000000000000000000000000000000000000000000000000000000000000000N 00000000000NCONT   00    00000000000          00000000000000000000000000000000000000000000 000000000000000A000000000000000000000000000000000000000000000 000000000000000000000000000000000000000     00000000                                                                                                                        000000000000000000
F0010000006436800003000090038852800042505000000000000000000201410270002001EL COMERCIO ELECTRICO DE LA CO                    C000000014570000000000000000000000100010010000000000000000000000F0010000006436800320141027000101 00000000000000000000000000000000000000000000000000000000000000000000000000000000000000000000000000000000000000000N 00000000000NCONT   00    00000000000          00000000000000000000000000000000000000000000 000000000000000A000000000000000000000000000000000000000000000 000000000000000000000000000000000000000     00000000                                                                                                                        000000000000000000
F0010000006436800004000090038852800023658300000000000000000201410270002001EL COMERCIO ELECTRICO DE LA CO                    C000000000232300000000000000000000100010010000000000000000000000F0010000006436800420141027000101 00000000000000000000000000000000000000000000000000000000000000000000000000000000000000000000000000000000000000000N 00000000000NCONT   00    00000000000          00000000000000000000000000000000000000000000 000000000000000A000000000000000000000000000000000000000000000 000000000000000000000000000000000000000     00000000                                                                                                                        000000000000000000
F0010000006436800005000090038852800013552100000000000000000201410270002001EL COMERCIO ELECTRICO DE LA CO                    D000000000232300000000000000000000100010010000000000000000000000F0010000006436800520141027000101 00000000000000000000000000000000000000000000000000000000000000000000000000000000000000000000000000000000000000000N 00000000000NCONT   00    00000000000          00000000000000000000000000000000000000000000 000000000000000A000000000000000000000000000000000000000000000 000000000000000000000000000000000000000     00000000                                                                                                                        000000000000000000
F0010000006436900001000000870907300013050500000000000000000201410270002001SURTIDOR FERRETERO                                D000000052906000000000000000000000100010010000000000000000000000F0010000006436900120141027000101 00000000000000000000000000000000000000000000000000000000000000000000000000000000000000000000000000000000000000000N 00000000000NCONT   00    00000000000          00000000000000000000000000000000000000000000 000000000000000A000000000000000000000000000000000000000000000 000000000000000000000000000000000000000     00000000                                                                                                                        000000000000000000
F0010000006436900002000000870907300041450500000000000000000201410270002001SURTIDOR FERRETERO                                C000000043440000000000000000000000100010010000000000000000000000F0010000006436900220141027000101 00000000000000000000000000000000000000000000000000000000000000000000000000000000000000000000000000000000000000000N 00000000000NCONT   00    00000000000          00000000000000000000000000000000000000000000 000000000000000A000000000000000000000000000000000000000000000 000000000000000000000000000000000000000     00000000                                                                                                                        000000000000000000
F0010000006436900003000000870907300041750100000000000000000201410270002001SURTIDOR FERRETERO                                D000000004344000000000000000000000100010010000000000000000000000F0010000006436900320141027000101 00000000000000000000000000000000000000000000000000000000000000000000000000000000000000000000000000000000000000000N 00000000000NCONT   00    00000000000          00000000000000000000000000000000000000000000 000000000000000A000000000000000000000000000000000000000000000 000000000000000000000000000000000000000     00000000                                                                                                                        000000000000000000
F0010000006436900004000000870907300042505000000000000000000201410270002001SURTIDOR FERRETERO                                C000000013810000000000000000000000100010010000000000000000000000F0010000006436900420141027000101 00000000000000000000000000000000000000000000000000000000000000000000000000000000000000000000000000000000000000000N 00000000000NCONT   00    00000000000          00000000000000000000000000000000000000000000 000000000000000A000000000000000000000000000000000000000000000 000000000000000000000000000000000000000     00000000                                                                                                                        000000000000000000
F0010000006436900005000000870907300023658300000000000000000201410270002001SURTIDOR FERRETERO                                C000000000347500000000000000000000100010010000000000000000000000F0010000006436900520141027000101 00000000000000000000000000000000000000000000000000000000000000000000000000000000000000000000000000000000000000000N 00000000000NCONT   00    00000000000          00000000000000000000000000000000000000000000 000000000000000A000000000000000000000000000000000000000000000 000000000000000000000000000000000000000     00000000                                                                                                                        000000000000000000
F0010000006436900006000000870907300013552100000000000000000201410270002001SURTIDOR FERRETERO                                D000000000347500000000000000000000100010010000000000000000000000F0010000006436900620141027000101 00000000000000000000000000000000000000000000000000000000000000000000000000000000000000000000000000000000000000000N 00000000000NCONT   00    00000000000          00000000000000000000000000000000000000000000 000000000000000A000000000000000000000000000000000000000000000 000000000000000000000000000000000000000     00000000                                                                                                                        000000000000000000
F0010000006437000001000090050863700013050500000000000000000201410270002001COMERCIALIZADORA PERFECT SAS                      D000000004896500000000000000000000100010010000000000000000000000F0010000006437000120141027000101 00000000000000000000000000000000000000000000000000000000000000000000000000000000000000000000000000000000000000000N 00000000000NCONT   00    00000000000          00000000000000000000000000000000000000000000 000000000000000A000000000000000000000000000000000000000000000 000000000000000000000000000000000000000     00000000                                                                                                                        000000000000000000
F0010000006437000002000090050863700041450500000000000000000201410270002001COMERCIALIZADORA PERFECT SAS                      C000000003121500000000000000000000100010010000000000000000000000F0010000006437000220141027000101 00000000000000000000000000000000000000000000000000000000000000000000000000000000000000000000000000000000000000000N 00000000000NCONT   00    00000000000          00000000000000000000000000000000000000000000 000000000000000A000000000000000000000000000000000000000000000 000000000000000000000000000000000000000     00000000                                                                                                                        000000000000000000
F0010000006437000003000090050863700042505000000000000000000201410270002001COMERCIALIZADORA PERFECT SAS                      C000000001775000000000000000000000100010010000000000000000000000F0010000006437000320141027000101 00000000000000000000000000000000000000000000000000000000000000000000000000000000000000000000000000000000000000000N 00000000000NCONT   00    00000000000          00000000000000000000000000000000000000000000 000000000000000A000000000000000000000000000000000000000000000 000000000000000000000000000000000000000     00000000                                                                                                                        000000000000000000
F0010000006437000004000090050863700023658300000000000000000201410270002001COMERCIALIZADORA PERFECT SAS                      C000000000025000000000000000000000100010010000000000000000000000F0010000006437000420141027000101 00000000000000000000000000000000000000000000000000000000000000000000000000000000000000000000000000000000000000000N 00000000000NCONT   00    00000000000          00000000000000000000000000000000000000000000 000000000000000A000000000000000000000000000000000000000000000 000000000000000000000000000000000000000     00000000                                                                                                                        000000000000000000
F0010000006437000005000090050863700013552100000000000000000201410270002001COMERCIALIZADORA PERFECT SAS                      D000000000025000000000000000000000100010010000000000000000000000F0010000006437000520141027000101 00000000000000000000000000000000000000000000000000000000000000000000000000000000000000000000000000000000000000000N 00000000000NCONT   00    00000000000          00000000000000000000000000000000000000000000 000000000000000A000000000000000000000000000000000000000000000 000000000000000000000000000000000000000     00000000                                                                                                                        000000000000000000
F0010000006437100001000090020547900013050500000000000000000201410270002001DAC DEL CARIBE S.A.S.                             D000000002115200000000000000000000100010010000000000000000000000F0010000006437100120141027000101 00000000000000000000000000000000000000000000000000000000000000000000000000000000000000000000000000000000000000000N 00000000000NCONT   00    00000000000          00000000000000000000000000000000000000000000 000000000000000A000000000000000000000000000000000000000000000 000000000000000000000000000000000000000     00000000                                                                                                                        000000000000000000
F0010000006437100002000090020547900041450500000000000000000201410270002001DAC DEL CARIBE S.A.S.                             C000000001800000000000000000000000100010010000000000000000000000F0010000006437100220141027000101 00000000000000000000000000000000000000000000000000000000000000000000000000000000000000000000000000000000000000000N 00000000000NCONT   00    00000000000          00000000000000000000000000000000000000000000 000000000000000A000000000000000000000000000000000000000000000 000000000000000000000000000000000000000     00000000                                                                                                                        000000000000000000
F0010000006437100003000090020547900042505000000000000000000201410270002001DAC DEL CARIBE S.A.S.                             C000000000315200000000000000000000100010010000000000000000000000F0010000006437100320141027000101 00000000000000000000000000000000000000000000000000000000000000000000000000000000000000000000000000000000000000000N 00000000000NCONT   00    00000000000          00000000000000000000000000000000000000000000 000000000000000A000000000000000000000000000000000000000000000 000000000000000000000000000000000000000     00000000                                                                                                                        000000000000000000
F0010000006437100004000090020547900023658300000000000000000201410270002001DAC DEL CARIBE S.A.S.                             C000000000014400000000000000000000100010010000000000000000000000F0010000006437100420141027000101 00000000000000000000000000000000000000000000000000000000000000000000000000000000000000000000000000000000000000000N 00000000000NCONT   00    00000000000          00000000000000000000000000000000000000000000 000000000000000A000000000000000000000000000000000000000000000 000000000000000000000000000000000000000     00000000                                                                                                                        000000000000000000
F0010000006437100005000090020547900013552100000000000000000201410270002001DAC DEL CARIBE S.A.S.                             D000000000014400000000000000000000100010010000000000000000000000F0010000006437100520141027000101 00000000000000000000000000000000000000000000000000000000000000000000000000000000000000000000000000000000000000000N 00000000000NCONT   00    00000000000          00000000000000000000000000000000000000000000 000000000000000A000000000000000000000000000000000000000000000 000000000000000000000000000000000000000     00000000                                                                                                                        000000000000000000
F0010000006437200001000001719393900013050500000000000000000201410270002001JAIRO BASTIDAS RAMIREZ                            D000000026250000000000000000000000100010010000000000000000000000F0010000006437200120141027000101 00000000000000000000000000000000000000000000000000000000000000000000000000000000000000000000000000000000000000000N 00000000000NCONT   00    00000000000          00000000000000000000000000000000000000000000 000000000000000A000000000000000000000000000000000000000000000 000000000000000000000000000000000000000     00000000                                                                                                                        000000000000000000
F0010000006437200002000001719393900041450500000000000000000201410270002001JAIRO BASTIDAS RAMIREZ                            C000000021900000000000000000000000100010010000000000000000000000F0010000006437200220141027000101 00000000000000000000000000000000000000000000000000000000000000000000000000000000000000000000000000000000000000000N 00000000000NCONT   00    00000000000          00000000000000000000000000000000000000000000 000000000000000A000000000000000000000000000000000000000000000 000000000000000000000000000000000000000     00000000                                                                                                                        000000000000000000
F0010000006437200003000001719393900042505000000000000000000201410270002001JAIRO BASTIDAS RAMIREZ                            C000000004350000000000000000000000100010010000000000000000000000F0010000006437200320141027000101 00000000000000000000000000000000000000000000000000000000000000000000000000000000000000000000000000000000000000000N 00000000000NCONT   00    00000000000          00000000000000000000000000000000000000000000 000000000000000A000000000000000000000000000000000000000000000 000000000000000000000000000000000000000     00000000                                                                                                                        000000000000000000
