F0010000009253200001000080201112800013050500000000000000000201610110002001CANGURO INTERNATIONAL S.A.                        D000000083866200000000000000000000100010010000000000000000000000F0010000009253200120161011000101 00000000000000000000000000000000000000000000000000000000000000000000000000000000000000000000000000000000000000000N 00000000000NCONT   00    00000000000          00000000000000000000000000000000000000000000 000000000000000A000000000000000000000000000000000000000000000 000000000000000000000000000000000000000     00000000                                                                                                                        000000000000000000
F0010000009253200002000080201112800041450500000000000000000201610110002001CANGURO INTERNATIONAL S.A.                        C000000083866200000000000000000000100010010000000000000000000000F0010000009253200220161011000101 00000000000000000000000000000000000000000000000000000000000000000000000000000000000000000000000000000000000000000N 00000000000NCONT   00    00000000000          00000000000000000000000000000000000000000000 000000000000000A000000000000000000000000000000000000000000000 000000000000000000000000000000000000000     00000000                                                                                                                        000000000000000000
F0010000009253200003000080201112800042505000000000000000000201610110002001CANGURO INTERNATIONAL S.A.                        C000000000000000000000000000000000100010010000000000000000000000F0010000009253200320161011000101 00000000000000000000000000000000000000000000000000000000000000000000000000000000000000000000000000000000000000000N 00000000000NCONT   00    00000000000          00000000000000000000000000000000000000000000 000000000000000A000000000000000000000000000000000000000000000 000000000000000000000000000000000000000     00000000                                                                                                                        000000000000000000
F0010000009253200004000080201112800023658300000000000000000201610110002001CANGURO INTERNATIONAL S.A.                        C000000000670900000000000000000000100010010000000000000000000000F0010000009253200420161011000101 00000000000000000000000000000000000000000000000000000000000000000000000000000000000000000000000000000000000000000N 00000000000NCONT   00    00000000000          00000000000000000000000000000000000000000000 000000000000000A000000000000000000000000000000000000000000000 000000000000000000000000000000000000000     00000000                                                                                                                        000000000000000000
F0010000009253200005000080201112800013552100000000000000000201610110002001CANGURO INTERNATIONAL S.A.                        D000000000670900000000000000000000100010010000000000000000000000F0010000009253200520161011000101 00000000000000000000000000000000000000000000000000000000000000000000000000000000000000000000000000000000000000000N 00000000000NCONT   00    00000000000          00000000000000000000000000000000000000000000 000000000000000A000000000000000000000000000000000000000000000 000000000000000000000000000000000000000     00000000                                                                                                                        000000000000000000
F0010000009253300001000080201112800013050500000000000000000201610110002001CANGURO INTERNATIONAL S.A.                        D000000126266400000000000000000000100010010000000000000000000000F0010000009253300120161011000101 00000000000000000000000000000000000000000000000000000000000000000000000000000000000000000000000000000000000000000N 00000000000NCONT   00    00000000000          00000000000000000000000000000000000000000000 000000000000000A000000000000000000000000000000000000000000000 000000000000000000000000000000000000000     00000000                                                                                                                        000000000000000000
F0010000009253300002000080201112800041450500000000000000000201610110002001CANGURO INTERNATIONAL S.A.                        C000000121616600000000000000000000100010010000000000000000000000F0010000009253300220161011000101 00000000000000000000000000000000000000000000000000000000000000000000000000000000000000000000000000000000000000000N 00000000000NCONT   00    00000000000          00000000000000000000000000000000000000000000 000000000000000A000000000000000000000000000000000000000000000 000000000000000000000000000000000000000     00000000                                                                                                                        000000000000000000
F0010000009253300003000080201112800042505000000000000000000201610110002001CANGURO INTERNATIONAL S.A.                        C000000004649800000000000000000000100010010000000000000000000000F0010000009253300320161011000101 00000000000000000000000000000000000000000000000000000000000000000000000000000000000000000000000000000000000000000N 00000000000NCONT   00    00000000000          00000000000000000000000000000000000000000000 000000000000000A000000000000000000000000000000000000000000000 000000000000000000000000000000000000000     00000000                                                                                                                        000000000000000000
F0010000009253300004000080201112800023658300000000000000000201610110002001CANGURO INTERNATIONAL S.A.                        C000000000972900000000000000000000100010010000000000000000000000F0010000009253300420161011000101 00000000000000000000000000000000000000000000000000000000000000000000000000000000000000000000000000000000000000000N 00000000000NCONT   00    00000000000          00000000000000000000000000000000000000000000 000000000000000A000000000000000000000000000000000000000000000 000000000000000000000000000000000000000     00000000                                                                                                                        000000000000000000
F0010000009253300005000080201112800013552100000000000000000201610110002001CANGURO INTERNATIONAL S.A.                        D000000000972900000000000000000000100010010000000000000000000000F0010000009253300520161011000101 00000000000000000000000000000000000000000000000000000000000000000000000000000000000000000000000000000000000000000N 00000000000NCONT   00    00000000000          00000000000000000000000000000000000000000000 000000000000000A000000000000000000000000000000000000000000000 000000000000000000000000000000000000000     00000000                                                                                                                        000000000000000000
F0010000009253400001000080201112800013050500000000000000000201610110002001CANGURO INTERNATIONAL S.A.                        D000000175199800000000000000000000100010010000000000000000000000F0010000009253400120161011000101 00000000000000000000000000000000000000000000000000000000000000000000000000000000000000000000000000000000000000000N 00000000000NCONT   00    00000000000          00000000000000000000000000000000000000000000 000000000000000A000000000000000000000000000000000000000000000 000000000000000000000000000000000000000     00000000                                                                                                                        000000000000000000
F0010000009253400002000080201112800041450500000000000000000201610110002001CANGURO INTERNATIONAL S.A.                        C000000167037700000000000000000000100010010000000000000000000000F0010000009253400220161011000101 00000000000000000000000000000000000000000000000000000000000000000000000000000000000000000000000000000000000000000N 00000000000NCONT   00    00000000000          00000000000000000000000000000000000000000000 000000000000000A000000000000000000000000000000000000000000000 000000000000000000000000000000000000000     00000000                                                                                                                        000000000000000000
F0010000009253400003000080201112800042505000000000000000000201610110002001CANGURO INTERNATIONAL S.A.                        C000000008162100000000000000000000100010010000000000000000000000F0010000009253400320161011000101 00000000000000000000000000000000000000000000000000000000000000000000000000000000000000000000000000000000000000000N 00000000000NCONT   00    00000000000          00000000000000000000000000000000000000000000 000000000000000A000000000000000000000000000000000000000000000 000000000000000000000000000000000000000     00000000                                                                                                                        000000000000000000
F0010000009253400004000080201112800023658300000000000000000201610110002001CANGURO INTERNATIONAL S.A.                        C000000001336300000000000000000000100010010000000000000000000000F0010000009253400420161011000101 00000000000000000000000000000000000000000000000000000000000000000000000000000000000000000000000000000000000000000N 00000000000NCONT   00    00000000000          00000000000000000000000000000000000000000000 000000000000000A000000000000000000000000000000000000000000000 000000000000000000000000000000000000000     00000000                                                                                                                        000000000000000000
F0010000009253400005000080201112800013552100000000000000000201610110002001CANGURO INTERNATIONAL S.A.                        D000000001336300000000000000000000100010010000000000000000000000F0010000009253400520161011000101 00000000000000000000000000000000000000000000000000000000000000000000000000000000000000000000000000000000000000000N 00000000000NCONT   00    00000000000          00000000000000000000000000000000000000000000 000000000000000A000000000000000000000000000000000000000000000 000000000000000000000000000000000000000     00000000                                                                                                                        000000000000000000
F0010000009253500001000090019362000013050500000000000000000201610110002001GENERAL SUPPLIES CIA LTDA                         D000000012490900000000000000000000100010010000000000000000000000F0010000009253500120161011000101 00000000000000000000000000000000000000000000000000000000000000000000000000000000000000000000000000000000000000000N 00000000000NCONT   00    00000000000          00000000000000000000000000000000000000000000 000000000000000A000000000000000000000000000000000000000000000 000000000000000000000000000000000000000     00000000                                                                                                                        000000000000000000
F0010000009253500002000090019362000041450500000000000000000201610110002001GENERAL SUPPLIES CIA LTDA                         C000000010653900000000000000000000100010010000000000000000000000F0010000009253500220161011000101 00000000000000000000000000000000000000000000000000000000000000000000000000000000000000000000000000000000000000000N 00000000000NCONT   00    00000000000          00000000000000000000000000000000000000000000 000000000000000A000000000000000000000000000000000000000000000 000000000000000000000000000000000000000     00000000                                                                                                                        000000000000000000
F0010000009253500003000090019362000042505000000000000000000201610110002001GENERAL SUPPLIES CIA LTDA                         C000000001837000000000000000000000100010010000000000000000000000F0010000009253500320161011000101 00000000000000000000000000000000000000000000000000000000000000000000000000000000000000000000000000000000000000000N 00000000000NCONT   00    00000000000          00000000000000000000000000000000000000000000 000000000000000A000000000000000000000000000000000000000000000 000000000000000000000000000000000000000     00000000                                                                                                                        000000000000000000
F0010000009253500004000090019362000023658300000000000000000201610110002001GENERAL SUPPLIES CIA LTDA                         C000000000085200000000000000000000100010010000000000000000000000F0010000009253500420161011000101 00000000000000000000000000000000000000000000000000000000000000000000000000000000000000000000000000000000000000000N 00000000000NCONT   00    00000000000          00000000000000000000000000000000000000000000 000000000000000A000000000000000000000000000000000000000000000 000000000000000000000000000000000000000     00000000                                                                                                                        000000000000000000
F0010000009253500005000090019362000013552100000000000000000201610110002001GENERAL SUPPLIES CIA LTDA                         D000000000085200000000000000000000100010010000000000000000000000F0010000009253500520161011000101 00000000000000000000000000000000000000000000000000000000000000000000000000000000000000000000000000000000000000000N 00000000000NCONT   00    00000000000          00000000000000000000000000000000000000000000 000000000000000A000000000000000000000000000000000000000000000 000000000000000000000000000000000000000     00000000                                                                                                                        000000000000000000
F0010000009253600001000090001736600013050500000000000000000201610110002001AF SUMINISTROS E.U.                               D000000008950000000000000000000000100010010000000000000000000000F0010000009253600120161011000101 00000000000000000000000000000000000000000000000000000000000000000000000000000000000000000000000000000000000000000N 00000000000NCONT   00    00000000000          00000000000000000000000000000000000000000000 000000000000000A000000000000000000000000000000000000000000000 000000000000000000000000000000000000000     00000000                                                                                                                        000000000000000000
F0010000009253600002000090001736600041450500000000000000000201610110002001AF SUMINISTROS E.U.                               C000000008000000000000000000000000100010010000000000000000000000F0010000009253600220161011000101 00000000000000000000000000000000000000000000000000000000000000000000000000000000000000000000000000000000000000000N 00000000000NCONT   00    00000000000          00000000000000000000000000000000000000000000 000000000000000A000000000000000000000000000000000000000000000 000000000000000000000000000000000000000     00000000                                                                                                                        000000000000000000
F0010000009253600003000090001736600042505000000000000000000201610110002001AF SUMINISTROS E.U.                               C000000000950000000000000000000000100010010000000000000000000000F0010000009253600320161011000101 00000000000000000000000000000000000000000000000000000000000000000000000000000000000000000000000000000000000000000N 00000000000NCONT   00    00000000000          00000000000000000000000000000000000000000000 000000000000000A000000000000000000000000000000000000000000000 000000000000000000000000000000000000000     00000000                                                                                                                        000000000000000000
F0010000009253600004000090001736600023658300000000000000000201610110002001AF SUMINISTROS E.U.                               C000000000064000000000000000000000100010010000000000000000000000F0010000009253600420161011000101 00000000000000000000000000000000000000000000000000000000000000000000000000000000000000000000000000000000000000000N 00000000000NCONT   00    00000000000          00000000000000000000000000000000000000000000 000000000000000A000000000000000000000000000000000000000000000 000000000000000000000000000000000000000     00000000                                                                                                                        000000000000000000
F0010000009253600005000090001736600013552100000000000000000201610110002001AF SUMINISTROS E.U.                               D000000000064000000000000000000000100010010000000000000000000000F0010000009253600520161011000101 00000000000000000000000000000000000000000000000000000000000000000000000000000000000000000000000000000000000000000N 00000000000NCONT   00    00000000000          00000000000000000000000000000000000000000000 000000000000000A000000000000000000000000000000000000000000000 000000000000000000000000000000000000000     00000000                                                                                                                        000000000000000000
F0010000009253700001000000870907300013050500000000000000000201610110002001SURTIDOR FERRETERO                                D000000015460000000000000000000000100010010000000000000000000000F0010000009253700120161011000101 00000000000000000000000000000000000000000000000000000000000000000000000000000000000000000000000000000000000000000N 00000000000NCONT   00    00000000000          00000000000000000000000000000000000000000000 000000000000000A000000000000000000000000000000000000000000000 000000000000000000000000000000000000000     00000000                                                                                                                        000000000000000000
F0010000009253700002000000870907300041450500000000000000000201610110002001SURTIDOR FERRETERO                                C000000012950000000000000000000000100010010000000000000000000000F0010000009253700220161011000101 00000000000000000000000000000000000000000000000000000000000000000000000000000000000000000000000000000000000000000N 00000000000NCONT   00    00000000000          00000000000000000000000000000000000000000000 000000000000000A000000000000000000000000000000000000000000000 000000000000000000000000000000000000000     00000000                                                                                                                        000000000000000000
F0010000009253700003000000870907300041750100000000000000000201610110002001SURTIDOR FERRETERO                                D000000001295000000000000000000000100010010000000000000000000000F0010000009253700320161011000101 00000000000000000000000000000000000000000000000000000000000000000000000000000000000000000000000000000000000000000N 00000000000NCONT   00    00000000000          00000000000000000000000000000000000000000000 000000000000000A000000000000000000000000000000000000000000000 000000000000000000000000000000000000000     00000000                                                                                                                        000000000000000000
F0010000009253700004000000870907300042505000000000000000000201610110002001SURTIDOR FERRETERO                                C000000003805000000000000000000000100010010000000000000000000000F0010000009253700420161011000101 00000000000000000000000000000000000000000000000000000000000000000000000000000000000000000000000000000000000000000N 00000000000NCONT   00    00000000000          00000000000000000000000000000000000000000000 000000000000000A000000000000000000000000000000000000000000000 000000000000000000000000000000000000000     00000000                                                                                                                        000000000000000000
F0010000009253700005000000870907300023658300000000000000000201610110002001SURTIDOR FERRETERO                                C000000000103600000000000000000000100010010000000000000000000000F0010000009253700520161011000101 00000000000000000000000000000000000000000000000000000000000000000000000000000000000000000000000000000000000000000N 00000000000NCONT   00    00000000000          00000000000000000000000000000000000000000000 000000000000000A000000000000000000000000000000000000000000000 000000000000000000000000000000000000000     00000000                                                                                                                        000000000000000000
F0010000009253700006000000870907300013552100000000000000000201610110002001SURTIDOR FERRETERO                                D000000000103600000000000000000000100010010000000000000000000000F0010000009253700620161011000101 00000000000000000000000000000000000000000000000000000000000000000000000000000000000000000000000000000000000000000N 00000000000NCONT   00    00000000000          00000000000000000000000000000000000000000000 000000000000000A000000000000000000000000000000000000000000000 000000000000000000000000000000000000000     00000000                                                                                                                        000000000000000000
F0010000009253800001000080202132300013050500000000000000000201610110002001SUM Y SERV DE LA COSTA LTDA                       D000000041770000000000000000000000100010010000000000000000000000F0010000009253800120161011000101 00000000000000000000000000000000000000000000000000000000000000000000000000000000000000000000000000000000000000000N 00000000000NCONT   00    00000000000          00000000000000000000000000000000000000000000 000000000000000A000000000000000000000000000000000000000000000 000000000000000000000000000000000000000     00000000                                                                                                                        000000000000000000
F0010000009253800002000080202132300041450500000000000000000201610110002001SUM Y SERV DE LA COSTA LTDA                       C000000038220000000000000000000000100010010000000000000000000000F0010000009253800220161011000101 00000000000000000000000000000000000000000000000000000000000000000000000000000000000000000000000000000000000000000N 00000000000NCONT   00    00000000000          00000000000000000000000000000000000000000000 000000000000000A000000000000000000000000000000000000000000000 000000000000000000000000000000000000000     00000000                                                                                                                        000000000000000000
F0010000009253800003000080202132300042505000000000000000000201610110002001SUM Y SERV DE LA COSTA LTDA                       C000000003550000000000000000000000100010010000000000000000000000F0010000009253800320161011000101 00000000000000000000000000000000000000000000000000000000000000000000000000000000000000000000000000000000000000000N 00000000000NCONT   00    00000000000          00000000000000000000000000000000000000000000 000000000000000A000000000000000000000000000000000000000000000 000000000000000000000000000000000000000     00000000                                                                                                                        000000000000000000
F0010000009253800004000080202132300023658300000000000000000201610110002001SUM Y SERV DE LA COSTA LTDA                       C000000000305800000000000000000000100010010000000000000000000000F0010000009253800420161011000101 00000000000000000000000000000000000000000000000000000000000000000000000000000000000000000000000000000000000000000N 00000000000NCONT   00    00000000000          00000000000000000000000000000000000000000000 000000000000000A000000000000000000000000000000000000000000000 000000000000000000000000000000000000000     00000000                                                                                                                        000000000000000000
F0010000009253800005000080202132300013552100000000000000000201610110002001SUM Y SERV DE LA COSTA LTDA                       D000000000305800000000000000000000100010010000000000000000000000F0010000009253800520161011000101 00000000000000000000000000000000000000000000000000000000000000000000000000000000000000000000000000000000000000000N 00000000000NCONT   00    00000000000          00000000000000000000000000000000000000000000 000000000000000A000000000000000000000000000000000000000000000 000000000000000000000000000000000000000     00000000                                                                                                                        000000000000000000
F0010000009253900001000090050863700013050500000000000000000201610110002001COMERCIALIZADORA PERFECT SAS                      D000000006529600000000000000000000100010010000000000000000000000F0010000009253900120161011000101 00000000000000000000000000000000000000000000000000000000000000000000000000000000000000000000000000000000000000000N 00000000000NCONT   00    00000000000          00000000000000000000000000000000000000000000 000000000000000A000000000000000000000000000000000000000000000 000000000000000000000000000000000000000     00000000                                                                                                                        000000000000000000
F0010000009253900002000090050863700041450500000000000000000201610110002001COMERCIALIZADORA PERFECT SAS                      C000000004654600000000000000000000100010010000000000000000000000F0010000009253900220161011000101 00000000000000000000000000000000000000000000000000000000000000000000000000000000000000000000000000000000000000000N 00000000000NCONT   00    00000000000          00000000000000000000000000000000000000000000 000000000000000A000000000000000000000000000000000000000000000 000000000000000000000000000000000000000     00000000                                                                                                                        000000000000000000
F0010000009253900003000090050863700042505000000000000000000201610110002001COMERCIALIZADORA PERFECT SAS                      C000000001875000000000000000000000100010010000000000000000000000F0010000009253900320161011000101 00000000000000000000000000000000000000000000000000000000000000000000000000000000000000000000000000000000000000000N 00000000000NCONT   00    00000000000          00000000000000000000000000000000000000000000 000000000000000A000000000000000000000000000000000000000000000 000000000000000000000000000000000000000     00000000                                                                                                                        000000000000000000
F0010000009253900004000090050863700023658300000000000000000201610110002001COMERCIALIZADORA PERFECT SAS                      C000000000037200000000000000000000100010010000000000000000000000F0010000009253900420161011000101 00000000000000000000000000000000000000000000000000000000000000000000000000000000000000000000000000000000000000000N 00000000000NCONT   00    00000000000          00000000000000000000000000000000000000000000 000000000000000A000000000000000000000000000000000000000000000 000000000000000000000000000000000000000     00000000                                                                                                                        000000000000000000
F0010000009253900005000090050863700013552100000000000000000201610110002001COMERCIALIZADORA PERFECT SAS                      D000000000037200000000000000000000100010010000000000000000000000F0010000009253900520161011000101 00000000000000000000000000000000000000000000000000000000000000000000000000000000000000000000000000000000000000000N 00000000000NCONT   00    00000000000          00000000000000000000000000000000000000000000 000000000000000A000000000000000000000000000000000000000000000 000000000000000000000000000000000000000     00000000                                                                                                                        000000000000000000
F0010000009254000001000089031248700013050500000000000000000201610110002001DISTRIBUIDORA CALIPLASTICOS LTDA                  D000000096069200000000000000000000100010010000000000000000000000F0010000009254000120161011000101 00000000000000000000000000000000000000000000000000000000000000000000000000000000000000000000000000000000000000000N 00000000000NCONT   00    00000000000          00000000000000000000000000000000000000000000 000000000000000A000000000000000000000000000000000000000000000 000000000000000000000000000000000000000     00000000                                                                                                                        000000000000000000
F0010000009254000002000089031248700041450500000000000000000201610110002001DISTRIBUIDORA CALIPLASTICOS LTDA                  C000000090691700000000000000000000100010010000000000000000000000F0010000009254000220161011000101 00000000000000000000000000000000000000000000000000000000000000000000000000000000000000000000000000000000000000000N 00000000000NCONT   00    00000000000          00000000000000000000000000000000000000000000 000000000000000A000000000000000000000000000000000000000000000 000000000000000000000000000000000000000     00000000                                                                                                                        000000000000000000
F0010000009254000003000089031248700042505000000000000000000201610110002001DISTRIBUIDORA CALIPLASTICOS LTDA                  C000000005377500000000000000000000100010010000000000000000000000F0010000009254000320161011000101 00000000000000000000000000000000000000000000000000000000000000000000000000000000000000000000000000000000000000000N 00000000000NCONT   00    00000000000          00000000000000000000000000000000000000000000 000000000000000A000000000000000000000000000000000000000000000 000000000000000000000000000000000000000     00000000                                                                                                                        000000000000000000
F0010000009254000004000089031248700023658300000000000000000201610110002001DISTRIBUIDORA CALIPLASTICOS LTDA                  C000000000725500000000000000000000100010010000000000000000000000F0010000009254000420161011000101 00000000000000000000000000000000000000000000000000000000000000000000000000000000000000000000000000000000000000000N 00000000000NCONT   00    00000000000          00000000000000000000000000000000000000000000 000000000000000A000000000000000000000000000000000000000000000 000000000000000000000000000000000000000     00000000                                                                                                                        000000000000000000
F0010000009254000005000089031248700013552100000000000000000201610110002001DISTRIBUIDORA CALIPLASTICOS LTDA                  D000000000725500000000000000000000100010010000000000000000000000F0010000009254000520161011000101 00000000000000000000000000000000000000000000000000000000000000000000000000000000000000000000000000000000000000000N 00000000000NCONT   00    00000000000          00000000000000000000000000000000000000000000 000000000000000A000000000000000000000000000000000000000000000 000000000000000000000000000000000000000     00000000                                                                                                                        000000000000000000
F0010000009254100001000090040631000013050500000000000000000201610110002001BEINEX SAS                                        D000000017779200000000000000000000100010010000000000000000000000F0010000009254100120161011000101 00000000000000000000000000000000000000000000000000000000000000000000000000000000000000000000000000000000000000000N 00000000000NCONT   00    00000000000          00000000000000000000000000000000000000000000 000000000000000A000000000000000000000000000000000000000000000 000000000000000000000000000000000000000     00000000                                                                                                                        000000000000000000
F0010000009254100002000090040631000041450500000000000000000201610110002001BEINEX SAS                                        C000000018520000000000000000000000100010010000000000000000000000F0010000009254100220161011000101 00000000000000000000000000000000000000000000000000000000000000000000000000000000000000000000000000000000000000000N 00000000000NCONT   00    00000000000          00000000000000000000000000000000000000000000 000000000000000A000000000000000000000000000000000000000000000 000000000000000000000000000000000000000     00000000                                                                                                                        000000000000000000
F0010000009254100003000090040631000041750100000000000000000201610110002001BEINEX SAS                                        D000000000740800000000000000000000100010010000000000000000000000F0010000009254100320161011000101 00000000000000000000000000000000000000000000000000000000000000000000000000000000000000000000000000000000000000000N 00000000000NCONT   00    00000000000          00000000000000000000000000000000000000000000 000000000000000A000000000000000000000000000000000000000000000 000000000000000000000000000000000000000     00000000                                                                                                                        000000000000000000
F0010000009254100004000090040631000042505000000000000000000201610110002001BEINEX SAS                                        C000000000000000000000000000000000100010010000000000000000000000F0010000009254100420161011000101 00000000000000000000000000000000000000000000000000000000000000000000000000000000000000000000000000000000000000000N 00000000000NCONT   00    00000000000          00000000000000000000000000000000000000000000 000000000000000A000000000000000000000000000000000000000000000 000000000000000000000000000000000000000     00000000                                                                                                                        000000000000000000
F0010000009254100005000090040631000023658300000000000000000201610110002001BEINEX SAS                                        C000000000148200000000000000000000100010010000000000000000000000F0010000009254100520161011000101 00000000000000000000000000000000000000000000000000000000000000000000000000000000000000000000000000000000000000000N 00000000000NCONT   00    00000000000          00000000000000000000000000000000000000000000 000000000000000A000000000000000000000000000000000000000000000 000000000000000000000000000000000000000     00000000                                                                                                                        000000000000000000
F0010000009254100006000090040631000013552100000000000000000201610110002001BEINEX SAS                                        D000000000148200000000000000000000100010010000000000000000000000F0010000009254100620161011000101 00000000000000000000000000000000000000000000000000000000000000000000000000000000000000000000000000000000000000000N 00000000000NCONT   00    00000000000          00000000000000000000000000000000000000000000 000000000000000A000000000000000000000000000000000000000000000 000000000000000000000000000000000000000     00000000                                                                                                                        000000000000000000
F0010000009254200001000004175790100013050500000000000000000201610110002001ROSIRIS FERIA HOYOS  (COSM. SHILLER)              D000000007200000000000000000000000100010010000000000000000000000F0010000009254200120161011000101 00000000000000000000000000000000000000000000000000000000000000000000000000000000000000000000000000000000000000000N 00000000000NCONT   00    00000000000          00000000000000000000000000000000000000000000 000000000000000A000000000000000000000000000000000000000000000 000000000000000000000000000000000000000     00000000                                                                                                                        000000000000000000
F0010000009254200002000004175790100041450500000000000000000201610110002001ROSIRIS FERIA HOYOS  (COSM. SHILLER)              C000000005700000000000000000000000100010010000000000000000000000F0010000009254200220161011000101 00000000000000000000000000000000000000000000000000000000000000000000000000000000000000000000000000000000000000000N 00000000000NCONT   00    00000000000          00000000000000000000000000000000000000000000 000000000000000A000000000000000000000000000000000000000000000 000000000000000000000000000000000000000     00000000                                                                                                                        000000000000000000
F0010000009254200003000004175790100042505000000000000000000201610110002001ROSIRIS FERIA HOYOS  (COSM. SHILLER)              C000000001500000000000000000000000100010010000000000000000000000F0010000009254200320161011000101 00000000000000000000000000000000000000000000000000000000000000000000000000000000000000000000000000000000000000000N 00000000000NCONT   00    00000000000          00000000000000000000000000000000000000000000 000000000000000A000000000000000000000000000000000000000000000 000000000000000000000000000000000000000     00000000                                                                                                                        000000000000000000
F0010000009254200004000004175790100023658300000000000000000201610110002001ROSIRIS FERIA HOYOS  (COSM. SHILLER)              C000000000045600000000000000000000100010010000000000000000000000F0010000009254200420161011000101 00000000000000000000000000000000000000000000000000000000000000000000000000000000000000000000000000000000000000000N 00000000000NCONT   00    00000000000          00000000000000000000000000000000000000000000 000000000000000A000000000000000000000000000000000000000000000 000000000000000000000000000000000000000     00000000                                                                                                                        000000000000000000
F0010000009254200005000004175790100013552100000000000000000201610110002001ROSIRIS FERIA HOYOS  (COSM. SHILLER)              D000000000045600000000000000000000100010010000000000000000000000F0010000009254200520161011000101 00000000000000000000000000000000000000000000000000000000000000000000000000000000000000000000000000000000000000000N 00000000000NCONT   00    00000000000          00000000000000000000000000000000000000000000 000000000000000A000000000000000000000000000000000000000000000 000000000000000000000000000000000000000     00000000                                                                                                                        000000000000000000
F0010000009254300001000090044920600013050500000000000000000201610110002001QUATRO CARIBE SAS                                 D000000014990000000000000000000000100010010000000000000000000000F0010000009254300120161011000101 00000000000000000000000000000000000000000000000000000000000000000000000000000000000000000000000000000000000000000N 00000000000NCONT   00    00000000000          00000000000000000000000000000000000000000000 000000000000000A000000000000000000000000000000000000000000000 000000000000000000000000000000000000000     00000000                                                                                                                        000000000000000000
F0010000009254300002000090044920600041450500000000000000000201610110002001QUATRO CARIBE SAS                                 C000000011990000000000000000000000100010010000000000000000000000F0010000009254300220161011000101 00000000000000000000000000000000000000000000000000000000000000000000000000000000000000000000000000000000000000000N 00000000000NCONT   00    00000000000          00000000000000000000000000000000000000000000 000000000000000A000000000000000000000000000000000000000000000 000000000000000000000000000000000000000     00000000                                                                                                                        000000000000000000
F0010000009254300003000090044920600042505000000000000000000201610110002001QUATRO CARIBE SAS                                 C000000003000000000000000000000000100010010000000000000000000000F0010000009254300320161011000101 00000000000000000000000000000000000000000000000000000000000000000000000000000000000000000000000000000000000000000N 00000000000NCONT   00    00000000000          00000000000000000000000000000000000000000000 000000000000000A000000000000000000000000000000000000000000000 000000000000000000000000000000000000000     00000000                                                                                                                        000000000000000000
F0010000009254300004000090044920600023658300000000000000000201610110002001QUATRO CARIBE SAS                                 C000000000095900000000000000000000100010010000000000000000000000F0010000009254300420161011000101 00000000000000000000000000000000000000000000000000000000000000000000000000000000000000000000000000000000000000000N 00000000000NCONT   00    00000000000          00000000000000000000000000000000000000000000 000000000000000A000000000000000000000000000000000000000000000 000000000000000000000000000000000000000     00000000                                                                                                                        000000000000000000
F0010000009254300005000090044920600013552100000000000000000201610110002001QUATRO CARIBE SAS                                 D000000000095900000000000000000000100010010000000000000000000000F0010000009254300520161011000101 00000000000000000000000000000000000000000000000000000000000000000000000000000000000000000000000000000000000000000N 00000000000NCONT   00    00000000000          00000000000000000000000000000000000000000000 000000000000000A000000000000000000000000000000000000000000000 000000000000000000000000000000000000000     00000000                                                                                                                        000000000000000000
F0010000009254400001000086003979400013050500000000000000000201610110002001CALYPSO BARRANQUILLA LTDA                         D000000020949800000000000000000000100010010000000000000000000000F0010000009254400120161011000101 00000000000000000000000000000000000000000000000000000000000000000000000000000000000000000000000000000000000000000N 00000000000NCONT   00    00000000000          00000000000000000000000000000000000000000000 000000000000000A000000000000000000000000000000000000000000000 000000000000000000000000000000000000000     00000000                                                                                                                        000000000000000000
F0010000009254400002000086003979400041450500000000000000000201610110002001CALYPSO BARRANQUILLA LTDA                         C000000018760000000000000000000000100010010000000000000000000000F0010000009254400220161011000101 00000000000000000000000000000000000000000000000000000000000000000000000000000000000000000000000000000000000000000N 00000000000NCONT   00    00000000000          00000000000000000000000000000000000000000000 000000000000000A000000000000000000000000000000000000000000000 000000000000000000000000000000000000000     00000000                                                                                                                        000000000000000000
F0010000009254400003000086003979400042505000000000000000000201610110002001CALYPSO BARRANQUILLA LTDA                         C000000002189800000000000000000000100010010000000000000000000000F0010000009254400320161011000101 00000000000000000000000000000000000000000000000000000000000000000000000000000000000000000000000000000000000000000N 00000000000NCONT   00    00000000000          00000000000000000000000000000000000000000000 000000000000000A000000000000000000000000000000000000000000000 000000000000000000000000000000000000000     00000000                                                                                                                        000000000000000000
F0010000009254400004000086003979400023658300000000000000000201610110002001CALYPSO BARRANQUILLA LTDA                         C000000000150100000000000000000000100010010000000000000000000000F0010000009254400420161011000101 00000000000000000000000000000000000000000000000000000000000000000000000000000000000000000000000000000000000000000N 00000000000NCONT   00    00000000000          00000000000000000000000000000000000000000000 000000000000000A000000000000000000000000000000000000000000000 000000000000000000000000000000000000000     00000000                                                                                                                        000000000000000000
F0010000009254400005000086003979400013552100000000000000000201610110002001CALYPSO BARRANQUILLA LTDA                         D000000000150100000000000000000000100010010000000000000000000000F0010000009254400520161011000101 00000000000000000000000000000000000000000000000000000000000000000000000000000000000000000000000000000000000000000N 00000000000NCONT   00    00000000000          00000000000000000000000000000000000000000000 000000000000000A000000000000000000000000000000000000000000000 000000000000000000000000000000000000000     00000000                                                                                                                        000000000000000000
F0010000009254500001000089030195100013050500000000000000000201610110002001LIBRERIA NACIONAL S.A.                            D000000017650000000000000000000000100010010000000000000000000000F0010000009254500120161011000101 00000000000000000000000000000000000000000000000000000000000000000000000000000000000000000000000000000000000000000N 00000000000NCONT   00    00000000000          00000000000000000000000000000000000000000000 000000000000000A000000000000000000000000000000000000000000000 000000000000000000000000000000000000000     00000000                                                                                                                        000000000000000000
F0010000009254500002000089030195100041450500000000000000000201610110002001LIBRERIA NACIONAL S.A.                            C000000014850000000000000000000000100010010000000000000000000000F0010000009254500220161011000101 00000000000000000000000000000000000000000000000000000000000000000000000000000000000000000000000000000000000000000N 00000000000NCONT   00    00000000000          00000000000000000000000000000000000000000000 000000000000000A000000000000000000000000000000000000000000000 000000000000000000000000000000000000000     00000000                                                                                                                        000000000000000000
F0010000009254500003000089030195100042505000000000000000000201610110002001LIBRERIA NACIONAL S.A.                            C000000002800000000000000000000000100010010000000000000000000000F0010000009254500320161011000101 00000000000000000000000000000000000000000000000000000000000000000000000000000000000000000000000000000000000000000N 00000000000NCONT   00    00000000000          00000000000000000000000000000000000000000000 000000000000000A000000000000000000000000000000000000000000000 000000000000000000000000000000000000000     00000000                                                                                                                        000000000000000000
F0010000009254500004000089030195100023658300000000000000000201610110002001LIBRERIA NACIONAL S.A.                            C000000000118800000000000000000000100010010000000000000000000000F0010000009254500420161011000101 00000000000000000000000000000000000000000000000000000000000000000000000000000000000000000000000000000000000000000N 00000000000NCONT   00    00000000000          00000000000000000000000000000000000000000000 000000000000000A000000000000000000000000000000000000000000000 000000000000000000000000000000000000000     00000000                                                                                                                        000000000000000000
F0010000009254500005000089030195100013552100000000000000000201610110002001LIBRERIA NACIONAL S.A.                            D000000000118800000000000000000000100010010000000000000000000000F0010000009254500520161011000101 00000000000000000000000000000000000000000000000000000000000000000000000000000000000000000000000000000000000000000N 00000000000NCONT   00    00000000000          00000000000000000000000000000000000000000000 000000000000000A000000000000000000000000000000000000000000000 000000000000000000000000000000000000000     00000000                                                                                                                        000000000000000000
F0010000009254600001000080001063400013050500000000000000000201610110002001PRODUCTOS JULIAO SAS                              D000000075147800000000000000000000100010010000000000000000000000F0010000009254600120161011000101 00000000000000000000000000000000000000000000000000000000000000000000000000000000000000000000000000000000000000000N 00000000000NCONT   00    00000000000          00000000000000000000000000000000000000000000 000000000000000A000000000000000000000000000000000000000000000 000000000000000000000000000000000000000     00000000                                                                                                                        000000000000000000
F0010000009254600002000080001063400041450500000000000000000201610110002001PRODUCTOS JULIAO SAS                              C000000071265400000000000000000000100010010000000000000000000000F0010000009254600220161011000101 00000000000000000000000000000000000000000000000000000000000000000000000000000000000000000000000000000000000000000N 00000000000NCONT   00    00000000000          00000000000000000000000000000000000000000000 000000000000000A000000000000000000000000000000000000000000000 000000000000000000000000000000000000000     00000000                                                                                                                        000000000000000000
F0010000009254600003000080001063400042505000000000000000000201610110002001PRODUCTOS JULIAO SAS                              C000000003882400000000000000000000100010010000000000000000000000F0010000009254600320161011000101 00000000000000000000000000000000000000000000000000000000000000000000000000000000000000000000000000000000000000000N 00000000000NCONT   00    00000000000          00000000000000000000000000000000000000000000 000000000000000A000000000000000000000000000000000000000000000 000000000000000000000000000000000000000     00000000                                                                                                                        000000000000000000
F0010000009254600004000080001063400023658300000000000000000201610110002001PRODUCTOS JULIAO SAS                              C000000000570100000000000000000000100010010000000000000000000000F0010000009254600420161011000101 00000000000000000000000000000000000000000000000000000000000000000000000000000000000000000000000000000000000000000N 00000000000NCONT   00    00000000000          00000000000000000000000000000000000000000000 000000000000000A000000000000000000000000000000000000000000000 000000000000000000000000000000000000000     00000000                                                                                                                        000000000000000000
F0010000009254600005000080001063400013552100000000000000000201610110002001PRODUCTOS JULIAO SAS                              D000000000570100000000000000000000100010010000000000000000000000F0010000009254600520161011000101 00000000000000000000000000000000000000000000000000000000000000000000000000000000000000000000000000000000000000000N 00000000000NCONT   00    00000000000          00000000000000000000000000000000000000000000 000000000000000A000000000000000000000000000000000000000000000 000000000000000000000000000000000000000     00000000                                                                                                                        000000000000000000
F0010000009254700001000083008772100013050500000000000000000201610110002001ILUMEC SAS                                        D000000020070000000000000000000000100010010000000000000000000000F0010000009254700120161011000101 00000000000000000000000000000000000000000000000000000000000000000000000000000000000000000000000000000000000000000N 00000000000NCONT   00    00000000000          00000000000000000000000000000000000000000000 000000000000000A000000000000000000000000000000000000000000000 000000000000000000000000000000000000000     00000000                                                                                                                        000000000000000000
F0010000009254700002000083008772100041450500000000000000000201610110002001ILUMEC SAS                                        C000000011440000000000000000000000100010010000000000000000000000F0010000009254700220161011000101 00000000000000000000000000000000000000000000000000000000000000000000000000000000000000000000000000000000000000000N 00000000000NCONT   00    00000000000          00000000000000000000000000000000000000000000 000000000000000A000000000000000000000000000000000000000000000 000000000000000000000000000000000000000     00000000                                                                                                                        000000000000000000
F0010000009254700003000083008772100042505000000000000000000201610110002001ILUMEC SAS                                        C000000008630000000000000000000000100010010000000000000000000000F0010000009254700320161011000101 00000000000000000000000000000000000000000000000000000000000000000000000000000000000000000000000000000000000000000N 00000000000NCONT   00    00000000000          00000000000000000000000000000000000000000000 000000000000000A000000000000000000000000000000000000000000000 000000000000000000000000000000000000000     00000000                                                                                                                        000000000000000000
F0010000009254700004000083008772100023658300000000000000000201610110002001ILUMEC SAS                                        C000000000091500000000000000000000100010010000000000000000000000F0010000009254700420161011000101 00000000000000000000000000000000000000000000000000000000000000000000000000000000000000000000000000000000000000000N 00000000000NCONT   00    00000000000          00000000000000000000000000000000000000000000 000000000000000A000000000000000000000000000000000000000000000 000000000000000000000000000000000000000     00000000                                                                                                                        000000000000000000
F0010000009254700005000083008772100013552100000000000000000201610110002001ILUMEC SAS                                        D000000000091500000000000000000000100010010000000000000000000000F0010000009254700520161011000101 00000000000000000000000000000000000000000000000000000000000000000000000000000000000000000000000000000000000000000N 00000000000NCONT   00    00000000000          00000000000000000000000000000000000000000000 000000000000000A000000000000000000000000000000000000000000000 000000000000000000000000000000000000000     00000000                                                                                                                        000000000000000000
F0010000009254800001000090001800700013050500000000000000000201610110002001EXPORTEXA S.A.S.                                  D000000016081100000000000000000000100010010000000000000000000000F0010000009254800120161011000101 00000000000000000000000000000000000000000000000000000000000000000000000000000000000000000000000000000000000000000N 00000000000NCONT   00    00000000000          00000000000000000000000000000000000000000000 000000000000000A000000000000000000000000000000000000000000000 000000000000000000000000000000000000000     00000000                                                                                                                        000000000000000000
F0010000009254800002000090001800700041450500000000000000000201610110002001EXPORTEXA S.A.S.                                  C000000013668600000000000000000000100010010000000000000000000000F0010000009254800220161011000101 00000000000000000000000000000000000000000000000000000000000000000000000000000000000000000000000000000000000000000N 00000000000NCONT   00    00000000000          00000000000000000000000000000000000000000000 000000000000000A000000000000000000000000000000000000000000000 000000000000000000000000000000000000000     00000000                                                                                                                        000000000000000000
F0010000009254800003000090001800700042505000000000000000000201610110002001EXPORTEXA S.A.S.                                  C000000002412500000000000000000000100010010000000000000000000000F0010000009254800320161011000101 00000000000000000000000000000000000000000000000000000000000000000000000000000000000000000000000000000000000000000N 00000000000NCONT   00    00000000000          00000000000000000000000000000000000000000000 000000000000000A000000000000000000000000000000000000000000000 000000000000000000000000000000000000000     00000000                                                                                                                        000000000000000000
F0010000009254800004000090001800700023658300000000000000000201610110002001EXPORTEXA S.A.S.                                  C000000000109300000000000000000000100010010000000000000000000000F0010000009254800420161011000101 00000000000000000000000000000000000000000000000000000000000000000000000000000000000000000000000000000000000000000N 00000000000NCONT   00    00000000000          00000000000000000000000000000000000000000000 000000000000000A000000000000000000000000000000000000000000000 000000000000000000000000000000000000000     00000000                                                                                                                        000000000000000000
F0010000009254800005000090001800700013552100000000000000000201610110002001EXPORTEXA S.A.S.                                  D000000000109300000000000000000000100010010000000000000000000000F0010000009254800520161011000101 00000000000000000000000000000000000000000000000000000000000000000000000000000000000000000000000000000000000000000N 00000000000NCONT   00    00000000000          00000000000000000000000000000000000000000000 000000000000000A000000000000000000000000000000000000000000000 000000000000000000000000000000000000000     00000000                                                                                                                        000000000000000000
F0010000009254900001000080010983700013050500000000000000000201610110002001OHM LTDA                                          D000000029890000000000000000000000100010010000000000000000000000F0010000009254900120161011000101 00000000000000000000000000000000000000000000000000000000000000000000000000000000000000000000000000000000000000000N 00000000000NCONT   00    00000000000          00000000000000000000000000000000000000000000 000000000000000A000000000000000000000000000000000000000000000 000000000000000000000000000000000000000     00000000                                                                                                                        000000000000000000
F0010000009254900002000080010983700041450500000000000000000201610110002001OHM LTDA                                          C000000029590000000000000000000000100010010000000000000000000000F0010000009254900220161011000101 00000000000000000000000000000000000000000000000000000000000000000000000000000000000000000000000000000000000000000N 00000000000NCONT   00    00000000000          00000000000000000000000000000000000000000000 000000000000000A000000000000000000000000000000000000000000000 000000000000000000000000000000000000000     00000000                                                                                                                        000000000000000000
F0010000009254900003000080010983700042505000000000000000000201610110002001OHM LTDA                                          C000000000300000000000000000000000100010010000000000000000000000F0010000009254900320161011000101 00000000000000000000000000000000000000000000000000000000000000000000000000000000000000000000000000000000000000000N 00000000000NCONT   00    00000000000          00000000000000000000000000000000000000000000 000000000000000A000000000000000000000000000000000000000000000 000000000000000000000000000000000000000     00000000                                                                                                                        000000000000000000
F0010000009254900004000080010983700023658300000000000000000201610110002001OHM LTDA                                          C000000000236700000000000000000000100010010000000000000000000000F0010000009254900420161011000101 00000000000000000000000000000000000000000000000000000000000000000000000000000000000000000000000000000000000000000N 00000000000NCONT   00    00000000000          00000000000000000000000000000000000000000000 000000000000000A000000000000000000000000000000000000000000000 000000000000000000000000000000000000000     00000000                                                                                                                        000000000000000000
F0010000009254900005000080010983700013552100000000000000000201610110002001OHM LTDA                                          D000000000236700000000000000000000100010010000000000000000000000F0010000009254900520161011000101 00000000000000000000000000000000000000000000000000000000000000000000000000000000000000000000000000000000000000000N 00000000000NCONT   00    00000000000          00000000000000000000000000000000000000000000 000000000000000A000000000000000000000000000000000000000000000 000000000000000000000000000000000000000     00000000                                                                                                                        000000000000000000
F0010000009255000001000090080946500013050500000000000000000201610110002001INVERSIONES AFAP SAS                              D000000004240000000000000000000000100010010000000000000000000000F0010000009255000120161011000101 00000000000000000000000000000000000000000000000000000000000000000000000000000000000000000000000000000000000000000N 00000000000NCONT   00    00000000000          00000000000000000000000000000000000000000000 000000000000000A000000000000000000000000000000000000000000000 000000000000000000000000000000000000000     00000000                                                                                                                        000000000000000000
F0010000009255000002000090080946500041450500000000000000000201610110002001INVERSIONES AFAP SAS                              C000000003440000000000000000000000100010010000000000000000000000F0010000009255000220161011000101 00000000000000000000000000000000000000000000000000000000000000000000000000000000000000000000000000000000000000000N 00000000000NCONT   00    00000000000          00000000000000000000000000000000000000000000 000000000000000A000000000000000000000000000000000000000000000 000000000000000000000000000000000000000     00000000                                                                                                                        000000000000000000
F0010000009255000003000090080946500042505000000000000000000201610110002001INVERSIONES AFAP SAS                              C000000000800000000000000000000000100010010000000000000000000000F0010000009255000320161011000101 00000000000000000000000000000000000000000000000000000000000000000000000000000000000000000000000000000000000000000N 00000000000NCONT   00    00000000000          00000000000000000000000000000000000000000000 000000000000000A000000000000000000000000000000000000000000000 000000000000000000000000000000000000000     00000000                                                                                                                        000000000000000000
F0010000009255000004000090080946500023658300000000000000000201610110002001INVERSIONES AFAP SAS                              C000000000027500000000000000000000100010010000000000000000000000F0010000009255000420161011000101 00000000000000000000000000000000000000000000000000000000000000000000000000000000000000000000000000000000000000000N 00000000000NCONT   00    00000000000          00000000000000000000000000000000000000000000 000000000000000A000000000000000000000000000000000000000000000 000000000000000000000000000000000000000     00000000                                                                                                                        000000000000000000
F0010000009255000005000090080946500013552100000000000000000201610110002001INVERSIONES AFAP SAS                              D000000000027500000000000000000000100010010000000000000000000000F0010000009255000520161011000101 00000000000000000000000000000000000000000000000000000000000000000000000000000000000000000000000000000000000000000N 00000000000NCONT   00    00000000000          00000000000000000000000000000000000000000000 000000000000000A000000000000000000000000000000000000000000000 000000000000000000000000000000000000000     00000000                                                                                                                        000000000000000000
F0010000009255100001000007215896800013050500000000000000000201610110002001EDDIER CIRO                                       D000000046682900000000000000000000100010010000000000000000000000F0010000009255100120161011000101 00000000000000000000000000000000000000000000000000000000000000000000000000000000000000000000000000000000000000000N 00000000000NCONT   00    00000000000          00000000000000000000000000000000000000000000 000000000000000A000000000000000000000000000000000000000000000 000000000000000000000000000000000000000     00000000                                                                                                                        000000000000000000
F0010000009255100002000007215896800041450500000000000000000201610110002001EDDIER CIRO                                       C000000039080000000000000000000000100010010000000000000000000000F0010000009255100220161011000101 00000000000000000000000000000000000000000000000000000000000000000000000000000000000000000000000000000000000000000N 00000000000NCONT   00    00000000000          00000000000000000000000000000000000000000000 000000000000000A000000000000000000000000000000000000000000000 000000000000000000000000000000000000000     00000000                                                                                                                        000000000000000000
F0010000009255100003000007215896800042505000000000000000000201610110002001EDDIER CIRO                                       C000000007602900000000000000000000100010010000000000000000000000F0010000009255100320161011000101 00000000000000000000000000000000000000000000000000000000000000000000000000000000000000000000000000000000000000000N 00000000000NCONT   00    00000000000          00000000000000000000000000000000000000000000 000000000000000A000000000000000000000000000000000000000000000 000000000000000000000000000000000000000     00000000                                                                                                                        000000000000000000
F0010000009255100004000007215896800023658300000000000000000201610110002001EDDIER CIRO                                       C000000000312600000000000000000000100010010000000000000000000000F0010000009255100420161011000101 00000000000000000000000000000000000000000000000000000000000000000000000000000000000000000000000000000000000000000N 00000000000NCONT   00    00000000000          00000000000000000000000000000000000000000000 000000000000000A000000000000000000000000000000000000000000000 000000000000000000000000000000000000000     00000000                                                                                                                        000000000000000000
F0010000009255100005000007215896800013552100000000000000000201610110002001EDDIER CIRO                                       D000000000312600000000000000000000100010010000000000000000000000F0010000009255100520161011000101 00000000000000000000000000000000000000000000000000000000000000000000000000000000000000000000000000000000000000000N 00000000000NCONT   00    00000000000          00000000000000000000000000000000000000000000 000000000000000A000000000000000000000000000000000000000000000 000000000000000000000000000000000000000     00000000                                                                                                                        000000000000000000
F0010000009255200001000090007142100013050500000000000000000201610110002001TODO BELLEZA Y MAX S.A.S                          D000000006410000000000000000000000100010010000000000000000000000F0010000009255200120161011000101 00000000000000000000000000000000000000000000000000000000000000000000000000000000000000000000000000000000000000000N 00000000000NCONT   00    00000000000          00000000000000000000000000000000000000000000 000000000000000A000000000000000000000000000000000000000000000 000000000000000000000000000000000000000     00000000                                                                                                                        000000000000000000
F0010000009255200002000090007142100041450500000000000000000201610110002001TODO BELLEZA Y MAX S.A.S                          C000000005760000000000000000000000100010010000000000000000000000F0010000009255200220161011000101 00000000000000000000000000000000000000000000000000000000000000000000000000000000000000000000000000000000000000000N 00000000000NCONT   00    00000000000          00000000000000000000000000000000000000000000 000000000000000A000000000000000000000000000000000000000000000 000000000000000000000000000000000000000     00000000                                                                                                                        000000000000000000
F0010000009255200003000090007142100042505000000000000000000201610110002001TODO BELLEZA Y MAX S.A.S                          C000000000650000000000000000000000100010010000000000000000000000F0010000009255200320161011000101 00000000000000000000000000000000000000000000000000000000000000000000000000000000000000000000000000000000000000000N 00000000000NCONT   00    00000000000          00000000000000000000000000000000000000000000 000000000000000A000000000000000000000000000000000000000000000 000000000000000000000000000000000000000     00000000                                                                                                                        000000000000000000
F0010000009255200004000090007142100023658300000000000000000201610110002001TODO BELLEZA Y MAX S.A.S                          C000000000046100000000000000000000100010010000000000000000000000F0010000009255200420161011000101 00000000000000000000000000000000000000000000000000000000000000000000000000000000000000000000000000000000000000000N 00000000000NCONT   00    00000000000          00000000000000000000000000000000000000000000 000000000000000A000000000000000000000000000000000000000000000 000000000000000000000000000000000000000     00000000                                                                                                                        000000000000000000
F0010000009255200005000090007142100013552100000000000000000201610110002001TODO BELLEZA Y MAX S.A.S                          D000000000046100000000000000000000100010010000000000000000000000F0010000009255200520161011000101 00000000000000000000000000000000000000000000000000000000000000000000000000000000000000000000000000000000000000000N 00000000000NCONT   00    00000000000          00000000000000000000000000000000000000000000 000000000000000A000000000000000000000000000000000000000000000 000000000000000000000000000000000000000     00000000                                                                                                                        000000000000000000
F0010000009255300001000089010952800013050500000000000000000201610110002001IND. LITOGRAF. BOSTON S.A.S.                      D000000110488000000000000000000000100010010000000000000000000000F0010000009255300120161011000101 00000000000000000000000000000000000000000000000000000000000000000000000000000000000000000000000000000000000000000N 00000000000NCONT   00    00000000000          00000000000000000000000000000000000000000000 000000000000000A000000000000000000000000000000000000000000000 000000000000000000000000000000000000000     00000000                                                                                                                        000000000000000000
F0010000009255300002000089010952800041450500000000000000000201610110002001IND. LITOGRAF. BOSTON S.A.S.                      C000000095088000000000000000000000100010010000000000000000000000F0010000009255300220161011000101 00000000000000000000000000000000000000000000000000000000000000000000000000000000000000000000000000000000000000000N 00000000000NCONT   00    00000000000          00000000000000000000000000000000000000000000 000000000000000A000000000000000000000000000000000000000000000 000000000000000000000000000000000000000     00000000                                                                                                                        000000000000000000
F0010000009255300003000089010952800042505000000000000000000201610110002001IND. LITOGRAF. BOSTON S.A.S.                      C000000015400000000000000000000000100010010000000000000000000000F0010000009255300320161011000101 00000000000000000000000000000000000000000000000000000000000000000000000000000000000000000000000000000000000000000N 00000000000NCONT   00    00000000000          00000000000000000000000000000000000000000000 000000000000000A000000000000000000000000000000000000000000000 000000000000000000000000000000000000000     00000000                                                                                                                        000000000000000000
F0010000009255300004000089010952800023658300000000000000000201610110002001IND. LITOGRAF. BOSTON S.A.S.                      C000000000760700000000000000000000100010010000000000000000000000F0010000009255300420161011000101 00000000000000000000000000000000000000000000000000000000000000000000000000000000000000000000000000000000000000000N 00000000000NCONT   00    00000000000          00000000000000000000000000000000000000000000 000000000000000A000000000000000000000000000000000000000000000 000000000000000000000000000000000000000     00000000                                                                                                                        000000000000000000
F0010000009255300005000089010952800013552100000000000000000201610110002001IND. LITOGRAF. BOSTON S.A.S.                      D000000000760700000000000000000000100010010000000000000000000000F0010000009255300520161011000101 00000000000000000000000000000000000000000000000000000000000000000000000000000000000000000000000000000000000000000N 00000000000NCONT   00    00000000000          00000000000000000000000000000000000000000000 000000000000000A000000000000000000000000000000000000000000000 000000000000000000000000000000000000000     00000000                                                                                                                        000000000000000000
F0010000009255400001000090001973700013050500000000000000000201610110002001DISTRIBUIDORA Y PAPELERIA VENEPLAS LTDA           D000000017050000000000000000000000100010010000000000000000000000F0010000009255400120161011000101 00000000000000000000000000000000000000000000000000000000000000000000000000000000000000000000000000000000000000000N 00000000000NCONT   00    00000000000          00000000000000000000000000000000000000000000 000000000000000A000000000000000000000000000000000000000000000 000000000000000000000000000000000000000     00000000                                                                                                                        000000000000000000
F0010000009255400002000090001973700041450500000000000000000201610110002001DISTRIBUIDORA Y PAPELERIA VENEPLAS LTDA           C000000016800000000000000000000000100010010000000000000000000000F0010000009255400220161011000101 00000000000000000000000000000000000000000000000000000000000000000000000000000000000000000000000000000000000000000N 00000000000NCONT   00    00000000000          00000000000000000000000000000000000000000000 000000000000000A000000000000000000000000000000000000000000000 000000000000000000000000000000000000000     00000000                                                                                                                        000000000000000000
F0010000009255400003000090001973700042505000000000000000000201610110002001DISTRIBUIDORA Y PAPELERIA VENEPLAS LTDA           C000000000250000000000000000000000100010010000000000000000000000F0010000009255400320161011000101 00000000000000000000000000000000000000000000000000000000000000000000000000000000000000000000000000000000000000000N 00000000000NCONT   00    00000000000          00000000000000000000000000000000000000000000 000000000000000A000000000000000000000000000000000000000000000 000000000000000000000000000000000000000     00000000                                                                                                                        000000000000000000
F0010000009255400004000090001973700023658300000000000000000201610110002001DISTRIBUIDORA Y PAPELERIA VENEPLAS LTDA           C000000000134400000000000000000000100010010000000000000000000000F0010000009255400420161011000101 00000000000000000000000000000000000000000000000000000000000000000000000000000000000000000000000000000000000000000N 00000000000NCONT   00    00000000000          00000000000000000000000000000000000000000000 000000000000000A000000000000000000000000000000000000000000000 000000000000000000000000000000000000000     00000000                                                                                                                        000000000000000000
F0010000009255400005000090001973700013552100000000000000000201610110002001DISTRIBUIDORA Y PAPELERIA VENEPLAS LTDA           D000000000134400000000000000000000100010010000000000000000000000F0010000009255400520161011000101 00000000000000000000000000000000000000000000000000000000000000000000000000000000000000000000000000000000000000000N 00000000000NCONT   00    00000000000          00000000000000000000000000000000000000000000 000000000000000A000000000000000000000000000000000000000000000 000000000000000000000000000000000000000     00000000                                                                                                                        000000000000000000
F0010000009255500001000089010272700013050500000000000000000201610110002001ALFONSOEME S.A.                                   D000000039020700000000000000000000100010010000000000000000000000F0010000009255500120161011000101 00000000000000000000000000000000000000000000000000000000000000000000000000000000000000000000000000000000000000000N 00000000000NCONT   00    00000000000          00000000000000000000000000000000000000000000 000000000000000A000000000000000000000000000000000000000000000 000000000000000000000000000000000000000     00000000                                                                                                                        000000000000000000
F0010000009255500002000089010272700041450500000000000000000201610110002001ALFONSOEME S.A.                                   C000000036867500000000000000000000100010010000000000000000000000F0010000009255500220161011000101 00000000000000000000000000000000000000000000000000000000000000000000000000000000000000000000000000000000000000000N 00000000000NCONT   00    00000000000          00000000000000000000000000000000000000000000 000000000000000A000000000000000000000000000000000000000000000 000000000000000000000000000000000000000     00000000                                                                                                                        000000000000000000
F0010000009255500003000089010272700041750100000000000000000201610110002001ALFONSOEME S.A.                                   D000000003686800000000000000000000100010010000000000000000000000F0010000009255500320161011000101 00000000000000000000000000000000000000000000000000000000000000000000000000000000000000000000000000000000000000000N 00000000000NCONT   00    00000000000          00000000000000000000000000000000000000000000 000000000000000A000000000000000000000000000000000000000000000 000000000000000000000000000000000000000     00000000                                                                                                                        000000000000000000
F0010000009255500004000089010272700042505000000000000000000201610110002001ALFONSOEME S.A.                                   C000000005840000000000000000000000100010010000000000000000000000F0010000009255500420161011000101 00000000000000000000000000000000000000000000000000000000000000000000000000000000000000000000000000000000000000000N 00000000000NCONT   00    00000000000          00000000000000000000000000000000000000000000 000000000000000A000000000000000000000000000000000000000000000 000000000000000000000000000000000000000     00000000                                                                                                                        000000000000000000
F0010000009255500005000089010272700023658300000000000000000201610110002001ALFONSOEME S.A.                                   C000000000294900000000000000000000100010010000000000000000000000F0010000009255500520161011000101 00000000000000000000000000000000000000000000000000000000000000000000000000000000000000000000000000000000000000000N 00000000000NCONT   00    00000000000          00000000000000000000000000000000000000000000 000000000000000A000000000000000000000000000000000000000000000 000000000000000000000000000000000000000     00000000                                                                                                                        000000000000000000
F0010000009255500006000089010272700013552100000000000000000201610110002001ALFONSOEME S.A.                                   D000000000294900000000000000000000100010010000000000000000000000F0010000009255500620161011000101 00000000000000000000000000000000000000000000000000000000000000000000000000000000000000000000000000000000000000000N 00000000000NCONT   00    00000000000          00000000000000000000000000000000000000000000 000000000000000A000000000000000000000000000000000000000000000 000000000000000000000000000000000000000     00000000                                                                                                                        000000000000000000
F0010000009255600001000089010272700013050500000000000000000201610110002001ALFONSOEME S.A.                                   D000000013564600000000000000000000100010010000000000000000000000F0010000009255600120161011000101 00000000000000000000000000000000000000000000000000000000000000000000000000000000000000000000000000000000000000000N 00000000000NCONT   00    00000000000          00000000000000000000000000000000000000000000 000000000000000A000000000000000000000000000000000000000000000 000000000000000000000000000000000000000     00000000                                                                                                                        000000000000000000
F0010000009255600002000089010272700041450500000000000000000201610110002001ALFONSOEME S.A.                                   C000000012760700000000000000000000100010010000000000000000000000F0010000009255600220161011000101 00000000000000000000000000000000000000000000000000000000000000000000000000000000000000000000000000000000000000000N 00000000000NCONT   00    00000000000          00000000000000000000000000000000000000000000 000000000000000A000000000000000000000000000000000000000000000 000000000000000000000000000000000000000     00000000                                                                                                                        000000000000000000
F0010000009255600003000089010272700041750100000000000000000201610110002001ALFONSOEME S.A.                                   D000000001276100000000000000000000100010010000000000000000000000F0010000009255600320161011000101 00000000000000000000000000000000000000000000000000000000000000000000000000000000000000000000000000000000000000000N 00000000000NCONT   00    00000000000          00000000000000000000000000000000000000000000 000000000000000A000000000000000000000000000000000000000000000 000000000000000000000000000000000000000     00000000                                                                                                                        000000000000000000
F0010000009255600004000089010272700042505000000000000000000201610110002001ALFONSOEME S.A.                                   C000000002080000000000000000000000100010010000000000000000000000F0010000009255600420161011000101 00000000000000000000000000000000000000000000000000000000000000000000000000000000000000000000000000000000000000000N 00000000000NCONT   00    00000000000          00000000000000000000000000000000000000000000 000000000000000A000000000000000000000000000000000000000000000 000000000000000000000000000000000000000     00000000                                                                                                                        000000000000000000
F0010000009255600005000089010272700023658300000000000000000201610110002001ALFONSOEME S.A.                                   C000000000102100000000000000000000100010010000000000000000000000F0010000009255600520161011000101 00000000000000000000000000000000000000000000000000000000000000000000000000000000000000000000000000000000000000000N 00000000000NCONT   00    00000000000          00000000000000000000000000000000000000000000 000000000000000A000000000000000000000000000000000000000000000 000000000000000000000000000000000000000     00000000                                                                                                                        000000000000000000
F0010000009255600006000089010272700013552100000000000000000201610110002001ALFONSOEME S.A.                                   D000000000102100000000000000000000100010010000000000000000000000F0010000009255600620161011000101 00000000000000000000000000000000000000000000000000000000000000000000000000000000000000000000000000000000000000000N 00000000000NCONT   00    00000000000          00000000000000000000000000000000000000000000 000000000000000A000000000000000000000000000000000000000000000 000000000000000000000000000000000000000     00000000                                                                                                                        000000000000000000
F0010000009255700001000081102758700013050500000000000000000201610110002001C.I. ABRACOL S.A EMA                              D000000106516400000000000000000000100010010000000000000000000000F0010000009255700120161011000101 00000000000000000000000000000000000000000000000000000000000000000000000000000000000000000000000000000000000000000N 00000000000NCONT   00    00000000000          00000000000000000000000000000000000000000000 000000000000000A000000000000000000000000000000000000000000000 000000000000000000000000000000000000000     00000000                                                                                                                        000000000000000000
F0010000009255700002000081102758700041450500000000000000000201610110002001C.I. ABRACOL S.A EMA                              C000000081900000000000000000000000100010010000000000000000000000F0010000009255700220161011000101 00000000000000000000000000000000000000000000000000000000000000000000000000000000000000000000000000000000000000000N 00000000000NCONT   00    00000000000          00000000000000000000000000000000000000000000 000000000000000A000000000000000000000000000000000000000000000 000000000000000000000000000000000000000     00000000                                                                                                                        000000000000000000
F0010000009255700003000081102758700041750100000000000000000201610110002001C.I. ABRACOL S.A EMA                              D000000002457000000000000000000000100010010000000000000000000000F0010000009255700320161011000101 00000000000000000000000000000000000000000000000000000000000000000000000000000000000000000000000000000000000000000N 00000000000NCONT   00    00000000000          00000000000000000000000000000000000000000000 000000000000000A000000000000000000000000000000000000000000000 000000000000000000000000000000000000000     00000000                                                                                                                        000000000000000000
F0010000009255700004000081102758700042505000000000000000000201610110002001C.I. ABRACOL S.A EMA                              C000000027073400000000000000000000100010010000000000000000000000F0010000009255700420161011000101 00000000000000000000000000000000000000000000000000000000000000000000000000000000000000000000000000000000000000000N 00000000000NCONT   00    00000000000          00000000000000000000000000000000000000000000 000000000000000A000000000000000000000000000000000000000000000 000000000000000000000000000000000000000     00000000                                                                                                                        000000000000000000
F0010000009255700005000081102758700023658300000000000000000201610110002001C.I. ABRACOL S.A EMA                              C000000000655200000000000000000000100010010000000000000000000000F0010000009255700520161011000101 00000000000000000000000000000000000000000000000000000000000000000000000000000000000000000000000000000000000000000N 00000000000NCONT   00    00000000000          00000000000000000000000000000000000000000000 000000000000000A000000000000000000000000000000000000000000000 000000000000000000000000000000000000000     00000000                                                                                                                        000000000000000000
F0010000009255700006000081102758700013552100000000000000000201610110002001C.I. ABRACOL S.A EMA                              D000000000655200000000000000000000100010010000000000000000000000F0010000009255700620161011000101 00000000000000000000000000000000000000000000000000000000000000000000000000000000000000000000000000000000000000000N 00000000000NCONT   00    00000000000          00000000000000000000000000000000000000000000 000000000000000A000000000000000000000000000000000000000000000 000000000000000000000000000000000000000     00000000                                                                                                                        000000000000000000
F0010000009255800001000081102758700013050500000000000000000201610110002001C.I. ABRACOL S.A EMA                              D000000146244700000000000000000000100010010000000000000000000000F0010000009255800120161011000101 00000000000000000000000000000000000000000000000000000000000000000000000000000000000000000000000000000000000000000N 00000000000NCONT   00    00000000000          00000000000000000000000000000000000000000000 000000000000000A000000000000000000000000000000000000000000000 000000000000000000000000000000000000000     00000000                                                                                                                        000000000000000000
F0010000009255800002000081102758700041450500000000000000000201610110002001C.I. ABRACOL S.A EMA                              C000000112870000000000000000000000100010010000000000000000000000F0010000009255800220161011000101 00000000000000000000000000000000000000000000000000000000000000000000000000000000000000000000000000000000000000000N 00000000000NCONT   00    00000000000          00000000000000000000000000000000000000000000 000000000000000A000000000000000000000000000000000000000000000 000000000000000000000000000000000000000     00000000                                                                                                                        000000000000000000
F0010000009255800003000081102758700041750100000000000000000201610110002001C.I. ABRACOL S.A EMA                              D000000003386100000000000000000000100010010000000000000000000000F0010000009255800320161011000101 00000000000000000000000000000000000000000000000000000000000000000000000000000000000000000000000000000000000000000N 00000000000NCONT   00    00000000000          00000000000000000000000000000000000000000000 000000000000000A000000000000000000000000000000000000000000000 000000000000000000000000000000000000000     00000000                                                                                                                        000000000000000000
F0010000009255800004000081102758700042505000000000000000000201610110002001C.I. ABRACOL S.A EMA                              C000000036760800000000000000000000100010010000000000000000000000F0010000009255800420161011000101 00000000000000000000000000000000000000000000000000000000000000000000000000000000000000000000000000000000000000000N 00000000000NCONT   00    00000000000          00000000000000000000000000000000000000000000 000000000000000A000000000000000000000000000000000000000000000 000000000000000000000000000000000000000     00000000                                                                                                                        000000000000000000
F0010000009255800005000081102758700023658300000000000000000201610110002001C.I. ABRACOL S.A EMA                              C000000000903000000000000000000000100010010000000000000000000000F0010000009255800520161011000101 00000000000000000000000000000000000000000000000000000000000000000000000000000000000000000000000000000000000000000N 00000000000NCONT   00    00000000000          00000000000000000000000000000000000000000000 000000000000000A000000000000000000000000000000000000000000000 000000000000000000000000000000000000000     00000000                                                                                                                        000000000000000000
F0010000009255800006000081102758700013552100000000000000000201610110002001C.I. ABRACOL S.A EMA                              D000000000903000000000000000000000100010010000000000000000000000F0010000009255800620161011000101 00000000000000000000000000000000000000000000000000000000000000000000000000000000000000000000000000000000000000000N 00000000000NCONT   00    00000000000          00000000000000000000000000000000000000000000 000000000000000A000000000000000000000000000000000000000000000 000000000000000000000000000000000000000     00000000                                                                                                                        000000000000000000
F0010000009255900001000089011492400013050500000000000000000201610110002001AGE. CAUCHO SOL DE LA COSTA  SAS                  D000000113817100000000000000000000100010010000000000000000000000F0010000009255900120161011000101 00000000000000000000000000000000000000000000000000000000000000000000000000000000000000000000000000000000000000000N 00000000000NCONT   00    00000000000          00000000000000000000000000000000000000000000 000000000000000A000000000000000000000000000000000000000000000 000000000000000000000000000000000000000     00000000                                                                                                                        000000000000000000
F0010000009255900002000089011492400041450500000000000000000201610110002001AGE. CAUCHO SOL DE LA COSTA  SAS                  C000000076010000000000000000000000100010010000000000000000000000F0010000009255900220161011000101 00000000000000000000000000000000000000000000000000000000000000000000000000000000000000000000000000000000000000000N 00000000000NCONT   00    00000000000          00000000000000000000000000000000000000000000 000000000000000A000000000000000000000000000000000000000000000 000000000000000000000000000000000000000     00000000                                                                                                                        000000000000000000
F0010000009255900003000089011492400042505000000000000000000201610110002001AGE. CAUCHO SOL DE LA COSTA  SAS                  C000000037807100000000000000000000100010010000000000000000000000F0010000009255900320161011000101 00000000000000000000000000000000000000000000000000000000000000000000000000000000000000000000000000000000000000000N 00000000000NCONT   00    00000000000          00000000000000000000000000000000000000000000 000000000000000A000000000000000000000000000000000000000000000 000000000000000000000000000000000000000     00000000                                                                                                                        000000000000000000
F0010000009255900004000089011492400023658300000000000000000201610110002001AGE. CAUCHO SOL DE LA COSTA  SAS                  C000000000608100000000000000000000100010010000000000000000000000F0010000009255900420161011000101 00000000000000000000000000000000000000000000000000000000000000000000000000000000000000000000000000000000000000000N 00000000000NCONT   00    00000000000          00000000000000000000000000000000000000000000 000000000000000A000000000000000000000000000000000000000000000 000000000000000000000000000000000000000     00000000                                                                                                                        000000000000000000
F0010000009255900005000089011492400013552100000000000000000201610110002001AGE. CAUCHO SOL DE LA COSTA  SAS                  D000000000608100000000000000000000100010010000000000000000000000F0010000009255900520161011000101 00000000000000000000000000000000000000000000000000000000000000000000000000000000000000000000000000000000000000000N 00000000000NCONT   00    00000000000          00000000000000000000000000000000000000000000 000000000000000A000000000000000000000000000000000000000000000 000000000000000000000000000000000000000     00000000                                                                                                                        000000000000000000
F0010000009256000001000089011492400013050500000000000000000201610110002001AGE. CAUCHO SOL DE LA COSTA  SAS                  D000000133896300000000000000000000100010010000000000000000000000F0010000009256000120161011000101 00000000000000000000000000000000000000000000000000000000000000000000000000000000000000000000000000000000000000000N 00000000000NCONT   00    00000000000          00000000000000000000000000000000000000000000 000000000000000A000000000000000000000000000000000000000000000 000000000000000000000000000000000000000     00000000                                                                                                                        000000000000000000
