F0010000006398800001000090062854500013050500000000000000000201410170002001FERRETERIA JDF                                    D000000018800000000000000000000000100010010000000000000000000000F0010000006398800120141017000101 00000000000000000000000000000000000000000000000000000000000000000000000000000000000000000000000000000000000000000N 00000000000NCONT   00    00000000000          00000000000000000000000000000000000000000000 000000000000000A000000000000000000000000000000000000000000000 000000000000000000000000000000000000000     00000000                                                                                                                        000000000000000000
F0010000006398800002000090062854500041450500000000000000000201410170002001FERRETERIA JDF                                    C000000015900000000000000000000000100010010000000000000000000000F0010000006398800220141017000101 00000000000000000000000000000000000000000000000000000000000000000000000000000000000000000000000000000000000000000N 00000000000NCONT   00    00000000000          00000000000000000000000000000000000000000000 000000000000000A000000000000000000000000000000000000000000000 000000000000000000000000000000000000000     00000000                                                                                                                        000000000000000000
F0010000006398800003000090062854500042505000000000000000000201410170002001FERRETERIA JDF                                    C000000002900000000000000000000000100010010000000000000000000000F0010000006398800320141017000101 00000000000000000000000000000000000000000000000000000000000000000000000000000000000000000000000000000000000000000N 00000000000NCONT   00    00000000000          00000000000000000000000000000000000000000000 000000000000000A000000000000000000000000000000000000000000000 000000000000000000000000000000000000000     00000000                                                                                                                        000000000000000000
F0010000006398800004000090062854500023658300000000000000000201410170002001FERRETERIA JDF                                    C000000000127200000000000000000000100010010000000000000000000000F0010000006398800420141017000101 00000000000000000000000000000000000000000000000000000000000000000000000000000000000000000000000000000000000000000N 00000000000NCONT   00    00000000000          00000000000000000000000000000000000000000000 000000000000000A000000000000000000000000000000000000000000000 000000000000000000000000000000000000000     00000000                                                                                                                        000000000000000000
F0010000006398800005000090062854500013552100000000000000000201410170002001FERRETERIA JDF                                    D000000000127200000000000000000000100010010000000000000000000000F0010000006398800520141017000101 00000000000000000000000000000000000000000000000000000000000000000000000000000000000000000000000000000000000000000N 00000000000NCONT   00    00000000000          00000000000000000000000000000000000000000000 000000000000000A000000000000000000000000000000000000000000000 000000000000000000000000000000000000000     00000000                                                                                                                        000000000000000000
F0010000006398900001000090013324200013050500000000000000000201410170002001PLASTICOHEN E.U                                   D000000023160000000000000000000000100010010000000000000000000000F0010000006398900120141017000101 00000000000000000000000000000000000000000000000000000000000000000000000000000000000000000000000000000000000000000N 00000000000NCONT   00    00000000000          00000000000000000000000000000000000000000000 000000000000000A000000000000000000000000000000000000000000000 000000000000000000000000000000000000000     00000000                                                                                                                        000000000000000000
F0010000006398900002000090013324200041450500000000000000000201410170002001PLASTICOHEN E.U                                   C000000020660000000000000000000000100010010000000000000000000000F0010000006398900220141017000101 00000000000000000000000000000000000000000000000000000000000000000000000000000000000000000000000000000000000000000N 00000000000NCONT   00    00000000000          00000000000000000000000000000000000000000000 000000000000000A000000000000000000000000000000000000000000000 000000000000000000000000000000000000000     00000000                                                                                                                        000000000000000000
F0010000006398900003000090013324200042505000000000000000000201410170002001PLASTICOHEN E.U                                   C000000002500000000000000000000000100010010000000000000000000000F0010000006398900320141017000101 00000000000000000000000000000000000000000000000000000000000000000000000000000000000000000000000000000000000000000N 00000000000NCONT   00    00000000000          00000000000000000000000000000000000000000000 000000000000000A000000000000000000000000000000000000000000000 000000000000000000000000000000000000000     00000000                                                                                                                        000000000000000000
F0010000006398900004000090013324200023658300000000000000000201410170002001PLASTICOHEN E.U                                   C000000000165300000000000000000000100010010000000000000000000000F0010000006398900420141017000101 00000000000000000000000000000000000000000000000000000000000000000000000000000000000000000000000000000000000000000N 00000000000NCONT   00    00000000000          00000000000000000000000000000000000000000000 000000000000000A000000000000000000000000000000000000000000000 000000000000000000000000000000000000000     00000000                                                                                                                        000000000000000000
F0010000006398900005000090013324200013552100000000000000000201410170002001PLASTICOHEN E.U                                   D000000000165300000000000000000000100010010000000000000000000000F0010000006398900520141017000101 00000000000000000000000000000000000000000000000000000000000000000000000000000000000000000000000000000000000000000N 00000000000NCONT   00    00000000000          00000000000000000000000000000000000000000000 000000000000000A000000000000000000000000000000000000000000000 000000000000000000000000000000000000000     00000000                                                                                                                        000000000000000000
F0010000006399000001000080200563400013050500000000000000000201410170002001TECNOSEMILLAS LTDA                                D000000007997000000000000000000000100010010000000000000000000000F0010000006399000120141017000101 00000000000000000000000000000000000000000000000000000000000000000000000000000000000000000000000000000000000000000N 00000000000NCONT   00    00000000000          00000000000000000000000000000000000000000000 000000000000000A000000000000000000000000000000000000000000000 000000000000000000000000000000000000000     00000000                                                                                                                        000000000000000000
F0010000006399000002000080200563400041450500000000000000000201410170002001TECNOSEMILLAS LTDA                                C000000005250000000000000000000000100010010000000000000000000000F0010000006399000220141017000101 00000000000000000000000000000000000000000000000000000000000000000000000000000000000000000000000000000000000000000N 00000000000NCONT   00    00000000000          00000000000000000000000000000000000000000000 000000000000000A000000000000000000000000000000000000000000000 000000000000000000000000000000000000000     00000000                                                                                                                        000000000000000000
F0010000006399000003000080200563400042505000000000000000000201410170002001TECNOSEMILLAS LTDA                                C000000002747000000000000000000000100010010000000000000000000000F0010000006399000320141017000101 00000000000000000000000000000000000000000000000000000000000000000000000000000000000000000000000000000000000000000N 00000000000NCONT   00    00000000000          00000000000000000000000000000000000000000000 000000000000000A000000000000000000000000000000000000000000000 000000000000000000000000000000000000000     00000000                                                                                                                        000000000000000000
F0010000006399000004000080200563400023658300000000000000000201410170002001TECNOSEMILLAS LTDA                                C000000000042000000000000000000000100010010000000000000000000000F0010000006399000420141017000101 00000000000000000000000000000000000000000000000000000000000000000000000000000000000000000000000000000000000000000N 00000000000NCONT   00    00000000000          00000000000000000000000000000000000000000000 000000000000000A000000000000000000000000000000000000000000000 000000000000000000000000000000000000000     00000000                                                                                                                        000000000000000000
F0010000006399000005000080200563400013552100000000000000000201410170002001TECNOSEMILLAS LTDA                                D000000000042000000000000000000000100010010000000000000000000000F0010000006399000520141017000101 00000000000000000000000000000000000000000000000000000000000000000000000000000000000000000000000000000000000000000N 00000000000NCONT   00    00000000000          00000000000000000000000000000000000000000000 000000000000000A000000000000000000000000000000000000000000000 000000000000000000000000000000000000000     00000000                                                                                                                        000000000000000000
F0010000006399100001000090036646700013050500000000000000000201410170002001FERREPROYECTOS S.A.S                              D000000016000000000000000000000000100010010000000000000000000000F0010000006399100120141017000101 00000000000000000000000000000000000000000000000000000000000000000000000000000000000000000000000000000000000000000N 00000000000NCONT   00    00000000000          00000000000000000000000000000000000000000000 000000000000000A000000000000000000000000000000000000000000000 000000000000000000000000000000000000000     00000000                                                                                                                        000000000000000000
F0010000006399100002000090036646700041450500000000000000000201410170002001FERREPROYECTOS S.A.S                              C000000015900000000000000000000000100010010000000000000000000000F0010000006399100220141017000101 00000000000000000000000000000000000000000000000000000000000000000000000000000000000000000000000000000000000000000N 00000000000NCONT   00    00000000000          00000000000000000000000000000000000000000000 000000000000000A000000000000000000000000000000000000000000000 000000000000000000000000000000000000000     00000000                                                                                                                        000000000000000000
F0010000006399100003000090036646700042505000000000000000000201410170002001FERREPROYECTOS S.A.S                              C000000000100000000000000000000000100010010000000000000000000000F0010000006399100320141017000101 00000000000000000000000000000000000000000000000000000000000000000000000000000000000000000000000000000000000000000N 00000000000NCONT   00    00000000000          00000000000000000000000000000000000000000000 000000000000000A000000000000000000000000000000000000000000000 000000000000000000000000000000000000000     00000000                                                                                                                        000000000000000000
F0010000006399100004000090036646700023658300000000000000000201410170002001FERREPROYECTOS S.A.S                              C000000000127200000000000000000000100010010000000000000000000000F0010000006399100420141017000101 00000000000000000000000000000000000000000000000000000000000000000000000000000000000000000000000000000000000000000N 00000000000NCONT   00    00000000000          00000000000000000000000000000000000000000000 000000000000000A000000000000000000000000000000000000000000000 000000000000000000000000000000000000000     00000000                                                                                                                        000000000000000000
F0010000006399100005000090036646700013552100000000000000000201410170002001FERREPROYECTOS S.A.S                              D000000000127200000000000000000000100010010000000000000000000000F0010000006399100520141017000101 00000000000000000000000000000000000000000000000000000000000000000000000000000000000000000000000000000000000000000N 00000000000NCONT   00    00000000000          00000000000000000000000000000000000000000000 000000000000000A000000000000000000000000000000000000000000000 000000000000000000000000000000000000000     00000000                                                                                                                        000000000000000000
F0010000006399200001000089070997800013050500000000000000000201410170002001CENTRAL DE TORNILLOS                              D000000006660000000000000000000000100010010000000000000000000000F0010000006399200120141017000101 00000000000000000000000000000000000000000000000000000000000000000000000000000000000000000000000000000000000000000N 00000000000NCONT   00    00000000000          00000000000000000000000000000000000000000000 000000000000000A000000000000000000000000000000000000000000000 000000000000000000000000000000000000000     00000000                                                                                                                        000000000000000000
F0010000006399200002000089070997800041450500000000000000000201410170002001CENTRAL DE TORNILLOS                              C000000006360000000000000000000000100010010000000000000000000000F0010000006399200220141017000101 00000000000000000000000000000000000000000000000000000000000000000000000000000000000000000000000000000000000000000N 00000000000NCONT   00    00000000000          00000000000000000000000000000000000000000000 000000000000000A000000000000000000000000000000000000000000000 000000000000000000000000000000000000000     00000000                                                                                                                        000000000000000000
F0010000006399200003000089070997800042505000000000000000000201410170002001CENTRAL DE TORNILLOS                              C000000000300000000000000000000000100010010000000000000000000000F0010000006399200320141017000101 00000000000000000000000000000000000000000000000000000000000000000000000000000000000000000000000000000000000000000N 00000000000NCONT   00    00000000000          00000000000000000000000000000000000000000000 000000000000000A000000000000000000000000000000000000000000000 000000000000000000000000000000000000000     00000000                                                                                                                        000000000000000000
F0010000006399200004000089070997800023658300000000000000000201410170002001CENTRAL DE TORNILLOS                              C000000000050900000000000000000000100010010000000000000000000000F0010000006399200420141017000101 00000000000000000000000000000000000000000000000000000000000000000000000000000000000000000000000000000000000000000N 00000000000NCONT   00    00000000000          00000000000000000000000000000000000000000000 000000000000000A000000000000000000000000000000000000000000000 000000000000000000000000000000000000000     00000000                                                                                                                        000000000000000000
F0010000006399200005000089070997800013552100000000000000000201410170002001CENTRAL DE TORNILLOS                              D000000000050900000000000000000000100010010000000000000000000000F0010000006399200520141017000101 00000000000000000000000000000000000000000000000000000000000000000000000000000000000000000000000000000000000000000N 00000000000NCONT   00    00000000000          00000000000000000000000000000000000000000000 000000000000000A000000000000000000000000000000000000000000000 000000000000000000000000000000000000000     00000000                                                                                                                        000000000000000000
F0010000006399300001000089010081800013050500000000000000000201410170002001NORTON LTDA                                       D000000003900000000000000000000000100010010000000000000000000000F0010000006399300120141017000101 00000000000000000000000000000000000000000000000000000000000000000000000000000000000000000000000000000000000000000N 00000000000NCONT   00    00000000000          00000000000000000000000000000000000000000000 000000000000000A000000000000000000000000000000000000000000000 000000000000000000000000000000000000000     00000000                                                                                                                        000000000000000000
F0010000006399300002000089010081800041450500000000000000000201410170002001NORTON LTDA                                       C000000001200000000000000000000000100010010000000000000000000000F0010000006399300220141017000101 00000000000000000000000000000000000000000000000000000000000000000000000000000000000000000000000000000000000000000N 00000000000NCONT   00    00000000000          00000000000000000000000000000000000000000000 000000000000000A000000000000000000000000000000000000000000000 000000000000000000000000000000000000000     00000000                                                                                                                        000000000000000000
F0010000006399300003000089010081800042505000000000000000000201410170002001NORTON LTDA                                       C000000002700000000000000000000000100010010000000000000000000000F0010000006399300320141017000101 00000000000000000000000000000000000000000000000000000000000000000000000000000000000000000000000000000000000000000N 00000000000NCONT   00    00000000000          00000000000000000000000000000000000000000000 000000000000000A000000000000000000000000000000000000000000000 000000000000000000000000000000000000000     00000000                                                                                                                        000000000000000000
F0010000006399300004000089010081800023658300000000000000000201410170002001NORTON LTDA                                       C000000000009600000000000000000000100010010000000000000000000000F0010000006399300420141017000101 00000000000000000000000000000000000000000000000000000000000000000000000000000000000000000000000000000000000000000N 00000000000NCONT   00    00000000000          00000000000000000000000000000000000000000000 000000000000000A000000000000000000000000000000000000000000000 000000000000000000000000000000000000000     00000000                                                                                                                        000000000000000000
F0010000006399300005000089010081800013552100000000000000000201410170002001NORTON LTDA                                       D000000000009600000000000000000000100010010000000000000000000000F0010000006399300520141017000101 00000000000000000000000000000000000000000000000000000000000000000000000000000000000000000000000000000000000000000N 00000000000NCONT   00    00000000000          00000000000000000000000000000000000000000000 000000000000000A000000000000000000000000000000000000000000000 000000000000000000000000000000000000000     00000000                                                                                                                        000000000000000000
F0010000006399400001000007904689600013050500000000000000000201410170002001VICTOR MANUEL BOCANEGRA RAMIREZ                   D000000002000000000000000000000000100010010000000000000000000000F0010000006399400120141017000101 00000000000000000000000000000000000000000000000000000000000000000000000000000000000000000000000000000000000000000N 00000000000NCONT   00    00000000000          00000000000000000000000000000000000000000000 000000000000000A000000000000000000000000000000000000000000000 000000000000000000000000000000000000000     00000000                                                                                                                        000000000000000000
F0010000006399400002000007904689600041450500000000000000000201410170002001VICTOR MANUEL BOCANEGRA RAMIREZ                   C000000001800000000000000000000000100010010000000000000000000000F0010000006399400220141017000101 00000000000000000000000000000000000000000000000000000000000000000000000000000000000000000000000000000000000000000N 00000000000NCONT   00    00000000000          00000000000000000000000000000000000000000000 000000000000000A000000000000000000000000000000000000000000000 000000000000000000000000000000000000000     00000000                                                                                                                        000000000000000000
F0010000006399400003000007904689600042505000000000000000000201410170002001VICTOR MANUEL BOCANEGRA RAMIREZ                   C000000000200000000000000000000000100010010000000000000000000000F0010000006399400320141017000101 00000000000000000000000000000000000000000000000000000000000000000000000000000000000000000000000000000000000000000N 00000000000NCONT   00    00000000000          00000000000000000000000000000000000000000000 000000000000000A000000000000000000000000000000000000000000000 000000000000000000000000000000000000000     00000000                                                                                                                        000000000000000000
F0010000006399400004000007904689600023658300000000000000000201410170002001VICTOR MANUEL BOCANEGRA RAMIREZ                   C000000000014400000000000000000000100010010000000000000000000000F0010000006399400420141017000101 00000000000000000000000000000000000000000000000000000000000000000000000000000000000000000000000000000000000000000N 00000000000NCONT   00    00000000000          00000000000000000000000000000000000000000000 000000000000000A000000000000000000000000000000000000000000000 000000000000000000000000000000000000000     00000000                                                                                                                        000000000000000000
F0010000006399400005000007904689600013552100000000000000000201410170002001VICTOR MANUEL BOCANEGRA RAMIREZ                   D000000000014400000000000000000000100010010000000000000000000000F0010000006399400520141017000101 00000000000000000000000000000000000000000000000000000000000000000000000000000000000000000000000000000000000000000N 00000000000NCONT   00    00000000000          00000000000000000000000000000000000000000000 000000000000000A000000000000000000000000000000000000000000000 000000000000000000000000000000000000000     00000000                                                                                                                        000000000000000000
F0010000006399500001000004175790100013050500000000000000000201410170002001ROSIRIS FERIA HOYOS  (COSM. SHILLER)              D000000003850000000000000000000000100010010000000000000000000000F0010000006399500120141017000101 00000000000000000000000000000000000000000000000000000000000000000000000000000000000000000000000000000000000000000N 00000000000NCONT   00    00000000000          00000000000000000000000000000000000000000000 000000000000000A000000000000000000000000000000000000000000000 000000000000000000000000000000000000000     00000000                                                                                                                        000000000000000000
F0010000006399500002000004175790100041450500000000000000000201410170002001ROSIRIS FERIA HOYOS  (COSM. SHILLER)              C000000003150000000000000000000000100010010000000000000000000000F0010000006399500220141017000101 00000000000000000000000000000000000000000000000000000000000000000000000000000000000000000000000000000000000000000N 00000000000NCONT   00    00000000000          00000000000000000000000000000000000000000000 000000000000000A000000000000000000000000000000000000000000000 000000000000000000000000000000000000000     00000000                                                                                                                        000000000000000000
F0010000006399500003000004175790100042505000000000000000000201410170002001ROSIRIS FERIA HOYOS  (COSM. SHILLER)              C000000000700000000000000000000000100010010000000000000000000000F0010000006399500320141017000101 00000000000000000000000000000000000000000000000000000000000000000000000000000000000000000000000000000000000000000N 00000000000NCONT   00    00000000000          00000000000000000000000000000000000000000000 000000000000000A000000000000000000000000000000000000000000000 000000000000000000000000000000000000000     00000000                                                                                                                        000000000000000000
F0010000006399500004000004175790100023658300000000000000000201410170002001ROSIRIS FERIA HOYOS  (COSM. SHILLER)              C000000000025200000000000000000000100010010000000000000000000000F0010000006399500420141017000101 00000000000000000000000000000000000000000000000000000000000000000000000000000000000000000000000000000000000000000N 00000000000NCONT   00    00000000000          00000000000000000000000000000000000000000000 000000000000000A000000000000000000000000000000000000000000000 000000000000000000000000000000000000000     00000000                                                                                                                        000000000000000000
F0010000006399500005000004175790100013552100000000000000000201410170002001ROSIRIS FERIA HOYOS  (COSM. SHILLER)              D000000000025200000000000000000000100010010000000000000000000000F0010000006399500520141017000101 00000000000000000000000000000000000000000000000000000000000000000000000000000000000000000000000000000000000000000N 00000000000NCONT   00    00000000000          00000000000000000000000000000000000000000000 000000000000000A000000000000000000000000000000000000000000000 000000000000000000000000000000000000000     00000000                                                                                                                        000000000000000000
F0010000006399600001000090031601300013050500000000000000000201410170002001COMPAÑIA QUIMICA S.A.S.                          D000000036430000000000000000000000100010010000000000000000000000F0010000006399600120141017000101 00000000000000000000000000000000000000000000000000000000000000000000000000000000000000000000000000000000000000000N 00000000000NCONT   00    00000000000          00000000000000000000000000000000000000000000 000000000000000A000000000000000000000000000000000000000000000 000000000000000000000000000000000000000     00000000                                                                                                                        000000000000000000
F0010000006399600002000090031601300041450500000000000000000201410170002001COMPAÑIA QUIMICA S.A.S.                          C000000034400000000000000000000000100010010000000000000000000000F0010000006399600220141017000101 00000000000000000000000000000000000000000000000000000000000000000000000000000000000000000000000000000000000000000N 00000000000NCONT   00    00000000000          00000000000000000000000000000000000000000000 000000000000000A000000000000000000000000000000000000000000000 000000000000000000000000000000000000000     00000000                                                                                                                        000000000000000000
F0010000006399600003000090031601300042505000000000000000000201410170002001COMPAÑIA QUIMICA S.A.S.                          C000000002030000000000000000000000100010010000000000000000000000F0010000006399600320141017000101 00000000000000000000000000000000000000000000000000000000000000000000000000000000000000000000000000000000000000000N 00000000000NCONT   00    00000000000          00000000000000000000000000000000000000000000 000000000000000A000000000000000000000000000000000000000000000 000000000000000000000000000000000000000     00000000                                                                                                                        000000000000000000
F0010000006399600004000090031601300023658300000000000000000201410170002001COMPAÑIA QUIMICA S.A.S.                          C000000000275200000000000000000000100010010000000000000000000000F0010000006399600420141017000101 00000000000000000000000000000000000000000000000000000000000000000000000000000000000000000000000000000000000000000N 00000000000NCONT   00    00000000000          00000000000000000000000000000000000000000000 000000000000000A000000000000000000000000000000000000000000000 000000000000000000000000000000000000000     00000000                                                                                                                        000000000000000000
F0010000006399600005000090031601300013552100000000000000000201410170002001COMPAÑIA QUIMICA S.A.S.                          D000000000275200000000000000000000100010010000000000000000000000F0010000006399600520141017000101 00000000000000000000000000000000000000000000000000000000000000000000000000000000000000000000000000000000000000000N 00000000000NCONT   00    00000000000          00000000000000000000000000000000000000000000 000000000000000A000000000000000000000000000000000000000000000 000000000000000000000000000000000000000     00000000                                                                                                                        000000000000000000
F0010000006399700001000090050863700013050500000000000000000201410170002001COMERCIALIZADORA PERFECT SAS                      D000000012420500000000000000000000100010010000000000000000000000F0010000006399700120141017000101 00000000000000000000000000000000000000000000000000000000000000000000000000000000000000000000000000000000000000000N 00000000000NCONT   00    00000000000          00000000000000000000000000000000000000000000 000000000000000A000000000000000000000000000000000000000000000 000000000000000000000000000000000000000     00000000                                                                                                                        000000000000000000
F0010000006399700002000090050863700041450500000000000000000201410170002001COMERCIALIZADORA PERFECT SAS                      C000000008320500000000000000000000100010010000000000000000000000F0010000006399700220141017000101 00000000000000000000000000000000000000000000000000000000000000000000000000000000000000000000000000000000000000000N 00000000000NCONT   00    00000000000          00000000000000000000000000000000000000000000 000000000000000A000000000000000000000000000000000000000000000 000000000000000000000000000000000000000     00000000                                                                                                                        000000000000000000
F0010000006399700003000090050863700042505000000000000000000201410170002001COMERCIALIZADORA PERFECT SAS                      C000000004100000000000000000000000100010010000000000000000000000F0010000006399700320141017000101 00000000000000000000000000000000000000000000000000000000000000000000000000000000000000000000000000000000000000000N 00000000000NCONT   00    00000000000          00000000000000000000000000000000000000000000 000000000000000A000000000000000000000000000000000000000000000 000000000000000000000000000000000000000     00000000                                                                                                                        000000000000000000
F0010000006399700004000090050863700023658300000000000000000201410170002001COMERCIALIZADORA PERFECT SAS                      C000000000066600000000000000000000100010010000000000000000000000F0010000006399700420141017000101 00000000000000000000000000000000000000000000000000000000000000000000000000000000000000000000000000000000000000000N 00000000000NCONT   00    00000000000          00000000000000000000000000000000000000000000 000000000000000A000000000000000000000000000000000000000000000 000000000000000000000000000000000000000     00000000                                                                                                                        000000000000000000
F0010000006399700005000090050863700013552100000000000000000201410170002001COMERCIALIZADORA PERFECT SAS                      D000000000066600000000000000000000100010010000000000000000000000F0010000006399700520141017000101 00000000000000000000000000000000000000000000000000000000000000000000000000000000000000000000000000000000000000000N 00000000000NCONT   00    00000000000          00000000000000000000000000000000000000000000 000000000000000A000000000000000000000000000000000000000000000 000000000000000000000000000000000000000     00000000                                                                                                                        000000000000000000
F0010000006399800001000107225647100013050500000000000000000201410170002001JHON BYRON DUQUE DONADO (BODEGA JHONIFER)         D000000003000000000000000000000000100010010000000000000000000000F0010000006399800120141017000101 00000000000000000000000000000000000000000000000000000000000000000000000000000000000000000000000000000000000000000N 00000000000NCONT   00    00000000000          00000000000000000000000000000000000000000000 000000000000000A000000000000000000000000000000000000000000000 000000000000000000000000000000000000000     00000000                                                                                                                        000000000000000000
F0010000006399800002000107225647100041450500000000000000000201410170002001JHON BYRON DUQUE DONADO (BODEGA JHONIFER)         C000000002400000000000000000000000100010010000000000000000000000F0010000006399800220141017000101 00000000000000000000000000000000000000000000000000000000000000000000000000000000000000000000000000000000000000000N 00000000000NCONT   00    00000000000          00000000000000000000000000000000000000000000 000000000000000A000000000000000000000000000000000000000000000 000000000000000000000000000000000000000     00000000                                                                                                                        000000000000000000
F0010000006399800003000107225647100042505000000000000000000201410170002001JHON BYRON DUQUE DONADO (BODEGA JHONIFER)         C000000000600000000000000000000000100010010000000000000000000000F0010000006399800320141017000101 00000000000000000000000000000000000000000000000000000000000000000000000000000000000000000000000000000000000000000N 00000000000NCONT   00    00000000000          00000000000000000000000000000000000000000000 000000000000000A000000000000000000000000000000000000000000000 000000000000000000000000000000000000000     00000000                                                                                                                        000000000000000000
F0010000006399800004000107225647100023658300000000000000000201410170002001JHON BYRON DUQUE DONADO (BODEGA JHONIFER)         C000000000019200000000000000000000100010010000000000000000000000F0010000006399800420141017000101 00000000000000000000000000000000000000000000000000000000000000000000000000000000000000000000000000000000000000000N 00000000000NCONT   00    00000000000          00000000000000000000000000000000000000000000 000000000000000A000000000000000000000000000000000000000000000 000000000000000000000000000000000000000     00000000                                                                                                                        000000000000000000
F0010000006399800005000107225647100013552100000000000000000201410170002001JHON BYRON DUQUE DONADO (BODEGA JHONIFER)         D000000000019200000000000000000000100010010000000000000000000000F0010000006399800520141017000101 00000000000000000000000000000000000000000000000000000000000000000000000000000000000000000000000000000000000000000N 00000000000NCONT   00    00000000000          00000000000000000000000000000000000000000000 000000000000000A000000000000000000000000000000000000000000000 000000000000000000000000000000000000000     00000000                                                                                                                        000000000000000000
F0010000006399900001000090001800700013050500000000000000000201410170002001C.I. EXPORTEXA S.A.S.                             D000000008867700000000000000000000100010010000000000000000000000F0010000006399900120141017000101 00000000000000000000000000000000000000000000000000000000000000000000000000000000000000000000000000000000000000000N 00000000000NCONT   00    00000000000          00000000000000000000000000000000000000000000 000000000000000A000000000000000000000000000000000000000000000 000000000000000000000000000000000000000     00000000                                                                                                                        000000000000000000
F0010000006399900002000090001800700041450500000000000000000201410170002001C.I. EXPORTEXA S.A.S.                             C000000007560800000000000000000000100010010000000000000000000000F0010000006399900220141017000101 00000000000000000000000000000000000000000000000000000000000000000000000000000000000000000000000000000000000000000N 00000000000NCONT   00    00000000000          00000000000000000000000000000000000000000000 000000000000000A000000000000000000000000000000000000000000000 000000000000000000000000000000000000000     00000000                                                                                                                        000000000000000000
F0010000006399900003000090001800700042505000000000000000000201410170002001C.I. EXPORTEXA S.A.S.                             C000000001306900000000000000000000100010010000000000000000000000F0010000006399900320141017000101 00000000000000000000000000000000000000000000000000000000000000000000000000000000000000000000000000000000000000000N 00000000000NCONT   00    00000000000          00000000000000000000000000000000000000000000 000000000000000A000000000000000000000000000000000000000000000 000000000000000000000000000000000000000     00000000                                                                                                                        000000000000000000
F0010000006399900004000090001800700023658300000000000000000201410170002001C.I. EXPORTEXA S.A.S.                             C000000000060500000000000000000000100010010000000000000000000000F0010000006399900420141017000101 00000000000000000000000000000000000000000000000000000000000000000000000000000000000000000000000000000000000000000N 00000000000NCONT   00    00000000000          00000000000000000000000000000000000000000000 000000000000000A000000000000000000000000000000000000000000000 000000000000000000000000000000000000000     00000000                                                                                                                        000000000000000000
F0010000006399900005000090001800700013552100000000000000000201410170002001C.I. EXPORTEXA S.A.S.                             D000000000060500000000000000000000100010010000000000000000000000F0010000006399900520141017000101 00000000000000000000000000000000000000000000000000000000000000000000000000000000000000000000000000000000000000000N 00000000000NCONT   00    00000000000          00000000000000000000000000000000000000000000 000000000000000A000000000000000000000000000000000000000000000 000000000000000000000000000000000000000     00000000                                                                                                                        000000000000000000
F0010000006400000001000089011072600013050500000000000000000201410170002001GRAFICAS DEL LITORAL SAS                          D000000048420000000000000000000000100010010000000000000000000000F0010000006400000120141017000101 00000000000000000000000000000000000000000000000000000000000000000000000000000000000000000000000000000000000000000N 00000000000NCONT   00    00000000000          00000000000000000000000000000000000000000000 000000000000000A000000000000000000000000000000000000000000000 000000000000000000000000000000000000000     00000000                                                                                                                        000000000000000000
F0010000006400000002000089011072600041450500000000000000000201410170002001GRAFICAS DEL LITORAL SAS                          C000000046920000000000000000000000100010010000000000000000000000F0010000006400000220141017000101 00000000000000000000000000000000000000000000000000000000000000000000000000000000000000000000000000000000000000000N 00000000000NCONT   00    00000000000          00000000000000000000000000000000000000000000 000000000000000A000000000000000000000000000000000000000000000 000000000000000000000000000000000000000     00000000                                                                                                                        000000000000000000
F0010000006400000003000089011072600042505000000000000000000201410170002001GRAFICAS DEL LITORAL SAS                          C000000001500000000000000000000000100010010000000000000000000000F0010000006400000320141017000101 00000000000000000000000000000000000000000000000000000000000000000000000000000000000000000000000000000000000000000N 00000000000NCONT   00    00000000000          00000000000000000000000000000000000000000000 000000000000000A000000000000000000000000000000000000000000000 000000000000000000000000000000000000000     00000000                                                                                                                        000000000000000000
F0010000006400000004000089011072600023658300000000000000000201410170002001GRAFICAS DEL LITORAL SAS                          C000000000375400000000000000000000100010010000000000000000000000F0010000006400000420141017000101 00000000000000000000000000000000000000000000000000000000000000000000000000000000000000000000000000000000000000000N 00000000000NCONT   00    00000000000          00000000000000000000000000000000000000000000 000000000000000A000000000000000000000000000000000000000000000 000000000000000000000000000000000000000     00000000                                                                                                                        000000000000000000
F0010000006400000005000089011072600013552100000000000000000201410170002001GRAFICAS DEL LITORAL SAS                          D000000000375400000000000000000000100010010000000000000000000000F0010000006400000520141017000101 00000000000000000000000000000000000000000000000000000000000000000000000000000000000000000000000000000000000000000N 00000000000NCONT   00    00000000000          00000000000000000000000000000000000000000000 000000000000000A000000000000000000000000000000000000000000000 000000000000000000000000000000000000000     00000000                                                                                                                        000000000000000000
F0010000006400100001000007215902600013050500000000000000000201410170002001KRISS LORENA BLANCO  (BANTEX)                     D000000011820000000000000000000000100010010000000000000000000000F0010000006400100120141017000101 00000000000000000000000000000000000000000000000000000000000000000000000000000000000000000000000000000000000000000N 00000000000NCONT   00    00000000000          00000000000000000000000000000000000000000000 000000000000000A000000000000000000000000000000000000000000000 000000000000000000000000000000000000000     00000000                                                                                                                        000000000000000000
F0010000006400100002000007215902600041450500000000000000000201410170002001KRISS LORENA BLANCO  (BANTEX)                     C000000010020000000000000000000000100010010000000000000000000000F0010000006400100220141017000101 00000000000000000000000000000000000000000000000000000000000000000000000000000000000000000000000000000000000000000N 00000000000NCONT   00    00000000000          00000000000000000000000000000000000000000000 000000000000000A000000000000000000000000000000000000000000000 000000000000000000000000000000000000000     00000000                                                                                                                        000000000000000000
F0010000006400100003000007215902600042505000000000000000000201410170002001KRISS LORENA BLANCO  (BANTEX)                     C000000001800000000000000000000000100010010000000000000000000000F0010000006400100320141017000101 00000000000000000000000000000000000000000000000000000000000000000000000000000000000000000000000000000000000000000N 00000000000NCONT   00    00000000000          00000000000000000000000000000000000000000000 000000000000000A000000000000000000000000000000000000000000000 000000000000000000000000000000000000000     00000000                                                                                                                        000000000000000000
F0010000006400100004000007215902600023658300000000000000000201410170002001KRISS LORENA BLANCO  (BANTEX)                     C000000000080200000000000000000000100010010000000000000000000000F0010000006400100420141017000101 00000000000000000000000000000000000000000000000000000000000000000000000000000000000000000000000000000000000000000N 00000000000NCONT   00    00000000000          00000000000000000000000000000000000000000000 000000000000000A000000000000000000000000000000000000000000000 000000000000000000000000000000000000000     00000000                                                                                                                        000000000000000000
F0010000006400100005000007215902600013552100000000000000000201410170002001KRISS LORENA BLANCO  (BANTEX)                     D000000000080200000000000000000000100010010000000000000000000000F0010000006400100520141017000101 00000000000000000000000000000000000000000000000000000000000000000000000000000000000000000000000000000000000000000N 00000000000NCONT   00    00000000000          00000000000000000000000000000000000000000000 000000000000000A000000000000000000000000000000000000000000000 000000000000000000000000000000000000000     00000000                                                                                                                        000000000000000000
F0010000006400200001000090050144800013050500000000000000000201410170002001PLASTICOS JR ASOCIADOS SAS                        D000000000902000000000000000000000100010010000000000000000000000F0010000006400200120141017000101 00000000000000000000000000000000000000000000000000000000000000000000000000000000000000000000000000000000000000000N 00000000000NCONT   00    00000000000          00000000000000000000000000000000000000000000 000000000000000A000000000000000000000000000000000000000000000 000000000000000000000000000000000000000     00000000                                                                                                                        000000000000000000
F0010000006400200002000090050144800041450500000000000000000201410170002001PLASTICOS JR ASOCIADOS SAS                        C000000000850000000000000000000000100010010000000000000000000000F0010000006400200220141017000101 00000000000000000000000000000000000000000000000000000000000000000000000000000000000000000000000000000000000000000N 00000000000NCONT   00    00000000000          00000000000000000000000000000000000000000000 000000000000000A000000000000000000000000000000000000000000000 000000000000000000000000000000000000000     00000000                                                                                                                        000000000000000000
F0010000006400200003000090050144800042505000000000000000000201410170002001PLASTICOS JR ASOCIADOS SAS                        C000000000052000000000000000000000100010010000000000000000000000F0010000006400200320141017000101 00000000000000000000000000000000000000000000000000000000000000000000000000000000000000000000000000000000000000000N 00000000000NCONT   00    00000000000          00000000000000000000000000000000000000000000 000000000000000A000000000000000000000000000000000000000000000 000000000000000000000000000000000000000     00000000                                                                                                                        000000000000000000
F0010000006400200004000090050144800023658300000000000000000201410170002001PLASTICOS JR ASOCIADOS SAS                        C000000000006800000000000000000000100010010000000000000000000000F0010000006400200420141017000101 00000000000000000000000000000000000000000000000000000000000000000000000000000000000000000000000000000000000000000N 00000000000NCONT   00    00000000000          00000000000000000000000000000000000000000000 000000000000000A000000000000000000000000000000000000000000000 000000000000000000000000000000000000000     00000000                                                                                                                        000000000000000000
F0010000006400200005000090050144800013552100000000000000000201410170002001PLASTICOS JR ASOCIADOS SAS                        D000000000006800000000000000000000100010010000000000000000000000F0010000006400200520141017000101 00000000000000000000000000000000000000000000000000000000000000000000000000000000000000000000000000000000000000000N 00000000000NCONT   00    00000000000          00000000000000000000000000000000000000000000 000000000000000A000000000000000000000000000000000000000000000 000000000000000000000000000000000000000     00000000                                                                                                                        000000000000000000
F0010000006400300001000080201127600013050500000000000000000201410170002001ELECTRICOS DEL RUIZ S.A.S.                        D000000060712200000000000000000000100010010000000000000000000000F0010000006400300120141017000101 00000000000000000000000000000000000000000000000000000000000000000000000000000000000000000000000000000000000000000N 00000000000NCONT   00    00000000000          00000000000000000000000000000000000000000000 000000000000000A000000000000000000000000000000000000000000000 000000000000000000000000000000000000000     00000000                                                                                                                        000000000000000000
F0010000006400300002000080201127600041450500000000000000000201410170002001ELECTRICOS DEL RUIZ S.A.S.                        C000000048900000000000000000000000100010010000000000000000000000F0010000006400300220141017000101 00000000000000000000000000000000000000000000000000000000000000000000000000000000000000000000000000000000000000000N 00000000000NCONT   00    00000000000          00000000000000000000000000000000000000000000 000000000000000A000000000000000000000000000000000000000000000 000000000000000000000000000000000000000     00000000                                                                                                                        000000000000000000
F0010000006400300003000080201127600042505000000000000000000201410170002001ELECTRICOS DEL RUIZ S.A.S.                        C000000011812200000000000000000000100010010000000000000000000000F0010000006400300320141017000101 00000000000000000000000000000000000000000000000000000000000000000000000000000000000000000000000000000000000000000N 00000000000NCONT   00    00000000000          00000000000000000000000000000000000000000000 000000000000000A000000000000000000000000000000000000000000000 000000000000000000000000000000000000000     00000000                                                                                                                        000000000000000000
F0010000006400300004000080201127600023658300000000000000000201410170002001ELECTRICOS DEL RUIZ S.A.S.                        C000000000391200000000000000000000100010010000000000000000000000F0010000006400300420141017000101 00000000000000000000000000000000000000000000000000000000000000000000000000000000000000000000000000000000000000000N 00000000000NCONT   00    00000000000          00000000000000000000000000000000000000000000 000000000000000A000000000000000000000000000000000000000000000 000000000000000000000000000000000000000     00000000                                                                                                                        000000000000000000
F0010000006400300005000080201127600013552100000000000000000201410170002001ELECTRICOS DEL RUIZ S.A.S.                        D000000000391200000000000000000000100010010000000000000000000000F0010000006400300520141017000101 00000000000000000000000000000000000000000000000000000000000000000000000000000000000000000000000000000000000000000N 00000000000NCONT   00    00000000000          00000000000000000000000000000000000000000000 000000000000000A000000000000000000000000000000000000000000000 000000000000000000000000000000000000000     00000000                                                                                                                        000000000000000000
F0010000006400400001000080202132300013050500000000000000000201410170002001SUM Y SERV DE LA COSTA LTDA                       D000000026750000000000000000000000100010010000000000000000000000F0010000006400400120141017000101 00000000000000000000000000000000000000000000000000000000000000000000000000000000000000000000000000000000000000000N 00000000000NCONT   00    00000000000          00000000000000000000000000000000000000000000 000000000000000A000000000000000000000000000000000000000000000 000000000000000000000000000000000000000     00000000                                                                                                                        000000000000000000
F0010000006400400002000080202132300041450500000000000000000201410170002001SUM Y SERV DE LA COSTA LTDA                       C000000025300000000000000000000000100010010000000000000000000000F0010000006400400220141017000101 00000000000000000000000000000000000000000000000000000000000000000000000000000000000000000000000000000000000000000N 00000000000NCONT   00    00000000000          00000000000000000000000000000000000000000000 000000000000000A000000000000000000000000000000000000000000000 000000000000000000000000000000000000000     00000000                                                                                                                        000000000000000000
F0010000006400400003000080202132300042505000000000000000000201410170002001SUM Y SERV DE LA COSTA LTDA                       C000000001450000000000000000000000100010010000000000000000000000F0010000006400400320141017000101 00000000000000000000000000000000000000000000000000000000000000000000000000000000000000000000000000000000000000000N 00000000000NCONT   00    00000000000          00000000000000000000000000000000000000000000 000000000000000A000000000000000000000000000000000000000000000 000000000000000000000000000000000000000     00000000                                                                                                                        000000000000000000
F0010000006400400004000080202132300023658300000000000000000201410170002001SUM Y SERV DE LA COSTA LTDA                       C000000000202400000000000000000000100010010000000000000000000000F0010000006400400420141017000101 00000000000000000000000000000000000000000000000000000000000000000000000000000000000000000000000000000000000000000N 00000000000NCONT   00    00000000000          00000000000000000000000000000000000000000000 000000000000000A000000000000000000000000000000000000000000000 000000000000000000000000000000000000000     00000000                                                                                                                        000000000000000000
F0010000006400400005000080202132300013552100000000000000000201410170002001SUM Y SERV DE LA COSTA LTDA                       D000000000202400000000000000000000100010010000000000000000000000F0010000006400400520141017000101 00000000000000000000000000000000000000000000000000000000000000000000000000000000000000000000000000000000000000000N 00000000000NCONT   00    00000000000          00000000000000000000000000000000000000000000 000000000000000A000000000000000000000000000000000000000000000 000000000000000000000000000000000000000     00000000                                                                                                                        000000000000000000
F0010000006400500001000090007142100013050500000000000000000201410170002001TODO BELLEZA Y MAX S.A.S                          D000000008720000000000000000000000100010010000000000000000000000F0010000006400500120141017000101 00000000000000000000000000000000000000000000000000000000000000000000000000000000000000000000000000000000000000000N 00000000000NCONT   00    00000000000          00000000000000000000000000000000000000000000 000000000000000A000000000000000000000000000000000000000000000 000000000000000000000000000000000000000     00000000                                                                                                                        000000000000000000
F0010000006400500002000090007142100041450500000000000000000201410170002001TODO BELLEZA Y MAX S.A.S                          C000000008020000000000000000000000100010010000000000000000000000F0010000006400500220141017000101 00000000000000000000000000000000000000000000000000000000000000000000000000000000000000000000000000000000000000000N 00000000000NCONT   00    00000000000          00000000000000000000000000000000000000000000 000000000000000A000000000000000000000000000000000000000000000 000000000000000000000000000000000000000     00000000                                                                                                                        000000000000000000
F0010000006400500003000090007142100042505000000000000000000201410170002001TODO BELLEZA Y MAX S.A.S                          C000000000700000000000000000000000100010010000000000000000000000F0010000006400500320141017000101 00000000000000000000000000000000000000000000000000000000000000000000000000000000000000000000000000000000000000000N 00000000000NCONT   00    00000000000          00000000000000000000000000000000000000000000 000000000000000A000000000000000000000000000000000000000000000 000000000000000000000000000000000000000     00000000                                                                                                                        000000000000000000
F0010000006400500004000090007142100023658300000000000000000201410170002001TODO BELLEZA Y MAX S.A.S                          C000000000064200000000000000000000100010010000000000000000000000F0010000006400500420141017000101 00000000000000000000000000000000000000000000000000000000000000000000000000000000000000000000000000000000000000000N 00000000000NCONT   00    00000000000          00000000000000000000000000000000000000000000 000000000000000A000000000000000000000000000000000000000000000 000000000000000000000000000000000000000     00000000                                                                                                                        000000000000000000
F0010000006400500005000090007142100013552100000000000000000201410170002001TODO BELLEZA Y MAX S.A.S                          D000000000064200000000000000000000100010010000000000000000000000F0010000006400500520141017000101 00000000000000000000000000000000000000000000000000000000000000000000000000000000000000000000000000000000000000000N 00000000000NCONT   00    00000000000          00000000000000000000000000000000000000000000 000000000000000A000000000000000000000000000000000000000000000 000000000000000000000000000000000000000     00000000                                                                                                                        000000000000000000
F0010000006400600001000080010983700013050500000000000000000201410170002001OHM LTDA                                          D000000031575000000000000000000000100010010000000000000000000000F0010000006400600120141017000101 00000000000000000000000000000000000000000000000000000000000000000000000000000000000000000000000000000000000000000N 00000000000NCONT   00    00000000000          00000000000000000000000000000000000000000000 000000000000000A000000000000000000000000000000000000000000000 000000000000000000000000000000000000000     00000000                                                                                                                        000000000000000000
F0010000006400600002000080010983700041450500000000000000000201410170002001OHM LTDA                                          C000000031170000000000000000000000100010010000000000000000000000F0010000006400600220141017000101 00000000000000000000000000000000000000000000000000000000000000000000000000000000000000000000000000000000000000000N 00000000000NCONT   00    00000000000          00000000000000000000000000000000000000000000 000000000000000A000000000000000000000000000000000000000000000 000000000000000000000000000000000000000     00000000                                                                                                                        000000000000000000
F0010000006400600003000080010983700042505000000000000000000201410170002001OHM LTDA                                          C000000000405000000000000000000000100010010000000000000000000000F0010000006400600320141017000101 00000000000000000000000000000000000000000000000000000000000000000000000000000000000000000000000000000000000000000N 00000000000NCONT   00    00000000000          00000000000000000000000000000000000000000000 000000000000000A000000000000000000000000000000000000000000000 000000000000000000000000000000000000000     00000000                                                                                                                        000000000000000000
F0010000006400600004000080010983700023658300000000000000000201410170002001OHM LTDA                                          C000000000249400000000000000000000100010010000000000000000000000F0010000006400600420141017000101 00000000000000000000000000000000000000000000000000000000000000000000000000000000000000000000000000000000000000000N 00000000000NCONT   00    00000000000          00000000000000000000000000000000000000000000 000000000000000A000000000000000000000000000000000000000000000 000000000000000000000000000000000000000     00000000                                                                                                                        000000000000000000
F0010000006400600005000080010983700013552100000000000000000201410170002001OHM LTDA                                          D000000000249400000000000000000000100010010000000000000000000000F0010000006400600520141017000101 00000000000000000000000000000000000000000000000000000000000000000000000000000000000000000000000000000000000000000N 00000000000NCONT   00    00000000000          00000000000000000000000000000000000000000000 000000000000000A000000000000000000000000000000000000000000000 000000000000000000000000000000000000000     00000000                                                                                                                        000000000000000000
F0010000006400700001000080019113900013050500000000000000000201410170002001COMERCIAL NOVAPEL LTDA                            D000000014000000000000000000000000100010010000000000000000000000F0010000006400700120141017000101 00000000000000000000000000000000000000000000000000000000000000000000000000000000000000000000000000000000000000000N 00000000000NCONT   00    00000000000          00000000000000000000000000000000000000000000 000000000000000A000000000000000000000000000000000000000000000 000000000000000000000000000000000000000     00000000                                                                                                                        000000000000000000
F0010000006400700002000080019113900041450500000000000000000201410170002001COMERCIAL NOVAPEL LTDA                            C000000012900000000000000000000000100010010000000000000000000000F0010000006400700220141017000101 00000000000000000000000000000000000000000000000000000000000000000000000000000000000000000000000000000000000000000N 00000000000NCONT   00    00000000000          00000000000000000000000000000000000000000000 000000000000000A000000000000000000000000000000000000000000000 000000000000000000000000000000000000000     00000000                                                                                                                        000000000000000000
F0010000006400700003000080019113900042505000000000000000000201410170002001COMERCIAL NOVAPEL LTDA                            C000000001100000000000000000000000100010010000000000000000000000F0010000006400700320141017000101 00000000000000000000000000000000000000000000000000000000000000000000000000000000000000000000000000000000000000000N 00000000000NCONT   00    00000000000          00000000000000000000000000000000000000000000 000000000000000A000000000000000000000000000000000000000000000 000000000000000000000000000000000000000     00000000                                                                                                                        000000000000000000
F0010000006400700004000080019113900023658300000000000000000201410170002001COMERCIAL NOVAPEL LTDA                            C000000000103200000000000000000000100010010000000000000000000000F0010000006400700420141017000101 00000000000000000000000000000000000000000000000000000000000000000000000000000000000000000000000000000000000000000N 00000000000NCONT   00    00000000000          00000000000000000000000000000000000000000000 000000000000000A000000000000000000000000000000000000000000000 000000000000000000000000000000000000000     00000000                                                                                                                        000000000000000000
F0010000006400700005000080019113900013552100000000000000000201410170002001COMERCIAL NOVAPEL LTDA                            D000000000103200000000000000000000100010010000000000000000000000F0010000006400700520141017000101 00000000000000000000000000000000000000000000000000000000000000000000000000000000000000000000000000000000000000000N 00000000000NCONT   00    00000000000          00000000000000000000000000000000000000000000 000000000000000A000000000000000000000000000000000000000000000 000000000000000000000000000000000000000     00000000                                                                                                                        000000000000000000
F0010000006400800001000000870907300013050500000000000000000201410170002001SURTIDOR FERRETERO                                D000000086825000000000000000000000100010010000000000000000000000F0010000006400800120141017000101 00000000000000000000000000000000000000000000000000000000000000000000000000000000000000000000000000000000000000000N 00000000000NCONT   00    00000000000          00000000000000000000000000000000000000000000 000000000000000A000000000000000000000000000000000000000000000 000000000000000000000000000000000000000     00000000                                                                                                                        000000000000000000
F0010000006400800002000000870907300041450500000000000000000201410170002001SURTIDOR FERRETERO                                C000000070150000000000000000000000100010010000000000000000000000F0010000006400800220141017000101 00000000000000000000000000000000000000000000000000000000000000000000000000000000000000000000000000000000000000000N 00000000000NCONT   00    00000000000          00000000000000000000000000000000000000000000 000000000000000A000000000000000000000000000000000000000000000 000000000000000000000000000000000000000     00000000                                                                                                                        000000000000000000
F0010000006400800003000000870907300041750100000000000000000201410170002001SURTIDOR FERRETERO                                D000000007015000000000000000000000100010010000000000000000000000F0010000006400800320141017000101 00000000000000000000000000000000000000000000000000000000000000000000000000000000000000000000000000000000000000000N 00000000000NCONT   00    00000000000          00000000000000000000000000000000000000000000 000000000000000A000000000000000000000000000000000000000000000 000000000000000000000000000000000000000     00000000                                                                                                                        000000000000000000
F0010000006400800004000000870907300042505000000000000000000201410170002001SURTIDOR FERRETERO                                C000000023690000000000000000000000100010010000000000000000000000F0010000006400800420141017000101 00000000000000000000000000000000000000000000000000000000000000000000000000000000000000000000000000000000000000000N 00000000000NCONT   00    00000000000          00000000000000000000000000000000000000000000 000000000000000A000000000000000000000000000000000000000000000 000000000000000000000000000000000000000     00000000                                                                                                                        000000000000000000
F0010000006400800005000000870907300023658300000000000000000201410170002001SURTIDOR FERRETERO                                C000000000561200000000000000000000100010010000000000000000000000F0010000006400800520141017000101 00000000000000000000000000000000000000000000000000000000000000000000000000000000000000000000000000000000000000000N 00000000000NCONT   00    00000000000          00000000000000000000000000000000000000000000 000000000000000A000000000000000000000000000000000000000000000 000000000000000000000000000000000000000     00000000                                                                                                                        000000000000000000
F0010000006400800006000000870907300013552100000000000000000201410170002001SURTIDOR FERRETERO                                D000000000561200000000000000000000100010010000000000000000000000F0010000006400800620141017000101 00000000000000000000000000000000000000000000000000000000000000000000000000000000000000000000000000000000000000000N 00000000000NCONT   00    00000000000          00000000000000000000000000000000000000000000 000000000000000A000000000000000000000000000000000000000000000 000000000000000000000000000000000000000     00000000                                                                                                                        000000000000000000
F0010000006400900001000000868487100013050500000000000000000201410170002001JAIME PIÑEROS                                    D000000006830000000000000000000000100010010000000000000000000000F0010000006400900120141017000101 00000000000000000000000000000000000000000000000000000000000000000000000000000000000000000000000000000000000000000N 00000000000NCONT   00    00000000000          00000000000000000000000000000000000000000000 000000000000000A000000000000000000000000000000000000000000000 000000000000000000000000000000000000000     00000000                                                                                                                        000000000000000000
F0010000006400900002000000868487100041450500000000000000000201410170002001JAIME PIÑEROS                                    C000000005390000000000000000000000100010010000000000000000000000F0010000006400900220141017000101 00000000000000000000000000000000000000000000000000000000000000000000000000000000000000000000000000000000000000000N 00000000000NCONT   00    00000000000          00000000000000000000000000000000000000000000 000000000000000A000000000000000000000000000000000000000000000 000000000000000000000000000000000000000     00000000                                                                                                                        000000000000000000
F0010000006400900003000000868487100042505000000000000000000201410170002001JAIME PIÑEROS                                    C000000001440000000000000000000000100010010000000000000000000000F0010000006400900320141017000101 00000000000000000000000000000000000000000000000000000000000000000000000000000000000000000000000000000000000000000N 00000000000NCONT   00    00000000000          00000000000000000000000000000000000000000000 000000000000000A000000000000000000000000000000000000000000000 000000000000000000000000000000000000000     00000000                                                                                                                        000000000000000000
F0010000006400900004000000868487100023658300000000000000000201410170002001JAIME PIÑEROS                                    C000000000043100000000000000000000100010010000000000000000000000F0010000006400900420141017000101 00000000000000000000000000000000000000000000000000000000000000000000000000000000000000000000000000000000000000000N 00000000000NCONT   00    00000000000          00000000000000000000000000000000000000000000 000000000000000A000000000000000000000000000000000000000000000 000000000000000000000000000000000000000     00000000                                                                                                                        000000000000000000
F0010000006400900005000000868487100013552100000000000000000201410170002001JAIME PIÑEROS                                    D000000000043100000000000000000000100010010000000000000000000000F0010000006400900520141017000101 00000000000000000000000000000000000000000000000000000000000000000000000000000000000000000000000000000000000000000N 00000000000NCONT   00    00000000000          00000000000000000000000000000000000000000000 000000000000000A000000000000000000000000000000000000000000000 000000000000000000000000000000000000000     00000000                                                                                                                        000000000000000000
F0010000006401000001000089011719700013050500000000000000000201410170002001REP. MUNERA GALARZA LTDA (FRANCISCO MUNERA)       D000000008945000000000000000000000100010010000000000000000000000F0010000006401000120141017000101 00000000000000000000000000000000000000000000000000000000000000000000000000000000000000000000000000000000000000000N 00000000000NCONT   00    00000000000          00000000000000000000000000000000000000000000 000000000000000A000000000000000000000000000000000000000000000 000000000000000000000000000000000000000     00000000                                                                                                                        000000000000000000
F0010000006401000002000089011719700041450500000000000000000201410170002001REP. MUNERA GALARZA LTDA (FRANCISCO MUNERA)       C000000007230000000000000000000000100010010000000000000000000000F0010000006401000220141017000101 00000000000000000000000000000000000000000000000000000000000000000000000000000000000000000000000000000000000000000N 00000000000NCONT   00    00000000000          00000000000000000000000000000000000000000000 000000000000000A000000000000000000000000000000000000000000000 000000000000000000000000000000000000000     00000000                                                                                                                        000000000000000000
F0010000006401000003000089011719700042505000000000000000000201410170002001REP. MUNERA GALARZA LTDA (FRANCISCO MUNERA)       C000000001715000000000000000000000100010010000000000000000000000F0010000006401000320141017000101 00000000000000000000000000000000000000000000000000000000000000000000000000000000000000000000000000000000000000000N 00000000000NCONT   00    00000000000          00000000000000000000000000000000000000000000 000000000000000A000000000000000000000000000000000000000000000 000000000000000000000000000000000000000     00000000                                                                                                                        000000000000000000
F0010000006401000004000089011719700023658300000000000000000201410170002001REP. MUNERA GALARZA LTDA (FRANCISCO MUNERA)       C000000000057800000000000000000000100010010000000000000000000000F0010000006401000420141017000101 00000000000000000000000000000000000000000000000000000000000000000000000000000000000000000000000000000000000000000N 00000000000NCONT   00    00000000000          00000000000000000000000000000000000000000000 000000000000000A000000000000000000000000000000000000000000000 000000000000000000000000000000000000000     00000000                                                                                                                        000000000000000000
F0010000006401000005000089011719700013552100000000000000000201410170002001REP. MUNERA GALARZA LTDA (FRANCISCO MUNERA)       D000000000057800000000000000000000100010010000000000000000000000F0010000006401000520141017000101 00000000000000000000000000000000000000000000000000000000000000000000000000000000000000000000000000000000000000000N 00000000000NCONT   00    00000000000          00000000000000000000000000000000000000000000 000000000000000A000000000000000000000000000000000000000000000 000000000000000000000000000000000000000     00000000                                                                                                                        000000000000000000
F0010000006401100001000000827614700013050500000000000000000201410170002001ALVARO  HERNAN  PEREZ ALVAREZ                     D000000019570000000000000000000000100010010000000000000000000000F0010000006401100120141017000101 00000000000000000000000000000000000000000000000000000000000000000000000000000000000000000000000000000000000000000N 00000000000NCONT   00    00000000000          00000000000000000000000000000000000000000000 000000000000000A000000000000000000000000000000000000000000000 000000000000000000000000000000000000000     00000000                                                                                                                        000000000000000000
F0010000006401100002000000827614700041450500000000000000000201410170002001ALVARO  HERNAN  PEREZ ALVAREZ                     C000000016800000000000000000000000100010010000000000000000000000F0010000006401100220141017000101 00000000000000000000000000000000000000000000000000000000000000000000000000000000000000000000000000000000000000000N 00000000000NCONT   00    00000000000          00000000000000000000000000000000000000000000 000000000000000A000000000000000000000000000000000000000000000 000000000000000000000000000000000000000     00000000                                                                                                                        000000000000000000
F0010000006401100003000000827614700042505000000000000000000201410170002001ALVARO  HERNAN  PEREZ ALVAREZ                     C000000002770000000000000000000000100010010000000000000000000000F0010000006401100320141017000101 00000000000000000000000000000000000000000000000000000000000000000000000000000000000000000000000000000000000000000N 00000000000NCONT   00    00000000000          00000000000000000000000000000000000000000000 000000000000000A000000000000000000000000000000000000000000000 000000000000000000000000000000000000000     00000000                                                                                                                        000000000000000000
F0010000006401100004000000827614700023658300000000000000000201410170002001ALVARO  HERNAN  PEREZ ALVAREZ                     C000000000134400000000000000000000100010010000000000000000000000F0010000006401100420141017000101 00000000000000000000000000000000000000000000000000000000000000000000000000000000000000000000000000000000000000000N 00000000000NCONT   00    00000000000          00000000000000000000000000000000000000000000 000000000000000A000000000000000000000000000000000000000000000 000000000000000000000000000000000000000     00000000                                                                                                                        000000000000000000
F0010000006401100005000000827614700013552100000000000000000201410170002001ALVARO  HERNAN  PEREZ ALVAREZ                     D000000000134400000000000000000000100010010000000000000000000000F0010000006401100520141017000101 00000000000000000000000000000000000000000000000000000000000000000000000000000000000000000000000000000000000000000N 00000000000NCONT   00    00000000000          00000000000000000000000000000000000000000000 000000000000000A000000000000000000000000000000000000000000000 000000000000000000000000000000000000000     00000000                                                                                                                        000000000000000000
F0010000006401200001000090014415700013050500000000000000000201410170002001CORDELES Y EXTRUIDOS DE COLOMBIA S.A.S.           D000000020894000000000000000000000100010010000000000000000000000F0010000006401200120141017000101 00000000000000000000000000000000000000000000000000000000000000000000000000000000000000000000000000000000000000000N 00000000000NCONT   00    00000000000          00000000000000000000000000000000000000000000 000000000000000A000000000000000000000000000000000000000000000 000000000000000000000000000000000000000     00000000                                                                                                                        000000000000000000
F0010000006401200002000090014415700041450500000000000000000201410170002001CORDELES Y EXTRUIDOS DE COLOMBIA S.A.S.           C000000019793700000000000000000000100010010000000000000000000000F0010000006401200220141017000101 00000000000000000000000000000000000000000000000000000000000000000000000000000000000000000000000000000000000000000N 00000000000NCONT   00    00000000000          00000000000000000000000000000000000000000000 000000000000000A000000000000000000000000000000000000000000000 000000000000000000000000000000000000000     00000000                                                                                                                        000000000000000000
F0010000006401200003000090014415700042505000000000000000000201410170002001CORDELES Y EXTRUIDOS DE COLOMBIA S.A.S.           C000000001100300000000000000000000100010010000000000000000000000F0010000006401200320141017000101 00000000000000000000000000000000000000000000000000000000000000000000000000000000000000000000000000000000000000000N 00000000000NCONT   00    00000000000          00000000000000000000000000000000000000000000 000000000000000A000000000000000000000000000000000000000000000 000000000000000000000000000000000000000     00000000                                                                                                                        000000000000000000
F0010000006401200004000090014415700023658300000000000000000201410170002001CORDELES Y EXTRUIDOS DE COLOMBIA S.A.S.           C000000000158300000000000000000000100010010000000000000000000000F0010000006401200420141017000101 00000000000000000000000000000000000000000000000000000000000000000000000000000000000000000000000000000000000000000N 00000000000NCONT   00    00000000000          00000000000000000000000000000000000000000000 000000000000000A000000000000000000000000000000000000000000000 000000000000000000000000000000000000000     00000000                                                                                                                        000000000000000000
F0010000006401200005000090014415700013552100000000000000000201410170002001CORDELES Y EXTRUIDOS DE COLOMBIA S.A.S.           D000000000158300000000000000000000100010010000000000000000000000F0010000006401200520141017000101 00000000000000000000000000000000000000000000000000000000000000000000000000000000000000000000000000000000000000000N 00000000000NCONT   00    00000000000          00000000000000000000000000000000000000000000 000000000000000A000000000000000000000000000000000000000000000 000000000000000000000000000000000000000     00000000                                                                                                                        000000000000000000
F0010000006401300001000001719393900013050500000000000000000201410170002001JAIRO BASTIDAS RAMIREZ                            D000000012840000000000000000000000100010010000000000000000000000F0010000006401300120141017000101 00000000000000000000000000000000000000000000000000000000000000000000000000000000000000000000000000000000000000000N 00000000000NCONT   00    00000000000          00000000000000000000000000000000000000000000 000000000000000A000000000000000000000000000000000000000000000 000000000000000000000000000000000000000     00000000                                                                                                                        000000000000000000
F0010000006401300002000001719393900041450500000000000000000201410170002001JAIRO BASTIDAS RAMIREZ                            C000000011340000000000000000000000100010010000000000000000000000F0010000006401300220141017000101 00000000000000000000000000000000000000000000000000000000000000000000000000000000000000000000000000000000000000000N 00000000000NCONT   00    00000000000          00000000000000000000000000000000000000000000 000000000000000A000000000000000000000000000000000000000000000 000000000000000000000000000000000000000     00000000                                                                                                                        000000000000000000
F0010000006401300003000001719393900042505000000000000000000201410170002001JAIRO BASTIDAS RAMIREZ                            C000000001500000000000000000000000100010010000000000000000000000F0010000006401300320141017000101 00000000000000000000000000000000000000000000000000000000000000000000000000000000000000000000000000000000000000000N 00000000000NCONT   00    00000000000          00000000000000000000000000000000000000000000 000000000000000A000000000000000000000000000000000000000000000 000000000000000000000000000000000000000     00000000                                                                                                                        000000000000000000
F0010000006401300004000001719393900023658300000000000000000201410170002001JAIRO BASTIDAS RAMIREZ                            C000000000090700000000000000000000100010010000000000000000000000F0010000006401300420141017000101 00000000000000000000000000000000000000000000000000000000000000000000000000000000000000000000000000000000000000000N 00000000000NCONT   00    00000000000          00000000000000000000000000000000000000000000 000000000000000A000000000000000000000000000000000000000000000 000000000000000000000000000000000000000     00000000                                                                                                                        000000000000000000
F0010000006401300005000001719393900013552100000000000000000201410170002001JAIRO BASTIDAS RAMIREZ                            D000000000090700000000000000000000100010010000000000000000000000F0010000006401300520141017000101 00000000000000000000000000000000000000000000000000000000000000000000000000000000000000000000000000000000000000000N 00000000000NCONT   00    00000000000          00000000000000000000000000000000000000000000 000000000000000A000000000000000000000000000000000000000000000 000000000000000000000000000000000000000     00000000                                                                                                                        000000000000000000
F0010000006401400001000090053611800013050500000000000000000201410170002001PELETERIA COSTA CARIBE S.A .S                     D000000077871700000000000000000000100010010000000000000000000000F0010000006401400120141017000101 00000000000000000000000000000000000000000000000000000000000000000000000000000000000000000000000000000000000000000N 00000000000NCONT   00    00000000000          00000000000000000000000000000000000000000000 000000000000000A000000000000000000000000000000000000000000000 000000000000000000000000000000000000000     00000000                                                                                                                        000000000000000000
F0010000006401400002000090053611800041450500000000000000000201410170002001PELETERIA COSTA CARIBE S.A .S                     C000000061268400000000000000000000100010010000000000000000000000F0010000006401400220141017000101 00000000000000000000000000000000000000000000000000000000000000000000000000000000000000000000000000000000000000000N 00000000000NCONT   00    00000000000          00000000000000000000000000000000000000000000 000000000000000A000000000000000000000000000000000000000000000 000000000000000000000000000000000000000     00000000                                                                                                                        000000000000000000
F0010000006401400003000090053611800042505000000000000000000201410170002001PELETERIA COSTA CARIBE S.A .S                     C000000016603300000000000000000000100010010000000000000000000000F0010000006401400320141017000101 00000000000000000000000000000000000000000000000000000000000000000000000000000000000000000000000000000000000000000N 00000000000NCONT   00    00000000000          00000000000000000000000000000000000000000000 000000000000000A000000000000000000000000000000000000000000000 000000000000000000000000000000000000000     00000000                                                                                                                        000000000000000000
F0010000006401400004000090053611800023658300000000000000000201410170002001PELETERIA COSTA CARIBE S.A .S                     C000000000490100000000000000000000100010010000000000000000000000F0010000006401400420141017000101 00000000000000000000000000000000000000000000000000000000000000000000000000000000000000000000000000000000000000000N 00000000000NCONT   00    00000000000          00000000000000000000000000000000000000000000 000000000000000A000000000000000000000000000000000000000000000 000000000000000000000000000000000000000     00000000                                                                                                                        000000000000000000
F0010000006401400005000090053611800013552100000000000000000201410170002001PELETERIA COSTA CARIBE S.A .S                     D000000000490100000000000000000000100010010000000000000000000000F0010000006401400520141017000101 00000000000000000000000000000000000000000000000000000000000000000000000000000000000000000000000000000000000000000N 00000000000NCONT   00    00000000000          00000000000000000000000000000000000000000000 000000000000000A000000000000000000000000000000000000000000000 000000000000000000000000000000000000000     00000000                                                                                                                        000000000000000000
F0010000006401500001000007215896800013050500000000000000000201410170002001EDDIER CIRO                                       D000000091375700000000000000000000100010010000000000000000000000F0010000006401500120141017000101 00000000000000000000000000000000000000000000000000000000000000000000000000000000000000000000000000000000000000000N 00000000000NCONT   00    00000000000          00000000000000000000000000000000000000000000 000000000000000A000000000000000000000000000000000000000000000 000000000000000000000000000000000000000     00000000                                                                                                                        000000000000000000
F0010000006401500002000007215896800041450500000000000000000201410170002001EDDIER CIRO                                       C000000073540000000000000000000000100010010000000000000000000000F0010000006401500220141017000101 00000000000000000000000000000000000000000000000000000000000000000000000000000000000000000000000000000000000000000N 00000000000NCONT   00    00000000000          00000000000000000000000000000000000000000000 000000000000000A000000000000000000000000000000000000000000000 000000000000000000000000000000000000000     00000000                                                                                                                        000000000000000000
F0010000006401500003000007215896800042505000000000000000000201410170002001EDDIER CIRO                                       C000000017835700000000000000000000100010010000000000000000000000F0010000006401500320141017000101 00000000000000000000000000000000000000000000000000000000000000000000000000000000000000000000000000000000000000000N 00000000000NCONT   00    00000000000          00000000000000000000000000000000000000000000 000000000000000A000000000000000000000000000000000000000000000 000000000000000000000000000000000000000     00000000                                                                                                                        000000000000000000
F0010000006401500004000007215896800023658300000000000000000201410170002001EDDIER CIRO                                       C000000000588300000000000000000000100010010000000000000000000000F0010000006401500420141017000101 00000000000000000000000000000000000000000000000000000000000000000000000000000000000000000000000000000000000000000N 00000000000NCONT   00    00000000000          00000000000000000000000000000000000000000000 000000000000000A000000000000000000000000000000000000000000000 000000000000000000000000000000000000000     00000000                                                                                                                        000000000000000000
F0010000006401500005000007215896800013552100000000000000000201410170002001EDDIER CIRO                                       D000000000588300000000000000000000100010010000000000000000000000F0010000006401500520141017000101 00000000000000000000000000000000000000000000000000000000000000000000000000000000000000000000000000000000000000000N 00000000000NCONT   00    00000000000          00000000000000000000000000000000000000000000 000000000000000A000000000000000000000000000000000000000000000 000000000000000000000000000000000000000     00000000                                                                                                                        000000000000000000
F0010000006401600001000086003979400013050500000000000000000201410170002001CALYPSO BARRANQUILLA LTDA                         D000000023822500000000000000000000100010010000000000000000000000F0010000006401600120141017000101 00000000000000000000000000000000000000000000000000000000000000000000000000000000000000000000000000000000000000000N 00000000000NCONT   00    00000000000          00000000000000000000000000000000000000000000 000000000000000A000000000000000000000000000000000000000000000 000000000000000000000000000000000000000     00000000                                                                                                                        000000000000000000
F0010000006401600002000086003979400041450500000000000000000201410170002001CALYPSO BARRANQUILLA LTDA                         C000000021480000000000000000000000100010010000000000000000000000F0010000006401600220141017000101 00000000000000000000000000000000000000000000000000000000000000000000000000000000000000000000000000000000000000000N 00000000000NCONT   00    00000000000          00000000000000000000000000000000000000000000 000000000000000A000000000000000000000000000000000000000000000 000000000000000000000000000000000000000     00000000                                                                                                                        000000000000000000
F0010000006401600003000086003979400042505000000000000000000201410170002001CALYPSO BARRANQUILLA LTDA                         C000000002342500000000000000000000100010010000000000000000000000F0010000006401600320141017000101 00000000000000000000000000000000000000000000000000000000000000000000000000000000000000000000000000000000000000000N 00000000000NCONT   00    00000000000          00000000000000000000000000000000000000000000 000000000000000A000000000000000000000000000000000000000000000 000000000000000000000000000000000000000     00000000                                                                                                                        000000000000000000
F0010000006401600004000086003979400023658300000000000000000201410170002001CALYPSO BARRANQUILLA LTDA                         C000000000171800000000000000000000100010010000000000000000000000F0010000006401600420141017000101 00000000000000000000000000000000000000000000000000000000000000000000000000000000000000000000000000000000000000000N 00000000000NCONT   00    00000000000          00000000000000000000000000000000000000000000 000000000000000A000000000000000000000000000000000000000000000 000000000000000000000000000000000000000     00000000                                                                                                                        000000000000000000
F0010000006401600005000086003979400013552100000000000000000201410170002001CALYPSO BARRANQUILLA LTDA                         D000000000171800000000000000000000100010010000000000000000000000F0010000006401600520141017000101 00000000000000000000000000000000000000000000000000000000000000000000000000000000000000000000000000000000000000000N 00000000000NCONT   00    00000000000          00000000000000000000000000000000000000000000 000000000000000A000000000000000000000000000000000000000000000 000000000000000000000000000000000000000     00000000                                                                                                                        000000000000000000
F0010000006401700001000086003979400013050500000000000000000201410170002001CALYPSO BARRANQUILLA LTDA                         D000000105000800000000000000000000100010010000000000000000000000F0010000006401700120141017000101 00000000000000000000000000000000000000000000000000000000000000000000000000000000000000000000000000000000000000000N 00000000000NCONT   00    00000000000          00000000000000000000000000000000000000000000 000000000000000A000000000000000000000000000000000000000000000 000000000000000000000000000000000000000     00000000                                                                                                                        000000000000000000
