F0010000009626100001000000872328300011050500000000000000000201612270002001DISTRIBUCIONES LAO                                D000000003000000000000000000000000100010010000000000000000000000F0010000009626100120161227000101 00000000000000000000000000000000000000000000000000000000000000000000000000000000000000000000000000000000000000000N 00000000000NCONT   00    00000000000          00000000000000000000000000000000000000000000 000000000000000A000000000000000000000000000000000000000000000 000000000000000000000000000000000000000     00000000                                                                                                                        000000000000000000
F0010000009626100002000000872328300041450500000000000000000201612270002001DISTRIBUCIONES LAO                                C000000001000000000000000000000000100010010000000000000000000000F0010000009626100220161227000101 00000000000000000000000000000000000000000000000000000000000000000000000000000000000000000000000000000000000000000N 00000000000NCONT   00    00000000000          00000000000000000000000000000000000000000000 000000000000000A000000000000000000000000000000000000000000000 000000000000000000000000000000000000000     00000000                                                                                                                        000000000000000000
F0010000009626100003000000872328300042505000000000000000000201612270002001DISTRIBUCIONES LAO                                C000000002000000000000000000000000100010010000000000000000000000F0010000009626100320161227000101 00000000000000000000000000000000000000000000000000000000000000000000000000000000000000000000000000000000000000000N 00000000000NCONT   00    00000000000          00000000000000000000000000000000000000000000 000000000000000A000000000000000000000000000000000000000000000 000000000000000000000000000000000000000     00000000                                                                                                                        000000000000000000
F0010000009626100004000000872328300023658300000000000000000201612270002001DISTRIBUCIONES LAO                                C000000000008000000000000000000000100010010000000000000000000000F0010000009626100420161227000101 00000000000000000000000000000000000000000000000000000000000000000000000000000000000000000000000000000000000000000N 00000000000NCONT   00    00000000000          00000000000000000000000000000000000000000000 000000000000000A000000000000000000000000000000000000000000000 000000000000000000000000000000000000000     00000000                                                                                                                        000000000000000000
F0010000009626100005000000872328300013552100000000000000000201612270002001DISTRIBUCIONES LAO                                D000000000008000000000000000000000100010010000000000000000000000F0010000009626100520161227000101 00000000000000000000000000000000000000000000000000000000000000000000000000000000000000000000000000000000000000000N 00000000000NCONT   00    00000000000          00000000000000000000000000000000000000000000 000000000000000A000000000000000000000000000000000000000000000 000000000000000000000000000000000000000     00000000                                                                                                                        000000000000000000
F0010000009626200001000000872328300011050500000000000000000201612270002001DISTRIBUCIONES LAO                                D000000003000000000000000000000000100010010000000000000000000000F0010000009626200120161227000101 00000000000000000000000000000000000000000000000000000000000000000000000000000000000000000000000000000000000000000N 00000000000NCONT   00    00000000000          00000000000000000000000000000000000000000000 000000000000000A000000000000000000000000000000000000000000000 000000000000000000000000000000000000000     00000000                                                                                                                        000000000000000000
F0010000009626200002000000872328300041450500000000000000000201612270002001DISTRIBUCIONES LAO                                C000000001000000000000000000000000100010010000000000000000000000F0010000009626200220161227000101 00000000000000000000000000000000000000000000000000000000000000000000000000000000000000000000000000000000000000000N 00000000000NCONT   00    00000000000          00000000000000000000000000000000000000000000 000000000000000A000000000000000000000000000000000000000000000 000000000000000000000000000000000000000     00000000                                                                                                                        000000000000000000
F0010000009626200003000000872328300042505000000000000000000201612270002001DISTRIBUCIONES LAO                                C000000002000000000000000000000000100010010000000000000000000000F0010000009626200320161227000101 00000000000000000000000000000000000000000000000000000000000000000000000000000000000000000000000000000000000000000N 00000000000NCONT   00    00000000000          00000000000000000000000000000000000000000000 000000000000000A000000000000000000000000000000000000000000000 000000000000000000000000000000000000000     00000000                                                                                                                        000000000000000000
F0010000009626200004000000872328300023658300000000000000000201612270002001DISTRIBUCIONES LAO                                C000000000008000000000000000000000100010010000000000000000000000F0010000009626200420161227000101 00000000000000000000000000000000000000000000000000000000000000000000000000000000000000000000000000000000000000000N 00000000000NCONT   00    00000000000          00000000000000000000000000000000000000000000 000000000000000A000000000000000000000000000000000000000000000 000000000000000000000000000000000000000     00000000                                                                                                                        000000000000000000
F0010000009626200005000000872328300013552100000000000000000201612270002001DISTRIBUCIONES LAO                                D000000000008000000000000000000000100010010000000000000000000000F0010000009626200520161227000101 00000000000000000000000000000000000000000000000000000000000000000000000000000000000000000000000000000000000000000N 00000000000NCONT   00    00000000000          00000000000000000000000000000000000000000000 000000000000000A000000000000000000000000000000000000000000000 000000000000000000000000000000000000000     00000000                                                                                                                        000000000000000000
F0010000009626300001000007204229300011050500000000000000000201612270002001ERBIN BERNARDO ACOSTA GUERRA                      D000000025000000000000000000000000100010010000000000000000000000F0010000009626300120161227000101 00000000000000000000000000000000000000000000000000000000000000000000000000000000000000000000000000000000000000000N 00000000000NCONT   00    00000000000          00000000000000000000000000000000000000000000 000000000000000A000000000000000000000000000000000000000000000 000000000000000000000000000000000000000     00000000                                                                                                                        000000000000000000
F0010000009626300002000007204229300041450500000000000000000201612270002001ERBIN BERNARDO ACOSTA GUERRA                      C000000024000000000000000000000000100010010000000000000000000000F0010000009626300220161227000101 00000000000000000000000000000000000000000000000000000000000000000000000000000000000000000000000000000000000000000N 00000000000NCONT   00    00000000000          00000000000000000000000000000000000000000000 000000000000000A000000000000000000000000000000000000000000000 000000000000000000000000000000000000000     00000000                                                                                                                        000000000000000000
F0010000009626300003000007204229300042505000000000000000000201612270002001ERBIN BERNARDO ACOSTA GUERRA                      C000000001000000000000000000000000100010010000000000000000000000F0010000009626300320161227000101 00000000000000000000000000000000000000000000000000000000000000000000000000000000000000000000000000000000000000000N 00000000000NCONT   00    00000000000          00000000000000000000000000000000000000000000 000000000000000A000000000000000000000000000000000000000000000 000000000000000000000000000000000000000     00000000                                                                                                                        000000000000000000
F0010000009626300004000007204229300023658300000000000000000201612270002001ERBIN BERNARDO ACOSTA GUERRA                      C000000000192000000000000000000000100010010000000000000000000000F0010000009626300420161227000101 00000000000000000000000000000000000000000000000000000000000000000000000000000000000000000000000000000000000000000N 00000000000NCONT   00    00000000000          00000000000000000000000000000000000000000000 000000000000000A000000000000000000000000000000000000000000000 000000000000000000000000000000000000000     00000000                                                                                                                        000000000000000000
F0010000009626300005000007204229300013552100000000000000000201612270002001ERBIN BERNARDO ACOSTA GUERRA                      D000000000192000000000000000000000100010010000000000000000000000F0010000009626300520161227000101 00000000000000000000000000000000000000000000000000000000000000000000000000000000000000000000000000000000000000000N 00000000000NCONT   00    00000000000          00000000000000000000000000000000000000000000 000000000000000A000000000000000000000000000000000000000000000 000000000000000000000000000000000000000     00000000                                                                                                                        000000000000000000
F0010000009626400001000000869402400011050500000000000000000201612270002001ISRAEL MANGA                                      D000000001650000000000000000000000100010010000000000000000000000F0010000009626400120161227000101 00000000000000000000000000000000000000000000000000000000000000000000000000000000000000000000000000000000000000000N 00000000000NCONT   00    00000000000          00000000000000000000000000000000000000000000 000000000000000A000000000000000000000000000000000000000000000 000000000000000000000000000000000000000     00000000                                                                                                                        000000000000000000
F0010000009626400002000000869402400041450500000000000000000201612270002001ISRAEL MANGA                                      C000000001200000000000000000000000100010010000000000000000000000F0010000009626400220161227000101 00000000000000000000000000000000000000000000000000000000000000000000000000000000000000000000000000000000000000000N 00000000000NCONT   00    00000000000          00000000000000000000000000000000000000000000 000000000000000A000000000000000000000000000000000000000000000 000000000000000000000000000000000000000     00000000                                                                                                                        000000000000000000
F0010000009626400003000000869402400042505000000000000000000201612270002001ISRAEL MANGA                                      C000000000450000000000000000000000100010010000000000000000000000F0010000009626400320161227000101 00000000000000000000000000000000000000000000000000000000000000000000000000000000000000000000000000000000000000000N 00000000000NCONT   00    00000000000          00000000000000000000000000000000000000000000 000000000000000A000000000000000000000000000000000000000000000 000000000000000000000000000000000000000     00000000                                                                                                                        000000000000000000
F0010000009626400004000000869402400023658300000000000000000201612270002001ISRAEL MANGA                                      C000000000009600000000000000000000100010010000000000000000000000F0010000009626400420161227000101 00000000000000000000000000000000000000000000000000000000000000000000000000000000000000000000000000000000000000000N 00000000000NCONT   00    00000000000          00000000000000000000000000000000000000000000 000000000000000A000000000000000000000000000000000000000000000 000000000000000000000000000000000000000     00000000                                                                                                                        000000000000000000
F0010000009626400005000000869402400013552100000000000000000201612270002001ISRAEL MANGA                                      D000000000009600000000000000000000100010010000000000000000000000F0010000009626400520161227000101 00000000000000000000000000000000000000000000000000000000000000000000000000000000000000000000000000000000000000000N 00000000000NCONT   00    00000000000          00000000000000000000000000000000000000000000 000000000000000A000000000000000000000000000000000000000000000 000000000000000000000000000000000000000     00000000                                                                                                                        000000000000000000
F0010000009626500001000000744496800011050500000000000000000201612270002001TOMAS SANCHEZ                                     D000000003100000000000000000000000100010010000000000000000000000F0010000009626500120161227000101 00000000000000000000000000000000000000000000000000000000000000000000000000000000000000000000000000000000000000000N 00000000000NCONT   00    00000000000          00000000000000000000000000000000000000000000 000000000000000A000000000000000000000000000000000000000000000 000000000000000000000000000000000000000     00000000                                                                                                                        000000000000000000
F0010000009626500002000000744496800041450500000000000000000201612270002001TOMAS SANCHEZ                                     C000000003000000000000000000000000100010010000000000000000000000F0010000009626500220161227000101 00000000000000000000000000000000000000000000000000000000000000000000000000000000000000000000000000000000000000000N 00000000000NCONT   00    00000000000          00000000000000000000000000000000000000000000 000000000000000A000000000000000000000000000000000000000000000 000000000000000000000000000000000000000     00000000                                                                                                                        000000000000000000
F0010000009626500003000000744496800042505000000000000000000201612270002001TOMAS SANCHEZ                                     C000000000100000000000000000000000100010010000000000000000000000F0010000009626500320161227000101 00000000000000000000000000000000000000000000000000000000000000000000000000000000000000000000000000000000000000000N 00000000000NCONT   00    00000000000          00000000000000000000000000000000000000000000 000000000000000A000000000000000000000000000000000000000000000 000000000000000000000000000000000000000     00000000                                                                                                                        000000000000000000
F0010000009626500004000000744496800023658300000000000000000201612270002001TOMAS SANCHEZ                                     C000000000024000000000000000000000100010010000000000000000000000F0010000009626500420161227000101 00000000000000000000000000000000000000000000000000000000000000000000000000000000000000000000000000000000000000000N 00000000000NCONT   00    00000000000          00000000000000000000000000000000000000000000 000000000000000A000000000000000000000000000000000000000000000 000000000000000000000000000000000000000     00000000                                                                                                                        000000000000000000
F0010000009626500005000000744496800013552100000000000000000201612270002001TOMAS SANCHEZ                                     D000000000024000000000000000000000100010010000000000000000000000F0010000009626500520161227000101 00000000000000000000000000000000000000000000000000000000000000000000000000000000000000000000000000000000000000000N 00000000000NCONT   00    00000000000          00000000000000000000000000000000000000000000 000000000000000A000000000000000000000000000000000000000000000 000000000000000000000000000000000000000     00000000                                                                                                                        000000000000000000
F0010000009626600001000000744496800011050500000000000000000201612270002001TOMAS SANCHEZ                                     D000000001100000000000000000000000100010010000000000000000000000F0010000009626600120161227000101 00000000000000000000000000000000000000000000000000000000000000000000000000000000000000000000000000000000000000000N 00000000000NCONT   00    00000000000          00000000000000000000000000000000000000000000 000000000000000A000000000000000000000000000000000000000000000 000000000000000000000000000000000000000     00000000                                                                                                                        000000000000000000
F0010000009626600002000000744496800041450500000000000000000201612270002001TOMAS SANCHEZ                                     C000000001000000000000000000000000100010010000000000000000000000F0010000009626600220161227000101 00000000000000000000000000000000000000000000000000000000000000000000000000000000000000000000000000000000000000000N 00000000000NCONT   00    00000000000          00000000000000000000000000000000000000000000 000000000000000A000000000000000000000000000000000000000000000 000000000000000000000000000000000000000     00000000                                                                                                                        000000000000000000
F0010000009626600003000000744496800042505000000000000000000201612270002001TOMAS SANCHEZ                                     C000000000100000000000000000000000100010010000000000000000000000F0010000009626600320161227000101 00000000000000000000000000000000000000000000000000000000000000000000000000000000000000000000000000000000000000000N 00000000000NCONT   00    00000000000          00000000000000000000000000000000000000000000 000000000000000A000000000000000000000000000000000000000000000 000000000000000000000000000000000000000     00000000                                                                                                                        000000000000000000
F0010000009626600004000000744496800023658300000000000000000201612270002001TOMAS SANCHEZ                                     C000000000008000000000000000000000100010010000000000000000000000F0010000009626600420161227000101 00000000000000000000000000000000000000000000000000000000000000000000000000000000000000000000000000000000000000000N 00000000000NCONT   00    00000000000          00000000000000000000000000000000000000000000 000000000000000A000000000000000000000000000000000000000000000 000000000000000000000000000000000000000     00000000                                                                                                                        000000000000000000
F0010000009626600005000000744496800013552100000000000000000201612270002001TOMAS SANCHEZ                                     D000000000008000000000000000000000100010010000000000000000000000F0010000009626600520161227000101 00000000000000000000000000000000000000000000000000000000000000000000000000000000000000000000000000000000000000000N 00000000000NCONT   00    00000000000          00000000000000000000000000000000000000000000 000000000000000A000000000000000000000000000000000000000000000 000000000000000000000000000000000000000     00000000                                                                                                                        000000000000000000
F0010000009626700001000104442469100011050500000000000000000201612270002001ALESSANDRA DE BIASE CELIS                         D000000001050000000000000000000000100010010000000000000000000000F0010000009626700120161227000101 00000000000000000000000000000000000000000000000000000000000000000000000000000000000000000000000000000000000000000N 00000000000NCONT   00    00000000000          00000000000000000000000000000000000000000000 000000000000000A000000000000000000000000000000000000000000000 000000000000000000000000000000000000000     00000000                                                                                                                        000000000000000000
F0010000009626700002000104442469100041450500000000000000000201612270002001ALESSANDRA DE BIASE CELIS                         C000000000950000000000000000000000100010010000000000000000000000F0010000009626700220161227000101 00000000000000000000000000000000000000000000000000000000000000000000000000000000000000000000000000000000000000000N 00000000000NCONT   00    00000000000          00000000000000000000000000000000000000000000 000000000000000A000000000000000000000000000000000000000000000 000000000000000000000000000000000000000     00000000                                                                                                                        000000000000000000
F0010000009626700003000104442469100042505000000000000000000201612270002001ALESSANDRA DE BIASE CELIS                         C000000000100000000000000000000000100010010000000000000000000000F0010000009626700320161227000101 00000000000000000000000000000000000000000000000000000000000000000000000000000000000000000000000000000000000000000N 00000000000NCONT   00    00000000000          00000000000000000000000000000000000000000000 000000000000000A000000000000000000000000000000000000000000000 000000000000000000000000000000000000000     00000000                                                                                                                        000000000000000000
F0010000009626700004000104442469100023658300000000000000000201612270002001ALESSANDRA DE BIASE CELIS                         C000000000007600000000000000000000100010010000000000000000000000F0010000009626700420161227000101 00000000000000000000000000000000000000000000000000000000000000000000000000000000000000000000000000000000000000000N 00000000000NCONT   00    00000000000          00000000000000000000000000000000000000000000 000000000000000A000000000000000000000000000000000000000000000 000000000000000000000000000000000000000     00000000                                                                                                                        000000000000000000
F0010000009626700005000104442469100013552100000000000000000201612270002001ALESSANDRA DE BIASE CELIS                         D000000000007600000000000000000000100010010000000000000000000000F0010000009626700520161227000101 00000000000000000000000000000000000000000000000000000000000000000000000000000000000000000000000000000000000000000N 00000000000NCONT   00    00000000000          00000000000000000000000000000000000000000000 000000000000000A000000000000000000000000000000000000000000000 000000000000000000000000000000000000000     00000000                                                                                                                        000000000000000000
F0010000009626800001000114082682800011050500000000000000000201612270002001MARIA MERCEDES ROCA SANCHEZ  / FULL QUIMICOS      D000000003000000000000000000000000100010010000000000000000000000F0010000009626800120161227000101 00000000000000000000000000000000000000000000000000000000000000000000000000000000000000000000000000000000000000000N 00000000000NCONT   00    00000000000          00000000000000000000000000000000000000000000 000000000000000A000000000000000000000000000000000000000000000 000000000000000000000000000000000000000     00000000                                                                                                                        000000000000000000
F0010000009626800002000114082682800041450500000000000000000201612270002001MARIA MERCEDES ROCA SANCHEZ  / FULL QUIMICOS      C000000002900000000000000000000000100010010000000000000000000000F0010000009626800220161227000101 00000000000000000000000000000000000000000000000000000000000000000000000000000000000000000000000000000000000000000N 00000000000NCONT   00    00000000000          00000000000000000000000000000000000000000000 000000000000000A000000000000000000000000000000000000000000000 000000000000000000000000000000000000000     00000000                                                                                                                        000000000000000000
F0010000009626800003000114082682800042505000000000000000000201612270002001MARIA MERCEDES ROCA SANCHEZ  / FULL QUIMICOS      C000000000100000000000000000000000100010010000000000000000000000F0010000009626800320161227000101 00000000000000000000000000000000000000000000000000000000000000000000000000000000000000000000000000000000000000000N 00000000000NCONT   00    00000000000          00000000000000000000000000000000000000000000 000000000000000A000000000000000000000000000000000000000000000 000000000000000000000000000000000000000     00000000                                                                                                                        000000000000000000
F0010000009626800004000114082682800023658300000000000000000201612270002001MARIA MERCEDES ROCA SANCHEZ  / FULL QUIMICOS      C000000000023200000000000000000000100010010000000000000000000000F0010000009626800420161227000101 00000000000000000000000000000000000000000000000000000000000000000000000000000000000000000000000000000000000000000N 00000000000NCONT   00    00000000000          00000000000000000000000000000000000000000000 000000000000000A000000000000000000000000000000000000000000000 000000000000000000000000000000000000000     00000000                                                                                                                        000000000000000000
F0010000009626800005000114082682800013552100000000000000000201612270002001MARIA MERCEDES ROCA SANCHEZ  / FULL QUIMICOS      D000000000023200000000000000000000100010010000000000000000000000F0010000009626800520161227000101 00000000000000000000000000000000000000000000000000000000000000000000000000000000000000000000000000000000000000000N 00000000000NCONT   00    00000000000          00000000000000000000000000000000000000000000 000000000000000A000000000000000000000000000000000000000000000 000000000000000000000000000000000000000     00000000                                                                                                                        000000000000000000
F0010000009626900001000114082682800011050500000000000000000201612270002001MARIA MERCEDES ROCA SANCHEZ  / FULL QUIMICOS      D000000001000000000000000000000000100010010000000000000000000000F0010000009626900120161227000101 00000000000000000000000000000000000000000000000000000000000000000000000000000000000000000000000000000000000000000N 00000000000NCONT   00    00000000000          00000000000000000000000000000000000000000000 000000000000000A000000000000000000000000000000000000000000000 000000000000000000000000000000000000000     00000000                                                                                                                        000000000000000000
F0010000009626900002000114082682800041450500000000000000000201612270002001MARIA MERCEDES ROCA SANCHEZ  / FULL QUIMICOS      C000000000950000000000000000000000100010010000000000000000000000F0010000009626900220161227000101 00000000000000000000000000000000000000000000000000000000000000000000000000000000000000000000000000000000000000000N 00000000000NCONT   00    00000000000          00000000000000000000000000000000000000000000 000000000000000A000000000000000000000000000000000000000000000 000000000000000000000000000000000000000     00000000                                                                                                                        000000000000000000
F0010000009626900003000114082682800042505000000000000000000201612270002001MARIA MERCEDES ROCA SANCHEZ  / FULL QUIMICOS      C000000000050000000000000000000000100010010000000000000000000000F0010000009626900320161227000101 00000000000000000000000000000000000000000000000000000000000000000000000000000000000000000000000000000000000000000N 00000000000NCONT   00    00000000000          00000000000000000000000000000000000000000000 000000000000000A000000000000000000000000000000000000000000000 000000000000000000000000000000000000000     00000000                                                                                                                        000000000000000000
F0010000009626900004000114082682800023658300000000000000000201612270002001MARIA MERCEDES ROCA SANCHEZ  / FULL QUIMICOS      C000000000007600000000000000000000100010010000000000000000000000F0010000009626900420161227000101 00000000000000000000000000000000000000000000000000000000000000000000000000000000000000000000000000000000000000000N 00000000000NCONT   00    00000000000          00000000000000000000000000000000000000000000 000000000000000A000000000000000000000000000000000000000000000 000000000000000000000000000000000000000     00000000                                                                                                                        000000000000000000
F0010000009626900005000114082682800013552100000000000000000201612270002001MARIA MERCEDES ROCA SANCHEZ  / FULL QUIMICOS      D000000000007600000000000000000000100010010000000000000000000000F0010000009626900520161227000101 00000000000000000000000000000000000000000000000000000000000000000000000000000000000000000000000000000000000000000N 00000000000NCONT   00    00000000000          00000000000000000000000000000000000000000000 000000000000000A000000000000000000000000000000000000000000000 000000000000000000000000000000000000000     00000000                                                                                                                        000000000000000000
F0010000009627000001000114082682800011050500000000000000000201612270002001MARIA MERCEDES ROCA SANCHEZ  / FULL QUIMICOS      D000000001000000000000000000000000100010010000000000000000000000F0010000009627000120161227000101 00000000000000000000000000000000000000000000000000000000000000000000000000000000000000000000000000000000000000000N 00000000000NCONT   00    00000000000          00000000000000000000000000000000000000000000 000000000000000A000000000000000000000000000000000000000000000 000000000000000000000000000000000000000     00000000                                                                                                                        000000000000000000
F0010000009627000002000114082682800041450500000000000000000201612270002001MARIA MERCEDES ROCA SANCHEZ  / FULL QUIMICOS      C000000000950000000000000000000000100010010000000000000000000000F0010000009627000220161227000101 00000000000000000000000000000000000000000000000000000000000000000000000000000000000000000000000000000000000000000N 00000000000NCONT   00    00000000000          00000000000000000000000000000000000000000000 000000000000000A000000000000000000000000000000000000000000000 000000000000000000000000000000000000000     00000000                                                                                                                        000000000000000000
F0010000009627000003000114082682800042505000000000000000000201612270002001MARIA MERCEDES ROCA SANCHEZ  / FULL QUIMICOS      C000000000050000000000000000000000100010010000000000000000000000F0010000009627000320161227000101 00000000000000000000000000000000000000000000000000000000000000000000000000000000000000000000000000000000000000000N 00000000000NCONT   00    00000000000          00000000000000000000000000000000000000000000 000000000000000A000000000000000000000000000000000000000000000 000000000000000000000000000000000000000     00000000                                                                                                                        000000000000000000
F0010000009627000004000114082682800023658300000000000000000201612270002001MARIA MERCEDES ROCA SANCHEZ  / FULL QUIMICOS      C000000000007600000000000000000000100010010000000000000000000000F0010000009627000420161227000101 00000000000000000000000000000000000000000000000000000000000000000000000000000000000000000000000000000000000000000N 00000000000NCONT   00    00000000000          00000000000000000000000000000000000000000000 000000000000000A000000000000000000000000000000000000000000000 000000000000000000000000000000000000000     00000000                                                                                                                        000000000000000000
F0010000009627000005000114082682800013552100000000000000000201612270002001MARIA MERCEDES ROCA SANCHEZ  / FULL QUIMICOS      D000000000007600000000000000000000100010010000000000000000000000F0010000009627000520161227000101 00000000000000000000000000000000000000000000000000000000000000000000000000000000000000000000000000000000000000000N 00000000000NCONT   00    00000000000          00000000000000000000000000000000000000000000 000000000000000A000000000000000000000000000000000000000000000 000000000000000000000000000000000000000     00000000                                                                                                                        000000000000000000
F0010000009627100001000086004214100011050500000000000000000201612270002001PRODUCTOS QUIMICOS PANAMERICANOS S.A              D000000020500000000000000000000000100010010000000000000000000000F0010000009627100120161227000101 00000000000000000000000000000000000000000000000000000000000000000000000000000000000000000000000000000000000000000N 00000000000NCONT   00    00000000000          00000000000000000000000000000000000000000000 000000000000000A000000000000000000000000000000000000000000000 000000000000000000000000000000000000000     00000000                                                                                                                        000000000000000000
F0010000009627100002000086004214100041450500000000000000000201612270002001PRODUCTOS QUIMICOS PANAMERICANOS S.A              C000000020000000000000000000000000100010010000000000000000000000F0010000009627100220161227000101 00000000000000000000000000000000000000000000000000000000000000000000000000000000000000000000000000000000000000000N 00000000000NCONT   00    00000000000          00000000000000000000000000000000000000000000 000000000000000A000000000000000000000000000000000000000000000 000000000000000000000000000000000000000     00000000                                                                                                                        000000000000000000
F0010000009627100003000086004214100042505000000000000000000201612270002001PRODUCTOS QUIMICOS PANAMERICANOS S.A              C000000000500000000000000000000000100010010000000000000000000000F0010000009627100320161227000101 00000000000000000000000000000000000000000000000000000000000000000000000000000000000000000000000000000000000000000N 00000000000NCONT   00    00000000000          00000000000000000000000000000000000000000000 000000000000000A000000000000000000000000000000000000000000000 000000000000000000000000000000000000000     00000000                                                                                                                        000000000000000000
F0010000009627100004000086004214100023658300000000000000000201612270002001PRODUCTOS QUIMICOS PANAMERICANOS S.A              C000000000160000000000000000000000100010010000000000000000000000F0010000009627100420161227000101 00000000000000000000000000000000000000000000000000000000000000000000000000000000000000000000000000000000000000000N 00000000000NCONT   00    00000000000          00000000000000000000000000000000000000000000 000000000000000A000000000000000000000000000000000000000000000 000000000000000000000000000000000000000     00000000                                                                                                                        000000000000000000
F0010000009627100005000086004214100013552100000000000000000201612270002001PRODUCTOS QUIMICOS PANAMERICANOS S.A              D000000000160000000000000000000000100010010000000000000000000000F0010000009627100520161227000101 00000000000000000000000000000000000000000000000000000000000000000000000000000000000000000000000000000000000000000N 00000000000NCONT   00    00000000000          00000000000000000000000000000000000000000000 000000000000000A000000000000000000000000000000000000000000000 000000000000000000000000000000000000000     00000000                                                                                                                        000000000000000000
F0010000009627200001000089011078600011050500000000000000000201612270002001DIST. NUEVO MUNDO S.A.S.                          D000000001600000000000000000000000100010010000000000000000000000F0010000009627200120161227000101 00000000000000000000000000000000000000000000000000000000000000000000000000000000000000000000000000000000000000000N 00000000000NCONT   00    00000000000          00000000000000000000000000000000000000000000 000000000000000A000000000000000000000000000000000000000000000 000000000000000000000000000000000000000     00000000                                                                                                                        000000000000000000
F0010000009627200002000089011078600041450500000000000000000201612270002001DIST. NUEVO MUNDO S.A.S.                          C000000001300000000000000000000000100010010000000000000000000000F0010000009627200220161227000101 00000000000000000000000000000000000000000000000000000000000000000000000000000000000000000000000000000000000000000N 00000000000NCONT   00    00000000000          00000000000000000000000000000000000000000000 000000000000000A000000000000000000000000000000000000000000000 000000000000000000000000000000000000000     00000000                                                                                                                        000000000000000000
F0010000009627200003000089011078600042505000000000000000000201612270002001DIST. NUEVO MUNDO S.A.S.                          C000000000300000000000000000000000100010010000000000000000000000F0010000009627200320161227000101 00000000000000000000000000000000000000000000000000000000000000000000000000000000000000000000000000000000000000000N 00000000000NCONT   00    00000000000          00000000000000000000000000000000000000000000 000000000000000A000000000000000000000000000000000000000000000 000000000000000000000000000000000000000     00000000                                                                                                                        000000000000000000
F0010000009627200004000089011078600023658300000000000000000201612270002001DIST. NUEVO MUNDO S.A.S.                          C000000000010400000000000000000000100010010000000000000000000000F0010000009627200420161227000101 00000000000000000000000000000000000000000000000000000000000000000000000000000000000000000000000000000000000000000N 00000000000NCONT   00    00000000000          00000000000000000000000000000000000000000000 000000000000000A000000000000000000000000000000000000000000000 000000000000000000000000000000000000000     00000000                                                                                                                        000000000000000000
F0010000009627200005000089011078600013552100000000000000000201612270002001DIST. NUEVO MUNDO S.A.S.                          D000000000010400000000000000000000100010010000000000000000000000F0010000009627200520161227000101 00000000000000000000000000000000000000000000000000000000000000000000000000000000000000000000000000000000000000000N 00000000000NCONT   00    00000000000          00000000000000000000000000000000000000000000 000000000000000A000000000000000000000000000000000000000000000 000000000000000000000000000000000000000     00000000                                                                                                                        000000000000000000
F0010000009627300001000086003979400011050500000000000000000201612270002001CALYPSO BARRANQUILLA LTDA                         D000000001660000000000000000000000100010010000000000000000000000F0010000009627300120161227000101 00000000000000000000000000000000000000000000000000000000000000000000000000000000000000000000000000000000000000000N 00000000000NCONT   00    00000000000          00000000000000000000000000000000000000000000 000000000000000A000000000000000000000000000000000000000000000 000000000000000000000000000000000000000     00000000                                                                                                                        000000000000000000
F0010000009627300002000086003979400041450500000000000000000201612270002001CALYPSO BARRANQUILLA LTDA                         C000000001320000000000000000000000100010010000000000000000000000F0010000009627300220161227000101 00000000000000000000000000000000000000000000000000000000000000000000000000000000000000000000000000000000000000000N 00000000000NCONT   00    00000000000          00000000000000000000000000000000000000000000 000000000000000A000000000000000000000000000000000000000000000 000000000000000000000000000000000000000     00000000                                                                                                                        000000000000000000
F0010000009627300003000086003979400042505000000000000000000201612270002001CALYPSO BARRANQUILLA LTDA                         C000000000340000000000000000000000100010010000000000000000000000F0010000009627300320161227000101 00000000000000000000000000000000000000000000000000000000000000000000000000000000000000000000000000000000000000000N 00000000000NCONT   00    00000000000          00000000000000000000000000000000000000000000 000000000000000A000000000000000000000000000000000000000000000 000000000000000000000000000000000000000     00000000                                                                                                                        000000000000000000
F0010000009627300004000086003979400023658300000000000000000201612270002001CALYPSO BARRANQUILLA LTDA                         C000000000010600000000000000000000100010010000000000000000000000F0010000009627300420161227000101 00000000000000000000000000000000000000000000000000000000000000000000000000000000000000000000000000000000000000000N 00000000000NCONT   00    00000000000          00000000000000000000000000000000000000000000 000000000000000A000000000000000000000000000000000000000000000 000000000000000000000000000000000000000     00000000                                                                                                                        000000000000000000
F0010000009627300005000086003979400013552100000000000000000201612270002001CALYPSO BARRANQUILLA LTDA                         D000000000010600000000000000000000100010010000000000000000000000F0010000009627300520161227000101 00000000000000000000000000000000000000000000000000000000000000000000000000000000000000000000000000000000000000000N 00000000000NCONT   00    00000000000          00000000000000000000000000000000000000000000 000000000000000A000000000000000000000000000000000000000000000 000000000000000000000000000000000000000     00000000                                                                                                                        000000000000000000
F0010000009627400001000007213653800011050500000000000000000201612270002001VICTOR ECHAVEZ                                    D000000001500000000000000000000000100010010000000000000000000000F0010000009627400120161227000101 00000000000000000000000000000000000000000000000000000000000000000000000000000000000000000000000000000000000000000N 00000000000NCONT   00    00000000000          00000000000000000000000000000000000000000000 000000000000000A000000000000000000000000000000000000000000000 000000000000000000000000000000000000000     00000000                                                                                                                        000000000000000000
F0010000009627400002000007213653800041450500000000000000000201612270002001VICTOR ECHAVEZ                                    C000000001200000000000000000000000100010010000000000000000000000F0010000009627400220161227000101 00000000000000000000000000000000000000000000000000000000000000000000000000000000000000000000000000000000000000000N 00000000000NCONT   00    00000000000          00000000000000000000000000000000000000000000 000000000000000A000000000000000000000000000000000000000000000 000000000000000000000000000000000000000     00000000                                                                                                                        000000000000000000
F0010000009627400003000007213653800042505000000000000000000201612270002001VICTOR ECHAVEZ                                    C000000000300000000000000000000000100010010000000000000000000000F0010000009627400320161227000101 00000000000000000000000000000000000000000000000000000000000000000000000000000000000000000000000000000000000000000N 00000000000NCONT   00    00000000000          00000000000000000000000000000000000000000000 000000000000000A000000000000000000000000000000000000000000000 000000000000000000000000000000000000000     00000000                                                                                                                        000000000000000000
F0010000009627400004000007213653800023658300000000000000000201612270002001VICTOR ECHAVEZ                                    C000000000009600000000000000000000100010010000000000000000000000F0010000009627400420161227000101 00000000000000000000000000000000000000000000000000000000000000000000000000000000000000000000000000000000000000000N 00000000000NCONT   00    00000000000          00000000000000000000000000000000000000000000 000000000000000A000000000000000000000000000000000000000000000 000000000000000000000000000000000000000     00000000                                                                                                                        000000000000000000
F0010000009627400005000007213653800013552100000000000000000201612270002001VICTOR ECHAVEZ                                    D000000000009600000000000000000000100010010000000000000000000000F0010000009627400520161227000101 00000000000000000000000000000000000000000000000000000000000000000000000000000000000000000000000000000000000000000N 00000000000NCONT   00    00000000000          00000000000000000000000000000000000000000000 000000000000000A000000000000000000000000000000000000000000000 000000000000000000000000000000000000000     00000000                                                                                                                        000000000000000000
F0010000009627500001000007213653800011050500000000000000000201612270002001VICTOR ECHAVEZ                                    D000000001370000000000000000000000100010010000000000000000000000F0010000009627500120161227000101 00000000000000000000000000000000000000000000000000000000000000000000000000000000000000000000000000000000000000000N 00000000000NCONT   00    00000000000          00000000000000000000000000000000000000000000 000000000000000A000000000000000000000000000000000000000000000 000000000000000000000000000000000000000     00000000                                                                                                                        000000000000000000
F0010000009627500002000007213653800041450500000000000000000201612270002001VICTOR ECHAVEZ                                    C000000001000000000000000000000000100010010000000000000000000000F0010000009627500220161227000101 00000000000000000000000000000000000000000000000000000000000000000000000000000000000000000000000000000000000000000N 00000000000NCONT   00    00000000000          00000000000000000000000000000000000000000000 000000000000000A000000000000000000000000000000000000000000000 000000000000000000000000000000000000000     00000000                                                                                                                        000000000000000000
F0010000009627500003000007213653800042505000000000000000000201612270002001VICTOR ECHAVEZ                                    C000000000370000000000000000000000100010010000000000000000000000F0010000009627500320161227000101 00000000000000000000000000000000000000000000000000000000000000000000000000000000000000000000000000000000000000000N 00000000000NCONT   00    00000000000          00000000000000000000000000000000000000000000 000000000000000A000000000000000000000000000000000000000000000 000000000000000000000000000000000000000     00000000                                                                                                                        000000000000000000
F0010000009627500004000007213653800023658300000000000000000201612270002001VICTOR ECHAVEZ                                    C000000000008000000000000000000000100010010000000000000000000000F0010000009627500420161227000101 00000000000000000000000000000000000000000000000000000000000000000000000000000000000000000000000000000000000000000N 00000000000NCONT   00    00000000000          00000000000000000000000000000000000000000000 000000000000000A000000000000000000000000000000000000000000000 000000000000000000000000000000000000000     00000000                                                                                                                        000000000000000000
F0010000009627500005000007213653800013552100000000000000000201612270002001VICTOR ECHAVEZ                                    D000000000008000000000000000000000100010010000000000000000000000F0010000009627500520161227000101 00000000000000000000000000000000000000000000000000000000000000000000000000000000000000000000000000000000000000000N 00000000000NCONT   00    00000000000          00000000000000000000000000000000000000000000 000000000000000A000000000000000000000000000000000000000000000 000000000000000000000000000000000000000     00000000                                                                                                                        000000000000000000
F0010000009627600001000002245670100011050500000000000000000201612270002001YOLANDA  TOBON                                    D000000009557800000000000000000000100010010000000000000000000000F0010000009627600120161227000101 00000000000000000000000000000000000000000000000000000000000000000000000000000000000000000000000000000000000000000N 00000000000NCONT   00    00000000000          00000000000000000000000000000000000000000000 000000000000000A000000000000000000000000000000000000000000000 000000000000000000000000000000000000000     00000000                                                                                                                        000000000000000000
F0010000009627600002000002245670100041450500000000000000000201612270002001YOLANDA  TOBON                                    C000000007690000000000000000000000100010010000000000000000000000F0010000009627600220161227000101 00000000000000000000000000000000000000000000000000000000000000000000000000000000000000000000000000000000000000000N 00000000000NCONT   00    00000000000          00000000000000000000000000000000000000000000 000000000000000A000000000000000000000000000000000000000000000 000000000000000000000000000000000000000     00000000                                                                                                                        000000000000000000
F0010000009627600003000002245670100042505000000000000000000201612270002001YOLANDA  TOBON                                    C000000001867800000000000000000000100010010000000000000000000000F0010000009627600320161227000101 00000000000000000000000000000000000000000000000000000000000000000000000000000000000000000000000000000000000000000N 00000000000NCONT   00    00000000000          00000000000000000000000000000000000000000000 000000000000000A000000000000000000000000000000000000000000000 000000000000000000000000000000000000000     00000000                                                                                                                        000000000000000000
F0010000009627600004000002245670100023658300000000000000000201612270002001YOLANDA  TOBON                                    C000000000061500000000000000000000100010010000000000000000000000F0010000009627600420161227000101 00000000000000000000000000000000000000000000000000000000000000000000000000000000000000000000000000000000000000000N 00000000000NCONT   00    00000000000          00000000000000000000000000000000000000000000 000000000000000A000000000000000000000000000000000000000000000 000000000000000000000000000000000000000     00000000                                                                                                                        000000000000000000
F0010000009627600005000002245670100013552100000000000000000201612270002001YOLANDA  TOBON                                    D000000000061500000000000000000000100010010000000000000000000000F0010000009627600520161227000101 00000000000000000000000000000000000000000000000000000000000000000000000000000000000000000000000000000000000000000N 00000000000NCONT   00    00000000000          00000000000000000000000000000000000000000000 000000000000000A000000000000000000000000000000000000000000000 000000000000000000000000000000000000000     00000000                                                                                                                        000000000000000000
F0010000009627700001000090061985600011050500000000000000000201612270002001COMERCIALIZADORA PATRY SAS                        D000000001500000000000000000000000100010010000000000000000000000F0010000009627700120161227000101 00000000000000000000000000000000000000000000000000000000000000000000000000000000000000000000000000000000000000000N 00000000000NCONT   00    00000000000          00000000000000000000000000000000000000000000 000000000000000A000000000000000000000000000000000000000000000 000000000000000000000000000000000000000     00000000                                                                                                                        000000000000000000
F0010000009627700002000090061985600041450500000000000000000201612270002001COMERCIALIZADORA PATRY SAS                        C000000001000000000000000000000000100010010000000000000000000000F0010000009627700220161227000101 00000000000000000000000000000000000000000000000000000000000000000000000000000000000000000000000000000000000000000N 00000000000NCONT   00    00000000000          00000000000000000000000000000000000000000000 000000000000000A000000000000000000000000000000000000000000000 000000000000000000000000000000000000000     00000000                                                                                                                        000000000000000000
F0010000009627700003000090061985600042505000000000000000000201612270002001COMERCIALIZADORA PATRY SAS                        C000000000500000000000000000000000100010010000000000000000000000F0010000009627700320161227000101 00000000000000000000000000000000000000000000000000000000000000000000000000000000000000000000000000000000000000000N 00000000000NCONT   00    00000000000          00000000000000000000000000000000000000000000 000000000000000A000000000000000000000000000000000000000000000 000000000000000000000000000000000000000     00000000                                                                                                                        000000000000000000
F0010000009627700004000090061985600023658300000000000000000201612270002001COMERCIALIZADORA PATRY SAS                        C000000000008000000000000000000000100010010000000000000000000000F0010000009627700420161227000101 00000000000000000000000000000000000000000000000000000000000000000000000000000000000000000000000000000000000000000N 00000000000NCONT   00    00000000000          00000000000000000000000000000000000000000000 000000000000000A000000000000000000000000000000000000000000000 000000000000000000000000000000000000000     00000000                                                                                                                        000000000000000000
F0010000009627700005000090061985600013552100000000000000000201612270002001COMERCIALIZADORA PATRY SAS                        D000000000008000000000000000000000100010010000000000000000000000F0010000009627700520161227000101 00000000000000000000000000000000000000000000000000000000000000000000000000000000000000000000000000000000000000000N 00000000000NCONT   00    00000000000          00000000000000000000000000000000000000000000 000000000000000A000000000000000000000000000000000000000000000 000000000000000000000000000000000000000     00000000                                                                                                                        000000000000000000
F0010000009627800001000007225511500011050500000000000000000201612270002001MAIGEL CHADID                                     D000000011500000000000000000000000100010010000000000000000000000F0010000009627800120161227000101 00000000000000000000000000000000000000000000000000000000000000000000000000000000000000000000000000000000000000000N 00000000000NCONT   00    00000000000          00000000000000000000000000000000000000000000 000000000000000A000000000000000000000000000000000000000000000 000000000000000000000000000000000000000     00000000                                                                                                                        000000000000000000
F0010000009627800002000007225511500041450500000000000000000201612270002001MAIGEL CHADID                                     C000000009000000000000000000000000100010010000000000000000000000F0010000009627800220161227000101 00000000000000000000000000000000000000000000000000000000000000000000000000000000000000000000000000000000000000000N 00000000000NCONT   00    00000000000          00000000000000000000000000000000000000000000 000000000000000A000000000000000000000000000000000000000000000 000000000000000000000000000000000000000     00000000                                                                                                                        000000000000000000
F0010000009627800003000007225511500042505000000000000000000201612270002001MAIGEL CHADID                                     C000000002500000000000000000000000100010010000000000000000000000F0010000009627800320161227000101 00000000000000000000000000000000000000000000000000000000000000000000000000000000000000000000000000000000000000000N 00000000000NCONT   00    00000000000          00000000000000000000000000000000000000000000 000000000000000A000000000000000000000000000000000000000000000 000000000000000000000000000000000000000     00000000                                                                                                                        000000000000000000
F0010000009627800004000007225511500023658300000000000000000201612270002001MAIGEL CHADID                                     C000000000072000000000000000000000100010010000000000000000000000F0010000009627800420161227000101 00000000000000000000000000000000000000000000000000000000000000000000000000000000000000000000000000000000000000000N 00000000000NCONT   00    00000000000          00000000000000000000000000000000000000000000 000000000000000A000000000000000000000000000000000000000000000 000000000000000000000000000000000000000     00000000                                                                                                                        000000000000000000
F0010000009627800005000007225511500013552100000000000000000201612270002001MAIGEL CHADID                                     D000000000072000000000000000000000100010010000000000000000000000F0010000009627800520161227000101 00000000000000000000000000000000000000000000000000000000000000000000000000000000000000000000000000000000000000000N 00000000000NCONT   00    00000000000          00000000000000000000000000000000000000000000 000000000000000A000000000000000000000000000000000000000000000 000000000000000000000000000000000000000     00000000                                                                                                                        000000000000000000
F0010000009627900001000000742399700011050500000000000000000201612270002001CACHARRERIA EL NUEVO CHADID                       D000000001400000000000000000000000100010010000000000000000000000F0010000009627900120161227000101 00000000000000000000000000000000000000000000000000000000000000000000000000000000000000000000000000000000000000000N 00000000000NCONT   00    00000000000          00000000000000000000000000000000000000000000 000000000000000A000000000000000000000000000000000000000000000 000000000000000000000000000000000000000     00000000                                                                                                                        000000000000000000
F0010000009627900002000000742399700041450500000000000000000201612270002001CACHARRERIA EL NUEVO CHADID                       C000000001000000000000000000000000100010010000000000000000000000F0010000009627900220161227000101 00000000000000000000000000000000000000000000000000000000000000000000000000000000000000000000000000000000000000000N 00000000000NCONT   00    00000000000          00000000000000000000000000000000000000000000 000000000000000A000000000000000000000000000000000000000000000 000000000000000000000000000000000000000     00000000                                                                                                                        000000000000000000
F0010000009627900003000000742399700042505000000000000000000201612270002001CACHARRERIA EL NUEVO CHADID                       C000000000400000000000000000000000100010010000000000000000000000F0010000009627900320161227000101 00000000000000000000000000000000000000000000000000000000000000000000000000000000000000000000000000000000000000000N 00000000000NCONT   00    00000000000          00000000000000000000000000000000000000000000 000000000000000A000000000000000000000000000000000000000000000 000000000000000000000000000000000000000     00000000                                                                                                                        000000000000000000
F0010000009627900004000000742399700023658300000000000000000201612270002001CACHARRERIA EL NUEVO CHADID                       C000000000008000000000000000000000100010010000000000000000000000F0010000009627900420161227000101 00000000000000000000000000000000000000000000000000000000000000000000000000000000000000000000000000000000000000000N 00000000000NCONT   00    00000000000          00000000000000000000000000000000000000000000 000000000000000A000000000000000000000000000000000000000000000 000000000000000000000000000000000000000     00000000                                                                                                                        000000000000000000
F0010000009627900005000000742399700013552100000000000000000201612270002001CACHARRERIA EL NUEVO CHADID                       D000000000008000000000000000000000100010010000000000000000000000F0010000009627900520161227000101 00000000000000000000000000000000000000000000000000000000000000000000000000000000000000000000000000000000000000000N 00000000000NCONT   00    00000000000          00000000000000000000000000000000000000000000 000000000000000A000000000000000000000000000000000000000000000 000000000000000000000000000000000000000     00000000                                                                                                                        000000000000000000
F0010000009628000001000000742399700011050500000000000000000201612270002001CACHARRERIA EL NUEVO CHADID                       D000000001500000000000000000000000100010010000000000000000000000F0010000009628000120161227000101 00000000000000000000000000000000000000000000000000000000000000000000000000000000000000000000000000000000000000000N 00000000000NCONT   00    00000000000          00000000000000000000000000000000000000000000 000000000000000A000000000000000000000000000000000000000000000 000000000000000000000000000000000000000     00000000                                                                                                                        000000000000000000
F0010000009628000002000000742399700041450500000000000000000201612270002001CACHARRERIA EL NUEVO CHADID                       C000000001000000000000000000000000100010010000000000000000000000F0010000009628000220161227000101 00000000000000000000000000000000000000000000000000000000000000000000000000000000000000000000000000000000000000000N 00000000000NCONT   00    00000000000          00000000000000000000000000000000000000000000 000000000000000A000000000000000000000000000000000000000000000 000000000000000000000000000000000000000     00000000                                                                                                                        000000000000000000
F0010000009628000003000000742399700042505000000000000000000201612270002001CACHARRERIA EL NUEVO CHADID                       C000000000500000000000000000000000100010010000000000000000000000F0010000009628000320161227000101 00000000000000000000000000000000000000000000000000000000000000000000000000000000000000000000000000000000000000000N 00000000000NCONT   00    00000000000          00000000000000000000000000000000000000000000 000000000000000A000000000000000000000000000000000000000000000 000000000000000000000000000000000000000     00000000                                                                                                                        000000000000000000
F0010000009628000004000000742399700023658300000000000000000201612270002001CACHARRERIA EL NUEVO CHADID                       C000000000008000000000000000000000100010010000000000000000000000F0010000009628000420161227000101 00000000000000000000000000000000000000000000000000000000000000000000000000000000000000000000000000000000000000000N 00000000000NCONT   00    00000000000          00000000000000000000000000000000000000000000 000000000000000A000000000000000000000000000000000000000000000 000000000000000000000000000000000000000     00000000                                                                                                                        000000000000000000
F0010000009628000005000000742399700013552100000000000000000201612270002001CACHARRERIA EL NUEVO CHADID                       D000000000008000000000000000000000100010010000000000000000000000F0010000009628000520161227000101 00000000000000000000000000000000000000000000000000000000000000000000000000000000000000000000000000000000000000000N 00000000000NCONT   00    00000000000          00000000000000000000000000000000000000000000 000000000000000A000000000000000000000000000000000000000000000 000000000000000000000000000000000000000     00000000                                                                                                                        000000000000000000
F0010000009628100001000102390001700011050500000000000000000201612270002001LILIANA HERNANDEZ PINILLA                         D000000001500000000000000000000000100010010000000000000000000000F0010000009628100120161227000101 00000000000000000000000000000000000000000000000000000000000000000000000000000000000000000000000000000000000000000N 00000000000NCONT   00    00000000000          00000000000000000000000000000000000000000000 000000000000000A000000000000000000000000000000000000000000000 000000000000000000000000000000000000000     00000000                                                                                                                        000000000000000000
F0010000009628100002000102390001700041450500000000000000000201612270002001LILIANA HERNANDEZ PINILLA                         C000000001000000000000000000000000100010010000000000000000000000F0010000009628100220161227000101 00000000000000000000000000000000000000000000000000000000000000000000000000000000000000000000000000000000000000000N 00000000000NCONT   00    00000000000          00000000000000000000000000000000000000000000 000000000000000A000000000000000000000000000000000000000000000 000000000000000000000000000000000000000     00000000                                                                                                                        000000000000000000
F0010000009628100003000102390001700042505000000000000000000201612270002001LILIANA HERNANDEZ PINILLA                         C000000000500000000000000000000000100010010000000000000000000000F0010000009628100320161227000101 00000000000000000000000000000000000000000000000000000000000000000000000000000000000000000000000000000000000000000N 00000000000NCONT   00    00000000000          00000000000000000000000000000000000000000000 000000000000000A000000000000000000000000000000000000000000000 000000000000000000000000000000000000000     00000000                                                                                                                        000000000000000000
F0010000009628100004000102390001700023658300000000000000000201612270002001LILIANA HERNANDEZ PINILLA                         C000000000008000000000000000000000100010010000000000000000000000F0010000009628100420161227000101 00000000000000000000000000000000000000000000000000000000000000000000000000000000000000000000000000000000000000000N 00000000000NCONT   00    00000000000          00000000000000000000000000000000000000000000 000000000000000A000000000000000000000000000000000000000000000 000000000000000000000000000000000000000     00000000                                                                                                                        000000000000000000
F0010000009628100005000102390001700013552100000000000000000201612270002001LILIANA HERNANDEZ PINILLA                         D000000000008000000000000000000000100010010000000000000000000000F0010000009628100520161227000101 00000000000000000000000000000000000000000000000000000000000000000000000000000000000000000000000000000000000000000N 00000000000NCONT   00    00000000000          00000000000000000000000000000000000000000000 000000000000000A000000000000000000000000000000000000000000000 000000000000000000000000000000000000000     00000000                                                                                                                        000000000000000000
F0010000009628200001000002245486800011050500000000000000000201612270002001ALMACEN  DISTRIBEL                                D000000001900000000000000000000000100010010000000000000000000000F0010000009628200120161227000101 00000000000000000000000000000000000000000000000000000000000000000000000000000000000000000000000000000000000000000N 00000000000NCONT   00    00000000000          00000000000000000000000000000000000000000000 000000000000000A000000000000000000000000000000000000000000000 000000000000000000000000000000000000000     00000000                                                                                                                        000000000000000000
F0010000009628200002000002245486800041450500000000000000000201612270002001ALMACEN  DISTRIBEL                                C000000001500000000000000000000000100010010000000000000000000000F0010000009628200220161227000101 00000000000000000000000000000000000000000000000000000000000000000000000000000000000000000000000000000000000000000N 00000000000NCONT   00    00000000000          00000000000000000000000000000000000000000000 000000000000000A000000000000000000000000000000000000000000000 000000000000000000000000000000000000000     00000000                                                                                                                        000000000000000000
F0010000009628200003000002245486800042505000000000000000000201612270002001ALMACEN  DISTRIBEL                                C000000000400000000000000000000000100010010000000000000000000000F0010000009628200320161227000101 00000000000000000000000000000000000000000000000000000000000000000000000000000000000000000000000000000000000000000N 00000000000NCONT   00    00000000000          00000000000000000000000000000000000000000000 000000000000000A000000000000000000000000000000000000000000000 000000000000000000000000000000000000000     00000000                                                                                                                        000000000000000000
F0010000009628200004000002245486800023658300000000000000000201612270002001ALMACEN  DISTRIBEL                                C000000000012000000000000000000000100010010000000000000000000000F0010000009628200420161227000101 00000000000000000000000000000000000000000000000000000000000000000000000000000000000000000000000000000000000000000N 00000000000NCONT   00    00000000000          00000000000000000000000000000000000000000000 000000000000000A000000000000000000000000000000000000000000000 000000000000000000000000000000000000000     00000000                                                                                                                        000000000000000000
F0010000009628200005000002245486800013552100000000000000000201612270002001ALMACEN  DISTRIBEL                                D000000000012000000000000000000000100010010000000000000000000000F0010000009628200520161227000101 00000000000000000000000000000000000000000000000000000000000000000000000000000000000000000000000000000000000000000N 00000000000NCONT   00    00000000000          00000000000000000000000000000000000000000000 000000000000000A000000000000000000000000000000000000000000000 000000000000000000000000000000000000000     00000000                                                                                                                        000000000000000000
F0010000009628300001000090014415700011050500000000000000000201612270002001CORDELES Y EXTRUIDOS DE COLOMBIA S.A.S.           D000000008800000000000000000000000100010010000000000000000000000F0010000009628300120161227000101 00000000000000000000000000000000000000000000000000000000000000000000000000000000000000000000000000000000000000000N 00000000000NCONT   00    00000000000          00000000000000000000000000000000000000000000 000000000000000A000000000000000000000000000000000000000000000 000000000000000000000000000000000000000     00000000                                                                                                                        000000000000000000
F0010000009628300002000090014415700041450500000000000000000201612270002001CORDELES Y EXTRUIDOS DE COLOMBIA S.A.S.           C000000007800000000000000000000000100010010000000000000000000000F0010000009628300220161227000101 00000000000000000000000000000000000000000000000000000000000000000000000000000000000000000000000000000000000000000N 00000000000NCONT   00    00000000000          00000000000000000000000000000000000000000000 000000000000000A000000000000000000000000000000000000000000000 000000000000000000000000000000000000000     00000000                                                                                                                        000000000000000000
F0010000009628300003000090014415700042505000000000000000000201612270002001CORDELES Y EXTRUIDOS DE COLOMBIA S.A.S.           C000000001000000000000000000000000100010010000000000000000000000F0010000009628300320161227000101 00000000000000000000000000000000000000000000000000000000000000000000000000000000000000000000000000000000000000000N 00000000000NCONT   00    00000000000          00000000000000000000000000000000000000000000 000000000000000A000000000000000000000000000000000000000000000 000000000000000000000000000000000000000     00000000                                                                                                                        000000000000000000
F0010000009628300004000090014415700023658300000000000000000201612270002001CORDELES Y EXTRUIDOS DE COLOMBIA S.A.S.           C000000000062400000000000000000000100010010000000000000000000000F0010000009628300420161227000101 00000000000000000000000000000000000000000000000000000000000000000000000000000000000000000000000000000000000000000N 00000000000NCONT   00    00000000000          00000000000000000000000000000000000000000000 000000000000000A000000000000000000000000000000000000000000000 000000000000000000000000000000000000000     00000000                                                                                                                        000000000000000000
F0010000009628300005000090014415700013552100000000000000000201612270002001CORDELES Y EXTRUIDOS DE COLOMBIA S.A.S.           D000000000062400000000000000000000100010010000000000000000000000F0010000009628300520161227000101 00000000000000000000000000000000000000000000000000000000000000000000000000000000000000000000000000000000000000000N 00000000000NCONT   00    00000000000          00000000000000000000000000000000000000000000 000000000000000A000000000000000000000000000000000000000000000 000000000000000000000000000000000000000     00000000                                                                                                                        000000000000000000
F0010000009628400001000089011338500011050500000000000000000201612270002001ALMACEN EL INGENIERO LTDA                         D000000015000000000000000000000000100010010000000000000000000000F0010000009628400120161227000101 00000000000000000000000000000000000000000000000000000000000000000000000000000000000000000000000000000000000000000N 00000000000NCONT   00    00000000000          00000000000000000000000000000000000000000000 000000000000000A000000000000000000000000000000000000000000000 000000000000000000000000000000000000000     00000000                                                                                                                        000000000000000000
F0010000009628400002000089011338500041450500000000000000000201612270002001ALMACEN EL INGENIERO LTDA                         C000000014500000000000000000000000100010010000000000000000000000F0010000009628400220161227000101 00000000000000000000000000000000000000000000000000000000000000000000000000000000000000000000000000000000000000000N 00000000000NCONT   00    00000000000          00000000000000000000000000000000000000000000 000000000000000A000000000000000000000000000000000000000000000 000000000000000000000000000000000000000     00000000                                                                                                                        000000000000000000
F0010000009628400003000089011338500042505000000000000000000201612270002001ALMACEN EL INGENIERO LTDA                         C000000000500000000000000000000000100010010000000000000000000000F0010000009628400320161227000101 00000000000000000000000000000000000000000000000000000000000000000000000000000000000000000000000000000000000000000N 00000000000NCONT   00    00000000000          00000000000000000000000000000000000000000000 000000000000000A000000000000000000000000000000000000000000000 000000000000000000000000000000000000000     00000000                                                                                                                        000000000000000000
F0010000009628400004000089011338500023658300000000000000000201612270002001ALMACEN EL INGENIERO LTDA                         C000000000116000000000000000000000100010010000000000000000000000F0010000009628400420161227000101 00000000000000000000000000000000000000000000000000000000000000000000000000000000000000000000000000000000000000000N 00000000000NCONT   00    00000000000          00000000000000000000000000000000000000000000 000000000000000A000000000000000000000000000000000000000000000 000000000000000000000000000000000000000     00000000                                                                                                                        000000000000000000
F0010000009628400005000089011338500013552100000000000000000201612270002001ALMACEN EL INGENIERO LTDA                         D000000000116000000000000000000000100010010000000000000000000000F0010000009628400520161227000101 00000000000000000000000000000000000000000000000000000000000000000000000000000000000000000000000000000000000000000N 00000000000NCONT   00    00000000000          00000000000000000000000000000000000000000000 000000000000000A000000000000000000000000000000000000000000000 000000000000000000000000000000000000000     00000000                                                                                                                        000000000000000000
F0010000009628500001000000856527900011050500000000000000000201612270002001CESAR AUGUSTO MIER BUELVAS                        D000000001400000000000000000000000100010010000000000000000000000F0010000009628500120161227000101 00000000000000000000000000000000000000000000000000000000000000000000000000000000000000000000000000000000000000000N 00000000000NCONT   00    00000000000          00000000000000000000000000000000000000000000 000000000000000A000000000000000000000000000000000000000000000 000000000000000000000000000000000000000     00000000                                                                                                                        000000000000000000
F0010000009628500002000000856527900041450500000000000000000201612270002001CESAR AUGUSTO MIER BUELVAS                        C000000001300000000000000000000000100010010000000000000000000000F0010000009628500220161227000101 00000000000000000000000000000000000000000000000000000000000000000000000000000000000000000000000000000000000000000N 00000000000NCONT   00    00000000000          00000000000000000000000000000000000000000000 000000000000000A000000000000000000000000000000000000000000000 000000000000000000000000000000000000000     00000000                                                                                                                        000000000000000000
F0010000009628500003000000856527900042505000000000000000000201612270002001CESAR AUGUSTO MIER BUELVAS                        C000000000100000000000000000000000100010010000000000000000000000F0010000009628500320161227000101 00000000000000000000000000000000000000000000000000000000000000000000000000000000000000000000000000000000000000000N 00000000000NCONT   00    00000000000          00000000000000000000000000000000000000000000 000000000000000A000000000000000000000000000000000000000000000 000000000000000000000000000000000000000     00000000                                                                                                                        000000000000000000
F0010000009628500004000000856527900023658300000000000000000201612270002001CESAR AUGUSTO MIER BUELVAS                        C000000000010400000000000000000000100010010000000000000000000000F0010000009628500420161227000101 00000000000000000000000000000000000000000000000000000000000000000000000000000000000000000000000000000000000000000N 00000000000NCONT   00    00000000000          00000000000000000000000000000000000000000000 000000000000000A000000000000000000000000000000000000000000000 000000000000000000000000000000000000000     00000000                                                                                                                        000000000000000000
F0010000009628500005000000856527900013552100000000000000000201612270002001CESAR AUGUSTO MIER BUELVAS                        D000000000010400000000000000000000100010010000000000000000000000F0010000009628500520161227000101 00000000000000000000000000000000000000000000000000000000000000000000000000000000000000000000000000000000000000000N 00000000000NCONT   00    00000000000          00000000000000000000000000000000000000000000 000000000000000A000000000000000000000000000000000000000000000 000000000000000000000000000000000000000     00000000                                                                                                                        000000000000000000
F0010000009628600001000007214782600011050500000000000000000201612270002001OSCAR JOSE LIAN ROCHA                             D000000001100000000000000000000000100010010000000000000000000000F0010000009628600120161227000101 00000000000000000000000000000000000000000000000000000000000000000000000000000000000000000000000000000000000000000N 00000000000NCONT   00    00000000000          00000000000000000000000000000000000000000000 000000000000000A000000000000000000000000000000000000000000000 000000000000000000000000000000000000000     00000000                                                                                                                        000000000000000000
F0010000009628600002000007214782600041450500000000000000000201612270002001OSCAR JOSE LIAN ROCHA                             C000000001000000000000000000000000100010010000000000000000000000F0010000009628600220161227000101 00000000000000000000000000000000000000000000000000000000000000000000000000000000000000000000000000000000000000000N 00000000000NCONT   00    00000000000          00000000000000000000000000000000000000000000 000000000000000A000000000000000000000000000000000000000000000 000000000000000000000000000000000000000     00000000                                                                                                                        000000000000000000
F0010000009628600003000007214782600042505000000000000000000201612270002001OSCAR JOSE LIAN ROCHA                             C000000000100000000000000000000000100010010000000000000000000000F0010000009628600320161227000101 00000000000000000000000000000000000000000000000000000000000000000000000000000000000000000000000000000000000000000N 00000000000NCONT   00    00000000000          00000000000000000000000000000000000000000000 000000000000000A000000000000000000000000000000000000000000000 000000000000000000000000000000000000000     00000000                                                                                                                        000000000000000000
F0010000009628600004000007214782600023658300000000000000000201612270002001OSCAR JOSE LIAN ROCHA                             C000000000008000000000000000000000100010010000000000000000000000F0010000009628600420161227000101 00000000000000000000000000000000000000000000000000000000000000000000000000000000000000000000000000000000000000000N 00000000000NCONT   00    00000000000          00000000000000000000000000000000000000000000 000000000000000A000000000000000000000000000000000000000000000 000000000000000000000000000000000000000     00000000                                                                                                                        000000000000000000
F0010000009628600005000007214782600013552100000000000000000201612270002001OSCAR JOSE LIAN ROCHA                             D000000000008000000000000000000000100010010000000000000000000000F0010000009628600520161227000101 00000000000000000000000000000000000000000000000000000000000000000000000000000000000000000000000000000000000000000N 00000000000NCONT   00    00000000000          00000000000000000000000000000000000000000000 000000000000000A000000000000000000000000000000000000000000000 000000000000000000000000000000000000000     00000000                                                                                                                        000000000000000000
F0010000009628700001000007214782600011050500000000000000000201612270002001OSCAR JOSE LIAN ROCHA                             D000000001500000000000000000000000100010010000000000000000000000F0010000009628700120161227000101 00000000000000000000000000000000000000000000000000000000000000000000000000000000000000000000000000000000000000000N 00000000000NCONT   00    00000000000          00000000000000000000000000000000000000000000 000000000000000A000000000000000000000000000000000000000000000 000000000000000000000000000000000000000     00000000                                                                                                                        000000000000000000
F0010000009628700002000007214782600041450500000000000000000201612270002001OSCAR JOSE LIAN ROCHA                             C000000001300000000000000000000000100010010000000000000000000000F0010000009628700220161227000101 00000000000000000000000000000000000000000000000000000000000000000000000000000000000000000000000000000000000000000N 00000000000NCONT   00    00000000000          00000000000000000000000000000000000000000000 000000000000000A000000000000000000000000000000000000000000000 000000000000000000000000000000000000000     00000000                                                                                                                        000000000000000000
F0010000009628700003000007214782600042505000000000000000000201612270002001OSCAR JOSE LIAN ROCHA                             C000000000200000000000000000000000100010010000000000000000000000F0010000009628700320161227000101 00000000000000000000000000000000000000000000000000000000000000000000000000000000000000000000000000000000000000000N 00000000000NCONT   00    00000000000          00000000000000000000000000000000000000000000 000000000000000A000000000000000000000000000000000000000000000 000000000000000000000000000000000000000     00000000                                                                                                                        000000000000000000
F0010000009628700004000007214782600023658300000000000000000201612270002001OSCAR JOSE LIAN ROCHA                             C000000000010400000000000000000000100010010000000000000000000000F0010000009628700420161227000101 00000000000000000000000000000000000000000000000000000000000000000000000000000000000000000000000000000000000000000N 00000000000NCONT   00    00000000000          00000000000000000000000000000000000000000000 000000000000000A000000000000000000000000000000000000000000000 000000000000000000000000000000000000000     00000000                                                                                                                        000000000000000000
F0010000009628700005000007214782600013552100000000000000000201612270002001OSCAR JOSE LIAN ROCHA                             D000000000010400000000000000000000100010010000000000000000000000F0010000009628700520161227000101 00000000000000000000000000000000000000000000000000000000000000000000000000000000000000000000000000000000000000000N 00000000000NCONT   00    00000000000          00000000000000000000000000000000000000000000 000000000000000A000000000000000000000000000000000000000000000 000000000000000000000000000000000000000     00000000                                                                                                                        000000000000000000
F0010000009628800001000007214782600011050500000000000000000201612270002001OSCAR JOSE LIAN ROCHA                             D000000001220000000000000000000000100010010000000000000000000000F0010000009628800120161227000101 00000000000000000000000000000000000000000000000000000000000000000000000000000000000000000000000000000000000000000N 00000000000NCONT   00    00000000000          00000000000000000000000000000000000000000000 000000000000000A000000000000000000000000000000000000000000000 000000000000000000000000000000000000000     00000000                                                                                                                        000000000000000000
F0010000009628800002000007214782600041450500000000000000000201612270002001OSCAR JOSE LIAN ROCHA                             C000000001000000000000000000000000100010010000000000000000000000F0010000009628800220161227000101 00000000000000000000000000000000000000000000000000000000000000000000000000000000000000000000000000000000000000000N 00000000000NCONT   00    00000000000          00000000000000000000000000000000000000000000 000000000000000A000000000000000000000000000000000000000000000 000000000000000000000000000000000000000     00000000                                                                                                                        000000000000000000
F0010000009628800003000007214782600042505000000000000000000201612270002001OSCAR JOSE LIAN ROCHA                             C000000000220000000000000000000000100010010000000000000000000000F0010000009628800320161227000101 00000000000000000000000000000000000000000000000000000000000000000000000000000000000000000000000000000000000000000N 00000000000NCONT   00    00000000000          00000000000000000000000000000000000000000000 000000000000000A000000000000000000000000000000000000000000000 000000000000000000000000000000000000000     00000000                                                                                                                        000000000000000000
F0010000009628800004000007214782600023658300000000000000000201612270002001OSCAR JOSE LIAN ROCHA                             C000000000008000000000000000000000100010010000000000000000000000F0010000009628800420161227000101 00000000000000000000000000000000000000000000000000000000000000000000000000000000000000000000000000000000000000000N 00000000000NCONT   00    00000000000          00000000000000000000000000000000000000000000 000000000000000A000000000000000000000000000000000000000000000 000000000000000000000000000000000000000     00000000                                                                                                                        000000000000000000
F0010000009628800005000007214782600013552100000000000000000201612270002001OSCAR JOSE LIAN ROCHA                             D000000000008000000000000000000000100010010000000000000000000000F0010000009628800520161227000101 00000000000000000000000000000000000000000000000000000000000000000000000000000000000000000000000000000000000000000N 00000000000NCONT   00    00000000000          00000000000000000000000000000000000000000000 000000000000000A000000000000000000000000000000000000000000000 000000000000000000000000000000000000000     00000000                                                                                                                        000000000000000000
F0010000009628900001000090007142100011050500000000000000000201612270002001TODO BELLEZA Y MAX S.A.S                          D000000005650000000000000000000000100010010000000000000000000000F0010000009628900120161227000101 00000000000000000000000000000000000000000000000000000000000000000000000000000000000000000000000000000000000000000N 00000000000NCONT   00    00000000000          00000000000000000000000000000000000000000000 000000000000000A000000000000000000000000000000000000000000000 000000000000000000000000000000000000000     00000000                                                                                                                        000000000000000000
F0010000009628900002000090007142100041450500000000000000000201612270002001TODO BELLEZA Y MAX S.A.S                          C000000005500000000000000000000000100010010000000000000000000000F0010000009628900220161227000101 00000000000000000000000000000000000000000000000000000000000000000000000000000000000000000000000000000000000000000N 00000000000NCONT   00    00000000000          00000000000000000000000000000000000000000000 000000000000000A000000000000000000000000000000000000000000000 000000000000000000000000000000000000000     00000000                                                                                                                        000000000000000000
F0010000009628900003000090007142100042505000000000000000000201612270002001TODO BELLEZA Y MAX S.A.S                          C000000000150000000000000000000000100010010000000000000000000000F0010000009628900320161227000101 00000000000000000000000000000000000000000000000000000000000000000000000000000000000000000000000000000000000000000N 00000000000NCONT   00    00000000000          00000000000000000000000000000000000000000000 000000000000000A000000000000000000000000000000000000000000000 000000000000000000000000000000000000000     00000000                                                                                                                        000000000000000000
F0010000009628900004000090007142100023658300000000000000000201612270002001TODO BELLEZA Y MAX S.A.S                          C000000000044000000000000000000000100010010000000000000000000000F0010000009628900420161227000101 00000000000000000000000000000000000000000000000000000000000000000000000000000000000000000000000000000000000000000N 00000000000NCONT   00    00000000000          00000000000000000000000000000000000000000000 000000000000000A000000000000000000000000000000000000000000000 000000000000000000000000000000000000000     00000000                                                                                                                        000000000000000000
F0010000009628900005000090007142100013552100000000000000000201612270002001TODO BELLEZA Y MAX S.A.S                          D000000000044000000000000000000000100010010000000000000000000000F0010000009628900520161227000101 00000000000000000000000000000000000000000000000000000000000000000000000000000000000000000000000000000000000000000N 00000000000NCONT   00    00000000000          00000000000000000000000000000000000000000000 000000000000000A000000000000000000000000000000000000000000000 000000000000000000000000000000000000000     00000000                                                                                                                        000000000000000000
F0010000009629000001000090007142100011050500000000000000000201612270002001TODO BELLEZA Y MAX S.A.S                          D000000002300000000000000000000000100010010000000000000000000000F0010000009629000120161227000101 00000000000000000000000000000000000000000000000000000000000000000000000000000000000000000000000000000000000000000N 00000000000NCONT   00    00000000000          00000000000000000000000000000000000000000000 000000000000000A000000000000000000000000000000000000000000000 000000000000000000000000000000000000000     00000000                                                                                                                        000000000000000000
F0010000009629000002000090007142100041450500000000000000000201612270002001TODO BELLEZA Y MAX S.A.S                          C000000002200000000000000000000000100010010000000000000000000000F0010000009629000220161227000101 00000000000000000000000000000000000000000000000000000000000000000000000000000000000000000000000000000000000000000N 00000000000NCONT   00    00000000000          00000000000000000000000000000000000000000000 000000000000000A000000000000000000000000000000000000000000000 000000000000000000000000000000000000000     00000000                                                                                                                        000000000000000000
