F0010000009122300001000000759116800011050500000000000000000201609130002001DAIRO  PEREZ ..                                   D000000001800000000000000000000000100010010000000000000000000000F0010000009122300120160913000101 00000000000000000000000000000000000000000000000000000000000000000000000000000000000000000000000000000000000000000N 00000000000NCONT   00    00000000000          00000000000000000000000000000000000000000000 000000000000000A000000000000000000000000000000000000000000000 000000000000000000000000000000000000000     00000000                                                                                                                        000000000000000000
F0010000009122300002000000759116800041450500000000000000000201609130002001DAIRO  PEREZ ..                                   C000000001500000000000000000000000100010010000000000000000000000F0010000009122300220160913000101 00000000000000000000000000000000000000000000000000000000000000000000000000000000000000000000000000000000000000000N 00000000000NCONT   00    00000000000          00000000000000000000000000000000000000000000 000000000000000A000000000000000000000000000000000000000000000 000000000000000000000000000000000000000     00000000                                                                                                                        000000000000000000
F0010000009122300003000000759116800042505000000000000000000201609130002001DAIRO  PEREZ ..                                   C000000000300000000000000000000000100010010000000000000000000000F0010000009122300320160913000101 00000000000000000000000000000000000000000000000000000000000000000000000000000000000000000000000000000000000000000N 00000000000NCONT   00    00000000000          00000000000000000000000000000000000000000000 000000000000000A000000000000000000000000000000000000000000000 000000000000000000000000000000000000000     00000000                                                                                                                        000000000000000000
F0010000009122300004000000759116800023658300000000000000000201609130002001DAIRO  PEREZ ..                                   C000000000012000000000000000000000100010010000000000000000000000F0010000009122300420160913000101 00000000000000000000000000000000000000000000000000000000000000000000000000000000000000000000000000000000000000000N 00000000000NCONT   00    00000000000          00000000000000000000000000000000000000000000 000000000000000A000000000000000000000000000000000000000000000 000000000000000000000000000000000000000     00000000                                                                                                                        000000000000000000
F0010000009122300005000000759116800013552100000000000000000201609130002001DAIRO  PEREZ ..                                   D000000000012000000000000000000000100010010000000000000000000000F0010000009122300520160913000101 00000000000000000000000000000000000000000000000000000000000000000000000000000000000000000000000000000000000000000N 00000000000NCONT   00    00000000000          00000000000000000000000000000000000000000000 000000000000000A000000000000000000000000000000000000000000000 000000000000000000000000000000000000000     00000000                                                                                                                        000000000000000000
F0010000009122500001000089080176300013050500000000000000000201609130002001SEGAR S.A.                                        D000000071123000000000000000000000100010010000000000000000000000F0010000009122500120160913000101 00000000000000000000000000000000000000000000000000000000000000000000000000000000000000000000000000000000000000000N 00000000000NCONT   00    00000000000          00000000000000000000000000000000000000000000 000000000000000A000000000000000000000000000000000000000000000 000000000000000000000000000000000000000     00000000                                                                                                                        000000000000000000
F0010000009122500002000089080176300041450500000000000000000201609130002001SEGAR S.A.                                        C000000061715500000000000000000000100010010000000000000000000000F0010000009122500220160913000101 00000000000000000000000000000000000000000000000000000000000000000000000000000000000000000000000000000000000000000N 00000000000NCONT   00    00000000000          00000000000000000000000000000000000000000000 000000000000000A000000000000000000000000000000000000000000000 000000000000000000000000000000000000000     00000000                                                                                                                        000000000000000000
F0010000009122500003000089080176300042505000000000000000000201609130002001SEGAR S.A.                                        C000000009407500000000000000000000100010010000000000000000000000F0010000009122500320160913000101 00000000000000000000000000000000000000000000000000000000000000000000000000000000000000000000000000000000000000000N 00000000000NCONT   00    00000000000          00000000000000000000000000000000000000000000 000000000000000A000000000000000000000000000000000000000000000 000000000000000000000000000000000000000     00000000                                                                                                                        000000000000000000
F0010000009122500004000089080176300023658300000000000000000201609130002001SEGAR S.A.                                        C000000000493700000000000000000000100010010000000000000000000000F0010000009122500420160913000101 00000000000000000000000000000000000000000000000000000000000000000000000000000000000000000000000000000000000000000N 00000000000NCONT   00    00000000000          00000000000000000000000000000000000000000000 000000000000000A000000000000000000000000000000000000000000000 000000000000000000000000000000000000000     00000000                                                                                                                        000000000000000000
F0010000009122500005000089080176300013552100000000000000000201609130002001SEGAR S.A.                                        D000000000493700000000000000000000100010010000000000000000000000F0010000009122500520160913000101 00000000000000000000000000000000000000000000000000000000000000000000000000000000000000000000000000000000000000000N 00000000000NCONT   00    00000000000          00000000000000000000000000000000000000000000 000000000000000A000000000000000000000000000000000000000000000 000000000000000000000000000000000000000     00000000                                                                                                                        000000000000000000
F0010000009122600001000089010260300013050500000000000000000201609130002001FEDERICO OSORIO A. S.A.                           D000000179476300000000000000000000100010010000000000000000000000F0010000009122600120160913000101 00000000000000000000000000000000000000000000000000000000000000000000000000000000000000000000000000000000000000000N 00000000000NCONT   00    00000000000          00000000000000000000000000000000000000000000 000000000000000A000000000000000000000000000000000000000000000 000000000000000000000000000000000000000     00000000                                                                                                                        000000000000000000
F0010000009122600002000089010260300041450500000000000000000201609130002001FEDERICO OSORIO A. S.A.                           C000000171130000000000000000000000100010010000000000000000000000F0010000009122600220160913000101 00000000000000000000000000000000000000000000000000000000000000000000000000000000000000000000000000000000000000000N 00000000000NCONT   00    00000000000          00000000000000000000000000000000000000000000 000000000000000A000000000000000000000000000000000000000000000 000000000000000000000000000000000000000     00000000                                                                                                                        000000000000000000
F0010000009122600003000089010260300042505000000000000000000201609130002001FEDERICO OSORIO A. S.A.                           C000000008346300000000000000000000100010010000000000000000000000F0010000009122600320160913000101 00000000000000000000000000000000000000000000000000000000000000000000000000000000000000000000000000000000000000000N 00000000000NCONT   00    00000000000          00000000000000000000000000000000000000000000 000000000000000A000000000000000000000000000000000000000000000 000000000000000000000000000000000000000     00000000                                                                                                                        000000000000000000
F0010000009122600004000089010260300023658300000000000000000201609130002001FEDERICO OSORIO A. S.A.                           C000000001369000000000000000000000100010010000000000000000000000F0010000009122600420160913000101 00000000000000000000000000000000000000000000000000000000000000000000000000000000000000000000000000000000000000000N 00000000000NCONT   00    00000000000          00000000000000000000000000000000000000000000 000000000000000A000000000000000000000000000000000000000000000 000000000000000000000000000000000000000     00000000                                                                                                                        000000000000000000
F0010000009122600005000089010260300013552100000000000000000201609130002001FEDERICO OSORIO A. S.A.                           D000000001369000000000000000000000100010010000000000000000000000F0010000009122600520160913000101 00000000000000000000000000000000000000000000000000000000000000000000000000000000000000000000000000000000000000000N 00000000000NCONT   00    00000000000          00000000000000000000000000000000000000000000 000000000000000A000000000000000000000000000000000000000000000 000000000000000000000000000000000000000     00000000                                                                                                                        000000000000000000
F0010000009122700001000089010260300013050500000000000000000201609130002001FEDERICO OSORIO A. S.A.                           D000000020441500000000000000000000100010010000000000000000000000F0010000009122700120160913000101 00000000000000000000000000000000000000000000000000000000000000000000000000000000000000000000000000000000000000000N 00000000000NCONT   00    00000000000          00000000000000000000000000000000000000000000 000000000000000A000000000000000000000000000000000000000000000 000000000000000000000000000000000000000     00000000                                                                                                                        000000000000000000
F0010000009122700002000089010260300041450500000000000000000201609130002001FEDERICO OSORIO A. S.A.                           C000000018830000000000000000000000100010010000000000000000000000F0010000009122700220160913000101 00000000000000000000000000000000000000000000000000000000000000000000000000000000000000000000000000000000000000000N 00000000000NCONT   00    00000000000          00000000000000000000000000000000000000000000 000000000000000A000000000000000000000000000000000000000000000 000000000000000000000000000000000000000     00000000                                                                                                                        000000000000000000
F0010000009122700003000089010260300042505000000000000000000201609130002001FEDERICO OSORIO A. S.A.                           C000000001611500000000000000000000100010010000000000000000000000F0010000009122700320160913000101 00000000000000000000000000000000000000000000000000000000000000000000000000000000000000000000000000000000000000000N 00000000000NCONT   00    00000000000          00000000000000000000000000000000000000000000 000000000000000A000000000000000000000000000000000000000000000 000000000000000000000000000000000000000     00000000                                                                                                                        000000000000000000
F0010000009122700004000089010260300023658300000000000000000201609130002001FEDERICO OSORIO A. S.A.                           C000000000150600000000000000000000100010010000000000000000000000F0010000009122700420160913000101 00000000000000000000000000000000000000000000000000000000000000000000000000000000000000000000000000000000000000000N 00000000000NCONT   00    00000000000          00000000000000000000000000000000000000000000 000000000000000A000000000000000000000000000000000000000000000 000000000000000000000000000000000000000     00000000                                                                                                                        000000000000000000
F0010000009122700005000089010260300013552100000000000000000201609130002001FEDERICO OSORIO A. S.A.                           D000000000150600000000000000000000100010010000000000000000000000F0010000009122700520160913000101 00000000000000000000000000000000000000000000000000000000000000000000000000000000000000000000000000000000000000000N 00000000000NCONT   00    00000000000          00000000000000000000000000000000000000000000 000000000000000A000000000000000000000000000000000000000000000 000000000000000000000000000000000000000     00000000                                                                                                                        000000000000000000
F0010000009122800001000000744496800011050500000000000000000201609130002001TOMAS SANCHEZ                                     D000000001100000000000000000000000100010010000000000000000000000F0010000009122800120160913000101 00000000000000000000000000000000000000000000000000000000000000000000000000000000000000000000000000000000000000000N 00000000000NCONT   00    00000000000          00000000000000000000000000000000000000000000 000000000000000A000000000000000000000000000000000000000000000 000000000000000000000000000000000000000     00000000                                                                                                                        000000000000000000
F0010000009122800002000000744496800041450500000000000000000201609130002001TOMAS SANCHEZ                                     C000000001000000000000000000000000100010010000000000000000000000F0010000009122800220160913000101 00000000000000000000000000000000000000000000000000000000000000000000000000000000000000000000000000000000000000000N 00000000000NCONT   00    00000000000          00000000000000000000000000000000000000000000 000000000000000A000000000000000000000000000000000000000000000 000000000000000000000000000000000000000     00000000                                                                                                                        000000000000000000
F0010000009122800003000000744496800042505000000000000000000201609130002001TOMAS SANCHEZ                                     C000000000100000000000000000000000100010010000000000000000000000F0010000009122800320160913000101 00000000000000000000000000000000000000000000000000000000000000000000000000000000000000000000000000000000000000000N 00000000000NCONT   00    00000000000          00000000000000000000000000000000000000000000 000000000000000A000000000000000000000000000000000000000000000 000000000000000000000000000000000000000     00000000                                                                                                                        000000000000000000
F0010000009122800004000000744496800023658300000000000000000201609130002001TOMAS SANCHEZ                                     C000000000008000000000000000000000100010010000000000000000000000F0010000009122800420160913000101 00000000000000000000000000000000000000000000000000000000000000000000000000000000000000000000000000000000000000000N 00000000000NCONT   00    00000000000          00000000000000000000000000000000000000000000 000000000000000A000000000000000000000000000000000000000000000 000000000000000000000000000000000000000     00000000                                                                                                                        000000000000000000
F0010000009122800005000000744496800013552100000000000000000201609130002001TOMAS SANCHEZ                                     D000000000008000000000000000000000100010010000000000000000000000F0010000009122800520160913000101 00000000000000000000000000000000000000000000000000000000000000000000000000000000000000000000000000000000000000000N 00000000000NCONT   00    00000000000          00000000000000000000000000000000000000000000 000000000000000A000000000000000000000000000000000000000000000 000000000000000000000000000000000000000     00000000                                                                                                                        000000000000000000
F0010000009122900001000003287795000011050500000000000000000201609130002001COMERCIALIZADORA KUZMAR                           D000000004700000000000000000000000100010010000000000000000000000F0010000009122900120160913000101 00000000000000000000000000000000000000000000000000000000000000000000000000000000000000000000000000000000000000000N 00000000000NCONT   00    00000000000          00000000000000000000000000000000000000000000 000000000000000A000000000000000000000000000000000000000000000 000000000000000000000000000000000000000     00000000                                                                                                                        000000000000000000
F0010000009122900002000003287795000041450500000000000000000201609130002001COMERCIALIZADORA KUZMAR                           C000000003000000000000000000000000100010010000000000000000000000F0010000009122900220160913000101 00000000000000000000000000000000000000000000000000000000000000000000000000000000000000000000000000000000000000000N 00000000000NCONT   00    00000000000          00000000000000000000000000000000000000000000 000000000000000A000000000000000000000000000000000000000000000 000000000000000000000000000000000000000     00000000                                                                                                                        000000000000000000
F0010000009122900003000003287795000042505000000000000000000201609130002001COMERCIALIZADORA KUZMAR                           C000000001700000000000000000000000100010010000000000000000000000F0010000009122900320160913000101 00000000000000000000000000000000000000000000000000000000000000000000000000000000000000000000000000000000000000000N 00000000000NCONT   00    00000000000          00000000000000000000000000000000000000000000 000000000000000A000000000000000000000000000000000000000000000 000000000000000000000000000000000000000     00000000                                                                                                                        000000000000000000
F0010000009122900004000003287795000023658300000000000000000201609130002001COMERCIALIZADORA KUZMAR                           C000000000024000000000000000000000100010010000000000000000000000F0010000009122900420160913000101 00000000000000000000000000000000000000000000000000000000000000000000000000000000000000000000000000000000000000000N 00000000000NCONT   00    00000000000          00000000000000000000000000000000000000000000 000000000000000A000000000000000000000000000000000000000000000 000000000000000000000000000000000000000     00000000                                                                                                                        000000000000000000
F0010000009122900005000003287795000013552100000000000000000201609130002001COMERCIALIZADORA KUZMAR                           D000000000024000000000000000000000100010010000000000000000000000F0010000009122900520160913000101 00000000000000000000000000000000000000000000000000000000000000000000000000000000000000000000000000000000000000000N 00000000000NCONT   00    00000000000          00000000000000000000000000000000000000000000 000000000000000A000000000000000000000000000000000000000000000 000000000000000000000000000000000000000     00000000                                                                                                                        000000000000000000
F0010000009123000001000080202435000011050500000000000000000201609130002001DISTRIBUIDORA MACEA SAS                           D000000004800000000000000000000000100010010000000000000000000000F0010000009123000120160913000101 00000000000000000000000000000000000000000000000000000000000000000000000000000000000000000000000000000000000000000N 00000000000NCONT   00    00000000000          00000000000000000000000000000000000000000000 000000000000000A000000000000000000000000000000000000000000000 000000000000000000000000000000000000000     00000000                                                                                                                        000000000000000000
F0010000009123000002000080202435000041450500000000000000000201609130002001DISTRIBUIDORA MACEA SAS                           C000000004400000000000000000000000100010010000000000000000000000F0010000009123000220160913000101 00000000000000000000000000000000000000000000000000000000000000000000000000000000000000000000000000000000000000000N 00000000000NCONT   00    00000000000          00000000000000000000000000000000000000000000 000000000000000A000000000000000000000000000000000000000000000 000000000000000000000000000000000000000     00000000                                                                                                                        000000000000000000
F0010000009123000003000080202435000042505000000000000000000201609130002001DISTRIBUIDORA MACEA SAS                           C000000000400000000000000000000000100010010000000000000000000000F0010000009123000320160913000101 00000000000000000000000000000000000000000000000000000000000000000000000000000000000000000000000000000000000000000N 00000000000NCONT   00    00000000000          00000000000000000000000000000000000000000000 000000000000000A000000000000000000000000000000000000000000000 000000000000000000000000000000000000000     00000000                                                                                                                        000000000000000000
F0010000009123000004000080202435000023658300000000000000000201609130002001DISTRIBUIDORA MACEA SAS                           C000000000035200000000000000000000100010010000000000000000000000F0010000009123000420160913000101 00000000000000000000000000000000000000000000000000000000000000000000000000000000000000000000000000000000000000000N 00000000000NCONT   00    00000000000          00000000000000000000000000000000000000000000 000000000000000A000000000000000000000000000000000000000000000 000000000000000000000000000000000000000     00000000                                                                                                                        000000000000000000
F0010000009123000005000080202435000013552100000000000000000201609130002001DISTRIBUIDORA MACEA SAS                           D000000000035200000000000000000000100010010000000000000000000000F0010000009123000520160913000101 00000000000000000000000000000000000000000000000000000000000000000000000000000000000000000000000000000000000000000N 00000000000NCONT   00    00000000000          00000000000000000000000000000000000000000000 000000000000000A000000000000000000000000000000000000000000000 000000000000000000000000000000000000000     00000000                                                                                                                        000000000000000000
F0010000009123100001000080202435000011050500000000000000000201609130002001DISTRIBUIDORA MACEA SAS                           D000000001200000000000000000000000100010010000000000000000000000F0010000009123100120160913000101 00000000000000000000000000000000000000000000000000000000000000000000000000000000000000000000000000000000000000000N 00000000000NCONT   00    00000000000          00000000000000000000000000000000000000000000 000000000000000A000000000000000000000000000000000000000000000 000000000000000000000000000000000000000     00000000                                                                                                                        000000000000000000
F0010000009123100002000080202435000041450500000000000000000201609130002001DISTRIBUIDORA MACEA SAS                           C000000001100000000000000000000000100010010000000000000000000000F0010000009123100220160913000101 00000000000000000000000000000000000000000000000000000000000000000000000000000000000000000000000000000000000000000N 00000000000NCONT   00    00000000000          00000000000000000000000000000000000000000000 000000000000000A000000000000000000000000000000000000000000000 000000000000000000000000000000000000000     00000000                                                                                                                        000000000000000000
F0010000009123100003000080202435000042505000000000000000000201609130002001DISTRIBUIDORA MACEA SAS                           C000000000100000000000000000000000100010010000000000000000000000F0010000009123100320160913000101 00000000000000000000000000000000000000000000000000000000000000000000000000000000000000000000000000000000000000000N 00000000000NCONT   00    00000000000          00000000000000000000000000000000000000000000 000000000000000A000000000000000000000000000000000000000000000 000000000000000000000000000000000000000     00000000                                                                                                                        000000000000000000
F0010000009123100004000080202435000023658300000000000000000201609130002001DISTRIBUIDORA MACEA SAS                           C000000000008800000000000000000000100010010000000000000000000000F0010000009123100420160913000101 00000000000000000000000000000000000000000000000000000000000000000000000000000000000000000000000000000000000000000N 00000000000NCONT   00    00000000000          00000000000000000000000000000000000000000000 000000000000000A000000000000000000000000000000000000000000000 000000000000000000000000000000000000000     00000000                                                                                                                        000000000000000000
F0010000009123100005000080202435000013552100000000000000000201609130002001DISTRIBUIDORA MACEA SAS                           D000000000008800000000000000000000100010010000000000000000000000F0010000009123100520160913000101 00000000000000000000000000000000000000000000000000000000000000000000000000000000000000000000000000000000000000000N 00000000000NCONT   00    00000000000          00000000000000000000000000000000000000000000 000000000000000A000000000000000000000000000000000000000000000 000000000000000000000000000000000000000     00000000                                                                                                                        000000000000000000
F0010000009123200001000080202435000011050500000000000000000201609130002001DISTRIBUIDORA MACEA SAS                           D000000007300000000000000000000000100010010000000000000000000000F0010000009123200120160913000101 00000000000000000000000000000000000000000000000000000000000000000000000000000000000000000000000000000000000000000N 00000000000NCONT   00    00000000000          00000000000000000000000000000000000000000000 000000000000000A000000000000000000000000000000000000000000000 000000000000000000000000000000000000000     00000000                                                                                                                        000000000000000000
F0010000009123200002000080202435000041450500000000000000000201609130002001DISTRIBUIDORA MACEA SAS                           C000000006600000000000000000000000100010010000000000000000000000F0010000009123200220160913000101 00000000000000000000000000000000000000000000000000000000000000000000000000000000000000000000000000000000000000000N 00000000000NCONT   00    00000000000          00000000000000000000000000000000000000000000 000000000000000A000000000000000000000000000000000000000000000 000000000000000000000000000000000000000     00000000                                                                                                                        000000000000000000
F0010000009123200003000080202435000042505000000000000000000201609130002001DISTRIBUIDORA MACEA SAS                           C000000000700000000000000000000000100010010000000000000000000000F0010000009123200320160913000101 00000000000000000000000000000000000000000000000000000000000000000000000000000000000000000000000000000000000000000N 00000000000NCONT   00    00000000000          00000000000000000000000000000000000000000000 000000000000000A000000000000000000000000000000000000000000000 000000000000000000000000000000000000000     00000000                                                                                                                        000000000000000000
F0010000009123200004000080202435000023658300000000000000000201609130002001DISTRIBUIDORA MACEA SAS                           C000000000052800000000000000000000100010010000000000000000000000F0010000009123200420160913000101 00000000000000000000000000000000000000000000000000000000000000000000000000000000000000000000000000000000000000000N 00000000000NCONT   00    00000000000          00000000000000000000000000000000000000000000 000000000000000A000000000000000000000000000000000000000000000 000000000000000000000000000000000000000     00000000                                                                                                                        000000000000000000
F0010000009123200005000080202435000013552100000000000000000201609130002001DISTRIBUIDORA MACEA SAS                           D000000000052800000000000000000000100010010000000000000000000000F0010000009123200520160913000101 00000000000000000000000000000000000000000000000000000000000000000000000000000000000000000000000000000000000000000N 00000000000NCONT   00    00000000000          00000000000000000000000000000000000000000000 000000000000000A000000000000000000000000000000000000000000000 000000000000000000000000000000000000000     00000000                                                                                                                        000000000000000000
F0010000009123300001000080202435000011050500000000000000000201609130002001DISTRIBUIDORA MACEA SAS                           D000000002700000000000000000000000100010010000000000000000000000F0010000009123300120160913000101 00000000000000000000000000000000000000000000000000000000000000000000000000000000000000000000000000000000000000000N 00000000000NCONT   00    00000000000          00000000000000000000000000000000000000000000 000000000000000A000000000000000000000000000000000000000000000 000000000000000000000000000000000000000     00000000                                                                                                                        000000000000000000
F0010000009123300002000080202435000041450500000000000000000201609130002001DISTRIBUIDORA MACEA SAS                           C000000002200000000000000000000000100010010000000000000000000000F0010000009123300220160913000101 00000000000000000000000000000000000000000000000000000000000000000000000000000000000000000000000000000000000000000N 00000000000NCONT   00    00000000000          00000000000000000000000000000000000000000000 000000000000000A000000000000000000000000000000000000000000000 000000000000000000000000000000000000000     00000000                                                                                                                        000000000000000000
F0010000009123300003000080202435000042505000000000000000000201609130002001DISTRIBUIDORA MACEA SAS                           C000000000500000000000000000000000100010010000000000000000000000F0010000009123300320160913000101 00000000000000000000000000000000000000000000000000000000000000000000000000000000000000000000000000000000000000000N 00000000000NCONT   00    00000000000          00000000000000000000000000000000000000000000 000000000000000A000000000000000000000000000000000000000000000 000000000000000000000000000000000000000     00000000                                                                                                                        000000000000000000
F0010000009123300004000080202435000023658300000000000000000201609130002001DISTRIBUIDORA MACEA SAS                           C000000000017600000000000000000000100010010000000000000000000000F0010000009123300420160913000101 00000000000000000000000000000000000000000000000000000000000000000000000000000000000000000000000000000000000000000N 00000000000NCONT   00    00000000000          00000000000000000000000000000000000000000000 000000000000000A000000000000000000000000000000000000000000000 000000000000000000000000000000000000000     00000000                                                                                                                        000000000000000000
F0010000009123300005000080202435000013552100000000000000000201609130002001DISTRIBUIDORA MACEA SAS                           D000000000017600000000000000000000100010010000000000000000000000F0010000009123300520160913000101 00000000000000000000000000000000000000000000000000000000000000000000000000000000000000000000000000000000000000000N 00000000000NCONT   00    00000000000          00000000000000000000000000000000000000000000 000000000000000A000000000000000000000000000000000000000000000 000000000000000000000000000000000000000     00000000                                                                                                                        000000000000000000
F0010000009123400001000002245670100011050500000000000000000201609130002001YOLANDA  TOBON                                    D000000010100000000000000000000000100010010000000000000000000000F0010000009123400120160913000101 00000000000000000000000000000000000000000000000000000000000000000000000000000000000000000000000000000000000000000N 00000000000NCONT   00    00000000000          00000000000000000000000000000000000000000000 000000000000000A000000000000000000000000000000000000000000000 000000000000000000000000000000000000000     00000000                                                                                                                        000000000000000000
F0010000009123400002000002245670100041450500000000000000000201609130002001YOLANDA  TOBON                                    C000000007500000000000000000000000100010010000000000000000000000F0010000009123400220160913000101 00000000000000000000000000000000000000000000000000000000000000000000000000000000000000000000000000000000000000000N 00000000000NCONT   00    00000000000          00000000000000000000000000000000000000000000 000000000000000A000000000000000000000000000000000000000000000 000000000000000000000000000000000000000     00000000                                                                                                                        000000000000000000
F0010000009123400003000002245670100042505000000000000000000201609130002001YOLANDA  TOBON                                    C000000002600000000000000000000000100010010000000000000000000000F0010000009123400320160913000101 00000000000000000000000000000000000000000000000000000000000000000000000000000000000000000000000000000000000000000N 00000000000NCONT   00    00000000000          00000000000000000000000000000000000000000000 000000000000000A000000000000000000000000000000000000000000000 000000000000000000000000000000000000000     00000000                                                                                                                        000000000000000000
F0010000009123400004000002245670100023658300000000000000000201609130002001YOLANDA  TOBON                                    C000000000060000000000000000000000100010010000000000000000000000F0010000009123400420160913000101 00000000000000000000000000000000000000000000000000000000000000000000000000000000000000000000000000000000000000000N 00000000000NCONT   00    00000000000          00000000000000000000000000000000000000000000 000000000000000A000000000000000000000000000000000000000000000 000000000000000000000000000000000000000     00000000                                                                                                                        000000000000000000
F0010000009123400005000002245670100013552100000000000000000201609130002001YOLANDA  TOBON                                    D000000000060000000000000000000000100010010000000000000000000000F0010000009123400520160913000101 00000000000000000000000000000000000000000000000000000000000000000000000000000000000000000000000000000000000000000N 00000000000NCONT   00    00000000000          00000000000000000000000000000000000000000000 000000000000000A000000000000000000000000000000000000000000000 000000000000000000000000000000000000000     00000000                                                                                                                        000000000000000000
F0010000009123500001000090067091400011050500000000000000000201609130002001COMERCIALIZADORA ESCOBAR ORTIZ                    D000000004000000000000000000000000100010010000000000000000000000F0010000009123500120160913000101 00000000000000000000000000000000000000000000000000000000000000000000000000000000000000000000000000000000000000000N 00000000000NCONT   00    00000000000          00000000000000000000000000000000000000000000 000000000000000A000000000000000000000000000000000000000000000 000000000000000000000000000000000000000     00000000                                                                                                                        000000000000000000
F0010000009123500002000090067091400041450500000000000000000201609130002001COMERCIALIZADORA ESCOBAR ORTIZ                    C000000003600000000000000000000000100010010000000000000000000000F0010000009123500220160913000101 00000000000000000000000000000000000000000000000000000000000000000000000000000000000000000000000000000000000000000N 00000000000NCONT   00    00000000000          00000000000000000000000000000000000000000000 000000000000000A000000000000000000000000000000000000000000000 000000000000000000000000000000000000000     00000000                                                                                                                        000000000000000000
F0010000009123500003000090067091400042505000000000000000000201609130002001COMERCIALIZADORA ESCOBAR ORTIZ                    C000000000400000000000000000000000100010010000000000000000000000F0010000009123500320160913000101 00000000000000000000000000000000000000000000000000000000000000000000000000000000000000000000000000000000000000000N 00000000000NCONT   00    00000000000          00000000000000000000000000000000000000000000 000000000000000A000000000000000000000000000000000000000000000 000000000000000000000000000000000000000     00000000                                                                                                                        000000000000000000
F0010000009123500004000090067091400023658300000000000000000201609130002001COMERCIALIZADORA ESCOBAR ORTIZ                    C000000000028800000000000000000000100010010000000000000000000000F0010000009123500420160913000101 00000000000000000000000000000000000000000000000000000000000000000000000000000000000000000000000000000000000000000N 00000000000NCONT   00    00000000000          00000000000000000000000000000000000000000000 000000000000000A000000000000000000000000000000000000000000000 000000000000000000000000000000000000000     00000000                                                                                                                        000000000000000000
F0010000009123500005000090067091400013552100000000000000000201609130002001COMERCIALIZADORA ESCOBAR ORTIZ                    D000000000028800000000000000000000100010010000000000000000000000F0010000009123500520160913000101 00000000000000000000000000000000000000000000000000000000000000000000000000000000000000000000000000000000000000000N 00000000000NCONT   00    00000000000          00000000000000000000000000000000000000000000 000000000000000A000000000000000000000000000000000000000000000 000000000000000000000000000000000000000     00000000                                                                                                                        000000000000000000
F0010000009123600001000090067091400011050500000000000000000201609130002001COMERCIALIZADORA ESCOBAR ORTIZ                    D000000002200000000000000000000000100010010000000000000000000000F0010000009123600120160913000101 00000000000000000000000000000000000000000000000000000000000000000000000000000000000000000000000000000000000000000N 00000000000NCONT   00    00000000000          00000000000000000000000000000000000000000000 000000000000000A000000000000000000000000000000000000000000000 000000000000000000000000000000000000000     00000000                                                                                                                        000000000000000000
F0010000009123600002000090067091400041450500000000000000000201609130002001COMERCIALIZADORA ESCOBAR ORTIZ                    C000000001800000000000000000000000100010010000000000000000000000F0010000009123600220160913000101 00000000000000000000000000000000000000000000000000000000000000000000000000000000000000000000000000000000000000000N 00000000000NCONT   00    00000000000          00000000000000000000000000000000000000000000 000000000000000A000000000000000000000000000000000000000000000 000000000000000000000000000000000000000     00000000                                                                                                                        000000000000000000
F0010000009123600003000090067091400042505000000000000000000201609130002001COMERCIALIZADORA ESCOBAR ORTIZ                    C000000000400000000000000000000000100010010000000000000000000000F0010000009123600320160913000101 00000000000000000000000000000000000000000000000000000000000000000000000000000000000000000000000000000000000000000N 00000000000NCONT   00    00000000000          00000000000000000000000000000000000000000000 000000000000000A000000000000000000000000000000000000000000000 000000000000000000000000000000000000000     00000000                                                                                                                        000000000000000000
F0010000009123600004000090067091400023658300000000000000000201609130002001COMERCIALIZADORA ESCOBAR ORTIZ                    C000000000014400000000000000000000100010010000000000000000000000F0010000009123600420160913000101 00000000000000000000000000000000000000000000000000000000000000000000000000000000000000000000000000000000000000000N 00000000000NCONT   00    00000000000          00000000000000000000000000000000000000000000 000000000000000A000000000000000000000000000000000000000000000 000000000000000000000000000000000000000     00000000                                                                                                                        000000000000000000
F0010000009123600005000090067091400013552100000000000000000201609130002001COMERCIALIZADORA ESCOBAR ORTIZ                    D000000000014400000000000000000000100010010000000000000000000000F0010000009123600520160913000101 00000000000000000000000000000000000000000000000000000000000000000000000000000000000000000000000000000000000000000N 00000000000NCONT   00    00000000000          00000000000000000000000000000000000000000000 000000000000000A000000000000000000000000000000000000000000000 000000000000000000000000000000000000000     00000000                                                                                                                        000000000000000000
F0010000009123700001000090050144800011050500000000000000000201609130002001PLASTICOS JR ASOCIADOS SAS                        D000000001100000000000000000000000100010010000000000000000000000F0010000009123700120160913000101 00000000000000000000000000000000000000000000000000000000000000000000000000000000000000000000000000000000000000000N 00000000000NCONT   00    00000000000          00000000000000000000000000000000000000000000 000000000000000A000000000000000000000000000000000000000000000 000000000000000000000000000000000000000     00000000                                                                                                                        000000000000000000
F0010000009123700002000090050144800041450500000000000000000201609130002001PLASTICOS JR ASOCIADOS SAS                        C000000000950000000000000000000000100010010000000000000000000000F0010000009123700220160913000101 00000000000000000000000000000000000000000000000000000000000000000000000000000000000000000000000000000000000000000N 00000000000NCONT   00    00000000000          00000000000000000000000000000000000000000000 000000000000000A000000000000000000000000000000000000000000000 000000000000000000000000000000000000000     00000000                                                                                                                        000000000000000000
F0010000009123700003000090050144800042505000000000000000000201609130002001PLASTICOS JR ASOCIADOS SAS                        C000000000150000000000000000000000100010010000000000000000000000F0010000009123700320160913000101 00000000000000000000000000000000000000000000000000000000000000000000000000000000000000000000000000000000000000000N 00000000000NCONT   00    00000000000          00000000000000000000000000000000000000000000 000000000000000A000000000000000000000000000000000000000000000 000000000000000000000000000000000000000     00000000                                                                                                                        000000000000000000
F0010000009123700004000090050144800023658300000000000000000201609130002001PLASTICOS JR ASOCIADOS SAS                        C000000000007600000000000000000000100010010000000000000000000000F0010000009123700420160913000101 00000000000000000000000000000000000000000000000000000000000000000000000000000000000000000000000000000000000000000N 00000000000NCONT   00    00000000000          00000000000000000000000000000000000000000000 000000000000000A000000000000000000000000000000000000000000000 000000000000000000000000000000000000000     00000000                                                                                                                        000000000000000000
F0010000009123700005000090050144800013552100000000000000000201609130002001PLASTICOS JR ASOCIADOS SAS                        D000000000007600000000000000000000100010010000000000000000000000F0010000009123700520160913000101 00000000000000000000000000000000000000000000000000000000000000000000000000000000000000000000000000000000000000000N 00000000000NCONT   00    00000000000          00000000000000000000000000000000000000000000 000000000000000A000000000000000000000000000000000000000000000 000000000000000000000000000000000000000     00000000                                                                                                                        000000000000000000
F0010000009123800001000090050144800011050500000000000000000201609130002001PLASTICOS JR ASOCIADOS SAS                        D000000006900000000000000000000000100010010000000000000000000000F0010000009123800120160913000101 00000000000000000000000000000000000000000000000000000000000000000000000000000000000000000000000000000000000000000N 00000000000NCONT   00    00000000000          00000000000000000000000000000000000000000000 000000000000000A000000000000000000000000000000000000000000000 000000000000000000000000000000000000000     00000000                                                                                                                        000000000000000000
F0010000009123800002000090050144800041450500000000000000000201609130002001PLASTICOS JR ASOCIADOS SAS                        C000000006000000000000000000000000100010010000000000000000000000F0010000009123800220160913000101 00000000000000000000000000000000000000000000000000000000000000000000000000000000000000000000000000000000000000000N 00000000000NCONT   00    00000000000          00000000000000000000000000000000000000000000 000000000000000A000000000000000000000000000000000000000000000 000000000000000000000000000000000000000     00000000                                                                                                                        000000000000000000
F0010000009123800003000090050144800042505000000000000000000201609130002001PLASTICOS JR ASOCIADOS SAS                        C000000000900000000000000000000000100010010000000000000000000000F0010000009123800320160913000101 00000000000000000000000000000000000000000000000000000000000000000000000000000000000000000000000000000000000000000N 00000000000NCONT   00    00000000000          00000000000000000000000000000000000000000000 000000000000000A000000000000000000000000000000000000000000000 000000000000000000000000000000000000000     00000000                                                                                                                        000000000000000000
F0010000009123800004000090050144800023658300000000000000000201609130002001PLASTICOS JR ASOCIADOS SAS                        C000000000048000000000000000000000100010010000000000000000000000F0010000009123800420160913000101 00000000000000000000000000000000000000000000000000000000000000000000000000000000000000000000000000000000000000000N 00000000000NCONT   00    00000000000          00000000000000000000000000000000000000000000 000000000000000A000000000000000000000000000000000000000000000 000000000000000000000000000000000000000     00000000                                                                                                                        000000000000000000
F0010000009123800005000090050144800013552100000000000000000201609130002001PLASTICOS JR ASOCIADOS SAS                        D000000000048000000000000000000000100010010000000000000000000000F0010000009123800520160913000101 00000000000000000000000000000000000000000000000000000000000000000000000000000000000000000000000000000000000000000N 00000000000NCONT   00    00000000000          00000000000000000000000000000000000000000000 000000000000000A000000000000000000000000000000000000000000000 000000000000000000000000000000000000000     00000000                                                                                                                        000000000000000000
F0010000009123900001000090050144800011050500000000000000000201609130002001PLASTICOS JR ASOCIADOS SAS                        D000000001200000000000000000000000100010010000000000000000000000F0010000009123900120160913000101 00000000000000000000000000000000000000000000000000000000000000000000000000000000000000000000000000000000000000000N 00000000000NCONT   00    00000000000          00000000000000000000000000000000000000000000 000000000000000A000000000000000000000000000000000000000000000 000000000000000000000000000000000000000     00000000                                                                                                                        000000000000000000
F0010000009123900002000090050144800041450500000000000000000201609130002001PLASTICOS JR ASOCIADOS SAS                        C000000000950000000000000000000000100010010000000000000000000000F0010000009123900220160913000101 00000000000000000000000000000000000000000000000000000000000000000000000000000000000000000000000000000000000000000N 00000000000NCONT   00    00000000000          00000000000000000000000000000000000000000000 000000000000000A000000000000000000000000000000000000000000000 000000000000000000000000000000000000000     00000000                                                                                                                        000000000000000000
F0010000009123900003000090050144800042505000000000000000000201609130002001PLASTICOS JR ASOCIADOS SAS                        C000000000250000000000000000000000100010010000000000000000000000F0010000009123900320160913000101 00000000000000000000000000000000000000000000000000000000000000000000000000000000000000000000000000000000000000000N 00000000000NCONT   00    00000000000          00000000000000000000000000000000000000000000 000000000000000A000000000000000000000000000000000000000000000 000000000000000000000000000000000000000     00000000                                                                                                                        000000000000000000
F0010000009123900004000090050144800023658300000000000000000201609130002001PLASTICOS JR ASOCIADOS SAS                        C000000000007600000000000000000000100010010000000000000000000000F0010000009123900420160913000101 00000000000000000000000000000000000000000000000000000000000000000000000000000000000000000000000000000000000000000N 00000000000NCONT   00    00000000000          00000000000000000000000000000000000000000000 000000000000000A000000000000000000000000000000000000000000000 000000000000000000000000000000000000000     00000000                                                                                                                        000000000000000000
F0010000009123900005000090050144800013552100000000000000000201609130002001PLASTICOS JR ASOCIADOS SAS                        D000000000007600000000000000000000100010010000000000000000000000F0010000009123900520160913000101 00000000000000000000000000000000000000000000000000000000000000000000000000000000000000000000000000000000000000000N 00000000000NCONT   00    00000000000          00000000000000000000000000000000000000000000 000000000000000A000000000000000000000000000000000000000000000 000000000000000000000000000000000000000     00000000                                                                                                                        000000000000000000
F0010000009124000001000090013324200011050500000000000000000201609130002001PLASTICOHEN E.U                                   D000000001250000000000000000000000100010010000000000000000000000F0010000009124000120160913000101 00000000000000000000000000000000000000000000000000000000000000000000000000000000000000000000000000000000000000000N 00000000000NCONT   00    00000000000          00000000000000000000000000000000000000000000 000000000000000A000000000000000000000000000000000000000000000 000000000000000000000000000000000000000     00000000                                                                                                                        000000000000000000
F0010000009124000002000090013324200041450500000000000000000201609130002001PLASTICOHEN E.U                                   C000000000950000000000000000000000100010010000000000000000000000F0010000009124000220160913000101 00000000000000000000000000000000000000000000000000000000000000000000000000000000000000000000000000000000000000000N 00000000000NCONT   00    00000000000          00000000000000000000000000000000000000000000 000000000000000A000000000000000000000000000000000000000000000 000000000000000000000000000000000000000     00000000                                                                                                                        000000000000000000
F0010000009124000003000090013324200042505000000000000000000201609130002001PLASTICOHEN E.U                                   C000000000300000000000000000000000100010010000000000000000000000F0010000009124000320160913000101 00000000000000000000000000000000000000000000000000000000000000000000000000000000000000000000000000000000000000000N 00000000000NCONT   00    00000000000          00000000000000000000000000000000000000000000 000000000000000A000000000000000000000000000000000000000000000 000000000000000000000000000000000000000     00000000                                                                                                                        000000000000000000
F0010000009124000004000090013324200023658300000000000000000201609130002001PLASTICOHEN E.U                                   C000000000007600000000000000000000100010010000000000000000000000F0010000009124000420160913000101 00000000000000000000000000000000000000000000000000000000000000000000000000000000000000000000000000000000000000000N 00000000000NCONT   00    00000000000          00000000000000000000000000000000000000000000 000000000000000A000000000000000000000000000000000000000000000 000000000000000000000000000000000000000     00000000                                                                                                                        000000000000000000
F0010000009124000005000090013324200013552100000000000000000201609130002001PLASTICOHEN E.U                                   D000000000007600000000000000000000100010010000000000000000000000F0010000009124000520160913000101 00000000000000000000000000000000000000000000000000000000000000000000000000000000000000000000000000000000000000000N 00000000000NCONT   00    00000000000          00000000000000000000000000000000000000000000 000000000000000A000000000000000000000000000000000000000000000 000000000000000000000000000000000000000     00000000                                                                                                                        000000000000000000
F0010000009124100001000005204371400011050500000000000000000201609130002001MARITZA IMPORTS                                   D000000001300000000000000000000000100010010000000000000000000000F0010000009124100120160913000101 00000000000000000000000000000000000000000000000000000000000000000000000000000000000000000000000000000000000000000N 00000000000NCONT   00    00000000000          00000000000000000000000000000000000000000000 000000000000000A000000000000000000000000000000000000000000000 000000000000000000000000000000000000000     00000000                                                                                                                        000000000000000000
F0010000009124100002000005204371400041450500000000000000000201609130002001MARITZA IMPORTS                                   C000000000800000000000000000000000100010010000000000000000000000F0010000009124100220160913000101 00000000000000000000000000000000000000000000000000000000000000000000000000000000000000000000000000000000000000000N 00000000000NCONT   00    00000000000          00000000000000000000000000000000000000000000 000000000000000A000000000000000000000000000000000000000000000 000000000000000000000000000000000000000     00000000                                                                                                                        000000000000000000
F0010000009124100003000005204371400042505000000000000000000201609130002001MARITZA IMPORTS                                   C000000000500000000000000000000000100010010000000000000000000000F0010000009124100320160913000101 00000000000000000000000000000000000000000000000000000000000000000000000000000000000000000000000000000000000000000N 00000000000NCONT   00    00000000000          00000000000000000000000000000000000000000000 000000000000000A000000000000000000000000000000000000000000000 000000000000000000000000000000000000000     00000000                                                                                                                        000000000000000000
F0010000009124100004000005204371400023658300000000000000000201609130002001MARITZA IMPORTS                                   C000000000006400000000000000000000100010010000000000000000000000F0010000009124100420160913000101 00000000000000000000000000000000000000000000000000000000000000000000000000000000000000000000000000000000000000000N 00000000000NCONT   00    00000000000          00000000000000000000000000000000000000000000 000000000000000A000000000000000000000000000000000000000000000 000000000000000000000000000000000000000     00000000                                                                                                                        000000000000000000
F0010000009124100005000005204371400013552100000000000000000201609130002001MARITZA IMPORTS                                   D000000000006400000000000000000000100010010000000000000000000000F0010000009124100520160913000101 00000000000000000000000000000000000000000000000000000000000000000000000000000000000000000000000000000000000000000N 00000000000NCONT   00    00000000000          00000000000000000000000000000000000000000000 000000000000000A000000000000000000000000000000000000000000000 000000000000000000000000000000000000000     00000000                                                                                                                        000000000000000000
F0010000009124200001000090013324200011050500000000000000000201609130002001PLASTICOHEN E.U                                   D000000014400000000000000000000000100010010000000000000000000000F0010000009124200120160913000101 00000000000000000000000000000000000000000000000000000000000000000000000000000000000000000000000000000000000000000N 00000000000NCONT   00    00000000000          00000000000000000000000000000000000000000000 000000000000000A000000000000000000000000000000000000000000000 000000000000000000000000000000000000000     00000000                                                                                                                        000000000000000000
F0010000009124200002000090013324200041450500000000000000000201609130002001PLASTICOHEN E.U                                   C000000011400000000000000000000000100010010000000000000000000000F0010000009124200220160913000101 00000000000000000000000000000000000000000000000000000000000000000000000000000000000000000000000000000000000000000N 00000000000NCONT   00    00000000000          00000000000000000000000000000000000000000000 000000000000000A000000000000000000000000000000000000000000000 000000000000000000000000000000000000000     00000000                                                                                                                        000000000000000000
F0010000009124200003000090013324200042505000000000000000000201609130002001PLASTICOHEN E.U                                   C000000003000000000000000000000000100010010000000000000000000000F0010000009124200320160913000101 00000000000000000000000000000000000000000000000000000000000000000000000000000000000000000000000000000000000000000N 00000000000NCONT   00    00000000000          00000000000000000000000000000000000000000000 000000000000000A000000000000000000000000000000000000000000000 000000000000000000000000000000000000000     00000000                                                                                                                        000000000000000000
F0010000009124200004000090013324200023658300000000000000000201609130002001PLASTICOHEN E.U                                   C000000000091200000000000000000000100010010000000000000000000000F0010000009124200420160913000101 00000000000000000000000000000000000000000000000000000000000000000000000000000000000000000000000000000000000000000N 00000000000NCONT   00    00000000000          00000000000000000000000000000000000000000000 000000000000000A000000000000000000000000000000000000000000000 000000000000000000000000000000000000000     00000000                                                                                                                        000000000000000000
F0010000009124200005000090013324200013552100000000000000000201609130002001PLASTICOHEN E.U                                   D000000000091200000000000000000000100010010000000000000000000000F0010000009124200520160913000101 00000000000000000000000000000000000000000000000000000000000000000000000000000000000000000000000000000000000000000N 00000000000NCONT   00    00000000000          00000000000000000000000000000000000000000000 000000000000000A000000000000000000000000000000000000000000000 000000000000000000000000000000000000000     00000000                                                                                                                        000000000000000000
F0010000009124300001000000431178400011050500000000000000000201609130002001EFRAIN ALVAREZ                                    D000000000510000000000000000000000100010010000000000000000000000F0010000009124300120160913000101 00000000000000000000000000000000000000000000000000000000000000000000000000000000000000000000000000000000000000000N 00000000000NCONT   00    00000000000          00000000000000000000000000000000000000000000 000000000000000A000000000000000000000000000000000000000000000 000000000000000000000000000000000000000     00000000                                                                                                                        000000000000000000
F0010000009124300002000000431178400041450500000000000000000201609130002001EFRAIN ALVAREZ                                    C000000000410000000000000000000000100010010000000000000000000000F0010000009124300220160913000101 00000000000000000000000000000000000000000000000000000000000000000000000000000000000000000000000000000000000000000N 00000000000NCONT   00    00000000000          00000000000000000000000000000000000000000000 000000000000000A000000000000000000000000000000000000000000000 000000000000000000000000000000000000000     00000000                                                                                                                        000000000000000000
F0010000009124300003000000431178400042505000000000000000000201609130002001EFRAIN ALVAREZ                                    C000000000100000000000000000000000100010010000000000000000000000F0010000009124300320160913000101 00000000000000000000000000000000000000000000000000000000000000000000000000000000000000000000000000000000000000000N 00000000000NCONT   00    00000000000          00000000000000000000000000000000000000000000 000000000000000A000000000000000000000000000000000000000000000 000000000000000000000000000000000000000     00000000                                                                                                                        000000000000000000
F0010000009124300004000000431178400023658300000000000000000201609130002001EFRAIN ALVAREZ                                    C000000000003300000000000000000000100010010000000000000000000000F0010000009124300420160913000101 00000000000000000000000000000000000000000000000000000000000000000000000000000000000000000000000000000000000000000N 00000000000NCONT   00    00000000000          00000000000000000000000000000000000000000000 000000000000000A000000000000000000000000000000000000000000000 000000000000000000000000000000000000000     00000000                                                                                                                        000000000000000000
F0010000009124300005000000431178400013552100000000000000000201609130002001EFRAIN ALVAREZ                                    D000000000003300000000000000000000100010010000000000000000000000F0010000009124300520160913000101 00000000000000000000000000000000000000000000000000000000000000000000000000000000000000000000000000000000000000000N 00000000000NCONT   00    00000000000          00000000000000000000000000000000000000000000 000000000000000A000000000000000000000000000000000000000000000 000000000000000000000000000000000000000     00000000                                                                                                                        000000000000000000
F0010000009124400001000000431178400011050500000000000000000201609130002001EFRAIN ALVAREZ                                    D000000001320000000000000000000000100010010000000000000000000000F0010000009124400120160913000101 00000000000000000000000000000000000000000000000000000000000000000000000000000000000000000000000000000000000000000N 00000000000NCONT   00    00000000000          00000000000000000000000000000000000000000000 000000000000000A000000000000000000000000000000000000000000000 000000000000000000000000000000000000000     00000000                                                                                                                        000000000000000000
F0010000009124400002000000431178400041450500000000000000000201609130002001EFRAIN ALVAREZ                                    C000000001270000000000000000000000100010010000000000000000000000F0010000009124400220160913000101 00000000000000000000000000000000000000000000000000000000000000000000000000000000000000000000000000000000000000000N 00000000000NCONT   00    00000000000          00000000000000000000000000000000000000000000 000000000000000A000000000000000000000000000000000000000000000 000000000000000000000000000000000000000     00000000                                                                                                                        000000000000000000
F0010000009124400003000000431178400042505000000000000000000201609130002001EFRAIN ALVAREZ                                    C000000000050000000000000000000000100010010000000000000000000000F0010000009124400320160913000101 00000000000000000000000000000000000000000000000000000000000000000000000000000000000000000000000000000000000000000N 00000000000NCONT   00    00000000000          00000000000000000000000000000000000000000000 000000000000000A000000000000000000000000000000000000000000000 000000000000000000000000000000000000000     00000000                                                                                                                        000000000000000000
F0010000009124400004000000431178400023658300000000000000000201609130002001EFRAIN ALVAREZ                                    C000000000010200000000000000000000100010010000000000000000000000F0010000009124400420160913000101 00000000000000000000000000000000000000000000000000000000000000000000000000000000000000000000000000000000000000000N 00000000000NCONT   00    00000000000          00000000000000000000000000000000000000000000 000000000000000A000000000000000000000000000000000000000000000 000000000000000000000000000000000000000     00000000                                                                                                                        000000000000000000
F0010000009124400005000000431178400013552100000000000000000201609130002001EFRAIN ALVAREZ                                    D000000000010200000000000000000000100010010000000000000000000000F0010000009124400520160913000101 00000000000000000000000000000000000000000000000000000000000000000000000000000000000000000000000000000000000000000N 00000000000NCONT   00    00000000000          00000000000000000000000000000000000000000000 000000000000000A000000000000000000000000000000000000000000000 000000000000000000000000000000000000000     00000000                                                                                                                        000000000000000000
F0010000009124500001000000431178400011050500000000000000000201609130002001EFRAIN ALVAREZ                                    D000000004900000000000000000000000100010010000000000000000000000F0010000009124500120160913000101 00000000000000000000000000000000000000000000000000000000000000000000000000000000000000000000000000000000000000000N 00000000000NCONT   00    00000000000          00000000000000000000000000000000000000000000 000000000000000A000000000000000000000000000000000000000000000 000000000000000000000000000000000000000     00000000                                                                                                                        000000000000000000
F0010000009124500002000000431178400041450500000000000000000201609130002001EFRAIN ALVAREZ                                    C000000004600000000000000000000000100010010000000000000000000000F0010000009124500220160913000101 00000000000000000000000000000000000000000000000000000000000000000000000000000000000000000000000000000000000000000N 00000000000NCONT   00    00000000000          00000000000000000000000000000000000000000000 000000000000000A000000000000000000000000000000000000000000000 000000000000000000000000000000000000000     00000000                                                                                                                        000000000000000000
F0010000009124500003000000431178400042505000000000000000000201609130002001EFRAIN ALVAREZ                                    C000000000300000000000000000000000100010010000000000000000000000F0010000009124500320160913000101 00000000000000000000000000000000000000000000000000000000000000000000000000000000000000000000000000000000000000000N 00000000000NCONT   00    00000000000          00000000000000000000000000000000000000000000 000000000000000A000000000000000000000000000000000000000000000 000000000000000000000000000000000000000     00000000                                                                                                                        000000000000000000
F0010000009124500004000000431178400023658300000000000000000201609130002001EFRAIN ALVAREZ                                    C000000000036800000000000000000000100010010000000000000000000000F0010000009124500420160913000101 00000000000000000000000000000000000000000000000000000000000000000000000000000000000000000000000000000000000000000N 00000000000NCONT   00    00000000000          00000000000000000000000000000000000000000000 000000000000000A000000000000000000000000000000000000000000000 000000000000000000000000000000000000000     00000000                                                                                                                        000000000000000000
F0010000009124500005000000431178400013552100000000000000000201609130002001EFRAIN ALVAREZ                                    D000000000036800000000000000000000100010010000000000000000000000F0010000009124500520160913000101 00000000000000000000000000000000000000000000000000000000000000000000000000000000000000000000000000000000000000000N 00000000000NCONT   00    00000000000          00000000000000000000000000000000000000000000 000000000000000A000000000000000000000000000000000000000000000 000000000000000000000000000000000000000     00000000                                                                                                                        000000000000000000
F0010000009124600001000000431178400011050500000000000000000201609130002001EFRAIN ALVAREZ                                    D000000004060000000000000000000000100010010000000000000000000000F0010000009124600120160913000101 00000000000000000000000000000000000000000000000000000000000000000000000000000000000000000000000000000000000000000N 00000000000NCONT   00    00000000000          00000000000000000000000000000000000000000000 000000000000000A000000000000000000000000000000000000000000000 000000000000000000000000000000000000000     00000000                                                                                                                        000000000000000000
F0010000009124600002000000431178400041450500000000000000000201609130002001EFRAIN ALVAREZ                                    C000000003810000000000000000000000100010010000000000000000000000F0010000009124600220160913000101 00000000000000000000000000000000000000000000000000000000000000000000000000000000000000000000000000000000000000000N 00000000000NCONT   00    00000000000          00000000000000000000000000000000000000000000 000000000000000A000000000000000000000000000000000000000000000 000000000000000000000000000000000000000     00000000                                                                                                                        000000000000000000
F0010000009124600003000000431178400042505000000000000000000201609130002001EFRAIN ALVAREZ                                    C000000000250000000000000000000000100010010000000000000000000000F0010000009124600320160913000101 00000000000000000000000000000000000000000000000000000000000000000000000000000000000000000000000000000000000000000N 00000000000NCONT   00    00000000000          00000000000000000000000000000000000000000000 000000000000000A000000000000000000000000000000000000000000000 000000000000000000000000000000000000000     00000000                                                                                                                        000000000000000000
F0010000009124600004000000431178400023658300000000000000000201609130002001EFRAIN ALVAREZ                                    C000000000030500000000000000000000100010010000000000000000000000F0010000009124600420160913000101 00000000000000000000000000000000000000000000000000000000000000000000000000000000000000000000000000000000000000000N 00000000000NCONT   00    00000000000          00000000000000000000000000000000000000000000 000000000000000A000000000000000000000000000000000000000000000 000000000000000000000000000000000000000     00000000                                                                                                                        000000000000000000
F0010000009124600005000000431178400013552100000000000000000201609130002001EFRAIN ALVAREZ                                    D000000000030500000000000000000000100010010000000000000000000000F0010000009124600520160913000101 00000000000000000000000000000000000000000000000000000000000000000000000000000000000000000000000000000000000000000N 00000000000NCONT   00    00000000000          00000000000000000000000000000000000000000000 000000000000000A000000000000000000000000000000000000000000000 000000000000000000000000000000000000000     00000000                                                                                                                        000000000000000000
F0010000009124700001000000431178400011050500000000000000000201609130002001EFRAIN ALVAREZ                                    D000000001370000000000000000000000100010010000000000000000000000F0010000009124700120160913000101 00000000000000000000000000000000000000000000000000000000000000000000000000000000000000000000000000000000000000000N 00000000000NCONT   00    00000000000          00000000000000000000000000000000000000000000 000000000000000A000000000000000000000000000000000000000000000 000000000000000000000000000000000000000     00000000                                                                                                                        000000000000000000
F0010000009124700002000000431178400041450500000000000000000201609130002001EFRAIN ALVAREZ                                    C000000001270000000000000000000000100010010000000000000000000000F0010000009124700220160913000101 00000000000000000000000000000000000000000000000000000000000000000000000000000000000000000000000000000000000000000N 00000000000NCONT   00    00000000000          00000000000000000000000000000000000000000000 000000000000000A000000000000000000000000000000000000000000000 000000000000000000000000000000000000000     00000000                                                                                                                        000000000000000000
F0010000009124700003000000431178400042505000000000000000000201609130002001EFRAIN ALVAREZ                                    C000000000100000000000000000000000100010010000000000000000000000F0010000009124700320160913000101 00000000000000000000000000000000000000000000000000000000000000000000000000000000000000000000000000000000000000000N 00000000000NCONT   00    00000000000          00000000000000000000000000000000000000000000 000000000000000A000000000000000000000000000000000000000000000 000000000000000000000000000000000000000     00000000                                                                                                                        000000000000000000
F0010000009124700004000000431178400023658300000000000000000201609130002001EFRAIN ALVAREZ                                    C000000000010200000000000000000000100010010000000000000000000000F0010000009124700420160913000101 00000000000000000000000000000000000000000000000000000000000000000000000000000000000000000000000000000000000000000N 00000000000NCONT   00    00000000000          00000000000000000000000000000000000000000000 000000000000000A000000000000000000000000000000000000000000000 000000000000000000000000000000000000000     00000000                                                                                                                        000000000000000000
F0010000009124700005000000431178400013552100000000000000000201609130002001EFRAIN ALVAREZ                                    D000000000010200000000000000000000100010010000000000000000000000F0010000009124700520160913000101 00000000000000000000000000000000000000000000000000000000000000000000000000000000000000000000000000000000000000000N 00000000000NCONT   00    00000000000          00000000000000000000000000000000000000000000 000000000000000A000000000000000000000000000000000000000000000 000000000000000000000000000000000000000     00000000                                                                                                                        000000000000000000
F0010000009124800001000007200023300011050500000000000000000201609130002001WILLIAM ORTEGA                                    D000000006700000000000000000000000100010010000000000000000000000F0010000009124800120160913000101 00000000000000000000000000000000000000000000000000000000000000000000000000000000000000000000000000000000000000000N 00000000000NCONT   00    00000000000          00000000000000000000000000000000000000000000 000000000000000A000000000000000000000000000000000000000000000 000000000000000000000000000000000000000     00000000                                                                                                                        000000000000000000
F0010000009124800002000007200023300041450500000000000000000201609130002001WILLIAM ORTEGA                                    C000000006000000000000000000000000100010010000000000000000000000F0010000009124800220160913000101 00000000000000000000000000000000000000000000000000000000000000000000000000000000000000000000000000000000000000000N 00000000000NCONT   00    00000000000          00000000000000000000000000000000000000000000 000000000000000A000000000000000000000000000000000000000000000 000000000000000000000000000000000000000     00000000                                                                                                                        000000000000000000
F0010000009124800003000007200023300042505000000000000000000201609130002001WILLIAM ORTEGA                                    C000000000700000000000000000000000100010010000000000000000000000F0010000009124800320160913000101 00000000000000000000000000000000000000000000000000000000000000000000000000000000000000000000000000000000000000000N 00000000000NCONT   00    00000000000          00000000000000000000000000000000000000000000 000000000000000A000000000000000000000000000000000000000000000 000000000000000000000000000000000000000     00000000                                                                                                                        000000000000000000
F0010000009124800004000007200023300023658300000000000000000201609130002001WILLIAM ORTEGA                                    C000000000048000000000000000000000100010010000000000000000000000F0010000009124800420160913000101 00000000000000000000000000000000000000000000000000000000000000000000000000000000000000000000000000000000000000000N 00000000000NCONT   00    00000000000          00000000000000000000000000000000000000000000 000000000000000A000000000000000000000000000000000000000000000 000000000000000000000000000000000000000     00000000                                                                                                                        000000000000000000
F0010000009124800005000007200023300013552100000000000000000201609130002001WILLIAM ORTEGA                                    D000000000048000000000000000000000100010010000000000000000000000F0010000009124800520160913000101 00000000000000000000000000000000000000000000000000000000000000000000000000000000000000000000000000000000000000000N 00000000000NCONT   00    00000000000          00000000000000000000000000000000000000000000 000000000000000A000000000000000000000000000000000000000000000 000000000000000000000000000000000000000     00000000                                                                                                                        000000000000000000
F0010000009124900001000007200023300011050500000000000000000201609130002001WILLIAM ORTEGA                                    D000000005200000000000000000000000100010010000000000000000000000F0010000009124900120160913000101 00000000000000000000000000000000000000000000000000000000000000000000000000000000000000000000000000000000000000000N 00000000000NCONT   00    00000000000          00000000000000000000000000000000000000000000 000000000000000A000000000000000000000000000000000000000000000 000000000000000000000000000000000000000     00000000                                                                                                                        000000000000000000
F0010000009124900002000007200023300041450500000000000000000201609130002001WILLIAM ORTEGA                                    C000000004500000000000000000000000100010010000000000000000000000F0010000009124900220160913000101 00000000000000000000000000000000000000000000000000000000000000000000000000000000000000000000000000000000000000000N 00000000000NCONT   00    00000000000          00000000000000000000000000000000000000000000 000000000000000A000000000000000000000000000000000000000000000 000000000000000000000000000000000000000     00000000                                                                                                                        000000000000000000
F0010000009124900003000007200023300042505000000000000000000201609130002001WILLIAM ORTEGA                                    C000000000700000000000000000000000100010010000000000000000000000F0010000009124900320160913000101 00000000000000000000000000000000000000000000000000000000000000000000000000000000000000000000000000000000000000000N 00000000000NCONT   00    00000000000          00000000000000000000000000000000000000000000 000000000000000A000000000000000000000000000000000000000000000 000000000000000000000000000000000000000     00000000                                                                                                                        000000000000000000
F0010000009124900004000007200023300023658300000000000000000201609130002001WILLIAM ORTEGA                                    C000000000036000000000000000000000100010010000000000000000000000F0010000009124900420160913000101 00000000000000000000000000000000000000000000000000000000000000000000000000000000000000000000000000000000000000000N 00000000000NCONT   00    00000000000          00000000000000000000000000000000000000000000 000000000000000A000000000000000000000000000000000000000000000 000000000000000000000000000000000000000     00000000                                                                                                                        000000000000000000
F0010000009124900005000007200023300013552100000000000000000201609130002001WILLIAM ORTEGA                                    D000000000036000000000000000000000100010010000000000000000000000F0010000009124900520160913000101 00000000000000000000000000000000000000000000000000000000000000000000000000000000000000000000000000000000000000000N 00000000000NCONT   00    00000000000          00000000000000000000000000000000000000000000 000000000000000A000000000000000000000000000000000000000000000 000000000000000000000000000000000000000     00000000                                                                                                                        000000000000000000
F0010000009125000001000090087846000011050500000000000000000201609130002001INTERCOMERCIAL DL SAS                             D000000001300000000000000000000000100010010000000000000000000000F0010000009125000120160913000101 00000000000000000000000000000000000000000000000000000000000000000000000000000000000000000000000000000000000000000N 00000000000NCONT   00    00000000000          00000000000000000000000000000000000000000000 000000000000000A000000000000000000000000000000000000000000000 000000000000000000000000000000000000000     00000000                                                                                                                        000000000000000000
F0010000009125000002000090087846000041450500000000000000000201609130002001INTERCOMERCIAL DL SAS                             C000000001200000000000000000000000100010010000000000000000000000F0010000009125000220160913000101 00000000000000000000000000000000000000000000000000000000000000000000000000000000000000000000000000000000000000000N 00000000000NCONT   00    00000000000          00000000000000000000000000000000000000000000 000000000000000A000000000000000000000000000000000000000000000 000000000000000000000000000000000000000     00000000                                                                                                                        000000000000000000
F0010000009125000003000090087846000042505000000000000000000201609130002001INTERCOMERCIAL DL SAS                             C000000000100000000000000000000000100010010000000000000000000000F0010000009125000320160913000101 00000000000000000000000000000000000000000000000000000000000000000000000000000000000000000000000000000000000000000N 00000000000NCONT   00    00000000000          00000000000000000000000000000000000000000000 000000000000000A000000000000000000000000000000000000000000000 000000000000000000000000000000000000000     00000000                                                                                                                        000000000000000000
F0010000009125000004000090087846000023658300000000000000000201609130002001INTERCOMERCIAL DL SAS                             C000000000009600000000000000000000100010010000000000000000000000F0010000009125000420160913000101 00000000000000000000000000000000000000000000000000000000000000000000000000000000000000000000000000000000000000000N 00000000000NCONT   00    00000000000          00000000000000000000000000000000000000000000 000000000000000A000000000000000000000000000000000000000000000 000000000000000000000000000000000000000     00000000                                                                                                                        000000000000000000
F0010000009125000005000090087846000013552100000000000000000201609130002001INTERCOMERCIAL DL SAS                             D000000000009600000000000000000000100010010000000000000000000000F0010000009125000520160913000101 00000000000000000000000000000000000000000000000000000000000000000000000000000000000000000000000000000000000000000N 00000000000NCONT   00    00000000000          00000000000000000000000000000000000000000000 000000000000000A000000000000000000000000000000000000000000000 000000000000000000000000000000000000000     00000000                                                                                                                        000000000000000000
F0010000009125100001000090087846000011050500000000000000000201609130002001INTERCOMERCIAL DL SAS                             D000000001900000000000000000000000100010010000000000000000000000F0010000009125100120160913000101 00000000000000000000000000000000000000000000000000000000000000000000000000000000000000000000000000000000000000000N 00000000000NCONT   00    00000000000          00000000000000000000000000000000000000000000 000000000000000A000000000000000000000000000000000000000000000 000000000000000000000000000000000000000     00000000                                                                                                                        000000000000000000
F0010000009125100002000090087846000041450500000000000000000201609130002001INTERCOMERCIAL DL SAS                             C000000001800000000000000000000000100010010000000000000000000000F0010000009125100220160913000101 00000000000000000000000000000000000000000000000000000000000000000000000000000000000000000000000000000000000000000N 00000000000NCONT   00    00000000000          00000000000000000000000000000000000000000000 000000000000000A000000000000000000000000000000000000000000000 000000000000000000000000000000000000000     00000000                                                                                                                        000000000000000000
F0010000009125100003000090087846000042505000000000000000000201609130002001INTERCOMERCIAL DL SAS                             C000000000100000000000000000000000100010010000000000000000000000F0010000009125100320160913000101 00000000000000000000000000000000000000000000000000000000000000000000000000000000000000000000000000000000000000000N 00000000000NCONT   00    00000000000          00000000000000000000000000000000000000000000 000000000000000A000000000000000000000000000000000000000000000 000000000000000000000000000000000000000     00000000                                                                                                                        000000000000000000
F0010000009125100004000090087846000023658300000000000000000201609130002001INTERCOMERCIAL DL SAS                             C000000000014400000000000000000000100010010000000000000000000000F0010000009125100420160913000101 00000000000000000000000000000000000000000000000000000000000000000000000000000000000000000000000000000000000000000N 00000000000NCONT   00    00000000000          00000000000000000000000000000000000000000000 000000000000000A000000000000000000000000000000000000000000000 000000000000000000000000000000000000000     00000000                                                                                                                        000000000000000000
F0010000009125100005000090087846000013552100000000000000000201609130002001INTERCOMERCIAL DL SAS                             D000000000014400000000000000000000100010010000000000000000000000F0010000009125100520160913000101 00000000000000000000000000000000000000000000000000000000000000000000000000000000000000000000000000000000000000000N 00000000000NCONT   00    00000000000          00000000000000000000000000000000000000000000 000000000000000A000000000000000000000000000000000000000000000 000000000000000000000000000000000000000     00000000                                                                                                                        000000000000000000
F0010000009125200001000090087846000011050500000000000000000201609130002001INTERCOMERCIAL DL SAS                             D000000002600000000000000000000000100010010000000000000000000000F0010000009125200120160913000101 00000000000000000000000000000000000000000000000000000000000000000000000000000000000000000000000000000000000000000N 00000000000NCONT   00    00000000000          00000000000000000000000000000000000000000000 000000000000000A000000000000000000000000000000000000000000000 000000000000000000000000000000000000000     00000000                                                                                                                        000000000000000000
F0010000009125200002000090087846000041450500000000000000000201609130002001INTERCOMERCIAL DL SAS                             C000000002500000000000000000000000100010010000000000000000000000F0010000009125200220160913000101 00000000000000000000000000000000000000000000000000000000000000000000000000000000000000000000000000000000000000000N 00000000000NCONT   00    00000000000          00000000000000000000000000000000000000000000 000000000000000A000000000000000000000000000000000000000000000 000000000000000000000000000000000000000     00000000                                                                                                                        000000000000000000
F0010000009125200003000090087846000042505000000000000000000201609130002001INTERCOMERCIAL DL SAS                             C000000000100000000000000000000000100010010000000000000000000000F0010000009125200320160913000101 00000000000000000000000000000000000000000000000000000000000000000000000000000000000000000000000000000000000000000N 00000000000NCONT   00    00000000000          00000000000000000000000000000000000000000000 000000000000000A000000000000000000000000000000000000000000000 000000000000000000000000000000000000000     00000000                                                                                                                        000000000000000000
F0010000009125200004000090087846000023658300000000000000000201609130002001INTERCOMERCIAL DL SAS                             C000000000020000000000000000000000100010010000000000000000000000F0010000009125200420160913000101 00000000000000000000000000000000000000000000000000000000000000000000000000000000000000000000000000000000000000000N 00000000000NCONT   00    00000000000          00000000000000000000000000000000000000000000 000000000000000A000000000000000000000000000000000000000000000 000000000000000000000000000000000000000     00000000                                                                                                                        000000000000000000
F0010000009125200005000090087846000013552100000000000000000201609130002001INTERCOMERCIAL DL SAS                             D000000000020000000000000000000000100010010000000000000000000000F0010000009125200520160913000101 00000000000000000000000000000000000000000000000000000000000000000000000000000000000000000000000000000000000000000N 00000000000NCONT   00    00000000000          00000000000000000000000000000000000000000000 000000000000000A000000000000000000000000000000000000000000000 000000000000000000000000000000000000000     00000000                                                                                                                        000000000000000000
F0010000009125300001000090087846000011050500000000000000000201609130002001INTERCOMERCIAL DL SAS                             D000000001500000000000000000000000100010010000000000000000000000F0010000009125300120160913000101 00000000000000000000000000000000000000000000000000000000000000000000000000000000000000000000000000000000000000000N 00000000000NCONT   00    00000000000          00000000000000000000000000000000000000000000 000000000000000A000000000000000000000000000000000000000000000 000000000000000000000000000000000000000     00000000                                                                                                                        000000000000000000
F0010000009125300002000090087846000041450500000000000000000201609130002001INTERCOMERCIAL DL SAS                             C000000001400000000000000000000000100010010000000000000000000000F0010000009125300220160913000101 00000000000000000000000000000000000000000000000000000000000000000000000000000000000000000000000000000000000000000N 00000000000NCONT   00    00000000000          00000000000000000000000000000000000000000000 000000000000000A000000000000000000000000000000000000000000000 000000000000000000000000000000000000000     00000000                                                                                                                        000000000000000000
