F0010000010555700001000080200863700013050500000000000000000201710260002001COPIN S.A.S                                       D000000169324800000000000000000000100010010000000000000000000000F0010000010555700120171026000101 00000000000000000000000000000000000000000000000000000000000000000000000000000000000000000000000000000000000000000N 00000000000NCONT   00    00000000000          00000000000000000000000000000000000000000000 000000000000000A000000000000000000000000000000000000000000000 000000000000000000000000000000000000000     00000000                                                                                                                        000000000000000000
F0010000010555700002000080200863700041450500000000000000000201710260002001COPIN S.A.S                                       C000000156251000000000000000000000100010010000000000000000000000F0010000010555700220171026000101 00000000000000000000000000000000000000000000000000000000000000000000000000000000000000000000000000000000000000000N 00000000000NCONT   00    00000000000          00000000000000000000000000000000000000000000 000000000000000A000000000000000000000000000000000000000000000 000000000000000000000000000000000000000     00000000                                                                                                                        000000000000000000
F0010000010555700003000080200863700042505000000000000000000201710260002001COPIN S.A.S                                       C000000013073800000000000000000000100010010000000000000000000000F0010000010555700320171026000101 00000000000000000000000000000000000000000000000000000000000000000000000000000000000000000000000000000000000000000N 00000000000NCONT   00    00000000000          00000000000000000000000000000000000000000000 000000000000000A000000000000000000000000000000000000000000000 000000000000000000000000000000000000000     00000000                                                                                                                        000000000000000000
F0010000010555700004000080200863700023658300000000000000000201710260002001COPIN S.A.S                                       C000000000000000000000000000000000100010010000000000000000000000F0010000010555700420171026000101 00000000000000000000000000000000000000000000000000000000000000000000000000000000000000000000000000000000000000000N 00000000000NCONT   00    00000000000          00000000000000000000000000000000000000000000 000000000000000A000000000000000000000000000000000000000000000 000000000000000000000000000000000000000     00000000                                                                                                                        000000000000000000
F0010000010555700005000080200863700013552100000000000000000201710260002001COPIN S.A.S                                       D000000000000000000000000000000000100010010000000000000000000000F0010000010555700520171026000101 00000000000000000000000000000000000000000000000000000000000000000000000000000000000000000000000000000000000000000N 00000000000NCONT   00    00000000000          00000000000000000000000000000000000000000000 000000000000000A000000000000000000000000000000000000000000000 000000000000000000000000000000000000000     00000000                                                                                                                        000000000000000000
F0010000010555800001000086003979400013050500000000000000000201710260002001CALYPSO BARRANQUILLA LTDA                         D000000061855000000000000000000000100010010000000000000000000000F0010000010555800120171026000101 00000000000000000000000000000000000000000000000000000000000000000000000000000000000000000000000000000000000000000N 00000000000NCONT   00    00000000000          00000000000000000000000000000000000000000000 000000000000000A000000000000000000000000000000000000000000000 000000000000000000000000000000000000000     00000000                                                                                                                        000000000000000000
F0010000010555800002000086003979400041450500000000000000000201710260002001CALYPSO BARRANQUILLA LTDA                         C000000059300000000000000000000000100010010000000000000000000000F0010000010555800220171026000101 00000000000000000000000000000000000000000000000000000000000000000000000000000000000000000000000000000000000000000N 00000000000NCONT   00    00000000000          00000000000000000000000000000000000000000000 000000000000000A000000000000000000000000000000000000000000000 000000000000000000000000000000000000000     00000000                                                                                                                        000000000000000000
F0010000010555800003000086003979400042505000000000000000000201710260002001CALYPSO BARRANQUILLA LTDA                         C000000002555000000000000000000000100010010000000000000000000000F0010000010555800320171026000101 00000000000000000000000000000000000000000000000000000000000000000000000000000000000000000000000000000000000000000N 00000000000NCONT   00    00000000000          00000000000000000000000000000000000000000000 000000000000000A000000000000000000000000000000000000000000000 000000000000000000000000000000000000000     00000000                                                                                                                        000000000000000000
F0010000010555800004000086003979400023658300000000000000000201710260002001CALYPSO BARRANQUILLA LTDA                         C000000000000000000000000000000000100010010000000000000000000000F0010000010555800420171026000101 00000000000000000000000000000000000000000000000000000000000000000000000000000000000000000000000000000000000000000N 00000000000NCONT   00    00000000000          00000000000000000000000000000000000000000000 000000000000000A000000000000000000000000000000000000000000000 000000000000000000000000000000000000000     00000000                                                                                                                        000000000000000000
F0010000010555800005000086003979400013552100000000000000000201710260002001CALYPSO BARRANQUILLA LTDA                         D000000000000000000000000000000000100010010000000000000000000000F0010000010555800520171026000101 00000000000000000000000000000000000000000000000000000000000000000000000000000000000000000000000000000000000000000N 00000000000NCONT   00    00000000000          00000000000000000000000000000000000000000000 000000000000000A000000000000000000000000000000000000000000000 000000000000000000000000000000000000000     00000000                                                                                                                        000000000000000000
F0010000010555900001000080002300200013050500000000000000000201710260002001DISREL S.A.                                       D000000014750000000000000000000000100010010000000000000000000000F0010000010555900120171026000101 00000000000000000000000000000000000000000000000000000000000000000000000000000000000000000000000000000000000000000N 00000000000NCONT   00    00000000000          00000000000000000000000000000000000000000000 000000000000000A000000000000000000000000000000000000000000000 000000000000000000000000000000000000000     00000000                                                                                                                        000000000000000000
F0010000010555900002000080002300200041450500000000000000000201710260002001DISREL S.A.                                       C000000011800000000000000000000000100010010000000000000000000000F0010000010555900220171026000101 00000000000000000000000000000000000000000000000000000000000000000000000000000000000000000000000000000000000000000N 00000000000NCONT   00    00000000000          00000000000000000000000000000000000000000000 000000000000000A000000000000000000000000000000000000000000000 000000000000000000000000000000000000000     00000000                                                                                                                        000000000000000000
F0010000010555900003000080002300200042505000000000000000000201710260002001DISREL S.A.                                       C000000002950000000000000000000000100010010000000000000000000000F0010000010555900320171026000101 00000000000000000000000000000000000000000000000000000000000000000000000000000000000000000000000000000000000000000N 00000000000NCONT   00    00000000000          00000000000000000000000000000000000000000000 000000000000000A000000000000000000000000000000000000000000000 000000000000000000000000000000000000000     00000000                                                                                                                        000000000000000000
F0010000010555900004000080002300200023658300000000000000000201710260002001DISREL S.A.                                       C000000000000000000000000000000000100010010000000000000000000000F0010000010555900420171026000101 00000000000000000000000000000000000000000000000000000000000000000000000000000000000000000000000000000000000000000N 00000000000NCONT   00    00000000000          00000000000000000000000000000000000000000000 000000000000000A000000000000000000000000000000000000000000000 000000000000000000000000000000000000000     00000000                                                                                                                        000000000000000000
F0010000010555900005000080002300200013552100000000000000000201710260002001DISREL S.A.                                       D000000000000000000000000000000000100010010000000000000000000000F0010000010555900520171026000101 00000000000000000000000000000000000000000000000000000000000000000000000000000000000000000000000000000000000000000N 00000000000NCONT   00    00000000000          00000000000000000000000000000000000000000000 000000000000000A000000000000000000000000000000000000000000000 000000000000000000000000000000000000000     00000000                                                                                                                        000000000000000000
F0010000010556000001000090052543100013050500000000000000000201710260002001SECRET COLOR SAS                                  D000000021480000000000000000000000100010010000000000000000000000F0010000010556000120171026000101 00000000000000000000000000000000000000000000000000000000000000000000000000000000000000000000000000000000000000000N 00000000000NCONT   00    00000000000          00000000000000000000000000000000000000000000 000000000000000A000000000000000000000000000000000000000000000 000000000000000000000000000000000000000     00000000                                                                                                                        000000000000000000
F0010000010556000002000090052543100041450500000000000000000201710260002001SECRET COLOR SAS                                  C000000021480000000000000000000000100010010000000000000000000000F0010000010556000220171026000101 00000000000000000000000000000000000000000000000000000000000000000000000000000000000000000000000000000000000000000N 00000000000NCONT   00    00000000000          00000000000000000000000000000000000000000000 000000000000000A000000000000000000000000000000000000000000000 000000000000000000000000000000000000000     00000000                                                                                                                        000000000000000000
F0010000010556000003000090052543100042505000000000000000000201710260002001SECRET COLOR SAS                                  C000000000000000000000000000000000100010010000000000000000000000F0010000010556000320171026000101 00000000000000000000000000000000000000000000000000000000000000000000000000000000000000000000000000000000000000000N 00000000000NCONT   00    00000000000          00000000000000000000000000000000000000000000 000000000000000A000000000000000000000000000000000000000000000 000000000000000000000000000000000000000     00000000                                                                                                                        000000000000000000
F0010000010556000004000090052543100023658300000000000000000201710260002001SECRET COLOR SAS                                  C000000000000000000000000000000000100010010000000000000000000000F0010000010556000420171026000101 00000000000000000000000000000000000000000000000000000000000000000000000000000000000000000000000000000000000000000N 00000000000NCONT   00    00000000000          00000000000000000000000000000000000000000000 000000000000000A000000000000000000000000000000000000000000000 000000000000000000000000000000000000000     00000000                                                                                                                        000000000000000000
F0010000010556000005000090052543100013552100000000000000000201710260002001SECRET COLOR SAS                                  D000000000000000000000000000000000100010010000000000000000000000F0010000010556000520171026000101 00000000000000000000000000000000000000000000000000000000000000000000000000000000000000000000000000000000000000000N 00000000000NCONT   00    00000000000          00000000000000000000000000000000000000000000 000000000000000A000000000000000000000000000000000000000000000 000000000000000000000000000000000000000     00000000                                                                                                                        000000000000000000
F0010000010556100001000080016665600013050500000000000000000201710260002001SUMICAL DE ANTIOQUIA S.A.S                        D000000029515400000000000000000000100010010000000000000000000000F0010000010556100120171026000101 00000000000000000000000000000000000000000000000000000000000000000000000000000000000000000000000000000000000000000N 00000000000NCONT   00    00000000000          00000000000000000000000000000000000000000000 000000000000000A000000000000000000000000000000000000000000000 000000000000000000000000000000000000000     00000000                                                                                                                        000000000000000000
F0010000010556100002000080016665600041450500000000000000000201710260002001SUMICAL DE ANTIOQUIA S.A.S                        C000000026140000000000000000000000100010010000000000000000000000F0010000010556100220171026000101 00000000000000000000000000000000000000000000000000000000000000000000000000000000000000000000000000000000000000000N 00000000000NCONT   00    00000000000          00000000000000000000000000000000000000000000 000000000000000A000000000000000000000000000000000000000000000 000000000000000000000000000000000000000     00000000                                                                                                                        000000000000000000
F0010000010556100003000080016665600042505000000000000000000201710260002001SUMICAL DE ANTIOQUIA S.A.S                        C000000003375400000000000000000000100010010000000000000000000000F0010000010556100320171026000101 00000000000000000000000000000000000000000000000000000000000000000000000000000000000000000000000000000000000000000N 00000000000NCONT   00    00000000000          00000000000000000000000000000000000000000000 000000000000000A000000000000000000000000000000000000000000000 000000000000000000000000000000000000000     00000000                                                                                                                        000000000000000000
F0010000010556100004000080016665600023658300000000000000000201710260002001SUMICAL DE ANTIOQUIA S.A.S                        C000000000000000000000000000000000100010010000000000000000000000F0010000010556100420171026000101 00000000000000000000000000000000000000000000000000000000000000000000000000000000000000000000000000000000000000000N 00000000000NCONT   00    00000000000          00000000000000000000000000000000000000000000 000000000000000A000000000000000000000000000000000000000000000 000000000000000000000000000000000000000     00000000                                                                                                                        000000000000000000
F0010000010556100005000080016665600013552100000000000000000201710260002001SUMICAL DE ANTIOQUIA S.A.S                        D000000000000000000000000000000000100010010000000000000000000000F0010000010556100520171026000101 00000000000000000000000000000000000000000000000000000000000000000000000000000000000000000000000000000000000000000N 00000000000NCONT   00    00000000000          00000000000000000000000000000000000000000000 000000000000000A000000000000000000000000000000000000000000000 000000000000000000000000000000000000000     00000000                                                                                                                        000000000000000000
F0010000010556200001000002245670100013050500000000000000000201710260002001YOLANDA  TOBON                                    D000000016032300000000000000000000100010010000000000000000000000F0010000010556200120171026000101 00000000000000000000000000000000000000000000000000000000000000000000000000000000000000000000000000000000000000000N 00000000000NCONT   00    00000000000          00000000000000000000000000000000000000000000 000000000000000A000000000000000000000000000000000000000000000 000000000000000000000000000000000000000     00000000                                                                                                                        000000000000000000
F0010000010556200002000002245670100041450500000000000000000201710260002001YOLANDA  TOBON                                    C000000011340000000000000000000000100010010000000000000000000000F0010000010556200220171026000101 00000000000000000000000000000000000000000000000000000000000000000000000000000000000000000000000000000000000000000N 00000000000NCONT   00    00000000000          00000000000000000000000000000000000000000000 000000000000000A000000000000000000000000000000000000000000000 000000000000000000000000000000000000000     00000000                                                                                                                        000000000000000000
F0010000010556200003000002245670100042505000000000000000000201710260002001YOLANDA  TOBON                                    C000000004692300000000000000000000100010010000000000000000000000F0010000010556200320171026000101 00000000000000000000000000000000000000000000000000000000000000000000000000000000000000000000000000000000000000000N 00000000000NCONT   00    00000000000          00000000000000000000000000000000000000000000 000000000000000A000000000000000000000000000000000000000000000 000000000000000000000000000000000000000     00000000                                                                                                                        000000000000000000
F0010000010556200004000002245670100023658300000000000000000201710260002001YOLANDA  TOBON                                    C000000000000000000000000000000000100010010000000000000000000000F0010000010556200420171026000101 00000000000000000000000000000000000000000000000000000000000000000000000000000000000000000000000000000000000000000N 00000000000NCONT   00    00000000000          00000000000000000000000000000000000000000000 000000000000000A000000000000000000000000000000000000000000000 000000000000000000000000000000000000000     00000000                                                                                                                        000000000000000000
F0010000010556200005000002245670100013552100000000000000000201710260002001YOLANDA  TOBON                                    D000000000000000000000000000000000100010010000000000000000000000F0010000010556200520171026000101 00000000000000000000000000000000000000000000000000000000000000000000000000000000000000000000000000000000000000000N 00000000000NCONT   00    00000000000          00000000000000000000000000000000000000000000 000000000000000A000000000000000000000000000000000000000000000 000000000000000000000000000000000000000     00000000                                                                                                                        000000000000000000
F0010000010556300001000089010260300013050500000000000000000201710260002001FEDERICO OSORIO A. S.A.                           D000000087730100000000000000000000100010010000000000000000000000F0010000010556300120171026000101 00000000000000000000000000000000000000000000000000000000000000000000000000000000000000000000000000000000000000000N 00000000000NCONT   00    00000000000          00000000000000000000000000000000000000000000 000000000000000A000000000000000000000000000000000000000000000 000000000000000000000000000000000000000     00000000                                                                                                                        000000000000000000
F0010000010556300002000089010260300041450500000000000000000201710260002001FEDERICO OSORIO A. S.A.                           C000000083120000000000000000000000100010010000000000000000000000F0010000010556300220171026000101 00000000000000000000000000000000000000000000000000000000000000000000000000000000000000000000000000000000000000000N 00000000000NCONT   00    00000000000          00000000000000000000000000000000000000000000 000000000000000A000000000000000000000000000000000000000000000 000000000000000000000000000000000000000     00000000                                                                                                                        000000000000000000
F0010000010556300003000089010260300042505000000000000000000201710260002001FEDERICO OSORIO A. S.A.                           C000000004610100000000000000000000100010010000000000000000000000F0010000010556300320171026000101 00000000000000000000000000000000000000000000000000000000000000000000000000000000000000000000000000000000000000000N 00000000000NCONT   00    00000000000          00000000000000000000000000000000000000000000 000000000000000A000000000000000000000000000000000000000000000 000000000000000000000000000000000000000     00000000                                                                                                                        000000000000000000
F0010000010556300004000089010260300023658300000000000000000201710260002001FEDERICO OSORIO A. S.A.                           C000000000000000000000000000000000100010010000000000000000000000F0010000010556300420171026000101 00000000000000000000000000000000000000000000000000000000000000000000000000000000000000000000000000000000000000000N 00000000000NCONT   00    00000000000          00000000000000000000000000000000000000000000 000000000000000A000000000000000000000000000000000000000000000 000000000000000000000000000000000000000     00000000                                                                                                                        000000000000000000
F0010000010556300005000089010260300013552100000000000000000201710260002001FEDERICO OSORIO A. S.A.                           D000000000000000000000000000000000100010010000000000000000000000F0010000010556300520171026000101 00000000000000000000000000000000000000000000000000000000000000000000000000000000000000000000000000000000000000000N 00000000000NCONT   00    00000000000          00000000000000000000000000000000000000000000 000000000000000A000000000000000000000000000000000000000000000 000000000000000000000000000000000000000     00000000                                                                                                                        000000000000000000
F0010000010556400001000080202094000013050500000000000000000201710260002001DISTRIB. OMAR ORREGO S.A.                         D000000065400100000000000000000000100010010000000000000000000000F0010000010556400120171026000101 00000000000000000000000000000000000000000000000000000000000000000000000000000000000000000000000000000000000000000N 00000000000NCONT   00    00000000000          00000000000000000000000000000000000000000000 000000000000000A000000000000000000000000000000000000000000000 000000000000000000000000000000000000000     00000000                                                                                                                        000000000000000000
F0010000010556400002000080202094000041450500000000000000000201710260002001DISTRIB. OMAR ORREGO S.A.                         C000000041440000000000000000000000100010010000000000000000000000F0010000010556400220171026000101 00000000000000000000000000000000000000000000000000000000000000000000000000000000000000000000000000000000000000000N 00000000000NCONT   00    00000000000          00000000000000000000000000000000000000000000 000000000000000A000000000000000000000000000000000000000000000 000000000000000000000000000000000000000     00000000                                                                                                                        000000000000000000
F0010000010556400003000080202094000042505000000000000000000201710260002001DISTRIB. OMAR ORREGO S.A.                         C000000023960100000000000000000000100010010000000000000000000000F0010000010556400320171026000101 00000000000000000000000000000000000000000000000000000000000000000000000000000000000000000000000000000000000000000N 00000000000NCONT   00    00000000000          00000000000000000000000000000000000000000000 000000000000000A000000000000000000000000000000000000000000000 000000000000000000000000000000000000000     00000000                                                                                                                        000000000000000000
F0010000010556400004000080202094000023658300000000000000000201710260002001DISTRIB. OMAR ORREGO S.A.                         C000000000000000000000000000000000100010010000000000000000000000F0010000010556400420171026000101 00000000000000000000000000000000000000000000000000000000000000000000000000000000000000000000000000000000000000000N 00000000000NCONT   00    00000000000          00000000000000000000000000000000000000000000 000000000000000A000000000000000000000000000000000000000000000 000000000000000000000000000000000000000     00000000                                                                                                                        000000000000000000
F0010000010556400005000080202094000013552100000000000000000201710260002001DISTRIB. OMAR ORREGO S.A.                         D000000000000000000000000000000000100010010000000000000000000000F0010000010556400520171026000101 00000000000000000000000000000000000000000000000000000000000000000000000000000000000000000000000000000000000000000N 00000000000NCONT   00    00000000000          00000000000000000000000000000000000000000000 000000000000000A000000000000000000000000000000000000000000000 000000000000000000000000000000000000000     00000000                                                                                                                        000000000000000000
F0010000010556500001000080202094000013050500000000000000000201710260002001DISTRIB. OMAR ORREGO S.A.                         D000000023072200000000000000000000100010010000000000000000000000F0010000010556500120171026000101 00000000000000000000000000000000000000000000000000000000000000000000000000000000000000000000000000000000000000000N 00000000000NCONT   00    00000000000          00000000000000000000000000000000000000000000 000000000000000A000000000000000000000000000000000000000000000 000000000000000000000000000000000000000     00000000                                                                                                                        000000000000000000
F0010000010556500002000080202094000041450500000000000000000201710260002001DISTRIB. OMAR ORREGO S.A.                         C000000013870000000000000000000000100010010000000000000000000000F0010000010556500220171026000101 00000000000000000000000000000000000000000000000000000000000000000000000000000000000000000000000000000000000000000N 00000000000NCONT   00    00000000000          00000000000000000000000000000000000000000000 000000000000000A000000000000000000000000000000000000000000000 000000000000000000000000000000000000000     00000000                                                                                                                        000000000000000000
F0010000010556500003000080202094000042505000000000000000000201710260002001DISTRIB. OMAR ORREGO S.A.                         C000000009202200000000000000000000100010010000000000000000000000F0010000010556500320171026000101 00000000000000000000000000000000000000000000000000000000000000000000000000000000000000000000000000000000000000000N 00000000000NCONT   00    00000000000          00000000000000000000000000000000000000000000 000000000000000A000000000000000000000000000000000000000000000 000000000000000000000000000000000000000     00000000                                                                                                                        000000000000000000
F0010000010556500004000080202094000023658300000000000000000201710260002001DISTRIB. OMAR ORREGO S.A.                         C000000000000000000000000000000000100010010000000000000000000000F0010000010556500420171026000101 00000000000000000000000000000000000000000000000000000000000000000000000000000000000000000000000000000000000000000N 00000000000NCONT   00    00000000000          00000000000000000000000000000000000000000000 000000000000000A000000000000000000000000000000000000000000000 000000000000000000000000000000000000000     00000000                                                                                                                        000000000000000000
F0010000010556500005000080202094000013552100000000000000000201710260002001DISTRIB. OMAR ORREGO S.A.                         D000000000000000000000000000000000100010010000000000000000000000F0010000010556500520171026000101 00000000000000000000000000000000000000000000000000000000000000000000000000000000000000000000000000000000000000000N 00000000000NCONT   00    00000000000          00000000000000000000000000000000000000000000 000000000000000A000000000000000000000000000000000000000000000 000000000000000000000000000000000000000     00000000                                                                                                                        000000000000000000
F0010000010556600001000089011492400013050500000000000000000201710260002001AGE. CAUCHOSOL DE LA COSTA  SAS                   D000000061094100000000000000000000100010010000000000000000000000F0010000010556600120171026000101 00000000000000000000000000000000000000000000000000000000000000000000000000000000000000000000000000000000000000000N 00000000000NCONT   00    00000000000          00000000000000000000000000000000000000000000 000000000000000A000000000000000000000000000000000000000000000 000000000000000000000000000000000000000     00000000                                                                                                                        000000000000000000
F0010000010556600002000089011492400041450500000000000000000201710260002001AGE. CAUCHOSOL DE LA COSTA  SAS                   C000000037000000000000000000000000100010010000000000000000000000F0010000010556600220171026000101 00000000000000000000000000000000000000000000000000000000000000000000000000000000000000000000000000000000000000000N 00000000000NCONT   00    00000000000          00000000000000000000000000000000000000000000 000000000000000A000000000000000000000000000000000000000000000 000000000000000000000000000000000000000     00000000                                                                                                                        000000000000000000
F0010000010556600003000089011492400042505000000000000000000201710260002001AGE. CAUCHOSOL DE LA COSTA  SAS                   C000000024094100000000000000000000100010010000000000000000000000F0010000010556600320171026000101 00000000000000000000000000000000000000000000000000000000000000000000000000000000000000000000000000000000000000000N 00000000000NCONT   00    00000000000          00000000000000000000000000000000000000000000 000000000000000A000000000000000000000000000000000000000000000 000000000000000000000000000000000000000     00000000                                                                                                                        000000000000000000
F0010000010556600004000089011492400023658300000000000000000201710260002001AGE. CAUCHOSOL DE LA COSTA  SAS                   C000000000000000000000000000000000100010010000000000000000000000F0010000010556600420171026000101 00000000000000000000000000000000000000000000000000000000000000000000000000000000000000000000000000000000000000000N 00000000000NCONT   00    00000000000          00000000000000000000000000000000000000000000 000000000000000A000000000000000000000000000000000000000000000 000000000000000000000000000000000000000     00000000                                                                                                                        000000000000000000
F0010000010556600005000089011492400013552100000000000000000201710260002001AGE. CAUCHOSOL DE LA COSTA  SAS                   D000000000000000000000000000000000100010010000000000000000000000F0010000010556600520171026000101 00000000000000000000000000000000000000000000000000000000000000000000000000000000000000000000000000000000000000000N 00000000000NCONT   00    00000000000          00000000000000000000000000000000000000000000 000000000000000A000000000000000000000000000000000000000000000 000000000000000000000000000000000000000     00000000                                                                                                                        000000000000000000
F0010000010556700001000000870053600011050500000000000000000201710260002001FARID ARRIETA                                     D000000001500000000000000000000000100010010000000000000000000000F0010000010556700120171026000101 00000000000000000000000000000000000000000000000000000000000000000000000000000000000000000000000000000000000000000N 00000000000NCONT   00    00000000000          00000000000000000000000000000000000000000000 000000000000000A000000000000000000000000000000000000000000000 000000000000000000000000000000000000000     00000000                                                                                                                        000000000000000000
F0010000010556700002000000870053600041450500000000000000000201710260002001FARID ARRIETA                                     C000000001200000000000000000000000100010010000000000000000000000F0010000010556700220171026000101 00000000000000000000000000000000000000000000000000000000000000000000000000000000000000000000000000000000000000000N 00000000000NCONT   00    00000000000          00000000000000000000000000000000000000000000 000000000000000A000000000000000000000000000000000000000000000 000000000000000000000000000000000000000     00000000                                                                                                                        000000000000000000
F0010000010556700003000000870053600042505000000000000000000201710260002001FARID ARRIETA                                     C000000000300000000000000000000000100010010000000000000000000000F0010000010556700320171026000101 00000000000000000000000000000000000000000000000000000000000000000000000000000000000000000000000000000000000000000N 00000000000NCONT   00    00000000000          00000000000000000000000000000000000000000000 000000000000000A000000000000000000000000000000000000000000000 000000000000000000000000000000000000000     00000000                                                                                                                        000000000000000000
F0010000010556700004000000870053600023658300000000000000000201710260002001FARID ARRIETA                                     C000000000000000000000000000000000100010010000000000000000000000F0010000010556700420171026000101 00000000000000000000000000000000000000000000000000000000000000000000000000000000000000000000000000000000000000000N 00000000000NCONT   00    00000000000          00000000000000000000000000000000000000000000 000000000000000A000000000000000000000000000000000000000000000 000000000000000000000000000000000000000     00000000                                                                                                                        000000000000000000
F0010000010556700005000000870053600013552100000000000000000201710260002001FARID ARRIETA                                     D000000000000000000000000000000000100010010000000000000000000000F0010000010556700520171026000101 00000000000000000000000000000000000000000000000000000000000000000000000000000000000000000000000000000000000000000N 00000000000NCONT   00    00000000000          00000000000000000000000000000000000000000000 000000000000000A000000000000000000000000000000000000000000000 000000000000000000000000000000000000000     00000000                                                                                                                        000000000000000000
F0010000010556800001000086053108300011050500000000000000000201710260002001EL PALACIO DEL ALUMINIO  LTDA                     D000000001620000000000000000000000100010010000000000000000000000F0010000010556800120171026000101 00000000000000000000000000000000000000000000000000000000000000000000000000000000000000000000000000000000000000000N 00000000000NCONT   00    00000000000          00000000000000000000000000000000000000000000 000000000000000A000000000000000000000000000000000000000000000 000000000000000000000000000000000000000     00000000                                                                                                                        000000000000000000
F0010000010556800002000086053108300041450500000000000000000201710260002001EL PALACIO DEL ALUMINIO  LTDA                     C000000001500000000000000000000000100010010000000000000000000000F0010000010556800220171026000101 00000000000000000000000000000000000000000000000000000000000000000000000000000000000000000000000000000000000000000N 00000000000NCONT   00    00000000000          00000000000000000000000000000000000000000000 000000000000000A000000000000000000000000000000000000000000000 000000000000000000000000000000000000000     00000000                                                                                                                        000000000000000000
F0010000010556800003000086053108300042505000000000000000000201710260002001EL PALACIO DEL ALUMINIO  LTDA                     C000000000120000000000000000000000100010010000000000000000000000F0010000010556800320171026000101 00000000000000000000000000000000000000000000000000000000000000000000000000000000000000000000000000000000000000000N 00000000000NCONT   00    00000000000          00000000000000000000000000000000000000000000 000000000000000A000000000000000000000000000000000000000000000 000000000000000000000000000000000000000     00000000                                                                                                                        000000000000000000
F0010000010556800004000086053108300023658300000000000000000201710260002001EL PALACIO DEL ALUMINIO  LTDA                     C000000000000000000000000000000000100010010000000000000000000000F0010000010556800420171026000101 00000000000000000000000000000000000000000000000000000000000000000000000000000000000000000000000000000000000000000N 00000000000NCONT   00    00000000000          00000000000000000000000000000000000000000000 000000000000000A000000000000000000000000000000000000000000000 000000000000000000000000000000000000000     00000000                                                                                                                        000000000000000000
F0010000010556800005000086053108300013552100000000000000000201710260002001EL PALACIO DEL ALUMINIO  LTDA                     D000000000000000000000000000000000100010010000000000000000000000F0010000010556800520171026000101 00000000000000000000000000000000000000000000000000000000000000000000000000000000000000000000000000000000000000000N 00000000000NCONT   00    00000000000          00000000000000000000000000000000000000000000 000000000000000A000000000000000000000000000000000000000000000 000000000000000000000000000000000000000     00000000                                                                                                                        000000000000000000
F0010000010556900001000086053108300011050500000000000000000201710260002001EL PALACIO DEL ALUMINIO  LTDA                     D000000004600000000000000000000000100010010000000000000000000000F0010000010556900120171026000101 00000000000000000000000000000000000000000000000000000000000000000000000000000000000000000000000000000000000000000N 00000000000NCONT   00    00000000000          00000000000000000000000000000000000000000000 000000000000000A000000000000000000000000000000000000000000000 000000000000000000000000000000000000000     00000000                                                                                                                        000000000000000000
F0010000010556900002000086053108300041450500000000000000000201710260002001EL PALACIO DEL ALUMINIO  LTDA                     C000000003600000000000000000000000100010010000000000000000000000F0010000010556900220171026000101 00000000000000000000000000000000000000000000000000000000000000000000000000000000000000000000000000000000000000000N 00000000000NCONT   00    00000000000          00000000000000000000000000000000000000000000 000000000000000A000000000000000000000000000000000000000000000 000000000000000000000000000000000000000     00000000                                                                                                                        000000000000000000
F0010000010556900003000086053108300042505000000000000000000201710260002001EL PALACIO DEL ALUMINIO  LTDA                     C000000001000000000000000000000000100010010000000000000000000000F0010000010556900320171026000101 00000000000000000000000000000000000000000000000000000000000000000000000000000000000000000000000000000000000000000N 00000000000NCONT   00    00000000000          00000000000000000000000000000000000000000000 000000000000000A000000000000000000000000000000000000000000000 000000000000000000000000000000000000000     00000000                                                                                                                        000000000000000000
F0010000010556900004000086053108300023658300000000000000000201710260002001EL PALACIO DEL ALUMINIO  LTDA                     C000000000000000000000000000000000100010010000000000000000000000F0010000010556900420171026000101 00000000000000000000000000000000000000000000000000000000000000000000000000000000000000000000000000000000000000000N 00000000000NCONT   00    00000000000          00000000000000000000000000000000000000000000 000000000000000A000000000000000000000000000000000000000000000 000000000000000000000000000000000000000     00000000                                                                                                                        000000000000000000
F0010000010556900005000086053108300013552100000000000000000201710260002001EL PALACIO DEL ALUMINIO  LTDA                     D000000000000000000000000000000000100010010000000000000000000000F0010000010556900520171026000101 00000000000000000000000000000000000000000000000000000000000000000000000000000000000000000000000000000000000000000N 00000000000NCONT   00    00000000000          00000000000000000000000000000000000000000000 000000000000000A000000000000000000000000000000000000000000000 000000000000000000000000000000000000000     00000000                                                                                                                        000000000000000000
F0010000010557000001000090027500500011050500000000000000000201710260002001MULTIALUMINIOS LA 30 SAS                          D000000002400000000000000000000000100010010000000000000000000000F0010000010557000120171026000101 00000000000000000000000000000000000000000000000000000000000000000000000000000000000000000000000000000000000000000N 00000000000NCONT   00    00000000000          00000000000000000000000000000000000000000000 000000000000000A000000000000000000000000000000000000000000000 000000000000000000000000000000000000000     00000000                                                                                                                        000000000000000000
F0010000010557000002000090027500500041450500000000000000000201710260002001MULTIALUMINIOS LA 30 SAS                          C000000002100000000000000000000000100010010000000000000000000000F0010000010557000220171026000101 00000000000000000000000000000000000000000000000000000000000000000000000000000000000000000000000000000000000000000N 00000000000NCONT   00    00000000000          00000000000000000000000000000000000000000000 000000000000000A000000000000000000000000000000000000000000000 000000000000000000000000000000000000000     00000000                                                                                                                        000000000000000000
F0010000010557000003000090027500500042505000000000000000000201710260002001MULTIALUMINIOS LA 30 SAS                          C000000000300000000000000000000000100010010000000000000000000000F0010000010557000320171026000101 00000000000000000000000000000000000000000000000000000000000000000000000000000000000000000000000000000000000000000N 00000000000NCONT   00    00000000000          00000000000000000000000000000000000000000000 000000000000000A000000000000000000000000000000000000000000000 000000000000000000000000000000000000000     00000000                                                                                                                        000000000000000000
F0010000010557000004000090027500500023658300000000000000000201710260002001MULTIALUMINIOS LA 30 SAS                          C000000000000000000000000000000000100010010000000000000000000000F0010000010557000420171026000101 00000000000000000000000000000000000000000000000000000000000000000000000000000000000000000000000000000000000000000N 00000000000NCONT   00    00000000000          00000000000000000000000000000000000000000000 000000000000000A000000000000000000000000000000000000000000000 000000000000000000000000000000000000000     00000000                                                                                                                        000000000000000000
F0010000010557000005000090027500500013552100000000000000000201710260002001MULTIALUMINIOS LA 30 SAS                          D000000000000000000000000000000000100010010000000000000000000000F0010000010557000520171026000101 00000000000000000000000000000000000000000000000000000000000000000000000000000000000000000000000000000000000000000N 00000000000NCONT   00    00000000000          00000000000000000000000000000000000000000000 000000000000000A000000000000000000000000000000000000000000000 000000000000000000000000000000000000000     00000000                                                                                                                        000000000000000000
F0010000010557100001000090027500500011050500000000000000000201710260002001MULTIALUMINIOS LA 30 SAS                          D000000002300000000000000000000000100010010000000000000000000000F0010000010557100120171026000101 00000000000000000000000000000000000000000000000000000000000000000000000000000000000000000000000000000000000000000N 00000000000NCONT   00    00000000000          00000000000000000000000000000000000000000000 000000000000000A000000000000000000000000000000000000000000000 000000000000000000000000000000000000000     00000000                                                                                                                        000000000000000000
F0010000010557100002000090027500500041450500000000000000000201710260002001MULTIALUMINIOS LA 30 SAS                          C000000001800000000000000000000000100010010000000000000000000000F0010000010557100220171026000101 00000000000000000000000000000000000000000000000000000000000000000000000000000000000000000000000000000000000000000N 00000000000NCONT   00    00000000000          00000000000000000000000000000000000000000000 000000000000000A000000000000000000000000000000000000000000000 000000000000000000000000000000000000000     00000000                                                                                                                        000000000000000000
F0010000010557100003000090027500500042505000000000000000000201710260002001MULTIALUMINIOS LA 30 SAS                          C000000000500000000000000000000000100010010000000000000000000000F0010000010557100320171026000101 00000000000000000000000000000000000000000000000000000000000000000000000000000000000000000000000000000000000000000N 00000000000NCONT   00    00000000000          00000000000000000000000000000000000000000000 000000000000000A000000000000000000000000000000000000000000000 000000000000000000000000000000000000000     00000000                                                                                                                        000000000000000000
F0010000010557100004000090027500500023658300000000000000000201710260002001MULTIALUMINIOS LA 30 SAS                          C000000000000000000000000000000000100010010000000000000000000000F0010000010557100420171026000101 00000000000000000000000000000000000000000000000000000000000000000000000000000000000000000000000000000000000000000N 00000000000NCONT   00    00000000000          00000000000000000000000000000000000000000000 000000000000000A000000000000000000000000000000000000000000000 000000000000000000000000000000000000000     00000000                                                                                                                        000000000000000000
F0010000010557100005000090027500500013552100000000000000000201710260002001MULTIALUMINIOS LA 30 SAS                          D000000000000000000000000000000000100010010000000000000000000000F0010000010557100520171026000101 00000000000000000000000000000000000000000000000000000000000000000000000000000000000000000000000000000000000000000N 00000000000NCONT   00    00000000000          00000000000000000000000000000000000000000000 000000000000000A000000000000000000000000000000000000000000000 000000000000000000000000000000000000000     00000000                                                                                                                        000000000000000000
F0010000010557200001000000746524800011050500000000000000000201710260002001GUILLERMO BURGOS                                  D000000013000000000000000000000000100010010000000000000000000000F0010000010557200120171026000101 00000000000000000000000000000000000000000000000000000000000000000000000000000000000000000000000000000000000000000N 00000000000NCONT   00    00000000000          00000000000000000000000000000000000000000000 000000000000000A000000000000000000000000000000000000000000000 000000000000000000000000000000000000000     00000000                                                                                                                        000000000000000000
F0010000010557200002000000746524800041450500000000000000000201710260002001GUILLERMO BURGOS                                  C000000012000000000000000000000000100010010000000000000000000000F0010000010557200220171026000101 00000000000000000000000000000000000000000000000000000000000000000000000000000000000000000000000000000000000000000N 00000000000NCONT   00    00000000000          00000000000000000000000000000000000000000000 000000000000000A000000000000000000000000000000000000000000000 000000000000000000000000000000000000000     00000000                                                                                                                        000000000000000000
F0010000010557200003000000746524800042505000000000000000000201710260002001GUILLERMO BURGOS                                  C000000001000000000000000000000000100010010000000000000000000000F0010000010557200320171026000101 00000000000000000000000000000000000000000000000000000000000000000000000000000000000000000000000000000000000000000N 00000000000NCONT   00    00000000000          00000000000000000000000000000000000000000000 000000000000000A000000000000000000000000000000000000000000000 000000000000000000000000000000000000000     00000000                                                                                                                        000000000000000000
F0010000010557200004000000746524800023658300000000000000000201710260002001GUILLERMO BURGOS                                  C000000000000000000000000000000000100010010000000000000000000000F0010000010557200420171026000101 00000000000000000000000000000000000000000000000000000000000000000000000000000000000000000000000000000000000000000N 00000000000NCONT   00    00000000000          00000000000000000000000000000000000000000000 000000000000000A000000000000000000000000000000000000000000000 000000000000000000000000000000000000000     00000000                                                                                                                        000000000000000000
F0010000010557200005000000746524800013552100000000000000000201710260002001GUILLERMO BURGOS                                  D000000000000000000000000000000000100010010000000000000000000000F0010000010557200520171026000101 00000000000000000000000000000000000000000000000000000000000000000000000000000000000000000000000000000000000000000N 00000000000NCONT   00    00000000000          00000000000000000000000000000000000000000000 000000000000000A000000000000000000000000000000000000000000000 000000000000000000000000000000000000000     00000000                                                                                                                        000000000000000000
F0010000010557300001000007090373900011050500000000000000000201710260002001CACHARRERIA LOS MARINILLOS                        D000000006000000000000000000000000100010010000000000000000000000F0010000010557300120171026000101 00000000000000000000000000000000000000000000000000000000000000000000000000000000000000000000000000000000000000000N 00000000000NCONT   00    00000000000          00000000000000000000000000000000000000000000 000000000000000A000000000000000000000000000000000000000000000 000000000000000000000000000000000000000     00000000                                                                                                                        000000000000000000
F0010000010557300002000007090373900041450500000000000000000201710260002001CACHARRERIA LOS MARINILLOS                        C000000004000000000000000000000000100010010000000000000000000000F0010000010557300220171026000101 00000000000000000000000000000000000000000000000000000000000000000000000000000000000000000000000000000000000000000N 00000000000NCONT   00    00000000000          00000000000000000000000000000000000000000000 000000000000000A000000000000000000000000000000000000000000000 000000000000000000000000000000000000000     00000000                                                                                                                        000000000000000000
F0010000010557300003000007090373900042505000000000000000000201710260002001CACHARRERIA LOS MARINILLOS                        C000000002000000000000000000000000100010010000000000000000000000F0010000010557300320171026000101 00000000000000000000000000000000000000000000000000000000000000000000000000000000000000000000000000000000000000000N 00000000000NCONT   00    00000000000          00000000000000000000000000000000000000000000 000000000000000A000000000000000000000000000000000000000000000 000000000000000000000000000000000000000     00000000                                                                                                                        000000000000000000
F0010000010557300004000007090373900023658300000000000000000201710260002001CACHARRERIA LOS MARINILLOS                        C000000000000000000000000000000000100010010000000000000000000000F0010000010557300420171026000101 00000000000000000000000000000000000000000000000000000000000000000000000000000000000000000000000000000000000000000N 00000000000NCONT   00    00000000000          00000000000000000000000000000000000000000000 000000000000000A000000000000000000000000000000000000000000000 000000000000000000000000000000000000000     00000000                                                                                                                        000000000000000000
F0010000010557300005000007090373900013552100000000000000000201710260002001CACHARRERIA LOS MARINILLOS                        D000000000000000000000000000000000100010010000000000000000000000F0010000010557300520171026000101 00000000000000000000000000000000000000000000000000000000000000000000000000000000000000000000000000000000000000000N 00000000000NCONT   00    00000000000          00000000000000000000000000000000000000000000 000000000000000A000000000000000000000000000000000000000000000 000000000000000000000000000000000000000     00000000                                                                                                                        000000000000000000
F0010000010557400001000090063628300011050500000000000000000201710260002001INVERSIONES RADELCA S.A.S.                        D000000001733200000000000000000000100010010000000000000000000000F0010000010557400120171026000101 00000000000000000000000000000000000000000000000000000000000000000000000000000000000000000000000000000000000000000N 00000000000NCONT   00    00000000000          00000000000000000000000000000000000000000000 000000000000000A000000000000000000000000000000000000000000000 000000000000000000000000000000000000000     00000000                                                                                                                        000000000000000000
F0010000010557400002000090063628300041450500000000000000000201710260002001INVERSIONES RADELCA S.A.S.                        C000000001500000000000000000000000100010010000000000000000000000F0010000010557400220171026000101 00000000000000000000000000000000000000000000000000000000000000000000000000000000000000000000000000000000000000000N 00000000000NCONT   00    00000000000          00000000000000000000000000000000000000000000 000000000000000A000000000000000000000000000000000000000000000 000000000000000000000000000000000000000     00000000                                                                                                                        000000000000000000
F0010000010557400003000090063628300042505000000000000000000201710260002001INVERSIONES RADELCA S.A.S.                        C000000000233200000000000000000000100010010000000000000000000000F0010000010557400320171026000101 00000000000000000000000000000000000000000000000000000000000000000000000000000000000000000000000000000000000000000N 00000000000NCONT   00    00000000000          00000000000000000000000000000000000000000000 000000000000000A000000000000000000000000000000000000000000000 000000000000000000000000000000000000000     00000000                                                                                                                        000000000000000000
F0010000010557400004000090063628300023658300000000000000000201710260002001INVERSIONES RADELCA S.A.S.                        C000000000000000000000000000000000100010010000000000000000000000F0010000010557400420171026000101 00000000000000000000000000000000000000000000000000000000000000000000000000000000000000000000000000000000000000000N 00000000000NCONT   00    00000000000          00000000000000000000000000000000000000000000 000000000000000A000000000000000000000000000000000000000000000 000000000000000000000000000000000000000     00000000                                                                                                                        000000000000000000
F0010000010557400005000090063628300013552100000000000000000201710260002001INVERSIONES RADELCA S.A.S.                        D000000000000000000000000000000000100010010000000000000000000000F0010000010557400520171026000101 00000000000000000000000000000000000000000000000000000000000000000000000000000000000000000000000000000000000000000N 00000000000NCONT   00    00000000000          00000000000000000000000000000000000000000000 000000000000000A000000000000000000000000000000000000000000000 000000000000000000000000000000000000000     00000000                                                                                                                        000000000000000000
F0010000010557500001000090063628300011050500000000000000000201710260002001INVERSIONES RADELCA S.A.S.                        D000000001290000000000000000000000100010010000000000000000000000F0010000010557500120171026000101 00000000000000000000000000000000000000000000000000000000000000000000000000000000000000000000000000000000000000000N 00000000000NCONT   00    00000000000          00000000000000000000000000000000000000000000 000000000000000A000000000000000000000000000000000000000000000 000000000000000000000000000000000000000     00000000                                                                                                                        000000000000000000
F0010000010557500002000090063628300041450500000000000000000201710260002001INVERSIONES RADELCA S.A.S.                        C000000001100000000000000000000000100010010000000000000000000000F0010000010557500220171026000101 00000000000000000000000000000000000000000000000000000000000000000000000000000000000000000000000000000000000000000N 00000000000NCONT   00    00000000000          00000000000000000000000000000000000000000000 000000000000000A000000000000000000000000000000000000000000000 000000000000000000000000000000000000000     00000000                                                                                                                        000000000000000000
F0010000010557500003000090063628300042505000000000000000000201710260002001INVERSIONES RADELCA S.A.S.                        C000000000190000000000000000000000100010010000000000000000000000F0010000010557500320171026000101 00000000000000000000000000000000000000000000000000000000000000000000000000000000000000000000000000000000000000000N 00000000000NCONT   00    00000000000          00000000000000000000000000000000000000000000 000000000000000A000000000000000000000000000000000000000000000 000000000000000000000000000000000000000     00000000                                                                                                                        000000000000000000
F0010000010557500004000090063628300023658300000000000000000201710260002001INVERSIONES RADELCA S.A.S.                        C000000000000000000000000000000000100010010000000000000000000000F0010000010557500420171026000101 00000000000000000000000000000000000000000000000000000000000000000000000000000000000000000000000000000000000000000N 00000000000NCONT   00    00000000000          00000000000000000000000000000000000000000000 000000000000000A000000000000000000000000000000000000000000000 000000000000000000000000000000000000000     00000000                                                                                                                        000000000000000000
F0010000010557500005000090063628300013552100000000000000000201710260002001INVERSIONES RADELCA S.A.S.                        D000000000000000000000000000000000100010010000000000000000000000F0010000010557500520171026000101 00000000000000000000000000000000000000000000000000000000000000000000000000000000000000000000000000000000000000000N 00000000000NCONT   00    00000000000          00000000000000000000000000000000000000000000 000000000000000A000000000000000000000000000000000000000000000 000000000000000000000000000000000000000     00000000                                                                                                                        000000000000000000
F0010000010557600001000000866309000011050500000000000000000201710260002001MARCO MORA PATIO                                D000000001500000000000000000000000100010010000000000000000000000F0010000010557600120171026000101 00000000000000000000000000000000000000000000000000000000000000000000000000000000000000000000000000000000000000000N 00000000000NCONT   00    00000000000          00000000000000000000000000000000000000000000 000000000000000A000000000000000000000000000000000000000000000 000000000000000000000000000000000000000     00000000                                                                                                                        000000000000000000
F0010000010557600002000000866309000041450500000000000000000201710260002001MARCO MORA PATIO                                C000000001300000000000000000000000100010010000000000000000000000F0010000010557600220171026000101 00000000000000000000000000000000000000000000000000000000000000000000000000000000000000000000000000000000000000000N 00000000000NCONT   00    00000000000          00000000000000000000000000000000000000000000 000000000000000A000000000000000000000000000000000000000000000 000000000000000000000000000000000000000     00000000                                                                                                                        000000000000000000
F0010000010557600003000000866309000042505000000000000000000201710260002001MARCO MORA PATIO                                C000000000200000000000000000000000100010010000000000000000000000F0010000010557600320171026000101 00000000000000000000000000000000000000000000000000000000000000000000000000000000000000000000000000000000000000000N 00000000000NCONT   00    00000000000          00000000000000000000000000000000000000000000 000000000000000A000000000000000000000000000000000000000000000 000000000000000000000000000000000000000     00000000                                                                                                                        000000000000000000
F0010000010557600004000000866309000023658300000000000000000201710260002001MARCO MORA PATIO                                C000000000000000000000000000000000100010010000000000000000000000F0010000010557600420171026000101 00000000000000000000000000000000000000000000000000000000000000000000000000000000000000000000000000000000000000000N 00000000000NCONT   00    00000000000          00000000000000000000000000000000000000000000 000000000000000A000000000000000000000000000000000000000000000 000000000000000000000000000000000000000     00000000                                                                                                                        000000000000000000
F0010000010557600005000000866309000013552100000000000000000201710260002001MARCO MORA PATIO                                D000000000000000000000000000000000100010010000000000000000000000F0010000010557600520171026000101 00000000000000000000000000000000000000000000000000000000000000000000000000000000000000000000000000000000000000000N 00000000000NCONT   00    00000000000          00000000000000000000000000000000000000000000 000000000000000A000000000000000000000000000000000000000000000 000000000000000000000000000000000000000     00000000                                                                                                                        000000000000000000
F0010000010557700001000004544401900011050500000000000000000201710260002001FISIOTER                                          D000000002500000000000000000000000100010010000000000000000000000F0010000010557700120171026000101 00000000000000000000000000000000000000000000000000000000000000000000000000000000000000000000000000000000000000000N 00000000000NCONT   00    00000000000          00000000000000000000000000000000000000000000 000000000000000A000000000000000000000000000000000000000000000 000000000000000000000000000000000000000     00000000                                                                                                                        000000000000000000
F0010000010557700002000004544401900041450500000000000000000201710260002001FISIOTER                                          C000000002400000000000000000000000100010010000000000000000000000F0010000010557700220171026000101 00000000000000000000000000000000000000000000000000000000000000000000000000000000000000000000000000000000000000000N 00000000000NCONT   00    00000000000          00000000000000000000000000000000000000000000 000000000000000A000000000000000000000000000000000000000000000 000000000000000000000000000000000000000     00000000                                                                                                                        000000000000000000
F0010000010557700003000004544401900042505000000000000000000201710260002001FISIOTER                                          C000000000100000000000000000000000100010010000000000000000000000F0010000010557700320171026000101 00000000000000000000000000000000000000000000000000000000000000000000000000000000000000000000000000000000000000000N 00000000000NCONT   00    00000000000          00000000000000000000000000000000000000000000 000000000000000A000000000000000000000000000000000000000000000 000000000000000000000000000000000000000     00000000                                                                                                                        000000000000000000
F0010000010557700004000004544401900023658300000000000000000201710260002001FISIOTER                                          C000000000000000000000000000000000100010010000000000000000000000F0010000010557700420171026000101 00000000000000000000000000000000000000000000000000000000000000000000000000000000000000000000000000000000000000000N 00000000000NCONT   00    00000000000          00000000000000000000000000000000000000000000 000000000000000A000000000000000000000000000000000000000000000 000000000000000000000000000000000000000     00000000                                                                                                                        000000000000000000
F0010000010557700005000004544401900013552100000000000000000201710260002001FISIOTER                                          D000000000000000000000000000000000100010010000000000000000000000F0010000010557700520171026000101 00000000000000000000000000000000000000000000000000000000000000000000000000000000000000000000000000000000000000000N 00000000000NCONT   00    00000000000          00000000000000000000000000000000000000000000 000000000000000A000000000000000000000000000000000000000000000 000000000000000000000000000000000000000     00000000                                                                                                                        000000000000000000
F0010000010557800001000007200023300011050500000000000000000201710260002001WILLIAM ORTEGA                                    D000000003000000000000000000000000100010010000000000000000000000F0010000010557800120171026000101 00000000000000000000000000000000000000000000000000000000000000000000000000000000000000000000000000000000000000000N 00000000000NCONT   00    00000000000          00000000000000000000000000000000000000000000 000000000000000A000000000000000000000000000000000000000000000 000000000000000000000000000000000000000     00000000                                                                                                                        000000000000000000
F0010000010557800002000007200023300041450500000000000000000201710260002001WILLIAM ORTEGA                                    C000000002600000000000000000000000100010010000000000000000000000F0010000010557800220171026000101 00000000000000000000000000000000000000000000000000000000000000000000000000000000000000000000000000000000000000000N 00000000000NCONT   00    00000000000          00000000000000000000000000000000000000000000 000000000000000A000000000000000000000000000000000000000000000 000000000000000000000000000000000000000     00000000                                                                                                                        000000000000000000
F0010000010557800003000007200023300042505000000000000000000201710260002001WILLIAM ORTEGA                                    C000000000400000000000000000000000100010010000000000000000000000F0010000010557800320171026000101 00000000000000000000000000000000000000000000000000000000000000000000000000000000000000000000000000000000000000000N 00000000000NCONT   00    00000000000          00000000000000000000000000000000000000000000 000000000000000A000000000000000000000000000000000000000000000 000000000000000000000000000000000000000     00000000                                                                                                                        000000000000000000
F0010000010557800004000007200023300023658300000000000000000201710260002001WILLIAM ORTEGA                                    C000000000000000000000000000000000100010010000000000000000000000F0010000010557800420171026000101 00000000000000000000000000000000000000000000000000000000000000000000000000000000000000000000000000000000000000000N 00000000000NCONT   00    00000000000          00000000000000000000000000000000000000000000 000000000000000A000000000000000000000000000000000000000000000 000000000000000000000000000000000000000     00000000                                                                                                                        000000000000000000
F0010000010557800005000007200023300013552100000000000000000201710260002001WILLIAM ORTEGA                                    D000000000000000000000000000000000100010010000000000000000000000F0010000010557800520171026000101 00000000000000000000000000000000000000000000000000000000000000000000000000000000000000000000000000000000000000000N 00000000000NCONT   00    00000000000          00000000000000000000000000000000000000000000 000000000000000A000000000000000000000000000000000000000000000 000000000000000000000000000000000000000     00000000                                                                                                                        000000000000000000
F0010000010557900001000007200023300011050500000000000000000201710260002001WILLIAM ORTEGA                                    D000000001650000000000000000000000100010010000000000000000000000F0010000010557900120171026000101 00000000000000000000000000000000000000000000000000000000000000000000000000000000000000000000000000000000000000000N 00000000000NCONT   00    00000000000          00000000000000000000000000000000000000000000 000000000000000A000000000000000000000000000000000000000000000 000000000000000000000000000000000000000     00000000                                                                                                                        000000000000000000
F0010000010557900002000007200023300041450500000000000000000201710260002001WILLIAM ORTEGA                                    C000000001300000000000000000000000100010010000000000000000000000F0010000010557900220171026000101 00000000000000000000000000000000000000000000000000000000000000000000000000000000000000000000000000000000000000000N 00000000000NCONT   00    00000000000          00000000000000000000000000000000000000000000 000000000000000A000000000000000000000000000000000000000000000 000000000000000000000000000000000000000     00000000                                                                                                                        000000000000000000
F0010000010557900003000007200023300042505000000000000000000201710260002001WILLIAM ORTEGA                                    C000000000350000000000000000000000100010010000000000000000000000F0010000010557900320171026000101 00000000000000000000000000000000000000000000000000000000000000000000000000000000000000000000000000000000000000000N 00000000000NCONT   00    00000000000          00000000000000000000000000000000000000000000 000000000000000A000000000000000000000000000000000000000000000 000000000000000000000000000000000000000     00000000                                                                                                                        000000000000000000
F0010000010557900004000007200023300023658300000000000000000201710260002001WILLIAM ORTEGA                                    C000000000000000000000000000000000100010010000000000000000000000F0010000010557900420171026000101 00000000000000000000000000000000000000000000000000000000000000000000000000000000000000000000000000000000000000000N 00000000000NCONT   00    00000000000          00000000000000000000000000000000000000000000 000000000000000A000000000000000000000000000000000000000000000 000000000000000000000000000000000000000     00000000                                                                                                                        000000000000000000
F0010000010557900005000007200023300013552100000000000000000201710260002001WILLIAM ORTEGA                                    D000000000000000000000000000000000100010010000000000000000000000F0010000010557900520171026000101 00000000000000000000000000000000000000000000000000000000000000000000000000000000000000000000000000000000000000000N 00000000000NCONT   00    00000000000          00000000000000000000000000000000000000000000 000000000000000A000000000000000000000000000000000000000000000 000000000000000000000000000000000000000     00000000                                                                                                                        000000000000000000
F0010000010558000001000007200023300011050500000000000000000201710260002001WILLIAM ORTEGA                                    D000000002000000000000000000000000100010010000000000000000000000F0010000010558000120171026000101 00000000000000000000000000000000000000000000000000000000000000000000000000000000000000000000000000000000000000000N 00000000000NCONT   00    00000000000          00000000000000000000000000000000000000000000 000000000000000A000000000000000000000000000000000000000000000 000000000000000000000000000000000000000     00000000                                                                                                                        000000000000000000
F0010000010558000002000007200023300041450500000000000000000201710260002001WILLIAM ORTEGA                                    C000000001700000000000000000000000100010010000000000000000000000F0010000010558000220171026000101 00000000000000000000000000000000000000000000000000000000000000000000000000000000000000000000000000000000000000000N 00000000000NCONT   00    00000000000          00000000000000000000000000000000000000000000 000000000000000A000000000000000000000000000000000000000000000 000000000000000000000000000000000000000     00000000                                                                                                                        000000000000000000
F0010000010558000003000007200023300042505000000000000000000201710260002001WILLIAM ORTEGA                                    C000000000300000000000000000000000100010010000000000000000000000F0010000010558000320171026000101 00000000000000000000000000000000000000000000000000000000000000000000000000000000000000000000000000000000000000000N 00000000000NCONT   00    00000000000          00000000000000000000000000000000000000000000 000000000000000A000000000000000000000000000000000000000000000 000000000000000000000000000000000000000     00000000                                                                                                                        000000000000000000
F0010000010558000004000007200023300023658300000000000000000201710260002001WILLIAM ORTEGA                                    C000000000000000000000000000000000100010010000000000000000000000F0010000010558000420171026000101 00000000000000000000000000000000000000000000000000000000000000000000000000000000000000000000000000000000000000000N 00000000000NCONT   00    00000000000          00000000000000000000000000000000000000000000 000000000000000A000000000000000000000000000000000000000000000 000000000000000000000000000000000000000     00000000                                                                                                                        000000000000000000
F0010000010558000005000007200023300013552100000000000000000201710260002001WILLIAM ORTEGA                                    D000000000000000000000000000000000100010010000000000000000000000F0010000010558000520171026000101 00000000000000000000000000000000000000000000000000000000000000000000000000000000000000000000000000000000000000000N 00000000000NCONT   00    00000000000          00000000000000000000000000000000000000000000 000000000000000A000000000000000000000000000000000000000000000 000000000000000000000000000000000000000     00000000                                                                                                                        000000000000000000
F0010000010558100001000089010038800011050500000000000000000201710260002001CRISTALERIA SELMAN SAS                            D000000004000000000000000000000000100010010000000000000000000000F0010000010558100120171026000101 00000000000000000000000000000000000000000000000000000000000000000000000000000000000000000000000000000000000000000N 00000000000NCONT   00    00000000000          00000000000000000000000000000000000000000000 000000000000000A000000000000000000000000000000000000000000000 000000000000000000000000000000000000000     00000000                                                                                                                        000000000000000000
F0010000010558100002000089010038800041450500000000000000000201710260002001CRISTALERIA SELMAN SAS                            C000000003460000000000000000000000100010010000000000000000000000F0010000010558100220171026000101 00000000000000000000000000000000000000000000000000000000000000000000000000000000000000000000000000000000000000000N 00000000000NCONT   00    00000000000          00000000000000000000000000000000000000000000 000000000000000A000000000000000000000000000000000000000000000 000000000000000000000000000000000000000     00000000                                                                                                                        000000000000000000
F0010000010558100003000089010038800042505000000000000000000201710260002001CRISTALERIA SELMAN SAS                            C000000000540000000000000000000000100010010000000000000000000000F0010000010558100320171026000101 00000000000000000000000000000000000000000000000000000000000000000000000000000000000000000000000000000000000000000N 00000000000NCONT   00    00000000000          00000000000000000000000000000000000000000000 000000000000000A000000000000000000000000000000000000000000000 000000000000000000000000000000000000000     00000000                                                                                                                        000000000000000000
F0010000010558100004000089010038800023658300000000000000000201710260002001CRISTALERIA SELMAN SAS                            C000000000000000000000000000000000100010010000000000000000000000F0010000010558100420171026000101 00000000000000000000000000000000000000000000000000000000000000000000000000000000000000000000000000000000000000000N 00000000000NCONT   00    00000000000          00000000000000000000000000000000000000000000 000000000000000A000000000000000000000000000000000000000000000 000000000000000000000000000000000000000     00000000                                                                                                                        000000000000000000
F0010000010558100005000089010038800013552100000000000000000201710260002001CRISTALERIA SELMAN SAS                            D000000000000000000000000000000000100010010000000000000000000000F0010000010558100520171026000101 00000000000000000000000000000000000000000000000000000000000000000000000000000000000000000000000000000000000000000N 00000000000NCONT   00    00000000000          00000000000000000000000000000000000000000000 000000000000000A000000000000000000000000000000000000000000000 000000000000000000000000000000000000000     00000000                                                                                                                        000000000000000000
F0010000010558200001000000091780800011050500000000000000000201710260002001ITALO RENE HERAZO CARCAMO /CENTRAL DE TORNILLOS   D000000002410000000000000000000000100010010000000000000000000000F0010000010558200120171026000101 00000000000000000000000000000000000000000000000000000000000000000000000000000000000000000000000000000000000000000N 00000000000NCONT   00    00000000000          00000000000000000000000000000000000000000000 000000000000000A000000000000000000000000000000000000000000000 000000000000000000000000000000000000000     00000000                                                                                                                        000000000000000000
F0010000010558200002000000091780800041450500000000000000000201710260002001ITALO RENE HERAZO CARCAMO /CENTRAL DE TORNILLOS   C000000002080000000000000000000000100010010000000000000000000000F0010000010558200220171026000101 00000000000000000000000000000000000000000000000000000000000000000000000000000000000000000000000000000000000000000N 00000000000NCONT   00    00000000000          00000000000000000000000000000000000000000000 000000000000000A000000000000000000000000000000000000000000000 000000000000000000000000000000000000000     00000000                                                                                                                        000000000000000000
F0010000010558200003000000091780800042505000000000000000000201710260002001ITALO RENE HERAZO CARCAMO /CENTRAL DE TORNILLOS   C000000000330000000000000000000000100010010000000000000000000000F0010000010558200320171026000101 00000000000000000000000000000000000000000000000000000000000000000000000000000000000000000000000000000000000000000N 00000000000NCONT   00    00000000000          00000000000000000000000000000000000000000000 000000000000000A000000000000000000000000000000000000000000000 000000000000000000000000000000000000000     00000000                                                                                                                        000000000000000000
F0010000010558200004000000091780800023658300000000000000000201710260002001ITALO RENE HERAZO CARCAMO /CENTRAL DE TORNILLOS   C000000000000000000000000000000000100010010000000000000000000000F0010000010558200420171026000101 00000000000000000000000000000000000000000000000000000000000000000000000000000000000000000000000000000000000000000N 00000000000NCONT   00    00000000000          00000000000000000000000000000000000000000000 000000000000000A000000000000000000000000000000000000000000000 000000000000000000000000000000000000000     00000000                                                                                                                        000000000000000000
F0010000010558200005000000091780800013552100000000000000000201710260002001ITALO RENE HERAZO CARCAMO /CENTRAL DE TORNILLOS   D000000000000000000000000000000000100010010000000000000000000000F0010000010558200520171026000101 00000000000000000000000000000000000000000000000000000000000000000000000000000000000000000000000000000000000000000N 00000000000NCONT   00    00000000000          00000000000000000000000000000000000000000000 000000000000000A000000000000000000000000000000000000000000000 000000000000000000000000000000000000000     00000000                                                                                                                        000000000000000000
F0010000010558300001000000091780800011050500000000000000000201710260002001ITALO RENE HERAZO CARCAMO /CENTRAL DE TORNILLOS   D000000019140000000000000000000000100010010000000000000000000000F0010000010558300120171026000101 00000000000000000000000000000000000000000000000000000000000000000000000000000000000000000000000000000000000000000N 00000000000NCONT   00    00000000000          00000000000000000000000000000000000000000000 000000000000000A000000000000000000000000000000000000000000000 000000000000000000000000000000000000000     00000000                                                                                                                        000000000000000000
F0010000010558300002000000091780800041450500000000000000000201710260002001ITALO RENE HERAZO CARCAMO /CENTRAL DE TORNILLOS   C000000016640000000000000000000000100010010000000000000000000000F0010000010558300220171026000101 00000000000000000000000000000000000000000000000000000000000000000000000000000000000000000000000000000000000000000N 00000000000NCONT   00    00000000000          00000000000000000000000000000000000000000000 000000000000000A000000000000000000000000000000000000000000000 000000000000000000000000000000000000000     00000000                                                                                                                        000000000000000000
F0010000010558300003000000091780800042505000000000000000000201710260002001ITALO RENE HERAZO CARCAMO /CENTRAL DE TORNILLOS   C000000002500000000000000000000000100010010000000000000000000000F0010000010558300320171026000101 00000000000000000000000000000000000000000000000000000000000000000000000000000000000000000000000000000000000000000N 00000000000NCONT   00    00000000000          00000000000000000000000000000000000000000000 000000000000000A000000000000000000000000000000000000000000000 000000000000000000000000000000000000000     00000000                                                                                                                        000000000000000000
F0010000010558300004000000091780800023658300000000000000000201710260002001ITALO RENE HERAZO CARCAMO /CENTRAL DE TORNILLOS   C000000000000000000000000000000000100010010000000000000000000000F0010000010558300420171026000101 00000000000000000000000000000000000000000000000000000000000000000000000000000000000000000000000000000000000000000N 00000000000NCONT   00    00000000000          00000000000000000000000000000000000000000000 000000000000000A000000000000000000000000000000000000000000000 000000000000000000000000000000000000000     00000000                                                                                                                        000000000000000000
F0010000010558300005000000091780800013552100000000000000000201710260002001ITALO RENE HERAZO CARCAMO /CENTRAL DE TORNILLOS   D000000000000000000000000000000000100010010000000000000000000000F0010000010558300520171026000101 00000000000000000000000000000000000000000000000000000000000000000000000000000000000000000000000000000000000000000N 00000000000NCONT   00    00000000000          00000000000000000000000000000000000000000000 000000000000000A000000000000000000000000000000000000000000000 000000000000000000000000000000000000000     00000000                                                                                                                        000000000000000000
F0010000010558400001000000091780800011050500000000000000000201710260002001ITALO RENE HERAZO CARCAMO /CENTRAL DE TORNILLOS   D000000002197000000000000000000000100010010000000000000000000000F0010000010558400120171026000101 00000000000000000000000000000000000000000000000000000000000000000000000000000000000000000000000000000000000000000N 00000000000NCONT   00    00000000000          00000000000000000000000000000000000000000000 000000000000000A000000000000000000000000000000000000000000000 000000000000000000000000000000000000000     00000000                                                                                                                        000000000000000000
F0010000010558400002000000091780800041450500000000000000000201710260002001ITALO RENE HERAZO CARCAMO /CENTRAL DE TORNILLOS   C000000002080000000000000000000000100010010000000000000000000000F0010000010558400220171026000101 00000000000000000000000000000000000000000000000000000000000000000000000000000000000000000000000000000000000000000N 00000000000NCONT   00    00000000000          00000000000000000000000000000000000000000000 000000000000000A000000000000000000000000000000000000000000000 000000000000000000000000000000000000000     00000000                                                                                                                        000000000000000000
F0010000010558400003000000091780800042505000000000000000000201710260002001ITALO RENE HERAZO CARCAMO /CENTRAL DE TORNILLOS   C000000000117000000000000000000000100010010000000000000000000000F0010000010558400320171026000101 00000000000000000000000000000000000000000000000000000000000000000000000000000000000000000000000000000000000000000N 00000000000NCONT   00    00000000000          00000000000000000000000000000000000000000000 000000000000000A000000000000000000000000000000000000000000000 000000000000000000000000000000000000000     00000000                                                                                                                        000000000000000000
F0010000010558400004000000091780800023658300000000000000000201710260002001ITALO RENE HERAZO CARCAMO /CENTRAL DE TORNILLOS   C000000000000000000000000000000000100010010000000000000000000000F0010000010558400420171026000101 00000000000000000000000000000000000000000000000000000000000000000000000000000000000000000000000000000000000000000N 00000000000NCONT   00    00000000000          00000000000000000000000000000000000000000000 000000000000000A000000000000000000000000000000000000000000000 000000000000000000000000000000000000000     00000000                                                                                                                        000000000000000000
F0010000010558400005000000091780800013552100000000000000000201710260002001ITALO RENE HERAZO CARCAMO /CENTRAL DE TORNILLOS   D000000000000000000000000000000000100010010000000000000000000000F0010000010558400520171026000101 00000000000000000000000000000000000000000000000000000000000000000000000000000000000000000000000000000000000000000N 00000000000NCONT   00    00000000000          00000000000000000000000000000000000000000000 000000000000000A000000000000000000000000000000000000000000000 000000000000000000000000000000000000000     00000000                                                                                                                        000000000000000000
F0010000010558500001000001022529300011050500000000000000000201710260002001ALBERTO ALVAREZ ISAZA                             D000000000880000000000000000000000100010010000000000000000000000F0010000010558500120171026000101 00000000000000000000000000000000000000000000000000000000000000000000000000000000000000000000000000000000000000000N 00000000000NCONT   00    00000000000          00000000000000000000000000000000000000000000 000000000000000A000000000000000000000000000000000000000000000 000000000000000000000000000000000000000     00000000                                                                                                                        000000000000000000
F0010000010558500002000001022529300041450500000000000000000201710260002001ALBERTO ALVAREZ ISAZA                             C000000000880000000000000000000000100010010000000000000000000000F0010000010558500220171026000101 00000000000000000000000000000000000000000000000000000000000000000000000000000000000000000000000000000000000000000N 00000000000NCONT   00    00000000000          00000000000000000000000000000000000000000000 000000000000000A000000000000000000000000000000000000000000000 000000000000000000000000000000000000000     00000000                                                                                                                        000000000000000000
F0010000010558500003000001022529300042505000000000000000000201710260002001ALBERTO ALVAREZ ISAZA                             C000000000000000000000000000000000100010010000000000000000000000F0010000010558500320171026000101 00000000000000000000000000000000000000000000000000000000000000000000000000000000000000000000000000000000000000000N 00000000000NCONT   00    00000000000          00000000000000000000000000000000000000000000 000000000000000A000000000000000000000000000000000000000000000 000000000000000000000000000000000000000     00000000                                                                                                                        000000000000000000
F0010000010558500004000001022529300023658300000000000000000201710260002001ALBERTO ALVAREZ ISAZA                             C000000000000000000000000000000000100010010000000000000000000000F0010000010558500420171026000101 00000000000000000000000000000000000000000000000000000000000000000000000000000000000000000000000000000000000000000N 00000000000NCONT   00    00000000000          00000000000000000000000000000000000000000000 000000000000000A000000000000000000000000000000000000000000000 000000000000000000000000000000000000000     00000000                                                                                                                        000000000000000000
F0010000010558500005000001022529300013552100000000000000000201710260002001ALBERTO ALVAREZ ISAZA                             D000000000000000000000000000000000100010010000000000000000000000F0010000010558500520171026000101 00000000000000000000000000000000000000000000000000000000000000000000000000000000000000000000000000000000000000000N 00000000000NCONT   00    00000000000          00000000000000000000000000000000000000000000 000000000000000A000000000000000000000000000000000000000000000 000000000000000000000000000000000000000     00000000                                                                                                                        000000000000000000
F0010000010558600001000000091780800011050500000000000000000201710260002001ITALO RENE HERAZO CARCAMO /CENTRAL DE TORNILLOS   D000000011600000000000000000000000100010010000000000000000000000F0010000010558600120171026000101 00000000000000000000000000000000000000000000000000000000000000000000000000000000000000000000000000000000000000000N 00000000000NCONT   00    00000000000          00000000000000000000000000000000000000000000 000000000000000A000000000000000000000000000000000000000000000 000000000000000000000000000000000000000     00000000                                                                                                                        000000000000000000
F0010000010558600002000000091780800041450500000000000000000201710260002001ITALO RENE HERAZO CARCAMO /CENTRAL DE TORNILLOS   C000000010400000000000000000000000100010010000000000000000000000F0010000010558600220171026000101 00000000000000000000000000000000000000000000000000000000000000000000000000000000000000000000000000000000000000000N 00000000000NCONT   00    00000000000          00000000000000000000000000000000000000000000 000000000000000A000000000000000000000000000000000000000000000 000000000000000000000000000000000000000     00000000                                                                                                                        000000000000000000
