F0010000008129800001000090020547900011050500000000000000000201601180002001COMERCIALIZADORA DAC DEL CARIBE S.A.S.            D000000007500000000000000000000000100010010000000000000000000000F0010000008129800120160118000101 00000000000000000000000000000000000000000000000000000000000000000000000000000000000000000000000000000000000000000N 00000000000NCONT   00    00000000000          00000000000000000000000000000000000000000000 000000000000000A000000000000000000000000000000000000000000000 000000000000000000000000000000000000000     00000000                                                                                                                        000000000000000000
F0010000008129800002000090020547900041450500000000000000000201601180002001COMERCIALIZADORA DAC DEL CARIBE S.A.S.            C000000006600000000000000000000000100010010000000000000000000000F0010000008129800220160118000101 00000000000000000000000000000000000000000000000000000000000000000000000000000000000000000000000000000000000000000N 00000000000NCONT   00    00000000000          00000000000000000000000000000000000000000000 000000000000000A000000000000000000000000000000000000000000000 000000000000000000000000000000000000000     00000000                                                                                                                        000000000000000000
F0010000008129800003000090020547900042505000000000000000000201601180002001COMERCIALIZADORA DAC DEL CARIBE S.A.S.            C000000000900000000000000000000000100010010000000000000000000000F0010000008129800320160118000101 00000000000000000000000000000000000000000000000000000000000000000000000000000000000000000000000000000000000000000N 00000000000NCONT   00    00000000000          00000000000000000000000000000000000000000000 000000000000000A000000000000000000000000000000000000000000000 000000000000000000000000000000000000000     00000000                                                                                                                        000000000000000000
F0010000008129800004000090020547900023658300000000000000000201601180002001COMERCIALIZADORA DAC DEL CARIBE S.A.S.            C000000000052800000000000000000000100010010000000000000000000000F0010000008129800420160118000101 00000000000000000000000000000000000000000000000000000000000000000000000000000000000000000000000000000000000000000N 00000000000NCONT   00    00000000000          00000000000000000000000000000000000000000000 000000000000000A000000000000000000000000000000000000000000000 000000000000000000000000000000000000000     00000000                                                                                                                        000000000000000000
F0010000008129800005000090020547900013552100000000000000000201601180002001COMERCIALIZADORA DAC DEL CARIBE S.A.S.            D000000000052800000000000000000000100010010000000000000000000000F0010000008129800520160118000101 00000000000000000000000000000000000000000000000000000000000000000000000000000000000000000000000000000000000000000N 00000000000NCONT   00    00000000000          00000000000000000000000000000000000000000000 000000000000000A000000000000000000000000000000000000000000000 000000000000000000000000000000000000000     00000000                                                                                                                        000000000000000000
F0010000008129900001000002279694800011050500000000000000000201601180002001BERTHA CECILIA FERNANDEZ ALVAREZ                  D000000001800000000000000000000000100010010000000000000000000000F0010000008129900120160118000101 00000000000000000000000000000000000000000000000000000000000000000000000000000000000000000000000000000000000000000N 00000000000NCONT   00    00000000000          00000000000000000000000000000000000000000000 000000000000000A000000000000000000000000000000000000000000000 000000000000000000000000000000000000000     00000000                                                                                                                        000000000000000000
F0010000008129900002000002279694800041450500000000000000000201601180002001BERTHA CECILIA FERNANDEZ ALVAREZ                  C000000001200000000000000000000000100010010000000000000000000000F0010000008129900220160118000101 00000000000000000000000000000000000000000000000000000000000000000000000000000000000000000000000000000000000000000N 00000000000NCONT   00    00000000000          00000000000000000000000000000000000000000000 000000000000000A000000000000000000000000000000000000000000000 000000000000000000000000000000000000000     00000000                                                                                                                        000000000000000000
F0010000008129900003000002279694800042505000000000000000000201601180002001BERTHA CECILIA FERNANDEZ ALVAREZ                  C000000000600000000000000000000000100010010000000000000000000000F0010000008129900320160118000101 00000000000000000000000000000000000000000000000000000000000000000000000000000000000000000000000000000000000000000N 00000000000NCONT   00    00000000000          00000000000000000000000000000000000000000000 000000000000000A000000000000000000000000000000000000000000000 000000000000000000000000000000000000000     00000000                                                                                                                        000000000000000000
F0010000008129900004000002279694800023658300000000000000000201601180002001BERTHA CECILIA FERNANDEZ ALVAREZ                  C000000000009600000000000000000000100010010000000000000000000000F0010000008129900420160118000101 00000000000000000000000000000000000000000000000000000000000000000000000000000000000000000000000000000000000000000N 00000000000NCONT   00    00000000000          00000000000000000000000000000000000000000000 000000000000000A000000000000000000000000000000000000000000000 000000000000000000000000000000000000000     00000000                                                                                                                        000000000000000000
F0010000008129900005000002279694800013552100000000000000000201601180002001BERTHA CECILIA FERNANDEZ ALVAREZ                  D000000000009600000000000000000000100010010000000000000000000000F0010000008129900520160118000101 00000000000000000000000000000000000000000000000000000000000000000000000000000000000000000000000000000000000000000N 00000000000NCONT   00    00000000000          00000000000000000000000000000000000000000000 000000000000000A000000000000000000000000000000000000000000000 000000000000000000000000000000000000000     00000000                                                                                                                        000000000000000000
F0010000008130000001000080014190300013050500000000000000000201601180002001QUIMINSA LTDA                                     D000000007452000000000000000000000100010010000000000000000000000F0010000008130000120160118000101 00000000000000000000000000000000000000000000000000000000000000000000000000000000000000000000000000000000000000000N 00000000000NCONT   00    00000000000          00000000000000000000000000000000000000000000 000000000000000A000000000000000000000000000000000000000000000 000000000000000000000000000000000000000     00000000                                                                                                                        000000000000000000
F0010000008130000002000080014190300041450500000000000000000201601180002001QUIMINSA LTDA                                     C000000006930000000000000000000000100010010000000000000000000000F0010000008130000220160118000101 00000000000000000000000000000000000000000000000000000000000000000000000000000000000000000000000000000000000000000N 00000000000NCONT   00    00000000000          00000000000000000000000000000000000000000000 000000000000000A000000000000000000000000000000000000000000000 000000000000000000000000000000000000000     00000000                                                                                                                        000000000000000000
F0010000008130000003000080014190300042505000000000000000000201601180002001QUIMINSA LTDA                                     C000000000522000000000000000000000100010010000000000000000000000F0010000008130000320160118000101 00000000000000000000000000000000000000000000000000000000000000000000000000000000000000000000000000000000000000000N 00000000000NCONT   00    00000000000          00000000000000000000000000000000000000000000 000000000000000A000000000000000000000000000000000000000000000 000000000000000000000000000000000000000     00000000                                                                                                                        000000000000000000
F0010000008130000004000080014190300023658300000000000000000201601180002001QUIMINSA LTDA                                     C000000000055400000000000000000000100010010000000000000000000000F0010000008130000420160118000101 00000000000000000000000000000000000000000000000000000000000000000000000000000000000000000000000000000000000000000N 00000000000NCONT   00    00000000000          00000000000000000000000000000000000000000000 000000000000000A000000000000000000000000000000000000000000000 000000000000000000000000000000000000000     00000000                                                                                                                        000000000000000000
F0010000008130000005000080014190300013552100000000000000000201601180002001QUIMINSA LTDA                                     D000000000055400000000000000000000100010010000000000000000000000F0010000008130000520160118000101 00000000000000000000000000000000000000000000000000000000000000000000000000000000000000000000000000000000000000000N 00000000000NCONT   00    00000000000          00000000000000000000000000000000000000000000 000000000000000A000000000000000000000000000000000000000000000 000000000000000000000000000000000000000     00000000                                                                                                                        000000000000000000
F0010000008130100001000002261657700013050500000000000000000201601180002001LILIANA SANCHEZ SOLANO                            D000000026000000000000000000000000100010010000000000000000000000F0010000008130100120160118000101 00000000000000000000000000000000000000000000000000000000000000000000000000000000000000000000000000000000000000000N 00000000000NCONT   00    00000000000          00000000000000000000000000000000000000000000 000000000000000A000000000000000000000000000000000000000000000 000000000000000000000000000000000000000     00000000                                                                                                                        000000000000000000
F0010000008130100002000002261657700041450500000000000000000201601180002001LILIANA SANCHEZ SOLANO                            C000000023000000000000000000000000100010010000000000000000000000F0010000008130100220160118000101 00000000000000000000000000000000000000000000000000000000000000000000000000000000000000000000000000000000000000000N 00000000000NCONT   00    00000000000          00000000000000000000000000000000000000000000 000000000000000A000000000000000000000000000000000000000000000 000000000000000000000000000000000000000     00000000                                                                                                                        000000000000000000
F0010000008130100003000002261657700042505000000000000000000201601180002001LILIANA SANCHEZ SOLANO                            C000000003000000000000000000000000100010010000000000000000000000F0010000008130100320160118000101 00000000000000000000000000000000000000000000000000000000000000000000000000000000000000000000000000000000000000000N 00000000000NCONT   00    00000000000          00000000000000000000000000000000000000000000 000000000000000A000000000000000000000000000000000000000000000 000000000000000000000000000000000000000     00000000                                                                                                                        000000000000000000
F0010000008130100004000002261657700023658300000000000000000201601180002001LILIANA SANCHEZ SOLANO                            C000000000184000000000000000000000100010010000000000000000000000F0010000008130100420160118000101 00000000000000000000000000000000000000000000000000000000000000000000000000000000000000000000000000000000000000000N 00000000000NCONT   00    00000000000          00000000000000000000000000000000000000000000 000000000000000A000000000000000000000000000000000000000000000 000000000000000000000000000000000000000     00000000                                                                                                                        000000000000000000
F0010000008130100005000002261657700013552100000000000000000201601180002001LILIANA SANCHEZ SOLANO                            D000000000184000000000000000000000100010010000000000000000000000F0010000008130100520160118000101 00000000000000000000000000000000000000000000000000000000000000000000000000000000000000000000000000000000000000000N 00000000000NCONT   00    00000000000          00000000000000000000000000000000000000000000 000000000000000A000000000000000000000000000000000000000000000 000000000000000000000000000000000000000     00000000                                                                                                                        000000000000000000
F0010000008130200001000002245670100013050500000000000000000201601180002001YOLANDA  TOBON                                    D000000014658000000000000000000000100010010000000000000000000000F0010000008130200120160118000101 00000000000000000000000000000000000000000000000000000000000000000000000000000000000000000000000000000000000000000N 00000000000NCONT   00    00000000000          00000000000000000000000000000000000000000000 000000000000000A000000000000000000000000000000000000000000000 000000000000000000000000000000000000000     00000000                                                                                                                        000000000000000000
F0010000008130200002000002245670100041450500000000000000000201601180002001YOLANDA  TOBON                                    C000000011160000000000000000000000100010010000000000000000000000F0010000008130200220160118000101 00000000000000000000000000000000000000000000000000000000000000000000000000000000000000000000000000000000000000000N 00000000000NCONT   00    00000000000          00000000000000000000000000000000000000000000 000000000000000A000000000000000000000000000000000000000000000 000000000000000000000000000000000000000     00000000                                                                                                                        000000000000000000
F0010000008130200003000002245670100042505000000000000000000201601180002001YOLANDA  TOBON                                    C000000003498000000000000000000000100010010000000000000000000000F0010000008130200320160118000101 00000000000000000000000000000000000000000000000000000000000000000000000000000000000000000000000000000000000000000N 00000000000NCONT   00    00000000000          00000000000000000000000000000000000000000000 000000000000000A000000000000000000000000000000000000000000000 000000000000000000000000000000000000000     00000000                                                                                                                        000000000000000000
F0010000008130200004000002245670100023658300000000000000000201601180002001YOLANDA  TOBON                                    C000000000089300000000000000000000100010010000000000000000000000F0010000008130200420160118000101 00000000000000000000000000000000000000000000000000000000000000000000000000000000000000000000000000000000000000000N 00000000000NCONT   00    00000000000          00000000000000000000000000000000000000000000 000000000000000A000000000000000000000000000000000000000000000 000000000000000000000000000000000000000     00000000                                                                                                                        000000000000000000
F0010000008130200005000002245670100013552100000000000000000201601180002001YOLANDA  TOBON                                    D000000000089300000000000000000000100010010000000000000000000000F0010000008130200520160118000101 00000000000000000000000000000000000000000000000000000000000000000000000000000000000000000000000000000000000000000N 00000000000NCONT   00    00000000000          00000000000000000000000000000000000000000000 000000000000000A000000000000000000000000000000000000000000000 000000000000000000000000000000000000000     00000000                                                                                                                        000000000000000000
F0010000008130300001000000748239700013050500000000000000000201601180002001RAFAEL NAVARRO URIBE                              D000000024866300000000000000000000100010010000000000000000000000F0010000008130300120160118000101 00000000000000000000000000000000000000000000000000000000000000000000000000000000000000000000000000000000000000000N 00000000000NCONT   00    00000000000          00000000000000000000000000000000000000000000 000000000000000A000000000000000000000000000000000000000000000 000000000000000000000000000000000000000     00000000                                                                                                                        000000000000000000
F0010000008130300002000000748239700041450500000000000000000201601180002001RAFAEL NAVARRO URIBE                              C000000011960000000000000000000000100010010000000000000000000000F0010000008130300220160118000101 00000000000000000000000000000000000000000000000000000000000000000000000000000000000000000000000000000000000000000N 00000000000NCONT   00    00000000000          00000000000000000000000000000000000000000000 000000000000000A000000000000000000000000000000000000000000000 000000000000000000000000000000000000000     00000000                                                                                                                        000000000000000000
F0010000008130300003000000748239700042505000000000000000000201601180002001RAFAEL NAVARRO URIBE                              C000000012906300000000000000000000100010010000000000000000000000F0010000008130300320160118000101 00000000000000000000000000000000000000000000000000000000000000000000000000000000000000000000000000000000000000000N 00000000000NCONT   00    00000000000          00000000000000000000000000000000000000000000 000000000000000A000000000000000000000000000000000000000000000 000000000000000000000000000000000000000     00000000                                                                                                                        000000000000000000
F0010000008130300004000000748239700023658300000000000000000201601180002001RAFAEL NAVARRO URIBE                              C000000000095700000000000000000000100010010000000000000000000000F0010000008130300420160118000101 00000000000000000000000000000000000000000000000000000000000000000000000000000000000000000000000000000000000000000N 00000000000NCONT   00    00000000000          00000000000000000000000000000000000000000000 000000000000000A000000000000000000000000000000000000000000000 000000000000000000000000000000000000000     00000000                                                                                                                        000000000000000000
F0010000008130300005000000748239700013552100000000000000000201601180002001RAFAEL NAVARRO URIBE                              D000000000095700000000000000000000100010010000000000000000000000F0010000008130300520160118000101 00000000000000000000000000000000000000000000000000000000000000000000000000000000000000000000000000000000000000000N 00000000000NCONT   00    00000000000          00000000000000000000000000000000000000000000 000000000000000A000000000000000000000000000000000000000000000 000000000000000000000000000000000000000     00000000                                                                                                                        000000000000000000
F0010000008130400001000080016664500013050500000000000000000201601180002001TELAPLAS PANCER SAS                               D000000067300000000000000000000000100010010000000000000000000000F0010000008130400120160118000101 00000000000000000000000000000000000000000000000000000000000000000000000000000000000000000000000000000000000000000N 00000000000NCONT   00    00000000000          00000000000000000000000000000000000000000000 000000000000000A000000000000000000000000000000000000000000000 000000000000000000000000000000000000000     00000000                                                                                                                        000000000000000000
F0010000008130400002000080016664500041450500000000000000000201601180002001TELAPLAS PANCER SAS                               C000000056570000000000000000000000100010010000000000000000000000F0010000008130400220160118000101 00000000000000000000000000000000000000000000000000000000000000000000000000000000000000000000000000000000000000000N 00000000000NCONT   00    00000000000          00000000000000000000000000000000000000000000 000000000000000A000000000000000000000000000000000000000000000 000000000000000000000000000000000000000     00000000                                                                                                                        000000000000000000
F0010000008130400003000080016664500042505000000000000000000201601180002001TELAPLAS PANCER SAS                               C000000010730000000000000000000000100010010000000000000000000000F0010000008130400320160118000101 00000000000000000000000000000000000000000000000000000000000000000000000000000000000000000000000000000000000000000N 00000000000NCONT   00    00000000000          00000000000000000000000000000000000000000000 000000000000000A000000000000000000000000000000000000000000000 000000000000000000000000000000000000000     00000000                                                                                                                        000000000000000000
F0010000008130400004000080016664500023658300000000000000000201601180002001TELAPLAS PANCER SAS                               C000000000452600000000000000000000100010010000000000000000000000F0010000008130400420160118000101 00000000000000000000000000000000000000000000000000000000000000000000000000000000000000000000000000000000000000000N 00000000000NCONT   00    00000000000          00000000000000000000000000000000000000000000 000000000000000A000000000000000000000000000000000000000000000 000000000000000000000000000000000000000     00000000                                                                                                                        000000000000000000
F0010000008130400005000080016664500013552100000000000000000201601180002001TELAPLAS PANCER SAS                               D000000000452600000000000000000000100010010000000000000000000000F0010000008130400520160118000101 00000000000000000000000000000000000000000000000000000000000000000000000000000000000000000000000000000000000000000N 00000000000NCONT   00    00000000000          00000000000000000000000000000000000000000000 000000000000000A000000000000000000000000000000000000000000000 000000000000000000000000000000000000000     00000000                                                                                                                        000000000000000000
F0010000008130500001000080023327700013050500000000000000000201601180002001DISINCO LTDA                                      D000000010400500000000000000000000100010010000000000000000000000F0010000008130500120160118000101 00000000000000000000000000000000000000000000000000000000000000000000000000000000000000000000000000000000000000000N 00000000000NCONT   00    00000000000          00000000000000000000000000000000000000000000 000000000000000A000000000000000000000000000000000000000000000 000000000000000000000000000000000000000     00000000                                                                                                                        000000000000000000
F0010000008130500002000080023327700041450500000000000000000201601180002001DISINCO LTDA                                      C000000009900000000000000000000000100010010000000000000000000000F0010000008130500220160118000101 00000000000000000000000000000000000000000000000000000000000000000000000000000000000000000000000000000000000000000N 00000000000NCONT   00    00000000000          00000000000000000000000000000000000000000000 000000000000000A000000000000000000000000000000000000000000000 000000000000000000000000000000000000000     00000000                                                                                                                        000000000000000000
F0010000008130500003000080023327700042505000000000000000000201601180002001DISINCO LTDA                                      C000000000500500000000000000000000100010010000000000000000000000F0010000008130500320160118000101 00000000000000000000000000000000000000000000000000000000000000000000000000000000000000000000000000000000000000000N 00000000000NCONT   00    00000000000          00000000000000000000000000000000000000000000 000000000000000A000000000000000000000000000000000000000000000 000000000000000000000000000000000000000     00000000                                                                                                                        000000000000000000
F0010000008130500004000080023327700023658300000000000000000201601180002001DISINCO LTDA                                      C000000000079200000000000000000000100010010000000000000000000000F0010000008130500420160118000101 00000000000000000000000000000000000000000000000000000000000000000000000000000000000000000000000000000000000000000N 00000000000NCONT   00    00000000000          00000000000000000000000000000000000000000000 000000000000000A000000000000000000000000000000000000000000000 000000000000000000000000000000000000000     00000000                                                                                                                        000000000000000000
F0010000008130500005000080023327700013552100000000000000000201601180002001DISINCO LTDA                                      D000000000079200000000000000000000100010010000000000000000000000F0010000008130500520160118000101 00000000000000000000000000000000000000000000000000000000000000000000000000000000000000000000000000000000000000000N 00000000000NCONT   00    00000000000          00000000000000000000000000000000000000000000 000000000000000A000000000000000000000000000000000000000000000 000000000000000000000000000000000000000     00000000                                                                                                                        000000000000000000
F0010000008130600001000089011492400013050500000000000000000201601180002001AGE. CAUCHO SOL DE LA COSTA  SAS                  D000000123286500000000000000000000100010010000000000000000000000F0010000008130600120160118000101 00000000000000000000000000000000000000000000000000000000000000000000000000000000000000000000000000000000000000000N 00000000000NCONT   00    00000000000          00000000000000000000000000000000000000000000 000000000000000A000000000000000000000000000000000000000000000 000000000000000000000000000000000000000     00000000                                                                                                                        000000000000000000
F0010000008130600002000089011492400041450500000000000000000201601180002001AGE. CAUCHO SOL DE LA COSTA  SAS                  C000000067760000000000000000000000100010010000000000000000000000F0010000008130600220160118000101 00000000000000000000000000000000000000000000000000000000000000000000000000000000000000000000000000000000000000000N 00000000000NCONT   00    00000000000          00000000000000000000000000000000000000000000 000000000000000A000000000000000000000000000000000000000000000 000000000000000000000000000000000000000     00000000                                                                                                                        000000000000000000
F0010000008130600003000089011492400042505000000000000000000201601180002001AGE. CAUCHO SOL DE LA COSTA  SAS                  C000000055526500000000000000000000100010010000000000000000000000F0010000008130600320160118000101 00000000000000000000000000000000000000000000000000000000000000000000000000000000000000000000000000000000000000000N 00000000000NCONT   00    00000000000          00000000000000000000000000000000000000000000 000000000000000A000000000000000000000000000000000000000000000 000000000000000000000000000000000000000     00000000                                                                                                                        000000000000000000
F0010000008130600004000089011492400023658300000000000000000201601180002001AGE. CAUCHO SOL DE LA COSTA  SAS                  C000000000542100000000000000000000100010010000000000000000000000F0010000008130600420160118000101 00000000000000000000000000000000000000000000000000000000000000000000000000000000000000000000000000000000000000000N 00000000000NCONT   00    00000000000          00000000000000000000000000000000000000000000 000000000000000A000000000000000000000000000000000000000000000 000000000000000000000000000000000000000     00000000                                                                                                                        000000000000000000
F0010000008130600005000089011492400013552100000000000000000201601180002001AGE. CAUCHO SOL DE LA COSTA  SAS                  D000000000542100000000000000000000100010010000000000000000000000F0010000008130600520160118000101 00000000000000000000000000000000000000000000000000000000000000000000000000000000000000000000000000000000000000000N 00000000000NCONT   00    00000000000          00000000000000000000000000000000000000000000 000000000000000A000000000000000000000000000000000000000000000 000000000000000000000000000000000000000     00000000                                                                                                                        000000000000000000
F0010000008130700001000089011492400013050500000000000000000201601180002001AGE. CAUCHO SOL DE LA COSTA  SAS                  D000000084360300000000000000000000100010010000000000000000000000F0010000008130700120160118000101 00000000000000000000000000000000000000000000000000000000000000000000000000000000000000000000000000000000000000000N 00000000000NCONT   00    00000000000          00000000000000000000000000000000000000000000 000000000000000A000000000000000000000000000000000000000000000 000000000000000000000000000000000000000     00000000                                                                                                                        000000000000000000
F0010000008130700002000089011492400041450500000000000000000201601180002001AGE. CAUCHO SOL DE LA COSTA  SAS                  C000000049360000000000000000000000100010010000000000000000000000F0010000008130700220160118000101 00000000000000000000000000000000000000000000000000000000000000000000000000000000000000000000000000000000000000000N 00000000000NCONT   00    00000000000          00000000000000000000000000000000000000000000 000000000000000A000000000000000000000000000000000000000000000 000000000000000000000000000000000000000     00000000                                                                                                                        000000000000000000
F0010000008130700003000089011492400042505000000000000000000201601180002001AGE. CAUCHO SOL DE LA COSTA  SAS                  C000000035000300000000000000000000100010010000000000000000000000F0010000008130700320160118000101 00000000000000000000000000000000000000000000000000000000000000000000000000000000000000000000000000000000000000000N 00000000000NCONT   00    00000000000          00000000000000000000000000000000000000000000 000000000000000A000000000000000000000000000000000000000000000 000000000000000000000000000000000000000     00000000                                                                                                                        000000000000000000
F0010000008130700004000089011492400023658300000000000000000201601180002001AGE. CAUCHO SOL DE LA COSTA  SAS                  C000000000394900000000000000000000100010010000000000000000000000F0010000008130700420160118000101 00000000000000000000000000000000000000000000000000000000000000000000000000000000000000000000000000000000000000000N 00000000000NCONT   00    00000000000          00000000000000000000000000000000000000000000 000000000000000A000000000000000000000000000000000000000000000 000000000000000000000000000000000000000     00000000                                                                                                                        000000000000000000
F0010000008130700005000089011492400013552100000000000000000201601180002001AGE. CAUCHO SOL DE LA COSTA  SAS                  D000000000394900000000000000000000100010010000000000000000000000F0010000008130700520160118000101 00000000000000000000000000000000000000000000000000000000000000000000000000000000000000000000000000000000000000000N 00000000000NCONT   00    00000000000          00000000000000000000000000000000000000000000 000000000000000A000000000000000000000000000000000000000000000 000000000000000000000000000000000000000     00000000                                                                                                                        000000000000000000
F0010000008130800001000080004943800013050500000000000000000201601180002001PAPELERIA EL CID S.A.                             D000000049431500000000000000000000100010010000000000000000000000F0010000008130800120160118000101 00000000000000000000000000000000000000000000000000000000000000000000000000000000000000000000000000000000000000000N 00000000000NCONT   00    00000000000          00000000000000000000000000000000000000000000 000000000000000A000000000000000000000000000000000000000000000 000000000000000000000000000000000000000     00000000                                                                                                                        000000000000000000
F0010000008130800002000080004943800041450500000000000000000201601180002001PAPELERIA EL CID S.A.                             C000000035441000000000000000000000100010010000000000000000000000F0010000008130800220160118000101 00000000000000000000000000000000000000000000000000000000000000000000000000000000000000000000000000000000000000000N 00000000000NCONT   00    00000000000          00000000000000000000000000000000000000000000 000000000000000A000000000000000000000000000000000000000000000 000000000000000000000000000000000000000     00000000                                                                                                                        000000000000000000
F0010000008130800003000080004943800042505000000000000000000201601180002001PAPELERIA EL CID S.A.                             C000000013990500000000000000000000100010010000000000000000000000F0010000008130800320160118000101 00000000000000000000000000000000000000000000000000000000000000000000000000000000000000000000000000000000000000000N 00000000000NCONT   00    00000000000          00000000000000000000000000000000000000000000 000000000000000A000000000000000000000000000000000000000000000 000000000000000000000000000000000000000     00000000                                                                                                                        000000000000000000
F0010000008130800004000080004943800023658300000000000000000201601180002001PAPELERIA EL CID S.A.                             C000000000283500000000000000000000100010010000000000000000000000F0010000008130800420160118000101 00000000000000000000000000000000000000000000000000000000000000000000000000000000000000000000000000000000000000000N 00000000000NCONT   00    00000000000          00000000000000000000000000000000000000000000 000000000000000A000000000000000000000000000000000000000000000 000000000000000000000000000000000000000     00000000                                                                                                                        000000000000000000
F0010000008130800005000080004943800013552100000000000000000201601180002001PAPELERIA EL CID S.A.                             D000000000283500000000000000000000100010010000000000000000000000F0010000008130800520160118000101 00000000000000000000000000000000000000000000000000000000000000000000000000000000000000000000000000000000000000000N 00000000000NCONT   00    00000000000          00000000000000000000000000000000000000000000 000000000000000A000000000000000000000000000000000000000000000 000000000000000000000000000000000000000     00000000                                                                                                                        000000000000000000
F0010000008130900001000080004943800013050500000000000000000201601180002001PAPELERIA EL CID S.A.                             D000000037981800000000000000000000100010010000000000000000000000F0010000008130900120160118000101 00000000000000000000000000000000000000000000000000000000000000000000000000000000000000000000000000000000000000000N 00000000000NCONT   00    00000000000          00000000000000000000000000000000000000000000 000000000000000A000000000000000000000000000000000000000000000 000000000000000000000000000000000000000     00000000                                                                                                                        000000000000000000
F0010000008130900002000080004943800041450500000000000000000201601180002001PAPELERIA EL CID S.A.                             C000000022800000000000000000000000100010010000000000000000000000F0010000008130900220160118000101 00000000000000000000000000000000000000000000000000000000000000000000000000000000000000000000000000000000000000000N 00000000000NCONT   00    00000000000          00000000000000000000000000000000000000000000 000000000000000A000000000000000000000000000000000000000000000 000000000000000000000000000000000000000     00000000                                                                                                                        000000000000000000
F0010000008130900003000080004943800042505000000000000000000201601180002001PAPELERIA EL CID S.A.                             C000000015181800000000000000000000100010010000000000000000000000F0010000008130900320160118000101 00000000000000000000000000000000000000000000000000000000000000000000000000000000000000000000000000000000000000000N 00000000000NCONT   00    00000000000          00000000000000000000000000000000000000000000 000000000000000A000000000000000000000000000000000000000000000 000000000000000000000000000000000000000     00000000                                                                                                                        000000000000000000
F0010000008130900004000080004943800023658300000000000000000201601180002001PAPELERIA EL CID S.A.                             C000000000182400000000000000000000100010010000000000000000000000F0010000008130900420160118000101 00000000000000000000000000000000000000000000000000000000000000000000000000000000000000000000000000000000000000000N 00000000000NCONT   00    00000000000          00000000000000000000000000000000000000000000 000000000000000A000000000000000000000000000000000000000000000 000000000000000000000000000000000000000     00000000                                                                                                                        000000000000000000
F0010000008130900005000080004943800013552100000000000000000201601180002001PAPELERIA EL CID S.A.                             D000000000182400000000000000000000100010010000000000000000000000F0010000008130900520160118000101 00000000000000000000000000000000000000000000000000000000000000000000000000000000000000000000000000000000000000000N 00000000000NCONT   00    00000000000          00000000000000000000000000000000000000000000 000000000000000A000000000000000000000000000000000000000000000 000000000000000000000000000000000000000     00000000                                                                                                                        000000000000000000
F0010000008131000001000000869238600011050500000000000000000201601180002001EDUARDO MERIÑO ALMANZA                           D000000001000000000000000000000000100010010000000000000000000000F0010000008131000120160118000101 00000000000000000000000000000000000000000000000000000000000000000000000000000000000000000000000000000000000000000N 00000000000NCONT   00    00000000000          00000000000000000000000000000000000000000000 000000000000000A000000000000000000000000000000000000000000000 000000000000000000000000000000000000000     00000000                                                                                                                        000000000000000000
F0010000008131000002000000869238600041450500000000000000000201601180002001EDUARDO MERIÑO ALMANZA                           C000000000900000000000000000000000100010010000000000000000000000F0010000008131000220160118000101 00000000000000000000000000000000000000000000000000000000000000000000000000000000000000000000000000000000000000000N 00000000000NCONT   00    00000000000          00000000000000000000000000000000000000000000 000000000000000A000000000000000000000000000000000000000000000 000000000000000000000000000000000000000     00000000                                                                                                                        000000000000000000
F0010000008131000003000000869238600042505000000000000000000201601180002001EDUARDO MERIÑO ALMANZA                           C000000000100000000000000000000000100010010000000000000000000000F0010000008131000320160118000101 00000000000000000000000000000000000000000000000000000000000000000000000000000000000000000000000000000000000000000N 00000000000NCONT   00    00000000000          00000000000000000000000000000000000000000000 000000000000000A000000000000000000000000000000000000000000000 000000000000000000000000000000000000000     00000000                                                                                                                        000000000000000000
F0010000008131000004000000869238600023658300000000000000000201601180002001EDUARDO MERIÑO ALMANZA                           C000000000007200000000000000000000100010010000000000000000000000F0010000008131000420160118000101 00000000000000000000000000000000000000000000000000000000000000000000000000000000000000000000000000000000000000000N 00000000000NCONT   00    00000000000          00000000000000000000000000000000000000000000 000000000000000A000000000000000000000000000000000000000000000 000000000000000000000000000000000000000     00000000                                                                                                                        000000000000000000
F0010000008131000005000000869238600013552100000000000000000201601180002001EDUARDO MERIÑO ALMANZA                           D000000000007200000000000000000000100010010000000000000000000000F0010000008131000520160118000101 00000000000000000000000000000000000000000000000000000000000000000000000000000000000000000000000000000000000000000N 00000000000NCONT   00    00000000000          00000000000000000000000000000000000000000000 000000000000000A000000000000000000000000000000000000000000000 000000000000000000000000000000000000000     00000000                                                                                                                        000000000000000000
F0010000008131100001000001022529300011050500000000000000000201601180002001ALBERTO ALVAREZ ISAZA                             D000000000700000000000000000000000100010010000000000000000000000F0010000008131100120160118000101 00000000000000000000000000000000000000000000000000000000000000000000000000000000000000000000000000000000000000000N 00000000000NCONT   00    00000000000          00000000000000000000000000000000000000000000 000000000000000A000000000000000000000000000000000000000000000 000000000000000000000000000000000000000     00000000                                                                                                                        000000000000000000
F0010000008131100002000001022529300041450500000000000000000201601180002001ALBERTO ALVAREZ ISAZA                             C000000000700000000000000000000000100010010000000000000000000000F0010000008131100220160118000101 00000000000000000000000000000000000000000000000000000000000000000000000000000000000000000000000000000000000000000N 00000000000NCONT   00    00000000000          00000000000000000000000000000000000000000000 000000000000000A000000000000000000000000000000000000000000000 000000000000000000000000000000000000000     00000000                                                                                                                        000000000000000000
F0010000008131100003000001022529300042505000000000000000000201601180002001ALBERTO ALVAREZ ISAZA                             C000000000000000000000000000000000100010010000000000000000000000F0010000008131100320160118000101 00000000000000000000000000000000000000000000000000000000000000000000000000000000000000000000000000000000000000000N 00000000000NCONT   00    00000000000          00000000000000000000000000000000000000000000 000000000000000A000000000000000000000000000000000000000000000 000000000000000000000000000000000000000     00000000                                                                                                                        000000000000000000
F0010000008131100004000001022529300023658300000000000000000201601180002001ALBERTO ALVAREZ ISAZA                             C000000000005600000000000000000000100010010000000000000000000000F0010000008131100420160118000101 00000000000000000000000000000000000000000000000000000000000000000000000000000000000000000000000000000000000000000N 00000000000NCONT   00    00000000000          00000000000000000000000000000000000000000000 000000000000000A000000000000000000000000000000000000000000000 000000000000000000000000000000000000000     00000000                                                                                                                        000000000000000000
F0010000008131100005000001022529300013552100000000000000000201601180002001ALBERTO ALVAREZ ISAZA                             D000000000005600000000000000000000100010010000000000000000000000F0010000008131100520160118000101 00000000000000000000000000000000000000000000000000000000000000000000000000000000000000000000000000000000000000000N 00000000000NCONT   00    00000000000          00000000000000000000000000000000000000000000 000000000000000A000000000000000000000000000000000000000000000 000000000000000000000000000000000000000     00000000                                                                                                                        000000000000000000
F0010000008131200001000001022529300011050500000000000000000201601180002001ALBERTO ALVAREZ ISAZA                             D000000002460000000000000000000000100010010000000000000000000000F0010000008131200120160118000101 00000000000000000000000000000000000000000000000000000000000000000000000000000000000000000000000000000000000000000N 00000000000NCONT   00    00000000000          00000000000000000000000000000000000000000000 000000000000000A000000000000000000000000000000000000000000000 000000000000000000000000000000000000000     00000000                                                                                                                        000000000000000000
F0010000008131200002000001022529300041450500000000000000000201601180002001ALBERTO ALVAREZ ISAZA                             C000000002460000000000000000000000100010010000000000000000000000F0010000008131200220160118000101 00000000000000000000000000000000000000000000000000000000000000000000000000000000000000000000000000000000000000000N 00000000000NCONT   00    00000000000          00000000000000000000000000000000000000000000 000000000000000A000000000000000000000000000000000000000000000 000000000000000000000000000000000000000     00000000                                                                                                                        000000000000000000
F0010000008131200003000001022529300042505000000000000000000201601180002001ALBERTO ALVAREZ ISAZA                             C000000000000000000000000000000000100010010000000000000000000000F0010000008131200320160118000101 00000000000000000000000000000000000000000000000000000000000000000000000000000000000000000000000000000000000000000N 00000000000NCONT   00    00000000000          00000000000000000000000000000000000000000000 000000000000000A000000000000000000000000000000000000000000000 000000000000000000000000000000000000000     00000000                                                                                                                        000000000000000000
F0010000008131200004000001022529300023658300000000000000000201601180002001ALBERTO ALVAREZ ISAZA                             C000000000019700000000000000000000100010010000000000000000000000F0010000008131200420160118000101 00000000000000000000000000000000000000000000000000000000000000000000000000000000000000000000000000000000000000000N 00000000000NCONT   00    00000000000          00000000000000000000000000000000000000000000 000000000000000A000000000000000000000000000000000000000000000 000000000000000000000000000000000000000     00000000                                                                                                                        000000000000000000
F0010000008131200005000001022529300013552100000000000000000201601180002001ALBERTO ALVAREZ ISAZA                             D000000000019700000000000000000000100010010000000000000000000000F0010000008131200520160118000101 00000000000000000000000000000000000000000000000000000000000000000000000000000000000000000000000000000000000000000N 00000000000NCONT   00    00000000000          00000000000000000000000000000000000000000000 000000000000000A000000000000000000000000000000000000000000000 000000000000000000000000000000000000000     00000000                                                                                                                        000000000000000000
F0010000008131300001000001022529300011050500000000000000000201601180002001ALBERTO ALVAREZ ISAZA                             D000000001640000000000000000000000100010010000000000000000000000F0010000008131300120160118000101 00000000000000000000000000000000000000000000000000000000000000000000000000000000000000000000000000000000000000000N 00000000000NCONT   00    00000000000          00000000000000000000000000000000000000000000 000000000000000A000000000000000000000000000000000000000000000 000000000000000000000000000000000000000     00000000                                                                                                                        000000000000000000
F0010000008131300002000001022529300041450500000000000000000201601180002001ALBERTO ALVAREZ ISAZA                             C000000001640000000000000000000000100010010000000000000000000000F0010000008131300220160118000101 00000000000000000000000000000000000000000000000000000000000000000000000000000000000000000000000000000000000000000N 00000000000NCONT   00    00000000000          00000000000000000000000000000000000000000000 000000000000000A000000000000000000000000000000000000000000000 000000000000000000000000000000000000000     00000000                                                                                                                        000000000000000000
F0010000008131300003000001022529300042505000000000000000000201601180002001ALBERTO ALVAREZ ISAZA                             C000000000000000000000000000000000100010010000000000000000000000F0010000008131300320160118000101 00000000000000000000000000000000000000000000000000000000000000000000000000000000000000000000000000000000000000000N 00000000000NCONT   00    00000000000          00000000000000000000000000000000000000000000 000000000000000A000000000000000000000000000000000000000000000 000000000000000000000000000000000000000     00000000                                                                                                                        000000000000000000
F0010000008131300004000001022529300023658300000000000000000201601180002001ALBERTO ALVAREZ ISAZA                             C000000000013100000000000000000000100010010000000000000000000000F0010000008131300420160118000101 00000000000000000000000000000000000000000000000000000000000000000000000000000000000000000000000000000000000000000N 00000000000NCONT   00    00000000000          00000000000000000000000000000000000000000000 000000000000000A000000000000000000000000000000000000000000000 000000000000000000000000000000000000000     00000000                                                                                                                        000000000000000000
F0010000008131300005000001022529300013552100000000000000000201601180002001ALBERTO ALVAREZ ISAZA                             D000000000013100000000000000000000100010010000000000000000000000F0010000008131300520160118000101 00000000000000000000000000000000000000000000000000000000000000000000000000000000000000000000000000000000000000000N 00000000000NCONT   00    00000000000          00000000000000000000000000000000000000000000 000000000000000A000000000000000000000000000000000000000000000 000000000000000000000000000000000000000     00000000                                                                                                                        000000000000000000
F0010000008131400001000080202350700011050500000000000000000201601180002001CONNY DE LA COSTA SAS                             D000000004500000000000000000000000100010010000000000000000000000F0010000008131400120160118000101 00000000000000000000000000000000000000000000000000000000000000000000000000000000000000000000000000000000000000000N 00000000000NCONT   00    00000000000          00000000000000000000000000000000000000000000 000000000000000A000000000000000000000000000000000000000000000 000000000000000000000000000000000000000     00000000                                                                                                                        000000000000000000
F0010000008131400002000080202350700041450500000000000000000201601180002001CONNY DE LA COSTA SAS                             C000000004400000000000000000000000100010010000000000000000000000F0010000008131400220160118000101 00000000000000000000000000000000000000000000000000000000000000000000000000000000000000000000000000000000000000000N 00000000000NCONT   00    00000000000          00000000000000000000000000000000000000000000 000000000000000A000000000000000000000000000000000000000000000 000000000000000000000000000000000000000     00000000                                                                                                                        000000000000000000
F0010000008131400003000080202350700042505000000000000000000201601180002001CONNY DE LA COSTA SAS                             C000000000100000000000000000000000100010010000000000000000000000F0010000008131400320160118000101 00000000000000000000000000000000000000000000000000000000000000000000000000000000000000000000000000000000000000000N 00000000000NCONT   00    00000000000          00000000000000000000000000000000000000000000 000000000000000A000000000000000000000000000000000000000000000 000000000000000000000000000000000000000     00000000                                                                                                                        000000000000000000
F0010000008131400004000080202350700023658300000000000000000201601180002001CONNY DE LA COSTA SAS                             C000000000035200000000000000000000100010010000000000000000000000F0010000008131400420160118000101 00000000000000000000000000000000000000000000000000000000000000000000000000000000000000000000000000000000000000000N 00000000000NCONT   00    00000000000          00000000000000000000000000000000000000000000 000000000000000A000000000000000000000000000000000000000000000 000000000000000000000000000000000000000     00000000                                                                                                                        000000000000000000
F0010000008131400005000080202350700013552100000000000000000201601180002001CONNY DE LA COSTA SAS                             D000000000035200000000000000000000100010010000000000000000000000F0010000008131400520160118000101 00000000000000000000000000000000000000000000000000000000000000000000000000000000000000000000000000000000000000000N 00000000000NCONT   00    00000000000          00000000000000000000000000000000000000000000 000000000000000A000000000000000000000000000000000000000000000 000000000000000000000000000000000000000     00000000                                                                                                                        000000000000000000
F0010000008131500001000080202350700011050500000000000000000201601180002001CONNY DE LA COSTA SAS                             D000000000900000000000000000000000100010010000000000000000000000F0010000008131500120160118000101 00000000000000000000000000000000000000000000000000000000000000000000000000000000000000000000000000000000000000000N 00000000000NCONT   00    00000000000          00000000000000000000000000000000000000000000 000000000000000A000000000000000000000000000000000000000000000 000000000000000000000000000000000000000     00000000                                                                                                                        000000000000000000
F0010000008131500002000080202350700041450500000000000000000201601180002001CONNY DE LA COSTA SAS                             C000000000800000000000000000000000100010010000000000000000000000F0010000008131500220160118000101 00000000000000000000000000000000000000000000000000000000000000000000000000000000000000000000000000000000000000000N 00000000000NCONT   00    00000000000          00000000000000000000000000000000000000000000 000000000000000A000000000000000000000000000000000000000000000 000000000000000000000000000000000000000     00000000                                                                                                                        000000000000000000
F0010000008131500003000080202350700042505000000000000000000201601180002001CONNY DE LA COSTA SAS                             C000000000100000000000000000000000100010010000000000000000000000F0010000008131500320160118000101 00000000000000000000000000000000000000000000000000000000000000000000000000000000000000000000000000000000000000000N 00000000000NCONT   00    00000000000          00000000000000000000000000000000000000000000 000000000000000A000000000000000000000000000000000000000000000 000000000000000000000000000000000000000     00000000                                                                                                                        000000000000000000
F0010000008131500004000080202350700023658300000000000000000201601180002001CONNY DE LA COSTA SAS                             C000000000006400000000000000000000100010010000000000000000000000F0010000008131500420160118000101 00000000000000000000000000000000000000000000000000000000000000000000000000000000000000000000000000000000000000000N 00000000000NCONT   00    00000000000          00000000000000000000000000000000000000000000 000000000000000A000000000000000000000000000000000000000000000 000000000000000000000000000000000000000     00000000                                                                                                                        000000000000000000
F0010000008131500005000080202350700013552100000000000000000201601180002001CONNY DE LA COSTA SAS                             D000000000006400000000000000000000100010010000000000000000000000F0010000008131500520160118000101 00000000000000000000000000000000000000000000000000000000000000000000000000000000000000000000000000000000000000000N 00000000000NCONT   00    00000000000          00000000000000000000000000000000000000000000 000000000000000A000000000000000000000000000000000000000000000 000000000000000000000000000000000000000     00000000                                                                                                                        000000000000000000
F0010000008131600001000000742399700011050500000000000000000201601180002001CACHARRERIA EL NUEVO CHADID                       D000000006800000000000000000000000100010010000000000000000000000F0010000008131600120160118000101 00000000000000000000000000000000000000000000000000000000000000000000000000000000000000000000000000000000000000000N 00000000000NCONT   00    00000000000          00000000000000000000000000000000000000000000 000000000000000A000000000000000000000000000000000000000000000 000000000000000000000000000000000000000     00000000                                                                                                                        000000000000000000
F0010000008131600002000000742399700041450500000000000000000201601180002001CACHARRERIA EL NUEVO CHADID                       C000000005500000000000000000000000100010010000000000000000000000F0010000008131600220160118000101 00000000000000000000000000000000000000000000000000000000000000000000000000000000000000000000000000000000000000000N 00000000000NCONT   00    00000000000          00000000000000000000000000000000000000000000 000000000000000A000000000000000000000000000000000000000000000 000000000000000000000000000000000000000     00000000                                                                                                                        000000000000000000
F0010000008131600003000000742399700042505000000000000000000201601180002001CACHARRERIA EL NUEVO CHADID                       C000000001300000000000000000000000100010010000000000000000000000F0010000008131600320160118000101 00000000000000000000000000000000000000000000000000000000000000000000000000000000000000000000000000000000000000000N 00000000000NCONT   00    00000000000          00000000000000000000000000000000000000000000 000000000000000A000000000000000000000000000000000000000000000 000000000000000000000000000000000000000     00000000                                                                                                                        000000000000000000
F0010000008131600004000000742399700023658300000000000000000201601180002001CACHARRERIA EL NUEVO CHADID                       C000000000044000000000000000000000100010010000000000000000000000F0010000008131600420160118000101 00000000000000000000000000000000000000000000000000000000000000000000000000000000000000000000000000000000000000000N 00000000000NCONT   00    00000000000          00000000000000000000000000000000000000000000 000000000000000A000000000000000000000000000000000000000000000 000000000000000000000000000000000000000     00000000                                                                                                                        000000000000000000
F0010000008131600005000000742399700013552100000000000000000201601180002001CACHARRERIA EL NUEVO CHADID                       D000000000044000000000000000000000100010010000000000000000000000F0010000008131600520160118000101 00000000000000000000000000000000000000000000000000000000000000000000000000000000000000000000000000000000000000000N 00000000000NCONT   00    00000000000          00000000000000000000000000000000000000000000 000000000000000A000000000000000000000000000000000000000000000 000000000000000000000000000000000000000     00000000                                                                                                                        000000000000000000
F0010000008131700001000000742399700011050500000000000000000201601180002001CACHARRERIA EL NUEVO CHADID                       D000000001300000000000000000000000100010010000000000000000000000F0010000008131700120160118000101 00000000000000000000000000000000000000000000000000000000000000000000000000000000000000000000000000000000000000000N 00000000000NCONT   00    00000000000          00000000000000000000000000000000000000000000 000000000000000A000000000000000000000000000000000000000000000 000000000000000000000000000000000000000     00000000                                                                                                                        000000000000000000
F0010000008131700002000000742399700041450500000000000000000201601180002001CACHARRERIA EL NUEVO CHADID                       C000000001100000000000000000000000100010010000000000000000000000F0010000008131700220160118000101 00000000000000000000000000000000000000000000000000000000000000000000000000000000000000000000000000000000000000000N 00000000000NCONT   00    00000000000          00000000000000000000000000000000000000000000 000000000000000A000000000000000000000000000000000000000000000 000000000000000000000000000000000000000     00000000                                                                                                                        000000000000000000
F0010000008131700003000000742399700042505000000000000000000201601180002001CACHARRERIA EL NUEVO CHADID                       C000000000200000000000000000000000100010010000000000000000000000F0010000008131700320160118000101 00000000000000000000000000000000000000000000000000000000000000000000000000000000000000000000000000000000000000000N 00000000000NCONT   00    00000000000          00000000000000000000000000000000000000000000 000000000000000A000000000000000000000000000000000000000000000 000000000000000000000000000000000000000     00000000                                                                                                                        000000000000000000
F0010000008131700004000000742399700023658300000000000000000201601180002001CACHARRERIA EL NUEVO CHADID                       C000000000008800000000000000000000100010010000000000000000000000F0010000008131700420160118000101 00000000000000000000000000000000000000000000000000000000000000000000000000000000000000000000000000000000000000000N 00000000000NCONT   00    00000000000          00000000000000000000000000000000000000000000 000000000000000A000000000000000000000000000000000000000000000 000000000000000000000000000000000000000     00000000                                                                                                                        000000000000000000
F0010000008131700005000000742399700013552100000000000000000201601180002001CACHARRERIA EL NUEVO CHADID                       D000000000008800000000000000000000100010010000000000000000000000F0010000008131700520160118000101 00000000000000000000000000000000000000000000000000000000000000000000000000000000000000000000000000000000000000000N 00000000000NCONT   00    00000000000          00000000000000000000000000000000000000000000 000000000000000A000000000000000000000000000000000000000000000 000000000000000000000000000000000000000     00000000                                                                                                                        000000000000000000
F0010000008131800001000086003979400011050500000000000000000201601180002001CALYPSO BARRANQUILLA LTDA                         D000000000810000000000000000000000100010010000000000000000000000F0010000008131800120160118000101 00000000000000000000000000000000000000000000000000000000000000000000000000000000000000000000000000000000000000000N 00000000000NCONT   00    00000000000          00000000000000000000000000000000000000000000 000000000000000A000000000000000000000000000000000000000000000 000000000000000000000000000000000000000     00000000                                                                                                                        000000000000000000
F0010000008131800002000086003979400041450500000000000000000201601180002001CALYPSO BARRANQUILLA LTDA                         C000000000660000000000000000000000100010010000000000000000000000F0010000008131800220160118000101 00000000000000000000000000000000000000000000000000000000000000000000000000000000000000000000000000000000000000000N 00000000000NCONT   00    00000000000          00000000000000000000000000000000000000000000 000000000000000A000000000000000000000000000000000000000000000 000000000000000000000000000000000000000     00000000                                                                                                                        000000000000000000
F0010000008131800003000086003979400042505000000000000000000201601180002001CALYPSO BARRANQUILLA LTDA                         C000000000150000000000000000000000100010010000000000000000000000F0010000008131800320160118000101 00000000000000000000000000000000000000000000000000000000000000000000000000000000000000000000000000000000000000000N 00000000000NCONT   00    00000000000          00000000000000000000000000000000000000000000 000000000000000A000000000000000000000000000000000000000000000 000000000000000000000000000000000000000     00000000                                                                                                                        000000000000000000
F0010000008131800004000086003979400023658300000000000000000201601180002001CALYPSO BARRANQUILLA LTDA                         C000000000005300000000000000000000100010010000000000000000000000F0010000008131800420160118000101 00000000000000000000000000000000000000000000000000000000000000000000000000000000000000000000000000000000000000000N 00000000000NCONT   00    00000000000          00000000000000000000000000000000000000000000 000000000000000A000000000000000000000000000000000000000000000 000000000000000000000000000000000000000     00000000                                                                                                                        000000000000000000
F0010000008131800005000086003979400013552100000000000000000201601180002001CALYPSO BARRANQUILLA LTDA                         D000000000005300000000000000000000100010010000000000000000000000F0010000008131800520160118000101 00000000000000000000000000000000000000000000000000000000000000000000000000000000000000000000000000000000000000000N 00000000000NCONT   00    00000000000          00000000000000000000000000000000000000000000 000000000000000A000000000000000000000000000000000000000000000 000000000000000000000000000000000000000     00000000                                                                                                                        000000000000000000
F0010000008131900001000007216029400011050500000000000000000201601180002001MARIO VERDEZA                                     D000000005000000000000000000000000100010010000000000000000000000F0010000008131900120160118000101 00000000000000000000000000000000000000000000000000000000000000000000000000000000000000000000000000000000000000000N 00000000000NCONT   00    00000000000          00000000000000000000000000000000000000000000 000000000000000A000000000000000000000000000000000000000000000 000000000000000000000000000000000000000     00000000                                                                                                                        000000000000000000
F0010000008131900002000007216029400041450500000000000000000201601180002001MARIO VERDEZA                                     C000000004400000000000000000000000100010010000000000000000000000F0010000008131900220160118000101 00000000000000000000000000000000000000000000000000000000000000000000000000000000000000000000000000000000000000000N 00000000000NCONT   00    00000000000          00000000000000000000000000000000000000000000 000000000000000A000000000000000000000000000000000000000000000 000000000000000000000000000000000000000     00000000                                                                                                                        000000000000000000
F0010000008131900003000007216029400042505000000000000000000201601180002001MARIO VERDEZA                                     C000000000600000000000000000000000100010010000000000000000000000F0010000008131900320160118000101 00000000000000000000000000000000000000000000000000000000000000000000000000000000000000000000000000000000000000000N 00000000000NCONT   00    00000000000          00000000000000000000000000000000000000000000 000000000000000A000000000000000000000000000000000000000000000 000000000000000000000000000000000000000     00000000                                                                                                                        000000000000000000
F0010000008131900004000007216029400023658300000000000000000201601180002001MARIO VERDEZA                                     C000000000035200000000000000000000100010010000000000000000000000F0010000008131900420160118000101 00000000000000000000000000000000000000000000000000000000000000000000000000000000000000000000000000000000000000000N 00000000000NCONT   00    00000000000          00000000000000000000000000000000000000000000 000000000000000A000000000000000000000000000000000000000000000 000000000000000000000000000000000000000     00000000                                                                                                                        000000000000000000
F0010000008131900005000007216029400013552100000000000000000201601180002001MARIO VERDEZA                                     D000000000035200000000000000000000100010010000000000000000000000F0010000008131900520160118000101 00000000000000000000000000000000000000000000000000000000000000000000000000000000000000000000000000000000000000000N 00000000000NCONT   00    00000000000          00000000000000000000000000000000000000000000 000000000000000A000000000000000000000000000000000000000000000 000000000000000000000000000000000000000     00000000                                                                                                                        000000000000000000
F0010000008132000001000090061985600011050500000000000000000201601180002001COMERCIALIZADORA PATRY SAS                        D000000001000000000000000000000000100010010000000000000000000000F0010000008132000120160118000101 00000000000000000000000000000000000000000000000000000000000000000000000000000000000000000000000000000000000000000N 00000000000NCONT   00    00000000000          00000000000000000000000000000000000000000000 000000000000000A000000000000000000000000000000000000000000000 000000000000000000000000000000000000000     00000000                                                                                                                        000000000000000000
F0010000008132000002000090061985600041450500000000000000000201601180002001COMERCIALIZADORA PATRY SAS                        C000000000800000000000000000000000100010010000000000000000000000F0010000008132000220160118000101 00000000000000000000000000000000000000000000000000000000000000000000000000000000000000000000000000000000000000000N 00000000000NCONT   00    00000000000          00000000000000000000000000000000000000000000 000000000000000A000000000000000000000000000000000000000000000 000000000000000000000000000000000000000     00000000                                                                                                                        000000000000000000
F0010000008132000003000090061985600042505000000000000000000201601180002001COMERCIALIZADORA PATRY SAS                        C000000000200000000000000000000000100010010000000000000000000000F0010000008132000320160118000101 00000000000000000000000000000000000000000000000000000000000000000000000000000000000000000000000000000000000000000N 00000000000NCONT   00    00000000000          00000000000000000000000000000000000000000000 000000000000000A000000000000000000000000000000000000000000000 000000000000000000000000000000000000000     00000000                                                                                                                        000000000000000000
F0010000008132000004000090061985600023658300000000000000000201601180002001COMERCIALIZADORA PATRY SAS                        C000000000006400000000000000000000100010010000000000000000000000F0010000008132000420160118000101 00000000000000000000000000000000000000000000000000000000000000000000000000000000000000000000000000000000000000000N 00000000000NCONT   00    00000000000          00000000000000000000000000000000000000000000 000000000000000A000000000000000000000000000000000000000000000 000000000000000000000000000000000000000     00000000                                                                                                                        000000000000000000
F0010000008132000005000090061985600013552100000000000000000201601180002001COMERCIALIZADORA PATRY SAS                        D000000000006400000000000000000000100010010000000000000000000000F0010000008132000520160118000101 00000000000000000000000000000000000000000000000000000000000000000000000000000000000000000000000000000000000000000N 00000000000NCONT   00    00000000000          00000000000000000000000000000000000000000000 000000000000000A000000000000000000000000000000000000000000000 000000000000000000000000000000000000000     00000000                                                                                                                        000000000000000000
F0010000008132100001000007200023300011050500000000000000000201601180002001WILLIAM ORTEGA                                    D000000004500000000000000000000000100010010000000000000000000000F0010000008132100120160118000101 00000000000000000000000000000000000000000000000000000000000000000000000000000000000000000000000000000000000000000N 00000000000NCONT   00    00000000000          00000000000000000000000000000000000000000000 000000000000000A000000000000000000000000000000000000000000000 000000000000000000000000000000000000000     00000000                                                                                                                        000000000000000000
F0010000008132100002000007200023300041450500000000000000000201601180002001WILLIAM ORTEGA                                    C000000003800000000000000000000000100010010000000000000000000000F0010000008132100220160118000101 00000000000000000000000000000000000000000000000000000000000000000000000000000000000000000000000000000000000000000N 00000000000NCONT   00    00000000000          00000000000000000000000000000000000000000000 000000000000000A000000000000000000000000000000000000000000000 000000000000000000000000000000000000000     00000000                                                                                                                        000000000000000000
F0010000008132100003000007200023300042505000000000000000000201601180002001WILLIAM ORTEGA                                    C000000000700000000000000000000000100010010000000000000000000000F0010000008132100320160118000101 00000000000000000000000000000000000000000000000000000000000000000000000000000000000000000000000000000000000000000N 00000000000NCONT   00    00000000000          00000000000000000000000000000000000000000000 000000000000000A000000000000000000000000000000000000000000000 000000000000000000000000000000000000000     00000000                                                                                                                        000000000000000000
F0010000008132100004000007200023300023658300000000000000000201601180002001WILLIAM ORTEGA                                    C000000000030400000000000000000000100010010000000000000000000000F0010000008132100420160118000101 00000000000000000000000000000000000000000000000000000000000000000000000000000000000000000000000000000000000000000N 00000000000NCONT   00    00000000000          00000000000000000000000000000000000000000000 000000000000000A000000000000000000000000000000000000000000000 000000000000000000000000000000000000000     00000000                                                                                                                        000000000000000000
F0010000008132100005000007200023300013552100000000000000000201601180002001WILLIAM ORTEGA                                    D000000000030400000000000000000000100010010000000000000000000000F0010000008132100520160118000101 00000000000000000000000000000000000000000000000000000000000000000000000000000000000000000000000000000000000000000N 00000000000NCONT   00    00000000000          00000000000000000000000000000000000000000000 000000000000000A000000000000000000000000000000000000000000000 000000000000000000000000000000000000000     00000000                                                                                                                        000000000000000000
F0010000008132200001000007200023300011050500000000000000000201601180002001WILLIAM ORTEGA                                    D000000002600000000000000000000000100010010000000000000000000000F0010000008132200120160118000101 00000000000000000000000000000000000000000000000000000000000000000000000000000000000000000000000000000000000000000N 00000000000NCONT   00    00000000000          00000000000000000000000000000000000000000000 000000000000000A000000000000000000000000000000000000000000000 000000000000000000000000000000000000000     00000000                                                                                                                        000000000000000000
F0010000008132200002000007200023300041450500000000000000000201601180002001WILLIAM ORTEGA                                    C000000002000000000000000000000000100010010000000000000000000000F0010000008132200220160118000101 00000000000000000000000000000000000000000000000000000000000000000000000000000000000000000000000000000000000000000N 00000000000NCONT   00    00000000000          00000000000000000000000000000000000000000000 000000000000000A000000000000000000000000000000000000000000000 000000000000000000000000000000000000000     00000000                                                                                                                        000000000000000000
F0010000008132200003000007200023300042505000000000000000000201601180002001WILLIAM ORTEGA                                    C000000000600000000000000000000000100010010000000000000000000000F0010000008132200320160118000101 00000000000000000000000000000000000000000000000000000000000000000000000000000000000000000000000000000000000000000N 00000000000NCONT   00    00000000000          00000000000000000000000000000000000000000000 000000000000000A000000000000000000000000000000000000000000000 000000000000000000000000000000000000000     00000000                                                                                                                        000000000000000000
F0010000008132200004000007200023300023658300000000000000000201601180002001WILLIAM ORTEGA                                    C000000000016000000000000000000000100010010000000000000000000000F0010000008132200420160118000101 00000000000000000000000000000000000000000000000000000000000000000000000000000000000000000000000000000000000000000N 00000000000NCONT   00    00000000000          00000000000000000000000000000000000000000000 000000000000000A000000000000000000000000000000000000000000000 000000000000000000000000000000000000000     00000000                                                                                                                        000000000000000000
F0010000008132200005000007200023300013552100000000000000000201601180002001WILLIAM ORTEGA                                    D000000000016000000000000000000000100010010000000000000000000000F0010000008132200520160118000101 00000000000000000000000000000000000000000000000000000000000000000000000000000000000000000000000000000000000000000N 00000000000NCONT   00    00000000000          00000000000000000000000000000000000000000000 000000000000000A000000000000000000000000000000000000000000000 000000000000000000000000000000000000000     00000000                                                                                                                        000000000000000000
F0010000008132300001000114085854800011050500000000000000000201601180002001DAVID ANTONIO BARROS ARRIETA                      D000000001000000000000000000000000100010010000000000000000000000F0010000008132300120160118000101 00000000000000000000000000000000000000000000000000000000000000000000000000000000000000000000000000000000000000000N 00000000000NCONT   00    00000000000          00000000000000000000000000000000000000000000 000000000000000A000000000000000000000000000000000000000000000 000000000000000000000000000000000000000     00000000                                                                                                                        000000000000000000
F0010000008132300002000114085854800041450500000000000000000201601180002001DAVID ANTONIO BARROS ARRIETA                      C000000000800000000000000000000000100010010000000000000000000000F0010000008132300220160118000101 00000000000000000000000000000000000000000000000000000000000000000000000000000000000000000000000000000000000000000N 00000000000NCONT   00    00000000000          00000000000000000000000000000000000000000000 000000000000000A000000000000000000000000000000000000000000000 000000000000000000000000000000000000000     00000000                                                                                                                        000000000000000000
F0010000008132300003000114085854800042505000000000000000000201601180002001DAVID ANTONIO BARROS ARRIETA                      C000000000200000000000000000000000100010010000000000000000000000F0010000008132300320160118000101 00000000000000000000000000000000000000000000000000000000000000000000000000000000000000000000000000000000000000000N 00000000000NCONT   00    00000000000          00000000000000000000000000000000000000000000 000000000000000A000000000000000000000000000000000000000000000 000000000000000000000000000000000000000     00000000                                                                                                                        000000000000000000
F0010000008132300004000114085854800023658300000000000000000201601180002001DAVID ANTONIO BARROS ARRIETA                      C000000000006400000000000000000000100010010000000000000000000000F0010000008132300420160118000101 00000000000000000000000000000000000000000000000000000000000000000000000000000000000000000000000000000000000000000N 00000000000NCONT   00    00000000000          00000000000000000000000000000000000000000000 000000000000000A000000000000000000000000000000000000000000000 000000000000000000000000000000000000000     00000000                                                                                                                        000000000000000000
F0010000008132300005000114085854800013552100000000000000000201601180002001DAVID ANTONIO BARROS ARRIETA                      D000000000006400000000000000000000100010010000000000000000000000F0010000008132300520160118000101 00000000000000000000000000000000000000000000000000000000000000000000000000000000000000000000000000000000000000000N 00000000000NCONT   00    00000000000          00000000000000000000000000000000000000000000 000000000000000A000000000000000000000000000000000000000000000 000000000000000000000000000000000000000     00000000                                                                                                                        000000000000000000
F0010000008132400001000080014190300011050500000000000000000201601180002001QUIMINSA LTDA                                     D000000002750000000000000000000000100010010000000000000000000000F0010000008132400120160118000101 00000000000000000000000000000000000000000000000000000000000000000000000000000000000000000000000000000000000000000N 00000000000NCONT   00    00000000000          00000000000000000000000000000000000000000000 000000000000000A000000000000000000000000000000000000000000000 000000000000000000000000000000000000000     00000000                                                                                                                        000000000000000000
F0010000008132400002000080014190300041450500000000000000000201601180002001QUIMINSA LTDA                                     C000000002220000000000000000000000100010010000000000000000000000F0010000008132400220160118000101 00000000000000000000000000000000000000000000000000000000000000000000000000000000000000000000000000000000000000000N 00000000000NCONT   00    00000000000          00000000000000000000000000000000000000000000 000000000000000A000000000000000000000000000000000000000000000 000000000000000000000000000000000000000     00000000                                                                                                                        000000000000000000
F0010000008132400003000080014190300042505000000000000000000201601180002001QUIMINSA LTDA                                     C000000000530000000000000000000000100010010000000000000000000000F0010000008132400320160118000101 00000000000000000000000000000000000000000000000000000000000000000000000000000000000000000000000000000000000000000N 00000000000NCONT   00    00000000000          00000000000000000000000000000000000000000000 000000000000000A000000000000000000000000000000000000000000000 000000000000000000000000000000000000000     00000000                                                                                                                        000000000000000000
F0010000008132400004000080014190300023658300000000000000000201601180002001QUIMINSA LTDA                                     C000000000017800000000000000000000100010010000000000000000000000F0010000008132400420160118000101 00000000000000000000000000000000000000000000000000000000000000000000000000000000000000000000000000000000000000000N 00000000000NCONT   00    00000000000          00000000000000000000000000000000000000000000 000000000000000A000000000000000000000000000000000000000000000 000000000000000000000000000000000000000     00000000                                                                                                                        000000000000000000
F0010000008132400005000080014190300013552100000000000000000201601180002001QUIMINSA LTDA                                     D000000000017800000000000000000000100010010000000000000000000000F0010000008132400520160118000101 00000000000000000000000000000000000000000000000000000000000000000000000000000000000000000000000000000000000000000N 00000000000NCONT   00    00000000000          00000000000000000000000000000000000000000000 000000000000000A000000000000000000000000000000000000000000000 000000000000000000000000000000000000000     00000000                                                                                                                        000000000000000000
F0010000008132500001000080012418800011050500000000000000000201601180002001DISTRITEC S.A.S                                   D000000003650000000000000000000000100010010000000000000000000000F0010000008132500120160118000101 00000000000000000000000000000000000000000000000000000000000000000000000000000000000000000000000000000000000000000N 00000000000NCONT   00    00000000000          00000000000000000000000000000000000000000000 000000000000000A000000000000000000000000000000000000000000000 000000000000000000000000000000000000000     00000000                                                                                                                        000000000000000000
F0010000008132500002000080012418800041450500000000000000000201601180002001DISTRITEC S.A.S                                   C000000003400000000000000000000000100010010000000000000000000000F0010000008132500220160118000101 00000000000000000000000000000000000000000000000000000000000000000000000000000000000000000000000000000000000000000N 00000000000NCONT   00    00000000000          00000000000000000000000000000000000000000000 000000000000000A000000000000000000000000000000000000000000000 000000000000000000000000000000000000000     00000000                                                                                                                        000000000000000000
F0010000008132500003000080012418800042505000000000000000000201601180002001DISTRITEC S.A.S                                   C000000000250000000000000000000000100010010000000000000000000000F0010000008132500320160118000101 00000000000000000000000000000000000000000000000000000000000000000000000000000000000000000000000000000000000000000N 00000000000NCONT   00    00000000000          00000000000000000000000000000000000000000000 000000000000000A000000000000000000000000000000000000000000000 000000000000000000000000000000000000000     00000000                                                                                                                        000000000000000000
F0010000008132500004000080012418800023658300000000000000000201601180002001DISTRITEC S.A.S                                   C000000000027200000000000000000000100010010000000000000000000000F0010000008132500420160118000101 00000000000000000000000000000000000000000000000000000000000000000000000000000000000000000000000000000000000000000N 00000000000NCONT   00    00000000000          00000000000000000000000000000000000000000000 000000000000000A000000000000000000000000000000000000000000000 000000000000000000000000000000000000000     00000000                                                                                                                        000000000000000000
F0010000008132500005000080012418800013552100000000000000000201601180002001DISTRITEC S.A.S                                   D000000000027200000000000000000000100010010000000000000000000000F0010000008132500520160118000101 00000000000000000000000000000000000000000000000000000000000000000000000000000000000000000000000000000000000000000N 00000000000NCONT   00    00000000000          00000000000000000000000000000000000000000000 000000000000000A000000000000000000000000000000000000000000000 000000000000000000000000000000000000000     00000000                                                                                                                        000000000000000000
F0010000008132600001000080012418800011050500000000000000000201601180002001DISTRITEC S.A.S                                   D000000003700000000000000000000000100010010000000000000000000000F0010000008132600120160118000101 00000000000000000000000000000000000000000000000000000000000000000000000000000000000000000000000000000000000000000N 00000000000NCONT   00    00000000000          00000000000000000000000000000000000000000000 000000000000000A000000000000000000000000000000000000000000000 000000000000000000000000000000000000000     00000000                                                                                                                        000000000000000000
F0010000008132600002000080012418800041450500000000000000000201601180002001DISTRITEC S.A.S                                   C000000003600000000000000000000000100010010000000000000000000000F0010000008132600220160118000101 00000000000000000000000000000000000000000000000000000000000000000000000000000000000000000000000000000000000000000N 00000000000NCONT   00    00000000000          00000000000000000000000000000000000000000000 000000000000000A000000000000000000000000000000000000000000000 000000000000000000000000000000000000000     00000000                                                                                                                        000000000000000000
F0010000008132600003000080012418800042505000000000000000000201601180002001DISTRITEC S.A.S                                   C000000000100000000000000000000000100010010000000000000000000000F0010000008132600320160118000101 00000000000000000000000000000000000000000000000000000000000000000000000000000000000000000000000000000000000000000N 00000000000NCONT   00    00000000000          00000000000000000000000000000000000000000000 000000000000000A000000000000000000000000000000000000000000000 000000000000000000000000000000000000000     00000000                                                                                                                        000000000000000000
F0010000008132600004000080012418800023658300000000000000000201601180002001DISTRITEC S.A.S                                   C000000000028800000000000000000000100010010000000000000000000000F0010000008132600420160118000101 00000000000000000000000000000000000000000000000000000000000000000000000000000000000000000000000000000000000000000N 00000000000NCONT   00    00000000000          00000000000000000000000000000000000000000000 000000000000000A000000000000000000000000000000000000000000000 000000000000000000000000000000000000000     00000000                                                                                                                        000000000000000000
F0010000008132600005000080012418800013552100000000000000000201601180002001DISTRITEC S.A.S                                   D000000000028800000000000000000000100010010000000000000000000000F0010000008132600520160118000101 00000000000000000000000000000000000000000000000000000000000000000000000000000000000000000000000000000000000000000N 00000000000NCONT   00    00000000000          00000000000000000000000000000000000000000000 000000000000000A000000000000000000000000000000000000000000000 000000000000000000000000000000000000000     00000000                                                                                                                        000000000000000000
F0010000008132700001000090087617400011050500000000000000000201601180002001MASTERGLASS PREMIUM GROUP SAS                     D000000002200000000000000000000000100010010000000000000000000000F0010000008132700120160118000101 00000000000000000000000000000000000000000000000000000000000000000000000000000000000000000000000000000000000000000N 00000000000NCONT   00    00000000000          00000000000000000000000000000000000000000000 000000000000000A000000000000000000000000000000000000000000000 000000000000000000000000000000000000000     00000000                                                                                                                        000000000000000000
F0010000008132700002000090087617400041450500000000000000000201601180002001MASTERGLASS PREMIUM GROUP SAS                     C000000001800000000000000000000000100010010000000000000000000000F0010000008132700220160118000101 00000000000000000000000000000000000000000000000000000000000000000000000000000000000000000000000000000000000000000N 00000000000NCONT   00    00000000000          00000000000000000000000000000000000000000000 000000000000000A000000000000000000000000000000000000000000000 000000000000000000000000000000000000000     00000000                                                                                                                        000000000000000000
