F0010000010608800001000086002732600013050500000000000000000201711070002001PINTURAS EVERY                                    D000000135349700000000000000000000100010010000000000000000000000F0010000010608800120171107000101 00000000000000000000000000000000000000000000000000000000000000000000000000000000000000000000000000000000000000000N 00000000000NCONT   00    00000000000          00000000000000000000000000000000000000000000 000000000000000A000000000000000000000000000000000000000000000 000000000000000000000000000000000000000     00000000                                                                                                                        000000000000000000
F0010000010608800002000086002732600041450500000000000000000201711070002001PINTURAS EVERY                                    C000000116757000000000000000000000100010010000000000000000000000F0010000010608800220171107000101 00000000000000000000000000000000000000000000000000000000000000000000000000000000000000000000000000000000000000000N 00000000000NCONT   00    00000000000          00000000000000000000000000000000000000000000 000000000000000A000000000000000000000000000000000000000000000 000000000000000000000000000000000000000     00000000                                                                                                                        000000000000000000
F0010000010608800003000086002732600042505000000000000000000201711070002001PINTURAS EVERY                                    C000000018592700000000000000000000100010010000000000000000000000F0010000010608800320171107000101 00000000000000000000000000000000000000000000000000000000000000000000000000000000000000000000000000000000000000000N 00000000000NCONT   00    00000000000          00000000000000000000000000000000000000000000 000000000000000A000000000000000000000000000000000000000000000 000000000000000000000000000000000000000     00000000                                                                                                                        000000000000000000
F0010000010608800004000086002732600023658300000000000000000201711070002001PINTURAS EVERY                                    C000000000000000000000000000000000100010010000000000000000000000F0010000010608800420171107000101 00000000000000000000000000000000000000000000000000000000000000000000000000000000000000000000000000000000000000000N 00000000000NCONT   00    00000000000          00000000000000000000000000000000000000000000 000000000000000A000000000000000000000000000000000000000000000 000000000000000000000000000000000000000     00000000                                                                                                                        000000000000000000
F0010000010608800005000086002732600013552100000000000000000201711070002001PINTURAS EVERY                                    D000000000000000000000000000000000100010010000000000000000000000F0010000010608800520171107000101 00000000000000000000000000000000000000000000000000000000000000000000000000000000000000000000000000000000000000000N 00000000000NCONT   00    00000000000          00000000000000000000000000000000000000000000 000000000000000A000000000000000000000000000000000000000000000 000000000000000000000000000000000000000     00000000                                                                                                                        000000000000000000
F0010000010608900001000086001408600013050500000000000000000201711070002001CENTRAL DE DISOLVENTES SAS                        D000000010108100000000000000000000100010010000000000000000000000F0010000010608900120171107000101 00000000000000000000000000000000000000000000000000000000000000000000000000000000000000000000000000000000000000000N 00000000000NCONT   00    00000000000          00000000000000000000000000000000000000000000 000000000000000A000000000000000000000000000000000000000000000 000000000000000000000000000000000000000     00000000                                                                                                                        000000000000000000
F0010000010608900002000086001408600041450500000000000000000201711070002001CENTRAL DE DISOLVENTES SAS                        C000000004864500000000000000000000100010010000000000000000000000F0010000010608900220171107000101 00000000000000000000000000000000000000000000000000000000000000000000000000000000000000000000000000000000000000000N 00000000000NCONT   00    00000000000          00000000000000000000000000000000000000000000 000000000000000A000000000000000000000000000000000000000000000 000000000000000000000000000000000000000     00000000                                                                                                                        000000000000000000
F0010000010608900003000086001408600042505000000000000000000201711070002001CENTRAL DE DISOLVENTES SAS                        C000000005243600000000000000000000100010010000000000000000000000F0010000010608900320171107000101 00000000000000000000000000000000000000000000000000000000000000000000000000000000000000000000000000000000000000000N 00000000000NCONT   00    00000000000          00000000000000000000000000000000000000000000 000000000000000A000000000000000000000000000000000000000000000 000000000000000000000000000000000000000     00000000                                                                                                                        000000000000000000
F0010000010608900004000086001408600023658300000000000000000201711070002001CENTRAL DE DISOLVENTES SAS                        C000000000000000000000000000000000100010010000000000000000000000F0010000010608900420171107000101 00000000000000000000000000000000000000000000000000000000000000000000000000000000000000000000000000000000000000000N 00000000000NCONT   00    00000000000          00000000000000000000000000000000000000000000 000000000000000A000000000000000000000000000000000000000000000 000000000000000000000000000000000000000     00000000                                                                                                                        000000000000000000
F0010000010608900005000086001408600013552100000000000000000201711070002001CENTRAL DE DISOLVENTES SAS                        D000000000000000000000000000000000100010010000000000000000000000F0010000010608900520171107000101 00000000000000000000000000000000000000000000000000000000000000000000000000000000000000000000000000000000000000000N 00000000000NCONT   00    00000000000          00000000000000000000000000000000000000000000 000000000000000A000000000000000000000000000000000000000000000 000000000000000000000000000000000000000     00000000                                                                                                                        000000000000000000
F0010000010609000001000086000490200013050500000000000000000201711070002001PROV. DE PAPELES ANDINA S.A.                      D000000028518500000000000000000000100010010000000000000000000000F0010000010609000120171107000101 00000000000000000000000000000000000000000000000000000000000000000000000000000000000000000000000000000000000000000N 00000000000NCONT   00    00000000000          00000000000000000000000000000000000000000000 000000000000000A000000000000000000000000000000000000000000000 000000000000000000000000000000000000000     00000000                                                                                                                        000000000000000000
F0010000010609000002000086000490200041450500000000000000000201711070002001PROV. DE PAPELES ANDINA S.A.                      C000000026506000000000000000000000100010010000000000000000000000F0010000010609000220171107000101 00000000000000000000000000000000000000000000000000000000000000000000000000000000000000000000000000000000000000000N 00000000000NCONT   00    00000000000          00000000000000000000000000000000000000000000 000000000000000A000000000000000000000000000000000000000000000 000000000000000000000000000000000000000     00000000                                                                                                                        000000000000000000
F0010000010609000003000086000490200042505000000000000000000201711070002001PROV. DE PAPELES ANDINA S.A.                      C000000002012500000000000000000000100010010000000000000000000000F0010000010609000320171107000101 00000000000000000000000000000000000000000000000000000000000000000000000000000000000000000000000000000000000000000N 00000000000NCONT   00    00000000000          00000000000000000000000000000000000000000000 000000000000000A000000000000000000000000000000000000000000000 000000000000000000000000000000000000000     00000000                                                                                                                        000000000000000000
F0010000010609000004000086000490200023658300000000000000000201711070002001PROV. DE PAPELES ANDINA S.A.                      C000000000000000000000000000000000100010010000000000000000000000F0010000010609000420171107000101 00000000000000000000000000000000000000000000000000000000000000000000000000000000000000000000000000000000000000000N 00000000000NCONT   00    00000000000          00000000000000000000000000000000000000000000 000000000000000A000000000000000000000000000000000000000000000 000000000000000000000000000000000000000     00000000                                                                                                                        000000000000000000
F0010000010609000005000086000490200013552100000000000000000201711070002001PROV. DE PAPELES ANDINA S.A.                      D000000000000000000000000000000000100010010000000000000000000000F0010000010609000520171107000101 00000000000000000000000000000000000000000000000000000000000000000000000000000000000000000000000000000000000000000N 00000000000NCONT   00    00000000000          00000000000000000000000000000000000000000000 000000000000000A000000000000000000000000000000000000000000000 000000000000000000000000000000000000000     00000000                                                                                                                        000000000000000000
F0010000010609100001000001022529300013050500000000000000000201711070002001ALBERTO ALVAREZ ISAZA                             D000000009650200000000000000000000100010010000000000000000000000F0010000010609100120171107000101 00000000000000000000000000000000000000000000000000000000000000000000000000000000000000000000000000000000000000000N 00000000000NCONT   00    00000000000          00000000000000000000000000000000000000000000 000000000000000A000000000000000000000000000000000000000000000 000000000000000000000000000000000000000     00000000                                                                                                                        000000000000000000
F0010000010609100002000001022529300041450500000000000000000201711070002001ALBERTO ALVAREZ ISAZA                             C000000009470000000000000000000000100010010000000000000000000000F0010000010609100220171107000101 00000000000000000000000000000000000000000000000000000000000000000000000000000000000000000000000000000000000000000N 00000000000NCONT   00    00000000000          00000000000000000000000000000000000000000000 000000000000000A000000000000000000000000000000000000000000000 000000000000000000000000000000000000000     00000000                                                                                                                        000000000000000000
F0010000010609100003000001022529300042505000000000000000000201711070002001ALBERTO ALVAREZ ISAZA                             C000000000180200000000000000000000100010010000000000000000000000F0010000010609100320171107000101 00000000000000000000000000000000000000000000000000000000000000000000000000000000000000000000000000000000000000000N 00000000000NCONT   00    00000000000          00000000000000000000000000000000000000000000 000000000000000A000000000000000000000000000000000000000000000 000000000000000000000000000000000000000     00000000                                                                                                                        000000000000000000
F0010000010609100004000001022529300023658300000000000000000201711070002001ALBERTO ALVAREZ ISAZA                             C000000000000000000000000000000000100010010000000000000000000000F0010000010609100420171107000101 00000000000000000000000000000000000000000000000000000000000000000000000000000000000000000000000000000000000000000N 00000000000NCONT   00    00000000000          00000000000000000000000000000000000000000000 000000000000000A000000000000000000000000000000000000000000000 000000000000000000000000000000000000000     00000000                                                                                                                        000000000000000000
F0010000010609100005000001022529300013552100000000000000000201711070002001ALBERTO ALVAREZ ISAZA                             D000000000000000000000000000000000100010010000000000000000000000F0010000010609100520171107000101 00000000000000000000000000000000000000000000000000000000000000000000000000000000000000000000000000000000000000000N 00000000000NCONT   00    00000000000          00000000000000000000000000000000000000000000 000000000000000A000000000000000000000000000000000000000000000 000000000000000000000000000000000000000     00000000                                                                                                                        000000000000000000
F0010000010609200001000000431178400013050500000000000000000201711070002001EFRAIN ALVAREZ                                    D000000028780000000000000000000000100010010000000000000000000000F0010000010609200120171107000101 00000000000000000000000000000000000000000000000000000000000000000000000000000000000000000000000000000000000000000N 00000000000NCONT   00    00000000000          00000000000000000000000000000000000000000000 000000000000000A000000000000000000000000000000000000000000000 000000000000000000000000000000000000000     00000000                                                                                                                        000000000000000000
F0010000010609200002000000431178400041450500000000000000000201711070002001EFRAIN ALVAREZ                                    C000000027030000000000000000000000100010010000000000000000000000F0010000010609200220171107000101 00000000000000000000000000000000000000000000000000000000000000000000000000000000000000000000000000000000000000000N 00000000000NCONT   00    00000000000          00000000000000000000000000000000000000000000 000000000000000A000000000000000000000000000000000000000000000 000000000000000000000000000000000000000     00000000                                                                                                                        000000000000000000
F0010000010609200003000000431178400042505000000000000000000201711070002001EFRAIN ALVAREZ                                    C000000001750000000000000000000000100010010000000000000000000000F0010000010609200320171107000101 00000000000000000000000000000000000000000000000000000000000000000000000000000000000000000000000000000000000000000N 00000000000NCONT   00    00000000000          00000000000000000000000000000000000000000000 000000000000000A000000000000000000000000000000000000000000000 000000000000000000000000000000000000000     00000000                                                                                                                        000000000000000000
F0010000010609200004000000431178400023658300000000000000000201711070002001EFRAIN ALVAREZ                                    C000000000000000000000000000000000100010010000000000000000000000F0010000010609200420171107000101 00000000000000000000000000000000000000000000000000000000000000000000000000000000000000000000000000000000000000000N 00000000000NCONT   00    00000000000          00000000000000000000000000000000000000000000 000000000000000A000000000000000000000000000000000000000000000 000000000000000000000000000000000000000     00000000                                                                                                                        000000000000000000
F0010000010609200005000000431178400013552100000000000000000201711070002001EFRAIN ALVAREZ                                    D000000000000000000000000000000000100010010000000000000000000000F0010000010609200520171107000101 00000000000000000000000000000000000000000000000000000000000000000000000000000000000000000000000000000000000000000N 00000000000NCONT   00    00000000000          00000000000000000000000000000000000000000000 000000000000000A000000000000000000000000000000000000000000000 000000000000000000000000000000000000000     00000000                                                                                                                        000000000000000000
F0010000010609300001000081102758700013050500000000000000000201711070002001C.I. ABRACOL S.A EMA                              D000000105481000000000000000000000100010010000000000000000000000F0010000010609300120171107000101 00000000000000000000000000000000000000000000000000000000000000000000000000000000000000000000000000000000000000000N 00000000000NCONT   00    00000000000          00000000000000000000000000000000000000000000 000000000000000A000000000000000000000000000000000000000000000 000000000000000000000000000000000000000     00000000                                                                                                                        000000000000000000
F0010000010609300002000081102758700041450500000000000000000201711070002001C.I. ABRACOL S.A EMA                              C000000083810000000000000000000000100010010000000000000000000000F0010000010609300220171107000101 00000000000000000000000000000000000000000000000000000000000000000000000000000000000000000000000000000000000000000N 00000000000NCONT   00    00000000000          00000000000000000000000000000000000000000000 000000000000000A000000000000000000000000000000000000000000000 000000000000000000000000000000000000000     00000000                                                                                                                        000000000000000000
F0010000010609300003000081102758700041750100000000000000000201711070002001C.I. ABRACOL S.A EMA                              D000000002514300000000000000000000100010010000000000000000000000F0010000010609300320171107000101 00000000000000000000000000000000000000000000000000000000000000000000000000000000000000000000000000000000000000000N 00000000000NCONT   00    00000000000          00000000000000000000000000000000000000000000 000000000000000A000000000000000000000000000000000000000000000 000000000000000000000000000000000000000     00000000                                                                                                                        000000000000000000
F0010000010609300004000081102758700042505000000000000000000201711070002001C.I. ABRACOL S.A EMA                              C000000024185300000000000000000000100010010000000000000000000000F0010000010609300420171107000101 00000000000000000000000000000000000000000000000000000000000000000000000000000000000000000000000000000000000000000N 00000000000NCONT   00    00000000000          00000000000000000000000000000000000000000000 000000000000000A000000000000000000000000000000000000000000000 000000000000000000000000000000000000000     00000000                                                                                                                        000000000000000000
F0010000010609300005000081102758700023658300000000000000000201711070002001C.I. ABRACOL S.A EMA                              C000000000000000000000000000000000100010010000000000000000000000F0010000010609300520171107000101 00000000000000000000000000000000000000000000000000000000000000000000000000000000000000000000000000000000000000000N 00000000000NCONT   00    00000000000          00000000000000000000000000000000000000000000 000000000000000A000000000000000000000000000000000000000000000 000000000000000000000000000000000000000     00000000                                                                                                                        000000000000000000
F0010000010609300006000081102758700013552100000000000000000201711070002001C.I. ABRACOL S.A EMA                              D000000000000000000000000000000000100010010000000000000000000000F0010000010609300620171107000101 00000000000000000000000000000000000000000000000000000000000000000000000000000000000000000000000000000000000000000N 00000000000NCONT   00    00000000000          00000000000000000000000000000000000000000000 000000000000000A000000000000000000000000000000000000000000000 000000000000000000000000000000000000000     00000000                                                                                                                        000000000000000000
F0010000010609400001000081102758700013050500000000000000000201711070002001C.I. ABRACOL S.A EMA                              D000000015867600000000000000000000100010010000000000000000000000F0010000010609400120171107000101 00000000000000000000000000000000000000000000000000000000000000000000000000000000000000000000000000000000000000000N 00000000000NCONT   00    00000000000          00000000000000000000000000000000000000000000 000000000000000A000000000000000000000000000000000000000000000 000000000000000000000000000000000000000     00000000                                                                                                                        000000000000000000
F0010000010609400002000081102758700041450500000000000000000201711070002001C.I. ABRACOL S.A EMA                              C000000009900000000000000000000000100010010000000000000000000000F0010000010609400220171107000101 00000000000000000000000000000000000000000000000000000000000000000000000000000000000000000000000000000000000000000N 00000000000NCONT   00    00000000000          00000000000000000000000000000000000000000000 000000000000000A000000000000000000000000000000000000000000000 000000000000000000000000000000000000000     00000000                                                                                                                        000000000000000000
F0010000010609400003000081102758700041750100000000000000000201711070002001C.I. ABRACOL S.A EMA                              D000000000297000000000000000000000100010010000000000000000000000F0010000010609400320171107000101 00000000000000000000000000000000000000000000000000000000000000000000000000000000000000000000000000000000000000000N 00000000000NCONT   00    00000000000          00000000000000000000000000000000000000000000 000000000000000A000000000000000000000000000000000000000000000 000000000000000000000000000000000000000     00000000                                                                                                                        000000000000000000
F0010000010609400004000081102758700042505000000000000000000201711070002001C.I. ABRACOL S.A EMA                              C000000006264600000000000000000000100010010000000000000000000000F0010000010609400420171107000101 00000000000000000000000000000000000000000000000000000000000000000000000000000000000000000000000000000000000000000N 00000000000NCONT   00    00000000000          00000000000000000000000000000000000000000000 000000000000000A000000000000000000000000000000000000000000000 000000000000000000000000000000000000000     00000000                                                                                                                        000000000000000000
F0010000010609400005000081102758700023658300000000000000000201711070002001C.I. ABRACOL S.A EMA                              C000000000000000000000000000000000100010010000000000000000000000F0010000010609400520171107000101 00000000000000000000000000000000000000000000000000000000000000000000000000000000000000000000000000000000000000000N 00000000000NCONT   00    00000000000          00000000000000000000000000000000000000000000 000000000000000A000000000000000000000000000000000000000000000 000000000000000000000000000000000000000     00000000                                                                                                                        000000000000000000
F0010000010609400006000081102758700013552100000000000000000201711070002001C.I. ABRACOL S.A EMA                              D000000000000000000000000000000000100010010000000000000000000000F0010000010609400620171107000101 00000000000000000000000000000000000000000000000000000000000000000000000000000000000000000000000000000000000000000N 00000000000NCONT   00    00000000000          00000000000000000000000000000000000000000000 000000000000000A000000000000000000000000000000000000000000000 000000000000000000000000000000000000000     00000000                                                                                                                        000000000000000000
F0010000010609500001000090038852800013050500000000000000000201711070002001EL COMERCIO ELECTRICO DE LA CO                    D000000005450000000000000000000000100010010000000000000000000000F0010000010609500120171107000101 00000000000000000000000000000000000000000000000000000000000000000000000000000000000000000000000000000000000000000N 00000000000NCONT   00    00000000000          00000000000000000000000000000000000000000000 000000000000000A000000000000000000000000000000000000000000000 000000000000000000000000000000000000000     00000000                                                                                                                        000000000000000000
F0010000010609500002000090038852800041450500000000000000000201711070002001EL COMERCIO ELECTRICO DE LA CO                    C000000004200000000000000000000000100010010000000000000000000000F0010000010609500220171107000101 00000000000000000000000000000000000000000000000000000000000000000000000000000000000000000000000000000000000000000N 00000000000NCONT   00    00000000000          00000000000000000000000000000000000000000000 000000000000000A000000000000000000000000000000000000000000000 000000000000000000000000000000000000000     00000000                                                                                                                        000000000000000000
F0010000010609500003000090038852800042505000000000000000000201711070002001EL COMERCIO ELECTRICO DE LA CO                    C000000001250000000000000000000000100010010000000000000000000000F0010000010609500320171107000101 00000000000000000000000000000000000000000000000000000000000000000000000000000000000000000000000000000000000000000N 00000000000NCONT   00    00000000000          00000000000000000000000000000000000000000000 000000000000000A000000000000000000000000000000000000000000000 000000000000000000000000000000000000000     00000000                                                                                                                        000000000000000000
F0010000010609500004000090038852800023658300000000000000000201711070002001EL COMERCIO ELECTRICO DE LA CO                    C000000000000000000000000000000000100010010000000000000000000000F0010000010609500420171107000101 00000000000000000000000000000000000000000000000000000000000000000000000000000000000000000000000000000000000000000N 00000000000NCONT   00    00000000000          00000000000000000000000000000000000000000000 000000000000000A000000000000000000000000000000000000000000000 000000000000000000000000000000000000000     00000000                                                                                                                        000000000000000000
F0010000010609500005000090038852800013552100000000000000000201711070002001EL COMERCIO ELECTRICO DE LA CO                    D000000000000000000000000000000000100010010000000000000000000000F0010000010609500520171107000101 00000000000000000000000000000000000000000000000000000000000000000000000000000000000000000000000000000000000000000N 00000000000NCONT   00    00000000000          00000000000000000000000000000000000000000000 000000000000000A000000000000000000000000000000000000000000000 000000000000000000000000000000000000000     00000000                                                                                                                        000000000000000000
F0010000010609600001000080200250700013050500000000000000000201711070002001ETICOL SAS                                        D000000007600000000000000000000000100010010000000000000000000000F0010000010609600120171107000101 00000000000000000000000000000000000000000000000000000000000000000000000000000000000000000000000000000000000000000N 00000000000NCONT   00    00000000000          00000000000000000000000000000000000000000000 000000000000000A000000000000000000000000000000000000000000000 000000000000000000000000000000000000000     00000000                                                                                                                        000000000000000000
F0010000010609600002000080200250700041450500000000000000000201711070002001ETICOL SAS                                        C000000006800000000000000000000000100010010000000000000000000000F0010000010609600220171107000101 00000000000000000000000000000000000000000000000000000000000000000000000000000000000000000000000000000000000000000N 00000000000NCONT   00    00000000000          00000000000000000000000000000000000000000000 000000000000000A000000000000000000000000000000000000000000000 000000000000000000000000000000000000000     00000000                                                                                                                        000000000000000000
F0010000010609600003000080200250700042505000000000000000000201711070002001ETICOL SAS                                        C000000000800000000000000000000000100010010000000000000000000000F0010000010609600320171107000101 00000000000000000000000000000000000000000000000000000000000000000000000000000000000000000000000000000000000000000N 00000000000NCONT   00    00000000000          00000000000000000000000000000000000000000000 000000000000000A000000000000000000000000000000000000000000000 000000000000000000000000000000000000000     00000000                                                                                                                        000000000000000000
F0010000010609600004000080200250700023658300000000000000000201711070002001ETICOL SAS                                        C000000000000000000000000000000000100010010000000000000000000000F0010000010609600420171107000101 00000000000000000000000000000000000000000000000000000000000000000000000000000000000000000000000000000000000000000N 00000000000NCONT   00    00000000000          00000000000000000000000000000000000000000000 000000000000000A000000000000000000000000000000000000000000000 000000000000000000000000000000000000000     00000000                                                                                                                        000000000000000000
F0010000010609600005000080200250700013552100000000000000000201711070002001ETICOL SAS                                        D000000000000000000000000000000000100010010000000000000000000000F0010000010609600520171107000101 00000000000000000000000000000000000000000000000000000000000000000000000000000000000000000000000000000000000000000N 00000000000NCONT   00    00000000000          00000000000000000000000000000000000000000000 000000000000000A000000000000000000000000000000000000000000000 000000000000000000000000000000000000000     00000000                                                                                                                        000000000000000000
F0010000010609700001000090106344000013050500000000000000000201711070002001REPRESENTACIONES FERRELECTRICAS SAS (EDDIE CIRO)  D000000068552200000000000000000000100010010000000000000000000000F0010000010609700120171107000101 00000000000000000000000000000000000000000000000000000000000000000000000000000000000000000000000000000000000000000N 00000000000NCONT   00    00000000000          00000000000000000000000000000000000000000000 000000000000000A000000000000000000000000000000000000000000000 000000000000000000000000000000000000000     00000000                                                                                                                        000000000000000000
F0010000010609700002000090106344000041450500000000000000000201711070002001REPRESENTACIONES FERRELECTRICAS SAS (EDDIE CIRO)  C000000057910000000000000000000000100010010000000000000000000000F0010000010609700220171107000101 00000000000000000000000000000000000000000000000000000000000000000000000000000000000000000000000000000000000000000N 00000000000NCONT   00    00000000000          00000000000000000000000000000000000000000000 000000000000000A000000000000000000000000000000000000000000000 000000000000000000000000000000000000000     00000000                                                                                                                        000000000000000000
F0010000010609700003000090106344000042505000000000000000000201711070002001REPRESENTACIONES FERRELECTRICAS SAS (EDDIE CIRO)  C000000010642200000000000000000000100010010000000000000000000000F0010000010609700320171107000101 00000000000000000000000000000000000000000000000000000000000000000000000000000000000000000000000000000000000000000N 00000000000NCONT   00    00000000000          00000000000000000000000000000000000000000000 000000000000000A000000000000000000000000000000000000000000000 000000000000000000000000000000000000000     00000000                                                                                                                        000000000000000000
F0010000010609700004000090106344000023658300000000000000000201711070002001REPRESENTACIONES FERRELECTRICAS SAS (EDDIE CIRO)  C000000000000000000000000000000000100010010000000000000000000000F0010000010609700420171107000101 00000000000000000000000000000000000000000000000000000000000000000000000000000000000000000000000000000000000000000N 00000000000NCONT   00    00000000000          00000000000000000000000000000000000000000000 000000000000000A000000000000000000000000000000000000000000000 000000000000000000000000000000000000000     00000000                                                                                                                        000000000000000000
F0010000010609700005000090106344000013552100000000000000000201711070002001REPRESENTACIONES FERRELECTRICAS SAS (EDDIE CIRO)  D000000000000000000000000000000000100010010000000000000000000000F0010000010609700520171107000101 00000000000000000000000000000000000000000000000000000000000000000000000000000000000000000000000000000000000000000N 00000000000NCONT   00    00000000000          00000000000000000000000000000000000000000000 000000000000000A000000000000000000000000000000000000000000000 000000000000000000000000000000000000000     00000000                                                                                                                        000000000000000000
F0010000010609800001000089031248700013050500000000000000000201711070002001DISTRIBUIDORA CALIPLASTICOS LTDA                  D000000036704800000000000000000000100010010000000000000000000000F0010000010609800120171107000101 00000000000000000000000000000000000000000000000000000000000000000000000000000000000000000000000000000000000000000N 00000000000NCONT   00    00000000000          00000000000000000000000000000000000000000000 000000000000000A000000000000000000000000000000000000000000000 000000000000000000000000000000000000000     00000000                                                                                                                        000000000000000000
F0010000010609800002000089031248700041450500000000000000000201711070002001DISTRIBUIDORA CALIPLASTICOS LTDA                  C000000034279800000000000000000000100010010000000000000000000000F0010000010609800220171107000101 00000000000000000000000000000000000000000000000000000000000000000000000000000000000000000000000000000000000000000N 00000000000NCONT   00    00000000000          00000000000000000000000000000000000000000000 000000000000000A000000000000000000000000000000000000000000000 000000000000000000000000000000000000000     00000000                                                                                                                        000000000000000000
F0010000010609800003000089031248700042505000000000000000000201711070002001DISTRIBUIDORA CALIPLASTICOS LTDA                  C000000002425000000000000000000000100010010000000000000000000000F0010000010609800320171107000101 00000000000000000000000000000000000000000000000000000000000000000000000000000000000000000000000000000000000000000N 00000000000NCONT   00    00000000000          00000000000000000000000000000000000000000000 000000000000000A000000000000000000000000000000000000000000000 000000000000000000000000000000000000000     00000000                                                                                                                        000000000000000000
F0010000010609800004000089031248700023658300000000000000000201711070002001DISTRIBUIDORA CALIPLASTICOS LTDA                  C000000000000000000000000000000000100010010000000000000000000000F0010000010609800420171107000101 00000000000000000000000000000000000000000000000000000000000000000000000000000000000000000000000000000000000000000N 00000000000NCONT   00    00000000000          00000000000000000000000000000000000000000000 000000000000000A000000000000000000000000000000000000000000000 000000000000000000000000000000000000000     00000000                                                                                                                        000000000000000000
F0010000010609800005000089031248700013552100000000000000000201711070002001DISTRIBUIDORA CALIPLASTICOS LTDA                  D000000000000000000000000000000000100010010000000000000000000000F0010000010609800520171107000101 00000000000000000000000000000000000000000000000000000000000000000000000000000000000000000000000000000000000000000N 00000000000NCONT   00    00000000000          00000000000000000000000000000000000000000000 000000000000000A000000000000000000000000000000000000000000000 000000000000000000000000000000000000000     00000000                                                                                                                        000000000000000000
F0010000010609900001000089011193000013050500000000000000000201711070002001DOQUIMICA DE LA COSTA LT DA                       D000000007300000000000000000000000100010010000000000000000000000F0010000010609900120171107000101 00000000000000000000000000000000000000000000000000000000000000000000000000000000000000000000000000000000000000000N 00000000000NCONT   00    00000000000          00000000000000000000000000000000000000000000 000000000000000A000000000000000000000000000000000000000000000 000000000000000000000000000000000000000     00000000                                                                                                                        000000000000000000
F0010000010609900002000089011193000041450500000000000000000201711070002001DOQUIMICA DE LA COSTA LT DA                       C000000007200000000000000000000000100010010000000000000000000000F0010000010609900220171107000101 00000000000000000000000000000000000000000000000000000000000000000000000000000000000000000000000000000000000000000N 00000000000NCONT   00    00000000000          00000000000000000000000000000000000000000000 000000000000000A000000000000000000000000000000000000000000000 000000000000000000000000000000000000000     00000000                                                                                                                        000000000000000000
F0010000010609900003000089011193000042505000000000000000000201711070002001DOQUIMICA DE LA COSTA LT DA                       C000000000100000000000000000000000100010010000000000000000000000F0010000010609900320171107000101 00000000000000000000000000000000000000000000000000000000000000000000000000000000000000000000000000000000000000000N 00000000000NCONT   00    00000000000          00000000000000000000000000000000000000000000 000000000000000A000000000000000000000000000000000000000000000 000000000000000000000000000000000000000     00000000                                                                                                                        000000000000000000
F0010000010609900004000089011193000023658300000000000000000201711070002001DOQUIMICA DE LA COSTA LT DA                       C000000000000000000000000000000000100010010000000000000000000000F0010000010609900420171107000101 00000000000000000000000000000000000000000000000000000000000000000000000000000000000000000000000000000000000000000N 00000000000NCONT   00    00000000000          00000000000000000000000000000000000000000000 000000000000000A000000000000000000000000000000000000000000000 000000000000000000000000000000000000000     00000000                                                                                                                        000000000000000000
F0010000010609900005000089011193000013552100000000000000000201711070002001DOQUIMICA DE LA COSTA LT DA                       D000000000000000000000000000000000100010010000000000000000000000F0010000010609900520171107000101 00000000000000000000000000000000000000000000000000000000000000000000000000000000000000000000000000000000000000000N 00000000000NCONT   00    00000000000          00000000000000000000000000000000000000000000 000000000000000A000000000000000000000000000000000000000000000 000000000000000000000000000000000000000     00000000                                                                                                                        000000000000000000
F0010000010610000001000090050863700013050500000000000000000201711070002001COMERCIALIZADORA PERFECT SAS                      D000000018800000000000000000000000100010010000000000000000000000F0010000010610000120171107000101 00000000000000000000000000000000000000000000000000000000000000000000000000000000000000000000000000000000000000000N 00000000000NCONT   00    00000000000          00000000000000000000000000000000000000000000 000000000000000A000000000000000000000000000000000000000000000 000000000000000000000000000000000000000     00000000                                                                                                                        000000000000000000
F0010000010610000002000090050863700041450500000000000000000201711070002001COMERCIALIZADORA PERFECT SAS                      C000000017000000000000000000000000100010010000000000000000000000F0010000010610000220171107000101 00000000000000000000000000000000000000000000000000000000000000000000000000000000000000000000000000000000000000000N 00000000000NCONT   00    00000000000          00000000000000000000000000000000000000000000 000000000000000A000000000000000000000000000000000000000000000 000000000000000000000000000000000000000     00000000                                                                                                                        000000000000000000
F0010000010610000003000090050863700042505000000000000000000201711070002001COMERCIALIZADORA PERFECT SAS                      C000000001800000000000000000000000100010010000000000000000000000F0010000010610000320171107000101 00000000000000000000000000000000000000000000000000000000000000000000000000000000000000000000000000000000000000000N 00000000000NCONT   00    00000000000          00000000000000000000000000000000000000000000 000000000000000A000000000000000000000000000000000000000000000 000000000000000000000000000000000000000     00000000                                                                                                                        000000000000000000
F0010000010610000004000090050863700023658300000000000000000201711070002001COMERCIALIZADORA PERFECT SAS                      C000000000000000000000000000000000100010010000000000000000000000F0010000010610000420171107000101 00000000000000000000000000000000000000000000000000000000000000000000000000000000000000000000000000000000000000000N 00000000000NCONT   00    00000000000          00000000000000000000000000000000000000000000 000000000000000A000000000000000000000000000000000000000000000 000000000000000000000000000000000000000     00000000                                                                                                                        000000000000000000
F0010000010610000005000090050863700013552100000000000000000201711070002001COMERCIALIZADORA PERFECT SAS                      D000000000000000000000000000000000100010010000000000000000000000F0010000010610000520171107000101 00000000000000000000000000000000000000000000000000000000000000000000000000000000000000000000000000000000000000000N 00000000000NCONT   00    00000000000          00000000000000000000000000000000000000000000 000000000000000A000000000000000000000000000000000000000000000 000000000000000000000000000000000000000     00000000                                                                                                                        000000000000000000
F0010000010610100001000004175790100013050500000000000000000201711070002001ROSIRIS FERIA HOYOS  (COSM. SHILLER)              D000000015500000000000000000000000100010010000000000000000000000F0010000010610100120171107000101 00000000000000000000000000000000000000000000000000000000000000000000000000000000000000000000000000000000000000000N 00000000000NCONT   00    00000000000          00000000000000000000000000000000000000000000 000000000000000A000000000000000000000000000000000000000000000 000000000000000000000000000000000000000     00000000                                                                                                                        000000000000000000
F0010000010610100002000004175790100041450500000000000000000201711070002001ROSIRIS FERIA HOYOS  (COSM. SHILLER)              C000000006600000000000000000000000100010010000000000000000000000F0010000010610100220171107000101 00000000000000000000000000000000000000000000000000000000000000000000000000000000000000000000000000000000000000000N 00000000000NCONT   00    00000000000          00000000000000000000000000000000000000000000 000000000000000A000000000000000000000000000000000000000000000 000000000000000000000000000000000000000     00000000                                                                                                                        000000000000000000
F0010000010610100003000004175790100042505000000000000000000201711070002001ROSIRIS FERIA HOYOS  (COSM. SHILLER)              C000000008900000000000000000000000100010010000000000000000000000F0010000010610100320171107000101 00000000000000000000000000000000000000000000000000000000000000000000000000000000000000000000000000000000000000000N 00000000000NCONT   00    00000000000          00000000000000000000000000000000000000000000 000000000000000A000000000000000000000000000000000000000000000 000000000000000000000000000000000000000     00000000                                                                                                                        000000000000000000
F0010000010610100004000004175790100023658300000000000000000201711070002001ROSIRIS FERIA HOYOS  (COSM. SHILLER)              C000000000000000000000000000000000100010010000000000000000000000F0010000010610100420171107000101 00000000000000000000000000000000000000000000000000000000000000000000000000000000000000000000000000000000000000000N 00000000000NCONT   00    00000000000          00000000000000000000000000000000000000000000 000000000000000A000000000000000000000000000000000000000000000 000000000000000000000000000000000000000     00000000                                                                                                                        000000000000000000
F0010000010610100005000004175790100013552100000000000000000201711070002001ROSIRIS FERIA HOYOS  (COSM. SHILLER)              D000000000000000000000000000000000100010010000000000000000000000F0010000010610100520171107000101 00000000000000000000000000000000000000000000000000000000000000000000000000000000000000000000000000000000000000000N 00000000000NCONT   00    00000000000          00000000000000000000000000000000000000000000 000000000000000A000000000000000000000000000000000000000000000 000000000000000000000000000000000000000     00000000                                                                                                                        000000000000000000
F0010000010610200001000000870907300013050500000000000000000201711070002001SURTIDOR FERRETERO                                D000000030506000000000000000000000100010010000000000000000000000F0010000010610200120171107000101 00000000000000000000000000000000000000000000000000000000000000000000000000000000000000000000000000000000000000000N 00000000000NCONT   00    00000000000          00000000000000000000000000000000000000000000 000000000000000A000000000000000000000000000000000000000000000 000000000000000000000000000000000000000     00000000                                                                                                                        000000000000000000
F0010000010610200002000000870907300041450500000000000000000201711070002001SURTIDOR FERRETERO                                C000000025410000000000000000000000100010010000000000000000000000F0010000010610200220171107000101 00000000000000000000000000000000000000000000000000000000000000000000000000000000000000000000000000000000000000000N 00000000000NCONT   00    00000000000          00000000000000000000000000000000000000000000 000000000000000A000000000000000000000000000000000000000000000 000000000000000000000000000000000000000     00000000                                                                                                                        000000000000000000
F0010000010610200003000000870907300041750100000000000000000201711070002001SURTIDOR FERRETERO                                D000000002541000000000000000000000100010010000000000000000000000F0010000010610200320171107000101 00000000000000000000000000000000000000000000000000000000000000000000000000000000000000000000000000000000000000000N 00000000000NCONT   00    00000000000          00000000000000000000000000000000000000000000 000000000000000A000000000000000000000000000000000000000000000 000000000000000000000000000000000000000     00000000                                                                                                                        000000000000000000
F0010000010610200004000000870907300042505000000000000000000201711070002001SURTIDOR FERRETERO                                C000000007637000000000000000000000100010010000000000000000000000F0010000010610200420171107000101 00000000000000000000000000000000000000000000000000000000000000000000000000000000000000000000000000000000000000000N 00000000000NCONT   00    00000000000          00000000000000000000000000000000000000000000 000000000000000A000000000000000000000000000000000000000000000 000000000000000000000000000000000000000     00000000                                                                                                                        000000000000000000
F0010000010610200005000000870907300023658300000000000000000201711070002001SURTIDOR FERRETERO                                C000000000000000000000000000000000100010010000000000000000000000F0010000010610200520171107000101 00000000000000000000000000000000000000000000000000000000000000000000000000000000000000000000000000000000000000000N 00000000000NCONT   00    00000000000          00000000000000000000000000000000000000000000 000000000000000A000000000000000000000000000000000000000000000 000000000000000000000000000000000000000     00000000                                                                                                                        000000000000000000
F0010000010610200006000000870907300013552100000000000000000201711070002001SURTIDOR FERRETERO                                D000000000000000000000000000000000100010010000000000000000000000F0010000010610200620171107000101 00000000000000000000000000000000000000000000000000000000000000000000000000000000000000000000000000000000000000000N 00000000000NCONT   00    00000000000          00000000000000000000000000000000000000000000 000000000000000A000000000000000000000000000000000000000000000 000000000000000000000000000000000000000     00000000                                                                                                                        000000000000000000
F0010000010610300001000090051494400013050500000000000000000201711070002001MUNDINOX SAS                                      D000000012360000000000000000000000100010010000000000000000000000F0010000010610300120171107000101 00000000000000000000000000000000000000000000000000000000000000000000000000000000000000000000000000000000000000000N 00000000000NCONT   00    00000000000          00000000000000000000000000000000000000000000 000000000000000A000000000000000000000000000000000000000000000 000000000000000000000000000000000000000     00000000                                                                                                                        000000000000000000
F0010000010610300002000090051494400041450500000000000000000201711070002001MUNDINOX SAS                                      C000000011660000000000000000000000100010010000000000000000000000F0010000010610300220171107000101 00000000000000000000000000000000000000000000000000000000000000000000000000000000000000000000000000000000000000000N 00000000000NCONT   00    00000000000          00000000000000000000000000000000000000000000 000000000000000A000000000000000000000000000000000000000000000 000000000000000000000000000000000000000     00000000                                                                                                                        000000000000000000
F0010000010610300003000090051494400042505000000000000000000201711070002001MUNDINOX SAS                                      C000000000700000000000000000000000100010010000000000000000000000F0010000010610300320171107000101 00000000000000000000000000000000000000000000000000000000000000000000000000000000000000000000000000000000000000000N 00000000000NCONT   00    00000000000          00000000000000000000000000000000000000000000 000000000000000A000000000000000000000000000000000000000000000 000000000000000000000000000000000000000     00000000                                                                                                                        000000000000000000
F0010000010610300004000090051494400023658300000000000000000201711070002001MUNDINOX SAS                                      C000000000000000000000000000000000100010010000000000000000000000F0010000010610300420171107000101 00000000000000000000000000000000000000000000000000000000000000000000000000000000000000000000000000000000000000000N 00000000000NCONT   00    00000000000          00000000000000000000000000000000000000000000 000000000000000A000000000000000000000000000000000000000000000 000000000000000000000000000000000000000     00000000                                                                                                                        000000000000000000
F0010000010610300005000090051494400013552100000000000000000201711070002001MUNDINOX SAS                                      D000000000000000000000000000000000100010010000000000000000000000F0010000010610300520171107000101 00000000000000000000000000000000000000000000000000000000000000000000000000000000000000000000000000000000000000000N 00000000000NCONT   00    00000000000          00000000000000000000000000000000000000000000 000000000000000A000000000000000000000000000000000000000000000 000000000000000000000000000000000000000     00000000                                                                                                                        000000000000000000
F0010000010610400001000083008772100013050500000000000000000201711070002001ILUMEC SAS                                        D000000012765000000000000000000000100010010000000000000000000000F0010000010610400120171107000101 00000000000000000000000000000000000000000000000000000000000000000000000000000000000000000000000000000000000000000N 00000000000NCONT   00    00000000000          00000000000000000000000000000000000000000000 000000000000000A000000000000000000000000000000000000000000000 000000000000000000000000000000000000000     00000000                                                                                                                        000000000000000000
F0010000010610400002000083008772100041450500000000000000000201711070002001ILUMEC SAS                                        C000000010450000000000000000000000100010010000000000000000000000F0010000010610400220171107000101 00000000000000000000000000000000000000000000000000000000000000000000000000000000000000000000000000000000000000000N 00000000000NCONT   00    00000000000          00000000000000000000000000000000000000000000 000000000000000A000000000000000000000000000000000000000000000 000000000000000000000000000000000000000     00000000                                                                                                                        000000000000000000
F0010000010610400003000083008772100042505000000000000000000201711070002001ILUMEC SAS                                        C000000002315000000000000000000000100010010000000000000000000000F0010000010610400320171107000101 00000000000000000000000000000000000000000000000000000000000000000000000000000000000000000000000000000000000000000N 00000000000NCONT   00    00000000000          00000000000000000000000000000000000000000000 000000000000000A000000000000000000000000000000000000000000000 000000000000000000000000000000000000000     00000000                                                                                                                        000000000000000000
F0010000010610400004000083008772100023658300000000000000000201711070002001ILUMEC SAS                                        C000000000000000000000000000000000100010010000000000000000000000F0010000010610400420171107000101 00000000000000000000000000000000000000000000000000000000000000000000000000000000000000000000000000000000000000000N 00000000000NCONT   00    00000000000          00000000000000000000000000000000000000000000 000000000000000A000000000000000000000000000000000000000000000 000000000000000000000000000000000000000     00000000                                                                                                                        000000000000000000
F0010000010610400005000083008772100013552100000000000000000201711070002001ILUMEC SAS                                        D000000000000000000000000000000000100010010000000000000000000000F0010000010610400520171107000101 00000000000000000000000000000000000000000000000000000000000000000000000000000000000000000000000000000000000000000N 00000000000NCONT   00    00000000000          00000000000000000000000000000000000000000000 000000000000000A000000000000000000000000000000000000000000000 000000000000000000000000000000000000000     00000000                                                                                                                        000000000000000000
F0010000010610500001000090087617400013050500000000000000000201711070002001MASTERGLASS PREMIUM GROUP SAS                     D000000011067900000000000000000000100010010000000000000000000000F0010000010610500120171107000101 00000000000000000000000000000000000000000000000000000000000000000000000000000000000000000000000000000000000000000N 00000000000NCONT   00    00000000000          00000000000000000000000000000000000000000000 000000000000000A000000000000000000000000000000000000000000000 000000000000000000000000000000000000000     00000000                                                                                                                        000000000000000000
F0010000010610500002000090087617400041450500000000000000000201711070002001MASTERGLASS PREMIUM GROUP SAS                     C000000009660000000000000000000000100010010000000000000000000000F0010000010610500220171107000101 00000000000000000000000000000000000000000000000000000000000000000000000000000000000000000000000000000000000000000N 00000000000NCONT   00    00000000000          00000000000000000000000000000000000000000000 000000000000000A000000000000000000000000000000000000000000000 000000000000000000000000000000000000000     00000000                                                                                                                        000000000000000000
F0010000010610500003000090087617400042505000000000000000000201711070002001MASTERGLASS PREMIUM GROUP SAS                     C000000001407900000000000000000000100010010000000000000000000000F0010000010610500320171107000101 00000000000000000000000000000000000000000000000000000000000000000000000000000000000000000000000000000000000000000N 00000000000NCONT   00    00000000000          00000000000000000000000000000000000000000000 000000000000000A000000000000000000000000000000000000000000000 000000000000000000000000000000000000000     00000000                                                                                                                        000000000000000000
F0010000010610500004000090087617400023658300000000000000000201711070002001MASTERGLASS PREMIUM GROUP SAS                     C000000000000000000000000000000000100010010000000000000000000000F0010000010610500420171107000101 00000000000000000000000000000000000000000000000000000000000000000000000000000000000000000000000000000000000000000N 00000000000NCONT   00    00000000000          00000000000000000000000000000000000000000000 000000000000000A000000000000000000000000000000000000000000000 000000000000000000000000000000000000000     00000000                                                                                                                        000000000000000000
F0010000010610500005000090087617400013552100000000000000000201711070002001MASTERGLASS PREMIUM GROUP SAS                     D000000000000000000000000000000000100010010000000000000000000000F0010000010610500520171107000101 00000000000000000000000000000000000000000000000000000000000000000000000000000000000000000000000000000000000000000N 00000000000NCONT   00    00000000000          00000000000000000000000000000000000000000000 000000000000000A000000000000000000000000000000000000000000000 000000000000000000000000000000000000000     00000000                                                                                                                        000000000000000000
F0010000010610600001000080001063400013050500000000000000000201711070002001PRODUCTOS JULIAO SAS                              D000000021026000000000000000000000100010010000000000000000000000F0010000010610600120171107000101 00000000000000000000000000000000000000000000000000000000000000000000000000000000000000000000000000000000000000000N 00000000000NCONT   00    00000000000          00000000000000000000000000000000000000000000 000000000000000A000000000000000000000000000000000000000000000 000000000000000000000000000000000000000     00000000                                                                                                                        000000000000000000
F0010000010610600002000080001063400041450500000000000000000201711070002001PRODUCTOS JULIAO SAS                              C000000019920000000000000000000000100010010000000000000000000000F0010000010610600220171107000101 00000000000000000000000000000000000000000000000000000000000000000000000000000000000000000000000000000000000000000N 00000000000NCONT   00    00000000000          00000000000000000000000000000000000000000000 000000000000000A000000000000000000000000000000000000000000000 000000000000000000000000000000000000000     00000000                                                                                                                        000000000000000000
F0010000010610600003000080001063400042505000000000000000000201711070002001PRODUCTOS JULIAO SAS                              C000000001106000000000000000000000100010010000000000000000000000F0010000010610600320171107000101 00000000000000000000000000000000000000000000000000000000000000000000000000000000000000000000000000000000000000000N 00000000000NCONT   00    00000000000          00000000000000000000000000000000000000000000 000000000000000A000000000000000000000000000000000000000000000 000000000000000000000000000000000000000     00000000                                                                                                                        000000000000000000
F0010000010610600004000080001063400023658300000000000000000201711070002001PRODUCTOS JULIAO SAS                              C000000000000000000000000000000000100010010000000000000000000000F0010000010610600420171107000101 00000000000000000000000000000000000000000000000000000000000000000000000000000000000000000000000000000000000000000N 00000000000NCONT   00    00000000000          00000000000000000000000000000000000000000000 000000000000000A000000000000000000000000000000000000000000000 000000000000000000000000000000000000000     00000000                                                                                                                        000000000000000000
F0010000010610600005000080001063400013552100000000000000000201711070002001PRODUCTOS JULIAO SAS                              D000000000000000000000000000000000100010010000000000000000000000F0010000010610600520171107000101 00000000000000000000000000000000000000000000000000000000000000000000000000000000000000000000000000000000000000000N 00000000000NCONT   00    00000000000          00000000000000000000000000000000000000000000 000000000000000A000000000000000000000000000000000000000000000 000000000000000000000000000000000000000     00000000                                                                                                                        000000000000000000
F0010000010610700001000000827614700013050500000000000000000201711070002001ALVARO  HERNAN  PEREZ ALVAREZ                     D000000009150000000000000000000000100010010000000000000000000000F0010000010610700120171107000101 00000000000000000000000000000000000000000000000000000000000000000000000000000000000000000000000000000000000000000N 00000000000NCONT   00    00000000000          00000000000000000000000000000000000000000000 000000000000000A000000000000000000000000000000000000000000000 000000000000000000000000000000000000000     00000000                                                                                                                        000000000000000000
F0010000010610700002000000827614700041450500000000000000000201711070002001ALVARO  HERNAN  PEREZ ALVAREZ                     C000000008400000000000000000000000100010010000000000000000000000F0010000010610700220171107000101 00000000000000000000000000000000000000000000000000000000000000000000000000000000000000000000000000000000000000000N 00000000000NCONT   00    00000000000          00000000000000000000000000000000000000000000 000000000000000A000000000000000000000000000000000000000000000 000000000000000000000000000000000000000     00000000                                                                                                                        000000000000000000
F0010000010610700003000000827614700042505000000000000000000201711070002001ALVARO  HERNAN  PEREZ ALVAREZ                     C000000000750000000000000000000000100010010000000000000000000000F0010000010610700320171107000101 00000000000000000000000000000000000000000000000000000000000000000000000000000000000000000000000000000000000000000N 00000000000NCONT   00    00000000000          00000000000000000000000000000000000000000000 000000000000000A000000000000000000000000000000000000000000000 000000000000000000000000000000000000000     00000000                                                                                                                        000000000000000000
F0010000010610700004000000827614700023658300000000000000000201711070002001ALVARO  HERNAN  PEREZ ALVAREZ                     C000000000000000000000000000000000100010010000000000000000000000F0010000010610700420171107000101 00000000000000000000000000000000000000000000000000000000000000000000000000000000000000000000000000000000000000000N 00000000000NCONT   00    00000000000          00000000000000000000000000000000000000000000 000000000000000A000000000000000000000000000000000000000000000 000000000000000000000000000000000000000     00000000                                                                                                                        000000000000000000
F0010000010610700005000000827614700013552100000000000000000201711070002001ALVARO  HERNAN  PEREZ ALVAREZ                     D000000000000000000000000000000000100010010000000000000000000000F0010000010610700520171107000101 00000000000000000000000000000000000000000000000000000000000000000000000000000000000000000000000000000000000000000N 00000000000NCONT   00    00000000000          00000000000000000000000000000000000000000000 000000000000000A000000000000000000000000000000000000000000000 000000000000000000000000000000000000000     00000000                                                                                                                        000000000000000000
F0010000010610800001000090001736600013050500000000000000000201711070002001AF SUMINISTROS E.U.                               D000000038610000000000000000000000100010010000000000000000000000F0010000010610800120171107000101 00000000000000000000000000000000000000000000000000000000000000000000000000000000000000000000000000000000000000000N 00000000000NCONT   00    00000000000          00000000000000000000000000000000000000000000 000000000000000A000000000000000000000000000000000000000000000 000000000000000000000000000000000000000     00000000                                                                                                                        000000000000000000
F0010000010610800002000090001736600041450500000000000000000201711070002001AF SUMINISTROS E.U.                               C000000033500000000000000000000000100010010000000000000000000000F0010000010610800220171107000101 00000000000000000000000000000000000000000000000000000000000000000000000000000000000000000000000000000000000000000N 00000000000NCONT   00    00000000000          00000000000000000000000000000000000000000000 000000000000000A000000000000000000000000000000000000000000000 000000000000000000000000000000000000000     00000000                                                                                                                        000000000000000000
F0010000010610800003000090001736600042505000000000000000000201711070002001AF SUMINISTROS E.U.                               C000000005110000000000000000000000100010010000000000000000000000F0010000010610800320171107000101 00000000000000000000000000000000000000000000000000000000000000000000000000000000000000000000000000000000000000000N 00000000000NCONT   00    00000000000          00000000000000000000000000000000000000000000 000000000000000A000000000000000000000000000000000000000000000 000000000000000000000000000000000000000     00000000                                                                                                                        000000000000000000
F0010000010610800004000090001736600023658300000000000000000201711070002001AF SUMINISTROS E.U.                               C000000000000000000000000000000000100010010000000000000000000000F0010000010610800420171107000101 00000000000000000000000000000000000000000000000000000000000000000000000000000000000000000000000000000000000000000N 00000000000NCONT   00    00000000000          00000000000000000000000000000000000000000000 000000000000000A000000000000000000000000000000000000000000000 000000000000000000000000000000000000000     00000000                                                                                                                        000000000000000000
F0010000010610800005000090001736600013552100000000000000000201711070002001AF SUMINISTROS E.U.                               D000000000000000000000000000000000100010010000000000000000000000F0010000010610800520171107000101 00000000000000000000000000000000000000000000000000000000000000000000000000000000000000000000000000000000000000000N 00000000000NCONT   00    00000000000          00000000000000000000000000000000000000000000 000000000000000A000000000000000000000000000000000000000000000 000000000000000000000000000000000000000     00000000                                                                                                                        000000000000000000
F0010000010610900001000090009800500013050500000000000000000201711070002001GLORIANT CHEMICHALS DE COLOMBIA LTDA              D000000011268000000000000000000000100010010000000000000000000000F0010000010610900120171107000101 00000000000000000000000000000000000000000000000000000000000000000000000000000000000000000000000000000000000000000N 00000000000NCONT   00    00000000000          00000000000000000000000000000000000000000000 000000000000000A000000000000000000000000000000000000000000000 000000000000000000000000000000000000000     00000000                                                                                                                        000000000000000000
F0010000010610900002000090009800500041450500000000000000000201711070002001GLORIANT CHEMICHALS DE COLOMBIA LTDA              C000000009600000000000000000000000100010010000000000000000000000F0010000010610900220171107000101 00000000000000000000000000000000000000000000000000000000000000000000000000000000000000000000000000000000000000000N 00000000000NCONT   00    00000000000          00000000000000000000000000000000000000000000 000000000000000A000000000000000000000000000000000000000000000 000000000000000000000000000000000000000     00000000                                                                                                                        000000000000000000
F0010000010610900003000090009800500042505000000000000000000201711070002001GLORIANT CHEMICHALS DE COLOMBIA LTDA              C000000001668000000000000000000000100010010000000000000000000000F0010000010610900320171107000101 00000000000000000000000000000000000000000000000000000000000000000000000000000000000000000000000000000000000000000N 00000000000NCONT   00    00000000000          00000000000000000000000000000000000000000000 000000000000000A000000000000000000000000000000000000000000000 000000000000000000000000000000000000000     00000000                                                                                                                        000000000000000000
F0010000010610900004000090009800500023658300000000000000000201711070002001GLORIANT CHEMICHALS DE COLOMBIA LTDA              C000000000000000000000000000000000100010010000000000000000000000F0010000010610900420171107000101 00000000000000000000000000000000000000000000000000000000000000000000000000000000000000000000000000000000000000000N 00000000000NCONT   00    00000000000          00000000000000000000000000000000000000000000 000000000000000A000000000000000000000000000000000000000000000 000000000000000000000000000000000000000     00000000                                                                                                                        000000000000000000
F0010000010610900005000090009800500013552100000000000000000201711070002001GLORIANT CHEMICHALS DE COLOMBIA LTDA              D000000000000000000000000000000000100010010000000000000000000000F0010000010610900520171107000101 00000000000000000000000000000000000000000000000000000000000000000000000000000000000000000000000000000000000000000N 00000000000NCONT   00    00000000000          00000000000000000000000000000000000000000000 000000000000000A000000000000000000000000000000000000000000000 000000000000000000000000000000000000000     00000000                                                                                                                        000000000000000000
F0010000010611100001000090008711200013050500000000000000000201711070002001PACKAGING SUPPLIERS S.A.S                         D000000022012000000000000000000000100010010000000000000000000000F0010000010611100120171107000101 00000000000000000000000000000000000000000000000000000000000000000000000000000000000000000000000000000000000000000N 00000000000NCONT   00    00000000000          00000000000000000000000000000000000000000000 000000000000000A000000000000000000000000000000000000000000000 000000000000000000000000000000000000000     00000000                                                                                                                        000000000000000000
F0010000010611100002000090008711200041450500000000000000000201711070002001PACKAGING SUPPLIERS S.A.S                         C000000020152000000000000000000000100010010000000000000000000000F0010000010611100220171107000101 00000000000000000000000000000000000000000000000000000000000000000000000000000000000000000000000000000000000000000N 00000000000NCONT   00    00000000000          00000000000000000000000000000000000000000000 000000000000000A000000000000000000000000000000000000000000000 000000000000000000000000000000000000000     00000000                                                                                                                        000000000000000000
F0010000010611100003000090008711200042505000000000000000000201711070002001PACKAGING SUPPLIERS S.A.S                         C000000001860000000000000000000000100010010000000000000000000000F0010000010611100320171107000101 00000000000000000000000000000000000000000000000000000000000000000000000000000000000000000000000000000000000000000N 00000000000NCONT   00    00000000000          00000000000000000000000000000000000000000000 000000000000000A000000000000000000000000000000000000000000000 000000000000000000000000000000000000000     00000000                                                                                                                        000000000000000000
F0010000010611100004000090008711200023658300000000000000000201711070002001PACKAGING SUPPLIERS S.A.S                         C000000000000000000000000000000000100010010000000000000000000000F0010000010611100420171107000101 00000000000000000000000000000000000000000000000000000000000000000000000000000000000000000000000000000000000000000N 00000000000NCONT   00    00000000000          00000000000000000000000000000000000000000000 000000000000000A000000000000000000000000000000000000000000000 000000000000000000000000000000000000000     00000000                                                                                                                        000000000000000000
F0010000010611100005000090008711200013552100000000000000000201711070002001PACKAGING SUPPLIERS S.A.S                         D000000000000000000000000000000000100010010000000000000000000000F0010000010611100520171107000101 00000000000000000000000000000000000000000000000000000000000000000000000000000000000000000000000000000000000000000N 00000000000NCONT   00    00000000000          00000000000000000000000000000000000000000000 000000000000000A000000000000000000000000000000000000000000000 000000000000000000000000000000000000000     00000000                                                                                                                        000000000000000000
F0010000010611200001000000376399500013050500000000000000000201711070002001FORDPLAST                                         D000000007950000000000000000000000100010010000000000000000000000F0010000010611200120171107000101 00000000000000000000000000000000000000000000000000000000000000000000000000000000000000000000000000000000000000000N 00000000000NCONT   00    00000000000          00000000000000000000000000000000000000000000 000000000000000A000000000000000000000000000000000000000000000 000000000000000000000000000000000000000     00000000                                                                                                                        000000000000000000
F0010000010611200002000000376399500041450500000000000000000201711070002001FORDPLAST                                         C000000006450000000000000000000000100010010000000000000000000000F0010000010611200220171107000101 00000000000000000000000000000000000000000000000000000000000000000000000000000000000000000000000000000000000000000N 00000000000NCONT   00    00000000000          00000000000000000000000000000000000000000000 000000000000000A000000000000000000000000000000000000000000000 000000000000000000000000000000000000000     00000000                                                                                                                        000000000000000000
F0010000010611200003000000376399500042505000000000000000000201711070002001FORDPLAST                                         C000000001500000000000000000000000100010010000000000000000000000F0010000010611200320171107000101 00000000000000000000000000000000000000000000000000000000000000000000000000000000000000000000000000000000000000000N 00000000000NCONT   00    00000000000          00000000000000000000000000000000000000000000 000000000000000A000000000000000000000000000000000000000000000 000000000000000000000000000000000000000     00000000                                                                                                                        000000000000000000
F0010000010611200004000000376399500023658300000000000000000201711070002001FORDPLAST                                         C000000000000000000000000000000000100010010000000000000000000000F0010000010611200420171107000101 00000000000000000000000000000000000000000000000000000000000000000000000000000000000000000000000000000000000000000N 00000000000NCONT   00    00000000000          00000000000000000000000000000000000000000000 000000000000000A000000000000000000000000000000000000000000000 000000000000000000000000000000000000000     00000000                                                                                                                        000000000000000000
F0010000010611200005000000376399500013552100000000000000000201711070002001FORDPLAST                                         D000000000000000000000000000000000100010010000000000000000000000F0010000010611200520171107000101 00000000000000000000000000000000000000000000000000000000000000000000000000000000000000000000000000000000000000000N 00000000000NCONT   00    00000000000          00000000000000000000000000000000000000000000 000000000000000A000000000000000000000000000000000000000000000 000000000000000000000000000000000000000     00000000                                                                                                                        000000000000000000
F0010000010611300001000090060531100013050500000000000000000201711070002001RECUBRIMIENTOS ESENCIALES SAS                     D000000161235000000000000000000000100010010000000000000000000000F0010000010611300120171107000101 00000000000000000000000000000000000000000000000000000000000000000000000000000000000000000000000000000000000000000N 00000000000NCONT   00    00000000000          00000000000000000000000000000000000000000000 000000000000000A000000000000000000000000000000000000000000000 000000000000000000000000000000000000000     00000000                                                                                                                        000000000000000000
F0010000010611300002000090060531100041450500000000000000000201711070002001RECUBRIMIENTOS ESENCIALES SAS                     C000000154935000000000000000000000100010010000000000000000000000F0010000010611300220171107000101 00000000000000000000000000000000000000000000000000000000000000000000000000000000000000000000000000000000000000000N 00000000000NCONT   00    00000000000          00000000000000000000000000000000000000000000 000000000000000A000000000000000000000000000000000000000000000 000000000000000000000000000000000000000     00000000                                                                                                                        000000000000000000
F0010000010611300003000090060531100042505000000000000000000201711070002001RECUBRIMIENTOS ESENCIALES SAS                     C000000006300000000000000000000000100010010000000000000000000000F0010000010611300320171107000101 00000000000000000000000000000000000000000000000000000000000000000000000000000000000000000000000000000000000000000N 00000000000NCONT   00    00000000000          00000000000000000000000000000000000000000000 000000000000000A000000000000000000000000000000000000000000000 000000000000000000000000000000000000000     00000000                                                                                                                        000000000000000000
F0010000010611300004000090060531100023658300000000000000000201711070002001RECUBRIMIENTOS ESENCIALES SAS                     C000000000000000000000000000000000100010010000000000000000000000F0010000010611300420171107000101 00000000000000000000000000000000000000000000000000000000000000000000000000000000000000000000000000000000000000000N 00000000000NCONT   00    00000000000          00000000000000000000000000000000000000000000 000000000000000A000000000000000000000000000000000000000000000 000000000000000000000000000000000000000     00000000                                                                                                                        000000000000000000
F0010000010611300005000090060531100013552100000000000000000201711070002001RECUBRIMIENTOS ESENCIALES SAS                     D000000000000000000000000000000000100010010000000000000000000000F0010000010611300520171107000101 00000000000000000000000000000000000000000000000000000000000000000000000000000000000000000000000000000000000000000N 00000000000NCONT   00    00000000000          00000000000000000000000000000000000000000000 000000000000000A000000000000000000000000000000000000000000000 000000000000000000000000000000000000000     00000000                                                                                                                        000000000000000000
F0010000010611400001000080200069100013050500000000000000000201711070002001PEGANTES Y PINTURAS ATLAS LTDA                    D000000020906200000000000000000000100010010000000000000000000000F0010000010611400120171107000101 00000000000000000000000000000000000000000000000000000000000000000000000000000000000000000000000000000000000000000N 00000000000NCONT   00    00000000000          00000000000000000000000000000000000000000000 000000000000000A000000000000000000000000000000000000000000000 000000000000000000000000000000000000000     00000000                                                                                                                        000000000000000000
F0010000010611400002000080200069100041450500000000000000000201711070002001PEGANTES Y PINTURAS ATLAS LTDA                    C000000018150000000000000000000000100010010000000000000000000000F0010000010611400220171107000101 00000000000000000000000000000000000000000000000000000000000000000000000000000000000000000000000000000000000000000N 00000000000NCONT   00    00000000000          00000000000000000000000000000000000000000000 000000000000000A000000000000000000000000000000000000000000000 000000000000000000000000000000000000000     00000000                                                                                                                        000000000000000000
F0010000010611400003000080200069100042505000000000000000000201711070002001PEGANTES Y PINTURAS ATLAS LTDA                    C000000002756200000000000000000000100010010000000000000000000000F0010000010611400320171107000101 00000000000000000000000000000000000000000000000000000000000000000000000000000000000000000000000000000000000000000N 00000000000NCONT   00    00000000000          00000000000000000000000000000000000000000000 000000000000000A000000000000000000000000000000000000000000000 000000000000000000000000000000000000000     00000000                                                                                                                        000000000000000000
F0010000010611400004000080200069100023658300000000000000000201711070002001PEGANTES Y PINTURAS ATLAS LTDA                    C000000000000000000000000000000000100010010000000000000000000000F0010000010611400420171107000101 00000000000000000000000000000000000000000000000000000000000000000000000000000000000000000000000000000000000000000N 00000000000NCONT   00    00000000000          00000000000000000000000000000000000000000000 000000000000000A000000000000000000000000000000000000000000000 000000000000000000000000000000000000000     00000000                                                                                                                        000000000000000000
F0010000010611400005000080200069100013552100000000000000000201711070002001PEGANTES Y PINTURAS ATLAS LTDA                    D000000000000000000000000000000000100010010000000000000000000000F0010000010611400520171107000101 00000000000000000000000000000000000000000000000000000000000000000000000000000000000000000000000000000000000000000N 00000000000NCONT   00    00000000000          00000000000000000000000000000000000000000000 000000000000000A000000000000000000000000000000000000000000000 000000000000000000000000000000000000000     00000000                                                                                                                        000000000000000000
F0010000010611500001000080016665600013050500000000000000000201711070002001SUMICAL DE ANTIOQUIA S.A.S                        D000000009426900000000000000000000100010010000000000000000000000F0010000010611500120171107000101 00000000000000000000000000000000000000000000000000000000000000000000000000000000000000000000000000000000000000000N 00000000000NCONT   00    00000000000          00000000000000000000000000000000000000000000 000000000000000A000000000000000000000000000000000000000000000 000000000000000000000000000000000000000     00000000                                                                                                                        000000000000000000
F0010000010611500002000080016665600041450500000000000000000201711070002001SUMICAL DE ANTIOQUIA S.A.S                        C000000007690000000000000000000000100010010000000000000000000000F0010000010611500220171107000101 00000000000000000000000000000000000000000000000000000000000000000000000000000000000000000000000000000000000000000N 00000000000NCONT   00    00000000000          00000000000000000000000000000000000000000000 000000000000000A000000000000000000000000000000000000000000000 000000000000000000000000000000000000000     00000000                                                                                                                        000000000000000000
F0010000010611500003000080016665600042505000000000000000000201711070002001SUMICAL DE ANTIOQUIA S.A.S                        C000000001736900000000000000000000100010010000000000000000000000F0010000010611500320171107000101 00000000000000000000000000000000000000000000000000000000000000000000000000000000000000000000000000000000000000000N 00000000000NCONT   00    00000000000          00000000000000000000000000000000000000000000 000000000000000A000000000000000000000000000000000000000000000 000000000000000000000000000000000000000     00000000                                                                                                                        000000000000000000
F0010000010611500004000080016665600023658300000000000000000201711070002001SUMICAL DE ANTIOQUIA S.A.S                        C000000000000000000000000000000000100010010000000000000000000000F0010000010611500420171107000101 00000000000000000000000000000000000000000000000000000000000000000000000000000000000000000000000000000000000000000N 00000000000NCONT   00    00000000000          00000000000000000000000000000000000000000000 000000000000000A000000000000000000000000000000000000000000000 000000000000000000000000000000000000000     00000000                                                                                                                        000000000000000000
F0010000010611500005000080016665600013552100000000000000000201711070002001SUMICAL DE ANTIOQUIA S.A.S                        D000000000000000000000000000000000100010010000000000000000000000F0010000010611500520171107000101 00000000000000000000000000000000000000000000000000000000000000000000000000000000000000000000000000000000000000000N 00000000000NCONT   00    00000000000          00000000000000000000000000000000000000000000 000000000000000A000000000000000000000000000000000000000000000 000000000000000000000000000000000000000     00000000                                                                                                                        000000000000000000
F0010000010611600001000090059316900013050500000000000000000201711070002001DISTRIBUCIONES Y REPRESENTACIONES MANA            D000000009034000000000000000000000100010010000000000000000000000F0010000010611600120171107000101 00000000000000000000000000000000000000000000000000000000000000000000000000000000000000000000000000000000000000000N 00000000000NCONT   00    00000000000          00000000000000000000000000000000000000000000 000000000000000A000000000000000000000000000000000000000000000 000000000000000000000000000000000000000     00000000                                                                                                                        000000000000000000
F0010000010611600002000090059316900041450500000000000000000201711070002001DISTRIBUCIONES Y REPRESENTACIONES MANA            C000000007600000000000000000000000100010010000000000000000000000F0010000010611600220171107000101 00000000000000000000000000000000000000000000000000000000000000000000000000000000000000000000000000000000000000000N 00000000000NCONT   00    00000000000          00000000000000000000000000000000000000000000 000000000000000A000000000000000000000000000000000000000000000 000000000000000000000000000000000000000     00000000                                                                                                                        000000000000000000
F0010000010611600003000090059316900042505000000000000000000201711070002001DISTRIBUCIONES Y REPRESENTACIONES MANA            C000000001434000000000000000000000100010010000000000000000000000F0010000010611600320171107000101 00000000000000000000000000000000000000000000000000000000000000000000000000000000000000000000000000000000000000000N 00000000000NCONT   00    00000000000          00000000000000000000000000000000000000000000 000000000000000A000000000000000000000000000000000000000000000 000000000000000000000000000000000000000     00000000                                                                                                                        000000000000000000
F0010000010611600004000090059316900023658300000000000000000201711070002001DISTRIBUCIONES Y REPRESENTACIONES MANA            C000000000000000000000000000000000100010010000000000000000000000F0010000010611600420171107000101 00000000000000000000000000000000000000000000000000000000000000000000000000000000000000000000000000000000000000000N 00000000000NCONT   00    00000000000          00000000000000000000000000000000000000000000 000000000000000A000000000000000000000000000000000000000000000 000000000000000000000000000000000000000     00000000                                                                                                                        000000000000000000
F0010000010611600005000090059316900013552100000000000000000201711070002001DISTRIBUCIONES Y REPRESENTACIONES MANA            D000000000000000000000000000000000100010010000000000000000000000F0010000010611600520171107000101 00000000000000000000000000000000000000000000000000000000000000000000000000000000000000000000000000000000000000000N 00000000000NCONT   00    00000000000          00000000000000000000000000000000000000000000 000000000000000A000000000000000000000000000000000000000000000 000000000000000000000000000000000000000     00000000                                                                                                                        000000000000000000
F0010000010611700001000002245670100013050500000000000000000201711070002001YOLANDA  TOBON                                    D000000037860700000000000000000000100010010000000000000000000000F0010000010611700120171107000101 00000000000000000000000000000000000000000000000000000000000000000000000000000000000000000000000000000000000000000N 00000000000NCONT   00    00000000000          00000000000000000000000000000000000000000000 000000000000000A000000000000000000000000000000000000000000000 000000000000000000000000000000000000000     00000000                                                                                                                        000000000000000000
F0010000010611700002000002245670100041450500000000000000000201711070002001YOLANDA  TOBON                                    C000000029540000000000000000000000100010010000000000000000000000F0010000010611700220171107000101 00000000000000000000000000000000000000000000000000000000000000000000000000000000000000000000000000000000000000000N 00000000000NCONT   00    00000000000          00000000000000000000000000000000000000000000 000000000000000A000000000000000000000000000000000000000000000 000000000000000000000000000000000000000     00000000                                                                                                                        000000000000000000
F0010000010611700003000002245670100042505000000000000000000201711070002001YOLANDA  TOBON                                    C000000008320700000000000000000000100010010000000000000000000000F0010000010611700320171107000101 00000000000000000000000000000000000000000000000000000000000000000000000000000000000000000000000000000000000000000N 00000000000NCONT   00    00000000000          00000000000000000000000000000000000000000000 000000000000000A000000000000000000000000000000000000000000000 000000000000000000000000000000000000000     00000000                                                                                                                        000000000000000000
F0010000010611700004000002245670100023658300000000000000000201711070002001YOLANDA  TOBON                                    C000000000000000000000000000000000100010010000000000000000000000F0010000010611700420171107000101 00000000000000000000000000000000000000000000000000000000000000000000000000000000000000000000000000000000000000000N 00000000000NCONT   00    00000000000          00000000000000000000000000000000000000000000 000000000000000A000000000000000000000000000000000000000000000 000000000000000000000000000000000000000     00000000                                                                                                                        000000000000000000
