F0010000006053900001000080022903500013050500000000000000000201407210002001TECNOGLASS S.A                                    D000000104394800000000000000000000100010010000000000000000000000F0010000006053900120140721000101 00000000000000000000000000000000000000000000000000000000000000000000000000000000000000000000000000000000000000000N 00000000000NCONT   00    00000000000          00000000000000000000000000000000000000000000 000000000000000A000000000000000000000000000000000000000000000 000000000000000000000000000000000000000     00000000                                                                                                                        000000000000000000
F0010000006053900002000080022903500041450500000000000000000201407210002001TECNOGLASS S.A                                    C000000089280000000000000000000000100010010000000000000000000000F0010000006053900220140721000101 00000000000000000000000000000000000000000000000000000000000000000000000000000000000000000000000000000000000000000N 00000000000NCONT   00    00000000000          00000000000000000000000000000000000000000000 000000000000000A000000000000000000000000000000000000000000000 000000000000000000000000000000000000000     00000000                                                                                                                        000000000000000000
F0010000006053900003000080022903500042505000000000000000000201407210002001TECNOGLASS S.A                                    C000000015114800000000000000000000100010010000000000000000000000F0010000006053900320140721000101 00000000000000000000000000000000000000000000000000000000000000000000000000000000000000000000000000000000000000000N 00000000000NCONT   00    00000000000          00000000000000000000000000000000000000000000 000000000000000A000000000000000000000000000000000000000000000 000000000000000000000000000000000000000     00000000                                                                                                                        000000000000000000
F0010000006053900004000080022903500023658300000000000000000201407210002001TECNOGLASS S.A                                    C000000000714200000000000000000000100010010000000000000000000000F0010000006053900420140721000101 00000000000000000000000000000000000000000000000000000000000000000000000000000000000000000000000000000000000000000N 00000000000NCONT   00    00000000000          00000000000000000000000000000000000000000000 000000000000000A000000000000000000000000000000000000000000000 000000000000000000000000000000000000000     00000000                                                                                                                        000000000000000000
F0010000006053900005000080022903500013552100000000000000000201407210002001TECNOGLASS S.A                                    D000000000714200000000000000000000100010010000000000000000000000F0010000006053900520140721000101 00000000000000000000000000000000000000000000000000000000000000000000000000000000000000000000000000000000000000000N 00000000000NCONT   00    00000000000          00000000000000000000000000000000000000000000 000000000000000A000000000000000000000000000000000000000000000 000000000000000000000000000000000000000     00000000                                                                                                                        000000000000000000
F0010000006054000001000003900336900011050500000000000000000201407210002001LUISA FERNANDA BOLAñOS                           D000000003062000000000000000000000100010010000000000000000000000F0010000006054000120140721000101 00000000000000000000000000000000000000000000000000000000000000000000000000000000000000000000000000000000000000000N 00000000000NCONT   00    00000000000          00000000000000000000000000000000000000000000 000000000000000A000000000000000000000000000000000000000000000 000000000000000000000000000000000000000     00000000                                                                                                                        000000000000000000
F0010000006054000002000003900336900041450500000000000000000201407210002001LUISA FERNANDA BOLAñOS                           C000000002700000000000000000000000100010010000000000000000000000F0010000006054000220140721000101 00000000000000000000000000000000000000000000000000000000000000000000000000000000000000000000000000000000000000000N 00000000000NCONT   00    00000000000          00000000000000000000000000000000000000000000 000000000000000A000000000000000000000000000000000000000000000 000000000000000000000000000000000000000     00000000                                                                                                                        000000000000000000
F0010000006054000003000003900336900042505000000000000000000201407210002001LUISA FERNANDA BOLAñOS                           C000000000362000000000000000000000100010010000000000000000000000F0010000006054000320140721000101 00000000000000000000000000000000000000000000000000000000000000000000000000000000000000000000000000000000000000000N 00000000000NCONT   00    00000000000          00000000000000000000000000000000000000000000 000000000000000A000000000000000000000000000000000000000000000 000000000000000000000000000000000000000     00000000                                                                                                                        000000000000000000
F0010000006054000004000003900336900023658300000000000000000201407210002001LUISA FERNANDA BOLAñOS                           C000000000021600000000000000000000100010010000000000000000000000F0010000006054000420140721000101 00000000000000000000000000000000000000000000000000000000000000000000000000000000000000000000000000000000000000000N 00000000000NCONT   00    00000000000          00000000000000000000000000000000000000000000 000000000000000A000000000000000000000000000000000000000000000 000000000000000000000000000000000000000     00000000                                                                                                                        000000000000000000
F0010000006054000005000003900336900013552100000000000000000201407210002001LUISA FERNANDA BOLAñOS                           D000000000021600000000000000000000100010010000000000000000000000F0010000006054000520140721000101 00000000000000000000000000000000000000000000000000000000000000000000000000000000000000000000000000000000000000000N 00000000000NCONT   00    00000000000          00000000000000000000000000000000000000000000 000000000000000A000000000000000000000000000000000000000000000 000000000000000000000000000000000000000     00000000                                                                                                                        000000000000000000
F0010000006054100001000080202350700011050500000000000000000201407210002001CONNY DE LA COSTA SAS                             D000000001000000000000000000000000100010010000000000000000000000F0010000006054100120140721000101 00000000000000000000000000000000000000000000000000000000000000000000000000000000000000000000000000000000000000000N 00000000000NCONT   00    00000000000          00000000000000000000000000000000000000000000 000000000000000A000000000000000000000000000000000000000000000 000000000000000000000000000000000000000     00000000                                                                                                                        000000000000000000
F0010000006054100002000080202350700041450500000000000000000201407210002001CONNY DE LA COSTA SAS                             C000000000800000000000000000000000100010010000000000000000000000F0010000006054100220140721000101 00000000000000000000000000000000000000000000000000000000000000000000000000000000000000000000000000000000000000000N 00000000000NCONT   00    00000000000          00000000000000000000000000000000000000000000 000000000000000A000000000000000000000000000000000000000000000 000000000000000000000000000000000000000     00000000                                                                                                                        000000000000000000
F0010000006054100003000080202350700042505000000000000000000201407210002001CONNY DE LA COSTA SAS                             C000000000200000000000000000000000100010010000000000000000000000F0010000006054100320140721000101 00000000000000000000000000000000000000000000000000000000000000000000000000000000000000000000000000000000000000000N 00000000000NCONT   00    00000000000          00000000000000000000000000000000000000000000 000000000000000A000000000000000000000000000000000000000000000 000000000000000000000000000000000000000     00000000                                                                                                                        000000000000000000
F0010000006054100004000080202350700023658300000000000000000201407210002001CONNY DE LA COSTA SAS                             C000000000006400000000000000000000100010010000000000000000000000F0010000006054100420140721000101 00000000000000000000000000000000000000000000000000000000000000000000000000000000000000000000000000000000000000000N 00000000000NCONT   00    00000000000          00000000000000000000000000000000000000000000 000000000000000A000000000000000000000000000000000000000000000 000000000000000000000000000000000000000     00000000                                                                                                                        000000000000000000
F0010000006054100005000080202350700013552100000000000000000201407210002001CONNY DE LA COSTA SAS                             D000000000006400000000000000000000100010010000000000000000000000F0010000006054100520140721000101 00000000000000000000000000000000000000000000000000000000000000000000000000000000000000000000000000000000000000000N 00000000000NCONT   00    00000000000          00000000000000000000000000000000000000000000 000000000000000A000000000000000000000000000000000000000000000 000000000000000000000000000000000000000     00000000                                                                                                                        000000000000000000
F0010000006054200001000090038852800011050500000000000000000201407210002001EL COMERCIO ELECTRICO DE LA CO                    D000000002000000000000000000000000100010010000000000000000000000F0010000006054200120140721000101 00000000000000000000000000000000000000000000000000000000000000000000000000000000000000000000000000000000000000000N 00000000000NCONT   00    00000000000          00000000000000000000000000000000000000000000 000000000000000A000000000000000000000000000000000000000000000 000000000000000000000000000000000000000     00000000                                                                                                                        000000000000000000
F0010000006054200002000090038852800041450500000000000000000201407210002001EL COMERCIO ELECTRICO DE LA CO                    C000000001800000000000000000000000100010010000000000000000000000F0010000006054200220140721000101 00000000000000000000000000000000000000000000000000000000000000000000000000000000000000000000000000000000000000000N 00000000000NCONT   00    00000000000          00000000000000000000000000000000000000000000 000000000000000A000000000000000000000000000000000000000000000 000000000000000000000000000000000000000     00000000                                                                                                                        000000000000000000
F0010000006054200003000090038852800042505000000000000000000201407210002001EL COMERCIO ELECTRICO DE LA CO                    C000000000200000000000000000000000100010010000000000000000000000F0010000006054200320140721000101 00000000000000000000000000000000000000000000000000000000000000000000000000000000000000000000000000000000000000000N 00000000000NCONT   00    00000000000          00000000000000000000000000000000000000000000 000000000000000A000000000000000000000000000000000000000000000 000000000000000000000000000000000000000     00000000                                                                                                                        000000000000000000
F0010000006054200004000090038852800023658300000000000000000201407210002001EL COMERCIO ELECTRICO DE LA CO                    C000000000014400000000000000000000100010010000000000000000000000F0010000006054200420140721000101 00000000000000000000000000000000000000000000000000000000000000000000000000000000000000000000000000000000000000000N 00000000000NCONT   00    00000000000          00000000000000000000000000000000000000000000 000000000000000A000000000000000000000000000000000000000000000 000000000000000000000000000000000000000     00000000                                                                                                                        000000000000000000
F0010000006054200005000090038852800013552100000000000000000201407210002001EL COMERCIO ELECTRICO DE LA CO                    D000000000014400000000000000000000100010010000000000000000000000F0010000006054200520140721000101 00000000000000000000000000000000000000000000000000000000000000000000000000000000000000000000000000000000000000000N 00000000000NCONT   00    00000000000          00000000000000000000000000000000000000000000 000000000000000A000000000000000000000000000000000000000000000 000000000000000000000000000000000000000     00000000                                                                                                                        000000000000000000
F0010000006054300001000080202350700011050500000000000000000201407210002001CONNY DE LA COSTA SAS                             D000000003000000000000000000000000100010010000000000000000000000F0010000006054300120140721000101 00000000000000000000000000000000000000000000000000000000000000000000000000000000000000000000000000000000000000000N 00000000000NCONT   00    00000000000          00000000000000000000000000000000000000000000 000000000000000A000000000000000000000000000000000000000000000 000000000000000000000000000000000000000     00000000                                                                                                                        000000000000000000
F0010000006054300002000080202350700041450500000000000000000201407210002001CONNY DE LA COSTA SAS                             C000000002100000000000000000000000100010010000000000000000000000F0010000006054300220140721000101 00000000000000000000000000000000000000000000000000000000000000000000000000000000000000000000000000000000000000000N 00000000000NCONT   00    00000000000          00000000000000000000000000000000000000000000 000000000000000A000000000000000000000000000000000000000000000 000000000000000000000000000000000000000     00000000                                                                                                                        000000000000000000
F0010000006054300003000080202350700042505000000000000000000201407210002001CONNY DE LA COSTA SAS                             C000000000900000000000000000000000100010010000000000000000000000F0010000006054300320140721000101 00000000000000000000000000000000000000000000000000000000000000000000000000000000000000000000000000000000000000000N 00000000000NCONT   00    00000000000          00000000000000000000000000000000000000000000 000000000000000A000000000000000000000000000000000000000000000 000000000000000000000000000000000000000     00000000                                                                                                                        000000000000000000
F0010000006054300004000080202350700023658300000000000000000201407210002001CONNY DE LA COSTA SAS                             C000000000016800000000000000000000100010010000000000000000000000F0010000006054300420140721000101 00000000000000000000000000000000000000000000000000000000000000000000000000000000000000000000000000000000000000000N 00000000000NCONT   00    00000000000          00000000000000000000000000000000000000000000 000000000000000A000000000000000000000000000000000000000000000 000000000000000000000000000000000000000     00000000                                                                                                                        000000000000000000
F0010000006054300005000080202350700013552100000000000000000201407210002001CONNY DE LA COSTA SAS                             D000000000016800000000000000000000100010010000000000000000000000F0010000006054300520140721000101 00000000000000000000000000000000000000000000000000000000000000000000000000000000000000000000000000000000000000000N 00000000000NCONT   00    00000000000          00000000000000000000000000000000000000000000 000000000000000A000000000000000000000000000000000000000000000 000000000000000000000000000000000000000     00000000                                                                                                                        000000000000000000
F0010000006054400001000080202350700011050500000000000000000201407210002001CONNY DE LA COSTA SAS                             D000000001800000000000000000000000100010010000000000000000000000F0010000006054400120140721000101 00000000000000000000000000000000000000000000000000000000000000000000000000000000000000000000000000000000000000000N 00000000000NCONT   00    00000000000          00000000000000000000000000000000000000000000 000000000000000A000000000000000000000000000000000000000000000 000000000000000000000000000000000000000     00000000                                                                                                                        000000000000000000
F0010000006054400002000080202350700041450500000000000000000201407210002001CONNY DE LA COSTA SAS                             C000000001500000000000000000000000100010010000000000000000000000F0010000006054400220140721000101 00000000000000000000000000000000000000000000000000000000000000000000000000000000000000000000000000000000000000000N 00000000000NCONT   00    00000000000          00000000000000000000000000000000000000000000 000000000000000A000000000000000000000000000000000000000000000 000000000000000000000000000000000000000     00000000                                                                                                                        000000000000000000
F0010000006054400003000080202350700042505000000000000000000201407210002001CONNY DE LA COSTA SAS                             C000000000300000000000000000000000100010010000000000000000000000F0010000006054400320140721000101 00000000000000000000000000000000000000000000000000000000000000000000000000000000000000000000000000000000000000000N 00000000000NCONT   00    00000000000          00000000000000000000000000000000000000000000 000000000000000A000000000000000000000000000000000000000000000 000000000000000000000000000000000000000     00000000                                                                                                                        000000000000000000
F0010000006054400004000080202350700023658300000000000000000201407210002001CONNY DE LA COSTA SAS                             C000000000012000000000000000000000100010010000000000000000000000F0010000006054400420140721000101 00000000000000000000000000000000000000000000000000000000000000000000000000000000000000000000000000000000000000000N 00000000000NCONT   00    00000000000          00000000000000000000000000000000000000000000 000000000000000A000000000000000000000000000000000000000000000 000000000000000000000000000000000000000     00000000                                                                                                                        000000000000000000
F0010000006054400005000080202350700013552100000000000000000201407210002001CONNY DE LA COSTA SAS                             D000000000012000000000000000000000100010010000000000000000000000F0010000006054400520140721000101 00000000000000000000000000000000000000000000000000000000000000000000000000000000000000000000000000000000000000000N 00000000000NCONT   00    00000000000          00000000000000000000000000000000000000000000 000000000000000A000000000000000000000000000000000000000000000 000000000000000000000000000000000000000     00000000                                                                                                                        000000000000000000
F0010000006054500001000007090373900011050500000000000000000201407210002001CACHARRERIA LOS MARINILLOS                        D000000001000000000000000000000000100010010000000000000000000000F0010000006054500120140721000101 00000000000000000000000000000000000000000000000000000000000000000000000000000000000000000000000000000000000000000N 00000000000NCONT   00    00000000000          00000000000000000000000000000000000000000000 000000000000000A000000000000000000000000000000000000000000000 000000000000000000000000000000000000000     00000000                                                                                                                        000000000000000000
F0010000006054500002000007090373900041450500000000000000000201407210002001CACHARRERIA LOS MARINILLOS                        C000000000700000000000000000000000100010010000000000000000000000F0010000006054500220140721000101 00000000000000000000000000000000000000000000000000000000000000000000000000000000000000000000000000000000000000000N 00000000000NCONT   00    00000000000          00000000000000000000000000000000000000000000 000000000000000A000000000000000000000000000000000000000000000 000000000000000000000000000000000000000     00000000                                                                                                                        000000000000000000
F0010000006054500003000007090373900042505000000000000000000201407210002001CACHARRERIA LOS MARINILLOS                        C000000000300000000000000000000000100010010000000000000000000000F0010000006054500320140721000101 00000000000000000000000000000000000000000000000000000000000000000000000000000000000000000000000000000000000000000N 00000000000NCONT   00    00000000000          00000000000000000000000000000000000000000000 000000000000000A000000000000000000000000000000000000000000000 000000000000000000000000000000000000000     00000000                                                                                                                        000000000000000000
F0010000006054500004000007090373900023658300000000000000000201407210002001CACHARRERIA LOS MARINILLOS                        C000000000005600000000000000000000100010010000000000000000000000F0010000006054500420140721000101 00000000000000000000000000000000000000000000000000000000000000000000000000000000000000000000000000000000000000000N 00000000000NCONT   00    00000000000          00000000000000000000000000000000000000000000 000000000000000A000000000000000000000000000000000000000000000 000000000000000000000000000000000000000     00000000                                                                                                                        000000000000000000
F0010000006054500005000007090373900013552100000000000000000201407210002001CACHARRERIA LOS MARINILLOS                        D000000000005600000000000000000000100010010000000000000000000000F0010000006054500520140721000101 00000000000000000000000000000000000000000000000000000000000000000000000000000000000000000000000000000000000000000N 00000000000NCONT   00    00000000000          00000000000000000000000000000000000000000000 000000000000000A000000000000000000000000000000000000000000000 000000000000000000000000000000000000000     00000000                                                                                                                        000000000000000000
F0010000006054600001000090060166600011050500000000000000000201407210002001MEGASOLDER SAS                                    D000000008000000000000000000000000100010010000000000000000000000F0010000006054600120140721000101 00000000000000000000000000000000000000000000000000000000000000000000000000000000000000000000000000000000000000000N 00000000000NCONT   00    00000000000          00000000000000000000000000000000000000000000 000000000000000A000000000000000000000000000000000000000000000 000000000000000000000000000000000000000     00000000                                                                                                                        000000000000000000
F0010000006054600002000090060166600041450500000000000000000201407210002001MEGASOLDER SAS                                    C000000007000000000000000000000000100010010000000000000000000000F0010000006054600220140721000101 00000000000000000000000000000000000000000000000000000000000000000000000000000000000000000000000000000000000000000N 00000000000NCONT   00    00000000000          00000000000000000000000000000000000000000000 000000000000000A000000000000000000000000000000000000000000000 000000000000000000000000000000000000000     00000000                                                                                                                        000000000000000000
F0010000006054600003000090060166600042505000000000000000000201407210002001MEGASOLDER SAS                                    C000000001000000000000000000000000100010010000000000000000000000F0010000006054600320140721000101 00000000000000000000000000000000000000000000000000000000000000000000000000000000000000000000000000000000000000000N 00000000000NCONT   00    00000000000          00000000000000000000000000000000000000000000 000000000000000A000000000000000000000000000000000000000000000 000000000000000000000000000000000000000     00000000                                                                                                                        000000000000000000
F0010000006054600004000090060166600023658300000000000000000201407210002001MEGASOLDER SAS                                    C000000000056000000000000000000000100010010000000000000000000000F0010000006054600420140721000101 00000000000000000000000000000000000000000000000000000000000000000000000000000000000000000000000000000000000000000N 00000000000NCONT   00    00000000000          00000000000000000000000000000000000000000000 000000000000000A000000000000000000000000000000000000000000000 000000000000000000000000000000000000000     00000000                                                                                                                        000000000000000000
F0010000006054600005000090060166600013552100000000000000000201407210002001MEGASOLDER SAS                                    D000000000056000000000000000000000100010010000000000000000000000F0010000006054600520140721000101 00000000000000000000000000000000000000000000000000000000000000000000000000000000000000000000000000000000000000000N 00000000000NCONT   00    00000000000          00000000000000000000000000000000000000000000 000000000000000A000000000000000000000000000000000000000000000 000000000000000000000000000000000000000     00000000                                                                                                                        000000000000000000
F0010000006054700001000007200023300011050500000000000000000201407210002001WILLIAM ORTEGA                                    D000000003000000000000000000000000100010010000000000000000000000F0010000006054700120140721000101 00000000000000000000000000000000000000000000000000000000000000000000000000000000000000000000000000000000000000000N 00000000000NCONT   00    00000000000          00000000000000000000000000000000000000000000 000000000000000A000000000000000000000000000000000000000000000 000000000000000000000000000000000000000     00000000                                                                                                                        000000000000000000
F0010000006054700002000007200023300041450500000000000000000201407210002001WILLIAM ORTEGA                                    C000000002700000000000000000000000100010010000000000000000000000F0010000006054700220140721000101 00000000000000000000000000000000000000000000000000000000000000000000000000000000000000000000000000000000000000000N 00000000000NCONT   00    00000000000          00000000000000000000000000000000000000000000 000000000000000A000000000000000000000000000000000000000000000 000000000000000000000000000000000000000     00000000                                                                                                                        000000000000000000
F0010000006054700003000007200023300042505000000000000000000201407210002001WILLIAM ORTEGA                                    C000000000300000000000000000000000100010010000000000000000000000F0010000006054700320140721000101 00000000000000000000000000000000000000000000000000000000000000000000000000000000000000000000000000000000000000000N 00000000000NCONT   00    00000000000          00000000000000000000000000000000000000000000 000000000000000A000000000000000000000000000000000000000000000 000000000000000000000000000000000000000     00000000                                                                                                                        000000000000000000
F0010000006054700004000007200023300023658300000000000000000201407210002001WILLIAM ORTEGA                                    C000000000021600000000000000000000100010010000000000000000000000F0010000006054700420140721000101 00000000000000000000000000000000000000000000000000000000000000000000000000000000000000000000000000000000000000000N 00000000000NCONT   00    00000000000          00000000000000000000000000000000000000000000 000000000000000A000000000000000000000000000000000000000000000 000000000000000000000000000000000000000     00000000                                                                                                                        000000000000000000
F0010000006054700005000007200023300013552100000000000000000201407210002001WILLIAM ORTEGA                                    D000000000021600000000000000000000100010010000000000000000000000F0010000006054700520140721000101 00000000000000000000000000000000000000000000000000000000000000000000000000000000000000000000000000000000000000000N 00000000000NCONT   00    00000000000          00000000000000000000000000000000000000000000 000000000000000A000000000000000000000000000000000000000000000 000000000000000000000000000000000000000     00000000                                                                                                                        000000000000000000
F0010000006054800001000000872671800011050500000000000000000201407210002001RUBEN ARENAS PARRA                                D000000004800000000000000000000000100010010000000000000000000000F0010000006054800120140721000101 00000000000000000000000000000000000000000000000000000000000000000000000000000000000000000000000000000000000000000N 00000000000NCONT   00    00000000000          00000000000000000000000000000000000000000000 000000000000000A000000000000000000000000000000000000000000000 000000000000000000000000000000000000000     00000000                                                                                                                        000000000000000000
F0010000006054800002000000872671800041450500000000000000000201407210002001RUBEN ARENAS PARRA                                C000000003000000000000000000000000100010010000000000000000000000F0010000006054800220140721000101 00000000000000000000000000000000000000000000000000000000000000000000000000000000000000000000000000000000000000000N 00000000000NCONT   00    00000000000          00000000000000000000000000000000000000000000 000000000000000A000000000000000000000000000000000000000000000 000000000000000000000000000000000000000     00000000                                                                                                                        000000000000000000
F0010000006054800003000000872671800042505000000000000000000201407210002001RUBEN ARENAS PARRA                                C000000001800000000000000000000000100010010000000000000000000000F0010000006054800320140721000101 00000000000000000000000000000000000000000000000000000000000000000000000000000000000000000000000000000000000000000N 00000000000NCONT   00    00000000000          00000000000000000000000000000000000000000000 000000000000000A000000000000000000000000000000000000000000000 000000000000000000000000000000000000000     00000000                                                                                                                        000000000000000000
F0010000006054800004000000872671800023658300000000000000000201407210002001RUBEN ARENAS PARRA                                C000000000024000000000000000000000100010010000000000000000000000F0010000006054800420140721000101 00000000000000000000000000000000000000000000000000000000000000000000000000000000000000000000000000000000000000000N 00000000000NCONT   00    00000000000          00000000000000000000000000000000000000000000 000000000000000A000000000000000000000000000000000000000000000 000000000000000000000000000000000000000     00000000                                                                                                                        000000000000000000
F0010000006054800005000000872671800013552100000000000000000201407210002001RUBEN ARENAS PARRA                                D000000000024000000000000000000000100010010000000000000000000000F0010000006054800520140721000101 00000000000000000000000000000000000000000000000000000000000000000000000000000000000000000000000000000000000000000N 00000000000NCONT   00    00000000000          00000000000000000000000000000000000000000000 000000000000000A000000000000000000000000000000000000000000000 000000000000000000000000000000000000000     00000000                                                                                                                        000000000000000000
F0010000006054900001000000872671800011050500000000000000000201407210002001RUBEN ARENAS PARRA                                D000000002700000000000000000000000100010010000000000000000000000F0010000006054900120140721000101 00000000000000000000000000000000000000000000000000000000000000000000000000000000000000000000000000000000000000000N 00000000000NCONT   00    00000000000          00000000000000000000000000000000000000000000 000000000000000A000000000000000000000000000000000000000000000 000000000000000000000000000000000000000     00000000                                                                                                                        000000000000000000
F0010000006054900002000000872671800041450500000000000000000201407210002001RUBEN ARENAS PARRA                                C000000002000000000000000000000000100010010000000000000000000000F0010000006054900220140721000101 00000000000000000000000000000000000000000000000000000000000000000000000000000000000000000000000000000000000000000N 00000000000NCONT   00    00000000000          00000000000000000000000000000000000000000000 000000000000000A000000000000000000000000000000000000000000000 000000000000000000000000000000000000000     00000000                                                                                                                        000000000000000000
F0010000006054900003000000872671800042505000000000000000000201407210002001RUBEN ARENAS PARRA                                C000000000700000000000000000000000100010010000000000000000000000F0010000006054900320140721000101 00000000000000000000000000000000000000000000000000000000000000000000000000000000000000000000000000000000000000000N 00000000000NCONT   00    00000000000          00000000000000000000000000000000000000000000 000000000000000A000000000000000000000000000000000000000000000 000000000000000000000000000000000000000     00000000                                                                                                                        000000000000000000
F0010000006054900004000000872671800023658300000000000000000201407210002001RUBEN ARENAS PARRA                                C000000000016000000000000000000000100010010000000000000000000000F0010000006054900420140721000101 00000000000000000000000000000000000000000000000000000000000000000000000000000000000000000000000000000000000000000N 00000000000NCONT   00    00000000000          00000000000000000000000000000000000000000000 000000000000000A000000000000000000000000000000000000000000000 000000000000000000000000000000000000000     00000000                                                                                                                        000000000000000000
F0010000006054900005000000872671800013552100000000000000000201407210002001RUBEN ARENAS PARRA                                D000000000016000000000000000000000100010010000000000000000000000F0010000006054900520140721000101 00000000000000000000000000000000000000000000000000000000000000000000000000000000000000000000000000000000000000000N 00000000000NCONT   00    00000000000          00000000000000000000000000000000000000000000 000000000000000A000000000000000000000000000000000000000000000 000000000000000000000000000000000000000     00000000                                                                                                                        000000000000000000
F0010000006055000001000080012418800011050500000000000000000201407210002001DISTRITEC S.A.S                                   D000000002800000000000000000000000100010010000000000000000000000F0010000006055000120140721000101 00000000000000000000000000000000000000000000000000000000000000000000000000000000000000000000000000000000000000000N 00000000000NCONT   00    00000000000          00000000000000000000000000000000000000000000 000000000000000A000000000000000000000000000000000000000000000 000000000000000000000000000000000000000     00000000                                                                                                                        000000000000000000
F0010000006055000002000080012418800041450500000000000000000201407210002001DISTRITEC S.A.S                                   C000000002700000000000000000000000100010010000000000000000000000F0010000006055000220140721000101 00000000000000000000000000000000000000000000000000000000000000000000000000000000000000000000000000000000000000000N 00000000000NCONT   00    00000000000          00000000000000000000000000000000000000000000 000000000000000A000000000000000000000000000000000000000000000 000000000000000000000000000000000000000     00000000                                                                                                                        000000000000000000
F0010000006055000003000080012418800042505000000000000000000201407210002001DISTRITEC S.A.S                                   C000000000100000000000000000000000100010010000000000000000000000F0010000006055000320140721000101 00000000000000000000000000000000000000000000000000000000000000000000000000000000000000000000000000000000000000000N 00000000000NCONT   00    00000000000          00000000000000000000000000000000000000000000 000000000000000A000000000000000000000000000000000000000000000 000000000000000000000000000000000000000     00000000                                                                                                                        000000000000000000
F0010000006055000004000080012418800023658300000000000000000201407210002001DISTRITEC S.A.S                                   C000000000021600000000000000000000100010010000000000000000000000F0010000006055000420140721000101 00000000000000000000000000000000000000000000000000000000000000000000000000000000000000000000000000000000000000000N 00000000000NCONT   00    00000000000          00000000000000000000000000000000000000000000 000000000000000A000000000000000000000000000000000000000000000 000000000000000000000000000000000000000     00000000                                                                                                                        000000000000000000
F0010000006055000005000080012418800013552100000000000000000201407210002001DISTRITEC S.A.S                                   D000000000021600000000000000000000100010010000000000000000000000F0010000006055000520140721000101 00000000000000000000000000000000000000000000000000000000000000000000000000000000000000000000000000000000000000000N 00000000000NCONT   00    00000000000          00000000000000000000000000000000000000000000 000000000000000A000000000000000000000000000000000000000000000 000000000000000000000000000000000000000     00000000                                                                                                                        000000000000000000
F0010000006055100001000089010404900011050500000000000000000201407210002001CALCAREOS SA                                      D000000003000000000000000000000000100010010000000000000000000000F0010000006055100120140721000101 00000000000000000000000000000000000000000000000000000000000000000000000000000000000000000000000000000000000000000N 00000000000NCONT   00    00000000000          00000000000000000000000000000000000000000000 000000000000000A000000000000000000000000000000000000000000000 000000000000000000000000000000000000000     00000000                                                                                                                        000000000000000000
F0010000006055100002000089010404900041450500000000000000000201407210002001CALCAREOS SA                                      C000000002900000000000000000000000100010010000000000000000000000F0010000006055100220140721000101 00000000000000000000000000000000000000000000000000000000000000000000000000000000000000000000000000000000000000000N 00000000000NCONT   00    00000000000          00000000000000000000000000000000000000000000 000000000000000A000000000000000000000000000000000000000000000 000000000000000000000000000000000000000     00000000                                                                                                                        000000000000000000
F0010000006055100003000089010404900042505000000000000000000201407210002001CALCAREOS SA                                      C000000000100000000000000000000000100010010000000000000000000000F0010000006055100320140721000101 00000000000000000000000000000000000000000000000000000000000000000000000000000000000000000000000000000000000000000N 00000000000NCONT   00    00000000000          00000000000000000000000000000000000000000000 000000000000000A000000000000000000000000000000000000000000000 000000000000000000000000000000000000000     00000000                                                                                                                        000000000000000000
F0010000006055100004000089010404900023658300000000000000000201407210002001CALCAREOS SA                                      C000000000023200000000000000000000100010010000000000000000000000F0010000006055100420140721000101 00000000000000000000000000000000000000000000000000000000000000000000000000000000000000000000000000000000000000000N 00000000000NCONT   00    00000000000          00000000000000000000000000000000000000000000 000000000000000A000000000000000000000000000000000000000000000 000000000000000000000000000000000000000     00000000                                                                                                                        000000000000000000
F0010000006055100005000089010404900013552100000000000000000201407210002001CALCAREOS SA                                      D000000000023200000000000000000000100010010000000000000000000000F0010000006055100520140721000101 00000000000000000000000000000000000000000000000000000000000000000000000000000000000000000000000000000000000000000N 00000000000NCONT   00    00000000000          00000000000000000000000000000000000000000000 000000000000000A000000000000000000000000000000000000000000000 000000000000000000000000000000000000000     00000000                                                                                                                        000000000000000000
F0010000006055200001000001719393900011050500000000000000000201407210002001JAIRO BASTIDAS RAMIREZ                            D000000002900000000000000000000000100010010000000000000000000000F0010000006055200120140721000101 00000000000000000000000000000000000000000000000000000000000000000000000000000000000000000000000000000000000000000N 00000000000NCONT   00    00000000000          00000000000000000000000000000000000000000000 000000000000000A000000000000000000000000000000000000000000000 000000000000000000000000000000000000000     00000000                                                                                                                        000000000000000000
F0010000006055200002000001719393900041450500000000000000000201407210002001JAIRO BASTIDAS RAMIREZ                            C000000002400000000000000000000000100010010000000000000000000000F0010000006055200220140721000101 00000000000000000000000000000000000000000000000000000000000000000000000000000000000000000000000000000000000000000N 00000000000NCONT   00    00000000000          00000000000000000000000000000000000000000000 000000000000000A000000000000000000000000000000000000000000000 000000000000000000000000000000000000000     00000000                                                                                                                        000000000000000000
F0010000006055200003000001719393900042505000000000000000000201407210002001JAIRO BASTIDAS RAMIREZ                            C000000000500000000000000000000000100010010000000000000000000000F0010000006055200320140721000101 00000000000000000000000000000000000000000000000000000000000000000000000000000000000000000000000000000000000000000N 00000000000NCONT   00    00000000000          00000000000000000000000000000000000000000000 000000000000000A000000000000000000000000000000000000000000000 000000000000000000000000000000000000000     00000000                                                                                                                        000000000000000000
F0010000006055200004000001719393900023658300000000000000000201407210002001JAIRO BASTIDAS RAMIREZ                            C000000000019200000000000000000000100010010000000000000000000000F0010000006055200420140721000101 00000000000000000000000000000000000000000000000000000000000000000000000000000000000000000000000000000000000000000N 00000000000NCONT   00    00000000000          00000000000000000000000000000000000000000000 000000000000000A000000000000000000000000000000000000000000000 000000000000000000000000000000000000000     00000000                                                                                                                        000000000000000000
F0010000006055200005000001719393900013552100000000000000000201407210002001JAIRO BASTIDAS RAMIREZ                            D000000000019200000000000000000000100010010000000000000000000000F0010000006055200520140721000101 00000000000000000000000000000000000000000000000000000000000000000000000000000000000000000000000000000000000000000N 00000000000NCONT   00    00000000000          00000000000000000000000000000000000000000000 000000000000000A000000000000000000000000000000000000000000000 000000000000000000000000000000000000000     00000000                                                                                                                        000000000000000000
F0010000006055300001000001719393900011050500000000000000000201407210002001JAIRO BASTIDAS RAMIREZ                            D000000001400000000000000000000000100010010000000000000000000000F0010000006055300120140721000101 00000000000000000000000000000000000000000000000000000000000000000000000000000000000000000000000000000000000000000N 00000000000NCONT   00    00000000000          00000000000000000000000000000000000000000000 000000000000000A000000000000000000000000000000000000000000000 000000000000000000000000000000000000000     00000000                                                                                                                        000000000000000000
F0010000006055300002000001719393900041450500000000000000000201407210002001JAIRO BASTIDAS RAMIREZ                            C000000001200000000000000000000000100010010000000000000000000000F0010000006055300220140721000101 00000000000000000000000000000000000000000000000000000000000000000000000000000000000000000000000000000000000000000N 00000000000NCONT   00    00000000000          00000000000000000000000000000000000000000000 000000000000000A000000000000000000000000000000000000000000000 000000000000000000000000000000000000000     00000000                                                                                                                        000000000000000000
F0010000006055300003000001719393900042505000000000000000000201407210002001JAIRO BASTIDAS RAMIREZ                            C000000000200000000000000000000000100010010000000000000000000000F0010000006055300320140721000101 00000000000000000000000000000000000000000000000000000000000000000000000000000000000000000000000000000000000000000N 00000000000NCONT   00    00000000000          00000000000000000000000000000000000000000000 000000000000000A000000000000000000000000000000000000000000000 000000000000000000000000000000000000000     00000000                                                                                                                        000000000000000000
F0010000006055300004000001719393900023658300000000000000000201407210002001JAIRO BASTIDAS RAMIREZ                            C000000000009600000000000000000000100010010000000000000000000000F0010000006055300420140721000101 00000000000000000000000000000000000000000000000000000000000000000000000000000000000000000000000000000000000000000N 00000000000NCONT   00    00000000000          00000000000000000000000000000000000000000000 000000000000000A000000000000000000000000000000000000000000000 000000000000000000000000000000000000000     00000000                                                                                                                        000000000000000000
F0010000006055300005000001719393900013552100000000000000000201407210002001JAIRO BASTIDAS RAMIREZ                            D000000000009600000000000000000000100010010000000000000000000000F0010000006055300520140721000101 00000000000000000000000000000000000000000000000000000000000000000000000000000000000000000000000000000000000000000N 00000000000NCONT   00    00000000000          00000000000000000000000000000000000000000000 000000000000000A000000000000000000000000000000000000000000000 000000000000000000000000000000000000000     00000000                                                                                                                        000000000000000000
F0010000006055400001000003276535300011050500000000000000000201407210002001YASLEYS CATAÑO ESCOBAR                           D000000005560000000000000000000000100010010000000000000000000000F0010000006055400120140721000101 00000000000000000000000000000000000000000000000000000000000000000000000000000000000000000000000000000000000000000N 00000000000NCONT   00    00000000000          00000000000000000000000000000000000000000000 000000000000000A000000000000000000000000000000000000000000000 000000000000000000000000000000000000000     00000000                                                                                                                        000000000000000000
F0010000006055400002000003276535300041450500000000000000000201407210002001YASLEYS CATAÑO ESCOBAR                           C000000004760000000000000000000000100010010000000000000000000000F0010000006055400220140721000101 00000000000000000000000000000000000000000000000000000000000000000000000000000000000000000000000000000000000000000N 00000000000NCONT   00    00000000000          00000000000000000000000000000000000000000000 000000000000000A000000000000000000000000000000000000000000000 000000000000000000000000000000000000000     00000000                                                                                                                        000000000000000000
F0010000006055400003000003276535300042505000000000000000000201407210002001YASLEYS CATAÑO ESCOBAR                           C000000000800000000000000000000000100010010000000000000000000000F0010000006055400320140721000101 00000000000000000000000000000000000000000000000000000000000000000000000000000000000000000000000000000000000000000N 00000000000NCONT   00    00000000000          00000000000000000000000000000000000000000000 000000000000000A000000000000000000000000000000000000000000000 000000000000000000000000000000000000000     00000000                                                                                                                        000000000000000000
F0010000006055400004000003276535300023658300000000000000000201407210002001YASLEYS CATAÑO ESCOBAR                           C000000000038100000000000000000000100010010000000000000000000000F0010000006055400420140721000101 00000000000000000000000000000000000000000000000000000000000000000000000000000000000000000000000000000000000000000N 00000000000NCONT   00    00000000000          00000000000000000000000000000000000000000000 000000000000000A000000000000000000000000000000000000000000000 000000000000000000000000000000000000000     00000000                                                                                                                        000000000000000000
F0010000006055400005000003276535300013552100000000000000000201407210002001YASLEYS CATAÑO ESCOBAR                           D000000000038100000000000000000000100010010000000000000000000000F0010000006055400520140721000101 00000000000000000000000000000000000000000000000000000000000000000000000000000000000000000000000000000000000000000N 00000000000NCONT   00    00000000000          00000000000000000000000000000000000000000000 000000000000000A000000000000000000000000000000000000000000000 000000000000000000000000000000000000000     00000000                                                                                                                        000000000000000000
F0010000006055500001000003276535300011050500000000000000000201407210002001YASLEYS CATAÑO ESCOBAR                           D000000009330000000000000000000000100010010000000000000000000000F0010000006055500120140721000101 00000000000000000000000000000000000000000000000000000000000000000000000000000000000000000000000000000000000000000N 00000000000NCONT   00    00000000000          00000000000000000000000000000000000000000000 000000000000000A000000000000000000000000000000000000000000000 000000000000000000000000000000000000000     00000000                                                                                                                        000000000000000000
F0010000006055500002000003276535300041450500000000000000000201407210002001YASLEYS CATAÑO ESCOBAR                           C000000008330000000000000000000000100010010000000000000000000000F0010000006055500220140721000101 00000000000000000000000000000000000000000000000000000000000000000000000000000000000000000000000000000000000000000N 00000000000NCONT   00    00000000000          00000000000000000000000000000000000000000000 000000000000000A000000000000000000000000000000000000000000000 000000000000000000000000000000000000000     00000000                                                                                                                        000000000000000000
F0010000006055500003000003276535300042505000000000000000000201407210002001YASLEYS CATAÑO ESCOBAR                           C000000001000000000000000000000000100010010000000000000000000000F0010000006055500320140721000101 00000000000000000000000000000000000000000000000000000000000000000000000000000000000000000000000000000000000000000N 00000000000NCONT   00    00000000000          00000000000000000000000000000000000000000000 000000000000000A000000000000000000000000000000000000000000000 000000000000000000000000000000000000000     00000000                                                                                                                        000000000000000000
F0010000006055500004000003276535300023658300000000000000000201407210002001YASLEYS CATAÑO ESCOBAR                           C000000000066600000000000000000000100010010000000000000000000000F0010000006055500420140721000101 00000000000000000000000000000000000000000000000000000000000000000000000000000000000000000000000000000000000000000N 00000000000NCONT   00    00000000000          00000000000000000000000000000000000000000000 000000000000000A000000000000000000000000000000000000000000000 000000000000000000000000000000000000000     00000000                                                                                                                        000000000000000000
F0010000006055500005000003276535300013552100000000000000000201407210002001YASLEYS CATAÑO ESCOBAR                           D000000000066600000000000000000000100010010000000000000000000000F0010000006055500520140721000101 00000000000000000000000000000000000000000000000000000000000000000000000000000000000000000000000000000000000000000N 00000000000NCONT   00    00000000000          00000000000000000000000000000000000000000000 000000000000000A000000000000000000000000000000000000000000000 000000000000000000000000000000000000000     00000000                                                                                                                        000000000000000000
F0010000006055600001000003276535300011050500000000000000000201407210002001YASLEYS CATAÑO ESCOBAR                           D000000003880000000000000000000000100010010000000000000000000000F0010000006055600120140721000101 00000000000000000000000000000000000000000000000000000000000000000000000000000000000000000000000000000000000000000N 00000000000NCONT   00    00000000000          00000000000000000000000000000000000000000000 000000000000000A000000000000000000000000000000000000000000000 000000000000000000000000000000000000000     00000000                                                                                                                        000000000000000000
F0010000006055600002000003276535300041450500000000000000000201407210002001YASLEYS CATAÑO ESCOBAR                           C000000002380000000000000000000000100010010000000000000000000000F0010000006055600220140721000101 00000000000000000000000000000000000000000000000000000000000000000000000000000000000000000000000000000000000000000N 00000000000NCONT   00    00000000000          00000000000000000000000000000000000000000000 000000000000000A000000000000000000000000000000000000000000000 000000000000000000000000000000000000000     00000000                                                                                                                        000000000000000000
F0010000006055600003000003276535300042505000000000000000000201407210002001YASLEYS CATAÑO ESCOBAR                           C000000001500000000000000000000000100010010000000000000000000000F0010000006055600320140721000101 00000000000000000000000000000000000000000000000000000000000000000000000000000000000000000000000000000000000000000N 00000000000NCONT   00    00000000000          00000000000000000000000000000000000000000000 000000000000000A000000000000000000000000000000000000000000000 000000000000000000000000000000000000000     00000000                                                                                                                        000000000000000000
F0010000006055600004000003276535300023658300000000000000000201407210002001YASLEYS CATAÑO ESCOBAR                           C000000000019000000000000000000000100010010000000000000000000000F0010000006055600420140721000101 00000000000000000000000000000000000000000000000000000000000000000000000000000000000000000000000000000000000000000N 00000000000NCONT   00    00000000000          00000000000000000000000000000000000000000000 000000000000000A000000000000000000000000000000000000000000000 000000000000000000000000000000000000000     00000000                                                                                                                        000000000000000000
F0010000006055600005000003276535300013552100000000000000000201407210002001YASLEYS CATAÑO ESCOBAR                           D000000000019000000000000000000000100010010000000000000000000000F0010000006055600520140721000101 00000000000000000000000000000000000000000000000000000000000000000000000000000000000000000000000000000000000000000N 00000000000NCONT   00    00000000000          00000000000000000000000000000000000000000000 000000000000000A000000000000000000000000000000000000000000000 000000000000000000000000000000000000000     00000000                                                                                                                        000000000000000000
F0010000006055700001000003276535300011050500000000000000000201407210002001YASLEYS CATAÑO ESCOBAR                           D000000002580000000000000000000000100010010000000000000000000000F0010000006055700120140721000101 00000000000000000000000000000000000000000000000000000000000000000000000000000000000000000000000000000000000000000N 00000000000NCONT   00    00000000000          00000000000000000000000000000000000000000000 000000000000000A000000000000000000000000000000000000000000000 000000000000000000000000000000000000000     00000000                                                                                                                        000000000000000000
F0010000006055700002000003276535300041450500000000000000000201407210002001YASLEYS CATAÑO ESCOBAR                           C000000002380000000000000000000000100010010000000000000000000000F0010000006055700220140721000101 00000000000000000000000000000000000000000000000000000000000000000000000000000000000000000000000000000000000000000N 00000000000NCONT   00    00000000000          00000000000000000000000000000000000000000000 000000000000000A000000000000000000000000000000000000000000000 000000000000000000000000000000000000000     00000000                                                                                                                        000000000000000000
F0010000006055700003000003276535300042505000000000000000000201407210002001YASLEYS CATAÑO ESCOBAR                           C000000000200000000000000000000000100010010000000000000000000000F0010000006055700320140721000101 00000000000000000000000000000000000000000000000000000000000000000000000000000000000000000000000000000000000000000N 00000000000NCONT   00    00000000000          00000000000000000000000000000000000000000000 000000000000000A000000000000000000000000000000000000000000000 000000000000000000000000000000000000000     00000000                                                                                                                        000000000000000000
F0010000006055700004000003276535300023658300000000000000000201407210002001YASLEYS CATAÑO ESCOBAR                           C000000000019000000000000000000000100010010000000000000000000000F0010000006055700420140721000101 00000000000000000000000000000000000000000000000000000000000000000000000000000000000000000000000000000000000000000N 00000000000NCONT   00    00000000000          00000000000000000000000000000000000000000000 000000000000000A000000000000000000000000000000000000000000000 000000000000000000000000000000000000000     00000000                                                                                                                        000000000000000000
F0010000006055700005000003276535300013552100000000000000000201407210002001YASLEYS CATAÑO ESCOBAR                           D000000000019000000000000000000000100010010000000000000000000000F0010000006055700520140721000101 00000000000000000000000000000000000000000000000000000000000000000000000000000000000000000000000000000000000000000N 00000000000NCONT   00    00000000000          00000000000000000000000000000000000000000000 000000000000000A000000000000000000000000000000000000000000000 000000000000000000000000000000000000000     00000000                                                                                                                        000000000000000000
F0010000006055800001000003276535300011050500000000000000000201407210002001YASLEYS CATAÑO ESCOBAR                           D000000006550000000000000000000000100010010000000000000000000000F0010000006055800120140721000101 00000000000000000000000000000000000000000000000000000000000000000000000000000000000000000000000000000000000000000N 00000000000NCONT   00    00000000000          00000000000000000000000000000000000000000000 000000000000000A000000000000000000000000000000000000000000000 000000000000000000000000000000000000000     00000000                                                                                                                        000000000000000000
F0010000006055800002000003276535300041450500000000000000000201407210002001YASLEYS CATAÑO ESCOBAR                           C000000005950000000000000000000000100010010000000000000000000000F0010000006055800220140721000101 00000000000000000000000000000000000000000000000000000000000000000000000000000000000000000000000000000000000000000N 00000000000NCONT   00    00000000000          00000000000000000000000000000000000000000000 000000000000000A000000000000000000000000000000000000000000000 000000000000000000000000000000000000000     00000000                                                                                                                        000000000000000000
F0010000006055800003000003276535300042505000000000000000000201407210002001YASLEYS CATAÑO ESCOBAR                           C000000000600000000000000000000000100010010000000000000000000000F0010000006055800320140721000101 00000000000000000000000000000000000000000000000000000000000000000000000000000000000000000000000000000000000000000N 00000000000NCONT   00    00000000000          00000000000000000000000000000000000000000000 000000000000000A000000000000000000000000000000000000000000000 000000000000000000000000000000000000000     00000000                                                                                                                        000000000000000000
F0010000006055800004000003276535300023658300000000000000000201407210002001YASLEYS CATAÑO ESCOBAR                           C000000000047600000000000000000000100010010000000000000000000000F0010000006055800420140721000101 00000000000000000000000000000000000000000000000000000000000000000000000000000000000000000000000000000000000000000N 00000000000NCONT   00    00000000000          00000000000000000000000000000000000000000000 000000000000000A000000000000000000000000000000000000000000000 000000000000000000000000000000000000000     00000000                                                                                                                        000000000000000000
F0010000006055800005000003276535300013552100000000000000000201407210002001YASLEYS CATAÑO ESCOBAR                           D000000000047600000000000000000000100010010000000000000000000000F0010000006055800520140721000101 00000000000000000000000000000000000000000000000000000000000000000000000000000000000000000000000000000000000000000N 00000000000NCONT   00    00000000000          00000000000000000000000000000000000000000000 000000000000000A000000000000000000000000000000000000000000000 000000000000000000000000000000000000000     00000000                                                                                                                        000000000000000000
F0010000006055900001000000870907300011050500000000000000000201407210002001SURTIDOR FERRETERO                                D000000009950000000000000000000000100010010000000000000000000000F0010000006055900120140721000101 00000000000000000000000000000000000000000000000000000000000000000000000000000000000000000000000000000000000000000N 00000000000NCONT   00    00000000000          00000000000000000000000000000000000000000000 000000000000000A000000000000000000000000000000000000000000000 000000000000000000000000000000000000000     00000000                                                                                                                        000000000000000000
F0010000006055900002000000870907300041450500000000000000000201407210002001SURTIDOR FERRETERO                                C000000006080000000000000000000000100010010000000000000000000000F0010000006055900220140721000101 00000000000000000000000000000000000000000000000000000000000000000000000000000000000000000000000000000000000000000N 00000000000NCONT   00    00000000000          00000000000000000000000000000000000000000000 000000000000000A000000000000000000000000000000000000000000000 000000000000000000000000000000000000000     00000000                                                                                                                        000000000000000000
F0010000006055900003000000870907300042505000000000000000000201407210002001SURTIDOR FERRETERO                                C000000003870000000000000000000000100010010000000000000000000000F0010000006055900320140721000101 00000000000000000000000000000000000000000000000000000000000000000000000000000000000000000000000000000000000000000N 00000000000NCONT   00    00000000000          00000000000000000000000000000000000000000000 000000000000000A000000000000000000000000000000000000000000000 000000000000000000000000000000000000000     00000000                                                                                                                        000000000000000000
F0010000006055900004000000870907300023658300000000000000000201407210002001SURTIDOR FERRETERO                                C000000000048600000000000000000000100010010000000000000000000000F0010000006055900420140721000101 00000000000000000000000000000000000000000000000000000000000000000000000000000000000000000000000000000000000000000N 00000000000NCONT   00    00000000000          00000000000000000000000000000000000000000000 000000000000000A000000000000000000000000000000000000000000000 000000000000000000000000000000000000000     00000000                                                                                                                        000000000000000000
F0010000006055900005000000870907300013552100000000000000000201407210002001SURTIDOR FERRETERO                                D000000000048600000000000000000000100010010000000000000000000000F0010000006055900520140721000101 00000000000000000000000000000000000000000000000000000000000000000000000000000000000000000000000000000000000000000N 00000000000NCONT   00    00000000000          00000000000000000000000000000000000000000000 000000000000000A000000000000000000000000000000000000000000000 000000000000000000000000000000000000000     00000000                                                                                                                        000000000000000000
F0010000006056000001000000870907300011050500000000000000000201407210002001SURTIDOR FERRETERO                                D000000006700000000000000000000000100010010000000000000000000000F0010000006056000120140721000101 00000000000000000000000000000000000000000000000000000000000000000000000000000000000000000000000000000000000000000N 00000000000NCONT   00    00000000000          00000000000000000000000000000000000000000000 000000000000000A000000000000000000000000000000000000000000000 000000000000000000000000000000000000000     00000000                                                                                                                        000000000000000000
F0010000006056000002000000870907300041450500000000000000000201407210002001SURTIDOR FERRETERO                                C000000003800000000000000000000000100010010000000000000000000000F0010000006056000220140721000101 00000000000000000000000000000000000000000000000000000000000000000000000000000000000000000000000000000000000000000N 00000000000NCONT   00    00000000000          00000000000000000000000000000000000000000000 000000000000000A000000000000000000000000000000000000000000000 000000000000000000000000000000000000000     00000000                                                                                                                        000000000000000000
F0010000006056000003000000870907300042505000000000000000000201407210002001SURTIDOR FERRETERO                                C000000002900000000000000000000000100010010000000000000000000000F0010000006056000320140721000101 00000000000000000000000000000000000000000000000000000000000000000000000000000000000000000000000000000000000000000N 00000000000NCONT   00    00000000000          00000000000000000000000000000000000000000000 000000000000000A000000000000000000000000000000000000000000000 000000000000000000000000000000000000000     00000000                                                                                                                        000000000000000000
F0010000006056000004000000870907300023658300000000000000000201407210002001SURTIDOR FERRETERO                                C000000000030400000000000000000000100010010000000000000000000000F0010000006056000420140721000101 00000000000000000000000000000000000000000000000000000000000000000000000000000000000000000000000000000000000000000N 00000000000NCONT   00    00000000000          00000000000000000000000000000000000000000000 000000000000000A000000000000000000000000000000000000000000000 000000000000000000000000000000000000000     00000000                                                                                                                        000000000000000000
F0010000006056000005000000870907300013552100000000000000000201407210002001SURTIDOR FERRETERO                                D000000000030400000000000000000000100010010000000000000000000000F0010000006056000520140721000101 00000000000000000000000000000000000000000000000000000000000000000000000000000000000000000000000000000000000000000N 00000000000NCONT   00    00000000000          00000000000000000000000000000000000000000000 000000000000000A000000000000000000000000000000000000000000000 000000000000000000000000000000000000000     00000000                                                                                                                        000000000000000000
F0010000006056100001000000870907300011050500000000000000000201407210002001SURTIDOR FERRETERO                                D000000002050000000000000000000000100010010000000000000000000000F0010000006056100120140721000101 00000000000000000000000000000000000000000000000000000000000000000000000000000000000000000000000000000000000000000N 00000000000NCONT   00    00000000000          00000000000000000000000000000000000000000000 000000000000000A000000000000000000000000000000000000000000000 000000000000000000000000000000000000000     00000000                                                                                                                        000000000000000000
F0010000006056100002000000870907300041450500000000000000000201407210002001SURTIDOR FERRETERO                                C000000001520000000000000000000000100010010000000000000000000000F0010000006056100220140721000101 00000000000000000000000000000000000000000000000000000000000000000000000000000000000000000000000000000000000000000N 00000000000NCONT   00    00000000000          00000000000000000000000000000000000000000000 000000000000000A000000000000000000000000000000000000000000000 000000000000000000000000000000000000000     00000000                                                                                                                        000000000000000000
F0010000006056100003000000870907300042505000000000000000000201407210002001SURTIDOR FERRETERO                                C000000000530000000000000000000000100010010000000000000000000000F0010000006056100320140721000101 00000000000000000000000000000000000000000000000000000000000000000000000000000000000000000000000000000000000000000N 00000000000NCONT   00    00000000000          00000000000000000000000000000000000000000000 000000000000000A000000000000000000000000000000000000000000000 000000000000000000000000000000000000000     00000000                                                                                                                        000000000000000000
F0010000006056100004000000870907300023658300000000000000000201407210002001SURTIDOR FERRETERO                                C000000000012200000000000000000000100010010000000000000000000000F0010000006056100420140721000101 00000000000000000000000000000000000000000000000000000000000000000000000000000000000000000000000000000000000000000N 00000000000NCONT   00    00000000000          00000000000000000000000000000000000000000000 000000000000000A000000000000000000000000000000000000000000000 000000000000000000000000000000000000000     00000000                                                                                                                        000000000000000000
F0010000006056100005000000870907300013552100000000000000000201407210002001SURTIDOR FERRETERO                                D000000000012200000000000000000000100010010000000000000000000000F0010000006056100520140721000101 00000000000000000000000000000000000000000000000000000000000000000000000000000000000000000000000000000000000000000N 00000000000NCONT   00    00000000000          00000000000000000000000000000000000000000000 000000000000000A000000000000000000000000000000000000000000000 000000000000000000000000000000000000000     00000000                                                                                                                        000000000000000000
F0010000006056200001000000870907300011050500000000000000000201407210002001SURTIDOR FERRETERO                                D000000002660000000000000000000000100010010000000000000000000000F0010000006056200120140721000101 00000000000000000000000000000000000000000000000000000000000000000000000000000000000000000000000000000000000000000N 00000000000NCONT   00    00000000000          00000000000000000000000000000000000000000000 000000000000000A000000000000000000000000000000000000000000000 000000000000000000000000000000000000000     00000000                                                                                                                        000000000000000000
F0010000006056200002000000870907300041450500000000000000000201407210002001SURTIDOR FERRETERO                                C000000000760000000000000000000000100010010000000000000000000000F0010000006056200220140721000101 00000000000000000000000000000000000000000000000000000000000000000000000000000000000000000000000000000000000000000N 00000000000NCONT   00    00000000000          00000000000000000000000000000000000000000000 000000000000000A000000000000000000000000000000000000000000000 000000000000000000000000000000000000000     00000000                                                                                                                        000000000000000000
F0010000006056200003000000870907300042505000000000000000000201407210002001SURTIDOR FERRETERO                                C000000001900000000000000000000000100010010000000000000000000000F0010000006056200320140721000101 00000000000000000000000000000000000000000000000000000000000000000000000000000000000000000000000000000000000000000N 00000000000NCONT   00    00000000000          00000000000000000000000000000000000000000000 000000000000000A000000000000000000000000000000000000000000000 000000000000000000000000000000000000000     00000000                                                                                                                        000000000000000000
F0010000006056200004000000870907300023658300000000000000000201407210002001SURTIDOR FERRETERO                                C000000000006100000000000000000000100010010000000000000000000000F0010000006056200420140721000101 00000000000000000000000000000000000000000000000000000000000000000000000000000000000000000000000000000000000000000N 00000000000NCONT   00    00000000000          00000000000000000000000000000000000000000000 000000000000000A000000000000000000000000000000000000000000000 000000000000000000000000000000000000000     00000000                                                                                                                        000000000000000000
F0010000006056200005000000870907300013552100000000000000000201407210002001SURTIDOR FERRETERO                                D000000000006100000000000000000000100010010000000000000000000000F0010000006056200520140721000101 00000000000000000000000000000000000000000000000000000000000000000000000000000000000000000000000000000000000000000N 00000000000NCONT   00    00000000000          00000000000000000000000000000000000000000000 000000000000000A000000000000000000000000000000000000000000000 000000000000000000000000000000000000000     00000000                                                                                                                        000000000000000000
F0010000006056300001000000870907300011050500000000000000000201407210002001SURTIDOR FERRETERO                                D000000002600000000000000000000000100010010000000000000000000000F0010000006056300120140721000101 00000000000000000000000000000000000000000000000000000000000000000000000000000000000000000000000000000000000000000N 00000000000NCONT   00    00000000000          00000000000000000000000000000000000000000000 000000000000000A000000000000000000000000000000000000000000000 000000000000000000000000000000000000000     00000000                                                                                                                        000000000000000000
F0010000006056300002000000870907300041450500000000000000000201407210002001SURTIDOR FERRETERO                                C000000001520000000000000000000000100010010000000000000000000000F0010000006056300220140721000101 00000000000000000000000000000000000000000000000000000000000000000000000000000000000000000000000000000000000000000N 00000000000NCONT   00    00000000000          00000000000000000000000000000000000000000000 000000000000000A000000000000000000000000000000000000000000000 000000000000000000000000000000000000000     00000000                                                                                                                        000000000000000000
F0010000006056300003000000870907300042505000000000000000000201407210002001SURTIDOR FERRETERO                                C000000001080000000000000000000000100010010000000000000000000000F0010000006056300320140721000101 00000000000000000000000000000000000000000000000000000000000000000000000000000000000000000000000000000000000000000N 00000000000NCONT   00    00000000000          00000000000000000000000000000000000000000000 000000000000000A000000000000000000000000000000000000000000000 000000000000000000000000000000000000000     00000000                                                                                                                        000000000000000000
F0010000006056300004000000870907300023658300000000000000000201407210002001SURTIDOR FERRETERO                                C000000000012200000000000000000000100010010000000000000000000000F0010000006056300420140721000101 00000000000000000000000000000000000000000000000000000000000000000000000000000000000000000000000000000000000000000N 00000000000NCONT   00    00000000000          00000000000000000000000000000000000000000000 000000000000000A000000000000000000000000000000000000000000000 000000000000000000000000000000000000000     00000000                                                                                                                        000000000000000000
F0010000006056300005000000870907300013552100000000000000000201407210002001SURTIDOR FERRETERO                                D000000000012200000000000000000000100010010000000000000000000000F0010000006056300520140721000101 00000000000000000000000000000000000000000000000000000000000000000000000000000000000000000000000000000000000000000N 00000000000NCONT   00    00000000000          00000000000000000000000000000000000000000000 000000000000000A000000000000000000000000000000000000000000000 000000000000000000000000000000000000000     00000000                                                                                                                        000000000000000000
F0010000006056400001000000870907300011050500000000000000000201407210002001SURTIDOR FERRETERO                                D000000001990000000000000000000000100010010000000000000000000000F0010000006056400120140721000101 00000000000000000000000000000000000000000000000000000000000000000000000000000000000000000000000000000000000000000N 00000000000NCONT   00    00000000000          00000000000000000000000000000000000000000000 000000000000000A000000000000000000000000000000000000000000000 000000000000000000000000000000000000000     00000000                                                                                                                        000000000000000000
F0010000006056400002000000870907300041450500000000000000000201407210002001SURTIDOR FERRETERO                                C000000000760000000000000000000000100010010000000000000000000000F0010000006056400220140721000101 00000000000000000000000000000000000000000000000000000000000000000000000000000000000000000000000000000000000000000N 00000000000NCONT   00    00000000000          00000000000000000000000000000000000000000000 000000000000000A000000000000000000000000000000000000000000000 000000000000000000000000000000000000000     00000000                                                                                                                        000000000000000000
F0010000006056400003000000870907300042505000000000000000000201407210002001SURTIDOR FERRETERO                                C000000001230000000000000000000000100010010000000000000000000000F0010000006056400320140721000101 00000000000000000000000000000000000000000000000000000000000000000000000000000000000000000000000000000000000000000N 00000000000NCONT   00    00000000000          00000000000000000000000000000000000000000000 000000000000000A000000000000000000000000000000000000000000000 000000000000000000000000000000000000000     00000000                                                                                                                        000000000000000000
F0010000006056400004000000870907300023658300000000000000000201407210002001SURTIDOR FERRETERO                                C000000000006100000000000000000000100010010000000000000000000000F0010000006056400420140721000101 00000000000000000000000000000000000000000000000000000000000000000000000000000000000000000000000000000000000000000N 00000000000NCONT   00    00000000000          00000000000000000000000000000000000000000000 000000000000000A000000000000000000000000000000000000000000000 000000000000000000000000000000000000000     00000000                                                                                                                        000000000000000000
F0010000006056400005000000870907300013552100000000000000000201407210002001SURTIDOR FERRETERO                                D000000000006100000000000000000000100010010000000000000000000000F0010000006056400520140721000101 00000000000000000000000000000000000000000000000000000000000000000000000000000000000000000000000000000000000000000N 00000000000NCONT   00    00000000000          00000000000000000000000000000000000000000000 000000000000000A000000000000000000000000000000000000000000000 000000000000000000000000000000000000000     00000000                                                                                                                        000000000000000000
F0010000006056500001000000870907300011050500000000000000000201407210002001SURTIDOR FERRETERO                                D000000000980000000000000000000000100010010000000000000000000000F0010000006056500120140721000101 00000000000000000000000000000000000000000000000000000000000000000000000000000000000000000000000000000000000000000N 00000000000NCONT   00    00000000000          00000000000000000000000000000000000000000000 000000000000000A000000000000000000000000000000000000000000000 000000000000000000000000000000000000000     00000000                                                                                                                        000000000000000000
F0010000006056500002000000870907300041450500000000000000000201407210002001SURTIDOR FERRETERO                                C000000000760000000000000000000000100010010000000000000000000000F0010000006056500220140721000101 00000000000000000000000000000000000000000000000000000000000000000000000000000000000000000000000000000000000000000N 00000000000NCONT   00    00000000000          00000000000000000000000000000000000000000000 000000000000000A000000000000000000000000000000000000000000000 000000000000000000000000000000000000000     00000000                                                                                                                        000000000000000000
F0010000006056500003000000870907300042505000000000000000000201407210002001SURTIDOR FERRETERO                                C000000000220000000000000000000000100010010000000000000000000000F0010000006056500320140721000101 00000000000000000000000000000000000000000000000000000000000000000000000000000000000000000000000000000000000000000N 00000000000NCONT   00    00000000000          00000000000000000000000000000000000000000000 000000000000000A000000000000000000000000000000000000000000000 000000000000000000000000000000000000000     00000000                                                                                                                        000000000000000000
F0010000006056500004000000870907300023658300000000000000000201407210002001SURTIDOR FERRETERO                                C000000000006100000000000000000000100010010000000000000000000000F0010000006056500420140721000101 00000000000000000000000000000000000000000000000000000000000000000000000000000000000000000000000000000000000000000N 00000000000NCONT   00    00000000000          00000000000000000000000000000000000000000000 000000000000000A000000000000000000000000000000000000000000000 000000000000000000000000000000000000000     00000000                                                                                                                        000000000000000000
F0010000006056500005000000870907300013552100000000000000000201407210002001SURTIDOR FERRETERO                                D000000000006100000000000000000000100010010000000000000000000000F0010000006056500520140721000101 00000000000000000000000000000000000000000000000000000000000000000000000000000000000000000000000000000000000000000N 00000000000NCONT   00    00000000000          00000000000000000000000000000000000000000000 000000000000000A000000000000000000000000000000000000000000000 000000000000000000000000000000000000000     00000000                                                                                                                        000000000000000000
F0010000006056600001000007200289400011050500000000000000000201407210002001MIGUEL CORTINA                                    D000000005000000000000000000000000100010010000000000000000000000F0010000006056600120140721000101 00000000000000000000000000000000000000000000000000000000000000000000000000000000000000000000000000000000000000000N 00000000000NCONT   00    00000000000          00000000000000000000000000000000000000000000 000000000000000A000000000000000000000000000000000000000000000 000000000000000000000000000000000000000     00000000                                                                                                                        000000000000000000
F0010000006056600002000007200289400041450500000000000000000201407210002001MIGUEL CORTINA                                    C000000004100000000000000000000000100010010000000000000000000000F0010000006056600220140721000101 00000000000000000000000000000000000000000000000000000000000000000000000000000000000000000000000000000000000000000N 00000000000NCONT   00    00000000000          00000000000000000000000000000000000000000000 000000000000000A000000000000000000000000000000000000000000000 000000000000000000000000000000000000000     00000000                                                                                                                        000000000000000000
F0010000006056600003000007200289400042505000000000000000000201407210002001MIGUEL CORTINA                                    C000000000900000000000000000000000100010010000000000000000000000F0010000006056600320140721000101 00000000000000000000000000000000000000000000000000000000000000000000000000000000000000000000000000000000000000000N 00000000000NCONT   00    00000000000          00000000000000000000000000000000000000000000 000000000000000A000000000000000000000000000000000000000000000 000000000000000000000000000000000000000     00000000                                                                                                                        000000000000000000
F0010000006056600004000007200289400023658300000000000000000201407210002001MIGUEL CORTINA                                    C000000000032800000000000000000000100010010000000000000000000000F0010000006056600420140721000101 00000000000000000000000000000000000000000000000000000000000000000000000000000000000000000000000000000000000000000N 00000000000NCONT   00    00000000000          00000000000000000000000000000000000000000000 000000000000000A000000000000000000000000000000000000000000000 000000000000000000000000000000000000000     00000000                                                                                                                        000000000000000000
F0010000006056600005000007200289400013552100000000000000000201407210002001MIGUEL CORTINA                                    D000000000032800000000000000000000100010010000000000000000000000F0010000006056600520140721000101 00000000000000000000000000000000000000000000000000000000000000000000000000000000000000000000000000000000000000000N 00000000000NCONT   00    00000000000          00000000000000000000000000000000000000000000 000000000000000A000000000000000000000000000000000000000000000 000000000000000000000000000000000000000     00000000                                                                                                                        000000000000000000
F0010000006056700001000000431178400011050500000000000000000201407210002001EFRAIN ALVAREZ                                    D000000001010000000000000000000000100010010000000000000000000000F0010000006056700120140721000101 00000000000000000000000000000000000000000000000000000000000000000000000000000000000000000000000000000000000000000N 00000000000NCONT   00    00000000000          00000000000000000000000000000000000000000000 000000000000000A000000000000000000000000000000000000000000000 000000000000000000000000000000000000000     00000000                                                                                                                        000000000000000000
F0010000006056700002000000431178400041450500000000000000000201407210002001EFRAIN ALVAREZ                                    C000000000860000000000000000000000100010010000000000000000000000F0010000006056700220140721000101 00000000000000000000000000000000000000000000000000000000000000000000000000000000000000000000000000000000000000000N 00000000000NCONT   00    00000000000          00000000000000000000000000000000000000000000 000000000000000A000000000000000000000000000000000000000000000 000000000000000000000000000000000000000     00000000                                                                                                                        000000000000000000
F0010000006056700003000000431178400042505000000000000000000201407210002001EFRAIN ALVAREZ                                    C000000000150000000000000000000000100010010000000000000000000000F0010000006056700320140721000101 00000000000000000000000000000000000000000000000000000000000000000000000000000000000000000000000000000000000000000N 00000000000NCONT   00    00000000000          00000000000000000000000000000000000000000000 000000000000000A000000000000000000000000000000000000000000000 000000000000000000000000000000000000000     00000000                                                                                                                        000000000000000000
F0010000006056700004000000431178400023658300000000000000000201407210002001EFRAIN ALVAREZ                                    C000000000006900000000000000000000100010010000000000000000000000F0010000006056700420140721000101 00000000000000000000000000000000000000000000000000000000000000000000000000000000000000000000000000000000000000000N 00000000000NCONT   00    00000000000          00000000000000000000000000000000000000000000 000000000000000A000000000000000000000000000000000000000000000 000000000000000000000000000000000000000     00000000                                                                                                                        000000000000000000
F0010000006056700005000000431178400013552100000000000000000201407210002001EFRAIN ALVAREZ                                    D000000000006900000000000000000000100010010000000000000000000000F0010000006056700520140721000101 00000000000000000000000000000000000000000000000000000000000000000000000000000000000000000000000000000000000000000N 00000000000NCONT   00    00000000000          00000000000000000000000000000000000000000000 000000000000000A000000000000000000000000000000000000000000000 000000000000000000000000000000000000000     00000000                                                                                                                        000000000000000000
F0010000006056800001000000431178400011050500000000000000000201407210002001EFRAIN ALVAREZ                                    D000000001770000000000000000000000100010010000000000000000000000F0010000006056800120140721000101 00000000000000000000000000000000000000000000000000000000000000000000000000000000000000000000000000000000000000000N 00000000000NCONT   00    00000000000          00000000000000000000000000000000000000000000 000000000000000A000000000000000000000000000000000000000000000 000000000000000000000000000000000000000     00000000                                                                                                                        000000000000000000
F0010000006056800002000000431178400041450500000000000000000201407210002001EFRAIN ALVAREZ                                    C000000001720000000000000000000000100010010000000000000000000000F0010000006056800220140721000101 00000000000000000000000000000000000000000000000000000000000000000000000000000000000000000000000000000000000000000N 00000000000NCONT   00    00000000000          00000000000000000000000000000000000000000000 000000000000000A000000000000000000000000000000000000000000000 000000000000000000000000000000000000000     00000000                                                                                                                        000000000000000000
