F0010000009727400001000090004446900011050500000000000000000201701310002001CARPAS PARASOLES TAPICERIA LA 34 LTDA             D000000033000000000000000000000000100010010000000000000000000000F0010000009727400120170131000101 00000000000000000000000000000000000000000000000000000000000000000000000000000000000000000000000000000000000000000N 00000000000NCONT   00    00000000000          00000000000000000000000000000000000000000000 000000000000000A000000000000000000000000000000000000000000000 000000000000000000000000000000000000000     00000000                                                                                                                        000000000000000000
F0010000009727400002000090004446900041450500000000000000000201701310002001CARPAS PARASOLES TAPICERIA LA 34 LTDA             C000000030500000000000000000000000100010010000000000000000000000F0010000009727400220170131000101 00000000000000000000000000000000000000000000000000000000000000000000000000000000000000000000000000000000000000000N 00000000000NCONT   00    00000000000          00000000000000000000000000000000000000000000 000000000000000A000000000000000000000000000000000000000000000 000000000000000000000000000000000000000     00000000                                                                                                                        000000000000000000
F0010000009727400003000090004446900042505000000000000000000201701310002001CARPAS PARASOLES TAPICERIA LA 34 LTDA             C000000002500000000000000000000000100010010000000000000000000000F0010000009727400320170131000101 00000000000000000000000000000000000000000000000000000000000000000000000000000000000000000000000000000000000000000N 00000000000NCONT   00    00000000000          00000000000000000000000000000000000000000000 000000000000000A000000000000000000000000000000000000000000000 000000000000000000000000000000000000000     00000000                                                                                                                        000000000000000000
F0010000009727400004000090004446900023658300000000000000000201701310002001CARPAS PARASOLES TAPICERIA LA 34 LTDA             C000000000244000000000000000000000100010010000000000000000000000F0010000009727400420170131000101 00000000000000000000000000000000000000000000000000000000000000000000000000000000000000000000000000000000000000000N 00000000000NCONT   00    00000000000          00000000000000000000000000000000000000000000 000000000000000A000000000000000000000000000000000000000000000 000000000000000000000000000000000000000     00000000                                                                                                                        000000000000000000
F0010000009727400005000090004446900013552100000000000000000201701310002001CARPAS PARASOLES TAPICERIA LA 34 LTDA             D000000000244000000000000000000000100010010000000000000000000000F0010000009727400520170131000101 00000000000000000000000000000000000000000000000000000000000000000000000000000000000000000000000000000000000000000N 00000000000NCONT   00    00000000000          00000000000000000000000000000000000000000000 000000000000000A000000000000000000000000000000000000000000000 000000000000000000000000000000000000000     00000000                                                                                                                        000000000000000000
F0010000009727500001000080201411900011050500000000000000000201701310002001PLASTISERVICIOS S DE H                            D000000014600000000000000000000000100010010000000000000000000000F0010000009727500120170131000101 00000000000000000000000000000000000000000000000000000000000000000000000000000000000000000000000000000000000000000N 00000000000NCONT   00    00000000000          00000000000000000000000000000000000000000000 000000000000000A000000000000000000000000000000000000000000000 000000000000000000000000000000000000000     00000000                                                                                                                        000000000000000000
F0010000009727500002000080201411900041450500000000000000000201701310002001PLASTISERVICIOS S DE H                            C000000012000000000000000000000000100010010000000000000000000000F0010000009727500220170131000101 00000000000000000000000000000000000000000000000000000000000000000000000000000000000000000000000000000000000000000N 00000000000NCONT   00    00000000000          00000000000000000000000000000000000000000000 000000000000000A000000000000000000000000000000000000000000000 000000000000000000000000000000000000000     00000000                                                                                                                        000000000000000000
F0010000009727500003000080201411900042505000000000000000000201701310002001PLASTISERVICIOS S DE H                            C000000002600000000000000000000000100010010000000000000000000000F0010000009727500320170131000101 00000000000000000000000000000000000000000000000000000000000000000000000000000000000000000000000000000000000000000N 00000000000NCONT   00    00000000000          00000000000000000000000000000000000000000000 000000000000000A000000000000000000000000000000000000000000000 000000000000000000000000000000000000000     00000000                                                                                                                        000000000000000000
F0010000009727500004000080201411900023658300000000000000000201701310002001PLASTISERVICIOS S DE H                            C000000000096000000000000000000000100010010000000000000000000000F0010000009727500420170131000101 00000000000000000000000000000000000000000000000000000000000000000000000000000000000000000000000000000000000000000N 00000000000NCONT   00    00000000000          00000000000000000000000000000000000000000000 000000000000000A000000000000000000000000000000000000000000000 000000000000000000000000000000000000000     00000000                                                                                                                        000000000000000000
F0010000009727500005000080201411900013552100000000000000000201701310002001PLASTISERVICIOS S DE H                            D000000000096000000000000000000000100010010000000000000000000000F0010000009727500520170131000101 00000000000000000000000000000000000000000000000000000000000000000000000000000000000000000000000000000000000000000N 00000000000NCONT   00    00000000000          00000000000000000000000000000000000000000000 000000000000000A000000000000000000000000000000000000000000000 000000000000000000000000000000000000000     00000000                                                                                                                        000000000000000000
F0010000009727600001000004977415500011050500000000000000000201701310002001NINFA  FONSECA ROMERO                             D000000001200000000000000000000000100010010000000000000000000000F0010000009727600120170131000101 00000000000000000000000000000000000000000000000000000000000000000000000000000000000000000000000000000000000000000N 00000000000NCONT   00    00000000000          00000000000000000000000000000000000000000000 000000000000000A000000000000000000000000000000000000000000000 000000000000000000000000000000000000000     00000000                                                                                                                        000000000000000000
F0010000009727600002000004977415500041450500000000000000000201701310002001NINFA  FONSECA ROMERO                             C000000001000000000000000000000000100010010000000000000000000000F0010000009727600220170131000101 00000000000000000000000000000000000000000000000000000000000000000000000000000000000000000000000000000000000000000N 00000000000NCONT   00    00000000000          00000000000000000000000000000000000000000000 000000000000000A000000000000000000000000000000000000000000000 000000000000000000000000000000000000000     00000000                                                                                                                        000000000000000000
F0010000009727600003000004977415500042505000000000000000000201701310002001NINFA  FONSECA ROMERO                             C000000000200000000000000000000000100010010000000000000000000000F0010000009727600320170131000101 00000000000000000000000000000000000000000000000000000000000000000000000000000000000000000000000000000000000000000N 00000000000NCONT   00    00000000000          00000000000000000000000000000000000000000000 000000000000000A000000000000000000000000000000000000000000000 000000000000000000000000000000000000000     00000000                                                                                                                        000000000000000000
F0010000009727600004000004977415500023658300000000000000000201701310002001NINFA  FONSECA ROMERO                             C000000000008000000000000000000000100010010000000000000000000000F0010000009727600420170131000101 00000000000000000000000000000000000000000000000000000000000000000000000000000000000000000000000000000000000000000N 00000000000NCONT   00    00000000000          00000000000000000000000000000000000000000000 000000000000000A000000000000000000000000000000000000000000000 000000000000000000000000000000000000000     00000000                                                                                                                        000000000000000000
F0010000009727600005000004977415500013552100000000000000000201701310002001NINFA  FONSECA ROMERO                             D000000000008000000000000000000000100010010000000000000000000000F0010000009727600520170131000101 00000000000000000000000000000000000000000000000000000000000000000000000000000000000000000000000000000000000000000N 00000000000NCONT   00    00000000000          00000000000000000000000000000000000000000000 000000000000000A000000000000000000000000000000000000000000000 000000000000000000000000000000000000000     00000000                                                                                                                        000000000000000000
F0010000009727700001000000866839700011050500000000000000000201701310002001GUSTAVO BERMEJO .                                 D000000027000000000000000000000000100010010000000000000000000000F0010000009727700120170131000101 00000000000000000000000000000000000000000000000000000000000000000000000000000000000000000000000000000000000000000N 00000000000NCONT   00    00000000000          00000000000000000000000000000000000000000000 000000000000000A000000000000000000000000000000000000000000000 000000000000000000000000000000000000000     00000000                                                                                                                        000000000000000000
F0010000009727700002000000866839700041450500000000000000000201701310002001GUSTAVO BERMEJO .                                 C000000025500000000000000000000000100010010000000000000000000000F0010000009727700220170131000101 00000000000000000000000000000000000000000000000000000000000000000000000000000000000000000000000000000000000000000N 00000000000NCONT   00    00000000000          00000000000000000000000000000000000000000000 000000000000000A000000000000000000000000000000000000000000000 000000000000000000000000000000000000000     00000000                                                                                                                        000000000000000000
F0010000009727700003000000866839700042505000000000000000000201701310002001GUSTAVO BERMEJO .                                 C000000001500000000000000000000000100010010000000000000000000000F0010000009727700320170131000101 00000000000000000000000000000000000000000000000000000000000000000000000000000000000000000000000000000000000000000N 00000000000NCONT   00    00000000000          00000000000000000000000000000000000000000000 000000000000000A000000000000000000000000000000000000000000000 000000000000000000000000000000000000000     00000000                                                                                                                        000000000000000000
F0010000009727700004000000866839700023658300000000000000000201701310002001GUSTAVO BERMEJO .                                 C000000000204000000000000000000000100010010000000000000000000000F0010000009727700420170131000101 00000000000000000000000000000000000000000000000000000000000000000000000000000000000000000000000000000000000000000N 00000000000NCONT   00    00000000000          00000000000000000000000000000000000000000000 000000000000000A000000000000000000000000000000000000000000000 000000000000000000000000000000000000000     00000000                                                                                                                        000000000000000000
F0010000009727700005000000866839700013552100000000000000000201701310002001GUSTAVO BERMEJO .                                 D000000000204000000000000000000000100010010000000000000000000000F0010000009727700520170131000101 00000000000000000000000000000000000000000000000000000000000000000000000000000000000000000000000000000000000000000N 00000000000NCONT   00    00000000000          00000000000000000000000000000000000000000000 000000000000000A000000000000000000000000000000000000000000000 000000000000000000000000000000000000000     00000000                                                                                                                        000000000000000000
F0010000009727800001000007007446000011050500000000000000000201701310002001HERNAN DUQUE .                                    D000000004000000000000000000000000100010010000000000000000000000F0010000009727800120170131000101 00000000000000000000000000000000000000000000000000000000000000000000000000000000000000000000000000000000000000000N 00000000000NCONT   00    00000000000          00000000000000000000000000000000000000000000 000000000000000A000000000000000000000000000000000000000000000 000000000000000000000000000000000000000     00000000                                                                                                                        000000000000000000
F0010000009727800002000007007446000041450500000000000000000201701310002001HERNAN DUQUE .                                    C000000003700000000000000000000000100010010000000000000000000000F0010000009727800220170131000101 00000000000000000000000000000000000000000000000000000000000000000000000000000000000000000000000000000000000000000N 00000000000NCONT   00    00000000000          00000000000000000000000000000000000000000000 000000000000000A000000000000000000000000000000000000000000000 000000000000000000000000000000000000000     00000000                                                                                                                        000000000000000000
F0010000009727800003000007007446000042505000000000000000000201701310002001HERNAN DUQUE .                                    C000000000300000000000000000000000100010010000000000000000000000F0010000009727800320170131000101 00000000000000000000000000000000000000000000000000000000000000000000000000000000000000000000000000000000000000000N 00000000000NCONT   00    00000000000          00000000000000000000000000000000000000000000 000000000000000A000000000000000000000000000000000000000000000 000000000000000000000000000000000000000     00000000                                                                                                                        000000000000000000
F0010000009727800004000007007446000023658300000000000000000201701310002001HERNAN DUQUE .                                    C000000000029600000000000000000000100010010000000000000000000000F0010000009727800420170131000101 00000000000000000000000000000000000000000000000000000000000000000000000000000000000000000000000000000000000000000N 00000000000NCONT   00    00000000000          00000000000000000000000000000000000000000000 000000000000000A000000000000000000000000000000000000000000000 000000000000000000000000000000000000000     00000000                                                                                                                        000000000000000000
F0010000009727800005000007007446000013552100000000000000000201701310002001HERNAN DUQUE .                                    D000000000029600000000000000000000100010010000000000000000000000F0010000009727800520170131000101 00000000000000000000000000000000000000000000000000000000000000000000000000000000000000000000000000000000000000000N 00000000000NCONT   00    00000000000          00000000000000000000000000000000000000000000 000000000000000A000000000000000000000000000000000000000000000 000000000000000000000000000000000000000     00000000                                                                                                                        000000000000000000
F0010000009727900001000000744496800011050500000000000000000201701310002001TOMAS SANCHEZ                                     D000000002100000000000000000000000100010010000000000000000000000F0010000009727900120170131000101 00000000000000000000000000000000000000000000000000000000000000000000000000000000000000000000000000000000000000000N 00000000000NCONT   00    00000000000          00000000000000000000000000000000000000000000 000000000000000A000000000000000000000000000000000000000000000 000000000000000000000000000000000000000     00000000                                                                                                                        000000000000000000
F0010000009727900002000000744496800041450500000000000000000201701310002001TOMAS SANCHEZ                                     C000000002000000000000000000000000100010010000000000000000000000F0010000009727900220170131000101 00000000000000000000000000000000000000000000000000000000000000000000000000000000000000000000000000000000000000000N 00000000000NCONT   00    00000000000          00000000000000000000000000000000000000000000 000000000000000A000000000000000000000000000000000000000000000 000000000000000000000000000000000000000     00000000                                                                                                                        000000000000000000
F0010000009727900003000000744496800042505000000000000000000201701310002001TOMAS SANCHEZ                                     C000000000100000000000000000000000100010010000000000000000000000F0010000009727900320170131000101 00000000000000000000000000000000000000000000000000000000000000000000000000000000000000000000000000000000000000000N 00000000000NCONT   00    00000000000          00000000000000000000000000000000000000000000 000000000000000A000000000000000000000000000000000000000000000 000000000000000000000000000000000000000     00000000                                                                                                                        000000000000000000
F0010000009727900004000000744496800023658300000000000000000201701310002001TOMAS SANCHEZ                                     C000000000016000000000000000000000100010010000000000000000000000F0010000009727900420170131000101 00000000000000000000000000000000000000000000000000000000000000000000000000000000000000000000000000000000000000000N 00000000000NCONT   00    00000000000          00000000000000000000000000000000000000000000 000000000000000A000000000000000000000000000000000000000000000 000000000000000000000000000000000000000     00000000                                                                                                                        000000000000000000
F0010000009727900005000000744496800013552100000000000000000201701310002001TOMAS SANCHEZ                                     D000000000016000000000000000000000100010010000000000000000000000F0010000009727900520170131000101 00000000000000000000000000000000000000000000000000000000000000000000000000000000000000000000000000000000000000000N 00000000000NCONT   00    00000000000          00000000000000000000000000000000000000000000 000000000000000A000000000000000000000000000000000000000000000 000000000000000000000000000000000000000     00000000                                                                                                                        000000000000000000
F0010000009728000001000000744496800011050500000000000000000201701310002001TOMAS SANCHEZ                                     D000000001100000000000000000000000100010010000000000000000000000F0010000009728000120170131000101 00000000000000000000000000000000000000000000000000000000000000000000000000000000000000000000000000000000000000000N 00000000000NCONT   00    00000000000          00000000000000000000000000000000000000000000 000000000000000A000000000000000000000000000000000000000000000 000000000000000000000000000000000000000     00000000                                                                                                                        000000000000000000
F0010000009728000002000000744496800041450500000000000000000201701310002001TOMAS SANCHEZ                                     C000000001000000000000000000000000100010010000000000000000000000F0010000009728000220170131000101 00000000000000000000000000000000000000000000000000000000000000000000000000000000000000000000000000000000000000000N 00000000000NCONT   00    00000000000          00000000000000000000000000000000000000000000 000000000000000A000000000000000000000000000000000000000000000 000000000000000000000000000000000000000     00000000                                                                                                                        000000000000000000
F0010000009728000003000000744496800042505000000000000000000201701310002001TOMAS SANCHEZ                                     C000000000100000000000000000000000100010010000000000000000000000F0010000009728000320170131000101 00000000000000000000000000000000000000000000000000000000000000000000000000000000000000000000000000000000000000000N 00000000000NCONT   00    00000000000          00000000000000000000000000000000000000000000 000000000000000A000000000000000000000000000000000000000000000 000000000000000000000000000000000000000     00000000                                                                                                                        000000000000000000
F0010000009728000004000000744496800023658300000000000000000201701310002001TOMAS SANCHEZ                                     C000000000008000000000000000000000100010010000000000000000000000F0010000009728000420170131000101 00000000000000000000000000000000000000000000000000000000000000000000000000000000000000000000000000000000000000000N 00000000000NCONT   00    00000000000          00000000000000000000000000000000000000000000 000000000000000A000000000000000000000000000000000000000000000 000000000000000000000000000000000000000     00000000                                                                                                                        000000000000000000
F0010000009728000005000000744496800013552100000000000000000201701310002001TOMAS SANCHEZ                                     D000000000008000000000000000000000100010010000000000000000000000F0010000009728000520170131000101 00000000000000000000000000000000000000000000000000000000000000000000000000000000000000000000000000000000000000000N 00000000000NCONT   00    00000000000          00000000000000000000000000000000000000000000 000000000000000A000000000000000000000000000000000000000000000 000000000000000000000000000000000000000     00000000                                                                                                                        000000000000000000
F0010000009728100001000007213653800011050500000000000000000201701310002001VICTOR ECHAVEZ                                    D000000003500000000000000000000000100010010000000000000000000000F0010000009728100120170131000101 00000000000000000000000000000000000000000000000000000000000000000000000000000000000000000000000000000000000000000N 00000000000NCONT   00    00000000000          00000000000000000000000000000000000000000000 000000000000000A000000000000000000000000000000000000000000000 000000000000000000000000000000000000000     00000000                                                                                                                        000000000000000000
F0010000009728100002000007213653800041450500000000000000000201701310002001VICTOR ECHAVEZ                                    C000000002500000000000000000000000100010010000000000000000000000F0010000009728100220170131000101 00000000000000000000000000000000000000000000000000000000000000000000000000000000000000000000000000000000000000000N 00000000000NCONT   00    00000000000          00000000000000000000000000000000000000000000 000000000000000A000000000000000000000000000000000000000000000 000000000000000000000000000000000000000     00000000                                                                                                                        000000000000000000
F0010000009728100003000007213653800042505000000000000000000201701310002001VICTOR ECHAVEZ                                    C000000001000000000000000000000000100010010000000000000000000000F0010000009728100320170131000101 00000000000000000000000000000000000000000000000000000000000000000000000000000000000000000000000000000000000000000N 00000000000NCONT   00    00000000000          00000000000000000000000000000000000000000000 000000000000000A000000000000000000000000000000000000000000000 000000000000000000000000000000000000000     00000000                                                                                                                        000000000000000000
F0010000009728100004000007213653800023658300000000000000000201701310002001VICTOR ECHAVEZ                                    C000000000020000000000000000000000100010010000000000000000000000F0010000009728100420170131000101 00000000000000000000000000000000000000000000000000000000000000000000000000000000000000000000000000000000000000000N 00000000000NCONT   00    00000000000          00000000000000000000000000000000000000000000 000000000000000A000000000000000000000000000000000000000000000 000000000000000000000000000000000000000     00000000                                                                                                                        000000000000000000
F0010000009728100005000007213653800013552100000000000000000201701310002001VICTOR ECHAVEZ                                    D000000000020000000000000000000000100010010000000000000000000000F0010000009728100520170131000101 00000000000000000000000000000000000000000000000000000000000000000000000000000000000000000000000000000000000000000N 00000000000NCONT   00    00000000000          00000000000000000000000000000000000000000000 000000000000000A000000000000000000000000000000000000000000000 000000000000000000000000000000000000000     00000000                                                                                                                        000000000000000000
F0010000009728200001000090020872300011050500000000000000000201701310002001INTERSOLES SAS                                    D000000002600000000000000000000000100010010000000000000000000000F0010000009728200120170131000101 00000000000000000000000000000000000000000000000000000000000000000000000000000000000000000000000000000000000000000N 00000000000NCONT   00    00000000000          00000000000000000000000000000000000000000000 000000000000000A000000000000000000000000000000000000000000000 000000000000000000000000000000000000000     00000000                                                                                                                        000000000000000000
F0010000009728200002000090020872300041450500000000000000000201701310002001INTERSOLES SAS                                    C000000002000000000000000000000000100010010000000000000000000000F0010000009728200220170131000101 00000000000000000000000000000000000000000000000000000000000000000000000000000000000000000000000000000000000000000N 00000000000NCONT   00    00000000000          00000000000000000000000000000000000000000000 000000000000000A000000000000000000000000000000000000000000000 000000000000000000000000000000000000000     00000000                                                                                                                        000000000000000000
F0010000009728200003000090020872300042505000000000000000000201701310002001INTERSOLES SAS                                    C000000000600000000000000000000000100010010000000000000000000000F0010000009728200320170131000101 00000000000000000000000000000000000000000000000000000000000000000000000000000000000000000000000000000000000000000N 00000000000NCONT   00    00000000000          00000000000000000000000000000000000000000000 000000000000000A000000000000000000000000000000000000000000000 000000000000000000000000000000000000000     00000000                                                                                                                        000000000000000000
F0010000009728200004000090020872300023658300000000000000000201701310002001INTERSOLES SAS                                    C000000000016000000000000000000000100010010000000000000000000000F0010000009728200420170131000101 00000000000000000000000000000000000000000000000000000000000000000000000000000000000000000000000000000000000000000N 00000000000NCONT   00    00000000000          00000000000000000000000000000000000000000000 000000000000000A000000000000000000000000000000000000000000000 000000000000000000000000000000000000000     00000000                                                                                                                        000000000000000000
F0010000009728200005000090020872300013552100000000000000000201701310002001INTERSOLES SAS                                    D000000000016000000000000000000000100010010000000000000000000000F0010000009728200520170131000101 00000000000000000000000000000000000000000000000000000000000000000000000000000000000000000000000000000000000000000N 00000000000NCONT   00    00000000000          00000000000000000000000000000000000000000000 000000000000000A000000000000000000000000000000000000000000000 000000000000000000000000000000000000000     00000000                                                                                                                        000000000000000000
F0010000009728300001000080201601700011050500000000000000000201701310002001PLASTICOS SUPERIOR S.A.                           D000000004900000000000000000000000100010010000000000000000000000F0010000009728300120170131000101 00000000000000000000000000000000000000000000000000000000000000000000000000000000000000000000000000000000000000000N 00000000000NCONT   00    00000000000          00000000000000000000000000000000000000000000 000000000000000A000000000000000000000000000000000000000000000 000000000000000000000000000000000000000     00000000                                                                                                                        000000000000000000
F0010000009728300002000080201601700041450500000000000000000201701310002001PLASTICOS SUPERIOR S.A.                           C000000002900000000000000000000000100010010000000000000000000000F0010000009728300220170131000101 00000000000000000000000000000000000000000000000000000000000000000000000000000000000000000000000000000000000000000N 00000000000NCONT   00    00000000000          00000000000000000000000000000000000000000000 000000000000000A000000000000000000000000000000000000000000000 000000000000000000000000000000000000000     00000000                                                                                                                        000000000000000000
F0010000009728300003000080201601700042505000000000000000000201701310002001PLASTICOS SUPERIOR S.A.                           C000000002000000000000000000000000100010010000000000000000000000F0010000009728300320170131000101 00000000000000000000000000000000000000000000000000000000000000000000000000000000000000000000000000000000000000000N 00000000000NCONT   00    00000000000          00000000000000000000000000000000000000000000 000000000000000A000000000000000000000000000000000000000000000 000000000000000000000000000000000000000     00000000                                                                                                                        000000000000000000
F0010000009728300004000080201601700023658300000000000000000201701310002001PLASTICOS SUPERIOR S.A.                           C000000000023200000000000000000000100010010000000000000000000000F0010000009728300420170131000101 00000000000000000000000000000000000000000000000000000000000000000000000000000000000000000000000000000000000000000N 00000000000NCONT   00    00000000000          00000000000000000000000000000000000000000000 000000000000000A000000000000000000000000000000000000000000000 000000000000000000000000000000000000000     00000000                                                                                                                        000000000000000000
F0010000009728300005000080201601700013552100000000000000000201701310002001PLASTICOS SUPERIOR S.A.                           D000000000023200000000000000000000100010010000000000000000000000F0010000009728300520170131000101 00000000000000000000000000000000000000000000000000000000000000000000000000000000000000000000000000000000000000000N 00000000000NCONT   00    00000000000          00000000000000000000000000000000000000000000 000000000000000A000000000000000000000000000000000000000000000 000000000000000000000000000000000000000     00000000                                                                                                                        000000000000000000
F0010000009728400001000090077877900011050500000000000000000201701310002001COFRETECH S.A.S.                                  D000000008500000000000000000000000100010010000000000000000000000F0010000009728400120170131000101 00000000000000000000000000000000000000000000000000000000000000000000000000000000000000000000000000000000000000000N 00000000000NCONT   00    00000000000          00000000000000000000000000000000000000000000 000000000000000A000000000000000000000000000000000000000000000 000000000000000000000000000000000000000     00000000                                                                                                                        000000000000000000
F0010000009728400002000090077877900041450500000000000000000201701310002001COFRETECH S.A.S.                                  C000000008000000000000000000000000100010010000000000000000000000F0010000009728400220170131000101 00000000000000000000000000000000000000000000000000000000000000000000000000000000000000000000000000000000000000000N 00000000000NCONT   00    00000000000          00000000000000000000000000000000000000000000 000000000000000A000000000000000000000000000000000000000000000 000000000000000000000000000000000000000     00000000                                                                                                                        000000000000000000
F0010000009728400003000090077877900042505000000000000000000201701310002001COFRETECH S.A.S.                                  C000000000500000000000000000000000100010010000000000000000000000F0010000009728400320170131000101 00000000000000000000000000000000000000000000000000000000000000000000000000000000000000000000000000000000000000000N 00000000000NCONT   00    00000000000          00000000000000000000000000000000000000000000 000000000000000A000000000000000000000000000000000000000000000 000000000000000000000000000000000000000     00000000                                                                                                                        000000000000000000
F0010000009728400004000090077877900023658300000000000000000201701310002001COFRETECH S.A.S.                                  C000000000064000000000000000000000100010010000000000000000000000F0010000009728400420170131000101 00000000000000000000000000000000000000000000000000000000000000000000000000000000000000000000000000000000000000000N 00000000000NCONT   00    00000000000          00000000000000000000000000000000000000000000 000000000000000A000000000000000000000000000000000000000000000 000000000000000000000000000000000000000     00000000                                                                                                                        000000000000000000
F0010000009728400005000090077877900013552100000000000000000201701310002001COFRETECH S.A.S.                                  D000000000064000000000000000000000100010010000000000000000000000F0010000009728400520170131000101 00000000000000000000000000000000000000000000000000000000000000000000000000000000000000000000000000000000000000000N 00000000000NCONT   00    00000000000          00000000000000000000000000000000000000000000 000000000000000A000000000000000000000000000000000000000000000 000000000000000000000000000000000000000     00000000                                                                                                                        000000000000000000
F0010000009728500001000001502923600011050500000000000000000201701310002001ALCIDES MARTINEZ MARTINEZ                         D000000001100000000000000000000000100010010000000000000000000000F0010000009728500120170131000101 00000000000000000000000000000000000000000000000000000000000000000000000000000000000000000000000000000000000000000N 00000000000NCONT   00    00000000000          00000000000000000000000000000000000000000000 000000000000000A000000000000000000000000000000000000000000000 000000000000000000000000000000000000000     00000000                                                                                                                        000000000000000000
F0010000009728500002000001502923600041450500000000000000000201701310002001ALCIDES MARTINEZ MARTINEZ                         C000000001000000000000000000000000100010010000000000000000000000F0010000009728500220170131000101 00000000000000000000000000000000000000000000000000000000000000000000000000000000000000000000000000000000000000000N 00000000000NCONT   00    00000000000          00000000000000000000000000000000000000000000 000000000000000A000000000000000000000000000000000000000000000 000000000000000000000000000000000000000     00000000                                                                                                                        000000000000000000
F0010000009728500003000001502923600042505000000000000000000201701310002001ALCIDES MARTINEZ MARTINEZ                         C000000000100000000000000000000000100010010000000000000000000000F0010000009728500320170131000101 00000000000000000000000000000000000000000000000000000000000000000000000000000000000000000000000000000000000000000N 00000000000NCONT   00    00000000000          00000000000000000000000000000000000000000000 000000000000000A000000000000000000000000000000000000000000000 000000000000000000000000000000000000000     00000000                                                                                                                        000000000000000000
F0010000009728500004000001502923600023658300000000000000000201701310002001ALCIDES MARTINEZ MARTINEZ                         C000000000008000000000000000000000100010010000000000000000000000F0010000009728500420170131000101 00000000000000000000000000000000000000000000000000000000000000000000000000000000000000000000000000000000000000000N 00000000000NCONT   00    00000000000          00000000000000000000000000000000000000000000 000000000000000A000000000000000000000000000000000000000000000 000000000000000000000000000000000000000     00000000                                                                                                                        000000000000000000
F0010000009728500005000001502923600013552100000000000000000201701310002001ALCIDES MARTINEZ MARTINEZ                         D000000000008000000000000000000000100010010000000000000000000000F0010000009728500520170131000101 00000000000000000000000000000000000000000000000000000000000000000000000000000000000000000000000000000000000000000N 00000000000NCONT   00    00000000000          00000000000000000000000000000000000000000000 000000000000000A000000000000000000000000000000000000000000000 000000000000000000000000000000000000000     00000000                                                                                                                        000000000000000000
F0010000009728600001000000871573200011050500000000000000000201701310002001ACCESORIAS ARQUITECTONI KJ                        D000000003200000000000000000000000100010010000000000000000000000F0010000009728600120170131000101 00000000000000000000000000000000000000000000000000000000000000000000000000000000000000000000000000000000000000000N 00000000000NCONT   00    00000000000          00000000000000000000000000000000000000000000 000000000000000A000000000000000000000000000000000000000000000 000000000000000000000000000000000000000     00000000                                                                                                                        000000000000000000
F0010000009728600002000000871573200041450500000000000000000201701310002001ACCESORIAS ARQUITECTONI KJ                        C000000001000000000000000000000000100010010000000000000000000000F0010000009728600220170131000101 00000000000000000000000000000000000000000000000000000000000000000000000000000000000000000000000000000000000000000N 00000000000NCONT   00    00000000000          00000000000000000000000000000000000000000000 000000000000000A000000000000000000000000000000000000000000000 000000000000000000000000000000000000000     00000000                                                                                                                        000000000000000000
F0010000009728600003000000871573200042505000000000000000000201701310002001ACCESORIAS ARQUITECTONI KJ                        C000000002200000000000000000000000100010010000000000000000000000F0010000009728600320170131000101 00000000000000000000000000000000000000000000000000000000000000000000000000000000000000000000000000000000000000000N 00000000000NCONT   00    00000000000          00000000000000000000000000000000000000000000 000000000000000A000000000000000000000000000000000000000000000 000000000000000000000000000000000000000     00000000                                                                                                                        000000000000000000
F0010000009728600004000000871573200023658300000000000000000201701310002001ACCESORIAS ARQUITECTONI KJ                        C000000000008000000000000000000000100010010000000000000000000000F0010000009728600420170131000101 00000000000000000000000000000000000000000000000000000000000000000000000000000000000000000000000000000000000000000N 00000000000NCONT   00    00000000000          00000000000000000000000000000000000000000000 000000000000000A000000000000000000000000000000000000000000000 000000000000000000000000000000000000000     00000000                                                                                                                        000000000000000000
F0010000009728600005000000871573200013552100000000000000000201701310002001ACCESORIAS ARQUITECTONI KJ                        D000000000008000000000000000000000100010010000000000000000000000F0010000009728600520170131000101 00000000000000000000000000000000000000000000000000000000000000000000000000000000000000000000000000000000000000000N 00000000000NCONT   00    00000000000          00000000000000000000000000000000000000000000 000000000000000A000000000000000000000000000000000000000000000 000000000000000000000000000000000000000     00000000                                                                                                                        000000000000000000
F0010000009728700001000007200023300011050500000000000000000201701310002001WILLIAM ORTEGA                                    D000000003300000000000000000000000100010010000000000000000000000F0010000009728700120170131000101 00000000000000000000000000000000000000000000000000000000000000000000000000000000000000000000000000000000000000000N 00000000000NCONT   00    00000000000          00000000000000000000000000000000000000000000 000000000000000A000000000000000000000000000000000000000000000 000000000000000000000000000000000000000     00000000                                                                                                                        000000000000000000
F0010000009728700002000007200023300041450500000000000000000201701310002001WILLIAM ORTEGA                                    C000000003000000000000000000000000100010010000000000000000000000F0010000009728700220170131000101 00000000000000000000000000000000000000000000000000000000000000000000000000000000000000000000000000000000000000000N 00000000000NCONT   00    00000000000          00000000000000000000000000000000000000000000 000000000000000A000000000000000000000000000000000000000000000 000000000000000000000000000000000000000     00000000                                                                                                                        000000000000000000
F0010000009728700003000007200023300042505000000000000000000201701310002001WILLIAM ORTEGA                                    C000000000300000000000000000000000100010010000000000000000000000F0010000009728700320170131000101 00000000000000000000000000000000000000000000000000000000000000000000000000000000000000000000000000000000000000000N 00000000000NCONT   00    00000000000          00000000000000000000000000000000000000000000 000000000000000A000000000000000000000000000000000000000000000 000000000000000000000000000000000000000     00000000                                                                                                                        000000000000000000
F0010000009728700004000007200023300023658300000000000000000201701310002001WILLIAM ORTEGA                                    C000000000024000000000000000000000100010010000000000000000000000F0010000009728700420170131000101 00000000000000000000000000000000000000000000000000000000000000000000000000000000000000000000000000000000000000000N 00000000000NCONT   00    00000000000          00000000000000000000000000000000000000000000 000000000000000A000000000000000000000000000000000000000000000 000000000000000000000000000000000000000     00000000                                                                                                                        000000000000000000
F0010000009728700005000007200023300013552100000000000000000201701310002001WILLIAM ORTEGA                                    D000000000024000000000000000000000100010010000000000000000000000F0010000009728700520170131000101 00000000000000000000000000000000000000000000000000000000000000000000000000000000000000000000000000000000000000000N 00000000000NCONT   00    00000000000          00000000000000000000000000000000000000000000 000000000000000A000000000000000000000000000000000000000000000 000000000000000000000000000000000000000     00000000                                                                                                                        000000000000000000
F0010000009728800001000000856527900011050500000000000000000201701310002001CESAR AUGUSTO MIER BUELVAS                        D000000001300000000000000000000000100010010000000000000000000000F0010000009728800120170131000101 00000000000000000000000000000000000000000000000000000000000000000000000000000000000000000000000000000000000000000N 00000000000NCONT   00    00000000000          00000000000000000000000000000000000000000000 000000000000000A000000000000000000000000000000000000000000000 000000000000000000000000000000000000000     00000000                                                                                                                        000000000000000000
F0010000009728800002000000856527900041450500000000000000000201701310002001CESAR AUGUSTO MIER BUELVAS                        C000000001200000000000000000000000100010010000000000000000000000F0010000009728800220170131000101 00000000000000000000000000000000000000000000000000000000000000000000000000000000000000000000000000000000000000000N 00000000000NCONT   00    00000000000          00000000000000000000000000000000000000000000 000000000000000A000000000000000000000000000000000000000000000 000000000000000000000000000000000000000     00000000                                                                                                                        000000000000000000
F0010000009728800003000000856527900042505000000000000000000201701310002001CESAR AUGUSTO MIER BUELVAS                        C000000000100000000000000000000000100010010000000000000000000000F0010000009728800320170131000101 00000000000000000000000000000000000000000000000000000000000000000000000000000000000000000000000000000000000000000N 00000000000NCONT   00    00000000000          00000000000000000000000000000000000000000000 000000000000000A000000000000000000000000000000000000000000000 000000000000000000000000000000000000000     00000000                                                                                                                        000000000000000000
F0010000009728800004000000856527900023658300000000000000000201701310002001CESAR AUGUSTO MIER BUELVAS                        C000000000009600000000000000000000100010010000000000000000000000F0010000009728800420170131000101 00000000000000000000000000000000000000000000000000000000000000000000000000000000000000000000000000000000000000000N 00000000000NCONT   00    00000000000          00000000000000000000000000000000000000000000 000000000000000A000000000000000000000000000000000000000000000 000000000000000000000000000000000000000     00000000                                                                                                                        000000000000000000
F0010000009728800005000000856527900013552100000000000000000201701310002001CESAR AUGUSTO MIER BUELVAS                        D000000000009600000000000000000000100010010000000000000000000000F0010000009728800520170131000101 00000000000000000000000000000000000000000000000000000000000000000000000000000000000000000000000000000000000000000N 00000000000NCONT   00    00000000000          00000000000000000000000000000000000000000000 000000000000000A000000000000000000000000000000000000000000000 000000000000000000000000000000000000000     00000000                                                                                                                        000000000000000000
F0010000009728900001000080200240900011050500000000000000000201701310002001REINALDO NAVARRO SAS                              D000000033000000000000000000000000100010010000000000000000000000F0010000009728900120170131000101 00000000000000000000000000000000000000000000000000000000000000000000000000000000000000000000000000000000000000000N 00000000000NCONT   00    00000000000          00000000000000000000000000000000000000000000 000000000000000A000000000000000000000000000000000000000000000 000000000000000000000000000000000000000     00000000                                                                                                                        000000000000000000
F0010000009728900002000080200240900041450500000000000000000201701310002001REINALDO NAVARRO SAS                              C000000030000000000000000000000000100010010000000000000000000000F0010000009728900220170131000101 00000000000000000000000000000000000000000000000000000000000000000000000000000000000000000000000000000000000000000N 00000000000NCONT   00    00000000000          00000000000000000000000000000000000000000000 000000000000000A000000000000000000000000000000000000000000000 000000000000000000000000000000000000000     00000000                                                                                                                        000000000000000000
F0010000009728900003000080200240900042505000000000000000000201701310002001REINALDO NAVARRO SAS                              C000000003000000000000000000000000100010010000000000000000000000F0010000009728900320170131000101 00000000000000000000000000000000000000000000000000000000000000000000000000000000000000000000000000000000000000000N 00000000000NCONT   00    00000000000          00000000000000000000000000000000000000000000 000000000000000A000000000000000000000000000000000000000000000 000000000000000000000000000000000000000     00000000                                                                                                                        000000000000000000
F0010000009728900004000080200240900023658300000000000000000201701310002001REINALDO NAVARRO SAS                              C000000000240000000000000000000000100010010000000000000000000000F0010000009728900420170131000101 00000000000000000000000000000000000000000000000000000000000000000000000000000000000000000000000000000000000000000N 00000000000NCONT   00    00000000000          00000000000000000000000000000000000000000000 000000000000000A000000000000000000000000000000000000000000000 000000000000000000000000000000000000000     00000000                                                                                                                        000000000000000000
F0010000009728900005000080200240900013552100000000000000000201701310002001REINALDO NAVARRO SAS                              D000000000240000000000000000000000100010010000000000000000000000F0010000009728900520170131000101 00000000000000000000000000000000000000000000000000000000000000000000000000000000000000000000000000000000000000000N 00000000000NCONT   00    00000000000          00000000000000000000000000000000000000000000 000000000000000A000000000000000000000000000000000000000000000 000000000000000000000000000000000000000     00000000                                                                                                                        000000000000000000
F0010000009729000001000000870907300011050500000000000000000201701310002001SURTIDOR FERRETERO                                D000000005802000000000000000000000100010010000000000000000000000F0010000009729000120170131000101 00000000000000000000000000000000000000000000000000000000000000000000000000000000000000000000000000000000000000000N 00000000000NCONT   00    00000000000          00000000000000000000000000000000000000000000 000000000000000A000000000000000000000000000000000000000000000 000000000000000000000000000000000000000     00000000                                                                                                                        000000000000000000
F0010000009729000002000000870907300041450500000000000000000201701310002001SURTIDOR FERRETERO                                C000000004200000000000000000000000100010010000000000000000000000F0010000009729000220170131000101 00000000000000000000000000000000000000000000000000000000000000000000000000000000000000000000000000000000000000000N 00000000000NCONT   00    00000000000          00000000000000000000000000000000000000000000 000000000000000A000000000000000000000000000000000000000000000 000000000000000000000000000000000000000     00000000                                                                                                                        000000000000000000
F0010000009729000003000000870907300042505000000000000000000201701310002001SURTIDOR FERRETERO                                C000000001602000000000000000000000100010010000000000000000000000F0010000009729000320170131000101 00000000000000000000000000000000000000000000000000000000000000000000000000000000000000000000000000000000000000000N 00000000000NCONT   00    00000000000          00000000000000000000000000000000000000000000 000000000000000A000000000000000000000000000000000000000000000 000000000000000000000000000000000000000     00000000                                                                                                                        000000000000000000
F0010000009729000004000000870907300023658300000000000000000201701310002001SURTIDOR FERRETERO                                C000000000033600000000000000000000100010010000000000000000000000F0010000009729000420170131000101 00000000000000000000000000000000000000000000000000000000000000000000000000000000000000000000000000000000000000000N 00000000000NCONT   00    00000000000          00000000000000000000000000000000000000000000 000000000000000A000000000000000000000000000000000000000000000 000000000000000000000000000000000000000     00000000                                                                                                                        000000000000000000
F0010000009729000005000000870907300013552100000000000000000201701310002001SURTIDOR FERRETERO                                D000000000033600000000000000000000100010010000000000000000000000F0010000009729000520170131000101 00000000000000000000000000000000000000000000000000000000000000000000000000000000000000000000000000000000000000000N 00000000000NCONT   00    00000000000          00000000000000000000000000000000000000000000 000000000000000A000000000000000000000000000000000000000000000 000000000000000000000000000000000000000     00000000                                                                                                                        000000000000000000
F0010000009729100001000000870907300011050500000000000000000201701310002001SURTIDOR FERRETERO                                D000000007396000000000000000000000100010010000000000000000000000F0010000009729100120170131000101 00000000000000000000000000000000000000000000000000000000000000000000000000000000000000000000000000000000000000000N 00000000000NCONT   00    00000000000          00000000000000000000000000000000000000000000 000000000000000A000000000000000000000000000000000000000000000 000000000000000000000000000000000000000     00000000                                                                                                                        000000000000000000
F0010000009729100002000000870907300041450500000000000000000201701310002001SURTIDOR FERRETERO                                C000000006200000000000000000000000100010010000000000000000000000F0010000009729100220170131000101 00000000000000000000000000000000000000000000000000000000000000000000000000000000000000000000000000000000000000000N 00000000000NCONT   00    00000000000          00000000000000000000000000000000000000000000 000000000000000A000000000000000000000000000000000000000000000 000000000000000000000000000000000000000     00000000                                                                                                                        000000000000000000
F0010000009729100003000000870907300042505000000000000000000201701310002001SURTIDOR FERRETERO                                C000000001196000000000000000000000100010010000000000000000000000F0010000009729100320170131000101 00000000000000000000000000000000000000000000000000000000000000000000000000000000000000000000000000000000000000000N 00000000000NCONT   00    00000000000          00000000000000000000000000000000000000000000 000000000000000A000000000000000000000000000000000000000000000 000000000000000000000000000000000000000     00000000                                                                                                                        000000000000000000
F0010000009729100004000000870907300023658300000000000000000201701310002001SURTIDOR FERRETERO                                C000000000049600000000000000000000100010010000000000000000000000F0010000009729100420170131000101 00000000000000000000000000000000000000000000000000000000000000000000000000000000000000000000000000000000000000000N 00000000000NCONT   00    00000000000          00000000000000000000000000000000000000000000 000000000000000A000000000000000000000000000000000000000000000 000000000000000000000000000000000000000     00000000                                                                                                                        000000000000000000
F0010000009729100005000000870907300013552100000000000000000201701310002001SURTIDOR FERRETERO                                D000000000049600000000000000000000100010010000000000000000000000F0010000009729100520170131000101 00000000000000000000000000000000000000000000000000000000000000000000000000000000000000000000000000000000000000000N 00000000000NCONT   00    00000000000          00000000000000000000000000000000000000000000 000000000000000A000000000000000000000000000000000000000000000 000000000000000000000000000000000000000     00000000                                                                                                                        000000000000000000
F0010000009729200001000090001736600011050500000000000000000201701310002001AF SUMINISTROS E.U.                               D000000004000000000000000000000000100010010000000000000000000000F0010000009729200120170131000101 00000000000000000000000000000000000000000000000000000000000000000000000000000000000000000000000000000000000000000N 00000000000NCONT   00    00000000000          00000000000000000000000000000000000000000000 000000000000000A000000000000000000000000000000000000000000000 000000000000000000000000000000000000000     00000000                                                                                                                        000000000000000000
F0010000009729200002000090001736600041450500000000000000000201701310002001AF SUMINISTROS E.U.                               C000000003800000000000000000000000100010010000000000000000000000F0010000009729200220170131000101 00000000000000000000000000000000000000000000000000000000000000000000000000000000000000000000000000000000000000000N 00000000000NCONT   00    00000000000          00000000000000000000000000000000000000000000 000000000000000A000000000000000000000000000000000000000000000 000000000000000000000000000000000000000     00000000                                                                                                                        000000000000000000
F0010000009729200003000090001736600042505000000000000000000201701310002001AF SUMINISTROS E.U.                               C000000000200000000000000000000000100010010000000000000000000000F0010000009729200320170131000101 00000000000000000000000000000000000000000000000000000000000000000000000000000000000000000000000000000000000000000N 00000000000NCONT   00    00000000000          00000000000000000000000000000000000000000000 000000000000000A000000000000000000000000000000000000000000000 000000000000000000000000000000000000000     00000000                                                                                                                        000000000000000000
F0010000009729200004000090001736600023658300000000000000000201701310002001AF SUMINISTROS E.U.                               C000000000030400000000000000000000100010010000000000000000000000F0010000009729200420170131000101 00000000000000000000000000000000000000000000000000000000000000000000000000000000000000000000000000000000000000000N 00000000000NCONT   00    00000000000          00000000000000000000000000000000000000000000 000000000000000A000000000000000000000000000000000000000000000 000000000000000000000000000000000000000     00000000                                                                                                                        000000000000000000
F0010000009729200005000090001736600013552100000000000000000201701310002001AF SUMINISTROS E.U.                               D000000000030400000000000000000000100010010000000000000000000000F0010000009729200520170131000101 00000000000000000000000000000000000000000000000000000000000000000000000000000000000000000000000000000000000000000N 00000000000NCONT   00    00000000000          00000000000000000000000000000000000000000000 000000000000000A000000000000000000000000000000000000000000000 000000000000000000000000000000000000000     00000000                                                                                                                        000000000000000000
F0010000009729300001000090001736600011050500000000000000000201701310002001AF SUMINISTROS E.U.                               D000000010000000000000000000000000100010010000000000000000000000F0010000009729300120170131000101 00000000000000000000000000000000000000000000000000000000000000000000000000000000000000000000000000000000000000000N 00000000000NCONT   00    00000000000          00000000000000000000000000000000000000000000 000000000000000A000000000000000000000000000000000000000000000 000000000000000000000000000000000000000     00000000                                                                                                                        000000000000000000
F0010000009729300002000090001736600041450500000000000000000201701310002001AF SUMINISTROS E.U.                               C000000009400000000000000000000000100010010000000000000000000000F0010000009729300220170131000101 00000000000000000000000000000000000000000000000000000000000000000000000000000000000000000000000000000000000000000N 00000000000NCONT   00    00000000000          00000000000000000000000000000000000000000000 000000000000000A000000000000000000000000000000000000000000000 000000000000000000000000000000000000000     00000000                                                                                                                        000000000000000000
F0010000009729300003000090001736600042505000000000000000000201701310002001AF SUMINISTROS E.U.                               C000000000600000000000000000000000100010010000000000000000000000F0010000009729300320170131000101 00000000000000000000000000000000000000000000000000000000000000000000000000000000000000000000000000000000000000000N 00000000000NCONT   00    00000000000          00000000000000000000000000000000000000000000 000000000000000A000000000000000000000000000000000000000000000 000000000000000000000000000000000000000     00000000                                                                                                                        000000000000000000
F0010000009729300004000090001736600023658300000000000000000201701310002001AF SUMINISTROS E.U.                               C000000000075200000000000000000000100010010000000000000000000000F0010000009729300420170131000101 00000000000000000000000000000000000000000000000000000000000000000000000000000000000000000000000000000000000000000N 00000000000NCONT   00    00000000000          00000000000000000000000000000000000000000000 000000000000000A000000000000000000000000000000000000000000000 000000000000000000000000000000000000000     00000000                                                                                                                        000000000000000000
F0010000009729300005000090001736600013552100000000000000000201701310002001AF SUMINISTROS E.U.                               D000000000075200000000000000000000100010010000000000000000000000F0010000009729300520170131000101 00000000000000000000000000000000000000000000000000000000000000000000000000000000000000000000000000000000000000000N 00000000000NCONT   00    00000000000          00000000000000000000000000000000000000000000 000000000000000A000000000000000000000000000000000000000000000 000000000000000000000000000000000000000     00000000                                                                                                                        000000000000000000
F0010000009729400001000000431178400011050500000000000000000201701310002001EFRAIN ALVAREZ                                    D000000003010000000000000000000000100010010000000000000000000000F0010000009729400120170131000101 00000000000000000000000000000000000000000000000000000000000000000000000000000000000000000000000000000000000000000N 00000000000NCONT   00    00000000000          00000000000000000000000000000000000000000000 000000000000000A000000000000000000000000000000000000000000000 000000000000000000000000000000000000000     00000000                                                                                                                        000000000000000000
F0010000009729400002000000431178400041450500000000000000000201701310002001EFRAIN ALVAREZ                                    C000000002760000000000000000000000100010010000000000000000000000F0010000009729400220170131000101 00000000000000000000000000000000000000000000000000000000000000000000000000000000000000000000000000000000000000000N 00000000000NCONT   00    00000000000          00000000000000000000000000000000000000000000 000000000000000A000000000000000000000000000000000000000000000 000000000000000000000000000000000000000     00000000                                                                                                                        000000000000000000
F0010000009729400003000000431178400042505000000000000000000201701310002001EFRAIN ALVAREZ                                    C000000000250000000000000000000000100010010000000000000000000000F0010000009729400320170131000101 00000000000000000000000000000000000000000000000000000000000000000000000000000000000000000000000000000000000000000N 00000000000NCONT   00    00000000000          00000000000000000000000000000000000000000000 000000000000000A000000000000000000000000000000000000000000000 000000000000000000000000000000000000000     00000000                                                                                                                        000000000000000000
F0010000009729400004000000431178400023658300000000000000000201701310002001EFRAIN ALVAREZ                                    C000000000022100000000000000000000100010010000000000000000000000F0010000009729400420170131000101 00000000000000000000000000000000000000000000000000000000000000000000000000000000000000000000000000000000000000000N 00000000000NCONT   00    00000000000          00000000000000000000000000000000000000000000 000000000000000A000000000000000000000000000000000000000000000 000000000000000000000000000000000000000     00000000                                                                                                                        000000000000000000
F0010000009729400005000000431178400013552100000000000000000201701310002001EFRAIN ALVAREZ                                    D000000000022100000000000000000000100010010000000000000000000000F0010000009729400520170131000101 00000000000000000000000000000000000000000000000000000000000000000000000000000000000000000000000000000000000000000N 00000000000NCONT   00    00000000000          00000000000000000000000000000000000000000000 000000000000000A000000000000000000000000000000000000000000000 000000000000000000000000000000000000000     00000000                                                                                                                        000000000000000000
F0010000009729500001000000431178400011050500000000000000000201701310002001EFRAIN ALVAREZ                                    D000000000995000000000000000000000100010010000000000000000000000F0010000009729500120170131000101 00000000000000000000000000000000000000000000000000000000000000000000000000000000000000000000000000000000000000000N 00000000000NCONT   00    00000000000          00000000000000000000000000000000000000000000 000000000000000A000000000000000000000000000000000000000000000 000000000000000000000000000000000000000     00000000                                                                                                                        000000000000000000
F0010000009729500002000000431178400041450500000000000000000201701310002001EFRAIN ALVAREZ                                    C000000000920000000000000000000000100010010000000000000000000000F0010000009729500220170131000101 00000000000000000000000000000000000000000000000000000000000000000000000000000000000000000000000000000000000000000N 00000000000NCONT   00    00000000000          00000000000000000000000000000000000000000000 000000000000000A000000000000000000000000000000000000000000000 000000000000000000000000000000000000000     00000000                                                                                                                        000000000000000000
F0010000009729500003000000431178400042505000000000000000000201701310002001EFRAIN ALVAREZ                                    C000000000075000000000000000000000100010010000000000000000000000F0010000009729500320170131000101 00000000000000000000000000000000000000000000000000000000000000000000000000000000000000000000000000000000000000000N 00000000000NCONT   00    00000000000          00000000000000000000000000000000000000000000 000000000000000A000000000000000000000000000000000000000000000 000000000000000000000000000000000000000     00000000                                                                                                                        000000000000000000
F0010000009729500004000000431178400023658300000000000000000201701310002001EFRAIN ALVAREZ                                    C000000000007400000000000000000000100010010000000000000000000000F0010000009729500420170131000101 00000000000000000000000000000000000000000000000000000000000000000000000000000000000000000000000000000000000000000N 00000000000NCONT   00    00000000000          00000000000000000000000000000000000000000000 000000000000000A000000000000000000000000000000000000000000000 000000000000000000000000000000000000000     00000000                                                                                                                        000000000000000000
F0010000009729500005000000431178400013552100000000000000000201701310002001EFRAIN ALVAREZ                                    D000000000007400000000000000000000100010010000000000000000000000F0010000009729500520170131000101 00000000000000000000000000000000000000000000000000000000000000000000000000000000000000000000000000000000000000000N 00000000000NCONT   00    00000000000          00000000000000000000000000000000000000000000 000000000000000A000000000000000000000000000000000000000000000 000000000000000000000000000000000000000     00000000                                                                                                                        000000000000000000
F0010000009729600001000000431178400011050500000000000000000201701310002001EFRAIN ALVAREZ                                    D000000002040000000000000000000000100010010000000000000000000000F0010000009729600120170131000101 00000000000000000000000000000000000000000000000000000000000000000000000000000000000000000000000000000000000000000N 00000000000NCONT   00    00000000000          00000000000000000000000000000000000000000000 000000000000000A000000000000000000000000000000000000000000000 000000000000000000000000000000000000000     00000000                                                                                                                        000000000000000000
F0010000009729600002000000431178400041450500000000000000000201701310002001EFRAIN ALVAREZ                                    C000000001840000000000000000000000100010010000000000000000000000F0010000009729600220170131000101 00000000000000000000000000000000000000000000000000000000000000000000000000000000000000000000000000000000000000000N 00000000000NCONT   00    00000000000          00000000000000000000000000000000000000000000 000000000000000A000000000000000000000000000000000000000000000 000000000000000000000000000000000000000     00000000                                                                                                                        000000000000000000
F0010000009729600003000000431178400042505000000000000000000201701310002001EFRAIN ALVAREZ                                    C000000000200000000000000000000000100010010000000000000000000000F0010000009729600320170131000101 00000000000000000000000000000000000000000000000000000000000000000000000000000000000000000000000000000000000000000N 00000000000NCONT   00    00000000000          00000000000000000000000000000000000000000000 000000000000000A000000000000000000000000000000000000000000000 000000000000000000000000000000000000000     00000000                                                                                                                        000000000000000000
F0010000009729600004000000431178400023658300000000000000000201701310002001EFRAIN ALVAREZ                                    C000000000014700000000000000000000100010010000000000000000000000F0010000009729600420170131000101 00000000000000000000000000000000000000000000000000000000000000000000000000000000000000000000000000000000000000000N 00000000000NCONT   00    00000000000          00000000000000000000000000000000000000000000 000000000000000A000000000000000000000000000000000000000000000 000000000000000000000000000000000000000     00000000                                                                                                                        000000000000000000
F0010000009729600005000000431178400013552100000000000000000201701310002001EFRAIN ALVAREZ                                    D000000000014700000000000000000000100010010000000000000000000000F0010000009729600520170131000101 00000000000000000000000000000000000000000000000000000000000000000000000000000000000000000000000000000000000000000N 00000000000NCONT   00    00000000000          00000000000000000000000000000000000000000000 000000000000000A000000000000000000000000000000000000000000000 000000000000000000000000000000000000000     00000000                                                                                                                        000000000000000000
F0010000009729700001000000431178400011050500000000000000000201701310002001EFRAIN ALVAREZ                                    D000000002840000000000000000000000100010010000000000000000000000F0010000009729700120170131000101 00000000000000000000000000000000000000000000000000000000000000000000000000000000000000000000000000000000000000000N 00000000000NCONT   00    00000000000          00000000000000000000000000000000000000000000 000000000000000A000000000000000000000000000000000000000000000 000000000000000000000000000000000000000     00000000                                                                                                                        000000000000000000
F0010000009729700002000000431178400041450500000000000000000201701310002001EFRAIN ALVAREZ                                    C000000002540000000000000000000000100010010000000000000000000000F0010000009729700220170131000101 00000000000000000000000000000000000000000000000000000000000000000000000000000000000000000000000000000000000000000N 00000000000NCONT   00    00000000000          00000000000000000000000000000000000000000000 000000000000000A000000000000000000000000000000000000000000000 000000000000000000000000000000000000000     00000000                                                                                                                        000000000000000000
F0010000009729700003000000431178400042505000000000000000000201701310002001EFRAIN ALVAREZ                                    C000000000300000000000000000000000100010010000000000000000000000F0010000009729700320170131000101 00000000000000000000000000000000000000000000000000000000000000000000000000000000000000000000000000000000000000000N 00000000000NCONT   00    00000000000          00000000000000000000000000000000000000000000 000000000000000A000000000000000000000000000000000000000000000 000000000000000000000000000000000000000     00000000                                                                                                                        000000000000000000
F0010000009729700004000000431178400023658300000000000000000201701310002001EFRAIN ALVAREZ                                    C000000000020300000000000000000000100010010000000000000000000000F0010000009729700420170131000101 00000000000000000000000000000000000000000000000000000000000000000000000000000000000000000000000000000000000000000N 00000000000NCONT   00    00000000000          00000000000000000000000000000000000000000000 000000000000000A000000000000000000000000000000000000000000000 000000000000000000000000000000000000000     00000000                                                                                                                        000000000000000000
F0010000009729700005000000431178400013552100000000000000000201701310002001EFRAIN ALVAREZ                                    D000000000020300000000000000000000100010010000000000000000000000F0010000009729700520170131000101 00000000000000000000000000000000000000000000000000000000000000000000000000000000000000000000000000000000000000000N 00000000000NCONT   00    00000000000          00000000000000000000000000000000000000000000 000000000000000A000000000000000000000000000000000000000000000 000000000000000000000000000000000000000     00000000                                                                                                                        000000000000000000
F0010000009729800001000000431178400011050500000000000000000201701310002001EFRAIN ALVAREZ                                    D000000007920000000000000000000000100010010000000000000000000000F0010000009729800120170131000101 00000000000000000000000000000000000000000000000000000000000000000000000000000000000000000000000000000000000000000N 00000000000NCONT   00    00000000000          00000000000000000000000000000000000000000000 000000000000000A000000000000000000000000000000000000000000000 000000000000000000000000000000000000000     00000000                                                                                                                        000000000000000000
F0010000009729800002000000431178400041450500000000000000000201701310002001EFRAIN ALVAREZ                                    C000000007620000000000000000000000100010010000000000000000000000F0010000009729800220170131000101 00000000000000000000000000000000000000000000000000000000000000000000000000000000000000000000000000000000000000000N 00000000000NCONT   00    00000000000          00000000000000000000000000000000000000000000 000000000000000A000000000000000000000000000000000000000000000 000000000000000000000000000000000000000     00000000                                                                                                                        000000000000000000
F0010000009729800003000000431178400042505000000000000000000201701310002001EFRAIN ALVAREZ                                    C000000000300000000000000000000000100010010000000000000000000000F0010000009729800320170131000101 00000000000000000000000000000000000000000000000000000000000000000000000000000000000000000000000000000000000000000N 00000000000NCONT   00    00000000000          00000000000000000000000000000000000000000000 000000000000000A000000000000000000000000000000000000000000000 000000000000000000000000000000000000000     00000000                                                                                                                        000000000000000000
F0010000009729800004000000431178400023658300000000000000000201701310002001EFRAIN ALVAREZ                                    C000000000061000000000000000000000100010010000000000000000000000F0010000009729800420170131000101 00000000000000000000000000000000000000000000000000000000000000000000000000000000000000000000000000000000000000000N 00000000000NCONT   00    00000000000          00000000000000000000000000000000000000000000 000000000000000A000000000000000000000000000000000000000000000 000000000000000000000000000000000000000     00000000                                                                                                                        000000000000000000
F0010000009729800005000000431178400013552100000000000000000201701310002001EFRAIN ALVAREZ                                    D000000000061000000000000000000000100010010000000000000000000000F0010000009729800520170131000101 00000000000000000000000000000000000000000000000000000000000000000000000000000000000000000000000000000000000000000N 00000000000NCONT   00    00000000000          00000000000000000000000000000000000000000000 000000000000000A000000000000000000000000000000000000000000000 000000000000000000000000000000000000000     00000000                                                                                                                        000000000000000000
F0010000009729900001000000431178400011050500000000000000000201701310002001EFRAIN ALVAREZ                                    D000000002140000000000000000000000100010010000000000000000000000F0010000009729900120170131000101 00000000000000000000000000000000000000000000000000000000000000000000000000000000000000000000000000000000000000000N 00000000000NCONT   00    00000000000          00000000000000000000000000000000000000000000 000000000000000A000000000000000000000000000000000000000000000 000000000000000000000000000000000000000     00000000                                                                                                                        000000000000000000
F0010000009729900002000000431178400041450500000000000000000201701310002001EFRAIN ALVAREZ                                    C000000001840000000000000000000000100010010000000000000000000000F0010000009729900220170131000101 00000000000000000000000000000000000000000000000000000000000000000000000000000000000000000000000000000000000000000N 00000000000NCONT   00    00000000000          00000000000000000000000000000000000000000000 000000000000000A000000000000000000000000000000000000000000000 000000000000000000000000000000000000000     00000000                                                                                                                        000000000000000000
F0010000009729900003000000431178400042505000000000000000000201701310002001EFRAIN ALVAREZ                                    C000000000300000000000000000000000100010010000000000000000000000F0010000009729900320170131000101 00000000000000000000000000000000000000000000000000000000000000000000000000000000000000000000000000000000000000000N 00000000000NCONT   00    00000000000          00000000000000000000000000000000000000000000 000000000000000A000000000000000000000000000000000000000000000 000000000000000000000000000000000000000     00000000                                                                                                                        000000000000000000
F0010000009729900004000000431178400023658300000000000000000201701310002001EFRAIN ALVAREZ                                    C000000000014700000000000000000000100010010000000000000000000000F0010000009729900420170131000101 00000000000000000000000000000000000000000000000000000000000000000000000000000000000000000000000000000000000000000N 00000000000NCONT   00    00000000000          00000000000000000000000000000000000000000000 000000000000000A000000000000000000000000000000000000000000000 000000000000000000000000000000000000000     00000000                                                                                                                        000000000000000000
F0010000009729900005000000431178400013552100000000000000000201701310002001EFRAIN ALVAREZ                                    D000000000014700000000000000000000100010010000000000000000000000F0010000009729900520170131000101 00000000000000000000000000000000000000000000000000000000000000000000000000000000000000000000000000000000000000000N 00000000000NCONT   00    00000000000          00000000000000000000000000000000000000000000 000000000000000A000000000000000000000000000000000000000000000 000000000000000000000000000000000000000     00000000                                                                                                                        000000000000000000
F0010000009730000001000001022529300011050500000000000000000201701310002001ALBERTO ALVAREZ ISAZA                             D000000003829300000000000000000000100010010000000000000000000000F0010000009730000120170131000101 00000000000000000000000000000000000000000000000000000000000000000000000000000000000000000000000000000000000000000N 00000000000NCONT   00    00000000000          00000000000000000000000000000000000000000000 000000000000000A000000000000000000000000000000000000000000000 000000000000000000000000000000000000000     00000000                                                                                                                        000000000000000000
F0010000009730000002000001022529300041450500000000000000000201701310002001ALBERTO ALVAREZ ISAZA                             C000000003460000000000000000000000100010010000000000000000000000F0010000009730000220170131000101 00000000000000000000000000000000000000000000000000000000000000000000000000000000000000000000000000000000000000000N 00000000000NCONT   00    00000000000          00000000000000000000000000000000000000000000 000000000000000A000000000000000000000000000000000000000000000 000000000000000000000000000000000000000     00000000                                                                                                                        000000000000000000
F0010000009730000003000001022529300042505000000000000000000201701310002001ALBERTO ALVAREZ ISAZA                             C000000000369300000000000000000000100010010000000000000000000000F0010000009730000320170131000101 00000000000000000000000000000000000000000000000000000000000000000000000000000000000000000000000000000000000000000N 00000000000NCONT   00    00000000000          00000000000000000000000000000000000000000000 000000000000000A000000000000000000000000000000000000000000000 000000000000000000000000000000000000000     00000000                                                                                                                        000000000000000000
F0010000009730000004000001022529300023658300000000000000000201701310002001ALBERTO ALVAREZ ISAZA                             C000000000027700000000000000000000100010010000000000000000000000F0010000009730000420170131000101 00000000000000000000000000000000000000000000000000000000000000000000000000000000000000000000000000000000000000000N 00000000000NCONT   00    00000000000          00000000000000000000000000000000000000000000 000000000000000A000000000000000000000000000000000000000000000 000000000000000000000000000000000000000     00000000                                                                                                                        000000000000000000
F0010000009730000005000001022529300013552100000000000000000201701310002001ALBERTO ALVAREZ ISAZA                             D000000000027700000000000000000000100010010000000000000000000000F0010000009730000520170131000101 00000000000000000000000000000000000000000000000000000000000000000000000000000000000000000000000000000000000000000N 00000000000NCONT   00    00000000000          00000000000000000000000000000000000000000000 000000000000000A000000000000000000000000000000000000000000000 000000000000000000000000000000000000000     00000000                                                                                                                        000000000000000000
F0010000009730100001000004175790100011050500000000000000000201701310002001ROSIRIS FERIA HOYOS  (COSM. SHILLER)              D000000001000000000000000000000000100010010000000000000000000000F0010000009730100120170131000101 00000000000000000000000000000000000000000000000000000000000000000000000000000000000000000000000000000000000000000N 00000000000NCONT   00    00000000000          00000000000000000000000000000000000000000000 000000000000000A000000000000000000000000000000000000000000000 000000000000000000000000000000000000000     00000000                                                                                                                        000000000000000000
F0010000009730100002000004175790100041450500000000000000000201701310002001ROSIRIS FERIA HOYOS  (COSM. SHILLER)              C000000000900000000000000000000000100010010000000000000000000000F0010000009730100220170131000101 00000000000000000000000000000000000000000000000000000000000000000000000000000000000000000000000000000000000000000N 00000000000NCONT   00    00000000000          00000000000000000000000000000000000000000000 000000000000000A000000000000000000000000000000000000000000000 000000000000000000000000000000000000000     00000000                                                                                                                        000000000000000000
F0010000009730100003000004175790100042505000000000000000000201701310002001ROSIRIS FERIA HOYOS  (COSM. SHILLER)              C000000000100000000000000000000000100010010000000000000000000000F0010000009730100320170131000101 00000000000000000000000000000000000000000000000000000000000000000000000000000000000000000000000000000000000000000N 00000000000NCONT   00    00000000000          00000000000000000000000000000000000000000000 000000000000000A000000000000000000000000000000000000000000000 000000000000000000000000000000000000000     00000000                                                                                                                        000000000000000000
F0010000009730100004000004175790100023658300000000000000000201701310002001ROSIRIS FERIA HOYOS  (COSM. SHILLER)              C000000000007200000000000000000000100010010000000000000000000000F0010000009730100420170131000101 00000000000000000000000000000000000000000000000000000000000000000000000000000000000000000000000000000000000000000N 00000000000NCONT   00    00000000000          00000000000000000000000000000000000000000000 000000000000000A000000000000000000000000000000000000000000000 000000000000000000000000000000000000000     00000000                                                                                                                        000000000000000000
F0010000009730100005000004175790100013552100000000000000000201701310002001ROSIRIS FERIA HOYOS  (COSM. SHILLER)              D000000000007200000000000000000000100010010000000000000000000000F0010000009730100520170131000101 00000000000000000000000000000000000000000000000000000000000000000000000000000000000000000000000000000000000000000N 00000000000NCONT   00    00000000000          00000000000000000000000000000000000000000000 000000000000000A000000000000000000000000000000000000000000000 000000000000000000000000000000000000000     00000000                                                                                                                        000000000000000000
F0010000009730200001000004175790100011050500000000000000000201701310002001ROSIRIS FERIA HOYOS  (COSM. SHILLER)              D000000001000000000000000000000000100010010000000000000000000000F0010000009730200120170131000101 00000000000000000000000000000000000000000000000000000000000000000000000000000000000000000000000000000000000000000N 00000000000NCONT   00    00000000000          00000000000000000000000000000000000000000000 000000000000000A000000000000000000000000000000000000000000000 000000000000000000000000000000000000000     00000000                                                                                                                        000000000000000000
F0010000009730200002000004175790100041450500000000000000000201701310002001ROSIRIS FERIA HOYOS  (COSM. SHILLER)              C000000000900000000000000000000000100010010000000000000000000000F0010000009730200220170131000101 00000000000000000000000000000000000000000000000000000000000000000000000000000000000000000000000000000000000000000N 00000000000NCONT   00    00000000000          00000000000000000000000000000000000000000000 000000000000000A000000000000000000000000000000000000000000000 000000000000000000000000000000000000000     00000000                                                                                                                        000000000000000000
F0010000009730200003000004175790100042505000000000000000000201701310002001ROSIRIS FERIA HOYOS  (COSM. SHILLER)              C000000000100000000000000000000000100010010000000000000000000000F0010000009730200320170131000101 00000000000000000000000000000000000000000000000000000000000000000000000000000000000000000000000000000000000000000N 00000000000NCONT   00    00000000000          00000000000000000000000000000000000000000000 000000000000000A000000000000000000000000000000000000000000000 000000000000000000000000000000000000000     00000000                                                                                                                        000000000000000000
F0010000009730200004000004175790100023658300000000000000000201701310002001ROSIRIS FERIA HOYOS  (COSM. SHILLER)              C000000000007200000000000000000000100010010000000000000000000000F0010000009730200420170131000101 00000000000000000000000000000000000000000000000000000000000000000000000000000000000000000000000000000000000000000N 00000000000NCONT   00    00000000000          00000000000000000000000000000000000000000000 000000000000000A000000000000000000000000000000000000000000000 000000000000000000000000000000000000000     00000000                                                                                                                        000000000000000000
F0010000009730200005000004175790100013552100000000000000000201701310002001ROSIRIS FERIA HOYOS  (COSM. SHILLER)              D000000000007200000000000000000000100010010000000000000000000000F0010000009730200520170131000101 00000000000000000000000000000000000000000000000000000000000000000000000000000000000000000000000000000000000000000N 00000000000NCONT   00    00000000000          00000000000000000000000000000000000000000000 000000000000000A000000000000000000000000000000000000000000000 000000000000000000000000000000000000000     00000000                                                                                                                        000000000000000000
F0010000009730300001000007200023300011050500000000000000000201701310002001WILLIAM ORTEGA                                    D000000002000000000000000000000000100010010000000000000000000000F0010000009730300120170131000101 00000000000000000000000000000000000000000000000000000000000000000000000000000000000000000000000000000000000000000N 00000000000NCONT   00    00000000000          00000000000000000000000000000000000000000000 000000000000000A000000000000000000000000000000000000000000000 000000000000000000000000000000000000000     00000000                                                                                                                        000000000000000000
F0010000009730300002000007200023300041450500000000000000000201701310002001WILLIAM ORTEGA                                    C000000001000000000000000000000000100010010000000000000000000000F0010000009730300220170131000101 00000000000000000000000000000000000000000000000000000000000000000000000000000000000000000000000000000000000000000N 00000000000NCONT   00    00000000000          00000000000000000000000000000000000000000000 000000000000000A000000000000000000000000000000000000000000000 000000000000000000000000000000000000000     00000000                                                                                                                        000000000000000000
