F0010000007754300001000002245670100013050500000000000000000201510150002001YOLANDA  TOBON                                    D000000028706800000000000000000000100010010000000000000000000000F0010000007754300120151015000101 00000000000000000000000000000000000000000000000000000000000000000000000000000000000000000000000000000000000000000N 00000000000NCONT   00    00000000000          00000000000000000000000000000000000000000000 000000000000000A000000000000000000000000000000000000000000000 000000000000000000000000000000000000000     00000000                                                                                                                        000000000000000000
F0010000007754300002000002245670100041450500000000000000000201510150002001YOLANDA  TOBON                                    C000000022840000000000000000000000100010010000000000000000000000F0010000007754300220151015000101 00000000000000000000000000000000000000000000000000000000000000000000000000000000000000000000000000000000000000000N 00000000000NCONT   00    00000000000          00000000000000000000000000000000000000000000 000000000000000A000000000000000000000000000000000000000000000 000000000000000000000000000000000000000     00000000                                                                                                                        000000000000000000
F0010000007754300003000002245670100042505000000000000000000201510150002001YOLANDA  TOBON                                    C000000005866800000000000000000000100010010000000000000000000000F0010000007754300320151015000101 00000000000000000000000000000000000000000000000000000000000000000000000000000000000000000000000000000000000000000N 00000000000NCONT   00    00000000000          00000000000000000000000000000000000000000000 000000000000000A000000000000000000000000000000000000000000000 000000000000000000000000000000000000000     00000000                                                                                                                        000000000000000000
F0010000007754300004000002245670100023658300000000000000000201510150002001YOLANDA  TOBON                                    C000000000182700000000000000000000100010010000000000000000000000F0010000007754300420151015000101 00000000000000000000000000000000000000000000000000000000000000000000000000000000000000000000000000000000000000000N 00000000000NCONT   00    00000000000          00000000000000000000000000000000000000000000 000000000000000A000000000000000000000000000000000000000000000 000000000000000000000000000000000000000     00000000                                                                                                                        000000000000000000
F0010000007754300005000002245670100013552100000000000000000201510150002001YOLANDA  TOBON                                    D000000000182700000000000000000000100010010000000000000000000000F0010000007754300520151015000101 00000000000000000000000000000000000000000000000000000000000000000000000000000000000000000000000000000000000000000N 00000000000NCONT   00    00000000000          00000000000000000000000000000000000000000000 000000000000000A000000000000000000000000000000000000000000000 000000000000000000000000000000000000000     00000000                                                                                                                        000000000000000000
F0010000007754400001000090055568800013050500000000000000000201510150002001IMPORTADORA CRUZ Y BELTRAN                        D000000007300000000000000000000000100010010000000000000000000000F0010000007754400120151015000101 00000000000000000000000000000000000000000000000000000000000000000000000000000000000000000000000000000000000000000N 00000000000NCONT   00    00000000000          00000000000000000000000000000000000000000000 000000000000000A000000000000000000000000000000000000000000000 000000000000000000000000000000000000000     00000000                                                                                                                        000000000000000000
F0010000007754400002000090055568800041450500000000000000000201510150002001IMPORTADORA CRUZ Y BELTRAN                        C000000007000000000000000000000000100010010000000000000000000000F0010000007754400220151015000101 00000000000000000000000000000000000000000000000000000000000000000000000000000000000000000000000000000000000000000N 00000000000NCONT   00    00000000000          00000000000000000000000000000000000000000000 000000000000000A000000000000000000000000000000000000000000000 000000000000000000000000000000000000000     00000000                                                                                                                        000000000000000000
F0010000007754400003000090055568800042505000000000000000000201510150002001IMPORTADORA CRUZ Y BELTRAN                        C000000000300000000000000000000000100010010000000000000000000000F0010000007754400320151015000101 00000000000000000000000000000000000000000000000000000000000000000000000000000000000000000000000000000000000000000N 00000000000NCONT   00    00000000000          00000000000000000000000000000000000000000000 000000000000000A000000000000000000000000000000000000000000000 000000000000000000000000000000000000000     00000000                                                                                                                        000000000000000000
F0010000007754400004000090055568800023658300000000000000000201510150002001IMPORTADORA CRUZ Y BELTRAN                        C000000000056000000000000000000000100010010000000000000000000000F0010000007754400420151015000101 00000000000000000000000000000000000000000000000000000000000000000000000000000000000000000000000000000000000000000N 00000000000NCONT   00    00000000000          00000000000000000000000000000000000000000000 000000000000000A000000000000000000000000000000000000000000000 000000000000000000000000000000000000000     00000000                                                                                                                        000000000000000000
F0010000007754400005000090055568800013552100000000000000000201510150002001IMPORTADORA CRUZ Y BELTRAN                        D000000000056000000000000000000000100010010000000000000000000000F0010000007754400520151015000101 00000000000000000000000000000000000000000000000000000000000000000000000000000000000000000000000000000000000000000N 00000000000NCONT   00    00000000000          00000000000000000000000000000000000000000000 000000000000000A000000000000000000000000000000000000000000000 000000000000000000000000000000000000000     00000000                                                                                                                        000000000000000000
F0010000007754500001000000748239700013050500000000000000000201510150002001RAFAEL NAVARRO URIBE                              D000000038368300000000000000000000100010010000000000000000000000F0010000007754500120151015000101 00000000000000000000000000000000000000000000000000000000000000000000000000000000000000000000000000000000000000000N 00000000000NCONT   00    00000000000          00000000000000000000000000000000000000000000 000000000000000A000000000000000000000000000000000000000000000 000000000000000000000000000000000000000     00000000                                                                                                                        000000000000000000
F0010000007754500002000000748239700041450500000000000000000201510150002001RAFAEL NAVARRO URIBE                              C000000029550000000000000000000000100010010000000000000000000000F0010000007754500220151015000101 00000000000000000000000000000000000000000000000000000000000000000000000000000000000000000000000000000000000000000N 00000000000NCONT   00    00000000000          00000000000000000000000000000000000000000000 000000000000000A000000000000000000000000000000000000000000000 000000000000000000000000000000000000000     00000000                                                                                                                        000000000000000000
F0010000007754500003000000748239700042505000000000000000000201510150002001RAFAEL NAVARRO URIBE                              C000000008818300000000000000000000100010010000000000000000000000F0010000007754500320151015000101 00000000000000000000000000000000000000000000000000000000000000000000000000000000000000000000000000000000000000000N 00000000000NCONT   00    00000000000          00000000000000000000000000000000000000000000 000000000000000A000000000000000000000000000000000000000000000 000000000000000000000000000000000000000     00000000                                                                                                                        000000000000000000
F0010000007754500004000000748239700023658300000000000000000201510150002001RAFAEL NAVARRO URIBE                              C000000000236400000000000000000000100010010000000000000000000000F0010000007754500420151015000101 00000000000000000000000000000000000000000000000000000000000000000000000000000000000000000000000000000000000000000N 00000000000NCONT   00    00000000000          00000000000000000000000000000000000000000000 000000000000000A000000000000000000000000000000000000000000000 000000000000000000000000000000000000000     00000000                                                                                                                        000000000000000000
F0010000007754500005000000748239700013552100000000000000000201510150002001RAFAEL NAVARRO URIBE                              D000000000236400000000000000000000100010010000000000000000000000F0010000007754500520151015000101 00000000000000000000000000000000000000000000000000000000000000000000000000000000000000000000000000000000000000000N 00000000000NCONT   00    00000000000          00000000000000000000000000000000000000000000 000000000000000A000000000000000000000000000000000000000000000 000000000000000000000000000000000000000     00000000                                                                                                                        000000000000000000
F0010000007754600001000090009800500013050500000000000000000201510150002001GLORIANT CHEMICAL DE COLOMBIA LTDA                D000000023849000000000000000000000100010010000000000000000000000F0010000007754600120151015000101 00000000000000000000000000000000000000000000000000000000000000000000000000000000000000000000000000000000000000000N 00000000000NCONT   00    00000000000          00000000000000000000000000000000000000000000 000000000000000A000000000000000000000000000000000000000000000 000000000000000000000000000000000000000     00000000                                                                                                                        000000000000000000
F0010000007754600002000090009800500041450500000000000000000201510150002001GLORIANT CHEMICAL DE COLOMBIA LTDA                C000000019980000000000000000000000100010010000000000000000000000F0010000007754600220151015000101 00000000000000000000000000000000000000000000000000000000000000000000000000000000000000000000000000000000000000000N 00000000000NCONT   00    00000000000          00000000000000000000000000000000000000000000 000000000000000A000000000000000000000000000000000000000000000 000000000000000000000000000000000000000     00000000                                                                                                                        000000000000000000
F0010000007754600003000090009800500042505000000000000000000201510150002001GLORIANT CHEMICAL DE COLOMBIA LTDA                C000000003869000000000000000000000100010010000000000000000000000F0010000007754600320151015000101 00000000000000000000000000000000000000000000000000000000000000000000000000000000000000000000000000000000000000000N 00000000000NCONT   00    00000000000          00000000000000000000000000000000000000000000 000000000000000A000000000000000000000000000000000000000000000 000000000000000000000000000000000000000     00000000                                                                                                                        000000000000000000
F0010000007754600004000090009800500023658300000000000000000201510150002001GLORIANT CHEMICAL DE COLOMBIA LTDA                C000000000159800000000000000000000100010010000000000000000000000F0010000007754600420151015000101 00000000000000000000000000000000000000000000000000000000000000000000000000000000000000000000000000000000000000000N 00000000000NCONT   00    00000000000          00000000000000000000000000000000000000000000 000000000000000A000000000000000000000000000000000000000000000 000000000000000000000000000000000000000     00000000                                                                                                                        000000000000000000
F0010000007754600005000090009800500013552100000000000000000201510150002001GLORIANT CHEMICAL DE COLOMBIA LTDA                D000000000159800000000000000000000100010010000000000000000000000F0010000007754600520151015000101 00000000000000000000000000000000000000000000000000000000000000000000000000000000000000000000000000000000000000000N 00000000000NCONT   00    00000000000          00000000000000000000000000000000000000000000 000000000000000A000000000000000000000000000000000000000000000 000000000000000000000000000000000000000     00000000                                                                                                                        000000000000000000
F0010000007754700001000089080078800013050500000000000000000201510150002001SUMATEC S.A.                                      D000000035165600000000000000000000100010010000000000000000000000F0010000007754700120151015000101 00000000000000000000000000000000000000000000000000000000000000000000000000000000000000000000000000000000000000000N 00000000000NCONT   00    00000000000          00000000000000000000000000000000000000000000 000000000000000A000000000000000000000000000000000000000000000 000000000000000000000000000000000000000     00000000                                                                                                                        000000000000000000
F0010000007754700002000089080078800041450500000000000000000201510150002001SUMATEC S.A.                                      C000000022880000000000000000000000100010010000000000000000000000F0010000007754700220151015000101 00000000000000000000000000000000000000000000000000000000000000000000000000000000000000000000000000000000000000000N 00000000000NCONT   00    00000000000          00000000000000000000000000000000000000000000 000000000000000A000000000000000000000000000000000000000000000 000000000000000000000000000000000000000     00000000                                                                                                                        000000000000000000
F0010000007754700003000089080078800042505000000000000000000201510150002001SUMATEC S.A.                                      C000000012285600000000000000000000100010010000000000000000000000F0010000007754700320151015000101 00000000000000000000000000000000000000000000000000000000000000000000000000000000000000000000000000000000000000000N 00000000000NCONT   00    00000000000          00000000000000000000000000000000000000000000 000000000000000A000000000000000000000000000000000000000000000 000000000000000000000000000000000000000     00000000                                                                                                                        000000000000000000
F0010000007754700004000089080078800023658300000000000000000201510150002001SUMATEC S.A.                                      C000000000183000000000000000000000100010010000000000000000000000F0010000007754700420151015000101 00000000000000000000000000000000000000000000000000000000000000000000000000000000000000000000000000000000000000000N 00000000000NCONT   00    00000000000          00000000000000000000000000000000000000000000 000000000000000A000000000000000000000000000000000000000000000 000000000000000000000000000000000000000     00000000                                                                                                                        000000000000000000
F0010000007754700005000089080078800013552100000000000000000201510150002001SUMATEC S.A.                                      D000000000183000000000000000000000100010010000000000000000000000F0010000007754700520151015000101 00000000000000000000000000000000000000000000000000000000000000000000000000000000000000000000000000000000000000000N 00000000000NCONT   00    00000000000          00000000000000000000000000000000000000000000 000000000000000A000000000000000000000000000000000000000000000 000000000000000000000000000000000000000     00000000                                                                                                                        000000000000000000
F0010000007754800001000090044443800013050500000000000000000201510150002001DISTRIBUCIONES UFRE S.A.S.                        D000000004324900000000000000000000100010010000000000000000000000F0010000007754800120151015000101 00000000000000000000000000000000000000000000000000000000000000000000000000000000000000000000000000000000000000000N 00000000000NCONT   00    00000000000          00000000000000000000000000000000000000000000 000000000000000A000000000000000000000000000000000000000000000 000000000000000000000000000000000000000     00000000                                                                                                                        000000000000000000
F0010000007754800002000090044443800041450500000000000000000201510150002001DISTRIBUCIONES UFRE S.A.S.                        C000000002800000000000000000000000100010010000000000000000000000F0010000007754800220151015000101 00000000000000000000000000000000000000000000000000000000000000000000000000000000000000000000000000000000000000000N 00000000000NCONT   00    00000000000          00000000000000000000000000000000000000000000 000000000000000A000000000000000000000000000000000000000000000 000000000000000000000000000000000000000     00000000                                                                                                                        000000000000000000
F0010000007754800003000090044443800042505000000000000000000201510150002001DISTRIBUCIONES UFRE S.A.S.                        C000000001524900000000000000000000100010010000000000000000000000F0010000007754800320151015000101 00000000000000000000000000000000000000000000000000000000000000000000000000000000000000000000000000000000000000000N 00000000000NCONT   00    00000000000          00000000000000000000000000000000000000000000 000000000000000A000000000000000000000000000000000000000000000 000000000000000000000000000000000000000     00000000                                                                                                                        000000000000000000
F0010000007754800004000090044443800023658300000000000000000201510150002001DISTRIBUCIONES UFRE S.A.S.                        C000000000022400000000000000000000100010010000000000000000000000F0010000007754800420151015000101 00000000000000000000000000000000000000000000000000000000000000000000000000000000000000000000000000000000000000000N 00000000000NCONT   00    00000000000          00000000000000000000000000000000000000000000 000000000000000A000000000000000000000000000000000000000000000 000000000000000000000000000000000000000     00000000                                                                                                                        000000000000000000
F0010000007754800005000090044443800013552100000000000000000201510150002001DISTRIBUCIONES UFRE S.A.S.                        D000000000022400000000000000000000100010010000000000000000000000F0010000007754800520151015000101 00000000000000000000000000000000000000000000000000000000000000000000000000000000000000000000000000000000000000000N 00000000000NCONT   00    00000000000          00000000000000000000000000000000000000000000 000000000000000A000000000000000000000000000000000000000000000 000000000000000000000000000000000000000     00000000                                                                                                                        000000000000000000
F0010000007754900001000080200069100013050500000000000000000201510150002001PEGANTES Y PINTURAS ATLAS LTDA                    D000000010650800000000000000000000100010010000000000000000000000F0010000007754900120151015000101 00000000000000000000000000000000000000000000000000000000000000000000000000000000000000000000000000000000000000000N 00000000000NCONT   00    00000000000          00000000000000000000000000000000000000000000 000000000000000A000000000000000000000000000000000000000000000 000000000000000000000000000000000000000     00000000                                                                                                                        000000000000000000
F0010000007754900002000080200069100041450500000000000000000201510150002001PEGANTES Y PINTURAS ATLAS LTDA                    C000000009000000000000000000000000100010010000000000000000000000F0010000007754900220151015000101 00000000000000000000000000000000000000000000000000000000000000000000000000000000000000000000000000000000000000000N 00000000000NCONT   00    00000000000          00000000000000000000000000000000000000000000 000000000000000A000000000000000000000000000000000000000000000 000000000000000000000000000000000000000     00000000                                                                                                                        000000000000000000
F0010000007754900003000080200069100042505000000000000000000201510150002001PEGANTES Y PINTURAS ATLAS LTDA                    C000000001650800000000000000000000100010010000000000000000000000F0010000007754900320151015000101 00000000000000000000000000000000000000000000000000000000000000000000000000000000000000000000000000000000000000000N 00000000000NCONT   00    00000000000          00000000000000000000000000000000000000000000 000000000000000A000000000000000000000000000000000000000000000 000000000000000000000000000000000000000     00000000                                                                                                                        000000000000000000
F0010000007754900004000080200069100023658300000000000000000201510150002001PEGANTES Y PINTURAS ATLAS LTDA                    C000000000072000000000000000000000100010010000000000000000000000F0010000007754900420151015000101 00000000000000000000000000000000000000000000000000000000000000000000000000000000000000000000000000000000000000000N 00000000000NCONT   00    00000000000          00000000000000000000000000000000000000000000 000000000000000A000000000000000000000000000000000000000000000 000000000000000000000000000000000000000     00000000                                                                                                                        000000000000000000
F0010000007754900005000080200069100013552100000000000000000201510150002001PEGANTES Y PINTURAS ATLAS LTDA                    D000000000072000000000000000000000100010010000000000000000000000F0010000007754900520151015000101 00000000000000000000000000000000000000000000000000000000000000000000000000000000000000000000000000000000000000000N 00000000000NCONT   00    00000000000          00000000000000000000000000000000000000000000 000000000000000A000000000000000000000000000000000000000000000 000000000000000000000000000000000000000     00000000                                                                                                                        000000000000000000
F0010000007755000001000002258669400013050500000000000000000201510150002001YURY PAOLA  SANTAMARIA ..                         D000000014161000000000000000000000100010010000000000000000000000F0010000007755000120151015000101 00000000000000000000000000000000000000000000000000000000000000000000000000000000000000000000000000000000000000000N 00000000000NCONT   00    00000000000          00000000000000000000000000000000000000000000 000000000000000A000000000000000000000000000000000000000000000 000000000000000000000000000000000000000     00000000                                                                                                                        000000000000000000
F0010000007755000002000002258669400041450500000000000000000201510150002001YURY PAOLA  SANTAMARIA ..                         C000000012140000000000000000000000100010010000000000000000000000F0010000007755000220151015000101 00000000000000000000000000000000000000000000000000000000000000000000000000000000000000000000000000000000000000000N 00000000000NCONT   00    00000000000          00000000000000000000000000000000000000000000 000000000000000A000000000000000000000000000000000000000000000 000000000000000000000000000000000000000     00000000                                                                                                                        000000000000000000
F0010000007755000003000002258669400042505000000000000000000201510150002001YURY PAOLA  SANTAMARIA ..                         C000000002021000000000000000000000100010010000000000000000000000F0010000007755000320151015000101 00000000000000000000000000000000000000000000000000000000000000000000000000000000000000000000000000000000000000000N 00000000000NCONT   00    00000000000          00000000000000000000000000000000000000000000 000000000000000A000000000000000000000000000000000000000000000 000000000000000000000000000000000000000     00000000                                                                                                                        000000000000000000
F0010000007755000004000002258669400023658300000000000000000201510150002001YURY PAOLA  SANTAMARIA ..                         C000000000097100000000000000000000100010010000000000000000000000F0010000007755000420151015000101 00000000000000000000000000000000000000000000000000000000000000000000000000000000000000000000000000000000000000000N 00000000000NCONT   00    00000000000          00000000000000000000000000000000000000000000 000000000000000A000000000000000000000000000000000000000000000 000000000000000000000000000000000000000     00000000                                                                                                                        000000000000000000
F0010000007755000005000002258669400013552100000000000000000201510150002001YURY PAOLA  SANTAMARIA ..                         D000000000097100000000000000000000100010010000000000000000000000F0010000007755000520151015000101 00000000000000000000000000000000000000000000000000000000000000000000000000000000000000000000000000000000000000000N 00000000000NCONT   00    00000000000          00000000000000000000000000000000000000000000 000000000000000A000000000000000000000000000000000000000000000 000000000000000000000000000000000000000     00000000                                                                                                                        000000000000000000
F0010000007755100001000090008711200013050500000000000000000201510150002001PACKAGING SUPPLIERS S.A.                          D000000017811000000000000000000000100010010000000000000000000000F0010000007755100120151015000101 00000000000000000000000000000000000000000000000000000000000000000000000000000000000000000000000000000000000000000N 00000000000NCONT   00    00000000000          00000000000000000000000000000000000000000000 000000000000000A000000000000000000000000000000000000000000000 000000000000000000000000000000000000000     00000000                                                                                                                        000000000000000000
F0010000007755100002000090008711200041450500000000000000000201510150002001PACKAGING SUPPLIERS S.A.                          C000000016211000000000000000000000100010010000000000000000000000F0010000007755100220151015000101 00000000000000000000000000000000000000000000000000000000000000000000000000000000000000000000000000000000000000000N 00000000000NCONT   00    00000000000          00000000000000000000000000000000000000000000 000000000000000A000000000000000000000000000000000000000000000 000000000000000000000000000000000000000     00000000                                                                                                                        000000000000000000
F0010000007755100003000090008711200042505000000000000000000201510150002001PACKAGING SUPPLIERS S.A.                          C000000001600000000000000000000000100010010000000000000000000000F0010000007755100320151015000101 00000000000000000000000000000000000000000000000000000000000000000000000000000000000000000000000000000000000000000N 00000000000NCONT   00    00000000000          00000000000000000000000000000000000000000000 000000000000000A000000000000000000000000000000000000000000000 000000000000000000000000000000000000000     00000000                                                                                                                        000000000000000000
F0010000007755100004000090008711200023658300000000000000000201510150002001PACKAGING SUPPLIERS S.A.                          C000000000129700000000000000000000100010010000000000000000000000F0010000007755100420151015000101 00000000000000000000000000000000000000000000000000000000000000000000000000000000000000000000000000000000000000000N 00000000000NCONT   00    00000000000          00000000000000000000000000000000000000000000 000000000000000A000000000000000000000000000000000000000000000 000000000000000000000000000000000000000     00000000                                                                                                                        000000000000000000
F0010000007755100005000090008711200013552100000000000000000201510150002001PACKAGING SUPPLIERS S.A.                          D000000000129700000000000000000000100010010000000000000000000000F0010000007755100520151015000101 00000000000000000000000000000000000000000000000000000000000000000000000000000000000000000000000000000000000000000N 00000000000NCONT   00    00000000000          00000000000000000000000000000000000000000000 000000000000000A000000000000000000000000000000000000000000000 000000000000000000000000000000000000000     00000000                                                                                                                        000000000000000000
F0010000007755200001000080022903500013050500000000000000000201510150002001TECNOGLASS S.A                                    D000000145821800000000000000000000100010010000000000000000000000F0010000007755200120151015000101 00000000000000000000000000000000000000000000000000000000000000000000000000000000000000000000000000000000000000000N 00000000000NCONT   00    00000000000          00000000000000000000000000000000000000000000 000000000000000A000000000000000000000000000000000000000000000 000000000000000000000000000000000000000     00000000                                                                                                                        000000000000000000
F0010000007755200002000080022903500041450500000000000000000201510150002001TECNOGLASS S.A                                    C000000126464400000000000000000000100010010000000000000000000000F0010000007755200220151015000101 00000000000000000000000000000000000000000000000000000000000000000000000000000000000000000000000000000000000000000N 00000000000NCONT   00    00000000000          00000000000000000000000000000000000000000000 000000000000000A000000000000000000000000000000000000000000000 000000000000000000000000000000000000000     00000000                                                                                                                        000000000000000000
F0010000007755200003000080022903500042505000000000000000000201510150002001TECNOGLASS S.A                                    C000000019357400000000000000000000100010010000000000000000000000F0010000007755200320151015000101 00000000000000000000000000000000000000000000000000000000000000000000000000000000000000000000000000000000000000000N 00000000000NCONT   00    00000000000          00000000000000000000000000000000000000000000 000000000000000A000000000000000000000000000000000000000000000 000000000000000000000000000000000000000     00000000                                                                                                                        000000000000000000
F0010000007755200004000080022903500023658300000000000000000201510150002001TECNOGLASS S.A                                    C000000001011700000000000000000000100010010000000000000000000000F0010000007755200420151015000101 00000000000000000000000000000000000000000000000000000000000000000000000000000000000000000000000000000000000000000N 00000000000NCONT   00    00000000000          00000000000000000000000000000000000000000000 000000000000000A000000000000000000000000000000000000000000000 000000000000000000000000000000000000000     00000000                                                                                                                        000000000000000000
F0010000007755200005000080022903500013552100000000000000000201510150002001TECNOGLASS S.A                                    D000000001011700000000000000000000100010010000000000000000000000F0010000007755200520151015000101 00000000000000000000000000000000000000000000000000000000000000000000000000000000000000000000000000000000000000000N 00000000000NCONT   00    00000000000          00000000000000000000000000000000000000000000 000000000000000A000000000000000000000000000000000000000000000 000000000000000000000000000000000000000     00000000                                                                                                                        000000000000000000
F0010000007755300001000080002300200013050500000000000000000201510150002001DISREL S.A.                                       D000000017450000000000000000000000100010010000000000000000000000F0010000007755300120151015000101 00000000000000000000000000000000000000000000000000000000000000000000000000000000000000000000000000000000000000000N 00000000000NCONT   00    00000000000          00000000000000000000000000000000000000000000 000000000000000A000000000000000000000000000000000000000000000 000000000000000000000000000000000000000     00000000                                                                                                                        000000000000000000
F0010000007755300002000080002300200041450500000000000000000201510150002001DISREL S.A.                                       C000000013960000000000000000000000100010010000000000000000000000F0010000007755300220151015000101 00000000000000000000000000000000000000000000000000000000000000000000000000000000000000000000000000000000000000000N 00000000000NCONT   00    00000000000          00000000000000000000000000000000000000000000 000000000000000A000000000000000000000000000000000000000000000 000000000000000000000000000000000000000     00000000                                                                                                                        000000000000000000
F0010000007755300003000080002300200042505000000000000000000201510150002001DISREL S.A.                                       C000000003490000000000000000000000100010010000000000000000000000F0010000007755300320151015000101 00000000000000000000000000000000000000000000000000000000000000000000000000000000000000000000000000000000000000000N 00000000000NCONT   00    00000000000          00000000000000000000000000000000000000000000 000000000000000A000000000000000000000000000000000000000000000 000000000000000000000000000000000000000     00000000                                                                                                                        000000000000000000
F0010000007755300004000080002300200023658300000000000000000201510150002001DISREL S.A.                                       C000000000111700000000000000000000100010010000000000000000000000F0010000007755300420151015000101 00000000000000000000000000000000000000000000000000000000000000000000000000000000000000000000000000000000000000000N 00000000000NCONT   00    00000000000          00000000000000000000000000000000000000000000 000000000000000A000000000000000000000000000000000000000000000 000000000000000000000000000000000000000     00000000                                                                                                                        000000000000000000
F0010000007755300005000080002300200013552100000000000000000201510150002001DISREL S.A.                                       D000000000111700000000000000000000100010010000000000000000000000F0010000007755300520151015000101 00000000000000000000000000000000000000000000000000000000000000000000000000000000000000000000000000000000000000000N 00000000000NCONT   00    00000000000          00000000000000000000000000000000000000000000 000000000000000A000000000000000000000000000000000000000000000 000000000000000000000000000000000000000     00000000                                                                                                                        000000000000000000
F0010000007755500001000080200250700013050500000000000000000201510150002001ETICOL SAS                                        D000000081350000000000000000000000100010010000000000000000000000F0010000007755500120151015000101 00000000000000000000000000000000000000000000000000000000000000000000000000000000000000000000000000000000000000000N 00000000000NCONT   00    00000000000          00000000000000000000000000000000000000000000 000000000000000A000000000000000000000000000000000000000000000 000000000000000000000000000000000000000     00000000                                                                                                                        000000000000000000
F0010000007755500002000080200250700041450500000000000000000201510150002001ETICOL SAS                                        C000000078850000000000000000000000100010010000000000000000000000F0010000007755500220151015000101 00000000000000000000000000000000000000000000000000000000000000000000000000000000000000000000000000000000000000000N 00000000000NCONT   00    00000000000          00000000000000000000000000000000000000000000 000000000000000A000000000000000000000000000000000000000000000 000000000000000000000000000000000000000     00000000                                                                                                                        000000000000000000
F0010000007755500003000080200250700042505000000000000000000201510150002001ETICOL SAS                                        C000000002500000000000000000000000100010010000000000000000000000F0010000007755500320151015000101 00000000000000000000000000000000000000000000000000000000000000000000000000000000000000000000000000000000000000000N 00000000000NCONT   00    00000000000          00000000000000000000000000000000000000000000 000000000000000A000000000000000000000000000000000000000000000 000000000000000000000000000000000000000     00000000                                                                                                                        000000000000000000
F0010000007755500004000080200250700023658300000000000000000201510150002001ETICOL SAS                                        C000000000630800000000000000000000100010010000000000000000000000F0010000007755500420151015000101 00000000000000000000000000000000000000000000000000000000000000000000000000000000000000000000000000000000000000000N 00000000000NCONT   00    00000000000          00000000000000000000000000000000000000000000 000000000000000A000000000000000000000000000000000000000000000 000000000000000000000000000000000000000     00000000                                                                                                                        000000000000000000
F0010000007755500005000080200250700013552100000000000000000201510150002001ETICOL SAS                                        D000000000630800000000000000000000100010010000000000000000000000F0010000007755500520151015000101 00000000000000000000000000000000000000000000000000000000000000000000000000000000000000000000000000000000000000000N 00000000000NCONT   00    00000000000          00000000000000000000000000000000000000000000 000000000000000A000000000000000000000000000000000000000000000 000000000000000000000000000000000000000     00000000                                                                                                                        000000000000000000
F0010000007755600001000080016664500013050500000000000000000201510150002001TELAPLAS PANCER SAS                               D000000044499700000000000000000000100010010000000000000000000000F0010000007755600120151015000101 00000000000000000000000000000000000000000000000000000000000000000000000000000000000000000000000000000000000000000N 00000000000NCONT   00    00000000000          00000000000000000000000000000000000000000000 000000000000000A000000000000000000000000000000000000000000000 000000000000000000000000000000000000000     00000000                                                                                                                        000000000000000000
F0010000007755600002000080016664500041450500000000000000000201510150002001TELAPLAS PANCER SAS                               C000000035719700000000000000000000100010010000000000000000000000F0010000007755600220151015000101 00000000000000000000000000000000000000000000000000000000000000000000000000000000000000000000000000000000000000000N 00000000000NCONT   00    00000000000          00000000000000000000000000000000000000000000 000000000000000A000000000000000000000000000000000000000000000 000000000000000000000000000000000000000     00000000                                                                                                                        000000000000000000
F0010000007755600003000080016664500042505000000000000000000201510150002001TELAPLAS PANCER SAS                               C000000008780000000000000000000000100010010000000000000000000000F0010000007755600320151015000101 00000000000000000000000000000000000000000000000000000000000000000000000000000000000000000000000000000000000000000N 00000000000NCONT   00    00000000000          00000000000000000000000000000000000000000000 000000000000000A000000000000000000000000000000000000000000000 000000000000000000000000000000000000000     00000000                                                                                                                        000000000000000000
F0010000007755600004000080016664500023658300000000000000000201510150002001TELAPLAS PANCER SAS                               C000000000285800000000000000000000100010010000000000000000000000F0010000007755600420151015000101 00000000000000000000000000000000000000000000000000000000000000000000000000000000000000000000000000000000000000000N 00000000000NCONT   00    00000000000          00000000000000000000000000000000000000000000 000000000000000A000000000000000000000000000000000000000000000 000000000000000000000000000000000000000     00000000                                                                                                                        000000000000000000
F0010000007755600005000080016664500013552100000000000000000201510150002001TELAPLAS PANCER SAS                               D000000000285800000000000000000000100010010000000000000000000000F0010000007755600520151015000101 00000000000000000000000000000000000000000000000000000000000000000000000000000000000000000000000000000000000000000N 00000000000NCONT   00    00000000000          00000000000000000000000000000000000000000000 000000000000000A000000000000000000000000000000000000000000000 000000000000000000000000000000000000000     00000000                                                                                                                        000000000000000000
F0010000007755700001000090064982900013050500000000000000000201510150002001DISDIES S.A.S                                     D000000103805400000000000000000000100010010000000000000000000000F0010000007755700120151015000101 00000000000000000000000000000000000000000000000000000000000000000000000000000000000000000000000000000000000000000N 00000000000NCONT   00    00000000000          00000000000000000000000000000000000000000000 000000000000000A000000000000000000000000000000000000000000000 000000000000000000000000000000000000000     00000000                                                                                                                        000000000000000000
F0010000007755700002000090064982900041450500000000000000000201510150002001DISDIES S.A.S                                     C000000094759800000000000000000000100010010000000000000000000000F0010000007755700220151015000101 00000000000000000000000000000000000000000000000000000000000000000000000000000000000000000000000000000000000000000N 00000000000NCONT   00    00000000000          00000000000000000000000000000000000000000000 000000000000000A000000000000000000000000000000000000000000000 000000000000000000000000000000000000000     00000000                                                                                                                        000000000000000000
F0010000007755700003000090064982900042505000000000000000000201510150002001DISDIES S.A.S                                     C000000009045600000000000000000000100010010000000000000000000000F0010000007755700320151015000101 00000000000000000000000000000000000000000000000000000000000000000000000000000000000000000000000000000000000000000N 00000000000NCONT   00    00000000000          00000000000000000000000000000000000000000000 000000000000000A000000000000000000000000000000000000000000000 000000000000000000000000000000000000000     00000000                                                                                                                        000000000000000000
F0010000007755700004000090064982900023658300000000000000000201510150002001DISDIES S.A.S                                     C000000000758100000000000000000000100010010000000000000000000000F0010000007755700420151015000101 00000000000000000000000000000000000000000000000000000000000000000000000000000000000000000000000000000000000000000N 00000000000NCONT   00    00000000000          00000000000000000000000000000000000000000000 000000000000000A000000000000000000000000000000000000000000000 000000000000000000000000000000000000000     00000000                                                                                                                        000000000000000000
F0010000007755700005000090064982900013552100000000000000000201510150002001DISDIES S.A.S                                     D000000000758100000000000000000000100010010000000000000000000000F0010000007755700520151015000101 00000000000000000000000000000000000000000000000000000000000000000000000000000000000000000000000000000000000000000N 00000000000NCONT   00    00000000000          00000000000000000000000000000000000000000000 000000000000000A000000000000000000000000000000000000000000000 000000000000000000000000000000000000000     00000000                                                                                                                        000000000000000000
F0010000007755800001000090037350200011050500000000000000000201510150002001JIMAR C Y J LTDA                                  D000000007000000000000000000000000100010010000000000000000000000F0010000007755800120151015000101 00000000000000000000000000000000000000000000000000000000000000000000000000000000000000000000000000000000000000000N 00000000000NCONT   00    00000000000          00000000000000000000000000000000000000000000 000000000000000A000000000000000000000000000000000000000000000 000000000000000000000000000000000000000     00000000                                                                                                                        000000000000000000
F0010000007755800002000090037350200041450500000000000000000201510150002001JIMAR C Y J LTDA                                  C000000006700000000000000000000000100010010000000000000000000000F0010000007755800220151015000101 00000000000000000000000000000000000000000000000000000000000000000000000000000000000000000000000000000000000000000N 00000000000NCONT   00    00000000000          00000000000000000000000000000000000000000000 000000000000000A000000000000000000000000000000000000000000000 000000000000000000000000000000000000000     00000000                                                                                                                        000000000000000000
F0010000007755800003000090037350200042505000000000000000000201510150002001JIMAR C Y J LTDA                                  C000000000300000000000000000000000100010010000000000000000000000F0010000007755800320151015000101 00000000000000000000000000000000000000000000000000000000000000000000000000000000000000000000000000000000000000000N 00000000000NCONT   00    00000000000          00000000000000000000000000000000000000000000 000000000000000A000000000000000000000000000000000000000000000 000000000000000000000000000000000000000     00000000                                                                                                                        000000000000000000
F0010000007755800004000090037350200023658300000000000000000201510150002001JIMAR C Y J LTDA                                  C000000000053600000000000000000000100010010000000000000000000000F0010000007755800420151015000101 00000000000000000000000000000000000000000000000000000000000000000000000000000000000000000000000000000000000000000N 00000000000NCONT   00    00000000000          00000000000000000000000000000000000000000000 000000000000000A000000000000000000000000000000000000000000000 000000000000000000000000000000000000000     00000000                                                                                                                        000000000000000000
F0010000007755800005000090037350200013552100000000000000000201510150002001JIMAR C Y J LTDA                                  D000000000053600000000000000000000100010010000000000000000000000F0010000007755800520151015000101 00000000000000000000000000000000000000000000000000000000000000000000000000000000000000000000000000000000000000000N 00000000000NCONT   00    00000000000          00000000000000000000000000000000000000000000 000000000000000A000000000000000000000000000000000000000000000 000000000000000000000000000000000000000     00000000                                                                                                                        000000000000000000
F0010000007755900001000090037350200011050500000000000000000201510150002001JIMAR C Y J LTDA                                  D000000007000000000000000000000000100010010000000000000000000000F0010000007755900120151015000101 00000000000000000000000000000000000000000000000000000000000000000000000000000000000000000000000000000000000000000N 00000000000NCONT   00    00000000000          00000000000000000000000000000000000000000000 000000000000000A000000000000000000000000000000000000000000000 000000000000000000000000000000000000000     00000000                                                                                                                        000000000000000000
F0010000007755900002000090037350200041450500000000000000000201510150002001JIMAR C Y J LTDA                                  C000000006600000000000000000000000100010010000000000000000000000F0010000007755900220151015000101 00000000000000000000000000000000000000000000000000000000000000000000000000000000000000000000000000000000000000000N 00000000000NCONT   00    00000000000          00000000000000000000000000000000000000000000 000000000000000A000000000000000000000000000000000000000000000 000000000000000000000000000000000000000     00000000                                                                                                                        000000000000000000
F0010000007755900003000090037350200042505000000000000000000201510150002001JIMAR C Y J LTDA                                  C000000000400000000000000000000000100010010000000000000000000000F0010000007755900320151015000101 00000000000000000000000000000000000000000000000000000000000000000000000000000000000000000000000000000000000000000N 00000000000NCONT   00    00000000000          00000000000000000000000000000000000000000000 000000000000000A000000000000000000000000000000000000000000000 000000000000000000000000000000000000000     00000000                                                                                                                        000000000000000000
F0010000007755900004000090037350200023658300000000000000000201510150002001JIMAR C Y J LTDA                                  C000000000052800000000000000000000100010010000000000000000000000F0010000007755900420151015000101 00000000000000000000000000000000000000000000000000000000000000000000000000000000000000000000000000000000000000000N 00000000000NCONT   00    00000000000          00000000000000000000000000000000000000000000 000000000000000A000000000000000000000000000000000000000000000 000000000000000000000000000000000000000     00000000                                                                                                                        000000000000000000
F0010000007755900005000090037350200013552100000000000000000201510150002001JIMAR C Y J LTDA                                  D000000000052800000000000000000000100010010000000000000000000000F0010000007755900520151015000101 00000000000000000000000000000000000000000000000000000000000000000000000000000000000000000000000000000000000000000N 00000000000NCONT   00    00000000000          00000000000000000000000000000000000000000000 000000000000000A000000000000000000000000000000000000000000000 000000000000000000000000000000000000000     00000000                                                                                                                        000000000000000000
F0010000007756000001000081103495500011050500000000000000000201510150002001PAQUETE EXPRESS S.A.                              D000000006800000000000000000000000100010010000000000000000000000F0010000007756000120151015000101 00000000000000000000000000000000000000000000000000000000000000000000000000000000000000000000000000000000000000000N 00000000000NCONT   00    00000000000          00000000000000000000000000000000000000000000 000000000000000A000000000000000000000000000000000000000000000 000000000000000000000000000000000000000     00000000                                                                                                                        000000000000000000
F0010000007756000002000081103495500041450500000000000000000201510150002001PAQUETE EXPRESS S.A.                              C000000006000000000000000000000000100010010000000000000000000000F0010000007756000220151015000101 00000000000000000000000000000000000000000000000000000000000000000000000000000000000000000000000000000000000000000N 00000000000NCONT   00    00000000000          00000000000000000000000000000000000000000000 000000000000000A000000000000000000000000000000000000000000000 000000000000000000000000000000000000000     00000000                                                                                                                        000000000000000000
F0010000007756000003000081103495500042505000000000000000000201510150002001PAQUETE EXPRESS S.A.                              C000000000800000000000000000000000100010010000000000000000000000F0010000007756000320151015000101 00000000000000000000000000000000000000000000000000000000000000000000000000000000000000000000000000000000000000000N 00000000000NCONT   00    00000000000          00000000000000000000000000000000000000000000 000000000000000A000000000000000000000000000000000000000000000 000000000000000000000000000000000000000     00000000                                                                                                                        000000000000000000
F0010000007756000004000081103495500023658300000000000000000201510150002001PAQUETE EXPRESS S.A.                              C000000000048000000000000000000000100010010000000000000000000000F0010000007756000420151015000101 00000000000000000000000000000000000000000000000000000000000000000000000000000000000000000000000000000000000000000N 00000000000NCONT   00    00000000000          00000000000000000000000000000000000000000000 000000000000000A000000000000000000000000000000000000000000000 000000000000000000000000000000000000000     00000000                                                                                                                        000000000000000000
F0010000007756000005000081103495500013552100000000000000000201510150002001PAQUETE EXPRESS S.A.                              D000000000048000000000000000000000100010010000000000000000000000F0010000007756000520151015000101 00000000000000000000000000000000000000000000000000000000000000000000000000000000000000000000000000000000000000000N 00000000000NCONT   00    00000000000          00000000000000000000000000000000000000000000 000000000000000A000000000000000000000000000000000000000000000 000000000000000000000000000000000000000     00000000                                                                                                                        000000000000000000
F0010000007756100001000083011391400013050500000000000000000201510150002001INSTITUCIONAL STAR SERVICES LTDA                  D000000015520000000000000000000000100010010000000000000000000000F0010000007756100120151015000101 00000000000000000000000000000000000000000000000000000000000000000000000000000000000000000000000000000000000000000N 00000000000NCONT   00    00000000000          00000000000000000000000000000000000000000000 000000000000000A000000000000000000000000000000000000000000000 000000000000000000000000000000000000000     00000000                                                                                                                        000000000000000000
F0010000007756100002000083011391400041450500000000000000000201510150002001INSTITUCIONAL STAR SERVICES LTDA                  C000000014720000000000000000000000100010010000000000000000000000F0010000007756100220151015000101 00000000000000000000000000000000000000000000000000000000000000000000000000000000000000000000000000000000000000000N 00000000000NCONT   00    00000000000          00000000000000000000000000000000000000000000 000000000000000A000000000000000000000000000000000000000000000 000000000000000000000000000000000000000     00000000                                                                                                                        000000000000000000
F0010000007756100003000083011391400042505000000000000000000201510150002001INSTITUCIONAL STAR SERVICES LTDA                  C000000000800000000000000000000000100010010000000000000000000000F0010000007756100320151015000101 00000000000000000000000000000000000000000000000000000000000000000000000000000000000000000000000000000000000000000N 00000000000NCONT   00    00000000000          00000000000000000000000000000000000000000000 000000000000000A000000000000000000000000000000000000000000000 000000000000000000000000000000000000000     00000000                                                                                                                        000000000000000000
F0010000007756100004000083011391400023658300000000000000000201510150002001INSTITUCIONAL STAR SERVICES LTDA                  C000000000117800000000000000000000100010010000000000000000000000F0010000007756100420151015000101 00000000000000000000000000000000000000000000000000000000000000000000000000000000000000000000000000000000000000000N 00000000000NCONT   00    00000000000          00000000000000000000000000000000000000000000 000000000000000A000000000000000000000000000000000000000000000 000000000000000000000000000000000000000     00000000                                                                                                                        000000000000000000
F0010000007756100005000083011391400013552100000000000000000201510150002001INSTITUCIONAL STAR SERVICES LTDA                  D000000000117800000000000000000000100010010000000000000000000000F0010000007756100520151015000101 00000000000000000000000000000000000000000000000000000000000000000000000000000000000000000000000000000000000000000N 00000000000NCONT   00    00000000000          00000000000000000000000000000000000000000000 000000000000000A000000000000000000000000000000000000000000000 000000000000000000000000000000000000000     00000000                                                                                                                        000000000000000000
F0010000007756200001000089190114700013050500000000000000000201510150002001SUPAPEL S.A.S                                     D000000022745600000000000000000000100010010000000000000000000000F0010000007756200120151015000101 00000000000000000000000000000000000000000000000000000000000000000000000000000000000000000000000000000000000000000N 00000000000NCONT   00    00000000000          00000000000000000000000000000000000000000000 000000000000000A000000000000000000000000000000000000000000000 000000000000000000000000000000000000000     00000000                                                                                                                        000000000000000000
F0010000007756200002000089190114700041450500000000000000000201510150002001SUPAPEL S.A.S                                     C000000020244000000000000000000000100010010000000000000000000000F0010000007756200220151015000101 00000000000000000000000000000000000000000000000000000000000000000000000000000000000000000000000000000000000000000N 00000000000NCONT   00    00000000000          00000000000000000000000000000000000000000000 000000000000000A000000000000000000000000000000000000000000000 000000000000000000000000000000000000000     00000000                                                                                                                        000000000000000000
F0010000007756200003000089190114700042505000000000000000000201510150002001SUPAPEL S.A.S                                     C000000002501600000000000000000000100010010000000000000000000000F0010000007756200320151015000101 00000000000000000000000000000000000000000000000000000000000000000000000000000000000000000000000000000000000000000N 00000000000NCONT   00    00000000000          00000000000000000000000000000000000000000000 000000000000000A000000000000000000000000000000000000000000000 000000000000000000000000000000000000000     00000000                                                                                                                        000000000000000000
F0010000007756200004000089190114700023658300000000000000000201510150002001SUPAPEL S.A.S                                     C000000000162000000000000000000000100010010000000000000000000000F0010000007756200420151015000101 00000000000000000000000000000000000000000000000000000000000000000000000000000000000000000000000000000000000000000N 00000000000NCONT   00    00000000000          00000000000000000000000000000000000000000000 000000000000000A000000000000000000000000000000000000000000000 000000000000000000000000000000000000000     00000000                                                                                                                        000000000000000000
F0010000007756200005000089190114700013552100000000000000000201510150002001SUPAPEL S.A.S                                     D000000000162000000000000000000000100010010000000000000000000000F0010000007756200520151015000101 00000000000000000000000000000000000000000000000000000000000000000000000000000000000000000000000000000000000000000N 00000000000NCONT   00    00000000000          00000000000000000000000000000000000000000000 000000000000000A000000000000000000000000000000000000000000000 000000000000000000000000000000000000000     00000000                                                                                                                        000000000000000000
F0010000007756300001000089080078800013050500000000000000000201510150002001SUMATEC SA                                        D000000011592500000000000000000000100010010000000000000000000000F0010000007756300120151015000101 00000000000000000000000000000000000000000000000000000000000000000000000000000000000000000000000000000000000000000N 00000000000NCONT   00    00000000000          00000000000000000000000000000000000000000000 000000000000000A000000000000000000000000000000000000000000000 000000000000000000000000000000000000000     00000000                                                                                                                        000000000000000000
F0010000007756300002000089080078800041450500000000000000000201510150002001SUMATEC SA                                        C000000010120000000000000000000000100010010000000000000000000000F0010000007756300220151015000101 00000000000000000000000000000000000000000000000000000000000000000000000000000000000000000000000000000000000000000N 00000000000NCONT   00    00000000000          00000000000000000000000000000000000000000000 000000000000000A000000000000000000000000000000000000000000000 000000000000000000000000000000000000000     00000000                                                                                                                        000000000000000000
F0010000007756300003000089080078800042505000000000000000000201510150002001SUMATEC SA                                        C000000001472500000000000000000000100010010000000000000000000000F0010000007756300320151015000101 00000000000000000000000000000000000000000000000000000000000000000000000000000000000000000000000000000000000000000N 00000000000NCONT   00    00000000000          00000000000000000000000000000000000000000000 000000000000000A000000000000000000000000000000000000000000000 000000000000000000000000000000000000000     00000000                                                                                                                        000000000000000000
F0010000007756300004000089080078800023658300000000000000000201510150002001SUMATEC SA                                        C000000000081000000000000000000000100010010000000000000000000000F0010000007756300420151015000101 00000000000000000000000000000000000000000000000000000000000000000000000000000000000000000000000000000000000000000N 00000000000NCONT   00    00000000000          00000000000000000000000000000000000000000000 000000000000000A000000000000000000000000000000000000000000000 000000000000000000000000000000000000000     00000000                                                                                                                        000000000000000000
F0010000007756300005000089080078800013552100000000000000000201510150002001SUMATEC SA                                        D000000000081000000000000000000000100010010000000000000000000000F0010000007756300520151015000101 00000000000000000000000000000000000000000000000000000000000000000000000000000000000000000000000000000000000000000N 00000000000NCONT   00    00000000000          00000000000000000000000000000000000000000000 000000000000000A000000000000000000000000000000000000000000000 000000000000000000000000000000000000000     00000000                                                                                                                        000000000000000000
F0010000007756400001000080004943800013050500000000000000000201510150002001PAPELERIA EL CID S.A.                             D000000041389500000000000000000000100010010000000000000000000000F0010000007756400120151015000101 00000000000000000000000000000000000000000000000000000000000000000000000000000000000000000000000000000000000000000N 00000000000NCONT   00    00000000000          00000000000000000000000000000000000000000000 000000000000000A000000000000000000000000000000000000000000000 000000000000000000000000000000000000000     00000000                                                                                                                        000000000000000000
F0010000007756400002000080004943800041450500000000000000000201510150002001PAPELERIA EL CID S.A.                             C000000031234500000000000000000000100010010000000000000000000000F0010000007756400220151015000101 00000000000000000000000000000000000000000000000000000000000000000000000000000000000000000000000000000000000000000N 00000000000NCONT   00    00000000000          00000000000000000000000000000000000000000000 000000000000000A000000000000000000000000000000000000000000000 000000000000000000000000000000000000000     00000000                                                                                                                        000000000000000000
F0010000007756400003000080004943800042505000000000000000000201510150002001PAPELERIA EL CID S.A.                             C000000010155000000000000000000000100010010000000000000000000000F0010000007756400320151015000101 00000000000000000000000000000000000000000000000000000000000000000000000000000000000000000000000000000000000000000N 00000000000NCONT   00    00000000000          00000000000000000000000000000000000000000000 000000000000000A000000000000000000000000000000000000000000000 000000000000000000000000000000000000000     00000000                                                                                                                        000000000000000000
F0010000007756400004000080004943800023658300000000000000000201510150002001PAPELERIA EL CID S.A.                             C000000000249900000000000000000000100010010000000000000000000000F0010000007756400420151015000101 00000000000000000000000000000000000000000000000000000000000000000000000000000000000000000000000000000000000000000N 00000000000NCONT   00    00000000000          00000000000000000000000000000000000000000000 000000000000000A000000000000000000000000000000000000000000000 000000000000000000000000000000000000000     00000000                                                                                                                        000000000000000000
F0010000007756400005000080004943800013552100000000000000000201510150002001PAPELERIA EL CID S.A.                             D000000000249900000000000000000000100010010000000000000000000000F0010000007756400520151015000101 00000000000000000000000000000000000000000000000000000000000000000000000000000000000000000000000000000000000000000N 00000000000NCONT   00    00000000000          00000000000000000000000000000000000000000000 000000000000000A000000000000000000000000000000000000000000000 000000000000000000000000000000000000000     00000000                                                                                                                        000000000000000000
F0010000007756500001000080004943800013050500000000000000000201510150002001PAPELERIA EL CID S.A.                             D000000038402500000000000000000000100010010000000000000000000000F0010000007756500120151015000101 00000000000000000000000000000000000000000000000000000000000000000000000000000000000000000000000000000000000000000N 00000000000NCONT   00    00000000000          00000000000000000000000000000000000000000000 000000000000000A000000000000000000000000000000000000000000000 000000000000000000000000000000000000000     00000000                                                                                                                        000000000000000000
F0010000007756500002000080004943800041450500000000000000000201510150002001PAPELERIA EL CID S.A.                             C000000031435000000000000000000000100010010000000000000000000000F0010000007756500220151015000101 00000000000000000000000000000000000000000000000000000000000000000000000000000000000000000000000000000000000000000N 00000000000NCONT   00    00000000000          00000000000000000000000000000000000000000000 000000000000000A000000000000000000000000000000000000000000000 000000000000000000000000000000000000000     00000000                                                                                                                        000000000000000000
F0010000007756500003000080004943800042505000000000000000000201510150002001PAPELERIA EL CID S.A.                             C000000006967500000000000000000000100010010000000000000000000000F0010000007756500320151015000101 00000000000000000000000000000000000000000000000000000000000000000000000000000000000000000000000000000000000000000N 00000000000NCONT   00    00000000000          00000000000000000000000000000000000000000000 000000000000000A000000000000000000000000000000000000000000000 000000000000000000000000000000000000000     00000000                                                                                                                        000000000000000000
F0010000007756500004000080004943800023658300000000000000000201510150002001PAPELERIA EL CID S.A.                             C000000000251500000000000000000000100010010000000000000000000000F0010000007756500420151015000101 00000000000000000000000000000000000000000000000000000000000000000000000000000000000000000000000000000000000000000N 00000000000NCONT   00    00000000000          00000000000000000000000000000000000000000000 000000000000000A000000000000000000000000000000000000000000000 000000000000000000000000000000000000000     00000000                                                                                                                        000000000000000000
F0010000007756500005000080004943800013552100000000000000000201510150002001PAPELERIA EL CID S.A.                             D000000000251500000000000000000000100010010000000000000000000000F0010000007756500520151015000101 00000000000000000000000000000000000000000000000000000000000000000000000000000000000000000000000000000000000000000N 00000000000NCONT   00    00000000000          00000000000000000000000000000000000000000000 000000000000000A000000000000000000000000000000000000000000000 000000000000000000000000000000000000000     00000000                                                                                                                        000000000000000000
F0010000007756600001000080201112800013050500000000000000000201510150002001CANGURO INTERNATIONAL S.A.                        D000000105662200000000000000000000100010010000000000000000000000F0010000007756600120151015000101 00000000000000000000000000000000000000000000000000000000000000000000000000000000000000000000000000000000000000000N 00000000000NCONT   00    00000000000          00000000000000000000000000000000000000000000 000000000000000A000000000000000000000000000000000000000000000 000000000000000000000000000000000000000     00000000                                                                                                                        000000000000000000
F0010000007756600002000080201112800041450500000000000000000201510150002001CANGURO INTERNATIONAL S.A.                        C000000104860500000000000000000000100010010000000000000000000000F0010000007756600220151015000101 00000000000000000000000000000000000000000000000000000000000000000000000000000000000000000000000000000000000000000N 00000000000NCONT   00    00000000000          00000000000000000000000000000000000000000000 000000000000000A000000000000000000000000000000000000000000000 000000000000000000000000000000000000000     00000000                                                                                                                        000000000000000000
F0010000007756600003000080201112800042505000000000000000000201510150002001CANGURO INTERNATIONAL S.A.                        C000000000801700000000000000000000100010010000000000000000000000F0010000007756600320151015000101 00000000000000000000000000000000000000000000000000000000000000000000000000000000000000000000000000000000000000000N 00000000000NCONT   00    00000000000          00000000000000000000000000000000000000000000 000000000000000A000000000000000000000000000000000000000000000 000000000000000000000000000000000000000     00000000                                                                                                                        000000000000000000
F0010000007756600004000080201112800023658300000000000000000201510150002001CANGURO INTERNATIONAL S.A.                        C000000000838900000000000000000000100010010000000000000000000000F0010000007756600420151015000101 00000000000000000000000000000000000000000000000000000000000000000000000000000000000000000000000000000000000000000N 00000000000NCONT   00    00000000000          00000000000000000000000000000000000000000000 000000000000000A000000000000000000000000000000000000000000000 000000000000000000000000000000000000000     00000000                                                                                                                        000000000000000000
F0010000007756600005000080201112800013552100000000000000000201510150002001CANGURO INTERNATIONAL S.A.                        D000000000838900000000000000000000100010010000000000000000000000F0010000007756600520151015000101 00000000000000000000000000000000000000000000000000000000000000000000000000000000000000000000000000000000000000000N 00000000000NCONT   00    00000000000          00000000000000000000000000000000000000000000 000000000000000A000000000000000000000000000000000000000000000 000000000000000000000000000000000000000     00000000                                                                                                                        000000000000000000
F0010000007756700001000080201112800013050500000000000000000201510150002001CANGURO INTERNATIONAL S.A.                        D000000147502400000000000000000000100010010000000000000000000000F0010000007756700120151015000101 00000000000000000000000000000000000000000000000000000000000000000000000000000000000000000000000000000000000000000N 00000000000NCONT   00    00000000000          00000000000000000000000000000000000000000000 000000000000000A000000000000000000000000000000000000000000000 000000000000000000000000000000000000000     00000000                                                                                                                        000000000000000000
F0010000007756700002000080201112800041450500000000000000000201510150002001CANGURO INTERNATIONAL S.A.                        C000000142035400000000000000000000100010010000000000000000000000F0010000007756700220151015000101 00000000000000000000000000000000000000000000000000000000000000000000000000000000000000000000000000000000000000000N 00000000000NCONT   00    00000000000          00000000000000000000000000000000000000000000 000000000000000A000000000000000000000000000000000000000000000 000000000000000000000000000000000000000     00000000                                                                                                                        000000000000000000
F0010000007756700003000080201112800042505000000000000000000201510150002001CANGURO INTERNATIONAL S.A.                        C000000005467000000000000000000000100010010000000000000000000000F0010000007756700320151015000101 00000000000000000000000000000000000000000000000000000000000000000000000000000000000000000000000000000000000000000N 00000000000NCONT   00    00000000000          00000000000000000000000000000000000000000000 000000000000000A000000000000000000000000000000000000000000000 000000000000000000000000000000000000000     00000000                                                                                                                        000000000000000000
F0010000007756700004000080201112800023658300000000000000000201510150002001CANGURO INTERNATIONAL S.A.                        C000000001136300000000000000000000100010010000000000000000000000F0010000007756700420151015000101 00000000000000000000000000000000000000000000000000000000000000000000000000000000000000000000000000000000000000000N 00000000000NCONT   00    00000000000          00000000000000000000000000000000000000000000 000000000000000A000000000000000000000000000000000000000000000 000000000000000000000000000000000000000     00000000                                                                                                                        000000000000000000
F0010000007756700005000080201112800013552100000000000000000201510150002001CANGURO INTERNATIONAL S.A.                        D000000001136300000000000000000000100010010000000000000000000000F0010000007756700520151015000101 00000000000000000000000000000000000000000000000000000000000000000000000000000000000000000000000000000000000000000N 00000000000NCONT   00    00000000000          00000000000000000000000000000000000000000000 000000000000000A000000000000000000000000000000000000000000000 000000000000000000000000000000000000000     00000000                                                                                                                        000000000000000000
F0010000007756800001000080201112800013050500000000000000000201510150002001CANGURO INTERNATIONAL S.A.                        D000000010164200000000000000000000100010010000000000000000000000F0010000007756800120151015000101 00000000000000000000000000000000000000000000000000000000000000000000000000000000000000000000000000000000000000000N 00000000000NCONT   00    00000000000          00000000000000000000000000000000000000000000 000000000000000A000000000000000000000000000000000000000000000 000000000000000000000000000000000000000     00000000                                                                                                                        000000000000000000
F0010000007756800002000080201112800041450500000000000000000201510150002001CANGURO INTERNATIONAL S.A.                        C000000010164200000000000000000000100010010000000000000000000000F0010000007756800220151015000101 00000000000000000000000000000000000000000000000000000000000000000000000000000000000000000000000000000000000000000N 00000000000NCONT   00    00000000000          00000000000000000000000000000000000000000000 000000000000000A000000000000000000000000000000000000000000000 000000000000000000000000000000000000000     00000000                                                                                                                        000000000000000000
F0010000007756800003000080201112800042505000000000000000000201510150002001CANGURO INTERNATIONAL S.A.                        C000000000000000000000000000000000100010010000000000000000000000F0010000007756800320151015000101 00000000000000000000000000000000000000000000000000000000000000000000000000000000000000000000000000000000000000000N 00000000000NCONT   00    00000000000          00000000000000000000000000000000000000000000 000000000000000A000000000000000000000000000000000000000000000 000000000000000000000000000000000000000     00000000                                                                                                                        000000000000000000
F0010000007756800004000080201112800023658300000000000000000201510150002001CANGURO INTERNATIONAL S.A.                        C000000000081300000000000000000000100010010000000000000000000000F0010000007756800420151015000101 00000000000000000000000000000000000000000000000000000000000000000000000000000000000000000000000000000000000000000N 00000000000NCONT   00    00000000000          00000000000000000000000000000000000000000000 000000000000000A000000000000000000000000000000000000000000000 000000000000000000000000000000000000000     00000000                                                                                                                        000000000000000000
F0010000007756800005000080201112800013552100000000000000000201510150002001CANGURO INTERNATIONAL S.A.                        D000000000081300000000000000000000100010010000000000000000000000F0010000007756800520151015000101 00000000000000000000000000000000000000000000000000000000000000000000000000000000000000000000000000000000000000000N 00000000000NCONT   00    00000000000          00000000000000000000000000000000000000000000 000000000000000A000000000000000000000000000000000000000000000 000000000000000000000000000000000000000     00000000                                                                                                                        000000000000000000
F0010000007756900001000089010260300013050500000000000000000201510150002001FEDERICO OSORIO A. S.A.                           D000000119060700000000000000000000100010010000000000000000000000F0010000007756900120151015000101 00000000000000000000000000000000000000000000000000000000000000000000000000000000000000000000000000000000000000000N 00000000000NCONT   00    00000000000          00000000000000000000000000000000000000000000 000000000000000A000000000000000000000000000000000000000000000 000000000000000000000000000000000000000     00000000                                                                                                                        000000000000000000
F0010000007756900002000089010260300041450500000000000000000201510150002001FEDERICO OSORIO A. S.A.                           C000000110530000000000000000000000100010010000000000000000000000F0010000007756900220151015000101 00000000000000000000000000000000000000000000000000000000000000000000000000000000000000000000000000000000000000000N 00000000000NCONT   00    00000000000          00000000000000000000000000000000000000000000 000000000000000A000000000000000000000000000000000000000000000 000000000000000000000000000000000000000     00000000                                                                                                                        000000000000000000
F0010000007756900003000089010260300042505000000000000000000201510150002001FEDERICO OSORIO A. S.A.                           C000000008530700000000000000000000100010010000000000000000000000F0010000007756900320151015000101 00000000000000000000000000000000000000000000000000000000000000000000000000000000000000000000000000000000000000000N 00000000000NCONT   00    00000000000          00000000000000000000000000000000000000000000 000000000000000A000000000000000000000000000000000000000000000 000000000000000000000000000000000000000     00000000                                                                                                                        000000000000000000
F0010000007756900004000089010260300023658300000000000000000201510150002001FEDERICO OSORIO A. S.A.                           C000000000884200000000000000000000100010010000000000000000000000F0010000007756900420151015000101 00000000000000000000000000000000000000000000000000000000000000000000000000000000000000000000000000000000000000000N 00000000000NCONT   00    00000000000          00000000000000000000000000000000000000000000 000000000000000A000000000000000000000000000000000000000000000 000000000000000000000000000000000000000     00000000                                                                                                                        000000000000000000
F0010000007756900005000089010260300013552100000000000000000201510150002001FEDERICO OSORIO A. S.A.                           D000000000884200000000000000000000100010010000000000000000000000F0010000007756900520151015000101 00000000000000000000000000000000000000000000000000000000000000000000000000000000000000000000000000000000000000000N 00000000000NCONT   00    00000000000          00000000000000000000000000000000000000000000 000000000000000A000000000000000000000000000000000000000000000 000000000000000000000000000000000000000     00000000                                                                                                                        000000000000000000
F0010000007757000001000089010260300013050500000000000000000201510150002001FEDERICO OSORIO A. S.A.                           D000000101554000000000000000000000100010010000000000000000000000F0010000007757000120151015000101 00000000000000000000000000000000000000000000000000000000000000000000000000000000000000000000000000000000000000000N 00000000000NCONT   00    00000000000          00000000000000000000000000000000000000000000 000000000000000A000000000000000000000000000000000000000000000 000000000000000000000000000000000000000     00000000                                                                                                                        000000000000000000
F0010000007757000002000089010260300041450500000000000000000201510150002001FEDERICO OSORIO A. S.A.                           C000000094930000000000000000000000100010010000000000000000000000F0010000007757000220151015000101 00000000000000000000000000000000000000000000000000000000000000000000000000000000000000000000000000000000000000000N 00000000000NCONT   00    00000000000          00000000000000000000000000000000000000000000 000000000000000A000000000000000000000000000000000000000000000 000000000000000000000000000000000000000     00000000                                                                                                                        000000000000000000
F0010000007757000003000089010260300042505000000000000000000201510150002001FEDERICO OSORIO A. S.A.                           C000000006624000000000000000000000100010010000000000000000000000F0010000007757000320151015000101 00000000000000000000000000000000000000000000000000000000000000000000000000000000000000000000000000000000000000000N 00000000000NCONT   00    00000000000          00000000000000000000000000000000000000000000 000000000000000A000000000000000000000000000000000000000000000 000000000000000000000000000000000000000     00000000                                                                                                                        000000000000000000
F0010000007757000004000089010260300023658300000000000000000201510150002001FEDERICO OSORIO A. S.A.                           C000000000759400000000000000000000100010010000000000000000000000F0010000007757000420151015000101 00000000000000000000000000000000000000000000000000000000000000000000000000000000000000000000000000000000000000000N 00000000000NCONT   00    00000000000          00000000000000000000000000000000000000000000 000000000000000A000000000000000000000000000000000000000000000 000000000000000000000000000000000000000     00000000                                                                                                                        000000000000000000
F0010000007757000005000089010260300013552100000000000000000201510150002001FEDERICO OSORIO A. S.A.                           D000000000759400000000000000000000100010010000000000000000000000F0010000007757000520151015000101 00000000000000000000000000000000000000000000000000000000000000000000000000000000000000000000000000000000000000000N 00000000000NCONT   00    00000000000          00000000000000000000000000000000000000000000 000000000000000A000000000000000000000000000000000000000000000 000000000000000000000000000000000000000     00000000                                                                                                                        000000000000000000
F0010000007757100001000080200049600011050500000000000000000201510150002001FAMAPAN DEL CARIBE                                D000000002500000000000000000000000100010010000000000000000000000F0010000007757100120151015000101 00000000000000000000000000000000000000000000000000000000000000000000000000000000000000000000000000000000000000000N 00000000000NCONT   00    00000000000          00000000000000000000000000000000000000000000 000000000000000A000000000000000000000000000000000000000000000 000000000000000000000000000000000000000     00000000                                                                                                                        000000000000000000
F0010000007757100002000080200049600041450500000000000000000201510150002001FAMAPAN DEL CARIBE                                C000000002000000000000000000000000100010010000000000000000000000F0010000007757100220151015000101 00000000000000000000000000000000000000000000000000000000000000000000000000000000000000000000000000000000000000000N 00000000000NCONT   00    00000000000          00000000000000000000000000000000000000000000 000000000000000A000000000000000000000000000000000000000000000 000000000000000000000000000000000000000     00000000                                                                                                                        000000000000000000
F0010000007757100003000080200049600042505000000000000000000201510150002001FAMAPAN DEL CARIBE                                C000000000500000000000000000000000100010010000000000000000000000F0010000007757100320151015000101 00000000000000000000000000000000000000000000000000000000000000000000000000000000000000000000000000000000000000000N 00000000000NCONT   00    00000000000          00000000000000000000000000000000000000000000 000000000000000A000000000000000000000000000000000000000000000 000000000000000000000000000000000000000     00000000                                                                                                                        000000000000000000
F0010000007757100004000080200049600023658300000000000000000201510150002001FAMAPAN DEL CARIBE                                C000000000016000000000000000000000100010010000000000000000000000F0010000007757100420151015000101 00000000000000000000000000000000000000000000000000000000000000000000000000000000000000000000000000000000000000000N 00000000000NCONT   00    00000000000          00000000000000000000000000000000000000000000 000000000000000A000000000000000000000000000000000000000000000 000000000000000000000000000000000000000     00000000                                                                                                                        000000000000000000
F0010000007757100005000080200049600013552100000000000000000201510150002001FAMAPAN DEL CARIBE                                D000000000016000000000000000000000100010010000000000000000000000F0010000007757100520151015000101 00000000000000000000000000000000000000000000000000000000000000000000000000000000000000000000000000000000000000000N 00000000000NCONT   00    00000000000          00000000000000000000000000000000000000000000 000000000000000A000000000000000000000000000000000000000000000 000000000000000000000000000000000000000     00000000                                                                                                                        000000000000000000
F0010000007757200001000090053611800011050500000000000000000201510150002001PELETERIA COSTA CARIBE S.A .S                     D000000003221400000000000000000000100010010000000000000000000000F0010000007757200120151015000101 00000000000000000000000000000000000000000000000000000000000000000000000000000000000000000000000000000000000000000N 00000000000NCONT   00    00000000000          00000000000000000000000000000000000000000000 000000000000000A000000000000000000000000000000000000000000000 000000000000000000000000000000000000000     00000000                                                                                                                        000000000000000000
F0010000007757200002000090053611800041450500000000000000000201510150002001PELETERIA COSTA CARIBE S.A .S                     C000000002454400000000000000000000100010010000000000000000000000F0010000007757200220151015000101 00000000000000000000000000000000000000000000000000000000000000000000000000000000000000000000000000000000000000000N 00000000000NCONT   00    00000000000          00000000000000000000000000000000000000000000 000000000000000A000000000000000000000000000000000000000000000 000000000000000000000000000000000000000     00000000                                                                                                                        000000000000000000
F0010000007757200003000090053611800042505000000000000000000201510150002001PELETERIA COSTA CARIBE S.A .S                     C000000000767000000000000000000000100010010000000000000000000000F0010000007757200320151015000101 00000000000000000000000000000000000000000000000000000000000000000000000000000000000000000000000000000000000000000N 00000000000NCONT   00    00000000000          00000000000000000000000000000000000000000000 000000000000000A000000000000000000000000000000000000000000000 000000000000000000000000000000000000000     00000000                                                                                                                        000000000000000000
F0010000007757200004000090053611800023658300000000000000000201510150002001PELETERIA COSTA CARIBE S.A .S                     C000000000019600000000000000000000100010010000000000000000000000F0010000007757200420151015000101 00000000000000000000000000000000000000000000000000000000000000000000000000000000000000000000000000000000000000000N 00000000000NCONT   00    00000000000          00000000000000000000000000000000000000000000 000000000000000A000000000000000000000000000000000000000000000 000000000000000000000000000000000000000     00000000                                                                                                                        000000000000000000
F0010000007757200005000090053611800013552100000000000000000201510150002001PELETERIA COSTA CARIBE S.A .S                     D000000000019600000000000000000000100010010000000000000000000000F0010000007757200520151015000101 00000000000000000000000000000000000000000000000000000000000000000000000000000000000000000000000000000000000000000N 00000000000NCONT   00    00000000000          00000000000000000000000000000000000000000000 000000000000000A000000000000000000000000000000000000000000000 000000000000000000000000000000000000000     00000000                                                                                                                        000000000000000000
F0010000007757300001000007957099900011050500000000000000000201510150002001RUBEN GOMEZ                                       D000000008000000000000000000000000100010010000000000000000000000F0010000007757300120151015000101 00000000000000000000000000000000000000000000000000000000000000000000000000000000000000000000000000000000000000000N 00000000000NCONT   00    00000000000          00000000000000000000000000000000000000000000 000000000000000A000000000000000000000000000000000000000000000 000000000000000000000000000000000000000     00000000                                                                                                                        000000000000000000
F0010000007757300002000007957099900041450500000000000000000201510150002001RUBEN GOMEZ                                       C000000007300000000000000000000000100010010000000000000000000000F0010000007757300220151015000101 00000000000000000000000000000000000000000000000000000000000000000000000000000000000000000000000000000000000000000N 00000000000NCONT   00    00000000000          00000000000000000000000000000000000000000000 000000000000000A000000000000000000000000000000000000000000000 000000000000000000000000000000000000000     00000000                                                                                                                        000000000000000000
