F0010000008125600001000002245670100011050500000000000000000201601150002001YOLANDA  TOBON                                    D000000000710000000000000000000000100010010000000000000000000000F0010000008125600120160115000101 00000000000000000000000000000000000000000000000000000000000000000000000000000000000000000000000000000000000000000N 00000000000NCONT   00    00000000000          00000000000000000000000000000000000000000000 000000000000000A000000000000000000000000000000000000000000000 000000000000000000000000000000000000000     00000000                                                                                                                        000000000000000000
F0010000008125600002000002245670100041450500000000000000000201601150002001YOLANDA  TOBON                                    C000000000600000000000000000000000100010010000000000000000000000F0010000008125600220160115000101 00000000000000000000000000000000000000000000000000000000000000000000000000000000000000000000000000000000000000000N 00000000000NCONT   00    00000000000          00000000000000000000000000000000000000000000 000000000000000A000000000000000000000000000000000000000000000 000000000000000000000000000000000000000     00000000                                                                                                                        000000000000000000
F0010000008125600003000002245670100042505000000000000000000201601150002001YOLANDA  TOBON                                    C000000000110000000000000000000000100010010000000000000000000000F0010000008125600320160115000101 00000000000000000000000000000000000000000000000000000000000000000000000000000000000000000000000000000000000000000N 00000000000NCONT   00    00000000000          00000000000000000000000000000000000000000000 000000000000000A000000000000000000000000000000000000000000000 000000000000000000000000000000000000000     00000000                                                                                                                        000000000000000000
F0010000008125600004000002245670100023658300000000000000000201601150002001YOLANDA  TOBON                                    C000000000004800000000000000000000100010010000000000000000000000F0010000008125600420160115000101 00000000000000000000000000000000000000000000000000000000000000000000000000000000000000000000000000000000000000000N 00000000000NCONT   00    00000000000          00000000000000000000000000000000000000000000 000000000000000A000000000000000000000000000000000000000000000 000000000000000000000000000000000000000     00000000                                                                                                                        000000000000000000
F0010000008125600005000002245670100013552100000000000000000201601150002001YOLANDA  TOBON                                    D000000000004800000000000000000000100010010000000000000000000000F0010000008125600520160115000101 00000000000000000000000000000000000000000000000000000000000000000000000000000000000000000000000000000000000000000N 00000000000NCONT   00    00000000000          00000000000000000000000000000000000000000000 000000000000000A000000000000000000000000000000000000000000000 000000000000000000000000000000000000000     00000000                                                                                                                        000000000000000000
F0010000008125700001000002245670100011050500000000000000000201601150002001YOLANDA  TOBON                                    D000000008000000000000000000000000100010010000000000000000000000F0010000008125700120160115000101 00000000000000000000000000000000000000000000000000000000000000000000000000000000000000000000000000000000000000000N 00000000000NCONT   00    00000000000          00000000000000000000000000000000000000000000 000000000000000A000000000000000000000000000000000000000000000 000000000000000000000000000000000000000     00000000                                                                                                                        000000000000000000
F0010000008125700002000002245670100041450500000000000000000201601150002001YOLANDA  TOBON                                    C000000006200000000000000000000000100010010000000000000000000000F0010000008125700220160115000101 00000000000000000000000000000000000000000000000000000000000000000000000000000000000000000000000000000000000000000N 00000000000NCONT   00    00000000000          00000000000000000000000000000000000000000000 000000000000000A000000000000000000000000000000000000000000000 000000000000000000000000000000000000000     00000000                                                                                                                        000000000000000000
F0010000008125700003000002245670100042505000000000000000000201601150002001YOLANDA  TOBON                                    C000000001800000000000000000000000100010010000000000000000000000F0010000008125700320160115000101 00000000000000000000000000000000000000000000000000000000000000000000000000000000000000000000000000000000000000000N 00000000000NCONT   00    00000000000          00000000000000000000000000000000000000000000 000000000000000A000000000000000000000000000000000000000000000 000000000000000000000000000000000000000     00000000                                                                                                                        000000000000000000
F0010000008125700004000002245670100023658300000000000000000201601150002001YOLANDA  TOBON                                    C000000000049600000000000000000000100010010000000000000000000000F0010000008125700420160115000101 00000000000000000000000000000000000000000000000000000000000000000000000000000000000000000000000000000000000000000N 00000000000NCONT   00    00000000000          00000000000000000000000000000000000000000000 000000000000000A000000000000000000000000000000000000000000000 000000000000000000000000000000000000000     00000000                                                                                                                        000000000000000000
F0010000008125700005000002245670100013552100000000000000000201601150002001YOLANDA  TOBON                                    D000000000049600000000000000000000100010010000000000000000000000F0010000008125700520160115000101 00000000000000000000000000000000000000000000000000000000000000000000000000000000000000000000000000000000000000000N 00000000000NCONT   00    00000000000          00000000000000000000000000000000000000000000 000000000000000A000000000000000000000000000000000000000000000 000000000000000000000000000000000000000     00000000                                                                                                                        000000000000000000
F0010000008125800001000001325248300011050500000000000000000201601150002001LUBRICANTE LA 37                                  D000000003000000000000000000000000100010010000000000000000000000F0010000008125800120160115000101 00000000000000000000000000000000000000000000000000000000000000000000000000000000000000000000000000000000000000000N 00000000000NCONT   00    00000000000          00000000000000000000000000000000000000000000 000000000000000A000000000000000000000000000000000000000000000 000000000000000000000000000000000000000     00000000                                                                                                                        000000000000000000
F0010000008125800002000001325248300041450500000000000000000201601150002001LUBRICANTE LA 37                                  C000000002700000000000000000000000100010010000000000000000000000F0010000008125800220160115000101 00000000000000000000000000000000000000000000000000000000000000000000000000000000000000000000000000000000000000000N 00000000000NCONT   00    00000000000          00000000000000000000000000000000000000000000 000000000000000A000000000000000000000000000000000000000000000 000000000000000000000000000000000000000     00000000                                                                                                                        000000000000000000
F0010000008125800003000001325248300042505000000000000000000201601150002001LUBRICANTE LA 37                                  C000000000300000000000000000000000100010010000000000000000000000F0010000008125800320160115000101 00000000000000000000000000000000000000000000000000000000000000000000000000000000000000000000000000000000000000000N 00000000000NCONT   00    00000000000          00000000000000000000000000000000000000000000 000000000000000A000000000000000000000000000000000000000000000 000000000000000000000000000000000000000     00000000                                                                                                                        000000000000000000
F0010000008125800004000001325248300023658300000000000000000201601150002001LUBRICANTE LA 37                                  C000000000021600000000000000000000100010010000000000000000000000F0010000008125800420160115000101 00000000000000000000000000000000000000000000000000000000000000000000000000000000000000000000000000000000000000000N 00000000000NCONT   00    00000000000          00000000000000000000000000000000000000000000 000000000000000A000000000000000000000000000000000000000000000 000000000000000000000000000000000000000     00000000                                                                                                                        000000000000000000
F0010000008125800005000001325248300013552100000000000000000201601150002001LUBRICANTE LA 37                                  D000000000021600000000000000000000100010010000000000000000000000F0010000008125800520160115000101 00000000000000000000000000000000000000000000000000000000000000000000000000000000000000000000000000000000000000000N 00000000000NCONT   00    00000000000          00000000000000000000000000000000000000000000 000000000000000A000000000000000000000000000000000000000000000 000000000000000000000000000000000000000     00000000                                                                                                                        000000000000000000
F0010000008125900001000090020547900011050500000000000000000201601150002001COMERCIALIZADORA DAC DEL CARIBE S.A.S.            D000000003800000000000000000000000100010010000000000000000000000F0010000008125900120160115000101 00000000000000000000000000000000000000000000000000000000000000000000000000000000000000000000000000000000000000000N 00000000000NCONT   00    00000000000          00000000000000000000000000000000000000000000 000000000000000A000000000000000000000000000000000000000000000 000000000000000000000000000000000000000     00000000                                                                                                                        000000000000000000
F0010000008125900002000090020547900041450500000000000000000201601150002001COMERCIALIZADORA DAC DEL CARIBE S.A.S.            C000000003000000000000000000000000100010010000000000000000000000F0010000008125900220160115000101 00000000000000000000000000000000000000000000000000000000000000000000000000000000000000000000000000000000000000000N 00000000000NCONT   00    00000000000          00000000000000000000000000000000000000000000 000000000000000A000000000000000000000000000000000000000000000 000000000000000000000000000000000000000     00000000                                                                                                                        000000000000000000
F0010000008125900003000090020547900042505000000000000000000201601150002001COMERCIALIZADORA DAC DEL CARIBE S.A.S.            C000000000800000000000000000000000100010010000000000000000000000F0010000008125900320160115000101 00000000000000000000000000000000000000000000000000000000000000000000000000000000000000000000000000000000000000000N 00000000000NCONT   00    00000000000          00000000000000000000000000000000000000000000 000000000000000A000000000000000000000000000000000000000000000 000000000000000000000000000000000000000     00000000                                                                                                                        000000000000000000
F0010000008125900004000090020547900023658300000000000000000201601150002001COMERCIALIZADORA DAC DEL CARIBE S.A.S.            C000000000024000000000000000000000100010010000000000000000000000F0010000008125900420160115000101 00000000000000000000000000000000000000000000000000000000000000000000000000000000000000000000000000000000000000000N 00000000000NCONT   00    00000000000          00000000000000000000000000000000000000000000 000000000000000A000000000000000000000000000000000000000000000 000000000000000000000000000000000000000     00000000                                                                                                                        000000000000000000
F0010000008125900005000090020547900013552100000000000000000201601150002001COMERCIALIZADORA DAC DEL CARIBE S.A.S.            D000000000024000000000000000000000100010010000000000000000000000F0010000008125900520160115000101 00000000000000000000000000000000000000000000000000000000000000000000000000000000000000000000000000000000000000000N 00000000000NCONT   00    00000000000          00000000000000000000000000000000000000000000 000000000000000A000000000000000000000000000000000000000000000 000000000000000000000000000000000000000     00000000                                                                                                                        000000000000000000
F0010000008126000001000090020547900011050500000000000000000201601150002001COMERCIALIZADORA DAC DEL CARIBE S.A.S.            D000000003300000000000000000000000100010010000000000000000000000F0010000008126000120160115000101 00000000000000000000000000000000000000000000000000000000000000000000000000000000000000000000000000000000000000000N 00000000000NCONT   00    00000000000          00000000000000000000000000000000000000000000 000000000000000A000000000000000000000000000000000000000000000 000000000000000000000000000000000000000     00000000                                                                                                                        000000000000000000
F0010000008126000002000090020547900041450500000000000000000201601150002001COMERCIALIZADORA DAC DEL CARIBE S.A.S.            C000000002400000000000000000000000100010010000000000000000000000F0010000008126000220160115000101 00000000000000000000000000000000000000000000000000000000000000000000000000000000000000000000000000000000000000000N 00000000000NCONT   00    00000000000          00000000000000000000000000000000000000000000 000000000000000A000000000000000000000000000000000000000000000 000000000000000000000000000000000000000     00000000                                                                                                                        000000000000000000
F0010000008126000003000090020547900042505000000000000000000201601150002001COMERCIALIZADORA DAC DEL CARIBE S.A.S.            C000000000900000000000000000000000100010010000000000000000000000F0010000008126000320160115000101 00000000000000000000000000000000000000000000000000000000000000000000000000000000000000000000000000000000000000000N 00000000000NCONT   00    00000000000          00000000000000000000000000000000000000000000 000000000000000A000000000000000000000000000000000000000000000 000000000000000000000000000000000000000     00000000                                                                                                                        000000000000000000
F0010000008126000004000090020547900023658300000000000000000201601150002001COMERCIALIZADORA DAC DEL CARIBE S.A.S.            C000000000019200000000000000000000100010010000000000000000000000F0010000008126000420160115000101 00000000000000000000000000000000000000000000000000000000000000000000000000000000000000000000000000000000000000000N 00000000000NCONT   00    00000000000          00000000000000000000000000000000000000000000 000000000000000A000000000000000000000000000000000000000000000 000000000000000000000000000000000000000     00000000                                                                                                                        000000000000000000
F0010000008126000005000090020547900013552100000000000000000201601150002001COMERCIALIZADORA DAC DEL CARIBE S.A.S.            D000000000019200000000000000000000100010010000000000000000000000F0010000008126000520160115000101 00000000000000000000000000000000000000000000000000000000000000000000000000000000000000000000000000000000000000000N 00000000000NCONT   00    00000000000          00000000000000000000000000000000000000000000 000000000000000A000000000000000000000000000000000000000000000 000000000000000000000000000000000000000     00000000                                                                                                                        000000000000000000
F0010000008126100001000090020547900011050500000000000000000201601150002001COMERCIALIZADORA DAC DEL CARIBE S.A.S.            D000000003200000000000000000000000100010010000000000000000000000F0010000008126100120160115000101 00000000000000000000000000000000000000000000000000000000000000000000000000000000000000000000000000000000000000000N 00000000000NCONT   00    00000000000          00000000000000000000000000000000000000000000 000000000000000A000000000000000000000000000000000000000000000 000000000000000000000000000000000000000     00000000                                                                                                                        000000000000000000
F0010000008126100002000090020547900041450500000000000000000201601150002001COMERCIALIZADORA DAC DEL CARIBE S.A.S.            C000000002400000000000000000000000100010010000000000000000000000F0010000008126100220160115000101 00000000000000000000000000000000000000000000000000000000000000000000000000000000000000000000000000000000000000000N 00000000000NCONT   00    00000000000          00000000000000000000000000000000000000000000 000000000000000A000000000000000000000000000000000000000000000 000000000000000000000000000000000000000     00000000                                                                                                                        000000000000000000
F0010000008126100003000090020547900042505000000000000000000201601150002001COMERCIALIZADORA DAC DEL CARIBE S.A.S.            C000000000800000000000000000000000100010010000000000000000000000F0010000008126100320160115000101 00000000000000000000000000000000000000000000000000000000000000000000000000000000000000000000000000000000000000000N 00000000000NCONT   00    00000000000          00000000000000000000000000000000000000000000 000000000000000A000000000000000000000000000000000000000000000 000000000000000000000000000000000000000     00000000                                                                                                                        000000000000000000
F0010000008126100004000090020547900023658300000000000000000201601150002001COMERCIALIZADORA DAC DEL CARIBE S.A.S.            C000000000019200000000000000000000100010010000000000000000000000F0010000008126100420160115000101 00000000000000000000000000000000000000000000000000000000000000000000000000000000000000000000000000000000000000000N 00000000000NCONT   00    00000000000          00000000000000000000000000000000000000000000 000000000000000A000000000000000000000000000000000000000000000 000000000000000000000000000000000000000     00000000                                                                                                                        000000000000000000
F0010000008126100005000090020547900013552100000000000000000201601150002001COMERCIALIZADORA DAC DEL CARIBE S.A.S.            D000000000019200000000000000000000100010010000000000000000000000F0010000008126100520160115000101 00000000000000000000000000000000000000000000000000000000000000000000000000000000000000000000000000000000000000000N 00000000000NCONT   00    00000000000          00000000000000000000000000000000000000000000 000000000000000A000000000000000000000000000000000000000000000 000000000000000000000000000000000000000     00000000                                                                                                                        000000000000000000
F0010000008126200001000090020547900011050500000000000000000201601150002001COMERCIALIZADORA DAC DEL CARIBE S.A.S.            D000000001700000000000000000000000100010010000000000000000000000F0010000008126200120160115000101 00000000000000000000000000000000000000000000000000000000000000000000000000000000000000000000000000000000000000000N 00000000000NCONT   00    00000000000          00000000000000000000000000000000000000000000 000000000000000A000000000000000000000000000000000000000000000 000000000000000000000000000000000000000     00000000                                                                                                                        000000000000000000
F0010000008126200002000090020547900041450500000000000000000201601150002001COMERCIALIZADORA DAC DEL CARIBE S.A.S.            C000000001200000000000000000000000100010010000000000000000000000F0010000008126200220160115000101 00000000000000000000000000000000000000000000000000000000000000000000000000000000000000000000000000000000000000000N 00000000000NCONT   00    00000000000          00000000000000000000000000000000000000000000 000000000000000A000000000000000000000000000000000000000000000 000000000000000000000000000000000000000     00000000                                                                                                                        000000000000000000
F0010000008126200003000090020547900042505000000000000000000201601150002001COMERCIALIZADORA DAC DEL CARIBE S.A.S.            C000000000500000000000000000000000100010010000000000000000000000F0010000008126200320160115000101 00000000000000000000000000000000000000000000000000000000000000000000000000000000000000000000000000000000000000000N 00000000000NCONT   00    00000000000          00000000000000000000000000000000000000000000 000000000000000A000000000000000000000000000000000000000000000 000000000000000000000000000000000000000     00000000                                                                                                                        000000000000000000
F0010000008126200004000090020547900023658300000000000000000201601150002001COMERCIALIZADORA DAC DEL CARIBE S.A.S.            C000000000009600000000000000000000100010010000000000000000000000F0010000008126200420160115000101 00000000000000000000000000000000000000000000000000000000000000000000000000000000000000000000000000000000000000000N 00000000000NCONT   00    00000000000          00000000000000000000000000000000000000000000 000000000000000A000000000000000000000000000000000000000000000 000000000000000000000000000000000000000     00000000                                                                                                                        000000000000000000
F0010000008126200005000090020547900013552100000000000000000201601150002001COMERCIALIZADORA DAC DEL CARIBE S.A.S.            D000000000009600000000000000000000100010010000000000000000000000F0010000008126200520160115000101 00000000000000000000000000000000000000000000000000000000000000000000000000000000000000000000000000000000000000000N 00000000000NCONT   00    00000000000          00000000000000000000000000000000000000000000 000000000000000A000000000000000000000000000000000000000000000 000000000000000000000000000000000000000     00000000                                                                                                                        000000000000000000
F0010000008126300001000090027500500011050500000000000000000201601150002001MULTIALUMINIOS LA 30 S.A.S                        D000000006500000000000000000000000100010010000000000000000000000F0010000008126300120160115000101 00000000000000000000000000000000000000000000000000000000000000000000000000000000000000000000000000000000000000000N 00000000000NCONT   00    00000000000          00000000000000000000000000000000000000000000 000000000000000A000000000000000000000000000000000000000000000 000000000000000000000000000000000000000     00000000                                                                                                                        000000000000000000
F0010000008126300002000090027500500041450500000000000000000201601150002001MULTIALUMINIOS LA 30 S.A.S                        C000000005340000000000000000000000100010010000000000000000000000F0010000008126300220160115000101 00000000000000000000000000000000000000000000000000000000000000000000000000000000000000000000000000000000000000000N 00000000000NCONT   00    00000000000          00000000000000000000000000000000000000000000 000000000000000A000000000000000000000000000000000000000000000 000000000000000000000000000000000000000     00000000                                                                                                                        000000000000000000
F0010000008126300003000090027500500042505000000000000000000201601150002001MULTIALUMINIOS LA 30 S.A.S                        C000000001160000000000000000000000100010010000000000000000000000F0010000008126300320160115000101 00000000000000000000000000000000000000000000000000000000000000000000000000000000000000000000000000000000000000000N 00000000000NCONT   00    00000000000          00000000000000000000000000000000000000000000 000000000000000A000000000000000000000000000000000000000000000 000000000000000000000000000000000000000     00000000                                                                                                                        000000000000000000
F0010000008126300004000090027500500023658300000000000000000201601150002001MULTIALUMINIOS LA 30 S.A.S                        C000000000042700000000000000000000100010010000000000000000000000F0010000008126300420160115000101 00000000000000000000000000000000000000000000000000000000000000000000000000000000000000000000000000000000000000000N 00000000000NCONT   00    00000000000          00000000000000000000000000000000000000000000 000000000000000A000000000000000000000000000000000000000000000 000000000000000000000000000000000000000     00000000                                                                                                                        000000000000000000
F0010000008126300005000090027500500013552100000000000000000201601150002001MULTIALUMINIOS LA 30 S.A.S                        D000000000042700000000000000000000100010010000000000000000000000F0010000008126300520160115000101 00000000000000000000000000000000000000000000000000000000000000000000000000000000000000000000000000000000000000000N 00000000000NCONT   00    00000000000          00000000000000000000000000000000000000000000 000000000000000A000000000000000000000000000000000000000000000 000000000000000000000000000000000000000     00000000                                                                                                                        000000000000000000
F0010000008126400001000090015039900011050500000000000000000201601150002001METALMAX DE COLOMBIA S.A.S                        D000000002500000000000000000000000100010010000000000000000000000F0010000008126400120160115000101 00000000000000000000000000000000000000000000000000000000000000000000000000000000000000000000000000000000000000000N 00000000000NCONT   00    00000000000          00000000000000000000000000000000000000000000 000000000000000A000000000000000000000000000000000000000000000 000000000000000000000000000000000000000     00000000                                                                                                                        000000000000000000
F0010000008126400002000090015039900041450500000000000000000201601150002001METALMAX DE COLOMBIA S.A.S                        C000000002400000000000000000000000100010010000000000000000000000F0010000008126400220160115000101 00000000000000000000000000000000000000000000000000000000000000000000000000000000000000000000000000000000000000000N 00000000000NCONT   00    00000000000          00000000000000000000000000000000000000000000 000000000000000A000000000000000000000000000000000000000000000 000000000000000000000000000000000000000     00000000                                                                                                                        000000000000000000
F0010000008126400003000090015039900042505000000000000000000201601150002001METALMAX DE COLOMBIA S.A.S                        C000000000100000000000000000000000100010010000000000000000000000F0010000008126400320160115000101 00000000000000000000000000000000000000000000000000000000000000000000000000000000000000000000000000000000000000000N 00000000000NCONT   00    00000000000          00000000000000000000000000000000000000000000 000000000000000A000000000000000000000000000000000000000000000 000000000000000000000000000000000000000     00000000                                                                                                                        000000000000000000
F0010000008126400004000090015039900023658300000000000000000201601150002001METALMAX DE COLOMBIA S.A.S                        C000000000019200000000000000000000100010010000000000000000000000F0010000008126400420160115000101 00000000000000000000000000000000000000000000000000000000000000000000000000000000000000000000000000000000000000000N 00000000000NCONT   00    00000000000          00000000000000000000000000000000000000000000 000000000000000A000000000000000000000000000000000000000000000 000000000000000000000000000000000000000     00000000                                                                                                                        000000000000000000
F0010000008126400005000090015039900013552100000000000000000201601150002001METALMAX DE COLOMBIA S.A.S                        D000000000019200000000000000000000100010010000000000000000000000F0010000008126400520160115000101 00000000000000000000000000000000000000000000000000000000000000000000000000000000000000000000000000000000000000000N 00000000000NCONT   00    00000000000          00000000000000000000000000000000000000000000 000000000000000A000000000000000000000000000000000000000000000 000000000000000000000000000000000000000     00000000                                                                                                                        000000000000000000
F0010000008126500001000003265780700011050500000000000000000201601150002001ZUNILDA GUERRERO                                  D000000003000000000000000000000000100010010000000000000000000000F0010000008126500120160115000101 00000000000000000000000000000000000000000000000000000000000000000000000000000000000000000000000000000000000000000N 00000000000NCONT   00    00000000000          00000000000000000000000000000000000000000000 000000000000000A000000000000000000000000000000000000000000000 000000000000000000000000000000000000000     00000000                                                                                                                        000000000000000000
F0010000008126500002000003265780700041450500000000000000000201601150002001ZUNILDA GUERRERO                                  C000000002400000000000000000000000100010010000000000000000000000F0010000008126500220160115000101 00000000000000000000000000000000000000000000000000000000000000000000000000000000000000000000000000000000000000000N 00000000000NCONT   00    00000000000          00000000000000000000000000000000000000000000 000000000000000A000000000000000000000000000000000000000000000 000000000000000000000000000000000000000     00000000                                                                                                                        000000000000000000
F0010000008126500003000003265780700042505000000000000000000201601150002001ZUNILDA GUERRERO                                  C000000000600000000000000000000000100010010000000000000000000000F0010000008126500320160115000101 00000000000000000000000000000000000000000000000000000000000000000000000000000000000000000000000000000000000000000N 00000000000NCONT   00    00000000000          00000000000000000000000000000000000000000000 000000000000000A000000000000000000000000000000000000000000000 000000000000000000000000000000000000000     00000000                                                                                                                        000000000000000000
F0010000008126500004000003265780700023658300000000000000000201601150002001ZUNILDA GUERRERO                                  C000000000019200000000000000000000100010010000000000000000000000F0010000008126500420160115000101 00000000000000000000000000000000000000000000000000000000000000000000000000000000000000000000000000000000000000000N 00000000000NCONT   00    00000000000          00000000000000000000000000000000000000000000 000000000000000A000000000000000000000000000000000000000000000 000000000000000000000000000000000000000     00000000                                                                                                                        000000000000000000
F0010000008126500005000003265780700013552100000000000000000201601150002001ZUNILDA GUERRERO                                  D000000000019200000000000000000000100010010000000000000000000000F0010000008126500520160115000101 00000000000000000000000000000000000000000000000000000000000000000000000000000000000000000000000000000000000000000N 00000000000NCONT   00    00000000000          00000000000000000000000000000000000000000000 000000000000000A000000000000000000000000000000000000000000000 000000000000000000000000000000000000000     00000000                                                                                                                        000000000000000000
F0010000008126600001000001502923600011050500000000000000000201601150002001ALCIDES MARTINEZ MARTINEZ                         D000000002000000000000000000000000100010010000000000000000000000F0010000008126600120160115000101 00000000000000000000000000000000000000000000000000000000000000000000000000000000000000000000000000000000000000000N 00000000000NCONT   00    00000000000          00000000000000000000000000000000000000000000 000000000000000A000000000000000000000000000000000000000000000 000000000000000000000000000000000000000     00000000                                                                                                                        000000000000000000
F0010000008126600002000001502923600041450500000000000000000201601150002001ALCIDES MARTINEZ MARTINEZ                         C000000001700000000000000000000000100010010000000000000000000000F0010000008126600220160115000101 00000000000000000000000000000000000000000000000000000000000000000000000000000000000000000000000000000000000000000N 00000000000NCONT   00    00000000000          00000000000000000000000000000000000000000000 000000000000000A000000000000000000000000000000000000000000000 000000000000000000000000000000000000000     00000000                                                                                                                        000000000000000000
F0010000008126600003000001502923600042505000000000000000000201601150002001ALCIDES MARTINEZ MARTINEZ                         C000000000300000000000000000000000100010010000000000000000000000F0010000008126600320160115000101 00000000000000000000000000000000000000000000000000000000000000000000000000000000000000000000000000000000000000000N 00000000000NCONT   00    00000000000          00000000000000000000000000000000000000000000 000000000000000A000000000000000000000000000000000000000000000 000000000000000000000000000000000000000     00000000                                                                                                                        000000000000000000
F0010000008126600004000001502923600023658300000000000000000201601150002001ALCIDES MARTINEZ MARTINEZ                         C000000000013600000000000000000000100010010000000000000000000000F0010000008126600420160115000101 00000000000000000000000000000000000000000000000000000000000000000000000000000000000000000000000000000000000000000N 00000000000NCONT   00    00000000000          00000000000000000000000000000000000000000000 000000000000000A000000000000000000000000000000000000000000000 000000000000000000000000000000000000000     00000000                                                                                                                        000000000000000000
F0010000008126600005000001502923600013552100000000000000000201601150002001ALCIDES MARTINEZ MARTINEZ                         D000000000013600000000000000000000100010010000000000000000000000F0010000008126600520160115000101 00000000000000000000000000000000000000000000000000000000000000000000000000000000000000000000000000000000000000000N 00000000000NCONT   00    00000000000          00000000000000000000000000000000000000000000 000000000000000A000000000000000000000000000000000000000000000 000000000000000000000000000000000000000     00000000                                                                                                                        000000000000000000
F0010000008126700001000007213133300011050500000000000000000201601150002001ALVARO ALBERTO FANDIÑO GOMEZ                     D000000001000000000000000000000000100010010000000000000000000000F0010000008126700120160115000101 00000000000000000000000000000000000000000000000000000000000000000000000000000000000000000000000000000000000000000N 00000000000NCONT   00    00000000000          00000000000000000000000000000000000000000000 000000000000000A000000000000000000000000000000000000000000000 000000000000000000000000000000000000000     00000000                                                                                                                        000000000000000000
F0010000008126700002000007213133300041450500000000000000000201601150002001ALVARO ALBERTO FANDIÑO GOMEZ                     C000000000900000000000000000000000100010010000000000000000000000F0010000008126700220160115000101 00000000000000000000000000000000000000000000000000000000000000000000000000000000000000000000000000000000000000000N 00000000000NCONT   00    00000000000          00000000000000000000000000000000000000000000 000000000000000A000000000000000000000000000000000000000000000 000000000000000000000000000000000000000     00000000                                                                                                                        000000000000000000
F0010000008126700003000007213133300042505000000000000000000201601150002001ALVARO ALBERTO FANDIÑO GOMEZ                     C000000000100000000000000000000000100010010000000000000000000000F0010000008126700320160115000101 00000000000000000000000000000000000000000000000000000000000000000000000000000000000000000000000000000000000000000N 00000000000NCONT   00    00000000000          00000000000000000000000000000000000000000000 000000000000000A000000000000000000000000000000000000000000000 000000000000000000000000000000000000000     00000000                                                                                                                        000000000000000000
F0010000008126700004000007213133300023658300000000000000000201601150002001ALVARO ALBERTO FANDIÑO GOMEZ                     C000000000007200000000000000000000100010010000000000000000000000F0010000008126700420160115000101 00000000000000000000000000000000000000000000000000000000000000000000000000000000000000000000000000000000000000000N 00000000000NCONT   00    00000000000          00000000000000000000000000000000000000000000 000000000000000A000000000000000000000000000000000000000000000 000000000000000000000000000000000000000     00000000                                                                                                                        000000000000000000
F0010000008126700005000007213133300013552100000000000000000201601150002001ALVARO ALBERTO FANDIÑO GOMEZ                     D000000000007200000000000000000000100010010000000000000000000000F0010000008126700520160115000101 00000000000000000000000000000000000000000000000000000000000000000000000000000000000000000000000000000000000000000N 00000000000NCONT   00    00000000000          00000000000000000000000000000000000000000000 000000000000000A000000000000000000000000000000000000000000000 000000000000000000000000000000000000000     00000000                                                                                                                        000000000000000000
F0010000008126800001000090015305700011050500000000000000000201601150002001PLASTICOS Y SERVICIOS BARRANQUILLA EU             D000000005200000000000000000000000100010010000000000000000000000F0010000008126800120160115000101 00000000000000000000000000000000000000000000000000000000000000000000000000000000000000000000000000000000000000000N 00000000000NCONT   00    00000000000          00000000000000000000000000000000000000000000 000000000000000A000000000000000000000000000000000000000000000 000000000000000000000000000000000000000     00000000                                                                                                                        000000000000000000
F0010000008126800002000090015305700041450500000000000000000201601150002001PLASTICOS Y SERVICIOS BARRANQUILLA EU             C000000003800000000000000000000000100010010000000000000000000000F0010000008126800220160115000101 00000000000000000000000000000000000000000000000000000000000000000000000000000000000000000000000000000000000000000N 00000000000NCONT   00    00000000000          00000000000000000000000000000000000000000000 000000000000000A000000000000000000000000000000000000000000000 000000000000000000000000000000000000000     00000000                                                                                                                        000000000000000000
F0010000008126800003000090015305700042505000000000000000000201601150002001PLASTICOS Y SERVICIOS BARRANQUILLA EU             C000000001400000000000000000000000100010010000000000000000000000F0010000008126800320160115000101 00000000000000000000000000000000000000000000000000000000000000000000000000000000000000000000000000000000000000000N 00000000000NCONT   00    00000000000          00000000000000000000000000000000000000000000 000000000000000A000000000000000000000000000000000000000000000 000000000000000000000000000000000000000     00000000                                                                                                                        000000000000000000
F0010000008126800004000090015305700023658300000000000000000201601150002001PLASTICOS Y SERVICIOS BARRANQUILLA EU             C000000000030400000000000000000000100010010000000000000000000000F0010000008126800420160115000101 00000000000000000000000000000000000000000000000000000000000000000000000000000000000000000000000000000000000000000N 00000000000NCONT   00    00000000000          00000000000000000000000000000000000000000000 000000000000000A000000000000000000000000000000000000000000000 000000000000000000000000000000000000000     00000000                                                                                                                        000000000000000000
F0010000008126800005000090015305700013552100000000000000000201601150002001PLASTICOS Y SERVICIOS BARRANQUILLA EU             D000000000030400000000000000000000100010010000000000000000000000F0010000008126800520160115000101 00000000000000000000000000000000000000000000000000000000000000000000000000000000000000000000000000000000000000000N 00000000000NCONT   00    00000000000          00000000000000000000000000000000000000000000 000000000000000A000000000000000000000000000000000000000000000 000000000000000000000000000000000000000     00000000                                                                                                                        000000000000000000
F0010000008126900001000090041529500011050500000000000000000201601150002001EME IMPORTACIONES ELECTRICA                       D000000002540000000000000000000000100010010000000000000000000000F0010000008126900120160115000101 00000000000000000000000000000000000000000000000000000000000000000000000000000000000000000000000000000000000000000N 00000000000NCONT   00    00000000000          00000000000000000000000000000000000000000000 000000000000000A000000000000000000000000000000000000000000000 000000000000000000000000000000000000000     00000000                                                                                                                        000000000000000000
F0010000008126900002000090041529500041450500000000000000000201601150002001EME IMPORTACIONES ELECTRICA                       C000000002040000000000000000000000100010010000000000000000000000F0010000008126900220160115000101 00000000000000000000000000000000000000000000000000000000000000000000000000000000000000000000000000000000000000000N 00000000000NCONT   00    00000000000          00000000000000000000000000000000000000000000 000000000000000A000000000000000000000000000000000000000000000 000000000000000000000000000000000000000     00000000                                                                                                                        000000000000000000
F0010000008126900003000090041529500042505000000000000000000201601150002001EME IMPORTACIONES ELECTRICA                       C000000000500000000000000000000000100010010000000000000000000000F0010000008126900320160115000101 00000000000000000000000000000000000000000000000000000000000000000000000000000000000000000000000000000000000000000N 00000000000NCONT   00    00000000000          00000000000000000000000000000000000000000000 000000000000000A000000000000000000000000000000000000000000000 000000000000000000000000000000000000000     00000000                                                                                                                        000000000000000000
F0010000008126900004000090041529500023658300000000000000000201601150002001EME IMPORTACIONES ELECTRICA                       C000000000016300000000000000000000100010010000000000000000000000F0010000008126900420160115000101 00000000000000000000000000000000000000000000000000000000000000000000000000000000000000000000000000000000000000000N 00000000000NCONT   00    00000000000          00000000000000000000000000000000000000000000 000000000000000A000000000000000000000000000000000000000000000 000000000000000000000000000000000000000     00000000                                                                                                                        000000000000000000
F0010000008126900005000090041529500013552100000000000000000201601150002001EME IMPORTACIONES ELECTRICA                       D000000000016300000000000000000000100010010000000000000000000000F0010000008126900520160115000101 00000000000000000000000000000000000000000000000000000000000000000000000000000000000000000000000000000000000000000N 00000000000NCONT   00    00000000000          00000000000000000000000000000000000000000000 000000000000000A000000000000000000000000000000000000000000000 000000000000000000000000000000000000000     00000000                                                                                                                        000000000000000000
F0010000008127000001000089011078600011050500000000000000000201601150002001DIST. NUEVO MUNDO S.A.S.                          D000000004724200000000000000000000100010010000000000000000000000F0010000008127000120160115000101 00000000000000000000000000000000000000000000000000000000000000000000000000000000000000000000000000000000000000000N 00000000000NCONT   00    00000000000          00000000000000000000000000000000000000000000 000000000000000A000000000000000000000000000000000000000000000 000000000000000000000000000000000000000     00000000                                                                                                                        000000000000000000
F0010000008127000002000089011078600041450500000000000000000201601150002001DIST. NUEVO MUNDO S.A.S.                          C000000004020000000000000000000000100010010000000000000000000000F0010000008127000220160115000101 00000000000000000000000000000000000000000000000000000000000000000000000000000000000000000000000000000000000000000N 00000000000NCONT   00    00000000000          00000000000000000000000000000000000000000000 000000000000000A000000000000000000000000000000000000000000000 000000000000000000000000000000000000000     00000000                                                                                                                        000000000000000000
F0010000008127000003000089011078600042505000000000000000000201601150002001DIST. NUEVO MUNDO S.A.S.                          C000000000704200000000000000000000100010010000000000000000000000F0010000008127000320160115000101 00000000000000000000000000000000000000000000000000000000000000000000000000000000000000000000000000000000000000000N 00000000000NCONT   00    00000000000          00000000000000000000000000000000000000000000 000000000000000A000000000000000000000000000000000000000000000 000000000000000000000000000000000000000     00000000                                                                                                                        000000000000000000
F0010000008127000004000089011078600023658300000000000000000201601150002001DIST. NUEVO MUNDO S.A.S.                          C000000000032200000000000000000000100010010000000000000000000000F0010000008127000420160115000101 00000000000000000000000000000000000000000000000000000000000000000000000000000000000000000000000000000000000000000N 00000000000NCONT   00    00000000000          00000000000000000000000000000000000000000000 000000000000000A000000000000000000000000000000000000000000000 000000000000000000000000000000000000000     00000000                                                                                                                        000000000000000000
F0010000008127000005000089011078600013552100000000000000000201601150002001DIST. NUEVO MUNDO S.A.S.                          D000000000032200000000000000000000100010010000000000000000000000F0010000008127000520160115000101 00000000000000000000000000000000000000000000000000000000000000000000000000000000000000000000000000000000000000000N 00000000000NCONT   00    00000000000          00000000000000000000000000000000000000000000 000000000000000A000000000000000000000000000000000000000000000 000000000000000000000000000000000000000     00000000                                                                                                                        000000000000000000
F0010000008127100001000090057362800011050500000000000000000201601150002001COMERCIALIZADORA SUMINISTROS EFICIENTES           D000000001900000000000000000000000100010010000000000000000000000F0010000008127100120160115000101 00000000000000000000000000000000000000000000000000000000000000000000000000000000000000000000000000000000000000000N 00000000000NCONT   00    00000000000          00000000000000000000000000000000000000000000 000000000000000A000000000000000000000000000000000000000000000 000000000000000000000000000000000000000     00000000                                                                                                                        000000000000000000
F0010000008127100002000090057362800041450500000000000000000201601150002001COMERCIALIZADORA SUMINISTROS EFICIENTES           C000000001800000000000000000000000100010010000000000000000000000F0010000008127100220160115000101 00000000000000000000000000000000000000000000000000000000000000000000000000000000000000000000000000000000000000000N 00000000000NCONT   00    00000000000          00000000000000000000000000000000000000000000 000000000000000A000000000000000000000000000000000000000000000 000000000000000000000000000000000000000     00000000                                                                                                                        000000000000000000
F0010000008127100003000090057362800042505000000000000000000201601150002001COMERCIALIZADORA SUMINISTROS EFICIENTES           C000000000100000000000000000000000100010010000000000000000000000F0010000008127100320160115000101 00000000000000000000000000000000000000000000000000000000000000000000000000000000000000000000000000000000000000000N 00000000000NCONT   00    00000000000          00000000000000000000000000000000000000000000 000000000000000A000000000000000000000000000000000000000000000 000000000000000000000000000000000000000     00000000                                                                                                                        000000000000000000
F0010000008127100004000090057362800023658300000000000000000201601150002001COMERCIALIZADORA SUMINISTROS EFICIENTES           C000000000014400000000000000000000100010010000000000000000000000F0010000008127100420160115000101 00000000000000000000000000000000000000000000000000000000000000000000000000000000000000000000000000000000000000000N 00000000000NCONT   00    00000000000          00000000000000000000000000000000000000000000 000000000000000A000000000000000000000000000000000000000000000 000000000000000000000000000000000000000     00000000                                                                                                                        000000000000000000
F0010000008127100005000090057362800013552100000000000000000201601150002001COMERCIALIZADORA SUMINISTROS EFICIENTES           D000000000014400000000000000000000100010010000000000000000000000F0010000008127100520160115000101 00000000000000000000000000000000000000000000000000000000000000000000000000000000000000000000000000000000000000000N 00000000000NCONT   00    00000000000          00000000000000000000000000000000000000000000 000000000000000A000000000000000000000000000000000000000000000 000000000000000000000000000000000000000     00000000                                                                                                                        000000000000000000
F0010000008127200001000080018549600011050500000000000000000201601150002001ELECTROREYES LTDA                                 D000000011000000000000000000000000100010010000000000000000000000F0010000008127200120160115000101 00000000000000000000000000000000000000000000000000000000000000000000000000000000000000000000000000000000000000000N 00000000000NCONT   00    00000000000          00000000000000000000000000000000000000000000 000000000000000A000000000000000000000000000000000000000000000 000000000000000000000000000000000000000     00000000                                                                                                                        000000000000000000
F0010000008127200002000080018549600041450500000000000000000201601150002001ELECTROREYES LTDA                                 C000000010000000000000000000000000100010010000000000000000000000F0010000008127200220160115000101 00000000000000000000000000000000000000000000000000000000000000000000000000000000000000000000000000000000000000000N 00000000000NCONT   00    00000000000          00000000000000000000000000000000000000000000 000000000000000A000000000000000000000000000000000000000000000 000000000000000000000000000000000000000     00000000                                                                                                                        000000000000000000
F0010000008127200003000080018549600042505000000000000000000201601150002001ELECTROREYES LTDA                                 C000000001000000000000000000000000100010010000000000000000000000F0010000008127200320160115000101 00000000000000000000000000000000000000000000000000000000000000000000000000000000000000000000000000000000000000000N 00000000000NCONT   00    00000000000          00000000000000000000000000000000000000000000 000000000000000A000000000000000000000000000000000000000000000 000000000000000000000000000000000000000     00000000                                                                                                                        000000000000000000
F0010000008127200004000080018549600023658300000000000000000201601150002001ELECTROREYES LTDA                                 C000000000080000000000000000000000100010010000000000000000000000F0010000008127200420160115000101 00000000000000000000000000000000000000000000000000000000000000000000000000000000000000000000000000000000000000000N 00000000000NCONT   00    00000000000          00000000000000000000000000000000000000000000 000000000000000A000000000000000000000000000000000000000000000 000000000000000000000000000000000000000     00000000                                                                                                                        000000000000000000
F0010000008127200005000080018549600013552100000000000000000201601150002001ELECTROREYES LTDA                                 D000000000080000000000000000000000100010010000000000000000000000F0010000008127200520160115000101 00000000000000000000000000000000000000000000000000000000000000000000000000000000000000000000000000000000000000000N 00000000000NCONT   00    00000000000          00000000000000000000000000000000000000000000 000000000000000A000000000000000000000000000000000000000000000 000000000000000000000000000000000000000     00000000                                                                                                                        000000000000000000
F0010000008127300001000000870907300011050500000000000000000201601150002001SURTIDOR FERRETERO                                D000000001700000000000000000000000100010010000000000000000000000F0010000008127300120160115000101 00000000000000000000000000000000000000000000000000000000000000000000000000000000000000000000000000000000000000000N 00000000000NCONT   00    00000000000          00000000000000000000000000000000000000000000 000000000000000A000000000000000000000000000000000000000000000 000000000000000000000000000000000000000     00000000                                                                                                                        000000000000000000
F0010000008127300002000000870907300041450500000000000000000201601150002001SURTIDOR FERRETERO                                C000000000800000000000000000000000100010010000000000000000000000F0010000008127300220160115000101 00000000000000000000000000000000000000000000000000000000000000000000000000000000000000000000000000000000000000000N 00000000000NCONT   00    00000000000          00000000000000000000000000000000000000000000 000000000000000A000000000000000000000000000000000000000000000 000000000000000000000000000000000000000     00000000                                                                                                                        000000000000000000
F0010000008127300003000000870907300042505000000000000000000201601150002001SURTIDOR FERRETERO                                C000000000900000000000000000000000100010010000000000000000000000F0010000008127300320160115000101 00000000000000000000000000000000000000000000000000000000000000000000000000000000000000000000000000000000000000000N 00000000000NCONT   00    00000000000          00000000000000000000000000000000000000000000 000000000000000A000000000000000000000000000000000000000000000 000000000000000000000000000000000000000     00000000                                                                                                                        000000000000000000
F0010000008127300004000000870907300023658300000000000000000201601150002001SURTIDOR FERRETERO                                C000000000006400000000000000000000100010010000000000000000000000F0010000008127300420160115000101 00000000000000000000000000000000000000000000000000000000000000000000000000000000000000000000000000000000000000000N 00000000000NCONT   00    00000000000          00000000000000000000000000000000000000000000 000000000000000A000000000000000000000000000000000000000000000 000000000000000000000000000000000000000     00000000                                                                                                                        000000000000000000
F0010000008127300005000000870907300013552100000000000000000201601150002001SURTIDOR FERRETERO                                D000000000006400000000000000000000100010010000000000000000000000F0010000008127300520160115000101 00000000000000000000000000000000000000000000000000000000000000000000000000000000000000000000000000000000000000000N 00000000000NCONT   00    00000000000          00000000000000000000000000000000000000000000 000000000000000A000000000000000000000000000000000000000000000 000000000000000000000000000000000000000     00000000                                                                                                                        000000000000000000
F0010000008127400001000001022529300011050500000000000000000201601150002001ALBERTO ALVAREZ ISAZA                             D000000000350000000000000000000000100010010000000000000000000000F0010000008127400120160115000101 00000000000000000000000000000000000000000000000000000000000000000000000000000000000000000000000000000000000000000N 00000000000NCONT   00    00000000000          00000000000000000000000000000000000000000000 000000000000000A000000000000000000000000000000000000000000000 000000000000000000000000000000000000000     00000000                                                                                                                        000000000000000000
F0010000008127400002000001022529300041450500000000000000000201601150002001ALBERTO ALVAREZ ISAZA                             C000000000350000000000000000000000100010010000000000000000000000F0010000008127400220160115000101 00000000000000000000000000000000000000000000000000000000000000000000000000000000000000000000000000000000000000000N 00000000000NCONT   00    00000000000          00000000000000000000000000000000000000000000 000000000000000A000000000000000000000000000000000000000000000 000000000000000000000000000000000000000     00000000                                                                                                                        000000000000000000
F0010000008127400003000001022529300042505000000000000000000201601150002001ALBERTO ALVAREZ ISAZA                             C000000000000000000000000000000000100010010000000000000000000000F0010000008127400320160115000101 00000000000000000000000000000000000000000000000000000000000000000000000000000000000000000000000000000000000000000N 00000000000NCONT   00    00000000000          00000000000000000000000000000000000000000000 000000000000000A000000000000000000000000000000000000000000000 000000000000000000000000000000000000000     00000000                                                                                                                        000000000000000000
F0010000008127400004000001022529300023658300000000000000000201601150002001ALBERTO ALVAREZ ISAZA                             C000000000002800000000000000000000100010010000000000000000000000F0010000008127400420160115000101 00000000000000000000000000000000000000000000000000000000000000000000000000000000000000000000000000000000000000000N 00000000000NCONT   00    00000000000          00000000000000000000000000000000000000000000 000000000000000A000000000000000000000000000000000000000000000 000000000000000000000000000000000000000     00000000                                                                                                                        000000000000000000
F0010000008127400005000001022529300013552100000000000000000201601150002001ALBERTO ALVAREZ ISAZA                             D000000000002800000000000000000000100010010000000000000000000000F0010000008127400520160115000101 00000000000000000000000000000000000000000000000000000000000000000000000000000000000000000000000000000000000000000N 00000000000NCONT   00    00000000000          00000000000000000000000000000000000000000000 000000000000000A000000000000000000000000000000000000000000000 000000000000000000000000000000000000000     00000000                                                                                                                        000000000000000000
F0010000008127500001000001022529300011050500000000000000000201601150002001ALBERTO ALVAREZ ISAZA                             D000000000350000000000000000000000100010010000000000000000000000F0010000008127500120160115000101 00000000000000000000000000000000000000000000000000000000000000000000000000000000000000000000000000000000000000000N 00000000000NCONT   00    00000000000          00000000000000000000000000000000000000000000 000000000000000A000000000000000000000000000000000000000000000 000000000000000000000000000000000000000     00000000                                                                                                                        000000000000000000
F0010000008127500002000001022529300041450500000000000000000201601150002001ALBERTO ALVAREZ ISAZA                             C000000000350000000000000000000000100010010000000000000000000000F0010000008127500220160115000101 00000000000000000000000000000000000000000000000000000000000000000000000000000000000000000000000000000000000000000N 00000000000NCONT   00    00000000000          00000000000000000000000000000000000000000000 000000000000000A000000000000000000000000000000000000000000000 000000000000000000000000000000000000000     00000000                                                                                                                        000000000000000000
F0010000008127500003000001022529300042505000000000000000000201601150002001ALBERTO ALVAREZ ISAZA                             C000000000000000000000000000000000100010010000000000000000000000F0010000008127500320160115000101 00000000000000000000000000000000000000000000000000000000000000000000000000000000000000000000000000000000000000000N 00000000000NCONT   00    00000000000          00000000000000000000000000000000000000000000 000000000000000A000000000000000000000000000000000000000000000 000000000000000000000000000000000000000     00000000                                                                                                                        000000000000000000
F0010000008127500004000001022529300023658300000000000000000201601150002001ALBERTO ALVAREZ ISAZA                             C000000000002800000000000000000000100010010000000000000000000000F0010000008127500420160115000101 00000000000000000000000000000000000000000000000000000000000000000000000000000000000000000000000000000000000000000N 00000000000NCONT   00    00000000000          00000000000000000000000000000000000000000000 000000000000000A000000000000000000000000000000000000000000000 000000000000000000000000000000000000000     00000000                                                                                                                        000000000000000000
F0010000008127500005000001022529300013552100000000000000000201601150002001ALBERTO ALVAREZ ISAZA                             D000000000002800000000000000000000100010010000000000000000000000F0010000008127500520160115000101 00000000000000000000000000000000000000000000000000000000000000000000000000000000000000000000000000000000000000000N 00000000000NCONT   00    00000000000          00000000000000000000000000000000000000000000 000000000000000A000000000000000000000000000000000000000000000 000000000000000000000000000000000000000     00000000                                                                                                                        000000000000000000
F0010000008127600001000000431178400011050500000000000000000201601150002001EFRAIN ALVAREZ                                    D000000001870000000000000000000000100010010000000000000000000000F0010000008127600120160115000101 00000000000000000000000000000000000000000000000000000000000000000000000000000000000000000000000000000000000000000N 00000000000NCONT   00    00000000000          00000000000000000000000000000000000000000000 000000000000000A000000000000000000000000000000000000000000000 000000000000000000000000000000000000000     00000000                                                                                                                        000000000000000000
F0010000008127600002000000431178400041450500000000000000000201601150002001EFRAIN ALVAREZ                                    C000000001720000000000000000000000100010010000000000000000000000F0010000008127600220160115000101 00000000000000000000000000000000000000000000000000000000000000000000000000000000000000000000000000000000000000000N 00000000000NCONT   00    00000000000          00000000000000000000000000000000000000000000 000000000000000A000000000000000000000000000000000000000000000 000000000000000000000000000000000000000     00000000                                                                                                                        000000000000000000
F0010000008127600003000000431178400042505000000000000000000201601150002001EFRAIN ALVAREZ                                    C000000000150000000000000000000000100010010000000000000000000000F0010000008127600320160115000101 00000000000000000000000000000000000000000000000000000000000000000000000000000000000000000000000000000000000000000N 00000000000NCONT   00    00000000000          00000000000000000000000000000000000000000000 000000000000000A000000000000000000000000000000000000000000000 000000000000000000000000000000000000000     00000000                                                                                                                        000000000000000000
F0010000008127600004000000431178400023658300000000000000000201601150002001EFRAIN ALVAREZ                                    C000000000013800000000000000000000100010010000000000000000000000F0010000008127600420160115000101 00000000000000000000000000000000000000000000000000000000000000000000000000000000000000000000000000000000000000000N 00000000000NCONT   00    00000000000          00000000000000000000000000000000000000000000 000000000000000A000000000000000000000000000000000000000000000 000000000000000000000000000000000000000     00000000                                                                                                                        000000000000000000
F0010000008127600005000000431178400013552100000000000000000201601150002001EFRAIN ALVAREZ                                    D000000000013800000000000000000000100010010000000000000000000000F0010000008127600520160115000101 00000000000000000000000000000000000000000000000000000000000000000000000000000000000000000000000000000000000000000N 00000000000NCONT   00    00000000000          00000000000000000000000000000000000000000000 000000000000000A000000000000000000000000000000000000000000000 000000000000000000000000000000000000000     00000000                                                                                                                        000000000000000000
F0010000008127700001000000431178400011050500000000000000000201601150002001EFRAIN ALVAREZ                                    D000000003690000000000000000000000100010010000000000000000000000F0010000008127700120160115000101 00000000000000000000000000000000000000000000000000000000000000000000000000000000000000000000000000000000000000000N 00000000000NCONT   00    00000000000          00000000000000000000000000000000000000000000 000000000000000A000000000000000000000000000000000000000000000 000000000000000000000000000000000000000     00000000                                                                                                                        000000000000000000
F0010000008127700002000000431178400041450500000000000000000201601150002001EFRAIN ALVAREZ                                    C000000003440000000000000000000000100010010000000000000000000000F0010000008127700220160115000101 00000000000000000000000000000000000000000000000000000000000000000000000000000000000000000000000000000000000000000N 00000000000NCONT   00    00000000000          00000000000000000000000000000000000000000000 000000000000000A000000000000000000000000000000000000000000000 000000000000000000000000000000000000000     00000000                                                                                                                        000000000000000000
F0010000008127700003000000431178400042505000000000000000000201601150002001EFRAIN ALVAREZ                                    C000000000250000000000000000000000100010010000000000000000000000F0010000008127700320160115000101 00000000000000000000000000000000000000000000000000000000000000000000000000000000000000000000000000000000000000000N 00000000000NCONT   00    00000000000          00000000000000000000000000000000000000000000 000000000000000A000000000000000000000000000000000000000000000 000000000000000000000000000000000000000     00000000                                                                                                                        000000000000000000
F0010000008127700004000000431178400023658300000000000000000201601150002001EFRAIN ALVAREZ                                    C000000000027500000000000000000000100010010000000000000000000000F0010000008127700420160115000101 00000000000000000000000000000000000000000000000000000000000000000000000000000000000000000000000000000000000000000N 00000000000NCONT   00    00000000000          00000000000000000000000000000000000000000000 000000000000000A000000000000000000000000000000000000000000000 000000000000000000000000000000000000000     00000000                                                                                                                        000000000000000000
F0010000008127700005000000431178400013552100000000000000000201601150002001EFRAIN ALVAREZ                                    D000000000027500000000000000000000100010010000000000000000000000F0010000008127700520160115000101 00000000000000000000000000000000000000000000000000000000000000000000000000000000000000000000000000000000000000000N 00000000000NCONT   00    00000000000          00000000000000000000000000000000000000000000 000000000000000A000000000000000000000000000000000000000000000 000000000000000000000000000000000000000     00000000                                                                                                                        000000000000000000
F0010000008127800001000000431178400011050500000000000000000201601150002001EFRAIN ALVAREZ                                    D000000000960000000000000000000000100010010000000000000000000000F0010000008127800120160115000101 00000000000000000000000000000000000000000000000000000000000000000000000000000000000000000000000000000000000000000N 00000000000NCONT   00    00000000000          00000000000000000000000000000000000000000000 000000000000000A000000000000000000000000000000000000000000000 000000000000000000000000000000000000000     00000000                                                                                                                        000000000000000000
F0010000008127800002000000431178400041450500000000000000000201601150002001EFRAIN ALVAREZ                                    C000000000860000000000000000000000100010010000000000000000000000F0010000008127800220160115000101 00000000000000000000000000000000000000000000000000000000000000000000000000000000000000000000000000000000000000000N 00000000000NCONT   00    00000000000          00000000000000000000000000000000000000000000 000000000000000A000000000000000000000000000000000000000000000 000000000000000000000000000000000000000     00000000                                                                                                                        000000000000000000
F0010000008127800003000000431178400042505000000000000000000201601150002001EFRAIN ALVAREZ                                    C000000000100000000000000000000000100010010000000000000000000000F0010000008127800320160115000101 00000000000000000000000000000000000000000000000000000000000000000000000000000000000000000000000000000000000000000N 00000000000NCONT   00    00000000000          00000000000000000000000000000000000000000000 000000000000000A000000000000000000000000000000000000000000000 000000000000000000000000000000000000000     00000000                                                                                                                        000000000000000000
F0010000008127800004000000431178400023658300000000000000000201601150002001EFRAIN ALVAREZ                                    C000000000006900000000000000000000100010010000000000000000000000F0010000008127800420160115000101 00000000000000000000000000000000000000000000000000000000000000000000000000000000000000000000000000000000000000000N 00000000000NCONT   00    00000000000          00000000000000000000000000000000000000000000 000000000000000A000000000000000000000000000000000000000000000 000000000000000000000000000000000000000     00000000                                                                                                                        000000000000000000
F0010000008127800005000000431178400013552100000000000000000201601150002001EFRAIN ALVAREZ                                    D000000000006900000000000000000000100010010000000000000000000000F0010000008127800520160115000101 00000000000000000000000000000000000000000000000000000000000000000000000000000000000000000000000000000000000000000N 00000000000NCONT   00    00000000000          00000000000000000000000000000000000000000000 000000000000000A000000000000000000000000000000000000000000000 000000000000000000000000000000000000000     00000000                                                                                                                        000000000000000000
F0010000008127900001000000431178400011050500000000000000000201601150002001EFRAIN ALVAREZ                                    D000000000910000000000000000000000100010010000000000000000000000F0010000008127900120160115000101 00000000000000000000000000000000000000000000000000000000000000000000000000000000000000000000000000000000000000000N 00000000000NCONT   00    00000000000          00000000000000000000000000000000000000000000 000000000000000A000000000000000000000000000000000000000000000 000000000000000000000000000000000000000     00000000                                                                                                                        000000000000000000
F0010000008127900002000000431178400041450500000000000000000201601150002001EFRAIN ALVAREZ                                    C000000000860000000000000000000000100010010000000000000000000000F0010000008127900220160115000101 00000000000000000000000000000000000000000000000000000000000000000000000000000000000000000000000000000000000000000N 00000000000NCONT   00    00000000000          00000000000000000000000000000000000000000000 000000000000000A000000000000000000000000000000000000000000000 000000000000000000000000000000000000000     00000000                                                                                                                        000000000000000000
F0010000008127900003000000431178400042505000000000000000000201601150002001EFRAIN ALVAREZ                                    C000000000050000000000000000000000100010010000000000000000000000F0010000008127900320160115000101 00000000000000000000000000000000000000000000000000000000000000000000000000000000000000000000000000000000000000000N 00000000000NCONT   00    00000000000          00000000000000000000000000000000000000000000 000000000000000A000000000000000000000000000000000000000000000 000000000000000000000000000000000000000     00000000                                                                                                                        000000000000000000
F0010000008127900004000000431178400023658300000000000000000201601150002001EFRAIN ALVAREZ                                    C000000000006900000000000000000000100010010000000000000000000000F0010000008127900420160115000101 00000000000000000000000000000000000000000000000000000000000000000000000000000000000000000000000000000000000000000N 00000000000NCONT   00    00000000000          00000000000000000000000000000000000000000000 000000000000000A000000000000000000000000000000000000000000000 000000000000000000000000000000000000000     00000000                                                                                                                        000000000000000000
F0010000008127900005000000431178400013552100000000000000000201601150002001EFRAIN ALVAREZ                                    D000000000006900000000000000000000100010010000000000000000000000F0010000008127900520160115000101 00000000000000000000000000000000000000000000000000000000000000000000000000000000000000000000000000000000000000000N 00000000000NCONT   00    00000000000          00000000000000000000000000000000000000000000 000000000000000A000000000000000000000000000000000000000000000 000000000000000000000000000000000000000     00000000                                                                                                                        000000000000000000
F0010000008128000001000000431178400011050500000000000000000201601150002001EFRAIN ALVAREZ                                    D000000000910000000000000000000000100010010000000000000000000000F0010000008128000120160115000101 00000000000000000000000000000000000000000000000000000000000000000000000000000000000000000000000000000000000000000N 00000000000NCONT   00    00000000000          00000000000000000000000000000000000000000000 000000000000000A000000000000000000000000000000000000000000000 000000000000000000000000000000000000000     00000000                                                                                                                        000000000000000000
F0010000008128000002000000431178400041450500000000000000000201601150002001EFRAIN ALVAREZ                                    C000000000860000000000000000000000100010010000000000000000000000F0010000008128000220160115000101 00000000000000000000000000000000000000000000000000000000000000000000000000000000000000000000000000000000000000000N 00000000000NCONT   00    00000000000          00000000000000000000000000000000000000000000 000000000000000A000000000000000000000000000000000000000000000 000000000000000000000000000000000000000     00000000                                                                                                                        000000000000000000
F0010000008128000003000000431178400042505000000000000000000201601150002001EFRAIN ALVAREZ                                    C000000000050000000000000000000000100010010000000000000000000000F0010000008128000320160115000101 00000000000000000000000000000000000000000000000000000000000000000000000000000000000000000000000000000000000000000N 00000000000NCONT   00    00000000000          00000000000000000000000000000000000000000000 000000000000000A000000000000000000000000000000000000000000000 000000000000000000000000000000000000000     00000000                                                                                                                        000000000000000000
F0010000008128000004000000431178400023658300000000000000000201601150002001EFRAIN ALVAREZ                                    C000000000006900000000000000000000100010010000000000000000000000F0010000008128000420160115000101 00000000000000000000000000000000000000000000000000000000000000000000000000000000000000000000000000000000000000000N 00000000000NCONT   00    00000000000          00000000000000000000000000000000000000000000 000000000000000A000000000000000000000000000000000000000000000 000000000000000000000000000000000000000     00000000                                                                                                                        000000000000000000
F0010000008128000005000000431178400013552100000000000000000201601150002001EFRAIN ALVAREZ                                    D000000000006900000000000000000000100010010000000000000000000000F0010000008128000520160115000101 00000000000000000000000000000000000000000000000000000000000000000000000000000000000000000000000000000000000000000N 00000000000NCONT   00    00000000000          00000000000000000000000000000000000000000000 000000000000000A000000000000000000000000000000000000000000000 000000000000000000000000000000000000000     00000000                                                                                                                        000000000000000000
F0010000008128100001000000431178400011050500000000000000000201601150002001EFRAIN ALVAREZ                                    D000000000430000000000000000000000100010010000000000000000000000F0010000008128100120160115000101 00000000000000000000000000000000000000000000000000000000000000000000000000000000000000000000000000000000000000000N 00000000000NCONT   00    00000000000          00000000000000000000000000000000000000000000 000000000000000A000000000000000000000000000000000000000000000 000000000000000000000000000000000000000     00000000                                                                                                                        000000000000000000
F0010000008128100002000000431178400041450500000000000000000201601150002001EFRAIN ALVAREZ                                    C000000000380000000000000000000000100010010000000000000000000000F0010000008128100220160115000101 00000000000000000000000000000000000000000000000000000000000000000000000000000000000000000000000000000000000000000N 00000000000NCONT   00    00000000000          00000000000000000000000000000000000000000000 000000000000000A000000000000000000000000000000000000000000000 000000000000000000000000000000000000000     00000000                                                                                                                        000000000000000000
F0010000008128100003000000431178400042505000000000000000000201601150002001EFRAIN ALVAREZ                                    C000000000050000000000000000000000100010010000000000000000000000F0010000008128100320160115000101 00000000000000000000000000000000000000000000000000000000000000000000000000000000000000000000000000000000000000000N 00000000000NCONT   00    00000000000          00000000000000000000000000000000000000000000 000000000000000A000000000000000000000000000000000000000000000 000000000000000000000000000000000000000     00000000                                                                                                                        000000000000000000
F0010000008128100004000000431178400023658300000000000000000201601150002001EFRAIN ALVAREZ                                    C000000000003000000000000000000000100010010000000000000000000000F0010000008128100420160115000101 00000000000000000000000000000000000000000000000000000000000000000000000000000000000000000000000000000000000000000N 00000000000NCONT   00    00000000000          00000000000000000000000000000000000000000000 000000000000000A000000000000000000000000000000000000000000000 000000000000000000000000000000000000000     00000000                                                                                                                        000000000000000000
F0010000008128100005000000431178400013552100000000000000000201601150002001EFRAIN ALVAREZ                                    D000000000003000000000000000000000100010010000000000000000000000F0010000008128100520160115000101 00000000000000000000000000000000000000000000000000000000000000000000000000000000000000000000000000000000000000000N 00000000000NCONT   00    00000000000          00000000000000000000000000000000000000000000 000000000000000A000000000000000000000000000000000000000000000 000000000000000000000000000000000000000     00000000                                                                                                                        000000000000000000
F0010000008128200001000001535146600011050500000000000000000201601150002001ORLANDO OROZCO NAVARRO                            D000000001700000000000000000000000100010010000000000000000000000F0010000008128200120160115000101 00000000000000000000000000000000000000000000000000000000000000000000000000000000000000000000000000000000000000000N 00000000000NCONT   00    00000000000          00000000000000000000000000000000000000000000 000000000000000A000000000000000000000000000000000000000000000 000000000000000000000000000000000000000     00000000                                                                                                                        000000000000000000
F0010000008128200002000001535146600041450500000000000000000201601150002001ORLANDO OROZCO NAVARRO                            C000000001600000000000000000000000100010010000000000000000000000F0010000008128200220160115000101 00000000000000000000000000000000000000000000000000000000000000000000000000000000000000000000000000000000000000000N 00000000000NCONT   00    00000000000          00000000000000000000000000000000000000000000 000000000000000A000000000000000000000000000000000000000000000 000000000000000000000000000000000000000     00000000                                                                                                                        000000000000000000
F0010000008128200003000001535146600042505000000000000000000201601150002001ORLANDO OROZCO NAVARRO                            C000000000100000000000000000000000100010010000000000000000000000F0010000008128200320160115000101 00000000000000000000000000000000000000000000000000000000000000000000000000000000000000000000000000000000000000000N 00000000000NCONT   00    00000000000          00000000000000000000000000000000000000000000 000000000000000A000000000000000000000000000000000000000000000 000000000000000000000000000000000000000     00000000                                                                                                                        000000000000000000
F0010000008128200004000001535146600023658300000000000000000201601150002001ORLANDO OROZCO NAVARRO                            C000000000012800000000000000000000100010010000000000000000000000F0010000008128200420160115000101 00000000000000000000000000000000000000000000000000000000000000000000000000000000000000000000000000000000000000000N 00000000000NCONT   00    00000000000          00000000000000000000000000000000000000000000 000000000000000A000000000000000000000000000000000000000000000 000000000000000000000000000000000000000     00000000                                                                                                                        000000000000000000
F0010000008128200005000001535146600013552100000000000000000201601150002001ORLANDO OROZCO NAVARRO                            D000000000012800000000000000000000100010010000000000000000000000F0010000008128200520160115000101 00000000000000000000000000000000000000000000000000000000000000000000000000000000000000000000000000000000000000000N 00000000000NCONT   00    00000000000          00000000000000000000000000000000000000000000 000000000000000A000000000000000000000000000000000000000000000 000000000000000000000000000000000000000     00000000                                                                                                                        000000000000000000
F0010000008128300001000003269375300011050500000000000000000201601150002001ROSALY SANCHEZ DUQUE                              D000000001100000000000000000000000100010010000000000000000000000F0010000008128300120160115000101 00000000000000000000000000000000000000000000000000000000000000000000000000000000000000000000000000000000000000000N 00000000000NCONT   00    00000000000          00000000000000000000000000000000000000000000 000000000000000A000000000000000000000000000000000000000000000 000000000000000000000000000000000000000     00000000                                                                                                                        000000000000000000
F0010000008128300002000003269375300041450500000000000000000201601150002001ROSALY SANCHEZ DUQUE                              C000000000900000000000000000000000100010010000000000000000000000F0010000008128300220160115000101 00000000000000000000000000000000000000000000000000000000000000000000000000000000000000000000000000000000000000000N 00000000000NCONT   00    00000000000          00000000000000000000000000000000000000000000 000000000000000A000000000000000000000000000000000000000000000 000000000000000000000000000000000000000     00000000                                                                                                                        000000000000000000
F0010000008128300003000003269375300042505000000000000000000201601150002001ROSALY SANCHEZ DUQUE                              C000000000200000000000000000000000100010010000000000000000000000F0010000008128300320160115000101 00000000000000000000000000000000000000000000000000000000000000000000000000000000000000000000000000000000000000000N 00000000000NCONT   00    00000000000          00000000000000000000000000000000000000000000 000000000000000A000000000000000000000000000000000000000000000 000000000000000000000000000000000000000     00000000                                                                                                                        000000000000000000
F0010000008128300004000003269375300023658300000000000000000201601150002001ROSALY SANCHEZ DUQUE                              C000000000007200000000000000000000100010010000000000000000000000F0010000008128300420160115000101 00000000000000000000000000000000000000000000000000000000000000000000000000000000000000000000000000000000000000000N 00000000000NCONT   00    00000000000          00000000000000000000000000000000000000000000 000000000000000A000000000000000000000000000000000000000000000 000000000000000000000000000000000000000     00000000                                                                                                                        000000000000000000
F0010000008128300005000003269375300013552100000000000000000201601150002001ROSALY SANCHEZ DUQUE                              D000000000007200000000000000000000100010010000000000000000000000F0010000008128300520160115000101 00000000000000000000000000000000000000000000000000000000000000000000000000000000000000000000000000000000000000000N 00000000000NCONT   00    00000000000          00000000000000000000000000000000000000000000 000000000000000A000000000000000000000000000000000000000000000 000000000000000000000000000000000000000     00000000                                                                                                                        000000000000000000
F0010000008128400001000090027500500011050500000000000000000201601150002001MULTIALUMINIO LA 30 S.A.S.                        D000000007500000000000000000000000100010010000000000000000000000F0010000008128400120160115000101 00000000000000000000000000000000000000000000000000000000000000000000000000000000000000000000000000000000000000000N 00000000000NCONT   00    00000000000          00000000000000000000000000000000000000000000 000000000000000A000000000000000000000000000000000000000000000 000000000000000000000000000000000000000     00000000                                                                                                                        000000000000000000
F0010000008128400002000090027500500041450500000000000000000201601150002001MULTIALUMINIO LA 30 S.A.S.                        C000000006300000000000000000000000100010010000000000000000000000F0010000008128400220160115000101 00000000000000000000000000000000000000000000000000000000000000000000000000000000000000000000000000000000000000000N 00000000000NCONT   00    00000000000          00000000000000000000000000000000000000000000 000000000000000A000000000000000000000000000000000000000000000 000000000000000000000000000000000000000     00000000                                                                                                                        000000000000000000
F0010000008128400003000090027500500042505000000000000000000201601150002001MULTIALUMINIO LA 30 S.A.S.                        C000000001200000000000000000000000100010010000000000000000000000F0010000008128400320160115000101 00000000000000000000000000000000000000000000000000000000000000000000000000000000000000000000000000000000000000000N 00000000000NCONT   00    00000000000          00000000000000000000000000000000000000000000 000000000000000A000000000000000000000000000000000000000000000 000000000000000000000000000000000000000     00000000                                                                                                                        000000000000000000
F0010000008128400004000090027500500023658300000000000000000201601150002001MULTIALUMINIO LA 30 S.A.S.                        C000000000050400000000000000000000100010010000000000000000000000F0010000008128400420160115000101 00000000000000000000000000000000000000000000000000000000000000000000000000000000000000000000000000000000000000000N 00000000000NCONT   00    00000000000          00000000000000000000000000000000000000000000 000000000000000A000000000000000000000000000000000000000000000 000000000000000000000000000000000000000     00000000                                                                                                                        000000000000000000
F0010000008128400005000090027500500013552100000000000000000201601150002001MULTIALUMINIO LA 30 S.A.S.                        D000000000050400000000000000000000100010010000000000000000000000F0010000008128400520160115000101 00000000000000000000000000000000000000000000000000000000000000000000000000000000000000000000000000000000000000000N 00000000000NCONT   00    00000000000          00000000000000000000000000000000000000000000 000000000000000A000000000000000000000000000000000000000000000 000000000000000000000000000000000000000     00000000                                                                                                                        000000000000000000
