F0010000006914700001000090013324200013050500000000000000000201503120002001PLASTICOHEN E.U                                   D000000027130000000000000000000000100010010000000000000000000000F0010000006914700120150312000101 00000000000000000000000000000000000000000000000000000000000000000000000000000000000000000000000000000000000000000N 00000000000NCONT   00    00000000000          00000000000000000000000000000000000000000000 000000000000000A000000000000000000000000000000000000000000000 000000000000000000000000000000000000000     00000000                                                                                                                        000000000000000000
F0010000006914700002000090013324200041450500000000000000000201503120002001PLASTICOHEN E.U                                   C000000024830000000000000000000000100010010000000000000000000000F0010000006914700220150312000101 00000000000000000000000000000000000000000000000000000000000000000000000000000000000000000000000000000000000000000N 00000000000NCONT   00    00000000000          00000000000000000000000000000000000000000000 000000000000000A000000000000000000000000000000000000000000000 000000000000000000000000000000000000000     00000000                                                                                                                        000000000000000000
F0010000006914700003000090013324200042505000000000000000000201503120002001PLASTICOHEN E.U                                   C000000002300000000000000000000000100010010000000000000000000000F0010000006914700320150312000101 00000000000000000000000000000000000000000000000000000000000000000000000000000000000000000000000000000000000000000N 00000000000NCONT   00    00000000000          00000000000000000000000000000000000000000000 000000000000000A000000000000000000000000000000000000000000000 000000000000000000000000000000000000000     00000000                                                                                                                        000000000000000000
F0010000006914700004000090013324200023658300000000000000000201503120002001PLASTICOHEN E.U                                   C000000000198600000000000000000000100010010000000000000000000000F0010000006914700420150312000101 00000000000000000000000000000000000000000000000000000000000000000000000000000000000000000000000000000000000000000N 00000000000NCONT   00    00000000000          00000000000000000000000000000000000000000000 000000000000000A000000000000000000000000000000000000000000000 000000000000000000000000000000000000000     00000000                                                                                                                        000000000000000000
F0010000006914700005000090013324200013552100000000000000000201503120002001PLASTICOHEN E.U                                   D000000000198600000000000000000000100010010000000000000000000000F0010000006914700520150312000101 00000000000000000000000000000000000000000000000000000000000000000000000000000000000000000000000000000000000000000N 00000000000NCONT   00    00000000000          00000000000000000000000000000000000000000000 000000000000000A000000000000000000000000000000000000000000000 000000000000000000000000000000000000000     00000000                                                                                                                        000000000000000000
F0010000006914800001000003319910700011050500000000000000000201503120002001LUZ DARY JIMENEZ MARTINEZ                         D000000001100000000000000000000000100010010000000000000000000000F0010000006914800120150312000101 00000000000000000000000000000000000000000000000000000000000000000000000000000000000000000000000000000000000000000N 00000000000NCONT   00    00000000000          00000000000000000000000000000000000000000000 000000000000000A000000000000000000000000000000000000000000000 000000000000000000000000000000000000000     00000000                                                                                                                        000000000000000000
F0010000006914800002000003319910700041450500000000000000000201503120002001LUZ DARY JIMENEZ MARTINEZ                         C000000001000000000000000000000000100010010000000000000000000000F0010000006914800220150312000101 00000000000000000000000000000000000000000000000000000000000000000000000000000000000000000000000000000000000000000N 00000000000NCONT   00    00000000000          00000000000000000000000000000000000000000000 000000000000000A000000000000000000000000000000000000000000000 000000000000000000000000000000000000000     00000000                                                                                                                        000000000000000000
F0010000006914800003000003319910700042505000000000000000000201503120002001LUZ DARY JIMENEZ MARTINEZ                         C000000000100000000000000000000000100010010000000000000000000000F0010000006914800320150312000101 00000000000000000000000000000000000000000000000000000000000000000000000000000000000000000000000000000000000000000N 00000000000NCONT   00    00000000000          00000000000000000000000000000000000000000000 000000000000000A000000000000000000000000000000000000000000000 000000000000000000000000000000000000000     00000000                                                                                                                        000000000000000000
F0010000006914800004000003319910700023658300000000000000000201503120002001LUZ DARY JIMENEZ MARTINEZ                         C000000000008000000000000000000000100010010000000000000000000000F0010000006914800420150312000101 00000000000000000000000000000000000000000000000000000000000000000000000000000000000000000000000000000000000000000N 00000000000NCONT   00    00000000000          00000000000000000000000000000000000000000000 000000000000000A000000000000000000000000000000000000000000000 000000000000000000000000000000000000000     00000000                                                                                                                        000000000000000000
F0010000006914800005000003319910700013552100000000000000000201503120002001LUZ DARY JIMENEZ MARTINEZ                         D000000000008000000000000000000000100010010000000000000000000000F0010000006914800520150312000101 00000000000000000000000000000000000000000000000000000000000000000000000000000000000000000000000000000000000000000N 00000000000NCONT   00    00000000000          00000000000000000000000000000000000000000000 000000000000000A000000000000000000000000000000000000000000000 000000000000000000000000000000000000000     00000000                                                                                                                        000000000000000000
F0010000006914900001000003265780700011050500000000000000000201503120002001ZUNILDA GUERRERO                                  D000000002000000000000000000000000100010010000000000000000000000F0010000006914900120150312000101 00000000000000000000000000000000000000000000000000000000000000000000000000000000000000000000000000000000000000000N 00000000000NCONT   00    00000000000          00000000000000000000000000000000000000000000 000000000000000A000000000000000000000000000000000000000000000 000000000000000000000000000000000000000     00000000                                                                                                                        000000000000000000
F0010000006914900002000003265780700041450500000000000000000201503120002001ZUNILDA GUERRERO                                  C000000001500000000000000000000000100010010000000000000000000000F0010000006914900220150312000101 00000000000000000000000000000000000000000000000000000000000000000000000000000000000000000000000000000000000000000N 00000000000NCONT   00    00000000000          00000000000000000000000000000000000000000000 000000000000000A000000000000000000000000000000000000000000000 000000000000000000000000000000000000000     00000000                                                                                                                        000000000000000000
F0010000006914900003000003265780700042505000000000000000000201503120002001ZUNILDA GUERRERO                                  C000000000500000000000000000000000100010010000000000000000000000F0010000006914900320150312000101 00000000000000000000000000000000000000000000000000000000000000000000000000000000000000000000000000000000000000000N 00000000000NCONT   00    00000000000          00000000000000000000000000000000000000000000 000000000000000A000000000000000000000000000000000000000000000 000000000000000000000000000000000000000     00000000                                                                                                                        000000000000000000
F0010000006914900004000003265780700023658300000000000000000201503120002001ZUNILDA GUERRERO                                  C000000000012000000000000000000000100010010000000000000000000000F0010000006914900420150312000101 00000000000000000000000000000000000000000000000000000000000000000000000000000000000000000000000000000000000000000N 00000000000NCONT   00    00000000000          00000000000000000000000000000000000000000000 000000000000000A000000000000000000000000000000000000000000000 000000000000000000000000000000000000000     00000000                                                                                                                        000000000000000000
F0010000006914900005000003265780700013552100000000000000000201503120002001ZUNILDA GUERRERO                                  D000000000012000000000000000000000100010010000000000000000000000F0010000006914900520150312000101 00000000000000000000000000000000000000000000000000000000000000000000000000000000000000000000000000000000000000000N 00000000000NCONT   00    00000000000          00000000000000000000000000000000000000000000 000000000000000A000000000000000000000000000000000000000000000 000000000000000000000000000000000000000     00000000                                                                                                                        000000000000000000
F0010000006915000001000090020547900011050500000000000000000201503120002001DAC DEL CARIBE S.A.S.                             D000000003200000000000000000000000100010010000000000000000000000F0010000006915000120150312000101 00000000000000000000000000000000000000000000000000000000000000000000000000000000000000000000000000000000000000000N 00000000000NCONT   00    00000000000          00000000000000000000000000000000000000000000 000000000000000A000000000000000000000000000000000000000000000 000000000000000000000000000000000000000     00000000                                                                                                                        000000000000000000
F0010000006915000002000090020547900041450500000000000000000201503120002001DAC DEL CARIBE S.A.S.                             C000000002600000000000000000000000100010010000000000000000000000F0010000006915000220150312000101 00000000000000000000000000000000000000000000000000000000000000000000000000000000000000000000000000000000000000000N 00000000000NCONT   00    00000000000          00000000000000000000000000000000000000000000 000000000000000A000000000000000000000000000000000000000000000 000000000000000000000000000000000000000     00000000                                                                                                                        000000000000000000
F0010000006915000003000090020547900042505000000000000000000201503120002001DAC DEL CARIBE S.A.S.                             C000000000600000000000000000000000100010010000000000000000000000F0010000006915000320150312000101 00000000000000000000000000000000000000000000000000000000000000000000000000000000000000000000000000000000000000000N 00000000000NCONT   00    00000000000          00000000000000000000000000000000000000000000 000000000000000A000000000000000000000000000000000000000000000 000000000000000000000000000000000000000     00000000                                                                                                                        000000000000000000
F0010000006915000004000090020547900023658300000000000000000201503120002001DAC DEL CARIBE S.A.S.                             C000000000020800000000000000000000100010010000000000000000000000F0010000006915000420150312000101 00000000000000000000000000000000000000000000000000000000000000000000000000000000000000000000000000000000000000000N 00000000000NCONT   00    00000000000          00000000000000000000000000000000000000000000 000000000000000A000000000000000000000000000000000000000000000 000000000000000000000000000000000000000     00000000                                                                                                                        000000000000000000
F0010000006915000005000090020547900013552100000000000000000201503120002001DAC DEL CARIBE S.A.S.                             D000000000020800000000000000000000100010010000000000000000000000F0010000006915000520150312000101 00000000000000000000000000000000000000000000000000000000000000000000000000000000000000000000000000000000000000000N 00000000000NCONT   00    00000000000          00000000000000000000000000000000000000000000 000000000000000A000000000000000000000000000000000000000000000 000000000000000000000000000000000000000     00000000                                                                                                                        000000000000000000
F0010000006915100001000090073498600011050500000000000000000201503120002001VALTAC DEL CARIBE LTDA                            D000000002000000000000000000000000100010010000000000000000000000F0010000006915100120150312000101 00000000000000000000000000000000000000000000000000000000000000000000000000000000000000000000000000000000000000000N 00000000000NCONT   00    00000000000          00000000000000000000000000000000000000000000 000000000000000A000000000000000000000000000000000000000000000 000000000000000000000000000000000000000     00000000                                                                                                                        000000000000000000
F0010000006915100002000090073498600041450500000000000000000201503120002001VALTAC DEL CARIBE LTDA                            C000000001800000000000000000000000100010010000000000000000000000F0010000006915100220150312000101 00000000000000000000000000000000000000000000000000000000000000000000000000000000000000000000000000000000000000000N 00000000000NCONT   00    00000000000          00000000000000000000000000000000000000000000 000000000000000A000000000000000000000000000000000000000000000 000000000000000000000000000000000000000     00000000                                                                                                                        000000000000000000
F0010000006915100003000090073498600042505000000000000000000201503120002001VALTAC DEL CARIBE LTDA                            C000000000200000000000000000000000100010010000000000000000000000F0010000006915100320150312000101 00000000000000000000000000000000000000000000000000000000000000000000000000000000000000000000000000000000000000000N 00000000000NCONT   00    00000000000          00000000000000000000000000000000000000000000 000000000000000A000000000000000000000000000000000000000000000 000000000000000000000000000000000000000     00000000                                                                                                                        000000000000000000
F0010000006915100004000090073498600023658300000000000000000201503120002001VALTAC DEL CARIBE LTDA                            C000000000014400000000000000000000100010010000000000000000000000F0010000006915100420150312000101 00000000000000000000000000000000000000000000000000000000000000000000000000000000000000000000000000000000000000000N 00000000000NCONT   00    00000000000          00000000000000000000000000000000000000000000 000000000000000A000000000000000000000000000000000000000000000 000000000000000000000000000000000000000     00000000                                                                                                                        000000000000000000
F0010000006915100005000090073498600013552100000000000000000201503120002001VALTAC DEL CARIBE LTDA                            D000000000014400000000000000000000100010010000000000000000000000F0010000006915100520150312000101 00000000000000000000000000000000000000000000000000000000000000000000000000000000000000000000000000000000000000000N 00000000000NCONT   00    00000000000          00000000000000000000000000000000000000000000 000000000000000A000000000000000000000000000000000000000000000 000000000000000000000000000000000000000     00000000                                                                                                                        000000000000000000
F0010000006915200001000090073498600011050500000000000000000201503120002001VALTAC DEL CARIBE LTDA                            D000000002000000000000000000000000100010010000000000000000000000F0010000006915200120150312000101 00000000000000000000000000000000000000000000000000000000000000000000000000000000000000000000000000000000000000000N 00000000000NCONT   00    00000000000          00000000000000000000000000000000000000000000 000000000000000A000000000000000000000000000000000000000000000 000000000000000000000000000000000000000     00000000                                                                                                                        000000000000000000
F0010000006915200002000090073498600041450500000000000000000201503120002001VALTAC DEL CARIBE LTDA                            C000000001700000000000000000000000100010010000000000000000000000F0010000006915200220150312000101 00000000000000000000000000000000000000000000000000000000000000000000000000000000000000000000000000000000000000000N 00000000000NCONT   00    00000000000          00000000000000000000000000000000000000000000 000000000000000A000000000000000000000000000000000000000000000 000000000000000000000000000000000000000     00000000                                                                                                                        000000000000000000
F0010000006915200003000090073498600042505000000000000000000201503120002001VALTAC DEL CARIBE LTDA                            C000000000300000000000000000000000100010010000000000000000000000F0010000006915200320150312000101 00000000000000000000000000000000000000000000000000000000000000000000000000000000000000000000000000000000000000000N 00000000000NCONT   00    00000000000          00000000000000000000000000000000000000000000 000000000000000A000000000000000000000000000000000000000000000 000000000000000000000000000000000000000     00000000                                                                                                                        000000000000000000
F0010000006915200004000090073498600023658300000000000000000201503120002001VALTAC DEL CARIBE LTDA                            C000000000013600000000000000000000100010010000000000000000000000F0010000006915200420150312000101 00000000000000000000000000000000000000000000000000000000000000000000000000000000000000000000000000000000000000000N 00000000000NCONT   00    00000000000          00000000000000000000000000000000000000000000 000000000000000A000000000000000000000000000000000000000000000 000000000000000000000000000000000000000     00000000                                                                                                                        000000000000000000
F0010000006915200005000090073498600013552100000000000000000201503120002001VALTAC DEL CARIBE LTDA                            D000000000013600000000000000000000100010010000000000000000000000F0010000006915200520150312000101 00000000000000000000000000000000000000000000000000000000000000000000000000000000000000000000000000000000000000000N 00000000000NCONT   00    00000000000          00000000000000000000000000000000000000000000 000000000000000A000000000000000000000000000000000000000000000 000000000000000000000000000000000000000     00000000                                                                                                                        000000000000000000
F0010000006915300001000090034602400011050500000000000000000201503120002001LA CUSTODIA                                       D000000003000000000000000000000000100010010000000000000000000000F0010000006915300120150312000101 00000000000000000000000000000000000000000000000000000000000000000000000000000000000000000000000000000000000000000N 00000000000NCONT   00    00000000000          00000000000000000000000000000000000000000000 000000000000000A000000000000000000000000000000000000000000000 000000000000000000000000000000000000000     00000000                                                                                                                        000000000000000000
F0010000006915300002000090034602400041450500000000000000000201503120002001LA CUSTODIA                                       C000000002700000000000000000000000100010010000000000000000000000F0010000006915300220150312000101 00000000000000000000000000000000000000000000000000000000000000000000000000000000000000000000000000000000000000000N 00000000000NCONT   00    00000000000          00000000000000000000000000000000000000000000 000000000000000A000000000000000000000000000000000000000000000 000000000000000000000000000000000000000     00000000                                                                                                                        000000000000000000
F0010000006915300003000090034602400042505000000000000000000201503120002001LA CUSTODIA                                       C000000000300000000000000000000000100010010000000000000000000000F0010000006915300320150312000101 00000000000000000000000000000000000000000000000000000000000000000000000000000000000000000000000000000000000000000N 00000000000NCONT   00    00000000000          00000000000000000000000000000000000000000000 000000000000000A000000000000000000000000000000000000000000000 000000000000000000000000000000000000000     00000000                                                                                                                        000000000000000000
F0010000006915300004000090034602400023658300000000000000000201503120002001LA CUSTODIA                                       C000000000021600000000000000000000100010010000000000000000000000F0010000006915300420150312000101 00000000000000000000000000000000000000000000000000000000000000000000000000000000000000000000000000000000000000000N 00000000000NCONT   00    00000000000          00000000000000000000000000000000000000000000 000000000000000A000000000000000000000000000000000000000000000 000000000000000000000000000000000000000     00000000                                                                                                                        000000000000000000
F0010000006915300005000090034602400013552100000000000000000201503120002001LA CUSTODIA                                       D000000000021600000000000000000000100010010000000000000000000000F0010000006915300520150312000101 00000000000000000000000000000000000000000000000000000000000000000000000000000000000000000000000000000000000000000N 00000000000NCONT   00    00000000000          00000000000000000000000000000000000000000000 000000000000000A000000000000000000000000000000000000000000000 000000000000000000000000000000000000000     00000000                                                                                                                        000000000000000000
F0010000006915400001000090034602400011050500000000000000000201503120002001LA CUSTODIA                                       D000000001000000000000000000000000100010010000000000000000000000F0010000006915400120150312000101 00000000000000000000000000000000000000000000000000000000000000000000000000000000000000000000000000000000000000000N 00000000000NCONT   00    00000000000          00000000000000000000000000000000000000000000 000000000000000A000000000000000000000000000000000000000000000 000000000000000000000000000000000000000     00000000                                                                                                                        000000000000000000
F0010000006915400002000090034602400041450500000000000000000201503120002001LA CUSTODIA                                       C000000000900000000000000000000000100010010000000000000000000000F0010000006915400220150312000101 00000000000000000000000000000000000000000000000000000000000000000000000000000000000000000000000000000000000000000N 00000000000NCONT   00    00000000000          00000000000000000000000000000000000000000000 000000000000000A000000000000000000000000000000000000000000000 000000000000000000000000000000000000000     00000000                                                                                                                        000000000000000000
F0010000006915400003000090034602400042505000000000000000000201503120002001LA CUSTODIA                                       C000000000100000000000000000000000100010010000000000000000000000F0010000006915400320150312000101 00000000000000000000000000000000000000000000000000000000000000000000000000000000000000000000000000000000000000000N 00000000000NCONT   00    00000000000          00000000000000000000000000000000000000000000 000000000000000A000000000000000000000000000000000000000000000 000000000000000000000000000000000000000     00000000                                                                                                                        000000000000000000
F0010000006915400004000090034602400023658300000000000000000201503120002001LA CUSTODIA                                       C000000000007200000000000000000000100010010000000000000000000000F0010000006915400420150312000101 00000000000000000000000000000000000000000000000000000000000000000000000000000000000000000000000000000000000000000N 00000000000NCONT   00    00000000000          00000000000000000000000000000000000000000000 000000000000000A000000000000000000000000000000000000000000000 000000000000000000000000000000000000000     00000000                                                                                                                        000000000000000000
F0010000006915400005000090034602400013552100000000000000000201503120002001LA CUSTODIA                                       D000000000007200000000000000000000100010010000000000000000000000F0010000006915400520150312000101 00000000000000000000000000000000000000000000000000000000000000000000000000000000000000000000000000000000000000000N 00000000000NCONT   00    00000000000          00000000000000000000000000000000000000000000 000000000000000A000000000000000000000000000000000000000000000 000000000000000000000000000000000000000     00000000                                                                                                                        000000000000000000
F0010000006915500001000009004556700011050500000000000000000201503120002001CORDAS SAS                                        D000000010000000000000000000000000100010010000000000000000000000F0010000006915500120150312000101 00000000000000000000000000000000000000000000000000000000000000000000000000000000000000000000000000000000000000000N 00000000000NCONT   00    00000000000          00000000000000000000000000000000000000000000 000000000000000A000000000000000000000000000000000000000000000 000000000000000000000000000000000000000     00000000                                                                                                                        000000000000000000
F0010000006915500002000009004556700041450500000000000000000201503120002001CORDAS SAS                                        C000000008500000000000000000000000100010010000000000000000000000F0010000006915500220150312000101 00000000000000000000000000000000000000000000000000000000000000000000000000000000000000000000000000000000000000000N 00000000000NCONT   00    00000000000          00000000000000000000000000000000000000000000 000000000000000A000000000000000000000000000000000000000000000 000000000000000000000000000000000000000     00000000                                                                                                                        000000000000000000
F0010000006915500003000009004556700042505000000000000000000201503120002001CORDAS SAS                                        C000000001500000000000000000000000100010010000000000000000000000F0010000006915500320150312000101 00000000000000000000000000000000000000000000000000000000000000000000000000000000000000000000000000000000000000000N 00000000000NCONT   00    00000000000          00000000000000000000000000000000000000000000 000000000000000A000000000000000000000000000000000000000000000 000000000000000000000000000000000000000     00000000                                                                                                                        000000000000000000
F0010000006915500004000009004556700023658300000000000000000201503120002001CORDAS SAS                                        C000000000068000000000000000000000100010010000000000000000000000F0010000006915500420150312000101 00000000000000000000000000000000000000000000000000000000000000000000000000000000000000000000000000000000000000000N 00000000000NCONT   00    00000000000          00000000000000000000000000000000000000000000 000000000000000A000000000000000000000000000000000000000000000 000000000000000000000000000000000000000     00000000                                                                                                                        000000000000000000
F0010000006915500005000009004556700013552100000000000000000201503120002001CORDAS SAS                                        D000000000068000000000000000000000100010010000000000000000000000F0010000006915500520150312000101 00000000000000000000000000000000000000000000000000000000000000000000000000000000000000000000000000000000000000000N 00000000000NCONT   00    00000000000          00000000000000000000000000000000000000000000 000000000000000A000000000000000000000000000000000000000000000 000000000000000000000000000000000000000     00000000                                                                                                                        000000000000000000
F0010000006915600001000080011866000011050500000000000000000201503120002001ARKOS SISTEMAS ARQUITECTONICOS                    D000000002700000000000000000000000100010010000000000000000000000F0010000006915600120150312000101 00000000000000000000000000000000000000000000000000000000000000000000000000000000000000000000000000000000000000000N 00000000000NCONT   00    00000000000          00000000000000000000000000000000000000000000 000000000000000A000000000000000000000000000000000000000000000 000000000000000000000000000000000000000     00000000                                                                                                                        000000000000000000
F0010000006915600002000080011866000041450500000000000000000201503120002001ARKOS SISTEMAS ARQUITECTONICOS                    C000000002400000000000000000000000100010010000000000000000000000F0010000006915600220150312000101 00000000000000000000000000000000000000000000000000000000000000000000000000000000000000000000000000000000000000000N 00000000000NCONT   00    00000000000          00000000000000000000000000000000000000000000 000000000000000A000000000000000000000000000000000000000000000 000000000000000000000000000000000000000     00000000                                                                                                                        000000000000000000
F0010000006915600003000080011866000042505000000000000000000201503120002001ARKOS SISTEMAS ARQUITECTONICOS                    C000000000300000000000000000000000100010010000000000000000000000F0010000006915600320150312000101 00000000000000000000000000000000000000000000000000000000000000000000000000000000000000000000000000000000000000000N 00000000000NCONT   00    00000000000          00000000000000000000000000000000000000000000 000000000000000A000000000000000000000000000000000000000000000 000000000000000000000000000000000000000     00000000                                                                                                                        000000000000000000
F0010000006915600004000080011866000023658300000000000000000201503120002001ARKOS SISTEMAS ARQUITECTONICOS                    C000000000019200000000000000000000100010010000000000000000000000F0010000006915600420150312000101 00000000000000000000000000000000000000000000000000000000000000000000000000000000000000000000000000000000000000000N 00000000000NCONT   00    00000000000          00000000000000000000000000000000000000000000 000000000000000A000000000000000000000000000000000000000000000 000000000000000000000000000000000000000     00000000                                                                                                                        000000000000000000
F0010000006915600005000080011866000013552100000000000000000201503120002001ARKOS SISTEMAS ARQUITECTONICOS                    D000000000019200000000000000000000100010010000000000000000000000F0010000006915600520150312000101 00000000000000000000000000000000000000000000000000000000000000000000000000000000000000000000000000000000000000000N 00000000000NCONT   00    00000000000          00000000000000000000000000000000000000000000 000000000000000A000000000000000000000000000000000000000000000 000000000000000000000000000000000000000     00000000                                                                                                                        000000000000000000
F0010000006915700001000000870907300011050500000000000000000201503120002001SURTIDOR FERRETERO                                D000000012500000000000000000000000100010010000000000000000000000F0010000006915700120150312000101 00000000000000000000000000000000000000000000000000000000000000000000000000000000000000000000000000000000000000000N 00000000000NCONT   00    00000000000          00000000000000000000000000000000000000000000 000000000000000A000000000000000000000000000000000000000000000 000000000000000000000000000000000000000     00000000                                                                                                                        000000000000000000
F0010000006915700002000000870907300041450500000000000000000201503120002001SURTIDOR FERRETERO                                C000000009000000000000000000000000100010010000000000000000000000F0010000006915700220150312000101 00000000000000000000000000000000000000000000000000000000000000000000000000000000000000000000000000000000000000000N 00000000000NCONT   00    00000000000          00000000000000000000000000000000000000000000 000000000000000A000000000000000000000000000000000000000000000 000000000000000000000000000000000000000     00000000                                                                                                                        000000000000000000
F0010000006915700003000000870907300042505000000000000000000201503120002001SURTIDOR FERRETERO                                C000000003500000000000000000000000100010010000000000000000000000F0010000006915700320150312000101 00000000000000000000000000000000000000000000000000000000000000000000000000000000000000000000000000000000000000000N 00000000000NCONT   00    00000000000          00000000000000000000000000000000000000000000 000000000000000A000000000000000000000000000000000000000000000 000000000000000000000000000000000000000     00000000                                                                                                                        000000000000000000
F0010000006915700004000000870907300023658300000000000000000201503120002001SURTIDOR FERRETERO                                C000000000072000000000000000000000100010010000000000000000000000F0010000006915700420150312000101 00000000000000000000000000000000000000000000000000000000000000000000000000000000000000000000000000000000000000000N 00000000000NCONT   00    00000000000          00000000000000000000000000000000000000000000 000000000000000A000000000000000000000000000000000000000000000 000000000000000000000000000000000000000     00000000                                                                                                                        000000000000000000
F0010000006915700005000000870907300013552100000000000000000201503120002001SURTIDOR FERRETERO                                D000000000072000000000000000000000100010010000000000000000000000F0010000006915700520150312000101 00000000000000000000000000000000000000000000000000000000000000000000000000000000000000000000000000000000000000000N 00000000000NCONT   00    00000000000          00000000000000000000000000000000000000000000 000000000000000A000000000000000000000000000000000000000000000 000000000000000000000000000000000000000     00000000                                                                                                                        000000000000000000
F0010000006915800001000080024210600011050500000000000000000201503120002001SODIMAC COLOMBIA SA HOMECENTER                    D000000010000000000000000000000000100010010000000000000000000000F0010000006915800120150312000101 00000000000000000000000000000000000000000000000000000000000000000000000000000000000000000000000000000000000000000N 00000000000NCONT   00    00000000000          00000000000000000000000000000000000000000000 000000000000000A000000000000000000000000000000000000000000000 000000000000000000000000000000000000000     00000000                                                                                                                        000000000000000000
F0010000006915800002000080024210600041450500000000000000000201503120002001SODIMAC COLOMBIA SA HOMECENTER                    C000000009300000000000000000000000100010010000000000000000000000F0010000006915800220150312000101 00000000000000000000000000000000000000000000000000000000000000000000000000000000000000000000000000000000000000000N 00000000000NCONT   00    00000000000          00000000000000000000000000000000000000000000 000000000000000A000000000000000000000000000000000000000000000 000000000000000000000000000000000000000     00000000                                                                                                                        000000000000000000
F0010000006915800003000080024210600042505000000000000000000201503120002001SODIMAC COLOMBIA SA HOMECENTER                    C000000000700000000000000000000000100010010000000000000000000000F0010000006915800320150312000101 00000000000000000000000000000000000000000000000000000000000000000000000000000000000000000000000000000000000000000N 00000000000NCONT   00    00000000000          00000000000000000000000000000000000000000000 000000000000000A000000000000000000000000000000000000000000000 000000000000000000000000000000000000000     00000000                                                                                                                        000000000000000000
F0010000006915800004000080024210600023658300000000000000000201503120002001SODIMAC COLOMBIA SA HOMECENTER                    C000000000074400000000000000000000100010010000000000000000000000F0010000006915800420150312000101 00000000000000000000000000000000000000000000000000000000000000000000000000000000000000000000000000000000000000000N 00000000000NCONT   00    00000000000          00000000000000000000000000000000000000000000 000000000000000A000000000000000000000000000000000000000000000 000000000000000000000000000000000000000     00000000                                                                                                                        000000000000000000
F0010000006915800005000080024210600013552100000000000000000201503120002001SODIMAC COLOMBIA SA HOMECENTER                    D000000000074400000000000000000000100010010000000000000000000000F0010000006915800520150312000101 00000000000000000000000000000000000000000000000000000000000000000000000000000000000000000000000000000000000000000N 00000000000NCONT   00    00000000000          00000000000000000000000000000000000000000000 000000000000000A000000000000000000000000000000000000000000000 000000000000000000000000000000000000000     00000000                                                                                                                        000000000000000000
F0010000006915900001000080201432800011050500000000000000000201503120002001GAMACARIBE E INGENERIA SAS                        D000000016000000000000000000000000100010010000000000000000000000F0010000006915900120150312000101 00000000000000000000000000000000000000000000000000000000000000000000000000000000000000000000000000000000000000000N 00000000000NCONT   00    00000000000          00000000000000000000000000000000000000000000 000000000000000A000000000000000000000000000000000000000000000 000000000000000000000000000000000000000     00000000                                                                                                                        000000000000000000
F0010000006915900002000080201432800041450500000000000000000201503120002001GAMACARIBE E INGENERIA SAS                        C000000014000000000000000000000000100010010000000000000000000000F0010000006915900220150312000101 00000000000000000000000000000000000000000000000000000000000000000000000000000000000000000000000000000000000000000N 00000000000NCONT   00    00000000000          00000000000000000000000000000000000000000000 000000000000000A000000000000000000000000000000000000000000000 000000000000000000000000000000000000000     00000000                                                                                                                        000000000000000000
F0010000006915900003000080201432800042505000000000000000000201503120002001GAMACARIBE E INGENERIA SAS                        C000000002000000000000000000000000100010010000000000000000000000F0010000006915900320150312000101 00000000000000000000000000000000000000000000000000000000000000000000000000000000000000000000000000000000000000000N 00000000000NCONT   00    00000000000          00000000000000000000000000000000000000000000 000000000000000A000000000000000000000000000000000000000000000 000000000000000000000000000000000000000     00000000                                                                                                                        000000000000000000
F0010000006915900004000080201432800023658300000000000000000201503120002001GAMACARIBE E INGENERIA SAS                        C000000000112000000000000000000000100010010000000000000000000000F0010000006915900420150312000101 00000000000000000000000000000000000000000000000000000000000000000000000000000000000000000000000000000000000000000N 00000000000NCONT   00    00000000000          00000000000000000000000000000000000000000000 000000000000000A000000000000000000000000000000000000000000000 000000000000000000000000000000000000000     00000000                                                                                                                        000000000000000000
F0010000006915900005000080201432800013552100000000000000000201503120002001GAMACARIBE E INGENERIA SAS                        D000000000112000000000000000000000100010010000000000000000000000F0010000006915900520150312000101 00000000000000000000000000000000000000000000000000000000000000000000000000000000000000000000000000000000000000000N 00000000000NCONT   00    00000000000          00000000000000000000000000000000000000000000 000000000000000A000000000000000000000000000000000000000000000 000000000000000000000000000000000000000     00000000                                                                                                                        000000000000000000
F0010000006916000001000080012418800011050500000000000000000201503120002001DISTRITEC S.A.S                                   D000000004300000000000000000000000100010010000000000000000000000F0010000006916000120150312000101 00000000000000000000000000000000000000000000000000000000000000000000000000000000000000000000000000000000000000000N 00000000000NCONT   00    00000000000          00000000000000000000000000000000000000000000 000000000000000A000000000000000000000000000000000000000000000 000000000000000000000000000000000000000     00000000                                                                                                                        000000000000000000
F0010000006916000002000080012418800041450500000000000000000201503120002001DISTRITEC S.A.S                                   C000000004250000000000000000000000100010010000000000000000000000F0010000006916000220150312000101 00000000000000000000000000000000000000000000000000000000000000000000000000000000000000000000000000000000000000000N 00000000000NCONT   00    00000000000          00000000000000000000000000000000000000000000 000000000000000A000000000000000000000000000000000000000000000 000000000000000000000000000000000000000     00000000                                                                                                                        000000000000000000
F0010000006916000003000080012418800042505000000000000000000201503120002001DISTRITEC S.A.S                                   C000000000050000000000000000000000100010010000000000000000000000F0010000006916000320150312000101 00000000000000000000000000000000000000000000000000000000000000000000000000000000000000000000000000000000000000000N 00000000000NCONT   00    00000000000          00000000000000000000000000000000000000000000 000000000000000A000000000000000000000000000000000000000000000 000000000000000000000000000000000000000     00000000                                                                                                                        000000000000000000
F0010000006916000004000080012418800023658300000000000000000201503120002001DISTRITEC S.A.S                                   C000000000034000000000000000000000100010010000000000000000000000F0010000006916000420150312000101 00000000000000000000000000000000000000000000000000000000000000000000000000000000000000000000000000000000000000000N 00000000000NCONT   00    00000000000          00000000000000000000000000000000000000000000 000000000000000A000000000000000000000000000000000000000000000 000000000000000000000000000000000000000     00000000                                                                                                                        000000000000000000
F0010000006916000005000080012418800013552100000000000000000201503120002001DISTRITEC S.A.S                                   D000000000034000000000000000000000100010010000000000000000000000F0010000006916000520150312000101 00000000000000000000000000000000000000000000000000000000000000000000000000000000000000000000000000000000000000000N 00000000000NCONT   00    00000000000          00000000000000000000000000000000000000000000 000000000000000A000000000000000000000000000000000000000000000 000000000000000000000000000000000000000     00000000                                                                                                                        000000000000000000
F0010000006916100001000112950371000011050500000000000000000201503120002001OSCAR LUIS NUÑEZ PEREZ                           D000000009040000000000000000000000100010010000000000000000000000F0010000006916100120150312000101 00000000000000000000000000000000000000000000000000000000000000000000000000000000000000000000000000000000000000000N 00000000000NCONT   00    00000000000          00000000000000000000000000000000000000000000 000000000000000A000000000000000000000000000000000000000000000 000000000000000000000000000000000000000     00000000                                                                                                                        000000000000000000
F0010000006916100002000112950371000041450500000000000000000201503120002001OSCAR LUIS NUÑEZ PEREZ                           C000000007040000000000000000000000100010010000000000000000000000F0010000006916100220150312000101 00000000000000000000000000000000000000000000000000000000000000000000000000000000000000000000000000000000000000000N 00000000000NCONT   00    00000000000          00000000000000000000000000000000000000000000 000000000000000A000000000000000000000000000000000000000000000 000000000000000000000000000000000000000     00000000                                                                                                                        000000000000000000
F0010000006916100003000112950371000042505000000000000000000201503120002001OSCAR LUIS NUÑEZ PEREZ                           C000000002000000000000000000000000100010010000000000000000000000F0010000006916100320150312000101 00000000000000000000000000000000000000000000000000000000000000000000000000000000000000000000000000000000000000000N 00000000000NCONT   00    00000000000          00000000000000000000000000000000000000000000 000000000000000A000000000000000000000000000000000000000000000 000000000000000000000000000000000000000     00000000                                                                                                                        000000000000000000
F0010000006916100004000112950371000023658300000000000000000201503120002001OSCAR LUIS NUÑEZ PEREZ                           C000000000056300000000000000000000100010010000000000000000000000F0010000006916100420150312000101 00000000000000000000000000000000000000000000000000000000000000000000000000000000000000000000000000000000000000000N 00000000000NCONT   00    00000000000          00000000000000000000000000000000000000000000 000000000000000A000000000000000000000000000000000000000000000 000000000000000000000000000000000000000     00000000                                                                                                                        000000000000000000
F0010000006916100005000112950371000013552100000000000000000201503120002001OSCAR LUIS NUÑEZ PEREZ                           D000000000056300000000000000000000100010010000000000000000000000F0010000006916100520150312000101 00000000000000000000000000000000000000000000000000000000000000000000000000000000000000000000000000000000000000000N 00000000000NCONT   00    00000000000          00000000000000000000000000000000000000000000 000000000000000A000000000000000000000000000000000000000000000 000000000000000000000000000000000000000     00000000                                                                                                                        000000000000000000
F0010000006916200001000080200919100011050500000000000000000201503120002001V Y V LITOFLEX LTDA                               D000000001000000000000000000000000100010010000000000000000000000F0010000006916200120150312000101 00000000000000000000000000000000000000000000000000000000000000000000000000000000000000000000000000000000000000000N 00000000000NCONT   00    00000000000          00000000000000000000000000000000000000000000 000000000000000A000000000000000000000000000000000000000000000 000000000000000000000000000000000000000     00000000                                                                                                                        000000000000000000
F0010000006916200002000080200919100041450500000000000000000201503120002001V Y V LITOFLEX LTDA                               C000000000900000000000000000000000100010010000000000000000000000F0010000006916200220150312000101 00000000000000000000000000000000000000000000000000000000000000000000000000000000000000000000000000000000000000000N 00000000000NCONT   00    00000000000          00000000000000000000000000000000000000000000 000000000000000A000000000000000000000000000000000000000000000 000000000000000000000000000000000000000     00000000                                                                                                                        000000000000000000
F0010000006916200003000080200919100042505000000000000000000201503120002001V Y V LITOFLEX LTDA                               C000000000100000000000000000000000100010010000000000000000000000F0010000006916200320150312000101 00000000000000000000000000000000000000000000000000000000000000000000000000000000000000000000000000000000000000000N 00000000000NCONT   00    00000000000          00000000000000000000000000000000000000000000 000000000000000A000000000000000000000000000000000000000000000 000000000000000000000000000000000000000     00000000                                                                                                                        000000000000000000
F0010000006916200004000080200919100023658300000000000000000201503120002001V Y V LITOFLEX LTDA                               C000000000007200000000000000000000100010010000000000000000000000F0010000006916200420150312000101 00000000000000000000000000000000000000000000000000000000000000000000000000000000000000000000000000000000000000000N 00000000000NCONT   00    00000000000          00000000000000000000000000000000000000000000 000000000000000A000000000000000000000000000000000000000000000 000000000000000000000000000000000000000     00000000                                                                                                                        000000000000000000
F0010000006916200005000080200919100013552100000000000000000201503120002001V Y V LITOFLEX LTDA                               D000000000007200000000000000000000100010010000000000000000000000F0010000006916200520150312000101 00000000000000000000000000000000000000000000000000000000000000000000000000000000000000000000000000000000000000000N 00000000000NCONT   00    00000000000          00000000000000000000000000000000000000000000 000000000000000A000000000000000000000000000000000000000000000 000000000000000000000000000000000000000     00000000                                                                                                                        000000000000000000
F0010000006916300001000000431178400011050500000000000000000201503120002001EFRAIN ALVAREZ                                    D000000000430000000000000000000000100010010000000000000000000000F0010000006916300120150312000101 00000000000000000000000000000000000000000000000000000000000000000000000000000000000000000000000000000000000000000N 00000000000NCONT   00    00000000000          00000000000000000000000000000000000000000000 000000000000000A000000000000000000000000000000000000000000000 000000000000000000000000000000000000000     00000000                                                                                                                        000000000000000000
F0010000006916300002000000431178400041450500000000000000000201503120002001EFRAIN ALVAREZ                                    C000000000380000000000000000000000100010010000000000000000000000F0010000006916300220150312000101 00000000000000000000000000000000000000000000000000000000000000000000000000000000000000000000000000000000000000000N 00000000000NCONT   00    00000000000          00000000000000000000000000000000000000000000 000000000000000A000000000000000000000000000000000000000000000 000000000000000000000000000000000000000     00000000                                                                                                                        000000000000000000
F0010000006916300003000000431178400042505000000000000000000201503120002001EFRAIN ALVAREZ                                    C000000000050000000000000000000000100010010000000000000000000000F0010000006916300320150312000101 00000000000000000000000000000000000000000000000000000000000000000000000000000000000000000000000000000000000000000N 00000000000NCONT   00    00000000000          00000000000000000000000000000000000000000000 000000000000000A000000000000000000000000000000000000000000000 000000000000000000000000000000000000000     00000000                                                                                                                        000000000000000000
F0010000006916300004000000431178400023658300000000000000000201503120002001EFRAIN ALVAREZ                                    C000000000003000000000000000000000100010010000000000000000000000F0010000006916300420150312000101 00000000000000000000000000000000000000000000000000000000000000000000000000000000000000000000000000000000000000000N 00000000000NCONT   00    00000000000          00000000000000000000000000000000000000000000 000000000000000A000000000000000000000000000000000000000000000 000000000000000000000000000000000000000     00000000                                                                                                                        000000000000000000
F0010000006916300005000000431178400013552100000000000000000201503120002001EFRAIN ALVAREZ                                    D000000000003000000000000000000000100010010000000000000000000000F0010000006916300520150312000101 00000000000000000000000000000000000000000000000000000000000000000000000000000000000000000000000000000000000000000N 00000000000NCONT   00    00000000000          00000000000000000000000000000000000000000000 000000000000000A000000000000000000000000000000000000000000000 000000000000000000000000000000000000000     00000000                                                                                                                        000000000000000000
F0010000006916400001000000431178400011050500000000000000000201503120002001EFRAIN ALVAREZ                                    D000000003720000000000000000000000100010010000000000000000000000F0010000006916400120150312000101 00000000000000000000000000000000000000000000000000000000000000000000000000000000000000000000000000000000000000000N 00000000000NCONT   00    00000000000          00000000000000000000000000000000000000000000 000000000000000A000000000000000000000000000000000000000000000 000000000000000000000000000000000000000     00000000                                                                                                                        000000000000000000
F0010000006916400002000000431178400041450500000000000000000201503120002001EFRAIN ALVAREZ                                    C000000003570000000000000000000000100010010000000000000000000000F0010000006916400220150312000101 00000000000000000000000000000000000000000000000000000000000000000000000000000000000000000000000000000000000000000N 00000000000NCONT   00    00000000000          00000000000000000000000000000000000000000000 000000000000000A000000000000000000000000000000000000000000000 000000000000000000000000000000000000000     00000000                                                                                                                        000000000000000000
F0010000006916400003000000431178400042505000000000000000000201503120002001EFRAIN ALVAREZ                                    C000000000150000000000000000000000100010010000000000000000000000F0010000006916400320150312000101 00000000000000000000000000000000000000000000000000000000000000000000000000000000000000000000000000000000000000000N 00000000000NCONT   00    00000000000          00000000000000000000000000000000000000000000 000000000000000A000000000000000000000000000000000000000000000 000000000000000000000000000000000000000     00000000                                                                                                                        000000000000000000
F0010000006916400004000000431178400023658300000000000000000201503120002001EFRAIN ALVAREZ                                    C000000000028600000000000000000000100010010000000000000000000000F0010000006916400420150312000101 00000000000000000000000000000000000000000000000000000000000000000000000000000000000000000000000000000000000000000N 00000000000NCONT   00    00000000000          00000000000000000000000000000000000000000000 000000000000000A000000000000000000000000000000000000000000000 000000000000000000000000000000000000000     00000000                                                                                                                        000000000000000000
F0010000006916400005000000431178400013552100000000000000000201503120002001EFRAIN ALVAREZ                                    D000000000028600000000000000000000100010010000000000000000000000F0010000006916400520150312000101 00000000000000000000000000000000000000000000000000000000000000000000000000000000000000000000000000000000000000000N 00000000000NCONT   00    00000000000          00000000000000000000000000000000000000000000 000000000000000A000000000000000000000000000000000000000000000 000000000000000000000000000000000000000     00000000                                                                                                                        000000000000000000
F0010000006916500001000090030239000011050500000000000000000201503120002001COMERCIALIZADORA JUVACEK                          D000000015000000000000000000000000100010010000000000000000000000F0010000006916500120150312000101 00000000000000000000000000000000000000000000000000000000000000000000000000000000000000000000000000000000000000000N 00000000000NCONT   00    00000000000          00000000000000000000000000000000000000000000 000000000000000A000000000000000000000000000000000000000000000 000000000000000000000000000000000000000     00000000                                                                                                                        000000000000000000
F0010000006916500002000090030239000041450500000000000000000201503120002001COMERCIALIZADORA JUVACEK                          C000000014500000000000000000000000100010010000000000000000000000F0010000006916500220150312000101 00000000000000000000000000000000000000000000000000000000000000000000000000000000000000000000000000000000000000000N 00000000000NCONT   00    00000000000          00000000000000000000000000000000000000000000 000000000000000A000000000000000000000000000000000000000000000 000000000000000000000000000000000000000     00000000                                                                                                                        000000000000000000
F0010000006916500003000090030239000042505000000000000000000201503120002001COMERCIALIZADORA JUVACEK                          C000000000500000000000000000000000100010010000000000000000000000F0010000006916500320150312000101 00000000000000000000000000000000000000000000000000000000000000000000000000000000000000000000000000000000000000000N 00000000000NCONT   00    00000000000          00000000000000000000000000000000000000000000 000000000000000A000000000000000000000000000000000000000000000 000000000000000000000000000000000000000     00000000                                                                                                                        000000000000000000
F0010000006916500004000090030239000023658300000000000000000201503120002001COMERCIALIZADORA JUVACEK                          C000000000116000000000000000000000100010010000000000000000000000F0010000006916500420150312000101 00000000000000000000000000000000000000000000000000000000000000000000000000000000000000000000000000000000000000000N 00000000000NCONT   00    00000000000          00000000000000000000000000000000000000000000 000000000000000A000000000000000000000000000000000000000000000 000000000000000000000000000000000000000     00000000                                                                                                                        000000000000000000
F0010000006916500005000090030239000013552100000000000000000201503120002001COMERCIALIZADORA JUVACEK                          D000000000116000000000000000000000100010010000000000000000000000F0010000006916500520150312000101 00000000000000000000000000000000000000000000000000000000000000000000000000000000000000000000000000000000000000000N 00000000000NCONT   00    00000000000          00000000000000000000000000000000000000000000 000000000000000A000000000000000000000000000000000000000000000 000000000000000000000000000000000000000     00000000                                                                                                                        000000000000000000
F0010000006916600001000107252647100011050500000000000000000201503120002001JHON BYRON DUQUE DONADO (BODEGA JHONIFER)         D000000001000000000000000000000000100010010000000000000000000000F0010000006916600120150312000101 00000000000000000000000000000000000000000000000000000000000000000000000000000000000000000000000000000000000000000N 00000000000NCONT   00    00000000000          00000000000000000000000000000000000000000000 000000000000000A000000000000000000000000000000000000000000000 000000000000000000000000000000000000000     00000000                                                                                                                        000000000000000000
F0010000006916600002000107252647100041450500000000000000000201503120002001JHON BYRON DUQUE DONADO (BODEGA JHONIFER)         C000000000900000000000000000000000100010010000000000000000000000F0010000006916600220150312000101 00000000000000000000000000000000000000000000000000000000000000000000000000000000000000000000000000000000000000000N 00000000000NCONT   00    00000000000          00000000000000000000000000000000000000000000 000000000000000A000000000000000000000000000000000000000000000 000000000000000000000000000000000000000     00000000                                                                                                                        000000000000000000
F0010000006916600003000107252647100042505000000000000000000201503120002001JHON BYRON DUQUE DONADO (BODEGA JHONIFER)         C000000000100000000000000000000000100010010000000000000000000000F0010000006916600320150312000101 00000000000000000000000000000000000000000000000000000000000000000000000000000000000000000000000000000000000000000N 00000000000NCONT   00    00000000000          00000000000000000000000000000000000000000000 000000000000000A000000000000000000000000000000000000000000000 000000000000000000000000000000000000000     00000000                                                                                                                        000000000000000000
F0010000006916600004000107252647100023658300000000000000000201503120002001JHON BYRON DUQUE DONADO (BODEGA JHONIFER)         C000000000007200000000000000000000100010010000000000000000000000F0010000006916600420150312000101 00000000000000000000000000000000000000000000000000000000000000000000000000000000000000000000000000000000000000000N 00000000000NCONT   00    00000000000          00000000000000000000000000000000000000000000 000000000000000A000000000000000000000000000000000000000000000 000000000000000000000000000000000000000     00000000                                                                                                                        000000000000000000
F0010000006916600005000107252647100013552100000000000000000201503120002001JHON BYRON DUQUE DONADO (BODEGA JHONIFER)         D000000000007200000000000000000000100010010000000000000000000000F0010000006916600520150312000101 00000000000000000000000000000000000000000000000000000000000000000000000000000000000000000000000000000000000000000N 00000000000NCONT   00    00000000000          00000000000000000000000000000000000000000000 000000000000000A000000000000000000000000000000000000000000000 000000000000000000000000000000000000000     00000000                                                                                                                        000000000000000000
F0010000006916700001000090037881900011050500000000000000000201503120002001COMERCIALIZADORA RACOPI S.A.S                     D000000001500000000000000000000000100010010000000000000000000000F0010000006916700120150312000101 00000000000000000000000000000000000000000000000000000000000000000000000000000000000000000000000000000000000000000N 00000000000NCONT   00    00000000000          00000000000000000000000000000000000000000000 000000000000000A000000000000000000000000000000000000000000000 000000000000000000000000000000000000000     00000000                                                                                                                        000000000000000000
F0010000006916700002000090037881900041450500000000000000000201503120002001COMERCIALIZADORA RACOPI S.A.S                     C000000001000000000000000000000000100010010000000000000000000000F0010000006916700220150312000101 00000000000000000000000000000000000000000000000000000000000000000000000000000000000000000000000000000000000000000N 00000000000NCONT   00    00000000000          00000000000000000000000000000000000000000000 000000000000000A000000000000000000000000000000000000000000000 000000000000000000000000000000000000000     00000000                                                                                                                        000000000000000000
F0010000006916700003000090037881900042505000000000000000000201503120002001COMERCIALIZADORA RACOPI S.A.S                     C000000000500000000000000000000000100010010000000000000000000000F0010000006916700320150312000101 00000000000000000000000000000000000000000000000000000000000000000000000000000000000000000000000000000000000000000N 00000000000NCONT   00    00000000000          00000000000000000000000000000000000000000000 000000000000000A000000000000000000000000000000000000000000000 000000000000000000000000000000000000000     00000000                                                                                                                        000000000000000000
F0010000006916700004000090037881900023658300000000000000000201503120002001COMERCIALIZADORA RACOPI S.A.S                     C000000000008000000000000000000000100010010000000000000000000000F0010000006916700420150312000101 00000000000000000000000000000000000000000000000000000000000000000000000000000000000000000000000000000000000000000N 00000000000NCONT   00    00000000000          00000000000000000000000000000000000000000000 000000000000000A000000000000000000000000000000000000000000000 000000000000000000000000000000000000000     00000000                                                                                                                        000000000000000000
F0010000006916700005000090037881900013552100000000000000000201503120002001COMERCIALIZADORA RACOPI S.A.S                     D000000000008000000000000000000000100010010000000000000000000000F0010000006916700520150312000101 00000000000000000000000000000000000000000000000000000000000000000000000000000000000000000000000000000000000000000N 00000000000NCONT   00    00000000000          00000000000000000000000000000000000000000000 000000000000000A000000000000000000000000000000000000000000000 000000000000000000000000000000000000000     00000000                                                                                                                        000000000000000000
F0010000006916800001000080202350700011050500000000000000000201503120002001CONNY DE LA COSTA SAS                             D000000015000000000000000000000000100010010000000000000000000000F0010000006916800120150312000101 00000000000000000000000000000000000000000000000000000000000000000000000000000000000000000000000000000000000000000N 00000000000NCONT   00    00000000000          00000000000000000000000000000000000000000000 000000000000000A000000000000000000000000000000000000000000000 000000000000000000000000000000000000000     00000000                                                                                                                        000000000000000000
F0010000006916800002000080202350700041450500000000000000000201503120002001CONNY DE LA COSTA SAS                             C000000011500000000000000000000000100010010000000000000000000000F0010000006916800220150312000101 00000000000000000000000000000000000000000000000000000000000000000000000000000000000000000000000000000000000000000N 00000000000NCONT   00    00000000000          00000000000000000000000000000000000000000000 000000000000000A000000000000000000000000000000000000000000000 000000000000000000000000000000000000000     00000000                                                                                                                        000000000000000000
F0010000006916800003000080202350700042505000000000000000000201503120002001CONNY DE LA COSTA SAS                             C000000003500000000000000000000000100010010000000000000000000000F0010000006916800320150312000101 00000000000000000000000000000000000000000000000000000000000000000000000000000000000000000000000000000000000000000N 00000000000NCONT   00    00000000000          00000000000000000000000000000000000000000000 000000000000000A000000000000000000000000000000000000000000000 000000000000000000000000000000000000000     00000000                                                                                                                        000000000000000000
F0010000006916800004000080202350700023658300000000000000000201503120002001CONNY DE LA COSTA SAS                             C000000000092000000000000000000000100010010000000000000000000000F0010000006916800420150312000101 00000000000000000000000000000000000000000000000000000000000000000000000000000000000000000000000000000000000000000N 00000000000NCONT   00    00000000000          00000000000000000000000000000000000000000000 000000000000000A000000000000000000000000000000000000000000000 000000000000000000000000000000000000000     00000000                                                                                                                        000000000000000000
F0010000006916800005000080202350700013552100000000000000000201503120002001CONNY DE LA COSTA SAS                             D000000000092000000000000000000000100010010000000000000000000000F0010000006916800520150312000101 00000000000000000000000000000000000000000000000000000000000000000000000000000000000000000000000000000000000000000N 00000000000NCONT   00    00000000000          00000000000000000000000000000000000000000000 000000000000000A000000000000000000000000000000000000000000000 000000000000000000000000000000000000000     00000000                                                                                                                        000000000000000000
F0010000006916900001000007229328500011050500000000000000000201503120002001PV ELECTRIC   DEL CARIBE                          D000000025000000000000000000000000100010010000000000000000000000F0010000006916900120150312000101 00000000000000000000000000000000000000000000000000000000000000000000000000000000000000000000000000000000000000000N 00000000000NCONT   00    00000000000          00000000000000000000000000000000000000000000 000000000000000A000000000000000000000000000000000000000000000 000000000000000000000000000000000000000     00000000                                                                                                                        000000000000000000
F0010000006916900002000007229328500041450500000000000000000201503120002001PV ELECTRIC   DEL CARIBE                          C000000022500000000000000000000000100010010000000000000000000000F0010000006916900220150312000101 00000000000000000000000000000000000000000000000000000000000000000000000000000000000000000000000000000000000000000N 00000000000NCONT   00    00000000000          00000000000000000000000000000000000000000000 000000000000000A000000000000000000000000000000000000000000000 000000000000000000000000000000000000000     00000000                                                                                                                        000000000000000000
F0010000006916900003000007229328500042505000000000000000000201503120002001PV ELECTRIC   DEL CARIBE                          C000000002500000000000000000000000100010010000000000000000000000F0010000006916900320150312000101 00000000000000000000000000000000000000000000000000000000000000000000000000000000000000000000000000000000000000000N 00000000000NCONT   00    00000000000          00000000000000000000000000000000000000000000 000000000000000A000000000000000000000000000000000000000000000 000000000000000000000000000000000000000     00000000                                                                                                                        000000000000000000
F0010000006916900004000007229328500023658300000000000000000201503120002001PV ELECTRIC   DEL CARIBE                          C000000000180000000000000000000000100010010000000000000000000000F0010000006916900420150312000101 00000000000000000000000000000000000000000000000000000000000000000000000000000000000000000000000000000000000000000N 00000000000NCONT   00    00000000000          00000000000000000000000000000000000000000000 000000000000000A000000000000000000000000000000000000000000000 000000000000000000000000000000000000000     00000000                                                                                                                        000000000000000000
F0010000006916900005000007229328500013552100000000000000000201503120002001PV ELECTRIC   DEL CARIBE                          D000000000180000000000000000000000100010010000000000000000000000F0010000006916900520150312000101 00000000000000000000000000000000000000000000000000000000000000000000000000000000000000000000000000000000000000000N 00000000000NCONT   00    00000000000          00000000000000000000000000000000000000000000 000000000000000A000000000000000000000000000000000000000000000 000000000000000000000000000000000000000     00000000                                                                                                                        000000000000000000
F0010000006917000001000007229328500011050500000000000000000201503120002001PV ELECTRIC   DEL CARIBE                          D000000003000000000000000000000000100010010000000000000000000000F0010000006917000120150312000101 00000000000000000000000000000000000000000000000000000000000000000000000000000000000000000000000000000000000000000N 00000000000NCONT   00    00000000000          00000000000000000000000000000000000000000000 000000000000000A000000000000000000000000000000000000000000000 000000000000000000000000000000000000000     00000000                                                                                                                        000000000000000000
F0010000006917000002000007229328500041450500000000000000000201503120002001PV ELECTRIC   DEL CARIBE                          C000000002600000000000000000000000100010010000000000000000000000F0010000006917000220150312000101 00000000000000000000000000000000000000000000000000000000000000000000000000000000000000000000000000000000000000000N 00000000000NCONT   00    00000000000          00000000000000000000000000000000000000000000 000000000000000A000000000000000000000000000000000000000000000 000000000000000000000000000000000000000     00000000                                                                                                                        000000000000000000
F0010000006917000003000007229328500042505000000000000000000201503120002001PV ELECTRIC   DEL CARIBE                          C000000000400000000000000000000000100010010000000000000000000000F0010000006917000320150312000101 00000000000000000000000000000000000000000000000000000000000000000000000000000000000000000000000000000000000000000N 00000000000NCONT   00    00000000000          00000000000000000000000000000000000000000000 000000000000000A000000000000000000000000000000000000000000000 000000000000000000000000000000000000000     00000000                                                                                                                        000000000000000000
F0010000006917000004000007229328500023658300000000000000000201503120002001PV ELECTRIC   DEL CARIBE                          C000000000020800000000000000000000100010010000000000000000000000F0010000006917000420150312000101 00000000000000000000000000000000000000000000000000000000000000000000000000000000000000000000000000000000000000000N 00000000000NCONT   00    00000000000          00000000000000000000000000000000000000000000 000000000000000A000000000000000000000000000000000000000000000 000000000000000000000000000000000000000     00000000                                                                                                                        000000000000000000
F0010000006917000005000007229328500013552100000000000000000201503120002001PV ELECTRIC   DEL CARIBE                          D000000000020800000000000000000000100010010000000000000000000000F0010000006917000520150312000101 00000000000000000000000000000000000000000000000000000000000000000000000000000000000000000000000000000000000000000N 00000000000NCONT   00    00000000000          00000000000000000000000000000000000000000000 000000000000000A000000000000000000000000000000000000000000000 000000000000000000000000000000000000000     00000000                                                                                                                        000000000000000000
F0010000006917100001000086003979400011050500000000000000000201503120002001CALYPSO BARRANQUILLA LTDA                         D000000100000000000000000000000000100010010000000000000000000000F0010000006917100120150312000101 00000000000000000000000000000000000000000000000000000000000000000000000000000000000000000000000000000000000000000N 00000000000NCONT   00    00000000000          00000000000000000000000000000000000000000000 000000000000000A000000000000000000000000000000000000000000000 000000000000000000000000000000000000000     00000000                                                                                                                        000000000000000000
F0010000006917100002000086003979400041450500000000000000000201503120002001CALYPSO BARRANQUILLA LTDA                         C000000089630000000000000000000000100010010000000000000000000000F0010000006917100220150312000101 00000000000000000000000000000000000000000000000000000000000000000000000000000000000000000000000000000000000000000N 00000000000NCONT   00    00000000000          00000000000000000000000000000000000000000000 000000000000000A000000000000000000000000000000000000000000000 000000000000000000000000000000000000000     00000000                                                                                                                        000000000000000000
F0010000006917100003000086003979400042505000000000000000000201503120002001CALYPSO BARRANQUILLA LTDA                         C000000010370000000000000000000000100010010000000000000000000000F0010000006917100320150312000101 00000000000000000000000000000000000000000000000000000000000000000000000000000000000000000000000000000000000000000N 00000000000NCONT   00    00000000000          00000000000000000000000000000000000000000000 000000000000000A000000000000000000000000000000000000000000000 000000000000000000000000000000000000000     00000000                                                                                                                        000000000000000000
F0010000006917100004000086003979400023658300000000000000000201503120002001CALYPSO BARRANQUILLA LTDA                         C000000000717000000000000000000000100010010000000000000000000000F0010000006917100420150312000101 00000000000000000000000000000000000000000000000000000000000000000000000000000000000000000000000000000000000000000N 00000000000NCONT   00    00000000000          00000000000000000000000000000000000000000000 000000000000000A000000000000000000000000000000000000000000000 000000000000000000000000000000000000000     00000000                                                                                                                        000000000000000000
F0010000006917100005000086003979400013552100000000000000000201503120002001CALYPSO BARRANQUILLA LTDA                         D000000000717000000000000000000000100010010000000000000000000000F0010000006917100520150312000101 00000000000000000000000000000000000000000000000000000000000000000000000000000000000000000000000000000000000000000N 00000000000NCONT   00    00000000000          00000000000000000000000000000000000000000000 000000000000000A000000000000000000000000000000000000000000000 000000000000000000000000000000000000000     00000000                                                                                                                        000000000000000000
F0010000006917200001000080201703900011050500000000000000000201503120002001MUNDIAL CHEMICAL LTDA                             D000000001800000000000000000000000100010010000000000000000000000F0010000006917200120150312000101 00000000000000000000000000000000000000000000000000000000000000000000000000000000000000000000000000000000000000000N 00000000000NCONT   00    00000000000          00000000000000000000000000000000000000000000 000000000000000A000000000000000000000000000000000000000000000 000000000000000000000000000000000000000     00000000                                                                                                                        000000000000000000
F0010000006917200002000080201703900041450500000000000000000201503120002001MUNDIAL CHEMICAL LTDA                             C000000001400000000000000000000000100010010000000000000000000000F0010000006917200220150312000101 00000000000000000000000000000000000000000000000000000000000000000000000000000000000000000000000000000000000000000N 00000000000NCONT   00    00000000000          00000000000000000000000000000000000000000000 000000000000000A000000000000000000000000000000000000000000000 000000000000000000000000000000000000000     00000000                                                                                                                        000000000000000000
F0010000006917200003000080201703900042505000000000000000000201503120002001MUNDIAL CHEMICAL LTDA                             C000000000400000000000000000000000100010010000000000000000000000F0010000006917200320150312000101 00000000000000000000000000000000000000000000000000000000000000000000000000000000000000000000000000000000000000000N 00000000000NCONT   00    00000000000          00000000000000000000000000000000000000000000 000000000000000A000000000000000000000000000000000000000000000 000000000000000000000000000000000000000     00000000                                                                                                                        000000000000000000
F0010000006917200004000080201703900023658300000000000000000201503120002001MUNDIAL CHEMICAL LTDA                             C000000000011200000000000000000000100010010000000000000000000000F0010000006917200420150312000101 00000000000000000000000000000000000000000000000000000000000000000000000000000000000000000000000000000000000000000N 00000000000NCONT   00    00000000000          00000000000000000000000000000000000000000000 000000000000000A000000000000000000000000000000000000000000000 000000000000000000000000000000000000000     00000000                                                                                                                        000000000000000000
F0010000006917200005000080201703900013552100000000000000000201503120002001MUNDIAL CHEMICAL LTDA                             D000000000011200000000000000000000100010010000000000000000000000F0010000006917200520150312000101 00000000000000000000000000000000000000000000000000000000000000000000000000000000000000000000000000000000000000000N 00000000000NCONT   00    00000000000          00000000000000000000000000000000000000000000 000000000000000A000000000000000000000000000000000000000000000 000000000000000000000000000000000000000     00000000                                                                                                                        000000000000000000
F0010000006917300001000089011033000011050500000000000000000201503120002001INDUSTRIAS CRUZ & CAÑON LTDA                     D000000025000000000000000000000000100010010000000000000000000000F0010000006917300120150312000101 00000000000000000000000000000000000000000000000000000000000000000000000000000000000000000000000000000000000000000N 00000000000NCONT   00    00000000000          00000000000000000000000000000000000000000000 000000000000000A000000000000000000000000000000000000000000000 000000000000000000000000000000000000000     00000000                                                                                                                        000000000000000000
F0010000006917300002000089011033000041450500000000000000000201503120002001INDUSTRIAS CRUZ & CAÑON LTDA                     C000000023500000000000000000000000100010010000000000000000000000F0010000006917300220150312000101 00000000000000000000000000000000000000000000000000000000000000000000000000000000000000000000000000000000000000000N 00000000000NCONT   00    00000000000          00000000000000000000000000000000000000000000 000000000000000A000000000000000000000000000000000000000000000 000000000000000000000000000000000000000     00000000                                                                                                                        000000000000000000
F0010000006917300003000089011033000042505000000000000000000201503120002001INDUSTRIAS CRUZ & CAÑON LTDA                     C000000001500000000000000000000000100010010000000000000000000000F0010000006917300320150312000101 00000000000000000000000000000000000000000000000000000000000000000000000000000000000000000000000000000000000000000N 00000000000NCONT   00    00000000000          00000000000000000000000000000000000000000000 000000000000000A000000000000000000000000000000000000000000000 000000000000000000000000000000000000000     00000000                                                                                                                        000000000000000000
F0010000006917300004000089011033000023658300000000000000000201503120002001INDUSTRIAS CRUZ & CAÑON LTDA                     C000000000188000000000000000000000100010010000000000000000000000F0010000006917300420150312000101 00000000000000000000000000000000000000000000000000000000000000000000000000000000000000000000000000000000000000000N 00000000000NCONT   00    00000000000          00000000000000000000000000000000000000000000 000000000000000A000000000000000000000000000000000000000000000 000000000000000000000000000000000000000     00000000                                                                                                                        000000000000000000
F0010000006917300005000089011033000013552100000000000000000201503120002001INDUSTRIAS CRUZ & CAÑON LTDA                     D000000000188000000000000000000000100010010000000000000000000000F0010000006917300520150312000101 00000000000000000000000000000000000000000000000000000000000000000000000000000000000000000000000000000000000000000N 00000000000NCONT   00    00000000000          00000000000000000000000000000000000000000000 000000000000000A000000000000000000000000000000000000000000000 000000000000000000000000000000000000000     00000000                                                                                                                        000000000000000000
