F0010000007466000001000007225219800011050500000000000000000201508120002001MAURICIO ALVAREZ VARELO                           D000000002300000000000000000000000100010010000000000000000000000F0010000007466000120150812000101 00000000000000000000000000000000000000000000000000000000000000000000000000000000000000000000000000000000000000000N 00000000000NCONT   00    00000000000          00000000000000000000000000000000000000000000 000000000000000A000000000000000000000000000000000000000000000 000000000000000000000000000000000000000     00000000                                                                                                                        000000000000000000
F0010000007466000002000007225219800041450500000000000000000201508120002001MAURICIO ALVAREZ VARELO                           C000000001800000000000000000000000100010010000000000000000000000F0010000007466000220150812000101 00000000000000000000000000000000000000000000000000000000000000000000000000000000000000000000000000000000000000000N 00000000000NCONT   00    00000000000          00000000000000000000000000000000000000000000 000000000000000A000000000000000000000000000000000000000000000 000000000000000000000000000000000000000     00000000                                                                                                                        000000000000000000
F0010000007466000003000007225219800042505000000000000000000201508120002001MAURICIO ALVAREZ VARELO                           C000000000500000000000000000000000100010010000000000000000000000F0010000007466000320150812000101 00000000000000000000000000000000000000000000000000000000000000000000000000000000000000000000000000000000000000000N 00000000000NCONT   00    00000000000          00000000000000000000000000000000000000000000 000000000000000A000000000000000000000000000000000000000000000 000000000000000000000000000000000000000     00000000                                                                                                                        000000000000000000
F0010000007466000004000007225219800023658300000000000000000201508120002001MAURICIO ALVAREZ VARELO                           C000000000014400000000000000000000100010010000000000000000000000F0010000007466000420150812000101 00000000000000000000000000000000000000000000000000000000000000000000000000000000000000000000000000000000000000000N 00000000000NCONT   00    00000000000          00000000000000000000000000000000000000000000 000000000000000A000000000000000000000000000000000000000000000 000000000000000000000000000000000000000     00000000                                                                                                                        000000000000000000
F0010000007466000005000007225219800013552100000000000000000201508120002001MAURICIO ALVAREZ VARELO                           D000000000014400000000000000000000100010010000000000000000000000F0010000007466000520150812000101 00000000000000000000000000000000000000000000000000000000000000000000000000000000000000000000000000000000000000000N 00000000000NCONT   00    00000000000          00000000000000000000000000000000000000000000 000000000000000A000000000000000000000000000000000000000000000 000000000000000000000000000000000000000     00000000                                                                                                                        000000000000000000
F0010000007466100001000000457307000011050500000000000000000201508120002001JAIRO CASTAñEDA ..                               D000000001500000000000000000000000100010010000000000000000000000F0010000007466100120150812000101 00000000000000000000000000000000000000000000000000000000000000000000000000000000000000000000000000000000000000000N 00000000000NCONT   00    00000000000          00000000000000000000000000000000000000000000 000000000000000A000000000000000000000000000000000000000000000 000000000000000000000000000000000000000     00000000                                                                                                                        000000000000000000
F0010000007466100002000000457307000041450500000000000000000201508120002001JAIRO CASTAñEDA ..                               C000000001400000000000000000000000100010010000000000000000000000F0010000007466100220150812000101 00000000000000000000000000000000000000000000000000000000000000000000000000000000000000000000000000000000000000000N 00000000000NCONT   00    00000000000          00000000000000000000000000000000000000000000 000000000000000A000000000000000000000000000000000000000000000 000000000000000000000000000000000000000     00000000                                                                                                                        000000000000000000
F0010000007466100003000000457307000042505000000000000000000201508120002001JAIRO CASTAñEDA ..                               C000000000100000000000000000000000100010010000000000000000000000F0010000007466100320150812000101 00000000000000000000000000000000000000000000000000000000000000000000000000000000000000000000000000000000000000000N 00000000000NCONT   00    00000000000          00000000000000000000000000000000000000000000 000000000000000A000000000000000000000000000000000000000000000 000000000000000000000000000000000000000     00000000                                                                                                                        000000000000000000
F0010000007466100004000000457307000023658300000000000000000201508120002001JAIRO CASTAñEDA ..                               C000000000011200000000000000000000100010010000000000000000000000F0010000007466100420150812000101 00000000000000000000000000000000000000000000000000000000000000000000000000000000000000000000000000000000000000000N 00000000000NCONT   00    00000000000          00000000000000000000000000000000000000000000 000000000000000A000000000000000000000000000000000000000000000 000000000000000000000000000000000000000     00000000                                                                                                                        000000000000000000
F0010000007466100005000000457307000013552100000000000000000201508120002001JAIRO CASTAñEDA ..                               D000000000011200000000000000000000100010010000000000000000000000F0010000007466100520150812000101 00000000000000000000000000000000000000000000000000000000000000000000000000000000000000000000000000000000000000000N 00000000000NCONT   00    00000000000          00000000000000000000000000000000000000000000 000000000000000A000000000000000000000000000000000000000000000 000000000000000000000000000000000000000     00000000                                                                                                                        000000000000000000
F0010000007466200001000080200069100013050500000000000000000201508120002001PEGANTES Y PINTURAS ATLAS LTDA                    D000000010488300000000000000000000100010010000000000000000000000F0010000007466200120150812000101 00000000000000000000000000000000000000000000000000000000000000000000000000000000000000000000000000000000000000000N 00000000000NCONT   00    00000000000          00000000000000000000000000000000000000000000 000000000000000A000000000000000000000000000000000000000000000 000000000000000000000000000000000000000     00000000                                                                                                                        000000000000000000
F0010000007466200002000080200069100041450500000000000000000201508120002001PEGANTES Y PINTURAS ATLAS LTDA                    C000000009000000000000000000000000100010010000000000000000000000F0010000007466200220150812000101 00000000000000000000000000000000000000000000000000000000000000000000000000000000000000000000000000000000000000000N 00000000000NCONT   00    00000000000          00000000000000000000000000000000000000000000 000000000000000A000000000000000000000000000000000000000000000 000000000000000000000000000000000000000     00000000                                                                                                                        000000000000000000
F0010000007466200003000080200069100042505000000000000000000201508120002001PEGANTES Y PINTURAS ATLAS LTDA                    C000000001488300000000000000000000100010010000000000000000000000F0010000007466200320150812000101 00000000000000000000000000000000000000000000000000000000000000000000000000000000000000000000000000000000000000000N 00000000000NCONT   00    00000000000          00000000000000000000000000000000000000000000 000000000000000A000000000000000000000000000000000000000000000 000000000000000000000000000000000000000     00000000                                                                                                                        000000000000000000
F0010000007466200004000080200069100023658300000000000000000201508120002001PEGANTES Y PINTURAS ATLAS LTDA                    C000000000072000000000000000000000100010010000000000000000000000F0010000007466200420150812000101 00000000000000000000000000000000000000000000000000000000000000000000000000000000000000000000000000000000000000000N 00000000000NCONT   00    00000000000          00000000000000000000000000000000000000000000 000000000000000A000000000000000000000000000000000000000000000 000000000000000000000000000000000000000     00000000                                                                                                                        000000000000000000
F0010000007466200005000080200069100013552100000000000000000201508120002001PEGANTES Y PINTURAS ATLAS LTDA                    D000000000072000000000000000000000100010010000000000000000000000F0010000007466200520150812000101 00000000000000000000000000000000000000000000000000000000000000000000000000000000000000000000000000000000000000000N 00000000000NCONT   00    00000000000          00000000000000000000000000000000000000000000 000000000000000A000000000000000000000000000000000000000000000 000000000000000000000000000000000000000     00000000                                                                                                                        000000000000000000
F0010000007466300001000089021246300013050500000000000000000201508120002001DISMACOR  S.A.                                    D000000100000000000000000000000000100010010000000000000000000000F0010000007466300120150812000101 00000000000000000000000000000000000000000000000000000000000000000000000000000000000000000000000000000000000000000N 00000000000NCONT   00    00000000000          00000000000000000000000000000000000000000000 000000000000000A000000000000000000000000000000000000000000000 000000000000000000000000000000000000000     00000000                                                                                                                        000000000000000000
F0010000007466300002000089021246300041450500000000000000000201508120002001DISMACOR  S.A.                                    C000000090000000000000000000000000100010010000000000000000000000F0010000007466300220150812000101 00000000000000000000000000000000000000000000000000000000000000000000000000000000000000000000000000000000000000000N 00000000000NCONT   00    00000000000          00000000000000000000000000000000000000000000 000000000000000A000000000000000000000000000000000000000000000 000000000000000000000000000000000000000     00000000                                                                                                                        000000000000000000
F0010000007466300003000089021246300042505000000000000000000201508120002001DISMACOR  S.A.                                    C000000010000000000000000000000000100010010000000000000000000000F0010000007466300320150812000101 00000000000000000000000000000000000000000000000000000000000000000000000000000000000000000000000000000000000000000N 00000000000NCONT   00    00000000000          00000000000000000000000000000000000000000000 000000000000000A000000000000000000000000000000000000000000000 000000000000000000000000000000000000000     00000000                                                                                                                        000000000000000000
F0010000007466300004000089021246300023658300000000000000000201508120002001DISMACOR  S.A.                                    C000000000720000000000000000000000100010010000000000000000000000F0010000007466300420150812000101 00000000000000000000000000000000000000000000000000000000000000000000000000000000000000000000000000000000000000000N 00000000000NCONT   00    00000000000          00000000000000000000000000000000000000000000 000000000000000A000000000000000000000000000000000000000000000 000000000000000000000000000000000000000     00000000                                                                                                                        000000000000000000
F0010000007466300005000089021246300013552100000000000000000201508120002001DISMACOR  S.A.                                    D000000000720000000000000000000000100010010000000000000000000000F0010000007466300520150812000101 00000000000000000000000000000000000000000000000000000000000000000000000000000000000000000000000000000000000000000N 00000000000NCONT   00    00000000000          00000000000000000000000000000000000000000000 000000000000000A000000000000000000000000000000000000000000000 000000000000000000000000000000000000000     00000000                                                                                                                        000000000000000000
F0010000007466400001000090049854300013050500000000000000000201508120002001TRAPOS INDUSTRIALES DE COLOMBIA SAS               D000000012155000000000000000000000100010010000000000000000000000F0010000007466400120150812000101 00000000000000000000000000000000000000000000000000000000000000000000000000000000000000000000000000000000000000000N 00000000000NCONT   00    00000000000          00000000000000000000000000000000000000000000 000000000000000A000000000000000000000000000000000000000000000 000000000000000000000000000000000000000     00000000                                                                                                                        000000000000000000
F0010000007466400002000090049854300041450500000000000000000201508120002001TRAPOS INDUSTRIALES DE COLOMBIA SAS               C000000011000000000000000000000000100010010000000000000000000000F0010000007466400220150812000101 00000000000000000000000000000000000000000000000000000000000000000000000000000000000000000000000000000000000000000N 00000000000NCONT   00    00000000000          00000000000000000000000000000000000000000000 000000000000000A000000000000000000000000000000000000000000000 000000000000000000000000000000000000000     00000000                                                                                                                        000000000000000000
F0010000007466400003000090049854300042505000000000000000000201508120002001TRAPOS INDUSTRIALES DE COLOMBIA SAS               C000000001155000000000000000000000100010010000000000000000000000F0010000007466400320150812000101 00000000000000000000000000000000000000000000000000000000000000000000000000000000000000000000000000000000000000000N 00000000000NCONT   00    00000000000          00000000000000000000000000000000000000000000 000000000000000A000000000000000000000000000000000000000000000 000000000000000000000000000000000000000     00000000                                                                                                                        000000000000000000
F0010000007466400004000090049854300023658300000000000000000201508120002001TRAPOS INDUSTRIALES DE COLOMBIA SAS               C000000000088000000000000000000000100010010000000000000000000000F0010000007466400420150812000101 00000000000000000000000000000000000000000000000000000000000000000000000000000000000000000000000000000000000000000N 00000000000NCONT   00    00000000000          00000000000000000000000000000000000000000000 000000000000000A000000000000000000000000000000000000000000000 000000000000000000000000000000000000000     00000000                                                                                                                        000000000000000000
F0010000007466400005000090049854300013552100000000000000000201508120002001TRAPOS INDUSTRIALES DE COLOMBIA SAS               D000000000088000000000000000000000100010010000000000000000000000F0010000007466400520150812000101 00000000000000000000000000000000000000000000000000000000000000000000000000000000000000000000000000000000000000000N 00000000000NCONT   00    00000000000          00000000000000000000000000000000000000000000 000000000000000A000000000000000000000000000000000000000000000 000000000000000000000000000000000000000     00000000                                                                                                                        000000000000000000
F0010000007466500001000080022903500013050500000000000000000201508120002001TECNOGLASS S.A                                    D000000115614000000000000000000000100010010000000000000000000000F0010000007466500120150812000101 00000000000000000000000000000000000000000000000000000000000000000000000000000000000000000000000000000000000000000N 00000000000NCONT   00    00000000000          00000000000000000000000000000000000000000000 000000000000000A000000000000000000000000000000000000000000000 000000000000000000000000000000000000000     00000000                                                                                                                        000000000000000000
F0010000007466500002000080022903500041450500000000000000000201508120002001TECNOGLASS S.A                                    C000000101090600000000000000000000100010010000000000000000000000F0010000007466500220150812000101 00000000000000000000000000000000000000000000000000000000000000000000000000000000000000000000000000000000000000000N 00000000000NCONT   00    00000000000          00000000000000000000000000000000000000000000 000000000000000A000000000000000000000000000000000000000000000 000000000000000000000000000000000000000     00000000                                                                                                                        000000000000000000
F0010000007466500003000080022903500042505000000000000000000201508120002001TECNOGLASS S.A                                    C000000014523400000000000000000000100010010000000000000000000000F0010000007466500320150812000101 00000000000000000000000000000000000000000000000000000000000000000000000000000000000000000000000000000000000000000N 00000000000NCONT   00    00000000000          00000000000000000000000000000000000000000000 000000000000000A000000000000000000000000000000000000000000000 000000000000000000000000000000000000000     00000000                                                                                                                        000000000000000000
F0010000007466500004000080022903500023658300000000000000000201508120002001TECNOGLASS S.A                                    C000000000808700000000000000000000100010010000000000000000000000F0010000007466500420150812000101 00000000000000000000000000000000000000000000000000000000000000000000000000000000000000000000000000000000000000000N 00000000000NCONT   00    00000000000          00000000000000000000000000000000000000000000 000000000000000A000000000000000000000000000000000000000000000 000000000000000000000000000000000000000     00000000                                                                                                                        000000000000000000
F0010000007466500005000080022903500013552100000000000000000201508120002001TECNOGLASS S.A                                    D000000000808700000000000000000000100010010000000000000000000000F0010000007466500520150812000101 00000000000000000000000000000000000000000000000000000000000000000000000000000000000000000000000000000000000000000N 00000000000NCONT   00    00000000000          00000000000000000000000000000000000000000000 000000000000000A000000000000000000000000000000000000000000000 000000000000000000000000000000000000000     00000000                                                                                                                        000000000000000000
F0010000007466600001000090034602400011050500000000000000000201508120002001PRODUCTOS NACIONALES PARAFINICOS LA CUSTODIA S.A.SD000000001000000000000000000000000100010010000000000000000000000F0010000007466600120150812000101 00000000000000000000000000000000000000000000000000000000000000000000000000000000000000000000000000000000000000000N 00000000000NCONT   00    00000000000          00000000000000000000000000000000000000000000 000000000000000A000000000000000000000000000000000000000000000 000000000000000000000000000000000000000     00000000                                                                                                                        000000000000000000
F0010000007466600002000090034602400041450500000000000000000201508120002001PRODUCTOS NACIONALES PARAFINICOS LA CUSTODIA S.A.SC000000000900000000000000000000000100010010000000000000000000000F0010000007466600220150812000101 00000000000000000000000000000000000000000000000000000000000000000000000000000000000000000000000000000000000000000N 00000000000NCONT   00    00000000000          00000000000000000000000000000000000000000000 000000000000000A000000000000000000000000000000000000000000000 000000000000000000000000000000000000000     00000000                                                                                                                        000000000000000000
F0010000007466600003000090034602400042505000000000000000000201508120002001PRODUCTOS NACIONALES PARAFINICOS LA CUSTODIA S.A.SC000000000100000000000000000000000100010010000000000000000000000F0010000007466600320150812000101 00000000000000000000000000000000000000000000000000000000000000000000000000000000000000000000000000000000000000000N 00000000000NCONT   00    00000000000          00000000000000000000000000000000000000000000 000000000000000A000000000000000000000000000000000000000000000 000000000000000000000000000000000000000     00000000                                                                                                                        000000000000000000
F0010000007466600004000090034602400023658300000000000000000201508120002001PRODUCTOS NACIONALES PARAFINICOS LA CUSTODIA S.A.SC000000000007200000000000000000000100010010000000000000000000000F0010000007466600420150812000101 00000000000000000000000000000000000000000000000000000000000000000000000000000000000000000000000000000000000000000N 00000000000NCONT   00    00000000000          00000000000000000000000000000000000000000000 000000000000000A000000000000000000000000000000000000000000000 000000000000000000000000000000000000000     00000000                                                                                                                        000000000000000000
F0010000007466600005000090034602400013552100000000000000000201508120002001PRODUCTOS NACIONALES PARAFINICOS LA CUSTODIA S.A.SD000000000007200000000000000000000100010010000000000000000000000F0010000007466600520150812000101 00000000000000000000000000000000000000000000000000000000000000000000000000000000000000000000000000000000000000000N 00000000000NCONT   00    00000000000          00000000000000000000000000000000000000000000 000000000000000A000000000000000000000000000000000000000000000 000000000000000000000000000000000000000     00000000                                                                                                                        000000000000000000
F0010000007466700001000090034602400011050500000000000000000201508120002001PRODUCTOS NACIONALES PARAFINICOS LA CUSTODIA S.A.SD000000001000000000000000000000000100010010000000000000000000000F0010000007466700120150812000101 00000000000000000000000000000000000000000000000000000000000000000000000000000000000000000000000000000000000000000N 00000000000NCONT   00    00000000000          00000000000000000000000000000000000000000000 000000000000000A000000000000000000000000000000000000000000000 000000000000000000000000000000000000000     00000000                                                                                                                        000000000000000000
F0010000007466700002000090034602400041450500000000000000000201508120002001PRODUCTOS NACIONALES PARAFINICOS LA CUSTODIA S.A.SC000000000900000000000000000000000100010010000000000000000000000F0010000007466700220150812000101 00000000000000000000000000000000000000000000000000000000000000000000000000000000000000000000000000000000000000000N 00000000000NCONT   00    00000000000          00000000000000000000000000000000000000000000 000000000000000A000000000000000000000000000000000000000000000 000000000000000000000000000000000000000     00000000                                                                                                                        000000000000000000
F0010000007466700003000090034602400042505000000000000000000201508120002001PRODUCTOS NACIONALES PARAFINICOS LA CUSTODIA S.A.SC000000000100000000000000000000000100010010000000000000000000000F0010000007466700320150812000101 00000000000000000000000000000000000000000000000000000000000000000000000000000000000000000000000000000000000000000N 00000000000NCONT   00    00000000000          00000000000000000000000000000000000000000000 000000000000000A000000000000000000000000000000000000000000000 000000000000000000000000000000000000000     00000000                                                                                                                        000000000000000000
F0010000007466700004000090034602400023658300000000000000000201508120002001PRODUCTOS NACIONALES PARAFINICOS LA CUSTODIA S.A.SC000000000007200000000000000000000100010010000000000000000000000F0010000007466700420150812000101 00000000000000000000000000000000000000000000000000000000000000000000000000000000000000000000000000000000000000000N 00000000000NCONT   00    00000000000          00000000000000000000000000000000000000000000 000000000000000A000000000000000000000000000000000000000000000 000000000000000000000000000000000000000     00000000                                                                                                                        000000000000000000
F0010000007466700005000090034602400013552100000000000000000201508120002001PRODUCTOS NACIONALES PARAFINICOS LA CUSTODIA S.A.SD000000000007200000000000000000000100010010000000000000000000000F0010000007466700520150812000101 00000000000000000000000000000000000000000000000000000000000000000000000000000000000000000000000000000000000000000N 00000000000NCONT   00    00000000000          00000000000000000000000000000000000000000000 000000000000000A000000000000000000000000000000000000000000000 000000000000000000000000000000000000000     00000000                                                                                                                        000000000000000000
F0010000007466800001000001795376100011050500000000000000000201508120002001WILMER ANTONIO CAMARGO                            D000000007000000000000000000000000100010010000000000000000000000F0010000007466800120150812000101 00000000000000000000000000000000000000000000000000000000000000000000000000000000000000000000000000000000000000000N 00000000000NCONT   00    00000000000          00000000000000000000000000000000000000000000 000000000000000A000000000000000000000000000000000000000000000 000000000000000000000000000000000000000     00000000                                                                                                                        000000000000000000
F0010000007466800002000001795376100041450500000000000000000201508120002001WILMER ANTONIO CAMARGO                            C000000006300000000000000000000000100010010000000000000000000000F0010000007466800220150812000101 00000000000000000000000000000000000000000000000000000000000000000000000000000000000000000000000000000000000000000N 00000000000NCONT   00    00000000000          00000000000000000000000000000000000000000000 000000000000000A000000000000000000000000000000000000000000000 000000000000000000000000000000000000000     00000000                                                                                                                        000000000000000000
F0010000007466800003000001795376100042505000000000000000000201508120002001WILMER ANTONIO CAMARGO                            C000000000700000000000000000000000100010010000000000000000000000F0010000007466800320150812000101 00000000000000000000000000000000000000000000000000000000000000000000000000000000000000000000000000000000000000000N 00000000000NCONT   00    00000000000          00000000000000000000000000000000000000000000 000000000000000A000000000000000000000000000000000000000000000 000000000000000000000000000000000000000     00000000                                                                                                                        000000000000000000
F0010000007466800004000001795376100023658300000000000000000201508120002001WILMER ANTONIO CAMARGO                            C000000000050400000000000000000000100010010000000000000000000000F0010000007466800420150812000101 00000000000000000000000000000000000000000000000000000000000000000000000000000000000000000000000000000000000000000N 00000000000NCONT   00    00000000000          00000000000000000000000000000000000000000000 000000000000000A000000000000000000000000000000000000000000000 000000000000000000000000000000000000000     00000000                                                                                                                        000000000000000000
F0010000007466800005000001795376100013552100000000000000000201508120002001WILMER ANTONIO CAMARGO                            D000000000050400000000000000000000100010010000000000000000000000F0010000007466800520150812000101 00000000000000000000000000000000000000000000000000000000000000000000000000000000000000000000000000000000000000000N 00000000000NCONT   00    00000000000          00000000000000000000000000000000000000000000 000000000000000A000000000000000000000000000000000000000000000 000000000000000000000000000000000000000     00000000                                                                                                                        000000000000000000
F0010000007466900001000007200023300011050500000000000000000201508120002001WILLIAM ORTEGA                                    D000000002700000000000000000000000100010010000000000000000000000F0010000007466900120150812000101 00000000000000000000000000000000000000000000000000000000000000000000000000000000000000000000000000000000000000000N 00000000000NCONT   00    00000000000          00000000000000000000000000000000000000000000 000000000000000A000000000000000000000000000000000000000000000 000000000000000000000000000000000000000     00000000                                                                                                                        000000000000000000
F0010000007466900002000007200023300041450500000000000000000201508120002001WILLIAM ORTEGA                                    C000000002400000000000000000000000100010010000000000000000000000F0010000007466900220150812000101 00000000000000000000000000000000000000000000000000000000000000000000000000000000000000000000000000000000000000000N 00000000000NCONT   00    00000000000          00000000000000000000000000000000000000000000 000000000000000A000000000000000000000000000000000000000000000 000000000000000000000000000000000000000     00000000                                                                                                                        000000000000000000
F0010000007466900003000007200023300042505000000000000000000201508120002001WILLIAM ORTEGA                                    C000000000300000000000000000000000100010010000000000000000000000F0010000007466900320150812000101 00000000000000000000000000000000000000000000000000000000000000000000000000000000000000000000000000000000000000000N 00000000000NCONT   00    00000000000          00000000000000000000000000000000000000000000 000000000000000A000000000000000000000000000000000000000000000 000000000000000000000000000000000000000     00000000                                                                                                                        000000000000000000
F0010000007466900004000007200023300023658300000000000000000201508120002001WILLIAM ORTEGA                                    C000000000019200000000000000000000100010010000000000000000000000F0010000007466900420150812000101 00000000000000000000000000000000000000000000000000000000000000000000000000000000000000000000000000000000000000000N 00000000000NCONT   00    00000000000          00000000000000000000000000000000000000000000 000000000000000A000000000000000000000000000000000000000000000 000000000000000000000000000000000000000     00000000                                                                                                                        000000000000000000
F0010000007466900005000007200023300013552100000000000000000201508120002001WILLIAM ORTEGA                                    D000000000019200000000000000000000100010010000000000000000000000F0010000007466900520150812000101 00000000000000000000000000000000000000000000000000000000000000000000000000000000000000000000000000000000000000000N 00000000000NCONT   00    00000000000          00000000000000000000000000000000000000000000 000000000000000A000000000000000000000000000000000000000000000 000000000000000000000000000000000000000     00000000                                                                                                                        000000000000000000
F0010000007467000001000002257933700011050500000000000000000201508120002001ROSA MARGARITA  PUCCINI SU HERRAMIENTAS Y ELECTRICD000000004160000000000000000000000100010010000000000000000000000F0010000007467000120150812000101 00000000000000000000000000000000000000000000000000000000000000000000000000000000000000000000000000000000000000000N 00000000000NCONT   00    00000000000          00000000000000000000000000000000000000000000 000000000000000A000000000000000000000000000000000000000000000 000000000000000000000000000000000000000     00000000                                                                                                                        000000000000000000
F0010000007467000002000002257933700041450500000000000000000201508120002001ROSA MARGARITA  PUCCINI SU HERRAMIENTAS Y ELECTRICC000000001630000000000000000000000100010010000000000000000000000F0010000007467000220150812000101 00000000000000000000000000000000000000000000000000000000000000000000000000000000000000000000000000000000000000000N 00000000000NCONT   00    00000000000          00000000000000000000000000000000000000000000 000000000000000A000000000000000000000000000000000000000000000 000000000000000000000000000000000000000     00000000                                                                                                                        000000000000000000
F0010000007467000003000002257933700042505000000000000000000201508120002001ROSA MARGARITA  PUCCINI SU HERRAMIENTAS Y ELECTRICC000000002530000000000000000000000100010010000000000000000000000F0010000007467000320150812000101 00000000000000000000000000000000000000000000000000000000000000000000000000000000000000000000000000000000000000000N 00000000000NCONT   00    00000000000          00000000000000000000000000000000000000000000 000000000000000A000000000000000000000000000000000000000000000 000000000000000000000000000000000000000     00000000                                                                                                                        000000000000000000
F0010000007467000004000002257933700023658300000000000000000201508120002001ROSA MARGARITA  PUCCINI SU HERRAMIENTAS Y ELECTRICC000000000013000000000000000000000100010010000000000000000000000F0010000007467000420150812000101 00000000000000000000000000000000000000000000000000000000000000000000000000000000000000000000000000000000000000000N 00000000000NCONT   00    00000000000          00000000000000000000000000000000000000000000 000000000000000A000000000000000000000000000000000000000000000 000000000000000000000000000000000000000     00000000                                                                                                                        000000000000000000
F0010000007467000005000002257933700013552100000000000000000201508120002001ROSA MARGARITA  PUCCINI SU HERRAMIENTAS Y ELECTRICD000000000013000000000000000000000100010010000000000000000000000F0010000007467000520150812000101 00000000000000000000000000000000000000000000000000000000000000000000000000000000000000000000000000000000000000000N 00000000000NCONT   00    00000000000          00000000000000000000000000000000000000000000 000000000000000A000000000000000000000000000000000000000000000 000000000000000000000000000000000000000     00000000                                                                                                                        000000000000000000
F0010000007467100001000002257933700011050500000000000000000201508120002001ROSA MARGARITA  PUCCINI SU HERRAMIENTAS Y ELECTRICD000000003992000000000000000000000100010010000000000000000000000F0010000007467100120150812000101 00000000000000000000000000000000000000000000000000000000000000000000000000000000000000000000000000000000000000000N 00000000000NCONT   00    00000000000          00000000000000000000000000000000000000000000 000000000000000A000000000000000000000000000000000000000000000 000000000000000000000000000000000000000     00000000                                                                                                                        000000000000000000
F0010000007467100002000002257933700041450500000000000000000201508120002001ROSA MARGARITA  PUCCINI SU HERRAMIENTAS Y ELECTRICC000000003260000000000000000000000100010010000000000000000000000F0010000007467100220150812000101 00000000000000000000000000000000000000000000000000000000000000000000000000000000000000000000000000000000000000000N 00000000000NCONT   00    00000000000          00000000000000000000000000000000000000000000 000000000000000A000000000000000000000000000000000000000000000 000000000000000000000000000000000000000     00000000                                                                                                                        000000000000000000
F0010000007467100003000002257933700042505000000000000000000201508120002001ROSA MARGARITA  PUCCINI SU HERRAMIENTAS Y ELECTRICC000000000732000000000000000000000100010010000000000000000000000F0010000007467100320150812000101 00000000000000000000000000000000000000000000000000000000000000000000000000000000000000000000000000000000000000000N 00000000000NCONT   00    00000000000          00000000000000000000000000000000000000000000 000000000000000A000000000000000000000000000000000000000000000 000000000000000000000000000000000000000     00000000                                                                                                                        000000000000000000
F0010000007467100004000002257933700023658300000000000000000201508120002001ROSA MARGARITA  PUCCINI SU HERRAMIENTAS Y ELECTRICC000000000026100000000000000000000100010010000000000000000000000F0010000007467100420150812000101 00000000000000000000000000000000000000000000000000000000000000000000000000000000000000000000000000000000000000000N 00000000000NCONT   00    00000000000          00000000000000000000000000000000000000000000 000000000000000A000000000000000000000000000000000000000000000 000000000000000000000000000000000000000     00000000                                                                                                                        000000000000000000
F0010000007467100005000002257933700013552100000000000000000201508120002001ROSA MARGARITA  PUCCINI SU HERRAMIENTAS Y ELECTRICD000000000026100000000000000000000100010010000000000000000000000F0010000007467100520150812000101 00000000000000000000000000000000000000000000000000000000000000000000000000000000000000000000000000000000000000000N 00000000000NCONT   00    00000000000          00000000000000000000000000000000000000000000 000000000000000A000000000000000000000000000000000000000000000 000000000000000000000000000000000000000     00000000                                                                                                                        000000000000000000
F0010000007467200001000004175790100011050500000000000000000201508120002001ROSIRIS FERIA HOYOS  (COSM. SHILLER)              D000000001900000000000000000000000100010010000000000000000000000F0010000007467200120150812000101 00000000000000000000000000000000000000000000000000000000000000000000000000000000000000000000000000000000000000000N 00000000000NCONT   00    00000000000          00000000000000000000000000000000000000000000 000000000000000A000000000000000000000000000000000000000000000 000000000000000000000000000000000000000     00000000                                                                                                                        000000000000000000
F0010000007467200002000004175790100041450500000000000000000201508120002001ROSIRIS FERIA HOYOS  (COSM. SHILLER)              C000000001800000000000000000000000100010010000000000000000000000F0010000007467200220150812000101 00000000000000000000000000000000000000000000000000000000000000000000000000000000000000000000000000000000000000000N 00000000000NCONT   00    00000000000          00000000000000000000000000000000000000000000 000000000000000A000000000000000000000000000000000000000000000 000000000000000000000000000000000000000     00000000                                                                                                                        000000000000000000
F0010000007467200003000004175790100042505000000000000000000201508120002001ROSIRIS FERIA HOYOS  (COSM. SHILLER)              C000000000100000000000000000000000100010010000000000000000000000F0010000007467200320150812000101 00000000000000000000000000000000000000000000000000000000000000000000000000000000000000000000000000000000000000000N 00000000000NCONT   00    00000000000          00000000000000000000000000000000000000000000 000000000000000A000000000000000000000000000000000000000000000 000000000000000000000000000000000000000     00000000                                                                                                                        000000000000000000
F0010000007467200004000004175790100023658300000000000000000201508120002001ROSIRIS FERIA HOYOS  (COSM. SHILLER)              C000000000014400000000000000000000100010010000000000000000000000F0010000007467200420150812000101 00000000000000000000000000000000000000000000000000000000000000000000000000000000000000000000000000000000000000000N 00000000000NCONT   00    00000000000          00000000000000000000000000000000000000000000 000000000000000A000000000000000000000000000000000000000000000 000000000000000000000000000000000000000     00000000                                                                                                                        000000000000000000
F0010000007467200005000004175790100013552100000000000000000201508120002001ROSIRIS FERIA HOYOS  (COSM. SHILLER)              D000000000014400000000000000000000100010010000000000000000000000F0010000007467200520150812000101 00000000000000000000000000000000000000000000000000000000000000000000000000000000000000000000000000000000000000000N 00000000000NCONT   00    00000000000          00000000000000000000000000000000000000000000 000000000000000A000000000000000000000000000000000000000000000 000000000000000000000000000000000000000     00000000                                                                                                                        000000000000000000
F0010000007467300001000090050144800011050500000000000000000201508120002001PLASTICOS JR ASOCIADOS SAS                        D000000003000000000000000000000000100010010000000000000000000000F0010000007467300120150812000101 00000000000000000000000000000000000000000000000000000000000000000000000000000000000000000000000000000000000000000N 00000000000NCONT   00    00000000000          00000000000000000000000000000000000000000000 000000000000000A000000000000000000000000000000000000000000000 000000000000000000000000000000000000000     00000000                                                                                                                        000000000000000000
F0010000007467300002000090050144800041450500000000000000000201508120002001PLASTICOS JR ASOCIADOS SAS                        C000000002600000000000000000000000100010010000000000000000000000F0010000007467300220150812000101 00000000000000000000000000000000000000000000000000000000000000000000000000000000000000000000000000000000000000000N 00000000000NCONT   00    00000000000          00000000000000000000000000000000000000000000 000000000000000A000000000000000000000000000000000000000000000 000000000000000000000000000000000000000     00000000                                                                                                                        000000000000000000
F0010000007467300003000090050144800042505000000000000000000201508120002001PLASTICOS JR ASOCIADOS SAS                        C000000000400000000000000000000000100010010000000000000000000000F0010000007467300320150812000101 00000000000000000000000000000000000000000000000000000000000000000000000000000000000000000000000000000000000000000N 00000000000NCONT   00    00000000000          00000000000000000000000000000000000000000000 000000000000000A000000000000000000000000000000000000000000000 000000000000000000000000000000000000000     00000000                                                                                                                        000000000000000000
F0010000007467300004000090050144800023658300000000000000000201508120002001PLASTICOS JR ASOCIADOS SAS                        C000000000020800000000000000000000100010010000000000000000000000F0010000007467300420150812000101 00000000000000000000000000000000000000000000000000000000000000000000000000000000000000000000000000000000000000000N 00000000000NCONT   00    00000000000          00000000000000000000000000000000000000000000 000000000000000A000000000000000000000000000000000000000000000 000000000000000000000000000000000000000     00000000                                                                                                                        000000000000000000
F0010000007467300005000090050144800013552100000000000000000201508120002001PLASTICOS JR ASOCIADOS SAS                        D000000000020800000000000000000000100010010000000000000000000000F0010000007467300520150812000101 00000000000000000000000000000000000000000000000000000000000000000000000000000000000000000000000000000000000000000N 00000000000NCONT   00    00000000000          00000000000000000000000000000000000000000000 000000000000000A000000000000000000000000000000000000000000000 000000000000000000000000000000000000000     00000000                                                                                                                        000000000000000000
F0010000007467400001000112819422600011050500000000000000000201508120002001CINDY PAOLA TORREGROSA GARCIA                     D000000001400000000000000000000000100010010000000000000000000000F0010000007467400120150812000101 00000000000000000000000000000000000000000000000000000000000000000000000000000000000000000000000000000000000000000N 00000000000NCONT   00    00000000000          00000000000000000000000000000000000000000000 000000000000000A000000000000000000000000000000000000000000000 000000000000000000000000000000000000000     00000000                                                                                                                        000000000000000000
F0010000007467400002000112819422600041450500000000000000000201508120002001CINDY PAOLA TORREGROSA GARCIA                     C000000001100000000000000000000000100010010000000000000000000000F0010000007467400220150812000101 00000000000000000000000000000000000000000000000000000000000000000000000000000000000000000000000000000000000000000N 00000000000NCONT   00    00000000000          00000000000000000000000000000000000000000000 000000000000000A000000000000000000000000000000000000000000000 000000000000000000000000000000000000000     00000000                                                                                                                        000000000000000000
F0010000007467400003000112819422600042505000000000000000000201508120002001CINDY PAOLA TORREGROSA GARCIA                     C000000000300000000000000000000000100010010000000000000000000000F0010000007467400320150812000101 00000000000000000000000000000000000000000000000000000000000000000000000000000000000000000000000000000000000000000N 00000000000NCONT   00    00000000000          00000000000000000000000000000000000000000000 000000000000000A000000000000000000000000000000000000000000000 000000000000000000000000000000000000000     00000000                                                                                                                        000000000000000000
F0010000007467400004000112819422600023658300000000000000000201508120002001CINDY PAOLA TORREGROSA GARCIA                     C000000000008800000000000000000000100010010000000000000000000000F0010000007467400420150812000101 00000000000000000000000000000000000000000000000000000000000000000000000000000000000000000000000000000000000000000N 00000000000NCONT   00    00000000000          00000000000000000000000000000000000000000000 000000000000000A000000000000000000000000000000000000000000000 000000000000000000000000000000000000000     00000000                                                                                                                        000000000000000000
F0010000007467400005000112819422600013552100000000000000000201508120002001CINDY PAOLA TORREGROSA GARCIA                     D000000000008800000000000000000000100010010000000000000000000000F0010000007467400520150812000101 00000000000000000000000000000000000000000000000000000000000000000000000000000000000000000000000000000000000000000N 00000000000NCONT   00    00000000000          00000000000000000000000000000000000000000000 000000000000000A000000000000000000000000000000000000000000000 000000000000000000000000000000000000000     00000000                                                                                                                        000000000000000000
F0010000007467500001000107252647100011050500000000000000000201508120002001JHON BYRON DUQUE DONADO (BODEGA JHONIFER)         D000000003000000000000000000000000100010010000000000000000000000F0010000007467500120150812000101 00000000000000000000000000000000000000000000000000000000000000000000000000000000000000000000000000000000000000000N 00000000000NCONT   00    00000000000          00000000000000000000000000000000000000000000 000000000000000A000000000000000000000000000000000000000000000 000000000000000000000000000000000000000     00000000                                                                                                                        000000000000000000
F0010000007467500002000107252647100041450500000000000000000201508120002001JHON BYRON DUQUE DONADO (BODEGA JHONIFER)         C000000002800000000000000000000000100010010000000000000000000000F0010000007467500220150812000101 00000000000000000000000000000000000000000000000000000000000000000000000000000000000000000000000000000000000000000N 00000000000NCONT   00    00000000000          00000000000000000000000000000000000000000000 000000000000000A000000000000000000000000000000000000000000000 000000000000000000000000000000000000000     00000000                                                                                                                        000000000000000000
F0010000007467500003000107252647100042505000000000000000000201508120002001JHON BYRON DUQUE DONADO (BODEGA JHONIFER)         C000000000200000000000000000000000100010010000000000000000000000F0010000007467500320150812000101 00000000000000000000000000000000000000000000000000000000000000000000000000000000000000000000000000000000000000000N 00000000000NCONT   00    00000000000          00000000000000000000000000000000000000000000 000000000000000A000000000000000000000000000000000000000000000 000000000000000000000000000000000000000     00000000                                                                                                                        000000000000000000
F0010000007467500004000107252647100023658300000000000000000201508120002001JHON BYRON DUQUE DONADO (BODEGA JHONIFER)         C000000000022400000000000000000000100010010000000000000000000000F0010000007467500420150812000101 00000000000000000000000000000000000000000000000000000000000000000000000000000000000000000000000000000000000000000N 00000000000NCONT   00    00000000000          00000000000000000000000000000000000000000000 000000000000000A000000000000000000000000000000000000000000000 000000000000000000000000000000000000000     00000000                                                                                                                        000000000000000000
F0010000007467500005000107252647100013552100000000000000000201508120002001JHON BYRON DUQUE DONADO (BODEGA JHONIFER)         D000000000022400000000000000000000100010010000000000000000000000F0010000007467500520150812000101 00000000000000000000000000000000000000000000000000000000000000000000000000000000000000000000000000000000000000000N 00000000000NCONT   00    00000000000          00000000000000000000000000000000000000000000 000000000000000A000000000000000000000000000000000000000000000 000000000000000000000000000000000000000     00000000                                                                                                                        000000000000000000
F0010000007467600001000090061985600011050500000000000000000201508120002001COMERCIALIZADORA PATRY SAS                        D000000002000000000000000000000000100010010000000000000000000000F0010000007467600120150812000101 00000000000000000000000000000000000000000000000000000000000000000000000000000000000000000000000000000000000000000N 00000000000NCONT   00    00000000000          00000000000000000000000000000000000000000000 000000000000000A000000000000000000000000000000000000000000000 000000000000000000000000000000000000000     00000000                                                                                                                        000000000000000000
F0010000007467600002000090061985600041450500000000000000000201508120002001COMERCIALIZADORA PATRY SAS                        C000000001600000000000000000000000100010010000000000000000000000F0010000007467600220150812000101 00000000000000000000000000000000000000000000000000000000000000000000000000000000000000000000000000000000000000000N 00000000000NCONT   00    00000000000          00000000000000000000000000000000000000000000 000000000000000A000000000000000000000000000000000000000000000 000000000000000000000000000000000000000     00000000                                                                                                                        000000000000000000
F0010000007467600003000090061985600042505000000000000000000201508120002001COMERCIALIZADORA PATRY SAS                        C000000000400000000000000000000000100010010000000000000000000000F0010000007467600320150812000101 00000000000000000000000000000000000000000000000000000000000000000000000000000000000000000000000000000000000000000N 00000000000NCONT   00    00000000000          00000000000000000000000000000000000000000000 000000000000000A000000000000000000000000000000000000000000000 000000000000000000000000000000000000000     00000000                                                                                                                        000000000000000000
F0010000007467600004000090061985600023658300000000000000000201508120002001COMERCIALIZADORA PATRY SAS                        C000000000012800000000000000000000100010010000000000000000000000F0010000007467600420150812000101 00000000000000000000000000000000000000000000000000000000000000000000000000000000000000000000000000000000000000000N 00000000000NCONT   00    00000000000          00000000000000000000000000000000000000000000 000000000000000A000000000000000000000000000000000000000000000 000000000000000000000000000000000000000     00000000                                                                                                                        000000000000000000
F0010000007467600005000090061985600013552100000000000000000201508120002001COMERCIALIZADORA PATRY SAS                        D000000000012800000000000000000000100010010000000000000000000000F0010000007467600520150812000101 00000000000000000000000000000000000000000000000000000000000000000000000000000000000000000000000000000000000000000N 00000000000NCONT   00    00000000000          00000000000000000000000000000000000000000000 000000000000000A000000000000000000000000000000000000000000000 000000000000000000000000000000000000000     00000000                                                                                                                        000000000000000000
F0010000007467700001000002245670100011050500000000000000000201508120002001YOLANDA  TOBON                                    D000000021200000000000000000000000100010010000000000000000000000F0010000007467700120150812000101 00000000000000000000000000000000000000000000000000000000000000000000000000000000000000000000000000000000000000000N 00000000000NCONT   00    00000000000          00000000000000000000000000000000000000000000 000000000000000A000000000000000000000000000000000000000000000 000000000000000000000000000000000000000     00000000                                                                                                                        000000000000000000
F0010000007467700002000002245670100041450500000000000000000201508120002001YOLANDA  TOBON                                    C000000016400000000000000000000000100010010000000000000000000000F0010000007467700220150812000101 00000000000000000000000000000000000000000000000000000000000000000000000000000000000000000000000000000000000000000N 00000000000NCONT   00    00000000000          00000000000000000000000000000000000000000000 000000000000000A000000000000000000000000000000000000000000000 000000000000000000000000000000000000000     00000000                                                                                                                        000000000000000000
F0010000007467700003000002245670100042505000000000000000000201508120002001YOLANDA  TOBON                                    C000000004800000000000000000000000100010010000000000000000000000F0010000007467700320150812000101 00000000000000000000000000000000000000000000000000000000000000000000000000000000000000000000000000000000000000000N 00000000000NCONT   00    00000000000          00000000000000000000000000000000000000000000 000000000000000A000000000000000000000000000000000000000000000 000000000000000000000000000000000000000     00000000                                                                                                                        000000000000000000
F0010000007467700004000002245670100023658300000000000000000201508120002001YOLANDA  TOBON                                    C000000000131200000000000000000000100010010000000000000000000000F0010000007467700420150812000101 00000000000000000000000000000000000000000000000000000000000000000000000000000000000000000000000000000000000000000N 00000000000NCONT   00    00000000000          00000000000000000000000000000000000000000000 000000000000000A000000000000000000000000000000000000000000000 000000000000000000000000000000000000000     00000000                                                                                                                        000000000000000000
F0010000007467700005000002245670100013552100000000000000000201508120002001YOLANDA  TOBON                                    D000000000131200000000000000000000100010010000000000000000000000F0010000007467700520150812000101 00000000000000000000000000000000000000000000000000000000000000000000000000000000000000000000000000000000000000000N 00000000000NCONT   00    00000000000          00000000000000000000000000000000000000000000 000000000000000A000000000000000000000000000000000000000000000 000000000000000000000000000000000000000     00000000                                                                                                                        000000000000000000
F0010000007467800001000003656369400011050500000000000000000201508120002001LUPE LUCIA LUNA HERRERA -  EQUIACEROX & VENTILACIOD000000013500000000000000000000000100010010000000000000000000000F0010000007467800120150812000101 00000000000000000000000000000000000000000000000000000000000000000000000000000000000000000000000000000000000000000N 00000000000NCONT   00    00000000000          00000000000000000000000000000000000000000000 000000000000000A000000000000000000000000000000000000000000000 000000000000000000000000000000000000000     00000000                                                                                                                        000000000000000000
F0010000007467800002000003656369400041450500000000000000000201508120002001LUPE LUCIA LUNA HERRERA -  EQUIACEROX & VENTILACIOC000000012000000000000000000000000100010010000000000000000000000F0010000007467800220150812000101 00000000000000000000000000000000000000000000000000000000000000000000000000000000000000000000000000000000000000000N 00000000000NCONT   00    00000000000          00000000000000000000000000000000000000000000 000000000000000A000000000000000000000000000000000000000000000 000000000000000000000000000000000000000     00000000                                                                                                                        000000000000000000
F0010000007467800003000003656369400042505000000000000000000201508120002001LUPE LUCIA LUNA HERRERA -  EQUIACEROX & VENTILACIOC000000001500000000000000000000000100010010000000000000000000000F0010000007467800320150812000101 00000000000000000000000000000000000000000000000000000000000000000000000000000000000000000000000000000000000000000N 00000000000NCONT   00    00000000000          00000000000000000000000000000000000000000000 000000000000000A000000000000000000000000000000000000000000000 000000000000000000000000000000000000000     00000000                                                                                                                        000000000000000000
F0010000007467800004000003656369400023658300000000000000000201508120002001LUPE LUCIA LUNA HERRERA -  EQUIACEROX & VENTILACIOC000000000096000000000000000000000100010010000000000000000000000F0010000007467800420150812000101 00000000000000000000000000000000000000000000000000000000000000000000000000000000000000000000000000000000000000000N 00000000000NCONT   00    00000000000          00000000000000000000000000000000000000000000 000000000000000A000000000000000000000000000000000000000000000 000000000000000000000000000000000000000     00000000                                                                                                                        000000000000000000
F0010000007467800005000003656369400013552100000000000000000201508120002001LUPE LUCIA LUNA HERRERA -  EQUIACEROX & VENTILACIOD000000000096000000000000000000000100010010000000000000000000000F0010000007467800520150812000101 00000000000000000000000000000000000000000000000000000000000000000000000000000000000000000000000000000000000000000N 00000000000NCONT   00    00000000000          00000000000000000000000000000000000000000000 000000000000000A000000000000000000000000000000000000000000000 000000000000000000000000000000000000000     00000000                                                                                                                        000000000000000000
F0010000007467900001000080202350700011050500000000000000000201508120002001CONNY DE LA COSTA SAS                             D000000001000000000000000000000000100010010000000000000000000000F0010000007467900120150812000101 00000000000000000000000000000000000000000000000000000000000000000000000000000000000000000000000000000000000000000N 00000000000NCONT   00    00000000000          00000000000000000000000000000000000000000000 000000000000000A000000000000000000000000000000000000000000000 000000000000000000000000000000000000000     00000000                                                                                                                        000000000000000000
F0010000007467900002000080202350700041450500000000000000000201508120002001CONNY DE LA COSTA SAS                             C000000000800000000000000000000000100010010000000000000000000000F0010000007467900220150812000101 00000000000000000000000000000000000000000000000000000000000000000000000000000000000000000000000000000000000000000N 00000000000NCONT   00    00000000000          00000000000000000000000000000000000000000000 000000000000000A000000000000000000000000000000000000000000000 000000000000000000000000000000000000000     00000000                                                                                                                        000000000000000000
F0010000007467900003000080202350700042505000000000000000000201508120002001CONNY DE LA COSTA SAS                             C000000000200000000000000000000000100010010000000000000000000000F0010000007467900320150812000101 00000000000000000000000000000000000000000000000000000000000000000000000000000000000000000000000000000000000000000N 00000000000NCONT   00    00000000000          00000000000000000000000000000000000000000000 000000000000000A000000000000000000000000000000000000000000000 000000000000000000000000000000000000000     00000000                                                                                                                        000000000000000000
F0010000007467900004000080202350700023658300000000000000000201508120002001CONNY DE LA COSTA SAS                             C000000000006400000000000000000000100010010000000000000000000000F0010000007467900420150812000101 00000000000000000000000000000000000000000000000000000000000000000000000000000000000000000000000000000000000000000N 00000000000NCONT   00    00000000000          00000000000000000000000000000000000000000000 000000000000000A000000000000000000000000000000000000000000000 000000000000000000000000000000000000000     00000000                                                                                                                        000000000000000000
F0010000007467900005000080202350700013552100000000000000000201508120002001CONNY DE LA COSTA SAS                             D000000000006400000000000000000000100010010000000000000000000000F0010000007467900520150812000101 00000000000000000000000000000000000000000000000000000000000000000000000000000000000000000000000000000000000000000N 00000000000NCONT   00    00000000000          00000000000000000000000000000000000000000000 000000000000000A000000000000000000000000000000000000000000000 000000000000000000000000000000000000000     00000000                                                                                                                        000000000000000000
F0010000007468000001000000871573200011050500000000000000000201508120002001ACCESORIAS ARQUITECTONI KJ                        D000000028000000000000000000000000100010010000000000000000000000F0010000007468000120150812000101 00000000000000000000000000000000000000000000000000000000000000000000000000000000000000000000000000000000000000000N 00000000000NCONT   00    00000000000          00000000000000000000000000000000000000000000 000000000000000A000000000000000000000000000000000000000000000 000000000000000000000000000000000000000     00000000                                                                                                                        000000000000000000
F0010000007468000002000000871573200041450500000000000000000201508120002001ACCESORIAS ARQUITECTONI KJ                        C000000026000000000000000000000000100010010000000000000000000000F0010000007468000220150812000101 00000000000000000000000000000000000000000000000000000000000000000000000000000000000000000000000000000000000000000N 00000000000NCONT   00    00000000000          00000000000000000000000000000000000000000000 000000000000000A000000000000000000000000000000000000000000000 000000000000000000000000000000000000000     00000000                                                                                                                        000000000000000000
F0010000007468000003000000871573200042505000000000000000000201508120002001ACCESORIAS ARQUITECTONI KJ                        C000000002000000000000000000000000100010010000000000000000000000F0010000007468000320150812000101 00000000000000000000000000000000000000000000000000000000000000000000000000000000000000000000000000000000000000000N 00000000000NCONT   00    00000000000          00000000000000000000000000000000000000000000 000000000000000A000000000000000000000000000000000000000000000 000000000000000000000000000000000000000     00000000                                                                                                                        000000000000000000
F0010000007468000004000000871573200023658300000000000000000201508120002001ACCESORIAS ARQUITECTONI KJ                        C000000000208000000000000000000000100010010000000000000000000000F0010000007468000420150812000101 00000000000000000000000000000000000000000000000000000000000000000000000000000000000000000000000000000000000000000N 00000000000NCONT   00    00000000000          00000000000000000000000000000000000000000000 000000000000000A000000000000000000000000000000000000000000000 000000000000000000000000000000000000000     00000000                                                                                                                        000000000000000000
F0010000007468000005000000871573200013552100000000000000000201508120002001ACCESORIAS ARQUITECTONI KJ                        D000000000208000000000000000000000100010010000000000000000000000F0010000007468000520150812000101 00000000000000000000000000000000000000000000000000000000000000000000000000000000000000000000000000000000000000000N 00000000000NCONT   00    00000000000          00000000000000000000000000000000000000000000 000000000000000A000000000000000000000000000000000000000000000 000000000000000000000000000000000000000     00000000                                                                                                                        000000000000000000
F0010000007468100001000090041529500011050500000000000000000201508120002001EME IMPORTACIONES ELECTRICA                       D000000004100000000000000000000000100010010000000000000000000000F0010000007468100120150812000101 00000000000000000000000000000000000000000000000000000000000000000000000000000000000000000000000000000000000000000N 00000000000NCONT   00    00000000000          00000000000000000000000000000000000000000000 000000000000000A000000000000000000000000000000000000000000000 000000000000000000000000000000000000000     00000000                                                                                                                        000000000000000000
F0010000007468100002000090041529500041450500000000000000000201508120002001EME IMPORTACIONES ELECTRICA                       C000000003600000000000000000000000100010010000000000000000000000F0010000007468100220150812000101 00000000000000000000000000000000000000000000000000000000000000000000000000000000000000000000000000000000000000000N 00000000000NCONT   00    00000000000          00000000000000000000000000000000000000000000 000000000000000A000000000000000000000000000000000000000000000 000000000000000000000000000000000000000     00000000                                                                                                                        000000000000000000
F0010000007468100003000090041529500042505000000000000000000201508120002001EME IMPORTACIONES ELECTRICA                       C000000000500000000000000000000000100010010000000000000000000000F0010000007468100320150812000101 00000000000000000000000000000000000000000000000000000000000000000000000000000000000000000000000000000000000000000N 00000000000NCONT   00    00000000000          00000000000000000000000000000000000000000000 000000000000000A000000000000000000000000000000000000000000000 000000000000000000000000000000000000000     00000000                                                                                                                        000000000000000000
F0010000007468100004000090041529500023658300000000000000000201508120002001EME IMPORTACIONES ELECTRICA                       C000000000028800000000000000000000100010010000000000000000000000F0010000007468100420150812000101 00000000000000000000000000000000000000000000000000000000000000000000000000000000000000000000000000000000000000000N 00000000000NCONT   00    00000000000          00000000000000000000000000000000000000000000 000000000000000A000000000000000000000000000000000000000000000 000000000000000000000000000000000000000     00000000                                                                                                                        000000000000000000
F0010000007468100005000090041529500013552100000000000000000201508120002001EME IMPORTACIONES ELECTRICA                       D000000000028800000000000000000000100010010000000000000000000000F0010000007468100520150812000101 00000000000000000000000000000000000000000000000000000000000000000000000000000000000000000000000000000000000000000N 00000000000NCONT   00    00000000000          00000000000000000000000000000000000000000000 000000000000000A000000000000000000000000000000000000000000000 000000000000000000000000000000000000000     00000000                                                                                                                        000000000000000000
F0010000007468200001000007904689600011050500000000000000000201508120002001VICTOR MANUEL BOCANEGRA RAMIREZ                   D000000002000000000000000000000000100010010000000000000000000000F0010000007468200120150812000101 00000000000000000000000000000000000000000000000000000000000000000000000000000000000000000000000000000000000000000N 00000000000NCONT   00    00000000000          00000000000000000000000000000000000000000000 000000000000000A000000000000000000000000000000000000000000000 000000000000000000000000000000000000000     00000000                                                                                                                        000000000000000000
F0010000007468200002000007904689600041450500000000000000000201508120002001VICTOR MANUEL BOCANEGRA RAMIREZ                   C000000001900000000000000000000000100010010000000000000000000000F0010000007468200220150812000101 00000000000000000000000000000000000000000000000000000000000000000000000000000000000000000000000000000000000000000N 00000000000NCONT   00    00000000000          00000000000000000000000000000000000000000000 000000000000000A000000000000000000000000000000000000000000000 000000000000000000000000000000000000000     00000000                                                                                                                        000000000000000000
F0010000007468200003000007904689600042505000000000000000000201508120002001VICTOR MANUEL BOCANEGRA RAMIREZ                   C000000000100000000000000000000000100010010000000000000000000000F0010000007468200320150812000101 00000000000000000000000000000000000000000000000000000000000000000000000000000000000000000000000000000000000000000N 00000000000NCONT   00    00000000000          00000000000000000000000000000000000000000000 000000000000000A000000000000000000000000000000000000000000000 000000000000000000000000000000000000000     00000000                                                                                                                        000000000000000000
F0010000007468200004000007904689600023658300000000000000000201508120002001VICTOR MANUEL BOCANEGRA RAMIREZ                   C000000000015200000000000000000000100010010000000000000000000000F0010000007468200420150812000101 00000000000000000000000000000000000000000000000000000000000000000000000000000000000000000000000000000000000000000N 00000000000NCONT   00    00000000000          00000000000000000000000000000000000000000000 000000000000000A000000000000000000000000000000000000000000000 000000000000000000000000000000000000000     00000000                                                                                                                        000000000000000000
F0010000007468200005000007904689600013552100000000000000000201508120002001VICTOR MANUEL BOCANEGRA RAMIREZ                   D000000000015200000000000000000000100010010000000000000000000000F0010000007468200520150812000101 00000000000000000000000000000000000000000000000000000000000000000000000000000000000000000000000000000000000000000N 00000000000NCONT   00    00000000000          00000000000000000000000000000000000000000000 000000000000000A000000000000000000000000000000000000000000000 000000000000000000000000000000000000000     00000000                                                                                                                        000000000000000000
F0010000007468300001000090041529500011050500000000000000000201508120002001EME IMPORTACIONES ELECTRICA                       D000000001900000000000000000000000100010010000000000000000000000F0010000007468300120150812000101 00000000000000000000000000000000000000000000000000000000000000000000000000000000000000000000000000000000000000000N 00000000000NCONT   00    00000000000          00000000000000000000000000000000000000000000 000000000000000A000000000000000000000000000000000000000000000 000000000000000000000000000000000000000     00000000                                                                                                                        000000000000000000
F0010000007468300002000090041529500041450500000000000000000201508120002001EME IMPORTACIONES ELECTRICA                       C000000001800000000000000000000000100010010000000000000000000000F0010000007468300220150812000101 00000000000000000000000000000000000000000000000000000000000000000000000000000000000000000000000000000000000000000N 00000000000NCONT   00    00000000000          00000000000000000000000000000000000000000000 000000000000000A000000000000000000000000000000000000000000000 000000000000000000000000000000000000000     00000000                                                                                                                        000000000000000000
F0010000007468300003000090041529500042505000000000000000000201508120002001EME IMPORTACIONES ELECTRICA                       C000000000100000000000000000000000100010010000000000000000000000F0010000007468300320150812000101 00000000000000000000000000000000000000000000000000000000000000000000000000000000000000000000000000000000000000000N 00000000000NCONT   00    00000000000          00000000000000000000000000000000000000000000 000000000000000A000000000000000000000000000000000000000000000 000000000000000000000000000000000000000     00000000                                                                                                                        000000000000000000
F0010000007468300004000090041529500023658300000000000000000201508120002001EME IMPORTACIONES ELECTRICA                       C000000000014400000000000000000000100010010000000000000000000000F0010000007468300420150812000101 00000000000000000000000000000000000000000000000000000000000000000000000000000000000000000000000000000000000000000N 00000000000NCONT   00    00000000000          00000000000000000000000000000000000000000000 000000000000000A000000000000000000000000000000000000000000000 000000000000000000000000000000000000000     00000000                                                                                                                        000000000000000000
F0010000007468300005000090041529500013552100000000000000000201508120002001EME IMPORTACIONES ELECTRICA                       D000000000014400000000000000000000100010010000000000000000000000F0010000007468300520150812000101 00000000000000000000000000000000000000000000000000000000000000000000000000000000000000000000000000000000000000000N 00000000000NCONT   00    00000000000          00000000000000000000000000000000000000000000 000000000000000A000000000000000000000000000000000000000000000 000000000000000000000000000000000000000     00000000                                                                                                                        000000000000000000
F0010000007468400001000090041529500011050500000000000000000201508120002001EME IMPORTACIONES ELECTRICA                       D000000004100000000000000000000000100010010000000000000000000000F0010000007468400120150812000101 00000000000000000000000000000000000000000000000000000000000000000000000000000000000000000000000000000000000000000N 00000000000NCONT   00    00000000000          00000000000000000000000000000000000000000000 000000000000000A000000000000000000000000000000000000000000000 000000000000000000000000000000000000000     00000000                                                                                                                        000000000000000000
F0010000007468400002000090041529500041450500000000000000000201508120002001EME IMPORTACIONES ELECTRICA                       C000000003600000000000000000000000100010010000000000000000000000F0010000007468400220150812000101 00000000000000000000000000000000000000000000000000000000000000000000000000000000000000000000000000000000000000000N 00000000000NCONT   00    00000000000          00000000000000000000000000000000000000000000 000000000000000A000000000000000000000000000000000000000000000 000000000000000000000000000000000000000     00000000                                                                                                                        000000000000000000
F0010000007468400003000090041529500042505000000000000000000201508120002001EME IMPORTACIONES ELECTRICA                       C000000000500000000000000000000000100010010000000000000000000000F0010000007468400320150812000101 00000000000000000000000000000000000000000000000000000000000000000000000000000000000000000000000000000000000000000N 00000000000NCONT   00    00000000000          00000000000000000000000000000000000000000000 000000000000000A000000000000000000000000000000000000000000000 000000000000000000000000000000000000000     00000000                                                                                                                        000000000000000000
F0010000007468400004000090041529500023658300000000000000000201508120002001EME IMPORTACIONES ELECTRICA                       C000000000028800000000000000000000100010010000000000000000000000F0010000007468400420150812000101 00000000000000000000000000000000000000000000000000000000000000000000000000000000000000000000000000000000000000000N 00000000000NCONT   00    00000000000          00000000000000000000000000000000000000000000 000000000000000A000000000000000000000000000000000000000000000 000000000000000000000000000000000000000     00000000                                                                                                                        000000000000000000
F0010000007468400005000090041529500013552100000000000000000201508120002001EME IMPORTACIONES ELECTRICA                       D000000000028800000000000000000000100010010000000000000000000000F0010000007468400520150812000101 00000000000000000000000000000000000000000000000000000000000000000000000000000000000000000000000000000000000000000N 00000000000NCONT   00    00000000000          00000000000000000000000000000000000000000000 000000000000000A000000000000000000000000000000000000000000000 000000000000000000000000000000000000000     00000000                                                                                                                        000000000000000000
F0010000007468500001000090040925200011050500000000000000000201508120002001DANCO INTERNACIONAL SAS                           D000000012000000000000000000000000100010010000000000000000000000F0010000007468500120150812000101 00000000000000000000000000000000000000000000000000000000000000000000000000000000000000000000000000000000000000000N 00000000000NCONT   00    00000000000          00000000000000000000000000000000000000000000 000000000000000A000000000000000000000000000000000000000000000 000000000000000000000000000000000000000     00000000                                                                                                                        000000000000000000
F0010000007468500002000090040925200041450500000000000000000201508120002001DANCO INTERNACIONAL SAS                           C000000010000000000000000000000000100010010000000000000000000000F0010000007468500220150812000101 00000000000000000000000000000000000000000000000000000000000000000000000000000000000000000000000000000000000000000N 00000000000NCONT   00    00000000000          00000000000000000000000000000000000000000000 000000000000000A000000000000000000000000000000000000000000000 000000000000000000000000000000000000000     00000000                                                                                                                        000000000000000000
F0010000007468500003000090040925200042505000000000000000000201508120002001DANCO INTERNACIONAL SAS                           C000000002000000000000000000000000100010010000000000000000000000F0010000007468500320150812000101 00000000000000000000000000000000000000000000000000000000000000000000000000000000000000000000000000000000000000000N 00000000000NCONT   00    00000000000          00000000000000000000000000000000000000000000 000000000000000A000000000000000000000000000000000000000000000 000000000000000000000000000000000000000     00000000                                                                                                                        000000000000000000
F0010000007468500004000090040925200023658300000000000000000201508120002001DANCO INTERNACIONAL SAS                           C000000000080000000000000000000000100010010000000000000000000000F0010000007468500420150812000101 00000000000000000000000000000000000000000000000000000000000000000000000000000000000000000000000000000000000000000N 00000000000NCONT   00    00000000000          00000000000000000000000000000000000000000000 000000000000000A000000000000000000000000000000000000000000000 000000000000000000000000000000000000000     00000000                                                                                                                        000000000000000000
F0010000007468500005000090040925200013552100000000000000000201508120002001DANCO INTERNACIONAL SAS                           D000000000080000000000000000000000100010010000000000000000000000F0010000007468500520150812000101 00000000000000000000000000000000000000000000000000000000000000000000000000000000000000000000000000000000000000000N 00000000000NCONT   00    00000000000          00000000000000000000000000000000000000000000 000000000000000A000000000000000000000000000000000000000000000 000000000000000000000000000000000000000     00000000                                                                                                                        000000000000000000
F0010000007468600001000089011069100011050500000000000000000201508120002001LA CASA DE LAS ALFOMBRAS LTDA                     D000000001700000000000000000000000100010010000000000000000000000F0010000007468600120150812000101 00000000000000000000000000000000000000000000000000000000000000000000000000000000000000000000000000000000000000000N 00000000000NCONT   00    00000000000          00000000000000000000000000000000000000000000 000000000000000A000000000000000000000000000000000000000000000 000000000000000000000000000000000000000     00000000                                                                                                                        000000000000000000
F0010000007468600002000089011069100041450500000000000000000201508120002001LA CASA DE LAS ALFOMBRAS LTDA                     C000000001500000000000000000000000100010010000000000000000000000F0010000007468600220150812000101 00000000000000000000000000000000000000000000000000000000000000000000000000000000000000000000000000000000000000000N 00000000000NCONT   00    00000000000          00000000000000000000000000000000000000000000 000000000000000A000000000000000000000000000000000000000000000 000000000000000000000000000000000000000     00000000                                                                                                                        000000000000000000
F0010000007468600003000089011069100042505000000000000000000201508120002001LA CASA DE LAS ALFOMBRAS LTDA                     C000000000200000000000000000000000100010010000000000000000000000F0010000007468600320150812000101 00000000000000000000000000000000000000000000000000000000000000000000000000000000000000000000000000000000000000000N 00000000000NCONT   00    00000000000          00000000000000000000000000000000000000000000 000000000000000A000000000000000000000000000000000000000000000 000000000000000000000000000000000000000     00000000                                                                                                                        000000000000000000
F0010000007468600004000089011069100023658300000000000000000201508120002001LA CASA DE LAS ALFOMBRAS LTDA                     C000000000012000000000000000000000100010010000000000000000000000F0010000007468600420150812000101 00000000000000000000000000000000000000000000000000000000000000000000000000000000000000000000000000000000000000000N 00000000000NCONT   00    00000000000          00000000000000000000000000000000000000000000 000000000000000A000000000000000000000000000000000000000000000 000000000000000000000000000000000000000     00000000                                                                                                                        000000000000000000
F0010000007468600005000089011069100013552100000000000000000201508120002001LA CASA DE LAS ALFOMBRAS LTDA                     D000000000012000000000000000000000100010010000000000000000000000F0010000007468600520150812000101 00000000000000000000000000000000000000000000000000000000000000000000000000000000000000000000000000000000000000000N 00000000000NCONT   00    00000000000          00000000000000000000000000000000000000000000 000000000000000A000000000000000000000000000000000000000000000 000000000000000000000000000000000000000     00000000                                                                                                                        000000000000000000
F0010000007468700001000089031248700011050500000000000000000201508120002001DISTRIBUIDORA CALIPLASTICOS LTDA                  D000000000750000000000000000000000100010010000000000000000000000F0010000007468700120150812000101 00000000000000000000000000000000000000000000000000000000000000000000000000000000000000000000000000000000000000000N 00000000000NCONT   00    00000000000          00000000000000000000000000000000000000000000 000000000000000A000000000000000000000000000000000000000000000 000000000000000000000000000000000000000     00000000                                                                                                                        000000000000000000
F0010000007468700002000089031248700041450500000000000000000201508120002001DISTRIBUIDORA CALIPLASTICOS LTDA                  C000000000700000000000000000000000100010010000000000000000000000F0010000007468700220150812000101 00000000000000000000000000000000000000000000000000000000000000000000000000000000000000000000000000000000000000000N 00000000000NCONT   00    00000000000          00000000000000000000000000000000000000000000 000000000000000A000000000000000000000000000000000000000000000 000000000000000000000000000000000000000     00000000                                                                                                                        000000000000000000
F0010000007468700003000089031248700042505000000000000000000201508120002001DISTRIBUIDORA CALIPLASTICOS LTDA                  C000000000050000000000000000000000100010010000000000000000000000F0010000007468700320150812000101 00000000000000000000000000000000000000000000000000000000000000000000000000000000000000000000000000000000000000000N 00000000000NCONT   00    00000000000          00000000000000000000000000000000000000000000 000000000000000A000000000000000000000000000000000000000000000 000000000000000000000000000000000000000     00000000                                                                                                                        000000000000000000
F0010000007468700004000089031248700023658300000000000000000201508120002001DISTRIBUIDORA CALIPLASTICOS LTDA                  C000000000005600000000000000000000100010010000000000000000000000F0010000007468700420150812000101 00000000000000000000000000000000000000000000000000000000000000000000000000000000000000000000000000000000000000000N 00000000000NCONT   00    00000000000          00000000000000000000000000000000000000000000 000000000000000A000000000000000000000000000000000000000000000 000000000000000000000000000000000000000     00000000                                                                                                                        000000000000000000
F0010000007468700005000089031248700013552100000000000000000201508120002001DISTRIBUIDORA CALIPLASTICOS LTDA                  D000000000005600000000000000000000100010010000000000000000000000F0010000007468700520150812000101 00000000000000000000000000000000000000000000000000000000000000000000000000000000000000000000000000000000000000000N 00000000000NCONT   00    00000000000          00000000000000000000000000000000000000000000 000000000000000A000000000000000000000000000000000000000000000 000000000000000000000000000000000000000     00000000                                                                                                                        000000000000000000
F0010000007468800001000007200205100011050500000000000000000201508120002001LUIS MOLINA                                       D000000001200000000000000000000000100010010000000000000000000000F0010000007468800120150812000101 00000000000000000000000000000000000000000000000000000000000000000000000000000000000000000000000000000000000000000N 00000000000NCONT   00    00000000000          00000000000000000000000000000000000000000000 000000000000000A000000000000000000000000000000000000000000000 000000000000000000000000000000000000000     00000000                                                                                                                        000000000000000000
F0010000007468800002000007200205100041450500000000000000000201508120002001LUIS MOLINA                                       C000000001100000000000000000000000100010010000000000000000000000F0010000007468800220150812000101 00000000000000000000000000000000000000000000000000000000000000000000000000000000000000000000000000000000000000000N 00000000000NCONT   00    00000000000          00000000000000000000000000000000000000000000 000000000000000A000000000000000000000000000000000000000000000 000000000000000000000000000000000000000     00000000                                                                                                                        000000000000000000
F0010000007468800003000007200205100042505000000000000000000201508120002001LUIS MOLINA                                       C000000000100000000000000000000000100010010000000000000000000000F0010000007468800320150812000101 00000000000000000000000000000000000000000000000000000000000000000000000000000000000000000000000000000000000000000N 00000000000NCONT   00    00000000000          00000000000000000000000000000000000000000000 000000000000000A000000000000000000000000000000000000000000000 000000000000000000000000000000000000000     00000000                                                                                                                        000000000000000000
F0010000007468800004000007200205100023658300000000000000000201508120002001LUIS MOLINA                                       C000000000008800000000000000000000100010010000000000000000000000F0010000007468800420150812000101 00000000000000000000000000000000000000000000000000000000000000000000000000000000000000000000000000000000000000000N 00000000000NCONT   00    00000000000          00000000000000000000000000000000000000000000 000000000000000A000000000000000000000000000000000000000000000 000000000000000000000000000000000000000     00000000                                                                                                                        000000000000000000
F0010000007468800005000007200205100013552100000000000000000201508120002001LUIS MOLINA                                       D000000000008800000000000000000000100010010000000000000000000000F0010000007468800520150812000101 00000000000000000000000000000000000000000000000000000000000000000000000000000000000000000000000000000000000000000N 00000000000NCONT   00    00000000000          00000000000000000000000000000000000000000000 000000000000000A000000000000000000000000000000000000000000000 000000000000000000000000000000000000000     00000000                                                                                                                        000000000000000000
F0010000007468900001000003733084900011050500000000000000000201508120002001PORTYSUELAS                                       D000000001300000000000000000000000100010010000000000000000000000F0010000007468900120150812000101 00000000000000000000000000000000000000000000000000000000000000000000000000000000000000000000000000000000000000000N 00000000000NCONT   00    00000000000          00000000000000000000000000000000000000000000 000000000000000A000000000000000000000000000000000000000000000 000000000000000000000000000000000000000     00000000                                                                                                                        000000000000000000
F0010000007468900002000003733084900041450500000000000000000201508120002001PORTYSUELAS                                       C000000001000000000000000000000000100010010000000000000000000000F0010000007468900220150812000101 00000000000000000000000000000000000000000000000000000000000000000000000000000000000000000000000000000000000000000N 00000000000NCONT   00    00000000000          00000000000000000000000000000000000000000000 000000000000000A000000000000000000000000000000000000000000000 000000000000000000000000000000000000000     00000000                                                                                                                        000000000000000000
