F0010000008406100001000090034602400011050500000000000000000201603200002001PRODUCTOS NACIONALES PARAFINICOS LA CUSTODIA S.A.SD000000003000000000000000000000000100010010000000000000000000000F0010000008406100120160320000101 00000000000000000000000000000000000000000000000000000000000000000000000000000000000000000000000000000000000000000N 00000000000NCONT   00    00000000000          00000000000000000000000000000000000000000000 000000000000000A000000000000000000000000000000000000000000000 000000000000000000000000000000000000000     00000000                                                                                                                        000000000000000000
F0010000008406100002000090034602400041450500000000000000000201603200002001PRODUCTOS NACIONALES PARAFINICOS LA CUSTODIA S.A.SC000000002800000000000000000000000100010010000000000000000000000F0010000008406100220160320000101 00000000000000000000000000000000000000000000000000000000000000000000000000000000000000000000000000000000000000000N 00000000000NCONT   00    00000000000          00000000000000000000000000000000000000000000 000000000000000A000000000000000000000000000000000000000000000 000000000000000000000000000000000000000     00000000                                                                                                                        000000000000000000
F0010000008406100003000090034602400042505000000000000000000201603200002001PRODUCTOS NACIONALES PARAFINICOS LA CUSTODIA S.A.SC000000000200000000000000000000000100010010000000000000000000000F0010000008406100320160320000101 00000000000000000000000000000000000000000000000000000000000000000000000000000000000000000000000000000000000000000N 00000000000NCONT   00    00000000000          00000000000000000000000000000000000000000000 000000000000000A000000000000000000000000000000000000000000000 000000000000000000000000000000000000000     00000000                                                                                                                        000000000000000000
F0010000008406100004000090034602400023658300000000000000000201603200002001PRODUCTOS NACIONALES PARAFINICOS LA CUSTODIA S.A.SC000000000022400000000000000000000100010010000000000000000000000F0010000008406100420160320000101 00000000000000000000000000000000000000000000000000000000000000000000000000000000000000000000000000000000000000000N 00000000000NCONT   00    00000000000          00000000000000000000000000000000000000000000 000000000000000A000000000000000000000000000000000000000000000 000000000000000000000000000000000000000     00000000                                                                                                                        000000000000000000
F0010000008406100005000090034602400013552100000000000000000201603200002001PRODUCTOS NACIONALES PARAFINICOS LA CUSTODIA S.A.SD000000000022400000000000000000000100010010000000000000000000000F0010000008406100520160320000101 00000000000000000000000000000000000000000000000000000000000000000000000000000000000000000000000000000000000000000N 00000000000NCONT   00    00000000000          00000000000000000000000000000000000000000000 000000000000000A000000000000000000000000000000000000000000000 000000000000000000000000000000000000000     00000000                                                                                                                        000000000000000000
F0010000008406200001000000860054200011050500000000000000000201603200002001HENRY DE LA HOZ                                   D000000007400000000000000000000000100010010000000000000000000000F0010000008406200120160320000101 00000000000000000000000000000000000000000000000000000000000000000000000000000000000000000000000000000000000000000N 00000000000NCONT   00    00000000000          00000000000000000000000000000000000000000000 000000000000000A000000000000000000000000000000000000000000000 000000000000000000000000000000000000000     00000000                                                                                                                        000000000000000000
F0010000008406200002000000860054200041450500000000000000000201603200002001HENRY DE LA HOZ                                   C000000006500000000000000000000000100010010000000000000000000000F0010000008406200220160320000101 00000000000000000000000000000000000000000000000000000000000000000000000000000000000000000000000000000000000000000N 00000000000NCONT   00    00000000000          00000000000000000000000000000000000000000000 000000000000000A000000000000000000000000000000000000000000000 000000000000000000000000000000000000000     00000000                                                                                                                        000000000000000000
F0010000008406200003000000860054200042505000000000000000000201603200002001HENRY DE LA HOZ                                   C000000000900000000000000000000000100010010000000000000000000000F0010000008406200320160320000101 00000000000000000000000000000000000000000000000000000000000000000000000000000000000000000000000000000000000000000N 00000000000NCONT   00    00000000000          00000000000000000000000000000000000000000000 000000000000000A000000000000000000000000000000000000000000000 000000000000000000000000000000000000000     00000000                                                                                                                        000000000000000000
F0010000008406200004000000860054200023658300000000000000000201603200002001HENRY DE LA HOZ                                   C000000000052000000000000000000000100010010000000000000000000000F0010000008406200420160320000101 00000000000000000000000000000000000000000000000000000000000000000000000000000000000000000000000000000000000000000N 00000000000NCONT   00    00000000000          00000000000000000000000000000000000000000000 000000000000000A000000000000000000000000000000000000000000000 000000000000000000000000000000000000000     00000000                                                                                                                        000000000000000000
F0010000008406200005000000860054200013552100000000000000000201603200002001HENRY DE LA HOZ                                   D000000000052000000000000000000000100010010000000000000000000000F0010000008406200520160320000101 00000000000000000000000000000000000000000000000000000000000000000000000000000000000000000000000000000000000000000N 00000000000NCONT   00    00000000000          00000000000000000000000000000000000000000000 000000000000000A000000000000000000000000000000000000000000000 000000000000000000000000000000000000000     00000000                                                                                                                        000000000000000000
F0010000008406300001000090034602400011050500000000000000000201603200002001PRODUCTOS NACIONALES PARAFINICOS LA CUSTODIA S.A.SD000000002600000000000000000000000100010010000000000000000000000F0010000008406300120160320000101 00000000000000000000000000000000000000000000000000000000000000000000000000000000000000000000000000000000000000000N 00000000000NCONT   00    00000000000          00000000000000000000000000000000000000000000 000000000000000A000000000000000000000000000000000000000000000 000000000000000000000000000000000000000     00000000                                                                                                                        000000000000000000
F0010000008406300002000090034602400041450500000000000000000201603200002001PRODUCTOS NACIONALES PARAFINICOS LA CUSTODIA S.A.SC000000002400000000000000000000000100010010000000000000000000000F0010000008406300220160320000101 00000000000000000000000000000000000000000000000000000000000000000000000000000000000000000000000000000000000000000N 00000000000NCONT   00    00000000000          00000000000000000000000000000000000000000000 000000000000000A000000000000000000000000000000000000000000000 000000000000000000000000000000000000000     00000000                                                                                                                        000000000000000000
F0010000008406300003000090034602400042505000000000000000000201603200002001PRODUCTOS NACIONALES PARAFINICOS LA CUSTODIA S.A.SC000000000200000000000000000000000100010010000000000000000000000F0010000008406300320160320000101 00000000000000000000000000000000000000000000000000000000000000000000000000000000000000000000000000000000000000000N 00000000000NCONT   00    00000000000          00000000000000000000000000000000000000000000 000000000000000A000000000000000000000000000000000000000000000 000000000000000000000000000000000000000     00000000                                                                                                                        000000000000000000
F0010000008406300004000090034602400023658300000000000000000201603200002001PRODUCTOS NACIONALES PARAFINICOS LA CUSTODIA S.A.SC000000000019200000000000000000000100010010000000000000000000000F0010000008406300420160320000101 00000000000000000000000000000000000000000000000000000000000000000000000000000000000000000000000000000000000000000N 00000000000NCONT   00    00000000000          00000000000000000000000000000000000000000000 000000000000000A000000000000000000000000000000000000000000000 000000000000000000000000000000000000000     00000000                                                                                                                        000000000000000000
F0010000008406300005000090034602400013552100000000000000000201603200002001PRODUCTOS NACIONALES PARAFINICOS LA CUSTODIA S.A.SD000000000019200000000000000000000100010010000000000000000000000F0010000008406300520160320000101 00000000000000000000000000000000000000000000000000000000000000000000000000000000000000000000000000000000000000000N 00000000000NCONT   00    00000000000          00000000000000000000000000000000000000000000 000000000000000A000000000000000000000000000000000000000000000 000000000000000000000000000000000000000     00000000                                                                                                                        000000000000000000
