F0010000007373900001000003266728500011050500000000000000000201507210002001SORAYA DE LIMA                                    D000000002000000000000000000000000100010010000000000000000000000F0010000007373900120150721000101 00000000000000000000000000000000000000000000000000000000000000000000000000000000000000000000000000000000000000000N 00000000000NCONT   00    00000000000          00000000000000000000000000000000000000000000 000000000000000A000000000000000000000000000000000000000000000 000000000000000000000000000000000000000     00000000                                                                                                                        000000000000000000
F0010000007373900002000003266728500041450500000000000000000201507210002001SORAYA DE LIMA                                    C000000001800000000000000000000000100010010000000000000000000000F0010000007373900220150721000101 00000000000000000000000000000000000000000000000000000000000000000000000000000000000000000000000000000000000000000N 00000000000NCONT   00    00000000000          00000000000000000000000000000000000000000000 000000000000000A000000000000000000000000000000000000000000000 000000000000000000000000000000000000000     00000000                                                                                                                        000000000000000000
F0010000007373900003000003266728500042505000000000000000000201507210002001SORAYA DE LIMA                                    C000000000200000000000000000000000100010010000000000000000000000F0010000007373900320150721000101 00000000000000000000000000000000000000000000000000000000000000000000000000000000000000000000000000000000000000000N 00000000000NCONT   00    00000000000          00000000000000000000000000000000000000000000 000000000000000A000000000000000000000000000000000000000000000 000000000000000000000000000000000000000     00000000                                                                                                                        000000000000000000
F0010000007373900004000003266728500023658300000000000000000201507210002001SORAYA DE LIMA                                    C000000000014400000000000000000000100010010000000000000000000000F0010000007373900420150721000101 00000000000000000000000000000000000000000000000000000000000000000000000000000000000000000000000000000000000000000N 00000000000NCONT   00    00000000000          00000000000000000000000000000000000000000000 000000000000000A000000000000000000000000000000000000000000000 000000000000000000000000000000000000000     00000000                                                                                                                        000000000000000000
F0010000007373900005000003266728500013552100000000000000000201507210002001SORAYA DE LIMA                                    D000000000014400000000000000000000100010010000000000000000000000F0010000007373900520150721000101 00000000000000000000000000000000000000000000000000000000000000000000000000000000000000000000000000000000000000000N 00000000000NCONT   00    00000000000          00000000000000000000000000000000000000000000 000000000000000A000000000000000000000000000000000000000000000 000000000000000000000000000000000000000     00000000                                                                                                                        000000000000000000
F0010000007374000001000089011033000011050500000000000000000201507210002001INDUSTRIAS CRUZ & CAÑON LTDA                     D000000015000000000000000000000000100010010000000000000000000000F0010000007374000120150721000101 00000000000000000000000000000000000000000000000000000000000000000000000000000000000000000000000000000000000000000N 00000000000NCONT   00    00000000000          00000000000000000000000000000000000000000000 000000000000000A000000000000000000000000000000000000000000000 000000000000000000000000000000000000000     00000000                                                                                                                        000000000000000000
F0010000007374000002000089011033000041450500000000000000000201507210002001INDUSTRIAS CRUZ & CAÑON LTDA                     C000000013500000000000000000000000100010010000000000000000000000F0010000007374000220150721000101 00000000000000000000000000000000000000000000000000000000000000000000000000000000000000000000000000000000000000000N 00000000000NCONT   00    00000000000          00000000000000000000000000000000000000000000 000000000000000A000000000000000000000000000000000000000000000 000000000000000000000000000000000000000     00000000                                                                                                                        000000000000000000
F0010000007374000003000089011033000042505000000000000000000201507210002001INDUSTRIAS CRUZ & CAÑON LTDA                     C000000001500000000000000000000000100010010000000000000000000000F0010000007374000320150721000101 00000000000000000000000000000000000000000000000000000000000000000000000000000000000000000000000000000000000000000N 00000000000NCONT   00    00000000000          00000000000000000000000000000000000000000000 000000000000000A000000000000000000000000000000000000000000000 000000000000000000000000000000000000000     00000000                                                                                                                        000000000000000000
F0010000007374000004000089011033000023658300000000000000000201507210002001INDUSTRIAS CRUZ & CAÑON LTDA                     C000000000108000000000000000000000100010010000000000000000000000F0010000007374000420150721000101 00000000000000000000000000000000000000000000000000000000000000000000000000000000000000000000000000000000000000000N 00000000000NCONT   00    00000000000          00000000000000000000000000000000000000000000 000000000000000A000000000000000000000000000000000000000000000 000000000000000000000000000000000000000     00000000                                                                                                                        000000000000000000
F0010000007374000005000089011033000013552100000000000000000201507210002001INDUSTRIAS CRUZ & CAÑON LTDA                     D000000000108000000000000000000000100010010000000000000000000000F0010000007374000520150721000101 00000000000000000000000000000000000000000000000000000000000000000000000000000000000000000000000000000000000000000N 00000000000NCONT   00    00000000000          00000000000000000000000000000000000000000000 000000000000000A000000000000000000000000000000000000000000000 000000000000000000000000000000000000000     00000000                                                                                                                        000000000000000000
F0010000007374100001000090034602400011050500000000000000000201507210002001PRODUCTOS NACIONALES PARAFINICOS LA CUSTODIA S.A.SD000000002000000000000000000000000100010010000000000000000000000F0010000007374100120150721000101 00000000000000000000000000000000000000000000000000000000000000000000000000000000000000000000000000000000000000000N 00000000000NCONT   00    00000000000          00000000000000000000000000000000000000000000 000000000000000A000000000000000000000000000000000000000000000 000000000000000000000000000000000000000     00000000                                                                                                                        000000000000000000
F0010000007374100002000090034602400041450500000000000000000201507210002001PRODUCTOS NACIONALES PARAFINICOS LA CUSTODIA S.A.SC000000001800000000000000000000000100010010000000000000000000000F0010000007374100220150721000101 00000000000000000000000000000000000000000000000000000000000000000000000000000000000000000000000000000000000000000N 00000000000NCONT   00    00000000000          00000000000000000000000000000000000000000000 000000000000000A000000000000000000000000000000000000000000000 000000000000000000000000000000000000000     00000000                                                                                                                        000000000000000000
F0010000007374100003000090034602400042505000000000000000000201507210002001PRODUCTOS NACIONALES PARAFINICOS LA CUSTODIA S.A.SC000000000200000000000000000000000100010010000000000000000000000F0010000007374100320150721000101 00000000000000000000000000000000000000000000000000000000000000000000000000000000000000000000000000000000000000000N 00000000000NCONT   00    00000000000          00000000000000000000000000000000000000000000 000000000000000A000000000000000000000000000000000000000000000 000000000000000000000000000000000000000     00000000                                                                                                                        000000000000000000
F0010000007374100004000090034602400023658300000000000000000201507210002001PRODUCTOS NACIONALES PARAFINICOS LA CUSTODIA S.A.SC000000000014400000000000000000000100010010000000000000000000000F0010000007374100420150721000101 00000000000000000000000000000000000000000000000000000000000000000000000000000000000000000000000000000000000000000N 00000000000NCONT   00    00000000000          00000000000000000000000000000000000000000000 000000000000000A000000000000000000000000000000000000000000000 000000000000000000000000000000000000000     00000000                                                                                                                        000000000000000000
F0010000007374100005000090034602400013552100000000000000000201507210002001PRODUCTOS NACIONALES PARAFINICOS LA CUSTODIA S.A.SD000000000014400000000000000000000100010010000000000000000000000F0010000007374100520150721000101 00000000000000000000000000000000000000000000000000000000000000000000000000000000000000000000000000000000000000000N 00000000000NCONT   00    00000000000          00000000000000000000000000000000000000000000 000000000000000A000000000000000000000000000000000000000000000 000000000000000000000000000000000000000     00000000                                                                                                                        000000000000000000
F0010000007374200001000080023327700011050500000000000000000201507210002001DISINCO LTDA                                      D000000008900000000000000000000000100010010000000000000000000000F0010000007374200120150721000101 00000000000000000000000000000000000000000000000000000000000000000000000000000000000000000000000000000000000000000N 00000000000NCONT   00    00000000000          00000000000000000000000000000000000000000000 000000000000000A000000000000000000000000000000000000000000000 000000000000000000000000000000000000000     00000000                                                                                                                        000000000000000000
F0010000007374200002000080023327700041450500000000000000000201507210002001DISINCO LTDA                                      C000000008300000000000000000000000100010010000000000000000000000F0010000007374200220150721000101 00000000000000000000000000000000000000000000000000000000000000000000000000000000000000000000000000000000000000000N 00000000000NCONT   00    00000000000          00000000000000000000000000000000000000000000 000000000000000A000000000000000000000000000000000000000000000 000000000000000000000000000000000000000     00000000                                                                                                                        000000000000000000
F0010000007374200003000080023327700042505000000000000000000201507210002001DISINCO LTDA                                      C000000000600000000000000000000000100010010000000000000000000000F0010000007374200320150721000101 00000000000000000000000000000000000000000000000000000000000000000000000000000000000000000000000000000000000000000N 00000000000NCONT   00    00000000000          00000000000000000000000000000000000000000000 000000000000000A000000000000000000000000000000000000000000000 000000000000000000000000000000000000000     00000000                                                                                                                        000000000000000000
F0010000007374200004000080023327700023658300000000000000000201507210002001DISINCO LTDA                                      C000000000066400000000000000000000100010010000000000000000000000F0010000007374200420150721000101 00000000000000000000000000000000000000000000000000000000000000000000000000000000000000000000000000000000000000000N 00000000000NCONT   00    00000000000          00000000000000000000000000000000000000000000 000000000000000A000000000000000000000000000000000000000000000 000000000000000000000000000000000000000     00000000                                                                                                                        000000000000000000
F0010000007374200005000080023327700013552100000000000000000201507210002001DISINCO LTDA                                      D000000000066400000000000000000000100010010000000000000000000000F0010000007374200520150721000101 00000000000000000000000000000000000000000000000000000000000000000000000000000000000000000000000000000000000000000N 00000000000NCONT   00    00000000000          00000000000000000000000000000000000000000000 000000000000000A000000000000000000000000000000000000000000000 000000000000000000000000000000000000000     00000000                                                                                                                        000000000000000000
F0010000007374300001000080202350700011050500000000000000000201507210002001CONNY DE LA COSTA SAS                             D000000000850000000000000000000000100010010000000000000000000000F0010000007374300120150721000101 00000000000000000000000000000000000000000000000000000000000000000000000000000000000000000000000000000000000000000N 00000000000NCONT   00    00000000000          00000000000000000000000000000000000000000000 000000000000000A000000000000000000000000000000000000000000000 000000000000000000000000000000000000000     00000000                                                                                                                        000000000000000000
F0010000007374300002000080202350700041450500000000000000000201507210002001CONNY DE LA COSTA SAS                             C000000000800000000000000000000000100010010000000000000000000000F0010000007374300220150721000101 00000000000000000000000000000000000000000000000000000000000000000000000000000000000000000000000000000000000000000N 00000000000NCONT   00    00000000000          00000000000000000000000000000000000000000000 000000000000000A000000000000000000000000000000000000000000000 000000000000000000000000000000000000000     00000000                                                                                                                        000000000000000000
F0010000007374300003000080202350700042505000000000000000000201507210002001CONNY DE LA COSTA SAS                             C000000000050000000000000000000000100010010000000000000000000000F0010000007374300320150721000101 00000000000000000000000000000000000000000000000000000000000000000000000000000000000000000000000000000000000000000N 00000000000NCONT   00    00000000000          00000000000000000000000000000000000000000000 000000000000000A000000000000000000000000000000000000000000000 000000000000000000000000000000000000000     00000000                                                                                                                        000000000000000000
F0010000007374300004000080202350700023658300000000000000000201507210002001CONNY DE LA COSTA SAS                             C000000000006400000000000000000000100010010000000000000000000000F0010000007374300420150721000101 00000000000000000000000000000000000000000000000000000000000000000000000000000000000000000000000000000000000000000N 00000000000NCONT   00    00000000000          00000000000000000000000000000000000000000000 000000000000000A000000000000000000000000000000000000000000000 000000000000000000000000000000000000000     00000000                                                                                                                        000000000000000000
F0010000007374300005000080202350700013552100000000000000000201507210002001CONNY DE LA COSTA SAS                             D000000000006400000000000000000000100010010000000000000000000000F0010000007374300520150721000101 00000000000000000000000000000000000000000000000000000000000000000000000000000000000000000000000000000000000000000N 00000000000NCONT   00    00000000000          00000000000000000000000000000000000000000000 000000000000000A000000000000000000000000000000000000000000000 000000000000000000000000000000000000000     00000000                                                                                                                        000000000000000000
F0010000007374400001000001535146600011050500000000000000000201507210002001ORLANDO OROZCO NAVARRO                            D000000001700000000000000000000000100010010000000000000000000000F0010000007374400120150721000101 00000000000000000000000000000000000000000000000000000000000000000000000000000000000000000000000000000000000000000N 00000000000NCONT   00    00000000000          00000000000000000000000000000000000000000000 000000000000000A000000000000000000000000000000000000000000000 000000000000000000000000000000000000000     00000000                                                                                                                        000000000000000000
F0010000007374400002000001535146600041450500000000000000000201507210002001ORLANDO OROZCO NAVARRO                            C000000001600000000000000000000000100010010000000000000000000000F0010000007374400220150721000101 00000000000000000000000000000000000000000000000000000000000000000000000000000000000000000000000000000000000000000N 00000000000NCONT   00    00000000000          00000000000000000000000000000000000000000000 000000000000000A000000000000000000000000000000000000000000000 000000000000000000000000000000000000000     00000000                                                                                                                        000000000000000000
F0010000007374400003000001535146600042505000000000000000000201507210002001ORLANDO OROZCO NAVARRO                            C000000000100000000000000000000000100010010000000000000000000000F0010000007374400320150721000101 00000000000000000000000000000000000000000000000000000000000000000000000000000000000000000000000000000000000000000N 00000000000NCONT   00    00000000000          00000000000000000000000000000000000000000000 000000000000000A000000000000000000000000000000000000000000000 000000000000000000000000000000000000000     00000000                                                                                                                        000000000000000000
F0010000007374400004000001535146600023658300000000000000000201507210002001ORLANDO OROZCO NAVARRO                            C000000000012800000000000000000000100010010000000000000000000000F0010000007374400420150721000101 00000000000000000000000000000000000000000000000000000000000000000000000000000000000000000000000000000000000000000N 00000000000NCONT   00    00000000000          00000000000000000000000000000000000000000000 000000000000000A000000000000000000000000000000000000000000000 000000000000000000000000000000000000000     00000000                                                                                                                        000000000000000000
F0010000007374400005000001535146600013552100000000000000000201507210002001ORLANDO OROZCO NAVARRO                            D000000000012800000000000000000000100010010000000000000000000000F0010000007374400520150721000101 00000000000000000000000000000000000000000000000000000000000000000000000000000000000000000000000000000000000000000N 00000000000NCONT   00    00000000000          00000000000000000000000000000000000000000000 000000000000000A000000000000000000000000000000000000000000000 000000000000000000000000000000000000000     00000000                                                                                                                        000000000000000000
F0010000007374500001000000866840800011050500000000000000000201507210002001CACHARRERIA MARTIN                                D000000002100000000000000000000000100010010000000000000000000000F0010000007374500120150721000101 00000000000000000000000000000000000000000000000000000000000000000000000000000000000000000000000000000000000000000N 00000000000NCONT   00    00000000000          00000000000000000000000000000000000000000000 000000000000000A000000000000000000000000000000000000000000000 000000000000000000000000000000000000000     00000000                                                                                                                        000000000000000000
F0010000007374500002000000866840800041450500000000000000000201507210002001CACHARRERIA MARTIN                                C000000001600000000000000000000000100010010000000000000000000000F0010000007374500220150721000101 00000000000000000000000000000000000000000000000000000000000000000000000000000000000000000000000000000000000000000N 00000000000NCONT   00    00000000000          00000000000000000000000000000000000000000000 000000000000000A000000000000000000000000000000000000000000000 000000000000000000000000000000000000000     00000000                                                                                                                        000000000000000000
F0010000007374500003000000866840800042505000000000000000000201507210002001CACHARRERIA MARTIN                                C000000000500000000000000000000000100010010000000000000000000000F0010000007374500320150721000101 00000000000000000000000000000000000000000000000000000000000000000000000000000000000000000000000000000000000000000N 00000000000NCONT   00    00000000000          00000000000000000000000000000000000000000000 000000000000000A000000000000000000000000000000000000000000000 000000000000000000000000000000000000000     00000000                                                                                                                        000000000000000000
F0010000007374500004000000866840800023658300000000000000000201507210002001CACHARRERIA MARTIN                                C000000000012800000000000000000000100010010000000000000000000000F0010000007374500420150721000101 00000000000000000000000000000000000000000000000000000000000000000000000000000000000000000000000000000000000000000N 00000000000NCONT   00    00000000000          00000000000000000000000000000000000000000000 000000000000000A000000000000000000000000000000000000000000000 000000000000000000000000000000000000000     00000000                                                                                                                        000000000000000000
F0010000007374500005000000866840800013552100000000000000000201507210002001CACHARRERIA MARTIN                                D000000000012800000000000000000000100010010000000000000000000000F0010000007374500520150721000101 00000000000000000000000000000000000000000000000000000000000000000000000000000000000000000000000000000000000000000N 00000000000NCONT   00    00000000000          00000000000000000000000000000000000000000000 000000000000000A000000000000000000000000000000000000000000000 000000000000000000000000000000000000000     00000000                                                                                                                        000000000000000000
F0010000007374600001000000866840800011050500000000000000000201507210002001CACHARRERIA MARTIN                                D000000003500000000000000000000000100010010000000000000000000000F0010000007374600120150721000101 00000000000000000000000000000000000000000000000000000000000000000000000000000000000000000000000000000000000000000N 00000000000NCONT   00    00000000000          00000000000000000000000000000000000000000000 000000000000000A000000000000000000000000000000000000000000000 000000000000000000000000000000000000000     00000000                                                                                                                        000000000000000000
F0010000007374600002000000866840800041450500000000000000000201507210002001CACHARRERIA MARTIN                                C000000002400000000000000000000000100010010000000000000000000000F0010000007374600220150721000101 00000000000000000000000000000000000000000000000000000000000000000000000000000000000000000000000000000000000000000N 00000000000NCONT   00    00000000000          00000000000000000000000000000000000000000000 000000000000000A000000000000000000000000000000000000000000000 000000000000000000000000000000000000000     00000000                                                                                                                        000000000000000000
F0010000007374600003000000866840800042505000000000000000000201507210002001CACHARRERIA MARTIN                                C000000001100000000000000000000000100010010000000000000000000000F0010000007374600320150721000101 00000000000000000000000000000000000000000000000000000000000000000000000000000000000000000000000000000000000000000N 00000000000NCONT   00    00000000000          00000000000000000000000000000000000000000000 000000000000000A000000000000000000000000000000000000000000000 000000000000000000000000000000000000000     00000000                                                                                                                        000000000000000000
F0010000007374600004000000866840800023658300000000000000000201507210002001CACHARRERIA MARTIN                                C000000000019200000000000000000000100010010000000000000000000000F0010000007374600420150721000101 00000000000000000000000000000000000000000000000000000000000000000000000000000000000000000000000000000000000000000N 00000000000NCONT   00    00000000000          00000000000000000000000000000000000000000000 000000000000000A000000000000000000000000000000000000000000000 000000000000000000000000000000000000000     00000000                                                                                                                        000000000000000000
F0010000007374600005000000866840800013552100000000000000000201507210002001CACHARRERIA MARTIN                                D000000000019200000000000000000000100010010000000000000000000000F0010000007374600520150721000101 00000000000000000000000000000000000000000000000000000000000000000000000000000000000000000000000000000000000000000N 00000000000NCONT   00    00000000000          00000000000000000000000000000000000000000000 000000000000000A000000000000000000000000000000000000000000000 000000000000000000000000000000000000000     00000000                                                                                                                        000000000000000000
F0010000007374700001000000742399700011050500000000000000000201507210002001CACHARRERIA EL NUEVO CHADID                       D000000001000000000000000000000000100010010000000000000000000000F0010000007374700120150721000101 00000000000000000000000000000000000000000000000000000000000000000000000000000000000000000000000000000000000000000N 00000000000NCONT   00    00000000000          00000000000000000000000000000000000000000000 000000000000000A000000000000000000000000000000000000000000000 000000000000000000000000000000000000000     00000000                                                                                                                        000000000000000000
F0010000007374700002000000742399700041450500000000000000000201507210002001CACHARRERIA EL NUEVO CHADID                       C000000000800000000000000000000000100010010000000000000000000000F0010000007374700220150721000101 00000000000000000000000000000000000000000000000000000000000000000000000000000000000000000000000000000000000000000N 00000000000NCONT   00    00000000000          00000000000000000000000000000000000000000000 000000000000000A000000000000000000000000000000000000000000000 000000000000000000000000000000000000000     00000000                                                                                                                        000000000000000000
F0010000007374700003000000742399700042505000000000000000000201507210002001CACHARRERIA EL NUEVO CHADID                       C000000000200000000000000000000000100010010000000000000000000000F0010000007374700320150721000101 00000000000000000000000000000000000000000000000000000000000000000000000000000000000000000000000000000000000000000N 00000000000NCONT   00    00000000000          00000000000000000000000000000000000000000000 000000000000000A000000000000000000000000000000000000000000000 000000000000000000000000000000000000000     00000000                                                                                                                        000000000000000000
F0010000007374700004000000742399700023658300000000000000000201507210002001CACHARRERIA EL NUEVO CHADID                       C000000000006400000000000000000000100010010000000000000000000000F0010000007374700420150721000101 00000000000000000000000000000000000000000000000000000000000000000000000000000000000000000000000000000000000000000N 00000000000NCONT   00    00000000000          00000000000000000000000000000000000000000000 000000000000000A000000000000000000000000000000000000000000000 000000000000000000000000000000000000000     00000000                                                                                                                        000000000000000000
F0010000007374700005000000742399700013552100000000000000000201507210002001CACHARRERIA EL NUEVO CHADID                       D000000000006400000000000000000000100010010000000000000000000000F0010000007374700520150721000101 00000000000000000000000000000000000000000000000000000000000000000000000000000000000000000000000000000000000000000N 00000000000NCONT   00    00000000000          00000000000000000000000000000000000000000000 000000000000000A000000000000000000000000000000000000000000000 000000000000000000000000000000000000000     00000000                                                                                                                        000000000000000000
F0010000007374800001000090061985600011050500000000000000000201507210002001COMERCIALIZADORA PATRY SAS                        D000000002300000000000000000000000100010010000000000000000000000F0010000007374800120150721000101 00000000000000000000000000000000000000000000000000000000000000000000000000000000000000000000000000000000000000000N 00000000000NCONT   00    00000000000          00000000000000000000000000000000000000000000 000000000000000A000000000000000000000000000000000000000000000 000000000000000000000000000000000000000     00000000                                                                                                                        000000000000000000
F0010000007374800002000090061985600041450500000000000000000201507210002001COMERCIALIZADORA PATRY SAS                        C000000001800000000000000000000000100010010000000000000000000000F0010000007374800220150721000101 00000000000000000000000000000000000000000000000000000000000000000000000000000000000000000000000000000000000000000N 00000000000NCONT   00    00000000000          00000000000000000000000000000000000000000000 000000000000000A000000000000000000000000000000000000000000000 000000000000000000000000000000000000000     00000000                                                                                                                        000000000000000000
F0010000007374800003000090061985600042505000000000000000000201507210002001COMERCIALIZADORA PATRY SAS                        C000000000500000000000000000000000100010010000000000000000000000F0010000007374800320150721000101 00000000000000000000000000000000000000000000000000000000000000000000000000000000000000000000000000000000000000000N 00000000000NCONT   00    00000000000          00000000000000000000000000000000000000000000 000000000000000A000000000000000000000000000000000000000000000 000000000000000000000000000000000000000     00000000                                                                                                                        000000000000000000
F0010000007374800004000090061985600023658300000000000000000201507210002001COMERCIALIZADORA PATRY SAS                        C000000000014400000000000000000000100010010000000000000000000000F0010000007374800420150721000101 00000000000000000000000000000000000000000000000000000000000000000000000000000000000000000000000000000000000000000N 00000000000NCONT   00    00000000000          00000000000000000000000000000000000000000000 000000000000000A000000000000000000000000000000000000000000000 000000000000000000000000000000000000000     00000000                                                                                                                        000000000000000000
F0010000007374800005000090061985600013552100000000000000000201507210002001COMERCIALIZADORA PATRY SAS                        D000000000014400000000000000000000100010010000000000000000000000F0010000007374800520150721000101 00000000000000000000000000000000000000000000000000000000000000000000000000000000000000000000000000000000000000000N 00000000000NCONT   00    00000000000          00000000000000000000000000000000000000000000 000000000000000A000000000000000000000000000000000000000000000 000000000000000000000000000000000000000     00000000                                                                                                                        000000000000000000
F0010000007374900001000007200023300011050500000000000000000201507210002001WILLIAM ORTEGA                                    D000000001500000000000000000000000100010010000000000000000000000F0010000007374900120150721000101 00000000000000000000000000000000000000000000000000000000000000000000000000000000000000000000000000000000000000000N 00000000000NCONT   00    00000000000          00000000000000000000000000000000000000000000 000000000000000A000000000000000000000000000000000000000000000 000000000000000000000000000000000000000     00000000                                                                                                                        000000000000000000
F0010000007374900002000007200023300041450500000000000000000201507210002001WILLIAM ORTEGA                                    C000000001300000000000000000000000100010010000000000000000000000F0010000007374900220150721000101 00000000000000000000000000000000000000000000000000000000000000000000000000000000000000000000000000000000000000000N 00000000000NCONT   00    00000000000          00000000000000000000000000000000000000000000 000000000000000A000000000000000000000000000000000000000000000 000000000000000000000000000000000000000     00000000                                                                                                                        000000000000000000
F0010000007374900003000007200023300042505000000000000000000201507210002001WILLIAM ORTEGA                                    C000000000200000000000000000000000100010010000000000000000000000F0010000007374900320150721000101 00000000000000000000000000000000000000000000000000000000000000000000000000000000000000000000000000000000000000000N 00000000000NCONT   00    00000000000          00000000000000000000000000000000000000000000 000000000000000A000000000000000000000000000000000000000000000 000000000000000000000000000000000000000     00000000                                                                                                                        000000000000000000
F0010000007374900004000007200023300023658300000000000000000201507210002001WILLIAM ORTEGA                                    C000000000010400000000000000000000100010010000000000000000000000F0010000007374900420150721000101 00000000000000000000000000000000000000000000000000000000000000000000000000000000000000000000000000000000000000000N 00000000000NCONT   00    00000000000          00000000000000000000000000000000000000000000 000000000000000A000000000000000000000000000000000000000000000 000000000000000000000000000000000000000     00000000                                                                                                                        000000000000000000
F0010000007374900005000007200023300013552100000000000000000201507210002001WILLIAM ORTEGA                                    D000000000010400000000000000000000100010010000000000000000000000F0010000007374900520150721000101 00000000000000000000000000000000000000000000000000000000000000000000000000000000000000000000000000000000000000000N 00000000000NCONT   00    00000000000          00000000000000000000000000000000000000000000 000000000000000A000000000000000000000000000000000000000000000 000000000000000000000000000000000000000     00000000                                                                                                                        000000000000000000
F0010000007375000001000007200023300011050500000000000000000201507210002001WILLIAM ORTEGA                                    D000000002400000000000000000000000100010010000000000000000000000F0010000007375000120150721000101 00000000000000000000000000000000000000000000000000000000000000000000000000000000000000000000000000000000000000000N 00000000000NCONT   00    00000000000          00000000000000000000000000000000000000000000 000000000000000A000000000000000000000000000000000000000000000 000000000000000000000000000000000000000     00000000                                                                                                                        000000000000000000
F0010000007375000002000007200023300041450500000000000000000201507210002001WILLIAM ORTEGA                                    C000000002000000000000000000000000100010010000000000000000000000F0010000007375000220150721000101 00000000000000000000000000000000000000000000000000000000000000000000000000000000000000000000000000000000000000000N 00000000000NCONT   00    00000000000          00000000000000000000000000000000000000000000 000000000000000A000000000000000000000000000000000000000000000 000000000000000000000000000000000000000     00000000                                                                                                                        000000000000000000
F0010000007375000003000007200023300042505000000000000000000201507210002001WILLIAM ORTEGA                                    C000000000400000000000000000000000100010010000000000000000000000F0010000007375000320150721000101 00000000000000000000000000000000000000000000000000000000000000000000000000000000000000000000000000000000000000000N 00000000000NCONT   00    00000000000          00000000000000000000000000000000000000000000 000000000000000A000000000000000000000000000000000000000000000 000000000000000000000000000000000000000     00000000                                                                                                                        000000000000000000
F0010000007375000004000007200023300023658300000000000000000201507210002001WILLIAM ORTEGA                                    C000000000016000000000000000000000100010010000000000000000000000F0010000007375000420150721000101 00000000000000000000000000000000000000000000000000000000000000000000000000000000000000000000000000000000000000000N 00000000000NCONT   00    00000000000          00000000000000000000000000000000000000000000 000000000000000A000000000000000000000000000000000000000000000 000000000000000000000000000000000000000     00000000                                                                                                                        000000000000000000
F0010000007375000005000007200023300013552100000000000000000201507210002001WILLIAM ORTEGA                                    D000000000016000000000000000000000100010010000000000000000000000F0010000007375000520150721000101 00000000000000000000000000000000000000000000000000000000000000000000000000000000000000000000000000000000000000000N 00000000000NCONT   00    00000000000          00000000000000000000000000000000000000000000 000000000000000A000000000000000000000000000000000000000000000 000000000000000000000000000000000000000     00000000                                                                                                                        000000000000000000
F0010000007375100001000003918375500011050500000000000000000201507210002001GLORIA PEREZ R.                                   D000000004000000000000000000000000100010010000000000000000000000F0010000007375100120150721000101 00000000000000000000000000000000000000000000000000000000000000000000000000000000000000000000000000000000000000000N 00000000000NCONT   00    00000000000          00000000000000000000000000000000000000000000 000000000000000A000000000000000000000000000000000000000000000 000000000000000000000000000000000000000     00000000                                                                                                                        000000000000000000
F0010000007375100002000003918375500041450500000000000000000201507210002001GLORIA PEREZ R.                                   C000000002000000000000000000000000100010010000000000000000000000F0010000007375100220150721000101 00000000000000000000000000000000000000000000000000000000000000000000000000000000000000000000000000000000000000000N 00000000000NCONT   00    00000000000          00000000000000000000000000000000000000000000 000000000000000A000000000000000000000000000000000000000000000 000000000000000000000000000000000000000     00000000                                                                                                                        000000000000000000
F0010000007375100003000003918375500042505000000000000000000201507210002001GLORIA PEREZ R.                                   C000000002000000000000000000000000100010010000000000000000000000F0010000007375100320150721000101 00000000000000000000000000000000000000000000000000000000000000000000000000000000000000000000000000000000000000000N 00000000000NCONT   00    00000000000          00000000000000000000000000000000000000000000 000000000000000A000000000000000000000000000000000000000000000 000000000000000000000000000000000000000     00000000                                                                                                                        000000000000000000
F0010000007375100004000003918375500023658300000000000000000201507210002001GLORIA PEREZ R.                                   C000000000016000000000000000000000100010010000000000000000000000F0010000007375100420150721000101 00000000000000000000000000000000000000000000000000000000000000000000000000000000000000000000000000000000000000000N 00000000000NCONT   00    00000000000          00000000000000000000000000000000000000000000 000000000000000A000000000000000000000000000000000000000000000 000000000000000000000000000000000000000     00000000                                                                                                                        000000000000000000
F0010000007375100005000003918375500013552100000000000000000201507210002001GLORIA PEREZ R.                                   D000000000016000000000000000000000100010010000000000000000000000F0010000007375100520150721000101 00000000000000000000000000000000000000000000000000000000000000000000000000000000000000000000000000000000000000000N 00000000000NCONT   00    00000000000          00000000000000000000000000000000000000000000 000000000000000A000000000000000000000000000000000000000000000 000000000000000000000000000000000000000     00000000                                                                                                                        000000000000000000
F0010000007375200001000001022529300011050500000000000000000201507210002001ALBERTO ALVAREZ ISAZA                             D000000001640000000000000000000000100010010000000000000000000000F0010000007375200120150721000101 00000000000000000000000000000000000000000000000000000000000000000000000000000000000000000000000000000000000000000N 00000000000NCONT   00    00000000000          00000000000000000000000000000000000000000000 000000000000000A000000000000000000000000000000000000000000000 000000000000000000000000000000000000000     00000000                                                                                                                        000000000000000000
F0010000007375200002000001022529300041450500000000000000000201507210002001ALBERTO ALVAREZ ISAZA                             C000000001600000000000000000000000100010010000000000000000000000F0010000007375200220150721000101 00000000000000000000000000000000000000000000000000000000000000000000000000000000000000000000000000000000000000000N 00000000000NCONT   00    00000000000          00000000000000000000000000000000000000000000 000000000000000A000000000000000000000000000000000000000000000 000000000000000000000000000000000000000     00000000                                                                                                                        000000000000000000
F0010000007375200003000001022529300042505000000000000000000201507210002001ALBERTO ALVAREZ ISAZA                             C000000000040000000000000000000000100010010000000000000000000000F0010000007375200320150721000101 00000000000000000000000000000000000000000000000000000000000000000000000000000000000000000000000000000000000000000N 00000000000NCONT   00    00000000000          00000000000000000000000000000000000000000000 000000000000000A000000000000000000000000000000000000000000000 000000000000000000000000000000000000000     00000000                                                                                                                        000000000000000000
F0010000007375200004000001022529300023658300000000000000000201507210002001ALBERTO ALVAREZ ISAZA                             C000000000012800000000000000000000100010010000000000000000000000F0010000007375200420150721000101 00000000000000000000000000000000000000000000000000000000000000000000000000000000000000000000000000000000000000000N 00000000000NCONT   00    00000000000          00000000000000000000000000000000000000000000 000000000000000A000000000000000000000000000000000000000000000 000000000000000000000000000000000000000     00000000                                                                                                                        000000000000000000
F0010000007375200005000001022529300013552100000000000000000201507210002001ALBERTO ALVAREZ ISAZA                             D000000000012800000000000000000000100010010000000000000000000000F0010000007375200520150721000101 00000000000000000000000000000000000000000000000000000000000000000000000000000000000000000000000000000000000000000N 00000000000NCONT   00    00000000000          00000000000000000000000000000000000000000000 000000000000000A000000000000000000000000000000000000000000000 000000000000000000000000000000000000000     00000000                                                                                                                        000000000000000000
F0010000007375300001000001022529300011050500000000000000000201507210002001ALBERTO ALVAREZ ISAZA                             D000000000820000000000000000000000100010010000000000000000000000F0010000007375300120150721000101 00000000000000000000000000000000000000000000000000000000000000000000000000000000000000000000000000000000000000000N 00000000000NCONT   00    00000000000          00000000000000000000000000000000000000000000 000000000000000A000000000000000000000000000000000000000000000 000000000000000000000000000000000000000     00000000                                                                                                                        000000000000000000
F0010000007375300002000001022529300041450500000000000000000201507210002001ALBERTO ALVAREZ ISAZA                             C000000000800000000000000000000000100010010000000000000000000000F0010000007375300220150721000101 00000000000000000000000000000000000000000000000000000000000000000000000000000000000000000000000000000000000000000N 00000000000NCONT   00    00000000000          00000000000000000000000000000000000000000000 000000000000000A000000000000000000000000000000000000000000000 000000000000000000000000000000000000000     00000000                                                                                                                        000000000000000000
F0010000007375300003000001022529300042505000000000000000000201507210002001ALBERTO ALVAREZ ISAZA                             C000000000020000000000000000000000100010010000000000000000000000F0010000007375300320150721000101 00000000000000000000000000000000000000000000000000000000000000000000000000000000000000000000000000000000000000000N 00000000000NCONT   00    00000000000          00000000000000000000000000000000000000000000 000000000000000A000000000000000000000000000000000000000000000 000000000000000000000000000000000000000     00000000                                                                                                                        000000000000000000
F0010000007375300004000001022529300023658300000000000000000201507210002001ALBERTO ALVAREZ ISAZA                             C000000000006400000000000000000000100010010000000000000000000000F0010000007375300420150721000101 00000000000000000000000000000000000000000000000000000000000000000000000000000000000000000000000000000000000000000N 00000000000NCONT   00    00000000000          00000000000000000000000000000000000000000000 000000000000000A000000000000000000000000000000000000000000000 000000000000000000000000000000000000000     00000000                                                                                                                        000000000000000000
F0010000007375300005000001022529300013552100000000000000000201507210002001ALBERTO ALVAREZ ISAZA                             D000000000006400000000000000000000100010010000000000000000000000F0010000007375300520150721000101 00000000000000000000000000000000000000000000000000000000000000000000000000000000000000000000000000000000000000000N 00000000000NCONT   00    00000000000          00000000000000000000000000000000000000000000 000000000000000A000000000000000000000000000000000000000000000 000000000000000000000000000000000000000     00000000                                                                                                                        000000000000000000
F0010000007375400001000001022529300011050500000000000000000201507210002001ALBERTO ALVAREZ ISAZA                             D000000002460000000000000000000000100010010000000000000000000000F0010000007375400120150721000101 00000000000000000000000000000000000000000000000000000000000000000000000000000000000000000000000000000000000000000N 00000000000NCONT   00    00000000000          00000000000000000000000000000000000000000000 000000000000000A000000000000000000000000000000000000000000000 000000000000000000000000000000000000000     00000000                                                                                                                        000000000000000000
F0010000007375400002000001022529300041450500000000000000000201507210002001ALBERTO ALVAREZ ISAZA                             C000000002400000000000000000000000100010010000000000000000000000F0010000007375400220150721000101 00000000000000000000000000000000000000000000000000000000000000000000000000000000000000000000000000000000000000000N 00000000000NCONT   00    00000000000          00000000000000000000000000000000000000000000 000000000000000A000000000000000000000000000000000000000000000 000000000000000000000000000000000000000     00000000                                                                                                                        000000000000000000
F0010000007375400003000001022529300042505000000000000000000201507210002001ALBERTO ALVAREZ ISAZA                             C000000000060000000000000000000000100010010000000000000000000000F0010000007375400320150721000101 00000000000000000000000000000000000000000000000000000000000000000000000000000000000000000000000000000000000000000N 00000000000NCONT   00    00000000000          00000000000000000000000000000000000000000000 000000000000000A000000000000000000000000000000000000000000000 000000000000000000000000000000000000000     00000000                                                                                                                        000000000000000000
F0010000007375400004000001022529300023658300000000000000000201507210002001ALBERTO ALVAREZ ISAZA                             C000000000019200000000000000000000100010010000000000000000000000F0010000007375400420150721000101 00000000000000000000000000000000000000000000000000000000000000000000000000000000000000000000000000000000000000000N 00000000000NCONT   00    00000000000          00000000000000000000000000000000000000000000 000000000000000A000000000000000000000000000000000000000000000 000000000000000000000000000000000000000     00000000                                                                                                                        000000000000000000
F0010000007375400005000001022529300013552100000000000000000201507210002001ALBERTO ALVAREZ ISAZA                             D000000000019200000000000000000000100010010000000000000000000000F0010000007375400520150721000101 00000000000000000000000000000000000000000000000000000000000000000000000000000000000000000000000000000000000000000N 00000000000NCONT   00    00000000000          00000000000000000000000000000000000000000000 000000000000000A000000000000000000000000000000000000000000000 000000000000000000000000000000000000000     00000000                                                                                                                        000000000000000000
F0010000007375500001000001022529300011050500000000000000000201507210002001ALBERTO ALVAREZ ISAZA                             D000000000820000000000000000000000100010010000000000000000000000F0010000007375500120150721000101 00000000000000000000000000000000000000000000000000000000000000000000000000000000000000000000000000000000000000000N 00000000000NCONT   00    00000000000          00000000000000000000000000000000000000000000 000000000000000A000000000000000000000000000000000000000000000 000000000000000000000000000000000000000     00000000                                                                                                                        000000000000000000
F0010000007375500002000001022529300041450500000000000000000201507210002001ALBERTO ALVAREZ ISAZA                             C000000000800000000000000000000000100010010000000000000000000000F0010000007375500220150721000101 00000000000000000000000000000000000000000000000000000000000000000000000000000000000000000000000000000000000000000N 00000000000NCONT   00    00000000000          00000000000000000000000000000000000000000000 000000000000000A000000000000000000000000000000000000000000000 000000000000000000000000000000000000000     00000000                                                                                                                        000000000000000000
F0010000007375500003000001022529300042505000000000000000000201507210002001ALBERTO ALVAREZ ISAZA                             C000000000020000000000000000000000100010010000000000000000000000F0010000007375500320150721000101 00000000000000000000000000000000000000000000000000000000000000000000000000000000000000000000000000000000000000000N 00000000000NCONT   00    00000000000          00000000000000000000000000000000000000000000 000000000000000A000000000000000000000000000000000000000000000 000000000000000000000000000000000000000     00000000                                                                                                                        000000000000000000
F0010000007375500004000001022529300023658300000000000000000201507210002001ALBERTO ALVAREZ ISAZA                             C000000000006400000000000000000000100010010000000000000000000000F0010000007375500420150721000101 00000000000000000000000000000000000000000000000000000000000000000000000000000000000000000000000000000000000000000N 00000000000NCONT   00    00000000000          00000000000000000000000000000000000000000000 000000000000000A000000000000000000000000000000000000000000000 000000000000000000000000000000000000000     00000000                                                                                                                        000000000000000000
F0010000007375500005000001022529300013552100000000000000000201507210002001ALBERTO ALVAREZ ISAZA                             D000000000006400000000000000000000100010010000000000000000000000F0010000007375500520150721000101 00000000000000000000000000000000000000000000000000000000000000000000000000000000000000000000000000000000000000000N 00000000000NCONT   00    00000000000          00000000000000000000000000000000000000000000 000000000000000A000000000000000000000000000000000000000000000 000000000000000000000000000000000000000     00000000                                                                                                                        000000000000000000
F0010000007375600001000007215763400011050500000000000000000201507210002001MANGUERAS E IRRIGACIONES AGRICOLAS G.F            D000000006500000000000000000000000100010010000000000000000000000F0010000007375600120150721000101 00000000000000000000000000000000000000000000000000000000000000000000000000000000000000000000000000000000000000000N 00000000000NCONT   00    00000000000          00000000000000000000000000000000000000000000 000000000000000A000000000000000000000000000000000000000000000 000000000000000000000000000000000000000     00000000                                                                                                                        000000000000000000
F0010000007375600002000007215763400041450500000000000000000201507210002001MANGUERAS E IRRIGACIONES AGRICOLAS G.F            C000000006000000000000000000000000100010010000000000000000000000F0010000007375600220150721000101 00000000000000000000000000000000000000000000000000000000000000000000000000000000000000000000000000000000000000000N 00000000000NCONT   00    00000000000          00000000000000000000000000000000000000000000 000000000000000A000000000000000000000000000000000000000000000 000000000000000000000000000000000000000     00000000                                                                                                                        000000000000000000
F0010000007375600003000007215763400042505000000000000000000201507210002001MANGUERAS E IRRIGACIONES AGRICOLAS G.F            C000000000500000000000000000000000100010010000000000000000000000F0010000007375600320150721000101 00000000000000000000000000000000000000000000000000000000000000000000000000000000000000000000000000000000000000000N 00000000000NCONT   00    00000000000          00000000000000000000000000000000000000000000 000000000000000A000000000000000000000000000000000000000000000 000000000000000000000000000000000000000     00000000                                                                                                                        000000000000000000
F0010000007375600004000007215763400023658300000000000000000201507210002001MANGUERAS E IRRIGACIONES AGRICOLAS G.F            C000000000048000000000000000000000100010010000000000000000000000F0010000007375600420150721000101 00000000000000000000000000000000000000000000000000000000000000000000000000000000000000000000000000000000000000000N 00000000000NCONT   00    00000000000          00000000000000000000000000000000000000000000 000000000000000A000000000000000000000000000000000000000000000 000000000000000000000000000000000000000     00000000                                                                                                                        000000000000000000
F0010000007375600005000007215763400013552100000000000000000201507210002001MANGUERAS E IRRIGACIONES AGRICOLAS G.F            D000000000048000000000000000000000100010010000000000000000000000F0010000007375600520150721000101 00000000000000000000000000000000000000000000000000000000000000000000000000000000000000000000000000000000000000000N 00000000000NCONT   00    00000000000          00000000000000000000000000000000000000000000 000000000000000A000000000000000000000000000000000000000000000 000000000000000000000000000000000000000     00000000                                                                                                                        000000000000000000
F0010000007375700001000090052543100011050500000000000000000201507210002001SECRET COLOR SAS                                  D000000000850000000000000000000000100010010000000000000000000000F0010000007375700120150721000101 00000000000000000000000000000000000000000000000000000000000000000000000000000000000000000000000000000000000000000N 00000000000NCONT   00    00000000000          00000000000000000000000000000000000000000000 000000000000000A000000000000000000000000000000000000000000000 000000000000000000000000000000000000000     00000000                                                                                                                        000000000000000000
F0010000007375700002000090052543100041450500000000000000000201507210002001SECRET COLOR SAS                                  C000000000800000000000000000000000100010010000000000000000000000F0010000007375700220150721000101 00000000000000000000000000000000000000000000000000000000000000000000000000000000000000000000000000000000000000000N 00000000000NCONT   00    00000000000          00000000000000000000000000000000000000000000 000000000000000A000000000000000000000000000000000000000000000 000000000000000000000000000000000000000     00000000                                                                                                                        000000000000000000
F0010000007375700003000090052543100042505000000000000000000201507210002001SECRET COLOR SAS                                  C000000000050000000000000000000000100010010000000000000000000000F0010000007375700320150721000101 00000000000000000000000000000000000000000000000000000000000000000000000000000000000000000000000000000000000000000N 00000000000NCONT   00    00000000000          00000000000000000000000000000000000000000000 000000000000000A000000000000000000000000000000000000000000000 000000000000000000000000000000000000000     00000000                                                                                                                        000000000000000000
F0010000007375700004000090052543100023658300000000000000000201507210002001SECRET COLOR SAS                                  C000000000006400000000000000000000100010010000000000000000000000F0010000007375700420150721000101 00000000000000000000000000000000000000000000000000000000000000000000000000000000000000000000000000000000000000000N 00000000000NCONT   00    00000000000          00000000000000000000000000000000000000000000 000000000000000A000000000000000000000000000000000000000000000 000000000000000000000000000000000000000     00000000                                                                                                                        000000000000000000
F0010000007375700005000090052543100013552100000000000000000201507210002001SECRET COLOR SAS                                  D000000000006400000000000000000000100010010000000000000000000000F0010000007375700520150721000101 00000000000000000000000000000000000000000000000000000000000000000000000000000000000000000000000000000000000000000N 00000000000NCONT   00    00000000000          00000000000000000000000000000000000000000000 000000000000000A000000000000000000000000000000000000000000000 000000000000000000000000000000000000000     00000000                                                                                                                        000000000000000000
F0010000007375800001000090052543100011050500000000000000000201507210002001SECRET COLOR SAS                                  D000000000850000000000000000000000100010010000000000000000000000F0010000007375800120150721000101 00000000000000000000000000000000000000000000000000000000000000000000000000000000000000000000000000000000000000000N 00000000000NCONT   00    00000000000          00000000000000000000000000000000000000000000 000000000000000A000000000000000000000000000000000000000000000 000000000000000000000000000000000000000     00000000                                                                                                                        000000000000000000
F0010000007375800002000090052543100041450500000000000000000201507210002001SECRET COLOR SAS                                  C000000000800000000000000000000000100010010000000000000000000000F0010000007375800220150721000101 00000000000000000000000000000000000000000000000000000000000000000000000000000000000000000000000000000000000000000N 00000000000NCONT   00    00000000000          00000000000000000000000000000000000000000000 000000000000000A000000000000000000000000000000000000000000000 000000000000000000000000000000000000000     00000000                                                                                                                        000000000000000000
F0010000007375800003000090052543100042505000000000000000000201507210002001SECRET COLOR SAS                                  C000000000050000000000000000000000100010010000000000000000000000F0010000007375800320150721000101 00000000000000000000000000000000000000000000000000000000000000000000000000000000000000000000000000000000000000000N 00000000000NCONT   00    00000000000          00000000000000000000000000000000000000000000 000000000000000A000000000000000000000000000000000000000000000 000000000000000000000000000000000000000     00000000                                                                                                                        000000000000000000
F0010000007375800004000090052543100023658300000000000000000201507210002001SECRET COLOR SAS                                  C000000000006400000000000000000000100010010000000000000000000000F0010000007375800420150721000101 00000000000000000000000000000000000000000000000000000000000000000000000000000000000000000000000000000000000000000N 00000000000NCONT   00    00000000000          00000000000000000000000000000000000000000000 000000000000000A000000000000000000000000000000000000000000000 000000000000000000000000000000000000000     00000000                                                                                                                        000000000000000000
F0010000007375800005000090052543100013552100000000000000000201507210002001SECRET COLOR SAS                                  D000000000006400000000000000000000100010010000000000000000000000F0010000007375800520150721000101 00000000000000000000000000000000000000000000000000000000000000000000000000000000000000000000000000000000000000000N 00000000000NCONT   00    00000000000          00000000000000000000000000000000000000000000 000000000000000A000000000000000000000000000000000000000000000 000000000000000000000000000000000000000     00000000                                                                                                                        000000000000000000
F0010000007375900001000090052543100011050500000000000000000201507210002001SECRET COLOR SAS                                  D000000000850000000000000000000000100010010000000000000000000000F0010000007375900120150721000101 00000000000000000000000000000000000000000000000000000000000000000000000000000000000000000000000000000000000000000N 00000000000NCONT   00    00000000000          00000000000000000000000000000000000000000000 000000000000000A000000000000000000000000000000000000000000000 000000000000000000000000000000000000000     00000000                                                                                                                        000000000000000000
F0010000007375900002000090052543100041450500000000000000000201507210002001SECRET COLOR SAS                                  C000000000800000000000000000000000100010010000000000000000000000F0010000007375900220150721000101 00000000000000000000000000000000000000000000000000000000000000000000000000000000000000000000000000000000000000000N 00000000000NCONT   00    00000000000          00000000000000000000000000000000000000000000 000000000000000A000000000000000000000000000000000000000000000 000000000000000000000000000000000000000     00000000                                                                                                                        000000000000000000
F0010000007375900003000090052543100042505000000000000000000201507210002001SECRET COLOR SAS                                  C000000000050000000000000000000000100010010000000000000000000000F0010000007375900320150721000101 00000000000000000000000000000000000000000000000000000000000000000000000000000000000000000000000000000000000000000N 00000000000NCONT   00    00000000000          00000000000000000000000000000000000000000000 000000000000000A000000000000000000000000000000000000000000000 000000000000000000000000000000000000000     00000000                                                                                                                        000000000000000000
F0010000007375900004000090052543100023658300000000000000000201507210002001SECRET COLOR SAS                                  C000000000006400000000000000000000100010010000000000000000000000F0010000007375900420150721000101 00000000000000000000000000000000000000000000000000000000000000000000000000000000000000000000000000000000000000000N 00000000000NCONT   00    00000000000          00000000000000000000000000000000000000000000 000000000000000A000000000000000000000000000000000000000000000 000000000000000000000000000000000000000     00000000                                                                                                                        000000000000000000
F0010000007375900005000090052543100013552100000000000000000201507210002001SECRET COLOR SAS                                  D000000000006400000000000000000000100010010000000000000000000000F0010000007375900520150721000101 00000000000000000000000000000000000000000000000000000000000000000000000000000000000000000000000000000000000000000N 00000000000NCONT   00    00000000000          00000000000000000000000000000000000000000000 000000000000000A000000000000000000000000000000000000000000000 000000000000000000000000000000000000000     00000000                                                                                                                        000000000000000000
F0010000007376000001000090052543100011050500000000000000000201507210002001SECRET COLOR SAS                                  D000000000850000000000000000000000100010010000000000000000000000F0010000007376000120150721000101 00000000000000000000000000000000000000000000000000000000000000000000000000000000000000000000000000000000000000000N 00000000000NCONT   00    00000000000          00000000000000000000000000000000000000000000 000000000000000A000000000000000000000000000000000000000000000 000000000000000000000000000000000000000     00000000                                                                                                                        000000000000000000
F0010000007376000002000090052543100041450500000000000000000201507210002001SECRET COLOR SAS                                  C000000000800000000000000000000000100010010000000000000000000000F0010000007376000220150721000101 00000000000000000000000000000000000000000000000000000000000000000000000000000000000000000000000000000000000000000N 00000000000NCONT   00    00000000000          00000000000000000000000000000000000000000000 000000000000000A000000000000000000000000000000000000000000000 000000000000000000000000000000000000000     00000000                                                                                                                        000000000000000000
F0010000007376000003000090052543100042505000000000000000000201507210002001SECRET COLOR SAS                                  C000000000050000000000000000000000100010010000000000000000000000F0010000007376000320150721000101 00000000000000000000000000000000000000000000000000000000000000000000000000000000000000000000000000000000000000000N 00000000000NCONT   00    00000000000          00000000000000000000000000000000000000000000 000000000000000A000000000000000000000000000000000000000000000 000000000000000000000000000000000000000     00000000                                                                                                                        000000000000000000
F0010000007376000004000090052543100023658300000000000000000201507210002001SECRET COLOR SAS                                  C000000000006400000000000000000000100010010000000000000000000000F0010000007376000420150721000101 00000000000000000000000000000000000000000000000000000000000000000000000000000000000000000000000000000000000000000N 00000000000NCONT   00    00000000000          00000000000000000000000000000000000000000000 000000000000000A000000000000000000000000000000000000000000000 000000000000000000000000000000000000000     00000000                                                                                                                        000000000000000000
F0010000007376000005000090052543100013552100000000000000000201507210002001SECRET COLOR SAS                                  D000000000006400000000000000000000100010010000000000000000000000F0010000007376000520150721000101 00000000000000000000000000000000000000000000000000000000000000000000000000000000000000000000000000000000000000000N 00000000000NCONT   00    00000000000          00000000000000000000000000000000000000000000 000000000000000A000000000000000000000000000000000000000000000 000000000000000000000000000000000000000     00000000                                                                                                                        000000000000000000
F0010000007376100001000090052543100011050500000000000000000201507210002001SECRET COLOR SAS                                  D000000000850000000000000000000000100010010000000000000000000000F0010000007376100120150721000101 00000000000000000000000000000000000000000000000000000000000000000000000000000000000000000000000000000000000000000N 00000000000NCONT   00    00000000000          00000000000000000000000000000000000000000000 000000000000000A000000000000000000000000000000000000000000000 000000000000000000000000000000000000000     00000000                                                                                                                        000000000000000000
F0010000007376100002000090052543100041450500000000000000000201507210002001SECRET COLOR SAS                                  C000000000800000000000000000000000100010010000000000000000000000F0010000007376100220150721000101 00000000000000000000000000000000000000000000000000000000000000000000000000000000000000000000000000000000000000000N 00000000000NCONT   00    00000000000          00000000000000000000000000000000000000000000 000000000000000A000000000000000000000000000000000000000000000 000000000000000000000000000000000000000     00000000                                                                                                                        000000000000000000
F0010000007376100003000090052543100042505000000000000000000201507210002001SECRET COLOR SAS                                  C000000000050000000000000000000000100010010000000000000000000000F0010000007376100320150721000101 00000000000000000000000000000000000000000000000000000000000000000000000000000000000000000000000000000000000000000N 00000000000NCONT   00    00000000000          00000000000000000000000000000000000000000000 000000000000000A000000000000000000000000000000000000000000000 000000000000000000000000000000000000000     00000000                                                                                                                        000000000000000000
F0010000007376100004000090052543100023658300000000000000000201507210002001SECRET COLOR SAS                                  C000000000006400000000000000000000100010010000000000000000000000F0010000007376100420150721000101 00000000000000000000000000000000000000000000000000000000000000000000000000000000000000000000000000000000000000000N 00000000000NCONT   00    00000000000          00000000000000000000000000000000000000000000 000000000000000A000000000000000000000000000000000000000000000 000000000000000000000000000000000000000     00000000                                                                                                                        000000000000000000
F0010000007376100005000090052543100013552100000000000000000201507210002001SECRET COLOR SAS                                  D000000000006400000000000000000000100010010000000000000000000000F0010000007376100520150721000101 00000000000000000000000000000000000000000000000000000000000000000000000000000000000000000000000000000000000000000N 00000000000NCONT   00    00000000000          00000000000000000000000000000000000000000000 000000000000000A000000000000000000000000000000000000000000000 000000000000000000000000000000000000000     00000000                                                                                                                        000000000000000000
F0010000007376200001000090052543100011050500000000000000000201507210002001SECRET COLOR SAS                                  D000000000850000000000000000000000100010010000000000000000000000F0010000007376200120150721000101 00000000000000000000000000000000000000000000000000000000000000000000000000000000000000000000000000000000000000000N 00000000000NCONT   00    00000000000          00000000000000000000000000000000000000000000 000000000000000A000000000000000000000000000000000000000000000 000000000000000000000000000000000000000     00000000                                                                                                                        000000000000000000
F0010000007376200002000090052543100041450500000000000000000201507210002001SECRET COLOR SAS                                  C000000000800000000000000000000000100010010000000000000000000000F0010000007376200220150721000101 00000000000000000000000000000000000000000000000000000000000000000000000000000000000000000000000000000000000000000N 00000000000NCONT   00    00000000000          00000000000000000000000000000000000000000000 000000000000000A000000000000000000000000000000000000000000000 000000000000000000000000000000000000000     00000000                                                                                                                        000000000000000000
F0010000007376200003000090052543100042505000000000000000000201507210002001SECRET COLOR SAS                                  C000000000050000000000000000000000100010010000000000000000000000F0010000007376200320150721000101 00000000000000000000000000000000000000000000000000000000000000000000000000000000000000000000000000000000000000000N 00000000000NCONT   00    00000000000          00000000000000000000000000000000000000000000 000000000000000A000000000000000000000000000000000000000000000 000000000000000000000000000000000000000     00000000                                                                                                                        000000000000000000
F0010000007376200004000090052543100023658300000000000000000201507210002001SECRET COLOR SAS                                  C000000000006400000000000000000000100010010000000000000000000000F0010000007376200420150721000101 00000000000000000000000000000000000000000000000000000000000000000000000000000000000000000000000000000000000000000N 00000000000NCONT   00    00000000000          00000000000000000000000000000000000000000000 000000000000000A000000000000000000000000000000000000000000000 000000000000000000000000000000000000000     00000000                                                                                                                        000000000000000000
F0010000007376200005000090052543100013552100000000000000000201507210002001SECRET COLOR SAS                                  D000000000006400000000000000000000100010010000000000000000000000F0010000007376200520150721000101 00000000000000000000000000000000000000000000000000000000000000000000000000000000000000000000000000000000000000000N 00000000000NCONT   00    00000000000          00000000000000000000000000000000000000000000 000000000000000A000000000000000000000000000000000000000000000 000000000000000000000000000000000000000     00000000                                                                                                                        000000000000000000
F0010000007376300001000090052543100011050500000000000000000201507210002001SECRET COLOR SAS                                  D000000000850000000000000000000000100010010000000000000000000000F0010000007376300120150721000101 00000000000000000000000000000000000000000000000000000000000000000000000000000000000000000000000000000000000000000N 00000000000NCONT   00    00000000000          00000000000000000000000000000000000000000000 000000000000000A000000000000000000000000000000000000000000000 000000000000000000000000000000000000000     00000000                                                                                                                        000000000000000000
F0010000007376300002000090052543100041450500000000000000000201507210002001SECRET COLOR SAS                                  C000000000800000000000000000000000100010010000000000000000000000F0010000007376300220150721000101 00000000000000000000000000000000000000000000000000000000000000000000000000000000000000000000000000000000000000000N 00000000000NCONT   00    00000000000          00000000000000000000000000000000000000000000 000000000000000A000000000000000000000000000000000000000000000 000000000000000000000000000000000000000     00000000                                                                                                                        000000000000000000
F0010000007376300003000090052543100042505000000000000000000201507210002001SECRET COLOR SAS                                  C000000000050000000000000000000000100010010000000000000000000000F0010000007376300320150721000101 00000000000000000000000000000000000000000000000000000000000000000000000000000000000000000000000000000000000000000N 00000000000NCONT   00    00000000000          00000000000000000000000000000000000000000000 000000000000000A000000000000000000000000000000000000000000000 000000000000000000000000000000000000000     00000000                                                                                                                        000000000000000000
F0010000007376300004000090052543100023658300000000000000000201507210002001SECRET COLOR SAS                                  C000000000006400000000000000000000100010010000000000000000000000F0010000007376300420150721000101 00000000000000000000000000000000000000000000000000000000000000000000000000000000000000000000000000000000000000000N 00000000000NCONT   00    00000000000          00000000000000000000000000000000000000000000 000000000000000A000000000000000000000000000000000000000000000 000000000000000000000000000000000000000     00000000                                                                                                                        000000000000000000
F0010000007376300005000090052543100013552100000000000000000201507210002001SECRET COLOR SAS                                  D000000000006400000000000000000000100010010000000000000000000000F0010000007376300520150721000101 00000000000000000000000000000000000000000000000000000000000000000000000000000000000000000000000000000000000000000N 00000000000NCONT   00    00000000000          00000000000000000000000000000000000000000000 000000000000000A000000000000000000000000000000000000000000000 000000000000000000000000000000000000000     00000000                                                                                                                        000000000000000000
F0010000007376400001000090052543100011050500000000000000000201507210002001SECRET COLOR SAS                                  D000000000850000000000000000000000100010010000000000000000000000F0010000007376400120150721000101 00000000000000000000000000000000000000000000000000000000000000000000000000000000000000000000000000000000000000000N 00000000000NCONT   00    00000000000          00000000000000000000000000000000000000000000 000000000000000A000000000000000000000000000000000000000000000 000000000000000000000000000000000000000     00000000                                                                                                                        000000000000000000
F0010000007376400002000090052543100041450500000000000000000201507210002001SECRET COLOR SAS                                  C000000000800000000000000000000000100010010000000000000000000000F0010000007376400220150721000101 00000000000000000000000000000000000000000000000000000000000000000000000000000000000000000000000000000000000000000N 00000000000NCONT   00    00000000000          00000000000000000000000000000000000000000000 000000000000000A000000000000000000000000000000000000000000000 000000000000000000000000000000000000000     00000000                                                                                                                        000000000000000000
F0010000007376400003000090052543100042505000000000000000000201507210002001SECRET COLOR SAS                                  C000000000050000000000000000000000100010010000000000000000000000F0010000007376400320150721000101 00000000000000000000000000000000000000000000000000000000000000000000000000000000000000000000000000000000000000000N 00000000000NCONT   00    00000000000          00000000000000000000000000000000000000000000 000000000000000A000000000000000000000000000000000000000000000 000000000000000000000000000000000000000     00000000                                                                                                                        000000000000000000
F0010000007376400004000090052543100023658300000000000000000201507210002001SECRET COLOR SAS                                  C000000000006400000000000000000000100010010000000000000000000000F0010000007376400420150721000101 00000000000000000000000000000000000000000000000000000000000000000000000000000000000000000000000000000000000000000N 00000000000NCONT   00    00000000000          00000000000000000000000000000000000000000000 000000000000000A000000000000000000000000000000000000000000000 000000000000000000000000000000000000000     00000000                                                                                                                        000000000000000000
F0010000007376400005000090052543100013552100000000000000000201507210002001SECRET COLOR SAS                                  D000000000006400000000000000000000100010010000000000000000000000F0010000007376400520150721000101 00000000000000000000000000000000000000000000000000000000000000000000000000000000000000000000000000000000000000000N 00000000000NCONT   00    00000000000          00000000000000000000000000000000000000000000 000000000000000A000000000000000000000000000000000000000000000 000000000000000000000000000000000000000     00000000                                                                                                                        000000000000000000
F0010000007376500001000090052543100011050500000000000000000201507210002001SECRET COLOR SAS                                  D000000000850000000000000000000000100010010000000000000000000000F0010000007376500120150721000101 00000000000000000000000000000000000000000000000000000000000000000000000000000000000000000000000000000000000000000N 00000000000NCONT   00    00000000000          00000000000000000000000000000000000000000000 000000000000000A000000000000000000000000000000000000000000000 000000000000000000000000000000000000000     00000000                                                                                                                        000000000000000000
F0010000007376500002000090052543100041450500000000000000000201507210002001SECRET COLOR SAS                                  C000000000800000000000000000000000100010010000000000000000000000F0010000007376500220150721000101 00000000000000000000000000000000000000000000000000000000000000000000000000000000000000000000000000000000000000000N 00000000000NCONT   00    00000000000          00000000000000000000000000000000000000000000 000000000000000A000000000000000000000000000000000000000000000 000000000000000000000000000000000000000     00000000                                                                                                                        000000000000000000
F0010000007376500003000090052543100042505000000000000000000201507210002001SECRET COLOR SAS                                  C000000000050000000000000000000000100010010000000000000000000000F0010000007376500320150721000101 00000000000000000000000000000000000000000000000000000000000000000000000000000000000000000000000000000000000000000N 00000000000NCONT   00    00000000000          00000000000000000000000000000000000000000000 000000000000000A000000000000000000000000000000000000000000000 000000000000000000000000000000000000000     00000000                                                                                                                        000000000000000000
F0010000007376500004000090052543100023658300000000000000000201507210002001SECRET COLOR SAS                                  C000000000006400000000000000000000100010010000000000000000000000F0010000007376500420150721000101 00000000000000000000000000000000000000000000000000000000000000000000000000000000000000000000000000000000000000000N 00000000000NCONT   00    00000000000          00000000000000000000000000000000000000000000 000000000000000A000000000000000000000000000000000000000000000 000000000000000000000000000000000000000     00000000                                                                                                                        000000000000000000
F0010000007376500005000090052543100013552100000000000000000201507210002001SECRET COLOR SAS                                  D000000000006400000000000000000000100010010000000000000000000000F0010000007376500520150721000101 00000000000000000000000000000000000000000000000000000000000000000000000000000000000000000000000000000000000000000N 00000000000NCONT   00    00000000000          00000000000000000000000000000000000000000000 000000000000000A000000000000000000000000000000000000000000000 000000000000000000000000000000000000000     00000000                                                                                                                        000000000000000000
F0010000007376600001000090052543100011050500000000000000000201507210002001SECRET COLOR SAS                                  D000000000850000000000000000000000100010010000000000000000000000F0010000007376600120150721000101 00000000000000000000000000000000000000000000000000000000000000000000000000000000000000000000000000000000000000000N 00000000000NCONT   00    00000000000          00000000000000000000000000000000000000000000 000000000000000A000000000000000000000000000000000000000000000 000000000000000000000000000000000000000     00000000                                                                                                                        000000000000000000
F0010000007376600002000090052543100041450500000000000000000201507210002001SECRET COLOR SAS                                  C000000000800000000000000000000000100010010000000000000000000000F0010000007376600220150721000101 00000000000000000000000000000000000000000000000000000000000000000000000000000000000000000000000000000000000000000N 00000000000NCONT   00    00000000000          00000000000000000000000000000000000000000000 000000000000000A000000000000000000000000000000000000000000000 000000000000000000000000000000000000000     00000000                                                                                                                        000000000000000000
F0010000007376600003000090052543100042505000000000000000000201507210002001SECRET COLOR SAS                                  C000000000050000000000000000000000100010010000000000000000000000F0010000007376600320150721000101 00000000000000000000000000000000000000000000000000000000000000000000000000000000000000000000000000000000000000000N 00000000000NCONT   00    00000000000          00000000000000000000000000000000000000000000 000000000000000A000000000000000000000000000000000000000000000 000000000000000000000000000000000000000     00000000                                                                                                                        000000000000000000
F0010000007376600004000090052543100023658300000000000000000201507210002001SECRET COLOR SAS                                  C000000000006400000000000000000000100010010000000000000000000000F0010000007376600420150721000101 00000000000000000000000000000000000000000000000000000000000000000000000000000000000000000000000000000000000000000N 00000000000NCONT   00    00000000000          00000000000000000000000000000000000000000000 000000000000000A000000000000000000000000000000000000000000000 000000000000000000000000000000000000000     00000000                                                                                                                        000000000000000000
F0010000007376600005000090052543100013552100000000000000000201507210002001SECRET COLOR SAS                                  D000000000006400000000000000000000100010010000000000000000000000F0010000007376600520150721000101 00000000000000000000000000000000000000000000000000000000000000000000000000000000000000000000000000000000000000000N 00000000000NCONT   00    00000000000          00000000000000000000000000000000000000000000 000000000000000A000000000000000000000000000000000000000000000 000000000000000000000000000000000000000     00000000                                                                                                                        000000000000000000
F0010000007376700001000090052543100011050500000000000000000201507210002001SECRET COLOR SAS                                  D000000000850000000000000000000000100010010000000000000000000000F0010000007376700120150721000101 00000000000000000000000000000000000000000000000000000000000000000000000000000000000000000000000000000000000000000N 00000000000NCONT   00    00000000000          00000000000000000000000000000000000000000000 000000000000000A000000000000000000000000000000000000000000000 000000000000000000000000000000000000000     00000000                                                                                                                        000000000000000000
F0010000007376700002000090052543100041450500000000000000000201507210002001SECRET COLOR SAS                                  C000000000800000000000000000000000100010010000000000000000000000F0010000007376700220150721000101 00000000000000000000000000000000000000000000000000000000000000000000000000000000000000000000000000000000000000000N 00000000000NCONT   00    00000000000          00000000000000000000000000000000000000000000 000000000000000A000000000000000000000000000000000000000000000 000000000000000000000000000000000000000     00000000                                                                                                                        000000000000000000
F0010000007376700003000090052543100042505000000000000000000201507210002001SECRET COLOR SAS                                  C000000000050000000000000000000000100010010000000000000000000000F0010000007376700320150721000101 00000000000000000000000000000000000000000000000000000000000000000000000000000000000000000000000000000000000000000N 00000000000NCONT   00    00000000000          00000000000000000000000000000000000000000000 000000000000000A000000000000000000000000000000000000000000000 000000000000000000000000000000000000000     00000000                                                                                                                        000000000000000000
F0010000007376700004000090052543100023658300000000000000000201507210002001SECRET COLOR SAS                                  C000000000006400000000000000000000100010010000000000000000000000F0010000007376700420150721000101 00000000000000000000000000000000000000000000000000000000000000000000000000000000000000000000000000000000000000000N 00000000000NCONT   00    00000000000          00000000000000000000000000000000000000000000 000000000000000A000000000000000000000000000000000000000000000 000000000000000000000000000000000000000     00000000                                                                                                                        000000000000000000
F0010000007376700005000090052543100013552100000000000000000201507210002001SECRET COLOR SAS                                  D000000000006400000000000000000000100010010000000000000000000000F0010000007376700520150721000101 00000000000000000000000000000000000000000000000000000000000000000000000000000000000000000000000000000000000000000N 00000000000NCONT   00    00000000000          00000000000000000000000000000000000000000000 000000000000000A000000000000000000000000000000000000000000000 000000000000000000000000000000000000000     00000000                                                                                                                        000000000000000000
F0010000007376800001000090052543100011050500000000000000000201507210002001SECRET COLOR SAS                                  D000000000850000000000000000000000100010010000000000000000000000F0010000007376800120150721000101 00000000000000000000000000000000000000000000000000000000000000000000000000000000000000000000000000000000000000000N 00000000000NCONT   00    00000000000          00000000000000000000000000000000000000000000 000000000000000A000000000000000000000000000000000000000000000 000000000000000000000000000000000000000     00000000                                                                                                                        000000000000000000
F0010000007376800002000090052543100041450500000000000000000201507210002001SECRET COLOR SAS                                  C000000000800000000000000000000000100010010000000000000000000000F0010000007376800220150721000101 00000000000000000000000000000000000000000000000000000000000000000000000000000000000000000000000000000000000000000N 00000000000NCONT   00    00000000000          00000000000000000000000000000000000000000000 000000000000000A000000000000000000000000000000000000000000000 000000000000000000000000000000000000000     00000000                                                                                                                        000000000000000000
