F0010000008458000001000080201112800013050500000000000000000201604070002001CANGURO INTERNATIONAL S.A.                        D000000174849900000000000000000000100010010000000000000000000000F0010000008458000120160407000101 00000000000000000000000000000000000000000000000000000000000000000000000000000000000000000000000000000000000000000N 00000000000NCONT   00    00000000000          00000000000000000000000000000000000000000000 000000000000000A000000000000000000000000000000000000000000000 000000000000000000000000000000000000000     00000000                                                                                                                        000000000000000000
F0010000008458000002000080201112800041450500000000000000000201604070002001CANGURO INTERNATIONAL S.A.                        C000000174849900000000000000000000100010010000000000000000000000F0010000008458000220160407000101 00000000000000000000000000000000000000000000000000000000000000000000000000000000000000000000000000000000000000000N 00000000000NCONT   00    00000000000          00000000000000000000000000000000000000000000 000000000000000A000000000000000000000000000000000000000000000 000000000000000000000000000000000000000     00000000                                                                                                                        000000000000000000
F0010000008458000003000080201112800042505000000000000000000201604070002001CANGURO INTERNATIONAL S.A.                        C000000000000000000000000000000000100010010000000000000000000000F0010000008458000320160407000101 00000000000000000000000000000000000000000000000000000000000000000000000000000000000000000000000000000000000000000N 00000000000NCONT   00    00000000000          00000000000000000000000000000000000000000000 000000000000000A000000000000000000000000000000000000000000000 000000000000000000000000000000000000000     00000000                                                                                                                        000000000000000000
F0010000008458000004000080201112800023658300000000000000000201604070002001CANGURO INTERNATIONAL S.A.                        C000000001398800000000000000000000100010010000000000000000000000F0010000008458000420160407000101 00000000000000000000000000000000000000000000000000000000000000000000000000000000000000000000000000000000000000000N 00000000000NCONT   00    00000000000          00000000000000000000000000000000000000000000 000000000000000A000000000000000000000000000000000000000000000 000000000000000000000000000000000000000     00000000                                                                                                                        000000000000000000
F0010000008458000005000080201112800013552100000000000000000201604070002001CANGURO INTERNATIONAL S.A.                        D000000001398800000000000000000000100010010000000000000000000000F0010000008458000520160407000101 00000000000000000000000000000000000000000000000000000000000000000000000000000000000000000000000000000000000000000N 00000000000NCONT   00    00000000000          00000000000000000000000000000000000000000000 000000000000000A000000000000000000000000000000000000000000000 000000000000000000000000000000000000000     00000000                                                                                                                        000000000000000000
F0010000008458100001000080201112800013050500000000000000000201604070002001CANGURO INTERNATIONAL S.A.                        D000000037082600000000000000000000100010010000000000000000000000F0010000008458100120160407000101 00000000000000000000000000000000000000000000000000000000000000000000000000000000000000000000000000000000000000000N 00000000000NCONT   00    00000000000          00000000000000000000000000000000000000000000 000000000000000A000000000000000000000000000000000000000000000 000000000000000000000000000000000000000     00000000                                                                                                                        000000000000000000
F0010000008458100002000080201112800041450500000000000000000201604070002001CANGURO INTERNATIONAL S.A.                        C000000037082600000000000000000000100010010000000000000000000000F0010000008458100220160407000101 00000000000000000000000000000000000000000000000000000000000000000000000000000000000000000000000000000000000000000N 00000000000NCONT   00    00000000000          00000000000000000000000000000000000000000000 000000000000000A000000000000000000000000000000000000000000000 000000000000000000000000000000000000000     00000000                                                                                                                        000000000000000000
F0010000008458100003000080201112800042505000000000000000000201604070002001CANGURO INTERNATIONAL S.A.                        C000000000000000000000000000000000100010010000000000000000000000F0010000008458100320160407000101 00000000000000000000000000000000000000000000000000000000000000000000000000000000000000000000000000000000000000000N 00000000000NCONT   00    00000000000          00000000000000000000000000000000000000000000 000000000000000A000000000000000000000000000000000000000000000 000000000000000000000000000000000000000     00000000                                                                                                                        000000000000000000
F0010000008458100004000080201112800023658300000000000000000201604070002001CANGURO INTERNATIONAL S.A.                        C000000000296700000000000000000000100010010000000000000000000000F0010000008458100420160407000101 00000000000000000000000000000000000000000000000000000000000000000000000000000000000000000000000000000000000000000N 00000000000NCONT   00    00000000000          00000000000000000000000000000000000000000000 000000000000000A000000000000000000000000000000000000000000000 000000000000000000000000000000000000000     00000000                                                                                                                        000000000000000000
F0010000008458100005000080201112800013552100000000000000000201604070002001CANGURO INTERNATIONAL S.A.                        D000000000296700000000000000000000100010010000000000000000000000F0010000008458100520160407000101 00000000000000000000000000000000000000000000000000000000000000000000000000000000000000000000000000000000000000000N 00000000000NCONT   00    00000000000          00000000000000000000000000000000000000000000 000000000000000A000000000000000000000000000000000000000000000 000000000000000000000000000000000000000     00000000                                                                                                                        000000000000000000
F0010000008458200001000005525050200011050500000000000000000201604070002001PLASTICOS  DE LA COSTA                            D000000002400000000000000000000000100010010000000000000000000000F0010000008458200120160407000101 00000000000000000000000000000000000000000000000000000000000000000000000000000000000000000000000000000000000000000N 00000000000NCONT   00    00000000000          00000000000000000000000000000000000000000000 000000000000000A000000000000000000000000000000000000000000000 000000000000000000000000000000000000000     00000000                                                                                                                        000000000000000000
F0010000008458200002000005525050200041450500000000000000000201604070002001PLASTICOS  DE LA COSTA                            C000000002300000000000000000000000100010010000000000000000000000F0010000008458200220160407000101 00000000000000000000000000000000000000000000000000000000000000000000000000000000000000000000000000000000000000000N 00000000000NCONT   00    00000000000          00000000000000000000000000000000000000000000 000000000000000A000000000000000000000000000000000000000000000 000000000000000000000000000000000000000     00000000                                                                                                                        000000000000000000
F0010000008458200003000005525050200042505000000000000000000201604070002001PLASTICOS  DE LA COSTA                            C000000000100000000000000000000000100010010000000000000000000000F0010000008458200320160407000101 00000000000000000000000000000000000000000000000000000000000000000000000000000000000000000000000000000000000000000N 00000000000NCONT   00    00000000000          00000000000000000000000000000000000000000000 000000000000000A000000000000000000000000000000000000000000000 000000000000000000000000000000000000000     00000000                                                                                                                        000000000000000000
F0010000008458200004000005525050200023658300000000000000000201604070002001PLASTICOS  DE LA COSTA                            C000000000018400000000000000000000100010010000000000000000000000F0010000008458200420160407000101 00000000000000000000000000000000000000000000000000000000000000000000000000000000000000000000000000000000000000000N 00000000000NCONT   00    00000000000          00000000000000000000000000000000000000000000 000000000000000A000000000000000000000000000000000000000000000 000000000000000000000000000000000000000     00000000                                                                                                                        000000000000000000
F0010000008458200005000005525050200013552100000000000000000201604070002001PLASTICOS  DE LA COSTA                            D000000000018400000000000000000000100010010000000000000000000000F0010000008458200520160407000101 00000000000000000000000000000000000000000000000000000000000000000000000000000000000000000000000000000000000000000N 00000000000NCONT   00    00000000000          00000000000000000000000000000000000000000000 000000000000000A000000000000000000000000000000000000000000000 000000000000000000000000000000000000000     00000000                                                                                                                        000000000000000000
F0010000008458300001000005160544500011050500000000000000000201604070002001METAL MUEBLES DE LA COSTA                         D000000006500000000000000000000000100010010000000000000000000000F0010000008458300120160407000101 00000000000000000000000000000000000000000000000000000000000000000000000000000000000000000000000000000000000000000N 00000000000NCONT   00    00000000000          00000000000000000000000000000000000000000000 000000000000000A000000000000000000000000000000000000000000000 000000000000000000000000000000000000000     00000000                                                                                                                        000000000000000000
F0010000008458300002000005160544500041450500000000000000000201604070002001METAL MUEBLES DE LA COSTA                         C000000006000000000000000000000000100010010000000000000000000000F0010000008458300220160407000101 00000000000000000000000000000000000000000000000000000000000000000000000000000000000000000000000000000000000000000N 00000000000NCONT   00    00000000000          00000000000000000000000000000000000000000000 000000000000000A000000000000000000000000000000000000000000000 000000000000000000000000000000000000000     00000000                                                                                                                        000000000000000000
F0010000008458300003000005160544500042505000000000000000000201604070002001METAL MUEBLES DE LA COSTA                         C000000000500000000000000000000000100010010000000000000000000000F0010000008458300320160407000101 00000000000000000000000000000000000000000000000000000000000000000000000000000000000000000000000000000000000000000N 00000000000NCONT   00    00000000000          00000000000000000000000000000000000000000000 000000000000000A000000000000000000000000000000000000000000000 000000000000000000000000000000000000000     00000000                                                                                                                        000000000000000000
F0010000008458300004000005160544500023658300000000000000000201604070002001METAL MUEBLES DE LA COSTA                         C000000000048000000000000000000000100010010000000000000000000000F0010000008458300420160407000101 00000000000000000000000000000000000000000000000000000000000000000000000000000000000000000000000000000000000000000N 00000000000NCONT   00    00000000000          00000000000000000000000000000000000000000000 000000000000000A000000000000000000000000000000000000000000000 000000000000000000000000000000000000000     00000000                                                                                                                        000000000000000000
F0010000008458300005000005160544500013552100000000000000000201604070002001METAL MUEBLES DE LA COSTA                         D000000000048000000000000000000000100010010000000000000000000000F0010000008458300520160407000101 00000000000000000000000000000000000000000000000000000000000000000000000000000000000000000000000000000000000000000N 00000000000NCONT   00    00000000000          00000000000000000000000000000000000000000000 000000000000000A000000000000000000000000000000000000000000000 000000000000000000000000000000000000000     00000000                                                                                                                        000000000000000000
F0010000008458400001000007225511500011050500000000000000000201604070002001MAIGEL CHADID                                     D000000002620000000000000000000000100010010000000000000000000000F0010000008458400120160407000101 00000000000000000000000000000000000000000000000000000000000000000000000000000000000000000000000000000000000000000N 00000000000NCONT   00    00000000000          00000000000000000000000000000000000000000000 000000000000000A000000000000000000000000000000000000000000000 000000000000000000000000000000000000000     00000000                                                                                                                        000000000000000000
F0010000008458400002000007225511500041450500000000000000000201604070002001MAIGEL CHADID                                     C000000002400000000000000000000000100010010000000000000000000000F0010000008458400220160407000101 00000000000000000000000000000000000000000000000000000000000000000000000000000000000000000000000000000000000000000N 00000000000NCONT   00    00000000000          00000000000000000000000000000000000000000000 000000000000000A000000000000000000000000000000000000000000000 000000000000000000000000000000000000000     00000000                                                                                                                        000000000000000000
F0010000008458400003000007225511500042505000000000000000000201604070002001MAIGEL CHADID                                     C000000000220000000000000000000000100010010000000000000000000000F0010000008458400320160407000101 00000000000000000000000000000000000000000000000000000000000000000000000000000000000000000000000000000000000000000N 00000000000NCONT   00    00000000000          00000000000000000000000000000000000000000000 000000000000000A000000000000000000000000000000000000000000000 000000000000000000000000000000000000000     00000000                                                                                                                        000000000000000000
F0010000008458400004000007225511500023658300000000000000000201604070002001MAIGEL CHADID                                     C000000000019200000000000000000000100010010000000000000000000000F0010000008458400420160407000101 00000000000000000000000000000000000000000000000000000000000000000000000000000000000000000000000000000000000000000N 00000000000NCONT   00    00000000000          00000000000000000000000000000000000000000000 000000000000000A000000000000000000000000000000000000000000000 000000000000000000000000000000000000000     00000000                                                                                                                        000000000000000000
F0010000008458400005000007225511500013552100000000000000000201604070002001MAIGEL CHADID                                     D000000000019200000000000000000000100010010000000000000000000000F0010000008458400520160407000101 00000000000000000000000000000000000000000000000000000000000000000000000000000000000000000000000000000000000000000N 00000000000NCONT   00    00000000000          00000000000000000000000000000000000000000000 000000000000000A000000000000000000000000000000000000000000000 000000000000000000000000000000000000000     00000000                                                                                                                        000000000000000000
F0010000008458500001000007225511500011050500000000000000000201604070002001MAIGEL CHADID                                     D000000004200000000000000000000000100010010000000000000000000000F0010000008458500120160407000101 00000000000000000000000000000000000000000000000000000000000000000000000000000000000000000000000000000000000000000N 00000000000NCONT   00    00000000000          00000000000000000000000000000000000000000000 000000000000000A000000000000000000000000000000000000000000000 000000000000000000000000000000000000000     00000000                                                                                                                        000000000000000000
F0010000008458500002000007225511500041450500000000000000000201604070002001MAIGEL CHADID                                     C000000003200000000000000000000000100010010000000000000000000000F0010000008458500220160407000101 00000000000000000000000000000000000000000000000000000000000000000000000000000000000000000000000000000000000000000N 00000000000NCONT   00    00000000000          00000000000000000000000000000000000000000000 000000000000000A000000000000000000000000000000000000000000000 000000000000000000000000000000000000000     00000000                                                                                                                        000000000000000000
F0010000008458500003000007225511500042505000000000000000000201604070002001MAIGEL CHADID                                     C000000001000000000000000000000000100010010000000000000000000000F0010000008458500320160407000101 00000000000000000000000000000000000000000000000000000000000000000000000000000000000000000000000000000000000000000N 00000000000NCONT   00    00000000000          00000000000000000000000000000000000000000000 000000000000000A000000000000000000000000000000000000000000000 000000000000000000000000000000000000000     00000000                                                                                                                        000000000000000000
F0010000008458500004000007225511500023658300000000000000000201604070002001MAIGEL CHADID                                     C000000000025600000000000000000000100010010000000000000000000000F0010000008458500420160407000101 00000000000000000000000000000000000000000000000000000000000000000000000000000000000000000000000000000000000000000N 00000000000NCONT   00    00000000000          00000000000000000000000000000000000000000000 000000000000000A000000000000000000000000000000000000000000000 000000000000000000000000000000000000000     00000000                                                                                                                        000000000000000000
F0010000008458500005000007225511500013552100000000000000000201604070002001MAIGEL CHADID                                     D000000000025600000000000000000000100010010000000000000000000000F0010000008458500520160407000101 00000000000000000000000000000000000000000000000000000000000000000000000000000000000000000000000000000000000000000N 00000000000NCONT   00    00000000000          00000000000000000000000000000000000000000000 000000000000000A000000000000000000000000000000000000000000000 000000000000000000000000000000000000000     00000000                                                                                                                        000000000000000000
F0010000008458600001000007214782600011050500000000000000000201604070002001OSCAR JOSE LIAN ROCHA                             D000000001400000000000000000000000100010010000000000000000000000F0010000008458600120160407000101 00000000000000000000000000000000000000000000000000000000000000000000000000000000000000000000000000000000000000000N 00000000000NCONT   00    00000000000          00000000000000000000000000000000000000000000 000000000000000A000000000000000000000000000000000000000000000 000000000000000000000000000000000000000     00000000                                                                                                                        000000000000000000
F0010000008458600002000007214782600041450500000000000000000201604070002001OSCAR JOSE LIAN ROCHA                             C000000001300000000000000000000000100010010000000000000000000000F0010000008458600220160407000101 00000000000000000000000000000000000000000000000000000000000000000000000000000000000000000000000000000000000000000N 00000000000NCONT   00    00000000000          00000000000000000000000000000000000000000000 000000000000000A000000000000000000000000000000000000000000000 000000000000000000000000000000000000000     00000000                                                                                                                        000000000000000000
F0010000008458600003000007214782600042505000000000000000000201604070002001OSCAR JOSE LIAN ROCHA                             C000000000100000000000000000000000100010010000000000000000000000F0010000008458600320160407000101 00000000000000000000000000000000000000000000000000000000000000000000000000000000000000000000000000000000000000000N 00000000000NCONT   00    00000000000          00000000000000000000000000000000000000000000 000000000000000A000000000000000000000000000000000000000000000 000000000000000000000000000000000000000     00000000                                                                                                                        000000000000000000
F0010000008458600004000007214782600023658300000000000000000201604070002001OSCAR JOSE LIAN ROCHA                             C000000000010400000000000000000000100010010000000000000000000000F0010000008458600420160407000101 00000000000000000000000000000000000000000000000000000000000000000000000000000000000000000000000000000000000000000N 00000000000NCONT   00    00000000000          00000000000000000000000000000000000000000000 000000000000000A000000000000000000000000000000000000000000000 000000000000000000000000000000000000000     00000000                                                                                                                        000000000000000000
F0010000008458600005000007214782600013552100000000000000000201604070002001OSCAR JOSE LIAN ROCHA                             D000000000010400000000000000000000100010010000000000000000000000F0010000008458600520160407000101 00000000000000000000000000000000000000000000000000000000000000000000000000000000000000000000000000000000000000000N 00000000000NCONT   00    00000000000          00000000000000000000000000000000000000000000 000000000000000A000000000000000000000000000000000000000000000 000000000000000000000000000000000000000     00000000                                                                                                                        000000000000000000
F0010000008458700001000007214782600011050500000000000000000201604070002001OSCAR JOSE LIAN ROCHA                             D000000001600000000000000000000000100010010000000000000000000000F0010000008458700120160407000101 00000000000000000000000000000000000000000000000000000000000000000000000000000000000000000000000000000000000000000N 00000000000NCONT   00    00000000000          00000000000000000000000000000000000000000000 000000000000000A000000000000000000000000000000000000000000000 000000000000000000000000000000000000000     00000000                                                                                                                        000000000000000000
F0010000008458700002000007214782600041450500000000000000000201604070002001OSCAR JOSE LIAN ROCHA                             C000000001300000000000000000000000100010010000000000000000000000F0010000008458700220160407000101 00000000000000000000000000000000000000000000000000000000000000000000000000000000000000000000000000000000000000000N 00000000000NCONT   00    00000000000          00000000000000000000000000000000000000000000 000000000000000A000000000000000000000000000000000000000000000 000000000000000000000000000000000000000     00000000                                                                                                                        000000000000000000
F0010000008458700003000007214782600042505000000000000000000201604070002001OSCAR JOSE LIAN ROCHA                             C000000000300000000000000000000000100010010000000000000000000000F0010000008458700320160407000101 00000000000000000000000000000000000000000000000000000000000000000000000000000000000000000000000000000000000000000N 00000000000NCONT   00    00000000000          00000000000000000000000000000000000000000000 000000000000000A000000000000000000000000000000000000000000000 000000000000000000000000000000000000000     00000000                                                                                                                        000000000000000000
F0010000008458700004000007214782600023658300000000000000000201604070002001OSCAR JOSE LIAN ROCHA                             C000000000010400000000000000000000100010010000000000000000000000F0010000008458700420160407000101 00000000000000000000000000000000000000000000000000000000000000000000000000000000000000000000000000000000000000000N 00000000000NCONT   00    00000000000          00000000000000000000000000000000000000000000 000000000000000A000000000000000000000000000000000000000000000 000000000000000000000000000000000000000     00000000                                                                                                                        000000000000000000
F0010000008458700005000007214782600013552100000000000000000201604070002001OSCAR JOSE LIAN ROCHA                             D000000000010400000000000000000000100010010000000000000000000000F0010000008458700520160407000101 00000000000000000000000000000000000000000000000000000000000000000000000000000000000000000000000000000000000000000N 00000000000NCONT   00    00000000000          00000000000000000000000000000000000000000000 000000000000000A000000000000000000000000000000000000000000000 000000000000000000000000000000000000000     00000000                                                                                                                        000000000000000000
F0010000008458800001000007214782600011050500000000000000000201604070002001OSCAR JOSE LIAN ROCHA                             D000000001500000000000000000000000100010010000000000000000000000F0010000008458800120160407000101 00000000000000000000000000000000000000000000000000000000000000000000000000000000000000000000000000000000000000000N 00000000000NCONT   00    00000000000          00000000000000000000000000000000000000000000 000000000000000A000000000000000000000000000000000000000000000 000000000000000000000000000000000000000     00000000                                                                                                                        000000000000000000
F0010000008458800002000007214782600041450500000000000000000201604070002001OSCAR JOSE LIAN ROCHA                             C000000001300000000000000000000000100010010000000000000000000000F0010000008458800220160407000101 00000000000000000000000000000000000000000000000000000000000000000000000000000000000000000000000000000000000000000N 00000000000NCONT   00    00000000000          00000000000000000000000000000000000000000000 000000000000000A000000000000000000000000000000000000000000000 000000000000000000000000000000000000000     00000000                                                                                                                        000000000000000000
F0010000008458800003000007214782600042505000000000000000000201604070002001OSCAR JOSE LIAN ROCHA                             C000000000200000000000000000000000100010010000000000000000000000F0010000008458800320160407000101 00000000000000000000000000000000000000000000000000000000000000000000000000000000000000000000000000000000000000000N 00000000000NCONT   00    00000000000          00000000000000000000000000000000000000000000 000000000000000A000000000000000000000000000000000000000000000 000000000000000000000000000000000000000     00000000                                                                                                                        000000000000000000
F0010000008458800004000007214782600023658300000000000000000201604070002001OSCAR JOSE LIAN ROCHA                             C000000000010400000000000000000000100010010000000000000000000000F0010000008458800420160407000101 00000000000000000000000000000000000000000000000000000000000000000000000000000000000000000000000000000000000000000N 00000000000NCONT   00    00000000000          00000000000000000000000000000000000000000000 000000000000000A000000000000000000000000000000000000000000000 000000000000000000000000000000000000000     00000000                                                                                                                        000000000000000000
F0010000008458800005000007214782600013552100000000000000000201604070002001OSCAR JOSE LIAN ROCHA                             D000000000010400000000000000000000100010010000000000000000000000F0010000008458800520160407000101 00000000000000000000000000000000000000000000000000000000000000000000000000000000000000000000000000000000000000000N 00000000000NCONT   00    00000000000          00000000000000000000000000000000000000000000 000000000000000A000000000000000000000000000000000000000000000 000000000000000000000000000000000000000     00000000                                                                                                                        000000000000000000
F0010000008458900001000090034602400011050500000000000000000201604070002001PRODUCTOS NACIONALES PARAFINICOS LA CUSTODIA S.A.SD000000002100000000000000000000000100010010000000000000000000000F0010000008458900120160407000101 00000000000000000000000000000000000000000000000000000000000000000000000000000000000000000000000000000000000000000N 00000000000NCONT   00    00000000000          00000000000000000000000000000000000000000000 000000000000000A000000000000000000000000000000000000000000000 000000000000000000000000000000000000000     00000000                                                                                                                        000000000000000000
F0010000008458900002000090034602400041450500000000000000000201604070002001PRODUCTOS NACIONALES PARAFINICOS LA CUSTODIA S.A.SC000000001900000000000000000000000100010010000000000000000000000F0010000008458900220160407000101 00000000000000000000000000000000000000000000000000000000000000000000000000000000000000000000000000000000000000000N 00000000000NCONT   00    00000000000          00000000000000000000000000000000000000000000 000000000000000A000000000000000000000000000000000000000000000 000000000000000000000000000000000000000     00000000                                                                                                                        000000000000000000
F0010000008458900003000090034602400042505000000000000000000201604070002001PRODUCTOS NACIONALES PARAFINICOS LA CUSTODIA S.A.SC000000000200000000000000000000000100010010000000000000000000000F0010000008458900320160407000101 00000000000000000000000000000000000000000000000000000000000000000000000000000000000000000000000000000000000000000N 00000000000NCONT   00    00000000000          00000000000000000000000000000000000000000000 000000000000000A000000000000000000000000000000000000000000000 000000000000000000000000000000000000000     00000000                                                                                                                        000000000000000000
F0010000008458900004000090034602400023658300000000000000000201604070002001PRODUCTOS NACIONALES PARAFINICOS LA CUSTODIA S.A.SC000000000015200000000000000000000100010010000000000000000000000F0010000008458900420160407000101 00000000000000000000000000000000000000000000000000000000000000000000000000000000000000000000000000000000000000000N 00000000000NCONT   00    00000000000          00000000000000000000000000000000000000000000 000000000000000A000000000000000000000000000000000000000000000 000000000000000000000000000000000000000     00000000                                                                                                                        000000000000000000
F0010000008458900005000090034602400013552100000000000000000201604070002001PRODUCTOS NACIONALES PARAFINICOS LA CUSTODIA S.A.SD000000000015200000000000000000000100010010000000000000000000000F0010000008458900520160407000101 00000000000000000000000000000000000000000000000000000000000000000000000000000000000000000000000000000000000000000N 00000000000NCONT   00    00000000000          00000000000000000000000000000000000000000000 000000000000000A000000000000000000000000000000000000000000000 000000000000000000000000000000000000000     00000000                                                                                                                        000000000000000000
F0010000008459000001000090034602400011050500000000000000000201604070002001PRODUCTOS NACIONALES PARAFINICOS LA CUSTODIA S.A.SD000000001050000000000000000000000100010010000000000000000000000F0010000008459000120160407000101 00000000000000000000000000000000000000000000000000000000000000000000000000000000000000000000000000000000000000000N 00000000000NCONT   00    00000000000          00000000000000000000000000000000000000000000 000000000000000A000000000000000000000000000000000000000000000 000000000000000000000000000000000000000     00000000                                                                                                                        000000000000000000
F0010000008459000002000090034602400041450500000000000000000201604070002001PRODUCTOS NACIONALES PARAFINICOS LA CUSTODIA S.A.SC000000000950000000000000000000000100010010000000000000000000000F0010000008459000220160407000101 00000000000000000000000000000000000000000000000000000000000000000000000000000000000000000000000000000000000000000N 00000000000NCONT   00    00000000000          00000000000000000000000000000000000000000000 000000000000000A000000000000000000000000000000000000000000000 000000000000000000000000000000000000000     00000000                                                                                                                        000000000000000000
F0010000008459000003000090034602400042505000000000000000000201604070002001PRODUCTOS NACIONALES PARAFINICOS LA CUSTODIA S.A.SC000000000100000000000000000000000100010010000000000000000000000F0010000008459000320160407000101 00000000000000000000000000000000000000000000000000000000000000000000000000000000000000000000000000000000000000000N 00000000000NCONT   00    00000000000          00000000000000000000000000000000000000000000 000000000000000A000000000000000000000000000000000000000000000 000000000000000000000000000000000000000     00000000                                                                                                                        000000000000000000
F0010000008459000004000090034602400023658300000000000000000201604070002001PRODUCTOS NACIONALES PARAFINICOS LA CUSTODIA S.A.SC000000000007600000000000000000000100010010000000000000000000000F0010000008459000420160407000101 00000000000000000000000000000000000000000000000000000000000000000000000000000000000000000000000000000000000000000N 00000000000NCONT   00    00000000000          00000000000000000000000000000000000000000000 000000000000000A000000000000000000000000000000000000000000000 000000000000000000000000000000000000000     00000000                                                                                                                        000000000000000000
F0010000008459000005000090034602400013552100000000000000000201604070002001PRODUCTOS NACIONALES PARAFINICOS LA CUSTODIA S.A.SD000000000007600000000000000000000100010010000000000000000000000F0010000008459000520160407000101 00000000000000000000000000000000000000000000000000000000000000000000000000000000000000000000000000000000000000000N 00000000000NCONT   00    00000000000          00000000000000000000000000000000000000000000 000000000000000A000000000000000000000000000000000000000000000 000000000000000000000000000000000000000     00000000                                                                                                                        000000000000000000
F0010000008459100001000003319910700011050500000000000000000201604070002001LUZ DARY JIMENEZ MARTINEZ                         D000000001100000000000000000000000100010010000000000000000000000F0010000008459100120160407000101 00000000000000000000000000000000000000000000000000000000000000000000000000000000000000000000000000000000000000000N 00000000000NCONT   00    00000000000          00000000000000000000000000000000000000000000 000000000000000A000000000000000000000000000000000000000000000 000000000000000000000000000000000000000     00000000                                                                                                                        000000000000000000
F0010000008459100002000003319910700041450500000000000000000201604070002001LUZ DARY JIMENEZ MARTINEZ                         C000000001000000000000000000000000100010010000000000000000000000F0010000008459100220160407000101 00000000000000000000000000000000000000000000000000000000000000000000000000000000000000000000000000000000000000000N 00000000000NCONT   00    00000000000          00000000000000000000000000000000000000000000 000000000000000A000000000000000000000000000000000000000000000 000000000000000000000000000000000000000     00000000                                                                                                                        000000000000000000
F0010000008459100003000003319910700042505000000000000000000201604070002001LUZ DARY JIMENEZ MARTINEZ                         C000000000100000000000000000000000100010010000000000000000000000F0010000008459100320160407000101 00000000000000000000000000000000000000000000000000000000000000000000000000000000000000000000000000000000000000000N 00000000000NCONT   00    00000000000          00000000000000000000000000000000000000000000 000000000000000A000000000000000000000000000000000000000000000 000000000000000000000000000000000000000     00000000                                                                                                                        000000000000000000
F0010000008459100004000003319910700023658300000000000000000201604070002001LUZ DARY JIMENEZ MARTINEZ                         C000000000008000000000000000000000100010010000000000000000000000F0010000008459100420160407000101 00000000000000000000000000000000000000000000000000000000000000000000000000000000000000000000000000000000000000000N 00000000000NCONT   00    00000000000          00000000000000000000000000000000000000000000 000000000000000A000000000000000000000000000000000000000000000 000000000000000000000000000000000000000     00000000                                                                                                                        000000000000000000
F0010000008459100005000003319910700013552100000000000000000201604070002001LUZ DARY JIMENEZ MARTINEZ                         D000000000008000000000000000000000100010010000000000000000000000F0010000008459100520160407000101 00000000000000000000000000000000000000000000000000000000000000000000000000000000000000000000000000000000000000000N 00000000000NCONT   00    00000000000          00000000000000000000000000000000000000000000 000000000000000A000000000000000000000000000000000000000000000 000000000000000000000000000000000000000     00000000                                                                                                                        000000000000000000
F0010000008459200001000009125678500011050500000000000000000201604070002001SALOMON DIAZ MONSALVE                             D000000006500000000000000000000000100010010000000000000000000000F0010000008459200120160407000101 00000000000000000000000000000000000000000000000000000000000000000000000000000000000000000000000000000000000000000N 00000000000NCONT   00    00000000000          00000000000000000000000000000000000000000000 000000000000000A000000000000000000000000000000000000000000000 000000000000000000000000000000000000000     00000000                                                                                                                        000000000000000000
F0010000008459200002000009125678500041450500000000000000000201604070002001SALOMON DIAZ MONSALVE                             C000000006000000000000000000000000100010010000000000000000000000F0010000008459200220160407000101 00000000000000000000000000000000000000000000000000000000000000000000000000000000000000000000000000000000000000000N 00000000000NCONT   00    00000000000          00000000000000000000000000000000000000000000 000000000000000A000000000000000000000000000000000000000000000 000000000000000000000000000000000000000     00000000                                                                                                                        000000000000000000
F0010000008459200003000009125678500042505000000000000000000201604070002001SALOMON DIAZ MONSALVE                             C000000000500000000000000000000000100010010000000000000000000000F0010000008459200320160407000101 00000000000000000000000000000000000000000000000000000000000000000000000000000000000000000000000000000000000000000N 00000000000NCONT   00    00000000000          00000000000000000000000000000000000000000000 000000000000000A000000000000000000000000000000000000000000000 000000000000000000000000000000000000000     00000000                                                                                                                        000000000000000000
F0010000008459200004000009125678500023658300000000000000000201604070002001SALOMON DIAZ MONSALVE                             C000000000048000000000000000000000100010010000000000000000000000F0010000008459200420160407000101 00000000000000000000000000000000000000000000000000000000000000000000000000000000000000000000000000000000000000000N 00000000000NCONT   00    00000000000          00000000000000000000000000000000000000000000 000000000000000A000000000000000000000000000000000000000000000 000000000000000000000000000000000000000     00000000                                                                                                                        000000000000000000
F0010000008459200005000009125678500013552100000000000000000201604070002001SALOMON DIAZ MONSALVE                             D000000000048000000000000000000000100010010000000000000000000000F0010000008459200520160407000101 00000000000000000000000000000000000000000000000000000000000000000000000000000000000000000000000000000000000000000N 00000000000NCONT   00    00000000000          00000000000000000000000000000000000000000000 000000000000000A000000000000000000000000000000000000000000000 000000000000000000000000000000000000000     00000000                                                                                                                        000000000000000000
F0010000008459300001000000870907300011050500000000000000000201604070002001SURTIDOR FERRETERO                                D000000004300000000000000000000000100010010000000000000000000000F0010000008459300120160407000101 00000000000000000000000000000000000000000000000000000000000000000000000000000000000000000000000000000000000000000N 00000000000NCONT   00    00000000000          00000000000000000000000000000000000000000000 000000000000000A000000000000000000000000000000000000000000000 000000000000000000000000000000000000000     00000000                                                                                                                        000000000000000000
F0010000008459300002000000870907300041450500000000000000000201604070002001SURTIDOR FERRETERO                                C000000003400000000000000000000000100010010000000000000000000000F0010000008459300220160407000101 00000000000000000000000000000000000000000000000000000000000000000000000000000000000000000000000000000000000000000N 00000000000NCONT   00    00000000000          00000000000000000000000000000000000000000000 000000000000000A000000000000000000000000000000000000000000000 000000000000000000000000000000000000000     00000000                                                                                                                        000000000000000000
F0010000008459300003000000870907300042505000000000000000000201604070002001SURTIDOR FERRETERO                                C000000000900000000000000000000000100010010000000000000000000000F0010000008459300320160407000101 00000000000000000000000000000000000000000000000000000000000000000000000000000000000000000000000000000000000000000N 00000000000NCONT   00    00000000000          00000000000000000000000000000000000000000000 000000000000000A000000000000000000000000000000000000000000000 000000000000000000000000000000000000000     00000000                                                                                                                        000000000000000000
F0010000008459300004000000870907300023658300000000000000000201604070002001SURTIDOR FERRETERO                                C000000000027200000000000000000000100010010000000000000000000000F0010000008459300420160407000101 00000000000000000000000000000000000000000000000000000000000000000000000000000000000000000000000000000000000000000N 00000000000NCONT   00    00000000000          00000000000000000000000000000000000000000000 000000000000000A000000000000000000000000000000000000000000000 000000000000000000000000000000000000000     00000000                                                                                                                        000000000000000000
F0010000008459300005000000870907300013552100000000000000000201604070002001SURTIDOR FERRETERO                                D000000000027200000000000000000000100010010000000000000000000000F0010000008459300520160407000101 00000000000000000000000000000000000000000000000000000000000000000000000000000000000000000000000000000000000000000N 00000000000NCONT   00    00000000000          00000000000000000000000000000000000000000000 000000000000000A000000000000000000000000000000000000000000000 000000000000000000000000000000000000000     00000000                                                                                                                        000000000000000000
F0010000008459400001000090050144800011050500000000000000000201604070002001PLASTICOS JR ASOCIADOS SAS                        D000000003350000000000000000000000100010010000000000000000000000F0010000008459400120160407000101 00000000000000000000000000000000000000000000000000000000000000000000000000000000000000000000000000000000000000000N 00000000000NCONT   00    00000000000          00000000000000000000000000000000000000000000 000000000000000A000000000000000000000000000000000000000000000 000000000000000000000000000000000000000     00000000                                                                                                                        000000000000000000
F0010000008459400002000090050144800041450500000000000000000201604070002001PLASTICOS JR ASOCIADOS SAS                        C000000002850000000000000000000000100010010000000000000000000000F0010000008459400220160407000101 00000000000000000000000000000000000000000000000000000000000000000000000000000000000000000000000000000000000000000N 00000000000NCONT   00    00000000000          00000000000000000000000000000000000000000000 000000000000000A000000000000000000000000000000000000000000000 000000000000000000000000000000000000000     00000000                                                                                                                        000000000000000000
F0010000008459400003000090050144800042505000000000000000000201604070002001PLASTICOS JR ASOCIADOS SAS                        C000000000500000000000000000000000100010010000000000000000000000F0010000008459400320160407000101 00000000000000000000000000000000000000000000000000000000000000000000000000000000000000000000000000000000000000000N 00000000000NCONT   00    00000000000          00000000000000000000000000000000000000000000 000000000000000A000000000000000000000000000000000000000000000 000000000000000000000000000000000000000     00000000                                                                                                                        000000000000000000
F0010000008459400004000090050144800023658300000000000000000201604070002001PLASTICOS JR ASOCIADOS SAS                        C000000000022800000000000000000000100010010000000000000000000000F0010000008459400420160407000101 00000000000000000000000000000000000000000000000000000000000000000000000000000000000000000000000000000000000000000N 00000000000NCONT   00    00000000000          00000000000000000000000000000000000000000000 000000000000000A000000000000000000000000000000000000000000000 000000000000000000000000000000000000000     00000000                                                                                                                        000000000000000000
F0010000008459400005000090050144800013552100000000000000000201604070002001PLASTICOS JR ASOCIADOS SAS                        D000000000022800000000000000000000100010010000000000000000000000F0010000008459400520160407000101 00000000000000000000000000000000000000000000000000000000000000000000000000000000000000000000000000000000000000000N 00000000000NCONT   00    00000000000          00000000000000000000000000000000000000000000 000000000000000A000000000000000000000000000000000000000000000 000000000000000000000000000000000000000     00000000                                                                                                                        000000000000000000
F0010000008459500001000090050144800011050500000000000000000201604070002001PLASTICOS JR ASOCIADOS SAS                        D000000006200000000000000000000000100010010000000000000000000000F0010000008459500120160407000101 00000000000000000000000000000000000000000000000000000000000000000000000000000000000000000000000000000000000000000N 00000000000NCONT   00    00000000000          00000000000000000000000000000000000000000000 000000000000000A000000000000000000000000000000000000000000000 000000000000000000000000000000000000000     00000000                                                                                                                        000000000000000000
F0010000008459500002000090050144800041450500000000000000000201604070002001PLASTICOS JR ASOCIADOS SAS                        C000000004800000000000000000000000100010010000000000000000000000F0010000008459500220160407000101 00000000000000000000000000000000000000000000000000000000000000000000000000000000000000000000000000000000000000000N 00000000000NCONT   00    00000000000          00000000000000000000000000000000000000000000 000000000000000A000000000000000000000000000000000000000000000 000000000000000000000000000000000000000     00000000                                                                                                                        000000000000000000
F0010000008459500003000090050144800042505000000000000000000201604070002001PLASTICOS JR ASOCIADOS SAS                        C000000001400000000000000000000000100010010000000000000000000000F0010000008459500320160407000101 00000000000000000000000000000000000000000000000000000000000000000000000000000000000000000000000000000000000000000N 00000000000NCONT   00    00000000000          00000000000000000000000000000000000000000000 000000000000000A000000000000000000000000000000000000000000000 000000000000000000000000000000000000000     00000000                                                                                                                        000000000000000000
F0010000008459500004000090050144800023658300000000000000000201604070002001PLASTICOS JR ASOCIADOS SAS                        C000000000038400000000000000000000100010010000000000000000000000F0010000008459500420160407000101 00000000000000000000000000000000000000000000000000000000000000000000000000000000000000000000000000000000000000000N 00000000000NCONT   00    00000000000          00000000000000000000000000000000000000000000 000000000000000A000000000000000000000000000000000000000000000 000000000000000000000000000000000000000     00000000                                                                                                                        000000000000000000
F0010000008459500005000090050144800013552100000000000000000201604070002001PLASTICOS JR ASOCIADOS SAS                        D000000000038400000000000000000000100010010000000000000000000000F0010000008459500520160407000101 00000000000000000000000000000000000000000000000000000000000000000000000000000000000000000000000000000000000000000N 00000000000NCONT   00    00000000000          00000000000000000000000000000000000000000000 000000000000000A000000000000000000000000000000000000000000000 000000000000000000000000000000000000000     00000000                                                                                                                        000000000000000000
F0010000008459600001000102390001700011050500000000000000000201604070002001LILIANA HERNANDEZ PINILLA                         D000000001800000000000000000000000100010010000000000000000000000F0010000008459600120160407000101 00000000000000000000000000000000000000000000000000000000000000000000000000000000000000000000000000000000000000000N 00000000000NCONT   00    00000000000          00000000000000000000000000000000000000000000 000000000000000A000000000000000000000000000000000000000000000 000000000000000000000000000000000000000     00000000                                                                                                                        000000000000000000
F0010000008459600002000102390001700041450500000000000000000201604070002001LILIANA HERNANDEZ PINILLA                         C000000001300000000000000000000000100010010000000000000000000000F0010000008459600220160407000101 00000000000000000000000000000000000000000000000000000000000000000000000000000000000000000000000000000000000000000N 00000000000NCONT   00    00000000000          00000000000000000000000000000000000000000000 000000000000000A000000000000000000000000000000000000000000000 000000000000000000000000000000000000000     00000000                                                                                                                        000000000000000000
F0010000008459600003000102390001700042505000000000000000000201604070002001LILIANA HERNANDEZ PINILLA                         C000000000500000000000000000000000100010010000000000000000000000F0010000008459600320160407000101 00000000000000000000000000000000000000000000000000000000000000000000000000000000000000000000000000000000000000000N 00000000000NCONT   00    00000000000          00000000000000000000000000000000000000000000 000000000000000A000000000000000000000000000000000000000000000 000000000000000000000000000000000000000     00000000                                                                                                                        000000000000000000
F0010000008459600004000102390001700023658300000000000000000201604070002001LILIANA HERNANDEZ PINILLA                         C000000000010400000000000000000000100010010000000000000000000000F0010000008459600420160407000101 00000000000000000000000000000000000000000000000000000000000000000000000000000000000000000000000000000000000000000N 00000000000NCONT   00    00000000000          00000000000000000000000000000000000000000000 000000000000000A000000000000000000000000000000000000000000000 000000000000000000000000000000000000000     00000000                                                                                                                        000000000000000000
F0010000008459600005000102390001700013552100000000000000000201604070002001LILIANA HERNANDEZ PINILLA                         D000000000010400000000000000000000100010010000000000000000000000F0010000008459600520160407000101 00000000000000000000000000000000000000000000000000000000000000000000000000000000000000000000000000000000000000000N 00000000000NCONT   00    00000000000          00000000000000000000000000000000000000000000 000000000000000A000000000000000000000000000000000000000000000 000000000000000000000000000000000000000     00000000                                                                                                                        000000000000000000
F0010000008459700001000102390001700011050500000000000000000201604070002001LILIANA HERNANDEZ PINILLA                         D000000001800000000000000000000000100010010000000000000000000000F0010000008459700120160407000101 00000000000000000000000000000000000000000000000000000000000000000000000000000000000000000000000000000000000000000N 00000000000NCONT   00    00000000000          00000000000000000000000000000000000000000000 000000000000000A000000000000000000000000000000000000000000000 000000000000000000000000000000000000000     00000000                                                                                                                        000000000000000000
F0010000008459700002000102390001700041450500000000000000000201604070002001LILIANA HERNANDEZ PINILLA                         C000000001300000000000000000000000100010010000000000000000000000F0010000008459700220160407000101 00000000000000000000000000000000000000000000000000000000000000000000000000000000000000000000000000000000000000000N 00000000000NCONT   00    00000000000          00000000000000000000000000000000000000000000 000000000000000A000000000000000000000000000000000000000000000 000000000000000000000000000000000000000     00000000                                                                                                                        000000000000000000
F0010000008459700003000102390001700042505000000000000000000201604070002001LILIANA HERNANDEZ PINILLA                         C000000000500000000000000000000000100010010000000000000000000000F0010000008459700320160407000101 00000000000000000000000000000000000000000000000000000000000000000000000000000000000000000000000000000000000000000N 00000000000NCONT   00    00000000000          00000000000000000000000000000000000000000000 000000000000000A000000000000000000000000000000000000000000000 000000000000000000000000000000000000000     00000000                                                                                                                        000000000000000000
F0010000008459700004000102390001700023658300000000000000000201604070002001LILIANA HERNANDEZ PINILLA                         C000000000010400000000000000000000100010010000000000000000000000F0010000008459700420160407000101 00000000000000000000000000000000000000000000000000000000000000000000000000000000000000000000000000000000000000000N 00000000000NCONT   00    00000000000          00000000000000000000000000000000000000000000 000000000000000A000000000000000000000000000000000000000000000 000000000000000000000000000000000000000     00000000                                                                                                                        000000000000000000
F0010000008459700005000102390001700013552100000000000000000201604070002001LILIANA HERNANDEZ PINILLA                         D000000000010400000000000000000000100010010000000000000000000000F0010000008459700520160407000101 00000000000000000000000000000000000000000000000000000000000000000000000000000000000000000000000000000000000000000N 00000000000NCONT   00    00000000000          00000000000000000000000000000000000000000000 000000000000000A000000000000000000000000000000000000000000000 000000000000000000000000000000000000000     00000000                                                                                                                        000000000000000000
F0010000008459800001000102390001700011050500000000000000000201604070002001LILIANA HERNANDEZ PINILLA                         D000000001800000000000000000000000100010010000000000000000000000F0010000008459800120160407000101 00000000000000000000000000000000000000000000000000000000000000000000000000000000000000000000000000000000000000000N 00000000000NCONT   00    00000000000          00000000000000000000000000000000000000000000 000000000000000A000000000000000000000000000000000000000000000 000000000000000000000000000000000000000     00000000                                                                                                                        000000000000000000
F0010000008459800002000102390001700041450500000000000000000201604070002001LILIANA HERNANDEZ PINILLA                         C000000001300000000000000000000000100010010000000000000000000000F0010000008459800220160407000101 00000000000000000000000000000000000000000000000000000000000000000000000000000000000000000000000000000000000000000N 00000000000NCONT   00    00000000000          00000000000000000000000000000000000000000000 000000000000000A000000000000000000000000000000000000000000000 000000000000000000000000000000000000000     00000000                                                                                                                        000000000000000000
F0010000008459800003000102390001700042505000000000000000000201604070002001LILIANA HERNANDEZ PINILLA                         C000000000500000000000000000000000100010010000000000000000000000F0010000008459800320160407000101 00000000000000000000000000000000000000000000000000000000000000000000000000000000000000000000000000000000000000000N 00000000000NCONT   00    00000000000          00000000000000000000000000000000000000000000 000000000000000A000000000000000000000000000000000000000000000 000000000000000000000000000000000000000     00000000                                                                                                                        000000000000000000
F0010000008459800004000102390001700023658300000000000000000201604070002001LILIANA HERNANDEZ PINILLA                         C000000000010400000000000000000000100010010000000000000000000000F0010000008459800420160407000101 00000000000000000000000000000000000000000000000000000000000000000000000000000000000000000000000000000000000000000N 00000000000NCONT   00    00000000000          00000000000000000000000000000000000000000000 000000000000000A000000000000000000000000000000000000000000000 000000000000000000000000000000000000000     00000000                                                                                                                        000000000000000000
F0010000008459800005000102390001700013552100000000000000000201604070002001LILIANA HERNANDEZ PINILLA                         D000000000010400000000000000000000100010010000000000000000000000F0010000008459800520160407000101 00000000000000000000000000000000000000000000000000000000000000000000000000000000000000000000000000000000000000000N 00000000000NCONT   00    00000000000          00000000000000000000000000000000000000000000 000000000000000A000000000000000000000000000000000000000000000 000000000000000000000000000000000000000     00000000                                                                                                                        000000000000000000
F0010000008459900001000102390001700011050500000000000000000201604070002001LILIANA HERNANDEZ PINILLA                         D000000002300000000000000000000000100010010000000000000000000000F0010000008459900120160407000101 00000000000000000000000000000000000000000000000000000000000000000000000000000000000000000000000000000000000000000N 00000000000NCONT   00    00000000000          00000000000000000000000000000000000000000000 000000000000000A000000000000000000000000000000000000000000000 000000000000000000000000000000000000000     00000000                                                                                                                        000000000000000000
F0010000008459900002000102390001700041450500000000000000000201604070002001LILIANA HERNANDEZ PINILLA                         C000000001800000000000000000000000100010010000000000000000000000F0010000008459900220160407000101 00000000000000000000000000000000000000000000000000000000000000000000000000000000000000000000000000000000000000000N 00000000000NCONT   00    00000000000          00000000000000000000000000000000000000000000 000000000000000A000000000000000000000000000000000000000000000 000000000000000000000000000000000000000     00000000                                                                                                                        000000000000000000
F0010000008459900003000102390001700042505000000000000000000201604070002001LILIANA HERNANDEZ PINILLA                         C000000000500000000000000000000000100010010000000000000000000000F0010000008459900320160407000101 00000000000000000000000000000000000000000000000000000000000000000000000000000000000000000000000000000000000000000N 00000000000NCONT   00    00000000000          00000000000000000000000000000000000000000000 000000000000000A000000000000000000000000000000000000000000000 000000000000000000000000000000000000000     00000000                                                                                                                        000000000000000000
F0010000008459900004000102390001700023658300000000000000000201604070002001LILIANA HERNANDEZ PINILLA                         C000000000014400000000000000000000100010010000000000000000000000F0010000008459900420160407000101 00000000000000000000000000000000000000000000000000000000000000000000000000000000000000000000000000000000000000000N 00000000000NCONT   00    00000000000          00000000000000000000000000000000000000000000 000000000000000A000000000000000000000000000000000000000000000 000000000000000000000000000000000000000     00000000                                                                                                                        000000000000000000
F0010000008459900005000102390001700013552100000000000000000201604070002001LILIANA HERNANDEZ PINILLA                         D000000000014400000000000000000000100010010000000000000000000000F0010000008459900520160407000101 00000000000000000000000000000000000000000000000000000000000000000000000000000000000000000000000000000000000000000N 00000000000NCONT   00    00000000000          00000000000000000000000000000000000000000000 000000000000000A000000000000000000000000000000000000000000000 000000000000000000000000000000000000000     00000000                                                                                                                        000000000000000000
F0010000008460000001000000742399700011050500000000000000000201604070002001CACHARRERIA EL NUEVO CHADID                       D000000001400000000000000000000000100010010000000000000000000000F0010000008460000120160407000101 00000000000000000000000000000000000000000000000000000000000000000000000000000000000000000000000000000000000000000N 00000000000NCONT   00    00000000000          00000000000000000000000000000000000000000000 000000000000000A000000000000000000000000000000000000000000000 000000000000000000000000000000000000000     00000000                                                                                                                        000000000000000000
F0010000008460000002000000742399700041450500000000000000000201604070002001CACHARRERIA EL NUEVO CHADID                       C000000000800000000000000000000000100010010000000000000000000000F0010000008460000220160407000101 00000000000000000000000000000000000000000000000000000000000000000000000000000000000000000000000000000000000000000N 00000000000NCONT   00    00000000000          00000000000000000000000000000000000000000000 000000000000000A000000000000000000000000000000000000000000000 000000000000000000000000000000000000000     00000000                                                                                                                        000000000000000000
F0010000008460000003000000742399700042505000000000000000000201604070002001CACHARRERIA EL NUEVO CHADID                       C000000000600000000000000000000000100010010000000000000000000000F0010000008460000320160407000101 00000000000000000000000000000000000000000000000000000000000000000000000000000000000000000000000000000000000000000N 00000000000NCONT   00    00000000000          00000000000000000000000000000000000000000000 000000000000000A000000000000000000000000000000000000000000000 000000000000000000000000000000000000000     00000000                                                                                                                        000000000000000000
F0010000008460000004000000742399700023658300000000000000000201604070002001CACHARRERIA EL NUEVO CHADID                       C000000000006400000000000000000000100010010000000000000000000000F0010000008460000420160407000101 00000000000000000000000000000000000000000000000000000000000000000000000000000000000000000000000000000000000000000N 00000000000NCONT   00    00000000000          00000000000000000000000000000000000000000000 000000000000000A000000000000000000000000000000000000000000000 000000000000000000000000000000000000000     00000000                                                                                                                        000000000000000000
F0010000008460000005000000742399700013552100000000000000000201604070002001CACHARRERIA EL NUEVO CHADID                       D000000000006400000000000000000000100010010000000000000000000000F0010000008460000520160407000101 00000000000000000000000000000000000000000000000000000000000000000000000000000000000000000000000000000000000000000N 00000000000NCONT   00    00000000000          00000000000000000000000000000000000000000000 000000000000000A000000000000000000000000000000000000000000000 000000000000000000000000000000000000000     00000000                                                                                                                        000000000000000000
F0010000008460100001000002245670100011050500000000000000000201604070002001YOLANDA  TOBON                                    D000000011300000000000000000000000100010010000000000000000000000F0010000008460100120160407000101 00000000000000000000000000000000000000000000000000000000000000000000000000000000000000000000000000000000000000000N 00000000000NCONT   00    00000000000          00000000000000000000000000000000000000000000 000000000000000A000000000000000000000000000000000000000000000 000000000000000000000000000000000000000     00000000                                                                                                                        000000000000000000
F0010000008460100002000002245670100041450500000000000000000201604070002001YOLANDA  TOBON                                    C000000008700000000000000000000000100010010000000000000000000000F0010000008460100220160407000101 00000000000000000000000000000000000000000000000000000000000000000000000000000000000000000000000000000000000000000N 00000000000NCONT   00    00000000000          00000000000000000000000000000000000000000000 000000000000000A000000000000000000000000000000000000000000000 000000000000000000000000000000000000000     00000000                                                                                                                        000000000000000000
F0010000008460100003000002245670100042505000000000000000000201604070002001YOLANDA  TOBON                                    C000000002600000000000000000000000100010010000000000000000000000F0010000008460100320160407000101 00000000000000000000000000000000000000000000000000000000000000000000000000000000000000000000000000000000000000000N 00000000000NCONT   00    00000000000          00000000000000000000000000000000000000000000 000000000000000A000000000000000000000000000000000000000000000 000000000000000000000000000000000000000     00000000                                                                                                                        000000000000000000
F0010000008460100004000002245670100023658300000000000000000201604070002001YOLANDA  TOBON                                    C000000000069600000000000000000000100010010000000000000000000000F0010000008460100420160407000101 00000000000000000000000000000000000000000000000000000000000000000000000000000000000000000000000000000000000000000N 00000000000NCONT   00    00000000000          00000000000000000000000000000000000000000000 000000000000000A000000000000000000000000000000000000000000000 000000000000000000000000000000000000000     00000000                                                                                                                        000000000000000000
F0010000008460100005000002245670100013552100000000000000000201604070002001YOLANDA  TOBON                                    D000000000069600000000000000000000100010010000000000000000000000F0010000008460100520160407000101 00000000000000000000000000000000000000000000000000000000000000000000000000000000000000000000000000000000000000000N 00000000000NCONT   00    00000000000          00000000000000000000000000000000000000000000 000000000000000A000000000000000000000000000000000000000000000 000000000000000000000000000000000000000     00000000                                                                                                                        000000000000000000
F0010000008460200001000007218448100011050500000000000000000201604070002001MARIANO SARABIA                                   D000000004200000000000000000000000100010010000000000000000000000F0010000008460200120160407000101 00000000000000000000000000000000000000000000000000000000000000000000000000000000000000000000000000000000000000000N 00000000000NCONT   00    00000000000          00000000000000000000000000000000000000000000 000000000000000A000000000000000000000000000000000000000000000 000000000000000000000000000000000000000     00000000                                                                                                                        000000000000000000
F0010000008460200002000007218448100041450500000000000000000201604070002001MARIANO SARABIA                                   C000000002400000000000000000000000100010010000000000000000000000F0010000008460200220160407000101 00000000000000000000000000000000000000000000000000000000000000000000000000000000000000000000000000000000000000000N 00000000000NCONT   00    00000000000          00000000000000000000000000000000000000000000 000000000000000A000000000000000000000000000000000000000000000 000000000000000000000000000000000000000     00000000                                                                                                                        000000000000000000
F0010000008460200003000007218448100042505000000000000000000201604070002001MARIANO SARABIA                                   C000000001800000000000000000000000100010010000000000000000000000F0010000008460200320160407000101 00000000000000000000000000000000000000000000000000000000000000000000000000000000000000000000000000000000000000000N 00000000000NCONT   00    00000000000          00000000000000000000000000000000000000000000 000000000000000A000000000000000000000000000000000000000000000 000000000000000000000000000000000000000     00000000                                                                                                                        000000000000000000
F0010000008460200004000007218448100023658300000000000000000201604070002001MARIANO SARABIA                                   C000000000019200000000000000000000100010010000000000000000000000F0010000008460200420160407000101 00000000000000000000000000000000000000000000000000000000000000000000000000000000000000000000000000000000000000000N 00000000000NCONT   00    00000000000          00000000000000000000000000000000000000000000 000000000000000A000000000000000000000000000000000000000000000 000000000000000000000000000000000000000     00000000                                                                                                                        000000000000000000
F0010000008460200005000007218448100013552100000000000000000201604070002001MARIANO SARABIA                                   D000000000019200000000000000000000100010010000000000000000000000F0010000008460200520160407000101 00000000000000000000000000000000000000000000000000000000000000000000000000000000000000000000000000000000000000000N 00000000000NCONT   00    00000000000          00000000000000000000000000000000000000000000 000000000000000A000000000000000000000000000000000000000000000 000000000000000000000000000000000000000     00000000                                                                                                                        000000000000000000
F0010000008460300001000007218448100011050500000000000000000201604070002001MARIANO SARABIA                                   D000000002100000000000000000000000100010010000000000000000000000F0010000008460300120160407000101 00000000000000000000000000000000000000000000000000000000000000000000000000000000000000000000000000000000000000000N 00000000000NCONT   00    00000000000          00000000000000000000000000000000000000000000 000000000000000A000000000000000000000000000000000000000000000 000000000000000000000000000000000000000     00000000                                                                                                                        000000000000000000
F0010000008460300002000007218448100041450500000000000000000201604070002001MARIANO SARABIA                                   C000000001200000000000000000000000100010010000000000000000000000F0010000008460300220160407000101 00000000000000000000000000000000000000000000000000000000000000000000000000000000000000000000000000000000000000000N 00000000000NCONT   00    00000000000          00000000000000000000000000000000000000000000 000000000000000A000000000000000000000000000000000000000000000 000000000000000000000000000000000000000     00000000                                                                                                                        000000000000000000
F0010000008460300003000007218448100042505000000000000000000201604070002001MARIANO SARABIA                                   C000000000900000000000000000000000100010010000000000000000000000F0010000008460300320160407000101 00000000000000000000000000000000000000000000000000000000000000000000000000000000000000000000000000000000000000000N 00000000000NCONT   00    00000000000          00000000000000000000000000000000000000000000 000000000000000A000000000000000000000000000000000000000000000 000000000000000000000000000000000000000     00000000                                                                                                                        000000000000000000
F0010000008460300004000007218448100023658300000000000000000201604070002001MARIANO SARABIA                                   C000000000009600000000000000000000100010010000000000000000000000F0010000008460300420160407000101 00000000000000000000000000000000000000000000000000000000000000000000000000000000000000000000000000000000000000000N 00000000000NCONT   00    00000000000          00000000000000000000000000000000000000000000 000000000000000A000000000000000000000000000000000000000000000 000000000000000000000000000000000000000     00000000                                                                                                                        000000000000000000
F0010000008460300005000007218448100013552100000000000000000201604070002001MARIANO SARABIA                                   D000000000009600000000000000000000100010010000000000000000000000F0010000008460300520160407000101 00000000000000000000000000000000000000000000000000000000000000000000000000000000000000000000000000000000000000000N 00000000000NCONT   00    00000000000          00000000000000000000000000000000000000000000 000000000000000A000000000000000000000000000000000000000000000 000000000000000000000000000000000000000     00000000                                                                                                                        000000000000000000
F0010000008460400001000080201703900011050500000000000000000201604070002001MUNDIAL CHEMICAL LTDA                             D000000005100000000000000000000000100010010000000000000000000000F0010000008460400120160407000101 00000000000000000000000000000000000000000000000000000000000000000000000000000000000000000000000000000000000000000N 00000000000NCONT   00    00000000000          00000000000000000000000000000000000000000000 000000000000000A000000000000000000000000000000000000000000000 000000000000000000000000000000000000000     00000000                                                                                                                        000000000000000000
F0010000008460400002000080201703900041450500000000000000000201604070002001MUNDIAL CHEMICAL LTDA                             C000000004600000000000000000000000100010010000000000000000000000F0010000008460400220160407000101 00000000000000000000000000000000000000000000000000000000000000000000000000000000000000000000000000000000000000000N 00000000000NCONT   00    00000000000          00000000000000000000000000000000000000000000 000000000000000A000000000000000000000000000000000000000000000 000000000000000000000000000000000000000     00000000                                                                                                                        000000000000000000
F0010000008460400003000080201703900042505000000000000000000201604070002001MUNDIAL CHEMICAL LTDA                             C000000000500000000000000000000000100010010000000000000000000000F0010000008460400320160407000101 00000000000000000000000000000000000000000000000000000000000000000000000000000000000000000000000000000000000000000N 00000000000NCONT   00    00000000000          00000000000000000000000000000000000000000000 000000000000000A000000000000000000000000000000000000000000000 000000000000000000000000000000000000000     00000000                                                                                                                        000000000000000000
F0010000008460400004000080201703900023658300000000000000000201604070002001MUNDIAL CHEMICAL LTDA                             C000000000036800000000000000000000100010010000000000000000000000F0010000008460400420160407000101 00000000000000000000000000000000000000000000000000000000000000000000000000000000000000000000000000000000000000000N 00000000000NCONT   00    00000000000          00000000000000000000000000000000000000000000 000000000000000A000000000000000000000000000000000000000000000 000000000000000000000000000000000000000     00000000                                                                                                                        000000000000000000
F0010000008460400005000080201703900013552100000000000000000201604070002001MUNDIAL CHEMICAL LTDA                             D000000000036800000000000000000000100010010000000000000000000000F0010000008460400520160407000101 00000000000000000000000000000000000000000000000000000000000000000000000000000000000000000000000000000000000000000N 00000000000NCONT   00    00000000000          00000000000000000000000000000000000000000000 000000000000000A000000000000000000000000000000000000000000000 000000000000000000000000000000000000000     00000000                                                                                                                        000000000000000000
F0010000008460500001000080023327700011050500000000000000000201604070002001DISINCO LTDA                                      D000000003100000000000000000000000100010010000000000000000000000F0010000008460500120160407000101 00000000000000000000000000000000000000000000000000000000000000000000000000000000000000000000000000000000000000000N 00000000000NCONT   00    00000000000          00000000000000000000000000000000000000000000 000000000000000A000000000000000000000000000000000000000000000 000000000000000000000000000000000000000     00000000                                                                                                                        000000000000000000
F0010000008460500002000080023327700041450500000000000000000201604070002001DISINCO LTDA                                      C000000003000000000000000000000000100010010000000000000000000000F0010000008460500220160407000101 00000000000000000000000000000000000000000000000000000000000000000000000000000000000000000000000000000000000000000N 00000000000NCONT   00    00000000000          00000000000000000000000000000000000000000000 000000000000000A000000000000000000000000000000000000000000000 000000000000000000000000000000000000000     00000000                                                                                                                        000000000000000000
F0010000008460500003000080023327700042505000000000000000000201604070002001DISINCO LTDA                                      C000000000100000000000000000000000100010010000000000000000000000F0010000008460500320160407000101 00000000000000000000000000000000000000000000000000000000000000000000000000000000000000000000000000000000000000000N 00000000000NCONT   00    00000000000          00000000000000000000000000000000000000000000 000000000000000A000000000000000000000000000000000000000000000 000000000000000000000000000000000000000     00000000                                                                                                                        000000000000000000
F0010000008460500004000080023327700023658300000000000000000201604070002001DISINCO LTDA                                      C000000000024000000000000000000000100010010000000000000000000000F0010000008460500420160407000101 00000000000000000000000000000000000000000000000000000000000000000000000000000000000000000000000000000000000000000N 00000000000NCONT   00    00000000000          00000000000000000000000000000000000000000000 000000000000000A000000000000000000000000000000000000000000000 000000000000000000000000000000000000000     00000000                                                                                                                        000000000000000000
F0010000008460500005000080023327700013552100000000000000000201604070002001DISINCO LTDA                                      D000000000024000000000000000000000100010010000000000000000000000F0010000008460500520160407000101 00000000000000000000000000000000000000000000000000000000000000000000000000000000000000000000000000000000000000000N 00000000000NCONT   00    00000000000          00000000000000000000000000000000000000000000 000000000000000A000000000000000000000000000000000000000000000 000000000000000000000000000000000000000     00000000                                                                                                                        000000000000000000
F0010000008460600001000090064474900011050500000000000000000201604070002001CENTRO ARTE PAPERIA SAS                           D000000000900000000000000000000000100010010000000000000000000000F0010000008460600120160407000101 00000000000000000000000000000000000000000000000000000000000000000000000000000000000000000000000000000000000000000N 00000000000NCONT   00    00000000000          00000000000000000000000000000000000000000000 000000000000000A000000000000000000000000000000000000000000000 000000000000000000000000000000000000000     00000000                                                                                                                        000000000000000000
F0010000008460600002000090064474900041450500000000000000000201604070002001CENTRO ARTE PAPERIA SAS                           C000000000800000000000000000000000100010010000000000000000000000F0010000008460600220160407000101 00000000000000000000000000000000000000000000000000000000000000000000000000000000000000000000000000000000000000000N 00000000000NCONT   00    00000000000          00000000000000000000000000000000000000000000 000000000000000A000000000000000000000000000000000000000000000 000000000000000000000000000000000000000     00000000                                                                                                                        000000000000000000
F0010000008460600003000090064474900042505000000000000000000201604070002001CENTRO ARTE PAPERIA SAS                           C000000000100000000000000000000000100010010000000000000000000000F0010000008460600320160407000101 00000000000000000000000000000000000000000000000000000000000000000000000000000000000000000000000000000000000000000N 00000000000NCONT   00    00000000000          00000000000000000000000000000000000000000000 000000000000000A000000000000000000000000000000000000000000000 000000000000000000000000000000000000000     00000000                                                                                                                        000000000000000000
F0010000008460600004000090064474900023658300000000000000000201604070002001CENTRO ARTE PAPERIA SAS                           C000000000006400000000000000000000100010010000000000000000000000F0010000008460600420160407000101 00000000000000000000000000000000000000000000000000000000000000000000000000000000000000000000000000000000000000000N 00000000000NCONT   00    00000000000          00000000000000000000000000000000000000000000 000000000000000A000000000000000000000000000000000000000000000 000000000000000000000000000000000000000     00000000                                                                                                                        000000000000000000
F0010000008460600005000090064474900013552100000000000000000201604070002001CENTRO ARTE PAPERIA SAS                           D000000000006400000000000000000000100010010000000000000000000000F0010000008460600520160407000101 00000000000000000000000000000000000000000000000000000000000000000000000000000000000000000000000000000000000000000N 00000000000NCONT   00    00000000000          00000000000000000000000000000000000000000000 000000000000000A000000000000000000000000000000000000000000000 000000000000000000000000000000000000000     00000000                                                                                                                        000000000000000000
F0010000008460700001000004175790100011050500000000000000000201604070002001ROSIRIS FERIA HOYOS  (COSM. SHILLER)              D000000000900000000000000000000000100010010000000000000000000000F0010000008460700120160407000101 00000000000000000000000000000000000000000000000000000000000000000000000000000000000000000000000000000000000000000N 00000000000NCONT   00    00000000000          00000000000000000000000000000000000000000000 000000000000000A000000000000000000000000000000000000000000000 000000000000000000000000000000000000000     00000000                                                                                                                        000000000000000000
F0010000008460700002000004175790100041450500000000000000000201604070002001ROSIRIS FERIA HOYOS  (COSM. SHILLER)              C000000000800000000000000000000000100010010000000000000000000000F0010000008460700220160407000101 00000000000000000000000000000000000000000000000000000000000000000000000000000000000000000000000000000000000000000N 00000000000NCONT   00    00000000000          00000000000000000000000000000000000000000000 000000000000000A000000000000000000000000000000000000000000000 000000000000000000000000000000000000000     00000000                                                                                                                        000000000000000000
F0010000008460700003000004175790100042505000000000000000000201604070002001ROSIRIS FERIA HOYOS  (COSM. SHILLER)              C000000000100000000000000000000000100010010000000000000000000000F0010000008460700320160407000101 00000000000000000000000000000000000000000000000000000000000000000000000000000000000000000000000000000000000000000N 00000000000NCONT   00    00000000000          00000000000000000000000000000000000000000000 000000000000000A000000000000000000000000000000000000000000000 000000000000000000000000000000000000000     00000000                                                                                                                        000000000000000000
F0010000008460700004000004175790100023658300000000000000000201604070002001ROSIRIS FERIA HOYOS  (COSM. SHILLER)              C000000000006400000000000000000000100010010000000000000000000000F0010000008460700420160407000101 00000000000000000000000000000000000000000000000000000000000000000000000000000000000000000000000000000000000000000N 00000000000NCONT   00    00000000000          00000000000000000000000000000000000000000000 000000000000000A000000000000000000000000000000000000000000000 000000000000000000000000000000000000000     00000000                                                                                                                        000000000000000000
F0010000008460700005000004175790100013552100000000000000000201604070002001ROSIRIS FERIA HOYOS  (COSM. SHILLER)              D000000000006400000000000000000000100010010000000000000000000000F0010000008460700520160407000101 00000000000000000000000000000000000000000000000000000000000000000000000000000000000000000000000000000000000000000N 00000000000NCONT   00    00000000000          00000000000000000000000000000000000000000000 000000000000000A000000000000000000000000000000000000000000000 000000000000000000000000000000000000000     00000000                                                                                                                        000000000000000000
F0010000008460800001000004175790100011050500000000000000000201604070002001ROSIRIS FERIA HOYOS  (COSM. SHILLER)              D000000000900000000000000000000000100010010000000000000000000000F0010000008460800120160407000101 00000000000000000000000000000000000000000000000000000000000000000000000000000000000000000000000000000000000000000N 00000000000NCONT   00    00000000000          00000000000000000000000000000000000000000000 000000000000000A000000000000000000000000000000000000000000000 000000000000000000000000000000000000000     00000000                                                                                                                        000000000000000000
F0010000008460800002000004175790100041450500000000000000000201604070002001ROSIRIS FERIA HOYOS  (COSM. SHILLER)              C000000000800000000000000000000000100010010000000000000000000000F0010000008460800220160407000101 00000000000000000000000000000000000000000000000000000000000000000000000000000000000000000000000000000000000000000N 00000000000NCONT   00    00000000000          00000000000000000000000000000000000000000000 000000000000000A000000000000000000000000000000000000000000000 000000000000000000000000000000000000000     00000000                                                                                                                        000000000000000000
F0010000008460800003000004175790100042505000000000000000000201604070002001ROSIRIS FERIA HOYOS  (COSM. SHILLER)              C000000000100000000000000000000000100010010000000000000000000000F0010000008460800320160407000101 00000000000000000000000000000000000000000000000000000000000000000000000000000000000000000000000000000000000000000N 00000000000NCONT   00    00000000000          00000000000000000000000000000000000000000000 000000000000000A000000000000000000000000000000000000000000000 000000000000000000000000000000000000000     00000000                                                                                                                        000000000000000000
F0010000008460800004000004175790100023658300000000000000000201604070002001ROSIRIS FERIA HOYOS  (COSM. SHILLER)              C000000000006400000000000000000000100010010000000000000000000000F0010000008460800420160407000101 00000000000000000000000000000000000000000000000000000000000000000000000000000000000000000000000000000000000000000N 00000000000NCONT   00    00000000000          00000000000000000000000000000000000000000000 000000000000000A000000000000000000000000000000000000000000000 000000000000000000000000000000000000000     00000000                                                                                                                        000000000000000000
F0010000008460800005000004175790100013552100000000000000000201604070002001ROSIRIS FERIA HOYOS  (COSM. SHILLER)              D000000000006400000000000000000000100010010000000000000000000000F0010000008460800520160407000101 00000000000000000000000000000000000000000000000000000000000000000000000000000000000000000000000000000000000000000N 00000000000NCONT   00    00000000000          00000000000000000000000000000000000000000000 000000000000000A000000000000000000000000000000000000000000000 000000000000000000000000000000000000000     00000000                                                                                                                        000000000000000000
F0010000008460900001000090087846000011050500000000000000000201604070002001INTERCOMERCIAL DL SAS                             D000000003800000000000000000000000100010010000000000000000000000F0010000008460900120160407000101 00000000000000000000000000000000000000000000000000000000000000000000000000000000000000000000000000000000000000000N 00000000000NCONT   00    00000000000          00000000000000000000000000000000000000000000 000000000000000A000000000000000000000000000000000000000000000 000000000000000000000000000000000000000     00000000                                                                                                                        000000000000000000
F0010000008460900002000090087846000041450500000000000000000201604070002001INTERCOMERCIAL DL SAS                             C000000003600000000000000000000000100010010000000000000000000000F0010000008460900220160407000101 00000000000000000000000000000000000000000000000000000000000000000000000000000000000000000000000000000000000000000N 00000000000NCONT   00    00000000000          00000000000000000000000000000000000000000000 000000000000000A000000000000000000000000000000000000000000000 000000000000000000000000000000000000000     00000000                                                                                                                        000000000000000000
