F0010000008161700001000090020547900011050500000000000000000201601250002001COMERCIALIZADORA DAC DEL CARIBE S.A.S.            D000000005400000000000000000000000100010010000000000000000000000F0010000008161700120160125000101 00000000000000000000000000000000000000000000000000000000000000000000000000000000000000000000000000000000000000000N 00000000000NCONT   00    00000000000          00000000000000000000000000000000000000000000 000000000000000A000000000000000000000000000000000000000000000 000000000000000000000000000000000000000     00000000                                                                                                                        000000000000000000
F0010000008161700002000090020547900041450500000000000000000201601250002001COMERCIALIZADORA DAC DEL CARIBE S.A.S.            C000000004030000000000000000000000100010010000000000000000000000F0010000008161700220160125000101 00000000000000000000000000000000000000000000000000000000000000000000000000000000000000000000000000000000000000000N 00000000000NCONT   00    00000000000          00000000000000000000000000000000000000000000 000000000000000A000000000000000000000000000000000000000000000 000000000000000000000000000000000000000     00000000                                                                                                                        000000000000000000
F0010000008161700003000090020547900042505000000000000000000201601250002001COMERCIALIZADORA DAC DEL CARIBE S.A.S.            C000000001370000000000000000000000100010010000000000000000000000F0010000008161700320160125000101 00000000000000000000000000000000000000000000000000000000000000000000000000000000000000000000000000000000000000000N 00000000000NCONT   00    00000000000          00000000000000000000000000000000000000000000 000000000000000A000000000000000000000000000000000000000000000 000000000000000000000000000000000000000     00000000                                                                                                                        000000000000000000
F0010000008161700004000090020547900023658300000000000000000201601250002001COMERCIALIZADORA DAC DEL CARIBE S.A.S.            C000000000032200000000000000000000100010010000000000000000000000F0010000008161700420160125000101 00000000000000000000000000000000000000000000000000000000000000000000000000000000000000000000000000000000000000000N 00000000000NCONT   00    00000000000          00000000000000000000000000000000000000000000 000000000000000A000000000000000000000000000000000000000000000 000000000000000000000000000000000000000     00000000                                                                                                                        000000000000000000
F0010000008161700005000090020547900013552100000000000000000201601250002001COMERCIALIZADORA DAC DEL CARIBE S.A.S.            D000000000032200000000000000000000100010010000000000000000000000F0010000008161700520160125000101 00000000000000000000000000000000000000000000000000000000000000000000000000000000000000000000000000000000000000000N 00000000000NCONT   00    00000000000          00000000000000000000000000000000000000000000 000000000000000A000000000000000000000000000000000000000000000 000000000000000000000000000000000000000     00000000                                                                                                                        000000000000000000
F0010000008161800001000090020547900011050500000000000000000201601250002001COMERCIALIZADORA DAC DEL CARIBE S.A.S.            D000000003300000000000000000000000100010010000000000000000000000F0010000008161800120160125000101 00000000000000000000000000000000000000000000000000000000000000000000000000000000000000000000000000000000000000000N 00000000000NCONT   00    00000000000          00000000000000000000000000000000000000000000 000000000000000A000000000000000000000000000000000000000000000 000000000000000000000000000000000000000     00000000                                                                                                                        000000000000000000
F0010000008161800002000090020547900041450500000000000000000201601250002001COMERCIALIZADORA DAC DEL CARIBE S.A.S.            C000000002530000000000000000000000100010010000000000000000000000F0010000008161800220160125000101 00000000000000000000000000000000000000000000000000000000000000000000000000000000000000000000000000000000000000000N 00000000000NCONT   00    00000000000          00000000000000000000000000000000000000000000 000000000000000A000000000000000000000000000000000000000000000 000000000000000000000000000000000000000     00000000                                                                                                                        000000000000000000
F0010000008161800003000090020547900042505000000000000000000201601250002001COMERCIALIZADORA DAC DEL CARIBE S.A.S.            C000000000770000000000000000000000100010010000000000000000000000F0010000008161800320160125000101 00000000000000000000000000000000000000000000000000000000000000000000000000000000000000000000000000000000000000000N 00000000000NCONT   00    00000000000          00000000000000000000000000000000000000000000 000000000000000A000000000000000000000000000000000000000000000 000000000000000000000000000000000000000     00000000                                                                                                                        000000000000000000
F0010000008161800004000090020547900023658300000000000000000201601250002001COMERCIALIZADORA DAC DEL CARIBE S.A.S.            C000000000020200000000000000000000100010010000000000000000000000F0010000008161800420160125000101 00000000000000000000000000000000000000000000000000000000000000000000000000000000000000000000000000000000000000000N 00000000000NCONT   00    00000000000          00000000000000000000000000000000000000000000 000000000000000A000000000000000000000000000000000000000000000 000000000000000000000000000000000000000     00000000                                                                                                                        000000000000000000
F0010000008161800005000090020547900013552100000000000000000201601250002001COMERCIALIZADORA DAC DEL CARIBE S.A.S.            D000000000020200000000000000000000100010010000000000000000000000F0010000008161800520160125000101 00000000000000000000000000000000000000000000000000000000000000000000000000000000000000000000000000000000000000000N 00000000000NCONT   00    00000000000          00000000000000000000000000000000000000000000 000000000000000A000000000000000000000000000000000000000000000 000000000000000000000000000000000000000     00000000                                                                                                                        000000000000000000
F0010000008161900001000000376399500013050500000000000000000201601250002001FORDPLAST                                         D000000009020000000000000000000000100010010000000000000000000000F0010000008161900120160125000101 00000000000000000000000000000000000000000000000000000000000000000000000000000000000000000000000000000000000000000N 00000000000NCONT   00    00000000000          00000000000000000000000000000000000000000000 000000000000000A000000000000000000000000000000000000000000000 000000000000000000000000000000000000000     00000000                                                                                                                        000000000000000000
F0010000008161900002000000376399500041450500000000000000000201601250002001FORDPLAST                                         C000000007170000000000000000000000100010010000000000000000000000F0010000008161900220160125000101 00000000000000000000000000000000000000000000000000000000000000000000000000000000000000000000000000000000000000000N 00000000000NCONT   00    00000000000          00000000000000000000000000000000000000000000 000000000000000A000000000000000000000000000000000000000000000 000000000000000000000000000000000000000     00000000                                                                                                                        000000000000000000
F0010000008161900003000000376399500042505000000000000000000201601250002001FORDPLAST                                         C000000001850000000000000000000000100010010000000000000000000000F0010000008161900320160125000101 00000000000000000000000000000000000000000000000000000000000000000000000000000000000000000000000000000000000000000N 00000000000NCONT   00    00000000000          00000000000000000000000000000000000000000000 000000000000000A000000000000000000000000000000000000000000000 000000000000000000000000000000000000000     00000000                                                                                                                        000000000000000000
F0010000008161900004000000376399500023658300000000000000000201601250002001FORDPLAST                                         C000000000057400000000000000000000100010010000000000000000000000F0010000008161900420160125000101 00000000000000000000000000000000000000000000000000000000000000000000000000000000000000000000000000000000000000000N 00000000000NCONT   00    00000000000          00000000000000000000000000000000000000000000 000000000000000A000000000000000000000000000000000000000000000 000000000000000000000000000000000000000     00000000                                                                                                                        000000000000000000
F0010000008161900005000000376399500013552100000000000000000201601250002001FORDPLAST                                         D000000000057400000000000000000000100010010000000000000000000000F0010000008161900520160125000101 00000000000000000000000000000000000000000000000000000000000000000000000000000000000000000000000000000000000000000N 00000000000NCONT   00    00000000000          00000000000000000000000000000000000000000000 000000000000000A000000000000000000000000000000000000000000000 000000000000000000000000000000000000000     00000000                                                                                                                        000000000000000000
F0010000008162000001000090060531100013050500000000000000000201601250002001RECUBRIMIENTOS ESENCIALES SAS                     D000000013100000000000000000000000100010010000000000000000000000F0010000008162000120160125000101 00000000000000000000000000000000000000000000000000000000000000000000000000000000000000000000000000000000000000000N 00000000000NCONT   00    00000000000          00000000000000000000000000000000000000000000 000000000000000A000000000000000000000000000000000000000000000 000000000000000000000000000000000000000     00000000                                                                                                                        000000000000000000
F0010000008162000002000090060531100041450500000000000000000201601250002001RECUBRIMIENTOS ESENCIALES SAS                     C000000012600000000000000000000000100010010000000000000000000000F0010000008162000220160125000101 00000000000000000000000000000000000000000000000000000000000000000000000000000000000000000000000000000000000000000N 00000000000NCONT   00    00000000000          00000000000000000000000000000000000000000000 000000000000000A000000000000000000000000000000000000000000000 000000000000000000000000000000000000000     00000000                                                                                                                        000000000000000000
F0010000008162000003000090060531100042505000000000000000000201601250002001RECUBRIMIENTOS ESENCIALES SAS                     C000000000500000000000000000000000100010010000000000000000000000F0010000008162000320160125000101 00000000000000000000000000000000000000000000000000000000000000000000000000000000000000000000000000000000000000000N 00000000000NCONT   00    00000000000          00000000000000000000000000000000000000000000 000000000000000A000000000000000000000000000000000000000000000 000000000000000000000000000000000000000     00000000                                                                                                                        000000000000000000
F0010000008162000004000090060531100023658300000000000000000201601250002001RECUBRIMIENTOS ESENCIALES SAS                     C000000000100800000000000000000000100010010000000000000000000000F0010000008162000420160125000101 00000000000000000000000000000000000000000000000000000000000000000000000000000000000000000000000000000000000000000N 00000000000NCONT   00    00000000000          00000000000000000000000000000000000000000000 000000000000000A000000000000000000000000000000000000000000000 000000000000000000000000000000000000000     00000000                                                                                                                        000000000000000000
F0010000008162000005000090060531100013552100000000000000000201601250002001RECUBRIMIENTOS ESENCIALES SAS                     D000000000100800000000000000000000100010010000000000000000000000F0010000008162000520160125000101 00000000000000000000000000000000000000000000000000000000000000000000000000000000000000000000000000000000000000000N 00000000000NCONT   00    00000000000          00000000000000000000000000000000000000000000 000000000000000A000000000000000000000000000000000000000000000 000000000000000000000000000000000000000     00000000                                                                                                                        000000000000000000
F0010000008162100001000080200608400013050500000000000000000201601250002001HIT DISTRIBUCIONES SAS                            D000000014100000000000000000000000100010010000000000000000000000F0010000008162100120160125000101 00000000000000000000000000000000000000000000000000000000000000000000000000000000000000000000000000000000000000000N 00000000000NCONT   00    00000000000          00000000000000000000000000000000000000000000 000000000000000A000000000000000000000000000000000000000000000 000000000000000000000000000000000000000     00000000                                                                                                                        000000000000000000
F0010000008162100002000080200608400041450500000000000000000201601250002001HIT DISTRIBUCIONES SAS                            C000000012600000000000000000000000100010010000000000000000000000F0010000008162100220160125000101 00000000000000000000000000000000000000000000000000000000000000000000000000000000000000000000000000000000000000000N 00000000000NCONT   00    00000000000          00000000000000000000000000000000000000000000 000000000000000A000000000000000000000000000000000000000000000 000000000000000000000000000000000000000     00000000                                                                                                                        000000000000000000
F0010000008162100003000080200608400042505000000000000000000201601250002001HIT DISTRIBUCIONES SAS                            C000000001500000000000000000000000100010010000000000000000000000F0010000008162100320160125000101 00000000000000000000000000000000000000000000000000000000000000000000000000000000000000000000000000000000000000000N 00000000000NCONT   00    00000000000          00000000000000000000000000000000000000000000 000000000000000A000000000000000000000000000000000000000000000 000000000000000000000000000000000000000     00000000                                                                                                                        000000000000000000
F0010000008162100004000080200608400023658300000000000000000201601250002001HIT DISTRIBUCIONES SAS                            C000000000100800000000000000000000100010010000000000000000000000F0010000008162100420160125000101 00000000000000000000000000000000000000000000000000000000000000000000000000000000000000000000000000000000000000000N 00000000000NCONT   00    00000000000          00000000000000000000000000000000000000000000 000000000000000A000000000000000000000000000000000000000000000 000000000000000000000000000000000000000     00000000                                                                                                                        000000000000000000
F0010000008162100005000080200608400013552100000000000000000201601250002001HIT DISTRIBUCIONES SAS                            D000000000100800000000000000000000100010010000000000000000000000F0010000008162100520160125000101 00000000000000000000000000000000000000000000000000000000000000000000000000000000000000000000000000000000000000000N 00000000000NCONT   00    00000000000          00000000000000000000000000000000000000000000 000000000000000A000000000000000000000000000000000000000000000 000000000000000000000000000000000000000     00000000                                                                                                                        000000000000000000
F0010000008162200001000089010526900013050500000000000000000201601250002001DISTRIBUCIONES CANAL Y CIA S.A.S                  D000000018471100000000000000000000100010010000000000000000000000F0010000008162200120160125000101 00000000000000000000000000000000000000000000000000000000000000000000000000000000000000000000000000000000000000000N 00000000000NCONT   00    00000000000          00000000000000000000000000000000000000000000 000000000000000A000000000000000000000000000000000000000000000 000000000000000000000000000000000000000     00000000                                                                                                                        000000000000000000
F0010000008162200002000089010526900041450500000000000000000201601250002001DISTRIBUCIONES CANAL Y CIA S.A.S                  C000000011670000000000000000000000100010010000000000000000000000F0010000008162200220160125000101 00000000000000000000000000000000000000000000000000000000000000000000000000000000000000000000000000000000000000000N 00000000000NCONT   00    00000000000          00000000000000000000000000000000000000000000 000000000000000A000000000000000000000000000000000000000000000 000000000000000000000000000000000000000     00000000                                                                                                                        000000000000000000
F0010000008162200003000089010526900042505000000000000000000201601250002001DISTRIBUCIONES CANAL Y CIA S.A.S                  C000000006801100000000000000000000100010010000000000000000000000F0010000008162200320160125000101 00000000000000000000000000000000000000000000000000000000000000000000000000000000000000000000000000000000000000000N 00000000000NCONT   00    00000000000          00000000000000000000000000000000000000000000 000000000000000A000000000000000000000000000000000000000000000 000000000000000000000000000000000000000     00000000                                                                                                                        000000000000000000
F0010000008162200004000089010526900023658300000000000000000201601250002001DISTRIBUCIONES CANAL Y CIA S.A.S                  C000000000093400000000000000000000100010010000000000000000000000F0010000008162200420160125000101 00000000000000000000000000000000000000000000000000000000000000000000000000000000000000000000000000000000000000000N 00000000000NCONT   00    00000000000          00000000000000000000000000000000000000000000 000000000000000A000000000000000000000000000000000000000000000 000000000000000000000000000000000000000     00000000                                                                                                                        000000000000000000
F0010000008162200005000089010526900013552100000000000000000201601250002001DISTRIBUCIONES CANAL Y CIA S.A.S                  D000000000093400000000000000000000100010010000000000000000000000F0010000008162200520160125000101 00000000000000000000000000000000000000000000000000000000000000000000000000000000000000000000000000000000000000000N 00000000000NCONT   00    00000000000          00000000000000000000000000000000000000000000 000000000000000A000000000000000000000000000000000000000000000 000000000000000000000000000000000000000     00000000                                                                                                                        000000000000000000
F0010000008162300001000080002300200013050500000000000000000201601250002001DISREL S.A.                                       D000000011080000000000000000000000100010010000000000000000000000F0010000008162300120160125000101 00000000000000000000000000000000000000000000000000000000000000000000000000000000000000000000000000000000000000000N 00000000000NCONT   00    00000000000          00000000000000000000000000000000000000000000 000000000000000A000000000000000000000000000000000000000000000 000000000000000000000000000000000000000     00000000                                                                                                                        000000000000000000
F0010000008162300002000080002300200041450500000000000000000201601250002001DISREL S.A.                                       C000000008960000000000000000000000100010010000000000000000000000F0010000008162300220160125000101 00000000000000000000000000000000000000000000000000000000000000000000000000000000000000000000000000000000000000000N 00000000000NCONT   00    00000000000          00000000000000000000000000000000000000000000 000000000000000A000000000000000000000000000000000000000000000 000000000000000000000000000000000000000     00000000                                                                                                                        000000000000000000
F0010000008162300003000080002300200042505000000000000000000201601250002001DISREL S.A.                                       C000000002120000000000000000000000100010010000000000000000000000F0010000008162300320160125000101 00000000000000000000000000000000000000000000000000000000000000000000000000000000000000000000000000000000000000000N 00000000000NCONT   00    00000000000          00000000000000000000000000000000000000000000 000000000000000A000000000000000000000000000000000000000000000 000000000000000000000000000000000000000     00000000                                                                                                                        000000000000000000
F0010000008162300004000080002300200023658300000000000000000201601250002001DISREL S.A.                                       C000000000071700000000000000000000100010010000000000000000000000F0010000008162300420160125000101 00000000000000000000000000000000000000000000000000000000000000000000000000000000000000000000000000000000000000000N 00000000000NCONT   00    00000000000          00000000000000000000000000000000000000000000 000000000000000A000000000000000000000000000000000000000000000 000000000000000000000000000000000000000     00000000                                                                                                                        000000000000000000
F0010000008162300005000080002300200013552100000000000000000201601250002001DISREL S.A.                                       D000000000071700000000000000000000100010010000000000000000000000F0010000008162300520160125000101 00000000000000000000000000000000000000000000000000000000000000000000000000000000000000000000000000000000000000000N 00000000000NCONT   00    00000000000          00000000000000000000000000000000000000000000 000000000000000A000000000000000000000000000000000000000000000 000000000000000000000000000000000000000     00000000                                                                                                                        000000000000000000
F0010000008162400001000080016664500013050500000000000000000201601250002001TELAPLAS PANCER SAS                               D000000012598000000000000000000000100010010000000000000000000000F0010000008162400120160125000101 00000000000000000000000000000000000000000000000000000000000000000000000000000000000000000000000000000000000000000N 00000000000NCONT   00    00000000000          00000000000000000000000000000000000000000000 000000000000000A000000000000000000000000000000000000000000000 000000000000000000000000000000000000000     00000000                                                                                                                        000000000000000000
F0010000008162400002000080016664500041450500000000000000000201601250002001TELAPLAS PANCER SAS                               C000000010710000000000000000000000100010010000000000000000000000F0010000008162400220160125000101 00000000000000000000000000000000000000000000000000000000000000000000000000000000000000000000000000000000000000000N 00000000000NCONT   00    00000000000          00000000000000000000000000000000000000000000 000000000000000A000000000000000000000000000000000000000000000 000000000000000000000000000000000000000     00000000                                                                                                                        000000000000000000
F0010000008162400003000080016664500042505000000000000000000201601250002001TELAPLAS PANCER SAS                               C000000001888000000000000000000000100010010000000000000000000000F0010000008162400320160125000101 00000000000000000000000000000000000000000000000000000000000000000000000000000000000000000000000000000000000000000N 00000000000NCONT   00    00000000000          00000000000000000000000000000000000000000000 000000000000000A000000000000000000000000000000000000000000000 000000000000000000000000000000000000000     00000000                                                                                                                        000000000000000000
F0010000008162400004000080016664500023658300000000000000000201601250002001TELAPLAS PANCER SAS                               C000000000085700000000000000000000100010010000000000000000000000F0010000008162400420160125000101 00000000000000000000000000000000000000000000000000000000000000000000000000000000000000000000000000000000000000000N 00000000000NCONT   00    00000000000          00000000000000000000000000000000000000000000 000000000000000A000000000000000000000000000000000000000000000 000000000000000000000000000000000000000     00000000                                                                                                                        000000000000000000
F0010000008162400005000080016664500013552100000000000000000201601250002001TELAPLAS PANCER SAS                               D000000000085700000000000000000000100010010000000000000000000000F0010000008162400520160125000101 00000000000000000000000000000000000000000000000000000000000000000000000000000000000000000000000000000000000000000N 00000000000NCONT   00    00000000000          00000000000000000000000000000000000000000000 000000000000000A000000000000000000000000000000000000000000000 000000000000000000000000000000000000000     00000000                                                                                                                        000000000000000000
F0010000008162600001000080016665600013050500000000000000000201601250002001SUMICAL DE ANTIOQUIA S.A.S                        D000000051512100000000000000000000100010010000000000000000000000F0010000008162600120160125000101 00000000000000000000000000000000000000000000000000000000000000000000000000000000000000000000000000000000000000000N 00000000000NCONT   00    00000000000          00000000000000000000000000000000000000000000 000000000000000A000000000000000000000000000000000000000000000 000000000000000000000000000000000000000     00000000                                                                                                                        000000000000000000
F0010000008162600002000080016665600041450500000000000000000201601250002001SUMICAL DE ANTIOQUIA S.A.S                        C000000042840000000000000000000000100010010000000000000000000000F0010000008162600220160125000101 00000000000000000000000000000000000000000000000000000000000000000000000000000000000000000000000000000000000000000N 00000000000NCONT   00    00000000000          00000000000000000000000000000000000000000000 000000000000000A000000000000000000000000000000000000000000000 000000000000000000000000000000000000000     00000000                                                                                                                        000000000000000000
F0010000008162600003000080016665600042505000000000000000000201601250002001SUMICAL DE ANTIOQUIA S.A.S                        C000000008672100000000000000000000100010010000000000000000000000F0010000008162600320160125000101 00000000000000000000000000000000000000000000000000000000000000000000000000000000000000000000000000000000000000000N 00000000000NCONT   00    00000000000          00000000000000000000000000000000000000000000 000000000000000A000000000000000000000000000000000000000000000 000000000000000000000000000000000000000     00000000                                                                                                                        000000000000000000
F0010000008162600004000080016665600023658300000000000000000201601250002001SUMICAL DE ANTIOQUIA S.A.S                        C000000000342700000000000000000000100010010000000000000000000000F0010000008162600420160125000101 00000000000000000000000000000000000000000000000000000000000000000000000000000000000000000000000000000000000000000N 00000000000NCONT   00    00000000000          00000000000000000000000000000000000000000000 000000000000000A000000000000000000000000000000000000000000000 000000000000000000000000000000000000000     00000000                                                                                                                        000000000000000000
F0010000008162600005000080016665600013552100000000000000000201601250002001SUMICAL DE ANTIOQUIA S.A.S                        D000000000342700000000000000000000100010010000000000000000000000F0010000008162600520160125000101 00000000000000000000000000000000000000000000000000000000000000000000000000000000000000000000000000000000000000000N 00000000000NCONT   00    00000000000          00000000000000000000000000000000000000000000 000000000000000A000000000000000000000000000000000000000000000 000000000000000000000000000000000000000     00000000                                                                                                                        000000000000000000
F0010000008162700001000083007900600013050500000000000000000201601250002001EXPRESO ANDINO DE CARGA SA                        D000000029100000000000000000000000100010010000000000000000000000F0010000008162700120160125000101 00000000000000000000000000000000000000000000000000000000000000000000000000000000000000000000000000000000000000000N 00000000000NCONT   00    00000000000          00000000000000000000000000000000000000000000 000000000000000A000000000000000000000000000000000000000000000 000000000000000000000000000000000000000     00000000                                                                                                                        000000000000000000
F0010000008162700002000083007900600041450500000000000000000201601250002001EXPRESO ANDINO DE CARGA SA                        C000000028800000000000000000000000100010010000000000000000000000F0010000008162700220160125000101 00000000000000000000000000000000000000000000000000000000000000000000000000000000000000000000000000000000000000000N 00000000000NCONT   00    00000000000          00000000000000000000000000000000000000000000 000000000000000A000000000000000000000000000000000000000000000 000000000000000000000000000000000000000     00000000                                                                                                                        000000000000000000
F0010000008162700003000083007900600042505000000000000000000201601250002001EXPRESO ANDINO DE CARGA SA                        C000000000300000000000000000000000100010010000000000000000000000F0010000008162700320160125000101 00000000000000000000000000000000000000000000000000000000000000000000000000000000000000000000000000000000000000000N 00000000000NCONT   00    00000000000          00000000000000000000000000000000000000000000 000000000000000A000000000000000000000000000000000000000000000 000000000000000000000000000000000000000     00000000                                                                                                                        000000000000000000
F0010000008162700004000083007900600023658300000000000000000201601250002001EXPRESO ANDINO DE CARGA SA                        C000000000230400000000000000000000100010010000000000000000000000F0010000008162700420160125000101 00000000000000000000000000000000000000000000000000000000000000000000000000000000000000000000000000000000000000000N 00000000000NCONT   00    00000000000          00000000000000000000000000000000000000000000 000000000000000A000000000000000000000000000000000000000000000 000000000000000000000000000000000000000     00000000                                                                                                                        000000000000000000
F0010000008162700005000083007900600013552100000000000000000201601250002001EXPRESO ANDINO DE CARGA SA                        D000000000230400000000000000000000100010010000000000000000000000F0010000008162700520160125000101 00000000000000000000000000000000000000000000000000000000000000000000000000000000000000000000000000000000000000000N 00000000000NCONT   00    00000000000          00000000000000000000000000000000000000000000 000000000000000A000000000000000000000000000000000000000000000 000000000000000000000000000000000000000     00000000                                                                                                                        000000000000000000
F0010000008162800001000089011492400013050500000000000000000201601250002001AGE. CAUCHO SOL DE LA COSTA  SAS                  D000000053957100000000000000000000100010010000000000000000000000F0010000008162800120160125000101 00000000000000000000000000000000000000000000000000000000000000000000000000000000000000000000000000000000000000000N 00000000000NCONT   00    00000000000          00000000000000000000000000000000000000000000 000000000000000A000000000000000000000000000000000000000000000 000000000000000000000000000000000000000     00000000                                                                                                                        000000000000000000
F0010000008162800002000089011492400041450500000000000000000201601250002001AGE. CAUCHO SOL DE LA COSTA  SAS                  C000000036370000000000000000000000100010010000000000000000000000F0010000008162800220160125000101 00000000000000000000000000000000000000000000000000000000000000000000000000000000000000000000000000000000000000000N 00000000000NCONT   00    00000000000          00000000000000000000000000000000000000000000 000000000000000A000000000000000000000000000000000000000000000 000000000000000000000000000000000000000     00000000                                                                                                                        000000000000000000
F0010000008162800003000089011492400042505000000000000000000201601250002001AGE. CAUCHO SOL DE LA COSTA  SAS                  C000000017587100000000000000000000100010010000000000000000000000F0010000008162800320160125000101 00000000000000000000000000000000000000000000000000000000000000000000000000000000000000000000000000000000000000000N 00000000000NCONT   00    00000000000          00000000000000000000000000000000000000000000 000000000000000A000000000000000000000000000000000000000000000 000000000000000000000000000000000000000     00000000                                                                                                                        000000000000000000
F0010000008162800004000089011492400023658300000000000000000201601250002001AGE. CAUCHO SOL DE LA COSTA  SAS                  C000000000291000000000000000000000100010010000000000000000000000F0010000008162800420160125000101 00000000000000000000000000000000000000000000000000000000000000000000000000000000000000000000000000000000000000000N 00000000000NCONT   00    00000000000          00000000000000000000000000000000000000000000 000000000000000A000000000000000000000000000000000000000000000 000000000000000000000000000000000000000     00000000                                                                                                                        000000000000000000
F0010000008162800005000089011492400013552100000000000000000201601250002001AGE. CAUCHO SOL DE LA COSTA  SAS                  D000000000291000000000000000000000100010010000000000000000000000F0010000008162800520160125000101 00000000000000000000000000000000000000000000000000000000000000000000000000000000000000000000000000000000000000000N 00000000000NCONT   00    00000000000          00000000000000000000000000000000000000000000 000000000000000A000000000000000000000000000000000000000000000 000000000000000000000000000000000000000     00000000                                                                                                                        000000000000000000
F0010000008162900001000090008711200013050500000000000000000201601250002001PACKAGING SUPPLIERS S.A.                          D000000082408000000000000000000000100010010000000000000000000000F0010000008162900120160125000101 00000000000000000000000000000000000000000000000000000000000000000000000000000000000000000000000000000000000000000N 00000000000NCONT   00    00000000000          00000000000000000000000000000000000000000000 000000000000000A000000000000000000000000000000000000000000000 000000000000000000000000000000000000000     00000000                                                                                                                        000000000000000000
F0010000008162900002000090008711200041450500000000000000000201601250002001PACKAGING SUPPLIERS S.A.                          C000000077059500000000000000000000100010010000000000000000000000F0010000008162900220160125000101 00000000000000000000000000000000000000000000000000000000000000000000000000000000000000000000000000000000000000000N 00000000000NCONT   00    00000000000          00000000000000000000000000000000000000000000 000000000000000A000000000000000000000000000000000000000000000 000000000000000000000000000000000000000     00000000                                                                                                                        000000000000000000
F0010000008162900003000090008711200042505000000000000000000201601250002001PACKAGING SUPPLIERS S.A.                          C000000005348500000000000000000000100010010000000000000000000000F0010000008162900320160125000101 00000000000000000000000000000000000000000000000000000000000000000000000000000000000000000000000000000000000000000N 00000000000NCONT   00    00000000000          00000000000000000000000000000000000000000000 000000000000000A000000000000000000000000000000000000000000000 000000000000000000000000000000000000000     00000000                                                                                                                        000000000000000000
F0010000008162900004000090008711200023658300000000000000000201601250002001PACKAGING SUPPLIERS S.A.                          C000000000616500000000000000000000100010010000000000000000000000F0010000008162900420160125000101 00000000000000000000000000000000000000000000000000000000000000000000000000000000000000000000000000000000000000000N 00000000000NCONT   00    00000000000          00000000000000000000000000000000000000000000 000000000000000A000000000000000000000000000000000000000000000 000000000000000000000000000000000000000     00000000                                                                                                                        000000000000000000
F0010000008162900005000090008711200013552100000000000000000201601250002001PACKAGING SUPPLIERS S.A.                          D000000000616500000000000000000000100010010000000000000000000000F0010000008162900520160125000101 00000000000000000000000000000000000000000000000000000000000000000000000000000000000000000000000000000000000000000N 00000000000NCONT   00    00000000000          00000000000000000000000000000000000000000000 000000000000000A000000000000000000000000000000000000000000000 000000000000000000000000000000000000000     00000000                                                                                                                        000000000000000000
F0010000008163000001000080018525700013050500000000000000000201601250002001SUMINISTROS Y ACABADOS LTDA                       D000000019031600000000000000000000100010010000000000000000000000F0010000008163000120160125000101 00000000000000000000000000000000000000000000000000000000000000000000000000000000000000000000000000000000000000000N 00000000000NCONT   00    00000000000          00000000000000000000000000000000000000000000 000000000000000A000000000000000000000000000000000000000000000 000000000000000000000000000000000000000     00000000                                                                                                                        000000000000000000
F0010000008163000002000080018525700041450500000000000000000201601250002001SUMINISTROS Y ACABADOS LTDA                       C000000015785000000000000000000000100010010000000000000000000000F0010000008163000220160125000101 00000000000000000000000000000000000000000000000000000000000000000000000000000000000000000000000000000000000000000N 00000000000NCONT   00    00000000000          00000000000000000000000000000000000000000000 000000000000000A000000000000000000000000000000000000000000000 000000000000000000000000000000000000000     00000000                                                                                                                        000000000000000000
F0010000008163000003000080018525700042505000000000000000000201601250002001SUMINISTROS Y ACABADOS LTDA                       C000000003246600000000000000000000100010010000000000000000000000F0010000008163000320160125000101 00000000000000000000000000000000000000000000000000000000000000000000000000000000000000000000000000000000000000000N 00000000000NCONT   00    00000000000          00000000000000000000000000000000000000000000 000000000000000A000000000000000000000000000000000000000000000 000000000000000000000000000000000000000     00000000                                                                                                                        000000000000000000
F0010000008163000004000080018525700023658300000000000000000201601250002001SUMINISTROS Y ACABADOS LTDA                       C000000000126300000000000000000000100010010000000000000000000000F0010000008163000420160125000101 00000000000000000000000000000000000000000000000000000000000000000000000000000000000000000000000000000000000000000N 00000000000NCONT   00    00000000000          00000000000000000000000000000000000000000000 000000000000000A000000000000000000000000000000000000000000000 000000000000000000000000000000000000000     00000000                                                                                                                        000000000000000000
F0010000008163000005000080018525700013552100000000000000000201601250002001SUMINISTROS Y ACABADOS LTDA                       D000000000126300000000000000000000100010010000000000000000000000F0010000008163000520160125000101 00000000000000000000000000000000000000000000000000000000000000000000000000000000000000000000000000000000000000000N 00000000000NCONT   00    00000000000          00000000000000000000000000000000000000000000 000000000000000A000000000000000000000000000000000000000000000 000000000000000000000000000000000000000     00000000                                                                                                                        000000000000000000
F0010000008163100001000080201601700013050500000000000000000201601250002001PLASTICOS SUPERIOR S.A.                           D000000015900000000000000000000000100010010000000000000000000000F0010000008163100120160125000101 00000000000000000000000000000000000000000000000000000000000000000000000000000000000000000000000000000000000000000N 00000000000NCONT   00    00000000000          00000000000000000000000000000000000000000000 000000000000000A000000000000000000000000000000000000000000000 000000000000000000000000000000000000000     00000000                                                                                                                        000000000000000000
F0010000008163100002000080201601700041450500000000000000000201601250002001PLASTICOS SUPERIOR S.A.                           C000000012600000000000000000000000100010010000000000000000000000F0010000008163100220160125000101 00000000000000000000000000000000000000000000000000000000000000000000000000000000000000000000000000000000000000000N 00000000000NCONT   00    00000000000          00000000000000000000000000000000000000000000 000000000000000A000000000000000000000000000000000000000000000 000000000000000000000000000000000000000     00000000                                                                                                                        000000000000000000
F0010000008163100003000080201601700042505000000000000000000201601250002001PLASTICOS SUPERIOR S.A.                           C000000003300000000000000000000000100010010000000000000000000000F0010000008163100320160125000101 00000000000000000000000000000000000000000000000000000000000000000000000000000000000000000000000000000000000000000N 00000000000NCONT   00    00000000000          00000000000000000000000000000000000000000000 000000000000000A000000000000000000000000000000000000000000000 000000000000000000000000000000000000000     00000000                                                                                                                        000000000000000000
F0010000008163100004000080201601700023658300000000000000000201601250002001PLASTICOS SUPERIOR S.A.                           C000000000100800000000000000000000100010010000000000000000000000F0010000008163100420160125000101 00000000000000000000000000000000000000000000000000000000000000000000000000000000000000000000000000000000000000000N 00000000000NCONT   00    00000000000          00000000000000000000000000000000000000000000 000000000000000A000000000000000000000000000000000000000000000 000000000000000000000000000000000000000     00000000                                                                                                                        000000000000000000
F0010000008163100005000080201601700013552100000000000000000201601250002001PLASTICOS SUPERIOR S.A.                           D000000000100800000000000000000000100010010000000000000000000000F0010000008163100520160125000101 00000000000000000000000000000000000000000000000000000000000000000000000000000000000000000000000000000000000000000N 00000000000NCONT   00    00000000000          00000000000000000000000000000000000000000000 000000000000000A000000000000000000000000000000000000000000000 000000000000000000000000000000000000000     00000000                                                                                                                        000000000000000000
F0010000008163200001000090054716100013050500000000000000000201601250002001IMPORTVAL SAS                                     D000000049200000000000000000000000100010010000000000000000000000F0010000008163200120160125000101 00000000000000000000000000000000000000000000000000000000000000000000000000000000000000000000000000000000000000000N 00000000000NCONT   00    00000000000          00000000000000000000000000000000000000000000 000000000000000A000000000000000000000000000000000000000000000 000000000000000000000000000000000000000     00000000                                                                                                                        000000000000000000
F0010000008163200002000090054716100041450500000000000000000201601250002001IMPORTVAL SAS                                     C000000045000000000000000000000000100010010000000000000000000000F0010000008163200220160125000101 00000000000000000000000000000000000000000000000000000000000000000000000000000000000000000000000000000000000000000N 00000000000NCONT   00    00000000000          00000000000000000000000000000000000000000000 000000000000000A000000000000000000000000000000000000000000000 000000000000000000000000000000000000000     00000000                                                                                                                        000000000000000000
F0010000008163200003000090054716100042505000000000000000000201601250002001IMPORTVAL SAS                                     C000000004200000000000000000000000100010010000000000000000000000F0010000008163200320160125000101 00000000000000000000000000000000000000000000000000000000000000000000000000000000000000000000000000000000000000000N 00000000000NCONT   00    00000000000          00000000000000000000000000000000000000000000 000000000000000A000000000000000000000000000000000000000000000 000000000000000000000000000000000000000     00000000                                                                                                                        000000000000000000
F0010000008163200004000090054716100023658300000000000000000201601250002001IMPORTVAL SAS                                     C000000000360000000000000000000000100010010000000000000000000000F0010000008163200420160125000101 00000000000000000000000000000000000000000000000000000000000000000000000000000000000000000000000000000000000000000N 00000000000NCONT   00    00000000000          00000000000000000000000000000000000000000000 000000000000000A000000000000000000000000000000000000000000000 000000000000000000000000000000000000000     00000000                                                                                                                        000000000000000000
F0010000008163200005000090054716100013552100000000000000000201601250002001IMPORTVAL SAS                                     D000000000360000000000000000000000100010010000000000000000000000F0010000008163200520160125000101 00000000000000000000000000000000000000000000000000000000000000000000000000000000000000000000000000000000000000000N 00000000000NCONT   00    00000000000          00000000000000000000000000000000000000000000 000000000000000A000000000000000000000000000000000000000000000 000000000000000000000000000000000000000     00000000                                                                                                                        000000000000000000
F0010000008163300001000090034602400013050500000000000000000201601250002001PRODUCTOS NACIONALES PARAFINICOS LA CUSTODIA S.A.SD000000021494900000000000000000000100010010000000000000000000000F0010000008163300120160125000101 00000000000000000000000000000000000000000000000000000000000000000000000000000000000000000000000000000000000000000N 00000000000NCONT   00    00000000000          00000000000000000000000000000000000000000000 000000000000000A000000000000000000000000000000000000000000000 000000000000000000000000000000000000000     00000000                                                                                                                        000000000000000000
F0010000008163300002000090034602400041450500000000000000000201601250002001PRODUCTOS NACIONALES PARAFINICOS LA CUSTODIA S.A.SC000000020594900000000000000000000100010010000000000000000000000F0010000008163300220160125000101 00000000000000000000000000000000000000000000000000000000000000000000000000000000000000000000000000000000000000000N 00000000000NCONT   00    00000000000          00000000000000000000000000000000000000000000 000000000000000A000000000000000000000000000000000000000000000 000000000000000000000000000000000000000     00000000                                                                                                                        000000000000000000
F0010000008163300003000090034602400042505000000000000000000201601250002001PRODUCTOS NACIONALES PARAFINICOS LA CUSTODIA S.A.SC000000000900000000000000000000000100010010000000000000000000000F0010000008163300320160125000101 00000000000000000000000000000000000000000000000000000000000000000000000000000000000000000000000000000000000000000N 00000000000NCONT   00    00000000000          00000000000000000000000000000000000000000000 000000000000000A000000000000000000000000000000000000000000000 000000000000000000000000000000000000000     00000000                                                                                                                        000000000000000000
F0010000008163300004000090034602400023658300000000000000000201601250002001PRODUCTOS NACIONALES PARAFINICOS LA CUSTODIA S.A.SC000000000164800000000000000000000100010010000000000000000000000F0010000008163300420160125000101 00000000000000000000000000000000000000000000000000000000000000000000000000000000000000000000000000000000000000000N 00000000000NCONT   00    00000000000          00000000000000000000000000000000000000000000 000000000000000A000000000000000000000000000000000000000000000 000000000000000000000000000000000000000     00000000                                                                                                                        000000000000000000
F0010000008163300005000090034602400013552100000000000000000201601250002001PRODUCTOS NACIONALES PARAFINICOS LA CUSTODIA S.A.SD000000000164800000000000000000000100010010000000000000000000000F0010000008163300520160125000101 00000000000000000000000000000000000000000000000000000000000000000000000000000000000000000000000000000000000000000N 00000000000NCONT   00    00000000000          00000000000000000000000000000000000000000000 000000000000000A000000000000000000000000000000000000000000000 000000000000000000000000000000000000000     00000000                                                                                                                        000000000000000000
F0010000008163400001000000871714900013050500000000000000000201601250002001ROLNAN DE LA ROSA  INSIGNARES                     D000000037926800000000000000000000100010010000000000000000000000F0010000008163400120160125000101 00000000000000000000000000000000000000000000000000000000000000000000000000000000000000000000000000000000000000000N 00000000000NCONT   00    00000000000          00000000000000000000000000000000000000000000 000000000000000A000000000000000000000000000000000000000000000 000000000000000000000000000000000000000     00000000                                                                                                                        000000000000000000
F0010000008163400002000000871714900041450500000000000000000201601250002001ROLNAN DE LA ROSA  INSIGNARES                     C000000032195800000000000000000000100010010000000000000000000000F0010000008163400220160125000101 00000000000000000000000000000000000000000000000000000000000000000000000000000000000000000000000000000000000000000N 00000000000NCONT   00    00000000000          00000000000000000000000000000000000000000000 000000000000000A000000000000000000000000000000000000000000000 000000000000000000000000000000000000000     00000000                                                                                                                        000000000000000000
F0010000008163400003000000871714900042505000000000000000000201601250002001ROLNAN DE LA ROSA  INSIGNARES                     C000000005731000000000000000000000100010010000000000000000000000F0010000008163400320160125000101 00000000000000000000000000000000000000000000000000000000000000000000000000000000000000000000000000000000000000000N 00000000000NCONT   00    00000000000          00000000000000000000000000000000000000000000 000000000000000A000000000000000000000000000000000000000000000 000000000000000000000000000000000000000     00000000                                                                                                                        000000000000000000
F0010000008163400004000000871714900023658300000000000000000201601250002001ROLNAN DE LA ROSA  INSIGNARES                     C000000000257600000000000000000000100010010000000000000000000000F0010000008163400420160125000101 00000000000000000000000000000000000000000000000000000000000000000000000000000000000000000000000000000000000000000N 00000000000NCONT   00    00000000000          00000000000000000000000000000000000000000000 000000000000000A000000000000000000000000000000000000000000000 000000000000000000000000000000000000000     00000000                                                                                                                        000000000000000000
F0010000008163400005000000871714900013552100000000000000000201601250002001ROLNAN DE LA ROSA  INSIGNARES                     D000000000257600000000000000000000100010010000000000000000000000F0010000008163400520160125000101 00000000000000000000000000000000000000000000000000000000000000000000000000000000000000000000000000000000000000000N 00000000000NCONT   00    00000000000          00000000000000000000000000000000000000000000 000000000000000A000000000000000000000000000000000000000000000 000000000000000000000000000000000000000     00000000                                                                                                                        000000000000000000
F0010000008163500001000002245670100013050500000000000000000201601250002001YOLANDA  TOBON                                    D000000055382700000000000000000000100010010000000000000000000000F0010000008163500120160125000101 00000000000000000000000000000000000000000000000000000000000000000000000000000000000000000000000000000000000000000N 00000000000NCONT   00    00000000000          00000000000000000000000000000000000000000000 000000000000000A000000000000000000000000000000000000000000000 000000000000000000000000000000000000000     00000000                                                                                                                        000000000000000000
F0010000008163500002000002245670100041450500000000000000000201601250002001YOLANDA  TOBON                                    C000000040560000000000000000000000100010010000000000000000000000F0010000008163500220160125000101 00000000000000000000000000000000000000000000000000000000000000000000000000000000000000000000000000000000000000000N 00000000000NCONT   00    00000000000          00000000000000000000000000000000000000000000 000000000000000A000000000000000000000000000000000000000000000 000000000000000000000000000000000000000     00000000                                                                                                                        000000000000000000
F0010000008163500003000002245670100042505000000000000000000201601250002001YOLANDA  TOBON                                    C000000014822700000000000000000000100010010000000000000000000000F0010000008163500320160125000101 00000000000000000000000000000000000000000000000000000000000000000000000000000000000000000000000000000000000000000N 00000000000NCONT   00    00000000000          00000000000000000000000000000000000000000000 000000000000000A000000000000000000000000000000000000000000000 000000000000000000000000000000000000000     00000000                                                                                                                        000000000000000000
F0010000008163500004000002245670100023658300000000000000000201601250002001YOLANDA  TOBON                                    C000000000324500000000000000000000100010010000000000000000000000F0010000008163500420160125000101 00000000000000000000000000000000000000000000000000000000000000000000000000000000000000000000000000000000000000000N 00000000000NCONT   00    00000000000          00000000000000000000000000000000000000000000 000000000000000A000000000000000000000000000000000000000000000 000000000000000000000000000000000000000     00000000                                                                                                                        000000000000000000
F0010000008163500005000002245670100013552100000000000000000201601250002001YOLANDA  TOBON                                    D000000000324500000000000000000000100010010000000000000000000000F0010000008163500520160125000101 00000000000000000000000000000000000000000000000000000000000000000000000000000000000000000000000000000000000000000N 00000000000NCONT   00    00000000000          00000000000000000000000000000000000000000000 000000000000000A000000000000000000000000000000000000000000000 000000000000000000000000000000000000000     00000000                                                                                                                        000000000000000000
F0010000008163600001000000748239700013050500000000000000000201601250002001RAFAEL NAVARRO URIBE                              D000000029938000000000000000000000100010010000000000000000000000F0010000008163600120160125000101 00000000000000000000000000000000000000000000000000000000000000000000000000000000000000000000000000000000000000000N 00000000000NCONT   00    00000000000          00000000000000000000000000000000000000000000 000000000000000A000000000000000000000000000000000000000000000 000000000000000000000000000000000000000     00000000                                                                                                                        000000000000000000
F0010000008163600002000000748239700041450500000000000000000201601250002001RAFAEL NAVARRO URIBE                              C000000022320000000000000000000000100010010000000000000000000000F0010000008163600220160125000101 00000000000000000000000000000000000000000000000000000000000000000000000000000000000000000000000000000000000000000N 00000000000NCONT   00    00000000000          00000000000000000000000000000000000000000000 000000000000000A000000000000000000000000000000000000000000000 000000000000000000000000000000000000000     00000000                                                                                                                        000000000000000000
F0010000008163600003000000748239700042505000000000000000000201601250002001RAFAEL NAVARRO URIBE                              C000000007618000000000000000000000100010010000000000000000000000F0010000008163600320160125000101 00000000000000000000000000000000000000000000000000000000000000000000000000000000000000000000000000000000000000000N 00000000000NCONT   00    00000000000          00000000000000000000000000000000000000000000 000000000000000A000000000000000000000000000000000000000000000 000000000000000000000000000000000000000     00000000                                                                                                                        000000000000000000
F0010000008163600004000000748239700023658300000000000000000201601250002001RAFAEL NAVARRO URIBE                              C000000000178600000000000000000000100010010000000000000000000000F0010000008163600420160125000101 00000000000000000000000000000000000000000000000000000000000000000000000000000000000000000000000000000000000000000N 00000000000NCONT   00    00000000000          00000000000000000000000000000000000000000000 000000000000000A000000000000000000000000000000000000000000000 000000000000000000000000000000000000000     00000000                                                                                                                        000000000000000000
F0010000008163600005000000748239700013552100000000000000000201601250002001RAFAEL NAVARRO URIBE                              D000000000178600000000000000000000100010010000000000000000000000F0010000008163600520160125000101 00000000000000000000000000000000000000000000000000000000000000000000000000000000000000000000000000000000000000000N 00000000000NCONT   00    00000000000          00000000000000000000000000000000000000000000 000000000000000A000000000000000000000000000000000000000000000 000000000000000000000000000000000000000     00000000                                                                                                                        000000000000000000
F0010000008163700001000080004943800013050500000000000000000201601250002001PAPELERIA EL CID S.A.                             D000000020800000000000000000000000100010010000000000000000000000F0010000008163700120160125000101 00000000000000000000000000000000000000000000000000000000000000000000000000000000000000000000000000000000000000000N 00000000000NCONT   00    00000000000          00000000000000000000000000000000000000000000 000000000000000A000000000000000000000000000000000000000000000 000000000000000000000000000000000000000     00000000                                                                                                                        000000000000000000
F0010000008163700002000080004943800041450500000000000000000201601250002001PAPELERIA EL CID S.A.                             C000000015440000000000000000000000100010010000000000000000000000F0010000008163700220160125000101 00000000000000000000000000000000000000000000000000000000000000000000000000000000000000000000000000000000000000000N 00000000000NCONT   00    00000000000          00000000000000000000000000000000000000000000 000000000000000A000000000000000000000000000000000000000000000 000000000000000000000000000000000000000     00000000                                                                                                                        000000000000000000
F0010000008163700003000080004943800042505000000000000000000201601250002001PAPELERIA EL CID S.A.                             C000000005360000000000000000000000100010010000000000000000000000F0010000008163700320160125000101 00000000000000000000000000000000000000000000000000000000000000000000000000000000000000000000000000000000000000000N 00000000000NCONT   00    00000000000          00000000000000000000000000000000000000000000 000000000000000A000000000000000000000000000000000000000000000 000000000000000000000000000000000000000     00000000                                                                                                                        000000000000000000
F0010000008163700004000080004943800023658300000000000000000201601250002001PAPELERIA EL CID S.A.                             C000000000123500000000000000000000100010010000000000000000000000F0010000008163700420160125000101 00000000000000000000000000000000000000000000000000000000000000000000000000000000000000000000000000000000000000000N 00000000000NCONT   00    00000000000          00000000000000000000000000000000000000000000 000000000000000A000000000000000000000000000000000000000000000 000000000000000000000000000000000000000     00000000                                                                                                                        000000000000000000
F0010000008163700005000080004943800013552100000000000000000201601250002001PAPELERIA EL CID S.A.                             D000000000123500000000000000000000100010010000000000000000000000F0010000008163700520160125000101 00000000000000000000000000000000000000000000000000000000000000000000000000000000000000000000000000000000000000000N 00000000000NCONT   00    00000000000          00000000000000000000000000000000000000000000 000000000000000A000000000000000000000000000000000000000000000 000000000000000000000000000000000000000     00000000                                                                                                                        000000000000000000
F0010000008163800001000089010260300013050500000000000000000201601250002001FEDERICO OSORIO A. S.A.                           D000000071596700000000000000000000100010010000000000000000000000F0010000008163800120160125000101 00000000000000000000000000000000000000000000000000000000000000000000000000000000000000000000000000000000000000000N 00000000000NCONT   00    00000000000          00000000000000000000000000000000000000000000 000000000000000A000000000000000000000000000000000000000000000 000000000000000000000000000000000000000     00000000                                                                                                                        000000000000000000
F0010000008163800002000089010260300041450500000000000000000201601250002001FEDERICO OSORIO A. S.A.                           C000000064440000000000000000000000100010010000000000000000000000F0010000008163800220160125000101 00000000000000000000000000000000000000000000000000000000000000000000000000000000000000000000000000000000000000000N 00000000000NCONT   00    00000000000          00000000000000000000000000000000000000000000 000000000000000A000000000000000000000000000000000000000000000 000000000000000000000000000000000000000     00000000                                                                                                                        000000000000000000
F0010000008163800003000089010260300042505000000000000000000201601250002001FEDERICO OSORIO A. S.A.                           C000000007156700000000000000000000100010010000000000000000000000F0010000008163800320160125000101 00000000000000000000000000000000000000000000000000000000000000000000000000000000000000000000000000000000000000000N 00000000000NCONT   00    00000000000          00000000000000000000000000000000000000000000 000000000000000A000000000000000000000000000000000000000000000 000000000000000000000000000000000000000     00000000                                                                                                                        000000000000000000
F0010000008163800004000089010260300023658300000000000000000201601250002001FEDERICO OSORIO A. S.A.                           C000000000515500000000000000000000100010010000000000000000000000F0010000008163800420160125000101 00000000000000000000000000000000000000000000000000000000000000000000000000000000000000000000000000000000000000000N 00000000000NCONT   00    00000000000          00000000000000000000000000000000000000000000 000000000000000A000000000000000000000000000000000000000000000 000000000000000000000000000000000000000     00000000                                                                                                                        000000000000000000
F0010000008163800005000089010260300013552100000000000000000201601250002001FEDERICO OSORIO A. S.A.                           D000000000515500000000000000000000100010010000000000000000000000F0010000008163800520160125000101 00000000000000000000000000000000000000000000000000000000000000000000000000000000000000000000000000000000000000000N 00000000000NCONT   00    00000000000          00000000000000000000000000000000000000000000 000000000000000A000000000000000000000000000000000000000000000 000000000000000000000000000000000000000     00000000                                                                                                                        000000000000000000
F0010000008163900001000001022529300013050500000000000000000201601250002001ALBERTO ALVAREZ ISAZA                             D000000003270000000000000000000000100010010000000000000000000000F0010000008163900120160125000101 00000000000000000000000000000000000000000000000000000000000000000000000000000000000000000000000000000000000000000N 00000000000NCONT   00    00000000000          00000000000000000000000000000000000000000000 000000000000000A000000000000000000000000000000000000000000000 000000000000000000000000000000000000000     00000000                                                                                                                        000000000000000000
F0010000008163900002000001022529300041450500000000000000000201601250002001ALBERTO ALVAREZ ISAZA                             C000000003270000000000000000000000100010010000000000000000000000F0010000008163900220160125000101 00000000000000000000000000000000000000000000000000000000000000000000000000000000000000000000000000000000000000000N 00000000000NCONT   00    00000000000          00000000000000000000000000000000000000000000 000000000000000A000000000000000000000000000000000000000000000 000000000000000000000000000000000000000     00000000                                                                                                                        000000000000000000
F0010000008163900003000001022529300042505000000000000000000201601250002001ALBERTO ALVAREZ ISAZA                             C000000000000000000000000000000000100010010000000000000000000000F0010000008163900320160125000101 00000000000000000000000000000000000000000000000000000000000000000000000000000000000000000000000000000000000000000N 00000000000NCONT   00    00000000000          00000000000000000000000000000000000000000000 000000000000000A000000000000000000000000000000000000000000000 000000000000000000000000000000000000000     00000000                                                                                                                        000000000000000000
F0010000008163900004000001022529300023658300000000000000000201601250002001ALBERTO ALVAREZ ISAZA                             C000000000026200000000000000000000100010010000000000000000000000F0010000008163900420160125000101 00000000000000000000000000000000000000000000000000000000000000000000000000000000000000000000000000000000000000000N 00000000000NCONT   00    00000000000          00000000000000000000000000000000000000000000 000000000000000A000000000000000000000000000000000000000000000 000000000000000000000000000000000000000     00000000                                                                                                                        000000000000000000
F0010000008163900005000001022529300013552100000000000000000201601250002001ALBERTO ALVAREZ ISAZA                             D000000000026200000000000000000000100010010000000000000000000000F0010000008163900520160125000101 00000000000000000000000000000000000000000000000000000000000000000000000000000000000000000000000000000000000000000N 00000000000NCONT   00    00000000000          00000000000000000000000000000000000000000000 000000000000000A000000000000000000000000000000000000000000000 000000000000000000000000000000000000000     00000000                                                                                                                        000000000000000000
F0010000008164000001000083008772100013050500000000000000000201601250002001ILUMEC SAS                                        D000000024000000000000000000000000100010010000000000000000000000F0010000008164000120160125000101 00000000000000000000000000000000000000000000000000000000000000000000000000000000000000000000000000000000000000000N 00000000000NCONT   00    00000000000          00000000000000000000000000000000000000000000 000000000000000A000000000000000000000000000000000000000000000 000000000000000000000000000000000000000     00000000                                                                                                                        000000000000000000
F0010000008164000002000083008772100041450500000000000000000201601250002001ILUMEC SAS                                        C000000014300000000000000000000000100010010000000000000000000000F0010000008164000220160125000101 00000000000000000000000000000000000000000000000000000000000000000000000000000000000000000000000000000000000000000N 00000000000NCONT   00    00000000000          00000000000000000000000000000000000000000000 000000000000000A000000000000000000000000000000000000000000000 000000000000000000000000000000000000000     00000000                                                                                                                        000000000000000000
F0010000008164000003000083008772100042505000000000000000000201601250002001ILUMEC SAS                                        C000000009700000000000000000000000100010010000000000000000000000F0010000008164000320160125000101 00000000000000000000000000000000000000000000000000000000000000000000000000000000000000000000000000000000000000000N 00000000000NCONT   00    00000000000          00000000000000000000000000000000000000000000 000000000000000A000000000000000000000000000000000000000000000 000000000000000000000000000000000000000     00000000                                                                                                                        000000000000000000
F0010000008164000004000083008772100023658300000000000000000201601250002001ILUMEC SAS                                        C000000000114400000000000000000000100010010000000000000000000000F0010000008164000420160125000101 00000000000000000000000000000000000000000000000000000000000000000000000000000000000000000000000000000000000000000N 00000000000NCONT   00    00000000000          00000000000000000000000000000000000000000000 000000000000000A000000000000000000000000000000000000000000000 000000000000000000000000000000000000000     00000000                                                                                                                        000000000000000000
F0010000008164000005000083008772100013552100000000000000000201601250002001ILUMEC SAS                                        D000000000114400000000000000000000100010010000000000000000000000F0010000008164000520160125000101 00000000000000000000000000000000000000000000000000000000000000000000000000000000000000000000000000000000000000000N 00000000000NCONT   00    00000000000          00000000000000000000000000000000000000000000 000000000000000A000000000000000000000000000000000000000000000 000000000000000000000000000000000000000     00000000                                                                                                                        000000000000000000
F0010000008164100001000000431178400013050500000000000000000201601250002001EFRAIN ALVAREZ                                    D000000024100000000000000000000000100010010000000000000000000000F0010000008164100120160125000101 00000000000000000000000000000000000000000000000000000000000000000000000000000000000000000000000000000000000000000N 00000000000NCONT   00    00000000000          00000000000000000000000000000000000000000000 000000000000000A000000000000000000000000000000000000000000000 000000000000000000000000000000000000000     00000000                                                                                                                        000000000000000000
F0010000008164100002000000431178400041450500000000000000000201601250002001EFRAIN ALVAREZ                                    C000000022050000000000000000000000100010010000000000000000000000F0010000008164100220160125000101 00000000000000000000000000000000000000000000000000000000000000000000000000000000000000000000000000000000000000000N 00000000000NCONT   00    00000000000          00000000000000000000000000000000000000000000 000000000000000A000000000000000000000000000000000000000000000 000000000000000000000000000000000000000     00000000                                                                                                                        000000000000000000
F0010000008164100003000000431178400042505000000000000000000201601250002001EFRAIN ALVAREZ                                    C000000002050000000000000000000000100010010000000000000000000000F0010000008164100320160125000101 00000000000000000000000000000000000000000000000000000000000000000000000000000000000000000000000000000000000000000N 00000000000NCONT   00    00000000000          00000000000000000000000000000000000000000000 000000000000000A000000000000000000000000000000000000000000000 000000000000000000000000000000000000000     00000000                                                                                                                        000000000000000000
F0010000008164100004000000431178400023658300000000000000000201601250002001EFRAIN ALVAREZ                                    C000000000176400000000000000000000100010010000000000000000000000F0010000008164100420160125000101 00000000000000000000000000000000000000000000000000000000000000000000000000000000000000000000000000000000000000000N 00000000000NCONT   00    00000000000          00000000000000000000000000000000000000000000 000000000000000A000000000000000000000000000000000000000000000 000000000000000000000000000000000000000     00000000                                                                                                                        000000000000000000
F0010000008164100005000000431178400013552100000000000000000201601250002001EFRAIN ALVAREZ                                    D000000000176400000000000000000000100010010000000000000000000000F0010000008164100520160125000101 00000000000000000000000000000000000000000000000000000000000000000000000000000000000000000000000000000000000000000N 00000000000NCONT   00    00000000000          00000000000000000000000000000000000000000000 000000000000000A000000000000000000000000000000000000000000000 000000000000000000000000000000000000000     00000000                                                                                                                        000000000000000000
F0010000008164200001000090019362000013050500000000000000000201601250002001GENERAL SUPPLIES CIA LTDA                         D000000014697900000000000000000000100010010000000000000000000000F0010000008164200120160125000101 00000000000000000000000000000000000000000000000000000000000000000000000000000000000000000000000000000000000000000N 00000000000NCONT   00    00000000000          00000000000000000000000000000000000000000000 000000000000000A000000000000000000000000000000000000000000000 000000000000000000000000000000000000000     00000000                                                                                                                        000000000000000000
F0010000008164200002000090019362000041450500000000000000000201601250002001GENERAL SUPPLIES CIA LTDA                         C000000012000000000000000000000000100010010000000000000000000000F0010000008164200220160125000101 00000000000000000000000000000000000000000000000000000000000000000000000000000000000000000000000000000000000000000N 00000000000NCONT   00    00000000000          00000000000000000000000000000000000000000000 000000000000000A000000000000000000000000000000000000000000000 000000000000000000000000000000000000000     00000000                                                                                                                        000000000000000000
F0010000008164200003000090019362000042505000000000000000000201601250002001GENERAL SUPPLIES CIA LTDA                         C000000002697900000000000000000000100010010000000000000000000000F0010000008164200320160125000101 00000000000000000000000000000000000000000000000000000000000000000000000000000000000000000000000000000000000000000N 00000000000NCONT   00    00000000000          00000000000000000000000000000000000000000000 000000000000000A000000000000000000000000000000000000000000000 000000000000000000000000000000000000000     00000000                                                                                                                        000000000000000000
F0010000008164200004000090019362000023658300000000000000000201601250002001GENERAL SUPPLIES CIA LTDA                         C000000000096000000000000000000000100010010000000000000000000000F0010000008164200420160125000101 00000000000000000000000000000000000000000000000000000000000000000000000000000000000000000000000000000000000000000N 00000000000NCONT   00    00000000000          00000000000000000000000000000000000000000000 000000000000000A000000000000000000000000000000000000000000000 000000000000000000000000000000000000000     00000000                                                                                                                        000000000000000000
F0010000008164200005000090019362000013552100000000000000000201601250002001GENERAL SUPPLIES CIA LTDA                         D000000000096000000000000000000000100010010000000000000000000000F0010000008164200520160125000101 00000000000000000000000000000000000000000000000000000000000000000000000000000000000000000000000000000000000000000N 00000000000NCONT   00    00000000000          00000000000000000000000000000000000000000000 000000000000000A000000000000000000000000000000000000000000000 000000000000000000000000000000000000000     00000000                                                                                                                        000000000000000000
F0010000008164300001000000870907300013050500000000000000000201601250002001SURTIDOR FERRETERO                                D000000018821300000000000000000000100010010000000000000000000000F0010000008164300120160125000101 00000000000000000000000000000000000000000000000000000000000000000000000000000000000000000000000000000000000000000N 00000000000NCONT   00    00000000000          00000000000000000000000000000000000000000000 000000000000000A000000000000000000000000000000000000000000000 000000000000000000000000000000000000000     00000000                                                                                                                        000000000000000000
F0010000008164300002000000870907300041450500000000000000000201601250002001SURTIDOR FERRETERO                                C000000013880000000000000000000000100010010000000000000000000000F0010000008164300220160125000101 00000000000000000000000000000000000000000000000000000000000000000000000000000000000000000000000000000000000000000N 00000000000NCONT   00    00000000000          00000000000000000000000000000000000000000000 000000000000000A000000000000000000000000000000000000000000000 000000000000000000000000000000000000000     00000000                                                                                                                        000000000000000000
F0010000008164300003000000870907300041750100000000000000000201601250002001SURTIDOR FERRETERO                                D000000001388000000000000000000000100010010000000000000000000000F0010000008164300320160125000101 00000000000000000000000000000000000000000000000000000000000000000000000000000000000000000000000000000000000000000N 00000000000NCONT   00    00000000000          00000000000000000000000000000000000000000000 000000000000000A000000000000000000000000000000000000000000000 000000000000000000000000000000000000000     00000000                                                                                                                        000000000000000000
F0010000008164300004000000870907300042505000000000000000000201601250002001SURTIDOR FERRETERO                                C000000006329300000000000000000000100010010000000000000000000000F0010000008164300420160125000101 00000000000000000000000000000000000000000000000000000000000000000000000000000000000000000000000000000000000000000N 00000000000NCONT   00    00000000000          00000000000000000000000000000000000000000000 000000000000000A000000000000000000000000000000000000000000000 000000000000000000000000000000000000000     00000000                                                                                                                        000000000000000000
F0010000008164300005000000870907300023658300000000000000000201601250002001SURTIDOR FERRETERO                                C000000000111000000000000000000000100010010000000000000000000000F0010000008164300520160125000101 00000000000000000000000000000000000000000000000000000000000000000000000000000000000000000000000000000000000000000N 00000000000NCONT   00    00000000000          00000000000000000000000000000000000000000000 000000000000000A000000000000000000000000000000000000000000000 000000000000000000000000000000000000000     00000000                                                                                                                        000000000000000000
F0010000008164300006000000870907300013552100000000000000000201601250002001SURTIDOR FERRETERO                                D000000000111000000000000000000000100010010000000000000000000000F0010000008164300620160125000101 00000000000000000000000000000000000000000000000000000000000000000000000000000000000000000000000000000000000000000N 00000000000NCONT   00    00000000000          00000000000000000000000000000000000000000000 000000000000000A000000000000000000000000000000000000000000000 000000000000000000000000000000000000000     00000000                                                                                                                        000000000000000000
F0010000008164400001000004175790100013050500000000000000000201601250002001ROSIRIS FERIA HOYOS  (COSM. SHILLER)              D000000004700000000000000000000000100010010000000000000000000000F0010000008164400120160125000101 00000000000000000000000000000000000000000000000000000000000000000000000000000000000000000000000000000000000000000N 00000000000NCONT   00    00000000000          00000000000000000000000000000000000000000000 000000000000000A000000000000000000000000000000000000000000000 000000000000000000000000000000000000000     00000000                                                                                                                        000000000000000000
F0010000008164400002000004175790100041450500000000000000000201601250002001ROSIRIS FERIA HOYOS  (COSM. SHILLER)              C000000003600000000000000000000000100010010000000000000000000000F0010000008164400220160125000101 00000000000000000000000000000000000000000000000000000000000000000000000000000000000000000000000000000000000000000N 00000000000NCONT   00    00000000000          00000000000000000000000000000000000000000000 000000000000000A000000000000000000000000000000000000000000000 000000000000000000000000000000000000000     00000000                                                                                                                        000000000000000000
F0010000008164400003000004175790100042505000000000000000000201601250002001ROSIRIS FERIA HOYOS  (COSM. SHILLER)              C000000001100000000000000000000000100010010000000000000000000000F0010000008164400320160125000101 00000000000000000000000000000000000000000000000000000000000000000000000000000000000000000000000000000000000000000N 00000000000NCONT   00    00000000000          00000000000000000000000000000000000000000000 000000000000000A000000000000000000000000000000000000000000000 000000000000000000000000000000000000000     00000000                                                                                                                        000000000000000000
F0010000008164400004000004175790100023658300000000000000000201601250002001ROSIRIS FERIA HOYOS  (COSM. SHILLER)              C000000000028800000000000000000000100010010000000000000000000000F0010000008164400420160125000101 00000000000000000000000000000000000000000000000000000000000000000000000000000000000000000000000000000000000000000N 00000000000NCONT   00    00000000000          00000000000000000000000000000000000000000000 000000000000000A000000000000000000000000000000000000000000000 000000000000000000000000000000000000000     00000000                                                                                                                        000000000000000000
F0010000008164400005000004175790100013552100000000000000000201601250002001ROSIRIS FERIA HOYOS  (COSM. SHILLER)              D000000000028800000000000000000000100010010000000000000000000000F0010000008164400520160125000101 00000000000000000000000000000000000000000000000000000000000000000000000000000000000000000000000000000000000000000N 00000000000NCONT   00    00000000000          00000000000000000000000000000000000000000000 000000000000000A000000000000000000000000000000000000000000000 000000000000000000000000000000000000000     00000000                                                                                                                        000000000000000000
F0010000008164500001000090038852800013050500000000000000000201601250002001EL COMERCIO ELECTRICO DE LA CO                    D000000025440000000000000000000000100010010000000000000000000000F0010000008164500120160125000101 00000000000000000000000000000000000000000000000000000000000000000000000000000000000000000000000000000000000000000N 00000000000NCONT   00    00000000000          00000000000000000000000000000000000000000000 000000000000000A000000000000000000000000000000000000000000000 000000000000000000000000000000000000000     00000000                                                                                                                        000000000000000000
F0010000008164500002000090038852800041450500000000000000000201601250002001EL COMERCIO ELECTRICO DE LA CO                    C000000020240000000000000000000000100010010000000000000000000000F0010000008164500220160125000101 00000000000000000000000000000000000000000000000000000000000000000000000000000000000000000000000000000000000000000N 00000000000NCONT   00    00000000000          00000000000000000000000000000000000000000000 000000000000000A000000000000000000000000000000000000000000000 000000000000000000000000000000000000000     00000000                                                                                                                        000000000000000000
F0010000008164500003000090038852800042505000000000000000000201601250002001EL COMERCIO ELECTRICO DE LA CO                    C000000005200000000000000000000000100010010000000000000000000000F0010000008164500320160125000101 00000000000000000000000000000000000000000000000000000000000000000000000000000000000000000000000000000000000000000N 00000000000NCONT   00    00000000000          00000000000000000000000000000000000000000000 000000000000000A000000000000000000000000000000000000000000000 000000000000000000000000000000000000000     00000000                                                                                                                        000000000000000000
F0010000008164500004000090038852800023658300000000000000000201601250002001EL COMERCIO ELECTRICO DE LA CO                    C000000000161900000000000000000000100010010000000000000000000000F0010000008164500420160125000101 00000000000000000000000000000000000000000000000000000000000000000000000000000000000000000000000000000000000000000N 00000000000NCONT   00    00000000000          00000000000000000000000000000000000000000000 000000000000000A000000000000000000000000000000000000000000000 000000000000000000000000000000000000000     00000000                                                                                                                        000000000000000000
F0010000008164500005000090038852800013552100000000000000000201601250002001EL COMERCIO ELECTRICO DE LA CO                    D000000000161900000000000000000000100010010000000000000000000000F0010000008164500520160125000101 00000000000000000000000000000000000000000000000000000000000000000000000000000000000000000000000000000000000000000N 00000000000NCONT   00    00000000000          00000000000000000000000000000000000000000000 000000000000000A000000000000000000000000000000000000000000000 000000000000000000000000000000000000000     00000000                                                                                                                        000000000000000000
F0010000008164600001000090040631000013050500000000000000000201601250002001BEINEX SAS                                        D000000010100000000000000000000000100010010000000000000000000000F0010000008164600120160125000101 00000000000000000000000000000000000000000000000000000000000000000000000000000000000000000000000000000000000000000N 00000000000NCONT   00    00000000000          00000000000000000000000000000000000000000000 000000000000000A000000000000000000000000000000000000000000000 000000000000000000000000000000000000000     00000000                                                                                                                        000000000000000000
F0010000008164600002000090040631000041450500000000000000000201601250002001BEINEX SAS                                        C000000010100000000000000000000000100010010000000000000000000000F0010000008164600220160125000101 00000000000000000000000000000000000000000000000000000000000000000000000000000000000000000000000000000000000000000N 00000000000NCONT   00    00000000000          00000000000000000000000000000000000000000000 000000000000000A000000000000000000000000000000000000000000000 000000000000000000000000000000000000000     00000000                                                                                                                        000000000000000000
F0010000008164600003000090040631000042505000000000000000000201601250002001BEINEX SAS                                        C000000000000000000000000000000000100010010000000000000000000000F0010000008164600320160125000101 00000000000000000000000000000000000000000000000000000000000000000000000000000000000000000000000000000000000000000N 00000000000NCONT   00    00000000000          00000000000000000000000000000000000000000000 000000000000000A000000000000000000000000000000000000000000000 000000000000000000000000000000000000000     00000000                                                                                                                        000000000000000000
F0010000008164600004000090040631000023658300000000000000000201601250002001BEINEX SAS                                        C000000000080800000000000000000000100010010000000000000000000000F0010000008164600420160125000101 00000000000000000000000000000000000000000000000000000000000000000000000000000000000000000000000000000000000000000N 00000000000NCONT   00    00000000000          00000000000000000000000000000000000000000000 000000000000000A000000000000000000000000000000000000000000000 000000000000000000000000000000000000000     00000000                                                                                                                        000000000000000000
F0010000008164600005000090040631000013552100000000000000000201601250002001BEINEX SAS                                        D000000000080800000000000000000000100010010000000000000000000000F0010000008164600520160125000101 00000000000000000000000000000000000000000000000000000000000000000000000000000000000000000000000000000000000000000N 00000000000NCONT   00    00000000000          00000000000000000000000000000000000000000000 000000000000000A000000000000000000000000000000000000000000000 000000000000000000000000000000000000000     00000000                                                                                                                        000000000000000000
F0010000008164700001000090050863700013050500000000000000000201601250002001COMERCIALIZADORA PERFECT SAS                      D000000016630700000000000000000000100010010000000000000000000000F0010000008164700120160125000101 00000000000000000000000000000000000000000000000000000000000000000000000000000000000000000000000000000000000000000N 00000000000NCONT   00    00000000000          00000000000000000000000000000000000000000000 000000000000000A000000000000000000000000000000000000000000000 000000000000000000000000000000000000000     00000000                                                                                                                        000000000000000000
