F0010000009543100001000090036646700011050500000000000000000201612100002001FERREPROYECTOS S.A.S                              D000000002000000000000000000000000100010010000000000000000000000F0010000009543100120161210000101 00000000000000000000000000000000000000000000000000000000000000000000000000000000000000000000000000000000000000000N 00000000000NCONT   00    00000000000          00000000000000000000000000000000000000000000 000000000000000A000000000000000000000000000000000000000000000 000000000000000000000000000000000000000     00000000                                                                                                                        000000000000000000
F0010000009543100002000090036646700041450500000000000000000201612100002001FERREPROYECTOS S.A.S                              C000000001900000000000000000000000100010010000000000000000000000F0010000009543100220161210000101 00000000000000000000000000000000000000000000000000000000000000000000000000000000000000000000000000000000000000000N 00000000000NCONT   00    00000000000          00000000000000000000000000000000000000000000 000000000000000A000000000000000000000000000000000000000000000 000000000000000000000000000000000000000     00000000                                                                                                                        000000000000000000
F0010000009543100003000090036646700042505000000000000000000201612100002001FERREPROYECTOS S.A.S                              C000000000100000000000000000000000100010010000000000000000000000F0010000009543100320161210000101 00000000000000000000000000000000000000000000000000000000000000000000000000000000000000000000000000000000000000000N 00000000000NCONT   00    00000000000          00000000000000000000000000000000000000000000 000000000000000A000000000000000000000000000000000000000000000 000000000000000000000000000000000000000     00000000                                                                                                                        000000000000000000
F0010000009543100004000090036646700023658300000000000000000201612100002001FERREPROYECTOS S.A.S                              C000000000015200000000000000000000100010010000000000000000000000F0010000009543100420161210000101 00000000000000000000000000000000000000000000000000000000000000000000000000000000000000000000000000000000000000000N 00000000000NCONT   00    00000000000          00000000000000000000000000000000000000000000 000000000000000A000000000000000000000000000000000000000000000 000000000000000000000000000000000000000     00000000                                                                                                                        000000000000000000
F0010000009543100005000090036646700013552100000000000000000201612100002001FERREPROYECTOS S.A.S                              D000000000015200000000000000000000100010010000000000000000000000F0010000009543100520161210000101 00000000000000000000000000000000000000000000000000000000000000000000000000000000000000000000000000000000000000000N 00000000000NCONT   00    00000000000          00000000000000000000000000000000000000000000 000000000000000A000000000000000000000000000000000000000000000 000000000000000000000000000000000000000     00000000                                                                                                                        000000000000000000
F0010000009543200001000000744496800011050500000000000000000201612100002001TOMAS SANCHEZ                                     D000000001000000000000000000000000100010010000000000000000000000F0010000009543200120161210000101 00000000000000000000000000000000000000000000000000000000000000000000000000000000000000000000000000000000000000000N 00000000000NCONT   00    00000000000          00000000000000000000000000000000000000000000 000000000000000A000000000000000000000000000000000000000000000 000000000000000000000000000000000000000     00000000                                                                                                                        000000000000000000
F0010000009543200002000000744496800041450500000000000000000201612100002001TOMAS SANCHEZ                                     C000000000900000000000000000000000100010010000000000000000000000F0010000009543200220161210000101 00000000000000000000000000000000000000000000000000000000000000000000000000000000000000000000000000000000000000000N 00000000000NCONT   00    00000000000          00000000000000000000000000000000000000000000 000000000000000A000000000000000000000000000000000000000000000 000000000000000000000000000000000000000     00000000                                                                                                                        000000000000000000
F0010000009543200003000000744496800042505000000000000000000201612100002001TOMAS SANCHEZ                                     C000000000100000000000000000000000100010010000000000000000000000F0010000009543200320161210000101 00000000000000000000000000000000000000000000000000000000000000000000000000000000000000000000000000000000000000000N 00000000000NCONT   00    00000000000          00000000000000000000000000000000000000000000 000000000000000A000000000000000000000000000000000000000000000 000000000000000000000000000000000000000     00000000                                                                                                                        000000000000000000
F0010000009543200004000000744496800023658300000000000000000201612100002001TOMAS SANCHEZ                                     C000000000007200000000000000000000100010010000000000000000000000F0010000009543200420161210000101 00000000000000000000000000000000000000000000000000000000000000000000000000000000000000000000000000000000000000000N 00000000000NCONT   00    00000000000          00000000000000000000000000000000000000000000 000000000000000A000000000000000000000000000000000000000000000 000000000000000000000000000000000000000     00000000                                                                                                                        000000000000000000
F0010000009543200005000000744496800013552100000000000000000201612100002001TOMAS SANCHEZ                                     D000000000007200000000000000000000100010010000000000000000000000F0010000009543200520161210000101 00000000000000000000000000000000000000000000000000000000000000000000000000000000000000000000000000000000000000000N 00000000000NCONT   00    00000000000          00000000000000000000000000000000000000000000 000000000000000A000000000000000000000000000000000000000000000 000000000000000000000000000000000000000     00000000                                                                                                                        000000000000000000
F0010000009543300001000000744496800011050500000000000000000201612100002001TOMAS SANCHEZ                                     D000000001000000000000000000000000100010010000000000000000000000F0010000009543300120161210000101 00000000000000000000000000000000000000000000000000000000000000000000000000000000000000000000000000000000000000000N 00000000000NCONT   00    00000000000          00000000000000000000000000000000000000000000 000000000000000A000000000000000000000000000000000000000000000 000000000000000000000000000000000000000     00000000                                                                                                                        000000000000000000
F0010000009543300002000000744496800041450500000000000000000201612100002001TOMAS SANCHEZ                                     C000000000900000000000000000000000100010010000000000000000000000F0010000009543300220161210000101 00000000000000000000000000000000000000000000000000000000000000000000000000000000000000000000000000000000000000000N 00000000000NCONT   00    00000000000          00000000000000000000000000000000000000000000 000000000000000A000000000000000000000000000000000000000000000 000000000000000000000000000000000000000     00000000                                                                                                                        000000000000000000
F0010000009543300003000000744496800042505000000000000000000201612100002001TOMAS SANCHEZ                                     C000000000100000000000000000000000100010010000000000000000000000F0010000009543300320161210000101 00000000000000000000000000000000000000000000000000000000000000000000000000000000000000000000000000000000000000000N 00000000000NCONT   00    00000000000          00000000000000000000000000000000000000000000 000000000000000A000000000000000000000000000000000000000000000 000000000000000000000000000000000000000     00000000                                                                                                                        000000000000000000
F0010000009543300004000000744496800023658300000000000000000201612100002001TOMAS SANCHEZ                                     C000000000007200000000000000000000100010010000000000000000000000F0010000009543300420161210000101 00000000000000000000000000000000000000000000000000000000000000000000000000000000000000000000000000000000000000000N 00000000000NCONT   00    00000000000          00000000000000000000000000000000000000000000 000000000000000A000000000000000000000000000000000000000000000 000000000000000000000000000000000000000     00000000                                                                                                                        000000000000000000
F0010000009543300005000000744496800013552100000000000000000201612100002001TOMAS SANCHEZ                                     D000000000007200000000000000000000100010010000000000000000000000F0010000009543300520161210000101 00000000000000000000000000000000000000000000000000000000000000000000000000000000000000000000000000000000000000000N 00000000000NCONT   00    00000000000          00000000000000000000000000000000000000000000 000000000000000A000000000000000000000000000000000000000000000 000000000000000000000000000000000000000     00000000                                                                                                                        000000000000000000
F0010000009543400001000090050144800011050500000000000000000201612100002001PLASTICOS JR ASOCIADOS SAS                        D000000001100000000000000000000000100010010000000000000000000000F0010000009543400120161210000101 00000000000000000000000000000000000000000000000000000000000000000000000000000000000000000000000000000000000000000N 00000000000NCONT   00    00000000000          00000000000000000000000000000000000000000000 000000000000000A000000000000000000000000000000000000000000000 000000000000000000000000000000000000000     00000000                                                                                                                        000000000000000000
F0010000009543400002000090050144800041450500000000000000000201612100002001PLASTICOS JR ASOCIADOS SAS                        C000000001000000000000000000000000100010010000000000000000000000F0010000009543400220161210000101 00000000000000000000000000000000000000000000000000000000000000000000000000000000000000000000000000000000000000000N 00000000000NCONT   00    00000000000          00000000000000000000000000000000000000000000 000000000000000A000000000000000000000000000000000000000000000 000000000000000000000000000000000000000     00000000                                                                                                                        000000000000000000
F0010000009543400003000090050144800042505000000000000000000201612100002001PLASTICOS JR ASOCIADOS SAS                        C000000000100000000000000000000000100010010000000000000000000000F0010000009543400320161210000101 00000000000000000000000000000000000000000000000000000000000000000000000000000000000000000000000000000000000000000N 00000000000NCONT   00    00000000000          00000000000000000000000000000000000000000000 000000000000000A000000000000000000000000000000000000000000000 000000000000000000000000000000000000000     00000000                                                                                                                        000000000000000000
F0010000009543400004000090050144800023658300000000000000000201612100002001PLASTICOS JR ASOCIADOS SAS                        C000000000008000000000000000000000100010010000000000000000000000F0010000009543400420161210000101 00000000000000000000000000000000000000000000000000000000000000000000000000000000000000000000000000000000000000000N 00000000000NCONT   00    00000000000          00000000000000000000000000000000000000000000 000000000000000A000000000000000000000000000000000000000000000 000000000000000000000000000000000000000     00000000                                                                                                                        000000000000000000
F0010000009543400005000090050144800013552100000000000000000201612100002001PLASTICOS JR ASOCIADOS SAS                        D000000000008000000000000000000000100010010000000000000000000000F0010000009543400520161210000101 00000000000000000000000000000000000000000000000000000000000000000000000000000000000000000000000000000000000000000N 00000000000NCONT   00    00000000000          00000000000000000000000000000000000000000000 000000000000000A000000000000000000000000000000000000000000000 000000000000000000000000000000000000000     00000000                                                                                                                        000000000000000000
F0010000009543500001000089070997800011050500000000000000000201612100002001CENTRAL DE TORNILLOS                              D000000002280000000000000000000000100010010000000000000000000000F0010000009543500120161210000101 00000000000000000000000000000000000000000000000000000000000000000000000000000000000000000000000000000000000000000N 00000000000NCONT   00    00000000000          00000000000000000000000000000000000000000000 000000000000000A000000000000000000000000000000000000000000000 000000000000000000000000000000000000000     00000000                                                                                                                        000000000000000000
F0010000009543500002000089070997800041450500000000000000000201612100002001CENTRAL DE TORNILLOS                              C000000001780000000000000000000000100010010000000000000000000000F0010000009543500220161210000101 00000000000000000000000000000000000000000000000000000000000000000000000000000000000000000000000000000000000000000N 00000000000NCONT   00    00000000000          00000000000000000000000000000000000000000000 000000000000000A000000000000000000000000000000000000000000000 000000000000000000000000000000000000000     00000000                                                                                                                        000000000000000000
F0010000009543500003000089070997800042505000000000000000000201612100002001CENTRAL DE TORNILLOS                              C000000000500000000000000000000000100010010000000000000000000000F0010000009543500320161210000101 00000000000000000000000000000000000000000000000000000000000000000000000000000000000000000000000000000000000000000N 00000000000NCONT   00    00000000000          00000000000000000000000000000000000000000000 000000000000000A000000000000000000000000000000000000000000000 000000000000000000000000000000000000000     00000000                                                                                                                        000000000000000000
F0010000009543500004000089070997800023658300000000000000000201612100002001CENTRAL DE TORNILLOS                              C000000000014200000000000000000000100010010000000000000000000000F0010000009543500420161210000101 00000000000000000000000000000000000000000000000000000000000000000000000000000000000000000000000000000000000000000N 00000000000NCONT   00    00000000000          00000000000000000000000000000000000000000000 000000000000000A000000000000000000000000000000000000000000000 000000000000000000000000000000000000000     00000000                                                                                                                        000000000000000000
F0010000009543500005000089070997800013552100000000000000000201612100002001CENTRAL DE TORNILLOS                              D000000000014200000000000000000000100010010000000000000000000000F0010000009543500520161210000101 00000000000000000000000000000000000000000000000000000000000000000000000000000000000000000000000000000000000000000N 00000000000NCONT   00    00000000000          00000000000000000000000000000000000000000000 000000000000000A000000000000000000000000000000000000000000000 000000000000000000000000000000000000000     00000000                                                                                                                        000000000000000000
F0010000009543600001000089070997800011050500000000000000000201612100002001CENTRAL DE TORNILLOS                              D000000004360000000000000000000000100010010000000000000000000000F0010000009543600120161210000101 00000000000000000000000000000000000000000000000000000000000000000000000000000000000000000000000000000000000000000N 00000000000NCONT   00    00000000000          00000000000000000000000000000000000000000000 000000000000000A000000000000000000000000000000000000000000000 000000000000000000000000000000000000000     00000000                                                                                                                        000000000000000000
F0010000009543600002000089070997800041450500000000000000000201612100002001CENTRAL DE TORNILLOS                              C000000003860000000000000000000000100010010000000000000000000000F0010000009543600220161210000101 00000000000000000000000000000000000000000000000000000000000000000000000000000000000000000000000000000000000000000N 00000000000NCONT   00    00000000000          00000000000000000000000000000000000000000000 000000000000000A000000000000000000000000000000000000000000000 000000000000000000000000000000000000000     00000000                                                                                                                        000000000000000000
F0010000009543600003000089070997800042505000000000000000000201612100002001CENTRAL DE TORNILLOS                              C000000000500000000000000000000000100010010000000000000000000000F0010000009543600320161210000101 00000000000000000000000000000000000000000000000000000000000000000000000000000000000000000000000000000000000000000N 00000000000NCONT   00    00000000000          00000000000000000000000000000000000000000000 000000000000000A000000000000000000000000000000000000000000000 000000000000000000000000000000000000000     00000000                                                                                                                        000000000000000000
F0010000009543600004000089070997800023658300000000000000000201612100002001CENTRAL DE TORNILLOS                              C000000000030900000000000000000000100010010000000000000000000000F0010000009543600420161210000101 00000000000000000000000000000000000000000000000000000000000000000000000000000000000000000000000000000000000000000N 00000000000NCONT   00    00000000000          00000000000000000000000000000000000000000000 000000000000000A000000000000000000000000000000000000000000000 000000000000000000000000000000000000000     00000000                                                                                                                        000000000000000000
F0010000009543600005000089070997800013552100000000000000000201612100002001CENTRAL DE TORNILLOS                              D000000000030900000000000000000000100010010000000000000000000000F0010000009543600520161210000101 00000000000000000000000000000000000000000000000000000000000000000000000000000000000000000000000000000000000000000N 00000000000NCONT   00    00000000000          00000000000000000000000000000000000000000000 000000000000000A000000000000000000000000000000000000000000000 000000000000000000000000000000000000000     00000000                                                                                                                        000000000000000000
F0010000009543700001000090050144800011050500000000000000000201612100002001PLASTICOS JR ASOCIADOS SAS                        D000000008700000000000000000000000100010010000000000000000000000F0010000009543700120161210000101 00000000000000000000000000000000000000000000000000000000000000000000000000000000000000000000000000000000000000000N 00000000000NCONT   00    00000000000          00000000000000000000000000000000000000000000 000000000000000A000000000000000000000000000000000000000000000 000000000000000000000000000000000000000     00000000                                                                                                                        000000000000000000
F0010000009543700002000090050144800041450500000000000000000201612100002001PLASTICOS JR ASOCIADOS SAS                        C000000008000000000000000000000000100010010000000000000000000000F0010000009543700220161210000101 00000000000000000000000000000000000000000000000000000000000000000000000000000000000000000000000000000000000000000N 00000000000NCONT   00    00000000000          00000000000000000000000000000000000000000000 000000000000000A000000000000000000000000000000000000000000000 000000000000000000000000000000000000000     00000000                                                                                                                        000000000000000000
F0010000009543700003000090050144800042505000000000000000000201612100002001PLASTICOS JR ASOCIADOS SAS                        C000000000700000000000000000000000100010010000000000000000000000F0010000009543700320161210000101 00000000000000000000000000000000000000000000000000000000000000000000000000000000000000000000000000000000000000000N 00000000000NCONT   00    00000000000          00000000000000000000000000000000000000000000 000000000000000A000000000000000000000000000000000000000000000 000000000000000000000000000000000000000     00000000                                                                                                                        000000000000000000
F0010000009543700004000090050144800023658300000000000000000201612100002001PLASTICOS JR ASOCIADOS SAS                        C000000000064000000000000000000000100010010000000000000000000000F0010000009543700420161210000101 00000000000000000000000000000000000000000000000000000000000000000000000000000000000000000000000000000000000000000N 00000000000NCONT   00    00000000000          00000000000000000000000000000000000000000000 000000000000000A000000000000000000000000000000000000000000000 000000000000000000000000000000000000000     00000000                                                                                                                        000000000000000000
F0010000009543700005000090050144800013552100000000000000000201612100002001PLASTICOS JR ASOCIADOS SAS                        D000000000064000000000000000000000100010010000000000000000000000F0010000009543700520161210000101 00000000000000000000000000000000000000000000000000000000000000000000000000000000000000000000000000000000000000000N 00000000000NCONT   00    00000000000          00000000000000000000000000000000000000000000 000000000000000A000000000000000000000000000000000000000000000 000000000000000000000000000000000000000     00000000                                                                                                                        000000000000000000
F0010000009543800001000000747561400011050500000000000000000201612100002001JORGE LUIS CORDOBA MONTOYA                        D000000004200000000000000000000000100010010000000000000000000000F0010000009543800120161210000101 00000000000000000000000000000000000000000000000000000000000000000000000000000000000000000000000000000000000000000N 00000000000NCONT   00    00000000000          00000000000000000000000000000000000000000000 000000000000000A000000000000000000000000000000000000000000000 000000000000000000000000000000000000000     00000000                                                                                                                        000000000000000000
F0010000009543800002000000747561400041450500000000000000000201612100002001JORGE LUIS CORDOBA MONTOYA                        C000000002000000000000000000000000100010010000000000000000000000F0010000009543800220161210000101 00000000000000000000000000000000000000000000000000000000000000000000000000000000000000000000000000000000000000000N 00000000000NCONT   00    00000000000          00000000000000000000000000000000000000000000 000000000000000A000000000000000000000000000000000000000000000 000000000000000000000000000000000000000     00000000                                                                                                                        000000000000000000
F0010000009543800003000000747561400042505000000000000000000201612100002001JORGE LUIS CORDOBA MONTOYA                        C000000002200000000000000000000000100010010000000000000000000000F0010000009543800320161210000101 00000000000000000000000000000000000000000000000000000000000000000000000000000000000000000000000000000000000000000N 00000000000NCONT   00    00000000000          00000000000000000000000000000000000000000000 000000000000000A000000000000000000000000000000000000000000000 000000000000000000000000000000000000000     00000000                                                                                                                        000000000000000000
F0010000009543800004000000747561400023658300000000000000000201612100002001JORGE LUIS CORDOBA MONTOYA                        C000000000016000000000000000000000100010010000000000000000000000F0010000009543800420161210000101 00000000000000000000000000000000000000000000000000000000000000000000000000000000000000000000000000000000000000000N 00000000000NCONT   00    00000000000          00000000000000000000000000000000000000000000 000000000000000A000000000000000000000000000000000000000000000 000000000000000000000000000000000000000     00000000                                                                                                                        000000000000000000
F0010000009543800005000000747561400013552100000000000000000201612100002001JORGE LUIS CORDOBA MONTOYA                        D000000000016000000000000000000000100010010000000000000000000000F0010000009543800520161210000101 00000000000000000000000000000000000000000000000000000000000000000000000000000000000000000000000000000000000000000N 00000000000NCONT   00    00000000000          00000000000000000000000000000000000000000000 000000000000000A000000000000000000000000000000000000000000000 000000000000000000000000000000000000000     00000000                                                                                                                        000000000000000000
F0010000009543900001000086003979400011050500000000000000000201612100002001CALYPSO BARRANQUILLA LTDA                         D000000001436800000000000000000000100010010000000000000000000000F0010000009543900120161210000101 00000000000000000000000000000000000000000000000000000000000000000000000000000000000000000000000000000000000000000N 00000000000NCONT   00    00000000000          00000000000000000000000000000000000000000000 000000000000000A000000000000000000000000000000000000000000000 000000000000000000000000000000000000000     00000000                                                                                                                        000000000000000000
F0010000009543900002000086003979400041450500000000000000000201612100002001CALYPSO BARRANQUILLA LTDA                         C000000001320000000000000000000000100010010000000000000000000000F0010000009543900220161210000101 00000000000000000000000000000000000000000000000000000000000000000000000000000000000000000000000000000000000000000N 00000000000NCONT   00    00000000000          00000000000000000000000000000000000000000000 000000000000000A000000000000000000000000000000000000000000000 000000000000000000000000000000000000000     00000000                                                                                                                        000000000000000000
F0010000009543900003000086003979400042505000000000000000000201612100002001CALYPSO BARRANQUILLA LTDA                         C000000000116800000000000000000000100010010000000000000000000000F0010000009543900320161210000101 00000000000000000000000000000000000000000000000000000000000000000000000000000000000000000000000000000000000000000N 00000000000NCONT   00    00000000000          00000000000000000000000000000000000000000000 000000000000000A000000000000000000000000000000000000000000000 000000000000000000000000000000000000000     00000000                                                                                                                        000000000000000000
F0010000009543900004000086003979400023658300000000000000000201612100002001CALYPSO BARRANQUILLA LTDA                         C000000000010600000000000000000000100010010000000000000000000000F0010000009543900420161210000101 00000000000000000000000000000000000000000000000000000000000000000000000000000000000000000000000000000000000000000N 00000000000NCONT   00    00000000000          00000000000000000000000000000000000000000000 000000000000000A000000000000000000000000000000000000000000000 000000000000000000000000000000000000000     00000000                                                                                                                        000000000000000000
F0010000009543900005000086003979400013552100000000000000000201612100002001CALYPSO BARRANQUILLA LTDA                         D000000000010600000000000000000000100010010000000000000000000000F0010000009543900520161210000101 00000000000000000000000000000000000000000000000000000000000000000000000000000000000000000000000000000000000000000N 00000000000NCONT   00    00000000000          00000000000000000000000000000000000000000000 000000000000000A000000000000000000000000000000000000000000000 000000000000000000000000000000000000000     00000000                                                                                                                        000000000000000000
F0010000009544000001000000611149400011050500000000000000000201612100002001JOSE URIEL GARCIA ARCILA                          D000000028000000000000000000000000100010010000000000000000000000F0010000009544000120161210000101 00000000000000000000000000000000000000000000000000000000000000000000000000000000000000000000000000000000000000000N 00000000000NCONT   00    00000000000          00000000000000000000000000000000000000000000 000000000000000A000000000000000000000000000000000000000000000 000000000000000000000000000000000000000     00000000                                                                                                                        000000000000000000
F0010000009544000002000000611149400041450500000000000000000201612100002001JOSE URIEL GARCIA ARCILA                          C000000027000000000000000000000000100010010000000000000000000000F0010000009544000220161210000101 00000000000000000000000000000000000000000000000000000000000000000000000000000000000000000000000000000000000000000N 00000000000NCONT   00    00000000000          00000000000000000000000000000000000000000000 000000000000000A000000000000000000000000000000000000000000000 000000000000000000000000000000000000000     00000000                                                                                                                        000000000000000000
F0010000009544000003000000611149400042505000000000000000000201612100002001JOSE URIEL GARCIA ARCILA                          C000000001000000000000000000000000100010010000000000000000000000F0010000009544000320161210000101 00000000000000000000000000000000000000000000000000000000000000000000000000000000000000000000000000000000000000000N 00000000000NCONT   00    00000000000          00000000000000000000000000000000000000000000 000000000000000A000000000000000000000000000000000000000000000 000000000000000000000000000000000000000     00000000                                                                                                                        000000000000000000
F0010000009544000004000000611149400023658300000000000000000201612100002001JOSE URIEL GARCIA ARCILA                          C000000000216000000000000000000000100010010000000000000000000000F0010000009544000420161210000101 00000000000000000000000000000000000000000000000000000000000000000000000000000000000000000000000000000000000000000N 00000000000NCONT   00    00000000000          00000000000000000000000000000000000000000000 000000000000000A000000000000000000000000000000000000000000000 000000000000000000000000000000000000000     00000000                                                                                                                        000000000000000000
F0010000009544000005000000611149400013552100000000000000000201612100002001JOSE URIEL GARCIA ARCILA                          D000000000216000000000000000000000100010010000000000000000000000F0010000009544000520161210000101 00000000000000000000000000000000000000000000000000000000000000000000000000000000000000000000000000000000000000000N 00000000000NCONT   00    00000000000          00000000000000000000000000000000000000000000 000000000000000A000000000000000000000000000000000000000000000 000000000000000000000000000000000000000     00000000                                                                                                                        000000000000000000
F0010000009544100001000080202350700011050500000000000000000201612100002001CONNY DE LA COSTA SAS                             D000000000900000000000000000000000100010010000000000000000000000F0010000009544100120161210000101 00000000000000000000000000000000000000000000000000000000000000000000000000000000000000000000000000000000000000000N 00000000000NCONT   00    00000000000          00000000000000000000000000000000000000000000 000000000000000A000000000000000000000000000000000000000000000 000000000000000000000000000000000000000     00000000                                                                                                                        000000000000000000
F0010000009544100002000080202350700041450500000000000000000201612100002001CONNY DE LA COSTA SAS                             C000000000850000000000000000000000100010010000000000000000000000F0010000009544100220161210000101 00000000000000000000000000000000000000000000000000000000000000000000000000000000000000000000000000000000000000000N 00000000000NCONT   00    00000000000          00000000000000000000000000000000000000000000 000000000000000A000000000000000000000000000000000000000000000 000000000000000000000000000000000000000     00000000                                                                                                                        000000000000000000
F0010000009544100003000080202350700042505000000000000000000201612100002001CONNY DE LA COSTA SAS                             C000000000050000000000000000000000100010010000000000000000000000F0010000009544100320161210000101 00000000000000000000000000000000000000000000000000000000000000000000000000000000000000000000000000000000000000000N 00000000000NCONT   00    00000000000          00000000000000000000000000000000000000000000 000000000000000A000000000000000000000000000000000000000000000 000000000000000000000000000000000000000     00000000                                                                                                                        000000000000000000
F0010000009544100004000080202350700023658300000000000000000201612100002001CONNY DE LA COSTA SAS                             C000000000006800000000000000000000100010010000000000000000000000F0010000009544100420161210000101 00000000000000000000000000000000000000000000000000000000000000000000000000000000000000000000000000000000000000000N 00000000000NCONT   00    00000000000          00000000000000000000000000000000000000000000 000000000000000A000000000000000000000000000000000000000000000 000000000000000000000000000000000000000     00000000                                                                                                                        000000000000000000
F0010000009544100005000080202350700013552100000000000000000201612100002001CONNY DE LA COSTA SAS                             D000000000006800000000000000000000100010010000000000000000000000F0010000009544100520161210000101 00000000000000000000000000000000000000000000000000000000000000000000000000000000000000000000000000000000000000000N 00000000000NCONT   00    00000000000          00000000000000000000000000000000000000000000 000000000000000A000000000000000000000000000000000000000000000 000000000000000000000000000000000000000     00000000                                                                                                                        000000000000000000
F0010000009544200001000000742399700011050500000000000000000201612100002001CACHARRERIA EL NUEVO CHADID                       D000000002300000000000000000000000100010010000000000000000000000F0010000009544200120161210000101 00000000000000000000000000000000000000000000000000000000000000000000000000000000000000000000000000000000000000000N 00000000000NCONT   00    00000000000          00000000000000000000000000000000000000000000 000000000000000A000000000000000000000000000000000000000000000 000000000000000000000000000000000000000     00000000                                                                                                                        000000000000000000
F0010000009544200002000000742399700041450500000000000000000201612100002001CACHARRERIA EL NUEVO CHADID                       C000000001700000000000000000000000100010010000000000000000000000F0010000009544200220161210000101 00000000000000000000000000000000000000000000000000000000000000000000000000000000000000000000000000000000000000000N 00000000000NCONT   00    00000000000          00000000000000000000000000000000000000000000 000000000000000A000000000000000000000000000000000000000000000 000000000000000000000000000000000000000     00000000                                                                                                                        000000000000000000
F0010000009544200003000000742399700042505000000000000000000201612100002001CACHARRERIA EL NUEVO CHADID                       C000000000600000000000000000000000100010010000000000000000000000F0010000009544200320161210000101 00000000000000000000000000000000000000000000000000000000000000000000000000000000000000000000000000000000000000000N 00000000000NCONT   00    00000000000          00000000000000000000000000000000000000000000 000000000000000A000000000000000000000000000000000000000000000 000000000000000000000000000000000000000     00000000                                                                                                                        000000000000000000
F0010000009544200004000000742399700023658300000000000000000201612100002001CACHARRERIA EL NUEVO CHADID                       C000000000013600000000000000000000100010010000000000000000000000F0010000009544200420161210000101 00000000000000000000000000000000000000000000000000000000000000000000000000000000000000000000000000000000000000000N 00000000000NCONT   00    00000000000          00000000000000000000000000000000000000000000 000000000000000A000000000000000000000000000000000000000000000 000000000000000000000000000000000000000     00000000                                                                                                                        000000000000000000
F0010000009544200005000000742399700013552100000000000000000201612100002001CACHARRERIA EL NUEVO CHADID                       D000000000013600000000000000000000100010010000000000000000000000F0010000009544200520161210000101 00000000000000000000000000000000000000000000000000000000000000000000000000000000000000000000000000000000000000000N 00000000000NCONT   00    00000000000          00000000000000000000000000000000000000000000 000000000000000A000000000000000000000000000000000000000000000 000000000000000000000000000000000000000     00000000                                                                                                                        000000000000000000
F0010000009544300001000002243710500011050500000000000000000201612100002001DARIO CABARCAS                                    D000000005000000000000000000000000100010010000000000000000000000F0010000009544300120161210000101 00000000000000000000000000000000000000000000000000000000000000000000000000000000000000000000000000000000000000000N 00000000000NCONT   00    00000000000          00000000000000000000000000000000000000000000 000000000000000A000000000000000000000000000000000000000000000 000000000000000000000000000000000000000     00000000                                                                                                                        000000000000000000
F0010000009544300002000002243710500041450500000000000000000201612100002001DARIO CABARCAS                                    C000000004000000000000000000000000100010010000000000000000000000F0010000009544300220161210000101 00000000000000000000000000000000000000000000000000000000000000000000000000000000000000000000000000000000000000000N 00000000000NCONT   00    00000000000          00000000000000000000000000000000000000000000 000000000000000A000000000000000000000000000000000000000000000 000000000000000000000000000000000000000     00000000                                                                                                                        000000000000000000
F0010000009544300003000002243710500042505000000000000000000201612100002001DARIO CABARCAS                                    C000000001000000000000000000000000100010010000000000000000000000F0010000009544300320161210000101 00000000000000000000000000000000000000000000000000000000000000000000000000000000000000000000000000000000000000000N 00000000000NCONT   00    00000000000          00000000000000000000000000000000000000000000 000000000000000A000000000000000000000000000000000000000000000 000000000000000000000000000000000000000     00000000                                                                                                                        000000000000000000
F0010000009544300004000002243710500023658300000000000000000201612100002001DARIO CABARCAS                                    C000000000032000000000000000000000100010010000000000000000000000F0010000009544300420161210000101 00000000000000000000000000000000000000000000000000000000000000000000000000000000000000000000000000000000000000000N 00000000000NCONT   00    00000000000          00000000000000000000000000000000000000000000 000000000000000A000000000000000000000000000000000000000000000 000000000000000000000000000000000000000     00000000                                                                                                                        000000000000000000
F0010000009544300005000002243710500013552100000000000000000201612100002001DARIO CABARCAS                                    D000000000032000000000000000000000100010010000000000000000000000F0010000009544300520161210000101 00000000000000000000000000000000000000000000000000000000000000000000000000000000000000000000000000000000000000000N 00000000000NCONT   00    00000000000          00000000000000000000000000000000000000000000 000000000000000A000000000000000000000000000000000000000000000 000000000000000000000000000000000000000     00000000                                                                                                                        000000000000000000
F0010000009544400001000090072516300011050500000000000000000201612100002001COM. GARCIA Y MELENDEZ                            D000000004100000000000000000000000100010010000000000000000000000F0010000009544400120161210000101 00000000000000000000000000000000000000000000000000000000000000000000000000000000000000000000000000000000000000000N 00000000000NCONT   00    00000000000          00000000000000000000000000000000000000000000 000000000000000A000000000000000000000000000000000000000000000 000000000000000000000000000000000000000     00000000                                                                                                                        000000000000000000
F0010000009544400002000090072516300041450500000000000000000201612100002001COM. GARCIA Y MELENDEZ                            C000000004000000000000000000000000100010010000000000000000000000F0010000009544400220161210000101 00000000000000000000000000000000000000000000000000000000000000000000000000000000000000000000000000000000000000000N 00000000000NCONT   00    00000000000          00000000000000000000000000000000000000000000 000000000000000A000000000000000000000000000000000000000000000 000000000000000000000000000000000000000     00000000                                                                                                                        000000000000000000
F0010000009544400003000090072516300042505000000000000000000201612100002001COM. GARCIA Y MELENDEZ                            C000000000100000000000000000000000100010010000000000000000000000F0010000009544400320161210000101 00000000000000000000000000000000000000000000000000000000000000000000000000000000000000000000000000000000000000000N 00000000000NCONT   00    00000000000          00000000000000000000000000000000000000000000 000000000000000A000000000000000000000000000000000000000000000 000000000000000000000000000000000000000     00000000                                                                                                                        000000000000000000
F0010000009544400004000090072516300023658300000000000000000201612100002001COM. GARCIA Y MELENDEZ                            C000000000032000000000000000000000100010010000000000000000000000F0010000009544400420161210000101 00000000000000000000000000000000000000000000000000000000000000000000000000000000000000000000000000000000000000000N 00000000000NCONT   00    00000000000          00000000000000000000000000000000000000000000 000000000000000A000000000000000000000000000000000000000000000 000000000000000000000000000000000000000     00000000                                                                                                                        000000000000000000
F0010000009544400005000090072516300013552100000000000000000201612100002001COM. GARCIA Y MELENDEZ                            D000000000032000000000000000000000100010010000000000000000000000F0010000009544400520161210000101 00000000000000000000000000000000000000000000000000000000000000000000000000000000000000000000000000000000000000000N 00000000000NCONT   00    00000000000          00000000000000000000000000000000000000000000 000000000000000A000000000000000000000000000000000000000000000 000000000000000000000000000000000000000     00000000                                                                                                                        000000000000000000
F0010000009544500001000000869402400011050500000000000000000201612100002001ISRAEL MANGA                                      D000000002350000000000000000000000100010010000000000000000000000F0010000009544500120161210000101 00000000000000000000000000000000000000000000000000000000000000000000000000000000000000000000000000000000000000000N 00000000000NCONT   00    00000000000          00000000000000000000000000000000000000000000 000000000000000A000000000000000000000000000000000000000000000 000000000000000000000000000000000000000     00000000                                                                                                                        000000000000000000
F0010000009544500002000000869402400041450500000000000000000201612100002001ISRAEL MANGA                                      C000000001800000000000000000000000100010010000000000000000000000F0010000009544500220161210000101 00000000000000000000000000000000000000000000000000000000000000000000000000000000000000000000000000000000000000000N 00000000000NCONT   00    00000000000          00000000000000000000000000000000000000000000 000000000000000A000000000000000000000000000000000000000000000 000000000000000000000000000000000000000     00000000                                                                                                                        000000000000000000
F0010000009544500003000000869402400042505000000000000000000201612100002001ISRAEL MANGA                                      C000000000550000000000000000000000100010010000000000000000000000F0010000009544500320161210000101 00000000000000000000000000000000000000000000000000000000000000000000000000000000000000000000000000000000000000000N 00000000000NCONT   00    00000000000          00000000000000000000000000000000000000000000 000000000000000A000000000000000000000000000000000000000000000 000000000000000000000000000000000000000     00000000                                                                                                                        000000000000000000
F0010000009544500004000000869402400023658300000000000000000201612100002001ISRAEL MANGA                                      C000000000014400000000000000000000100010010000000000000000000000F0010000009544500420161210000101 00000000000000000000000000000000000000000000000000000000000000000000000000000000000000000000000000000000000000000N 00000000000NCONT   00    00000000000          00000000000000000000000000000000000000000000 000000000000000A000000000000000000000000000000000000000000000 000000000000000000000000000000000000000     00000000                                                                                                                        000000000000000000
F0010000009544500005000000869402400013552100000000000000000201612100002001ISRAEL MANGA                                      D000000000014400000000000000000000100010010000000000000000000000F0010000009544500520161210000101 00000000000000000000000000000000000000000000000000000000000000000000000000000000000000000000000000000000000000000N 00000000000NCONT   00    00000000000          00000000000000000000000000000000000000000000 000000000000000A000000000000000000000000000000000000000000000 000000000000000000000000000000000000000     00000000                                                                                                                        000000000000000000
F0010000009544600001000090037350200011050500000000000000000201612100002001JIMAR C Y J LTDA                                  D000000006000000000000000000000000100010010000000000000000000000F0010000009544600120161210000101 00000000000000000000000000000000000000000000000000000000000000000000000000000000000000000000000000000000000000000N 00000000000NCONT   00    00000000000          00000000000000000000000000000000000000000000 000000000000000A000000000000000000000000000000000000000000000 000000000000000000000000000000000000000     00000000                                                                                                                        000000000000000000
F0010000009544600002000090037350200041450500000000000000000201612100002001JIMAR C Y J LTDA                                  C000000005400000000000000000000000100010010000000000000000000000F0010000009544600220161210000101 00000000000000000000000000000000000000000000000000000000000000000000000000000000000000000000000000000000000000000N 00000000000NCONT   00    00000000000          00000000000000000000000000000000000000000000 000000000000000A000000000000000000000000000000000000000000000 000000000000000000000000000000000000000     00000000                                                                                                                        000000000000000000
F0010000009544600003000090037350200042505000000000000000000201612100002001JIMAR C Y J LTDA                                  C000000000600000000000000000000000100010010000000000000000000000F0010000009544600320161210000101 00000000000000000000000000000000000000000000000000000000000000000000000000000000000000000000000000000000000000000N 00000000000NCONT   00    00000000000          00000000000000000000000000000000000000000000 000000000000000A000000000000000000000000000000000000000000000 000000000000000000000000000000000000000     00000000                                                                                                                        000000000000000000
F0010000009544600004000090037350200023658300000000000000000201612100002001JIMAR C Y J LTDA                                  C000000000043200000000000000000000100010010000000000000000000000F0010000009544600420161210000101 00000000000000000000000000000000000000000000000000000000000000000000000000000000000000000000000000000000000000000N 00000000000NCONT   00    00000000000          00000000000000000000000000000000000000000000 000000000000000A000000000000000000000000000000000000000000000 000000000000000000000000000000000000000     00000000                                                                                                                        000000000000000000
F0010000009544600005000090037350200013552100000000000000000201612100002001JIMAR C Y J LTDA                                  D000000000043200000000000000000000100010010000000000000000000000F0010000009544600520161210000101 00000000000000000000000000000000000000000000000000000000000000000000000000000000000000000000000000000000000000000N 00000000000NCONT   00    00000000000          00000000000000000000000000000000000000000000 000000000000000A000000000000000000000000000000000000000000000 000000000000000000000000000000000000000     00000000                                                                                                                        000000000000000000
F0010000009544700001000090034602400011050500000000000000000201612100002001PRODUCTOS NACIONALES PARAFINICOS LA CUSTODIA S.A.SD000000001050000000000000000000000100010010000000000000000000000F0010000009544700120161210000101 00000000000000000000000000000000000000000000000000000000000000000000000000000000000000000000000000000000000000000N 00000000000NCONT   00    00000000000          00000000000000000000000000000000000000000000 000000000000000A000000000000000000000000000000000000000000000 000000000000000000000000000000000000000     00000000                                                                                                                        000000000000000000
F0010000009544700002000090034602400041450500000000000000000201612100002001PRODUCTOS NACIONALES PARAFINICOS LA CUSTODIA S.A.SC000000000950000000000000000000000100010010000000000000000000000F0010000009544700220161210000101 00000000000000000000000000000000000000000000000000000000000000000000000000000000000000000000000000000000000000000N 00000000000NCONT   00    00000000000          00000000000000000000000000000000000000000000 000000000000000A000000000000000000000000000000000000000000000 000000000000000000000000000000000000000     00000000                                                                                                                        000000000000000000
F0010000009544700003000090034602400042505000000000000000000201612100002001PRODUCTOS NACIONALES PARAFINICOS LA CUSTODIA S.A.SC000000000100000000000000000000000100010010000000000000000000000F0010000009544700320161210000101 00000000000000000000000000000000000000000000000000000000000000000000000000000000000000000000000000000000000000000N 00000000000NCONT   00    00000000000          00000000000000000000000000000000000000000000 000000000000000A000000000000000000000000000000000000000000000 000000000000000000000000000000000000000     00000000                                                                                                                        000000000000000000
F0010000009544700004000090034602400023658300000000000000000201612100002001PRODUCTOS NACIONALES PARAFINICOS LA CUSTODIA S.A.SC000000000007600000000000000000000100010010000000000000000000000F0010000009544700420161210000101 00000000000000000000000000000000000000000000000000000000000000000000000000000000000000000000000000000000000000000N 00000000000NCONT   00    00000000000          00000000000000000000000000000000000000000000 000000000000000A000000000000000000000000000000000000000000000 000000000000000000000000000000000000000     00000000                                                                                                                        000000000000000000
F0010000009544700005000090034602400013552100000000000000000201612100002001PRODUCTOS NACIONALES PARAFINICOS LA CUSTODIA S.A.SD000000000007600000000000000000000100010010000000000000000000000F0010000009544700520161210000101 00000000000000000000000000000000000000000000000000000000000000000000000000000000000000000000000000000000000000000N 00000000000NCONT   00    00000000000          00000000000000000000000000000000000000000000 000000000000000A000000000000000000000000000000000000000000000 000000000000000000000000000000000000000     00000000                                                                                                                        000000000000000000
F0010000009544800001000108516716600011050500000000000000000201612100002001JUAN ESTEBAN RUIDIAZ MARTINEZ                     D000000005000000000000000000000000100010010000000000000000000000F0010000009544800120161210000101 00000000000000000000000000000000000000000000000000000000000000000000000000000000000000000000000000000000000000000N 00000000000NCONT   00    00000000000          00000000000000000000000000000000000000000000 000000000000000A000000000000000000000000000000000000000000000 000000000000000000000000000000000000000     00000000                                                                                                                        000000000000000000
F0010000009544800002000108516716600041450500000000000000000201612100002001JUAN ESTEBAN RUIDIAZ MARTINEZ                     C000000004000000000000000000000000100010010000000000000000000000F0010000009544800220161210000101 00000000000000000000000000000000000000000000000000000000000000000000000000000000000000000000000000000000000000000N 00000000000NCONT   00    00000000000          00000000000000000000000000000000000000000000 000000000000000A000000000000000000000000000000000000000000000 000000000000000000000000000000000000000     00000000                                                                                                                        000000000000000000
F0010000009544800003000108516716600042505000000000000000000201612100002001JUAN ESTEBAN RUIDIAZ MARTINEZ                     C000000001000000000000000000000000100010010000000000000000000000F0010000009544800320161210000101 00000000000000000000000000000000000000000000000000000000000000000000000000000000000000000000000000000000000000000N 00000000000NCONT   00    00000000000          00000000000000000000000000000000000000000000 000000000000000A000000000000000000000000000000000000000000000 000000000000000000000000000000000000000     00000000                                                                                                                        000000000000000000
F0010000009544800004000108516716600023658300000000000000000201612100002001JUAN ESTEBAN RUIDIAZ MARTINEZ                     C000000000032000000000000000000000100010010000000000000000000000F0010000009544800420161210000101 00000000000000000000000000000000000000000000000000000000000000000000000000000000000000000000000000000000000000000N 00000000000NCONT   00    00000000000          00000000000000000000000000000000000000000000 000000000000000A000000000000000000000000000000000000000000000 000000000000000000000000000000000000000     00000000                                                                                                                        000000000000000000
F0010000009544800005000108516716600013552100000000000000000201612100002001JUAN ESTEBAN RUIDIAZ MARTINEZ                     D000000000032000000000000000000000100010010000000000000000000000F0010000009544800520161210000101 00000000000000000000000000000000000000000000000000000000000000000000000000000000000000000000000000000000000000000N 00000000000NCONT   00    00000000000          00000000000000000000000000000000000000000000 000000000000000A000000000000000000000000000000000000000000000 000000000000000000000000000000000000000     00000000                                                                                                                        000000000000000000
