F0010000009702000001000007016511700011050500000000000000000201701250002001YEISON CASTAÑO                                   D000000001800000000000000000000000100010010000000000000000000000F0010000009702000120170125000101 00000000000000000000000000000000000000000000000000000000000000000000000000000000000000000000000000000000000000000N 00000000000NCONT   00    00000000000          00000000000000000000000000000000000000000000 000000000000000A000000000000000000000000000000000000000000000 000000000000000000000000000000000000000     00000000                                                                                                                        000000000000000000
F0010000009702000002000007016511700041450500000000000000000201701250002001YEISON CASTAÑO                                   C000000001700000000000000000000000100010010000000000000000000000F0010000009702000220170125000101 00000000000000000000000000000000000000000000000000000000000000000000000000000000000000000000000000000000000000000N 00000000000NCONT   00    00000000000          00000000000000000000000000000000000000000000 000000000000000A000000000000000000000000000000000000000000000 000000000000000000000000000000000000000     00000000                                                                                                                        000000000000000000
F0010000009702000003000007016511700042505000000000000000000201701250002001YEISON CASTAÑO                                   C000000000100000000000000000000000100010010000000000000000000000F0010000009702000320170125000101 00000000000000000000000000000000000000000000000000000000000000000000000000000000000000000000000000000000000000000N 00000000000NCONT   00    00000000000          00000000000000000000000000000000000000000000 000000000000000A000000000000000000000000000000000000000000000 000000000000000000000000000000000000000     00000000                                                                                                                        000000000000000000
F0010000009702000004000007016511700023658300000000000000000201701250002001YEISON CASTAÑO                                   C000000000013600000000000000000000100010010000000000000000000000F0010000009702000420170125000101 00000000000000000000000000000000000000000000000000000000000000000000000000000000000000000000000000000000000000000N 00000000000NCONT   00    00000000000          00000000000000000000000000000000000000000000 000000000000000A000000000000000000000000000000000000000000000 000000000000000000000000000000000000000     00000000                                                                                                                        000000000000000000
F0010000009702000005000007016511700013552100000000000000000201701250002001YEISON CASTAÑO                                   D000000000013600000000000000000000100010010000000000000000000000F0010000009702000520170125000101 00000000000000000000000000000000000000000000000000000000000000000000000000000000000000000000000000000000000000000N 00000000000NCONT   00    00000000000          00000000000000000000000000000000000000000000 000000000000000A000000000000000000000000000000000000000000000 000000000000000000000000000000000000000     00000000                                                                                                                        000000000000000000
F0010000009702100001000114315317000011050500000000000000000201701250002001CRISTIAN ANDRES FORERO GUTIERREZ                  D000000001400000000000000000000000100010010000000000000000000000F0010000009702100120170125000101 00000000000000000000000000000000000000000000000000000000000000000000000000000000000000000000000000000000000000000N 00000000000NCONT   00    00000000000          00000000000000000000000000000000000000000000 000000000000000A000000000000000000000000000000000000000000000 000000000000000000000000000000000000000     00000000                                                                                                                        000000000000000000
F0010000009702100002000114315317000041450500000000000000000201701250002001CRISTIAN ANDRES FORERO GUTIERREZ                  C000000001200000000000000000000000100010010000000000000000000000F0010000009702100220170125000101 00000000000000000000000000000000000000000000000000000000000000000000000000000000000000000000000000000000000000000N 00000000000NCONT   00    00000000000          00000000000000000000000000000000000000000000 000000000000000A000000000000000000000000000000000000000000000 000000000000000000000000000000000000000     00000000                                                                                                                        000000000000000000
F0010000009702100003000114315317000042505000000000000000000201701250002001CRISTIAN ANDRES FORERO GUTIERREZ                  C000000000200000000000000000000000100010010000000000000000000000F0010000009702100320170125000101 00000000000000000000000000000000000000000000000000000000000000000000000000000000000000000000000000000000000000000N 00000000000NCONT   00    00000000000          00000000000000000000000000000000000000000000 000000000000000A000000000000000000000000000000000000000000000 000000000000000000000000000000000000000     00000000                                                                                                                        000000000000000000
F0010000009702100004000114315317000023658300000000000000000201701250002001CRISTIAN ANDRES FORERO GUTIERREZ                  C000000000009600000000000000000000100010010000000000000000000000F0010000009702100420170125000101 00000000000000000000000000000000000000000000000000000000000000000000000000000000000000000000000000000000000000000N 00000000000NCONT   00    00000000000          00000000000000000000000000000000000000000000 000000000000000A000000000000000000000000000000000000000000000 000000000000000000000000000000000000000     00000000                                                                                                                        000000000000000000
F0010000009702100005000114315317000013552100000000000000000201701250002001CRISTIAN ANDRES FORERO GUTIERREZ                  D000000000009600000000000000000000100010010000000000000000000000F0010000009702100520170125000101 00000000000000000000000000000000000000000000000000000000000000000000000000000000000000000000000000000000000000000N 00000000000NCONT   00    00000000000          00000000000000000000000000000000000000000000 000000000000000A000000000000000000000000000000000000000000000 000000000000000000000000000000000000000     00000000                                                                                                                        000000000000000000
F0010000009702200001000002245670100011050500000000000000000201701250002001YOLANDA  TOBON                                    D000000000800000000000000000000000100010010000000000000000000000F0010000009702200120170125000101 00000000000000000000000000000000000000000000000000000000000000000000000000000000000000000000000000000000000000000N 00000000000NCONT   00    00000000000          00000000000000000000000000000000000000000000 000000000000000A000000000000000000000000000000000000000000000 000000000000000000000000000000000000000     00000000                                                                                                                        000000000000000000
F0010000009702200002000002245670100041450500000000000000000201701250002001YOLANDA  TOBON                                    C000000000700000000000000000000000100010010000000000000000000000F0010000009702200220170125000101 00000000000000000000000000000000000000000000000000000000000000000000000000000000000000000000000000000000000000000N 00000000000NCONT   00    00000000000          00000000000000000000000000000000000000000000 000000000000000A000000000000000000000000000000000000000000000 000000000000000000000000000000000000000     00000000                                                                                                                        000000000000000000
F0010000009702200003000002245670100042505000000000000000000201701250002001YOLANDA  TOBON                                    C000000000100000000000000000000000100010010000000000000000000000F0010000009702200320170125000101 00000000000000000000000000000000000000000000000000000000000000000000000000000000000000000000000000000000000000000N 00000000000NCONT   00    00000000000          00000000000000000000000000000000000000000000 000000000000000A000000000000000000000000000000000000000000000 000000000000000000000000000000000000000     00000000                                                                                                                        000000000000000000
F0010000009702200004000002245670100023658300000000000000000201701250002001YOLANDA  TOBON                                    C000000000005600000000000000000000100010010000000000000000000000F0010000009702200420170125000101 00000000000000000000000000000000000000000000000000000000000000000000000000000000000000000000000000000000000000000N 00000000000NCONT   00    00000000000          00000000000000000000000000000000000000000000 000000000000000A000000000000000000000000000000000000000000000 000000000000000000000000000000000000000     00000000                                                                                                                        000000000000000000
F0010000009702200005000002245670100013552100000000000000000201701250002001YOLANDA  TOBON                                    D000000000005600000000000000000000100010010000000000000000000000F0010000009702200520170125000101 00000000000000000000000000000000000000000000000000000000000000000000000000000000000000000000000000000000000000000N 00000000000NCONT   00    00000000000          00000000000000000000000000000000000000000000 000000000000000A000000000000000000000000000000000000000000000 000000000000000000000000000000000000000     00000000                                                                                                                        000000000000000000
F0010000009702300001000003319910700011050500000000000000000201701250002001LUZ DARY JIMENEZ MARTINEZ                         D000000001100000000000000000000000100010010000000000000000000000F0010000009702300120170125000101 00000000000000000000000000000000000000000000000000000000000000000000000000000000000000000000000000000000000000000N 00000000000NCONT   00    00000000000          00000000000000000000000000000000000000000000 000000000000000A000000000000000000000000000000000000000000000 000000000000000000000000000000000000000     00000000                                                                                                                        000000000000000000
F0010000009702300002000003319910700041450500000000000000000201701250002001LUZ DARY JIMENEZ MARTINEZ                         C000000001000000000000000000000000100010010000000000000000000000F0010000009702300220170125000101 00000000000000000000000000000000000000000000000000000000000000000000000000000000000000000000000000000000000000000N 00000000000NCONT   00    00000000000          00000000000000000000000000000000000000000000 000000000000000A000000000000000000000000000000000000000000000 000000000000000000000000000000000000000     00000000                                                                                                                        000000000000000000
F0010000009702300003000003319910700042505000000000000000000201701250002001LUZ DARY JIMENEZ MARTINEZ                         C000000000100000000000000000000000100010010000000000000000000000F0010000009702300320170125000101 00000000000000000000000000000000000000000000000000000000000000000000000000000000000000000000000000000000000000000N 00000000000NCONT   00    00000000000          00000000000000000000000000000000000000000000 000000000000000A000000000000000000000000000000000000000000000 000000000000000000000000000000000000000     00000000                                                                                                                        000000000000000000
F0010000009702300004000003319910700023658300000000000000000201701250002001LUZ DARY JIMENEZ MARTINEZ                         C000000000008000000000000000000000100010010000000000000000000000F0010000009702300420170125000101 00000000000000000000000000000000000000000000000000000000000000000000000000000000000000000000000000000000000000000N 00000000000NCONT   00    00000000000          00000000000000000000000000000000000000000000 000000000000000A000000000000000000000000000000000000000000000 000000000000000000000000000000000000000     00000000                                                                                                                        000000000000000000
F0010000009702300005000003319910700013552100000000000000000201701250002001LUZ DARY JIMENEZ MARTINEZ                         D000000000008000000000000000000000100010010000000000000000000000F0010000009702300520170125000101 00000000000000000000000000000000000000000000000000000000000000000000000000000000000000000000000000000000000000000N 00000000000NCONT   00    00000000000          00000000000000000000000000000000000000000000 000000000000000A000000000000000000000000000000000000000000000 000000000000000000000000000000000000000     00000000                                                                                                                        000000000000000000
F0010000009702400001000000870907300011050500000000000000000201701250002001SURTIDOR FERRETERO                                D000000005200000000000000000000000100010010000000000000000000000F0010000009702400120170125000101 00000000000000000000000000000000000000000000000000000000000000000000000000000000000000000000000000000000000000000N 00000000000NCONT   00    00000000000          00000000000000000000000000000000000000000000 000000000000000A000000000000000000000000000000000000000000000 000000000000000000000000000000000000000     00000000                                                                                                                        000000000000000000
F0010000009702400002000000870907300041450500000000000000000201701250002001SURTIDOR FERRETERO                                C000000003400000000000000000000000100010010000000000000000000000F0010000009702400220170125000101 00000000000000000000000000000000000000000000000000000000000000000000000000000000000000000000000000000000000000000N 00000000000NCONT   00    00000000000          00000000000000000000000000000000000000000000 000000000000000A000000000000000000000000000000000000000000000 000000000000000000000000000000000000000     00000000                                                                                                                        000000000000000000
F0010000009702400003000000870907300042505000000000000000000201701250002001SURTIDOR FERRETERO                                C000000001800000000000000000000000100010010000000000000000000000F0010000009702400320170125000101 00000000000000000000000000000000000000000000000000000000000000000000000000000000000000000000000000000000000000000N 00000000000NCONT   00    00000000000          00000000000000000000000000000000000000000000 000000000000000A000000000000000000000000000000000000000000000 000000000000000000000000000000000000000     00000000                                                                                                                        000000000000000000
F0010000009702400004000000870907300023658300000000000000000201701250002001SURTIDOR FERRETERO                                C000000000027200000000000000000000100010010000000000000000000000F0010000009702400420170125000101 00000000000000000000000000000000000000000000000000000000000000000000000000000000000000000000000000000000000000000N 00000000000NCONT   00    00000000000          00000000000000000000000000000000000000000000 000000000000000A000000000000000000000000000000000000000000000 000000000000000000000000000000000000000     00000000                                                                                                                        000000000000000000
F0010000009702400005000000870907300013552100000000000000000201701250002001SURTIDOR FERRETERO                                D000000000027200000000000000000000100010010000000000000000000000F0010000009702400520170125000101 00000000000000000000000000000000000000000000000000000000000000000000000000000000000000000000000000000000000000000N 00000000000NCONT   00    00000000000          00000000000000000000000000000000000000000000 000000000000000A000000000000000000000000000000000000000000000 000000000000000000000000000000000000000     00000000                                                                                                                        000000000000000000
F0010000009702500001000000870907300011050500000000000000000201701250002001SURTIDOR FERRETERO                                D000000004700000000000000000000000100010010000000000000000000000F0010000009702500120170125000101 00000000000000000000000000000000000000000000000000000000000000000000000000000000000000000000000000000000000000000N 00000000000NCONT   00    00000000000          00000000000000000000000000000000000000000000 000000000000000A000000000000000000000000000000000000000000000 000000000000000000000000000000000000000     00000000                                                                                                                        000000000000000000
F0010000009702500002000000870907300041450500000000000000000201701250002001SURTIDOR FERRETERO                                C000000003400000000000000000000000100010010000000000000000000000F0010000009702500220170125000101 00000000000000000000000000000000000000000000000000000000000000000000000000000000000000000000000000000000000000000N 00000000000NCONT   00    00000000000          00000000000000000000000000000000000000000000 000000000000000A000000000000000000000000000000000000000000000 000000000000000000000000000000000000000     00000000                                                                                                                        000000000000000000
F0010000009702500003000000870907300042505000000000000000000201701250002001SURTIDOR FERRETERO                                C000000001300000000000000000000000100010010000000000000000000000F0010000009702500320170125000101 00000000000000000000000000000000000000000000000000000000000000000000000000000000000000000000000000000000000000000N 00000000000NCONT   00    00000000000          00000000000000000000000000000000000000000000 000000000000000A000000000000000000000000000000000000000000000 000000000000000000000000000000000000000     00000000                                                                                                                        000000000000000000
F0010000009702500004000000870907300023658300000000000000000201701250002001SURTIDOR FERRETERO                                C000000000027200000000000000000000100010010000000000000000000000F0010000009702500420170125000101 00000000000000000000000000000000000000000000000000000000000000000000000000000000000000000000000000000000000000000N 00000000000NCONT   00    00000000000          00000000000000000000000000000000000000000000 000000000000000A000000000000000000000000000000000000000000000 000000000000000000000000000000000000000     00000000                                                                                                                        000000000000000000
F0010000009702500005000000870907300013552100000000000000000201701250002001SURTIDOR FERRETERO                                D000000000027200000000000000000000100010010000000000000000000000F0010000009702500520170125000101 00000000000000000000000000000000000000000000000000000000000000000000000000000000000000000000000000000000000000000N 00000000000NCONT   00    00000000000          00000000000000000000000000000000000000000000 000000000000000A000000000000000000000000000000000000000000000 000000000000000000000000000000000000000     00000000                                                                                                                        000000000000000000
F0010000009702600001000000870907300011050500000000000000000201701250002001SURTIDOR FERRETERO                                D000000007900000000000000000000000100010010000000000000000000000F0010000009702600120170125000101 00000000000000000000000000000000000000000000000000000000000000000000000000000000000000000000000000000000000000000N 00000000000NCONT   00    00000000000          00000000000000000000000000000000000000000000 000000000000000A000000000000000000000000000000000000000000000 000000000000000000000000000000000000000     00000000                                                                                                                        000000000000000000
F0010000009702600002000000870907300041450500000000000000000201701250002001SURTIDOR FERRETERO                                C000000004200000000000000000000000100010010000000000000000000000F0010000009702600220170125000101 00000000000000000000000000000000000000000000000000000000000000000000000000000000000000000000000000000000000000000N 00000000000NCONT   00    00000000000          00000000000000000000000000000000000000000000 000000000000000A000000000000000000000000000000000000000000000 000000000000000000000000000000000000000     00000000                                                                                                                        000000000000000000
F0010000009702600003000000870907300042505000000000000000000201701250002001SURTIDOR FERRETERO                                C000000003700000000000000000000000100010010000000000000000000000F0010000009702600320170125000101 00000000000000000000000000000000000000000000000000000000000000000000000000000000000000000000000000000000000000000N 00000000000NCONT   00    00000000000          00000000000000000000000000000000000000000000 000000000000000A000000000000000000000000000000000000000000000 000000000000000000000000000000000000000     00000000                                                                                                                        000000000000000000
F0010000009702600004000000870907300023658300000000000000000201701250002001SURTIDOR FERRETERO                                C000000000033600000000000000000000100010010000000000000000000000F0010000009702600420170125000101 00000000000000000000000000000000000000000000000000000000000000000000000000000000000000000000000000000000000000000N 00000000000NCONT   00    00000000000          00000000000000000000000000000000000000000000 000000000000000A000000000000000000000000000000000000000000000 000000000000000000000000000000000000000     00000000                                                                                                                        000000000000000000
F0010000009702600005000000870907300013552100000000000000000201701250002001SURTIDOR FERRETERO                                D000000000033600000000000000000000100010010000000000000000000000F0010000009702600520170125000101 00000000000000000000000000000000000000000000000000000000000000000000000000000000000000000000000000000000000000000N 00000000000NCONT   00    00000000000          00000000000000000000000000000000000000000000 000000000000000A000000000000000000000000000000000000000000000 000000000000000000000000000000000000000     00000000                                                                                                                        000000000000000000
F0010000009702700001000080201703900011050500000000000000000201701250002001MUNDIAL CHEMICAL LTDA                             D000000001054000000000000000000000100010010000000000000000000000F0010000009702700120170125000101 00000000000000000000000000000000000000000000000000000000000000000000000000000000000000000000000000000000000000000N 00000000000NCONT   00    00000000000          00000000000000000000000000000000000000000000 000000000000000A000000000000000000000000000000000000000000000 000000000000000000000000000000000000000     00000000                                                                                                                        000000000000000000
F0010000009702700002000080201703900041450500000000000000000201701250002001MUNDIAL CHEMICAL LTDA                             C000000000910000000000000000000000100010010000000000000000000000F0010000009702700220170125000101 00000000000000000000000000000000000000000000000000000000000000000000000000000000000000000000000000000000000000000N 00000000000NCONT   00    00000000000          00000000000000000000000000000000000000000000 000000000000000A000000000000000000000000000000000000000000000 000000000000000000000000000000000000000     00000000                                                                                                                        000000000000000000
F0010000009702700003000080201703900042505000000000000000000201701250002001MUNDIAL CHEMICAL LTDA                             C000000000144000000000000000000000100010010000000000000000000000F0010000009702700320170125000101 00000000000000000000000000000000000000000000000000000000000000000000000000000000000000000000000000000000000000000N 00000000000NCONT   00    00000000000          00000000000000000000000000000000000000000000 000000000000000A000000000000000000000000000000000000000000000 000000000000000000000000000000000000000     00000000                                                                                                                        000000000000000000
F0010000009702700004000080201703900023658300000000000000000201701250002001MUNDIAL CHEMICAL LTDA                             C000000000007300000000000000000000100010010000000000000000000000F0010000009702700420170125000101 00000000000000000000000000000000000000000000000000000000000000000000000000000000000000000000000000000000000000000N 00000000000NCONT   00    00000000000          00000000000000000000000000000000000000000000 000000000000000A000000000000000000000000000000000000000000000 000000000000000000000000000000000000000     00000000                                                                                                                        000000000000000000
F0010000009702700005000080201703900013552100000000000000000201701250002001MUNDIAL CHEMICAL LTDA                             D000000000007300000000000000000000100010010000000000000000000000F0010000009702700520170125000101 00000000000000000000000000000000000000000000000000000000000000000000000000000000000000000000000000000000000000000N 00000000000NCONT   00    00000000000          00000000000000000000000000000000000000000000 000000000000000A000000000000000000000000000000000000000000000 000000000000000000000000000000000000000     00000000                                                                                                                        000000000000000000
F0010000009702800001000080002353300011050500000000000000000201701250002001RUMATEX DE COLOMBIA                               D000000009500000000000000000000000100010010000000000000000000000F0010000009702800120170125000101 00000000000000000000000000000000000000000000000000000000000000000000000000000000000000000000000000000000000000000N 00000000000NCONT   00    00000000000          00000000000000000000000000000000000000000000 000000000000000A000000000000000000000000000000000000000000000 000000000000000000000000000000000000000     00000000                                                                                                                        000000000000000000
F0010000009702800002000080002353300041450500000000000000000201701250002001RUMATEX DE COLOMBIA                               C000000007500000000000000000000000100010010000000000000000000000F0010000009702800220170125000101 00000000000000000000000000000000000000000000000000000000000000000000000000000000000000000000000000000000000000000N 00000000000NCONT   00    00000000000          00000000000000000000000000000000000000000000 000000000000000A000000000000000000000000000000000000000000000 000000000000000000000000000000000000000     00000000                                                                                                                        000000000000000000
F0010000009702800003000080002353300042505000000000000000000201701250002001RUMATEX DE COLOMBIA                               C000000002000000000000000000000000100010010000000000000000000000F0010000009702800320170125000101 00000000000000000000000000000000000000000000000000000000000000000000000000000000000000000000000000000000000000000N 00000000000NCONT   00    00000000000          00000000000000000000000000000000000000000000 000000000000000A000000000000000000000000000000000000000000000 000000000000000000000000000000000000000     00000000                                                                                                                        000000000000000000
F0010000009702800004000080002353300023658300000000000000000201701250002001RUMATEX DE COLOMBIA                               C000000000060000000000000000000000100010010000000000000000000000F0010000009702800420170125000101 00000000000000000000000000000000000000000000000000000000000000000000000000000000000000000000000000000000000000000N 00000000000NCONT   00    00000000000          00000000000000000000000000000000000000000000 000000000000000A000000000000000000000000000000000000000000000 000000000000000000000000000000000000000     00000000                                                                                                                        000000000000000000
F0010000009702800005000080002353300013552100000000000000000201701250002001RUMATEX DE COLOMBIA                               D000000000060000000000000000000000100010010000000000000000000000F0010000009702800520170125000101 00000000000000000000000000000000000000000000000000000000000000000000000000000000000000000000000000000000000000000N 00000000000NCONT   00    00000000000          00000000000000000000000000000000000000000000 000000000000000A000000000000000000000000000000000000000000000 000000000000000000000000000000000000000     00000000                                                                                                                        000000000000000000
F0010000009702900001000090087846000011050500000000000000000201701250002001INTERCOMERCIAL DL SAS                             D000000002600000000000000000000000100010010000000000000000000000F0010000009702900120170125000101 00000000000000000000000000000000000000000000000000000000000000000000000000000000000000000000000000000000000000000N 00000000000NCONT   00    00000000000          00000000000000000000000000000000000000000000 000000000000000A000000000000000000000000000000000000000000000 000000000000000000000000000000000000000     00000000                                                                                                                        000000000000000000
F0010000009702900002000090087846000041450500000000000000000201701250002001INTERCOMERCIAL DL SAS                             C000000002500000000000000000000000100010010000000000000000000000F0010000009702900220170125000101 00000000000000000000000000000000000000000000000000000000000000000000000000000000000000000000000000000000000000000N 00000000000NCONT   00    00000000000          00000000000000000000000000000000000000000000 000000000000000A000000000000000000000000000000000000000000000 000000000000000000000000000000000000000     00000000                                                                                                                        000000000000000000
F0010000009702900003000090087846000042505000000000000000000201701250002001INTERCOMERCIAL DL SAS                             C000000000100000000000000000000000100010010000000000000000000000F0010000009702900320170125000101 00000000000000000000000000000000000000000000000000000000000000000000000000000000000000000000000000000000000000000N 00000000000NCONT   00    00000000000          00000000000000000000000000000000000000000000 000000000000000A000000000000000000000000000000000000000000000 000000000000000000000000000000000000000     00000000                                                                                                                        000000000000000000
F0010000009702900004000090087846000023658300000000000000000201701250002001INTERCOMERCIAL DL SAS                             C000000000020000000000000000000000100010010000000000000000000000F0010000009702900420170125000101 00000000000000000000000000000000000000000000000000000000000000000000000000000000000000000000000000000000000000000N 00000000000NCONT   00    00000000000          00000000000000000000000000000000000000000000 000000000000000A000000000000000000000000000000000000000000000 000000000000000000000000000000000000000     00000000                                                                                                                        000000000000000000
F0010000009702900005000090087846000013552100000000000000000201701250002001INTERCOMERCIAL DL SAS                             D000000000020000000000000000000000100010010000000000000000000000F0010000009702900520170125000101 00000000000000000000000000000000000000000000000000000000000000000000000000000000000000000000000000000000000000000N 00000000000NCONT   00    00000000000          00000000000000000000000000000000000000000000 000000000000000A000000000000000000000000000000000000000000000 000000000000000000000000000000000000000     00000000                                                                                                                        000000000000000000
F0010000009703000001000007904689600011050500000000000000000201701250002001VICTOR MANUEL BOCANEGRA RAMIREZ                   D000000003300000000000000000000000100010010000000000000000000000F0010000009703000120170125000101 00000000000000000000000000000000000000000000000000000000000000000000000000000000000000000000000000000000000000000N 00000000000NCONT   00    00000000000          00000000000000000000000000000000000000000000 000000000000000A000000000000000000000000000000000000000000000 000000000000000000000000000000000000000     00000000                                                                                                                        000000000000000000
F0010000009703000002000007904689600041450500000000000000000201701250002001VICTOR MANUEL BOCANEGRA RAMIREZ                   C000000003000000000000000000000000100010010000000000000000000000F0010000009703000220170125000101 00000000000000000000000000000000000000000000000000000000000000000000000000000000000000000000000000000000000000000N 00000000000NCONT   00    00000000000          00000000000000000000000000000000000000000000 000000000000000A000000000000000000000000000000000000000000000 000000000000000000000000000000000000000     00000000                                                                                                                        000000000000000000
F0010000009703000003000007904689600042505000000000000000000201701250002001VICTOR MANUEL BOCANEGRA RAMIREZ                   C000000000300000000000000000000000100010010000000000000000000000F0010000009703000320170125000101 00000000000000000000000000000000000000000000000000000000000000000000000000000000000000000000000000000000000000000N 00000000000NCONT   00    00000000000          00000000000000000000000000000000000000000000 000000000000000A000000000000000000000000000000000000000000000 000000000000000000000000000000000000000     00000000                                                                                                                        000000000000000000
F0010000009703000004000007904689600023658300000000000000000201701250002001VICTOR MANUEL BOCANEGRA RAMIREZ                   C000000000024000000000000000000000100010010000000000000000000000F0010000009703000420170125000101 00000000000000000000000000000000000000000000000000000000000000000000000000000000000000000000000000000000000000000N 00000000000NCONT   00    00000000000          00000000000000000000000000000000000000000000 000000000000000A000000000000000000000000000000000000000000000 000000000000000000000000000000000000000     00000000                                                                                                                        000000000000000000
F0010000009703000005000007904689600013552100000000000000000201701250002001VICTOR MANUEL BOCANEGRA RAMIREZ                   D000000000024000000000000000000000100010010000000000000000000000F0010000009703000520170125000101 00000000000000000000000000000000000000000000000000000000000000000000000000000000000000000000000000000000000000000N 00000000000NCONT   00    00000000000          00000000000000000000000000000000000000000000 000000000000000A000000000000000000000000000000000000000000000 000000000000000000000000000000000000000     00000000                                                                                                                        000000000000000000
F0010000009703100001000102390001700011050500000000000000000201701250002001LILIANA HERNANDEZ PINILLA                         D000000003600000000000000000000000100010010000000000000000000000F0010000009703100120170125000101 00000000000000000000000000000000000000000000000000000000000000000000000000000000000000000000000000000000000000000N 00000000000NCONT   00    00000000000          00000000000000000000000000000000000000000000 000000000000000A000000000000000000000000000000000000000000000 000000000000000000000000000000000000000     00000000                                                                                                                        000000000000000000
F0010000009703100002000102390001700041450500000000000000000201701250002001LILIANA HERNANDEZ PINILLA                         C000000002600000000000000000000000100010010000000000000000000000F0010000009703100220170125000101 00000000000000000000000000000000000000000000000000000000000000000000000000000000000000000000000000000000000000000N 00000000000NCONT   00    00000000000          00000000000000000000000000000000000000000000 000000000000000A000000000000000000000000000000000000000000000 000000000000000000000000000000000000000     00000000                                                                                                                        000000000000000000
F0010000009703100003000102390001700042505000000000000000000201701250002001LILIANA HERNANDEZ PINILLA                         C000000001000000000000000000000000100010010000000000000000000000F0010000009703100320170125000101 00000000000000000000000000000000000000000000000000000000000000000000000000000000000000000000000000000000000000000N 00000000000NCONT   00    00000000000          00000000000000000000000000000000000000000000 000000000000000A000000000000000000000000000000000000000000000 000000000000000000000000000000000000000     00000000                                                                                                                        000000000000000000
F0010000009703100004000102390001700023658300000000000000000201701250002001LILIANA HERNANDEZ PINILLA                         C000000000020800000000000000000000100010010000000000000000000000F0010000009703100420170125000101 00000000000000000000000000000000000000000000000000000000000000000000000000000000000000000000000000000000000000000N 00000000000NCONT   00    00000000000          00000000000000000000000000000000000000000000 000000000000000A000000000000000000000000000000000000000000000 000000000000000000000000000000000000000     00000000                                                                                                                        000000000000000000
F0010000009703100005000102390001700013552100000000000000000201701250002001LILIANA HERNANDEZ PINILLA                         D000000000020800000000000000000000100010010000000000000000000000F0010000009703100520170125000101 00000000000000000000000000000000000000000000000000000000000000000000000000000000000000000000000000000000000000000N 00000000000NCONT   00    00000000000          00000000000000000000000000000000000000000000 000000000000000A000000000000000000000000000000000000000000000 000000000000000000000000000000000000000     00000000                                                                                                                        000000000000000000
F0010000009703200001000102390001700011050500000000000000000201701250002001LILIANA HERNANDEZ PINILLA                         D000000004500000000000000000000000100010010000000000000000000000F0010000009703200120170125000101 00000000000000000000000000000000000000000000000000000000000000000000000000000000000000000000000000000000000000000N 00000000000NCONT   00    00000000000          00000000000000000000000000000000000000000000 000000000000000A000000000000000000000000000000000000000000000 000000000000000000000000000000000000000     00000000                                                                                                                        000000000000000000
F0010000009703200002000102390001700041450500000000000000000201701250002001LILIANA HERNANDEZ PINILLA                         C000000003000000000000000000000000100010010000000000000000000000F0010000009703200220170125000101 00000000000000000000000000000000000000000000000000000000000000000000000000000000000000000000000000000000000000000N 00000000000NCONT   00    00000000000          00000000000000000000000000000000000000000000 000000000000000A000000000000000000000000000000000000000000000 000000000000000000000000000000000000000     00000000                                                                                                                        000000000000000000
F0010000009703200003000102390001700042505000000000000000000201701250002001LILIANA HERNANDEZ PINILLA                         C000000001500000000000000000000000100010010000000000000000000000F0010000009703200320170125000101 00000000000000000000000000000000000000000000000000000000000000000000000000000000000000000000000000000000000000000N 00000000000NCONT   00    00000000000          00000000000000000000000000000000000000000000 000000000000000A000000000000000000000000000000000000000000000 000000000000000000000000000000000000000     00000000                                                                                                                        000000000000000000
F0010000009703200004000102390001700023658300000000000000000201701250002001LILIANA HERNANDEZ PINILLA                         C000000000024000000000000000000000100010010000000000000000000000F0010000009703200420170125000101 00000000000000000000000000000000000000000000000000000000000000000000000000000000000000000000000000000000000000000N 00000000000NCONT   00    00000000000          00000000000000000000000000000000000000000000 000000000000000A000000000000000000000000000000000000000000000 000000000000000000000000000000000000000     00000000                                                                                                                        000000000000000000
F0010000009703200005000102390001700013552100000000000000000201701250002001LILIANA HERNANDEZ PINILLA                         D000000000024000000000000000000000100010010000000000000000000000F0010000009703200520170125000101 00000000000000000000000000000000000000000000000000000000000000000000000000000000000000000000000000000000000000000N 00000000000NCONT   00    00000000000          00000000000000000000000000000000000000000000 000000000000000A000000000000000000000000000000000000000000000 000000000000000000000000000000000000000     00000000                                                                                                                        000000000000000000
F0010000009703300001000000742399700011050500000000000000000201701250002001CACHARRERIA EL NUEVO CHADID                       D000000008500000000000000000000000100010010000000000000000000000F0010000009703300120170125000101 00000000000000000000000000000000000000000000000000000000000000000000000000000000000000000000000000000000000000000N 00000000000NCONT   00    00000000000          00000000000000000000000000000000000000000000 000000000000000A000000000000000000000000000000000000000000000 000000000000000000000000000000000000000     00000000                                                                                                                        000000000000000000
F0010000009703300002000000742399700041450500000000000000000201701250002001CACHARRERIA EL NUEVO CHADID                       C000000006500000000000000000000000100010010000000000000000000000F0010000009703300220170125000101 00000000000000000000000000000000000000000000000000000000000000000000000000000000000000000000000000000000000000000N 00000000000NCONT   00    00000000000          00000000000000000000000000000000000000000000 000000000000000A000000000000000000000000000000000000000000000 000000000000000000000000000000000000000     00000000                                                                                                                        000000000000000000
F0010000009703300003000000742399700042505000000000000000000201701250002001CACHARRERIA EL NUEVO CHADID                       C000000002000000000000000000000000100010010000000000000000000000F0010000009703300320170125000101 00000000000000000000000000000000000000000000000000000000000000000000000000000000000000000000000000000000000000000N 00000000000NCONT   00    00000000000          00000000000000000000000000000000000000000000 000000000000000A000000000000000000000000000000000000000000000 000000000000000000000000000000000000000     00000000                                                                                                                        000000000000000000
F0010000009703300004000000742399700023658300000000000000000201701250002001CACHARRERIA EL NUEVO CHADID                       C000000000052000000000000000000000100010010000000000000000000000F0010000009703300420170125000101 00000000000000000000000000000000000000000000000000000000000000000000000000000000000000000000000000000000000000000N 00000000000NCONT   00    00000000000          00000000000000000000000000000000000000000000 000000000000000A000000000000000000000000000000000000000000000 000000000000000000000000000000000000000     00000000                                                                                                                        000000000000000000
F0010000009703300005000000742399700013552100000000000000000201701250002001CACHARRERIA EL NUEVO CHADID                       D000000000052000000000000000000000100010010000000000000000000000F0010000009703300520170125000101 00000000000000000000000000000000000000000000000000000000000000000000000000000000000000000000000000000000000000000N 00000000000NCONT   00    00000000000          00000000000000000000000000000000000000000000 000000000000000A000000000000000000000000000000000000000000000 000000000000000000000000000000000000000     00000000                                                                                                                        000000000000000000
F0010000009703400001000000742399700011050500000000000000000201701250002001CACHARRERIA EL NUEVO CHADID                       D000000008800000000000000000000000100010010000000000000000000000F0010000009703400120170125000101 00000000000000000000000000000000000000000000000000000000000000000000000000000000000000000000000000000000000000000N 00000000000NCONT   00    00000000000          00000000000000000000000000000000000000000000 000000000000000A000000000000000000000000000000000000000000000 000000000000000000000000000000000000000     00000000                                                                                                                        000000000000000000
F0010000009703400002000000742399700041450500000000000000000201701250002001CACHARRERIA EL NUEVO CHADID                       C000000006500000000000000000000000100010010000000000000000000000F0010000009703400220170125000101 00000000000000000000000000000000000000000000000000000000000000000000000000000000000000000000000000000000000000000N 00000000000NCONT   00    00000000000          00000000000000000000000000000000000000000000 000000000000000A000000000000000000000000000000000000000000000 000000000000000000000000000000000000000     00000000                                                                                                                        000000000000000000
F0010000009703400003000000742399700042505000000000000000000201701250002001CACHARRERIA EL NUEVO CHADID                       C000000002300000000000000000000000100010010000000000000000000000F0010000009703400320170125000101 00000000000000000000000000000000000000000000000000000000000000000000000000000000000000000000000000000000000000000N 00000000000NCONT   00    00000000000          00000000000000000000000000000000000000000000 000000000000000A000000000000000000000000000000000000000000000 000000000000000000000000000000000000000     00000000                                                                                                                        000000000000000000
F0010000009703400004000000742399700023658300000000000000000201701250002001CACHARRERIA EL NUEVO CHADID                       C000000000052000000000000000000000100010010000000000000000000000F0010000009703400420170125000101 00000000000000000000000000000000000000000000000000000000000000000000000000000000000000000000000000000000000000000N 00000000000NCONT   00    00000000000          00000000000000000000000000000000000000000000 000000000000000A000000000000000000000000000000000000000000000 000000000000000000000000000000000000000     00000000                                                                                                                        000000000000000000
F0010000009703400005000000742399700013552100000000000000000201701250002001CACHARRERIA EL NUEVO CHADID                       D000000000052000000000000000000000100010010000000000000000000000F0010000009703400520170125000101 00000000000000000000000000000000000000000000000000000000000000000000000000000000000000000000000000000000000000000N 00000000000NCONT   00    00000000000          00000000000000000000000000000000000000000000 000000000000000A000000000000000000000000000000000000000000000 000000000000000000000000000000000000000     00000000                                                                                                                        000000000000000000
F0010000009703500001000007904689600011050500000000000000000201701250002001VICTOR MANUEL BOCANEGRA RAMIREZ                   D000000002200000000000000000000000100010010000000000000000000000F0010000009703500120170125000101 00000000000000000000000000000000000000000000000000000000000000000000000000000000000000000000000000000000000000000N 00000000000NCONT   00    00000000000          00000000000000000000000000000000000000000000 000000000000000A000000000000000000000000000000000000000000000 000000000000000000000000000000000000000     00000000                                                                                                                        000000000000000000
F0010000009703500002000007904689600041450500000000000000000201701250002001VICTOR MANUEL BOCANEGRA RAMIREZ                   C000000002000000000000000000000000100010010000000000000000000000F0010000009703500220170125000101 00000000000000000000000000000000000000000000000000000000000000000000000000000000000000000000000000000000000000000N 00000000000NCONT   00    00000000000          00000000000000000000000000000000000000000000 000000000000000A000000000000000000000000000000000000000000000 000000000000000000000000000000000000000     00000000                                                                                                                        000000000000000000
F0010000009703500003000007904689600042505000000000000000000201701250002001VICTOR MANUEL BOCANEGRA RAMIREZ                   C000000000200000000000000000000000100010010000000000000000000000F0010000009703500320170125000101 00000000000000000000000000000000000000000000000000000000000000000000000000000000000000000000000000000000000000000N 00000000000NCONT   00    00000000000          00000000000000000000000000000000000000000000 000000000000000A000000000000000000000000000000000000000000000 000000000000000000000000000000000000000     00000000                                                                                                                        000000000000000000
F0010000009703500004000007904689600023658300000000000000000201701250002001VICTOR MANUEL BOCANEGRA RAMIREZ                   C000000000016000000000000000000000100010010000000000000000000000F0010000009703500420170125000101 00000000000000000000000000000000000000000000000000000000000000000000000000000000000000000000000000000000000000000N 00000000000NCONT   00    00000000000          00000000000000000000000000000000000000000000 000000000000000A000000000000000000000000000000000000000000000 000000000000000000000000000000000000000     00000000                                                                                                                        000000000000000000
F0010000009703500005000007904689600013552100000000000000000201701250002001VICTOR MANUEL BOCANEGRA RAMIREZ                   D000000000016000000000000000000000100010010000000000000000000000F0010000009703500520170125000101 00000000000000000000000000000000000000000000000000000000000000000000000000000000000000000000000000000000000000000N 00000000000NCONT   00    00000000000          00000000000000000000000000000000000000000000 000000000000000A000000000000000000000000000000000000000000000 000000000000000000000000000000000000000     00000000                                                                                                                        000000000000000000
F0010000009703600001000090010880700011050500000000000000000201701250002001PROELECTRICAS DE BARRANQUILLA SAS                 D000000010100000000000000000000000100010010000000000000000000000F0010000009703600120170125000101 00000000000000000000000000000000000000000000000000000000000000000000000000000000000000000000000000000000000000000N 00000000000NCONT   00    00000000000          00000000000000000000000000000000000000000000 000000000000000A000000000000000000000000000000000000000000000 000000000000000000000000000000000000000     00000000                                                                                                                        000000000000000000
F0010000009703600002000090010880700041450500000000000000000201701250002001PROELECTRICAS DE BARRANQUILLA SAS                 C000000010000000000000000000000000100010010000000000000000000000F0010000009703600220170125000101 00000000000000000000000000000000000000000000000000000000000000000000000000000000000000000000000000000000000000000N 00000000000NCONT   00    00000000000          00000000000000000000000000000000000000000000 000000000000000A000000000000000000000000000000000000000000000 000000000000000000000000000000000000000     00000000                                                                                                                        000000000000000000
F0010000009703600003000090010880700042505000000000000000000201701250002001PROELECTRICAS DE BARRANQUILLA SAS                 C000000000100000000000000000000000100010010000000000000000000000F0010000009703600320170125000101 00000000000000000000000000000000000000000000000000000000000000000000000000000000000000000000000000000000000000000N 00000000000NCONT   00    00000000000          00000000000000000000000000000000000000000000 000000000000000A000000000000000000000000000000000000000000000 000000000000000000000000000000000000000     00000000                                                                                                                        000000000000000000
F0010000009703600004000090010880700023658300000000000000000201701250002001PROELECTRICAS DE BARRANQUILLA SAS                 C000000000080000000000000000000000100010010000000000000000000000F0010000009703600420170125000101 00000000000000000000000000000000000000000000000000000000000000000000000000000000000000000000000000000000000000000N 00000000000NCONT   00    00000000000          00000000000000000000000000000000000000000000 000000000000000A000000000000000000000000000000000000000000000 000000000000000000000000000000000000000     00000000                                                                                                                        000000000000000000
F0010000009703600005000090010880700013552100000000000000000201701250002001PROELECTRICAS DE BARRANQUILLA SAS                 D000000000080000000000000000000000100010010000000000000000000000F0010000009703600520170125000101 00000000000000000000000000000000000000000000000000000000000000000000000000000000000000000000000000000000000000000N 00000000000NCONT   00    00000000000          00000000000000000000000000000000000000000000 000000000000000A000000000000000000000000000000000000000000000 000000000000000000000000000000000000000     00000000                                                                                                                        000000000000000000
F0010000009703700001000090067091400011050500000000000000000201701250002001COMERCIALIZADORA ESCOBAR ORTIZ                    D000000002100000000000000000000000100010010000000000000000000000F0010000009703700120170125000101 00000000000000000000000000000000000000000000000000000000000000000000000000000000000000000000000000000000000000000N 00000000000NCONT   00    00000000000          00000000000000000000000000000000000000000000 000000000000000A000000000000000000000000000000000000000000000 000000000000000000000000000000000000000     00000000                                                                                                                        000000000000000000
F0010000009703700002000090067091400041450500000000000000000201701250002001COMERCIALIZADORA ESCOBAR ORTIZ                    C000000000700000000000000000000000100010010000000000000000000000F0010000009703700220170125000101 00000000000000000000000000000000000000000000000000000000000000000000000000000000000000000000000000000000000000000N 00000000000NCONT   00    00000000000          00000000000000000000000000000000000000000000 000000000000000A000000000000000000000000000000000000000000000 000000000000000000000000000000000000000     00000000                                                                                                                        000000000000000000
F0010000009703700003000090067091400042505000000000000000000201701250002001COMERCIALIZADORA ESCOBAR ORTIZ                    C000000001400000000000000000000000100010010000000000000000000000F0010000009703700320170125000101 00000000000000000000000000000000000000000000000000000000000000000000000000000000000000000000000000000000000000000N 00000000000NCONT   00    00000000000          00000000000000000000000000000000000000000000 000000000000000A000000000000000000000000000000000000000000000 000000000000000000000000000000000000000     00000000                                                                                                                        000000000000000000
F0010000009703700004000090067091400023658300000000000000000201701250002001COMERCIALIZADORA ESCOBAR ORTIZ                    C000000000005600000000000000000000100010010000000000000000000000F0010000009703700420170125000101 00000000000000000000000000000000000000000000000000000000000000000000000000000000000000000000000000000000000000000N 00000000000NCONT   00    00000000000          00000000000000000000000000000000000000000000 000000000000000A000000000000000000000000000000000000000000000 000000000000000000000000000000000000000     00000000                                                                                                                        000000000000000000
F0010000009703700005000090067091400013552100000000000000000201701250002001COMERCIALIZADORA ESCOBAR ORTIZ                    D000000000005600000000000000000000100010010000000000000000000000F0010000009703700520170125000101 00000000000000000000000000000000000000000000000000000000000000000000000000000000000000000000000000000000000000000N 00000000000NCONT   00    00000000000          00000000000000000000000000000000000000000000 000000000000000A000000000000000000000000000000000000000000000 000000000000000000000000000000000000000     00000000                                                                                                                        000000000000000000
F0010000009703800001000003265780700011050500000000000000000201701250002001ZUNILDA GUERRERO                                  D000000002500000000000000000000000100010010000000000000000000000F0010000009703800120170125000101 00000000000000000000000000000000000000000000000000000000000000000000000000000000000000000000000000000000000000000N 00000000000NCONT   00    00000000000          00000000000000000000000000000000000000000000 000000000000000A000000000000000000000000000000000000000000000 000000000000000000000000000000000000000     00000000                                                                                                                        000000000000000000
F0010000009703800002000003265780700041450500000000000000000201701250002001ZUNILDA GUERRERO                                  C000000002000000000000000000000000100010010000000000000000000000F0010000009703800220170125000101 00000000000000000000000000000000000000000000000000000000000000000000000000000000000000000000000000000000000000000N 00000000000NCONT   00    00000000000          00000000000000000000000000000000000000000000 000000000000000A000000000000000000000000000000000000000000000 000000000000000000000000000000000000000     00000000                                                                                                                        000000000000000000
F0010000009703800003000003265780700042505000000000000000000201701250002001ZUNILDA GUERRERO                                  C000000000500000000000000000000000100010010000000000000000000000F0010000009703800320170125000101 00000000000000000000000000000000000000000000000000000000000000000000000000000000000000000000000000000000000000000N 00000000000NCONT   00    00000000000          00000000000000000000000000000000000000000000 000000000000000A000000000000000000000000000000000000000000000 000000000000000000000000000000000000000     00000000                                                                                                                        000000000000000000
F0010000009703800004000003265780700023658300000000000000000201701250002001ZUNILDA GUERRERO                                  C000000000016000000000000000000000100010010000000000000000000000F0010000009703800420170125000101 00000000000000000000000000000000000000000000000000000000000000000000000000000000000000000000000000000000000000000N 00000000000NCONT   00    00000000000          00000000000000000000000000000000000000000000 000000000000000A000000000000000000000000000000000000000000000 000000000000000000000000000000000000000     00000000                                                                                                                        000000000000000000
F0010000009703800005000003265780700013552100000000000000000201701250002001ZUNILDA GUERRERO                                  D000000000016000000000000000000000100010010000000000000000000000F0010000009703800520170125000101 00000000000000000000000000000000000000000000000000000000000000000000000000000000000000000000000000000000000000000N 00000000000NCONT   00    00000000000          00000000000000000000000000000000000000000000 000000000000000A000000000000000000000000000000000000000000000 000000000000000000000000000000000000000     00000000                                                                                                                        000000000000000000
F0010000009703900001000003265780700011050500000000000000000201701250002001ZUNILDA GUERRERO                                  D000000001200000000000000000000000100010010000000000000000000000F0010000009703900120170125000101 00000000000000000000000000000000000000000000000000000000000000000000000000000000000000000000000000000000000000000N 00000000000NCONT   00    00000000000          00000000000000000000000000000000000000000000 000000000000000A000000000000000000000000000000000000000000000 000000000000000000000000000000000000000     00000000                                                                                                                        000000000000000000
F0010000009703900002000003265780700041450500000000000000000201701250002001ZUNILDA GUERRERO                                  C000000001000000000000000000000000100010010000000000000000000000F0010000009703900220170125000101 00000000000000000000000000000000000000000000000000000000000000000000000000000000000000000000000000000000000000000N 00000000000NCONT   00    00000000000          00000000000000000000000000000000000000000000 000000000000000A000000000000000000000000000000000000000000000 000000000000000000000000000000000000000     00000000                                                                                                                        000000000000000000
F0010000009703900003000003265780700042505000000000000000000201701250002001ZUNILDA GUERRERO                                  C000000000200000000000000000000000100010010000000000000000000000F0010000009703900320170125000101 00000000000000000000000000000000000000000000000000000000000000000000000000000000000000000000000000000000000000000N 00000000000NCONT   00    00000000000          00000000000000000000000000000000000000000000 000000000000000A000000000000000000000000000000000000000000000 000000000000000000000000000000000000000     00000000                                                                                                                        000000000000000000
F0010000009703900004000003265780700023658300000000000000000201701250002001ZUNILDA GUERRERO                                  C000000000008000000000000000000000100010010000000000000000000000F0010000009703900420170125000101 00000000000000000000000000000000000000000000000000000000000000000000000000000000000000000000000000000000000000000N 00000000000NCONT   00    00000000000          00000000000000000000000000000000000000000000 000000000000000A000000000000000000000000000000000000000000000 000000000000000000000000000000000000000     00000000                                                                                                                        000000000000000000
F0010000009703900005000003265780700013552100000000000000000201701250002001ZUNILDA GUERRERO                                  D000000000008000000000000000000000100010010000000000000000000000F0010000009703900520170125000101 00000000000000000000000000000000000000000000000000000000000000000000000000000000000000000000000000000000000000000N 00000000000NCONT   00    00000000000          00000000000000000000000000000000000000000000 000000000000000A000000000000000000000000000000000000000000000 000000000000000000000000000000000000000     00000000                                                                                                                        000000000000000000
F0010000009704000001000007213653800011050500000000000000000201701250002001VICTOR ECHAVEZ                                    D000000001500000000000000000000000100010010000000000000000000000F0010000009704000120170125000101 00000000000000000000000000000000000000000000000000000000000000000000000000000000000000000000000000000000000000000N 00000000000NCONT   00    00000000000          00000000000000000000000000000000000000000000 000000000000000A000000000000000000000000000000000000000000000 000000000000000000000000000000000000000     00000000                                                                                                                        000000000000000000
F0010000009704000002000007213653800041450500000000000000000201701250002001VICTOR ECHAVEZ                                    C000000001000000000000000000000000100010010000000000000000000000F0010000009704000220170125000101 00000000000000000000000000000000000000000000000000000000000000000000000000000000000000000000000000000000000000000N 00000000000NCONT   00    00000000000          00000000000000000000000000000000000000000000 000000000000000A000000000000000000000000000000000000000000000 000000000000000000000000000000000000000     00000000                                                                                                                        000000000000000000
F0010000009704000003000007213653800042505000000000000000000201701250002001VICTOR ECHAVEZ                                    C000000000500000000000000000000000100010010000000000000000000000F0010000009704000320170125000101 00000000000000000000000000000000000000000000000000000000000000000000000000000000000000000000000000000000000000000N 00000000000NCONT   00    00000000000          00000000000000000000000000000000000000000000 000000000000000A000000000000000000000000000000000000000000000 000000000000000000000000000000000000000     00000000                                                                                                                        000000000000000000
F0010000009704000004000007213653800023658300000000000000000201701250002001VICTOR ECHAVEZ                                    C000000000008000000000000000000000100010010000000000000000000000F0010000009704000420170125000101 00000000000000000000000000000000000000000000000000000000000000000000000000000000000000000000000000000000000000000N 00000000000NCONT   00    00000000000          00000000000000000000000000000000000000000000 000000000000000A000000000000000000000000000000000000000000000 000000000000000000000000000000000000000     00000000                                                                                                                        000000000000000000
F0010000009704000005000007213653800013552100000000000000000201701250002001VICTOR ECHAVEZ                                    D000000000008000000000000000000000100010010000000000000000000000F0010000009704000520170125000101 00000000000000000000000000000000000000000000000000000000000000000000000000000000000000000000000000000000000000000N 00000000000NCONT   00    00000000000          00000000000000000000000000000000000000000000 000000000000000A000000000000000000000000000000000000000000000 000000000000000000000000000000000000000     00000000                                                                                                                        000000000000000000
F0010000009704100001000007213653800011050500000000000000000201701250002001VICTOR ECHAVEZ                                    D000000003600000000000000000000000100010010000000000000000000000F0010000009704100120170125000101 00000000000000000000000000000000000000000000000000000000000000000000000000000000000000000000000000000000000000000N 00000000000NCONT   00    00000000000          00000000000000000000000000000000000000000000 000000000000000A000000000000000000000000000000000000000000000 000000000000000000000000000000000000000     00000000                                                                                                                        000000000000000000
F0010000009704100002000007213653800041450500000000000000000201701250002001VICTOR ECHAVEZ                                    C000000003000000000000000000000000100010010000000000000000000000F0010000009704100220170125000101 00000000000000000000000000000000000000000000000000000000000000000000000000000000000000000000000000000000000000000N 00000000000NCONT   00    00000000000          00000000000000000000000000000000000000000000 000000000000000A000000000000000000000000000000000000000000000 000000000000000000000000000000000000000     00000000                                                                                                                        000000000000000000
F0010000009704100003000007213653800042505000000000000000000201701250002001VICTOR ECHAVEZ                                    C000000000600000000000000000000000100010010000000000000000000000F0010000009704100320170125000101 00000000000000000000000000000000000000000000000000000000000000000000000000000000000000000000000000000000000000000N 00000000000NCONT   00    00000000000          00000000000000000000000000000000000000000000 000000000000000A000000000000000000000000000000000000000000000 000000000000000000000000000000000000000     00000000                                                                                                                        000000000000000000
F0010000009704100004000007213653800023658300000000000000000201701250002001VICTOR ECHAVEZ                                    C000000000024000000000000000000000100010010000000000000000000000F0010000009704100420170125000101 00000000000000000000000000000000000000000000000000000000000000000000000000000000000000000000000000000000000000000N 00000000000NCONT   00    00000000000          00000000000000000000000000000000000000000000 000000000000000A000000000000000000000000000000000000000000000 000000000000000000000000000000000000000     00000000                                                                                                                        000000000000000000
F0010000009704100005000007213653800013552100000000000000000201701250002001VICTOR ECHAVEZ                                    D000000000024000000000000000000000100010010000000000000000000000F0010000009704100520170125000101 00000000000000000000000000000000000000000000000000000000000000000000000000000000000000000000000000000000000000000N 00000000000NCONT   00    00000000000          00000000000000000000000000000000000000000000 000000000000000A000000000000000000000000000000000000000000000 000000000000000000000000000000000000000     00000000                                                                                                                        000000000000000000
F0010000009704200001000007213653800011050500000000000000000201701250002001VICTOR ECHAVEZ                                    D000000003000000000000000000000000100010010000000000000000000000F0010000009704200120170125000101 00000000000000000000000000000000000000000000000000000000000000000000000000000000000000000000000000000000000000000N 00000000000NCONT   00    00000000000          00000000000000000000000000000000000000000000 000000000000000A000000000000000000000000000000000000000000000 000000000000000000000000000000000000000     00000000                                                                                                                        000000000000000000
F0010000009704200002000007213653800041450500000000000000000201701250002001VICTOR ECHAVEZ                                    C000000002000000000000000000000000100010010000000000000000000000F0010000009704200220170125000101 00000000000000000000000000000000000000000000000000000000000000000000000000000000000000000000000000000000000000000N 00000000000NCONT   00    00000000000          00000000000000000000000000000000000000000000 000000000000000A000000000000000000000000000000000000000000000 000000000000000000000000000000000000000     00000000                                                                                                                        000000000000000000
F0010000009704200003000007213653800042505000000000000000000201701250002001VICTOR ECHAVEZ                                    C000000001000000000000000000000000100010010000000000000000000000F0010000009704200320170125000101 00000000000000000000000000000000000000000000000000000000000000000000000000000000000000000000000000000000000000000N 00000000000NCONT   00    00000000000          00000000000000000000000000000000000000000000 000000000000000A000000000000000000000000000000000000000000000 000000000000000000000000000000000000000     00000000                                                                                                                        000000000000000000
F0010000009704200004000007213653800023658300000000000000000201701250002001VICTOR ECHAVEZ                                    C000000000016000000000000000000000100010010000000000000000000000F0010000009704200420170125000101 00000000000000000000000000000000000000000000000000000000000000000000000000000000000000000000000000000000000000000N 00000000000NCONT   00    00000000000          00000000000000000000000000000000000000000000 000000000000000A000000000000000000000000000000000000000000000 000000000000000000000000000000000000000     00000000                                                                                                                        000000000000000000
F0010000009704200005000007213653800013552100000000000000000201701250002001VICTOR ECHAVEZ                                    D000000000016000000000000000000000100010010000000000000000000000F0010000009704200520170125000101 00000000000000000000000000000000000000000000000000000000000000000000000000000000000000000000000000000000000000000N 00000000000NCONT   00    00000000000          00000000000000000000000000000000000000000000 000000000000000A000000000000000000000000000000000000000000000 000000000000000000000000000000000000000     00000000                                                                                                                        000000000000000000
F0010000009704300001000007213653800011050500000000000000000201701250002001VICTOR ECHAVEZ                                    D000000002500000000000000000000000100010010000000000000000000000F0010000009704300120170125000101 00000000000000000000000000000000000000000000000000000000000000000000000000000000000000000000000000000000000000000N 00000000000NCONT   00    00000000000          00000000000000000000000000000000000000000000 000000000000000A000000000000000000000000000000000000000000000 000000000000000000000000000000000000000     00000000                                                                                                                        000000000000000000
F0010000009704300002000007213653800041450500000000000000000201701250002001VICTOR ECHAVEZ                                    C000000002000000000000000000000000100010010000000000000000000000F0010000009704300220170125000101 00000000000000000000000000000000000000000000000000000000000000000000000000000000000000000000000000000000000000000N 00000000000NCONT   00    00000000000          00000000000000000000000000000000000000000000 000000000000000A000000000000000000000000000000000000000000000 000000000000000000000000000000000000000     00000000                                                                                                                        000000000000000000
F0010000009704300003000007213653800042505000000000000000000201701250002001VICTOR ECHAVEZ                                    C000000000500000000000000000000000100010010000000000000000000000F0010000009704300320170125000101 00000000000000000000000000000000000000000000000000000000000000000000000000000000000000000000000000000000000000000N 00000000000NCONT   00    00000000000          00000000000000000000000000000000000000000000 000000000000000A000000000000000000000000000000000000000000000 000000000000000000000000000000000000000     00000000                                                                                                                        000000000000000000
F0010000009704300004000007213653800023658300000000000000000201701250002001VICTOR ECHAVEZ                                    C000000000016000000000000000000000100010010000000000000000000000F0010000009704300420170125000101 00000000000000000000000000000000000000000000000000000000000000000000000000000000000000000000000000000000000000000N 00000000000NCONT   00    00000000000          00000000000000000000000000000000000000000000 000000000000000A000000000000000000000000000000000000000000000 000000000000000000000000000000000000000     00000000                                                                                                                        000000000000000000
F0010000009704300005000007213653800013552100000000000000000201701250002001VICTOR ECHAVEZ                                    D000000000016000000000000000000000100010010000000000000000000000F0010000009704300520170125000101 00000000000000000000000000000000000000000000000000000000000000000000000000000000000000000000000000000000000000000N 00000000000NCONT   00    00000000000          00000000000000000000000000000000000000000000 000000000000000A000000000000000000000000000000000000000000000 000000000000000000000000000000000000000     00000000                                                                                                                        000000000000000000
F0010000009704400001000007213653800011050500000000000000000201701250002001VICTOR ECHAVEZ                                    D000000002300000000000000000000000100010010000000000000000000000F0010000009704400120170125000101 00000000000000000000000000000000000000000000000000000000000000000000000000000000000000000000000000000000000000000N 00000000000NCONT   00    00000000000          00000000000000000000000000000000000000000000 000000000000000A000000000000000000000000000000000000000000000 000000000000000000000000000000000000000     00000000                                                                                                                        000000000000000000
F0010000009704400002000007213653800041450500000000000000000201701250002001VICTOR ECHAVEZ                                    C000000002000000000000000000000000100010010000000000000000000000F0010000009704400220170125000101 00000000000000000000000000000000000000000000000000000000000000000000000000000000000000000000000000000000000000000N 00000000000NCONT   00    00000000000          00000000000000000000000000000000000000000000 000000000000000A000000000000000000000000000000000000000000000 000000000000000000000000000000000000000     00000000                                                                                                                        000000000000000000
F0010000009704400003000007213653800042505000000000000000000201701250002001VICTOR ECHAVEZ                                    C000000000300000000000000000000000100010010000000000000000000000F0010000009704400320170125000101 00000000000000000000000000000000000000000000000000000000000000000000000000000000000000000000000000000000000000000N 00000000000NCONT   00    00000000000          00000000000000000000000000000000000000000000 000000000000000A000000000000000000000000000000000000000000000 000000000000000000000000000000000000000     00000000                                                                                                                        000000000000000000
F0010000009704400004000007213653800023658300000000000000000201701250002001VICTOR ECHAVEZ                                    C000000000016000000000000000000000100010010000000000000000000000F0010000009704400420170125000101 00000000000000000000000000000000000000000000000000000000000000000000000000000000000000000000000000000000000000000N 00000000000NCONT   00    00000000000          00000000000000000000000000000000000000000000 000000000000000A000000000000000000000000000000000000000000000 000000000000000000000000000000000000000     00000000                                                                                                                        000000000000000000
F0010000009704400005000007213653800013552100000000000000000201701250002001VICTOR ECHAVEZ                                    D000000000016000000000000000000000100010010000000000000000000000F0010000009704400520170125000101 00000000000000000000000000000000000000000000000000000000000000000000000000000000000000000000000000000000000000000N 00000000000NCONT   00    00000000000          00000000000000000000000000000000000000000000 000000000000000A000000000000000000000000000000000000000000000 000000000000000000000000000000000000000     00000000                                                                                                                        000000000000000000
F0010000009704500001000007200023300011050500000000000000000201701250002001WILLIAM ORTEGA                                    D000000001420000000000000000000000100010010000000000000000000000F0010000009704500120170125000101 00000000000000000000000000000000000000000000000000000000000000000000000000000000000000000000000000000000000000000N 00000000000NCONT   00    00000000000          00000000000000000000000000000000000000000000 000000000000000A000000000000000000000000000000000000000000000 000000000000000000000000000000000000000     00000000                                                                                                                        000000000000000000
F0010000009704500002000007200023300041450500000000000000000201701250002001WILLIAM ORTEGA                                    C000000001300000000000000000000000100010010000000000000000000000F0010000009704500220170125000101 00000000000000000000000000000000000000000000000000000000000000000000000000000000000000000000000000000000000000000N 00000000000NCONT   00    00000000000          00000000000000000000000000000000000000000000 000000000000000A000000000000000000000000000000000000000000000 000000000000000000000000000000000000000     00000000                                                                                                                        000000000000000000
F0010000009704500003000007200023300042505000000000000000000201701250002001WILLIAM ORTEGA                                    C000000000120000000000000000000000100010010000000000000000000000F0010000009704500320170125000101 00000000000000000000000000000000000000000000000000000000000000000000000000000000000000000000000000000000000000000N 00000000000NCONT   00    00000000000          00000000000000000000000000000000000000000000 000000000000000A000000000000000000000000000000000000000000000 000000000000000000000000000000000000000     00000000                                                                                                                        000000000000000000
F0010000009704500004000007200023300023658300000000000000000201701250002001WILLIAM ORTEGA                                    C000000000010400000000000000000000100010010000000000000000000000F0010000009704500420170125000101 00000000000000000000000000000000000000000000000000000000000000000000000000000000000000000000000000000000000000000N 00000000000NCONT   00    00000000000          00000000000000000000000000000000000000000000 000000000000000A000000000000000000000000000000000000000000000 000000000000000000000000000000000000000     00000000                                                                                                                        000000000000000000
F0010000009704500005000007200023300013552100000000000000000201701250002001WILLIAM ORTEGA                                    D000000000010400000000000000000000100010010000000000000000000000F0010000009704500520170125000101 00000000000000000000000000000000000000000000000000000000000000000000000000000000000000000000000000000000000000000N 00000000000NCONT   00    00000000000          00000000000000000000000000000000000000000000 000000000000000A000000000000000000000000000000000000000000000 000000000000000000000000000000000000000     00000000                                                                                                                        000000000000000000
F0010000009704600001000007213653800011050500000000000000000201701250002001VICTOR ECHAVEZ                                    D000000008500000000000000000000000100010010000000000000000000000F0010000009704600120170125000101 00000000000000000000000000000000000000000000000000000000000000000000000000000000000000000000000000000000000000000N 00000000000NCONT   00    00000000000          00000000000000000000000000000000000000000000 000000000000000A000000000000000000000000000000000000000000000 000000000000000000000000000000000000000     00000000                                                                                                                        000000000000000000
F0010000009704600002000007213653800041450500000000000000000201701250002001VICTOR ECHAVEZ                                    C000000006000000000000000000000000100010010000000000000000000000F0010000009704600220170125000101 00000000000000000000000000000000000000000000000000000000000000000000000000000000000000000000000000000000000000000N 00000000000NCONT   00    00000000000          00000000000000000000000000000000000000000000 000000000000000A000000000000000000000000000000000000000000000 000000000000000000000000000000000000000     00000000                                                                                                                        000000000000000000
F0010000009704600003000007213653800042505000000000000000000201701250002001VICTOR ECHAVEZ                                    C000000002500000000000000000000000100010010000000000000000000000F0010000009704600320170125000101 00000000000000000000000000000000000000000000000000000000000000000000000000000000000000000000000000000000000000000N 00000000000NCONT   00    00000000000          00000000000000000000000000000000000000000000 000000000000000A000000000000000000000000000000000000000000000 000000000000000000000000000000000000000     00000000                                                                                                                        000000000000000000
F0010000009704600004000007213653800023658300000000000000000201701250002001VICTOR ECHAVEZ                                    C000000000048000000000000000000000100010010000000000000000000000F0010000009704600420170125000101 00000000000000000000000000000000000000000000000000000000000000000000000000000000000000000000000000000000000000000N 00000000000NCONT   00    00000000000          00000000000000000000000000000000000000000000 000000000000000A000000000000000000000000000000000000000000000 000000000000000000000000000000000000000     00000000                                                                                                                        000000000000000000
F0010000009704600005000007213653800013552100000000000000000201701250002001VICTOR ECHAVEZ                                    D000000000048000000000000000000000100010010000000000000000000000F0010000009704600520170125000101 00000000000000000000000000000000000000000000000000000000000000000000000000000000000000000000000000000000000000000N 00000000000NCONT   00    00000000000          00000000000000000000000000000000000000000000 000000000000000A000000000000000000000000000000000000000000000 000000000000000000000000000000000000000     00000000                                                                                                                        000000000000000000
F0010000009704700001000007200023300011050500000000000000000201701250002001WILLIAM ORTEGA                                    D000000002880000000000000000000000100010010000000000000000000000F0010000009704700120170125000101 00000000000000000000000000000000000000000000000000000000000000000000000000000000000000000000000000000000000000000N 00000000000NCONT   00    00000000000          00000000000000000000000000000000000000000000 000000000000000A000000000000000000000000000000000000000000000 000000000000000000000000000000000000000     00000000                                                                                                                        000000000000000000
F0010000009704700002000007200023300041450500000000000000000201701250002001WILLIAM ORTEGA                                    C000000002600000000000000000000000100010010000000000000000000000F0010000009704700220170125000101 00000000000000000000000000000000000000000000000000000000000000000000000000000000000000000000000000000000000000000N 00000000000NCONT   00    00000000000          00000000000000000000000000000000000000000000 000000000000000A000000000000000000000000000000000000000000000 000000000000000000000000000000000000000     00000000                                                                                                                        000000000000000000
F0010000009704700003000007200023300042505000000000000000000201701250002001WILLIAM ORTEGA                                    C000000000280000000000000000000000100010010000000000000000000000F0010000009704700320170125000101 00000000000000000000000000000000000000000000000000000000000000000000000000000000000000000000000000000000000000000N 00000000000NCONT   00    00000000000          00000000000000000000000000000000000000000000 000000000000000A000000000000000000000000000000000000000000000 000000000000000000000000000000000000000     00000000                                                                                                                        000000000000000000
F0010000009704700004000007200023300023658300000000000000000201701250002001WILLIAM ORTEGA                                    C000000000020800000000000000000000100010010000000000000000000000F0010000009704700420170125000101 00000000000000000000000000000000000000000000000000000000000000000000000000000000000000000000000000000000000000000N 00000000000NCONT   00    00000000000          00000000000000000000000000000000000000000000 000000000000000A000000000000000000000000000000000000000000000 000000000000000000000000000000000000000     00000000                                                                                                                        000000000000000000
F0010000009704700005000007200023300013552100000000000000000201701250002001WILLIAM ORTEGA                                    D000000000020800000000000000000000100010010000000000000000000000F0010000009704700520170125000101 00000000000000000000000000000000000000000000000000000000000000000000000000000000000000000000000000000000000000000N 00000000000NCONT   00    00000000000          00000000000000000000000000000000000000000000 000000000000000A000000000000000000000000000000000000000000000 000000000000000000000000000000000000000     00000000                                                                                                                        000000000000000000
F0010000009704800001000007200023300011050500000000000000000201701250002001WILLIAM ORTEGA                                    D000000001430000000000000000000000100010010000000000000000000000F0010000009704800120170125000101 00000000000000000000000000000000000000000000000000000000000000000000000000000000000000000000000000000000000000000N 00000000000NCONT   00    00000000000          00000000000000000000000000000000000000000000 000000000000000A000000000000000000000000000000000000000000000 000000000000000000000000000000000000000     00000000                                                                                                                        000000000000000000
F0010000009704800002000007200023300041450500000000000000000201701250002001WILLIAM ORTEGA                                    C000000001300000000000000000000000100010010000000000000000000000F0010000009704800220170125000101 00000000000000000000000000000000000000000000000000000000000000000000000000000000000000000000000000000000000000000N 00000000000NCONT   00    00000000000          00000000000000000000000000000000000000000000 000000000000000A000000000000000000000000000000000000000000000 000000000000000000000000000000000000000     00000000                                                                                                                        000000000000000000
F0010000009704800003000007200023300042505000000000000000000201701250002001WILLIAM ORTEGA                                    C000000000130000000000000000000000100010010000000000000000000000F0010000009704800320170125000101 00000000000000000000000000000000000000000000000000000000000000000000000000000000000000000000000000000000000000000N 00000000000NCONT   00    00000000000          00000000000000000000000000000000000000000000 000000000000000A000000000000000000000000000000000000000000000 000000000000000000000000000000000000000     00000000                                                                                                                        000000000000000000
F0010000009704800004000007200023300023658300000000000000000201701250002001WILLIAM ORTEGA                                    C000000000010400000000000000000000100010010000000000000000000000F0010000009704800420170125000101 00000000000000000000000000000000000000000000000000000000000000000000000000000000000000000000000000000000000000000N 00000000000NCONT   00    00000000000          00000000000000000000000000000000000000000000 000000000000000A000000000000000000000000000000000000000000000 000000000000000000000000000000000000000     00000000                                                                                                                        000000000000000000
F0010000009704800005000007200023300013552100000000000000000201701250002001WILLIAM ORTEGA                                    D000000000010400000000000000000000100010010000000000000000000000F0010000009704800520170125000101 00000000000000000000000000000000000000000000000000000000000000000000000000000000000000000000000000000000000000000N 00000000000NCONT   00    00000000000          00000000000000000000000000000000000000000000 000000000000000A000000000000000000000000000000000000000000000 000000000000000000000000000000000000000     00000000                                                                                                                        000000000000000000
F0010000009704900001000007200023300011050500000000000000000201701250002001WILLIAM ORTEGA                                    D000000003230000000000000000000000100010010000000000000000000000F0010000009704900120170125000101 00000000000000000000000000000000000000000000000000000000000000000000000000000000000000000000000000000000000000000N 00000000000NCONT   00    00000000000          00000000000000000000000000000000000000000000 000000000000000A000000000000000000000000000000000000000000000 000000000000000000000000000000000000000     00000000                                                                                                                        000000000000000000
F0010000009704900002000007200023300041450500000000000000000201701250002001WILLIAM ORTEGA                                    C000000003000000000000000000000000100010010000000000000000000000F0010000009704900220170125000101 00000000000000000000000000000000000000000000000000000000000000000000000000000000000000000000000000000000000000000N 00000000000NCONT   00    00000000000          00000000000000000000000000000000000000000000 000000000000000A000000000000000000000000000000000000000000000 000000000000000000000000000000000000000     00000000                                                                                                                        000000000000000000
