F0010000006610000001000089011033000011050500000000000000000201412100002001INDUSTRIAS CRUZ & CAÑON LTDA                     D000000005500000000000000000000000100010010000000000000000000000F0010000006610000120141210000101 00000000000000000000000000000000000000000000000000000000000000000000000000000000000000000000000000000000000000000N 00000000000NCONT   00    00000000000          00000000000000000000000000000000000000000000 000000000000000A000000000000000000000000000000000000000000000 000000000000000000000000000000000000000     00000000                                                                                                                        000000000000000000
F0010000006610000002000089011033000041450500000000000000000201412100002001INDUSTRIAS CRUZ & CAÑON LTDA                     C000000005000000000000000000000000100010010000000000000000000000F0010000006610000220141210000101 00000000000000000000000000000000000000000000000000000000000000000000000000000000000000000000000000000000000000000N 00000000000NCONT   00    00000000000          00000000000000000000000000000000000000000000 000000000000000A000000000000000000000000000000000000000000000 000000000000000000000000000000000000000     00000000                                                                                                                        000000000000000000
F0010000006610000003000089011033000042505000000000000000000201412100002001INDUSTRIAS CRUZ & CAÑON LTDA                     C000000000500000000000000000000000100010010000000000000000000000F0010000006610000320141210000101 00000000000000000000000000000000000000000000000000000000000000000000000000000000000000000000000000000000000000000N 00000000000NCONT   00    00000000000          00000000000000000000000000000000000000000000 000000000000000A000000000000000000000000000000000000000000000 000000000000000000000000000000000000000     00000000                                                                                                                        000000000000000000
F0010000006610000004000089011033000023658300000000000000000201412100002001INDUSTRIAS CRUZ & CAÑON LTDA                     C000000000040000000000000000000000100010010000000000000000000000F0010000006610000420141210000101 00000000000000000000000000000000000000000000000000000000000000000000000000000000000000000000000000000000000000000N 00000000000NCONT   00    00000000000          00000000000000000000000000000000000000000000 000000000000000A000000000000000000000000000000000000000000000 000000000000000000000000000000000000000     00000000                                                                                                                        000000000000000000
F0010000006610000005000089011033000013552100000000000000000201412100002001INDUSTRIAS CRUZ & CAÑON LTDA                     D000000000040000000000000000000000100010010000000000000000000000F0010000006610000520141210000101 00000000000000000000000000000000000000000000000000000000000000000000000000000000000000000000000000000000000000000N 00000000000NCONT   00    00000000000          00000000000000000000000000000000000000000000 000000000000000A000000000000000000000000000000000000000000000 000000000000000000000000000000000000000     00000000                                                                                                                        000000000000000000
F0010000006610100001000086001711100011050500000000000000000201412100002001COOPERATIVA TEXAS                                 D000000080010000000000000000000000100010010000000000000000000000F0010000006610100120141210000101 00000000000000000000000000000000000000000000000000000000000000000000000000000000000000000000000000000000000000000N 00000000000NCONT   00    00000000000          00000000000000000000000000000000000000000000 000000000000000A000000000000000000000000000000000000000000000 000000000000000000000000000000000000000     00000000                                                                                                                        000000000000000000
F0010000006610100002000086001711100041450500000000000000000201412100002001COOPERATIVA TEXAS                                 C000000075600000000000000000000000100010010000000000000000000000F0010000006610100220141210000101 00000000000000000000000000000000000000000000000000000000000000000000000000000000000000000000000000000000000000000N 00000000000NCONT   00    00000000000          00000000000000000000000000000000000000000000 000000000000000A000000000000000000000000000000000000000000000 000000000000000000000000000000000000000     00000000                                                                                                                        000000000000000000
F0010000006610100003000086001711100042505000000000000000000201412100002001COOPERATIVA TEXAS                                 C000000004410000000000000000000000100010010000000000000000000000F0010000006610100320141210000101 00000000000000000000000000000000000000000000000000000000000000000000000000000000000000000000000000000000000000000N 00000000000NCONT   00    00000000000          00000000000000000000000000000000000000000000 000000000000000A000000000000000000000000000000000000000000000 000000000000000000000000000000000000000     00000000                                                                                                                        000000000000000000
F0010000006610100004000086001711100023658300000000000000000201412100002001COOPERATIVA TEXAS                                 C000000000604800000000000000000000100010010000000000000000000000F0010000006610100420141210000101 00000000000000000000000000000000000000000000000000000000000000000000000000000000000000000000000000000000000000000N 00000000000NCONT   00    00000000000          00000000000000000000000000000000000000000000 000000000000000A000000000000000000000000000000000000000000000 000000000000000000000000000000000000000     00000000                                                                                                                        000000000000000000
F0010000006610100005000086001711100013552100000000000000000201412100002001COOPERATIVA TEXAS                                 D000000000604800000000000000000000100010010000000000000000000000F0010000006610100520141210000101 00000000000000000000000000000000000000000000000000000000000000000000000000000000000000000000000000000000000000000N 00000000000NCONT   00    00000000000          00000000000000000000000000000000000000000000 000000000000000A000000000000000000000000000000000000000000000 000000000000000000000000000000000000000     00000000                                                                                                                        000000000000000000
F0010000006610200001000090014415700013050500000000000000000201412100002001CORDELES Y EXTRUIDOS DE COLOMBIA S.A.S.           D000000014914500000000000000000000100010010000000000000000000000F0010000006610200120141210000101 00000000000000000000000000000000000000000000000000000000000000000000000000000000000000000000000000000000000000000N 00000000000NCONT   00    00000000000          00000000000000000000000000000000000000000000 000000000000000A000000000000000000000000000000000000000000000 000000000000000000000000000000000000000     00000000                                                                                                                        000000000000000000
F0010000006610200002000090014415700041450500000000000000000201412100002001CORDELES Y EXTRUIDOS DE COLOMBIA S.A.S.           C000000014280000000000000000000000100010010000000000000000000000F0010000006610200220141210000101 00000000000000000000000000000000000000000000000000000000000000000000000000000000000000000000000000000000000000000N 00000000000NCONT   00    00000000000          00000000000000000000000000000000000000000000 000000000000000A000000000000000000000000000000000000000000000 000000000000000000000000000000000000000     00000000                                                                                                                        000000000000000000
F0010000006610200003000090014415700042505000000000000000000201412100002001CORDELES Y EXTRUIDOS DE COLOMBIA S.A.S.           C000000000634500000000000000000000100010010000000000000000000000F0010000006610200320141210000101 00000000000000000000000000000000000000000000000000000000000000000000000000000000000000000000000000000000000000000N 00000000000NCONT   00    00000000000          00000000000000000000000000000000000000000000 000000000000000A000000000000000000000000000000000000000000000 000000000000000000000000000000000000000     00000000                                                                                                                        000000000000000000
F0010000006610200004000090014415700023658300000000000000000201412100002001CORDELES Y EXTRUIDOS DE COLOMBIA S.A.S.           C000000000114200000000000000000000100010010000000000000000000000F0010000006610200420141210000101 00000000000000000000000000000000000000000000000000000000000000000000000000000000000000000000000000000000000000000N 00000000000NCONT   00    00000000000          00000000000000000000000000000000000000000000 000000000000000A000000000000000000000000000000000000000000000 000000000000000000000000000000000000000     00000000                                                                                                                        000000000000000000
F0010000006610200005000090014415700013552100000000000000000201412100002001CORDELES Y EXTRUIDOS DE COLOMBIA S.A.S.           D000000000114200000000000000000000100010010000000000000000000000F0010000006610200520141210000101 00000000000000000000000000000000000000000000000000000000000000000000000000000000000000000000000000000000000000000N 00000000000NCONT   00    00000000000          00000000000000000000000000000000000000000000 000000000000000A000000000000000000000000000000000000000000000 000000000000000000000000000000000000000     00000000                                                                                                                        000000000000000000
F0010000006610300001000090012911500013050500000000000000000201412100002001UNIFORMES EDGAR DUARTE LTDA                       D000000009461000000000000000000000100010010000000000000000000000F0010000006610300120141210000101 00000000000000000000000000000000000000000000000000000000000000000000000000000000000000000000000000000000000000000N 00000000000NCONT   00    00000000000          00000000000000000000000000000000000000000000 000000000000000A000000000000000000000000000000000000000000000 000000000000000000000000000000000000000     00000000                                                                                                                        000000000000000000
F0010000006610300002000090012911500041450500000000000000000201412100002001UNIFORMES EDGAR DUARTE LTDA                       C000000008961000000000000000000000100010010000000000000000000000F0010000006610300220141210000101 00000000000000000000000000000000000000000000000000000000000000000000000000000000000000000000000000000000000000000N 00000000000NCONT   00    00000000000          00000000000000000000000000000000000000000000 000000000000000A000000000000000000000000000000000000000000000 000000000000000000000000000000000000000     00000000                                                                                                                        000000000000000000
F0010000006610300003000090012911500042505000000000000000000201412100002001UNIFORMES EDGAR DUARTE LTDA                       C000000000500000000000000000000000100010010000000000000000000000F0010000006610300320141210000101 00000000000000000000000000000000000000000000000000000000000000000000000000000000000000000000000000000000000000000N 00000000000NCONT   00    00000000000          00000000000000000000000000000000000000000000 000000000000000A000000000000000000000000000000000000000000000 000000000000000000000000000000000000000     00000000                                                                                                                        000000000000000000
F0010000006610300004000090012911500023658300000000000000000201412100002001UNIFORMES EDGAR DUARTE LTDA                       C000000000071700000000000000000000100010010000000000000000000000F0010000006610300420141210000101 00000000000000000000000000000000000000000000000000000000000000000000000000000000000000000000000000000000000000000N 00000000000NCONT   00    00000000000          00000000000000000000000000000000000000000000 000000000000000A000000000000000000000000000000000000000000000 000000000000000000000000000000000000000     00000000                                                                                                                        000000000000000000
F0010000006610300005000090012911500013552100000000000000000201412100002001UNIFORMES EDGAR DUARTE LTDA                       D000000000071700000000000000000000100010010000000000000000000000F0010000006610300520141210000101 00000000000000000000000000000000000000000000000000000000000000000000000000000000000000000000000000000000000000000N 00000000000NCONT   00    00000000000          00000000000000000000000000000000000000000000 000000000000000A000000000000000000000000000000000000000000000 000000000000000000000000000000000000000     00000000                                                                                                                        000000000000000000
F0010000006610400001000090036646700013050500000000000000000201412100002001FERREPROYECTOS S.A.S                              D000000017000000000000000000000000100010010000000000000000000000F0010000006610400120141210000101 00000000000000000000000000000000000000000000000000000000000000000000000000000000000000000000000000000000000000000N 00000000000NCONT   00    00000000000          00000000000000000000000000000000000000000000 000000000000000A000000000000000000000000000000000000000000000 000000000000000000000000000000000000000     00000000                                                                                                                        000000000000000000
F0010000006610400002000090036646700041450500000000000000000201412100002001FERREPROYECTOS S.A.S                              C000000016900000000000000000000000100010010000000000000000000000F0010000006610400220141210000101 00000000000000000000000000000000000000000000000000000000000000000000000000000000000000000000000000000000000000000N 00000000000NCONT   00    00000000000          00000000000000000000000000000000000000000000 000000000000000A000000000000000000000000000000000000000000000 000000000000000000000000000000000000000     00000000                                                                                                                        000000000000000000
F0010000006610400003000090036646700042505000000000000000000201412100002001FERREPROYECTOS S.A.S                              C000000000100000000000000000000000100010010000000000000000000000F0010000006610400320141210000101 00000000000000000000000000000000000000000000000000000000000000000000000000000000000000000000000000000000000000000N 00000000000NCONT   00    00000000000          00000000000000000000000000000000000000000000 000000000000000A000000000000000000000000000000000000000000000 000000000000000000000000000000000000000     00000000                                                                                                                        000000000000000000
F0010000006610400004000090036646700023658300000000000000000201412100002001FERREPROYECTOS S.A.S                              C000000000135200000000000000000000100010010000000000000000000000F0010000006610400420141210000101 00000000000000000000000000000000000000000000000000000000000000000000000000000000000000000000000000000000000000000N 00000000000NCONT   00    00000000000          00000000000000000000000000000000000000000000 000000000000000A000000000000000000000000000000000000000000000 000000000000000000000000000000000000000     00000000                                                                                                                        000000000000000000
F0010000006610400005000090036646700013552100000000000000000201412100002001FERREPROYECTOS S.A.S                              D000000000135200000000000000000000100010010000000000000000000000F0010000006610400520141210000101 00000000000000000000000000000000000000000000000000000000000000000000000000000000000000000000000000000000000000000N 00000000000NCONT   00    00000000000          00000000000000000000000000000000000000000000 000000000000000A000000000000000000000000000000000000000000000 000000000000000000000000000000000000000     00000000                                                                                                                        000000000000000000
F0010000006610500001000081102758700013050500000000000000000201412100002001C.I. ABRACOL S.A EMA                              D000000039859700000000000000000000100010010000000000000000000000F0010000006610500120141210000101 00000000000000000000000000000000000000000000000000000000000000000000000000000000000000000000000000000000000000000N 00000000000NCONT   00    00000000000          00000000000000000000000000000000000000000000 000000000000000A000000000000000000000000000000000000000000000 000000000000000000000000000000000000000     00000000                                                                                                                        000000000000000000
F0010000006610500002000081102758700041450500000000000000000201412100002001C.I. ABRACOL S.A EMA                              C000000026510000000000000000000000100010010000000000000000000000F0010000006610500220141210000101 00000000000000000000000000000000000000000000000000000000000000000000000000000000000000000000000000000000000000000N 00000000000NCONT   00    00000000000          00000000000000000000000000000000000000000000 000000000000000A000000000000000000000000000000000000000000000 000000000000000000000000000000000000000     00000000                                                                                                                        000000000000000000
F0010000006610500003000081102758700041750100000000000000000201412100002001C.I. ABRACOL S.A EMA                              D000000000795300000000000000000000100010010000000000000000000000F0010000006610500320141210000101 00000000000000000000000000000000000000000000000000000000000000000000000000000000000000000000000000000000000000000N 00000000000NCONT   00    00000000000          00000000000000000000000000000000000000000000 000000000000000A000000000000000000000000000000000000000000000 000000000000000000000000000000000000000     00000000                                                                                                                        000000000000000000
F0010000006610500004000081102758700042505000000000000000000201412100002001C.I. ABRACOL S.A EMA                              C000000014145000000000000000000000100010010000000000000000000000F0010000006610500420141210000101 00000000000000000000000000000000000000000000000000000000000000000000000000000000000000000000000000000000000000000N 00000000000NCONT   00    00000000000          00000000000000000000000000000000000000000000 000000000000000A000000000000000000000000000000000000000000000 000000000000000000000000000000000000000     00000000                                                                                                                        000000000000000000
F0010000006610500005000081102758700023658300000000000000000201412100002001C.I. ABRACOL S.A EMA                              C000000000212100000000000000000000100010010000000000000000000000F0010000006610500520141210000101 00000000000000000000000000000000000000000000000000000000000000000000000000000000000000000000000000000000000000000N 00000000000NCONT   00    00000000000          00000000000000000000000000000000000000000000 000000000000000A000000000000000000000000000000000000000000000 000000000000000000000000000000000000000     00000000                                                                                                                        000000000000000000
F0010000006610500006000081102758700013552100000000000000000201412100002001C.I. ABRACOL S.A EMA                              D000000000212100000000000000000000100010010000000000000000000000F0010000006610500620141210000101 00000000000000000000000000000000000000000000000000000000000000000000000000000000000000000000000000000000000000000N 00000000000NCONT   00    00000000000          00000000000000000000000000000000000000000000 000000000000000A000000000000000000000000000000000000000000000 000000000000000000000000000000000000000     00000000                                                                                                                        000000000000000000
F0010000006610600001000090038852800013050500000000000000000201412100002001EL COMERCIO ELECTRICO DE LA CO                    D000000018720000000000000000000000100010010000000000000000000000F0010000006610600120141210000101 00000000000000000000000000000000000000000000000000000000000000000000000000000000000000000000000000000000000000000N 00000000000NCONT   00    00000000000          00000000000000000000000000000000000000000000 000000000000000A000000000000000000000000000000000000000000000 000000000000000000000000000000000000000     00000000                                                                                                                        000000000000000000
F0010000006610600002000090038852800041450500000000000000000201412100002001EL COMERCIO ELECTRICO DE LA CO                    C000000013200000000000000000000000100010010000000000000000000000F0010000006610600220141210000101 00000000000000000000000000000000000000000000000000000000000000000000000000000000000000000000000000000000000000000N 00000000000NCONT   00    00000000000          00000000000000000000000000000000000000000000 000000000000000A000000000000000000000000000000000000000000000 000000000000000000000000000000000000000     00000000                                                                                                                        000000000000000000
F0010000006610600003000090038852800042505000000000000000000201412100002001EL COMERCIO ELECTRICO DE LA CO                    C000000005520000000000000000000000100010010000000000000000000000F0010000006610600320141210000101 00000000000000000000000000000000000000000000000000000000000000000000000000000000000000000000000000000000000000000N 00000000000NCONT   00    00000000000          00000000000000000000000000000000000000000000 000000000000000A000000000000000000000000000000000000000000000 000000000000000000000000000000000000000     00000000                                                                                                                        000000000000000000
F0010000006610600004000090038852800023658300000000000000000201412100002001EL COMERCIO ELECTRICO DE LA CO                    C000000000105600000000000000000000100010010000000000000000000000F0010000006610600420141210000101 00000000000000000000000000000000000000000000000000000000000000000000000000000000000000000000000000000000000000000N 00000000000NCONT   00    00000000000          00000000000000000000000000000000000000000000 000000000000000A000000000000000000000000000000000000000000000 000000000000000000000000000000000000000     00000000                                                                                                                        000000000000000000
F0010000006610600005000090038852800013552100000000000000000201412100002001EL COMERCIO ELECTRICO DE LA CO                    D000000000105600000000000000000000100010010000000000000000000000F0010000006610600520141210000101 00000000000000000000000000000000000000000000000000000000000000000000000000000000000000000000000000000000000000000N 00000000000NCONT   00    00000000000          00000000000000000000000000000000000000000000 000000000000000A000000000000000000000000000000000000000000000 000000000000000000000000000000000000000     00000000                                                                                                                        000000000000000000
F0010000006610700001000080010983700013050500000000000000000201412100002001OHM LTDA                                          D000000013935000000000000000000000100010010000000000000000000000F0010000006610700120141210000101 00000000000000000000000000000000000000000000000000000000000000000000000000000000000000000000000000000000000000000N 00000000000NCONT   00    00000000000          00000000000000000000000000000000000000000000 000000000000000A000000000000000000000000000000000000000000000 000000000000000000000000000000000000000     00000000                                                                                                                        000000000000000000
F0010000006610700002000080010983700041450500000000000000000201412100002001OHM LTDA                                          C000000013740000000000000000000000100010010000000000000000000000F0010000006610700220141210000101 00000000000000000000000000000000000000000000000000000000000000000000000000000000000000000000000000000000000000000N 00000000000NCONT   00    00000000000          00000000000000000000000000000000000000000000 000000000000000A000000000000000000000000000000000000000000000 000000000000000000000000000000000000000     00000000                                                                                                                        000000000000000000
F0010000006610700003000080010983700042505000000000000000000201412100002001OHM LTDA                                          C000000000195000000000000000000000100010010000000000000000000000F0010000006610700320141210000101 00000000000000000000000000000000000000000000000000000000000000000000000000000000000000000000000000000000000000000N 00000000000NCONT   00    00000000000          00000000000000000000000000000000000000000000 000000000000000A000000000000000000000000000000000000000000000 000000000000000000000000000000000000000     00000000                                                                                                                        000000000000000000
F0010000006610700004000080010983700023658300000000000000000201412100002001OHM LTDA                                          C000000000109900000000000000000000100010010000000000000000000000F0010000006610700420141210000101 00000000000000000000000000000000000000000000000000000000000000000000000000000000000000000000000000000000000000000N 00000000000NCONT   00    00000000000          00000000000000000000000000000000000000000000 000000000000000A000000000000000000000000000000000000000000000 000000000000000000000000000000000000000     00000000                                                                                                                        000000000000000000
F0010000006610700005000080010983700013552100000000000000000201412100002001OHM LTDA                                          D000000000109900000000000000000000100010010000000000000000000000F0010000006610700520141210000101 00000000000000000000000000000000000000000000000000000000000000000000000000000000000000000000000000000000000000000N 00000000000NCONT   00    00000000000          00000000000000000000000000000000000000000000 000000000000000A000000000000000000000000000000000000000000000 000000000000000000000000000000000000000     00000000                                                                                                                        000000000000000000
F0010000006610800001000080202229600013050500000000000000000201412100002001MUNDIAL DE ABRASIVOS S.A                          D000000026661400000000000000000000100010010000000000000000000000F0010000006610800120141210000101 00000000000000000000000000000000000000000000000000000000000000000000000000000000000000000000000000000000000000000N 00000000000NCONT   00    00000000000          00000000000000000000000000000000000000000000 000000000000000A000000000000000000000000000000000000000000000 000000000000000000000000000000000000000     00000000                                                                                                                        000000000000000000
F0010000006610800002000080202229600041450500000000000000000201412100002001MUNDIAL DE ABRASIVOS S.A                          C000000021034800000000000000000000100010010000000000000000000000F0010000006610800220141210000101 00000000000000000000000000000000000000000000000000000000000000000000000000000000000000000000000000000000000000000N 00000000000NCONT   00    00000000000          00000000000000000000000000000000000000000000 000000000000000A000000000000000000000000000000000000000000000 000000000000000000000000000000000000000     00000000                                                                                                                        000000000000000000
F0010000006610800003000080202229600042505000000000000000000201412100002001MUNDIAL DE ABRASIVOS S.A                          C000000005626600000000000000000000100010010000000000000000000000F0010000006610800320141210000101 00000000000000000000000000000000000000000000000000000000000000000000000000000000000000000000000000000000000000000N 00000000000NCONT   00    00000000000          00000000000000000000000000000000000000000000 000000000000000A000000000000000000000000000000000000000000000 000000000000000000000000000000000000000     00000000                                                                                                                        000000000000000000
F0010000006610800004000080202229600023658300000000000000000201412100002001MUNDIAL DE ABRASIVOS S.A                          C000000000168300000000000000000000100010010000000000000000000000F0010000006610800420141210000101 00000000000000000000000000000000000000000000000000000000000000000000000000000000000000000000000000000000000000000N 00000000000NCONT   00    00000000000          00000000000000000000000000000000000000000000 000000000000000A000000000000000000000000000000000000000000000 000000000000000000000000000000000000000     00000000                                                                                                                        000000000000000000
F0010000006610800005000080202229600013552100000000000000000201412100002001MUNDIAL DE ABRASIVOS S.A                          D000000000168300000000000000000000100010010000000000000000000000F0010000006610800520141210000101 00000000000000000000000000000000000000000000000000000000000000000000000000000000000000000000000000000000000000000N 00000000000NCONT   00    00000000000          00000000000000000000000000000000000000000000 000000000000000A000000000000000000000000000000000000000000000 000000000000000000000000000000000000000     00000000                                                                                                                        000000000000000000
F0010000006610900001000007215896800013050500000000000000000201412100002001EDDIER CIRO                                       D000000039646500000000000000000000100010010000000000000000000000F0010000006610900120141210000101 00000000000000000000000000000000000000000000000000000000000000000000000000000000000000000000000000000000000000000N 00000000000NCONT   00    00000000000          00000000000000000000000000000000000000000000 000000000000000A000000000000000000000000000000000000000000000 000000000000000000000000000000000000000     00000000                                                                                                                        000000000000000000
F0010000006610900002000007215896800041450500000000000000000201412100002001EDDIER CIRO                                       C000000032650000000000000000000000100010010000000000000000000000F0010000006610900220141210000101 00000000000000000000000000000000000000000000000000000000000000000000000000000000000000000000000000000000000000000N 00000000000NCONT   00    00000000000          00000000000000000000000000000000000000000000 000000000000000A000000000000000000000000000000000000000000000 000000000000000000000000000000000000000     00000000                                                                                                                        000000000000000000
F0010000006610900003000007215896800042505000000000000000000201412100002001EDDIER CIRO                                       C000000006996500000000000000000000100010010000000000000000000000F0010000006610900320141210000101 00000000000000000000000000000000000000000000000000000000000000000000000000000000000000000000000000000000000000000N 00000000000NCONT   00    00000000000          00000000000000000000000000000000000000000000 000000000000000A000000000000000000000000000000000000000000000 000000000000000000000000000000000000000     00000000                                                                                                                        000000000000000000
F0010000006610900004000007215896800023658300000000000000000201412100002001EDDIER CIRO                                       C000000000261200000000000000000000100010010000000000000000000000F0010000006610900420141210000101 00000000000000000000000000000000000000000000000000000000000000000000000000000000000000000000000000000000000000000N 00000000000NCONT   00    00000000000          00000000000000000000000000000000000000000000 000000000000000A000000000000000000000000000000000000000000000 000000000000000000000000000000000000000     00000000                                                                                                                        000000000000000000
F0010000006610900005000007215896800013552100000000000000000201412100002001EDDIER CIRO                                       D000000000261200000000000000000000100010010000000000000000000000F0010000006610900520141210000101 00000000000000000000000000000000000000000000000000000000000000000000000000000000000000000000000000000000000000000N 00000000000NCONT   00    00000000000          00000000000000000000000000000000000000000000 000000000000000A000000000000000000000000000000000000000000000 000000000000000000000000000000000000000     00000000                                                                                                                        000000000000000000
F0010000006611000001000080202132300013050500000000000000000201412100002001SUM Y SERV DE LA COSTA LTDA                       D000000023340000000000000000000000100010010000000000000000000000F0010000006611000120141210000101 00000000000000000000000000000000000000000000000000000000000000000000000000000000000000000000000000000000000000000N 00000000000NCONT   00    00000000000          00000000000000000000000000000000000000000000 000000000000000A000000000000000000000000000000000000000000000 000000000000000000000000000000000000000     00000000                                                                                                                        000000000000000000
F0010000006611000002000080202132300041450500000000000000000201412100002001SUM Y SERV DE LA COSTA LTDA                       C000000022140000000000000000000000100010010000000000000000000000F0010000006611000220141210000101 00000000000000000000000000000000000000000000000000000000000000000000000000000000000000000000000000000000000000000N 00000000000NCONT   00    00000000000          00000000000000000000000000000000000000000000 000000000000000A000000000000000000000000000000000000000000000 000000000000000000000000000000000000000     00000000                                                                                                                        000000000000000000
F0010000006611000003000080202132300042505000000000000000000201412100002001SUM Y SERV DE LA COSTA LTDA                       C000000001200000000000000000000000100010010000000000000000000000F0010000006611000320141210000101 00000000000000000000000000000000000000000000000000000000000000000000000000000000000000000000000000000000000000000N 00000000000NCONT   00    00000000000          00000000000000000000000000000000000000000000 000000000000000A000000000000000000000000000000000000000000000 000000000000000000000000000000000000000     00000000                                                                                                                        000000000000000000
F0010000006611000004000080202132300023658300000000000000000201412100002001SUM Y SERV DE LA COSTA LTDA                       C000000000177100000000000000000000100010010000000000000000000000F0010000006611000420141210000101 00000000000000000000000000000000000000000000000000000000000000000000000000000000000000000000000000000000000000000N 00000000000NCONT   00    00000000000          00000000000000000000000000000000000000000000 000000000000000A000000000000000000000000000000000000000000000 000000000000000000000000000000000000000     00000000                                                                                                                        000000000000000000
F0010000006611000005000080202132300013552100000000000000000201412100002001SUM Y SERV DE LA COSTA LTDA                       D000000000177100000000000000000000100010010000000000000000000000F0010000006611000520141210000101 00000000000000000000000000000000000000000000000000000000000000000000000000000000000000000000000000000000000000000N 00000000000NCONT   00    00000000000          00000000000000000000000000000000000000000000 000000000000000A000000000000000000000000000000000000000000000 000000000000000000000000000000000000000     00000000                                                                                                                        000000000000000000
F0010000006611100001000086003979400013050500000000000000000201412100002001CALYPSO BARRANQUILLA LTDA                         D000000033390200000000000000000000100010010000000000000000000000F0010000006611100120141210000101 00000000000000000000000000000000000000000000000000000000000000000000000000000000000000000000000000000000000000000N 00000000000NCONT   00    00000000000          00000000000000000000000000000000000000000000 000000000000000A000000000000000000000000000000000000000000000 000000000000000000000000000000000000000     00000000                                                                                                                        000000000000000000
F0010000006611100002000086003979400041450500000000000000000201412100002001CALYPSO BARRANQUILLA LTDA                         C000000028940000000000000000000000100010010000000000000000000000F0010000006611100220141210000101 00000000000000000000000000000000000000000000000000000000000000000000000000000000000000000000000000000000000000000N 00000000000NCONT   00    00000000000          00000000000000000000000000000000000000000000 000000000000000A000000000000000000000000000000000000000000000 000000000000000000000000000000000000000     00000000                                                                                                                        000000000000000000
F0010000006611100003000086003979400042505000000000000000000201412100002001CALYPSO BARRANQUILLA LTDA                         C000000004450200000000000000000000100010010000000000000000000000F0010000006611100320141210000101 00000000000000000000000000000000000000000000000000000000000000000000000000000000000000000000000000000000000000000N 00000000000NCONT   00    00000000000          00000000000000000000000000000000000000000000 000000000000000A000000000000000000000000000000000000000000000 000000000000000000000000000000000000000     00000000                                                                                                                        000000000000000000
F0010000006611100004000086003979400023658300000000000000000201412100002001CALYPSO BARRANQUILLA LTDA                         C000000000231500000000000000000000100010010000000000000000000000F0010000006611100420141210000101 00000000000000000000000000000000000000000000000000000000000000000000000000000000000000000000000000000000000000000N 00000000000NCONT   00    00000000000          00000000000000000000000000000000000000000000 000000000000000A000000000000000000000000000000000000000000000 000000000000000000000000000000000000000     00000000                                                                                                                        000000000000000000
F0010000006611100005000086003979400013552100000000000000000201412100002001CALYPSO BARRANQUILLA LTDA                         D000000000231500000000000000000000100010010000000000000000000000F0010000006611100520141210000101 00000000000000000000000000000000000000000000000000000000000000000000000000000000000000000000000000000000000000000N 00000000000NCONT   00    00000000000          00000000000000000000000000000000000000000000 000000000000000A000000000000000000000000000000000000000000000 000000000000000000000000000000000000000     00000000                                                                                                                        000000000000000000
F0010000006611200001000090001973700013050500000000000000000201412100002001DISTRIBUIDORA Y PAPELERIA VENEPLAS LTDA           D000000027700000000000000000000000100010010000000000000000000000F0010000006611200120141210000101 00000000000000000000000000000000000000000000000000000000000000000000000000000000000000000000000000000000000000000N 00000000000NCONT   00    00000000000          00000000000000000000000000000000000000000000 000000000000000A000000000000000000000000000000000000000000000 000000000000000000000000000000000000000     00000000                                                                                                                        000000000000000000
F0010000006611200002000090001973700041450500000000000000000201412100002001DISTRIBUIDORA Y PAPELERIA VENEPLAS LTDA           C000000027300000000000000000000000100010010000000000000000000000F0010000006611200220141210000101 00000000000000000000000000000000000000000000000000000000000000000000000000000000000000000000000000000000000000000N 00000000000NCONT   00    00000000000          00000000000000000000000000000000000000000000 000000000000000A000000000000000000000000000000000000000000000 000000000000000000000000000000000000000     00000000                                                                                                                        000000000000000000
F0010000006611200003000090001973700042505000000000000000000201412100002001DISTRIBUIDORA Y PAPELERIA VENEPLAS LTDA           C000000000400000000000000000000000100010010000000000000000000000F0010000006611200320141210000101 00000000000000000000000000000000000000000000000000000000000000000000000000000000000000000000000000000000000000000N 00000000000NCONT   00    00000000000          00000000000000000000000000000000000000000000 000000000000000A000000000000000000000000000000000000000000000 000000000000000000000000000000000000000     00000000                                                                                                                        000000000000000000
F0010000006611200004000090001973700023658300000000000000000201412100002001DISTRIBUIDORA Y PAPELERIA VENEPLAS LTDA           C000000000218400000000000000000000100010010000000000000000000000F0010000006611200420141210000101 00000000000000000000000000000000000000000000000000000000000000000000000000000000000000000000000000000000000000000N 00000000000NCONT   00    00000000000          00000000000000000000000000000000000000000000 000000000000000A000000000000000000000000000000000000000000000 000000000000000000000000000000000000000     00000000                                                                                                                        000000000000000000
F0010000006611200005000090001973700013552100000000000000000201412100002001DISTRIBUIDORA Y PAPELERIA VENEPLAS LTDA           D000000000218400000000000000000000100010010000000000000000000000F0010000006611200520141210000101 00000000000000000000000000000000000000000000000000000000000000000000000000000000000000000000000000000000000000000N 00000000000NCONT   00    00000000000          00000000000000000000000000000000000000000000 000000000000000A000000000000000000000000000000000000000000000 000000000000000000000000000000000000000     00000000                                                                                                                        000000000000000000
F0010000006611300001000090044920600013050500000000000000000201412100002001QUATRO CARIBE SAS                                 D000000011100000000000000000000000100010010000000000000000000000F0010000006611300120141210000101 00000000000000000000000000000000000000000000000000000000000000000000000000000000000000000000000000000000000000000N 00000000000NCONT   00    00000000000          00000000000000000000000000000000000000000000 000000000000000A000000000000000000000000000000000000000000000 000000000000000000000000000000000000000     00000000                                                                                                                        000000000000000000
F0010000006611300002000090044920600041450500000000000000000201412100002001QUATRO CARIBE SAS                                 C000000009850000000000000000000000100010010000000000000000000000F0010000006611300220141210000101 00000000000000000000000000000000000000000000000000000000000000000000000000000000000000000000000000000000000000000N 00000000000NCONT   00    00000000000          00000000000000000000000000000000000000000000 000000000000000A000000000000000000000000000000000000000000000 000000000000000000000000000000000000000     00000000                                                                                                                        000000000000000000
F0010000006611300003000090044920600042505000000000000000000201412100002001QUATRO CARIBE SAS                                 C000000001250000000000000000000000100010010000000000000000000000F0010000006611300320141210000101 00000000000000000000000000000000000000000000000000000000000000000000000000000000000000000000000000000000000000000N 00000000000NCONT   00    00000000000          00000000000000000000000000000000000000000000 000000000000000A000000000000000000000000000000000000000000000 000000000000000000000000000000000000000     00000000                                                                                                                        000000000000000000
F0010000006611300004000090044920600023658300000000000000000201412100002001QUATRO CARIBE SAS                                 C000000000078800000000000000000000100010010000000000000000000000F0010000006611300420141210000101 00000000000000000000000000000000000000000000000000000000000000000000000000000000000000000000000000000000000000000N 00000000000NCONT   00    00000000000          00000000000000000000000000000000000000000000 000000000000000A000000000000000000000000000000000000000000000 000000000000000000000000000000000000000     00000000                                                                                                                        000000000000000000
F0010000006611300005000090044920600013552100000000000000000201412100002001QUATRO CARIBE SAS                                 D000000000078800000000000000000000100010010000000000000000000000F0010000006611300520141210000101 00000000000000000000000000000000000000000000000000000000000000000000000000000000000000000000000000000000000000000N 00000000000NCONT   00    00000000000          00000000000000000000000000000000000000000000 000000000000000A000000000000000000000000000000000000000000000 000000000000000000000000000000000000000     00000000                                                                                                                        000000000000000000
F0010000006611400001000000870907300013050500000000000000000201412100002001SURTIDOR FERRETERO                                D000000003132000000000000000000000100010010000000000000000000000F0010000006611400120141210000101 00000000000000000000000000000000000000000000000000000000000000000000000000000000000000000000000000000000000000000N 00000000000NCONT   00    00000000000          00000000000000000000000000000000000000000000 000000000000000A000000000000000000000000000000000000000000000 000000000000000000000000000000000000000     00000000                                                                                                                        000000000000000000
F0010000006611400002000000870907300041450500000000000000000201412100002001SURTIDOR FERRETERO                                C000000002280000000000000000000000100010010000000000000000000000F0010000006611400220141210000101 00000000000000000000000000000000000000000000000000000000000000000000000000000000000000000000000000000000000000000N 00000000000NCONT   00    00000000000          00000000000000000000000000000000000000000000 000000000000000A000000000000000000000000000000000000000000000 000000000000000000000000000000000000000     00000000                                                                                                                        000000000000000000
F0010000006611400003000000870907300041750100000000000000000201412100002001SURTIDOR FERRETERO                                D000000000228000000000000000000000100010010000000000000000000000F0010000006611400320141210000101 00000000000000000000000000000000000000000000000000000000000000000000000000000000000000000000000000000000000000000N 00000000000NCONT   00    00000000000          00000000000000000000000000000000000000000000 000000000000000A000000000000000000000000000000000000000000000 000000000000000000000000000000000000000     00000000                                                                                                                        000000000000000000
F0010000006611400004000000870907300042505000000000000000000201412100002001SURTIDOR FERRETERO                                C000000001080000000000000000000000100010010000000000000000000000F0010000006611400420141210000101 00000000000000000000000000000000000000000000000000000000000000000000000000000000000000000000000000000000000000000N 00000000000NCONT   00    00000000000          00000000000000000000000000000000000000000000 000000000000000A000000000000000000000000000000000000000000000 000000000000000000000000000000000000000     00000000                                                                                                                        000000000000000000
F0010000006611400005000000870907300023658300000000000000000201412100002001SURTIDOR FERRETERO                                C000000000018200000000000000000000100010010000000000000000000000F0010000006611400520141210000101 00000000000000000000000000000000000000000000000000000000000000000000000000000000000000000000000000000000000000000N 00000000000NCONT   00    00000000000          00000000000000000000000000000000000000000000 000000000000000A000000000000000000000000000000000000000000000 000000000000000000000000000000000000000     00000000                                                                                                                        000000000000000000
F0010000006611400006000000870907300013552100000000000000000201412100002001SURTIDOR FERRETERO                                D000000000018200000000000000000000100010010000000000000000000000F0010000006611400620141210000101 00000000000000000000000000000000000000000000000000000000000000000000000000000000000000000000000000000000000000000N 00000000000NCONT   00    00000000000          00000000000000000000000000000000000000000000 000000000000000A000000000000000000000000000000000000000000000 000000000000000000000000000000000000000     00000000                                                                                                                        000000000000000000
F0010000006611500001000089010952800013050500000000000000000201412100002001IND. LITOGRAF. BOSTON S.A.S.                      D000000030680000000000000000000000100010010000000000000000000000F0010000006611500120141210000101 00000000000000000000000000000000000000000000000000000000000000000000000000000000000000000000000000000000000000000N 00000000000NCONT   00    00000000000          00000000000000000000000000000000000000000000 000000000000000A000000000000000000000000000000000000000000000 000000000000000000000000000000000000000     00000000                                                                                                                        000000000000000000
F0010000006611500002000089010952800041450500000000000000000201412100002001IND. LITOGRAF. BOSTON S.A.S.                      C000000027530000000000000000000000100010010000000000000000000000F0010000006611500220141210000101 00000000000000000000000000000000000000000000000000000000000000000000000000000000000000000000000000000000000000000N 00000000000NCONT   00    00000000000          00000000000000000000000000000000000000000000 000000000000000A000000000000000000000000000000000000000000000 000000000000000000000000000000000000000     00000000                                                                                                                        000000000000000000
F0010000006611500003000089010952800042505000000000000000000201412100002001IND. LITOGRAF. BOSTON S.A.S.                      C000000003150000000000000000000000100010010000000000000000000000F0010000006611500320141210000101 00000000000000000000000000000000000000000000000000000000000000000000000000000000000000000000000000000000000000000N 00000000000NCONT   00    00000000000          00000000000000000000000000000000000000000000 000000000000000A000000000000000000000000000000000000000000000 000000000000000000000000000000000000000     00000000                                                                                                                        000000000000000000
F0010000006611500004000089010952800023658300000000000000000201412100002001IND. LITOGRAF. BOSTON S.A.S.                      C000000000220200000000000000000000100010010000000000000000000000F0010000006611500420141210000101 00000000000000000000000000000000000000000000000000000000000000000000000000000000000000000000000000000000000000000N 00000000000NCONT   00    00000000000          00000000000000000000000000000000000000000000 000000000000000A000000000000000000000000000000000000000000000 000000000000000000000000000000000000000     00000000                                                                                                                        000000000000000000
F0010000006611500005000089010952800013552100000000000000000201412100002001IND. LITOGRAF. BOSTON S.A.S.                      D000000000220200000000000000000000100010010000000000000000000000F0010000006611500520141210000101 00000000000000000000000000000000000000000000000000000000000000000000000000000000000000000000000000000000000000000N 00000000000NCONT   00    00000000000          00000000000000000000000000000000000000000000 000000000000000A000000000000000000000000000000000000000000000 000000000000000000000000000000000000000     00000000                                                                                                                        000000000000000000
F0010000006611600001000089030195100013050500000000000000000201412100002001LIBRERIA NACIONAL S.A.                            D000000030420000000000000000000000100010010000000000000000000000F0010000006611600120141210000101 00000000000000000000000000000000000000000000000000000000000000000000000000000000000000000000000000000000000000000N 00000000000NCONT   00    00000000000          00000000000000000000000000000000000000000000 000000000000000A000000000000000000000000000000000000000000000 000000000000000000000000000000000000000     00000000                                                                                                                        000000000000000000
F0010000006611600002000089030195100041450500000000000000000201412100002001LIBRERIA NACIONAL S.A.                            C000000024570000000000000000000000100010010000000000000000000000F0010000006611600220141210000101 00000000000000000000000000000000000000000000000000000000000000000000000000000000000000000000000000000000000000000N 00000000000NCONT   00    00000000000          00000000000000000000000000000000000000000000 000000000000000A000000000000000000000000000000000000000000000 000000000000000000000000000000000000000     00000000                                                                                                                        000000000000000000
F0010000006611600003000089030195100042505000000000000000000201412100002001LIBRERIA NACIONAL S.A.                            C000000005850000000000000000000000100010010000000000000000000000F0010000006611600320141210000101 00000000000000000000000000000000000000000000000000000000000000000000000000000000000000000000000000000000000000000N 00000000000NCONT   00    00000000000          00000000000000000000000000000000000000000000 000000000000000A000000000000000000000000000000000000000000000 000000000000000000000000000000000000000     00000000                                                                                                                        000000000000000000
F0010000006611600004000089030195100023658300000000000000000201412100002001LIBRERIA NACIONAL S.A.                            C000000000196600000000000000000000100010010000000000000000000000F0010000006611600420141210000101 00000000000000000000000000000000000000000000000000000000000000000000000000000000000000000000000000000000000000000N 00000000000NCONT   00    00000000000          00000000000000000000000000000000000000000000 000000000000000A000000000000000000000000000000000000000000000 000000000000000000000000000000000000000     00000000                                                                                                                        000000000000000000
F0010000006611600005000089030195100013552100000000000000000201412100002001LIBRERIA NACIONAL S.A.                            D000000000196600000000000000000000100010010000000000000000000000F0010000006611600520141210000101 00000000000000000000000000000000000000000000000000000000000000000000000000000000000000000000000000000000000000000N 00000000000NCONT   00    00000000000          00000000000000000000000000000000000000000000 000000000000000A000000000000000000000000000000000000000000000 000000000000000000000000000000000000000     00000000                                                                                                                        000000000000000000
F0010000006611700001000089093802000013050500000000000000000201412100002001INPROQUIM SAS                                     D000000058188900000000000000000000100010010000000000000000000000F0010000006611700120141210000101 00000000000000000000000000000000000000000000000000000000000000000000000000000000000000000000000000000000000000000N 00000000000NCONT   00    00000000000          00000000000000000000000000000000000000000000 000000000000000A000000000000000000000000000000000000000000000 000000000000000000000000000000000000000     00000000                                                                                                                        000000000000000000
F0010000006611700002000089093802000041450500000000000000000201412100002001INPROQUIM SAS                                     C000000051000000000000000000000000100010010000000000000000000000F0010000006611700220141210000101 00000000000000000000000000000000000000000000000000000000000000000000000000000000000000000000000000000000000000000N 00000000000NCONT   00    00000000000          00000000000000000000000000000000000000000000 000000000000000A000000000000000000000000000000000000000000000 000000000000000000000000000000000000000     00000000                                                                                                                        000000000000000000
F0010000006611700003000089093802000042505000000000000000000201412100002001INPROQUIM SAS                                     C000000007188900000000000000000000100010010000000000000000000000F0010000006611700320141210000101 00000000000000000000000000000000000000000000000000000000000000000000000000000000000000000000000000000000000000000N 00000000000NCONT   00    00000000000          00000000000000000000000000000000000000000000 000000000000000A000000000000000000000000000000000000000000000 000000000000000000000000000000000000000     00000000                                                                                                                        000000000000000000
F0010000006611700004000089093802000023658300000000000000000201412100002001INPROQUIM SAS                                     C000000000408000000000000000000000100010010000000000000000000000F0010000006611700420141210000101 00000000000000000000000000000000000000000000000000000000000000000000000000000000000000000000000000000000000000000N 00000000000NCONT   00    00000000000          00000000000000000000000000000000000000000000 000000000000000A000000000000000000000000000000000000000000000 000000000000000000000000000000000000000     00000000                                                                                                                        000000000000000000
F0010000006611700005000089093802000013552100000000000000000201412100002001INPROQUIM SAS                                     D000000000408000000000000000000000100010010000000000000000000000F0010000006611700520141210000101 00000000000000000000000000000000000000000000000000000000000000000000000000000000000000000000000000000000000000000N 00000000000NCONT   00    00000000000          00000000000000000000000000000000000000000000 000000000000000A000000000000000000000000000000000000000000000 000000000000000000000000000000000000000     00000000                                                                                                                        000000000000000000
F0010000006611800001000090009800500013050500000000000000000201412100002001GLORIANT CHEMICAL DE COLOMBIA LTDA                D000000040598000000000000000000000100010010000000000000000000000F0010000006611800120141210000101 00000000000000000000000000000000000000000000000000000000000000000000000000000000000000000000000000000000000000000N 00000000000NCONT   00    00000000000          00000000000000000000000000000000000000000000 000000000000000A000000000000000000000000000000000000000000000 000000000000000000000000000000000000000     00000000                                                                                                                        000000000000000000
F0010000006611800002000090009800500041450500000000000000000201412100002001GLORIANT CHEMICAL DE COLOMBIA LTDA                C000000032040000000000000000000000100010010000000000000000000000F0010000006611800220141210000101 00000000000000000000000000000000000000000000000000000000000000000000000000000000000000000000000000000000000000000N 00000000000NCONT   00    00000000000          00000000000000000000000000000000000000000000 000000000000000A000000000000000000000000000000000000000000000 000000000000000000000000000000000000000     00000000                                                                                                                        000000000000000000
F0010000006611800003000090009800500042505000000000000000000201412100002001GLORIANT CHEMICAL DE COLOMBIA LTDA                C000000008558000000000000000000000100010010000000000000000000000F0010000006611800320141210000101 00000000000000000000000000000000000000000000000000000000000000000000000000000000000000000000000000000000000000000N 00000000000NCONT   00    00000000000          00000000000000000000000000000000000000000000 000000000000000A000000000000000000000000000000000000000000000 000000000000000000000000000000000000000     00000000                                                                                                                        000000000000000000
F0010000006611800004000090009800500023658300000000000000000201412100002001GLORIANT CHEMICAL DE COLOMBIA LTDA                C000000000256300000000000000000000100010010000000000000000000000F0010000006611800420141210000101 00000000000000000000000000000000000000000000000000000000000000000000000000000000000000000000000000000000000000000N 00000000000NCONT   00    00000000000          00000000000000000000000000000000000000000000 000000000000000A000000000000000000000000000000000000000000000 000000000000000000000000000000000000000     00000000                                                                                                                        000000000000000000
F0010000006611800005000090009800500013552100000000000000000201412100002001GLORIANT CHEMICAL DE COLOMBIA LTDA                D000000000256300000000000000000000100010010000000000000000000000F0010000006611800520141210000101 00000000000000000000000000000000000000000000000000000000000000000000000000000000000000000000000000000000000000000N 00000000000NCONT   00    00000000000          00000000000000000000000000000000000000000000 000000000000000A000000000000000000000000000000000000000000000 000000000000000000000000000000000000000     00000000                                                                                                                        000000000000000000
F0010000006611900001000089010260300013050500000000000000000201412100002001FEDERICO OSORIO A. S.A.                           D000000051790900000000000000000000100010010000000000000000000000F0010000006611900120141210000101 00000000000000000000000000000000000000000000000000000000000000000000000000000000000000000000000000000000000000000N 00000000000NCONT   00    00000000000          00000000000000000000000000000000000000000000 000000000000000A000000000000000000000000000000000000000000000 000000000000000000000000000000000000000     00000000                                                                                                                        000000000000000000
F0010000006611900002000089010260300041450500000000000000000201412100002001FEDERICO OSORIO A. S.A.                           C000000045820000000000000000000000100010010000000000000000000000F0010000006611900220141210000101 00000000000000000000000000000000000000000000000000000000000000000000000000000000000000000000000000000000000000000N 00000000000NCONT   00    00000000000          00000000000000000000000000000000000000000000 000000000000000A000000000000000000000000000000000000000000000 000000000000000000000000000000000000000     00000000                                                                                                                        000000000000000000
F0010000006611900003000089010260300042505000000000000000000201412100002001FEDERICO OSORIO A. S.A.                           C000000005970900000000000000000000100010010000000000000000000000F0010000006611900320141210000101 00000000000000000000000000000000000000000000000000000000000000000000000000000000000000000000000000000000000000000N 00000000000NCONT   00    00000000000          00000000000000000000000000000000000000000000 000000000000000A000000000000000000000000000000000000000000000 000000000000000000000000000000000000000     00000000                                                                                                                        000000000000000000
F0010000006611900004000089010260300023658300000000000000000201412100002001FEDERICO OSORIO A. S.A.                           C000000000366600000000000000000000100010010000000000000000000000F0010000006611900420141210000101 00000000000000000000000000000000000000000000000000000000000000000000000000000000000000000000000000000000000000000N 00000000000NCONT   00    00000000000          00000000000000000000000000000000000000000000 000000000000000A000000000000000000000000000000000000000000000 000000000000000000000000000000000000000     00000000                                                                                                                        000000000000000000
F0010000006611900005000089010260300013552100000000000000000201412100002001FEDERICO OSORIO A. S.A.                           D000000000366600000000000000000000100010010000000000000000000000F0010000006611900520141210000101 00000000000000000000000000000000000000000000000000000000000000000000000000000000000000000000000000000000000000000N 00000000000NCONT   00    00000000000          00000000000000000000000000000000000000000000 000000000000000A000000000000000000000000000000000000000000000 000000000000000000000000000000000000000     00000000                                                                                                                        000000000000000000
F0010000006612000001000090008711200013050500000000000000000201412100002001PACKAGING SUPPLIERS S.A.                          D000000017337700000000000000000000100010010000000000000000000000F0010000006612000120141210000101 00000000000000000000000000000000000000000000000000000000000000000000000000000000000000000000000000000000000000000N 00000000000NCONT   00    00000000000          00000000000000000000000000000000000000000000 000000000000000A000000000000000000000000000000000000000000000 000000000000000000000000000000000000000     00000000                                                                                                                        000000000000000000
F0010000006612000002000090008711200041450500000000000000000201412100002001PACKAGING SUPPLIERS S.A.                          C000000015740800000000000000000000100010010000000000000000000000F0010000006612000220141210000101 00000000000000000000000000000000000000000000000000000000000000000000000000000000000000000000000000000000000000000N 00000000000NCONT   00    00000000000          00000000000000000000000000000000000000000000 000000000000000A000000000000000000000000000000000000000000000 000000000000000000000000000000000000000     00000000                                                                                                                        000000000000000000
F0010000006612000003000090008711200042505000000000000000000201412100002001PACKAGING SUPPLIERS S.A.                          C000000001596900000000000000000000100010010000000000000000000000F0010000006612000320141210000101 00000000000000000000000000000000000000000000000000000000000000000000000000000000000000000000000000000000000000000N 00000000000NCONT   00    00000000000          00000000000000000000000000000000000000000000 000000000000000A000000000000000000000000000000000000000000000 000000000000000000000000000000000000000     00000000                                                                                                                        000000000000000000
F0010000006612000004000090008711200023658300000000000000000201412100002001PACKAGING SUPPLIERS S.A.                          C000000000125900000000000000000000100010010000000000000000000000F0010000006612000420141210000101 00000000000000000000000000000000000000000000000000000000000000000000000000000000000000000000000000000000000000000N 00000000000NCONT   00    00000000000          00000000000000000000000000000000000000000000 000000000000000A000000000000000000000000000000000000000000000 000000000000000000000000000000000000000     00000000                                                                                                                        000000000000000000
F0010000006612000005000090008711200013552100000000000000000201412100002001PACKAGING SUPPLIERS S.A.                          D000000000125900000000000000000000100010010000000000000000000000F0010000006612000520141210000101 00000000000000000000000000000000000000000000000000000000000000000000000000000000000000000000000000000000000000000N 00000000000NCONT   00    00000000000          00000000000000000000000000000000000000000000 000000000000000A000000000000000000000000000000000000000000000 000000000000000000000000000000000000000     00000000                                                                                                                        000000000000000000
F0010000006612100001000080022903500013050500000000000000000201412100002001TECNOGLASS S.A                                    D000000046223300000000000000000000100010010000000000000000000000F0010000006612100120141210000101 00000000000000000000000000000000000000000000000000000000000000000000000000000000000000000000000000000000000000000N 00000000000NCONT   00    00000000000          00000000000000000000000000000000000000000000 000000000000000A000000000000000000000000000000000000000000000 000000000000000000000000000000000000000     00000000                                                                                                                        000000000000000000
F0010000006612100002000080022903500041450500000000000000000201412100002001TECNOGLASS S.A                                    C000000041317000000000000000000000100010010000000000000000000000F0010000006612100220141210000101 00000000000000000000000000000000000000000000000000000000000000000000000000000000000000000000000000000000000000000N 00000000000NCONT   00    00000000000          00000000000000000000000000000000000000000000 000000000000000A000000000000000000000000000000000000000000000 000000000000000000000000000000000000000     00000000                                                                                                                        000000000000000000
F0010000006612100003000080022903500042505000000000000000000201412100002001TECNOGLASS S.A                                    C000000004906300000000000000000000100010010000000000000000000000F0010000006612100320141210000101 00000000000000000000000000000000000000000000000000000000000000000000000000000000000000000000000000000000000000000N 00000000000NCONT   00    00000000000          00000000000000000000000000000000000000000000 000000000000000A000000000000000000000000000000000000000000000 000000000000000000000000000000000000000     00000000                                                                                                                        000000000000000000
F0010000006612100004000080022903500023658300000000000000000201412100002001TECNOGLASS S.A                                    C000000000330500000000000000000000100010010000000000000000000000F0010000006612100420141210000101 00000000000000000000000000000000000000000000000000000000000000000000000000000000000000000000000000000000000000000N 00000000000NCONT   00    00000000000          00000000000000000000000000000000000000000000 000000000000000A000000000000000000000000000000000000000000000 000000000000000000000000000000000000000     00000000                                                                                                                        000000000000000000
F0010000006612100005000080022903500013552100000000000000000201412100002001TECNOGLASS S.A                                    D000000000330500000000000000000000100010010000000000000000000000F0010000006612100520141210000101 00000000000000000000000000000000000000000000000000000000000000000000000000000000000000000000000000000000000000000N 00000000000NCONT   00    00000000000          00000000000000000000000000000000000000000000 000000000000000A000000000000000000000000000000000000000000000 000000000000000000000000000000000000000     00000000                                                                                                                        000000000000000000
F0010000006612200001000007213847800011050500000000000000000201412100002001ALEJANDRO MEZA ALVAREZ                            D000000004500000000000000000000000100010010000000000000000000000F0010000006612200120141210000101 00000000000000000000000000000000000000000000000000000000000000000000000000000000000000000000000000000000000000000N 00000000000NCONT   00    00000000000          00000000000000000000000000000000000000000000 000000000000000A000000000000000000000000000000000000000000000 000000000000000000000000000000000000000     00000000                                                                                                                        000000000000000000
F0010000006612200002000007213847800041450500000000000000000201412100002001ALEJANDRO MEZA ALVAREZ                            C000000004200000000000000000000000100010010000000000000000000000F0010000006612200220141210000101 00000000000000000000000000000000000000000000000000000000000000000000000000000000000000000000000000000000000000000N 00000000000NCONT   00    00000000000          00000000000000000000000000000000000000000000 000000000000000A000000000000000000000000000000000000000000000 000000000000000000000000000000000000000     00000000                                                                                                                        000000000000000000
F0010000006612200003000007213847800042505000000000000000000201412100002001ALEJANDRO MEZA ALVAREZ                            C000000000300000000000000000000000100010010000000000000000000000F0010000006612200320141210000101 00000000000000000000000000000000000000000000000000000000000000000000000000000000000000000000000000000000000000000N 00000000000NCONT   00    00000000000          00000000000000000000000000000000000000000000 000000000000000A000000000000000000000000000000000000000000000 000000000000000000000000000000000000000     00000000                                                                                                                        000000000000000000
F0010000006612200004000007213847800023658300000000000000000201412100002001ALEJANDRO MEZA ALVAREZ                            C000000000033600000000000000000000100010010000000000000000000000F0010000006612200420141210000101 00000000000000000000000000000000000000000000000000000000000000000000000000000000000000000000000000000000000000000N 00000000000NCONT   00    00000000000          00000000000000000000000000000000000000000000 000000000000000A000000000000000000000000000000000000000000000 000000000000000000000000000000000000000     00000000                                                                                                                        000000000000000000
F0010000006612200005000007213847800013552100000000000000000201412100002001ALEJANDRO MEZA ALVAREZ                            D000000000033600000000000000000000100010010000000000000000000000F0010000006612200520141210000101 00000000000000000000000000000000000000000000000000000000000000000000000000000000000000000000000000000000000000000N 00000000000NCONT   00    00000000000          00000000000000000000000000000000000000000000 000000000000000A000000000000000000000000000000000000000000000 000000000000000000000000000000000000000     00000000                                                                                                                        000000000000000000
F0010000006612300001000086053108300011050500000000000000000201412100002001EL PALACIO DEL ALUMINIO  LTDA                     D000000002300000000000000000000000100010010000000000000000000000F0010000006612300120141210000101 00000000000000000000000000000000000000000000000000000000000000000000000000000000000000000000000000000000000000000N 00000000000NCONT   00    00000000000          00000000000000000000000000000000000000000000 000000000000000A000000000000000000000000000000000000000000000 000000000000000000000000000000000000000     00000000                                                                                                                        000000000000000000
F0010000006612300002000086053108300041450500000000000000000201412100002001EL PALACIO DEL ALUMINIO  LTDA                     C000000002100000000000000000000000100010010000000000000000000000F0010000006612300220141210000101 00000000000000000000000000000000000000000000000000000000000000000000000000000000000000000000000000000000000000000N 00000000000NCONT   00    00000000000          00000000000000000000000000000000000000000000 000000000000000A000000000000000000000000000000000000000000000 000000000000000000000000000000000000000     00000000                                                                                                                        000000000000000000
F0010000006612300003000086053108300042505000000000000000000201412100002001EL PALACIO DEL ALUMINIO  LTDA                     C000000000200000000000000000000000100010010000000000000000000000F0010000006612300320141210000101 00000000000000000000000000000000000000000000000000000000000000000000000000000000000000000000000000000000000000000N 00000000000NCONT   00    00000000000          00000000000000000000000000000000000000000000 000000000000000A000000000000000000000000000000000000000000000 000000000000000000000000000000000000000     00000000                                                                                                                        000000000000000000
F0010000006612300004000086053108300023658300000000000000000201412100002001EL PALACIO DEL ALUMINIO  LTDA                     C000000000016800000000000000000000100010010000000000000000000000F0010000006612300420141210000101 00000000000000000000000000000000000000000000000000000000000000000000000000000000000000000000000000000000000000000N 00000000000NCONT   00    00000000000          00000000000000000000000000000000000000000000 000000000000000A000000000000000000000000000000000000000000000 000000000000000000000000000000000000000     00000000                                                                                                                        000000000000000000
F0010000006612300005000086053108300013552100000000000000000201412100002001EL PALACIO DEL ALUMINIO  LTDA                     D000000000016800000000000000000000100010010000000000000000000000F0010000006612300520141210000101 00000000000000000000000000000000000000000000000000000000000000000000000000000000000000000000000000000000000000000N 00000000000NCONT   00    00000000000          00000000000000000000000000000000000000000000 000000000000000A000000000000000000000000000000000000000000000 000000000000000000000000000000000000000     00000000                                                                                                                        000000000000000000
F0010000006612400001000086053108300011050500000000000000000201412100002001EL PALACIO DEL ALUMINIO  LTDA                     D000000004800000000000000000000000100010010000000000000000000000F0010000006612400120141210000101 00000000000000000000000000000000000000000000000000000000000000000000000000000000000000000000000000000000000000000N 00000000000NCONT   00    00000000000          00000000000000000000000000000000000000000000 000000000000000A000000000000000000000000000000000000000000000 000000000000000000000000000000000000000     00000000                                                                                                                        000000000000000000
F0010000006612400002000086053108300041450500000000000000000201412100002001EL PALACIO DEL ALUMINIO  LTDA                     C000000004170000000000000000000000100010010000000000000000000000F0010000006612400220141210000101 00000000000000000000000000000000000000000000000000000000000000000000000000000000000000000000000000000000000000000N 00000000000NCONT   00    00000000000          00000000000000000000000000000000000000000000 000000000000000A000000000000000000000000000000000000000000000 000000000000000000000000000000000000000     00000000                                                                                                                        000000000000000000
F0010000006612400003000086053108300042505000000000000000000201412100002001EL PALACIO DEL ALUMINIO  LTDA                     C000000000630000000000000000000000100010010000000000000000000000F0010000006612400320141210000101 00000000000000000000000000000000000000000000000000000000000000000000000000000000000000000000000000000000000000000N 00000000000NCONT   00    00000000000          00000000000000000000000000000000000000000000 000000000000000A000000000000000000000000000000000000000000000 000000000000000000000000000000000000000     00000000                                                                                                                        000000000000000000
F0010000006612400004000086053108300023658300000000000000000201412100002001EL PALACIO DEL ALUMINIO  LTDA                     C000000000033400000000000000000000100010010000000000000000000000F0010000006612400420141210000101 00000000000000000000000000000000000000000000000000000000000000000000000000000000000000000000000000000000000000000N 00000000000NCONT   00    00000000000          00000000000000000000000000000000000000000000 000000000000000A000000000000000000000000000000000000000000000 000000000000000000000000000000000000000     00000000                                                                                                                        000000000000000000
F0010000006612400005000086053108300013552100000000000000000201412100002001EL PALACIO DEL ALUMINIO  LTDA                     D000000000033400000000000000000000100010010000000000000000000000F0010000006612400520141210000101 00000000000000000000000000000000000000000000000000000000000000000000000000000000000000000000000000000000000000000N 00000000000NCONT   00    00000000000          00000000000000000000000000000000000000000000 000000000000000A000000000000000000000000000000000000000000000 000000000000000000000000000000000000000     00000000                                                                                                                        000000000000000000
F0010000006612500001000003207718300011050500000000000000000201412100002001MARIA GILMA RAMIREZ GARCIA                        D000000002400000000000000000000000100010010000000000000000000000F0010000006612500120141210000101 00000000000000000000000000000000000000000000000000000000000000000000000000000000000000000000000000000000000000000N 00000000000NCONT   00    00000000000          00000000000000000000000000000000000000000000 000000000000000A000000000000000000000000000000000000000000000 000000000000000000000000000000000000000     00000000                                                                                                                        000000000000000000
F0010000006612500002000003207718300041450500000000000000000201412100002001MARIA GILMA RAMIREZ GARCIA                        C000000002000000000000000000000000100010010000000000000000000000F0010000006612500220141210000101 00000000000000000000000000000000000000000000000000000000000000000000000000000000000000000000000000000000000000000N 00000000000NCONT   00    00000000000          00000000000000000000000000000000000000000000 000000000000000A000000000000000000000000000000000000000000000 000000000000000000000000000000000000000     00000000                                                                                                                        000000000000000000
F0010000006612500003000003207718300042505000000000000000000201412100002001MARIA GILMA RAMIREZ GARCIA                        C000000000400000000000000000000000100010010000000000000000000000F0010000006612500320141210000101 00000000000000000000000000000000000000000000000000000000000000000000000000000000000000000000000000000000000000000N 00000000000NCONT   00    00000000000          00000000000000000000000000000000000000000000 000000000000000A000000000000000000000000000000000000000000000 000000000000000000000000000000000000000     00000000                                                                                                                        000000000000000000
F0010000006612500004000003207718300023658300000000000000000201412100002001MARIA GILMA RAMIREZ GARCIA                        C000000000016000000000000000000000100010010000000000000000000000F0010000006612500420141210000101 00000000000000000000000000000000000000000000000000000000000000000000000000000000000000000000000000000000000000000N 00000000000NCONT   00    00000000000          00000000000000000000000000000000000000000000 000000000000000A000000000000000000000000000000000000000000000 000000000000000000000000000000000000000     00000000                                                                                                                        000000000000000000
F0010000006612500005000003207718300013552100000000000000000201412100002001MARIA GILMA RAMIREZ GARCIA                        D000000000016000000000000000000000100010010000000000000000000000F0010000006612500520141210000101 00000000000000000000000000000000000000000000000000000000000000000000000000000000000000000000000000000000000000000N 00000000000NCONT   00    00000000000          00000000000000000000000000000000000000000000 000000000000000A000000000000000000000000000000000000000000000 000000000000000000000000000000000000000     00000000                                                                                                                        000000000000000000
F0010000006612600001000090015305700011050500000000000000000201412100002001PLASTICOS Y SERVICIOS BARRANQUILLA EU             D000000010400000000000000000000000100010010000000000000000000000F0010000006612600120141210000101 00000000000000000000000000000000000000000000000000000000000000000000000000000000000000000000000000000000000000000N 00000000000NCONT   00    00000000000          00000000000000000000000000000000000000000000 000000000000000A000000000000000000000000000000000000000000000 000000000000000000000000000000000000000     00000000                                                                                                                        000000000000000000
F0010000006612600002000090015305700041450500000000000000000201412100002001PLASTICOS Y SERVICIOS BARRANQUILLA EU             C000000008100000000000000000000000100010010000000000000000000000F0010000006612600220141210000101 00000000000000000000000000000000000000000000000000000000000000000000000000000000000000000000000000000000000000000N 00000000000NCONT   00    00000000000          00000000000000000000000000000000000000000000 000000000000000A000000000000000000000000000000000000000000000 000000000000000000000000000000000000000     00000000                                                                                                                        000000000000000000
F0010000006612600003000090015305700042505000000000000000000201412100002001PLASTICOS Y SERVICIOS BARRANQUILLA EU             C000000002300000000000000000000000100010010000000000000000000000F0010000006612600320141210000101 00000000000000000000000000000000000000000000000000000000000000000000000000000000000000000000000000000000000000000N 00000000000NCONT   00    00000000000          00000000000000000000000000000000000000000000 000000000000000A000000000000000000000000000000000000000000000 000000000000000000000000000000000000000     00000000                                                                                                                        000000000000000000
F0010000006612600004000090015305700023658300000000000000000201412100002001PLASTICOS Y SERVICIOS BARRANQUILLA EU             C000000000064800000000000000000000100010010000000000000000000000F0010000006612600420141210000101 00000000000000000000000000000000000000000000000000000000000000000000000000000000000000000000000000000000000000000N 00000000000NCONT   00    00000000000          00000000000000000000000000000000000000000000 000000000000000A000000000000000000000000000000000000000000000 000000000000000000000000000000000000000     00000000                                                                                                                        000000000000000000
F0010000006612600005000090015305700013552100000000000000000201412100002001PLASTICOS Y SERVICIOS BARRANQUILLA EU             D000000000064800000000000000000000100010010000000000000000000000F0010000006612600520141210000101 00000000000000000000000000000000000000000000000000000000000000000000000000000000000000000000000000000000000000000N 00000000000NCONT   00    00000000000          00000000000000000000000000000000000000000000 000000000000000A000000000000000000000000000000000000000000000 000000000000000000000000000000000000000     00000000                                                                                                                        000000000000000000
F0010000006612700001000090050144800011050500000000000000000201412100002001PLASTICOS JR ASOCIADOS SAS                        D000000002900000000000000000000000100010010000000000000000000000F0010000006612700120141210000101 00000000000000000000000000000000000000000000000000000000000000000000000000000000000000000000000000000000000000000N 00000000000NCONT   00    00000000000          00000000000000000000000000000000000000000000 000000000000000A000000000000000000000000000000000000000000000 000000000000000000000000000000000000000     00000000                                                                                                                        000000000000000000
F0010000006612700002000090050144800041450500000000000000000201412100002001PLASTICOS JR ASOCIADOS SAS                        C000000002600000000000000000000000100010010000000000000000000000F0010000006612700220141210000101 00000000000000000000000000000000000000000000000000000000000000000000000000000000000000000000000000000000000000000N 00000000000NCONT   00    00000000000          00000000000000000000000000000000000000000000 000000000000000A000000000000000000000000000000000000000000000 000000000000000000000000000000000000000     00000000                                                                                                                        000000000000000000
F0010000006612700003000090050144800042505000000000000000000201412100002001PLASTICOS JR ASOCIADOS SAS                        C000000000300000000000000000000000100010010000000000000000000000F0010000006612700320141210000101 00000000000000000000000000000000000000000000000000000000000000000000000000000000000000000000000000000000000000000N 00000000000NCONT   00    00000000000          00000000000000000000000000000000000000000000 000000000000000A000000000000000000000000000000000000000000000 000000000000000000000000000000000000000     00000000                                                                                                                        000000000000000000
F0010000006612700004000090050144800023658300000000000000000201412100002001PLASTICOS JR ASOCIADOS SAS                        C000000000020800000000000000000000100010010000000000000000000000F0010000006612700420141210000101 00000000000000000000000000000000000000000000000000000000000000000000000000000000000000000000000000000000000000000N 00000000000NCONT   00    00000000000          00000000000000000000000000000000000000000000 000000000000000A000000000000000000000000000000000000000000000 000000000000000000000000000000000000000     00000000                                                                                                                        000000000000000000
F0010000006612700005000090050144800013552100000000000000000201412100002001PLASTICOS JR ASOCIADOS SAS                        D000000000020800000000000000000000100010010000000000000000000000F0010000006612700520141210000101 00000000000000000000000000000000000000000000000000000000000000000000000000000000000000000000000000000000000000000N 00000000000NCONT   00    00000000000          00000000000000000000000000000000000000000000 000000000000000A000000000000000000000000000000000000000000000 000000000000000000000000000000000000000     00000000                                                                                                                        000000000000000000
F0010000006612800001000000870907300011050500000000000000000201412100002001SURTIDOR FERRETERO                                D000000002560000000000000000000000100010010000000000000000000000F0010000006612800120141210000101 00000000000000000000000000000000000000000000000000000000000000000000000000000000000000000000000000000000000000000N 00000000000NCONT   00    00000000000          00000000000000000000000000000000000000000000 000000000000000A000000000000000000000000000000000000000000000 000000000000000000000000000000000000000     00000000                                                                                                                        000000000000000000
F0010000006612800002000000870907300041450500000000000000000201412100002001SURTIDOR FERRETERO                                C000000002400000000000000000000000100010010000000000000000000000F0010000006612800220141210000101 00000000000000000000000000000000000000000000000000000000000000000000000000000000000000000000000000000000000000000N 00000000000NCONT   00    00000000000          00000000000000000000000000000000000000000000 000000000000000A000000000000000000000000000000000000000000000 000000000000000000000000000000000000000     00000000                                                                                                                        000000000000000000
F0010000006612800003000000870907300042505000000000000000000201412100002001SURTIDOR FERRETERO                                C000000000160000000000000000000000100010010000000000000000000000F0010000006612800320141210000101 00000000000000000000000000000000000000000000000000000000000000000000000000000000000000000000000000000000000000000N 00000000000NCONT   00    00000000000          00000000000000000000000000000000000000000000 000000000000000A000000000000000000000000000000000000000000000 000000000000000000000000000000000000000     00000000                                                                                                                        000000000000000000
F0010000006612800004000000870907300023658300000000000000000201412100002001SURTIDOR FERRETERO                                C000000000019200000000000000000000100010010000000000000000000000F0010000006612800420141210000101 00000000000000000000000000000000000000000000000000000000000000000000000000000000000000000000000000000000000000000N 00000000000NCONT   00    00000000000          00000000000000000000000000000000000000000000 000000000000000A000000000000000000000000000000000000000000000 000000000000000000000000000000000000000     00000000                                                                                                                        000000000000000000
F0010000006612800005000000870907300013552100000000000000000201412100002001SURTIDOR FERRETERO                                D000000000019200000000000000000000100010010000000000000000000000F0010000006612800520141210000101 00000000000000000000000000000000000000000000000000000000000000000000000000000000000000000000000000000000000000000N 00000000000NCONT   00    00000000000          00000000000000000000000000000000000000000000 000000000000000A000000000000000000000000000000000000000000000 000000000000000000000000000000000000000     00000000                                                                                                                        000000000000000000
