F0010000007162200001000086003979400011050500000000000000000201505220002001CALYPSO BARRANQUILLA LTDA                         D000000001770000000000000000000000100010010000000000000000000000F0010000007162200120150522000101 00000000000000000000000000000000000000000000000000000000000000000000000000000000000000000000000000000000000000000N 00000000000NCONT   00    00000000000          00000000000000000000000000000000000000000000 000000000000000A000000000000000000000000000000000000000000000 000000000000000000000000000000000000000     00000000                                                                                                                        000000000000000000
F0010000007162200002000086003979400041450500000000000000000201505220002001CALYPSO BARRANQUILLA LTDA                         C000000001320000000000000000000000100010010000000000000000000000F0010000007162200220150522000101 00000000000000000000000000000000000000000000000000000000000000000000000000000000000000000000000000000000000000000N 00000000000NCONT   00    00000000000          00000000000000000000000000000000000000000000 000000000000000A000000000000000000000000000000000000000000000 000000000000000000000000000000000000000     00000000                                                                                                                        000000000000000000
F0010000007162200003000086003979400042505000000000000000000201505220002001CALYPSO BARRANQUILLA LTDA                         C000000000450000000000000000000000100010010000000000000000000000F0010000007162200320150522000101 00000000000000000000000000000000000000000000000000000000000000000000000000000000000000000000000000000000000000000N 00000000000NCONT   00    00000000000          00000000000000000000000000000000000000000000 000000000000000A000000000000000000000000000000000000000000000 000000000000000000000000000000000000000     00000000                                                                                                                        000000000000000000
F0010000007162200004000086003979400023658300000000000000000201505220002001CALYPSO BARRANQUILLA LTDA                         C000000000010600000000000000000000100010010000000000000000000000F0010000007162200420150522000101 00000000000000000000000000000000000000000000000000000000000000000000000000000000000000000000000000000000000000000N 00000000000NCONT   00    00000000000          00000000000000000000000000000000000000000000 000000000000000A000000000000000000000000000000000000000000000 000000000000000000000000000000000000000     00000000                                                                                                                        000000000000000000
F0010000007162200005000086003979400013552100000000000000000201505220002001CALYPSO BARRANQUILLA LTDA                         D000000000010600000000000000000000100010010000000000000000000000F0010000007162200520150522000101 00000000000000000000000000000000000000000000000000000000000000000000000000000000000000000000000000000000000000000N 00000000000NCONT   00    00000000000          00000000000000000000000000000000000000000000 000000000000000A000000000000000000000000000000000000000000000 000000000000000000000000000000000000000     00000000                                                                                                                        000000000000000000
F0010000007162300001000080201601700013050500000000000000000201505220002001PLASTICOS SUPERIOR S.A.                           D000000044660000000000000000000000100010010000000000000000000000F0010000007162300120150522000101 00000000000000000000000000000000000000000000000000000000000000000000000000000000000000000000000000000000000000000N 00000000000NCONT   00    00000000000          00000000000000000000000000000000000000000000 000000000000000A000000000000000000000000000000000000000000000 000000000000000000000000000000000000000     00000000                                                                                                                        000000000000000000
F0010000007162300002000080201601700041450500000000000000000201505220002001PLASTICOS SUPERIOR S.A.                           C000000041160000000000000000000000100010010000000000000000000000F0010000007162300220150522000101 00000000000000000000000000000000000000000000000000000000000000000000000000000000000000000000000000000000000000000N 00000000000NCONT   00    00000000000          00000000000000000000000000000000000000000000 000000000000000A000000000000000000000000000000000000000000000 000000000000000000000000000000000000000     00000000                                                                                                                        000000000000000000
F0010000007162300003000080201601700042505000000000000000000201505220002001PLASTICOS SUPERIOR S.A.                           C000000003500000000000000000000000100010010000000000000000000000F0010000007162300320150522000101 00000000000000000000000000000000000000000000000000000000000000000000000000000000000000000000000000000000000000000N 00000000000NCONT   00    00000000000          00000000000000000000000000000000000000000000 000000000000000A000000000000000000000000000000000000000000000 000000000000000000000000000000000000000     00000000                                                                                                                        000000000000000000
F0010000007162300004000080201601700023658300000000000000000201505220002001PLASTICOS SUPERIOR S.A.                           C000000000329300000000000000000000100010010000000000000000000000F0010000007162300420150522000101 00000000000000000000000000000000000000000000000000000000000000000000000000000000000000000000000000000000000000000N 00000000000NCONT   00    00000000000          00000000000000000000000000000000000000000000 000000000000000A000000000000000000000000000000000000000000000 000000000000000000000000000000000000000     00000000                                                                                                                        000000000000000000
F0010000007162300005000080201601700013552100000000000000000201505220002001PLASTICOS SUPERIOR S.A.                           D000000000329300000000000000000000100010010000000000000000000000F0010000007162300520150522000101 00000000000000000000000000000000000000000000000000000000000000000000000000000000000000000000000000000000000000000N 00000000000NCONT   00    00000000000          00000000000000000000000000000000000000000000 000000000000000A000000000000000000000000000000000000000000000 000000000000000000000000000000000000000     00000000                                                                                                                        000000000000000000
F0010000007162400001000090059038200013050500000000000000000201505220002001PRODUFENIX SAS                                    D000000005140000000000000000000000100010010000000000000000000000F0010000007162400120150522000101 00000000000000000000000000000000000000000000000000000000000000000000000000000000000000000000000000000000000000000N 00000000000NCONT   00    00000000000          00000000000000000000000000000000000000000000 000000000000000A000000000000000000000000000000000000000000000 000000000000000000000000000000000000000     00000000                                                                                                                        000000000000000000
F0010000007162400002000090059038200041450500000000000000000201505220002001PRODUFENIX SAS                                    C000000004140000000000000000000000100010010000000000000000000000F0010000007162400220150522000101 00000000000000000000000000000000000000000000000000000000000000000000000000000000000000000000000000000000000000000N 00000000000NCONT   00    00000000000          00000000000000000000000000000000000000000000 000000000000000A000000000000000000000000000000000000000000000 000000000000000000000000000000000000000     00000000                                                                                                                        000000000000000000
F0010000007162400003000090059038200042505000000000000000000201505220002001PRODUFENIX SAS                                    C000000001000000000000000000000000100010010000000000000000000000F0010000007162400320150522000101 00000000000000000000000000000000000000000000000000000000000000000000000000000000000000000000000000000000000000000N 00000000000NCONT   00    00000000000          00000000000000000000000000000000000000000000 000000000000000A000000000000000000000000000000000000000000000 000000000000000000000000000000000000000     00000000                                                                                                                        000000000000000000
F0010000007162400004000090059038200023658300000000000000000201505220002001PRODUFENIX SAS                                    C000000000033100000000000000000000100010010000000000000000000000F0010000007162400420150522000101 00000000000000000000000000000000000000000000000000000000000000000000000000000000000000000000000000000000000000000N 00000000000NCONT   00    00000000000          00000000000000000000000000000000000000000000 000000000000000A000000000000000000000000000000000000000000000 000000000000000000000000000000000000000     00000000                                                                                                                        000000000000000000
F0010000007162400005000090059038200013552100000000000000000201505220002001PRODUFENIX SAS                                    D000000000033100000000000000000000100010010000000000000000000000F0010000007162400520150522000101 00000000000000000000000000000000000000000000000000000000000000000000000000000000000000000000000000000000000000000N 00000000000NCONT   00    00000000000          00000000000000000000000000000000000000000000 000000000000000A000000000000000000000000000000000000000000000 000000000000000000000000000000000000000     00000000                                                                                                                        000000000000000000
F0010000007162500001000089011492400013050500000000000000000201505220002001AGE. CAUCHO SOL DE LA COSTA  SAS                  D000000054332900000000000000000000100010010000000000000000000000F0010000007162500120150522000101 00000000000000000000000000000000000000000000000000000000000000000000000000000000000000000000000000000000000000000N 00000000000NCONT   00    00000000000          00000000000000000000000000000000000000000000 000000000000000A000000000000000000000000000000000000000000000 000000000000000000000000000000000000000     00000000                                                                                                                        000000000000000000
F0010000007162500002000089011492400041450500000000000000000201505220002001AGE. CAUCHO SOL DE LA COSTA  SAS                  C000000031610000000000000000000000100010010000000000000000000000F0010000007162500220150522000101 00000000000000000000000000000000000000000000000000000000000000000000000000000000000000000000000000000000000000000N 00000000000NCONT   00    00000000000          00000000000000000000000000000000000000000000 000000000000000A000000000000000000000000000000000000000000000 000000000000000000000000000000000000000     00000000                                                                                                                        000000000000000000
F0010000007162500003000089011492400042505000000000000000000201505220002001AGE. CAUCHO SOL DE LA COSTA  SAS                  C000000022722900000000000000000000100010010000000000000000000000F0010000007162500320150522000101 00000000000000000000000000000000000000000000000000000000000000000000000000000000000000000000000000000000000000000N 00000000000NCONT   00    00000000000          00000000000000000000000000000000000000000000 000000000000000A000000000000000000000000000000000000000000000 000000000000000000000000000000000000000     00000000                                                                                                                        000000000000000000
F0010000007162500004000089011492400023658300000000000000000201505220002001AGE. CAUCHO SOL DE LA COSTA  SAS                  C000000000252900000000000000000000100010010000000000000000000000F0010000007162500420150522000101 00000000000000000000000000000000000000000000000000000000000000000000000000000000000000000000000000000000000000000N 00000000000NCONT   00    00000000000          00000000000000000000000000000000000000000000 000000000000000A000000000000000000000000000000000000000000000 000000000000000000000000000000000000000     00000000                                                                                                                        000000000000000000
F0010000007162500005000089011492400013552100000000000000000201505220002001AGE. CAUCHO SOL DE LA COSTA  SAS                  D000000000252900000000000000000000100010010000000000000000000000F0010000007162500520150522000101 00000000000000000000000000000000000000000000000000000000000000000000000000000000000000000000000000000000000000000N 00000000000NCONT   00    00000000000          00000000000000000000000000000000000000000000 000000000000000A000000000000000000000000000000000000000000000 000000000000000000000000000000000000000     00000000                                                                                                                        000000000000000000
F0010000007162600001000089011492400013050500000000000000000201505220002001AGE. CAUCHO SOL DE LA COSTA  SAS                  D000000035131100000000000000000000100010010000000000000000000000F0010000007162600120150522000101 00000000000000000000000000000000000000000000000000000000000000000000000000000000000000000000000000000000000000000N 00000000000NCONT   00    00000000000          00000000000000000000000000000000000000000000 000000000000000A000000000000000000000000000000000000000000000 000000000000000000000000000000000000000     00000000                                                                                                                        000000000000000000
F0010000007162600002000089011492400041450500000000000000000201505220002001AGE. CAUCHO SOL DE LA COSTA  SAS                  C000000018880000000000000000000000100010010000000000000000000000F0010000007162600220150522000101 00000000000000000000000000000000000000000000000000000000000000000000000000000000000000000000000000000000000000000N 00000000000NCONT   00    00000000000          00000000000000000000000000000000000000000000 000000000000000A000000000000000000000000000000000000000000000 000000000000000000000000000000000000000     00000000                                                                                                                        000000000000000000
F0010000007162600003000089011492400042505000000000000000000201505220002001AGE. CAUCHO SOL DE LA COSTA  SAS                  C000000016251100000000000000000000100010010000000000000000000000F0010000007162600320150522000101 00000000000000000000000000000000000000000000000000000000000000000000000000000000000000000000000000000000000000000N 00000000000NCONT   00    00000000000          00000000000000000000000000000000000000000000 000000000000000A000000000000000000000000000000000000000000000 000000000000000000000000000000000000000     00000000                                                                                                                        000000000000000000
F0010000007162600004000089011492400023658300000000000000000201505220002001AGE. CAUCHO SOL DE LA COSTA  SAS                  C000000000151000000000000000000000100010010000000000000000000000F0010000007162600420150522000101 00000000000000000000000000000000000000000000000000000000000000000000000000000000000000000000000000000000000000000N 00000000000NCONT   00    00000000000          00000000000000000000000000000000000000000000 000000000000000A000000000000000000000000000000000000000000000 000000000000000000000000000000000000000     00000000                                                                                                                        000000000000000000
F0010000007162600005000089011492400013552100000000000000000201505220002001AGE. CAUCHO SOL DE LA COSTA  SAS                  D000000000151000000000000000000000100010010000000000000000000000F0010000007162600520150522000101 00000000000000000000000000000000000000000000000000000000000000000000000000000000000000000000000000000000000000000N 00000000000NCONT   00    00000000000          00000000000000000000000000000000000000000000 000000000000000A000000000000000000000000000000000000000000000 000000000000000000000000000000000000000     00000000                                                                                                                        000000000000000000
F0010000007162700001000083001155300013050500000000000000000201505220002001COMERCIALIZADORA RUBEN S LTDA                     D000000045506100000000000000000000100010010000000000000000000000F0010000007162700120150522000101 00000000000000000000000000000000000000000000000000000000000000000000000000000000000000000000000000000000000000000N 00000000000NCONT   00    00000000000          00000000000000000000000000000000000000000000 000000000000000A000000000000000000000000000000000000000000000 000000000000000000000000000000000000000     00000000                                                                                                                        000000000000000000
F0010000007162700002000083001155300041450500000000000000000201505220002001COMERCIALIZADORA RUBEN S LTDA                     C000000039662500000000000000000000100010010000000000000000000000F0010000007162700220150522000101 00000000000000000000000000000000000000000000000000000000000000000000000000000000000000000000000000000000000000000N 00000000000NCONT   00    00000000000          00000000000000000000000000000000000000000000 000000000000000A000000000000000000000000000000000000000000000 000000000000000000000000000000000000000     00000000                                                                                                                        000000000000000000
F0010000007162700003000083001155300042505000000000000000000201505220002001COMERCIALIZADORA RUBEN S LTDA                     C000000005843600000000000000000000100010010000000000000000000000F0010000007162700320150522000101 00000000000000000000000000000000000000000000000000000000000000000000000000000000000000000000000000000000000000000N 00000000000NCONT   00    00000000000          00000000000000000000000000000000000000000000 000000000000000A000000000000000000000000000000000000000000000 000000000000000000000000000000000000000     00000000                                                                                                                        000000000000000000
F0010000007162700004000083001155300023658300000000000000000201505220002001COMERCIALIZADORA RUBEN S LTDA                     C000000000317300000000000000000000100010010000000000000000000000F0010000007162700420150522000101 00000000000000000000000000000000000000000000000000000000000000000000000000000000000000000000000000000000000000000N 00000000000NCONT   00    00000000000          00000000000000000000000000000000000000000000 000000000000000A000000000000000000000000000000000000000000000 000000000000000000000000000000000000000     00000000                                                                                                                        000000000000000000
F0010000007162700005000083001155300013552100000000000000000201505220002001COMERCIALIZADORA RUBEN S LTDA                     D000000000317300000000000000000000100010010000000000000000000000F0010000007162700520150522000101 00000000000000000000000000000000000000000000000000000000000000000000000000000000000000000000000000000000000000000N 00000000000NCONT   00    00000000000          00000000000000000000000000000000000000000000 000000000000000A000000000000000000000000000000000000000000000 000000000000000000000000000000000000000     00000000                                                                                                                        000000000000000000
F0010000007162800001000089070997800013050500000000000000000201505220002001CENTRAL DE TORNILLOS                              D000000009310000000000000000000000100010010000000000000000000000F0010000007162800120150522000101 00000000000000000000000000000000000000000000000000000000000000000000000000000000000000000000000000000000000000000N 00000000000NCONT   00    00000000000          00000000000000000000000000000000000000000000 000000000000000A000000000000000000000000000000000000000000000 000000000000000000000000000000000000000     00000000                                                                                                                        000000000000000000
F0010000007162800002000089070997800041450500000000000000000201505220002001CENTRAL DE TORNILLOS                              C000000008460000000000000000000000100010010000000000000000000000F0010000007162800220150522000101 00000000000000000000000000000000000000000000000000000000000000000000000000000000000000000000000000000000000000000N 00000000000NCONT   00    00000000000          00000000000000000000000000000000000000000000 000000000000000A000000000000000000000000000000000000000000000 000000000000000000000000000000000000000     00000000                                                                                                                        000000000000000000
F0010000007162800003000089070997800042505000000000000000000201505220002001CENTRAL DE TORNILLOS                              C000000000850000000000000000000000100010010000000000000000000000F0010000007162800320150522000101 00000000000000000000000000000000000000000000000000000000000000000000000000000000000000000000000000000000000000000N 00000000000NCONT   00    00000000000          00000000000000000000000000000000000000000000 000000000000000A000000000000000000000000000000000000000000000 000000000000000000000000000000000000000     00000000                                                                                                                        000000000000000000
F0010000007162800004000089070997800023658300000000000000000201505220002001CENTRAL DE TORNILLOS                              C000000000067700000000000000000000100010010000000000000000000000F0010000007162800420150522000101 00000000000000000000000000000000000000000000000000000000000000000000000000000000000000000000000000000000000000000N 00000000000NCONT   00    00000000000          00000000000000000000000000000000000000000000 000000000000000A000000000000000000000000000000000000000000000 000000000000000000000000000000000000000     00000000                                                                                                                        000000000000000000
F0010000007162800005000089070997800013552100000000000000000201505220002001CENTRAL DE TORNILLOS                              D000000000067700000000000000000000100010010000000000000000000000F0010000007162800520150522000101 00000000000000000000000000000000000000000000000000000000000000000000000000000000000000000000000000000000000000000N 00000000000NCONT   00    00000000000          00000000000000000000000000000000000000000000 000000000000000A000000000000000000000000000000000000000000000 000000000000000000000000000000000000000     00000000                                                                                                                        000000000000000000
F0010000007162900001000000876579700013050500000000000000000201505220002001JOSE LUIS MUÑOZ                                  D000000003980000000000000000000000100010010000000000000000000000F0010000007162900120150522000101 00000000000000000000000000000000000000000000000000000000000000000000000000000000000000000000000000000000000000000N 00000000000NCONT   00    00000000000          00000000000000000000000000000000000000000000 000000000000000A000000000000000000000000000000000000000000000 000000000000000000000000000000000000000     00000000                                                                                                                        000000000000000000
F0010000007162900002000000876579700041450500000000000000000201505220002001JOSE LUIS MUÑOZ                                  C000000003680000000000000000000000100010010000000000000000000000F0010000007162900220150522000101 00000000000000000000000000000000000000000000000000000000000000000000000000000000000000000000000000000000000000000N 00000000000NCONT   00    00000000000          00000000000000000000000000000000000000000000 000000000000000A000000000000000000000000000000000000000000000 000000000000000000000000000000000000000     00000000                                                                                                                        000000000000000000
F0010000007162900003000000876579700042505000000000000000000201505220002001JOSE LUIS MUÑOZ                                  C000000000300000000000000000000000100010010000000000000000000000F0010000007162900320150522000101 00000000000000000000000000000000000000000000000000000000000000000000000000000000000000000000000000000000000000000N 00000000000NCONT   00    00000000000          00000000000000000000000000000000000000000000 000000000000000A000000000000000000000000000000000000000000000 000000000000000000000000000000000000000     00000000                                                                                                                        000000000000000000
F0010000007162900004000000876579700023658300000000000000000201505220002001JOSE LUIS MUÑOZ                                  C000000000029400000000000000000000100010010000000000000000000000F0010000007162900420150522000101 00000000000000000000000000000000000000000000000000000000000000000000000000000000000000000000000000000000000000000N 00000000000NCONT   00    00000000000          00000000000000000000000000000000000000000000 000000000000000A000000000000000000000000000000000000000000000 000000000000000000000000000000000000000     00000000                                                                                                                        000000000000000000
F0010000007162900005000000876579700013552100000000000000000201505220002001JOSE LUIS MUÑOZ                                  D000000000029400000000000000000000100010010000000000000000000000F0010000007162900520150522000101 00000000000000000000000000000000000000000000000000000000000000000000000000000000000000000000000000000000000000000N 00000000000NCONT   00    00000000000          00000000000000000000000000000000000000000000 000000000000000A000000000000000000000000000000000000000000000 000000000000000000000000000000000000000     00000000                                                                                                                        000000000000000000
F0010000007163000001000080016665600013050500000000000000000201505220002001SUMICAL DE ANTIOQUIA S.A.S                        D000000048552400000000000000000000100010010000000000000000000000F0010000007163000120150522000101 00000000000000000000000000000000000000000000000000000000000000000000000000000000000000000000000000000000000000000N 00000000000NCONT   00    00000000000          00000000000000000000000000000000000000000000 000000000000000A000000000000000000000000000000000000000000000 000000000000000000000000000000000000000     00000000                                                                                                                        000000000000000000
F0010000007163000002000080016665600041450500000000000000000201505220002001SUMICAL DE ANTIOQUIA S.A.S                        C000000041430000000000000000000000100010010000000000000000000000F0010000007163000220150522000101 00000000000000000000000000000000000000000000000000000000000000000000000000000000000000000000000000000000000000000N 00000000000NCONT   00    00000000000          00000000000000000000000000000000000000000000 000000000000000A000000000000000000000000000000000000000000000 000000000000000000000000000000000000000     00000000                                                                                                                        000000000000000000
F0010000007163000003000080016665600042505000000000000000000201505220002001SUMICAL DE ANTIOQUIA S.A.S                        C000000007122400000000000000000000100010010000000000000000000000F0010000007163000320150522000101 00000000000000000000000000000000000000000000000000000000000000000000000000000000000000000000000000000000000000000N 00000000000NCONT   00    00000000000          00000000000000000000000000000000000000000000 000000000000000A000000000000000000000000000000000000000000000 000000000000000000000000000000000000000     00000000                                                                                                                        000000000000000000
F0010000007163000004000080016665600023658300000000000000000201505220002001SUMICAL DE ANTIOQUIA S.A.S                        C000000000331400000000000000000000100010010000000000000000000000F0010000007163000420150522000101 00000000000000000000000000000000000000000000000000000000000000000000000000000000000000000000000000000000000000000N 00000000000NCONT   00    00000000000          00000000000000000000000000000000000000000000 000000000000000A000000000000000000000000000000000000000000000 000000000000000000000000000000000000000     00000000                                                                                                                        000000000000000000
F0010000007163000005000080016665600013552100000000000000000201505220002001SUMICAL DE ANTIOQUIA S.A.S                        D000000000331400000000000000000000100010010000000000000000000000F0010000007163000520150522000101 00000000000000000000000000000000000000000000000000000000000000000000000000000000000000000000000000000000000000000N 00000000000NCONT   00    00000000000          00000000000000000000000000000000000000000000 000000000000000A000000000000000000000000000000000000000000000 000000000000000000000000000000000000000     00000000                                                                                                                        000000000000000000
F0010000007163100001000090001973700013050500000000000000000201505220002001DISTRIBUIDORA Y PAPELERIA VENEPLAS LTDA           D000000011150000000000000000000000100010010000000000000000000000F0010000007163100120150522000101 00000000000000000000000000000000000000000000000000000000000000000000000000000000000000000000000000000000000000000N 00000000000NCONT   00    00000000000          00000000000000000000000000000000000000000000 000000000000000A000000000000000000000000000000000000000000000 000000000000000000000000000000000000000     00000000                                                                                                                        000000000000000000
F0010000007163100002000090001973700041450500000000000000000201505220002001DISTRIBUIDORA Y PAPELERIA VENEPLAS LTDA           C000000010700000000000000000000000100010010000000000000000000000F0010000007163100220150522000101 00000000000000000000000000000000000000000000000000000000000000000000000000000000000000000000000000000000000000000N 00000000000NCONT   00    00000000000          00000000000000000000000000000000000000000000 000000000000000A000000000000000000000000000000000000000000000 000000000000000000000000000000000000000     00000000                                                                                                                        000000000000000000
F0010000007163100003000090001973700042505000000000000000000201505220002001DISTRIBUIDORA Y PAPELERIA VENEPLAS LTDA           C000000000450000000000000000000000100010010000000000000000000000F0010000007163100320150522000101 00000000000000000000000000000000000000000000000000000000000000000000000000000000000000000000000000000000000000000N 00000000000NCONT   00    00000000000          00000000000000000000000000000000000000000000 000000000000000A000000000000000000000000000000000000000000000 000000000000000000000000000000000000000     00000000                                                                                                                        000000000000000000
F0010000007163100004000090001973700023658300000000000000000201505220002001DISTRIBUIDORA Y PAPELERIA VENEPLAS LTDA           C000000000085600000000000000000000100010010000000000000000000000F0010000007163100420150522000101 00000000000000000000000000000000000000000000000000000000000000000000000000000000000000000000000000000000000000000N 00000000000NCONT   00    00000000000          00000000000000000000000000000000000000000000 000000000000000A000000000000000000000000000000000000000000000 000000000000000000000000000000000000000     00000000                                                                                                                        000000000000000000
F0010000007163100005000090001973700013552100000000000000000201505220002001DISTRIBUIDORA Y PAPELERIA VENEPLAS LTDA           D000000000085600000000000000000000100010010000000000000000000000F0010000007163100520150522000101 00000000000000000000000000000000000000000000000000000000000000000000000000000000000000000000000000000000000000000N 00000000000NCONT   00    00000000000          00000000000000000000000000000000000000000000 000000000000000A000000000000000000000000000000000000000000000 000000000000000000000000000000000000000     00000000                                                                                                                        000000000000000000
F0010000007163200001000089080078800013050500000000000000000201505220002001SUMATEC S.A.                                      D000000010465000000000000000000000100010010000000000000000000000F0010000007163200120150522000101 00000000000000000000000000000000000000000000000000000000000000000000000000000000000000000000000000000000000000000N 00000000000NCONT   00    00000000000          00000000000000000000000000000000000000000000 000000000000000A000000000000000000000000000000000000000000000 000000000000000000000000000000000000000     00000000                                                                                                                        000000000000000000
F0010000007163200002000089080078800041450500000000000000000201505220002001SUMATEC S.A.                                      C000000007920000000000000000000000100010010000000000000000000000F0010000007163200220150522000101 00000000000000000000000000000000000000000000000000000000000000000000000000000000000000000000000000000000000000000N 00000000000NCONT   00    00000000000          00000000000000000000000000000000000000000000 000000000000000A000000000000000000000000000000000000000000000 000000000000000000000000000000000000000     00000000                                                                                                                        000000000000000000
F0010000007163200003000089080078800042505000000000000000000201505220002001SUMATEC S.A.                                      C000000002545000000000000000000000100010010000000000000000000000F0010000007163200320150522000101 00000000000000000000000000000000000000000000000000000000000000000000000000000000000000000000000000000000000000000N 00000000000NCONT   00    00000000000          00000000000000000000000000000000000000000000 000000000000000A000000000000000000000000000000000000000000000 000000000000000000000000000000000000000     00000000                                                                                                                        000000000000000000
F0010000007163200004000089080078800023658300000000000000000201505220002001SUMATEC S.A.                                      C000000000063400000000000000000000100010010000000000000000000000F0010000007163200420150522000101 00000000000000000000000000000000000000000000000000000000000000000000000000000000000000000000000000000000000000000N 00000000000NCONT   00    00000000000          00000000000000000000000000000000000000000000 000000000000000A000000000000000000000000000000000000000000000 000000000000000000000000000000000000000     00000000                                                                                                                        000000000000000000
F0010000007163200005000089080078800013552100000000000000000201505220002001SUMATEC S.A.                                      D000000000063400000000000000000000100010010000000000000000000000F0010000007163200520150522000101 00000000000000000000000000000000000000000000000000000000000000000000000000000000000000000000000000000000000000000N 00000000000NCONT   00    00000000000          00000000000000000000000000000000000000000000 000000000000000A000000000000000000000000000000000000000000000 000000000000000000000000000000000000000     00000000                                                                                                                        000000000000000000
F0010000007163300001000080016664500013050500000000000000000201505220002001TELAPLAS PANCER SAS                               D000000020955000000000000000000000100010010000000000000000000000F0010000007163300120150522000101 00000000000000000000000000000000000000000000000000000000000000000000000000000000000000000000000000000000000000000N 00000000000NCONT   00    00000000000          00000000000000000000000000000000000000000000 000000000000000A000000000000000000000000000000000000000000000 000000000000000000000000000000000000000     00000000                                                                                                                        000000000000000000
F0010000007163300002000080016664500041450500000000000000000201505220002001TELAPLAS PANCER SAS                               C000000016780000000000000000000000100010010000000000000000000000F0010000007163300220150522000101 00000000000000000000000000000000000000000000000000000000000000000000000000000000000000000000000000000000000000000N 00000000000NCONT   00    00000000000          00000000000000000000000000000000000000000000 000000000000000A000000000000000000000000000000000000000000000 000000000000000000000000000000000000000     00000000                                                                                                                        000000000000000000
F0010000007163300003000080016664500042505000000000000000000201505220002001TELAPLAS PANCER SAS                               C000000004175000000000000000000000100010010000000000000000000000F0010000007163300320150522000101 00000000000000000000000000000000000000000000000000000000000000000000000000000000000000000000000000000000000000000N 00000000000NCONT   00    00000000000          00000000000000000000000000000000000000000000 000000000000000A000000000000000000000000000000000000000000000 000000000000000000000000000000000000000     00000000                                                                                                                        000000000000000000
F0010000007163300004000080016664500023658300000000000000000201505220002001TELAPLAS PANCER SAS                               C000000000134200000000000000000000100010010000000000000000000000F0010000007163300420150522000101 00000000000000000000000000000000000000000000000000000000000000000000000000000000000000000000000000000000000000000N 00000000000NCONT   00    00000000000          00000000000000000000000000000000000000000000 000000000000000A000000000000000000000000000000000000000000000 000000000000000000000000000000000000000     00000000                                                                                                                        000000000000000000
F0010000007163300005000080016664500013552100000000000000000201505220002001TELAPLAS PANCER SAS                               D000000000134200000000000000000000100010010000000000000000000000F0010000007163300520150522000101 00000000000000000000000000000000000000000000000000000000000000000000000000000000000000000000000000000000000000000N 00000000000NCONT   00    00000000000          00000000000000000000000000000000000000000000 000000000000000A000000000000000000000000000000000000000000000 000000000000000000000000000000000000000     00000000                                                                                                                        000000000000000000
F0010000007163400001000090048173700013050500000000000000000201505220002001ESPECIALIDADES QUIMICAS DEL NORTE SAS             D000000008145000000000000000000000100010010000000000000000000000F0010000007163400120150522000101 00000000000000000000000000000000000000000000000000000000000000000000000000000000000000000000000000000000000000000N 00000000000NCONT   00    00000000000          00000000000000000000000000000000000000000000 000000000000000A000000000000000000000000000000000000000000000 000000000000000000000000000000000000000     00000000                                                                                                                        000000000000000000
F0010000007163400002000090048173700041450500000000000000000201505220002001ESPECIALIDADES QUIMICAS DEL NORTE SAS             C000000007645000000000000000000000100010010000000000000000000000F0010000007163400220150522000101 00000000000000000000000000000000000000000000000000000000000000000000000000000000000000000000000000000000000000000N 00000000000NCONT   00    00000000000          00000000000000000000000000000000000000000000 000000000000000A000000000000000000000000000000000000000000000 000000000000000000000000000000000000000     00000000                                                                                                                        000000000000000000
F0010000007163400003000090048173700042505000000000000000000201505220002001ESPECIALIDADES QUIMICAS DEL NORTE SAS             C000000000500000000000000000000000100010010000000000000000000000F0010000007163400320150522000101 00000000000000000000000000000000000000000000000000000000000000000000000000000000000000000000000000000000000000000N 00000000000NCONT   00    00000000000          00000000000000000000000000000000000000000000 000000000000000A000000000000000000000000000000000000000000000 000000000000000000000000000000000000000     00000000                                                                                                                        000000000000000000
F0010000007163400004000090048173700023658300000000000000000201505220002001ESPECIALIDADES QUIMICAS DEL NORTE SAS             C000000000061200000000000000000000100010010000000000000000000000F0010000007163400420150522000101 00000000000000000000000000000000000000000000000000000000000000000000000000000000000000000000000000000000000000000N 00000000000NCONT   00    00000000000          00000000000000000000000000000000000000000000 000000000000000A000000000000000000000000000000000000000000000 000000000000000000000000000000000000000     00000000                                                                                                                        000000000000000000
F0010000007163400005000090048173700013552100000000000000000201505220002001ESPECIALIDADES QUIMICAS DEL NORTE SAS             D000000000061200000000000000000000100010010000000000000000000000F0010000007163400520150522000101 00000000000000000000000000000000000000000000000000000000000000000000000000000000000000000000000000000000000000000N 00000000000NCONT   00    00000000000          00000000000000000000000000000000000000000000 000000000000000A000000000000000000000000000000000000000000000 000000000000000000000000000000000000000     00000000                                                                                                                        000000000000000000
F0010000007163500001000080004943800013050500000000000000000201505220002001PAPELERIA EL CID S.A.                             D000000012642500000000000000000000100010010000000000000000000000F0010000007163500120150522000101 00000000000000000000000000000000000000000000000000000000000000000000000000000000000000000000000000000000000000000N 00000000000NCONT   00    00000000000          00000000000000000000000000000000000000000000 000000000000000A000000000000000000000000000000000000000000000 000000000000000000000000000000000000000     00000000                                                                                                                        000000000000000000
F0010000007163500002000080004943800041450500000000000000000201505220002001PAPELERIA EL CID S.A.                             C000000010920000000000000000000000100010010000000000000000000000F0010000007163500220150522000101 00000000000000000000000000000000000000000000000000000000000000000000000000000000000000000000000000000000000000000N 00000000000NCONT   00    00000000000          00000000000000000000000000000000000000000000 000000000000000A000000000000000000000000000000000000000000000 000000000000000000000000000000000000000     00000000                                                                                                                        000000000000000000
F0010000007163500003000080004943800042505000000000000000000201505220002001PAPELERIA EL CID S.A.                             C000000001722500000000000000000000100010010000000000000000000000F0010000007163500320150522000101 00000000000000000000000000000000000000000000000000000000000000000000000000000000000000000000000000000000000000000N 00000000000NCONT   00    00000000000          00000000000000000000000000000000000000000000 000000000000000A000000000000000000000000000000000000000000000 000000000000000000000000000000000000000     00000000                                                                                                                        000000000000000000
F0010000007163500004000080004943800023658300000000000000000201505220002001PAPELERIA EL CID S.A.                             C000000000087400000000000000000000100010010000000000000000000000F0010000007163500420150522000101 00000000000000000000000000000000000000000000000000000000000000000000000000000000000000000000000000000000000000000N 00000000000NCONT   00    00000000000          00000000000000000000000000000000000000000000 000000000000000A000000000000000000000000000000000000000000000 000000000000000000000000000000000000000     00000000                                                                                                                        000000000000000000
F0010000007163500005000080004943800013552100000000000000000201505220002001PAPELERIA EL CID S.A.                             D000000000087400000000000000000000100010010000000000000000000000F0010000007163500520150522000101 00000000000000000000000000000000000000000000000000000000000000000000000000000000000000000000000000000000000000000N 00000000000NCONT   00    00000000000          00000000000000000000000000000000000000000000 000000000000000A000000000000000000000000000000000000000000000 000000000000000000000000000000000000000     00000000                                                                                                                        000000000000000000
F0010000007163600001000090059316900013050500000000000000000201505220002001DISTRIBUCIONES Y REPRESENTACIONES MANA            D000000008996000000000000000000000100010010000000000000000000000F0010000007163600120150522000101 00000000000000000000000000000000000000000000000000000000000000000000000000000000000000000000000000000000000000000N 00000000000NCONT   00    00000000000          00000000000000000000000000000000000000000000 000000000000000A000000000000000000000000000000000000000000000 000000000000000000000000000000000000000     00000000                                                                                                                        000000000000000000
F0010000007163600002000090059316900041450500000000000000000201505220002001DISTRIBUCIONES Y REPRESENTACIONES MANA            C000000007750000000000000000000000100010010000000000000000000000F0010000007163600220150522000101 00000000000000000000000000000000000000000000000000000000000000000000000000000000000000000000000000000000000000000N 00000000000NCONT   00    00000000000          00000000000000000000000000000000000000000000 000000000000000A000000000000000000000000000000000000000000000 000000000000000000000000000000000000000     00000000                                                                                                                        000000000000000000
F0010000007163600003000090059316900042505000000000000000000201505220002001DISTRIBUCIONES Y REPRESENTACIONES MANA            C000000001246000000000000000000000100010010000000000000000000000F0010000007163600320150522000101 00000000000000000000000000000000000000000000000000000000000000000000000000000000000000000000000000000000000000000N 00000000000NCONT   00    00000000000          00000000000000000000000000000000000000000000 000000000000000A000000000000000000000000000000000000000000000 000000000000000000000000000000000000000     00000000                                                                                                                        000000000000000000
F0010000007163600004000090059316900023658300000000000000000201505220002001DISTRIBUCIONES Y REPRESENTACIONES MANA            C000000000062000000000000000000000100010010000000000000000000000F0010000007163600420150522000101 00000000000000000000000000000000000000000000000000000000000000000000000000000000000000000000000000000000000000000N 00000000000NCONT   00    00000000000          00000000000000000000000000000000000000000000 000000000000000A000000000000000000000000000000000000000000000 000000000000000000000000000000000000000     00000000                                                                                                                        000000000000000000
F0010000007163600005000090059316900013552100000000000000000201505220002001DISTRIBUCIONES Y REPRESENTACIONES MANA            D000000000062000000000000000000000100010010000000000000000000000F0010000007163600520150522000101 00000000000000000000000000000000000000000000000000000000000000000000000000000000000000000000000000000000000000000N 00000000000NCONT   00    00000000000          00000000000000000000000000000000000000000000 000000000000000A000000000000000000000000000000000000000000000 000000000000000000000000000000000000000     00000000                                                                                                                        000000000000000000
F0010000007163800001000000376399500013050500000000000000000201505220002001FORDPLAST                                         D000000005990000000000000000000000100010010000000000000000000000F0010000007163800120150522000101 00000000000000000000000000000000000000000000000000000000000000000000000000000000000000000000000000000000000000000N 00000000000NCONT   00    00000000000          00000000000000000000000000000000000000000000 000000000000000A000000000000000000000000000000000000000000000 000000000000000000000000000000000000000     00000000                                                                                                                        000000000000000000
F0010000007163800002000000376399500041450500000000000000000201505220002001FORDPLAST                                         C000000004690000000000000000000000100010010000000000000000000000F0010000007163800220150522000101 00000000000000000000000000000000000000000000000000000000000000000000000000000000000000000000000000000000000000000N 00000000000NCONT   00    00000000000          00000000000000000000000000000000000000000000 000000000000000A000000000000000000000000000000000000000000000 000000000000000000000000000000000000000     00000000                                                                                                                        000000000000000000
F0010000007163800003000000376399500042505000000000000000000201505220002001FORDPLAST                                         C000000001300000000000000000000000100010010000000000000000000000F0010000007163800320150522000101 00000000000000000000000000000000000000000000000000000000000000000000000000000000000000000000000000000000000000000N 00000000000NCONT   00    00000000000          00000000000000000000000000000000000000000000 000000000000000A000000000000000000000000000000000000000000000 000000000000000000000000000000000000000     00000000                                                                                                                        000000000000000000
F0010000007163800004000000376399500023658300000000000000000201505220002001FORDPLAST                                         C000000000037500000000000000000000100010010000000000000000000000F0010000007163800420150522000101 00000000000000000000000000000000000000000000000000000000000000000000000000000000000000000000000000000000000000000N 00000000000NCONT   00    00000000000          00000000000000000000000000000000000000000000 000000000000000A000000000000000000000000000000000000000000000 000000000000000000000000000000000000000     00000000                                                                                                                        000000000000000000
F0010000007163800005000000376399500013552100000000000000000201505220002001FORDPLAST                                         D000000000037500000000000000000000100010010000000000000000000000F0010000007163800520150522000101 00000000000000000000000000000000000000000000000000000000000000000000000000000000000000000000000000000000000000000N 00000000000NCONT   00    00000000000          00000000000000000000000000000000000000000000 000000000000000A000000000000000000000000000000000000000000000 000000000000000000000000000000000000000     00000000                                                                                                                        000000000000000000
F0010000007163900001000089010526900013050500000000000000000201505220002001DISTRIBUCIONES CANAL Y CIA S.A.S                  D000000009061000000000000000000000100010010000000000000000000000F0010000007163900120150522000101 00000000000000000000000000000000000000000000000000000000000000000000000000000000000000000000000000000000000000000N 00000000000NCONT   00    00000000000          00000000000000000000000000000000000000000000 000000000000000A000000000000000000000000000000000000000000000 000000000000000000000000000000000000000     00000000                                                                                                                        000000000000000000
F0010000007163900002000089010526900041450500000000000000000201505220002001DISTRIBUCIONES CANAL Y CIA S.A.S                  C000000005980000000000000000000000100010010000000000000000000000F0010000007163900220150522000101 00000000000000000000000000000000000000000000000000000000000000000000000000000000000000000000000000000000000000000N 00000000000NCONT   00    00000000000          00000000000000000000000000000000000000000000 000000000000000A000000000000000000000000000000000000000000000 000000000000000000000000000000000000000     00000000                                                                                                                        000000000000000000
F0010000007163900003000089010526900042505000000000000000000201505220002001DISTRIBUCIONES CANAL Y CIA S.A.S                  C000000003081000000000000000000000100010010000000000000000000000F0010000007163900320150522000101 00000000000000000000000000000000000000000000000000000000000000000000000000000000000000000000000000000000000000000N 00000000000NCONT   00    00000000000          00000000000000000000000000000000000000000000 000000000000000A000000000000000000000000000000000000000000000 000000000000000000000000000000000000000     00000000                                                                                                                        000000000000000000
F0010000007163900004000089010526900023658300000000000000000201505220002001DISTRIBUCIONES CANAL Y CIA S.A.S                  C000000000047800000000000000000000100010010000000000000000000000F0010000007163900420150522000101 00000000000000000000000000000000000000000000000000000000000000000000000000000000000000000000000000000000000000000N 00000000000NCONT   00    00000000000          00000000000000000000000000000000000000000000 000000000000000A000000000000000000000000000000000000000000000 000000000000000000000000000000000000000     00000000                                                                                                                        000000000000000000
F0010000007163900005000089010526900013552100000000000000000201505220002001DISTRIBUCIONES CANAL Y CIA S.A.S                  D000000000047800000000000000000000100010010000000000000000000000F0010000007163900520150522000101 00000000000000000000000000000000000000000000000000000000000000000000000000000000000000000000000000000000000000000N 00000000000NCONT   00    00000000000          00000000000000000000000000000000000000000000 000000000000000A000000000000000000000000000000000000000000000 000000000000000000000000000000000000000     00000000                                                                                                                        000000000000000000
F0010000007164000001000090009800500013050500000000000000000201505220002001GLORIANT CHEMICAL DE COLOMBIA LTDA                D000000059193000000000000000000000100010010000000000000000000000F0010000007164000120150522000101 00000000000000000000000000000000000000000000000000000000000000000000000000000000000000000000000000000000000000000N 00000000000NCONT   00    00000000000          00000000000000000000000000000000000000000000 000000000000000A000000000000000000000000000000000000000000000 000000000000000000000000000000000000000     00000000                                                                                                                        000000000000000000
F0010000007164000002000090009800500041450500000000000000000201505220002001GLORIANT CHEMICAL DE COLOMBIA LTDA                C000000052670000000000000000000000100010010000000000000000000000F0010000007164000220150522000101 00000000000000000000000000000000000000000000000000000000000000000000000000000000000000000000000000000000000000000N 00000000000NCONT   00    00000000000          00000000000000000000000000000000000000000000 000000000000000A000000000000000000000000000000000000000000000 000000000000000000000000000000000000000     00000000                                                                                                                        000000000000000000
F0010000007164000003000090009800500042505000000000000000000201505220002001GLORIANT CHEMICAL DE COLOMBIA LTDA                C000000006523000000000000000000000100010010000000000000000000000F0010000007164000320150522000101 00000000000000000000000000000000000000000000000000000000000000000000000000000000000000000000000000000000000000000N 00000000000NCONT   00    00000000000          00000000000000000000000000000000000000000000 000000000000000A000000000000000000000000000000000000000000000 000000000000000000000000000000000000000     00000000                                                                                                                        000000000000000000
F0010000007164000004000090009800500023658300000000000000000201505220002001GLORIANT CHEMICAL DE COLOMBIA LTDA                C000000000421400000000000000000000100010010000000000000000000000F0010000007164000420150522000101 00000000000000000000000000000000000000000000000000000000000000000000000000000000000000000000000000000000000000000N 00000000000NCONT   00    00000000000          00000000000000000000000000000000000000000000 000000000000000A000000000000000000000000000000000000000000000 000000000000000000000000000000000000000     00000000                                                                                                                        000000000000000000
F0010000007164000005000090009800500013552100000000000000000201505220002001GLORIANT CHEMICAL DE COLOMBIA LTDA                D000000000421400000000000000000000100010010000000000000000000000F0010000007164000520150522000101 00000000000000000000000000000000000000000000000000000000000000000000000000000000000000000000000000000000000000000N 00000000000NCONT   00    00000000000          00000000000000000000000000000000000000000000 000000000000000A000000000000000000000000000000000000000000000 000000000000000000000000000000000000000     00000000                                                                                                                        000000000000000000
F0010000007164100001000090008711200013050500000000000000000201505220002001PACKAGING SUPPLIERS S.A.                          D000000091585100000000000000000000100010010000000000000000000000F0010000007164100120150522000101 00000000000000000000000000000000000000000000000000000000000000000000000000000000000000000000000000000000000000000N 00000000000NCONT   00    00000000000          00000000000000000000000000000000000000000000 000000000000000A000000000000000000000000000000000000000000000 000000000000000000000000000000000000000     00000000                                                                                                                        000000000000000000
F0010000007164100002000090008711200041450500000000000000000201505220002001PACKAGING SUPPLIERS S.A.                          C000000083495500000000000000000000100010010000000000000000000000F0010000007164100220150522000101 00000000000000000000000000000000000000000000000000000000000000000000000000000000000000000000000000000000000000000N 00000000000NCONT   00    00000000000          00000000000000000000000000000000000000000000 000000000000000A000000000000000000000000000000000000000000000 000000000000000000000000000000000000000     00000000                                                                                                                        000000000000000000
F0010000007164100003000090008711200042505000000000000000000201505220002001PACKAGING SUPPLIERS S.A.                          C000000008089600000000000000000000100010010000000000000000000000F0010000007164100320150522000101 00000000000000000000000000000000000000000000000000000000000000000000000000000000000000000000000000000000000000000N 00000000000NCONT   00    00000000000          00000000000000000000000000000000000000000000 000000000000000A000000000000000000000000000000000000000000000 000000000000000000000000000000000000000     00000000                                                                                                                        000000000000000000
F0010000007164100004000090008711200023658300000000000000000201505220002001PACKAGING SUPPLIERS S.A.                          C000000000668000000000000000000000100010010000000000000000000000F0010000007164100420150522000101 00000000000000000000000000000000000000000000000000000000000000000000000000000000000000000000000000000000000000000N 00000000000NCONT   00    00000000000          00000000000000000000000000000000000000000000 000000000000000A000000000000000000000000000000000000000000000 000000000000000000000000000000000000000     00000000                                                                                                                        000000000000000000
F0010000007164100005000090008711200013552100000000000000000201505220002001PACKAGING SUPPLIERS S.A.                          D000000000668000000000000000000000100010010000000000000000000000F0010000007164100520150522000101 00000000000000000000000000000000000000000000000000000000000000000000000000000000000000000000000000000000000000000N 00000000000NCONT   00    00000000000          00000000000000000000000000000000000000000000 000000000000000A000000000000000000000000000000000000000000000 000000000000000000000000000000000000000     00000000                                                                                                                        000000000000000000
F0010000007164200001000080002300200013050500000000000000000201505220002001DISREL S.A.                                       D000000052900000000000000000000000100010010000000000000000000000F0010000007164200120150522000101 00000000000000000000000000000000000000000000000000000000000000000000000000000000000000000000000000000000000000000N 00000000000NCONT   00    00000000000          00000000000000000000000000000000000000000000 000000000000000A000000000000000000000000000000000000000000000 000000000000000000000000000000000000000     00000000                                                                                                                        000000000000000000
F0010000007164200002000080002300200041450500000000000000000201505220002001DISREL S.A.                                       C000000042320000000000000000000000100010010000000000000000000000F0010000007164200220150522000101 00000000000000000000000000000000000000000000000000000000000000000000000000000000000000000000000000000000000000000N 00000000000NCONT   00    00000000000          00000000000000000000000000000000000000000000 000000000000000A000000000000000000000000000000000000000000000 000000000000000000000000000000000000000     00000000                                                                                                                        000000000000000000
F0010000007164200003000080002300200042505000000000000000000201505220002001DISREL S.A.                                       C000000010580000000000000000000000100010010000000000000000000000F0010000007164200320150522000101 00000000000000000000000000000000000000000000000000000000000000000000000000000000000000000000000000000000000000000N 00000000000NCONT   00    00000000000          00000000000000000000000000000000000000000000 000000000000000A000000000000000000000000000000000000000000000 000000000000000000000000000000000000000     00000000                                                                                                                        000000000000000000
F0010000007164200004000080002300200023658300000000000000000201505220002001DISREL S.A.                                       C000000000338600000000000000000000100010010000000000000000000000F0010000007164200420150522000101 00000000000000000000000000000000000000000000000000000000000000000000000000000000000000000000000000000000000000000N 00000000000NCONT   00    00000000000          00000000000000000000000000000000000000000000 000000000000000A000000000000000000000000000000000000000000000 000000000000000000000000000000000000000     00000000                                                                                                                        000000000000000000
F0010000007164200005000080002300200013552100000000000000000201505220002001DISREL S.A.                                       D000000000338600000000000000000000100010010000000000000000000000F0010000007164200520150522000101 00000000000000000000000000000000000000000000000000000000000000000000000000000000000000000000000000000000000000000N 00000000000NCONT   00    00000000000          00000000000000000000000000000000000000000000 000000000000000A000000000000000000000000000000000000000000000 000000000000000000000000000000000000000     00000000                                                                                                                        000000000000000000
F0010000007164300001000002245670100013050500000000000000000201505220002001YOLANDA  TOBON                                    D000000047793200000000000000000000100010010000000000000000000000F0010000007164300120150522000101 00000000000000000000000000000000000000000000000000000000000000000000000000000000000000000000000000000000000000000N 00000000000NCONT   00    00000000000          00000000000000000000000000000000000000000000 000000000000000A000000000000000000000000000000000000000000000 000000000000000000000000000000000000000     00000000                                                                                                                        000000000000000000
F0010000007164300002000002245670100041450500000000000000000201505220002001YOLANDA  TOBON                                    C000000037700000000000000000000000100010010000000000000000000000F0010000007164300220150522000101 00000000000000000000000000000000000000000000000000000000000000000000000000000000000000000000000000000000000000000N 00000000000NCONT   00    00000000000          00000000000000000000000000000000000000000000 000000000000000A000000000000000000000000000000000000000000000 000000000000000000000000000000000000000     00000000                                                                                                                        000000000000000000
F0010000007164300003000002245670100042505000000000000000000201505220002001YOLANDA  TOBON                                    C000000010093200000000000000000000100010010000000000000000000000F0010000007164300320150522000101 00000000000000000000000000000000000000000000000000000000000000000000000000000000000000000000000000000000000000000N 00000000000NCONT   00    00000000000          00000000000000000000000000000000000000000000 000000000000000A000000000000000000000000000000000000000000000 000000000000000000000000000000000000000     00000000                                                                                                                        000000000000000000
F0010000007164300004000002245670100023658300000000000000000201505220002001YOLANDA  TOBON                                    C000000000301600000000000000000000100010010000000000000000000000F0010000007164300420150522000101 00000000000000000000000000000000000000000000000000000000000000000000000000000000000000000000000000000000000000000N 00000000000NCONT   00    00000000000          00000000000000000000000000000000000000000000 000000000000000A000000000000000000000000000000000000000000000 000000000000000000000000000000000000000     00000000                                                                                                                        000000000000000000
F0010000007164300005000002245670100013552100000000000000000201505220002001YOLANDA  TOBON                                    D000000000301600000000000000000000100010010000000000000000000000F0010000007164300520150522000101 00000000000000000000000000000000000000000000000000000000000000000000000000000000000000000000000000000000000000000N 00000000000NCONT   00    00000000000          00000000000000000000000000000000000000000000 000000000000000A000000000000000000000000000000000000000000000 000000000000000000000000000000000000000     00000000                                                                                                                        000000000000000000
F0010000007164400001000080019113900013050500000000000000000201505220002001COMERCIAL NOVAPEL LTDA                            D000000011850000000000000000000000100010010000000000000000000000F0010000007164400120150522000101 00000000000000000000000000000000000000000000000000000000000000000000000000000000000000000000000000000000000000000N 00000000000NCONT   00    00000000000          00000000000000000000000000000000000000000000 000000000000000A000000000000000000000000000000000000000000000 000000000000000000000000000000000000000     00000000                                                                                                                        000000000000000000
F0010000007164400002000080019113900041450500000000000000000201505220002001COMERCIAL NOVAPEL LTDA                            C000000010000000000000000000000000100010010000000000000000000000F0010000007164400220150522000101 00000000000000000000000000000000000000000000000000000000000000000000000000000000000000000000000000000000000000000N 00000000000NCONT   00    00000000000          00000000000000000000000000000000000000000000 000000000000000A000000000000000000000000000000000000000000000 000000000000000000000000000000000000000     00000000                                                                                                                        000000000000000000
F0010000007164400003000080019113900042505000000000000000000201505220002001COMERCIAL NOVAPEL LTDA                            C000000001850000000000000000000000100010010000000000000000000000F0010000007164400320150522000101 00000000000000000000000000000000000000000000000000000000000000000000000000000000000000000000000000000000000000000N 00000000000NCONT   00    00000000000          00000000000000000000000000000000000000000000 000000000000000A000000000000000000000000000000000000000000000 000000000000000000000000000000000000000     00000000                                                                                                                        000000000000000000
F0010000007164400004000080019113900023658300000000000000000201505220002001COMERCIAL NOVAPEL LTDA                            C000000000080000000000000000000000100010010000000000000000000000F0010000007164400420150522000101 00000000000000000000000000000000000000000000000000000000000000000000000000000000000000000000000000000000000000000N 00000000000NCONT   00    00000000000          00000000000000000000000000000000000000000000 000000000000000A000000000000000000000000000000000000000000000 000000000000000000000000000000000000000     00000000                                                                                                                        000000000000000000
F0010000007164400005000080019113900013552100000000000000000201505220002001COMERCIAL NOVAPEL LTDA                            D000000000080000000000000000000000100010010000000000000000000000F0010000007164400520150522000101 00000000000000000000000000000000000000000000000000000000000000000000000000000000000000000000000000000000000000000N 00000000000NCONT   00    00000000000          00000000000000000000000000000000000000000000 000000000000000A000000000000000000000000000000000000000000000 000000000000000000000000000000000000000     00000000                                                                                                                        000000000000000000
F0010000007164500001000090044443800013050500000000000000000201505220002001DISTRIBUCIONES UFRE S.A.S.                        D000000006852800000000000000000000100010010000000000000000000000F0010000007164500120150522000101 00000000000000000000000000000000000000000000000000000000000000000000000000000000000000000000000000000000000000000N 00000000000NCONT   00    00000000000          00000000000000000000000000000000000000000000 000000000000000A000000000000000000000000000000000000000000000 000000000000000000000000000000000000000     00000000                                                                                                                        000000000000000000
F0010000007164500002000090044443800041450500000000000000000201505220002001DISTRIBUCIONES UFRE S.A.S.                        C000000004000000000000000000000000100010010000000000000000000000F0010000007164500220150522000101 00000000000000000000000000000000000000000000000000000000000000000000000000000000000000000000000000000000000000000N 00000000000NCONT   00    00000000000          00000000000000000000000000000000000000000000 000000000000000A000000000000000000000000000000000000000000000 000000000000000000000000000000000000000     00000000                                                                                                                        000000000000000000
F0010000007164500003000090044443800042505000000000000000000201505220002001DISTRIBUCIONES UFRE S.A.S.                        C000000002852800000000000000000000100010010000000000000000000000F0010000007164500320150522000101 00000000000000000000000000000000000000000000000000000000000000000000000000000000000000000000000000000000000000000N 00000000000NCONT   00    00000000000          00000000000000000000000000000000000000000000 000000000000000A000000000000000000000000000000000000000000000 000000000000000000000000000000000000000     00000000                                                                                                                        000000000000000000
F0010000007164500004000090044443800023658300000000000000000201505220002001DISTRIBUCIONES UFRE S.A.S.                        C000000000032000000000000000000000100010010000000000000000000000F0010000007164500420150522000101 00000000000000000000000000000000000000000000000000000000000000000000000000000000000000000000000000000000000000000N 00000000000NCONT   00    00000000000          00000000000000000000000000000000000000000000 000000000000000A000000000000000000000000000000000000000000000 000000000000000000000000000000000000000     00000000                                                                                                                        000000000000000000
F0010000007164500005000090044443800013552100000000000000000201505220002001DISTRIBUCIONES UFRE S.A.S.                        D000000000032000000000000000000000100010010000000000000000000000F0010000007164500520150522000101 00000000000000000000000000000000000000000000000000000000000000000000000000000000000000000000000000000000000000000N 00000000000NCONT   00    00000000000          00000000000000000000000000000000000000000000 000000000000000A000000000000000000000000000000000000000000000 000000000000000000000000000000000000000     00000000                                                                                                                        000000000000000000
F0010000007164600001000090064982900013050500000000000000000201505220002001DISDIES S.A.S                                     D000000047526700000000000000000000100010010000000000000000000000F0010000007164600120150522000101 00000000000000000000000000000000000000000000000000000000000000000000000000000000000000000000000000000000000000000N 00000000000NCONT   00    00000000000          00000000000000000000000000000000000000000000 000000000000000A000000000000000000000000000000000000000000000 000000000000000000000000000000000000000     00000000                                                                                                                        000000000000000000
F0010000007164600002000090064982900041450500000000000000000201505220002001DISDIES S.A.S                                     C000000042938600000000000000000000100010010000000000000000000000F0010000007164600220150522000101 00000000000000000000000000000000000000000000000000000000000000000000000000000000000000000000000000000000000000000N 00000000000NCONT   00    00000000000          00000000000000000000000000000000000000000000 000000000000000A000000000000000000000000000000000000000000000 000000000000000000000000000000000000000     00000000                                                                                                                        000000000000000000
F0010000007164600003000090064982900042505000000000000000000201505220002001DISDIES S.A.S                                     C000000004588100000000000000000000100010010000000000000000000000F0010000007164600320150522000101 00000000000000000000000000000000000000000000000000000000000000000000000000000000000000000000000000000000000000000N 00000000000NCONT   00    00000000000          00000000000000000000000000000000000000000000 000000000000000A000000000000000000000000000000000000000000000 000000000000000000000000000000000000000     00000000                                                                                                                        000000000000000000
F0010000007164600004000090064982900023658300000000000000000201505220002001DISDIES S.A.S                                     C000000000343500000000000000000000100010010000000000000000000000F0010000007164600420150522000101 00000000000000000000000000000000000000000000000000000000000000000000000000000000000000000000000000000000000000000N 00000000000NCONT   00    00000000000          00000000000000000000000000000000000000000000 000000000000000A000000000000000000000000000000000000000000000 000000000000000000000000000000000000000     00000000                                                                                                                        000000000000000000
F0010000007164600005000090064982900013552100000000000000000201505220002001DISDIES S.A.S                                     D000000000343500000000000000000000100010010000000000000000000000F0010000007164600520150522000101 00000000000000000000000000000000000000000000000000000000000000000000000000000000000000000000000000000000000000000N 00000000000NCONT   00    00000000000          00000000000000000000000000000000000000000000 000000000000000A000000000000000000000000000000000000000000000 000000000000000000000000000000000000000     00000000                                                                                                                        000000000000000000
F0010000007164700001000000748239700013050500000000000000000201505220002001RAFAEL NAVARRO URIBE                              D000000055182900000000000000000000100010010000000000000000000000F0010000007164700120150522000101 00000000000000000000000000000000000000000000000000000000000000000000000000000000000000000000000000000000000000000N 00000000000NCONT   00    00000000000          00000000000000000000000000000000000000000000 000000000000000A000000000000000000000000000000000000000000000 000000000000000000000000000000000000000     00000000                                                                                                                        000000000000000000
F0010000007164700002000000748239700041450500000000000000000201505220002001RAFAEL NAVARRO URIBE                              C000000036090000000000000000000000100010010000000000000000000000F0010000007164700220150522000101 00000000000000000000000000000000000000000000000000000000000000000000000000000000000000000000000000000000000000000N 00000000000NCONT   00    00000000000          00000000000000000000000000000000000000000000 000000000000000A000000000000000000000000000000000000000000000 000000000000000000000000000000000000000     00000000                                                                                                                        000000000000000000
F0010000007164700003000000748239700042505000000000000000000201505220002001RAFAEL NAVARRO URIBE                              C000000019092900000000000000000000100010010000000000000000000000F0010000007164700320150522000101 00000000000000000000000000000000000000000000000000000000000000000000000000000000000000000000000000000000000000000N 00000000000NCONT   00    00000000000          00000000000000000000000000000000000000000000 000000000000000A000000000000000000000000000000000000000000000 000000000000000000000000000000000000000     00000000                                                                                                                        000000000000000000
F0010000007164700004000000748239700023658300000000000000000201505220002001RAFAEL NAVARRO URIBE                              C000000000288700000000000000000000100010010000000000000000000000F0010000007164700420150522000101 00000000000000000000000000000000000000000000000000000000000000000000000000000000000000000000000000000000000000000N 00000000000NCONT   00    00000000000          00000000000000000000000000000000000000000000 000000000000000A000000000000000000000000000000000000000000000 000000000000000000000000000000000000000     00000000                                                                                                                        000000000000000000
F0010000007164700005000000748239700013552100000000000000000201505220002001RAFAEL NAVARRO URIBE                              D000000000288700000000000000000000100010010000000000000000000000F0010000007164700520150522000101 00000000000000000000000000000000000000000000000000000000000000000000000000000000000000000000000000000000000000000N 00000000000NCONT   00    00000000000          00000000000000000000000000000000000000000000 000000000000000A000000000000000000000000000000000000000000000 000000000000000000000000000000000000000     00000000                                                                                                                        000000000000000000
F0010000007164800001000089010260300013050500000000000000000201505220002001FEDERICO OSORIO A. S.A.                           D000000139272000000000000000000000100010010000000000000000000000F0010000007164800120150522000101 00000000000000000000000000000000000000000000000000000000000000000000000000000000000000000000000000000000000000000N 00000000000NCONT   00    00000000000          00000000000000000000000000000000000000000000 000000000000000A000000000000000000000000000000000000000000000 000000000000000000000000000000000000000     00000000                                                                                                                        000000000000000000
F0010000007164800002000089010260300041450500000000000000000201505220002001FEDERICO OSORIO A. S.A.                           C000000129880000000000000000000000100010010000000000000000000000F0010000007164800220150522000101 00000000000000000000000000000000000000000000000000000000000000000000000000000000000000000000000000000000000000000N 00000000000NCONT   00    00000000000          00000000000000000000000000000000000000000000 000000000000000A000000000000000000000000000000000000000000000 000000000000000000000000000000000000000     00000000                                                                                                                        000000000000000000
F0010000007164800003000089010260300042505000000000000000000201505220002001FEDERICO OSORIO A. S.A.                           C000000009392000000000000000000000100010010000000000000000000000F0010000007164800320150522000101 00000000000000000000000000000000000000000000000000000000000000000000000000000000000000000000000000000000000000000N 00000000000NCONT   00    00000000000          00000000000000000000000000000000000000000000 000000000000000A000000000000000000000000000000000000000000000 000000000000000000000000000000000000000     00000000                                                                                                                        000000000000000000
F0010000007164800004000089010260300023658300000000000000000201505220002001FEDERICO OSORIO A. S.A.                           C000000001039000000000000000000000100010010000000000000000000000F0010000007164800420150522000101 00000000000000000000000000000000000000000000000000000000000000000000000000000000000000000000000000000000000000000N 00000000000NCONT   00    00000000000          00000000000000000000000000000000000000000000 000000000000000A000000000000000000000000000000000000000000000 000000000000000000000000000000000000000     00000000                                                                                                                        000000000000000000
F0010000007164800005000089010260300013552100000000000000000201505220002001FEDERICO OSORIO A. S.A.                           D000000001039000000000000000000000100010010000000000000000000000F0010000007164800520150522000101 00000000000000000000000000000000000000000000000000000000000000000000000000000000000000000000000000000000000000000N 00000000000NCONT   00    00000000000          00000000000000000000000000000000000000000000 000000000000000A000000000000000000000000000000000000000000000 000000000000000000000000000000000000000     00000000                                                                                                                        000000000000000000
F0010000007164900001000000257193600011050500000000000000000201505220002001OSCAR YALI PLAZA                                  D000000002000000000000000000000000100010010000000000000000000000F0010000007164900120150522000101 00000000000000000000000000000000000000000000000000000000000000000000000000000000000000000000000000000000000000000N 00000000000NCONT   00    00000000000          00000000000000000000000000000000000000000000 000000000000000A000000000000000000000000000000000000000000000 000000000000000000000000000000000000000     00000000                                                                                                                        000000000000000000
F0010000007164900002000000257193600041450500000000000000000201505220002001OSCAR YALI PLAZA                                  C000000001400000000000000000000000100010010000000000000000000000F0010000007164900220150522000101 00000000000000000000000000000000000000000000000000000000000000000000000000000000000000000000000000000000000000000N 00000000000NCONT   00    00000000000          00000000000000000000000000000000000000000000 000000000000000A000000000000000000000000000000000000000000000 000000000000000000000000000000000000000     00000000                                                                                                                        000000000000000000
F0010000007164900003000000257193600042505000000000000000000201505220002001OSCAR YALI PLAZA                                  C000000000600000000000000000000000100010010000000000000000000000F0010000007164900320150522000101 00000000000000000000000000000000000000000000000000000000000000000000000000000000000000000000000000000000000000000N 00000000000NCONT   00    00000000000          00000000000000000000000000000000000000000000 000000000000000A000000000000000000000000000000000000000000000 000000000000000000000000000000000000000     00000000                                                                                                                        000000000000000000
F0010000007164900004000000257193600023658300000000000000000201505220002001OSCAR YALI PLAZA                                  C000000000011200000000000000000000100010010000000000000000000000F0010000007164900420150522000101 00000000000000000000000000000000000000000000000000000000000000000000000000000000000000000000000000000000000000000N 00000000000NCONT   00    00000000000          00000000000000000000000000000000000000000000 000000000000000A000000000000000000000000000000000000000000000 000000000000000000000000000000000000000     00000000                                                                                                                        000000000000000000
F0010000007164900005000000257193600013552100000000000000000201505220002001OSCAR YALI PLAZA                                  D000000000011200000000000000000000100010010000000000000000000000F0010000007164900520150522000101 00000000000000000000000000000000000000000000000000000000000000000000000000000000000000000000000000000000000000000N 00000000000NCONT   00    00000000000          00000000000000000000000000000000000000000000 000000000000000A000000000000000000000000000000000000000000000 000000000000000000000000000000000000000     00000000                                                                                                                        000000000000000000
F0010000007165000001000089010260300013050500000000000000000201505220002001FEDERICO OSORIO A. S.A.                           D000000000804300000000000000000000100010010000000000000000000000F0010000007165000120150522000101 00000000000000000000000000000000000000000000000000000000000000000000000000000000000000000000000000000000000000000N 00000000000NCONT   00    00000000000          00000000000000000000000000000000000000000000 000000000000000A000000000000000000000000000000000000000000000 000000000000000000000000000000000000000     00000000                                                                                                                        000000000000000000
F0010000007165000002000089010260300041450500000000000000000201505220002001FEDERICO OSORIO A. S.A.                           C000000000680000000000000000000000100010010000000000000000000000F0010000007165000220150522000101 00000000000000000000000000000000000000000000000000000000000000000000000000000000000000000000000000000000000000000N 00000000000NCONT   00    00000000000          00000000000000000000000000000000000000000000 000000000000000A000000000000000000000000000000000000000000000 000000000000000000000000000000000000000     00000000                                                                                                                        000000000000000000
F0010000007165000003000089010260300042505000000000000000000201505220002001FEDERICO OSORIO A. S.A.                           C000000000124300000000000000000000100010010000000000000000000000F0010000007165000320150522000101 00000000000000000000000000000000000000000000000000000000000000000000000000000000000000000000000000000000000000000N 00000000000NCONT   00    00000000000          00000000000000000000000000000000000000000000 000000000000000A000000000000000000000000000000000000000000000 000000000000000000000000000000000000000     00000000                                                                                                                        000000000000000000
F0010000007165000004000089010260300023658300000000000000000201505220002001FEDERICO OSORIO A. S.A.                           C000000000005400000000000000000000100010010000000000000000000000F0010000007165000420150522000101 00000000000000000000000000000000000000000000000000000000000000000000000000000000000000000000000000000000000000000N 00000000000NCONT   00    00000000000          00000000000000000000000000000000000000000000 000000000000000A000000000000000000000000000000000000000000000 000000000000000000000000000000000000000     00000000                                                                                                                        000000000000000000
F0010000007165000005000089010260300013552100000000000000000201505220002001FEDERICO OSORIO A. S.A.                           D000000000005400000000000000000000100010010000000000000000000000F0010000007165000520150522000101 00000000000000000000000000000000000000000000000000000000000000000000000000000000000000000000000000000000000000000N 00000000000NCONT   00    00000000000          00000000000000000000000000000000000000000000 000000000000000A000000000000000000000000000000000000000000000 000000000000000000000000000000000000000     00000000                                                                                                                        000000000000000000
F0010000007165100001000000257193600011050500000000000000000201505220002001OSCAR YALI PLAZA                                  D000000002400000000000000000000000100010010000000000000000000000F0010000007165100120150522000101 00000000000000000000000000000000000000000000000000000000000000000000000000000000000000000000000000000000000000000N 00000000000NCONT   00    00000000000          00000000000000000000000000000000000000000000 000000000000000A000000000000000000000000000000000000000000000 000000000000000000000000000000000000000     00000000                                                                                                                        000000000000000000
F0010000007165100002000000257193600041450500000000000000000201505220002001OSCAR YALI PLAZA                                  C000000001800000000000000000000000100010010000000000000000000000F0010000007165100220150522000101 00000000000000000000000000000000000000000000000000000000000000000000000000000000000000000000000000000000000000000N 00000000000NCONT   00    00000000000          00000000000000000000000000000000000000000000 000000000000000A000000000000000000000000000000000000000000000 000000000000000000000000000000000000000     00000000                                                                                                                        000000000000000000
F0010000007165100003000000257193600042505000000000000000000201505220002001OSCAR YALI PLAZA                                  C000000000600000000000000000000000100010010000000000000000000000F0010000007165100320150522000101 00000000000000000000000000000000000000000000000000000000000000000000000000000000000000000000000000000000000000000N 00000000000NCONT   00    00000000000          00000000000000000000000000000000000000000000 000000000000000A000000000000000000000000000000000000000000000 000000000000000000000000000000000000000     00000000                                                                                                                        000000000000000000
F0010000007165100004000000257193600023658300000000000000000201505220002001OSCAR YALI PLAZA                                  C000000000014400000000000000000000100010010000000000000000000000F0010000007165100420150522000101 00000000000000000000000000000000000000000000000000000000000000000000000000000000000000000000000000000000000000000N 00000000000NCONT   00    00000000000          00000000000000000000000000000000000000000000 000000000000000A000000000000000000000000000000000000000000000 000000000000000000000000000000000000000     00000000                                                                                                                        000000000000000000
F0010000007165100005000000257193600013552100000000000000000201505220002001OSCAR YALI PLAZA                                  D000000000014400000000000000000000100010010000000000000000000000F0010000007165100520150522000101 00000000000000000000000000000000000000000000000000000000000000000000000000000000000000000000000000000000000000000N 00000000000NCONT   00    00000000000          00000000000000000000000000000000000000000000 000000000000000A000000000000000000000000000000000000000000000 000000000000000000000000000000000000000     00000000                                                                                                                        000000000000000000
F0010000007165200001000080202094000013050500000000000000000201505220002001DISTRIB. OMAR ORREGO S.A.                         D000000059130800000000000000000000100010010000000000000000000000F0010000007165200120150522000101 00000000000000000000000000000000000000000000000000000000000000000000000000000000000000000000000000000000000000000N 00000000000NCONT   00    00000000000          00000000000000000000000000000000000000000000 000000000000000A000000000000000000000000000000000000000000000 000000000000000000000000000000000000000     00000000                                                                                                                        000000000000000000
F0010000007165200002000080202094000041450500000000000000000201505220002001DISTRIB. OMAR ORREGO S.A.                         C000000039420000000000000000000000100010010000000000000000000000F0010000007165200220150522000101 00000000000000000000000000000000000000000000000000000000000000000000000000000000000000000000000000000000000000000N 00000000000NCONT   00    00000000000          00000000000000000000000000000000000000000000 000000000000000A000000000000000000000000000000000000000000000 000000000000000000000000000000000000000     00000000                                                                                                                        000000000000000000
