F0010000007356500001000004249706000011050500000000000000000201507150002001ANA MERCEDES GOMEZ ALCALA                         D000000001400000000000000000000000100010010000000000000000000000F0010000007356500120150715000101 00000000000000000000000000000000000000000000000000000000000000000000000000000000000000000000000000000000000000000N 00000000000NCONT   00    00000000000          00000000000000000000000000000000000000000000 000000000000000A000000000000000000000000000000000000000000000 000000000000000000000000000000000000000     00000000                                                                                                                        000000000000000000
F0010000007356500002000004249706000041450500000000000000000201507150002001ANA MERCEDES GOMEZ ALCALA                         C000000001300000000000000000000000100010010000000000000000000000F0010000007356500220150715000101 00000000000000000000000000000000000000000000000000000000000000000000000000000000000000000000000000000000000000000N 00000000000NCONT   00    00000000000          00000000000000000000000000000000000000000000 000000000000000A000000000000000000000000000000000000000000000 000000000000000000000000000000000000000     00000000                                                                                                                        000000000000000000
F0010000007356500003000004249706000042505000000000000000000201507150002001ANA MERCEDES GOMEZ ALCALA                         C000000000100000000000000000000000100010010000000000000000000000F0010000007356500320150715000101 00000000000000000000000000000000000000000000000000000000000000000000000000000000000000000000000000000000000000000N 00000000000NCONT   00    00000000000          00000000000000000000000000000000000000000000 000000000000000A000000000000000000000000000000000000000000000 000000000000000000000000000000000000000     00000000                                                                                                                        000000000000000000
F0010000007356500004000004249706000023658300000000000000000201507150002001ANA MERCEDES GOMEZ ALCALA                         C000000000010400000000000000000000100010010000000000000000000000F0010000007356500420150715000101 00000000000000000000000000000000000000000000000000000000000000000000000000000000000000000000000000000000000000000N 00000000000NCONT   00    00000000000          00000000000000000000000000000000000000000000 000000000000000A000000000000000000000000000000000000000000000 000000000000000000000000000000000000000     00000000                                                                                                                        000000000000000000
F0010000007356500005000004249706000013552100000000000000000201507150002001ANA MERCEDES GOMEZ ALCALA                         D000000000010400000000000000000000100010010000000000000000000000F0010000007356500520150715000101 00000000000000000000000000000000000000000000000000000000000000000000000000000000000000000000000000000000000000000N 00000000000NCONT   00    00000000000          00000000000000000000000000000000000000000000 000000000000000A000000000000000000000000000000000000000000000 000000000000000000000000000000000000000     00000000                                                                                                                        000000000000000000
F0010000007356600001000090037350200011050500000000000000000201507150002001JIMAR C Y J LTDA                                  D000000002500000000000000000000000100010010000000000000000000000F0010000007356600120150715000101 00000000000000000000000000000000000000000000000000000000000000000000000000000000000000000000000000000000000000000N 00000000000NCONT   00    00000000000          00000000000000000000000000000000000000000000 000000000000000A000000000000000000000000000000000000000000000 000000000000000000000000000000000000000     00000000                                                                                                                        000000000000000000
F0010000007356600002000090037350200041450500000000000000000201507150002001JIMAR C Y J LTDA                                  C000000002250000000000000000000000100010010000000000000000000000F0010000007356600220150715000101 00000000000000000000000000000000000000000000000000000000000000000000000000000000000000000000000000000000000000000N 00000000000NCONT   00    00000000000          00000000000000000000000000000000000000000000 000000000000000A000000000000000000000000000000000000000000000 000000000000000000000000000000000000000     00000000                                                                                                                        000000000000000000
F0010000007356600003000090037350200042505000000000000000000201507150002001JIMAR C Y J LTDA                                  C000000000250000000000000000000000100010010000000000000000000000F0010000007356600320150715000101 00000000000000000000000000000000000000000000000000000000000000000000000000000000000000000000000000000000000000000N 00000000000NCONT   00    00000000000          00000000000000000000000000000000000000000000 000000000000000A000000000000000000000000000000000000000000000 000000000000000000000000000000000000000     00000000                                                                                                                        000000000000000000
F0010000007356600004000090037350200023658300000000000000000201507150002001JIMAR C Y J LTDA                                  C000000000018000000000000000000000100010010000000000000000000000F0010000007356600420150715000101 00000000000000000000000000000000000000000000000000000000000000000000000000000000000000000000000000000000000000000N 00000000000NCONT   00    00000000000          00000000000000000000000000000000000000000000 000000000000000A000000000000000000000000000000000000000000000 000000000000000000000000000000000000000     00000000                                                                                                                        000000000000000000
F0010000007356600005000090037350200013552100000000000000000201507150002001JIMAR C Y J LTDA                                  D000000000018000000000000000000000100010010000000000000000000000F0010000007356600520150715000101 00000000000000000000000000000000000000000000000000000000000000000000000000000000000000000000000000000000000000000N 00000000000NCONT   00    00000000000          00000000000000000000000000000000000000000000 000000000000000A000000000000000000000000000000000000000000000 000000000000000000000000000000000000000     00000000                                                                                                                        000000000000000000
F0010000007356700001000003319910700011050500000000000000000201507150002001LUZ DARY JIMENEZ MARTINEZ                         D000000001100000000000000000000000100010010000000000000000000000F0010000007356700120150715000101 00000000000000000000000000000000000000000000000000000000000000000000000000000000000000000000000000000000000000000N 00000000000NCONT   00    00000000000          00000000000000000000000000000000000000000000 000000000000000A000000000000000000000000000000000000000000000 000000000000000000000000000000000000000     00000000                                                                                                                        000000000000000000
F0010000007356700002000003319910700041450500000000000000000201507150002001LUZ DARY JIMENEZ MARTINEZ                         C000000001000000000000000000000000100010010000000000000000000000F0010000007356700220150715000101 00000000000000000000000000000000000000000000000000000000000000000000000000000000000000000000000000000000000000000N 00000000000NCONT   00    00000000000          00000000000000000000000000000000000000000000 000000000000000A000000000000000000000000000000000000000000000 000000000000000000000000000000000000000     00000000                                                                                                                        000000000000000000
F0010000007356700003000003319910700042505000000000000000000201507150002001LUZ DARY JIMENEZ MARTINEZ                         C000000000100000000000000000000000100010010000000000000000000000F0010000007356700320150715000101 00000000000000000000000000000000000000000000000000000000000000000000000000000000000000000000000000000000000000000N 00000000000NCONT   00    00000000000          00000000000000000000000000000000000000000000 000000000000000A000000000000000000000000000000000000000000000 000000000000000000000000000000000000000     00000000                                                                                                                        000000000000000000
F0010000007356700004000003319910700023658300000000000000000201507150002001LUZ DARY JIMENEZ MARTINEZ                         C000000000008000000000000000000000100010010000000000000000000000F0010000007356700420150715000101 00000000000000000000000000000000000000000000000000000000000000000000000000000000000000000000000000000000000000000N 00000000000NCONT   00    00000000000          00000000000000000000000000000000000000000000 000000000000000A000000000000000000000000000000000000000000000 000000000000000000000000000000000000000     00000000                                                                                                                        000000000000000000
F0010000007356700005000003319910700013552100000000000000000201507150002001LUZ DARY JIMENEZ MARTINEZ                         D000000000008000000000000000000000100010010000000000000000000000F0010000007356700520150715000101 00000000000000000000000000000000000000000000000000000000000000000000000000000000000000000000000000000000000000000N 00000000000NCONT   00    00000000000          00000000000000000000000000000000000000000000 000000000000000A000000000000000000000000000000000000000000000 000000000000000000000000000000000000000     00000000                                                                                                                        000000000000000000
F0010000007356800001000003900336900011050500000000000000000201507150002001LUISA FERNANDA BOLAñOS                           D000000005000000000000000000000000100010010000000000000000000000F0010000007356800120150715000101 00000000000000000000000000000000000000000000000000000000000000000000000000000000000000000000000000000000000000000N 00000000000NCONT   00    00000000000          00000000000000000000000000000000000000000000 000000000000000A000000000000000000000000000000000000000000000 000000000000000000000000000000000000000     00000000                                                                                                                        000000000000000000
F0010000007356800002000003900336900041450500000000000000000201507150002001LUISA FERNANDA BOLAñOS                           C000000004900000000000000000000000100010010000000000000000000000F0010000007356800220150715000101 00000000000000000000000000000000000000000000000000000000000000000000000000000000000000000000000000000000000000000N 00000000000NCONT   00    00000000000          00000000000000000000000000000000000000000000 000000000000000A000000000000000000000000000000000000000000000 000000000000000000000000000000000000000     00000000                                                                                                                        000000000000000000
F0010000007356800003000003900336900042505000000000000000000201507150002001LUISA FERNANDA BOLAñOS                           C000000000100000000000000000000000100010010000000000000000000000F0010000007356800320150715000101 00000000000000000000000000000000000000000000000000000000000000000000000000000000000000000000000000000000000000000N 00000000000NCONT   00    00000000000          00000000000000000000000000000000000000000000 000000000000000A000000000000000000000000000000000000000000000 000000000000000000000000000000000000000     00000000                                                                                                                        000000000000000000
F0010000007356800004000003900336900023658300000000000000000201507150002001LUISA FERNANDA BOLAñOS                           C000000000039200000000000000000000100010010000000000000000000000F0010000007356800420150715000101 00000000000000000000000000000000000000000000000000000000000000000000000000000000000000000000000000000000000000000N 00000000000NCONT   00    00000000000          00000000000000000000000000000000000000000000 000000000000000A000000000000000000000000000000000000000000000 000000000000000000000000000000000000000     00000000                                                                                                                        000000000000000000
F0010000007356800005000003900336900013552100000000000000000201507150002001LUISA FERNANDA BOLAñOS                           D000000000039200000000000000000000100010010000000000000000000000F0010000007356800520150715000101 00000000000000000000000000000000000000000000000000000000000000000000000000000000000000000000000000000000000000000N 00000000000NCONT   00    00000000000          00000000000000000000000000000000000000000000 000000000000000A000000000000000000000000000000000000000000000 000000000000000000000000000000000000000     00000000                                                                                                                        000000000000000000
F0010000007356900001000090038852800011050500000000000000000201507150002001EL COMERCIO ELECTRICO DE LA CO                    D000000000960000000000000000000000100010010000000000000000000000F0010000007356900120150715000101 00000000000000000000000000000000000000000000000000000000000000000000000000000000000000000000000000000000000000000N 00000000000NCONT   00    00000000000          00000000000000000000000000000000000000000000 000000000000000A000000000000000000000000000000000000000000000 000000000000000000000000000000000000000     00000000                                                                                                                        000000000000000000
F0010000007356900002000090038852800041450500000000000000000201507150002001EL COMERCIO ELECTRICO DE LA CO                    C000000000880000000000000000000000100010010000000000000000000000F0010000007356900220150715000101 00000000000000000000000000000000000000000000000000000000000000000000000000000000000000000000000000000000000000000N 00000000000NCONT   00    00000000000          00000000000000000000000000000000000000000000 000000000000000A000000000000000000000000000000000000000000000 000000000000000000000000000000000000000     00000000                                                                                                                        000000000000000000
F0010000007356900003000090038852800042505000000000000000000201507150002001EL COMERCIO ELECTRICO DE LA CO                    C000000000080000000000000000000000100010010000000000000000000000F0010000007356900320150715000101 00000000000000000000000000000000000000000000000000000000000000000000000000000000000000000000000000000000000000000N 00000000000NCONT   00    00000000000          00000000000000000000000000000000000000000000 000000000000000A000000000000000000000000000000000000000000000 000000000000000000000000000000000000000     00000000                                                                                                                        000000000000000000
F0010000007356900004000090038852800023658300000000000000000201507150002001EL COMERCIO ELECTRICO DE LA CO                    C000000000007000000000000000000000100010010000000000000000000000F0010000007356900420150715000101 00000000000000000000000000000000000000000000000000000000000000000000000000000000000000000000000000000000000000000N 00000000000NCONT   00    00000000000          00000000000000000000000000000000000000000000 000000000000000A000000000000000000000000000000000000000000000 000000000000000000000000000000000000000     00000000                                                                                                                        000000000000000000
F0010000007356900005000090038852800013552100000000000000000201507150002001EL COMERCIO ELECTRICO DE LA CO                    D000000000007000000000000000000000100010010000000000000000000000F0010000007356900520150715000101 00000000000000000000000000000000000000000000000000000000000000000000000000000000000000000000000000000000000000000N 00000000000NCONT   00    00000000000          00000000000000000000000000000000000000000000 000000000000000A000000000000000000000000000000000000000000000 000000000000000000000000000000000000000     00000000                                                                                                                        000000000000000000
F0010000007357000001000002245670100011050500000000000000000201507150002001YOLANDA  TOBON                                    D000000001500000000000000000000000100010010000000000000000000000F0010000007357000120150715000101 00000000000000000000000000000000000000000000000000000000000000000000000000000000000000000000000000000000000000000N 00000000000NCONT   00    00000000000          00000000000000000000000000000000000000000000 000000000000000A000000000000000000000000000000000000000000000 000000000000000000000000000000000000000     00000000                                                                                                                        000000000000000000
F0010000007357000002000002245670100041450500000000000000000201507150002001YOLANDA  TOBON                                    C000000001000000000000000000000000100010010000000000000000000000F0010000007357000220150715000101 00000000000000000000000000000000000000000000000000000000000000000000000000000000000000000000000000000000000000000N 00000000000NCONT   00    00000000000          00000000000000000000000000000000000000000000 000000000000000A000000000000000000000000000000000000000000000 000000000000000000000000000000000000000     00000000                                                                                                                        000000000000000000
F0010000007357000003000002245670100042505000000000000000000201507150002001YOLANDA  TOBON                                    C000000000500000000000000000000000100010010000000000000000000000F0010000007357000320150715000101 00000000000000000000000000000000000000000000000000000000000000000000000000000000000000000000000000000000000000000N 00000000000NCONT   00    00000000000          00000000000000000000000000000000000000000000 000000000000000A000000000000000000000000000000000000000000000 000000000000000000000000000000000000000     00000000                                                                                                                        000000000000000000
F0010000007357000004000002245670100023658300000000000000000201507150002001YOLANDA  TOBON                                    C000000000008000000000000000000000100010010000000000000000000000F0010000007357000420150715000101 00000000000000000000000000000000000000000000000000000000000000000000000000000000000000000000000000000000000000000N 00000000000NCONT   00    00000000000          00000000000000000000000000000000000000000000 000000000000000A000000000000000000000000000000000000000000000 000000000000000000000000000000000000000     00000000                                                                                                                        000000000000000000
F0010000007357000005000002245670100013552100000000000000000201507150002001YOLANDA  TOBON                                    D000000000008000000000000000000000100010010000000000000000000000F0010000007357000520150715000101 00000000000000000000000000000000000000000000000000000000000000000000000000000000000000000000000000000000000000000N 00000000000NCONT   00    00000000000          00000000000000000000000000000000000000000000 000000000000000A000000000000000000000000000000000000000000000 000000000000000000000000000000000000000     00000000                                                                                                                        000000000000000000
F0010000007357100001000000742399700011050500000000000000000201507150002001CACHARRERIA EL NUEVO CHADID                       D000000000850000000000000000000000100010010000000000000000000000F0010000007357100120150715000101 00000000000000000000000000000000000000000000000000000000000000000000000000000000000000000000000000000000000000000N 00000000000NCONT   00    00000000000          00000000000000000000000000000000000000000000 000000000000000A000000000000000000000000000000000000000000000 000000000000000000000000000000000000000     00000000                                                                                                                        000000000000000000
F0010000007357100002000000742399700041450500000000000000000201507150002001CACHARRERIA EL NUEVO CHADID                       C000000000800000000000000000000000100010010000000000000000000000F0010000007357100220150715000101 00000000000000000000000000000000000000000000000000000000000000000000000000000000000000000000000000000000000000000N 00000000000NCONT   00    00000000000          00000000000000000000000000000000000000000000 000000000000000A000000000000000000000000000000000000000000000 000000000000000000000000000000000000000     00000000                                                                                                                        000000000000000000
F0010000007357100003000000742399700042505000000000000000000201507150002001CACHARRERIA EL NUEVO CHADID                       C000000000050000000000000000000000100010010000000000000000000000F0010000007357100320150715000101 00000000000000000000000000000000000000000000000000000000000000000000000000000000000000000000000000000000000000000N 00000000000NCONT   00    00000000000          00000000000000000000000000000000000000000000 000000000000000A000000000000000000000000000000000000000000000 000000000000000000000000000000000000000     00000000                                                                                                                        000000000000000000
F0010000007357100004000000742399700023658300000000000000000201507150002001CACHARRERIA EL NUEVO CHADID                       C000000000006400000000000000000000100010010000000000000000000000F0010000007357100420150715000101 00000000000000000000000000000000000000000000000000000000000000000000000000000000000000000000000000000000000000000N 00000000000NCONT   00    00000000000          00000000000000000000000000000000000000000000 000000000000000A000000000000000000000000000000000000000000000 000000000000000000000000000000000000000     00000000                                                                                                                        000000000000000000
F0010000007357100005000000742399700013552100000000000000000201507150002001CACHARRERIA EL NUEVO CHADID                       D000000000006400000000000000000000100010010000000000000000000000F0010000007357100520150715000101 00000000000000000000000000000000000000000000000000000000000000000000000000000000000000000000000000000000000000000N 00000000000NCONT   00    00000000000          00000000000000000000000000000000000000000000 000000000000000A000000000000000000000000000000000000000000000 000000000000000000000000000000000000000     00000000                                                                                                                        000000000000000000
F0010000007357200001000080201703900011050500000000000000000201507150002001MUNDIAL CHEMICAL LTDA                             D000000001750000000000000000000000100010010000000000000000000000F0010000007357200120150715000101 00000000000000000000000000000000000000000000000000000000000000000000000000000000000000000000000000000000000000000N 00000000000NCONT   00    00000000000          00000000000000000000000000000000000000000000 000000000000000A000000000000000000000000000000000000000000000 000000000000000000000000000000000000000     00000000                                                                                                                        000000000000000000
F0010000007357200002000080201703900041450500000000000000000201507150002001MUNDIAL CHEMICAL LTDA                             C000000001400000000000000000000000100010010000000000000000000000F0010000007357200220150715000101 00000000000000000000000000000000000000000000000000000000000000000000000000000000000000000000000000000000000000000N 00000000000NCONT   00    00000000000          00000000000000000000000000000000000000000000 000000000000000A000000000000000000000000000000000000000000000 000000000000000000000000000000000000000     00000000                                                                                                                        000000000000000000
F0010000007357200003000080201703900042505000000000000000000201507150002001MUNDIAL CHEMICAL LTDA                             C000000000350000000000000000000000100010010000000000000000000000F0010000007357200320150715000101 00000000000000000000000000000000000000000000000000000000000000000000000000000000000000000000000000000000000000000N 00000000000NCONT   00    00000000000          00000000000000000000000000000000000000000000 000000000000000A000000000000000000000000000000000000000000000 000000000000000000000000000000000000000     00000000                                                                                                                        000000000000000000
F0010000007357200004000080201703900023658300000000000000000201507150002001MUNDIAL CHEMICAL LTDA                             C000000000011200000000000000000000100010010000000000000000000000F0010000007357200420150715000101 00000000000000000000000000000000000000000000000000000000000000000000000000000000000000000000000000000000000000000N 00000000000NCONT   00    00000000000          00000000000000000000000000000000000000000000 000000000000000A000000000000000000000000000000000000000000000 000000000000000000000000000000000000000     00000000                                                                                                                        000000000000000000
F0010000007357200005000080201703900013552100000000000000000201507150002001MUNDIAL CHEMICAL LTDA                             D000000000011200000000000000000000100010010000000000000000000000F0010000007357200520150715000101 00000000000000000000000000000000000000000000000000000000000000000000000000000000000000000000000000000000000000000N 00000000000NCONT   00    00000000000          00000000000000000000000000000000000000000000 000000000000000A000000000000000000000000000000000000000000000 000000000000000000000000000000000000000     00000000                                                                                                                        000000000000000000
F0010000007357300001000090015687900011050500000000000000000201507150002001GOMEZ NARANJO & CIA LTDA                          D000000004800000000000000000000000100010010000000000000000000000F0010000007357300120150715000101 00000000000000000000000000000000000000000000000000000000000000000000000000000000000000000000000000000000000000000N 00000000000NCONT   00    00000000000          00000000000000000000000000000000000000000000 000000000000000A000000000000000000000000000000000000000000000 000000000000000000000000000000000000000     00000000                                                                                                                        000000000000000000
F0010000007357300002000090015687900041450500000000000000000201507150002001GOMEZ NARANJO & CIA LTDA                          C000000004500000000000000000000000100010010000000000000000000000F0010000007357300220150715000101 00000000000000000000000000000000000000000000000000000000000000000000000000000000000000000000000000000000000000000N 00000000000NCONT   00    00000000000          00000000000000000000000000000000000000000000 000000000000000A000000000000000000000000000000000000000000000 000000000000000000000000000000000000000     00000000                                                                                                                        000000000000000000
F0010000007357300003000090015687900042505000000000000000000201507150002001GOMEZ NARANJO & CIA LTDA                          C000000000300000000000000000000000100010010000000000000000000000F0010000007357300320150715000101 00000000000000000000000000000000000000000000000000000000000000000000000000000000000000000000000000000000000000000N 00000000000NCONT   00    00000000000          00000000000000000000000000000000000000000000 000000000000000A000000000000000000000000000000000000000000000 000000000000000000000000000000000000000     00000000                                                                                                                        000000000000000000
F0010000007357300004000090015687900023658300000000000000000201507150002001GOMEZ NARANJO & CIA LTDA                          C000000000036000000000000000000000100010010000000000000000000000F0010000007357300420150715000101 00000000000000000000000000000000000000000000000000000000000000000000000000000000000000000000000000000000000000000N 00000000000NCONT   00    00000000000          00000000000000000000000000000000000000000000 000000000000000A000000000000000000000000000000000000000000000 000000000000000000000000000000000000000     00000000                                                                                                                        000000000000000000
F0010000007357300005000090015687900013552100000000000000000201507150002001GOMEZ NARANJO & CIA LTDA                          D000000000036000000000000000000000100010010000000000000000000000F0010000007357300520150715000101 00000000000000000000000000000000000000000000000000000000000000000000000000000000000000000000000000000000000000000N 00000000000NCONT   00    00000000000          00000000000000000000000000000000000000000000 000000000000000A000000000000000000000000000000000000000000000 000000000000000000000000000000000000000     00000000                                                                                                                        000000000000000000
F0010000007357400001000086000061500011050500000000000000000201507150002001DISTRIBUIDORA CORDOBA                             D000000009500000000000000000000000100010010000000000000000000000F0010000007357400120150715000101 00000000000000000000000000000000000000000000000000000000000000000000000000000000000000000000000000000000000000000N 00000000000NCONT   00    00000000000          00000000000000000000000000000000000000000000 000000000000000A000000000000000000000000000000000000000000000 000000000000000000000000000000000000000     00000000                                                                                                                        000000000000000000
F0010000007357400002000086000061500041450500000000000000000201507150002001DISTRIBUIDORA CORDOBA                             C000000008500000000000000000000000100010010000000000000000000000F0010000007357400220150715000101 00000000000000000000000000000000000000000000000000000000000000000000000000000000000000000000000000000000000000000N 00000000000NCONT   00    00000000000          00000000000000000000000000000000000000000000 000000000000000A000000000000000000000000000000000000000000000 000000000000000000000000000000000000000     00000000                                                                                                                        000000000000000000
F0010000007357400003000086000061500042505000000000000000000201507150002001DISTRIBUIDORA CORDOBA                             C000000001000000000000000000000000100010010000000000000000000000F0010000007357400320150715000101 00000000000000000000000000000000000000000000000000000000000000000000000000000000000000000000000000000000000000000N 00000000000NCONT   00    00000000000          00000000000000000000000000000000000000000000 000000000000000A000000000000000000000000000000000000000000000 000000000000000000000000000000000000000     00000000                                                                                                                        000000000000000000
F0010000007357400004000086000061500023658300000000000000000201507150002001DISTRIBUIDORA CORDOBA                             C000000000068000000000000000000000100010010000000000000000000000F0010000007357400420150715000101 00000000000000000000000000000000000000000000000000000000000000000000000000000000000000000000000000000000000000000N 00000000000NCONT   00    00000000000          00000000000000000000000000000000000000000000 000000000000000A000000000000000000000000000000000000000000000 000000000000000000000000000000000000000     00000000                                                                                                                        000000000000000000
F0010000007357400005000086000061500013552100000000000000000201507150002001DISTRIBUIDORA CORDOBA                             D000000000068000000000000000000000100010010000000000000000000000F0010000007357400520150715000101 00000000000000000000000000000000000000000000000000000000000000000000000000000000000000000000000000000000000000000N 00000000000NCONT   00    00000000000          00000000000000000000000000000000000000000000 000000000000000A000000000000000000000000000000000000000000000 000000000000000000000000000000000000000     00000000                                                                                                                        000000000000000000
F0010000007357500001000003314755400011050500000000000000000201507150002001RUMATEX DE COLOMBIA                               D000000001900000000000000000000000100010010000000000000000000000F0010000007357500120150715000101 00000000000000000000000000000000000000000000000000000000000000000000000000000000000000000000000000000000000000000N 00000000000NCONT   00    00000000000          00000000000000000000000000000000000000000000 000000000000000A000000000000000000000000000000000000000000000 000000000000000000000000000000000000000     00000000                                                                                                                        000000000000000000
F0010000007357500002000003314755400041450500000000000000000201507150002001RUMATEX DE COLOMBIA                               C000000001200000000000000000000000100010010000000000000000000000F0010000007357500220150715000101 00000000000000000000000000000000000000000000000000000000000000000000000000000000000000000000000000000000000000000N 00000000000NCONT   00    00000000000          00000000000000000000000000000000000000000000 000000000000000A000000000000000000000000000000000000000000000 000000000000000000000000000000000000000     00000000                                                                                                                        000000000000000000
F0010000007357500003000003314755400042505000000000000000000201507150002001RUMATEX DE COLOMBIA                               C000000000700000000000000000000000100010010000000000000000000000F0010000007357500320150715000101 00000000000000000000000000000000000000000000000000000000000000000000000000000000000000000000000000000000000000000N 00000000000NCONT   00    00000000000          00000000000000000000000000000000000000000000 000000000000000A000000000000000000000000000000000000000000000 000000000000000000000000000000000000000     00000000                                                                                                                        000000000000000000
F0010000007357500004000003314755400023658300000000000000000201507150002001RUMATEX DE COLOMBIA                               C000000000009600000000000000000000100010010000000000000000000000F0010000007357500420150715000101 00000000000000000000000000000000000000000000000000000000000000000000000000000000000000000000000000000000000000000N 00000000000NCONT   00    00000000000          00000000000000000000000000000000000000000000 000000000000000A000000000000000000000000000000000000000000000 000000000000000000000000000000000000000     00000000                                                                                                                        000000000000000000
F0010000007357500005000003314755400013552100000000000000000201507150002001RUMATEX DE COLOMBIA                               D000000000009600000000000000000000100010010000000000000000000000F0010000007357500520150715000101 00000000000000000000000000000000000000000000000000000000000000000000000000000000000000000000000000000000000000000N 00000000000NCONT   00    00000000000          00000000000000000000000000000000000000000000 000000000000000A000000000000000000000000000000000000000000000 000000000000000000000000000000000000000     00000000                                                                                                                        000000000000000000
F0010000007357600001000090050144800011050500000000000000000201507150002001PLASTICOS JR ASOCIADOS SAS                        D000000002100000000000000000000000100010010000000000000000000000F0010000007357600120150715000101 00000000000000000000000000000000000000000000000000000000000000000000000000000000000000000000000000000000000000000N 00000000000NCONT   00    00000000000          00000000000000000000000000000000000000000000 000000000000000A000000000000000000000000000000000000000000000 000000000000000000000000000000000000000     00000000                                                                                                                        000000000000000000
F0010000007357600002000090050144800041450500000000000000000201507150002001PLASTICOS JR ASOCIADOS SAS                        C000000001700000000000000000000000100010010000000000000000000000F0010000007357600220150715000101 00000000000000000000000000000000000000000000000000000000000000000000000000000000000000000000000000000000000000000N 00000000000NCONT   00    00000000000          00000000000000000000000000000000000000000000 000000000000000A000000000000000000000000000000000000000000000 000000000000000000000000000000000000000     00000000                                                                                                                        000000000000000000
F0010000007357600003000090050144800042505000000000000000000201507150002001PLASTICOS JR ASOCIADOS SAS                        C000000000400000000000000000000000100010010000000000000000000000F0010000007357600320150715000101 00000000000000000000000000000000000000000000000000000000000000000000000000000000000000000000000000000000000000000N 00000000000NCONT   00    00000000000          00000000000000000000000000000000000000000000 000000000000000A000000000000000000000000000000000000000000000 000000000000000000000000000000000000000     00000000                                                                                                                        000000000000000000
F0010000007357600004000090050144800023658300000000000000000201507150002001PLASTICOS JR ASOCIADOS SAS                        C000000000013600000000000000000000100010010000000000000000000000F0010000007357600420150715000101 00000000000000000000000000000000000000000000000000000000000000000000000000000000000000000000000000000000000000000N 00000000000NCONT   00    00000000000          00000000000000000000000000000000000000000000 000000000000000A000000000000000000000000000000000000000000000 000000000000000000000000000000000000000     00000000                                                                                                                        000000000000000000
F0010000007357600005000090050144800013552100000000000000000201507150002001PLASTICOS JR ASOCIADOS SAS                        D000000000013600000000000000000000100010010000000000000000000000F0010000007357600520150715000101 00000000000000000000000000000000000000000000000000000000000000000000000000000000000000000000000000000000000000000N 00000000000NCONT   00    00000000000          00000000000000000000000000000000000000000000 000000000000000A000000000000000000000000000000000000000000000 000000000000000000000000000000000000000     00000000                                                                                                                        000000000000000000
F0010000007357700001000000870907300011050500000000000000000201507150002001SURTIDOR FERRETERO                                D000000008200000000000000000000000100010010000000000000000000000F0010000007357700120150715000101 00000000000000000000000000000000000000000000000000000000000000000000000000000000000000000000000000000000000000000N 00000000000NCONT   00    00000000000          00000000000000000000000000000000000000000000 000000000000000A000000000000000000000000000000000000000000000 000000000000000000000000000000000000000     00000000                                                                                                                        000000000000000000
F0010000007357700002000000870907300041450500000000000000000201507150002001SURTIDOR FERRETERO                                C000000004800000000000000000000000100010010000000000000000000000F0010000007357700220150715000101 00000000000000000000000000000000000000000000000000000000000000000000000000000000000000000000000000000000000000000N 00000000000NCONT   00    00000000000          00000000000000000000000000000000000000000000 000000000000000A000000000000000000000000000000000000000000000 000000000000000000000000000000000000000     00000000                                                                                                                        000000000000000000
F0010000007357700003000000870907300042505000000000000000000201507150002001SURTIDOR FERRETERO                                C000000003400000000000000000000000100010010000000000000000000000F0010000007357700320150715000101 00000000000000000000000000000000000000000000000000000000000000000000000000000000000000000000000000000000000000000N 00000000000NCONT   00    00000000000          00000000000000000000000000000000000000000000 000000000000000A000000000000000000000000000000000000000000000 000000000000000000000000000000000000000     00000000                                                                                                                        000000000000000000
F0010000007357700004000000870907300023658300000000000000000201507150002001SURTIDOR FERRETERO                                C000000000038400000000000000000000100010010000000000000000000000F0010000007357700420150715000101 00000000000000000000000000000000000000000000000000000000000000000000000000000000000000000000000000000000000000000N 00000000000NCONT   00    00000000000          00000000000000000000000000000000000000000000 000000000000000A000000000000000000000000000000000000000000000 000000000000000000000000000000000000000     00000000                                                                                                                        000000000000000000
F0010000007357700005000000870907300013552100000000000000000201507150002001SURTIDOR FERRETERO                                D000000000038400000000000000000000100010010000000000000000000000F0010000007357700520150715000101 00000000000000000000000000000000000000000000000000000000000000000000000000000000000000000000000000000000000000000N 00000000000NCONT   00    00000000000          00000000000000000000000000000000000000000000 000000000000000A000000000000000000000000000000000000000000000 000000000000000000000000000000000000000     00000000                                                                                                                        000000000000000000
F0010000007357800001000007226027400011050500000000000000000201507150002001DISTRIBUIDORA NEPTUNO                             D000000002700000000000000000000000100010010000000000000000000000F0010000007357800120150715000101 00000000000000000000000000000000000000000000000000000000000000000000000000000000000000000000000000000000000000000N 00000000000NCONT   00    00000000000          00000000000000000000000000000000000000000000 000000000000000A000000000000000000000000000000000000000000000 000000000000000000000000000000000000000     00000000                                                                                                                        000000000000000000
F0010000007357800002000007226027400041450500000000000000000201507150002001DISTRIBUIDORA NEPTUNO                             C000000002400000000000000000000000100010010000000000000000000000F0010000007357800220150715000101 00000000000000000000000000000000000000000000000000000000000000000000000000000000000000000000000000000000000000000N 00000000000NCONT   00    00000000000          00000000000000000000000000000000000000000000 000000000000000A000000000000000000000000000000000000000000000 000000000000000000000000000000000000000     00000000                                                                                                                        000000000000000000
F0010000007357800003000007226027400042505000000000000000000201507150002001DISTRIBUIDORA NEPTUNO                             C000000000300000000000000000000000100010010000000000000000000000F0010000007357800320150715000101 00000000000000000000000000000000000000000000000000000000000000000000000000000000000000000000000000000000000000000N 00000000000NCONT   00    00000000000          00000000000000000000000000000000000000000000 000000000000000A000000000000000000000000000000000000000000000 000000000000000000000000000000000000000     00000000                                                                                                                        000000000000000000
F0010000007357800004000007226027400023658300000000000000000201507150002001DISTRIBUIDORA NEPTUNO                             C000000000019200000000000000000000100010010000000000000000000000F0010000007357800420150715000101 00000000000000000000000000000000000000000000000000000000000000000000000000000000000000000000000000000000000000000N 00000000000NCONT   00    00000000000          00000000000000000000000000000000000000000000 000000000000000A000000000000000000000000000000000000000000000 000000000000000000000000000000000000000     00000000                                                                                                                        000000000000000000
F0010000007357800005000007226027400013552100000000000000000201507150002001DISTRIBUIDORA NEPTUNO                             D000000000019200000000000000000000100010010000000000000000000000F0010000007357800520150715000101 00000000000000000000000000000000000000000000000000000000000000000000000000000000000000000000000000000000000000000N 00000000000NCONT   00    00000000000          00000000000000000000000000000000000000000000 000000000000000A000000000000000000000000000000000000000000000 000000000000000000000000000000000000000     00000000                                                                                                                        000000000000000000
F0010000007357900001000090036991700011050500000000000000000201507150002001DELTA INTERNACIONAL  S.A.S                        D000000004200000000000000000000000100010010000000000000000000000F0010000007357900120150715000101 00000000000000000000000000000000000000000000000000000000000000000000000000000000000000000000000000000000000000000N 00000000000NCONT   00    00000000000          00000000000000000000000000000000000000000000 000000000000000A000000000000000000000000000000000000000000000 000000000000000000000000000000000000000     00000000                                                                                                                        000000000000000000
F0010000007357900002000090036991700041450500000000000000000201507150002001DELTA INTERNACIONAL  S.A.S                        C000000003600000000000000000000000100010010000000000000000000000F0010000007357900220150715000101 00000000000000000000000000000000000000000000000000000000000000000000000000000000000000000000000000000000000000000N 00000000000NCONT   00    00000000000          00000000000000000000000000000000000000000000 000000000000000A000000000000000000000000000000000000000000000 000000000000000000000000000000000000000     00000000                                                                                                                        000000000000000000
F0010000007357900003000090036991700042505000000000000000000201507150002001DELTA INTERNACIONAL  S.A.S                        C000000000600000000000000000000000100010010000000000000000000000F0010000007357900320150715000101 00000000000000000000000000000000000000000000000000000000000000000000000000000000000000000000000000000000000000000N 00000000000NCONT   00    00000000000          00000000000000000000000000000000000000000000 000000000000000A000000000000000000000000000000000000000000000 000000000000000000000000000000000000000     00000000                                                                                                                        000000000000000000
F0010000007357900004000090036991700023658300000000000000000201507150002001DELTA INTERNACIONAL  S.A.S                        C000000000028800000000000000000000100010010000000000000000000000F0010000007357900420150715000101 00000000000000000000000000000000000000000000000000000000000000000000000000000000000000000000000000000000000000000N 00000000000NCONT   00    00000000000          00000000000000000000000000000000000000000000 000000000000000A000000000000000000000000000000000000000000000 000000000000000000000000000000000000000     00000000                                                                                                                        000000000000000000
F0010000007357900005000090036991700013552100000000000000000201507150002001DELTA INTERNACIONAL  S.A.S                        D000000000028800000000000000000000100010010000000000000000000000F0010000007357900520150715000101 00000000000000000000000000000000000000000000000000000000000000000000000000000000000000000000000000000000000000000N 00000000000NCONT   00    00000000000          00000000000000000000000000000000000000000000 000000000000000A000000000000000000000000000000000000000000000 000000000000000000000000000000000000000     00000000                                                                                                                        000000000000000000
F0010000007358000001000090036991700011050500000000000000000201507150002001DELTA INTERNACIONAL  S.A.S                        D000000001400000000000000000000000100010010000000000000000000000F0010000007358000120150715000101 00000000000000000000000000000000000000000000000000000000000000000000000000000000000000000000000000000000000000000N 00000000000NCONT   00    00000000000          00000000000000000000000000000000000000000000 000000000000000A000000000000000000000000000000000000000000000 000000000000000000000000000000000000000     00000000                                                                                                                        000000000000000000
F0010000007358000002000090036991700041450500000000000000000201507150002001DELTA INTERNACIONAL  S.A.S                        C000000001200000000000000000000000100010010000000000000000000000F0010000007358000220150715000101 00000000000000000000000000000000000000000000000000000000000000000000000000000000000000000000000000000000000000000N 00000000000NCONT   00    00000000000          00000000000000000000000000000000000000000000 000000000000000A000000000000000000000000000000000000000000000 000000000000000000000000000000000000000     00000000                                                                                                                        000000000000000000
F0010000007358000003000090036991700042505000000000000000000201507150002001DELTA INTERNACIONAL  S.A.S                        C000000000200000000000000000000000100010010000000000000000000000F0010000007358000320150715000101 00000000000000000000000000000000000000000000000000000000000000000000000000000000000000000000000000000000000000000N 00000000000NCONT   00    00000000000          00000000000000000000000000000000000000000000 000000000000000A000000000000000000000000000000000000000000000 000000000000000000000000000000000000000     00000000                                                                                                                        000000000000000000
F0010000007358000004000090036991700023658300000000000000000201507150002001DELTA INTERNACIONAL  S.A.S                        C000000000009600000000000000000000100010010000000000000000000000F0010000007358000420150715000101 00000000000000000000000000000000000000000000000000000000000000000000000000000000000000000000000000000000000000000N 00000000000NCONT   00    00000000000          00000000000000000000000000000000000000000000 000000000000000A000000000000000000000000000000000000000000000 000000000000000000000000000000000000000     00000000                                                                                                                        000000000000000000
F0010000007358000005000090036991700013552100000000000000000201507150002001DELTA INTERNACIONAL  S.A.S                        D000000000009600000000000000000000100010010000000000000000000000F0010000007358000520150715000101 00000000000000000000000000000000000000000000000000000000000000000000000000000000000000000000000000000000000000000N 00000000000NCONT   00    00000000000          00000000000000000000000000000000000000000000 000000000000000A000000000000000000000000000000000000000000000 000000000000000000000000000000000000000     00000000                                                                                                                        000000000000000000
F0010000007358100001000007934219000011050500000000000000000201507150002001CANDELEC ILUMINACIONE                             D000000007000000000000000000000000100010010000000000000000000000F0010000007358100120150715000101 00000000000000000000000000000000000000000000000000000000000000000000000000000000000000000000000000000000000000000N 00000000000NCONT   00    00000000000          00000000000000000000000000000000000000000000 000000000000000A000000000000000000000000000000000000000000000 000000000000000000000000000000000000000     00000000                                                                                                                        000000000000000000
F0010000007358100002000007934219000041450500000000000000000201507150002001CANDELEC ILUMINACIONE                             C000000006000000000000000000000000100010010000000000000000000000F0010000007358100220150715000101 00000000000000000000000000000000000000000000000000000000000000000000000000000000000000000000000000000000000000000N 00000000000NCONT   00    00000000000          00000000000000000000000000000000000000000000 000000000000000A000000000000000000000000000000000000000000000 000000000000000000000000000000000000000     00000000                                                                                                                        000000000000000000
F0010000007358100003000007934219000042505000000000000000000201507150002001CANDELEC ILUMINACIONE                             C000000001000000000000000000000000100010010000000000000000000000F0010000007358100320150715000101 00000000000000000000000000000000000000000000000000000000000000000000000000000000000000000000000000000000000000000N 00000000000NCONT   00    00000000000          00000000000000000000000000000000000000000000 000000000000000A000000000000000000000000000000000000000000000 000000000000000000000000000000000000000     00000000                                                                                                                        000000000000000000
F0010000007358100004000007934219000023658300000000000000000201507150002001CANDELEC ILUMINACIONE                             C000000000048000000000000000000000100010010000000000000000000000F0010000007358100420150715000101 00000000000000000000000000000000000000000000000000000000000000000000000000000000000000000000000000000000000000000N 00000000000NCONT   00    00000000000          00000000000000000000000000000000000000000000 000000000000000A000000000000000000000000000000000000000000000 000000000000000000000000000000000000000     00000000                                                                                                                        000000000000000000
F0010000007358100005000007934219000013552100000000000000000201507150002001CANDELEC ILUMINACIONE                             D000000000048000000000000000000000100010010000000000000000000000F0010000007358100520150715000101 00000000000000000000000000000000000000000000000000000000000000000000000000000000000000000000000000000000000000000N 00000000000NCONT   00    00000000000          00000000000000000000000000000000000000000000 000000000000000A000000000000000000000000000000000000000000000 000000000000000000000000000000000000000     00000000                                                                                                                        000000000000000000
F0010000007358200001000000431178400011050500000000000000000201507150002001EFRAIN ALVAREZ                                    D000000000810000000000000000000000100010010000000000000000000000F0010000007358200120150715000101 00000000000000000000000000000000000000000000000000000000000000000000000000000000000000000000000000000000000000000N 00000000000NCONT   00    00000000000          00000000000000000000000000000000000000000000 000000000000000A000000000000000000000000000000000000000000000 000000000000000000000000000000000000000     00000000                                                                                                                        000000000000000000
F0010000007358200002000000431178400041450500000000000000000201507150002001EFRAIN ALVAREZ                                    C000000000760000000000000000000000100010010000000000000000000000F0010000007358200220150715000101 00000000000000000000000000000000000000000000000000000000000000000000000000000000000000000000000000000000000000000N 00000000000NCONT   00    00000000000          00000000000000000000000000000000000000000000 000000000000000A000000000000000000000000000000000000000000000 000000000000000000000000000000000000000     00000000                                                                                                                        000000000000000000
F0010000007358200003000000431178400042505000000000000000000201507150002001EFRAIN ALVAREZ                                    C000000000050000000000000000000000100010010000000000000000000000F0010000007358200320150715000101 00000000000000000000000000000000000000000000000000000000000000000000000000000000000000000000000000000000000000000N 00000000000NCONT   00    00000000000          00000000000000000000000000000000000000000000 000000000000000A000000000000000000000000000000000000000000000 000000000000000000000000000000000000000     00000000                                                                                                                        000000000000000000
F0010000007358200004000000431178400023658300000000000000000201507150002001EFRAIN ALVAREZ                                    C000000000006100000000000000000000100010010000000000000000000000F0010000007358200420150715000101 00000000000000000000000000000000000000000000000000000000000000000000000000000000000000000000000000000000000000000N 00000000000NCONT   00    00000000000          00000000000000000000000000000000000000000000 000000000000000A000000000000000000000000000000000000000000000 000000000000000000000000000000000000000     00000000                                                                                                                        000000000000000000
F0010000007358200005000000431178400013552100000000000000000201507150002001EFRAIN ALVAREZ                                    D000000000006100000000000000000000100010010000000000000000000000F0010000007358200520150715000101 00000000000000000000000000000000000000000000000000000000000000000000000000000000000000000000000000000000000000000N 00000000000NCONT   00    00000000000          00000000000000000000000000000000000000000000 000000000000000A000000000000000000000000000000000000000000000 000000000000000000000000000000000000000     00000000                                                                                                                        000000000000000000
F0010000007358300001000000431178400011050500000000000000000201507150002001EFRAIN ALVAREZ                                    D000000000480000000000000000000000100010010000000000000000000000F0010000007358300120150715000101 00000000000000000000000000000000000000000000000000000000000000000000000000000000000000000000000000000000000000000N 00000000000NCONT   00    00000000000          00000000000000000000000000000000000000000000 000000000000000A000000000000000000000000000000000000000000000 000000000000000000000000000000000000000     00000000                                                                                                                        000000000000000000
F0010000007358300002000000431178400041450500000000000000000201507150002001EFRAIN ALVAREZ                                    C000000000380000000000000000000000100010010000000000000000000000F0010000007358300220150715000101 00000000000000000000000000000000000000000000000000000000000000000000000000000000000000000000000000000000000000000N 00000000000NCONT   00    00000000000          00000000000000000000000000000000000000000000 000000000000000A000000000000000000000000000000000000000000000 000000000000000000000000000000000000000     00000000                                                                                                                        000000000000000000
F0010000007358300003000000431178400042505000000000000000000201507150002001EFRAIN ALVAREZ                                    C000000000100000000000000000000000100010010000000000000000000000F0010000007358300320150715000101 00000000000000000000000000000000000000000000000000000000000000000000000000000000000000000000000000000000000000000N 00000000000NCONT   00    00000000000          00000000000000000000000000000000000000000000 000000000000000A000000000000000000000000000000000000000000000 000000000000000000000000000000000000000     00000000                                                                                                                        000000000000000000
F0010000007358300004000000431178400023658300000000000000000201507150002001EFRAIN ALVAREZ                                    C000000000003000000000000000000000100010010000000000000000000000F0010000007358300420150715000101 00000000000000000000000000000000000000000000000000000000000000000000000000000000000000000000000000000000000000000N 00000000000NCONT   00    00000000000          00000000000000000000000000000000000000000000 000000000000000A000000000000000000000000000000000000000000000 000000000000000000000000000000000000000     00000000                                                                                                                        000000000000000000
F0010000007358300005000000431178400013552100000000000000000201507150002001EFRAIN ALVAREZ                                    D000000000003000000000000000000000100010010000000000000000000000F0010000007358300520150715000101 00000000000000000000000000000000000000000000000000000000000000000000000000000000000000000000000000000000000000000N 00000000000NCONT   00    00000000000          00000000000000000000000000000000000000000000 000000000000000A000000000000000000000000000000000000000000000 000000000000000000000000000000000000000     00000000                                                                                                                        000000000000000000
F0010000007358400001000090034602400011050500000000000000000201507150002001PRODUCTOS NACIONALES PARAFINICOS LA CUSTODIA S.A.SD000000001000000000000000000000000100010010000000000000000000000F0010000007358400120150715000101 00000000000000000000000000000000000000000000000000000000000000000000000000000000000000000000000000000000000000000N 00000000000NCONT   00    00000000000          00000000000000000000000000000000000000000000 000000000000000A000000000000000000000000000000000000000000000 000000000000000000000000000000000000000     00000000                                                                                                                        000000000000000000
F0010000007358400002000090034602400041450500000000000000000201507150002001PRODUCTOS NACIONALES PARAFINICOS LA CUSTODIA S.A.SC000000000900000000000000000000000100010010000000000000000000000F0010000007358400220150715000101 00000000000000000000000000000000000000000000000000000000000000000000000000000000000000000000000000000000000000000N 00000000000NCONT   00    00000000000          00000000000000000000000000000000000000000000 000000000000000A000000000000000000000000000000000000000000000 000000000000000000000000000000000000000     00000000                                                                                                                        000000000000000000
F0010000007358400003000090034602400042505000000000000000000201507150002001PRODUCTOS NACIONALES PARAFINICOS LA CUSTODIA S.A.SC000000000100000000000000000000000100010010000000000000000000000F0010000007358400320150715000101 00000000000000000000000000000000000000000000000000000000000000000000000000000000000000000000000000000000000000000N 00000000000NCONT   00    00000000000          00000000000000000000000000000000000000000000 000000000000000A000000000000000000000000000000000000000000000 000000000000000000000000000000000000000     00000000                                                                                                                        000000000000000000
F0010000007358400004000090034602400023658300000000000000000201507150002001PRODUCTOS NACIONALES PARAFINICOS LA CUSTODIA S.A.SC000000000007200000000000000000000100010010000000000000000000000F0010000007358400420150715000101 00000000000000000000000000000000000000000000000000000000000000000000000000000000000000000000000000000000000000000N 00000000000NCONT   00    00000000000          00000000000000000000000000000000000000000000 000000000000000A000000000000000000000000000000000000000000000 000000000000000000000000000000000000000     00000000                                                                                                                        000000000000000000
F0010000007358400005000090034602400013552100000000000000000201507150002001PRODUCTOS NACIONALES PARAFINICOS LA CUSTODIA S.A.SD000000000007200000000000000000000100010010000000000000000000000F0010000007358400520150715000101 00000000000000000000000000000000000000000000000000000000000000000000000000000000000000000000000000000000000000000N 00000000000NCONT   00    00000000000          00000000000000000000000000000000000000000000 000000000000000A000000000000000000000000000000000000000000000 000000000000000000000000000000000000000     00000000                                                                                                                        000000000000000000
F0010000007358500001000000431178400011050500000000000000000201507150002001EFRAIN ALVAREZ                                    D000000001870000000000000000000000100010010000000000000000000000F0010000007358500120150715000101 00000000000000000000000000000000000000000000000000000000000000000000000000000000000000000000000000000000000000000N 00000000000NCONT   00    00000000000          00000000000000000000000000000000000000000000 000000000000000A000000000000000000000000000000000000000000000 000000000000000000000000000000000000000     00000000                                                                                                                        000000000000000000
F0010000007358500002000000431178400041450500000000000000000201507150002001EFRAIN ALVAREZ                                    C000000001720000000000000000000000100010010000000000000000000000F0010000007358500220150715000101 00000000000000000000000000000000000000000000000000000000000000000000000000000000000000000000000000000000000000000N 00000000000NCONT   00    00000000000          00000000000000000000000000000000000000000000 000000000000000A000000000000000000000000000000000000000000000 000000000000000000000000000000000000000     00000000                                                                                                                        000000000000000000
F0010000007358500003000000431178400042505000000000000000000201507150002001EFRAIN ALVAREZ                                    C000000000150000000000000000000000100010010000000000000000000000F0010000007358500320150715000101 00000000000000000000000000000000000000000000000000000000000000000000000000000000000000000000000000000000000000000N 00000000000NCONT   00    00000000000          00000000000000000000000000000000000000000000 000000000000000A000000000000000000000000000000000000000000000 000000000000000000000000000000000000000     00000000                                                                                                                        000000000000000000
F0010000007358500004000000431178400023658300000000000000000201507150002001EFRAIN ALVAREZ                                    C000000000013800000000000000000000100010010000000000000000000000F0010000007358500420150715000101 00000000000000000000000000000000000000000000000000000000000000000000000000000000000000000000000000000000000000000N 00000000000NCONT   00    00000000000          00000000000000000000000000000000000000000000 000000000000000A000000000000000000000000000000000000000000000 000000000000000000000000000000000000000     00000000                                                                                                                        000000000000000000
F0010000007358500005000000431178400013552100000000000000000201507150002001EFRAIN ALVAREZ                                    D000000000013800000000000000000000100010010000000000000000000000F0010000007358500520150715000101 00000000000000000000000000000000000000000000000000000000000000000000000000000000000000000000000000000000000000000N 00000000000NCONT   00    00000000000          00000000000000000000000000000000000000000000 000000000000000A000000000000000000000000000000000000000000000 000000000000000000000000000000000000000     00000000                                                                                                                        000000000000000000
F0010000007358600001000000431178400011050500000000000000000201507150002001EFRAIN ALVAREZ                                    D000000000910000000000000000000000100010010000000000000000000000F0010000007358600120150715000101 00000000000000000000000000000000000000000000000000000000000000000000000000000000000000000000000000000000000000000N 00000000000NCONT   00    00000000000          00000000000000000000000000000000000000000000 000000000000000A000000000000000000000000000000000000000000000 000000000000000000000000000000000000000     00000000                                                                                                                        000000000000000000
F0010000007358600002000000431178400041450500000000000000000201507150002001EFRAIN ALVAREZ                                    C000000000860000000000000000000000100010010000000000000000000000F0010000007358600220150715000101 00000000000000000000000000000000000000000000000000000000000000000000000000000000000000000000000000000000000000000N 00000000000NCONT   00    00000000000          00000000000000000000000000000000000000000000 000000000000000A000000000000000000000000000000000000000000000 000000000000000000000000000000000000000     00000000                                                                                                                        000000000000000000
F0010000007358600003000000431178400042505000000000000000000201507150002001EFRAIN ALVAREZ                                    C000000000050000000000000000000000100010010000000000000000000000F0010000007358600320150715000101 00000000000000000000000000000000000000000000000000000000000000000000000000000000000000000000000000000000000000000N 00000000000NCONT   00    00000000000          00000000000000000000000000000000000000000000 000000000000000A000000000000000000000000000000000000000000000 000000000000000000000000000000000000000     00000000                                                                                                                        000000000000000000
F0010000007358600004000000431178400023658300000000000000000201507150002001EFRAIN ALVAREZ                                    C000000000006900000000000000000000100010010000000000000000000000F0010000007358600420150715000101 00000000000000000000000000000000000000000000000000000000000000000000000000000000000000000000000000000000000000000N 00000000000NCONT   00    00000000000          00000000000000000000000000000000000000000000 000000000000000A000000000000000000000000000000000000000000000 000000000000000000000000000000000000000     00000000                                                                                                                        000000000000000000
F0010000007358600005000000431178400013552100000000000000000201507150002001EFRAIN ALVAREZ                                    D000000000006900000000000000000000100010010000000000000000000000F0010000007358600520150715000101 00000000000000000000000000000000000000000000000000000000000000000000000000000000000000000000000000000000000000000N 00000000000NCONT   00    00000000000          00000000000000000000000000000000000000000000 000000000000000A000000000000000000000000000000000000000000000 000000000000000000000000000000000000000     00000000                                                                                                                        000000000000000000
F0010000007358700001000001022529300011050500000000000000000201507150002001ALBERTO ALVAREZ ISAZA                             D000000000860000000000000000000000100010010000000000000000000000F0010000007358700120150715000101 00000000000000000000000000000000000000000000000000000000000000000000000000000000000000000000000000000000000000000N 00000000000NCONT   00    00000000000          00000000000000000000000000000000000000000000 000000000000000A000000000000000000000000000000000000000000000 000000000000000000000000000000000000000     00000000                                                                                                                        000000000000000000
F0010000007358700002000001022529300041450500000000000000000201507150002001ALBERTO ALVAREZ ISAZA                             C000000000760000000000000000000000100010010000000000000000000000F0010000007358700220150715000101 00000000000000000000000000000000000000000000000000000000000000000000000000000000000000000000000000000000000000000N 00000000000NCONT   00    00000000000          00000000000000000000000000000000000000000000 000000000000000A000000000000000000000000000000000000000000000 000000000000000000000000000000000000000     00000000                                                                                                                        000000000000000000
F0010000007358700003000001022529300042505000000000000000000201507150002001ALBERTO ALVAREZ ISAZA                             C000000000100000000000000000000000100010010000000000000000000000F0010000007358700320150715000101 00000000000000000000000000000000000000000000000000000000000000000000000000000000000000000000000000000000000000000N 00000000000NCONT   00    00000000000          00000000000000000000000000000000000000000000 000000000000000A000000000000000000000000000000000000000000000 000000000000000000000000000000000000000     00000000                                                                                                                        000000000000000000
F0010000007358700004000001022529300023658300000000000000000201507150002001ALBERTO ALVAREZ ISAZA                             C000000000006100000000000000000000100010010000000000000000000000F0010000007358700420150715000101 00000000000000000000000000000000000000000000000000000000000000000000000000000000000000000000000000000000000000000N 00000000000NCONT   00    00000000000          00000000000000000000000000000000000000000000 000000000000000A000000000000000000000000000000000000000000000 000000000000000000000000000000000000000     00000000                                                                                                                        000000000000000000
F0010000007358700005000001022529300013552100000000000000000201507150002001ALBERTO ALVAREZ ISAZA                             D000000000006100000000000000000000100010010000000000000000000000F0010000007358700520150715000101 00000000000000000000000000000000000000000000000000000000000000000000000000000000000000000000000000000000000000000N 00000000000NCONT   00    00000000000          00000000000000000000000000000000000000000000 000000000000000A000000000000000000000000000000000000000000000 000000000000000000000000000000000000000     00000000                                                                                                                        000000000000000000
F0010000007358800001000001022529300011050500000000000000000201507150002001ALBERTO ALVAREZ ISAZA                             D000000000430000000000000000000000100010010000000000000000000000F0010000007358800120150715000101 00000000000000000000000000000000000000000000000000000000000000000000000000000000000000000000000000000000000000000N 00000000000NCONT   00    00000000000          00000000000000000000000000000000000000000000 000000000000000A000000000000000000000000000000000000000000000 000000000000000000000000000000000000000     00000000                                                                                                                        000000000000000000
F0010000007358800002000001022529300041450500000000000000000201507150002001ALBERTO ALVAREZ ISAZA                             C000000000380000000000000000000000100010010000000000000000000000F0010000007358800220150715000101 00000000000000000000000000000000000000000000000000000000000000000000000000000000000000000000000000000000000000000N 00000000000NCONT   00    00000000000          00000000000000000000000000000000000000000000 000000000000000A000000000000000000000000000000000000000000000 000000000000000000000000000000000000000     00000000                                                                                                                        000000000000000000
F0010000007358800003000001022529300042505000000000000000000201507150002001ALBERTO ALVAREZ ISAZA                             C000000000050000000000000000000000100010010000000000000000000000F0010000007358800320150715000101 00000000000000000000000000000000000000000000000000000000000000000000000000000000000000000000000000000000000000000N 00000000000NCONT   00    00000000000          00000000000000000000000000000000000000000000 000000000000000A000000000000000000000000000000000000000000000 000000000000000000000000000000000000000     00000000                                                                                                                        000000000000000000
F0010000007358800004000001022529300023658300000000000000000201507150002001ALBERTO ALVAREZ ISAZA                             C000000000003000000000000000000000100010010000000000000000000000F0010000007358800420150715000101 00000000000000000000000000000000000000000000000000000000000000000000000000000000000000000000000000000000000000000N 00000000000NCONT   00    00000000000          00000000000000000000000000000000000000000000 000000000000000A000000000000000000000000000000000000000000000 000000000000000000000000000000000000000     00000000                                                                                                                        000000000000000000
F0010000007358800005000001022529300013552100000000000000000201507150002001ALBERTO ALVAREZ ISAZA                             D000000000003000000000000000000000100010010000000000000000000000F0010000007358800520150715000101 00000000000000000000000000000000000000000000000000000000000000000000000000000000000000000000000000000000000000000N 00000000000NCONT   00    00000000000          00000000000000000000000000000000000000000000 000000000000000A000000000000000000000000000000000000000000000 000000000000000000000000000000000000000     00000000                                                                                                                        000000000000000000
F0010000007358900001000001022529300011050500000000000000000201507150002001ALBERTO ALVAREZ ISAZA                             D000000000430000000000000000000000100010010000000000000000000000F0010000007358900120150715000101 00000000000000000000000000000000000000000000000000000000000000000000000000000000000000000000000000000000000000000N 00000000000NCONT   00    00000000000          00000000000000000000000000000000000000000000 000000000000000A000000000000000000000000000000000000000000000 000000000000000000000000000000000000000     00000000                                                                                                                        000000000000000000
F0010000007358900002000001022529300041450500000000000000000201507150002001ALBERTO ALVAREZ ISAZA                             C000000000380000000000000000000000100010010000000000000000000000F0010000007358900220150715000101 00000000000000000000000000000000000000000000000000000000000000000000000000000000000000000000000000000000000000000N 00000000000NCONT   00    00000000000          00000000000000000000000000000000000000000000 000000000000000A000000000000000000000000000000000000000000000 000000000000000000000000000000000000000     00000000                                                                                                                        000000000000000000
F0010000007358900003000001022529300042505000000000000000000201507150002001ALBERTO ALVAREZ ISAZA                             C000000000050000000000000000000000100010010000000000000000000000F0010000007358900320150715000101 00000000000000000000000000000000000000000000000000000000000000000000000000000000000000000000000000000000000000000N 00000000000NCONT   00    00000000000          00000000000000000000000000000000000000000000 000000000000000A000000000000000000000000000000000000000000000 000000000000000000000000000000000000000     00000000                                                                                                                        000000000000000000
F0010000007358900004000001022529300023658300000000000000000201507150002001ALBERTO ALVAREZ ISAZA                             C000000000003000000000000000000000100010010000000000000000000000F0010000007358900420150715000101 00000000000000000000000000000000000000000000000000000000000000000000000000000000000000000000000000000000000000000N 00000000000NCONT   00    00000000000          00000000000000000000000000000000000000000000 000000000000000A000000000000000000000000000000000000000000000 000000000000000000000000000000000000000     00000000                                                                                                                        000000000000000000
F0010000007358900005000001022529300013552100000000000000000201507150002001ALBERTO ALVAREZ ISAZA                             D000000000003000000000000000000000100010010000000000000000000000F0010000007358900520150715000101 00000000000000000000000000000000000000000000000000000000000000000000000000000000000000000000000000000000000000000N 00000000000NCONT   00    00000000000          00000000000000000000000000000000000000000000 000000000000000A000000000000000000000000000000000000000000000 000000000000000000000000000000000000000     00000000                                                                                                                        000000000000000000
F0010000007359000001000001022529300011050500000000000000000201507150002001ALBERTO ALVAREZ ISAZA                             D000000000480000000000000000000000100010010000000000000000000000F0010000007359000120150715000101 00000000000000000000000000000000000000000000000000000000000000000000000000000000000000000000000000000000000000000N 00000000000NCONT   00    00000000000          00000000000000000000000000000000000000000000 000000000000000A000000000000000000000000000000000000000000000 000000000000000000000000000000000000000     00000000                                                                                                                        000000000000000000
F0010000007359000002000001022529300041450500000000000000000201507150002001ALBERTO ALVAREZ ISAZA                             C000000000380000000000000000000000100010010000000000000000000000F0010000007359000220150715000101 00000000000000000000000000000000000000000000000000000000000000000000000000000000000000000000000000000000000000000N 00000000000NCONT   00    00000000000          00000000000000000000000000000000000000000000 000000000000000A000000000000000000000000000000000000000000000 000000000000000000000000000000000000000     00000000                                                                                                                        000000000000000000
F0010000007359000003000001022529300042505000000000000000000201507150002001ALBERTO ALVAREZ ISAZA                             C000000000100000000000000000000000100010010000000000000000000000F0010000007359000320150715000101 00000000000000000000000000000000000000000000000000000000000000000000000000000000000000000000000000000000000000000N 00000000000NCONT   00    00000000000          00000000000000000000000000000000000000000000 000000000000000A000000000000000000000000000000000000000000000 000000000000000000000000000000000000000     00000000                                                                                                                        000000000000000000
F0010000007359000004000001022529300023658300000000000000000201507150002001ALBERTO ALVAREZ ISAZA                             C000000000003000000000000000000000100010010000000000000000000000F0010000007359000420150715000101 00000000000000000000000000000000000000000000000000000000000000000000000000000000000000000000000000000000000000000N 00000000000NCONT   00    00000000000          00000000000000000000000000000000000000000000 000000000000000A000000000000000000000000000000000000000000000 000000000000000000000000000000000000000     00000000                                                                                                                        000000000000000000
F0010000007359000005000001022529300013552100000000000000000201507150002001ALBERTO ALVAREZ ISAZA                             D000000000003000000000000000000000100010010000000000000000000000F0010000007359000520150715000101 00000000000000000000000000000000000000000000000000000000000000000000000000000000000000000000000000000000000000000N 00000000000NCONT   00    00000000000          00000000000000000000000000000000000000000000 000000000000000A000000000000000000000000000000000000000000000 000000000000000000000000000000000000000     00000000                                                                                                                        000000000000000000
F0010000007359100001000001022529300011050500000000000000000201507150002001ALBERTO ALVAREZ ISAZA                             D000000001215000000000000000000000100010010000000000000000000000F0010000007359100120150715000101 00000000000000000000000000000000000000000000000000000000000000000000000000000000000000000000000000000000000000000N 00000000000NCONT   00    00000000000          00000000000000000000000000000000000000000000 000000000000000A000000000000000000000000000000000000000000000 000000000000000000000000000000000000000     00000000                                                                                                                        000000000000000000
F0010000007359100002000001022529300041450500000000000000000201507150002001ALBERTO ALVAREZ ISAZA                             C000000001140000000000000000000000100010010000000000000000000000F0010000007359100220150715000101 00000000000000000000000000000000000000000000000000000000000000000000000000000000000000000000000000000000000000000N 00000000000NCONT   00    00000000000          00000000000000000000000000000000000000000000 000000000000000A000000000000000000000000000000000000000000000 000000000000000000000000000000000000000     00000000                                                                                                                        000000000000000000
F0010000007359100003000001022529300042505000000000000000000201507150002001ALBERTO ALVAREZ ISAZA                             C000000000075000000000000000000000100010010000000000000000000000F0010000007359100320150715000101 00000000000000000000000000000000000000000000000000000000000000000000000000000000000000000000000000000000000000000N 00000000000NCONT   00    00000000000          00000000000000000000000000000000000000000000 000000000000000A000000000000000000000000000000000000000000000 000000000000000000000000000000000000000     00000000                                                                                                                        000000000000000000
F0010000007359100004000001022529300023658300000000000000000201507150002001ALBERTO ALVAREZ ISAZA                             C000000000009100000000000000000000100010010000000000000000000000F0010000007359100420150715000101 00000000000000000000000000000000000000000000000000000000000000000000000000000000000000000000000000000000000000000N 00000000000NCONT   00    00000000000          00000000000000000000000000000000000000000000 000000000000000A000000000000000000000000000000000000000000000 000000000000000000000000000000000000000     00000000                                                                                                                        000000000000000000
F0010000007359100005000001022529300013552100000000000000000201507150002001ALBERTO ALVAREZ ISAZA                             D000000000009100000000000000000000100010010000000000000000000000F0010000007359100520150715000101 00000000000000000000000000000000000000000000000000000000000000000000000000000000000000000000000000000000000000000N 00000000000NCONT   00    00000000000          00000000000000000000000000000000000000000000 000000000000000A000000000000000000000000000000000000000000000 000000000000000000000000000000000000000     00000000                                                                                                                        000000000000000000
F0010000007359200001000001022529300011050500000000000000000201507150002001ALBERTO ALVAREZ ISAZA                             D000000000430000000000000000000000100010010000000000000000000000F0010000007359200120150715000101 00000000000000000000000000000000000000000000000000000000000000000000000000000000000000000000000000000000000000000N 00000000000NCONT   00    00000000000          00000000000000000000000000000000000000000000 000000000000000A000000000000000000000000000000000000000000000 000000000000000000000000000000000000000     00000000                                                                                                                        000000000000000000
F0010000007359200002000001022529300041450500000000000000000201507150002001ALBERTO ALVAREZ ISAZA                             C000000000380000000000000000000000100010010000000000000000000000F0010000007359200220150715000101 00000000000000000000000000000000000000000000000000000000000000000000000000000000000000000000000000000000000000000N 00000000000NCONT   00    00000000000          00000000000000000000000000000000000000000000 000000000000000A000000000000000000000000000000000000000000000 000000000000000000000000000000000000000     00000000                                                                                                                        000000000000000000
F0010000007359200003000001022529300042505000000000000000000201507150002001ALBERTO ALVAREZ ISAZA                             C000000000050000000000000000000000100010010000000000000000000000F0010000007359200320150715000101 00000000000000000000000000000000000000000000000000000000000000000000000000000000000000000000000000000000000000000N 00000000000NCONT   00    00000000000          00000000000000000000000000000000000000000000 000000000000000A000000000000000000000000000000000000000000000 000000000000000000000000000000000000000     00000000                                                                                                                        000000000000000000
F0010000007359200004000001022529300023658300000000000000000201507150002001ALBERTO ALVAREZ ISAZA                             C000000000003000000000000000000000100010010000000000000000000000F0010000007359200420150715000101 00000000000000000000000000000000000000000000000000000000000000000000000000000000000000000000000000000000000000000N 00000000000NCONT   00    00000000000          00000000000000000000000000000000000000000000 000000000000000A000000000000000000000000000000000000000000000 000000000000000000000000000000000000000     00000000                                                                                                                        000000000000000000
F0010000007359200005000001022529300013552100000000000000000201507150002001ALBERTO ALVAREZ ISAZA                             D000000000003000000000000000000000100010010000000000000000000000F0010000007359200520150715000101 00000000000000000000000000000000000000000000000000000000000000000000000000000000000000000000000000000000000000000N 00000000000NCONT   00    00000000000          00000000000000000000000000000000000000000000 000000000000000A000000000000000000000000000000000000000000000 000000000000000000000000000000000000000     00000000                                                                                                                        000000000000000000
F0010000007359300001000089031248700011050500000000000000000201507150002001DISTRIBUIDORA CALIPLASTICOS LTDA                  D000000002100000000000000000000000100010010000000000000000000000F0010000007359300120150715000101 00000000000000000000000000000000000000000000000000000000000000000000000000000000000000000000000000000000000000000N 00000000000NCONT   00    00000000000          00000000000000000000000000000000000000000000 000000000000000A000000000000000000000000000000000000000000000 000000000000000000000000000000000000000     00000000                                                                                                                        000000000000000000
F0010000007359300002000089031248700041450500000000000000000201507150002001DISTRIBUIDORA CALIPLASTICOS LTDA                  C000000002000000000000000000000000100010010000000000000000000000F0010000007359300220150715000101 00000000000000000000000000000000000000000000000000000000000000000000000000000000000000000000000000000000000000000N 00000000000NCONT   00    00000000000          00000000000000000000000000000000000000000000 000000000000000A000000000000000000000000000000000000000000000 000000000000000000000000000000000000000     00000000                                                                                                                        000000000000000000
F0010000007359300003000089031248700042505000000000000000000201507150002001DISTRIBUIDORA CALIPLASTICOS LTDA                  C000000000100000000000000000000000100010010000000000000000000000F0010000007359300320150715000101 00000000000000000000000000000000000000000000000000000000000000000000000000000000000000000000000000000000000000000N 00000000000NCONT   00    00000000000          00000000000000000000000000000000000000000000 000000000000000A000000000000000000000000000000000000000000000 000000000000000000000000000000000000000     00000000                                                                                                                        000000000000000000
F0010000007359300004000089031248700023658300000000000000000201507150002001DISTRIBUIDORA CALIPLASTICOS LTDA                  C000000000016000000000000000000000100010010000000000000000000000F0010000007359300420150715000101 00000000000000000000000000000000000000000000000000000000000000000000000000000000000000000000000000000000000000000N 00000000000NCONT   00    00000000000          00000000000000000000000000000000000000000000 000000000000000A000000000000000000000000000000000000000000000 000000000000000000000000000000000000000     00000000                                                                                                                        000000000000000000
F0010000007359300005000089031248700013552100000000000000000201507150002001DISTRIBUIDORA CALIPLASTICOS LTDA                  D000000000016000000000000000000000100010010000000000000000000000F0010000007359300520150715000101 00000000000000000000000000000000000000000000000000000000000000000000000000000000000000000000000000000000000000000N 00000000000NCONT   00    00000000000          00000000000000000000000000000000000000000000 000000000000000A000000000000000000000000000000000000000000000 000000000000000000000000000000000000000     00000000                                                                                                                        000000000000000000
F0010000007359400001000089031248700011050500000000000000000201507150002001DISTRIBUIDORA CALIPLASTICOS LTDA                  D000000001324800000000000000000000100010010000000000000000000000F0010000007359400120150715000101 00000000000000000000000000000000000000000000000000000000000000000000000000000000000000000000000000000000000000000N 00000000000NCONT   00    00000000000          00000000000000000000000000000000000000000000 000000000000000A000000000000000000000000000000000000000000000 000000000000000000000000000000000000000     00000000                                                                                                                        000000000000000000
F0010000007359400002000089031248700041450500000000000000000201507150002001DISTRIBUIDORA CALIPLASTICOS LTDA                  C000000001174800000000000000000000100010010000000000000000000000F0010000007359400220150715000101 00000000000000000000000000000000000000000000000000000000000000000000000000000000000000000000000000000000000000000N 00000000000NCONT   00    00000000000          00000000000000000000000000000000000000000000 000000000000000A000000000000000000000000000000000000000000000 000000000000000000000000000000000000000     00000000                                                                                                                        000000000000000000
