F0010000007179900001000089011508200011050500000000000000000201505270002001ALMACEN Y TALLER CICLOCOSTA                       D000000001010000000000000000000000100010010000000000000000000000F0010000007179900120150527000101 00000000000000000000000000000000000000000000000000000000000000000000000000000000000000000000000000000000000000000N 00000000000NCONT   00    00000000000          00000000000000000000000000000000000000000000 000000000000000A000000000000000000000000000000000000000000000 000000000000000000000000000000000000000     00000000                                                                                                                        000000000000000000
F0010000007179900002000089011508200041450500000000000000000201505270002001ALMACEN Y TALLER CICLOCOSTA                       C000000000900000000000000000000000100010010000000000000000000000F0010000007179900220150527000101 00000000000000000000000000000000000000000000000000000000000000000000000000000000000000000000000000000000000000000N 00000000000NCONT   00    00000000000          00000000000000000000000000000000000000000000 000000000000000A000000000000000000000000000000000000000000000 000000000000000000000000000000000000000     00000000                                                                                                                        000000000000000000
F0010000007179900003000089011508200042505000000000000000000201505270002001ALMACEN Y TALLER CICLOCOSTA                       C000000000110000000000000000000000100010010000000000000000000000F0010000007179900320150527000101 00000000000000000000000000000000000000000000000000000000000000000000000000000000000000000000000000000000000000000N 00000000000NCONT   00    00000000000          00000000000000000000000000000000000000000000 000000000000000A000000000000000000000000000000000000000000000 000000000000000000000000000000000000000     00000000                                                                                                                        000000000000000000
F0010000007179900004000089011508200023658300000000000000000201505270002001ALMACEN Y TALLER CICLOCOSTA                       C000000000007200000000000000000000100010010000000000000000000000F0010000007179900420150527000101 00000000000000000000000000000000000000000000000000000000000000000000000000000000000000000000000000000000000000000N 00000000000NCONT   00    00000000000          00000000000000000000000000000000000000000000 000000000000000A000000000000000000000000000000000000000000000 000000000000000000000000000000000000000     00000000                                                                                                                        000000000000000000
F0010000007179900005000089011508200013552100000000000000000201505270002001ALMACEN Y TALLER CICLOCOSTA                       D000000000007200000000000000000000100010010000000000000000000000F0010000007179900520150527000101 00000000000000000000000000000000000000000000000000000000000000000000000000000000000000000000000000000000000000000N 00000000000NCONT   00    00000000000          00000000000000000000000000000000000000000000 000000000000000A000000000000000000000000000000000000000000000 000000000000000000000000000000000000000     00000000                                                                                                                        000000000000000000
F0010000007180000001000090020547900011050500000000000000000201505270002001COMERCIALIZADORA DAC DEL CARIBE S.A.S.            D000000007000000000000000000000000100010010000000000000000000000F0010000007180000120150527000101 00000000000000000000000000000000000000000000000000000000000000000000000000000000000000000000000000000000000000000N 00000000000NCONT   00    00000000000          00000000000000000000000000000000000000000000 000000000000000A000000000000000000000000000000000000000000000 000000000000000000000000000000000000000     00000000                                                                                                                        000000000000000000
F0010000007180000002000090020547900041450500000000000000000201505270002001COMERCIALIZADORA DAC DEL CARIBE S.A.S.            C000000006150000000000000000000000100010010000000000000000000000F0010000007180000220150527000101 00000000000000000000000000000000000000000000000000000000000000000000000000000000000000000000000000000000000000000N 00000000000NCONT   00    00000000000          00000000000000000000000000000000000000000000 000000000000000A000000000000000000000000000000000000000000000 000000000000000000000000000000000000000     00000000                                                                                                                        000000000000000000
F0010000007180000003000090020547900042505000000000000000000201505270002001COMERCIALIZADORA DAC DEL CARIBE S.A.S.            C000000000850000000000000000000000100010010000000000000000000000F0010000007180000320150527000101 00000000000000000000000000000000000000000000000000000000000000000000000000000000000000000000000000000000000000000N 00000000000NCONT   00    00000000000          00000000000000000000000000000000000000000000 000000000000000A000000000000000000000000000000000000000000000 000000000000000000000000000000000000000     00000000                                                                                                                        000000000000000000
F0010000007180000004000090020547900023658300000000000000000201505270002001COMERCIALIZADORA DAC DEL CARIBE S.A.S.            C000000000049200000000000000000000100010010000000000000000000000F0010000007180000420150527000101 00000000000000000000000000000000000000000000000000000000000000000000000000000000000000000000000000000000000000000N 00000000000NCONT   00    00000000000          00000000000000000000000000000000000000000000 000000000000000A000000000000000000000000000000000000000000000 000000000000000000000000000000000000000     00000000                                                                                                                        000000000000000000
F0010000007180000005000090020547900013552100000000000000000201505270002001COMERCIALIZADORA DAC DEL CARIBE S.A.S.            D000000000049200000000000000000000100010010000000000000000000000F0010000007180000520150527000101 00000000000000000000000000000000000000000000000000000000000000000000000000000000000000000000000000000000000000000N 00000000000NCONT   00    00000000000          00000000000000000000000000000000000000000000 000000000000000A000000000000000000000000000000000000000000000 000000000000000000000000000000000000000     00000000                                                                                                                        000000000000000000
F0010000007180100001000090020547900011050500000000000000000201505270002001COMERCIALIZADORA DAC DEL CARIBE S.A.S.            D000000001600000000000000000000000100010010000000000000000000000F0010000007180100120150527000101 00000000000000000000000000000000000000000000000000000000000000000000000000000000000000000000000000000000000000000N 00000000000NCONT   00    00000000000          00000000000000000000000000000000000000000000 000000000000000A000000000000000000000000000000000000000000000 000000000000000000000000000000000000000     00000000                                                                                                                        000000000000000000
F0010000007180100002000090020547900041450500000000000000000201505270002001COMERCIALIZADORA DAC DEL CARIBE S.A.S.            C000000001200000000000000000000000100010010000000000000000000000F0010000007180100220150527000101 00000000000000000000000000000000000000000000000000000000000000000000000000000000000000000000000000000000000000000N 00000000000NCONT   00    00000000000          00000000000000000000000000000000000000000000 000000000000000A000000000000000000000000000000000000000000000 000000000000000000000000000000000000000     00000000                                                                                                                        000000000000000000
F0010000007180100003000090020547900042505000000000000000000201505270002001COMERCIALIZADORA DAC DEL CARIBE S.A.S.            C000000000400000000000000000000000100010010000000000000000000000F0010000007180100320150527000101 00000000000000000000000000000000000000000000000000000000000000000000000000000000000000000000000000000000000000000N 00000000000NCONT   00    00000000000          00000000000000000000000000000000000000000000 000000000000000A000000000000000000000000000000000000000000000 000000000000000000000000000000000000000     00000000                                                                                                                        000000000000000000
F0010000007180100004000090020547900023658300000000000000000201505270002001COMERCIALIZADORA DAC DEL CARIBE S.A.S.            C000000000009600000000000000000000100010010000000000000000000000F0010000007180100420150527000101 00000000000000000000000000000000000000000000000000000000000000000000000000000000000000000000000000000000000000000N 00000000000NCONT   00    00000000000          00000000000000000000000000000000000000000000 000000000000000A000000000000000000000000000000000000000000000 000000000000000000000000000000000000000     00000000                                                                                                                        000000000000000000
F0010000007180100005000090020547900013552100000000000000000201505270002001COMERCIALIZADORA DAC DEL CARIBE S.A.S.            D000000000009600000000000000000000100010010000000000000000000000F0010000007180100520150527000101 00000000000000000000000000000000000000000000000000000000000000000000000000000000000000000000000000000000000000000N 00000000000NCONT   00    00000000000          00000000000000000000000000000000000000000000 000000000000000A000000000000000000000000000000000000000000000 000000000000000000000000000000000000000     00000000                                                                                                                        000000000000000000
F0010000007180200001000002258669400013050500000000000000000201505270002001YURY PAOLA  SANTAMARIA ..                         D000000017055500000000000000000000100010010000000000000000000000F0010000007180200120150527000101 00000000000000000000000000000000000000000000000000000000000000000000000000000000000000000000000000000000000000000N 00000000000NCONT   00    00000000000          00000000000000000000000000000000000000000000 000000000000000A000000000000000000000000000000000000000000000 000000000000000000000000000000000000000     00000000                                                                                                                        000000000000000000
F0010000007180200002000002258669400041450500000000000000000201505270002001YURY PAOLA  SANTAMARIA ..                         C000000012720000000000000000000000100010010000000000000000000000F0010000007180200220150527000101 00000000000000000000000000000000000000000000000000000000000000000000000000000000000000000000000000000000000000000N 00000000000NCONT   00    00000000000          00000000000000000000000000000000000000000000 000000000000000A000000000000000000000000000000000000000000000 000000000000000000000000000000000000000     00000000                                                                                                                        000000000000000000
F0010000007180200003000002258669400042505000000000000000000201505270002001YURY PAOLA  SANTAMARIA ..                         C000000004335500000000000000000000100010010000000000000000000000F0010000007180200320150527000101 00000000000000000000000000000000000000000000000000000000000000000000000000000000000000000000000000000000000000000N 00000000000NCONT   00    00000000000          00000000000000000000000000000000000000000000 000000000000000A000000000000000000000000000000000000000000000 000000000000000000000000000000000000000     00000000                                                                                                                        000000000000000000
F0010000007180200004000002258669400023658300000000000000000201505270002001YURY PAOLA  SANTAMARIA ..                         C000000000101800000000000000000000100010010000000000000000000000F0010000007180200420150527000101 00000000000000000000000000000000000000000000000000000000000000000000000000000000000000000000000000000000000000000N 00000000000NCONT   00    00000000000          00000000000000000000000000000000000000000000 000000000000000A000000000000000000000000000000000000000000000 000000000000000000000000000000000000000     00000000                                                                                                                        000000000000000000
F0010000007180200005000002258669400013552100000000000000000201505270002001YURY PAOLA  SANTAMARIA ..                         D000000000101800000000000000000000100010010000000000000000000000F0010000007180200520150527000101 00000000000000000000000000000000000000000000000000000000000000000000000000000000000000000000000000000000000000000N 00000000000NCONT   00    00000000000          00000000000000000000000000000000000000000000 000000000000000A000000000000000000000000000000000000000000000 000000000000000000000000000000000000000     00000000                                                                                                                        000000000000000000
F0010000007180300001000009249843700011050500000000000000000201505270002001CESAR MERCADO                                     D000000005000000000000000000000000100010010000000000000000000000F0010000007180300120150527000101 00000000000000000000000000000000000000000000000000000000000000000000000000000000000000000000000000000000000000000N 00000000000NCONT   00    00000000000          00000000000000000000000000000000000000000000 000000000000000A000000000000000000000000000000000000000000000 000000000000000000000000000000000000000     00000000                                                                                                                        000000000000000000
F0010000007180300002000009249843700041450500000000000000000201505270002001CESAR MERCADO                                     C000000004700000000000000000000000100010010000000000000000000000F0010000007180300220150527000101 00000000000000000000000000000000000000000000000000000000000000000000000000000000000000000000000000000000000000000N 00000000000NCONT   00    00000000000          00000000000000000000000000000000000000000000 000000000000000A000000000000000000000000000000000000000000000 000000000000000000000000000000000000000     00000000                                                                                                                        000000000000000000
F0010000007180300003000009249843700042505000000000000000000201505270002001CESAR MERCADO                                     C000000000300000000000000000000000100010010000000000000000000000F0010000007180300320150527000101 00000000000000000000000000000000000000000000000000000000000000000000000000000000000000000000000000000000000000000N 00000000000NCONT   00    00000000000          00000000000000000000000000000000000000000000 000000000000000A000000000000000000000000000000000000000000000 000000000000000000000000000000000000000     00000000                                                                                                                        000000000000000000
F0010000007180300004000009249843700023658300000000000000000201505270002001CESAR MERCADO                                     C000000000037600000000000000000000100010010000000000000000000000F0010000007180300420150527000101 00000000000000000000000000000000000000000000000000000000000000000000000000000000000000000000000000000000000000000N 00000000000NCONT   00    00000000000          00000000000000000000000000000000000000000000 000000000000000A000000000000000000000000000000000000000000000 000000000000000000000000000000000000000     00000000                                                                                                                        000000000000000000
F0010000007180300005000009249843700013552100000000000000000201505270002001CESAR MERCADO                                     D000000000037600000000000000000000100010010000000000000000000000F0010000007180300520150527000101 00000000000000000000000000000000000000000000000000000000000000000000000000000000000000000000000000000000000000000N 00000000000NCONT   00    00000000000          00000000000000000000000000000000000000000000 000000000000000A000000000000000000000000000000000000000000000 000000000000000000000000000000000000000     00000000                                                                                                                        000000000000000000
F0010000007180400001000114084725100011050500000000000000000201505270002001COMERCIALIZADORA KONAR .. ..                      D000000001400000000000000000000000100010010000000000000000000000F0010000007180400120150527000101 00000000000000000000000000000000000000000000000000000000000000000000000000000000000000000000000000000000000000000N 00000000000NCONT   00    00000000000          00000000000000000000000000000000000000000000 000000000000000A000000000000000000000000000000000000000000000 000000000000000000000000000000000000000     00000000                                                                                                                        000000000000000000
F0010000007180400002000114084725100041450500000000000000000201505270002001COMERCIALIZADORA KONAR .. ..                      C000000001200000000000000000000000100010010000000000000000000000F0010000007180400220150527000101 00000000000000000000000000000000000000000000000000000000000000000000000000000000000000000000000000000000000000000N 00000000000NCONT   00    00000000000          00000000000000000000000000000000000000000000 000000000000000A000000000000000000000000000000000000000000000 000000000000000000000000000000000000000     00000000                                                                                                                        000000000000000000
F0010000007180400003000114084725100042505000000000000000000201505270002001COMERCIALIZADORA KONAR .. ..                      C000000000200000000000000000000000100010010000000000000000000000F0010000007180400320150527000101 00000000000000000000000000000000000000000000000000000000000000000000000000000000000000000000000000000000000000000N 00000000000NCONT   00    00000000000          00000000000000000000000000000000000000000000 000000000000000A000000000000000000000000000000000000000000000 000000000000000000000000000000000000000     00000000                                                                                                                        000000000000000000
F0010000007180400004000114084725100023658300000000000000000201505270002001COMERCIALIZADORA KONAR .. ..                      C000000000009600000000000000000000100010010000000000000000000000F0010000007180400420150527000101 00000000000000000000000000000000000000000000000000000000000000000000000000000000000000000000000000000000000000000N 00000000000NCONT   00    00000000000          00000000000000000000000000000000000000000000 000000000000000A000000000000000000000000000000000000000000000 000000000000000000000000000000000000000     00000000                                                                                                                        000000000000000000
F0010000007180400005000114084725100013552100000000000000000201505270002001COMERCIALIZADORA KONAR .. ..                      D000000000009600000000000000000000100010010000000000000000000000F0010000007180400520150527000101 00000000000000000000000000000000000000000000000000000000000000000000000000000000000000000000000000000000000000000N 00000000000NCONT   00    00000000000          00000000000000000000000000000000000000000000 000000000000000A000000000000000000000000000000000000000000000 000000000000000000000000000000000000000     00000000                                                                                                                        000000000000000000
F0010000007180500001000007233680300011050500000000000000000201505270002001DISTRIBUIDORA CUÑOS Y EVAS RAMBAL                D000000008000000000000000000000000100010010000000000000000000000F0010000007180500120150527000101 00000000000000000000000000000000000000000000000000000000000000000000000000000000000000000000000000000000000000000N 00000000000NCONT   00    00000000000          00000000000000000000000000000000000000000000 000000000000000A000000000000000000000000000000000000000000000 000000000000000000000000000000000000000     00000000                                                                                                                        000000000000000000
F0010000007180500002000007233680300041450500000000000000000201505270002001DISTRIBUIDORA CUÑOS Y EVAS RAMBAL                C000000007000000000000000000000000100010010000000000000000000000F0010000007180500220150527000101 00000000000000000000000000000000000000000000000000000000000000000000000000000000000000000000000000000000000000000N 00000000000NCONT   00    00000000000          00000000000000000000000000000000000000000000 000000000000000A000000000000000000000000000000000000000000000 000000000000000000000000000000000000000     00000000                                                                                                                        000000000000000000
F0010000007180500003000007233680300042505000000000000000000201505270002001DISTRIBUIDORA CUÑOS Y EVAS RAMBAL                C000000001000000000000000000000000100010010000000000000000000000F0010000007180500320150527000101 00000000000000000000000000000000000000000000000000000000000000000000000000000000000000000000000000000000000000000N 00000000000NCONT   00    00000000000          00000000000000000000000000000000000000000000 000000000000000A000000000000000000000000000000000000000000000 000000000000000000000000000000000000000     00000000                                                                                                                        000000000000000000
F0010000007180500004000007233680300023658300000000000000000201505270002001DISTRIBUIDORA CUÑOS Y EVAS RAMBAL                C000000000056000000000000000000000100010010000000000000000000000F0010000007180500420150527000101 00000000000000000000000000000000000000000000000000000000000000000000000000000000000000000000000000000000000000000N 00000000000NCONT   00    00000000000          00000000000000000000000000000000000000000000 000000000000000A000000000000000000000000000000000000000000000 000000000000000000000000000000000000000     00000000                                                                                                                        000000000000000000
F0010000007180500005000007233680300013552100000000000000000201505270002001DISTRIBUIDORA CUÑOS Y EVAS RAMBAL                D000000000056000000000000000000000100010010000000000000000000000F0010000007180500520150527000101 00000000000000000000000000000000000000000000000000000000000000000000000000000000000000000000000000000000000000000N 00000000000NCONT   00    00000000000          00000000000000000000000000000000000000000000 000000000000000A000000000000000000000000000000000000000000000 000000000000000000000000000000000000000     00000000                                                                                                                        000000000000000000
F0010000007180600001000007233680300011050500000000000000000201505270002001DISTRIBUIDORA CUÑOS Y EVAS RAMBAL                D000000005000000000000000000000000100010010000000000000000000000F0010000007180600120150527000101 00000000000000000000000000000000000000000000000000000000000000000000000000000000000000000000000000000000000000000N 00000000000NCONT   00    00000000000          00000000000000000000000000000000000000000000 000000000000000A000000000000000000000000000000000000000000000 000000000000000000000000000000000000000     00000000                                                                                                                        000000000000000000
F0010000007180600002000007233680300041450500000000000000000201505270002001DISTRIBUIDORA CUÑOS Y EVAS RAMBAL                C000000004000000000000000000000000100010010000000000000000000000F0010000007180600220150527000101 00000000000000000000000000000000000000000000000000000000000000000000000000000000000000000000000000000000000000000N 00000000000NCONT   00    00000000000          00000000000000000000000000000000000000000000 000000000000000A000000000000000000000000000000000000000000000 000000000000000000000000000000000000000     00000000                                                                                                                        000000000000000000
F0010000007180600003000007233680300042505000000000000000000201505270002001DISTRIBUIDORA CUÑOS Y EVAS RAMBAL                C000000001000000000000000000000000100010010000000000000000000000F0010000007180600320150527000101 00000000000000000000000000000000000000000000000000000000000000000000000000000000000000000000000000000000000000000N 00000000000NCONT   00    00000000000          00000000000000000000000000000000000000000000 000000000000000A000000000000000000000000000000000000000000000 000000000000000000000000000000000000000     00000000                                                                                                                        000000000000000000
F0010000007180600004000007233680300023658300000000000000000201505270002001DISTRIBUIDORA CUÑOS Y EVAS RAMBAL                C000000000032000000000000000000000100010010000000000000000000000F0010000007180600420150527000101 00000000000000000000000000000000000000000000000000000000000000000000000000000000000000000000000000000000000000000N 00000000000NCONT   00    00000000000          00000000000000000000000000000000000000000000 000000000000000A000000000000000000000000000000000000000000000 000000000000000000000000000000000000000     00000000                                                                                                                        000000000000000000
F0010000007180600005000007233680300013552100000000000000000201505270002001DISTRIBUIDORA CUÑOS Y EVAS RAMBAL                D000000000032000000000000000000000100010010000000000000000000000F0010000007180600520150527000101 00000000000000000000000000000000000000000000000000000000000000000000000000000000000000000000000000000000000000000N 00000000000NCONT   00    00000000000          00000000000000000000000000000000000000000000 000000000000000A000000000000000000000000000000000000000000000 000000000000000000000000000000000000000     00000000                                                                                                                        000000000000000000
F0010000007180700001000007233680300011050500000000000000000201505270002001DISTRIBUIDORA CUÑOS Y EVAS RAMBAL                D000000004000000000000000000000000100010010000000000000000000000F0010000007180700120150527000101 00000000000000000000000000000000000000000000000000000000000000000000000000000000000000000000000000000000000000000N 00000000000NCONT   00    00000000000          00000000000000000000000000000000000000000000 000000000000000A000000000000000000000000000000000000000000000 000000000000000000000000000000000000000     00000000                                                                                                                        000000000000000000
F0010000007180700002000007233680300041450500000000000000000201505270002001DISTRIBUIDORA CUÑOS Y EVAS RAMBAL                C000000003300000000000000000000000100010010000000000000000000000F0010000007180700220150527000101 00000000000000000000000000000000000000000000000000000000000000000000000000000000000000000000000000000000000000000N 00000000000NCONT   00    00000000000          00000000000000000000000000000000000000000000 000000000000000A000000000000000000000000000000000000000000000 000000000000000000000000000000000000000     00000000                                                                                                                        000000000000000000
F0010000007180700003000007233680300042505000000000000000000201505270002001DISTRIBUIDORA CUÑOS Y EVAS RAMBAL                C000000000700000000000000000000000100010010000000000000000000000F0010000007180700320150527000101 00000000000000000000000000000000000000000000000000000000000000000000000000000000000000000000000000000000000000000N 00000000000NCONT   00    00000000000          00000000000000000000000000000000000000000000 000000000000000A000000000000000000000000000000000000000000000 000000000000000000000000000000000000000     00000000                                                                                                                        000000000000000000
F0010000007180700004000007233680300023658300000000000000000201505270002001DISTRIBUIDORA CUÑOS Y EVAS RAMBAL                C000000000026400000000000000000000100010010000000000000000000000F0010000007180700420150527000101 00000000000000000000000000000000000000000000000000000000000000000000000000000000000000000000000000000000000000000N 00000000000NCONT   00    00000000000          00000000000000000000000000000000000000000000 000000000000000A000000000000000000000000000000000000000000000 000000000000000000000000000000000000000     00000000                                                                                                                        000000000000000000
F0010000007180700005000007233680300013552100000000000000000201505270002001DISTRIBUIDORA CUÑOS Y EVAS RAMBAL                D000000000026400000000000000000000100010010000000000000000000000F0010000007180700520150527000101 00000000000000000000000000000000000000000000000000000000000000000000000000000000000000000000000000000000000000000N 00000000000NCONT   00    00000000000          00000000000000000000000000000000000000000000 000000000000000A000000000000000000000000000000000000000000000 000000000000000000000000000000000000000     00000000                                                                                                                        000000000000000000
F0010000007180800001000086003979400011050500000000000000000201505270002001CALYPSO BARRANQUILLA LTDA                         D000000011860000000000000000000000100010010000000000000000000000F0010000007180800120150527000101 00000000000000000000000000000000000000000000000000000000000000000000000000000000000000000000000000000000000000000N 00000000000NCONT   00    00000000000          00000000000000000000000000000000000000000000 000000000000000A000000000000000000000000000000000000000000000 000000000000000000000000000000000000000     00000000                                                                                                                        000000000000000000
F0010000007180800002000086003979400041450500000000000000000201505270002001CALYPSO BARRANQUILLA LTDA                         C000000011200000000000000000000000100010010000000000000000000000F0010000007180800220150527000101 00000000000000000000000000000000000000000000000000000000000000000000000000000000000000000000000000000000000000000N 00000000000NCONT   00    00000000000          00000000000000000000000000000000000000000000 000000000000000A000000000000000000000000000000000000000000000 000000000000000000000000000000000000000     00000000                                                                                                                        000000000000000000
F0010000007180800003000086003979400042505000000000000000000201505270002001CALYPSO BARRANQUILLA LTDA                         C000000000660000000000000000000000100010010000000000000000000000F0010000007180800320150527000101 00000000000000000000000000000000000000000000000000000000000000000000000000000000000000000000000000000000000000000N 00000000000NCONT   00    00000000000          00000000000000000000000000000000000000000000 000000000000000A000000000000000000000000000000000000000000000 000000000000000000000000000000000000000     00000000                                                                                                                        000000000000000000
F0010000007180800004000086003979400023658300000000000000000201505270002001CALYPSO BARRANQUILLA LTDA                         C000000000089600000000000000000000100010010000000000000000000000F0010000007180800420150527000101 00000000000000000000000000000000000000000000000000000000000000000000000000000000000000000000000000000000000000000N 00000000000NCONT   00    00000000000          00000000000000000000000000000000000000000000 000000000000000A000000000000000000000000000000000000000000000 000000000000000000000000000000000000000     00000000                                                                                                                        000000000000000000
F0010000007180800005000086003979400013552100000000000000000201505270002001CALYPSO BARRANQUILLA LTDA                         D000000000089600000000000000000000100010010000000000000000000000F0010000007180800520150527000101 00000000000000000000000000000000000000000000000000000000000000000000000000000000000000000000000000000000000000000N 00000000000NCONT   00    00000000000          00000000000000000000000000000000000000000000 000000000000000A000000000000000000000000000000000000000000000 000000000000000000000000000000000000000     00000000                                                                                                                        000000000000000000
F0010000007180900001000005525050200011050500000000000000000201505270002001PLASTICOS  DE LA COSTA                            D000000002960000000000000000000000100010010000000000000000000000F0010000007180900120150527000101 00000000000000000000000000000000000000000000000000000000000000000000000000000000000000000000000000000000000000000N 00000000000NCONT   00    00000000000          00000000000000000000000000000000000000000000 000000000000000A000000000000000000000000000000000000000000000 000000000000000000000000000000000000000     00000000                                                                                                                        000000000000000000
F0010000007180900002000005525050200041450500000000000000000201505270002001PLASTICOS  DE LA COSTA                            C000000002860000000000000000000000100010010000000000000000000000F0010000007180900220150527000101 00000000000000000000000000000000000000000000000000000000000000000000000000000000000000000000000000000000000000000N 00000000000NCONT   00    00000000000          00000000000000000000000000000000000000000000 000000000000000A000000000000000000000000000000000000000000000 000000000000000000000000000000000000000     00000000                                                                                                                        000000000000000000
F0010000007180900003000005525050200042505000000000000000000201505270002001PLASTICOS  DE LA COSTA                            C000000000100000000000000000000000100010010000000000000000000000F0010000007180900320150527000101 00000000000000000000000000000000000000000000000000000000000000000000000000000000000000000000000000000000000000000N 00000000000NCONT   00    00000000000          00000000000000000000000000000000000000000000 000000000000000A000000000000000000000000000000000000000000000 000000000000000000000000000000000000000     00000000                                                                                                                        000000000000000000
F0010000007180900004000005525050200023658300000000000000000201505270002001PLASTICOS  DE LA COSTA                            C000000000022900000000000000000000100010010000000000000000000000F0010000007180900420150527000101 00000000000000000000000000000000000000000000000000000000000000000000000000000000000000000000000000000000000000000N 00000000000NCONT   00    00000000000          00000000000000000000000000000000000000000000 000000000000000A000000000000000000000000000000000000000000000 000000000000000000000000000000000000000     00000000                                                                                                                        000000000000000000
F0010000007180900005000005525050200013552100000000000000000201505270002001PLASTICOS  DE LA COSTA                            D000000000022900000000000000000000100010010000000000000000000000F0010000007180900520150527000101 00000000000000000000000000000000000000000000000000000000000000000000000000000000000000000000000000000000000000000N 00000000000NCONT   00    00000000000          00000000000000000000000000000000000000000000 000000000000000A000000000000000000000000000000000000000000000 000000000000000000000000000000000000000     00000000                                                                                                                        000000000000000000
F0010000007181000001000002245670100011050500000000000000000201505270002001YOLANDA  TOBON                                    D000000002650000000000000000000000100010010000000000000000000000F0010000007181000120150527000101 00000000000000000000000000000000000000000000000000000000000000000000000000000000000000000000000000000000000000000N 00000000000NCONT   00    00000000000          00000000000000000000000000000000000000000000 000000000000000A000000000000000000000000000000000000000000000 000000000000000000000000000000000000000     00000000                                                                                                                        000000000000000000
F0010000007181000002000002245670100041450500000000000000000201505270002001YOLANDA  TOBON                                    C000000002400000000000000000000000100010010000000000000000000000F0010000007181000220150527000101 00000000000000000000000000000000000000000000000000000000000000000000000000000000000000000000000000000000000000000N 00000000000NCONT   00    00000000000          00000000000000000000000000000000000000000000 000000000000000A000000000000000000000000000000000000000000000 000000000000000000000000000000000000000     00000000                                                                                                                        000000000000000000
F0010000007181000003000002245670100042505000000000000000000201505270002001YOLANDA  TOBON                                    C000000000250000000000000000000000100010010000000000000000000000F0010000007181000320150527000101 00000000000000000000000000000000000000000000000000000000000000000000000000000000000000000000000000000000000000000N 00000000000NCONT   00    00000000000          00000000000000000000000000000000000000000000 000000000000000A000000000000000000000000000000000000000000000 000000000000000000000000000000000000000     00000000                                                                                                                        000000000000000000
F0010000007181000004000002245670100023658300000000000000000201505270002001YOLANDA  TOBON                                    C000000000019200000000000000000000100010010000000000000000000000F0010000007181000420150527000101 00000000000000000000000000000000000000000000000000000000000000000000000000000000000000000000000000000000000000000N 00000000000NCONT   00    00000000000          00000000000000000000000000000000000000000000 000000000000000A000000000000000000000000000000000000000000000 000000000000000000000000000000000000000     00000000                                                                                                                        000000000000000000
F0010000007181000005000002245670100013552100000000000000000201505270002001YOLANDA  TOBON                                    D000000000019200000000000000000000100010010000000000000000000000F0010000007181000520150527000101 00000000000000000000000000000000000000000000000000000000000000000000000000000000000000000000000000000000000000000N 00000000000NCONT   00    00000000000          00000000000000000000000000000000000000000000 000000000000000A000000000000000000000000000000000000000000000 000000000000000000000000000000000000000     00000000                                                                                                                        000000000000000000
F0010000007181100001000002245670100011050500000000000000000201505270002001YOLANDA  TOBON                                    D000000002850000000000000000000000100010010000000000000000000000F0010000007181100120150527000101 00000000000000000000000000000000000000000000000000000000000000000000000000000000000000000000000000000000000000000N 00000000000NCONT   00    00000000000          00000000000000000000000000000000000000000000 000000000000000A000000000000000000000000000000000000000000000 000000000000000000000000000000000000000     00000000                                                                                                                        000000000000000000
F0010000007181100002000002245670100041450500000000000000000201505270002001YOLANDA  TOBON                                    C000000002500000000000000000000000100010010000000000000000000000F0010000007181100220150527000101 00000000000000000000000000000000000000000000000000000000000000000000000000000000000000000000000000000000000000000N 00000000000NCONT   00    00000000000          00000000000000000000000000000000000000000000 000000000000000A000000000000000000000000000000000000000000000 000000000000000000000000000000000000000     00000000                                                                                                                        000000000000000000
F0010000007181100003000002245670100042505000000000000000000201505270002001YOLANDA  TOBON                                    C000000000350000000000000000000000100010010000000000000000000000F0010000007181100320150527000101 00000000000000000000000000000000000000000000000000000000000000000000000000000000000000000000000000000000000000000N 00000000000NCONT   00    00000000000          00000000000000000000000000000000000000000000 000000000000000A000000000000000000000000000000000000000000000 000000000000000000000000000000000000000     00000000                                                                                                                        000000000000000000
F0010000007181100004000002245670100023658300000000000000000201505270002001YOLANDA  TOBON                                    C000000000020000000000000000000000100010010000000000000000000000F0010000007181100420150527000101 00000000000000000000000000000000000000000000000000000000000000000000000000000000000000000000000000000000000000000N 00000000000NCONT   00    00000000000          00000000000000000000000000000000000000000000 000000000000000A000000000000000000000000000000000000000000000 000000000000000000000000000000000000000     00000000                                                                                                                        000000000000000000
F0010000007181100005000002245670100013552100000000000000000201505270002001YOLANDA  TOBON                                    D000000000020000000000000000000000100010010000000000000000000000F0010000007181100520150527000101 00000000000000000000000000000000000000000000000000000000000000000000000000000000000000000000000000000000000000000N 00000000000NCONT   00    00000000000          00000000000000000000000000000000000000000000 000000000000000A000000000000000000000000000000000000000000000 000000000000000000000000000000000000000     00000000                                                                                                                        000000000000000000
F0010000007181200001000086000061500011050500000000000000000201505270002001DISTRIBUIDORA CORDOBA                             D000000001800000000000000000000000100010010000000000000000000000F0010000007181200120150527000101 00000000000000000000000000000000000000000000000000000000000000000000000000000000000000000000000000000000000000000N 00000000000NCONT   00    00000000000          00000000000000000000000000000000000000000000 000000000000000A000000000000000000000000000000000000000000000 000000000000000000000000000000000000000     00000000                                                                                                                        000000000000000000
F0010000007181200002000086000061500041450500000000000000000201505270002001DISTRIBUIDORA CORDOBA                             C000000001700000000000000000000000100010010000000000000000000000F0010000007181200220150527000101 00000000000000000000000000000000000000000000000000000000000000000000000000000000000000000000000000000000000000000N 00000000000NCONT   00    00000000000          00000000000000000000000000000000000000000000 000000000000000A000000000000000000000000000000000000000000000 000000000000000000000000000000000000000     00000000                                                                                                                        000000000000000000
F0010000007181200003000086000061500042505000000000000000000201505270002001DISTRIBUIDORA CORDOBA                             C000000000100000000000000000000000100010010000000000000000000000F0010000007181200320150527000101 00000000000000000000000000000000000000000000000000000000000000000000000000000000000000000000000000000000000000000N 00000000000NCONT   00    00000000000          00000000000000000000000000000000000000000000 000000000000000A000000000000000000000000000000000000000000000 000000000000000000000000000000000000000     00000000                                                                                                                        000000000000000000
F0010000007181200004000086000061500023658300000000000000000201505270002001DISTRIBUIDORA CORDOBA                             C000000000013600000000000000000000100010010000000000000000000000F0010000007181200420150527000101 00000000000000000000000000000000000000000000000000000000000000000000000000000000000000000000000000000000000000000N 00000000000NCONT   00    00000000000          00000000000000000000000000000000000000000000 000000000000000A000000000000000000000000000000000000000000000 000000000000000000000000000000000000000     00000000                                                                                                                        000000000000000000
F0010000007181200005000086000061500013552100000000000000000201505270002001DISTRIBUIDORA CORDOBA                             D000000000013600000000000000000000100010010000000000000000000000F0010000007181200520150527000101 00000000000000000000000000000000000000000000000000000000000000000000000000000000000000000000000000000000000000000N 00000000000NCONT   00    00000000000          00000000000000000000000000000000000000000000 000000000000000A000000000000000000000000000000000000000000000 000000000000000000000000000000000000000     00000000                                                                                                                        000000000000000000
F0010000007181300001000086000061500011050500000000000000000201505270002001DISTRIBUIDORA CORDOBA                             D000000006400000000000000000000000100010010000000000000000000000F0010000007181300120150527000101 00000000000000000000000000000000000000000000000000000000000000000000000000000000000000000000000000000000000000000N 00000000000NCONT   00    00000000000          00000000000000000000000000000000000000000000 000000000000000A000000000000000000000000000000000000000000000 000000000000000000000000000000000000000     00000000                                                                                                                        000000000000000000
F0010000007181300002000086000061500041450500000000000000000201505270002001DISTRIBUIDORA CORDOBA                             C000000005950000000000000000000000100010010000000000000000000000F0010000007181300220150527000101 00000000000000000000000000000000000000000000000000000000000000000000000000000000000000000000000000000000000000000N 00000000000NCONT   00    00000000000          00000000000000000000000000000000000000000000 000000000000000A000000000000000000000000000000000000000000000 000000000000000000000000000000000000000     00000000                                                                                                                        000000000000000000
F0010000007181300003000086000061500042505000000000000000000201505270002001DISTRIBUIDORA CORDOBA                             C000000000450000000000000000000000100010010000000000000000000000F0010000007181300320150527000101 00000000000000000000000000000000000000000000000000000000000000000000000000000000000000000000000000000000000000000N 00000000000NCONT   00    00000000000          00000000000000000000000000000000000000000000 000000000000000A000000000000000000000000000000000000000000000 000000000000000000000000000000000000000     00000000                                                                                                                        000000000000000000
F0010000007181300004000086000061500023658300000000000000000201505270002001DISTRIBUIDORA CORDOBA                             C000000000047600000000000000000000100010010000000000000000000000F0010000007181300420150527000101 00000000000000000000000000000000000000000000000000000000000000000000000000000000000000000000000000000000000000000N 00000000000NCONT   00    00000000000          00000000000000000000000000000000000000000000 000000000000000A000000000000000000000000000000000000000000000 000000000000000000000000000000000000000     00000000                                                                                                                        000000000000000000
F0010000007181300005000086000061500013552100000000000000000201505270002001DISTRIBUIDORA CORDOBA                             D000000000047600000000000000000000100010010000000000000000000000F0010000007181300520150527000101 00000000000000000000000000000000000000000000000000000000000000000000000000000000000000000000000000000000000000000N 00000000000NCONT   00    00000000000          00000000000000000000000000000000000000000000 000000000000000A000000000000000000000000000000000000000000000 000000000000000000000000000000000000000     00000000                                                                                                                        000000000000000000
F0010000007181400001000007223972300011050500000000000000000201505270002001LUIS VALENCIA                                     D000000004000000000000000000000000100010010000000000000000000000F0010000007181400120150527000101 00000000000000000000000000000000000000000000000000000000000000000000000000000000000000000000000000000000000000000N 00000000000NCONT   00    00000000000          00000000000000000000000000000000000000000000 000000000000000A000000000000000000000000000000000000000000000 000000000000000000000000000000000000000     00000000                                                                                                                        000000000000000000
F0010000007181400002000007223972300041450500000000000000000201505270002001LUIS VALENCIA                                     C000000003500000000000000000000000100010010000000000000000000000F0010000007181400220150527000101 00000000000000000000000000000000000000000000000000000000000000000000000000000000000000000000000000000000000000000N 00000000000NCONT   00    00000000000          00000000000000000000000000000000000000000000 000000000000000A000000000000000000000000000000000000000000000 000000000000000000000000000000000000000     00000000                                                                                                                        000000000000000000
F0010000007181400003000007223972300042505000000000000000000201505270002001LUIS VALENCIA                                     C000000000500000000000000000000000100010010000000000000000000000F0010000007181400320150527000101 00000000000000000000000000000000000000000000000000000000000000000000000000000000000000000000000000000000000000000N 00000000000NCONT   00    00000000000          00000000000000000000000000000000000000000000 000000000000000A000000000000000000000000000000000000000000000 000000000000000000000000000000000000000     00000000                                                                                                                        000000000000000000
F0010000007181400004000007223972300023658300000000000000000201505270002001LUIS VALENCIA                                     C000000000028000000000000000000000100010010000000000000000000000F0010000007181400420150527000101 00000000000000000000000000000000000000000000000000000000000000000000000000000000000000000000000000000000000000000N 00000000000NCONT   00    00000000000          00000000000000000000000000000000000000000000 000000000000000A000000000000000000000000000000000000000000000 000000000000000000000000000000000000000     00000000                                                                                                                        000000000000000000
F0010000007181400005000007223972300013552100000000000000000201505270002001LUIS VALENCIA                                     D000000000028000000000000000000000100010010000000000000000000000F0010000007181400520150527000101 00000000000000000000000000000000000000000000000000000000000000000000000000000000000000000000000000000000000000000N 00000000000NCONT   00    00000000000          00000000000000000000000000000000000000000000 000000000000000A000000000000000000000000000000000000000000000 000000000000000000000000000000000000000     00000000                                                                                                                        000000000000000000
F0010000007181500001000007223972300011050500000000000000000201505270002001LUIS VALENCIA                                     D000000008000000000000000000000000100010010000000000000000000000F0010000007181500120150527000101 00000000000000000000000000000000000000000000000000000000000000000000000000000000000000000000000000000000000000000N 00000000000NCONT   00    00000000000          00000000000000000000000000000000000000000000 000000000000000A000000000000000000000000000000000000000000000 000000000000000000000000000000000000000     00000000                                                                                                                        000000000000000000
F0010000007181500002000007223972300041450500000000000000000201505270002001LUIS VALENCIA                                     C000000007400000000000000000000000100010010000000000000000000000F0010000007181500220150527000101 00000000000000000000000000000000000000000000000000000000000000000000000000000000000000000000000000000000000000000N 00000000000NCONT   00    00000000000          00000000000000000000000000000000000000000000 000000000000000A000000000000000000000000000000000000000000000 000000000000000000000000000000000000000     00000000                                                                                                                        000000000000000000
F0010000007181500003000007223972300042505000000000000000000201505270002001LUIS VALENCIA                                     C000000000600000000000000000000000100010010000000000000000000000F0010000007181500320150527000101 00000000000000000000000000000000000000000000000000000000000000000000000000000000000000000000000000000000000000000N 00000000000NCONT   00    00000000000          00000000000000000000000000000000000000000000 000000000000000A000000000000000000000000000000000000000000000 000000000000000000000000000000000000000     00000000                                                                                                                        000000000000000000
F0010000007181500004000007223972300023658300000000000000000201505270002001LUIS VALENCIA                                     C000000000059200000000000000000000100010010000000000000000000000F0010000007181500420150527000101 00000000000000000000000000000000000000000000000000000000000000000000000000000000000000000000000000000000000000000N 00000000000NCONT   00    00000000000          00000000000000000000000000000000000000000000 000000000000000A000000000000000000000000000000000000000000000 000000000000000000000000000000000000000     00000000                                                                                                                        000000000000000000
F0010000007181500005000007223972300013552100000000000000000201505270002001LUIS VALENCIA                                     D000000000059200000000000000000000100010010000000000000000000000F0010000007181500520150527000101 00000000000000000000000000000000000000000000000000000000000000000000000000000000000000000000000000000000000000000N 00000000000NCONT   00    00000000000          00000000000000000000000000000000000000000000 000000000000000A000000000000000000000000000000000000000000000 000000000000000000000000000000000000000     00000000                                                                                                                        000000000000000000
F0010000007181600001000007213847800011050500000000000000000201505270002001ALEJANDRO MEZA ALVAREZ                            D000000007500000000000000000000000100010010000000000000000000000F0010000007181600120150527000101 00000000000000000000000000000000000000000000000000000000000000000000000000000000000000000000000000000000000000000N 00000000000NCONT   00    00000000000          00000000000000000000000000000000000000000000 000000000000000A000000000000000000000000000000000000000000000 000000000000000000000000000000000000000     00000000                                                                                                                        000000000000000000
F0010000007181600002000007213847800041450500000000000000000201505270002001ALEJANDRO MEZA ALVAREZ                            C000000006000000000000000000000000100010010000000000000000000000F0010000007181600220150527000101 00000000000000000000000000000000000000000000000000000000000000000000000000000000000000000000000000000000000000000N 00000000000NCONT   00    00000000000          00000000000000000000000000000000000000000000 000000000000000A000000000000000000000000000000000000000000000 000000000000000000000000000000000000000     00000000                                                                                                                        000000000000000000
F0010000007181600003000007213847800042505000000000000000000201505270002001ALEJANDRO MEZA ALVAREZ                            C000000001500000000000000000000000100010010000000000000000000000F0010000007181600320150527000101 00000000000000000000000000000000000000000000000000000000000000000000000000000000000000000000000000000000000000000N 00000000000NCONT   00    00000000000          00000000000000000000000000000000000000000000 000000000000000A000000000000000000000000000000000000000000000 000000000000000000000000000000000000000     00000000                                                                                                                        000000000000000000
F0010000007181600004000007213847800023658300000000000000000201505270002001ALEJANDRO MEZA ALVAREZ                            C000000000048000000000000000000000100010010000000000000000000000F0010000007181600420150527000101 00000000000000000000000000000000000000000000000000000000000000000000000000000000000000000000000000000000000000000N 00000000000NCONT   00    00000000000          00000000000000000000000000000000000000000000 000000000000000A000000000000000000000000000000000000000000000 000000000000000000000000000000000000000     00000000                                                                                                                        000000000000000000
F0010000007181600005000007213847800013552100000000000000000201505270002001ALEJANDRO MEZA ALVAREZ                            D000000000048000000000000000000000100010010000000000000000000000F0010000007181600520150527000101 00000000000000000000000000000000000000000000000000000000000000000000000000000000000000000000000000000000000000000N 00000000000NCONT   00    00000000000          00000000000000000000000000000000000000000000 000000000000000A000000000000000000000000000000000000000000000 000000000000000000000000000000000000000     00000000                                                                                                                        000000000000000000
F0010000007181700001000001022529300011050500000000000000000201505270002001ALBERTO ALVAREZ ISAZA                             D000000001210000000000000000000000100010010000000000000000000000F0010000007181700120150527000101 00000000000000000000000000000000000000000000000000000000000000000000000000000000000000000000000000000000000000000N 00000000000NCONT   00    00000000000          00000000000000000000000000000000000000000000 000000000000000A000000000000000000000000000000000000000000000 000000000000000000000000000000000000000     00000000                                                                                                                        000000000000000000
F0010000007181700002000001022529300041450500000000000000000201505270002001ALBERTO ALVAREZ ISAZA                             C000000000860000000000000000000000100010010000000000000000000000F0010000007181700220150527000101 00000000000000000000000000000000000000000000000000000000000000000000000000000000000000000000000000000000000000000N 00000000000NCONT   00    00000000000          00000000000000000000000000000000000000000000 000000000000000A000000000000000000000000000000000000000000000 000000000000000000000000000000000000000     00000000                                                                                                                        000000000000000000
F0010000007181700003000001022529300042505000000000000000000201505270002001ALBERTO ALVAREZ ISAZA                             C000000000350000000000000000000000100010010000000000000000000000F0010000007181700320150527000101 00000000000000000000000000000000000000000000000000000000000000000000000000000000000000000000000000000000000000000N 00000000000NCONT   00    00000000000          00000000000000000000000000000000000000000000 000000000000000A000000000000000000000000000000000000000000000 000000000000000000000000000000000000000     00000000                                                                                                                        000000000000000000
F0010000007181700004000001022529300023658300000000000000000201505270002001ALBERTO ALVAREZ ISAZA                             C000000000006900000000000000000000100010010000000000000000000000F0010000007181700420150527000101 00000000000000000000000000000000000000000000000000000000000000000000000000000000000000000000000000000000000000000N 00000000000NCONT   00    00000000000          00000000000000000000000000000000000000000000 000000000000000A000000000000000000000000000000000000000000000 000000000000000000000000000000000000000     00000000                                                                                                                        000000000000000000
F0010000007181700005000001022529300013552100000000000000000201505270002001ALBERTO ALVAREZ ISAZA                             D000000000006900000000000000000000100010010000000000000000000000F0010000007181700520150527000101 00000000000000000000000000000000000000000000000000000000000000000000000000000000000000000000000000000000000000000N 00000000000NCONT   00    00000000000          00000000000000000000000000000000000000000000 000000000000000A000000000000000000000000000000000000000000000 000000000000000000000000000000000000000     00000000                                                                                                                        000000000000000000
F0010000007181800001000000431178400011050500000000000000000201505270002001EFRAIN ALVAREZ                                    D000000002530000000000000000000000100010010000000000000000000000F0010000007181800120150527000101 00000000000000000000000000000000000000000000000000000000000000000000000000000000000000000000000000000000000000000N 00000000000NCONT   00    00000000000          00000000000000000000000000000000000000000000 000000000000000A000000000000000000000000000000000000000000000 000000000000000000000000000000000000000     00000000                                                                                                                        000000000000000000
F0010000007181800002000000431178400041450500000000000000000201505270002001EFRAIN ALVAREZ                                    C000000002380000000000000000000000100010010000000000000000000000F0010000007181800220150527000101 00000000000000000000000000000000000000000000000000000000000000000000000000000000000000000000000000000000000000000N 00000000000NCONT   00    00000000000          00000000000000000000000000000000000000000000 000000000000000A000000000000000000000000000000000000000000000 000000000000000000000000000000000000000     00000000                                                                                                                        000000000000000000
F0010000007181800003000000431178400042505000000000000000000201505270002001EFRAIN ALVAREZ                                    C000000000150000000000000000000000100010010000000000000000000000F0010000007181800320150527000101 00000000000000000000000000000000000000000000000000000000000000000000000000000000000000000000000000000000000000000N 00000000000NCONT   00    00000000000          00000000000000000000000000000000000000000000 000000000000000A000000000000000000000000000000000000000000000 000000000000000000000000000000000000000     00000000                                                                                                                        000000000000000000
F0010000007181800004000000431178400023658300000000000000000201505270002001EFRAIN ALVAREZ                                    C000000000019000000000000000000000100010010000000000000000000000F0010000007181800420150527000101 00000000000000000000000000000000000000000000000000000000000000000000000000000000000000000000000000000000000000000N 00000000000NCONT   00    00000000000          00000000000000000000000000000000000000000000 000000000000000A000000000000000000000000000000000000000000000 000000000000000000000000000000000000000     00000000                                                                                                                        000000000000000000
F0010000007181800005000000431178400013552100000000000000000201505270002001EFRAIN ALVAREZ                                    D000000000019000000000000000000000100010010000000000000000000000F0010000007181800520150527000101 00000000000000000000000000000000000000000000000000000000000000000000000000000000000000000000000000000000000000000N 00000000000NCONT   00    00000000000          00000000000000000000000000000000000000000000 000000000000000A000000000000000000000000000000000000000000000 000000000000000000000000000000000000000     00000000                                                                                                                        000000000000000000
F0010000007181900001000000431178400011050500000000000000000201505270002001EFRAIN ALVAREZ                                    D000000001290000000000000000000000100010010000000000000000000000F0010000007181900120150527000101 00000000000000000000000000000000000000000000000000000000000000000000000000000000000000000000000000000000000000000N 00000000000NCONT   00    00000000000          00000000000000000000000000000000000000000000 000000000000000A000000000000000000000000000000000000000000000 000000000000000000000000000000000000000     00000000                                                                                                                        000000000000000000
F0010000007181900002000000431178400041450500000000000000000201505270002001EFRAIN ALVAREZ                                    C000000001190000000000000000000000100010010000000000000000000000F0010000007181900220150527000101 00000000000000000000000000000000000000000000000000000000000000000000000000000000000000000000000000000000000000000N 00000000000NCONT   00    00000000000          00000000000000000000000000000000000000000000 000000000000000A000000000000000000000000000000000000000000000 000000000000000000000000000000000000000     00000000                                                                                                                        000000000000000000
F0010000007181900003000000431178400042505000000000000000000201505270002001EFRAIN ALVAREZ                                    C000000000100000000000000000000000100010010000000000000000000000F0010000007181900320150527000101 00000000000000000000000000000000000000000000000000000000000000000000000000000000000000000000000000000000000000000N 00000000000NCONT   00    00000000000          00000000000000000000000000000000000000000000 000000000000000A000000000000000000000000000000000000000000000 000000000000000000000000000000000000000     00000000                                                                                                                        000000000000000000
F0010000007181900004000000431178400023658300000000000000000201505270002001EFRAIN ALVAREZ                                    C000000000009500000000000000000000100010010000000000000000000000F0010000007181900420150527000101 00000000000000000000000000000000000000000000000000000000000000000000000000000000000000000000000000000000000000000N 00000000000NCONT   00    00000000000          00000000000000000000000000000000000000000000 000000000000000A000000000000000000000000000000000000000000000 000000000000000000000000000000000000000     00000000                                                                                                                        000000000000000000
F0010000007181900005000000431178400013552100000000000000000201505270002001EFRAIN ALVAREZ                                    D000000000009500000000000000000000100010010000000000000000000000F0010000007181900520150527000101 00000000000000000000000000000000000000000000000000000000000000000000000000000000000000000000000000000000000000000N 00000000000NCONT   00    00000000000          00000000000000000000000000000000000000000000 000000000000000A000000000000000000000000000000000000000000000 000000000000000000000000000000000000000     00000000                                                                                                                        000000000000000000
F0010000007182000001000000431178400011050500000000000000000201505270002001EFRAIN ALVAREZ                                    D000000001860000000000000000000000100010010000000000000000000000F0010000007182000120150527000101 00000000000000000000000000000000000000000000000000000000000000000000000000000000000000000000000000000000000000000N 00000000000NCONT   00    00000000000          00000000000000000000000000000000000000000000 000000000000000A000000000000000000000000000000000000000000000 000000000000000000000000000000000000000     00000000                                                                                                                        000000000000000000
F0010000007182000002000000431178400041450500000000000000000201505270002001EFRAIN ALVAREZ                                    C000000001760000000000000000000000100010010000000000000000000000F0010000007182000220150527000101 00000000000000000000000000000000000000000000000000000000000000000000000000000000000000000000000000000000000000000N 00000000000NCONT   00    00000000000          00000000000000000000000000000000000000000000 000000000000000A000000000000000000000000000000000000000000000 000000000000000000000000000000000000000     00000000                                                                                                                        000000000000000000
F0010000007182000003000000431178400042505000000000000000000201505270002001EFRAIN ALVAREZ                                    C000000000100000000000000000000000100010010000000000000000000000F0010000007182000320150527000101 00000000000000000000000000000000000000000000000000000000000000000000000000000000000000000000000000000000000000000N 00000000000NCONT   00    00000000000          00000000000000000000000000000000000000000000 000000000000000A000000000000000000000000000000000000000000000 000000000000000000000000000000000000000     00000000                                                                                                                        000000000000000000
F0010000007182000004000000431178400023658300000000000000000201505270002001EFRAIN ALVAREZ                                    C000000000014100000000000000000000100010010000000000000000000000F0010000007182000420150527000101 00000000000000000000000000000000000000000000000000000000000000000000000000000000000000000000000000000000000000000N 00000000000NCONT   00    00000000000          00000000000000000000000000000000000000000000 000000000000000A000000000000000000000000000000000000000000000 000000000000000000000000000000000000000     00000000                                                                                                                        000000000000000000
F0010000007182000005000000431178400013552100000000000000000201505270002001EFRAIN ALVAREZ                                    D000000000014100000000000000000000100010010000000000000000000000F0010000007182000520150527000101 00000000000000000000000000000000000000000000000000000000000000000000000000000000000000000000000000000000000000000N 00000000000NCONT   00    00000000000          00000000000000000000000000000000000000000000 000000000000000A000000000000000000000000000000000000000000000 000000000000000000000000000000000000000     00000000                                                                                                                        000000000000000000
F0010000007182100001000000431178400011050500000000000000000201505270002001EFRAIN ALVAREZ                                    D000000002480000000000000000000000100010010000000000000000000000F0010000007182100120150527000101 00000000000000000000000000000000000000000000000000000000000000000000000000000000000000000000000000000000000000000N 00000000000NCONT   00    00000000000          00000000000000000000000000000000000000000000 000000000000000A000000000000000000000000000000000000000000000 000000000000000000000000000000000000000     00000000                                                                                                                        000000000000000000
F0010000007182100002000000431178400041450500000000000000000201505270002001EFRAIN ALVAREZ                                    C000000002380000000000000000000000100010010000000000000000000000F0010000007182100220150527000101 00000000000000000000000000000000000000000000000000000000000000000000000000000000000000000000000000000000000000000N 00000000000NCONT   00    00000000000          00000000000000000000000000000000000000000000 000000000000000A000000000000000000000000000000000000000000000 000000000000000000000000000000000000000     00000000                                                                                                                        000000000000000000
F0010000007182100003000000431178400042505000000000000000000201505270002001EFRAIN ALVAREZ                                    C000000000100000000000000000000000100010010000000000000000000000F0010000007182100320150527000101 00000000000000000000000000000000000000000000000000000000000000000000000000000000000000000000000000000000000000000N 00000000000NCONT   00    00000000000          00000000000000000000000000000000000000000000 000000000000000A000000000000000000000000000000000000000000000 000000000000000000000000000000000000000     00000000                                                                                                                        000000000000000000
F0010000007182100004000000431178400023658300000000000000000201505270002001EFRAIN ALVAREZ                                    C000000000019000000000000000000000100010010000000000000000000000F0010000007182100420150527000101 00000000000000000000000000000000000000000000000000000000000000000000000000000000000000000000000000000000000000000N 00000000000NCONT   00    00000000000          00000000000000000000000000000000000000000000 000000000000000A000000000000000000000000000000000000000000000 000000000000000000000000000000000000000     00000000                                                                                                                        000000000000000000
F0010000007182100005000000431178400013552100000000000000000201505270002001EFRAIN ALVAREZ                                    D000000000019000000000000000000000100010010000000000000000000000F0010000007182100520150527000101 00000000000000000000000000000000000000000000000000000000000000000000000000000000000000000000000000000000000000000N 00000000000NCONT   00    00000000000          00000000000000000000000000000000000000000000 000000000000000A000000000000000000000000000000000000000000000 000000000000000000000000000000000000000     00000000                                                                                                                        000000000000000000
F0010000007182200001000000744343000011050500000000000000000201505270002001ADOLFO ESCAMILLA VILLEGAS                         D000000011000000000000000000000000100010010000000000000000000000F0010000007182200120150527000101 00000000000000000000000000000000000000000000000000000000000000000000000000000000000000000000000000000000000000000N 00000000000NCONT   00    00000000000          00000000000000000000000000000000000000000000 000000000000000A000000000000000000000000000000000000000000000 000000000000000000000000000000000000000     00000000                                                                                                                        000000000000000000
F0010000007182200002000000744343000041450500000000000000000201505270002001ADOLFO ESCAMILLA VILLEGAS                         C000000010900000000000000000000000100010010000000000000000000000F0010000007182200220150527000101 00000000000000000000000000000000000000000000000000000000000000000000000000000000000000000000000000000000000000000N 00000000000NCONT   00    00000000000          00000000000000000000000000000000000000000000 000000000000000A000000000000000000000000000000000000000000000 000000000000000000000000000000000000000     00000000                                                                                                                        000000000000000000
F0010000007182200003000000744343000042505000000000000000000201505270002001ADOLFO ESCAMILLA VILLEGAS                         C000000000100000000000000000000000100010010000000000000000000000F0010000007182200320150527000101 00000000000000000000000000000000000000000000000000000000000000000000000000000000000000000000000000000000000000000N 00000000000NCONT   00    00000000000          00000000000000000000000000000000000000000000 000000000000000A000000000000000000000000000000000000000000000 000000000000000000000000000000000000000     00000000                                                                                                                        000000000000000000
F0010000007182200004000000744343000023658300000000000000000201505270002001ADOLFO ESCAMILLA VILLEGAS                         C000000000087200000000000000000000100010010000000000000000000000F0010000007182200420150527000101 00000000000000000000000000000000000000000000000000000000000000000000000000000000000000000000000000000000000000000N 00000000000NCONT   00    00000000000          00000000000000000000000000000000000000000000 000000000000000A000000000000000000000000000000000000000000000 000000000000000000000000000000000000000     00000000                                                                                                                        000000000000000000
F0010000007182200005000000744343000013552100000000000000000201505270002001ADOLFO ESCAMILLA VILLEGAS                         D000000000087200000000000000000000100010010000000000000000000000F0010000007182200520150527000101 00000000000000000000000000000000000000000000000000000000000000000000000000000000000000000000000000000000000000000N 00000000000NCONT   00    00000000000          00000000000000000000000000000000000000000000 000000000000000A000000000000000000000000000000000000000000000 000000000000000000000000000000000000000     00000000                                                                                                                        000000000000000000
F0010000007182300001000080023327700011050500000000000000000201505270002001DISINCO LTDA                                      D000000003526900000000000000000000100010010000000000000000000000F0010000007182300120150527000101 00000000000000000000000000000000000000000000000000000000000000000000000000000000000000000000000000000000000000000N 00000000000NCONT   00    00000000000          00000000000000000000000000000000000000000000 000000000000000A000000000000000000000000000000000000000000000 000000000000000000000000000000000000000     00000000                                                                                                                        000000000000000000
F0010000007182300002000080023327700041450500000000000000000201505270002001DISINCO LTDA                                      C000000003320000000000000000000000100010010000000000000000000000F0010000007182300220150527000101 00000000000000000000000000000000000000000000000000000000000000000000000000000000000000000000000000000000000000000N 00000000000NCONT   00    00000000000          00000000000000000000000000000000000000000000 000000000000000A000000000000000000000000000000000000000000000 000000000000000000000000000000000000000     00000000                                                                                                                        000000000000000000
F0010000007182300003000080023327700042505000000000000000000201505270002001DISINCO LTDA                                      C000000000206900000000000000000000100010010000000000000000000000F0010000007182300320150527000101 00000000000000000000000000000000000000000000000000000000000000000000000000000000000000000000000000000000000000000N 00000000000NCONT   00    00000000000          00000000000000000000000000000000000000000000 000000000000000A000000000000000000000000000000000000000000000 000000000000000000000000000000000000000     00000000                                                                                                                        000000000000000000
F0010000007182300004000080023327700023658300000000000000000201505270002001DISINCO LTDA                                      C000000000026600000000000000000000100010010000000000000000000000F0010000007182300420150527000101 00000000000000000000000000000000000000000000000000000000000000000000000000000000000000000000000000000000000000000N 00000000000NCONT   00    00000000000          00000000000000000000000000000000000000000000 000000000000000A000000000000000000000000000000000000000000000 000000000000000000000000000000000000000     00000000                                                                                                                        000000000000000000
F0010000007182300005000080023327700013552100000000000000000201505270002001DISINCO LTDA                                      D000000000026600000000000000000000100010010000000000000000000000F0010000007182300520150527000101 00000000000000000000000000000000000000000000000000000000000000000000000000000000000000000000000000000000000000000N 00000000000NCONT   00    00000000000          00000000000000000000000000000000000000000000 000000000000000A000000000000000000000000000000000000000000000 000000000000000000000000000000000000000     00000000                                                                                                                        000000000000000000
F0010000007182400001000007229328500011050500000000000000000201505270002001PV ELECTRIC   DEL CARIBE                          D000000008200000000000000000000000100010010000000000000000000000F0010000007182400120150527000101 00000000000000000000000000000000000000000000000000000000000000000000000000000000000000000000000000000000000000000N 00000000000NCONT   00    00000000000          00000000000000000000000000000000000000000000 000000000000000A000000000000000000000000000000000000000000000 000000000000000000000000000000000000000     00000000                                                                                                                        000000000000000000
F0010000007182400002000007229328500041450500000000000000000201505270002001PV ELECTRIC   DEL CARIBE                          C000000007200000000000000000000000100010010000000000000000000000F0010000007182400220150527000101 00000000000000000000000000000000000000000000000000000000000000000000000000000000000000000000000000000000000000000N 00000000000NCONT   00    00000000000          00000000000000000000000000000000000000000000 000000000000000A000000000000000000000000000000000000000000000 000000000000000000000000000000000000000     00000000                                                                                                                        000000000000000000
F0010000007182400003000007229328500042505000000000000000000201505270002001PV ELECTRIC   DEL CARIBE                          C000000001000000000000000000000000100010010000000000000000000000F0010000007182400320150527000101 00000000000000000000000000000000000000000000000000000000000000000000000000000000000000000000000000000000000000000N 00000000000NCONT   00    00000000000          00000000000000000000000000000000000000000000 000000000000000A000000000000000000000000000000000000000000000 000000000000000000000000000000000000000     00000000                                                                                                                        000000000000000000
F0010000007182400004000007229328500023658300000000000000000201505270002001PV ELECTRIC   DEL CARIBE                          C000000000057600000000000000000000100010010000000000000000000000F0010000007182400420150527000101 00000000000000000000000000000000000000000000000000000000000000000000000000000000000000000000000000000000000000000N 00000000000NCONT   00    00000000000          00000000000000000000000000000000000000000000 000000000000000A000000000000000000000000000000000000000000000 000000000000000000000000000000000000000     00000000                                                                                                                        000000000000000000
F0010000007182400005000007229328500013552100000000000000000201505270002001PV ELECTRIC   DEL CARIBE                          D000000000057600000000000000000000100010010000000000000000000000F0010000007182400520150527000101 00000000000000000000000000000000000000000000000000000000000000000000000000000000000000000000000000000000000000000N 00000000000NCONT   00    00000000000          00000000000000000000000000000000000000000000 000000000000000A000000000000000000000000000000000000000000000 000000000000000000000000000000000000000     00000000                                                                                                                        000000000000000000
F0010000007182500001000007229328500011050500000000000000000201505270002001PV ELECTRIC   DEL CARIBE                          D000000002200000000000000000000000100010010000000000000000000000F0010000007182500120150527000101 00000000000000000000000000000000000000000000000000000000000000000000000000000000000000000000000000000000000000000N 00000000000NCONT   00    00000000000          00000000000000000000000000000000000000000000 000000000000000A000000000000000000000000000000000000000000000 000000000000000000000000000000000000000     00000000                                                                                                                        000000000000000000
F0010000007182500002000007229328500041450500000000000000000201505270002001PV ELECTRIC   DEL CARIBE                          C000000001800000000000000000000000100010010000000000000000000000F0010000007182500220150527000101 00000000000000000000000000000000000000000000000000000000000000000000000000000000000000000000000000000000000000000N 00000000000NCONT   00    00000000000          00000000000000000000000000000000000000000000 000000000000000A000000000000000000000000000000000000000000000 000000000000000000000000000000000000000     00000000                                                                                                                        000000000000000000
F0010000007182500003000007229328500042505000000000000000000201505270002001PV ELECTRIC   DEL CARIBE                          C000000000400000000000000000000000100010010000000000000000000000F0010000007182500320150527000101 00000000000000000000000000000000000000000000000000000000000000000000000000000000000000000000000000000000000000000N 00000000000NCONT   00    00000000000          00000000000000000000000000000000000000000000 000000000000000A000000000000000000000000000000000000000000000 000000000000000000000000000000000000000     00000000                                                                                                                        000000000000000000
F0010000007182500004000007229328500023658300000000000000000201505270002001PV ELECTRIC   DEL CARIBE                          C000000000014400000000000000000000100010010000000000000000000000F0010000007182500420150527000101 00000000000000000000000000000000000000000000000000000000000000000000000000000000000000000000000000000000000000000N 00000000000NCONT   00    00000000000          00000000000000000000000000000000000000000000 000000000000000A000000000000000000000000000000000000000000000 000000000000000000000000000000000000000     00000000                                                                                                                        000000000000000000
F0010000007182500005000007229328500013552100000000000000000201505270002001PV ELECTRIC   DEL CARIBE                          D000000000014400000000000000000000100010010000000000000000000000F0010000007182500520150527000101 00000000000000000000000000000000000000000000000000000000000000000000000000000000000000000000000000000000000000000N 00000000000NCONT   00    00000000000          00000000000000000000000000000000000000000000 000000000000000A000000000000000000000000000000000000000000000 000000000000000000000000000000000000000     00000000                                                                                                                        000000000000000000
F0010000007182600001000007229328500011050500000000000000000201505270002001PV ELECTRIC   DEL CARIBE                          D000000004000000000000000000000000100010010000000000000000000000F0010000007182600120150527000101 00000000000000000000000000000000000000000000000000000000000000000000000000000000000000000000000000000000000000000N 00000000000NCONT   00    00000000000          00000000000000000000000000000000000000000000 000000000000000A000000000000000000000000000000000000000000000 000000000000000000000000000000000000000     00000000                                                                                                                        000000000000000000
F0010000007182600002000007229328500041450500000000000000000201505270002001PV ELECTRIC   DEL CARIBE                          C000000003600000000000000000000000100010010000000000000000000000F0010000007182600220150527000101 00000000000000000000000000000000000000000000000000000000000000000000000000000000000000000000000000000000000000000N 00000000000NCONT   00    00000000000          00000000000000000000000000000000000000000000 000000000000000A000000000000000000000000000000000000000000000 000000000000000000000000000000000000000     00000000                                                                                                                        000000000000000000
F0010000007182600003000007229328500042505000000000000000000201505270002001PV ELECTRIC   DEL CARIBE                          C000000000400000000000000000000000100010010000000000000000000000F0010000007182600320150527000101 00000000000000000000000000000000000000000000000000000000000000000000000000000000000000000000000000000000000000000N 00000000000NCONT   00    00000000000          00000000000000000000000000000000000000000000 000000000000000A000000000000000000000000000000000000000000000 000000000000000000000000000000000000000     00000000                                                                                                                        000000000000000000
F0010000007182600004000007229328500023658300000000000000000201505270002001PV ELECTRIC   DEL CARIBE                          C000000000028800000000000000000000100010010000000000000000000000F0010000007182600420150527000101 00000000000000000000000000000000000000000000000000000000000000000000000000000000000000000000000000000000000000000N 00000000000NCONT   00    00000000000          00000000000000000000000000000000000000000000 000000000000000A000000000000000000000000000000000000000000000 000000000000000000000000000000000000000     00000000                                                                                                                        000000000000000000
F0010000007182600005000007229328500013552100000000000000000201505270002001PV ELECTRIC   DEL CARIBE                          D000000000028800000000000000000000100010010000000000000000000000F0010000007182600520150527000101 00000000000000000000000000000000000000000000000000000000000000000000000000000000000000000000000000000000000000000N 00000000000NCONT   00    00000000000          00000000000000000000000000000000000000000000 000000000000000A000000000000000000000000000000000000000000000 000000000000000000000000000000000000000     00000000                                                                                                                        000000000000000000
F0010000007182700001000007229328500011050500000000000000000201505270002001PV ELECTRIC   DEL CARIBE                          D000000003900000000000000000000000100010010000000000000000000000F0010000007182700120150527000101 00000000000000000000000000000000000000000000000000000000000000000000000000000000000000000000000000000000000000000N 00000000000NCONT   00    00000000000          00000000000000000000000000000000000000000000 000000000000000A000000000000000000000000000000000000000000000 000000000000000000000000000000000000000     00000000                                                                                                                        000000000000000000
F0010000007182700002000007229328500041450500000000000000000201505270002001PV ELECTRIC   DEL CARIBE                          C000000003600000000000000000000000100010010000000000000000000000F0010000007182700220150527000101 00000000000000000000000000000000000000000000000000000000000000000000000000000000000000000000000000000000000000000N 00000000000NCONT   00    00000000000          00000000000000000000000000000000000000000000 000000000000000A000000000000000000000000000000000000000000000 000000000000000000000000000000000000000     00000000                                                                                                                        000000000000000000
F0010000007182700003000007229328500042505000000000000000000201505270002001PV ELECTRIC   DEL CARIBE                          C000000000300000000000000000000000100010010000000000000000000000F0010000007182700320150527000101 00000000000000000000000000000000000000000000000000000000000000000000000000000000000000000000000000000000000000000N 00000000000NCONT   00    00000000000          00000000000000000000000000000000000000000000 000000000000000A000000000000000000000000000000000000000000000 000000000000000000000000000000000000000     00000000                                                                                                                        000000000000000000
F0010000007182700004000007229328500023658300000000000000000201505270002001PV ELECTRIC   DEL CARIBE                          C000000000028800000000000000000000100010010000000000000000000000F0010000007182700420150527000101 00000000000000000000000000000000000000000000000000000000000000000000000000000000000000000000000000000000000000000N 00000000000NCONT   00    00000000000          00000000000000000000000000000000000000000000 000000000000000A000000000000000000000000000000000000000000000 000000000000000000000000000000000000000     00000000                                                                                                                        000000000000000000
F0010000007182700005000007229328500013552100000000000000000201505270002001PV ELECTRIC   DEL CARIBE                          D000000000028800000000000000000000100010010000000000000000000000F0010000007182700520150527000101 00000000000000000000000000000000000000000000000000000000000000000000000000000000000000000000000000000000000000000N 00000000000NCONT   00    00000000000          00000000000000000000000000000000000000000000 000000000000000A000000000000000000000000000000000000000000000 000000000000000000000000000000000000000     00000000                                                                                                                        000000000000000000
F0010000007182800001000001926100300011050500000000000000000201505270002001ERNESTO MUÑOZ PAEZ                               D000000030000000000000000000000000100010010000000000000000000000F0010000007182800120150527000101 00000000000000000000000000000000000000000000000000000000000000000000000000000000000000000000000000000000000000000N 00000000000NCONT   00    00000000000          00000000000000000000000000000000000000000000 000000000000000A000000000000000000000000000000000000000000000 000000000000000000000000000000000000000     00000000                                                                                                                        000000000000000000
F0010000007182800002000001926100300041450500000000000000000201505270002001ERNESTO MUÑOZ PAEZ                               C000000022000000000000000000000000100010010000000000000000000000F0010000007182800220150527000101 00000000000000000000000000000000000000000000000000000000000000000000000000000000000000000000000000000000000000000N 00000000000NCONT   00    00000000000          00000000000000000000000000000000000000000000 000000000000000A000000000000000000000000000000000000000000000 000000000000000000000000000000000000000     00000000                                                                                                                        000000000000000000
