F0010000008923200001000000866048200011050500000000000000000201608010002001REGINALDO TURIZO                                  D000000005000000000000000000000000100010010000000000000000000000F0010000008923200120160801000101 00000000000000000000000000000000000000000000000000000000000000000000000000000000000000000000000000000000000000000N 00000000000NCONT   00    00000000000          00000000000000000000000000000000000000000000 000000000000000A000000000000000000000000000000000000000000000 000000000000000000000000000000000000000     00000000                                                                                                                        000000000000000000
F0010000008923200002000000866048200041450500000000000000000201608010002001REGINALDO TURIZO                                  C000000003000000000000000000000000100010010000000000000000000000F0010000008923200220160801000101 00000000000000000000000000000000000000000000000000000000000000000000000000000000000000000000000000000000000000000N 00000000000NCONT   00    00000000000          00000000000000000000000000000000000000000000 000000000000000A000000000000000000000000000000000000000000000 000000000000000000000000000000000000000     00000000                                                                                                                        000000000000000000
F0010000008923200003000000866048200042505000000000000000000201608010002001REGINALDO TURIZO                                  C000000002000000000000000000000000100010010000000000000000000000F0010000008923200320160801000101 00000000000000000000000000000000000000000000000000000000000000000000000000000000000000000000000000000000000000000N 00000000000NCONT   00    00000000000          00000000000000000000000000000000000000000000 000000000000000A000000000000000000000000000000000000000000000 000000000000000000000000000000000000000     00000000                                                                                                                        000000000000000000
F0010000008923200004000000866048200023658300000000000000000201608010002001REGINALDO TURIZO                                  C000000000024000000000000000000000100010010000000000000000000000F0010000008923200420160801000101 00000000000000000000000000000000000000000000000000000000000000000000000000000000000000000000000000000000000000000N 00000000000NCONT   00    00000000000          00000000000000000000000000000000000000000000 000000000000000A000000000000000000000000000000000000000000000 000000000000000000000000000000000000000     00000000                                                                                                                        000000000000000000
F0010000008923200005000000866048200013552100000000000000000201608010002001REGINALDO TURIZO                                  D000000000024000000000000000000000100010010000000000000000000000F0010000008923200520160801000101 00000000000000000000000000000000000000000000000000000000000000000000000000000000000000000000000000000000000000000N 00000000000NCONT   00    00000000000          00000000000000000000000000000000000000000000 000000000000000A000000000000000000000000000000000000000000000 000000000000000000000000000000000000000     00000000                                                                                                                        000000000000000000
F0010000008923300001000090071760000011050500000000000000000201608010002001REFRIGERAR INGENIEROS SAS                         D000000001600000000000000000000000100010010000000000000000000000F0010000008923300120160801000101 00000000000000000000000000000000000000000000000000000000000000000000000000000000000000000000000000000000000000000N 00000000000NCONT   00    00000000000          00000000000000000000000000000000000000000000 000000000000000A000000000000000000000000000000000000000000000 000000000000000000000000000000000000000     00000000                                                                                                                        000000000000000000
F0010000008923300002000090071760000041450500000000000000000201608010002001REFRIGERAR INGENIEROS SAS                         C000000001500000000000000000000000100010010000000000000000000000F0010000008923300220160801000101 00000000000000000000000000000000000000000000000000000000000000000000000000000000000000000000000000000000000000000N 00000000000NCONT   00    00000000000          00000000000000000000000000000000000000000000 000000000000000A000000000000000000000000000000000000000000000 000000000000000000000000000000000000000     00000000                                                                                                                        000000000000000000
F0010000008923300003000090071760000042505000000000000000000201608010002001REFRIGERAR INGENIEROS SAS                         C000000000100000000000000000000000100010010000000000000000000000F0010000008923300320160801000101 00000000000000000000000000000000000000000000000000000000000000000000000000000000000000000000000000000000000000000N 00000000000NCONT   00    00000000000          00000000000000000000000000000000000000000000 000000000000000A000000000000000000000000000000000000000000000 000000000000000000000000000000000000000     00000000                                                                                                                        000000000000000000
F0010000008923300004000090071760000023658300000000000000000201608010002001REFRIGERAR INGENIEROS SAS                         C000000000012000000000000000000000100010010000000000000000000000F0010000008923300420160801000101 00000000000000000000000000000000000000000000000000000000000000000000000000000000000000000000000000000000000000000N 00000000000NCONT   00    00000000000          00000000000000000000000000000000000000000000 000000000000000A000000000000000000000000000000000000000000000 000000000000000000000000000000000000000     00000000                                                                                                                        000000000000000000
F0010000008923300005000090071760000013552100000000000000000201608010002001REFRIGERAR INGENIEROS SAS                         D000000000012000000000000000000000100010010000000000000000000000F0010000008923300520160801000101 00000000000000000000000000000000000000000000000000000000000000000000000000000000000000000000000000000000000000000N 00000000000NCONT   00    00000000000          00000000000000000000000000000000000000000000 000000000000000A000000000000000000000000000000000000000000000 000000000000000000000000000000000000000     00000000                                                                                                                        000000000000000000
F0010000008923400001000083001155300013050500000000000000000201608010002001COMERCIALIZADORA RUBEN S LTDA                     D000000008125700000000000000000000100010010000000000000000000000F0010000008923400120160801000101 00000000000000000000000000000000000000000000000000000000000000000000000000000000000000000000000000000000000000000N 00000000000NCONT   00    00000000000          00000000000000000000000000000000000000000000 000000000000000A000000000000000000000000000000000000000000000 000000000000000000000000000000000000000     00000000                                                                                                                        000000000000000000
F0010000008923400002000083001155300041450500000000000000000201608010002001COMERCIALIZADORA RUBEN S LTDA                     C000000007384000000000000000000000100010010000000000000000000000F0010000008923400220160801000101 00000000000000000000000000000000000000000000000000000000000000000000000000000000000000000000000000000000000000000N 00000000000NCONT   00    00000000000          00000000000000000000000000000000000000000000 000000000000000A000000000000000000000000000000000000000000000 000000000000000000000000000000000000000     00000000                                                                                                                        000000000000000000
F0010000008923400003000083001155300042505000000000000000000201608010002001COMERCIALIZADORA RUBEN S LTDA                     C000000000741700000000000000000000100010010000000000000000000000F0010000008923400320160801000101 00000000000000000000000000000000000000000000000000000000000000000000000000000000000000000000000000000000000000000N 00000000000NCONT   00    00000000000          00000000000000000000000000000000000000000000 000000000000000A000000000000000000000000000000000000000000000 000000000000000000000000000000000000000     00000000                                                                                                                        000000000000000000
F0010000008923400004000083001155300023658300000000000000000201608010002001COMERCIALIZADORA RUBEN S LTDA                     C000000000059100000000000000000000100010010000000000000000000000F0010000008923400420160801000101 00000000000000000000000000000000000000000000000000000000000000000000000000000000000000000000000000000000000000000N 00000000000NCONT   00    00000000000          00000000000000000000000000000000000000000000 000000000000000A000000000000000000000000000000000000000000000 000000000000000000000000000000000000000     00000000                                                                                                                        000000000000000000
F0010000008923400005000083001155300013552100000000000000000201608010002001COMERCIALIZADORA RUBEN S LTDA                     D000000000059100000000000000000000100010010000000000000000000000F0010000008923400520160801000101 00000000000000000000000000000000000000000000000000000000000000000000000000000000000000000000000000000000000000000N 00000000000NCONT   00    00000000000          00000000000000000000000000000000000000000000 000000000000000A000000000000000000000000000000000000000000000 000000000000000000000000000000000000000     00000000                                                                                                                        000000000000000000
F0010000008923500001000000376399500013050500000000000000000201608010002001FORDPLAST                                         D000000008900000000000000000000000100010010000000000000000000000F0010000008923500120160801000101 00000000000000000000000000000000000000000000000000000000000000000000000000000000000000000000000000000000000000000N 00000000000NCONT   00    00000000000          00000000000000000000000000000000000000000000 000000000000000A000000000000000000000000000000000000000000000 000000000000000000000000000000000000000     00000000                                                                                                                        000000000000000000
F0010000008923500002000000376399500041450500000000000000000201608010002001FORDPLAST                                         C000000008310000000000000000000000100010010000000000000000000000F0010000008923500220160801000101 00000000000000000000000000000000000000000000000000000000000000000000000000000000000000000000000000000000000000000N 00000000000NCONT   00    00000000000          00000000000000000000000000000000000000000000 000000000000000A000000000000000000000000000000000000000000000 000000000000000000000000000000000000000     00000000                                                                                                                        000000000000000000
F0010000008923500003000000376399500042505000000000000000000201608010002001FORDPLAST                                         C000000000590000000000000000000000100010010000000000000000000000F0010000008923500320160801000101 00000000000000000000000000000000000000000000000000000000000000000000000000000000000000000000000000000000000000000N 00000000000NCONT   00    00000000000          00000000000000000000000000000000000000000000 000000000000000A000000000000000000000000000000000000000000000 000000000000000000000000000000000000000     00000000                                                                                                                        000000000000000000
F0010000008923500004000000376399500023658300000000000000000201608010002001FORDPLAST                                         C000000000066500000000000000000000100010010000000000000000000000F0010000008923500420160801000101 00000000000000000000000000000000000000000000000000000000000000000000000000000000000000000000000000000000000000000N 00000000000NCONT   00    00000000000          00000000000000000000000000000000000000000000 000000000000000A000000000000000000000000000000000000000000000 000000000000000000000000000000000000000     00000000                                                                                                                        000000000000000000
F0010000008923500005000000376399500013552100000000000000000201608010002001FORDPLAST                                         D000000000066500000000000000000000100010010000000000000000000000F0010000008923500520160801000101 00000000000000000000000000000000000000000000000000000000000000000000000000000000000000000000000000000000000000000N 00000000000NCONT   00    00000000000          00000000000000000000000000000000000000000000 000000000000000A000000000000000000000000000000000000000000000 000000000000000000000000000000000000000     00000000                                                                                                                        000000000000000000
F0010000008923600001000089070997800013050500000000000000000201608010002001CENTRAL DE TORNILLOS                              D000000026784900000000000000000000100010010000000000000000000000F0010000008923600120160801000101 00000000000000000000000000000000000000000000000000000000000000000000000000000000000000000000000000000000000000000N 00000000000NCONT   00    00000000000          00000000000000000000000000000000000000000000 000000000000000A000000000000000000000000000000000000000000000 000000000000000000000000000000000000000     00000000                                                                                                                        000000000000000000
F0010000008923600002000089070997800041450500000000000000000201608010002001CENTRAL DE TORNILLOS                              C000000023910000000000000000000000100010010000000000000000000000F0010000008923600220160801000101 00000000000000000000000000000000000000000000000000000000000000000000000000000000000000000000000000000000000000000N 00000000000NCONT   00    00000000000          00000000000000000000000000000000000000000000 000000000000000A000000000000000000000000000000000000000000000 000000000000000000000000000000000000000     00000000                                                                                                                        000000000000000000
F0010000008923600003000089070997800042505000000000000000000201608010002001CENTRAL DE TORNILLOS                              C000000002874900000000000000000000100010010000000000000000000000F0010000008923600320160801000101 00000000000000000000000000000000000000000000000000000000000000000000000000000000000000000000000000000000000000000N 00000000000NCONT   00    00000000000          00000000000000000000000000000000000000000000 000000000000000A000000000000000000000000000000000000000000000 000000000000000000000000000000000000000     00000000                                                                                                                        000000000000000000
F0010000008923600004000089070997800023658300000000000000000201608010002001CENTRAL DE TORNILLOS                              C000000000191300000000000000000000100010010000000000000000000000F0010000008923600420160801000101 00000000000000000000000000000000000000000000000000000000000000000000000000000000000000000000000000000000000000000N 00000000000NCONT   00    00000000000          00000000000000000000000000000000000000000000 000000000000000A000000000000000000000000000000000000000000000 000000000000000000000000000000000000000     00000000                                                                                                                        000000000000000000
F0010000008923600005000089070997800013552100000000000000000201608010002001CENTRAL DE TORNILLOS                              D000000000191300000000000000000000100010010000000000000000000000F0010000008923600520160801000101 00000000000000000000000000000000000000000000000000000000000000000000000000000000000000000000000000000000000000000N 00000000000NCONT   00    00000000000          00000000000000000000000000000000000000000000 000000000000000A000000000000000000000000000000000000000000000 000000000000000000000000000000000000000     00000000                                                                                                                        000000000000000000
F0010000008923700001000080200069100013050500000000000000000201608010002001PEGANTES Y PINTURAS ATLAS LTDA                    D000000011607000000000000000000000100010010000000000000000000000F0010000008923700120160801000101 00000000000000000000000000000000000000000000000000000000000000000000000000000000000000000000000000000000000000000N 00000000000NCONT   00    00000000000          00000000000000000000000000000000000000000000 000000000000000A000000000000000000000000000000000000000000000 000000000000000000000000000000000000000     00000000                                                                                                                        000000000000000000
F0010000008923700002000080200069100041450500000000000000000201608010002001PEGANTES Y PINTURAS ATLAS LTDA                    C000000009900000000000000000000000100010010000000000000000000000F0010000008923700220160801000101 00000000000000000000000000000000000000000000000000000000000000000000000000000000000000000000000000000000000000000N 00000000000NCONT   00    00000000000          00000000000000000000000000000000000000000000 000000000000000A000000000000000000000000000000000000000000000 000000000000000000000000000000000000000     00000000                                                                                                                        000000000000000000
F0010000008923700003000080200069100042505000000000000000000201608010002001PEGANTES Y PINTURAS ATLAS LTDA                    C000000001707000000000000000000000100010010000000000000000000000F0010000008923700320160801000101 00000000000000000000000000000000000000000000000000000000000000000000000000000000000000000000000000000000000000000N 00000000000NCONT   00    00000000000          00000000000000000000000000000000000000000000 000000000000000A000000000000000000000000000000000000000000000 000000000000000000000000000000000000000     00000000                                                                                                                        000000000000000000
F0010000008923700004000080200069100023658300000000000000000201608010002001PEGANTES Y PINTURAS ATLAS LTDA                    C000000000079200000000000000000000100010010000000000000000000000F0010000008923700420160801000101 00000000000000000000000000000000000000000000000000000000000000000000000000000000000000000000000000000000000000000N 00000000000NCONT   00    00000000000          00000000000000000000000000000000000000000000 000000000000000A000000000000000000000000000000000000000000000 000000000000000000000000000000000000000     00000000                                                                                                                        000000000000000000
F0010000008923700005000080200069100013552100000000000000000201608010002001PEGANTES Y PINTURAS ATLAS LTDA                    D000000000079200000000000000000000100010010000000000000000000000F0010000008923700520160801000101 00000000000000000000000000000000000000000000000000000000000000000000000000000000000000000000000000000000000000000N 00000000000NCONT   00    00000000000          00000000000000000000000000000000000000000000 000000000000000A000000000000000000000000000000000000000000000 000000000000000000000000000000000000000     00000000                                                                                                                        000000000000000000
F0010000008923800001000000871714900013050500000000000000000201608010002001ROLNAN DE LA ROSA  INSIGNARES                     D000000036918900000000000000000000100010010000000000000000000000F0010000008923800120160801000101 00000000000000000000000000000000000000000000000000000000000000000000000000000000000000000000000000000000000000000N 00000000000NCONT   00    00000000000          00000000000000000000000000000000000000000000 000000000000000A000000000000000000000000000000000000000000000 000000000000000000000000000000000000000     00000000                                                                                                                        000000000000000000
F0010000008923800002000000871714900041450500000000000000000201608010002001ROLNAN DE LA ROSA  INSIGNARES                     C000000031366200000000000000000000100010010000000000000000000000F0010000008923800220160801000101 00000000000000000000000000000000000000000000000000000000000000000000000000000000000000000000000000000000000000000N 00000000000NCONT   00    00000000000          00000000000000000000000000000000000000000000 000000000000000A000000000000000000000000000000000000000000000 000000000000000000000000000000000000000     00000000                                                                                                                        000000000000000000
F0010000008923800003000000871714900042505000000000000000000201608010002001ROLNAN DE LA ROSA  INSIGNARES                     C000000005552700000000000000000000100010010000000000000000000000F0010000008923800320160801000101 00000000000000000000000000000000000000000000000000000000000000000000000000000000000000000000000000000000000000000N 00000000000NCONT   00    00000000000          00000000000000000000000000000000000000000000 000000000000000A000000000000000000000000000000000000000000000 000000000000000000000000000000000000000     00000000                                                                                                                        000000000000000000
F0010000008923800004000000871714900023658300000000000000000201608010002001ROLNAN DE LA ROSA  INSIGNARES                     C000000000250900000000000000000000100010010000000000000000000000F0010000008923800420160801000101 00000000000000000000000000000000000000000000000000000000000000000000000000000000000000000000000000000000000000000N 00000000000NCONT   00    00000000000          00000000000000000000000000000000000000000000 000000000000000A000000000000000000000000000000000000000000000 000000000000000000000000000000000000000     00000000                                                                                                                        000000000000000000
F0010000008923800005000000871714900013552100000000000000000201608010002001ROLNAN DE LA ROSA  INSIGNARES                     D000000000250900000000000000000000100010010000000000000000000000F0010000008923800520160801000101 00000000000000000000000000000000000000000000000000000000000000000000000000000000000000000000000000000000000000000N 00000000000NCONT   00    00000000000          00000000000000000000000000000000000000000000 000000000000000A000000000000000000000000000000000000000000000 000000000000000000000000000000000000000     00000000                                                                                                                        000000000000000000
F0010000008923900001000080016665600013050500000000000000000201608010002001SUMICAL DE ANTIOQUIA S.A.S                        D000000040415500000000000000000000100010010000000000000000000000F0010000008923900120160801000101 00000000000000000000000000000000000000000000000000000000000000000000000000000000000000000000000000000000000000000N 00000000000NCONT   00    00000000000          00000000000000000000000000000000000000000000 000000000000000A000000000000000000000000000000000000000000000 000000000000000000000000000000000000000     00000000                                                                                                                        000000000000000000
F0010000008923900002000080016665600041450500000000000000000201608010002001SUMICAL DE ANTIOQUIA S.A.S                        C000000034040000000000000000000000100010010000000000000000000000F0010000008923900220160801000101 00000000000000000000000000000000000000000000000000000000000000000000000000000000000000000000000000000000000000000N 00000000000NCONT   00    00000000000          00000000000000000000000000000000000000000000 000000000000000A000000000000000000000000000000000000000000000 000000000000000000000000000000000000000     00000000                                                                                                                        000000000000000000
F0010000008923900003000080016665600042505000000000000000000201608010002001SUMICAL DE ANTIOQUIA S.A.S                        C000000006375500000000000000000000100010010000000000000000000000F0010000008923900320160801000101 00000000000000000000000000000000000000000000000000000000000000000000000000000000000000000000000000000000000000000N 00000000000NCONT   00    00000000000          00000000000000000000000000000000000000000000 000000000000000A000000000000000000000000000000000000000000000 000000000000000000000000000000000000000     00000000                                                                                                                        000000000000000000
F0010000008923900004000080016665600023658300000000000000000201608010002001SUMICAL DE ANTIOQUIA S.A.S                        C000000000272300000000000000000000100010010000000000000000000000F0010000008923900420160801000101 00000000000000000000000000000000000000000000000000000000000000000000000000000000000000000000000000000000000000000N 00000000000NCONT   00    00000000000          00000000000000000000000000000000000000000000 000000000000000A000000000000000000000000000000000000000000000 000000000000000000000000000000000000000     00000000                                                                                                                        000000000000000000
F0010000008923900005000080016665600013552100000000000000000201608010002001SUMICAL DE ANTIOQUIA S.A.S                        D000000000272300000000000000000000100010010000000000000000000000F0010000008923900520160801000101 00000000000000000000000000000000000000000000000000000000000000000000000000000000000000000000000000000000000000000N 00000000000NCONT   00    00000000000          00000000000000000000000000000000000000000000 000000000000000A000000000000000000000000000000000000000000000 000000000000000000000000000000000000000     00000000                                                                                                                        000000000000000000
F0010000008924000001000090009800500013050500000000000000000201608010002001GLORIANT CHEMICHALS DE COLOMBIA LTDA              D000000020820000000000000000000000100010010000000000000000000000F0010000008924000120160801000101 00000000000000000000000000000000000000000000000000000000000000000000000000000000000000000000000000000000000000000N 00000000000NCONT   00    00000000000          00000000000000000000000000000000000000000000 000000000000000A000000000000000000000000000000000000000000000 000000000000000000000000000000000000000     00000000                                                                                                                        000000000000000000
F0010000008924000002000090009800500041450500000000000000000201608010002001GLORIANT CHEMICHALS DE COLOMBIA LTDA              C000000016520000000000000000000000100010010000000000000000000000F0010000008924000220160801000101 00000000000000000000000000000000000000000000000000000000000000000000000000000000000000000000000000000000000000000N 00000000000NCONT   00    00000000000          00000000000000000000000000000000000000000000 000000000000000A000000000000000000000000000000000000000000000 000000000000000000000000000000000000000     00000000                                                                                                                        000000000000000000
F0010000008924000003000090009800500042505000000000000000000201608010002001GLORIANT CHEMICHALS DE COLOMBIA LTDA              C000000004300000000000000000000000100010010000000000000000000000F0010000008924000320160801000101 00000000000000000000000000000000000000000000000000000000000000000000000000000000000000000000000000000000000000000N 00000000000NCONT   00    00000000000          00000000000000000000000000000000000000000000 000000000000000A000000000000000000000000000000000000000000000 000000000000000000000000000000000000000     00000000                                                                                                                        000000000000000000
F0010000008924000004000090009800500023658300000000000000000201608010002001GLORIANT CHEMICHALS DE COLOMBIA LTDA              C000000000132200000000000000000000100010010000000000000000000000F0010000008924000420160801000101 00000000000000000000000000000000000000000000000000000000000000000000000000000000000000000000000000000000000000000N 00000000000NCONT   00    00000000000          00000000000000000000000000000000000000000000 000000000000000A000000000000000000000000000000000000000000000 000000000000000000000000000000000000000     00000000                                                                                                                        000000000000000000
F0010000008924000005000090009800500013552100000000000000000201608010002001GLORIANT CHEMICHALS DE COLOMBIA LTDA              D000000000132200000000000000000000100010010000000000000000000000F0010000008924000520160801000101 00000000000000000000000000000000000000000000000000000000000000000000000000000000000000000000000000000000000000000N 00000000000NCONT   00    00000000000          00000000000000000000000000000000000000000000 000000000000000A000000000000000000000000000000000000000000000 000000000000000000000000000000000000000     00000000                                                                                                                        000000000000000000
F0010000008924100001000003273290300013050500000000000000000201608010002001YANETH GOMEZ ROJANO -  COMERCIALIZADORA YG        D000000011975000000000000000000000100010010000000000000000000000F0010000008924100120160801000101 00000000000000000000000000000000000000000000000000000000000000000000000000000000000000000000000000000000000000000N 00000000000NCONT   00    00000000000          00000000000000000000000000000000000000000000 000000000000000A000000000000000000000000000000000000000000000 000000000000000000000000000000000000000     00000000                                                                                                                        000000000000000000
F0010000008924100002000003273290300041450500000000000000000201608010002001YANETH GOMEZ ROJANO -  COMERCIALIZADORA YG        C000000008700000000000000000000000100010010000000000000000000000F0010000008924100220160801000101 00000000000000000000000000000000000000000000000000000000000000000000000000000000000000000000000000000000000000000N 00000000000NCONT   00    00000000000          00000000000000000000000000000000000000000000 000000000000000A000000000000000000000000000000000000000000000 000000000000000000000000000000000000000     00000000                                                                                                                        000000000000000000
F0010000008924100003000003273290300042505000000000000000000201608010002001YANETH GOMEZ ROJANO -  COMERCIALIZADORA YG        C000000003275000000000000000000000100010010000000000000000000000F0010000008924100320160801000101 00000000000000000000000000000000000000000000000000000000000000000000000000000000000000000000000000000000000000000N 00000000000NCONT   00    00000000000          00000000000000000000000000000000000000000000 000000000000000A000000000000000000000000000000000000000000000 000000000000000000000000000000000000000     00000000                                                                                                                        000000000000000000
F0010000008924100004000003273290300023658300000000000000000201608010002001YANETH GOMEZ ROJANO -  COMERCIALIZADORA YG        C000000000069600000000000000000000100010010000000000000000000000F0010000008924100420160801000101 00000000000000000000000000000000000000000000000000000000000000000000000000000000000000000000000000000000000000000N 00000000000NCONT   00    00000000000          00000000000000000000000000000000000000000000 000000000000000A000000000000000000000000000000000000000000000 000000000000000000000000000000000000000     00000000                                                                                                                        000000000000000000
F0010000008924100005000003273290300013552100000000000000000201608010002001YANETH GOMEZ ROJANO -  COMERCIALIZADORA YG        D000000000069600000000000000000000100010010000000000000000000000F0010000008924100520160801000101 00000000000000000000000000000000000000000000000000000000000000000000000000000000000000000000000000000000000000000N 00000000000NCONT   00    00000000000          00000000000000000000000000000000000000000000 000000000000000A000000000000000000000000000000000000000000000 000000000000000000000000000000000000000     00000000                                                                                                                        000000000000000000
F0010000008924200001000080200608400013050500000000000000000201608010002001HIT DISTRIBUCIONES SAS                            D000000010200000000000000000000000100010010000000000000000000000F0010000008924200120160801000101 00000000000000000000000000000000000000000000000000000000000000000000000000000000000000000000000000000000000000000N 00000000000NCONT   00    00000000000          00000000000000000000000000000000000000000000 000000000000000A000000000000000000000000000000000000000000000 000000000000000000000000000000000000000     00000000                                                                                                                        000000000000000000
F0010000008924200002000080200608400041450500000000000000000201608010002001HIT DISTRIBUCIONES SAS                            C000000008600000000000000000000000100010010000000000000000000000F0010000008924200220160801000101 00000000000000000000000000000000000000000000000000000000000000000000000000000000000000000000000000000000000000000N 00000000000NCONT   00    00000000000          00000000000000000000000000000000000000000000 000000000000000A000000000000000000000000000000000000000000000 000000000000000000000000000000000000000     00000000                                                                                                                        000000000000000000
F0010000008924200003000080200608400042505000000000000000000201608010002001HIT DISTRIBUCIONES SAS                            C000000001600000000000000000000000100010010000000000000000000000F0010000008924200320160801000101 00000000000000000000000000000000000000000000000000000000000000000000000000000000000000000000000000000000000000000N 00000000000NCONT   00    00000000000          00000000000000000000000000000000000000000000 000000000000000A000000000000000000000000000000000000000000000 000000000000000000000000000000000000000     00000000                                                                                                                        000000000000000000
F0010000008924200004000080200608400023658300000000000000000201608010002001HIT DISTRIBUCIONES SAS                            C000000000068800000000000000000000100010010000000000000000000000F0010000008924200420160801000101 00000000000000000000000000000000000000000000000000000000000000000000000000000000000000000000000000000000000000000N 00000000000NCONT   00    00000000000          00000000000000000000000000000000000000000000 000000000000000A000000000000000000000000000000000000000000000 000000000000000000000000000000000000000     00000000                                                                                                                        000000000000000000
F0010000008924200005000080200608400013552100000000000000000201608010002001HIT DISTRIBUCIONES SAS                            D000000000068800000000000000000000100010010000000000000000000000F0010000008924200520160801000101 00000000000000000000000000000000000000000000000000000000000000000000000000000000000000000000000000000000000000000N 00000000000NCONT   00    00000000000          00000000000000000000000000000000000000000000 000000000000000A000000000000000000000000000000000000000000000 000000000000000000000000000000000000000     00000000                                                                                                                        000000000000000000
F0010000008924300001000080002300200013050500000000000000000201608010002001DISREL S.A.                                       D000000034020000000000000000000000100010010000000000000000000000F0010000008924300120160801000101 00000000000000000000000000000000000000000000000000000000000000000000000000000000000000000000000000000000000000000N 00000000000NCONT   00    00000000000          00000000000000000000000000000000000000000000 000000000000000A000000000000000000000000000000000000000000000 000000000000000000000000000000000000000     00000000                                                                                                                        000000000000000000
F0010000008924300002000080002300200041450500000000000000000201608010002001DISREL S.A.                                       C000000027820000000000000000000000100010010000000000000000000000F0010000008924300220160801000101 00000000000000000000000000000000000000000000000000000000000000000000000000000000000000000000000000000000000000000N 00000000000NCONT   00    00000000000          00000000000000000000000000000000000000000000 000000000000000A000000000000000000000000000000000000000000000 000000000000000000000000000000000000000     00000000                                                                                                                        000000000000000000
F0010000008924300003000080002300200042505000000000000000000201608010002001DISREL S.A.                                       C000000006200000000000000000000000100010010000000000000000000000F0010000008924300320160801000101 00000000000000000000000000000000000000000000000000000000000000000000000000000000000000000000000000000000000000000N 00000000000NCONT   00    00000000000          00000000000000000000000000000000000000000000 000000000000000A000000000000000000000000000000000000000000000 000000000000000000000000000000000000000     00000000                                                                                                                        000000000000000000
F0010000008924300004000080002300200023658300000000000000000201608010002001DISREL S.A.                                       C000000000222600000000000000000000100010010000000000000000000000F0010000008924300420160801000101 00000000000000000000000000000000000000000000000000000000000000000000000000000000000000000000000000000000000000000N 00000000000NCONT   00    00000000000          00000000000000000000000000000000000000000000 000000000000000A000000000000000000000000000000000000000000000 000000000000000000000000000000000000000     00000000                                                                                                                        000000000000000000
F0010000008924300005000080002300200013552100000000000000000201608010002001DISREL S.A.                                       D000000000222600000000000000000000100010010000000000000000000000F0010000008924300520160801000101 00000000000000000000000000000000000000000000000000000000000000000000000000000000000000000000000000000000000000000N 00000000000NCONT   00    00000000000          00000000000000000000000000000000000000000000 000000000000000A000000000000000000000000000000000000000000000 000000000000000000000000000000000000000     00000000                                                                                                                        000000000000000000
F0010000008924400001000090044443800013050500000000000000000201608010002001DISTRIBUCIONES UFRE S.A.S.                        D000000011960000000000000000000000100010010000000000000000000000F0010000008924400120160801000101 00000000000000000000000000000000000000000000000000000000000000000000000000000000000000000000000000000000000000000N 00000000000NCONT   00    00000000000          00000000000000000000000000000000000000000000 000000000000000A000000000000000000000000000000000000000000000 000000000000000000000000000000000000000     00000000                                                                                                                        000000000000000000
F0010000008924400002000090044443800041450500000000000000000201608010002001DISTRIBUCIONES UFRE S.A.S.                        C000000009840000000000000000000000100010010000000000000000000000F0010000008924400220160801000101 00000000000000000000000000000000000000000000000000000000000000000000000000000000000000000000000000000000000000000N 00000000000NCONT   00    00000000000          00000000000000000000000000000000000000000000 000000000000000A000000000000000000000000000000000000000000000 000000000000000000000000000000000000000     00000000                                                                                                                        000000000000000000
F0010000008924400003000090044443800042505000000000000000000201608010002001DISTRIBUCIONES UFRE S.A.S.                        C000000002120000000000000000000000100010010000000000000000000000F0010000008924400320160801000101 00000000000000000000000000000000000000000000000000000000000000000000000000000000000000000000000000000000000000000N 00000000000NCONT   00    00000000000          00000000000000000000000000000000000000000000 000000000000000A000000000000000000000000000000000000000000000 000000000000000000000000000000000000000     00000000                                                                                                                        000000000000000000
F0010000008924400004000090044443800023658300000000000000000201608010002001DISTRIBUCIONES UFRE S.A.S.                        C000000000078700000000000000000000100010010000000000000000000000F0010000008924400420160801000101 00000000000000000000000000000000000000000000000000000000000000000000000000000000000000000000000000000000000000000N 00000000000NCONT   00    00000000000          00000000000000000000000000000000000000000000 000000000000000A000000000000000000000000000000000000000000000 000000000000000000000000000000000000000     00000000                                                                                                                        000000000000000000
F0010000008924400005000090044443800013552100000000000000000201608010002001DISTRIBUCIONES UFRE S.A.S.                        D000000000078700000000000000000000100010010000000000000000000000F0010000008924400520160801000101 00000000000000000000000000000000000000000000000000000000000000000000000000000000000000000000000000000000000000000N 00000000000NCONT   00    00000000000          00000000000000000000000000000000000000000000 000000000000000A000000000000000000000000000000000000000000000 000000000000000000000000000000000000000     00000000                                                                                                                        000000000000000000
F0010000008924500001000089010526900013050500000000000000000201608010002001DISTRIBUCIONES CANAL Y CIA S.A.S                  D000000024337200000000000000000000100010010000000000000000000000F0010000008924500120160801000101 00000000000000000000000000000000000000000000000000000000000000000000000000000000000000000000000000000000000000000N 00000000000NCONT   00    00000000000          00000000000000000000000000000000000000000000 000000000000000A000000000000000000000000000000000000000000000 000000000000000000000000000000000000000     00000000                                                                                                                        000000000000000000
F0010000008924500002000089010526900041450500000000000000000201608010002001DISTRIBUCIONES CANAL Y CIA S.A.S                  C000000015970000000000000000000000100010010000000000000000000000F0010000008924500220160801000101 00000000000000000000000000000000000000000000000000000000000000000000000000000000000000000000000000000000000000000N 00000000000NCONT   00    00000000000          00000000000000000000000000000000000000000000 000000000000000A000000000000000000000000000000000000000000000 000000000000000000000000000000000000000     00000000                                                                                                                        000000000000000000
F0010000008924500003000089010526900042505000000000000000000201608010002001DISTRIBUCIONES CANAL Y CIA S.A.S                  C000000008367200000000000000000000100010010000000000000000000000F0010000008924500320160801000101 00000000000000000000000000000000000000000000000000000000000000000000000000000000000000000000000000000000000000000N 00000000000NCONT   00    00000000000          00000000000000000000000000000000000000000000 000000000000000A000000000000000000000000000000000000000000000 000000000000000000000000000000000000000     00000000                                                                                                                        000000000000000000
F0010000008924500004000089010526900023658300000000000000000201608010002001DISTRIBUCIONES CANAL Y CIA S.A.S                  C000000000127800000000000000000000100010010000000000000000000000F0010000008924500420160801000101 00000000000000000000000000000000000000000000000000000000000000000000000000000000000000000000000000000000000000000N 00000000000NCONT   00    00000000000          00000000000000000000000000000000000000000000 000000000000000A000000000000000000000000000000000000000000000 000000000000000000000000000000000000000     00000000                                                                                                                        000000000000000000
F0010000008924500005000089010526900013552100000000000000000201608010002001DISTRIBUCIONES CANAL Y CIA S.A.S                  D000000000127800000000000000000000100010010000000000000000000000F0010000008924500520160801000101 00000000000000000000000000000000000000000000000000000000000000000000000000000000000000000000000000000000000000000N 00000000000NCONT   00    00000000000          00000000000000000000000000000000000000000000 000000000000000A000000000000000000000000000000000000000000000 000000000000000000000000000000000000000     00000000                                                                                                                        000000000000000000
F0010000008924600001000083007900600013050500000000000000000201608010002001EXPRESO ANDINO DE CARGA SA                        D000000077000000000000000000000000100010010000000000000000000000F0010000008924600120160801000101 00000000000000000000000000000000000000000000000000000000000000000000000000000000000000000000000000000000000000000N 00000000000NCONT   00    00000000000          00000000000000000000000000000000000000000000 000000000000000A000000000000000000000000000000000000000000000 000000000000000000000000000000000000000     00000000                                                                                                                        000000000000000000
F0010000008924600002000083007900600041450500000000000000000201608010002001EXPRESO ANDINO DE CARGA SA                        C000000076400000000000000000000000100010010000000000000000000000F0010000008924600220160801000101 00000000000000000000000000000000000000000000000000000000000000000000000000000000000000000000000000000000000000000N 00000000000NCONT   00    00000000000          00000000000000000000000000000000000000000000 000000000000000A000000000000000000000000000000000000000000000 000000000000000000000000000000000000000     00000000                                                                                                                        000000000000000000
F0010000008924600003000083007900600042505000000000000000000201608010002001EXPRESO ANDINO DE CARGA SA                        C000000000600000000000000000000000100010010000000000000000000000F0010000008924600320160801000101 00000000000000000000000000000000000000000000000000000000000000000000000000000000000000000000000000000000000000000N 00000000000NCONT   00    00000000000          00000000000000000000000000000000000000000000 000000000000000A000000000000000000000000000000000000000000000 000000000000000000000000000000000000000     00000000                                                                                                                        000000000000000000
F0010000008924600004000083007900600023658300000000000000000201608010002001EXPRESO ANDINO DE CARGA SA                        C000000000611200000000000000000000100010010000000000000000000000F0010000008924600420160801000101 00000000000000000000000000000000000000000000000000000000000000000000000000000000000000000000000000000000000000000N 00000000000NCONT   00    00000000000          00000000000000000000000000000000000000000000 000000000000000A000000000000000000000000000000000000000000000 000000000000000000000000000000000000000     00000000                                                                                                                        000000000000000000
F0010000008924600005000083007900600013552100000000000000000201608010002001EXPRESO ANDINO DE CARGA SA                        D000000000611200000000000000000000100010010000000000000000000000F0010000008924600520160801000101 00000000000000000000000000000000000000000000000000000000000000000000000000000000000000000000000000000000000000000N 00000000000NCONT   00    00000000000          00000000000000000000000000000000000000000000 000000000000000A000000000000000000000000000000000000000000000 000000000000000000000000000000000000000     00000000                                                                                                                        000000000000000000
F0010000008924800001000090064982900013050500000000000000000201608010002001DISDIES S.A.S                                     D000000067058900000000000000000000100010010000000000000000000000F0010000008924800120160801000101 00000000000000000000000000000000000000000000000000000000000000000000000000000000000000000000000000000000000000000N 00000000000NCONT   00    00000000000          00000000000000000000000000000000000000000000 000000000000000A000000000000000000000000000000000000000000000 000000000000000000000000000000000000000     00000000                                                                                                                        000000000000000000
F0010000008924800002000090064982900041450500000000000000000201608010002001DISDIES S.A.S                                     C000000057168800000000000000000000100010010000000000000000000000F0010000008924800220160801000101 00000000000000000000000000000000000000000000000000000000000000000000000000000000000000000000000000000000000000000N 00000000000NCONT   00    00000000000          00000000000000000000000000000000000000000000 000000000000000A000000000000000000000000000000000000000000000 000000000000000000000000000000000000000     00000000                                                                                                                        000000000000000000
F0010000008924800003000090064982900042505000000000000000000201608010002001DISDIES S.A.S                                     C000000009890100000000000000000000100010010000000000000000000000F0010000008924800320160801000101 00000000000000000000000000000000000000000000000000000000000000000000000000000000000000000000000000000000000000000N 00000000000NCONT   00    00000000000          00000000000000000000000000000000000000000000 000000000000000A000000000000000000000000000000000000000000000 000000000000000000000000000000000000000     00000000                                                                                                                        000000000000000000
F0010000008924800004000090064982900023658300000000000000000201608010002001DISDIES S.A.S                                     C000000000457400000000000000000000100010010000000000000000000000F0010000008924800420160801000101 00000000000000000000000000000000000000000000000000000000000000000000000000000000000000000000000000000000000000000N 00000000000NCONT   00    00000000000          00000000000000000000000000000000000000000000 000000000000000A000000000000000000000000000000000000000000000 000000000000000000000000000000000000000     00000000                                                                                                                        000000000000000000
F0010000008924800005000090064982900013552100000000000000000201608010002001DISDIES S.A.S                                     D000000000457400000000000000000000100010010000000000000000000000F0010000008924800520160801000101 00000000000000000000000000000000000000000000000000000000000000000000000000000000000000000000000000000000000000000N 00000000000NCONT   00    00000000000          00000000000000000000000000000000000000000000 000000000000000A000000000000000000000000000000000000000000000 000000000000000000000000000000000000000     00000000                                                                                                                        000000000000000000
F0010000008924900001000090048173700013050500000000000000000201608010002001ESPECIALIDADES QUIMICAS DEL NORTE SAS             D000000016990000000000000000000000100010010000000000000000000000F0010000008924900120160801000101 00000000000000000000000000000000000000000000000000000000000000000000000000000000000000000000000000000000000000000N 00000000000NCONT   00    00000000000          00000000000000000000000000000000000000000000 000000000000000A000000000000000000000000000000000000000000000 000000000000000000000000000000000000000     00000000                                                                                                                        000000000000000000
F0010000008924900002000090048173700041450500000000000000000201608010002001ESPECIALIDADES QUIMICAS DEL NORTE SAS             C000000016140000000000000000000000100010010000000000000000000000F0010000008924900220160801000101 00000000000000000000000000000000000000000000000000000000000000000000000000000000000000000000000000000000000000000N 00000000000NCONT   00    00000000000          00000000000000000000000000000000000000000000 000000000000000A000000000000000000000000000000000000000000000 000000000000000000000000000000000000000     00000000                                                                                                                        000000000000000000
F0010000008924900003000090048173700042505000000000000000000201608010002001ESPECIALIDADES QUIMICAS DEL NORTE SAS             C000000000850000000000000000000000100010010000000000000000000000F0010000008924900320160801000101 00000000000000000000000000000000000000000000000000000000000000000000000000000000000000000000000000000000000000000N 00000000000NCONT   00    00000000000          00000000000000000000000000000000000000000000 000000000000000A000000000000000000000000000000000000000000000 000000000000000000000000000000000000000     00000000                                                                                                                        000000000000000000
F0010000008924900004000090048173700023658300000000000000000201608010002001ESPECIALIDADES QUIMICAS DEL NORTE SAS             C000000000129100000000000000000000100010010000000000000000000000F0010000008924900420160801000101 00000000000000000000000000000000000000000000000000000000000000000000000000000000000000000000000000000000000000000N 00000000000NCONT   00    00000000000          00000000000000000000000000000000000000000000 000000000000000A000000000000000000000000000000000000000000000 000000000000000000000000000000000000000     00000000                                                                                                                        000000000000000000
F0010000008924900005000090048173700013552100000000000000000201608010002001ESPECIALIDADES QUIMICAS DEL NORTE SAS             D000000000129100000000000000000000100010010000000000000000000000F0010000008924900520160801000101 00000000000000000000000000000000000000000000000000000000000000000000000000000000000000000000000000000000000000000N 00000000000NCONT   00    00000000000          00000000000000000000000000000000000000000000 000000000000000A000000000000000000000000000000000000000000000 000000000000000000000000000000000000000     00000000                                                                                                                        000000000000000000
F0010000008925000001000090013324200013050500000000000000000201608010002001PLASTICOHEN E.U                                   D000000039300000000000000000000000100010010000000000000000000000F0010000008925000120160801000101 00000000000000000000000000000000000000000000000000000000000000000000000000000000000000000000000000000000000000000N 00000000000NCONT   00    00000000000          00000000000000000000000000000000000000000000 000000000000000A000000000000000000000000000000000000000000000 000000000000000000000000000000000000000     00000000                                                                                                                        000000000000000000
F0010000008925000002000090013324200041450500000000000000000201608010002001PLASTICOHEN E.U                                   C000000036300000000000000000000000100010010000000000000000000000F0010000008925000220160801000101 00000000000000000000000000000000000000000000000000000000000000000000000000000000000000000000000000000000000000000N 00000000000NCONT   00    00000000000          00000000000000000000000000000000000000000000 000000000000000A000000000000000000000000000000000000000000000 000000000000000000000000000000000000000     00000000                                                                                                                        000000000000000000
F0010000008925000003000090013324200042505000000000000000000201608010002001PLASTICOHEN E.U                                   C000000003000000000000000000000000100010010000000000000000000000F0010000008925000320160801000101 00000000000000000000000000000000000000000000000000000000000000000000000000000000000000000000000000000000000000000N 00000000000NCONT   00    00000000000          00000000000000000000000000000000000000000000 000000000000000A000000000000000000000000000000000000000000000 000000000000000000000000000000000000000     00000000                                                                                                                        000000000000000000
F0010000008925000004000090013324200023658300000000000000000201608010002001PLASTICOHEN E.U                                   C000000000290400000000000000000000100010010000000000000000000000F0010000008925000420160801000101 00000000000000000000000000000000000000000000000000000000000000000000000000000000000000000000000000000000000000000N 00000000000NCONT   00    00000000000          00000000000000000000000000000000000000000000 000000000000000A000000000000000000000000000000000000000000000 000000000000000000000000000000000000000     00000000                                                                                                                        000000000000000000
F0010000008925000005000090013324200013552100000000000000000201608010002001PLASTICOHEN E.U                                   D000000000290400000000000000000000100010010000000000000000000000F0010000008925000520160801000101 00000000000000000000000000000000000000000000000000000000000000000000000000000000000000000000000000000000000000000N 00000000000NCONT   00    00000000000          00000000000000000000000000000000000000000000 000000000000000A000000000000000000000000000000000000000000000 000000000000000000000000000000000000000     00000000                                                                                                                        000000000000000000
F0010000008925100001000090060531100013050500000000000000000201608010002001RECUBRIMIENTOS ESENCIALES SAS                     D000000047180000000000000000000000100010010000000000000000000000F0010000008925100120160801000101 00000000000000000000000000000000000000000000000000000000000000000000000000000000000000000000000000000000000000000N 00000000000NCONT   00    00000000000          00000000000000000000000000000000000000000000 000000000000000A000000000000000000000000000000000000000000000 000000000000000000000000000000000000000     00000000                                                                                                                        000000000000000000
F0010000008925100002000090060531100041450500000000000000000201608010002001RECUBRIMIENTOS ESENCIALES SAS                     C000000043680000000000000000000000100010010000000000000000000000F0010000008925100220160801000101 00000000000000000000000000000000000000000000000000000000000000000000000000000000000000000000000000000000000000000N 00000000000NCONT   00    00000000000          00000000000000000000000000000000000000000000 000000000000000A000000000000000000000000000000000000000000000 000000000000000000000000000000000000000     00000000                                                                                                                        000000000000000000
F0010000008925100003000090060531100042505000000000000000000201608010002001RECUBRIMIENTOS ESENCIALES SAS                     C000000003500000000000000000000000100010010000000000000000000000F0010000008925100320160801000101 00000000000000000000000000000000000000000000000000000000000000000000000000000000000000000000000000000000000000000N 00000000000NCONT   00    00000000000          00000000000000000000000000000000000000000000 000000000000000A000000000000000000000000000000000000000000000 000000000000000000000000000000000000000     00000000                                                                                                                        000000000000000000
F0010000008925100004000090060531100023658300000000000000000201608010002001RECUBRIMIENTOS ESENCIALES SAS                     C000000000349400000000000000000000100010010000000000000000000000F0010000008925100420160801000101 00000000000000000000000000000000000000000000000000000000000000000000000000000000000000000000000000000000000000000N 00000000000NCONT   00    00000000000          00000000000000000000000000000000000000000000 000000000000000A000000000000000000000000000000000000000000000 000000000000000000000000000000000000000     00000000                                                                                                                        000000000000000000
F0010000008925100005000090060531100013552100000000000000000201608010002001RECUBRIMIENTOS ESENCIALES SAS                     D000000000349400000000000000000000100010010000000000000000000000F0010000008925100520160801000101 00000000000000000000000000000000000000000000000000000000000000000000000000000000000000000000000000000000000000000N 00000000000NCONT   00    00000000000          00000000000000000000000000000000000000000000 000000000000000A000000000000000000000000000000000000000000000 000000000000000000000000000000000000000     00000000                                                                                                                        000000000000000000
F0010000008925200001000080016664500013050500000000000000000201608010002001TELAPLAS PANCER SAS                               D000000012770000000000000000000000100010010000000000000000000000F0010000008925200120160801000101 00000000000000000000000000000000000000000000000000000000000000000000000000000000000000000000000000000000000000000N 00000000000NCONT   00    00000000000          00000000000000000000000000000000000000000000 000000000000000A000000000000000000000000000000000000000000000 000000000000000000000000000000000000000     00000000                                                                                                                        000000000000000000
F0010000008925200002000080016664500041450500000000000000000201608010002001TELAPLAS PANCER SAS                               C000000011170000000000000000000000100010010000000000000000000000F0010000008925200220160801000101 00000000000000000000000000000000000000000000000000000000000000000000000000000000000000000000000000000000000000000N 00000000000NCONT   00    00000000000          00000000000000000000000000000000000000000000 000000000000000A000000000000000000000000000000000000000000000 000000000000000000000000000000000000000     00000000                                                                                                                        000000000000000000
F0010000008925200003000080016664500042505000000000000000000201608010002001TELAPLAS PANCER SAS                               C000000001600000000000000000000000100010010000000000000000000000F0010000008925200320160801000101 00000000000000000000000000000000000000000000000000000000000000000000000000000000000000000000000000000000000000000N 00000000000NCONT   00    00000000000          00000000000000000000000000000000000000000000 000000000000000A000000000000000000000000000000000000000000000 000000000000000000000000000000000000000     00000000                                                                                                                        000000000000000000
F0010000008925200004000080016664500023658300000000000000000201608010002001TELAPLAS PANCER SAS                               C000000000089400000000000000000000100010010000000000000000000000F0010000008925200420160801000101 00000000000000000000000000000000000000000000000000000000000000000000000000000000000000000000000000000000000000000N 00000000000NCONT   00    00000000000          00000000000000000000000000000000000000000000 000000000000000A000000000000000000000000000000000000000000000 000000000000000000000000000000000000000     00000000                                                                                                                        000000000000000000
F0010000008925200005000080016664500013552100000000000000000201608010002001TELAPLAS PANCER SAS                               D000000000089400000000000000000000100010010000000000000000000000F0010000008925200520160801000101 00000000000000000000000000000000000000000000000000000000000000000000000000000000000000000000000000000000000000000N 00000000000NCONT   00    00000000000          00000000000000000000000000000000000000000000 000000000000000A000000000000000000000000000000000000000000000 000000000000000000000000000000000000000     00000000                                                                                                                        000000000000000000
F0010000008925300001000090035510100013050500000000000000000201608010002001GRAINGER COLOMBIA S.A.S.                          D000000006643000000000000000000000100010010000000000000000000000F0010000008925300120160801000101 00000000000000000000000000000000000000000000000000000000000000000000000000000000000000000000000000000000000000000N 00000000000NCONT   00    00000000000          00000000000000000000000000000000000000000000 000000000000000A000000000000000000000000000000000000000000000 000000000000000000000000000000000000000     00000000                                                                                                                        000000000000000000
F0010000008925300002000090035510100041450500000000000000000201608010002001GRAINGER COLOMBIA S.A.S.                          C000000002548800000000000000000000100010010000000000000000000000F0010000008925300220160801000101 00000000000000000000000000000000000000000000000000000000000000000000000000000000000000000000000000000000000000000N 00000000000NCONT   00    00000000000          00000000000000000000000000000000000000000000 000000000000000A000000000000000000000000000000000000000000000 000000000000000000000000000000000000000     00000000                                                                                                                        000000000000000000
F0010000008925300003000090035510100042505000000000000000000201608010002001GRAINGER COLOMBIA S.A.S.                          C000000004094200000000000000000000100010010000000000000000000000F0010000008925300320160801000101 00000000000000000000000000000000000000000000000000000000000000000000000000000000000000000000000000000000000000000N 00000000000NCONT   00    00000000000          00000000000000000000000000000000000000000000 000000000000000A000000000000000000000000000000000000000000000 000000000000000000000000000000000000000     00000000                                                                                                                        000000000000000000
F0010000008925300004000090035510100023658300000000000000000201608010002001GRAINGER COLOMBIA S.A.S.                          C000000000020400000000000000000000100010010000000000000000000000F0010000008925300420160801000101 00000000000000000000000000000000000000000000000000000000000000000000000000000000000000000000000000000000000000000N 00000000000NCONT   00    00000000000          00000000000000000000000000000000000000000000 000000000000000A000000000000000000000000000000000000000000000 000000000000000000000000000000000000000     00000000                                                                                                                        000000000000000000
F0010000008925300005000090035510100013552100000000000000000201608010002001GRAINGER COLOMBIA S.A.S.                          D000000000020400000000000000000000100010010000000000000000000000F0010000008925300520160801000101 00000000000000000000000000000000000000000000000000000000000000000000000000000000000000000000000000000000000000000N 00000000000NCONT   00    00000000000          00000000000000000000000000000000000000000000 000000000000000A000000000000000000000000000000000000000000000 000000000000000000000000000000000000000     00000000                                                                                                                        000000000000000000
F0010000008925400001000086000490200013050500000000000000000201608010002001PROV. DE PAPELES ANDINA S.A.                      D000000013615000000000000000000000100010010000000000000000000000F0010000008925400120160801000101 00000000000000000000000000000000000000000000000000000000000000000000000000000000000000000000000000000000000000000N 00000000000NCONT   00    00000000000          00000000000000000000000000000000000000000000 000000000000000A000000000000000000000000000000000000000000000 000000000000000000000000000000000000000     00000000                                                                                                                        000000000000000000
F0010000008925400002000086000490200041450500000000000000000201608010002001PROV. DE PAPELES ANDINA S.A.                      C000000012076100000000000000000000100010010000000000000000000000F0010000008925400220160801000101 00000000000000000000000000000000000000000000000000000000000000000000000000000000000000000000000000000000000000000N 00000000000NCONT   00    00000000000          00000000000000000000000000000000000000000000 000000000000000A000000000000000000000000000000000000000000000 000000000000000000000000000000000000000     00000000                                                                                                                        000000000000000000
F0010000008925400003000086000490200042505000000000000000000201608010002001PROV. DE PAPELES ANDINA S.A.                      C000000001538900000000000000000000100010010000000000000000000000F0010000008925400320160801000101 00000000000000000000000000000000000000000000000000000000000000000000000000000000000000000000000000000000000000000N 00000000000NCONT   00    00000000000          00000000000000000000000000000000000000000000 000000000000000A000000000000000000000000000000000000000000000 000000000000000000000000000000000000000     00000000                                                                                                                        000000000000000000
F0010000008925400004000086000490200023658300000000000000000201608010002001PROV. DE PAPELES ANDINA S.A.                      C000000000096600000000000000000000100010010000000000000000000000F0010000008925400420160801000101 00000000000000000000000000000000000000000000000000000000000000000000000000000000000000000000000000000000000000000N 00000000000NCONT   00    00000000000          00000000000000000000000000000000000000000000 000000000000000A000000000000000000000000000000000000000000000 000000000000000000000000000000000000000     00000000                                                                                                                        000000000000000000
F0010000008925400005000086000490200013552100000000000000000201608010002001PROV. DE PAPELES ANDINA S.A.                      D000000000096600000000000000000000100010010000000000000000000000F0010000008925400520160801000101 00000000000000000000000000000000000000000000000000000000000000000000000000000000000000000000000000000000000000000N 00000000000NCONT   00    00000000000          00000000000000000000000000000000000000000000 000000000000000A000000000000000000000000000000000000000000000 000000000000000000000000000000000000000     00000000                                                                                                                        000000000000000000
F0010000008925500001000090008711200013050500000000000000000201608010002001PACKAGING SUPPLIERS S.A.                          D000000055302800000000000000000000100010010000000000000000000000F0010000008925500120160801000101 00000000000000000000000000000000000000000000000000000000000000000000000000000000000000000000000000000000000000000N 00000000000NCONT   00    00000000000          00000000000000000000000000000000000000000000 000000000000000A000000000000000000000000000000000000000000000 000000000000000000000000000000000000000     00000000                                                                                                                        000000000000000000
F0010000008925500002000090008711200041450500000000000000000201608010002001PACKAGING SUPPLIERS S.A.                          C000000050386300000000000000000000100010010000000000000000000000F0010000008925500220160801000101 00000000000000000000000000000000000000000000000000000000000000000000000000000000000000000000000000000000000000000N 00000000000NCONT   00    00000000000          00000000000000000000000000000000000000000000 000000000000000A000000000000000000000000000000000000000000000 000000000000000000000000000000000000000     00000000                                                                                                                        000000000000000000
F0010000008925500003000090008711200042505000000000000000000201608010002001PACKAGING SUPPLIERS S.A.                          C000000004916500000000000000000000100010010000000000000000000000F0010000008925500320160801000101 00000000000000000000000000000000000000000000000000000000000000000000000000000000000000000000000000000000000000000N 00000000000NCONT   00    00000000000          00000000000000000000000000000000000000000000 000000000000000A000000000000000000000000000000000000000000000 000000000000000000000000000000000000000     00000000                                                                                                                        000000000000000000
F0010000008925500004000090008711200023658300000000000000000201608010002001PACKAGING SUPPLIERS S.A.                          C000000000403100000000000000000000100010010000000000000000000000F0010000008925500420160801000101 00000000000000000000000000000000000000000000000000000000000000000000000000000000000000000000000000000000000000000N 00000000000NCONT   00    00000000000          00000000000000000000000000000000000000000000 000000000000000A000000000000000000000000000000000000000000000 000000000000000000000000000000000000000     00000000                                                                                                                        000000000000000000
F0010000008925500005000090008711200013552100000000000000000201608010002001PACKAGING SUPPLIERS S.A.                          D000000000403100000000000000000000100010010000000000000000000000F0010000008925500520160801000101 00000000000000000000000000000000000000000000000000000000000000000000000000000000000000000000000000000000000000000N 00000000000NCONT   00    00000000000          00000000000000000000000000000000000000000000 000000000000000A000000000000000000000000000000000000000000000 000000000000000000000000000000000000000     00000000                                                                                                                        000000000000000000
F0010000008925600001000000560754200011050500000000000000000201608010002001JAIRO MORENO VASQUEZ                              D000000003000000000000000000000000100010010000000000000000000000F0010000008925600120160801000101 00000000000000000000000000000000000000000000000000000000000000000000000000000000000000000000000000000000000000000N 00000000000NCONT   00    00000000000          00000000000000000000000000000000000000000000 000000000000000A000000000000000000000000000000000000000000000 000000000000000000000000000000000000000     00000000                                                                                                                        000000000000000000
F0010000008925600002000000560754200041450500000000000000000201608010002001JAIRO MORENO VASQUEZ                              C000000002600000000000000000000000100010010000000000000000000000F0010000008925600220160801000101 00000000000000000000000000000000000000000000000000000000000000000000000000000000000000000000000000000000000000000N 00000000000NCONT   00    00000000000          00000000000000000000000000000000000000000000 000000000000000A000000000000000000000000000000000000000000000 000000000000000000000000000000000000000     00000000                                                                                                                        000000000000000000
F0010000008925600003000000560754200042505000000000000000000201608010002001JAIRO MORENO VASQUEZ                              C000000000400000000000000000000000100010010000000000000000000000F0010000008925600320160801000101 00000000000000000000000000000000000000000000000000000000000000000000000000000000000000000000000000000000000000000N 00000000000NCONT   00    00000000000          00000000000000000000000000000000000000000000 000000000000000A000000000000000000000000000000000000000000000 000000000000000000000000000000000000000     00000000                                                                                                                        000000000000000000
F0010000008925600004000000560754200023658300000000000000000201608010002001JAIRO MORENO VASQUEZ                              C000000000020800000000000000000000100010010000000000000000000000F0010000008925600420160801000101 00000000000000000000000000000000000000000000000000000000000000000000000000000000000000000000000000000000000000000N 00000000000NCONT   00    00000000000          00000000000000000000000000000000000000000000 000000000000000A000000000000000000000000000000000000000000000 000000000000000000000000000000000000000     00000000                                                                                                                        000000000000000000
F0010000008925600005000000560754200013552100000000000000000201608010002001JAIRO MORENO VASQUEZ                              D000000000020800000000000000000000100010010000000000000000000000F0010000008925600520160801000101 00000000000000000000000000000000000000000000000000000000000000000000000000000000000000000000000000000000000000000N 00000000000NCONT   00    00000000000          00000000000000000000000000000000000000000000 000000000000000A000000000000000000000000000000000000000000000 000000000000000000000000000000000000000     00000000                                                                                                                        000000000000000000
F0010000008925700001000007200205100011050500000000000000000201608010002001LUIS MOLINA                                       D000000001100000000000000000000000100010010000000000000000000000F0010000008925700120160801000101 00000000000000000000000000000000000000000000000000000000000000000000000000000000000000000000000000000000000000000N 00000000000NCONT   00    00000000000          00000000000000000000000000000000000000000000 000000000000000A000000000000000000000000000000000000000000000 000000000000000000000000000000000000000     00000000                                                                                                                        000000000000000000
F0010000008925700002000007200205100041450500000000000000000201608010002001LUIS MOLINA                                       C000000001000000000000000000000000100010010000000000000000000000F0010000008925700220160801000101 00000000000000000000000000000000000000000000000000000000000000000000000000000000000000000000000000000000000000000N 00000000000NCONT   00    00000000000          00000000000000000000000000000000000000000000 000000000000000A000000000000000000000000000000000000000000000 000000000000000000000000000000000000000     00000000                                                                                                                        000000000000000000
F0010000008925700003000007200205100042505000000000000000000201608010002001LUIS MOLINA                                       C000000000100000000000000000000000100010010000000000000000000000F0010000008925700320160801000101 00000000000000000000000000000000000000000000000000000000000000000000000000000000000000000000000000000000000000000N 00000000000NCONT   00    00000000000          00000000000000000000000000000000000000000000 000000000000000A000000000000000000000000000000000000000000000 000000000000000000000000000000000000000     00000000                                                                                                                        000000000000000000
F0010000008925700004000007200205100023658300000000000000000201608010002001LUIS MOLINA                                       C000000000008000000000000000000000100010010000000000000000000000F0010000008925700420160801000101 00000000000000000000000000000000000000000000000000000000000000000000000000000000000000000000000000000000000000000N 00000000000NCONT   00    00000000000          00000000000000000000000000000000000000000000 000000000000000A000000000000000000000000000000000000000000000 000000000000000000000000000000000000000     00000000                                                                                                                        000000000000000000
F0010000008925700005000007200205100013552100000000000000000201608010002001LUIS MOLINA                                       D000000000008000000000000000000000100010010000000000000000000000F0010000008925700520160801000101 00000000000000000000000000000000000000000000000000000000000000000000000000000000000000000000000000000000000000000N 00000000000NCONT   00    00000000000          00000000000000000000000000000000000000000000 000000000000000A000000000000000000000000000000000000000000000 000000000000000000000000000000000000000     00000000                                                                                                                        000000000000000000
F0010000008925800001000090025720400011050500000000000000000201608010002001TELARES MEDELLIN HOGAR SA                         D000000002200000000000000000000000100010010000000000000000000000F0010000008925800120160801000101 00000000000000000000000000000000000000000000000000000000000000000000000000000000000000000000000000000000000000000N 00000000000NCONT   00    00000000000          00000000000000000000000000000000000000000000 000000000000000A000000000000000000000000000000000000000000000 000000000000000000000000000000000000000     00000000                                                                                                                        000000000000000000
F0010000008925800002000090025720400041450500000000000000000201608010002001TELARES MEDELLIN HOGAR SA                         C000000001900000000000000000000000100010010000000000000000000000F0010000008925800220160801000101 00000000000000000000000000000000000000000000000000000000000000000000000000000000000000000000000000000000000000000N 00000000000NCONT   00    00000000000          00000000000000000000000000000000000000000000 000000000000000A000000000000000000000000000000000000000000000 000000000000000000000000000000000000000     00000000                                                                                                                        000000000000000000
F0010000008925800003000090025720400042505000000000000000000201608010002001TELARES MEDELLIN HOGAR SA                         C000000000300000000000000000000000100010010000000000000000000000F0010000008925800320160801000101 00000000000000000000000000000000000000000000000000000000000000000000000000000000000000000000000000000000000000000N 00000000000NCONT   00    00000000000          00000000000000000000000000000000000000000000 000000000000000A000000000000000000000000000000000000000000000 000000000000000000000000000000000000000     00000000                                                                                                                        000000000000000000
F0010000008925800004000090025720400023658300000000000000000201608010002001TELARES MEDELLIN HOGAR SA                         C000000000015200000000000000000000100010010000000000000000000000F0010000008925800420160801000101 00000000000000000000000000000000000000000000000000000000000000000000000000000000000000000000000000000000000000000N 00000000000NCONT   00    00000000000          00000000000000000000000000000000000000000000 000000000000000A000000000000000000000000000000000000000000000 000000000000000000000000000000000000000     00000000                                                                                                                        000000000000000000
F0010000008925800005000090025720400013552100000000000000000201608010002001TELARES MEDELLIN HOGAR SA                         D000000000015200000000000000000000100010010000000000000000000000F0010000008925800520160801000101 00000000000000000000000000000000000000000000000000000000000000000000000000000000000000000000000000000000000000000N 00000000000NCONT   00    00000000000          00000000000000000000000000000000000000000000 000000000000000A000000000000000000000000000000000000000000000 000000000000000000000000000000000000000     00000000                                                                                                                        000000000000000000
F0010000008925900001000002245670100011050500000000000000000201608010002001YOLANDA  TOBON                                    D000000001300000000000000000000000100010010000000000000000000000F0010000008925900120160801000101 00000000000000000000000000000000000000000000000000000000000000000000000000000000000000000000000000000000000000000N 00000000000NCONT   00    00000000000          00000000000000000000000000000000000000000000 000000000000000A000000000000000000000000000000000000000000000 000000000000000000000000000000000000000     00000000                                                                                                                        000000000000000000
F0010000008925900002000002245670100041450500000000000000000201608010002001YOLANDA  TOBON                                    C000000001000000000000000000000000100010010000000000000000000000F0010000008925900220160801000101 00000000000000000000000000000000000000000000000000000000000000000000000000000000000000000000000000000000000000000N 00000000000NCONT   00    00000000000          00000000000000000000000000000000000000000000 000000000000000A000000000000000000000000000000000000000000000 000000000000000000000000000000000000000     00000000                                                                                                                        000000000000000000
F0010000008925900003000002245670100042505000000000000000000201608010002001YOLANDA  TOBON                                    C000000000300000000000000000000000100010010000000000000000000000F0010000008925900320160801000101 00000000000000000000000000000000000000000000000000000000000000000000000000000000000000000000000000000000000000000N 00000000000NCONT   00    00000000000          00000000000000000000000000000000000000000000 000000000000000A000000000000000000000000000000000000000000000 000000000000000000000000000000000000000     00000000                                                                                                                        000000000000000000
F0010000008925900004000002245670100023658300000000000000000201608010002001YOLANDA  TOBON                                    C000000000008000000000000000000000100010010000000000000000000000F0010000008925900420160801000101 00000000000000000000000000000000000000000000000000000000000000000000000000000000000000000000000000000000000000000N 00000000000NCONT   00    00000000000          00000000000000000000000000000000000000000000 000000000000000A000000000000000000000000000000000000000000000 000000000000000000000000000000000000000     00000000                                                                                                                        000000000000000000
F0010000008925900005000002245670100013552100000000000000000201608010002001YOLANDA  TOBON                                    D000000000008000000000000000000000100010010000000000000000000000F0010000008925900520160801000101 00000000000000000000000000000000000000000000000000000000000000000000000000000000000000000000000000000000000000000N 00000000000NCONT   00    00000000000          00000000000000000000000000000000000000000000 000000000000000A000000000000000000000000000000000000000000000 000000000000000000000000000000000000000     00000000                                                                                                                        000000000000000000
F0010000008926000001000000431178400011050500000000000000000201608010002001EFRAIN ALVAREZ                                    D000000002690000000000000000000000100010010000000000000000000000F0010000008926000120160801000101 00000000000000000000000000000000000000000000000000000000000000000000000000000000000000000000000000000000000000000N 00000000000NCONT   00    00000000000          00000000000000000000000000000000000000000000 000000000000000A000000000000000000000000000000000000000000000 000000000000000000000000000000000000000     00000000                                                                                                                        000000000000000000
F0010000008926000002000000431178400041450500000000000000000201608010002001EFRAIN ALVAREZ                                    C000000002540000000000000000000000100010010000000000000000000000F0010000008926000220160801000101 00000000000000000000000000000000000000000000000000000000000000000000000000000000000000000000000000000000000000000N 00000000000NCONT   00    00000000000          00000000000000000000000000000000000000000000 000000000000000A000000000000000000000000000000000000000000000 000000000000000000000000000000000000000     00000000                                                                                                                        000000000000000000
F0010000008926000003000000431178400042505000000000000000000201608010002001EFRAIN ALVAREZ                                    C000000000150000000000000000000000100010010000000000000000000000F0010000008926000320160801000101 00000000000000000000000000000000000000000000000000000000000000000000000000000000000000000000000000000000000000000N 00000000000NCONT   00    00000000000          00000000000000000000000000000000000000000000 000000000000000A000000000000000000000000000000000000000000000 000000000000000000000000000000000000000     00000000                                                                                                                        000000000000000000
F0010000008926000004000000431178400023658300000000000000000201608010002001EFRAIN ALVAREZ                                    C000000000020300000000000000000000100010010000000000000000000000F0010000008926000420160801000101 00000000000000000000000000000000000000000000000000000000000000000000000000000000000000000000000000000000000000000N 00000000000NCONT   00    00000000000          00000000000000000000000000000000000000000000 000000000000000A000000000000000000000000000000000000000000000 000000000000000000000000000000000000000     00000000                                                                                                                        000000000000000000
F0010000008926000005000000431178400013552100000000000000000201608010002001EFRAIN ALVAREZ                                    D000000000020300000000000000000000100010010000000000000000000000F0010000008926000520160801000101 00000000000000000000000000000000000000000000000000000000000000000000000000000000000000000000000000000000000000000N 00000000000NCONT   00    00000000000          00000000000000000000000000000000000000000000 000000000000000A000000000000000000000000000000000000000000000 000000000000000000000000000000000000000     00000000                                                                                                                        000000000000000000
F0010000008926100001000000431178400011050500000000000000000201608010002001EFRAIN ALVAREZ                                    D000000000970000000000000000000000100010010000000000000000000000F0010000008926100120160801000101 00000000000000000000000000000000000000000000000000000000000000000000000000000000000000000000000000000000000000000N 00000000000NCONT   00    00000000000          00000000000000000000000000000000000000000000 000000000000000A000000000000000000000000000000000000000000000 000000000000000000000000000000000000000     00000000                                                                                                                        000000000000000000
F0010000008926100002000000431178400041450500000000000000000201608010002001EFRAIN ALVAREZ                                    C000000000920000000000000000000000100010010000000000000000000000F0010000008926100220160801000101 00000000000000000000000000000000000000000000000000000000000000000000000000000000000000000000000000000000000000000N 00000000000NCONT   00    00000000000          00000000000000000000000000000000000000000000 000000000000000A000000000000000000000000000000000000000000000 000000000000000000000000000000000000000     00000000                                                                                                                        000000000000000000
F0010000008926100003000000431178400042505000000000000000000201608010002001EFRAIN ALVAREZ                                    C000000000050000000000000000000000100010010000000000000000000000F0010000008926100320160801000101 00000000000000000000000000000000000000000000000000000000000000000000000000000000000000000000000000000000000000000N 00000000000NCONT   00    00000000000          00000000000000000000000000000000000000000000 000000000000000A000000000000000000000000000000000000000000000 000000000000000000000000000000000000000     00000000                                                                                                                        000000000000000000
F0010000008926100004000000431178400023658300000000000000000201608010002001EFRAIN ALVAREZ                                    C000000000007400000000000000000000100010010000000000000000000000F0010000008926100420160801000101 00000000000000000000000000000000000000000000000000000000000000000000000000000000000000000000000000000000000000000N 00000000000NCONT   00    00000000000          00000000000000000000000000000000000000000000 000000000000000A000000000000000000000000000000000000000000000 000000000000000000000000000000000000000     00000000                                                                                                                        000000000000000000
F0010000008926100005000000431178400013552100000000000000000201608010002001EFRAIN ALVAREZ                                    D000000000007400000000000000000000100010010000000000000000000000F0010000008926100520160801000101 00000000000000000000000000000000000000000000000000000000000000000000000000000000000000000000000000000000000000000N 00000000000NCONT   00    00000000000          00000000000000000000000000000000000000000000 000000000000000A000000000000000000000000000000000000000000000 000000000000000000000000000000000000000     00000000                                                                                                                        000000000000000000
F0010000008926200001000000431178400011050500000000000000000201608010002001EFRAIN ALVAREZ                                    D000000003880000000000000000000000100010010000000000000000000000F0010000008926200120160801000101 00000000000000000000000000000000000000000000000000000000000000000000000000000000000000000000000000000000000000000N 00000000000NCONT   00    00000000000          00000000000000000000000000000000000000000000 000000000000000A000000000000000000000000000000000000000000000 000000000000000000000000000000000000000     00000000                                                                                                                        000000000000000000
F0010000008926200002000000431178400041450500000000000000000201608010002001EFRAIN ALVAREZ                                    C000000003680000000000000000000000100010010000000000000000000000F0010000008926200220160801000101 00000000000000000000000000000000000000000000000000000000000000000000000000000000000000000000000000000000000000000N 00000000000NCONT   00    00000000000          00000000000000000000000000000000000000000000 000000000000000A000000000000000000000000000000000000000000000 000000000000000000000000000000000000000     00000000                                                                                                                        000000000000000000
