F0010000006898700001000007222012100011050500000000000000000201503080002001LUIS NAVARRO AVILA                                D000000001000000000000000000000000100010010000000000000000000000F0010000006898700120150308000101 00000000000000000000000000000000000000000000000000000000000000000000000000000000000000000000000000000000000000000N 00000000000NCONT   00    00000000000          00000000000000000000000000000000000000000000 000000000000000A000000000000000000000000000000000000000000000 000000000000000000000000000000000000000     00000000                                                                                                                        000000000000000000
F0010000006898700002000007222012100041450500000000000000000201503080002001LUIS NAVARRO AVILA                                C000000000800000000000000000000000100010010000000000000000000000F0010000006898700220150308000101 00000000000000000000000000000000000000000000000000000000000000000000000000000000000000000000000000000000000000000N 00000000000NCONT   00    00000000000          00000000000000000000000000000000000000000000 000000000000000A000000000000000000000000000000000000000000000 000000000000000000000000000000000000000     00000000                                                                                                                        000000000000000000
F0010000006898700003000007222012100042505000000000000000000201503080002001LUIS NAVARRO AVILA                                C000000000200000000000000000000000100010010000000000000000000000F0010000006898700320150308000101 00000000000000000000000000000000000000000000000000000000000000000000000000000000000000000000000000000000000000000N 00000000000NCONT   00    00000000000          00000000000000000000000000000000000000000000 000000000000000A000000000000000000000000000000000000000000000 000000000000000000000000000000000000000     00000000                                                                                                                        000000000000000000
F0010000006898700004000007222012100023658300000000000000000201503080002001LUIS NAVARRO AVILA                                C000000000006400000000000000000000100010010000000000000000000000F0010000006898700420150308000101 00000000000000000000000000000000000000000000000000000000000000000000000000000000000000000000000000000000000000000N 00000000000NCONT   00    00000000000          00000000000000000000000000000000000000000000 000000000000000A000000000000000000000000000000000000000000000 000000000000000000000000000000000000000     00000000                                                                                                                        000000000000000000
F0010000006898700005000007222012100013552100000000000000000201503080002001LUIS NAVARRO AVILA                                D000000000006400000000000000000000100010010000000000000000000000F0010000006898700520150308000101 00000000000000000000000000000000000000000000000000000000000000000000000000000000000000000000000000000000000000000N 00000000000NCONT   00    00000000000          00000000000000000000000000000000000000000000 000000000000000A000000000000000000000000000000000000000000000 000000000000000000000000000000000000000     00000000                                                                                                                        000000000000000000
F0010000006898800001000007229328500011050500000000000000000201503080002001PV ELECTRIC   DEL CARIBE                          D000000002600000000000000000000000100010010000000000000000000000F0010000006898800120150308000101 00000000000000000000000000000000000000000000000000000000000000000000000000000000000000000000000000000000000000000N 00000000000NCONT   00    00000000000          00000000000000000000000000000000000000000000 000000000000000A000000000000000000000000000000000000000000000 000000000000000000000000000000000000000     00000000                                                                                                                        000000000000000000
F0010000006898800002000007229328500041450500000000000000000201503080002001PV ELECTRIC   DEL CARIBE                          C000000002400000000000000000000000100010010000000000000000000000F0010000006898800220150308000101 00000000000000000000000000000000000000000000000000000000000000000000000000000000000000000000000000000000000000000N 00000000000NCONT   00    00000000000          00000000000000000000000000000000000000000000 000000000000000A000000000000000000000000000000000000000000000 000000000000000000000000000000000000000     00000000                                                                                                                        000000000000000000
F0010000006898800003000007229328500042505000000000000000000201503080002001PV ELECTRIC   DEL CARIBE                          C000000000200000000000000000000000100010010000000000000000000000F0010000006898800320150308000101 00000000000000000000000000000000000000000000000000000000000000000000000000000000000000000000000000000000000000000N 00000000000NCONT   00    00000000000          00000000000000000000000000000000000000000000 000000000000000A000000000000000000000000000000000000000000000 000000000000000000000000000000000000000     00000000                                                                                                                        000000000000000000
F0010000006898800004000007229328500023658300000000000000000201503080002001PV ELECTRIC   DEL CARIBE                          C000000000019200000000000000000000100010010000000000000000000000F0010000006898800420150308000101 00000000000000000000000000000000000000000000000000000000000000000000000000000000000000000000000000000000000000000N 00000000000NCONT   00    00000000000          00000000000000000000000000000000000000000000 000000000000000A000000000000000000000000000000000000000000000 000000000000000000000000000000000000000     00000000                                                                                                                        000000000000000000
F0010000006898800005000007229328500013552100000000000000000201503080002001PV ELECTRIC   DEL CARIBE                          D000000000019200000000000000000000100010010000000000000000000000F0010000006898800520150308000101 00000000000000000000000000000000000000000000000000000000000000000000000000000000000000000000000000000000000000000N 00000000000NCONT   00    00000000000          00000000000000000000000000000000000000000000 000000000000000A000000000000000000000000000000000000000000000 000000000000000000000000000000000000000     00000000                                                                                                                        000000000000000000
