F0010000009963800001000090020872300011050500000000000000000201703260002001INTERSOLES SAS                                    D000000003100000000000000000000000100010010000000000000000000000F0010000009963800120170326000101 00000000000000000000000000000000000000000000000000000000000000000000000000000000000000000000000000000000000000000N 00000000000NCONT   00    00000000000          00000000000000000000000000000000000000000000 000000000000000A000000000000000000000000000000000000000000000 000000000000000000000000000000000000000     00000000                                                                                                                        000000000000000000
F0010000009963800002000090020872300041450500000000000000000201703260002001INTERSOLES SAS                                    C000000003000000000000000000000000100010010000000000000000000000F0010000009963800220170326000101 00000000000000000000000000000000000000000000000000000000000000000000000000000000000000000000000000000000000000000N 00000000000NCONT   00    00000000000          00000000000000000000000000000000000000000000 000000000000000A000000000000000000000000000000000000000000000 000000000000000000000000000000000000000     00000000                                                                                                                        000000000000000000
F0010000009963800003000090020872300042505000000000000000000201703260002001INTERSOLES SAS                                    C000000000100000000000000000000000100010010000000000000000000000F0010000009963800320170326000101 00000000000000000000000000000000000000000000000000000000000000000000000000000000000000000000000000000000000000000N 00000000000NCONT   00    00000000000          00000000000000000000000000000000000000000000 000000000000000A000000000000000000000000000000000000000000000 000000000000000000000000000000000000000     00000000                                                                                                                        000000000000000000
F0010000009963800004000090020872300023658300000000000000000201703260002001INTERSOLES SAS                                    C000000000024000000000000000000000100010010000000000000000000000F0010000009963800420170326000101 00000000000000000000000000000000000000000000000000000000000000000000000000000000000000000000000000000000000000000N 00000000000NCONT   00    00000000000          00000000000000000000000000000000000000000000 000000000000000A000000000000000000000000000000000000000000000 000000000000000000000000000000000000000     00000000                                                                                                                        000000000000000000
F0010000009963800005000090020872300013552100000000000000000201703260002001INTERSOLES SAS                                    D000000000024000000000000000000000100010010000000000000000000000F0010000009963800520170326000101 00000000000000000000000000000000000000000000000000000000000000000000000000000000000000000000000000000000000000000N 00000000000NCONT   00    00000000000          00000000000000000000000000000000000000000000 000000000000000A000000000000000000000000000000000000000000000 000000000000000000000000000000000000000     00000000                                                                                                                        000000000000000000
F0010000009963900001000090034602400011050500000000000000000201703260002001PRODUCTOS NACIONALES PARAFINICOS LA CUSTODIA S.A.SD000000002100000000000000000000000100010010000000000000000000000F0010000009963900120170326000101 00000000000000000000000000000000000000000000000000000000000000000000000000000000000000000000000000000000000000000N 00000000000NCONT   00    00000000000          00000000000000000000000000000000000000000000 000000000000000A000000000000000000000000000000000000000000000 000000000000000000000000000000000000000     00000000                                                                                                                        000000000000000000
F0010000009963900002000090034602400041450500000000000000000201703260002001PRODUCTOS NACIONALES PARAFINICOS LA CUSTODIA S.A.SC000000001900000000000000000000000100010010000000000000000000000F0010000009963900220170326000101 00000000000000000000000000000000000000000000000000000000000000000000000000000000000000000000000000000000000000000N 00000000000NCONT   00    00000000000          00000000000000000000000000000000000000000000 000000000000000A000000000000000000000000000000000000000000000 000000000000000000000000000000000000000     00000000                                                                                                                        000000000000000000
F0010000009963900003000090034602400042505000000000000000000201703260002001PRODUCTOS NACIONALES PARAFINICOS LA CUSTODIA S.A.SC000000000200000000000000000000000100010010000000000000000000000F0010000009963900320170326000101 00000000000000000000000000000000000000000000000000000000000000000000000000000000000000000000000000000000000000000N 00000000000NCONT   00    00000000000          00000000000000000000000000000000000000000000 000000000000000A000000000000000000000000000000000000000000000 000000000000000000000000000000000000000     00000000                                                                                                                        000000000000000000
F0010000009963900004000090034602400023658300000000000000000201703260002001PRODUCTOS NACIONALES PARAFINICOS LA CUSTODIA S.A.SC000000000015200000000000000000000100010010000000000000000000000F0010000009963900420170326000101 00000000000000000000000000000000000000000000000000000000000000000000000000000000000000000000000000000000000000000N 00000000000NCONT   00    00000000000          00000000000000000000000000000000000000000000 000000000000000A000000000000000000000000000000000000000000000 000000000000000000000000000000000000000     00000000                                                                                                                        000000000000000000
F0010000009963900005000090034602400013552100000000000000000201703260002001PRODUCTOS NACIONALES PARAFINICOS LA CUSTODIA S.A.SD000000000015200000000000000000000100010010000000000000000000000F0010000009963900520170326000101 00000000000000000000000000000000000000000000000000000000000000000000000000000000000000000000000000000000000000000N 00000000000NCONT   00    00000000000          00000000000000000000000000000000000000000000 000000000000000A000000000000000000000000000000000000000000000 000000000000000000000000000000000000000     00000000                                                                                                                        000000000000000000
F0010000009964000001000090047820200011050500000000000000000201703260002001MOVILEDS SAS                                      D000000035600000000000000000000000100010010000000000000000000000F0010000009964000120170326000101 00000000000000000000000000000000000000000000000000000000000000000000000000000000000000000000000000000000000000000N 00000000000NCONT   00    00000000000          00000000000000000000000000000000000000000000 000000000000000A000000000000000000000000000000000000000000000 000000000000000000000000000000000000000     00000000                                                                                                                        000000000000000000
F0010000009964000002000090047820200041450500000000000000000201703260002001MOVILEDS SAS                                      C000000030600000000000000000000000100010010000000000000000000000F0010000009964000220170326000101 00000000000000000000000000000000000000000000000000000000000000000000000000000000000000000000000000000000000000000N 00000000000NCONT   00    00000000000          00000000000000000000000000000000000000000000 000000000000000A000000000000000000000000000000000000000000000 000000000000000000000000000000000000000     00000000                                                                                                                        000000000000000000
F0010000009964000003000090047820200042505000000000000000000201703260002001MOVILEDS SAS                                      C000000005000000000000000000000000100010010000000000000000000000F0010000009964000320170326000101 00000000000000000000000000000000000000000000000000000000000000000000000000000000000000000000000000000000000000000N 00000000000NCONT   00    00000000000          00000000000000000000000000000000000000000000 000000000000000A000000000000000000000000000000000000000000000 000000000000000000000000000000000000000     00000000                                                                                                                        000000000000000000
F0010000009964000004000090047820200023658300000000000000000201703260002001MOVILEDS SAS                                      C000000000244800000000000000000000100010010000000000000000000000F0010000009964000420170326000101 00000000000000000000000000000000000000000000000000000000000000000000000000000000000000000000000000000000000000000N 00000000000NCONT   00    00000000000          00000000000000000000000000000000000000000000 000000000000000A000000000000000000000000000000000000000000000 000000000000000000000000000000000000000     00000000                                                                                                                        000000000000000000
F0010000009964000005000090047820200013552100000000000000000201703260002001MOVILEDS SAS                                      D000000000244800000000000000000000100010010000000000000000000000F0010000009964000520170326000101 00000000000000000000000000000000000000000000000000000000000000000000000000000000000000000000000000000000000000000N 00000000000NCONT   00    00000000000          00000000000000000000000000000000000000000000 000000000000000A000000000000000000000000000000000000000000000 000000000000000000000000000000000000000     00000000                                                                                                                        000000000000000000
F0010000009964100001000090047820200011050500000000000000000201703260002001MOVILEDS SAS                                      D000000046700000000000000000000000100010010000000000000000000000F0010000009964100120170326000101 00000000000000000000000000000000000000000000000000000000000000000000000000000000000000000000000000000000000000000N 00000000000NCONT   00    00000000000          00000000000000000000000000000000000000000000 000000000000000A000000000000000000000000000000000000000000000 000000000000000000000000000000000000000     00000000                                                                                                                        000000000000000000
F0010000009964100002000090047820200041450500000000000000000201703260002001MOVILEDS SAS                                      C000000041700000000000000000000000100010010000000000000000000000F0010000009964100220170326000101 00000000000000000000000000000000000000000000000000000000000000000000000000000000000000000000000000000000000000000N 00000000000NCONT   00    00000000000          00000000000000000000000000000000000000000000 000000000000000A000000000000000000000000000000000000000000000 000000000000000000000000000000000000000     00000000                                                                                                                        000000000000000000
F0010000009964100003000090047820200042505000000000000000000201703260002001MOVILEDS SAS                                      C000000005000000000000000000000000100010010000000000000000000000F0010000009964100320170326000101 00000000000000000000000000000000000000000000000000000000000000000000000000000000000000000000000000000000000000000N 00000000000NCONT   00    00000000000          00000000000000000000000000000000000000000000 000000000000000A000000000000000000000000000000000000000000000 000000000000000000000000000000000000000     00000000                                                                                                                        000000000000000000
F0010000009964100004000090047820200023658300000000000000000201703260002001MOVILEDS SAS                                      C000000000333600000000000000000000100010010000000000000000000000F0010000009964100420170326000101 00000000000000000000000000000000000000000000000000000000000000000000000000000000000000000000000000000000000000000N 00000000000NCONT   00    00000000000          00000000000000000000000000000000000000000000 000000000000000A000000000000000000000000000000000000000000000 000000000000000000000000000000000000000     00000000                                                                                                                        000000000000000000
F0010000009964100005000090047820200013552100000000000000000201703260002001MOVILEDS SAS                                      D000000000333600000000000000000000100010010000000000000000000000F0010000009964100520170326000101 00000000000000000000000000000000000000000000000000000000000000000000000000000000000000000000000000000000000000000N 00000000000NCONT   00    00000000000          00000000000000000000000000000000000000000000 000000000000000A000000000000000000000000000000000000000000000 000000000000000000000000000000000000000     00000000                                                                                                                        000000000000000000
