F0010000006861300001000000860054200011050500000000000000000201502260002001HENRY DE LA HOZ                                   D000000002900000000000000000000000100010010000000000000000000000F0010000006861300120150226000101 00000000000000000000000000000000000000000000000000000000000000000000000000000000000000000000000000000000000000000N 00000000000NCONT   00    00000000000          00000000000000000000000000000000000000000000 000000000000000A000000000000000000000000000000000000000000000 000000000000000000000000000000000000000     00000000                                                                                                                        000000000000000000
F0010000006861300002000000860054200041450500000000000000000201502260002001HENRY DE LA HOZ                                   C000000002400000000000000000000000100010010000000000000000000000F0010000006861300220150226000101 00000000000000000000000000000000000000000000000000000000000000000000000000000000000000000000000000000000000000000N 00000000000NCONT   00    00000000000          00000000000000000000000000000000000000000000 000000000000000A000000000000000000000000000000000000000000000 000000000000000000000000000000000000000     00000000                                                                                                                        000000000000000000
F0010000006861300003000000860054200042505000000000000000000201502260002001HENRY DE LA HOZ                                   C000000000500000000000000000000000100010010000000000000000000000F0010000006861300320150226000101 00000000000000000000000000000000000000000000000000000000000000000000000000000000000000000000000000000000000000000N 00000000000NCONT   00    00000000000          00000000000000000000000000000000000000000000 000000000000000A000000000000000000000000000000000000000000000 000000000000000000000000000000000000000     00000000                                                                                                                        000000000000000000
F0010000006861300004000000860054200023658300000000000000000201502260002001HENRY DE LA HOZ                                   C000000000019200000000000000000000100010010000000000000000000000F0010000006861300420150226000101 00000000000000000000000000000000000000000000000000000000000000000000000000000000000000000000000000000000000000000N 00000000000NCONT   00    00000000000          00000000000000000000000000000000000000000000 000000000000000A000000000000000000000000000000000000000000000 000000000000000000000000000000000000000     00000000                                                                                                                        000000000000000000
F0010000006861300005000000860054200013552100000000000000000201502260002001HENRY DE LA HOZ                                   D000000000019200000000000000000000100010010000000000000000000000F0010000006861300520150226000101 00000000000000000000000000000000000000000000000000000000000000000000000000000000000000000000000000000000000000000N 00000000000NCONT   00    00000000000          00000000000000000000000000000000000000000000 000000000000000A000000000000000000000000000000000000000000000 000000000000000000000000000000000000000     00000000                                                                                                                        000000000000000000
F0010000006861400001000000748239700013050500000000000000000201502260002001RAFAEL NAVARRO URIBE                              D000000074596000000000000000000000100010010000000000000000000000F0010000006861400120150226000101 00000000000000000000000000000000000000000000000000000000000000000000000000000000000000000000000000000000000000000N 00000000000NCONT   00    00000000000          00000000000000000000000000000000000000000000 000000000000000A000000000000000000000000000000000000000000000 000000000000000000000000000000000000000     00000000                                                                                                                        000000000000000000
F0010000006861400002000000748239700041450500000000000000000201502260002001RAFAEL NAVARRO URIBE                              C000000059380000000000000000000000100010010000000000000000000000F0010000006861400220150226000101 00000000000000000000000000000000000000000000000000000000000000000000000000000000000000000000000000000000000000000N 00000000000NCONT   00    00000000000          00000000000000000000000000000000000000000000 000000000000000A000000000000000000000000000000000000000000000 000000000000000000000000000000000000000     00000000                                                                                                                        000000000000000000
F0010000006861400003000000748239700042505000000000000000000201502260002001RAFAEL NAVARRO URIBE                              C000000015216000000000000000000000100010010000000000000000000000F0010000006861400320150226000101 00000000000000000000000000000000000000000000000000000000000000000000000000000000000000000000000000000000000000000N 00000000000NCONT   00    00000000000          00000000000000000000000000000000000000000000 000000000000000A000000000000000000000000000000000000000000000 000000000000000000000000000000000000000     00000000                                                                                                                        000000000000000000
F0010000006861400004000000748239700023658300000000000000000201502260002001RAFAEL NAVARRO URIBE                              C000000000475000000000000000000000100010010000000000000000000000F0010000006861400420150226000101 00000000000000000000000000000000000000000000000000000000000000000000000000000000000000000000000000000000000000000N 00000000000NCONT   00    00000000000          00000000000000000000000000000000000000000000 000000000000000A000000000000000000000000000000000000000000000 000000000000000000000000000000000000000     00000000                                                                                                                        000000000000000000
F0010000006861400005000000748239700013552100000000000000000201502260002001RAFAEL NAVARRO URIBE                              D000000000475000000000000000000000100010010000000000000000000000F0010000006861400520150226000101 00000000000000000000000000000000000000000000000000000000000000000000000000000000000000000000000000000000000000000N 00000000000NCONT   00    00000000000          00000000000000000000000000000000000000000000 000000000000000A000000000000000000000000000000000000000000000 000000000000000000000000000000000000000     00000000                                                                                                                        000000000000000000
F0010000006861500001000007215896800013050500000000000000000201502260002001EDDIER CIRO                                       D000000017837700000000000000000000100010010000000000000000000000F0010000006861500120150226000101 00000000000000000000000000000000000000000000000000000000000000000000000000000000000000000000000000000000000000000N 00000000000NCONT   00    00000000000          00000000000000000000000000000000000000000000 000000000000000A000000000000000000000000000000000000000000000 000000000000000000000000000000000000000     00000000                                                                                                                        000000000000000000
F0010000006861500002000007215896800041450500000000000000000201502260002001EDDIER CIRO                                       C000000012330000000000000000000000100010010000000000000000000000F0010000006861500220150226000101 00000000000000000000000000000000000000000000000000000000000000000000000000000000000000000000000000000000000000000N 00000000000NCONT   00    00000000000          00000000000000000000000000000000000000000000 000000000000000A000000000000000000000000000000000000000000000 000000000000000000000000000000000000000     00000000                                                                                                                        000000000000000000
F0010000006861500003000007215896800042505000000000000000000201502260002001EDDIER CIRO                                       C000000005507700000000000000000000100010010000000000000000000000F0010000006861500320150226000101 00000000000000000000000000000000000000000000000000000000000000000000000000000000000000000000000000000000000000000N 00000000000NCONT   00    00000000000          00000000000000000000000000000000000000000000 000000000000000A000000000000000000000000000000000000000000000 000000000000000000000000000000000000000     00000000                                                                                                                        000000000000000000
F0010000006861500004000007215896800023658300000000000000000201502260002001EDDIER CIRO                                       C000000000098600000000000000000000100010010000000000000000000000F0010000006861500420150226000101 00000000000000000000000000000000000000000000000000000000000000000000000000000000000000000000000000000000000000000N 00000000000NCONT   00    00000000000          00000000000000000000000000000000000000000000 000000000000000A000000000000000000000000000000000000000000000 000000000000000000000000000000000000000     00000000                                                                                                                        000000000000000000
F0010000006861500005000007215896800013552100000000000000000201502260002001EDDIER CIRO                                       D000000000098600000000000000000000100010010000000000000000000000F0010000006861500520150226000101 00000000000000000000000000000000000000000000000000000000000000000000000000000000000000000000000000000000000000000N 00000000000NCONT   00    00000000000          00000000000000000000000000000000000000000000 000000000000000A000000000000000000000000000000000000000000000 000000000000000000000000000000000000000     00000000                                                                                                                        000000000000000000
F0010000006861600001000080201127600013050500000000000000000201502260002001ELECTRICOS DEL RUIZ S.A.S.                        D000000028842000000000000000000000100010010000000000000000000000F0010000006861600120150226000101 00000000000000000000000000000000000000000000000000000000000000000000000000000000000000000000000000000000000000000N 00000000000NCONT   00    00000000000          00000000000000000000000000000000000000000000 000000000000000A000000000000000000000000000000000000000000000 000000000000000000000000000000000000000     00000000                                                                                                                        000000000000000000
F0010000006861600002000080201127600041450500000000000000000201502260002001ELECTRICOS DEL RUIZ S.A.S.                        C000000022470000000000000000000000100010010000000000000000000000F0010000006861600220150226000101 00000000000000000000000000000000000000000000000000000000000000000000000000000000000000000000000000000000000000000N 00000000000NCONT   00    00000000000          00000000000000000000000000000000000000000000 000000000000000A000000000000000000000000000000000000000000000 000000000000000000000000000000000000000     00000000                                                                                                                        000000000000000000
F0010000006861600003000080201127600042505000000000000000000201502260002001ELECTRICOS DEL RUIZ S.A.S.                        C000000006372000000000000000000000100010010000000000000000000000F0010000006861600320150226000101 00000000000000000000000000000000000000000000000000000000000000000000000000000000000000000000000000000000000000000N 00000000000NCONT   00    00000000000          00000000000000000000000000000000000000000000 000000000000000A000000000000000000000000000000000000000000000 000000000000000000000000000000000000000     00000000                                                                                                                        000000000000000000
F0010000006861600004000080201127600023658300000000000000000201502260002001ELECTRICOS DEL RUIZ S.A.S.                        C000000000179800000000000000000000100010010000000000000000000000F0010000006861600420150226000101 00000000000000000000000000000000000000000000000000000000000000000000000000000000000000000000000000000000000000000N 00000000000NCONT   00    00000000000          00000000000000000000000000000000000000000000 000000000000000A000000000000000000000000000000000000000000000 000000000000000000000000000000000000000     00000000                                                                                                                        000000000000000000
F0010000006861600005000080201127600013552100000000000000000201502260002001ELECTRICOS DEL RUIZ S.A.S.                        D000000000179800000000000000000000100010010000000000000000000000F0010000006861600520150226000101 00000000000000000000000000000000000000000000000000000000000000000000000000000000000000000000000000000000000000000N 00000000000NCONT   00    00000000000          00000000000000000000000000000000000000000000 000000000000000A000000000000000000000000000000000000000000000 000000000000000000000000000000000000000     00000000                                                                                                                        000000000000000000
F0010000006861700001000090007142100013050500000000000000000201502260002001TODO BELLEZA Y MAX S.A.S                          D000000011575000000000000000000000100010010000000000000000000000F0010000006861700120150226000101 00000000000000000000000000000000000000000000000000000000000000000000000000000000000000000000000000000000000000000N 00000000000NCONT   00    00000000000          00000000000000000000000000000000000000000000 000000000000000A000000000000000000000000000000000000000000000 000000000000000000000000000000000000000     00000000                                                                                                                        000000000000000000
F0010000006861700002000090007142100041450500000000000000000201502260002001TODO BELLEZA Y MAX S.A.S                          C000000010950000000000000000000000100010010000000000000000000000F0010000006861700220150226000101 00000000000000000000000000000000000000000000000000000000000000000000000000000000000000000000000000000000000000000N 00000000000NCONT   00    00000000000          00000000000000000000000000000000000000000000 000000000000000A000000000000000000000000000000000000000000000 000000000000000000000000000000000000000     00000000                                                                                                                        000000000000000000
F0010000006861700003000090007142100042505000000000000000000201502260002001TODO BELLEZA Y MAX S.A.S                          C000000000625000000000000000000000100010010000000000000000000000F0010000006861700320150226000101 00000000000000000000000000000000000000000000000000000000000000000000000000000000000000000000000000000000000000000N 00000000000NCONT   00    00000000000          00000000000000000000000000000000000000000000 000000000000000A000000000000000000000000000000000000000000000 000000000000000000000000000000000000000     00000000                                                                                                                        000000000000000000
F0010000006861700004000090007142100023658300000000000000000201502260002001TODO BELLEZA Y MAX S.A.S                          C000000000087600000000000000000000100010010000000000000000000000F0010000006861700420150226000101 00000000000000000000000000000000000000000000000000000000000000000000000000000000000000000000000000000000000000000N 00000000000NCONT   00    00000000000          00000000000000000000000000000000000000000000 000000000000000A000000000000000000000000000000000000000000000 000000000000000000000000000000000000000     00000000                                                                                                                        000000000000000000
F0010000006861700005000090007142100013552100000000000000000201502260002001TODO BELLEZA Y MAX S.A.S                          D000000000087600000000000000000000100010010000000000000000000000F0010000006861700520150226000101 00000000000000000000000000000000000000000000000000000000000000000000000000000000000000000000000000000000000000000N 00000000000NCONT   00    00000000000          00000000000000000000000000000000000000000000 000000000000000A000000000000000000000000000000000000000000000 000000000000000000000000000000000000000     00000000                                                                                                                        000000000000000000
F0010000006861800001000090013324200013050500000000000000000201502260002001PLASTICOHEN E.U                                   D000000003640000000000000000000000100010010000000000000000000000F0010000006861800120150226000101 00000000000000000000000000000000000000000000000000000000000000000000000000000000000000000000000000000000000000000N 00000000000NCONT   00    00000000000          00000000000000000000000000000000000000000000 000000000000000A000000000000000000000000000000000000000000000 000000000000000000000000000000000000000     00000000                                                                                                                        000000000000000000
F0010000006861800002000090013324200041450500000000000000000201502260002001PLASTICOHEN E.U                                   C000000003440000000000000000000000100010010000000000000000000000F0010000006861800220150226000101 00000000000000000000000000000000000000000000000000000000000000000000000000000000000000000000000000000000000000000N 00000000000NCONT   00    00000000000          00000000000000000000000000000000000000000000 000000000000000A000000000000000000000000000000000000000000000 000000000000000000000000000000000000000     00000000                                                                                                                        000000000000000000
F0010000006861800003000090013324200042505000000000000000000201502260002001PLASTICOHEN E.U                                   C000000000200000000000000000000000100010010000000000000000000000F0010000006861800320150226000101 00000000000000000000000000000000000000000000000000000000000000000000000000000000000000000000000000000000000000000N 00000000000NCONT   00    00000000000          00000000000000000000000000000000000000000000 000000000000000A000000000000000000000000000000000000000000000 000000000000000000000000000000000000000     00000000                                                                                                                        000000000000000000
F0010000006861800004000090013324200023658300000000000000000201502260002001PLASTICOHEN E.U                                   C000000000027500000000000000000000100010010000000000000000000000F0010000006861800420150226000101 00000000000000000000000000000000000000000000000000000000000000000000000000000000000000000000000000000000000000000N 00000000000NCONT   00    00000000000          00000000000000000000000000000000000000000000 000000000000000A000000000000000000000000000000000000000000000 000000000000000000000000000000000000000     00000000                                                                                                                        000000000000000000
F0010000006861800005000090013324200013552100000000000000000201502260002001PLASTICOHEN E.U                                   D000000000027500000000000000000000100010010000000000000000000000F0010000006861800520150226000101 00000000000000000000000000000000000000000000000000000000000000000000000000000000000000000000000000000000000000000N 00000000000NCONT   00    00000000000          00000000000000000000000000000000000000000000 000000000000000A000000000000000000000000000000000000000000000 000000000000000000000000000000000000000     00000000                                                                                                                        000000000000000000
F0010000006861900001000090008711200013050500000000000000000201502260002001PACKAGING SUPPLIERS S.A.                          D000000064556800000000000000000000100010010000000000000000000000F0010000006861900120150226000101 00000000000000000000000000000000000000000000000000000000000000000000000000000000000000000000000000000000000000000N 00000000000NCONT   00    00000000000          00000000000000000000000000000000000000000000 000000000000000A000000000000000000000000000000000000000000000 000000000000000000000000000000000000000     00000000                                                                                                                        000000000000000000
F0010000006861900002000090008711200041450500000000000000000201502260002001PACKAGING SUPPLIERS S.A.                          C000000062150500000000000000000000100010010000000000000000000000F0010000006861900220150226000101 00000000000000000000000000000000000000000000000000000000000000000000000000000000000000000000000000000000000000000N 00000000000NCONT   00    00000000000          00000000000000000000000000000000000000000000 000000000000000A000000000000000000000000000000000000000000000 000000000000000000000000000000000000000     00000000                                                                                                                        000000000000000000
F0010000006861900003000090008711200042505000000000000000000201502260002001PACKAGING SUPPLIERS S.A.                          C000000002406300000000000000000000100010010000000000000000000000F0010000006861900320150226000101 00000000000000000000000000000000000000000000000000000000000000000000000000000000000000000000000000000000000000000N 00000000000NCONT   00    00000000000          00000000000000000000000000000000000000000000 000000000000000A000000000000000000000000000000000000000000000 000000000000000000000000000000000000000     00000000                                                                                                                        000000000000000000
F0010000006861900004000090008711200023658300000000000000000201502260002001PACKAGING SUPPLIERS S.A.                          C000000000497200000000000000000000100010010000000000000000000000F0010000006861900420150226000101 00000000000000000000000000000000000000000000000000000000000000000000000000000000000000000000000000000000000000000N 00000000000NCONT   00    00000000000          00000000000000000000000000000000000000000000 000000000000000A000000000000000000000000000000000000000000000 000000000000000000000000000000000000000     00000000                                                                                                                        000000000000000000
F0010000006861900005000090008711200013552100000000000000000201502260002001PACKAGING SUPPLIERS S.A.                          D000000000497200000000000000000000100010010000000000000000000000F0010000006861900520150226000101 00000000000000000000000000000000000000000000000000000000000000000000000000000000000000000000000000000000000000000N 00000000000NCONT   00    00000000000          00000000000000000000000000000000000000000000 000000000000000A000000000000000000000000000000000000000000000 000000000000000000000000000000000000000     00000000                                                                                                                        000000000000000000
F0010000006862000001000089010260300013050500000000000000000201502260002001FEDERICO OSORIO A. S.A.                           D000000119458300000000000000000000100010010000000000000000000000F0010000006862000120150226000101 00000000000000000000000000000000000000000000000000000000000000000000000000000000000000000000000000000000000000000N 00000000000NCONT   00    00000000000          00000000000000000000000000000000000000000000 000000000000000A000000000000000000000000000000000000000000000 000000000000000000000000000000000000000     00000000                                                                                                                        000000000000000000
F0010000006862000002000089010260300041450500000000000000000201502260002001FEDERICO OSORIO A. S.A.                           C000000109030000000000000000000000100010010000000000000000000000F0010000006862000220150226000101 00000000000000000000000000000000000000000000000000000000000000000000000000000000000000000000000000000000000000000N 00000000000NCONT   00    00000000000          00000000000000000000000000000000000000000000 000000000000000A000000000000000000000000000000000000000000000 000000000000000000000000000000000000000     00000000                                                                                                                        000000000000000000
F0010000006862000003000089010260300042505000000000000000000201502260002001FEDERICO OSORIO A. S.A.                           C000000010428300000000000000000000100010010000000000000000000000F0010000006862000320150226000101 00000000000000000000000000000000000000000000000000000000000000000000000000000000000000000000000000000000000000000N 00000000000NCONT   00    00000000000          00000000000000000000000000000000000000000000 000000000000000A000000000000000000000000000000000000000000000 000000000000000000000000000000000000000     00000000                                                                                                                        000000000000000000
F0010000006862000004000089010260300023658300000000000000000201502260002001FEDERICO OSORIO A. S.A.                           C000000000872200000000000000000000100010010000000000000000000000F0010000006862000420150226000101 00000000000000000000000000000000000000000000000000000000000000000000000000000000000000000000000000000000000000000N 00000000000NCONT   00    00000000000          00000000000000000000000000000000000000000000 000000000000000A000000000000000000000000000000000000000000000 000000000000000000000000000000000000000     00000000                                                                                                                        000000000000000000
F0010000006862000005000089010260300013552100000000000000000201502260002001FEDERICO OSORIO A. S.A.                           D000000000872200000000000000000000100010010000000000000000000000F0010000006862000520150226000101 00000000000000000000000000000000000000000000000000000000000000000000000000000000000000000000000000000000000000000N 00000000000NCONT   00    00000000000          00000000000000000000000000000000000000000000 000000000000000A000000000000000000000000000000000000000000000 000000000000000000000000000000000000000     00000000                                                                                                                        000000000000000000
F0010000006862100001000090064982900013050500000000000000000201502260002001DISDIES S.A.S                                     D000000042243300000000000000000000100010010000000000000000000000F0010000006862100120150226000101 00000000000000000000000000000000000000000000000000000000000000000000000000000000000000000000000000000000000000000N 00000000000NCONT   00    00000000000          00000000000000000000000000000000000000000000 000000000000000A000000000000000000000000000000000000000000000 000000000000000000000000000000000000000     00000000                                                                                                                        000000000000000000
F0010000006862100002000090064982900041450500000000000000000201502260002001DISDIES S.A.S                                     C000000037033100000000000000000000100010010000000000000000000000F0010000006862100220150226000101 00000000000000000000000000000000000000000000000000000000000000000000000000000000000000000000000000000000000000000N 00000000000NCONT   00    00000000000          00000000000000000000000000000000000000000000 000000000000000A000000000000000000000000000000000000000000000 000000000000000000000000000000000000000     00000000                                                                                                                        000000000000000000
F0010000006862100003000090064982900042505000000000000000000201502260002001DISDIES S.A.S                                     C000000005210200000000000000000000100010010000000000000000000000F0010000006862100320150226000101 00000000000000000000000000000000000000000000000000000000000000000000000000000000000000000000000000000000000000000N 00000000000NCONT   00    00000000000          00000000000000000000000000000000000000000000 000000000000000A000000000000000000000000000000000000000000000 000000000000000000000000000000000000000     00000000                                                                                                                        000000000000000000
F0010000006862100004000090064982900023658300000000000000000201502260002001DISDIES S.A.S                                     C000000000296300000000000000000000100010010000000000000000000000F0010000006862100420150226000101 00000000000000000000000000000000000000000000000000000000000000000000000000000000000000000000000000000000000000000N 00000000000NCONT   00    00000000000          00000000000000000000000000000000000000000000 000000000000000A000000000000000000000000000000000000000000000 000000000000000000000000000000000000000     00000000                                                                                                                        000000000000000000
F0010000006862100005000090064982900013552100000000000000000201502260002001DISDIES S.A.S                                     D000000000296300000000000000000000100010010000000000000000000000F0010000006862100520150226000101 00000000000000000000000000000000000000000000000000000000000000000000000000000000000000000000000000000000000000000N 00000000000NCONT   00    00000000000          00000000000000000000000000000000000000000000 000000000000000A000000000000000000000000000000000000000000000 000000000000000000000000000000000000000     00000000                                                                                                                        000000000000000000
F0010000006862200001000090060531100013050500000000000000000201502260002001RECUBRIMIENTO ESENCIALES SAS                      D000000010160000000000000000000000100010010000000000000000000000F0010000006862200120150226000101 00000000000000000000000000000000000000000000000000000000000000000000000000000000000000000000000000000000000000000N 00000000000NCONT   00    00000000000          00000000000000000000000000000000000000000000 000000000000000A000000000000000000000000000000000000000000000 000000000000000000000000000000000000000     00000000                                                                                                                        000000000000000000
F0010000006862200002000090060531100041450500000000000000000201502260002001RECUBRIMIENTO ESENCIALES SAS                      C000000009660000000000000000000000100010010000000000000000000000F0010000006862200220150226000101 00000000000000000000000000000000000000000000000000000000000000000000000000000000000000000000000000000000000000000N 00000000000NCONT   00    00000000000          00000000000000000000000000000000000000000000 000000000000000A000000000000000000000000000000000000000000000 000000000000000000000000000000000000000     00000000                                                                                                                        000000000000000000
F0010000006862200003000090060531100042505000000000000000000201502260002001RECUBRIMIENTO ESENCIALES SAS                      C000000000500000000000000000000000100010010000000000000000000000F0010000006862200320150226000101 00000000000000000000000000000000000000000000000000000000000000000000000000000000000000000000000000000000000000000N 00000000000NCONT   00    00000000000          00000000000000000000000000000000000000000000 000000000000000A000000000000000000000000000000000000000000000 000000000000000000000000000000000000000     00000000                                                                                                                        000000000000000000
F0010000006862200004000090060531100023658300000000000000000201502260002001RECUBRIMIENTO ESENCIALES SAS                      C000000000077300000000000000000000100010010000000000000000000000F0010000006862200420150226000101 00000000000000000000000000000000000000000000000000000000000000000000000000000000000000000000000000000000000000000N 00000000000NCONT   00    00000000000          00000000000000000000000000000000000000000000 000000000000000A000000000000000000000000000000000000000000000 000000000000000000000000000000000000000     00000000                                                                                                                        000000000000000000
F0010000006862200005000090060531100013552100000000000000000201502260002001RECUBRIMIENTO ESENCIALES SAS                      D000000000077300000000000000000000100010010000000000000000000000F0010000006862200520150226000101 00000000000000000000000000000000000000000000000000000000000000000000000000000000000000000000000000000000000000000N 00000000000NCONT   00    00000000000          00000000000000000000000000000000000000000000 000000000000000A000000000000000000000000000000000000000000000 000000000000000000000000000000000000000     00000000                                                                                                                        000000000000000000
F0010000006862300001000090073498600011050500000000000000000201502260002001VALTAC DEL CARIBE LTDA                            D000000009000000000000000000000000100010010000000000000000000000F0010000006862300120150226000101 00000000000000000000000000000000000000000000000000000000000000000000000000000000000000000000000000000000000000000N 00000000000NCONT   00    00000000000          00000000000000000000000000000000000000000000 000000000000000A000000000000000000000000000000000000000000000 000000000000000000000000000000000000000     00000000                                                                                                                        000000000000000000
F0010000006862300002000090073498600041450500000000000000000201502260002001VALTAC DEL CARIBE LTDA                            C000000008500000000000000000000000100010010000000000000000000000F0010000006862300220150226000101 00000000000000000000000000000000000000000000000000000000000000000000000000000000000000000000000000000000000000000N 00000000000NCONT   00    00000000000          00000000000000000000000000000000000000000000 000000000000000A000000000000000000000000000000000000000000000 000000000000000000000000000000000000000     00000000                                                                                                                        000000000000000000
F0010000006862300003000090073498600042505000000000000000000201502260002001VALTAC DEL CARIBE LTDA                            C000000000500000000000000000000000100010010000000000000000000000F0010000006862300320150226000101 00000000000000000000000000000000000000000000000000000000000000000000000000000000000000000000000000000000000000000N 00000000000NCONT   00    00000000000          00000000000000000000000000000000000000000000 000000000000000A000000000000000000000000000000000000000000000 000000000000000000000000000000000000000     00000000                                                                                                                        000000000000000000
F0010000006862300004000090073498600023658300000000000000000201502260002001VALTAC DEL CARIBE LTDA                            C000000000068000000000000000000000100010010000000000000000000000F0010000006862300420150226000101 00000000000000000000000000000000000000000000000000000000000000000000000000000000000000000000000000000000000000000N 00000000000NCONT   00    00000000000          00000000000000000000000000000000000000000000 000000000000000A000000000000000000000000000000000000000000000 000000000000000000000000000000000000000     00000000                                                                                                                        000000000000000000
F0010000006862300005000090073498600013552100000000000000000201502260002001VALTAC DEL CARIBE LTDA                            D000000000068000000000000000000000100010010000000000000000000000F0010000006862300520150226000101 00000000000000000000000000000000000000000000000000000000000000000000000000000000000000000000000000000000000000000N 00000000000NCONT   00    00000000000          00000000000000000000000000000000000000000000 000000000000000A000000000000000000000000000000000000000000000 000000000000000000000000000000000000000     00000000                                                                                                                        000000000000000000
F0010000006862400001000003207718300011050500000000000000000201502260002001MARIA GILMA RAMIREZ GARCIA                        D000000008000000000000000000000000100010010000000000000000000000F0010000006862400120150226000101 00000000000000000000000000000000000000000000000000000000000000000000000000000000000000000000000000000000000000000N 00000000000NCONT   00    00000000000          00000000000000000000000000000000000000000000 000000000000000A000000000000000000000000000000000000000000000 000000000000000000000000000000000000000     00000000                                                                                                                        000000000000000000
F0010000006862400002000003207718300041450500000000000000000201502260002001MARIA GILMA RAMIREZ GARCIA                        C000000006700000000000000000000000100010010000000000000000000000F0010000006862400220150226000101 00000000000000000000000000000000000000000000000000000000000000000000000000000000000000000000000000000000000000000N 00000000000NCONT   00    00000000000          00000000000000000000000000000000000000000000 000000000000000A000000000000000000000000000000000000000000000 000000000000000000000000000000000000000     00000000                                                                                                                        000000000000000000
F0010000006862400003000003207718300042505000000000000000000201502260002001MARIA GILMA RAMIREZ GARCIA                        C000000001300000000000000000000000100010010000000000000000000000F0010000006862400320150226000101 00000000000000000000000000000000000000000000000000000000000000000000000000000000000000000000000000000000000000000N 00000000000NCONT   00    00000000000          00000000000000000000000000000000000000000000 000000000000000A000000000000000000000000000000000000000000000 000000000000000000000000000000000000000     00000000                                                                                                                        000000000000000000
F0010000006862400004000003207718300023658300000000000000000201502260002001MARIA GILMA RAMIREZ GARCIA                        C000000000053600000000000000000000100010010000000000000000000000F0010000006862400420150226000101 00000000000000000000000000000000000000000000000000000000000000000000000000000000000000000000000000000000000000000N 00000000000NCONT   00    00000000000          00000000000000000000000000000000000000000000 000000000000000A000000000000000000000000000000000000000000000 000000000000000000000000000000000000000     00000000                                                                                                                        000000000000000000
F0010000006862400005000003207718300013552100000000000000000201502260002001MARIA GILMA RAMIREZ GARCIA                        D000000000053600000000000000000000100010010000000000000000000000F0010000006862400520150226000101 00000000000000000000000000000000000000000000000000000000000000000000000000000000000000000000000000000000000000000N 00000000000NCONT   00    00000000000          00000000000000000000000000000000000000000000 000000000000000A000000000000000000000000000000000000000000000 000000000000000000000000000000000000000     00000000                                                                                                                        000000000000000000
F0010000006862500001000004378545100011050500000000000000000201502260002001FLOR MA GARCIA RAMIREZ-COMERC. SANTUARIO          D000000002600000000000000000000000100010010000000000000000000000F0010000006862500120150226000101 00000000000000000000000000000000000000000000000000000000000000000000000000000000000000000000000000000000000000000N 00000000000NCONT   00    00000000000          00000000000000000000000000000000000000000000 000000000000000A000000000000000000000000000000000000000000000 000000000000000000000000000000000000000     00000000                                                                                                                        000000000000000000
F0010000006862500002000004378545100041450500000000000000000201502260002001FLOR MA GARCIA RAMIREZ-COMERC. SANTUARIO          C000000001800000000000000000000000100010010000000000000000000000F0010000006862500220150226000101 00000000000000000000000000000000000000000000000000000000000000000000000000000000000000000000000000000000000000000N 00000000000NCONT   00    00000000000          00000000000000000000000000000000000000000000 000000000000000A000000000000000000000000000000000000000000000 000000000000000000000000000000000000000     00000000                                                                                                                        000000000000000000
F0010000006862500003000004378545100042505000000000000000000201502260002001FLOR MA GARCIA RAMIREZ-COMERC. SANTUARIO          C000000000800000000000000000000000100010010000000000000000000000F0010000006862500320150226000101 00000000000000000000000000000000000000000000000000000000000000000000000000000000000000000000000000000000000000000N 00000000000NCONT   00    00000000000          00000000000000000000000000000000000000000000 000000000000000A000000000000000000000000000000000000000000000 000000000000000000000000000000000000000     00000000                                                                                                                        000000000000000000
F0010000006862500004000004378545100023658300000000000000000201502260002001FLOR MA GARCIA RAMIREZ-COMERC. SANTUARIO          C000000000014400000000000000000000100010010000000000000000000000F0010000006862500420150226000101 00000000000000000000000000000000000000000000000000000000000000000000000000000000000000000000000000000000000000000N 00000000000NCONT   00    00000000000          00000000000000000000000000000000000000000000 000000000000000A000000000000000000000000000000000000000000000 000000000000000000000000000000000000000     00000000                                                                                                                        000000000000000000
F0010000006862500005000004378545100013552100000000000000000201502260002001FLOR MA GARCIA RAMIREZ-COMERC. SANTUARIO          D000000000014400000000000000000000100010010000000000000000000000F0010000006862500520150226000101 00000000000000000000000000000000000000000000000000000000000000000000000000000000000000000000000000000000000000000N 00000000000NCONT   00    00000000000          00000000000000000000000000000000000000000000 000000000000000A000000000000000000000000000000000000000000000 000000000000000000000000000000000000000     00000000                                                                                                                        000000000000000000
F0010000006862600001000090071760000011050500000000000000000201502260002001REFRIGERAR INGENIEROS SAS                         D000000003500000000000000000000000100010010000000000000000000000F0010000006862600120150226000101 00000000000000000000000000000000000000000000000000000000000000000000000000000000000000000000000000000000000000000N 00000000000NCONT   00    00000000000          00000000000000000000000000000000000000000000 000000000000000A000000000000000000000000000000000000000000000 000000000000000000000000000000000000000     00000000                                                                                                                        000000000000000000
F0010000006862600002000090071760000041450500000000000000000201502260002001REFRIGERAR INGENIEROS SAS                         C000000002800000000000000000000000100010010000000000000000000000F0010000006862600220150226000101 00000000000000000000000000000000000000000000000000000000000000000000000000000000000000000000000000000000000000000N 00000000000NCONT   00    00000000000          00000000000000000000000000000000000000000000 000000000000000A000000000000000000000000000000000000000000000 000000000000000000000000000000000000000     00000000                                                                                                                        000000000000000000
F0010000006862600003000090071760000042505000000000000000000201502260002001REFRIGERAR INGENIEROS SAS                         C000000000700000000000000000000000100010010000000000000000000000F0010000006862600320150226000101 00000000000000000000000000000000000000000000000000000000000000000000000000000000000000000000000000000000000000000N 00000000000NCONT   00    00000000000          00000000000000000000000000000000000000000000 000000000000000A000000000000000000000000000000000000000000000 000000000000000000000000000000000000000     00000000                                                                                                                        000000000000000000
F0010000006862600004000090071760000023658300000000000000000201502260002001REFRIGERAR INGENIEROS SAS                         C000000000022400000000000000000000100010010000000000000000000000F0010000006862600420150226000101 00000000000000000000000000000000000000000000000000000000000000000000000000000000000000000000000000000000000000000N 00000000000NCONT   00    00000000000          00000000000000000000000000000000000000000000 000000000000000A000000000000000000000000000000000000000000000 000000000000000000000000000000000000000     00000000                                                                                                                        000000000000000000
F0010000006862600005000090071760000013552100000000000000000201502260002001REFRIGERAR INGENIEROS SAS                         D000000000022400000000000000000000100010010000000000000000000000F0010000006862600520150226000101 00000000000000000000000000000000000000000000000000000000000000000000000000000000000000000000000000000000000000000N 00000000000NCONT   00    00000000000          00000000000000000000000000000000000000000000 000000000000000A000000000000000000000000000000000000000000000 000000000000000000000000000000000000000     00000000                                                                                                                        000000000000000000
F0010000006862700001000090036991700011050500000000000000000201502260002001DELTA INTERNACIONAL  S.A.S                        D000000002700000000000000000000000100010010000000000000000000000F0010000006862700120150226000101 00000000000000000000000000000000000000000000000000000000000000000000000000000000000000000000000000000000000000000N 00000000000NCONT   00    00000000000          00000000000000000000000000000000000000000000 000000000000000A000000000000000000000000000000000000000000000 000000000000000000000000000000000000000     00000000                                                                                                                        000000000000000000
F0010000006862700002000090036991700041450500000000000000000201502260002001DELTA INTERNACIONAL  S.A.S                        C000000002400000000000000000000000100010010000000000000000000000F0010000006862700220150226000101 00000000000000000000000000000000000000000000000000000000000000000000000000000000000000000000000000000000000000000N 00000000000NCONT   00    00000000000          00000000000000000000000000000000000000000000 000000000000000A000000000000000000000000000000000000000000000 000000000000000000000000000000000000000     00000000                                                                                                                        000000000000000000
F0010000006862700003000090036991700042505000000000000000000201502260002001DELTA INTERNACIONAL  S.A.S                        C000000000300000000000000000000000100010010000000000000000000000F0010000006862700320150226000101 00000000000000000000000000000000000000000000000000000000000000000000000000000000000000000000000000000000000000000N 00000000000NCONT   00    00000000000          00000000000000000000000000000000000000000000 000000000000000A000000000000000000000000000000000000000000000 000000000000000000000000000000000000000     00000000                                                                                                                        000000000000000000
F0010000006862700004000090036991700023658300000000000000000201502260002001DELTA INTERNACIONAL  S.A.S                        C000000000019200000000000000000000100010010000000000000000000000F0010000006862700420150226000101 00000000000000000000000000000000000000000000000000000000000000000000000000000000000000000000000000000000000000000N 00000000000NCONT   00    00000000000          00000000000000000000000000000000000000000000 000000000000000A000000000000000000000000000000000000000000000 000000000000000000000000000000000000000     00000000                                                                                                                        000000000000000000
F0010000006862700005000090036991700013552100000000000000000201502260002001DELTA INTERNACIONAL  S.A.S                        D000000000019200000000000000000000100010010000000000000000000000F0010000006862700520150226000101 00000000000000000000000000000000000000000000000000000000000000000000000000000000000000000000000000000000000000000N 00000000000NCONT   00    00000000000          00000000000000000000000000000000000000000000 000000000000000A000000000000000000000000000000000000000000000 000000000000000000000000000000000000000     00000000                                                                                                                        000000000000000000
F0010000006862800001000090034602400011050500000000000000000201502260002001LA CUSTODIA                                       D000000003000000000000000000000000100010010000000000000000000000F0010000006862800120150226000101 00000000000000000000000000000000000000000000000000000000000000000000000000000000000000000000000000000000000000000N 00000000000NCONT   00    00000000000          00000000000000000000000000000000000000000000 000000000000000A000000000000000000000000000000000000000000000 000000000000000000000000000000000000000     00000000                                                                                                                        000000000000000000
F0010000006862800002000090034602400041450500000000000000000201502260002001LA CUSTODIA                                       C000000002700000000000000000000000100010010000000000000000000000F0010000006862800220150226000101 00000000000000000000000000000000000000000000000000000000000000000000000000000000000000000000000000000000000000000N 00000000000NCONT   00    00000000000          00000000000000000000000000000000000000000000 000000000000000A000000000000000000000000000000000000000000000 000000000000000000000000000000000000000     00000000                                                                                                                        000000000000000000
F0010000006862800003000090034602400042505000000000000000000201502260002001LA CUSTODIA                                       C000000000300000000000000000000000100010010000000000000000000000F0010000006862800320150226000101 00000000000000000000000000000000000000000000000000000000000000000000000000000000000000000000000000000000000000000N 00000000000NCONT   00    00000000000          00000000000000000000000000000000000000000000 000000000000000A000000000000000000000000000000000000000000000 000000000000000000000000000000000000000     00000000                                                                                                                        000000000000000000
F0010000006862800004000090034602400023658300000000000000000201502260002001LA CUSTODIA                                       C000000000021600000000000000000000100010010000000000000000000000F0010000006862800420150226000101 00000000000000000000000000000000000000000000000000000000000000000000000000000000000000000000000000000000000000000N 00000000000NCONT   00    00000000000          00000000000000000000000000000000000000000000 000000000000000A000000000000000000000000000000000000000000000 000000000000000000000000000000000000000     00000000                                                                                                                        000000000000000000
F0010000006862800005000090034602400013552100000000000000000201502260002001LA CUSTODIA                                       D000000000021600000000000000000000100010010000000000000000000000F0010000006862800520150226000101 00000000000000000000000000000000000000000000000000000000000000000000000000000000000000000000000000000000000000000N 00000000000NCONT   00    00000000000          00000000000000000000000000000000000000000000 000000000000000A000000000000000000000000000000000000000000000 000000000000000000000000000000000000000     00000000                                                                                                                        000000000000000000
F0010000006862900001000090034602400011050500000000000000000201502260002001LA CUSTODIA                                       D000000003000000000000000000000000100010010000000000000000000000F0010000006862900120150226000101 00000000000000000000000000000000000000000000000000000000000000000000000000000000000000000000000000000000000000000N 00000000000NCONT   00    00000000000          00000000000000000000000000000000000000000000 000000000000000A000000000000000000000000000000000000000000000 000000000000000000000000000000000000000     00000000                                                                                                                        000000000000000000
F0010000006862900002000090034602400041450500000000000000000201502260002001LA CUSTODIA                                       C000000002700000000000000000000000100010010000000000000000000000F0010000006862900220150226000101 00000000000000000000000000000000000000000000000000000000000000000000000000000000000000000000000000000000000000000N 00000000000NCONT   00    00000000000          00000000000000000000000000000000000000000000 000000000000000A000000000000000000000000000000000000000000000 000000000000000000000000000000000000000     00000000                                                                                                                        000000000000000000
F0010000006862900003000090034602400042505000000000000000000201502260002001LA CUSTODIA                                       C000000000300000000000000000000000100010010000000000000000000000F0010000006862900320150226000101 00000000000000000000000000000000000000000000000000000000000000000000000000000000000000000000000000000000000000000N 00000000000NCONT   00    00000000000          00000000000000000000000000000000000000000000 000000000000000A000000000000000000000000000000000000000000000 000000000000000000000000000000000000000     00000000                                                                                                                        000000000000000000
F0010000006862900004000090034602400023658300000000000000000201502260002001LA CUSTODIA                                       C000000000021600000000000000000000100010010000000000000000000000F0010000006862900420150226000101 00000000000000000000000000000000000000000000000000000000000000000000000000000000000000000000000000000000000000000N 00000000000NCONT   00    00000000000          00000000000000000000000000000000000000000000 000000000000000A000000000000000000000000000000000000000000000 000000000000000000000000000000000000000     00000000                                                                                                                        000000000000000000
F0010000006862900005000090034602400013552100000000000000000201502260002001LA CUSTODIA                                       D000000000021600000000000000000000100010010000000000000000000000F0010000006862900520150226000101 00000000000000000000000000000000000000000000000000000000000000000000000000000000000000000000000000000000000000000N 00000000000NCONT   00    00000000000          00000000000000000000000000000000000000000000 000000000000000A000000000000000000000000000000000000000000000 000000000000000000000000000000000000000     00000000                                                                                                                        000000000000000000
F0010000006863000001000086000061500011050500000000000000000201502260002001DISTRIBUIDORA CORDOBA                             D000000008850000000000000000000000100010010000000000000000000000F0010000006863000120150226000101 00000000000000000000000000000000000000000000000000000000000000000000000000000000000000000000000000000000000000000N 00000000000NCONT   00    00000000000          00000000000000000000000000000000000000000000 000000000000000A000000000000000000000000000000000000000000000 000000000000000000000000000000000000000     00000000                                                                                                                        000000000000000000
F0010000006863000002000086000061500041450500000000000000000201502260002001DISTRIBUIDORA CORDOBA                             C000000007650000000000000000000000100010010000000000000000000000F0010000006863000220150226000101 00000000000000000000000000000000000000000000000000000000000000000000000000000000000000000000000000000000000000000N 00000000000NCONT   00    00000000000          00000000000000000000000000000000000000000000 000000000000000A000000000000000000000000000000000000000000000 000000000000000000000000000000000000000     00000000                                                                                                                        000000000000000000
F0010000006863000003000086000061500042505000000000000000000201502260002001DISTRIBUIDORA CORDOBA                             C000000001200000000000000000000000100010010000000000000000000000F0010000006863000320150226000101 00000000000000000000000000000000000000000000000000000000000000000000000000000000000000000000000000000000000000000N 00000000000NCONT   00    00000000000          00000000000000000000000000000000000000000000 000000000000000A000000000000000000000000000000000000000000000 000000000000000000000000000000000000000     00000000                                                                                                                        000000000000000000
F0010000006863000004000086000061500023658300000000000000000201502260002001DISTRIBUIDORA CORDOBA                             C000000000061200000000000000000000100010010000000000000000000000F0010000006863000420150226000101 00000000000000000000000000000000000000000000000000000000000000000000000000000000000000000000000000000000000000000N 00000000000NCONT   00    00000000000          00000000000000000000000000000000000000000000 000000000000000A000000000000000000000000000000000000000000000 000000000000000000000000000000000000000     00000000                                                                                                                        000000000000000000
F0010000006863000005000086000061500013552100000000000000000201502260002001DISTRIBUIDORA CORDOBA                             D000000000061200000000000000000000100010010000000000000000000000F0010000006863000520150226000101 00000000000000000000000000000000000000000000000000000000000000000000000000000000000000000000000000000000000000000N 00000000000NCONT   00    00000000000          00000000000000000000000000000000000000000000 000000000000000A000000000000000000000000000000000000000000000 000000000000000000000000000000000000000     00000000                                                                                                                        000000000000000000
F0010000006863100001000080001063400011050500000000000000000201502260002001PRODUCTOS JULIAO SAS                              D000000002700000000000000000000000100010010000000000000000000000F0010000006863100120150226000101 00000000000000000000000000000000000000000000000000000000000000000000000000000000000000000000000000000000000000000N 00000000000NCONT   00    00000000000          00000000000000000000000000000000000000000000 000000000000000A000000000000000000000000000000000000000000000 000000000000000000000000000000000000000     00000000                                                                                                                        000000000000000000
F0010000006863100002000080001063400041450500000000000000000201502260002001PRODUCTOS JULIAO SAS                              C000000002500000000000000000000000100010010000000000000000000000F0010000006863100220150226000101 00000000000000000000000000000000000000000000000000000000000000000000000000000000000000000000000000000000000000000N 00000000000NCONT   00    00000000000          00000000000000000000000000000000000000000000 000000000000000A000000000000000000000000000000000000000000000 000000000000000000000000000000000000000     00000000                                                                                                                        000000000000000000
F0010000006863100003000080001063400042505000000000000000000201502260002001PRODUCTOS JULIAO SAS                              C000000000200000000000000000000000100010010000000000000000000000F0010000006863100320150226000101 00000000000000000000000000000000000000000000000000000000000000000000000000000000000000000000000000000000000000000N 00000000000NCONT   00    00000000000          00000000000000000000000000000000000000000000 000000000000000A000000000000000000000000000000000000000000000 000000000000000000000000000000000000000     00000000                                                                                                                        000000000000000000
F0010000006863100004000080001063400023658300000000000000000201502260002001PRODUCTOS JULIAO SAS                              C000000000020000000000000000000000100010010000000000000000000000F0010000006863100420150226000101 00000000000000000000000000000000000000000000000000000000000000000000000000000000000000000000000000000000000000000N 00000000000NCONT   00    00000000000          00000000000000000000000000000000000000000000 000000000000000A000000000000000000000000000000000000000000000 000000000000000000000000000000000000000     00000000                                                                                                                        000000000000000000
F0010000006863100005000080001063400013552100000000000000000201502260002001PRODUCTOS JULIAO SAS                              D000000000020000000000000000000000100010010000000000000000000000F0010000006863100520150226000101 00000000000000000000000000000000000000000000000000000000000000000000000000000000000000000000000000000000000000000N 00000000000NCONT   00    00000000000          00000000000000000000000000000000000000000000 000000000000000A000000000000000000000000000000000000000000000 000000000000000000000000000000000000000     00000000                                                                                                                        000000000000000000
F0010000006863200001000090050144800011050500000000000000000201502260002001PLASTICOS JR ASOCIADOS SAS                        D000000001900000000000000000000000100010010000000000000000000000F0010000006863200120150226000101 00000000000000000000000000000000000000000000000000000000000000000000000000000000000000000000000000000000000000000N 00000000000NCONT   00    00000000000          00000000000000000000000000000000000000000000 000000000000000A000000000000000000000000000000000000000000000 000000000000000000000000000000000000000     00000000                                                                                                                        000000000000000000
F0010000006863200002000090050144800041450500000000000000000201502260002001PLASTICOS JR ASOCIADOS SAS                        C000000001700000000000000000000000100010010000000000000000000000F0010000006863200220150226000101 00000000000000000000000000000000000000000000000000000000000000000000000000000000000000000000000000000000000000000N 00000000000NCONT   00    00000000000          00000000000000000000000000000000000000000000 000000000000000A000000000000000000000000000000000000000000000 000000000000000000000000000000000000000     00000000                                                                                                                        000000000000000000
F0010000006863200003000090050144800042505000000000000000000201502260002001PLASTICOS JR ASOCIADOS SAS                        C000000000200000000000000000000000100010010000000000000000000000F0010000006863200320150226000101 00000000000000000000000000000000000000000000000000000000000000000000000000000000000000000000000000000000000000000N 00000000000NCONT   00    00000000000          00000000000000000000000000000000000000000000 000000000000000A000000000000000000000000000000000000000000000 000000000000000000000000000000000000000     00000000                                                                                                                        000000000000000000
F0010000006863200004000090050144800023658300000000000000000201502260002001PLASTICOS JR ASOCIADOS SAS                        C000000000013600000000000000000000100010010000000000000000000000F0010000006863200420150226000101 00000000000000000000000000000000000000000000000000000000000000000000000000000000000000000000000000000000000000000N 00000000000NCONT   00    00000000000          00000000000000000000000000000000000000000000 000000000000000A000000000000000000000000000000000000000000000 000000000000000000000000000000000000000     00000000                                                                                                                        000000000000000000
F0010000006863200005000090050144800013552100000000000000000201502260002001PLASTICOS JR ASOCIADOS SAS                        D000000000013600000000000000000000100010010000000000000000000000F0010000006863200520150226000101 00000000000000000000000000000000000000000000000000000000000000000000000000000000000000000000000000000000000000000N 00000000000NCONT   00    00000000000          00000000000000000000000000000000000000000000 000000000000000A000000000000000000000000000000000000000000000 000000000000000000000000000000000000000     00000000                                                                                                                        000000000000000000
F0010000006863300001000003288324600011050500000000000000000201502260002001DISTRIBUCIONES CONTINENTES                        D000000001400000000000000000000000100010010000000000000000000000F0010000006863300120150226000101 00000000000000000000000000000000000000000000000000000000000000000000000000000000000000000000000000000000000000000N 00000000000NCONT   00    00000000000          00000000000000000000000000000000000000000000 000000000000000A000000000000000000000000000000000000000000000 000000000000000000000000000000000000000     00000000                                                                                                                        000000000000000000
F0010000006863300002000003288324600041450500000000000000000201502260002001DISTRIBUCIONES CONTINENTES                        C000000001300000000000000000000000100010010000000000000000000000F0010000006863300220150226000101 00000000000000000000000000000000000000000000000000000000000000000000000000000000000000000000000000000000000000000N 00000000000NCONT   00    00000000000          00000000000000000000000000000000000000000000 000000000000000A000000000000000000000000000000000000000000000 000000000000000000000000000000000000000     00000000                                                                                                                        000000000000000000
F0010000006863300003000003288324600042505000000000000000000201502260002001DISTRIBUCIONES CONTINENTES                        C000000000100000000000000000000000100010010000000000000000000000F0010000006863300320150226000101 00000000000000000000000000000000000000000000000000000000000000000000000000000000000000000000000000000000000000000N 00000000000NCONT   00    00000000000          00000000000000000000000000000000000000000000 000000000000000A000000000000000000000000000000000000000000000 000000000000000000000000000000000000000     00000000                                                                                                                        000000000000000000
F0010000006863300004000003288324600023658300000000000000000201502260002001DISTRIBUCIONES CONTINENTES                        C000000000010400000000000000000000100010010000000000000000000000F0010000006863300420150226000101 00000000000000000000000000000000000000000000000000000000000000000000000000000000000000000000000000000000000000000N 00000000000NCONT   00    00000000000          00000000000000000000000000000000000000000000 000000000000000A000000000000000000000000000000000000000000000 000000000000000000000000000000000000000     00000000                                                                                                                        000000000000000000
F0010000006863300005000003288324600013552100000000000000000201502260002001DISTRIBUCIONES CONTINENTES                        D000000000010400000000000000000000100010010000000000000000000000F0010000006863300520150226000101 00000000000000000000000000000000000000000000000000000000000000000000000000000000000000000000000000000000000000000N 00000000000NCONT   00    00000000000          00000000000000000000000000000000000000000000 000000000000000A000000000000000000000000000000000000000000000 000000000000000000000000000000000000000     00000000                                                                                                                        000000000000000000
F0010000006863400001000000870907300011050500000000000000000201502260002001SURTIDOR FERRETERO                                D000000001300000000000000000000000100010010000000000000000000000F0010000006863400120150226000101 00000000000000000000000000000000000000000000000000000000000000000000000000000000000000000000000000000000000000000N 00000000000NCONT   00    00000000000          00000000000000000000000000000000000000000000 000000000000000A000000000000000000000000000000000000000000000 000000000000000000000000000000000000000     00000000                                                                                                                        000000000000000000
F0010000006863400002000000870907300041450500000000000000000201502260002001SURTIDOR FERRETERO                                C000000000800000000000000000000000100010010000000000000000000000F0010000006863400220150226000101 00000000000000000000000000000000000000000000000000000000000000000000000000000000000000000000000000000000000000000N 00000000000NCONT   00    00000000000          00000000000000000000000000000000000000000000 000000000000000A000000000000000000000000000000000000000000000 000000000000000000000000000000000000000     00000000                                                                                                                        000000000000000000
F0010000006863400003000000870907300042505000000000000000000201502260002001SURTIDOR FERRETERO                                C000000000500000000000000000000000100010010000000000000000000000F0010000006863400320150226000101 00000000000000000000000000000000000000000000000000000000000000000000000000000000000000000000000000000000000000000N 00000000000NCONT   00    00000000000          00000000000000000000000000000000000000000000 000000000000000A000000000000000000000000000000000000000000000 000000000000000000000000000000000000000     00000000                                                                                                                        000000000000000000
F0010000006863400004000000870907300023658300000000000000000201502260002001SURTIDOR FERRETERO                                C000000000006400000000000000000000100010010000000000000000000000F0010000006863400420150226000101 00000000000000000000000000000000000000000000000000000000000000000000000000000000000000000000000000000000000000000N 00000000000NCONT   00    00000000000          00000000000000000000000000000000000000000000 000000000000000A000000000000000000000000000000000000000000000 000000000000000000000000000000000000000     00000000                                                                                                                        000000000000000000
F0010000006863400005000000870907300013552100000000000000000201502260002001SURTIDOR FERRETERO                                D000000000006400000000000000000000100010010000000000000000000000F0010000006863400520150226000101 00000000000000000000000000000000000000000000000000000000000000000000000000000000000000000000000000000000000000000N 00000000000NCONT   00    00000000000          00000000000000000000000000000000000000000000 000000000000000A000000000000000000000000000000000000000000000 000000000000000000000000000000000000000     00000000                                                                                                                        000000000000000000
F0010000006863500001000003288324600011050500000000000000000201502260002001DISTRIBUCIONES CONTINENTES                        D000000001300000000000000000000000100010010000000000000000000000F0010000006863500120150226000101 00000000000000000000000000000000000000000000000000000000000000000000000000000000000000000000000000000000000000000N 00000000000NCONT   00    00000000000          00000000000000000000000000000000000000000000 000000000000000A000000000000000000000000000000000000000000000 000000000000000000000000000000000000000     00000000                                                                                                                        000000000000000000
F0010000006863500002000003288324600041450500000000000000000201502260002001DISTRIBUCIONES CONTINENTES                        C000000001200000000000000000000000100010010000000000000000000000F0010000006863500220150226000101 00000000000000000000000000000000000000000000000000000000000000000000000000000000000000000000000000000000000000000N 00000000000NCONT   00    00000000000          00000000000000000000000000000000000000000000 000000000000000A000000000000000000000000000000000000000000000 000000000000000000000000000000000000000     00000000                                                                                                                        000000000000000000
F0010000006863500003000003288324600042505000000000000000000201502260002001DISTRIBUCIONES CONTINENTES                        C000000000100000000000000000000000100010010000000000000000000000F0010000006863500320150226000101 00000000000000000000000000000000000000000000000000000000000000000000000000000000000000000000000000000000000000000N 00000000000NCONT   00    00000000000          00000000000000000000000000000000000000000000 000000000000000A000000000000000000000000000000000000000000000 000000000000000000000000000000000000000     00000000                                                                                                                        000000000000000000
F0010000006863500004000003288324600023658300000000000000000201502260002001DISTRIBUCIONES CONTINENTES                        C000000000009600000000000000000000100010010000000000000000000000F0010000006863500420150226000101 00000000000000000000000000000000000000000000000000000000000000000000000000000000000000000000000000000000000000000N 00000000000NCONT   00    00000000000          00000000000000000000000000000000000000000000 000000000000000A000000000000000000000000000000000000000000000 000000000000000000000000000000000000000     00000000                                                                                                                        000000000000000000
F0010000006863500005000003288324600013552100000000000000000201502260002001DISTRIBUCIONES CONTINENTES                        D000000000009600000000000000000000100010010000000000000000000000F0010000006863500520150226000101 00000000000000000000000000000000000000000000000000000000000000000000000000000000000000000000000000000000000000000N 00000000000NCONT   00    00000000000          00000000000000000000000000000000000000000000 000000000000000A000000000000000000000000000000000000000000000 000000000000000000000000000000000000000     00000000                                                                                                                        000000000000000000
F0010000006863600001000004175790100011050500000000000000000201502260002001ROSIRIS FERIA HOYOS  (COSM. SHILLER)              D000000001100000000000000000000000100010010000000000000000000000F0010000006863600120150226000101 00000000000000000000000000000000000000000000000000000000000000000000000000000000000000000000000000000000000000000N 00000000000NCONT   00    00000000000          00000000000000000000000000000000000000000000 000000000000000A000000000000000000000000000000000000000000000 000000000000000000000000000000000000000     00000000                                                                                                                        000000000000000000
F0010000006863600002000004175790100041450500000000000000000201502260002001ROSIRIS FERIA HOYOS  (COSM. SHILLER)              C000000001000000000000000000000000100010010000000000000000000000F0010000006863600220150226000101 00000000000000000000000000000000000000000000000000000000000000000000000000000000000000000000000000000000000000000N 00000000000NCONT   00    00000000000          00000000000000000000000000000000000000000000 000000000000000A000000000000000000000000000000000000000000000 000000000000000000000000000000000000000     00000000                                                                                                                        000000000000000000
F0010000006863600003000004175790100042505000000000000000000201502260002001ROSIRIS FERIA HOYOS  (COSM. SHILLER)              C000000000100000000000000000000000100010010000000000000000000000F0010000006863600320150226000101 00000000000000000000000000000000000000000000000000000000000000000000000000000000000000000000000000000000000000000N 00000000000NCONT   00    00000000000          00000000000000000000000000000000000000000000 000000000000000A000000000000000000000000000000000000000000000 000000000000000000000000000000000000000     00000000                                                                                                                        000000000000000000
F0010000006863600004000004175790100023658300000000000000000201502260002001ROSIRIS FERIA HOYOS  (COSM. SHILLER)              C000000000008000000000000000000000100010010000000000000000000000F0010000006863600420150226000101 00000000000000000000000000000000000000000000000000000000000000000000000000000000000000000000000000000000000000000N 00000000000NCONT   00    00000000000          00000000000000000000000000000000000000000000 000000000000000A000000000000000000000000000000000000000000000 000000000000000000000000000000000000000     00000000                                                                                                                        000000000000000000
F0010000006863600005000004175790100013552100000000000000000201502260002001ROSIRIS FERIA HOYOS  (COSM. SHILLER)              D000000000008000000000000000000000100010010000000000000000000000F0010000006863600520150226000101 00000000000000000000000000000000000000000000000000000000000000000000000000000000000000000000000000000000000000000N 00000000000NCONT   00    00000000000          00000000000000000000000000000000000000000000 000000000000000A000000000000000000000000000000000000000000000 000000000000000000000000000000000000000     00000000                                                                                                                        000000000000000000
F0010000006863700001000007214453300011050500000000000000000201502260002001CARLOS RESTREPO                                   D000000002700000000000000000000000100010010000000000000000000000F0010000006863700120150226000101 00000000000000000000000000000000000000000000000000000000000000000000000000000000000000000000000000000000000000000N 00000000000NCONT   00    00000000000          00000000000000000000000000000000000000000000 000000000000000A000000000000000000000000000000000000000000000 000000000000000000000000000000000000000     00000000                                                                                                                        000000000000000000
F0010000006863700002000007214453300041450500000000000000000201502260002001CARLOS RESTREPO                                   C000000002400000000000000000000000100010010000000000000000000000F0010000006863700220150226000101 00000000000000000000000000000000000000000000000000000000000000000000000000000000000000000000000000000000000000000N 00000000000NCONT   00    00000000000          00000000000000000000000000000000000000000000 000000000000000A000000000000000000000000000000000000000000000 000000000000000000000000000000000000000     00000000                                                                                                                        000000000000000000
F0010000006863700003000007214453300042505000000000000000000201502260002001CARLOS RESTREPO                                   C000000000300000000000000000000000100010010000000000000000000000F0010000006863700320150226000101 00000000000000000000000000000000000000000000000000000000000000000000000000000000000000000000000000000000000000000N 00000000000NCONT   00    00000000000          00000000000000000000000000000000000000000000 000000000000000A000000000000000000000000000000000000000000000 000000000000000000000000000000000000000     00000000                                                                                                                        000000000000000000
F0010000006863700004000007214453300023658300000000000000000201502260002001CARLOS RESTREPO                                   C000000000019200000000000000000000100010010000000000000000000000F0010000006863700420150226000101 00000000000000000000000000000000000000000000000000000000000000000000000000000000000000000000000000000000000000000N 00000000000NCONT   00    00000000000          00000000000000000000000000000000000000000000 000000000000000A000000000000000000000000000000000000000000000 000000000000000000000000000000000000000     00000000                                                                                                                        000000000000000000
F0010000006863700005000007214453300013552100000000000000000201502260002001CARLOS RESTREPO                                   D000000000019200000000000000000000100010010000000000000000000000F0010000006863700520150226000101 00000000000000000000000000000000000000000000000000000000000000000000000000000000000000000000000000000000000000000N 00000000000NCONT   00    00000000000          00000000000000000000000000000000000000000000 000000000000000A000000000000000000000000000000000000000000000 000000000000000000000000000000000000000     00000000                                                                                                                        000000000000000000
F0010000006863800001000003314755400011050500000000000000000201502260002001RUMATEX DE COLOMBIA                               D000000003400000000000000000000000100010010000000000000000000000F0010000006863800120150226000101 00000000000000000000000000000000000000000000000000000000000000000000000000000000000000000000000000000000000000000N 00000000000NCONT   00    00000000000          00000000000000000000000000000000000000000000 000000000000000A000000000000000000000000000000000000000000000 000000000000000000000000000000000000000     00000000                                                                                                                        000000000000000000
F0010000006863800002000003314755400041450500000000000000000201502260002001RUMATEX DE COLOMBIA                               C000000002400000000000000000000000100010010000000000000000000000F0010000006863800220150226000101 00000000000000000000000000000000000000000000000000000000000000000000000000000000000000000000000000000000000000000N 00000000000NCONT   00    00000000000          00000000000000000000000000000000000000000000 000000000000000A000000000000000000000000000000000000000000000 000000000000000000000000000000000000000     00000000                                                                                                                        000000000000000000
F0010000006863800003000003314755400042505000000000000000000201502260002001RUMATEX DE COLOMBIA                               C000000001000000000000000000000000100010010000000000000000000000F0010000006863800320150226000101 00000000000000000000000000000000000000000000000000000000000000000000000000000000000000000000000000000000000000000N 00000000000NCONT   00    00000000000          00000000000000000000000000000000000000000000 000000000000000A000000000000000000000000000000000000000000000 000000000000000000000000000000000000000     00000000                                                                                                                        000000000000000000
F0010000006863800004000003314755400023658300000000000000000201502260002001RUMATEX DE COLOMBIA                               C000000000019200000000000000000000100010010000000000000000000000F0010000006863800420150226000101 00000000000000000000000000000000000000000000000000000000000000000000000000000000000000000000000000000000000000000N 00000000000NCONT   00    00000000000          00000000000000000000000000000000000000000000 000000000000000A000000000000000000000000000000000000000000000 000000000000000000000000000000000000000     00000000                                                                                                                        000000000000000000
F0010000006863800005000003314755400013552100000000000000000201502260002001RUMATEX DE COLOMBIA                               D000000000019200000000000000000000100010010000000000000000000000F0010000006863800520150226000101 00000000000000000000000000000000000000000000000000000000000000000000000000000000000000000000000000000000000000000N 00000000000NCONT   00    00000000000          00000000000000000000000000000000000000000000 000000000000000A000000000000000000000000000000000000000000000 000000000000000000000000000000000000000     00000000                                                                                                                        000000000000000000
F0010000006863900001000003314755400011050500000000000000000201502260002001RUMATEX DE COLOMBIA                               D000000001100000000000000000000000100010010000000000000000000000F0010000006863900120150226000101 00000000000000000000000000000000000000000000000000000000000000000000000000000000000000000000000000000000000000000N 00000000000NCONT   00    00000000000          00000000000000000000000000000000000000000000 000000000000000A000000000000000000000000000000000000000000000 000000000000000000000000000000000000000     00000000                                                                                                                        000000000000000000
F0010000006863900002000003314755400041450500000000000000000201502260002001RUMATEX DE COLOMBIA                               C000000000900000000000000000000000100010010000000000000000000000F0010000006863900220150226000101 00000000000000000000000000000000000000000000000000000000000000000000000000000000000000000000000000000000000000000N 00000000000NCONT   00    00000000000          00000000000000000000000000000000000000000000 000000000000000A000000000000000000000000000000000000000000000 000000000000000000000000000000000000000     00000000                                                                                                                        000000000000000000
F0010000006863900003000003314755400042505000000000000000000201502260002001RUMATEX DE COLOMBIA                               C000000000200000000000000000000000100010010000000000000000000000F0010000006863900320150226000101 00000000000000000000000000000000000000000000000000000000000000000000000000000000000000000000000000000000000000000N 00000000000NCONT   00    00000000000          00000000000000000000000000000000000000000000 000000000000000A000000000000000000000000000000000000000000000 000000000000000000000000000000000000000     00000000                                                                                                                        000000000000000000
F0010000006863900004000003314755400023658300000000000000000201502260002001RUMATEX DE COLOMBIA                               C000000000007200000000000000000000100010010000000000000000000000F0010000006863900420150226000101 00000000000000000000000000000000000000000000000000000000000000000000000000000000000000000000000000000000000000000N 00000000000NCONT   00    00000000000          00000000000000000000000000000000000000000000 000000000000000A000000000000000000000000000000000000000000000 000000000000000000000000000000000000000     00000000                                                                                                                        000000000000000000
F0010000006863900005000003314755400013552100000000000000000201502260002001RUMATEX DE COLOMBIA                               D000000000007200000000000000000000100010010000000000000000000000F0010000006863900520150226000101 00000000000000000000000000000000000000000000000000000000000000000000000000000000000000000000000000000000000000000N 00000000000NCONT   00    00000000000          00000000000000000000000000000000000000000000 000000000000000A000000000000000000000000000000000000000000000 000000000000000000000000000000000000000     00000000                                                                                                                        000000000000000000
F0010000006864000001000007225511500011050500000000000000000201502260002001MAIGEL CHADID                                     D000000009000000000000000000000000100010010000000000000000000000F0010000006864000120150226000101 00000000000000000000000000000000000000000000000000000000000000000000000000000000000000000000000000000000000000000N 00000000000NCONT   00    00000000000          00000000000000000000000000000000000000000000 000000000000000A000000000000000000000000000000000000000000000 000000000000000000000000000000000000000     00000000                                                                                                                        000000000000000000
F0010000006864000002000007225511500041450500000000000000000201502260002001MAIGEL CHADID                                     C000000003000000000000000000000000100010010000000000000000000000F0010000006864000220150226000101 00000000000000000000000000000000000000000000000000000000000000000000000000000000000000000000000000000000000000000N 00000000000NCONT   00    00000000000          00000000000000000000000000000000000000000000 000000000000000A000000000000000000000000000000000000000000000 000000000000000000000000000000000000000     00000000                                                                                                                        000000000000000000
F0010000006864000003000007225511500042505000000000000000000201502260002001MAIGEL CHADID                                     C000000006000000000000000000000000100010010000000000000000000000F0010000006864000320150226000101 00000000000000000000000000000000000000000000000000000000000000000000000000000000000000000000000000000000000000000N 00000000000NCONT   00    00000000000          00000000000000000000000000000000000000000000 000000000000000A000000000000000000000000000000000000000000000 000000000000000000000000000000000000000     00000000                                                                                                                        000000000000000000
F0010000006864000004000007225511500023658300000000000000000201502260002001MAIGEL CHADID                                     C000000000024000000000000000000000100010010000000000000000000000F0010000006864000420150226000101 00000000000000000000000000000000000000000000000000000000000000000000000000000000000000000000000000000000000000000N 00000000000NCONT   00    00000000000          00000000000000000000000000000000000000000000 000000000000000A000000000000000000000000000000000000000000000 000000000000000000000000000000000000000     00000000                                                                                                                        000000000000000000
F0010000006864000005000007225511500013552100000000000000000201502260002001MAIGEL CHADID                                     D000000000024000000000000000000000100010010000000000000000000000F0010000006864000520150226000101 00000000000000000000000000000000000000000000000000000000000000000000000000000000000000000000000000000000000000000N 00000000000NCONT   00    00000000000          00000000000000000000000000000000000000000000 000000000000000A000000000000000000000000000000000000000000000 000000000000000000000000000000000000000     00000000                                                                                                                        000000000000000000
F0010000006864100001000003314755400011050500000000000000000201502260002001DISTRIBUCIONES RUMA                               D000000001800000000000000000000000100010010000000000000000000000F0010000006864100120150226000101 00000000000000000000000000000000000000000000000000000000000000000000000000000000000000000000000000000000000000000N 00000000000NCONT   00    00000000000          00000000000000000000000000000000000000000000 000000000000000A000000000000000000000000000000000000000000000 000000000000000000000000000000000000000     00000000                                                                                                                        000000000000000000
F0010000006864100002000003314755400041450500000000000000000201502260002001DISTRIBUCIONES RUMA                               C000000001200000000000000000000000100010010000000000000000000000F0010000006864100220150226000101 00000000000000000000000000000000000000000000000000000000000000000000000000000000000000000000000000000000000000000N 00000000000NCONT   00    00000000000          00000000000000000000000000000000000000000000 000000000000000A000000000000000000000000000000000000000000000 000000000000000000000000000000000000000     00000000                                                                                                                        000000000000000000
F0010000006864100003000003314755400042505000000000000000000201502260002001DISTRIBUCIONES RUMA                               C000000000600000000000000000000000100010010000000000000000000000F0010000006864100320150226000101 00000000000000000000000000000000000000000000000000000000000000000000000000000000000000000000000000000000000000000N 00000000000NCONT   00    00000000000          00000000000000000000000000000000000000000000 000000000000000A000000000000000000000000000000000000000000000 000000000000000000000000000000000000000     00000000                                                                                                                        000000000000000000
F0010000006864100004000003314755400023658300000000000000000201502260002001DISTRIBUCIONES RUMA                               C000000000009600000000000000000000100010010000000000000000000000F0010000006864100420150226000101 00000000000000000000000000000000000000000000000000000000000000000000000000000000000000000000000000000000000000000N 00000000000NCONT   00    00000000000          00000000000000000000000000000000000000000000 000000000000000A000000000000000000000000000000000000000000000 000000000000000000000000000000000000000     00000000                                                                                                                        000000000000000000
F0010000006864100005000003314755400013552100000000000000000201502260002001DISTRIBUCIONES RUMA                               D000000000009600000000000000000000100010010000000000000000000000F0010000006864100520150226000101 00000000000000000000000000000000000000000000000000000000000000000000000000000000000000000000000000000000000000000N 00000000000NCONT   00    00000000000          00000000000000000000000000000000000000000000 000000000000000A000000000000000000000000000000000000000000000 000000000000000000000000000000000000000     00000000                                                                                                                        000000000000000000
F0010000006864200001000000431178400011050500000000000000000201502260002001EFRAIN ALVAREZ                                    D000000001670000000000000000000000100010010000000000000000000000F0010000006864200120150226000101 00000000000000000000000000000000000000000000000000000000000000000000000000000000000000000000000000000000000000000N 00000000000NCONT   00    00000000000          00000000000000000000000000000000000000000000 000000000000000A000000000000000000000000000000000000000000000 000000000000000000000000000000000000000     00000000                                                                                                                        000000000000000000
F0010000006864200002000000431178400041450500000000000000000201502260002001EFRAIN ALVAREZ                                    C000000001620000000000000000000000100010010000000000000000000000F0010000006864200220150226000101 00000000000000000000000000000000000000000000000000000000000000000000000000000000000000000000000000000000000000000N 00000000000NCONT   00    00000000000          00000000000000000000000000000000000000000000 000000000000000A000000000000000000000000000000000000000000000 000000000000000000000000000000000000000     00000000                                                                                                                        000000000000000000
