F0010000007900700001000090020547900011050500000000000000000201511180002001COMERCIALIZADORA DAC DEL CARIBE S.A.S.            D000000004500000000000000000000000100010010000000000000000000000F0010000007900700120151118000101 00000000000000000000000000000000000000000000000000000000000000000000000000000000000000000000000000000000000000000N 00000000000NCONT   00    00000000000          00000000000000000000000000000000000000000000 000000000000000A000000000000000000000000000000000000000000000 000000000000000000000000000000000000000     00000000                                                                                                                        000000000000000000
F0010000007900700002000090020547900041450500000000000000000201511180002001COMERCIALIZADORA DAC DEL CARIBE S.A.S.            C000000003600000000000000000000000100010010000000000000000000000F0010000007900700220151118000101 00000000000000000000000000000000000000000000000000000000000000000000000000000000000000000000000000000000000000000N 00000000000NCONT   00    00000000000          00000000000000000000000000000000000000000000 000000000000000A000000000000000000000000000000000000000000000 000000000000000000000000000000000000000     00000000                                                                                                                        000000000000000000
F0010000007900700003000090020547900042505000000000000000000201511180002001COMERCIALIZADORA DAC DEL CARIBE S.A.S.            C000000000900000000000000000000000100010010000000000000000000000F0010000007900700320151118000101 00000000000000000000000000000000000000000000000000000000000000000000000000000000000000000000000000000000000000000N 00000000000NCONT   00    00000000000          00000000000000000000000000000000000000000000 000000000000000A000000000000000000000000000000000000000000000 000000000000000000000000000000000000000     00000000                                                                                                                        000000000000000000
F0010000007900700004000090020547900023658300000000000000000201511180002001COMERCIALIZADORA DAC DEL CARIBE S.A.S.            C000000000028800000000000000000000100010010000000000000000000000F0010000007900700420151118000101 00000000000000000000000000000000000000000000000000000000000000000000000000000000000000000000000000000000000000000N 00000000000NCONT   00    00000000000          00000000000000000000000000000000000000000000 000000000000000A000000000000000000000000000000000000000000000 000000000000000000000000000000000000000     00000000                                                                                                                        000000000000000000
F0010000007900700005000090020547900013552100000000000000000201511180002001COMERCIALIZADORA DAC DEL CARIBE S.A.S.            D000000000028800000000000000000000100010010000000000000000000000F0010000007900700520151118000101 00000000000000000000000000000000000000000000000000000000000000000000000000000000000000000000000000000000000000000N 00000000000NCONT   00    00000000000          00000000000000000000000000000000000000000000 000000000000000A000000000000000000000000000000000000000000000 000000000000000000000000000000000000000     00000000                                                                                                                        000000000000000000
F0010000007900800001000090020547900011050500000000000000000201511180002001COMERCIALIZADORA DAC DEL CARIBE S.A.S.            D000000004500000000000000000000000100010010000000000000000000000F0010000007900800120151118000101 00000000000000000000000000000000000000000000000000000000000000000000000000000000000000000000000000000000000000000N 00000000000NCONT   00    00000000000          00000000000000000000000000000000000000000000 000000000000000A000000000000000000000000000000000000000000000 000000000000000000000000000000000000000     00000000                                                                                                                        000000000000000000
F0010000007900800002000090020547900041450500000000000000000201511180002001COMERCIALIZADORA DAC DEL CARIBE S.A.S.            C000000003600000000000000000000000100010010000000000000000000000F0010000007900800220151118000101 00000000000000000000000000000000000000000000000000000000000000000000000000000000000000000000000000000000000000000N 00000000000NCONT   00    00000000000          00000000000000000000000000000000000000000000 000000000000000A000000000000000000000000000000000000000000000 000000000000000000000000000000000000000     00000000                                                                                                                        000000000000000000
F0010000007900800003000090020547900042505000000000000000000201511180002001COMERCIALIZADORA DAC DEL CARIBE S.A.S.            C000000000900000000000000000000000100010010000000000000000000000F0010000007900800320151118000101 00000000000000000000000000000000000000000000000000000000000000000000000000000000000000000000000000000000000000000N 00000000000NCONT   00    00000000000          00000000000000000000000000000000000000000000 000000000000000A000000000000000000000000000000000000000000000 000000000000000000000000000000000000000     00000000                                                                                                                        000000000000000000
F0010000007900800004000090020547900023658300000000000000000201511180002001COMERCIALIZADORA DAC DEL CARIBE S.A.S.            C000000000028800000000000000000000100010010000000000000000000000F0010000007900800420151118000101 00000000000000000000000000000000000000000000000000000000000000000000000000000000000000000000000000000000000000000N 00000000000NCONT   00    00000000000          00000000000000000000000000000000000000000000 000000000000000A000000000000000000000000000000000000000000000 000000000000000000000000000000000000000     00000000                                                                                                                        000000000000000000
F0010000007900800005000090020547900013552100000000000000000201511180002001COMERCIALIZADORA DAC DEL CARIBE S.A.S.            D000000000028800000000000000000000100010010000000000000000000000F0010000007900800520151118000101 00000000000000000000000000000000000000000000000000000000000000000000000000000000000000000000000000000000000000000N 00000000000NCONT   00    00000000000          00000000000000000000000000000000000000000000 000000000000000A000000000000000000000000000000000000000000000 000000000000000000000000000000000000000     00000000                                                                                                                        000000000000000000
F0010000007900900001000090020547900011050500000000000000000201511180002001COMERCIALIZADORA DAC DEL CARIBE S.A.S.            D000000013000000000000000000000000100010010000000000000000000000F0010000007900900120151118000101 00000000000000000000000000000000000000000000000000000000000000000000000000000000000000000000000000000000000000000N 00000000000NCONT   00    00000000000          00000000000000000000000000000000000000000000 000000000000000A000000000000000000000000000000000000000000000 000000000000000000000000000000000000000     00000000                                                                                                                        000000000000000000
F0010000007900900002000090020547900041450500000000000000000201511180002001COMERCIALIZADORA DAC DEL CARIBE S.A.S.            C000000011100000000000000000000000100010010000000000000000000000F0010000007900900220151118000101 00000000000000000000000000000000000000000000000000000000000000000000000000000000000000000000000000000000000000000N 00000000000NCONT   00    00000000000          00000000000000000000000000000000000000000000 000000000000000A000000000000000000000000000000000000000000000 000000000000000000000000000000000000000     00000000                                                                                                                        000000000000000000
F0010000007900900003000090020547900042505000000000000000000201511180002001COMERCIALIZADORA DAC DEL CARIBE S.A.S.            C000000001900000000000000000000000100010010000000000000000000000F0010000007900900320151118000101 00000000000000000000000000000000000000000000000000000000000000000000000000000000000000000000000000000000000000000N 00000000000NCONT   00    00000000000          00000000000000000000000000000000000000000000 000000000000000A000000000000000000000000000000000000000000000 000000000000000000000000000000000000000     00000000                                                                                                                        000000000000000000
F0010000007900900004000090020547900023658300000000000000000201511180002001COMERCIALIZADORA DAC DEL CARIBE S.A.S.            C000000000088800000000000000000000100010010000000000000000000000F0010000007900900420151118000101 00000000000000000000000000000000000000000000000000000000000000000000000000000000000000000000000000000000000000000N 00000000000NCONT   00    00000000000          00000000000000000000000000000000000000000000 000000000000000A000000000000000000000000000000000000000000000 000000000000000000000000000000000000000     00000000                                                                                                                        000000000000000000
F0010000007900900005000090020547900013552100000000000000000201511180002001COMERCIALIZADORA DAC DEL CARIBE S.A.S.            D000000000088800000000000000000000100010010000000000000000000000F0010000007900900520151118000101 00000000000000000000000000000000000000000000000000000000000000000000000000000000000000000000000000000000000000000N 00000000000NCONT   00    00000000000          00000000000000000000000000000000000000000000 000000000000000A000000000000000000000000000000000000000000000 000000000000000000000000000000000000000     00000000                                                                                                                        000000000000000000
F0010000007901000001000009126881000013050500000000000000000201511180002001JE LOGISTICA DE TRANSPORTE JHON MELENDEZ BARAJAS  D000000014233400000000000000000000100010010000000000000000000000F0010000007901000120151118000101 00000000000000000000000000000000000000000000000000000000000000000000000000000000000000000000000000000000000000000N 00000000000NCONT   00    00000000000          00000000000000000000000000000000000000000000 000000000000000A000000000000000000000000000000000000000000000 000000000000000000000000000000000000000     00000000                                                                                                                        000000000000000000
F0010000007901000002000009126881000041450500000000000000000201511180002001JE LOGISTICA DE TRANSPORTE JHON MELENDEZ BARAJAS  C000000010733400000000000000000000100010010000000000000000000000F0010000007901000220151118000101 00000000000000000000000000000000000000000000000000000000000000000000000000000000000000000000000000000000000000000N 00000000000NCONT   00    00000000000          00000000000000000000000000000000000000000000 000000000000000A000000000000000000000000000000000000000000000 000000000000000000000000000000000000000     00000000                                                                                                                        000000000000000000
F0010000007901000003000009126881000042505000000000000000000201511180002001JE LOGISTICA DE TRANSPORTE JHON MELENDEZ BARAJAS  C000000003500000000000000000000000100010010000000000000000000000F0010000007901000320151118000101 00000000000000000000000000000000000000000000000000000000000000000000000000000000000000000000000000000000000000000N 00000000000NCONT   00    00000000000          00000000000000000000000000000000000000000000 000000000000000A000000000000000000000000000000000000000000000 000000000000000000000000000000000000000     00000000                                                                                                                        000000000000000000
F0010000007901000004000009126881000023658300000000000000000201511180002001JE LOGISTICA DE TRANSPORTE JHON MELENDEZ BARAJAS  C000000000085900000000000000000000100010010000000000000000000000F0010000007901000420151118000101 00000000000000000000000000000000000000000000000000000000000000000000000000000000000000000000000000000000000000000N 00000000000NCONT   00    00000000000          00000000000000000000000000000000000000000000 000000000000000A000000000000000000000000000000000000000000000 000000000000000000000000000000000000000     00000000                                                                                                                        000000000000000000
F0010000007901000005000009126881000013552100000000000000000201511180002001JE LOGISTICA DE TRANSPORTE JHON MELENDEZ BARAJAS  D000000000085900000000000000000000100010010000000000000000000000F0010000007901000520151118000101 00000000000000000000000000000000000000000000000000000000000000000000000000000000000000000000000000000000000000000N 00000000000NCONT   00    00000000000          00000000000000000000000000000000000000000000 000000000000000A000000000000000000000000000000000000000000000 000000000000000000000000000000000000000     00000000                                                                                                                        000000000000000000
F0010000007901100001000080012418800013050500000000000000000201511180002001DISTRITEC S.A.S                                   D000000033961200000000000000000000100010010000000000000000000000F0010000007901100120151118000101 00000000000000000000000000000000000000000000000000000000000000000000000000000000000000000000000000000000000000000N 00000000000NCONT   00    00000000000          00000000000000000000000000000000000000000000 000000000000000A000000000000000000000000000000000000000000000 000000000000000000000000000000000000000     00000000                                                                                                                        000000000000000000
F0010000007901100002000080012418800041450500000000000000000201511180002001DISTRITEC S.A.S                                   C000000031030000000000000000000000100010010000000000000000000000F0010000007901100220151118000101 00000000000000000000000000000000000000000000000000000000000000000000000000000000000000000000000000000000000000000N 00000000000NCONT   00    00000000000          00000000000000000000000000000000000000000000 000000000000000A000000000000000000000000000000000000000000000 000000000000000000000000000000000000000     00000000                                                                                                                        000000000000000000
F0010000007901100003000080012418800042505000000000000000000201511180002001DISTRITEC S.A.S                                   C000000002931200000000000000000000100010010000000000000000000000F0010000007901100320151118000101 00000000000000000000000000000000000000000000000000000000000000000000000000000000000000000000000000000000000000000N 00000000000NCONT   00    00000000000          00000000000000000000000000000000000000000000 000000000000000A000000000000000000000000000000000000000000000 000000000000000000000000000000000000000     00000000                                                                                                                        000000000000000000
F0010000007901100004000080012418800023658300000000000000000201511180002001DISTRITEC S.A.S                                   C000000000248200000000000000000000100010010000000000000000000000F0010000007901100420151118000101 00000000000000000000000000000000000000000000000000000000000000000000000000000000000000000000000000000000000000000N 00000000000NCONT   00    00000000000          00000000000000000000000000000000000000000000 000000000000000A000000000000000000000000000000000000000000000 000000000000000000000000000000000000000     00000000                                                                                                                        000000000000000000
F0010000007901100005000080012418800013552100000000000000000201511180002001DISTRITEC S.A.S                                   D000000000248200000000000000000000100010010000000000000000000000F0010000007901100520151118000101 00000000000000000000000000000000000000000000000000000000000000000000000000000000000000000000000000000000000000000N 00000000000NCONT   00    00000000000          00000000000000000000000000000000000000000000 000000000000000A000000000000000000000000000000000000000000000 000000000000000000000000000000000000000     00000000                                                                                                                        000000000000000000
F0010000007901200001000081102758700013050500000000000000000201511180002001C.I. ABRACOL S.A EMA                              D000000079570900000000000000000000100010010000000000000000000000F0010000007901200120151118000101 00000000000000000000000000000000000000000000000000000000000000000000000000000000000000000000000000000000000000000N 00000000000NCONT   00    00000000000          00000000000000000000000000000000000000000000 000000000000000A000000000000000000000000000000000000000000000 000000000000000000000000000000000000000     00000000                                                                                                                        000000000000000000
F0010000007901200002000081102758700041450500000000000000000201511180002001C.I. ABRACOL S.A EMA                              C000000052110000000000000000000000100010010000000000000000000000F0010000007901200220151118000101 00000000000000000000000000000000000000000000000000000000000000000000000000000000000000000000000000000000000000000N 00000000000NCONT   00    00000000000          00000000000000000000000000000000000000000000 000000000000000A000000000000000000000000000000000000000000000 000000000000000000000000000000000000000     00000000                                                                                                                        000000000000000000
F0010000007901200003000081102758700041750100000000000000000201511180002001C.I. ABRACOL S.A EMA                              D000000001563300000000000000000000100010010000000000000000000000F0010000007901200320151118000101 00000000000000000000000000000000000000000000000000000000000000000000000000000000000000000000000000000000000000000N 00000000000NCONT   00    00000000000          00000000000000000000000000000000000000000000 000000000000000A000000000000000000000000000000000000000000000 000000000000000000000000000000000000000     00000000                                                                                                                        000000000000000000
F0010000007901200004000081102758700042505000000000000000000201511180002001C.I. ABRACOL S.A EMA                              C000000029024200000000000000000000100010010000000000000000000000F0010000007901200420151118000101 00000000000000000000000000000000000000000000000000000000000000000000000000000000000000000000000000000000000000000N 00000000000NCONT   00    00000000000          00000000000000000000000000000000000000000000 000000000000000A000000000000000000000000000000000000000000000 000000000000000000000000000000000000000     00000000                                                                                                                        000000000000000000
F0010000007901200005000081102758700023658300000000000000000201511180002001C.I. ABRACOL S.A EMA                              C000000000416900000000000000000000100010010000000000000000000000F0010000007901200520151118000101 00000000000000000000000000000000000000000000000000000000000000000000000000000000000000000000000000000000000000000N 00000000000NCONT   00    00000000000          00000000000000000000000000000000000000000000 000000000000000A000000000000000000000000000000000000000000000 000000000000000000000000000000000000000     00000000                                                                                                                        000000000000000000
F0010000007901200006000081102758700013552100000000000000000201511180002001C.I. ABRACOL S.A EMA                              D000000000416900000000000000000000100010010000000000000000000000F0010000007901200620151118000101 00000000000000000000000000000000000000000000000000000000000000000000000000000000000000000000000000000000000000000N 00000000000NCONT   00    00000000000          00000000000000000000000000000000000000000000 000000000000000A000000000000000000000000000000000000000000000 000000000000000000000000000000000000000     00000000                                                                                                                        000000000000000000
F0010000007901300001000007225583900011050500000000000000000201511180002001JORGE LUIS NIÑO BLANCO                           D000000006500000000000000000000000100010010000000000000000000000F0010000007901300120151118000101 00000000000000000000000000000000000000000000000000000000000000000000000000000000000000000000000000000000000000000N 00000000000NCONT   00    00000000000          00000000000000000000000000000000000000000000 000000000000000A000000000000000000000000000000000000000000000 000000000000000000000000000000000000000     00000000                                                                                                                        000000000000000000
F0010000007901300002000007225583900041450500000000000000000201511180002001JORGE LUIS NIÑO BLANCO                           C000000006000000000000000000000000100010010000000000000000000000F0010000007901300220151118000101 00000000000000000000000000000000000000000000000000000000000000000000000000000000000000000000000000000000000000000N 00000000000NCONT   00    00000000000          00000000000000000000000000000000000000000000 000000000000000A000000000000000000000000000000000000000000000 000000000000000000000000000000000000000     00000000                                                                                                                        000000000000000000
F0010000007901300003000007225583900042505000000000000000000201511180002001JORGE LUIS NIÑO BLANCO                           C000000000500000000000000000000000100010010000000000000000000000F0010000007901300320151118000101 00000000000000000000000000000000000000000000000000000000000000000000000000000000000000000000000000000000000000000N 00000000000NCONT   00    00000000000          00000000000000000000000000000000000000000000 000000000000000A000000000000000000000000000000000000000000000 000000000000000000000000000000000000000     00000000                                                                                                                        000000000000000000
F0010000007901300004000007225583900023658300000000000000000201511180002001JORGE LUIS NIÑO BLANCO                           C000000000048000000000000000000000100010010000000000000000000000F0010000007901300420151118000101 00000000000000000000000000000000000000000000000000000000000000000000000000000000000000000000000000000000000000000N 00000000000NCONT   00    00000000000          00000000000000000000000000000000000000000000 000000000000000A000000000000000000000000000000000000000000000 000000000000000000000000000000000000000     00000000                                                                                                                        000000000000000000
F0010000007901300005000007225583900013552100000000000000000201511180002001JORGE LUIS NIÑO BLANCO                           D000000000048000000000000000000000100010010000000000000000000000F0010000007901300520151118000101 00000000000000000000000000000000000000000000000000000000000000000000000000000000000000000000000000000000000000000N 00000000000NCONT   00    00000000000          00000000000000000000000000000000000000000000 000000000000000A000000000000000000000000000000000000000000000 000000000000000000000000000000000000000     00000000                                                                                                                        000000000000000000
F0010000007901400001000090073498600011050500000000000000000201511180002001VALTAC S.A.S                                      D000000007000000000000000000000000100010010000000000000000000000F0010000007901400120151118000101 00000000000000000000000000000000000000000000000000000000000000000000000000000000000000000000000000000000000000000N 00000000000NCONT   00    00000000000          00000000000000000000000000000000000000000000 000000000000000A000000000000000000000000000000000000000000000 000000000000000000000000000000000000000     00000000                                                                                                                        000000000000000000
F0010000007901400002000090073498600041450500000000000000000201511180002001VALTAC S.A.S                                      C000000006500000000000000000000000100010010000000000000000000000F0010000007901400220151118000101 00000000000000000000000000000000000000000000000000000000000000000000000000000000000000000000000000000000000000000N 00000000000NCONT   00    00000000000          00000000000000000000000000000000000000000000 000000000000000A000000000000000000000000000000000000000000000 000000000000000000000000000000000000000     00000000                                                                                                                        000000000000000000
F0010000007901400003000090073498600042505000000000000000000201511180002001VALTAC S.A.S                                      C000000000500000000000000000000000100010010000000000000000000000F0010000007901400320151118000101 00000000000000000000000000000000000000000000000000000000000000000000000000000000000000000000000000000000000000000N 00000000000NCONT   00    00000000000          00000000000000000000000000000000000000000000 000000000000000A000000000000000000000000000000000000000000000 000000000000000000000000000000000000000     00000000                                                                                                                        000000000000000000
F0010000007901400004000090073498600023658300000000000000000201511180002001VALTAC S.A.S                                      C000000000052000000000000000000000100010010000000000000000000000F0010000007901400420151118000101 00000000000000000000000000000000000000000000000000000000000000000000000000000000000000000000000000000000000000000N 00000000000NCONT   00    00000000000          00000000000000000000000000000000000000000000 000000000000000A000000000000000000000000000000000000000000000 000000000000000000000000000000000000000     00000000                                                                                                                        000000000000000000
F0010000007901400005000090073498600013552100000000000000000201511180002001VALTAC S.A.S                                      D000000000052000000000000000000000100010010000000000000000000000F0010000007901400520151118000101 00000000000000000000000000000000000000000000000000000000000000000000000000000000000000000000000000000000000000000N 00000000000NCONT   00    00000000000          00000000000000000000000000000000000000000000 000000000000000A000000000000000000000000000000000000000000000 000000000000000000000000000000000000000     00000000                                                                                                                        000000000000000000
F0010000007901500001000090073498600011050500000000000000000201511180002001VALTAC S.A.S                                      D000000001000000000000000000000000100010010000000000000000000000F0010000007901500120151118000101 00000000000000000000000000000000000000000000000000000000000000000000000000000000000000000000000000000000000000000N 00000000000NCONT   00    00000000000          00000000000000000000000000000000000000000000 000000000000000A000000000000000000000000000000000000000000000 000000000000000000000000000000000000000     00000000                                                                                                                        000000000000000000
F0010000007901500002000090073498600041450500000000000000000201511180002001VALTAC S.A.S                                      C000000000900000000000000000000000100010010000000000000000000000F0010000007901500220151118000101 00000000000000000000000000000000000000000000000000000000000000000000000000000000000000000000000000000000000000000N 00000000000NCONT   00    00000000000          00000000000000000000000000000000000000000000 000000000000000A000000000000000000000000000000000000000000000 000000000000000000000000000000000000000     00000000                                                                                                                        000000000000000000
F0010000007901500003000090073498600042505000000000000000000201511180002001VALTAC S.A.S                                      C000000000100000000000000000000000100010010000000000000000000000F0010000007901500320151118000101 00000000000000000000000000000000000000000000000000000000000000000000000000000000000000000000000000000000000000000N 00000000000NCONT   00    00000000000          00000000000000000000000000000000000000000000 000000000000000A000000000000000000000000000000000000000000000 000000000000000000000000000000000000000     00000000                                                                                                                        000000000000000000
F0010000007901500004000090073498600023658300000000000000000201511180002001VALTAC S.A.S                                      C000000000007200000000000000000000100010010000000000000000000000F0010000007901500420151118000101 00000000000000000000000000000000000000000000000000000000000000000000000000000000000000000000000000000000000000000N 00000000000NCONT   00    00000000000          00000000000000000000000000000000000000000000 000000000000000A000000000000000000000000000000000000000000000 000000000000000000000000000000000000000     00000000                                                                                                                        000000000000000000
F0010000007901500005000090073498600013552100000000000000000201511180002001VALTAC S.A.S                                      D000000000007200000000000000000000100010010000000000000000000000F0010000007901500520151118000101 00000000000000000000000000000000000000000000000000000000000000000000000000000000000000000000000000000000000000000N 00000000000NCONT   00    00000000000          00000000000000000000000000000000000000000000 000000000000000A000000000000000000000000000000000000000000000 000000000000000000000000000000000000000     00000000                                                                                                                        000000000000000000
F0010000007901600001000002244786500011050500000000000000000201511180002001ROSA ELVIRA DE LEON JIMENEZ                       D000000005360000000000000000000000100010010000000000000000000000F0010000007901600120151118000101 00000000000000000000000000000000000000000000000000000000000000000000000000000000000000000000000000000000000000000N 00000000000NCONT   00    00000000000          00000000000000000000000000000000000000000000 000000000000000A000000000000000000000000000000000000000000000 000000000000000000000000000000000000000     00000000                                                                                                                        000000000000000000
F0010000007901600002000002244786500041450500000000000000000201511180002001ROSA ELVIRA DE LEON JIMENEZ                       C000000005200000000000000000000000100010010000000000000000000000F0010000007901600220151118000101 00000000000000000000000000000000000000000000000000000000000000000000000000000000000000000000000000000000000000000N 00000000000NCONT   00    00000000000          00000000000000000000000000000000000000000000 000000000000000A000000000000000000000000000000000000000000000 000000000000000000000000000000000000000     00000000                                                                                                                        000000000000000000
F0010000007901600003000002244786500042505000000000000000000201511180002001ROSA ELVIRA DE LEON JIMENEZ                       C000000000160000000000000000000000100010010000000000000000000000F0010000007901600320151118000101 00000000000000000000000000000000000000000000000000000000000000000000000000000000000000000000000000000000000000000N 00000000000NCONT   00    00000000000          00000000000000000000000000000000000000000000 000000000000000A000000000000000000000000000000000000000000000 000000000000000000000000000000000000000     00000000                                                                                                                        000000000000000000
F0010000007901600004000002244786500023658300000000000000000201511180002001ROSA ELVIRA DE LEON JIMENEZ                       C000000000041600000000000000000000100010010000000000000000000000F0010000007901600420151118000101 00000000000000000000000000000000000000000000000000000000000000000000000000000000000000000000000000000000000000000N 00000000000NCONT   00    00000000000          00000000000000000000000000000000000000000000 000000000000000A000000000000000000000000000000000000000000000 000000000000000000000000000000000000000     00000000                                                                                                                        000000000000000000
F0010000007901600005000002244786500013552100000000000000000201511180002001ROSA ELVIRA DE LEON JIMENEZ                       D000000000041600000000000000000000100010010000000000000000000000F0010000007901600520151118000101 00000000000000000000000000000000000000000000000000000000000000000000000000000000000000000000000000000000000000000N 00000000000NCONT   00    00000000000          00000000000000000000000000000000000000000000 000000000000000A000000000000000000000000000000000000000000000 000000000000000000000000000000000000000     00000000                                                                                                                        000000000000000000
F0010000007901700001000007225583900011050500000000000000000201511180002001JORGE LUIS NIÑO BLANCO                           D000000005500000000000000000000000100010010000000000000000000000F0010000007901700120151118000101 00000000000000000000000000000000000000000000000000000000000000000000000000000000000000000000000000000000000000000N 00000000000NCONT   00    00000000000          00000000000000000000000000000000000000000000 000000000000000A000000000000000000000000000000000000000000000 000000000000000000000000000000000000000     00000000                                                                                                                        000000000000000000
F0010000007901700002000007225583900041450500000000000000000201511180002001JORGE LUIS NIÑO BLANCO                           C000000005200000000000000000000000100010010000000000000000000000F0010000007901700220151118000101 00000000000000000000000000000000000000000000000000000000000000000000000000000000000000000000000000000000000000000N 00000000000NCONT   00    00000000000          00000000000000000000000000000000000000000000 000000000000000A000000000000000000000000000000000000000000000 000000000000000000000000000000000000000     00000000                                                                                                                        000000000000000000
F0010000007901700003000007225583900042505000000000000000000201511180002001JORGE LUIS NIÑO BLANCO                           C000000000300000000000000000000000100010010000000000000000000000F0010000007901700320151118000101 00000000000000000000000000000000000000000000000000000000000000000000000000000000000000000000000000000000000000000N 00000000000NCONT   00    00000000000          00000000000000000000000000000000000000000000 000000000000000A000000000000000000000000000000000000000000000 000000000000000000000000000000000000000     00000000                                                                                                                        000000000000000000
F0010000007901700004000007225583900023658300000000000000000201511180002001JORGE LUIS NIÑO BLANCO                           C000000000041600000000000000000000100010010000000000000000000000F0010000007901700420151118000101 00000000000000000000000000000000000000000000000000000000000000000000000000000000000000000000000000000000000000000N 00000000000NCONT   00    00000000000          00000000000000000000000000000000000000000000 000000000000000A000000000000000000000000000000000000000000000 000000000000000000000000000000000000000     00000000                                                                                                                        000000000000000000
F0010000007901700005000007225583900013552100000000000000000201511180002001JORGE LUIS NIÑO BLANCO                           D000000000041600000000000000000000100010010000000000000000000000F0010000007901700520151118000101 00000000000000000000000000000000000000000000000000000000000000000000000000000000000000000000000000000000000000000N 00000000000NCONT   00    00000000000          00000000000000000000000000000000000000000000 000000000000000A000000000000000000000000000000000000000000000 000000000000000000000000000000000000000     00000000                                                                                                                        000000000000000000
F0010000007901800001000009249843700011050500000000000000000201511180002001CESAR MERCADO                                     D000000003000000000000000000000000100010010000000000000000000000F0010000007901800120151118000101 00000000000000000000000000000000000000000000000000000000000000000000000000000000000000000000000000000000000000000N 00000000000NCONT   00    00000000000          00000000000000000000000000000000000000000000 000000000000000A000000000000000000000000000000000000000000000 000000000000000000000000000000000000000     00000000                                                                                                                        000000000000000000
F0010000007901800002000009249843700041450500000000000000000201511180002001CESAR MERCADO                                     C000000002800000000000000000000000100010010000000000000000000000F0010000007901800220151118000101 00000000000000000000000000000000000000000000000000000000000000000000000000000000000000000000000000000000000000000N 00000000000NCONT   00    00000000000          00000000000000000000000000000000000000000000 000000000000000A000000000000000000000000000000000000000000000 000000000000000000000000000000000000000     00000000                                                                                                                        000000000000000000
F0010000007901800003000009249843700042505000000000000000000201511180002001CESAR MERCADO                                     C000000000200000000000000000000000100010010000000000000000000000F0010000007901800320151118000101 00000000000000000000000000000000000000000000000000000000000000000000000000000000000000000000000000000000000000000N 00000000000NCONT   00    00000000000          00000000000000000000000000000000000000000000 000000000000000A000000000000000000000000000000000000000000000 000000000000000000000000000000000000000     00000000                                                                                                                        000000000000000000
F0010000007901800004000009249843700023658300000000000000000201511180002001CESAR MERCADO                                     C000000000022400000000000000000000100010010000000000000000000000F0010000007901800420151118000101 00000000000000000000000000000000000000000000000000000000000000000000000000000000000000000000000000000000000000000N 00000000000NCONT   00    00000000000          00000000000000000000000000000000000000000000 000000000000000A000000000000000000000000000000000000000000000 000000000000000000000000000000000000000     00000000                                                                                                                        000000000000000000
F0010000007901800005000009249843700013552100000000000000000201511180002001CESAR MERCADO                                     D000000000022400000000000000000000100010010000000000000000000000F0010000007901800520151118000101 00000000000000000000000000000000000000000000000000000000000000000000000000000000000000000000000000000000000000000N 00000000000NCONT   00    00000000000          00000000000000000000000000000000000000000000 000000000000000A000000000000000000000000000000000000000000000 000000000000000000000000000000000000000     00000000                                                                                                                        000000000000000000
F0010000007901900001000090050144800011050500000000000000000201511180002001PLASTICOS JR ASOCIADOS SAS                        D000000000900000000000000000000000100010010000000000000000000000F0010000007901900120151118000101 00000000000000000000000000000000000000000000000000000000000000000000000000000000000000000000000000000000000000000N 00000000000NCONT   00    00000000000          00000000000000000000000000000000000000000000 000000000000000A000000000000000000000000000000000000000000000 000000000000000000000000000000000000000     00000000                                                                                                                        000000000000000000
F0010000007901900002000090050144800041450500000000000000000201511180002001PLASTICOS JR ASOCIADOS SAS                        C000000000850000000000000000000000100010010000000000000000000000F0010000007901900220151118000101 00000000000000000000000000000000000000000000000000000000000000000000000000000000000000000000000000000000000000000N 00000000000NCONT   00    00000000000          00000000000000000000000000000000000000000000 000000000000000A000000000000000000000000000000000000000000000 000000000000000000000000000000000000000     00000000                                                                                                                        000000000000000000
F0010000007901900003000090050144800042505000000000000000000201511180002001PLASTICOS JR ASOCIADOS SAS                        C000000000050000000000000000000000100010010000000000000000000000F0010000007901900320151118000101 00000000000000000000000000000000000000000000000000000000000000000000000000000000000000000000000000000000000000000N 00000000000NCONT   00    00000000000          00000000000000000000000000000000000000000000 000000000000000A000000000000000000000000000000000000000000000 000000000000000000000000000000000000000     00000000                                                                                                                        000000000000000000
F0010000007901900004000090050144800023658300000000000000000201511180002001PLASTICOS JR ASOCIADOS SAS                        C000000000006800000000000000000000100010010000000000000000000000F0010000007901900420151118000101 00000000000000000000000000000000000000000000000000000000000000000000000000000000000000000000000000000000000000000N 00000000000NCONT   00    00000000000          00000000000000000000000000000000000000000000 000000000000000A000000000000000000000000000000000000000000000 000000000000000000000000000000000000000     00000000                                                                                                                        000000000000000000
F0010000007901900005000090050144800013552100000000000000000201511180002001PLASTICOS JR ASOCIADOS SAS                        D000000000006800000000000000000000100010010000000000000000000000F0010000007901900520151118000101 00000000000000000000000000000000000000000000000000000000000000000000000000000000000000000000000000000000000000000N 00000000000NCONT   00    00000000000          00000000000000000000000000000000000000000000 000000000000000A000000000000000000000000000000000000000000000 000000000000000000000000000000000000000     00000000                                                                                                                        000000000000000000
F0010000007902000001000090050144800011050500000000000000000201511180002001PLASTICOS JR ASOCIADOS SAS                        D000000005300000000000000000000000100010010000000000000000000000F0010000007902000120151118000101 00000000000000000000000000000000000000000000000000000000000000000000000000000000000000000000000000000000000000000N 00000000000NCONT   00    00000000000          00000000000000000000000000000000000000000000 000000000000000A000000000000000000000000000000000000000000000 000000000000000000000000000000000000000     00000000                                                                                                                        000000000000000000
F0010000007902000002000090050144800041450500000000000000000201511180002001PLASTICOS JR ASOCIADOS SAS                        C000000004300000000000000000000000100010010000000000000000000000F0010000007902000220151118000101 00000000000000000000000000000000000000000000000000000000000000000000000000000000000000000000000000000000000000000N 00000000000NCONT   00    00000000000          00000000000000000000000000000000000000000000 000000000000000A000000000000000000000000000000000000000000000 000000000000000000000000000000000000000     00000000                                                                                                                        000000000000000000
F0010000007902000003000090050144800042505000000000000000000201511180002001PLASTICOS JR ASOCIADOS SAS                        C000000001000000000000000000000000100010010000000000000000000000F0010000007902000320151118000101 00000000000000000000000000000000000000000000000000000000000000000000000000000000000000000000000000000000000000000N 00000000000NCONT   00    00000000000          00000000000000000000000000000000000000000000 000000000000000A000000000000000000000000000000000000000000000 000000000000000000000000000000000000000     00000000                                                                                                                        000000000000000000
F0010000007902000004000090050144800023658300000000000000000201511180002001PLASTICOS JR ASOCIADOS SAS                        C000000000034400000000000000000000100010010000000000000000000000F0010000007902000420151118000101 00000000000000000000000000000000000000000000000000000000000000000000000000000000000000000000000000000000000000000N 00000000000NCONT   00    00000000000          00000000000000000000000000000000000000000000 000000000000000A000000000000000000000000000000000000000000000 000000000000000000000000000000000000000     00000000                                                                                                                        000000000000000000
F0010000007902000005000090050144800013552100000000000000000201511180002001PLASTICOS JR ASOCIADOS SAS                        D000000000034400000000000000000000100010010000000000000000000000F0010000007902000520151118000101 00000000000000000000000000000000000000000000000000000000000000000000000000000000000000000000000000000000000000000N 00000000000NCONT   00    00000000000          00000000000000000000000000000000000000000000 000000000000000A000000000000000000000000000000000000000000000 000000000000000000000000000000000000000     00000000                                                                                                                        000000000000000000
F0010000007902100001000090015305700011050500000000000000000201511180002001PLASTICOS Y SERVICIOS BARRANQUILLA EU             D000000011000000000000000000000000100010010000000000000000000000F0010000007902100120151118000101 00000000000000000000000000000000000000000000000000000000000000000000000000000000000000000000000000000000000000000N 00000000000NCONT   00    00000000000          00000000000000000000000000000000000000000000 000000000000000A000000000000000000000000000000000000000000000 000000000000000000000000000000000000000     00000000                                                                                                                        000000000000000000
F0010000007902100002000090015305700041450500000000000000000201511180002001PLASTICOS Y SERVICIOS BARRANQUILLA EU             C000000009000000000000000000000000100010010000000000000000000000F0010000007902100220151118000101 00000000000000000000000000000000000000000000000000000000000000000000000000000000000000000000000000000000000000000N 00000000000NCONT   00    00000000000          00000000000000000000000000000000000000000000 000000000000000A000000000000000000000000000000000000000000000 000000000000000000000000000000000000000     00000000                                                                                                                        000000000000000000
F0010000007902100003000090015305700042505000000000000000000201511180002001PLASTICOS Y SERVICIOS BARRANQUILLA EU             C000000002000000000000000000000000100010010000000000000000000000F0010000007902100320151118000101 00000000000000000000000000000000000000000000000000000000000000000000000000000000000000000000000000000000000000000N 00000000000NCONT   00    00000000000          00000000000000000000000000000000000000000000 000000000000000A000000000000000000000000000000000000000000000 000000000000000000000000000000000000000     00000000                                                                                                                        000000000000000000
F0010000007902100004000090015305700023658300000000000000000201511180002001PLASTICOS Y SERVICIOS BARRANQUILLA EU             C000000000072000000000000000000000100010010000000000000000000000F0010000007902100420151118000101 00000000000000000000000000000000000000000000000000000000000000000000000000000000000000000000000000000000000000000N 00000000000NCONT   00    00000000000          00000000000000000000000000000000000000000000 000000000000000A000000000000000000000000000000000000000000000 000000000000000000000000000000000000000     00000000                                                                                                                        000000000000000000
F0010000007902100005000090015305700013552100000000000000000201511180002001PLASTICOS Y SERVICIOS BARRANQUILLA EU             D000000000072000000000000000000000100010010000000000000000000000F0010000007902100520151118000101 00000000000000000000000000000000000000000000000000000000000000000000000000000000000000000000000000000000000000000N 00000000000NCONT   00    00000000000          00000000000000000000000000000000000000000000 000000000000000A000000000000000000000000000000000000000000000 000000000000000000000000000000000000000     00000000                                                                                                                        000000000000000000
F0010000007902200001000090015305700011050500000000000000000201511180002001PLASTICOS Y SERVICIOS BARRANQUILLA EU             D000000005500000000000000000000000100010010000000000000000000000F0010000007902200120151118000101 00000000000000000000000000000000000000000000000000000000000000000000000000000000000000000000000000000000000000000N 00000000000NCONT   00    00000000000          00000000000000000000000000000000000000000000 000000000000000A000000000000000000000000000000000000000000000 000000000000000000000000000000000000000     00000000                                                                                                                        000000000000000000
F0010000007902200002000090015305700041450500000000000000000201511180002001PLASTICOS Y SERVICIOS BARRANQUILLA EU             C000000004500000000000000000000000100010010000000000000000000000F0010000007902200220151118000101 00000000000000000000000000000000000000000000000000000000000000000000000000000000000000000000000000000000000000000N 00000000000NCONT   00    00000000000          00000000000000000000000000000000000000000000 000000000000000A000000000000000000000000000000000000000000000 000000000000000000000000000000000000000     00000000                                                                                                                        000000000000000000
F0010000007902200003000090015305700042505000000000000000000201511180002001PLASTICOS Y SERVICIOS BARRANQUILLA EU             C000000001000000000000000000000000100010010000000000000000000000F0010000007902200320151118000101 00000000000000000000000000000000000000000000000000000000000000000000000000000000000000000000000000000000000000000N 00000000000NCONT   00    00000000000          00000000000000000000000000000000000000000000 000000000000000A000000000000000000000000000000000000000000000 000000000000000000000000000000000000000     00000000                                                                                                                        000000000000000000
F0010000007902200004000090015305700023658300000000000000000201511180002001PLASTICOS Y SERVICIOS BARRANQUILLA EU             C000000000036000000000000000000000100010010000000000000000000000F0010000007902200420151118000101 00000000000000000000000000000000000000000000000000000000000000000000000000000000000000000000000000000000000000000N 00000000000NCONT   00    00000000000          00000000000000000000000000000000000000000000 000000000000000A000000000000000000000000000000000000000000000 000000000000000000000000000000000000000     00000000                                                                                                                        000000000000000000
F0010000007902200005000090015305700013552100000000000000000201511180002001PLASTICOS Y SERVICIOS BARRANQUILLA EU             D000000000036000000000000000000000100010010000000000000000000000F0010000007902200520151118000101 00000000000000000000000000000000000000000000000000000000000000000000000000000000000000000000000000000000000000000N 00000000000NCONT   00    00000000000          00000000000000000000000000000000000000000000 000000000000000A000000000000000000000000000000000000000000000 000000000000000000000000000000000000000     00000000                                                                                                                        000000000000000000
F0010000007902300001000090022477100011050500000000000000000201511180002001P.V.C DEL CARIBE                                  D000000006000000000000000000000000100010010000000000000000000000F0010000007902300120151118000101 00000000000000000000000000000000000000000000000000000000000000000000000000000000000000000000000000000000000000000N 00000000000NCONT   00    00000000000          00000000000000000000000000000000000000000000 000000000000000A000000000000000000000000000000000000000000000 000000000000000000000000000000000000000     00000000                                                                                                                        000000000000000000
F0010000007902300002000090022477100041450500000000000000000201511180002001P.V.C DEL CARIBE                                  C000000005100000000000000000000000100010010000000000000000000000F0010000007902300220151118000101 00000000000000000000000000000000000000000000000000000000000000000000000000000000000000000000000000000000000000000N 00000000000NCONT   00    00000000000          00000000000000000000000000000000000000000000 000000000000000A000000000000000000000000000000000000000000000 000000000000000000000000000000000000000     00000000                                                                                                                        000000000000000000
F0010000007902300003000090022477100042505000000000000000000201511180002001P.V.C DEL CARIBE                                  C000000000900000000000000000000000100010010000000000000000000000F0010000007902300320151118000101 00000000000000000000000000000000000000000000000000000000000000000000000000000000000000000000000000000000000000000N 00000000000NCONT   00    00000000000          00000000000000000000000000000000000000000000 000000000000000A000000000000000000000000000000000000000000000 000000000000000000000000000000000000000     00000000                                                                                                                        000000000000000000
F0010000007902300004000090022477100023658300000000000000000201511180002001P.V.C DEL CARIBE                                  C000000000040800000000000000000000100010010000000000000000000000F0010000007902300420151118000101 00000000000000000000000000000000000000000000000000000000000000000000000000000000000000000000000000000000000000000N 00000000000NCONT   00    00000000000          00000000000000000000000000000000000000000000 000000000000000A000000000000000000000000000000000000000000000 000000000000000000000000000000000000000     00000000                                                                                                                        000000000000000000
F0010000007902300005000090022477100013552100000000000000000201511180002001P.V.C DEL CARIBE                                  D000000000040800000000000000000000100010010000000000000000000000F0010000007902300520151118000101 00000000000000000000000000000000000000000000000000000000000000000000000000000000000000000000000000000000000000000N 00000000000NCONT   00    00000000000          00000000000000000000000000000000000000000000 000000000000000A000000000000000000000000000000000000000000000 000000000000000000000000000000000000000     00000000                                                                                                                        000000000000000000
F0010000007902400001000080600492500011050500000000000000000201511180002001QUIMICA DEL CARIBE                                D000000008000000000000000000000000100010010000000000000000000000F0010000007902400120151118000101 00000000000000000000000000000000000000000000000000000000000000000000000000000000000000000000000000000000000000000N 00000000000NCONT   00    00000000000          00000000000000000000000000000000000000000000 000000000000000A000000000000000000000000000000000000000000000 000000000000000000000000000000000000000     00000000                                                                                                                        000000000000000000
F0010000007902400002000080600492500041450500000000000000000201511180002001QUIMICA DEL CARIBE                                C000000007200000000000000000000000100010010000000000000000000000F0010000007902400220151118000101 00000000000000000000000000000000000000000000000000000000000000000000000000000000000000000000000000000000000000000N 00000000000NCONT   00    00000000000          00000000000000000000000000000000000000000000 000000000000000A000000000000000000000000000000000000000000000 000000000000000000000000000000000000000     00000000                                                                                                                        000000000000000000
F0010000007902400003000080600492500042505000000000000000000201511180002001QUIMICA DEL CARIBE                                C000000000800000000000000000000000100010010000000000000000000000F0010000007902400320151118000101 00000000000000000000000000000000000000000000000000000000000000000000000000000000000000000000000000000000000000000N 00000000000NCONT   00    00000000000          00000000000000000000000000000000000000000000 000000000000000A000000000000000000000000000000000000000000000 000000000000000000000000000000000000000     00000000                                                                                                                        000000000000000000
F0010000007902400004000080600492500023658300000000000000000201511180002001QUIMICA DEL CARIBE                                C000000000057600000000000000000000100010010000000000000000000000F0010000007902400420151118000101 00000000000000000000000000000000000000000000000000000000000000000000000000000000000000000000000000000000000000000N 00000000000NCONT   00    00000000000          00000000000000000000000000000000000000000000 000000000000000A000000000000000000000000000000000000000000000 000000000000000000000000000000000000000     00000000                                                                                                                        000000000000000000
F0010000007902400005000080600492500013552100000000000000000201511180002001QUIMICA DEL CARIBE                                D000000000057600000000000000000000100010010000000000000000000000F0010000007902400520151118000101 00000000000000000000000000000000000000000000000000000000000000000000000000000000000000000000000000000000000000000N 00000000000NCONT   00    00000000000          00000000000000000000000000000000000000000000 000000000000000A000000000000000000000000000000000000000000000 000000000000000000000000000000000000000     00000000                                                                                                                        000000000000000000
F0010000007902500001000090087617400011050500000000000000000201511180002001MASTERGLASS PREMIUM GROUP SAS                     D000000004200000000000000000000000100010010000000000000000000000F0010000007902500120151118000101 00000000000000000000000000000000000000000000000000000000000000000000000000000000000000000000000000000000000000000N 00000000000NCONT   00    00000000000          00000000000000000000000000000000000000000000 000000000000000A000000000000000000000000000000000000000000000 000000000000000000000000000000000000000     00000000                                                                                                                        000000000000000000
F0010000007902500002000090087617400041450500000000000000000201511180002001MASTERGLASS PREMIUM GROUP SAS                     C000000003500000000000000000000000100010010000000000000000000000F0010000007902500220151118000101 00000000000000000000000000000000000000000000000000000000000000000000000000000000000000000000000000000000000000000N 00000000000NCONT   00    00000000000          00000000000000000000000000000000000000000000 000000000000000A000000000000000000000000000000000000000000000 000000000000000000000000000000000000000     00000000                                                                                                                        000000000000000000
F0010000007902500003000090087617400042505000000000000000000201511180002001MASTERGLASS PREMIUM GROUP SAS                     C000000000700000000000000000000000100010010000000000000000000000F0010000007902500320151118000101 00000000000000000000000000000000000000000000000000000000000000000000000000000000000000000000000000000000000000000N 00000000000NCONT   00    00000000000          00000000000000000000000000000000000000000000 000000000000000A000000000000000000000000000000000000000000000 000000000000000000000000000000000000000     00000000                                                                                                                        000000000000000000
F0010000007902500004000090087617400023658300000000000000000201511180002001MASTERGLASS PREMIUM GROUP SAS                     C000000000028000000000000000000000100010010000000000000000000000F0010000007902500420151118000101 00000000000000000000000000000000000000000000000000000000000000000000000000000000000000000000000000000000000000000N 00000000000NCONT   00    00000000000          00000000000000000000000000000000000000000000 000000000000000A000000000000000000000000000000000000000000000 000000000000000000000000000000000000000     00000000                                                                                                                        000000000000000000
F0010000007902500005000090087617400013552100000000000000000201511180002001MASTERGLASS PREMIUM GROUP SAS                     D000000000028000000000000000000000100010010000000000000000000000F0010000007902500520151118000101 00000000000000000000000000000000000000000000000000000000000000000000000000000000000000000000000000000000000000000N 00000000000NCONT   00    00000000000          00000000000000000000000000000000000000000000 000000000000000A000000000000000000000000000000000000000000000 000000000000000000000000000000000000000     00000000                                                                                                                        000000000000000000
F0010000007902600001000007225583900011050500000000000000000201511180002001JORGE LUIS NIÑO BLANCO                           D000000004000000000000000000000000100010010000000000000000000000F0010000007902600120151118000101 00000000000000000000000000000000000000000000000000000000000000000000000000000000000000000000000000000000000000000N 00000000000NCONT   00    00000000000          00000000000000000000000000000000000000000000 000000000000000A000000000000000000000000000000000000000000000 000000000000000000000000000000000000000     00000000                                                                                                                        000000000000000000
F0010000007902600002000007225583900041450500000000000000000201511180002001JORGE LUIS NIÑO BLANCO                           C000000003700000000000000000000000100010010000000000000000000000F0010000007902600220151118000101 00000000000000000000000000000000000000000000000000000000000000000000000000000000000000000000000000000000000000000N 00000000000NCONT   00    00000000000          00000000000000000000000000000000000000000000 000000000000000A000000000000000000000000000000000000000000000 000000000000000000000000000000000000000     00000000                                                                                                                        000000000000000000
F0010000007902600003000007225583900042505000000000000000000201511180002001JORGE LUIS NIÑO BLANCO                           C000000000300000000000000000000000100010010000000000000000000000F0010000007902600320151118000101 00000000000000000000000000000000000000000000000000000000000000000000000000000000000000000000000000000000000000000N 00000000000NCONT   00    00000000000          00000000000000000000000000000000000000000000 000000000000000A000000000000000000000000000000000000000000000 000000000000000000000000000000000000000     00000000                                                                                                                        000000000000000000
F0010000007902600004000007225583900023658300000000000000000201511180002001JORGE LUIS NIÑO BLANCO                           C000000000029600000000000000000000100010010000000000000000000000F0010000007902600420151118000101 00000000000000000000000000000000000000000000000000000000000000000000000000000000000000000000000000000000000000000N 00000000000NCONT   00    00000000000          00000000000000000000000000000000000000000000 000000000000000A000000000000000000000000000000000000000000000 000000000000000000000000000000000000000     00000000                                                                                                                        000000000000000000
F0010000007902600005000007225583900013552100000000000000000201511180002001JORGE LUIS NIÑO BLANCO                           D000000000029600000000000000000000100010010000000000000000000000F0010000007902600520151118000101 00000000000000000000000000000000000000000000000000000000000000000000000000000000000000000000000000000000000000000N 00000000000NCONT   00    00000000000          00000000000000000000000000000000000000000000 000000000000000A000000000000000000000000000000000000000000000 000000000000000000000000000000000000000     00000000                                                                                                                        000000000000000000
F0010000007902700001000007225583900011050500000000000000000201511180002001JORGE LUIS NIÑO BLANCO                           D000000002500000000000000000000000100010010000000000000000000000F0010000007902700120151118000101 00000000000000000000000000000000000000000000000000000000000000000000000000000000000000000000000000000000000000000N 00000000000NCONT   00    00000000000          00000000000000000000000000000000000000000000 000000000000000A000000000000000000000000000000000000000000000 000000000000000000000000000000000000000     00000000                                                                                                                        000000000000000000
F0010000007902700002000007225583900041450500000000000000000201511180002001JORGE LUIS NIÑO BLANCO                           C000000002200000000000000000000000100010010000000000000000000000F0010000007902700220151118000101 00000000000000000000000000000000000000000000000000000000000000000000000000000000000000000000000000000000000000000N 00000000000NCONT   00    00000000000          00000000000000000000000000000000000000000000 000000000000000A000000000000000000000000000000000000000000000 000000000000000000000000000000000000000     00000000                                                                                                                        000000000000000000
F0010000007902700003000007225583900042505000000000000000000201511180002001JORGE LUIS NIÑO BLANCO                           C000000000300000000000000000000000100010010000000000000000000000F0010000007902700320151118000101 00000000000000000000000000000000000000000000000000000000000000000000000000000000000000000000000000000000000000000N 00000000000NCONT   00    00000000000          00000000000000000000000000000000000000000000 000000000000000A000000000000000000000000000000000000000000000 000000000000000000000000000000000000000     00000000                                                                                                                        000000000000000000
F0010000007902700004000007225583900023658300000000000000000201511180002001JORGE LUIS NIÑO BLANCO                           C000000000017600000000000000000000100010010000000000000000000000F0010000007902700420151118000101 00000000000000000000000000000000000000000000000000000000000000000000000000000000000000000000000000000000000000000N 00000000000NCONT   00    00000000000          00000000000000000000000000000000000000000000 000000000000000A000000000000000000000000000000000000000000000 000000000000000000000000000000000000000     00000000                                                                                                                        000000000000000000
F0010000007902700005000007225583900013552100000000000000000201511180002001JORGE LUIS NIÑO BLANCO                           D000000000017600000000000000000000100010010000000000000000000000F0010000007902700520151118000101 00000000000000000000000000000000000000000000000000000000000000000000000000000000000000000000000000000000000000000N 00000000000NCONT   00    00000000000          00000000000000000000000000000000000000000000 000000000000000A000000000000000000000000000000000000000000000 000000000000000000000000000000000000000     00000000                                                                                                                        000000000000000000
F0010000007902800001000007225583900011050500000000000000000201511180002001JORGE LUIS NIÑO BLANCO                           D000000004500000000000000000000000100010010000000000000000000000F0010000007902800120151118000101 00000000000000000000000000000000000000000000000000000000000000000000000000000000000000000000000000000000000000000N 00000000000NCONT   00    00000000000          00000000000000000000000000000000000000000000 000000000000000A000000000000000000000000000000000000000000000 000000000000000000000000000000000000000     00000000                                                                                                                        000000000000000000
F0010000007902800002000007225583900041450500000000000000000201511180002001JORGE LUIS NIÑO BLANCO                           C000000004100000000000000000000000100010010000000000000000000000F0010000007902800220151118000101 00000000000000000000000000000000000000000000000000000000000000000000000000000000000000000000000000000000000000000N 00000000000NCONT   00    00000000000          00000000000000000000000000000000000000000000 000000000000000A000000000000000000000000000000000000000000000 000000000000000000000000000000000000000     00000000                                                                                                                        000000000000000000
F0010000007902800003000007225583900042505000000000000000000201511180002001JORGE LUIS NIÑO BLANCO                           C000000000400000000000000000000000100010010000000000000000000000F0010000007902800320151118000101 00000000000000000000000000000000000000000000000000000000000000000000000000000000000000000000000000000000000000000N 00000000000NCONT   00    00000000000          00000000000000000000000000000000000000000000 000000000000000A000000000000000000000000000000000000000000000 000000000000000000000000000000000000000     00000000                                                                                                                        000000000000000000
F0010000007902800004000007225583900023658300000000000000000201511180002001JORGE LUIS NIÑO BLANCO                           C000000000032800000000000000000000100010010000000000000000000000F0010000007902800420151118000101 00000000000000000000000000000000000000000000000000000000000000000000000000000000000000000000000000000000000000000N 00000000000NCONT   00    00000000000          00000000000000000000000000000000000000000000 000000000000000A000000000000000000000000000000000000000000000 000000000000000000000000000000000000000     00000000                                                                                                                        000000000000000000
F0010000007902800005000007225583900013552100000000000000000201511180002001JORGE LUIS NIÑO BLANCO                           D000000000032800000000000000000000100010010000000000000000000000F0010000007902800520151118000101 00000000000000000000000000000000000000000000000000000000000000000000000000000000000000000000000000000000000000000N 00000000000NCONT   00    00000000000          00000000000000000000000000000000000000000000 000000000000000A000000000000000000000000000000000000000000000 000000000000000000000000000000000000000     00000000                                                                                                                        000000000000000000
F0010000007902900001000007225583900011050500000000000000000201511180002001JORGE LUIS NIÑO BLANCO                           D000000005500000000000000000000000100010010000000000000000000000F0010000007902900120151118000101 00000000000000000000000000000000000000000000000000000000000000000000000000000000000000000000000000000000000000000N 00000000000NCONT   00    00000000000          00000000000000000000000000000000000000000000 000000000000000A000000000000000000000000000000000000000000000 000000000000000000000000000000000000000     00000000                                                                                                                        000000000000000000
F0010000007902900002000007225583900041450500000000000000000201511180002001JORGE LUIS NIÑO BLANCO                           C000000005100000000000000000000000100010010000000000000000000000F0010000007902900220151118000101 00000000000000000000000000000000000000000000000000000000000000000000000000000000000000000000000000000000000000000N 00000000000NCONT   00    00000000000          00000000000000000000000000000000000000000000 000000000000000A000000000000000000000000000000000000000000000 000000000000000000000000000000000000000     00000000                                                                                                                        000000000000000000
F0010000007902900003000007225583900042505000000000000000000201511180002001JORGE LUIS NIÑO BLANCO                           C000000000400000000000000000000000100010010000000000000000000000F0010000007902900320151118000101 00000000000000000000000000000000000000000000000000000000000000000000000000000000000000000000000000000000000000000N 00000000000NCONT   00    00000000000          00000000000000000000000000000000000000000000 000000000000000A000000000000000000000000000000000000000000000 000000000000000000000000000000000000000     00000000                                                                                                                        000000000000000000
F0010000007902900004000007225583900023658300000000000000000201511180002001JORGE LUIS NIÑO BLANCO                           C000000000040800000000000000000000100010010000000000000000000000F0010000007902900420151118000101 00000000000000000000000000000000000000000000000000000000000000000000000000000000000000000000000000000000000000000N 00000000000NCONT   00    00000000000          00000000000000000000000000000000000000000000 000000000000000A000000000000000000000000000000000000000000000 000000000000000000000000000000000000000     00000000                                                                                                                        000000000000000000
F0010000007902900005000007225583900013552100000000000000000201511180002001JORGE LUIS NIÑO BLANCO                           D000000000040800000000000000000000100010010000000000000000000000F0010000007902900520151118000101 00000000000000000000000000000000000000000000000000000000000000000000000000000000000000000000000000000000000000000N 00000000000NCONT   00    00000000000          00000000000000000000000000000000000000000000 000000000000000A000000000000000000000000000000000000000000000 000000000000000000000000000000000000000     00000000                                                                                                                        000000000000000000
F0010000007903000001000003918375500011050500000000000000000201511180002001GLORIA PEREZ R.                                   D000000003000000000000000000000000100010010000000000000000000000F0010000007903000120151118000101 00000000000000000000000000000000000000000000000000000000000000000000000000000000000000000000000000000000000000000N 00000000000NCONT   00    00000000000          00000000000000000000000000000000000000000000 000000000000000A000000000000000000000000000000000000000000000 000000000000000000000000000000000000000     00000000                                                                                                                        000000000000000000
F0010000007903000002000003918375500041450500000000000000000201511180002001GLORIA PEREZ R.                                   C000000001200000000000000000000000100010010000000000000000000000F0010000007903000220151118000101 00000000000000000000000000000000000000000000000000000000000000000000000000000000000000000000000000000000000000000N 00000000000NCONT   00    00000000000          00000000000000000000000000000000000000000000 000000000000000A000000000000000000000000000000000000000000000 000000000000000000000000000000000000000     00000000                                                                                                                        000000000000000000
F0010000007903000003000003918375500042505000000000000000000201511180002001GLORIA PEREZ R.                                   C000000001800000000000000000000000100010010000000000000000000000F0010000007903000320151118000101 00000000000000000000000000000000000000000000000000000000000000000000000000000000000000000000000000000000000000000N 00000000000NCONT   00    00000000000          00000000000000000000000000000000000000000000 000000000000000A000000000000000000000000000000000000000000000 000000000000000000000000000000000000000     00000000                                                                                                                        000000000000000000
F0010000007903000004000003918375500023658300000000000000000201511180002001GLORIA PEREZ R.                                   C000000000009600000000000000000000100010010000000000000000000000F0010000007903000420151118000101 00000000000000000000000000000000000000000000000000000000000000000000000000000000000000000000000000000000000000000N 00000000000NCONT   00    00000000000          00000000000000000000000000000000000000000000 000000000000000A000000000000000000000000000000000000000000000 000000000000000000000000000000000000000     00000000                                                                                                                        000000000000000000
F0010000007903000005000003918375500013552100000000000000000201511180002001GLORIA PEREZ R.                                   D000000000009600000000000000000000100010010000000000000000000000F0010000007903000520151118000101 00000000000000000000000000000000000000000000000000000000000000000000000000000000000000000000000000000000000000000N 00000000000NCONT   00    00000000000          00000000000000000000000000000000000000000000 000000000000000A000000000000000000000000000000000000000000000 000000000000000000000000000000000000000     00000000                                                                                                                        000000000000000000
F0010000007903100001000080201411900011050500000000000000000201511180002001PLASTISERVICIOS S DE H                            D000000003000000000000000000000000100010010000000000000000000000F0010000007903100120151118000101 00000000000000000000000000000000000000000000000000000000000000000000000000000000000000000000000000000000000000000N 00000000000NCONT   00    00000000000          00000000000000000000000000000000000000000000 000000000000000A000000000000000000000000000000000000000000000 000000000000000000000000000000000000000     00000000                                                                                                                        000000000000000000
F0010000007903100002000080201411900041450500000000000000000201511180002001PLASTISERVICIOS S DE H                            C000000002700000000000000000000000100010010000000000000000000000F0010000007903100220151118000101 00000000000000000000000000000000000000000000000000000000000000000000000000000000000000000000000000000000000000000N 00000000000NCONT   00    00000000000          00000000000000000000000000000000000000000000 000000000000000A000000000000000000000000000000000000000000000 000000000000000000000000000000000000000     00000000                                                                                                                        000000000000000000
F0010000007903100003000080201411900042505000000000000000000201511180002001PLASTISERVICIOS S DE H                            C000000000300000000000000000000000100010010000000000000000000000F0010000007903100320151118000101 00000000000000000000000000000000000000000000000000000000000000000000000000000000000000000000000000000000000000000N 00000000000NCONT   00    00000000000          00000000000000000000000000000000000000000000 000000000000000A000000000000000000000000000000000000000000000 000000000000000000000000000000000000000     00000000                                                                                                                        000000000000000000
F0010000007903100004000080201411900023658300000000000000000201511180002001PLASTISERVICIOS S DE H                            C000000000021600000000000000000000100010010000000000000000000000F0010000007903100420151118000101 00000000000000000000000000000000000000000000000000000000000000000000000000000000000000000000000000000000000000000N 00000000000NCONT   00    00000000000          00000000000000000000000000000000000000000000 000000000000000A000000000000000000000000000000000000000000000 000000000000000000000000000000000000000     00000000                                                                                                                        000000000000000000
F0010000007903100005000080201411900013552100000000000000000201511180002001PLASTISERVICIOS S DE H                            D000000000021600000000000000000000100010010000000000000000000000F0010000007903100520151118000101 00000000000000000000000000000000000000000000000000000000000000000000000000000000000000000000000000000000000000000N 00000000000NCONT   00    00000000000          00000000000000000000000000000000000000000000 000000000000000A000000000000000000000000000000000000000000000 000000000000000000000000000000000000000     00000000                                                                                                                        000000000000000000
F0010000007903200001000005525050200011050500000000000000000201511180002001PLASTICOS  DE LA COSTA                            D000000003312000000000000000000000100010010000000000000000000000F0010000007903200120151118000101 00000000000000000000000000000000000000000000000000000000000000000000000000000000000000000000000000000000000000000N 00000000000NCONT   00    00000000000          00000000000000000000000000000000000000000000 000000000000000A000000000000000000000000000000000000000000000 000000000000000000000000000000000000000     00000000                                                                                                                        000000000000000000
F0010000007903200002000005525050200041450500000000000000000201511180002001PLASTICOS  DE LA COSTA                            C000000003212000000000000000000000100010010000000000000000000000F0010000007903200220151118000101 00000000000000000000000000000000000000000000000000000000000000000000000000000000000000000000000000000000000000000N 00000000000NCONT   00    00000000000          00000000000000000000000000000000000000000000 000000000000000A000000000000000000000000000000000000000000000 000000000000000000000000000000000000000     00000000                                                                                                                        000000000000000000
F0010000007903200003000005525050200042505000000000000000000201511180002001PLASTICOS  DE LA COSTA                            C000000000100000000000000000000000100010010000000000000000000000F0010000007903200320151118000101 00000000000000000000000000000000000000000000000000000000000000000000000000000000000000000000000000000000000000000N 00000000000NCONT   00    00000000000          00000000000000000000000000000000000000000000 000000000000000A000000000000000000000000000000000000000000000 000000000000000000000000000000000000000     00000000                                                                                                                        000000000000000000
F0010000007903200004000005525050200023658300000000000000000201511180002001PLASTICOS  DE LA COSTA                            C000000000025700000000000000000000100010010000000000000000000000F0010000007903200420151118000101 00000000000000000000000000000000000000000000000000000000000000000000000000000000000000000000000000000000000000000N 00000000000NCONT   00    00000000000          00000000000000000000000000000000000000000000 000000000000000A000000000000000000000000000000000000000000000 000000000000000000000000000000000000000     00000000                                                                                                                        000000000000000000
F0010000007903200005000005525050200013552100000000000000000201511180002001PLASTICOS  DE LA COSTA                            D000000000025700000000000000000000100010010000000000000000000000F0010000007903200520151118000101 00000000000000000000000000000000000000000000000000000000000000000000000000000000000000000000000000000000000000000N 00000000000NCONT   00    00000000000          00000000000000000000000000000000000000000000 000000000000000A000000000000000000000000000000000000000000000 000000000000000000000000000000000000000     00000000                                                                                                                        000000000000000000
F0010000007903300001000002245670100011050500000000000000000201511180002001YOLANDA  TOBON                                    D000000001000000000000000000000000100010010000000000000000000000F0010000007903300120151118000101 00000000000000000000000000000000000000000000000000000000000000000000000000000000000000000000000000000000000000000N 00000000000NCONT   00    00000000000          00000000000000000000000000000000000000000000 000000000000000A000000000000000000000000000000000000000000000 000000000000000000000000000000000000000     00000000                                                                                                                        000000000000000000
F0010000007903300002000002245670100041450500000000000000000201511180002001YOLANDA  TOBON                                    C000000000700000000000000000000000100010010000000000000000000000F0010000007903300220151118000101 00000000000000000000000000000000000000000000000000000000000000000000000000000000000000000000000000000000000000000N 00000000000NCONT   00    00000000000          00000000000000000000000000000000000000000000 000000000000000A000000000000000000000000000000000000000000000 000000000000000000000000000000000000000     00000000                                                                                                                        000000000000000000
F0010000007903300003000002245670100042505000000000000000000201511180002001YOLANDA  TOBON                                    C000000000300000000000000000000000100010010000000000000000000000F0010000007903300320151118000101 00000000000000000000000000000000000000000000000000000000000000000000000000000000000000000000000000000000000000000N 00000000000NCONT   00    00000000000          00000000000000000000000000000000000000000000 000000000000000A000000000000000000000000000000000000000000000 000000000000000000000000000000000000000     00000000                                                                                                                        000000000000000000
F0010000007903300004000002245670100023658300000000000000000201511180002001YOLANDA  TOBON                                    C000000000005600000000000000000000100010010000000000000000000000F0010000007903300420151118000101 00000000000000000000000000000000000000000000000000000000000000000000000000000000000000000000000000000000000000000N 00000000000NCONT   00    00000000000          00000000000000000000000000000000000000000000 000000000000000A000000000000000000000000000000000000000000000 000000000000000000000000000000000000000     00000000                                                                                                                        000000000000000000
F0010000007903300005000002245670100013552100000000000000000201511180002001YOLANDA  TOBON                                    D000000000005600000000000000000000100010010000000000000000000000F0010000007903300520151118000101 00000000000000000000000000000000000000000000000000000000000000000000000000000000000000000000000000000000000000000N 00000000000NCONT   00    00000000000          00000000000000000000000000000000000000000000 000000000000000A000000000000000000000000000000000000000000000 000000000000000000000000000000000000000     00000000                                                                                                                        000000000000000000
F0010000007903400001000080202350700011050500000000000000000201511180002001CONNY DE LA COSTA SAS                             D000000013000000000000000000000000100010010000000000000000000000F0010000007903400120151118000101 00000000000000000000000000000000000000000000000000000000000000000000000000000000000000000000000000000000000000000N 00000000000NCONT   00    00000000000          00000000000000000000000000000000000000000000 000000000000000A000000000000000000000000000000000000000000000 000000000000000000000000000000000000000     00000000                                                                                                                        000000000000000000
F0010000007903400002000080202350700041450500000000000000000201511180002001CONNY DE LA COSTA SAS                             C000000010500000000000000000000000100010010000000000000000000000F0010000007903400220151118000101 00000000000000000000000000000000000000000000000000000000000000000000000000000000000000000000000000000000000000000N 00000000000NCONT   00    00000000000          00000000000000000000000000000000000000000000 000000000000000A000000000000000000000000000000000000000000000 000000000000000000000000000000000000000     00000000                                                                                                                        000000000000000000
F0010000007903400003000080202350700042505000000000000000000201511180002001CONNY DE LA COSTA SAS                             C000000002500000000000000000000000100010010000000000000000000000F0010000007903400320151118000101 00000000000000000000000000000000000000000000000000000000000000000000000000000000000000000000000000000000000000000N 00000000000NCONT   00    00000000000          00000000000000000000000000000000000000000000 000000000000000A000000000000000000000000000000000000000000000 000000000000000000000000000000000000000     00000000                                                                                                                        000000000000000000
F0010000007903400004000080202350700023658300000000000000000201511180002001CONNY DE LA COSTA SAS                             C000000000084000000000000000000000100010010000000000000000000000F0010000007903400420151118000101 00000000000000000000000000000000000000000000000000000000000000000000000000000000000000000000000000000000000000000N 00000000000NCONT   00    00000000000          00000000000000000000000000000000000000000000 000000000000000A000000000000000000000000000000000000000000000 000000000000000000000000000000000000000     00000000                                                                                                                        000000000000000000
F0010000007903400005000080202350700013552100000000000000000201511180002001CONNY DE LA COSTA SAS                             D000000000084000000000000000000000100010010000000000000000000000F0010000007903400520151118000101 00000000000000000000000000000000000000000000000000000000000000000000000000000000000000000000000000000000000000000N 00000000000NCONT   00    00000000000          00000000000000000000000000000000000000000000 000000000000000A000000000000000000000000000000000000000000000 000000000000000000000000000000000000000     00000000                                                                                                                        000000000000000000
F0010000007903500001000000742399700011050500000000000000000201511180002001CACHARRERIA EL NUEVO CHADID                       D000000007000000000000000000000000100010010000000000000000000000F0010000007903500120151118000101 00000000000000000000000000000000000000000000000000000000000000000000000000000000000000000000000000000000000000000N 00000000000NCONT   00    00000000000          00000000000000000000000000000000000000000000 000000000000000A000000000000000000000000000000000000000000000 000000000000000000000000000000000000000     00000000                                                                                                                        000000000000000000
F0010000007903500002000000742399700041450500000000000000000201511180002001CACHARRERIA EL NUEVO CHADID                       C000000005500000000000000000000000100010010000000000000000000000F0010000007903500220151118000101 00000000000000000000000000000000000000000000000000000000000000000000000000000000000000000000000000000000000000000N 00000000000NCONT   00    00000000000          00000000000000000000000000000000000000000000 000000000000000A000000000000000000000000000000000000000000000 000000000000000000000000000000000000000     00000000                                                                                                                        000000000000000000
F0010000007903500003000000742399700042505000000000000000000201511180002001CACHARRERIA EL NUEVO CHADID                       C000000001500000000000000000000000100010010000000000000000000000F0010000007903500320151118000101 00000000000000000000000000000000000000000000000000000000000000000000000000000000000000000000000000000000000000000N 00000000000NCONT   00    00000000000          00000000000000000000000000000000000000000000 000000000000000A000000000000000000000000000000000000000000000 000000000000000000000000000000000000000     00000000                                                                                                                        000000000000000000
F0010000007903500004000000742399700023658300000000000000000201511180002001CACHARRERIA EL NUEVO CHADID                       C000000000044000000000000000000000100010010000000000000000000000F0010000007903500420151118000101 00000000000000000000000000000000000000000000000000000000000000000000000000000000000000000000000000000000000000000N 00000000000NCONT   00    00000000000          00000000000000000000000000000000000000000000 000000000000000A000000000000000000000000000000000000000000000 000000000000000000000000000000000000000     00000000                                                                                                                        000000000000000000
F0010000007903500005000000742399700013552100000000000000000201511180002001CACHARRERIA EL NUEVO CHADID                       D000000000044000000000000000000000100010010000000000000000000000F0010000007903500520151118000101 00000000000000000000000000000000000000000000000000000000000000000000000000000000000000000000000000000000000000000N 00000000000NCONT   00    00000000000          00000000000000000000000000000000000000000000 000000000000000A000000000000000000000000000000000000000000000 000000000000000000000000000000000000000     00000000                                                                                                                        000000000000000000
F0010000007903600001000080202350700011050500000000000000000201511180002001CONNY DE LA COSTA SAS                             D000000001200000000000000000000000100010010000000000000000000000F0010000007903600120151118000101 00000000000000000000000000000000000000000000000000000000000000000000000000000000000000000000000000000000000000000N 00000000000NCONT   00    00000000000          00000000000000000000000000000000000000000000 000000000000000A000000000000000000000000000000000000000000000 000000000000000000000000000000000000000     00000000                                                                                                                        000000000000000000
