F0010000005754900001000090020547900011050500000000000000000201404300002001DAC DEL CARIBE S.A.S.                             D000000001730000000000000000000000100010010000000000000000000000F0010000005754900120140430000101 00000000000000000000000000000000000000000000000000000000000000000000000000000000000000000000000000000000000000000N 00000000000NCONT   00    00000000000          00000000000000000000000000000000000000000000 000000000000000A000000000000000000000000000000000000000000000 000000000000000000000000000000000000000     00000000                                                                                                                        000000000000000000
F0010000005754900002000090020547900041450500000000000000000201404300002001DAC DEL CARIBE S.A.S.                             C000000001300000000000000000000000100010010000000000000000000000F0010000005754900220140430000101 00000000000000000000000000000000000000000000000000000000000000000000000000000000000000000000000000000000000000000N 00000000000NCONT   00    00000000000          00000000000000000000000000000000000000000000 000000000000000A000000000000000000000000000000000000000000000 000000000000000000000000000000000000000     00000000                                                                                                                        000000000000000000
F0010000005754900003000090020547900042505000000000000000000201404300002001DAC DEL CARIBE S.A.S.                             C000000000430000000000000000000000100010010000000000000000000000F0010000005754900320140430000101 00000000000000000000000000000000000000000000000000000000000000000000000000000000000000000000000000000000000000000N 00000000000NCONT   00    00000000000          00000000000000000000000000000000000000000000 000000000000000A000000000000000000000000000000000000000000000 000000000000000000000000000000000000000     00000000                                                                                                                        000000000000000000
F0010000005754900004000090020547900023658300000000000000000201404300002001DAC DEL CARIBE S.A.S.                             C000000000010400000000000000000000100010010000000000000000000000F0010000005754900420140430000101 00000000000000000000000000000000000000000000000000000000000000000000000000000000000000000000000000000000000000000N 00000000000NCONT   00    00000000000          00000000000000000000000000000000000000000000 000000000000000A000000000000000000000000000000000000000000000 000000000000000000000000000000000000000     00000000                                                                                                                        000000000000000000
F0010000005754900005000090020547900013552100000000000000000201404300002001DAC DEL CARIBE S.A.S.                             D000000000010400000000000000000000100010010000000000000000000000F0010000005754900520140430000101 00000000000000000000000000000000000000000000000000000000000000000000000000000000000000000000000000000000000000000N 00000000000NCONT   00    00000000000          00000000000000000000000000000000000000000000 000000000000000A000000000000000000000000000000000000000000000 000000000000000000000000000000000000000     00000000                                                                                                                        000000000000000000
F0010000005755000001000090020547900011050500000000000000000201404300002001DAC DEL CARIBE S.A.S.                             D000000003500000000000000000000000100010010000000000000000000000F0010000005755000120140430000101 00000000000000000000000000000000000000000000000000000000000000000000000000000000000000000000000000000000000000000N 00000000000NCONT   00    00000000000          00000000000000000000000000000000000000000000 000000000000000A000000000000000000000000000000000000000000000 000000000000000000000000000000000000000     00000000                                                                                                                        000000000000000000
F0010000005755000002000090020547900041450500000000000000000201404300002001DAC DEL CARIBE S.A.S.                             C000000002400000000000000000000000100010010000000000000000000000F0010000005755000220140430000101 00000000000000000000000000000000000000000000000000000000000000000000000000000000000000000000000000000000000000000N 00000000000NCONT   00    00000000000          00000000000000000000000000000000000000000000 000000000000000A000000000000000000000000000000000000000000000 000000000000000000000000000000000000000     00000000                                                                                                                        000000000000000000
F0010000005755000003000090020547900042505000000000000000000201404300002001DAC DEL CARIBE S.A.S.                             C000000001100000000000000000000000100010010000000000000000000000F0010000005755000320140430000101 00000000000000000000000000000000000000000000000000000000000000000000000000000000000000000000000000000000000000000N 00000000000NCONT   00    00000000000          00000000000000000000000000000000000000000000 000000000000000A000000000000000000000000000000000000000000000 000000000000000000000000000000000000000     00000000                                                                                                                        000000000000000000
F0010000005755000004000090020547900023658300000000000000000201404300002001DAC DEL CARIBE S.A.S.                             C000000000019200000000000000000000100010010000000000000000000000F0010000005755000420140430000101 00000000000000000000000000000000000000000000000000000000000000000000000000000000000000000000000000000000000000000N 00000000000NCONT   00    00000000000          00000000000000000000000000000000000000000000 000000000000000A000000000000000000000000000000000000000000000 000000000000000000000000000000000000000     00000000                                                                                                                        000000000000000000
F0010000005755000005000090020547900013552100000000000000000201404300002001DAC DEL CARIBE S.A.S.                             D000000000019200000000000000000000100010010000000000000000000000F0010000005755000520140430000101 00000000000000000000000000000000000000000000000000000000000000000000000000000000000000000000000000000000000000000N 00000000000NCONT   00    00000000000          00000000000000000000000000000000000000000000 000000000000000A000000000000000000000000000000000000000000000 000000000000000000000000000000000000000     00000000                                                                                                                        000000000000000000
F0010000005755100001000090020547900011050500000000000000000201404300002001DAC DEL CARIBE S.A.S.                             D000000003310000000000000000000000100010010000000000000000000000F0010000005755100120140430000101 00000000000000000000000000000000000000000000000000000000000000000000000000000000000000000000000000000000000000000N 00000000000NCONT   00    00000000000          00000000000000000000000000000000000000000000 000000000000000A000000000000000000000000000000000000000000000 000000000000000000000000000000000000000     00000000                                                                                                                        000000000000000000
F0010000005755100002000090020547900041450500000000000000000201404300002001DAC DEL CARIBE S.A.S.                             C000000002600000000000000000000000100010010000000000000000000000F0010000005755100220140430000101 00000000000000000000000000000000000000000000000000000000000000000000000000000000000000000000000000000000000000000N 00000000000NCONT   00    00000000000          00000000000000000000000000000000000000000000 000000000000000A000000000000000000000000000000000000000000000 000000000000000000000000000000000000000     00000000                                                                                                                        000000000000000000
F0010000005755100003000090020547900042505000000000000000000201404300002001DAC DEL CARIBE S.A.S.                             C000000000710000000000000000000000100010010000000000000000000000F0010000005755100320140430000101 00000000000000000000000000000000000000000000000000000000000000000000000000000000000000000000000000000000000000000N 00000000000NCONT   00    00000000000          00000000000000000000000000000000000000000000 000000000000000A000000000000000000000000000000000000000000000 000000000000000000000000000000000000000     00000000                                                                                                                        000000000000000000
F0010000005755100004000090020547900023658300000000000000000201404300002001DAC DEL CARIBE S.A.S.                             C000000000020800000000000000000000100010010000000000000000000000F0010000005755100420140430000101 00000000000000000000000000000000000000000000000000000000000000000000000000000000000000000000000000000000000000000N 00000000000NCONT   00    00000000000          00000000000000000000000000000000000000000000 000000000000000A000000000000000000000000000000000000000000000 000000000000000000000000000000000000000     00000000                                                                                                                        000000000000000000
F0010000005755100005000090020547900013552100000000000000000201404300002001DAC DEL CARIBE S.A.S.                             D000000000020800000000000000000000100010010000000000000000000000F0010000005755100520140430000101 00000000000000000000000000000000000000000000000000000000000000000000000000000000000000000000000000000000000000000N 00000000000NCONT   00    00000000000          00000000000000000000000000000000000000000000 000000000000000A000000000000000000000000000000000000000000000 000000000000000000000000000000000000000     00000000                                                                                                                        000000000000000000
F0010000005755200001000000745551800011050500000000000000000201404300002001JORGE ALMEIDA COGOLLO                             D000000002000000000000000000000000100010010000000000000000000000F0010000005755200120140430000101 00000000000000000000000000000000000000000000000000000000000000000000000000000000000000000000000000000000000000000N 00000000000NCONT   00    00000000000          00000000000000000000000000000000000000000000 000000000000000A000000000000000000000000000000000000000000000 000000000000000000000000000000000000000     00000000                                                                                                                        000000000000000000
F0010000005755200002000000745551800041450500000000000000000201404300002001JORGE ALMEIDA COGOLLO                             C000000001950000000000000000000000100010010000000000000000000000F0010000005755200220140430000101 00000000000000000000000000000000000000000000000000000000000000000000000000000000000000000000000000000000000000000N 00000000000NCONT   00    00000000000          00000000000000000000000000000000000000000000 000000000000000A000000000000000000000000000000000000000000000 000000000000000000000000000000000000000     00000000                                                                                                                        000000000000000000
F0010000005755200003000000745551800042505000000000000000000201404300002001JORGE ALMEIDA COGOLLO                             C000000000050000000000000000000000100010010000000000000000000000F0010000005755200320140430000101 00000000000000000000000000000000000000000000000000000000000000000000000000000000000000000000000000000000000000000N 00000000000NCONT   00    00000000000          00000000000000000000000000000000000000000000 000000000000000A000000000000000000000000000000000000000000000 000000000000000000000000000000000000000     00000000                                                                                                                        000000000000000000
F0010000005755200004000000745551800023658300000000000000000201404300002001JORGE ALMEIDA COGOLLO                             C000000000015600000000000000000000100010010000000000000000000000F0010000005755200420140430000101 00000000000000000000000000000000000000000000000000000000000000000000000000000000000000000000000000000000000000000N 00000000000NCONT   00    00000000000          00000000000000000000000000000000000000000000 000000000000000A000000000000000000000000000000000000000000000 000000000000000000000000000000000000000     00000000                                                                                                                        000000000000000000
F0010000005755200005000000745551800013552100000000000000000201404300002001JORGE ALMEIDA COGOLLO                             D000000000015600000000000000000000100010010000000000000000000000F0010000005755200520140430000101 00000000000000000000000000000000000000000000000000000000000000000000000000000000000000000000000000000000000000000N 00000000000NCONT   00    00000000000          00000000000000000000000000000000000000000000 000000000000000A000000000000000000000000000000000000000000000 000000000000000000000000000000000000000     00000000                                                                                                                        000000000000000000
F0010000005755300001000004977415500011050500000000000000000201404300002001NINFA  FONSECA ROMERO                             D000000002100000000000000000000000100010010000000000000000000000F0010000005755300120140430000101 00000000000000000000000000000000000000000000000000000000000000000000000000000000000000000000000000000000000000000N 00000000000NCONT   00    00000000000          00000000000000000000000000000000000000000000 000000000000000A000000000000000000000000000000000000000000000 000000000000000000000000000000000000000     00000000                                                                                                                        000000000000000000
F0010000005755300002000004977415500041450500000000000000000201404300002001NINFA  FONSECA ROMERO                             C000000001200000000000000000000000100010010000000000000000000000F0010000005755300220140430000101 00000000000000000000000000000000000000000000000000000000000000000000000000000000000000000000000000000000000000000N 00000000000NCONT   00    00000000000          00000000000000000000000000000000000000000000 000000000000000A000000000000000000000000000000000000000000000 000000000000000000000000000000000000000     00000000                                                                                                                        000000000000000000
F0010000005755300003000004977415500042505000000000000000000201404300002001NINFA  FONSECA ROMERO                             C000000000900000000000000000000000100010010000000000000000000000F0010000005755300320140430000101 00000000000000000000000000000000000000000000000000000000000000000000000000000000000000000000000000000000000000000N 00000000000NCONT   00    00000000000          00000000000000000000000000000000000000000000 000000000000000A000000000000000000000000000000000000000000000 000000000000000000000000000000000000000     00000000                                                                                                                        000000000000000000
F0010000005755300004000004977415500023658300000000000000000201404300002001NINFA  FONSECA ROMERO                             C000000000009600000000000000000000100010010000000000000000000000F0010000005755300420140430000101 00000000000000000000000000000000000000000000000000000000000000000000000000000000000000000000000000000000000000000N 00000000000NCONT   00    00000000000          00000000000000000000000000000000000000000000 000000000000000A000000000000000000000000000000000000000000000 000000000000000000000000000000000000000     00000000                                                                                                                        000000000000000000
F0010000005755300005000004977415500013552100000000000000000201404300002001NINFA  FONSECA ROMERO                             D000000000009600000000000000000000100010010000000000000000000000F0010000005755300520140430000101 00000000000000000000000000000000000000000000000000000000000000000000000000000000000000000000000000000000000000000N 00000000000NCONT   00    00000000000          00000000000000000000000000000000000000000000 000000000000000A000000000000000000000000000000000000000000000 000000000000000000000000000000000000000     00000000                                                                                                                        000000000000000000
F0010000005755400001000090034602400011050500000000000000000201404300002001LA CUSTODIA                                       D000000004000000000000000000000000100010010000000000000000000000F0010000005755400120140430000101 00000000000000000000000000000000000000000000000000000000000000000000000000000000000000000000000000000000000000000N 00000000000NCONT   00    00000000000          00000000000000000000000000000000000000000000 000000000000000A000000000000000000000000000000000000000000000 000000000000000000000000000000000000000     00000000                                                                                                                        000000000000000000
F0010000005755400002000090034602400041450500000000000000000201404300002001LA CUSTODIA                                       C000000003600000000000000000000000100010010000000000000000000000F0010000005755400220140430000101 00000000000000000000000000000000000000000000000000000000000000000000000000000000000000000000000000000000000000000N 00000000000NCONT   00    00000000000          00000000000000000000000000000000000000000000 000000000000000A000000000000000000000000000000000000000000000 000000000000000000000000000000000000000     00000000                                                                                                                        000000000000000000
F0010000005755400003000090034602400042505000000000000000000201404300002001LA CUSTODIA                                       C000000000400000000000000000000000100010010000000000000000000000F0010000005755400320140430000101 00000000000000000000000000000000000000000000000000000000000000000000000000000000000000000000000000000000000000000N 00000000000NCONT   00    00000000000          00000000000000000000000000000000000000000000 000000000000000A000000000000000000000000000000000000000000000 000000000000000000000000000000000000000     00000000                                                                                                                        000000000000000000
F0010000005755400004000090034602400023658300000000000000000201404300002001LA CUSTODIA                                       C000000000028800000000000000000000100010010000000000000000000000F0010000005755400420140430000101 00000000000000000000000000000000000000000000000000000000000000000000000000000000000000000000000000000000000000000N 00000000000NCONT   00    00000000000          00000000000000000000000000000000000000000000 000000000000000A000000000000000000000000000000000000000000000 000000000000000000000000000000000000000     00000000                                                                                                                        000000000000000000
F0010000005755400005000090034602400013552100000000000000000201404300002001LA CUSTODIA                                       D000000000028800000000000000000000100010010000000000000000000000F0010000005755400520140430000101 00000000000000000000000000000000000000000000000000000000000000000000000000000000000000000000000000000000000000000N 00000000000NCONT   00    00000000000          00000000000000000000000000000000000000000000 000000000000000A000000000000000000000000000000000000000000000 000000000000000000000000000000000000000     00000000                                                                                                                        000000000000000000
F0010000005755500001000000872776000011050500000000000000000201404300002001RICARDO ANGEL LEAL ORTEGA                         D000000013200000000000000000000000100010010000000000000000000000F0010000005755500120140430000101 00000000000000000000000000000000000000000000000000000000000000000000000000000000000000000000000000000000000000000N 00000000000NCONT   00    00000000000          00000000000000000000000000000000000000000000 000000000000000A000000000000000000000000000000000000000000000 000000000000000000000000000000000000000     00000000                                                                                                                        000000000000000000
F0010000005755500002000000872776000041450500000000000000000201404300002001RICARDO ANGEL LEAL ORTEGA                         C000000012000000000000000000000000100010010000000000000000000000F0010000005755500220140430000101 00000000000000000000000000000000000000000000000000000000000000000000000000000000000000000000000000000000000000000N 00000000000NCONT   00    00000000000          00000000000000000000000000000000000000000000 000000000000000A000000000000000000000000000000000000000000000 000000000000000000000000000000000000000     00000000                                                                                                                        000000000000000000
F0010000005755500003000000872776000042505000000000000000000201404300002001RICARDO ANGEL LEAL ORTEGA                         C000000001200000000000000000000000100010010000000000000000000000F0010000005755500320140430000101 00000000000000000000000000000000000000000000000000000000000000000000000000000000000000000000000000000000000000000N 00000000000NCONT   00    00000000000          00000000000000000000000000000000000000000000 000000000000000A000000000000000000000000000000000000000000000 000000000000000000000000000000000000000     00000000                                                                                                                        000000000000000000
F0010000005755500004000000872776000023658300000000000000000201404300002001RICARDO ANGEL LEAL ORTEGA                         C000000000096000000000000000000000100010010000000000000000000000F0010000005755500420140430000101 00000000000000000000000000000000000000000000000000000000000000000000000000000000000000000000000000000000000000000N 00000000000NCONT   00    00000000000          00000000000000000000000000000000000000000000 000000000000000A000000000000000000000000000000000000000000000 000000000000000000000000000000000000000     00000000                                                                                                                        000000000000000000
F0010000005755500005000000872776000013552100000000000000000201404300002001RICARDO ANGEL LEAL ORTEGA                         D000000000096000000000000000000000100010010000000000000000000000F0010000005755500520140430000101 00000000000000000000000000000000000000000000000000000000000000000000000000000000000000000000000000000000000000000N 00000000000NCONT   00    00000000000          00000000000000000000000000000000000000000000 000000000000000A000000000000000000000000000000000000000000000 000000000000000000000000000000000000000     00000000                                                                                                                        000000000000000000
F0010000005755600001000003319910700011050500000000000000000201404300002001LUZ DARY JIMENEZ MARTINEZ                         D000000001100000000000000000000000100010010000000000000000000000F0010000005755600120140430000101 00000000000000000000000000000000000000000000000000000000000000000000000000000000000000000000000000000000000000000N 00000000000NCONT   00    00000000000          00000000000000000000000000000000000000000000 000000000000000A000000000000000000000000000000000000000000000 000000000000000000000000000000000000000     00000000                                                                                                                        000000000000000000
F0010000005755600002000003319910700041450500000000000000000201404300002001LUZ DARY JIMENEZ MARTINEZ                         C000000001000000000000000000000000100010010000000000000000000000F0010000005755600220140430000101 00000000000000000000000000000000000000000000000000000000000000000000000000000000000000000000000000000000000000000N 00000000000NCONT   00    00000000000          00000000000000000000000000000000000000000000 000000000000000A000000000000000000000000000000000000000000000 000000000000000000000000000000000000000     00000000                                                                                                                        000000000000000000
F0010000005755600003000003319910700042505000000000000000000201404300002001LUZ DARY JIMENEZ MARTINEZ                         C000000000100000000000000000000000100010010000000000000000000000F0010000005755600320140430000101 00000000000000000000000000000000000000000000000000000000000000000000000000000000000000000000000000000000000000000N 00000000000NCONT   00    00000000000          00000000000000000000000000000000000000000000 000000000000000A000000000000000000000000000000000000000000000 000000000000000000000000000000000000000     00000000                                                                                                                        000000000000000000
F0010000005755600004000003319910700023658300000000000000000201404300002001LUZ DARY JIMENEZ MARTINEZ                         C000000000008000000000000000000000100010010000000000000000000000F0010000005755600420140430000101 00000000000000000000000000000000000000000000000000000000000000000000000000000000000000000000000000000000000000000N 00000000000NCONT   00    00000000000          00000000000000000000000000000000000000000000 000000000000000A000000000000000000000000000000000000000000000 000000000000000000000000000000000000000     00000000                                                                                                                        000000000000000000
F0010000005755600005000003319910700013552100000000000000000201404300002001LUZ DARY JIMENEZ MARTINEZ                         D000000000008000000000000000000000100010010000000000000000000000F0010000005755600520140430000101 00000000000000000000000000000000000000000000000000000000000000000000000000000000000000000000000000000000000000000N 00000000000NCONT   00    00000000000          00000000000000000000000000000000000000000000 000000000000000A000000000000000000000000000000000000000000000 000000000000000000000000000000000000000     00000000                                                                                                                        000000000000000000
F0010000005755700001000001502923600011050500000000000000000201404300002001ALCIDES MARTINEZ                                  D000000001550000000000000000000000100010010000000000000000000000F0010000005755700120140430000101 00000000000000000000000000000000000000000000000000000000000000000000000000000000000000000000000000000000000000000N 00000000000NCONT   00    00000000000          00000000000000000000000000000000000000000000 000000000000000A000000000000000000000000000000000000000000000 000000000000000000000000000000000000000     00000000                                                                                                                        000000000000000000
F0010000005755700002000001502923600041450500000000000000000201404300002001ALCIDES MARTINEZ                                  C000000000900000000000000000000000100010010000000000000000000000F0010000005755700220140430000101 00000000000000000000000000000000000000000000000000000000000000000000000000000000000000000000000000000000000000000N 00000000000NCONT   00    00000000000          00000000000000000000000000000000000000000000 000000000000000A000000000000000000000000000000000000000000000 000000000000000000000000000000000000000     00000000                                                                                                                        000000000000000000
F0010000005755700003000001502923600042505000000000000000000201404300002001ALCIDES MARTINEZ                                  C000000000650000000000000000000000100010010000000000000000000000F0010000005755700320140430000101 00000000000000000000000000000000000000000000000000000000000000000000000000000000000000000000000000000000000000000N 00000000000NCONT   00    00000000000          00000000000000000000000000000000000000000000 000000000000000A000000000000000000000000000000000000000000000 000000000000000000000000000000000000000     00000000                                                                                                                        000000000000000000
F0010000005755700004000001502923600023658300000000000000000201404300002001ALCIDES MARTINEZ                                  C000000000007200000000000000000000100010010000000000000000000000F0010000005755700420140430000101 00000000000000000000000000000000000000000000000000000000000000000000000000000000000000000000000000000000000000000N 00000000000NCONT   00    00000000000          00000000000000000000000000000000000000000000 000000000000000A000000000000000000000000000000000000000000000 000000000000000000000000000000000000000     00000000                                                                                                                        000000000000000000
F0010000005755700005000001502923600013552100000000000000000201404300002001ALCIDES MARTINEZ                                  D000000000007200000000000000000000100010010000000000000000000000F0010000005755700520140430000101 00000000000000000000000000000000000000000000000000000000000000000000000000000000000000000000000000000000000000000N 00000000000NCONT   00    00000000000          00000000000000000000000000000000000000000000 000000000000000A000000000000000000000000000000000000000000000 000000000000000000000000000000000000000     00000000                                                                                                                        000000000000000000
F0010000005755800001000001022529300011050500000000000000000201404300002001ALBERTO ALVAREZ ISAZA                             D000000000350000000000000000000000100010010000000000000000000000F0010000005755800120140430000101 00000000000000000000000000000000000000000000000000000000000000000000000000000000000000000000000000000000000000000N 00000000000NCONT   00    00000000000          00000000000000000000000000000000000000000000 000000000000000A000000000000000000000000000000000000000000000 000000000000000000000000000000000000000     00000000                                                                                                                        000000000000000000
F0010000005755800002000001022529300041450500000000000000000201404300002001ALBERTO ALVAREZ ISAZA                             C000000000300000000000000000000000100010010000000000000000000000F0010000005755800220140430000101 00000000000000000000000000000000000000000000000000000000000000000000000000000000000000000000000000000000000000000N 00000000000NCONT   00    00000000000          00000000000000000000000000000000000000000000 000000000000000A000000000000000000000000000000000000000000000 000000000000000000000000000000000000000     00000000                                                                                                                        000000000000000000
F0010000005755800003000001022529300042505000000000000000000201404300002001ALBERTO ALVAREZ ISAZA                             C000000000050000000000000000000000100010010000000000000000000000F0010000005755800320140430000101 00000000000000000000000000000000000000000000000000000000000000000000000000000000000000000000000000000000000000000N 00000000000NCONT   00    00000000000          00000000000000000000000000000000000000000000 000000000000000A000000000000000000000000000000000000000000000 000000000000000000000000000000000000000     00000000                                                                                                                        000000000000000000
F0010000005755800004000001022529300023658300000000000000000201404300002001ALBERTO ALVAREZ ISAZA                             C000000000002400000000000000000000100010010000000000000000000000F0010000005755800420140430000101 00000000000000000000000000000000000000000000000000000000000000000000000000000000000000000000000000000000000000000N 00000000000NCONT   00    00000000000          00000000000000000000000000000000000000000000 000000000000000A000000000000000000000000000000000000000000000 000000000000000000000000000000000000000     00000000                                                                                                                        000000000000000000
F0010000005755800005000001022529300013552100000000000000000201404300002001ALBERTO ALVAREZ ISAZA                             D000000000002400000000000000000000100010010000000000000000000000F0010000005755800520140430000101 00000000000000000000000000000000000000000000000000000000000000000000000000000000000000000000000000000000000000000N 00000000000NCONT   00    00000000000          00000000000000000000000000000000000000000000 000000000000000A000000000000000000000000000000000000000000000 000000000000000000000000000000000000000     00000000                                                                                                                        000000000000000000
F0010000005755900001000090050144800011050500000000000000000201404300002001PLASTICOS JR ASOCIADOS SAS                        D000000000900000000000000000000000100010010000000000000000000000F0010000005755900120140430000101 00000000000000000000000000000000000000000000000000000000000000000000000000000000000000000000000000000000000000000N 00000000000NCONT   00    00000000000          00000000000000000000000000000000000000000000 000000000000000A000000000000000000000000000000000000000000000 000000000000000000000000000000000000000     00000000                                                                                                                        000000000000000000
F0010000005755900002000090050144800041450500000000000000000201404300002001PLASTICOS JR ASOCIADOS SAS                        C000000000800000000000000000000000100010010000000000000000000000F0010000005755900220140430000101 00000000000000000000000000000000000000000000000000000000000000000000000000000000000000000000000000000000000000000N 00000000000NCONT   00    00000000000          00000000000000000000000000000000000000000000 000000000000000A000000000000000000000000000000000000000000000 000000000000000000000000000000000000000     00000000                                                                                                                        000000000000000000
F0010000005755900003000090050144800042505000000000000000000201404300002001PLASTICOS JR ASOCIADOS SAS                        C000000000100000000000000000000000100010010000000000000000000000F0010000005755900320140430000101 00000000000000000000000000000000000000000000000000000000000000000000000000000000000000000000000000000000000000000N 00000000000NCONT   00    00000000000          00000000000000000000000000000000000000000000 000000000000000A000000000000000000000000000000000000000000000 000000000000000000000000000000000000000     00000000                                                                                                                        000000000000000000
F0010000005755900004000090050144800023658300000000000000000201404300002001PLASTICOS JR ASOCIADOS SAS                        C000000000006400000000000000000000100010010000000000000000000000F0010000005755900420140430000101 00000000000000000000000000000000000000000000000000000000000000000000000000000000000000000000000000000000000000000N 00000000000NCONT   00    00000000000          00000000000000000000000000000000000000000000 000000000000000A000000000000000000000000000000000000000000000 000000000000000000000000000000000000000     00000000                                                                                                                        000000000000000000
F0010000005755900005000090050144800013552100000000000000000201404300002001PLASTICOS JR ASOCIADOS SAS                        D000000000006400000000000000000000100010010000000000000000000000F0010000005755900520140430000101 00000000000000000000000000000000000000000000000000000000000000000000000000000000000000000000000000000000000000000N 00000000000NCONT   00    00000000000          00000000000000000000000000000000000000000000 000000000000000A000000000000000000000000000000000000000000000 000000000000000000000000000000000000000     00000000                                                                                                                        000000000000000000
F0010000005756000001000090050144800011050500000000000000000201404300002001PLASTICOS JR ASOCIADOS SAS                        D000000005500000000000000000000000100010010000000000000000000000F0010000005756000120140430000101 00000000000000000000000000000000000000000000000000000000000000000000000000000000000000000000000000000000000000000N 00000000000NCONT   00    00000000000          00000000000000000000000000000000000000000000 000000000000000A000000000000000000000000000000000000000000000 000000000000000000000000000000000000000     00000000                                                                                                                        000000000000000000
F0010000005756000002000090050144800041450500000000000000000201404300002001PLASTICOS JR ASOCIADOS SAS                        C000000004800000000000000000000000100010010000000000000000000000F0010000005756000220140430000101 00000000000000000000000000000000000000000000000000000000000000000000000000000000000000000000000000000000000000000N 00000000000NCONT   00    00000000000          00000000000000000000000000000000000000000000 000000000000000A000000000000000000000000000000000000000000000 000000000000000000000000000000000000000     00000000                                                                                                                        000000000000000000
F0010000005756000003000090050144800042505000000000000000000201404300002001PLASTICOS JR ASOCIADOS SAS                        C000000000700000000000000000000000100010010000000000000000000000F0010000005756000320140430000101 00000000000000000000000000000000000000000000000000000000000000000000000000000000000000000000000000000000000000000N 00000000000NCONT   00    00000000000          00000000000000000000000000000000000000000000 000000000000000A000000000000000000000000000000000000000000000 000000000000000000000000000000000000000     00000000                                                                                                                        000000000000000000
F0010000005756000004000090050144800023658300000000000000000201404300002001PLASTICOS JR ASOCIADOS SAS                        C000000000038400000000000000000000100010010000000000000000000000F0010000005756000420140430000101 00000000000000000000000000000000000000000000000000000000000000000000000000000000000000000000000000000000000000000N 00000000000NCONT   00    00000000000          00000000000000000000000000000000000000000000 000000000000000A000000000000000000000000000000000000000000000 000000000000000000000000000000000000000     00000000                                                                                                                        000000000000000000
F0010000005756000005000090050144800013552100000000000000000201404300002001PLASTICOS JR ASOCIADOS SAS                        D000000000038400000000000000000000100010010000000000000000000000F0010000005756000520140430000101 00000000000000000000000000000000000000000000000000000000000000000000000000000000000000000000000000000000000000000N 00000000000NCONT   00    00000000000          00000000000000000000000000000000000000000000 000000000000000A000000000000000000000000000000000000000000000 000000000000000000000000000000000000000     00000000                                                                                                                        000000000000000000
F0010000005756100001000090050144800011050500000000000000000201404300002001PLASTICOS JR ASOCIADOS SAS                        D000000004000000000000000000000000100010010000000000000000000000F0010000005756100120140430000101 00000000000000000000000000000000000000000000000000000000000000000000000000000000000000000000000000000000000000000N 00000000000NCONT   00    00000000000          00000000000000000000000000000000000000000000 000000000000000A000000000000000000000000000000000000000000000 000000000000000000000000000000000000000     00000000                                                                                                                        000000000000000000
F0010000005756100002000090050144800041450500000000000000000201404300002001PLASTICOS JR ASOCIADOS SAS                        C000000003200000000000000000000000100010010000000000000000000000F0010000005756100220140430000101 00000000000000000000000000000000000000000000000000000000000000000000000000000000000000000000000000000000000000000N 00000000000NCONT   00    00000000000          00000000000000000000000000000000000000000000 000000000000000A000000000000000000000000000000000000000000000 000000000000000000000000000000000000000     00000000                                                                                                                        000000000000000000
F0010000005756100003000090050144800042505000000000000000000201404300002001PLASTICOS JR ASOCIADOS SAS                        C000000000800000000000000000000000100010010000000000000000000000F0010000005756100320140430000101 00000000000000000000000000000000000000000000000000000000000000000000000000000000000000000000000000000000000000000N 00000000000NCONT   00    00000000000          00000000000000000000000000000000000000000000 000000000000000A000000000000000000000000000000000000000000000 000000000000000000000000000000000000000     00000000                                                                                                                        000000000000000000
F0010000005756100004000090050144800023658300000000000000000201404300002001PLASTICOS JR ASOCIADOS SAS                        C000000000025600000000000000000000100010010000000000000000000000F0010000005756100420140430000101 00000000000000000000000000000000000000000000000000000000000000000000000000000000000000000000000000000000000000000N 00000000000NCONT   00    00000000000          00000000000000000000000000000000000000000000 000000000000000A000000000000000000000000000000000000000000000 000000000000000000000000000000000000000     00000000                                                                                                                        000000000000000000
F0010000005756100005000090050144800013552100000000000000000201404300002001PLASTICOS JR ASOCIADOS SAS                        D000000000025600000000000000000000100010010000000000000000000000F0010000005756100520140430000101 00000000000000000000000000000000000000000000000000000000000000000000000000000000000000000000000000000000000000000N 00000000000NCONT   00    00000000000          00000000000000000000000000000000000000000000 000000000000000A000000000000000000000000000000000000000000000 000000000000000000000000000000000000000     00000000                                                                                                                        000000000000000000
F0010000005756200001000080016664500011050500000000000000000201404300002001TELAPLAS PANCER SAS                               D000000000800000000000000000000000100010010000000000000000000000F0010000005756200120140430000101 00000000000000000000000000000000000000000000000000000000000000000000000000000000000000000000000000000000000000000N 00000000000NCONT   00    00000000000          00000000000000000000000000000000000000000000 000000000000000A000000000000000000000000000000000000000000000 000000000000000000000000000000000000000     00000000                                                                                                                        000000000000000000
F0010000005756200002000080016664500041450500000000000000000201404300002001TELAPLAS PANCER SAS                               C000000000700000000000000000000000100010010000000000000000000000F0010000005756200220140430000101 00000000000000000000000000000000000000000000000000000000000000000000000000000000000000000000000000000000000000000N 00000000000NCONT   00    00000000000          00000000000000000000000000000000000000000000 000000000000000A000000000000000000000000000000000000000000000 000000000000000000000000000000000000000     00000000                                                                                                                        000000000000000000
F0010000005756200003000080016664500042505000000000000000000201404300002001TELAPLAS PANCER SAS                               C000000000100000000000000000000000100010010000000000000000000000F0010000005756200320140430000101 00000000000000000000000000000000000000000000000000000000000000000000000000000000000000000000000000000000000000000N 00000000000NCONT   00    00000000000          00000000000000000000000000000000000000000000 000000000000000A000000000000000000000000000000000000000000000 000000000000000000000000000000000000000     00000000                                                                                                                        000000000000000000
F0010000005756200004000080016664500023658300000000000000000201404300002001TELAPLAS PANCER SAS                               C000000000005600000000000000000000100010010000000000000000000000F0010000005756200420140430000101 00000000000000000000000000000000000000000000000000000000000000000000000000000000000000000000000000000000000000000N 00000000000NCONT   00    00000000000          00000000000000000000000000000000000000000000 000000000000000A000000000000000000000000000000000000000000000 000000000000000000000000000000000000000     00000000                                                                                                                        000000000000000000
F0010000005756200005000080016664500013552100000000000000000201404300002001TELAPLAS PANCER SAS                               D000000000005600000000000000000000100010010000000000000000000000F0010000005756200520140430000101 00000000000000000000000000000000000000000000000000000000000000000000000000000000000000000000000000000000000000000N 00000000000NCONT   00    00000000000          00000000000000000000000000000000000000000000 000000000000000A000000000000000000000000000000000000000000000 000000000000000000000000000000000000000     00000000                                                                                                                        000000000000000000
F0010000005756300001000090034602400011050500000000000000000201404300002001LA CUSTODIA                                       D000000001000000000000000000000000100010010000000000000000000000F0010000005756300120140430000101 00000000000000000000000000000000000000000000000000000000000000000000000000000000000000000000000000000000000000000N 00000000000NCONT   00    00000000000          00000000000000000000000000000000000000000000 000000000000000A000000000000000000000000000000000000000000000 000000000000000000000000000000000000000     00000000                                                                                                                        000000000000000000
F0010000005756300002000090034602400041450500000000000000000201404300002001LA CUSTODIA                                       C000000000900000000000000000000000100010010000000000000000000000F0010000005756300220140430000101 00000000000000000000000000000000000000000000000000000000000000000000000000000000000000000000000000000000000000000N 00000000000NCONT   00    00000000000          00000000000000000000000000000000000000000000 000000000000000A000000000000000000000000000000000000000000000 000000000000000000000000000000000000000     00000000                                                                                                                        000000000000000000
F0010000005756300003000090034602400042505000000000000000000201404300002001LA CUSTODIA                                       C000000000100000000000000000000000100010010000000000000000000000F0010000005756300320140430000101 00000000000000000000000000000000000000000000000000000000000000000000000000000000000000000000000000000000000000000N 00000000000NCONT   00    00000000000          00000000000000000000000000000000000000000000 000000000000000A000000000000000000000000000000000000000000000 000000000000000000000000000000000000000     00000000                                                                                                                        000000000000000000
F0010000005756300004000090034602400023658300000000000000000201404300002001LA CUSTODIA                                       C000000000007200000000000000000000100010010000000000000000000000F0010000005756300420140430000101 00000000000000000000000000000000000000000000000000000000000000000000000000000000000000000000000000000000000000000N 00000000000NCONT   00    00000000000          00000000000000000000000000000000000000000000 000000000000000A000000000000000000000000000000000000000000000 000000000000000000000000000000000000000     00000000                                                                                                                        000000000000000000
F0010000005756300005000090034602400013552100000000000000000201404300002001LA CUSTODIA                                       D000000000007200000000000000000000100010010000000000000000000000F0010000005756300520140430000101 00000000000000000000000000000000000000000000000000000000000000000000000000000000000000000000000000000000000000000N 00000000000NCONT   00    00000000000          00000000000000000000000000000000000000000000 000000000000000A000000000000000000000000000000000000000000000 000000000000000000000000000000000000000     00000000                                                                                                                        000000000000000000
F0010000005756400001000090034602400011050500000000000000000201404300002001LA CUSTODIA                                       D000000002000000000000000000000000100010010000000000000000000000F0010000005756400120140430000101 00000000000000000000000000000000000000000000000000000000000000000000000000000000000000000000000000000000000000000N 00000000000NCONT   00    00000000000          00000000000000000000000000000000000000000000 000000000000000A000000000000000000000000000000000000000000000 000000000000000000000000000000000000000     00000000                                                                                                                        000000000000000000
F0010000005756400002000090034602400041450500000000000000000201404300002001LA CUSTODIA                                       C000000001800000000000000000000000100010010000000000000000000000F0010000005756400220140430000101 00000000000000000000000000000000000000000000000000000000000000000000000000000000000000000000000000000000000000000N 00000000000NCONT   00    00000000000          00000000000000000000000000000000000000000000 000000000000000A000000000000000000000000000000000000000000000 000000000000000000000000000000000000000     00000000                                                                                                                        000000000000000000
F0010000005756400003000090034602400042505000000000000000000201404300002001LA CUSTODIA                                       C000000000200000000000000000000000100010010000000000000000000000F0010000005756400320140430000101 00000000000000000000000000000000000000000000000000000000000000000000000000000000000000000000000000000000000000000N 00000000000NCONT   00    00000000000          00000000000000000000000000000000000000000000 000000000000000A000000000000000000000000000000000000000000000 000000000000000000000000000000000000000     00000000                                                                                                                        000000000000000000
F0010000005756400004000090034602400023658300000000000000000201404300002001LA CUSTODIA                                       C000000000014400000000000000000000100010010000000000000000000000F0010000005756400420140430000101 00000000000000000000000000000000000000000000000000000000000000000000000000000000000000000000000000000000000000000N 00000000000NCONT   00    00000000000          00000000000000000000000000000000000000000000 000000000000000A000000000000000000000000000000000000000000000 000000000000000000000000000000000000000     00000000                                                                                                                        000000000000000000
F0010000005756400005000090034602400013552100000000000000000201404300002001LA CUSTODIA                                       D000000000014400000000000000000000100010010000000000000000000000F0010000005756400520140430000101 00000000000000000000000000000000000000000000000000000000000000000000000000000000000000000000000000000000000000000N 00000000000NCONT   00    00000000000          00000000000000000000000000000000000000000000 000000000000000A000000000000000000000000000000000000000000000 000000000000000000000000000000000000000     00000000                                                                                                                        000000000000000000
F0010000005756500001000090034602400011050500000000000000000201404300002001LA CUSTODIA                                       D000000003000000000000000000000000100010010000000000000000000000F0010000005756500120140430000101 00000000000000000000000000000000000000000000000000000000000000000000000000000000000000000000000000000000000000000N 00000000000NCONT   00    00000000000          00000000000000000000000000000000000000000000 000000000000000A000000000000000000000000000000000000000000000 000000000000000000000000000000000000000     00000000                                                                                                                        000000000000000000
F0010000005756500002000090034602400041450500000000000000000201404300002001LA CUSTODIA                                       C000000002700000000000000000000000100010010000000000000000000000F0010000005756500220140430000101 00000000000000000000000000000000000000000000000000000000000000000000000000000000000000000000000000000000000000000N 00000000000NCONT   00    00000000000          00000000000000000000000000000000000000000000 000000000000000A000000000000000000000000000000000000000000000 000000000000000000000000000000000000000     00000000                                                                                                                        000000000000000000
F0010000005756500003000090034602400042505000000000000000000201404300002001LA CUSTODIA                                       C000000000300000000000000000000000100010010000000000000000000000F0010000005756500320140430000101 00000000000000000000000000000000000000000000000000000000000000000000000000000000000000000000000000000000000000000N 00000000000NCONT   00    00000000000          00000000000000000000000000000000000000000000 000000000000000A000000000000000000000000000000000000000000000 000000000000000000000000000000000000000     00000000                                                                                                                        000000000000000000
F0010000005756500004000090034602400023658300000000000000000201404300002001LA CUSTODIA                                       C000000000021600000000000000000000100010010000000000000000000000F0010000005756500420140430000101 00000000000000000000000000000000000000000000000000000000000000000000000000000000000000000000000000000000000000000N 00000000000NCONT   00    00000000000          00000000000000000000000000000000000000000000 000000000000000A000000000000000000000000000000000000000000000 000000000000000000000000000000000000000     00000000                                                                                                                        000000000000000000
F0010000005756500005000090034602400013552100000000000000000201404300002001LA CUSTODIA                                       D000000000021600000000000000000000100010010000000000000000000000F0010000005756500520140430000101 00000000000000000000000000000000000000000000000000000000000000000000000000000000000000000000000000000000000000000N 00000000000NCONT   00    00000000000          00000000000000000000000000000000000000000000 000000000000000A000000000000000000000000000000000000000000000 000000000000000000000000000000000000000     00000000                                                                                                                        000000000000000000
F0010000005756600001000080201127600011050500000000000000000201404300002001ELECTRICOS DEL RUIZ S.A.S.                        D000000001100000000000000000000000100010010000000000000000000000F0010000005756600120140430000101 00000000000000000000000000000000000000000000000000000000000000000000000000000000000000000000000000000000000000000N 00000000000NCONT   00    00000000000          00000000000000000000000000000000000000000000 000000000000000A000000000000000000000000000000000000000000000 000000000000000000000000000000000000000     00000000                                                                                                                        000000000000000000
F0010000005756600002000080201127600041450500000000000000000201404300002001ELECTRICOS DEL RUIZ S.A.S.                        C000000000900000000000000000000000100010010000000000000000000000F0010000005756600220140430000101 00000000000000000000000000000000000000000000000000000000000000000000000000000000000000000000000000000000000000000N 00000000000NCONT   00    00000000000          00000000000000000000000000000000000000000000 000000000000000A000000000000000000000000000000000000000000000 000000000000000000000000000000000000000     00000000                                                                                                                        000000000000000000
F0010000005756600003000080201127600042505000000000000000000201404300002001ELECTRICOS DEL RUIZ S.A.S.                        C000000000200000000000000000000000100010010000000000000000000000F0010000005756600320140430000101 00000000000000000000000000000000000000000000000000000000000000000000000000000000000000000000000000000000000000000N 00000000000NCONT   00    00000000000          00000000000000000000000000000000000000000000 000000000000000A000000000000000000000000000000000000000000000 000000000000000000000000000000000000000     00000000                                                                                                                        000000000000000000
F0010000005756600004000080201127600023658300000000000000000201404300002001ELECTRICOS DEL RUIZ S.A.S.                        C000000000007200000000000000000000100010010000000000000000000000F0010000005756600420140430000101 00000000000000000000000000000000000000000000000000000000000000000000000000000000000000000000000000000000000000000N 00000000000NCONT   00    00000000000          00000000000000000000000000000000000000000000 000000000000000A000000000000000000000000000000000000000000000 000000000000000000000000000000000000000     00000000                                                                                                                        000000000000000000
F0010000005756600005000080201127600013552100000000000000000201404300002001ELECTRICOS DEL RUIZ S.A.S.                        D000000000007200000000000000000000100010010000000000000000000000F0010000005756600520140430000101 00000000000000000000000000000000000000000000000000000000000000000000000000000000000000000000000000000000000000000N 00000000000NCONT   00    00000000000          00000000000000000000000000000000000000000000 000000000000000A000000000000000000000000000000000000000000000 000000000000000000000000000000000000000     00000000                                                                                                                        000000000000000000
F0010000005756700001000000871745700011050500000000000000000201404300002001CONFECCIONES ORO SPORT 33                         D000000001500000000000000000000000100010010000000000000000000000F0010000005756700120140430000101 00000000000000000000000000000000000000000000000000000000000000000000000000000000000000000000000000000000000000000N 00000000000NCONT   00    00000000000          00000000000000000000000000000000000000000000 000000000000000A000000000000000000000000000000000000000000000 000000000000000000000000000000000000000     00000000                                                                                                                        000000000000000000
F0010000005756700002000000871745700041450500000000000000000201404300002001CONFECCIONES ORO SPORT 33                         C000000001100000000000000000000000100010010000000000000000000000F0010000005756700220140430000101 00000000000000000000000000000000000000000000000000000000000000000000000000000000000000000000000000000000000000000N 00000000000NCONT   00    00000000000          00000000000000000000000000000000000000000000 000000000000000A000000000000000000000000000000000000000000000 000000000000000000000000000000000000000     00000000                                                                                                                        000000000000000000
F0010000005756700003000000871745700042505000000000000000000201404300002001CONFECCIONES ORO SPORT 33                         C000000000400000000000000000000000100010010000000000000000000000F0010000005756700320140430000101 00000000000000000000000000000000000000000000000000000000000000000000000000000000000000000000000000000000000000000N 00000000000NCONT   00    00000000000          00000000000000000000000000000000000000000000 000000000000000A000000000000000000000000000000000000000000000 000000000000000000000000000000000000000     00000000                                                                                                                        000000000000000000
F0010000005756700004000000871745700023658300000000000000000201404300002001CONFECCIONES ORO SPORT 33                         C000000000008800000000000000000000100010010000000000000000000000F0010000005756700420140430000101 00000000000000000000000000000000000000000000000000000000000000000000000000000000000000000000000000000000000000000N 00000000000NCONT   00    00000000000          00000000000000000000000000000000000000000000 000000000000000A000000000000000000000000000000000000000000000 000000000000000000000000000000000000000     00000000                                                                                                                        000000000000000000
F0010000005756700005000000871745700013552100000000000000000201404300002001CONFECCIONES ORO SPORT 33                         D000000000008800000000000000000000100010010000000000000000000000F0010000005756700520140430000101 00000000000000000000000000000000000000000000000000000000000000000000000000000000000000000000000000000000000000000N 00000000000NCONT   00    00000000000          00000000000000000000000000000000000000000000 000000000000000A000000000000000000000000000000000000000000000 000000000000000000000000000000000000000     00000000                                                                                                                        000000000000000000
F0010000005756800001000000866840800011050500000000000000000201404300002001CACHARRERIA MARTIN                                D000000002800000000000000000000000100010010000000000000000000000F0010000005756800120140430000101 00000000000000000000000000000000000000000000000000000000000000000000000000000000000000000000000000000000000000000N 00000000000NCONT   00    00000000000          00000000000000000000000000000000000000000000 000000000000000A000000000000000000000000000000000000000000000 000000000000000000000000000000000000000     00000000                                                                                                                        000000000000000000
F0010000005756800002000000866840800041450500000000000000000201404300002001CACHARRERIA MARTIN                                C000000002400000000000000000000000100010010000000000000000000000F0010000005756800220140430000101 00000000000000000000000000000000000000000000000000000000000000000000000000000000000000000000000000000000000000000N 00000000000NCONT   00    00000000000          00000000000000000000000000000000000000000000 000000000000000A000000000000000000000000000000000000000000000 000000000000000000000000000000000000000     00000000                                                                                                                        000000000000000000
F0010000005756800003000000866840800042505000000000000000000201404300002001CACHARRERIA MARTIN                                C000000000400000000000000000000000100010010000000000000000000000F0010000005756800320140430000101 00000000000000000000000000000000000000000000000000000000000000000000000000000000000000000000000000000000000000000N 00000000000NCONT   00    00000000000          00000000000000000000000000000000000000000000 000000000000000A000000000000000000000000000000000000000000000 000000000000000000000000000000000000000     00000000                                                                                                                        000000000000000000
F0010000005756800004000000866840800023658300000000000000000201404300002001CACHARRERIA MARTIN                                C000000000019200000000000000000000100010010000000000000000000000F0010000005756800420140430000101 00000000000000000000000000000000000000000000000000000000000000000000000000000000000000000000000000000000000000000N 00000000000NCONT   00    00000000000          00000000000000000000000000000000000000000000 000000000000000A000000000000000000000000000000000000000000000 000000000000000000000000000000000000000     00000000                                                                                                                        000000000000000000
F0010000005756800005000000866840800013552100000000000000000201404300002001CACHARRERIA MARTIN                                D000000000019200000000000000000000100010010000000000000000000000F0010000005756800520140430000101 00000000000000000000000000000000000000000000000000000000000000000000000000000000000000000000000000000000000000000N 00000000000NCONT   00    00000000000          00000000000000000000000000000000000000000000 000000000000000A000000000000000000000000000000000000000000000 000000000000000000000000000000000000000     00000000                                                                                                                        000000000000000000
F0010000005756900001000000742399700011050500000000000000000201404300002001CACHARRERIA EL NUEVO CHADID                       D000000001800000000000000000000000100010010000000000000000000000F0010000005756900120140430000101 00000000000000000000000000000000000000000000000000000000000000000000000000000000000000000000000000000000000000000N 00000000000NCONT   00    00000000000          00000000000000000000000000000000000000000000 000000000000000A000000000000000000000000000000000000000000000 000000000000000000000000000000000000000     00000000                                                                                                                        000000000000000000
F0010000005756900002000000742399700041450500000000000000000201404300002001CACHARRERIA EL NUEVO CHADID                       C000000001600000000000000000000000100010010000000000000000000000F0010000005756900220140430000101 00000000000000000000000000000000000000000000000000000000000000000000000000000000000000000000000000000000000000000N 00000000000NCONT   00    00000000000          00000000000000000000000000000000000000000000 000000000000000A000000000000000000000000000000000000000000000 000000000000000000000000000000000000000     00000000                                                                                                                        000000000000000000
F0010000005756900003000000742399700042505000000000000000000201404300002001CACHARRERIA EL NUEVO CHADID                       C000000000200000000000000000000000100010010000000000000000000000F0010000005756900320140430000101 00000000000000000000000000000000000000000000000000000000000000000000000000000000000000000000000000000000000000000N 00000000000NCONT   00    00000000000          00000000000000000000000000000000000000000000 000000000000000A000000000000000000000000000000000000000000000 000000000000000000000000000000000000000     00000000                                                                                                                        000000000000000000
F0010000005756900004000000742399700023658300000000000000000201404300002001CACHARRERIA EL NUEVO CHADID                       C000000000012800000000000000000000100010010000000000000000000000F0010000005756900420140430000101 00000000000000000000000000000000000000000000000000000000000000000000000000000000000000000000000000000000000000000N 00000000000NCONT   00    00000000000          00000000000000000000000000000000000000000000 000000000000000A000000000000000000000000000000000000000000000 000000000000000000000000000000000000000     00000000                                                                                                                        000000000000000000
F0010000005756900005000000742399700013552100000000000000000201404300002001CACHARRERIA EL NUEVO CHADID                       D000000000012800000000000000000000100010010000000000000000000000F0010000005756900520140430000101 00000000000000000000000000000000000000000000000000000000000000000000000000000000000000000000000000000000000000000N 00000000000NCONT   00    00000000000          00000000000000000000000000000000000000000000 000000000000000A000000000000000000000000000000000000000000000 000000000000000000000000000000000000000     00000000                                                                                                                        000000000000000000
F0010000005757000001000080202350700011050500000000000000000201404300002001CONNY DE LA COSTA SAS                             D000000001000000000000000000000000100010010000000000000000000000F0010000005757000120140430000101 00000000000000000000000000000000000000000000000000000000000000000000000000000000000000000000000000000000000000000N 00000000000NCONT   00    00000000000          00000000000000000000000000000000000000000000 000000000000000A000000000000000000000000000000000000000000000 000000000000000000000000000000000000000     00000000                                                                                                                        000000000000000000
F0010000005757000002000080202350700041450500000000000000000201404300002001CONNY DE LA COSTA SAS                             C000000000800000000000000000000000100010010000000000000000000000F0010000005757000220140430000101 00000000000000000000000000000000000000000000000000000000000000000000000000000000000000000000000000000000000000000N 00000000000NCONT   00    00000000000          00000000000000000000000000000000000000000000 000000000000000A000000000000000000000000000000000000000000000 000000000000000000000000000000000000000     00000000                                                                                                                        000000000000000000
F0010000005757000003000080202350700042505000000000000000000201404300002001CONNY DE LA COSTA SAS                             C000000000200000000000000000000000100010010000000000000000000000F0010000005757000320140430000101 00000000000000000000000000000000000000000000000000000000000000000000000000000000000000000000000000000000000000000N 00000000000NCONT   00    00000000000          00000000000000000000000000000000000000000000 000000000000000A000000000000000000000000000000000000000000000 000000000000000000000000000000000000000     00000000                                                                                                                        000000000000000000
F0010000005757000004000080202350700023658300000000000000000201404300002001CONNY DE LA COSTA SAS                             C000000000006400000000000000000000100010010000000000000000000000F0010000005757000420140430000101 00000000000000000000000000000000000000000000000000000000000000000000000000000000000000000000000000000000000000000N 00000000000NCONT   00    00000000000          00000000000000000000000000000000000000000000 000000000000000A000000000000000000000000000000000000000000000 000000000000000000000000000000000000000     00000000                                                                                                                        000000000000000000
F0010000005757000005000080202350700013552100000000000000000201404300002001CONNY DE LA COSTA SAS                             D000000000006400000000000000000000100010010000000000000000000000F0010000005757000520140430000101 00000000000000000000000000000000000000000000000000000000000000000000000000000000000000000000000000000000000000000N 00000000000NCONT   00    00000000000          00000000000000000000000000000000000000000000 000000000000000A000000000000000000000000000000000000000000000 000000000000000000000000000000000000000     00000000                                                                                                                        000000000000000000
F0010000005757100001000089031248700011050500000000000000000201404300002001DISTRIBUIDORA CALIPLASTICOS LTDA                  D000000001724800000000000000000000100010010000000000000000000000F0010000005757100120140430000101 00000000000000000000000000000000000000000000000000000000000000000000000000000000000000000000000000000000000000000N 00000000000NCONT   00    00000000000          00000000000000000000000000000000000000000000 000000000000000A000000000000000000000000000000000000000000000 000000000000000000000000000000000000000     00000000                                                                                                                        000000000000000000
F0010000005757100002000089031248700041450500000000000000000201404300002001DISTRIBUIDORA CALIPLASTICOS LTDA                  C000000001500000000000000000000000100010010000000000000000000000F0010000005757100220140430000101 00000000000000000000000000000000000000000000000000000000000000000000000000000000000000000000000000000000000000000N 00000000000NCONT   00    00000000000          00000000000000000000000000000000000000000000 000000000000000A000000000000000000000000000000000000000000000 000000000000000000000000000000000000000     00000000                                                                                                                        000000000000000000
F0010000005757100003000089031248700042505000000000000000000201404300002001DISTRIBUIDORA CALIPLASTICOS LTDA                  C000000000224800000000000000000000100010010000000000000000000000F0010000005757100320140430000101 00000000000000000000000000000000000000000000000000000000000000000000000000000000000000000000000000000000000000000N 00000000000NCONT   00    00000000000          00000000000000000000000000000000000000000000 000000000000000A000000000000000000000000000000000000000000000 000000000000000000000000000000000000000     00000000                                                                                                                        000000000000000000
F0010000005757100004000089031248700023658300000000000000000201404300002001DISTRIBUIDORA CALIPLASTICOS LTDA                  C000000000012000000000000000000000100010010000000000000000000000F0010000005757100420140430000101 00000000000000000000000000000000000000000000000000000000000000000000000000000000000000000000000000000000000000000N 00000000000NCONT   00    00000000000          00000000000000000000000000000000000000000000 000000000000000A000000000000000000000000000000000000000000000 000000000000000000000000000000000000000     00000000                                                                                                                        000000000000000000
F0010000005757100005000089031248700013552100000000000000000201404300002001DISTRIBUIDORA CALIPLASTICOS LTDA                  D000000000012000000000000000000000100010010000000000000000000000F0010000005757100520140430000101 00000000000000000000000000000000000000000000000000000000000000000000000000000000000000000000000000000000000000000N 00000000000NCONT   00    00000000000          00000000000000000000000000000000000000000000 000000000000000A000000000000000000000000000000000000000000000 000000000000000000000000000000000000000     00000000                                                                                                                        000000000000000000
F0010000005757200001000000876579700011050500000000000000000201404300002001JOSE LUIS MUOZ                                  D000000002000000000000000000000000100010010000000000000000000000F0010000005757200120140430000101 00000000000000000000000000000000000000000000000000000000000000000000000000000000000000000000000000000000000000000N 00000000000NCONT   00    00000000000          00000000000000000000000000000000000000000000 000000000000000A000000000000000000000000000000000000000000000 000000000000000000000000000000000000000     00000000                                                                                                                        000000000000000000
F0010000005757200002000000876579700041450500000000000000000201404300002001JOSE LUIS MUOZ                                  C000000001800000000000000000000000100010010000000000000000000000F0010000005757200220140430000101 00000000000000000000000000000000000000000000000000000000000000000000000000000000000000000000000000000000000000000N 00000000000NCONT   00    00000000000          00000000000000000000000000000000000000000000 000000000000000A000000000000000000000000000000000000000000000 000000000000000000000000000000000000000     00000000                                                                                                                        000000000000000000
F0010000005757200003000000876579700042505000000000000000000201404300002001JOSE LUIS MUOZ                                  C000000000200000000000000000000000100010010000000000000000000000F0010000005757200320140430000101 00000000000000000000000000000000000000000000000000000000000000000000000000000000000000000000000000000000000000000N 00000000000NCONT   00    00000000000          00000000000000000000000000000000000000000000 000000000000000A000000000000000000000000000000000000000000000 000000000000000000000000000000000000000     00000000                                                                                                                        000000000000000000
F0010000005757200004000000876579700023658300000000000000000201404300002001JOSE LUIS MUOZ                                  C000000000014400000000000000000000100010010000000000000000000000F0010000005757200420140430000101 00000000000000000000000000000000000000000000000000000000000000000000000000000000000000000000000000000000000000000N 00000000000NCONT   00    00000000000          00000000000000000000000000000000000000000000 000000000000000A000000000000000000000000000000000000000000000 000000000000000000000000000000000000000     00000000                                                                                                                        000000000000000000
F0010000005757200005000000876579700013552100000000000000000201404300002001JOSE LUIS MUOZ                                  D000000000014400000000000000000000100010010000000000000000000000F0010000005757200520140430000101 00000000000000000000000000000000000000000000000000000000000000000000000000000000000000000000000000000000000000000N 00000000000NCONT   00    00000000000          00000000000000000000000000000000000000000000 000000000000000A000000000000000000000000000000000000000000000 000000000000000000000000000000000000000     00000000                                                                                                                        000000000000000000
F0010000005757300001000000876579700011050500000000000000000201404300002001JOSE LUIS MUOZ                                  D000000002000000000000000000000000100010010000000000000000000000F0010000005757300120140430000101 00000000000000000000000000000000000000000000000000000000000000000000000000000000000000000000000000000000000000000N 00000000000NCONT   00    00000000000          00000000000000000000000000000000000000000000 000000000000000A000000000000000000000000000000000000000000000 000000000000000000000000000000000000000     00000000                                                                                                                        000000000000000000
F0010000005757300002000000876579700041450500000000000000000201404300002001JOSE LUIS MUOZ                                  C000000001800000000000000000000000100010010000000000000000000000F0010000005757300220140430000101 00000000000000000000000000000000000000000000000000000000000000000000000000000000000000000000000000000000000000000N 00000000000NCONT   00    00000000000          00000000000000000000000000000000000000000000 000000000000000A000000000000000000000000000000000000000000000 000000000000000000000000000000000000000     00000000                                                                                                                        000000000000000000
F0010000005757300003000000876579700042505000000000000000000201404300002001JOSE LUIS MUOZ                                  C000000000200000000000000000000000100010010000000000000000000000F0010000005757300320140430000101 00000000000000000000000000000000000000000000000000000000000000000000000000000000000000000000000000000000000000000N 00000000000NCONT   00    00000000000          00000000000000000000000000000000000000000000 000000000000000A000000000000000000000000000000000000000000000 000000000000000000000000000000000000000     00000000                                                                                                                        000000000000000000
F0010000005757300004000000876579700023658300000000000000000201404300002001JOSE LUIS MUOZ                                  C000000000014400000000000000000000100010010000000000000000000000F0010000005757300420140430000101 00000000000000000000000000000000000000000000000000000000000000000000000000000000000000000000000000000000000000000N 00000000000NCONT   00    00000000000          00000000000000000000000000000000000000000000 000000000000000A000000000000000000000000000000000000000000000 000000000000000000000000000000000000000     00000000                                                                                                                        000000000000000000
F0010000005757300005000000876579700013552100000000000000000201404300002001JOSE LUIS MUOZ                                  D000000000014400000000000000000000100010010000000000000000000000F0010000005757300520140430000101 00000000000000000000000000000000000000000000000000000000000000000000000000000000000000000000000000000000000000000N 00000000000NCONT   00    00000000000          00000000000000000000000000000000000000000000 000000000000000A000000000000000000000000000000000000000000000 000000000000000000000000000000000000000     00000000                                                                                                                        000000000000000000
F0010000005757400001000089011069100011050500000000000000000201404300002001LA CASA DE LAS ALFOMBRAS LTDA                     D000000002550000000000000000000000100010010000000000000000000000F0010000005757400120140430000101 00000000000000000000000000000000000000000000000000000000000000000000000000000000000000000000000000000000000000000N 00000000000NCONT   00    00000000000          00000000000000000000000000000000000000000000 000000000000000A000000000000000000000000000000000000000000000 000000000000000000000000000000000000000     00000000                                                                                                                        000000000000000000
F0010000005757400002000089011069100041450500000000000000000201404300002001LA CASA DE LAS ALFOMBRAS LTDA                     C000000002000000000000000000000000100010010000000000000000000000F0010000005757400220140430000101 00000000000000000000000000000000000000000000000000000000000000000000000000000000000000000000000000000000000000000N 00000000000NCONT   00    00000000000          00000000000000000000000000000000000000000000 000000000000000A000000000000000000000000000000000000000000000 000000000000000000000000000000000000000     00000000                                                                                                                        000000000000000000
F0010000005757400003000089011069100042505000000000000000000201404300002001LA CASA DE LAS ALFOMBRAS LTDA                     C000000000550000000000000000000000100010010000000000000000000000F0010000005757400320140430000101 00000000000000000000000000000000000000000000000000000000000000000000000000000000000000000000000000000000000000000N 00000000000NCONT   00    00000000000          00000000000000000000000000000000000000000000 000000000000000A000000000000000000000000000000000000000000000 000000000000000000000000000000000000000     00000000                                                                                                                        000000000000000000
F0010000005757400004000089011069100023658300000000000000000201404300002001LA CASA DE LAS ALFOMBRAS LTDA                     C000000000016000000000000000000000100010010000000000000000000000F0010000005757400420140430000101 00000000000000000000000000000000000000000000000000000000000000000000000000000000000000000000000000000000000000000N 00000000000NCONT   00    00000000000          00000000000000000000000000000000000000000000 000000000000000A000000000000000000000000000000000000000000000 000000000000000000000000000000000000000     00000000                                                                                                                        000000000000000000
F0010000005757400005000089011069100013552100000000000000000201404300002001LA CASA DE LAS ALFOMBRAS LTDA                     D000000000016000000000000000000000100010010000000000000000000000F0010000005757400520140430000101 00000000000000000000000000000000000000000000000000000000000000000000000000000000000000000000000000000000000000000N 00000000000NCONT   00    00000000000          00000000000000000000000000000000000000000000 000000000000000A000000000000000000000000000000000000000000000 000000000000000000000000000000000000000     00000000                                                                                                                        000000000000000000
F0010000005757500001000089011069100011050500000000000000000201404300002001LA CASA DE LAS ALFOMBRAS LTDA                     D000000006905000000000000000000000100010010000000000000000000000F0010000005757500120140430000101 00000000000000000000000000000000000000000000000000000000000000000000000000000000000000000000000000000000000000000N 00000000000NCONT   00    00000000000          00000000000000000000000000000000000000000000 000000000000000A000000000000000000000000000000000000000000000 000000000000000000000000000000000000000     00000000                                                                                                                        000000000000000000
F0010000005757500002000089011069100041450500000000000000000201404300002001LA CASA DE LAS ALFOMBRAS LTDA                     C000000006000000000000000000000000100010010000000000000000000000F0010000005757500220140430000101 00000000000000000000000000000000000000000000000000000000000000000000000000000000000000000000000000000000000000000N 00000000000NCONT   00    00000000000          00000000000000000000000000000000000000000000 000000000000000A000000000000000000000000000000000000000000000 000000000000000000000000000000000000000     00000000                                                                                                                        000000000000000000
F0010000005757500003000089011069100042505000000000000000000201404300002001LA CASA DE LAS ALFOMBRAS LTDA                     C000000000905000000000000000000000100010010000000000000000000000F0010000005757500320140430000101 00000000000000000000000000000000000000000000000000000000000000000000000000000000000000000000000000000000000000000N 00000000000NCONT   00    00000000000          00000000000000000000000000000000000000000000 000000000000000A000000000000000000000000000000000000000000000 000000000000000000000000000000000000000     00000000                                                                                                                        000000000000000000
F0010000005757500004000089011069100023658300000000000000000201404300002001LA CASA DE LAS ALFOMBRAS LTDA                     C000000000048000000000000000000000100010010000000000000000000000F0010000005757500420140430000101 00000000000000000000000000000000000000000000000000000000000000000000000000000000000000000000000000000000000000000N 00000000000NCONT   00    00000000000          00000000000000000000000000000000000000000000 000000000000000A000000000000000000000000000000000000000000000 000000000000000000000000000000000000000     00000000                                                                                                                        000000000000000000
F0010000005757500005000089011069100013552100000000000000000201404300002001LA CASA DE LAS ALFOMBRAS LTDA                     D000000000048000000000000000000000100010010000000000000000000000F0010000005757500520140430000101 00000000000000000000000000000000000000000000000000000000000000000000000000000000000000000000000000000000000000000N 00000000000NCONT   00    00000000000          00000000000000000000000000000000000000000000 000000000000000A000000000000000000000000000000000000000000000 000000000000000000000000000000000000000     00000000                                                                                                                        000000000000000000
F0010000005757600001000007200205100011050500000000000000000201404300002001LUIS MOLINA                                       D000000014700000000000000000000000100010010000000000000000000000F0010000005757600120140430000101 00000000000000000000000000000000000000000000000000000000000000000000000000000000000000000000000000000000000000000N 00000000000NCONT   00    00000000000          00000000000000000000000000000000000000000000 000000000000000A000000000000000000000000000000000000000000000 000000000000000000000000000000000000000     00000000                                                                                                                        000000000000000000
F0010000005757600002000007200205100041450500000000000000000201404300002001LUIS MOLINA                                       C000000013400000000000000000000000100010010000000000000000000000F0010000005757600220140430000101 00000000000000000000000000000000000000000000000000000000000000000000000000000000000000000000000000000000000000000N 00000000000NCONT   00    00000000000          00000000000000000000000000000000000000000000 000000000000000A000000000000000000000000000000000000000000000 000000000000000000000000000000000000000     00000000                                                                                                                        000000000000000000
F0010000005757600003000007200205100042505000000000000000000201404300002001LUIS MOLINA                                       C000000001300000000000000000000000100010010000000000000000000000F0010000005757600320140430000101 00000000000000000000000000000000000000000000000000000000000000000000000000000000000000000000000000000000000000000N 00000000000NCONT   00    00000000000          00000000000000000000000000000000000000000000 000000000000000A000000000000000000000000000000000000000000000 000000000000000000000000000000000000000     00000000                                                                                                                        000000000000000000
F0010000005757600004000007200205100023658300000000000000000201404300002001LUIS MOLINA                                       C000000000107200000000000000000000100010010000000000000000000000F0010000005757600420140430000101 00000000000000000000000000000000000000000000000000000000000000000000000000000000000000000000000000000000000000000N 00000000000NCONT   00    00000000000          00000000000000000000000000000000000000000000 000000000000000A000000000000000000000000000000000000000000000 000000000000000000000000000000000000000     00000000                                                                                                                        000000000000000000
F0010000005757600005000007200205100013552100000000000000000201404300002001LUIS MOLINA                                       D000000000107200000000000000000000100010010000000000000000000000F0010000005757600520140430000101 00000000000000000000000000000000000000000000000000000000000000000000000000000000000000000000000000000000000000000N 00000000000NCONT   00    00000000000          00000000000000000000000000000000000000000000 000000000000000A000000000000000000000000000000000000000000000 000000000000000000000000000000000000000     00000000                                                                                                                        000000000000000000
F0010000005757700001000007213026700011050500000000000000000201404300002001CARLOS CARO                                       D000000004000000000000000000000000100010010000000000000000000000F0010000005757700120140430000101 00000000000000000000000000000000000000000000000000000000000000000000000000000000000000000000000000000000000000000N 00000000000NCONT   00    00000000000          00000000000000000000000000000000000000000000 000000000000000A000000000000000000000000000000000000000000000 000000000000000000000000000000000000000     00000000                                                                                                                        000000000000000000
F0010000005757700002000007213026700041450500000000000000000201404300002001CARLOS CARO                                       C000000003700000000000000000000000100010010000000000000000000000F0010000005757700220140430000101 00000000000000000000000000000000000000000000000000000000000000000000000000000000000000000000000000000000000000000N 00000000000NCONT   00    00000000000          00000000000000000000000000000000000000000000 000000000000000A000000000000000000000000000000000000000000000 000000000000000000000000000000000000000     00000000                                                                                                                        000000000000000000
F0010000005757700003000007213026700042505000000000000000000201404300002001CARLOS CARO                                       C000000000300000000000000000000000100010010000000000000000000000F0010000005757700320140430000101 00000000000000000000000000000000000000000000000000000000000000000000000000000000000000000000000000000000000000000N 00000000000NCONT   00    00000000000          00000000000000000000000000000000000000000000 000000000000000A000000000000000000000000000000000000000000000 000000000000000000000000000000000000000     00000000                                                                                                                        000000000000000000
F0010000005757700004000007213026700023658300000000000000000201404300002001CARLOS CARO                                       C000000000029600000000000000000000100010010000000000000000000000F0010000005757700420140430000101 00000000000000000000000000000000000000000000000000000000000000000000000000000000000000000000000000000000000000000N 00000000000NCONT   00    00000000000          00000000000000000000000000000000000000000000 000000000000000A000000000000000000000000000000000000000000000 000000000000000000000000000000000000000     00000000                                                                                                                        000000000000000000
F0010000005757700005000007213026700013552100000000000000000201404300002001CARLOS CARO                                       D000000000029600000000000000000000100010010000000000000000000000F0010000005757700520140430000101 00000000000000000000000000000000000000000000000000000000000000000000000000000000000000000000000000000000000000000N 00000000000NCONT   00    00000000000          00000000000000000000000000000000000000000000 000000000000000A000000000000000000000000000000000000000000000 000000000000000000000000000000000000000     00000000                                                                                                                        000000000000000000
F0010000005757800001000090007142100011050500000000000000000201404300002001TODO BELLEZA Y MAX S.A.S                          D000000008000000000000000000000000100010010000000000000000000000F0010000005757800120140430000101 00000000000000000000000000000000000000000000000000000000000000000000000000000000000000000000000000000000000000000N 00000000000NCONT   00    00000000000          00000000000000000000000000000000000000000000 000000000000000A000000000000000000000000000000000000000000000 000000000000000000000000000000000000000     00000000                                                                                                                        000000000000000000
F0010000005757800002000090007142100041450500000000000000000201404300002001TODO BELLEZA Y MAX S.A.S                          C000000007500000000000000000000000100010010000000000000000000000F0010000005757800220140430000101 00000000000000000000000000000000000000000000000000000000000000000000000000000000000000000000000000000000000000000N 00000000000NCONT   00    00000000000          00000000000000000000000000000000000000000000 000000000000000A000000000000000000000000000000000000000000000 000000000000000000000000000000000000000     00000000                                                                                                                        000000000000000000
