F0010000008722400001000000871714900013050500000000000000000201606150002001ROLNAN DE LA ROSA  INSIGNARES                     D000000056948000000000000000000000100010010000000000000000000000F0010000008722400120160615000101 00000000000000000000000000000000000000000000000000000000000000000000000000000000000000000000000000000000000000000N 00000000000NCONT   00    00000000000          00000000000000000000000000000000000000000000 000000000000000A000000000000000000000000000000000000000000000 000000000000000000000000000000000000000     00000000                                                                                                                        000000000000000000
F0010000008722400002000000871714900041450500000000000000000201606150002001ROLNAN DE LA ROSA  INSIGNARES                     C000000049459000000000000000000000100010010000000000000000000000F0010000008722400220160615000101 00000000000000000000000000000000000000000000000000000000000000000000000000000000000000000000000000000000000000000N 00000000000NCONT   00    00000000000          00000000000000000000000000000000000000000000 000000000000000A000000000000000000000000000000000000000000000 000000000000000000000000000000000000000     00000000                                                                                                                        000000000000000000
F0010000008722400003000000871714900042505000000000000000000201606150002001ROLNAN DE LA ROSA  INSIGNARES                     C000000007489000000000000000000000100010010000000000000000000000F0010000008722400320160615000101 00000000000000000000000000000000000000000000000000000000000000000000000000000000000000000000000000000000000000000N 00000000000NCONT   00    00000000000          00000000000000000000000000000000000000000000 000000000000000A000000000000000000000000000000000000000000000 000000000000000000000000000000000000000     00000000                                                                                                                        000000000000000000
F0010000008722400004000000871714900023658300000000000000000201606150002001ROLNAN DE LA ROSA  INSIGNARES                     C000000000395700000000000000000000100010010000000000000000000000F0010000008722400420160615000101 00000000000000000000000000000000000000000000000000000000000000000000000000000000000000000000000000000000000000000N 00000000000NCONT   00    00000000000          00000000000000000000000000000000000000000000 000000000000000A000000000000000000000000000000000000000000000 000000000000000000000000000000000000000     00000000                                                                                                                        000000000000000000
F0010000008722400005000000871714900013552100000000000000000201606150002001ROLNAN DE LA ROSA  INSIGNARES                     D000000000395700000000000000000000100010010000000000000000000000F0010000008722400520160615000101 00000000000000000000000000000000000000000000000000000000000000000000000000000000000000000000000000000000000000000N 00000000000NCONT   00    00000000000          00000000000000000000000000000000000000000000 000000000000000A000000000000000000000000000000000000000000000 000000000000000000000000000000000000000     00000000                                                                                                                        000000000000000000
F0010000008722500001000086000490200013050500000000000000000201606150002001PROV. DE PAPELES ANDINA S.A.                      D000000040117200000000000000000000100010010000000000000000000000F0010000008722500120160615000101 00000000000000000000000000000000000000000000000000000000000000000000000000000000000000000000000000000000000000000N 00000000000NCONT   00    00000000000          00000000000000000000000000000000000000000000 000000000000000A000000000000000000000000000000000000000000000 000000000000000000000000000000000000000     00000000                                                                                                                        000000000000000000
F0010000008722500002000086000490200041450500000000000000000201606150002001PROV. DE PAPELES ANDINA S.A.                      C000000036270700000000000000000000100010010000000000000000000000F0010000008722500220160615000101 00000000000000000000000000000000000000000000000000000000000000000000000000000000000000000000000000000000000000000N 00000000000NCONT   00    00000000000          00000000000000000000000000000000000000000000 000000000000000A000000000000000000000000000000000000000000000 000000000000000000000000000000000000000     00000000                                                                                                                        000000000000000000
F0010000008722500003000086000490200042505000000000000000000201606150002001PROV. DE PAPELES ANDINA S.A.                      C000000003846500000000000000000000100010010000000000000000000000F0010000008722500320160615000101 00000000000000000000000000000000000000000000000000000000000000000000000000000000000000000000000000000000000000000N 00000000000NCONT   00    00000000000          00000000000000000000000000000000000000000000 000000000000000A000000000000000000000000000000000000000000000 000000000000000000000000000000000000000     00000000                                                                                                                        000000000000000000
F0010000008722500004000086000490200023658300000000000000000201606150002001PROV. DE PAPELES ANDINA S.A.                      C000000000290200000000000000000000100010010000000000000000000000F0010000008722500420160615000101 00000000000000000000000000000000000000000000000000000000000000000000000000000000000000000000000000000000000000000N 00000000000NCONT   00    00000000000          00000000000000000000000000000000000000000000 000000000000000A000000000000000000000000000000000000000000000 000000000000000000000000000000000000000     00000000                                                                                                                        000000000000000000
F0010000008722500005000086000490200013552100000000000000000201606150002001PROV. DE PAPELES ANDINA S.A.                      D000000000290200000000000000000000100010010000000000000000000000F0010000008722500520160615000101 00000000000000000000000000000000000000000000000000000000000000000000000000000000000000000000000000000000000000000N 00000000000NCONT   00    00000000000          00000000000000000000000000000000000000000000 000000000000000A000000000000000000000000000000000000000000000 000000000000000000000000000000000000000     00000000                                                                                                                        000000000000000000
F0010000008722600001000080200863700013050500000000000000000201606150002001COPIN S.A.S                                       D000000059041900000000000000000000100010010000000000000000000000F0010000008722600120160615000101 00000000000000000000000000000000000000000000000000000000000000000000000000000000000000000000000000000000000000000N 00000000000NCONT   00    00000000000          00000000000000000000000000000000000000000000 000000000000000A000000000000000000000000000000000000000000000 000000000000000000000000000000000000000     00000000                                                                                                                        000000000000000000
F0010000008722600002000080200863700041450500000000000000000201606150002001COPIN S.A.S                                       C000000055615200000000000000000000100010010000000000000000000000F0010000008722600220160615000101 00000000000000000000000000000000000000000000000000000000000000000000000000000000000000000000000000000000000000000N 00000000000NCONT   00    00000000000          00000000000000000000000000000000000000000000 000000000000000A000000000000000000000000000000000000000000000 000000000000000000000000000000000000000     00000000                                                                                                                        000000000000000000
F0010000008722600003000080200863700042505000000000000000000201606150002001COPIN S.A.S                                       C000000003426700000000000000000000100010010000000000000000000000F0010000008722600320160615000101 00000000000000000000000000000000000000000000000000000000000000000000000000000000000000000000000000000000000000000N 00000000000NCONT   00    00000000000          00000000000000000000000000000000000000000000 000000000000000A000000000000000000000000000000000000000000000 000000000000000000000000000000000000000     00000000                                                                                                                        000000000000000000
F0010000008722600004000080200863700023658300000000000000000201606150002001COPIN S.A.S                                       C000000000444900000000000000000000100010010000000000000000000000F0010000008722600420160615000101 00000000000000000000000000000000000000000000000000000000000000000000000000000000000000000000000000000000000000000N 00000000000NCONT   00    00000000000          00000000000000000000000000000000000000000000 000000000000000A000000000000000000000000000000000000000000000 000000000000000000000000000000000000000     00000000                                                                                                                        000000000000000000
F0010000008722600005000080200863700013552100000000000000000201606150002001COPIN S.A.S                                       D000000000444900000000000000000000100010010000000000000000000000F0010000008722600520160615000101 00000000000000000000000000000000000000000000000000000000000000000000000000000000000000000000000000000000000000000N 00000000000NCONT   00    00000000000          00000000000000000000000000000000000000000000 000000000000000A000000000000000000000000000000000000000000000 000000000000000000000000000000000000000     00000000                                                                                                                        000000000000000000
F0010000008722700001000000460251100011050500000000000000000201606150002001JORGE GONZALEZ                                    D000000003700000000000000000000000100010010000000000000000000000F0010000008722700120160615000101 00000000000000000000000000000000000000000000000000000000000000000000000000000000000000000000000000000000000000000N 00000000000NCONT   00    00000000000          00000000000000000000000000000000000000000000 000000000000000A000000000000000000000000000000000000000000000 000000000000000000000000000000000000000     00000000                                                                                                                        000000000000000000
F0010000008722700002000000460251100041450500000000000000000201606150002001JORGE GONZALEZ                                    C000000003000000000000000000000000100010010000000000000000000000F0010000008722700220160615000101 00000000000000000000000000000000000000000000000000000000000000000000000000000000000000000000000000000000000000000N 00000000000NCONT   00    00000000000          00000000000000000000000000000000000000000000 000000000000000A000000000000000000000000000000000000000000000 000000000000000000000000000000000000000     00000000                                                                                                                        000000000000000000
F0010000008722700003000000460251100042505000000000000000000201606150002001JORGE GONZALEZ                                    C000000000700000000000000000000000100010010000000000000000000000F0010000008722700320160615000101 00000000000000000000000000000000000000000000000000000000000000000000000000000000000000000000000000000000000000000N 00000000000NCONT   00    00000000000          00000000000000000000000000000000000000000000 000000000000000A000000000000000000000000000000000000000000000 000000000000000000000000000000000000000     00000000                                                                                                                        000000000000000000
F0010000008722700004000000460251100023658300000000000000000201606150002001JORGE GONZALEZ                                    C000000000024000000000000000000000100010010000000000000000000000F0010000008722700420160615000101 00000000000000000000000000000000000000000000000000000000000000000000000000000000000000000000000000000000000000000N 00000000000NCONT   00    00000000000          00000000000000000000000000000000000000000000 000000000000000A000000000000000000000000000000000000000000000 000000000000000000000000000000000000000     00000000                                                                                                                        000000000000000000
F0010000008722700005000000460251100013552100000000000000000201606150002001JORGE GONZALEZ                                    D000000000024000000000000000000000100010010000000000000000000000F0010000008722700520160615000101 00000000000000000000000000000000000000000000000000000000000000000000000000000000000000000000000000000000000000000N 00000000000NCONT   00    00000000000          00000000000000000000000000000000000000000000 000000000000000A000000000000000000000000000000000000000000000 000000000000000000000000000000000000000     00000000                                                                                                                        000000000000000000
F0010000008722800001000090071760000011050500000000000000000201606150002001REFRIGERAR INGENIEROS SAS                         D000000001600000000000000000000000100010010000000000000000000000F0010000008722800120160615000101 00000000000000000000000000000000000000000000000000000000000000000000000000000000000000000000000000000000000000000N 00000000000NCONT   00    00000000000          00000000000000000000000000000000000000000000 000000000000000A000000000000000000000000000000000000000000000 000000000000000000000000000000000000000     00000000                                                                                                                        000000000000000000
F0010000008722800002000090071760000041450500000000000000000201606150002001REFRIGERAR INGENIEROS SAS                         C000000001500000000000000000000000100010010000000000000000000000F0010000008722800220160615000101 00000000000000000000000000000000000000000000000000000000000000000000000000000000000000000000000000000000000000000N 00000000000NCONT   00    00000000000          00000000000000000000000000000000000000000000 000000000000000A000000000000000000000000000000000000000000000 000000000000000000000000000000000000000     00000000                                                                                                                        000000000000000000
F0010000008722800003000090071760000042505000000000000000000201606150002001REFRIGERAR INGENIEROS SAS                         C000000000100000000000000000000000100010010000000000000000000000F0010000008722800320160615000101 00000000000000000000000000000000000000000000000000000000000000000000000000000000000000000000000000000000000000000N 00000000000NCONT   00    00000000000          00000000000000000000000000000000000000000000 000000000000000A000000000000000000000000000000000000000000000 000000000000000000000000000000000000000     00000000                                                                                                                        000000000000000000
F0010000008722800004000090071760000023658300000000000000000201606150002001REFRIGERAR INGENIEROS SAS                         C000000000012000000000000000000000100010010000000000000000000000F0010000008722800420160615000101 00000000000000000000000000000000000000000000000000000000000000000000000000000000000000000000000000000000000000000N 00000000000NCONT   00    00000000000          00000000000000000000000000000000000000000000 000000000000000A000000000000000000000000000000000000000000000 000000000000000000000000000000000000000     00000000                                                                                                                        000000000000000000
F0010000008722800005000090071760000013552100000000000000000201606150002001REFRIGERAR INGENIEROS SAS                         D000000000012000000000000000000000100010010000000000000000000000F0010000008722800520160615000101 00000000000000000000000000000000000000000000000000000000000000000000000000000000000000000000000000000000000000000N 00000000000NCONT   00    00000000000          00000000000000000000000000000000000000000000 000000000000000A000000000000000000000000000000000000000000000 000000000000000000000000000000000000000     00000000                                                                                                                        000000000000000000
F0010000008722900001000007090373900011050500000000000000000201606150002001CACHARRERIA LOS MARINILLOS                        D000000033000000000000000000000000100010010000000000000000000000F0010000008722900120160615000101 00000000000000000000000000000000000000000000000000000000000000000000000000000000000000000000000000000000000000000N 00000000000NCONT   00    00000000000          00000000000000000000000000000000000000000000 000000000000000A000000000000000000000000000000000000000000000 000000000000000000000000000000000000000     00000000                                                                                                                        000000000000000000
F0010000008722900002000007090373900041450500000000000000000201606150002001CACHARRERIA LOS MARINILLOS                        C000000028000000000000000000000000100010010000000000000000000000F0010000008722900220160615000101 00000000000000000000000000000000000000000000000000000000000000000000000000000000000000000000000000000000000000000N 00000000000NCONT   00    00000000000          00000000000000000000000000000000000000000000 000000000000000A000000000000000000000000000000000000000000000 000000000000000000000000000000000000000     00000000                                                                                                                        000000000000000000
F0010000008722900003000007090373900042505000000000000000000201606150002001CACHARRERIA LOS MARINILLOS                        C000000005000000000000000000000000100010010000000000000000000000F0010000008722900320160615000101 00000000000000000000000000000000000000000000000000000000000000000000000000000000000000000000000000000000000000000N 00000000000NCONT   00    00000000000          00000000000000000000000000000000000000000000 000000000000000A000000000000000000000000000000000000000000000 000000000000000000000000000000000000000     00000000                                                                                                                        000000000000000000
F0010000008722900004000007090373900023658300000000000000000201606150002001CACHARRERIA LOS MARINILLOS                        C000000000224000000000000000000000100010010000000000000000000000F0010000008722900420160615000101 00000000000000000000000000000000000000000000000000000000000000000000000000000000000000000000000000000000000000000N 00000000000NCONT   00    00000000000          00000000000000000000000000000000000000000000 000000000000000A000000000000000000000000000000000000000000000 000000000000000000000000000000000000000     00000000                                                                                                                        000000000000000000
F0010000008722900005000007090373900013552100000000000000000201606150002001CACHARRERIA LOS MARINILLOS                        D000000000224000000000000000000000100010010000000000000000000000F0010000008722900520160615000101 00000000000000000000000000000000000000000000000000000000000000000000000000000000000000000000000000000000000000000N 00000000000NCONT   00    00000000000          00000000000000000000000000000000000000000000 000000000000000A000000000000000000000000000000000000000000000 000000000000000000000000000000000000000     00000000                                                                                                                        000000000000000000
F0010000008723000001000090000859400011050500000000000000000201606150002001COMERCIAL JOTACE LTDA                             D000000002600000000000000000000000100010010000000000000000000000F0010000008723000120160615000101 00000000000000000000000000000000000000000000000000000000000000000000000000000000000000000000000000000000000000000N 00000000000NCONT   00    00000000000          00000000000000000000000000000000000000000000 000000000000000A000000000000000000000000000000000000000000000 000000000000000000000000000000000000000     00000000                                                                                                                        000000000000000000
F0010000008723000002000090000859400041450500000000000000000201606150002001COMERCIAL JOTACE LTDA                             C000000002200000000000000000000000100010010000000000000000000000F0010000008723000220160615000101 00000000000000000000000000000000000000000000000000000000000000000000000000000000000000000000000000000000000000000N 00000000000NCONT   00    00000000000          00000000000000000000000000000000000000000000 000000000000000A000000000000000000000000000000000000000000000 000000000000000000000000000000000000000     00000000                                                                                                                        000000000000000000
F0010000008723000003000090000859400042505000000000000000000201606150002001COMERCIAL JOTACE LTDA                             C000000000400000000000000000000000100010010000000000000000000000F0010000008723000320160615000101 00000000000000000000000000000000000000000000000000000000000000000000000000000000000000000000000000000000000000000N 00000000000NCONT   00    00000000000          00000000000000000000000000000000000000000000 000000000000000A000000000000000000000000000000000000000000000 000000000000000000000000000000000000000     00000000                                                                                                                        000000000000000000
F0010000008723000004000090000859400023658300000000000000000201606150002001COMERCIAL JOTACE LTDA                             C000000000017600000000000000000000100010010000000000000000000000F0010000008723000420160615000101 00000000000000000000000000000000000000000000000000000000000000000000000000000000000000000000000000000000000000000N 00000000000NCONT   00    00000000000          00000000000000000000000000000000000000000000 000000000000000A000000000000000000000000000000000000000000000 000000000000000000000000000000000000000     00000000                                                                                                                        000000000000000000
F0010000008723000005000090000859400013552100000000000000000201606150002001COMERCIAL JOTACE LTDA                             D000000000017600000000000000000000100010010000000000000000000000F0010000008723000520160615000101 00000000000000000000000000000000000000000000000000000000000000000000000000000000000000000000000000000000000000000N 00000000000NCONT   00    00000000000          00000000000000000000000000000000000000000000 000000000000000A000000000000000000000000000000000000000000000 000000000000000000000000000000000000000     00000000                                                                                                                        000000000000000000
F0010000008723100001000000878369700011050500000000000000000201606150002001REYNALDO PANZA DE LA HOZ                          D000000001200000000000000000000000100010010000000000000000000000F0010000008723100120160615000101 00000000000000000000000000000000000000000000000000000000000000000000000000000000000000000000000000000000000000000N 00000000000NCONT   00    00000000000          00000000000000000000000000000000000000000000 000000000000000A000000000000000000000000000000000000000000000 000000000000000000000000000000000000000     00000000                                                                                                                        000000000000000000
F0010000008723100002000000878369700041450500000000000000000201606150002001REYNALDO PANZA DE LA HOZ                          C000000001000000000000000000000000100010010000000000000000000000F0010000008723100220160615000101 00000000000000000000000000000000000000000000000000000000000000000000000000000000000000000000000000000000000000000N 00000000000NCONT   00    00000000000          00000000000000000000000000000000000000000000 000000000000000A000000000000000000000000000000000000000000000 000000000000000000000000000000000000000     00000000                                                                                                                        000000000000000000
F0010000008723100003000000878369700042505000000000000000000201606150002001REYNALDO PANZA DE LA HOZ                          C000000000200000000000000000000000100010010000000000000000000000F0010000008723100320160615000101 00000000000000000000000000000000000000000000000000000000000000000000000000000000000000000000000000000000000000000N 00000000000NCONT   00    00000000000          00000000000000000000000000000000000000000000 000000000000000A000000000000000000000000000000000000000000000 000000000000000000000000000000000000000     00000000                                                                                                                        000000000000000000
F0010000008723100004000000878369700023658300000000000000000201606150002001REYNALDO PANZA DE LA HOZ                          C000000000008000000000000000000000100010010000000000000000000000F0010000008723100420160615000101 00000000000000000000000000000000000000000000000000000000000000000000000000000000000000000000000000000000000000000N 00000000000NCONT   00    00000000000          00000000000000000000000000000000000000000000 000000000000000A000000000000000000000000000000000000000000000 000000000000000000000000000000000000000     00000000                                                                                                                        000000000000000000
F0010000008723100005000000878369700013552100000000000000000201606150002001REYNALDO PANZA DE LA HOZ                          D000000000008000000000000000000000100010010000000000000000000000F0010000008723100520160615000101 00000000000000000000000000000000000000000000000000000000000000000000000000000000000000000000000000000000000000000N 00000000000NCONT   00    00000000000          00000000000000000000000000000000000000000000 000000000000000A000000000000000000000000000000000000000000000 000000000000000000000000000000000000000     00000000                                                                                                                        000000000000000000
F0010000008723200001000000908086400011050500000000000000000201606150002001JOSE DEL CRISTO SANES FERNANDEZ                   D000000005000000000000000000000000100010010000000000000000000000F0010000008723200120160615000101 00000000000000000000000000000000000000000000000000000000000000000000000000000000000000000000000000000000000000000N 00000000000NCONT   00    00000000000          00000000000000000000000000000000000000000000 000000000000000A000000000000000000000000000000000000000000000 000000000000000000000000000000000000000     00000000                                                                                                                        000000000000000000
F0010000008723200002000000908086400041450500000000000000000201606150002001JOSE DEL CRISTO SANES FERNANDEZ                   C000000004300000000000000000000000100010010000000000000000000000F0010000008723200220160615000101 00000000000000000000000000000000000000000000000000000000000000000000000000000000000000000000000000000000000000000N 00000000000NCONT   00    00000000000          00000000000000000000000000000000000000000000 000000000000000A000000000000000000000000000000000000000000000 000000000000000000000000000000000000000     00000000                                                                                                                        000000000000000000
F0010000008723200003000000908086400042505000000000000000000201606150002001JOSE DEL CRISTO SANES FERNANDEZ                   C000000000700000000000000000000000100010010000000000000000000000F0010000008723200320160615000101 00000000000000000000000000000000000000000000000000000000000000000000000000000000000000000000000000000000000000000N 00000000000NCONT   00    00000000000          00000000000000000000000000000000000000000000 000000000000000A000000000000000000000000000000000000000000000 000000000000000000000000000000000000000     00000000                                                                                                                        000000000000000000
F0010000008723200004000000908086400023658300000000000000000201606150002001JOSE DEL CRISTO SANES FERNANDEZ                   C000000000034400000000000000000000100010010000000000000000000000F0010000008723200420160615000101 00000000000000000000000000000000000000000000000000000000000000000000000000000000000000000000000000000000000000000N 00000000000NCONT   00    00000000000          00000000000000000000000000000000000000000000 000000000000000A000000000000000000000000000000000000000000000 000000000000000000000000000000000000000     00000000                                                                                                                        000000000000000000
F0010000008723200005000000908086400013552100000000000000000201606150002001JOSE DEL CRISTO SANES FERNANDEZ                   D000000000034400000000000000000000100010010000000000000000000000F0010000008723200520160615000101 00000000000000000000000000000000000000000000000000000000000000000000000000000000000000000000000000000000000000000N 00000000000NCONT   00    00000000000          00000000000000000000000000000000000000000000 000000000000000A000000000000000000000000000000000000000000000 000000000000000000000000000000000000000     00000000                                                                                                                        000000000000000000
F0010000008723300001000090020547900011050500000000000000000201606150002001COMERCIALIZADORA DAC DEL CARIBE S.A.S.            D000000002700000000000000000000000100010010000000000000000000000F0010000008723300120160615000101 00000000000000000000000000000000000000000000000000000000000000000000000000000000000000000000000000000000000000000N 00000000000NCONT   00    00000000000          00000000000000000000000000000000000000000000 000000000000000A000000000000000000000000000000000000000000000 000000000000000000000000000000000000000     00000000                                                                                                                        000000000000000000
F0010000008723300002000090020547900041450500000000000000000201606150002001COMERCIALIZADORA DAC DEL CARIBE S.A.S.            C000000002200000000000000000000000100010010000000000000000000000F0010000008723300220160615000101 00000000000000000000000000000000000000000000000000000000000000000000000000000000000000000000000000000000000000000N 00000000000NCONT   00    00000000000          00000000000000000000000000000000000000000000 000000000000000A000000000000000000000000000000000000000000000 000000000000000000000000000000000000000     00000000                                                                                                                        000000000000000000
F0010000008723300003000090020547900042505000000000000000000201606150002001COMERCIALIZADORA DAC DEL CARIBE S.A.S.            C000000000500000000000000000000000100010010000000000000000000000F0010000008723300320160615000101 00000000000000000000000000000000000000000000000000000000000000000000000000000000000000000000000000000000000000000N 00000000000NCONT   00    00000000000          00000000000000000000000000000000000000000000 000000000000000A000000000000000000000000000000000000000000000 000000000000000000000000000000000000000     00000000                                                                                                                        000000000000000000
F0010000008723300004000090020547900023658300000000000000000201606150002001COMERCIALIZADORA DAC DEL CARIBE S.A.S.            C000000000017600000000000000000000100010010000000000000000000000F0010000008723300420160615000101 00000000000000000000000000000000000000000000000000000000000000000000000000000000000000000000000000000000000000000N 00000000000NCONT   00    00000000000          00000000000000000000000000000000000000000000 000000000000000A000000000000000000000000000000000000000000000 000000000000000000000000000000000000000     00000000                                                                                                                        000000000000000000
F0010000008723300005000090020547900013552100000000000000000201606150002001COMERCIALIZADORA DAC DEL CARIBE S.A.S.            D000000000017600000000000000000000100010010000000000000000000000F0010000008723300520160615000101 00000000000000000000000000000000000000000000000000000000000000000000000000000000000000000000000000000000000000000N 00000000000NCONT   00    00000000000          00000000000000000000000000000000000000000000 000000000000000A000000000000000000000000000000000000000000000 000000000000000000000000000000000000000     00000000                                                                                                                        000000000000000000
F0010000008723400001000090020547900011050500000000000000000201606150002001COMERCIALIZADORA DAC DEL CARIBE S.A.S.            D000000001900000000000000000000000100010010000000000000000000000F0010000008723400120160615000101 00000000000000000000000000000000000000000000000000000000000000000000000000000000000000000000000000000000000000000N 00000000000NCONT   00    00000000000          00000000000000000000000000000000000000000000 000000000000000A000000000000000000000000000000000000000000000 000000000000000000000000000000000000000     00000000                                                                                                                        000000000000000000
F0010000008723400002000090020547900041450500000000000000000201606150002001COMERCIALIZADORA DAC DEL CARIBE S.A.S.            C000000001300000000000000000000000100010010000000000000000000000F0010000008723400220160615000101 00000000000000000000000000000000000000000000000000000000000000000000000000000000000000000000000000000000000000000N 00000000000NCONT   00    00000000000          00000000000000000000000000000000000000000000 000000000000000A000000000000000000000000000000000000000000000 000000000000000000000000000000000000000     00000000                                                                                                                        000000000000000000
F0010000008723400003000090020547900042505000000000000000000201606150002001COMERCIALIZADORA DAC DEL CARIBE S.A.S.            C000000000600000000000000000000000100010010000000000000000000000F0010000008723400320160615000101 00000000000000000000000000000000000000000000000000000000000000000000000000000000000000000000000000000000000000000N 00000000000NCONT   00    00000000000          00000000000000000000000000000000000000000000 000000000000000A000000000000000000000000000000000000000000000 000000000000000000000000000000000000000     00000000                                                                                                                        000000000000000000
F0010000008723400004000090020547900023658300000000000000000201606150002001COMERCIALIZADORA DAC DEL CARIBE S.A.S.            C000000000010400000000000000000000100010010000000000000000000000F0010000008723400420160615000101 00000000000000000000000000000000000000000000000000000000000000000000000000000000000000000000000000000000000000000N 00000000000NCONT   00    00000000000          00000000000000000000000000000000000000000000 000000000000000A000000000000000000000000000000000000000000000 000000000000000000000000000000000000000     00000000                                                                                                                        000000000000000000
F0010000008723400005000090020547900013552100000000000000000201606150002001COMERCIALIZADORA DAC DEL CARIBE S.A.S.            D000000000010400000000000000000000100010010000000000000000000000F0010000008723400520160615000101 00000000000000000000000000000000000000000000000000000000000000000000000000000000000000000000000000000000000000000N 00000000000NCONT   00    00000000000          00000000000000000000000000000000000000000000 000000000000000A000000000000000000000000000000000000000000000 000000000000000000000000000000000000000     00000000                                                                                                                        000000000000000000
F0010000008723500001000090020547900011050500000000000000000201606150002001COMERCIALIZADORA DAC DEL CARIBE S.A.S.            D000000002700000000000000000000000100010010000000000000000000000F0010000008723500120160615000101 00000000000000000000000000000000000000000000000000000000000000000000000000000000000000000000000000000000000000000N 00000000000NCONT   00    00000000000          00000000000000000000000000000000000000000000 000000000000000A000000000000000000000000000000000000000000000 000000000000000000000000000000000000000     00000000                                                                                                                        000000000000000000
F0010000008723500002000090020547900041450500000000000000000201606150002001COMERCIALIZADORA DAC DEL CARIBE S.A.S.            C000000002200000000000000000000000100010010000000000000000000000F0010000008723500220160615000101 00000000000000000000000000000000000000000000000000000000000000000000000000000000000000000000000000000000000000000N 00000000000NCONT   00    00000000000          00000000000000000000000000000000000000000000 000000000000000A000000000000000000000000000000000000000000000 000000000000000000000000000000000000000     00000000                                                                                                                        000000000000000000
F0010000008723500003000090020547900042505000000000000000000201606150002001COMERCIALIZADORA DAC DEL CARIBE S.A.S.            C000000000500000000000000000000000100010010000000000000000000000F0010000008723500320160615000101 00000000000000000000000000000000000000000000000000000000000000000000000000000000000000000000000000000000000000000N 00000000000NCONT   00    00000000000          00000000000000000000000000000000000000000000 000000000000000A000000000000000000000000000000000000000000000 000000000000000000000000000000000000000     00000000                                                                                                                        000000000000000000
F0010000008723500004000090020547900023658300000000000000000201606150002001COMERCIALIZADORA DAC DEL CARIBE S.A.S.            C000000000017600000000000000000000100010010000000000000000000000F0010000008723500420160615000101 00000000000000000000000000000000000000000000000000000000000000000000000000000000000000000000000000000000000000000N 00000000000NCONT   00    00000000000          00000000000000000000000000000000000000000000 000000000000000A000000000000000000000000000000000000000000000 000000000000000000000000000000000000000     00000000                                                                                                                        000000000000000000
F0010000008723500005000090020547900013552100000000000000000201606150002001COMERCIALIZADORA DAC DEL CARIBE S.A.S.            D000000000017600000000000000000000100010010000000000000000000000F0010000008723500520160615000101 00000000000000000000000000000000000000000000000000000000000000000000000000000000000000000000000000000000000000000N 00000000000NCONT   00    00000000000          00000000000000000000000000000000000000000000 000000000000000A000000000000000000000000000000000000000000000 000000000000000000000000000000000000000     00000000                                                                                                                        000000000000000000
F0010000008723600001000080023327700011050500000000000000000201606150002001DISINCO LTDA                                      D000000006000000000000000000000000100010010000000000000000000000F0010000008723600120160615000101 00000000000000000000000000000000000000000000000000000000000000000000000000000000000000000000000000000000000000000N 00000000000NCONT   00    00000000000          00000000000000000000000000000000000000000000 000000000000000A000000000000000000000000000000000000000000000 000000000000000000000000000000000000000     00000000                                                                                                                        000000000000000000
F0010000008723600002000080023327700041450500000000000000000201606150002001DISINCO LTDA                                      C000000005900000000000000000000000100010010000000000000000000000F0010000008723600220160615000101 00000000000000000000000000000000000000000000000000000000000000000000000000000000000000000000000000000000000000000N 00000000000NCONT   00    00000000000          00000000000000000000000000000000000000000000 000000000000000A000000000000000000000000000000000000000000000 000000000000000000000000000000000000000     00000000                                                                                                                        000000000000000000
F0010000008723600003000080023327700042505000000000000000000201606150002001DISINCO LTDA                                      C000000000100000000000000000000000100010010000000000000000000000F0010000008723600320160615000101 00000000000000000000000000000000000000000000000000000000000000000000000000000000000000000000000000000000000000000N 00000000000NCONT   00    00000000000          00000000000000000000000000000000000000000000 000000000000000A000000000000000000000000000000000000000000000 000000000000000000000000000000000000000     00000000                                                                                                                        000000000000000000
F0010000008723600004000080023327700023658300000000000000000201606150002001DISINCO LTDA                                      C000000000047200000000000000000000100010010000000000000000000000F0010000008723600420160615000101 00000000000000000000000000000000000000000000000000000000000000000000000000000000000000000000000000000000000000000N 00000000000NCONT   00    00000000000          00000000000000000000000000000000000000000000 000000000000000A000000000000000000000000000000000000000000000 000000000000000000000000000000000000000     00000000                                                                                                                        000000000000000000
F0010000008723600005000080023327700013552100000000000000000201606150002001DISINCO LTDA                                      D000000000047200000000000000000000100010010000000000000000000000F0010000008723600520160615000101 00000000000000000000000000000000000000000000000000000000000000000000000000000000000000000000000000000000000000000N 00000000000NCONT   00    00000000000          00000000000000000000000000000000000000000000 000000000000000A000000000000000000000000000000000000000000000 000000000000000000000000000000000000000     00000000                                                                                                                        000000000000000000
F0010000008723700001000001325248300011050500000000000000000201606150002001LUBRICANTE LA 37                                  D000000006700000000000000000000000100010010000000000000000000000F0010000008723700120160615000101 00000000000000000000000000000000000000000000000000000000000000000000000000000000000000000000000000000000000000000N 00000000000NCONT   00    00000000000          00000000000000000000000000000000000000000000 000000000000000A000000000000000000000000000000000000000000000 000000000000000000000000000000000000000     00000000                                                                                                                        000000000000000000
F0010000008723700002000001325248300041450500000000000000000201606150002001LUBRICANTE LA 37                                  C000000006000000000000000000000000100010010000000000000000000000F0010000008723700220160615000101 00000000000000000000000000000000000000000000000000000000000000000000000000000000000000000000000000000000000000000N 00000000000NCONT   00    00000000000          00000000000000000000000000000000000000000000 000000000000000A000000000000000000000000000000000000000000000 000000000000000000000000000000000000000     00000000                                                                                                                        000000000000000000
F0010000008723700003000001325248300042505000000000000000000201606150002001LUBRICANTE LA 37                                  C000000000700000000000000000000000100010010000000000000000000000F0010000008723700320160615000101 00000000000000000000000000000000000000000000000000000000000000000000000000000000000000000000000000000000000000000N 00000000000NCONT   00    00000000000          00000000000000000000000000000000000000000000 000000000000000A000000000000000000000000000000000000000000000 000000000000000000000000000000000000000     00000000                                                                                                                        000000000000000000
F0010000008723700004000001325248300023658300000000000000000201606150002001LUBRICANTE LA 37                                  C000000000048000000000000000000000100010010000000000000000000000F0010000008723700420160615000101 00000000000000000000000000000000000000000000000000000000000000000000000000000000000000000000000000000000000000000N 00000000000NCONT   00    00000000000          00000000000000000000000000000000000000000000 000000000000000A000000000000000000000000000000000000000000000 000000000000000000000000000000000000000     00000000                                                                                                                        000000000000000000
F0010000008723700005000001325248300013552100000000000000000201606150002001LUBRICANTE LA 37                                  D000000000048000000000000000000000100010010000000000000000000000F0010000008723700520160615000101 00000000000000000000000000000000000000000000000000000000000000000000000000000000000000000000000000000000000000000N 00000000000NCONT   00    00000000000          00000000000000000000000000000000000000000000 000000000000000A000000000000000000000000000000000000000000000 000000000000000000000000000000000000000     00000000                                                                                                                        000000000000000000
F0010000008723800001000002245670100011050500000000000000000201606150002001YOLANDA  TOBON                                    D000000002400000000000000000000000100010010000000000000000000000F0010000008723800120160615000101 00000000000000000000000000000000000000000000000000000000000000000000000000000000000000000000000000000000000000000N 00000000000NCONT   00    00000000000          00000000000000000000000000000000000000000000 000000000000000A000000000000000000000000000000000000000000000 000000000000000000000000000000000000000     00000000                                                                                                                        000000000000000000
F0010000008723800002000002245670100041450500000000000000000201606150002001YOLANDA  TOBON                                    C000000001800000000000000000000000100010010000000000000000000000F0010000008723800220160615000101 00000000000000000000000000000000000000000000000000000000000000000000000000000000000000000000000000000000000000000N 00000000000NCONT   00    00000000000          00000000000000000000000000000000000000000000 000000000000000A000000000000000000000000000000000000000000000 000000000000000000000000000000000000000     00000000                                                                                                                        000000000000000000
F0010000008723800003000002245670100042505000000000000000000201606150002001YOLANDA  TOBON                                    C000000000600000000000000000000000100010010000000000000000000000F0010000008723800320160615000101 00000000000000000000000000000000000000000000000000000000000000000000000000000000000000000000000000000000000000000N 00000000000NCONT   00    00000000000          00000000000000000000000000000000000000000000 000000000000000A000000000000000000000000000000000000000000000 000000000000000000000000000000000000000     00000000                                                                                                                        000000000000000000
F0010000008723800004000002245670100023658300000000000000000201606150002001YOLANDA  TOBON                                    C000000000014400000000000000000000100010010000000000000000000000F0010000008723800420160615000101 00000000000000000000000000000000000000000000000000000000000000000000000000000000000000000000000000000000000000000N 00000000000NCONT   00    00000000000          00000000000000000000000000000000000000000000 000000000000000A000000000000000000000000000000000000000000000 000000000000000000000000000000000000000     00000000                                                                                                                        000000000000000000
F0010000008723800005000002245670100013552100000000000000000201606150002001YOLANDA  TOBON                                    D000000000014400000000000000000000100010010000000000000000000000F0010000008723800520160615000101 00000000000000000000000000000000000000000000000000000000000000000000000000000000000000000000000000000000000000000N 00000000000NCONT   00    00000000000          00000000000000000000000000000000000000000000 000000000000000A000000000000000000000000000000000000000000000 000000000000000000000000000000000000000     00000000                                                                                                                        000000000000000000
F0010000008723900001000090050144800011050500000000000000000201606150002001PLASTICOS JR ASOCIADOS SAS                        D000000007400000000000000000000000100010010000000000000000000000F0010000008723900120160615000101 00000000000000000000000000000000000000000000000000000000000000000000000000000000000000000000000000000000000000000N 00000000000NCONT   00    00000000000          00000000000000000000000000000000000000000000 000000000000000A000000000000000000000000000000000000000000000 000000000000000000000000000000000000000     00000000                                                                                                                        000000000000000000
F0010000008723900002000090050144800041450500000000000000000201606150002001PLASTICOS JR ASOCIADOS SAS                        C000000006650000000000000000000000100010010000000000000000000000F0010000008723900220160615000101 00000000000000000000000000000000000000000000000000000000000000000000000000000000000000000000000000000000000000000N 00000000000NCONT   00    00000000000          00000000000000000000000000000000000000000000 000000000000000A000000000000000000000000000000000000000000000 000000000000000000000000000000000000000     00000000                                                                                                                        000000000000000000
F0010000008723900003000090050144800042505000000000000000000201606150002001PLASTICOS JR ASOCIADOS SAS                        C000000000750000000000000000000000100010010000000000000000000000F0010000008723900320160615000101 00000000000000000000000000000000000000000000000000000000000000000000000000000000000000000000000000000000000000000N 00000000000NCONT   00    00000000000          00000000000000000000000000000000000000000000 000000000000000A000000000000000000000000000000000000000000000 000000000000000000000000000000000000000     00000000                                                                                                                        000000000000000000
F0010000008723900004000090050144800023658300000000000000000201606150002001PLASTICOS JR ASOCIADOS SAS                        C000000000053200000000000000000000100010010000000000000000000000F0010000008723900420160615000101 00000000000000000000000000000000000000000000000000000000000000000000000000000000000000000000000000000000000000000N 00000000000NCONT   00    00000000000          00000000000000000000000000000000000000000000 000000000000000A000000000000000000000000000000000000000000000 000000000000000000000000000000000000000     00000000                                                                                                                        000000000000000000
F0010000008723900005000090050144800013552100000000000000000201606150002001PLASTICOS JR ASOCIADOS SAS                        D000000000053200000000000000000000100010010000000000000000000000F0010000008723900520160615000101 00000000000000000000000000000000000000000000000000000000000000000000000000000000000000000000000000000000000000000N 00000000000NCONT   00    00000000000          00000000000000000000000000000000000000000000 000000000000000A000000000000000000000000000000000000000000000 000000000000000000000000000000000000000     00000000                                                                                                                        000000000000000000
F0010000008724000001000090050144800011050500000000000000000201606150002001PLASTICOS JR ASOCIADOS SAS                        D000000002300000000000000000000000100010010000000000000000000000F0010000008724000120160615000101 00000000000000000000000000000000000000000000000000000000000000000000000000000000000000000000000000000000000000000N 00000000000NCONT   00    00000000000          00000000000000000000000000000000000000000000 000000000000000A000000000000000000000000000000000000000000000 000000000000000000000000000000000000000     00000000                                                                                                                        000000000000000000
F0010000008724000002000090050144800041450500000000000000000201606150002001PLASTICOS JR ASOCIADOS SAS                        C000000001900000000000000000000000100010010000000000000000000000F0010000008724000220160615000101 00000000000000000000000000000000000000000000000000000000000000000000000000000000000000000000000000000000000000000N 00000000000NCONT   00    00000000000          00000000000000000000000000000000000000000000 000000000000000A000000000000000000000000000000000000000000000 000000000000000000000000000000000000000     00000000                                                                                                                        000000000000000000
F0010000008724000003000090050144800042505000000000000000000201606150002001PLASTICOS JR ASOCIADOS SAS                        C000000000400000000000000000000000100010010000000000000000000000F0010000008724000320160615000101 00000000000000000000000000000000000000000000000000000000000000000000000000000000000000000000000000000000000000000N 00000000000NCONT   00    00000000000          00000000000000000000000000000000000000000000 000000000000000A000000000000000000000000000000000000000000000 000000000000000000000000000000000000000     00000000                                                                                                                        000000000000000000
F0010000008724000004000090050144800023658300000000000000000201606150002001PLASTICOS JR ASOCIADOS SAS                        C000000000015200000000000000000000100010010000000000000000000000F0010000008724000420160615000101 00000000000000000000000000000000000000000000000000000000000000000000000000000000000000000000000000000000000000000N 00000000000NCONT   00    00000000000          00000000000000000000000000000000000000000000 000000000000000A000000000000000000000000000000000000000000000 000000000000000000000000000000000000000     00000000                                                                                                                        000000000000000000
F0010000008724000005000090050144800013552100000000000000000201606150002001PLASTICOS JR ASOCIADOS SAS                        D000000000015200000000000000000000100010010000000000000000000000F0010000008724000520160615000101 00000000000000000000000000000000000000000000000000000000000000000000000000000000000000000000000000000000000000000N 00000000000NCONT   00    00000000000          00000000000000000000000000000000000000000000 000000000000000A000000000000000000000000000000000000000000000 000000000000000000000000000000000000000     00000000                                                                                                                        000000000000000000
F0010000008724100001000001022529300011050500000000000000000201606150002001ALBERTO ALVAREZ ISAZA                             D000000002640000000000000000000000100010010000000000000000000000F0010000008724100120160615000101 00000000000000000000000000000000000000000000000000000000000000000000000000000000000000000000000000000000000000000N 00000000000NCONT   00    00000000000          00000000000000000000000000000000000000000000 000000000000000A000000000000000000000000000000000000000000000 000000000000000000000000000000000000000     00000000                                                                                                                        000000000000000000
F0010000008724100002000001022529300041450500000000000000000201606150002001ALBERTO ALVAREZ ISAZA                             C000000002640000000000000000000000100010010000000000000000000000F0010000008724100220160615000101 00000000000000000000000000000000000000000000000000000000000000000000000000000000000000000000000000000000000000000N 00000000000NCONT   00    00000000000          00000000000000000000000000000000000000000000 000000000000000A000000000000000000000000000000000000000000000 000000000000000000000000000000000000000     00000000                                                                                                                        000000000000000000
F0010000008724100003000001022529300042505000000000000000000201606150002001ALBERTO ALVAREZ ISAZA                             C000000000000000000000000000000000100010010000000000000000000000F0010000008724100320160615000101 00000000000000000000000000000000000000000000000000000000000000000000000000000000000000000000000000000000000000000N 00000000000NCONT   00    00000000000          00000000000000000000000000000000000000000000 000000000000000A000000000000000000000000000000000000000000000 000000000000000000000000000000000000000     00000000                                                                                                                        000000000000000000
F0010000008724100004000001022529300023658300000000000000000201606150002001ALBERTO ALVAREZ ISAZA                             C000000000021100000000000000000000100010010000000000000000000000F0010000008724100420160615000101 00000000000000000000000000000000000000000000000000000000000000000000000000000000000000000000000000000000000000000N 00000000000NCONT   00    00000000000          00000000000000000000000000000000000000000000 000000000000000A000000000000000000000000000000000000000000000 000000000000000000000000000000000000000     00000000                                                                                                                        000000000000000000
F0010000008724100005000001022529300013552100000000000000000201606150002001ALBERTO ALVAREZ ISAZA                             D000000000021100000000000000000000100010010000000000000000000000F0010000008724100520160615000101 00000000000000000000000000000000000000000000000000000000000000000000000000000000000000000000000000000000000000000N 00000000000NCONT   00    00000000000          00000000000000000000000000000000000000000000 000000000000000A000000000000000000000000000000000000000000000 000000000000000000000000000000000000000     00000000                                                                                                                        000000000000000000
F0010000008724200001000090036991700011050500000000000000000201606150002001DELTA INTERNACIONAL  S.A.S                        D000000002100000000000000000000000100010010000000000000000000000F0010000008724200120160615000101 00000000000000000000000000000000000000000000000000000000000000000000000000000000000000000000000000000000000000000N 00000000000NCONT   00    00000000000          00000000000000000000000000000000000000000000 000000000000000A000000000000000000000000000000000000000000000 000000000000000000000000000000000000000     00000000                                                                                                                        000000000000000000
F0010000008724200002000090036991700041450500000000000000000201606150002001DELTA INTERNACIONAL  S.A.S                        C000000002000000000000000000000000100010010000000000000000000000F0010000008724200220160615000101 00000000000000000000000000000000000000000000000000000000000000000000000000000000000000000000000000000000000000000N 00000000000NCONT   00    00000000000          00000000000000000000000000000000000000000000 000000000000000A000000000000000000000000000000000000000000000 000000000000000000000000000000000000000     00000000                                                                                                                        000000000000000000
F0010000008724200003000090036991700042505000000000000000000201606150002001DELTA INTERNACIONAL  S.A.S                        C000000000100000000000000000000000100010010000000000000000000000F0010000008724200320160615000101 00000000000000000000000000000000000000000000000000000000000000000000000000000000000000000000000000000000000000000N 00000000000NCONT   00    00000000000          00000000000000000000000000000000000000000000 000000000000000A000000000000000000000000000000000000000000000 000000000000000000000000000000000000000     00000000                                                                                                                        000000000000000000
F0010000008724200004000090036991700023658300000000000000000201606150002001DELTA INTERNACIONAL  S.A.S                        C000000000016000000000000000000000100010010000000000000000000000F0010000008724200420160615000101 00000000000000000000000000000000000000000000000000000000000000000000000000000000000000000000000000000000000000000N 00000000000NCONT   00    00000000000          00000000000000000000000000000000000000000000 000000000000000A000000000000000000000000000000000000000000000 000000000000000000000000000000000000000     00000000                                                                                                                        000000000000000000
F0010000008724200005000090036991700013552100000000000000000201606150002001DELTA INTERNACIONAL  S.A.S                        D000000000016000000000000000000000100010010000000000000000000000F0010000008724200520160615000101 00000000000000000000000000000000000000000000000000000000000000000000000000000000000000000000000000000000000000000N 00000000000NCONT   00    00000000000          00000000000000000000000000000000000000000000 000000000000000A000000000000000000000000000000000000000000000 000000000000000000000000000000000000000     00000000                                                                                                                        000000000000000000
F0010000008724300001000090087846000011050500000000000000000201606150002001INTERCOMERCIAL DL SAS                             D000000002300000000000000000000000100010010000000000000000000000F0010000008724300120160615000101 00000000000000000000000000000000000000000000000000000000000000000000000000000000000000000000000000000000000000000N 00000000000NCONT   00    00000000000          00000000000000000000000000000000000000000000 000000000000000A000000000000000000000000000000000000000000000 000000000000000000000000000000000000000     00000000                                                                                                                        000000000000000000
F0010000008724300002000090087846000041450500000000000000000201606150002001INTERCOMERCIAL DL SAS                             C000000002200000000000000000000000100010010000000000000000000000F0010000008724300220160615000101 00000000000000000000000000000000000000000000000000000000000000000000000000000000000000000000000000000000000000000N 00000000000NCONT   00    00000000000          00000000000000000000000000000000000000000000 000000000000000A000000000000000000000000000000000000000000000 000000000000000000000000000000000000000     00000000                                                                                                                        000000000000000000
F0010000008724300003000090087846000042505000000000000000000201606150002001INTERCOMERCIAL DL SAS                             C000000000100000000000000000000000100010010000000000000000000000F0010000008724300320160615000101 00000000000000000000000000000000000000000000000000000000000000000000000000000000000000000000000000000000000000000N 00000000000NCONT   00    00000000000          00000000000000000000000000000000000000000000 000000000000000A000000000000000000000000000000000000000000000 000000000000000000000000000000000000000     00000000                                                                                                                        000000000000000000
F0010000008724300004000090087846000023658300000000000000000201606150002001INTERCOMERCIAL DL SAS                             C000000000017600000000000000000000100010010000000000000000000000F0010000008724300420160615000101 00000000000000000000000000000000000000000000000000000000000000000000000000000000000000000000000000000000000000000N 00000000000NCONT   00    00000000000          00000000000000000000000000000000000000000000 000000000000000A000000000000000000000000000000000000000000000 000000000000000000000000000000000000000     00000000                                                                                                                        000000000000000000
F0010000008724300005000090087846000013552100000000000000000201606150002001INTERCOMERCIAL DL SAS                             D000000000017600000000000000000000100010010000000000000000000000F0010000008724300520160615000101 00000000000000000000000000000000000000000000000000000000000000000000000000000000000000000000000000000000000000000N 00000000000NCONT   00    00000000000          00000000000000000000000000000000000000000000 000000000000000A000000000000000000000000000000000000000000000 000000000000000000000000000000000000000     00000000                                                                                                                        000000000000000000
F0010000008724400001000083008772100011050500000000000000000201606150002001ILUMEC SAS                                        D000000001300000000000000000000000100010010000000000000000000000F0010000008724400120160615000101 00000000000000000000000000000000000000000000000000000000000000000000000000000000000000000000000000000000000000000N 00000000000NCONT   00    00000000000          00000000000000000000000000000000000000000000 000000000000000A000000000000000000000000000000000000000000000 000000000000000000000000000000000000000     00000000                                                                                                                        000000000000000000
F0010000008724400002000083008772100041450500000000000000000201606150002001ILUMEC SAS                                        C000000001100000000000000000000000100010010000000000000000000000F0010000008724400220160615000101 00000000000000000000000000000000000000000000000000000000000000000000000000000000000000000000000000000000000000000N 00000000000NCONT   00    00000000000          00000000000000000000000000000000000000000000 000000000000000A000000000000000000000000000000000000000000000 000000000000000000000000000000000000000     00000000                                                                                                                        000000000000000000
F0010000008724400003000083008772100042505000000000000000000201606150002001ILUMEC SAS                                        C000000000200000000000000000000000100010010000000000000000000000F0010000008724400320160615000101 00000000000000000000000000000000000000000000000000000000000000000000000000000000000000000000000000000000000000000N 00000000000NCONT   00    00000000000          00000000000000000000000000000000000000000000 000000000000000A000000000000000000000000000000000000000000000 000000000000000000000000000000000000000     00000000                                                                                                                        000000000000000000
F0010000008724400004000083008772100023658300000000000000000201606150002001ILUMEC SAS                                        C000000000008800000000000000000000100010010000000000000000000000F0010000008724400420160615000101 00000000000000000000000000000000000000000000000000000000000000000000000000000000000000000000000000000000000000000N 00000000000NCONT   00    00000000000          00000000000000000000000000000000000000000000 000000000000000A000000000000000000000000000000000000000000000 000000000000000000000000000000000000000     00000000                                                                                                                        000000000000000000
F0010000008724400005000083008772100013552100000000000000000201606150002001ILUMEC SAS                                        D000000000008800000000000000000000100010010000000000000000000000F0010000008724400520160615000101 00000000000000000000000000000000000000000000000000000000000000000000000000000000000000000000000000000000000000000N 00000000000NCONT   00    00000000000          00000000000000000000000000000000000000000000 000000000000000A000000000000000000000000000000000000000000000 000000000000000000000000000000000000000     00000000                                                                                                                        000000000000000000
F0010000008724500001000102390001700011050500000000000000000201606150002001LILIANA HERNANDEZ PINILLA                         D000000002000000000000000000000000100010010000000000000000000000F0010000008724500120160615000101 00000000000000000000000000000000000000000000000000000000000000000000000000000000000000000000000000000000000000000N 00000000000NCONT   00    00000000000          00000000000000000000000000000000000000000000 000000000000000A000000000000000000000000000000000000000000000 000000000000000000000000000000000000000     00000000                                                                                                                        000000000000000000
F0010000008724500002000102390001700041450500000000000000000201606150002001LILIANA HERNANDEZ PINILLA                         C000000001500000000000000000000000100010010000000000000000000000F0010000008724500220160615000101 00000000000000000000000000000000000000000000000000000000000000000000000000000000000000000000000000000000000000000N 00000000000NCONT   00    00000000000          00000000000000000000000000000000000000000000 000000000000000A000000000000000000000000000000000000000000000 000000000000000000000000000000000000000     00000000                                                                                                                        000000000000000000
F0010000008724500003000102390001700042505000000000000000000201606150002001LILIANA HERNANDEZ PINILLA                         C000000000500000000000000000000000100010010000000000000000000000F0010000008724500320160615000101 00000000000000000000000000000000000000000000000000000000000000000000000000000000000000000000000000000000000000000N 00000000000NCONT   00    00000000000          00000000000000000000000000000000000000000000 000000000000000A000000000000000000000000000000000000000000000 000000000000000000000000000000000000000     00000000                                                                                                                        000000000000000000
F0010000008724500004000102390001700023658300000000000000000201606150002001LILIANA HERNANDEZ PINILLA                         C000000000012000000000000000000000100010010000000000000000000000F0010000008724500420160615000101 00000000000000000000000000000000000000000000000000000000000000000000000000000000000000000000000000000000000000000N 00000000000NCONT   00    00000000000          00000000000000000000000000000000000000000000 000000000000000A000000000000000000000000000000000000000000000 000000000000000000000000000000000000000     00000000                                                                                                                        000000000000000000
F0010000008724500005000102390001700013552100000000000000000201606150002001LILIANA HERNANDEZ PINILLA                         D000000000012000000000000000000000100010010000000000000000000000F0010000008724500520160615000101 00000000000000000000000000000000000000000000000000000000000000000000000000000000000000000000000000000000000000000N 00000000000NCONT   00    00000000000          00000000000000000000000000000000000000000000 000000000000000A000000000000000000000000000000000000000000000 000000000000000000000000000000000000000     00000000                                                                                                                        000000000000000000
F0010000008724600001000102390001700011050500000000000000000201606150002001LILIANA HERNANDEZ PINILLA                         D000000003000000000000000000000000100010010000000000000000000000F0010000008724600120160615000101 00000000000000000000000000000000000000000000000000000000000000000000000000000000000000000000000000000000000000000N 00000000000NCONT   00    00000000000          00000000000000000000000000000000000000000000 000000000000000A000000000000000000000000000000000000000000000 000000000000000000000000000000000000000     00000000                                                                                                                        000000000000000000
F0010000008724600002000102390001700041450500000000000000000201606150002001LILIANA HERNANDEZ PINILLA                         C000000002000000000000000000000000100010010000000000000000000000F0010000008724600220160615000101 00000000000000000000000000000000000000000000000000000000000000000000000000000000000000000000000000000000000000000N 00000000000NCONT   00    00000000000          00000000000000000000000000000000000000000000 000000000000000A000000000000000000000000000000000000000000000 000000000000000000000000000000000000000     00000000                                                                                                                        000000000000000000
F0010000008724600003000102390001700042505000000000000000000201606150002001LILIANA HERNANDEZ PINILLA                         C000000001000000000000000000000000100010010000000000000000000000F0010000008724600320160615000101 00000000000000000000000000000000000000000000000000000000000000000000000000000000000000000000000000000000000000000N 00000000000NCONT   00    00000000000          00000000000000000000000000000000000000000000 000000000000000A000000000000000000000000000000000000000000000 000000000000000000000000000000000000000     00000000                                                                                                                        000000000000000000
F0010000008724600004000102390001700023658300000000000000000201606150002001LILIANA HERNANDEZ PINILLA                         C000000000016000000000000000000000100010010000000000000000000000F0010000008724600420160615000101 00000000000000000000000000000000000000000000000000000000000000000000000000000000000000000000000000000000000000000N 00000000000NCONT   00    00000000000          00000000000000000000000000000000000000000000 000000000000000A000000000000000000000000000000000000000000000 000000000000000000000000000000000000000     00000000                                                                                                                        000000000000000000
F0010000008724600005000102390001700013552100000000000000000201606150002001LILIANA HERNANDEZ PINILLA                         D000000000016000000000000000000000100010010000000000000000000000F0010000008724600520160615000101 00000000000000000000000000000000000000000000000000000000000000000000000000000000000000000000000000000000000000000N 00000000000NCONT   00    00000000000          00000000000000000000000000000000000000000000 000000000000000A000000000000000000000000000000000000000000000 000000000000000000000000000000000000000     00000000                                                                                                                        000000000000000000
F0010000008724700001000090061985600011050500000000000000000201606150002001COMERCIALIZADORA PATRY SAS                        D000000004000000000000000000000000100010010000000000000000000000F0010000008724700120160615000101 00000000000000000000000000000000000000000000000000000000000000000000000000000000000000000000000000000000000000000N 00000000000NCONT   00    00000000000          00000000000000000000000000000000000000000000 000000000000000A000000000000000000000000000000000000000000000 000000000000000000000000000000000000000     00000000                                                                                                                        000000000000000000
F0010000008724700002000090061985600041450500000000000000000201606150002001COMERCIALIZADORA PATRY SAS                        C000000003400000000000000000000000100010010000000000000000000000F0010000008724700220160615000101 00000000000000000000000000000000000000000000000000000000000000000000000000000000000000000000000000000000000000000N 00000000000NCONT   00    00000000000          00000000000000000000000000000000000000000000 000000000000000A000000000000000000000000000000000000000000000 000000000000000000000000000000000000000     00000000                                                                                                                        000000000000000000
F0010000008724700003000090061985600042505000000000000000000201606150002001COMERCIALIZADORA PATRY SAS                        C000000000600000000000000000000000100010010000000000000000000000F0010000008724700320160615000101 00000000000000000000000000000000000000000000000000000000000000000000000000000000000000000000000000000000000000000N 00000000000NCONT   00    00000000000          00000000000000000000000000000000000000000000 000000000000000A000000000000000000000000000000000000000000000 000000000000000000000000000000000000000     00000000                                                                                                                        000000000000000000
F0010000008724700004000090061985600023658300000000000000000201606150002001COMERCIALIZADORA PATRY SAS                        C000000000027200000000000000000000100010010000000000000000000000F0010000008724700420160615000101 00000000000000000000000000000000000000000000000000000000000000000000000000000000000000000000000000000000000000000N 00000000000NCONT   00    00000000000          00000000000000000000000000000000000000000000 000000000000000A000000000000000000000000000000000000000000000 000000000000000000000000000000000000000     00000000                                                                                                                        000000000000000000
F0010000008724700005000090061985600013552100000000000000000201606150002001COMERCIALIZADORA PATRY SAS                        D000000000027200000000000000000000100010010000000000000000000000F0010000008724700520160615000101 00000000000000000000000000000000000000000000000000000000000000000000000000000000000000000000000000000000000000000N 00000000000NCONT   00    00000000000          00000000000000000000000000000000000000000000 000000000000000A000000000000000000000000000000000000000000000 000000000000000000000000000000000000000     00000000                                                                                                                        000000000000000000
F0010000008724800001000000742399700011050500000000000000000201606150002001CACHARRERIA EL NUEVO CHADID                       D000000016000000000000000000000000100010010000000000000000000000F0010000008724800120160615000101 00000000000000000000000000000000000000000000000000000000000000000000000000000000000000000000000000000000000000000N 00000000000NCONT   00    00000000000          00000000000000000000000000000000000000000000 000000000000000A000000000000000000000000000000000000000000000 000000000000000000000000000000000000000     00000000                                                                                                                        000000000000000000
F0010000008724800002000000742399700041450500000000000000000201606150002001CACHARRERIA EL NUEVO CHADID                       C000000013000000000000000000000000100010010000000000000000000000F0010000008724800220160615000101 00000000000000000000000000000000000000000000000000000000000000000000000000000000000000000000000000000000000000000N 00000000000NCONT   00    00000000000          00000000000000000000000000000000000000000000 000000000000000A000000000000000000000000000000000000000000000 000000000000000000000000000000000000000     00000000                                                                                                                        000000000000000000
F0010000008724800003000000742399700042505000000000000000000201606150002001CACHARRERIA EL NUEVO CHADID                       C000000003000000000000000000000000100010010000000000000000000000F0010000008724800320160615000101 00000000000000000000000000000000000000000000000000000000000000000000000000000000000000000000000000000000000000000N 00000000000NCONT   00    00000000000          00000000000000000000000000000000000000000000 000000000000000A000000000000000000000000000000000000000000000 000000000000000000000000000000000000000     00000000                                                                                                                        000000000000000000
F0010000008724800004000000742399700023658300000000000000000201606150002001CACHARRERIA EL NUEVO CHADID                       C000000000104000000000000000000000100010010000000000000000000000F0010000008724800420160615000101 00000000000000000000000000000000000000000000000000000000000000000000000000000000000000000000000000000000000000000N 00000000000NCONT   00    00000000000          00000000000000000000000000000000000000000000 000000000000000A000000000000000000000000000000000000000000000 000000000000000000000000000000000000000     00000000                                                                                                                        000000000000000000
F0010000008724800005000000742399700013552100000000000000000201606150002001CACHARRERIA EL NUEVO CHADID                       D000000000104000000000000000000000100010010000000000000000000000F0010000008724800520160615000101 00000000000000000000000000000000000000000000000000000000000000000000000000000000000000000000000000000000000000000N 00000000000NCONT   00    00000000000          00000000000000000000000000000000000000000000 000000000000000A000000000000000000000000000000000000000000000 000000000000000000000000000000000000000     00000000                                                                                                                        000000000000000000
F0010000008724900001000080202350700011050500000000000000000201606150002001CONNY DE LA COSTA SAS                             D000000000900000000000000000000000100010010000000000000000000000F0010000008724900120160615000101 00000000000000000000000000000000000000000000000000000000000000000000000000000000000000000000000000000000000000000N 00000000000NCONT   00    00000000000          00000000000000000000000000000000000000000000 000000000000000A000000000000000000000000000000000000000000000 000000000000000000000000000000000000000     00000000                                                                                                                        000000000000000000
F0010000008724900002000080202350700041450500000000000000000201606150002001CONNY DE LA COSTA SAS                             C000000000850000000000000000000000100010010000000000000000000000F0010000008724900220160615000101 00000000000000000000000000000000000000000000000000000000000000000000000000000000000000000000000000000000000000000N 00000000000NCONT   00    00000000000          00000000000000000000000000000000000000000000 000000000000000A000000000000000000000000000000000000000000000 000000000000000000000000000000000000000     00000000                                                                                                                        000000000000000000
F0010000008724900003000080202350700042505000000000000000000201606150002001CONNY DE LA COSTA SAS                             C000000000050000000000000000000000100010010000000000000000000000F0010000008724900320160615000101 00000000000000000000000000000000000000000000000000000000000000000000000000000000000000000000000000000000000000000N 00000000000NCONT   00    00000000000          00000000000000000000000000000000000000000000 000000000000000A000000000000000000000000000000000000000000000 000000000000000000000000000000000000000     00000000                                                                                                                        000000000000000000
F0010000008724900004000080202350700023658300000000000000000201606150002001CONNY DE LA COSTA SAS                             C000000000006800000000000000000000100010010000000000000000000000F0010000008724900420160615000101 00000000000000000000000000000000000000000000000000000000000000000000000000000000000000000000000000000000000000000N 00000000000NCONT   00    00000000000          00000000000000000000000000000000000000000000 000000000000000A000000000000000000000000000000000000000000000 000000000000000000000000000000000000000     00000000                                                                                                                        000000000000000000
F0010000008724900005000080202350700013552100000000000000000201606150002001CONNY DE LA COSTA SAS                             D000000000006800000000000000000000100010010000000000000000000000F0010000008724900520160615000101 00000000000000000000000000000000000000000000000000000000000000000000000000000000000000000000000000000000000000000N 00000000000NCONT   00    00000000000          00000000000000000000000000000000000000000000 000000000000000A000000000000000000000000000000000000000000000 000000000000000000000000000000000000000     00000000                                                                                                                        000000000000000000
F0010000008725000001000000742399700011050500000000000000000201606150002001CACHARRERIA EL NUEVO CHADID                       D000000001000000000000000000000000100010010000000000000000000000F0010000008725000120160615000101 00000000000000000000000000000000000000000000000000000000000000000000000000000000000000000000000000000000000000000N 00000000000NCONT   00    00000000000          00000000000000000000000000000000000000000000 000000000000000A000000000000000000000000000000000000000000000 000000000000000000000000000000000000000     00000000                                                                                                                        000000000000000000
F0010000008725000002000000742399700041450500000000000000000201606150002001CACHARRERIA EL NUEVO CHADID                       C000000000850000000000000000000000100010010000000000000000000000F0010000008725000220160615000101 00000000000000000000000000000000000000000000000000000000000000000000000000000000000000000000000000000000000000000N 00000000000NCONT   00    00000000000          00000000000000000000000000000000000000000000 000000000000000A000000000000000000000000000000000000000000000 000000000000000000000000000000000000000     00000000                                                                                                                        000000000000000000
F0010000008725000003000000742399700042505000000000000000000201606150002001CACHARRERIA EL NUEVO CHADID                       C000000000150000000000000000000000100010010000000000000000000000F0010000008725000320160615000101 00000000000000000000000000000000000000000000000000000000000000000000000000000000000000000000000000000000000000000N 00000000000NCONT   00    00000000000          00000000000000000000000000000000000000000000 000000000000000A000000000000000000000000000000000000000000000 000000000000000000000000000000000000000     00000000                                                                                                                        000000000000000000
F0010000008725000004000000742399700023658300000000000000000201606150002001CACHARRERIA EL NUEVO CHADID                       C000000000006800000000000000000000100010010000000000000000000000F0010000008725000420160615000101 00000000000000000000000000000000000000000000000000000000000000000000000000000000000000000000000000000000000000000N 00000000000NCONT   00    00000000000          00000000000000000000000000000000000000000000 000000000000000A000000000000000000000000000000000000000000000 000000000000000000000000000000000000000     00000000                                                                                                                        000000000000000000
F0010000008725000005000000742399700013552100000000000000000201606150002001CACHARRERIA EL NUEVO CHADID                       D000000000006800000000000000000000100010010000000000000000000000F0010000008725000520160615000101 00000000000000000000000000000000000000000000000000000000000000000000000000000000000000000000000000000000000000000N 00000000000NCONT   00    00000000000          00000000000000000000000000000000000000000000 000000000000000A000000000000000000000000000000000000000000000 000000000000000000000000000000000000000     00000000                                                                                                                        000000000000000000
F0010000008725100001000001022529300011050500000000000000000201606150002001ALBERTO ALVAREZ ISAZA                             D000000000350000000000000000000000100010010000000000000000000000F0010000008725100120160615000101 00000000000000000000000000000000000000000000000000000000000000000000000000000000000000000000000000000000000000000N 00000000000NCONT   00    00000000000          00000000000000000000000000000000000000000000 000000000000000A000000000000000000000000000000000000000000000 000000000000000000000000000000000000000     00000000                                                                                                                        000000000000000000
F0010000008725100002000001022529300041450500000000000000000201606150002001ALBERTO ALVAREZ ISAZA                             C000000000350000000000000000000000100010010000000000000000000000F0010000008725100220160615000101 00000000000000000000000000000000000000000000000000000000000000000000000000000000000000000000000000000000000000000N 00000000000NCONT   00    00000000000          00000000000000000000000000000000000000000000 000000000000000A000000000000000000000000000000000000000000000 000000000000000000000000000000000000000     00000000                                                                                                                        000000000000000000
F0010000008725100003000001022529300042505000000000000000000201606150002001ALBERTO ALVAREZ ISAZA                             C000000000000000000000000000000000100010010000000000000000000000F0010000008725100320160615000101 00000000000000000000000000000000000000000000000000000000000000000000000000000000000000000000000000000000000000000N 00000000000NCONT   00    00000000000          00000000000000000000000000000000000000000000 000000000000000A000000000000000000000000000000000000000000000 000000000000000000000000000000000000000     00000000                                                                                                                        000000000000000000
F0010000008725100004000001022529300023658300000000000000000201606150002001ALBERTO ALVAREZ ISAZA                             C000000000002800000000000000000000100010010000000000000000000000F0010000008725100420160615000101 00000000000000000000000000000000000000000000000000000000000000000000000000000000000000000000000000000000000000000N 00000000000NCONT   00    00000000000          00000000000000000000000000000000000000000000 000000000000000A000000000000000000000000000000000000000000000 000000000000000000000000000000000000000     00000000                                                                                                                        000000000000000000
F0010000008725100005000001022529300013552100000000000000000201606150002001ALBERTO ALVAREZ ISAZA                             D000000000002800000000000000000000100010010000000000000000000000F0010000008725100520160615000101 00000000000000000000000000000000000000000000000000000000000000000000000000000000000000000000000000000000000000000N 00000000000NCONT   00    00000000000          00000000000000000000000000000000000000000000 000000000000000A000000000000000000000000000000000000000000000 000000000000000000000000000000000000000     00000000                                                                                                                        000000000000000000
F0010000008725200001000001022529300011050500000000000000000201606150002001ALBERTO ALVAREZ ISAZA                             D000000007920000000000000000000000100010010000000000000000000000F0010000008725200120160615000101 00000000000000000000000000000000000000000000000000000000000000000000000000000000000000000000000000000000000000000N 00000000000NCONT   00    00000000000          00000000000000000000000000000000000000000000 000000000000000A000000000000000000000000000000000000000000000 000000000000000000000000000000000000000     00000000                                                                                                                        000000000000000000
F0010000008725200002000001022529300041450500000000000000000201606150002001ALBERTO ALVAREZ ISAZA                             C000000007920000000000000000000000100010010000000000000000000000F0010000008725200220160615000101 00000000000000000000000000000000000000000000000000000000000000000000000000000000000000000000000000000000000000000N 00000000000NCONT   00    00000000000          00000000000000000000000000000000000000000000 000000000000000A000000000000000000000000000000000000000000000 000000000000000000000000000000000000000     00000000                                                                                                                        000000000000000000
F0010000008725200003000001022529300042505000000000000000000201606150002001ALBERTO ALVAREZ ISAZA                             C000000000000000000000000000000000100010010000000000000000000000F0010000008725200320160615000101 00000000000000000000000000000000000000000000000000000000000000000000000000000000000000000000000000000000000000000N 00000000000NCONT   00    00000000000          00000000000000000000000000000000000000000000 000000000000000A000000000000000000000000000000000000000000000 000000000000000000000000000000000000000     00000000                                                                                                                        000000000000000000
F0010000008725200004000001022529300023658300000000000000000201606150002001ALBERTO ALVAREZ ISAZA                             C000000000063400000000000000000000100010010000000000000000000000F0010000008725200420160615000101 00000000000000000000000000000000000000000000000000000000000000000000000000000000000000000000000000000000000000000N 00000000000NCONT   00    00000000000          00000000000000000000000000000000000000000000 000000000000000A000000000000000000000000000000000000000000000 000000000000000000000000000000000000000     00000000                                                                                                                        000000000000000000
F0010000008725200005000001022529300013552100000000000000000201606150002001ALBERTO ALVAREZ ISAZA                             D000000000063400000000000000000000100010010000000000000000000000F0010000008725200520160615000101 00000000000000000000000000000000000000000000000000000000000000000000000000000000000000000000000000000000000000000N 00000000000NCONT   00    00000000000          00000000000000000000000000000000000000000000 000000000000000A000000000000000000000000000000000000000000000 000000000000000000000000000000000000000     00000000                                                                                                                        000000000000000000
F0010000008725300001000001022529300011050500000000000000000201606150002001ALBERTO ALVAREZ ISAZA                             D000000001377100000000000000000000100010010000000000000000000000F0010000008725300120160615000101 00000000000000000000000000000000000000000000000000000000000000000000000000000000000000000000000000000000000000000N 00000000000NCONT   00    00000000000          00000000000000000000000000000000000000000000 000000000000000A000000000000000000000000000000000000000000000 000000000000000000000000000000000000000     00000000                                                                                                                        000000000000000000
F0010000008725300002000001022529300041450500000000000000000201606150002001ALBERTO ALVAREZ ISAZA                             C000000001230000000000000000000000100010010000000000000000000000F0010000008725300220160615000101 00000000000000000000000000000000000000000000000000000000000000000000000000000000000000000000000000000000000000000N 00000000000NCONT   00    00000000000          00000000000000000000000000000000000000000000 000000000000000A000000000000000000000000000000000000000000000 000000000000000000000000000000000000000     00000000                                                                                                                        000000000000000000
