F0010000009936000001000007221137900011050500000000000000000201703200002001CARLOS POLO                                       D000000001500000000000000000000000100010010000000000000000000000F0010000009936000120170320000101 00000000000000000000000000000000000000000000000000000000000000000000000000000000000000000000000000000000000000000N 00000000000NCONT   00    00000000000          00000000000000000000000000000000000000000000 000000000000000A000000000000000000000000000000000000000000000 000000000000000000000000000000000000000     00000000                                                                                                                        000000000000000000
F0010000009936000002000007221137900041450500000000000000000201703200002001CARLOS POLO                                       C000000001200000000000000000000000100010010000000000000000000000F0010000009936000220170320000101 00000000000000000000000000000000000000000000000000000000000000000000000000000000000000000000000000000000000000000N 00000000000NCONT   00    00000000000          00000000000000000000000000000000000000000000 000000000000000A000000000000000000000000000000000000000000000 000000000000000000000000000000000000000     00000000                                                                                                                        000000000000000000
F0010000009936000003000007221137900042505000000000000000000201703200002001CARLOS POLO                                       C000000000300000000000000000000000100010010000000000000000000000F0010000009936000320170320000101 00000000000000000000000000000000000000000000000000000000000000000000000000000000000000000000000000000000000000000N 00000000000NCONT   00    00000000000          00000000000000000000000000000000000000000000 000000000000000A000000000000000000000000000000000000000000000 000000000000000000000000000000000000000     00000000                                                                                                                        000000000000000000
F0010000009936000004000007221137900023658300000000000000000201703200002001CARLOS POLO                                       C000000000009600000000000000000000100010010000000000000000000000F0010000009936000420170320000101 00000000000000000000000000000000000000000000000000000000000000000000000000000000000000000000000000000000000000000N 00000000000NCONT   00    00000000000          00000000000000000000000000000000000000000000 000000000000000A000000000000000000000000000000000000000000000 000000000000000000000000000000000000000     00000000                                                                                                                        000000000000000000
F0010000009936000005000007221137900013552100000000000000000201703200002001CARLOS POLO                                       D000000000009600000000000000000000100010010000000000000000000000F0010000009936000520170320000101 00000000000000000000000000000000000000000000000000000000000000000000000000000000000000000000000000000000000000000N 00000000000NCONT   00    00000000000          00000000000000000000000000000000000000000000 000000000000000A000000000000000000000000000000000000000000000 000000000000000000000000000000000000000     00000000                                                                                                                        000000000000000000
F0010000009936100001000090067091400011050500000000000000000201703200002001COMERCIALIZADORA ESCOBAR ORTIZ                    D000000001500000000000000000000000100010010000000000000000000000F0010000009936100120170320000101 00000000000000000000000000000000000000000000000000000000000000000000000000000000000000000000000000000000000000000N 00000000000NCONT   00    00000000000          00000000000000000000000000000000000000000000 000000000000000A000000000000000000000000000000000000000000000 000000000000000000000000000000000000000     00000000                                                                                                                        000000000000000000
F0010000009936100002000090067091400041450500000000000000000201703200002001COMERCIALIZADORA ESCOBAR ORTIZ                    C000000001300000000000000000000000100010010000000000000000000000F0010000009936100220170320000101 00000000000000000000000000000000000000000000000000000000000000000000000000000000000000000000000000000000000000000N 00000000000NCONT   00    00000000000          00000000000000000000000000000000000000000000 000000000000000A000000000000000000000000000000000000000000000 000000000000000000000000000000000000000     00000000                                                                                                                        000000000000000000
F0010000009936100003000090067091400042505000000000000000000201703200002001COMERCIALIZADORA ESCOBAR ORTIZ                    C000000000200000000000000000000000100010010000000000000000000000F0010000009936100320170320000101 00000000000000000000000000000000000000000000000000000000000000000000000000000000000000000000000000000000000000000N 00000000000NCONT   00    00000000000          00000000000000000000000000000000000000000000 000000000000000A000000000000000000000000000000000000000000000 000000000000000000000000000000000000000     00000000                                                                                                                        000000000000000000
F0010000009936100004000090067091400023658300000000000000000201703200002001COMERCIALIZADORA ESCOBAR ORTIZ                    C000000000010400000000000000000000100010010000000000000000000000F0010000009936100420170320000101 00000000000000000000000000000000000000000000000000000000000000000000000000000000000000000000000000000000000000000N 00000000000NCONT   00    00000000000          00000000000000000000000000000000000000000000 000000000000000A000000000000000000000000000000000000000000000 000000000000000000000000000000000000000     00000000                                                                                                                        000000000000000000
F0010000009936100005000090067091400013552100000000000000000201703200002001COMERCIALIZADORA ESCOBAR ORTIZ                    D000000000010400000000000000000000100010010000000000000000000000F0010000009936100520170320000101 00000000000000000000000000000000000000000000000000000000000000000000000000000000000000000000000000000000000000000N 00000000000NCONT   00    00000000000          00000000000000000000000000000000000000000000 000000000000000A000000000000000000000000000000000000000000000 000000000000000000000000000000000000000     00000000                                                                                                                        000000000000000000
F0010000009936200001000090067091400011050500000000000000000201703200002001COMERCIALIZADORA ESCOBAR ORTIZ                    D000000005800000000000000000000000100010010000000000000000000000F0010000009936200120170320000101 00000000000000000000000000000000000000000000000000000000000000000000000000000000000000000000000000000000000000000N 00000000000NCONT   00    00000000000          00000000000000000000000000000000000000000000 000000000000000A000000000000000000000000000000000000000000000 000000000000000000000000000000000000000     00000000                                                                                                                        000000000000000000
F0010000009936200002000090067091400041450500000000000000000201703200002001COMERCIALIZADORA ESCOBAR ORTIZ                    C000000004800000000000000000000000100010010000000000000000000000F0010000009936200220170320000101 00000000000000000000000000000000000000000000000000000000000000000000000000000000000000000000000000000000000000000N 00000000000NCONT   00    00000000000          00000000000000000000000000000000000000000000 000000000000000A000000000000000000000000000000000000000000000 000000000000000000000000000000000000000     00000000                                                                                                                        000000000000000000
F0010000009936200003000090067091400042505000000000000000000201703200002001COMERCIALIZADORA ESCOBAR ORTIZ                    C000000001000000000000000000000000100010010000000000000000000000F0010000009936200320170320000101 00000000000000000000000000000000000000000000000000000000000000000000000000000000000000000000000000000000000000000N 00000000000NCONT   00    00000000000          00000000000000000000000000000000000000000000 000000000000000A000000000000000000000000000000000000000000000 000000000000000000000000000000000000000     00000000                                                                                                                        000000000000000000
F0010000009936200004000090067091400023658300000000000000000201703200002001COMERCIALIZADORA ESCOBAR ORTIZ                    C000000000038400000000000000000000100010010000000000000000000000F0010000009936200420170320000101 00000000000000000000000000000000000000000000000000000000000000000000000000000000000000000000000000000000000000000N 00000000000NCONT   00    00000000000          00000000000000000000000000000000000000000000 000000000000000A000000000000000000000000000000000000000000000 000000000000000000000000000000000000000     00000000                                                                                                                        000000000000000000
F0010000009936200005000090067091400013552100000000000000000201703200002001COMERCIALIZADORA ESCOBAR ORTIZ                    D000000000038400000000000000000000100010010000000000000000000000F0010000009936200520170320000101 00000000000000000000000000000000000000000000000000000000000000000000000000000000000000000000000000000000000000000N 00000000000NCONT   00    00000000000          00000000000000000000000000000000000000000000 000000000000000A000000000000000000000000000000000000000000000 000000000000000000000000000000000000000     00000000                                                                                                                        000000000000000000
F0010000009936300001000007221137900011050500000000000000000201703200002001CARLOS POLO                                       D000000001220000000000000000000000100010010000000000000000000000F0010000009936300120170320000101 00000000000000000000000000000000000000000000000000000000000000000000000000000000000000000000000000000000000000000N 00000000000NCONT   00    00000000000          00000000000000000000000000000000000000000000 000000000000000A000000000000000000000000000000000000000000000 000000000000000000000000000000000000000     00000000                                                                                                                        000000000000000000
F0010000009936300002000007221137900041450500000000000000000201703200002001CARLOS POLO                                       C000000001200000000000000000000000100010010000000000000000000000F0010000009936300220170320000101 00000000000000000000000000000000000000000000000000000000000000000000000000000000000000000000000000000000000000000N 00000000000NCONT   00    00000000000          00000000000000000000000000000000000000000000 000000000000000A000000000000000000000000000000000000000000000 000000000000000000000000000000000000000     00000000                                                                                                                        000000000000000000
F0010000009936300003000007221137900042505000000000000000000201703200002001CARLOS POLO                                       C000000000020000000000000000000000100010010000000000000000000000F0010000009936300320170320000101 00000000000000000000000000000000000000000000000000000000000000000000000000000000000000000000000000000000000000000N 00000000000NCONT   00    00000000000          00000000000000000000000000000000000000000000 000000000000000A000000000000000000000000000000000000000000000 000000000000000000000000000000000000000     00000000                                                                                                                        000000000000000000
F0010000009936300004000007221137900023658300000000000000000201703200002001CARLOS POLO                                       C000000000009600000000000000000000100010010000000000000000000000F0010000009936300420170320000101 00000000000000000000000000000000000000000000000000000000000000000000000000000000000000000000000000000000000000000N 00000000000NCONT   00    00000000000          00000000000000000000000000000000000000000000 000000000000000A000000000000000000000000000000000000000000000 000000000000000000000000000000000000000     00000000                                                                                                                        000000000000000000
F0010000009936300005000007221137900013552100000000000000000201703200002001CARLOS POLO                                       D000000000009600000000000000000000100010010000000000000000000000F0010000009936300520170320000101 00000000000000000000000000000000000000000000000000000000000000000000000000000000000000000000000000000000000000000N 00000000000NCONT   00    00000000000          00000000000000000000000000000000000000000000 000000000000000A000000000000000000000000000000000000000000000 000000000000000000000000000000000000000     00000000                                                                                                                        000000000000000000
F0010000009936400001000003207718300011050500000000000000000201703200002001MARIA GILMA  RAMIREZ GARCIA                       D000000005900000000000000000000000100010010000000000000000000000F0010000009936400120170320000101 00000000000000000000000000000000000000000000000000000000000000000000000000000000000000000000000000000000000000000N 00000000000NCONT   00    00000000000          00000000000000000000000000000000000000000000 000000000000000A000000000000000000000000000000000000000000000 000000000000000000000000000000000000000     00000000                                                                                                                        000000000000000000
F0010000009936400002000003207718300041450500000000000000000201703200002001MARIA GILMA  RAMIREZ GARCIA                       C000000005200000000000000000000000100010010000000000000000000000F0010000009936400220170320000101 00000000000000000000000000000000000000000000000000000000000000000000000000000000000000000000000000000000000000000N 00000000000NCONT   00    00000000000          00000000000000000000000000000000000000000000 000000000000000A000000000000000000000000000000000000000000000 000000000000000000000000000000000000000     00000000                                                                                                                        000000000000000000
F0010000009936400003000003207718300042505000000000000000000201703200002001MARIA GILMA  RAMIREZ GARCIA                       C000000000700000000000000000000000100010010000000000000000000000F0010000009936400320170320000101 00000000000000000000000000000000000000000000000000000000000000000000000000000000000000000000000000000000000000000N 00000000000NCONT   00    00000000000          00000000000000000000000000000000000000000000 000000000000000A000000000000000000000000000000000000000000000 000000000000000000000000000000000000000     00000000                                                                                                                        000000000000000000
F0010000009936400004000003207718300023658300000000000000000201703200002001MARIA GILMA  RAMIREZ GARCIA                       C000000000041600000000000000000000100010010000000000000000000000F0010000009936400420170320000101 00000000000000000000000000000000000000000000000000000000000000000000000000000000000000000000000000000000000000000N 00000000000NCONT   00    00000000000          00000000000000000000000000000000000000000000 000000000000000A000000000000000000000000000000000000000000000 000000000000000000000000000000000000000     00000000                                                                                                                        000000000000000000
F0010000009936400005000003207718300013552100000000000000000201703200002001MARIA GILMA  RAMIREZ GARCIA                       D000000000041600000000000000000000100010010000000000000000000000F0010000009936400520170320000101 00000000000000000000000000000000000000000000000000000000000000000000000000000000000000000000000000000000000000000N 00000000000NCONT   00    00000000000          00000000000000000000000000000000000000000000 000000000000000A000000000000000000000000000000000000000000000 000000000000000000000000000000000000000     00000000                                                                                                                        000000000000000000
F0010000009936500001000007221137900011050500000000000000000201703200002001CARLOS POLO                                       D000000001320000000000000000000000100010010000000000000000000000F0010000009936500120170320000101 00000000000000000000000000000000000000000000000000000000000000000000000000000000000000000000000000000000000000000N 00000000000NCONT   00    00000000000          00000000000000000000000000000000000000000000 000000000000000A000000000000000000000000000000000000000000000 000000000000000000000000000000000000000     00000000                                                                                                                        000000000000000000
F0010000009936500002000007221137900041450500000000000000000201703200002001CARLOS POLO                                       C000000001300000000000000000000000100010010000000000000000000000F0010000009936500220170320000101 00000000000000000000000000000000000000000000000000000000000000000000000000000000000000000000000000000000000000000N 00000000000NCONT   00    00000000000          00000000000000000000000000000000000000000000 000000000000000A000000000000000000000000000000000000000000000 000000000000000000000000000000000000000     00000000                                                                                                                        000000000000000000
F0010000009936500003000007221137900042505000000000000000000201703200002001CARLOS POLO                                       C000000000020000000000000000000000100010010000000000000000000000F0010000009936500320170320000101 00000000000000000000000000000000000000000000000000000000000000000000000000000000000000000000000000000000000000000N 00000000000NCONT   00    00000000000          00000000000000000000000000000000000000000000 000000000000000A000000000000000000000000000000000000000000000 000000000000000000000000000000000000000     00000000                                                                                                                        000000000000000000
F0010000009936500004000007221137900023658300000000000000000201703200002001CARLOS POLO                                       C000000000010400000000000000000000100010010000000000000000000000F0010000009936500420170320000101 00000000000000000000000000000000000000000000000000000000000000000000000000000000000000000000000000000000000000000N 00000000000NCONT   00    00000000000          00000000000000000000000000000000000000000000 000000000000000A000000000000000000000000000000000000000000000 000000000000000000000000000000000000000     00000000                                                                                                                        000000000000000000
F0010000009936500005000007221137900013552100000000000000000201703200002001CARLOS POLO                                       D000000000010400000000000000000000100010010000000000000000000000F0010000009936500520170320000101 00000000000000000000000000000000000000000000000000000000000000000000000000000000000000000000000000000000000000000N 00000000000NCONT   00    00000000000          00000000000000000000000000000000000000000000 000000000000000A000000000000000000000000000000000000000000000 000000000000000000000000000000000000000     00000000                                                                                                                        000000000000000000
F0010000009936600001000090067091400011050500000000000000000201703200002001COMERCIALIZADORA ESCOBAR ORTIZ                    D000000002650000000000000000000000100010010000000000000000000000F0010000009936600120170320000101 00000000000000000000000000000000000000000000000000000000000000000000000000000000000000000000000000000000000000000N 00000000000NCONT   00    00000000000          00000000000000000000000000000000000000000000 000000000000000A000000000000000000000000000000000000000000000 000000000000000000000000000000000000000     00000000                                                                                                                        000000000000000000
F0010000009936600002000090067091400041450500000000000000000201703200002001COMERCIALIZADORA ESCOBAR ORTIZ                    C000000002600000000000000000000000100010010000000000000000000000F0010000009936600220170320000101 00000000000000000000000000000000000000000000000000000000000000000000000000000000000000000000000000000000000000000N 00000000000NCONT   00    00000000000          00000000000000000000000000000000000000000000 000000000000000A000000000000000000000000000000000000000000000 000000000000000000000000000000000000000     00000000                                                                                                                        000000000000000000
F0010000009936600003000090067091400042505000000000000000000201703200002001COMERCIALIZADORA ESCOBAR ORTIZ                    C000000000050000000000000000000000100010010000000000000000000000F0010000009936600320170320000101 00000000000000000000000000000000000000000000000000000000000000000000000000000000000000000000000000000000000000000N 00000000000NCONT   00    00000000000          00000000000000000000000000000000000000000000 000000000000000A000000000000000000000000000000000000000000000 000000000000000000000000000000000000000     00000000                                                                                                                        000000000000000000
F0010000009936600004000090067091400023658300000000000000000201703200002001COMERCIALIZADORA ESCOBAR ORTIZ                    C000000000020800000000000000000000100010010000000000000000000000F0010000009936600420170320000101 00000000000000000000000000000000000000000000000000000000000000000000000000000000000000000000000000000000000000000N 00000000000NCONT   00    00000000000          00000000000000000000000000000000000000000000 000000000000000A000000000000000000000000000000000000000000000 000000000000000000000000000000000000000     00000000                                                                                                                        000000000000000000
F0010000009936600005000090067091400013552100000000000000000201703200002001COMERCIALIZADORA ESCOBAR ORTIZ                    D000000000020800000000000000000000100010010000000000000000000000F0010000009936600520170320000101 00000000000000000000000000000000000000000000000000000000000000000000000000000000000000000000000000000000000000000N 00000000000NCONT   00    00000000000          00000000000000000000000000000000000000000000 000000000000000A000000000000000000000000000000000000000000000 000000000000000000000000000000000000000     00000000                                                                                                                        000000000000000000
F0010000009936700001000090067091400011050500000000000000000201703200002001COMERCIALIZADORA ESCOBAR ORTIZ                    D000000001500000000000000000000000100010010000000000000000000000F0010000009936700120170320000101 00000000000000000000000000000000000000000000000000000000000000000000000000000000000000000000000000000000000000000N 00000000000NCONT   00    00000000000          00000000000000000000000000000000000000000000 000000000000000A000000000000000000000000000000000000000000000 000000000000000000000000000000000000000     00000000                                                                                                                        000000000000000000
F0010000009936700002000090067091400041450500000000000000000201703200002001COMERCIALIZADORA ESCOBAR ORTIZ                    C000000001300000000000000000000000100010010000000000000000000000F0010000009936700220170320000101 00000000000000000000000000000000000000000000000000000000000000000000000000000000000000000000000000000000000000000N 00000000000NCONT   00    00000000000          00000000000000000000000000000000000000000000 000000000000000A000000000000000000000000000000000000000000000 000000000000000000000000000000000000000     00000000                                                                                                                        000000000000000000
F0010000009936700003000090067091400042505000000000000000000201703200002001COMERCIALIZADORA ESCOBAR ORTIZ                    C000000000200000000000000000000000100010010000000000000000000000F0010000009936700320170320000101 00000000000000000000000000000000000000000000000000000000000000000000000000000000000000000000000000000000000000000N 00000000000NCONT   00    00000000000          00000000000000000000000000000000000000000000 000000000000000A000000000000000000000000000000000000000000000 000000000000000000000000000000000000000     00000000                                                                                                                        000000000000000000
F0010000009936700004000090067091400023658300000000000000000201703200002001COMERCIALIZADORA ESCOBAR ORTIZ                    C000000000010400000000000000000000100010010000000000000000000000F0010000009936700420170320000101 00000000000000000000000000000000000000000000000000000000000000000000000000000000000000000000000000000000000000000N 00000000000NCONT   00    00000000000          00000000000000000000000000000000000000000000 000000000000000A000000000000000000000000000000000000000000000 000000000000000000000000000000000000000     00000000                                                                                                                        000000000000000000
F0010000009936700005000090067091400013552100000000000000000201703200002001COMERCIALIZADORA ESCOBAR ORTIZ                    D000000000010400000000000000000000100010010000000000000000000000F0010000009936700520170320000101 00000000000000000000000000000000000000000000000000000000000000000000000000000000000000000000000000000000000000000N 00000000000NCONT   00    00000000000          00000000000000000000000000000000000000000000 000000000000000A000000000000000000000000000000000000000000000 000000000000000000000000000000000000000     00000000                                                                                                                        000000000000000000
F0010000009936800001000090067091400011050500000000000000000201703200002001COMERCIALIZADORA ESCOBAR ORTIZ                    D000000006200000000000000000000000100010010000000000000000000000F0010000009936800120170320000101 00000000000000000000000000000000000000000000000000000000000000000000000000000000000000000000000000000000000000000N 00000000000NCONT   00    00000000000          00000000000000000000000000000000000000000000 000000000000000A000000000000000000000000000000000000000000000 000000000000000000000000000000000000000     00000000                                                                                                                        000000000000000000
F0010000009936800002000090067091400041450500000000000000000201703200002001COMERCIALIZADORA ESCOBAR ORTIZ                    C000000005200000000000000000000000100010010000000000000000000000F0010000009936800220170320000101 00000000000000000000000000000000000000000000000000000000000000000000000000000000000000000000000000000000000000000N 00000000000NCONT   00    00000000000          00000000000000000000000000000000000000000000 000000000000000A000000000000000000000000000000000000000000000 000000000000000000000000000000000000000     00000000                                                                                                                        000000000000000000
F0010000009936800003000090067091400042505000000000000000000201703200002001COMERCIALIZADORA ESCOBAR ORTIZ                    C000000001000000000000000000000000100010010000000000000000000000F0010000009936800320170320000101 00000000000000000000000000000000000000000000000000000000000000000000000000000000000000000000000000000000000000000N 00000000000NCONT   00    00000000000          00000000000000000000000000000000000000000000 000000000000000A000000000000000000000000000000000000000000000 000000000000000000000000000000000000000     00000000                                                                                                                        000000000000000000
F0010000009936800004000090067091400023658300000000000000000201703200002001COMERCIALIZADORA ESCOBAR ORTIZ                    C000000000041600000000000000000000100010010000000000000000000000F0010000009936800420170320000101 00000000000000000000000000000000000000000000000000000000000000000000000000000000000000000000000000000000000000000N 00000000000NCONT   00    00000000000          00000000000000000000000000000000000000000000 000000000000000A000000000000000000000000000000000000000000000 000000000000000000000000000000000000000     00000000                                                                                                                        000000000000000000
F0010000009936800005000090067091400013552100000000000000000201703200002001COMERCIALIZADORA ESCOBAR ORTIZ                    D000000000041600000000000000000000100010010000000000000000000000F0010000009936800520170320000101 00000000000000000000000000000000000000000000000000000000000000000000000000000000000000000000000000000000000000000N 00000000000NCONT   00    00000000000          00000000000000000000000000000000000000000000 000000000000000A000000000000000000000000000000000000000000000 000000000000000000000000000000000000000     00000000                                                                                                                        000000000000000000
F0010000009936900001000000869402400011050500000000000000000201703200002001ISRAEL MANGA                                      D000000002900000000000000000000000100010010000000000000000000000F0010000009936900120170320000101 00000000000000000000000000000000000000000000000000000000000000000000000000000000000000000000000000000000000000000N 00000000000NCONT   00    00000000000          00000000000000000000000000000000000000000000 000000000000000A000000000000000000000000000000000000000000000 000000000000000000000000000000000000000     00000000                                                                                                                        000000000000000000
F0010000009936900002000000869402400041450500000000000000000201703200002001ISRAEL MANGA                                      C000000002400000000000000000000000100010010000000000000000000000F0010000009936900220170320000101 00000000000000000000000000000000000000000000000000000000000000000000000000000000000000000000000000000000000000000N 00000000000NCONT   00    00000000000          00000000000000000000000000000000000000000000 000000000000000A000000000000000000000000000000000000000000000 000000000000000000000000000000000000000     00000000                                                                                                                        000000000000000000
F0010000009936900003000000869402400042505000000000000000000201703200002001ISRAEL MANGA                                      C000000000500000000000000000000000100010010000000000000000000000F0010000009936900320170320000101 00000000000000000000000000000000000000000000000000000000000000000000000000000000000000000000000000000000000000000N 00000000000NCONT   00    00000000000          00000000000000000000000000000000000000000000 000000000000000A000000000000000000000000000000000000000000000 000000000000000000000000000000000000000     00000000                                                                                                                        000000000000000000
F0010000009936900004000000869402400023658300000000000000000201703200002001ISRAEL MANGA                                      C000000000019200000000000000000000100010010000000000000000000000F0010000009936900420170320000101 00000000000000000000000000000000000000000000000000000000000000000000000000000000000000000000000000000000000000000N 00000000000NCONT   00    00000000000          00000000000000000000000000000000000000000000 000000000000000A000000000000000000000000000000000000000000000 000000000000000000000000000000000000000     00000000                                                                                                                        000000000000000000
F0010000009936900005000000869402400013552100000000000000000201703200002001ISRAEL MANGA                                      D000000000019200000000000000000000100010010000000000000000000000F0010000009936900520170320000101 00000000000000000000000000000000000000000000000000000000000000000000000000000000000000000000000000000000000000000N 00000000000NCONT   00    00000000000          00000000000000000000000000000000000000000000 000000000000000A000000000000000000000000000000000000000000000 000000000000000000000000000000000000000     00000000                                                                                                                        000000000000000000
F0010000009937000001000000869402400011050500000000000000000201703200002001ISRAEL MANGA                                      D000000001600000000000000000000000100010010000000000000000000000F0010000009937000120170320000101 00000000000000000000000000000000000000000000000000000000000000000000000000000000000000000000000000000000000000000N 00000000000NCONT   00    00000000000          00000000000000000000000000000000000000000000 000000000000000A000000000000000000000000000000000000000000000 000000000000000000000000000000000000000     00000000                                                                                                                        000000000000000000
F0010000009937000002000000869402400041450500000000000000000201703200002001ISRAEL MANGA                                      C000000001200000000000000000000000100010010000000000000000000000F0010000009937000220170320000101 00000000000000000000000000000000000000000000000000000000000000000000000000000000000000000000000000000000000000000N 00000000000NCONT   00    00000000000          00000000000000000000000000000000000000000000 000000000000000A000000000000000000000000000000000000000000000 000000000000000000000000000000000000000     00000000                                                                                                                        000000000000000000
F0010000009937000003000000869402400042505000000000000000000201703200002001ISRAEL MANGA                                      C000000000400000000000000000000000100010010000000000000000000000F0010000009937000320170320000101 00000000000000000000000000000000000000000000000000000000000000000000000000000000000000000000000000000000000000000N 00000000000NCONT   00    00000000000          00000000000000000000000000000000000000000000 000000000000000A000000000000000000000000000000000000000000000 000000000000000000000000000000000000000     00000000                                                                                                                        000000000000000000
F0010000009937000004000000869402400023658300000000000000000201703200002001ISRAEL MANGA                                      C000000000009600000000000000000000100010010000000000000000000000F0010000009937000420170320000101 00000000000000000000000000000000000000000000000000000000000000000000000000000000000000000000000000000000000000000N 00000000000NCONT   00    00000000000          00000000000000000000000000000000000000000000 000000000000000A000000000000000000000000000000000000000000000 000000000000000000000000000000000000000     00000000                                                                                                                        000000000000000000
F0010000009937000005000000869402400013552100000000000000000201703200002001ISRAEL MANGA                                      D000000000009600000000000000000000100010010000000000000000000000F0010000009937000520170320000101 00000000000000000000000000000000000000000000000000000000000000000000000000000000000000000000000000000000000000000N 00000000000NCONT   00    00000000000          00000000000000000000000000000000000000000000 000000000000000A000000000000000000000000000000000000000000000 000000000000000000000000000000000000000     00000000                                                                                                                        000000000000000000
F0010000009937100001000007904689600011050500000000000000000201703200002001VICTOR MANUEL BOCANEGRA RAMIREZ                   D000000003030000000000000000000000100010010000000000000000000000F0010000009937100120170320000101 00000000000000000000000000000000000000000000000000000000000000000000000000000000000000000000000000000000000000000N 00000000000NCONT   00    00000000000          00000000000000000000000000000000000000000000 000000000000000A000000000000000000000000000000000000000000000 000000000000000000000000000000000000000     00000000                                                                                                                        000000000000000000
F0010000009937100002000007904689600041450500000000000000000201703200002001VICTOR MANUEL BOCANEGRA RAMIREZ                   C000000003000000000000000000000000100010010000000000000000000000F0010000009937100220170320000101 00000000000000000000000000000000000000000000000000000000000000000000000000000000000000000000000000000000000000000N 00000000000NCONT   00    00000000000          00000000000000000000000000000000000000000000 000000000000000A000000000000000000000000000000000000000000000 000000000000000000000000000000000000000     00000000                                                                                                                        000000000000000000
F0010000009937100003000007904689600042505000000000000000000201703200002001VICTOR MANUEL BOCANEGRA RAMIREZ                   C000000000030000000000000000000000100010010000000000000000000000F0010000009937100320170320000101 00000000000000000000000000000000000000000000000000000000000000000000000000000000000000000000000000000000000000000N 00000000000NCONT   00    00000000000          00000000000000000000000000000000000000000000 000000000000000A000000000000000000000000000000000000000000000 000000000000000000000000000000000000000     00000000                                                                                                                        000000000000000000
F0010000009937100004000007904689600023658300000000000000000201703200002001VICTOR MANUEL BOCANEGRA RAMIREZ                   C000000000024000000000000000000000100010010000000000000000000000F0010000009937100420170320000101 00000000000000000000000000000000000000000000000000000000000000000000000000000000000000000000000000000000000000000N 00000000000NCONT   00    00000000000          00000000000000000000000000000000000000000000 000000000000000A000000000000000000000000000000000000000000000 000000000000000000000000000000000000000     00000000                                                                                                                        000000000000000000
F0010000009937100005000007904689600013552100000000000000000201703200002001VICTOR MANUEL BOCANEGRA RAMIREZ                   D000000000024000000000000000000000100010010000000000000000000000F0010000009937100520170320000101 00000000000000000000000000000000000000000000000000000000000000000000000000000000000000000000000000000000000000000N 00000000000NCONT   00    00000000000          00000000000000000000000000000000000000000000 000000000000000A000000000000000000000000000000000000000000000 000000000000000000000000000000000000000     00000000                                                                                                                        000000000000000000
F0010000009937200001000007904689600011050500000000000000000201703200002001VICTOR MANUEL BOCANEGRA RAMIREZ                   D000000001100000000000000000000000100010010000000000000000000000F0010000009937200120170320000101 00000000000000000000000000000000000000000000000000000000000000000000000000000000000000000000000000000000000000000N 00000000000NCONT   00    00000000000          00000000000000000000000000000000000000000000 000000000000000A000000000000000000000000000000000000000000000 000000000000000000000000000000000000000     00000000                                                                                                                        000000000000000000
F0010000009937200002000007904689600041450500000000000000000201703200002001VICTOR MANUEL BOCANEGRA RAMIREZ                   C000000001000000000000000000000000100010010000000000000000000000F0010000009937200220170320000101 00000000000000000000000000000000000000000000000000000000000000000000000000000000000000000000000000000000000000000N 00000000000NCONT   00    00000000000          00000000000000000000000000000000000000000000 000000000000000A000000000000000000000000000000000000000000000 000000000000000000000000000000000000000     00000000                                                                                                                        000000000000000000
F0010000009937200003000007904689600042505000000000000000000201703200002001VICTOR MANUEL BOCANEGRA RAMIREZ                   C000000000100000000000000000000000100010010000000000000000000000F0010000009937200320170320000101 00000000000000000000000000000000000000000000000000000000000000000000000000000000000000000000000000000000000000000N 00000000000NCONT   00    00000000000          00000000000000000000000000000000000000000000 000000000000000A000000000000000000000000000000000000000000000 000000000000000000000000000000000000000     00000000                                                                                                                        000000000000000000
F0010000009937200004000007904689600023658300000000000000000201703200002001VICTOR MANUEL BOCANEGRA RAMIREZ                   C000000000008000000000000000000000100010010000000000000000000000F0010000009937200420170320000101 00000000000000000000000000000000000000000000000000000000000000000000000000000000000000000000000000000000000000000N 00000000000NCONT   00    00000000000          00000000000000000000000000000000000000000000 000000000000000A000000000000000000000000000000000000000000000 000000000000000000000000000000000000000     00000000                                                                                                                        000000000000000000
F0010000009937200005000007904689600013552100000000000000000201703200002001VICTOR MANUEL BOCANEGRA RAMIREZ                   D000000000008000000000000000000000100010010000000000000000000000F0010000009937200520170320000101 00000000000000000000000000000000000000000000000000000000000000000000000000000000000000000000000000000000000000000N 00000000000NCONT   00    00000000000          00000000000000000000000000000000000000000000 000000000000000A000000000000000000000000000000000000000000000 000000000000000000000000000000000000000     00000000                                                                                                                        000000000000000000
F0010000009937300001000000869402400011050500000000000000000201703200002001ISRAEL MANGA                                      D000000001360000000000000000000000100010010000000000000000000000F0010000009937300120170320000101 00000000000000000000000000000000000000000000000000000000000000000000000000000000000000000000000000000000000000000N 00000000000NCONT   00    00000000000          00000000000000000000000000000000000000000000 000000000000000A000000000000000000000000000000000000000000000 000000000000000000000000000000000000000     00000000                                                                                                                        000000000000000000
F0010000009937300002000000869402400041450500000000000000000201703200002001ISRAEL MANGA                                      C000000001300000000000000000000000100010010000000000000000000000F0010000009937300220170320000101 00000000000000000000000000000000000000000000000000000000000000000000000000000000000000000000000000000000000000000N 00000000000NCONT   00    00000000000          00000000000000000000000000000000000000000000 000000000000000A000000000000000000000000000000000000000000000 000000000000000000000000000000000000000     00000000                                                                                                                        000000000000000000
F0010000009937300003000000869402400042505000000000000000000201703200002001ISRAEL MANGA                                      C000000000060000000000000000000000100010010000000000000000000000F0010000009937300320170320000101 00000000000000000000000000000000000000000000000000000000000000000000000000000000000000000000000000000000000000000N 00000000000NCONT   00    00000000000          00000000000000000000000000000000000000000000 000000000000000A000000000000000000000000000000000000000000000 000000000000000000000000000000000000000     00000000                                                                                                                        000000000000000000
F0010000009937300004000000869402400023658300000000000000000201703200002001ISRAEL MANGA                                      C000000000010400000000000000000000100010010000000000000000000000F0010000009937300420170320000101 00000000000000000000000000000000000000000000000000000000000000000000000000000000000000000000000000000000000000000N 00000000000NCONT   00    00000000000          00000000000000000000000000000000000000000000 000000000000000A000000000000000000000000000000000000000000000 000000000000000000000000000000000000000     00000000                                                                                                                        000000000000000000
F0010000009937300005000000869402400013552100000000000000000201703200002001ISRAEL MANGA                                      D000000000010400000000000000000000100010010000000000000000000000F0010000009937300520170320000101 00000000000000000000000000000000000000000000000000000000000000000000000000000000000000000000000000000000000000000N 00000000000NCONT   00    00000000000          00000000000000000000000000000000000000000000 000000000000000A000000000000000000000000000000000000000000000 000000000000000000000000000000000000000     00000000                                                                                                                        000000000000000000
F0010000009937400001000090034602400011050500000000000000000201703200002001PRODUCTOS NACIONALES PARAFINICOS LA CUSTODIA S.A.SD000000001050000000000000000000000100010010000000000000000000000F0010000009937400120170320000101 00000000000000000000000000000000000000000000000000000000000000000000000000000000000000000000000000000000000000000N 00000000000NCONT   00    00000000000          00000000000000000000000000000000000000000000 000000000000000A000000000000000000000000000000000000000000000 000000000000000000000000000000000000000     00000000                                                                                                                        000000000000000000
F0010000009937400002000090034602400041450500000000000000000201703200002001PRODUCTOS NACIONALES PARAFINICOS LA CUSTODIA S.A.SC000000000950000000000000000000000100010010000000000000000000000F0010000009937400220170320000101 00000000000000000000000000000000000000000000000000000000000000000000000000000000000000000000000000000000000000000N 00000000000NCONT   00    00000000000          00000000000000000000000000000000000000000000 000000000000000A000000000000000000000000000000000000000000000 000000000000000000000000000000000000000     00000000                                                                                                                        000000000000000000
F0010000009937400003000090034602400042505000000000000000000201703200002001PRODUCTOS NACIONALES PARAFINICOS LA CUSTODIA S.A.SC000000000100000000000000000000000100010010000000000000000000000F0010000009937400320170320000101 00000000000000000000000000000000000000000000000000000000000000000000000000000000000000000000000000000000000000000N 00000000000NCONT   00    00000000000          00000000000000000000000000000000000000000000 000000000000000A000000000000000000000000000000000000000000000 000000000000000000000000000000000000000     00000000                                                                                                                        000000000000000000
F0010000009937400004000090034602400023658300000000000000000201703200002001PRODUCTOS NACIONALES PARAFINICOS LA CUSTODIA S.A.SC000000000007600000000000000000000100010010000000000000000000000F0010000009937400420170320000101 00000000000000000000000000000000000000000000000000000000000000000000000000000000000000000000000000000000000000000N 00000000000NCONT   00    00000000000          00000000000000000000000000000000000000000000 000000000000000A000000000000000000000000000000000000000000000 000000000000000000000000000000000000000     00000000                                                                                                                        000000000000000000
F0010000009937400005000090034602400013552100000000000000000201703200002001PRODUCTOS NACIONALES PARAFINICOS LA CUSTODIA S.A.SD000000000007600000000000000000000100010010000000000000000000000F0010000009937400520170320000101 00000000000000000000000000000000000000000000000000000000000000000000000000000000000000000000000000000000000000000N 00000000000NCONT   00    00000000000          00000000000000000000000000000000000000000000 000000000000000A000000000000000000000000000000000000000000000 000000000000000000000000000000000000000     00000000                                                                                                                        000000000000000000
F0010000009937500001000007904689600011050500000000000000000201703200002001VICTOR MANUEL BOCANEGRA RAMIREZ                   D000000001100000000000000000000000100010010000000000000000000000F0010000009937500120170320000101 00000000000000000000000000000000000000000000000000000000000000000000000000000000000000000000000000000000000000000N 00000000000NCONT   00    00000000000          00000000000000000000000000000000000000000000 000000000000000A000000000000000000000000000000000000000000000 000000000000000000000000000000000000000     00000000                                                                                                                        000000000000000000
F0010000009937500002000007904689600041450500000000000000000201703200002001VICTOR MANUEL BOCANEGRA RAMIREZ                   C000000001000000000000000000000000100010010000000000000000000000F0010000009937500220170320000101 00000000000000000000000000000000000000000000000000000000000000000000000000000000000000000000000000000000000000000N 00000000000NCONT   00    00000000000          00000000000000000000000000000000000000000000 000000000000000A000000000000000000000000000000000000000000000 000000000000000000000000000000000000000     00000000                                                                                                                        000000000000000000
F0010000009937500003000007904689600042505000000000000000000201703200002001VICTOR MANUEL BOCANEGRA RAMIREZ                   C000000000100000000000000000000000100010010000000000000000000000F0010000009937500320170320000101 00000000000000000000000000000000000000000000000000000000000000000000000000000000000000000000000000000000000000000N 00000000000NCONT   00    00000000000          00000000000000000000000000000000000000000000 000000000000000A000000000000000000000000000000000000000000000 000000000000000000000000000000000000000     00000000                                                                                                                        000000000000000000
F0010000009937500004000007904689600023658300000000000000000201703200002001VICTOR MANUEL BOCANEGRA RAMIREZ                   C000000000008000000000000000000000100010010000000000000000000000F0010000009937500420170320000101 00000000000000000000000000000000000000000000000000000000000000000000000000000000000000000000000000000000000000000N 00000000000NCONT   00    00000000000          00000000000000000000000000000000000000000000 000000000000000A000000000000000000000000000000000000000000000 000000000000000000000000000000000000000     00000000                                                                                                                        000000000000000000
F0010000009937500005000007904689600013552100000000000000000201703200002001VICTOR MANUEL BOCANEGRA RAMIREZ                   D000000000008000000000000000000000100010010000000000000000000000F0010000009937500520170320000101 00000000000000000000000000000000000000000000000000000000000000000000000000000000000000000000000000000000000000000N 00000000000NCONT   00    00000000000          00000000000000000000000000000000000000000000 000000000000000A000000000000000000000000000000000000000000000 000000000000000000000000000000000000000     00000000                                                                                                                        000000000000000000
F0010000009937600001000007904689600011050500000000000000000201703200002001VICTOR MANUEL BOCANEGRA RAMIREZ                   D000000001100000000000000000000000100010010000000000000000000000F0010000009937600120170320000101 00000000000000000000000000000000000000000000000000000000000000000000000000000000000000000000000000000000000000000N 00000000000NCONT   00    00000000000          00000000000000000000000000000000000000000000 000000000000000A000000000000000000000000000000000000000000000 000000000000000000000000000000000000000     00000000                                                                                                                        000000000000000000
F0010000009937600002000007904689600041450500000000000000000201703200002001VICTOR MANUEL BOCANEGRA RAMIREZ                   C000000001000000000000000000000000100010010000000000000000000000F0010000009937600220170320000101 00000000000000000000000000000000000000000000000000000000000000000000000000000000000000000000000000000000000000000N 00000000000NCONT   00    00000000000          00000000000000000000000000000000000000000000 000000000000000A000000000000000000000000000000000000000000000 000000000000000000000000000000000000000     00000000                                                                                                                        000000000000000000
F0010000009937600003000007904689600042505000000000000000000201703200002001VICTOR MANUEL BOCANEGRA RAMIREZ                   C000000000100000000000000000000000100010010000000000000000000000F0010000009937600320170320000101 00000000000000000000000000000000000000000000000000000000000000000000000000000000000000000000000000000000000000000N 00000000000NCONT   00    00000000000          00000000000000000000000000000000000000000000 000000000000000A000000000000000000000000000000000000000000000 000000000000000000000000000000000000000     00000000                                                                                                                        000000000000000000
F0010000009937600004000007904689600023658300000000000000000201703200002001VICTOR MANUEL BOCANEGRA RAMIREZ                   C000000000008000000000000000000000100010010000000000000000000000F0010000009937600420170320000101 00000000000000000000000000000000000000000000000000000000000000000000000000000000000000000000000000000000000000000N 00000000000NCONT   00    00000000000          00000000000000000000000000000000000000000000 000000000000000A000000000000000000000000000000000000000000000 000000000000000000000000000000000000000     00000000                                                                                                                        000000000000000000
F0010000009937600005000007904689600013552100000000000000000201703200002001VICTOR MANUEL BOCANEGRA RAMIREZ                   D000000000008000000000000000000000100010010000000000000000000000F0010000009937600520170320000101 00000000000000000000000000000000000000000000000000000000000000000000000000000000000000000000000000000000000000000N 00000000000NCONT   00    00000000000          00000000000000000000000000000000000000000000 000000000000000A000000000000000000000000000000000000000000000 000000000000000000000000000000000000000     00000000                                                                                                                        000000000000000000
F0010000009937700001000007221137900011050500000000000000000201703200002001CARLOS POLO                                       D000000001320000000000000000000000100010010000000000000000000000F0010000009937700120170320000101 00000000000000000000000000000000000000000000000000000000000000000000000000000000000000000000000000000000000000000N 00000000000NCONT   00    00000000000          00000000000000000000000000000000000000000000 000000000000000A000000000000000000000000000000000000000000000 000000000000000000000000000000000000000     00000000                                                                                                                        000000000000000000
F0010000009937700002000007221137900041450500000000000000000201703200002001CARLOS POLO                                       C000000001300000000000000000000000100010010000000000000000000000F0010000009937700220170320000101 00000000000000000000000000000000000000000000000000000000000000000000000000000000000000000000000000000000000000000N 00000000000NCONT   00    00000000000          00000000000000000000000000000000000000000000 000000000000000A000000000000000000000000000000000000000000000 000000000000000000000000000000000000000     00000000                                                                                                                        000000000000000000
F0010000009937700003000007221137900042505000000000000000000201703200002001CARLOS POLO                                       C000000000020000000000000000000000100010010000000000000000000000F0010000009937700320170320000101 00000000000000000000000000000000000000000000000000000000000000000000000000000000000000000000000000000000000000000N 00000000000NCONT   00    00000000000          00000000000000000000000000000000000000000000 000000000000000A000000000000000000000000000000000000000000000 000000000000000000000000000000000000000     00000000                                                                                                                        000000000000000000
F0010000009937700004000007221137900023658300000000000000000201703200002001CARLOS POLO                                       C000000000010400000000000000000000100010010000000000000000000000F0010000009937700420170320000101 00000000000000000000000000000000000000000000000000000000000000000000000000000000000000000000000000000000000000000N 00000000000NCONT   00    00000000000          00000000000000000000000000000000000000000000 000000000000000A000000000000000000000000000000000000000000000 000000000000000000000000000000000000000     00000000                                                                                                                        000000000000000000
F0010000009937700005000007221137900013552100000000000000000201703200002001CARLOS POLO                                       D000000000010400000000000000000000100010010000000000000000000000F0010000009937700520170320000101 00000000000000000000000000000000000000000000000000000000000000000000000000000000000000000000000000000000000000000N 00000000000NCONT   00    00000000000          00000000000000000000000000000000000000000000 000000000000000A000000000000000000000000000000000000000000000 000000000000000000000000000000000000000     00000000                                                                                                                        000000000000000000
F0010000009937800001000007221137900011050500000000000000000201703200002001CARLOS POLO                                       D000000001320000000000000000000000100010010000000000000000000000F0010000009937800120170320000101 00000000000000000000000000000000000000000000000000000000000000000000000000000000000000000000000000000000000000000N 00000000000NCONT   00    00000000000          00000000000000000000000000000000000000000000 000000000000000A000000000000000000000000000000000000000000000 000000000000000000000000000000000000000     00000000                                                                                                                        000000000000000000
F0010000009937800002000007221137900041450500000000000000000201703200002001CARLOS POLO                                       C000000001300000000000000000000000100010010000000000000000000000F0010000009937800220170320000101 00000000000000000000000000000000000000000000000000000000000000000000000000000000000000000000000000000000000000000N 00000000000NCONT   00    00000000000          00000000000000000000000000000000000000000000 000000000000000A000000000000000000000000000000000000000000000 000000000000000000000000000000000000000     00000000                                                                                                                        000000000000000000
F0010000009937800003000007221137900042505000000000000000000201703200002001CARLOS POLO                                       C000000000020000000000000000000000100010010000000000000000000000F0010000009937800320170320000101 00000000000000000000000000000000000000000000000000000000000000000000000000000000000000000000000000000000000000000N 00000000000NCONT   00    00000000000          00000000000000000000000000000000000000000000 000000000000000A000000000000000000000000000000000000000000000 000000000000000000000000000000000000000     00000000                                                                                                                        000000000000000000
F0010000009937800004000007221137900023658300000000000000000201703200002001CARLOS POLO                                       C000000000010400000000000000000000100010010000000000000000000000F0010000009937800420170320000101 00000000000000000000000000000000000000000000000000000000000000000000000000000000000000000000000000000000000000000N 00000000000NCONT   00    00000000000          00000000000000000000000000000000000000000000 000000000000000A000000000000000000000000000000000000000000000 000000000000000000000000000000000000000     00000000                                                                                                                        000000000000000000
F0010000009937800005000007221137900013552100000000000000000201703200002001CARLOS POLO                                       D000000000010400000000000000000000100010010000000000000000000000F0010000009937800520170320000101 00000000000000000000000000000000000000000000000000000000000000000000000000000000000000000000000000000000000000000N 00000000000NCONT   00    00000000000          00000000000000000000000000000000000000000000 000000000000000A000000000000000000000000000000000000000000000 000000000000000000000000000000000000000     00000000                                                                                                                        000000000000000000
F0010000009937900001000090067091400011050500000000000000000201703200002001COMERCIALIZADORA ESCOBAR ORTIZ                    D000000002200000000000000000000000100010010000000000000000000000F0010000009937900120170320000101 00000000000000000000000000000000000000000000000000000000000000000000000000000000000000000000000000000000000000000N 00000000000NCONT   00    00000000000          00000000000000000000000000000000000000000000 000000000000000A000000000000000000000000000000000000000000000 000000000000000000000000000000000000000     00000000                                                                                                                        000000000000000000
F0010000009937900002000090067091400041450500000000000000000201703200002001COMERCIALIZADORA ESCOBAR ORTIZ                    C000000002000000000000000000000000100010010000000000000000000000F0010000009937900220170320000101 00000000000000000000000000000000000000000000000000000000000000000000000000000000000000000000000000000000000000000N 00000000000NCONT   00    00000000000          00000000000000000000000000000000000000000000 000000000000000A000000000000000000000000000000000000000000000 000000000000000000000000000000000000000     00000000                                                                                                                        000000000000000000
F0010000009937900003000090067091400042505000000000000000000201703200002001COMERCIALIZADORA ESCOBAR ORTIZ                    C000000000200000000000000000000000100010010000000000000000000000F0010000009937900320170320000101 00000000000000000000000000000000000000000000000000000000000000000000000000000000000000000000000000000000000000000N 00000000000NCONT   00    00000000000          00000000000000000000000000000000000000000000 000000000000000A000000000000000000000000000000000000000000000 000000000000000000000000000000000000000     00000000                                                                                                                        000000000000000000
F0010000009937900004000090067091400023658300000000000000000201703200002001COMERCIALIZADORA ESCOBAR ORTIZ                    C000000000016000000000000000000000100010010000000000000000000000F0010000009937900420170320000101 00000000000000000000000000000000000000000000000000000000000000000000000000000000000000000000000000000000000000000N 00000000000NCONT   00    00000000000          00000000000000000000000000000000000000000000 000000000000000A000000000000000000000000000000000000000000000 000000000000000000000000000000000000000     00000000                                                                                                                        000000000000000000
F0010000009937900005000090067091400013552100000000000000000201703200002001COMERCIALIZADORA ESCOBAR ORTIZ                    D000000000016000000000000000000000100010010000000000000000000000F0010000009937900520170320000101 00000000000000000000000000000000000000000000000000000000000000000000000000000000000000000000000000000000000000000N 00000000000NCONT   00    00000000000          00000000000000000000000000000000000000000000 000000000000000A000000000000000000000000000000000000000000000 000000000000000000000000000000000000000     00000000                                                                                                                        000000000000000000
F0010000009938000001000090067091400011050500000000000000000201703200002001COMERCIALIZADORA ESCOBAR ORTIZ                    D000000002020000000000000000000000100010010000000000000000000000F0010000009938000120170320000101 00000000000000000000000000000000000000000000000000000000000000000000000000000000000000000000000000000000000000000N 00000000000NCONT   00    00000000000          00000000000000000000000000000000000000000000 000000000000000A000000000000000000000000000000000000000000000 000000000000000000000000000000000000000     00000000                                                                                                                        000000000000000000
F0010000009938000002000090067091400041450500000000000000000201703200002001COMERCIALIZADORA ESCOBAR ORTIZ                    C000000002000000000000000000000000100010010000000000000000000000F0010000009938000220170320000101 00000000000000000000000000000000000000000000000000000000000000000000000000000000000000000000000000000000000000000N 00000000000NCONT   00    00000000000          00000000000000000000000000000000000000000000 000000000000000A000000000000000000000000000000000000000000000 000000000000000000000000000000000000000     00000000                                                                                                                        000000000000000000
F0010000009938000003000090067091400042505000000000000000000201703200002001COMERCIALIZADORA ESCOBAR ORTIZ                    C000000000020000000000000000000000100010010000000000000000000000F0010000009938000320170320000101 00000000000000000000000000000000000000000000000000000000000000000000000000000000000000000000000000000000000000000N 00000000000NCONT   00    00000000000          00000000000000000000000000000000000000000000 000000000000000A000000000000000000000000000000000000000000000 000000000000000000000000000000000000000     00000000                                                                                                                        000000000000000000
F0010000009938000004000090067091400023658300000000000000000201703200002001COMERCIALIZADORA ESCOBAR ORTIZ                    C000000000016000000000000000000000100010010000000000000000000000F0010000009938000420170320000101 00000000000000000000000000000000000000000000000000000000000000000000000000000000000000000000000000000000000000000N 00000000000NCONT   00    00000000000          00000000000000000000000000000000000000000000 000000000000000A000000000000000000000000000000000000000000000 000000000000000000000000000000000000000     00000000                                                                                                                        000000000000000000
F0010000009938000005000090067091400013552100000000000000000201703200002001COMERCIALIZADORA ESCOBAR ORTIZ                    D000000000016000000000000000000000100010010000000000000000000000F0010000009938000520170320000101 00000000000000000000000000000000000000000000000000000000000000000000000000000000000000000000000000000000000000000N 00000000000NCONT   00    00000000000          00000000000000000000000000000000000000000000 000000000000000A000000000000000000000000000000000000000000000 000000000000000000000000000000000000000     00000000                                                                                                                        000000000000000000
F0010000009938100001000000000000000011050500000000000000000201703200002001DOMEDICOS DEL NORTE                               D000000004900000000000000000000000100010010000000000000000000000F0010000009938100120170320000101 00000000000000000000000000000000000000000000000000000000000000000000000000000000000000000000000000000000000000000N 00000000000NCONT   00    00000000000          00000000000000000000000000000000000000000000 000000000000000A000000000000000000000000000000000000000000000 000000000000000000000000000000000000000     00000000                                                                                                                        000000000000000000
F0010000009938100002000000000000000041450500000000000000000201703200002001DOMEDICOS DEL NORTE                               C000000003900000000000000000000000100010010000000000000000000000F0010000009938100220170320000101 00000000000000000000000000000000000000000000000000000000000000000000000000000000000000000000000000000000000000000N 00000000000NCONT   00    00000000000          00000000000000000000000000000000000000000000 000000000000000A000000000000000000000000000000000000000000000 000000000000000000000000000000000000000     00000000                                                                                                                        000000000000000000
F0010000009938100003000000000000000042505000000000000000000201703200002001DOMEDICOS DEL NORTE                               C000000001000000000000000000000000100010010000000000000000000000F0010000009938100320170320000101 00000000000000000000000000000000000000000000000000000000000000000000000000000000000000000000000000000000000000000N 00000000000NCONT   00    00000000000          00000000000000000000000000000000000000000000 000000000000000A000000000000000000000000000000000000000000000 000000000000000000000000000000000000000     00000000                                                                                                                        000000000000000000
F0010000009938100004000000000000000023658300000000000000000201703200002001DOMEDICOS DEL NORTE                               C000000000031200000000000000000000100010010000000000000000000000F0010000009938100420170320000101 00000000000000000000000000000000000000000000000000000000000000000000000000000000000000000000000000000000000000000N 00000000000NCONT   00    00000000000          00000000000000000000000000000000000000000000 000000000000000A000000000000000000000000000000000000000000000 000000000000000000000000000000000000000     00000000                                                                                                                        000000000000000000
F0010000009938100005000000000000000013552100000000000000000201703200002001DOMEDICOS DEL NORTE                               D000000000031200000000000000000000100010010000000000000000000000F0010000009938100520170320000101 00000000000000000000000000000000000000000000000000000000000000000000000000000000000000000000000000000000000000000N 00000000000NCONT   00    00000000000          00000000000000000000000000000000000000000000 000000000000000A000000000000000000000000000000000000000000000 000000000000000000000000000000000000000     00000000                                                                                                                        000000000000000000
