F0010000009424600001000003288324600011050500000000000000000201611170002001DISTRIBUCION CONTINENTES                          D000000001100000000000000000000000100010010000000000000000000000F0019424600120161117000101 00000000000000000000000000000000000000000000000000000000000000000000000000000000000000000000000000000000000000000N 00000000000NCONT   00    00000000000          00000000000000000000000000000000000000000000 000000000000000A000000000000000000000000000000000000000000000 000000000000000000000000000000000000000     00000000                                                                                                                        000000000000000000
F0010000009424600002000003288324600041450500000000000000000201611170002001DISTRIBUCION CONTINENTES                          C000000001000000000000000000000000100010010000000000000000000000F0019424600220161117000101 00000000000000000000000000000000000000000000000000000000000000000000000000000000000000000000000000000000000000000N 00000000000NCONT   00    00000000000          00000000000000000000000000000000000000000000 000000000000000A000000000000000000000000000000000000000000000 000000000000000000000000000000000000000     00000000                                                                                                                        000000000000000000
F0010000009424600003000003288324600042505000000000000000000201611170002001DISTRIBUCION CONTINENTES                          C000000000100000000000000000000000100010010000000000000000000000F0019424600320161117000101 00000000000000000000000000000000000000000000000000000000000000000000000000000000000000000000000000000000000000000N 00000000000NCONT   00    00000000000          00000000000000000000000000000000000000000000 000000000000000A000000000000000000000000000000000000000000000 000000000000000000000000000000000000000     00000000                                                                                                                        000000000000000000
F0010000009424600004000003288324600023658300000000000000000201611170002001DISTRIBUCION CONTINENTES                          C000000000008000000000000000000000100010010000000000000000000000F0019424600420161117000101 00000000000000000000000000000000000000000000000000000000000000000000000000000000000000000000000000000000000000000N 00000000000NCONT   00    00000000000          00000000000000000000000000000000000000000000 000000000000000A000000000000000000000000000000000000000000000 000000000000000000000000000000000000000     00000000                                                                                                                        000000000000000000
F0010000009424600005000003288324600013552100000000000000000201611170002001DISTRIBUCION CONTINENTES                          D000000000008000000000000000000000100010010000000000000000000000F0019424600520161117000101 00000000000000000000000000000000000000000000000000000000000000000000000000000000000000000000000000000000000000000N 00000000000NCONT   00    00000000000          00000000000000000000000000000000000000000000 000000000000000A000000000000000000000000000000000000000000000 000000000000000000000000000000000000000     00000000                                                                                                                        000000000000000000
F0010000009424700001000000868846900011050500000000000000000201611170002001NICOLAS DE LA HOZ SAUCEDO                         D000000002000000000000000000000000100010010000000000000000000000F0019424700120161117000101 00000000000000000000000000000000000000000000000000000000000000000000000000000000000000000000000000000000000000000N 00000000000NCONT   00    00000000000          00000000000000000000000000000000000000000000 000000000000000A000000000000000000000000000000000000000000000 000000000000000000000000000000000000000     00000000                                                                                                                        000000000000000000
F0010000009424700002000000868846900041450500000000000000000201611170002001NICOLAS DE LA HOZ SAUCEDO                         C000000001100000000000000000000000100010010000000000000000000000F0019424700220161117000101 00000000000000000000000000000000000000000000000000000000000000000000000000000000000000000000000000000000000000000N 00000000000NCONT   00    00000000000          00000000000000000000000000000000000000000000 000000000000000A000000000000000000000000000000000000000000000 000000000000000000000000000000000000000     00000000                                                                                                                        000000000000000000
F0010000009424700003000000868846900042505000000000000000000201611170002001NICOLAS DE LA HOZ SAUCEDO                         C000000000900000000000000000000000100010010000000000000000000000F0019424700320161117000101 00000000000000000000000000000000000000000000000000000000000000000000000000000000000000000000000000000000000000000N 00000000000NCONT   00    00000000000          00000000000000000000000000000000000000000000 000000000000000A000000000000000000000000000000000000000000000 000000000000000000000000000000000000000     00000000                                                                                                                        000000000000000000
F0010000009424700004000000868846900023658300000000000000000201611170002001NICOLAS DE LA HOZ SAUCEDO                         C000000000008800000000000000000000100010010000000000000000000000F0019424700420161117000101 00000000000000000000000000000000000000000000000000000000000000000000000000000000000000000000000000000000000000000N 00000000000NCONT   00    00000000000          00000000000000000000000000000000000000000000 000000000000000A000000000000000000000000000000000000000000000 000000000000000000000000000000000000000     00000000                                                                                                                        000000000000000000
F0010000009424700005000000868846900013552100000000000000000201611170002001NICOLAS DE LA HOZ SAUCEDO                         D000000000008800000000000000000000100010010000000000000000000000F0019424700520161117000101 00000000000000000000000000000000000000000000000000000000000000000000000000000000000000000000000000000000000000000N 00000000000NCONT   00    00000000000          00000000000000000000000000000000000000000000 000000000000000A000000000000000000000000000000000000000000000 000000000000000000000000000000000000000     00000000                                                                                                                        000000000000000000
F0010000009424800001000000866048200011050500000000000000000201611170002001REGINALDO TURIZO                                  D000000005000000000000000000000000100010010000000000000000000000F0019424800120161117000101 00000000000000000000000000000000000000000000000000000000000000000000000000000000000000000000000000000000000000000N 00000000000NCONT   00    00000000000          00000000000000000000000000000000000000000000 000000000000000A000000000000000000000000000000000000000000000 000000000000000000000000000000000000000     00000000                                                                                                                        000000000000000000
F0010000009424800002000000866048200041450500000000000000000201611170002001REGINALDO TURIZO                                  C000000003000000000000000000000000100010010000000000000000000000F0019424800220161117000101 00000000000000000000000000000000000000000000000000000000000000000000000000000000000000000000000000000000000000000N 00000000000NCONT   00    00000000000          00000000000000000000000000000000000000000000 000000000000000A000000000000000000000000000000000000000000000 000000000000000000000000000000000000000     00000000                                                                                                                        000000000000000000
F0010000009424800003000000866048200042505000000000000000000201611170002001REGINALDO TURIZO                                  C000000002000000000000000000000000100010010000000000000000000000F0019424800320161117000101 00000000000000000000000000000000000000000000000000000000000000000000000000000000000000000000000000000000000000000N 00000000000NCONT   00    00000000000          00000000000000000000000000000000000000000000 000000000000000A000000000000000000000000000000000000000000000 000000000000000000000000000000000000000     00000000                                                                                                                        000000000000000000
F0010000009424800004000000866048200023658300000000000000000201611170002001REGINALDO TURIZO                                  C000000000024000000000000000000000100010010000000000000000000000F0019424800420161117000101 00000000000000000000000000000000000000000000000000000000000000000000000000000000000000000000000000000000000000000N 00000000000NCONT   00    00000000000          00000000000000000000000000000000000000000000 000000000000000A000000000000000000000000000000000000000000000 000000000000000000000000000000000000000     00000000                                                                                                                        000000000000000000
F0010000009424800005000000866048200013552100000000000000000201611170002001REGINALDO TURIZO                                  D000000000024000000000000000000000100010010000000000000000000000F0019424800520161117000101 00000000000000000000000000000000000000000000000000000000000000000000000000000000000000000000000000000000000000000N 00000000000NCONT   00    00000000000          00000000000000000000000000000000000000000000 000000000000000A000000000000000000000000000000000000000000000 000000000000000000000000000000000000000     00000000                                                                                                                        000000000000000000
F0010000009424900001000000866048200011050500000000000000000201611170002001REGINALDO TURIZO                                  D000000001600000000000000000000000100010010000000000000000000000F0019424900120161117000101 00000000000000000000000000000000000000000000000000000000000000000000000000000000000000000000000000000000000000000N 00000000000NCONT   00    00000000000          00000000000000000000000000000000000000000000 000000000000000A000000000000000000000000000000000000000000000 000000000000000000000000000000000000000     00000000                                                                                                                        000000000000000000
F0010000009424900002000000866048200041450500000000000000000201611170002001REGINALDO TURIZO                                  C000000001300000000000000000000000100010010000000000000000000000F0019424900220161117000101 00000000000000000000000000000000000000000000000000000000000000000000000000000000000000000000000000000000000000000N 00000000000NCONT   00    00000000000          00000000000000000000000000000000000000000000 000000000000000A000000000000000000000000000000000000000000000 000000000000000000000000000000000000000     00000000                                                                                                                        000000000000000000
F0010000009424900003000000866048200042505000000000000000000201611170002001REGINALDO TURIZO                                  C000000000300000000000000000000000100010010000000000000000000000F0019424900320161117000101 00000000000000000000000000000000000000000000000000000000000000000000000000000000000000000000000000000000000000000N 00000000000NCONT   00    00000000000          00000000000000000000000000000000000000000000 000000000000000A000000000000000000000000000000000000000000000 000000000000000000000000000000000000000     00000000                                                                                                                        000000000000000000
F0010000009424900004000000866048200023658300000000000000000201611170002001REGINALDO TURIZO                                  C000000000010400000000000000000000100010010000000000000000000000F0019424900420161117000101 00000000000000000000000000000000000000000000000000000000000000000000000000000000000000000000000000000000000000000N 00000000000NCONT   00    00000000000          00000000000000000000000000000000000000000000 000000000000000A000000000000000000000000000000000000000000000 000000000000000000000000000000000000000     00000000                                                                                                                        000000000000000000
F0010000009424900005000000866048200013552100000000000000000201611170002001REGINALDO TURIZO                                  D000000000010400000000000000000000100010010000000000000000000000F0019424900520161117000101 00000000000000000000000000000000000000000000000000000000000000000000000000000000000000000000000000000000000000000N 00000000000NCONT   00    00000000000          00000000000000000000000000000000000000000000 000000000000000A000000000000000000000000000000000000000000000 000000000000000000000000000000000000000     00000000                                                                                                                        000000000000000000
F0010000009425000001000003319910700011050500000000000000000201611170002001LUZ DARY JIMENEZ MARTINEZ                         D000000002500000000000000000000000100010010000000000000000000000F0019425000120161117000101 00000000000000000000000000000000000000000000000000000000000000000000000000000000000000000000000000000000000000000N 00000000000NCONT   00    00000000000          00000000000000000000000000000000000000000000 000000000000000A000000000000000000000000000000000000000000000 000000000000000000000000000000000000000     00000000                                                                                                                        000000000000000000
F0010000009425000002000003319910700041450500000000000000000201611170002001LUZ DARY JIMENEZ MARTINEZ                         C000000002400000000000000000000000100010010000000000000000000000F0019425000220161117000101 00000000000000000000000000000000000000000000000000000000000000000000000000000000000000000000000000000000000000000N 00000000000NCONT   00    00000000000          00000000000000000000000000000000000000000000 000000000000000A000000000000000000000000000000000000000000000 000000000000000000000000000000000000000     00000000                                                                                                                        000000000000000000
F0010000009425000003000003319910700042505000000000000000000201611170002001LUZ DARY JIMENEZ MARTINEZ                         C000000000100000000000000000000000100010010000000000000000000000F0019425000320161117000101 00000000000000000000000000000000000000000000000000000000000000000000000000000000000000000000000000000000000000000N 00000000000NCONT   00    00000000000          00000000000000000000000000000000000000000000 000000000000000A000000000000000000000000000000000000000000000 000000000000000000000000000000000000000     00000000                                                                                                                        000000000000000000
F0010000009425000004000003319910700023658300000000000000000201611170002001LUZ DARY JIMENEZ MARTINEZ                         C000000000019200000000000000000000100010010000000000000000000000F0019425000420161117000101 00000000000000000000000000000000000000000000000000000000000000000000000000000000000000000000000000000000000000000N 00000000000NCONT   00    00000000000          00000000000000000000000000000000000000000000 000000000000000A000000000000000000000000000000000000000000000 000000000000000000000000000000000000000     00000000                                                                                                                        000000000000000000
F0010000009425000005000003319910700013552100000000000000000201611170002001LUZ DARY JIMENEZ MARTINEZ                         D000000000019200000000000000000000100010010000000000000000000000F0019425000520161117000101 00000000000000000000000000000000000000000000000000000000000000000000000000000000000000000000000000000000000000000N 00000000000NCONT   00    00000000000          00000000000000000000000000000000000000000000 000000000000000A000000000000000000000000000000000000000000000 000000000000000000000000000000000000000     00000000                                                                                                                        000000000000000000
F0010000009425100001000007225583900011050500000000000000000201611170002001JORGE LUIS NIÑO BLANCO                           D000000002100000000000000000000000100010010000000000000000000000F0019425100120161117000101 00000000000000000000000000000000000000000000000000000000000000000000000000000000000000000000000000000000000000000N 00000000000NCONT   00    00000000000          00000000000000000000000000000000000000000000 000000000000000A000000000000000000000000000000000000000000000 000000000000000000000000000000000000000     00000000                                                                                                                        000000000000000000
F0010000009425100002000007225583900041450500000000000000000201611170002001JORGE LUIS NIÑO BLANCO                           C000000001800000000000000000000000100010010000000000000000000000F0019425100220161117000101 00000000000000000000000000000000000000000000000000000000000000000000000000000000000000000000000000000000000000000N 00000000000NCONT   00    00000000000          00000000000000000000000000000000000000000000 000000000000000A000000000000000000000000000000000000000000000 000000000000000000000000000000000000000     00000000                                                                                                                        000000000000000000
F0010000009425100003000007225583900042505000000000000000000201611170002001JORGE LUIS NIÑO BLANCO                           C000000000300000000000000000000000100010010000000000000000000000F0019425100320161117000101 00000000000000000000000000000000000000000000000000000000000000000000000000000000000000000000000000000000000000000N 00000000000NCONT   00    00000000000          00000000000000000000000000000000000000000000 000000000000000A000000000000000000000000000000000000000000000 000000000000000000000000000000000000000     00000000                                                                                                                        000000000000000000
F0010000009425100004000007225583900023658300000000000000000201611170002001JORGE LUIS NIÑO BLANCO                           C000000000014400000000000000000000100010010000000000000000000000F0019425100420161117000101 00000000000000000000000000000000000000000000000000000000000000000000000000000000000000000000000000000000000000000N 00000000000NCONT   00    00000000000          00000000000000000000000000000000000000000000 000000000000000A000000000000000000000000000000000000000000000 000000000000000000000000000000000000000     00000000                                                                                                                        000000000000000000
F0010000009425100005000007225583900013552100000000000000000201611170002001JORGE LUIS NIÑO BLANCO                           D000000000014400000000000000000000100010010000000000000000000000F0019425100520161117000101 00000000000000000000000000000000000000000000000000000000000000000000000000000000000000000000000000000000000000000N 00000000000NCONT   00    00000000000          00000000000000000000000000000000000000000000 000000000000000A000000000000000000000000000000000000000000000 000000000000000000000000000000000000000     00000000                                                                                                                        000000000000000000
F0010000009425200001000007225583900011050500000000000000000201611170002001JORGE LUIS NIÑO BLANCO                           D000000002300000000000000000000000100010010000000000000000000000F0019425200120161117000101 00000000000000000000000000000000000000000000000000000000000000000000000000000000000000000000000000000000000000000N 00000000000NCONT   00    00000000000          00000000000000000000000000000000000000000000 000000000000000A000000000000000000000000000000000000000000000 000000000000000000000000000000000000000     00000000                                                                                                                        000000000000000000
F0010000009425200002000007225583900041450500000000000000000201611170002001JORGE LUIS NIÑO BLANCO                           C000000001800000000000000000000000100010010000000000000000000000F0019425200220161117000101 00000000000000000000000000000000000000000000000000000000000000000000000000000000000000000000000000000000000000000N 00000000000NCONT   00    00000000000          00000000000000000000000000000000000000000000 000000000000000A000000000000000000000000000000000000000000000 000000000000000000000000000000000000000     00000000                                                                                                                        000000000000000000
F0010000009425200003000007225583900042505000000000000000000201611170002001JORGE LUIS NIÑO BLANCO                           C000000000500000000000000000000000100010010000000000000000000000F0019425200320161117000101 00000000000000000000000000000000000000000000000000000000000000000000000000000000000000000000000000000000000000000N 00000000000NCONT   00    00000000000          00000000000000000000000000000000000000000000 000000000000000A000000000000000000000000000000000000000000000 000000000000000000000000000000000000000     00000000                                                                                                                        000000000000000000
F0010000009425200004000007225583900023658300000000000000000201611170002001JORGE LUIS NIÑO BLANCO                           C000000000014400000000000000000000100010010000000000000000000000F0019425200420161117000101 00000000000000000000000000000000000000000000000000000000000000000000000000000000000000000000000000000000000000000N 00000000000NCONT   00    00000000000          00000000000000000000000000000000000000000000 000000000000000A000000000000000000000000000000000000000000000 000000000000000000000000000000000000000     00000000                                                                                                                        000000000000000000
F0010000009425200005000007225583900013552100000000000000000201611170002001JORGE LUIS NIÑO BLANCO                           D000000000014400000000000000000000100010010000000000000000000000F0019425200520161117000101 00000000000000000000000000000000000000000000000000000000000000000000000000000000000000000000000000000000000000000N 00000000000NCONT   00    00000000000          00000000000000000000000000000000000000000000 000000000000000A000000000000000000000000000000000000000000000 000000000000000000000000000000000000000     00000000                                                                                                                        000000000000000000
F0010000009425300001000007225583900011050500000000000000000201611170002001JORGE LUIS NIÑO BLANCO                           D000000006500000000000000000000000100010010000000000000000000000F0019425300120161117000101 00000000000000000000000000000000000000000000000000000000000000000000000000000000000000000000000000000000000000000N 00000000000NCONT   00    00000000000          00000000000000000000000000000000000000000000 000000000000000A000000000000000000000000000000000000000000000 000000000000000000000000000000000000000     00000000                                                                                                                        000000000000000000
F0010000009425300002000007225583900041450500000000000000000201611170002001JORGE LUIS NIÑO BLANCO                           C000000005500000000000000000000000100010010000000000000000000000F0019425300220161117000101 00000000000000000000000000000000000000000000000000000000000000000000000000000000000000000000000000000000000000000N 00000000000NCONT   00    00000000000          00000000000000000000000000000000000000000000 000000000000000A000000000000000000000000000000000000000000000 000000000000000000000000000000000000000     00000000                                                                                                                        000000000000000000
F0010000009425300003000007225583900042505000000000000000000201611170002001JORGE LUIS NIÑO BLANCO                           C000000001000000000000000000000000100010010000000000000000000000F0019425300320161117000101 00000000000000000000000000000000000000000000000000000000000000000000000000000000000000000000000000000000000000000N 00000000000NCONT   00    00000000000          00000000000000000000000000000000000000000000 000000000000000A000000000000000000000000000000000000000000000 000000000000000000000000000000000000000     00000000                                                                                                                        000000000000000000
F0010000009425300004000007225583900023658300000000000000000201611170002001JORGE LUIS NIÑO BLANCO                           C000000000044000000000000000000000100010010000000000000000000000F0019425300420161117000101 00000000000000000000000000000000000000000000000000000000000000000000000000000000000000000000000000000000000000000N 00000000000NCONT   00    00000000000          00000000000000000000000000000000000000000000 000000000000000A000000000000000000000000000000000000000000000 000000000000000000000000000000000000000     00000000                                                                                                                        000000000000000000
F0010000009425300005000007225583900013552100000000000000000201611170002001JORGE LUIS NIÑO BLANCO                           D000000000044000000000000000000000100010010000000000000000000000F0019425300520161117000101 00000000000000000000000000000000000000000000000000000000000000000000000000000000000000000000000000000000000000000N 00000000000NCONT   00    00000000000          00000000000000000000000000000000000000000000 000000000000000A000000000000000000000000000000000000000000000 000000000000000000000000000000000000000     00000000                                                                                                                        000000000000000000
F0010000009425400001000000878369700011050500000000000000000201611170002001REYNALDO PANZA DE LA HOZ                          D000000001100000000000000000000000100010010000000000000000000000F0019425400120161117000101 00000000000000000000000000000000000000000000000000000000000000000000000000000000000000000000000000000000000000000N 00000000000NCONT   00    00000000000          00000000000000000000000000000000000000000000 000000000000000A000000000000000000000000000000000000000000000 000000000000000000000000000000000000000     00000000                                                                                                                        000000000000000000
F0010000009425400002000000878369700041450500000000000000000201611170002001REYNALDO PANZA DE LA HOZ                          C000000001000000000000000000000000100010010000000000000000000000F0019425400220161117000101 00000000000000000000000000000000000000000000000000000000000000000000000000000000000000000000000000000000000000000N 00000000000NCONT   00    00000000000          00000000000000000000000000000000000000000000 000000000000000A000000000000000000000000000000000000000000000 000000000000000000000000000000000000000     00000000                                                                                                                        000000000000000000
F0010000009425400003000000878369700042505000000000000000000201611170002001REYNALDO PANZA DE LA HOZ                          C000000000100000000000000000000000100010010000000000000000000000F0019425400320161117000101 00000000000000000000000000000000000000000000000000000000000000000000000000000000000000000000000000000000000000000N 00000000000NCONT   00    00000000000          00000000000000000000000000000000000000000000 000000000000000A000000000000000000000000000000000000000000000 000000000000000000000000000000000000000     00000000                                                                                                                        000000000000000000
F0010000009425400004000000878369700023658300000000000000000201611170002001REYNALDO PANZA DE LA HOZ                          C000000000008000000000000000000000100010010000000000000000000000F0019425400420161117000101 00000000000000000000000000000000000000000000000000000000000000000000000000000000000000000000000000000000000000000N 00000000000NCONT   00    00000000000          00000000000000000000000000000000000000000000 000000000000000A000000000000000000000000000000000000000000000 000000000000000000000000000000000000000     00000000                                                                                                                        000000000000000000
F0010000009425400005000000878369700013552100000000000000000201611170002001REYNALDO PANZA DE LA HOZ                          D000000000008000000000000000000000100010010000000000000000000000F0019425400520161117000101 00000000000000000000000000000000000000000000000000000000000000000000000000000000000000000000000000000000000000000N 00000000000NCONT   00    00000000000          00000000000000000000000000000000000000000000 000000000000000A000000000000000000000000000000000000000000000 000000000000000000000000000000000000000     00000000                                                                                                                        000000000000000000
F0010000009425500001000003263562600011050500000000000000000201611170002001LOCAL 50 - MERCEDES ARAGUREN DE CHADID (MANUEL CHAD000000004000000000000000000000000100010010000000000000000000000F0019425500120161117000101 00000000000000000000000000000000000000000000000000000000000000000000000000000000000000000000000000000000000000000N 00000000000NCONT   00    00000000000          00000000000000000000000000000000000000000000 000000000000000A000000000000000000000000000000000000000000000 000000000000000000000000000000000000000     00000000                                                                                                                        000000000000000000
F0010000009425500002000003263562600041450500000000000000000201611170002001LOCAL 50 - MERCEDES ARAGUREN DE CHADID (MANUEL CHAC000000003400000000000000000000000100010010000000000000000000000F0019425500220161117000101 00000000000000000000000000000000000000000000000000000000000000000000000000000000000000000000000000000000000000000N 00000000000NCONT   00    00000000000          00000000000000000000000000000000000000000000 000000000000000A000000000000000000000000000000000000000000000 000000000000000000000000000000000000000     00000000                                                                                                                        000000000000000000
F0010000009425500003000003263562600042505000000000000000000201611170002001LOCAL 50 - MERCEDES ARAGUREN DE CHADID (MANUEL CHAC000000000600000000000000000000000100010010000000000000000000000F0019425500320161117000101 00000000000000000000000000000000000000000000000000000000000000000000000000000000000000000000000000000000000000000N 00000000000NCONT   00    00000000000          00000000000000000000000000000000000000000000 000000000000000A000000000000000000000000000000000000000000000 000000000000000000000000000000000000000     00000000                                                                                                                        000000000000000000
F0010000009425500004000003263562600023658300000000000000000201611170002001LOCAL 50 - MERCEDES ARAGUREN DE CHADID (MANUEL CHAC000000000027200000000000000000000100010010000000000000000000000F0019425500420161117000101 00000000000000000000000000000000000000000000000000000000000000000000000000000000000000000000000000000000000000000N 00000000000NCONT   00    00000000000          00000000000000000000000000000000000000000000 000000000000000A000000000000000000000000000000000000000000000 000000000000000000000000000000000000000     00000000                                                                                                                        000000000000000000
F0010000009425500005000003263562600013552100000000000000000201611170002001LOCAL 50 - MERCEDES ARAGUREN DE CHADID (MANUEL CHAD000000000027200000000000000000000100010010000000000000000000000F0019425500520161117000101 00000000000000000000000000000000000000000000000000000000000000000000000000000000000000000000000000000000000000000N 00000000000NCONT   00    00000000000          00000000000000000000000000000000000000000000 000000000000000A000000000000000000000000000000000000000000000 000000000000000000000000000000000000000     00000000                                                                                                                        000000000000000000
F0010000009425600001000007904689600011050500000000000000000201611170002001VICTOR MANUEL BOCANEGRA RAMIREZ                   D000000002200000000000000000000000100010010000000000000000000000F0019425600120161117000101 00000000000000000000000000000000000000000000000000000000000000000000000000000000000000000000000000000000000000000N 00000000000NCONT   00    00000000000          00000000000000000000000000000000000000000000 000000000000000A000000000000000000000000000000000000000000000 000000000000000000000000000000000000000     00000000                                                                                                                        000000000000000000
F0010000009425600002000007904689600041450500000000000000000201611170002001VICTOR MANUEL BOCANEGRA RAMIREZ                   C000000002000000000000000000000000100010010000000000000000000000F0019425600220161117000101 00000000000000000000000000000000000000000000000000000000000000000000000000000000000000000000000000000000000000000N 00000000000NCONT   00    00000000000          00000000000000000000000000000000000000000000 000000000000000A000000000000000000000000000000000000000000000 000000000000000000000000000000000000000     00000000                                                                                                                        000000000000000000
F0010000009425600003000007904689600042505000000000000000000201611170002001VICTOR MANUEL BOCANEGRA RAMIREZ                   C000000000200000000000000000000000100010010000000000000000000000F0019425600320161117000101 00000000000000000000000000000000000000000000000000000000000000000000000000000000000000000000000000000000000000000N 00000000000NCONT   00    00000000000          00000000000000000000000000000000000000000000 000000000000000A000000000000000000000000000000000000000000000 000000000000000000000000000000000000000     00000000                                                                                                                        000000000000000000
F0010000009425600004000007904689600023658300000000000000000201611170002001VICTOR MANUEL BOCANEGRA RAMIREZ                   C000000000016000000000000000000000100010010000000000000000000000F0019425600420161117000101 00000000000000000000000000000000000000000000000000000000000000000000000000000000000000000000000000000000000000000N 00000000000NCONT   00    00000000000          00000000000000000000000000000000000000000000 000000000000000A000000000000000000000000000000000000000000000 000000000000000000000000000000000000000     00000000                                                                                                                        000000000000000000
F0010000009425600005000007904689600013552100000000000000000201611170002001VICTOR MANUEL BOCANEGRA RAMIREZ                   D000000000016000000000000000000000100010010000000000000000000000F0019425600520161117000101 00000000000000000000000000000000000000000000000000000000000000000000000000000000000000000000000000000000000000000N 00000000000NCONT   00    00000000000          00000000000000000000000000000000000000000000 000000000000000A000000000000000000000000000000000000000000000 000000000000000000000000000000000000000     00000000                                                                                                                        000000000000000000
F0010000009425700001000090050144800011050500000000000000000201611170002001PLASTICOS JR ASOCIADOS SAS                        D000000003500000000000000000000000100010010000000000000000000000F0019425700120161117000101 00000000000000000000000000000000000000000000000000000000000000000000000000000000000000000000000000000000000000000N 00000000000NCONT   00    00000000000          00000000000000000000000000000000000000000000 000000000000000A000000000000000000000000000000000000000000000 000000000000000000000000000000000000000     00000000                                                                                                                        000000000000000000
F0010000009425700002000090050144800041450500000000000000000201611170002001PLASTICOS JR ASOCIADOS SAS                        C000000003000000000000000000000000100010010000000000000000000000F0019425700220161117000101 00000000000000000000000000000000000000000000000000000000000000000000000000000000000000000000000000000000000000000N 00000000000NCONT   00    00000000000          00000000000000000000000000000000000000000000 000000000000000A000000000000000000000000000000000000000000000 000000000000000000000000000000000000000     00000000                                                                                                                        000000000000000000
F0010000009425700003000090050144800042505000000000000000000201611170002001PLASTICOS JR ASOCIADOS SAS                        C000000000500000000000000000000000100010010000000000000000000000F0019425700320161117000101 00000000000000000000000000000000000000000000000000000000000000000000000000000000000000000000000000000000000000000N 00000000000NCONT   00    00000000000          00000000000000000000000000000000000000000000 000000000000000A000000000000000000000000000000000000000000000 000000000000000000000000000000000000000     00000000                                                                                                                        000000000000000000
F0010000009425700004000090050144800023658300000000000000000201611170002001PLASTICOS JR ASOCIADOS SAS                        C000000000024000000000000000000000100010010000000000000000000000F0019425700420161117000101 00000000000000000000000000000000000000000000000000000000000000000000000000000000000000000000000000000000000000000N 00000000000NCONT   00    00000000000          00000000000000000000000000000000000000000000 000000000000000A000000000000000000000000000000000000000000000 000000000000000000000000000000000000000     00000000                                                                                                                        000000000000000000
F0010000009425700005000090050144800013552100000000000000000201611170002001PLASTICOS JR ASOCIADOS SAS                        D000000000024000000000000000000000100010010000000000000000000000F0019425700520161117000101 00000000000000000000000000000000000000000000000000000000000000000000000000000000000000000000000000000000000000000N 00000000000NCONT   00    00000000000          00000000000000000000000000000000000000000000 000000000000000A000000000000000000000000000000000000000000000 000000000000000000000000000000000000000     00000000                                                                                                                        000000000000000000
F0010000009425800001000090050144800011050500000000000000000201611170002001PLASTICOS JR ASOCIADOS SAS                        D000000001250000000000000000000000100010010000000000000000000000F0019425800120161117000101 00000000000000000000000000000000000000000000000000000000000000000000000000000000000000000000000000000000000000000N 00000000000NCONT   00    00000000000          00000000000000000000000000000000000000000000 000000000000000A000000000000000000000000000000000000000000000 000000000000000000000000000000000000000     00000000                                                                                                                        000000000000000000
F0010000009425800002000090050144800041450500000000000000000201611170002001PLASTICOS JR ASOCIADOS SAS                        C000000000950000000000000000000000100010010000000000000000000000F0019425800220161117000101 00000000000000000000000000000000000000000000000000000000000000000000000000000000000000000000000000000000000000000N 00000000000NCONT   00    00000000000          00000000000000000000000000000000000000000000 000000000000000A000000000000000000000000000000000000000000000 000000000000000000000000000000000000000     00000000                                                                                                                        000000000000000000
F0010000009425800003000090050144800042505000000000000000000201611170002001PLASTICOS JR ASOCIADOS SAS                        C000000000300000000000000000000000100010010000000000000000000000F0019425800320161117000101 00000000000000000000000000000000000000000000000000000000000000000000000000000000000000000000000000000000000000000N 00000000000NCONT   00    00000000000          00000000000000000000000000000000000000000000 000000000000000A000000000000000000000000000000000000000000000 000000000000000000000000000000000000000     00000000                                                                                                                        000000000000000000
F0010000009425800004000090050144800023658300000000000000000201611170002001PLASTICOS JR ASOCIADOS SAS                        C000000000007600000000000000000000100010010000000000000000000000F0019425800420161117000101 00000000000000000000000000000000000000000000000000000000000000000000000000000000000000000000000000000000000000000N 00000000000NCONT   00    00000000000          00000000000000000000000000000000000000000000 000000000000000A000000000000000000000000000000000000000000000 000000000000000000000000000000000000000     00000000                                                                                                                        000000000000000000
F0010000009425800005000090050144800013552100000000000000000201611170002001PLASTICOS JR ASOCIADOS SAS                        D000000000007600000000000000000000100010010000000000000000000000F0019425800520161117000101 00000000000000000000000000000000000000000000000000000000000000000000000000000000000000000000000000000000000000000N 00000000000NCONT   00    00000000000          00000000000000000000000000000000000000000000 000000000000000A000000000000000000000000000000000000000000000 000000000000000000000000000000000000000     00000000                                                                                                                        000000000000000000
F0010000009425900001000090050144800011050500000000000000000201611170002001PLASTICOS JR ASOCIADOS SAS                        D000000001200000000000000000000000100010010000000000000000000000F0019425900120161117000101 00000000000000000000000000000000000000000000000000000000000000000000000000000000000000000000000000000000000000000N 00000000000NCONT   00    00000000000          00000000000000000000000000000000000000000000 000000000000000A000000000000000000000000000000000000000000000 000000000000000000000000000000000000000     00000000                                                                                                                        000000000000000000
F0010000009425900002000090050144800041450500000000000000000201611170002001PLASTICOS JR ASOCIADOS SAS                        C000000000950000000000000000000000100010010000000000000000000000F0019425900220161117000101 00000000000000000000000000000000000000000000000000000000000000000000000000000000000000000000000000000000000000000N 00000000000NCONT   00    00000000000          00000000000000000000000000000000000000000000 000000000000000A000000000000000000000000000000000000000000000 000000000000000000000000000000000000000     00000000                                                                                                                        000000000000000000
F0010000009425900003000090050144800042505000000000000000000201611170002001PLASTICOS JR ASOCIADOS SAS                        C000000000250000000000000000000000100010010000000000000000000000F0019425900320161117000101 00000000000000000000000000000000000000000000000000000000000000000000000000000000000000000000000000000000000000000N 00000000000NCONT   00    00000000000          00000000000000000000000000000000000000000000 000000000000000A000000000000000000000000000000000000000000000 000000000000000000000000000000000000000     00000000                                                                                                                        000000000000000000
F0010000009425900004000090050144800023658300000000000000000201611170002001PLASTICOS JR ASOCIADOS SAS                        C000000000007600000000000000000000100010010000000000000000000000F0019425900420161117000101 00000000000000000000000000000000000000000000000000000000000000000000000000000000000000000000000000000000000000000N 00000000000NCONT   00    00000000000          00000000000000000000000000000000000000000000 000000000000000A000000000000000000000000000000000000000000000 000000000000000000000000000000000000000     00000000                                                                                                                        000000000000000000
F0010000009425900005000090050144800013552100000000000000000201611170002001PLASTICOS JR ASOCIADOS SAS                        D000000000007600000000000000000000100010010000000000000000000000F0019425900520161117000101 00000000000000000000000000000000000000000000000000000000000000000000000000000000000000000000000000000000000000000N 00000000000NCONT   00    00000000000          00000000000000000000000000000000000000000000 000000000000000A000000000000000000000000000000000000000000000 000000000000000000000000000000000000000     00000000                                                                                                                        000000000000000000
F0010000009426000001000090050144800011050500000000000000000201611170002001PLASTICOS JR ASOCIADOS SAS                        D000000001900000000000000000000000100010010000000000000000000000F0019426000120161117000101 00000000000000000000000000000000000000000000000000000000000000000000000000000000000000000000000000000000000000000N 00000000000NCONT   00    00000000000          00000000000000000000000000000000000000000000 000000000000000A000000000000000000000000000000000000000000000 000000000000000000000000000000000000000     00000000                                                                                                                        000000000000000000
F0010000009426000002000090050144800041450500000000000000000201611170002001PLASTICOS JR ASOCIADOS SAS                        C000000001800000000000000000000000100010010000000000000000000000F0019426000220161117000101 00000000000000000000000000000000000000000000000000000000000000000000000000000000000000000000000000000000000000000N 00000000000NCONT   00    00000000000          00000000000000000000000000000000000000000000 000000000000000A000000000000000000000000000000000000000000000 000000000000000000000000000000000000000     00000000                                                                                                                        000000000000000000
F0010000009426000003000090050144800042505000000000000000000201611170002001PLASTICOS JR ASOCIADOS SAS                        C000000000100000000000000000000000100010010000000000000000000000F0019426000320161117000101 00000000000000000000000000000000000000000000000000000000000000000000000000000000000000000000000000000000000000000N 00000000000NCONT   00    00000000000          00000000000000000000000000000000000000000000 000000000000000A000000000000000000000000000000000000000000000 000000000000000000000000000000000000000     00000000                                                                                                                        000000000000000000
F0010000009426000004000090050144800023658300000000000000000201611170002001PLASTICOS JR ASOCIADOS SAS                        C000000000014400000000000000000000100010010000000000000000000000F0019426000420161117000101 00000000000000000000000000000000000000000000000000000000000000000000000000000000000000000000000000000000000000000N 00000000000NCONT   00    00000000000          00000000000000000000000000000000000000000000 000000000000000A000000000000000000000000000000000000000000000 000000000000000000000000000000000000000     00000000                                                                                                                        000000000000000000
F0010000009426000005000090050144800013552100000000000000000201611170002001PLASTICOS JR ASOCIADOS SAS                        D000000000014400000000000000000000100010010000000000000000000000F0019426000520161117000101 00000000000000000000000000000000000000000000000000000000000000000000000000000000000000000000000000000000000000000N 00000000000NCONT   00    00000000000          00000000000000000000000000000000000000000000 000000000000000A000000000000000000000000000000000000000000000 000000000000000000000000000000000000000     00000000                                                                                                                        000000000000000000
F0010000009426100001000000908086400011050500000000000000000201611170002001JOSE DEL CRISTO SANES FERNANDEZ                   D000000022000000000000000000000000100010010000000000000000000000F0019426100120161117000101 00000000000000000000000000000000000000000000000000000000000000000000000000000000000000000000000000000000000000000N 00000000000NCONT   00    00000000000          00000000000000000000000000000000000000000000 000000000000000A000000000000000000000000000000000000000000000 000000000000000000000000000000000000000     00000000                                                                                                                        000000000000000000
F0010000009426100002000000908086400041450500000000000000000201611170002001JOSE DEL CRISTO SANES FERNANDEZ                   C000000020000000000000000000000000100010010000000000000000000000F0019426100220161117000101 00000000000000000000000000000000000000000000000000000000000000000000000000000000000000000000000000000000000000000N 00000000000NCONT   00    00000000000          00000000000000000000000000000000000000000000 000000000000000A000000000000000000000000000000000000000000000 000000000000000000000000000000000000000     00000000                                                                                                                        000000000000000000
F0010000009426100003000000908086400042505000000000000000000201611170002001JOSE DEL CRISTO SANES FERNANDEZ                   C000000002000000000000000000000000100010010000000000000000000000F0019426100320161117000101 00000000000000000000000000000000000000000000000000000000000000000000000000000000000000000000000000000000000000000N 00000000000NCONT   00    00000000000          00000000000000000000000000000000000000000000 000000000000000A000000000000000000000000000000000000000000000 000000000000000000000000000000000000000     00000000                                                                                                                        000000000000000000
F0010000009426100004000000908086400023658300000000000000000201611170002001JOSE DEL CRISTO SANES FERNANDEZ                   C000000000160000000000000000000000100010010000000000000000000000F0019426100420161117000101 00000000000000000000000000000000000000000000000000000000000000000000000000000000000000000000000000000000000000000N 00000000000NCONT   00    00000000000          00000000000000000000000000000000000000000000 000000000000000A000000000000000000000000000000000000000000000 000000000000000000000000000000000000000     00000000                                                                                                                        000000000000000000
F0010000009426100005000000908086400013552100000000000000000201611170002001JOSE DEL CRISTO SANES FERNANDEZ                   D000000000160000000000000000000000100010010000000000000000000000F0019426100520161117000101 00000000000000000000000000000000000000000000000000000000000000000000000000000000000000000000000000000000000000000N 00000000000NCONT   00    00000000000          00000000000000000000000000000000000000000000 000000000000000A000000000000000000000000000000000000000000000 000000000000000000000000000000000000000     00000000                                                                                                                        000000000000000000
F0010000009426200001000000908086400011050500000000000000000201611170002001JOSE DEL CRISTO SANES FERNANDEZ                   D000000002600000000000000000000000100010010000000000000000000000F0019426200120161117000101 00000000000000000000000000000000000000000000000000000000000000000000000000000000000000000000000000000000000000000N 00000000000NCONT   00    00000000000          00000000000000000000000000000000000000000000 000000000000000A000000000000000000000000000000000000000000000 000000000000000000000000000000000000000     00000000                                                                                                                        000000000000000000
F0010000009426200002000000908086400041450500000000000000000201611170002001JOSE DEL CRISTO SANES FERNANDEZ                   C000000002000000000000000000000000100010010000000000000000000000F0019426200220161117000101 00000000000000000000000000000000000000000000000000000000000000000000000000000000000000000000000000000000000000000N 00000000000NCONT   00    00000000000          00000000000000000000000000000000000000000000 000000000000000A000000000000000000000000000000000000000000000 000000000000000000000000000000000000000     00000000                                                                                                                        000000000000000000
F0010000009426200003000000908086400042505000000000000000000201611170002001JOSE DEL CRISTO SANES FERNANDEZ                   C000000000600000000000000000000000100010010000000000000000000000F0019426200320161117000101 00000000000000000000000000000000000000000000000000000000000000000000000000000000000000000000000000000000000000000N 00000000000NCONT   00    00000000000          00000000000000000000000000000000000000000000 000000000000000A000000000000000000000000000000000000000000000 000000000000000000000000000000000000000     00000000                                                                                                                        000000000000000000
F0010000009426200004000000908086400023658300000000000000000201611170002001JOSE DEL CRISTO SANES FERNANDEZ                   C000000000016000000000000000000000100010010000000000000000000000F0019426200420161117000101 00000000000000000000000000000000000000000000000000000000000000000000000000000000000000000000000000000000000000000N 00000000000NCONT   00    00000000000          00000000000000000000000000000000000000000000 000000000000000A000000000000000000000000000000000000000000000 000000000000000000000000000000000000000     00000000                                                                                                                        000000000000000000
F0010000009426200005000000908086400013552100000000000000000201611170002001JOSE DEL CRISTO SANES FERNANDEZ                   D000000000016000000000000000000000100010010000000000000000000000F0019426200520161117000101 00000000000000000000000000000000000000000000000000000000000000000000000000000000000000000000000000000000000000000N 00000000000NCONT   00    00000000000          00000000000000000000000000000000000000000000 000000000000000A000000000000000000000000000000000000000000000 000000000000000000000000000000000000000     00000000                                                                                                                        000000000000000000
F0010000009426300001000000431178400011050500000000000000000201611170002001EFRAIN ALVAREZ                                    D000000000460000000000000000000000100010010000000000000000000000F0019426300120161117000101 00000000000000000000000000000000000000000000000000000000000000000000000000000000000000000000000000000000000000000N 00000000000NCONT   00    00000000000          00000000000000000000000000000000000000000000 000000000000000A000000000000000000000000000000000000000000000 000000000000000000000000000000000000000     00000000                                                                                                                        000000000000000000
F0010000009426300002000000431178400041450500000000000000000201611170002001EFRAIN ALVAREZ                                    C000000000410000000000000000000000100010010000000000000000000000F0019426300220161117000101 00000000000000000000000000000000000000000000000000000000000000000000000000000000000000000000000000000000000000000N 00000000000NCONT   00    00000000000          00000000000000000000000000000000000000000000 000000000000000A000000000000000000000000000000000000000000000 000000000000000000000000000000000000000     00000000                                                                                                                        000000000000000000
F0010000009426300003000000431178400042505000000000000000000201611170002001EFRAIN ALVAREZ                                    C000000000050000000000000000000000100010010000000000000000000000F0019426300320161117000101 00000000000000000000000000000000000000000000000000000000000000000000000000000000000000000000000000000000000000000N 00000000000NCONT   00    00000000000          00000000000000000000000000000000000000000000 000000000000000A000000000000000000000000000000000000000000000 000000000000000000000000000000000000000     00000000                                                                                                                        000000000000000000
F0010000009426300004000000431178400023658300000000000000000201611170002001EFRAIN ALVAREZ                                    C000000000003300000000000000000000100010010000000000000000000000F0019426300420161117000101 00000000000000000000000000000000000000000000000000000000000000000000000000000000000000000000000000000000000000000N 00000000000NCONT   00    00000000000          00000000000000000000000000000000000000000000 000000000000000A000000000000000000000000000000000000000000000 000000000000000000000000000000000000000     00000000                                                                                                                        000000000000000000
F0010000009426300005000000431178400013552100000000000000000201611170002001EFRAIN ALVAREZ                                    D000000000003300000000000000000000100010010000000000000000000000F0019426300520161117000101 00000000000000000000000000000000000000000000000000000000000000000000000000000000000000000000000000000000000000000N 00000000000NCONT   00    00000000000          00000000000000000000000000000000000000000000 000000000000000A000000000000000000000000000000000000000000000 000000000000000000000000000000000000000     00000000                                                                                                                        000000000000000000
F0010000009426400001000000431178400011050500000000000000000201611170002001EFRAIN ALVAREZ                                    D000000004110000000000000000000000100010010000000000000000000000F0019426400120161117000101 00000000000000000000000000000000000000000000000000000000000000000000000000000000000000000000000000000000000000000N 00000000000NCONT   00    00000000000          00000000000000000000000000000000000000000000 000000000000000A000000000000000000000000000000000000000000000 000000000000000000000000000000000000000     00000000                                                                                                                        000000000000000000
F0010000009426400002000000431178400041450500000000000000000201611170002001EFRAIN ALVAREZ                                    C000000003860000000000000000000000100010010000000000000000000000F0019426400220161117000101 00000000000000000000000000000000000000000000000000000000000000000000000000000000000000000000000000000000000000000N 00000000000NCONT   00    00000000000          00000000000000000000000000000000000000000000 000000000000000A000000000000000000000000000000000000000000000 000000000000000000000000000000000000000     00000000                                                                                                                        000000000000000000
F0010000009426400003000000431178400042505000000000000000000201611170002001EFRAIN ALVAREZ                                    C000000000250000000000000000000000100010010000000000000000000000F0019426400320161117000101 00000000000000000000000000000000000000000000000000000000000000000000000000000000000000000000000000000000000000000N 00000000000NCONT   00    00000000000          00000000000000000000000000000000000000000000 000000000000000A000000000000000000000000000000000000000000000 000000000000000000000000000000000000000     00000000                                                                                                                        000000000000000000
F0010000009426400004000000431178400023658300000000000000000201611170002001EFRAIN ALVAREZ                                    C000000000030900000000000000000000100010010000000000000000000000F0019426400420161117000101 00000000000000000000000000000000000000000000000000000000000000000000000000000000000000000000000000000000000000000N 00000000000NCONT   00    00000000000          00000000000000000000000000000000000000000000 000000000000000A000000000000000000000000000000000000000000000 000000000000000000000000000000000000000     00000000                                                                                                                        000000000000000000
F0010000009426400005000000431178400013552100000000000000000201611170002001EFRAIN ALVAREZ                                    D000000000030900000000000000000000100010010000000000000000000000F0019426400520161117000101 00000000000000000000000000000000000000000000000000000000000000000000000000000000000000000000000000000000000000000N 00000000000NCONT   00    00000000000          00000000000000000000000000000000000000000000 000000000000000A000000000000000000000000000000000000000000000 000000000000000000000000000000000000000     00000000                                                                                                                        000000000000000000
F0010000009426500001000002245670100011050500000000000000000201611170002001YOLANDA  TOBON                                    D000000001257100000000000000000000100010010000000000000000000000F0019426500120161117000101 00000000000000000000000000000000000000000000000000000000000000000000000000000000000000000000000000000000000000000N 00000000000NCONT   00    00000000000          00000000000000000000000000000000000000000000 000000000000000A000000000000000000000000000000000000000000000 000000000000000000000000000000000000000     00000000                                                                                                                        000000000000000000
F0010000009426500002000002245670100041450500000000000000000201611170002001YOLANDA  TOBON                                    C000000001050000000000000000000000100010010000000000000000000000F0019426500220161117000101 00000000000000000000000000000000000000000000000000000000000000000000000000000000000000000000000000000000000000000N 00000000000NCONT   00    00000000000          00000000000000000000000000000000000000000000 000000000000000A000000000000000000000000000000000000000000000 000000000000000000000000000000000000000     00000000                                                                                                                        000000000000000000
F0010000009426500003000002245670100042505000000000000000000201611170002001YOLANDA  TOBON                                    C000000000207100000000000000000000100010010000000000000000000000F0019426500320161117000101 00000000000000000000000000000000000000000000000000000000000000000000000000000000000000000000000000000000000000000N 00000000000NCONT   00    00000000000          00000000000000000000000000000000000000000000 000000000000000A000000000000000000000000000000000000000000000 000000000000000000000000000000000000000     00000000                                                                                                                        000000000000000000
F0010000009426500004000002245670100023658300000000000000000201611170002001YOLANDA  TOBON                                    C000000000008400000000000000000000100010010000000000000000000000F0019426500420161117000101 00000000000000000000000000000000000000000000000000000000000000000000000000000000000000000000000000000000000000000N 00000000000NCONT   00    00000000000          00000000000000000000000000000000000000000000 000000000000000A000000000000000000000000000000000000000000000 000000000000000000000000000000000000000     00000000                                                                                                                        000000000000000000
F0010000009426500005000002245670100013552100000000000000000201611170002001YOLANDA  TOBON                                    D000000000008400000000000000000000100010010000000000000000000000F0019426500520161117000101 00000000000000000000000000000000000000000000000000000000000000000000000000000000000000000000000000000000000000000N 00000000000NCONT   00    00000000000          00000000000000000000000000000000000000000000 000000000000000A000000000000000000000000000000000000000000000 000000000000000000000000000000000000000     00000000                                                                                                                        000000000000000000
F0010000009426600001000002245670100011050500000000000000000201611170002001YOLANDA  TOBON                                    D000000012886700000000000000000000100010010000000000000000000000F0019426600120161117000101 00000000000000000000000000000000000000000000000000000000000000000000000000000000000000000000000000000000000000000N 00000000000NCONT   00    00000000000          00000000000000000000000000000000000000000000 000000000000000A000000000000000000000000000000000000000000000 000000000000000000000000000000000000000     00000000                                                                                                                        000000000000000000
F0010000009426600002000002245670100041450500000000000000000201611170002001YOLANDA  TOBON                                    C000000009770000000000000000000000100010010000000000000000000000F0019426600220161117000101 00000000000000000000000000000000000000000000000000000000000000000000000000000000000000000000000000000000000000000N 00000000000NCONT   00    00000000000          00000000000000000000000000000000000000000000 000000000000000A000000000000000000000000000000000000000000000 000000000000000000000000000000000000000     00000000                                                                                                                        000000000000000000
F0010000009426600003000002245670100042505000000000000000000201611170002001YOLANDA  TOBON                                    C000000003116700000000000000000000100010010000000000000000000000F0019426600320161117000101 00000000000000000000000000000000000000000000000000000000000000000000000000000000000000000000000000000000000000000N 00000000000NCONT   00    00000000000          00000000000000000000000000000000000000000000 000000000000000A000000000000000000000000000000000000000000000 000000000000000000000000000000000000000     00000000                                                                                                                        000000000000000000
F0010000009426600004000002245670100023658300000000000000000201611170002001YOLANDA  TOBON                                    C000000000078200000000000000000000100010010000000000000000000000F0019426600420161117000101 00000000000000000000000000000000000000000000000000000000000000000000000000000000000000000000000000000000000000000N 00000000000NCONT   00    00000000000          00000000000000000000000000000000000000000000 000000000000000A000000000000000000000000000000000000000000000 000000000000000000000000000000000000000     00000000                                                                                                                        000000000000000000
F0010000009426600005000002245670100013552100000000000000000201611170002001YOLANDA  TOBON                                    D000000000078200000000000000000000100010010000000000000000000000F0019426600520161117000101 00000000000000000000000000000000000000000000000000000000000000000000000000000000000000000000000000000000000000000N 00000000000NCONT   00    00000000000          00000000000000000000000000000000000000000000 000000000000000A000000000000000000000000000000000000000000000 000000000000000000000000000000000000000     00000000                                                                                                                        000000000000000000
F0010000009426700001000086000061500011050500000000000000000201611170002001DISTRIBUIDORA CORDOBA                             D000000004000000000000000000000000100010010000000000000000000000F0019426700120161117000101 00000000000000000000000000000000000000000000000000000000000000000000000000000000000000000000000000000000000000000N 00000000000NCONT   00    00000000000          00000000000000000000000000000000000000000000 000000000000000A000000000000000000000000000000000000000000000 000000000000000000000000000000000000000     00000000                                                                                                                        000000000000000000
F0010000009426700002000086000061500041450500000000000000000201611170002001DISTRIBUIDORA CORDOBA                             C000000003700000000000000000000000100010010000000000000000000000F0019426700220161117000101 00000000000000000000000000000000000000000000000000000000000000000000000000000000000000000000000000000000000000000N 00000000000NCONT   00    00000000000          00000000000000000000000000000000000000000000 000000000000000A000000000000000000000000000000000000000000000 000000000000000000000000000000000000000     00000000                                                                                                                        000000000000000000
F0010000009426700003000086000061500042505000000000000000000201611170002001DISTRIBUIDORA CORDOBA                             C000000000300000000000000000000000100010010000000000000000000000F0019426700320161117000101 00000000000000000000000000000000000000000000000000000000000000000000000000000000000000000000000000000000000000000N 00000000000NCONT   00    00000000000          00000000000000000000000000000000000000000000 000000000000000A000000000000000000000000000000000000000000000 000000000000000000000000000000000000000     00000000                                                                                                                        000000000000000000
F0010000009426700004000086000061500023658300000000000000000201611170002001DISTRIBUIDORA CORDOBA                             C000000000029600000000000000000000100010010000000000000000000000F0019426700420161117000101 00000000000000000000000000000000000000000000000000000000000000000000000000000000000000000000000000000000000000000N 00000000000NCONT   00    00000000000          00000000000000000000000000000000000000000000 000000000000000A000000000000000000000000000000000000000000000 000000000000000000000000000000000000000     00000000                                                                                                                        000000000000000000
F0010000009426700005000086000061500013552100000000000000000201611170002001DISTRIBUIDORA CORDOBA                             D000000000029600000000000000000000100010010000000000000000000000F0019426700520161117000101 00000000000000000000000000000000000000000000000000000000000000000000000000000000000000000000000000000000000000000N 00000000000NCONT   00    00000000000          00000000000000000000000000000000000000000000 000000000000000A000000000000000000000000000000000000000000000 000000000000000000000000000000000000000     00000000                                                                                                                        000000000000000000
F0010000009426800001000086000061500011050500000000000000000201611170002001DISTRIBUIDORA CORDOBA                             D000000011000000000000000000000000100010010000000000000000000000F0019426800120161117000101 00000000000000000000000000000000000000000000000000000000000000000000000000000000000000000000000000000000000000000N 00000000000NCONT   00    00000000000          00000000000000000000000000000000000000000000 000000000000000A000000000000000000000000000000000000000000000 000000000000000000000000000000000000000     00000000                                                                                                                        000000000000000000
F0010000009426800002000086000061500041450500000000000000000201611170002001DISTRIBUIDORA CORDOBA                             C000000009200000000000000000000000100010010000000000000000000000F0019426800220161117000101 00000000000000000000000000000000000000000000000000000000000000000000000000000000000000000000000000000000000000000N 00000000000NCONT   00    00000000000          00000000000000000000000000000000000000000000 000000000000000A000000000000000000000000000000000000000000000 000000000000000000000000000000000000000     00000000                                                                                                                        000000000000000000
F0010000009426800003000086000061500042505000000000000000000201611170002001DISTRIBUIDORA CORDOBA                             C000000001800000000000000000000000100010010000000000000000000000F0019426800320161117000101 00000000000000000000000000000000000000000000000000000000000000000000000000000000000000000000000000000000000000000N 00000000000NCONT   00    00000000000          00000000000000000000000000000000000000000000 000000000000000A000000000000000000000000000000000000000000000 000000000000000000000000000000000000000     00000000                                                                                                                        000000000000000000
F0010000009426800004000086000061500023658300000000000000000201611170002001DISTRIBUIDORA CORDOBA                             C000000000073600000000000000000000100010010000000000000000000000F0019426800420161117000101 00000000000000000000000000000000000000000000000000000000000000000000000000000000000000000000000000000000000000000N 00000000000NCONT   00    00000000000          00000000000000000000000000000000000000000000 000000000000000A000000000000000000000000000000000000000000000 000000000000000000000000000000000000000     00000000                                                                                                                        000000000000000000
F0010000009426800005000086000061500013552100000000000000000201611170002001DISTRIBUIDORA CORDOBA                             D000000000073600000000000000000000100010010000000000000000000000F0019426800520161117000101 00000000000000000000000000000000000000000000000000000000000000000000000000000000000000000000000000000000000000000N 00000000000NCONT   00    00000000000          00000000000000000000000000000000000000000000 000000000000000A000000000000000000000000000000000000000000000 000000000000000000000000000000000000000     00000000                                                                                                                        000000000000000000
F0010000009426900001000001719393900011050500000000000000000201611170002001JAIRO BASTIDAS RAMIREZ                            D000000014100000000000000000000000100010010000000000000000000000F0019426900120161117000101 00000000000000000000000000000000000000000000000000000000000000000000000000000000000000000000000000000000000000000N 00000000000NCONT   00    00000000000          00000000000000000000000000000000000000000000 000000000000000A000000000000000000000000000000000000000000000 000000000000000000000000000000000000000     00000000                                                                                                                        000000000000000000
F0010000009426900002000001719393900041450500000000000000000201611170002001JAIRO BASTIDAS RAMIREZ                            C000000013200000000000000000000000100010010000000000000000000000F0019426900220161117000101 00000000000000000000000000000000000000000000000000000000000000000000000000000000000000000000000000000000000000000N 00000000000NCONT   00    00000000000          00000000000000000000000000000000000000000000 000000000000000A000000000000000000000000000000000000000000000 000000000000000000000000000000000000000     00000000                                                                                                                        000000000000000000
F0010000009426900003000001719393900042505000000000000000000201611170002001JAIRO BASTIDAS RAMIREZ                            C000000000900000000000000000000000100010010000000000000000000000F0019426900320161117000101 00000000000000000000000000000000000000000000000000000000000000000000000000000000000000000000000000000000000000000N 00000000000NCONT   00    00000000000          00000000000000000000000000000000000000000000 000000000000000A000000000000000000000000000000000000000000000 000000000000000000000000000000000000000     00000000                                                                                                                        000000000000000000
F0010000009426900004000001719393900023658300000000000000000201611170002001JAIRO BASTIDAS RAMIREZ                            C000000000105600000000000000000000100010010000000000000000000000F0019426900420161117000101 00000000000000000000000000000000000000000000000000000000000000000000000000000000000000000000000000000000000000000N 00000000000NCONT   00    00000000000          00000000000000000000000000000000000000000000 000000000000000A000000000000000000000000000000000000000000000 000000000000000000000000000000000000000     00000000                                                                                                                        000000000000000000
F0010000009426900005000001719393900013552100000000000000000201611170002001JAIRO BASTIDAS RAMIREZ                            D000000000105600000000000000000000100010010000000000000000000000F0019426900520161117000101 00000000000000000000000000000000000000000000000000000000000000000000000000000000000000000000000000000000000000000N 00000000000NCONT   00    00000000000          00000000000000000000000000000000000000000000 000000000000000A000000000000000000000000000000000000000000000 000000000000000000000000000000000000000     00000000                                                                                                                        000000000000000000
F0010000009427000001000090087846000011050500000000000000000201611170002001INTERCOMERCIAL DL SAS                             D000000001900000000000000000000000100010010000000000000000000000F0019427000120161117000101 00000000000000000000000000000000000000000000000000000000000000000000000000000000000000000000000000000000000000000N 00000000000NCONT   00    00000000000          00000000000000000000000000000000000000000000 000000000000000A000000000000000000000000000000000000000000000 000000000000000000000000000000000000000     00000000                                                                                                                        000000000000000000
F0010000009427000002000090087846000041450500000000000000000201611170002001INTERCOMERCIAL DL SAS                             C000000001800000000000000000000000100010010000000000000000000000F0019427000220161117000101 00000000000000000000000000000000000000000000000000000000000000000000000000000000000000000000000000000000000000000N 00000000000NCONT   00    00000000000          00000000000000000000000000000000000000000000 000000000000000A000000000000000000000000000000000000000000000 000000000000000000000000000000000000000     00000000                                                                                                                        000000000000000000
F0010000009427000003000090087846000042505000000000000000000201611170002001INTERCOMERCIAL DL SAS                             C000000000100000000000000000000000100010010000000000000000000000F0019427000320161117000101 00000000000000000000000000000000000000000000000000000000000000000000000000000000000000000000000000000000000000000N 00000000000NCONT   00    00000000000          00000000000000000000000000000000000000000000 000000000000000A000000000000000000000000000000000000000000000 000000000000000000000000000000000000000     00000000                                                                                                                        000000000000000000
F0010000009427000004000090087846000023658300000000000000000201611170002001INTERCOMERCIAL DL SAS                             C000000000014400000000000000000000100010010000000000000000000000F0019427000420161117000101 00000000000000000000000000000000000000000000000000000000000000000000000000000000000000000000000000000000000000000N 00000000000NCONT   00    00000000000          00000000000000000000000000000000000000000000 000000000000000A000000000000000000000000000000000000000000000 000000000000000000000000000000000000000     00000000                                                                                                                        000000000000000000
F0010000009427000005000090087846000013552100000000000000000201611170002001INTERCOMERCIAL DL SAS                             D000000000014400000000000000000000100010010000000000000000000000F0019427000520161117000101 00000000000000000000000000000000000000000000000000000000000000000000000000000000000000000000000000000000000000000N 00000000000NCONT   00    00000000000          00000000000000000000000000000000000000000000 000000000000000A000000000000000000000000000000000000000000000 000000000000000000000000000000000000000     00000000                                                                                                                        000000000000000000
F0010000009427100001000090087846000011050500000000000000000201611170002001INTERCOMERCIAL DL SAS                             D000000002700000000000000000000000100010010000000000000000000000F0019427100120161117000101 00000000000000000000000000000000000000000000000000000000000000000000000000000000000000000000000000000000000000000N 00000000000NCONT   00    00000000000          00000000000000000000000000000000000000000000 000000000000000A000000000000000000000000000000000000000000000 000000000000000000000000000000000000000     00000000                                                                                                                        000000000000000000
F0010000009427100002000090087846000041450500000000000000000201611170002001INTERCOMERCIAL DL SAS                             C000000002600000000000000000000000100010010000000000000000000000F0019427100220161117000101 00000000000000000000000000000000000000000000000000000000000000000000000000000000000000000000000000000000000000000N 00000000000NCONT   00    00000000000          00000000000000000000000000000000000000000000 000000000000000A000000000000000000000000000000000000000000000 000000000000000000000000000000000000000     00000000                                                                                                                        000000000000000000
F0010000009427100003000090087846000042505000000000000000000201611170002001INTERCOMERCIAL DL SAS                             C000000000100000000000000000000000100010010000000000000000000000F0019427100320161117000101 00000000000000000000000000000000000000000000000000000000000000000000000000000000000000000000000000000000000000000N 00000000000NCONT   00    00000000000          00000000000000000000000000000000000000000000 000000000000000A000000000000000000000000000000000000000000000 000000000000000000000000000000000000000     00000000                                                                                                                        000000000000000000
F0010000009427100004000090087846000023658300000000000000000201611170002001INTERCOMERCIAL DL SAS                             C000000000020800000000000000000000100010010000000000000000000000F0019427100420161117000101 00000000000000000000000000000000000000000000000000000000000000000000000000000000000000000000000000000000000000000N 00000000000NCONT   00    00000000000          00000000000000000000000000000000000000000000 000000000000000A000000000000000000000000000000000000000000000 000000000000000000000000000000000000000     00000000                                                                                                                        000000000000000000
F0010000009427100005000090087846000013552100000000000000000201611170002001INTERCOMERCIAL DL SAS                             D000000000020800000000000000000000100010010000000000000000000000F0019427100520161117000101 00000000000000000000000000000000000000000000000000000000000000000000000000000000000000000000000000000000000000000N 00000000000NCONT   00    00000000000          00000000000000000000000000000000000000000000 000000000000000A000000000000000000000000000000000000000000000 000000000000000000000000000000000000000     00000000                                                                                                                        000000000000000000
F0010000009427200001000090087846000011050500000000000000000201611170002001INTERCOMERCIAL DL SAS                             D000000004600000000000000000000000100010010000000000000000000000F0019427200120161117000101 00000000000000000000000000000000000000000000000000000000000000000000000000000000000000000000000000000000000000000N 00000000000NCONT   00    00000000000          00000000000000000000000000000000000000000000 000000000000000A000000000000000000000000000000000000000000000 000000000000000000000000000000000000000     00000000                                                                                                                        000000000000000000
F0010000009427200002000090087846000041450500000000000000000201611170002001INTERCOMERCIAL DL SAS                             C000000004500000000000000000000000100010010000000000000000000000F0019427200220161117000101 00000000000000000000000000000000000000000000000000000000000000000000000000000000000000000000000000000000000000000N 00000000000NCONT   00    00000000000          00000000000000000000000000000000000000000000 000000000000000A000000000000000000000000000000000000000000000 000000000000000000000000000000000000000     00000000                                                                                                                        000000000000000000
F0010000009427200003000090087846000042505000000000000000000201611170002001INTERCOMERCIAL DL SAS                             C000000000100000000000000000000000100010010000000000000000000000F0019427200320161117000101 00000000000000000000000000000000000000000000000000000000000000000000000000000000000000000000000000000000000000000N 00000000000NCONT   00    00000000000          00000000000000000000000000000000000000000000 000000000000000A000000000000000000000000000000000000000000000 000000000000000000000000000000000000000     00000000                                                                                                                        000000000000000000
F0010000009427200004000090087846000023658300000000000000000201611170002001INTERCOMERCIAL DL SAS                             C000000000036000000000000000000000100010010000000000000000000000F0019427200420161117000101 00000000000000000000000000000000000000000000000000000000000000000000000000000000000000000000000000000000000000000N 00000000000NCONT   00    00000000000          00000000000000000000000000000000000000000000 000000000000000A000000000000000000000000000000000000000000000 000000000000000000000000000000000000000     00000000                                                                                                                        000000000000000000
F0010000009427200005000090087846000013552100000000000000000201611170002001INTERCOMERCIAL DL SAS                             D000000000036000000000000000000000100010010000000000000000000000F0019427200520161117000101 00000000000000000000000000000000000000000000000000000000000000000000000000000000000000000000000000000000000000000N 00000000000NCONT   00    00000000000          00000000000000000000000000000000000000000000 000000000000000A000000000000000000000000000000000000000000000 000000000000000000000000000000000000000     00000000                                                                                                                        000000000000000000
F0010000009427300001000090087846000011050500000000000000000201611170002001INTERCOMERCIAL DL SAS                             D000000001900000000000000000000000100010010000000000000000000000F0019427300120161117000101 00000000000000000000000000000000000000000000000000000000000000000000000000000000000000000000000000000000000000000N 00000000000NCONT   00    00000000000          00000000000000000000000000000000000000000000 000000000000000A000000000000000000000000000000000000000000000 000000000000000000000000000000000000000     00000000                                                                                                                        000000000000000000
F0010000009427300002000090087846000041450500000000000000000201611170002001INTERCOMERCIAL DL SAS                             C000000001800000000000000000000000100010010000000000000000000000F0019427300220161117000101 00000000000000000000000000000000000000000000000000000000000000000000000000000000000000000000000000000000000000000N 00000000000NCONT   00    00000000000          00000000000000000000000000000000000000000000 000000000000000A000000000000000000000000000000000000000000000 000000000000000000000000000000000000000     00000000                                                                                                                        000000000000000000
F0010000009427300003000090087846000042505000000000000000000201611170002001INTERCOMERCIAL DL SAS                             C000000000100000000000000000000000100010010000000000000000000000F0019427300320161117000101 00000000000000000000000000000000000000000000000000000000000000000000000000000000000000000000000000000000000000000N 00000000000NCONT   00    00000000000          00000000000000000000000000000000000000000000 000000000000000A000000000000000000000000000000000000000000000 000000000000000000000000000000000000000     00000000                                                                                                                        000000000000000000
F0010000009427300004000090087846000023658300000000000000000201611170002001INTERCOMERCIAL DL SAS                             C000000000014400000000000000000000100010010000000000000000000000F0019427300420161117000101 00000000000000000000000000000000000000000000000000000000000000000000000000000000000000000000000000000000000000000N 00000000000NCONT   00    00000000000          00000000000000000000000000000000000000000000 000000000000000A000000000000000000000000000000000000000000000 000000000000000000000000000000000000000     00000000                                                                                                                        000000000000000000
F0010000009427300005000090087846000013552100000000000000000201611170002001INTERCOMERCIAL DL SAS                             D000000000014400000000000000000000100010010000000000000000000000F0019427300520161117000101 00000000000000000000000000000000000000000000000000000000000000000000000000000000000000000000000000000000000000000N 00000000000NCONT   00    00000000000          00000000000000000000000000000000000000000000 000000000000000A000000000000000000000000000000000000000000000 000000000000000000000000000000000000000     00000000                                                                                                                        000000000000000000
F0010000009427400001000007231201900011050500000000000000000201611170002001ALMACEN LOS PRINCIPES                             D000000001100000000000000000000000100010010000000000000000000000F0019427400120161117000101 00000000000000000000000000000000000000000000000000000000000000000000000000000000000000000000000000000000000000000N 00000000000NCONT   00    00000000000          00000000000000000000000000000000000000000000 000000000000000A000000000000000000000000000000000000000000000 000000000000000000000000000000000000000     00000000                                                                                                                        000000000000000000
F0010000009427400002000007231201900041450500000000000000000201611170002001ALMACEN LOS PRINCIPES                             C000000001000000000000000000000000100010010000000000000000000000F0019427400220161117000101 00000000000000000000000000000000000000000000000000000000000000000000000000000000000000000000000000000000000000000N 00000000000NCONT   00    00000000000          00000000000000000000000000000000000000000000 000000000000000A000000000000000000000000000000000000000000000 000000000000000000000000000000000000000     00000000                                                                                                                        000000000000000000
F0010000009427400003000007231201900042505000000000000000000201611170002001ALMACEN LOS PRINCIPES                             C000000000100000000000000000000000100010010000000000000000000000F0019427400320161117000101 00000000000000000000000000000000000000000000000000000000000000000000000000000000000000000000000000000000000000000N 00000000000NCONT   00    00000000000          00000000000000000000000000000000000000000000 000000000000000A000000000000000000000000000000000000000000000 000000000000000000000000000000000000000     00000000                                                                                                                        000000000000000000
F0010000009427400004000007231201900023658300000000000000000201611170002001ALMACEN LOS PRINCIPES                             C000000000008000000000000000000000100010010000000000000000000000F0019427400420161117000101 00000000000000000000000000000000000000000000000000000000000000000000000000000000000000000000000000000000000000000N 00000000000NCONT   00    00000000000          00000000000000000000000000000000000000000000 000000000000000A000000000000000000000000000000000000000000000 000000000000000000000000000000000000000     00000000                                                                                                                        000000000000000000
F0010000009427400005000007231201900013552100000000000000000201611170002001ALMACEN LOS PRINCIPES                             D000000000008000000000000000000000100010010000000000000000000000F0019427400520161117000101 00000000000000000000000000000000000000000000000000000000000000000000000000000000000000000000000000000000000000000N 00000000000NCONT   00    00000000000          00000000000000000000000000000000000000000000 000000000000000A000000000000000000000000000000000000000000000 000000000000000000000000000000000000000     00000000                                                                                                                        000000000000000000
F0010000009427500001000004175790100011050500000000000000000201611170002001ROSIRIS FERIA HOYOS  (COSM. SHILLER)              D000000002500000000000000000000000100010010000000000000000000000F0019427500120161117000101 00000000000000000000000000000000000000000000000000000000000000000000000000000000000000000000000000000000000000000N 00000000000NCONT   00    00000000000          00000000000000000000000000000000000000000000 000000000000000A000000000000000000000000000000000000000000000 000000000000000000000000000000000000000     00000000                                                                                                                        000000000000000000
F0010000009427500002000004175790100041450500000000000000000201611170002001ROSIRIS FERIA HOYOS  (COSM. SHILLER)              C000000002400000000000000000000000100010010000000000000000000000F0019427500220161117000101 00000000000000000000000000000000000000000000000000000000000000000000000000000000000000000000000000000000000000000N 00000000000NCONT   00    00000000000          00000000000000000000000000000000000000000000 000000000000000A000000000000000000000000000000000000000000000 000000000000000000000000000000000000000     00000000                                                                                                                        000000000000000000
F0010000009427500003000004175790100042505000000000000000000201611170002001ROSIRIS FERIA HOYOS  (COSM. SHILLER)              C000000000100000000000000000000000100010010000000000000000000000F0019427500320161117000101 00000000000000000000000000000000000000000000000000000000000000000000000000000000000000000000000000000000000000000N 00000000000NCONT   00    00000000000          00000000000000000000000000000000000000000000 000000000000000A000000000000000000000000000000000000000000000 000000000000000000000000000000000000000     00000000                                                                                                                        000000000000000000
