F0010000008535300001000089011033000011050500000000000000000201604270002001INDUSTRIAS CRUZ & CAÑON LTDA                     D000000001700000000000000000000000100010010000000000000000000000F0010000008535300120160427000101 00000000000000000000000000000000000000000000000000000000000000000000000000000000000000000000000000000000000000000N 00000000000NCONT   00    00000000000          00000000000000000000000000000000000000000000 000000000000000A000000000000000000000000000000000000000000000 000000000000000000000000000000000000000     00000000                                                                                                                        000000000000000000
F0010000008535300002000089011033000041450500000000000000000201604270002001INDUSTRIAS CRUZ & CAÑON LTDA                     C000000001500000000000000000000000100010010000000000000000000000F0010000008535300220160427000101 00000000000000000000000000000000000000000000000000000000000000000000000000000000000000000000000000000000000000000N 00000000000NCONT   00    00000000000          00000000000000000000000000000000000000000000 000000000000000A000000000000000000000000000000000000000000000 000000000000000000000000000000000000000     00000000                                                                                                                        000000000000000000
F0010000008535300003000089011033000042505000000000000000000201604270002001INDUSTRIAS CRUZ & CAÑON LTDA                     C000000000200000000000000000000000100010010000000000000000000000F0010000008535300320160427000101 00000000000000000000000000000000000000000000000000000000000000000000000000000000000000000000000000000000000000000N 00000000000NCONT   00    00000000000          00000000000000000000000000000000000000000000 000000000000000A000000000000000000000000000000000000000000000 000000000000000000000000000000000000000     00000000                                                                                                                        000000000000000000
F0010000008535300004000089011033000023658300000000000000000201604270002001INDUSTRIAS CRUZ & CAÑON LTDA                     C000000000012000000000000000000000100010010000000000000000000000F0010000008535300420160427000101 00000000000000000000000000000000000000000000000000000000000000000000000000000000000000000000000000000000000000000N 00000000000NCONT   00    00000000000          00000000000000000000000000000000000000000000 000000000000000A000000000000000000000000000000000000000000000 000000000000000000000000000000000000000     00000000                                                                                                                        000000000000000000
F0010000008535300005000089011033000013552100000000000000000201604270002001INDUSTRIAS CRUZ & CAÑON LTDA                     D000000000012000000000000000000000100010010000000000000000000000F0010000008535300520160427000101 00000000000000000000000000000000000000000000000000000000000000000000000000000000000000000000000000000000000000000N 00000000000NCONT   00    00000000000          00000000000000000000000000000000000000000000 000000000000000A000000000000000000000000000000000000000000000 000000000000000000000000000000000000000     00000000                                                                                                                        000000000000000000
F0010000008535400001000007719033000011050500000000000000000201604270002001ALMACEN EL SALPICON.COM                           D000000004000000000000000000000000100010010000000000000000000000F0010000008535400120160427000101 00000000000000000000000000000000000000000000000000000000000000000000000000000000000000000000000000000000000000000N 00000000000NCONT   00    00000000000          00000000000000000000000000000000000000000000 000000000000000A000000000000000000000000000000000000000000000 000000000000000000000000000000000000000     00000000                                                                                                                        000000000000000000
F0010000008535400002000007719033000041450500000000000000000201604270002001ALMACEN EL SALPICON.COM                           C000000003900000000000000000000000100010010000000000000000000000F0010000008535400220160427000101 00000000000000000000000000000000000000000000000000000000000000000000000000000000000000000000000000000000000000000N 00000000000NCONT   00    00000000000          00000000000000000000000000000000000000000000 000000000000000A000000000000000000000000000000000000000000000 000000000000000000000000000000000000000     00000000                                                                                                                        000000000000000000
F0010000008535400003000007719033000042505000000000000000000201604270002001ALMACEN EL SALPICON.COM                           C000000000100000000000000000000000100010010000000000000000000000F0010000008535400320160427000101 00000000000000000000000000000000000000000000000000000000000000000000000000000000000000000000000000000000000000000N 00000000000NCONT   00    00000000000          00000000000000000000000000000000000000000000 000000000000000A000000000000000000000000000000000000000000000 000000000000000000000000000000000000000     00000000                                                                                                                        000000000000000000
F0010000008535400004000007719033000023658300000000000000000201604270002001ALMACEN EL SALPICON.COM                           C000000000031200000000000000000000100010010000000000000000000000F0010000008535400420160427000101 00000000000000000000000000000000000000000000000000000000000000000000000000000000000000000000000000000000000000000N 00000000000NCONT   00    00000000000          00000000000000000000000000000000000000000000 000000000000000A000000000000000000000000000000000000000000000 000000000000000000000000000000000000000     00000000                                                                                                                        000000000000000000
F0010000008535400005000007719033000013552100000000000000000201604270002001ALMACEN EL SALPICON.COM                           D000000000031200000000000000000000100010010000000000000000000000F0010000008535400520160427000101 00000000000000000000000000000000000000000000000000000000000000000000000000000000000000000000000000000000000000000N 00000000000NCONT   00    00000000000          00000000000000000000000000000000000000000000 000000000000000A000000000000000000000000000000000000000000000 000000000000000000000000000000000000000     00000000                                                                                                                        000000000000000000
F0010000008535500001000090001736600013050500000000000000000201604270002001SUMINISTROS OFICINA                               D000000008000000000000000000000000100010010000000000000000000000F0010000008535500120160427000101 00000000000000000000000000000000000000000000000000000000000000000000000000000000000000000000000000000000000000000N 00000000000NCONT   00    00000000000          00000000000000000000000000000000000000000000 000000000000000A000000000000000000000000000000000000000000000 000000000000000000000000000000000000000     00000000                                                                                                                        000000000000000000
F0010000008535500002000090001736600041450500000000000000000201604270002001SUMINISTROS OFICINA                               C000000007500000000000000000000000100010010000000000000000000000F0010000008535500220160427000101 00000000000000000000000000000000000000000000000000000000000000000000000000000000000000000000000000000000000000000N 00000000000NCONT   00    00000000000          00000000000000000000000000000000000000000000 000000000000000A000000000000000000000000000000000000000000000 000000000000000000000000000000000000000     00000000                                                                                                                        000000000000000000
F0010000008535500003000090001736600042505000000000000000000201604270002001SUMINISTROS OFICINA                               C000000000500000000000000000000000100010010000000000000000000000F0010000008535500320160427000101 00000000000000000000000000000000000000000000000000000000000000000000000000000000000000000000000000000000000000000N 00000000000NCONT   00    00000000000          00000000000000000000000000000000000000000000 000000000000000A000000000000000000000000000000000000000000000 000000000000000000000000000000000000000     00000000                                                                                                                        000000000000000000
F0010000008535500004000090001736600023658300000000000000000201604270002001SUMINISTROS OFICINA                               C000000000060000000000000000000000100010010000000000000000000000F0010000008535500420160427000101 00000000000000000000000000000000000000000000000000000000000000000000000000000000000000000000000000000000000000000N 00000000000NCONT   00    00000000000          00000000000000000000000000000000000000000000 000000000000000A000000000000000000000000000000000000000000000 000000000000000000000000000000000000000     00000000                                                                                                                        000000000000000000
F0010000008535500005000090001736600013552100000000000000000201604270002001SUMINISTROS OFICINA                               D000000000060000000000000000000000100010010000000000000000000000F0010000008535500520160427000101 00000000000000000000000000000000000000000000000000000000000000000000000000000000000000000000000000000000000000000N 00000000000NCONT   00    00000000000          00000000000000000000000000000000000000000000 000000000000000A000000000000000000000000000000000000000000000 000000000000000000000000000000000000000     00000000                                                                                                                        000000000000000000
F0010000008535600001000108286245800011050500000000000000000201604270002001SAMUEL CASTRO MENDOZA                             D000000011500000000000000000000000100010010000000000000000000000F0010000008535600120160427000101 00000000000000000000000000000000000000000000000000000000000000000000000000000000000000000000000000000000000000000N 00000000000NCONT   00    00000000000          00000000000000000000000000000000000000000000 000000000000000A000000000000000000000000000000000000000000000 000000000000000000000000000000000000000     00000000                                                                                                                        000000000000000000
F0010000008535600002000108286245800041450500000000000000000201604270002001SAMUEL CASTRO MENDOZA                             C000000011300000000000000000000000100010010000000000000000000000F0010000008535600220160427000101 00000000000000000000000000000000000000000000000000000000000000000000000000000000000000000000000000000000000000000N 00000000000NCONT   00    00000000000          00000000000000000000000000000000000000000000 000000000000000A000000000000000000000000000000000000000000000 000000000000000000000000000000000000000     00000000                                                                                                                        000000000000000000
F0010000008535600003000108286245800042505000000000000000000201604270002001SAMUEL CASTRO MENDOZA                             C000000000200000000000000000000000100010010000000000000000000000F0010000008535600320160427000101 00000000000000000000000000000000000000000000000000000000000000000000000000000000000000000000000000000000000000000N 00000000000NCONT   00    00000000000          00000000000000000000000000000000000000000000 000000000000000A000000000000000000000000000000000000000000000 000000000000000000000000000000000000000     00000000                                                                                                                        000000000000000000
F0010000008535600004000108286245800023658300000000000000000201604270002001SAMUEL CASTRO MENDOZA                             C000000000090400000000000000000000100010010000000000000000000000F0010000008535600420160427000101 00000000000000000000000000000000000000000000000000000000000000000000000000000000000000000000000000000000000000000N 00000000000NCONT   00    00000000000          00000000000000000000000000000000000000000000 000000000000000A000000000000000000000000000000000000000000000 000000000000000000000000000000000000000     00000000                                                                                                                        000000000000000000
F0010000008535600005000108286245800013552100000000000000000201604270002001SAMUEL CASTRO MENDOZA                             D000000000090400000000000000000000100010010000000000000000000000F0010000008535600520160427000101 00000000000000000000000000000000000000000000000000000000000000000000000000000000000000000000000000000000000000000N 00000000000NCONT   00    00000000000          00000000000000000000000000000000000000000000 000000000000000A000000000000000000000000000000000000000000000 000000000000000000000000000000000000000     00000000                                                                                                                        000000000000000000
F0010000008535700001000000878369700011050500000000000000000201604270002001REYNALDO PANZA DE LA HOZ                          D000000001050000000000000000000000100010010000000000000000000000F0010000008535700120160427000101 00000000000000000000000000000000000000000000000000000000000000000000000000000000000000000000000000000000000000000N 00000000000NCONT   00    00000000000          00000000000000000000000000000000000000000000 000000000000000A000000000000000000000000000000000000000000000 000000000000000000000000000000000000000     00000000                                                                                                                        000000000000000000
F0010000008535700002000000878369700041450500000000000000000201604270002001REYNALDO PANZA DE LA HOZ                          C000000000950000000000000000000000100010010000000000000000000000F0010000008535700220160427000101 00000000000000000000000000000000000000000000000000000000000000000000000000000000000000000000000000000000000000000N 00000000000NCONT   00    00000000000          00000000000000000000000000000000000000000000 000000000000000A000000000000000000000000000000000000000000000 000000000000000000000000000000000000000     00000000                                                                                                                        000000000000000000
F0010000008535700003000000878369700042505000000000000000000201604270002001REYNALDO PANZA DE LA HOZ                          C000000000100000000000000000000000100010010000000000000000000000F0010000008535700320160427000101 00000000000000000000000000000000000000000000000000000000000000000000000000000000000000000000000000000000000000000N 00000000000NCONT   00    00000000000          00000000000000000000000000000000000000000000 000000000000000A000000000000000000000000000000000000000000000 000000000000000000000000000000000000000     00000000                                                                                                                        000000000000000000
F0010000008535700004000000878369700023658300000000000000000201604270002001REYNALDO PANZA DE LA HOZ                          C000000000007600000000000000000000100010010000000000000000000000F0010000008535700420160427000101 00000000000000000000000000000000000000000000000000000000000000000000000000000000000000000000000000000000000000000N 00000000000NCONT   00    00000000000          00000000000000000000000000000000000000000000 000000000000000A000000000000000000000000000000000000000000000 000000000000000000000000000000000000000     00000000                                                                                                                        000000000000000000
F0010000008535700005000000878369700013552100000000000000000201604270002001REYNALDO PANZA DE LA HOZ                          D000000000007600000000000000000000100010010000000000000000000000F0010000008535700520160427000101 00000000000000000000000000000000000000000000000000000000000000000000000000000000000000000000000000000000000000000N 00000000000NCONT   00    00000000000          00000000000000000000000000000000000000000000 000000000000000A000000000000000000000000000000000000000000000 000000000000000000000000000000000000000     00000000                                                                                                                        000000000000000000
F0010000008535800001000007719033000011050500000000000000000201604270002001ALMACEN EL SALPICON.COM                           D000000007600000000000000000000000100010010000000000000000000000F0010000008535800120160427000101 00000000000000000000000000000000000000000000000000000000000000000000000000000000000000000000000000000000000000000N 00000000000NCONT   00    00000000000          00000000000000000000000000000000000000000000 000000000000000A000000000000000000000000000000000000000000000 000000000000000000000000000000000000000     00000000                                                                                                                        000000000000000000
F0010000008535800002000007719033000041450500000000000000000201604270002001ALMACEN EL SALPICON.COM                           C000000007200000000000000000000000100010010000000000000000000000F0010000008535800220160427000101 00000000000000000000000000000000000000000000000000000000000000000000000000000000000000000000000000000000000000000N 00000000000NCONT   00    00000000000          00000000000000000000000000000000000000000000 000000000000000A000000000000000000000000000000000000000000000 000000000000000000000000000000000000000     00000000                                                                                                                        000000000000000000
F0010000008535800003000007719033000042505000000000000000000201604270002001ALMACEN EL SALPICON.COM                           C000000000400000000000000000000000100010010000000000000000000000F0010000008535800320160427000101 00000000000000000000000000000000000000000000000000000000000000000000000000000000000000000000000000000000000000000N 00000000000NCONT   00    00000000000          00000000000000000000000000000000000000000000 000000000000000A000000000000000000000000000000000000000000000 000000000000000000000000000000000000000     00000000                                                                                                                        000000000000000000
F0010000008535800004000007719033000023658300000000000000000201604270002001ALMACEN EL SALPICON.COM                           C000000000057600000000000000000000100010010000000000000000000000F0010000008535800420160427000101 00000000000000000000000000000000000000000000000000000000000000000000000000000000000000000000000000000000000000000N 00000000000NCONT   00    00000000000          00000000000000000000000000000000000000000000 000000000000000A000000000000000000000000000000000000000000000 000000000000000000000000000000000000000     00000000                                                                                                                        000000000000000000
F0010000008535800005000007719033000013552100000000000000000201604270002001ALMACEN EL SALPICON.COM                           D000000000057600000000000000000000100010010000000000000000000000F0010000008535800520160427000101 00000000000000000000000000000000000000000000000000000000000000000000000000000000000000000000000000000000000000000N 00000000000NCONT   00    00000000000          00000000000000000000000000000000000000000000 000000000000000A000000000000000000000000000000000000000000000 000000000000000000000000000000000000000     00000000                                                                                                                        000000000000000000
F0010000008535900001000089011033000011050500000000000000000201604270002001INDUSTRIAS CRUZ & CAÑON LTDA                     D000000001600000000000000000000000100010010000000000000000000000F0010000008535900120160427000101 00000000000000000000000000000000000000000000000000000000000000000000000000000000000000000000000000000000000000000N 00000000000NCONT   00    00000000000          00000000000000000000000000000000000000000000 000000000000000A000000000000000000000000000000000000000000000 000000000000000000000000000000000000000     00000000                                                                                                                        000000000000000000
F0010000008535900002000089011033000041450500000000000000000201604270002001INDUSTRIAS CRUZ & CAÑON LTDA                     C000000001500000000000000000000000100010010000000000000000000000F0010000008535900220160427000101 00000000000000000000000000000000000000000000000000000000000000000000000000000000000000000000000000000000000000000N 00000000000NCONT   00    00000000000          00000000000000000000000000000000000000000000 000000000000000A000000000000000000000000000000000000000000000 000000000000000000000000000000000000000     00000000                                                                                                                        000000000000000000
F0010000008535900003000089011033000042505000000000000000000201604270002001INDUSTRIAS CRUZ & CAÑON LTDA                     C000000000100000000000000000000000100010010000000000000000000000F0010000008535900320160427000101 00000000000000000000000000000000000000000000000000000000000000000000000000000000000000000000000000000000000000000N 00000000000NCONT   00    00000000000          00000000000000000000000000000000000000000000 000000000000000A000000000000000000000000000000000000000000000 000000000000000000000000000000000000000     00000000                                                                                                                        000000000000000000
F0010000008535900004000089011033000023658300000000000000000201604270002001INDUSTRIAS CRUZ & CAÑON LTDA                     C000000000012000000000000000000000100010010000000000000000000000F0010000008535900420160427000101 00000000000000000000000000000000000000000000000000000000000000000000000000000000000000000000000000000000000000000N 00000000000NCONT   00    00000000000          00000000000000000000000000000000000000000000 000000000000000A000000000000000000000000000000000000000000000 000000000000000000000000000000000000000     00000000                                                                                                                        000000000000000000
F0010000008535900005000089011033000013552100000000000000000201604270002001INDUSTRIAS CRUZ & CAÑON LTDA                     D000000000012000000000000000000000100010010000000000000000000000F0010000008535900520160427000101 00000000000000000000000000000000000000000000000000000000000000000000000000000000000000000000000000000000000000000N 00000000000NCONT   00    00000000000          00000000000000000000000000000000000000000000 000000000000000A000000000000000000000000000000000000000000000 000000000000000000000000000000000000000     00000000                                                                                                                        000000000000000000
F0010000008536000001000003115634700011050500000000000000000201604270002001MARINA BENAVIDES                                  D000000001050000000000000000000000100010010000000000000000000000F0010000008536000120160427000101 00000000000000000000000000000000000000000000000000000000000000000000000000000000000000000000000000000000000000000N 00000000000NCONT   00    00000000000          00000000000000000000000000000000000000000000 000000000000000A000000000000000000000000000000000000000000000 000000000000000000000000000000000000000     00000000                                                                                                                        000000000000000000
F0010000008536000002000003115634700041450500000000000000000201604270002001MARINA BENAVIDES                                  C000000000950000000000000000000000100010010000000000000000000000F0010000008536000220160427000101 00000000000000000000000000000000000000000000000000000000000000000000000000000000000000000000000000000000000000000N 00000000000NCONT   00    00000000000          00000000000000000000000000000000000000000000 000000000000000A000000000000000000000000000000000000000000000 000000000000000000000000000000000000000     00000000                                                                                                                        000000000000000000
F0010000008536000003000003115634700042505000000000000000000201604270002001MARINA BENAVIDES                                  C000000000100000000000000000000000100010010000000000000000000000F0010000008536000320160427000101 00000000000000000000000000000000000000000000000000000000000000000000000000000000000000000000000000000000000000000N 00000000000NCONT   00    00000000000          00000000000000000000000000000000000000000000 000000000000000A000000000000000000000000000000000000000000000 000000000000000000000000000000000000000     00000000                                                                                                                        000000000000000000
F0010000008536000004000003115634700023658300000000000000000201604270002001MARINA BENAVIDES                                  C000000000007600000000000000000000100010010000000000000000000000F0010000008536000420160427000101 00000000000000000000000000000000000000000000000000000000000000000000000000000000000000000000000000000000000000000N 00000000000NCONT   00    00000000000          00000000000000000000000000000000000000000000 000000000000000A000000000000000000000000000000000000000000000 000000000000000000000000000000000000000     00000000                                                                                                                        000000000000000000
F0010000008536000005000003115634700013552100000000000000000201604270002001MARINA BENAVIDES                                  D000000000007600000000000000000000100010010000000000000000000000F0010000008536000520160427000101 00000000000000000000000000000000000000000000000000000000000000000000000000000000000000000000000000000000000000000N 00000000000NCONT   00    00000000000          00000000000000000000000000000000000000000000 000000000000000A000000000000000000000000000000000000000000000 000000000000000000000000000000000000000     00000000                                                                                                                        000000000000000000
F0010000008536100001000090055180500011050500000000000000000201604270002001LAMINAS Y SUELAS DE COLOMBIA S.A.S                D000000006000000000000000000000000100010010000000000000000000000F0010000008536100120160427000101 00000000000000000000000000000000000000000000000000000000000000000000000000000000000000000000000000000000000000000N 00000000000NCONT   00    00000000000          00000000000000000000000000000000000000000000 000000000000000A000000000000000000000000000000000000000000000 000000000000000000000000000000000000000     00000000                                                                                                                        000000000000000000
F0010000008536100002000090055180500041450500000000000000000201604270002001LAMINAS Y SUELAS DE COLOMBIA S.A.S                C000000005000000000000000000000000100010010000000000000000000000F0010000008536100220160427000101 00000000000000000000000000000000000000000000000000000000000000000000000000000000000000000000000000000000000000000N 00000000000NCONT   00    00000000000          00000000000000000000000000000000000000000000 000000000000000A000000000000000000000000000000000000000000000 000000000000000000000000000000000000000     00000000                                                                                                                        000000000000000000
F0010000008536100003000090055180500042505000000000000000000201604270002001LAMINAS Y SUELAS DE COLOMBIA S.A.S                C000000001000000000000000000000000100010010000000000000000000000F0010000008536100320160427000101 00000000000000000000000000000000000000000000000000000000000000000000000000000000000000000000000000000000000000000N 00000000000NCONT   00    00000000000          00000000000000000000000000000000000000000000 000000000000000A000000000000000000000000000000000000000000000 000000000000000000000000000000000000000     00000000                                                                                                                        000000000000000000
F0010000008536100004000090055180500023658300000000000000000201604270002001LAMINAS Y SUELAS DE COLOMBIA S.A.S                C000000000040000000000000000000000100010010000000000000000000000F0010000008536100420160427000101 00000000000000000000000000000000000000000000000000000000000000000000000000000000000000000000000000000000000000000N 00000000000NCONT   00    00000000000          00000000000000000000000000000000000000000000 000000000000000A000000000000000000000000000000000000000000000 000000000000000000000000000000000000000     00000000                                                                                                                        000000000000000000
F0010000008536100005000090055180500013552100000000000000000201604270002001LAMINAS Y SUELAS DE COLOMBIA S.A.S                D000000000040000000000000000000000100010010000000000000000000000F0010000008536100520160427000101 00000000000000000000000000000000000000000000000000000000000000000000000000000000000000000000000000000000000000000N 00000000000NCONT   00    00000000000          00000000000000000000000000000000000000000000 000000000000000A000000000000000000000000000000000000000000000 000000000000000000000000000000000000000     00000000                                                                                                                        000000000000000000
F0010000008536200001000001502923600011050500000000000000000201604270002001ALCIDES MARTINEZ MARTINEZ                         D000000001150000000000000000000000100010010000000000000000000000F0010000008536200120160427000101 00000000000000000000000000000000000000000000000000000000000000000000000000000000000000000000000000000000000000000N 00000000000NCONT   00    00000000000          00000000000000000000000000000000000000000000 000000000000000A000000000000000000000000000000000000000000000 000000000000000000000000000000000000000     00000000                                                                                                                        000000000000000000
F0010000008536200002000001502923600041450500000000000000000201604270002001ALCIDES MARTINEZ MARTINEZ                         C000000000950000000000000000000000100010010000000000000000000000F0010000008536200220160427000101 00000000000000000000000000000000000000000000000000000000000000000000000000000000000000000000000000000000000000000N 00000000000NCONT   00    00000000000          00000000000000000000000000000000000000000000 000000000000000A000000000000000000000000000000000000000000000 000000000000000000000000000000000000000     00000000                                                                                                                        000000000000000000
F0010000008536200003000001502923600042505000000000000000000201604270002001ALCIDES MARTINEZ MARTINEZ                         C000000000200000000000000000000000100010010000000000000000000000F0010000008536200320160427000101 00000000000000000000000000000000000000000000000000000000000000000000000000000000000000000000000000000000000000000N 00000000000NCONT   00    00000000000          00000000000000000000000000000000000000000000 000000000000000A000000000000000000000000000000000000000000000 000000000000000000000000000000000000000     00000000                                                                                                                        000000000000000000
F0010000008536200004000001502923600023658300000000000000000201604270002001ALCIDES MARTINEZ MARTINEZ                         C000000000007600000000000000000000100010010000000000000000000000F0010000008536200420160427000101 00000000000000000000000000000000000000000000000000000000000000000000000000000000000000000000000000000000000000000N 00000000000NCONT   00    00000000000          00000000000000000000000000000000000000000000 000000000000000A000000000000000000000000000000000000000000000 000000000000000000000000000000000000000     00000000                                                                                                                        000000000000000000
F0010000008536200005000001502923600013552100000000000000000201604270002001ALCIDES MARTINEZ MARTINEZ                         D000000000007600000000000000000000100010010000000000000000000000F0010000008536200520160427000101 00000000000000000000000000000000000000000000000000000000000000000000000000000000000000000000000000000000000000000N 00000000000NCONT   00    00000000000          00000000000000000000000000000000000000000000 000000000000000A000000000000000000000000000000000000000000000 000000000000000000000000000000000000000     00000000                                                                                                                        000000000000000000
F0010000008536300001000090050144800011050500000000000000000201604270002001PLASTICOS JR ASOCIADOS SAS                        D000000009800000000000000000000000100010010000000000000000000000F0010000008536300120160427000101 00000000000000000000000000000000000000000000000000000000000000000000000000000000000000000000000000000000000000000N 00000000000NCONT   00    00000000000          00000000000000000000000000000000000000000000 000000000000000A000000000000000000000000000000000000000000000 000000000000000000000000000000000000000     00000000                                                                                                                        000000000000000000
F0010000008536300002000090050144800041450500000000000000000201604270002001PLASTICOS JR ASOCIADOS SAS                        C000000008550000000000000000000000100010010000000000000000000000F0010000008536300220160427000101 00000000000000000000000000000000000000000000000000000000000000000000000000000000000000000000000000000000000000000N 00000000000NCONT   00    00000000000          00000000000000000000000000000000000000000000 000000000000000A000000000000000000000000000000000000000000000 000000000000000000000000000000000000000     00000000                                                                                                                        000000000000000000
F0010000008536300003000090050144800042505000000000000000000201604270002001PLASTICOS JR ASOCIADOS SAS                        C000000001250000000000000000000000100010010000000000000000000000F0010000008536300320160427000101 00000000000000000000000000000000000000000000000000000000000000000000000000000000000000000000000000000000000000000N 00000000000NCONT   00    00000000000          00000000000000000000000000000000000000000000 000000000000000A000000000000000000000000000000000000000000000 000000000000000000000000000000000000000     00000000                                                                                                                        000000000000000000
F0010000008536300004000090050144800023658300000000000000000201604270002001PLASTICOS JR ASOCIADOS SAS                        C000000000068400000000000000000000100010010000000000000000000000F0010000008536300420160427000101 00000000000000000000000000000000000000000000000000000000000000000000000000000000000000000000000000000000000000000N 00000000000NCONT   00    00000000000          00000000000000000000000000000000000000000000 000000000000000A000000000000000000000000000000000000000000000 000000000000000000000000000000000000000     00000000                                                                                                                        000000000000000000
F0010000008536300005000090050144800013552100000000000000000201604270002001PLASTICOS JR ASOCIADOS SAS                        D000000000068400000000000000000000100010010000000000000000000000F0010000008536300520160427000101 00000000000000000000000000000000000000000000000000000000000000000000000000000000000000000000000000000000000000000N 00000000000NCONT   00    00000000000          00000000000000000000000000000000000000000000 000000000000000A000000000000000000000000000000000000000000000 000000000000000000000000000000000000000     00000000                                                                                                                        000000000000000000
F0010000008536400001000090050144800011050500000000000000000201604270002001PLASTICOS JR ASOCIADOS SAS                        D000000003400000000000000000000000100010010000000000000000000000F0010000008536400120160427000101 00000000000000000000000000000000000000000000000000000000000000000000000000000000000000000000000000000000000000000N 00000000000NCONT   00    00000000000          00000000000000000000000000000000000000000000 000000000000000A000000000000000000000000000000000000000000000 000000000000000000000000000000000000000     00000000                                                                                                                        000000000000000000
F0010000008536400002000090050144800041450500000000000000000201604270002001PLASTICOS JR ASOCIADOS SAS                        C000000002900000000000000000000000100010010000000000000000000000F0010000008536400220160427000101 00000000000000000000000000000000000000000000000000000000000000000000000000000000000000000000000000000000000000000N 00000000000NCONT   00    00000000000          00000000000000000000000000000000000000000000 000000000000000A000000000000000000000000000000000000000000000 000000000000000000000000000000000000000     00000000                                                                                                                        000000000000000000
F0010000008536400003000090050144800042505000000000000000000201604270002001PLASTICOS JR ASOCIADOS SAS                        C000000000500000000000000000000000100010010000000000000000000000F0010000008536400320160427000101 00000000000000000000000000000000000000000000000000000000000000000000000000000000000000000000000000000000000000000N 00000000000NCONT   00    00000000000          00000000000000000000000000000000000000000000 000000000000000A000000000000000000000000000000000000000000000 000000000000000000000000000000000000000     00000000                                                                                                                        000000000000000000
F0010000008536400004000090050144800023658300000000000000000201604270002001PLASTICOS JR ASOCIADOS SAS                        C000000000023200000000000000000000100010010000000000000000000000F0010000008536400420160427000101 00000000000000000000000000000000000000000000000000000000000000000000000000000000000000000000000000000000000000000N 00000000000NCONT   00    00000000000          00000000000000000000000000000000000000000000 000000000000000A000000000000000000000000000000000000000000000 000000000000000000000000000000000000000     00000000                                                                                                                        000000000000000000
F0010000008536400005000090050144800013552100000000000000000201604270002001PLASTICOS JR ASOCIADOS SAS                        D000000000023200000000000000000000100010010000000000000000000000F0010000008536400520160427000101 00000000000000000000000000000000000000000000000000000000000000000000000000000000000000000000000000000000000000000N 00000000000NCONT   00    00000000000          00000000000000000000000000000000000000000000 000000000000000A000000000000000000000000000000000000000000000 000000000000000000000000000000000000000     00000000                                                                                                                        000000000000000000
F0010000008536500001000003287795000011050500000000000000000201604270002001COMERCIALIZADORA KUZMAR                           D000000002300000000000000000000000100010010000000000000000000000F0010000008536500120160427000101 00000000000000000000000000000000000000000000000000000000000000000000000000000000000000000000000000000000000000000N 00000000000NCONT   00    00000000000          00000000000000000000000000000000000000000000 000000000000000A000000000000000000000000000000000000000000000 000000000000000000000000000000000000000     00000000                                                                                                                        000000000000000000
F0010000008536500002000003287795000041450500000000000000000201604270002001COMERCIALIZADORA KUZMAR                           C000000001800000000000000000000000100010010000000000000000000000F0010000008536500220160427000101 00000000000000000000000000000000000000000000000000000000000000000000000000000000000000000000000000000000000000000N 00000000000NCONT   00    00000000000          00000000000000000000000000000000000000000000 000000000000000A000000000000000000000000000000000000000000000 000000000000000000000000000000000000000     00000000                                                                                                                        000000000000000000
F0010000008536500003000003287795000042505000000000000000000201604270002001COMERCIALIZADORA KUZMAR                           C000000000500000000000000000000000100010010000000000000000000000F0010000008536500320160427000101 00000000000000000000000000000000000000000000000000000000000000000000000000000000000000000000000000000000000000000N 00000000000NCONT   00    00000000000          00000000000000000000000000000000000000000000 000000000000000A000000000000000000000000000000000000000000000 000000000000000000000000000000000000000     00000000                                                                                                                        000000000000000000
F0010000008536500004000003287795000023658300000000000000000201604270002001COMERCIALIZADORA KUZMAR                           C000000000014400000000000000000000100010010000000000000000000000F0010000008536500420160427000101 00000000000000000000000000000000000000000000000000000000000000000000000000000000000000000000000000000000000000000N 00000000000NCONT   00    00000000000          00000000000000000000000000000000000000000000 000000000000000A000000000000000000000000000000000000000000000 000000000000000000000000000000000000000     00000000                                                                                                                        000000000000000000
F0010000008536500005000003287795000013552100000000000000000201604270002001COMERCIALIZADORA KUZMAR                           D000000000014400000000000000000000100010010000000000000000000000F0010000008536500520160427000101 00000000000000000000000000000000000000000000000000000000000000000000000000000000000000000000000000000000000000000N 00000000000NCONT   00    00000000000          00000000000000000000000000000000000000000000 000000000000000A000000000000000000000000000000000000000000000 000000000000000000000000000000000000000     00000000                                                                                                                        000000000000000000
F0010000008536600001000003287795000011050500000000000000000201604270002001COMERCIALIZADORA KUZMAR                           D000000002900000000000000000000000100010010000000000000000000000F0010000008536600120160427000101 00000000000000000000000000000000000000000000000000000000000000000000000000000000000000000000000000000000000000000N 00000000000NCONT   00    00000000000          00000000000000000000000000000000000000000000 000000000000000A000000000000000000000000000000000000000000000 000000000000000000000000000000000000000     00000000                                                                                                                        000000000000000000
F0010000008536600002000003287795000041450500000000000000000201604270002001COMERCIALIZADORA KUZMAR                           C000000002400000000000000000000000100010010000000000000000000000F0010000008536600220160427000101 00000000000000000000000000000000000000000000000000000000000000000000000000000000000000000000000000000000000000000N 00000000000NCONT   00    00000000000          00000000000000000000000000000000000000000000 000000000000000A000000000000000000000000000000000000000000000 000000000000000000000000000000000000000     00000000                                                                                                                        000000000000000000
F0010000008536600003000003287795000042505000000000000000000201604270002001COMERCIALIZADORA KUZMAR                           C000000000500000000000000000000000100010010000000000000000000000F0010000008536600320160427000101 00000000000000000000000000000000000000000000000000000000000000000000000000000000000000000000000000000000000000000N 00000000000NCONT   00    00000000000          00000000000000000000000000000000000000000000 000000000000000A000000000000000000000000000000000000000000000 000000000000000000000000000000000000000     00000000                                                                                                                        000000000000000000
F0010000008536600004000003287795000023658300000000000000000201604270002001COMERCIALIZADORA KUZMAR                           C000000000019200000000000000000000100010010000000000000000000000F0010000008536600420160427000101 00000000000000000000000000000000000000000000000000000000000000000000000000000000000000000000000000000000000000000N 00000000000NCONT   00    00000000000          00000000000000000000000000000000000000000000 000000000000000A000000000000000000000000000000000000000000000 000000000000000000000000000000000000000     00000000                                                                                                                        000000000000000000
F0010000008536600005000003287795000013552100000000000000000201604270002001COMERCIALIZADORA KUZMAR                           D000000000019200000000000000000000100010010000000000000000000000F0010000008536600520160427000101 00000000000000000000000000000000000000000000000000000000000000000000000000000000000000000000000000000000000000000N 00000000000NCONT   00    00000000000          00000000000000000000000000000000000000000000 000000000000000A000000000000000000000000000000000000000000000 000000000000000000000000000000000000000     00000000                                                                                                                        000000000000000000
F0010000008536700001000083008772100011050500000000000000000201604270002001ILUMEC SAS                                        D000000001230000000000000000000000100010010000000000000000000000F0010000008536700120160427000101 00000000000000000000000000000000000000000000000000000000000000000000000000000000000000000000000000000000000000000N 00000000000NCONT   00    00000000000          00000000000000000000000000000000000000000000 000000000000000A000000000000000000000000000000000000000000000 000000000000000000000000000000000000000     00000000                                                                                                                        000000000000000000
F0010000008536700002000083008772100041450500000000000000000201604270002001ILUMEC SAS                                        C000000000880000000000000000000000100010010000000000000000000000F0010000008536700220160427000101 00000000000000000000000000000000000000000000000000000000000000000000000000000000000000000000000000000000000000000N 00000000000NCONT   00    00000000000          00000000000000000000000000000000000000000000 000000000000000A000000000000000000000000000000000000000000000 000000000000000000000000000000000000000     00000000                                                                                                                        000000000000000000
F0010000008536700003000083008772100042505000000000000000000201604270002001ILUMEC SAS                                        C000000000350000000000000000000000100010010000000000000000000000F0010000008536700320160427000101 00000000000000000000000000000000000000000000000000000000000000000000000000000000000000000000000000000000000000000N 00000000000NCONT   00    00000000000          00000000000000000000000000000000000000000000 000000000000000A000000000000000000000000000000000000000000000 000000000000000000000000000000000000000     00000000                                                                                                                        000000000000000000
F0010000008536700004000083008772100023658300000000000000000201604270002001ILUMEC SAS                                        C000000000007000000000000000000000100010010000000000000000000000F0010000008536700420160427000101 00000000000000000000000000000000000000000000000000000000000000000000000000000000000000000000000000000000000000000N 00000000000NCONT   00    00000000000          00000000000000000000000000000000000000000000 000000000000000A000000000000000000000000000000000000000000000 000000000000000000000000000000000000000     00000000                                                                                                                        000000000000000000
F0010000008536700005000083008772100013552100000000000000000201604270002001ILUMEC SAS                                        D000000000007000000000000000000000100010010000000000000000000000F0010000008536700520160427000101 00000000000000000000000000000000000000000000000000000000000000000000000000000000000000000000000000000000000000000N 00000000000NCONT   00    00000000000          00000000000000000000000000000000000000000000 000000000000000A000000000000000000000000000000000000000000000 000000000000000000000000000000000000000     00000000                                                                                                                        000000000000000000
F0010000008536800001000090020547900011050500000000000000000201604270002001COMERCIALIZADORA DAC DEL CARIBE S.A.S.            D000000001900000000000000000000000100010010000000000000000000000F0010000008536800120160427000101 00000000000000000000000000000000000000000000000000000000000000000000000000000000000000000000000000000000000000000N 00000000000NCONT   00    00000000000          00000000000000000000000000000000000000000000 000000000000000A000000000000000000000000000000000000000000000 000000000000000000000000000000000000000     00000000                                                                                                                        000000000000000000
F0010000008536800002000090020547900041450500000000000000000201604270002001COMERCIALIZADORA DAC DEL CARIBE S.A.S.            C000000001200000000000000000000000100010010000000000000000000000F0010000008536800220160427000101 00000000000000000000000000000000000000000000000000000000000000000000000000000000000000000000000000000000000000000N 00000000000NCONT   00    00000000000          00000000000000000000000000000000000000000000 000000000000000A000000000000000000000000000000000000000000000 000000000000000000000000000000000000000     00000000                                                                                                                        000000000000000000
F0010000008536800003000090020547900042505000000000000000000201604270002001COMERCIALIZADORA DAC DEL CARIBE S.A.S.            C000000000700000000000000000000000100010010000000000000000000000F0010000008536800320160427000101 00000000000000000000000000000000000000000000000000000000000000000000000000000000000000000000000000000000000000000N 00000000000NCONT   00    00000000000          00000000000000000000000000000000000000000000 000000000000000A000000000000000000000000000000000000000000000 000000000000000000000000000000000000000     00000000                                                                                                                        000000000000000000
F0010000008536800004000090020547900023658300000000000000000201604270002001COMERCIALIZADORA DAC DEL CARIBE S.A.S.            C000000000009600000000000000000000100010010000000000000000000000F0010000008536800420160427000101 00000000000000000000000000000000000000000000000000000000000000000000000000000000000000000000000000000000000000000N 00000000000NCONT   00    00000000000          00000000000000000000000000000000000000000000 000000000000000A000000000000000000000000000000000000000000000 000000000000000000000000000000000000000     00000000                                                                                                                        000000000000000000
F0010000008536800005000090020547900013552100000000000000000201604270002001COMERCIALIZADORA DAC DEL CARIBE S.A.S.            D000000000009600000000000000000000100010010000000000000000000000F0010000008536800520160427000101 00000000000000000000000000000000000000000000000000000000000000000000000000000000000000000000000000000000000000000N 00000000000NCONT   00    00000000000          00000000000000000000000000000000000000000000 000000000000000A000000000000000000000000000000000000000000000 000000000000000000000000000000000000000     00000000                                                                                                                        000000000000000000
F0010000008536900001000002249450600011050500000000000000000201604270002001DISTRIBUCIONES MAGRAD                             D000000002400000000000000000000000100010010000000000000000000000F0010000008536900120160427000101 00000000000000000000000000000000000000000000000000000000000000000000000000000000000000000000000000000000000000000N 00000000000NCONT   00    00000000000          00000000000000000000000000000000000000000000 000000000000000A000000000000000000000000000000000000000000000 000000000000000000000000000000000000000     00000000                                                                                                                        000000000000000000
F0010000008536900002000002249450600041450500000000000000000201604270002001DISTRIBUCIONES MAGRAD                             C000000001800000000000000000000000100010010000000000000000000000F0010000008536900220160427000101 00000000000000000000000000000000000000000000000000000000000000000000000000000000000000000000000000000000000000000N 00000000000NCONT   00    00000000000          00000000000000000000000000000000000000000000 000000000000000A000000000000000000000000000000000000000000000 000000000000000000000000000000000000000     00000000                                                                                                                        000000000000000000
F0010000008536900003000002249450600042505000000000000000000201604270002001DISTRIBUCIONES MAGRAD                             C000000000600000000000000000000000100010010000000000000000000000F0010000008536900320160427000101 00000000000000000000000000000000000000000000000000000000000000000000000000000000000000000000000000000000000000000N 00000000000NCONT   00    00000000000          00000000000000000000000000000000000000000000 000000000000000A000000000000000000000000000000000000000000000 000000000000000000000000000000000000000     00000000                                                                                                                        000000000000000000
F0010000008536900004000002249450600023658300000000000000000201604270002001DISTRIBUCIONES MAGRAD                             C000000000014400000000000000000000100010010000000000000000000000F0010000008536900420160427000101 00000000000000000000000000000000000000000000000000000000000000000000000000000000000000000000000000000000000000000N 00000000000NCONT   00    00000000000          00000000000000000000000000000000000000000000 000000000000000A000000000000000000000000000000000000000000000 000000000000000000000000000000000000000     00000000                                                                                                                        000000000000000000
F0010000008536900005000002249450600013552100000000000000000201604270002001DISTRIBUCIONES MAGRAD                             D000000000014400000000000000000000100010010000000000000000000000F0010000008536900520160427000101 00000000000000000000000000000000000000000000000000000000000000000000000000000000000000000000000000000000000000000N 00000000000NCONT   00    00000000000          00000000000000000000000000000000000000000000 000000000000000A000000000000000000000000000000000000000000000 000000000000000000000000000000000000000     00000000                                                                                                                        000000000000000000
F0010000008537000001000001022529300011050500000000000000000201604270002001ALBERTO ALVAREZ ISAZA                             D000000001507900000000000000000000100010010000000000000000000000F0010000008537000120160427000101 00000000000000000000000000000000000000000000000000000000000000000000000000000000000000000000000000000000000000000N 00000000000NCONT   00    00000000000          00000000000000000000000000000000000000000000 000000000000000A000000000000000000000000000000000000000000000 000000000000000000000000000000000000000     00000000                                                                                                                        000000000000000000
F0010000008537000002000001022529300041450500000000000000000201604270002001ALBERTO ALVAREZ ISAZA                             C000000001300000000000000000000000100010010000000000000000000000F0010000008537000220160427000101 00000000000000000000000000000000000000000000000000000000000000000000000000000000000000000000000000000000000000000N 00000000000NCONT   00    00000000000          00000000000000000000000000000000000000000000 000000000000000A000000000000000000000000000000000000000000000 000000000000000000000000000000000000000     00000000                                                                                                                        000000000000000000
F0010000008537000003000001022529300042505000000000000000000201604270002001ALBERTO ALVAREZ ISAZA                             C000000000207900000000000000000000100010010000000000000000000000F0010000008537000320160427000101 00000000000000000000000000000000000000000000000000000000000000000000000000000000000000000000000000000000000000000N 00000000000NCONT   00    00000000000          00000000000000000000000000000000000000000000 000000000000000A000000000000000000000000000000000000000000000 000000000000000000000000000000000000000     00000000                                                                                                                        000000000000000000
F0010000008537000004000001022529300023658300000000000000000201604270002001ALBERTO ALVAREZ ISAZA                             C000000000010400000000000000000000100010010000000000000000000000F0010000008537000420160427000101 00000000000000000000000000000000000000000000000000000000000000000000000000000000000000000000000000000000000000000N 00000000000NCONT   00    00000000000          00000000000000000000000000000000000000000000 000000000000000A000000000000000000000000000000000000000000000 000000000000000000000000000000000000000     00000000                                                                                                                        000000000000000000
F0010000008537000005000001022529300013552100000000000000000201604270002001ALBERTO ALVAREZ ISAZA                             D000000000010400000000000000000000100010010000000000000000000000F0010000008537000520160427000101 00000000000000000000000000000000000000000000000000000000000000000000000000000000000000000000000000000000000000000N 00000000000NCONT   00    00000000000          00000000000000000000000000000000000000000000 000000000000000A000000000000000000000000000000000000000000000 000000000000000000000000000000000000000     00000000                                                                                                                        000000000000000000
F0010000008537100001000000431178400011050500000000000000000201604270002001EFRAIN ALVAREZ                                    D000000001390000000000000000000000100010010000000000000000000000F0010000008537100120160427000101 00000000000000000000000000000000000000000000000000000000000000000000000000000000000000000000000000000000000000000N 00000000000NCONT   00    00000000000          00000000000000000000000000000000000000000000 000000000000000A000000000000000000000000000000000000000000000 000000000000000000000000000000000000000     00000000                                                                                                                        000000000000000000
F0010000008537100002000000431178400041450500000000000000000201604270002001EFRAIN ALVAREZ                                    C000000001270000000000000000000000100010010000000000000000000000F0010000008537100220160427000101 00000000000000000000000000000000000000000000000000000000000000000000000000000000000000000000000000000000000000000N 00000000000NCONT   00    00000000000          00000000000000000000000000000000000000000000 000000000000000A000000000000000000000000000000000000000000000 000000000000000000000000000000000000000     00000000                                                                                                                        000000000000000000
F0010000008537100003000000431178400042505000000000000000000201604270002001EFRAIN ALVAREZ                                    C000000000120000000000000000000000100010010000000000000000000000F0010000008537100320160427000101 00000000000000000000000000000000000000000000000000000000000000000000000000000000000000000000000000000000000000000N 00000000000NCONT   00    00000000000          00000000000000000000000000000000000000000000 000000000000000A000000000000000000000000000000000000000000000 000000000000000000000000000000000000000     00000000                                                                                                                        000000000000000000
F0010000008537100004000000431178400023658300000000000000000201604270002001EFRAIN ALVAREZ                                    C000000000010200000000000000000000100010010000000000000000000000F0010000008537100420160427000101 00000000000000000000000000000000000000000000000000000000000000000000000000000000000000000000000000000000000000000N 00000000000NCONT   00    00000000000          00000000000000000000000000000000000000000000 000000000000000A000000000000000000000000000000000000000000000 000000000000000000000000000000000000000     00000000                                                                                                                        000000000000000000
F0010000008537100005000000431178400013552100000000000000000201604270002001EFRAIN ALVAREZ                                    D000000000010200000000000000000000100010010000000000000000000000F0010000008537100520160427000101 00000000000000000000000000000000000000000000000000000000000000000000000000000000000000000000000000000000000000000N 00000000000NCONT   00    00000000000          00000000000000000000000000000000000000000000 000000000000000A000000000000000000000000000000000000000000000 000000000000000000000000000000000000000     00000000                                                                                                                        000000000000000000
F0010000008537200001000000431178400011050500000000000000000201604270002001EFRAIN ALVAREZ                                    D000000002715000000000000000000000100010010000000000000000000000F0010000008537200120160427000101 00000000000000000000000000000000000000000000000000000000000000000000000000000000000000000000000000000000000000000N 00000000000NCONT   00    00000000000          00000000000000000000000000000000000000000000 000000000000000A000000000000000000000000000000000000000000000 000000000000000000000000000000000000000     00000000                                                                                                                        000000000000000000
F0010000008537200002000000431178400041450500000000000000000201604270002001EFRAIN ALVAREZ                                    C000000002540000000000000000000000100010010000000000000000000000F0010000008537200220160427000101 00000000000000000000000000000000000000000000000000000000000000000000000000000000000000000000000000000000000000000N 00000000000NCONT   00    00000000000          00000000000000000000000000000000000000000000 000000000000000A000000000000000000000000000000000000000000000 000000000000000000000000000000000000000     00000000                                                                                                                        000000000000000000
F0010000008537200003000000431178400042505000000000000000000201604270002001EFRAIN ALVAREZ                                    C000000000175000000000000000000000100010010000000000000000000000F0010000008537200320160427000101 00000000000000000000000000000000000000000000000000000000000000000000000000000000000000000000000000000000000000000N 00000000000NCONT   00    00000000000          00000000000000000000000000000000000000000000 000000000000000A000000000000000000000000000000000000000000000 000000000000000000000000000000000000000     00000000                                                                                                                        000000000000000000
F0010000008537200004000000431178400023658300000000000000000201604270002001EFRAIN ALVAREZ                                    C000000000020300000000000000000000100010010000000000000000000000F0010000008537200420160427000101 00000000000000000000000000000000000000000000000000000000000000000000000000000000000000000000000000000000000000000N 00000000000NCONT   00    00000000000          00000000000000000000000000000000000000000000 000000000000000A000000000000000000000000000000000000000000000 000000000000000000000000000000000000000     00000000                                                                                                                        000000000000000000
F0010000008537200005000000431178400013552100000000000000000201604270002001EFRAIN ALVAREZ                                    D000000000020300000000000000000000100010010000000000000000000000F0010000008537200520160427000101 00000000000000000000000000000000000000000000000000000000000000000000000000000000000000000000000000000000000000000N 00000000000NCONT   00    00000000000          00000000000000000000000000000000000000000000 000000000000000A000000000000000000000000000000000000000000000 000000000000000000000000000000000000000     00000000                                                                                                                        000000000000000000
F0010000008537300001000004175790100011050500000000000000000201604270002001ROSIRIS FERIA HOYOS  (COSM. SHILLER)              D000000001400000000000000000000000100010010000000000000000000000F0010000008537300120160427000101 00000000000000000000000000000000000000000000000000000000000000000000000000000000000000000000000000000000000000000N 00000000000NCONT   00    00000000000          00000000000000000000000000000000000000000000 000000000000000A000000000000000000000000000000000000000000000 000000000000000000000000000000000000000     00000000                                                                                                                        000000000000000000
F0010000008537300002000004175790100041450500000000000000000201604270002001ROSIRIS FERIA HOYOS  (COSM. SHILLER)              C000000001300000000000000000000000100010010000000000000000000000F0010000008537300220160427000101 00000000000000000000000000000000000000000000000000000000000000000000000000000000000000000000000000000000000000000N 00000000000NCONT   00    00000000000          00000000000000000000000000000000000000000000 000000000000000A000000000000000000000000000000000000000000000 000000000000000000000000000000000000000     00000000                                                                                                                        000000000000000000
F0010000008537300003000004175790100042505000000000000000000201604270002001ROSIRIS FERIA HOYOS  (COSM. SHILLER)              C000000000100000000000000000000000100010010000000000000000000000F0010000008537300320160427000101 00000000000000000000000000000000000000000000000000000000000000000000000000000000000000000000000000000000000000000N 00000000000NCONT   00    00000000000          00000000000000000000000000000000000000000000 000000000000000A000000000000000000000000000000000000000000000 000000000000000000000000000000000000000     00000000                                                                                                                        000000000000000000
F0010000008537300004000004175790100023658300000000000000000201604270002001ROSIRIS FERIA HOYOS  (COSM. SHILLER)              C000000000010400000000000000000000100010010000000000000000000000F0010000008537300420160427000101 00000000000000000000000000000000000000000000000000000000000000000000000000000000000000000000000000000000000000000N 00000000000NCONT   00    00000000000          00000000000000000000000000000000000000000000 000000000000000A000000000000000000000000000000000000000000000 000000000000000000000000000000000000000     00000000                                                                                                                        000000000000000000
F0010000008537300005000004175790100013552100000000000000000201604270002001ROSIRIS FERIA HOYOS  (COSM. SHILLER)              D000000000010400000000000000000000100010010000000000000000000000F0010000008537300520160427000101 00000000000000000000000000000000000000000000000000000000000000000000000000000000000000000000000000000000000000000N 00000000000NCONT   00    00000000000          00000000000000000000000000000000000000000000 000000000000000A000000000000000000000000000000000000000000000 000000000000000000000000000000000000000     00000000                                                                                                                        000000000000000000
F0010000008537400001000004175790100011050500000000000000000201604270002001ROSIRIS FERIA HOYOS  (COSM. SHILLER)              D000000001300000000000000000000000100010010000000000000000000000F0010000008537400120160427000101 00000000000000000000000000000000000000000000000000000000000000000000000000000000000000000000000000000000000000000N 00000000000NCONT   00    00000000000          00000000000000000000000000000000000000000000 000000000000000A000000000000000000000000000000000000000000000 000000000000000000000000000000000000000     00000000                                                                                                                        000000000000000000
F0010000008537400002000004175790100041450500000000000000000201604270002001ROSIRIS FERIA HOYOS  (COSM. SHILLER)              C000000001200000000000000000000000100010010000000000000000000000F0010000008537400220160427000101 00000000000000000000000000000000000000000000000000000000000000000000000000000000000000000000000000000000000000000N 00000000000NCONT   00    00000000000          00000000000000000000000000000000000000000000 000000000000000A000000000000000000000000000000000000000000000 000000000000000000000000000000000000000     00000000                                                                                                                        000000000000000000
F0010000008537400003000004175790100042505000000000000000000201604270002001ROSIRIS FERIA HOYOS  (COSM. SHILLER)              C000000000100000000000000000000000100010010000000000000000000000F0010000008537400320160427000101 00000000000000000000000000000000000000000000000000000000000000000000000000000000000000000000000000000000000000000N 00000000000NCONT   00    00000000000          00000000000000000000000000000000000000000000 000000000000000A000000000000000000000000000000000000000000000 000000000000000000000000000000000000000     00000000                                                                                                                        000000000000000000
F0010000008537400004000004175790100023658300000000000000000201604270002001ROSIRIS FERIA HOYOS  (COSM. SHILLER)              C000000000009600000000000000000000100010010000000000000000000000F0010000008537400420160427000101 00000000000000000000000000000000000000000000000000000000000000000000000000000000000000000000000000000000000000000N 00000000000NCONT   00    00000000000          00000000000000000000000000000000000000000000 000000000000000A000000000000000000000000000000000000000000000 000000000000000000000000000000000000000     00000000                                                                                                                        000000000000000000
F0010000008537400005000004175790100013552100000000000000000201604270002001ROSIRIS FERIA HOYOS  (COSM. SHILLER)              D000000000009600000000000000000000100010010000000000000000000000F0010000008537400520160427000101 00000000000000000000000000000000000000000000000000000000000000000000000000000000000000000000000000000000000000000N 00000000000NCONT   00    00000000000          00000000000000000000000000000000000000000000 000000000000000A000000000000000000000000000000000000000000000 000000000000000000000000000000000000000     00000000                                                                                                                        000000000000000000
F0010000008537500001000004175790100011050500000000000000000201604270002001ROSIRIS FERIA HOYOS  (COSM. SHILLER)              D000000001300000000000000000000000100010010000000000000000000000F0010000008537500120160427000101 00000000000000000000000000000000000000000000000000000000000000000000000000000000000000000000000000000000000000000N 00000000000NCONT   00    00000000000          00000000000000000000000000000000000000000000 000000000000000A000000000000000000000000000000000000000000000 000000000000000000000000000000000000000     00000000                                                                                                                        000000000000000000
F0010000008537500002000004175790100041450500000000000000000201604270002001ROSIRIS FERIA HOYOS  (COSM. SHILLER)              C000000001200000000000000000000000100010010000000000000000000000F0010000008537500220160427000101 00000000000000000000000000000000000000000000000000000000000000000000000000000000000000000000000000000000000000000N 00000000000NCONT   00    00000000000          00000000000000000000000000000000000000000000 000000000000000A000000000000000000000000000000000000000000000 000000000000000000000000000000000000000     00000000                                                                                                                        000000000000000000
F0010000008537500003000004175790100042505000000000000000000201604270002001ROSIRIS FERIA HOYOS  (COSM. SHILLER)              C000000000100000000000000000000000100010010000000000000000000000F0010000008537500320160427000101 00000000000000000000000000000000000000000000000000000000000000000000000000000000000000000000000000000000000000000N 00000000000NCONT   00    00000000000          00000000000000000000000000000000000000000000 000000000000000A000000000000000000000000000000000000000000000 000000000000000000000000000000000000000     00000000                                                                                                                        000000000000000000
F0010000008537500004000004175790100023658300000000000000000201604270002001ROSIRIS FERIA HOYOS  (COSM. SHILLER)              C000000000009600000000000000000000100010010000000000000000000000F0010000008537500420160427000101 00000000000000000000000000000000000000000000000000000000000000000000000000000000000000000000000000000000000000000N 00000000000NCONT   00    00000000000          00000000000000000000000000000000000000000000 000000000000000A000000000000000000000000000000000000000000000 000000000000000000000000000000000000000     00000000                                                                                                                        000000000000000000
F0010000008537500005000004175790100013552100000000000000000201604270002001ROSIRIS FERIA HOYOS  (COSM. SHILLER)              D000000000009600000000000000000000100010010000000000000000000000F0010000008537500520160427000101 00000000000000000000000000000000000000000000000000000000000000000000000000000000000000000000000000000000000000000N 00000000000NCONT   00    00000000000          00000000000000000000000000000000000000000000 000000000000000A000000000000000000000000000000000000000000000 000000000000000000000000000000000000000     00000000                                                                                                                        000000000000000000
F0010000008537600001000007213653800011050500000000000000000201604270002001VICTOR ECHAVEZ                                    D000000002700000000000000000000000100010010000000000000000000000F0010000008537600120160427000101 00000000000000000000000000000000000000000000000000000000000000000000000000000000000000000000000000000000000000000N 00000000000NCONT   00    00000000000          00000000000000000000000000000000000000000000 000000000000000A000000000000000000000000000000000000000000000 000000000000000000000000000000000000000     00000000                                                                                                                        000000000000000000
F0010000008537600002000007213653800041450500000000000000000201604270002001VICTOR ECHAVEZ                                    C000000001900000000000000000000000100010010000000000000000000000F0010000008537600220160427000101 00000000000000000000000000000000000000000000000000000000000000000000000000000000000000000000000000000000000000000N 00000000000NCONT   00    00000000000          00000000000000000000000000000000000000000000 000000000000000A000000000000000000000000000000000000000000000 000000000000000000000000000000000000000     00000000                                                                                                                        000000000000000000
F0010000008537600003000007213653800042505000000000000000000201604270002001VICTOR ECHAVEZ                                    C000000000800000000000000000000000100010010000000000000000000000F0010000008537600320160427000101 00000000000000000000000000000000000000000000000000000000000000000000000000000000000000000000000000000000000000000N 00000000000NCONT   00    00000000000          00000000000000000000000000000000000000000000 000000000000000A000000000000000000000000000000000000000000000 000000000000000000000000000000000000000     00000000                                                                                                                        000000000000000000
F0010000008537600004000007213653800023658300000000000000000201604270002001VICTOR ECHAVEZ                                    C000000000015200000000000000000000100010010000000000000000000000F0010000008537600420160427000101 00000000000000000000000000000000000000000000000000000000000000000000000000000000000000000000000000000000000000000N 00000000000NCONT   00    00000000000          00000000000000000000000000000000000000000000 000000000000000A000000000000000000000000000000000000000000000 000000000000000000000000000000000000000     00000000                                                                                                                        000000000000000000
F0010000008537600005000007213653800013552100000000000000000201604270002001VICTOR ECHAVEZ                                    D000000000015200000000000000000000100010010000000000000000000000F0010000008537600520160427000101 00000000000000000000000000000000000000000000000000000000000000000000000000000000000000000000000000000000000000000N 00000000000NCONT   00    00000000000          00000000000000000000000000000000000000000000 000000000000000A000000000000000000000000000000000000000000000 000000000000000000000000000000000000000     00000000                                                                                                                        000000000000000000
F0010000008537700001000007200023300011050500000000000000000201604270002001WILLIAM ORTEGA                                    D000000001600000000000000000000000100010010000000000000000000000F0010000008537700120160427000101 00000000000000000000000000000000000000000000000000000000000000000000000000000000000000000000000000000000000000000N 00000000000NCONT   00    00000000000          00000000000000000000000000000000000000000000 000000000000000A000000000000000000000000000000000000000000000 000000000000000000000000000000000000000     00000000                                                                                                                        000000000000000000
F0010000008537700002000007200023300041450500000000000000000201604270002001WILLIAM ORTEGA                                    C000000001300000000000000000000000100010010000000000000000000000F0010000008537700220160427000101 00000000000000000000000000000000000000000000000000000000000000000000000000000000000000000000000000000000000000000N 00000000000NCONT   00    00000000000          00000000000000000000000000000000000000000000 000000000000000A000000000000000000000000000000000000000000000 000000000000000000000000000000000000000     00000000                                                                                                                        000000000000000000
F0010000008537700003000007200023300042505000000000000000000201604270002001WILLIAM ORTEGA                                    C000000000300000000000000000000000100010010000000000000000000000F0010000008537700320160427000101 00000000000000000000000000000000000000000000000000000000000000000000000000000000000000000000000000000000000000000N 00000000000NCONT   00    00000000000          00000000000000000000000000000000000000000000 000000000000000A000000000000000000000000000000000000000000000 000000000000000000000000000000000000000     00000000                                                                                                                        000000000000000000
F0010000008537700004000007200023300023658300000000000000000201604270002001WILLIAM ORTEGA                                    C000000000010400000000000000000000100010010000000000000000000000F0010000008537700420160427000101 00000000000000000000000000000000000000000000000000000000000000000000000000000000000000000000000000000000000000000N 00000000000NCONT   00    00000000000          00000000000000000000000000000000000000000000 000000000000000A000000000000000000000000000000000000000000000 000000000000000000000000000000000000000     00000000                                                                                                                        000000000000000000
F0010000008537700005000007200023300013552100000000000000000201604270002001WILLIAM ORTEGA                                    D000000000010400000000000000000000100010010000000000000000000000F0010000008537700520160427000101 00000000000000000000000000000000000000000000000000000000000000000000000000000000000000000000000000000000000000000N 00000000000NCONT   00    00000000000          00000000000000000000000000000000000000000000 000000000000000A000000000000000000000000000000000000000000000 000000000000000000000000000000000000000     00000000                                                                                                                        000000000000000000
F0010000008537800001000000856720300011050500000000000000000201604270002001ALEXANDER HERRERA                                 D000000002500000000000000000000000100010010000000000000000000000F0010000008537800120160427000101 00000000000000000000000000000000000000000000000000000000000000000000000000000000000000000000000000000000000000000N 00000000000NCONT   00    00000000000          00000000000000000000000000000000000000000000 000000000000000A000000000000000000000000000000000000000000000 000000000000000000000000000000000000000     00000000                                                                                                                        000000000000000000
F0010000008537800002000000856720300041450500000000000000000201604270002001ALEXANDER HERRERA                                 C000000002200000000000000000000000100010010000000000000000000000F0010000008537800220160427000101 00000000000000000000000000000000000000000000000000000000000000000000000000000000000000000000000000000000000000000N 00000000000NCONT   00    00000000000          00000000000000000000000000000000000000000000 000000000000000A000000000000000000000000000000000000000000000 000000000000000000000000000000000000000     00000000                                                                                                                        000000000000000000
F0010000008537800003000000856720300042505000000000000000000201604270002001ALEXANDER HERRERA                                 C000000000300000000000000000000000100010010000000000000000000000F0010000008537800320160427000101 00000000000000000000000000000000000000000000000000000000000000000000000000000000000000000000000000000000000000000N 00000000000NCONT   00    00000000000          00000000000000000000000000000000000000000000 000000000000000A000000000000000000000000000000000000000000000 000000000000000000000000000000000000000     00000000                                                                                                                        000000000000000000
F0010000008537800004000000856720300023658300000000000000000201604270002001ALEXANDER HERRERA                                 C000000000017600000000000000000000100010010000000000000000000000F0010000008537800420160427000101 00000000000000000000000000000000000000000000000000000000000000000000000000000000000000000000000000000000000000000N 00000000000NCONT   00    00000000000          00000000000000000000000000000000000000000000 000000000000000A000000000000000000000000000000000000000000000 000000000000000000000000000000000000000     00000000                                                                                                                        000000000000000000
F0010000008537800005000000856720300013552100000000000000000201604270002001ALEXANDER HERRERA                                 D000000000017600000000000000000000100010010000000000000000000000F0010000008537800520160427000101 00000000000000000000000000000000000000000000000000000000000000000000000000000000000000000000000000000000000000000N 00000000000NCONT   00    00000000000          00000000000000000000000000000000000000000000 000000000000000A000000000000000000000000000000000000000000000 000000000000000000000000000000000000000     00000000                                                                                                                        000000000000000000
F0010000008537900001000003319910700011050500000000000000000201604270002001LUZ DARY JIMENEZ MARTINEZ                         D000000001100000000000000000000000100010010000000000000000000000F0010000008537900120160427000101 00000000000000000000000000000000000000000000000000000000000000000000000000000000000000000000000000000000000000000N 00000000000NCONT   00    00000000000          00000000000000000000000000000000000000000000 000000000000000A000000000000000000000000000000000000000000000 000000000000000000000000000000000000000     00000000                                                                                                                        000000000000000000
F0010000008537900002000003319910700041450500000000000000000201604270002001LUZ DARY JIMENEZ MARTINEZ                         C000000001000000000000000000000000100010010000000000000000000000F0010000008537900220160427000101 00000000000000000000000000000000000000000000000000000000000000000000000000000000000000000000000000000000000000000N 00000000000NCONT   00    00000000000          00000000000000000000000000000000000000000000 000000000000000A000000000000000000000000000000000000000000000 000000000000000000000000000000000000000     00000000                                                                                                                        000000000000000000
F0010000008537900003000003319910700042505000000000000000000201604270002001LUZ DARY JIMENEZ MARTINEZ                         C000000000100000000000000000000000100010010000000000000000000000F0010000008537900320160427000101 00000000000000000000000000000000000000000000000000000000000000000000000000000000000000000000000000000000000000000N 00000000000NCONT   00    00000000000          00000000000000000000000000000000000000000000 000000000000000A000000000000000000000000000000000000000000000 000000000000000000000000000000000000000     00000000                                                                                                                        000000000000000000
F0010000008537900004000003319910700023658300000000000000000201604270002001LUZ DARY JIMENEZ MARTINEZ                         C000000000008000000000000000000000100010010000000000000000000000F0010000008537900420160427000101 00000000000000000000000000000000000000000000000000000000000000000000000000000000000000000000000000000000000000000N 00000000000NCONT   00    00000000000          00000000000000000000000000000000000000000000 000000000000000A000000000000000000000000000000000000000000000 000000000000000000000000000000000000000     00000000                                                                                                                        000000000000000000
F0010000008537900005000003319910700013552100000000000000000201604270002001LUZ DARY JIMENEZ MARTINEZ                         D000000000008000000000000000000000100010010000000000000000000000F0010000008537900520160427000101 00000000000000000000000000000000000000000000000000000000000000000000000000000000000000000000000000000000000000000N 00000000000NCONT   00    00000000000          00000000000000000000000000000000000000000000 000000000000000A000000000000000000000000000000000000000000000 000000000000000000000000000000000000000     00000000                                                                                                                        000000000000000000
F0010000008538000001000090044096100011050500000000000000000201604270002001COMERCIALIZADORA YOKOMAR SAS                      D000000004300000000000000000000000100010010000000000000000000000F0010000008538000120160427000101 00000000000000000000000000000000000000000000000000000000000000000000000000000000000000000000000000000000000000000N 00000000000NCONT   00    00000000000          00000000000000000000000000000000000000000000 000000000000000A000000000000000000000000000000000000000000000 000000000000000000000000000000000000000     00000000                                                                                                                        000000000000000000
F0010000008538000002000090044096100041450500000000000000000201604270002001COMERCIALIZADORA YOKOMAR SAS                      C000000002800000000000000000000000100010010000000000000000000000F0010000008538000220160427000101 00000000000000000000000000000000000000000000000000000000000000000000000000000000000000000000000000000000000000000N 00000000000NCONT   00    00000000000          00000000000000000000000000000000000000000000 000000000000000A000000000000000000000000000000000000000000000 000000000000000000000000000000000000000     00000000                                                                                                                        000000000000000000
F0010000008538000003000090044096100042505000000000000000000201604270002001COMERCIALIZADORA YOKOMAR SAS                      C000000001500000000000000000000000100010010000000000000000000000F0010000008538000320160427000101 00000000000000000000000000000000000000000000000000000000000000000000000000000000000000000000000000000000000000000N 00000000000NCONT   00    00000000000          00000000000000000000000000000000000000000000 000000000000000A000000000000000000000000000000000000000000000 000000000000000000000000000000000000000     00000000                                                                                                                        000000000000000000
F0010000008538000004000090044096100023658300000000000000000201604270002001COMERCIALIZADORA YOKOMAR SAS                      C000000000022400000000000000000000100010010000000000000000000000F0010000008538000420160427000101 00000000000000000000000000000000000000000000000000000000000000000000000000000000000000000000000000000000000000000N 00000000000NCONT   00    00000000000          00000000000000000000000000000000000000000000 000000000000000A000000000000000000000000000000000000000000000 000000000000000000000000000000000000000     00000000                                                                                                                        000000000000000000
F0010000008538000005000090044096100013552100000000000000000201604270002001COMERCIALIZADORA YOKOMAR SAS                      D000000000022400000000000000000000100010010000000000000000000000F0010000008538000520160427000101 00000000000000000000000000000000000000000000000000000000000000000000000000000000000000000000000000000000000000000N 00000000000NCONT   00    00000000000          00000000000000000000000000000000000000000000 000000000000000A000000000000000000000000000000000000000000000 000000000000000000000000000000000000000     00000000                                                                                                                        000000000000000000
F0010000008538100001000090039833800011050500000000000000000201604270002001AGROGANADERO DEL CARIBE S.A.S                     D000000001800000000000000000000000100010010000000000000000000000F0010000008538100120160427000101 00000000000000000000000000000000000000000000000000000000000000000000000000000000000000000000000000000000000000000N 00000000000NCONT   00    00000000000          00000000000000000000000000000000000000000000 000000000000000A000000000000000000000000000000000000000000000 000000000000000000000000000000000000000     00000000                                                                                                                        000000000000000000
F0010000008538100002000090039833800041450500000000000000000201604270002001AGROGANADERO DEL CARIBE S.A.S                     C000000001500000000000000000000000100010010000000000000000000000F0010000008538100220160427000101 00000000000000000000000000000000000000000000000000000000000000000000000000000000000000000000000000000000000000000N 00000000000NCONT   00    00000000000          00000000000000000000000000000000000000000000 000000000000000A000000000000000000000000000000000000000000000 000000000000000000000000000000000000000     00000000                                                                                                                        000000000000000000
F0010000008538100003000090039833800042505000000000000000000201604270002001AGROGANADERO DEL CARIBE S.A.S                     C000000000300000000000000000000000100010010000000000000000000000F0010000008538100320160427000101 00000000000000000000000000000000000000000000000000000000000000000000000000000000000000000000000000000000000000000N 00000000000NCONT   00    00000000000          00000000000000000000000000000000000000000000 000000000000000A000000000000000000000000000000000000000000000 000000000000000000000000000000000000000     00000000                                                                                                                        000000000000000000
F0010000008538100004000090039833800023658300000000000000000201604270002001AGROGANADERO DEL CARIBE S.A.S                     C000000000012000000000000000000000100010010000000000000000000000F0010000008538100420160427000101 00000000000000000000000000000000000000000000000000000000000000000000000000000000000000000000000000000000000000000N 00000000000NCONT   00    00000000000          00000000000000000000000000000000000000000000 000000000000000A000000000000000000000000000000000000000000000 000000000000000000000000000000000000000     00000000                                                                                                                        000000000000000000
F0010000008538100005000090039833800013552100000000000000000201604270002001AGROGANADERO DEL CARIBE S.A.S                     D000000000012000000000000000000000100010010000000000000000000000F0010000008538100520160427000101 00000000000000000000000000000000000000000000000000000000000000000000000000000000000000000000000000000000000000000N 00000000000NCONT   00    00000000000          00000000000000000000000000000000000000000000 000000000000000A000000000000000000000000000000000000000000000 000000000000000000000000000000000000000     00000000                                                                                                                        000000000000000000
F0010000008538200001000003207718300011050500000000000000000201604270002001MARIA GILMA  RAMIREZ GARCIA                       D000000015000000000000000000000000100010010000000000000000000000F0010000008538200120160427000101 00000000000000000000000000000000000000000000000000000000000000000000000000000000000000000000000000000000000000000N 00000000000NCONT   00    00000000000          00000000000000000000000000000000000000000000 000000000000000A000000000000000000000000000000000000000000000 000000000000000000000000000000000000000     00000000                                                                                                                        000000000000000000
F0010000008538200002000003207718300041450500000000000000000201604270002001MARIA GILMA  RAMIREZ GARCIA                       C000000012000000000000000000000000100010010000000000000000000000F0010000008538200220160427000101 00000000000000000000000000000000000000000000000000000000000000000000000000000000000000000000000000000000000000000N 00000000000NCONT   00    00000000000          00000000000000000000000000000000000000000000 000000000000000A000000000000000000000000000000000000000000000 000000000000000000000000000000000000000     00000000                                                                                                                        000000000000000000
