F0010000007089700001000090049854300013050500000000000000000201505040002001TRAPOS INDUSTRIALES DE COLOMBIA SAS               D000000012155000000000000000000000100010010000000000000000000000F0010000007089700120150504000101 00000000000000000000000000000000000000000000000000000000000000000000000000000000000000000000000000000000000000000N 00000000000NCONT   00    00000000000          00000000000000000000000000000000000000000000 000000000000000A000000000000000000000000000000000000000000000 000000000000000000000000000000000000000     00000000                                                                                                                        000000000000000000
F0010000007089700002000090049854300041450500000000000000000201505040002001TRAPOS INDUSTRIALES DE COLOMBIA SAS               C000000011000000000000000000000000100010010000000000000000000000F0010000007089700220150504000101 00000000000000000000000000000000000000000000000000000000000000000000000000000000000000000000000000000000000000000N 00000000000NCONT   00    00000000000          00000000000000000000000000000000000000000000 000000000000000A000000000000000000000000000000000000000000000 000000000000000000000000000000000000000     00000000                                                                                                                        000000000000000000
F0010000007089700003000090049854300042505000000000000000000201505040002001TRAPOS INDUSTRIALES DE COLOMBIA SAS               C000000001155000000000000000000000100010010000000000000000000000F0010000007089700320150504000101 00000000000000000000000000000000000000000000000000000000000000000000000000000000000000000000000000000000000000000N 00000000000NCONT   00    00000000000          00000000000000000000000000000000000000000000 000000000000000A000000000000000000000000000000000000000000000 000000000000000000000000000000000000000     00000000                                                                                                                        000000000000000000
F0010000007089700004000090049854300023658300000000000000000201505040002001TRAPOS INDUSTRIALES DE COLOMBIA SAS               C000000000088000000000000000000000100010010000000000000000000000F0010000007089700420150504000101 00000000000000000000000000000000000000000000000000000000000000000000000000000000000000000000000000000000000000000N 00000000000NCONT   00    00000000000          00000000000000000000000000000000000000000000 000000000000000A000000000000000000000000000000000000000000000 000000000000000000000000000000000000000     00000000                                                                                                                        000000000000000000
F0010000007089700005000090049854300013552100000000000000000201505040002001TRAPOS INDUSTRIALES DE COLOMBIA SAS               D000000000088000000000000000000000100010010000000000000000000000F0010000007089700520150504000101 00000000000000000000000000000000000000000000000000000000000000000000000000000000000000000000000000000000000000000N 00000000000NCONT   00    00000000000          00000000000000000000000000000000000000000000 000000000000000A000000000000000000000000000000000000000000000 000000000000000000000000000000000000000     00000000                                                                                                                        000000000000000000
F0010000007089800001000089010233900013050500000000000000000201505040002001JAIRO ECHEVERRI Y CIA LTDA                        D000000019016000000000000000000000100010010000000000000000000000F0010000007089800120150504000101 00000000000000000000000000000000000000000000000000000000000000000000000000000000000000000000000000000000000000000N 00000000000NCONT   00    00000000000          00000000000000000000000000000000000000000000 000000000000000A000000000000000000000000000000000000000000000 000000000000000000000000000000000000000     00000000                                                                                                                        000000000000000000
F0010000007089800002000089010233900041450500000000000000000201505040002001JAIRO ECHEVERRI Y CIA LTDA                        C000000015440000000000000000000000100010010000000000000000000000F0010000007089800220150504000101 00000000000000000000000000000000000000000000000000000000000000000000000000000000000000000000000000000000000000000N 00000000000NCONT   00    00000000000          00000000000000000000000000000000000000000000 000000000000000A000000000000000000000000000000000000000000000 000000000000000000000000000000000000000     00000000                                                                                                                        000000000000000000
F0010000007089800003000089010233900042505000000000000000000201505040002001JAIRO ECHEVERRI Y CIA LTDA                        C000000003576000000000000000000000100010010000000000000000000000F0010000007089800320150504000101 00000000000000000000000000000000000000000000000000000000000000000000000000000000000000000000000000000000000000000N 00000000000NCONT   00    00000000000          00000000000000000000000000000000000000000000 000000000000000A000000000000000000000000000000000000000000000 000000000000000000000000000000000000000     00000000                                                                                                                        000000000000000000
F0010000007089800004000089010233900023658300000000000000000201505040002001JAIRO ECHEVERRI Y CIA LTDA                        C000000000123500000000000000000000100010010000000000000000000000F0010000007089800420150504000101 00000000000000000000000000000000000000000000000000000000000000000000000000000000000000000000000000000000000000000N 00000000000NCONT   00    00000000000          00000000000000000000000000000000000000000000 000000000000000A000000000000000000000000000000000000000000000 000000000000000000000000000000000000000     00000000                                                                                                                        000000000000000000
F0010000007089800005000089010233900013552100000000000000000201505040002001JAIRO ECHEVERRI Y CIA LTDA                        D000000000123500000000000000000000100010010000000000000000000000F0010000007089800520150504000101 00000000000000000000000000000000000000000000000000000000000000000000000000000000000000000000000000000000000000000N 00000000000NCONT   00    00000000000          00000000000000000000000000000000000000000000 000000000000000A000000000000000000000000000000000000000000000 000000000000000000000000000000000000000     00000000                                                                                                                        000000000000000000
F0010000007089900001000083001155300013050500000000000000000201505040002001COMERCIALIZADORA RUBEN S LTDA                     D000000029774400000000000000000000100010010000000000000000000000F0010000007089900120150504000101 00000000000000000000000000000000000000000000000000000000000000000000000000000000000000000000000000000000000000000N 00000000000NCONT   00    00000000000          00000000000000000000000000000000000000000000 000000000000000A000000000000000000000000000000000000000000000 000000000000000000000000000000000000000     00000000                                                                                                                        000000000000000000
F0010000007089900002000083001155300041450500000000000000000201505040002001COMERCIALIZADORA RUBEN S LTDA                     C000000026558400000000000000000000100010010000000000000000000000F0010000007089900220150504000101 00000000000000000000000000000000000000000000000000000000000000000000000000000000000000000000000000000000000000000N 00000000000NCONT   00    00000000000          00000000000000000000000000000000000000000000 000000000000000A000000000000000000000000000000000000000000000 000000000000000000000000000000000000000     00000000                                                                                                                        000000000000000000
F0010000007089900003000083001155300042505000000000000000000201505040002001COMERCIALIZADORA RUBEN S LTDA                     C000000003216000000000000000000000100010010000000000000000000000F0010000007089900320150504000101 00000000000000000000000000000000000000000000000000000000000000000000000000000000000000000000000000000000000000000N 00000000000NCONT   00    00000000000          00000000000000000000000000000000000000000000 000000000000000A000000000000000000000000000000000000000000000 000000000000000000000000000000000000000     00000000                                                                                                                        000000000000000000
F0010000007089900004000083001155300023658300000000000000000201505040002001COMERCIALIZADORA RUBEN S LTDA                     C000000000212500000000000000000000100010010000000000000000000000F0010000007089900420150504000101 00000000000000000000000000000000000000000000000000000000000000000000000000000000000000000000000000000000000000000N 00000000000NCONT   00    00000000000          00000000000000000000000000000000000000000000 000000000000000A000000000000000000000000000000000000000000000 000000000000000000000000000000000000000     00000000                                                                                                                        000000000000000000
F0010000007089900005000083001155300013552100000000000000000201505040002001COMERCIALIZADORA RUBEN S LTDA                     D000000000212500000000000000000000100010010000000000000000000000F0010000007089900520150504000101 00000000000000000000000000000000000000000000000000000000000000000000000000000000000000000000000000000000000000000N 00000000000NCONT   00    00000000000          00000000000000000000000000000000000000000000 000000000000000A000000000000000000000000000000000000000000000 000000000000000000000000000000000000000     00000000                                                                                                                        000000000000000000
F0010000007090000001000090013035500013050500000000000000000201505040002001FUJIAN SHAN S.A.                                  D000000050307400000000000000000000100010010000000000000000000000F0010000007090000120150504000101 00000000000000000000000000000000000000000000000000000000000000000000000000000000000000000000000000000000000000000N 00000000000NCONT   00    00000000000          00000000000000000000000000000000000000000000 000000000000000A000000000000000000000000000000000000000000000 000000000000000000000000000000000000000     00000000                                                                                                                        000000000000000000
F0010000007090000002000090013035500041450500000000000000000201505040002001FUJIAN SHAN S.A.                                  C000000049007400000000000000000000100010010000000000000000000000F0010000007090000220150504000101 00000000000000000000000000000000000000000000000000000000000000000000000000000000000000000000000000000000000000000N 00000000000NCONT   00    00000000000          00000000000000000000000000000000000000000000 000000000000000A000000000000000000000000000000000000000000000 000000000000000000000000000000000000000     00000000                                                                                                                        000000000000000000
F0010000007090000003000090013035500042505000000000000000000201505040002001FUJIAN SHAN S.A.                                  C000000001300000000000000000000000100010010000000000000000000000F0010000007090000320150504000101 00000000000000000000000000000000000000000000000000000000000000000000000000000000000000000000000000000000000000000N 00000000000NCONT   00    00000000000          00000000000000000000000000000000000000000000 000000000000000A000000000000000000000000000000000000000000000 000000000000000000000000000000000000000     00000000                                                                                                                        000000000000000000
F0010000007090000004000090013035500023658300000000000000000201505040002001FUJIAN SHAN S.A.                                  C000000000392100000000000000000000100010010000000000000000000000F0010000007090000420150504000101 00000000000000000000000000000000000000000000000000000000000000000000000000000000000000000000000000000000000000000N 00000000000NCONT   00    00000000000          00000000000000000000000000000000000000000000 000000000000000A000000000000000000000000000000000000000000000 000000000000000000000000000000000000000     00000000                                                                                                                        000000000000000000
F0010000007090000005000090013035500013552100000000000000000201505040002001FUJIAN SHAN S.A.                                  D000000000392100000000000000000000100010010000000000000000000000F0010000007090000520150504000101 00000000000000000000000000000000000000000000000000000000000000000000000000000000000000000000000000000000000000000N 00000000000NCONT   00    00000000000          00000000000000000000000000000000000000000000 000000000000000A000000000000000000000000000000000000000000000 000000000000000000000000000000000000000     00000000                                                                                                                        000000000000000000
F0010000007090100001000086000490200013050500000000000000000201505040002001PROV. DE PAPELES ANDINA S.A.                      D000000112794100000000000000000000100010010000000000000000000000F0010000007090100120150504000101 00000000000000000000000000000000000000000000000000000000000000000000000000000000000000000000000000000000000000000N 00000000000NCONT   00    00000000000          00000000000000000000000000000000000000000000 000000000000000A000000000000000000000000000000000000000000000 000000000000000000000000000000000000000     00000000                                                                                                                        000000000000000000
F0010000007090100002000086000490200041450500000000000000000201505040002001PROV. DE PAPELES ANDINA S.A.                      C000000101183200000000000000000000100010010000000000000000000000F0010000007090100220150504000101 00000000000000000000000000000000000000000000000000000000000000000000000000000000000000000000000000000000000000000N 00000000000NCONT   00    00000000000          00000000000000000000000000000000000000000000 000000000000000A000000000000000000000000000000000000000000000 000000000000000000000000000000000000000     00000000                                                                                                                        000000000000000000
F0010000007090100003000086000490200042505000000000000000000201505040002001PROV. DE PAPELES ANDINA S.A.                      C000000011610900000000000000000000100010010000000000000000000000F0010000007090100320150504000101 00000000000000000000000000000000000000000000000000000000000000000000000000000000000000000000000000000000000000000N 00000000000NCONT   00    00000000000          00000000000000000000000000000000000000000000 000000000000000A000000000000000000000000000000000000000000000 000000000000000000000000000000000000000     00000000                                                                                                                        000000000000000000
F0010000007090100004000086000490200023658300000000000000000201505040002001PROV. DE PAPELES ANDINA S.A.                      C000000000809500000000000000000000100010010000000000000000000000F0010000007090100420150504000101 00000000000000000000000000000000000000000000000000000000000000000000000000000000000000000000000000000000000000000N 00000000000NCONT   00    00000000000          00000000000000000000000000000000000000000000 000000000000000A000000000000000000000000000000000000000000000 000000000000000000000000000000000000000     00000000                                                                                                                        000000000000000000
F0010000007090100005000086000490200013552100000000000000000201505040002001PROV. DE PAPELES ANDINA S.A.                      D000000000809500000000000000000000100010010000000000000000000000F0010000007090100520150504000101 00000000000000000000000000000000000000000000000000000000000000000000000000000000000000000000000000000000000000000N 00000000000NCONT   00    00000000000          00000000000000000000000000000000000000000000 000000000000000A000000000000000000000000000000000000000000000 000000000000000000000000000000000000000     00000000                                                                                                                        000000000000000000
F0010000007090200001000080000083500013050500000000000000000201505040002001DISTRIB IND ALIPAR Y CIA LTDA                     D000000043500000000000000000000000100010010000000000000000000000F0010000007090200120150504000101 00000000000000000000000000000000000000000000000000000000000000000000000000000000000000000000000000000000000000000N 00000000000NCONT   00    00000000000          00000000000000000000000000000000000000000000 000000000000000A000000000000000000000000000000000000000000000 000000000000000000000000000000000000000     00000000                                                                                                                        000000000000000000
F0010000007090200002000080000083500041450500000000000000000201505040002001DISTRIB IND ALIPAR Y CIA LTDA                     C000000040500000000000000000000000100010010000000000000000000000F0010000007090200220150504000101 00000000000000000000000000000000000000000000000000000000000000000000000000000000000000000000000000000000000000000N 00000000000NCONT   00    00000000000          00000000000000000000000000000000000000000000 000000000000000A000000000000000000000000000000000000000000000 000000000000000000000000000000000000000     00000000                                                                                                                        000000000000000000
F0010000007090200003000080000083500042505000000000000000000201505040002001DISTRIB IND ALIPAR Y CIA LTDA                     C000000003000000000000000000000000100010010000000000000000000000F0010000007090200320150504000101 00000000000000000000000000000000000000000000000000000000000000000000000000000000000000000000000000000000000000000N 00000000000NCONT   00    00000000000          00000000000000000000000000000000000000000000 000000000000000A000000000000000000000000000000000000000000000 000000000000000000000000000000000000000     00000000                                                                                                                        000000000000000000
F0010000007090200004000080000083500023658300000000000000000201505040002001DISTRIB IND ALIPAR Y CIA LTDA                     C000000000324000000000000000000000100010010000000000000000000000F0010000007090200420150504000101 00000000000000000000000000000000000000000000000000000000000000000000000000000000000000000000000000000000000000000N 00000000000NCONT   00    00000000000          00000000000000000000000000000000000000000000 000000000000000A000000000000000000000000000000000000000000000 000000000000000000000000000000000000000     00000000                                                                                                                        000000000000000000
F0010000007090200005000080000083500013552100000000000000000201505040002001DISTRIB IND ALIPAR Y CIA LTDA                     D000000000324000000000000000000000100010010000000000000000000000F0010000007090200520150504000101 00000000000000000000000000000000000000000000000000000000000000000000000000000000000000000000000000000000000000000N 00000000000NCONT   00    00000000000          00000000000000000000000000000000000000000000 000000000000000A000000000000000000000000000000000000000000000 000000000000000000000000000000000000000     00000000                                                                                                                        000000000000000000
F0010000007090300001000089011033000011050500000000000000000201505040002001INDUSTRIAS CRUZ & CAÑON LTDA                     D000000011000000000000000000000000100010010000000000000000000000F0010000007090300120150504000101 00000000000000000000000000000000000000000000000000000000000000000000000000000000000000000000000000000000000000000N 00000000000NCONT   00    00000000000          00000000000000000000000000000000000000000000 000000000000000A000000000000000000000000000000000000000000000 000000000000000000000000000000000000000     00000000                                                                                                                        000000000000000000
F0010000007090300002000089011033000041450500000000000000000201505040002001INDUSTRIAS CRUZ & CAÑON LTDA                     C000000010300000000000000000000000100010010000000000000000000000F0010000007090300220150504000101 00000000000000000000000000000000000000000000000000000000000000000000000000000000000000000000000000000000000000000N 00000000000NCONT   00    00000000000          00000000000000000000000000000000000000000000 000000000000000A000000000000000000000000000000000000000000000 000000000000000000000000000000000000000     00000000                                                                                                                        000000000000000000
F0010000007090300003000089011033000042505000000000000000000201505040002001INDUSTRIAS CRUZ & CAÑON LTDA                     C000000000700000000000000000000000100010010000000000000000000000F0010000007090300320150504000101 00000000000000000000000000000000000000000000000000000000000000000000000000000000000000000000000000000000000000000N 00000000000NCONT   00    00000000000          00000000000000000000000000000000000000000000 000000000000000A000000000000000000000000000000000000000000000 000000000000000000000000000000000000000     00000000                                                                                                                        000000000000000000
F0010000007090300004000089011033000023658300000000000000000201505040002001INDUSTRIAS CRUZ & CAÑON LTDA                     C000000000082400000000000000000000100010010000000000000000000000F0010000007090300420150504000101 00000000000000000000000000000000000000000000000000000000000000000000000000000000000000000000000000000000000000000N 00000000000NCONT   00    00000000000          00000000000000000000000000000000000000000000 000000000000000A000000000000000000000000000000000000000000000 000000000000000000000000000000000000000     00000000                                                                                                                        000000000000000000
F0010000007090300005000089011033000013552100000000000000000201505040002001INDUSTRIAS CRUZ & CAÑON LTDA                     D000000000082400000000000000000000100010010000000000000000000000F0010000007090300520150504000101 00000000000000000000000000000000000000000000000000000000000000000000000000000000000000000000000000000000000000000N 00000000000NCONT   00    00000000000          00000000000000000000000000000000000000000000 000000000000000A000000000000000000000000000000000000000000000 000000000000000000000000000000000000000     00000000                                                                                                                        000000000000000000
F0010000007090400001000081102758700013050500000000000000000201505040002001C.I. ABRACOL S.A EMA                              D000000105680300000000000000000000100010010000000000000000000000F0010000007090400120150504000101 00000000000000000000000000000000000000000000000000000000000000000000000000000000000000000000000000000000000000000N 00000000000NCONT   00    00000000000          00000000000000000000000000000000000000000000 000000000000000A000000000000000000000000000000000000000000000 000000000000000000000000000000000000000     00000000                                                                                                                        000000000000000000
F0010000007090400002000081102758700041450500000000000000000201505040002001C.I. ABRACOL S.A EMA                              C000000074650000000000000000000000100010010000000000000000000000F0010000007090400220150504000101 00000000000000000000000000000000000000000000000000000000000000000000000000000000000000000000000000000000000000000N 00000000000NCONT   00    00000000000          00000000000000000000000000000000000000000000 000000000000000A000000000000000000000000000000000000000000000 000000000000000000000000000000000000000     00000000                                                                                                                        000000000000000000
F0010000007090400003000081102758700041750100000000000000000201505040002001C.I. ABRACOL S.A EMA                              D000000002239500000000000000000000100010010000000000000000000000F0010000007090400320150504000101 00000000000000000000000000000000000000000000000000000000000000000000000000000000000000000000000000000000000000000N 00000000000NCONT   00    00000000000          00000000000000000000000000000000000000000000 000000000000000A000000000000000000000000000000000000000000000 000000000000000000000000000000000000000     00000000                                                                                                                        000000000000000000
F0010000007090400004000081102758700042505000000000000000000201505040002001C.I. ABRACOL S.A EMA                              C000000033269800000000000000000000100010010000000000000000000000F0010000007090400420150504000101 00000000000000000000000000000000000000000000000000000000000000000000000000000000000000000000000000000000000000000N 00000000000NCONT   00    00000000000          00000000000000000000000000000000000000000000 000000000000000A000000000000000000000000000000000000000000000 000000000000000000000000000000000000000     00000000                                                                                                                        000000000000000000
F0010000007090400005000081102758700023658300000000000000000201505040002001C.I. ABRACOL S.A EMA                              C000000000597200000000000000000000100010010000000000000000000000F0010000007090400520150504000101 00000000000000000000000000000000000000000000000000000000000000000000000000000000000000000000000000000000000000000N 00000000000NCONT   00    00000000000          00000000000000000000000000000000000000000000 000000000000000A000000000000000000000000000000000000000000000 000000000000000000000000000000000000000     00000000                                                                                                                        000000000000000000
F0010000007090400006000081102758700013552100000000000000000201505040002001C.I. ABRACOL S.A EMA                              D000000000597200000000000000000000100010010000000000000000000000F0010000007090400620150504000101 00000000000000000000000000000000000000000000000000000000000000000000000000000000000000000000000000000000000000000N 00000000000NCONT   00    00000000000          00000000000000000000000000000000000000000000 000000000000000A000000000000000000000000000000000000000000000 000000000000000000000000000000000000000     00000000                                                                                                                        000000000000000000
F0010000007090500001000081102758700013050500000000000000000201505040002001C.I. ABRACOL S.A EMA                              D000000062338800000000000000000000100010010000000000000000000000F0010000007090500120150504000101 00000000000000000000000000000000000000000000000000000000000000000000000000000000000000000000000000000000000000000N 00000000000NCONT   00    00000000000          00000000000000000000000000000000000000000000 000000000000000A000000000000000000000000000000000000000000000 000000000000000000000000000000000000000     00000000                                                                                                                        000000000000000000
F0010000007090500002000081102758700041450500000000000000000201505040002001C.I. ABRACOL S.A EMA                              C000000041850000000000000000000000100010010000000000000000000000F0010000007090500220150504000101 00000000000000000000000000000000000000000000000000000000000000000000000000000000000000000000000000000000000000000N 00000000000NCONT   00    00000000000          00000000000000000000000000000000000000000000 000000000000000A000000000000000000000000000000000000000000000 000000000000000000000000000000000000000     00000000                                                                                                                        000000000000000000
F0010000007090500003000081102758700041750100000000000000000201505040002001C.I. ABRACOL S.A EMA                              D000000001255500000000000000000000100010010000000000000000000000F0010000007090500320150504000101 00000000000000000000000000000000000000000000000000000000000000000000000000000000000000000000000000000000000000000N 00000000000NCONT   00    00000000000          00000000000000000000000000000000000000000000 000000000000000A000000000000000000000000000000000000000000000 000000000000000000000000000000000000000     00000000                                                                                                                        000000000000000000
F0010000007090500004000081102758700042505000000000000000000201505040002001C.I. ABRACOL S.A EMA                              C000000021744300000000000000000000100010010000000000000000000000F0010000007090500420150504000101 00000000000000000000000000000000000000000000000000000000000000000000000000000000000000000000000000000000000000000N 00000000000NCONT   00    00000000000          00000000000000000000000000000000000000000000 000000000000000A000000000000000000000000000000000000000000000 000000000000000000000000000000000000000     00000000                                                                                                                        000000000000000000
F0010000007090500005000081102758700023658300000000000000000201505040002001C.I. ABRACOL S.A EMA                              C000000000334800000000000000000000100010010000000000000000000000F0010000007090500520150504000101 00000000000000000000000000000000000000000000000000000000000000000000000000000000000000000000000000000000000000000N 00000000000NCONT   00    00000000000          00000000000000000000000000000000000000000000 000000000000000A000000000000000000000000000000000000000000000 000000000000000000000000000000000000000     00000000                                                                                                                        000000000000000000
F0010000007090500006000081102758700013552100000000000000000201505040002001C.I. ABRACOL S.A EMA                              D000000000334800000000000000000000100010010000000000000000000000F0010000007090500620150504000101 00000000000000000000000000000000000000000000000000000000000000000000000000000000000000000000000000000000000000000N 00000000000NCONT   00    00000000000          00000000000000000000000000000000000000000000 000000000000000A000000000000000000000000000000000000000000000 000000000000000000000000000000000000000     00000000                                                                                                                        000000000000000000
F0010000007090600001000081102758700013050500000000000000000201505040002001C.I. ABRACOL S.A EMA                              D000000044347500000000000000000000100010010000000000000000000000F0010000007090600120150504000101 00000000000000000000000000000000000000000000000000000000000000000000000000000000000000000000000000000000000000000N 00000000000NCONT   00    00000000000          00000000000000000000000000000000000000000000 000000000000000A000000000000000000000000000000000000000000000 000000000000000000000000000000000000000     00000000                                                                                                                        000000000000000000
F0010000007090600002000081102758700041450500000000000000000201505040002001C.I. ABRACOL S.A EMA                              C000000025620000000000000000000000100010010000000000000000000000F0010000007090600220150504000101 00000000000000000000000000000000000000000000000000000000000000000000000000000000000000000000000000000000000000000N 00000000000NCONT   00    00000000000          00000000000000000000000000000000000000000000 000000000000000A000000000000000000000000000000000000000000000 000000000000000000000000000000000000000     00000000                                                                                                                        000000000000000000
F0010000007090600003000081102758700041750100000000000000000201505040002001C.I. ABRACOL S.A EMA                              D000000000768600000000000000000000100010010000000000000000000000F0010000007090600320150504000101 00000000000000000000000000000000000000000000000000000000000000000000000000000000000000000000000000000000000000000N 00000000000NCONT   00    00000000000          00000000000000000000000000000000000000000000 000000000000000A000000000000000000000000000000000000000000000 000000000000000000000000000000000000000     00000000                                                                                                                        000000000000000000
F0010000007090600004000081102758700042505000000000000000000201505040002001C.I. ABRACOL S.A EMA                              C000000019496100000000000000000000100010010000000000000000000000F0010000007090600420150504000101 00000000000000000000000000000000000000000000000000000000000000000000000000000000000000000000000000000000000000000N 00000000000NCONT   00    00000000000          00000000000000000000000000000000000000000000 000000000000000A000000000000000000000000000000000000000000000 000000000000000000000000000000000000000     00000000                                                                                                                        000000000000000000
F0010000007090600005000081102758700023658300000000000000000201505040002001C.I. ABRACOL S.A EMA                              C000000000205000000000000000000000100010010000000000000000000000F0010000007090600520150504000101 00000000000000000000000000000000000000000000000000000000000000000000000000000000000000000000000000000000000000000N 00000000000NCONT   00    00000000000          00000000000000000000000000000000000000000000 000000000000000A000000000000000000000000000000000000000000000 000000000000000000000000000000000000000     00000000                                                                                                                        000000000000000000
F0010000007090600006000081102758700013552100000000000000000201505040002001C.I. ABRACOL S.A EMA                              D000000000205000000000000000000000100010010000000000000000000000F0010000007090600620150504000101 00000000000000000000000000000000000000000000000000000000000000000000000000000000000000000000000000000000000000000N 00000000000NCONT   00    00000000000          00000000000000000000000000000000000000000000 000000000000000A000000000000000000000000000000000000000000000 000000000000000000000000000000000000000     00000000                                                                                                                        000000000000000000
F0010000007090700001000081102758700013050500000000000000000201505040002001C.I. ABRACOL S.A EMA                              D000000048075800000000000000000000100010010000000000000000000000F0010000007090700120150504000101 00000000000000000000000000000000000000000000000000000000000000000000000000000000000000000000000000000000000000000N 00000000000NCONT   00    00000000000          00000000000000000000000000000000000000000000 000000000000000A000000000000000000000000000000000000000000000 000000000000000000000000000000000000000     00000000                                                                                                                        000000000000000000
F0010000007090700002000081102758700041450500000000000000000201505040002001C.I. ABRACOL S.A EMA                              C000000025200000000000000000000000100010010000000000000000000000F0010000007090700220150504000101 00000000000000000000000000000000000000000000000000000000000000000000000000000000000000000000000000000000000000000N 00000000000NCONT   00    00000000000          00000000000000000000000000000000000000000000 000000000000000A000000000000000000000000000000000000000000000 000000000000000000000000000000000000000     00000000                                                                                                                        000000000000000000
F0010000007090700003000081102758700041750100000000000000000201505040002001C.I. ABRACOL S.A EMA                              D000000000756000000000000000000000100010010000000000000000000000F0010000007090700320150504000101 00000000000000000000000000000000000000000000000000000000000000000000000000000000000000000000000000000000000000000N 00000000000NCONT   00    00000000000          00000000000000000000000000000000000000000000 000000000000000A000000000000000000000000000000000000000000000 000000000000000000000000000000000000000     00000000                                                                                                                        000000000000000000
F0010000007090700004000081102758700042505000000000000000000201505040002001C.I. ABRACOL S.A EMA                              C000000023631800000000000000000000100010010000000000000000000000F0010000007090700420150504000101 00000000000000000000000000000000000000000000000000000000000000000000000000000000000000000000000000000000000000000N 00000000000NCONT   00    00000000000          00000000000000000000000000000000000000000000 000000000000000A000000000000000000000000000000000000000000000 000000000000000000000000000000000000000     00000000                                                                                                                        000000000000000000
F0010000007090700005000081102758700023658300000000000000000201505040002001C.I. ABRACOL S.A EMA                              C000000000201600000000000000000000100010010000000000000000000000F0010000007090700520150504000101 00000000000000000000000000000000000000000000000000000000000000000000000000000000000000000000000000000000000000000N 00000000000NCONT   00    00000000000          00000000000000000000000000000000000000000000 000000000000000A000000000000000000000000000000000000000000000 000000000000000000000000000000000000000     00000000                                                                                                                        000000000000000000
F0010000007090700006000081102758700013552100000000000000000201505040002001C.I. ABRACOL S.A EMA                              D000000000201600000000000000000000100010010000000000000000000000F0010000007090700620150504000101 00000000000000000000000000000000000000000000000000000000000000000000000000000000000000000000000000000000000000000N 00000000000NCONT   00    00000000000          00000000000000000000000000000000000000000000 000000000000000A000000000000000000000000000000000000000000000 000000000000000000000000000000000000000     00000000                                                                                                                        000000000000000000
F0010000007090800001000081102758700013050500000000000000000201505040002001C.I. ABRACOL S.A EMA                              D000000100353600000000000000000000100010010000000000000000000000F0010000007090800120150504000101 00000000000000000000000000000000000000000000000000000000000000000000000000000000000000000000000000000000000000000N 00000000000NCONT   00    00000000000          00000000000000000000000000000000000000000000 000000000000000A000000000000000000000000000000000000000000000 000000000000000000000000000000000000000     00000000                                                                                                                        000000000000000000
F0010000007090800002000081102758700041450500000000000000000201505040002001C.I. ABRACOL S.A EMA                              C000000063010000000000000000000000100010010000000000000000000000F0010000007090800220150504000101 00000000000000000000000000000000000000000000000000000000000000000000000000000000000000000000000000000000000000000N 00000000000NCONT   00    00000000000          00000000000000000000000000000000000000000000 000000000000000A000000000000000000000000000000000000000000000 000000000000000000000000000000000000000     00000000                                                                                                                        000000000000000000
F0010000007090800003000081102758700041750100000000000000000201505040002001C.I. ABRACOL S.A EMA                              D000000001890300000000000000000000100010010000000000000000000000F0010000007090800320150504000101 00000000000000000000000000000000000000000000000000000000000000000000000000000000000000000000000000000000000000000N 00000000000NCONT   00    00000000000          00000000000000000000000000000000000000000000 000000000000000A000000000000000000000000000000000000000000000 000000000000000000000000000000000000000     00000000                                                                                                                        000000000000000000
F0010000007090800004000081102758700042505000000000000000000201505040002001C.I. ABRACOL S.A EMA                              C000000039233900000000000000000000100010010000000000000000000000F0010000007090800420150504000101 00000000000000000000000000000000000000000000000000000000000000000000000000000000000000000000000000000000000000000N 00000000000NCONT   00    00000000000          00000000000000000000000000000000000000000000 000000000000000A000000000000000000000000000000000000000000000 000000000000000000000000000000000000000     00000000                                                                                                                        000000000000000000
F0010000007090800005000081102758700023658300000000000000000201505040002001C.I. ABRACOL S.A EMA                              C000000000504100000000000000000000100010010000000000000000000000F0010000007090800520150504000101 00000000000000000000000000000000000000000000000000000000000000000000000000000000000000000000000000000000000000000N 00000000000NCONT   00    00000000000          00000000000000000000000000000000000000000000 000000000000000A000000000000000000000000000000000000000000000 000000000000000000000000000000000000000     00000000                                                                                                                        000000000000000000
F0010000007090800006000081102758700013552100000000000000000201505040002001C.I. ABRACOL S.A EMA                              D000000000504100000000000000000000100010010000000000000000000000F0010000007090800620150504000101 00000000000000000000000000000000000000000000000000000000000000000000000000000000000000000000000000000000000000000N 00000000000NCONT   00    00000000000          00000000000000000000000000000000000000000000 000000000000000A000000000000000000000000000000000000000000000 000000000000000000000000000000000000000     00000000                                                                                                                        000000000000000000
F0010000007090900001000081102758700013050500000000000000000201505040002001C.I. ABRACOL S.A EMA                              D000000125423600000000000000000000100010010000000000000000000000F0010000007090900120150504000101 00000000000000000000000000000000000000000000000000000000000000000000000000000000000000000000000000000000000000000N 00000000000NCONT   00    00000000000          00000000000000000000000000000000000000000000 000000000000000A000000000000000000000000000000000000000000000 000000000000000000000000000000000000000     00000000                                                                                                                        000000000000000000
F0010000007090900002000081102758700041450500000000000000000201505040002001C.I. ABRACOL S.A EMA                              C000000095282800000000000000000000100010010000000000000000000000F0010000007090900220150504000101 00000000000000000000000000000000000000000000000000000000000000000000000000000000000000000000000000000000000000000N 00000000000NCONT   00    00000000000          00000000000000000000000000000000000000000000 000000000000000A000000000000000000000000000000000000000000000 000000000000000000000000000000000000000     00000000                                                                                                                        000000000000000000
F0010000007090900003000081102758700041750100000000000000000201505040002001C.I. ABRACOL S.A EMA                              D000000002858500000000000000000000100010010000000000000000000000F0010000007090900320150504000101 00000000000000000000000000000000000000000000000000000000000000000000000000000000000000000000000000000000000000000N 00000000000NCONT   00    00000000000          00000000000000000000000000000000000000000000 000000000000000A000000000000000000000000000000000000000000000 000000000000000000000000000000000000000     00000000                                                                                                                        000000000000000000
F0010000007090900004000081102758700042505000000000000000000201505040002001C.I. ABRACOL S.A EMA                              C000000032999300000000000000000000100010010000000000000000000000F0010000007090900420150504000101 00000000000000000000000000000000000000000000000000000000000000000000000000000000000000000000000000000000000000000N 00000000000NCONT   00    00000000000          00000000000000000000000000000000000000000000 000000000000000A000000000000000000000000000000000000000000000 000000000000000000000000000000000000000     00000000                                                                                                                        000000000000000000
F0010000007090900005000081102758700023658300000000000000000201505040002001C.I. ABRACOL S.A EMA                              C000000000762300000000000000000000100010010000000000000000000000F0010000007090900520150504000101 00000000000000000000000000000000000000000000000000000000000000000000000000000000000000000000000000000000000000000N 00000000000NCONT   00    00000000000          00000000000000000000000000000000000000000000 000000000000000A000000000000000000000000000000000000000000000 000000000000000000000000000000000000000     00000000                                                                                                                        000000000000000000
F0010000007090900006000081102758700013552100000000000000000201505040002001C.I. ABRACOL S.A EMA                              D000000000762300000000000000000000100010010000000000000000000000F0010000007090900620150504000101 00000000000000000000000000000000000000000000000000000000000000000000000000000000000000000000000000000000000000000N 00000000000NCONT   00    00000000000          00000000000000000000000000000000000000000000 000000000000000A000000000000000000000000000000000000000000000 000000000000000000000000000000000000000     00000000                                                                                                                        000000000000000000
F0010000007091000001000080018525700013050500000000000000000201505040002001SUMINISTROS Y ACABADOS LTDA                       D000000012888500000000000000000000100010010000000000000000000000F0010000007091000120150504000101 00000000000000000000000000000000000000000000000000000000000000000000000000000000000000000000000000000000000000000N 00000000000NCONT   00    00000000000          00000000000000000000000000000000000000000000 000000000000000A000000000000000000000000000000000000000000000 000000000000000000000000000000000000000     00000000                                                                                                                        000000000000000000
F0010000007091000002000080018525700041450500000000000000000201505040002001SUMINISTROS Y ACABADOS LTDA                       C000000010780000000000000000000000100010010000000000000000000000F0010000007091000220150504000101 00000000000000000000000000000000000000000000000000000000000000000000000000000000000000000000000000000000000000000N 00000000000NCONT   00    00000000000          00000000000000000000000000000000000000000000 000000000000000A000000000000000000000000000000000000000000000 000000000000000000000000000000000000000     00000000                                                                                                                        000000000000000000
F0010000007091000003000080018525700042505000000000000000000201505040002001SUMINISTROS Y ACABADOS LTDA                       C000000002108500000000000000000000100010010000000000000000000000F0010000007091000320150504000101 00000000000000000000000000000000000000000000000000000000000000000000000000000000000000000000000000000000000000000N 00000000000NCONT   00    00000000000          00000000000000000000000000000000000000000000 000000000000000A000000000000000000000000000000000000000000000 000000000000000000000000000000000000000     00000000                                                                                                                        000000000000000000
F0010000007091000004000080018525700023658300000000000000000201505040002001SUMINISTROS Y ACABADOS LTDA                       C000000000086200000000000000000000100010010000000000000000000000F0010000007091000420150504000101 00000000000000000000000000000000000000000000000000000000000000000000000000000000000000000000000000000000000000000N 00000000000NCONT   00    00000000000          00000000000000000000000000000000000000000000 000000000000000A000000000000000000000000000000000000000000000 000000000000000000000000000000000000000     00000000                                                                                                                        000000000000000000
F0010000007091000005000080018525700013552100000000000000000201505040002001SUMINISTROS Y ACABADOS LTDA                       D000000000086200000000000000000000100010010000000000000000000000F0010000007091000520150504000101 00000000000000000000000000000000000000000000000000000000000000000000000000000000000000000000000000000000000000000N 00000000000NCONT   00    00000000000          00000000000000000000000000000000000000000000 000000000000000A000000000000000000000000000000000000000000000 000000000000000000000000000000000000000     00000000                                                                                                                        000000000000000000
F0010000007091100001000080200069100013050500000000000000000201505040002001PEGANTES Y PINTURAS ATLAS LTDA                    D000000010370700000000000000000000100010010000000000000000000000F0010000007091100120150504000101 00000000000000000000000000000000000000000000000000000000000000000000000000000000000000000000000000000000000000000N 00000000000NCONT   00    00000000000          00000000000000000000000000000000000000000000 000000000000000A000000000000000000000000000000000000000000000 000000000000000000000000000000000000000     00000000                                                                                                                        000000000000000000
F0010000007091100002000080200069100041450500000000000000000201505040002001PEGANTES Y PINTURAS ATLAS LTDA                    C000000009000000000000000000000000100010010000000000000000000000F0010000007091100220150504000101 00000000000000000000000000000000000000000000000000000000000000000000000000000000000000000000000000000000000000000N 00000000000NCONT   00    00000000000          00000000000000000000000000000000000000000000 000000000000000A000000000000000000000000000000000000000000000 000000000000000000000000000000000000000     00000000                                                                                                                        000000000000000000
F0010000007091100003000080200069100042505000000000000000000201505040002001PEGANTES Y PINTURAS ATLAS LTDA                    C000000001370700000000000000000000100010010000000000000000000000F0010000007091100320150504000101 00000000000000000000000000000000000000000000000000000000000000000000000000000000000000000000000000000000000000000N 00000000000NCONT   00    00000000000          00000000000000000000000000000000000000000000 000000000000000A000000000000000000000000000000000000000000000 000000000000000000000000000000000000000     00000000                                                                                                                        000000000000000000
F0010000007091100004000080200069100023658300000000000000000201505040002001PEGANTES Y PINTURAS ATLAS LTDA                    C000000000072000000000000000000000100010010000000000000000000000F0010000007091100420150504000101 00000000000000000000000000000000000000000000000000000000000000000000000000000000000000000000000000000000000000000N 00000000000NCONT   00    00000000000          00000000000000000000000000000000000000000000 000000000000000A000000000000000000000000000000000000000000000 000000000000000000000000000000000000000     00000000                                                                                                                        000000000000000000
F0010000007091100005000080200069100013552100000000000000000201505040002001PEGANTES Y PINTURAS ATLAS LTDA                    D000000000072000000000000000000000100010010000000000000000000000F0010000007091100520150504000101 00000000000000000000000000000000000000000000000000000000000000000000000000000000000000000000000000000000000000000N 00000000000NCONT   00    00000000000          00000000000000000000000000000000000000000000 000000000000000A000000000000000000000000000000000000000000000 000000000000000000000000000000000000000     00000000                                                                                                                        000000000000000000
F0010000007091200001000089070997800013050500000000000000000201505040002001CENTRAL DE TORNILLOS                              D000000031110000000000000000000000100010010000000000000000000000F0010000007091200120150504000101 00000000000000000000000000000000000000000000000000000000000000000000000000000000000000000000000000000000000000000N 00000000000NCONT   00    00000000000          00000000000000000000000000000000000000000000 000000000000000A000000000000000000000000000000000000000000000 000000000000000000000000000000000000000     00000000                                                                                                                        000000000000000000
F0010000007091200002000089070997800041450500000000000000000201505040002001CENTRAL DE TORNILLOS                              C000000029160000000000000000000000100010010000000000000000000000F0010000007091200220150504000101 00000000000000000000000000000000000000000000000000000000000000000000000000000000000000000000000000000000000000000N 00000000000NCONT   00    00000000000          00000000000000000000000000000000000000000000 000000000000000A000000000000000000000000000000000000000000000 000000000000000000000000000000000000000     00000000                                                                                                                        000000000000000000
F0010000007091200003000089070997800042505000000000000000000201505040002001CENTRAL DE TORNILLOS                              C000000001950000000000000000000000100010010000000000000000000000F0010000007091200320150504000101 00000000000000000000000000000000000000000000000000000000000000000000000000000000000000000000000000000000000000000N 00000000000NCONT   00    00000000000          00000000000000000000000000000000000000000000 000000000000000A000000000000000000000000000000000000000000000 000000000000000000000000000000000000000     00000000                                                                                                                        000000000000000000
F0010000007091200004000089070997800023658300000000000000000201505040002001CENTRAL DE TORNILLOS                              C000000000233300000000000000000000100010010000000000000000000000F0010000007091200420150504000101 00000000000000000000000000000000000000000000000000000000000000000000000000000000000000000000000000000000000000000N 00000000000NCONT   00    00000000000          00000000000000000000000000000000000000000000 000000000000000A000000000000000000000000000000000000000000000 000000000000000000000000000000000000000     00000000                                                                                                                        000000000000000000
F0010000007091200005000089070997800013552100000000000000000201505040002001CENTRAL DE TORNILLOS                              D000000000233300000000000000000000100010010000000000000000000000F0010000007091200520150504000101 00000000000000000000000000000000000000000000000000000000000000000000000000000000000000000000000000000000000000000N 00000000000NCONT   00    00000000000          00000000000000000000000000000000000000000000 000000000000000A000000000000000000000000000000000000000000000 000000000000000000000000000000000000000     00000000                                                                                                                        000000000000000000
F0010000007091300001000089021246300013050500000000000000000201505040002001LUBRIGRAS S.A.                                    D000000013680700000000000000000000100010010000000000000000000000F0010000007091300120150504000101 00000000000000000000000000000000000000000000000000000000000000000000000000000000000000000000000000000000000000000N 00000000000NCONT   00    00000000000          00000000000000000000000000000000000000000000 000000000000000A000000000000000000000000000000000000000000000 000000000000000000000000000000000000000     00000000                                                                                                                        000000000000000000
F0010000007091300002000089021246300041450500000000000000000201505040002001LUBRIGRAS S.A.                                    C000000012760000000000000000000000100010010000000000000000000000F0010000007091300220150504000101 00000000000000000000000000000000000000000000000000000000000000000000000000000000000000000000000000000000000000000N 00000000000NCONT   00    00000000000          00000000000000000000000000000000000000000000 000000000000000A000000000000000000000000000000000000000000000 000000000000000000000000000000000000000     00000000                                                                                                                        000000000000000000
F0010000007091300003000089021246300042505000000000000000000201505040002001LUBRIGRAS S.A.                                    C000000000920700000000000000000000100010010000000000000000000000F0010000007091300320150504000101 00000000000000000000000000000000000000000000000000000000000000000000000000000000000000000000000000000000000000000N 00000000000NCONT   00    00000000000          00000000000000000000000000000000000000000000 000000000000000A000000000000000000000000000000000000000000000 000000000000000000000000000000000000000     00000000                                                                                                                        000000000000000000
F0010000007091300004000089021246300023658300000000000000000201505040002001LUBRIGRAS S.A.                                    C000000000102100000000000000000000100010010000000000000000000000F0010000007091300420150504000101 00000000000000000000000000000000000000000000000000000000000000000000000000000000000000000000000000000000000000000N 00000000000NCONT   00    00000000000          00000000000000000000000000000000000000000000 000000000000000A000000000000000000000000000000000000000000000 000000000000000000000000000000000000000     00000000                                                                                                                        000000000000000000
F0010000007091300005000089021246300013552100000000000000000201505040002001LUBRIGRAS S.A.                                    D000000000102100000000000000000000100010010000000000000000000000F0010000007091300520150504000101 00000000000000000000000000000000000000000000000000000000000000000000000000000000000000000000000000000000000000000N 00000000000NCONT   00    00000000000          00000000000000000000000000000000000000000000 000000000000000A000000000000000000000000000000000000000000000 000000000000000000000000000000000000000     00000000                                                                                                                        000000000000000000
F0010000007091400001000080201112800013050500000000000000000201505040002001CANGURO INTERNATIONAL S.A.                        D000000112434900000000000000000000100010010000000000000000000000F0010000007091400120150504000101 00000000000000000000000000000000000000000000000000000000000000000000000000000000000000000000000000000000000000000N 00000000000NCONT   00    00000000000          00000000000000000000000000000000000000000000 000000000000000A000000000000000000000000000000000000000000000 000000000000000000000000000000000000000     00000000                                                                                                                        000000000000000000
F0010000007091400002000080201112800041450500000000000000000201505040002001CANGURO INTERNATIONAL S.A.                        C000000105893400000000000000000000100010010000000000000000000000F0010000007091400220150504000101 00000000000000000000000000000000000000000000000000000000000000000000000000000000000000000000000000000000000000000N 00000000000NCONT   00    00000000000          00000000000000000000000000000000000000000000 000000000000000A000000000000000000000000000000000000000000000 000000000000000000000000000000000000000     00000000                                                                                                                        000000000000000000
F0010000007091400003000080201112800042505000000000000000000201505040002001CANGURO INTERNATIONAL S.A.                        C000000006541500000000000000000000100010010000000000000000000000F0010000007091400320150504000101 00000000000000000000000000000000000000000000000000000000000000000000000000000000000000000000000000000000000000000N 00000000000NCONT   00    00000000000          00000000000000000000000000000000000000000000 000000000000000A000000000000000000000000000000000000000000000 000000000000000000000000000000000000000     00000000                                                                                                                        000000000000000000
F0010000007091400004000080201112800023658300000000000000000201505040002001CANGURO INTERNATIONAL S.A.                        C000000000847100000000000000000000100010010000000000000000000000F0010000007091400420150504000101 00000000000000000000000000000000000000000000000000000000000000000000000000000000000000000000000000000000000000000N 00000000000NCONT   00    00000000000          00000000000000000000000000000000000000000000 000000000000000A000000000000000000000000000000000000000000000 000000000000000000000000000000000000000     00000000                                                                                                                        000000000000000000
F0010000007091400005000080201112800013552100000000000000000201505040002001CANGURO INTERNATIONAL S.A.                        D000000000847100000000000000000000100010010000000000000000000000F0010000007091400520150504000101 00000000000000000000000000000000000000000000000000000000000000000000000000000000000000000000000000000000000000000N 00000000000NCONT   00    00000000000          00000000000000000000000000000000000000000000 000000000000000A000000000000000000000000000000000000000000000 000000000000000000000000000000000000000     00000000                                                                                                                        000000000000000000
F0010000007091500001000080201411900011050500000000000000000201505040002001PLASTISERVICIOS S DE H                            D000000001200000000000000000000000100010010000000000000000000000F0010000007091500120150504000101 00000000000000000000000000000000000000000000000000000000000000000000000000000000000000000000000000000000000000000N 00000000000NCONT   00    00000000000          00000000000000000000000000000000000000000000 000000000000000A000000000000000000000000000000000000000000000 000000000000000000000000000000000000000     00000000                                                                                                                        000000000000000000
F0010000007091500002000080201411900041450500000000000000000201505040002001PLASTISERVICIOS S DE H                            C000000001050000000000000000000000100010010000000000000000000000F0010000007091500220150504000101 00000000000000000000000000000000000000000000000000000000000000000000000000000000000000000000000000000000000000000N 00000000000NCONT   00    00000000000          00000000000000000000000000000000000000000000 000000000000000A000000000000000000000000000000000000000000000 000000000000000000000000000000000000000     00000000                                                                                                                        000000000000000000
F0010000007091500003000080201411900042505000000000000000000201505040002001PLASTISERVICIOS S DE H                            C000000000150000000000000000000000100010010000000000000000000000F0010000007091500320150504000101 00000000000000000000000000000000000000000000000000000000000000000000000000000000000000000000000000000000000000000N 00000000000NCONT   00    00000000000          00000000000000000000000000000000000000000000 000000000000000A000000000000000000000000000000000000000000000 000000000000000000000000000000000000000     00000000                                                                                                                        000000000000000000
F0010000007091500004000080201411900023658300000000000000000201505040002001PLASTISERVICIOS S DE H                            C000000000008400000000000000000000100010010000000000000000000000F0010000007091500420150504000101 00000000000000000000000000000000000000000000000000000000000000000000000000000000000000000000000000000000000000000N 00000000000NCONT   00    00000000000          00000000000000000000000000000000000000000000 000000000000000A000000000000000000000000000000000000000000000 000000000000000000000000000000000000000     00000000                                                                                                                        000000000000000000
F0010000007091500005000080201411900013552100000000000000000201505040002001PLASTISERVICIOS S DE H                            D000000000008400000000000000000000100010010000000000000000000000F0010000007091500520150504000101 00000000000000000000000000000000000000000000000000000000000000000000000000000000000000000000000000000000000000000N 00000000000NCONT   00    00000000000          00000000000000000000000000000000000000000000 000000000000000A000000000000000000000000000000000000000000000 000000000000000000000000000000000000000     00000000                                                                                                                        000000000000000000
F0010000007091600001000000744496800011050500000000000000000201505040002001TOMAS SANCHEZ                                     D000000001000000000000000000000000100010010000000000000000000000F0010000007091600120150504000101 00000000000000000000000000000000000000000000000000000000000000000000000000000000000000000000000000000000000000000N 00000000000NCONT   00    00000000000          00000000000000000000000000000000000000000000 000000000000000A000000000000000000000000000000000000000000000 000000000000000000000000000000000000000     00000000                                                                                                                        000000000000000000
F0010000007091600002000000744496800041450500000000000000000201505040002001TOMAS SANCHEZ                                     C000000000900000000000000000000000100010010000000000000000000000F0010000007091600220150504000101 00000000000000000000000000000000000000000000000000000000000000000000000000000000000000000000000000000000000000000N 00000000000NCONT   00    00000000000          00000000000000000000000000000000000000000000 000000000000000A000000000000000000000000000000000000000000000 000000000000000000000000000000000000000     00000000                                                                                                                        000000000000000000
F0010000007091600003000000744496800042505000000000000000000201505040002001TOMAS SANCHEZ                                     C000000000100000000000000000000000100010010000000000000000000000F0010000007091600320150504000101 00000000000000000000000000000000000000000000000000000000000000000000000000000000000000000000000000000000000000000N 00000000000NCONT   00    00000000000          00000000000000000000000000000000000000000000 000000000000000A000000000000000000000000000000000000000000000 000000000000000000000000000000000000000     00000000                                                                                                                        000000000000000000
F0010000007091600004000000744496800023658300000000000000000201505040002001TOMAS SANCHEZ                                     C000000000007200000000000000000000100010010000000000000000000000F0010000007091600420150504000101 00000000000000000000000000000000000000000000000000000000000000000000000000000000000000000000000000000000000000000N 00000000000NCONT   00    00000000000          00000000000000000000000000000000000000000000 000000000000000A000000000000000000000000000000000000000000000 000000000000000000000000000000000000000     00000000                                                                                                                        000000000000000000
F0010000007091600005000000744496800013552100000000000000000201505040002001TOMAS SANCHEZ                                     D000000000007200000000000000000000100010010000000000000000000000F0010000007091600520150504000101 00000000000000000000000000000000000000000000000000000000000000000000000000000000000000000000000000000000000000000N 00000000000NCONT   00    00000000000          00000000000000000000000000000000000000000000 000000000000000A000000000000000000000000000000000000000000000 000000000000000000000000000000000000000     00000000                                                                                                                        000000000000000000
F0010000007091700001000001502923600011050500000000000000000201505040002001ALCIDES MARTINEZ MARTINEZ                         D000000003100000000000000000000000100010010000000000000000000000F0010000007091700120150504000101 00000000000000000000000000000000000000000000000000000000000000000000000000000000000000000000000000000000000000000N 00000000000NCONT   00    00000000000          00000000000000000000000000000000000000000000 000000000000000A000000000000000000000000000000000000000000000 000000000000000000000000000000000000000     00000000                                                                                                                        000000000000000000
F0010000007091700002000001502923600041450500000000000000000201505040002001ALCIDES MARTINEZ MARTINEZ                         C000000001800000000000000000000000100010010000000000000000000000F0010000007091700220150504000101 00000000000000000000000000000000000000000000000000000000000000000000000000000000000000000000000000000000000000000N 00000000000NCONT   00    00000000000          00000000000000000000000000000000000000000000 000000000000000A000000000000000000000000000000000000000000000 000000000000000000000000000000000000000     00000000                                                                                                                        000000000000000000
F0010000007091700003000001502923600042505000000000000000000201505040002001ALCIDES MARTINEZ MARTINEZ                         C000000001300000000000000000000000100010010000000000000000000000F0010000007091700320150504000101 00000000000000000000000000000000000000000000000000000000000000000000000000000000000000000000000000000000000000000N 00000000000NCONT   00    00000000000          00000000000000000000000000000000000000000000 000000000000000A000000000000000000000000000000000000000000000 000000000000000000000000000000000000000     00000000                                                                                                                        000000000000000000
F0010000007091700004000001502923600023658300000000000000000201505040002001ALCIDES MARTINEZ MARTINEZ                         C000000000014400000000000000000000100010010000000000000000000000F0010000007091700420150504000101 00000000000000000000000000000000000000000000000000000000000000000000000000000000000000000000000000000000000000000N 00000000000NCONT   00    00000000000          00000000000000000000000000000000000000000000 000000000000000A000000000000000000000000000000000000000000000 000000000000000000000000000000000000000     00000000                                                                                                                        000000000000000000
F0010000007091700005000001502923600013552100000000000000000201505040002001ALCIDES MARTINEZ MARTINEZ                         D000000000014400000000000000000000100010010000000000000000000000F0010000007091700520150504000101 00000000000000000000000000000000000000000000000000000000000000000000000000000000000000000000000000000000000000000N 00000000000NCONT   00    00000000000          00000000000000000000000000000000000000000000 000000000000000A000000000000000000000000000000000000000000000 000000000000000000000000000000000000000     00000000                                                                                                                        000000000000000000
F0010000007091800001000090015039900011050500000000000000000201505040002001METALMAX DE COLOMBIA S.A.S                        D000000004400000000000000000000000100010010000000000000000000000F0010000007091800120150504000101 00000000000000000000000000000000000000000000000000000000000000000000000000000000000000000000000000000000000000000N 00000000000NCONT   00    00000000000          00000000000000000000000000000000000000000000 000000000000000A000000000000000000000000000000000000000000000 000000000000000000000000000000000000000     00000000                                                                                                                        000000000000000000
F0010000007091800002000090015039900041450500000000000000000201505040002001METALMAX DE COLOMBIA S.A.S                        C000000004000000000000000000000000100010010000000000000000000000F0010000007091800220150504000101 00000000000000000000000000000000000000000000000000000000000000000000000000000000000000000000000000000000000000000N 00000000000NCONT   00    00000000000          00000000000000000000000000000000000000000000 000000000000000A000000000000000000000000000000000000000000000 000000000000000000000000000000000000000     00000000                                                                                                                        000000000000000000
F0010000007091800003000090015039900042505000000000000000000201505040002001METALMAX DE COLOMBIA S.A.S                        C000000000400000000000000000000000100010010000000000000000000000F0010000007091800320150504000101 00000000000000000000000000000000000000000000000000000000000000000000000000000000000000000000000000000000000000000N 00000000000NCONT   00    00000000000          00000000000000000000000000000000000000000000 000000000000000A000000000000000000000000000000000000000000000 000000000000000000000000000000000000000     00000000                                                                                                                        000000000000000000
F0010000007091800004000090015039900023658300000000000000000201505040002001METALMAX DE COLOMBIA S.A.S                        C000000000032000000000000000000000100010010000000000000000000000F0010000007091800420150504000101 00000000000000000000000000000000000000000000000000000000000000000000000000000000000000000000000000000000000000000N 00000000000NCONT   00    00000000000          00000000000000000000000000000000000000000000 000000000000000A000000000000000000000000000000000000000000000 000000000000000000000000000000000000000     00000000                                                                                                                        000000000000000000
F0010000007091800005000090015039900013552100000000000000000201505040002001METALMAX DE COLOMBIA S.A.S                        D000000000032000000000000000000000100010010000000000000000000000F0010000007091800520150504000101 00000000000000000000000000000000000000000000000000000000000000000000000000000000000000000000000000000000000000000N 00000000000NCONT   00    00000000000          00000000000000000000000000000000000000000000 000000000000000A000000000000000000000000000000000000000000000 000000000000000000000000000000000000000     00000000                                                                                                                        000000000000000000
F0010000007091900001000000742399700011050500000000000000000201505040002001CACHARRERIA EL NUEVO CHADID                       D000000005000000000000000000000000100010010000000000000000000000F0010000007091900120150504000101 00000000000000000000000000000000000000000000000000000000000000000000000000000000000000000000000000000000000000000N 00000000000NCONT   00    00000000000          00000000000000000000000000000000000000000000 000000000000000A000000000000000000000000000000000000000000000 000000000000000000000000000000000000000     00000000                                                                                                                        000000000000000000
F0010000007091900002000000742399700041450500000000000000000201505040002001CACHARRERIA EL NUEVO CHADID                       C000000004400000000000000000000000100010010000000000000000000000F0010000007091900220150504000101 00000000000000000000000000000000000000000000000000000000000000000000000000000000000000000000000000000000000000000N 00000000000NCONT   00    00000000000          00000000000000000000000000000000000000000000 000000000000000A000000000000000000000000000000000000000000000 000000000000000000000000000000000000000     00000000                                                                                                                        000000000000000000
F0010000007091900003000000742399700042505000000000000000000201505040002001CACHARRERIA EL NUEVO CHADID                       C000000000600000000000000000000000100010010000000000000000000000F0010000007091900320150504000101 00000000000000000000000000000000000000000000000000000000000000000000000000000000000000000000000000000000000000000N 00000000000NCONT   00    00000000000          00000000000000000000000000000000000000000000 000000000000000A000000000000000000000000000000000000000000000 000000000000000000000000000000000000000     00000000                                                                                                                        000000000000000000
F0010000007091900004000000742399700023658300000000000000000201505040002001CACHARRERIA EL NUEVO CHADID                       C000000000035200000000000000000000100010010000000000000000000000F0010000007091900420150504000101 00000000000000000000000000000000000000000000000000000000000000000000000000000000000000000000000000000000000000000N 00000000000NCONT   00    00000000000          00000000000000000000000000000000000000000000 000000000000000A000000000000000000000000000000000000000000000 000000000000000000000000000000000000000     00000000                                                                                                                        000000000000000000
F0010000007091900005000000742399700013552100000000000000000201505040002001CACHARRERIA EL NUEVO CHADID                       D000000000035200000000000000000000100010010000000000000000000000F0010000007091900520150504000101 00000000000000000000000000000000000000000000000000000000000000000000000000000000000000000000000000000000000000000N 00000000000NCONT   00    00000000000          00000000000000000000000000000000000000000000 000000000000000A000000000000000000000000000000000000000000000 000000000000000000000000000000000000000     00000000                                                                                                                        000000000000000000
F0010000007092000001000000742399700011050500000000000000000201505040002001CACHARRERIA EL NUEVO CHADID                       D000000001000000000000000000000000100010010000000000000000000000F0010000007092000120150504000101 00000000000000000000000000000000000000000000000000000000000000000000000000000000000000000000000000000000000000000N 00000000000NCONT   00    00000000000          00000000000000000000000000000000000000000000 000000000000000A000000000000000000000000000000000000000000000 000000000000000000000000000000000000000     00000000                                                                                                                        000000000000000000
F0010000007092000002000000742399700041450500000000000000000201505040002001CACHARRERIA EL NUEVO CHADID                       C000000000800000000000000000000000100010010000000000000000000000F0010000007092000220150504000101 00000000000000000000000000000000000000000000000000000000000000000000000000000000000000000000000000000000000000000N 00000000000NCONT   00    00000000000          00000000000000000000000000000000000000000000 000000000000000A000000000000000000000000000000000000000000000 000000000000000000000000000000000000000     00000000                                                                                                                        000000000000000000
F0010000007092000003000000742399700042505000000000000000000201505040002001CACHARRERIA EL NUEVO CHADID                       C000000000200000000000000000000000100010010000000000000000000000F0010000007092000320150504000101 00000000000000000000000000000000000000000000000000000000000000000000000000000000000000000000000000000000000000000N 00000000000NCONT   00    00000000000          00000000000000000000000000000000000000000000 000000000000000A000000000000000000000000000000000000000000000 000000000000000000000000000000000000000     00000000                                                                                                                        000000000000000000
F0010000007092000004000000742399700023658300000000000000000201505040002001CACHARRERIA EL NUEVO CHADID                       C000000000006400000000000000000000100010010000000000000000000000F0010000007092000420150504000101 00000000000000000000000000000000000000000000000000000000000000000000000000000000000000000000000000000000000000000N 00000000000NCONT   00    00000000000          00000000000000000000000000000000000000000000 000000000000000A000000000000000000000000000000000000000000000 000000000000000000000000000000000000000     00000000                                                                                                                        000000000000000000
F0010000007092000005000000742399700013552100000000000000000201505040002001CACHARRERIA EL NUEVO CHADID                       D000000000006400000000000000000000100010010000000000000000000000F0010000007092000520150504000101 00000000000000000000000000000000000000000000000000000000000000000000000000000000000000000000000000000000000000000N 00000000000NCONT   00    00000000000          00000000000000000000000000000000000000000000 000000000000000A000000000000000000000000000000000000000000000 000000000000000000000000000000000000000     00000000                                                                                                                        000000000000000000
F0010000007092100001000002245486800011050500000000000000000201505040002001ALMACEN  DISTRIBEL                                D000000003000000000000000000000000100010010000000000000000000000F0010000007092100120150504000101 00000000000000000000000000000000000000000000000000000000000000000000000000000000000000000000000000000000000000000N 00000000000NCONT   00    00000000000          00000000000000000000000000000000000000000000 000000000000000A000000000000000000000000000000000000000000000 000000000000000000000000000000000000000     00000000                                                                                                                        000000000000000000
F0010000007092100002000002245486800041450500000000000000000201505040002001ALMACEN  DISTRIBEL                                C000000002700000000000000000000000100010010000000000000000000000F0010000007092100220150504000101 00000000000000000000000000000000000000000000000000000000000000000000000000000000000000000000000000000000000000000N 00000000000NCONT   00    00000000000          00000000000000000000000000000000000000000000 000000000000000A000000000000000000000000000000000000000000000 000000000000000000000000000000000000000     00000000                                                                                                                        000000000000000000
F0010000007092100003000002245486800042505000000000000000000201505040002001ALMACEN  DISTRIBEL                                C000000000300000000000000000000000100010010000000000000000000000F0010000007092100320150504000101 00000000000000000000000000000000000000000000000000000000000000000000000000000000000000000000000000000000000000000N 00000000000NCONT   00    00000000000          00000000000000000000000000000000000000000000 000000000000000A000000000000000000000000000000000000000000000 000000000000000000000000000000000000000     00000000                                                                                                                        000000000000000000
F0010000007092100004000002245486800023658300000000000000000201505040002001ALMACEN  DISTRIBEL                                C000000000021600000000000000000000100010010000000000000000000000F0010000007092100420150504000101 00000000000000000000000000000000000000000000000000000000000000000000000000000000000000000000000000000000000000000N 00000000000NCONT   00    00000000000          00000000000000000000000000000000000000000000 000000000000000A000000000000000000000000000000000000000000000 000000000000000000000000000000000000000     00000000                                                                                                                        000000000000000000
F0010000007092100005000002245486800013552100000000000000000201505040002001ALMACEN  DISTRIBEL                                D000000000021600000000000000000000100010010000000000000000000000F0010000007092100520150504000101 00000000000000000000000000000000000000000000000000000000000000000000000000000000000000000000000000000000000000000N 00000000000NCONT   00    00000000000          00000000000000000000000000000000000000000000 000000000000000A000000000000000000000000000000000000000000000 000000000000000000000000000000000000000     00000000                                                                                                                        000000000000000000
F0010000007092200001000090020547900011050500000000000000000201505040002001COMERCIALIZADORA DAC DEL CARIBE S.A.S.            D000000003100000000000000000000000100010010000000000000000000000F0010000007092200120150504000101 00000000000000000000000000000000000000000000000000000000000000000000000000000000000000000000000000000000000000000N 00000000000NCONT   00    00000000000          00000000000000000000000000000000000000000000 000000000000000A000000000000000000000000000000000000000000000 000000000000000000000000000000000000000     00000000                                                                                                                        000000000000000000
F0010000007092200002000090020547900041450500000000000000000201505040002001COMERCIALIZADORA DAC DEL CARIBE S.A.S.            C000000002600000000000000000000000100010010000000000000000000000F0010000007092200220150504000101 00000000000000000000000000000000000000000000000000000000000000000000000000000000000000000000000000000000000000000N 00000000000NCONT   00    00000000000          00000000000000000000000000000000000000000000 000000000000000A000000000000000000000000000000000000000000000 000000000000000000000000000000000000000     00000000                                                                                                                        000000000000000000
F0010000007092200003000090020547900042505000000000000000000201505040002001COMERCIALIZADORA DAC DEL CARIBE S.A.S.            C000000000500000000000000000000000100010010000000000000000000000F0010000007092200320150504000101 00000000000000000000000000000000000000000000000000000000000000000000000000000000000000000000000000000000000000000N 00000000000NCONT   00    00000000000          00000000000000000000000000000000000000000000 000000000000000A000000000000000000000000000000000000000000000 000000000000000000000000000000000000000     00000000                                                                                                                        000000000000000000
F0010000007092200004000090020547900023658300000000000000000201505040002001COMERCIALIZADORA DAC DEL CARIBE S.A.S.            C000000000020800000000000000000000100010010000000000000000000000F0010000007092200420150504000101 00000000000000000000000000000000000000000000000000000000000000000000000000000000000000000000000000000000000000000N 00000000000NCONT   00    00000000000          00000000000000000000000000000000000000000000 000000000000000A000000000000000000000000000000000000000000000 000000000000000000000000000000000000000     00000000                                                                                                                        000000000000000000
F0010000007092200005000090020547900013552100000000000000000201505040002001COMERCIALIZADORA DAC DEL CARIBE S.A.S.            D000000000020800000000000000000000100010010000000000000000000000F0010000007092200520150504000101 00000000000000000000000000000000000000000000000000000000000000000000000000000000000000000000000000000000000000000N 00000000000NCONT   00    00000000000          00000000000000000000000000000000000000000000 000000000000000A000000000000000000000000000000000000000000000 000000000000000000000000000000000000000     00000000                                                                                                                        000000000000000000
F0010000007092300001000090020547900011050500000000000000000201505040002001COMERCIALIZADORA DAC DEL CARIBE S.A.S.            D000000001700000000000000000000000100010010000000000000000000000F0010000007092300120150504000101 00000000000000000000000000000000000000000000000000000000000000000000000000000000000000000000000000000000000000000N 00000000000NCONT   00    00000000000          00000000000000000000000000000000000000000000 000000000000000A000000000000000000000000000000000000000000000 000000000000000000000000000000000000000     00000000                                                                                                                        000000000000000000
F0010000007092300002000090020547900041450500000000000000000201505040002001COMERCIALIZADORA DAC DEL CARIBE S.A.S.            C000000001300000000000000000000000100010010000000000000000000000F0010000007092300220150504000101 00000000000000000000000000000000000000000000000000000000000000000000000000000000000000000000000000000000000000000N 00000000000NCONT   00    00000000000          00000000000000000000000000000000000000000000 000000000000000A000000000000000000000000000000000000000000000 000000000000000000000000000000000000000     00000000                                                                                                                        000000000000000000
F0010000007092300003000090020547900042505000000000000000000201505040002001COMERCIALIZADORA DAC DEL CARIBE S.A.S.            C000000000400000000000000000000000100010010000000000000000000000F0010000007092300320150504000101 00000000000000000000000000000000000000000000000000000000000000000000000000000000000000000000000000000000000000000N 00000000000NCONT   00    00000000000          00000000000000000000000000000000000000000000 000000000000000A000000000000000000000000000000000000000000000 000000000000000000000000000000000000000     00000000                                                                                                                        000000000000000000
F0010000007092300004000090020547900023658300000000000000000201505040002001COMERCIALIZADORA DAC DEL CARIBE S.A.S.            C000000000010400000000000000000000100010010000000000000000000000F0010000007092300420150504000101 00000000000000000000000000000000000000000000000000000000000000000000000000000000000000000000000000000000000000000N 00000000000NCONT   00    00000000000          00000000000000000000000000000000000000000000 000000000000000A000000000000000000000000000000000000000000000 000000000000000000000000000000000000000     00000000                                                                                                                        000000000000000000
F0010000007092300005000090020547900013552100000000000000000201505040002001COMERCIALIZADORA DAC DEL CARIBE S.A.S.            D000000000010400000000000000000000100010010000000000000000000000F0010000007092300520150504000101 00000000000000000000000000000000000000000000000000000000000000000000000000000000000000000000000000000000000000000N 00000000000NCONT   00    00000000000          00000000000000000000000000000000000000000000 000000000000000A000000000000000000000000000000000000000000000 000000000000000000000000000000000000000     00000000                                                                                                                        000000000000000000
F0010000007092400001000090020547900011050500000000000000000201505040002001COMERCIALIZADORA DAC DEL CARIBE S.A.S.            D000000004100000000000000000000000100010010000000000000000000000F0010000007092400120150504000101 00000000000000000000000000000000000000000000000000000000000000000000000000000000000000000000000000000000000000000N 00000000000NCONT   00    00000000000          00000000000000000000000000000000000000000000 000000000000000A000000000000000000000000000000000000000000000 000000000000000000000000000000000000000     00000000                                                                                                                        000000000000000000
F0010000007092400002000090020547900041450500000000000000000201505040002001COMERCIALIZADORA DAC DEL CARIBE S.A.S.            C000000003000000000000000000000000100010010000000000000000000000F0010000007092400220150504000101 00000000000000000000000000000000000000000000000000000000000000000000000000000000000000000000000000000000000000000N 00000000000NCONT   00    00000000000          00000000000000000000000000000000000000000000 000000000000000A000000000000000000000000000000000000000000000 000000000000000000000000000000000000000     00000000                                                                                                                        000000000000000000
F0010000007092400003000090020547900042505000000000000000000201505040002001COMERCIALIZADORA DAC DEL CARIBE S.A.S.            C000000001100000000000000000000000100010010000000000000000000000F0010000007092400320150504000101 00000000000000000000000000000000000000000000000000000000000000000000000000000000000000000000000000000000000000000N 00000000000NCONT   00    00000000000          00000000000000000000000000000000000000000000 000000000000000A000000000000000000000000000000000000000000000 000000000000000000000000000000000000000     00000000                                                                                                                        000000000000000000
F0010000007092400004000090020547900023658300000000000000000201505040002001COMERCIALIZADORA DAC DEL CARIBE S.A.S.            C000000000024000000000000000000000100010010000000000000000000000F0010000007092400420150504000101 00000000000000000000000000000000000000000000000000000000000000000000000000000000000000000000000000000000000000000N 00000000000NCONT   00    00000000000          00000000000000000000000000000000000000000000 000000000000000A000000000000000000000000000000000000000000000 000000000000000000000000000000000000000     00000000                                                                                                                        000000000000000000
F0010000007092400005000090020547900013552100000000000000000201505040002001COMERCIALIZADORA DAC DEL CARIBE S.A.S.            D000000000024000000000000000000000100010010000000000000000000000F0010000007092400520150504000101 00000000000000000000000000000000000000000000000000000000000000000000000000000000000000000000000000000000000000000N 00000000000NCONT   00    00000000000          00000000000000000000000000000000000000000000 000000000000000A000000000000000000000000000000000000000000000 000000000000000000000000000000000000000     00000000                                                                                                                        000000000000000000
F0010000007092500001000000866309000011050500000000000000000201505040002001MARCO MORA PATIÑO                                D000000002320000000000000000000000100010010000000000000000000000F0010000007092500120150504000101 00000000000000000000000000000000000000000000000000000000000000000000000000000000000000000000000000000000000000000N 00000000000NCONT   00    00000000000          00000000000000000000000000000000000000000000 000000000000000A000000000000000000000000000000000000000000000 000000000000000000000000000000000000000     00000000                                                                                                                        000000000000000000
