F0010000007059600001000080024994500011050500000000000000000201504240002001HILOS & SUMINISTROS                               D000000001100000000000000000000000100010010000000000000000000000F0010000007059600120150424000101 00000000000000000000000000000000000000000000000000000000000000000000000000000000000000000000000000000000000000000N 00000000000NCONT   00    00000000000          00000000000000000000000000000000000000000000 000000000000000A000000000000000000000000000000000000000000000 000000000000000000000000000000000000000     00000000                                                                                                                        000000000000000000
F0010000007059600002000080024994500041450500000000000000000201504240002001HILOS & SUMINISTROS                               C000000001000000000000000000000000100010010000000000000000000000F0010000007059600220150424000101 00000000000000000000000000000000000000000000000000000000000000000000000000000000000000000000000000000000000000000N 00000000000NCONT   00    00000000000          00000000000000000000000000000000000000000000 000000000000000A000000000000000000000000000000000000000000000 000000000000000000000000000000000000000     00000000                                                                                                                        000000000000000000
F0010000007059600003000080024994500042505000000000000000000201504240002001HILOS & SUMINISTROS                               C000000000100000000000000000000000100010010000000000000000000000F0010000007059600320150424000101 00000000000000000000000000000000000000000000000000000000000000000000000000000000000000000000000000000000000000000N 00000000000NCONT   00    00000000000          00000000000000000000000000000000000000000000 000000000000000A000000000000000000000000000000000000000000000 000000000000000000000000000000000000000     00000000                                                                                                                        000000000000000000
F0010000007059600004000080024994500023658300000000000000000201504240002001HILOS & SUMINISTROS                               C000000000008000000000000000000000100010010000000000000000000000F0010000007059600420150424000101 00000000000000000000000000000000000000000000000000000000000000000000000000000000000000000000000000000000000000000N 00000000000NCONT   00    00000000000          00000000000000000000000000000000000000000000 000000000000000A000000000000000000000000000000000000000000000 000000000000000000000000000000000000000     00000000                                                                                                                        000000000000000000
F0010000007059600005000080024994500013552100000000000000000201504240002001HILOS & SUMINISTROS                               D000000000008000000000000000000000100010010000000000000000000000F0010000007059600520150424000101 00000000000000000000000000000000000000000000000000000000000000000000000000000000000000000000000000000000000000000N 00000000000NCONT   00    00000000000          00000000000000000000000000000000000000000000 000000000000000A000000000000000000000000000000000000000000000 000000000000000000000000000000000000000     00000000                                                                                                                        000000000000000000
F0010000007059700001000090073498600011050500000000000000000201504240002001VALTAC DEL CARIBE LTDA                            D000000010000000000000000000000000100010010000000000000000000000F0010000007059700120150424000101 00000000000000000000000000000000000000000000000000000000000000000000000000000000000000000000000000000000000000000N 00000000000NCONT   00    00000000000          00000000000000000000000000000000000000000000 000000000000000A000000000000000000000000000000000000000000000 000000000000000000000000000000000000000     00000000                                                                                                                        000000000000000000
F0010000007059700002000090073498600041450500000000000000000201504240002001VALTAC DEL CARIBE LTDA                            C000000009500000000000000000000000100010010000000000000000000000F0010000007059700220150424000101 00000000000000000000000000000000000000000000000000000000000000000000000000000000000000000000000000000000000000000N 00000000000NCONT   00    00000000000          00000000000000000000000000000000000000000000 000000000000000A000000000000000000000000000000000000000000000 000000000000000000000000000000000000000     00000000                                                                                                                        000000000000000000
F0010000007059700003000090073498600042505000000000000000000201504240002001VALTAC DEL CARIBE LTDA                            C000000000500000000000000000000000100010010000000000000000000000F0010000007059700320150424000101 00000000000000000000000000000000000000000000000000000000000000000000000000000000000000000000000000000000000000000N 00000000000NCONT   00    00000000000          00000000000000000000000000000000000000000000 000000000000000A000000000000000000000000000000000000000000000 000000000000000000000000000000000000000     00000000                                                                                                                        000000000000000000
F0010000007059700004000090073498600023658300000000000000000201504240002001VALTAC DEL CARIBE LTDA                            C000000000076000000000000000000000100010010000000000000000000000F0010000007059700420150424000101 00000000000000000000000000000000000000000000000000000000000000000000000000000000000000000000000000000000000000000N 00000000000NCONT   00    00000000000          00000000000000000000000000000000000000000000 000000000000000A000000000000000000000000000000000000000000000 000000000000000000000000000000000000000     00000000                                                                                                                        000000000000000000
F0010000007059700005000090073498600013552100000000000000000201504240002001VALTAC DEL CARIBE LTDA                            D000000000076000000000000000000000100010010000000000000000000000F0010000007059700520150424000101 00000000000000000000000000000000000000000000000000000000000000000000000000000000000000000000000000000000000000000N 00000000000NCONT   00    00000000000          00000000000000000000000000000000000000000000 000000000000000A000000000000000000000000000000000000000000000 000000000000000000000000000000000000000     00000000                                                                                                                        000000000000000000
F0010000007059800001000090014415700013050500000000000000000201504240002001CORDELES Y EXTRUIDOS DE COLOMBIA S.A.S.           D000000043597800000000000000000000100010010000000000000000000000F0010000007059800120150424000101 00000000000000000000000000000000000000000000000000000000000000000000000000000000000000000000000000000000000000000N 00000000000NCONT   00    00000000000          00000000000000000000000000000000000000000000 000000000000000A000000000000000000000000000000000000000000000 000000000000000000000000000000000000000     00000000                                                                                                                        000000000000000000
F0010000007059800002000090014415700041450500000000000000000201504240002001CORDELES Y EXTRUIDOS DE COLOMBIA S.A.S.           C000000040249400000000000000000000100010010000000000000000000000F0010000007059800220150424000101 00000000000000000000000000000000000000000000000000000000000000000000000000000000000000000000000000000000000000000N 00000000000NCONT   00    00000000000          00000000000000000000000000000000000000000000 000000000000000A000000000000000000000000000000000000000000000 000000000000000000000000000000000000000     00000000                                                                                                                        000000000000000000
F0010000007059800003000090014415700042505000000000000000000201504240002001CORDELES Y EXTRUIDOS DE COLOMBIA S.A.S.           C000000003348400000000000000000000100010010000000000000000000000F0010000007059800320150424000101 00000000000000000000000000000000000000000000000000000000000000000000000000000000000000000000000000000000000000000N 00000000000NCONT   00    00000000000          00000000000000000000000000000000000000000000 000000000000000A000000000000000000000000000000000000000000000 000000000000000000000000000000000000000     00000000                                                                                                                        000000000000000000
F0010000007059800004000090014415700023658300000000000000000201504240002001CORDELES Y EXTRUIDOS DE COLOMBIA S.A.S.           C000000000322000000000000000000000100010010000000000000000000000F0010000007059800420150424000101 00000000000000000000000000000000000000000000000000000000000000000000000000000000000000000000000000000000000000000N 00000000000NCONT   00    00000000000          00000000000000000000000000000000000000000000 000000000000000A000000000000000000000000000000000000000000000 000000000000000000000000000000000000000     00000000                                                                                                                        000000000000000000
F0010000007059800005000090014415700013552100000000000000000201504240002001CORDELES Y EXTRUIDOS DE COLOMBIA S.A.S.           D000000000322000000000000000000000100010010000000000000000000000F0010000007059800520150424000101 00000000000000000000000000000000000000000000000000000000000000000000000000000000000000000000000000000000000000000N 00000000000NCONT   00    00000000000          00000000000000000000000000000000000000000000 000000000000000A000000000000000000000000000000000000000000000 000000000000000000000000000000000000000     00000000                                                                                                                        000000000000000000
F0010000007059900001000000747559300011050500000000000000000201504240002001RAFAEL SERRANO                                    D000000001400000000000000000000000100010010000000000000000000000F0010000007059900120150424000101 00000000000000000000000000000000000000000000000000000000000000000000000000000000000000000000000000000000000000000N 00000000000NCONT   00    00000000000          00000000000000000000000000000000000000000000 000000000000000A000000000000000000000000000000000000000000000 000000000000000000000000000000000000000     00000000                                                                                                                        000000000000000000
F0010000007059900002000000747559300041450500000000000000000201504240002001RAFAEL SERRANO                                    C000000001000000000000000000000000100010010000000000000000000000F0010000007059900220150424000101 00000000000000000000000000000000000000000000000000000000000000000000000000000000000000000000000000000000000000000N 00000000000NCONT   00    00000000000          00000000000000000000000000000000000000000000 000000000000000A000000000000000000000000000000000000000000000 000000000000000000000000000000000000000     00000000                                                                                                                        000000000000000000
F0010000007059900003000000747559300042505000000000000000000201504240002001RAFAEL SERRANO                                    C000000000400000000000000000000000100010010000000000000000000000F0010000007059900320150424000101 00000000000000000000000000000000000000000000000000000000000000000000000000000000000000000000000000000000000000000N 00000000000NCONT   00    00000000000          00000000000000000000000000000000000000000000 000000000000000A000000000000000000000000000000000000000000000 000000000000000000000000000000000000000     00000000                                                                                                                        000000000000000000
F0010000007059900004000000747559300023658300000000000000000201504240002001RAFAEL SERRANO                                    C000000000008000000000000000000000100010010000000000000000000000F0010000007059900420150424000101 00000000000000000000000000000000000000000000000000000000000000000000000000000000000000000000000000000000000000000N 00000000000NCONT   00    00000000000          00000000000000000000000000000000000000000000 000000000000000A000000000000000000000000000000000000000000000 000000000000000000000000000000000000000     00000000                                                                                                                        000000000000000000
F0010000007059900005000000747559300013552100000000000000000201504240002001RAFAEL SERRANO                                    D000000000008000000000000000000000100010010000000000000000000000F0010000007059900520150424000101 00000000000000000000000000000000000000000000000000000000000000000000000000000000000000000000000000000000000000000N 00000000000NCONT   00    00000000000          00000000000000000000000000000000000000000000 000000000000000A000000000000000000000000000000000000000000000 000000000000000000000000000000000000000     00000000                                                                                                                        000000000000000000
F0010000007060000001000007213653800011050500000000000000000201504240002001VICTOR ECHAVEZ                                    D000000001500000000000000000000000100010010000000000000000000000F0010000007060000120150424000101 00000000000000000000000000000000000000000000000000000000000000000000000000000000000000000000000000000000000000000N 00000000000NCONT   00    00000000000          00000000000000000000000000000000000000000000 000000000000000A000000000000000000000000000000000000000000000 000000000000000000000000000000000000000     00000000                                                                                                                        000000000000000000
F0010000007060000002000007213653800041450500000000000000000201504240002001VICTOR ECHAVEZ                                    C000000001200000000000000000000000100010010000000000000000000000F0010000007060000220150424000101 00000000000000000000000000000000000000000000000000000000000000000000000000000000000000000000000000000000000000000N 00000000000NCONT   00    00000000000          00000000000000000000000000000000000000000000 000000000000000A000000000000000000000000000000000000000000000 000000000000000000000000000000000000000     00000000                                                                                                                        000000000000000000
F0010000007060000003000007213653800042505000000000000000000201504240002001VICTOR ECHAVEZ                                    C000000000300000000000000000000000100010010000000000000000000000F0010000007060000320150424000101 00000000000000000000000000000000000000000000000000000000000000000000000000000000000000000000000000000000000000000N 00000000000NCONT   00    00000000000          00000000000000000000000000000000000000000000 000000000000000A000000000000000000000000000000000000000000000 000000000000000000000000000000000000000     00000000                                                                                                                        000000000000000000
F0010000007060000004000007213653800023658300000000000000000201504240002001VICTOR ECHAVEZ                                    C000000000009600000000000000000000100010010000000000000000000000F0010000007060000420150424000101 00000000000000000000000000000000000000000000000000000000000000000000000000000000000000000000000000000000000000000N 00000000000NCONT   00    00000000000          00000000000000000000000000000000000000000000 000000000000000A000000000000000000000000000000000000000000000 000000000000000000000000000000000000000     00000000                                                                                                                        000000000000000000
F0010000007060000005000007213653800013552100000000000000000201504240002001VICTOR ECHAVEZ                                    D000000000009600000000000000000000100010010000000000000000000000F0010000007060000520150424000101 00000000000000000000000000000000000000000000000000000000000000000000000000000000000000000000000000000000000000000N 00000000000NCONT   00    00000000000          00000000000000000000000000000000000000000000 000000000000000A000000000000000000000000000000000000000000000 000000000000000000000000000000000000000     00000000                                                                                                                        000000000000000000
F0010000007060100001000090034602400011050500000000000000000201504240002001LA CUSTODIA                                       D000000001000000000000000000000000100010010000000000000000000000F0010000007060100120150424000101 00000000000000000000000000000000000000000000000000000000000000000000000000000000000000000000000000000000000000000N 00000000000NCONT   00    00000000000          00000000000000000000000000000000000000000000 000000000000000A000000000000000000000000000000000000000000000 000000000000000000000000000000000000000     00000000                                                                                                                        000000000000000000
F0010000007060100002000090034602400041450500000000000000000201504240002001LA CUSTODIA                                       C000000000900000000000000000000000100010010000000000000000000000F0010000007060100220150424000101 00000000000000000000000000000000000000000000000000000000000000000000000000000000000000000000000000000000000000000N 00000000000NCONT   00    00000000000          00000000000000000000000000000000000000000000 000000000000000A000000000000000000000000000000000000000000000 000000000000000000000000000000000000000     00000000                                                                                                                        000000000000000000
F0010000007060100003000090034602400042505000000000000000000201504240002001LA CUSTODIA                                       C000000000100000000000000000000000100010010000000000000000000000F0010000007060100320150424000101 00000000000000000000000000000000000000000000000000000000000000000000000000000000000000000000000000000000000000000N 00000000000NCONT   00    00000000000          00000000000000000000000000000000000000000000 000000000000000A000000000000000000000000000000000000000000000 000000000000000000000000000000000000000     00000000                                                                                                                        000000000000000000
F0010000007060100004000090034602400023658300000000000000000201504240002001LA CUSTODIA                                       C000000000007200000000000000000000100010010000000000000000000000F0010000007060100420150424000101 00000000000000000000000000000000000000000000000000000000000000000000000000000000000000000000000000000000000000000N 00000000000NCONT   00    00000000000          00000000000000000000000000000000000000000000 000000000000000A000000000000000000000000000000000000000000000 000000000000000000000000000000000000000     00000000                                                                                                                        000000000000000000
F0010000007060100005000090034602400013552100000000000000000201504240002001LA CUSTODIA                                       D000000000007200000000000000000000100010010000000000000000000000F0010000007060100520150424000101 00000000000000000000000000000000000000000000000000000000000000000000000000000000000000000000000000000000000000000N 00000000000NCONT   00    00000000000          00000000000000000000000000000000000000000000 000000000000000A000000000000000000000000000000000000000000000 000000000000000000000000000000000000000     00000000                                                                                                                        000000000000000000
F0010000007060200001000080202350700011050500000000000000000201504240002001CONNY DE LA COSTA SAS                             D000000003000000000000000000000000100010010000000000000000000000F0010000007060200120150424000101 00000000000000000000000000000000000000000000000000000000000000000000000000000000000000000000000000000000000000000N 00000000000NCONT   00    00000000000          00000000000000000000000000000000000000000000 000000000000000A000000000000000000000000000000000000000000000 000000000000000000000000000000000000000     00000000                                                                                                                        000000000000000000
F0010000007060200002000080202350700041450500000000000000000201504240002001CONNY DE LA COSTA SAS                             C000000002400000000000000000000000100010010000000000000000000000F0010000007060200220150424000101 00000000000000000000000000000000000000000000000000000000000000000000000000000000000000000000000000000000000000000N 00000000000NCONT   00    00000000000          00000000000000000000000000000000000000000000 000000000000000A000000000000000000000000000000000000000000000 000000000000000000000000000000000000000     00000000                                                                                                                        000000000000000000
F0010000007060200003000080202350700042505000000000000000000201504240002001CONNY DE LA COSTA SAS                             C000000000600000000000000000000000100010010000000000000000000000F0010000007060200320150424000101 00000000000000000000000000000000000000000000000000000000000000000000000000000000000000000000000000000000000000000N 00000000000NCONT   00    00000000000          00000000000000000000000000000000000000000000 000000000000000A000000000000000000000000000000000000000000000 000000000000000000000000000000000000000     00000000                                                                                                                        000000000000000000
F0010000007060200004000080202350700023658300000000000000000201504240002001CONNY DE LA COSTA SAS                             C000000000019200000000000000000000100010010000000000000000000000F0010000007060200420150424000101 00000000000000000000000000000000000000000000000000000000000000000000000000000000000000000000000000000000000000000N 00000000000NCONT   00    00000000000          00000000000000000000000000000000000000000000 000000000000000A000000000000000000000000000000000000000000000 000000000000000000000000000000000000000     00000000                                                                                                                        000000000000000000
F0010000007060200005000080202350700013552100000000000000000201504240002001CONNY DE LA COSTA SAS                             D000000000019200000000000000000000100010010000000000000000000000F0010000007060200520150424000101 00000000000000000000000000000000000000000000000000000000000000000000000000000000000000000000000000000000000000000N 00000000000NCONT   00    00000000000          00000000000000000000000000000000000000000000 000000000000000A000000000000000000000000000000000000000000000 000000000000000000000000000000000000000     00000000                                                                                                                        000000000000000000
F0010000007060300001000080202350700011050500000000000000000201504240002001CONNY DE LA COSTA SAS                             D000000000850000000000000000000000100010010000000000000000000000F0010000007060300120150424000101 00000000000000000000000000000000000000000000000000000000000000000000000000000000000000000000000000000000000000000N 00000000000NCONT   00    00000000000          00000000000000000000000000000000000000000000 000000000000000A000000000000000000000000000000000000000000000 000000000000000000000000000000000000000     00000000                                                                                                                        000000000000000000
F0010000007060300002000080202350700041450500000000000000000201504240002001CONNY DE LA COSTA SAS                             C000000000800000000000000000000000100010010000000000000000000000F0010000007060300220150424000101 00000000000000000000000000000000000000000000000000000000000000000000000000000000000000000000000000000000000000000N 00000000000NCONT   00    00000000000          00000000000000000000000000000000000000000000 000000000000000A000000000000000000000000000000000000000000000 000000000000000000000000000000000000000     00000000                                                                                                                        000000000000000000
F0010000007060300003000080202350700042505000000000000000000201504240002001CONNY DE LA COSTA SAS                             C000000000050000000000000000000000100010010000000000000000000000F0010000007060300320150424000101 00000000000000000000000000000000000000000000000000000000000000000000000000000000000000000000000000000000000000000N 00000000000NCONT   00    00000000000          00000000000000000000000000000000000000000000 000000000000000A000000000000000000000000000000000000000000000 000000000000000000000000000000000000000     00000000                                                                                                                        000000000000000000
F0010000007060300004000080202350700023658300000000000000000201504240002001CONNY DE LA COSTA SAS                             C000000000006400000000000000000000100010010000000000000000000000F0010000007060300420150424000101 00000000000000000000000000000000000000000000000000000000000000000000000000000000000000000000000000000000000000000N 00000000000NCONT   00    00000000000          00000000000000000000000000000000000000000000 000000000000000A000000000000000000000000000000000000000000000 000000000000000000000000000000000000000     00000000                                                                                                                        000000000000000000
F0010000007060300005000080202350700013552100000000000000000201504240002001CONNY DE LA COSTA SAS                             D000000000006400000000000000000000100010010000000000000000000000F0010000007060300520150424000101 00000000000000000000000000000000000000000000000000000000000000000000000000000000000000000000000000000000000000000N 00000000000NCONT   00    00000000000          00000000000000000000000000000000000000000000 000000000000000A000000000000000000000000000000000000000000000 000000000000000000000000000000000000000     00000000                                                                                                                        000000000000000000
F0010000007060400001000107252647100011050500000000000000000201504240002001JHON BYRON DUQUE DONADO (BODEGA JHONIFER)         D000000001100000000000000000000000100010010000000000000000000000F0010000007060400120150424000101 00000000000000000000000000000000000000000000000000000000000000000000000000000000000000000000000000000000000000000N 00000000000NCONT   00    00000000000          00000000000000000000000000000000000000000000 000000000000000A000000000000000000000000000000000000000000000 000000000000000000000000000000000000000     00000000                                                                                                                        000000000000000000
F0010000007060400002000107252647100041450500000000000000000201504240002001JHON BYRON DUQUE DONADO (BODEGA JHONIFER)         C000000001000000000000000000000000100010010000000000000000000000F0010000007060400220150424000101 00000000000000000000000000000000000000000000000000000000000000000000000000000000000000000000000000000000000000000N 00000000000NCONT   00    00000000000          00000000000000000000000000000000000000000000 000000000000000A000000000000000000000000000000000000000000000 000000000000000000000000000000000000000     00000000                                                                                                                        000000000000000000
F0010000007060400003000107252647100042505000000000000000000201504240002001JHON BYRON DUQUE DONADO (BODEGA JHONIFER)         C000000000100000000000000000000000100010010000000000000000000000F0010000007060400320150424000101 00000000000000000000000000000000000000000000000000000000000000000000000000000000000000000000000000000000000000000N 00000000000NCONT   00    00000000000          00000000000000000000000000000000000000000000 000000000000000A000000000000000000000000000000000000000000000 000000000000000000000000000000000000000     00000000                                                                                                                        000000000000000000
F0010000007060400004000107252647100023658300000000000000000201504240002001JHON BYRON DUQUE DONADO (BODEGA JHONIFER)         C000000000008000000000000000000000100010010000000000000000000000F0010000007060400420150424000101 00000000000000000000000000000000000000000000000000000000000000000000000000000000000000000000000000000000000000000N 00000000000NCONT   00    00000000000          00000000000000000000000000000000000000000000 000000000000000A000000000000000000000000000000000000000000000 000000000000000000000000000000000000000     00000000                                                                                                                        000000000000000000
F0010000007060400005000107252647100013552100000000000000000201504240002001JHON BYRON DUQUE DONADO (BODEGA JHONIFER)         D000000000008000000000000000000000100010010000000000000000000000F0010000007060400520150424000101 00000000000000000000000000000000000000000000000000000000000000000000000000000000000000000000000000000000000000000N 00000000000NCONT   00    00000000000          00000000000000000000000000000000000000000000 000000000000000A000000000000000000000000000000000000000000000 000000000000000000000000000000000000000     00000000                                                                                                                        000000000000000000
F0010000007060500001000007200023300011050500000000000000000201504240002001COMERCIALIZADORA ORTEGA                           D000000001500000000000000000000000100010010000000000000000000000F0010000007060500120150424000101 00000000000000000000000000000000000000000000000000000000000000000000000000000000000000000000000000000000000000000N 00000000000NCONT   00    00000000000          00000000000000000000000000000000000000000000 000000000000000A000000000000000000000000000000000000000000000 000000000000000000000000000000000000000     00000000                                                                                                                        000000000000000000
F0010000007060500002000007200023300041450500000000000000000201504240002001COMERCIALIZADORA ORTEGA                           C000000001200000000000000000000000100010010000000000000000000000F0010000007060500220150424000101 00000000000000000000000000000000000000000000000000000000000000000000000000000000000000000000000000000000000000000N 00000000000NCONT   00    00000000000          00000000000000000000000000000000000000000000 000000000000000A000000000000000000000000000000000000000000000 000000000000000000000000000000000000000     00000000                                                                                                                        000000000000000000
F0010000007060500003000007200023300042505000000000000000000201504240002001COMERCIALIZADORA ORTEGA                           C000000000300000000000000000000000100010010000000000000000000000F0010000007060500320150424000101 00000000000000000000000000000000000000000000000000000000000000000000000000000000000000000000000000000000000000000N 00000000000NCONT   00    00000000000          00000000000000000000000000000000000000000000 000000000000000A000000000000000000000000000000000000000000000 000000000000000000000000000000000000000     00000000                                                                                                                        000000000000000000
F0010000007060500004000007200023300023658300000000000000000201504240002001COMERCIALIZADORA ORTEGA                           C000000000009600000000000000000000100010010000000000000000000000F0010000007060500420150424000101 00000000000000000000000000000000000000000000000000000000000000000000000000000000000000000000000000000000000000000N 00000000000NCONT   00    00000000000          00000000000000000000000000000000000000000000 000000000000000A000000000000000000000000000000000000000000000 000000000000000000000000000000000000000     00000000                                                                                                                        000000000000000000
F0010000007060500005000007200023300013552100000000000000000201504240002001COMERCIALIZADORA ORTEGA                           D000000000009600000000000000000000100010010000000000000000000000F0010000007060500520150424000101 00000000000000000000000000000000000000000000000000000000000000000000000000000000000000000000000000000000000000000N 00000000000NCONT   00    00000000000          00000000000000000000000000000000000000000000 000000000000000A000000000000000000000000000000000000000000000 000000000000000000000000000000000000000     00000000                                                                                                                        000000000000000000
F0010000007060600001000001022529300011050500000000000000000201504240002001ALBERTO ALVAREZ ISAZA                             D000000001560000000000000000000000100010010000000000000000000000F0010000007060600120150424000101 00000000000000000000000000000000000000000000000000000000000000000000000000000000000000000000000000000000000000000N 00000000000NCONT   00    00000000000          00000000000000000000000000000000000000000000 000000000000000A000000000000000000000000000000000000000000000 000000000000000000000000000000000000000     00000000                                                                                                                        000000000000000000
F0010000007060600002000001022529300041450500000000000000000201504240002001ALBERTO ALVAREZ ISAZA                             C000000001510000000000000000000000100010010000000000000000000000F0010000007060600220150424000101 00000000000000000000000000000000000000000000000000000000000000000000000000000000000000000000000000000000000000000N 00000000000NCONT   00    00000000000          00000000000000000000000000000000000000000000 000000000000000A000000000000000000000000000000000000000000000 000000000000000000000000000000000000000     00000000                                                                                                                        000000000000000000
F0010000007060600003000001022529300042505000000000000000000201504240002001ALBERTO ALVAREZ ISAZA                             C000000000050000000000000000000000100010010000000000000000000000F0010000007060600320150424000101 00000000000000000000000000000000000000000000000000000000000000000000000000000000000000000000000000000000000000000N 00000000000NCONT   00    00000000000          00000000000000000000000000000000000000000000 000000000000000A000000000000000000000000000000000000000000000 000000000000000000000000000000000000000     00000000                                                                                                                        000000000000000000
F0010000007060600004000001022529300023658300000000000000000201504240002001ALBERTO ALVAREZ ISAZA                             C000000000012100000000000000000000100010010000000000000000000000F0010000007060600420150424000101 00000000000000000000000000000000000000000000000000000000000000000000000000000000000000000000000000000000000000000N 00000000000NCONT   00    00000000000          00000000000000000000000000000000000000000000 000000000000000A000000000000000000000000000000000000000000000 000000000000000000000000000000000000000     00000000                                                                                                                        000000000000000000
F0010000007060600005000001022529300013552100000000000000000201504240002001ALBERTO ALVAREZ ISAZA                             D000000000012100000000000000000000100010010000000000000000000000F0010000007060600520150424000101 00000000000000000000000000000000000000000000000000000000000000000000000000000000000000000000000000000000000000000N 00000000000NCONT   00    00000000000          00000000000000000000000000000000000000000000 000000000000000A000000000000000000000000000000000000000000000 000000000000000000000000000000000000000     00000000                                                                                                                        000000000000000000
F0010000007060700001000001022529300011050500000000000000000201504240002001ALBERTO ALVAREZ ISAZA                             D000000003070000000000000000000000100010010000000000000000000000F0010000007060700120150424000101 00000000000000000000000000000000000000000000000000000000000000000000000000000000000000000000000000000000000000000N 00000000000NCONT   00    00000000000          00000000000000000000000000000000000000000000 000000000000000A000000000000000000000000000000000000000000000 000000000000000000000000000000000000000     00000000                                                                                                                        000000000000000000
F0010000007060700002000001022529300041450500000000000000000201504240002001ALBERTO ALVAREZ ISAZA                             C000000003020000000000000000000000100010010000000000000000000000F0010000007060700220150424000101 00000000000000000000000000000000000000000000000000000000000000000000000000000000000000000000000000000000000000000N 00000000000NCONT   00    00000000000          00000000000000000000000000000000000000000000 000000000000000A000000000000000000000000000000000000000000000 000000000000000000000000000000000000000     00000000                                                                                                                        000000000000000000
F0010000007060700003000001022529300042505000000000000000000201504240002001ALBERTO ALVAREZ ISAZA                             C000000000050000000000000000000000100010010000000000000000000000F0010000007060700320150424000101 00000000000000000000000000000000000000000000000000000000000000000000000000000000000000000000000000000000000000000N 00000000000NCONT   00    00000000000          00000000000000000000000000000000000000000000 000000000000000A000000000000000000000000000000000000000000000 000000000000000000000000000000000000000     00000000                                                                                                                        000000000000000000
F0010000007060700004000001022529300023658300000000000000000201504240002001ALBERTO ALVAREZ ISAZA                             C000000000024200000000000000000000100010010000000000000000000000F0010000007060700420150424000101 00000000000000000000000000000000000000000000000000000000000000000000000000000000000000000000000000000000000000000N 00000000000NCONT   00    00000000000          00000000000000000000000000000000000000000000 000000000000000A000000000000000000000000000000000000000000000 000000000000000000000000000000000000000     00000000                                                                                                                        000000000000000000
F0010000007060700005000001022529300013552100000000000000000201504240002001ALBERTO ALVAREZ ISAZA                             D000000000024200000000000000000000100010010000000000000000000000F0010000007060700520150424000101 00000000000000000000000000000000000000000000000000000000000000000000000000000000000000000000000000000000000000000N 00000000000NCONT   00    00000000000          00000000000000000000000000000000000000000000 000000000000000A000000000000000000000000000000000000000000000 000000000000000000000000000000000000000     00000000                                                                                                                        000000000000000000
F0010000007060800001000001022529300011050500000000000000000201504240002001ALBERTO ALVAREZ ISAZA                             D000000004580000000000000000000000100010010000000000000000000000F0010000007060800120150424000101 00000000000000000000000000000000000000000000000000000000000000000000000000000000000000000000000000000000000000000N 00000000000NCONT   00    00000000000          00000000000000000000000000000000000000000000 000000000000000A000000000000000000000000000000000000000000000 000000000000000000000000000000000000000     00000000                                                                                                                        000000000000000000
F0010000007060800002000001022529300041450500000000000000000201504240002001ALBERTO ALVAREZ ISAZA                             C000000004530000000000000000000000100010010000000000000000000000F0010000007060800220150424000101 00000000000000000000000000000000000000000000000000000000000000000000000000000000000000000000000000000000000000000N 00000000000NCONT   00    00000000000          00000000000000000000000000000000000000000000 000000000000000A000000000000000000000000000000000000000000000 000000000000000000000000000000000000000     00000000                                                                                                                        000000000000000000
F0010000007060800003000001022529300042505000000000000000000201504240002001ALBERTO ALVAREZ ISAZA                             C000000000050000000000000000000000100010010000000000000000000000F0010000007060800320150424000101 00000000000000000000000000000000000000000000000000000000000000000000000000000000000000000000000000000000000000000N 00000000000NCONT   00    00000000000          00000000000000000000000000000000000000000000 000000000000000A000000000000000000000000000000000000000000000 000000000000000000000000000000000000000     00000000                                                                                                                        000000000000000000
F0010000007060800004000001022529300023658300000000000000000201504240002001ALBERTO ALVAREZ ISAZA                             C000000000036200000000000000000000100010010000000000000000000000F0010000007060800420150424000101 00000000000000000000000000000000000000000000000000000000000000000000000000000000000000000000000000000000000000000N 00000000000NCONT   00    00000000000          00000000000000000000000000000000000000000000 000000000000000A000000000000000000000000000000000000000000000 000000000000000000000000000000000000000     00000000                                                                                                                        000000000000000000
F0010000007060800005000001022529300013552100000000000000000201504240002001ALBERTO ALVAREZ ISAZA                             D000000000036200000000000000000000100010010000000000000000000000F0010000007060800520150424000101 00000000000000000000000000000000000000000000000000000000000000000000000000000000000000000000000000000000000000000N 00000000000NCONT   00    00000000000          00000000000000000000000000000000000000000000 000000000000000A000000000000000000000000000000000000000000000 000000000000000000000000000000000000000     00000000                                                                                                                        000000000000000000
F0010000007060900001000004175790100011050500000000000000000201504240002001ROSIRIS FERIA HOYOS  (COSM. SHILLER)              D000000001100000000000000000000000100010010000000000000000000000F0010000007060900120150424000101 00000000000000000000000000000000000000000000000000000000000000000000000000000000000000000000000000000000000000000N 00000000000NCONT   00    00000000000          00000000000000000000000000000000000000000000 000000000000000A000000000000000000000000000000000000000000000 000000000000000000000000000000000000000     00000000                                                                                                                        000000000000000000
F0010000007060900002000004175790100041450500000000000000000201504240002001ROSIRIS FERIA HOYOS  (COSM. SHILLER)              C000000001000000000000000000000000100010010000000000000000000000F0010000007060900220150424000101 00000000000000000000000000000000000000000000000000000000000000000000000000000000000000000000000000000000000000000N 00000000000NCONT   00    00000000000          00000000000000000000000000000000000000000000 000000000000000A000000000000000000000000000000000000000000000 000000000000000000000000000000000000000     00000000                                                                                                                        000000000000000000
F0010000007060900003000004175790100042505000000000000000000201504240002001ROSIRIS FERIA HOYOS  (COSM. SHILLER)              C000000000100000000000000000000000100010010000000000000000000000F0010000007060900320150424000101 00000000000000000000000000000000000000000000000000000000000000000000000000000000000000000000000000000000000000000N 00000000000NCONT   00    00000000000          00000000000000000000000000000000000000000000 000000000000000A000000000000000000000000000000000000000000000 000000000000000000000000000000000000000     00000000                                                                                                                        000000000000000000
F0010000007060900004000004175790100023658300000000000000000201504240002001ROSIRIS FERIA HOYOS  (COSM. SHILLER)              C000000000008000000000000000000000100010010000000000000000000000F0010000007060900420150424000101 00000000000000000000000000000000000000000000000000000000000000000000000000000000000000000000000000000000000000000N 00000000000NCONT   00    00000000000          00000000000000000000000000000000000000000000 000000000000000A000000000000000000000000000000000000000000000 000000000000000000000000000000000000000     00000000                                                                                                                        000000000000000000
F0010000007060900005000004175790100013552100000000000000000201504240002001ROSIRIS FERIA HOYOS  (COSM. SHILLER)              D000000000008000000000000000000000100010010000000000000000000000F0010000007060900520150424000101 00000000000000000000000000000000000000000000000000000000000000000000000000000000000000000000000000000000000000000N 00000000000NCONT   00    00000000000          00000000000000000000000000000000000000000000 000000000000000A000000000000000000000000000000000000000000000 000000000000000000000000000000000000000     00000000                                                                                                                        000000000000000000
F0010000007061000001000000431178400011050500000000000000000201504240002001EFRAIN ALVAREZ                                    D000000001870000000000000000000000100010010000000000000000000000F0010000007061000120150424000101 00000000000000000000000000000000000000000000000000000000000000000000000000000000000000000000000000000000000000000N 00000000000NCONT   00    00000000000          00000000000000000000000000000000000000000000 000000000000000A000000000000000000000000000000000000000000000 000000000000000000000000000000000000000     00000000                                                                                                                        000000000000000000
F0010000007061000002000000431178400041450500000000000000000201504240002001EFRAIN ALVAREZ                                    C000000001720000000000000000000000100010010000000000000000000000F0010000007061000220150424000101 00000000000000000000000000000000000000000000000000000000000000000000000000000000000000000000000000000000000000000N 00000000000NCONT   00    00000000000          00000000000000000000000000000000000000000000 000000000000000A000000000000000000000000000000000000000000000 000000000000000000000000000000000000000     00000000                                                                                                                        000000000000000000
F0010000007061000003000000431178400042505000000000000000000201504240002001EFRAIN ALVAREZ                                    C000000000150000000000000000000000100010010000000000000000000000F0010000007061000320150424000101 00000000000000000000000000000000000000000000000000000000000000000000000000000000000000000000000000000000000000000N 00000000000NCONT   00    00000000000          00000000000000000000000000000000000000000000 000000000000000A000000000000000000000000000000000000000000000 000000000000000000000000000000000000000     00000000                                                                                                                        000000000000000000
F0010000007061000004000000431178400023658300000000000000000201504240002001EFRAIN ALVAREZ                                    C000000000013800000000000000000000100010010000000000000000000000F0010000007061000420150424000101 00000000000000000000000000000000000000000000000000000000000000000000000000000000000000000000000000000000000000000N 00000000000NCONT   00    00000000000          00000000000000000000000000000000000000000000 000000000000000A000000000000000000000000000000000000000000000 000000000000000000000000000000000000000     00000000                                                                                                                        000000000000000000
F0010000007061000005000000431178400013552100000000000000000201504240002001EFRAIN ALVAREZ                                    D000000000013800000000000000000000100010010000000000000000000000F0010000007061000520150424000101 00000000000000000000000000000000000000000000000000000000000000000000000000000000000000000000000000000000000000000N 00000000000NCONT   00    00000000000          00000000000000000000000000000000000000000000 000000000000000A000000000000000000000000000000000000000000000 000000000000000000000000000000000000000     00000000                                                                                                                        000000000000000000
F0010000007061100001000000431178400011050500000000000000000201504240002001EFRAIN ALVAREZ                                    D000000001810000000000000000000000100010010000000000000000000000F0010000007061100120150424000101 00000000000000000000000000000000000000000000000000000000000000000000000000000000000000000000000000000000000000000N 00000000000NCONT   00    00000000000          00000000000000000000000000000000000000000000 000000000000000A000000000000000000000000000000000000000000000 000000000000000000000000000000000000000     00000000                                                                                                                        000000000000000000
F0010000007061100002000000431178400041450500000000000000000201504240002001EFRAIN ALVAREZ                                    C000000001720000000000000000000000100010010000000000000000000000F0010000007061100220150424000101 00000000000000000000000000000000000000000000000000000000000000000000000000000000000000000000000000000000000000000N 00000000000NCONT   00    00000000000          00000000000000000000000000000000000000000000 000000000000000A000000000000000000000000000000000000000000000 000000000000000000000000000000000000000     00000000                                                                                                                        000000000000000000
F0010000007061100003000000431178400042505000000000000000000201504240002001EFRAIN ALVAREZ                                    C000000000090000000000000000000000100010010000000000000000000000F0010000007061100320150424000101 00000000000000000000000000000000000000000000000000000000000000000000000000000000000000000000000000000000000000000N 00000000000NCONT   00    00000000000          00000000000000000000000000000000000000000000 000000000000000A000000000000000000000000000000000000000000000 000000000000000000000000000000000000000     00000000                                                                                                                        000000000000000000
F0010000007061100004000000431178400023658300000000000000000201504240002001EFRAIN ALVAREZ                                    C000000000013800000000000000000000100010010000000000000000000000F0010000007061100420150424000101 00000000000000000000000000000000000000000000000000000000000000000000000000000000000000000000000000000000000000000N 00000000000NCONT   00    00000000000          00000000000000000000000000000000000000000000 000000000000000A000000000000000000000000000000000000000000000 000000000000000000000000000000000000000     00000000                                                                                                                        000000000000000000
F0010000007061100005000000431178400013552100000000000000000201504240002001EFRAIN ALVAREZ                                    D000000000013800000000000000000000100010010000000000000000000000F0010000007061100520150424000101 00000000000000000000000000000000000000000000000000000000000000000000000000000000000000000000000000000000000000000N 00000000000NCONT   00    00000000000          00000000000000000000000000000000000000000000 000000000000000A000000000000000000000000000000000000000000000 000000000000000000000000000000000000000     00000000                                                                                                                        000000000000000000
F0010000007061200001000000431178400011050500000000000000000201504240002001EFRAIN ALVAREZ                                    D000000000910000000000000000000000100010010000000000000000000000F0010000007061200120150424000101 00000000000000000000000000000000000000000000000000000000000000000000000000000000000000000000000000000000000000000N 00000000000NCONT   00    00000000000          00000000000000000000000000000000000000000000 000000000000000A000000000000000000000000000000000000000000000 000000000000000000000000000000000000000     00000000                                                                                                                        000000000000000000
F0010000007061200002000000431178400041450500000000000000000201504240002001EFRAIN ALVAREZ                                    C000000000860000000000000000000000100010010000000000000000000000F0010000007061200220150424000101 00000000000000000000000000000000000000000000000000000000000000000000000000000000000000000000000000000000000000000N 00000000000NCONT   00    00000000000          00000000000000000000000000000000000000000000 000000000000000A000000000000000000000000000000000000000000000 000000000000000000000000000000000000000     00000000                                                                                                                        000000000000000000
F0010000007061200003000000431178400042505000000000000000000201504240002001EFRAIN ALVAREZ                                    C000000000050000000000000000000000100010010000000000000000000000F0010000007061200320150424000101 00000000000000000000000000000000000000000000000000000000000000000000000000000000000000000000000000000000000000000N 00000000000NCONT   00    00000000000          00000000000000000000000000000000000000000000 000000000000000A000000000000000000000000000000000000000000000 000000000000000000000000000000000000000     00000000                                                                                                                        000000000000000000
F0010000007061200004000000431178400023658300000000000000000201504240002001EFRAIN ALVAREZ                                    C000000000006900000000000000000000100010010000000000000000000000F0010000007061200420150424000101 00000000000000000000000000000000000000000000000000000000000000000000000000000000000000000000000000000000000000000N 00000000000NCONT   00    00000000000          00000000000000000000000000000000000000000000 000000000000000A000000000000000000000000000000000000000000000 000000000000000000000000000000000000000     00000000                                                                                                                        000000000000000000
F0010000007061200005000000431178400013552100000000000000000201504240002001EFRAIN ALVAREZ                                    D000000000006900000000000000000000100010010000000000000000000000F0010000007061200520150424000101 00000000000000000000000000000000000000000000000000000000000000000000000000000000000000000000000000000000000000000N 00000000000NCONT   00    00000000000          00000000000000000000000000000000000000000000 000000000000000A000000000000000000000000000000000000000000000 000000000000000000000000000000000000000     00000000                                                                                                                        000000000000000000
F0010000007061300001000000431178400011050500000000000000000201504240002001EFRAIN ALVAREZ                                    D000000000910000000000000000000000100010010000000000000000000000F0010000007061300120150424000101 00000000000000000000000000000000000000000000000000000000000000000000000000000000000000000000000000000000000000000N 00000000000NCONT   00    00000000000          00000000000000000000000000000000000000000000 000000000000000A000000000000000000000000000000000000000000000 000000000000000000000000000000000000000     00000000                                                                                                                        000000000000000000
F0010000007061300002000000431178400041450500000000000000000201504240002001EFRAIN ALVAREZ                                    C000000000860000000000000000000000100010010000000000000000000000F0010000007061300220150424000101 00000000000000000000000000000000000000000000000000000000000000000000000000000000000000000000000000000000000000000N 00000000000NCONT   00    00000000000          00000000000000000000000000000000000000000000 000000000000000A000000000000000000000000000000000000000000000 000000000000000000000000000000000000000     00000000                                                                                                                        000000000000000000
F0010000007061300003000000431178400042505000000000000000000201504240002001EFRAIN ALVAREZ                                    C000000000050000000000000000000000100010010000000000000000000000F0010000007061300320150424000101 00000000000000000000000000000000000000000000000000000000000000000000000000000000000000000000000000000000000000000N 00000000000NCONT   00    00000000000          00000000000000000000000000000000000000000000 000000000000000A000000000000000000000000000000000000000000000 000000000000000000000000000000000000000     00000000                                                                                                                        000000000000000000
F0010000007061300004000000431178400023658300000000000000000201504240002001EFRAIN ALVAREZ                                    C000000000006900000000000000000000100010010000000000000000000000F0010000007061300420150424000101 00000000000000000000000000000000000000000000000000000000000000000000000000000000000000000000000000000000000000000N 00000000000NCONT   00    00000000000          00000000000000000000000000000000000000000000 000000000000000A000000000000000000000000000000000000000000000 000000000000000000000000000000000000000     00000000                                                                                                                        000000000000000000
F0010000007061300005000000431178400013552100000000000000000201504240002001EFRAIN ALVAREZ                                    D000000000006900000000000000000000100010010000000000000000000000F0010000007061300520150424000101 00000000000000000000000000000000000000000000000000000000000000000000000000000000000000000000000000000000000000000N 00000000000NCONT   00    00000000000          00000000000000000000000000000000000000000000 000000000000000A000000000000000000000000000000000000000000000 000000000000000000000000000000000000000     00000000                                                                                                                        000000000000000000
F0010000007061400001000000431178400011050500000000000000000201504240002001EFRAIN ALVAREZ                                    D000000004730000000000000000000000100010010000000000000000000000F0010000007061400120150424000101 00000000000000000000000000000000000000000000000000000000000000000000000000000000000000000000000000000000000000000N 00000000000NCONT   00    00000000000          00000000000000000000000000000000000000000000 000000000000000A000000000000000000000000000000000000000000000 000000000000000000000000000000000000000     00000000                                                                                                                        000000000000000000
F0010000007061400002000000431178400041450500000000000000000201504240002001EFRAIN ALVAREZ                                    C000000004530000000000000000000000100010010000000000000000000000F0010000007061400220150424000101 00000000000000000000000000000000000000000000000000000000000000000000000000000000000000000000000000000000000000000N 00000000000NCONT   00    00000000000          00000000000000000000000000000000000000000000 000000000000000A000000000000000000000000000000000000000000000 000000000000000000000000000000000000000     00000000                                                                                                                        000000000000000000
F0010000007061400003000000431178400042505000000000000000000201504240002001EFRAIN ALVAREZ                                    C000000000200000000000000000000000100010010000000000000000000000F0010000007061400320150424000101 00000000000000000000000000000000000000000000000000000000000000000000000000000000000000000000000000000000000000000N 00000000000NCONT   00    00000000000          00000000000000000000000000000000000000000000 000000000000000A000000000000000000000000000000000000000000000 000000000000000000000000000000000000000     00000000                                                                                                                        000000000000000000
F0010000007061400004000000431178400023658300000000000000000201504240002001EFRAIN ALVAREZ                                    C000000000036200000000000000000000100010010000000000000000000000F0010000007061400420150424000101 00000000000000000000000000000000000000000000000000000000000000000000000000000000000000000000000000000000000000000N 00000000000NCONT   00    00000000000          00000000000000000000000000000000000000000000 000000000000000A000000000000000000000000000000000000000000000 000000000000000000000000000000000000000     00000000                                                                                                                        000000000000000000
F0010000007061400005000000431178400013552100000000000000000201504240002001EFRAIN ALVAREZ                                    D000000000036200000000000000000000100010010000000000000000000000F0010000007061400520150424000101 00000000000000000000000000000000000000000000000000000000000000000000000000000000000000000000000000000000000000000N 00000000000NCONT   00    00000000000          00000000000000000000000000000000000000000000 000000000000000A000000000000000000000000000000000000000000000 000000000000000000000000000000000000000     00000000                                                                                                                        000000000000000000
F0010000007061500001000000431178400011050500000000000000000201504240002001EFRAIN ALVAREZ                                    D000000003590000000000000000000000100010010000000000000000000000F0010000007061500120150424000101 00000000000000000000000000000000000000000000000000000000000000000000000000000000000000000000000000000000000000000N 00000000000NCONT   00    00000000000          00000000000000000000000000000000000000000000 000000000000000A000000000000000000000000000000000000000000000 000000000000000000000000000000000000000     00000000                                                                                                                        000000000000000000
F0010000007061500002000000431178400041450500000000000000000201504240002001EFRAIN ALVAREZ                                    C000000003440000000000000000000000100010010000000000000000000000F0010000007061500220150424000101 00000000000000000000000000000000000000000000000000000000000000000000000000000000000000000000000000000000000000000N 00000000000NCONT   00    00000000000          00000000000000000000000000000000000000000000 000000000000000A000000000000000000000000000000000000000000000 000000000000000000000000000000000000000     00000000                                                                                                                        000000000000000000
F0010000007061500003000000431178400042505000000000000000000201504240002001EFRAIN ALVAREZ                                    C000000000150000000000000000000000100010010000000000000000000000F0010000007061500320150424000101 00000000000000000000000000000000000000000000000000000000000000000000000000000000000000000000000000000000000000000N 00000000000NCONT   00    00000000000          00000000000000000000000000000000000000000000 000000000000000A000000000000000000000000000000000000000000000 000000000000000000000000000000000000000     00000000                                                                                                                        000000000000000000
F0010000007061500004000000431178400023658300000000000000000201504240002001EFRAIN ALVAREZ                                    C000000000027500000000000000000000100010010000000000000000000000F0010000007061500420150424000101 00000000000000000000000000000000000000000000000000000000000000000000000000000000000000000000000000000000000000000N 00000000000NCONT   00    00000000000          00000000000000000000000000000000000000000000 000000000000000A000000000000000000000000000000000000000000000 000000000000000000000000000000000000000     00000000                                                                                                                        000000000000000000
F0010000007061500005000000431178400013552100000000000000000201504240002001EFRAIN ALVAREZ                                    D000000000027500000000000000000000100010010000000000000000000000F0010000007061500520150424000101 00000000000000000000000000000000000000000000000000000000000000000000000000000000000000000000000000000000000000000N 00000000000NCONT   00    00000000000          00000000000000000000000000000000000000000000 000000000000000A000000000000000000000000000000000000000000000 000000000000000000000000000000000000000     00000000                                                                                                                        000000000000000000
F0010000007061600001000000431178400011050500000000000000000201504240002001EFRAIN ALVAREZ                                    D000000001870000000000000000000000100010010000000000000000000000F0010000007061600120150424000101 00000000000000000000000000000000000000000000000000000000000000000000000000000000000000000000000000000000000000000N 00000000000NCONT   00    00000000000          00000000000000000000000000000000000000000000 000000000000000A000000000000000000000000000000000000000000000 000000000000000000000000000000000000000     00000000                                                                                                                        000000000000000000
F0010000007061600002000000431178400041450500000000000000000201504240002001EFRAIN ALVAREZ                                    C000000001720000000000000000000000100010010000000000000000000000F0010000007061600220150424000101 00000000000000000000000000000000000000000000000000000000000000000000000000000000000000000000000000000000000000000N 00000000000NCONT   00    00000000000          00000000000000000000000000000000000000000000 000000000000000A000000000000000000000000000000000000000000000 000000000000000000000000000000000000000     00000000                                                                                                                        000000000000000000
F0010000007061600003000000431178400042505000000000000000000201504240002001EFRAIN ALVAREZ                                    C000000000150000000000000000000000100010010000000000000000000000F0010000007061600320150424000101 00000000000000000000000000000000000000000000000000000000000000000000000000000000000000000000000000000000000000000N 00000000000NCONT   00    00000000000          00000000000000000000000000000000000000000000 000000000000000A000000000000000000000000000000000000000000000 000000000000000000000000000000000000000     00000000                                                                                                                        000000000000000000
F0010000007061600004000000431178400023658300000000000000000201504240002001EFRAIN ALVAREZ                                    C000000000013800000000000000000000100010010000000000000000000000F0010000007061600420150424000101 00000000000000000000000000000000000000000000000000000000000000000000000000000000000000000000000000000000000000000N 00000000000NCONT   00    00000000000          00000000000000000000000000000000000000000000 000000000000000A000000000000000000000000000000000000000000000 000000000000000000000000000000000000000     00000000                                                                                                                        000000000000000000
F0010000007061600005000000431178400013552100000000000000000201504240002001EFRAIN ALVAREZ                                    D000000000013800000000000000000000100010010000000000000000000000F0010000007061600520150424000101 00000000000000000000000000000000000000000000000000000000000000000000000000000000000000000000000000000000000000000N 00000000000NCONT   00    00000000000          00000000000000000000000000000000000000000000 000000000000000A000000000000000000000000000000000000000000000 000000000000000000000000000000000000000     00000000                                                                                                                        000000000000000000
F0010000007061700001000000866309000011050500000000000000000201504240002001MARCO MORA PATIO                                D000000002320000000000000000000000100010010000000000000000000000F0010000007061700120150424000101 00000000000000000000000000000000000000000000000000000000000000000000000000000000000000000000000000000000000000000N 00000000000NCONT   00    00000000000          00000000000000000000000000000000000000000000 000000000000000A000000000000000000000000000000000000000000000 000000000000000000000000000000000000000     00000000                                                                                                                        000000000000000000
F0010000007061700002000000866309000041450500000000000000000201504240002001MARCO MORA PATIO                                C000000002200000000000000000000000100010010000000000000000000000F0010000007061700220150424000101 00000000000000000000000000000000000000000000000000000000000000000000000000000000000000000000000000000000000000000N 00000000000NCONT   00    00000000000          00000000000000000000000000000000000000000000 000000000000000A000000000000000000000000000000000000000000000 000000000000000000000000000000000000000     00000000                                                                                                                        000000000000000000
F0010000007061700003000000866309000042505000000000000000000201504240002001MARCO MORA PATIO                                C000000000120000000000000000000000100010010000000000000000000000F0010000007061700320150424000101 00000000000000000000000000000000000000000000000000000000000000000000000000000000000000000000000000000000000000000N 00000000000NCONT   00    00000000000          00000000000000000000000000000000000000000000 000000000000000A000000000000000000000000000000000000000000000 000000000000000000000000000000000000000     00000000                                                                                                                        000000000000000000
F0010000007061700004000000866309000023658300000000000000000201504240002001MARCO MORA PATIO                                C000000000017600000000000000000000100010010000000000000000000000F0010000007061700420150424000101 00000000000000000000000000000000000000000000000000000000000000000000000000000000000000000000000000000000000000000N 00000000000NCONT   00    00000000000          00000000000000000000000000000000000000000000 000000000000000A000000000000000000000000000000000000000000000 000000000000000000000000000000000000000     00000000                                                                                                                        000000000000000000
F0010000007061700005000000866309000013552100000000000000000201504240002001MARCO MORA PATIO                                D000000000017600000000000000000000100010010000000000000000000000F0010000007061700520150424000101 00000000000000000000000000000000000000000000000000000000000000000000000000000000000000000000000000000000000000000N 00000000000NCONT   00    00000000000          00000000000000000000000000000000000000000000 000000000000000A000000000000000000000000000000000000000000000 000000000000000000000000000000000000000     00000000                                                                                                                        000000000000000000
F0010000007061800001000000866309000011050500000000000000000201504240002001MARCO MORA PATIO                                D000000002550000000000000000000000100010010000000000000000000000F0010000007061800120150424000101 00000000000000000000000000000000000000000000000000000000000000000000000000000000000000000000000000000000000000000N 00000000000NCONT   00    00000000000          00000000000000000000000000000000000000000000 000000000000000A000000000000000000000000000000000000000000000 000000000000000000000000000000000000000     00000000                                                                                                                        000000000000000000
F0010000007061800002000000866309000041450500000000000000000201504240002001MARCO MORA PATIO                                C000000002200000000000000000000000100010010000000000000000000000F0010000007061800220150424000101 00000000000000000000000000000000000000000000000000000000000000000000000000000000000000000000000000000000000000000N 00000000000NCONT   00    00000000000          00000000000000000000000000000000000000000000 000000000000000A000000000000000000000000000000000000000000000 000000000000000000000000000000000000000     00000000                                                                                                                        000000000000000000
F0010000007061800003000000866309000042505000000000000000000201504240002001MARCO MORA PATIO                                C000000000350000000000000000000000100010010000000000000000000000F0010000007061800320150424000101 00000000000000000000000000000000000000000000000000000000000000000000000000000000000000000000000000000000000000000N 00000000000NCONT   00    00000000000          00000000000000000000000000000000000000000000 000000000000000A000000000000000000000000000000000000000000000 000000000000000000000000000000000000000     00000000                                                                                                                        000000000000000000
F0010000007061800004000000866309000023658300000000000000000201504240002001MARCO MORA PATIO                                C000000000017600000000000000000000100010010000000000000000000000F0010000007061800420150424000101 00000000000000000000000000000000000000000000000000000000000000000000000000000000000000000000000000000000000000000N 00000000000NCONT   00    00000000000          00000000000000000000000000000000000000000000 000000000000000A000000000000000000000000000000000000000000000 000000000000000000000000000000000000000     00000000                                                                                                                        000000000000000000
F0010000007061800005000000866309000013552100000000000000000201504240002001MARCO MORA PATIO                                D000000000017600000000000000000000100010010000000000000000000000F0010000007061800520150424000101 00000000000000000000000000000000000000000000000000000000000000000000000000000000000000000000000000000000000000000N 00000000000NCONT   00    00000000000          00000000000000000000000000000000000000000000 000000000000000A000000000000000000000000000000000000000000000 000000000000000000000000000000000000000     00000000                                                                                                                        000000000000000000
F0010000007061900001000003314755400011050500000000000000000201504240002001RUMATEX DE COLOMBIA                               D000000001500000000000000000000000100010010000000000000000000000F0010000007061900120150424000101 00000000000000000000000000000000000000000000000000000000000000000000000000000000000000000000000000000000000000000N 00000000000NCONT   00    00000000000          00000000000000000000000000000000000000000000 000000000000000A000000000000000000000000000000000000000000000 000000000000000000000000000000000000000     00000000                                                                                                                        000000000000000000
F0010000007061900002000003314755400041450500000000000000000201504240002001RUMATEX DE COLOMBIA                               C000000001200000000000000000000000100010010000000000000000000000F0010000007061900220150424000101 00000000000000000000000000000000000000000000000000000000000000000000000000000000000000000000000000000000000000000N 00000000000NCONT   00    00000000000          00000000000000000000000000000000000000000000 000000000000000A000000000000000000000000000000000000000000000 000000000000000000000000000000000000000     00000000                                                                                                                        000000000000000000
F0010000007061900003000003314755400042505000000000000000000201504240002001RUMATEX DE COLOMBIA                               C000000000300000000000000000000000100010010000000000000000000000F0010000007061900320150424000101 00000000000000000000000000000000000000000000000000000000000000000000000000000000000000000000000000000000000000000N 00000000000NCONT   00    00000000000          00000000000000000000000000000000000000000000 000000000000000A000000000000000000000000000000000000000000000 000000000000000000000000000000000000000     00000000                                                                                                                        000000000000000000
F0010000007061900004000003314755400023658300000000000000000201504240002001RUMATEX DE COLOMBIA                               C000000000009600000000000000000000100010010000000000000000000000F0010000007061900420150424000101 00000000000000000000000000000000000000000000000000000000000000000000000000000000000000000000000000000000000000000N 00000000000NCONT   00    00000000000          00000000000000000000000000000000000000000000 000000000000000A000000000000000000000000000000000000000000000 000000000000000000000000000000000000000     00000000                                                                                                                        000000000000000000
F0010000007061900005000003314755400013552100000000000000000201504240002001RUMATEX DE COLOMBIA                               D000000000009600000000000000000000100010010000000000000000000000F0010000007061900520150424000101 00000000000000000000000000000000000000000000000000000000000000000000000000000000000000000000000000000000000000000N 00000000000NCONT   00    00000000000          00000000000000000000000000000000000000000000 000000000000000A000000000000000000000000000000000000000000000 000000000000000000000000000000000000000     00000000                                                                                                                        000000000000000000
F0010000007062000001000002245670100011050500000000000000000201504240002001YOLANDA  TOBON                                    D000000002960000000000000000000000100010010000000000000000000000F0010000007062000120150424000101 00000000000000000000000000000000000000000000000000000000000000000000000000000000000000000000000000000000000000000N 00000000000NCONT   00    00000000000          00000000000000000000000000000000000000000000 000000000000000A000000000000000000000000000000000000000000000 000000000000000000000000000000000000000     00000000                                                                                                                        000000000000000000
F0010000007062000002000002245670100041450500000000000000000201504240002001YOLANDA  TOBON                                    C000000002550000000000000000000000100010010000000000000000000000F0010000007062000220150424000101 00000000000000000000000000000000000000000000000000000000000000000000000000000000000000000000000000000000000000000N 00000000000NCONT   00    00000000000          00000000000000000000000000000000000000000000 000000000000000A000000000000000000000000000000000000000000000 000000000000000000000000000000000000000     00000000                                                                                                                        000000000000000000
F0010000007062000003000002245670100042505000000000000000000201504240002001YOLANDA  TOBON                                    C000000000410000000000000000000000100010010000000000000000000000F0010000007062000320150424000101 00000000000000000000000000000000000000000000000000000000000000000000000000000000000000000000000000000000000000000N 00000000000NCONT   00    00000000000          00000000000000000000000000000000000000000000 000000000000000A000000000000000000000000000000000000000000000 000000000000000000000000000000000000000     00000000                                                                                                                        000000000000000000
F0010000007062000004000002245670100023658300000000000000000201504240002001YOLANDA  TOBON                                    C000000000020400000000000000000000100010010000000000000000000000F0010000007062000420150424000101 00000000000000000000000000000000000000000000000000000000000000000000000000000000000000000000000000000000000000000N 00000000000NCONT   00    00000000000          00000000000000000000000000000000000000000000 000000000000000A000000000000000000000000000000000000000000000 000000000000000000000000000000000000000     00000000                                                                                                                        000000000000000000
F0010000007062000005000002245670100013552100000000000000000201504240002001YOLANDA  TOBON                                    D000000000020400000000000000000000100010010000000000000000000000F0010000007062000520150424000101 00000000000000000000000000000000000000000000000000000000000000000000000000000000000000000000000000000000000000000N 00000000000NCONT   00    00000000000          00000000000000000000000000000000000000000000 000000000000000A000000000000000000000000000000000000000000000 000000000000000000000000000000000000000     00000000                                                                                                                        000000000000000000
F0010000007062100001000002245670100011050500000000000000000201504240002001YOLANDA  TOBON                                    D000000001600000000000000000000000100010010000000000000000000000F0010000007062100120150424000101 00000000000000000000000000000000000000000000000000000000000000000000000000000000000000000000000000000000000000000N 00000000000NCONT   00    00000000000          00000000000000000000000000000000000000000000 000000000000000A000000000000000000000000000000000000000000000 000000000000000000000000000000000000000     00000000                                                                                                                        000000000000000000
F0010000007062100002000002245670100041450500000000000000000201504240002001YOLANDA  TOBON                                    C000000001270000000000000000000000100010010000000000000000000000F0010000007062100220150424000101 00000000000000000000000000000000000000000000000000000000000000000000000000000000000000000000000000000000000000000N 00000000000NCONT   00    00000000000          00000000000000000000000000000000000000000000 000000000000000A000000000000000000000000000000000000000000000 000000000000000000000000000000000000000     00000000                                                                                                                        000000000000000000
F0010000007062100003000002245670100042505000000000000000000201504240002001YOLANDA  TOBON                                    C000000000330000000000000000000000100010010000000000000000000000F0010000007062100320150424000101 00000000000000000000000000000000000000000000000000000000000000000000000000000000000000000000000000000000000000000N 00000000000NCONT   00    00000000000          00000000000000000000000000000000000000000000 000000000000000A000000000000000000000000000000000000000000000 000000000000000000000000000000000000000     00000000                                                                                                                        000000000000000000
F0010000007062100004000002245670100023658300000000000000000201504240002001YOLANDA  TOBON                                    C000000000010200000000000000000000100010010000000000000000000000F0010000007062100420150424000101 00000000000000000000000000000000000000000000000000000000000000000000000000000000000000000000000000000000000000000N 00000000000NCONT   00    00000000000          00000000000000000000000000000000000000000000 000000000000000A000000000000000000000000000000000000000000000 000000000000000000000000000000000000000     00000000                                                                                                                        000000000000000000
F0010000007062100005000002245670100013552100000000000000000201504240002001YOLANDA  TOBON                                    D000000000010200000000000000000000100010010000000000000000000000F0010000007062100520150424000101 00000000000000000000000000000000000000000000000000000000000000000000000000000000000000000000000000000000000000000N 00000000000NCONT   00    00000000000          00000000000000000000000000000000000000000000 000000000000000A000000000000000000000000000000000000000000000 000000000000000000000000000000000000000     00000000                                                                                                                        000000000000000000
F0010000007062200001000090050144800011050500000000000000000201504240002001PLASTICOS JR ASOCIADOS SAS                        D000000005600000000000000000000000100010010000000000000000000000F0010000007062200120150424000101 00000000000000000000000000000000000000000000000000000000000000000000000000000000000000000000000000000000000000000N 00000000000NCONT   00    00000000000          00000000000000000000000000000000000000000000 000000000000000A000000000000000000000000000000000000000000000 000000000000000000000000000000000000000     00000000                                                                                                                        000000000000000000
F0010000007062200002000090050144800041450500000000000000000201504240002001PLASTICOS JR ASOCIADOS SAS                        C000000004800000000000000000000000100010010000000000000000000000F0010000007062200220150424000101 00000000000000000000000000000000000000000000000000000000000000000000000000000000000000000000000000000000000000000N 00000000000NCONT   00    00000000000          00000000000000000000000000000000000000000000 000000000000000A000000000000000000000000000000000000000000000 000000000000000000000000000000000000000     00000000                                                                                                                        000000000000000000
F0010000007062200003000090050144800042505000000000000000000201504240002001PLASTICOS JR ASOCIADOS SAS                        C000000000800000000000000000000000100010010000000000000000000000F0010000007062200320150424000101 00000000000000000000000000000000000000000000000000000000000000000000000000000000000000000000000000000000000000000N 00000000000NCONT   00    00000000000          00000000000000000000000000000000000000000000 000000000000000A000000000000000000000000000000000000000000000 000000000000000000000000000000000000000     00000000                                                                                                                        000000000000000000
F0010000007062200004000090050144800023658300000000000000000201504240002001PLASTICOS JR ASOCIADOS SAS                        C000000000038400000000000000000000100010010000000000000000000000F0010000007062200420150424000101 00000000000000000000000000000000000000000000000000000000000000000000000000000000000000000000000000000000000000000N 00000000000NCONT   00    00000000000          00000000000000000000000000000000000000000000 000000000000000A000000000000000000000000000000000000000000000 000000000000000000000000000000000000000     00000000                                                                                                                        000000000000000000
F0010000007062200005000090050144800013552100000000000000000201504240002001PLASTICOS JR ASOCIADOS SAS                        D000000000038400000000000000000000100010010000000000000000000000F0010000007062200520150424000101 00000000000000000000000000000000000000000000000000000000000000000000000000000000000000000000000000000000000000000N 00000000000NCONT   00    00000000000          00000000000000000000000000000000000000000000 000000000000000A000000000000000000000000000000000000000000000 000000000000000000000000000000000000000     00000000                                                                                                                        000000000000000000
F0010000007062300001000090050144800011050500000000000000000201504240002001PLASTICOS JR ASOCIADOS SAS                        D000000005300000000000000000000000100010010000000000000000000000F0010000007062300120150424000101 00000000000000000000000000000000000000000000000000000000000000000000000000000000000000000000000000000000000000000N 00000000000NCONT   00    00000000000          00000000000000000000000000000000000000000000 000000000000000A000000000000000000000000000000000000000000000 000000000000000000000000000000000000000     00000000                                                                                                                        000000000000000000
F0010000007062300002000090050144800041450500000000000000000201504240002001PLASTICOS JR ASOCIADOS SAS                        C000000004300000000000000000000000100010010000000000000000000000F0010000007062300220150424000101 00000000000000000000000000000000000000000000000000000000000000000000000000000000000000000000000000000000000000000N 00000000000NCONT   00    00000000000          00000000000000000000000000000000000000000000 000000000000000A000000000000000000000000000000000000000000000 000000000000000000000000000000000000000     00000000                                                                                                                        000000000000000000
F0010000007062300003000090050144800042505000000000000000000201504240002001PLASTICOS JR ASOCIADOS SAS                        C000000001000000000000000000000000100010010000000000000000000000F0010000007062300320150424000101 00000000000000000000000000000000000000000000000000000000000000000000000000000000000000000000000000000000000000000N 00000000000NCONT   00    00000000000          00000000000000000000000000000000000000000000 000000000000000A000000000000000000000000000000000000000000000 000000000000000000000000000000000000000     00000000                                                                                                                        000000000000000000
F0010000007062300004000090050144800023658300000000000000000201504240002001PLASTICOS JR ASOCIADOS SAS                        C000000000034400000000000000000000100010010000000000000000000000F0010000007062300420150424000101 00000000000000000000000000000000000000000000000000000000000000000000000000000000000000000000000000000000000000000N 00000000000NCONT   00    00000000000          00000000000000000000000000000000000000000000 000000000000000A000000000000000000000000000000000000000000000 000000000000000000000000000000000000000     00000000                                                                                                                        000000000000000000
F0010000007062300005000090050144800013552100000000000000000201504240002001PLASTICOS JR ASOCIADOS SAS                        D000000000034400000000000000000000100010010000000000000000000000F0010000007062300520150424000101 00000000000000000000000000000000000000000000000000000000000000000000000000000000000000000000000000000000000000000N 00000000000NCONT   00    00000000000          00000000000000000000000000000000000000000000 000000000000000A000000000000000000000000000000000000000000000 000000000000000000000000000000000000000     00000000                                                                                                                        000000000000000000
F0010000007062400001000000870907300011050500000000000000000201504240002001SURTIDOR FERRETERO                                D000000004540000000000000000000000100010010000000000000000000000F0010000007062400120150424000101 00000000000000000000000000000000000000000000000000000000000000000000000000000000000000000000000000000000000000000N 00000000000NCONT   00    00000000000          00000000000000000000000000000000000000000000 000000000000000A000000000000000000000000000000000000000000000 000000000000000000000000000000000000000     00000000                                                                                                                        000000000000000000
F0010000007062400002000000870907300041450500000000000000000201504240002001SURTIDOR FERRETERO                                C000000003040000000000000000000000100010010000000000000000000000F0010000007062400220150424000101 00000000000000000000000000000000000000000000000000000000000000000000000000000000000000000000000000000000000000000N 00000000000NCONT   00    00000000000          00000000000000000000000000000000000000000000 000000000000000A000000000000000000000000000000000000000000000 000000000000000000000000000000000000000     00000000                                                                                                                        000000000000000000
F0010000007062400003000000870907300042505000000000000000000201504240002001SURTIDOR FERRETERO                                C000000001500000000000000000000000100010010000000000000000000000F0010000007062400320150424000101 00000000000000000000000000000000000000000000000000000000000000000000000000000000000000000000000000000000000000000N 00000000000NCONT   00    00000000000          00000000000000000000000000000000000000000000 000000000000000A000000000000000000000000000000000000000000000 000000000000000000000000000000000000000     00000000                                                                                                                        000000000000000000
F0010000007062400004000000870907300023658300000000000000000201504240002001SURTIDOR FERRETERO                                C000000000024300000000000000000000100010010000000000000000000000F0010000007062400420150424000101 00000000000000000000000000000000000000000000000000000000000000000000000000000000000000000000000000000000000000000N 00000000000NCONT   00    00000000000          00000000000000000000000000000000000000000000 000000000000000A000000000000000000000000000000000000000000000 000000000000000000000000000000000000000     00000000                                                                                                                        000000000000000000
F0010000007062400005000000870907300013552100000000000000000201504240002001SURTIDOR FERRETERO                                D000000000024300000000000000000000100010010000000000000000000000F0010000007062400520150424000101 00000000000000000000000000000000000000000000000000000000000000000000000000000000000000000000000000000000000000000N 00000000000NCONT   00    00000000000          00000000000000000000000000000000000000000000 000000000000000A000000000000000000000000000000000000000000000 000000000000000000000000000000000000000     00000000                                                                                                                        000000000000000000
