F0010000008639200001000083011391400011050500000000000000000201605240002001INSTITUCIONAL STAR SERVICES LTDA                  D000000000740000000000000000000000100010010000000000000000000000F0010000008639200120160524000101 00000000000000000000000000000000000000000000000000000000000000000000000000000000000000000000000000000000000000000N 00000000000NCONT   00    00000000000          00000000000000000000000000000000000000000000 000000000000000A000000000000000000000000000000000000000000000 000000000000000000000000000000000000000     00000000                                                                                                                        000000000000000000
F0010000008639200002000083011391400041450500000000000000000201605240002001INSTITUCIONAL STAR SERVICES LTDA                  C000000000640000000000000000000000100010010000000000000000000000F0010000008639200220160524000101 00000000000000000000000000000000000000000000000000000000000000000000000000000000000000000000000000000000000000000N 00000000000NCONT   00    00000000000          00000000000000000000000000000000000000000000 000000000000000A000000000000000000000000000000000000000000000 000000000000000000000000000000000000000     00000000                                                                                                                        000000000000000000
F0010000008639200003000083011391400042505000000000000000000201605240002001INSTITUCIONAL STAR SERVICES LTDA                  C000000000100000000000000000000000100010010000000000000000000000F0010000008639200320160524000101 00000000000000000000000000000000000000000000000000000000000000000000000000000000000000000000000000000000000000000N 00000000000NCONT   00    00000000000          00000000000000000000000000000000000000000000 000000000000000A000000000000000000000000000000000000000000000 000000000000000000000000000000000000000     00000000                                                                                                                        000000000000000000
F0010000008639200004000083011391400023658300000000000000000201605240002001INSTITUCIONAL STAR SERVICES LTDA                  C000000000005100000000000000000000100010010000000000000000000000F0010000008639200420160524000101 00000000000000000000000000000000000000000000000000000000000000000000000000000000000000000000000000000000000000000N 00000000000NCONT   00    00000000000          00000000000000000000000000000000000000000000 000000000000000A000000000000000000000000000000000000000000000 000000000000000000000000000000000000000     00000000                                                                                                                        000000000000000000
F0010000008639200005000083011391400013552100000000000000000201605240002001INSTITUCIONAL STAR SERVICES LTDA                  D000000000005100000000000000000000100010010000000000000000000000F0010000008639200520160524000101 00000000000000000000000000000000000000000000000000000000000000000000000000000000000000000000000000000000000000000N 00000000000NCONT   00    00000000000          00000000000000000000000000000000000000000000 000000000000000A000000000000000000000000000000000000000000000 000000000000000000000000000000000000000     00000000                                                                                                                        000000000000000000
F0010000008639300001000000759116800011050500000000000000000201605240002001DAIRO  PEREZ ..                                   D000000003000000000000000000000000100010010000000000000000000000F0010000008639300120160524000101 00000000000000000000000000000000000000000000000000000000000000000000000000000000000000000000000000000000000000000N 00000000000NCONT   00    00000000000          00000000000000000000000000000000000000000000 000000000000000A000000000000000000000000000000000000000000000 000000000000000000000000000000000000000     00000000                                                                                                                        000000000000000000
F0010000008639300002000000759116800041450500000000000000000201605240002001DAIRO  PEREZ ..                                   C000000002800000000000000000000000100010010000000000000000000000F0010000008639300220160524000101 00000000000000000000000000000000000000000000000000000000000000000000000000000000000000000000000000000000000000000N 00000000000NCONT   00    00000000000          00000000000000000000000000000000000000000000 000000000000000A000000000000000000000000000000000000000000000 000000000000000000000000000000000000000     00000000                                                                                                                        000000000000000000
F0010000008639300003000000759116800042505000000000000000000201605240002001DAIRO  PEREZ ..                                   C000000000200000000000000000000000100010010000000000000000000000F0010000008639300320160524000101 00000000000000000000000000000000000000000000000000000000000000000000000000000000000000000000000000000000000000000N 00000000000NCONT   00    00000000000          00000000000000000000000000000000000000000000 000000000000000A000000000000000000000000000000000000000000000 000000000000000000000000000000000000000     00000000                                                                                                                        000000000000000000
F0010000008639300004000000759116800023658300000000000000000201605240002001DAIRO  PEREZ ..                                   C000000000022400000000000000000000100010010000000000000000000000F0010000008639300420160524000101 00000000000000000000000000000000000000000000000000000000000000000000000000000000000000000000000000000000000000000N 00000000000NCONT   00    00000000000          00000000000000000000000000000000000000000000 000000000000000A000000000000000000000000000000000000000000000 000000000000000000000000000000000000000     00000000                                                                                                                        000000000000000000
F0010000008639300005000000759116800013552100000000000000000201605240002001DAIRO  PEREZ ..                                   D000000000022400000000000000000000100010010000000000000000000000F0010000008639300520160524000101 00000000000000000000000000000000000000000000000000000000000000000000000000000000000000000000000000000000000000000N 00000000000NCONT   00    00000000000          00000000000000000000000000000000000000000000 000000000000000A000000000000000000000000000000000000000000000 000000000000000000000000000000000000000     00000000                                                                                                                        000000000000000000
F0010000008639400001000090073498600011050500000000000000000201605240002001VALTAC DEL CARIBE LTDA                            D000000010000000000000000000000000100010010000000000000000000000F0010000008639400120160524000101 00000000000000000000000000000000000000000000000000000000000000000000000000000000000000000000000000000000000000000N 00000000000NCONT   00    00000000000          00000000000000000000000000000000000000000000 000000000000000A000000000000000000000000000000000000000000000 000000000000000000000000000000000000000     00000000                                                                                                                        000000000000000000
F0010000008639400002000090073498600041450500000000000000000201605240002001VALTAC DEL CARIBE LTDA                            C000000009000000000000000000000000100010010000000000000000000000F0010000008639400220160524000101 00000000000000000000000000000000000000000000000000000000000000000000000000000000000000000000000000000000000000000N 00000000000NCONT   00    00000000000          00000000000000000000000000000000000000000000 000000000000000A000000000000000000000000000000000000000000000 000000000000000000000000000000000000000     00000000                                                                                                                        000000000000000000
F0010000008639400003000090073498600042505000000000000000000201605240002001VALTAC DEL CARIBE LTDA                            C000000001000000000000000000000000100010010000000000000000000000F0010000008639400320160524000101 00000000000000000000000000000000000000000000000000000000000000000000000000000000000000000000000000000000000000000N 00000000000NCONT   00    00000000000          00000000000000000000000000000000000000000000 000000000000000A000000000000000000000000000000000000000000000 000000000000000000000000000000000000000     00000000                                                                                                                        000000000000000000
F0010000008639400004000090073498600023658300000000000000000201605240002001VALTAC DEL CARIBE LTDA                            C000000000072000000000000000000000100010010000000000000000000000F0010000008639400420160524000101 00000000000000000000000000000000000000000000000000000000000000000000000000000000000000000000000000000000000000000N 00000000000NCONT   00    00000000000          00000000000000000000000000000000000000000000 000000000000000A000000000000000000000000000000000000000000000 000000000000000000000000000000000000000     00000000                                                                                                                        000000000000000000
F0010000008639400005000090073498600013552100000000000000000201605240002001VALTAC DEL CARIBE LTDA                            D000000000072000000000000000000000100010010000000000000000000000F0010000008639400520160524000101 00000000000000000000000000000000000000000000000000000000000000000000000000000000000000000000000000000000000000000N 00000000000NCONT   00    00000000000          00000000000000000000000000000000000000000000 000000000000000A000000000000000000000000000000000000000000000 000000000000000000000000000000000000000     00000000                                                                                                                        000000000000000000
F0010000008639500001000090053148300011050500000000000000000201605240002001SERVICARPAS                                       D000000002000000000000000000000000100010010000000000000000000000F0010000008639500120160524000101 00000000000000000000000000000000000000000000000000000000000000000000000000000000000000000000000000000000000000000N 00000000000NCONT   00    00000000000          00000000000000000000000000000000000000000000 000000000000000A000000000000000000000000000000000000000000000 000000000000000000000000000000000000000     00000000                                                                                                                        000000000000000000
F0010000008639500002000090053148300041450500000000000000000201605240002001SERVICARPAS                                       C000000001800000000000000000000000100010010000000000000000000000F0010000008639500220160524000101 00000000000000000000000000000000000000000000000000000000000000000000000000000000000000000000000000000000000000000N 00000000000NCONT   00    00000000000          00000000000000000000000000000000000000000000 000000000000000A000000000000000000000000000000000000000000000 000000000000000000000000000000000000000     00000000                                                                                                                        000000000000000000
F0010000008639500003000090053148300042505000000000000000000201605240002001SERVICARPAS                                       C000000000200000000000000000000000100010010000000000000000000000F0010000008639500320160524000101 00000000000000000000000000000000000000000000000000000000000000000000000000000000000000000000000000000000000000000N 00000000000NCONT   00    00000000000          00000000000000000000000000000000000000000000 000000000000000A000000000000000000000000000000000000000000000 000000000000000000000000000000000000000     00000000                                                                                                                        000000000000000000
F0010000008639500004000090053148300023658300000000000000000201605240002001SERVICARPAS                                       C000000000014400000000000000000000100010010000000000000000000000F0010000008639500420160524000101 00000000000000000000000000000000000000000000000000000000000000000000000000000000000000000000000000000000000000000N 00000000000NCONT   00    00000000000          00000000000000000000000000000000000000000000 000000000000000A000000000000000000000000000000000000000000000 000000000000000000000000000000000000000     00000000                                                                                                                        000000000000000000
F0010000008639500005000090053148300013552100000000000000000201605240002001SERVICARPAS                                       D000000000014400000000000000000000100010010000000000000000000000F0010000008639500520160524000101 00000000000000000000000000000000000000000000000000000000000000000000000000000000000000000000000000000000000000000N 00000000000NCONT   00    00000000000          00000000000000000000000000000000000000000000 000000000000000A000000000000000000000000000000000000000000000 000000000000000000000000000000000000000     00000000                                                                                                                        000000000000000000
F0010000008639600001000000760391200011050500000000000000000201605240002001RICARDO BOHORQUEZ GONGORA                         D000000007000000000000000000000000100010010000000000000000000000F0010000008639600120160524000101 00000000000000000000000000000000000000000000000000000000000000000000000000000000000000000000000000000000000000000N 00000000000NCONT   00    00000000000          00000000000000000000000000000000000000000000 000000000000000A000000000000000000000000000000000000000000000 000000000000000000000000000000000000000     00000000                                                                                                                        000000000000000000
F0010000008639600002000000760391200041450500000000000000000201605240002001RICARDO BOHORQUEZ GONGORA                         C000000006000000000000000000000000100010010000000000000000000000F0010000008639600220160524000101 00000000000000000000000000000000000000000000000000000000000000000000000000000000000000000000000000000000000000000N 00000000000NCONT   00    00000000000          00000000000000000000000000000000000000000000 000000000000000A000000000000000000000000000000000000000000000 000000000000000000000000000000000000000     00000000                                                                                                                        000000000000000000
F0010000008639600003000000760391200042505000000000000000000201605240002001RICARDO BOHORQUEZ GONGORA                         C000000001000000000000000000000000100010010000000000000000000000F0010000008639600320160524000101 00000000000000000000000000000000000000000000000000000000000000000000000000000000000000000000000000000000000000000N 00000000000NCONT   00    00000000000          00000000000000000000000000000000000000000000 000000000000000A000000000000000000000000000000000000000000000 000000000000000000000000000000000000000     00000000                                                                                                                        000000000000000000
F0010000008639600004000000760391200023658300000000000000000201605240002001RICARDO BOHORQUEZ GONGORA                         C000000000048000000000000000000000100010010000000000000000000000F0010000008639600420160524000101 00000000000000000000000000000000000000000000000000000000000000000000000000000000000000000000000000000000000000000N 00000000000NCONT   00    00000000000          00000000000000000000000000000000000000000000 000000000000000A000000000000000000000000000000000000000000000 000000000000000000000000000000000000000     00000000                                                                                                                        000000000000000000
F0010000008639600005000000760391200013552100000000000000000201605240002001RICARDO BOHORQUEZ GONGORA                         D000000000048000000000000000000000100010010000000000000000000000F0010000008639600520160524000101 00000000000000000000000000000000000000000000000000000000000000000000000000000000000000000000000000000000000000000N 00000000000NCONT   00    00000000000          00000000000000000000000000000000000000000000 000000000000000A000000000000000000000000000000000000000000000 000000000000000000000000000000000000000     00000000                                                                                                                        000000000000000000
F0010000008639700001000001503930400011050500000000000000000201605240002001ARGEMIRO ROJANO                                   D000000001000000000000000000000000100010010000000000000000000000F0010000008639700120160524000101 00000000000000000000000000000000000000000000000000000000000000000000000000000000000000000000000000000000000000000N 00000000000NCONT   00    00000000000          00000000000000000000000000000000000000000000 000000000000000A000000000000000000000000000000000000000000000 000000000000000000000000000000000000000     00000000                                                                                                                        000000000000000000
F0010000008639700002000001503930400041450500000000000000000201605240002001ARGEMIRO ROJANO                                   C000000000900000000000000000000000100010010000000000000000000000F0010000008639700220160524000101 00000000000000000000000000000000000000000000000000000000000000000000000000000000000000000000000000000000000000000N 00000000000NCONT   00    00000000000          00000000000000000000000000000000000000000000 000000000000000A000000000000000000000000000000000000000000000 000000000000000000000000000000000000000     00000000                                                                                                                        000000000000000000
F0010000008639700003000001503930400042505000000000000000000201605240002001ARGEMIRO ROJANO                                   C000000000100000000000000000000000100010010000000000000000000000F0010000008639700320160524000101 00000000000000000000000000000000000000000000000000000000000000000000000000000000000000000000000000000000000000000N 00000000000NCONT   00    00000000000          00000000000000000000000000000000000000000000 000000000000000A000000000000000000000000000000000000000000000 000000000000000000000000000000000000000     00000000                                                                                                                        000000000000000000
F0010000008639700004000001503930400023658300000000000000000201605240002001ARGEMIRO ROJANO                                   C000000000007200000000000000000000100010010000000000000000000000F0010000008639700420160524000101 00000000000000000000000000000000000000000000000000000000000000000000000000000000000000000000000000000000000000000N 00000000000NCONT   00    00000000000          00000000000000000000000000000000000000000000 000000000000000A000000000000000000000000000000000000000000000 000000000000000000000000000000000000000     00000000                                                                                                                        000000000000000000
F0010000008639700005000001503930400013552100000000000000000201605240002001ARGEMIRO ROJANO                                   D000000000007200000000000000000000100010010000000000000000000000F0010000008639700520160524000101 00000000000000000000000000000000000000000000000000000000000000000000000000000000000000000000000000000000000000000N 00000000000NCONT   00    00000000000          00000000000000000000000000000000000000000000 000000000000000A000000000000000000000000000000000000000000000 000000000000000000000000000000000000000     00000000                                                                                                                        000000000000000000
F0010000008639800001000090057362800011050500000000000000000201605240002001COMERCIALIZADORA SUMINISTROS EFICIENTES           D000000002900000000000000000000000100010010000000000000000000000F0010000008639800120160524000101 00000000000000000000000000000000000000000000000000000000000000000000000000000000000000000000000000000000000000000N 00000000000NCONT   00    00000000000          00000000000000000000000000000000000000000000 000000000000000A000000000000000000000000000000000000000000000 000000000000000000000000000000000000000     00000000                                                                                                                        000000000000000000
F0010000008639800002000090057362800041450500000000000000000201605240002001COMERCIALIZADORA SUMINISTROS EFICIENTES           C000000002600000000000000000000000100010010000000000000000000000F0010000008639800220160524000101 00000000000000000000000000000000000000000000000000000000000000000000000000000000000000000000000000000000000000000N 00000000000NCONT   00    00000000000          00000000000000000000000000000000000000000000 000000000000000A000000000000000000000000000000000000000000000 000000000000000000000000000000000000000     00000000                                                                                                                        000000000000000000
F0010000008639800003000090057362800042505000000000000000000201605240002001COMERCIALIZADORA SUMINISTROS EFICIENTES           C000000000300000000000000000000000100010010000000000000000000000F0010000008639800320160524000101 00000000000000000000000000000000000000000000000000000000000000000000000000000000000000000000000000000000000000000N 00000000000NCONT   00    00000000000          00000000000000000000000000000000000000000000 000000000000000A000000000000000000000000000000000000000000000 000000000000000000000000000000000000000     00000000                                                                                                                        000000000000000000
F0010000008639800004000090057362800023658300000000000000000201605240002001COMERCIALIZADORA SUMINISTROS EFICIENTES           C000000000020800000000000000000000100010010000000000000000000000F0010000008639800420160524000101 00000000000000000000000000000000000000000000000000000000000000000000000000000000000000000000000000000000000000000N 00000000000NCONT   00    00000000000          00000000000000000000000000000000000000000000 000000000000000A000000000000000000000000000000000000000000000 000000000000000000000000000000000000000     00000000                                                                                                                        000000000000000000
F0010000008639800005000090057362800013552100000000000000000201605240002001COMERCIALIZADORA SUMINISTROS EFICIENTES           D000000000020800000000000000000000100010010000000000000000000000F0010000008639800520160524000101 00000000000000000000000000000000000000000000000000000000000000000000000000000000000000000000000000000000000000000N 00000000000NCONT   00    00000000000          00000000000000000000000000000000000000000000 000000000000000A000000000000000000000000000000000000000000000 000000000000000000000000000000000000000     00000000                                                                                                                        000000000000000000
F0010000008639900001000089070997800011050500000000000000000201605240002001CENTRAL DE TORNILLOS                              D000000013260000000000000000000000100010010000000000000000000000F0010000008639900120160524000101 00000000000000000000000000000000000000000000000000000000000000000000000000000000000000000000000000000000000000000N 00000000000NCONT   00    00000000000          00000000000000000000000000000000000000000000 000000000000000A000000000000000000000000000000000000000000000 000000000000000000000000000000000000000     00000000                                                                                                                        000000000000000000
F0010000008639900002000089070997800041450500000000000000000201605240002001CENTRAL DE TORNILLOS                              C000000012460000000000000000000000100010010000000000000000000000F0010000008639900220160524000101 00000000000000000000000000000000000000000000000000000000000000000000000000000000000000000000000000000000000000000N 00000000000NCONT   00    00000000000          00000000000000000000000000000000000000000000 000000000000000A000000000000000000000000000000000000000000000 000000000000000000000000000000000000000     00000000                                                                                                                        000000000000000000
F0010000008639900003000089070997800042505000000000000000000201605240002001CENTRAL DE TORNILLOS                              C000000000800000000000000000000000100010010000000000000000000000F0010000008639900320160524000101 00000000000000000000000000000000000000000000000000000000000000000000000000000000000000000000000000000000000000000N 00000000000NCONT   00    00000000000          00000000000000000000000000000000000000000000 000000000000000A000000000000000000000000000000000000000000000 000000000000000000000000000000000000000     00000000                                                                                                                        000000000000000000
F0010000008639900004000089070997800023658300000000000000000201605240002001CENTRAL DE TORNILLOS                              C000000000099700000000000000000000100010010000000000000000000000F0010000008639900420160524000101 00000000000000000000000000000000000000000000000000000000000000000000000000000000000000000000000000000000000000000N 00000000000NCONT   00    00000000000          00000000000000000000000000000000000000000000 000000000000000A000000000000000000000000000000000000000000000 000000000000000000000000000000000000000     00000000                                                                                                                        000000000000000000
F0010000008639900005000089070997800013552100000000000000000201605240002001CENTRAL DE TORNILLOS                              D000000000099700000000000000000000100010010000000000000000000000F0010000008639900520160524000101 00000000000000000000000000000000000000000000000000000000000000000000000000000000000000000000000000000000000000000N 00000000000NCONT   00    00000000000          00000000000000000000000000000000000000000000 000000000000000A000000000000000000000000000000000000000000000 000000000000000000000000000000000000000     00000000                                                                                                                        000000000000000000
F0010000008640000001000090050144800011050500000000000000000201605240002001PLASTICOS JR ASOCIADOS SAS                        D000000011000000000000000000000000100010010000000000000000000000F0010000008640000120160524000101 00000000000000000000000000000000000000000000000000000000000000000000000000000000000000000000000000000000000000000N 00000000000NCONT   00    00000000000          00000000000000000000000000000000000000000000 000000000000000A000000000000000000000000000000000000000000000 000000000000000000000000000000000000000     00000000                                                                                                                        000000000000000000
F0010000008640000002000090050144800041450500000000000000000201605240002001PLASTICOS JR ASOCIADOS SAS                        C000000009500000000000000000000000100010010000000000000000000000F0010000008640000220160524000101 00000000000000000000000000000000000000000000000000000000000000000000000000000000000000000000000000000000000000000N 00000000000NCONT   00    00000000000          00000000000000000000000000000000000000000000 000000000000000A000000000000000000000000000000000000000000000 000000000000000000000000000000000000000     00000000                                                                                                                        000000000000000000
F0010000008640000003000090050144800042505000000000000000000201605240002001PLASTICOS JR ASOCIADOS SAS                        C000000001500000000000000000000000100010010000000000000000000000F0010000008640000320160524000101 00000000000000000000000000000000000000000000000000000000000000000000000000000000000000000000000000000000000000000N 00000000000NCONT   00    00000000000          00000000000000000000000000000000000000000000 000000000000000A000000000000000000000000000000000000000000000 000000000000000000000000000000000000000     00000000                                                                                                                        000000000000000000
F0010000008640000004000090050144800023658300000000000000000201605240002001PLASTICOS JR ASOCIADOS SAS                        C000000000076000000000000000000000100010010000000000000000000000F0010000008640000420160524000101 00000000000000000000000000000000000000000000000000000000000000000000000000000000000000000000000000000000000000000N 00000000000NCONT   00    00000000000          00000000000000000000000000000000000000000000 000000000000000A000000000000000000000000000000000000000000000 000000000000000000000000000000000000000     00000000                                                                                                                        000000000000000000
F0010000008640000005000090050144800013552100000000000000000201605240002001PLASTICOS JR ASOCIADOS SAS                        D000000000076000000000000000000000100010010000000000000000000000F0010000008640000520160524000101 00000000000000000000000000000000000000000000000000000000000000000000000000000000000000000000000000000000000000000N 00000000000NCONT   00    00000000000          00000000000000000000000000000000000000000000 000000000000000A000000000000000000000000000000000000000000000 000000000000000000000000000000000000000     00000000                                                                                                                        000000000000000000
F0010000008640100001000000431178400011050500000000000000000201605240002001EFRAIN ALVAREZ                                    D000000003060000000000000000000000100010010000000000000000000000F0010000008640100120160524000101 00000000000000000000000000000000000000000000000000000000000000000000000000000000000000000000000000000000000000000N 00000000000NCONT   00    00000000000          00000000000000000000000000000000000000000000 000000000000000A000000000000000000000000000000000000000000000 000000000000000000000000000000000000000     00000000                                                                                                                        000000000000000000
F0010000008640100002000000431178400041450500000000000000000201605240002001EFRAIN ALVAREZ                                    C000000002760000000000000000000000100010010000000000000000000000F0010000008640100220160524000101 00000000000000000000000000000000000000000000000000000000000000000000000000000000000000000000000000000000000000000N 00000000000NCONT   00    00000000000          00000000000000000000000000000000000000000000 000000000000000A000000000000000000000000000000000000000000000 000000000000000000000000000000000000000     00000000                                                                                                                        000000000000000000
F0010000008640100003000000431178400042505000000000000000000201605240002001EFRAIN ALVAREZ                                    C000000000300000000000000000000000100010010000000000000000000000F0010000008640100320160524000101 00000000000000000000000000000000000000000000000000000000000000000000000000000000000000000000000000000000000000000N 00000000000NCONT   00    00000000000          00000000000000000000000000000000000000000000 000000000000000A000000000000000000000000000000000000000000000 000000000000000000000000000000000000000     00000000                                                                                                                        000000000000000000
F0010000008640100004000000431178400023658300000000000000000201605240002001EFRAIN ALVAREZ                                    C000000000022100000000000000000000100010010000000000000000000000F0010000008640100420160524000101 00000000000000000000000000000000000000000000000000000000000000000000000000000000000000000000000000000000000000000N 00000000000NCONT   00    00000000000          00000000000000000000000000000000000000000000 000000000000000A000000000000000000000000000000000000000000000 000000000000000000000000000000000000000     00000000                                                                                                                        000000000000000000
F0010000008640100005000000431178400013552100000000000000000201605240002001EFRAIN ALVAREZ                                    D000000000022100000000000000000000100010010000000000000000000000F0010000008640100520160524000101 00000000000000000000000000000000000000000000000000000000000000000000000000000000000000000000000000000000000000000N 00000000000NCONT   00    00000000000          00000000000000000000000000000000000000000000 000000000000000A000000000000000000000000000000000000000000000 000000000000000000000000000000000000000     00000000                                                                                                                        000000000000000000
F0010000008640200001000000431178400011050500000000000000000201605240002001EFRAIN ALVAREZ                                    D000000001070000000000000000000000100010010000000000000000000000F0010000008640200120160524000101 00000000000000000000000000000000000000000000000000000000000000000000000000000000000000000000000000000000000000000N 00000000000NCONT   00    00000000000          00000000000000000000000000000000000000000000 000000000000000A000000000000000000000000000000000000000000000 000000000000000000000000000000000000000     00000000                                                                                                                        000000000000000000
F0010000008640200002000000431178400041450500000000000000000201605240002001EFRAIN ALVAREZ                                    C000000000920000000000000000000000100010010000000000000000000000F0010000008640200220160524000101 00000000000000000000000000000000000000000000000000000000000000000000000000000000000000000000000000000000000000000N 00000000000NCONT   00    00000000000          00000000000000000000000000000000000000000000 000000000000000A000000000000000000000000000000000000000000000 000000000000000000000000000000000000000     00000000                                                                                                                        000000000000000000
F0010000008640200003000000431178400042505000000000000000000201605240002001EFRAIN ALVAREZ                                    C000000000150000000000000000000000100010010000000000000000000000F0010000008640200320160524000101 00000000000000000000000000000000000000000000000000000000000000000000000000000000000000000000000000000000000000000N 00000000000NCONT   00    00000000000          00000000000000000000000000000000000000000000 000000000000000A000000000000000000000000000000000000000000000 000000000000000000000000000000000000000     00000000                                                                                                                        000000000000000000
F0010000008640200004000000431178400023658300000000000000000201605240002001EFRAIN ALVAREZ                                    C000000000007400000000000000000000100010010000000000000000000000F0010000008640200420160524000101 00000000000000000000000000000000000000000000000000000000000000000000000000000000000000000000000000000000000000000N 00000000000NCONT   00    00000000000          00000000000000000000000000000000000000000000 000000000000000A000000000000000000000000000000000000000000000 000000000000000000000000000000000000000     00000000                                                                                                                        000000000000000000
F0010000008640200005000000431178400013552100000000000000000201605240002001EFRAIN ALVAREZ                                    D000000000007400000000000000000000100010010000000000000000000000F0010000008640200520160524000101 00000000000000000000000000000000000000000000000000000000000000000000000000000000000000000000000000000000000000000N 00000000000NCONT   00    00000000000          00000000000000000000000000000000000000000000 000000000000000A000000000000000000000000000000000000000000000 000000000000000000000000000000000000000     00000000                                                                                                                        000000000000000000
F0010000008640300001000000431178400011050500000000000000000201605240002001EFRAIN ALVAREZ                                    D000000001020000000000000000000000100010010000000000000000000000F0010000008640300120160524000101 00000000000000000000000000000000000000000000000000000000000000000000000000000000000000000000000000000000000000000N 00000000000NCONT   00    00000000000          00000000000000000000000000000000000000000000 000000000000000A000000000000000000000000000000000000000000000 000000000000000000000000000000000000000     00000000                                                                                                                        000000000000000000
F0010000008640300002000000431178400041450500000000000000000201605240002001EFRAIN ALVAREZ                                    C000000000920000000000000000000000100010010000000000000000000000F0010000008640300220160524000101 00000000000000000000000000000000000000000000000000000000000000000000000000000000000000000000000000000000000000000N 00000000000NCONT   00    00000000000          00000000000000000000000000000000000000000000 000000000000000A000000000000000000000000000000000000000000000 000000000000000000000000000000000000000     00000000                                                                                                                        000000000000000000
F0010000008640300003000000431178400042505000000000000000000201605240002001EFRAIN ALVAREZ                                    C000000000100000000000000000000000100010010000000000000000000000F0010000008640300320160524000101 00000000000000000000000000000000000000000000000000000000000000000000000000000000000000000000000000000000000000000N 00000000000NCONT   00    00000000000          00000000000000000000000000000000000000000000 000000000000000A000000000000000000000000000000000000000000000 000000000000000000000000000000000000000     00000000                                                                                                                        000000000000000000
F0010000008640300004000000431178400023658300000000000000000201605240002001EFRAIN ALVAREZ                                    C000000000007400000000000000000000100010010000000000000000000000F0010000008640300420160524000101 00000000000000000000000000000000000000000000000000000000000000000000000000000000000000000000000000000000000000000N 00000000000NCONT   00    00000000000          00000000000000000000000000000000000000000000 000000000000000A000000000000000000000000000000000000000000000 000000000000000000000000000000000000000     00000000                                                                                                                        000000000000000000
F0010000008640300005000000431178400013552100000000000000000201605240002001EFRAIN ALVAREZ                                    D000000000007400000000000000000000100010010000000000000000000000F0010000008640300520160524000101 00000000000000000000000000000000000000000000000000000000000000000000000000000000000000000000000000000000000000000N 00000000000NCONT   00    00000000000          00000000000000000000000000000000000000000000 000000000000000A000000000000000000000000000000000000000000000 000000000000000000000000000000000000000     00000000                                                                                                                        000000000000000000
F0010000008640400001000004175790100011050500000000000000000201605240002001ROSIRIS FERIA HOYOS  (COSM. SHILLER)              D000000002500000000000000000000000100010010000000000000000000000F0010000008640400120160524000101 00000000000000000000000000000000000000000000000000000000000000000000000000000000000000000000000000000000000000000N 00000000000NCONT   00    00000000000          00000000000000000000000000000000000000000000 000000000000000A000000000000000000000000000000000000000000000 000000000000000000000000000000000000000     00000000                                                                                                                        000000000000000000
F0010000008640400002000004175790100041450500000000000000000201605240002001ROSIRIS FERIA HOYOS  (COSM. SHILLER)              C000000002400000000000000000000000100010010000000000000000000000F0010000008640400220160524000101 00000000000000000000000000000000000000000000000000000000000000000000000000000000000000000000000000000000000000000N 00000000000NCONT   00    00000000000          00000000000000000000000000000000000000000000 000000000000000A000000000000000000000000000000000000000000000 000000000000000000000000000000000000000     00000000                                                                                                                        000000000000000000
F0010000008640400003000004175790100042505000000000000000000201605240002001ROSIRIS FERIA HOYOS  (COSM. SHILLER)              C000000000100000000000000000000000100010010000000000000000000000F0010000008640400320160524000101 00000000000000000000000000000000000000000000000000000000000000000000000000000000000000000000000000000000000000000N 00000000000NCONT   00    00000000000          00000000000000000000000000000000000000000000 000000000000000A000000000000000000000000000000000000000000000 000000000000000000000000000000000000000     00000000                                                                                                                        000000000000000000
F0010000008640400004000004175790100023658300000000000000000201605240002001ROSIRIS FERIA HOYOS  (COSM. SHILLER)              C000000000019200000000000000000000100010010000000000000000000000F0010000008640400420160524000101 00000000000000000000000000000000000000000000000000000000000000000000000000000000000000000000000000000000000000000N 00000000000NCONT   00    00000000000          00000000000000000000000000000000000000000000 000000000000000A000000000000000000000000000000000000000000000 000000000000000000000000000000000000000     00000000                                                                                                                        000000000000000000
F0010000008640400005000004175790100013552100000000000000000201605240002001ROSIRIS FERIA HOYOS  (COSM. SHILLER)              D000000000019200000000000000000000100010010000000000000000000000F0010000008640400520160524000101 00000000000000000000000000000000000000000000000000000000000000000000000000000000000000000000000000000000000000000N 00000000000NCONT   00    00000000000          00000000000000000000000000000000000000000000 000000000000000A000000000000000000000000000000000000000000000 000000000000000000000000000000000000000     00000000                                                                                                                        000000000000000000
F0010000008640500001000007200023300011050500000000000000000201605240002001WILLIAM ORTEGA                                    D000000003000000000000000000000000100010010000000000000000000000F0010000008640500120160524000101 00000000000000000000000000000000000000000000000000000000000000000000000000000000000000000000000000000000000000000N 00000000000NCONT   00    00000000000          00000000000000000000000000000000000000000000 000000000000000A000000000000000000000000000000000000000000000 000000000000000000000000000000000000000     00000000                                                                                                                        000000000000000000
F0010000008640500002000007200023300041450500000000000000000201605240002001WILLIAM ORTEGA                                    C000000002600000000000000000000000100010010000000000000000000000F0010000008640500220160524000101 00000000000000000000000000000000000000000000000000000000000000000000000000000000000000000000000000000000000000000N 00000000000NCONT   00    00000000000          00000000000000000000000000000000000000000000 000000000000000A000000000000000000000000000000000000000000000 000000000000000000000000000000000000000     00000000                                                                                                                        000000000000000000
F0010000008640500003000007200023300042505000000000000000000201605240002001WILLIAM ORTEGA                                    C000000000400000000000000000000000100010010000000000000000000000F0010000008640500320160524000101 00000000000000000000000000000000000000000000000000000000000000000000000000000000000000000000000000000000000000000N 00000000000NCONT   00    00000000000          00000000000000000000000000000000000000000000 000000000000000A000000000000000000000000000000000000000000000 000000000000000000000000000000000000000     00000000                                                                                                                        000000000000000000
F0010000008640500004000007200023300023658300000000000000000201605240002001WILLIAM ORTEGA                                    C000000000020800000000000000000000100010010000000000000000000000F0010000008640500420160524000101 00000000000000000000000000000000000000000000000000000000000000000000000000000000000000000000000000000000000000000N 00000000000NCONT   00    00000000000          00000000000000000000000000000000000000000000 000000000000000A000000000000000000000000000000000000000000000 000000000000000000000000000000000000000     00000000                                                                                                                        000000000000000000
F0010000008640500005000007200023300013552100000000000000000201605240002001WILLIAM ORTEGA                                    D000000000020800000000000000000000100010010000000000000000000000F0010000008640500520160524000101 00000000000000000000000000000000000000000000000000000000000000000000000000000000000000000000000000000000000000000N 00000000000NCONT   00    00000000000          00000000000000000000000000000000000000000000 000000000000000A000000000000000000000000000000000000000000000 000000000000000000000000000000000000000     00000000                                                                                                                        000000000000000000
F0010000008640600001000007200023300011050500000000000000000201605240002001WILLIAM ORTEGA                                    D000000002900000000000000000000000100010010000000000000000000000F0010000008640600120160524000101 00000000000000000000000000000000000000000000000000000000000000000000000000000000000000000000000000000000000000000N 00000000000NCONT   00    00000000000          00000000000000000000000000000000000000000000 000000000000000A000000000000000000000000000000000000000000000 000000000000000000000000000000000000000     00000000                                                                                                                        000000000000000000
F0010000008640600002000007200023300041450500000000000000000201605240002001WILLIAM ORTEGA                                    C000000002600000000000000000000000100010010000000000000000000000F0010000008640600220160524000101 00000000000000000000000000000000000000000000000000000000000000000000000000000000000000000000000000000000000000000N 00000000000NCONT   00    00000000000          00000000000000000000000000000000000000000000 000000000000000A000000000000000000000000000000000000000000000 000000000000000000000000000000000000000     00000000                                                                                                                        000000000000000000
F0010000008640600003000007200023300042505000000000000000000201605240002001WILLIAM ORTEGA                                    C000000000300000000000000000000000100010010000000000000000000000F0010000008640600320160524000101 00000000000000000000000000000000000000000000000000000000000000000000000000000000000000000000000000000000000000000N 00000000000NCONT   00    00000000000          00000000000000000000000000000000000000000000 000000000000000A000000000000000000000000000000000000000000000 000000000000000000000000000000000000000     00000000                                                                                                                        000000000000000000
F0010000008640600004000007200023300023658300000000000000000201605240002001WILLIAM ORTEGA                                    C000000000020800000000000000000000100010010000000000000000000000F0010000008640600420160524000101 00000000000000000000000000000000000000000000000000000000000000000000000000000000000000000000000000000000000000000N 00000000000NCONT   00    00000000000          00000000000000000000000000000000000000000000 000000000000000A000000000000000000000000000000000000000000000 000000000000000000000000000000000000000     00000000                                                                                                                        000000000000000000
F0010000008640600005000007200023300013552100000000000000000201605240002001WILLIAM ORTEGA                                    D000000000020800000000000000000000100010010000000000000000000000F0010000008640600520160524000101 00000000000000000000000000000000000000000000000000000000000000000000000000000000000000000000000000000000000000000N 00000000000NCONT   00    00000000000          00000000000000000000000000000000000000000000 000000000000000A000000000000000000000000000000000000000000000 000000000000000000000000000000000000000     00000000                                                                                                                        000000000000000000
F0010000008640700001000007200023300011050500000000000000000201605240002001WILLIAM ORTEGA                                    D000000003000000000000000000000000100010010000000000000000000000F0010000008640700120160524000101 00000000000000000000000000000000000000000000000000000000000000000000000000000000000000000000000000000000000000000N 00000000000NCONT   00    00000000000          00000000000000000000000000000000000000000000 000000000000000A000000000000000000000000000000000000000000000 000000000000000000000000000000000000000     00000000                                                                                                                        000000000000000000
F0010000008640700002000007200023300041450500000000000000000201605240002001WILLIAM ORTEGA                                    C000000002600000000000000000000000100010010000000000000000000000F0010000008640700220160524000101 00000000000000000000000000000000000000000000000000000000000000000000000000000000000000000000000000000000000000000N 00000000000NCONT   00    00000000000          00000000000000000000000000000000000000000000 000000000000000A000000000000000000000000000000000000000000000 000000000000000000000000000000000000000     00000000                                                                                                                        000000000000000000
F0010000008640700003000007200023300042505000000000000000000201605240002001WILLIAM ORTEGA                                    C000000000400000000000000000000000100010010000000000000000000000F0010000008640700320160524000101 00000000000000000000000000000000000000000000000000000000000000000000000000000000000000000000000000000000000000000N 00000000000NCONT   00    00000000000          00000000000000000000000000000000000000000000 000000000000000A000000000000000000000000000000000000000000000 000000000000000000000000000000000000000     00000000                                                                                                                        000000000000000000
F0010000008640700004000007200023300023658300000000000000000201605240002001WILLIAM ORTEGA                                    C000000000020800000000000000000000100010010000000000000000000000F0010000008640700420160524000101 00000000000000000000000000000000000000000000000000000000000000000000000000000000000000000000000000000000000000000N 00000000000NCONT   00    00000000000          00000000000000000000000000000000000000000000 000000000000000A000000000000000000000000000000000000000000000 000000000000000000000000000000000000000     00000000                                                                                                                        000000000000000000
F0010000008640700005000007200023300013552100000000000000000201605240002001WILLIAM ORTEGA                                    D000000000020800000000000000000000100010010000000000000000000000F0010000008640700520160524000101 00000000000000000000000000000000000000000000000000000000000000000000000000000000000000000000000000000000000000000N 00000000000NCONT   00    00000000000          00000000000000000000000000000000000000000000 000000000000000A000000000000000000000000000000000000000000000 000000000000000000000000000000000000000     00000000                                                                                                                        000000000000000000
F0010000008640800001000007200023300011050500000000000000000201605240002001WILLIAM ORTEGA                                    D000000001700000000000000000000000100010010000000000000000000000F0010000008640800120160524000101 00000000000000000000000000000000000000000000000000000000000000000000000000000000000000000000000000000000000000000N 00000000000NCONT   00    00000000000          00000000000000000000000000000000000000000000 000000000000000A000000000000000000000000000000000000000000000 000000000000000000000000000000000000000     00000000                                                                                                                        000000000000000000
F0010000008640800002000007200023300041450500000000000000000201605240002001WILLIAM ORTEGA                                    C000000001300000000000000000000000100010010000000000000000000000F0010000008640800220160524000101 00000000000000000000000000000000000000000000000000000000000000000000000000000000000000000000000000000000000000000N 00000000000NCONT   00    00000000000          00000000000000000000000000000000000000000000 000000000000000A000000000000000000000000000000000000000000000 000000000000000000000000000000000000000     00000000                                                                                                                        000000000000000000
F0010000008640800003000007200023300042505000000000000000000201605240002001WILLIAM ORTEGA                                    C000000000400000000000000000000000100010010000000000000000000000F0010000008640800320160524000101 00000000000000000000000000000000000000000000000000000000000000000000000000000000000000000000000000000000000000000N 00000000000NCONT   00    00000000000          00000000000000000000000000000000000000000000 000000000000000A000000000000000000000000000000000000000000000 000000000000000000000000000000000000000     00000000                                                                                                                        000000000000000000
F0010000008640800004000007200023300023658300000000000000000201605240002001WILLIAM ORTEGA                                    C000000000010400000000000000000000100010010000000000000000000000F0010000008640800420160524000101 00000000000000000000000000000000000000000000000000000000000000000000000000000000000000000000000000000000000000000N 00000000000NCONT   00    00000000000          00000000000000000000000000000000000000000000 000000000000000A000000000000000000000000000000000000000000000 000000000000000000000000000000000000000     00000000                                                                                                                        000000000000000000
F0010000008640800005000007200023300013552100000000000000000201605240002001WILLIAM ORTEGA                                    D000000000010400000000000000000000100010010000000000000000000000F0010000008640800520160524000101 00000000000000000000000000000000000000000000000000000000000000000000000000000000000000000000000000000000000000000N 00000000000NCONT   00    00000000000          00000000000000000000000000000000000000000000 000000000000000A000000000000000000000000000000000000000000000 000000000000000000000000000000000000000     00000000                                                                                                                        000000000000000000
F0010000008640900001000004175790100011050500000000000000000201605240002001ROSIRIS FERIA HOYOS  (COSM. SHILLER)              D000000001400000000000000000000000100010010000000000000000000000F0010000008640900120160524000101 00000000000000000000000000000000000000000000000000000000000000000000000000000000000000000000000000000000000000000N 00000000000NCONT   00    00000000000          00000000000000000000000000000000000000000000 000000000000000A000000000000000000000000000000000000000000000 000000000000000000000000000000000000000     00000000                                                                                                                        000000000000000000
F0010000008640900002000004175790100041450500000000000000000201605240002001ROSIRIS FERIA HOYOS  (COSM. SHILLER)              C000000001300000000000000000000000100010010000000000000000000000F0010000008640900220160524000101 00000000000000000000000000000000000000000000000000000000000000000000000000000000000000000000000000000000000000000N 00000000000NCONT   00    00000000000          00000000000000000000000000000000000000000000 000000000000000A000000000000000000000000000000000000000000000 000000000000000000000000000000000000000     00000000                                                                                                                        000000000000000000
F0010000008640900003000004175790100042505000000000000000000201605240002001ROSIRIS FERIA HOYOS  (COSM. SHILLER)              C000000000100000000000000000000000100010010000000000000000000000F0010000008640900320160524000101 00000000000000000000000000000000000000000000000000000000000000000000000000000000000000000000000000000000000000000N 00000000000NCONT   00    00000000000          00000000000000000000000000000000000000000000 000000000000000A000000000000000000000000000000000000000000000 000000000000000000000000000000000000000     00000000                                                                                                                        000000000000000000
F0010000008640900004000004175790100023658300000000000000000201605240002001ROSIRIS FERIA HOYOS  (COSM. SHILLER)              C000000000010400000000000000000000100010010000000000000000000000F0010000008640900420160524000101 00000000000000000000000000000000000000000000000000000000000000000000000000000000000000000000000000000000000000000N 00000000000NCONT   00    00000000000          00000000000000000000000000000000000000000000 000000000000000A000000000000000000000000000000000000000000000 000000000000000000000000000000000000000     00000000                                                                                                                        000000000000000000
F0010000008640900005000004175790100013552100000000000000000201605240002001ROSIRIS FERIA HOYOS  (COSM. SHILLER)              D000000000010400000000000000000000100010010000000000000000000000F0010000008640900520160524000101 00000000000000000000000000000000000000000000000000000000000000000000000000000000000000000000000000000000000000000N 00000000000NCONT   00    00000000000          00000000000000000000000000000000000000000000 000000000000000A000000000000000000000000000000000000000000000 000000000000000000000000000000000000000     00000000                                                                                                                        000000000000000000
F0010000008641000001000004175790100011050500000000000000000201605240002001ROSIRIS FERIA HOYOS  (COSM. SHILLER)              D000000001400000000000000000000000100010010000000000000000000000F0010000008641000120160524000101 00000000000000000000000000000000000000000000000000000000000000000000000000000000000000000000000000000000000000000N 00000000000NCONT   00    00000000000          00000000000000000000000000000000000000000000 000000000000000A000000000000000000000000000000000000000000000 000000000000000000000000000000000000000     00000000                                                                                                                        000000000000000000
F0010000008641000002000004175790100041450500000000000000000201605240002001ROSIRIS FERIA HOYOS  (COSM. SHILLER)              C000000001300000000000000000000000100010010000000000000000000000F0010000008641000220160524000101 00000000000000000000000000000000000000000000000000000000000000000000000000000000000000000000000000000000000000000N 00000000000NCONT   00    00000000000          00000000000000000000000000000000000000000000 000000000000000A000000000000000000000000000000000000000000000 000000000000000000000000000000000000000     00000000                                                                                                                        000000000000000000
F0010000008641000003000004175790100042505000000000000000000201605240002001ROSIRIS FERIA HOYOS  (COSM. SHILLER)              C000000000100000000000000000000000100010010000000000000000000000F0010000008641000320160524000101 00000000000000000000000000000000000000000000000000000000000000000000000000000000000000000000000000000000000000000N 00000000000NCONT   00    00000000000          00000000000000000000000000000000000000000000 000000000000000A000000000000000000000000000000000000000000000 000000000000000000000000000000000000000     00000000                                                                                                                        000000000000000000
F0010000008641000004000004175790100023658300000000000000000201605240002001ROSIRIS FERIA HOYOS  (COSM. SHILLER)              C000000000010400000000000000000000100010010000000000000000000000F0010000008641000420160524000101 00000000000000000000000000000000000000000000000000000000000000000000000000000000000000000000000000000000000000000N 00000000000NCONT   00    00000000000          00000000000000000000000000000000000000000000 000000000000000A000000000000000000000000000000000000000000000 000000000000000000000000000000000000000     00000000                                                                                                                        000000000000000000
F0010000008641000005000004175790100013552100000000000000000201605240002001ROSIRIS FERIA HOYOS  (COSM. SHILLER)              D000000000010400000000000000000000100010010000000000000000000000F0010000008641000520160524000101 00000000000000000000000000000000000000000000000000000000000000000000000000000000000000000000000000000000000000000N 00000000000NCONT   00    00000000000          00000000000000000000000000000000000000000000 000000000000000A000000000000000000000000000000000000000000000 000000000000000000000000000000000000000     00000000                                                                                                                        000000000000000000
F0010000008641100001000007223972300011050500000000000000000201605240002001LUIS VALENCIA                                     D000000003200000000000000000000000100010010000000000000000000000F0010000008641100120160524000101 00000000000000000000000000000000000000000000000000000000000000000000000000000000000000000000000000000000000000000N 00000000000NCONT   00    00000000000          00000000000000000000000000000000000000000000 000000000000000A000000000000000000000000000000000000000000000 000000000000000000000000000000000000000     00000000                                                                                                                        000000000000000000
F0010000008641100002000007223972300041450500000000000000000201605240002001LUIS VALENCIA                                     C000000002800000000000000000000000100010010000000000000000000000F0010000008641100220160524000101 00000000000000000000000000000000000000000000000000000000000000000000000000000000000000000000000000000000000000000N 00000000000NCONT   00    00000000000          00000000000000000000000000000000000000000000 000000000000000A000000000000000000000000000000000000000000000 000000000000000000000000000000000000000     00000000                                                                                                                        000000000000000000
F0010000008641100003000007223972300042505000000000000000000201605240002001LUIS VALENCIA                                     C000000000400000000000000000000000100010010000000000000000000000F0010000008641100320160524000101 00000000000000000000000000000000000000000000000000000000000000000000000000000000000000000000000000000000000000000N 00000000000NCONT   00    00000000000          00000000000000000000000000000000000000000000 000000000000000A000000000000000000000000000000000000000000000 000000000000000000000000000000000000000     00000000                                                                                                                        000000000000000000
F0010000008641100004000007223972300023658300000000000000000201605240002001LUIS VALENCIA                                     C000000000022400000000000000000000100010010000000000000000000000F0010000008641100420160524000101 00000000000000000000000000000000000000000000000000000000000000000000000000000000000000000000000000000000000000000N 00000000000NCONT   00    00000000000          00000000000000000000000000000000000000000000 000000000000000A000000000000000000000000000000000000000000000 000000000000000000000000000000000000000     00000000                                                                                                                        000000000000000000
F0010000008641100005000007223972300013552100000000000000000201605240002001LUIS VALENCIA                                     D000000000022400000000000000000000100010010000000000000000000000F0010000008641100520160524000101 00000000000000000000000000000000000000000000000000000000000000000000000000000000000000000000000000000000000000000N 00000000000NCONT   00    00000000000          00000000000000000000000000000000000000000000 000000000000000A000000000000000000000000000000000000000000000 000000000000000000000000000000000000000     00000000                                                                                                                        000000000000000000
F0010000008641200001000000871573200011050500000000000000000201605240002001ACCESORIAS ARQUITECTONI KJ                        D000000002800000000000000000000000100010010000000000000000000000F0010000008641200120160524000101 00000000000000000000000000000000000000000000000000000000000000000000000000000000000000000000000000000000000000000N 00000000000NCONT   00    00000000000          00000000000000000000000000000000000000000000 000000000000000A000000000000000000000000000000000000000000000 000000000000000000000000000000000000000     00000000                                                                                                                        000000000000000000
F0010000008641200002000000871573200041450500000000000000000201605240002001ACCESORIAS ARQUITECTONI KJ                        C000000001200000000000000000000000100010010000000000000000000000F0010000008641200220160524000101 00000000000000000000000000000000000000000000000000000000000000000000000000000000000000000000000000000000000000000N 00000000000NCONT   00    00000000000          00000000000000000000000000000000000000000000 000000000000000A000000000000000000000000000000000000000000000 000000000000000000000000000000000000000     00000000                                                                                                                        000000000000000000
F0010000008641200003000000871573200042505000000000000000000201605240002001ACCESORIAS ARQUITECTONI KJ                        C000000001600000000000000000000000100010010000000000000000000000F0010000008641200320160524000101 00000000000000000000000000000000000000000000000000000000000000000000000000000000000000000000000000000000000000000N 00000000000NCONT   00    00000000000          00000000000000000000000000000000000000000000 000000000000000A000000000000000000000000000000000000000000000 000000000000000000000000000000000000000     00000000                                                                                                                        000000000000000000
F0010000008641200004000000871573200023658300000000000000000201605240002001ACCESORIAS ARQUITECTONI KJ                        C000000000009600000000000000000000100010010000000000000000000000F0010000008641200420160524000101 00000000000000000000000000000000000000000000000000000000000000000000000000000000000000000000000000000000000000000N 00000000000NCONT   00    00000000000          00000000000000000000000000000000000000000000 000000000000000A000000000000000000000000000000000000000000000 000000000000000000000000000000000000000     00000000                                                                                                                        000000000000000000
F0010000008641200005000000871573200013552100000000000000000201605240002001ACCESORIAS ARQUITECTONI KJ                        D000000000009600000000000000000000100010010000000000000000000000F0010000008641200520160524000101 00000000000000000000000000000000000000000000000000000000000000000000000000000000000000000000000000000000000000000N 00000000000NCONT   00    00000000000          00000000000000000000000000000000000000000000 000000000000000A000000000000000000000000000000000000000000000 000000000000000000000000000000000000000     00000000                                                                                                                        000000000000000000
F0010000008641300001000000870907300011050500000000000000000201605240002001SURTIDOR FERRETERO                                D000000005950000000000000000000000100010010000000000000000000000F0010000008641300120160524000101 00000000000000000000000000000000000000000000000000000000000000000000000000000000000000000000000000000000000000000N 00000000000NCONT   00    00000000000          00000000000000000000000000000000000000000000 000000000000000A000000000000000000000000000000000000000000000 000000000000000000000000000000000000000     00000000                                                                                                                        000000000000000000
F0010000008641300002000000870907300041450500000000000000000201605240002001SURTIDOR FERRETERO                                C000000003600000000000000000000000100010010000000000000000000000F0010000008641300220160524000101 00000000000000000000000000000000000000000000000000000000000000000000000000000000000000000000000000000000000000000N 00000000000NCONT   00    00000000000          00000000000000000000000000000000000000000000 000000000000000A000000000000000000000000000000000000000000000 000000000000000000000000000000000000000     00000000                                                                                                                        000000000000000000
F0010000008641300003000000870907300042505000000000000000000201605240002001SURTIDOR FERRETERO                                C000000002350000000000000000000000100010010000000000000000000000F0010000008641300320160524000101 00000000000000000000000000000000000000000000000000000000000000000000000000000000000000000000000000000000000000000N 00000000000NCONT   00    00000000000          00000000000000000000000000000000000000000000 000000000000000A000000000000000000000000000000000000000000000 000000000000000000000000000000000000000     00000000                                                                                                                        000000000000000000
F0010000008641300004000000870907300023658300000000000000000201605240002001SURTIDOR FERRETERO                                C000000000028800000000000000000000100010010000000000000000000000F0010000008641300420160524000101 00000000000000000000000000000000000000000000000000000000000000000000000000000000000000000000000000000000000000000N 00000000000NCONT   00    00000000000          00000000000000000000000000000000000000000000 000000000000000A000000000000000000000000000000000000000000000 000000000000000000000000000000000000000     00000000                                                                                                                        000000000000000000
F0010000008641300005000000870907300013552100000000000000000201605240002001SURTIDOR FERRETERO                                D000000000028800000000000000000000100010010000000000000000000000F0010000008641300520160524000101 00000000000000000000000000000000000000000000000000000000000000000000000000000000000000000000000000000000000000000N 00000000000NCONT   00    00000000000          00000000000000000000000000000000000000000000 000000000000000A000000000000000000000000000000000000000000000 000000000000000000000000000000000000000     00000000                                                                                                                        000000000000000000
F0010000008641400001000000870907300011050500000000000000000201605240002001SURTIDOR FERRETERO                                D000000011960000000000000000000000100010010000000000000000000000F0010000008641400120160524000101 00000000000000000000000000000000000000000000000000000000000000000000000000000000000000000000000000000000000000000N 00000000000NCONT   00    00000000000          00000000000000000000000000000000000000000000 000000000000000A000000000000000000000000000000000000000000000 000000000000000000000000000000000000000     00000000                                                                                                                        000000000000000000
F0010000008641400002000000870907300041450500000000000000000201605240002001SURTIDOR FERRETERO                                C000000007560000000000000000000000100010010000000000000000000000F0010000008641400220160524000101 00000000000000000000000000000000000000000000000000000000000000000000000000000000000000000000000000000000000000000N 00000000000NCONT   00    00000000000          00000000000000000000000000000000000000000000 000000000000000A000000000000000000000000000000000000000000000 000000000000000000000000000000000000000     00000000                                                                                                                        000000000000000000
F0010000008641400003000000870907300042505000000000000000000201605240002001SURTIDOR FERRETERO                                C000000004400000000000000000000000100010010000000000000000000000F0010000008641400320160524000101 00000000000000000000000000000000000000000000000000000000000000000000000000000000000000000000000000000000000000000N 00000000000NCONT   00    00000000000          00000000000000000000000000000000000000000000 000000000000000A000000000000000000000000000000000000000000000 000000000000000000000000000000000000000     00000000                                                                                                                        000000000000000000
F0010000008641400004000000870907300023658300000000000000000201605240002001SURTIDOR FERRETERO                                C000000000060500000000000000000000100010010000000000000000000000F0010000008641400420160524000101 00000000000000000000000000000000000000000000000000000000000000000000000000000000000000000000000000000000000000000N 00000000000NCONT   00    00000000000          00000000000000000000000000000000000000000000 000000000000000A000000000000000000000000000000000000000000000 000000000000000000000000000000000000000     00000000                                                                                                                        000000000000000000
F0010000008641400005000000870907300013552100000000000000000201605240002001SURTIDOR FERRETERO                                D000000000060500000000000000000000100010010000000000000000000000F0010000008641400520160524000101 00000000000000000000000000000000000000000000000000000000000000000000000000000000000000000000000000000000000000000N 00000000000NCONT   00    00000000000          00000000000000000000000000000000000000000000 000000000000000A000000000000000000000000000000000000000000000 000000000000000000000000000000000000000     00000000                                                                                                                        000000000000000000
F0010000008641500001000089011078600011050500000000000000000201605240002001DIST. NUEVO MUNDO S.A.S.                          D000000002865000000000000000000000100010010000000000000000000000F0010000008641500120160524000101 00000000000000000000000000000000000000000000000000000000000000000000000000000000000000000000000000000000000000000N 00000000000NCONT   00    00000000000          00000000000000000000000000000000000000000000 000000000000000A000000000000000000000000000000000000000000000 000000000000000000000000000000000000000     00000000                                                                                                                        000000000000000000
F0010000008641500002000089011078600041450500000000000000000201605240002001DIST. NUEVO MUNDO S.A.S.                          C000000002340000000000000000000000100010010000000000000000000000F0010000008641500220160524000101 00000000000000000000000000000000000000000000000000000000000000000000000000000000000000000000000000000000000000000N 00000000000NCONT   00    00000000000          00000000000000000000000000000000000000000000 000000000000000A000000000000000000000000000000000000000000000 000000000000000000000000000000000000000     00000000                                                                                                                        000000000000000000
F0010000008641500003000089011078600042505000000000000000000201605240002001DIST. NUEVO MUNDO S.A.S.                          C000000000525000000000000000000000100010010000000000000000000000F0010000008641500320160524000101 00000000000000000000000000000000000000000000000000000000000000000000000000000000000000000000000000000000000000000N 00000000000NCONT   00    00000000000          00000000000000000000000000000000000000000000 000000000000000A000000000000000000000000000000000000000000000 000000000000000000000000000000000000000     00000000                                                                                                                        000000000000000000
F0010000008641500004000089011078600023658300000000000000000201605240002001DIST. NUEVO MUNDO S.A.S.                          C000000000018700000000000000000000100010010000000000000000000000F0010000008641500420160524000101 00000000000000000000000000000000000000000000000000000000000000000000000000000000000000000000000000000000000000000N 00000000000NCONT   00    00000000000          00000000000000000000000000000000000000000000 000000000000000A000000000000000000000000000000000000000000000 000000000000000000000000000000000000000     00000000                                                                                                                        000000000000000000
F0010000008641500005000089011078600013552100000000000000000201605240002001DIST. NUEVO MUNDO S.A.S.                          D000000000018700000000000000000000100010010000000000000000000000F0010000008641500520160524000101 00000000000000000000000000000000000000000000000000000000000000000000000000000000000000000000000000000000000000000N 00000000000NCONT   00    00000000000          00000000000000000000000000000000000000000000 000000000000000A000000000000000000000000000000000000000000000 000000000000000000000000000000000000000     00000000                                                                                                                        000000000000000000
F0010000008641600001000089011078600011050500000000000000000201605240002001DIST. NUEVO MUNDO S.A.S.                          D000000003342500000000000000000000100010010000000000000000000000F0010000008641600120160524000101 00000000000000000000000000000000000000000000000000000000000000000000000000000000000000000000000000000000000000000N 00000000000NCONT   00    00000000000          00000000000000000000000000000000000000000000 000000000000000A000000000000000000000000000000000000000000000 000000000000000000000000000000000000000     00000000                                                                                                                        000000000000000000
F0010000008641600002000089011078600041450500000000000000000201605240002001DIST. NUEVO MUNDO S.A.S.                          C000000002940000000000000000000000100010010000000000000000000000F0010000008641600220160524000101 00000000000000000000000000000000000000000000000000000000000000000000000000000000000000000000000000000000000000000N 00000000000NCONT   00    00000000000          00000000000000000000000000000000000000000000 000000000000000A000000000000000000000000000000000000000000000 000000000000000000000000000000000000000     00000000                                                                                                                        000000000000000000
F0010000008641600003000089011078600042505000000000000000000201605240002001DIST. NUEVO MUNDO S.A.S.                          C000000000402500000000000000000000100010010000000000000000000000F0010000008641600320160524000101 00000000000000000000000000000000000000000000000000000000000000000000000000000000000000000000000000000000000000000N 00000000000NCONT   00    00000000000          00000000000000000000000000000000000000000000 000000000000000A000000000000000000000000000000000000000000000 000000000000000000000000000000000000000     00000000                                                                                                                        000000000000000000
F0010000008641600004000089011078600023658300000000000000000201605240002001DIST. NUEVO MUNDO S.A.S.                          C000000000023500000000000000000000100010010000000000000000000000F0010000008641600420160524000101 00000000000000000000000000000000000000000000000000000000000000000000000000000000000000000000000000000000000000000N 00000000000NCONT   00    00000000000          00000000000000000000000000000000000000000000 000000000000000A000000000000000000000000000000000000000000000 000000000000000000000000000000000000000     00000000                                                                                                                        000000000000000000
F0010000008641600005000089011078600013552100000000000000000201605240002001DIST. NUEVO MUNDO S.A.S.                          D000000000023500000000000000000000100010010000000000000000000000F0010000008641600520160524000101 00000000000000000000000000000000000000000000000000000000000000000000000000000000000000000000000000000000000000000N 00000000000NCONT   00    00000000000          00000000000000000000000000000000000000000000 000000000000000A000000000000000000000000000000000000000000000 000000000000000000000000000000000000000     00000000                                                                                                                        000000000000000000
F0010000008641700001000007200289400011050500000000000000000201605240002001MIGUEL CORTINA                                    D000000002200000000000000000000000100010010000000000000000000000F0010000008641700120160524000101 00000000000000000000000000000000000000000000000000000000000000000000000000000000000000000000000000000000000000000N 00000000000NCONT   00    00000000000          00000000000000000000000000000000000000000000 000000000000000A000000000000000000000000000000000000000000000 000000000000000000000000000000000000000     00000000                                                                                                                        000000000000000000
F0010000008641700002000007200289400041450500000000000000000201605240002001MIGUEL CORTINA                                    C000000002000000000000000000000000100010010000000000000000000000F0010000008641700220160524000101 00000000000000000000000000000000000000000000000000000000000000000000000000000000000000000000000000000000000000000N 00000000000NCONT   00    00000000000          00000000000000000000000000000000000000000000 000000000000000A000000000000000000000000000000000000000000000 000000000000000000000000000000000000000     00000000                                                                                                                        000000000000000000
F0010000008641700003000007200289400042505000000000000000000201605240002001MIGUEL CORTINA                                    C000000000200000000000000000000000100010010000000000000000000000F0010000008641700320160524000101 00000000000000000000000000000000000000000000000000000000000000000000000000000000000000000000000000000000000000000N 00000000000NCONT   00    00000000000          00000000000000000000000000000000000000000000 000000000000000A000000000000000000000000000000000000000000000 000000000000000000000000000000000000000     00000000                                                                                                                        000000000000000000
F0010000008641700004000007200289400023658300000000000000000201605240002001MIGUEL CORTINA                                    C000000000016000000000000000000000100010010000000000000000000000F0010000008641700420160524000101 00000000000000000000000000000000000000000000000000000000000000000000000000000000000000000000000000000000000000000N 00000000000NCONT   00    00000000000          00000000000000000000000000000000000000000000 000000000000000A000000000000000000000000000000000000000000000 000000000000000000000000000000000000000     00000000                                                                                                                        000000000000000000
F0010000008641700005000007200289400013552100000000000000000201605240002001MIGUEL CORTINA                                    D000000000016000000000000000000000100010010000000000000000000000F0010000008641700520160524000101 00000000000000000000000000000000000000000000000000000000000000000000000000000000000000000000000000000000000000000N 00000000000NCONT   00    00000000000          00000000000000000000000000000000000000000000 000000000000000A000000000000000000000000000000000000000000000 000000000000000000000000000000000000000     00000000                                                                                                                        000000000000000000
F0010000008641800001000002245670100011050500000000000000000201605240002001YOLANDA  TOBON                                    D000000002500000000000000000000000100010010000000000000000000000F0010000008641800120160524000101 00000000000000000000000000000000000000000000000000000000000000000000000000000000000000000000000000000000000000000N 00000000000NCONT   00    00000000000          00000000000000000000000000000000000000000000 000000000000000A000000000000000000000000000000000000000000000 000000000000000000000000000000000000000     00000000                                                                                                                        000000000000000000
F0010000008641800002000002245670100041450500000000000000000201605240002001YOLANDA  TOBON                                    C000000002000000000000000000000000100010010000000000000000000000F0010000008641800220160524000101 00000000000000000000000000000000000000000000000000000000000000000000000000000000000000000000000000000000000000000N 00000000000NCONT   00    00000000000          00000000000000000000000000000000000000000000 000000000000000A000000000000000000000000000000000000000000000 000000000000000000000000000000000000000     00000000                                                                                                                        000000000000000000
F0010000008641800003000002245670100042505000000000000000000201605240002001YOLANDA  TOBON                                    C000000000500000000000000000000000100010010000000000000000000000F0010000008641800320160524000101 00000000000000000000000000000000000000000000000000000000000000000000000000000000000000000000000000000000000000000N 00000000000NCONT   00    00000000000          00000000000000000000000000000000000000000000 000000000000000A000000000000000000000000000000000000000000000 000000000000000000000000000000000000000     00000000                                                                                                                        000000000000000000
F0010000008641800004000002245670100023658300000000000000000201605240002001YOLANDA  TOBON                                    C000000000016000000000000000000000100010010000000000000000000000F0010000008641800420160524000101 00000000000000000000000000000000000000000000000000000000000000000000000000000000000000000000000000000000000000000N 00000000000NCONT   00    00000000000          00000000000000000000000000000000000000000000 000000000000000A000000000000000000000000000000000000000000000 000000000000000000000000000000000000000     00000000                                                                                                                        000000000000000000
F0010000008641800005000002245670100013552100000000000000000201605240002001YOLANDA  TOBON                                    D000000000016000000000000000000000100010010000000000000000000000F0010000008641800520160524000101 00000000000000000000000000000000000000000000000000000000000000000000000000000000000000000000000000000000000000000N 00000000000NCONT   00    00000000000          00000000000000000000000000000000000000000000 000000000000000A000000000000000000000000000000000000000000000 000000000000000000000000000000000000000     00000000                                                                                                                        000000000000000000
F0010000008641900001000000742399700011050500000000000000000201605240002001CACHARRERIA EL NUEVO CHADID                       D000000001000000000000000000000000100010010000000000000000000000F0010000008641900120160524000101 00000000000000000000000000000000000000000000000000000000000000000000000000000000000000000000000000000000000000000N 00000000000NCONT   00    00000000000          00000000000000000000000000000000000000000000 000000000000000A000000000000000000000000000000000000000000000 000000000000000000000000000000000000000     00000000                                                                                                                        000000000000000000
F0010000008641900002000000742399700041450500000000000000000201605240002001CACHARRERIA EL NUEVO CHADID                       C000000000850000000000000000000000100010010000000000000000000000F0010000008641900220160524000101 00000000000000000000000000000000000000000000000000000000000000000000000000000000000000000000000000000000000000000N 00000000000NCONT   00    00000000000          00000000000000000000000000000000000000000000 000000000000000A000000000000000000000000000000000000000000000 000000000000000000000000000000000000000     00000000                                                                                                                        000000000000000000
F0010000008641900003000000742399700042505000000000000000000201605240002001CACHARRERIA EL NUEVO CHADID                       C000000000150000000000000000000000100010010000000000000000000000F0010000008641900320160524000101 00000000000000000000000000000000000000000000000000000000000000000000000000000000000000000000000000000000000000000N 00000000000NCONT   00    00000000000          00000000000000000000000000000000000000000000 000000000000000A000000000000000000000000000000000000000000000 000000000000000000000000000000000000000     00000000                                                                                                                        000000000000000000
F0010000008641900004000000742399700023658300000000000000000201605240002001CACHARRERIA EL NUEVO CHADID                       C000000000006800000000000000000000100010010000000000000000000000F0010000008641900420160524000101 00000000000000000000000000000000000000000000000000000000000000000000000000000000000000000000000000000000000000000N 00000000000NCONT   00    00000000000          00000000000000000000000000000000000000000000 000000000000000A000000000000000000000000000000000000000000000 000000000000000000000000000000000000000     00000000                                                                                                                        000000000000000000
F0010000008641900005000000742399700013552100000000000000000201605240002001CACHARRERIA EL NUEVO CHADID                       D000000000006800000000000000000000100010010000000000000000000000F0010000008641900520160524000101 00000000000000000000000000000000000000000000000000000000000000000000000000000000000000000000000000000000000000000N 00000000000NCONT   00    00000000000          00000000000000000000000000000000000000000000 000000000000000A000000000000000000000000000000000000000000000 000000000000000000000000000000000000000     00000000                                                                                                                        000000000000000000
F0010000008642000001000102390001700011050500000000000000000201605240002001LILIANA HERNANDEZ PINILLA                         D000000002000000000000000000000000100010010000000000000000000000F0010000008642000120160524000101 00000000000000000000000000000000000000000000000000000000000000000000000000000000000000000000000000000000000000000N 00000000000NCONT   00    00000000000          00000000000000000000000000000000000000000000 000000000000000A000000000000000000000000000000000000000000000 000000000000000000000000000000000000000     00000000                                                                                                                        000000000000000000
F0010000008642000002000102390001700041450500000000000000000201605240002001LILIANA HERNANDEZ PINILLA                         C000000001500000000000000000000000100010010000000000000000000000F0010000008642000220160524000101 00000000000000000000000000000000000000000000000000000000000000000000000000000000000000000000000000000000000000000N 00000000000NCONT   00    00000000000          00000000000000000000000000000000000000000000 000000000000000A000000000000000000000000000000000000000000000 000000000000000000000000000000000000000     00000000                                                                                                                        000000000000000000
F0010000008642000003000102390001700042505000000000000000000201605240002001LILIANA HERNANDEZ PINILLA                         C000000000500000000000000000000000100010010000000000000000000000F0010000008642000320160524000101 00000000000000000000000000000000000000000000000000000000000000000000000000000000000000000000000000000000000000000N 00000000000NCONT   00    00000000000          00000000000000000000000000000000000000000000 000000000000000A000000000000000000000000000000000000000000000 000000000000000000000000000000000000000     00000000                                                                                                                        000000000000000000
F0010000008642000004000102390001700023658300000000000000000201605240002001LILIANA HERNANDEZ PINILLA                         C000000000012000000000000000000000100010010000000000000000000000F0010000008642000420160524000101 00000000000000000000000000000000000000000000000000000000000000000000000000000000000000000000000000000000000000000N 00000000000NCONT   00    00000000000          00000000000000000000000000000000000000000000 000000000000000A000000000000000000000000000000000000000000000 000000000000000000000000000000000000000     00000000                                                                                                                        000000000000000000
F0010000008642000005000102390001700013552100000000000000000201605240002001LILIANA HERNANDEZ PINILLA                         D000000000012000000000000000000000100010010000000000000000000000F0010000008642000520160524000101 00000000000000000000000000000000000000000000000000000000000000000000000000000000000000000000000000000000000000000N 00000000000NCONT   00    00000000000          00000000000000000000000000000000000000000000 000000000000000A000000000000000000000000000000000000000000000 000000000000000000000000000000000000000     00000000                                                                                                                        000000000000000000
F0010000008642100001000102390001700011050500000000000000000201605240002001LILIANA HERNANDEZ PINILLA                         D000000004000000000000000000000000100010010000000000000000000000F0010000008642100120160524000101 00000000000000000000000000000000000000000000000000000000000000000000000000000000000000000000000000000000000000000N 00000000000NCONT   00    00000000000          00000000000000000000000000000000000000000000 000000000000000A000000000000000000000000000000000000000000000 000000000000000000000000000000000000000     00000000                                                                                                                        000000000000000000
F0010000008642100002000102390001700041450500000000000000000201605240002001LILIANA HERNANDEZ PINILLA                         C000000003000000000000000000000000100010010000000000000000000000F0010000008642100220160524000101 00000000000000000000000000000000000000000000000000000000000000000000000000000000000000000000000000000000000000000N 00000000000NCONT   00    00000000000          00000000000000000000000000000000000000000000 000000000000000A000000000000000000000000000000000000000000000 000000000000000000000000000000000000000     00000000                                                                                                                        000000000000000000
