F0010000006903600001000090040928000013050500000000000000000201503100002001DISTRIBUCIONES FERRETERAS OTERO & AGUDELO SAS     D000000051558900000000000000000000100010010000000000000000000000F0010000006903600120150310000101 00000000000000000000000000000000000000000000000000000000000000000000000000000000000000000000000000000000000000000N 00000000000NCONT   00    00000000000          00000000000000000000000000000000000000000000 000000000000000A000000000000000000000000000000000000000000000 000000000000000000000000000000000000000     00000000                                                                                                                        000000000000000000
F0010000006903600002000090040928000041450500000000000000000201503100002001DISTRIBUCIONES FERRETERAS OTERO & AGUDELO SAS     C000000051558900000000000000000000100010010000000000000000000000F0010000006903600220150310000101 00000000000000000000000000000000000000000000000000000000000000000000000000000000000000000000000000000000000000000N 00000000000NCONT   00    00000000000          00000000000000000000000000000000000000000000 000000000000000A000000000000000000000000000000000000000000000 000000000000000000000000000000000000000     00000000                                                                                                                        000000000000000000
F0010000006903600003000090040928000042505000000000000000000201503100002001DISTRIBUCIONES FERRETERAS OTERO & AGUDELO SAS     C000000000000000000000000000000000100010010000000000000000000000F0010000006903600320150310000101 00000000000000000000000000000000000000000000000000000000000000000000000000000000000000000000000000000000000000000N 00000000000NCONT   00    00000000000          00000000000000000000000000000000000000000000 000000000000000A000000000000000000000000000000000000000000000 000000000000000000000000000000000000000     00000000                                                                                                                        000000000000000000
F0010000006903600004000090040928000023658300000000000000000201503100002001DISTRIBUCIONES FERRETERAS OTERO & AGUDELO SAS     C000000000412500000000000000000000100010010000000000000000000000F0010000006903600420150310000101 00000000000000000000000000000000000000000000000000000000000000000000000000000000000000000000000000000000000000000N 00000000000NCONT   00    00000000000          00000000000000000000000000000000000000000000 000000000000000A000000000000000000000000000000000000000000000 000000000000000000000000000000000000000     00000000                                                                                                                        000000000000000000
F0010000006903600005000090040928000013552100000000000000000201503100002001DISTRIBUCIONES FERRETERAS OTERO & AGUDELO SAS     D000000000412500000000000000000000100010010000000000000000000000F0010000006903600520150310000101 00000000000000000000000000000000000000000000000000000000000000000000000000000000000000000000000000000000000000000N 00000000000NCONT   00    00000000000          00000000000000000000000000000000000000000000 000000000000000A000000000000000000000000000000000000000000000 000000000000000000000000000000000000000     00000000                                                                                                                        000000000000000000
F0010000006903700001000090054716100013050500000000000000000201503100002001IMPORTVAL SAS                                     D000000021000000000000000000000000100010010000000000000000000000F0010000006903700120150310000101 00000000000000000000000000000000000000000000000000000000000000000000000000000000000000000000000000000000000000000N 00000000000NCONT   00    00000000000          00000000000000000000000000000000000000000000 000000000000000A000000000000000000000000000000000000000000000 000000000000000000000000000000000000000     00000000                                                                                                                        000000000000000000
F0010000006903700002000090054716100041450500000000000000000201503100002001IMPORTVAL SAS                                     C000000019600000000000000000000000100010010000000000000000000000F0010000006903700220150310000101 00000000000000000000000000000000000000000000000000000000000000000000000000000000000000000000000000000000000000000N 00000000000NCONT   00    00000000000          00000000000000000000000000000000000000000000 000000000000000A000000000000000000000000000000000000000000000 000000000000000000000000000000000000000     00000000                                                                                                                        000000000000000000
F0010000006903700003000090054716100042505000000000000000000201503100002001IMPORTVAL SAS                                     C000000001400000000000000000000000100010010000000000000000000000F0010000006903700320150310000101 00000000000000000000000000000000000000000000000000000000000000000000000000000000000000000000000000000000000000000N 00000000000NCONT   00    00000000000          00000000000000000000000000000000000000000000 000000000000000A000000000000000000000000000000000000000000000 000000000000000000000000000000000000000     00000000                                                                                                                        000000000000000000
F0010000006903700004000090054716100023658300000000000000000201503100002001IMPORTVAL SAS                                     C000000000156800000000000000000000100010010000000000000000000000F0010000006903700420150310000101 00000000000000000000000000000000000000000000000000000000000000000000000000000000000000000000000000000000000000000N 00000000000NCONT   00    00000000000          00000000000000000000000000000000000000000000 000000000000000A000000000000000000000000000000000000000000000 000000000000000000000000000000000000000     00000000                                                                                                                        000000000000000000
F0010000006903700005000090054716100013552100000000000000000201503100002001IMPORTVAL SAS                                     D000000000156800000000000000000000100010010000000000000000000000F0010000006903700520150310000101 00000000000000000000000000000000000000000000000000000000000000000000000000000000000000000000000000000000000000000N 00000000000NCONT   00    00000000000          00000000000000000000000000000000000000000000 000000000000000A000000000000000000000000000000000000000000000 000000000000000000000000000000000000000     00000000                                                                                                                        000000000000000000
F0010000006903800001000090035510100013050500000000000000000201503100002001GRAINGER COLOMBIA S.A.S.                          D000000036741600000000000000000000100010010000000000000000000000F0010000006903800120150310000101 00000000000000000000000000000000000000000000000000000000000000000000000000000000000000000000000000000000000000000N 00000000000NCONT   00    00000000000          00000000000000000000000000000000000000000000 000000000000000A000000000000000000000000000000000000000000000 000000000000000000000000000000000000000     00000000                                                                                                                        000000000000000000
F0010000006903800002000090035510100041450500000000000000000201503100002001GRAINGER COLOMBIA S.A.S.                          C000000023107800000000000000000000100010010000000000000000000000F0010000006903800220150310000101 00000000000000000000000000000000000000000000000000000000000000000000000000000000000000000000000000000000000000000N 00000000000NCONT   00    00000000000          00000000000000000000000000000000000000000000 000000000000000A000000000000000000000000000000000000000000000 000000000000000000000000000000000000000     00000000                                                                                                                        000000000000000000
F0010000006903800003000090035510100042505000000000000000000201503100002001GRAINGER COLOMBIA S.A.S.                          C000000013633800000000000000000000100010010000000000000000000000F0010000006903800320150310000101 00000000000000000000000000000000000000000000000000000000000000000000000000000000000000000000000000000000000000000N 00000000000NCONT   00    00000000000          00000000000000000000000000000000000000000000 000000000000000A000000000000000000000000000000000000000000000 000000000000000000000000000000000000000     00000000                                                                                                                        000000000000000000
F0010000006903800004000090035510100023658300000000000000000201503100002001GRAINGER COLOMBIA S.A.S.                          C000000000184900000000000000000000100010010000000000000000000000F0010000006903800420150310000101 00000000000000000000000000000000000000000000000000000000000000000000000000000000000000000000000000000000000000000N 00000000000NCONT   00    00000000000          00000000000000000000000000000000000000000000 000000000000000A000000000000000000000000000000000000000000000 000000000000000000000000000000000000000     00000000                                                                                                                        000000000000000000
F0010000006903800005000090035510100013552100000000000000000201503100002001GRAINGER COLOMBIA S.A.S.                          D000000000184900000000000000000000100010010000000000000000000000F0010000006903800520150310000101 00000000000000000000000000000000000000000000000000000000000000000000000000000000000000000000000000000000000000000N 00000000000NCONT   00    00000000000          00000000000000000000000000000000000000000000 000000000000000A000000000000000000000000000000000000000000000 000000000000000000000000000000000000000     00000000                                                                                                                        000000000000000000
F0010000006903900001000090064982900013050500000000000000000201503100002001DISDIES S.A.S                                     D000000093232100000000000000000000100010010000000000000000000000F0010000006903900120150310000101 00000000000000000000000000000000000000000000000000000000000000000000000000000000000000000000000000000000000000000N 00000000000NCONT   00    00000000000          00000000000000000000000000000000000000000000 000000000000000A000000000000000000000000000000000000000000000 000000000000000000000000000000000000000     00000000                                                                                                                        000000000000000000
F0010000006903900002000090064982900041450500000000000000000201503100002001DISDIES S.A.S                                     C000000084700000000000000000000000100010010000000000000000000000F0010000006903900220150310000101 00000000000000000000000000000000000000000000000000000000000000000000000000000000000000000000000000000000000000000N 00000000000NCONT   00    00000000000          00000000000000000000000000000000000000000000 000000000000000A000000000000000000000000000000000000000000000 000000000000000000000000000000000000000     00000000                                                                                                                        000000000000000000
F0010000006903900003000090064982900042505000000000000000000201503100002001DISDIES S.A.S                                     C000000008532100000000000000000000100010010000000000000000000000F0010000006903900320150310000101 00000000000000000000000000000000000000000000000000000000000000000000000000000000000000000000000000000000000000000N 00000000000NCONT   00    00000000000          00000000000000000000000000000000000000000000 000000000000000A000000000000000000000000000000000000000000000 000000000000000000000000000000000000000     00000000                                                                                                                        000000000000000000
F0010000006903900004000090064982900023658300000000000000000201503100002001DISDIES S.A.S                                     C000000000677600000000000000000000100010010000000000000000000000F0010000006903900420150310000101 00000000000000000000000000000000000000000000000000000000000000000000000000000000000000000000000000000000000000000N 00000000000NCONT   00    00000000000          00000000000000000000000000000000000000000000 000000000000000A000000000000000000000000000000000000000000000 000000000000000000000000000000000000000     00000000                                                                                                                        000000000000000000
F0010000006903900005000090064982900013552100000000000000000201503100002001DISDIES S.A.S                                     D000000000677600000000000000000000100010010000000000000000000000F0010000006903900520150310000101 00000000000000000000000000000000000000000000000000000000000000000000000000000000000000000000000000000000000000000N 00000000000NCONT   00    00000000000          00000000000000000000000000000000000000000000 000000000000000A000000000000000000000000000000000000000000000 000000000000000000000000000000000000000     00000000                                                                                                                        000000000000000000
F0010000006904000001000090064982900013050500000000000000000201503100002001DISDIES S.A.S                                     D000000007869300000000000000000000100010010000000000000000000000F0010000006904000120150310000101 00000000000000000000000000000000000000000000000000000000000000000000000000000000000000000000000000000000000000000N 00000000000NCONT   00    00000000000          00000000000000000000000000000000000000000000 000000000000000A000000000000000000000000000000000000000000000 000000000000000000000000000000000000000     00000000                                                                                                                        000000000000000000
F0010000006904000002000090064982900041450500000000000000000201503100002001DISDIES S.A.S                                     C000000007391700000000000000000000100010010000000000000000000000F0010000006904000220150310000101 00000000000000000000000000000000000000000000000000000000000000000000000000000000000000000000000000000000000000000N 00000000000NCONT   00    00000000000          00000000000000000000000000000000000000000000 000000000000000A000000000000000000000000000000000000000000000 000000000000000000000000000000000000000     00000000                                                                                                                        000000000000000000
F0010000006904000003000090064982900042505000000000000000000201503100002001DISDIES S.A.S                                     C000000000477600000000000000000000100010010000000000000000000000F0010000006904000320150310000101 00000000000000000000000000000000000000000000000000000000000000000000000000000000000000000000000000000000000000000N 00000000000NCONT   00    00000000000          00000000000000000000000000000000000000000000 000000000000000A000000000000000000000000000000000000000000000 000000000000000000000000000000000000000     00000000                                                                                                                        000000000000000000
F0010000006904000004000090064982900023658300000000000000000201503100002001DISDIES S.A.S                                     C000000000059100000000000000000000100010010000000000000000000000F0010000006904000420150310000101 00000000000000000000000000000000000000000000000000000000000000000000000000000000000000000000000000000000000000000N 00000000000NCONT   00    00000000000          00000000000000000000000000000000000000000000 000000000000000A000000000000000000000000000000000000000000000 000000000000000000000000000000000000000     00000000                                                                                                                        000000000000000000
F0010000006904000005000090064982900013552100000000000000000201503100002001DISDIES S.A.S                                     D000000000059100000000000000000000100010010000000000000000000000F0010000006904000520150310000101 00000000000000000000000000000000000000000000000000000000000000000000000000000000000000000000000000000000000000000N 00000000000NCONT   00    00000000000          00000000000000000000000000000000000000000000 000000000000000A000000000000000000000000000000000000000000000 000000000000000000000000000000000000000     00000000                                                                                                                        000000000000000000
F0010000006904100001000000234402100011050500000000000000000201503100002001ISMAEL SANCHEZ ..                                 D000000004000000000000000000000000100010010000000000000000000000F0010000006904100120150310000101 00000000000000000000000000000000000000000000000000000000000000000000000000000000000000000000000000000000000000000N 00000000000NCONT   00    00000000000          00000000000000000000000000000000000000000000 000000000000000A000000000000000000000000000000000000000000000 000000000000000000000000000000000000000     00000000                                                                                                                        000000000000000000
F0010000006904100002000000234402100041450500000000000000000201503100002001ISMAEL SANCHEZ ..                                 C000000003600000000000000000000000100010010000000000000000000000F0010000006904100220150310000101 00000000000000000000000000000000000000000000000000000000000000000000000000000000000000000000000000000000000000000N 00000000000NCONT   00    00000000000          00000000000000000000000000000000000000000000 000000000000000A000000000000000000000000000000000000000000000 000000000000000000000000000000000000000     00000000                                                                                                                        000000000000000000
F0010000006904100003000000234402100042505000000000000000000201503100002001ISMAEL SANCHEZ ..                                 C000000000400000000000000000000000100010010000000000000000000000F0010000006904100320150310000101 00000000000000000000000000000000000000000000000000000000000000000000000000000000000000000000000000000000000000000N 00000000000NCONT   00    00000000000          00000000000000000000000000000000000000000000 000000000000000A000000000000000000000000000000000000000000000 000000000000000000000000000000000000000     00000000                                                                                                                        000000000000000000
F0010000006904100004000000234402100023658300000000000000000201503100002001ISMAEL SANCHEZ ..                                 C000000000028800000000000000000000100010010000000000000000000000F0010000006904100420150310000101 00000000000000000000000000000000000000000000000000000000000000000000000000000000000000000000000000000000000000000N 00000000000NCONT   00    00000000000          00000000000000000000000000000000000000000000 000000000000000A000000000000000000000000000000000000000000000 000000000000000000000000000000000000000     00000000                                                                                                                        000000000000000000
F0010000006904100005000000234402100013552100000000000000000201503100002001ISMAEL SANCHEZ ..                                 D000000000028800000000000000000000100010010000000000000000000000F0010000006904100520150310000101 00000000000000000000000000000000000000000000000000000000000000000000000000000000000000000000000000000000000000000N 00000000000NCONT   00    00000000000          00000000000000000000000000000000000000000000 000000000000000A000000000000000000000000000000000000000000000 000000000000000000000000000000000000000     00000000                                                                                                                        000000000000000000
F0010000006904200001000000234402100011050500000000000000000201503100002001ISMAEL SANCHEZ ..                                 D000000004000000000000000000000000100010010000000000000000000000F0010000006904200120150310000101 00000000000000000000000000000000000000000000000000000000000000000000000000000000000000000000000000000000000000000N 00000000000NCONT   00    00000000000          00000000000000000000000000000000000000000000 000000000000000A000000000000000000000000000000000000000000000 000000000000000000000000000000000000000     00000000                                                                                                                        000000000000000000
F0010000006904200002000000234402100041450500000000000000000201503100002001ISMAEL SANCHEZ ..                                 C000000003600000000000000000000000100010010000000000000000000000F0010000006904200220150310000101 00000000000000000000000000000000000000000000000000000000000000000000000000000000000000000000000000000000000000000N 00000000000NCONT   00    00000000000          00000000000000000000000000000000000000000000 000000000000000A000000000000000000000000000000000000000000000 000000000000000000000000000000000000000     00000000                                                                                                                        000000000000000000
F0010000006904200003000000234402100042505000000000000000000201503100002001ISMAEL SANCHEZ ..                                 C000000000400000000000000000000000100010010000000000000000000000F0010000006904200320150310000101 00000000000000000000000000000000000000000000000000000000000000000000000000000000000000000000000000000000000000000N 00000000000NCONT   00    00000000000          00000000000000000000000000000000000000000000 000000000000000A000000000000000000000000000000000000000000000 000000000000000000000000000000000000000     00000000                                                                                                                        000000000000000000
F0010000006904200004000000234402100023658300000000000000000201503100002001ISMAEL SANCHEZ ..                                 C000000000028800000000000000000000100010010000000000000000000000F0010000006904200420150310000101 00000000000000000000000000000000000000000000000000000000000000000000000000000000000000000000000000000000000000000N 00000000000NCONT   00    00000000000          00000000000000000000000000000000000000000000 000000000000000A000000000000000000000000000000000000000000000 000000000000000000000000000000000000000     00000000                                                                                                                        000000000000000000
F0010000006904200005000000234402100013552100000000000000000201503100002001ISMAEL SANCHEZ ..                                 D000000000028800000000000000000000100010010000000000000000000000F0010000006904200520150310000101 00000000000000000000000000000000000000000000000000000000000000000000000000000000000000000000000000000000000000000N 00000000000NCONT   00    00000000000          00000000000000000000000000000000000000000000 000000000000000A000000000000000000000000000000000000000000000 000000000000000000000000000000000000000     00000000                                                                                                                        000000000000000000
F0010000006904300001000000234402100011050500000000000000000201503100002001ISMAEL SANCHEZ ..                                 D000000005000000000000000000000000100010010000000000000000000000F0010000006904300120150310000101 00000000000000000000000000000000000000000000000000000000000000000000000000000000000000000000000000000000000000000N 00000000000NCONT   00    00000000000          00000000000000000000000000000000000000000000 000000000000000A000000000000000000000000000000000000000000000 000000000000000000000000000000000000000     00000000                                                                                                                        000000000000000000
F0010000006904300002000000234402100041450500000000000000000201503100002001ISMAEL SANCHEZ ..                                 C000000004400000000000000000000000100010010000000000000000000000F0010000006904300220150310000101 00000000000000000000000000000000000000000000000000000000000000000000000000000000000000000000000000000000000000000N 00000000000NCONT   00    00000000000          00000000000000000000000000000000000000000000 000000000000000A000000000000000000000000000000000000000000000 000000000000000000000000000000000000000     00000000                                                                                                                        000000000000000000
F0010000006904300003000000234402100042505000000000000000000201503100002001ISMAEL SANCHEZ ..                                 C000000000600000000000000000000000100010010000000000000000000000F0010000006904300320150310000101 00000000000000000000000000000000000000000000000000000000000000000000000000000000000000000000000000000000000000000N 00000000000NCONT   00    00000000000          00000000000000000000000000000000000000000000 000000000000000A000000000000000000000000000000000000000000000 000000000000000000000000000000000000000     00000000                                                                                                                        000000000000000000
F0010000006904300004000000234402100023658300000000000000000201503100002001ISMAEL SANCHEZ ..                                 C000000000035200000000000000000000100010010000000000000000000000F0010000006904300420150310000101 00000000000000000000000000000000000000000000000000000000000000000000000000000000000000000000000000000000000000000N 00000000000NCONT   00    00000000000          00000000000000000000000000000000000000000000 000000000000000A000000000000000000000000000000000000000000000 000000000000000000000000000000000000000     00000000                                                                                                                        000000000000000000
F0010000006904300005000000234402100013552100000000000000000201503100002001ISMAEL SANCHEZ ..                                 D000000000035200000000000000000000100010010000000000000000000000F0010000006904300520150310000101 00000000000000000000000000000000000000000000000000000000000000000000000000000000000000000000000000000000000000000N 00000000000NCONT   00    00000000000          00000000000000000000000000000000000000000000 000000000000000A000000000000000000000000000000000000000000000 000000000000000000000000000000000000000     00000000                                                                                                                        000000000000000000
F0010000006904400001000089011508200011050500000000000000000201503100002001ALMACEN Y TALLER CICLOCOSTA                       D000000005000000000000000000000000100010010000000000000000000000F0010000006904400120150310000101 00000000000000000000000000000000000000000000000000000000000000000000000000000000000000000000000000000000000000000N 00000000000NCONT   00    00000000000          00000000000000000000000000000000000000000000 000000000000000A000000000000000000000000000000000000000000000 000000000000000000000000000000000000000     00000000                                                                                                                        000000000000000000
F0010000006904400002000089011508200041450500000000000000000201503100002001ALMACEN Y TALLER CICLOCOSTA                       C000000004500000000000000000000000100010010000000000000000000000F0010000006904400220150310000101 00000000000000000000000000000000000000000000000000000000000000000000000000000000000000000000000000000000000000000N 00000000000NCONT   00    00000000000          00000000000000000000000000000000000000000000 000000000000000A000000000000000000000000000000000000000000000 000000000000000000000000000000000000000     00000000                                                                                                                        000000000000000000
F0010000006904400003000089011508200042505000000000000000000201503100002001ALMACEN Y TALLER CICLOCOSTA                       C000000000500000000000000000000000100010010000000000000000000000F0010000006904400320150310000101 00000000000000000000000000000000000000000000000000000000000000000000000000000000000000000000000000000000000000000N 00000000000NCONT   00    00000000000          00000000000000000000000000000000000000000000 000000000000000A000000000000000000000000000000000000000000000 000000000000000000000000000000000000000     00000000                                                                                                                        000000000000000000
F0010000006904400004000089011508200023658300000000000000000201503100002001ALMACEN Y TALLER CICLOCOSTA                       C000000000036000000000000000000000100010010000000000000000000000F0010000006904400420150310000101 00000000000000000000000000000000000000000000000000000000000000000000000000000000000000000000000000000000000000000N 00000000000NCONT   00    00000000000          00000000000000000000000000000000000000000000 000000000000000A000000000000000000000000000000000000000000000 000000000000000000000000000000000000000     00000000                                                                                                                        000000000000000000
F0010000006904400005000089011508200013552100000000000000000201503100002001ALMACEN Y TALLER CICLOCOSTA                       D000000000036000000000000000000000100010010000000000000000000000F0010000006904400520150310000101 00000000000000000000000000000000000000000000000000000000000000000000000000000000000000000000000000000000000000000N 00000000000NCONT   00    00000000000          00000000000000000000000000000000000000000000 000000000000000A000000000000000000000000000000000000000000000 000000000000000000000000000000000000000     00000000                                                                                                                        000000000000000000
F0010000006904500001000089011508200011050500000000000000000201503100002001ALMACEN Y TALLER CICLOCOSTA                       D000000002300000000000000000000000100010010000000000000000000000F0010000006904500120150310000101 00000000000000000000000000000000000000000000000000000000000000000000000000000000000000000000000000000000000000000N 00000000000NCONT   00    00000000000          00000000000000000000000000000000000000000000 000000000000000A000000000000000000000000000000000000000000000 000000000000000000000000000000000000000     00000000                                                                                                                        000000000000000000
F0010000006904500002000089011508200041450500000000000000000201503100002001ALMACEN Y TALLER CICLOCOSTA                       C000000002000000000000000000000000100010010000000000000000000000F0010000006904500220150310000101 00000000000000000000000000000000000000000000000000000000000000000000000000000000000000000000000000000000000000000N 00000000000NCONT   00    00000000000          00000000000000000000000000000000000000000000 000000000000000A000000000000000000000000000000000000000000000 000000000000000000000000000000000000000     00000000                                                                                                                        000000000000000000
F0010000006904500003000089011508200042505000000000000000000201503100002001ALMACEN Y TALLER CICLOCOSTA                       C000000000300000000000000000000000100010010000000000000000000000F0010000006904500320150310000101 00000000000000000000000000000000000000000000000000000000000000000000000000000000000000000000000000000000000000000N 00000000000NCONT   00    00000000000          00000000000000000000000000000000000000000000 000000000000000A000000000000000000000000000000000000000000000 000000000000000000000000000000000000000     00000000                                                                                                                        000000000000000000
F0010000006904500004000089011508200023658300000000000000000201503100002001ALMACEN Y TALLER CICLOCOSTA                       C000000000016000000000000000000000100010010000000000000000000000F0010000006904500420150310000101 00000000000000000000000000000000000000000000000000000000000000000000000000000000000000000000000000000000000000000N 00000000000NCONT   00    00000000000          00000000000000000000000000000000000000000000 000000000000000A000000000000000000000000000000000000000000000 000000000000000000000000000000000000000     00000000                                                                                                                        000000000000000000
F0010000006904500005000089011508200013552100000000000000000201503100002001ALMACEN Y TALLER CICLOCOSTA                       D000000000016000000000000000000000100010010000000000000000000000F0010000006904500520150310000101 00000000000000000000000000000000000000000000000000000000000000000000000000000000000000000000000000000000000000000N 00000000000NCONT   00    00000000000          00000000000000000000000000000000000000000000 000000000000000A000000000000000000000000000000000000000000000 000000000000000000000000000000000000000     00000000                                                                                                                        000000000000000000
F0010000006904600001000090073498600011050500000000000000000201503100002001VALTAC DEL CARIBE LTDA                            D000000001100000000000000000000000100010010000000000000000000000F0010000006904600120150310000101 00000000000000000000000000000000000000000000000000000000000000000000000000000000000000000000000000000000000000000N 00000000000NCONT   00    00000000000          00000000000000000000000000000000000000000000 000000000000000A000000000000000000000000000000000000000000000 000000000000000000000000000000000000000     00000000                                                                                                                        000000000000000000
F0010000006904600002000090073498600041450500000000000000000201503100002001VALTAC DEL CARIBE LTDA                            C000000000900000000000000000000000100010010000000000000000000000F0010000006904600220150310000101 00000000000000000000000000000000000000000000000000000000000000000000000000000000000000000000000000000000000000000N 00000000000NCONT   00    00000000000          00000000000000000000000000000000000000000000 000000000000000A000000000000000000000000000000000000000000000 000000000000000000000000000000000000000     00000000                                                                                                                        000000000000000000
F0010000006904600003000090073498600042505000000000000000000201503100002001VALTAC DEL CARIBE LTDA                            C000000000200000000000000000000000100010010000000000000000000000F0010000006904600320150310000101 00000000000000000000000000000000000000000000000000000000000000000000000000000000000000000000000000000000000000000N 00000000000NCONT   00    00000000000          00000000000000000000000000000000000000000000 000000000000000A000000000000000000000000000000000000000000000 000000000000000000000000000000000000000     00000000                                                                                                                        000000000000000000
F0010000006904600004000090073498600023658300000000000000000201503100002001VALTAC DEL CARIBE LTDA                            C000000000007200000000000000000000100010010000000000000000000000F0010000006904600420150310000101 00000000000000000000000000000000000000000000000000000000000000000000000000000000000000000000000000000000000000000N 00000000000NCONT   00    00000000000          00000000000000000000000000000000000000000000 000000000000000A000000000000000000000000000000000000000000000 000000000000000000000000000000000000000     00000000                                                                                                                        000000000000000000
F0010000006904600005000090073498600013552100000000000000000201503100002001VALTAC DEL CARIBE LTDA                            D000000000007200000000000000000000100010010000000000000000000000F0010000006904600520150310000101 00000000000000000000000000000000000000000000000000000000000000000000000000000000000000000000000000000000000000000N 00000000000NCONT   00    00000000000          00000000000000000000000000000000000000000000 000000000000000A000000000000000000000000000000000000000000000 000000000000000000000000000000000000000     00000000                                                                                                                        000000000000000000
F0010000006904700001000089011033000011050500000000000000000201503100002001INDUSTRIAS CRUZ & CAÑON LTDA                     D000000012000000000000000000000000100010010000000000000000000000F0010000006904700120150310000101 00000000000000000000000000000000000000000000000000000000000000000000000000000000000000000000000000000000000000000N 00000000000NCONT   00    00000000000          00000000000000000000000000000000000000000000 000000000000000A000000000000000000000000000000000000000000000 000000000000000000000000000000000000000     00000000                                                                                                                        000000000000000000
F0010000006904700002000089011033000041450500000000000000000201503100002001INDUSTRIAS CRUZ & CAÑON LTDA                     C000000011300000000000000000000000100010010000000000000000000000F0010000006904700220150310000101 00000000000000000000000000000000000000000000000000000000000000000000000000000000000000000000000000000000000000000N 00000000000NCONT   00    00000000000          00000000000000000000000000000000000000000000 000000000000000A000000000000000000000000000000000000000000000 000000000000000000000000000000000000000     00000000                                                                                                                        000000000000000000
F0010000006904700003000089011033000042505000000000000000000201503100002001INDUSTRIAS CRUZ & CAÑON LTDA                     C000000000700000000000000000000000100010010000000000000000000000F0010000006904700320150310000101 00000000000000000000000000000000000000000000000000000000000000000000000000000000000000000000000000000000000000000N 00000000000NCONT   00    00000000000          00000000000000000000000000000000000000000000 000000000000000A000000000000000000000000000000000000000000000 000000000000000000000000000000000000000     00000000                                                                                                                        000000000000000000
F0010000006904700004000089011033000023658300000000000000000201503100002001INDUSTRIAS CRUZ & CAÑON LTDA                     C000000000090400000000000000000000100010010000000000000000000000F0010000006904700420150310000101 00000000000000000000000000000000000000000000000000000000000000000000000000000000000000000000000000000000000000000N 00000000000NCONT   00    00000000000          00000000000000000000000000000000000000000000 000000000000000A000000000000000000000000000000000000000000000 000000000000000000000000000000000000000     00000000                                                                                                                        000000000000000000
F0010000006904700005000089011033000013552100000000000000000201503100002001INDUSTRIAS CRUZ & CAÑON LTDA                     D000000000090400000000000000000000100010010000000000000000000000F0010000006904700520150310000101 00000000000000000000000000000000000000000000000000000000000000000000000000000000000000000000000000000000000000000N 00000000000NCONT   00    00000000000          00000000000000000000000000000000000000000000 000000000000000A000000000000000000000000000000000000000000000 000000000000000000000000000000000000000     00000000                                                                                                                        000000000000000000
F0010000006904800001000090062416800011050500000000000000000201503100002001VIALUMINIOS PAOLA                                 D000000075000000000000000000000000100010010000000000000000000000F0010000006904800120150310000101 00000000000000000000000000000000000000000000000000000000000000000000000000000000000000000000000000000000000000000N 00000000000NCONT   00    00000000000          00000000000000000000000000000000000000000000 000000000000000A000000000000000000000000000000000000000000000 000000000000000000000000000000000000000     00000000                                                                                                                        000000000000000000
F0010000006904800002000090062416800041450500000000000000000201503100002001VIALUMINIOS PAOLA                                 C000000055000000000000000000000000100010010000000000000000000000F0010000006904800220150310000101 00000000000000000000000000000000000000000000000000000000000000000000000000000000000000000000000000000000000000000N 00000000000NCONT   00    00000000000          00000000000000000000000000000000000000000000 000000000000000A000000000000000000000000000000000000000000000 000000000000000000000000000000000000000     00000000                                                                                                                        000000000000000000
F0010000006904800003000090062416800042505000000000000000000201503100002001VIALUMINIOS PAOLA                                 C000000020000000000000000000000000100010010000000000000000000000F0010000006904800320150310000101 00000000000000000000000000000000000000000000000000000000000000000000000000000000000000000000000000000000000000000N 00000000000NCONT   00    00000000000          00000000000000000000000000000000000000000000 000000000000000A000000000000000000000000000000000000000000000 000000000000000000000000000000000000000     00000000                                                                                                                        000000000000000000
F0010000006904800004000090062416800023658300000000000000000201503100002001VIALUMINIOS PAOLA                                 C000000000440000000000000000000000100010010000000000000000000000F0010000006904800420150310000101 00000000000000000000000000000000000000000000000000000000000000000000000000000000000000000000000000000000000000000N 00000000000NCONT   00    00000000000          00000000000000000000000000000000000000000000 000000000000000A000000000000000000000000000000000000000000000 000000000000000000000000000000000000000     00000000                                                                                                                        000000000000000000
F0010000006904800005000090062416800013552100000000000000000201503100002001VIALUMINIOS PAOLA                                 D000000000440000000000000000000000100010010000000000000000000000F0010000006904800520150310000101 00000000000000000000000000000000000000000000000000000000000000000000000000000000000000000000000000000000000000000N 00000000000NCONT   00    00000000000          00000000000000000000000000000000000000000000 000000000000000A000000000000000000000000000000000000000000000 000000000000000000000000000000000000000     00000000                                                                                                                        000000000000000000
F0010000006904900001000080022103000011050500000000000000000201503100002001C.C CONSTRUCCIONES Y COMUNICACIONES S.A.S.        D000000006000000000000000000000000100010010000000000000000000000F0010000006904900120150310000101 00000000000000000000000000000000000000000000000000000000000000000000000000000000000000000000000000000000000000000N 00000000000NCONT   00    00000000000          00000000000000000000000000000000000000000000 000000000000000A000000000000000000000000000000000000000000000 000000000000000000000000000000000000000     00000000                                                                                                                        000000000000000000
F0010000006904900002000080022103000041450500000000000000000201503100002001C.C CONSTRUCCIONES Y COMUNICACIONES S.A.S.        C000000005500000000000000000000000100010010000000000000000000000F0010000006904900220150310000101 00000000000000000000000000000000000000000000000000000000000000000000000000000000000000000000000000000000000000000N 00000000000NCONT   00    00000000000          00000000000000000000000000000000000000000000 000000000000000A000000000000000000000000000000000000000000000 000000000000000000000000000000000000000     00000000                                                                                                                        000000000000000000
F0010000006904900003000080022103000042505000000000000000000201503100002001C.C CONSTRUCCIONES Y COMUNICACIONES S.A.S.        C000000000500000000000000000000000100010010000000000000000000000F0010000006904900320150310000101 00000000000000000000000000000000000000000000000000000000000000000000000000000000000000000000000000000000000000000N 00000000000NCONT   00    00000000000          00000000000000000000000000000000000000000000 000000000000000A000000000000000000000000000000000000000000000 000000000000000000000000000000000000000     00000000                                                                                                                        000000000000000000
F0010000006904900004000080022103000023658300000000000000000201503100002001C.C CONSTRUCCIONES Y COMUNICACIONES S.A.S.        C000000000044000000000000000000000100010010000000000000000000000F0010000006904900420150310000101 00000000000000000000000000000000000000000000000000000000000000000000000000000000000000000000000000000000000000000N 00000000000NCONT   00    00000000000          00000000000000000000000000000000000000000000 000000000000000A000000000000000000000000000000000000000000000 000000000000000000000000000000000000000     00000000                                                                                                                        000000000000000000
F0010000006904900005000080022103000013552100000000000000000201503100002001C.C CONSTRUCCIONES Y COMUNICACIONES S.A.S.        D000000000044000000000000000000000100010010000000000000000000000F0010000006904900520150310000101 00000000000000000000000000000000000000000000000000000000000000000000000000000000000000000000000000000000000000000N 00000000000NCONT   00    00000000000          00000000000000000000000000000000000000000000 000000000000000A000000000000000000000000000000000000000000000 000000000000000000000000000000000000000     00000000                                                                                                                        000000000000000000
F0010000006905000001000090020547900011050500000000000000000201503100002001DAC DEL CARIBE S.A.S.                             D000000001750000000000000000000000100010010000000000000000000000F0010000006905000120150310000101 00000000000000000000000000000000000000000000000000000000000000000000000000000000000000000000000000000000000000000N 00000000000NCONT   00    00000000000          00000000000000000000000000000000000000000000 000000000000000A000000000000000000000000000000000000000000000 000000000000000000000000000000000000000     00000000                                                                                                                        000000000000000000
F0010000006905000002000090020547900041450500000000000000000201503100002001DAC DEL CARIBE S.A.S.                             C000000001300000000000000000000000100010010000000000000000000000F0010000006905000220150310000101 00000000000000000000000000000000000000000000000000000000000000000000000000000000000000000000000000000000000000000N 00000000000NCONT   00    00000000000          00000000000000000000000000000000000000000000 000000000000000A000000000000000000000000000000000000000000000 000000000000000000000000000000000000000     00000000                                                                                                                        000000000000000000
F0010000006905000003000090020547900042505000000000000000000201503100002001DAC DEL CARIBE S.A.S.                             C000000000450000000000000000000000100010010000000000000000000000F0010000006905000320150310000101 00000000000000000000000000000000000000000000000000000000000000000000000000000000000000000000000000000000000000000N 00000000000NCONT   00    00000000000          00000000000000000000000000000000000000000000 000000000000000A000000000000000000000000000000000000000000000 000000000000000000000000000000000000000     00000000                                                                                                                        000000000000000000
F0010000006905000004000090020547900023658300000000000000000201503100002001DAC DEL CARIBE S.A.S.                             C000000000010400000000000000000000100010010000000000000000000000F0010000006905000420150310000101 00000000000000000000000000000000000000000000000000000000000000000000000000000000000000000000000000000000000000000N 00000000000NCONT   00    00000000000          00000000000000000000000000000000000000000000 000000000000000A000000000000000000000000000000000000000000000 000000000000000000000000000000000000000     00000000                                                                                                                        000000000000000000
F0010000006905000005000090020547900013552100000000000000000201503100002001DAC DEL CARIBE S.A.S.                             D000000000010400000000000000000000100010010000000000000000000000F0010000006905000520150310000101 00000000000000000000000000000000000000000000000000000000000000000000000000000000000000000000000000000000000000000N 00000000000NCONT   00    00000000000          00000000000000000000000000000000000000000000 000000000000000A000000000000000000000000000000000000000000000 000000000000000000000000000000000000000     00000000                                                                                                                        000000000000000000
F0010000006905100001000090020547900011050500000000000000000201503100002001DAC DEL CARIBE S.A.S.                             D000000001660000000000000000000000100010010000000000000000000000F0010000006905100120150310000101 00000000000000000000000000000000000000000000000000000000000000000000000000000000000000000000000000000000000000000N 00000000000NCONT   00    00000000000          00000000000000000000000000000000000000000000 000000000000000A000000000000000000000000000000000000000000000 000000000000000000000000000000000000000     00000000                                                                                                                        000000000000000000
F0010000006905100002000090020547900041450500000000000000000201503100002001DAC DEL CARIBE S.A.S.                             C000000001300000000000000000000000100010010000000000000000000000F0010000006905100220150310000101 00000000000000000000000000000000000000000000000000000000000000000000000000000000000000000000000000000000000000000N 00000000000NCONT   00    00000000000          00000000000000000000000000000000000000000000 000000000000000A000000000000000000000000000000000000000000000 000000000000000000000000000000000000000     00000000                                                                                                                        000000000000000000
F0010000006905100003000090020547900042505000000000000000000201503100002001DAC DEL CARIBE S.A.S.                             C000000000360000000000000000000000100010010000000000000000000000F0010000006905100320150310000101 00000000000000000000000000000000000000000000000000000000000000000000000000000000000000000000000000000000000000000N 00000000000NCONT   00    00000000000          00000000000000000000000000000000000000000000 000000000000000A000000000000000000000000000000000000000000000 000000000000000000000000000000000000000     00000000                                                                                                                        000000000000000000
F0010000006905100004000090020547900023658300000000000000000201503100002001DAC DEL CARIBE S.A.S.                             C000000000010400000000000000000000100010010000000000000000000000F0010000006905100420150310000101 00000000000000000000000000000000000000000000000000000000000000000000000000000000000000000000000000000000000000000N 00000000000NCONT   00    00000000000          00000000000000000000000000000000000000000000 000000000000000A000000000000000000000000000000000000000000000 000000000000000000000000000000000000000     00000000                                                                                                                        000000000000000000
F0010000006905100005000090020547900013552100000000000000000201503100002001DAC DEL CARIBE S.A.S.                             D000000000010400000000000000000000100010010000000000000000000000F0010000006905100520150310000101 00000000000000000000000000000000000000000000000000000000000000000000000000000000000000000000000000000000000000000N 00000000000NCONT   00    00000000000          00000000000000000000000000000000000000000000 000000000000000A000000000000000000000000000000000000000000000 000000000000000000000000000000000000000     00000000                                                                                                                        000000000000000000
F0010000006905200001000090020547900011050500000000000000000201503100002001DAC DEL CARIBE S.A.S.                             D000000004900000000000000000000000100010010000000000000000000000F0010000006905200120150310000101 00000000000000000000000000000000000000000000000000000000000000000000000000000000000000000000000000000000000000000N 00000000000NCONT   00    00000000000          00000000000000000000000000000000000000000000 000000000000000A000000000000000000000000000000000000000000000 000000000000000000000000000000000000000     00000000                                                                                                                        000000000000000000
F0010000006905200002000090020547900041450500000000000000000201503100002001DAC DEL CARIBE S.A.S.                             C000000003900000000000000000000000100010010000000000000000000000F0010000006905200220150310000101 00000000000000000000000000000000000000000000000000000000000000000000000000000000000000000000000000000000000000000N 00000000000NCONT   00    00000000000          00000000000000000000000000000000000000000000 000000000000000A000000000000000000000000000000000000000000000 000000000000000000000000000000000000000     00000000                                                                                                                        000000000000000000
F0010000006905200003000090020547900042505000000000000000000201503100002001DAC DEL CARIBE S.A.S.                             C000000001000000000000000000000000100010010000000000000000000000F0010000006905200320150310000101 00000000000000000000000000000000000000000000000000000000000000000000000000000000000000000000000000000000000000000N 00000000000NCONT   00    00000000000          00000000000000000000000000000000000000000000 000000000000000A000000000000000000000000000000000000000000000 000000000000000000000000000000000000000     00000000                                                                                                                        000000000000000000
F0010000006905200004000090020547900023658300000000000000000201503100002001DAC DEL CARIBE S.A.S.                             C000000000031200000000000000000000100010010000000000000000000000F0010000006905200420150310000101 00000000000000000000000000000000000000000000000000000000000000000000000000000000000000000000000000000000000000000N 00000000000NCONT   00    00000000000          00000000000000000000000000000000000000000000 000000000000000A000000000000000000000000000000000000000000000 000000000000000000000000000000000000000     00000000                                                                                                                        000000000000000000
F0010000006905200005000090020547900013552100000000000000000201503100002001DAC DEL CARIBE S.A.S.                             D000000000031200000000000000000000100010010000000000000000000000F0010000006905200520150310000101 00000000000000000000000000000000000000000000000000000000000000000000000000000000000000000000000000000000000000000N 00000000000NCONT   00    00000000000          00000000000000000000000000000000000000000000 000000000000000A000000000000000000000000000000000000000000000 000000000000000000000000000000000000000     00000000                                                                                                                        000000000000000000
F0010000006905300001000090020547900011050500000000000000000201503100002001DAC DEL CARIBE S.A.S.                             D000000005900000000000000000000000100010010000000000000000000000F0010000006905300120150310000101 00000000000000000000000000000000000000000000000000000000000000000000000000000000000000000000000000000000000000000N 00000000000NCONT   00    00000000000          00000000000000000000000000000000000000000000 000000000000000A000000000000000000000000000000000000000000000 000000000000000000000000000000000000000     00000000                                                                                                                        000000000000000000
F0010000006905300002000090020547900041450500000000000000000201503100002001DAC DEL CARIBE S.A.S.                             C000000004800000000000000000000000100010010000000000000000000000F0010000006905300220150310000101 00000000000000000000000000000000000000000000000000000000000000000000000000000000000000000000000000000000000000000N 00000000000NCONT   00    00000000000          00000000000000000000000000000000000000000000 000000000000000A000000000000000000000000000000000000000000000 000000000000000000000000000000000000000     00000000                                                                                                                        000000000000000000
F0010000006905300003000090020547900042505000000000000000000201503100002001DAC DEL CARIBE S.A.S.                             C000000001100000000000000000000000100010010000000000000000000000F0010000006905300320150310000101 00000000000000000000000000000000000000000000000000000000000000000000000000000000000000000000000000000000000000000N 00000000000NCONT   00    00000000000          00000000000000000000000000000000000000000000 000000000000000A000000000000000000000000000000000000000000000 000000000000000000000000000000000000000     00000000                                                                                                                        000000000000000000
F0010000006905300004000090020547900023658300000000000000000201503100002001DAC DEL CARIBE S.A.S.                             C000000000038400000000000000000000100010010000000000000000000000F0010000006905300420150310000101 00000000000000000000000000000000000000000000000000000000000000000000000000000000000000000000000000000000000000000N 00000000000NCONT   00    00000000000          00000000000000000000000000000000000000000000 000000000000000A000000000000000000000000000000000000000000000 000000000000000000000000000000000000000     00000000                                                                                                                        000000000000000000
F0010000006905300005000090020547900013552100000000000000000201503100002001DAC DEL CARIBE S.A.S.                             D000000000038400000000000000000000100010010000000000000000000000F0010000006905300520150310000101 00000000000000000000000000000000000000000000000000000000000000000000000000000000000000000000000000000000000000000N 00000000000NCONT   00    00000000000          00000000000000000000000000000000000000000000 000000000000000A000000000000000000000000000000000000000000000 000000000000000000000000000000000000000     00000000                                                                                                                        000000000000000000
F0010000006905400001000090027500500011050500000000000000000201503100002001MULTIALUMINIO LA 30 S.A.S.                        D000000040000000000000000000000000100010010000000000000000000000F0010000006905400120150310000101 00000000000000000000000000000000000000000000000000000000000000000000000000000000000000000000000000000000000000000N 00000000000NCONT   00    00000000000          00000000000000000000000000000000000000000000 000000000000000A000000000000000000000000000000000000000000000 000000000000000000000000000000000000000     00000000                                                                                                                        000000000000000000
F0010000006905400002000090027500500041450500000000000000000201503100002001MULTIALUMINIO LA 30 S.A.S.                        C000000030000000000000000000000000100010010000000000000000000000F0010000006905400220150310000101 00000000000000000000000000000000000000000000000000000000000000000000000000000000000000000000000000000000000000000N 00000000000NCONT   00    00000000000          00000000000000000000000000000000000000000000 000000000000000A000000000000000000000000000000000000000000000 000000000000000000000000000000000000000     00000000                                                                                                                        000000000000000000
F0010000006905400003000090027500500042505000000000000000000201503100002001MULTIALUMINIO LA 30 S.A.S.                        C000000010000000000000000000000000100010010000000000000000000000F0010000006905400320150310000101 00000000000000000000000000000000000000000000000000000000000000000000000000000000000000000000000000000000000000000N 00000000000NCONT   00    00000000000          00000000000000000000000000000000000000000000 000000000000000A000000000000000000000000000000000000000000000 000000000000000000000000000000000000000     00000000                                                                                                                        000000000000000000
F0010000006905400004000090027500500023658300000000000000000201503100002001MULTIALUMINIO LA 30 S.A.S.                        C000000000240000000000000000000000100010010000000000000000000000F0010000006905400420150310000101 00000000000000000000000000000000000000000000000000000000000000000000000000000000000000000000000000000000000000000N 00000000000NCONT   00    00000000000          00000000000000000000000000000000000000000000 000000000000000A000000000000000000000000000000000000000000000 000000000000000000000000000000000000000     00000000                                                                                                                        000000000000000000
F0010000006905400005000090027500500013552100000000000000000201503100002001MULTIALUMINIO LA 30 S.A.S.                        D000000000240000000000000000000000100010010000000000000000000000F0010000006905400520150310000101 00000000000000000000000000000000000000000000000000000000000000000000000000000000000000000000000000000000000000000N 00000000000NCONT   00    00000000000          00000000000000000000000000000000000000000000 000000000000000A000000000000000000000000000000000000000000000 000000000000000000000000000000000000000     00000000                                                                                                                        000000000000000000
F0010000006905500001000090015305700011050500000000000000000201503100002001PLASTICOS Y SERVICIOS BARRANQUILLA EU             D000000003500000000000000000000000100010010000000000000000000000F0010000006905500120150310000101 00000000000000000000000000000000000000000000000000000000000000000000000000000000000000000000000000000000000000000N 00000000000NCONT   00    00000000000          00000000000000000000000000000000000000000000 000000000000000A000000000000000000000000000000000000000000000 000000000000000000000000000000000000000     00000000                                                                                                                        000000000000000000
F0010000006905500002000090015305700041450500000000000000000201503100002001PLASTICOS Y SERVICIOS BARRANQUILLA EU             C000000003000000000000000000000000100010010000000000000000000000F0010000006905500220150310000101 00000000000000000000000000000000000000000000000000000000000000000000000000000000000000000000000000000000000000000N 00000000000NCONT   00    00000000000          00000000000000000000000000000000000000000000 000000000000000A000000000000000000000000000000000000000000000 000000000000000000000000000000000000000     00000000                                                                                                                        000000000000000000
F0010000006905500003000090015305700042505000000000000000000201503100002001PLASTICOS Y SERVICIOS BARRANQUILLA EU             C000000000500000000000000000000000100010010000000000000000000000F0010000006905500320150310000101 00000000000000000000000000000000000000000000000000000000000000000000000000000000000000000000000000000000000000000N 00000000000NCONT   00    00000000000          00000000000000000000000000000000000000000000 000000000000000A000000000000000000000000000000000000000000000 000000000000000000000000000000000000000     00000000                                                                                                                        000000000000000000
F0010000006905500004000090015305700023658300000000000000000201503100002001PLASTICOS Y SERVICIOS BARRANQUILLA EU             C000000000024000000000000000000000100010010000000000000000000000F0010000006905500420150310000101 00000000000000000000000000000000000000000000000000000000000000000000000000000000000000000000000000000000000000000N 00000000000NCONT   00    00000000000          00000000000000000000000000000000000000000000 000000000000000A000000000000000000000000000000000000000000000 000000000000000000000000000000000000000     00000000                                                                                                                        000000000000000000
F0010000006905500005000090015305700013552100000000000000000201503100002001PLASTICOS Y SERVICIOS BARRANQUILLA EU             D000000000024000000000000000000000100010010000000000000000000000F0010000006905500520150310000101 00000000000000000000000000000000000000000000000000000000000000000000000000000000000000000000000000000000000000000N 00000000000NCONT   00    00000000000          00000000000000000000000000000000000000000000 000000000000000A000000000000000000000000000000000000000000000 000000000000000000000000000000000000000     00000000                                                                                                                        000000000000000000
F0010000006905600001000089011078600011050500000000000000000201503100002001DIST. NUEVO MUNDO S.A.S.                          D000000004300000000000000000000000100010010000000000000000000000F0010000006905600120150310000101 00000000000000000000000000000000000000000000000000000000000000000000000000000000000000000000000000000000000000000N 00000000000NCONT   00    00000000000          00000000000000000000000000000000000000000000 000000000000000A000000000000000000000000000000000000000000000 000000000000000000000000000000000000000     00000000                                                                                                                        000000000000000000
F0010000006905600002000089011078600041450500000000000000000201503100002001DIST. NUEVO MUNDO S.A.S.                          C000000003600000000000000000000000100010010000000000000000000000F0010000006905600220150310000101 00000000000000000000000000000000000000000000000000000000000000000000000000000000000000000000000000000000000000000N 00000000000NCONT   00    00000000000          00000000000000000000000000000000000000000000 000000000000000A000000000000000000000000000000000000000000000 000000000000000000000000000000000000000     00000000                                                                                                                        000000000000000000
F0010000006905600003000089011078600042505000000000000000000201503100002001DIST. NUEVO MUNDO S.A.S.                          C000000000700000000000000000000000100010010000000000000000000000F0010000006905600320150310000101 00000000000000000000000000000000000000000000000000000000000000000000000000000000000000000000000000000000000000000N 00000000000NCONT   00    00000000000          00000000000000000000000000000000000000000000 000000000000000A000000000000000000000000000000000000000000000 000000000000000000000000000000000000000     00000000                                                                                                                        000000000000000000
F0010000006905600004000089011078600023658300000000000000000201503100002001DIST. NUEVO MUNDO S.A.S.                          C000000000028800000000000000000000100010010000000000000000000000F0010000006905600420150310000101 00000000000000000000000000000000000000000000000000000000000000000000000000000000000000000000000000000000000000000N 00000000000NCONT   00    00000000000          00000000000000000000000000000000000000000000 000000000000000A000000000000000000000000000000000000000000000 000000000000000000000000000000000000000     00000000                                                                                                                        000000000000000000
F0010000006905600005000089011078600013552100000000000000000201503100002001DIST. NUEVO MUNDO S.A.S.                          D000000000028800000000000000000000100010010000000000000000000000F0010000006905600520150310000101 00000000000000000000000000000000000000000000000000000000000000000000000000000000000000000000000000000000000000000N 00000000000NCONT   00    00000000000          00000000000000000000000000000000000000000000 000000000000000A000000000000000000000000000000000000000000000 000000000000000000000000000000000000000     00000000                                                                                                                        000000000000000000
F0010000006905700001000000744496800011050500000000000000000201503100002001TOMAS SANCHEZ                                     D000000000900000000000000000000000100010010000000000000000000000F0010000006905700120150310000101 00000000000000000000000000000000000000000000000000000000000000000000000000000000000000000000000000000000000000000N 00000000000NCONT   00    00000000000          00000000000000000000000000000000000000000000 000000000000000A000000000000000000000000000000000000000000000 000000000000000000000000000000000000000     00000000                                                                                                                        000000000000000000
F0010000006905700002000000744496800041450500000000000000000201503100002001TOMAS SANCHEZ                                     C000000000850000000000000000000000100010010000000000000000000000F0010000006905700220150310000101 00000000000000000000000000000000000000000000000000000000000000000000000000000000000000000000000000000000000000000N 00000000000NCONT   00    00000000000          00000000000000000000000000000000000000000000 000000000000000A000000000000000000000000000000000000000000000 000000000000000000000000000000000000000     00000000                                                                                                                        000000000000000000
F0010000006905700003000000744496800042505000000000000000000201503100002001TOMAS SANCHEZ                                     C000000000050000000000000000000000100010010000000000000000000000F0010000006905700320150310000101 00000000000000000000000000000000000000000000000000000000000000000000000000000000000000000000000000000000000000000N 00000000000NCONT   00    00000000000          00000000000000000000000000000000000000000000 000000000000000A000000000000000000000000000000000000000000000 000000000000000000000000000000000000000     00000000                                                                                                                        000000000000000000
F0010000006905700004000000744496800023658300000000000000000201503100002001TOMAS SANCHEZ                                     C000000000006800000000000000000000100010010000000000000000000000F0010000006905700420150310000101 00000000000000000000000000000000000000000000000000000000000000000000000000000000000000000000000000000000000000000N 00000000000NCONT   00    00000000000          00000000000000000000000000000000000000000000 000000000000000A000000000000000000000000000000000000000000000 000000000000000000000000000000000000000     00000000                                                                                                                        000000000000000000
F0010000006905700005000000744496800013552100000000000000000201503100002001TOMAS SANCHEZ                                     D000000000006800000000000000000000100010010000000000000000000000F0010000006905700520150310000101 00000000000000000000000000000000000000000000000000000000000000000000000000000000000000000000000000000000000000000N 00000000000NCONT   00    00000000000          00000000000000000000000000000000000000000000 000000000000000A000000000000000000000000000000000000000000000 000000000000000000000000000000000000000     00000000                                                                                                                        000000000000000000
F0010000006905800001000006575910400011050500000000000000000201503100002001DIANA LISBETH PARRA COLLAZO                       D000000035000000000000000000000000100010010000000000000000000000F0010000006905800120150310000101 00000000000000000000000000000000000000000000000000000000000000000000000000000000000000000000000000000000000000000N 00000000000NCONT   00    00000000000          00000000000000000000000000000000000000000000 000000000000000A000000000000000000000000000000000000000000000 000000000000000000000000000000000000000     00000000                                                                                                                        000000000000000000
F0010000006905800002000006575910400041450500000000000000000201503100002001DIANA LISBETH PARRA COLLAZO                       C000000033000000000000000000000000100010010000000000000000000000F0010000006905800220150310000101 00000000000000000000000000000000000000000000000000000000000000000000000000000000000000000000000000000000000000000N 00000000000NCONT   00    00000000000          00000000000000000000000000000000000000000000 000000000000000A000000000000000000000000000000000000000000000 000000000000000000000000000000000000000     00000000                                                                                                                        000000000000000000
F0010000006905800003000006575910400042505000000000000000000201503100002001DIANA LISBETH PARRA COLLAZO                       C000000002000000000000000000000000100010010000000000000000000000F0010000006905800320150310000101 00000000000000000000000000000000000000000000000000000000000000000000000000000000000000000000000000000000000000000N 00000000000NCONT   00    00000000000          00000000000000000000000000000000000000000000 000000000000000A000000000000000000000000000000000000000000000 000000000000000000000000000000000000000     00000000                                                                                                                        000000000000000000
F0010000006905800004000006575910400023658300000000000000000201503100002001DIANA LISBETH PARRA COLLAZO                       C000000000264000000000000000000000100010010000000000000000000000F0010000006905800420150310000101 00000000000000000000000000000000000000000000000000000000000000000000000000000000000000000000000000000000000000000N 00000000000NCONT   00    00000000000          00000000000000000000000000000000000000000000 000000000000000A000000000000000000000000000000000000000000000 000000000000000000000000000000000000000     00000000                                                                                                                        000000000000000000
F0010000006905800005000006575910400013552100000000000000000201503100002001DIANA LISBETH PARRA COLLAZO                       D000000000264000000000000000000000100010010000000000000000000000F0010000006905800520150310000101 00000000000000000000000000000000000000000000000000000000000000000000000000000000000000000000000000000000000000000N 00000000000NCONT   00    00000000000          00000000000000000000000000000000000000000000 000000000000000A000000000000000000000000000000000000000000000 000000000000000000000000000000000000000     00000000                                                                                                                        000000000000000000
F0010000006905900001000001022529300011050500000000000000000201503100002001ALBERTO ALVAREZ ISAZA                             D000000000910000000000000000000000100010010000000000000000000000F0010000006905900120150310000101 00000000000000000000000000000000000000000000000000000000000000000000000000000000000000000000000000000000000000000N 00000000000NCONT   00    00000000000          00000000000000000000000000000000000000000000 000000000000000A000000000000000000000000000000000000000000000 000000000000000000000000000000000000000     00000000                                                                                                                        000000000000000000
F0010000006905900002000001022529300041450500000000000000000201503100002001ALBERTO ALVAREZ ISAZA                             C000000000860000000000000000000000100010010000000000000000000000F0010000006905900220150310000101 00000000000000000000000000000000000000000000000000000000000000000000000000000000000000000000000000000000000000000N 00000000000NCONT   00    00000000000          00000000000000000000000000000000000000000000 000000000000000A000000000000000000000000000000000000000000000 000000000000000000000000000000000000000     00000000                                                                                                                        000000000000000000
F0010000006905900003000001022529300042505000000000000000000201503100002001ALBERTO ALVAREZ ISAZA                             C000000000050000000000000000000000100010010000000000000000000000F0010000006905900320150310000101 00000000000000000000000000000000000000000000000000000000000000000000000000000000000000000000000000000000000000000N 00000000000NCONT   00    00000000000          00000000000000000000000000000000000000000000 000000000000000A000000000000000000000000000000000000000000000 000000000000000000000000000000000000000     00000000                                                                                                                        000000000000000000
F0010000006905900004000001022529300023658300000000000000000201503100002001ALBERTO ALVAREZ ISAZA                             C000000000006900000000000000000000100010010000000000000000000000F0010000006905900420150310000101 00000000000000000000000000000000000000000000000000000000000000000000000000000000000000000000000000000000000000000N 00000000000NCONT   00    00000000000          00000000000000000000000000000000000000000000 000000000000000A000000000000000000000000000000000000000000000 000000000000000000000000000000000000000     00000000                                                                                                                        000000000000000000
F0010000006905900005000001022529300013552100000000000000000201503100002001ALBERTO ALVAREZ ISAZA                             D000000000006900000000000000000000100010010000000000000000000000F0010000006905900520150310000101 00000000000000000000000000000000000000000000000000000000000000000000000000000000000000000000000000000000000000000N 00000000000NCONT   00    00000000000          00000000000000000000000000000000000000000000 000000000000000A000000000000000000000000000000000000000000000 000000000000000000000000000000000000000     00000000                                                                                                                        000000000000000000
F0010000006906000001000000431178400011050500000000000000000201503100002001EFRAIN ALVAREZ                                    D000000000430000000000000000000000100010010000000000000000000000F0010000006906000120150310000101 00000000000000000000000000000000000000000000000000000000000000000000000000000000000000000000000000000000000000000N 00000000000NCONT   00    00000000000          00000000000000000000000000000000000000000000 000000000000000A000000000000000000000000000000000000000000000 000000000000000000000000000000000000000     00000000                                                                                                                        000000000000000000
F0010000006906000002000000431178400041450500000000000000000201503100002001EFRAIN ALVAREZ                                    C000000000380000000000000000000000100010010000000000000000000000F0010000006906000220150310000101 00000000000000000000000000000000000000000000000000000000000000000000000000000000000000000000000000000000000000000N 00000000000NCONT   00    00000000000          00000000000000000000000000000000000000000000 000000000000000A000000000000000000000000000000000000000000000 000000000000000000000000000000000000000     00000000                                                                                                                        000000000000000000
F0010000006906000003000000431178400042505000000000000000000201503100002001EFRAIN ALVAREZ                                    C000000000050000000000000000000000100010010000000000000000000000F0010000006906000320150310000101 00000000000000000000000000000000000000000000000000000000000000000000000000000000000000000000000000000000000000000N 00000000000NCONT   00    00000000000          00000000000000000000000000000000000000000000 000000000000000A000000000000000000000000000000000000000000000 000000000000000000000000000000000000000     00000000                                                                                                                        000000000000000000
F0010000006906000004000000431178400023658300000000000000000201503100002001EFRAIN ALVAREZ                                    C000000000003000000000000000000000100010010000000000000000000000F0010000006906000420150310000101 00000000000000000000000000000000000000000000000000000000000000000000000000000000000000000000000000000000000000000N 00000000000NCONT   00    00000000000          00000000000000000000000000000000000000000000 000000000000000A000000000000000000000000000000000000000000000 000000000000000000000000000000000000000     00000000                                                                                                                        000000000000000000
F0010000006906000005000000431178400013552100000000000000000201503100002001EFRAIN ALVAREZ                                    D000000000003000000000000000000000100010010000000000000000000000F0010000006906000520150310000101 00000000000000000000000000000000000000000000000000000000000000000000000000000000000000000000000000000000000000000N 00000000000NCONT   00    00000000000          00000000000000000000000000000000000000000000 000000000000000A000000000000000000000000000000000000000000000 000000000000000000000000000000000000000     00000000                                                                                                                        000000000000000000
F0010000006906100001000001022529300011050500000000000000000201503100002001ALBERTO ALVAREZ ISAZA                             D000000000430000000000000000000000100010010000000000000000000000F0010000006906100120150310000101 00000000000000000000000000000000000000000000000000000000000000000000000000000000000000000000000000000000000000000N 00000000000NCONT   00    00000000000          00000000000000000000000000000000000000000000 000000000000000A000000000000000000000000000000000000000000000 000000000000000000000000000000000000000     00000000                                                                                                                        000000000000000000
F0010000006906100002000001022529300041450500000000000000000201503100002001ALBERTO ALVAREZ ISAZA                             C000000000380000000000000000000000100010010000000000000000000000F0010000006906100220150310000101 00000000000000000000000000000000000000000000000000000000000000000000000000000000000000000000000000000000000000000N 00000000000NCONT   00    00000000000          00000000000000000000000000000000000000000000 000000000000000A000000000000000000000000000000000000000000000 000000000000000000000000000000000000000     00000000                                                                                                                        000000000000000000
F0010000006906100003000001022529300042505000000000000000000201503100002001ALBERTO ALVAREZ ISAZA                             C000000000050000000000000000000000100010010000000000000000000000F0010000006906100320150310000101 00000000000000000000000000000000000000000000000000000000000000000000000000000000000000000000000000000000000000000N 00000000000NCONT   00    00000000000          00000000000000000000000000000000000000000000 000000000000000A000000000000000000000000000000000000000000000 000000000000000000000000000000000000000     00000000                                                                                                                        000000000000000000
F0010000006906100004000001022529300023658300000000000000000201503100002001ALBERTO ALVAREZ ISAZA                             C000000000003000000000000000000000100010010000000000000000000000F0010000006906100420150310000101 00000000000000000000000000000000000000000000000000000000000000000000000000000000000000000000000000000000000000000N 00000000000NCONT   00    00000000000          00000000000000000000000000000000000000000000 000000000000000A000000000000000000000000000000000000000000000 000000000000000000000000000000000000000     00000000                                                                                                                        000000000000000000
F0010000006906100005000001022529300013552100000000000000000201503100002001ALBERTO ALVAREZ ISAZA                             D000000000003000000000000000000000100010010000000000000000000000F0010000006906100520150310000101 00000000000000000000000000000000000000000000000000000000000000000000000000000000000000000000000000000000000000000N 00000000000NCONT   00    00000000000          00000000000000000000000000000000000000000000 000000000000000A000000000000000000000000000000000000000000000 000000000000000000000000000000000000000     00000000                                                                                                                        000000000000000000
F0010000006906200001000001022529300011050500000000000000000201503100002001ALBERTO ALVAREZ ISAZA                             D000000000430000000000000000000000100010010000000000000000000000F0010000006906200120150310000101 00000000000000000000000000000000000000000000000000000000000000000000000000000000000000000000000000000000000000000N 00000000000NCONT   00    00000000000          00000000000000000000000000000000000000000000 000000000000000A000000000000000000000000000000000000000000000 000000000000000000000000000000000000000     00000000                                                                                                                        000000000000000000
F0010000006906200002000001022529300041450500000000000000000201503100002001ALBERTO ALVAREZ ISAZA                             C000000000380000000000000000000000100010010000000000000000000000F0010000006906200220150310000101 00000000000000000000000000000000000000000000000000000000000000000000000000000000000000000000000000000000000000000N 00000000000NCONT   00    00000000000          00000000000000000000000000000000000000000000 000000000000000A000000000000000000000000000000000000000000000 000000000000000000000000000000000000000     00000000                                                                                                                        000000000000000000
F0010000006906200003000001022529300042505000000000000000000201503100002001ALBERTO ALVAREZ ISAZA                             C000000000050000000000000000000000100010010000000000000000000000F0010000006906200320150310000101 00000000000000000000000000000000000000000000000000000000000000000000000000000000000000000000000000000000000000000N 00000000000NCONT   00    00000000000          00000000000000000000000000000000000000000000 000000000000000A000000000000000000000000000000000000000000000 000000000000000000000000000000000000000     00000000                                                                                                                        000000000000000000
F0010000006906200004000001022529300023658300000000000000000201503100002001ALBERTO ALVAREZ ISAZA                             C000000000003000000000000000000000100010010000000000000000000000F0010000006906200420150310000101 00000000000000000000000000000000000000000000000000000000000000000000000000000000000000000000000000000000000000000N 00000000000NCONT   00    00000000000          00000000000000000000000000000000000000000000 000000000000000A000000000000000000000000000000000000000000000 000000000000000000000000000000000000000     00000000                                                                                                                        000000000000000000
F0010000006906200005000001022529300013552100000000000000000201503100002001ALBERTO ALVAREZ ISAZA                             D000000000003000000000000000000000100010010000000000000000000000F0010000006906200520150310000101 00000000000000000000000000000000000000000000000000000000000000000000000000000000000000000000000000000000000000000N 00000000000NCONT   00    00000000000          00000000000000000000000000000000000000000000 000000000000000A000000000000000000000000000000000000000000000 000000000000000000000000000000000000000     00000000                                                                                                                        000000000000000000
F0010000006906300001000001022529300011050500000000000000000201503100002001ALBERTO ALVAREZ ISAZA                             D000000002430000000000000000000000100010010000000000000000000000F0010000006906300120150310000101 00000000000000000000000000000000000000000000000000000000000000000000000000000000000000000000000000000000000000000N 00000000000NCONT   00    00000000000          00000000000000000000000000000000000000000000 000000000000000A000000000000000000000000000000000000000000000 000000000000000000000000000000000000000     00000000                                                                                                                        000000000000000000
F0010000006906300002000001022529300041450500000000000000000201503100002001ALBERTO ALVAREZ ISAZA                             C000000002380000000000000000000000100010010000000000000000000000F0010000006906300220150310000101 00000000000000000000000000000000000000000000000000000000000000000000000000000000000000000000000000000000000000000N 00000000000NCONT   00    00000000000          00000000000000000000000000000000000000000000 000000000000000A000000000000000000000000000000000000000000000 000000000000000000000000000000000000000     00000000                                                                                                                        000000000000000000
F0010000006906300003000001022529300042505000000000000000000201503100002001ALBERTO ALVAREZ ISAZA                             C000000000050000000000000000000000100010010000000000000000000000F0010000006906300320150310000101 00000000000000000000000000000000000000000000000000000000000000000000000000000000000000000000000000000000000000000N 00000000000NCONT   00    00000000000          00000000000000000000000000000000000000000000 000000000000000A000000000000000000000000000000000000000000000 000000000000000000000000000000000000000     00000000                                                                                                                        000000000000000000
F0010000006906300004000001022529300023658300000000000000000201503100002001ALBERTO ALVAREZ ISAZA                             C000000000019000000000000000000000100010010000000000000000000000F0010000006906300420150310000101 00000000000000000000000000000000000000000000000000000000000000000000000000000000000000000000000000000000000000000N 00000000000NCONT   00    00000000000          00000000000000000000000000000000000000000000 000000000000000A000000000000000000000000000000000000000000000 000000000000000000000000000000000000000     00000000                                                                                                                        000000000000000000
F0010000006906300005000001022529300013552100000000000000000201503100002001ALBERTO ALVAREZ ISAZA                             D000000000019000000000000000000000100010010000000000000000000000F0010000006906300520150310000101 00000000000000000000000000000000000000000000000000000000000000000000000000000000000000000000000000000000000000000N 00000000000NCONT   00    00000000000          00000000000000000000000000000000000000000000 000000000000000A000000000000000000000000000000000000000000000 000000000000000000000000000000000000000     00000000                                                                                                                        000000000000000000
F0010000006906400001000004175790100011050500000000000000000201503100002001ROSIRIS FERIA HOYOS  (COSM. SHILLER)              D000000001100000000000000000000000100010010000000000000000000000F0010000006906400120150310000101 00000000000000000000000000000000000000000000000000000000000000000000000000000000000000000000000000000000000000000N 00000000000NCONT   00    00000000000          00000000000000000000000000000000000000000000 000000000000000A000000000000000000000000000000000000000000000 000000000000000000000000000000000000000     00000000                                                                                                                        000000000000000000
F0010000006906400002000004175790100041450500000000000000000201503100002001ROSIRIS FERIA HOYOS  (COSM. SHILLER)              C000000001000000000000000000000000100010010000000000000000000000F0010000006906400220150310000101 00000000000000000000000000000000000000000000000000000000000000000000000000000000000000000000000000000000000000000N 00000000000NCONT   00    00000000000          00000000000000000000000000000000000000000000 000000000000000A000000000000000000000000000000000000000000000 000000000000000000000000000000000000000     00000000                                                                                                                        000000000000000000
F0010000006906400003000004175790100042505000000000000000000201503100002001ROSIRIS FERIA HOYOS  (COSM. SHILLER)              C000000000100000000000000000000000100010010000000000000000000000F0010000006906400320150310000101 00000000000000000000000000000000000000000000000000000000000000000000000000000000000000000000000000000000000000000N 00000000000NCONT   00    00000000000          00000000000000000000000000000000000000000000 000000000000000A000000000000000000000000000000000000000000000 000000000000000000000000000000000000000     00000000                                                                                                                        000000000000000000
F0010000006906400004000004175790100023658300000000000000000201503100002001ROSIRIS FERIA HOYOS  (COSM. SHILLER)              C000000000008000000000000000000000100010010000000000000000000000F0010000006906400420150310000101 00000000000000000000000000000000000000000000000000000000000000000000000000000000000000000000000000000000000000000N 00000000000NCONT   00    00000000000          00000000000000000000000000000000000000000000 000000000000000A000000000000000000000000000000000000000000000 000000000000000000000000000000000000000     00000000                                                                                                                        000000000000000000
F0010000006906400005000004175790100013552100000000000000000201503100002001ROSIRIS FERIA HOYOS  (COSM. SHILLER)              D000000000008000000000000000000000100010010000000000000000000000F0010000006906400520150310000101 00000000000000000000000000000000000000000000000000000000000000000000000000000000000000000000000000000000000000000N 00000000000NCONT   00    00000000000          00000000000000000000000000000000000000000000 000000000000000A000000000000000000000000000000000000000000000 000000000000000000000000000000000000000     00000000                                                                                                                        000000000000000000
F0010000006906500001000086000196500011050500000000000000000201503100002001LAFAGETTE BARRANQUILLA                            D000000028000000000000000000000000100010010000000000000000000000F0010000006906500120150310000101 00000000000000000000000000000000000000000000000000000000000000000000000000000000000000000000000000000000000000000N 00000000000NCONT   00    00000000000          00000000000000000000000000000000000000000000 000000000000000A000000000000000000000000000000000000000000000 000000000000000000000000000000000000000     00000000                                                                                                                        000000000000000000
F0010000006906500002000086000196500041450500000000000000000201503100002001LAFAGETTE BARRANQUILLA                            C000000027000000000000000000000000100010010000000000000000000000F0010000006906500220150310000101 00000000000000000000000000000000000000000000000000000000000000000000000000000000000000000000000000000000000000000N 00000000000NCONT   00    00000000000          00000000000000000000000000000000000000000000 000000000000000A000000000000000000000000000000000000000000000 000000000000000000000000000000000000000     00000000                                                                                                                        000000000000000000
