F0010000006138400001000083050133900011050500000000000000000201408120002001VALTAC DEL CARIBE LTDA                            D000000030000000000000000000000000100010010000000000000000000000F0010000006138400120140812000101 00000000000000000000000000000000000000000000000000000000000000000000000000000000000000000000000000000000000000000N 00000000000NCONT   00    00000000000          00000000000000000000000000000000000000000000 000000000000000A000000000000000000000000000000000000000000000 000000000000000000000000000000000000000     00000000                                                                                                                        000000000000000000
F0010000006138400002000083050133900041450500000000000000000201408120002001VALTAC DEL CARIBE LTDA                            C000000029000000000000000000000000100010010000000000000000000000F0010000006138400220140812000101 00000000000000000000000000000000000000000000000000000000000000000000000000000000000000000000000000000000000000000N 00000000000NCONT   00    00000000000          00000000000000000000000000000000000000000000 000000000000000A000000000000000000000000000000000000000000000 000000000000000000000000000000000000000     00000000                                                                                                                        000000000000000000
F0010000006138400003000083050133900042505000000000000000000201408120002001VALTAC DEL CARIBE LTDA                            C000000001000000000000000000000000100010010000000000000000000000F0010000006138400320140812000101 00000000000000000000000000000000000000000000000000000000000000000000000000000000000000000000000000000000000000000N 00000000000NCONT   00    00000000000          00000000000000000000000000000000000000000000 000000000000000A000000000000000000000000000000000000000000000 000000000000000000000000000000000000000     00000000                                                                                                                        000000000000000000
F0010000006138400004000083050133900023658300000000000000000201408120002001VALTAC DEL CARIBE LTDA                            C000000000232000000000000000000000100010010000000000000000000000F0010000006138400420140812000101 00000000000000000000000000000000000000000000000000000000000000000000000000000000000000000000000000000000000000000N 00000000000NCONT   00    00000000000          00000000000000000000000000000000000000000000 000000000000000A000000000000000000000000000000000000000000000 000000000000000000000000000000000000000     00000000                                                                                                                        000000000000000000
F0010000006138400005000083050133900013552100000000000000000201408120002001VALTAC DEL CARIBE LTDA                            D000000000232000000000000000000000100010010000000000000000000000F0010000006138400520140812000101 00000000000000000000000000000000000000000000000000000000000000000000000000000000000000000000000000000000000000000N 00000000000NCONT   00    00000000000          00000000000000000000000000000000000000000000 000000000000000A000000000000000000000000000000000000000000000 000000000000000000000000000000000000000     00000000                                                                                                                        000000000000000000
F0010000006138500001000005093087300011050500000000000000000201408120002001GISELA PATRICIA DIAZ CUELLO                       D000000002700000000000000000000000100010010000000000000000000000F0010000006138500120140812000101 00000000000000000000000000000000000000000000000000000000000000000000000000000000000000000000000000000000000000000N 00000000000NCONT   00    00000000000          00000000000000000000000000000000000000000000 000000000000000A000000000000000000000000000000000000000000000 000000000000000000000000000000000000000     00000000                                                                                                                        000000000000000000
F0010000006138500002000005093087300041450500000000000000000201408120002001GISELA PATRICIA DIAZ CUELLO                       C000000002500000000000000000000000100010010000000000000000000000F0010000006138500220140812000101 00000000000000000000000000000000000000000000000000000000000000000000000000000000000000000000000000000000000000000N 00000000000NCONT   00    00000000000          00000000000000000000000000000000000000000000 000000000000000A000000000000000000000000000000000000000000000 000000000000000000000000000000000000000     00000000                                                                                                                        000000000000000000
F0010000006138500003000005093087300042505000000000000000000201408120002001GISELA PATRICIA DIAZ CUELLO                       C000000000200000000000000000000000100010010000000000000000000000F0010000006138500320140812000101 00000000000000000000000000000000000000000000000000000000000000000000000000000000000000000000000000000000000000000N 00000000000NCONT   00    00000000000          00000000000000000000000000000000000000000000 000000000000000A000000000000000000000000000000000000000000000 000000000000000000000000000000000000000     00000000                                                                                                                        000000000000000000
F0010000006138500004000005093087300023658300000000000000000201408120002001GISELA PATRICIA DIAZ CUELLO                       C000000000020000000000000000000000100010010000000000000000000000F0010000006138500420140812000101 00000000000000000000000000000000000000000000000000000000000000000000000000000000000000000000000000000000000000000N 00000000000NCONT   00    00000000000          00000000000000000000000000000000000000000000 000000000000000A000000000000000000000000000000000000000000000 000000000000000000000000000000000000000     00000000                                                                                                                        000000000000000000
F0010000006138500005000005093087300013552100000000000000000201408120002001GISELA PATRICIA DIAZ CUELLO                       D000000000020000000000000000000000100010010000000000000000000000F0010000006138500520140812000101 00000000000000000000000000000000000000000000000000000000000000000000000000000000000000000000000000000000000000000N 00000000000NCONT   00    00000000000          00000000000000000000000000000000000000000000 000000000000000A000000000000000000000000000000000000000000000 000000000000000000000000000000000000000     00000000                                                                                                                        000000000000000000
F0010000006138600001000090034602400011050500000000000000000201408120002001LA CUSTODIA                                       D000000001000000000000000000000000100010010000000000000000000000F0010000006138600120140812000101 00000000000000000000000000000000000000000000000000000000000000000000000000000000000000000000000000000000000000000N 00000000000NCONT   00    00000000000          00000000000000000000000000000000000000000000 000000000000000A000000000000000000000000000000000000000000000 000000000000000000000000000000000000000     00000000                                                                                                                        000000000000000000
F0010000006138600002000090034602400041450500000000000000000201408120002001LA CUSTODIA                                       C000000000900000000000000000000000100010010000000000000000000000F0010000006138600220140812000101 00000000000000000000000000000000000000000000000000000000000000000000000000000000000000000000000000000000000000000N 00000000000NCONT   00    00000000000          00000000000000000000000000000000000000000000 000000000000000A000000000000000000000000000000000000000000000 000000000000000000000000000000000000000     00000000                                                                                                                        000000000000000000
F0010000006138600003000090034602400042505000000000000000000201408120002001LA CUSTODIA                                       C000000000100000000000000000000000100010010000000000000000000000F0010000006138600320140812000101 00000000000000000000000000000000000000000000000000000000000000000000000000000000000000000000000000000000000000000N 00000000000NCONT   00    00000000000          00000000000000000000000000000000000000000000 000000000000000A000000000000000000000000000000000000000000000 000000000000000000000000000000000000000     00000000                                                                                                                        000000000000000000
F0010000006138600004000090034602400023658300000000000000000201408120002001LA CUSTODIA                                       C000000000007200000000000000000000100010010000000000000000000000F0010000006138600420140812000101 00000000000000000000000000000000000000000000000000000000000000000000000000000000000000000000000000000000000000000N 00000000000NCONT   00    00000000000          00000000000000000000000000000000000000000000 000000000000000A000000000000000000000000000000000000000000000 000000000000000000000000000000000000000     00000000                                                                                                                        000000000000000000
F0010000006138600005000090034602400013552100000000000000000201408120002001LA CUSTODIA                                       D000000000007200000000000000000000100010010000000000000000000000F0010000006138600520140812000101 00000000000000000000000000000000000000000000000000000000000000000000000000000000000000000000000000000000000000000N 00000000000NCONT   00    00000000000          00000000000000000000000000000000000000000000 000000000000000A000000000000000000000000000000000000000000000 000000000000000000000000000000000000000     00000000                                                                                                                        000000000000000000
F0010000006138700001000005525050200011050500000000000000000201408120002001PLASTICOS  DE LA COSTA                            D000000002080000000000000000000000100010010000000000000000000000F0010000006138700120140812000101 00000000000000000000000000000000000000000000000000000000000000000000000000000000000000000000000000000000000000000N 00000000000NCONT   00    00000000000          00000000000000000000000000000000000000000000 000000000000000A000000000000000000000000000000000000000000000 000000000000000000000000000000000000000     00000000                                                                                                                        000000000000000000
F0010000006138700002000005525050200041450500000000000000000201408120002001PLASTICOS  DE LA COSTA                            C000000001980000000000000000000000100010010000000000000000000000F0010000006138700220140812000101 00000000000000000000000000000000000000000000000000000000000000000000000000000000000000000000000000000000000000000N 00000000000NCONT   00    00000000000          00000000000000000000000000000000000000000000 000000000000000A000000000000000000000000000000000000000000000 000000000000000000000000000000000000000     00000000                                                                                                                        000000000000000000
F0010000006138700003000005525050200042505000000000000000000201408120002001PLASTICOS  DE LA COSTA                            C000000000100000000000000000000000100010010000000000000000000000F0010000006138700320140812000101 00000000000000000000000000000000000000000000000000000000000000000000000000000000000000000000000000000000000000000N 00000000000NCONT   00    00000000000          00000000000000000000000000000000000000000000 000000000000000A000000000000000000000000000000000000000000000 000000000000000000000000000000000000000     00000000                                                                                                                        000000000000000000
F0010000006138700004000005525050200023658300000000000000000201408120002001PLASTICOS  DE LA COSTA                            C000000000015800000000000000000000100010010000000000000000000000F0010000006138700420140812000101 00000000000000000000000000000000000000000000000000000000000000000000000000000000000000000000000000000000000000000N 00000000000NCONT   00    00000000000          00000000000000000000000000000000000000000000 000000000000000A000000000000000000000000000000000000000000000 000000000000000000000000000000000000000     00000000                                                                                                                        000000000000000000
F0010000006138700005000005525050200013552100000000000000000201408120002001PLASTICOS  DE LA COSTA                            D000000000015800000000000000000000100010010000000000000000000000F0010000006138700520140812000101 00000000000000000000000000000000000000000000000000000000000000000000000000000000000000000000000000000000000000000N 00000000000NCONT   00    00000000000          00000000000000000000000000000000000000000000 000000000000000A000000000000000000000000000000000000000000000 000000000000000000000000000000000000000     00000000                                                                                                                        000000000000000000
F0010000006138800001000005525050200011050500000000000000000201408120002001PLASTICOS  DE LA COSTA                            D000000002740000000000000000000000100010010000000000000000000000F0010000006138800120140812000101 00000000000000000000000000000000000000000000000000000000000000000000000000000000000000000000000000000000000000000N 00000000000NCONT   00    00000000000          00000000000000000000000000000000000000000000 000000000000000A000000000000000000000000000000000000000000000 000000000000000000000000000000000000000     00000000                                                                                                                        000000000000000000
F0010000006138800002000005525050200041450500000000000000000201408120002001PLASTICOS  DE LA COSTA                            C000000002640000000000000000000000100010010000000000000000000000F0010000006138800220140812000101 00000000000000000000000000000000000000000000000000000000000000000000000000000000000000000000000000000000000000000N 00000000000NCONT   00    00000000000          00000000000000000000000000000000000000000000 000000000000000A000000000000000000000000000000000000000000000 000000000000000000000000000000000000000     00000000                                                                                                                        000000000000000000
F0010000006138800003000005525050200042505000000000000000000201408120002001PLASTICOS  DE LA COSTA                            C000000000100000000000000000000000100010010000000000000000000000F0010000006138800320140812000101 00000000000000000000000000000000000000000000000000000000000000000000000000000000000000000000000000000000000000000N 00000000000NCONT   00    00000000000          00000000000000000000000000000000000000000000 000000000000000A000000000000000000000000000000000000000000000 000000000000000000000000000000000000000     00000000                                                                                                                        000000000000000000
F0010000006138800004000005525050200023658300000000000000000201408120002001PLASTICOS  DE LA COSTA                            C000000000021100000000000000000000100010010000000000000000000000F0010000006138800420140812000101 00000000000000000000000000000000000000000000000000000000000000000000000000000000000000000000000000000000000000000N 00000000000NCONT   00    00000000000          00000000000000000000000000000000000000000000 000000000000000A000000000000000000000000000000000000000000000 000000000000000000000000000000000000000     00000000                                                                                                                        000000000000000000
F0010000006138800005000005525050200013552100000000000000000201408120002001PLASTICOS  DE LA COSTA                            D000000000021100000000000000000000100010010000000000000000000000F0010000006138800520140812000101 00000000000000000000000000000000000000000000000000000000000000000000000000000000000000000000000000000000000000000N 00000000000NCONT   00    00000000000          00000000000000000000000000000000000000000000 000000000000000A000000000000000000000000000000000000000000000 000000000000000000000000000000000000000     00000000                                                                                                                        000000000000000000
F0010000006138900001000000871693500011050500000000000000000201408120002001FERNANDO ORTIZ                                    D000000002500000000000000000000000100010010000000000000000000000F0010000006138900120140812000101 00000000000000000000000000000000000000000000000000000000000000000000000000000000000000000000000000000000000000000N 00000000000NCONT   00    00000000000          00000000000000000000000000000000000000000000 000000000000000A000000000000000000000000000000000000000000000 000000000000000000000000000000000000000     00000000                                                                                                                        000000000000000000
F0010000006138900002000000871693500041450500000000000000000201408120002001FERNANDO ORTIZ                                    C000000002400000000000000000000000100010010000000000000000000000F0010000006138900220140812000101 00000000000000000000000000000000000000000000000000000000000000000000000000000000000000000000000000000000000000000N 00000000000NCONT   00    00000000000          00000000000000000000000000000000000000000000 000000000000000A000000000000000000000000000000000000000000000 000000000000000000000000000000000000000     00000000                                                                                                                        000000000000000000
F0010000006138900003000000871693500042505000000000000000000201408120002001FERNANDO ORTIZ                                    C000000000100000000000000000000000100010010000000000000000000000F0010000006138900320140812000101 00000000000000000000000000000000000000000000000000000000000000000000000000000000000000000000000000000000000000000N 00000000000NCONT   00    00000000000          00000000000000000000000000000000000000000000 000000000000000A000000000000000000000000000000000000000000000 000000000000000000000000000000000000000     00000000                                                                                                                        000000000000000000
F0010000006138900004000000871693500023658300000000000000000201408120002001FERNANDO ORTIZ                                    C000000000019200000000000000000000100010010000000000000000000000F0010000006138900420140812000101 00000000000000000000000000000000000000000000000000000000000000000000000000000000000000000000000000000000000000000N 00000000000NCONT   00    00000000000          00000000000000000000000000000000000000000000 000000000000000A000000000000000000000000000000000000000000000 000000000000000000000000000000000000000     00000000                                                                                                                        000000000000000000
F0010000006138900005000000871693500013552100000000000000000201408120002001FERNANDO ORTIZ                                    D000000000019200000000000000000000100010010000000000000000000000F0010000006138900520140812000101 00000000000000000000000000000000000000000000000000000000000000000000000000000000000000000000000000000000000000000N 00000000000NCONT   00    00000000000          00000000000000000000000000000000000000000000 000000000000000A000000000000000000000000000000000000000000000 000000000000000000000000000000000000000     00000000                                                                                                                        000000000000000000
F0010000006139000001000090050144800011050500000000000000000201408120002001PLASTICOS JR ASOCIADOS SAS                        D000000005800000000000000000000000100010010000000000000000000000F0010000006139000120140812000101 00000000000000000000000000000000000000000000000000000000000000000000000000000000000000000000000000000000000000000N 00000000000NCONT   00    00000000000          00000000000000000000000000000000000000000000 000000000000000A000000000000000000000000000000000000000000000 000000000000000000000000000000000000000     00000000                                                                                                                        000000000000000000
F0010000006139000002000090050144800041450500000000000000000201408120002001PLASTICOS JR ASOCIADOS SAS                        C000000005100000000000000000000000100010010000000000000000000000F0010000006139000220140812000101 00000000000000000000000000000000000000000000000000000000000000000000000000000000000000000000000000000000000000000N 00000000000NCONT   00    00000000000          00000000000000000000000000000000000000000000 000000000000000A000000000000000000000000000000000000000000000 000000000000000000000000000000000000000     00000000                                                                                                                        000000000000000000
F0010000006139000003000090050144800042505000000000000000000201408120002001PLASTICOS JR ASOCIADOS SAS                        C000000000700000000000000000000000100010010000000000000000000000F0010000006139000320140812000101 00000000000000000000000000000000000000000000000000000000000000000000000000000000000000000000000000000000000000000N 00000000000NCONT   00    00000000000          00000000000000000000000000000000000000000000 000000000000000A000000000000000000000000000000000000000000000 000000000000000000000000000000000000000     00000000                                                                                                                        000000000000000000
F0010000006139000004000090050144800023658300000000000000000201408120002001PLASTICOS JR ASOCIADOS SAS                        C000000000040800000000000000000000100010010000000000000000000000F0010000006139000420140812000101 00000000000000000000000000000000000000000000000000000000000000000000000000000000000000000000000000000000000000000N 00000000000NCONT   00    00000000000          00000000000000000000000000000000000000000000 000000000000000A000000000000000000000000000000000000000000000 000000000000000000000000000000000000000     00000000                                                                                                                        000000000000000000
F0010000006139000005000090050144800013552100000000000000000201408120002001PLASTICOS JR ASOCIADOS SAS                        D000000000040800000000000000000000100010010000000000000000000000F0010000006139000520140812000101 00000000000000000000000000000000000000000000000000000000000000000000000000000000000000000000000000000000000000000N 00000000000NCONT   00    00000000000          00000000000000000000000000000000000000000000 000000000000000A000000000000000000000000000000000000000000000 000000000000000000000000000000000000000     00000000                                                                                                                        000000000000000000
F0010000006139100001000000431178400011050500000000000000000201408120002001EFRAIN ALVAREZ                                    D000000003600000000000000000000000100010010000000000000000000000F0010000006139100120140812000101 00000000000000000000000000000000000000000000000000000000000000000000000000000000000000000000000000000000000000000N 00000000000NCONT   00    00000000000          00000000000000000000000000000000000000000000 000000000000000A000000000000000000000000000000000000000000000 000000000000000000000000000000000000000     00000000                                                                                                                        000000000000000000
F0010000006139100002000000431178400041450500000000000000000201408120002001EFRAIN ALVAREZ                                    C000000003400000000000000000000000100010010000000000000000000000F0010000006139100220140812000101 00000000000000000000000000000000000000000000000000000000000000000000000000000000000000000000000000000000000000000N 00000000000NCONT   00    00000000000          00000000000000000000000000000000000000000000 000000000000000A000000000000000000000000000000000000000000000 000000000000000000000000000000000000000     00000000                                                                                                                        000000000000000000
F0010000006139100003000000431178400042505000000000000000000201408120002001EFRAIN ALVAREZ                                    C000000000200000000000000000000000100010010000000000000000000000F0010000006139100320140812000101 00000000000000000000000000000000000000000000000000000000000000000000000000000000000000000000000000000000000000000N 00000000000NCONT   00    00000000000          00000000000000000000000000000000000000000000 000000000000000A000000000000000000000000000000000000000000000 000000000000000000000000000000000000000     00000000                                                                                                                        000000000000000000
F0010000006139100004000000431178400023658300000000000000000201408120002001EFRAIN ALVAREZ                                    C000000000027200000000000000000000100010010000000000000000000000F0010000006139100420140812000101 00000000000000000000000000000000000000000000000000000000000000000000000000000000000000000000000000000000000000000N 00000000000NCONT   00    00000000000          00000000000000000000000000000000000000000000 000000000000000A000000000000000000000000000000000000000000000 000000000000000000000000000000000000000     00000000                                                                                                                        000000000000000000
F0010000006139100005000000431178400013552100000000000000000201408120002001EFRAIN ALVAREZ                                    D000000000027200000000000000000000100010010000000000000000000000F0010000006139100520140812000101 00000000000000000000000000000000000000000000000000000000000000000000000000000000000000000000000000000000000000000N 00000000000NCONT   00    00000000000          00000000000000000000000000000000000000000000 000000000000000A000000000000000000000000000000000000000000000 000000000000000000000000000000000000000     00000000                                                                                                                        000000000000000000
F0010000006139200001000000431178400011050500000000000000000201408120002001EFRAIN ALVAREZ                                    D000000000900000000000000000000000100010010000000000000000000000F0010000006139200120140812000101 00000000000000000000000000000000000000000000000000000000000000000000000000000000000000000000000000000000000000000N 00000000000NCONT   00    00000000000          00000000000000000000000000000000000000000000 000000000000000A000000000000000000000000000000000000000000000 000000000000000000000000000000000000000     00000000                                                                                                                        000000000000000000
F0010000006139200002000000431178400041450500000000000000000201408120002001EFRAIN ALVAREZ                                    C000000000850000000000000000000000100010010000000000000000000000F0010000006139200220140812000101 00000000000000000000000000000000000000000000000000000000000000000000000000000000000000000000000000000000000000000N 00000000000NCONT   00    00000000000          00000000000000000000000000000000000000000000 000000000000000A000000000000000000000000000000000000000000000 000000000000000000000000000000000000000     00000000                                                                                                                        000000000000000000
F0010000006139200003000000431178400042505000000000000000000201408120002001EFRAIN ALVAREZ                                    C000000000050000000000000000000000100010010000000000000000000000F0010000006139200320140812000101 00000000000000000000000000000000000000000000000000000000000000000000000000000000000000000000000000000000000000000N 00000000000NCONT   00    00000000000          00000000000000000000000000000000000000000000 000000000000000A000000000000000000000000000000000000000000000 000000000000000000000000000000000000000     00000000                                                                                                                        000000000000000000
F0010000006139200004000000431178400023658300000000000000000201408120002001EFRAIN ALVAREZ                                    C000000000006800000000000000000000100010010000000000000000000000F0010000006139200420140812000101 00000000000000000000000000000000000000000000000000000000000000000000000000000000000000000000000000000000000000000N 00000000000NCONT   00    00000000000          00000000000000000000000000000000000000000000 000000000000000A000000000000000000000000000000000000000000000 000000000000000000000000000000000000000     00000000                                                                                                                        000000000000000000
F0010000006139200005000000431178400013552100000000000000000201408120002001EFRAIN ALVAREZ                                    D000000000006800000000000000000000100010010000000000000000000000F0010000006139200520140812000101 00000000000000000000000000000000000000000000000000000000000000000000000000000000000000000000000000000000000000000N 00000000000NCONT   00    00000000000          00000000000000000000000000000000000000000000 000000000000000A000000000000000000000000000000000000000000000 000000000000000000000000000000000000000     00000000                                                                                                                        000000000000000000
F0010000006139300001000090050144800011050500000000000000000201408120002001PLASTICOS JR ASOCIADOS SAS                        D000000003900000000000000000000000100010010000000000000000000000F0010000006139300120140812000101 00000000000000000000000000000000000000000000000000000000000000000000000000000000000000000000000000000000000000000N 00000000000NCONT   00    00000000000          00000000000000000000000000000000000000000000 000000000000000A000000000000000000000000000000000000000000000 000000000000000000000000000000000000000     00000000                                                                                                                        000000000000000000
F0010000006139300002000090050144800041450500000000000000000201408120002001PLASTICOS JR ASOCIADOS SAS                        C000000003400000000000000000000000100010010000000000000000000000F0010000006139300220140812000101 00000000000000000000000000000000000000000000000000000000000000000000000000000000000000000000000000000000000000000N 00000000000NCONT   00    00000000000          00000000000000000000000000000000000000000000 000000000000000A000000000000000000000000000000000000000000000 000000000000000000000000000000000000000     00000000                                                                                                                        000000000000000000
F0010000006139300003000090050144800042505000000000000000000201408120002001PLASTICOS JR ASOCIADOS SAS                        C000000000500000000000000000000000100010010000000000000000000000F0010000006139300320140812000101 00000000000000000000000000000000000000000000000000000000000000000000000000000000000000000000000000000000000000000N 00000000000NCONT   00    00000000000          00000000000000000000000000000000000000000000 000000000000000A000000000000000000000000000000000000000000000 000000000000000000000000000000000000000     00000000                                                                                                                        000000000000000000
F0010000006139300004000090050144800023658300000000000000000201408120002001PLASTICOS JR ASOCIADOS SAS                        C000000000027200000000000000000000100010010000000000000000000000F0010000006139300420140812000101 00000000000000000000000000000000000000000000000000000000000000000000000000000000000000000000000000000000000000000N 00000000000NCONT   00    00000000000          00000000000000000000000000000000000000000000 000000000000000A000000000000000000000000000000000000000000000 000000000000000000000000000000000000000     00000000                                                                                                                        000000000000000000
F0010000006139300005000090050144800013552100000000000000000201408120002001PLASTICOS JR ASOCIADOS SAS                        D000000000027200000000000000000000100010010000000000000000000000F0010000006139300520140812000101 00000000000000000000000000000000000000000000000000000000000000000000000000000000000000000000000000000000000000000N 00000000000NCONT   00    00000000000          00000000000000000000000000000000000000000000 000000000000000A000000000000000000000000000000000000000000000 000000000000000000000000000000000000000     00000000                                                                                                                        000000000000000000
F0010000006139400001000001022529300011050500000000000000000201408120002001ALBERTO ALVAREZ ISAZA                             D000000000400000000000000000000000100010010000000000000000000000F0010000006139400120140812000101 00000000000000000000000000000000000000000000000000000000000000000000000000000000000000000000000000000000000000000N 00000000000NCONT   00    00000000000          00000000000000000000000000000000000000000000 000000000000000A000000000000000000000000000000000000000000000 000000000000000000000000000000000000000     00000000                                                                                                                        000000000000000000
F0010000006139400002000001022529300041450500000000000000000201408120002001ALBERTO ALVAREZ ISAZA                             C000000000350000000000000000000000100010010000000000000000000000F0010000006139400220140812000101 00000000000000000000000000000000000000000000000000000000000000000000000000000000000000000000000000000000000000000N 00000000000NCONT   00    00000000000          00000000000000000000000000000000000000000000 000000000000000A000000000000000000000000000000000000000000000 000000000000000000000000000000000000000     00000000                                                                                                                        000000000000000000
F0010000006139400003000001022529300042505000000000000000000201408120002001ALBERTO ALVAREZ ISAZA                             C000000000050000000000000000000000100010010000000000000000000000F0010000006139400320140812000101 00000000000000000000000000000000000000000000000000000000000000000000000000000000000000000000000000000000000000000N 00000000000NCONT   00    00000000000          00000000000000000000000000000000000000000000 000000000000000A000000000000000000000000000000000000000000000 000000000000000000000000000000000000000     00000000                                                                                                                        000000000000000000
F0010000006139400004000001022529300023658300000000000000000201408120002001ALBERTO ALVAREZ ISAZA                             C000000000002800000000000000000000100010010000000000000000000000F0010000006139400420140812000101 00000000000000000000000000000000000000000000000000000000000000000000000000000000000000000000000000000000000000000N 00000000000NCONT   00    00000000000          00000000000000000000000000000000000000000000 000000000000000A000000000000000000000000000000000000000000000 000000000000000000000000000000000000000     00000000                                                                                                                        000000000000000000
F0010000006139400005000001022529300013552100000000000000000201408120002001ALBERTO ALVAREZ ISAZA                             D000000000002800000000000000000000100010010000000000000000000000F0010000006139400520140812000101 00000000000000000000000000000000000000000000000000000000000000000000000000000000000000000000000000000000000000000N 00000000000NCONT   00    00000000000          00000000000000000000000000000000000000000000 000000000000000A000000000000000000000000000000000000000000000 000000000000000000000000000000000000000     00000000                                                                                                                        000000000000000000
F0010000006139500001000001022529300011050500000000000000000201408120002001ALBERTO ALVAREZ ISAZA                             D000000000800000000000000000000000100010010000000000000000000000F0010000006139500120140812000101 00000000000000000000000000000000000000000000000000000000000000000000000000000000000000000000000000000000000000000N 00000000000NCONT   00    00000000000          00000000000000000000000000000000000000000000 000000000000000A000000000000000000000000000000000000000000000 000000000000000000000000000000000000000     00000000                                                                                                                        000000000000000000
F0010000006139500002000001022529300041450500000000000000000201408120002001ALBERTO ALVAREZ ISAZA                             C000000000700000000000000000000000100010010000000000000000000000F0010000006139500220140812000101 00000000000000000000000000000000000000000000000000000000000000000000000000000000000000000000000000000000000000000N 00000000000NCONT   00    00000000000          00000000000000000000000000000000000000000000 000000000000000A000000000000000000000000000000000000000000000 000000000000000000000000000000000000000     00000000                                                                                                                        000000000000000000
F0010000006139500003000001022529300042505000000000000000000201408120002001ALBERTO ALVAREZ ISAZA                             C000000000100000000000000000000000100010010000000000000000000000F0010000006139500320140812000101 00000000000000000000000000000000000000000000000000000000000000000000000000000000000000000000000000000000000000000N 00000000000NCONT   00    00000000000          00000000000000000000000000000000000000000000 000000000000000A000000000000000000000000000000000000000000000 000000000000000000000000000000000000000     00000000                                                                                                                        000000000000000000
F0010000006139500004000001022529300023658300000000000000000201408120002001ALBERTO ALVAREZ ISAZA                             C000000000005600000000000000000000100010010000000000000000000000F0010000006139500420140812000101 00000000000000000000000000000000000000000000000000000000000000000000000000000000000000000000000000000000000000000N 00000000000NCONT   00    00000000000          00000000000000000000000000000000000000000000 000000000000000A000000000000000000000000000000000000000000000 000000000000000000000000000000000000000     00000000                                                                                                                        000000000000000000
F0010000006139500005000001022529300013552100000000000000000201408120002001ALBERTO ALVAREZ ISAZA                             D000000000005600000000000000000000100010010000000000000000000000F0010000006139500520140812000101 00000000000000000000000000000000000000000000000000000000000000000000000000000000000000000000000000000000000000000N 00000000000NCONT   00    00000000000          00000000000000000000000000000000000000000000 000000000000000A000000000000000000000000000000000000000000000 000000000000000000000000000000000000000     00000000                                                                                                                        000000000000000000
F0010000006139600001000001022529300011050500000000000000000201408120002001ALBERTO ALVAREZ ISAZA                             D000000000800000000000000000000000100010010000000000000000000000F0010000006139600120140812000101 00000000000000000000000000000000000000000000000000000000000000000000000000000000000000000000000000000000000000000N 00000000000NCONT   00    00000000000          00000000000000000000000000000000000000000000 000000000000000A000000000000000000000000000000000000000000000 000000000000000000000000000000000000000     00000000                                                                                                                        000000000000000000
F0010000006139600002000001022529300041450500000000000000000201408120002001ALBERTO ALVAREZ ISAZA                             C000000000700000000000000000000000100010010000000000000000000000F0010000006139600220140812000101 00000000000000000000000000000000000000000000000000000000000000000000000000000000000000000000000000000000000000000N 00000000000NCONT   00    00000000000          00000000000000000000000000000000000000000000 000000000000000A000000000000000000000000000000000000000000000 000000000000000000000000000000000000000     00000000                                                                                                                        000000000000000000
F0010000006139600003000001022529300042505000000000000000000201408120002001ALBERTO ALVAREZ ISAZA                             C000000000100000000000000000000000100010010000000000000000000000F0010000006139600320140812000101 00000000000000000000000000000000000000000000000000000000000000000000000000000000000000000000000000000000000000000N 00000000000NCONT   00    00000000000          00000000000000000000000000000000000000000000 000000000000000A000000000000000000000000000000000000000000000 000000000000000000000000000000000000000     00000000                                                                                                                        000000000000000000
F0010000006139600004000001022529300023658300000000000000000201408120002001ALBERTO ALVAREZ ISAZA                             C000000000005600000000000000000000100010010000000000000000000000F0010000006139600420140812000101 00000000000000000000000000000000000000000000000000000000000000000000000000000000000000000000000000000000000000000N 00000000000NCONT   00    00000000000          00000000000000000000000000000000000000000000 000000000000000A000000000000000000000000000000000000000000000 000000000000000000000000000000000000000     00000000                                                                                                                        000000000000000000
F0010000006139600005000001022529300013552100000000000000000201408120002001ALBERTO ALVAREZ ISAZA                             D000000000005600000000000000000000100010010000000000000000000000F0010000006139600520140812000101 00000000000000000000000000000000000000000000000000000000000000000000000000000000000000000000000000000000000000000N 00000000000NCONT   00    00000000000          00000000000000000000000000000000000000000000 000000000000000A000000000000000000000000000000000000000000000 000000000000000000000000000000000000000     00000000                                                                                                                        000000000000000000
F0010000006139700001000000871573200011050500000000000000000201408120002001ACCESORIAS ARQUITECTONI KJ                        D000000004500000000000000000000000100010010000000000000000000000F0010000006139700120140812000101 00000000000000000000000000000000000000000000000000000000000000000000000000000000000000000000000000000000000000000N 00000000000NCONT   00    00000000000          00000000000000000000000000000000000000000000 000000000000000A000000000000000000000000000000000000000000000 000000000000000000000000000000000000000     00000000                                                                                                                        000000000000000000
F0010000006139700002000000871573200041450500000000000000000201408120002001ACCESORIAS ARQUITECTONI KJ                        C000000002500000000000000000000000100010010000000000000000000000F0010000006139700220140812000101 00000000000000000000000000000000000000000000000000000000000000000000000000000000000000000000000000000000000000000N 00000000000NCONT   00    00000000000          00000000000000000000000000000000000000000000 000000000000000A000000000000000000000000000000000000000000000 000000000000000000000000000000000000000     00000000                                                                                                                        000000000000000000
F0010000006139700003000000871573200042505000000000000000000201408120002001ACCESORIAS ARQUITECTONI KJ                        C000000002000000000000000000000000100010010000000000000000000000F0010000006139700320140812000101 00000000000000000000000000000000000000000000000000000000000000000000000000000000000000000000000000000000000000000N 00000000000NCONT   00    00000000000          00000000000000000000000000000000000000000000 000000000000000A000000000000000000000000000000000000000000000 000000000000000000000000000000000000000     00000000                                                                                                                        000000000000000000
F0010000006139700004000000871573200023658300000000000000000201408120002001ACCESORIAS ARQUITECTONI KJ                        C000000000020000000000000000000000100010010000000000000000000000F0010000006139700420140812000101 00000000000000000000000000000000000000000000000000000000000000000000000000000000000000000000000000000000000000000N 00000000000NCONT   00    00000000000          00000000000000000000000000000000000000000000 000000000000000A000000000000000000000000000000000000000000000 000000000000000000000000000000000000000     00000000                                                                                                                        000000000000000000
F0010000006139700005000000871573200013552100000000000000000201408120002001ACCESORIAS ARQUITECTONI KJ                        D000000000020000000000000000000000100010010000000000000000000000F0010000006139700520140812000101 00000000000000000000000000000000000000000000000000000000000000000000000000000000000000000000000000000000000000000N 00000000000NCONT   00    00000000000          00000000000000000000000000000000000000000000 000000000000000A000000000000000000000000000000000000000000000 000000000000000000000000000000000000000     00000000                                                                                                                        000000000000000000
F0010000006139800001000090043169600011050500000000000000000201408120002001IMPORTADORA EL HUECO SAS                          D000000001400000000000000000000000100010010000000000000000000000F0010000006139800120140812000101 00000000000000000000000000000000000000000000000000000000000000000000000000000000000000000000000000000000000000000N 00000000000NCONT   00    00000000000          00000000000000000000000000000000000000000000 000000000000000A000000000000000000000000000000000000000000000 000000000000000000000000000000000000000     00000000                                                                                                                        000000000000000000
F0010000006139800002000090043169600041450500000000000000000201408120002001IMPORTADORA EL HUECO SAS                          C000000000900000000000000000000000100010010000000000000000000000F0010000006139800220140812000101 00000000000000000000000000000000000000000000000000000000000000000000000000000000000000000000000000000000000000000N 00000000000NCONT   00    00000000000          00000000000000000000000000000000000000000000 000000000000000A000000000000000000000000000000000000000000000 000000000000000000000000000000000000000     00000000                                                                                                                        000000000000000000
F0010000006139800003000090043169600042505000000000000000000201408120002001IMPORTADORA EL HUECO SAS                          C000000000500000000000000000000000100010010000000000000000000000F0010000006139800320140812000101 00000000000000000000000000000000000000000000000000000000000000000000000000000000000000000000000000000000000000000N 00000000000NCONT   00    00000000000          00000000000000000000000000000000000000000000 000000000000000A000000000000000000000000000000000000000000000 000000000000000000000000000000000000000     00000000                                                                                                                        000000000000000000
F0010000006139800004000090043169600023658300000000000000000201408120002001IMPORTADORA EL HUECO SAS                          C000000000007200000000000000000000100010010000000000000000000000F0010000006139800420140812000101 00000000000000000000000000000000000000000000000000000000000000000000000000000000000000000000000000000000000000000N 00000000000NCONT   00    00000000000          00000000000000000000000000000000000000000000 000000000000000A000000000000000000000000000000000000000000000 000000000000000000000000000000000000000     00000000                                                                                                                        000000000000000000
F0010000006139800005000090043169600013552100000000000000000201408120002001IMPORTADORA EL HUECO SAS                          D000000000007200000000000000000000100010010000000000000000000000F0010000006139800520140812000101 00000000000000000000000000000000000000000000000000000000000000000000000000000000000000000000000000000000000000000N 00000000000NCONT   00    00000000000          00000000000000000000000000000000000000000000 000000000000000A000000000000000000000000000000000000000000000 000000000000000000000000000000000000000     00000000                                                                                                                        000000000000000000
F0010000006139900001000090038852800011050500000000000000000201408120002001EL COMERCIO ELECTRICO DE LA CO                    D000000011500000000000000000000000100010010000000000000000000000F0010000006139900120140812000101 00000000000000000000000000000000000000000000000000000000000000000000000000000000000000000000000000000000000000000N 00000000000NCONT   00    00000000000          00000000000000000000000000000000000000000000 000000000000000A000000000000000000000000000000000000000000000 000000000000000000000000000000000000000     00000000                                                                                                                        000000000000000000
F0010000006139900002000090038852800041450500000000000000000201408120002001EL COMERCIO ELECTRICO DE LA CO                    C000000009000000000000000000000000100010010000000000000000000000F0010000006139900220140812000101 00000000000000000000000000000000000000000000000000000000000000000000000000000000000000000000000000000000000000000N 00000000000NCONT   00    00000000000          00000000000000000000000000000000000000000000 000000000000000A000000000000000000000000000000000000000000000 000000000000000000000000000000000000000     00000000                                                                                                                        000000000000000000
F0010000006139900003000090038852800042505000000000000000000201408120002001EL COMERCIO ELECTRICO DE LA CO                    C000000002500000000000000000000000100010010000000000000000000000F0010000006139900320140812000101 00000000000000000000000000000000000000000000000000000000000000000000000000000000000000000000000000000000000000000N 00000000000NCONT   00    00000000000          00000000000000000000000000000000000000000000 000000000000000A000000000000000000000000000000000000000000000 000000000000000000000000000000000000000     00000000                                                                                                                        000000000000000000
F0010000006139900004000090038852800023658300000000000000000201408120002001EL COMERCIO ELECTRICO DE LA CO                    C000000000072000000000000000000000100010010000000000000000000000F0010000006139900420140812000101 00000000000000000000000000000000000000000000000000000000000000000000000000000000000000000000000000000000000000000N 00000000000NCONT   00    00000000000          00000000000000000000000000000000000000000000 000000000000000A000000000000000000000000000000000000000000000 000000000000000000000000000000000000000     00000000                                                                                                                        000000000000000000
F0010000006139900005000090038852800013552100000000000000000201408120002001EL COMERCIO ELECTRICO DE LA CO                    D000000000072000000000000000000000100010010000000000000000000000F0010000006139900520140812000101 00000000000000000000000000000000000000000000000000000000000000000000000000000000000000000000000000000000000000000N 00000000000NCONT   00    00000000000          00000000000000000000000000000000000000000000 000000000000000A000000000000000000000000000000000000000000000 000000000000000000000000000000000000000     00000000                                                                                                                        000000000000000000
F0010000006140000001000090038852800011050500000000000000000201408120002001EL COMERCIO ELECTRICO DE LA CO                    D000000002300000000000000000000000100010010000000000000000000000F0010000006140000120140812000101 00000000000000000000000000000000000000000000000000000000000000000000000000000000000000000000000000000000000000000N 00000000000NCONT   00    00000000000          00000000000000000000000000000000000000000000 000000000000000A000000000000000000000000000000000000000000000 000000000000000000000000000000000000000     00000000                                                                                                                        000000000000000000
F0010000006140000002000090038852800041450500000000000000000201408120002001EL COMERCIO ELECTRICO DE LA CO                    C000000001800000000000000000000000100010010000000000000000000000F0010000006140000220140812000101 00000000000000000000000000000000000000000000000000000000000000000000000000000000000000000000000000000000000000000N 00000000000NCONT   00    00000000000          00000000000000000000000000000000000000000000 000000000000000A000000000000000000000000000000000000000000000 000000000000000000000000000000000000000     00000000                                                                                                                        000000000000000000
F0010000006140000003000090038852800042505000000000000000000201408120002001EL COMERCIO ELECTRICO DE LA CO                    C000000000500000000000000000000000100010010000000000000000000000F0010000006140000320140812000101 00000000000000000000000000000000000000000000000000000000000000000000000000000000000000000000000000000000000000000N 00000000000NCONT   00    00000000000          00000000000000000000000000000000000000000000 000000000000000A000000000000000000000000000000000000000000000 000000000000000000000000000000000000000     00000000                                                                                                                        000000000000000000
F0010000006140000004000090038852800023658300000000000000000201408120002001EL COMERCIO ELECTRICO DE LA CO                    C000000000014400000000000000000000100010010000000000000000000000F0010000006140000420140812000101 00000000000000000000000000000000000000000000000000000000000000000000000000000000000000000000000000000000000000000N 00000000000NCONT   00    00000000000          00000000000000000000000000000000000000000000 000000000000000A000000000000000000000000000000000000000000000 000000000000000000000000000000000000000     00000000                                                                                                                        000000000000000000
F0010000006140000005000090038852800013552100000000000000000201408120002001EL COMERCIO ELECTRICO DE LA CO                    D000000000014400000000000000000000100010010000000000000000000000F0010000006140000520140812000101 00000000000000000000000000000000000000000000000000000000000000000000000000000000000000000000000000000000000000000N 00000000000NCONT   00    00000000000          00000000000000000000000000000000000000000000 000000000000000A000000000000000000000000000000000000000000000 000000000000000000000000000000000000000     00000000                                                                                                                        000000000000000000
F0010000006140100001000090024502000011050500000000000000000201408120002001FULL ELECTRICOS LA 36 LTDA                        D000000007000000000000000000000000100010010000000000000000000000F0010000006140100120140812000101 00000000000000000000000000000000000000000000000000000000000000000000000000000000000000000000000000000000000000000N 00000000000NCONT   00    00000000000          00000000000000000000000000000000000000000000 000000000000000A000000000000000000000000000000000000000000000 000000000000000000000000000000000000000     00000000                                                                                                                        000000000000000000
F0010000006140100002000090024502000041450500000000000000000201408120002001FULL ELECTRICOS LA 36 LTDA                        C000000006000000000000000000000000100010010000000000000000000000F0010000006140100220140812000101 00000000000000000000000000000000000000000000000000000000000000000000000000000000000000000000000000000000000000000N 00000000000NCONT   00    00000000000          00000000000000000000000000000000000000000000 000000000000000A000000000000000000000000000000000000000000000 000000000000000000000000000000000000000     00000000                                                                                                                        000000000000000000
F0010000006140100003000090024502000042505000000000000000000201408120002001FULL ELECTRICOS LA 36 LTDA                        C000000001000000000000000000000000100010010000000000000000000000F0010000006140100320140812000101 00000000000000000000000000000000000000000000000000000000000000000000000000000000000000000000000000000000000000000N 00000000000NCONT   00    00000000000          00000000000000000000000000000000000000000000 000000000000000A000000000000000000000000000000000000000000000 000000000000000000000000000000000000000     00000000                                                                                                                        000000000000000000
F0010000006140100004000090024502000023658300000000000000000201408120002001FULL ELECTRICOS LA 36 LTDA                        C000000000048000000000000000000000100010010000000000000000000000F0010000006140100420140812000101 00000000000000000000000000000000000000000000000000000000000000000000000000000000000000000000000000000000000000000N 00000000000NCONT   00    00000000000          00000000000000000000000000000000000000000000 000000000000000A000000000000000000000000000000000000000000000 000000000000000000000000000000000000000     00000000                                                                                                                        000000000000000000
F0010000006140100005000090024502000013552100000000000000000201408120002001FULL ELECTRICOS LA 36 LTDA                        D000000000048000000000000000000000100010010000000000000000000000F0010000006140100520140812000101 00000000000000000000000000000000000000000000000000000000000000000000000000000000000000000000000000000000000000000N 00000000000NCONT   00    00000000000          00000000000000000000000000000000000000000000 000000000000000A000000000000000000000000000000000000000000000 000000000000000000000000000000000000000     00000000                                                                                                                        000000000000000000
F0010000006140200001000000742399700011050500000000000000000201408120002001CACHARRERIA EL NUEVO CHADID                       D000000001100000000000000000000000100010010000000000000000000000F0010000006140200120140812000101 00000000000000000000000000000000000000000000000000000000000000000000000000000000000000000000000000000000000000000N 00000000000NCONT   00    00000000000          00000000000000000000000000000000000000000000 000000000000000A000000000000000000000000000000000000000000000 000000000000000000000000000000000000000     00000000                                                                                                                        000000000000000000
F0010000006140200002000000742399700041450500000000000000000201408120002001CACHARRERIA EL NUEVO CHADID                       C000000000800000000000000000000000100010010000000000000000000000F0010000006140200220140812000101 00000000000000000000000000000000000000000000000000000000000000000000000000000000000000000000000000000000000000000N 00000000000NCONT   00    00000000000          00000000000000000000000000000000000000000000 000000000000000A000000000000000000000000000000000000000000000 000000000000000000000000000000000000000     00000000                                                                                                                        000000000000000000
F0010000006140200003000000742399700042505000000000000000000201408120002001CACHARRERIA EL NUEVO CHADID                       C000000000300000000000000000000000100010010000000000000000000000F0010000006140200320140812000101 00000000000000000000000000000000000000000000000000000000000000000000000000000000000000000000000000000000000000000N 00000000000NCONT   00    00000000000          00000000000000000000000000000000000000000000 000000000000000A000000000000000000000000000000000000000000000 000000000000000000000000000000000000000     00000000                                                                                                                        000000000000000000
F0010000006140200004000000742399700023658300000000000000000201408120002001CACHARRERIA EL NUEVO CHADID                       C000000000006400000000000000000000100010010000000000000000000000F0010000006140200420140812000101 00000000000000000000000000000000000000000000000000000000000000000000000000000000000000000000000000000000000000000N 00000000000NCONT   00    00000000000          00000000000000000000000000000000000000000000 000000000000000A000000000000000000000000000000000000000000000 000000000000000000000000000000000000000     00000000                                                                                                                        000000000000000000
F0010000006140200005000000742399700013552100000000000000000201408120002001CACHARRERIA EL NUEVO CHADID                       D000000000006400000000000000000000100010010000000000000000000000F0010000006140200520140812000101 00000000000000000000000000000000000000000000000000000000000000000000000000000000000000000000000000000000000000000N 00000000000NCONT   00    00000000000          00000000000000000000000000000000000000000000 000000000000000A000000000000000000000000000000000000000000000 000000000000000000000000000000000000000     00000000                                                                                                                        000000000000000000
F0010000006140300001000080202435000011050500000000000000000201408120002001DISTRIBUIDORA MACEA SAS                           D000000001000000000000000000000000100010010000000000000000000000F0010000006140300120140812000101 00000000000000000000000000000000000000000000000000000000000000000000000000000000000000000000000000000000000000000N 00000000000NCONT   00    00000000000          00000000000000000000000000000000000000000000 000000000000000A000000000000000000000000000000000000000000000 000000000000000000000000000000000000000     00000000                                                                                                                        000000000000000000
F0010000006140300002000080202435000041450500000000000000000201408120002001DISTRIBUIDORA MACEA SAS                           C000000000800000000000000000000000100010010000000000000000000000F0010000006140300220140812000101 00000000000000000000000000000000000000000000000000000000000000000000000000000000000000000000000000000000000000000N 00000000000NCONT   00    00000000000          00000000000000000000000000000000000000000000 000000000000000A000000000000000000000000000000000000000000000 000000000000000000000000000000000000000     00000000                                                                                                                        000000000000000000
F0010000006140300003000080202435000042505000000000000000000201408120002001DISTRIBUIDORA MACEA SAS                           C000000000200000000000000000000000100010010000000000000000000000F0010000006140300320140812000101 00000000000000000000000000000000000000000000000000000000000000000000000000000000000000000000000000000000000000000N 00000000000NCONT   00    00000000000          00000000000000000000000000000000000000000000 000000000000000A000000000000000000000000000000000000000000000 000000000000000000000000000000000000000     00000000                                                                                                                        000000000000000000
F0010000006140300004000080202435000023658300000000000000000201408120002001DISTRIBUIDORA MACEA SAS                           C000000000006400000000000000000000100010010000000000000000000000F0010000006140300420140812000101 00000000000000000000000000000000000000000000000000000000000000000000000000000000000000000000000000000000000000000N 00000000000NCONT   00    00000000000          00000000000000000000000000000000000000000000 000000000000000A000000000000000000000000000000000000000000000 000000000000000000000000000000000000000     00000000                                                                                                                        000000000000000000
F0010000006140300005000080202435000013552100000000000000000201408120002001DISTRIBUIDORA MACEA SAS                           D000000000006400000000000000000000100010010000000000000000000000F0010000006140300520140812000101 00000000000000000000000000000000000000000000000000000000000000000000000000000000000000000000000000000000000000000N 00000000000NCONT   00    00000000000          00000000000000000000000000000000000000000000 000000000000000A000000000000000000000000000000000000000000000 000000000000000000000000000000000000000     00000000                                                                                                                        000000000000000000
F0010000006140400001000003287501100011050500000000000000000201408120002001ENVASES PLASTICOS JULISSA                         D000000007100000000000000000000000100010010000000000000000000000F0010000006140400120140812000101 00000000000000000000000000000000000000000000000000000000000000000000000000000000000000000000000000000000000000000N 00000000000NCONT   00    00000000000          00000000000000000000000000000000000000000000 000000000000000A000000000000000000000000000000000000000000000 000000000000000000000000000000000000000     00000000                                                                                                                        000000000000000000
F0010000006140400002000003287501100041450500000000000000000201408120002001ENVASES PLASTICOS JULISSA                         C000000007000000000000000000000000100010010000000000000000000000F0010000006140400220140812000101 00000000000000000000000000000000000000000000000000000000000000000000000000000000000000000000000000000000000000000N 00000000000NCONT   00    00000000000          00000000000000000000000000000000000000000000 000000000000000A000000000000000000000000000000000000000000000 000000000000000000000000000000000000000     00000000                                                                                                                        000000000000000000
F0010000006140400003000003287501100042505000000000000000000201408120002001ENVASES PLASTICOS JULISSA                         C000000000100000000000000000000000100010010000000000000000000000F0010000006140400320140812000101 00000000000000000000000000000000000000000000000000000000000000000000000000000000000000000000000000000000000000000N 00000000000NCONT   00    00000000000          00000000000000000000000000000000000000000000 000000000000000A000000000000000000000000000000000000000000000 000000000000000000000000000000000000000     00000000                                                                                                                        000000000000000000
F0010000006140400004000003287501100023658300000000000000000201408120002001ENVASES PLASTICOS JULISSA                         C000000000056000000000000000000000100010010000000000000000000000F0010000006140400420140812000101 00000000000000000000000000000000000000000000000000000000000000000000000000000000000000000000000000000000000000000N 00000000000NCONT   00    00000000000          00000000000000000000000000000000000000000000 000000000000000A000000000000000000000000000000000000000000000 000000000000000000000000000000000000000     00000000                                                                                                                        000000000000000000
F0010000006140400005000003287501100013552100000000000000000201408120002001ENVASES PLASTICOS JULISSA                         D000000000056000000000000000000000100010010000000000000000000000F0010000006140400520140812000101 00000000000000000000000000000000000000000000000000000000000000000000000000000000000000000000000000000000000000000N 00000000000NCONT   00    00000000000          00000000000000000000000000000000000000000000 000000000000000A000000000000000000000000000000000000000000000 000000000000000000000000000000000000000     00000000                                                                                                                        000000000000000000
F0010000006140500001000000908086400011050500000000000000000201408120002001JOSE DEL CRISTO SANES FERNANDEZ                   D000000005178000000000000000000000100010010000000000000000000000F0010000006140500120140812000101 00000000000000000000000000000000000000000000000000000000000000000000000000000000000000000000000000000000000000000N 00000000000NCONT   00    00000000000          00000000000000000000000000000000000000000000 000000000000000A000000000000000000000000000000000000000000000 000000000000000000000000000000000000000     00000000                                                                                                                        000000000000000000
F0010000006140500002000000908086400041450500000000000000000201408120002001JOSE DEL CRISTO SANES FERNANDEZ                   C000000004500000000000000000000000100010010000000000000000000000F0010000006140500220140812000101 00000000000000000000000000000000000000000000000000000000000000000000000000000000000000000000000000000000000000000N 00000000000NCONT   00    00000000000          00000000000000000000000000000000000000000000 000000000000000A000000000000000000000000000000000000000000000 000000000000000000000000000000000000000     00000000                                                                                                                        000000000000000000
F0010000006140500003000000908086400042505000000000000000000201408120002001JOSE DEL CRISTO SANES FERNANDEZ                   C000000000678000000000000000000000100010010000000000000000000000F0010000006140500320140812000101 00000000000000000000000000000000000000000000000000000000000000000000000000000000000000000000000000000000000000000N 00000000000NCONT   00    00000000000          00000000000000000000000000000000000000000000 000000000000000A000000000000000000000000000000000000000000000 000000000000000000000000000000000000000     00000000                                                                                                                        000000000000000000
F0010000006140500004000000908086400023658300000000000000000201408120002001JOSE DEL CRISTO SANES FERNANDEZ                   C000000000036000000000000000000000100010010000000000000000000000F0010000006140500420140812000101 00000000000000000000000000000000000000000000000000000000000000000000000000000000000000000000000000000000000000000N 00000000000NCONT   00    00000000000          00000000000000000000000000000000000000000000 000000000000000A000000000000000000000000000000000000000000000 000000000000000000000000000000000000000     00000000                                                                                                                        000000000000000000
F0010000006140500005000000908086400013552100000000000000000201408120002001JOSE DEL CRISTO SANES FERNANDEZ                   D000000000036000000000000000000000100010010000000000000000000000F0010000006140500520140812000101 00000000000000000000000000000000000000000000000000000000000000000000000000000000000000000000000000000000000000000N 00000000000NCONT   00    00000000000          00000000000000000000000000000000000000000000 000000000000000A000000000000000000000000000000000000000000000 000000000000000000000000000000000000000     00000000                                                                                                                        000000000000000000
F0010000006140600001000090015305700011050500000000000000000201408120002001PLASTICOS Y SERVICIOS BARRANQUILLA EU             D000000004500000000000000000000000100010010000000000000000000000F0010000006140600120140812000101 00000000000000000000000000000000000000000000000000000000000000000000000000000000000000000000000000000000000000000N 00000000000NCONT   00    00000000000          00000000000000000000000000000000000000000000 000000000000000A000000000000000000000000000000000000000000000 000000000000000000000000000000000000000     00000000                                                                                                                        000000000000000000
F0010000006140600002000090015305700041450500000000000000000201408120002001PLASTICOS Y SERVICIOS BARRANQUILLA EU             C000000003650000000000000000000000100010010000000000000000000000F0010000006140600220140812000101 00000000000000000000000000000000000000000000000000000000000000000000000000000000000000000000000000000000000000000N 00000000000NCONT   00    00000000000          00000000000000000000000000000000000000000000 000000000000000A000000000000000000000000000000000000000000000 000000000000000000000000000000000000000     00000000                                                                                                                        000000000000000000
F0010000006140600003000090015305700042505000000000000000000201408120002001PLASTICOS Y SERVICIOS BARRANQUILLA EU             C000000000850000000000000000000000100010010000000000000000000000F0010000006140600320140812000101 00000000000000000000000000000000000000000000000000000000000000000000000000000000000000000000000000000000000000000N 00000000000NCONT   00    00000000000          00000000000000000000000000000000000000000000 000000000000000A000000000000000000000000000000000000000000000 000000000000000000000000000000000000000     00000000                                                                                                                        000000000000000000
F0010000006140600004000090015305700023658300000000000000000201408120002001PLASTICOS Y SERVICIOS BARRANQUILLA EU             C000000000029200000000000000000000100010010000000000000000000000F0010000006140600420140812000101 00000000000000000000000000000000000000000000000000000000000000000000000000000000000000000000000000000000000000000N 00000000000NCONT   00    00000000000          00000000000000000000000000000000000000000000 000000000000000A000000000000000000000000000000000000000000000 000000000000000000000000000000000000000     00000000                                                                                                                        000000000000000000
F0010000006140600005000090015305700013552100000000000000000201408120002001PLASTICOS Y SERVICIOS BARRANQUILLA EU             D000000000029200000000000000000000100010010000000000000000000000F0010000006140600520140812000101 00000000000000000000000000000000000000000000000000000000000000000000000000000000000000000000000000000000000000000N 00000000000NCONT   00    00000000000          00000000000000000000000000000000000000000000 000000000000000A000000000000000000000000000000000000000000000 000000000000000000000000000000000000000     00000000                                                                                                                        000000000000000000
F0010000006140700001000000860054200011050500000000000000000201408120002001HENRY DE LA HOZ                                   D000000001800000000000000000000000100010010000000000000000000000F0010000006140700120140812000101 00000000000000000000000000000000000000000000000000000000000000000000000000000000000000000000000000000000000000000N 00000000000NCONT   00    00000000000          00000000000000000000000000000000000000000000 000000000000000A000000000000000000000000000000000000000000000 000000000000000000000000000000000000000     00000000                                                                                                                        000000000000000000
F0010000006140700002000000860054200041450500000000000000000201408120002001HENRY DE LA HOZ                                   C000000001200000000000000000000000100010010000000000000000000000F0010000006140700220140812000101 00000000000000000000000000000000000000000000000000000000000000000000000000000000000000000000000000000000000000000N 00000000000NCONT   00    00000000000          00000000000000000000000000000000000000000000 000000000000000A000000000000000000000000000000000000000000000 000000000000000000000000000000000000000     00000000                                                                                                                        000000000000000000
F0010000006140700003000000860054200042505000000000000000000201408120002001HENRY DE LA HOZ                                   C000000000600000000000000000000000100010010000000000000000000000F0010000006140700320140812000101 00000000000000000000000000000000000000000000000000000000000000000000000000000000000000000000000000000000000000000N 00000000000NCONT   00    00000000000          00000000000000000000000000000000000000000000 000000000000000A000000000000000000000000000000000000000000000 000000000000000000000000000000000000000     00000000                                                                                                                        000000000000000000
F0010000006140700004000000860054200023658300000000000000000201408120002001HENRY DE LA HOZ                                   C000000000009600000000000000000000100010010000000000000000000000F0010000006140700420140812000101 00000000000000000000000000000000000000000000000000000000000000000000000000000000000000000000000000000000000000000N 00000000000NCONT   00    00000000000          00000000000000000000000000000000000000000000 000000000000000A000000000000000000000000000000000000000000000 000000000000000000000000000000000000000     00000000                                                                                                                        000000000000000000
F0010000006140700005000000860054200013552100000000000000000201408120002001HENRY DE LA HOZ                                   D000000000009600000000000000000000100010010000000000000000000000F0010000006140700520140812000101 00000000000000000000000000000000000000000000000000000000000000000000000000000000000000000000000000000000000000000N 00000000000NCONT   00    00000000000          00000000000000000000000000000000000000000000 000000000000000A000000000000000000000000000000000000000000000 000000000000000000000000000000000000000     00000000                                                                                                                        000000000000000000
F0010000006140800001000000860054200011050500000000000000000201408120002001HENRY DE LA HOZ                                   D000000001800000000000000000000000100010010000000000000000000000F0010000006140800120140812000101 00000000000000000000000000000000000000000000000000000000000000000000000000000000000000000000000000000000000000000N 00000000000NCONT   00    00000000000          00000000000000000000000000000000000000000000 000000000000000A000000000000000000000000000000000000000000000 000000000000000000000000000000000000000     00000000                                                                                                                        000000000000000000
F0010000006140800002000000860054200041450500000000000000000201408120002001HENRY DE LA HOZ                                   C000000001200000000000000000000000100010010000000000000000000000F0010000006140800220140812000101 00000000000000000000000000000000000000000000000000000000000000000000000000000000000000000000000000000000000000000N 00000000000NCONT   00    00000000000          00000000000000000000000000000000000000000000 000000000000000A000000000000000000000000000000000000000000000 000000000000000000000000000000000000000     00000000                                                                                                                        000000000000000000
F0010000006140800003000000860054200042505000000000000000000201408120002001HENRY DE LA HOZ                                   C000000000600000000000000000000000100010010000000000000000000000F0010000006140800320140812000101 00000000000000000000000000000000000000000000000000000000000000000000000000000000000000000000000000000000000000000N 00000000000NCONT   00    00000000000          00000000000000000000000000000000000000000000 000000000000000A000000000000000000000000000000000000000000000 000000000000000000000000000000000000000     00000000                                                                                                                        000000000000000000
F0010000006140800004000000860054200023658300000000000000000201408120002001HENRY DE LA HOZ                                   C000000000009600000000000000000000100010010000000000000000000000F0010000006140800420140812000101 00000000000000000000000000000000000000000000000000000000000000000000000000000000000000000000000000000000000000000N 00000000000NCONT   00    00000000000          00000000000000000000000000000000000000000000 000000000000000A000000000000000000000000000000000000000000000 000000000000000000000000000000000000000     00000000                                                                                                                        000000000000000000
F0010000006140800005000000860054200013552100000000000000000201408120002001HENRY DE LA HOZ                                   D000000000009600000000000000000000100010010000000000000000000000F0010000006140800520140812000101 00000000000000000000000000000000000000000000000000000000000000000000000000000000000000000000000000000000000000000N 00000000000NCONT   00    00000000000          00000000000000000000000000000000000000000000 000000000000000A000000000000000000000000000000000000000000000 000000000000000000000000000000000000000     00000000                                                                                                                        000000000000000000
F0010000006140900001000000860054200011050500000000000000000201408120002001HENRY DE LA HOZ                                   D000000003500000000000000000000000100010010000000000000000000000F0010000006140900120140812000101 00000000000000000000000000000000000000000000000000000000000000000000000000000000000000000000000000000000000000000N 00000000000NCONT   00    00000000000          00000000000000000000000000000000000000000000 000000000000000A000000000000000000000000000000000000000000000 000000000000000000000000000000000000000     00000000                                                                                                                        000000000000000000
F0010000006140900002000000860054200041450500000000000000000201408120002001HENRY DE LA HOZ                                   C000000003000000000000000000000000100010010000000000000000000000F0010000006140900220140812000101 00000000000000000000000000000000000000000000000000000000000000000000000000000000000000000000000000000000000000000N 00000000000NCONT   00    00000000000          00000000000000000000000000000000000000000000 000000000000000A000000000000000000000000000000000000000000000 000000000000000000000000000000000000000     00000000                                                                                                                        000000000000000000
F0010000006140900003000000860054200042505000000000000000000201408120002001HENRY DE LA HOZ                                   C000000000500000000000000000000000100010010000000000000000000000F0010000006140900320140812000101 00000000000000000000000000000000000000000000000000000000000000000000000000000000000000000000000000000000000000000N 00000000000NCONT   00    00000000000          00000000000000000000000000000000000000000000 000000000000000A000000000000000000000000000000000000000000000 000000000000000000000000000000000000000     00000000                                                                                                                        000000000000000000
F0010000006140900004000000860054200023658300000000000000000201408120002001HENRY DE LA HOZ                                   C000000000024000000000000000000000100010010000000000000000000000F0010000006140900420140812000101 00000000000000000000000000000000000000000000000000000000000000000000000000000000000000000000000000000000000000000N 00000000000NCONT   00    00000000000          00000000000000000000000000000000000000000000 000000000000000A000000000000000000000000000000000000000000000 000000000000000000000000000000000000000     00000000                                                                                                                        000000000000000000
F0010000006140900005000000860054200013552100000000000000000201408120002001HENRY DE LA HOZ                                   D000000000024000000000000000000000100010010000000000000000000000F0010000006140900520140812000101 00000000000000000000000000000000000000000000000000000000000000000000000000000000000000000000000000000000000000000N 00000000000NCONT   00    00000000000          00000000000000000000000000000000000000000000 000000000000000A000000000000000000000000000000000000000000000 000000000000000000000000000000000000000     00000000                                                                                                                        000000000000000000
F0010000006141000001000000860054200011050500000000000000000201408120002001HENRY DE LA HOZ                                   D000000007000000000000000000000000100010010000000000000000000000F0010000006141000120140812000101 00000000000000000000000000000000000000000000000000000000000000000000000000000000000000000000000000000000000000000N 00000000000NCONT   00    00000000000          00000000000000000000000000000000000000000000 000000000000000A000000000000000000000000000000000000000000000 000000000000000000000000000000000000000     00000000                                                                                                                        000000000000000000
F0010000006141000002000000860054200041450500000000000000000201408120002001HENRY DE LA HOZ                                   C000000006200000000000000000000000100010010000000000000000000000F0010000006141000220140812000101 00000000000000000000000000000000000000000000000000000000000000000000000000000000000000000000000000000000000000000N 00000000000NCONT   00    00000000000          00000000000000000000000000000000000000000000 000000000000000A000000000000000000000000000000000000000000000 000000000000000000000000000000000000000     00000000                                                                                                                        000000000000000000
F0010000006141000003000000860054200042505000000000000000000201408120002001HENRY DE LA HOZ                                   C000000000800000000000000000000000100010010000000000000000000000F0010000006141000320140812000101 00000000000000000000000000000000000000000000000000000000000000000000000000000000000000000000000000000000000000000N 00000000000NCONT   00    00000000000          00000000000000000000000000000000000000000000 000000000000000A000000000000000000000000000000000000000000000 000000000000000000000000000000000000000     00000000                                                                                                                        000000000000000000
F0010000006141000004000000860054200023658300000000000000000201408120002001HENRY DE LA HOZ                                   C000000000049600000000000000000000100010010000000000000000000000F0010000006141000420140812000101 00000000000000000000000000000000000000000000000000000000000000000000000000000000000000000000000000000000000000000N 00000000000NCONT   00    00000000000          00000000000000000000000000000000000000000000 000000000000000A000000000000000000000000000000000000000000000 000000000000000000000000000000000000000     00000000                                                                                                                        000000000000000000
F0010000006141000005000000860054200013552100000000000000000201408120002001HENRY DE LA HOZ                                   D000000000049600000000000000000000100010010000000000000000000000F0010000006141000520140812000101 00000000000000000000000000000000000000000000000000000000000000000000000000000000000000000000000000000000000000000N 00000000000NCONT   00    00000000000          00000000000000000000000000000000000000000000 000000000000000A000000000000000000000000000000000000000000000 000000000000000000000000000000000000000     00000000                                                                                                                        000000000000000000
F0010000006141100001000000871693500011050500000000000000000201408120002001FERNANDO ORTIZ                                    D000000001600000000000000000000000100010010000000000000000000000F0010000006141100120140812000101 00000000000000000000000000000000000000000000000000000000000000000000000000000000000000000000000000000000000000000N 00000000000NCONT   00    00000000000          00000000000000000000000000000000000000000000 000000000000000A000000000000000000000000000000000000000000000 000000000000000000000000000000000000000     00000000                                                                                                                        000000000000000000
F0010000006141100002000000871693500041450500000000000000000201408120002001FERNANDO ORTIZ                                    C000000001500000000000000000000000100010010000000000000000000000F0010000006141100220140812000101 00000000000000000000000000000000000000000000000000000000000000000000000000000000000000000000000000000000000000000N 00000000000NCONT   00    00000000000          00000000000000000000000000000000000000000000 000000000000000A000000000000000000000000000000000000000000000 000000000000000000000000000000000000000     00000000                                                                                                                        000000000000000000
F0010000006141100003000000871693500042505000000000000000000201408120002001FERNANDO ORTIZ                                    C000000000100000000000000000000000100010010000000000000000000000F0010000006141100320140812000101 00000000000000000000000000000000000000000000000000000000000000000000000000000000000000000000000000000000000000000N 00000000000NCONT   00    00000000000          00000000000000000000000000000000000000000000 000000000000000A000000000000000000000000000000000000000000000 000000000000000000000000000000000000000     00000000                                                                                                                        000000000000000000
F0010000006141100004000000871693500023658300000000000000000201408120002001FERNANDO ORTIZ                                    C000000000012000000000000000000000100010010000000000000000000000F0010000006141100420140812000101 00000000000000000000000000000000000000000000000000000000000000000000000000000000000000000000000000000000000000000N 00000000000NCONT   00    00000000000          00000000000000000000000000000000000000000000 000000000000000A000000000000000000000000000000000000000000000 000000000000000000000000000000000000000     00000000                                                                                                                        000000000000000000
F0010000006141100005000000871693500013552100000000000000000201408120002001FERNANDO ORTIZ                                    D000000000012000000000000000000000100010010000000000000000000000F0010000006141100520140812000101 00000000000000000000000000000000000000000000000000000000000000000000000000000000000000000000000000000000000000000N 00000000000NCONT   00    00000000000          00000000000000000000000000000000000000000000 000000000000000A000000000000000000000000000000000000000000000 000000000000000000000000000000000000000     00000000                                                                                                                        000000000000000000
F0010000006141200001000000871693500011050500000000000000000201408120002001FERNANDO ORTIZ                                    D000000001600000000000000000000000100010010000000000000000000000F0010000006141200120140812000101 00000000000000000000000000000000000000000000000000000000000000000000000000000000000000000000000000000000000000000N 00000000000NCONT   00    00000000000          00000000000000000000000000000000000000000000 000000000000000A000000000000000000000000000000000000000000000 000000000000000000000000000000000000000     00000000                                                                                                                        000000000000000000
F0010000006141200002000000871693500041450500000000000000000201408120002001FERNANDO ORTIZ                                    C000000001500000000000000000000000100010010000000000000000000000F0010000006141200220140812000101 00000000000000000000000000000000000000000000000000000000000000000000000000000000000000000000000000000000000000000N 00000000000NCONT   00    00000000000          00000000000000000000000000000000000000000000 000000000000000A000000000000000000000000000000000000000000000 000000000000000000000000000000000000000     00000000                                                                                                                        000000000000000000
F0010000006141200003000000871693500042505000000000000000000201408120002001FERNANDO ORTIZ                                    C000000000100000000000000000000000100010010000000000000000000000F0010000006141200320140812000101 00000000000000000000000000000000000000000000000000000000000000000000000000000000000000000000000000000000000000000N 00000000000NCONT   00    00000000000          00000000000000000000000000000000000000000000 000000000000000A000000000000000000000000000000000000000000000 000000000000000000000000000000000000000     00000000                                                                                                                        000000000000000000
F0010000006141200004000000871693500023658300000000000000000201408120002001FERNANDO ORTIZ                                    C000000000012000000000000000000000100010010000000000000000000000F0010000006141200420140812000101 00000000000000000000000000000000000000000000000000000000000000000000000000000000000000000000000000000000000000000N 00000000000NCONT   00    00000000000          00000000000000000000000000000000000000000000 000000000000000A000000000000000000000000000000000000000000000 000000000000000000000000000000000000000     00000000                                                                                                                        000000000000000000
F0010000006141200005000000871693500013552100000000000000000201408120002001FERNANDO ORTIZ                                    D000000000012000000000000000000000100010010000000000000000000000F0010000006141200520140812000101 00000000000000000000000000000000000000000000000000000000000000000000000000000000000000000000000000000000000000000N 00000000000NCONT   00    00000000000          00000000000000000000000000000000000000000000 000000000000000A000000000000000000000000000000000000000000000 000000000000000000000000000000000000000     00000000                                                                                                                        000000000000000000
