F0010000010362200001000000869953600011050500000000000000000201709170002001MANUIEL POTES GUTIERREZ                           D000000008200000000000000000000000100010010000000000000000000000F0010000010362200120170917000101 00000000000000000000000000000000000000000000000000000000000000000000000000000000000000000000000000000000000000000N 00000000000NCONT   00    00000000000          00000000000000000000000000000000000000000000 000000000000000A000000000000000000000000000000000000000000000 000000000000000000000000000000000000000     00000000                                                                                                                        000000000000000000
F0010000010362200002000000869953600041450500000000000000000201709170002001MANUIEL POTES GUTIERREZ                           C000000007700000000000000000000000100010010000000000000000000000F0010000010362200220170917000101 00000000000000000000000000000000000000000000000000000000000000000000000000000000000000000000000000000000000000000N 00000000000NCONT   00    00000000000          00000000000000000000000000000000000000000000 000000000000000A000000000000000000000000000000000000000000000 000000000000000000000000000000000000000     00000000                                                                                                                        000000000000000000
F0010000010362200003000000869953600042505000000000000000000201709170002001MANUIEL POTES GUTIERREZ                           C000000000500000000000000000000000100010010000000000000000000000F0010000010362200320170917000101 00000000000000000000000000000000000000000000000000000000000000000000000000000000000000000000000000000000000000000N 00000000000NCONT   00    00000000000          00000000000000000000000000000000000000000000 000000000000000A000000000000000000000000000000000000000000000 000000000000000000000000000000000000000     00000000                                                                                                                        000000000000000000
F0010000010362200004000000869953600023658300000000000000000201709170002001MANUIEL POTES GUTIERREZ                           C000000000000000000000000000000000100010010000000000000000000000F0010000010362200420170917000101 00000000000000000000000000000000000000000000000000000000000000000000000000000000000000000000000000000000000000000N 00000000000NCONT   00    00000000000          00000000000000000000000000000000000000000000 000000000000000A000000000000000000000000000000000000000000000 000000000000000000000000000000000000000     00000000                                                                                                                        000000000000000000
F0010000010362200005000000869953600013552100000000000000000201709170002001MANUIEL POTES GUTIERREZ                           D000000000000000000000000000000000100010010000000000000000000000F0010000010362200520170917000101 00000000000000000000000000000000000000000000000000000000000000000000000000000000000000000000000000000000000000000N 00000000000NCONT   00    00000000000          00000000000000000000000000000000000000000000 000000000000000A000000000000000000000000000000000000000000000 000000000000000000000000000000000000000     00000000                                                                                                                        000000000000000000
F0010000010362300001000000746524800011050500000000000000000201709170002001GUILLERMO BURGOS                                  D000000002800000000000000000000000100010010000000000000000000000F0010000010362300120170917000101 00000000000000000000000000000000000000000000000000000000000000000000000000000000000000000000000000000000000000000N 00000000000NCONT   00    00000000000          00000000000000000000000000000000000000000000 000000000000000A000000000000000000000000000000000000000000000 000000000000000000000000000000000000000     00000000                                                                                                                        000000000000000000
F0010000010362300002000000746524800041450500000000000000000201709170002001GUILLERMO BURGOS                                  C000000002700000000000000000000000100010010000000000000000000000F0010000010362300220170917000101 00000000000000000000000000000000000000000000000000000000000000000000000000000000000000000000000000000000000000000N 00000000000NCONT   00    00000000000          00000000000000000000000000000000000000000000 000000000000000A000000000000000000000000000000000000000000000 000000000000000000000000000000000000000     00000000                                                                                                                        000000000000000000
F0010000010362300003000000746524800042505000000000000000000201709170002001GUILLERMO BURGOS                                  C000000000100000000000000000000000100010010000000000000000000000F0010000010362300320170917000101 00000000000000000000000000000000000000000000000000000000000000000000000000000000000000000000000000000000000000000N 00000000000NCONT   00    00000000000          00000000000000000000000000000000000000000000 000000000000000A000000000000000000000000000000000000000000000 000000000000000000000000000000000000000     00000000                                                                                                                        000000000000000000
F0010000010362300004000000746524800023658300000000000000000201709170002001GUILLERMO BURGOS                                  C000000000000000000000000000000000100010010000000000000000000000F0010000010362300420170917000101 00000000000000000000000000000000000000000000000000000000000000000000000000000000000000000000000000000000000000000N 00000000000NCONT   00    00000000000          00000000000000000000000000000000000000000000 000000000000000A000000000000000000000000000000000000000000000 000000000000000000000000000000000000000     00000000                                                                                                                        000000000000000000
F0010000010362300005000000746524800013552100000000000000000201709170002001GUILLERMO BURGOS                                  D000000000000000000000000000000000100010010000000000000000000000F0010000010362300520170917000101 00000000000000000000000000000000000000000000000000000000000000000000000000000000000000000000000000000000000000000N 00000000000NCONT   00    00000000000          00000000000000000000000000000000000000000000 000000000000000A000000000000000000000000000000000000000000000 000000000000000000000000000000000000000     00000000                                                                                                                        000000000000000000
F0010000010362400001000009249843700011050500000000000000000201709170002001CESAR MERCADO                                     D000000012500000000000000000000000100010010000000000000000000000F0010000010362400120170917000101 00000000000000000000000000000000000000000000000000000000000000000000000000000000000000000000000000000000000000000N 00000000000NCONT   00    00000000000          00000000000000000000000000000000000000000000 000000000000000A000000000000000000000000000000000000000000000 000000000000000000000000000000000000000     00000000                                                                                                                        000000000000000000
F0010000010362400002000009249843700041450500000000000000000201709170002001CESAR MERCADO                                     C000000011965000000000000000000000100010010000000000000000000000F0010000010362400220170917000101 00000000000000000000000000000000000000000000000000000000000000000000000000000000000000000000000000000000000000000N 00000000000NCONT   00    00000000000          00000000000000000000000000000000000000000000 000000000000000A000000000000000000000000000000000000000000000 000000000000000000000000000000000000000     00000000                                                                                                                        000000000000000000
F0010000010362400003000009249843700042505000000000000000000201709170002001CESAR MERCADO                                     C000000000535000000000000000000000100010010000000000000000000000F0010000010362400320170917000101 00000000000000000000000000000000000000000000000000000000000000000000000000000000000000000000000000000000000000000N 00000000000NCONT   00    00000000000          00000000000000000000000000000000000000000000 000000000000000A000000000000000000000000000000000000000000000 000000000000000000000000000000000000000     00000000                                                                                                                        000000000000000000
F0010000010362400004000009249843700023658300000000000000000201709170002001CESAR MERCADO                                     C000000000000000000000000000000000100010010000000000000000000000F0010000010362400420170917000101 00000000000000000000000000000000000000000000000000000000000000000000000000000000000000000000000000000000000000000N 00000000000NCONT   00    00000000000          00000000000000000000000000000000000000000000 000000000000000A000000000000000000000000000000000000000000000 000000000000000000000000000000000000000     00000000                                                                                                                        000000000000000000
F0010000010362400005000009249843700013552100000000000000000201709170002001CESAR MERCADO                                     D000000000000000000000000000000000100010010000000000000000000000F0010000010362400520170917000101 00000000000000000000000000000000000000000000000000000000000000000000000000000000000000000000000000000000000000000N 00000000000NCONT   00    00000000000          00000000000000000000000000000000000000000000 000000000000000A000000000000000000000000000000000000000000000 000000000000000000000000000000000000000     00000000                                                                                                                        000000000000000000
