F0010000006091100001000083050133900011050500000000000000000201407300002001VALTAC DEL CARIBE LTDA                            D000000002800000000000000000000000100010010000000000000000000000F0010000006091100120140730000101 00000000000000000000000000000000000000000000000000000000000000000000000000000000000000000000000000000000000000000N 00000000000NCONT   00    00000000000          00000000000000000000000000000000000000000000 000000000000000A000000000000000000000000000000000000000000000 000000000000000000000000000000000000000     00000000                                                                                                                        000000000000000000
F0010000006091100002000083050133900041450500000000000000000201407300002001VALTAC DEL CARIBE LTDA                            C000000002500000000000000000000000100010010000000000000000000000F0010000006091100220140730000101 00000000000000000000000000000000000000000000000000000000000000000000000000000000000000000000000000000000000000000N 00000000000NCONT   00    00000000000          00000000000000000000000000000000000000000000 000000000000000A000000000000000000000000000000000000000000000 000000000000000000000000000000000000000     00000000                                                                                                                        000000000000000000
F0010000006091100003000083050133900042505000000000000000000201407300002001VALTAC DEL CARIBE LTDA                            C000000000300000000000000000000000100010010000000000000000000000F0010000006091100320140730000101 00000000000000000000000000000000000000000000000000000000000000000000000000000000000000000000000000000000000000000N 00000000000NCONT   00    00000000000          00000000000000000000000000000000000000000000 000000000000000A000000000000000000000000000000000000000000000 000000000000000000000000000000000000000     00000000                                                                                                                        000000000000000000
F0010000006091100004000083050133900023658300000000000000000201407300002001VALTAC DEL CARIBE LTDA                            C000000000020000000000000000000000100010010000000000000000000000F0010000006091100420140730000101 00000000000000000000000000000000000000000000000000000000000000000000000000000000000000000000000000000000000000000N 00000000000NCONT   00    00000000000          00000000000000000000000000000000000000000000 000000000000000A000000000000000000000000000000000000000000000 000000000000000000000000000000000000000     00000000                                                                                                                        000000000000000000
F0010000006091100005000083050133900013552100000000000000000201407300002001VALTAC DEL CARIBE LTDA                            D000000000020000000000000000000000100010010000000000000000000000F0010000006091100520140730000101 00000000000000000000000000000000000000000000000000000000000000000000000000000000000000000000000000000000000000000N 00000000000NCONT   00    00000000000          00000000000000000000000000000000000000000000 000000000000000A000000000000000000000000000000000000000000000 000000000000000000000000000000000000000     00000000                                                                                                                        000000000000000000
F0010000006091200001000090034602400011050500000000000000000201407300002001LA CUSTODIA                                       D000000003500000000000000000000000100010010000000000000000000000F0010000006091200120140730000101 00000000000000000000000000000000000000000000000000000000000000000000000000000000000000000000000000000000000000000N 00000000000NCONT   00    00000000000          00000000000000000000000000000000000000000000 000000000000000A000000000000000000000000000000000000000000000 000000000000000000000000000000000000000     00000000                                                                                                                        000000000000000000
F0010000006091200002000090034602400041450500000000000000000201407300002001LA CUSTODIA                                       C000000003200000000000000000000000100010010000000000000000000000F0010000006091200220140730000101 00000000000000000000000000000000000000000000000000000000000000000000000000000000000000000000000000000000000000000N 00000000000NCONT   00    00000000000          00000000000000000000000000000000000000000000 000000000000000A000000000000000000000000000000000000000000000 000000000000000000000000000000000000000     00000000                                                                                                                        000000000000000000
F0010000006091200003000090034602400042505000000000000000000201407300002001LA CUSTODIA                                       C000000000300000000000000000000000100010010000000000000000000000F0010000006091200320140730000101 00000000000000000000000000000000000000000000000000000000000000000000000000000000000000000000000000000000000000000N 00000000000NCONT   00    00000000000          00000000000000000000000000000000000000000000 000000000000000A000000000000000000000000000000000000000000000 000000000000000000000000000000000000000     00000000                                                                                                                        000000000000000000
F0010000006091200004000090034602400023658300000000000000000201407300002001LA CUSTODIA                                       C000000000025600000000000000000000100010010000000000000000000000F0010000006091200420140730000101 00000000000000000000000000000000000000000000000000000000000000000000000000000000000000000000000000000000000000000N 00000000000NCONT   00    00000000000          00000000000000000000000000000000000000000000 000000000000000A000000000000000000000000000000000000000000000 000000000000000000000000000000000000000     00000000                                                                                                                        000000000000000000
F0010000006091200005000090034602400013552100000000000000000201407300002001LA CUSTODIA                                       D000000000025600000000000000000000100010010000000000000000000000F0010000006091200520140730000101 00000000000000000000000000000000000000000000000000000000000000000000000000000000000000000000000000000000000000000N 00000000000NCONT   00    00000000000          00000000000000000000000000000000000000000000 000000000000000A000000000000000000000000000000000000000000000 000000000000000000000000000000000000000     00000000                                                                                                                        000000000000000000
F0010000006091300001000007060237400011050500000000000000000201407300002001EDUARDO PALACIO                                   D000000000900000000000000000000000100010010000000000000000000000F0010000006091300120140730000101 00000000000000000000000000000000000000000000000000000000000000000000000000000000000000000000000000000000000000000N 00000000000NCONT   00    00000000000          00000000000000000000000000000000000000000000 000000000000000A000000000000000000000000000000000000000000000 000000000000000000000000000000000000000     00000000                                                                                                                        000000000000000000
F0010000006091300002000007060237400041450500000000000000000201407300002001EDUARDO PALACIO                                   C000000000800000000000000000000000100010010000000000000000000000F0010000006091300220140730000101 00000000000000000000000000000000000000000000000000000000000000000000000000000000000000000000000000000000000000000N 00000000000NCONT   00    00000000000          00000000000000000000000000000000000000000000 000000000000000A000000000000000000000000000000000000000000000 000000000000000000000000000000000000000     00000000                                                                                                                        000000000000000000
F0010000006091300003000007060237400042505000000000000000000201407300002001EDUARDO PALACIO                                   C000000000100000000000000000000000100010010000000000000000000000F0010000006091300320140730000101 00000000000000000000000000000000000000000000000000000000000000000000000000000000000000000000000000000000000000000N 00000000000NCONT   00    00000000000          00000000000000000000000000000000000000000000 000000000000000A000000000000000000000000000000000000000000000 000000000000000000000000000000000000000     00000000                                                                                                                        000000000000000000
F0010000006091300004000007060237400023658300000000000000000201407300002001EDUARDO PALACIO                                   C000000000006400000000000000000000100010010000000000000000000000F0010000006091300420140730000101 00000000000000000000000000000000000000000000000000000000000000000000000000000000000000000000000000000000000000000N 00000000000NCONT   00    00000000000          00000000000000000000000000000000000000000000 000000000000000A000000000000000000000000000000000000000000000 000000000000000000000000000000000000000     00000000                                                                                                                        000000000000000000
F0010000006091300005000007060237400013552100000000000000000201407300002001EDUARDO PALACIO                                   D000000000006400000000000000000000100010010000000000000000000000F0010000006091300520140730000101 00000000000000000000000000000000000000000000000000000000000000000000000000000000000000000000000000000000000000000N 00000000000NCONT   00    00000000000          00000000000000000000000000000000000000000000 000000000000000A000000000000000000000000000000000000000000000 000000000000000000000000000000000000000     00000000                                                                                                                        000000000000000000
F0010000006091400001000800022450800011050500000000000000000201407300002001CENTRAL DE HIERROS LTDA                           D000000062000000000000000000000000100010010000000000000000000000F0010000006091400120140730000101 00000000000000000000000000000000000000000000000000000000000000000000000000000000000000000000000000000000000000000N 00000000000NCONT   00    00000000000          00000000000000000000000000000000000000000000 000000000000000A000000000000000000000000000000000000000000000 000000000000000000000000000000000000000     00000000                                                                                                                        000000000000000000
F0010000006091400002000800022450800041450500000000000000000201407300002001CENTRAL DE HIERROS LTDA                           C000000060000000000000000000000000100010010000000000000000000000F0010000006091400220140730000101 00000000000000000000000000000000000000000000000000000000000000000000000000000000000000000000000000000000000000000N 00000000000NCONT   00    00000000000          00000000000000000000000000000000000000000000 000000000000000A000000000000000000000000000000000000000000000 000000000000000000000000000000000000000     00000000                                                                                                                        000000000000000000
F0010000006091400003000800022450800042505000000000000000000201407300002001CENTRAL DE HIERROS LTDA                           C000000002000000000000000000000000100010010000000000000000000000F0010000006091400320140730000101 00000000000000000000000000000000000000000000000000000000000000000000000000000000000000000000000000000000000000000N 00000000000NCONT   00    00000000000          00000000000000000000000000000000000000000000 000000000000000A000000000000000000000000000000000000000000000 000000000000000000000000000000000000000     00000000                                                                                                                        000000000000000000
F0010000006091400004000800022450800023658300000000000000000201407300002001CENTRAL DE HIERROS LTDA                           C000000000480000000000000000000000100010010000000000000000000000F0010000006091400420140730000101 00000000000000000000000000000000000000000000000000000000000000000000000000000000000000000000000000000000000000000N 00000000000NCONT   00    00000000000          00000000000000000000000000000000000000000000 000000000000000A000000000000000000000000000000000000000000000 000000000000000000000000000000000000000     00000000                                                                                                                        000000000000000000
F0010000006091400005000800022450800013552100000000000000000201407300002001CENTRAL DE HIERROS LTDA                           D000000000480000000000000000000000100010010000000000000000000000F0010000006091400520140730000101 00000000000000000000000000000000000000000000000000000000000000000000000000000000000000000000000000000000000000000N 00000000000NCONT   00    00000000000          00000000000000000000000000000000000000000000 000000000000000A000000000000000000000000000000000000000000000 000000000000000000000000000000000000000     00000000                                                                                                                        000000000000000000
F0010000006091500001000089040474000011050500000000000000000201407300002001INSA LTDA                                         D000000001000000000000000000000000100010010000000000000000000000F0010000006091500120140730000101 00000000000000000000000000000000000000000000000000000000000000000000000000000000000000000000000000000000000000000N 00000000000NCONT   00    00000000000          00000000000000000000000000000000000000000000 000000000000000A000000000000000000000000000000000000000000000 000000000000000000000000000000000000000     00000000                                                                                                                        000000000000000000
F0010000006091500002000089040474000041450500000000000000000201407300002001INSA LTDA                                         C000000000500000000000000000000000100010010000000000000000000000F0010000006091500220140730000101 00000000000000000000000000000000000000000000000000000000000000000000000000000000000000000000000000000000000000000N 00000000000NCONT   00    00000000000          00000000000000000000000000000000000000000000 000000000000000A000000000000000000000000000000000000000000000 000000000000000000000000000000000000000     00000000                                                                                                                        000000000000000000
F0010000006091500003000089040474000042505000000000000000000201407300002001INSA LTDA                                         C000000000500000000000000000000000100010010000000000000000000000F0010000006091500320140730000101 00000000000000000000000000000000000000000000000000000000000000000000000000000000000000000000000000000000000000000N 00000000000NCONT   00    00000000000          00000000000000000000000000000000000000000000 000000000000000A000000000000000000000000000000000000000000000 000000000000000000000000000000000000000     00000000                                                                                                                        000000000000000000
F0010000006091500004000089040474000023658300000000000000000201407300002001INSA LTDA                                         C000000000004000000000000000000000100010010000000000000000000000F0010000006091500420140730000101 00000000000000000000000000000000000000000000000000000000000000000000000000000000000000000000000000000000000000000N 00000000000NCONT   00    00000000000          00000000000000000000000000000000000000000000 000000000000000A000000000000000000000000000000000000000000000 000000000000000000000000000000000000000     00000000                                                                                                                        000000000000000000
F0010000006091500005000089040474000013552100000000000000000201407300002001INSA LTDA                                         D000000000004000000000000000000000100010010000000000000000000000F0010000006091500520140730000101 00000000000000000000000000000000000000000000000000000000000000000000000000000000000000000000000000000000000000000N 00000000000NCONT   00    00000000000          00000000000000000000000000000000000000000000 000000000000000A000000000000000000000000000000000000000000000 000000000000000000000000000000000000000     00000000                                                                                                                        000000000000000000
F0010000006091600001000000257193600011050500000000000000000201407300002001OSCAR YALI PLAZA                                  D000000001400000000000000000000000100010010000000000000000000000F0010000006091600120140730000101 00000000000000000000000000000000000000000000000000000000000000000000000000000000000000000000000000000000000000000N 00000000000NCONT   00    00000000000          00000000000000000000000000000000000000000000 000000000000000A000000000000000000000000000000000000000000000 000000000000000000000000000000000000000     00000000                                                                                                                        000000000000000000
F0010000006091600002000000257193600041450500000000000000000201407300002001OSCAR YALI PLAZA                                  C000000001300000000000000000000000100010010000000000000000000000F0010000006091600220140730000101 00000000000000000000000000000000000000000000000000000000000000000000000000000000000000000000000000000000000000000N 00000000000NCONT   00    00000000000          00000000000000000000000000000000000000000000 000000000000000A000000000000000000000000000000000000000000000 000000000000000000000000000000000000000     00000000                                                                                                                        000000000000000000
F0010000006091600003000000257193600042505000000000000000000201407300002001OSCAR YALI PLAZA                                  C000000000100000000000000000000000100010010000000000000000000000F0010000006091600320140730000101 00000000000000000000000000000000000000000000000000000000000000000000000000000000000000000000000000000000000000000N 00000000000NCONT   00    00000000000          00000000000000000000000000000000000000000000 000000000000000A000000000000000000000000000000000000000000000 000000000000000000000000000000000000000     00000000                                                                                                                        000000000000000000
F0010000006091600004000000257193600023658300000000000000000201407300002001OSCAR YALI PLAZA                                  C000000000010400000000000000000000100010010000000000000000000000F0010000006091600420140730000101 00000000000000000000000000000000000000000000000000000000000000000000000000000000000000000000000000000000000000000N 00000000000NCONT   00    00000000000          00000000000000000000000000000000000000000000 000000000000000A000000000000000000000000000000000000000000000 000000000000000000000000000000000000000     00000000                                                                                                                        000000000000000000
F0010000006091600005000000257193600013552100000000000000000201407300002001OSCAR YALI PLAZA                                  D000000000010400000000000000000000100010010000000000000000000000F0010000006091600520140730000101 00000000000000000000000000000000000000000000000000000000000000000000000000000000000000000000000000000000000000000N 00000000000NCONT   00    00000000000          00000000000000000000000000000000000000000000 000000000000000A000000000000000000000000000000000000000000000 000000000000000000000000000000000000000     00000000                                                                                                                        000000000000000000
F0010000006091700001000000257193600011050500000000000000000201407300002001DISTRIBUCIONES YALY                               D000000001400000000000000000000000100010010000000000000000000000F0010000006091700120140730000101 00000000000000000000000000000000000000000000000000000000000000000000000000000000000000000000000000000000000000000N 00000000000NCONT   00    00000000000          00000000000000000000000000000000000000000000 000000000000000A000000000000000000000000000000000000000000000 000000000000000000000000000000000000000     00000000                                                                                                                        000000000000000000
F0010000006091700002000000257193600041450500000000000000000201407300002001DISTRIBUCIONES YALY                               C000000001300000000000000000000000100010010000000000000000000000F0010000006091700220140730000101 00000000000000000000000000000000000000000000000000000000000000000000000000000000000000000000000000000000000000000N 00000000000NCONT   00    00000000000          00000000000000000000000000000000000000000000 000000000000000A000000000000000000000000000000000000000000000 000000000000000000000000000000000000000     00000000                                                                                                                        000000000000000000
F0010000006091700003000000257193600042505000000000000000000201407300002001DISTRIBUCIONES YALY                               C000000000100000000000000000000000100010010000000000000000000000F0010000006091700320140730000101 00000000000000000000000000000000000000000000000000000000000000000000000000000000000000000000000000000000000000000N 00000000000NCONT   00    00000000000          00000000000000000000000000000000000000000000 000000000000000A000000000000000000000000000000000000000000000 000000000000000000000000000000000000000     00000000                                                                                                                        000000000000000000
F0010000006091700004000000257193600023658300000000000000000201407300002001DISTRIBUCIONES YALY                               C000000000010400000000000000000000100010010000000000000000000000F0010000006091700420140730000101 00000000000000000000000000000000000000000000000000000000000000000000000000000000000000000000000000000000000000000N 00000000000NCONT   00    00000000000          00000000000000000000000000000000000000000000 000000000000000A000000000000000000000000000000000000000000000 000000000000000000000000000000000000000     00000000                                                                                                                        000000000000000000
F0010000006091700005000000257193600013552100000000000000000201407300002001DISTRIBUCIONES YALY                               D000000000010400000000000000000000100010010000000000000000000000F0010000006091700520140730000101 00000000000000000000000000000000000000000000000000000000000000000000000000000000000000000000000000000000000000000N 00000000000NCONT   00    00000000000          00000000000000000000000000000000000000000000 000000000000000A000000000000000000000000000000000000000000000 000000000000000000000000000000000000000     00000000                                                                                                                        000000000000000000
F0010000006091800001000001502923600011050500000000000000000201407300002001ALCIDES MARTINEZ                                  D000000001800000000000000000000000100010010000000000000000000000F0010000006091800120140730000101 00000000000000000000000000000000000000000000000000000000000000000000000000000000000000000000000000000000000000000N 00000000000NCONT   00    00000000000          00000000000000000000000000000000000000000000 000000000000000A000000000000000000000000000000000000000000000 000000000000000000000000000000000000000     00000000                                                                                                                        000000000000000000
F0010000006091800002000001502923600041450500000000000000000201407300002001ALCIDES MARTINEZ                                  C000000001000000000000000000000000100010010000000000000000000000F0010000006091800220140730000101 00000000000000000000000000000000000000000000000000000000000000000000000000000000000000000000000000000000000000000N 00000000000NCONT   00    00000000000          00000000000000000000000000000000000000000000 000000000000000A000000000000000000000000000000000000000000000 000000000000000000000000000000000000000     00000000                                                                                                                        000000000000000000
F0010000006091800003000001502923600042505000000000000000000201407300002001ALCIDES MARTINEZ                                  C000000000800000000000000000000000100010010000000000000000000000F0010000006091800320140730000101 00000000000000000000000000000000000000000000000000000000000000000000000000000000000000000000000000000000000000000N 00000000000NCONT   00    00000000000          00000000000000000000000000000000000000000000 000000000000000A000000000000000000000000000000000000000000000 000000000000000000000000000000000000000     00000000                                                                                                                        000000000000000000
F0010000006091800004000001502923600023658300000000000000000201407300002001ALCIDES MARTINEZ                                  C000000000008000000000000000000000100010010000000000000000000000F0010000006091800420140730000101 00000000000000000000000000000000000000000000000000000000000000000000000000000000000000000000000000000000000000000N 00000000000NCONT   00    00000000000          00000000000000000000000000000000000000000000 000000000000000A000000000000000000000000000000000000000000000 000000000000000000000000000000000000000     00000000                                                                                                                        000000000000000000
F0010000006091800005000001502923600013552100000000000000000201407300002001ALCIDES MARTINEZ                                  D000000000008000000000000000000000100010010000000000000000000000F0010000006091800520140730000101 00000000000000000000000000000000000000000000000000000000000000000000000000000000000000000000000000000000000000000N 00000000000NCONT   00    00000000000          00000000000000000000000000000000000000000000 000000000000000A000000000000000000000000000000000000000000000 000000000000000000000000000000000000000     00000000                                                                                                                        000000000000000000
F0010000006091900001000003207718300011050500000000000000000201407300002001GILMA RAMIREZ                                     D000000003000000000000000000000000100010010000000000000000000000F0010000006091900120140730000101 00000000000000000000000000000000000000000000000000000000000000000000000000000000000000000000000000000000000000000N 00000000000NCONT   00    00000000000          00000000000000000000000000000000000000000000 000000000000000A000000000000000000000000000000000000000000000 000000000000000000000000000000000000000     00000000                                                                                                                        000000000000000000
F0010000006091900002000003207718300041450500000000000000000201407300002001GILMA RAMIREZ                                     C000000002400000000000000000000000100010010000000000000000000000F0010000006091900220140730000101 00000000000000000000000000000000000000000000000000000000000000000000000000000000000000000000000000000000000000000N 00000000000NCONT   00    00000000000          00000000000000000000000000000000000000000000 000000000000000A000000000000000000000000000000000000000000000 000000000000000000000000000000000000000     00000000                                                                                                                        000000000000000000
F0010000006091900003000003207718300042505000000000000000000201407300002001GILMA RAMIREZ                                     C000000000600000000000000000000000100010010000000000000000000000F0010000006091900320140730000101 00000000000000000000000000000000000000000000000000000000000000000000000000000000000000000000000000000000000000000N 00000000000NCONT   00    00000000000          00000000000000000000000000000000000000000000 000000000000000A000000000000000000000000000000000000000000000 000000000000000000000000000000000000000     00000000                                                                                                                        000000000000000000
F0010000006091900004000003207718300023658300000000000000000201407300002001GILMA RAMIREZ                                     C000000000019200000000000000000000100010010000000000000000000000F0010000006091900420140730000101 00000000000000000000000000000000000000000000000000000000000000000000000000000000000000000000000000000000000000000N 00000000000NCONT   00    00000000000          00000000000000000000000000000000000000000000 000000000000000A000000000000000000000000000000000000000000000 000000000000000000000000000000000000000     00000000                                                                                                                        000000000000000000
F0010000006091900005000003207718300013552100000000000000000201407300002001GILMA RAMIREZ                                     D000000000019200000000000000000000100010010000000000000000000000F0010000006091900520140730000101 00000000000000000000000000000000000000000000000000000000000000000000000000000000000000000000000000000000000000000N 00000000000NCONT   00    00000000000          00000000000000000000000000000000000000000000 000000000000000A000000000000000000000000000000000000000000000 000000000000000000000000000000000000000     00000000                                                                                                                        000000000000000000
F0010000006092000001000003207718300011050500000000000000000201407300002001GILMA RAMIREZ                                     D000000006000000000000000000000000100010010000000000000000000000F0010000006092000120140730000101 00000000000000000000000000000000000000000000000000000000000000000000000000000000000000000000000000000000000000000N 00000000000NCONT   00    00000000000          00000000000000000000000000000000000000000000 000000000000000A000000000000000000000000000000000000000000000 000000000000000000000000000000000000000     00000000                                                                                                                        000000000000000000
F0010000006092000002000003207718300041450500000000000000000201407300002001GILMA RAMIREZ                                     C000000004800000000000000000000000100010010000000000000000000000F0010000006092000220140730000101 00000000000000000000000000000000000000000000000000000000000000000000000000000000000000000000000000000000000000000N 00000000000NCONT   00    00000000000          00000000000000000000000000000000000000000000 000000000000000A000000000000000000000000000000000000000000000 000000000000000000000000000000000000000     00000000                                                                                                                        000000000000000000
F0010000006092000003000003207718300042505000000000000000000201407300002001GILMA RAMIREZ                                     C000000001200000000000000000000000100010010000000000000000000000F0010000006092000320140730000101 00000000000000000000000000000000000000000000000000000000000000000000000000000000000000000000000000000000000000000N 00000000000NCONT   00    00000000000          00000000000000000000000000000000000000000000 000000000000000A000000000000000000000000000000000000000000000 000000000000000000000000000000000000000     00000000                                                                                                                        000000000000000000
F0010000006092000004000003207718300023658300000000000000000201407300002001GILMA RAMIREZ                                     C000000000038400000000000000000000100010010000000000000000000000F0010000006092000420140730000101 00000000000000000000000000000000000000000000000000000000000000000000000000000000000000000000000000000000000000000N 00000000000NCONT   00    00000000000          00000000000000000000000000000000000000000000 000000000000000A000000000000000000000000000000000000000000000 000000000000000000000000000000000000000     00000000                                                                                                                        000000000000000000
F0010000006092000005000003207718300013552100000000000000000201407300002001GILMA RAMIREZ                                     D000000000038400000000000000000000100010010000000000000000000000F0010000006092000520140730000101 00000000000000000000000000000000000000000000000000000000000000000000000000000000000000000000000000000000000000000N 00000000000NCONT   00    00000000000          00000000000000000000000000000000000000000000 000000000000000A000000000000000000000000000000000000000000000 000000000000000000000000000000000000000     00000000                                                                                                                        000000000000000000
F0010000006092100001000003207718300011050500000000000000000201407300002001GILMA RAMIREZ                                     D000000005000000000000000000000000100010010000000000000000000000F0010000006092100120140730000101 00000000000000000000000000000000000000000000000000000000000000000000000000000000000000000000000000000000000000000N 00000000000NCONT   00    00000000000          00000000000000000000000000000000000000000000 000000000000000A000000000000000000000000000000000000000000000 000000000000000000000000000000000000000     00000000                                                                                                                        000000000000000000
F0010000006092100002000003207718300041450500000000000000000201407300002001GILMA RAMIREZ                                     C000000004500000000000000000000000100010010000000000000000000000F0010000006092100220140730000101 00000000000000000000000000000000000000000000000000000000000000000000000000000000000000000000000000000000000000000N 00000000000NCONT   00    00000000000          00000000000000000000000000000000000000000000 000000000000000A000000000000000000000000000000000000000000000 000000000000000000000000000000000000000     00000000                                                                                                                        000000000000000000
F0010000006092100003000003207718300042505000000000000000000201407300002001GILMA RAMIREZ                                     C000000000500000000000000000000000100010010000000000000000000000F0010000006092100320140730000101 00000000000000000000000000000000000000000000000000000000000000000000000000000000000000000000000000000000000000000N 00000000000NCONT   00    00000000000          00000000000000000000000000000000000000000000 000000000000000A000000000000000000000000000000000000000000000 000000000000000000000000000000000000000     00000000                                                                                                                        000000000000000000
F0010000006092100004000003207718300023658300000000000000000201407300002001GILMA RAMIREZ                                     C000000000036000000000000000000000100010010000000000000000000000F0010000006092100420140730000101 00000000000000000000000000000000000000000000000000000000000000000000000000000000000000000000000000000000000000000N 00000000000NCONT   00    00000000000          00000000000000000000000000000000000000000000 000000000000000A000000000000000000000000000000000000000000000 000000000000000000000000000000000000000     00000000                                                                                                                        000000000000000000
F0010000006092100005000003207718300013552100000000000000000201407300002001GILMA RAMIREZ                                     D000000000036000000000000000000000100010010000000000000000000000F0010000006092100520140730000101 00000000000000000000000000000000000000000000000000000000000000000000000000000000000000000000000000000000000000000N 00000000000NCONT   00    00000000000          00000000000000000000000000000000000000000000 000000000000000A000000000000000000000000000000000000000000000 000000000000000000000000000000000000000     00000000                                                                                                                        000000000000000000
F0010000006092200001000007314066700011050500000000000000000201407300002001RICARDO  ESTRADA ..                               D000000004000000000000000000000000100010010000000000000000000000F0010000006092200120140730000101 00000000000000000000000000000000000000000000000000000000000000000000000000000000000000000000000000000000000000000N 00000000000NCONT   00    00000000000          00000000000000000000000000000000000000000000 000000000000000A000000000000000000000000000000000000000000000 000000000000000000000000000000000000000     00000000                                                                                                                        000000000000000000
F0010000006092200002000007314066700041450500000000000000000201407300002001RICARDO  ESTRADA ..                               C000000003500000000000000000000000100010010000000000000000000000F0010000006092200220140730000101 00000000000000000000000000000000000000000000000000000000000000000000000000000000000000000000000000000000000000000N 00000000000NCONT   00    00000000000          00000000000000000000000000000000000000000000 000000000000000A000000000000000000000000000000000000000000000 000000000000000000000000000000000000000     00000000                                                                                                                        000000000000000000
F0010000006092200003000007314066700042505000000000000000000201407300002001RICARDO  ESTRADA ..                               C000000000500000000000000000000000100010010000000000000000000000F0010000006092200320140730000101 00000000000000000000000000000000000000000000000000000000000000000000000000000000000000000000000000000000000000000N 00000000000NCONT   00    00000000000          00000000000000000000000000000000000000000000 000000000000000A000000000000000000000000000000000000000000000 000000000000000000000000000000000000000     00000000                                                                                                                        000000000000000000
F0010000006092200004000007314066700023658300000000000000000201407300002001RICARDO  ESTRADA ..                               C000000000028000000000000000000000100010010000000000000000000000F0010000006092200420140730000101 00000000000000000000000000000000000000000000000000000000000000000000000000000000000000000000000000000000000000000N 00000000000NCONT   00    00000000000          00000000000000000000000000000000000000000000 000000000000000A000000000000000000000000000000000000000000000 000000000000000000000000000000000000000     00000000                                                                                                                        000000000000000000
F0010000006092200005000007314066700013552100000000000000000201407300002001RICARDO  ESTRADA ..                               D000000000028000000000000000000000100010010000000000000000000000F0010000006092200520140730000101 00000000000000000000000000000000000000000000000000000000000000000000000000000000000000000000000000000000000000000N 00000000000NCONT   00    00000000000          00000000000000000000000000000000000000000000 000000000000000A000000000000000000000000000000000000000000000 000000000000000000000000000000000000000     00000000                                                                                                                        000000000000000000
F0010000006092300001000005525050200011050500000000000000000201407300002001PLASTICOS  DE LA COSTA                            D000000002100000000000000000000000100010010000000000000000000000F0010000006092300120140730000101 00000000000000000000000000000000000000000000000000000000000000000000000000000000000000000000000000000000000000000N 00000000000NCONT   00    00000000000          00000000000000000000000000000000000000000000 000000000000000A000000000000000000000000000000000000000000000 000000000000000000000000000000000000000     00000000                                                                                                                        000000000000000000
F0010000006092300002000005525050200041450500000000000000000201407300002001PLASTICOS  DE LA COSTA                            C000000002000000000000000000000000100010010000000000000000000000F0010000006092300220140730000101 00000000000000000000000000000000000000000000000000000000000000000000000000000000000000000000000000000000000000000N 00000000000NCONT   00    00000000000          00000000000000000000000000000000000000000000 000000000000000A000000000000000000000000000000000000000000000 000000000000000000000000000000000000000     00000000                                                                                                                        000000000000000000
F0010000006092300003000005525050200042505000000000000000000201407300002001PLASTICOS  DE LA COSTA                            C000000000100000000000000000000000100010010000000000000000000000F0010000006092300320140730000101 00000000000000000000000000000000000000000000000000000000000000000000000000000000000000000000000000000000000000000N 00000000000NCONT   00    00000000000          00000000000000000000000000000000000000000000 000000000000000A000000000000000000000000000000000000000000000 000000000000000000000000000000000000000     00000000                                                                                                                        000000000000000000
F0010000006092300004000005525050200023658300000000000000000201407300002001PLASTICOS  DE LA COSTA                            C000000000016000000000000000000000100010010000000000000000000000F0010000006092300420140730000101 00000000000000000000000000000000000000000000000000000000000000000000000000000000000000000000000000000000000000000N 00000000000NCONT   00    00000000000          00000000000000000000000000000000000000000000 000000000000000A000000000000000000000000000000000000000000000 000000000000000000000000000000000000000     00000000                                                                                                                        000000000000000000
F0010000006092300005000005525050200013552100000000000000000201407300002001PLASTICOS  DE LA COSTA                            D000000000016000000000000000000000100010010000000000000000000000F0010000006092300520140730000101 00000000000000000000000000000000000000000000000000000000000000000000000000000000000000000000000000000000000000000N 00000000000NCONT   00    00000000000          00000000000000000000000000000000000000000000 000000000000000A000000000000000000000000000000000000000000000 000000000000000000000000000000000000000     00000000                                                                                                                        000000000000000000
F0010000006092400001000003900336900011050500000000000000000201407300002001LUISA FERNANDA BOLAñOS                           D000000003000000000000000000000000100010010000000000000000000000F0010000006092400120140730000101 00000000000000000000000000000000000000000000000000000000000000000000000000000000000000000000000000000000000000000N 00000000000NCONT   00    00000000000          00000000000000000000000000000000000000000000 000000000000000A000000000000000000000000000000000000000000000 000000000000000000000000000000000000000     00000000                                                                                                                        000000000000000000
F0010000006092400002000003900336900041450500000000000000000201407300002001LUISA FERNANDA BOLAñOS                           C000000002500000000000000000000000100010010000000000000000000000F0010000006092400220140730000101 00000000000000000000000000000000000000000000000000000000000000000000000000000000000000000000000000000000000000000N 00000000000NCONT   00    00000000000          00000000000000000000000000000000000000000000 000000000000000A000000000000000000000000000000000000000000000 000000000000000000000000000000000000000     00000000                                                                                                                        000000000000000000
F0010000006092400003000003900336900042505000000000000000000201407300002001LUISA FERNANDA BOLAñOS                           C000000000500000000000000000000000100010010000000000000000000000F0010000006092400320140730000101 00000000000000000000000000000000000000000000000000000000000000000000000000000000000000000000000000000000000000000N 00000000000NCONT   00    00000000000          00000000000000000000000000000000000000000000 000000000000000A000000000000000000000000000000000000000000000 000000000000000000000000000000000000000     00000000                                                                                                                        000000000000000000
F0010000006092400004000003900336900023658300000000000000000201407300002001LUISA FERNANDA BOLAñOS                           C000000000020000000000000000000000100010010000000000000000000000F0010000006092400420140730000101 00000000000000000000000000000000000000000000000000000000000000000000000000000000000000000000000000000000000000000N 00000000000NCONT   00    00000000000          00000000000000000000000000000000000000000000 000000000000000A000000000000000000000000000000000000000000000 000000000000000000000000000000000000000     00000000                                                                                                                        000000000000000000
F0010000006092400005000003900336900013552100000000000000000201407300002001LUISA FERNANDA BOLAñOS                           D000000000020000000000000000000000100010010000000000000000000000F0010000006092400520140730000101 00000000000000000000000000000000000000000000000000000000000000000000000000000000000000000000000000000000000000000N 00000000000NCONT   00    00000000000          00000000000000000000000000000000000000000000 000000000000000A000000000000000000000000000000000000000000000 000000000000000000000000000000000000000     00000000                                                                                                                        000000000000000000
F0010000006092500001000007226808500011050500000000000000000201407300002001MEGA BLUMER                                       D000000002600000000000000000000000100010010000000000000000000000F0010000006092500120140730000101 00000000000000000000000000000000000000000000000000000000000000000000000000000000000000000000000000000000000000000N 00000000000NCONT   00    00000000000          00000000000000000000000000000000000000000000 000000000000000A000000000000000000000000000000000000000000000 000000000000000000000000000000000000000     00000000                                                                                                                        000000000000000000
F0010000006092500002000007226808500041450500000000000000000201407300002001MEGA BLUMER                                       C000000002400000000000000000000000100010010000000000000000000000F0010000006092500220140730000101 00000000000000000000000000000000000000000000000000000000000000000000000000000000000000000000000000000000000000000N 00000000000NCONT   00    00000000000          00000000000000000000000000000000000000000000 000000000000000A000000000000000000000000000000000000000000000 000000000000000000000000000000000000000     00000000                                                                                                                        000000000000000000
F0010000006092500003000007226808500042505000000000000000000201407300002001MEGA BLUMER                                       C000000000200000000000000000000000100010010000000000000000000000F0010000006092500320140730000101 00000000000000000000000000000000000000000000000000000000000000000000000000000000000000000000000000000000000000000N 00000000000NCONT   00    00000000000          00000000000000000000000000000000000000000000 000000000000000A000000000000000000000000000000000000000000000 000000000000000000000000000000000000000     00000000                                                                                                                        000000000000000000
F0010000006092500004000007226808500023658300000000000000000201407300002001MEGA BLUMER                                       C000000000019200000000000000000000100010010000000000000000000000F0010000006092500420140730000101 00000000000000000000000000000000000000000000000000000000000000000000000000000000000000000000000000000000000000000N 00000000000NCONT   00    00000000000          00000000000000000000000000000000000000000000 000000000000000A000000000000000000000000000000000000000000000 000000000000000000000000000000000000000     00000000                                                                                                                        000000000000000000
F0010000006092500005000007226808500013552100000000000000000201407300002001MEGA BLUMER                                       D000000000019200000000000000000000100010010000000000000000000000F0010000006092500520140730000101 00000000000000000000000000000000000000000000000000000000000000000000000000000000000000000000000000000000000000000N 00000000000NCONT   00    00000000000          00000000000000000000000000000000000000000000 000000000000000A000000000000000000000000000000000000000000000 000000000000000000000000000000000000000     00000000                                                                                                                        000000000000000000
F0010000006092600001000007226808500011050500000000000000000201407300002001MEGA BLUMER                                       D000000001300000000000000000000000100010010000000000000000000000F0010000006092600120140730000101 00000000000000000000000000000000000000000000000000000000000000000000000000000000000000000000000000000000000000000N 00000000000NCONT   00    00000000000          00000000000000000000000000000000000000000000 000000000000000A000000000000000000000000000000000000000000000 000000000000000000000000000000000000000     00000000                                                                                                                        000000000000000000
F0010000006092600002000007226808500041450500000000000000000201407300002001MEGA BLUMER                                       C000000001200000000000000000000000100010010000000000000000000000F0010000006092600220140730000101 00000000000000000000000000000000000000000000000000000000000000000000000000000000000000000000000000000000000000000N 00000000000NCONT   00    00000000000          00000000000000000000000000000000000000000000 000000000000000A000000000000000000000000000000000000000000000 000000000000000000000000000000000000000     00000000                                                                                                                        000000000000000000
F0010000006092600003000007226808500042505000000000000000000201407300002001MEGA BLUMER                                       C000000000100000000000000000000000100010010000000000000000000000F0010000006092600320140730000101 00000000000000000000000000000000000000000000000000000000000000000000000000000000000000000000000000000000000000000N 00000000000NCONT   00    00000000000          00000000000000000000000000000000000000000000 000000000000000A000000000000000000000000000000000000000000000 000000000000000000000000000000000000000     00000000                                                                                                                        000000000000000000
F0010000006092600004000007226808500023658300000000000000000201407300002001MEGA BLUMER                                       C000000000009600000000000000000000100010010000000000000000000000F0010000006092600420140730000101 00000000000000000000000000000000000000000000000000000000000000000000000000000000000000000000000000000000000000000N 00000000000NCONT   00    00000000000          00000000000000000000000000000000000000000000 000000000000000A000000000000000000000000000000000000000000000 000000000000000000000000000000000000000     00000000                                                                                                                        000000000000000000
F0010000006092600005000007226808500013552100000000000000000201407300002001MEGA BLUMER                                       D000000000009600000000000000000000100010010000000000000000000000F0010000006092600520140730000101 00000000000000000000000000000000000000000000000000000000000000000000000000000000000000000000000000000000000000000N 00000000000NCONT   00    00000000000          00000000000000000000000000000000000000000000 000000000000000A000000000000000000000000000000000000000000000 000000000000000000000000000000000000000     00000000                                                                                                                        000000000000000000
F0010000006092700001000007226808500011050500000000000000000201407300002001MEGA BLUMER                                       D000000002800000000000000000000000100010010000000000000000000000F0010000006092700120140730000101 00000000000000000000000000000000000000000000000000000000000000000000000000000000000000000000000000000000000000000N 00000000000NCONT   00    00000000000          00000000000000000000000000000000000000000000 000000000000000A000000000000000000000000000000000000000000000 000000000000000000000000000000000000000     00000000                                                                                                                        000000000000000000
F0010000006092700002000007226808500041450500000000000000000201407300002001MEGA BLUMER                                       C000000002600000000000000000000000100010010000000000000000000000F0010000006092700220140730000101 00000000000000000000000000000000000000000000000000000000000000000000000000000000000000000000000000000000000000000N 00000000000NCONT   00    00000000000          00000000000000000000000000000000000000000000 000000000000000A000000000000000000000000000000000000000000000 000000000000000000000000000000000000000     00000000                                                                                                                        000000000000000000
F0010000006092700003000007226808500042505000000000000000000201407300002001MEGA BLUMER                                       C000000000200000000000000000000000100010010000000000000000000000F0010000006092700320140730000101 00000000000000000000000000000000000000000000000000000000000000000000000000000000000000000000000000000000000000000N 00000000000NCONT   00    00000000000          00000000000000000000000000000000000000000000 000000000000000A000000000000000000000000000000000000000000000 000000000000000000000000000000000000000     00000000                                                                                                                        000000000000000000
F0010000006092700004000007226808500023658300000000000000000201407300002001MEGA BLUMER                                       C000000000020800000000000000000000100010010000000000000000000000F0010000006092700420140730000101 00000000000000000000000000000000000000000000000000000000000000000000000000000000000000000000000000000000000000000N 00000000000NCONT   00    00000000000          00000000000000000000000000000000000000000000 000000000000000A000000000000000000000000000000000000000000000 000000000000000000000000000000000000000     00000000                                                                                                                        000000000000000000
F0010000006092700005000007226808500013552100000000000000000201407300002001MEGA BLUMER                                       D000000000020800000000000000000000100010010000000000000000000000F0010000006092700520140730000101 00000000000000000000000000000000000000000000000000000000000000000000000000000000000000000000000000000000000000000N 00000000000NCONT   00    00000000000          00000000000000000000000000000000000000000000 000000000000000A000000000000000000000000000000000000000000000 000000000000000000000000000000000000000     00000000                                                                                                                        000000000000000000
F0010000006092800001000007226808500011050500000000000000000201407300002001MEGA BLUMER                                       D000000002800000000000000000000000100010010000000000000000000000F0010000006092800120140730000101 00000000000000000000000000000000000000000000000000000000000000000000000000000000000000000000000000000000000000000N 00000000000NCONT   00    00000000000          00000000000000000000000000000000000000000000 000000000000000A000000000000000000000000000000000000000000000 000000000000000000000000000000000000000     00000000                                                                                                                        000000000000000000
F0010000006092800002000007226808500041450500000000000000000201407300002001MEGA BLUMER                                       C000000002600000000000000000000000100010010000000000000000000000F0010000006092800220140730000101 00000000000000000000000000000000000000000000000000000000000000000000000000000000000000000000000000000000000000000N 00000000000NCONT   00    00000000000          00000000000000000000000000000000000000000000 000000000000000A000000000000000000000000000000000000000000000 000000000000000000000000000000000000000     00000000                                                                                                                        000000000000000000
F0010000006092800003000007226808500042505000000000000000000201407300002001MEGA BLUMER                                       C000000000200000000000000000000000100010010000000000000000000000F0010000006092800320140730000101 00000000000000000000000000000000000000000000000000000000000000000000000000000000000000000000000000000000000000000N 00000000000NCONT   00    00000000000          00000000000000000000000000000000000000000000 000000000000000A000000000000000000000000000000000000000000000 000000000000000000000000000000000000000     00000000                                                                                                                        000000000000000000
F0010000006092800004000007226808500023658300000000000000000201407300002001MEGA BLUMER                                       C000000000020800000000000000000000100010010000000000000000000000F0010000006092800420140730000101 00000000000000000000000000000000000000000000000000000000000000000000000000000000000000000000000000000000000000000N 00000000000NCONT   00    00000000000          00000000000000000000000000000000000000000000 000000000000000A000000000000000000000000000000000000000000000 000000000000000000000000000000000000000     00000000                                                                                                                        000000000000000000
F0010000006092800005000007226808500013552100000000000000000201407300002001MEGA BLUMER                                       D000000000020800000000000000000000100010010000000000000000000000F0010000006092800520140730000101 00000000000000000000000000000000000000000000000000000000000000000000000000000000000000000000000000000000000000000N 00000000000NCONT   00    00000000000          00000000000000000000000000000000000000000000 000000000000000A000000000000000000000000000000000000000000000 000000000000000000000000000000000000000     00000000                                                                                                                        000000000000000000
F0010000006092900001000086000259000011050500000000000000000201407300002001BRENNTAG COLOMBIA S.A.                            D000000007060000000000000000000000100010010000000000000000000000F0010000006092900120140730000101 00000000000000000000000000000000000000000000000000000000000000000000000000000000000000000000000000000000000000000N 00000000000NCONT   00    00000000000          00000000000000000000000000000000000000000000 000000000000000A000000000000000000000000000000000000000000000 000000000000000000000000000000000000000     00000000                                                                                                                        000000000000000000
F0010000006092900002000086000259000041450500000000000000000201407300002001BRENNTAG COLOMBIA S.A.                            C000000006930000000000000000000000100010010000000000000000000000F0010000006092900220140730000101 00000000000000000000000000000000000000000000000000000000000000000000000000000000000000000000000000000000000000000N 00000000000NCONT   00    00000000000          00000000000000000000000000000000000000000000 000000000000000A000000000000000000000000000000000000000000000 000000000000000000000000000000000000000     00000000                                                                                                                        000000000000000000
F0010000006092900003000086000259000042505000000000000000000201407300002001BRENNTAG COLOMBIA S.A.                            C000000000130000000000000000000000100010010000000000000000000000F0010000006092900320140730000101 00000000000000000000000000000000000000000000000000000000000000000000000000000000000000000000000000000000000000000N 00000000000NCONT   00    00000000000          00000000000000000000000000000000000000000000 000000000000000A000000000000000000000000000000000000000000000 000000000000000000000000000000000000000     00000000                                                                                                                        000000000000000000
F0010000006092900004000086000259000023658300000000000000000201407300002001BRENNTAG COLOMBIA S.A.                            C000000000055400000000000000000000100010010000000000000000000000F0010000006092900420140730000101 00000000000000000000000000000000000000000000000000000000000000000000000000000000000000000000000000000000000000000N 00000000000NCONT   00    00000000000          00000000000000000000000000000000000000000000 000000000000000A000000000000000000000000000000000000000000000 000000000000000000000000000000000000000     00000000                                                                                                                        000000000000000000
F0010000006092900005000086000259000013552100000000000000000201407300002001BRENNTAG COLOMBIA S.A.                            D000000000055400000000000000000000100010010000000000000000000000F0010000006092900520140730000101 00000000000000000000000000000000000000000000000000000000000000000000000000000000000000000000000000000000000000000N 00000000000NCONT   00    00000000000          00000000000000000000000000000000000000000000 000000000000000A000000000000000000000000000000000000000000000 000000000000000000000000000000000000000     00000000                                                                                                                        000000000000000000
F0010000006093000001000003263562600011050500000000000000000201407300002001LOCAL 50 - MERCEDES ARAGUREN DE CHADID (MANUEL CHAD000000001000000000000000000000000100010010000000000000000000000F0010000006093000120140730000101 00000000000000000000000000000000000000000000000000000000000000000000000000000000000000000000000000000000000000000N 00000000000NCONT   00    00000000000          00000000000000000000000000000000000000000000 000000000000000A000000000000000000000000000000000000000000000 000000000000000000000000000000000000000     00000000                                                                                                                        000000000000000000
F0010000006093000002000003263562600041450500000000000000000201407300002001LOCAL 50 - MERCEDES ARAGUREN DE CHADID (MANUEL CHAC000000000800000000000000000000000100010010000000000000000000000F0010000006093000220140730000101 00000000000000000000000000000000000000000000000000000000000000000000000000000000000000000000000000000000000000000N 00000000000NCONT   00    00000000000          00000000000000000000000000000000000000000000 000000000000000A000000000000000000000000000000000000000000000 000000000000000000000000000000000000000     00000000                                                                                                                        000000000000000000
F0010000006093000003000003263562600042505000000000000000000201407300002001LOCAL 50 - MERCEDES ARAGUREN DE CHADID (MANUEL CHAC000000000200000000000000000000000100010010000000000000000000000F0010000006093000320140730000101 00000000000000000000000000000000000000000000000000000000000000000000000000000000000000000000000000000000000000000N 00000000000NCONT   00    00000000000          00000000000000000000000000000000000000000000 000000000000000A000000000000000000000000000000000000000000000 000000000000000000000000000000000000000     00000000                                                                                                                        000000000000000000
F0010000006093000004000003263562600023658300000000000000000201407300002001LOCAL 50 - MERCEDES ARAGUREN DE CHADID (MANUEL CHAC000000000006400000000000000000000100010010000000000000000000000F0010000006093000420140730000101 00000000000000000000000000000000000000000000000000000000000000000000000000000000000000000000000000000000000000000N 00000000000NCONT   00    00000000000          00000000000000000000000000000000000000000000 000000000000000A000000000000000000000000000000000000000000000 000000000000000000000000000000000000000     00000000                                                                                                                        000000000000000000
F0010000006093000005000003263562600013552100000000000000000201407300002001LOCAL 50 - MERCEDES ARAGUREN DE CHADID (MANUEL CHAD000000000006400000000000000000000100010010000000000000000000000F0010000006093000520140730000101 00000000000000000000000000000000000000000000000000000000000000000000000000000000000000000000000000000000000000000N 00000000000NCONT   00    00000000000          00000000000000000000000000000000000000000000 000000000000000A000000000000000000000000000000000000000000000 000000000000000000000000000000000000000     00000000                                                                                                                        000000000000000000
F0010000006093100001000090030261300011050500000000000000000201407300002001IMPORTACIONES HHM                                 D000000001580000000000000000000000100010010000000000000000000000F0010000006093100120140730000101 00000000000000000000000000000000000000000000000000000000000000000000000000000000000000000000000000000000000000000N 00000000000NCONT   00    00000000000          00000000000000000000000000000000000000000000 000000000000000A000000000000000000000000000000000000000000000 000000000000000000000000000000000000000     00000000                                                                                                                        000000000000000000
F0010000006093100002000090030261300041450500000000000000000201407300002001IMPORTACIONES HHM                                 C000000001500000000000000000000000100010010000000000000000000000F0010000006093100220140730000101 00000000000000000000000000000000000000000000000000000000000000000000000000000000000000000000000000000000000000000N 00000000000NCONT   00    00000000000          00000000000000000000000000000000000000000000 000000000000000A000000000000000000000000000000000000000000000 000000000000000000000000000000000000000     00000000                                                                                                                        000000000000000000
F0010000006093100003000090030261300042505000000000000000000201407300002001IMPORTACIONES HHM                                 C000000000080000000000000000000000100010010000000000000000000000F0010000006093100320140730000101 00000000000000000000000000000000000000000000000000000000000000000000000000000000000000000000000000000000000000000N 00000000000NCONT   00    00000000000          00000000000000000000000000000000000000000000 000000000000000A000000000000000000000000000000000000000000000 000000000000000000000000000000000000000     00000000                                                                                                                        000000000000000000
F0010000006093100004000090030261300023658300000000000000000201407300002001IMPORTACIONES HHM                                 C000000000012000000000000000000000100010010000000000000000000000F0010000006093100420140730000101 00000000000000000000000000000000000000000000000000000000000000000000000000000000000000000000000000000000000000000N 00000000000NCONT   00    00000000000          00000000000000000000000000000000000000000000 000000000000000A000000000000000000000000000000000000000000000 000000000000000000000000000000000000000     00000000                                                                                                                        000000000000000000
F0010000006093100005000090030261300013552100000000000000000201407300002001IMPORTACIONES HHM                                 D000000000012000000000000000000000100010010000000000000000000000F0010000006093100520140730000101 00000000000000000000000000000000000000000000000000000000000000000000000000000000000000000000000000000000000000000N 00000000000NCONT   00    00000000000          00000000000000000000000000000000000000000000 000000000000000A000000000000000000000000000000000000000000000 000000000000000000000000000000000000000     00000000                                                                                                                        000000000000000000
F0010000006093200001000090030261300011050500000000000000000201407300002001IMPORTACIONES HHM                                 D000000002200000000000000000000000100010010000000000000000000000F0010000006093200120140730000101 00000000000000000000000000000000000000000000000000000000000000000000000000000000000000000000000000000000000000000N 00000000000NCONT   00    00000000000          00000000000000000000000000000000000000000000 000000000000000A000000000000000000000000000000000000000000000 000000000000000000000000000000000000000     00000000                                                                                                                        000000000000000000
F0010000006093200002000090030261300041450500000000000000000201407300002001IMPORTACIONES HHM                                 C000000001500000000000000000000000100010010000000000000000000000F0010000006093200220140730000101 00000000000000000000000000000000000000000000000000000000000000000000000000000000000000000000000000000000000000000N 00000000000NCONT   00    00000000000          00000000000000000000000000000000000000000000 000000000000000A000000000000000000000000000000000000000000000 000000000000000000000000000000000000000     00000000                                                                                                                        000000000000000000
F0010000006093200003000090030261300042505000000000000000000201407300002001IMPORTACIONES HHM                                 C000000000700000000000000000000000100010010000000000000000000000F0010000006093200320140730000101 00000000000000000000000000000000000000000000000000000000000000000000000000000000000000000000000000000000000000000N 00000000000NCONT   00    00000000000          00000000000000000000000000000000000000000000 000000000000000A000000000000000000000000000000000000000000000 000000000000000000000000000000000000000     00000000                                                                                                                        000000000000000000
F0010000006093200004000090030261300023658300000000000000000201407300002001IMPORTACIONES HHM                                 C000000000012000000000000000000000100010010000000000000000000000F0010000006093200420140730000101 00000000000000000000000000000000000000000000000000000000000000000000000000000000000000000000000000000000000000000N 00000000000NCONT   00    00000000000          00000000000000000000000000000000000000000000 000000000000000A000000000000000000000000000000000000000000000 000000000000000000000000000000000000000     00000000                                                                                                                        000000000000000000
F0010000006093200005000090030261300013552100000000000000000201407300002001IMPORTACIONES HHM                                 D000000000012000000000000000000000100010010000000000000000000000F0010000006093200520140730000101 00000000000000000000000000000000000000000000000000000000000000000000000000000000000000000000000000000000000000000N 00000000000NCONT   00    00000000000          00000000000000000000000000000000000000000000 000000000000000A000000000000000000000000000000000000000000000 000000000000000000000000000000000000000     00000000                                                                                                                        000000000000000000
F0010000006093300001000000870907300011050500000000000000000201407300002001SURTIDOR FERRETERO                                D000000001350000000000000000000000100010010000000000000000000000F0010000006093300120140730000101 00000000000000000000000000000000000000000000000000000000000000000000000000000000000000000000000000000000000000000N 00000000000NCONT   00    00000000000          00000000000000000000000000000000000000000000 000000000000000A000000000000000000000000000000000000000000000 000000000000000000000000000000000000000     00000000                                                                                                                        000000000000000000
F0010000006093300002000000870907300041450500000000000000000201407300002001SURTIDOR FERRETERO                                C000000000750000000000000000000000100010010000000000000000000000F0010000006093300220140730000101 00000000000000000000000000000000000000000000000000000000000000000000000000000000000000000000000000000000000000000N 00000000000NCONT   00    00000000000          00000000000000000000000000000000000000000000 000000000000000A000000000000000000000000000000000000000000000 000000000000000000000000000000000000000     00000000                                                                                                                        000000000000000000
F0010000006093300003000000870907300042505000000000000000000201407300002001SURTIDOR FERRETERO                                C000000000600000000000000000000000100010010000000000000000000000F0010000006093300320140730000101 00000000000000000000000000000000000000000000000000000000000000000000000000000000000000000000000000000000000000000N 00000000000NCONT   00    00000000000          00000000000000000000000000000000000000000000 000000000000000A000000000000000000000000000000000000000000000 000000000000000000000000000000000000000     00000000                                                                                                                        000000000000000000
F0010000006093300004000000870907300023658300000000000000000201407300002001SURTIDOR FERRETERO                                C000000000006000000000000000000000100010010000000000000000000000F0010000006093300420140730000101 00000000000000000000000000000000000000000000000000000000000000000000000000000000000000000000000000000000000000000N 00000000000NCONT   00    00000000000          00000000000000000000000000000000000000000000 000000000000000A000000000000000000000000000000000000000000000 000000000000000000000000000000000000000     00000000                                                                                                                        000000000000000000
F0010000006093300005000000870907300013552100000000000000000201407300002001SURTIDOR FERRETERO                                D000000000006000000000000000000000100010010000000000000000000000F0010000006093300520140730000101 00000000000000000000000000000000000000000000000000000000000000000000000000000000000000000000000000000000000000000N 00000000000NCONT   00    00000000000          00000000000000000000000000000000000000000000 000000000000000A000000000000000000000000000000000000000000000 000000000000000000000000000000000000000     00000000                                                                                                                        000000000000000000
F0010000006093400001000090050144800011050500000000000000000201407300002001PLASTICOS JR ASOCIADOS SAS                        D000000003200000000000000000000000100010010000000000000000000000F0010000006093400120140730000101 00000000000000000000000000000000000000000000000000000000000000000000000000000000000000000000000000000000000000000N 00000000000NCONT   00    00000000000          00000000000000000000000000000000000000000000 000000000000000A000000000000000000000000000000000000000000000 000000000000000000000000000000000000000     00000000                                                                                                                        000000000000000000
F0010000006093400002000090050144800041450500000000000000000201407300002001PLASTICOS JR ASOCIADOS SAS                        C000000002600000000000000000000000100010010000000000000000000000F0010000006093400220140730000101 00000000000000000000000000000000000000000000000000000000000000000000000000000000000000000000000000000000000000000N 00000000000NCONT   00    00000000000          00000000000000000000000000000000000000000000 000000000000000A000000000000000000000000000000000000000000000 000000000000000000000000000000000000000     00000000                                                                                                                        000000000000000000
F0010000006093400003000090050144800042505000000000000000000201407300002001PLASTICOS JR ASOCIADOS SAS                        C000000000600000000000000000000000100010010000000000000000000000F0010000006093400320140730000101 00000000000000000000000000000000000000000000000000000000000000000000000000000000000000000000000000000000000000000N 00000000000NCONT   00    00000000000          00000000000000000000000000000000000000000000 000000000000000A000000000000000000000000000000000000000000000 000000000000000000000000000000000000000     00000000                                                                                                                        000000000000000000
F0010000006093400004000090050144800023658300000000000000000201407300002001PLASTICOS JR ASOCIADOS SAS                        C000000000020800000000000000000000100010010000000000000000000000F0010000006093400420140730000101 00000000000000000000000000000000000000000000000000000000000000000000000000000000000000000000000000000000000000000N 00000000000NCONT   00    00000000000          00000000000000000000000000000000000000000000 000000000000000A000000000000000000000000000000000000000000000 000000000000000000000000000000000000000     00000000                                                                                                                        000000000000000000
F0010000006093400005000090050144800013552100000000000000000201407300002001PLASTICOS JR ASOCIADOS SAS                        D000000000020800000000000000000000100010010000000000000000000000F0010000006093400520140730000101 00000000000000000000000000000000000000000000000000000000000000000000000000000000000000000000000000000000000000000N 00000000000NCONT   00    00000000000          00000000000000000000000000000000000000000000 000000000000000A000000000000000000000000000000000000000000000 000000000000000000000000000000000000000     00000000                                                                                                                        000000000000000000
F0010000006093500001000007200205100011050500000000000000000201407300002001LUIS MOLINA                                       D000000001620000000000000000000000100010010000000000000000000000F0010000006093500120140730000101 00000000000000000000000000000000000000000000000000000000000000000000000000000000000000000000000000000000000000000N 00000000000NCONT   00    00000000000          00000000000000000000000000000000000000000000 000000000000000A000000000000000000000000000000000000000000000 000000000000000000000000000000000000000     00000000                                                                                                                        000000000000000000
F0010000006093500002000007200205100041450500000000000000000201407300002001LUIS MOLINA                                       C000000001320000000000000000000000100010010000000000000000000000F0010000006093500220140730000101 00000000000000000000000000000000000000000000000000000000000000000000000000000000000000000000000000000000000000000N 00000000000NCONT   00    00000000000          00000000000000000000000000000000000000000000 000000000000000A000000000000000000000000000000000000000000000 000000000000000000000000000000000000000     00000000                                                                                                                        000000000000000000
F0010000006093500003000007200205100042505000000000000000000201407300002001LUIS MOLINA                                       C000000000300000000000000000000000100010010000000000000000000000F0010000006093500320140730000101 00000000000000000000000000000000000000000000000000000000000000000000000000000000000000000000000000000000000000000N 00000000000NCONT   00    00000000000          00000000000000000000000000000000000000000000 000000000000000A000000000000000000000000000000000000000000000 000000000000000000000000000000000000000     00000000                                                                                                                        000000000000000000
F0010000006093500004000007200205100023658300000000000000000201407300002001LUIS MOLINA                                       C000000000010600000000000000000000100010010000000000000000000000F0010000006093500420140730000101 00000000000000000000000000000000000000000000000000000000000000000000000000000000000000000000000000000000000000000N 00000000000NCONT   00    00000000000          00000000000000000000000000000000000000000000 000000000000000A000000000000000000000000000000000000000000000 000000000000000000000000000000000000000     00000000                                                                                                                        000000000000000000
F0010000006093500005000007200205100013552100000000000000000201407300002001LUIS MOLINA                                       D000000000010600000000000000000000100010010000000000000000000000F0010000006093500520140730000101 00000000000000000000000000000000000000000000000000000000000000000000000000000000000000000000000000000000000000000N 00000000000NCONT   00    00000000000          00000000000000000000000000000000000000000000 000000000000000A000000000000000000000000000000000000000000000 000000000000000000000000000000000000000     00000000                                                                                                                        000000000000000000
F0010000006093600001000000431178400011050500000000000000000201407300002001EFRAIN ALVAREZ                                    D000000001200000000000000000000000100010010000000000000000000000F0010000006093600120140730000101 00000000000000000000000000000000000000000000000000000000000000000000000000000000000000000000000000000000000000000N 00000000000NCONT   00    00000000000          00000000000000000000000000000000000000000000 000000000000000A000000000000000000000000000000000000000000000 000000000000000000000000000000000000000     00000000                                                                                                                        000000000000000000
F0010000006093600002000000431178400041450500000000000000000201407300002001EFRAIN ALVAREZ                                    C000000001150000000000000000000000100010010000000000000000000000F0010000006093600220140730000101 00000000000000000000000000000000000000000000000000000000000000000000000000000000000000000000000000000000000000000N 00000000000NCONT   00    00000000000          00000000000000000000000000000000000000000000 000000000000000A000000000000000000000000000000000000000000000 000000000000000000000000000000000000000     00000000                                                                                                                        000000000000000000
F0010000006093600003000000431178400042505000000000000000000201407300002001EFRAIN ALVAREZ                                    C000000000050000000000000000000000100010010000000000000000000000F0010000006093600320140730000101 00000000000000000000000000000000000000000000000000000000000000000000000000000000000000000000000000000000000000000N 00000000000NCONT   00    00000000000          00000000000000000000000000000000000000000000 000000000000000A000000000000000000000000000000000000000000000 000000000000000000000000000000000000000     00000000                                                                                                                        000000000000000000
F0010000006093600004000000431178400023658300000000000000000201407300002001EFRAIN ALVAREZ                                    C000000000009200000000000000000000100010010000000000000000000000F0010000006093600420140730000101 00000000000000000000000000000000000000000000000000000000000000000000000000000000000000000000000000000000000000000N 00000000000NCONT   00    00000000000          00000000000000000000000000000000000000000000 000000000000000A000000000000000000000000000000000000000000000 000000000000000000000000000000000000000     00000000                                                                                                                        000000000000000000
F0010000006093600005000000431178400013552100000000000000000201407300002001EFRAIN ALVAREZ                                    D000000000009200000000000000000000100010010000000000000000000000F0010000006093600520140730000101 00000000000000000000000000000000000000000000000000000000000000000000000000000000000000000000000000000000000000000N 00000000000NCONT   00    00000000000          00000000000000000000000000000000000000000000 000000000000000A000000000000000000000000000000000000000000000 000000000000000000000000000000000000000     00000000                                                                                                                        000000000000000000
F0010000006093700001000000431178400011050500000000000000000201407300002001EFRAIN ALVAREZ                                    D000000001250000000000000000000000100010010000000000000000000000F0010000006093700120140730000101 00000000000000000000000000000000000000000000000000000000000000000000000000000000000000000000000000000000000000000N 00000000000NCONT   00    00000000000          00000000000000000000000000000000000000000000 000000000000000A000000000000000000000000000000000000000000000 000000000000000000000000000000000000000     00000000                                                                                                                        000000000000000000
F0010000006093700002000000431178400041450500000000000000000201407300002001EFRAIN ALVAREZ                                    C000000001200000000000000000000000100010010000000000000000000000F0010000006093700220140730000101 00000000000000000000000000000000000000000000000000000000000000000000000000000000000000000000000000000000000000000N 00000000000NCONT   00    00000000000          00000000000000000000000000000000000000000000 000000000000000A000000000000000000000000000000000000000000000 000000000000000000000000000000000000000     00000000                                                                                                                        000000000000000000
F0010000006093700003000000431178400042505000000000000000000201407300002001EFRAIN ALVAREZ                                    C000000000050000000000000000000000100010010000000000000000000000F0010000006093700320140730000101 00000000000000000000000000000000000000000000000000000000000000000000000000000000000000000000000000000000000000000N 00000000000NCONT   00    00000000000          00000000000000000000000000000000000000000000 000000000000000A000000000000000000000000000000000000000000000 000000000000000000000000000000000000000     00000000                                                                                                                        000000000000000000
F0010000006093700004000000431178400023658300000000000000000201407300002001EFRAIN ALVAREZ                                    C000000000009600000000000000000000100010010000000000000000000000F0010000006093700420140730000101 00000000000000000000000000000000000000000000000000000000000000000000000000000000000000000000000000000000000000000N 00000000000NCONT   00    00000000000          00000000000000000000000000000000000000000000 000000000000000A000000000000000000000000000000000000000000000 000000000000000000000000000000000000000     00000000                                                                                                                        000000000000000000
F0010000006093700005000000431178400013552100000000000000000201407300002001EFRAIN ALVAREZ                                    D000000000009600000000000000000000100010010000000000000000000000F0010000006093700520140730000101 00000000000000000000000000000000000000000000000000000000000000000000000000000000000000000000000000000000000000000N 00000000000NCONT   00    00000000000          00000000000000000000000000000000000000000000 000000000000000A000000000000000000000000000000000000000000000 000000000000000000000000000000000000000     00000000                                                                                                                        000000000000000000
F0010000006093800001000000431178400011050500000000000000000201407300002001EFRAIN ALVAREZ                                    D000000003700000000000000000000000100010010000000000000000000000F0010000006093800120140730000101 00000000000000000000000000000000000000000000000000000000000000000000000000000000000000000000000000000000000000000N 00000000000NCONT   00    00000000000          00000000000000000000000000000000000000000000 000000000000000A000000000000000000000000000000000000000000000 000000000000000000000000000000000000000     00000000                                                                                                                        000000000000000000
F0010000006093800002000000431178400041450500000000000000000201407300002001EFRAIN ALVAREZ                                    C000000003600000000000000000000000100010010000000000000000000000F0010000006093800220140730000101 00000000000000000000000000000000000000000000000000000000000000000000000000000000000000000000000000000000000000000N 00000000000NCONT   00    00000000000          00000000000000000000000000000000000000000000 000000000000000A000000000000000000000000000000000000000000000 000000000000000000000000000000000000000     00000000                                                                                                                        000000000000000000
F0010000006093800003000000431178400042505000000000000000000201407300002001EFRAIN ALVAREZ                                    C000000000100000000000000000000000100010010000000000000000000000F0010000006093800320140730000101 00000000000000000000000000000000000000000000000000000000000000000000000000000000000000000000000000000000000000000N 00000000000NCONT   00    00000000000          00000000000000000000000000000000000000000000 000000000000000A000000000000000000000000000000000000000000000 000000000000000000000000000000000000000     00000000                                                                                                                        000000000000000000
F0010000006093800004000000431178400023658300000000000000000201407300002001EFRAIN ALVAREZ                                    C000000000028800000000000000000000100010010000000000000000000000F0010000006093800420140730000101 00000000000000000000000000000000000000000000000000000000000000000000000000000000000000000000000000000000000000000N 00000000000NCONT   00    00000000000          00000000000000000000000000000000000000000000 000000000000000A000000000000000000000000000000000000000000000 000000000000000000000000000000000000000     00000000                                                                                                                        000000000000000000
F0010000006093800005000000431178400013552100000000000000000201407300002001EFRAIN ALVAREZ                                    D000000000028800000000000000000000100010010000000000000000000000F0010000006093800520140730000101 00000000000000000000000000000000000000000000000000000000000000000000000000000000000000000000000000000000000000000N 00000000000NCONT   00    00000000000          00000000000000000000000000000000000000000000 000000000000000A000000000000000000000000000000000000000000000 000000000000000000000000000000000000000     00000000                                                                                                                        000000000000000000
F0010000006093900001000000431178400011050500000000000000000201407300002001EFRAIN ALVAREZ                                    D000000001800000000000000000000000100010010000000000000000000000F0010000006093900120140730000101 00000000000000000000000000000000000000000000000000000000000000000000000000000000000000000000000000000000000000000N 00000000000NCONT   00    00000000000          00000000000000000000000000000000000000000000 000000000000000A000000000000000000000000000000000000000000000 000000000000000000000000000000000000000     00000000                                                                                                                        000000000000000000
F0010000006093900002000000431178400041450500000000000000000201407300002001EFRAIN ALVAREZ                                    C000000001700000000000000000000000100010010000000000000000000000F0010000006093900220140730000101 00000000000000000000000000000000000000000000000000000000000000000000000000000000000000000000000000000000000000000N 00000000000NCONT   00    00000000000          00000000000000000000000000000000000000000000 000000000000000A000000000000000000000000000000000000000000000 000000000000000000000000000000000000000     00000000                                                                                                                        000000000000000000
F0010000006093900003000000431178400042505000000000000000000201407300002001EFRAIN ALVAREZ                                    C000000000100000000000000000000000100010010000000000000000000000F0010000006093900320140730000101 00000000000000000000000000000000000000000000000000000000000000000000000000000000000000000000000000000000000000000N 00000000000NCONT   00    00000000000          00000000000000000000000000000000000000000000 000000000000000A000000000000000000000000000000000000000000000 000000000000000000000000000000000000000     00000000                                                                                                                        000000000000000000
F0010000006093900004000000431178400023658300000000000000000201407300002001EFRAIN ALVAREZ                                    C000000000013600000000000000000000100010010000000000000000000000F0010000006093900420140730000101 00000000000000000000000000000000000000000000000000000000000000000000000000000000000000000000000000000000000000000N 00000000000NCONT   00    00000000000          00000000000000000000000000000000000000000000 000000000000000A000000000000000000000000000000000000000000000 000000000000000000000000000000000000000     00000000                                                                                                                        000000000000000000
F0010000006093900005000000431178400013552100000000000000000201407300002001EFRAIN ALVAREZ                                    D000000000013600000000000000000000100010010000000000000000000000F0010000006093900520140730000101 00000000000000000000000000000000000000000000000000000000000000000000000000000000000000000000000000000000000000000N 00000000000NCONT   00    00000000000          00000000000000000000000000000000000000000000 000000000000000A000000000000000000000000000000000000000000000 000000000000000000000000000000000000000     00000000                                                                                                                        000000000000000000
F0010000006094000001000000431178400011050500000000000000000201407300002001EFRAIN ALVAREZ                                    D000000001250000000000000000000000100010010000000000000000000000F0010000006094000120140730000101 00000000000000000000000000000000000000000000000000000000000000000000000000000000000000000000000000000000000000000N 00000000000NCONT   00    00000000000          00000000000000000000000000000000000000000000 000000000000000A000000000000000000000000000000000000000000000 000000000000000000000000000000000000000     00000000                                                                                                                        000000000000000000
F0010000006094000002000000431178400041450500000000000000000201407300002001EFRAIN ALVAREZ                                    C000000001200000000000000000000000100010010000000000000000000000F0010000006094000220140730000101 00000000000000000000000000000000000000000000000000000000000000000000000000000000000000000000000000000000000000000N 00000000000NCONT   00    00000000000          00000000000000000000000000000000000000000000 000000000000000A000000000000000000000000000000000000000000000 000000000000000000000000000000000000000     00000000                                                                                                                        000000000000000000
