F0010000006924100001000000908086400011050500000000000000000201503150002001JOSE DEL CRISTO SANES FERNANDEZ                   D000000005800000000000000000000000100010010000000000000000000000F0010000006924100120150315000101 00000000000000000000000000000000000000000000000000000000000000000000000000000000000000000000000000000000000000000N 00000000000NCONT   00    00000000000          00000000000000000000000000000000000000000000 000000000000000A000000000000000000000000000000000000000000000 000000000000000000000000000000000000000     00000000                                                                                                                        000000000000000000
F0010000006924100002000000908086400041450500000000000000000201503150002001JOSE DEL CRISTO SANES FERNANDEZ                   C000000004800000000000000000000000100010010000000000000000000000F0010000006924100220150315000101 00000000000000000000000000000000000000000000000000000000000000000000000000000000000000000000000000000000000000000N 00000000000NCONT   00    00000000000          00000000000000000000000000000000000000000000 000000000000000A000000000000000000000000000000000000000000000 000000000000000000000000000000000000000     00000000                                                                                                                        000000000000000000
F0010000006924100003000000908086400042505000000000000000000201503150002001JOSE DEL CRISTO SANES FERNANDEZ                   C000000001000000000000000000000000100010010000000000000000000000F0010000006924100320150315000101 00000000000000000000000000000000000000000000000000000000000000000000000000000000000000000000000000000000000000000N 00000000000NCONT   00    00000000000          00000000000000000000000000000000000000000000 000000000000000A000000000000000000000000000000000000000000000 000000000000000000000000000000000000000     00000000                                                                                                                        000000000000000000
F0010000006924100004000000908086400023658300000000000000000201503150002001JOSE DEL CRISTO SANES FERNANDEZ                   C000000000038400000000000000000000100010010000000000000000000000F0010000006924100420150315000101 00000000000000000000000000000000000000000000000000000000000000000000000000000000000000000000000000000000000000000N 00000000000NCONT   00    00000000000          00000000000000000000000000000000000000000000 000000000000000A000000000000000000000000000000000000000000000 000000000000000000000000000000000000000     00000000                                                                                                                        000000000000000000
F0010000006924100005000000908086400013552100000000000000000201503150002001JOSE DEL CRISTO SANES FERNANDEZ                   D000000000038400000000000000000000100010010000000000000000000000F0010000006924100520150315000101 00000000000000000000000000000000000000000000000000000000000000000000000000000000000000000000000000000000000000000N 00000000000NCONT   00    00000000000          00000000000000000000000000000000000000000000 000000000000000A000000000000000000000000000000000000000000000 000000000000000000000000000000000000000     00000000                                                                                                                        000000000000000000
F0010000006924200001000000908086400011050500000000000000000201503150002001JOSE DEL CRISTO SANES FERNANDEZ                   D000000001600000000000000000000000100010010000000000000000000000F0010000006924200120150315000101 00000000000000000000000000000000000000000000000000000000000000000000000000000000000000000000000000000000000000000N 00000000000NCONT   00    00000000000          00000000000000000000000000000000000000000000 000000000000000A000000000000000000000000000000000000000000000 000000000000000000000000000000000000000     00000000                                                                                                                        000000000000000000
F0010000006924200002000000908086400041450500000000000000000201503150002001JOSE DEL CRISTO SANES FERNANDEZ                   C000000001200000000000000000000000100010010000000000000000000000F0010000006924200220150315000101 00000000000000000000000000000000000000000000000000000000000000000000000000000000000000000000000000000000000000000N 00000000000NCONT   00    00000000000          00000000000000000000000000000000000000000000 000000000000000A000000000000000000000000000000000000000000000 000000000000000000000000000000000000000     00000000                                                                                                                        000000000000000000
F0010000006924200003000000908086400042505000000000000000000201503150002001JOSE DEL CRISTO SANES FERNANDEZ                   C000000000400000000000000000000000100010010000000000000000000000F0010000006924200320150315000101 00000000000000000000000000000000000000000000000000000000000000000000000000000000000000000000000000000000000000000N 00000000000NCONT   00    00000000000          00000000000000000000000000000000000000000000 000000000000000A000000000000000000000000000000000000000000000 000000000000000000000000000000000000000     00000000                                                                                                                        000000000000000000
F0010000006924200004000000908086400023658300000000000000000201503150002001JOSE DEL CRISTO SANES FERNANDEZ                   C000000000009600000000000000000000100010010000000000000000000000F0010000006924200420150315000101 00000000000000000000000000000000000000000000000000000000000000000000000000000000000000000000000000000000000000000N 00000000000NCONT   00    00000000000          00000000000000000000000000000000000000000000 000000000000000A000000000000000000000000000000000000000000000 000000000000000000000000000000000000000     00000000                                                                                                                        000000000000000000
F0010000006924200005000000908086400013552100000000000000000201503150002001JOSE DEL CRISTO SANES FERNANDEZ                   D000000000009600000000000000000000100010010000000000000000000000F0010000006924200520150315000101 00000000000000000000000000000000000000000000000000000000000000000000000000000000000000000000000000000000000000000N 00000000000NCONT   00    00000000000          00000000000000000000000000000000000000000000 000000000000000A000000000000000000000000000000000000000000000 000000000000000000000000000000000000000     00000000                                                                                                                        000000000000000000
F0010000006924300001000000908086400011050500000000000000000201503150002001JOSE DEL CRISTO SANES FERNANDEZ                   D000000002900000000000000000000000100010010000000000000000000000F0010000006924300120150315000101 00000000000000000000000000000000000000000000000000000000000000000000000000000000000000000000000000000000000000000N 00000000000NCONT   00    00000000000          00000000000000000000000000000000000000000000 000000000000000A000000000000000000000000000000000000000000000 000000000000000000000000000000000000000     00000000                                                                                                                        000000000000000000
F0010000006924300002000000908086400041450500000000000000000201503150002001JOSE DEL CRISTO SANES FERNANDEZ                   C000000002400000000000000000000000100010010000000000000000000000F0010000006924300220150315000101 00000000000000000000000000000000000000000000000000000000000000000000000000000000000000000000000000000000000000000N 00000000000NCONT   00    00000000000          00000000000000000000000000000000000000000000 000000000000000A000000000000000000000000000000000000000000000 000000000000000000000000000000000000000     00000000                                                                                                                        000000000000000000
F0010000006924300003000000908086400042505000000000000000000201503150002001JOSE DEL CRISTO SANES FERNANDEZ                   C000000000500000000000000000000000100010010000000000000000000000F0010000006924300320150315000101 00000000000000000000000000000000000000000000000000000000000000000000000000000000000000000000000000000000000000000N 00000000000NCONT   00    00000000000          00000000000000000000000000000000000000000000 000000000000000A000000000000000000000000000000000000000000000 000000000000000000000000000000000000000     00000000                                                                                                                        000000000000000000
F0010000006924300004000000908086400023658300000000000000000201503150002001JOSE DEL CRISTO SANES FERNANDEZ                   C000000000019200000000000000000000100010010000000000000000000000F0010000006924300420150315000101 00000000000000000000000000000000000000000000000000000000000000000000000000000000000000000000000000000000000000000N 00000000000NCONT   00    00000000000          00000000000000000000000000000000000000000000 000000000000000A000000000000000000000000000000000000000000000 000000000000000000000000000000000000000     00000000                                                                                                                        000000000000000000
F0010000006924300005000000908086400013552100000000000000000201503150002001JOSE DEL CRISTO SANES FERNANDEZ                   D000000000019200000000000000000000100010010000000000000000000000F0010000006924300520150315000101 00000000000000000000000000000000000000000000000000000000000000000000000000000000000000000000000000000000000000000N 00000000000NCONT   00    00000000000          00000000000000000000000000000000000000000000 000000000000000A000000000000000000000000000000000000000000000 000000000000000000000000000000000000000     00000000                                                                                                                        000000000000000000
F0010000006924400001000001502923600011050500000000000000000201503150002001ALCIDES MARTINEZ MARTINEZ                         D000000001100000000000000000000000100010010000000000000000000000F0010000006924400120150315000101 00000000000000000000000000000000000000000000000000000000000000000000000000000000000000000000000000000000000000000N 00000000000NCONT   00    00000000000          00000000000000000000000000000000000000000000 000000000000000A000000000000000000000000000000000000000000000 000000000000000000000000000000000000000     00000000                                                                                                                        000000000000000000
F0010000006924400002000001502923600041450500000000000000000201503150002001ALCIDES MARTINEZ MARTINEZ                         C000000001000000000000000000000000100010010000000000000000000000F0010000006924400220150315000101 00000000000000000000000000000000000000000000000000000000000000000000000000000000000000000000000000000000000000000N 00000000000NCONT   00    00000000000          00000000000000000000000000000000000000000000 000000000000000A000000000000000000000000000000000000000000000 000000000000000000000000000000000000000     00000000                                                                                                                        000000000000000000
F0010000006924400003000001502923600042505000000000000000000201503150002001ALCIDES MARTINEZ MARTINEZ                         C000000000100000000000000000000000100010010000000000000000000000F0010000006924400320150315000101 00000000000000000000000000000000000000000000000000000000000000000000000000000000000000000000000000000000000000000N 00000000000NCONT   00    00000000000          00000000000000000000000000000000000000000000 000000000000000A000000000000000000000000000000000000000000000 000000000000000000000000000000000000000     00000000                                                                                                                        000000000000000000
F0010000006924400004000001502923600023658300000000000000000201503150002001ALCIDES MARTINEZ MARTINEZ                         C000000000008000000000000000000000100010010000000000000000000000F0010000006924400420150315000101 00000000000000000000000000000000000000000000000000000000000000000000000000000000000000000000000000000000000000000N 00000000000NCONT   00    00000000000          00000000000000000000000000000000000000000000 000000000000000A000000000000000000000000000000000000000000000 000000000000000000000000000000000000000     00000000                                                                                                                        000000000000000000
F0010000006924400005000001502923600013552100000000000000000201503150002001ALCIDES MARTINEZ MARTINEZ                         D000000000008000000000000000000000100010010000000000000000000000F0010000006924400520150315000101 00000000000000000000000000000000000000000000000000000000000000000000000000000000000000000000000000000000000000000N 00000000000NCONT   00    00000000000          00000000000000000000000000000000000000000000 000000000000000A000000000000000000000000000000000000000000000 000000000000000000000000000000000000000     00000000                                                                                                                        000000000000000000
