F0010000010162900001000000744822500013050500000000000000000201706060002001LABORATORIO Y PERFUMERIA BORGE                    D000000017860000000000000000000000100010010000000000000000000000F0010000010162900120170606000101 00000000000000000000000000000000000000000000000000000000000000000000000000000000000000000000000000000000000000000N 00000000000NCONT   00    00000000000          00000000000000000000000000000000000000000000 000000000000000A000000000000000000000000000000000000000000000 000000000000000000000000000000000000000     00000000                                                                                                                        000000000000000000
F0010000010162900002000000744822500041450500000000000000000201706060002001LABORATORIO Y PERFUMERIA BORGE                    C000000013126000000000000000000000100010010000000000000000000000F0010000010162900220170606000101 00000000000000000000000000000000000000000000000000000000000000000000000000000000000000000000000000000000000000000N 00000000000NCONT   00    00000000000          00000000000000000000000000000000000000000000 000000000000000A000000000000000000000000000000000000000000000 000000000000000000000000000000000000000     00000000                                                                                                                        000000000000000000
F0010000010162900003000000744822500042505000000000000000000201706060002001LABORATORIO Y PERFUMERIA BORGE                    C000000004734000000000000000000000100010010000000000000000000000F0010000010162900320170606000101 00000000000000000000000000000000000000000000000000000000000000000000000000000000000000000000000000000000000000000N 00000000000NCONT   00    00000000000          00000000000000000000000000000000000000000000 000000000000000A000000000000000000000000000000000000000000000 000000000000000000000000000000000000000     00000000                                                                                                                        000000000000000000
F0010000010162900004000000744822500023658300000000000000000201706060002001LABORATORIO Y PERFUMERIA BORGE                    C000000000000000000000000000000000100010010000000000000000000000F0010000010162900420170606000101 00000000000000000000000000000000000000000000000000000000000000000000000000000000000000000000000000000000000000000N 00000000000NCONT   00    00000000000          00000000000000000000000000000000000000000000 000000000000000A000000000000000000000000000000000000000000000 000000000000000000000000000000000000000     00000000                                                                                                                        000000000000000000
F0010000010162900005000000744822500013552100000000000000000201706060002001LABORATORIO Y PERFUMERIA BORGE                    D000000000000000000000000000000000100010010000000000000000000000F0010000010162900520170606000101 00000000000000000000000000000000000000000000000000000000000000000000000000000000000000000000000000000000000000000N 00000000000NCONT   00    00000000000          00000000000000000000000000000000000000000000 000000000000000A000000000000000000000000000000000000000000000 000000000000000000000000000000000000000     00000000                                                                                                                        000000000000000000
F0010000010163000001000090044920600013050500000000000000000201706060002001QUATRO CARIBE SAS                                 D000000036222500000000000000000000100010010000000000000000000000F0010000010163000120170606000101 00000000000000000000000000000000000000000000000000000000000000000000000000000000000000000000000000000000000000000N 00000000000NCONT   00    00000000000          00000000000000000000000000000000000000000000 000000000000000A000000000000000000000000000000000000000000000 000000000000000000000000000000000000000     00000000                                                                                                                        000000000000000000
F0010000010163000002000090044920600041450500000000000000000201706060002001QUATRO CARIBE SAS                                 C000000027970000000000000000000000100010010000000000000000000000F0010000010163000220170606000101 00000000000000000000000000000000000000000000000000000000000000000000000000000000000000000000000000000000000000000N 00000000000NCONT   00    00000000000          00000000000000000000000000000000000000000000 000000000000000A000000000000000000000000000000000000000000000 000000000000000000000000000000000000000     00000000                                                                                                                        000000000000000000
F0010000010163000003000090044920600042505000000000000000000201706060002001QUATRO CARIBE SAS                                 C000000008252500000000000000000000100010010000000000000000000000F0010000010163000320170606000101 00000000000000000000000000000000000000000000000000000000000000000000000000000000000000000000000000000000000000000N 00000000000NCONT   00    00000000000          00000000000000000000000000000000000000000000 000000000000000A000000000000000000000000000000000000000000000 000000000000000000000000000000000000000     00000000                                                                                                                        000000000000000000
F0010000010163000004000090044920600023658300000000000000000201706060002001QUATRO CARIBE SAS                                 C000000000000000000000000000000000100010010000000000000000000000F0010000010163000420170606000101 00000000000000000000000000000000000000000000000000000000000000000000000000000000000000000000000000000000000000000N 00000000000NCONT   00    00000000000          00000000000000000000000000000000000000000000 000000000000000A000000000000000000000000000000000000000000000 000000000000000000000000000000000000000     00000000                                                                                                                        000000000000000000
F0010000010163000005000090044920600013552100000000000000000201706060002001QUATRO CARIBE SAS                                 D000000000000000000000000000000000100010010000000000000000000000F0010000010163000520170606000101 00000000000000000000000000000000000000000000000000000000000000000000000000000000000000000000000000000000000000000N 00000000000NCONT   00    00000000000          00000000000000000000000000000000000000000000 000000000000000A000000000000000000000000000000000000000000000 000000000000000000000000000000000000000     00000000                                                                                                                        000000000000000000
F0010000010163100001000089030195100013050500000000000000000201706060002001LIBRERIA NACIONAL S.A.                            D000000040950000000000000000000000100010010000000000000000000000F0010000010163100120170606000101 00000000000000000000000000000000000000000000000000000000000000000000000000000000000000000000000000000000000000000N 00000000000NCONT   00    00000000000          00000000000000000000000000000000000000000000 000000000000000A000000000000000000000000000000000000000000000 000000000000000000000000000000000000000     00000000                                                                                                                        000000000000000000
F0010000010163100002000089030195100041450500000000000000000201706060002001LIBRERIA NACIONAL S.A.                            C000000034300000000000000000000000100010010000000000000000000000F0010000010163100220170606000101 00000000000000000000000000000000000000000000000000000000000000000000000000000000000000000000000000000000000000000N 00000000000NCONT   00    00000000000          00000000000000000000000000000000000000000000 000000000000000A000000000000000000000000000000000000000000000 000000000000000000000000000000000000000     00000000                                                                                                                        000000000000000000
F0010000010163100003000089030195100042505000000000000000000201706060002001LIBRERIA NACIONAL S.A.                            C000000006650000000000000000000000100010010000000000000000000000F0010000010163100320170606000101 00000000000000000000000000000000000000000000000000000000000000000000000000000000000000000000000000000000000000000N 00000000000NCONT   00    00000000000          00000000000000000000000000000000000000000000 000000000000000A000000000000000000000000000000000000000000000 000000000000000000000000000000000000000     00000000                                                                                                                        000000000000000000
F0010000010163100004000089030195100023658300000000000000000201706060002001LIBRERIA NACIONAL S.A.                            C000000000000000000000000000000000100010010000000000000000000000F0010000010163100420170606000101 00000000000000000000000000000000000000000000000000000000000000000000000000000000000000000000000000000000000000000N 00000000000NCONT   00    00000000000          00000000000000000000000000000000000000000000 000000000000000A000000000000000000000000000000000000000000000 000000000000000000000000000000000000000     00000000                                                                                                                        000000000000000000
F0010000010163100005000089030195100013552100000000000000000201706060002001LIBRERIA NACIONAL S.A.                            D000000000000000000000000000000000100010010000000000000000000000F0010000010163100520170606000101 00000000000000000000000000000000000000000000000000000000000000000000000000000000000000000000000000000000000000000N 00000000000NCONT   00    00000000000          00000000000000000000000000000000000000000000 000000000000000A000000000000000000000000000000000000000000000 000000000000000000000000000000000000000     00000000                                                                                                                        000000000000000000
F0010000010163200001000000431178400013050500000000000000000201706060002001EFRAIN ALVAREZ                                    D000000015525000000000000000000000100010010000000000000000000000F0010000010163200120170606000101 00000000000000000000000000000000000000000000000000000000000000000000000000000000000000000000000000000000000000000N 00000000000NCONT   00    00000000000          00000000000000000000000000000000000000000000 000000000000000A000000000000000000000000000000000000000000000 000000000000000000000000000000000000000     00000000                                                                                                                        000000000000000000
F0010000010163200002000000431178400041450500000000000000000201706060002001EFRAIN ALVAREZ                                    C000000014700000000000000000000000100010010000000000000000000000F0010000010163200220170606000101 00000000000000000000000000000000000000000000000000000000000000000000000000000000000000000000000000000000000000000N 00000000000NCONT   00    00000000000          00000000000000000000000000000000000000000000 000000000000000A000000000000000000000000000000000000000000000 000000000000000000000000000000000000000     00000000                                                                                                                        000000000000000000
F0010000010163200003000000431178400042505000000000000000000201706060002001EFRAIN ALVAREZ                                    C000000000825000000000000000000000100010010000000000000000000000F0010000010163200320170606000101 00000000000000000000000000000000000000000000000000000000000000000000000000000000000000000000000000000000000000000N 00000000000NCONT   00    00000000000          00000000000000000000000000000000000000000000 000000000000000A000000000000000000000000000000000000000000000 000000000000000000000000000000000000000     00000000                                                                                                                        000000000000000000
F0010000010163200004000000431178400023658300000000000000000201706060002001EFRAIN ALVAREZ                                    C000000000000000000000000000000000100010010000000000000000000000F0010000010163200420170606000101 00000000000000000000000000000000000000000000000000000000000000000000000000000000000000000000000000000000000000000N 00000000000NCONT   00    00000000000          00000000000000000000000000000000000000000000 000000000000000A000000000000000000000000000000000000000000000 000000000000000000000000000000000000000     00000000                                                                                                                        000000000000000000
F0010000010163200005000000431178400013552100000000000000000201706060002001EFRAIN ALVAREZ                                    D000000000000000000000000000000000100010010000000000000000000000F0010000010163200520170606000101 00000000000000000000000000000000000000000000000000000000000000000000000000000000000000000000000000000000000000000N 00000000000NCONT   00    00000000000          00000000000000000000000000000000000000000000 000000000000000A000000000000000000000000000000000000000000000 000000000000000000000000000000000000000     00000000                                                                                                                        000000000000000000
F0010000010163300001000080001063400013050500000000000000000201706060002001PRODUCTOS JULIAO SAS                              D000000029395700000000000000000000100010010000000000000000000000F0010000010163300120170606000101 00000000000000000000000000000000000000000000000000000000000000000000000000000000000000000000000000000000000000000N 00000000000NCONT   00    00000000000          00000000000000000000000000000000000000000000 000000000000000A000000000000000000000000000000000000000000000 000000000000000000000000000000000000000     00000000                                                                                                                        000000000000000000
F0010000010163300002000080001063400041450500000000000000000201706060002001PRODUCTOS JULIAO SAS                              C000000027390000000000000000000000100010010000000000000000000000F0010000010163300220170606000101 00000000000000000000000000000000000000000000000000000000000000000000000000000000000000000000000000000000000000000N 00000000000NCONT   00    00000000000          00000000000000000000000000000000000000000000 000000000000000A000000000000000000000000000000000000000000000 000000000000000000000000000000000000000     00000000                                                                                                                        000000000000000000
F0010000010163300003000080001063400042505000000000000000000201706060002001PRODUCTOS JULIAO SAS                              C000000002005700000000000000000000100010010000000000000000000000F0010000010163300320170606000101 00000000000000000000000000000000000000000000000000000000000000000000000000000000000000000000000000000000000000000N 00000000000NCONT   00    00000000000          00000000000000000000000000000000000000000000 000000000000000A000000000000000000000000000000000000000000000 000000000000000000000000000000000000000     00000000                                                                                                                        000000000000000000
F0010000010163300004000080001063400023658300000000000000000201706060002001PRODUCTOS JULIAO SAS                              C000000000000000000000000000000000100010010000000000000000000000F0010000010163300420170606000101 00000000000000000000000000000000000000000000000000000000000000000000000000000000000000000000000000000000000000000N 00000000000NCONT   00    00000000000          00000000000000000000000000000000000000000000 000000000000000A000000000000000000000000000000000000000000000 000000000000000000000000000000000000000     00000000                                                                                                                        000000000000000000
F0010000010163300005000080001063400013552100000000000000000201706060002001PRODUCTOS JULIAO SAS                              D000000000000000000000000000000000100010010000000000000000000000F0010000010163300520170606000101 00000000000000000000000000000000000000000000000000000000000000000000000000000000000000000000000000000000000000000N 00000000000NCONT   00    00000000000          00000000000000000000000000000000000000000000 000000000000000A000000000000000000000000000000000000000000000 000000000000000000000000000000000000000     00000000                                                                                                                        000000000000000000
F0010000010163400001000000870907300013050500000000000000000201706060002001SURTIDOR FERRETERO                                D000000042715000000000000000000000100010010000000000000000000000F0010000010163400120170606000101 00000000000000000000000000000000000000000000000000000000000000000000000000000000000000000000000000000000000000000N 00000000000NCONT   00    00000000000          00000000000000000000000000000000000000000000 000000000000000A000000000000000000000000000000000000000000000 000000000000000000000000000000000000000     00000000                                                                                                                        000000000000000000
F0010000010163400002000000870907300041450500000000000000000201706060002001SURTIDOR FERRETERO                                C000000035030000000000000000000000100010010000000000000000000000F0010000010163400220170606000101 00000000000000000000000000000000000000000000000000000000000000000000000000000000000000000000000000000000000000000N 00000000000NCONT   00    00000000000          00000000000000000000000000000000000000000000 000000000000000A000000000000000000000000000000000000000000000 000000000000000000000000000000000000000     00000000                                                                                                                        000000000000000000
F0010000010163400003000000870907300041750100000000000000000201706060002001SURTIDOR FERRETERO                                D000000003503000000000000000000000100010010000000000000000000000F0010000010163400320170606000101 00000000000000000000000000000000000000000000000000000000000000000000000000000000000000000000000000000000000000000N 00000000000NCONT   00    00000000000          00000000000000000000000000000000000000000000 000000000000000A000000000000000000000000000000000000000000000 000000000000000000000000000000000000000     00000000                                                                                                                        000000000000000000
F0010000010163400004000000870907300042505000000000000000000201706060002001SURTIDOR FERRETERO                                C000000011188000000000000000000000100010010000000000000000000000F0010000010163400420170606000101 00000000000000000000000000000000000000000000000000000000000000000000000000000000000000000000000000000000000000000N 00000000000NCONT   00    00000000000          00000000000000000000000000000000000000000000 000000000000000A000000000000000000000000000000000000000000000 000000000000000000000000000000000000000     00000000                                                                                                                        000000000000000000
F0010000010163400005000000870907300023658300000000000000000201706060002001SURTIDOR FERRETERO                                C000000000000000000000000000000000100010010000000000000000000000F0010000010163400520170606000101 00000000000000000000000000000000000000000000000000000000000000000000000000000000000000000000000000000000000000000N 00000000000NCONT   00    00000000000          00000000000000000000000000000000000000000000 000000000000000A000000000000000000000000000000000000000000000 000000000000000000000000000000000000000     00000000                                                                                                                        000000000000000000
F0010000010163400006000000870907300013552100000000000000000201706060002001SURTIDOR FERRETERO                                D000000000000000000000000000000000100010010000000000000000000000F0010000010163400620170606000101 00000000000000000000000000000000000000000000000000000000000000000000000000000000000000000000000000000000000000000N 00000000000NCONT   00    00000000000          00000000000000000000000000000000000000000000 000000000000000A000000000000000000000000000000000000000000000 000000000000000000000000000000000000000     00000000                                                                                                                        000000000000000000
F0010000010163500001000090038852800013050500000000000000000201706060002001EL COMERCIO ELECTRICO DE LA CO                    D000000060270600000000000000000000100010010000000000000000000000F0010000010163500120170606000101 00000000000000000000000000000000000000000000000000000000000000000000000000000000000000000000000000000000000000000N 00000000000NCONT   00    00000000000          00000000000000000000000000000000000000000000 000000000000000A000000000000000000000000000000000000000000000 000000000000000000000000000000000000000     00000000                                                                                                                        000000000000000000
F0010000010163500002000090038852800041450500000000000000000201706060002001EL COMERCIO ELECTRICO DE LA CO                    C000000049590000000000000000000000100010010000000000000000000000F0010000010163500220170606000101 00000000000000000000000000000000000000000000000000000000000000000000000000000000000000000000000000000000000000000N 00000000000NCONT   00    00000000000          00000000000000000000000000000000000000000000 000000000000000A000000000000000000000000000000000000000000000 000000000000000000000000000000000000000     00000000                                                                                                                        000000000000000000
F0010000010163500003000090038852800042505000000000000000000201706060002001EL COMERCIO ELECTRICO DE LA CO                    C000000010680600000000000000000000100010010000000000000000000000F0010000010163500320170606000101 00000000000000000000000000000000000000000000000000000000000000000000000000000000000000000000000000000000000000000N 00000000000NCONT   00    00000000000          00000000000000000000000000000000000000000000 000000000000000A000000000000000000000000000000000000000000000 000000000000000000000000000000000000000     00000000                                                                                                                        000000000000000000
F0010000010163500004000090038852800023658300000000000000000201706060002001EL COMERCIO ELECTRICO DE LA CO                    C000000000000000000000000000000000100010010000000000000000000000F0010000010163500420170606000101 00000000000000000000000000000000000000000000000000000000000000000000000000000000000000000000000000000000000000000N 00000000000NCONT   00    00000000000          00000000000000000000000000000000000000000000 000000000000000A000000000000000000000000000000000000000000000 000000000000000000000000000000000000000     00000000                                                                                                                        000000000000000000
F0010000010163500005000090038852800013552100000000000000000201706060002001EL COMERCIO ELECTRICO DE LA CO                    D000000000000000000000000000000000100010010000000000000000000000F0010000010163500520170606000101 00000000000000000000000000000000000000000000000000000000000000000000000000000000000000000000000000000000000000000N 00000000000NCONT   00    00000000000          00000000000000000000000000000000000000000000 000000000000000A000000000000000000000000000000000000000000000 000000000000000000000000000000000000000     00000000                                                                                                                        000000000000000000
F0010000010163600001000090040631000013050500000000000000000201706060002001BEINEX SAS                                        D000000014121600000000000000000000100010010000000000000000000000F0010000010163600120170606000101 00000000000000000000000000000000000000000000000000000000000000000000000000000000000000000000000000000000000000000N 00000000000NCONT   00    00000000000          00000000000000000000000000000000000000000000 000000000000000A000000000000000000000000000000000000000000000 000000000000000000000000000000000000000     00000000                                                                                                                        000000000000000000
F0010000010163600002000090040631000041450500000000000000000201706060002001BEINEX SAS                                        C000000014710000000000000000000000100010010000000000000000000000F0010000010163600220170606000101 00000000000000000000000000000000000000000000000000000000000000000000000000000000000000000000000000000000000000000N 00000000000NCONT   00    00000000000          00000000000000000000000000000000000000000000 000000000000000A000000000000000000000000000000000000000000000 000000000000000000000000000000000000000     00000000                                                                                                                        000000000000000000
F0010000010163600003000090040631000041750100000000000000000201706060002001BEINEX SAS                                        D000000000588400000000000000000000100010010000000000000000000000F0010000010163600320170606000101 00000000000000000000000000000000000000000000000000000000000000000000000000000000000000000000000000000000000000000N 00000000000NCONT   00    00000000000          00000000000000000000000000000000000000000000 000000000000000A000000000000000000000000000000000000000000000 000000000000000000000000000000000000000     00000000                                                                                                                        000000000000000000
F0010000010163600004000090040631000042505000000000000000000201706060002001BEINEX SAS                                        C000000000000000000000000000000000100010010000000000000000000000F0010000010163600420170606000101 00000000000000000000000000000000000000000000000000000000000000000000000000000000000000000000000000000000000000000N 00000000000NCONT   00    00000000000          00000000000000000000000000000000000000000000 000000000000000A000000000000000000000000000000000000000000000 000000000000000000000000000000000000000     00000000                                                                                                                        000000000000000000
F0010000010163600005000090040631000023658300000000000000000201706060002001BEINEX SAS                                        C000000000000000000000000000000000100010010000000000000000000000F0010000010163600520170606000101 00000000000000000000000000000000000000000000000000000000000000000000000000000000000000000000000000000000000000000N 00000000000NCONT   00    00000000000          00000000000000000000000000000000000000000000 000000000000000A000000000000000000000000000000000000000000000 000000000000000000000000000000000000000     00000000                                                                                                                        000000000000000000
F0010000010163600006000090040631000013552100000000000000000201706060002001BEINEX SAS                                        D000000000000000000000000000000000100010010000000000000000000000F0010000010163600620170606000101 00000000000000000000000000000000000000000000000000000000000000000000000000000000000000000000000000000000000000000N 00000000000NCONT   00    00000000000          00000000000000000000000000000000000000000000 000000000000000A000000000000000000000000000000000000000000000 000000000000000000000000000000000000000     00000000                                                                                                                        000000000000000000
F0010000010163700001000090106344000013050500000000000000000201706060002001REPRESENTACIONES FERRELECTRICAS SAS (EDDIE CIRO)  D000000154795500000000000000000000100010010000000000000000000000F0010000010163700120170606000101 00000000000000000000000000000000000000000000000000000000000000000000000000000000000000000000000000000000000000000N 00000000000NCONT   00    00000000000          00000000000000000000000000000000000000000000 000000000000000A000000000000000000000000000000000000000000000 000000000000000000000000000000000000000     00000000                                                                                                                        000000000000000000
F0010000010163700002000090106344000041450500000000000000000201706060002001REPRESENTACIONES FERRELECTRICAS SAS (EDDIE CIRO)  C000000127100000000000000000000000100010010000000000000000000000F0010000010163700220170606000101 00000000000000000000000000000000000000000000000000000000000000000000000000000000000000000000000000000000000000000N 00000000000NCONT   00    00000000000          00000000000000000000000000000000000000000000 000000000000000A000000000000000000000000000000000000000000000 000000000000000000000000000000000000000     00000000                                                                                                                        000000000000000000
F0010000010163700003000090106344000042505000000000000000000201706060002001REPRESENTACIONES FERRELECTRICAS SAS (EDDIE CIRO)  C000000027695500000000000000000000100010010000000000000000000000F0010000010163700320170606000101 00000000000000000000000000000000000000000000000000000000000000000000000000000000000000000000000000000000000000000N 00000000000NCONT   00    00000000000          00000000000000000000000000000000000000000000 000000000000000A000000000000000000000000000000000000000000000 000000000000000000000000000000000000000     00000000                                                                                                                        000000000000000000
F0010000010163700004000090106344000023658300000000000000000201706060002001REPRESENTACIONES FERRELECTRICAS SAS (EDDIE CIRO)  C000000000000000000000000000000000100010010000000000000000000000F0010000010163700420170606000101 00000000000000000000000000000000000000000000000000000000000000000000000000000000000000000000000000000000000000000N 00000000000NCONT   00    00000000000          00000000000000000000000000000000000000000000 000000000000000A000000000000000000000000000000000000000000000 000000000000000000000000000000000000000     00000000                                                                                                                        000000000000000000
F0010000010163700005000090106344000013552100000000000000000201706060002001REPRESENTACIONES FERRELECTRICAS SAS (EDDIE CIRO)  D000000000000000000000000000000000100010010000000000000000000000F0010000010163700520170606000101 00000000000000000000000000000000000000000000000000000000000000000000000000000000000000000000000000000000000000000N 00000000000NCONT   00    00000000000          00000000000000000000000000000000000000000000 000000000000000A000000000000000000000000000000000000000000000 000000000000000000000000000000000000000     00000000                                                                                                                        000000000000000000
F0010000010163800001000089031248700013050500000000000000000201706060002001DISTRIBUIDORA CALIPLASTICOS LTDA                  D000000100324600000000000000000000100010010000000000000000000000F0010000010163800120170606000101 00000000000000000000000000000000000000000000000000000000000000000000000000000000000000000000000000000000000000000N 00000000000NCONT   00    00000000000          00000000000000000000000000000000000000000000 000000000000000A000000000000000000000000000000000000000000000 000000000000000000000000000000000000000     00000000                                                                                                                        000000000000000000
F0010000010163800002000089031248700041450500000000000000000201706060002001DISTRIBUIDORA CALIPLASTICOS LTDA                  C000000093924600000000000000000000100010010000000000000000000000F0010000010163800220170606000101 00000000000000000000000000000000000000000000000000000000000000000000000000000000000000000000000000000000000000000N 00000000000NCONT   00    00000000000          00000000000000000000000000000000000000000000 000000000000000A000000000000000000000000000000000000000000000 000000000000000000000000000000000000000     00000000                                                                                                                        000000000000000000
F0010000010163800003000089031248700042505000000000000000000201706060002001DISTRIBUIDORA CALIPLASTICOS LTDA                  C000000006400000000000000000000000100010010000000000000000000000F0010000010163800320170606000101 00000000000000000000000000000000000000000000000000000000000000000000000000000000000000000000000000000000000000000N 00000000000NCONT   00    00000000000          00000000000000000000000000000000000000000000 000000000000000A000000000000000000000000000000000000000000000 000000000000000000000000000000000000000     00000000                                                                                                                        000000000000000000
F0010000010163800004000089031248700023658300000000000000000201706060002001DISTRIBUIDORA CALIPLASTICOS LTDA                  C000000000000000000000000000000000100010010000000000000000000000F0010000010163800420170606000101 00000000000000000000000000000000000000000000000000000000000000000000000000000000000000000000000000000000000000000N 00000000000NCONT   00    00000000000          00000000000000000000000000000000000000000000 000000000000000A000000000000000000000000000000000000000000000 000000000000000000000000000000000000000     00000000                                                                                                                        000000000000000000
F0010000010163800005000089031248700013552100000000000000000201706060002001DISTRIBUIDORA CALIPLASTICOS LTDA                  D000000000000000000000000000000000100010010000000000000000000000F0010000010163800520170606000101 00000000000000000000000000000000000000000000000000000000000000000000000000000000000000000000000000000000000000000N 00000000000NCONT   00    00000000000          00000000000000000000000000000000000000000000 000000000000000A000000000000000000000000000000000000000000000 000000000000000000000000000000000000000     00000000                                                                                                                        000000000000000000
F0010000010163900001000089031248700013050500000000000000000201706060002001DISTRIBUIDORA CALIPLASTICOS LTDA                  D000000038738200000000000000000000100010010000000000000000000000F0010000010163900120170606000101 00000000000000000000000000000000000000000000000000000000000000000000000000000000000000000000000000000000000000000N 00000000000NCONT   00    00000000000          00000000000000000000000000000000000000000000 000000000000000A000000000000000000000000000000000000000000000 000000000000000000000000000000000000000     00000000                                                                                                                        000000000000000000
F0010000010163900002000089031248700041450500000000000000000201706060002001DISTRIBUIDORA CALIPLASTICOS LTDA                  C000000035213200000000000000000000100010010000000000000000000000F0010000010163900220170606000101 00000000000000000000000000000000000000000000000000000000000000000000000000000000000000000000000000000000000000000N 00000000000NCONT   00    00000000000          00000000000000000000000000000000000000000000 000000000000000A000000000000000000000000000000000000000000000 000000000000000000000000000000000000000     00000000                                                                                                                        000000000000000000
F0010000010163900003000089031248700042505000000000000000000201706060002001DISTRIBUIDORA CALIPLASTICOS LTDA                  C000000003525000000000000000000000100010010000000000000000000000F0010000010163900320170606000101 00000000000000000000000000000000000000000000000000000000000000000000000000000000000000000000000000000000000000000N 00000000000NCONT   00    00000000000          00000000000000000000000000000000000000000000 000000000000000A000000000000000000000000000000000000000000000 000000000000000000000000000000000000000     00000000                                                                                                                        000000000000000000
F0010000010163900004000089031248700023658300000000000000000201706060002001DISTRIBUIDORA CALIPLASTICOS LTDA                  C000000000000000000000000000000000100010010000000000000000000000F0010000010163900420170606000101 00000000000000000000000000000000000000000000000000000000000000000000000000000000000000000000000000000000000000000N 00000000000NCONT   00    00000000000          00000000000000000000000000000000000000000000 000000000000000A000000000000000000000000000000000000000000000 000000000000000000000000000000000000000     00000000                                                                                                                        000000000000000000
F0010000010163900005000089031248700013552100000000000000000201706060002001DISTRIBUIDORA CALIPLASTICOS LTDA                  D000000000000000000000000000000000100010010000000000000000000000F0010000010163900520170606000101 00000000000000000000000000000000000000000000000000000000000000000000000000000000000000000000000000000000000000000N 00000000000NCONT   00    00000000000          00000000000000000000000000000000000000000000 000000000000000A000000000000000000000000000000000000000000000 000000000000000000000000000000000000000     00000000                                                                                                                        000000000000000000
F0010000010164000001000081102758700013050500000000000000000201706060002001C.I. ABRACOL S.A EMA                              D000000093529900000000000000000000100010010000000000000000000000F0010000010164000120170606000101 00000000000000000000000000000000000000000000000000000000000000000000000000000000000000000000000000000000000000000N 00000000000NCONT   00    00000000000          00000000000000000000000000000000000000000000 000000000000000A000000000000000000000000000000000000000000000 000000000000000000000000000000000000000     00000000                                                                                                                        000000000000000000
F0010000010164000002000081102758700041450500000000000000000201706060002001C.I. ABRACOL S.A EMA                              C000000070070000000000000000000000100010010000000000000000000000F0010000010164000220170606000101 00000000000000000000000000000000000000000000000000000000000000000000000000000000000000000000000000000000000000000N 00000000000NCONT   00    00000000000          00000000000000000000000000000000000000000000 000000000000000A000000000000000000000000000000000000000000000 000000000000000000000000000000000000000     00000000                                                                                                                        000000000000000000
F0010000010164000003000081102758700041750100000000000000000201706060002001C.I. ABRACOL S.A EMA                              D000000002102100000000000000000000100010010000000000000000000000F0010000010164000320170606000101 00000000000000000000000000000000000000000000000000000000000000000000000000000000000000000000000000000000000000000N 00000000000NCONT   00    00000000000          00000000000000000000000000000000000000000000 000000000000000A000000000000000000000000000000000000000000000 000000000000000000000000000000000000000     00000000                                                                                                                        000000000000000000
F0010000010164000004000081102758700042505000000000000000000201706060002001C.I. ABRACOL S.A EMA                              C000000025562000000000000000000000100010010000000000000000000000F0010000010164000420170606000101 00000000000000000000000000000000000000000000000000000000000000000000000000000000000000000000000000000000000000000N 00000000000NCONT   00    00000000000          00000000000000000000000000000000000000000000 000000000000000A000000000000000000000000000000000000000000000 000000000000000000000000000000000000000     00000000                                                                                                                        000000000000000000
F0010000010164000005000081102758700023658300000000000000000201706060002001C.I. ABRACOL S.A EMA                              C000000000000000000000000000000000100010010000000000000000000000F0010000010164000520170606000101 00000000000000000000000000000000000000000000000000000000000000000000000000000000000000000000000000000000000000000N 00000000000NCONT   00    00000000000          00000000000000000000000000000000000000000000 000000000000000A000000000000000000000000000000000000000000000 000000000000000000000000000000000000000     00000000                                                                                                                        000000000000000000
F0010000010164000006000081102758700013552100000000000000000201706060002001C.I. ABRACOL S.A EMA                              D000000000000000000000000000000000100010010000000000000000000000F0010000010164000620170606000101 00000000000000000000000000000000000000000000000000000000000000000000000000000000000000000000000000000000000000000N 00000000000NCONT   00    00000000000          00000000000000000000000000000000000000000000 000000000000000A000000000000000000000000000000000000000000000 000000000000000000000000000000000000000     00000000                                                                                                                        000000000000000000
F0010000010164100001000081102758700013050500000000000000000201706060002001C.I. ABRACOL S.A EMA                              D000000062758600000000000000000000100010010000000000000000000000F0010000010164100120170606000101 00000000000000000000000000000000000000000000000000000000000000000000000000000000000000000000000000000000000000000N 00000000000NCONT   00    00000000000          00000000000000000000000000000000000000000000 000000000000000A000000000000000000000000000000000000000000000 000000000000000000000000000000000000000     00000000                                                                                                                        000000000000000000
F0010000010164100002000081102758700041450500000000000000000201706060002001C.I. ABRACOL S.A EMA                              C000000046716000000000000000000000100010010000000000000000000000F0010000010164100220170606000101 00000000000000000000000000000000000000000000000000000000000000000000000000000000000000000000000000000000000000000N 00000000000NCONT   00    00000000000          00000000000000000000000000000000000000000000 000000000000000A000000000000000000000000000000000000000000000 000000000000000000000000000000000000000     00000000                                                                                                                        000000000000000000
F0010000010164100003000081102758700041750100000000000000000201706060002001C.I. ABRACOL S.A EMA                              D000000001401500000000000000000000100010010000000000000000000000F0010000010164100320170606000101 00000000000000000000000000000000000000000000000000000000000000000000000000000000000000000000000000000000000000000N 00000000000NCONT   00    00000000000          00000000000000000000000000000000000000000000 000000000000000A000000000000000000000000000000000000000000000 000000000000000000000000000000000000000     00000000                                                                                                                        000000000000000000
F0010000010164100004000081102758700042505000000000000000000201706060002001C.I. ABRACOL S.A EMA                              C000000017444100000000000000000000100010010000000000000000000000F0010000010164100420170606000101 00000000000000000000000000000000000000000000000000000000000000000000000000000000000000000000000000000000000000000N 00000000000NCONT   00    00000000000          00000000000000000000000000000000000000000000 000000000000000A000000000000000000000000000000000000000000000 000000000000000000000000000000000000000     00000000                                                                                                                        000000000000000000
F0010000010164100005000081102758700023658300000000000000000201706060002001C.I. ABRACOL S.A EMA                              C000000000000000000000000000000000100010010000000000000000000000F0010000010164100520170606000101 00000000000000000000000000000000000000000000000000000000000000000000000000000000000000000000000000000000000000000N 00000000000NCONT   00    00000000000          00000000000000000000000000000000000000000000 000000000000000A000000000000000000000000000000000000000000000 000000000000000000000000000000000000000     00000000                                                                                                                        000000000000000000
F0010000010164100006000081102758700013552100000000000000000201706060002001C.I. ABRACOL S.A EMA                              D000000000000000000000000000000000100010010000000000000000000000F0010000010164100620170606000101 00000000000000000000000000000000000000000000000000000000000000000000000000000000000000000000000000000000000000000N 00000000000NCONT   00    00000000000          00000000000000000000000000000000000000000000 000000000000000A000000000000000000000000000000000000000000000 000000000000000000000000000000000000000     00000000                                                                                                                        000000000000000000
F0010000010164200001000000748239700013050500000000000000000201706060002001RAFAEL NAVARRO URIBE                              D000000055933600000000000000000000100010010000000000000000000000F0010000010164200120170606000101 00000000000000000000000000000000000000000000000000000000000000000000000000000000000000000000000000000000000000000N 00000000000NCONT   00    00000000000          00000000000000000000000000000000000000000000 000000000000000A000000000000000000000000000000000000000000000 000000000000000000000000000000000000000     00000000                                                                                                                        000000000000000000
F0010000010164200002000000748239700041450500000000000000000201706060002001RAFAEL NAVARRO URIBE                              C000000033810000000000000000000000100010010000000000000000000000F0010000010164200220170606000101 00000000000000000000000000000000000000000000000000000000000000000000000000000000000000000000000000000000000000000N 00000000000NCONT   00    00000000000          00000000000000000000000000000000000000000000 000000000000000A000000000000000000000000000000000000000000000 000000000000000000000000000000000000000     00000000                                                                                                                        000000000000000000
F0010000010164200003000000748239700042505000000000000000000201706060002001RAFAEL NAVARRO URIBE                              C000000022123600000000000000000000100010010000000000000000000000F0010000010164200320170606000101 00000000000000000000000000000000000000000000000000000000000000000000000000000000000000000000000000000000000000000N 00000000000NCONT   00    00000000000          00000000000000000000000000000000000000000000 000000000000000A000000000000000000000000000000000000000000000 000000000000000000000000000000000000000     00000000                                                                                                                        000000000000000000
F0010000010164200004000000748239700023658300000000000000000201706060002001RAFAEL NAVARRO URIBE                              C000000000000000000000000000000000100010010000000000000000000000F0010000010164200420170606000101 00000000000000000000000000000000000000000000000000000000000000000000000000000000000000000000000000000000000000000N 00000000000NCONT   00    00000000000          00000000000000000000000000000000000000000000 000000000000000A000000000000000000000000000000000000000000000 000000000000000000000000000000000000000     00000000                                                                                                                        000000000000000000
F0010000010164200005000000748239700013552100000000000000000201706060002001RAFAEL NAVARRO URIBE                              D000000000000000000000000000000000100010010000000000000000000000F0010000010164200520170606000101 00000000000000000000000000000000000000000000000000000000000000000000000000000000000000000000000000000000000000000N 00000000000NCONT   00    00000000000          00000000000000000000000000000000000000000000 000000000000000A000000000000000000000000000000000000000000000 000000000000000000000000000000000000000     00000000                                                                                                                        000000000000000000
F0010000010164300001000083011391400013050500000000000000000201706060002001INSTITUCIONAL STAR SERVICES LTDA                  D000000007510000000000000000000000100010010000000000000000000000F0010000010164300120170606000101 00000000000000000000000000000000000000000000000000000000000000000000000000000000000000000000000000000000000000000N 00000000000NCONT   00    00000000000          00000000000000000000000000000000000000000000 000000000000000A000000000000000000000000000000000000000000000 000000000000000000000000000000000000000     00000000                                                                                                                        000000000000000000
F0010000010164300002000083011391400041450500000000000000000201706060002001INSTITUCIONAL STAR SERVICES LTDA                  C000000006800000000000000000000000100010010000000000000000000000F0010000010164300220170606000101 00000000000000000000000000000000000000000000000000000000000000000000000000000000000000000000000000000000000000000N 00000000000NCONT   00    00000000000          00000000000000000000000000000000000000000000 000000000000000A000000000000000000000000000000000000000000000 000000000000000000000000000000000000000     00000000                                                                                                                        000000000000000000
F0010000010164300003000083011391400042505000000000000000000201706060002001INSTITUCIONAL STAR SERVICES LTDA                  C000000000710000000000000000000000100010010000000000000000000000F0010000010164300320170606000101 00000000000000000000000000000000000000000000000000000000000000000000000000000000000000000000000000000000000000000N 00000000000NCONT   00    00000000000          00000000000000000000000000000000000000000000 000000000000000A000000000000000000000000000000000000000000000 000000000000000000000000000000000000000     00000000                                                                                                                        000000000000000000
F0010000010164300004000083011391400023658300000000000000000201706060002001INSTITUCIONAL STAR SERVICES LTDA                  C000000000000000000000000000000000100010010000000000000000000000F0010000010164300420170606000101 00000000000000000000000000000000000000000000000000000000000000000000000000000000000000000000000000000000000000000N 00000000000NCONT   00    00000000000          00000000000000000000000000000000000000000000 000000000000000A000000000000000000000000000000000000000000000 000000000000000000000000000000000000000     00000000                                                                                                                        000000000000000000
F0010000010164300005000083011391400013552100000000000000000201706060002001INSTITUCIONAL STAR SERVICES LTDA                  D000000000000000000000000000000000100010010000000000000000000000F0010000010164300520170606000101 00000000000000000000000000000000000000000000000000000000000000000000000000000000000000000000000000000000000000000N 00000000000NCONT   00    00000000000          00000000000000000000000000000000000000000000 000000000000000A000000000000000000000000000000000000000000000 000000000000000000000000000000000000000     00000000                                                                                                                        000000000000000000
F0010000010164400001000080200863700013050500000000000000000201706060002001COPIN S.A.S                                       D000000044421200000000000000000000100010010000000000000000000000F0010000010164400120170606000101 00000000000000000000000000000000000000000000000000000000000000000000000000000000000000000000000000000000000000000N 00000000000NCONT   00    00000000000          00000000000000000000000000000000000000000000 000000000000000A000000000000000000000000000000000000000000000 000000000000000000000000000000000000000     00000000                                                                                                                        000000000000000000
F0010000010164400002000080200863700041450500000000000000000201706060002001COPIN S.A.S                                       C000000041260000000000000000000000100010010000000000000000000000F0010000010164400220170606000101 00000000000000000000000000000000000000000000000000000000000000000000000000000000000000000000000000000000000000000N 00000000000NCONT   00    00000000000          00000000000000000000000000000000000000000000 000000000000000A000000000000000000000000000000000000000000000 000000000000000000000000000000000000000     00000000                                                                                                                        000000000000000000
F0010000010164400003000080200863700042505000000000000000000201706060002001COPIN S.A.S                                       C000000003161200000000000000000000100010010000000000000000000000F0010000010164400320170606000101 00000000000000000000000000000000000000000000000000000000000000000000000000000000000000000000000000000000000000000N 00000000000NCONT   00    00000000000          00000000000000000000000000000000000000000000 000000000000000A000000000000000000000000000000000000000000000 000000000000000000000000000000000000000     00000000                                                                                                                        000000000000000000
F0010000010164400004000080200863700023658300000000000000000201706060002001COPIN S.A.S                                       C000000000000000000000000000000000100010010000000000000000000000F0010000010164400420170606000101 00000000000000000000000000000000000000000000000000000000000000000000000000000000000000000000000000000000000000000N 00000000000NCONT   00    00000000000          00000000000000000000000000000000000000000000 000000000000000A000000000000000000000000000000000000000000000 000000000000000000000000000000000000000     00000000                                                                                                                        000000000000000000
F0010000010164400005000080200863700013552100000000000000000201706060002001COPIN S.A.S                                       D000000000000000000000000000000000100010010000000000000000000000F0010000010164400520170606000101 00000000000000000000000000000000000000000000000000000000000000000000000000000000000000000000000000000000000000000N 00000000000NCONT   00    00000000000          00000000000000000000000000000000000000000000 000000000000000A000000000000000000000000000000000000000000000 000000000000000000000000000000000000000     00000000                                                                                                                        000000000000000000
F0010000010164500001000089011492400013050500000000000000000201706060002001AGE. CAUCHOSOL DE LA COSTA  SAS                   D000000102333000000000000000000000100010010000000000000000000000F0010000010164500120170606000101 00000000000000000000000000000000000000000000000000000000000000000000000000000000000000000000000000000000000000000N 00000000000NCONT   00    00000000000          00000000000000000000000000000000000000000000 000000000000000A000000000000000000000000000000000000000000000 000000000000000000000000000000000000000     00000000                                                                                                                        000000000000000000
F0010000010164500002000089011492400041450500000000000000000201706060002001AGE. CAUCHOSOL DE LA COSTA  SAS                   C000000057310000000000000000000000100010010000000000000000000000F0010000010164500220170606000101 00000000000000000000000000000000000000000000000000000000000000000000000000000000000000000000000000000000000000000N 00000000000NCONT   00    00000000000          00000000000000000000000000000000000000000000 000000000000000A000000000000000000000000000000000000000000000 000000000000000000000000000000000000000     00000000                                                                                                                        000000000000000000
F0010000010164500003000089011492400042505000000000000000000201706060002001AGE. CAUCHOSOL DE LA COSTA  SAS                   C000000045023000000000000000000000100010010000000000000000000000F0010000010164500320170606000101 00000000000000000000000000000000000000000000000000000000000000000000000000000000000000000000000000000000000000000N 00000000000NCONT   00    00000000000          00000000000000000000000000000000000000000000 000000000000000A000000000000000000000000000000000000000000000 000000000000000000000000000000000000000     00000000                                                                                                                        000000000000000000
F0010000010164500004000089011492400023658300000000000000000201706060002001AGE. CAUCHOSOL DE LA COSTA  SAS                   C000000000000000000000000000000000100010010000000000000000000000F0010000010164500420170606000101 00000000000000000000000000000000000000000000000000000000000000000000000000000000000000000000000000000000000000000N 00000000000NCONT   00    00000000000          00000000000000000000000000000000000000000000 000000000000000A000000000000000000000000000000000000000000000 000000000000000000000000000000000000000     00000000                                                                                                                        000000000000000000
F0010000010164500005000089011492400013552100000000000000000201706060002001AGE. CAUCHOSOL DE LA COSTA  SAS                   D000000000000000000000000000000000100010010000000000000000000000F0010000010164500520170606000101 00000000000000000000000000000000000000000000000000000000000000000000000000000000000000000000000000000000000000000N 00000000000NCONT   00    00000000000          00000000000000000000000000000000000000000000 000000000000000A000000000000000000000000000000000000000000000 000000000000000000000000000000000000000     00000000                                                                                                                        000000000000000000
F0010000010164600001000089080176300013050500000000000000000201706060002001SEGAR S.A.                                        D000000053348200000000000000000000100010010000000000000000000000F0010000010164600120170606000101 00000000000000000000000000000000000000000000000000000000000000000000000000000000000000000000000000000000000000000N 00000000000NCONT   00    00000000000          00000000000000000000000000000000000000000000 000000000000000A000000000000000000000000000000000000000000000 000000000000000000000000000000000000000     00000000                                                                                                                        000000000000000000
F0010000010164600002000089080176300041450500000000000000000201706060002001SEGAR S.A.                                        C000000044207900000000000000000000100010010000000000000000000000F0010000010164600220170606000101 00000000000000000000000000000000000000000000000000000000000000000000000000000000000000000000000000000000000000000N 00000000000NCONT   00    00000000000          00000000000000000000000000000000000000000000 000000000000000A000000000000000000000000000000000000000000000 000000000000000000000000000000000000000     00000000                                                                                                                        000000000000000000
F0010000010164600003000089080176300042505000000000000000000201706060002001SEGAR S.A.                                        C000000009140300000000000000000000100010010000000000000000000000F0010000010164600320170606000101 00000000000000000000000000000000000000000000000000000000000000000000000000000000000000000000000000000000000000000N 00000000000NCONT   00    00000000000          00000000000000000000000000000000000000000000 000000000000000A000000000000000000000000000000000000000000000 000000000000000000000000000000000000000     00000000                                                                                                                        000000000000000000
F0010000010164600004000089080176300023658300000000000000000201706060002001SEGAR S.A.                                        C000000000000000000000000000000000100010010000000000000000000000F0010000010164600420170606000101 00000000000000000000000000000000000000000000000000000000000000000000000000000000000000000000000000000000000000000N 00000000000NCONT   00    00000000000          00000000000000000000000000000000000000000000 000000000000000A000000000000000000000000000000000000000000000 000000000000000000000000000000000000000     00000000                                                                                                                        000000000000000000
F0010000010164600005000089080176300013552100000000000000000201706060002001SEGAR S.A.                                        D000000000000000000000000000000000100010010000000000000000000000F0010000010164600520170606000101 00000000000000000000000000000000000000000000000000000000000000000000000000000000000000000000000000000000000000000N 00000000000NCONT   00    00000000000          00000000000000000000000000000000000000000000 000000000000000A000000000000000000000000000000000000000000000 000000000000000000000000000000000000000     00000000                                                                                                                        000000000000000000
F0010000010164700001000089080176300013050500000000000000000201706060002001SEGAR S.A.                                        D000000056917200000000000000000000100010010000000000000000000000F0010000010164700120170606000101 00000000000000000000000000000000000000000000000000000000000000000000000000000000000000000000000000000000000000000N 00000000000NCONT   00    00000000000          00000000000000000000000000000000000000000000 000000000000000A000000000000000000000000000000000000000000000 000000000000000000000000000000000000000     00000000                                                                                                                        000000000000000000
F0010000010164700002000089080176300041450500000000000000000201706060002001SEGAR S.A.                                        C000000047405500000000000000000000100010010000000000000000000000F0010000010164700220170606000101 00000000000000000000000000000000000000000000000000000000000000000000000000000000000000000000000000000000000000000N 00000000000NCONT   00    00000000000          00000000000000000000000000000000000000000000 000000000000000A000000000000000000000000000000000000000000000 000000000000000000000000000000000000000     00000000                                                                                                                        000000000000000000
F0010000010164700003000089080176300042505000000000000000000201706060002001SEGAR S.A.                                        C000000009511700000000000000000000100010010000000000000000000000F0010000010164700320170606000101 00000000000000000000000000000000000000000000000000000000000000000000000000000000000000000000000000000000000000000N 00000000000NCONT   00    00000000000          00000000000000000000000000000000000000000000 000000000000000A000000000000000000000000000000000000000000000 000000000000000000000000000000000000000     00000000                                                                                                                        000000000000000000
F0010000010164700004000089080176300023658300000000000000000201706060002001SEGAR S.A.                                        C000000000000000000000000000000000100010010000000000000000000000F0010000010164700420170606000101 00000000000000000000000000000000000000000000000000000000000000000000000000000000000000000000000000000000000000000N 00000000000NCONT   00    00000000000          00000000000000000000000000000000000000000000 000000000000000A000000000000000000000000000000000000000000000 000000000000000000000000000000000000000     00000000                                                                                                                        000000000000000000
F0010000010164700005000089080176300013552100000000000000000201706060002001SEGAR S.A.                                        D000000000000000000000000000000000100010010000000000000000000000F0010000010164700520170606000101 00000000000000000000000000000000000000000000000000000000000000000000000000000000000000000000000000000000000000000N 00000000000NCONT   00    00000000000          00000000000000000000000000000000000000000000 000000000000000A000000000000000000000000000000000000000000000 000000000000000000000000000000000000000     00000000                                                                                                                        000000000000000000
