F0010000006174000001000089010131700011050500000000000000000201408220002001SOLDOGAS                                          D000000001500000000000000000000000100010010000000000000000000000F0010000006174000120140822000101 00000000000000000000000000000000000000000000000000000000000000000000000000000000000000000000000000000000000000000N 00000000000NCONT   00    00000000000          00000000000000000000000000000000000000000000 000000000000000A000000000000000000000000000000000000000000000 000000000000000000000000000000000000000     00000000                                                                                                                        000000000000000000
F0010000006174000002000089010131700041450500000000000000000201408220002001SOLDOGAS                                          C000000001300000000000000000000000100010010000000000000000000000F0010000006174000220140822000101 00000000000000000000000000000000000000000000000000000000000000000000000000000000000000000000000000000000000000000N 00000000000NCONT   00    00000000000          00000000000000000000000000000000000000000000 000000000000000A000000000000000000000000000000000000000000000 000000000000000000000000000000000000000     00000000                                                                                                                        000000000000000000
F0010000006174000003000089010131700042505000000000000000000201408220002001SOLDOGAS                                          C000000000200000000000000000000000100010010000000000000000000000F0010000006174000320140822000101 00000000000000000000000000000000000000000000000000000000000000000000000000000000000000000000000000000000000000000N 00000000000NCONT   00    00000000000          00000000000000000000000000000000000000000000 000000000000000A000000000000000000000000000000000000000000000 000000000000000000000000000000000000000     00000000                                                                                                                        000000000000000000
F0010000006174000004000089010131700023658300000000000000000201408220002001SOLDOGAS                                          C000000000010400000000000000000000100010010000000000000000000000F0010000006174000420140822000101 00000000000000000000000000000000000000000000000000000000000000000000000000000000000000000000000000000000000000000N 00000000000NCONT   00    00000000000          00000000000000000000000000000000000000000000 000000000000000A000000000000000000000000000000000000000000000 000000000000000000000000000000000000000     00000000                                                                                                                        000000000000000000
F0010000006174000005000089010131700013552100000000000000000201408220002001SOLDOGAS                                          D000000000010400000000000000000000100010010000000000000000000000F0010000006174000520140822000101 00000000000000000000000000000000000000000000000000000000000000000000000000000000000000000000000000000000000000000N 00000000000NCONT   00    00000000000          00000000000000000000000000000000000000000000 000000000000000A000000000000000000000000000000000000000000000 000000000000000000000000000000000000000     00000000                                                                                                                        000000000000000000
F0010000006174100001000086000089600013050500000000000000000201408220002001SIKA COLOMBIA S.A.                                D000000069288700000000000000000000100010010000000000000000000000F0010000006174100120140822000101 00000000000000000000000000000000000000000000000000000000000000000000000000000000000000000000000000000000000000000N 00000000000NCONT   00    00000000000          00000000000000000000000000000000000000000000 000000000000000A000000000000000000000000000000000000000000000 000000000000000000000000000000000000000     00000000                                                                                                                        000000000000000000
F0010000006174100002000086000089600041450500000000000000000201408220002001SIKA COLOMBIA S.A.                                C000000064944200000000000000000000100010010000000000000000000000F0010000006174100220140822000101 00000000000000000000000000000000000000000000000000000000000000000000000000000000000000000000000000000000000000000N 00000000000NCONT   00    00000000000          00000000000000000000000000000000000000000000 000000000000000A000000000000000000000000000000000000000000000 000000000000000000000000000000000000000     00000000                                                                                                                        000000000000000000
F0010000006174100003000086000089600042505000000000000000000201408220002001SIKA COLOMBIA S.A.                                C000000004344500000000000000000000100010010000000000000000000000F0010000006174100320140822000101 00000000000000000000000000000000000000000000000000000000000000000000000000000000000000000000000000000000000000000N 00000000000NCONT   00    00000000000          00000000000000000000000000000000000000000000 000000000000000A000000000000000000000000000000000000000000000 000000000000000000000000000000000000000     00000000                                                                                                                        000000000000000000
F0010000006174100004000086000089600023658300000000000000000201408220002001SIKA COLOMBIA S.A.                                C000000000519600000000000000000000100010010000000000000000000000F0010000006174100420140822000101 00000000000000000000000000000000000000000000000000000000000000000000000000000000000000000000000000000000000000000N 00000000000NCONT   00    00000000000          00000000000000000000000000000000000000000000 000000000000000A000000000000000000000000000000000000000000000 000000000000000000000000000000000000000     00000000                                                                                                                        000000000000000000
F0010000006174100005000086000089600013552100000000000000000201408220002001SIKA COLOMBIA S.A.                                D000000000519600000000000000000000100010010000000000000000000000F0010000006174100520140822000101 00000000000000000000000000000000000000000000000000000000000000000000000000000000000000000000000000000000000000000N 00000000000NCONT   00    00000000000          00000000000000000000000000000000000000000000 000000000000000A000000000000000000000000000000000000000000000 000000000000000000000000000000000000000     00000000                                                                                                                        000000000000000000
F0010000006174200001000000741691600011050500000000000000000201408220002001LUIS MOVILLA PACHECO                              D000000003000000000000000000000000100010010000000000000000000000F0010000006174200120140822000101 00000000000000000000000000000000000000000000000000000000000000000000000000000000000000000000000000000000000000000N 00000000000NCONT   00    00000000000          00000000000000000000000000000000000000000000 000000000000000A000000000000000000000000000000000000000000000 000000000000000000000000000000000000000     00000000                                                                                                                        000000000000000000
F0010000006174200002000000741691600041450500000000000000000201408220002001LUIS MOVILLA PACHECO                              C000000001400000000000000000000000100010010000000000000000000000F0010000006174200220140822000101 00000000000000000000000000000000000000000000000000000000000000000000000000000000000000000000000000000000000000000N 00000000000NCONT   00    00000000000          00000000000000000000000000000000000000000000 000000000000000A000000000000000000000000000000000000000000000 000000000000000000000000000000000000000     00000000                                                                                                                        000000000000000000
F0010000006174200003000000741691600042505000000000000000000201408220002001LUIS MOVILLA PACHECO                              C000000001600000000000000000000000100010010000000000000000000000F0010000006174200320140822000101 00000000000000000000000000000000000000000000000000000000000000000000000000000000000000000000000000000000000000000N 00000000000NCONT   00    00000000000          00000000000000000000000000000000000000000000 000000000000000A000000000000000000000000000000000000000000000 000000000000000000000000000000000000000     00000000                                                                                                                        000000000000000000
F0010000006174200004000000741691600023658300000000000000000201408220002001LUIS MOVILLA PACHECO                              C000000000011200000000000000000000100010010000000000000000000000F0010000006174200420140822000101 00000000000000000000000000000000000000000000000000000000000000000000000000000000000000000000000000000000000000000N 00000000000NCONT   00    00000000000          00000000000000000000000000000000000000000000 000000000000000A000000000000000000000000000000000000000000000 000000000000000000000000000000000000000     00000000                                                                                                                        000000000000000000
F0010000006174200005000000741691600013552100000000000000000201408220002001LUIS MOVILLA PACHECO                              D000000000011200000000000000000000100010010000000000000000000000F0010000006174200520140822000101 00000000000000000000000000000000000000000000000000000000000000000000000000000000000000000000000000000000000000000N 00000000000NCONT   00    00000000000          00000000000000000000000000000000000000000000 000000000000000A000000000000000000000000000000000000000000000 000000000000000000000000000000000000000     00000000                                                                                                                        000000000000000000
F0010000006174300001000090038132400011050500000000000000000201408220002001SOC.DE.COMERC.INTERN.DE PROD.IMP. Y NLS SAS       D000000010000000000000000000000000100010010000000000000000000000F0010000006174300120140822000101 00000000000000000000000000000000000000000000000000000000000000000000000000000000000000000000000000000000000000000N 00000000000NCONT   00    00000000000          00000000000000000000000000000000000000000000 000000000000000A000000000000000000000000000000000000000000000 000000000000000000000000000000000000000     00000000                                                                                                                        000000000000000000
F0010000006174300002000090038132400041450500000000000000000201408220002001SOC.DE.COMERC.INTERN.DE PROD.IMP. Y NLS SAS       C000000008700000000000000000000000100010010000000000000000000000F0010000006174300220140822000101 00000000000000000000000000000000000000000000000000000000000000000000000000000000000000000000000000000000000000000N 00000000000NCONT   00    00000000000          00000000000000000000000000000000000000000000 000000000000000A000000000000000000000000000000000000000000000 000000000000000000000000000000000000000     00000000                                                                                                                        000000000000000000
F0010000006174300003000090038132400042505000000000000000000201408220002001SOC.DE.COMERC.INTERN.DE PROD.IMP. Y NLS SAS       C000000001300000000000000000000000100010010000000000000000000000F0010000006174300320140822000101 00000000000000000000000000000000000000000000000000000000000000000000000000000000000000000000000000000000000000000N 00000000000NCONT   00    00000000000          00000000000000000000000000000000000000000000 000000000000000A000000000000000000000000000000000000000000000 000000000000000000000000000000000000000     00000000                                                                                                                        000000000000000000
F0010000006174300004000090038132400023658300000000000000000201408220002001SOC.DE.COMERC.INTERN.DE PROD.IMP. Y NLS SAS       C000000000069600000000000000000000100010010000000000000000000000F0010000006174300420140822000101 00000000000000000000000000000000000000000000000000000000000000000000000000000000000000000000000000000000000000000N 00000000000NCONT   00    00000000000          00000000000000000000000000000000000000000000 000000000000000A000000000000000000000000000000000000000000000 000000000000000000000000000000000000000     00000000                                                                                                                        000000000000000000
F0010000006174300005000090038132400013552100000000000000000201408220002001SOC.DE.COMERC.INTERN.DE PROD.IMP. Y NLS SAS       D000000000069600000000000000000000100010010000000000000000000000F0010000006174300520140822000101 00000000000000000000000000000000000000000000000000000000000000000000000000000000000000000000000000000000000000000N 00000000000NCONT   00    00000000000          00000000000000000000000000000000000000000000 000000000000000A000000000000000000000000000000000000000000000 000000000000000000000000000000000000000     00000000                                                                                                                        000000000000000000
F0010000006174400001000090038132400011050500000000000000000201408220002001SOC.DE.COMERC.INTERN.DE PROD.IMP. Y NLS SAS       D000000005800000000000000000000000100010010000000000000000000000F0010000006174400120140822000101 00000000000000000000000000000000000000000000000000000000000000000000000000000000000000000000000000000000000000000N 00000000000NCONT   00    00000000000          00000000000000000000000000000000000000000000 000000000000000A000000000000000000000000000000000000000000000 000000000000000000000000000000000000000     00000000                                                                                                                        000000000000000000
F0010000006174400002000090038132400041450500000000000000000201408220002001SOC.DE.COMERC.INTERN.DE PROD.IMP. Y NLS SAS       C000000005700000000000000000000000100010010000000000000000000000F0010000006174400220140822000101 00000000000000000000000000000000000000000000000000000000000000000000000000000000000000000000000000000000000000000N 00000000000NCONT   00    00000000000          00000000000000000000000000000000000000000000 000000000000000A000000000000000000000000000000000000000000000 000000000000000000000000000000000000000     00000000                                                                                                                        000000000000000000
F0010000006174400003000090038132400042505000000000000000000201408220002001SOC.DE.COMERC.INTERN.DE PROD.IMP. Y NLS SAS       C000000000100000000000000000000000100010010000000000000000000000F0010000006174400320140822000101 00000000000000000000000000000000000000000000000000000000000000000000000000000000000000000000000000000000000000000N 00000000000NCONT   00    00000000000          00000000000000000000000000000000000000000000 000000000000000A000000000000000000000000000000000000000000000 000000000000000000000000000000000000000     00000000                                                                                                                        000000000000000000
F0010000006174400004000090038132400023658300000000000000000201408220002001SOC.DE.COMERC.INTERN.DE PROD.IMP. Y NLS SAS       C000000000045600000000000000000000100010010000000000000000000000F0010000006174400420140822000101 00000000000000000000000000000000000000000000000000000000000000000000000000000000000000000000000000000000000000000N 00000000000NCONT   00    00000000000          00000000000000000000000000000000000000000000 000000000000000A000000000000000000000000000000000000000000000 000000000000000000000000000000000000000     00000000                                                                                                                        000000000000000000
F0010000006174400005000090038132400013552100000000000000000201408220002001SOC.DE.COMERC.INTERN.DE PROD.IMP. Y NLS SAS       D000000000045600000000000000000000100010010000000000000000000000F0010000006174400520140822000101 00000000000000000000000000000000000000000000000000000000000000000000000000000000000000000000000000000000000000000N 00000000000NCONT   00    00000000000          00000000000000000000000000000000000000000000 000000000000000A000000000000000000000000000000000000000000000 000000000000000000000000000000000000000     00000000                                                                                                                        000000000000000000
F0010000006174500001000090038132400011050500000000000000000201408220002001SOC.DE.COMERC.INTERN.DE PROD.IMP. Y NLS SAS       D000000004500000000000000000000000100010010000000000000000000000F0010000006174500120140822000101 00000000000000000000000000000000000000000000000000000000000000000000000000000000000000000000000000000000000000000N 00000000000NCONT   00    00000000000          00000000000000000000000000000000000000000000 000000000000000A000000000000000000000000000000000000000000000 000000000000000000000000000000000000000     00000000                                                                                                                        000000000000000000
F0010000006174500002000090038132400041450500000000000000000201408220002001SOC.DE.COMERC.INTERN.DE PROD.IMP. Y NLS SAS       C000000004450000000000000000000000100010010000000000000000000000F0010000006174500220140822000101 00000000000000000000000000000000000000000000000000000000000000000000000000000000000000000000000000000000000000000N 00000000000NCONT   00    00000000000          00000000000000000000000000000000000000000000 000000000000000A000000000000000000000000000000000000000000000 000000000000000000000000000000000000000     00000000                                                                                                                        000000000000000000
F0010000006174500003000090038132400042505000000000000000000201408220002001SOC.DE.COMERC.INTERN.DE PROD.IMP. Y NLS SAS       C000000000050000000000000000000000100010010000000000000000000000F0010000006174500320140822000101 00000000000000000000000000000000000000000000000000000000000000000000000000000000000000000000000000000000000000000N 00000000000NCONT   00    00000000000          00000000000000000000000000000000000000000000 000000000000000A000000000000000000000000000000000000000000000 000000000000000000000000000000000000000     00000000                                                                                                                        000000000000000000
F0010000006174500004000090038132400023658300000000000000000201408220002001SOC.DE.COMERC.INTERN.DE PROD.IMP. Y NLS SAS       C000000000035600000000000000000000100010010000000000000000000000F0010000006174500420140822000101 00000000000000000000000000000000000000000000000000000000000000000000000000000000000000000000000000000000000000000N 00000000000NCONT   00    00000000000          00000000000000000000000000000000000000000000 000000000000000A000000000000000000000000000000000000000000000 000000000000000000000000000000000000000     00000000                                                                                                                        000000000000000000
F0010000006174500005000090038132400013552100000000000000000201408220002001SOC.DE.COMERC.INTERN.DE PROD.IMP. Y NLS SAS       D000000000035600000000000000000000100010010000000000000000000000F0010000006174500520140822000101 00000000000000000000000000000000000000000000000000000000000000000000000000000000000000000000000000000000000000000N 00000000000NCONT   00    00000000000          00000000000000000000000000000000000000000000 000000000000000A000000000000000000000000000000000000000000000 000000000000000000000000000000000000000     00000000                                                                                                                        000000000000000000
F0010000006174600001000090055180500011050500000000000000000201408220002001LAMINAS Y SUELAS DE COLOMBIA S.A.S                D000000004000000000000000000000000100010010000000000000000000000F0010000006174600120140822000101 00000000000000000000000000000000000000000000000000000000000000000000000000000000000000000000000000000000000000000N 00000000000NCONT   00    00000000000          00000000000000000000000000000000000000000000 000000000000000A000000000000000000000000000000000000000000000 000000000000000000000000000000000000000     00000000                                                                                                                        000000000000000000
F0010000006174600002000090055180500041450500000000000000000201408220002001LAMINAS Y SUELAS DE COLOMBIA S.A.S                C000000003750000000000000000000000100010010000000000000000000000F0010000006174600220140822000101 00000000000000000000000000000000000000000000000000000000000000000000000000000000000000000000000000000000000000000N 00000000000NCONT   00    00000000000          00000000000000000000000000000000000000000000 000000000000000A000000000000000000000000000000000000000000000 000000000000000000000000000000000000000     00000000                                                                                                                        000000000000000000
F0010000006174600003000090055180500042505000000000000000000201408220002001LAMINAS Y SUELAS DE COLOMBIA S.A.S                C000000000250000000000000000000000100010010000000000000000000000F0010000006174600320140822000101 00000000000000000000000000000000000000000000000000000000000000000000000000000000000000000000000000000000000000000N 00000000000NCONT   00    00000000000          00000000000000000000000000000000000000000000 000000000000000A000000000000000000000000000000000000000000000 000000000000000000000000000000000000000     00000000                                                                                                                        000000000000000000
F0010000006174600004000090055180500023658300000000000000000201408220002001LAMINAS Y SUELAS DE COLOMBIA S.A.S                C000000000030000000000000000000000100010010000000000000000000000F0010000006174600420140822000101 00000000000000000000000000000000000000000000000000000000000000000000000000000000000000000000000000000000000000000N 00000000000NCONT   00    00000000000          00000000000000000000000000000000000000000000 000000000000000A000000000000000000000000000000000000000000000 000000000000000000000000000000000000000     00000000                                                                                                                        000000000000000000
F0010000006174600005000090055180500013552100000000000000000201408220002001LAMINAS Y SUELAS DE COLOMBIA S.A.S                D000000000030000000000000000000000100010010000000000000000000000F0010000006174600520140822000101 00000000000000000000000000000000000000000000000000000000000000000000000000000000000000000000000000000000000000000N 00000000000NCONT   00    00000000000          00000000000000000000000000000000000000000000 000000000000000A000000000000000000000000000000000000000000000 000000000000000000000000000000000000000     00000000                                                                                                                        000000000000000000
F0010000006174700001000090038132400011050500000000000000000201408220002001SOC.DE.COMERC.INTERN.DE PROD.IMP. Y NLS SAS       D000000004950000000000000000000000100010010000000000000000000000F0010000006174700120140822000101 00000000000000000000000000000000000000000000000000000000000000000000000000000000000000000000000000000000000000000N 00000000000NCONT   00    00000000000          00000000000000000000000000000000000000000000 000000000000000A000000000000000000000000000000000000000000000 000000000000000000000000000000000000000     00000000                                                                                                                        000000000000000000
F0010000006174700002000090038132400041450500000000000000000201408220002001SOC.DE.COMERC.INTERN.DE PROD.IMP. Y NLS SAS       C000000003450000000000000000000000100010010000000000000000000000F0010000006174700220140822000101 00000000000000000000000000000000000000000000000000000000000000000000000000000000000000000000000000000000000000000N 00000000000NCONT   00    00000000000          00000000000000000000000000000000000000000000 000000000000000A000000000000000000000000000000000000000000000 000000000000000000000000000000000000000     00000000                                                                                                                        000000000000000000
F0010000006174700003000090038132400042505000000000000000000201408220002001SOC.DE.COMERC.INTERN.DE PROD.IMP. Y NLS SAS       C000000001500000000000000000000000100010010000000000000000000000F0010000006174700320140822000101 00000000000000000000000000000000000000000000000000000000000000000000000000000000000000000000000000000000000000000N 00000000000NCONT   00    00000000000          00000000000000000000000000000000000000000000 000000000000000A000000000000000000000000000000000000000000000 000000000000000000000000000000000000000     00000000                                                                                                                        000000000000000000
F0010000006174700004000090038132400023658300000000000000000201408220002001SOC.DE.COMERC.INTERN.DE PROD.IMP. Y NLS SAS       C000000000027600000000000000000000100010010000000000000000000000F0010000006174700420140822000101 00000000000000000000000000000000000000000000000000000000000000000000000000000000000000000000000000000000000000000N 00000000000NCONT   00    00000000000          00000000000000000000000000000000000000000000 000000000000000A000000000000000000000000000000000000000000000 000000000000000000000000000000000000000     00000000                                                                                                                        000000000000000000
F0010000006174700005000090038132400013552100000000000000000201408220002001SOC.DE.COMERC.INTERN.DE PROD.IMP. Y NLS SAS       D000000000027600000000000000000000100010010000000000000000000000F0010000006174700520140822000101 00000000000000000000000000000000000000000000000000000000000000000000000000000000000000000000000000000000000000000N 00000000000NCONT   00    00000000000          00000000000000000000000000000000000000000000 000000000000000A000000000000000000000000000000000000000000000 000000000000000000000000000000000000000     00000000                                                                                                                        000000000000000000
F0010000006174800001000000871573200011050500000000000000000201408220002001ACCESORIAS ARQUITECTONI KJ                        D000000001600000000000000000000000100010010000000000000000000000F0010000006174800120140822000101 00000000000000000000000000000000000000000000000000000000000000000000000000000000000000000000000000000000000000000N 00000000000NCONT   00    00000000000          00000000000000000000000000000000000000000000 000000000000000A000000000000000000000000000000000000000000000 000000000000000000000000000000000000000     00000000                                                                                                                        000000000000000000
F0010000006174800002000000871573200041450500000000000000000201408220002001ACCESORIAS ARQUITECTONI KJ                        C000000001200000000000000000000000100010010000000000000000000000F0010000006174800220140822000101 00000000000000000000000000000000000000000000000000000000000000000000000000000000000000000000000000000000000000000N 00000000000NCONT   00    00000000000          00000000000000000000000000000000000000000000 000000000000000A000000000000000000000000000000000000000000000 000000000000000000000000000000000000000     00000000                                                                                                                        000000000000000000
F0010000006174800003000000871573200042505000000000000000000201408220002001ACCESORIAS ARQUITECTONI KJ                        C000000000400000000000000000000000100010010000000000000000000000F0010000006174800320140822000101 00000000000000000000000000000000000000000000000000000000000000000000000000000000000000000000000000000000000000000N 00000000000NCONT   00    00000000000          00000000000000000000000000000000000000000000 000000000000000A000000000000000000000000000000000000000000000 000000000000000000000000000000000000000     00000000                                                                                                                        000000000000000000
F0010000006174800004000000871573200023658300000000000000000201408220002001ACCESORIAS ARQUITECTONI KJ                        C000000000009600000000000000000000100010010000000000000000000000F0010000006174800420140822000101 00000000000000000000000000000000000000000000000000000000000000000000000000000000000000000000000000000000000000000N 00000000000NCONT   00    00000000000          00000000000000000000000000000000000000000000 000000000000000A000000000000000000000000000000000000000000000 000000000000000000000000000000000000000     00000000                                                                                                                        000000000000000000
F0010000006174800005000000871573200013552100000000000000000201408220002001ACCESORIAS ARQUITECTONI KJ                        D000000000009600000000000000000000100010010000000000000000000000F0010000006174800520140822000101 00000000000000000000000000000000000000000000000000000000000000000000000000000000000000000000000000000000000000000N 00000000000NCONT   00    00000000000          00000000000000000000000000000000000000000000 000000000000000A000000000000000000000000000000000000000000000 000000000000000000000000000000000000000     00000000                                                                                                                        000000000000000000
F0010000006174900001000000871573200011050500000000000000000201408220002001ACCESORIAS ARQUITECTONI KJ                        D000000004700000000000000000000000100010010000000000000000000000F0010000006174900120140822000101 00000000000000000000000000000000000000000000000000000000000000000000000000000000000000000000000000000000000000000N 00000000000NCONT   00    00000000000          00000000000000000000000000000000000000000000 000000000000000A000000000000000000000000000000000000000000000 000000000000000000000000000000000000000     00000000                                                                                                                        000000000000000000
F0010000006174900002000000871573200041450500000000000000000201408220002001ACCESORIAS ARQUITECTONI KJ                        C000000002400000000000000000000000100010010000000000000000000000F0010000006174900220140822000101 00000000000000000000000000000000000000000000000000000000000000000000000000000000000000000000000000000000000000000N 00000000000NCONT   00    00000000000          00000000000000000000000000000000000000000000 000000000000000A000000000000000000000000000000000000000000000 000000000000000000000000000000000000000     00000000                                                                                                                        000000000000000000
F0010000006174900003000000871573200042505000000000000000000201408220002001ACCESORIAS ARQUITECTONI KJ                        C000000002300000000000000000000000100010010000000000000000000000F0010000006174900320140822000101 00000000000000000000000000000000000000000000000000000000000000000000000000000000000000000000000000000000000000000N 00000000000NCONT   00    00000000000          00000000000000000000000000000000000000000000 000000000000000A000000000000000000000000000000000000000000000 000000000000000000000000000000000000000     00000000                                                                                                                        000000000000000000
F0010000006174900004000000871573200023658300000000000000000201408220002001ACCESORIAS ARQUITECTONI KJ                        C000000000019200000000000000000000100010010000000000000000000000F0010000006174900420140822000101 00000000000000000000000000000000000000000000000000000000000000000000000000000000000000000000000000000000000000000N 00000000000NCONT   00    00000000000          00000000000000000000000000000000000000000000 000000000000000A000000000000000000000000000000000000000000000 000000000000000000000000000000000000000     00000000                                                                                                                        000000000000000000
F0010000006174900005000000871573200013552100000000000000000201408220002001ACCESORIAS ARQUITECTONI KJ                        D000000000019200000000000000000000100010010000000000000000000000F0010000006174900520140822000101 00000000000000000000000000000000000000000000000000000000000000000000000000000000000000000000000000000000000000000N 00000000000NCONT   00    00000000000          00000000000000000000000000000000000000000000 000000000000000A000000000000000000000000000000000000000000000 000000000000000000000000000000000000000     00000000                                                                                                                        000000000000000000
F0010000006175000001000000871573200011050500000000000000000201408220002001ACCESORIAS ARQUITECTONI KJ                        D000000001600000000000000000000000100010010000000000000000000000F0010000006175000120140822000101 00000000000000000000000000000000000000000000000000000000000000000000000000000000000000000000000000000000000000000N 00000000000NCONT   00    00000000000          00000000000000000000000000000000000000000000 000000000000000A000000000000000000000000000000000000000000000 000000000000000000000000000000000000000     00000000                                                                                                                        000000000000000000
F0010000006175000002000000871573200041450500000000000000000201408220002001ACCESORIAS ARQUITECTONI KJ                        C000000001300000000000000000000000100010010000000000000000000000F0010000006175000220140822000101 00000000000000000000000000000000000000000000000000000000000000000000000000000000000000000000000000000000000000000N 00000000000NCONT   00    00000000000          00000000000000000000000000000000000000000000 000000000000000A000000000000000000000000000000000000000000000 000000000000000000000000000000000000000     00000000                                                                                                                        000000000000000000
F0010000006175000003000000871573200042505000000000000000000201408220002001ACCESORIAS ARQUITECTONI KJ                        C000000000300000000000000000000000100010010000000000000000000000F0010000006175000320140822000101 00000000000000000000000000000000000000000000000000000000000000000000000000000000000000000000000000000000000000000N 00000000000NCONT   00    00000000000          00000000000000000000000000000000000000000000 000000000000000A000000000000000000000000000000000000000000000 000000000000000000000000000000000000000     00000000                                                                                                                        000000000000000000
F0010000006175000004000000871573200023658300000000000000000201408220002001ACCESORIAS ARQUITECTONI KJ                        C000000000010400000000000000000000100010010000000000000000000000F0010000006175000420140822000101 00000000000000000000000000000000000000000000000000000000000000000000000000000000000000000000000000000000000000000N 00000000000NCONT   00    00000000000          00000000000000000000000000000000000000000000 000000000000000A000000000000000000000000000000000000000000000 000000000000000000000000000000000000000     00000000                                                                                                                        000000000000000000
F0010000006175000005000000871573200013552100000000000000000201408220002001ACCESORIAS ARQUITECTONI KJ                        D000000000010400000000000000000000100010010000000000000000000000F0010000006175000520140822000101 00000000000000000000000000000000000000000000000000000000000000000000000000000000000000000000000000000000000000000N 00000000000NCONT   00    00000000000          00000000000000000000000000000000000000000000 000000000000000A000000000000000000000000000000000000000000000 000000000000000000000000000000000000000     00000000                                                                                                                        000000000000000000
F0010000006175100001000000871573200011050500000000000000000201408220002001ACCESORIAS ARQUITECTONI KJ                        D000000008200000000000000000000000100010010000000000000000000000F0010000006175100120140822000101 00000000000000000000000000000000000000000000000000000000000000000000000000000000000000000000000000000000000000000N 00000000000NCONT   00    00000000000          00000000000000000000000000000000000000000000 000000000000000A000000000000000000000000000000000000000000000 000000000000000000000000000000000000000     00000000                                                                                                                        000000000000000000
F0010000006175100002000000871573200041450500000000000000000201408220002001ACCESORIAS ARQUITECTONI KJ                        C000000004800000000000000000000000100010010000000000000000000000F0010000006175100220140822000101 00000000000000000000000000000000000000000000000000000000000000000000000000000000000000000000000000000000000000000N 00000000000NCONT   00    00000000000          00000000000000000000000000000000000000000000 000000000000000A000000000000000000000000000000000000000000000 000000000000000000000000000000000000000     00000000                                                                                                                        000000000000000000
F0010000006175100003000000871573200042505000000000000000000201408220002001ACCESORIAS ARQUITECTONI KJ                        C000000003400000000000000000000000100010010000000000000000000000F0010000006175100320140822000101 00000000000000000000000000000000000000000000000000000000000000000000000000000000000000000000000000000000000000000N 00000000000NCONT   00    00000000000          00000000000000000000000000000000000000000000 000000000000000A000000000000000000000000000000000000000000000 000000000000000000000000000000000000000     00000000                                                                                                                        000000000000000000
F0010000006175100004000000871573200023658300000000000000000201408220002001ACCESORIAS ARQUITECTONI KJ                        C000000000038400000000000000000000100010010000000000000000000000F0010000006175100420140822000101 00000000000000000000000000000000000000000000000000000000000000000000000000000000000000000000000000000000000000000N 00000000000NCONT   00    00000000000          00000000000000000000000000000000000000000000 000000000000000A000000000000000000000000000000000000000000000 000000000000000000000000000000000000000     00000000                                                                                                                        000000000000000000
F0010000006175100005000000871573200013552100000000000000000201408220002001ACCESORIAS ARQUITECTONI KJ                        D000000000038400000000000000000000100010010000000000000000000000F0010000006175100520140822000101 00000000000000000000000000000000000000000000000000000000000000000000000000000000000000000000000000000000000000000N 00000000000NCONT   00    00000000000          00000000000000000000000000000000000000000000 000000000000000A000000000000000000000000000000000000000000000 000000000000000000000000000000000000000     00000000                                                                                                                        000000000000000000
F0010000006175200001000000871573200011050500000000000000000201408220002001ACCESORIAS ARQUITECTONI KJ                        D000000002600000000000000000000000100010010000000000000000000000F0010000006175200120140822000101 00000000000000000000000000000000000000000000000000000000000000000000000000000000000000000000000000000000000000000N 00000000000NCONT   00    00000000000          00000000000000000000000000000000000000000000 000000000000000A000000000000000000000000000000000000000000000 000000000000000000000000000000000000000     00000000                                                                                                                        000000000000000000
F0010000006175200002000000871573200041450500000000000000000201408220002001ACCESORIAS ARQUITECTONI KJ                        C000000001300000000000000000000000100010010000000000000000000000F0010000006175200220140822000101 00000000000000000000000000000000000000000000000000000000000000000000000000000000000000000000000000000000000000000N 00000000000NCONT   00    00000000000          00000000000000000000000000000000000000000000 000000000000000A000000000000000000000000000000000000000000000 000000000000000000000000000000000000000     00000000                                                                                                                        000000000000000000
F0010000006175200003000000871573200042505000000000000000000201408220002001ACCESORIAS ARQUITECTONI KJ                        C000000001300000000000000000000000100010010000000000000000000000F0010000006175200320140822000101 00000000000000000000000000000000000000000000000000000000000000000000000000000000000000000000000000000000000000000N 00000000000NCONT   00    00000000000          00000000000000000000000000000000000000000000 000000000000000A000000000000000000000000000000000000000000000 000000000000000000000000000000000000000     00000000                                                                                                                        000000000000000000
F0010000006175200004000000871573200023658300000000000000000201408220002001ACCESORIAS ARQUITECTONI KJ                        C000000000010400000000000000000000100010010000000000000000000000F0010000006175200420140822000101 00000000000000000000000000000000000000000000000000000000000000000000000000000000000000000000000000000000000000000N 00000000000NCONT   00    00000000000          00000000000000000000000000000000000000000000 000000000000000A000000000000000000000000000000000000000000000 000000000000000000000000000000000000000     00000000                                                                                                                        000000000000000000
F0010000006175200005000000871573200013552100000000000000000201408220002001ACCESORIAS ARQUITECTONI KJ                        D000000000010400000000000000000000100010010000000000000000000000F0010000006175200520140822000101 00000000000000000000000000000000000000000000000000000000000000000000000000000000000000000000000000000000000000000N 00000000000NCONT   00    00000000000          00000000000000000000000000000000000000000000 000000000000000A000000000000000000000000000000000000000000000 000000000000000000000000000000000000000     00000000                                                                                                                        000000000000000000
F0010000006175300001000000871573200011050500000000000000000201408220002001ACCESORIAS ARQUITECTONI KJ                        D000000001200000000000000000000000100010010000000000000000000000F0010000006175300120140822000101 00000000000000000000000000000000000000000000000000000000000000000000000000000000000000000000000000000000000000000N 00000000000NCONT   00    00000000000          00000000000000000000000000000000000000000000 000000000000000A000000000000000000000000000000000000000000000 000000000000000000000000000000000000000     00000000                                                                                                                        000000000000000000
F0010000006175300002000000871573200041450500000000000000000201408220002001ACCESORIAS ARQUITECTONI KJ                        C000000000900000000000000000000000100010010000000000000000000000F0010000006175300220140822000101 00000000000000000000000000000000000000000000000000000000000000000000000000000000000000000000000000000000000000000N 00000000000NCONT   00    00000000000          00000000000000000000000000000000000000000000 000000000000000A000000000000000000000000000000000000000000000 000000000000000000000000000000000000000     00000000                                                                                                                        000000000000000000
F0010000006175300003000000871573200042505000000000000000000201408220002001ACCESORIAS ARQUITECTONI KJ                        C000000000300000000000000000000000100010010000000000000000000000F0010000006175300320140822000101 00000000000000000000000000000000000000000000000000000000000000000000000000000000000000000000000000000000000000000N 00000000000NCONT   00    00000000000          00000000000000000000000000000000000000000000 000000000000000A000000000000000000000000000000000000000000000 000000000000000000000000000000000000000     00000000                                                                                                                        000000000000000000
F0010000006175300004000000871573200023658300000000000000000201408220002001ACCESORIAS ARQUITECTONI KJ                        C000000000007200000000000000000000100010010000000000000000000000F0010000006175300420140822000101 00000000000000000000000000000000000000000000000000000000000000000000000000000000000000000000000000000000000000000N 00000000000NCONT   00    00000000000          00000000000000000000000000000000000000000000 000000000000000A000000000000000000000000000000000000000000000 000000000000000000000000000000000000000     00000000                                                                                                                        000000000000000000
F0010000006175300005000000871573200013552100000000000000000201408220002001ACCESORIAS ARQUITECTONI KJ                        D000000000007200000000000000000000100010010000000000000000000000F0010000006175300520140822000101 00000000000000000000000000000000000000000000000000000000000000000000000000000000000000000000000000000000000000000N 00000000000NCONT   00    00000000000          00000000000000000000000000000000000000000000 000000000000000A000000000000000000000000000000000000000000000 000000000000000000000000000000000000000     00000000                                                                                                                        000000000000000000
F0010000006175400001000000871573200011050500000000000000000201408220002001ACCESORIAS ARQUITECTONI KJ                        D000000002100000000000000000000000100010010000000000000000000000F0010000006175400120140822000101 00000000000000000000000000000000000000000000000000000000000000000000000000000000000000000000000000000000000000000N 00000000000NCONT   00    00000000000          00000000000000000000000000000000000000000000 000000000000000A000000000000000000000000000000000000000000000 000000000000000000000000000000000000000     00000000                                                                                                                        000000000000000000
F0010000006175400002000000871573200041450500000000000000000201408220002001ACCESORIAS ARQUITECTONI KJ                        C000000001200000000000000000000000100010010000000000000000000000F0010000006175400220140822000101 00000000000000000000000000000000000000000000000000000000000000000000000000000000000000000000000000000000000000000N 00000000000NCONT   00    00000000000          00000000000000000000000000000000000000000000 000000000000000A000000000000000000000000000000000000000000000 000000000000000000000000000000000000000     00000000                                                                                                                        000000000000000000
F0010000006175400003000000871573200042505000000000000000000201408220002001ACCESORIAS ARQUITECTONI KJ                        C000000000900000000000000000000000100010010000000000000000000000F0010000006175400320140822000101 00000000000000000000000000000000000000000000000000000000000000000000000000000000000000000000000000000000000000000N 00000000000NCONT   00    00000000000          00000000000000000000000000000000000000000000 000000000000000A000000000000000000000000000000000000000000000 000000000000000000000000000000000000000     00000000                                                                                                                        000000000000000000
F0010000006175400004000000871573200023658300000000000000000201408220002001ACCESORIAS ARQUITECTONI KJ                        C000000000009600000000000000000000100010010000000000000000000000F0010000006175400420140822000101 00000000000000000000000000000000000000000000000000000000000000000000000000000000000000000000000000000000000000000N 00000000000NCONT   00    00000000000          00000000000000000000000000000000000000000000 000000000000000A000000000000000000000000000000000000000000000 000000000000000000000000000000000000000     00000000                                                                                                                        000000000000000000
F0010000006175400005000000871573200013552100000000000000000201408220002001ACCESORIAS ARQUITECTONI KJ                        D000000000009600000000000000000000100010010000000000000000000000F0010000006175400520140822000101 00000000000000000000000000000000000000000000000000000000000000000000000000000000000000000000000000000000000000000N 00000000000NCONT   00    00000000000          00000000000000000000000000000000000000000000 000000000000000A000000000000000000000000000000000000000000000 000000000000000000000000000000000000000     00000000                                                                                                                        000000000000000000
F0010000006175500001000000871573200011050500000000000000000201408220002001ACCESORIAS ARQUITECTONI KJ                        D000000001500000000000000000000000100010010000000000000000000000F0010000006175500120140822000101 00000000000000000000000000000000000000000000000000000000000000000000000000000000000000000000000000000000000000000N 00000000000NCONT   00    00000000000          00000000000000000000000000000000000000000000 000000000000000A000000000000000000000000000000000000000000000 000000000000000000000000000000000000000     00000000                                                                                                                        000000000000000000
F0010000006175500002000000871573200041450500000000000000000201408220002001ACCESORIAS ARQUITECTONI KJ                        C000000001300000000000000000000000100010010000000000000000000000F0010000006175500220140822000101 00000000000000000000000000000000000000000000000000000000000000000000000000000000000000000000000000000000000000000N 00000000000NCONT   00    00000000000          00000000000000000000000000000000000000000000 000000000000000A000000000000000000000000000000000000000000000 000000000000000000000000000000000000000     00000000                                                                                                                        000000000000000000
F0010000006175500003000000871573200042505000000000000000000201408220002001ACCESORIAS ARQUITECTONI KJ                        C000000000200000000000000000000000100010010000000000000000000000F0010000006175500320140822000101 00000000000000000000000000000000000000000000000000000000000000000000000000000000000000000000000000000000000000000N 00000000000NCONT   00    00000000000          00000000000000000000000000000000000000000000 000000000000000A000000000000000000000000000000000000000000000 000000000000000000000000000000000000000     00000000                                                                                                                        000000000000000000
F0010000006175500004000000871573200023658300000000000000000201408220002001ACCESORIAS ARQUITECTONI KJ                        C000000000010400000000000000000000100010010000000000000000000000F0010000006175500420140822000101 00000000000000000000000000000000000000000000000000000000000000000000000000000000000000000000000000000000000000000N 00000000000NCONT   00    00000000000          00000000000000000000000000000000000000000000 000000000000000A000000000000000000000000000000000000000000000 000000000000000000000000000000000000000     00000000                                                                                                                        000000000000000000
F0010000006175500005000000871573200013552100000000000000000201408220002001ACCESORIAS ARQUITECTONI KJ                        D000000000010400000000000000000000100010010000000000000000000000F0010000006175500520140822000101 00000000000000000000000000000000000000000000000000000000000000000000000000000000000000000000000000000000000000000N 00000000000NCONT   00    00000000000          00000000000000000000000000000000000000000000 000000000000000A000000000000000000000000000000000000000000000 000000000000000000000000000000000000000     00000000                                                                                                                        000000000000000000
F0010000006175600001000000871573200011050500000000000000000201408220002001ACCESORIAS ARQUITECTONI KJ                        D000000005100000000000000000000000100010010000000000000000000000F0010000006175600120140822000101 00000000000000000000000000000000000000000000000000000000000000000000000000000000000000000000000000000000000000000N 00000000000NCONT   00    00000000000          00000000000000000000000000000000000000000000 000000000000000A000000000000000000000000000000000000000000000 000000000000000000000000000000000000000     00000000                                                                                                                        000000000000000000
F0010000006175600002000000871573200041450500000000000000000201408220002001ACCESORIAS ARQUITECTONI KJ                        C000000003600000000000000000000000100010010000000000000000000000F0010000006175600220140822000101 00000000000000000000000000000000000000000000000000000000000000000000000000000000000000000000000000000000000000000N 00000000000NCONT   00    00000000000          00000000000000000000000000000000000000000000 000000000000000A000000000000000000000000000000000000000000000 000000000000000000000000000000000000000     00000000                                                                                                                        000000000000000000
F0010000006175600003000000871573200042505000000000000000000201408220002001ACCESORIAS ARQUITECTONI KJ                        C000000001500000000000000000000000100010010000000000000000000000F0010000006175600320140822000101 00000000000000000000000000000000000000000000000000000000000000000000000000000000000000000000000000000000000000000N 00000000000NCONT   00    00000000000          00000000000000000000000000000000000000000000 000000000000000A000000000000000000000000000000000000000000000 000000000000000000000000000000000000000     00000000                                                                                                                        000000000000000000
F0010000006175600004000000871573200023658300000000000000000201408220002001ACCESORIAS ARQUITECTONI KJ                        C000000000028800000000000000000000100010010000000000000000000000F0010000006175600420140822000101 00000000000000000000000000000000000000000000000000000000000000000000000000000000000000000000000000000000000000000N 00000000000NCONT   00    00000000000          00000000000000000000000000000000000000000000 000000000000000A000000000000000000000000000000000000000000000 000000000000000000000000000000000000000     00000000                                                                                                                        000000000000000000
F0010000006175600005000000871573200013552100000000000000000201408220002001ACCESORIAS ARQUITECTONI KJ                        D000000000028800000000000000000000100010010000000000000000000000F0010000006175600520140822000101 00000000000000000000000000000000000000000000000000000000000000000000000000000000000000000000000000000000000000000N 00000000000NCONT   00    00000000000          00000000000000000000000000000000000000000000 000000000000000A000000000000000000000000000000000000000000000 000000000000000000000000000000000000000     00000000                                                                                                                        000000000000000000
F0010000006175700001000000860054200011050500000000000000000201408220002001HENRY DE LA HOZ                                   D000000029400000000000000000000000100010010000000000000000000000F0010000006175700120140822000101 00000000000000000000000000000000000000000000000000000000000000000000000000000000000000000000000000000000000000000N 00000000000NCONT   00    00000000000          00000000000000000000000000000000000000000000 000000000000000A000000000000000000000000000000000000000000000 000000000000000000000000000000000000000     00000000                                                                                                                        000000000000000000
F0010000006175700002000000860054200041450500000000000000000201408220002001HENRY DE LA HOZ                                   C000000026400000000000000000000000100010010000000000000000000000F0010000006175700220140822000101 00000000000000000000000000000000000000000000000000000000000000000000000000000000000000000000000000000000000000000N 00000000000NCONT   00    00000000000          00000000000000000000000000000000000000000000 000000000000000A000000000000000000000000000000000000000000000 000000000000000000000000000000000000000     00000000                                                                                                                        000000000000000000
F0010000006175700003000000860054200042505000000000000000000201408220002001HENRY DE LA HOZ                                   C000000003000000000000000000000000100010010000000000000000000000F0010000006175700320140822000101 00000000000000000000000000000000000000000000000000000000000000000000000000000000000000000000000000000000000000000N 00000000000NCONT   00    00000000000          00000000000000000000000000000000000000000000 000000000000000A000000000000000000000000000000000000000000000 000000000000000000000000000000000000000     00000000                                                                                                                        000000000000000000
F0010000006175700004000000860054200023658300000000000000000201408220002001HENRY DE LA HOZ                                   C000000000211200000000000000000000100010010000000000000000000000F0010000006175700420140822000101 00000000000000000000000000000000000000000000000000000000000000000000000000000000000000000000000000000000000000000N 00000000000NCONT   00    00000000000          00000000000000000000000000000000000000000000 000000000000000A000000000000000000000000000000000000000000000 000000000000000000000000000000000000000     00000000                                                                                                                        000000000000000000
F0010000006175700005000000860054200013552100000000000000000201408220002001HENRY DE LA HOZ                                   D000000000211200000000000000000000100010010000000000000000000000F0010000006175700520140822000101 00000000000000000000000000000000000000000000000000000000000000000000000000000000000000000000000000000000000000000N 00000000000NCONT   00    00000000000          00000000000000000000000000000000000000000000 000000000000000A000000000000000000000000000000000000000000000 000000000000000000000000000000000000000     00000000                                                                                                                        000000000000000000
F0010000006175800001000000860054200011050500000000000000000201408220002001HENRY DE LA HOZ                                   D000000003300000000000000000000000100010010000000000000000000000F0010000006175800120140822000101 00000000000000000000000000000000000000000000000000000000000000000000000000000000000000000000000000000000000000000N 00000000000NCONT   00    00000000000          00000000000000000000000000000000000000000000 000000000000000A000000000000000000000000000000000000000000000 000000000000000000000000000000000000000     00000000                                                                                                                        000000000000000000
F0010000006175800002000000860054200041450500000000000000000201408220002001HENRY DE LA HOZ                                   C000000003000000000000000000000000100010010000000000000000000000F0010000006175800220140822000101 00000000000000000000000000000000000000000000000000000000000000000000000000000000000000000000000000000000000000000N 00000000000NCONT   00    00000000000          00000000000000000000000000000000000000000000 000000000000000A000000000000000000000000000000000000000000000 000000000000000000000000000000000000000     00000000                                                                                                                        000000000000000000
F0010000006175800003000000860054200042505000000000000000000201408220002001HENRY DE LA HOZ                                   C000000000300000000000000000000000100010010000000000000000000000F0010000006175800320140822000101 00000000000000000000000000000000000000000000000000000000000000000000000000000000000000000000000000000000000000000N 00000000000NCONT   00    00000000000          00000000000000000000000000000000000000000000 000000000000000A000000000000000000000000000000000000000000000 000000000000000000000000000000000000000     00000000                                                                                                                        000000000000000000
F0010000006175800004000000860054200023658300000000000000000201408220002001HENRY DE LA HOZ                                   C000000000024000000000000000000000100010010000000000000000000000F0010000006175800420140822000101 00000000000000000000000000000000000000000000000000000000000000000000000000000000000000000000000000000000000000000N 00000000000NCONT   00    00000000000          00000000000000000000000000000000000000000000 000000000000000A000000000000000000000000000000000000000000000 000000000000000000000000000000000000000     00000000                                                                                                                        000000000000000000
F0010000006175800005000000860054200013552100000000000000000201408220002001HENRY DE LA HOZ                                   D000000000024000000000000000000000100010010000000000000000000000F0010000006175800520140822000101 00000000000000000000000000000000000000000000000000000000000000000000000000000000000000000000000000000000000000000N 00000000000NCONT   00    00000000000          00000000000000000000000000000000000000000000 000000000000000A000000000000000000000000000000000000000000000 000000000000000000000000000000000000000     00000000                                                                                                                        000000000000000000
F0010000006175900001000090007142100011050500000000000000000201408220002001TODO BELLEZA Y MAX S.A.S                          D000000000900000000000000000000000100010010000000000000000000000F0010000006175900120140822000101 00000000000000000000000000000000000000000000000000000000000000000000000000000000000000000000000000000000000000000N 00000000000NCONT   00    00000000000          00000000000000000000000000000000000000000000 000000000000000A000000000000000000000000000000000000000000000 000000000000000000000000000000000000000     00000000                                                                                                                        000000000000000000
F0010000006175900002000090007142100041450500000000000000000201408220002001TODO BELLEZA Y MAX S.A.S                          C000000000850000000000000000000000100010010000000000000000000000F0010000006175900220140822000101 00000000000000000000000000000000000000000000000000000000000000000000000000000000000000000000000000000000000000000N 00000000000NCONT   00    00000000000          00000000000000000000000000000000000000000000 000000000000000A000000000000000000000000000000000000000000000 000000000000000000000000000000000000000     00000000                                                                                                                        000000000000000000
F0010000006175900003000090007142100042505000000000000000000201408220002001TODO BELLEZA Y MAX S.A.S                          C000000000050000000000000000000000100010010000000000000000000000F0010000006175900320140822000101 00000000000000000000000000000000000000000000000000000000000000000000000000000000000000000000000000000000000000000N 00000000000NCONT   00    00000000000          00000000000000000000000000000000000000000000 000000000000000A000000000000000000000000000000000000000000000 000000000000000000000000000000000000000     00000000                                                                                                                        000000000000000000
F0010000006175900004000090007142100023658300000000000000000201408220002001TODO BELLEZA Y MAX S.A.S                          C000000000006800000000000000000000100010010000000000000000000000F0010000006175900420140822000101 00000000000000000000000000000000000000000000000000000000000000000000000000000000000000000000000000000000000000000N 00000000000NCONT   00    00000000000          00000000000000000000000000000000000000000000 000000000000000A000000000000000000000000000000000000000000000 000000000000000000000000000000000000000     00000000                                                                                                                        000000000000000000
F0010000006175900005000090007142100013552100000000000000000201408220002001TODO BELLEZA Y MAX S.A.S                          D000000000006800000000000000000000100010010000000000000000000000F0010000006175900520140822000101 00000000000000000000000000000000000000000000000000000000000000000000000000000000000000000000000000000000000000000N 00000000000NCONT   00    00000000000          00000000000000000000000000000000000000000000 000000000000000A000000000000000000000000000000000000000000000 000000000000000000000000000000000000000     00000000                                                                                                                        000000000000000000
F0010000006176000001000080002300200011050500000000000000000201408220002001DISREL S.A.                                       D000000003600000000000000000000000100010010000000000000000000000F0010000006176000120140822000101 00000000000000000000000000000000000000000000000000000000000000000000000000000000000000000000000000000000000000000N 00000000000NCONT   00    00000000000          00000000000000000000000000000000000000000000 000000000000000A000000000000000000000000000000000000000000000 000000000000000000000000000000000000000     00000000                                                                                                                        000000000000000000
F0010000006176000002000080002300200041450500000000000000000201408220002001DISREL S.A.                                       C000000002700000000000000000000000100010010000000000000000000000F0010000006176000220140822000101 00000000000000000000000000000000000000000000000000000000000000000000000000000000000000000000000000000000000000000N 00000000000NCONT   00    00000000000          00000000000000000000000000000000000000000000 000000000000000A000000000000000000000000000000000000000000000 000000000000000000000000000000000000000     00000000                                                                                                                        000000000000000000
F0010000006176000003000080002300200042505000000000000000000201408220002001DISREL S.A.                                       C000000000900000000000000000000000100010010000000000000000000000F0010000006176000320140822000101 00000000000000000000000000000000000000000000000000000000000000000000000000000000000000000000000000000000000000000N 00000000000NCONT   00    00000000000          00000000000000000000000000000000000000000000 000000000000000A000000000000000000000000000000000000000000000 000000000000000000000000000000000000000     00000000                                                                                                                        000000000000000000
F0010000006176000004000080002300200023658300000000000000000201408220002001DISREL S.A.                                       C000000000021600000000000000000000100010010000000000000000000000F0010000006176000420140822000101 00000000000000000000000000000000000000000000000000000000000000000000000000000000000000000000000000000000000000000N 00000000000NCONT   00    00000000000          00000000000000000000000000000000000000000000 000000000000000A000000000000000000000000000000000000000000000 000000000000000000000000000000000000000     00000000                                                                                                                        000000000000000000
F0010000006176000005000080002300200013552100000000000000000201408220002001DISREL S.A.                                       D000000000021600000000000000000000100010010000000000000000000000F0010000006176000520140822000101 00000000000000000000000000000000000000000000000000000000000000000000000000000000000000000000000000000000000000000N 00000000000NCONT   00    00000000000          00000000000000000000000000000000000000000000 000000000000000A000000000000000000000000000000000000000000000 000000000000000000000000000000000000000     00000000                                                                                                                        000000000000000000
F0010000006176100001000090036991700011050500000000000000000201408220002001DELTA INTERNACIONAL  S.A.S                        D000000003300000000000000000000000100010010000000000000000000000F0010000006176100120140822000101 00000000000000000000000000000000000000000000000000000000000000000000000000000000000000000000000000000000000000000N 00000000000NCONT   00    00000000000          00000000000000000000000000000000000000000000 000000000000000A000000000000000000000000000000000000000000000 000000000000000000000000000000000000000     00000000                                                                                                                        000000000000000000
F0010000006176100002000090036991700041450500000000000000000201408220002001DELTA INTERNACIONAL  S.A.S                        C000000003000000000000000000000000100010010000000000000000000000F0010000006176100220140822000101 00000000000000000000000000000000000000000000000000000000000000000000000000000000000000000000000000000000000000000N 00000000000NCONT   00    00000000000          00000000000000000000000000000000000000000000 000000000000000A000000000000000000000000000000000000000000000 000000000000000000000000000000000000000     00000000                                                                                                                        000000000000000000
F0010000006176100003000090036991700042505000000000000000000201408220002001DELTA INTERNACIONAL  S.A.S                        C000000000300000000000000000000000100010010000000000000000000000F0010000006176100320140822000101 00000000000000000000000000000000000000000000000000000000000000000000000000000000000000000000000000000000000000000N 00000000000NCONT   00    00000000000          00000000000000000000000000000000000000000000 000000000000000A000000000000000000000000000000000000000000000 000000000000000000000000000000000000000     00000000                                                                                                                        000000000000000000
F0010000006176100004000090036991700023658300000000000000000201408220002001DELTA INTERNACIONAL  S.A.S                        C000000000024000000000000000000000100010010000000000000000000000F0010000006176100420140822000101 00000000000000000000000000000000000000000000000000000000000000000000000000000000000000000000000000000000000000000N 00000000000NCONT   00    00000000000          00000000000000000000000000000000000000000000 000000000000000A000000000000000000000000000000000000000000000 000000000000000000000000000000000000000     00000000                                                                                                                        000000000000000000
F0010000006176100005000090036991700013552100000000000000000201408220002001DELTA INTERNACIONAL  S.A.S                        D000000000024000000000000000000000100010010000000000000000000000F0010000006176100520140822000101 00000000000000000000000000000000000000000000000000000000000000000000000000000000000000000000000000000000000000000N 00000000000NCONT   00    00000000000          00000000000000000000000000000000000000000000 000000000000000A000000000000000000000000000000000000000000000 000000000000000000000000000000000000000     00000000                                                                                                                        000000000000000000
F0010000006176200001000005525050200011050500000000000000000201408220002001PLASTICOS  DE LA COSTA                            D000000002718000000000000000000000100010010000000000000000000000F0010000006176200120140822000101 00000000000000000000000000000000000000000000000000000000000000000000000000000000000000000000000000000000000000000N 00000000000NCONT   00    00000000000          00000000000000000000000000000000000000000000 000000000000000A000000000000000000000000000000000000000000000 000000000000000000000000000000000000000     00000000                                                                                                                        000000000000000000
F0010000006176200002000005525050200041450500000000000000000201408220002001PLASTICOS  DE LA COSTA                            C000000002618000000000000000000000100010010000000000000000000000F0010000006176200220140822000101 00000000000000000000000000000000000000000000000000000000000000000000000000000000000000000000000000000000000000000N 00000000000NCONT   00    00000000000          00000000000000000000000000000000000000000000 000000000000000A000000000000000000000000000000000000000000000 000000000000000000000000000000000000000     00000000                                                                                                                        000000000000000000
F0010000006176200003000005525050200042505000000000000000000201408220002001PLASTICOS  DE LA COSTA                            C000000000100000000000000000000000100010010000000000000000000000F0010000006176200320140822000101 00000000000000000000000000000000000000000000000000000000000000000000000000000000000000000000000000000000000000000N 00000000000NCONT   00    00000000000          00000000000000000000000000000000000000000000 000000000000000A000000000000000000000000000000000000000000000 000000000000000000000000000000000000000     00000000                                                                                                                        000000000000000000
F0010000006176200004000005525050200023658300000000000000000201408220002001PLASTICOS  DE LA COSTA                            C000000000020900000000000000000000100010010000000000000000000000F0010000006176200420140822000101 00000000000000000000000000000000000000000000000000000000000000000000000000000000000000000000000000000000000000000N 00000000000NCONT   00    00000000000          00000000000000000000000000000000000000000000 000000000000000A000000000000000000000000000000000000000000000 000000000000000000000000000000000000000     00000000                                                                                                                        000000000000000000
F0010000006176200005000005525050200013552100000000000000000201408220002001PLASTICOS  DE LA COSTA                            D000000000020900000000000000000000100010010000000000000000000000F0010000006176200520140822000101 00000000000000000000000000000000000000000000000000000000000000000000000000000000000000000000000000000000000000000N 00000000000NCONT   00    00000000000          00000000000000000000000000000000000000000000 000000000000000A000000000000000000000000000000000000000000000 000000000000000000000000000000000000000     00000000                                                                                                                        000000000000000000
F0010000006176300001000090050144800011050500000000000000000201408220002001PLASTICOS JR ASOCIADOS SAS                        D000000003000000000000000000000000100010010000000000000000000000F0010000006176300120140822000101 00000000000000000000000000000000000000000000000000000000000000000000000000000000000000000000000000000000000000000N 00000000000NCONT   00    00000000000          00000000000000000000000000000000000000000000 000000000000000A000000000000000000000000000000000000000000000 000000000000000000000000000000000000000     00000000                                                                                                                        000000000000000000
F0010000006176300002000090050144800041450500000000000000000201408220002001PLASTICOS JR ASOCIADOS SAS                        C000000002600000000000000000000000100010010000000000000000000000F0010000006176300220140822000101 00000000000000000000000000000000000000000000000000000000000000000000000000000000000000000000000000000000000000000N 00000000000NCONT   00    00000000000          00000000000000000000000000000000000000000000 000000000000000A000000000000000000000000000000000000000000000 000000000000000000000000000000000000000     00000000                                                                                                                        000000000000000000
F0010000006176300003000090050144800042505000000000000000000201408220002001PLASTICOS JR ASOCIADOS SAS                        C000000000400000000000000000000000100010010000000000000000000000F0010000006176300320140822000101 00000000000000000000000000000000000000000000000000000000000000000000000000000000000000000000000000000000000000000N 00000000000NCONT   00    00000000000          00000000000000000000000000000000000000000000 000000000000000A000000000000000000000000000000000000000000000 000000000000000000000000000000000000000     00000000                                                                                                                        000000000000000000
F0010000006176300004000090050144800023658300000000000000000201408220002001PLASTICOS JR ASOCIADOS SAS                        C000000000020800000000000000000000100010010000000000000000000000F0010000006176300420140822000101 00000000000000000000000000000000000000000000000000000000000000000000000000000000000000000000000000000000000000000N 00000000000NCONT   00    00000000000          00000000000000000000000000000000000000000000 000000000000000A000000000000000000000000000000000000000000000 000000000000000000000000000000000000000     00000000                                                                                                                        000000000000000000
F0010000006176300005000090050144800013552100000000000000000201408220002001PLASTICOS JR ASOCIADOS SAS                        D000000000020800000000000000000000100010010000000000000000000000F0010000006176300520140822000101 00000000000000000000000000000000000000000000000000000000000000000000000000000000000000000000000000000000000000000N 00000000000NCONT   00    00000000000          00000000000000000000000000000000000000000000 000000000000000A000000000000000000000000000000000000000000000 000000000000000000000000000000000000000     00000000                                                                                                                        000000000000000000
F0010000006176400001000090050144800011050500000000000000000201408220002001PLASTICOS JR ASOCIADOS SAS                        D000000004200000000000000000000000100010010000000000000000000000F0010000006176400120140822000101 00000000000000000000000000000000000000000000000000000000000000000000000000000000000000000000000000000000000000000N 00000000000NCONT   00    00000000000          00000000000000000000000000000000000000000000 000000000000000A000000000000000000000000000000000000000000000 000000000000000000000000000000000000000     00000000                                                                                                                        000000000000000000
F0010000006176400002000090050144800041450500000000000000000201408220002001PLASTICOS JR ASOCIADOS SAS                        C000000003400000000000000000000000100010010000000000000000000000F0010000006176400220140822000101 00000000000000000000000000000000000000000000000000000000000000000000000000000000000000000000000000000000000000000N 00000000000NCONT   00    00000000000          00000000000000000000000000000000000000000000 000000000000000A000000000000000000000000000000000000000000000 000000000000000000000000000000000000000     00000000                                                                                                                        000000000000000000
F0010000006176400003000090050144800042505000000000000000000201408220002001PLASTICOS JR ASOCIADOS SAS                        C000000000800000000000000000000000100010010000000000000000000000F0010000006176400320140822000101 00000000000000000000000000000000000000000000000000000000000000000000000000000000000000000000000000000000000000000N 00000000000NCONT   00    00000000000          00000000000000000000000000000000000000000000 000000000000000A000000000000000000000000000000000000000000000 000000000000000000000000000000000000000     00000000                                                                                                                        000000000000000000
F0010000006176400004000090050144800023658300000000000000000201408220002001PLASTICOS JR ASOCIADOS SAS                        C000000000027200000000000000000000100010010000000000000000000000F0010000006176400420140822000101 00000000000000000000000000000000000000000000000000000000000000000000000000000000000000000000000000000000000000000N 00000000000NCONT   00    00000000000          00000000000000000000000000000000000000000000 000000000000000A000000000000000000000000000000000000000000000 000000000000000000000000000000000000000     00000000                                                                                                                        000000000000000000
F0010000006176400005000090050144800013552100000000000000000201408220002001PLASTICOS JR ASOCIADOS SAS                        D000000000027200000000000000000000100010010000000000000000000000F0010000006176400520140822000101 00000000000000000000000000000000000000000000000000000000000000000000000000000000000000000000000000000000000000000N 00000000000NCONT   00    00000000000          00000000000000000000000000000000000000000000 000000000000000A000000000000000000000000000000000000000000000 000000000000000000000000000000000000000     00000000                                                                                                                        000000000000000000
F0010000006176500001000002245670100011050500000000000000000201408220002001YOLANDA  TOBON                                    D000000002500000000000000000000000100010010000000000000000000000F0010000006176500120140822000101 00000000000000000000000000000000000000000000000000000000000000000000000000000000000000000000000000000000000000000N 00000000000NCONT   00    00000000000          00000000000000000000000000000000000000000000 000000000000000A000000000000000000000000000000000000000000000 000000000000000000000000000000000000000     00000000                                                                                                                        000000000000000000
F0010000006176500002000002245670100041450500000000000000000201408220002001YOLANDA  TOBON                                    C000000002200000000000000000000000100010010000000000000000000000F0010000006176500220140822000101 00000000000000000000000000000000000000000000000000000000000000000000000000000000000000000000000000000000000000000N 00000000000NCONT   00    00000000000          00000000000000000000000000000000000000000000 000000000000000A000000000000000000000000000000000000000000000 000000000000000000000000000000000000000     00000000                                                                                                                        000000000000000000
F0010000006176500003000002245670100042505000000000000000000201408220002001YOLANDA  TOBON                                    C000000000300000000000000000000000100010010000000000000000000000F0010000006176500320140822000101 00000000000000000000000000000000000000000000000000000000000000000000000000000000000000000000000000000000000000000N 00000000000NCONT   00    00000000000          00000000000000000000000000000000000000000000 000000000000000A000000000000000000000000000000000000000000000 000000000000000000000000000000000000000     00000000                                                                                                                        000000000000000000
F0010000006176500004000002245670100023658300000000000000000201408220002001YOLANDA  TOBON                                    C000000000017600000000000000000000100010010000000000000000000000F0010000006176500420140822000101 00000000000000000000000000000000000000000000000000000000000000000000000000000000000000000000000000000000000000000N 00000000000NCONT   00    00000000000          00000000000000000000000000000000000000000000 000000000000000A000000000000000000000000000000000000000000000 000000000000000000000000000000000000000     00000000                                                                                                                        000000000000000000
F0010000006176500005000002245670100013552100000000000000000201408220002001YOLANDA  TOBON                                    D000000000017600000000000000000000100010010000000000000000000000F0010000006176500520140822000101 00000000000000000000000000000000000000000000000000000000000000000000000000000000000000000000000000000000000000000N 00000000000NCONT   00    00000000000          00000000000000000000000000000000000000000000 000000000000000A000000000000000000000000000000000000000000000 000000000000000000000000000000000000000     00000000                                                                                                                        000000000000000000
F0010000006176600001000080202350700011050500000000000000000201408220002001CONNY DE LA COSTA SAS                             D000000002000000000000000000000000100010010000000000000000000000F0010000006176600120140822000101 00000000000000000000000000000000000000000000000000000000000000000000000000000000000000000000000000000000000000000N 00000000000NCONT   00    00000000000          00000000000000000000000000000000000000000000 000000000000000A000000000000000000000000000000000000000000000 000000000000000000000000000000000000000     00000000                                                                                                                        000000000000000000
F0010000006176600002000080202350700041450500000000000000000201408220002001CONNY DE LA COSTA SAS                             C000000001600000000000000000000000100010010000000000000000000000F0010000006176600220140822000101 00000000000000000000000000000000000000000000000000000000000000000000000000000000000000000000000000000000000000000N 00000000000NCONT   00    00000000000          00000000000000000000000000000000000000000000 000000000000000A000000000000000000000000000000000000000000000 000000000000000000000000000000000000000     00000000                                                                                                                        000000000000000000
F0010000006176600003000080202350700042505000000000000000000201408220002001CONNY DE LA COSTA SAS                             C000000000400000000000000000000000100010010000000000000000000000F0010000006176600320140822000101 00000000000000000000000000000000000000000000000000000000000000000000000000000000000000000000000000000000000000000N 00000000000NCONT   00    00000000000          00000000000000000000000000000000000000000000 000000000000000A000000000000000000000000000000000000000000000 000000000000000000000000000000000000000     00000000                                                                                                                        000000000000000000
F0010000006176600004000080202350700023658300000000000000000201408220002001CONNY DE LA COSTA SAS                             C000000000012800000000000000000000100010010000000000000000000000F0010000006176600420140822000101 00000000000000000000000000000000000000000000000000000000000000000000000000000000000000000000000000000000000000000N 00000000000NCONT   00    00000000000          00000000000000000000000000000000000000000000 000000000000000A000000000000000000000000000000000000000000000 000000000000000000000000000000000000000     00000000                                                                                                                        000000000000000000
F0010000006176600005000080202350700013552100000000000000000201408220002001CONNY DE LA COSTA SAS                             D000000000012800000000000000000000100010010000000000000000000000F0010000006176600520140822000101 00000000000000000000000000000000000000000000000000000000000000000000000000000000000000000000000000000000000000000N 00000000000NCONT   00    00000000000          00000000000000000000000000000000000000000000 000000000000000A000000000000000000000000000000000000000000000 000000000000000000000000000000000000000     00000000                                                                                                                        000000000000000000
F0010000006176700001000090024619400011050500000000000000000201408220002001COMERCIALIZADORA SALMAR LTDA                      D000000001300000000000000000000000100010010000000000000000000000F0010000006176700120140822000101 00000000000000000000000000000000000000000000000000000000000000000000000000000000000000000000000000000000000000000N 00000000000NCONT   00    00000000000          00000000000000000000000000000000000000000000 000000000000000A000000000000000000000000000000000000000000000 000000000000000000000000000000000000000     00000000                                                                                                                        000000000000000000
F0010000006176700002000090024619400041450500000000000000000201408220002001COMERCIALIZADORA SALMAR LTDA                      C000000000900000000000000000000000100010010000000000000000000000F0010000006176700220140822000101 00000000000000000000000000000000000000000000000000000000000000000000000000000000000000000000000000000000000000000N 00000000000NCONT   00    00000000000          00000000000000000000000000000000000000000000 000000000000000A000000000000000000000000000000000000000000000 000000000000000000000000000000000000000     00000000                                                                                                                        000000000000000000
F0010000006176700003000090024619400042505000000000000000000201408220002001COMERCIALIZADORA SALMAR LTDA                      C000000000400000000000000000000000100010010000000000000000000000F0010000006176700320140822000101 00000000000000000000000000000000000000000000000000000000000000000000000000000000000000000000000000000000000000000N 00000000000NCONT   00    00000000000          00000000000000000000000000000000000000000000 000000000000000A000000000000000000000000000000000000000000000 000000000000000000000000000000000000000     00000000                                                                                                                        000000000000000000
F0010000006176700004000090024619400023658300000000000000000201408220002001COMERCIALIZADORA SALMAR LTDA                      C000000000007200000000000000000000100010010000000000000000000000F0010000006176700420140822000101 00000000000000000000000000000000000000000000000000000000000000000000000000000000000000000000000000000000000000000N 00000000000NCONT   00    00000000000          00000000000000000000000000000000000000000000 000000000000000A000000000000000000000000000000000000000000000 000000000000000000000000000000000000000     00000000                                                                                                                        000000000000000000
F0010000006176700005000090024619400013552100000000000000000201408220002001COMERCIALIZADORA SALMAR LTDA                      D000000000007200000000000000000000100010010000000000000000000000F0010000006176700520140822000101 00000000000000000000000000000000000000000000000000000000000000000000000000000000000000000000000000000000000000000N 00000000000NCONT   00    00000000000          00000000000000000000000000000000000000000000 000000000000000A000000000000000000000000000000000000000000000 000000000000000000000000000000000000000     00000000                                                                                                                        000000000000000000
F0010000006176800001000002245486800011050500000000000000000201408220002001ALMACEN  DISTRIBEL                                D000000002000000000000000000000000100010010000000000000000000000F0010000006176800120140822000101 00000000000000000000000000000000000000000000000000000000000000000000000000000000000000000000000000000000000000000N 00000000000NCONT   00    00000000000          00000000000000000000000000000000000000000000 000000000000000A000000000000000000000000000000000000000000000 000000000000000000000000000000000000000     00000000                                                                                                                        000000000000000000
F0010000006176800002000002245486800041450500000000000000000201408220002001ALMACEN  DISTRIBEL                                C000000001600000000000000000000000100010010000000000000000000000F0010000006176800220140822000101 00000000000000000000000000000000000000000000000000000000000000000000000000000000000000000000000000000000000000000N 00000000000NCONT   00    00000000000          00000000000000000000000000000000000000000000 000000000000000A000000000000000000000000000000000000000000000 000000000000000000000000000000000000000     00000000                                                                                                                        000000000000000000
F0010000006176800003000002245486800042505000000000000000000201408220002001ALMACEN  DISTRIBEL                                C000000000400000000000000000000000100010010000000000000000000000F0010000006176800320140822000101 00000000000000000000000000000000000000000000000000000000000000000000000000000000000000000000000000000000000000000N 00000000000NCONT   00    00000000000          00000000000000000000000000000000000000000000 000000000000000A000000000000000000000000000000000000000000000 000000000000000000000000000000000000000     00000000                                                                                                                        000000000000000000
F0010000006176800004000002245486800023658300000000000000000201408220002001ALMACEN  DISTRIBEL                                C000000000012800000000000000000000100010010000000000000000000000F0010000006176800420140822000101 00000000000000000000000000000000000000000000000000000000000000000000000000000000000000000000000000000000000000000N 00000000000NCONT   00    00000000000          00000000000000000000000000000000000000000000 000000000000000A000000000000000000000000000000000000000000000 000000000000000000000000000000000000000     00000000                                                                                                                        000000000000000000
F0010000006176800005000002245486800013552100000000000000000201408220002001ALMACEN  DISTRIBEL                                D000000000012800000000000000000000100010010000000000000000000000F0010000006176800520140822000101 00000000000000000000000000000000000000000000000000000000000000000000000000000000000000000000000000000000000000000N 00000000000NCONT   00    00000000000          00000000000000000000000000000000000000000000 000000000000000A000000000000000000000000000000000000000000000 000000000000000000000000000000000000000     00000000                                                                                                                        000000000000000000
F0010000006176900001000086003979400011050500000000000000000201408220002001CALYPSO BARRANQUILLA LTDA                         D000000000960000000000000000000000100010010000000000000000000000F0010000006176900120140822000101 00000000000000000000000000000000000000000000000000000000000000000000000000000000000000000000000000000000000000000N 00000000000NCONT   00    00000000000          00000000000000000000000000000000000000000000 000000000000000A000000000000000000000000000000000000000000000 000000000000000000000000000000000000000     00000000                                                                                                                        000000000000000000
F0010000006176900002000086003979400041450500000000000000000201408220002001CALYPSO BARRANQUILLA LTDA                         C000000000660000000000000000000000100010010000000000000000000000F0010000006176900220140822000101 00000000000000000000000000000000000000000000000000000000000000000000000000000000000000000000000000000000000000000N 00000000000NCONT   00    00000000000          00000000000000000000000000000000000000000000 000000000000000A000000000000000000000000000000000000000000000 000000000000000000000000000000000000000     00000000                                                                                                                        000000000000000000
