F0010000006355900001000080200250700013050500000000000000000201410040002001ETICOL SAS                                        D000000074950000000000000000000000100010010000000000000000000000F0010000006355900120141004000101 00000000000000000000000000000000000000000000000000000000000000000000000000000000000000000000000000000000000000000N 00000000000NCONT   00    00000000000          00000000000000000000000000000000000000000000 000000000000000A000000000000000000000000000000000000000000000 000000000000000000000000000000000000000     00000000                                                                                                                        000000000000000000
F0010000006355900002000080200250700041450500000000000000000201410040002001ETICOL SAS                                        C000000073750000000000000000000000100010010000000000000000000000F0010000006355900220141004000101 00000000000000000000000000000000000000000000000000000000000000000000000000000000000000000000000000000000000000000N 00000000000NCONT   00    00000000000          00000000000000000000000000000000000000000000 000000000000000A000000000000000000000000000000000000000000000 000000000000000000000000000000000000000     00000000                                                                                                                        000000000000000000
F0010000006355900003000080200250700042505000000000000000000201410040002001ETICOL SAS                                        C000000001200000000000000000000000100010010000000000000000000000F0010000006355900320141004000101 00000000000000000000000000000000000000000000000000000000000000000000000000000000000000000000000000000000000000000N 00000000000NCONT   00    00000000000          00000000000000000000000000000000000000000000 000000000000000A000000000000000000000000000000000000000000000 000000000000000000000000000000000000000     00000000                                                                                                                        000000000000000000
F0010000006355900004000080200250700023658300000000000000000201410040002001ETICOL SAS                                        C000000000590000000000000000000000100010010000000000000000000000F0010000006355900420141004000101 00000000000000000000000000000000000000000000000000000000000000000000000000000000000000000000000000000000000000000N 00000000000NCONT   00    00000000000          00000000000000000000000000000000000000000000 000000000000000A000000000000000000000000000000000000000000000 000000000000000000000000000000000000000     00000000                                                                                                                        000000000000000000
F0010000006355900005000080200250700013552100000000000000000201410040002001ETICOL SAS                                        D000000000590000000000000000000000100010010000000000000000000000F0010000006355900520141004000101 00000000000000000000000000000000000000000000000000000000000000000000000000000000000000000000000000000000000000000N 00000000000NCONT   00    00000000000          00000000000000000000000000000000000000000000 000000000000000A000000000000000000000000000000000000000000000 000000000000000000000000000000000000000     00000000                                                                                                                        000000000000000000
F0010000006356000001000090034602400011050500000000000000000201410040002001LA CUSTODIA                                       D000000003000000000000000000000000100010010000000000000000000000F0010000006356000120141004000101 00000000000000000000000000000000000000000000000000000000000000000000000000000000000000000000000000000000000000000N 00000000000NCONT   00    00000000000          00000000000000000000000000000000000000000000 000000000000000A000000000000000000000000000000000000000000000 000000000000000000000000000000000000000     00000000                                                                                                                        000000000000000000
F0010000006356000002000090034602400041450500000000000000000201410040002001LA CUSTODIA                                       C000000002700000000000000000000000100010010000000000000000000000F0010000006356000220141004000101 00000000000000000000000000000000000000000000000000000000000000000000000000000000000000000000000000000000000000000N 00000000000NCONT   00    00000000000          00000000000000000000000000000000000000000000 000000000000000A000000000000000000000000000000000000000000000 000000000000000000000000000000000000000     00000000                                                                                                                        000000000000000000
F0010000006356000003000090034602400042505000000000000000000201410040002001LA CUSTODIA                                       C000000000300000000000000000000000100010010000000000000000000000F0010000006356000320141004000101 00000000000000000000000000000000000000000000000000000000000000000000000000000000000000000000000000000000000000000N 00000000000NCONT   00    00000000000          00000000000000000000000000000000000000000000 000000000000000A000000000000000000000000000000000000000000000 000000000000000000000000000000000000000     00000000                                                                                                                        000000000000000000
F0010000006356000004000090034602400023658300000000000000000201410040002001LA CUSTODIA                                       C000000000021600000000000000000000100010010000000000000000000000F0010000006356000420141004000101 00000000000000000000000000000000000000000000000000000000000000000000000000000000000000000000000000000000000000000N 00000000000NCONT   00    00000000000          00000000000000000000000000000000000000000000 000000000000000A000000000000000000000000000000000000000000000 000000000000000000000000000000000000000     00000000                                                                                                                        000000000000000000
F0010000006356000005000090034602400013552100000000000000000201410040002001LA CUSTODIA                                       D000000000021600000000000000000000100010010000000000000000000000F0010000006356000520141004000101 00000000000000000000000000000000000000000000000000000000000000000000000000000000000000000000000000000000000000000N 00000000000NCONT   00    00000000000          00000000000000000000000000000000000000000000 000000000000000A000000000000000000000000000000000000000000000 000000000000000000000000000000000000000     00000000                                                                                                                        000000000000000000
F0010000006356100001000090034602400011050500000000000000000201410040002001LA CUSTODIA                                       D000000002000000000000000000000000100010010000000000000000000000F0010000006356100120141004000101 00000000000000000000000000000000000000000000000000000000000000000000000000000000000000000000000000000000000000000N 00000000000NCONT   00    00000000000          00000000000000000000000000000000000000000000 000000000000000A000000000000000000000000000000000000000000000 000000000000000000000000000000000000000     00000000                                                                                                                        000000000000000000
F0010000006356100002000090034602400041450500000000000000000201410040002001LA CUSTODIA                                       C000000001800000000000000000000000100010010000000000000000000000F0010000006356100220141004000101 00000000000000000000000000000000000000000000000000000000000000000000000000000000000000000000000000000000000000000N 00000000000NCONT   00    00000000000          00000000000000000000000000000000000000000000 000000000000000A000000000000000000000000000000000000000000000 000000000000000000000000000000000000000     00000000                                                                                                                        000000000000000000
F0010000006356100003000090034602400042505000000000000000000201410040002001LA CUSTODIA                                       C000000000200000000000000000000000100010010000000000000000000000F0010000006356100320141004000101 00000000000000000000000000000000000000000000000000000000000000000000000000000000000000000000000000000000000000000N 00000000000NCONT   00    00000000000          00000000000000000000000000000000000000000000 000000000000000A000000000000000000000000000000000000000000000 000000000000000000000000000000000000000     00000000                                                                                                                        000000000000000000
F0010000006356100004000090034602400023658300000000000000000201410040002001LA CUSTODIA                                       C000000000014400000000000000000000100010010000000000000000000000F0010000006356100420141004000101 00000000000000000000000000000000000000000000000000000000000000000000000000000000000000000000000000000000000000000N 00000000000NCONT   00    00000000000          00000000000000000000000000000000000000000000 000000000000000A000000000000000000000000000000000000000000000 000000000000000000000000000000000000000     00000000                                                                                                                        000000000000000000
F0010000006356100005000090034602400013552100000000000000000201410040002001LA CUSTODIA                                       D000000000014400000000000000000000100010010000000000000000000000F0010000006356100520141004000101 00000000000000000000000000000000000000000000000000000000000000000000000000000000000000000000000000000000000000000N 00000000000NCONT   00    00000000000          00000000000000000000000000000000000000000000 000000000000000A000000000000000000000000000000000000000000000 000000000000000000000000000000000000000     00000000                                                                                                                        000000000000000000
F0010000006356200001000090034602400011050500000000000000000201410040002001LA CUSTODIA                                       D000000003000000000000000000000000100010010000000000000000000000F0010000006356200120141004000101 00000000000000000000000000000000000000000000000000000000000000000000000000000000000000000000000000000000000000000N 00000000000NCONT   00    00000000000          00000000000000000000000000000000000000000000 000000000000000A000000000000000000000000000000000000000000000 000000000000000000000000000000000000000     00000000                                                                                                                        000000000000000000
F0010000006356200002000090034602400041450500000000000000000201410040002001LA CUSTODIA                                       C000000002700000000000000000000000100010010000000000000000000000F0010000006356200220141004000101 00000000000000000000000000000000000000000000000000000000000000000000000000000000000000000000000000000000000000000N 00000000000NCONT   00    00000000000          00000000000000000000000000000000000000000000 000000000000000A000000000000000000000000000000000000000000000 000000000000000000000000000000000000000     00000000                                                                                                                        000000000000000000
F0010000006356200003000090034602400042505000000000000000000201410040002001LA CUSTODIA                                       C000000000300000000000000000000000100010010000000000000000000000F0010000006356200320141004000101 00000000000000000000000000000000000000000000000000000000000000000000000000000000000000000000000000000000000000000N 00000000000NCONT   00    00000000000          00000000000000000000000000000000000000000000 000000000000000A000000000000000000000000000000000000000000000 000000000000000000000000000000000000000     00000000                                                                                                                        000000000000000000
F0010000006356200004000090034602400023658300000000000000000201410040002001LA CUSTODIA                                       C000000000021600000000000000000000100010010000000000000000000000F0010000006356200420141004000101 00000000000000000000000000000000000000000000000000000000000000000000000000000000000000000000000000000000000000000N 00000000000NCONT   00    00000000000          00000000000000000000000000000000000000000000 000000000000000A000000000000000000000000000000000000000000000 000000000000000000000000000000000000000     00000000                                                                                                                        000000000000000000
F0010000006356200005000090034602400013552100000000000000000201410040002001LA CUSTODIA                                       D000000000021600000000000000000000100010010000000000000000000000F0010000006356200520141004000101 00000000000000000000000000000000000000000000000000000000000000000000000000000000000000000000000000000000000000000N 00000000000NCONT   00    00000000000          00000000000000000000000000000000000000000000 000000000000000A000000000000000000000000000000000000000000000 000000000000000000000000000000000000000     00000000                                                                                                                        000000000000000000
F0010000006356300001000090034602400011050500000000000000000201410040002001LA CUSTODIA                                       D000000003000000000000000000000000100010010000000000000000000000F0010000006356300120141004000101 00000000000000000000000000000000000000000000000000000000000000000000000000000000000000000000000000000000000000000N 00000000000NCONT   00    00000000000          00000000000000000000000000000000000000000000 000000000000000A000000000000000000000000000000000000000000000 000000000000000000000000000000000000000     00000000                                                                                                                        000000000000000000
F0010000006356300002000090034602400041450500000000000000000201410040002001LA CUSTODIA                                       C000000002700000000000000000000000100010010000000000000000000000F0010000006356300220141004000101 00000000000000000000000000000000000000000000000000000000000000000000000000000000000000000000000000000000000000000N 00000000000NCONT   00    00000000000          00000000000000000000000000000000000000000000 000000000000000A000000000000000000000000000000000000000000000 000000000000000000000000000000000000000     00000000                                                                                                                        000000000000000000
F0010000006356300003000090034602400042505000000000000000000201410040002001LA CUSTODIA                                       C000000000300000000000000000000000100010010000000000000000000000F0010000006356300320141004000101 00000000000000000000000000000000000000000000000000000000000000000000000000000000000000000000000000000000000000000N 00000000000NCONT   00    00000000000          00000000000000000000000000000000000000000000 000000000000000A000000000000000000000000000000000000000000000 000000000000000000000000000000000000000     00000000                                                                                                                        000000000000000000
F0010000006356300004000090034602400023658300000000000000000201410040002001LA CUSTODIA                                       C000000000021600000000000000000000100010010000000000000000000000F0010000006356300420141004000101 00000000000000000000000000000000000000000000000000000000000000000000000000000000000000000000000000000000000000000N 00000000000NCONT   00    00000000000          00000000000000000000000000000000000000000000 000000000000000A000000000000000000000000000000000000000000000 000000000000000000000000000000000000000     00000000                                                                                                                        000000000000000000
F0010000006356300005000090034602400013552100000000000000000201410040002001LA CUSTODIA                                       D000000000021600000000000000000000100010010000000000000000000000F0010000006356300520141004000101 00000000000000000000000000000000000000000000000000000000000000000000000000000000000000000000000000000000000000000N 00000000000NCONT   00    00000000000          00000000000000000000000000000000000000000000 000000000000000A000000000000000000000000000000000000000000000 000000000000000000000000000000000000000     00000000                                                                                                                        000000000000000000
F0010000006356400001000090034602400011050500000000000000000201410040002001LA CUSTODIA                                       D000000012000000000000000000000000100010010000000000000000000000F0010000006356400120141004000101 00000000000000000000000000000000000000000000000000000000000000000000000000000000000000000000000000000000000000000N 00000000000NCONT   00    00000000000          00000000000000000000000000000000000000000000 000000000000000A000000000000000000000000000000000000000000000 000000000000000000000000000000000000000     00000000                                                                                                                        000000000000000000
F0010000006356400002000090034602400041450500000000000000000201410040002001LA CUSTODIA                                       C000000010800000000000000000000000100010010000000000000000000000F0010000006356400220141004000101 00000000000000000000000000000000000000000000000000000000000000000000000000000000000000000000000000000000000000000N 00000000000NCONT   00    00000000000          00000000000000000000000000000000000000000000 000000000000000A000000000000000000000000000000000000000000000 000000000000000000000000000000000000000     00000000                                                                                                                        000000000000000000
F0010000006356400003000090034602400042505000000000000000000201410040002001LA CUSTODIA                                       C000000001200000000000000000000000100010010000000000000000000000F0010000006356400320141004000101 00000000000000000000000000000000000000000000000000000000000000000000000000000000000000000000000000000000000000000N 00000000000NCONT   00    00000000000          00000000000000000000000000000000000000000000 000000000000000A000000000000000000000000000000000000000000000 000000000000000000000000000000000000000     00000000                                                                                                                        000000000000000000
F0010000006356400004000090034602400023658300000000000000000201410040002001LA CUSTODIA                                       C000000000086400000000000000000000100010010000000000000000000000F0010000006356400420141004000101 00000000000000000000000000000000000000000000000000000000000000000000000000000000000000000000000000000000000000000N 00000000000NCONT   00    00000000000          00000000000000000000000000000000000000000000 000000000000000A000000000000000000000000000000000000000000000 000000000000000000000000000000000000000     00000000                                                                                                                        000000000000000000
F0010000006356400005000090034602400013552100000000000000000201410040002001LA CUSTODIA                                       D000000000086400000000000000000000100010010000000000000000000000F0010000006356400520141004000101 00000000000000000000000000000000000000000000000000000000000000000000000000000000000000000000000000000000000000000N 00000000000NCONT   00    00000000000          00000000000000000000000000000000000000000000 000000000000000A000000000000000000000000000000000000000000000 000000000000000000000000000000000000000     00000000                                                                                                                        000000000000000000
F0010000006356500001000090034602400011050500000000000000000201410040002001LA CUSTODIA                                       D000000002000000000000000000000000100010010000000000000000000000F0010000006356500120141004000101 00000000000000000000000000000000000000000000000000000000000000000000000000000000000000000000000000000000000000000N 00000000000NCONT   00    00000000000          00000000000000000000000000000000000000000000 000000000000000A000000000000000000000000000000000000000000000 000000000000000000000000000000000000000     00000000                                                                                                                        000000000000000000
F0010000006356500002000090034602400041450500000000000000000201410040002001LA CUSTODIA                                       C000000001800000000000000000000000100010010000000000000000000000F0010000006356500220141004000101 00000000000000000000000000000000000000000000000000000000000000000000000000000000000000000000000000000000000000000N 00000000000NCONT   00    00000000000          00000000000000000000000000000000000000000000 000000000000000A000000000000000000000000000000000000000000000 000000000000000000000000000000000000000     00000000                                                                                                                        000000000000000000
F0010000006356500003000090034602400042505000000000000000000201410040002001LA CUSTODIA                                       C000000000200000000000000000000000100010010000000000000000000000F0010000006356500320141004000101 00000000000000000000000000000000000000000000000000000000000000000000000000000000000000000000000000000000000000000N 00000000000NCONT   00    00000000000          00000000000000000000000000000000000000000000 000000000000000A000000000000000000000000000000000000000000000 000000000000000000000000000000000000000     00000000                                                                                                                        000000000000000000
F0010000006356500004000090034602400023658300000000000000000201410040002001LA CUSTODIA                                       C000000000014400000000000000000000100010010000000000000000000000F0010000006356500420141004000101 00000000000000000000000000000000000000000000000000000000000000000000000000000000000000000000000000000000000000000N 00000000000NCONT   00    00000000000          00000000000000000000000000000000000000000000 000000000000000A000000000000000000000000000000000000000000000 000000000000000000000000000000000000000     00000000                                                                                                                        000000000000000000
F0010000006356500005000090034602400013552100000000000000000201410040002001LA CUSTODIA                                       D000000000014400000000000000000000100010010000000000000000000000F0010000006356500520141004000101 00000000000000000000000000000000000000000000000000000000000000000000000000000000000000000000000000000000000000000N 00000000000NCONT   00    00000000000          00000000000000000000000000000000000000000000 000000000000000A000000000000000000000000000000000000000000000 000000000000000000000000000000000000000     00000000                                                                                                                        000000000000000000
F0010000006356600001000080019113900011050500000000000000000201410040002001COMERCIAL NOVAPEL LTDA                            D000000004300000000000000000000000100010010000000000000000000000F0010000006356600120141004000101 00000000000000000000000000000000000000000000000000000000000000000000000000000000000000000000000000000000000000000N 00000000000NCONT   00    00000000000          00000000000000000000000000000000000000000000 000000000000000A000000000000000000000000000000000000000000000 000000000000000000000000000000000000000     00000000                                                                                                                        000000000000000000
F0010000006356600002000080019113900041450500000000000000000201410040002001COMERCIAL NOVAPEL LTDA                            C000000004000000000000000000000000100010010000000000000000000000F0010000006356600220141004000101 00000000000000000000000000000000000000000000000000000000000000000000000000000000000000000000000000000000000000000N 00000000000NCONT   00    00000000000          00000000000000000000000000000000000000000000 000000000000000A000000000000000000000000000000000000000000000 000000000000000000000000000000000000000     00000000                                                                                                                        000000000000000000
F0010000006356600003000080019113900042505000000000000000000201410040002001COMERCIAL NOVAPEL LTDA                            C000000000300000000000000000000000100010010000000000000000000000F0010000006356600320141004000101 00000000000000000000000000000000000000000000000000000000000000000000000000000000000000000000000000000000000000000N 00000000000NCONT   00    00000000000          00000000000000000000000000000000000000000000 000000000000000A000000000000000000000000000000000000000000000 000000000000000000000000000000000000000     00000000                                                                                                                        000000000000000000
F0010000006356600004000080019113900023658300000000000000000201410040002001COMERCIAL NOVAPEL LTDA                            C000000000032000000000000000000000100010010000000000000000000000F0010000006356600420141004000101 00000000000000000000000000000000000000000000000000000000000000000000000000000000000000000000000000000000000000000N 00000000000NCONT   00    00000000000          00000000000000000000000000000000000000000000 000000000000000A000000000000000000000000000000000000000000000 000000000000000000000000000000000000000     00000000                                                                                                                        000000000000000000
F0010000006356600005000080019113900013552100000000000000000201410040002001COMERCIAL NOVAPEL LTDA                            D000000000032000000000000000000000100010010000000000000000000000F0010000006356600520141004000101 00000000000000000000000000000000000000000000000000000000000000000000000000000000000000000000000000000000000000000N 00000000000NCONT   00    00000000000          00000000000000000000000000000000000000000000 000000000000000A000000000000000000000000000000000000000000000 000000000000000000000000000000000000000     00000000                                                                                                                        000000000000000000
F0010000006356700001000080202435000011050500000000000000000201410040002001DISTRIBUIDORA MACEA SAS                           D000000002000000000000000000000000100010010000000000000000000000F0010000006356700120141004000101 00000000000000000000000000000000000000000000000000000000000000000000000000000000000000000000000000000000000000000N 00000000000NCONT   00    00000000000          00000000000000000000000000000000000000000000 000000000000000A000000000000000000000000000000000000000000000 000000000000000000000000000000000000000     00000000                                                                                                                        000000000000000000
F0010000006356700002000080202435000041450500000000000000000201410040002001DISTRIBUIDORA MACEA SAS                           C000000001800000000000000000000000100010010000000000000000000000F0010000006356700220141004000101 00000000000000000000000000000000000000000000000000000000000000000000000000000000000000000000000000000000000000000N 00000000000NCONT   00    00000000000          00000000000000000000000000000000000000000000 000000000000000A000000000000000000000000000000000000000000000 000000000000000000000000000000000000000     00000000                                                                                                                        000000000000000000
F0010000006356700003000080202435000042505000000000000000000201410040002001DISTRIBUIDORA MACEA SAS                           C000000000200000000000000000000000100010010000000000000000000000F0010000006356700320141004000101 00000000000000000000000000000000000000000000000000000000000000000000000000000000000000000000000000000000000000000N 00000000000NCONT   00    00000000000          00000000000000000000000000000000000000000000 000000000000000A000000000000000000000000000000000000000000000 000000000000000000000000000000000000000     00000000                                                                                                                        000000000000000000
F0010000006356700004000080202435000023658300000000000000000201410040002001DISTRIBUIDORA MACEA SAS                           C000000000014400000000000000000000100010010000000000000000000000F0010000006356700420141004000101 00000000000000000000000000000000000000000000000000000000000000000000000000000000000000000000000000000000000000000N 00000000000NCONT   00    00000000000          00000000000000000000000000000000000000000000 000000000000000A000000000000000000000000000000000000000000000 000000000000000000000000000000000000000     00000000                                                                                                                        000000000000000000
F0010000006356700005000080202435000013552100000000000000000201410040002001DISTRIBUIDORA MACEA SAS                           D000000000014400000000000000000000100010010000000000000000000000F0010000006356700520141004000101 00000000000000000000000000000000000000000000000000000000000000000000000000000000000000000000000000000000000000000N 00000000000NCONT   00    00000000000          00000000000000000000000000000000000000000000 000000000000000A000000000000000000000000000000000000000000000 000000000000000000000000000000000000000     00000000                                                                                                                        000000000000000000
F0010000006356800001000007204054700011050500000000000000000201410040002001LEOBILDALDO GUERRERO                              D000000001400000000000000000000000100010010000000000000000000000F0010000006356800120141004000101 00000000000000000000000000000000000000000000000000000000000000000000000000000000000000000000000000000000000000000N 00000000000NCONT   00    00000000000          00000000000000000000000000000000000000000000 000000000000000A000000000000000000000000000000000000000000000 000000000000000000000000000000000000000     00000000                                                                                                                        000000000000000000
F0010000006356800002000007204054700041450500000000000000000201410040002001LEOBILDALDO GUERRERO                              C000000001200000000000000000000000100010010000000000000000000000F0010000006356800220141004000101 00000000000000000000000000000000000000000000000000000000000000000000000000000000000000000000000000000000000000000N 00000000000NCONT   00    00000000000          00000000000000000000000000000000000000000000 000000000000000A000000000000000000000000000000000000000000000 000000000000000000000000000000000000000     00000000                                                                                                                        000000000000000000
F0010000006356800003000007204054700042505000000000000000000201410040002001LEOBILDALDO GUERRERO                              C000000000200000000000000000000000100010010000000000000000000000F0010000006356800320141004000101 00000000000000000000000000000000000000000000000000000000000000000000000000000000000000000000000000000000000000000N 00000000000NCONT   00    00000000000          00000000000000000000000000000000000000000000 000000000000000A000000000000000000000000000000000000000000000 000000000000000000000000000000000000000     00000000                                                                                                                        000000000000000000
F0010000006356800004000007204054700023658300000000000000000201410040002001LEOBILDALDO GUERRERO                              C000000000009600000000000000000000100010010000000000000000000000F0010000006356800420141004000101 00000000000000000000000000000000000000000000000000000000000000000000000000000000000000000000000000000000000000000N 00000000000NCONT   00    00000000000          00000000000000000000000000000000000000000000 000000000000000A000000000000000000000000000000000000000000000 000000000000000000000000000000000000000     00000000                                                                                                                        000000000000000000
F0010000006356800005000007204054700013552100000000000000000201410040002001LEOBILDALDO GUERRERO                              D000000000009600000000000000000000100010010000000000000000000000F0010000006356800520141004000101 00000000000000000000000000000000000000000000000000000000000000000000000000000000000000000000000000000000000000000N 00000000000NCONT   00    00000000000          00000000000000000000000000000000000000000000 000000000000000A000000000000000000000000000000000000000000000 000000000000000000000000000000000000000     00000000                                                                                                                        000000000000000000
F0010000006356900001000090072516300011050500000000000000000201410040002001COM. GARCIA Y MELENDEZ                            D000000001900000000000000000000000100010010000000000000000000000F0010000006356900120141004000101 00000000000000000000000000000000000000000000000000000000000000000000000000000000000000000000000000000000000000000N 00000000000NCONT   00    00000000000          00000000000000000000000000000000000000000000 000000000000000A000000000000000000000000000000000000000000000 000000000000000000000000000000000000000     00000000                                                                                                                        000000000000000000
F0010000006356900002000090072516300041450500000000000000000201410040002001COM. GARCIA Y MELENDEZ                            C000000001800000000000000000000000100010010000000000000000000000F0010000006356900220141004000101 00000000000000000000000000000000000000000000000000000000000000000000000000000000000000000000000000000000000000000N 00000000000NCONT   00    00000000000          00000000000000000000000000000000000000000000 000000000000000A000000000000000000000000000000000000000000000 000000000000000000000000000000000000000     00000000                                                                                                                        000000000000000000
F0010000006356900003000090072516300042505000000000000000000201410040002001COM. GARCIA Y MELENDEZ                            C000000000100000000000000000000000100010010000000000000000000000F0010000006356900320141004000101 00000000000000000000000000000000000000000000000000000000000000000000000000000000000000000000000000000000000000000N 00000000000NCONT   00    00000000000          00000000000000000000000000000000000000000000 000000000000000A000000000000000000000000000000000000000000000 000000000000000000000000000000000000000     00000000                                                                                                                        000000000000000000
F0010000006356900004000090072516300023658300000000000000000201410040002001COM. GARCIA Y MELENDEZ                            C000000000014400000000000000000000100010010000000000000000000000F0010000006356900420141004000101 00000000000000000000000000000000000000000000000000000000000000000000000000000000000000000000000000000000000000000N 00000000000NCONT   00    00000000000          00000000000000000000000000000000000000000000 000000000000000A000000000000000000000000000000000000000000000 000000000000000000000000000000000000000     00000000                                                                                                                        000000000000000000
F0010000006356900005000090072516300013552100000000000000000201410040002001COM. GARCIA Y MELENDEZ                            D000000000014400000000000000000000100010010000000000000000000000F0010000006356900520141004000101 00000000000000000000000000000000000000000000000000000000000000000000000000000000000000000000000000000000000000000N 00000000000NCONT   00    00000000000          00000000000000000000000000000000000000000000 000000000000000A000000000000000000000000000000000000000000000 000000000000000000000000000000000000000     00000000                                                                                                                        000000000000000000
F0010000006357000001000090072516300011050500000000000000000201410040002001COM. GARCIA Y MELENDEZ                            D000000002100000000000000000000000100010010000000000000000000000F0010000006357000120141004000101 00000000000000000000000000000000000000000000000000000000000000000000000000000000000000000000000000000000000000000N 00000000000NCONT   00    00000000000          00000000000000000000000000000000000000000000 000000000000000A000000000000000000000000000000000000000000000 000000000000000000000000000000000000000     00000000                                                                                                                        000000000000000000
F0010000006357000002000090072516300041450500000000000000000201410040002001COM. GARCIA Y MELENDEZ                            C000000001800000000000000000000000100010010000000000000000000000F0010000006357000220141004000101 00000000000000000000000000000000000000000000000000000000000000000000000000000000000000000000000000000000000000000N 00000000000NCONT   00    00000000000          00000000000000000000000000000000000000000000 000000000000000A000000000000000000000000000000000000000000000 000000000000000000000000000000000000000     00000000                                                                                                                        000000000000000000
F0010000006357000003000090072516300042505000000000000000000201410040002001COM. GARCIA Y MELENDEZ                            C000000000300000000000000000000000100010010000000000000000000000F0010000006357000320141004000101 00000000000000000000000000000000000000000000000000000000000000000000000000000000000000000000000000000000000000000N 00000000000NCONT   00    00000000000          00000000000000000000000000000000000000000000 000000000000000A000000000000000000000000000000000000000000000 000000000000000000000000000000000000000     00000000                                                                                                                        000000000000000000
F0010000006357000004000090072516300023658300000000000000000201410040002001COM. GARCIA Y MELENDEZ                            C000000000014400000000000000000000100010010000000000000000000000F0010000006357000420141004000101 00000000000000000000000000000000000000000000000000000000000000000000000000000000000000000000000000000000000000000N 00000000000NCONT   00    00000000000          00000000000000000000000000000000000000000000 000000000000000A000000000000000000000000000000000000000000000 000000000000000000000000000000000000000     00000000                                                                                                                        000000000000000000
F0010000006357000005000090072516300013552100000000000000000201410040002001COM. GARCIA Y MELENDEZ                            D000000000014400000000000000000000100010010000000000000000000000F0010000006357000520141004000101 00000000000000000000000000000000000000000000000000000000000000000000000000000000000000000000000000000000000000000N 00000000000NCONT   00    00000000000          00000000000000000000000000000000000000000000 000000000000000A000000000000000000000000000000000000000000000 000000000000000000000000000000000000000     00000000                                                                                                                        000000000000000000
F0010000006357100001000000746524800011050500000000000000000201410040002001GUILLERMO BURGOS                                  D000000008000000000000000000000000100010010000000000000000000000F0010000006357100120141004000101 00000000000000000000000000000000000000000000000000000000000000000000000000000000000000000000000000000000000000000N 00000000000NCONT   00    00000000000          00000000000000000000000000000000000000000000 000000000000000A000000000000000000000000000000000000000000000 000000000000000000000000000000000000000     00000000                                                                                                                        000000000000000000
F0010000006357100002000000746524800041450500000000000000000201410040002001GUILLERMO BURGOS                                  C000000007300000000000000000000000100010010000000000000000000000F0010000006357100220141004000101 00000000000000000000000000000000000000000000000000000000000000000000000000000000000000000000000000000000000000000N 00000000000NCONT   00    00000000000          00000000000000000000000000000000000000000000 000000000000000A000000000000000000000000000000000000000000000 000000000000000000000000000000000000000     00000000                                                                                                                        000000000000000000
F0010000006357100003000000746524800042505000000000000000000201410040002001GUILLERMO BURGOS                                  C000000000700000000000000000000000100010010000000000000000000000F0010000006357100320141004000101 00000000000000000000000000000000000000000000000000000000000000000000000000000000000000000000000000000000000000000N 00000000000NCONT   00    00000000000          00000000000000000000000000000000000000000000 000000000000000A000000000000000000000000000000000000000000000 000000000000000000000000000000000000000     00000000                                                                                                                        000000000000000000
F0010000006357100004000000746524800023658300000000000000000201410040002001GUILLERMO BURGOS                                  C000000000058400000000000000000000100010010000000000000000000000F0010000006357100420141004000101 00000000000000000000000000000000000000000000000000000000000000000000000000000000000000000000000000000000000000000N 00000000000NCONT   00    00000000000          00000000000000000000000000000000000000000000 000000000000000A000000000000000000000000000000000000000000000 000000000000000000000000000000000000000     00000000                                                                                                                        000000000000000000
F0010000006357100005000000746524800013552100000000000000000201410040002001GUILLERMO BURGOS                                  D000000000058400000000000000000000100010010000000000000000000000F0010000006357100520141004000101 00000000000000000000000000000000000000000000000000000000000000000000000000000000000000000000000000000000000000000N 00000000000NCONT   00    00000000000          00000000000000000000000000000000000000000000 000000000000000A000000000000000000000000000000000000000000000 000000000000000000000000000000000000000     00000000                                                                                                                        000000000000000000
F0010000006357200001000000871573200011050500000000000000000201410040002001ACCESORIAS ARQUITECTONI KJ                        D000000001700000000000000000000000100010010000000000000000000000F0010000006357200120141004000101 00000000000000000000000000000000000000000000000000000000000000000000000000000000000000000000000000000000000000000N 00000000000NCONT   00    00000000000          00000000000000000000000000000000000000000000 000000000000000A000000000000000000000000000000000000000000000 000000000000000000000000000000000000000     00000000                                                                                                                        000000000000000000
F0010000006357200002000000871573200041450500000000000000000201410040002001ACCESORIAS ARQUITECTONI KJ                        C000000001200000000000000000000000100010010000000000000000000000F0010000006357200220141004000101 00000000000000000000000000000000000000000000000000000000000000000000000000000000000000000000000000000000000000000N 00000000000NCONT   00    00000000000          00000000000000000000000000000000000000000000 000000000000000A000000000000000000000000000000000000000000000 000000000000000000000000000000000000000     00000000                                                                                                                        000000000000000000
F0010000006357200003000000871573200042505000000000000000000201410040002001ACCESORIAS ARQUITECTONI KJ                        C000000000500000000000000000000000100010010000000000000000000000F0010000006357200320141004000101 00000000000000000000000000000000000000000000000000000000000000000000000000000000000000000000000000000000000000000N 00000000000NCONT   00    00000000000          00000000000000000000000000000000000000000000 000000000000000A000000000000000000000000000000000000000000000 000000000000000000000000000000000000000     00000000                                                                                                                        000000000000000000
F0010000006357200004000000871573200023658300000000000000000201410040002001ACCESORIAS ARQUITECTONI KJ                        C000000000009600000000000000000000100010010000000000000000000000F0010000006357200420141004000101 00000000000000000000000000000000000000000000000000000000000000000000000000000000000000000000000000000000000000000N 00000000000NCONT   00    00000000000          00000000000000000000000000000000000000000000 000000000000000A000000000000000000000000000000000000000000000 000000000000000000000000000000000000000     00000000                                                                                                                        000000000000000000
F0010000006357200005000000871573200013552100000000000000000201410040002001ACCESORIAS ARQUITECTONI KJ                        D000000000009600000000000000000000100010010000000000000000000000F0010000006357200520141004000101 00000000000000000000000000000000000000000000000000000000000000000000000000000000000000000000000000000000000000000N 00000000000NCONT   00    00000000000          00000000000000000000000000000000000000000000 000000000000000A000000000000000000000000000000000000000000000 000000000000000000000000000000000000000     00000000                                                                                                                        000000000000000000
F0010000006357300001000090072516300011050500000000000000000201410040002001COM. GARCIA Y MELENDEZ                            D000000001700000000000000000000000100010010000000000000000000000F0010000006357300120141004000101 00000000000000000000000000000000000000000000000000000000000000000000000000000000000000000000000000000000000000000N 00000000000NCONT   00    00000000000          00000000000000000000000000000000000000000000 000000000000000A000000000000000000000000000000000000000000000 000000000000000000000000000000000000000     00000000                                                                                                                        000000000000000000
F0010000006357300002000090072516300041450500000000000000000201410040002001COM. GARCIA Y MELENDEZ                            C000000001500000000000000000000000100010010000000000000000000000F0010000006357300220141004000101 00000000000000000000000000000000000000000000000000000000000000000000000000000000000000000000000000000000000000000N 00000000000NCONT   00    00000000000          00000000000000000000000000000000000000000000 000000000000000A000000000000000000000000000000000000000000000 000000000000000000000000000000000000000     00000000                                                                                                                        000000000000000000
F0010000006357300003000090072516300042505000000000000000000201410040002001COM. GARCIA Y MELENDEZ                            C000000000200000000000000000000000100010010000000000000000000000F0010000006357300320141004000101 00000000000000000000000000000000000000000000000000000000000000000000000000000000000000000000000000000000000000000N 00000000000NCONT   00    00000000000          00000000000000000000000000000000000000000000 000000000000000A000000000000000000000000000000000000000000000 000000000000000000000000000000000000000     00000000                                                                                                                        000000000000000000
F0010000006357300004000090072516300023658300000000000000000201410040002001COM. GARCIA Y MELENDEZ                            C000000000012000000000000000000000100010010000000000000000000000F0010000006357300420141004000101 00000000000000000000000000000000000000000000000000000000000000000000000000000000000000000000000000000000000000000N 00000000000NCONT   00    00000000000          00000000000000000000000000000000000000000000 000000000000000A000000000000000000000000000000000000000000000 000000000000000000000000000000000000000     00000000                                                                                                                        000000000000000000
F0010000006357300005000090072516300013552100000000000000000201410040002001COM. GARCIA Y MELENDEZ                            D000000000012000000000000000000000100010010000000000000000000000F0010000006357300520141004000101 00000000000000000000000000000000000000000000000000000000000000000000000000000000000000000000000000000000000000000N 00000000000NCONT   00    00000000000          00000000000000000000000000000000000000000000 000000000000000A000000000000000000000000000000000000000000000 000000000000000000000000000000000000000     00000000                                                                                                                        000000000000000000
F0010000006357400001000000876579700011050500000000000000000201410040002001JOSE LUIS MUOZ                                  D000000003500000000000000000000000100010010000000000000000000000F0010000006357400120141004000101 00000000000000000000000000000000000000000000000000000000000000000000000000000000000000000000000000000000000000000N 00000000000NCONT   00    00000000000          00000000000000000000000000000000000000000000 000000000000000A000000000000000000000000000000000000000000000 000000000000000000000000000000000000000     00000000                                                                                                                        000000000000000000
F0010000006357400002000000876579700041450500000000000000000201410040002001JOSE LUIS MUOZ                                  C000000003200000000000000000000000100010010000000000000000000000F0010000006357400220141004000101 00000000000000000000000000000000000000000000000000000000000000000000000000000000000000000000000000000000000000000N 00000000000NCONT   00    00000000000          00000000000000000000000000000000000000000000 000000000000000A000000000000000000000000000000000000000000000 000000000000000000000000000000000000000     00000000                                                                                                                        000000000000000000
F0010000006357400003000000876579700042505000000000000000000201410040002001JOSE LUIS MUOZ                                  C000000000300000000000000000000000100010010000000000000000000000F0010000006357400320141004000101 00000000000000000000000000000000000000000000000000000000000000000000000000000000000000000000000000000000000000000N 00000000000NCONT   00    00000000000          00000000000000000000000000000000000000000000 000000000000000A000000000000000000000000000000000000000000000 000000000000000000000000000000000000000     00000000                                                                                                                        000000000000000000
F0010000006357400004000000876579700023658300000000000000000201410040002001JOSE LUIS MUOZ                                  C000000000025600000000000000000000100010010000000000000000000000F0010000006357400420141004000101 00000000000000000000000000000000000000000000000000000000000000000000000000000000000000000000000000000000000000000N 00000000000NCONT   00    00000000000          00000000000000000000000000000000000000000000 000000000000000A000000000000000000000000000000000000000000000 000000000000000000000000000000000000000     00000000                                                                                                                        000000000000000000
F0010000006357400005000000876579700013552100000000000000000201410040002001JOSE LUIS MUOZ                                  D000000000025600000000000000000000100010010000000000000000000000F0010000006357400520141004000101 00000000000000000000000000000000000000000000000000000000000000000000000000000000000000000000000000000000000000000N 00000000000NCONT   00    00000000000          00000000000000000000000000000000000000000000 000000000000000A000000000000000000000000000000000000000000000 000000000000000000000000000000000000000     00000000                                                                                                                        000000000000000000
F0010000006357500001000000876579700011050500000000000000000201410040002001JOSE LUIS MUOZ                                  D000000001700000000000000000000000100010010000000000000000000000F0010000006357500120141004000101 00000000000000000000000000000000000000000000000000000000000000000000000000000000000000000000000000000000000000000N 00000000000NCONT   00    00000000000          00000000000000000000000000000000000000000000 000000000000000A000000000000000000000000000000000000000000000 000000000000000000000000000000000000000     00000000                                                                                                                        000000000000000000
F0010000006357500002000000876579700041450500000000000000000201410040002001JOSE LUIS MUOZ                                  C000000001500000000000000000000000100010010000000000000000000000F0010000006357500220141004000101 00000000000000000000000000000000000000000000000000000000000000000000000000000000000000000000000000000000000000000N 00000000000NCONT   00    00000000000          00000000000000000000000000000000000000000000 000000000000000A000000000000000000000000000000000000000000000 000000000000000000000000000000000000000     00000000                                                                                                                        000000000000000000
F0010000006357500003000000876579700042505000000000000000000201410040002001JOSE LUIS MUOZ                                  C000000000200000000000000000000000100010010000000000000000000000F0010000006357500320141004000101 00000000000000000000000000000000000000000000000000000000000000000000000000000000000000000000000000000000000000000N 00000000000NCONT   00    00000000000          00000000000000000000000000000000000000000000 000000000000000A000000000000000000000000000000000000000000000 000000000000000000000000000000000000000     00000000                                                                                                                        000000000000000000
F0010000006357500004000000876579700023658300000000000000000201410040002001JOSE LUIS MUOZ                                  C000000000012000000000000000000000100010010000000000000000000000F0010000006357500420141004000101 00000000000000000000000000000000000000000000000000000000000000000000000000000000000000000000000000000000000000000N 00000000000NCONT   00    00000000000          00000000000000000000000000000000000000000000 000000000000000A000000000000000000000000000000000000000000000 000000000000000000000000000000000000000     00000000                                                                                                                        000000000000000000
F0010000006357500005000000876579700013552100000000000000000201410040002001JOSE LUIS MUOZ                                  D000000000012000000000000000000000100010010000000000000000000000F0010000006357500520141004000101 00000000000000000000000000000000000000000000000000000000000000000000000000000000000000000000000000000000000000000N 00000000000NCONT   00    00000000000          00000000000000000000000000000000000000000000 000000000000000A000000000000000000000000000000000000000000000 000000000000000000000000000000000000000     00000000                                                                                                                        000000000000000000
F0010000006357600001000000876579700011050500000000000000000201410040002001JOSE LUIS MUOZ                                  D000000003500000000000000000000000100010010000000000000000000000F0010000006357600120141004000101 00000000000000000000000000000000000000000000000000000000000000000000000000000000000000000000000000000000000000000N 00000000000NCONT   00    00000000000          00000000000000000000000000000000000000000000 000000000000000A000000000000000000000000000000000000000000000 000000000000000000000000000000000000000     00000000                                                                                                                        000000000000000000
F0010000006357600002000000876579700041450500000000000000000201410040002001JOSE LUIS MUOZ                                  C000000003200000000000000000000000100010010000000000000000000000F0010000006357600220141004000101 00000000000000000000000000000000000000000000000000000000000000000000000000000000000000000000000000000000000000000N 00000000000NCONT   00    00000000000          00000000000000000000000000000000000000000000 000000000000000A000000000000000000000000000000000000000000000 000000000000000000000000000000000000000     00000000                                                                                                                        000000000000000000
F0010000006357600003000000876579700042505000000000000000000201410040002001JOSE LUIS MUOZ                                  C000000000300000000000000000000000100010010000000000000000000000F0010000006357600320141004000101 00000000000000000000000000000000000000000000000000000000000000000000000000000000000000000000000000000000000000000N 00000000000NCONT   00    00000000000          00000000000000000000000000000000000000000000 000000000000000A000000000000000000000000000000000000000000000 000000000000000000000000000000000000000     00000000                                                                                                                        000000000000000000
F0010000006357600004000000876579700023658300000000000000000201410040002001JOSE LUIS MUOZ                                  C000000000025600000000000000000000100010010000000000000000000000F0010000006357600420141004000101 00000000000000000000000000000000000000000000000000000000000000000000000000000000000000000000000000000000000000000N 00000000000NCONT   00    00000000000          00000000000000000000000000000000000000000000 000000000000000A000000000000000000000000000000000000000000000 000000000000000000000000000000000000000     00000000                                                                                                                        000000000000000000
F0010000006357600005000000876579700013552100000000000000000201410040002001JOSE LUIS MUOZ                                  D000000000025600000000000000000000100010010000000000000000000000F0010000006357600520141004000101 00000000000000000000000000000000000000000000000000000000000000000000000000000000000000000000000000000000000000000N 00000000000NCONT   00    00000000000          00000000000000000000000000000000000000000000 000000000000000A000000000000000000000000000000000000000000000 000000000000000000000000000000000000000     00000000                                                                                                                        000000000000000000
F0010000006357700001000001022529300011050500000000000000000201410040002001ALBERTO ALVAREZ ISAZA                             D000000001670000000000000000000000100010010000000000000000000000F0010000006357700120141004000101 00000000000000000000000000000000000000000000000000000000000000000000000000000000000000000000000000000000000000000N 00000000000NCONT   00    00000000000          00000000000000000000000000000000000000000000 000000000000000A000000000000000000000000000000000000000000000 000000000000000000000000000000000000000     00000000                                                                                                                        000000000000000000
F0010000006357700002000001022529300041450500000000000000000201410040002001ALBERTO ALVAREZ ISAZA                             C000000001620000000000000000000000100010010000000000000000000000F0010000006357700220141004000101 00000000000000000000000000000000000000000000000000000000000000000000000000000000000000000000000000000000000000000N 00000000000NCONT   00    00000000000          00000000000000000000000000000000000000000000 000000000000000A000000000000000000000000000000000000000000000 000000000000000000000000000000000000000     00000000                                                                                                                        000000000000000000
F0010000006357700003000001022529300042505000000000000000000201410040002001ALBERTO ALVAREZ ISAZA                             C000000000050000000000000000000000100010010000000000000000000000F0010000006357700320141004000101 00000000000000000000000000000000000000000000000000000000000000000000000000000000000000000000000000000000000000000N 00000000000NCONT   00    00000000000          00000000000000000000000000000000000000000000 000000000000000A000000000000000000000000000000000000000000000 000000000000000000000000000000000000000     00000000                                                                                                                        000000000000000000
F0010000006357700004000001022529300023658300000000000000000201410040002001ALBERTO ALVAREZ ISAZA                             C000000000013000000000000000000000100010010000000000000000000000F0010000006357700420141004000101 00000000000000000000000000000000000000000000000000000000000000000000000000000000000000000000000000000000000000000N 00000000000NCONT   00    00000000000          00000000000000000000000000000000000000000000 000000000000000A000000000000000000000000000000000000000000000 000000000000000000000000000000000000000     00000000                                                                                                                        000000000000000000
F0010000006357700005000001022529300013552100000000000000000201410040002001ALBERTO ALVAREZ ISAZA                             D000000000013000000000000000000000100010010000000000000000000000F0010000006357700520141004000101 00000000000000000000000000000000000000000000000000000000000000000000000000000000000000000000000000000000000000000N 00000000000NCONT   00    00000000000          00000000000000000000000000000000000000000000 000000000000000A000000000000000000000000000000000000000000000 000000000000000000000000000000000000000     00000000                                                                                                                        000000000000000000
F0010000006357800001000001022529300011050500000000000000000201410040002001ALBERTO ALVAREZ ISAZA                             D000000001240000000000000000000000100010010000000000000000000000F0010000006357800120141004000101 00000000000000000000000000000000000000000000000000000000000000000000000000000000000000000000000000000000000000000N 00000000000NCONT   00    00000000000          00000000000000000000000000000000000000000000 000000000000000A000000000000000000000000000000000000000000000 000000000000000000000000000000000000000     00000000                                                                                                                        000000000000000000
F0010000006357800002000001022529300041450500000000000000000201410040002001ALBERTO ALVAREZ ISAZA                             C000000001190000000000000000000000100010010000000000000000000000F0010000006357800220141004000101 00000000000000000000000000000000000000000000000000000000000000000000000000000000000000000000000000000000000000000N 00000000000NCONT   00    00000000000          00000000000000000000000000000000000000000000 000000000000000A000000000000000000000000000000000000000000000 000000000000000000000000000000000000000     00000000                                                                                                                        000000000000000000
F0010000006357800003000001022529300042505000000000000000000201410040002001ALBERTO ALVAREZ ISAZA                             C000000000050000000000000000000000100010010000000000000000000000F0010000006357800320141004000101 00000000000000000000000000000000000000000000000000000000000000000000000000000000000000000000000000000000000000000N 00000000000NCONT   00    00000000000          00000000000000000000000000000000000000000000 000000000000000A000000000000000000000000000000000000000000000 000000000000000000000000000000000000000     00000000                                                                                                                        000000000000000000
F0010000006357800004000001022529300023658300000000000000000201410040002001ALBERTO ALVAREZ ISAZA                             C000000000009500000000000000000000100010010000000000000000000000F0010000006357800420141004000101 00000000000000000000000000000000000000000000000000000000000000000000000000000000000000000000000000000000000000000N 00000000000NCONT   00    00000000000          00000000000000000000000000000000000000000000 000000000000000A000000000000000000000000000000000000000000000 000000000000000000000000000000000000000     00000000                                                                                                                        000000000000000000
F0010000006357800005000001022529300013552100000000000000000201410040002001ALBERTO ALVAREZ ISAZA                             D000000000009500000000000000000000100010010000000000000000000000F0010000006357800520141004000101 00000000000000000000000000000000000000000000000000000000000000000000000000000000000000000000000000000000000000000N 00000000000NCONT   00    00000000000          00000000000000000000000000000000000000000000 000000000000000A000000000000000000000000000000000000000000000 000000000000000000000000000000000000000     00000000                                                                                                                        000000000000000000
F0010000006357900001000000431178400011050500000000000000000201410040002001EFRAIN ALVAREZ                                    D000000002650000000000000000000000100010010000000000000000000000F0010000006357900120141004000101 00000000000000000000000000000000000000000000000000000000000000000000000000000000000000000000000000000000000000000N 00000000000NCONT   00    00000000000          00000000000000000000000000000000000000000000 000000000000000A000000000000000000000000000000000000000000000 000000000000000000000000000000000000000     00000000                                                                                                                        000000000000000000
F0010000006357900002000000431178400041450500000000000000000201410040002001EFRAIN ALVAREZ                                    C000000002600000000000000000000000100010010000000000000000000000F0010000006357900220141004000101 00000000000000000000000000000000000000000000000000000000000000000000000000000000000000000000000000000000000000000N 00000000000NCONT   00    00000000000          00000000000000000000000000000000000000000000 000000000000000A000000000000000000000000000000000000000000000 000000000000000000000000000000000000000     00000000                                                                                                                        000000000000000000
F0010000006357900003000000431178400042505000000000000000000201410040002001EFRAIN ALVAREZ                                    C000000000050000000000000000000000100010010000000000000000000000F0010000006357900320141004000101 00000000000000000000000000000000000000000000000000000000000000000000000000000000000000000000000000000000000000000N 00000000000NCONT   00    00000000000          00000000000000000000000000000000000000000000 000000000000000A000000000000000000000000000000000000000000000 000000000000000000000000000000000000000     00000000                                                                                                                        000000000000000000
F0010000006357900004000000431178400023658300000000000000000201410040002001EFRAIN ALVAREZ                                    C000000000020800000000000000000000100010010000000000000000000000F0010000006357900420141004000101 00000000000000000000000000000000000000000000000000000000000000000000000000000000000000000000000000000000000000000N 00000000000NCONT   00    00000000000          00000000000000000000000000000000000000000000 000000000000000A000000000000000000000000000000000000000000000 000000000000000000000000000000000000000     00000000                                                                                                                        000000000000000000
F0010000006357900005000000431178400013552100000000000000000201410040002001EFRAIN ALVAREZ                                    D000000000020800000000000000000000100010010000000000000000000000F0010000006357900520141004000101 00000000000000000000000000000000000000000000000000000000000000000000000000000000000000000000000000000000000000000N 00000000000NCONT   00    00000000000          00000000000000000000000000000000000000000000 000000000000000A000000000000000000000000000000000000000000000 000000000000000000000000000000000000000     00000000                                                                                                                        000000000000000000
F0010000006358000001000000431178400011050500000000000000000201410040002001EFRAIN ALVAREZ                                    D000000000430000000000000000000000100010010000000000000000000000F0010000006358000120141004000101 00000000000000000000000000000000000000000000000000000000000000000000000000000000000000000000000000000000000000000N 00000000000NCONT   00    00000000000          00000000000000000000000000000000000000000000 000000000000000A000000000000000000000000000000000000000000000 000000000000000000000000000000000000000     00000000                                                                                                                        000000000000000000
F0010000006358000002000000431178400041450500000000000000000201410040002001EFRAIN ALVAREZ                                    C000000000380000000000000000000000100010010000000000000000000000F0010000006358000220141004000101 00000000000000000000000000000000000000000000000000000000000000000000000000000000000000000000000000000000000000000N 00000000000NCONT   00    00000000000          00000000000000000000000000000000000000000000 000000000000000A000000000000000000000000000000000000000000000 000000000000000000000000000000000000000     00000000                                                                                                                        000000000000000000
F0010000006358000003000000431178400042505000000000000000000201410040002001EFRAIN ALVAREZ                                    C000000000050000000000000000000000100010010000000000000000000000F0010000006358000320141004000101 00000000000000000000000000000000000000000000000000000000000000000000000000000000000000000000000000000000000000000N 00000000000NCONT   00    00000000000          00000000000000000000000000000000000000000000 000000000000000A000000000000000000000000000000000000000000000 000000000000000000000000000000000000000     00000000                                                                                                                        000000000000000000
F0010000006358000004000000431178400023658300000000000000000201410040002001EFRAIN ALVAREZ                                    C000000000003000000000000000000000100010010000000000000000000000F0010000006358000420141004000101 00000000000000000000000000000000000000000000000000000000000000000000000000000000000000000000000000000000000000000N 00000000000NCONT   00    00000000000          00000000000000000000000000000000000000000000 000000000000000A000000000000000000000000000000000000000000000 000000000000000000000000000000000000000     00000000                                                                                                                        000000000000000000
F0010000006358000005000000431178400013552100000000000000000201410040002001EFRAIN ALVAREZ                                    D000000000003000000000000000000000100010010000000000000000000000F0010000006358000520141004000101 00000000000000000000000000000000000000000000000000000000000000000000000000000000000000000000000000000000000000000N 00000000000NCONT   00    00000000000          00000000000000000000000000000000000000000000 000000000000000A000000000000000000000000000000000000000000000 000000000000000000000000000000000000000     00000000                                                                                                                        000000000000000000
F0010000006358100001000000431178400011050500000000000000000201410040002001EFRAIN ALVAREZ                                    D000000001290000000000000000000000100010010000000000000000000000F0010000006358100120141004000101 00000000000000000000000000000000000000000000000000000000000000000000000000000000000000000000000000000000000000000N 00000000000NCONT   00    00000000000          00000000000000000000000000000000000000000000 000000000000000A000000000000000000000000000000000000000000000 000000000000000000000000000000000000000     00000000                                                                                                                        000000000000000000
F0010000006358100002000000431178400041450500000000000000000201410040002001EFRAIN ALVAREZ                                    C000000001190000000000000000000000100010010000000000000000000000F0010000006358100220141004000101 00000000000000000000000000000000000000000000000000000000000000000000000000000000000000000000000000000000000000000N 00000000000NCONT   00    00000000000          00000000000000000000000000000000000000000000 000000000000000A000000000000000000000000000000000000000000000 000000000000000000000000000000000000000     00000000                                                                                                                        000000000000000000
F0010000006358100003000000431178400042505000000000000000000201410040002001EFRAIN ALVAREZ                                    C000000000100000000000000000000000100010010000000000000000000000F0010000006358100320141004000101 00000000000000000000000000000000000000000000000000000000000000000000000000000000000000000000000000000000000000000N 00000000000NCONT   00    00000000000          00000000000000000000000000000000000000000000 000000000000000A000000000000000000000000000000000000000000000 000000000000000000000000000000000000000     00000000                                                                                                                        000000000000000000
F0010000006358100004000000431178400023658300000000000000000201410040002001EFRAIN ALVAREZ                                    C000000000009500000000000000000000100010010000000000000000000000F0010000006358100420141004000101 00000000000000000000000000000000000000000000000000000000000000000000000000000000000000000000000000000000000000000N 00000000000NCONT   00    00000000000          00000000000000000000000000000000000000000000 000000000000000A000000000000000000000000000000000000000000000 000000000000000000000000000000000000000     00000000                                                                                                                        000000000000000000
F0010000006358100005000000431178400013552100000000000000000201410040002001EFRAIN ALVAREZ                                    D000000000009500000000000000000000100010010000000000000000000000F0010000006358100520141004000101 00000000000000000000000000000000000000000000000000000000000000000000000000000000000000000000000000000000000000000N 00000000000NCONT   00    00000000000          00000000000000000000000000000000000000000000 000000000000000A000000000000000000000000000000000000000000000 000000000000000000000000000000000000000     00000000                                                                                                                        000000000000000000
F0010000006358200001000000431178400011050500000000000000000201410040002001EFRAIN ALVAREZ                                    D000000001860000000000000000000000100010010000000000000000000000F0010000006358200120141004000101 00000000000000000000000000000000000000000000000000000000000000000000000000000000000000000000000000000000000000000N 00000000000NCONT   00    00000000000          00000000000000000000000000000000000000000000 000000000000000A000000000000000000000000000000000000000000000 000000000000000000000000000000000000000     00000000                                                                                                                        000000000000000000
F0010000006358200002000000431178400041450500000000000000000201410040002001EFRAIN ALVAREZ                                    C000000001760000000000000000000000100010010000000000000000000000F0010000006358200220141004000101 00000000000000000000000000000000000000000000000000000000000000000000000000000000000000000000000000000000000000000N 00000000000NCONT   00    00000000000          00000000000000000000000000000000000000000000 000000000000000A000000000000000000000000000000000000000000000 000000000000000000000000000000000000000     00000000                                                                                                                        000000000000000000
F0010000006358200003000000431178400042505000000000000000000201410040002001EFRAIN ALVAREZ                                    C000000000100000000000000000000000100010010000000000000000000000F0010000006358200320141004000101 00000000000000000000000000000000000000000000000000000000000000000000000000000000000000000000000000000000000000000N 00000000000NCONT   00    00000000000          00000000000000000000000000000000000000000000 000000000000000A000000000000000000000000000000000000000000000 000000000000000000000000000000000000000     00000000                                                                                                                        000000000000000000
F0010000006358200004000000431178400023658300000000000000000201410040002001EFRAIN ALVAREZ                                    C000000000014100000000000000000000100010010000000000000000000000F0010000006358200420141004000101 00000000000000000000000000000000000000000000000000000000000000000000000000000000000000000000000000000000000000000N 00000000000NCONT   00    00000000000          00000000000000000000000000000000000000000000 000000000000000A000000000000000000000000000000000000000000000 000000000000000000000000000000000000000     00000000                                                                                                                        000000000000000000
F0010000006358200005000000431178400013552100000000000000000201410040002001EFRAIN ALVAREZ                                    D000000000014100000000000000000000100010010000000000000000000000F0010000006358200520141004000101 00000000000000000000000000000000000000000000000000000000000000000000000000000000000000000000000000000000000000000N 00000000000NCONT   00    00000000000          00000000000000000000000000000000000000000000 000000000000000A000000000000000000000000000000000000000000000 000000000000000000000000000000000000000     00000000                                                                                                                        000000000000000000
F0010000006358300001000112957894900011050500000000000000000201410040002001MANUEL LOPEZ AMELL                                D000000002000000000000000000000000100010010000000000000000000000F0010000006358300120141004000101 00000000000000000000000000000000000000000000000000000000000000000000000000000000000000000000000000000000000000000N 00000000000NCONT   00    00000000000          00000000000000000000000000000000000000000000 000000000000000A000000000000000000000000000000000000000000000 000000000000000000000000000000000000000     00000000                                                                                                                        000000000000000000
F0010000006358300002000112957894900041450500000000000000000201410040002001MANUEL LOPEZ AMELL                                C000000001000000000000000000000000100010010000000000000000000000F0010000006358300220141004000101 00000000000000000000000000000000000000000000000000000000000000000000000000000000000000000000000000000000000000000N 00000000000NCONT   00    00000000000          00000000000000000000000000000000000000000000 000000000000000A000000000000000000000000000000000000000000000 000000000000000000000000000000000000000     00000000                                                                                                                        000000000000000000
F0010000006358300003000112957894900042505000000000000000000201410040002001MANUEL LOPEZ AMELL                                C000000001000000000000000000000000100010010000000000000000000000F0010000006358300320141004000101 00000000000000000000000000000000000000000000000000000000000000000000000000000000000000000000000000000000000000000N 00000000000NCONT   00    00000000000          00000000000000000000000000000000000000000000 000000000000000A000000000000000000000000000000000000000000000 000000000000000000000000000000000000000     00000000                                                                                                                        000000000000000000
F0010000006358300004000112957894900023658300000000000000000201410040002001MANUEL LOPEZ AMELL                                C000000000008000000000000000000000100010010000000000000000000000F0010000006358300420141004000101 00000000000000000000000000000000000000000000000000000000000000000000000000000000000000000000000000000000000000000N 00000000000NCONT   00    00000000000          00000000000000000000000000000000000000000000 000000000000000A000000000000000000000000000000000000000000000 000000000000000000000000000000000000000     00000000                                                                                                                        000000000000000000
F0010000006358300005000112957894900013552100000000000000000201410040002001MANUEL LOPEZ AMELL                                D000000000008000000000000000000000100010010000000000000000000000F0010000006358300520141004000101 00000000000000000000000000000000000000000000000000000000000000000000000000000000000000000000000000000000000000000N 00000000000NCONT   00    00000000000          00000000000000000000000000000000000000000000 000000000000000A000000000000000000000000000000000000000000000 000000000000000000000000000000000000000     00000000                                                                                                                        000000000000000000
F0010000006358400001000007200205100011050500000000000000000201410040002001LUIS MOLINA                                       D000000001000000000000000000000000100010010000000000000000000000F0010000006358400120141004000101 00000000000000000000000000000000000000000000000000000000000000000000000000000000000000000000000000000000000000000N 00000000000NCONT   00    00000000000          00000000000000000000000000000000000000000000 000000000000000A000000000000000000000000000000000000000000000 000000000000000000000000000000000000000     00000000                                                                                                                        000000000000000000
F0010000006358400002000007200205100041450500000000000000000201410040002001LUIS MOLINA                                       C000000000900000000000000000000000100010010000000000000000000000F0010000006358400220141004000101 00000000000000000000000000000000000000000000000000000000000000000000000000000000000000000000000000000000000000000N 00000000000NCONT   00    00000000000          00000000000000000000000000000000000000000000 000000000000000A000000000000000000000000000000000000000000000 000000000000000000000000000000000000000     00000000                                                                                                                        000000000000000000
F0010000006358400003000007200205100042505000000000000000000201410040002001LUIS MOLINA                                       C000000000100000000000000000000000100010010000000000000000000000F0010000006358400320141004000101 00000000000000000000000000000000000000000000000000000000000000000000000000000000000000000000000000000000000000000N 00000000000NCONT   00    00000000000          00000000000000000000000000000000000000000000 000000000000000A000000000000000000000000000000000000000000000 000000000000000000000000000000000000000     00000000                                                                                                                        000000000000000000
F0010000006358400004000007200205100023658300000000000000000201410040002001LUIS MOLINA                                       C000000000007200000000000000000000100010010000000000000000000000F0010000006358400420141004000101 00000000000000000000000000000000000000000000000000000000000000000000000000000000000000000000000000000000000000000N 00000000000NCONT   00    00000000000          00000000000000000000000000000000000000000000 000000000000000A000000000000000000000000000000000000000000000 000000000000000000000000000000000000000     00000000                                                                                                                        000000000000000000
F0010000006358400005000007200205100013552100000000000000000201410040002001LUIS MOLINA                                       D000000000007200000000000000000000100010010000000000000000000000F0010000006358400520141004000101 00000000000000000000000000000000000000000000000000000000000000000000000000000000000000000000000000000000000000000N 00000000000NCONT   00    00000000000          00000000000000000000000000000000000000000000 000000000000000A000000000000000000000000000000000000000000000 000000000000000000000000000000000000000     00000000                                                                                                                        000000000000000000
F0010000006358500001000003207718300011050500000000000000000201410040002001GILMA RAMIREZ                                     D000000004800000000000000000000000100010010000000000000000000000F0010000006358500120141004000101 00000000000000000000000000000000000000000000000000000000000000000000000000000000000000000000000000000000000000000N 00000000000NCONT   00    00000000000          00000000000000000000000000000000000000000000 000000000000000A000000000000000000000000000000000000000000000 000000000000000000000000000000000000000     00000000                                                                                                                        000000000000000000
F0010000006358500002000003207718300041450500000000000000000201410040002001GILMA RAMIREZ                                     C000000004000000000000000000000000100010010000000000000000000000F0010000006358500220141004000101 00000000000000000000000000000000000000000000000000000000000000000000000000000000000000000000000000000000000000000N 00000000000NCONT   00    00000000000          00000000000000000000000000000000000000000000 000000000000000A000000000000000000000000000000000000000000000 000000000000000000000000000000000000000     00000000                                                                                                                        000000000000000000
F0010000006358500003000003207718300042505000000000000000000201410040002001GILMA RAMIREZ                                     C000000000800000000000000000000000100010010000000000000000000000F0010000006358500320141004000101 00000000000000000000000000000000000000000000000000000000000000000000000000000000000000000000000000000000000000000N 00000000000NCONT   00    00000000000          00000000000000000000000000000000000000000000 000000000000000A000000000000000000000000000000000000000000000 000000000000000000000000000000000000000     00000000                                                                                                                        000000000000000000
F0010000006358500004000003207718300023658300000000000000000201410040002001GILMA RAMIREZ                                     C000000000032000000000000000000000100010010000000000000000000000F0010000006358500420141004000101 00000000000000000000000000000000000000000000000000000000000000000000000000000000000000000000000000000000000000000N 00000000000NCONT   00    00000000000          00000000000000000000000000000000000000000000 000000000000000A000000000000000000000000000000000000000000000 000000000000000000000000000000000000000     00000000                                                                                                                        000000000000000000
F0010000006358500005000003207718300013552100000000000000000201410040002001GILMA RAMIREZ                                     D000000000032000000000000000000000100010010000000000000000000000F0010000006358500520141004000101 00000000000000000000000000000000000000000000000000000000000000000000000000000000000000000000000000000000000000000N 00000000000NCONT   00    00000000000          00000000000000000000000000000000000000000000 000000000000000A000000000000000000000000000000000000000000000 000000000000000000000000000000000000000     00000000                                                                                                                        000000000000000000
F0010000006358600001000009249843700011050500000000000000000201410040002001CESAR MERCADO                                     D000000003000000000000000000000000100010010000000000000000000000F0010000006358600120141004000101 00000000000000000000000000000000000000000000000000000000000000000000000000000000000000000000000000000000000000000N 00000000000NCONT   00    00000000000          00000000000000000000000000000000000000000000 000000000000000A000000000000000000000000000000000000000000000 000000000000000000000000000000000000000     00000000                                                                                                                        000000000000000000
F0010000006358600002000009249843700041450500000000000000000201410040002001CESAR MERCADO                                     C000000002750000000000000000000000100010010000000000000000000000F0010000006358600220141004000101 00000000000000000000000000000000000000000000000000000000000000000000000000000000000000000000000000000000000000000N 00000000000NCONT   00    00000000000          00000000000000000000000000000000000000000000 000000000000000A000000000000000000000000000000000000000000000 000000000000000000000000000000000000000     00000000                                                                                                                        000000000000000000
F0010000006358600003000009249843700042505000000000000000000201410040002001CESAR MERCADO                                     C000000000250000000000000000000000100010010000000000000000000000F0010000006358600320141004000101 00000000000000000000000000000000000000000000000000000000000000000000000000000000000000000000000000000000000000000N 00000000000NCONT   00    00000000000          00000000000000000000000000000000000000000000 000000000000000A000000000000000000000000000000000000000000000 000000000000000000000000000000000000000     00000000                                                                                                                        000000000000000000
F0010000006358600004000009249843700023658300000000000000000201410040002001CESAR MERCADO                                     C000000000022000000000000000000000100010010000000000000000000000F0010000006358600420141004000101 00000000000000000000000000000000000000000000000000000000000000000000000000000000000000000000000000000000000000000N 00000000000NCONT   00    00000000000          00000000000000000000000000000000000000000000 000000000000000A000000000000000000000000000000000000000000000 000000000000000000000000000000000000000     00000000                                                                                                                        000000000000000000
F0010000006358600005000009249843700013552100000000000000000201410040002001CESAR MERCADO                                     D000000000022000000000000000000000100010010000000000000000000000F0010000006358600520141004000101 00000000000000000000000000000000000000000000000000000000000000000000000000000000000000000000000000000000000000000N 00000000000NCONT   00    00000000000          00000000000000000000000000000000000000000000 000000000000000A000000000000000000000000000000000000000000000 000000000000000000000000000000000000000     00000000                                                                                                                        000000000000000000
F0010000006358700001000000875846200011050500000000000000000201410040002001JUAN ROSADO BAHOQUE                               D000000004400000000000000000000000100010010000000000000000000000F0010000006358700120141004000101 00000000000000000000000000000000000000000000000000000000000000000000000000000000000000000000000000000000000000000N 00000000000NCONT   00    00000000000          00000000000000000000000000000000000000000000 000000000000000A000000000000000000000000000000000000000000000 000000000000000000000000000000000000000     00000000                                                                                                                        000000000000000000
F0010000006358700002000000875846200041450500000000000000000201410040002001JUAN ROSADO BAHOQUE                               C000000004000000000000000000000000100010010000000000000000000000F0010000006358700220141004000101 00000000000000000000000000000000000000000000000000000000000000000000000000000000000000000000000000000000000000000N 00000000000NCONT   00    00000000000          00000000000000000000000000000000000000000000 000000000000000A000000000000000000000000000000000000000000000 000000000000000000000000000000000000000     00000000                                                                                                                        000000000000000000
F0010000006358700003000000875846200042505000000000000000000201410040002001JUAN ROSADO BAHOQUE                               C000000000400000000000000000000000100010010000000000000000000000F0010000006358700320141004000101 00000000000000000000000000000000000000000000000000000000000000000000000000000000000000000000000000000000000000000N 00000000000NCONT   00    00000000000          00000000000000000000000000000000000000000000 000000000000000A000000000000000000000000000000000000000000000 000000000000000000000000000000000000000     00000000                                                                                                                        000000000000000000
F0010000006358700004000000875846200023658300000000000000000201410040002001JUAN ROSADO BAHOQUE                               C000000000032000000000000000000000100010010000000000000000000000F0010000006358700420141004000101 00000000000000000000000000000000000000000000000000000000000000000000000000000000000000000000000000000000000000000N 00000000000NCONT   00    00000000000          00000000000000000000000000000000000000000000 000000000000000A000000000000000000000000000000000000000000000 000000000000000000000000000000000000000     00000000                                                                                                                        000000000000000000
F0010000006358700005000000875846200013552100000000000000000201410040002001JUAN ROSADO BAHOQUE                               D000000000032000000000000000000000100010010000000000000000000000F0010000006358700520141004000101 00000000000000000000000000000000000000000000000000000000000000000000000000000000000000000000000000000000000000000N 00000000000NCONT   00    00000000000          00000000000000000000000000000000000000000000 000000000000000A000000000000000000000000000000000000000000000 000000000000000000000000000000000000000     00000000                                                                                                                        000000000000000000
