F0010000007119400001000008814309200011050500000000000000000201505090002001FERNANDO BARBOSA                                  D000000001000000000000000000000000100010010000000000000000000000F0010000007119400120150509000101 00000000000000000000000000000000000000000000000000000000000000000000000000000000000000000000000000000000000000000N 00000000000NCONT   00    00000000000          00000000000000000000000000000000000000000000 000000000000000A000000000000000000000000000000000000000000000 000000000000000000000000000000000000000     00000000                                                                                                                        000000000000000000
F0010000007119400002000008814309200041450500000000000000000201505090002001FERNANDO BARBOSA                                  C000000000900000000000000000000000100010010000000000000000000000F0010000007119400220150509000101 00000000000000000000000000000000000000000000000000000000000000000000000000000000000000000000000000000000000000000N 00000000000NCONT   00    00000000000          00000000000000000000000000000000000000000000 000000000000000A000000000000000000000000000000000000000000000 000000000000000000000000000000000000000     00000000                                                                                                                        000000000000000000
F0010000007119400003000008814309200042505000000000000000000201505090002001FERNANDO BARBOSA                                  C000000000100000000000000000000000100010010000000000000000000000F0010000007119400320150509000101 00000000000000000000000000000000000000000000000000000000000000000000000000000000000000000000000000000000000000000N 00000000000NCONT   00    00000000000          00000000000000000000000000000000000000000000 000000000000000A000000000000000000000000000000000000000000000 000000000000000000000000000000000000000     00000000                                                                                                                        000000000000000000
F0010000007119400004000008814309200023658300000000000000000201505090002001FERNANDO BARBOSA                                  C000000000007200000000000000000000100010010000000000000000000000F0010000007119400420150509000101 00000000000000000000000000000000000000000000000000000000000000000000000000000000000000000000000000000000000000000N 00000000000NCONT   00    00000000000          00000000000000000000000000000000000000000000 000000000000000A000000000000000000000000000000000000000000000 000000000000000000000000000000000000000     00000000                                                                                                                        000000000000000000
F0010000007119400005000008814309200013552100000000000000000201505090002001FERNANDO BARBOSA                                  D000000000007200000000000000000000100010010000000000000000000000F0010000007119400520150509000101 00000000000000000000000000000000000000000000000000000000000000000000000000000000000000000000000000000000000000000N 00000000000NCONT   00    00000000000          00000000000000000000000000000000000000000000 000000000000000A000000000000000000000000000000000000000000000 000000000000000000000000000000000000000     00000000                                                                                                                        000000000000000000
F0010000007119500001000090034602400011050500000000000000000201505090002001PRODUCTOS NACIONALES PARAFINICOS LA CUSTODIA S.A.SD000000002000000000000000000000000100010010000000000000000000000F0010000007119500120150509000101 00000000000000000000000000000000000000000000000000000000000000000000000000000000000000000000000000000000000000000N 00000000000NCONT   00    00000000000          00000000000000000000000000000000000000000000 000000000000000A000000000000000000000000000000000000000000000 000000000000000000000000000000000000000     00000000                                                                                                                        000000000000000000
F0010000007119500002000090034602400041450500000000000000000201505090002001PRODUCTOS NACIONALES PARAFINICOS LA CUSTODIA S.A.SC000000001800000000000000000000000100010010000000000000000000000F0010000007119500220150509000101 00000000000000000000000000000000000000000000000000000000000000000000000000000000000000000000000000000000000000000N 00000000000NCONT   00    00000000000          00000000000000000000000000000000000000000000 000000000000000A000000000000000000000000000000000000000000000 000000000000000000000000000000000000000     00000000                                                                                                                        000000000000000000
F0010000007119500003000090034602400042505000000000000000000201505090002001PRODUCTOS NACIONALES PARAFINICOS LA CUSTODIA S.A.SC000000000200000000000000000000000100010010000000000000000000000F0010000007119500320150509000101 00000000000000000000000000000000000000000000000000000000000000000000000000000000000000000000000000000000000000000N 00000000000NCONT   00    00000000000          00000000000000000000000000000000000000000000 000000000000000A000000000000000000000000000000000000000000000 000000000000000000000000000000000000000     00000000                                                                                                                        000000000000000000
F0010000007119500004000090034602400023658300000000000000000201505090002001PRODUCTOS NACIONALES PARAFINICOS LA CUSTODIA S.A.SC000000000014400000000000000000000100010010000000000000000000000F0010000007119500420150509000101 00000000000000000000000000000000000000000000000000000000000000000000000000000000000000000000000000000000000000000N 00000000000NCONT   00    00000000000          00000000000000000000000000000000000000000000 000000000000000A000000000000000000000000000000000000000000000 000000000000000000000000000000000000000     00000000                                                                                                                        000000000000000000
F0010000007119500005000090034602400013552100000000000000000201505090002001PRODUCTOS NACIONALES PARAFINICOS LA CUSTODIA S.A.SD000000000014400000000000000000000100010010000000000000000000000F0010000007119500520150509000101 00000000000000000000000000000000000000000000000000000000000000000000000000000000000000000000000000000000000000000N 00000000000NCONT   00    00000000000          00000000000000000000000000000000000000000000 000000000000000A000000000000000000000000000000000000000000000 000000000000000000000000000000000000000     00000000                                                                                                                        000000000000000000
F0010000007119600001000090034602400011050500000000000000000201505090002001PRODUCTOS NACIONALES PARAFINICOS LA CUSTODIA S.A.SD000000003000000000000000000000000100010010000000000000000000000F0010000007119600120150509000101 00000000000000000000000000000000000000000000000000000000000000000000000000000000000000000000000000000000000000000N 00000000000NCONT   00    00000000000          00000000000000000000000000000000000000000000 000000000000000A000000000000000000000000000000000000000000000 000000000000000000000000000000000000000     00000000                                                                                                                        000000000000000000
F0010000007119600002000090034602400041450500000000000000000201505090002001PRODUCTOS NACIONALES PARAFINICOS LA CUSTODIA S.A.SC000000002700000000000000000000000100010010000000000000000000000F0010000007119600220150509000101 00000000000000000000000000000000000000000000000000000000000000000000000000000000000000000000000000000000000000000N 00000000000NCONT   00    00000000000          00000000000000000000000000000000000000000000 000000000000000A000000000000000000000000000000000000000000000 000000000000000000000000000000000000000     00000000                                                                                                                        000000000000000000
F0010000007119600003000090034602400042505000000000000000000201505090002001PRODUCTOS NACIONALES PARAFINICOS LA CUSTODIA S.A.SC000000000300000000000000000000000100010010000000000000000000000F0010000007119600320150509000101 00000000000000000000000000000000000000000000000000000000000000000000000000000000000000000000000000000000000000000N 00000000000NCONT   00    00000000000          00000000000000000000000000000000000000000000 000000000000000A000000000000000000000000000000000000000000000 000000000000000000000000000000000000000     00000000                                                                                                                        000000000000000000
F0010000007119600004000090034602400023658300000000000000000201505090002001PRODUCTOS NACIONALES PARAFINICOS LA CUSTODIA S.A.SC000000000021600000000000000000000100010010000000000000000000000F0010000007119600420150509000101 00000000000000000000000000000000000000000000000000000000000000000000000000000000000000000000000000000000000000000N 00000000000NCONT   00    00000000000          00000000000000000000000000000000000000000000 000000000000000A000000000000000000000000000000000000000000000 000000000000000000000000000000000000000     00000000                                                                                                                        000000000000000000
F0010000007119600005000090034602400013552100000000000000000201505090002001PRODUCTOS NACIONALES PARAFINICOS LA CUSTODIA S.A.SD000000000021600000000000000000000100010010000000000000000000000F0010000007119600520150509000101 00000000000000000000000000000000000000000000000000000000000000000000000000000000000000000000000000000000000000000N 00000000000NCONT   00    00000000000          00000000000000000000000000000000000000000000 000000000000000A000000000000000000000000000000000000000000000 000000000000000000000000000000000000000     00000000                                                                                                                        000000000000000000
F0010000007119700001000090034602400011050500000000000000000201505090002001PRODUCTOS NACIONALES PARAFINICOS LA CUSTODIA S.A.SD000000001000000000000000000000000100010010000000000000000000000F0010000007119700120150509000101 00000000000000000000000000000000000000000000000000000000000000000000000000000000000000000000000000000000000000000N 00000000000NCONT   00    00000000000          00000000000000000000000000000000000000000000 000000000000000A000000000000000000000000000000000000000000000 000000000000000000000000000000000000000     00000000                                                                                                                        000000000000000000
F0010000007119700002000090034602400041450500000000000000000201505090002001PRODUCTOS NACIONALES PARAFINICOS LA CUSTODIA S.A.SC000000000900000000000000000000000100010010000000000000000000000F0010000007119700220150509000101 00000000000000000000000000000000000000000000000000000000000000000000000000000000000000000000000000000000000000000N 00000000000NCONT   00    00000000000          00000000000000000000000000000000000000000000 000000000000000A000000000000000000000000000000000000000000000 000000000000000000000000000000000000000     00000000                                                                                                                        000000000000000000
F0010000007119700003000090034602400042505000000000000000000201505090002001PRODUCTOS NACIONALES PARAFINICOS LA CUSTODIA S.A.SC000000000100000000000000000000000100010010000000000000000000000F0010000007119700320150509000101 00000000000000000000000000000000000000000000000000000000000000000000000000000000000000000000000000000000000000000N 00000000000NCONT   00    00000000000          00000000000000000000000000000000000000000000 000000000000000A000000000000000000000000000000000000000000000 000000000000000000000000000000000000000     00000000                                                                                                                        000000000000000000
F0010000007119700004000090034602400023658300000000000000000201505090002001PRODUCTOS NACIONALES PARAFINICOS LA CUSTODIA S.A.SC000000000007200000000000000000000100010010000000000000000000000F0010000007119700420150509000101 00000000000000000000000000000000000000000000000000000000000000000000000000000000000000000000000000000000000000000N 00000000000NCONT   00    00000000000          00000000000000000000000000000000000000000000 000000000000000A000000000000000000000000000000000000000000000 000000000000000000000000000000000000000     00000000                                                                                                                        000000000000000000
F0010000007119700005000090034602400013552100000000000000000201505090002001PRODUCTOS NACIONALES PARAFINICOS LA CUSTODIA S.A.SD000000000007200000000000000000000100010010000000000000000000000F0010000007119700520150509000101 00000000000000000000000000000000000000000000000000000000000000000000000000000000000000000000000000000000000000000N 00000000000NCONT   00    00000000000          00000000000000000000000000000000000000000000 000000000000000A000000000000000000000000000000000000000000000 000000000000000000000000000000000000000     00000000                                                                                                                        000000000000000000
F0010000007119800001000002245670100011050500000000000000000201505090002001YOLANDA  TOBON                                    D000000001120000000000000000000000100010010000000000000000000000F0010000007119800120150509000101 00000000000000000000000000000000000000000000000000000000000000000000000000000000000000000000000000000000000000000N 00000000000NCONT   00    00000000000          00000000000000000000000000000000000000000000 000000000000000A000000000000000000000000000000000000000000000 000000000000000000000000000000000000000     00000000                                                                                                                        000000000000000000
F0010000007119800002000002245670100041450500000000000000000201505090002001YOLANDA  TOBON                                    C000000001000000000000000000000000100010010000000000000000000000F0010000007119800220150509000101 00000000000000000000000000000000000000000000000000000000000000000000000000000000000000000000000000000000000000000N 00000000000NCONT   00    00000000000          00000000000000000000000000000000000000000000 000000000000000A000000000000000000000000000000000000000000000 000000000000000000000000000000000000000     00000000                                                                                                                        000000000000000000
F0010000007119800003000002245670100042505000000000000000000201505090002001YOLANDA  TOBON                                    C000000000120000000000000000000000100010010000000000000000000000F0010000007119800320150509000101 00000000000000000000000000000000000000000000000000000000000000000000000000000000000000000000000000000000000000000N 00000000000NCONT   00    00000000000          00000000000000000000000000000000000000000000 000000000000000A000000000000000000000000000000000000000000000 000000000000000000000000000000000000000     00000000                                                                                                                        000000000000000000
F0010000007119800004000002245670100023658300000000000000000201505090002001YOLANDA  TOBON                                    C000000000008000000000000000000000100010010000000000000000000000F0010000007119800420150509000101 00000000000000000000000000000000000000000000000000000000000000000000000000000000000000000000000000000000000000000N 00000000000NCONT   00    00000000000          00000000000000000000000000000000000000000000 000000000000000A000000000000000000000000000000000000000000000 000000000000000000000000000000000000000     00000000                                                                                                                        000000000000000000
F0010000007119800005000002245670100013552100000000000000000201505090002001YOLANDA  TOBON                                    D000000000008000000000000000000000100010010000000000000000000000F0010000007119800520150509000101 00000000000000000000000000000000000000000000000000000000000000000000000000000000000000000000000000000000000000000N 00000000000NCONT   00    00000000000          00000000000000000000000000000000000000000000 000000000000000A000000000000000000000000000000000000000000000 000000000000000000000000000000000000000     00000000                                                                                                                        000000000000000000
F0010000007119900001000002245670100011050500000000000000000201505090002001YOLANDA  TOBON                                    D000000002104000000000000000000000100010010000000000000000000000F0010000007119900120150509000101 00000000000000000000000000000000000000000000000000000000000000000000000000000000000000000000000000000000000000000N 00000000000NCONT   00    00000000000          00000000000000000000000000000000000000000000 000000000000000A000000000000000000000000000000000000000000000 000000000000000000000000000000000000000     00000000                                                                                                                        000000000000000000
F0010000007119900002000002245670100041450500000000000000000201505090002001YOLANDA  TOBON                                    C000000001650000000000000000000000100010010000000000000000000000F0010000007119900220150509000101 00000000000000000000000000000000000000000000000000000000000000000000000000000000000000000000000000000000000000000N 00000000000NCONT   00    00000000000          00000000000000000000000000000000000000000000 000000000000000A000000000000000000000000000000000000000000000 000000000000000000000000000000000000000     00000000                                                                                                                        000000000000000000
F0010000007119900003000002245670100042505000000000000000000201505090002001YOLANDA  TOBON                                    C000000000454000000000000000000000100010010000000000000000000000F0010000007119900320150509000101 00000000000000000000000000000000000000000000000000000000000000000000000000000000000000000000000000000000000000000N 00000000000NCONT   00    00000000000          00000000000000000000000000000000000000000000 000000000000000A000000000000000000000000000000000000000000000 000000000000000000000000000000000000000     00000000                                                                                                                        000000000000000000
F0010000007119900004000002245670100023658300000000000000000201505090002001YOLANDA  TOBON                                    C000000000013200000000000000000000100010010000000000000000000000F0010000007119900420150509000101 00000000000000000000000000000000000000000000000000000000000000000000000000000000000000000000000000000000000000000N 00000000000NCONT   00    00000000000          00000000000000000000000000000000000000000000 000000000000000A000000000000000000000000000000000000000000000 000000000000000000000000000000000000000     00000000                                                                                                                        000000000000000000
F0010000007119900005000002245670100013552100000000000000000201505090002001YOLANDA  TOBON                                    D000000000013200000000000000000000100010010000000000000000000000F0010000007119900520150509000101 00000000000000000000000000000000000000000000000000000000000000000000000000000000000000000000000000000000000000000N 00000000000NCONT   00    00000000000          00000000000000000000000000000000000000000000 000000000000000A000000000000000000000000000000000000000000000 000000000000000000000000000000000000000     00000000                                                                                                                        000000000000000000
F0010000007120000001000090009376100011050500000000000000000201505090002001WOODEN OFFIC                                      D000000084150000000000000000000000100010010000000000000000000000F0010000007120000120150509000101 00000000000000000000000000000000000000000000000000000000000000000000000000000000000000000000000000000000000000000N 00000000000NCONT   00    00000000000          00000000000000000000000000000000000000000000 000000000000000A000000000000000000000000000000000000000000000 000000000000000000000000000000000000000     00000000                                                                                                                        000000000000000000
F0010000007120000002000090009376100041450500000000000000000201505090002001WOODEN OFFIC                                      C000000080000000000000000000000000100010010000000000000000000000F0010000007120000220150509000101 00000000000000000000000000000000000000000000000000000000000000000000000000000000000000000000000000000000000000000N 00000000000NCONT   00    00000000000          00000000000000000000000000000000000000000000 000000000000000A000000000000000000000000000000000000000000000 000000000000000000000000000000000000000     00000000                                                                                                                        000000000000000000
F0010000007120000003000090009376100042505000000000000000000201505090002001WOODEN OFFIC                                      C000000004150000000000000000000000100010010000000000000000000000F0010000007120000320150509000101 00000000000000000000000000000000000000000000000000000000000000000000000000000000000000000000000000000000000000000N 00000000000NCONT   00    00000000000          00000000000000000000000000000000000000000000 000000000000000A000000000000000000000000000000000000000000000 000000000000000000000000000000000000000     00000000                                                                                                                        000000000000000000
F0010000007120000004000090009376100023658300000000000000000201505090002001WOODEN OFFIC                                      C000000000640000000000000000000000100010010000000000000000000000F0010000007120000420150509000101 00000000000000000000000000000000000000000000000000000000000000000000000000000000000000000000000000000000000000000N 00000000000NCONT   00    00000000000          00000000000000000000000000000000000000000000 000000000000000A000000000000000000000000000000000000000000000 000000000000000000000000000000000000000     00000000                                                                                                                        000000000000000000
F0010000007120000005000090009376100013552100000000000000000201505090002001WOODEN OFFIC                                      D000000000640000000000000000000000100010010000000000000000000000F0010000007120000520150509000101 00000000000000000000000000000000000000000000000000000000000000000000000000000000000000000000000000000000000000000N 00000000000NCONT   00    00000000000          00000000000000000000000000000000000000000000 000000000000000A000000000000000000000000000000000000000000000 000000000000000000000000000000000000000     00000000                                                                                                                        000000000000000000
F0010000007120100001000080023327700011050500000000000000000201505090002001DISINCO LTDA                                      D000000002000000000000000000000000100010010000000000000000000000F0010000007120100120150509000101 00000000000000000000000000000000000000000000000000000000000000000000000000000000000000000000000000000000000000000N 00000000000NCONT   00    00000000000          00000000000000000000000000000000000000000000 000000000000000A000000000000000000000000000000000000000000000 000000000000000000000000000000000000000     00000000                                                                                                                        000000000000000000
F0010000007120100002000080023327700041450500000000000000000201505090002001DISINCO LTDA                                      C000000001900000000000000000000000100010010000000000000000000000F0010000007120100220150509000101 00000000000000000000000000000000000000000000000000000000000000000000000000000000000000000000000000000000000000000N 00000000000NCONT   00    00000000000          00000000000000000000000000000000000000000000 000000000000000A000000000000000000000000000000000000000000000 000000000000000000000000000000000000000     00000000                                                                                                                        000000000000000000
F0010000007120100003000080023327700042505000000000000000000201505090002001DISINCO LTDA                                      C000000000100000000000000000000000100010010000000000000000000000F0010000007120100320150509000101 00000000000000000000000000000000000000000000000000000000000000000000000000000000000000000000000000000000000000000N 00000000000NCONT   00    00000000000          00000000000000000000000000000000000000000000 000000000000000A000000000000000000000000000000000000000000000 000000000000000000000000000000000000000     00000000                                                                                                                        000000000000000000
F0010000007120100004000080023327700023658300000000000000000201505090002001DISINCO LTDA                                      C000000000015200000000000000000000100010010000000000000000000000F0010000007120100420150509000101 00000000000000000000000000000000000000000000000000000000000000000000000000000000000000000000000000000000000000000N 00000000000NCONT   00    00000000000          00000000000000000000000000000000000000000000 000000000000000A000000000000000000000000000000000000000000000 000000000000000000000000000000000000000     00000000                                                                                                                        000000000000000000
F0010000007120100005000080023327700013552100000000000000000201505090002001DISINCO LTDA                                      D000000000015200000000000000000000100010010000000000000000000000F0010000007120100520150509000101 00000000000000000000000000000000000000000000000000000000000000000000000000000000000000000000000000000000000000000N 00000000000NCONT   00    00000000000          00000000000000000000000000000000000000000000 000000000000000A000000000000000000000000000000000000000000000 000000000000000000000000000000000000000     00000000                                                                                                                        000000000000000000
F0010000007120200001000002245670100011050500000000000000000201505090002001YOLANDA  TOBON                                    D000000004500000000000000000000000100010010000000000000000000000F0010000007120200120150509000101 00000000000000000000000000000000000000000000000000000000000000000000000000000000000000000000000000000000000000000N 00000000000NCONT   00    00000000000          00000000000000000000000000000000000000000000 000000000000000A000000000000000000000000000000000000000000000 000000000000000000000000000000000000000     00000000                                                                                                                        000000000000000000
F0010000007120200002000002245670100041450500000000000000000201505090002001YOLANDA  TOBON                                    C000000003820000000000000000000000100010010000000000000000000000F0010000007120200220150509000101 00000000000000000000000000000000000000000000000000000000000000000000000000000000000000000000000000000000000000000N 00000000000NCONT   00    00000000000          00000000000000000000000000000000000000000000 000000000000000A000000000000000000000000000000000000000000000 000000000000000000000000000000000000000     00000000                                                                                                                        000000000000000000
F0010000007120200003000002245670100042505000000000000000000201505090002001YOLANDA  TOBON                                    C000000000680000000000000000000000100010010000000000000000000000F0010000007120200320150509000101 00000000000000000000000000000000000000000000000000000000000000000000000000000000000000000000000000000000000000000N 00000000000NCONT   00    00000000000          00000000000000000000000000000000000000000000 000000000000000A000000000000000000000000000000000000000000000 000000000000000000000000000000000000000     00000000                                                                                                                        000000000000000000
F0010000007120200004000002245670100023658300000000000000000201505090002001YOLANDA  TOBON                                    C000000000030600000000000000000000100010010000000000000000000000F0010000007120200420150509000101 00000000000000000000000000000000000000000000000000000000000000000000000000000000000000000000000000000000000000000N 00000000000NCONT   00    00000000000          00000000000000000000000000000000000000000000 000000000000000A000000000000000000000000000000000000000000000 000000000000000000000000000000000000000     00000000                                                                                                                        000000000000000000
F0010000007120200005000002245670100013552100000000000000000201505090002001YOLANDA  TOBON                                    D000000000030600000000000000000000100010010000000000000000000000F0010000007120200520150509000101 00000000000000000000000000000000000000000000000000000000000000000000000000000000000000000000000000000000000000000N 00000000000NCONT   00    00000000000          00000000000000000000000000000000000000000000 000000000000000A000000000000000000000000000000000000000000000 000000000000000000000000000000000000000     00000000                                                                                                                        000000000000000000
F0010000007120300001000002245670100011050500000000000000000201505090002001YOLANDA  TOBON                                    D000000001200000000000000000000000100010010000000000000000000000F0010000007120300120150509000101 00000000000000000000000000000000000000000000000000000000000000000000000000000000000000000000000000000000000000000N 00000000000NCONT   00    00000000000          00000000000000000000000000000000000000000000 000000000000000A000000000000000000000000000000000000000000000 000000000000000000000000000000000000000     00000000                                                                                                                        000000000000000000
F0010000007120300002000002245670100041450500000000000000000201505090002001YOLANDA  TOBON                                    C000000001000000000000000000000000100010010000000000000000000000F0010000007120300220150509000101 00000000000000000000000000000000000000000000000000000000000000000000000000000000000000000000000000000000000000000N 00000000000NCONT   00    00000000000          00000000000000000000000000000000000000000000 000000000000000A000000000000000000000000000000000000000000000 000000000000000000000000000000000000000     00000000                                                                                                                        000000000000000000
F0010000007120300003000002245670100042505000000000000000000201505090002001YOLANDA  TOBON                                    C000000000200000000000000000000000100010010000000000000000000000F0010000007120300320150509000101 00000000000000000000000000000000000000000000000000000000000000000000000000000000000000000000000000000000000000000N 00000000000NCONT   00    00000000000          00000000000000000000000000000000000000000000 000000000000000A000000000000000000000000000000000000000000000 000000000000000000000000000000000000000     00000000                                                                                                                        000000000000000000
F0010000007120300004000002245670100023658300000000000000000201505090002001YOLANDA  TOBON                                    C000000000008000000000000000000000100010010000000000000000000000F0010000007120300420150509000101 00000000000000000000000000000000000000000000000000000000000000000000000000000000000000000000000000000000000000000N 00000000000NCONT   00    00000000000          00000000000000000000000000000000000000000000 000000000000000A000000000000000000000000000000000000000000000 000000000000000000000000000000000000000     00000000                                                                                                                        000000000000000000
F0010000007120300005000002245670100013552100000000000000000201505090002001YOLANDA  TOBON                                    D000000000008000000000000000000000100010010000000000000000000000F0010000007120300520150509000101 00000000000000000000000000000000000000000000000000000000000000000000000000000000000000000000000000000000000000000N 00000000000NCONT   00    00000000000          00000000000000000000000000000000000000000000 000000000000000A000000000000000000000000000000000000000000000 000000000000000000000000000000000000000     00000000                                                                                                                        000000000000000000
F0010000007120400001000002245670100011050500000000000000000201505090002001YOLANDA  TOBON                                    D000000004000000000000000000000000100010010000000000000000000000F0010000007120400120150509000101 00000000000000000000000000000000000000000000000000000000000000000000000000000000000000000000000000000000000000000N 00000000000NCONT   00    00000000000          00000000000000000000000000000000000000000000 000000000000000A000000000000000000000000000000000000000000000 000000000000000000000000000000000000000     00000000                                                                                                                        000000000000000000
F0010000007120400002000002245670100041450500000000000000000201505090002001YOLANDA  TOBON                                    C000000003300000000000000000000000100010010000000000000000000000F0010000007120400220150509000101 00000000000000000000000000000000000000000000000000000000000000000000000000000000000000000000000000000000000000000N 00000000000NCONT   00    00000000000          00000000000000000000000000000000000000000000 000000000000000A000000000000000000000000000000000000000000000 000000000000000000000000000000000000000     00000000                                                                                                                        000000000000000000
F0010000007120400003000002245670100042505000000000000000000201505090002001YOLANDA  TOBON                                    C000000000700000000000000000000000100010010000000000000000000000F0010000007120400320150509000101 00000000000000000000000000000000000000000000000000000000000000000000000000000000000000000000000000000000000000000N 00000000000NCONT   00    00000000000          00000000000000000000000000000000000000000000 000000000000000A000000000000000000000000000000000000000000000 000000000000000000000000000000000000000     00000000                                                                                                                        000000000000000000
F0010000007120400004000002245670100023658300000000000000000201505090002001YOLANDA  TOBON                                    C000000000026400000000000000000000100010010000000000000000000000F0010000007120400420150509000101 00000000000000000000000000000000000000000000000000000000000000000000000000000000000000000000000000000000000000000N 00000000000NCONT   00    00000000000          00000000000000000000000000000000000000000000 000000000000000A000000000000000000000000000000000000000000000 000000000000000000000000000000000000000     00000000                                                                                                                        000000000000000000
F0010000007120400005000002245670100013552100000000000000000201505090002001YOLANDA  TOBON                                    D000000000026400000000000000000000100010010000000000000000000000F0010000007120400520150509000101 00000000000000000000000000000000000000000000000000000000000000000000000000000000000000000000000000000000000000000N 00000000000NCONT   00    00000000000          00000000000000000000000000000000000000000000 000000000000000A000000000000000000000000000000000000000000000 000000000000000000000000000000000000000     00000000                                                                                                                        000000000000000000
F0010000007120500001000001022529300011050500000000000000000201505090002001ALBERTO ALVAREZ ISAZA                             D000000001340000000000000000000000100010010000000000000000000000F0010000007120500120150509000101 00000000000000000000000000000000000000000000000000000000000000000000000000000000000000000000000000000000000000000N 00000000000NCONT   00    00000000000          00000000000000000000000000000000000000000000 000000000000000A000000000000000000000000000000000000000000000 000000000000000000000000000000000000000     00000000                                                                                                                        000000000000000000
F0010000007120500002000001022529300041450500000000000000000201505090002001ALBERTO ALVAREZ ISAZA                             C000000001140000000000000000000000100010010000000000000000000000F0010000007120500220150509000101 00000000000000000000000000000000000000000000000000000000000000000000000000000000000000000000000000000000000000000N 00000000000NCONT   00    00000000000          00000000000000000000000000000000000000000000 000000000000000A000000000000000000000000000000000000000000000 000000000000000000000000000000000000000     00000000                                                                                                                        000000000000000000
F0010000007120500003000001022529300042505000000000000000000201505090002001ALBERTO ALVAREZ ISAZA                             C000000000200000000000000000000000100010010000000000000000000000F0010000007120500320150509000101 00000000000000000000000000000000000000000000000000000000000000000000000000000000000000000000000000000000000000000N 00000000000NCONT   00    00000000000          00000000000000000000000000000000000000000000 000000000000000A000000000000000000000000000000000000000000000 000000000000000000000000000000000000000     00000000                                                                                                                        000000000000000000
F0010000007120500004000001022529300023658300000000000000000201505090002001ALBERTO ALVAREZ ISAZA                             C000000000009100000000000000000000100010010000000000000000000000F0010000007120500420150509000101 00000000000000000000000000000000000000000000000000000000000000000000000000000000000000000000000000000000000000000N 00000000000NCONT   00    00000000000          00000000000000000000000000000000000000000000 000000000000000A000000000000000000000000000000000000000000000 000000000000000000000000000000000000000     00000000                                                                                                                        000000000000000000
F0010000007120500005000001022529300013552100000000000000000201505090002001ALBERTO ALVAREZ ISAZA                             D000000000009100000000000000000000100010010000000000000000000000F0010000007120500520150509000101 00000000000000000000000000000000000000000000000000000000000000000000000000000000000000000000000000000000000000000N 00000000000NCONT   00    00000000000          00000000000000000000000000000000000000000000 000000000000000A000000000000000000000000000000000000000000000 000000000000000000000000000000000000000     00000000                                                                                                                        000000000000000000
F0010000007120600001000001022529300011050500000000000000000201505090002001ALBERTO ALVAREZ ISAZA                             D000000000835000000000000000000000100010010000000000000000000000F0010000007120600120150509000101 00000000000000000000000000000000000000000000000000000000000000000000000000000000000000000000000000000000000000000N 00000000000NCONT   00    00000000000          00000000000000000000000000000000000000000000 000000000000000A000000000000000000000000000000000000000000000 000000000000000000000000000000000000000     00000000                                                                                                                        000000000000000000
F0010000007120600002000001022529300041450500000000000000000201505090002001ALBERTO ALVAREZ ISAZA                             C000000000760000000000000000000000100010010000000000000000000000F0010000007120600220150509000101 00000000000000000000000000000000000000000000000000000000000000000000000000000000000000000000000000000000000000000N 00000000000NCONT   00    00000000000          00000000000000000000000000000000000000000000 000000000000000A000000000000000000000000000000000000000000000 000000000000000000000000000000000000000     00000000                                                                                                                        000000000000000000
F0010000007120600003000001022529300042505000000000000000000201505090002001ALBERTO ALVAREZ ISAZA                             C000000000075000000000000000000000100010010000000000000000000000F0010000007120600320150509000101 00000000000000000000000000000000000000000000000000000000000000000000000000000000000000000000000000000000000000000N 00000000000NCONT   00    00000000000          00000000000000000000000000000000000000000000 000000000000000A000000000000000000000000000000000000000000000 000000000000000000000000000000000000000     00000000                                                                                                                        000000000000000000
F0010000007120600004000001022529300023658300000000000000000201505090002001ALBERTO ALVAREZ ISAZA                             C000000000006100000000000000000000100010010000000000000000000000F0010000007120600420150509000101 00000000000000000000000000000000000000000000000000000000000000000000000000000000000000000000000000000000000000000N 00000000000NCONT   00    00000000000          00000000000000000000000000000000000000000000 000000000000000A000000000000000000000000000000000000000000000 000000000000000000000000000000000000000     00000000                                                                                                                        000000000000000000
F0010000007120600005000001022529300013552100000000000000000201505090002001ALBERTO ALVAREZ ISAZA                             D000000000006100000000000000000000100010010000000000000000000000F0010000007120600520150509000101 00000000000000000000000000000000000000000000000000000000000000000000000000000000000000000000000000000000000000000N 00000000000NCONT   00    00000000000          00000000000000000000000000000000000000000000 000000000000000A000000000000000000000000000000000000000000000 000000000000000000000000000000000000000     00000000                                                                                                                        000000000000000000
F0010000007120700001000090050144800011050500000000000000000201505090002001PLASTICOS JR ASOCIADOS SAS                        D000000004700000000000000000000000100010010000000000000000000000F0010000007120700120150509000101 00000000000000000000000000000000000000000000000000000000000000000000000000000000000000000000000000000000000000000N 00000000000NCONT   00    00000000000          00000000000000000000000000000000000000000000 000000000000000A000000000000000000000000000000000000000000000 000000000000000000000000000000000000000     00000000                                                                                                                        000000000000000000
F0010000007120700002000090050144800041450500000000000000000201505090002001PLASTICOS JR ASOCIADOS SAS                        C000000004250000000000000000000000100010010000000000000000000000F0010000007120700220150509000101 00000000000000000000000000000000000000000000000000000000000000000000000000000000000000000000000000000000000000000N 00000000000NCONT   00    00000000000          00000000000000000000000000000000000000000000 000000000000000A000000000000000000000000000000000000000000000 000000000000000000000000000000000000000     00000000                                                                                                                        000000000000000000
F0010000007120700003000090050144800042505000000000000000000201505090002001PLASTICOS JR ASOCIADOS SAS                        C000000000450000000000000000000000100010010000000000000000000000F0010000007120700320150509000101 00000000000000000000000000000000000000000000000000000000000000000000000000000000000000000000000000000000000000000N 00000000000NCONT   00    00000000000          00000000000000000000000000000000000000000000 000000000000000A000000000000000000000000000000000000000000000 000000000000000000000000000000000000000     00000000                                                                                                                        000000000000000000
F0010000007120700004000090050144800023658300000000000000000201505090002001PLASTICOS JR ASOCIADOS SAS                        C000000000034000000000000000000000100010010000000000000000000000F0010000007120700420150509000101 00000000000000000000000000000000000000000000000000000000000000000000000000000000000000000000000000000000000000000N 00000000000NCONT   00    00000000000          00000000000000000000000000000000000000000000 000000000000000A000000000000000000000000000000000000000000000 000000000000000000000000000000000000000     00000000                                                                                                                        000000000000000000
F0010000007120700005000090050144800013552100000000000000000201505090002001PLASTICOS JR ASOCIADOS SAS                        D000000000034000000000000000000000100010010000000000000000000000F0010000007120700520150509000101 00000000000000000000000000000000000000000000000000000000000000000000000000000000000000000000000000000000000000000N 00000000000NCONT   00    00000000000          00000000000000000000000000000000000000000000 000000000000000A000000000000000000000000000000000000000000000 000000000000000000000000000000000000000     00000000                                                                                                                        000000000000000000
F0010000007120800001000090050144800011050500000000000000000201505090002001PLASTICOS JR ASOCIADOS SAS                        D000000006200000000000000000000000100010010000000000000000000000F0010000007120800120150509000101 00000000000000000000000000000000000000000000000000000000000000000000000000000000000000000000000000000000000000000N 00000000000NCONT   00    00000000000          00000000000000000000000000000000000000000000 000000000000000A000000000000000000000000000000000000000000000 000000000000000000000000000000000000000     00000000                                                                                                                        000000000000000000
F0010000007120800002000090050144800041450500000000000000000201505090002001PLASTICOS JR ASOCIADOS SAS                        C000000005100000000000000000000000100010010000000000000000000000F0010000007120800220150509000101 00000000000000000000000000000000000000000000000000000000000000000000000000000000000000000000000000000000000000000N 00000000000NCONT   00    00000000000          00000000000000000000000000000000000000000000 000000000000000A000000000000000000000000000000000000000000000 000000000000000000000000000000000000000     00000000                                                                                                                        000000000000000000
F0010000007120800003000090050144800042505000000000000000000201505090002001PLASTICOS JR ASOCIADOS SAS                        C000000001100000000000000000000000100010010000000000000000000000F0010000007120800320150509000101 00000000000000000000000000000000000000000000000000000000000000000000000000000000000000000000000000000000000000000N 00000000000NCONT   00    00000000000          00000000000000000000000000000000000000000000 000000000000000A000000000000000000000000000000000000000000000 000000000000000000000000000000000000000     00000000                                                                                                                        000000000000000000
F0010000007120800004000090050144800023658300000000000000000201505090002001PLASTICOS JR ASOCIADOS SAS                        C000000000040800000000000000000000100010010000000000000000000000F0010000007120800420150509000101 00000000000000000000000000000000000000000000000000000000000000000000000000000000000000000000000000000000000000000N 00000000000NCONT   00    00000000000          00000000000000000000000000000000000000000000 000000000000000A000000000000000000000000000000000000000000000 000000000000000000000000000000000000000     00000000                                                                                                                        000000000000000000
F0010000007120800005000090050144800013552100000000000000000201505090002001PLASTICOS JR ASOCIADOS SAS                        D000000000040800000000000000000000100010010000000000000000000000F0010000007120800520150509000101 00000000000000000000000000000000000000000000000000000000000000000000000000000000000000000000000000000000000000000N 00000000000NCONT   00    00000000000          00000000000000000000000000000000000000000000 000000000000000A000000000000000000000000000000000000000000000 000000000000000000000000000000000000000     00000000                                                                                                                        000000000000000000
F0010000007120900001000089010038800011050500000000000000000201505090002001CRISTALERIA SELMAN SAS                            D000000021000000000000000000000000100010010000000000000000000000F0010000007120900120150509000101 00000000000000000000000000000000000000000000000000000000000000000000000000000000000000000000000000000000000000000N 00000000000NCONT   00    00000000000          00000000000000000000000000000000000000000000 000000000000000A000000000000000000000000000000000000000000000 000000000000000000000000000000000000000     00000000                                                                                                                        000000000000000000
F0010000007120900002000089010038800041450500000000000000000201505090002001CRISTALERIA SELMAN SAS                            C000000015400000000000000000000000100010010000000000000000000000F0010000007120900220150509000101 00000000000000000000000000000000000000000000000000000000000000000000000000000000000000000000000000000000000000000N 00000000000NCONT   00    00000000000          00000000000000000000000000000000000000000000 000000000000000A000000000000000000000000000000000000000000000 000000000000000000000000000000000000000     00000000                                                                                                                        000000000000000000
F0010000007120900003000089010038800042505000000000000000000201505090002001CRISTALERIA SELMAN SAS                            C000000005600000000000000000000000100010010000000000000000000000F0010000007120900320150509000101 00000000000000000000000000000000000000000000000000000000000000000000000000000000000000000000000000000000000000000N 00000000000NCONT   00    00000000000          00000000000000000000000000000000000000000000 000000000000000A000000000000000000000000000000000000000000000 000000000000000000000000000000000000000     00000000                                                                                                                        000000000000000000
F0010000007120900004000089010038800023658300000000000000000201505090002001CRISTALERIA SELMAN SAS                            C000000000123200000000000000000000100010010000000000000000000000F0010000007120900420150509000101 00000000000000000000000000000000000000000000000000000000000000000000000000000000000000000000000000000000000000000N 00000000000NCONT   00    00000000000          00000000000000000000000000000000000000000000 000000000000000A000000000000000000000000000000000000000000000 000000000000000000000000000000000000000     00000000                                                                                                                        000000000000000000
F0010000007120900005000089010038800013552100000000000000000201505090002001CRISTALERIA SELMAN SAS                            D000000000123200000000000000000000100010010000000000000000000000F0010000007120900520150509000101 00000000000000000000000000000000000000000000000000000000000000000000000000000000000000000000000000000000000000000N 00000000000NCONT   00    00000000000          00000000000000000000000000000000000000000000 000000000000000A000000000000000000000000000000000000000000000 000000000000000000000000000000000000000     00000000                                                                                                                        000000000000000000
F0010000007121000001000000431178400011050500000000000000000201505090002001EFRAIN ALVAREZ                                    D000000000960000000000000000000000100010010000000000000000000000F0010000007121000120150509000101 00000000000000000000000000000000000000000000000000000000000000000000000000000000000000000000000000000000000000000N 00000000000NCONT   00    00000000000          00000000000000000000000000000000000000000000 000000000000000A000000000000000000000000000000000000000000000 000000000000000000000000000000000000000     00000000                                                                                                                        000000000000000000
F0010000007121000002000000431178400041450500000000000000000201505090002001EFRAIN ALVAREZ                                    C000000000860000000000000000000000100010010000000000000000000000F0010000007121000220150509000101 00000000000000000000000000000000000000000000000000000000000000000000000000000000000000000000000000000000000000000N 00000000000NCONT   00    00000000000          00000000000000000000000000000000000000000000 000000000000000A000000000000000000000000000000000000000000000 000000000000000000000000000000000000000     00000000                                                                                                                        000000000000000000
F0010000007121000003000000431178400042505000000000000000000201505090002001EFRAIN ALVAREZ                                    C000000000100000000000000000000000100010010000000000000000000000F0010000007121000320150509000101 00000000000000000000000000000000000000000000000000000000000000000000000000000000000000000000000000000000000000000N 00000000000NCONT   00    00000000000          00000000000000000000000000000000000000000000 000000000000000A000000000000000000000000000000000000000000000 000000000000000000000000000000000000000     00000000                                                                                                                        000000000000000000
F0010000007121000004000000431178400023658300000000000000000201505090002001EFRAIN ALVAREZ                                    C000000000006900000000000000000000100010010000000000000000000000F0010000007121000420150509000101 00000000000000000000000000000000000000000000000000000000000000000000000000000000000000000000000000000000000000000N 00000000000NCONT   00    00000000000          00000000000000000000000000000000000000000000 000000000000000A000000000000000000000000000000000000000000000 000000000000000000000000000000000000000     00000000                                                                                                                        000000000000000000
F0010000007121000005000000431178400013552100000000000000000201505090002001EFRAIN ALVAREZ                                    D000000000006900000000000000000000100010010000000000000000000000F0010000007121000520150509000101 00000000000000000000000000000000000000000000000000000000000000000000000000000000000000000000000000000000000000000N 00000000000NCONT   00    00000000000          00000000000000000000000000000000000000000000 000000000000000A000000000000000000000000000000000000000000000 000000000000000000000000000000000000000     00000000                                                                                                                        000000000000000000
F0010000007121100001000000431178400011050500000000000000000201505090002001EFRAIN ALVAREZ                                    D000000002830000000000000000000000100010010000000000000000000000F0010000007121100120150509000101 00000000000000000000000000000000000000000000000000000000000000000000000000000000000000000000000000000000000000000N 00000000000NCONT   00    00000000000          00000000000000000000000000000000000000000000 000000000000000A000000000000000000000000000000000000000000000 000000000000000000000000000000000000000     00000000                                                                                                                        000000000000000000
F0010000007121100002000000431178400041450500000000000000000201505090002001EFRAIN ALVAREZ                                    C000000002580000000000000000000000100010010000000000000000000000F0010000007121100220150509000101 00000000000000000000000000000000000000000000000000000000000000000000000000000000000000000000000000000000000000000N 00000000000NCONT   00    00000000000          00000000000000000000000000000000000000000000 000000000000000A000000000000000000000000000000000000000000000 000000000000000000000000000000000000000     00000000                                                                                                                        000000000000000000
F0010000007121100003000000431178400042505000000000000000000201505090002001EFRAIN ALVAREZ                                    C000000000250000000000000000000000100010010000000000000000000000F0010000007121100320150509000101 00000000000000000000000000000000000000000000000000000000000000000000000000000000000000000000000000000000000000000N 00000000000NCONT   00    00000000000          00000000000000000000000000000000000000000000 000000000000000A000000000000000000000000000000000000000000000 000000000000000000000000000000000000000     00000000                                                                                                                        000000000000000000
F0010000007121100004000000431178400023658300000000000000000201505090002001EFRAIN ALVAREZ                                    C000000000020600000000000000000000100010010000000000000000000000F0010000007121100420150509000101 00000000000000000000000000000000000000000000000000000000000000000000000000000000000000000000000000000000000000000N 00000000000NCONT   00    00000000000          00000000000000000000000000000000000000000000 000000000000000A000000000000000000000000000000000000000000000 000000000000000000000000000000000000000     00000000                                                                                                                        000000000000000000
F0010000007121100005000000431178400013552100000000000000000201505090002001EFRAIN ALVAREZ                                    D000000000020600000000000000000000100010010000000000000000000000F0010000007121100520150509000101 00000000000000000000000000000000000000000000000000000000000000000000000000000000000000000000000000000000000000000N 00000000000NCONT   00    00000000000          00000000000000000000000000000000000000000000 000000000000000A000000000000000000000000000000000000000000000 000000000000000000000000000000000000000     00000000                                                                                                                        000000000000000000
F0010000007121200001000000431178400011050500000000000000000201505090002001EFRAIN ALVAREZ                                    D000000002530000000000000000000000100010010000000000000000000000F0010000007121200120150509000101 00000000000000000000000000000000000000000000000000000000000000000000000000000000000000000000000000000000000000000N 00000000000NCONT   00    00000000000          00000000000000000000000000000000000000000000 000000000000000A000000000000000000000000000000000000000000000 000000000000000000000000000000000000000     00000000                                                                                                                        000000000000000000
F0010000007121200002000000431178400041450500000000000000000201505090002001EFRAIN ALVAREZ                                    C000000002380000000000000000000000100010010000000000000000000000F0010000007121200220150509000101 00000000000000000000000000000000000000000000000000000000000000000000000000000000000000000000000000000000000000000N 00000000000NCONT   00    00000000000          00000000000000000000000000000000000000000000 000000000000000A000000000000000000000000000000000000000000000 000000000000000000000000000000000000000     00000000                                                                                                                        000000000000000000
F0010000007121200003000000431178400042505000000000000000000201505090002001EFRAIN ALVAREZ                                    C000000000150000000000000000000000100010010000000000000000000000F0010000007121200320150509000101 00000000000000000000000000000000000000000000000000000000000000000000000000000000000000000000000000000000000000000N 00000000000NCONT   00    00000000000          00000000000000000000000000000000000000000000 000000000000000A000000000000000000000000000000000000000000000 000000000000000000000000000000000000000     00000000                                                                                                                        000000000000000000
F0010000007121200004000000431178400023658300000000000000000201505090002001EFRAIN ALVAREZ                                    C000000000019000000000000000000000100010010000000000000000000000F0010000007121200420150509000101 00000000000000000000000000000000000000000000000000000000000000000000000000000000000000000000000000000000000000000N 00000000000NCONT   00    00000000000          00000000000000000000000000000000000000000000 000000000000000A000000000000000000000000000000000000000000000 000000000000000000000000000000000000000     00000000                                                                                                                        000000000000000000
F0010000007121200005000000431178400013552100000000000000000201505090002001EFRAIN ALVAREZ                                    D000000000019000000000000000000000100010010000000000000000000000F0010000007121200520150509000101 00000000000000000000000000000000000000000000000000000000000000000000000000000000000000000000000000000000000000000N 00000000000NCONT   00    00000000000          00000000000000000000000000000000000000000000 000000000000000A000000000000000000000000000000000000000000000 000000000000000000000000000000000000000     00000000                                                                                                                        000000000000000000
F0010000007121300001000090020547900011050500000000000000000201505090002001COMERCIALIZADORA DAC DEL CARIBE S.A.S.            D000000004756900000000000000000000100010010000000000000000000000F0010000007121300120150509000101 00000000000000000000000000000000000000000000000000000000000000000000000000000000000000000000000000000000000000000N 00000000000NCONT   00    00000000000          00000000000000000000000000000000000000000000 000000000000000A000000000000000000000000000000000000000000000 000000000000000000000000000000000000000     00000000                                                                                                                        000000000000000000
F0010000007121300002000090020547900041450500000000000000000201505090002001COMERCIALIZADORA DAC DEL CARIBE S.A.S.            C000000003600000000000000000000000100010010000000000000000000000F0010000007121300220150509000101 00000000000000000000000000000000000000000000000000000000000000000000000000000000000000000000000000000000000000000N 00000000000NCONT   00    00000000000          00000000000000000000000000000000000000000000 000000000000000A000000000000000000000000000000000000000000000 000000000000000000000000000000000000000     00000000                                                                                                                        000000000000000000
F0010000007121300003000090020547900042505000000000000000000201505090002001COMERCIALIZADORA DAC DEL CARIBE S.A.S.            C000000001156900000000000000000000100010010000000000000000000000F0010000007121300320150509000101 00000000000000000000000000000000000000000000000000000000000000000000000000000000000000000000000000000000000000000N 00000000000NCONT   00    00000000000          00000000000000000000000000000000000000000000 000000000000000A000000000000000000000000000000000000000000000 000000000000000000000000000000000000000     00000000                                                                                                                        000000000000000000
F0010000007121300004000090020547900023658300000000000000000201505090002001COMERCIALIZADORA DAC DEL CARIBE S.A.S.            C000000000028800000000000000000000100010010000000000000000000000F0010000007121300420150509000101 00000000000000000000000000000000000000000000000000000000000000000000000000000000000000000000000000000000000000000N 00000000000NCONT   00    00000000000          00000000000000000000000000000000000000000000 000000000000000A000000000000000000000000000000000000000000000 000000000000000000000000000000000000000     00000000                                                                                                                        000000000000000000
F0010000007121300005000090020547900013552100000000000000000201505090002001COMERCIALIZADORA DAC DEL CARIBE S.A.S.            D000000000028800000000000000000000100010010000000000000000000000F0010000007121300520150509000101 00000000000000000000000000000000000000000000000000000000000000000000000000000000000000000000000000000000000000000N 00000000000NCONT   00    00000000000          00000000000000000000000000000000000000000000 000000000000000A000000000000000000000000000000000000000000000 000000000000000000000000000000000000000     00000000                                                                                                                        000000000000000000
F0010000007121400001000090020547900011050500000000000000000201505090002001COMERCIALIZADORA DAC DEL CARIBE S.A.S.            D000000002129000000000000000000000100010010000000000000000000000F0010000007121400120150509000101 00000000000000000000000000000000000000000000000000000000000000000000000000000000000000000000000000000000000000000N 00000000000NCONT   00    00000000000          00000000000000000000000000000000000000000000 000000000000000A000000000000000000000000000000000000000000000 000000000000000000000000000000000000000     00000000                                                                                                                        000000000000000000
F0010000007121400002000090020547900041450500000000000000000201505090002001COMERCIALIZADORA DAC DEL CARIBE S.A.S.            C000000001800000000000000000000000100010010000000000000000000000F0010000007121400220150509000101 00000000000000000000000000000000000000000000000000000000000000000000000000000000000000000000000000000000000000000N 00000000000NCONT   00    00000000000          00000000000000000000000000000000000000000000 000000000000000A000000000000000000000000000000000000000000000 000000000000000000000000000000000000000     00000000                                                                                                                        000000000000000000
F0010000007121400003000090020547900042505000000000000000000201505090002001COMERCIALIZADORA DAC DEL CARIBE S.A.S.            C000000000329000000000000000000000100010010000000000000000000000F0010000007121400320150509000101 00000000000000000000000000000000000000000000000000000000000000000000000000000000000000000000000000000000000000000N 00000000000NCONT   00    00000000000          00000000000000000000000000000000000000000000 000000000000000A000000000000000000000000000000000000000000000 000000000000000000000000000000000000000     00000000                                                                                                                        000000000000000000
F0010000007121400004000090020547900023658300000000000000000201505090002001COMERCIALIZADORA DAC DEL CARIBE S.A.S.            C000000000014400000000000000000000100010010000000000000000000000F0010000007121400420150509000101 00000000000000000000000000000000000000000000000000000000000000000000000000000000000000000000000000000000000000000N 00000000000NCONT   00    00000000000          00000000000000000000000000000000000000000000 000000000000000A000000000000000000000000000000000000000000000 000000000000000000000000000000000000000     00000000                                                                                                                        000000000000000000
F0010000007121400005000090020547900013552100000000000000000201505090002001COMERCIALIZADORA DAC DEL CARIBE S.A.S.            D000000000014400000000000000000000100010010000000000000000000000F0010000007121400520150509000101 00000000000000000000000000000000000000000000000000000000000000000000000000000000000000000000000000000000000000000N 00000000000NCONT   00    00000000000          00000000000000000000000000000000000000000000 000000000000000A000000000000000000000000000000000000000000000 000000000000000000000000000000000000000     00000000                                                                                                                        000000000000000000
F0010000007121500001000090020547900011050500000000000000000201505090002001COMERCIALIZADORA DAC DEL CARIBE S.A.S.            D000000001630900000000000000000000100010010000000000000000000000F0010000007121500120150509000101 00000000000000000000000000000000000000000000000000000000000000000000000000000000000000000000000000000000000000000N 00000000000NCONT   00    00000000000          00000000000000000000000000000000000000000000 000000000000000A000000000000000000000000000000000000000000000 000000000000000000000000000000000000000     00000000                                                                                                                        000000000000000000
F0010000007121500002000090020547900041450500000000000000000201505090002001COMERCIALIZADORA DAC DEL CARIBE S.A.S.            C000000001200000000000000000000000100010010000000000000000000000F0010000007121500220150509000101 00000000000000000000000000000000000000000000000000000000000000000000000000000000000000000000000000000000000000000N 00000000000NCONT   00    00000000000          00000000000000000000000000000000000000000000 000000000000000A000000000000000000000000000000000000000000000 000000000000000000000000000000000000000     00000000                                                                                                                        000000000000000000
F0010000007121500003000090020547900042505000000000000000000201505090002001COMERCIALIZADORA DAC DEL CARIBE S.A.S.            C000000000430900000000000000000000100010010000000000000000000000F0010000007121500320150509000101 00000000000000000000000000000000000000000000000000000000000000000000000000000000000000000000000000000000000000000N 00000000000NCONT   00    00000000000          00000000000000000000000000000000000000000000 000000000000000A000000000000000000000000000000000000000000000 000000000000000000000000000000000000000     00000000                                                                                                                        000000000000000000
F0010000007121500004000090020547900023658300000000000000000201505090002001COMERCIALIZADORA DAC DEL CARIBE S.A.S.            C000000000009600000000000000000000100010010000000000000000000000F0010000007121500420150509000101 00000000000000000000000000000000000000000000000000000000000000000000000000000000000000000000000000000000000000000N 00000000000NCONT   00    00000000000          00000000000000000000000000000000000000000000 000000000000000A000000000000000000000000000000000000000000000 000000000000000000000000000000000000000     00000000                                                                                                                        000000000000000000
F0010000007121500005000090020547900013552100000000000000000201505090002001COMERCIALIZADORA DAC DEL CARIBE S.A.S.            D000000000009600000000000000000000100010010000000000000000000000F0010000007121500520150509000101 00000000000000000000000000000000000000000000000000000000000000000000000000000000000000000000000000000000000000000N 00000000000NCONT   00    00000000000          00000000000000000000000000000000000000000000 000000000000000A000000000000000000000000000000000000000000000 000000000000000000000000000000000000000     00000000                                                                                                                        000000000000000000
F0010000007121600001000090020547900011050500000000000000000201505090002001COMERCIALIZADORA DAC DEL CARIBE S.A.S.            D000000001555600000000000000000000100010010000000000000000000000F0010000007121600120150509000101 00000000000000000000000000000000000000000000000000000000000000000000000000000000000000000000000000000000000000000N 00000000000NCONT   00    00000000000          00000000000000000000000000000000000000000000 000000000000000A000000000000000000000000000000000000000000000 000000000000000000000000000000000000000     00000000                                                                                                                        000000000000000000
F0010000007121600002000090020547900041450500000000000000000201505090002001COMERCIALIZADORA DAC DEL CARIBE S.A.S.            C000000000900000000000000000000000100010010000000000000000000000F0010000007121600220150509000101 00000000000000000000000000000000000000000000000000000000000000000000000000000000000000000000000000000000000000000N 00000000000NCONT   00    00000000000          00000000000000000000000000000000000000000000 000000000000000A000000000000000000000000000000000000000000000 000000000000000000000000000000000000000     00000000                                                                                                                        000000000000000000
F0010000007121600003000090020547900042505000000000000000000201505090002001COMERCIALIZADORA DAC DEL CARIBE S.A.S.            C000000000655600000000000000000000100010010000000000000000000000F0010000007121600320150509000101 00000000000000000000000000000000000000000000000000000000000000000000000000000000000000000000000000000000000000000N 00000000000NCONT   00    00000000000          00000000000000000000000000000000000000000000 000000000000000A000000000000000000000000000000000000000000000 000000000000000000000000000000000000000     00000000                                                                                                                        000000000000000000
F0010000007121600004000090020547900023658300000000000000000201505090002001COMERCIALIZADORA DAC DEL CARIBE S.A.S.            C000000000007200000000000000000000100010010000000000000000000000F0010000007121600420150509000101 00000000000000000000000000000000000000000000000000000000000000000000000000000000000000000000000000000000000000000N 00000000000NCONT   00    00000000000          00000000000000000000000000000000000000000000 000000000000000A000000000000000000000000000000000000000000000 000000000000000000000000000000000000000     00000000                                                                                                                        000000000000000000
F0010000007121600005000090020547900013552100000000000000000201505090002001COMERCIALIZADORA DAC DEL CARIBE S.A.S.            D000000000007200000000000000000000100010010000000000000000000000F0010000007121600520150509000101 00000000000000000000000000000000000000000000000000000000000000000000000000000000000000000000000000000000000000000N 00000000000NCONT   00    00000000000          00000000000000000000000000000000000000000000 000000000000000A000000000000000000000000000000000000000000000 000000000000000000000000000000000000000     00000000                                                                                                                        000000000000000000
F0010000007121700001000090020547900011050500000000000000000201505090002001COMERCIALIZADORA DAC DEL CARIBE S.A.S.            D000000003345200000000000000000000100010010000000000000000000000F0010000007121700120150509000101 00000000000000000000000000000000000000000000000000000000000000000000000000000000000000000000000000000000000000000N 00000000000NCONT   00    00000000000          00000000000000000000000000000000000000000000 000000000000000A000000000000000000000000000000000000000000000 000000000000000000000000000000000000000     00000000                                                                                                                        000000000000000000
F0010000007121700002000090020547900041450500000000000000000201505090002001COMERCIALIZADORA DAC DEL CARIBE S.A.S.            C000000002400000000000000000000000100010010000000000000000000000F0010000007121700220150509000101 00000000000000000000000000000000000000000000000000000000000000000000000000000000000000000000000000000000000000000N 00000000000NCONT   00    00000000000          00000000000000000000000000000000000000000000 000000000000000A000000000000000000000000000000000000000000000 000000000000000000000000000000000000000     00000000                                                                                                                        000000000000000000
F0010000007121700003000090020547900042505000000000000000000201505090002001COMERCIALIZADORA DAC DEL CARIBE S.A.S.            C000000000945200000000000000000000100010010000000000000000000000F0010000007121700320150509000101 00000000000000000000000000000000000000000000000000000000000000000000000000000000000000000000000000000000000000000N 00000000000NCONT   00    00000000000          00000000000000000000000000000000000000000000 000000000000000A000000000000000000000000000000000000000000000 000000000000000000000000000000000000000     00000000                                                                                                                        000000000000000000
F0010000007121700004000090020547900023658300000000000000000201505090002001COMERCIALIZADORA DAC DEL CARIBE S.A.S.            C000000000019200000000000000000000100010010000000000000000000000F0010000007121700420150509000101 00000000000000000000000000000000000000000000000000000000000000000000000000000000000000000000000000000000000000000N 00000000000NCONT   00    00000000000          00000000000000000000000000000000000000000000 000000000000000A000000000000000000000000000000000000000000000 000000000000000000000000000000000000000     00000000                                                                                                                        000000000000000000
F0010000007121700005000090020547900013552100000000000000000201505090002001COMERCIALIZADORA DAC DEL CARIBE S.A.S.            D000000000019200000000000000000000100010010000000000000000000000F0010000007121700520150509000101 00000000000000000000000000000000000000000000000000000000000000000000000000000000000000000000000000000000000000000N 00000000000NCONT   00    00000000000          00000000000000000000000000000000000000000000 000000000000000A000000000000000000000000000000000000000000000 000000000000000000000000000000000000000     00000000                                                                                                                        000000000000000000
F0010000007121800001000090020547900011050500000000000000000201505090002001COMERCIALIZADORA DAC DEL CARIBE S.A.S.            D000000002754500000000000000000000100010010000000000000000000000F0010000007121800120150509000101 00000000000000000000000000000000000000000000000000000000000000000000000000000000000000000000000000000000000000000N 00000000000NCONT   00    00000000000          00000000000000000000000000000000000000000000 000000000000000A000000000000000000000000000000000000000000000 000000000000000000000000000000000000000     00000000                                                                                                                        000000000000000000
F0010000007121800002000090020547900041450500000000000000000201505090002001COMERCIALIZADORA DAC DEL CARIBE S.A.S.            C000000001800000000000000000000000100010010000000000000000000000F0010000007121800220150509000101 00000000000000000000000000000000000000000000000000000000000000000000000000000000000000000000000000000000000000000N 00000000000NCONT   00    00000000000          00000000000000000000000000000000000000000000 000000000000000A000000000000000000000000000000000000000000000 000000000000000000000000000000000000000     00000000                                                                                                                        000000000000000000
F0010000007121800003000090020547900042505000000000000000000201505090002001COMERCIALIZADORA DAC DEL CARIBE S.A.S.            C000000000954500000000000000000000100010010000000000000000000000F0010000007121800320150509000101 00000000000000000000000000000000000000000000000000000000000000000000000000000000000000000000000000000000000000000N 00000000000NCONT   00    00000000000          00000000000000000000000000000000000000000000 000000000000000A000000000000000000000000000000000000000000000 000000000000000000000000000000000000000     00000000                                                                                                                        000000000000000000
F0010000007121800004000090020547900023658300000000000000000201505090002001COMERCIALIZADORA DAC DEL CARIBE S.A.S.            C000000000014400000000000000000000100010010000000000000000000000F0010000007121800420150509000101 00000000000000000000000000000000000000000000000000000000000000000000000000000000000000000000000000000000000000000N 00000000000NCONT   00    00000000000          00000000000000000000000000000000000000000000 000000000000000A000000000000000000000000000000000000000000000 000000000000000000000000000000000000000     00000000                                                                                                                        000000000000000000
F0010000007121800005000090020547900013552100000000000000000201505090002001COMERCIALIZADORA DAC DEL CARIBE S.A.S.            D000000000014400000000000000000000100010010000000000000000000000F0010000007121800520150509000101 00000000000000000000000000000000000000000000000000000000000000000000000000000000000000000000000000000000000000000N 00000000000NCONT   00    00000000000          00000000000000000000000000000000000000000000 000000000000000A000000000000000000000000000000000000000000000 000000000000000000000000000000000000000     00000000                                                                                                                        000000000000000000
F0010000007121900001000090020547900011050500000000000000000201505090002001COMERCIALIZADORA DAC DEL CARIBE S.A.S.            D000000007406600000000000000000000100010010000000000000000000000F0010000007121900120150509000101 00000000000000000000000000000000000000000000000000000000000000000000000000000000000000000000000000000000000000000N 00000000000NCONT   00    00000000000          00000000000000000000000000000000000000000000 000000000000000A000000000000000000000000000000000000000000000 000000000000000000000000000000000000000     00000000                                                                                                                        000000000000000000
F0010000007121900002000090020547900041450500000000000000000201505090002001COMERCIALIZADORA DAC DEL CARIBE S.A.S.            C000000006600000000000000000000000100010010000000000000000000000F0010000007121900220150509000101 00000000000000000000000000000000000000000000000000000000000000000000000000000000000000000000000000000000000000000N 00000000000NCONT   00    00000000000          00000000000000000000000000000000000000000000 000000000000000A000000000000000000000000000000000000000000000 000000000000000000000000000000000000000     00000000                                                                                                                        000000000000000000
F0010000007121900003000090020547900042505000000000000000000201505090002001COMERCIALIZADORA DAC DEL CARIBE S.A.S.            C000000000806600000000000000000000100010010000000000000000000000F0010000007121900320150509000101 00000000000000000000000000000000000000000000000000000000000000000000000000000000000000000000000000000000000000000N 00000000000NCONT   00    00000000000          00000000000000000000000000000000000000000000 000000000000000A000000000000000000000000000000000000000000000 000000000000000000000000000000000000000     00000000                                                                                                                        000000000000000000
F0010000007121900004000090020547900023658300000000000000000201505090002001COMERCIALIZADORA DAC DEL CARIBE S.A.S.            C000000000052800000000000000000000100010010000000000000000000000F0010000007121900420150509000101 00000000000000000000000000000000000000000000000000000000000000000000000000000000000000000000000000000000000000000N 00000000000NCONT   00    00000000000          00000000000000000000000000000000000000000000 000000000000000A000000000000000000000000000000000000000000000 000000000000000000000000000000000000000     00000000                                                                                                                        000000000000000000
F0010000007121900005000090020547900013552100000000000000000201505090002001COMERCIALIZADORA DAC DEL CARIBE S.A.S.            D000000000052800000000000000000000100010010000000000000000000000F0010000007121900520150509000101 00000000000000000000000000000000000000000000000000000000000000000000000000000000000000000000000000000000000000000N 00000000000NCONT   00    00000000000          00000000000000000000000000000000000000000000 000000000000000A000000000000000000000000000000000000000000000 000000000000000000000000000000000000000     00000000                                                                                                                        000000000000000000
F0010000007122000001000090020547900011050500000000000000000201505090002001COMERCIALIZADORA DAC DEL CARIBE S.A.S.            D000000004478400000000000000000000100010010000000000000000000000F0010000007122000120150509000101 00000000000000000000000000000000000000000000000000000000000000000000000000000000000000000000000000000000000000000N 00000000000NCONT   00    00000000000          00000000000000000000000000000000000000000000 000000000000000A000000000000000000000000000000000000000000000 000000000000000000000000000000000000000     00000000                                                                                                                        000000000000000000
F0010000007122000002000090020547900041450500000000000000000201505090002001COMERCIALIZADORA DAC DEL CARIBE S.A.S.            C000000003600000000000000000000000100010010000000000000000000000F0010000007122000220150509000101 00000000000000000000000000000000000000000000000000000000000000000000000000000000000000000000000000000000000000000N 00000000000NCONT   00    00000000000          00000000000000000000000000000000000000000000 000000000000000A000000000000000000000000000000000000000000000 000000000000000000000000000000000000000     00000000                                                                                                                        000000000000000000
F0010000007122000003000090020547900042505000000000000000000201505090002001COMERCIALIZADORA DAC DEL CARIBE S.A.S.            C000000000878400000000000000000000100010010000000000000000000000F0010000007122000320150509000101 00000000000000000000000000000000000000000000000000000000000000000000000000000000000000000000000000000000000000000N 00000000000NCONT   00    00000000000          00000000000000000000000000000000000000000000 000000000000000A000000000000000000000000000000000000000000000 000000000000000000000000000000000000000     00000000                                                                                                                        000000000000000000
F0010000007122000004000090020547900023658300000000000000000201505090002001COMERCIALIZADORA DAC DEL CARIBE S.A.S.            C000000000028800000000000000000000100010010000000000000000000000F0010000007122000420150509000101 00000000000000000000000000000000000000000000000000000000000000000000000000000000000000000000000000000000000000000N 00000000000NCONT   00    00000000000          00000000000000000000000000000000000000000000 000000000000000A000000000000000000000000000000000000000000000 000000000000000000000000000000000000000     00000000                                                                                                                        000000000000000000
F0010000007122000005000090020547900013552100000000000000000201505090002001COMERCIALIZADORA DAC DEL CARIBE S.A.S.            D000000000028800000000000000000000100010010000000000000000000000F0010000007122000520150509000101 00000000000000000000000000000000000000000000000000000000000000000000000000000000000000000000000000000000000000000N 00000000000NCONT   00    00000000000          00000000000000000000000000000000000000000000 000000000000000A000000000000000000000000000000000000000000000 000000000000000000000000000000000000000     00000000                                                                                                                        000000000000000000
F0010000007122100001000090020547900011050500000000000000000201505090002001COMERCIALIZADORA DAC DEL CARIBE S.A.S.            D000000002626600000000000000000000100010010000000000000000000000F0010000007122100120150509000101 00000000000000000000000000000000000000000000000000000000000000000000000000000000000000000000000000000000000000000N 00000000000NCONT   00    00000000000          00000000000000000000000000000000000000000000 000000000000000A000000000000000000000000000000000000000000000 000000000000000000000000000000000000000     00000000                                                                                                                        000000000000000000
F0010000007122100002000090020547900041450500000000000000000201505090002001COMERCIALIZADORA DAC DEL CARIBE S.A.S.            C000000001800000000000000000000000100010010000000000000000000000F0010000007122100220150509000101 00000000000000000000000000000000000000000000000000000000000000000000000000000000000000000000000000000000000000000N 00000000000NCONT   00    00000000000          00000000000000000000000000000000000000000000 000000000000000A000000000000000000000000000000000000000000000 000000000000000000000000000000000000000     00000000                                                                                                                        000000000000000000
F0010000007122100003000090020547900042505000000000000000000201505090002001COMERCIALIZADORA DAC DEL CARIBE S.A.S.            C000000000826600000000000000000000100010010000000000000000000000F0010000007122100320150509000101 00000000000000000000000000000000000000000000000000000000000000000000000000000000000000000000000000000000000000000N 00000000000NCONT   00    00000000000          00000000000000000000000000000000000000000000 000000000000000A000000000000000000000000000000000000000000000 000000000000000000000000000000000000000     00000000                                                                                                                        000000000000000000
F0010000007122100004000090020547900023658300000000000000000201505090002001COMERCIALIZADORA DAC DEL CARIBE S.A.S.            C000000000014400000000000000000000100010010000000000000000000000F0010000007122100420150509000101 00000000000000000000000000000000000000000000000000000000000000000000000000000000000000000000000000000000000000000N 00000000000NCONT   00    00000000000          00000000000000000000000000000000000000000000 000000000000000A000000000000000000000000000000000000000000000 000000000000000000000000000000000000000     00000000                                                                                                                        000000000000000000
F0010000007122100005000090020547900013552100000000000000000201505090002001COMERCIALIZADORA DAC DEL CARIBE S.A.S.            D000000000014400000000000000000000100010010000000000000000000000F0010000007122100520150509000101 00000000000000000000000000000000000000000000000000000000000000000000000000000000000000000000000000000000000000000N 00000000000NCONT   00    00000000000          00000000000000000000000000000000000000000000 000000000000000A000000000000000000000000000000000000000000000 000000000000000000000000000000000000000     00000000                                                                                                                        000000000000000000
F0010000007122200001000090020547900011050500000000000000000201505090002001COMERCIALIZADORA DAC DEL CARIBE S.A.S.            D000000001472600000000000000000000100010010000000000000000000000F0010000007122200120150509000101 00000000000000000000000000000000000000000000000000000000000000000000000000000000000000000000000000000000000000000N 00000000000NCONT   00    00000000000          00000000000000000000000000000000000000000000 000000000000000A000000000000000000000000000000000000000000000 000000000000000000000000000000000000000     00000000                                                                                                                        000000000000000000
F0010000007122200002000090020547900041450500000000000000000201505090002001COMERCIALIZADORA DAC DEL CARIBE S.A.S.            C000000001200000000000000000000000100010010000000000000000000000F0010000007122200220150509000101 00000000000000000000000000000000000000000000000000000000000000000000000000000000000000000000000000000000000000000N 00000000000NCONT   00    00000000000          00000000000000000000000000000000000000000000 000000000000000A000000000000000000000000000000000000000000000 000000000000000000000000000000000000000     00000000                                                                                                                        000000000000000000
F0010000007122200003000090020547900042505000000000000000000201505090002001COMERCIALIZADORA DAC DEL CARIBE S.A.S.            C000000000272600000000000000000000100010010000000000000000000000F0010000007122200320150509000101 00000000000000000000000000000000000000000000000000000000000000000000000000000000000000000000000000000000000000000N 00000000000NCONT   00    00000000000          00000000000000000000000000000000000000000000 000000000000000A000000000000000000000000000000000000000000000 000000000000000000000000000000000000000     00000000                                                                                                                        000000000000000000
F0010000007122200004000090020547900023658300000000000000000201505090002001COMERCIALIZADORA DAC DEL CARIBE S.A.S.            C000000000009600000000000000000000100010010000000000000000000000F0010000007122200420150509000101 00000000000000000000000000000000000000000000000000000000000000000000000000000000000000000000000000000000000000000N 00000000000NCONT   00    00000000000          00000000000000000000000000000000000000000000 000000000000000A000000000000000000000000000000000000000000000 000000000000000000000000000000000000000     00000000                                                                                                                        000000000000000000
F0010000007122200005000090020547900013552100000000000000000201505090002001COMERCIALIZADORA DAC DEL CARIBE S.A.S.            D000000000009600000000000000000000100010010000000000000000000000F0010000007122200520150509000101 00000000000000000000000000000000000000000000000000000000000000000000000000000000000000000000000000000000000000000N 00000000000NCONT   00    00000000000          00000000000000000000000000000000000000000000 000000000000000A000000000000000000000000000000000000000000000 000000000000000000000000000000000000000     00000000                                                                                                                        000000000000000000
F0010000007122300001000090020547900011050500000000000000000201505090002001COMERCIALIZADORA DAC DEL CARIBE S.A.S.            D000000002322800000000000000000000100010010000000000000000000000F0010000007122300120150509000101 00000000000000000000000000000000000000000000000000000000000000000000000000000000000000000000000000000000000000000N 00000000000NCONT   00    00000000000          00000000000000000000000000000000000000000000 000000000000000A000000000000000000000000000000000000000000000 000000000000000000000000000000000000000     00000000                                                                                                                        000000000000000000
F0010000007122300002000090020547900041450500000000000000000201505090002001COMERCIALIZADORA DAC DEL CARIBE S.A.S.            C000000001800000000000000000000000100010010000000000000000000000F0010000007122300220150509000101 00000000000000000000000000000000000000000000000000000000000000000000000000000000000000000000000000000000000000000N 00000000000NCONT   00    00000000000          00000000000000000000000000000000000000000000 000000000000000A000000000000000000000000000000000000000000000 000000000000000000000000000000000000000     00000000                                                                                                                        000000000000000000
