F0010000005900100001000090020547900011050500000000000000000201406090002001DAC DEL CARIBE S.A.S.                             D000000004000000000000000000000000100010010000000000000000000000F0010000005900100120140609000101 00000000000000000000000000000000000000000000000000000000000000000000000000000000000000000000000000000000000000000N 00000000000NCONT   00    00000000000          00000000000000000000000000000000000000000000 000000000000000A000000000000000000000000000000000000000000000 000000000000000000000000000000000000000     00000000                                                                                                                        000000000000000000
F0010000005900100002000090020547900041450500000000000000000201406090002001DAC DEL CARIBE S.A.S.                             C000000002700000000000000000000000100010010000000000000000000000F0010000005900100220140609000101 00000000000000000000000000000000000000000000000000000000000000000000000000000000000000000000000000000000000000000N 00000000000NCONT   00    00000000000          00000000000000000000000000000000000000000000 000000000000000A000000000000000000000000000000000000000000000 000000000000000000000000000000000000000     00000000                                                                                                                        000000000000000000
F0010000005900100003000090020547900042505000000000000000000201406090002001DAC DEL CARIBE S.A.S.                             C000000001300000000000000000000000100010010000000000000000000000F0010000005900100320140609000101 00000000000000000000000000000000000000000000000000000000000000000000000000000000000000000000000000000000000000000N 00000000000NCONT   00    00000000000          00000000000000000000000000000000000000000000 000000000000000A000000000000000000000000000000000000000000000 000000000000000000000000000000000000000     00000000                                                                                                                        000000000000000000
F0010000005900100004000090020547900023658300000000000000000201406090002001DAC DEL CARIBE S.A.S.                             C000000000021600000000000000000000100010010000000000000000000000F0010000005900100420140609000101 00000000000000000000000000000000000000000000000000000000000000000000000000000000000000000000000000000000000000000N 00000000000NCONT   00    00000000000          00000000000000000000000000000000000000000000 000000000000000A000000000000000000000000000000000000000000000 000000000000000000000000000000000000000     00000000                                                                                                                        000000000000000000
F0010000005900100005000090020547900013552100000000000000000201406090002001DAC DEL CARIBE S.A.S.                             D000000000021600000000000000000000100010010000000000000000000000F0010000005900100520140609000101 00000000000000000000000000000000000000000000000000000000000000000000000000000000000000000000000000000000000000000N 00000000000NCONT   00    00000000000          00000000000000000000000000000000000000000000 000000000000000A000000000000000000000000000000000000000000000 000000000000000000000000000000000000000     00000000                                                                                                                        000000000000000000
F0010000005900200001000090020547900011050500000000000000000201406090002001DAC DEL CARIBE S.A.S.                             D000000003250000000000000000000000100010010000000000000000000000F0010000005900200120140609000101 00000000000000000000000000000000000000000000000000000000000000000000000000000000000000000000000000000000000000000N 00000000000NCONT   00    00000000000          00000000000000000000000000000000000000000000 000000000000000A000000000000000000000000000000000000000000000 000000000000000000000000000000000000000     00000000                                                                                                                        000000000000000000
F0010000005900200002000090020547900041450500000000000000000201406090002001DAC DEL CARIBE S.A.S.                             C000000002400000000000000000000000100010010000000000000000000000F0010000005900200220140609000101 00000000000000000000000000000000000000000000000000000000000000000000000000000000000000000000000000000000000000000N 00000000000NCONT   00    00000000000          00000000000000000000000000000000000000000000 000000000000000A000000000000000000000000000000000000000000000 000000000000000000000000000000000000000     00000000                                                                                                                        000000000000000000
F0010000005900200003000090020547900042505000000000000000000201406090002001DAC DEL CARIBE S.A.S.                             C000000000850000000000000000000000100010010000000000000000000000F0010000005900200320140609000101 00000000000000000000000000000000000000000000000000000000000000000000000000000000000000000000000000000000000000000N 00000000000NCONT   00    00000000000          00000000000000000000000000000000000000000000 000000000000000A000000000000000000000000000000000000000000000 000000000000000000000000000000000000000     00000000                                                                                                                        000000000000000000
F0010000005900200004000090020547900023658300000000000000000201406090002001DAC DEL CARIBE S.A.S.                             C000000000019200000000000000000000100010010000000000000000000000F0010000005900200420140609000101 00000000000000000000000000000000000000000000000000000000000000000000000000000000000000000000000000000000000000000N 00000000000NCONT   00    00000000000          00000000000000000000000000000000000000000000 000000000000000A000000000000000000000000000000000000000000000 000000000000000000000000000000000000000     00000000                                                                                                                        000000000000000000
F0010000005900200005000090020547900013552100000000000000000201406090002001DAC DEL CARIBE S.A.S.                             D000000000019200000000000000000000100010010000000000000000000000F0010000005900200520140609000101 00000000000000000000000000000000000000000000000000000000000000000000000000000000000000000000000000000000000000000N 00000000000NCONT   00    00000000000          00000000000000000000000000000000000000000000 000000000000000A000000000000000000000000000000000000000000000 000000000000000000000000000000000000000     00000000                                                                                                                        000000000000000000
F0010000005900300001000000000000000011050500000000000000000201406090002001PAPELERIA FUNDACION                               D000000003500000000000000000000000100010010000000000000000000000F0010000005900300120140609000101 00000000000000000000000000000000000000000000000000000000000000000000000000000000000000000000000000000000000000000N 00000000000NCONT   00    00000000000          00000000000000000000000000000000000000000000 000000000000000A000000000000000000000000000000000000000000000 000000000000000000000000000000000000000     00000000                                                                                                                        000000000000000000
F0010000005900300002000000000000000041450500000000000000000201406090002001PAPELERIA FUNDACION                               C000000002400000000000000000000000100010010000000000000000000000F0010000005900300220140609000101 00000000000000000000000000000000000000000000000000000000000000000000000000000000000000000000000000000000000000000N 00000000000NCONT   00    00000000000          00000000000000000000000000000000000000000000 000000000000000A000000000000000000000000000000000000000000000 000000000000000000000000000000000000000     00000000                                                                                                                        000000000000000000
F0010000005900300003000000000000000042505000000000000000000201406090002001PAPELERIA FUNDACION                               C000000001100000000000000000000000100010010000000000000000000000F0010000005900300320140609000101 00000000000000000000000000000000000000000000000000000000000000000000000000000000000000000000000000000000000000000N 00000000000NCONT   00    00000000000          00000000000000000000000000000000000000000000 000000000000000A000000000000000000000000000000000000000000000 000000000000000000000000000000000000000     00000000                                                                                                                        000000000000000000
F0010000005900300004000000000000000023658300000000000000000201406090002001PAPELERIA FUNDACION                               C000000000019200000000000000000000100010010000000000000000000000F0010000005900300420140609000101 00000000000000000000000000000000000000000000000000000000000000000000000000000000000000000000000000000000000000000N 00000000000NCONT   00    00000000000          00000000000000000000000000000000000000000000 000000000000000A000000000000000000000000000000000000000000000 000000000000000000000000000000000000000     00000000                                                                                                                        000000000000000000
F0010000005900300005000000000000000013552100000000000000000201406090002001PAPELERIA FUNDACION                               D000000000019200000000000000000000100010010000000000000000000000F0010000005900300520140609000101 00000000000000000000000000000000000000000000000000000000000000000000000000000000000000000000000000000000000000000N 00000000000NCONT   00    00000000000          00000000000000000000000000000000000000000000 000000000000000A000000000000000000000000000000000000000000000 000000000000000000000000000000000000000     00000000                                                                                                                        000000000000000000
F0010000005900400001000090020547900011050500000000000000000201406090002001DAC DEL CARIBE S.A.S.                             D000000002500000000000000000000000100010010000000000000000000000F0010000005900400120140609000101 00000000000000000000000000000000000000000000000000000000000000000000000000000000000000000000000000000000000000000N 00000000000NCONT   00    00000000000          00000000000000000000000000000000000000000000 000000000000000A000000000000000000000000000000000000000000000 000000000000000000000000000000000000000     00000000                                                                                                                        000000000000000000
F0010000005900400002000090020547900041450500000000000000000201406090002001DAC DEL CARIBE S.A.S.                             C000000001800000000000000000000000100010010000000000000000000000F0010000005900400220140609000101 00000000000000000000000000000000000000000000000000000000000000000000000000000000000000000000000000000000000000000N 00000000000NCONT   00    00000000000          00000000000000000000000000000000000000000000 000000000000000A000000000000000000000000000000000000000000000 000000000000000000000000000000000000000     00000000                                                                                                                        000000000000000000
F0010000005900400003000090020547900042505000000000000000000201406090002001DAC DEL CARIBE S.A.S.                             C000000000700000000000000000000000100010010000000000000000000000F0010000005900400320140609000101 00000000000000000000000000000000000000000000000000000000000000000000000000000000000000000000000000000000000000000N 00000000000NCONT   00    00000000000          00000000000000000000000000000000000000000000 000000000000000A000000000000000000000000000000000000000000000 000000000000000000000000000000000000000     00000000                                                                                                                        000000000000000000
F0010000005900400004000090020547900023658300000000000000000201406090002001DAC DEL CARIBE S.A.S.                             C000000000014400000000000000000000100010010000000000000000000000F0010000005900400420140609000101 00000000000000000000000000000000000000000000000000000000000000000000000000000000000000000000000000000000000000000N 00000000000NCONT   00    00000000000          00000000000000000000000000000000000000000000 000000000000000A000000000000000000000000000000000000000000000 000000000000000000000000000000000000000     00000000                                                                                                                        000000000000000000
F0010000005900400005000090020547900013552100000000000000000201406090002001DAC DEL CARIBE S.A.S.                             D000000000014400000000000000000000100010010000000000000000000000F0010000005900400520140609000101 00000000000000000000000000000000000000000000000000000000000000000000000000000000000000000000000000000000000000000N 00000000000NCONT   00    00000000000          00000000000000000000000000000000000000000000 000000000000000A000000000000000000000000000000000000000000000 000000000000000000000000000000000000000     00000000                                                                                                                        000000000000000000
F0010000005900500001000090020547900011050500000000000000000201406090002001DAC DEL CARIBE S.A.S.                             D000000001600000000000000000000000100010010000000000000000000000F0010000005900500120140609000101 00000000000000000000000000000000000000000000000000000000000000000000000000000000000000000000000000000000000000000N 00000000000NCONT   00    00000000000          00000000000000000000000000000000000000000000 000000000000000A000000000000000000000000000000000000000000000 000000000000000000000000000000000000000     00000000                                                                                                                        000000000000000000
F0010000005900500002000090020547900041450500000000000000000201406090002001DAC DEL CARIBE S.A.S.                             C000000001200000000000000000000000100010010000000000000000000000F0010000005900500220140609000101 00000000000000000000000000000000000000000000000000000000000000000000000000000000000000000000000000000000000000000N 00000000000NCONT   00    00000000000          00000000000000000000000000000000000000000000 000000000000000A000000000000000000000000000000000000000000000 000000000000000000000000000000000000000     00000000                                                                                                                        000000000000000000
F0010000005900500003000090020547900042505000000000000000000201406090002001DAC DEL CARIBE S.A.S.                             C000000000400000000000000000000000100010010000000000000000000000F0010000005900500320140609000101 00000000000000000000000000000000000000000000000000000000000000000000000000000000000000000000000000000000000000000N 00000000000NCONT   00    00000000000          00000000000000000000000000000000000000000000 000000000000000A000000000000000000000000000000000000000000000 000000000000000000000000000000000000000     00000000                                                                                                                        000000000000000000
F0010000005900500004000090020547900023658300000000000000000201406090002001DAC DEL CARIBE S.A.S.                             C000000000009600000000000000000000100010010000000000000000000000F0010000005900500420140609000101 00000000000000000000000000000000000000000000000000000000000000000000000000000000000000000000000000000000000000000N 00000000000NCONT   00    00000000000          00000000000000000000000000000000000000000000 000000000000000A000000000000000000000000000000000000000000000 000000000000000000000000000000000000000     00000000                                                                                                                        000000000000000000
F0010000005900500005000090020547900013552100000000000000000201406090002001DAC DEL CARIBE S.A.S.                             D000000000009600000000000000000000100010010000000000000000000000F0010000005900500520140609000101 00000000000000000000000000000000000000000000000000000000000000000000000000000000000000000000000000000000000000000N 00000000000NCONT   00    00000000000          00000000000000000000000000000000000000000000 000000000000000A000000000000000000000000000000000000000000000 000000000000000000000000000000000000000     00000000                                                                                                                        000000000000000000
F0010000005900600001000090020547900011050500000000000000000201406090002001DAC DEL CARIBE S.A.S.                             D000000004960000000000000000000000100010010000000000000000000000F0010000005900600120140609000101 00000000000000000000000000000000000000000000000000000000000000000000000000000000000000000000000000000000000000000N 00000000000NCONT   00    00000000000          00000000000000000000000000000000000000000000 000000000000000A000000000000000000000000000000000000000000000 000000000000000000000000000000000000000     00000000                                                                                                                        000000000000000000
F0010000005900600002000090020547900041450500000000000000000201406090002001DAC DEL CARIBE S.A.S.                             C000000003600000000000000000000000100010010000000000000000000000F0010000005900600220140609000101 00000000000000000000000000000000000000000000000000000000000000000000000000000000000000000000000000000000000000000N 00000000000NCONT   00    00000000000          00000000000000000000000000000000000000000000 000000000000000A000000000000000000000000000000000000000000000 000000000000000000000000000000000000000     00000000                                                                                                                        000000000000000000
F0010000005900600003000090020547900042505000000000000000000201406090002001DAC DEL CARIBE S.A.S.                             C000000001360000000000000000000000100010010000000000000000000000F0010000005900600320140609000101 00000000000000000000000000000000000000000000000000000000000000000000000000000000000000000000000000000000000000000N 00000000000NCONT   00    00000000000          00000000000000000000000000000000000000000000 000000000000000A000000000000000000000000000000000000000000000 000000000000000000000000000000000000000     00000000                                                                                                                        000000000000000000
F0010000005900600004000090020547900023658300000000000000000201406090002001DAC DEL CARIBE S.A.S.                             C000000000028800000000000000000000100010010000000000000000000000F0010000005900600420140609000101 00000000000000000000000000000000000000000000000000000000000000000000000000000000000000000000000000000000000000000N 00000000000NCONT   00    00000000000          00000000000000000000000000000000000000000000 000000000000000A000000000000000000000000000000000000000000000 000000000000000000000000000000000000000     00000000                                                                                                                        000000000000000000
F0010000005900600005000090020547900013552100000000000000000201406090002001DAC DEL CARIBE S.A.S.                             D000000000028800000000000000000000100010010000000000000000000000F0010000005900600520140609000101 00000000000000000000000000000000000000000000000000000000000000000000000000000000000000000000000000000000000000000N 00000000000NCONT   00    00000000000          00000000000000000000000000000000000000000000 000000000000000A000000000000000000000000000000000000000000000 000000000000000000000000000000000000000     00000000                                                                                                                        000000000000000000
F0010000005900700001000090020547900011050500000000000000000201406090002001DAC DEL CARIBE S.A.S.                             D000000001430000000000000000000000100010010000000000000000000000F0010000005900700120140609000101 00000000000000000000000000000000000000000000000000000000000000000000000000000000000000000000000000000000000000000N 00000000000NCONT   00    00000000000          00000000000000000000000000000000000000000000 000000000000000A000000000000000000000000000000000000000000000 000000000000000000000000000000000000000     00000000                                                                                                                        000000000000000000
F0010000005900700002000090020547900041450500000000000000000201406090002001DAC DEL CARIBE S.A.S.                             C000000001200000000000000000000000100010010000000000000000000000F0010000005900700220140609000101 00000000000000000000000000000000000000000000000000000000000000000000000000000000000000000000000000000000000000000N 00000000000NCONT   00    00000000000          00000000000000000000000000000000000000000000 000000000000000A000000000000000000000000000000000000000000000 000000000000000000000000000000000000000     00000000                                                                                                                        000000000000000000
F0010000005900700003000090020547900042505000000000000000000201406090002001DAC DEL CARIBE S.A.S.                             C000000000230000000000000000000000100010010000000000000000000000F0010000005900700320140609000101 00000000000000000000000000000000000000000000000000000000000000000000000000000000000000000000000000000000000000000N 00000000000NCONT   00    00000000000          00000000000000000000000000000000000000000000 000000000000000A000000000000000000000000000000000000000000000 000000000000000000000000000000000000000     00000000                                                                                                                        000000000000000000
F0010000005900700004000090020547900023658300000000000000000201406090002001DAC DEL CARIBE S.A.S.                             C000000000009600000000000000000000100010010000000000000000000000F0010000005900700420140609000101 00000000000000000000000000000000000000000000000000000000000000000000000000000000000000000000000000000000000000000N 00000000000NCONT   00    00000000000          00000000000000000000000000000000000000000000 000000000000000A000000000000000000000000000000000000000000000 000000000000000000000000000000000000000     00000000                                                                                                                        000000000000000000
F0010000005900700005000090020547900013552100000000000000000201406090002001DAC DEL CARIBE S.A.S.                             D000000000009600000000000000000000100010010000000000000000000000F0010000005900700520140609000101 00000000000000000000000000000000000000000000000000000000000000000000000000000000000000000000000000000000000000000N 00000000000NCONT   00    00000000000          00000000000000000000000000000000000000000000 000000000000000A000000000000000000000000000000000000000000000 000000000000000000000000000000000000000     00000000                                                                                                                        000000000000000000
F0010000005900800001000090055180500011050500000000000000000201406090002001LAMINAS Y SUELAS DE COLOMBIA S.A.S                D000000002200000000000000000000000100010010000000000000000000000F0010000005900800120140609000101 00000000000000000000000000000000000000000000000000000000000000000000000000000000000000000000000000000000000000000N 00000000000NCONT   00    00000000000          00000000000000000000000000000000000000000000 000000000000000A000000000000000000000000000000000000000000000 000000000000000000000000000000000000000     00000000                                                                                                                        000000000000000000
F0010000005900800002000090055180500041450500000000000000000201406090002001LAMINAS Y SUELAS DE COLOMBIA S.A.S                C000000002000000000000000000000000100010010000000000000000000000F0010000005900800220140609000101 00000000000000000000000000000000000000000000000000000000000000000000000000000000000000000000000000000000000000000N 00000000000NCONT   00    00000000000          00000000000000000000000000000000000000000000 000000000000000A000000000000000000000000000000000000000000000 000000000000000000000000000000000000000     00000000                                                                                                                        000000000000000000
F0010000005900800003000090055180500042505000000000000000000201406090002001LAMINAS Y SUELAS DE COLOMBIA S.A.S                C000000000200000000000000000000000100010010000000000000000000000F0010000005900800320140609000101 00000000000000000000000000000000000000000000000000000000000000000000000000000000000000000000000000000000000000000N 00000000000NCONT   00    00000000000          00000000000000000000000000000000000000000000 000000000000000A000000000000000000000000000000000000000000000 000000000000000000000000000000000000000     00000000                                                                                                                        000000000000000000
F0010000005900800004000090055180500023658300000000000000000201406090002001LAMINAS Y SUELAS DE COLOMBIA S.A.S                C000000000016000000000000000000000100010010000000000000000000000F0010000005900800420140609000101 00000000000000000000000000000000000000000000000000000000000000000000000000000000000000000000000000000000000000000N 00000000000NCONT   00    00000000000          00000000000000000000000000000000000000000000 000000000000000A000000000000000000000000000000000000000000000 000000000000000000000000000000000000000     00000000                                                                                                                        000000000000000000
F0010000005900800005000090055180500013552100000000000000000201406090002001LAMINAS Y SUELAS DE COLOMBIA S.A.S                D000000000016000000000000000000000100010010000000000000000000000F0010000005900800520140609000101 00000000000000000000000000000000000000000000000000000000000000000000000000000000000000000000000000000000000000000N 00000000000NCONT   00    00000000000          00000000000000000000000000000000000000000000 000000000000000A000000000000000000000000000000000000000000000 000000000000000000000000000000000000000     00000000                                                                                                                        000000000000000000
F0010000005900900001000090055180500011050500000000000000000201406090002001LAMINAS Y SUELAS DE COLOMBIA S.A.S                D000000001700000000000000000000000100010010000000000000000000000F0010000005900900120140609000101 00000000000000000000000000000000000000000000000000000000000000000000000000000000000000000000000000000000000000000N 00000000000NCONT   00    00000000000          00000000000000000000000000000000000000000000 000000000000000A000000000000000000000000000000000000000000000 000000000000000000000000000000000000000     00000000                                                                                                                        000000000000000000
F0010000005900900002000090055180500041450500000000000000000201406090002001LAMINAS Y SUELAS DE COLOMBIA S.A.S                C000000001540000000000000000000000100010010000000000000000000000F0010000005900900220140609000101 00000000000000000000000000000000000000000000000000000000000000000000000000000000000000000000000000000000000000000N 00000000000NCONT   00    00000000000          00000000000000000000000000000000000000000000 000000000000000A000000000000000000000000000000000000000000000 000000000000000000000000000000000000000     00000000                                                                                                                        000000000000000000
F0010000005900900003000090055180500042505000000000000000000201406090002001LAMINAS Y SUELAS DE COLOMBIA S.A.S                C000000000160000000000000000000000100010010000000000000000000000F0010000005900900320140609000101 00000000000000000000000000000000000000000000000000000000000000000000000000000000000000000000000000000000000000000N 00000000000NCONT   00    00000000000          00000000000000000000000000000000000000000000 000000000000000A000000000000000000000000000000000000000000000 000000000000000000000000000000000000000     00000000                                                                                                                        000000000000000000
F0010000005900900004000090055180500023658300000000000000000201406090002001LAMINAS Y SUELAS DE COLOMBIA S.A.S                C000000000012300000000000000000000100010010000000000000000000000F0010000005900900420140609000101 00000000000000000000000000000000000000000000000000000000000000000000000000000000000000000000000000000000000000000N 00000000000NCONT   00    00000000000          00000000000000000000000000000000000000000000 000000000000000A000000000000000000000000000000000000000000000 000000000000000000000000000000000000000     00000000                                                                                                                        000000000000000000
F0010000005900900005000090055180500013552100000000000000000201406090002001LAMINAS Y SUELAS DE COLOMBIA S.A.S                D000000000012300000000000000000000100010010000000000000000000000F0010000005900900520140609000101 00000000000000000000000000000000000000000000000000000000000000000000000000000000000000000000000000000000000000000N 00000000000NCONT   00    00000000000          00000000000000000000000000000000000000000000 000000000000000A000000000000000000000000000000000000000000000 000000000000000000000000000000000000000     00000000                                                                                                                        000000000000000000
F0010000005901000001000086000089600013050500000000000000000201406090002001SIKA COLOMBIA S.A.                                D000000006052600000000000000000000100010010000000000000000000000F0010000005901000120140609000101 00000000000000000000000000000000000000000000000000000000000000000000000000000000000000000000000000000000000000000N 00000000000NCONT   00    00000000000          00000000000000000000000000000000000000000000 000000000000000A000000000000000000000000000000000000000000000 000000000000000000000000000000000000000     00000000                                                                                                                        000000000000000000
F0010000005901000002000086000089600041450500000000000000000201406090002001SIKA COLOMBIA S.A.                                C000000006000000000000000000000000100010010000000000000000000000F0010000005901000220140609000101 00000000000000000000000000000000000000000000000000000000000000000000000000000000000000000000000000000000000000000N 00000000000NCONT   00    00000000000          00000000000000000000000000000000000000000000 000000000000000A000000000000000000000000000000000000000000000 000000000000000000000000000000000000000     00000000                                                                                                                        000000000000000000
F0010000005901000003000086000089600042505000000000000000000201406090002001SIKA COLOMBIA S.A.                                C000000000052600000000000000000000100010010000000000000000000000F0010000005901000320140609000101 00000000000000000000000000000000000000000000000000000000000000000000000000000000000000000000000000000000000000000N 00000000000NCONT   00    00000000000          00000000000000000000000000000000000000000000 000000000000000A000000000000000000000000000000000000000000000 000000000000000000000000000000000000000     00000000                                                                                                                        000000000000000000
F0010000005901000004000086000089600023658300000000000000000201406090002001SIKA COLOMBIA S.A.                                C000000000048000000000000000000000100010010000000000000000000000F0010000005901000420140609000101 00000000000000000000000000000000000000000000000000000000000000000000000000000000000000000000000000000000000000000N 00000000000NCONT   00    00000000000          00000000000000000000000000000000000000000000 000000000000000A000000000000000000000000000000000000000000000 000000000000000000000000000000000000000     00000000                                                                                                                        000000000000000000
F0010000005901000005000086000089600013552100000000000000000201406090002001SIKA COLOMBIA S.A.                                D000000000048000000000000000000000100010010000000000000000000000F0010000005901000520140609000101 00000000000000000000000000000000000000000000000000000000000000000000000000000000000000000000000000000000000000000N 00000000000NCONT   00    00000000000          00000000000000000000000000000000000000000000 000000000000000A000000000000000000000000000000000000000000000 000000000000000000000000000000000000000     00000000                                                                                                                        000000000000000000
F0010000005901100001000086000089600013050500000000000000000201406090002001SIKA COLOMBIA S.A.                                D000000036347200000000000000000000100010010000000000000000000000F0010000005901100120140609000101 00000000000000000000000000000000000000000000000000000000000000000000000000000000000000000000000000000000000000000N 00000000000NCONT   00    00000000000          00000000000000000000000000000000000000000000 000000000000000A000000000000000000000000000000000000000000000 000000000000000000000000000000000000000     00000000                                                                                                                        000000000000000000
F0010000005901100002000086000089600041450500000000000000000201406090002001SIKA COLOMBIA S.A.                                C000000034332700000000000000000000100010010000000000000000000000F0010000005901100220140609000101 00000000000000000000000000000000000000000000000000000000000000000000000000000000000000000000000000000000000000000N 00000000000NCONT   00    00000000000          00000000000000000000000000000000000000000000 000000000000000A000000000000000000000000000000000000000000000 000000000000000000000000000000000000000     00000000                                                                                                                        000000000000000000
F0010000005901100003000086000089600042505000000000000000000201406090002001SIKA COLOMBIA S.A.                                C000000002014500000000000000000000100010010000000000000000000000F0010000005901100320140609000101 00000000000000000000000000000000000000000000000000000000000000000000000000000000000000000000000000000000000000000N 00000000000NCONT   00    00000000000          00000000000000000000000000000000000000000000 000000000000000A000000000000000000000000000000000000000000000 000000000000000000000000000000000000000     00000000                                                                                                                        000000000000000000
F0010000005901100004000086000089600023658300000000000000000201406090002001SIKA COLOMBIA S.A.                                C000000000274700000000000000000000100010010000000000000000000000F0010000005901100420140609000101 00000000000000000000000000000000000000000000000000000000000000000000000000000000000000000000000000000000000000000N 00000000000NCONT   00    00000000000          00000000000000000000000000000000000000000000 000000000000000A000000000000000000000000000000000000000000000 000000000000000000000000000000000000000     00000000                                                                                                                        000000000000000000
F0010000005901100005000086000089600013552100000000000000000201406090002001SIKA COLOMBIA S.A.                                D000000000274700000000000000000000100010010000000000000000000000F0010000005901100520140609000101 00000000000000000000000000000000000000000000000000000000000000000000000000000000000000000000000000000000000000000N 00000000000NCONT   00    00000000000          00000000000000000000000000000000000000000000 000000000000000A000000000000000000000000000000000000000000000 000000000000000000000000000000000000000     00000000                                                                                                                        000000000000000000
F0010000005901200001000090015477000011050500000000000000000201406090002001QUIMICOS DELTA EU                                 D000000004600000000000000000000000100010010000000000000000000000F0010000005901200120140609000101 00000000000000000000000000000000000000000000000000000000000000000000000000000000000000000000000000000000000000000N 00000000000NCONT   00    00000000000          00000000000000000000000000000000000000000000 000000000000000A000000000000000000000000000000000000000000000 000000000000000000000000000000000000000     00000000                                                                                                                        000000000000000000
F0010000005901200002000090015477000041450500000000000000000201406090002001QUIMICOS DELTA EU                                 C000000004400000000000000000000000100010010000000000000000000000F0010000005901200220140609000101 00000000000000000000000000000000000000000000000000000000000000000000000000000000000000000000000000000000000000000N 00000000000NCONT   00    00000000000          00000000000000000000000000000000000000000000 000000000000000A000000000000000000000000000000000000000000000 000000000000000000000000000000000000000     00000000                                                                                                                        000000000000000000
F0010000005901200003000090015477000042505000000000000000000201406090002001QUIMICOS DELTA EU                                 C000000000200000000000000000000000100010010000000000000000000000F0010000005901200320140609000101 00000000000000000000000000000000000000000000000000000000000000000000000000000000000000000000000000000000000000000N 00000000000NCONT   00    00000000000          00000000000000000000000000000000000000000000 000000000000000A000000000000000000000000000000000000000000000 000000000000000000000000000000000000000     00000000                                                                                                                        000000000000000000
F0010000005901200004000090015477000023658300000000000000000201406090002001QUIMICOS DELTA EU                                 C000000000035200000000000000000000100010010000000000000000000000F0010000005901200420140609000101 00000000000000000000000000000000000000000000000000000000000000000000000000000000000000000000000000000000000000000N 00000000000NCONT   00    00000000000          00000000000000000000000000000000000000000000 000000000000000A000000000000000000000000000000000000000000000 000000000000000000000000000000000000000     00000000                                                                                                                        000000000000000000
F0010000005901200005000090015477000013552100000000000000000201406090002001QUIMICOS DELTA EU                                 D000000000035200000000000000000000100010010000000000000000000000F0010000005901200520140609000101 00000000000000000000000000000000000000000000000000000000000000000000000000000000000000000000000000000000000000000N 00000000000NCONT   00    00000000000          00000000000000000000000000000000000000000000 000000000000000A000000000000000000000000000000000000000000000 000000000000000000000000000000000000000     00000000                                                                                                                        000000000000000000
F0010000005901300001000090036991700011050500000000000000000201406090002001DELTA INTERNACIONAL  S.A.S                        D000000004600000000000000000000000100010010000000000000000000000F0010000005901300120140609000101 00000000000000000000000000000000000000000000000000000000000000000000000000000000000000000000000000000000000000000N 00000000000NCONT   00    00000000000          00000000000000000000000000000000000000000000 000000000000000A000000000000000000000000000000000000000000000 000000000000000000000000000000000000000     00000000                                                                                                                        000000000000000000
F0010000005901300002000090036991700041450500000000000000000201406090002001DELTA INTERNACIONAL  S.A.S                        C000000004400000000000000000000000100010010000000000000000000000F0010000005901300220140609000101 00000000000000000000000000000000000000000000000000000000000000000000000000000000000000000000000000000000000000000N 00000000000NCONT   00    00000000000          00000000000000000000000000000000000000000000 000000000000000A000000000000000000000000000000000000000000000 000000000000000000000000000000000000000     00000000                                                                                                                        000000000000000000
F0010000005901300003000090036991700042505000000000000000000201406090002001DELTA INTERNACIONAL  S.A.S                        C000000000200000000000000000000000100010010000000000000000000000F0010000005901300320140609000101 00000000000000000000000000000000000000000000000000000000000000000000000000000000000000000000000000000000000000000N 00000000000NCONT   00    00000000000          00000000000000000000000000000000000000000000 000000000000000A000000000000000000000000000000000000000000000 000000000000000000000000000000000000000     00000000                                                                                                                        000000000000000000
F0010000005901300004000090036991700023658300000000000000000201406090002001DELTA INTERNACIONAL  S.A.S                        C000000000035200000000000000000000100010010000000000000000000000F0010000005901300420140609000101 00000000000000000000000000000000000000000000000000000000000000000000000000000000000000000000000000000000000000000N 00000000000NCONT   00    00000000000          00000000000000000000000000000000000000000000 000000000000000A000000000000000000000000000000000000000000000 000000000000000000000000000000000000000     00000000                                                                                                                        000000000000000000
F0010000005901300005000090036991700013552100000000000000000201406090002001DELTA INTERNACIONAL  S.A.S                        D000000000035200000000000000000000100010010000000000000000000000F0010000005901300520140609000101 00000000000000000000000000000000000000000000000000000000000000000000000000000000000000000000000000000000000000000N 00000000000NCONT   00    00000000000          00000000000000000000000000000000000000000000 000000000000000A000000000000000000000000000000000000000000000 000000000000000000000000000000000000000     00000000                                                                                                                        000000000000000000
F0010000005901400001000090036991700011050500000000000000000201406090002001DELTA INTERNACIONAL  S.A.S                        D000000007000000000000000000000000100010010000000000000000000000F0010000005901400120140609000101 00000000000000000000000000000000000000000000000000000000000000000000000000000000000000000000000000000000000000000N 00000000000NCONT   00    00000000000          00000000000000000000000000000000000000000000 000000000000000A000000000000000000000000000000000000000000000 000000000000000000000000000000000000000     00000000                                                                                                                        000000000000000000
F0010000005901400002000090036991700041450500000000000000000201406090002001DELTA INTERNACIONAL  S.A.S                        C000000006700000000000000000000000100010010000000000000000000000F0010000005901400220140609000101 00000000000000000000000000000000000000000000000000000000000000000000000000000000000000000000000000000000000000000N 00000000000NCONT   00    00000000000          00000000000000000000000000000000000000000000 000000000000000A000000000000000000000000000000000000000000000 000000000000000000000000000000000000000     00000000                                                                                                                        000000000000000000
F0010000005901400003000090036991700042505000000000000000000201406090002001DELTA INTERNACIONAL  S.A.S                        C000000000300000000000000000000000100010010000000000000000000000F0010000005901400320140609000101 00000000000000000000000000000000000000000000000000000000000000000000000000000000000000000000000000000000000000000N 00000000000NCONT   00    00000000000          00000000000000000000000000000000000000000000 000000000000000A000000000000000000000000000000000000000000000 000000000000000000000000000000000000000     00000000                                                                                                                        000000000000000000
F0010000005901400004000090036991700023658300000000000000000201406090002001DELTA INTERNACIONAL  S.A.S                        C000000000053600000000000000000000100010010000000000000000000000F0010000005901400420140609000101 00000000000000000000000000000000000000000000000000000000000000000000000000000000000000000000000000000000000000000N 00000000000NCONT   00    00000000000          00000000000000000000000000000000000000000000 000000000000000A000000000000000000000000000000000000000000000 000000000000000000000000000000000000000     00000000                                                                                                                        000000000000000000
F0010000005901400005000090036991700013552100000000000000000201406090002001DELTA INTERNACIONAL  S.A.S                        D000000000053600000000000000000000100010010000000000000000000000F0010000005901400520140609000101 00000000000000000000000000000000000000000000000000000000000000000000000000000000000000000000000000000000000000000N 00000000000NCONT   00    00000000000          00000000000000000000000000000000000000000000 000000000000000A000000000000000000000000000000000000000000000 000000000000000000000000000000000000000     00000000                                                                                                                        000000000000000000
F0010000005901500001000090036991700011050500000000000000000201406090002001DELTA INTERNACIONAL  S.A.S                        D000000001300000000000000000000000100010010000000000000000000000F0010000005901500120140609000101 00000000000000000000000000000000000000000000000000000000000000000000000000000000000000000000000000000000000000000N 00000000000NCONT   00    00000000000          00000000000000000000000000000000000000000000 000000000000000A000000000000000000000000000000000000000000000 000000000000000000000000000000000000000     00000000                                                                                                                        000000000000000000
F0010000005901500002000090036991700041450500000000000000000201406090002001DELTA INTERNACIONAL  S.A.S                        C000000001200000000000000000000000100010010000000000000000000000F0010000005901500220140609000101 00000000000000000000000000000000000000000000000000000000000000000000000000000000000000000000000000000000000000000N 00000000000NCONT   00    00000000000          00000000000000000000000000000000000000000000 000000000000000A000000000000000000000000000000000000000000000 000000000000000000000000000000000000000     00000000                                                                                                                        000000000000000000
F0010000005901500003000090036991700042505000000000000000000201406090002001DELTA INTERNACIONAL  S.A.S                        C000000000100000000000000000000000100010010000000000000000000000F0010000005901500320140609000101 00000000000000000000000000000000000000000000000000000000000000000000000000000000000000000000000000000000000000000N 00000000000NCONT   00    00000000000          00000000000000000000000000000000000000000000 000000000000000A000000000000000000000000000000000000000000000 000000000000000000000000000000000000000     00000000                                                                                                                        000000000000000000
F0010000005901500004000090036991700023658300000000000000000201406090002001DELTA INTERNACIONAL  S.A.S                        C000000000009600000000000000000000100010010000000000000000000000F0010000005901500420140609000101 00000000000000000000000000000000000000000000000000000000000000000000000000000000000000000000000000000000000000000N 00000000000NCONT   00    00000000000          00000000000000000000000000000000000000000000 000000000000000A000000000000000000000000000000000000000000000 000000000000000000000000000000000000000     00000000                                                                                                                        000000000000000000
F0010000005901500005000090036991700013552100000000000000000201406090002001DELTA INTERNACIONAL  S.A.S                        D000000000009600000000000000000000100010010000000000000000000000F0010000005901500520140609000101 00000000000000000000000000000000000000000000000000000000000000000000000000000000000000000000000000000000000000000N 00000000000NCONT   00    00000000000          00000000000000000000000000000000000000000000 000000000000000A000000000000000000000000000000000000000000000 000000000000000000000000000000000000000     00000000                                                                                                                        000000000000000000
F0010000005901600001000090036991700011050500000000000000000201406090002001DELTA INTERNACIONAL  S.A.S                        D000000004800000000000000000000000100010010000000000000000000000F0010000005901600120140609000101 00000000000000000000000000000000000000000000000000000000000000000000000000000000000000000000000000000000000000000N 00000000000NCONT   00    00000000000          00000000000000000000000000000000000000000000 000000000000000A000000000000000000000000000000000000000000000 000000000000000000000000000000000000000     00000000                                                                                                                        000000000000000000
F0010000005901600002000090036991700041450500000000000000000201406090002001DELTA INTERNACIONAL  S.A.S                        C000000004400000000000000000000000100010010000000000000000000000F0010000005901600220140609000101 00000000000000000000000000000000000000000000000000000000000000000000000000000000000000000000000000000000000000000N 00000000000NCONT   00    00000000000          00000000000000000000000000000000000000000000 000000000000000A000000000000000000000000000000000000000000000 000000000000000000000000000000000000000     00000000                                                                                                                        000000000000000000
F0010000005901600003000090036991700042505000000000000000000201406090002001DELTA INTERNACIONAL  S.A.S                        C000000000400000000000000000000000100010010000000000000000000000F0010000005901600320140609000101 00000000000000000000000000000000000000000000000000000000000000000000000000000000000000000000000000000000000000000N 00000000000NCONT   00    00000000000          00000000000000000000000000000000000000000000 000000000000000A000000000000000000000000000000000000000000000 000000000000000000000000000000000000000     00000000                                                                                                                        000000000000000000
F0010000005901600004000090036991700023658300000000000000000201406090002001DELTA INTERNACIONAL  S.A.S                        C000000000035200000000000000000000100010010000000000000000000000F0010000005901600420140609000101 00000000000000000000000000000000000000000000000000000000000000000000000000000000000000000000000000000000000000000N 00000000000NCONT   00    00000000000          00000000000000000000000000000000000000000000 000000000000000A000000000000000000000000000000000000000000000 000000000000000000000000000000000000000     00000000                                                                                                                        000000000000000000
F0010000005901600005000090036991700013552100000000000000000201406090002001DELTA INTERNACIONAL  S.A.S                        D000000000035200000000000000000000100010010000000000000000000000F0010000005901600520140609000101 00000000000000000000000000000000000000000000000000000000000000000000000000000000000000000000000000000000000000000N 00000000000NCONT   00    00000000000          00000000000000000000000000000000000000000000 000000000000000A000000000000000000000000000000000000000000000 000000000000000000000000000000000000000     00000000                                                                                                                        000000000000000000
F0010000005901700001000090036991700011050500000000000000000201406090002001DELTA INTERNACIONAL  S.A.S                        D000000002000000000000000000000000100010010000000000000000000000F0010000005901700120140609000101 00000000000000000000000000000000000000000000000000000000000000000000000000000000000000000000000000000000000000000N 00000000000NCONT   00    00000000000          00000000000000000000000000000000000000000000 000000000000000A000000000000000000000000000000000000000000000 000000000000000000000000000000000000000     00000000                                                                                                                        000000000000000000
F0010000005901700002000090036991700041450500000000000000000201406090002001DELTA INTERNACIONAL  S.A.S                        C000000001900000000000000000000000100010010000000000000000000000F0010000005901700220140609000101 00000000000000000000000000000000000000000000000000000000000000000000000000000000000000000000000000000000000000000N 00000000000NCONT   00    00000000000          00000000000000000000000000000000000000000000 000000000000000A000000000000000000000000000000000000000000000 000000000000000000000000000000000000000     00000000                                                                                                                        000000000000000000
F0010000005901700003000090036991700042505000000000000000000201406090002001DELTA INTERNACIONAL  S.A.S                        C000000000100000000000000000000000100010010000000000000000000000F0010000005901700320140609000101 00000000000000000000000000000000000000000000000000000000000000000000000000000000000000000000000000000000000000000N 00000000000NCONT   00    00000000000          00000000000000000000000000000000000000000000 000000000000000A000000000000000000000000000000000000000000000 000000000000000000000000000000000000000     00000000                                                                                                                        000000000000000000
F0010000005901700004000090036991700023658300000000000000000201406090002001DELTA INTERNACIONAL  S.A.S                        C000000000015200000000000000000000100010010000000000000000000000F0010000005901700420140609000101 00000000000000000000000000000000000000000000000000000000000000000000000000000000000000000000000000000000000000000N 00000000000NCONT   00    00000000000          00000000000000000000000000000000000000000000 000000000000000A000000000000000000000000000000000000000000000 000000000000000000000000000000000000000     00000000                                                                                                                        000000000000000000
F0010000005901700005000090036991700013552100000000000000000201406090002001DELTA INTERNACIONAL  S.A.S                        D000000000015200000000000000000000100010010000000000000000000000F0010000005901700520140609000101 00000000000000000000000000000000000000000000000000000000000000000000000000000000000000000000000000000000000000000N 00000000000NCONT   00    00000000000          00000000000000000000000000000000000000000000 000000000000000A000000000000000000000000000000000000000000000 000000000000000000000000000000000000000     00000000                                                                                                                        000000000000000000
F0010000005901800001000090036991700011050500000000000000000201406090002001DELTA INTERNACIONAL  S.A.S                        D000000001400000000000000000000000100010010000000000000000000000F0010000005901800120140609000101 00000000000000000000000000000000000000000000000000000000000000000000000000000000000000000000000000000000000000000N 00000000000NCONT   00    00000000000          00000000000000000000000000000000000000000000 000000000000000A000000000000000000000000000000000000000000000 000000000000000000000000000000000000000     00000000                                                                                                                        000000000000000000
F0010000005901800002000090036991700041450500000000000000000201406090002001DELTA INTERNACIONAL  S.A.S                        C000000001200000000000000000000000100010010000000000000000000000F0010000005901800220140609000101 00000000000000000000000000000000000000000000000000000000000000000000000000000000000000000000000000000000000000000N 00000000000NCONT   00    00000000000          00000000000000000000000000000000000000000000 000000000000000A000000000000000000000000000000000000000000000 000000000000000000000000000000000000000     00000000                                                                                                                        000000000000000000
F0010000005901800003000090036991700042505000000000000000000201406090002001DELTA INTERNACIONAL  S.A.S                        C000000000200000000000000000000000100010010000000000000000000000F0010000005901800320140609000101 00000000000000000000000000000000000000000000000000000000000000000000000000000000000000000000000000000000000000000N 00000000000NCONT   00    00000000000          00000000000000000000000000000000000000000000 000000000000000A000000000000000000000000000000000000000000000 000000000000000000000000000000000000000     00000000                                                                                                                        000000000000000000
F0010000005901800004000090036991700023658300000000000000000201406090002001DELTA INTERNACIONAL  S.A.S                        C000000000009600000000000000000000100010010000000000000000000000F0010000005901800420140609000101 00000000000000000000000000000000000000000000000000000000000000000000000000000000000000000000000000000000000000000N 00000000000NCONT   00    00000000000          00000000000000000000000000000000000000000000 000000000000000A000000000000000000000000000000000000000000000 000000000000000000000000000000000000000     00000000                                                                                                                        000000000000000000
F0010000005901800005000090036991700013552100000000000000000201406090002001DELTA INTERNACIONAL  S.A.S                        D000000000009600000000000000000000100010010000000000000000000000F0010000005901800520140609000101 00000000000000000000000000000000000000000000000000000000000000000000000000000000000000000000000000000000000000000N 00000000000NCONT   00    00000000000          00000000000000000000000000000000000000000000 000000000000000A000000000000000000000000000000000000000000000 000000000000000000000000000000000000000     00000000                                                                                                                        000000000000000000
F0010000005901900001000090036991700011050500000000000000000201406090002001DELTA INTERNACIONAL  S.A.S                        D000000004000000000000000000000000100010010000000000000000000000F0010000005901900120140609000101 00000000000000000000000000000000000000000000000000000000000000000000000000000000000000000000000000000000000000000N 00000000000NCONT   00    00000000000          00000000000000000000000000000000000000000000 000000000000000A000000000000000000000000000000000000000000000 000000000000000000000000000000000000000     00000000                                                                                                                        000000000000000000
F0010000005901900002000090036991700041450500000000000000000201406090002001DELTA INTERNACIONAL  S.A.S                        C000000003800000000000000000000000100010010000000000000000000000F0010000005901900220140609000101 00000000000000000000000000000000000000000000000000000000000000000000000000000000000000000000000000000000000000000N 00000000000NCONT   00    00000000000          00000000000000000000000000000000000000000000 000000000000000A000000000000000000000000000000000000000000000 000000000000000000000000000000000000000     00000000                                                                                                                        000000000000000000
F0010000005901900003000090036991700042505000000000000000000201406090002001DELTA INTERNACIONAL  S.A.S                        C000000000200000000000000000000000100010010000000000000000000000F0010000005901900320140609000101 00000000000000000000000000000000000000000000000000000000000000000000000000000000000000000000000000000000000000000N 00000000000NCONT   00    00000000000          00000000000000000000000000000000000000000000 000000000000000A000000000000000000000000000000000000000000000 000000000000000000000000000000000000000     00000000                                                                                                                        000000000000000000
F0010000005901900004000090036991700023658300000000000000000201406090002001DELTA INTERNACIONAL  S.A.S                        C000000000030400000000000000000000100010010000000000000000000000F0010000005901900420140609000101 00000000000000000000000000000000000000000000000000000000000000000000000000000000000000000000000000000000000000000N 00000000000NCONT   00    00000000000          00000000000000000000000000000000000000000000 000000000000000A000000000000000000000000000000000000000000000 000000000000000000000000000000000000000     00000000                                                                                                                        000000000000000000
F0010000005901900005000090036991700013552100000000000000000201406090002001DELTA INTERNACIONAL  S.A.S                        D000000000030400000000000000000000100010010000000000000000000000F0010000005901900520140609000101 00000000000000000000000000000000000000000000000000000000000000000000000000000000000000000000000000000000000000000N 00000000000NCONT   00    00000000000          00000000000000000000000000000000000000000000 000000000000000A000000000000000000000000000000000000000000000 000000000000000000000000000000000000000     00000000                                                                                                                        000000000000000000
F0010000005902000001000090036991700011050500000000000000000201406090002001DELTA INTERNACIONAL  S.A.S                        D000000003200000000000000000000000100010010000000000000000000000F0010000005902000120140609000101 00000000000000000000000000000000000000000000000000000000000000000000000000000000000000000000000000000000000000000N 00000000000NCONT   00    00000000000          00000000000000000000000000000000000000000000 000000000000000A000000000000000000000000000000000000000000000 000000000000000000000000000000000000000     00000000                                                                                                                        000000000000000000
F0010000005902000002000090036991700041450500000000000000000201406090002001DELTA INTERNACIONAL  S.A.S                        C000000003000000000000000000000000100010010000000000000000000000F0010000005902000220140609000101 00000000000000000000000000000000000000000000000000000000000000000000000000000000000000000000000000000000000000000N 00000000000NCONT   00    00000000000          00000000000000000000000000000000000000000000 000000000000000A000000000000000000000000000000000000000000000 000000000000000000000000000000000000000     00000000                                                                                                                        000000000000000000
F0010000005902000003000090036991700042505000000000000000000201406090002001DELTA INTERNACIONAL  S.A.S                        C000000000200000000000000000000000100010010000000000000000000000F0010000005902000320140609000101 00000000000000000000000000000000000000000000000000000000000000000000000000000000000000000000000000000000000000000N 00000000000NCONT   00    00000000000          00000000000000000000000000000000000000000000 000000000000000A000000000000000000000000000000000000000000000 000000000000000000000000000000000000000     00000000                                                                                                                        000000000000000000
F0010000005902000004000090036991700023658300000000000000000201406090002001DELTA INTERNACIONAL  S.A.S                        C000000000024000000000000000000000100010010000000000000000000000F0010000005902000420140609000101 00000000000000000000000000000000000000000000000000000000000000000000000000000000000000000000000000000000000000000N 00000000000NCONT   00    00000000000          00000000000000000000000000000000000000000000 000000000000000A000000000000000000000000000000000000000000000 000000000000000000000000000000000000000     00000000                                                                                                                        000000000000000000
F0010000005902000005000090036991700013552100000000000000000201406090002001DELTA INTERNACIONAL  S.A.S                        D000000000024000000000000000000000100010010000000000000000000000F0010000005902000520140609000101 00000000000000000000000000000000000000000000000000000000000000000000000000000000000000000000000000000000000000000N 00000000000NCONT   00    00000000000          00000000000000000000000000000000000000000000 000000000000000A000000000000000000000000000000000000000000000 000000000000000000000000000000000000000     00000000                                                                                                                        000000000000000000
F0010000005902100001000090036991700011050500000000000000000201406090002001DELTA INTERNACIONAL  S.A.S                        D000000004000000000000000000000000100010010000000000000000000000F0010000005902100120140609000101 00000000000000000000000000000000000000000000000000000000000000000000000000000000000000000000000000000000000000000N 00000000000NCONT   00    00000000000          00000000000000000000000000000000000000000000 000000000000000A000000000000000000000000000000000000000000000 000000000000000000000000000000000000000     00000000                                                                                                                        000000000000000000
F0010000005902100002000090036991700041450500000000000000000201406090002001DELTA INTERNACIONAL  S.A.S                        C000000003600000000000000000000000100010010000000000000000000000F0010000005902100220140609000101 00000000000000000000000000000000000000000000000000000000000000000000000000000000000000000000000000000000000000000N 00000000000NCONT   00    00000000000          00000000000000000000000000000000000000000000 000000000000000A000000000000000000000000000000000000000000000 000000000000000000000000000000000000000     00000000                                                                                                                        000000000000000000
F0010000005902100003000090036991700042505000000000000000000201406090002001DELTA INTERNACIONAL  S.A.S                        C000000000400000000000000000000000100010010000000000000000000000F0010000005902100320140609000101 00000000000000000000000000000000000000000000000000000000000000000000000000000000000000000000000000000000000000000N 00000000000NCONT   00    00000000000          00000000000000000000000000000000000000000000 000000000000000A000000000000000000000000000000000000000000000 000000000000000000000000000000000000000     00000000                                                                                                                        000000000000000000
F0010000005902100004000090036991700023658300000000000000000201406090002001DELTA INTERNACIONAL  S.A.S                        C000000000028800000000000000000000100010010000000000000000000000F0010000005902100420140609000101 00000000000000000000000000000000000000000000000000000000000000000000000000000000000000000000000000000000000000000N 00000000000NCONT   00    00000000000          00000000000000000000000000000000000000000000 000000000000000A000000000000000000000000000000000000000000000 000000000000000000000000000000000000000     00000000                                                                                                                        000000000000000000
F0010000005902100005000090036991700013552100000000000000000201406090002001DELTA INTERNACIONAL  S.A.S                        D000000000028800000000000000000000100010010000000000000000000000F0010000005902100520140609000101 00000000000000000000000000000000000000000000000000000000000000000000000000000000000000000000000000000000000000000N 00000000000NCONT   00    00000000000          00000000000000000000000000000000000000000000 000000000000000A000000000000000000000000000000000000000000000 000000000000000000000000000000000000000     00000000                                                                                                                        000000000000000000
F0010000005902200001000090036991700011050500000000000000000201406090002001DELTA INTERNACIONAL  S.A.S                        D000000004000000000000000000000000100010010000000000000000000000F0010000005902200120140609000101 00000000000000000000000000000000000000000000000000000000000000000000000000000000000000000000000000000000000000000N 00000000000NCONT   00    00000000000          00000000000000000000000000000000000000000000 000000000000000A000000000000000000000000000000000000000000000 000000000000000000000000000000000000000     00000000                                                                                                                        000000000000000000
F0010000005902200002000090036991700041450500000000000000000201406090002001DELTA INTERNACIONAL  S.A.S                        C000000003800000000000000000000000100010010000000000000000000000F0010000005902200220140609000101 00000000000000000000000000000000000000000000000000000000000000000000000000000000000000000000000000000000000000000N 00000000000NCONT   00    00000000000          00000000000000000000000000000000000000000000 000000000000000A000000000000000000000000000000000000000000000 000000000000000000000000000000000000000     00000000                                                                                                                        000000000000000000
F0010000005902200003000090036991700042505000000000000000000201406090002001DELTA INTERNACIONAL  S.A.S                        C000000000200000000000000000000000100010010000000000000000000000F0010000005902200320140609000101 00000000000000000000000000000000000000000000000000000000000000000000000000000000000000000000000000000000000000000N 00000000000NCONT   00    00000000000          00000000000000000000000000000000000000000000 000000000000000A000000000000000000000000000000000000000000000 000000000000000000000000000000000000000     00000000                                                                                                                        000000000000000000
F0010000005902200004000090036991700023658300000000000000000201406090002001DELTA INTERNACIONAL  S.A.S                        C000000000030400000000000000000000100010010000000000000000000000F0010000005902200420140609000101 00000000000000000000000000000000000000000000000000000000000000000000000000000000000000000000000000000000000000000N 00000000000NCONT   00    00000000000          00000000000000000000000000000000000000000000 000000000000000A000000000000000000000000000000000000000000000 000000000000000000000000000000000000000     00000000                                                                                                                        000000000000000000
F0010000005902200005000090036991700013552100000000000000000201406090002001DELTA INTERNACIONAL  S.A.S                        D000000000030400000000000000000000100010010000000000000000000000F0010000005902200520140609000101 00000000000000000000000000000000000000000000000000000000000000000000000000000000000000000000000000000000000000000N 00000000000NCONT   00    00000000000          00000000000000000000000000000000000000000000 000000000000000A000000000000000000000000000000000000000000000 000000000000000000000000000000000000000     00000000                                                                                                                        000000000000000000
F0010000005902300001000003276535300011050500000000000000000201406090002001YASLEYS CATAO ESCOBAR                           D000000006160000000000000000000000100010010000000000000000000000F0010000005902300120140609000101 00000000000000000000000000000000000000000000000000000000000000000000000000000000000000000000000000000000000000000N 00000000000NCONT   00    00000000000          00000000000000000000000000000000000000000000 000000000000000A000000000000000000000000000000000000000000000 000000000000000000000000000000000000000     00000000                                                                                                                        000000000000000000
F0010000005902300002000003276535300041450500000000000000000201406090002001YASLEYS CATAO ESCOBAR                           C000000004760000000000000000000000100010010000000000000000000000F0010000005902300220140609000101 00000000000000000000000000000000000000000000000000000000000000000000000000000000000000000000000000000000000000000N 00000000000NCONT   00    00000000000          00000000000000000000000000000000000000000000 000000000000000A000000000000000000000000000000000000000000000 000000000000000000000000000000000000000     00000000                                                                                                                        000000000000000000
F0010000005902300003000003276535300042505000000000000000000201406090002001YASLEYS CATAO ESCOBAR                           C000000001400000000000000000000000100010010000000000000000000000F0010000005902300320140609000101 00000000000000000000000000000000000000000000000000000000000000000000000000000000000000000000000000000000000000000N 00000000000NCONT   00    00000000000          00000000000000000000000000000000000000000000 000000000000000A000000000000000000000000000000000000000000000 000000000000000000000000000000000000000     00000000                                                                                                                        000000000000000000
F0010000005902300004000003276535300023658300000000000000000201406090002001YASLEYS CATAO ESCOBAR                           C000000000038100000000000000000000100010010000000000000000000000F0010000005902300420140609000101 00000000000000000000000000000000000000000000000000000000000000000000000000000000000000000000000000000000000000000N 00000000000NCONT   00    00000000000          00000000000000000000000000000000000000000000 000000000000000A000000000000000000000000000000000000000000000 000000000000000000000000000000000000000     00000000                                                                                                                        000000000000000000
F0010000005902300005000003276535300013552100000000000000000201406090002001YASLEYS CATAO ESCOBAR                           D000000000038100000000000000000000100010010000000000000000000000F0010000005902300520140609000101 00000000000000000000000000000000000000000000000000000000000000000000000000000000000000000000000000000000000000000N 00000000000NCONT   00    00000000000          00000000000000000000000000000000000000000000 000000000000000A000000000000000000000000000000000000000000000 000000000000000000000000000000000000000     00000000                                                                                                                        000000000000000000
F0010000005902400001000007200205100011050500000000000000000201406090002001LUIS MOLINA                                       D000000001450000000000000000000000100010010000000000000000000000F0010000005902400120140609000101 00000000000000000000000000000000000000000000000000000000000000000000000000000000000000000000000000000000000000000N 00000000000NCONT   00    00000000000          00000000000000000000000000000000000000000000 000000000000000A000000000000000000000000000000000000000000000 000000000000000000000000000000000000000     00000000                                                                                                                        000000000000000000
F0010000005902400002000007200205100041450500000000000000000201406090002001LUIS MOLINA                                       C000000001300000000000000000000000100010010000000000000000000000F0010000005902400220140609000101 00000000000000000000000000000000000000000000000000000000000000000000000000000000000000000000000000000000000000000N 00000000000NCONT   00    00000000000          00000000000000000000000000000000000000000000 000000000000000A000000000000000000000000000000000000000000000 000000000000000000000000000000000000000     00000000                                                                                                                        000000000000000000
F0010000005902400003000007200205100042505000000000000000000201406090002001LUIS MOLINA                                       C000000000150000000000000000000000100010010000000000000000000000F0010000005902400320140609000101 00000000000000000000000000000000000000000000000000000000000000000000000000000000000000000000000000000000000000000N 00000000000NCONT   00    00000000000          00000000000000000000000000000000000000000000 000000000000000A000000000000000000000000000000000000000000000 000000000000000000000000000000000000000     00000000                                                                                                                        000000000000000000
F0010000005902400004000007200205100023658300000000000000000201406090002001LUIS MOLINA                                       C000000000010400000000000000000000100010010000000000000000000000F0010000005902400420140609000101 00000000000000000000000000000000000000000000000000000000000000000000000000000000000000000000000000000000000000000N 00000000000NCONT   00    00000000000          00000000000000000000000000000000000000000000 000000000000000A000000000000000000000000000000000000000000000 000000000000000000000000000000000000000     00000000                                                                                                                        000000000000000000
F0010000005902400005000007200205100013552100000000000000000201406090002001LUIS MOLINA                                       D000000000010400000000000000000000100010010000000000000000000000F0010000005902400520140609000101 00000000000000000000000000000000000000000000000000000000000000000000000000000000000000000000000000000000000000000N 00000000000NCONT   00    00000000000          00000000000000000000000000000000000000000000 000000000000000A000000000000000000000000000000000000000000000 000000000000000000000000000000000000000     00000000                                                                                                                        000000000000000000
F0010000005902500001000090016338800011050500000000000000000201406090002001DISTRI MAYORKING                                  D000000001000000000000000000000000100010010000000000000000000000F0010000005902500120140609000101 00000000000000000000000000000000000000000000000000000000000000000000000000000000000000000000000000000000000000000N 00000000000NCONT   00    00000000000          00000000000000000000000000000000000000000000 000000000000000A000000000000000000000000000000000000000000000 000000000000000000000000000000000000000     00000000                                                                                                                        000000000000000000
F0010000005902500002000090016338800041450500000000000000000201406090002001DISTRI MAYORKING                                  C000000000900000000000000000000000100010010000000000000000000000F0010000005902500220140609000101 00000000000000000000000000000000000000000000000000000000000000000000000000000000000000000000000000000000000000000N 00000000000NCONT   00    00000000000          00000000000000000000000000000000000000000000 000000000000000A000000000000000000000000000000000000000000000 000000000000000000000000000000000000000     00000000                                                                                                                        000000000000000000
F0010000005902500003000090016338800042505000000000000000000201406090002001DISTRI MAYORKING                                  C000000000100000000000000000000000100010010000000000000000000000F0010000005902500320140609000101 00000000000000000000000000000000000000000000000000000000000000000000000000000000000000000000000000000000000000000N 00000000000NCONT   00    00000000000          00000000000000000000000000000000000000000000 000000000000000A000000000000000000000000000000000000000000000 000000000000000000000000000000000000000     00000000                                                                                                                        000000000000000000
F0010000005902500004000090016338800023658300000000000000000201406090002001DISTRI MAYORKING                                  C000000000007200000000000000000000100010010000000000000000000000F0010000005902500420140609000101 00000000000000000000000000000000000000000000000000000000000000000000000000000000000000000000000000000000000000000N 00000000000NCONT   00    00000000000          00000000000000000000000000000000000000000000 000000000000000A000000000000000000000000000000000000000000000 000000000000000000000000000000000000000     00000000                                                                                                                        000000000000000000
F0010000005902500005000090016338800013552100000000000000000201406090002001DISTRI MAYORKING                                  D000000000007200000000000000000000100010010000000000000000000000F0010000005902500520140609000101 00000000000000000000000000000000000000000000000000000000000000000000000000000000000000000000000000000000000000000N 00000000000NCONT   00    00000000000          00000000000000000000000000000000000000000000 000000000000000A000000000000000000000000000000000000000000000 000000000000000000000000000000000000000     00000000                                                                                                                        000000000000000000
F0010000005902600001000090037881900011050500000000000000000201406090002001COMERCIALIZADORA RACOPI S.A.S                     D000000002700000000000000000000000100010010000000000000000000000F0010000005902600120140609000101 00000000000000000000000000000000000000000000000000000000000000000000000000000000000000000000000000000000000000000N 00000000000NCONT   00    00000000000          00000000000000000000000000000000000000000000 000000000000000A000000000000000000000000000000000000000000000 000000000000000000000000000000000000000     00000000                                                                                                                        000000000000000000
F0010000005902600002000090037881900041450500000000000000000201406090002001COMERCIALIZADORA RACOPI S.A.S                     C000000002200000000000000000000000100010010000000000000000000000F0010000005902600220140609000101 00000000000000000000000000000000000000000000000000000000000000000000000000000000000000000000000000000000000000000N 00000000000NCONT   00    00000000000          00000000000000000000000000000000000000000000 000000000000000A000000000000000000000000000000000000000000000 000000000000000000000000000000000000000     00000000                                                                                                                        000000000000000000
F0010000005902600003000090037881900042505000000000000000000201406090002001COMERCIALIZADORA RACOPI S.A.S                     C000000000500000000000000000000000100010010000000000000000000000F0010000005902600320140609000101 00000000000000000000000000000000000000000000000000000000000000000000000000000000000000000000000000000000000000000N 00000000000NCONT   00    00000000000          00000000000000000000000000000000000000000000 000000000000000A000000000000000000000000000000000000000000000 000000000000000000000000000000000000000     00000000                                                                                                                        000000000000000000
F0010000005902600004000090037881900023658300000000000000000201406090002001COMERCIALIZADORA RACOPI S.A.S                     C000000000017600000000000000000000100010010000000000000000000000F0010000005902600420140609000101 00000000000000000000000000000000000000000000000000000000000000000000000000000000000000000000000000000000000000000N 00000000000NCONT   00    00000000000          00000000000000000000000000000000000000000000 000000000000000A000000000000000000000000000000000000000000000 000000000000000000000000000000000000000     00000000                                                                                                                        000000000000000000
F0010000005902600005000090037881900013552100000000000000000201406090002001COMERCIALIZADORA RACOPI S.A.S                     D000000000017600000000000000000000100010010000000000000000000000F0010000005902600520140609000101 00000000000000000000000000000000000000000000000000000000000000000000000000000000000000000000000000000000000000000N 00000000000NCONT   00    00000000000          00000000000000000000000000000000000000000000 000000000000000A000000000000000000000000000000000000000000000 000000000000000000000000000000000000000     00000000                                                                                                                        000000000000000000
F0010000005902700001000090037881900011050500000000000000000201406090002001COMERCIALIZADORA RACOPI S.A.S                     D000000001400000000000000000000000100010010000000000000000000000F0010000005902700120140609000101 00000000000000000000000000000000000000000000000000000000000000000000000000000000000000000000000000000000000000000N 00000000000NCONT   00    00000000000          00000000000000000000000000000000000000000000 000000000000000A000000000000000000000000000000000000000000000 000000000000000000000000000000000000000     00000000                                                                                                                        000000000000000000
F0010000005902700002000090037881900041450500000000000000000201406090002001COMERCIALIZADORA RACOPI S.A.S                     C000000001300000000000000000000000100010010000000000000000000000F0010000005902700220140609000101 00000000000000000000000000000000000000000000000000000000000000000000000000000000000000000000000000000000000000000N 00000000000NCONT   00    00000000000          00000000000000000000000000000000000000000000 000000000000000A000000000000000000000000000000000000000000000 000000000000000000000000000000000000000     00000000                                                                                                                        000000000000000000
F0010000005902700003000090037881900042505000000000000000000201406090002001COMERCIALIZADORA RACOPI S.A.S                     C000000000100000000000000000000000100010010000000000000000000000F0010000005902700320140609000101 00000000000000000000000000000000000000000000000000000000000000000000000000000000000000000000000000000000000000000N 00000000000NCONT   00    00000000000          00000000000000000000000000000000000000000000 000000000000000A000000000000000000000000000000000000000000000 000000000000000000000000000000000000000     00000000                                                                                                                        000000000000000000
F0010000005902700004000090037881900023658300000000000000000201406090002001COMERCIALIZADORA RACOPI S.A.S                     C000000000010400000000000000000000100010010000000000000000000000F0010000005902700420140609000101 00000000000000000000000000000000000000000000000000000000000000000000000000000000000000000000000000000000000000000N 00000000000NCONT   00    00000000000          00000000000000000000000000000000000000000000 000000000000000A000000000000000000000000000000000000000000000 000000000000000000000000000000000000000     00000000                                                                                                                        000000000000000000
F0010000005902700005000090037881900013552100000000000000000201406090002001COMERCIALIZADORA RACOPI S.A.S                     D000000000010400000000000000000000100010010000000000000000000000F0010000005902700520140609000101 00000000000000000000000000000000000000000000000000000000000000000000000000000000000000000000000000000000000000000N 00000000000NCONT   00    00000000000          00000000000000000000000000000000000000000000 000000000000000A000000000000000000000000000000000000000000000 000000000000000000000000000000000000000     00000000                                                                                                                        000000000000000000
F0010000005902800001000003276535300011050500000000000000000201406090002001YASLEYS CATAO ESCOBAR                           D000000002040000000000000000000000100010010000000000000000000000F0010000005902800120140609000101 00000000000000000000000000000000000000000000000000000000000000000000000000000000000000000000000000000000000000000N 00000000000NCONT   00    00000000000          00000000000000000000000000000000000000000000 000000000000000A000000000000000000000000000000000000000000000 000000000000000000000000000000000000000     00000000                                                                                                                        000000000000000000
F0010000005902800002000003276535300041450500000000000000000201406090002001YASLEYS CATAO ESCOBAR                           C000000001190000000000000000000000100010010000000000000000000000F0010000005902800220140609000101 00000000000000000000000000000000000000000000000000000000000000000000000000000000000000000000000000000000000000000N 00000000000NCONT   00    00000000000          00000000000000000000000000000000000000000000 000000000000000A000000000000000000000000000000000000000000000 000000000000000000000000000000000000000     00000000                                                                                                                        000000000000000000
F0010000005902800003000003276535300042505000000000000000000201406090002001YASLEYS CATAO ESCOBAR                           C000000000850000000000000000000000100010010000000000000000000000F0010000005902800320140609000101 00000000000000000000000000000000000000000000000000000000000000000000000000000000000000000000000000000000000000000N 00000000000NCONT   00    00000000000          00000000000000000000000000000000000000000000 000000000000000A000000000000000000000000000000000000000000000 000000000000000000000000000000000000000     00000000                                                                                                                        000000000000000000
F0010000005902800004000003276535300023658300000000000000000201406090002001YASLEYS CATAO ESCOBAR                           C000000000009500000000000000000000100010010000000000000000000000F0010000005902800420140609000101 00000000000000000000000000000000000000000000000000000000000000000000000000000000000000000000000000000000000000000N 00000000000NCONT   00    00000000000          00000000000000000000000000000000000000000000 000000000000000A000000000000000000000000000000000000000000000 000000000000000000000000000000000000000     00000000                                                                                                                        000000000000000000
F0010000005902800005000003276535300013552100000000000000000201406090002001YASLEYS CATAO ESCOBAR                           D000000000009500000000000000000000100010010000000000000000000000F0010000005902800520140609000101 00000000000000000000000000000000000000000000000000000000000000000000000000000000000000000000000000000000000000000N 00000000000NCONT   00    00000000000          00000000000000000000000000000000000000000000 000000000000000A000000000000000000000000000000000000000000000 000000000000000000000000000000000000000     00000000                                                                                                                        000000000000000000
F0010000005902900001000107225647100011050500000000000000000201406090002001JHON BYRON DUQUE DONADO (BODEGA JHONIFER)         D000000001200000000000000000000000100010010000000000000000000000F0010000005902900120140609000101 00000000000000000000000000000000000000000000000000000000000000000000000000000000000000000000000000000000000000000N 00000000000NCONT   00    00000000000          00000000000000000000000000000000000000000000 000000000000000A000000000000000000000000000000000000000000000 000000000000000000000000000000000000000     00000000                                                                                                                        000000000000000000
F0010000005902900002000107225647100041450500000000000000000201406090002001JHON BYRON DUQUE DONADO (BODEGA JHONIFER)         C000000001000000000000000000000000100010010000000000000000000000F0010000005902900220140609000101 00000000000000000000000000000000000000000000000000000000000000000000000000000000000000000000000000000000000000000N 00000000000NCONT   00    00000000000          00000000000000000000000000000000000000000000 000000000000000A000000000000000000000000000000000000000000000 000000000000000000000000000000000000000     00000000                                                                                                                        000000000000000000
F0010000005902900003000107225647100042505000000000000000000201406090002001JHON BYRON DUQUE DONADO (BODEGA JHONIFER)         C000000000200000000000000000000000100010010000000000000000000000F0010000005902900320140609000101 00000000000000000000000000000000000000000000000000000000000000000000000000000000000000000000000000000000000000000N 00000000000NCONT   00    00000000000          00000000000000000000000000000000000000000000 000000000000000A000000000000000000000000000000000000000000000 000000000000000000000000000000000000000     00000000                                                                                                                        000000000000000000
F0010000005902900004000107225647100023658300000000000000000201406090002001JHON BYRON DUQUE DONADO (BODEGA JHONIFER)         C000000000008000000000000000000000100010010000000000000000000000F0010000005902900420140609000101 00000000000000000000000000000000000000000000000000000000000000000000000000000000000000000000000000000000000000000N 00000000000NCONT   00    00000000000          00000000000000000000000000000000000000000000 000000000000000A000000000000000000000000000000000000000000000 000000000000000000000000000000000000000     00000000                                                                                                                        000000000000000000
F0010000005902900005000107225647100013552100000000000000000201406090002001JHON BYRON DUQUE DONADO (BODEGA JHONIFER)         D000000000008000000000000000000000100010010000000000000000000000F0010000005902900520140609000101 00000000000000000000000000000000000000000000000000000000000000000000000000000000000000000000000000000000000000000N 00000000000NCONT   00    00000000000          00000000000000000000000000000000000000000000 000000000000000A000000000000000000000000000000000000000000000 000000000000000000000000000000000000000     00000000                                                                                                                        000000000000000000
F0010000005903000001000004175790100011050500000000000000000201406090002001ROSIRIS FERIA HOYOS  (COSM. SHILLER)              D000000001100000000000000000000000100010010000000000000000000000F0010000005903000120140609000101 00000000000000000000000000000000000000000000000000000000000000000000000000000000000000000000000000000000000000000N 00000000000NCONT   00    00000000000          00000000000000000000000000000000000000000000 000000000000000A000000000000000000000000000000000000000000000 000000000000000000000000000000000000000     00000000                                                                                                                        000000000000000000
F0010000005903000002000004175790100041450500000000000000000201406090002001ROSIRIS FERIA HOYOS  (COSM. SHILLER)              C000000001000000000000000000000000100010010000000000000000000000F0010000005903000220140609000101 00000000000000000000000000000000000000000000000000000000000000000000000000000000000000000000000000000000000000000N 00000000000NCONT   00    00000000000          00000000000000000000000000000000000000000000 000000000000000A000000000000000000000000000000000000000000000 000000000000000000000000000000000000000     00000000                                                                                                                        000000000000000000
