F0010000005800000001000089011508200011050500000000000000000201405120002001ALMACEN Y TALLER CICLOCOSTA                       D000000008810000000000000000000000100010010000000000000000000000F0010000005800000120140512000101 00000000000000000000000000000000000000000000000000000000000000000000000000000000000000000000000000000000000000000N 00000000000NCONT   00    00000000000          00000000000000000000000000000000000000000000 000000000000000A000000000000000000000000000000000000000000000 000000000000000000000000000000000000000     00000000                                                                                                                        000000000000000000
F0010000005800000002000089011508200041450500000000000000000201405120002001ALMACEN Y TALLER CICLOCOSTA                       C000000007900000000000000000000000100010010000000000000000000000F0010000005800000220140512000101 00000000000000000000000000000000000000000000000000000000000000000000000000000000000000000000000000000000000000000N 00000000000NCONT   00    00000000000          00000000000000000000000000000000000000000000 000000000000000A000000000000000000000000000000000000000000000 000000000000000000000000000000000000000     00000000                                                                                                                        000000000000000000
F0010000005800000003000089011508200042505000000000000000000201405120002001ALMACEN Y TALLER CICLOCOSTA                       C000000000910000000000000000000000100010010000000000000000000000F0010000005800000320140512000101 00000000000000000000000000000000000000000000000000000000000000000000000000000000000000000000000000000000000000000N 00000000000NCONT   00    00000000000          00000000000000000000000000000000000000000000 000000000000000A000000000000000000000000000000000000000000000 000000000000000000000000000000000000000     00000000                                                                                                                        000000000000000000
F0010000005800000004000089011508200023658300000000000000000201405120002001ALMACEN Y TALLER CICLOCOSTA                       C000000000063200000000000000000000100010010000000000000000000000F0010000005800000420140512000101 00000000000000000000000000000000000000000000000000000000000000000000000000000000000000000000000000000000000000000N 00000000000NCONT   00    00000000000          00000000000000000000000000000000000000000000 000000000000000A000000000000000000000000000000000000000000000 000000000000000000000000000000000000000     00000000                                                                                                                        000000000000000000
F0010000005800000005000089011508200013552100000000000000000201405120002001ALMACEN Y TALLER CICLOCOSTA                       D000000000063200000000000000000000100010010000000000000000000000F0010000005800000520140512000101 00000000000000000000000000000000000000000000000000000000000000000000000000000000000000000000000000000000000000000N 00000000000NCONT   00    00000000000          00000000000000000000000000000000000000000000 000000000000000A000000000000000000000000000000000000000000000 000000000000000000000000000000000000000     00000000                                                                                                                        000000000000000000
F0010000005800100001000000746805700011050500000000000000000201405120002001JOSE SANTAMARIA                                   D000000015000000000000000000000000100010010000000000000000000000F0010000005800100120140512000101 00000000000000000000000000000000000000000000000000000000000000000000000000000000000000000000000000000000000000000N 00000000000NCONT   00    00000000000          00000000000000000000000000000000000000000000 000000000000000A000000000000000000000000000000000000000000000 000000000000000000000000000000000000000     00000000                                                                                                                        000000000000000000
F0010000005800100002000000746805700041450500000000000000000201405120002001JOSE SANTAMARIA                                   C000000015000000000000000000000000100010010000000000000000000000F0010000005800100220140512000101 00000000000000000000000000000000000000000000000000000000000000000000000000000000000000000000000000000000000000000N 00000000000NCONT   00    00000000000          00000000000000000000000000000000000000000000 000000000000000A000000000000000000000000000000000000000000000 000000000000000000000000000000000000000     00000000                                                                                                                        000000000000000000
F0010000005800100003000000746805700042505000000000000000000201405120002001JOSE SANTAMARIA                                   C000000000000000000000000000000000100010010000000000000000000000F0010000005800100320140512000101 00000000000000000000000000000000000000000000000000000000000000000000000000000000000000000000000000000000000000000N 00000000000NCONT   00    00000000000          00000000000000000000000000000000000000000000 000000000000000A000000000000000000000000000000000000000000000 000000000000000000000000000000000000000     00000000                                                                                                                        000000000000000000
F0010000005800100004000000746805700023658300000000000000000201405120002001JOSE SANTAMARIA                                   C000000000120000000000000000000000100010010000000000000000000000F0010000005800100420140512000101 00000000000000000000000000000000000000000000000000000000000000000000000000000000000000000000000000000000000000000N 00000000000NCONT   00    00000000000          00000000000000000000000000000000000000000000 000000000000000A000000000000000000000000000000000000000000000 000000000000000000000000000000000000000     00000000                                                                                                                        000000000000000000
F0010000005800100005000000746805700013552100000000000000000201405120002001JOSE SANTAMARIA                                   D000000000120000000000000000000000100010010000000000000000000000F0010000005800100520140512000101 00000000000000000000000000000000000000000000000000000000000000000000000000000000000000000000000000000000000000000N 00000000000NCONT   00    00000000000          00000000000000000000000000000000000000000000 000000000000000A000000000000000000000000000000000000000000000 000000000000000000000000000000000000000     00000000                                                                                                                        000000000000000000
F0010000005800200001000086000089600013050500000000000000000201405120002001SIKA COLOMBIA S.A.                                D000000007107700000000000000000000100010010000000000000000000000F0010000005800200120140512000101 00000000000000000000000000000000000000000000000000000000000000000000000000000000000000000000000000000000000000000N 00000000000NCONT   00    00000000000          00000000000000000000000000000000000000000000 000000000000000A000000000000000000000000000000000000000000000 000000000000000000000000000000000000000     00000000                                                                                                                        000000000000000000
F0010000005800200002000086000089600041450500000000000000000201405120002001SIKA COLOMBIA S.A.                                C000000006800000000000000000000000100010010000000000000000000000F0010000005800200220140512000101 00000000000000000000000000000000000000000000000000000000000000000000000000000000000000000000000000000000000000000N 00000000000NCONT   00    00000000000          00000000000000000000000000000000000000000000 000000000000000A000000000000000000000000000000000000000000000 000000000000000000000000000000000000000     00000000                                                                                                                        000000000000000000
F0010000005800200003000086000089600042505000000000000000000201405120002001SIKA COLOMBIA S.A.                                C000000000307700000000000000000000100010010000000000000000000000F0010000005800200320140512000101 00000000000000000000000000000000000000000000000000000000000000000000000000000000000000000000000000000000000000000N 00000000000NCONT   00    00000000000          00000000000000000000000000000000000000000000 000000000000000A000000000000000000000000000000000000000000000 000000000000000000000000000000000000000     00000000                                                                                                                        000000000000000000
F0010000005800200004000086000089600023658300000000000000000201405120002001SIKA COLOMBIA S.A.                                C000000000054400000000000000000000100010010000000000000000000000F0010000005800200420140512000101 00000000000000000000000000000000000000000000000000000000000000000000000000000000000000000000000000000000000000000N 00000000000NCONT   00    00000000000          00000000000000000000000000000000000000000000 000000000000000A000000000000000000000000000000000000000000000 000000000000000000000000000000000000000     00000000                                                                                                                        000000000000000000
F0010000005800200005000086000089600013552100000000000000000201405120002001SIKA COLOMBIA S.A.                                D000000000054400000000000000000000100010010000000000000000000000F0010000005800200520140512000101 00000000000000000000000000000000000000000000000000000000000000000000000000000000000000000000000000000000000000000N 00000000000NCONT   00    00000000000          00000000000000000000000000000000000000000000 000000000000000A000000000000000000000000000000000000000000000 000000000000000000000000000000000000000     00000000                                                                                                                        000000000000000000
F0010000005800300001000086000089600013050500000000000000000201405120002001SIKA COLOMBIA S.A.                                D000000057090800000000000000000000100010010000000000000000000000F0010000005800300120140512000101 00000000000000000000000000000000000000000000000000000000000000000000000000000000000000000000000000000000000000000N 00000000000NCONT   00    00000000000          00000000000000000000000000000000000000000000 000000000000000A000000000000000000000000000000000000000000000 000000000000000000000000000000000000000     00000000                                                                                                                        000000000000000000
F0010000005800300002000086000089600041450500000000000000000201405120002001SIKA COLOMBIA S.A.                                C000000048000000000000000000000000100010010000000000000000000000F0010000005800300220140512000101 00000000000000000000000000000000000000000000000000000000000000000000000000000000000000000000000000000000000000000N 00000000000NCONT   00    00000000000          00000000000000000000000000000000000000000000 000000000000000A000000000000000000000000000000000000000000000 000000000000000000000000000000000000000     00000000                                                                                                                        000000000000000000
F0010000005800300003000086000089600042505000000000000000000201405120002001SIKA COLOMBIA S.A.                                C000000009090800000000000000000000100010010000000000000000000000F0010000005800300320140512000101 00000000000000000000000000000000000000000000000000000000000000000000000000000000000000000000000000000000000000000N 00000000000NCONT   00    00000000000          00000000000000000000000000000000000000000000 000000000000000A000000000000000000000000000000000000000000000 000000000000000000000000000000000000000     00000000                                                                                                                        000000000000000000
F0010000005800300004000086000089600023658300000000000000000201405120002001SIKA COLOMBIA S.A.                                C000000000384000000000000000000000100010010000000000000000000000F0010000005800300420140512000101 00000000000000000000000000000000000000000000000000000000000000000000000000000000000000000000000000000000000000000N 00000000000NCONT   00    00000000000          00000000000000000000000000000000000000000000 000000000000000A000000000000000000000000000000000000000000000 000000000000000000000000000000000000000     00000000                                                                                                                        000000000000000000
F0010000005800300005000086000089600013552100000000000000000201405120002001SIKA COLOMBIA S.A.                                D000000000384000000000000000000000100010010000000000000000000000F0010000005800300520140512000101 00000000000000000000000000000000000000000000000000000000000000000000000000000000000000000000000000000000000000000N 00000000000NCONT   00    00000000000          00000000000000000000000000000000000000000000 000000000000000A000000000000000000000000000000000000000000000 000000000000000000000000000000000000000     00000000                                                                                                                        000000000000000000
F0010000005800400001000000870907300011050500000000000000000201405120002001SURTIDOR FERRETERO                                D000000008000000000000000000000000100010010000000000000000000000F0010000005800400120140512000101 00000000000000000000000000000000000000000000000000000000000000000000000000000000000000000000000000000000000000000N 00000000000NCONT   00    00000000000          00000000000000000000000000000000000000000000 000000000000000A000000000000000000000000000000000000000000000 000000000000000000000000000000000000000     00000000                                                                                                                        000000000000000000
F0010000005800400002000000870907300041450500000000000000000201405120002001SURTIDOR FERRETERO                                C000000005200000000000000000000000100010010000000000000000000000F0010000005800400220140512000101 00000000000000000000000000000000000000000000000000000000000000000000000000000000000000000000000000000000000000000N 00000000000NCONT   00    00000000000          00000000000000000000000000000000000000000000 000000000000000A000000000000000000000000000000000000000000000 000000000000000000000000000000000000000     00000000                                                                                                                        000000000000000000
F0010000005800400003000000870907300042505000000000000000000201405120002001SURTIDOR FERRETERO                                C000000002800000000000000000000000100010010000000000000000000000F0010000005800400320140512000101 00000000000000000000000000000000000000000000000000000000000000000000000000000000000000000000000000000000000000000N 00000000000NCONT   00    00000000000          00000000000000000000000000000000000000000000 000000000000000A000000000000000000000000000000000000000000000 000000000000000000000000000000000000000     00000000                                                                                                                        000000000000000000
F0010000005800400004000000870907300023658300000000000000000201405120002001SURTIDOR FERRETERO                                C000000000041600000000000000000000100010010000000000000000000000F0010000005800400420140512000101 00000000000000000000000000000000000000000000000000000000000000000000000000000000000000000000000000000000000000000N 00000000000NCONT   00    00000000000          00000000000000000000000000000000000000000000 000000000000000A000000000000000000000000000000000000000000000 000000000000000000000000000000000000000     00000000                                                                                                                        000000000000000000
F0010000005800400005000000870907300013552100000000000000000201405120002001SURTIDOR FERRETERO                                D000000000041600000000000000000000100010010000000000000000000000F0010000005800400520140512000101 00000000000000000000000000000000000000000000000000000000000000000000000000000000000000000000000000000000000000000N 00000000000NCONT   00    00000000000          00000000000000000000000000000000000000000000 000000000000000A000000000000000000000000000000000000000000000 000000000000000000000000000000000000000     00000000                                                                                                                        000000000000000000
F0010000005800500001000000870907300011050500000000000000000201405120002001SURTIDOR FERRETERO                                D000000003520000000000000000000000100010010000000000000000000000F0010000005800500120140512000101 00000000000000000000000000000000000000000000000000000000000000000000000000000000000000000000000000000000000000000N 00000000000NCONT   00    00000000000          00000000000000000000000000000000000000000000 000000000000000A000000000000000000000000000000000000000000000 000000000000000000000000000000000000000     00000000                                                                                                                        000000000000000000
F0010000005800500002000000870907300041450500000000000000000201405120002001SURTIDOR FERRETERO                                C000000002250000000000000000000000100010010000000000000000000000F0010000005800500220140512000101 00000000000000000000000000000000000000000000000000000000000000000000000000000000000000000000000000000000000000000N 00000000000NCONT   00    00000000000          00000000000000000000000000000000000000000000 000000000000000A000000000000000000000000000000000000000000000 000000000000000000000000000000000000000     00000000                                                                                                                        000000000000000000
F0010000005800500003000000870907300042505000000000000000000201405120002001SURTIDOR FERRETERO                                C000000001270000000000000000000000100010010000000000000000000000F0010000005800500320140512000101 00000000000000000000000000000000000000000000000000000000000000000000000000000000000000000000000000000000000000000N 00000000000NCONT   00    00000000000          00000000000000000000000000000000000000000000 000000000000000A000000000000000000000000000000000000000000000 000000000000000000000000000000000000000     00000000                                                                                                                        000000000000000000
F0010000005800500004000000870907300023658300000000000000000201405120002001SURTIDOR FERRETERO                                C000000000018000000000000000000000100010010000000000000000000000F0010000005800500420140512000101 00000000000000000000000000000000000000000000000000000000000000000000000000000000000000000000000000000000000000000N 00000000000NCONT   00    00000000000          00000000000000000000000000000000000000000000 000000000000000A000000000000000000000000000000000000000000000 000000000000000000000000000000000000000     00000000                                                                                                                        000000000000000000
F0010000005800500005000000870907300013552100000000000000000201405120002001SURTIDOR FERRETERO                                D000000000018000000000000000000000100010010000000000000000000000F0010000005800500520140512000101 00000000000000000000000000000000000000000000000000000000000000000000000000000000000000000000000000000000000000000N 00000000000NCONT   00    00000000000          00000000000000000000000000000000000000000000 000000000000000A000000000000000000000000000000000000000000000 000000000000000000000000000000000000000     00000000                                                                                                                        000000000000000000
F0010000005800600001000007227855000011050500000000000000000201405120002001JUAN DIEGO GUTIERREZ ..                           D000000001000000000000000000000000100010010000000000000000000000F0010000005800600120140512000101 00000000000000000000000000000000000000000000000000000000000000000000000000000000000000000000000000000000000000000N 00000000000NCONT   00    00000000000          00000000000000000000000000000000000000000000 000000000000000A000000000000000000000000000000000000000000000 000000000000000000000000000000000000000     00000000                                                                                                                        000000000000000000
F0010000005800600002000007227855000041450500000000000000000201405120002001JUAN DIEGO GUTIERREZ ..                           C000000000900000000000000000000000100010010000000000000000000000F0010000005800600220140512000101 00000000000000000000000000000000000000000000000000000000000000000000000000000000000000000000000000000000000000000N 00000000000NCONT   00    00000000000          00000000000000000000000000000000000000000000 000000000000000A000000000000000000000000000000000000000000000 000000000000000000000000000000000000000     00000000                                                                                                                        000000000000000000
F0010000005800600003000007227855000042505000000000000000000201405120002001JUAN DIEGO GUTIERREZ ..                           C000000000100000000000000000000000100010010000000000000000000000F0010000005800600320140512000101 00000000000000000000000000000000000000000000000000000000000000000000000000000000000000000000000000000000000000000N 00000000000NCONT   00    00000000000          00000000000000000000000000000000000000000000 000000000000000A000000000000000000000000000000000000000000000 000000000000000000000000000000000000000     00000000                                                                                                                        000000000000000000
F0010000005800600004000007227855000023658300000000000000000201405120002001JUAN DIEGO GUTIERREZ ..                           C000000000007200000000000000000000100010010000000000000000000000F0010000005800600420140512000101 00000000000000000000000000000000000000000000000000000000000000000000000000000000000000000000000000000000000000000N 00000000000NCONT   00    00000000000          00000000000000000000000000000000000000000000 000000000000000A000000000000000000000000000000000000000000000 000000000000000000000000000000000000000     00000000                                                                                                                        000000000000000000
F0010000005800600005000007227855000013552100000000000000000201405120002001JUAN DIEGO GUTIERREZ ..                           D000000000007200000000000000000000100010010000000000000000000000F0010000005800600520140512000101 00000000000000000000000000000000000000000000000000000000000000000000000000000000000000000000000000000000000000000N 00000000000NCONT   00    00000000000          00000000000000000000000000000000000000000000 000000000000000A000000000000000000000000000000000000000000000 000000000000000000000000000000000000000     00000000                                                                                                                        000000000000000000
F0010000005800700001000001502923600011050500000000000000000201405120002001ALCIDES MARTINEZ                                  D000000001200000000000000000000000100010010000000000000000000000F0010000005800700120140512000101 00000000000000000000000000000000000000000000000000000000000000000000000000000000000000000000000000000000000000000N 00000000000NCONT   00    00000000000          00000000000000000000000000000000000000000000 000000000000000A000000000000000000000000000000000000000000000 000000000000000000000000000000000000000     00000000                                                                                                                        000000000000000000
F0010000005800700002000001502923600041450500000000000000000201405120002001ALCIDES MARTINEZ                                  C000000000900000000000000000000000100010010000000000000000000000F0010000005800700220140512000101 00000000000000000000000000000000000000000000000000000000000000000000000000000000000000000000000000000000000000000N 00000000000NCONT   00    00000000000          00000000000000000000000000000000000000000000 000000000000000A000000000000000000000000000000000000000000000 000000000000000000000000000000000000000     00000000                                                                                                                        000000000000000000
F0010000005800700003000001502923600042505000000000000000000201405120002001ALCIDES MARTINEZ                                  C000000000300000000000000000000000100010010000000000000000000000F0010000005800700320140512000101 00000000000000000000000000000000000000000000000000000000000000000000000000000000000000000000000000000000000000000N 00000000000NCONT   00    00000000000          00000000000000000000000000000000000000000000 000000000000000A000000000000000000000000000000000000000000000 000000000000000000000000000000000000000     00000000                                                                                                                        000000000000000000
F0010000005800700004000001502923600023658300000000000000000201405120002001ALCIDES MARTINEZ                                  C000000000007200000000000000000000100010010000000000000000000000F0010000005800700420140512000101 00000000000000000000000000000000000000000000000000000000000000000000000000000000000000000000000000000000000000000N 00000000000NCONT   00    00000000000          00000000000000000000000000000000000000000000 000000000000000A000000000000000000000000000000000000000000000 000000000000000000000000000000000000000     00000000                                                                                                                        000000000000000000
F0010000005800700005000001502923600013552100000000000000000201405120002001ALCIDES MARTINEZ                                  D000000000007200000000000000000000100010010000000000000000000000F0010000005800700520140512000101 00000000000000000000000000000000000000000000000000000000000000000000000000000000000000000000000000000000000000000N 00000000000NCONT   00    00000000000          00000000000000000000000000000000000000000000 000000000000000A000000000000000000000000000000000000000000000 000000000000000000000000000000000000000     00000000                                                                                                                        000000000000000000
F0010000005800800001000090050144800011050500000000000000000201405120002001PLASTICOS JR ASOCIADOS SAS                        D000000007500000000000000000000000100010010000000000000000000000F0010000005800800120140512000101 00000000000000000000000000000000000000000000000000000000000000000000000000000000000000000000000000000000000000000N 00000000000NCONT   00    00000000000          00000000000000000000000000000000000000000000 000000000000000A000000000000000000000000000000000000000000000 000000000000000000000000000000000000000     00000000                                                                                                                        000000000000000000
F0010000005800800002000090050144800041450500000000000000000201405120002001PLASTICOS JR ASOCIADOS SAS                        C000000006800000000000000000000000100010010000000000000000000000F0010000005800800220140512000101 00000000000000000000000000000000000000000000000000000000000000000000000000000000000000000000000000000000000000000N 00000000000NCONT   00    00000000000          00000000000000000000000000000000000000000000 000000000000000A000000000000000000000000000000000000000000000 000000000000000000000000000000000000000     00000000                                                                                                                        000000000000000000
F0010000005800800003000090050144800042505000000000000000000201405120002001PLASTICOS JR ASOCIADOS SAS                        C000000000700000000000000000000000100010010000000000000000000000F0010000005800800320140512000101 00000000000000000000000000000000000000000000000000000000000000000000000000000000000000000000000000000000000000000N 00000000000NCONT   00    00000000000          00000000000000000000000000000000000000000000 000000000000000A000000000000000000000000000000000000000000000 000000000000000000000000000000000000000     00000000                                                                                                                        000000000000000000
F0010000005800800004000090050144800023658300000000000000000201405120002001PLASTICOS JR ASOCIADOS SAS                        C000000000054400000000000000000000100010010000000000000000000000F0010000005800800420140512000101 00000000000000000000000000000000000000000000000000000000000000000000000000000000000000000000000000000000000000000N 00000000000NCONT   00    00000000000          00000000000000000000000000000000000000000000 000000000000000A000000000000000000000000000000000000000000000 000000000000000000000000000000000000000     00000000                                                                                                                        000000000000000000
F0010000005800800005000090050144800013552100000000000000000201405120002001PLASTICOS JR ASOCIADOS SAS                        D000000000054400000000000000000000100010010000000000000000000000F0010000005800800520140512000101 00000000000000000000000000000000000000000000000000000000000000000000000000000000000000000000000000000000000000000N 00000000000NCONT   00    00000000000          00000000000000000000000000000000000000000000 000000000000000A000000000000000000000000000000000000000000000 000000000000000000000000000000000000000     00000000                                                                                                                        000000000000000000
F0010000005800900001000090050144800011050500000000000000000201405120002001PLASTICOS JR ASOCIADOS SAS                        D000000013300000000000000000000000100010010000000000000000000000F0010000005800900120140512000101 00000000000000000000000000000000000000000000000000000000000000000000000000000000000000000000000000000000000000000N 00000000000NCONT   00    00000000000          00000000000000000000000000000000000000000000 000000000000000A000000000000000000000000000000000000000000000 000000000000000000000000000000000000000     00000000                                                                                                                        000000000000000000
F0010000005800900002000090050144800041450500000000000000000201405120002001PLASTICOS JR ASOCIADOS SAS                        C000000012000000000000000000000000100010010000000000000000000000F0010000005800900220140512000101 00000000000000000000000000000000000000000000000000000000000000000000000000000000000000000000000000000000000000000N 00000000000NCONT   00    00000000000          00000000000000000000000000000000000000000000 000000000000000A000000000000000000000000000000000000000000000 000000000000000000000000000000000000000     00000000                                                                                                                        000000000000000000
F0010000005800900003000090050144800042505000000000000000000201405120002001PLASTICOS JR ASOCIADOS SAS                        C000000001300000000000000000000000100010010000000000000000000000F0010000005800900320140512000101 00000000000000000000000000000000000000000000000000000000000000000000000000000000000000000000000000000000000000000N 00000000000NCONT   00    00000000000          00000000000000000000000000000000000000000000 000000000000000A000000000000000000000000000000000000000000000 000000000000000000000000000000000000000     00000000                                                                                                                        000000000000000000
F0010000005800900004000090050144800023658300000000000000000201405120002001PLASTICOS JR ASOCIADOS SAS                        C000000000096000000000000000000000100010010000000000000000000000F0010000005800900420140512000101 00000000000000000000000000000000000000000000000000000000000000000000000000000000000000000000000000000000000000000N 00000000000NCONT   00    00000000000          00000000000000000000000000000000000000000000 000000000000000A000000000000000000000000000000000000000000000 000000000000000000000000000000000000000     00000000                                                                                                                        000000000000000000
F0010000005800900005000090050144800013552100000000000000000201405120002001PLASTICOS JR ASOCIADOS SAS                        D000000000096000000000000000000000100010010000000000000000000000F0010000005800900520140512000101 00000000000000000000000000000000000000000000000000000000000000000000000000000000000000000000000000000000000000000N 00000000000NCONT   00    00000000000          00000000000000000000000000000000000000000000 000000000000000A000000000000000000000000000000000000000000000 000000000000000000000000000000000000000     00000000                                                                                                                        000000000000000000
F0010000005801000001000002245670100011050500000000000000000201405120002001YOLANDA  TOBON                                    D000000003200000000000000000000000100010010000000000000000000000F0010000005801000120140512000101 00000000000000000000000000000000000000000000000000000000000000000000000000000000000000000000000000000000000000000N 00000000000NCONT   00    00000000000          00000000000000000000000000000000000000000000 000000000000000A000000000000000000000000000000000000000000000 000000000000000000000000000000000000000     00000000                                                                                                                        000000000000000000
F0010000005801000002000002245670100041450500000000000000000201405120002001YOLANDA  TOBON                                    C000000002900000000000000000000000100010010000000000000000000000F0010000005801000220140512000101 00000000000000000000000000000000000000000000000000000000000000000000000000000000000000000000000000000000000000000N 00000000000NCONT   00    00000000000          00000000000000000000000000000000000000000000 000000000000000A000000000000000000000000000000000000000000000 000000000000000000000000000000000000000     00000000                                                                                                                        000000000000000000
F0010000005801000003000002245670100042505000000000000000000201405120002001YOLANDA  TOBON                                    C000000000300000000000000000000000100010010000000000000000000000F0010000005801000320140512000101 00000000000000000000000000000000000000000000000000000000000000000000000000000000000000000000000000000000000000000N 00000000000NCONT   00    00000000000          00000000000000000000000000000000000000000000 000000000000000A000000000000000000000000000000000000000000000 000000000000000000000000000000000000000     00000000                                                                                                                        000000000000000000
F0010000005801000004000002245670100023658300000000000000000201405120002001YOLANDA  TOBON                                    C000000000023200000000000000000000100010010000000000000000000000F0010000005801000420140512000101 00000000000000000000000000000000000000000000000000000000000000000000000000000000000000000000000000000000000000000N 00000000000NCONT   00    00000000000          00000000000000000000000000000000000000000000 000000000000000A000000000000000000000000000000000000000000000 000000000000000000000000000000000000000     00000000                                                                                                                        000000000000000000
F0010000005801000005000002245670100013552100000000000000000201405120002001YOLANDA  TOBON                                    D000000000023200000000000000000000100010010000000000000000000000F0010000005801000520140512000101 00000000000000000000000000000000000000000000000000000000000000000000000000000000000000000000000000000000000000000N 00000000000NCONT   00    00000000000          00000000000000000000000000000000000000000000 000000000000000A000000000000000000000000000000000000000000000 000000000000000000000000000000000000000     00000000                                                                                                                        000000000000000000
F0010000005801100001000090055180500011050500000000000000000201405120002001LAMINAS Y SUELAS DE COLOMBIA S.A.S                D000000004800000000000000000000000100010010000000000000000000000F0010000005801100120140512000101 00000000000000000000000000000000000000000000000000000000000000000000000000000000000000000000000000000000000000000N 00000000000NCONT   00    00000000000          00000000000000000000000000000000000000000000 000000000000000A000000000000000000000000000000000000000000000 000000000000000000000000000000000000000     00000000                                                                                                                        000000000000000000
F0010000005801100002000090055180500041450500000000000000000201405120002001LAMINAS Y SUELAS DE COLOMBIA S.A.S                C000000003800000000000000000000000100010010000000000000000000000F0010000005801100220140512000101 00000000000000000000000000000000000000000000000000000000000000000000000000000000000000000000000000000000000000000N 00000000000NCONT   00    00000000000          00000000000000000000000000000000000000000000 000000000000000A000000000000000000000000000000000000000000000 000000000000000000000000000000000000000     00000000                                                                                                                        000000000000000000
F0010000005801100003000090055180500042505000000000000000000201405120002001LAMINAS Y SUELAS DE COLOMBIA S.A.S                C000000001000000000000000000000000100010010000000000000000000000F0010000005801100320140512000101 00000000000000000000000000000000000000000000000000000000000000000000000000000000000000000000000000000000000000000N 00000000000NCONT   00    00000000000          00000000000000000000000000000000000000000000 000000000000000A000000000000000000000000000000000000000000000 000000000000000000000000000000000000000     00000000                                                                                                                        000000000000000000
F0010000005801100004000090055180500023658300000000000000000201405120002001LAMINAS Y SUELAS DE COLOMBIA S.A.S                C000000000030400000000000000000000100010010000000000000000000000F0010000005801100420140512000101 00000000000000000000000000000000000000000000000000000000000000000000000000000000000000000000000000000000000000000N 00000000000NCONT   00    00000000000          00000000000000000000000000000000000000000000 000000000000000A000000000000000000000000000000000000000000000 000000000000000000000000000000000000000     00000000                                                                                                                        000000000000000000
F0010000005801100005000090055180500013552100000000000000000201405120002001LAMINAS Y SUELAS DE COLOMBIA S.A.S                D000000000030400000000000000000000100010010000000000000000000000F0010000005801100520140512000101 00000000000000000000000000000000000000000000000000000000000000000000000000000000000000000000000000000000000000000N 00000000000NCONT   00    00000000000          00000000000000000000000000000000000000000000 000000000000000A000000000000000000000000000000000000000000000 000000000000000000000000000000000000000     00000000                                                                                                                        000000000000000000
F0010000005801200001000090061985600011050500000000000000000201405120002001COMERCIALIZADORA PATRY SAS                        D000000003100000000000000000000000100010010000000000000000000000F0010000005801200120140512000101 00000000000000000000000000000000000000000000000000000000000000000000000000000000000000000000000000000000000000000N 00000000000NCONT   00    00000000000          00000000000000000000000000000000000000000000 000000000000000A000000000000000000000000000000000000000000000 000000000000000000000000000000000000000     00000000                                                                                                                        000000000000000000
F0010000005801200002000090061985600041450500000000000000000201405120002001COMERCIALIZADORA PATRY SAS                        C000000002600000000000000000000000100010010000000000000000000000F0010000005801200220140512000101 00000000000000000000000000000000000000000000000000000000000000000000000000000000000000000000000000000000000000000N 00000000000NCONT   00    00000000000          00000000000000000000000000000000000000000000 000000000000000A000000000000000000000000000000000000000000000 000000000000000000000000000000000000000     00000000                                                                                                                        000000000000000000
F0010000005801200003000090061985600042505000000000000000000201405120002001COMERCIALIZADORA PATRY SAS                        C000000000500000000000000000000000100010010000000000000000000000F0010000005801200320140512000101 00000000000000000000000000000000000000000000000000000000000000000000000000000000000000000000000000000000000000000N 00000000000NCONT   00    00000000000          00000000000000000000000000000000000000000000 000000000000000A000000000000000000000000000000000000000000000 000000000000000000000000000000000000000     00000000                                                                                                                        000000000000000000
F0010000005801200004000090061985600023658300000000000000000201405120002001COMERCIALIZADORA PATRY SAS                        C000000000020800000000000000000000100010010000000000000000000000F0010000005801200420140512000101 00000000000000000000000000000000000000000000000000000000000000000000000000000000000000000000000000000000000000000N 00000000000NCONT   00    00000000000          00000000000000000000000000000000000000000000 000000000000000A000000000000000000000000000000000000000000000 000000000000000000000000000000000000000     00000000                                                                                                                        000000000000000000
F0010000005801200005000090061985600013552100000000000000000201405120002001COMERCIALIZADORA PATRY SAS                        D000000000020800000000000000000000100010010000000000000000000000F0010000005801200520140512000101 00000000000000000000000000000000000000000000000000000000000000000000000000000000000000000000000000000000000000000N 00000000000NCONT   00    00000000000          00000000000000000000000000000000000000000000 000000000000000A000000000000000000000000000000000000000000000 000000000000000000000000000000000000000     00000000                                                                                                                        000000000000000000
F0010000005801300001000089011069100011050500000000000000000201405120002001LA CASA DE LAS ALFOMBRAS LTDA                     D000000001700000000000000000000000100010010000000000000000000000F0010000005801300120140512000101 00000000000000000000000000000000000000000000000000000000000000000000000000000000000000000000000000000000000000000N 00000000000NCONT   00    00000000000          00000000000000000000000000000000000000000000 000000000000000A000000000000000000000000000000000000000000000 000000000000000000000000000000000000000     00000000                                                                                                                        000000000000000000
F0010000005801300002000089011069100041450500000000000000000201405120002001LA CASA DE LAS ALFOMBRAS LTDA                     C000000001200000000000000000000000100010010000000000000000000000F0010000005801300220140512000101 00000000000000000000000000000000000000000000000000000000000000000000000000000000000000000000000000000000000000000N 00000000000NCONT   00    00000000000          00000000000000000000000000000000000000000000 000000000000000A000000000000000000000000000000000000000000000 000000000000000000000000000000000000000     00000000                                                                                                                        000000000000000000
F0010000005801300003000089011069100042505000000000000000000201405120002001LA CASA DE LAS ALFOMBRAS LTDA                     C000000000500000000000000000000000100010010000000000000000000000F0010000005801300320140512000101 00000000000000000000000000000000000000000000000000000000000000000000000000000000000000000000000000000000000000000N 00000000000NCONT   00    00000000000          00000000000000000000000000000000000000000000 000000000000000A000000000000000000000000000000000000000000000 000000000000000000000000000000000000000     00000000                                                                                                                        000000000000000000
F0010000005801300004000089011069100023658300000000000000000201405120002001LA CASA DE LAS ALFOMBRAS LTDA                     C000000000009600000000000000000000100010010000000000000000000000F0010000005801300420140512000101 00000000000000000000000000000000000000000000000000000000000000000000000000000000000000000000000000000000000000000N 00000000000NCONT   00    00000000000          00000000000000000000000000000000000000000000 000000000000000A000000000000000000000000000000000000000000000 000000000000000000000000000000000000000     00000000                                                                                                                        000000000000000000
F0010000005801300005000089011069100013552100000000000000000201405120002001LA CASA DE LAS ALFOMBRAS LTDA                     D000000000009600000000000000000000100010010000000000000000000000F0010000005801300520140512000101 00000000000000000000000000000000000000000000000000000000000000000000000000000000000000000000000000000000000000000N 00000000000NCONT   00    00000000000          00000000000000000000000000000000000000000000 000000000000000A000000000000000000000000000000000000000000000 000000000000000000000000000000000000000     00000000                                                                                                                        000000000000000000
F0010000005801400001000083007900600011050500000000000000000201405120002001EXPRESO ANDINO DE CARGA SA                        D000000001000000000000000000000000100010010000000000000000000000F0010000005801400120140512000101 00000000000000000000000000000000000000000000000000000000000000000000000000000000000000000000000000000000000000000N 00000000000NCONT   00    00000000000          00000000000000000000000000000000000000000000 000000000000000A000000000000000000000000000000000000000000000 000000000000000000000000000000000000000     00000000                                                                                                                        000000000000000000
F0010000005801400002000083007900600041450500000000000000000201405120002001EXPRESO ANDINO DE CARGA SA                        C000000000900000000000000000000000100010010000000000000000000000F0010000005801400220140512000101 00000000000000000000000000000000000000000000000000000000000000000000000000000000000000000000000000000000000000000N 00000000000NCONT   00    00000000000          00000000000000000000000000000000000000000000 000000000000000A000000000000000000000000000000000000000000000 000000000000000000000000000000000000000     00000000                                                                                                                        000000000000000000
F0010000005801400003000083007900600042505000000000000000000201405120002001EXPRESO ANDINO DE CARGA SA                        C000000000100000000000000000000000100010010000000000000000000000F0010000005801400320140512000101 00000000000000000000000000000000000000000000000000000000000000000000000000000000000000000000000000000000000000000N 00000000000NCONT   00    00000000000          00000000000000000000000000000000000000000000 000000000000000A000000000000000000000000000000000000000000000 000000000000000000000000000000000000000     00000000                                                                                                                        000000000000000000
F0010000005801400004000083007900600023658300000000000000000201405120002001EXPRESO ANDINO DE CARGA SA                        C000000000007200000000000000000000100010010000000000000000000000F0010000005801400420140512000101 00000000000000000000000000000000000000000000000000000000000000000000000000000000000000000000000000000000000000000N 00000000000NCONT   00    00000000000          00000000000000000000000000000000000000000000 000000000000000A000000000000000000000000000000000000000000000 000000000000000000000000000000000000000     00000000                                                                                                                        000000000000000000
F0010000005801400005000083007900600013552100000000000000000201405120002001EXPRESO ANDINO DE CARGA SA                        D000000000007200000000000000000000100010010000000000000000000000F0010000005801400520140512000101 00000000000000000000000000000000000000000000000000000000000000000000000000000000000000000000000000000000000000000N 00000000000NCONT   00    00000000000          00000000000000000000000000000000000000000000 000000000000000A000000000000000000000000000000000000000000000 000000000000000000000000000000000000000     00000000                                                                                                                        000000000000000000
F0010000005801500001000080023327700011050500000000000000000201405120002001DISINCO LTDA                                      D000000002200000000000000000000000100010010000000000000000000000F0010000005801500120140512000101 00000000000000000000000000000000000000000000000000000000000000000000000000000000000000000000000000000000000000000N 00000000000NCONT   00    00000000000          00000000000000000000000000000000000000000000 000000000000000A000000000000000000000000000000000000000000000 000000000000000000000000000000000000000     00000000                                                                                                                        000000000000000000
F0010000005801500002000080023327700041450500000000000000000201405120002001DISINCO LTDA                                      C000000002000000000000000000000000100010010000000000000000000000F0010000005801500220140512000101 00000000000000000000000000000000000000000000000000000000000000000000000000000000000000000000000000000000000000000N 00000000000NCONT   00    00000000000          00000000000000000000000000000000000000000000 000000000000000A000000000000000000000000000000000000000000000 000000000000000000000000000000000000000     00000000                                                                                                                        000000000000000000
F0010000005801500003000080023327700042505000000000000000000201405120002001DISINCO LTDA                                      C000000000200000000000000000000000100010010000000000000000000000F0010000005801500320140512000101 00000000000000000000000000000000000000000000000000000000000000000000000000000000000000000000000000000000000000000N 00000000000NCONT   00    00000000000          00000000000000000000000000000000000000000000 000000000000000A000000000000000000000000000000000000000000000 000000000000000000000000000000000000000     00000000                                                                                                                        000000000000000000
F0010000005801500004000080023327700023658300000000000000000201405120002001DISINCO LTDA                                      C000000000016000000000000000000000100010010000000000000000000000F0010000005801500420140512000101 00000000000000000000000000000000000000000000000000000000000000000000000000000000000000000000000000000000000000000N 00000000000NCONT   00    00000000000          00000000000000000000000000000000000000000000 000000000000000A000000000000000000000000000000000000000000000 000000000000000000000000000000000000000     00000000                                                                                                                        000000000000000000
F0010000005801500005000080023327700013552100000000000000000201405120002001DISINCO LTDA                                      D000000000016000000000000000000000100010010000000000000000000000F0010000005801500520140512000101 00000000000000000000000000000000000000000000000000000000000000000000000000000000000000000000000000000000000000000N 00000000000NCONT   00    00000000000          00000000000000000000000000000000000000000000 000000000000000A000000000000000000000000000000000000000000000 000000000000000000000000000000000000000     00000000                                                                                                                        000000000000000000
F0010000005801600001000003276535300011050500000000000000000201405120002001YASLEYS CATAO ESCOBAR                           D000000005560000000000000000000000100010010000000000000000000000F0010000005801600120140512000101 00000000000000000000000000000000000000000000000000000000000000000000000000000000000000000000000000000000000000000N 00000000000NCONT   00    00000000000          00000000000000000000000000000000000000000000 000000000000000A000000000000000000000000000000000000000000000 000000000000000000000000000000000000000     00000000                                                                                                                        000000000000000000
F0010000005801600002000003276535300041450500000000000000000201405120002001YASLEYS CATAO ESCOBAR                           C000000004760000000000000000000000100010010000000000000000000000F0010000005801600220140512000101 00000000000000000000000000000000000000000000000000000000000000000000000000000000000000000000000000000000000000000N 00000000000NCONT   00    00000000000          00000000000000000000000000000000000000000000 000000000000000A000000000000000000000000000000000000000000000 000000000000000000000000000000000000000     00000000                                                                                                                        000000000000000000
F0010000005801600003000003276535300042505000000000000000000201405120002001YASLEYS CATAO ESCOBAR                           C000000000800000000000000000000000100010010000000000000000000000F0010000005801600320140512000101 00000000000000000000000000000000000000000000000000000000000000000000000000000000000000000000000000000000000000000N 00000000000NCONT   00    00000000000          00000000000000000000000000000000000000000000 000000000000000A000000000000000000000000000000000000000000000 000000000000000000000000000000000000000     00000000                                                                                                                        000000000000000000
F0010000005801600004000003276535300023658300000000000000000201405120002001YASLEYS CATAO ESCOBAR                           C000000000038100000000000000000000100010010000000000000000000000F0010000005801600420140512000101 00000000000000000000000000000000000000000000000000000000000000000000000000000000000000000000000000000000000000000N 00000000000NCONT   00    00000000000          00000000000000000000000000000000000000000000 000000000000000A000000000000000000000000000000000000000000000 000000000000000000000000000000000000000     00000000                                                                                                                        000000000000000000
F0010000005801600005000003276535300013552100000000000000000201405120002001YASLEYS CATAO ESCOBAR                           D000000000038100000000000000000000100010010000000000000000000000F0010000005801600520140512000101 00000000000000000000000000000000000000000000000000000000000000000000000000000000000000000000000000000000000000000N 00000000000NCONT   00    00000000000          00000000000000000000000000000000000000000000 000000000000000A000000000000000000000000000000000000000000000 000000000000000000000000000000000000000     00000000                                                                                                                        000000000000000000
F0010000005801700001000003276535300011050500000000000000000201405120002001YASLEYS CATAO ESCOBAR                           D000000008940000000000000000000000100010010000000000000000000000F0010000005801700120140512000101 00000000000000000000000000000000000000000000000000000000000000000000000000000000000000000000000000000000000000000N 00000000000NCONT   00    00000000000          00000000000000000000000000000000000000000000 000000000000000A000000000000000000000000000000000000000000000 000000000000000000000000000000000000000     00000000                                                                                                                        000000000000000000
F0010000005801700002000003276535300041450500000000000000000201405120002001YASLEYS CATAO ESCOBAR                           C000000007140000000000000000000000100010010000000000000000000000F0010000005801700220140512000101 00000000000000000000000000000000000000000000000000000000000000000000000000000000000000000000000000000000000000000N 00000000000NCONT   00    00000000000          00000000000000000000000000000000000000000000 000000000000000A000000000000000000000000000000000000000000000 000000000000000000000000000000000000000     00000000                                                                                                                        000000000000000000
F0010000005801700003000003276535300042505000000000000000000201405120002001YASLEYS CATAO ESCOBAR                           C000000001800000000000000000000000100010010000000000000000000000F0010000005801700320140512000101 00000000000000000000000000000000000000000000000000000000000000000000000000000000000000000000000000000000000000000N 00000000000NCONT   00    00000000000          00000000000000000000000000000000000000000000 000000000000000A000000000000000000000000000000000000000000000 000000000000000000000000000000000000000     00000000                                                                                                                        000000000000000000
F0010000005801700004000003276535300023658300000000000000000201405120002001YASLEYS CATAO ESCOBAR                           C000000000057100000000000000000000100010010000000000000000000000F0010000005801700420140512000101 00000000000000000000000000000000000000000000000000000000000000000000000000000000000000000000000000000000000000000N 00000000000NCONT   00    00000000000          00000000000000000000000000000000000000000000 000000000000000A000000000000000000000000000000000000000000000 000000000000000000000000000000000000000     00000000                                                                                                                        000000000000000000
F0010000005801700005000003276535300013552100000000000000000201405120002001YASLEYS CATAO ESCOBAR                           D000000000057100000000000000000000100010010000000000000000000000F0010000005801700520140512000101 00000000000000000000000000000000000000000000000000000000000000000000000000000000000000000000000000000000000000000N 00000000000NCONT   00    00000000000          00000000000000000000000000000000000000000000 000000000000000A000000000000000000000000000000000000000000000 000000000000000000000000000000000000000     00000000                                                                                                                        000000000000000000
F0010000005801800001000003276535300011050500000000000000000201405120002001YASLEYS CATAO ESCOBAR                           D000000008040000000000000000000000100010010000000000000000000000F0010000005801800120140512000101 00000000000000000000000000000000000000000000000000000000000000000000000000000000000000000000000000000000000000000N 00000000000NCONT   00    00000000000          00000000000000000000000000000000000000000000 000000000000000A000000000000000000000000000000000000000000000 000000000000000000000000000000000000000     00000000                                                                                                                        000000000000000000
F0010000005801800002000003276535300041450500000000000000000201405120002001YASLEYS CATAO ESCOBAR                           C000000007140000000000000000000000100010010000000000000000000000F0010000005801800220140512000101 00000000000000000000000000000000000000000000000000000000000000000000000000000000000000000000000000000000000000000N 00000000000NCONT   00    00000000000          00000000000000000000000000000000000000000000 000000000000000A000000000000000000000000000000000000000000000 000000000000000000000000000000000000000     00000000                                                                                                                        000000000000000000
F0010000005801800003000003276535300042505000000000000000000201405120002001YASLEYS CATAO ESCOBAR                           C000000000900000000000000000000000100010010000000000000000000000F0010000005801800320140512000101 00000000000000000000000000000000000000000000000000000000000000000000000000000000000000000000000000000000000000000N 00000000000NCONT   00    00000000000          00000000000000000000000000000000000000000000 000000000000000A000000000000000000000000000000000000000000000 000000000000000000000000000000000000000     00000000                                                                                                                        000000000000000000
F0010000005801800004000003276535300023658300000000000000000201405120002001YASLEYS CATAO ESCOBAR                           C000000000057100000000000000000000100010010000000000000000000000F0010000005801800420140512000101 00000000000000000000000000000000000000000000000000000000000000000000000000000000000000000000000000000000000000000N 00000000000NCONT   00    00000000000          00000000000000000000000000000000000000000000 000000000000000A000000000000000000000000000000000000000000000 000000000000000000000000000000000000000     00000000                                                                                                                        000000000000000000
F0010000005801800005000003276535300013552100000000000000000201405120002001YASLEYS CATAO ESCOBAR                           D000000000057100000000000000000000100010010000000000000000000000F0010000005801800520140512000101 00000000000000000000000000000000000000000000000000000000000000000000000000000000000000000000000000000000000000000N 00000000000NCONT   00    00000000000          00000000000000000000000000000000000000000000 000000000000000A000000000000000000000000000000000000000000000 000000000000000000000000000000000000000     00000000                                                                                                                        000000000000000000
F0010000005801900001000000431178400011050500000000000000000201405120002001EFRAIN ALVAREZ                                    D000000000900000000000000000000000100010010000000000000000000000F0010000005801900120140512000101 00000000000000000000000000000000000000000000000000000000000000000000000000000000000000000000000000000000000000000N 00000000000NCONT   00    00000000000          00000000000000000000000000000000000000000000 000000000000000A000000000000000000000000000000000000000000000 000000000000000000000000000000000000000     00000000                                                                                                                        000000000000000000
F0010000005801900002000000431178400041450500000000000000000201405120002001EFRAIN ALVAREZ                                    C000000000850000000000000000000000100010010000000000000000000000F0010000005801900220140512000101 00000000000000000000000000000000000000000000000000000000000000000000000000000000000000000000000000000000000000000N 00000000000NCONT   00    00000000000          00000000000000000000000000000000000000000000 000000000000000A000000000000000000000000000000000000000000000 000000000000000000000000000000000000000     00000000                                                                                                                        000000000000000000
F0010000005801900003000000431178400042505000000000000000000201405120002001EFRAIN ALVAREZ                                    C000000000050000000000000000000000100010010000000000000000000000F0010000005801900320140512000101 00000000000000000000000000000000000000000000000000000000000000000000000000000000000000000000000000000000000000000N 00000000000NCONT   00    00000000000          00000000000000000000000000000000000000000000 000000000000000A000000000000000000000000000000000000000000000 000000000000000000000000000000000000000     00000000                                                                                                                        000000000000000000
F0010000005801900004000000431178400023658300000000000000000201405120002001EFRAIN ALVAREZ                                    C000000000006800000000000000000000100010010000000000000000000000F0010000005801900420140512000101 00000000000000000000000000000000000000000000000000000000000000000000000000000000000000000000000000000000000000000N 00000000000NCONT   00    00000000000          00000000000000000000000000000000000000000000 000000000000000A000000000000000000000000000000000000000000000 000000000000000000000000000000000000000     00000000                                                                                                                        000000000000000000
F0010000005801900005000000431178400013552100000000000000000201405120002001EFRAIN ALVAREZ                                    D000000000006800000000000000000000100010010000000000000000000000F0010000005801900520140512000101 00000000000000000000000000000000000000000000000000000000000000000000000000000000000000000000000000000000000000000N 00000000000NCONT   00    00000000000          00000000000000000000000000000000000000000000 000000000000000A000000000000000000000000000000000000000000000 000000000000000000000000000000000000000     00000000                                                                                                                        000000000000000000
F0010000005802000001000000431178400011050500000000000000000201405120002001EFRAIN ALVAREZ                                    D000000000900000000000000000000000100010010000000000000000000000F0010000005802000120140512000101 00000000000000000000000000000000000000000000000000000000000000000000000000000000000000000000000000000000000000000N 00000000000NCONT   00    00000000000          00000000000000000000000000000000000000000000 000000000000000A000000000000000000000000000000000000000000000 000000000000000000000000000000000000000     00000000                                                                                                                        000000000000000000
F0010000005802000002000000431178400041450500000000000000000201405120002001EFRAIN ALVAREZ                                    C000000000850000000000000000000000100010010000000000000000000000F0010000005802000220140512000101 00000000000000000000000000000000000000000000000000000000000000000000000000000000000000000000000000000000000000000N 00000000000NCONT   00    00000000000          00000000000000000000000000000000000000000000 000000000000000A000000000000000000000000000000000000000000000 000000000000000000000000000000000000000     00000000                                                                                                                        000000000000000000
F0010000005802000003000000431178400042505000000000000000000201405120002001EFRAIN ALVAREZ                                    C000000000050000000000000000000000100010010000000000000000000000F0010000005802000320140512000101 00000000000000000000000000000000000000000000000000000000000000000000000000000000000000000000000000000000000000000N 00000000000NCONT   00    00000000000          00000000000000000000000000000000000000000000 000000000000000A000000000000000000000000000000000000000000000 000000000000000000000000000000000000000     00000000                                                                                                                        000000000000000000
F0010000005802000004000000431178400023658300000000000000000201405120002001EFRAIN ALVAREZ                                    C000000000006800000000000000000000100010010000000000000000000000F0010000005802000420140512000101 00000000000000000000000000000000000000000000000000000000000000000000000000000000000000000000000000000000000000000N 00000000000NCONT   00    00000000000          00000000000000000000000000000000000000000000 000000000000000A000000000000000000000000000000000000000000000 000000000000000000000000000000000000000     00000000                                                                                                                        000000000000000000
F0010000005802000005000000431178400013552100000000000000000201405120002001EFRAIN ALVAREZ                                    D000000000006800000000000000000000100010010000000000000000000000F0010000005802000520140512000101 00000000000000000000000000000000000000000000000000000000000000000000000000000000000000000000000000000000000000000N 00000000000NCONT   00    00000000000          00000000000000000000000000000000000000000000 000000000000000A000000000000000000000000000000000000000000000 000000000000000000000000000000000000000     00000000                                                                                                                        000000000000000000
F0010000005802100001000003314755400011050500000000000000000201405120002001RUMATEX DE COLOMBIA                               D000000001400000000000000000000000100010010000000000000000000000F0010000005802100120140512000101 00000000000000000000000000000000000000000000000000000000000000000000000000000000000000000000000000000000000000000N 00000000000NCONT   00    00000000000          00000000000000000000000000000000000000000000 000000000000000A000000000000000000000000000000000000000000000 000000000000000000000000000000000000000     00000000                                                                                                                        000000000000000000
F0010000005802100002000003314755400041450500000000000000000201405120002001RUMATEX DE COLOMBIA                               C000000001200000000000000000000000100010010000000000000000000000F0010000005802100220140512000101 00000000000000000000000000000000000000000000000000000000000000000000000000000000000000000000000000000000000000000N 00000000000NCONT   00    00000000000          00000000000000000000000000000000000000000000 000000000000000A000000000000000000000000000000000000000000000 000000000000000000000000000000000000000     00000000                                                                                                                        000000000000000000
F0010000005802100003000003314755400042505000000000000000000201405120002001RUMATEX DE COLOMBIA                               C000000000200000000000000000000000100010010000000000000000000000F0010000005802100320140512000101 00000000000000000000000000000000000000000000000000000000000000000000000000000000000000000000000000000000000000000N 00000000000NCONT   00    00000000000          00000000000000000000000000000000000000000000 000000000000000A000000000000000000000000000000000000000000000 000000000000000000000000000000000000000     00000000                                                                                                                        000000000000000000
F0010000005802100004000003314755400023658300000000000000000201405120002001RUMATEX DE COLOMBIA                               C000000000009600000000000000000000100010010000000000000000000000F0010000005802100420140512000101 00000000000000000000000000000000000000000000000000000000000000000000000000000000000000000000000000000000000000000N 00000000000NCONT   00    00000000000          00000000000000000000000000000000000000000000 000000000000000A000000000000000000000000000000000000000000000 000000000000000000000000000000000000000     00000000                                                                                                                        000000000000000000
F0010000005802100005000003314755400013552100000000000000000201405120002001RUMATEX DE COLOMBIA                               D000000000009600000000000000000000100010010000000000000000000000F0010000005802100520140512000101 00000000000000000000000000000000000000000000000000000000000000000000000000000000000000000000000000000000000000000N 00000000000NCONT   00    00000000000          00000000000000000000000000000000000000000000 000000000000000A000000000000000000000000000000000000000000000 000000000000000000000000000000000000000     00000000                                                                                                                        000000000000000000
F0010000005802200001000090024619400011050500000000000000000201405120002001COMERCIALIZADORA SALMAR LTDA                      D000000001400000000000000000000000100010010000000000000000000000F0010000005802200120140512000101 00000000000000000000000000000000000000000000000000000000000000000000000000000000000000000000000000000000000000000N 00000000000NCONT   00    00000000000          00000000000000000000000000000000000000000000 000000000000000A000000000000000000000000000000000000000000000 000000000000000000000000000000000000000     00000000                                                                                                                        000000000000000000
F0010000005802200002000090024619400041450500000000000000000201405120002001COMERCIALIZADORA SALMAR LTDA                      C000000000900000000000000000000000100010010000000000000000000000F0010000005802200220140512000101 00000000000000000000000000000000000000000000000000000000000000000000000000000000000000000000000000000000000000000N 00000000000NCONT   00    00000000000          00000000000000000000000000000000000000000000 000000000000000A000000000000000000000000000000000000000000000 000000000000000000000000000000000000000     00000000                                                                                                                        000000000000000000
F0010000005802200003000090024619400042505000000000000000000201405120002001COMERCIALIZADORA SALMAR LTDA                      C000000000500000000000000000000000100010010000000000000000000000F0010000005802200320140512000101 00000000000000000000000000000000000000000000000000000000000000000000000000000000000000000000000000000000000000000N 00000000000NCONT   00    00000000000          00000000000000000000000000000000000000000000 000000000000000A000000000000000000000000000000000000000000000 000000000000000000000000000000000000000     00000000                                                                                                                        000000000000000000
F0010000005802200004000090024619400023658300000000000000000201405120002001COMERCIALIZADORA SALMAR LTDA                      C000000000007200000000000000000000100010010000000000000000000000F0010000005802200420140512000101 00000000000000000000000000000000000000000000000000000000000000000000000000000000000000000000000000000000000000000N 00000000000NCONT   00    00000000000          00000000000000000000000000000000000000000000 000000000000000A000000000000000000000000000000000000000000000 000000000000000000000000000000000000000     00000000                                                                                                                        000000000000000000
F0010000005802200005000090024619400013552100000000000000000201405120002001COMERCIALIZADORA SALMAR LTDA                      D000000000007200000000000000000000100010010000000000000000000000F0010000005802200520140512000101 00000000000000000000000000000000000000000000000000000000000000000000000000000000000000000000000000000000000000000N 00000000000NCONT   00    00000000000          00000000000000000000000000000000000000000000 000000000000000A000000000000000000000000000000000000000000000 000000000000000000000000000000000000000     00000000                                                                                                                        000000000000000000
F0010000005802300001000090024619400011050500000000000000000201405120002001COMERCIALIZADORA SALMAR LTDA                      D000000001400000000000000000000000100010010000000000000000000000F0010000005802300120140512000101 00000000000000000000000000000000000000000000000000000000000000000000000000000000000000000000000000000000000000000N 00000000000NCONT   00    00000000000          00000000000000000000000000000000000000000000 000000000000000A000000000000000000000000000000000000000000000 000000000000000000000000000000000000000     00000000                                                                                                                        000000000000000000
F0010000005802300002000090024619400041450500000000000000000201405120002001COMERCIALIZADORA SALMAR LTDA                      C000000000900000000000000000000000100010010000000000000000000000F0010000005802300220140512000101 00000000000000000000000000000000000000000000000000000000000000000000000000000000000000000000000000000000000000000N 00000000000NCONT   00    00000000000          00000000000000000000000000000000000000000000 000000000000000A000000000000000000000000000000000000000000000 000000000000000000000000000000000000000     00000000                                                                                                                        000000000000000000
F0010000005802300003000090024619400042505000000000000000000201405120002001COMERCIALIZADORA SALMAR LTDA                      C000000000500000000000000000000000100010010000000000000000000000F0010000005802300320140512000101 00000000000000000000000000000000000000000000000000000000000000000000000000000000000000000000000000000000000000000N 00000000000NCONT   00    00000000000          00000000000000000000000000000000000000000000 000000000000000A000000000000000000000000000000000000000000000 000000000000000000000000000000000000000     00000000                                                                                                                        000000000000000000
F0010000005802300004000090024619400023658300000000000000000201405120002001COMERCIALIZADORA SALMAR LTDA                      C000000000007200000000000000000000100010010000000000000000000000F0010000005802300420140512000101 00000000000000000000000000000000000000000000000000000000000000000000000000000000000000000000000000000000000000000N 00000000000NCONT   00    00000000000          00000000000000000000000000000000000000000000 000000000000000A000000000000000000000000000000000000000000000 000000000000000000000000000000000000000     00000000                                                                                                                        000000000000000000
F0010000005802300005000090024619400013552100000000000000000201405120002001COMERCIALIZADORA SALMAR LTDA                      D000000000007200000000000000000000100010010000000000000000000000F0010000005802300520140512000101 00000000000000000000000000000000000000000000000000000000000000000000000000000000000000000000000000000000000000000N 00000000000NCONT   00    00000000000          00000000000000000000000000000000000000000000 000000000000000A000000000000000000000000000000000000000000000 000000000000000000000000000000000000000     00000000                                                                                                                        000000000000000000
F0010000005802400001000001022529300011050500000000000000000201405120002001ALBERTO ALVAREZ ISAZA                             D000000000750000000000000000000000100010010000000000000000000000F0010000005802400120140512000101 00000000000000000000000000000000000000000000000000000000000000000000000000000000000000000000000000000000000000000N 00000000000NCONT   00    00000000000          00000000000000000000000000000000000000000000 000000000000000A000000000000000000000000000000000000000000000 000000000000000000000000000000000000000     00000000                                                                                                                        000000000000000000
F0010000005802400002000001022529300041450500000000000000000201405120002001ALBERTO ALVAREZ ISAZA                             C000000000700000000000000000000000100010010000000000000000000000F0010000005802400220140512000101 00000000000000000000000000000000000000000000000000000000000000000000000000000000000000000000000000000000000000000N 00000000000NCONT   00    00000000000          00000000000000000000000000000000000000000000 000000000000000A000000000000000000000000000000000000000000000 000000000000000000000000000000000000000     00000000                                                                                                                        000000000000000000
F0010000005802400003000001022529300042505000000000000000000201405120002001ALBERTO ALVAREZ ISAZA                             C000000000050000000000000000000000100010010000000000000000000000F0010000005802400320140512000101 00000000000000000000000000000000000000000000000000000000000000000000000000000000000000000000000000000000000000000N 00000000000NCONT   00    00000000000          00000000000000000000000000000000000000000000 000000000000000A000000000000000000000000000000000000000000000 000000000000000000000000000000000000000     00000000                                                                                                                        000000000000000000
F0010000005802400004000001022529300023658300000000000000000201405120002001ALBERTO ALVAREZ ISAZA                             C000000000005600000000000000000000100010010000000000000000000000F0010000005802400420140512000101 00000000000000000000000000000000000000000000000000000000000000000000000000000000000000000000000000000000000000000N 00000000000NCONT   00    00000000000          00000000000000000000000000000000000000000000 000000000000000A000000000000000000000000000000000000000000000 000000000000000000000000000000000000000     00000000                                                                                                                        000000000000000000
F0010000005802400005000001022529300013552100000000000000000201405120002001ALBERTO ALVAREZ ISAZA                             D000000000005600000000000000000000100010010000000000000000000000F0010000005802400520140512000101 00000000000000000000000000000000000000000000000000000000000000000000000000000000000000000000000000000000000000000N 00000000000NCONT   00    00000000000          00000000000000000000000000000000000000000000 000000000000000A000000000000000000000000000000000000000000000 000000000000000000000000000000000000000     00000000                                                                                                                        000000000000000000
F0010000005802500001000001022529300011050500000000000000000201405120002001ALBERTO ALVAREZ ISAZA                             D000000001200000000000000000000000100010010000000000000000000000F0010000005802500120140512000101 00000000000000000000000000000000000000000000000000000000000000000000000000000000000000000000000000000000000000000N 00000000000NCONT   00    00000000000          00000000000000000000000000000000000000000000 000000000000000A000000000000000000000000000000000000000000000 000000000000000000000000000000000000000     00000000                                                                                                                        000000000000000000
F0010000005802500002000001022529300041450500000000000000000201405120002001ALBERTO ALVAREZ ISAZA                             C000000001050000000000000000000000100010010000000000000000000000F0010000005802500220140512000101 00000000000000000000000000000000000000000000000000000000000000000000000000000000000000000000000000000000000000000N 00000000000NCONT   00    00000000000          00000000000000000000000000000000000000000000 000000000000000A000000000000000000000000000000000000000000000 000000000000000000000000000000000000000     00000000                                                                                                                        000000000000000000
F0010000005802500003000001022529300042505000000000000000000201405120002001ALBERTO ALVAREZ ISAZA                             C000000000150000000000000000000000100010010000000000000000000000F0010000005802500320140512000101 00000000000000000000000000000000000000000000000000000000000000000000000000000000000000000000000000000000000000000N 00000000000NCONT   00    00000000000          00000000000000000000000000000000000000000000 000000000000000A000000000000000000000000000000000000000000000 000000000000000000000000000000000000000     00000000                                                                                                                        000000000000000000
F0010000005802500004000001022529300023658300000000000000000201405120002001ALBERTO ALVAREZ ISAZA                             C000000000008400000000000000000000100010010000000000000000000000F0010000005802500420140512000101 00000000000000000000000000000000000000000000000000000000000000000000000000000000000000000000000000000000000000000N 00000000000NCONT   00    00000000000          00000000000000000000000000000000000000000000 000000000000000A000000000000000000000000000000000000000000000 000000000000000000000000000000000000000     00000000                                                                                                                        000000000000000000
F0010000005802500005000001022529300013552100000000000000000201405120002001ALBERTO ALVAREZ ISAZA                             D000000000008400000000000000000000100010010000000000000000000000F0010000005802500520140512000101 00000000000000000000000000000000000000000000000000000000000000000000000000000000000000000000000000000000000000000N 00000000000NCONT   00    00000000000          00000000000000000000000000000000000000000000 000000000000000A000000000000000000000000000000000000000000000 000000000000000000000000000000000000000     00000000                                                                                                                        000000000000000000
F0010000005802600001000007223972300011050500000000000000000201405120002001LUIS VALENCIA                                     D000000005800000000000000000000000100010010000000000000000000000F0010000005802600120140512000101 00000000000000000000000000000000000000000000000000000000000000000000000000000000000000000000000000000000000000000N 00000000000NCONT   00    00000000000          00000000000000000000000000000000000000000000 000000000000000A000000000000000000000000000000000000000000000 000000000000000000000000000000000000000     00000000                                                                                                                        000000000000000000
F0010000005802600002000007223972300041450500000000000000000201405120002001LUIS VALENCIA                                     C000000005400000000000000000000000100010010000000000000000000000F0010000005802600220140512000101 00000000000000000000000000000000000000000000000000000000000000000000000000000000000000000000000000000000000000000N 00000000000NCONT   00    00000000000          00000000000000000000000000000000000000000000 000000000000000A000000000000000000000000000000000000000000000 000000000000000000000000000000000000000     00000000                                                                                                                        000000000000000000
F0010000005802600003000007223972300042505000000000000000000201405120002001LUIS VALENCIA                                     C000000000400000000000000000000000100010010000000000000000000000F0010000005802600320140512000101 00000000000000000000000000000000000000000000000000000000000000000000000000000000000000000000000000000000000000000N 00000000000NCONT   00    00000000000          00000000000000000000000000000000000000000000 000000000000000A000000000000000000000000000000000000000000000 000000000000000000000000000000000000000     00000000                                                                                                                        000000000000000000
F0010000005802600004000007223972300023658300000000000000000201405120002001LUIS VALENCIA                                     C000000000043200000000000000000000100010010000000000000000000000F0010000005802600420140512000101 00000000000000000000000000000000000000000000000000000000000000000000000000000000000000000000000000000000000000000N 00000000000NCONT   00    00000000000          00000000000000000000000000000000000000000000 000000000000000A000000000000000000000000000000000000000000000 000000000000000000000000000000000000000     00000000                                                                                                                        000000000000000000
F0010000005802600005000007223972300013552100000000000000000201405120002001LUIS VALENCIA                                     D000000000043200000000000000000000100010010000000000000000000000F0010000005802600520140512000101 00000000000000000000000000000000000000000000000000000000000000000000000000000000000000000000000000000000000000000N 00000000000NCONT   00    00000000000          00000000000000000000000000000000000000000000 000000000000000A000000000000000000000000000000000000000000000 000000000000000000000000000000000000000     00000000                                                                                                                        000000000000000000
F0010000005802700001000090037881900011050500000000000000000201405120002001COMERCIALIZADORA RACOPI S.A.S                     D000000001100000000000000000000000100010010000000000000000000000F0010000005802700120140512000101 00000000000000000000000000000000000000000000000000000000000000000000000000000000000000000000000000000000000000000N 00000000000NCONT   00    00000000000          00000000000000000000000000000000000000000000 000000000000000A000000000000000000000000000000000000000000000 000000000000000000000000000000000000000     00000000                                                                                                                        000000000000000000
F0010000005802700002000090037881900041450500000000000000000201405120002001COMERCIALIZADORA RACOPI S.A.S                     C000000001000000000000000000000000100010010000000000000000000000F0010000005802700220140512000101 00000000000000000000000000000000000000000000000000000000000000000000000000000000000000000000000000000000000000000N 00000000000NCONT   00    00000000000          00000000000000000000000000000000000000000000 000000000000000A000000000000000000000000000000000000000000000 000000000000000000000000000000000000000     00000000                                                                                                                        000000000000000000
F0010000005802700003000090037881900042505000000000000000000201405120002001COMERCIALIZADORA RACOPI S.A.S                     C000000000100000000000000000000000100010010000000000000000000000F0010000005802700320140512000101 00000000000000000000000000000000000000000000000000000000000000000000000000000000000000000000000000000000000000000N 00000000000NCONT   00    00000000000          00000000000000000000000000000000000000000000 000000000000000A000000000000000000000000000000000000000000000 000000000000000000000000000000000000000     00000000                                                                                                                        000000000000000000
F0010000005802700004000090037881900023658300000000000000000201405120002001COMERCIALIZADORA RACOPI S.A.S                     C000000000008000000000000000000000100010010000000000000000000000F0010000005802700420140512000101 00000000000000000000000000000000000000000000000000000000000000000000000000000000000000000000000000000000000000000N 00000000000NCONT   00    00000000000          00000000000000000000000000000000000000000000 000000000000000A000000000000000000000000000000000000000000000 000000000000000000000000000000000000000     00000000                                                                                                                        000000000000000000
F0010000005802700005000090037881900013552100000000000000000201405120002001COMERCIALIZADORA RACOPI S.A.S                     D000000000008000000000000000000000100010010000000000000000000000F0010000005802700520140512000101 00000000000000000000000000000000000000000000000000000000000000000000000000000000000000000000000000000000000000000N 00000000000NCONT   00    00000000000          00000000000000000000000000000000000000000000 000000000000000A000000000000000000000000000000000000000000000 000000000000000000000000000000000000000     00000000                                                                                                                        000000000000000000
F0010000005802800001000007200023300011050500000000000000000201405120002001WILLIAM ORTEGA                                    D000000003000000000000000000000000100010010000000000000000000000F0010000005802800120140512000101 00000000000000000000000000000000000000000000000000000000000000000000000000000000000000000000000000000000000000000N 00000000000NCONT   00    00000000000          00000000000000000000000000000000000000000000 000000000000000A000000000000000000000000000000000000000000000 000000000000000000000000000000000000000     00000000                                                                                                                        000000000000000000
F0010000005802800002000007200023300041450500000000000000000201405120002001WILLIAM ORTEGA                                    C000000002700000000000000000000000100010010000000000000000000000F0010000005802800220140512000101 00000000000000000000000000000000000000000000000000000000000000000000000000000000000000000000000000000000000000000N 00000000000NCONT   00    00000000000          00000000000000000000000000000000000000000000 000000000000000A000000000000000000000000000000000000000000000 000000000000000000000000000000000000000     00000000                                                                                                                        000000000000000000
F0010000005802800003000007200023300042505000000000000000000201405120002001WILLIAM ORTEGA                                    C000000000300000000000000000000000100010010000000000000000000000F0010000005802800320140512000101 00000000000000000000000000000000000000000000000000000000000000000000000000000000000000000000000000000000000000000N 00000000000NCONT   00    00000000000          00000000000000000000000000000000000000000000 000000000000000A000000000000000000000000000000000000000000000 000000000000000000000000000000000000000     00000000                                                                                                                        000000000000000000
F0010000005802800004000007200023300023658300000000000000000201405120002001WILLIAM ORTEGA                                    C000000000021600000000000000000000100010010000000000000000000000F0010000005802800420140512000101 00000000000000000000000000000000000000000000000000000000000000000000000000000000000000000000000000000000000000000N 00000000000NCONT   00    00000000000          00000000000000000000000000000000000000000000 000000000000000A000000000000000000000000000000000000000000000 000000000000000000000000000000000000000     00000000                                                                                                                        000000000000000000
F0010000005802800005000007200023300013552100000000000000000201405120002001WILLIAM ORTEGA                                    D000000000021600000000000000000000100010010000000000000000000000F0010000005802800520140512000101 00000000000000000000000000000000000000000000000000000000000000000000000000000000000000000000000000000000000000000N 00000000000NCONT   00    00000000000          00000000000000000000000000000000000000000000 000000000000000A000000000000000000000000000000000000000000000 000000000000000000000000000000000000000     00000000                                                                                                                        000000000000000000
F0010000005802900001000007200023300011050500000000000000000201405120002001WILLIAM ORTEGA                                    D000000001500000000000000000000000100010010000000000000000000000F0010000005802900120140512000101 00000000000000000000000000000000000000000000000000000000000000000000000000000000000000000000000000000000000000000N 00000000000NCONT   00    00000000000          00000000000000000000000000000000000000000000 000000000000000A000000000000000000000000000000000000000000000 000000000000000000000000000000000000000     00000000                                                                                                                        000000000000000000
F0010000005802900002000007200023300041450500000000000000000201405120002001WILLIAM ORTEGA                                    C000000001300000000000000000000000100010010000000000000000000000F0010000005802900220140512000101 00000000000000000000000000000000000000000000000000000000000000000000000000000000000000000000000000000000000000000N 00000000000NCONT   00    00000000000          00000000000000000000000000000000000000000000 000000000000000A000000000000000000000000000000000000000000000 000000000000000000000000000000000000000     00000000                                                                                                                        000000000000000000
