F0010000007616900001000001535146600011050500000000000000000201509130002001ORLANDO OROZCO NAVARRO                            D000000002500000000000000000000000100010010000000000000000000000F0010000007616900120150913000101 00000000000000000000000000000000000000000000000000000000000000000000000000000000000000000000000000000000000000000N 00000000000NCONT   00    00000000000          00000000000000000000000000000000000000000000 000000000000000A000000000000000000000000000000000000000000000 000000000000000000000000000000000000000     00000000                                                                                                                        000000000000000000
F0010000007616900002000001535146600041450500000000000000000201509130002001ORLANDO OROZCO NAVARRO                            C000000002400000000000000000000000100010010000000000000000000000F0010000007616900220150913000101 00000000000000000000000000000000000000000000000000000000000000000000000000000000000000000000000000000000000000000N 00000000000NCONT   00    00000000000          00000000000000000000000000000000000000000000 000000000000000A000000000000000000000000000000000000000000000 000000000000000000000000000000000000000     00000000                                                                                                                        000000000000000000
F0010000007616900003000001535146600042505000000000000000000201509130002001ORLANDO OROZCO NAVARRO                            C000000000100000000000000000000000100010010000000000000000000000F0010000007616900320150913000101 00000000000000000000000000000000000000000000000000000000000000000000000000000000000000000000000000000000000000000N 00000000000NCONT   00    00000000000          00000000000000000000000000000000000000000000 000000000000000A000000000000000000000000000000000000000000000 000000000000000000000000000000000000000     00000000                                                                                                                        000000000000000000
F0010000007616900004000001535146600023658300000000000000000201509130002001ORLANDO OROZCO NAVARRO                            C000000000019200000000000000000000100010010000000000000000000000F0010000007616900420150913000101 00000000000000000000000000000000000000000000000000000000000000000000000000000000000000000000000000000000000000000N 00000000000NCONT   00    00000000000          00000000000000000000000000000000000000000000 000000000000000A000000000000000000000000000000000000000000000 000000000000000000000000000000000000000     00000000                                                                                                                        000000000000000000
F0010000007616900005000001535146600013552100000000000000000201509130002001ORLANDO OROZCO NAVARRO                            D000000000019200000000000000000000100010010000000000000000000000F0010000007616900520150913000101 00000000000000000000000000000000000000000000000000000000000000000000000000000000000000000000000000000000000000000N 00000000000NCONT   00    00000000000          00000000000000000000000000000000000000000000 000000000000000A000000000000000000000000000000000000000000000 000000000000000000000000000000000000000     00000000                                                                                                                        000000000000000000
F0010000007617000001000080001161300011050500000000000000000201509130002001FERRETERIA OPTIMA                                 D000000003700000000000000000000000100010010000000000000000000000F0010000007617000120150913000101 00000000000000000000000000000000000000000000000000000000000000000000000000000000000000000000000000000000000000000N 00000000000NCONT   00    00000000000          00000000000000000000000000000000000000000000 000000000000000A000000000000000000000000000000000000000000000 000000000000000000000000000000000000000     00000000                                                                                                                        000000000000000000
F0010000007617000002000080001161300041450500000000000000000201509130002001FERRETERIA OPTIMA                                 C000000002700000000000000000000000100010010000000000000000000000F0010000007617000220150913000101 00000000000000000000000000000000000000000000000000000000000000000000000000000000000000000000000000000000000000000N 00000000000NCONT   00    00000000000          00000000000000000000000000000000000000000000 000000000000000A000000000000000000000000000000000000000000000 000000000000000000000000000000000000000     00000000                                                                                                                        000000000000000000
F0010000007617000003000080001161300042505000000000000000000201509130002001FERRETERIA OPTIMA                                 C000000001000000000000000000000000100010010000000000000000000000F0010000007617000320150913000101 00000000000000000000000000000000000000000000000000000000000000000000000000000000000000000000000000000000000000000N 00000000000NCONT   00    00000000000          00000000000000000000000000000000000000000000 000000000000000A000000000000000000000000000000000000000000000 000000000000000000000000000000000000000     00000000                                                                                                                        000000000000000000
F0010000007617000004000080001161300023658300000000000000000201509130002001FERRETERIA OPTIMA                                 C000000000021600000000000000000000100010010000000000000000000000F0010000007617000420150913000101 00000000000000000000000000000000000000000000000000000000000000000000000000000000000000000000000000000000000000000N 00000000000NCONT   00    00000000000          00000000000000000000000000000000000000000000 000000000000000A000000000000000000000000000000000000000000000 000000000000000000000000000000000000000     00000000                                                                                                                        000000000000000000
F0010000007617000005000080001161300013552100000000000000000201509130002001FERRETERIA OPTIMA                                 D000000000021600000000000000000000100010010000000000000000000000F0010000007617000520150913000101 00000000000000000000000000000000000000000000000000000000000000000000000000000000000000000000000000000000000000000N 00000000000NCONT   00    00000000000          00000000000000000000000000000000000000000000 000000000000000A000000000000000000000000000000000000000000000 000000000000000000000000000000000000000     00000000                                                                                                                        000000000000000000
