F0010000005777800001000000860054200011050500000000000000000201405070002001HENRY DE LA HOZ                                   D000000003200000000000000000000000100010010000000000000000000000F0010000005777800120140507000101 00000000000000000000000000000000000000000000000000000000000000000000000000000000000000000000000000000000000000000N 00000000000NCONT   00    00000000000          00000000000000000000000000000000000000000000 000000000000000A000000000000000000000000000000000000000000000 000000000000000000000000000000000000000     00000000                                                                                                                        000000000000000000
F0010000005777800002000000860054200041450500000000000000000201405070002001HENRY DE LA HOZ                                   C000000002500000000000000000000000100010010000000000000000000000F0010000005777800220140507000101 00000000000000000000000000000000000000000000000000000000000000000000000000000000000000000000000000000000000000000N 00000000000NCONT   00    00000000000          00000000000000000000000000000000000000000000 000000000000000A000000000000000000000000000000000000000000000 000000000000000000000000000000000000000     00000000                                                                                                                        000000000000000000
F0010000005777800003000000860054200042505000000000000000000201405070002001HENRY DE LA HOZ                                   C000000000700000000000000000000000100010010000000000000000000000F0010000005777800320140507000101 00000000000000000000000000000000000000000000000000000000000000000000000000000000000000000000000000000000000000000N 00000000000NCONT   00    00000000000          00000000000000000000000000000000000000000000 000000000000000A000000000000000000000000000000000000000000000 000000000000000000000000000000000000000     00000000                                                                                                                        000000000000000000
F0010000005777800004000000860054200023658300000000000000000201405070002001HENRY DE LA HOZ                                   C000000000020000000000000000000000100010010000000000000000000000F0010000005777800420140507000101 00000000000000000000000000000000000000000000000000000000000000000000000000000000000000000000000000000000000000000N 00000000000NCONT   00    00000000000          00000000000000000000000000000000000000000000 000000000000000A000000000000000000000000000000000000000000000 000000000000000000000000000000000000000     00000000                                                                                                                        000000000000000000
F0010000005777800005000000860054200013552100000000000000000201405070002001HENRY DE LA HOZ                                   D000000000020000000000000000000000100010010000000000000000000000F0010000005777800520140507000101 00000000000000000000000000000000000000000000000000000000000000000000000000000000000000000000000000000000000000000N 00000000000NCONT   00    00000000000          00000000000000000000000000000000000000000000 000000000000000A000000000000000000000000000000000000000000000 000000000000000000000000000000000000000     00000000                                                                                                                        000000000000000000
F0010000005777900001000000860054200011050500000000000000000201405070002001HENRY DE LA HOZ                                   D000000001500000000000000000000000100010010000000000000000000000F0010000005777900120140507000101 00000000000000000000000000000000000000000000000000000000000000000000000000000000000000000000000000000000000000000N 00000000000NCONT   00    00000000000          00000000000000000000000000000000000000000000 000000000000000A000000000000000000000000000000000000000000000 000000000000000000000000000000000000000     00000000                                                                                                                        000000000000000000
F0010000005777900002000000860054200041450500000000000000000201405070002001HENRY DE LA HOZ                                   C000000001300000000000000000000000100010010000000000000000000000F0010000005777900220140507000101 00000000000000000000000000000000000000000000000000000000000000000000000000000000000000000000000000000000000000000N 00000000000NCONT   00    00000000000          00000000000000000000000000000000000000000000 000000000000000A000000000000000000000000000000000000000000000 000000000000000000000000000000000000000     00000000                                                                                                                        000000000000000000
F0010000005777900003000000860054200042505000000000000000000201405070002001HENRY DE LA HOZ                                   C000000000200000000000000000000000100010010000000000000000000000F0010000005777900320140507000101 00000000000000000000000000000000000000000000000000000000000000000000000000000000000000000000000000000000000000000N 00000000000NCONT   00    00000000000          00000000000000000000000000000000000000000000 000000000000000A000000000000000000000000000000000000000000000 000000000000000000000000000000000000000     00000000                                                                                                                        000000000000000000
F0010000005777900004000000860054200023658300000000000000000201405070002001HENRY DE LA HOZ                                   C000000000010400000000000000000000100010010000000000000000000000F0010000005777900420140507000101 00000000000000000000000000000000000000000000000000000000000000000000000000000000000000000000000000000000000000000N 00000000000NCONT   00    00000000000          00000000000000000000000000000000000000000000 000000000000000A000000000000000000000000000000000000000000000 000000000000000000000000000000000000000     00000000                                                                                                                        000000000000000000
F0010000005777900005000000860054200013552100000000000000000201405070002001HENRY DE LA HOZ                                   D000000000010400000000000000000000100010010000000000000000000000F0010000005777900520140507000101 00000000000000000000000000000000000000000000000000000000000000000000000000000000000000000000000000000000000000000N 00000000000NCONT   00    00000000000          00000000000000000000000000000000000000000000 000000000000000A000000000000000000000000000000000000000000000 000000000000000000000000000000000000000     00000000                                                                                                                        000000000000000000
F0010000005778000001000000742033200011050500000000000000000201405070002001EUSEBIO DE SALES                                  D000000009000000000000000000000000100010010000000000000000000000F0010000005778000120140507000101 00000000000000000000000000000000000000000000000000000000000000000000000000000000000000000000000000000000000000000N 00000000000NCONT   00    00000000000          00000000000000000000000000000000000000000000 000000000000000A000000000000000000000000000000000000000000000 000000000000000000000000000000000000000     00000000                                                                                                                        000000000000000000
F0010000005778000002000000742033200041450500000000000000000201405070002001EUSEBIO DE SALES                                  C000000008200000000000000000000000100010010000000000000000000000F0010000005778000220140507000101 00000000000000000000000000000000000000000000000000000000000000000000000000000000000000000000000000000000000000000N 00000000000NCONT   00    00000000000          00000000000000000000000000000000000000000000 000000000000000A000000000000000000000000000000000000000000000 000000000000000000000000000000000000000     00000000                                                                                                                        000000000000000000
F0010000005778000003000000742033200042505000000000000000000201405070002001EUSEBIO DE SALES                                  C000000000800000000000000000000000100010010000000000000000000000F0010000005778000320140507000101 00000000000000000000000000000000000000000000000000000000000000000000000000000000000000000000000000000000000000000N 00000000000NCONT   00    00000000000          00000000000000000000000000000000000000000000 000000000000000A000000000000000000000000000000000000000000000 000000000000000000000000000000000000000     00000000                                                                                                                        000000000000000000
F0010000005778000004000000742033200023658300000000000000000201405070002001EUSEBIO DE SALES                                  C000000000065600000000000000000000100010010000000000000000000000F0010000005778000420140507000101 00000000000000000000000000000000000000000000000000000000000000000000000000000000000000000000000000000000000000000N 00000000000NCONT   00    00000000000          00000000000000000000000000000000000000000000 000000000000000A000000000000000000000000000000000000000000000 000000000000000000000000000000000000000     00000000                                                                                                                        000000000000000000
F0010000005778000005000000742033200013552100000000000000000201405070002001EUSEBIO DE SALES                                  D000000000065600000000000000000000100010010000000000000000000000F0010000005778000520140507000101 00000000000000000000000000000000000000000000000000000000000000000000000000000000000000000000000000000000000000000N 00000000000NCONT   00    00000000000          00000000000000000000000000000000000000000000 000000000000000A000000000000000000000000000000000000000000000 000000000000000000000000000000000000000     00000000                                                                                                                        000000000000000000
F0010000005778100001000000742033200011050500000000000000000201405070002001EUSEBIO DE SALES                                  D000000002000000000000000000000000100010010000000000000000000000F0010000005778100120140507000101 00000000000000000000000000000000000000000000000000000000000000000000000000000000000000000000000000000000000000000N 00000000000NCONT   00    00000000000          00000000000000000000000000000000000000000000 000000000000000A000000000000000000000000000000000000000000000 000000000000000000000000000000000000000     00000000                                                                                                                        000000000000000000
F0010000005778100002000000742033200041450500000000000000000201405070002001EUSEBIO DE SALES                                  C000000001900000000000000000000000100010010000000000000000000000F0010000005778100220140507000101 00000000000000000000000000000000000000000000000000000000000000000000000000000000000000000000000000000000000000000N 00000000000NCONT   00    00000000000          00000000000000000000000000000000000000000000 000000000000000A000000000000000000000000000000000000000000000 000000000000000000000000000000000000000     00000000                                                                                                                        000000000000000000
F0010000005778100003000000742033200042505000000000000000000201405070002001EUSEBIO DE SALES                                  C000000000100000000000000000000000100010010000000000000000000000F0010000005778100320140507000101 00000000000000000000000000000000000000000000000000000000000000000000000000000000000000000000000000000000000000000N 00000000000NCONT   00    00000000000          00000000000000000000000000000000000000000000 000000000000000A000000000000000000000000000000000000000000000 000000000000000000000000000000000000000     00000000                                                                                                                        000000000000000000
F0010000005778100004000000742033200023658300000000000000000201405070002001EUSEBIO DE SALES                                  C000000000015200000000000000000000100010010000000000000000000000F0010000005778100420140507000101 00000000000000000000000000000000000000000000000000000000000000000000000000000000000000000000000000000000000000000N 00000000000NCONT   00    00000000000          00000000000000000000000000000000000000000000 000000000000000A000000000000000000000000000000000000000000000 000000000000000000000000000000000000000     00000000                                                                                                                        000000000000000000
F0010000005778100005000000742033200013552100000000000000000201405070002001EUSEBIO DE SALES                                  D000000000015200000000000000000000100010010000000000000000000000F0010000005778100520140507000101 00000000000000000000000000000000000000000000000000000000000000000000000000000000000000000000000000000000000000000N 00000000000NCONT   00    00000000000          00000000000000000000000000000000000000000000 000000000000000A000000000000000000000000000000000000000000000 000000000000000000000000000000000000000     00000000                                                                                                                        000000000000000000
F0010000005778200001000090019362000013050500000000000000000201405070002001GENERAL SUPPLIES CIA LTDA                         D000000034368000000000000000000000100010010000000000000000000000F0010000005778200120140507000101 00000000000000000000000000000000000000000000000000000000000000000000000000000000000000000000000000000000000000000N 00000000000NCONT   00    00000000000          00000000000000000000000000000000000000000000 000000000000000A000000000000000000000000000000000000000000000 000000000000000000000000000000000000000     00000000                                                                                                                        000000000000000000
F0010000005778200002000090019362000041450500000000000000000201405070002001GENERAL SUPPLIES CIA LTDA                         C000000029275000000000000000000000100010010000000000000000000000F0010000005778200220140507000101 00000000000000000000000000000000000000000000000000000000000000000000000000000000000000000000000000000000000000000N 00000000000NCONT   00    00000000000          00000000000000000000000000000000000000000000 000000000000000A000000000000000000000000000000000000000000000 000000000000000000000000000000000000000     00000000                                                                                                                        000000000000000000
F0010000005778200003000090019362000042505000000000000000000201405070002001GENERAL SUPPLIES CIA LTDA                         C000000005093000000000000000000000100010010000000000000000000000F0010000005778200320140507000101 00000000000000000000000000000000000000000000000000000000000000000000000000000000000000000000000000000000000000000N 00000000000NCONT   00    00000000000          00000000000000000000000000000000000000000000 000000000000000A000000000000000000000000000000000000000000000 000000000000000000000000000000000000000     00000000                                                                                                                        000000000000000000
F0010000005778200004000090019362000023658300000000000000000201405070002001GENERAL SUPPLIES CIA LTDA                         C000000000234200000000000000000000100010010000000000000000000000F0010000005778200420140507000101 00000000000000000000000000000000000000000000000000000000000000000000000000000000000000000000000000000000000000000N 00000000000NCONT   00    00000000000          00000000000000000000000000000000000000000000 000000000000000A000000000000000000000000000000000000000000000 000000000000000000000000000000000000000     00000000                                                                                                                        000000000000000000
F0010000005778200005000090019362000013552100000000000000000201405070002001GENERAL SUPPLIES CIA LTDA                         D000000000234200000000000000000000100010010000000000000000000000F0010000005778200520140507000101 00000000000000000000000000000000000000000000000000000000000000000000000000000000000000000000000000000000000000000N 00000000000NCONT   00    00000000000          00000000000000000000000000000000000000000000 000000000000000A000000000000000000000000000000000000000000000 000000000000000000000000000000000000000     00000000                                                                                                                        000000000000000000
F0010000005778300001000090050863700013050500000000000000000201405070002001COMERCIALIZADORA PERFECT SAS                      D000000016398600000000000000000000100010010000000000000000000000F0010000005778300120140507000101 00000000000000000000000000000000000000000000000000000000000000000000000000000000000000000000000000000000000000000N 00000000000NCONT   00    00000000000          00000000000000000000000000000000000000000000 000000000000000A000000000000000000000000000000000000000000000 000000000000000000000000000000000000000     00000000                                                                                                                        000000000000000000
F0010000005778300002000090050863700041450500000000000000000201405070002001COMERCIALIZADORA PERFECT SAS                      C000000014448600000000000000000000100010010000000000000000000000F0010000005778300220140507000101 00000000000000000000000000000000000000000000000000000000000000000000000000000000000000000000000000000000000000000N 00000000000NCONT   00    00000000000          00000000000000000000000000000000000000000000 000000000000000A000000000000000000000000000000000000000000000 000000000000000000000000000000000000000     00000000                                                                                                                        000000000000000000
F0010000005778300003000090050863700042505000000000000000000201405070002001COMERCIALIZADORA PERFECT SAS                      C000000001950000000000000000000000100010010000000000000000000000F0010000005778300320140507000101 00000000000000000000000000000000000000000000000000000000000000000000000000000000000000000000000000000000000000000N 00000000000NCONT   00    00000000000          00000000000000000000000000000000000000000000 000000000000000A000000000000000000000000000000000000000000000 000000000000000000000000000000000000000     00000000                                                                                                                        000000000000000000
F0010000005778300004000090050863700023658300000000000000000201405070002001COMERCIALIZADORA PERFECT SAS                      C000000000115600000000000000000000100010010000000000000000000000F0010000005778300420140507000101 00000000000000000000000000000000000000000000000000000000000000000000000000000000000000000000000000000000000000000N 00000000000NCONT   00    00000000000          00000000000000000000000000000000000000000000 000000000000000A000000000000000000000000000000000000000000000 000000000000000000000000000000000000000     00000000                                                                                                                        000000000000000000
F0010000005778300005000090050863700013552100000000000000000201405070002001COMERCIALIZADORA PERFECT SAS                      D000000000115600000000000000000000100010010000000000000000000000F0010000005778300520140507000101 00000000000000000000000000000000000000000000000000000000000000000000000000000000000000000000000000000000000000000N 00000000000NCONT   00    00000000000          00000000000000000000000000000000000000000000 000000000000000A000000000000000000000000000000000000000000000 000000000000000000000000000000000000000     00000000                                                                                                                        000000000000000000
F0010000005778400001000090037881900013050500000000000000000201405070002001COMERCIALIZADORA RACOPI S.A.S                     D000000013810000000000000000000000100010010000000000000000000000F0010000005778400120140507000101 00000000000000000000000000000000000000000000000000000000000000000000000000000000000000000000000000000000000000000N 00000000000NCONT   00    00000000000          00000000000000000000000000000000000000000000 000000000000000A000000000000000000000000000000000000000000000 000000000000000000000000000000000000000     00000000                                                                                                                        000000000000000000
F0010000005778400002000090037881900041450500000000000000000201405070002001COMERCIALIZADORA RACOPI S.A.S                     C000000011410000000000000000000000100010010000000000000000000000F0010000005778400220140507000101 00000000000000000000000000000000000000000000000000000000000000000000000000000000000000000000000000000000000000000N 00000000000NCONT   00    00000000000          00000000000000000000000000000000000000000000 000000000000000A000000000000000000000000000000000000000000000 000000000000000000000000000000000000000     00000000                                                                                                                        000000000000000000
F0010000005778400003000090037881900042505000000000000000000201405070002001COMERCIALIZADORA RACOPI S.A.S                     C000000002400000000000000000000000100010010000000000000000000000F0010000005778400320140507000101 00000000000000000000000000000000000000000000000000000000000000000000000000000000000000000000000000000000000000000N 00000000000NCONT   00    00000000000          00000000000000000000000000000000000000000000 000000000000000A000000000000000000000000000000000000000000000 000000000000000000000000000000000000000     00000000                                                                                                                        000000000000000000
F0010000005778400004000090037881900023658300000000000000000201405070002001COMERCIALIZADORA RACOPI S.A.S                     C000000000091300000000000000000000100010010000000000000000000000F0010000005778400420140507000101 00000000000000000000000000000000000000000000000000000000000000000000000000000000000000000000000000000000000000000N 00000000000NCONT   00    00000000000          00000000000000000000000000000000000000000000 000000000000000A000000000000000000000000000000000000000000000 000000000000000000000000000000000000000     00000000                                                                                                                        000000000000000000
F0010000005778400005000090037881900013552100000000000000000201405070002001COMERCIALIZADORA RACOPI S.A.S                     D000000000091300000000000000000000100010010000000000000000000000F0010000005778400520140507000101 00000000000000000000000000000000000000000000000000000000000000000000000000000000000000000000000000000000000000000N 00000000000NCONT   00    00000000000          00000000000000000000000000000000000000000000 000000000000000A000000000000000000000000000000000000000000000 000000000000000000000000000000000000000     00000000                                                                                                                        000000000000000000
F0010000005778500001000089011719700013050500000000000000000201405070002001REP. MUNERA GALARZA LTDA (FRANCISCO MUNERA)       D000000007245000000000000000000000100010010000000000000000000000F0010000005778500120140507000101 00000000000000000000000000000000000000000000000000000000000000000000000000000000000000000000000000000000000000000N 00000000000NCONT   00    00000000000          00000000000000000000000000000000000000000000 000000000000000A000000000000000000000000000000000000000000000 000000000000000000000000000000000000000     00000000                                                                                                                        000000000000000000
F0010000005778500002000089011719700041450500000000000000000201405070002001REP. MUNERA GALARZA LTDA (FRANCISCO MUNERA)       C000000005370000000000000000000000100010010000000000000000000000F0010000005778500220140507000101 00000000000000000000000000000000000000000000000000000000000000000000000000000000000000000000000000000000000000000N 00000000000NCONT   00    00000000000          00000000000000000000000000000000000000000000 000000000000000A000000000000000000000000000000000000000000000 000000000000000000000000000000000000000     00000000                                                                                                                        000000000000000000
F0010000005778500003000089011719700042505000000000000000000201405070002001REP. MUNERA GALARZA LTDA (FRANCISCO MUNERA)       C000000001875000000000000000000000100010010000000000000000000000F0010000005778500320140507000101 00000000000000000000000000000000000000000000000000000000000000000000000000000000000000000000000000000000000000000N 00000000000NCONT   00    00000000000          00000000000000000000000000000000000000000000 000000000000000A000000000000000000000000000000000000000000000 000000000000000000000000000000000000000     00000000                                                                                                                        000000000000000000
F0010000005778500004000089011719700023658300000000000000000201405070002001REP. MUNERA GALARZA LTDA (FRANCISCO MUNERA)       C000000000043000000000000000000000100010010000000000000000000000F0010000005778500420140507000101 00000000000000000000000000000000000000000000000000000000000000000000000000000000000000000000000000000000000000000N 00000000000NCONT   00    00000000000          00000000000000000000000000000000000000000000 000000000000000A000000000000000000000000000000000000000000000 000000000000000000000000000000000000000     00000000                                                                                                                        000000000000000000
F0010000005778500005000089011719700013552100000000000000000201405070002001REP. MUNERA GALARZA LTDA (FRANCISCO MUNERA)       D000000000043000000000000000000000100010010000000000000000000000F0010000005778500520140507000101 00000000000000000000000000000000000000000000000000000000000000000000000000000000000000000000000000000000000000000N 00000000000NCONT   00    00000000000          00000000000000000000000000000000000000000000 000000000000000A000000000000000000000000000000000000000000000 000000000000000000000000000000000000000     00000000                                                                                                                        000000000000000000
F0010000005778600001000083050133900011050500000000000000000201405070002001VALTAC DEL CARIBE LTDA                            D000000002000000000000000000000000100010010000000000000000000000F0010000005778600120140507000101 00000000000000000000000000000000000000000000000000000000000000000000000000000000000000000000000000000000000000000N 00000000000NCONT   00    00000000000          00000000000000000000000000000000000000000000 000000000000000A000000000000000000000000000000000000000000000 000000000000000000000000000000000000000     00000000                                                                                                                        000000000000000000
F0010000005778600002000083050133900041450500000000000000000201405070002001VALTAC DEL CARIBE LTDA                            C000000001800000000000000000000000100010010000000000000000000000F0010000005778600220140507000101 00000000000000000000000000000000000000000000000000000000000000000000000000000000000000000000000000000000000000000N 00000000000NCONT   00    00000000000          00000000000000000000000000000000000000000000 000000000000000A000000000000000000000000000000000000000000000 000000000000000000000000000000000000000     00000000                                                                                                                        000000000000000000
F0010000005778600003000083050133900042505000000000000000000201405070002001VALTAC DEL CARIBE LTDA                            C000000000200000000000000000000000100010010000000000000000000000F0010000005778600320140507000101 00000000000000000000000000000000000000000000000000000000000000000000000000000000000000000000000000000000000000000N 00000000000NCONT   00    00000000000          00000000000000000000000000000000000000000000 000000000000000A000000000000000000000000000000000000000000000 000000000000000000000000000000000000000     00000000                                                                                                                        000000000000000000
F0010000005778600004000083050133900023658300000000000000000201405070002001VALTAC DEL CARIBE LTDA                            C000000000014400000000000000000000100010010000000000000000000000F0010000005778600420140507000101 00000000000000000000000000000000000000000000000000000000000000000000000000000000000000000000000000000000000000000N 00000000000NCONT   00    00000000000          00000000000000000000000000000000000000000000 000000000000000A000000000000000000000000000000000000000000000 000000000000000000000000000000000000000     00000000                                                                                                                        000000000000000000
F0010000005778600005000083050133900013552100000000000000000201405070002001VALTAC DEL CARIBE LTDA                            D000000000014400000000000000000000100010010000000000000000000000F0010000005778600520140507000101 00000000000000000000000000000000000000000000000000000000000000000000000000000000000000000000000000000000000000000N 00000000000NCONT   00    00000000000          00000000000000000000000000000000000000000000 000000000000000A000000000000000000000000000000000000000000000 000000000000000000000000000000000000000     00000000                                                                                                                        000000000000000000
F0010000005778700001000090044920600013050500000000000000000201405070002001QUATRO CARIBE SAS                                 D000000023070000000000000000000000100010010000000000000000000000F0010000005778700120140507000101 00000000000000000000000000000000000000000000000000000000000000000000000000000000000000000000000000000000000000000N 00000000000NCONT   00    00000000000          00000000000000000000000000000000000000000000 000000000000000A000000000000000000000000000000000000000000000 000000000000000000000000000000000000000     00000000                                                                                                                        000000000000000000
F0010000005778700002000090044920600041450500000000000000000201405070002001QUATRO CARIBE SAS                                 C000000017490000000000000000000000100010010000000000000000000000F0010000005778700220140507000101 00000000000000000000000000000000000000000000000000000000000000000000000000000000000000000000000000000000000000000N 00000000000NCONT   00    00000000000          00000000000000000000000000000000000000000000 000000000000000A000000000000000000000000000000000000000000000 000000000000000000000000000000000000000     00000000                                                                                                                        000000000000000000
F0010000005778700003000090044920600042505000000000000000000201405070002001QUATRO CARIBE SAS                                 C000000005580000000000000000000000100010010000000000000000000000F0010000005778700320140507000101 00000000000000000000000000000000000000000000000000000000000000000000000000000000000000000000000000000000000000000N 00000000000NCONT   00    00000000000          00000000000000000000000000000000000000000000 000000000000000A000000000000000000000000000000000000000000000 000000000000000000000000000000000000000     00000000                                                                                                                        000000000000000000
F0010000005778700004000090044920600023658300000000000000000201405070002001QUATRO CARIBE SAS                                 C000000000139900000000000000000000100010010000000000000000000000F0010000005778700420140507000101 00000000000000000000000000000000000000000000000000000000000000000000000000000000000000000000000000000000000000000N 00000000000NCONT   00    00000000000          00000000000000000000000000000000000000000000 000000000000000A000000000000000000000000000000000000000000000 000000000000000000000000000000000000000     00000000                                                                                                                        000000000000000000
F0010000005778700005000090044920600013552100000000000000000201405070002001QUATRO CARIBE SAS                                 D000000000139900000000000000000000100010010000000000000000000000F0010000005778700520140507000101 00000000000000000000000000000000000000000000000000000000000000000000000000000000000000000000000000000000000000000N 00000000000NCONT   00    00000000000          00000000000000000000000000000000000000000000 000000000000000A000000000000000000000000000000000000000000000 000000000000000000000000000000000000000     00000000                                                                                                                        000000000000000000
F0010000005778800001000001022529300013050500000000000000000201405070002001ALBERTO ALVAREZ ISAZA                             D000000002350000000000000000000000100010010000000000000000000000F0010000005778800120140507000101 00000000000000000000000000000000000000000000000000000000000000000000000000000000000000000000000000000000000000000N 00000000000NCONT   00    00000000000          00000000000000000000000000000000000000000000 000000000000000A000000000000000000000000000000000000000000000 000000000000000000000000000000000000000     00000000                                                                                                                        000000000000000000
F0010000005778800002000001022529300041450500000000000000000201405070002001ALBERTO ALVAREZ ISAZA                             C000000002100000000000000000000000100010010000000000000000000000F0010000005778800220140507000101 00000000000000000000000000000000000000000000000000000000000000000000000000000000000000000000000000000000000000000N 00000000000NCONT   00    00000000000          00000000000000000000000000000000000000000000 000000000000000A000000000000000000000000000000000000000000000 000000000000000000000000000000000000000     00000000                                                                                                                        000000000000000000
F0010000005778800003000001022529300042505000000000000000000201405070002001ALBERTO ALVAREZ ISAZA                             C000000000250000000000000000000000100010010000000000000000000000F0010000005778800320140507000101 00000000000000000000000000000000000000000000000000000000000000000000000000000000000000000000000000000000000000000N 00000000000NCONT   00    00000000000          00000000000000000000000000000000000000000000 000000000000000A000000000000000000000000000000000000000000000 000000000000000000000000000000000000000     00000000                                                                                                                        000000000000000000
F0010000005778800004000001022529300023658300000000000000000201405070002001ALBERTO ALVAREZ ISAZA                             C000000000016800000000000000000000100010010000000000000000000000F0010000005778800420140507000101 00000000000000000000000000000000000000000000000000000000000000000000000000000000000000000000000000000000000000000N 00000000000NCONT   00    00000000000          00000000000000000000000000000000000000000000 000000000000000A000000000000000000000000000000000000000000000 000000000000000000000000000000000000000     00000000                                                                                                                        000000000000000000
F0010000005778800005000001022529300013552100000000000000000201405070002001ALBERTO ALVAREZ ISAZA                             D000000000016800000000000000000000100010010000000000000000000000F0010000005778800520140507000101 00000000000000000000000000000000000000000000000000000000000000000000000000000000000000000000000000000000000000000N 00000000000NCONT   00    00000000000          00000000000000000000000000000000000000000000 000000000000000A000000000000000000000000000000000000000000000 000000000000000000000000000000000000000     00000000                                                                                                                        000000000000000000
F0010000005778900001000000868487100013050500000000000000000201405070002001JAIME PIÑEROS                                    D000000006990000000000000000000000100010010000000000000000000000F0010000005778900120140507000101 00000000000000000000000000000000000000000000000000000000000000000000000000000000000000000000000000000000000000000N 00000000000NCONT   00    00000000000          00000000000000000000000000000000000000000000 000000000000000A000000000000000000000000000000000000000000000 000000000000000000000000000000000000000     00000000                                                                                                                        000000000000000000
F0010000005778900002000000868487100041450500000000000000000201405070002001JAIME PIÑEROS                                    C000000005660000000000000000000000100010010000000000000000000000F0010000005778900220140507000101 00000000000000000000000000000000000000000000000000000000000000000000000000000000000000000000000000000000000000000N 00000000000NCONT   00    00000000000          00000000000000000000000000000000000000000000 000000000000000A000000000000000000000000000000000000000000000 000000000000000000000000000000000000000     00000000                                                                                                                        000000000000000000
F0010000005778900003000000868487100042505000000000000000000201405070002001JAIME PIÑEROS                                    C000000001330000000000000000000000100010010000000000000000000000F0010000005778900320140507000101 00000000000000000000000000000000000000000000000000000000000000000000000000000000000000000000000000000000000000000N 00000000000NCONT   00    00000000000          00000000000000000000000000000000000000000000 000000000000000A000000000000000000000000000000000000000000000 000000000000000000000000000000000000000     00000000                                                                                                                        000000000000000000
F0010000005778900004000000868487100023658300000000000000000201405070002001JAIME PIÑEROS                                    C000000000045300000000000000000000100010010000000000000000000000F0010000005778900420140507000101 00000000000000000000000000000000000000000000000000000000000000000000000000000000000000000000000000000000000000000N 00000000000NCONT   00    00000000000          00000000000000000000000000000000000000000000 000000000000000A000000000000000000000000000000000000000000000 000000000000000000000000000000000000000     00000000                                                                                                                        000000000000000000
F0010000005778900005000000868487100013552100000000000000000201405070002001JAIME PIÑEROS                                    D000000000045300000000000000000000100010010000000000000000000000F0010000005778900520140507000101 00000000000000000000000000000000000000000000000000000000000000000000000000000000000000000000000000000000000000000N 00000000000NCONT   00    00000000000          00000000000000000000000000000000000000000000 000000000000000A000000000000000000000000000000000000000000000 000000000000000000000000000000000000000     00000000                                                                                                                        000000000000000000
F0010000005779000001000001719393900013050500000000000000000201405070002001JAIRO BASTIDAS RAMIREZ                            D000000034670000000000000000000000100010010000000000000000000000F0010000005779000120140507000101 00000000000000000000000000000000000000000000000000000000000000000000000000000000000000000000000000000000000000000N 00000000000NCONT   00    00000000000          00000000000000000000000000000000000000000000 000000000000000A000000000000000000000000000000000000000000000 000000000000000000000000000000000000000     00000000                                                                                                                        000000000000000000
F0010000005779000002000001719393900041450500000000000000000201405070002001JAIRO BASTIDAS RAMIREZ                            C000000031800000000000000000000000100010010000000000000000000000F0010000005779000220140507000101 00000000000000000000000000000000000000000000000000000000000000000000000000000000000000000000000000000000000000000N 00000000000NCONT   00    00000000000          00000000000000000000000000000000000000000000 000000000000000A000000000000000000000000000000000000000000000 000000000000000000000000000000000000000     00000000                                                                                                                        000000000000000000
F0010000005779000003000001719393900042505000000000000000000201405070002001JAIRO BASTIDAS RAMIREZ                            C000000002870000000000000000000000100010010000000000000000000000F0010000005779000320140507000101 00000000000000000000000000000000000000000000000000000000000000000000000000000000000000000000000000000000000000000N 00000000000NCONT   00    00000000000          00000000000000000000000000000000000000000000 000000000000000A000000000000000000000000000000000000000000000 000000000000000000000000000000000000000     00000000                                                                                                                        000000000000000000
F0010000005779000004000001719393900023658300000000000000000201405070002001JAIRO BASTIDAS RAMIREZ                            C000000000254400000000000000000000100010010000000000000000000000F0010000005779000420140507000101 00000000000000000000000000000000000000000000000000000000000000000000000000000000000000000000000000000000000000000N 00000000000NCONT   00    00000000000          00000000000000000000000000000000000000000000 000000000000000A000000000000000000000000000000000000000000000 000000000000000000000000000000000000000     00000000                                                                                                                        000000000000000000
F0010000005779000005000001719393900013552100000000000000000201405070002001JAIRO BASTIDAS RAMIREZ                            D000000000254400000000000000000000100010010000000000000000000000F0010000005779000520140507000101 00000000000000000000000000000000000000000000000000000000000000000000000000000000000000000000000000000000000000000N 00000000000NCONT   00    00000000000          00000000000000000000000000000000000000000000 000000000000000A000000000000000000000000000000000000000000000 000000000000000000000000000000000000000     00000000                                                                                                                        000000000000000000
F0010000005779100001000107225647100013050500000000000000000201405070002001JHON BYRON DUQUE DONADO (BODEGA JHONIFER)         D000000006300000000000000000000000100010010000000000000000000000F0010000005779100120140507000101 00000000000000000000000000000000000000000000000000000000000000000000000000000000000000000000000000000000000000000N 00000000000NCONT   00    00000000000          00000000000000000000000000000000000000000000 000000000000000A000000000000000000000000000000000000000000000 000000000000000000000000000000000000000     00000000                                                                                                                        000000000000000000
F0010000005779100002000107225647100041450500000000000000000201405070002001JHON BYRON DUQUE DONADO (BODEGA JHONIFER)         C000000005600000000000000000000000100010010000000000000000000000F0010000005779100220140507000101 00000000000000000000000000000000000000000000000000000000000000000000000000000000000000000000000000000000000000000N 00000000000NCONT   00    00000000000          00000000000000000000000000000000000000000000 000000000000000A000000000000000000000000000000000000000000000 000000000000000000000000000000000000000     00000000                                                                                                                        000000000000000000
F0010000005779100003000107225647100042505000000000000000000201405070002001JHON BYRON DUQUE DONADO (BODEGA JHONIFER)         C000000000700000000000000000000000100010010000000000000000000000F0010000005779100320140507000101 00000000000000000000000000000000000000000000000000000000000000000000000000000000000000000000000000000000000000000N 00000000000NCONT   00    00000000000          00000000000000000000000000000000000000000000 000000000000000A000000000000000000000000000000000000000000000 000000000000000000000000000000000000000     00000000                                                                                                                        000000000000000000
F0010000005779100004000107225647100023658300000000000000000201405070002001JHON BYRON DUQUE DONADO (BODEGA JHONIFER)         C000000000044800000000000000000000100010010000000000000000000000F0010000005779100420140507000101 00000000000000000000000000000000000000000000000000000000000000000000000000000000000000000000000000000000000000000N 00000000000NCONT   00    00000000000          00000000000000000000000000000000000000000000 000000000000000A000000000000000000000000000000000000000000000 000000000000000000000000000000000000000     00000000                                                                                                                        000000000000000000
F0010000005779100005000107225647100013552100000000000000000201405070002001JHON BYRON DUQUE DONADO (BODEGA JHONIFER)         D000000000044800000000000000000000100010010000000000000000000000F0010000005779100520140507000101 00000000000000000000000000000000000000000000000000000000000000000000000000000000000000000000000000000000000000000N 00000000000NCONT   00    00000000000          00000000000000000000000000000000000000000000 000000000000000A000000000000000000000000000000000000000000000 000000000000000000000000000000000000000     00000000                                                                                                                        000000000000000000
F0010000005779200001000090020547900013050500000000000000000201405070002001DAC DEL CARIBE S.A.S.                             D000000015427300000000000000000000100010010000000000000000000000F0010000005779200120140507000101 00000000000000000000000000000000000000000000000000000000000000000000000000000000000000000000000000000000000000000N 00000000000NCONT   00    00000000000          00000000000000000000000000000000000000000000 000000000000000A000000000000000000000000000000000000000000000 000000000000000000000000000000000000000     00000000                                                                                                                        000000000000000000
F0010000005779200002000090020547900041450500000000000000000201405070002001DAC DEL CARIBE S.A.S.                             C000000010640000000000000000000000100010010000000000000000000000F0010000005779200220140507000101 00000000000000000000000000000000000000000000000000000000000000000000000000000000000000000000000000000000000000000N 00000000000NCONT   00    00000000000          00000000000000000000000000000000000000000000 000000000000000A000000000000000000000000000000000000000000000 000000000000000000000000000000000000000     00000000                                                                                                                        000000000000000000
F0010000005779200003000090020547900042505000000000000000000201405070002001DAC DEL CARIBE S.A.S.                             C000000004787300000000000000000000100010010000000000000000000000F0010000005779200320140507000101 00000000000000000000000000000000000000000000000000000000000000000000000000000000000000000000000000000000000000000N 00000000000NCONT   00    00000000000          00000000000000000000000000000000000000000000 000000000000000A000000000000000000000000000000000000000000000 000000000000000000000000000000000000000     00000000                                                                                                                        000000000000000000
F0010000005779200004000090020547900023658300000000000000000201405070002001DAC DEL CARIBE S.A.S.                             C000000000085100000000000000000000100010010000000000000000000000F0010000005779200420140507000101 00000000000000000000000000000000000000000000000000000000000000000000000000000000000000000000000000000000000000000N 00000000000NCONT   00    00000000000          00000000000000000000000000000000000000000000 000000000000000A000000000000000000000000000000000000000000000 000000000000000000000000000000000000000     00000000                                                                                                                        000000000000000000
F0010000005779200005000090020547900013552100000000000000000201405070002001DAC DEL CARIBE S.A.S.                             D000000000085100000000000000000000100010010000000000000000000000F0010000005779200520140507000101 00000000000000000000000000000000000000000000000000000000000000000000000000000000000000000000000000000000000000000N 00000000000NCONT   00    00000000000          00000000000000000000000000000000000000000000 000000000000000A000000000000000000000000000000000000000000000 000000000000000000000000000000000000000     00000000                                                                                                                        000000000000000000
F0010000005779300001000090038852800013050500000000000000000201405070002001EL COMERCIO ELECTRICO DE LA CO                    D000000010800000000000000000000000100010010000000000000000000000F0010000005779300120140507000101 00000000000000000000000000000000000000000000000000000000000000000000000000000000000000000000000000000000000000000N 00000000000NCONT   00    00000000000          00000000000000000000000000000000000000000000 000000000000000A000000000000000000000000000000000000000000000 000000000000000000000000000000000000000     00000000                                                                                                                        000000000000000000
F0010000005779300002000090038852800041450500000000000000000201405070002001EL COMERCIO ELECTRICO DE LA CO                    C000000006400000000000000000000000100010010000000000000000000000F0010000005779300220140507000101 00000000000000000000000000000000000000000000000000000000000000000000000000000000000000000000000000000000000000000N 00000000000NCONT   00    00000000000          00000000000000000000000000000000000000000000 000000000000000A000000000000000000000000000000000000000000000 000000000000000000000000000000000000000     00000000                                                                                                                        000000000000000000
F0010000005779300003000090038852800042505000000000000000000201405070002001EL COMERCIO ELECTRICO DE LA CO                    C000000004400000000000000000000000100010010000000000000000000000F0010000005779300320140507000101 00000000000000000000000000000000000000000000000000000000000000000000000000000000000000000000000000000000000000000N 00000000000NCONT   00    00000000000          00000000000000000000000000000000000000000000 000000000000000A000000000000000000000000000000000000000000000 000000000000000000000000000000000000000     00000000                                                                                                                        000000000000000000
F0010000005779300004000090038852800023658300000000000000000201405070002001EL COMERCIO ELECTRICO DE LA CO                    C000000000051200000000000000000000100010010000000000000000000000F0010000005779300420140507000101 00000000000000000000000000000000000000000000000000000000000000000000000000000000000000000000000000000000000000000N 00000000000NCONT   00    00000000000          00000000000000000000000000000000000000000000 000000000000000A000000000000000000000000000000000000000000000 000000000000000000000000000000000000000     00000000                                                                                                                        000000000000000000
F0010000005779300005000090038852800013552100000000000000000201405070002001EL COMERCIO ELECTRICO DE LA CO                    D000000000051200000000000000000000100010010000000000000000000000F0010000005779300520140507000101 00000000000000000000000000000000000000000000000000000000000000000000000000000000000000000000000000000000000000000N 00000000000NCONT   00    00000000000          00000000000000000000000000000000000000000000 000000000000000A000000000000000000000000000000000000000000000 000000000000000000000000000000000000000     00000000                                                                                                                        000000000000000000
F0010000005779400001000000827614700013050500000000000000000201405070002001ALVARO  HERNAN  PEREZ ALVAREZ                     D000000004710000000000000000000000100010010000000000000000000000F0010000005779400120140507000101 00000000000000000000000000000000000000000000000000000000000000000000000000000000000000000000000000000000000000000N 00000000000NCONT   00    00000000000          00000000000000000000000000000000000000000000 000000000000000A000000000000000000000000000000000000000000000 000000000000000000000000000000000000000     00000000                                                                                                                        000000000000000000
F0010000005779400002000000827614700041450500000000000000000201405070002001ALVARO  HERNAN  PEREZ ALVAREZ                     C000000004360000000000000000000000100010010000000000000000000000F0010000005779400220140507000101 00000000000000000000000000000000000000000000000000000000000000000000000000000000000000000000000000000000000000000N 00000000000NCONT   00    00000000000          00000000000000000000000000000000000000000000 000000000000000A000000000000000000000000000000000000000000000 000000000000000000000000000000000000000     00000000                                                                                                                        000000000000000000
F0010000005779400003000000827614700042505000000000000000000201405070002001ALVARO  HERNAN  PEREZ ALVAREZ                     C000000000350000000000000000000000100010010000000000000000000000F0010000005779400320140507000101 00000000000000000000000000000000000000000000000000000000000000000000000000000000000000000000000000000000000000000N 00000000000NCONT   00    00000000000          00000000000000000000000000000000000000000000 000000000000000A000000000000000000000000000000000000000000000 000000000000000000000000000000000000000     00000000                                                                                                                        000000000000000000
F0010000005779400004000000827614700023658300000000000000000201405070002001ALVARO  HERNAN  PEREZ ALVAREZ                     C000000000034900000000000000000000100010010000000000000000000000F0010000005779400420140507000101 00000000000000000000000000000000000000000000000000000000000000000000000000000000000000000000000000000000000000000N 00000000000NCONT   00    00000000000          00000000000000000000000000000000000000000000 000000000000000A000000000000000000000000000000000000000000000 000000000000000000000000000000000000000     00000000                                                                                                                        000000000000000000
F0010000005779400005000000827614700013552100000000000000000201405070002001ALVARO  HERNAN  PEREZ ALVAREZ                     D000000000034900000000000000000000100010010000000000000000000000F0010000005779400520140507000101 00000000000000000000000000000000000000000000000000000000000000000000000000000000000000000000000000000000000000000N 00000000000NCONT   00    00000000000          00000000000000000000000000000000000000000000 000000000000000A000000000000000000000000000000000000000000000 000000000000000000000000000000000000000     00000000                                                                                                                        000000000000000000
F0010000005779500001000090036646700013050500000000000000000201405070002001FERREPROYECTOS S.A.S                              D000000008000000000000000000000000100010010000000000000000000000F0010000005779500120140507000101 00000000000000000000000000000000000000000000000000000000000000000000000000000000000000000000000000000000000000000N 00000000000NCONT   00    00000000000          00000000000000000000000000000000000000000000 000000000000000A000000000000000000000000000000000000000000000 000000000000000000000000000000000000000     00000000                                                                                                                        000000000000000000
F0010000005779500002000090036646700041450500000000000000000201405070002001FERREPROYECTOS S.A.S                              C000000007900000000000000000000000100010010000000000000000000000F0010000005779500220140507000101 00000000000000000000000000000000000000000000000000000000000000000000000000000000000000000000000000000000000000000N 00000000000NCONT   00    00000000000          00000000000000000000000000000000000000000000 000000000000000A000000000000000000000000000000000000000000000 000000000000000000000000000000000000000     00000000                                                                                                                        000000000000000000
F0010000005779500003000090036646700042505000000000000000000201405070002001FERREPROYECTOS S.A.S                              C000000000100000000000000000000000100010010000000000000000000000F0010000005779500320140507000101 00000000000000000000000000000000000000000000000000000000000000000000000000000000000000000000000000000000000000000N 00000000000NCONT   00    00000000000          00000000000000000000000000000000000000000000 000000000000000A000000000000000000000000000000000000000000000 000000000000000000000000000000000000000     00000000                                                                                                                        000000000000000000
F0010000005779500004000090036646700023658300000000000000000201405070002001FERREPROYECTOS S.A.S                              C000000000063200000000000000000000100010010000000000000000000000F0010000005779500420140507000101 00000000000000000000000000000000000000000000000000000000000000000000000000000000000000000000000000000000000000000N 00000000000NCONT   00    00000000000          00000000000000000000000000000000000000000000 000000000000000A000000000000000000000000000000000000000000000 000000000000000000000000000000000000000     00000000                                                                                                                        000000000000000000
F0010000005779500005000090036646700013552100000000000000000201405070002001FERREPROYECTOS S.A.S                              D000000000063200000000000000000000100010010000000000000000000000F0010000005779500520140507000101 00000000000000000000000000000000000000000000000000000000000000000000000000000000000000000000000000000000000000000N 00000000000NCONT   00    00000000000          00000000000000000000000000000000000000000000 000000000000000A000000000000000000000000000000000000000000000 000000000000000000000000000000000000000     00000000                                                                                                                        000000000000000000
F0010000005779600001000007233680300013050500000000000000000201405070002001FERMIN ANTONIO RAMBAL SANCHEZ                     D000000002800000000000000000000000100010010000000000000000000000F0010000005779600120140507000101 00000000000000000000000000000000000000000000000000000000000000000000000000000000000000000000000000000000000000000N 00000000000NCONT   00    00000000000          00000000000000000000000000000000000000000000 000000000000000A000000000000000000000000000000000000000000000 000000000000000000000000000000000000000     00000000                                                                                                                        000000000000000000
F0010000005779600002000007233680300041450500000000000000000201405070002001FERMIN ANTONIO RAMBAL SANCHEZ                     C000000002500000000000000000000000100010010000000000000000000000F0010000005779600220140507000101 00000000000000000000000000000000000000000000000000000000000000000000000000000000000000000000000000000000000000000N 00000000000NCONT   00    00000000000          00000000000000000000000000000000000000000000 000000000000000A000000000000000000000000000000000000000000000 000000000000000000000000000000000000000     00000000                                                                                                                        000000000000000000
F0010000005779600003000007233680300042505000000000000000000201405070002001FERMIN ANTONIO RAMBAL SANCHEZ                     C000000000300000000000000000000000100010010000000000000000000000F0010000005779600320140507000101 00000000000000000000000000000000000000000000000000000000000000000000000000000000000000000000000000000000000000000N 00000000000NCONT   00    00000000000          00000000000000000000000000000000000000000000 000000000000000A000000000000000000000000000000000000000000000 000000000000000000000000000000000000000     00000000                                                                                                                        000000000000000000
F0010000005779600004000007233680300023658300000000000000000201405070002001FERMIN ANTONIO RAMBAL SANCHEZ                     C000000000020000000000000000000000100010010000000000000000000000F0010000005779600420140507000101 00000000000000000000000000000000000000000000000000000000000000000000000000000000000000000000000000000000000000000N 00000000000NCONT   00    00000000000          00000000000000000000000000000000000000000000 000000000000000A000000000000000000000000000000000000000000000 000000000000000000000000000000000000000     00000000                                                                                                                        000000000000000000
F0010000005779600005000007233680300013552100000000000000000201405070002001FERMIN ANTONIO RAMBAL SANCHEZ                     D000000000020000000000000000000000100010010000000000000000000000F0010000005779600520140507000101 00000000000000000000000000000000000000000000000000000000000000000000000000000000000000000000000000000000000000000N 00000000000NCONT   00    00000000000          00000000000000000000000000000000000000000000 000000000000000A000000000000000000000000000000000000000000000 000000000000000000000000000000000000000     00000000                                                                                                                        000000000000000000
F0010000005779700001000003264509600013050500000000000000000201405070002001ROSA E. AGAMEZ                                    D000000002690000000000000000000000100010010000000000000000000000F0010000005779700120140507000101 00000000000000000000000000000000000000000000000000000000000000000000000000000000000000000000000000000000000000000N 00000000000NCONT   00    00000000000          00000000000000000000000000000000000000000000 000000000000000A000000000000000000000000000000000000000000000 000000000000000000000000000000000000000     00000000                                                                                                                        000000000000000000
F0010000005779700002000003264509600041450500000000000000000201405070002001ROSA E. AGAMEZ                                    C000000001640000000000000000000000100010010000000000000000000000F0010000005779700220140507000101 00000000000000000000000000000000000000000000000000000000000000000000000000000000000000000000000000000000000000000N 00000000000NCONT   00    00000000000          00000000000000000000000000000000000000000000 000000000000000A000000000000000000000000000000000000000000000 000000000000000000000000000000000000000     00000000                                                                                                                        000000000000000000
F0010000005779700003000003264509600042505000000000000000000201405070002001ROSA E. AGAMEZ                                    C000000001050000000000000000000000100010010000000000000000000000F0010000005779700320140507000101 00000000000000000000000000000000000000000000000000000000000000000000000000000000000000000000000000000000000000000N 00000000000NCONT   00    00000000000          00000000000000000000000000000000000000000000 000000000000000A000000000000000000000000000000000000000000000 000000000000000000000000000000000000000     00000000                                                                                                                        000000000000000000
F0010000005779700004000003264509600023658300000000000000000201405070002001ROSA E. AGAMEZ                                    C000000000013100000000000000000000100010010000000000000000000000F0010000005779700420140507000101 00000000000000000000000000000000000000000000000000000000000000000000000000000000000000000000000000000000000000000N 00000000000NCONT   00    00000000000          00000000000000000000000000000000000000000000 000000000000000A000000000000000000000000000000000000000000000 000000000000000000000000000000000000000     00000000                                                                                                                        000000000000000000
F0010000005779700005000003264509600013552100000000000000000201405070002001ROSA E. AGAMEZ                                    D000000000013100000000000000000000100010010000000000000000000000F0010000005779700520140507000101 00000000000000000000000000000000000000000000000000000000000000000000000000000000000000000000000000000000000000000N 00000000000NCONT   00    00000000000          00000000000000000000000000000000000000000000 000000000000000A000000000000000000000000000000000000000000000 000000000000000000000000000000000000000     00000000                                                                                                                        000000000000000000
F0010000005779800001000007904689600013050500000000000000000201405070002001VICTOR MANUEL BOCANEGRA RAMIREZ                   D000000012200000000000000000000000100010010000000000000000000000F0010000005779800120140507000101 00000000000000000000000000000000000000000000000000000000000000000000000000000000000000000000000000000000000000000N 00000000000NCONT   00    00000000000          00000000000000000000000000000000000000000000 000000000000000A000000000000000000000000000000000000000000000 000000000000000000000000000000000000000     00000000                                                                                                                        000000000000000000
F0010000005779800002000007904689600041450500000000000000000201405070002001VICTOR MANUEL BOCANEGRA RAMIREZ                   C000000011100000000000000000000000100010010000000000000000000000F0010000005779800220140507000101 00000000000000000000000000000000000000000000000000000000000000000000000000000000000000000000000000000000000000000N 00000000000NCONT   00    00000000000          00000000000000000000000000000000000000000000 000000000000000A000000000000000000000000000000000000000000000 000000000000000000000000000000000000000     00000000                                                                                                                        000000000000000000
F0010000005779800003000007904689600042505000000000000000000201405070002001VICTOR MANUEL BOCANEGRA RAMIREZ                   C000000001100000000000000000000000100010010000000000000000000000F0010000005779800320140507000101 00000000000000000000000000000000000000000000000000000000000000000000000000000000000000000000000000000000000000000N 00000000000NCONT   00    00000000000          00000000000000000000000000000000000000000000 000000000000000A000000000000000000000000000000000000000000000 000000000000000000000000000000000000000     00000000                                                                                                                        000000000000000000
F0010000005779800004000007904689600023658300000000000000000201405070002001VICTOR MANUEL BOCANEGRA RAMIREZ                   C000000000088800000000000000000000100010010000000000000000000000F0010000005779800420140507000101 00000000000000000000000000000000000000000000000000000000000000000000000000000000000000000000000000000000000000000N 00000000000NCONT   00    00000000000          00000000000000000000000000000000000000000000 000000000000000A000000000000000000000000000000000000000000000 000000000000000000000000000000000000000     00000000                                                                                                                        000000000000000000
F0010000005779800005000007904689600013552100000000000000000201405070002001VICTOR MANUEL BOCANEGRA RAMIREZ                   D000000000088800000000000000000000100010010000000000000000000000F0010000005779800520140507000101 00000000000000000000000000000000000000000000000000000000000000000000000000000000000000000000000000000000000000000N 00000000000NCONT   00    00000000000          00000000000000000000000000000000000000000000 000000000000000A000000000000000000000000000000000000000000000 000000000000000000000000000000000000000     00000000                                                                                                                        000000000000000000
F0010000005779900001000000431178400013050500000000000000000201405070002001EFRAIN ALVAREZ                                    D000000020100000000000000000000000100010010000000000000000000000F0010000005779900120140507000101 00000000000000000000000000000000000000000000000000000000000000000000000000000000000000000000000000000000000000000N 00000000000NCONT   00    00000000000          00000000000000000000000000000000000000000000 000000000000000A000000000000000000000000000000000000000000000 000000000000000000000000000000000000000     00000000                                                                                                                        000000000000000000
F0010000005779900002000000431178400041450500000000000000000201405070002001EFRAIN ALVAREZ                                    C000000018550000000000000000000000100010010000000000000000000000F0010000005779900220140507000101 00000000000000000000000000000000000000000000000000000000000000000000000000000000000000000000000000000000000000000N 00000000000NCONT   00    00000000000          00000000000000000000000000000000000000000000 000000000000000A000000000000000000000000000000000000000000000 000000000000000000000000000000000000000     00000000                                                                                                                        000000000000000000
F0010000005779900003000000431178400042505000000000000000000201405070002001EFRAIN ALVAREZ                                    C000000001550000000000000000000000100010010000000000000000000000F0010000005779900320140507000101 00000000000000000000000000000000000000000000000000000000000000000000000000000000000000000000000000000000000000000N 00000000000NCONT   00    00000000000          00000000000000000000000000000000000000000000 000000000000000A000000000000000000000000000000000000000000000 000000000000000000000000000000000000000     00000000                                                                                                                        000000000000000000
F0010000005779900004000000431178400023658300000000000000000201405070002001EFRAIN ALVAREZ                                    C000000000148400000000000000000000100010010000000000000000000000F0010000005779900420140507000101 00000000000000000000000000000000000000000000000000000000000000000000000000000000000000000000000000000000000000000N 00000000000NCONT   00    00000000000          00000000000000000000000000000000000000000000 000000000000000A000000000000000000000000000000000000000000000 000000000000000000000000000000000000000     00000000                                                                                                                        000000000000000000
F0010000005779900005000000431178400013552100000000000000000201405070002001EFRAIN ALVAREZ                                    D000000000148400000000000000000000100010010000000000000000000000F0010000005779900520140507000101 00000000000000000000000000000000000000000000000000000000000000000000000000000000000000000000000000000000000000000N 00000000000NCONT   00    00000000000          00000000000000000000000000000000000000000000 000000000000000A000000000000000000000000000000000000000000000 000000000000000000000000000000000000000     00000000                                                                                                                        000000000000000000
F0010000005780000001000090007142100013050500000000000000000201405070002001TODO BELLEZA Y MAX S.A.S                          D000000025360000000000000000000000100010010000000000000000000000F0010000005780000120140507000101 00000000000000000000000000000000000000000000000000000000000000000000000000000000000000000000000000000000000000000N 00000000000NCONT   00    00000000000          00000000000000000000000000000000000000000000 000000000000000A000000000000000000000000000000000000000000000 000000000000000000000000000000000000000     00000000                                                                                                                        000000000000000000
F0010000005780000002000090007142100041450500000000000000000201405070002001TODO BELLEZA Y MAX S.A.S                          C000000021600000000000000000000000100010010000000000000000000000F0010000005780000220140507000101 00000000000000000000000000000000000000000000000000000000000000000000000000000000000000000000000000000000000000000N 00000000000NCONT   00    00000000000          00000000000000000000000000000000000000000000 000000000000000A000000000000000000000000000000000000000000000 000000000000000000000000000000000000000     00000000                                                                                                                        000000000000000000
F0010000005780000003000090007142100042505000000000000000000201405070002001TODO BELLEZA Y MAX S.A.S                          C000000003760000000000000000000000100010010000000000000000000000F0010000005780000320140507000101 00000000000000000000000000000000000000000000000000000000000000000000000000000000000000000000000000000000000000000N 00000000000NCONT   00    00000000000          00000000000000000000000000000000000000000000 000000000000000A000000000000000000000000000000000000000000000 000000000000000000000000000000000000000     00000000                                                                                                                        000000000000000000
F0010000005780000004000090007142100023658300000000000000000201405070002001TODO BELLEZA Y MAX S.A.S                          C000000000172800000000000000000000100010010000000000000000000000F0010000005780000420140507000101 00000000000000000000000000000000000000000000000000000000000000000000000000000000000000000000000000000000000000000N 00000000000NCONT   00    00000000000          00000000000000000000000000000000000000000000 000000000000000A000000000000000000000000000000000000000000000 000000000000000000000000000000000000000     00000000                                                                                                                        000000000000000000
F0010000005780000005000090007142100013552100000000000000000201405070002001TODO BELLEZA Y MAX S.A.S                          D000000000172800000000000000000000100010010000000000000000000000F0010000005780000520140507000101 00000000000000000000000000000000000000000000000000000000000000000000000000000000000000000000000000000000000000000N 00000000000NCONT   00    00000000000          00000000000000000000000000000000000000000000 000000000000000A000000000000000000000000000000000000000000000 000000000000000000000000000000000000000     00000000                                                                                                                        000000000000000000
F0010000005780100001000080010983700013050500000000000000000201405070002001OHM LTDA                                          D000000062545000000000000000000000100010010000000000000000000000F0010000005780100120140507000101 00000000000000000000000000000000000000000000000000000000000000000000000000000000000000000000000000000000000000000N 00000000000NCONT   00    00000000000          00000000000000000000000000000000000000000000 000000000000000A000000000000000000000000000000000000000000000 000000000000000000000000000000000000000     00000000                                                                                                                        000000000000000000
F0010000005780100002000080010983700041450500000000000000000201405070002001OHM LTDA                                          C000000061600000000000000000000000100010010000000000000000000000F0010000005780100220140507000101 00000000000000000000000000000000000000000000000000000000000000000000000000000000000000000000000000000000000000000N 00000000000NCONT   00    00000000000          00000000000000000000000000000000000000000000 000000000000000A000000000000000000000000000000000000000000000 000000000000000000000000000000000000000     00000000                                                                                                                        000000000000000000
F0010000005780100003000080010983700042505000000000000000000201405070002001OHM LTDA                                          C000000000945000000000000000000000100010010000000000000000000000F0010000005780100320140507000101 00000000000000000000000000000000000000000000000000000000000000000000000000000000000000000000000000000000000000000N 00000000000NCONT   00    00000000000          00000000000000000000000000000000000000000000 000000000000000A000000000000000000000000000000000000000000000 000000000000000000000000000000000000000     00000000                                                                                                                        000000000000000000
F0010000005780100004000080010983700023658300000000000000000201405070002001OHM LTDA                                          C000000000492800000000000000000000100010010000000000000000000000F0010000005780100420140507000101 00000000000000000000000000000000000000000000000000000000000000000000000000000000000000000000000000000000000000000N 00000000000NCONT   00    00000000000          00000000000000000000000000000000000000000000 000000000000000A000000000000000000000000000000000000000000000 000000000000000000000000000000000000000     00000000                                                                                                                        000000000000000000
F0010000005780100005000080010983700013552100000000000000000201405070002001OHM LTDA                                          D000000000492800000000000000000000100010010000000000000000000000F0010000005780100520140507000101 00000000000000000000000000000000000000000000000000000000000000000000000000000000000000000000000000000000000000000N 00000000000NCONT   00    00000000000          00000000000000000000000000000000000000000000 000000000000000A000000000000000000000000000000000000000000000 000000000000000000000000000000000000000     00000000                                                                                                                        000000000000000000
F0010000005780200001000086053108300013050500000000000000000201405070002001EL PALACIO DEL ALUMINIO  LTDA                     D000000030213800000000000000000000100010010000000000000000000000F0010000005780200120140507000101 00000000000000000000000000000000000000000000000000000000000000000000000000000000000000000000000000000000000000000N 00000000000NCONT   00    00000000000          00000000000000000000000000000000000000000000 000000000000000A000000000000000000000000000000000000000000000 000000000000000000000000000000000000000     00000000                                                                                                                        000000000000000000
F0010000005780200002000086053108300041450500000000000000000201405070002001EL PALACIO DEL ALUMINIO  LTDA                     C000000026400000000000000000000000100010010000000000000000000000F0010000005780200220140507000101 00000000000000000000000000000000000000000000000000000000000000000000000000000000000000000000000000000000000000000N 00000000000NCONT   00    00000000000          00000000000000000000000000000000000000000000 000000000000000A000000000000000000000000000000000000000000000 000000000000000000000000000000000000000     00000000                                                                                                                        000000000000000000
F0010000005780200003000086053108300042505000000000000000000201405070002001EL PALACIO DEL ALUMINIO  LTDA                     C000000003813800000000000000000000100010010000000000000000000000F0010000005780200320140507000101 00000000000000000000000000000000000000000000000000000000000000000000000000000000000000000000000000000000000000000N 00000000000NCONT   00    00000000000          00000000000000000000000000000000000000000000 000000000000000A000000000000000000000000000000000000000000000 000000000000000000000000000000000000000     00000000                                                                                                                        000000000000000000
F0010000005780200004000086053108300023658300000000000000000201405070002001EL PALACIO DEL ALUMINIO  LTDA                     C000000000211200000000000000000000100010010000000000000000000000F0010000005780200420140507000101 00000000000000000000000000000000000000000000000000000000000000000000000000000000000000000000000000000000000000000N 00000000000NCONT   00    00000000000          00000000000000000000000000000000000000000000 000000000000000A000000000000000000000000000000000000000000000 000000000000000000000000000000000000000     00000000                                                                                                                        000000000000000000
F0010000005780200005000086053108300013552100000000000000000201405070002001EL PALACIO DEL ALUMINIO  LTDA                     D000000000211200000000000000000000100010010000000000000000000000F0010000005780200520140507000101 00000000000000000000000000000000000000000000000000000000000000000000000000000000000000000000000000000000000000000N 00000000000NCONT   00    00000000000          00000000000000000000000000000000000000000000 000000000000000A000000000000000000000000000000000000000000000 000000000000000000000000000000000000000     00000000                                                                                                                        000000000000000000
F0010000005780300001000090053611800013050500000000000000000201405070002001PELETERIA COSTA CARIBE S.A .S                     D000000125676200000000000000000000100010010000000000000000000000F0010000005780300120140507000101 00000000000000000000000000000000000000000000000000000000000000000000000000000000000000000000000000000000000000000N 00000000000NCONT   00    00000000000          00000000000000000000000000000000000000000000 000000000000000A000000000000000000000000000000000000000000000 000000000000000000000000000000000000000     00000000                                                                                                                        000000000000000000
F0010000005780300002000090053611800041450500000000000000000201405070002001PELETERIA COSTA CARIBE S.A .S                     C000000099072700000000000000000000100010010000000000000000000000F0010000005780300220140507000101 00000000000000000000000000000000000000000000000000000000000000000000000000000000000000000000000000000000000000000N 00000000000NCONT   00    00000000000          00000000000000000000000000000000000000000000 000000000000000A000000000000000000000000000000000000000000000 000000000000000000000000000000000000000     00000000                                                                                                                        000000000000000000
F0010000005780300003000090053611800042505000000000000000000201405070002001PELETERIA COSTA CARIBE S.A .S                     C000000026603500000000000000000000100010010000000000000000000000F0010000005780300320140507000101 00000000000000000000000000000000000000000000000000000000000000000000000000000000000000000000000000000000000000000N 00000000000NCONT   00    00000000000          00000000000000000000000000000000000000000000 000000000000000A000000000000000000000000000000000000000000000 000000000000000000000000000000000000000     00000000                                                                                                                        000000000000000000
F0010000005780300004000090053611800023658300000000000000000201405070002001PELETERIA COSTA CARIBE S.A .S                     C000000000792600000000000000000000100010010000000000000000000000F0010000005780300420140507000101 00000000000000000000000000000000000000000000000000000000000000000000000000000000000000000000000000000000000000000N 00000000000NCONT   00    00000000000          00000000000000000000000000000000000000000000 000000000000000A000000000000000000000000000000000000000000000 000000000000000000000000000000000000000     00000000                                                                                                                        000000000000000000
F0010000005780300005000090053611800013552100000000000000000201405070002001PELETERIA COSTA CARIBE S.A .S                     D000000000792600000000000000000000100010010000000000000000000000F0010000005780300520140507000101 00000000000000000000000000000000000000000000000000000000000000000000000000000000000000000000000000000000000000000N 00000000000NCONT   00    00000000000          00000000000000000000000000000000000000000000 000000000000000A000000000000000000000000000000000000000000000 000000000000000000000000000000000000000     00000000                                                                                                                        000000000000000000
F0010000005780400001000090031601300013050500000000000000000201405070002001COMPAÑIA QUIMICA S.A.S.                          D000000030750000000000000000000000100010010000000000000000000000F0010000005780400120140507000101 00000000000000000000000000000000000000000000000000000000000000000000000000000000000000000000000000000000000000000N 00000000000NCONT   00    00000000000          00000000000000000000000000000000000000000000 000000000000000A000000000000000000000000000000000000000000000 000000000000000000000000000000000000000     00000000                                                                                                                        000000000000000000
F0010000005780400002000090031601300041450500000000000000000201405070002001COMPAÑIA QUIMICA S.A.S.                          C000000027230000000000000000000000100010010000000000000000000000F0010000005780400220140507000101 00000000000000000000000000000000000000000000000000000000000000000000000000000000000000000000000000000000000000000N 00000000000NCONT   00    00000000000          00000000000000000000000000000000000000000000 000000000000000A000000000000000000000000000000000000000000000 000000000000000000000000000000000000000     00000000                                                                                                                        000000000000000000
F0010000005780400003000090031601300042505000000000000000000201405070002001COMPAÑIA QUIMICA S.A.S.                          C000000003520000000000000000000000100010010000000000000000000000F0010000005780400320140507000101 00000000000000000000000000000000000000000000000000000000000000000000000000000000000000000000000000000000000000000N 00000000000NCONT   00    00000000000          00000000000000000000000000000000000000000000 000000000000000A000000000000000000000000000000000000000000000 000000000000000000000000000000000000000     00000000                                                                                                                        000000000000000000
F0010000005780400004000090031601300023658300000000000000000201405070002001COMPAÑIA QUIMICA S.A.S.                          C000000000217800000000000000000000100010010000000000000000000000F0010000005780400420140507000101 00000000000000000000000000000000000000000000000000000000000000000000000000000000000000000000000000000000000000000N 00000000000NCONT   00    00000000000          00000000000000000000000000000000000000000000 000000000000000A000000000000000000000000000000000000000000000 000000000000000000000000000000000000000     00000000                                                                                                                        000000000000000000
F0010000005780400005000090031601300013552100000000000000000201405070002001COMPAÑIA QUIMICA S.A.S.                          D000000000217800000000000000000000100010010000000000000000000000F0010000005780400520140507000101 00000000000000000000000000000000000000000000000000000000000000000000000000000000000000000000000000000000000000000N 00000000000NCONT   00    00000000000          00000000000000000000000000000000000000000000 000000000000000A000000000000000000000000000000000000000000000 000000000000000000000000000000000000000     00000000                                                                                                                        000000000000000000
F0010000005780500001000089010272700013050500000000000000000201405070002001ALFONSOEME S.A.                                   D000000041054600000000000000000000100010010000000000000000000000F0010000005780500120140507000101 00000000000000000000000000000000000000000000000000000000000000000000000000000000000000000000000000000000000000000N 00000000000NCONT   00    00000000000          00000000000000000000000000000000000000000000 000000000000000A000000000000000000000000000000000000000000000 000000000000000000000000000000000000000     00000000                                                                                                                        000000000000000000
F0010000005780500002000089010272700041450500000000000000000201405070002001ALFONSOEME S.A.                                   C000000044471100000000000000000000100010010000000000000000000000F0010000005780500220140507000101 00000000000000000000000000000000000000000000000000000000000000000000000000000000000000000000000000000000000000000N 00000000000NCONT   00    00000000000          00000000000000000000000000000000000000000000 000000000000000A000000000000000000000000000000000000000000000 000000000000000000000000000000000000000     00000000                                                                                                                        000000000000000000
F0010000005780500003000089010272700041750100000000000000000201405070002001ALFONSOEME S.A.                                   D000000005336500000000000000000000100010010000000000000000000000F0010000005780500320140507000101 00000000000000000000000000000000000000000000000000000000000000000000000000000000000000000000000000000000000000000N 00000000000NCONT   00    00000000000          00000000000000000000000000000000000000000000 000000000000000A000000000000000000000000000000000000000000000 000000000000000000000000000000000000000     00000000                                                                                                                        000000000000000000
F0010000005780500004000089010272700042505000000000000000000201405070002001ALFONSOEME S.A.                                   C000000001920000000000000000000000100010010000000000000000000000F0010000005780500420140507000101 00000000000000000000000000000000000000000000000000000000000000000000000000000000000000000000000000000000000000000N 00000000000NCONT   00    00000000000          00000000000000000000000000000000000000000000 000000000000000A000000000000000000000000000000000000000000000 000000000000000000000000000000000000000     00000000                                                                                                                        000000000000000000
F0010000005780500005000089010272700023658300000000000000000201405070002001ALFONSOEME S.A.                                   C000000000355800000000000000000000100010010000000000000000000000F0010000005780500520140507000101 00000000000000000000000000000000000000000000000000000000000000000000000000000000000000000000000000000000000000000N 00000000000NCONT   00    00000000000          00000000000000000000000000000000000000000000 000000000000000A000000000000000000000000000000000000000000000 000000000000000000000000000000000000000     00000000                                                                                                                        000000000000000000
F0010000005780500006000089010272700013552100000000000000000201405070002001ALFONSOEME S.A.                                   D000000000355800000000000000000000100010010000000000000000000000F0010000005780500620140507000101 00000000000000000000000000000000000000000000000000000000000000000000000000000000000000000000000000000000000000000N 00000000000NCONT   00    00000000000          00000000000000000000000000000000000000000000 000000000000000A000000000000000000000000000000000000000000000 000000000000000000000000000000000000000     00000000                                                                                                                        000000000000000000
F0010000005780600001000086003979400013050500000000000000000201405070002001CALYPSO BARRANQUILLA LTDA                         D000000096333000000000000000000000100010010000000000000000000000F0010000005780600120140507000101 00000000000000000000000000000000000000000000000000000000000000000000000000000000000000000000000000000000000000000N 00000000000NCONT   00    00000000000          00000000000000000000000000000000000000000000 000000000000000A000000000000000000000000000000000000000000000 000000000000000000000000000000000000000     00000000                                                                                                                        000000000000000000
F0010000005780600002000086003979400041450500000000000000000201405070002001CALYPSO BARRANQUILLA LTDA                         C000000085134000000000000000000000100010010000000000000000000000F0010000005780600220140507000101 00000000000000000000000000000000000000000000000000000000000000000000000000000000000000000000000000000000000000000N 00000000000NCONT   00    00000000000          00000000000000000000000000000000000000000000 000000000000000A000000000000000000000000000000000000000000000 000000000000000000000000000000000000000     00000000                                                                                                                        000000000000000000
F0010000005780600003000086003979400042505000000000000000000201405070002001CALYPSO BARRANQUILLA LTDA                         C000000011199000000000000000000000100010010000000000000000000000F0010000005780600320140507000101 00000000000000000000000000000000000000000000000000000000000000000000000000000000000000000000000000000000000000000N 00000000000NCONT   00    00000000000          00000000000000000000000000000000000000000000 000000000000000A000000000000000000000000000000000000000000000 000000000000000000000000000000000000000     00000000                                                                                                                        000000000000000000
F0010000005780600004000086003979400023658300000000000000000201405070002001CALYPSO BARRANQUILLA LTDA                         C000000000681100000000000000000000100010010000000000000000000000F0010000005780600420140507000101 00000000000000000000000000000000000000000000000000000000000000000000000000000000000000000000000000000000000000000N 00000000000NCONT   00    00000000000          00000000000000000000000000000000000000000000 000000000000000A000000000000000000000000000000000000000000000 000000000000000000000000000000000000000     00000000                                                                                                                        000000000000000000
F0010000005780600005000086003979400013552100000000000000000201405070002001CALYPSO BARRANQUILLA LTDA                         D000000000681100000000000000000000100010010000000000000000000000F0010000005780600520140507000101 00000000000000000000000000000000000000000000000000000000000000000000000000000000000000000000000000000000000000000N 00000000000NCONT   00    00000000000          00000000000000000000000000000000000000000000 000000000000000A000000000000000000000000000000000000000000000 000000000000000000000000000000000000000     00000000                                                                                                                        000000000000000000
F0010000005780700001000080201127600013050500000000000000000201405070002001ELECTRICOS DEL RUIZ S.A.S.                        D000000156999300000000000000000000100010010000000000000000000000F0010000005780700120140507000101 00000000000000000000000000000000000000000000000000000000000000000000000000000000000000000000000000000000000000000N 00000000000NCONT   00    00000000000          00000000000000000000000000000000000000000000 000000000000000A000000000000000000000000000000000000000000000 000000000000000000000000000000000000000     00000000                                                                                                                        000000000000000000
