F0010000008297500001000004977415500011050500000000000000000201602240002001NINFA FONSECA ROMERO                              D000000003400000000000000000000000100010010000000000000000000000F0010000008297500120160224000101 00000000000000000000000000000000000000000000000000000000000000000000000000000000000000000000000000000000000000000N 00000000000NCONT   00    00000000000          00000000000000000000000000000000000000000000 000000000000000A000000000000000000000000000000000000000000000 000000000000000000000000000000000000000     00000000                                                                                                                        000000000000000000
F0010000008297500002000004977415500041450500000000000000000201602240002001NINFA FONSECA ROMERO                              C000000002900000000000000000000000100010010000000000000000000000F0010000008297500220160224000101 00000000000000000000000000000000000000000000000000000000000000000000000000000000000000000000000000000000000000000N 00000000000NCONT   00    00000000000          00000000000000000000000000000000000000000000 000000000000000A000000000000000000000000000000000000000000000 000000000000000000000000000000000000000     00000000                                                                                                                        000000000000000000
F0010000008297500003000004977415500042505000000000000000000201602240002001NINFA FONSECA ROMERO                              C000000000500000000000000000000000100010010000000000000000000000F0010000008297500320160224000101 00000000000000000000000000000000000000000000000000000000000000000000000000000000000000000000000000000000000000000N 00000000000NCONT   00    00000000000          00000000000000000000000000000000000000000000 000000000000000A000000000000000000000000000000000000000000000 000000000000000000000000000000000000000     00000000                                                                                                                        000000000000000000
F0010000008297500004000004977415500023658300000000000000000201602240002001NINFA FONSECA ROMERO                              C000000000023200000000000000000000100010010000000000000000000000F0010000008297500420160224000101 00000000000000000000000000000000000000000000000000000000000000000000000000000000000000000000000000000000000000000N 00000000000NCONT   00    00000000000          00000000000000000000000000000000000000000000 000000000000000A000000000000000000000000000000000000000000000 000000000000000000000000000000000000000     00000000                                                                                                                        000000000000000000
F0010000008297500005000004977415500013552100000000000000000201602240002001NINFA FONSECA ROMERO                              D000000000023200000000000000000000100010010000000000000000000000F0010000008297500520160224000101 00000000000000000000000000000000000000000000000000000000000000000000000000000000000000000000000000000000000000000N 00000000000NCONT   00    00000000000          00000000000000000000000000000000000000000000 000000000000000A000000000000000000000000000000000000000000000 000000000000000000000000000000000000000     00000000                                                                                                                        000000000000000000
