F0010000006304800001000086000089600013050500000000000000000201409230002001SIKA COLOMBIA S.A.                                D000000004638700000000000000000000100010010000000000000000000000F0010000006304800120140923000101 00000000000000000000000000000000000000000000000000000000000000000000000000000000000000000000000000000000000000000N 00000000000NCONT   00    00000000000          00000000000000000000000000000000000000000000 000000000000000A000000000000000000000000000000000000000000000 000000000000000000000000000000000000000     00000000                                                                                                                        000000000000000000
F0010000006304800002000086000089600041450500000000000000000201409230002001SIKA COLOMBIA S.A.                                C000000004350000000000000000000000100010010000000000000000000000F0010000006304800220140923000101 00000000000000000000000000000000000000000000000000000000000000000000000000000000000000000000000000000000000000000N 00000000000NCONT   00    00000000000          00000000000000000000000000000000000000000000 000000000000000A000000000000000000000000000000000000000000000 000000000000000000000000000000000000000     00000000                                                                                                                        000000000000000000
F0010000006304800003000086000089600042505000000000000000000201409230002001SIKA COLOMBIA S.A.                                C000000000288700000000000000000000100010010000000000000000000000F0010000006304800320140923000101 00000000000000000000000000000000000000000000000000000000000000000000000000000000000000000000000000000000000000000N 00000000000NCONT   00    00000000000          00000000000000000000000000000000000000000000 000000000000000A000000000000000000000000000000000000000000000 000000000000000000000000000000000000000     00000000                                                                                                                        000000000000000000
F0010000006304800004000086000089600023658300000000000000000201409230002001SIKA COLOMBIA S.A.                                C000000000034800000000000000000000100010010000000000000000000000F0010000006304800420140923000101 00000000000000000000000000000000000000000000000000000000000000000000000000000000000000000000000000000000000000000N 00000000000NCONT   00    00000000000          00000000000000000000000000000000000000000000 000000000000000A000000000000000000000000000000000000000000000 000000000000000000000000000000000000000     00000000                                                                                                                        000000000000000000
F0010000006304800005000086000089600013552100000000000000000201409230002001SIKA COLOMBIA S.A.                                D000000000034800000000000000000000100010010000000000000000000000F0010000006304800520140923000101 00000000000000000000000000000000000000000000000000000000000000000000000000000000000000000000000000000000000000000N 00000000000NCONT   00    00000000000          00000000000000000000000000000000000000000000 000000000000000A000000000000000000000000000000000000000000000 000000000000000000000000000000000000000     00000000                                                                                                                        000000000000000000
F0010000006304900001000080202330500011050500000000000000000201409230002001FERRETERIA NUEVO MILENIO S.A.S                    D000000004500000000000000000000000100010010000000000000000000000F0010000006304900120140923000101 00000000000000000000000000000000000000000000000000000000000000000000000000000000000000000000000000000000000000000N 00000000000NCONT   00    00000000000          00000000000000000000000000000000000000000000 000000000000000A000000000000000000000000000000000000000000000 000000000000000000000000000000000000000     00000000                                                                                                                        000000000000000000
F0010000006304900002000080202330500041450500000000000000000201409230002001FERRETERIA NUEVO MILENIO S.A.S                    C000000003900000000000000000000000100010010000000000000000000000F0010000006304900220140923000101 00000000000000000000000000000000000000000000000000000000000000000000000000000000000000000000000000000000000000000N 00000000000NCONT   00    00000000000          00000000000000000000000000000000000000000000 000000000000000A000000000000000000000000000000000000000000000 000000000000000000000000000000000000000     00000000                                                                                                                        000000000000000000
F0010000006304900003000080202330500042505000000000000000000201409230002001FERRETERIA NUEVO MILENIO S.A.S                    C000000000600000000000000000000000100010010000000000000000000000F0010000006304900320140923000101 00000000000000000000000000000000000000000000000000000000000000000000000000000000000000000000000000000000000000000N 00000000000NCONT   00    00000000000          00000000000000000000000000000000000000000000 000000000000000A000000000000000000000000000000000000000000000 000000000000000000000000000000000000000     00000000                                                                                                                        000000000000000000
F0010000006304900004000080202330500023658300000000000000000201409230002001FERRETERIA NUEVO MILENIO S.A.S                    C000000000031200000000000000000000100010010000000000000000000000F0010000006304900420140923000101 00000000000000000000000000000000000000000000000000000000000000000000000000000000000000000000000000000000000000000N 00000000000NCONT   00    00000000000          00000000000000000000000000000000000000000000 000000000000000A000000000000000000000000000000000000000000000 000000000000000000000000000000000000000     00000000                                                                                                                        000000000000000000
F0010000006304900005000080202330500013552100000000000000000201409230002001FERRETERIA NUEVO MILENIO S.A.S                    D000000000031200000000000000000000100010010000000000000000000000F0010000006304900520140923000101 00000000000000000000000000000000000000000000000000000000000000000000000000000000000000000000000000000000000000000N 00000000000NCONT   00    00000000000          00000000000000000000000000000000000000000000 000000000000000A000000000000000000000000000000000000000000000 000000000000000000000000000000000000000     00000000                                                                                                                        000000000000000000
F0010000006305000001000086000490200013050500000000000000000201409230002001PROV. DE PAPELES ANDINA S.A.                      D000000029824400000000000000000000100010010000000000000000000000F0010000006305000120140923000101 00000000000000000000000000000000000000000000000000000000000000000000000000000000000000000000000000000000000000000N 00000000000NCONT   00    00000000000          00000000000000000000000000000000000000000000 000000000000000A000000000000000000000000000000000000000000000 000000000000000000000000000000000000000     00000000                                                                                                                        000000000000000000
F0010000006305000002000086000490200041450500000000000000000201409230002001PROV. DE PAPELES ANDINA S.A.                      C000000027727700000000000000000000100010010000000000000000000000F0010000006305000220140923000101 00000000000000000000000000000000000000000000000000000000000000000000000000000000000000000000000000000000000000000N 00000000000NCONT   00    00000000000          00000000000000000000000000000000000000000000 000000000000000A000000000000000000000000000000000000000000000 000000000000000000000000000000000000000     00000000                                                                                                                        000000000000000000
F0010000006305000003000086000490200042505000000000000000000201409230002001PROV. DE PAPELES ANDINA S.A.                      C000000002096700000000000000000000100010010000000000000000000000F0010000006305000320140923000101 00000000000000000000000000000000000000000000000000000000000000000000000000000000000000000000000000000000000000000N 00000000000NCONT   00    00000000000          00000000000000000000000000000000000000000000 000000000000000A000000000000000000000000000000000000000000000 000000000000000000000000000000000000000     00000000                                                                                                                        000000000000000000
F0010000006305000004000086000490200023658300000000000000000201409230002001PROV. DE PAPELES ANDINA S.A.                      C000000000221800000000000000000000100010010000000000000000000000F0010000006305000420140923000101 00000000000000000000000000000000000000000000000000000000000000000000000000000000000000000000000000000000000000000N 00000000000NCONT   00    00000000000          00000000000000000000000000000000000000000000 000000000000000A000000000000000000000000000000000000000000000 000000000000000000000000000000000000000     00000000                                                                                                                        000000000000000000
F0010000006305000005000086000490200013552100000000000000000201409230002001PROV. DE PAPELES ANDINA S.A.                      D000000000221800000000000000000000100010010000000000000000000000F0010000006305000520140923000101 00000000000000000000000000000000000000000000000000000000000000000000000000000000000000000000000000000000000000000N 00000000000NCONT   00    00000000000          00000000000000000000000000000000000000000000 000000000000000A000000000000000000000000000000000000000000000 000000000000000000000000000000000000000     00000000                                                                                                                        000000000000000000
F0010000006305100001000083050133900011050500000000000000000201409230002001VALTAC DEL CARIBE LTDA                            D000000001000000000000000000000000100010010000000000000000000000F0010000006305100120140923000101 00000000000000000000000000000000000000000000000000000000000000000000000000000000000000000000000000000000000000000N 00000000000NCONT   00    00000000000          00000000000000000000000000000000000000000000 000000000000000A000000000000000000000000000000000000000000000 000000000000000000000000000000000000000     00000000                                                                                                                        000000000000000000
F0010000006305100002000083050133900041450500000000000000000201409230002001VALTAC DEL CARIBE LTDA                            C000000000900000000000000000000000100010010000000000000000000000F0010000006305100220140923000101 00000000000000000000000000000000000000000000000000000000000000000000000000000000000000000000000000000000000000000N 00000000000NCONT   00    00000000000          00000000000000000000000000000000000000000000 000000000000000A000000000000000000000000000000000000000000000 000000000000000000000000000000000000000     00000000                                                                                                                        000000000000000000
F0010000006305100003000083050133900042505000000000000000000201409230002001VALTAC DEL CARIBE LTDA                            C000000000100000000000000000000000100010010000000000000000000000F0010000006305100320140923000101 00000000000000000000000000000000000000000000000000000000000000000000000000000000000000000000000000000000000000000N 00000000000NCONT   00    00000000000          00000000000000000000000000000000000000000000 000000000000000A000000000000000000000000000000000000000000000 000000000000000000000000000000000000000     00000000                                                                                                                        000000000000000000
F0010000006305100004000083050133900023658300000000000000000201409230002001VALTAC DEL CARIBE LTDA                            C000000000007200000000000000000000100010010000000000000000000000F0010000006305100420140923000101 00000000000000000000000000000000000000000000000000000000000000000000000000000000000000000000000000000000000000000N 00000000000NCONT   00    00000000000          00000000000000000000000000000000000000000000 000000000000000A000000000000000000000000000000000000000000000 000000000000000000000000000000000000000     00000000                                                                                                                        000000000000000000
F0010000006305100005000083050133900013552100000000000000000201409230002001VALTAC DEL CARIBE LTDA                            D000000000007200000000000000000000100010010000000000000000000000F0010000006305100520140923000101 00000000000000000000000000000000000000000000000000000000000000000000000000000000000000000000000000000000000000000N 00000000000NCONT   00    00000000000          00000000000000000000000000000000000000000000 000000000000000A000000000000000000000000000000000000000000000 000000000000000000000000000000000000000     00000000                                                                                                                        000000000000000000
F0010000006305200001000086000089600013050500000000000000000201409230002001SIKA COLOMBIA S.A.                                D000000037546600000000000000000000100010010000000000000000000000F0010000006305200120140923000101 00000000000000000000000000000000000000000000000000000000000000000000000000000000000000000000000000000000000000000N 00000000000NCONT   00    00000000000          00000000000000000000000000000000000000000000 000000000000000A000000000000000000000000000000000000000000000 000000000000000000000000000000000000000     00000000                                                                                                                        000000000000000000
F0010000006305200002000086000089600041450500000000000000000201409230002001SIKA COLOMBIA S.A.                                C000000034159400000000000000000000100010010000000000000000000000F0010000006305200220140923000101 00000000000000000000000000000000000000000000000000000000000000000000000000000000000000000000000000000000000000000N 00000000000NCONT   00    00000000000          00000000000000000000000000000000000000000000 000000000000000A000000000000000000000000000000000000000000000 000000000000000000000000000000000000000     00000000                                                                                                                        000000000000000000
F0010000006305200003000086000089600042505000000000000000000201409230002001SIKA COLOMBIA S.A.                                C000000003387200000000000000000000100010010000000000000000000000F0010000006305200320140923000101 00000000000000000000000000000000000000000000000000000000000000000000000000000000000000000000000000000000000000000N 00000000000NCONT   00    00000000000          00000000000000000000000000000000000000000000 000000000000000A000000000000000000000000000000000000000000000 000000000000000000000000000000000000000     00000000                                                                                                                        000000000000000000
F0010000006305200004000086000089600023658300000000000000000201409230002001SIKA COLOMBIA S.A.                                C000000000273300000000000000000000100010010000000000000000000000F0010000006305200420140923000101 00000000000000000000000000000000000000000000000000000000000000000000000000000000000000000000000000000000000000000N 00000000000NCONT   00    00000000000          00000000000000000000000000000000000000000000 000000000000000A000000000000000000000000000000000000000000000 000000000000000000000000000000000000000     00000000                                                                                                                        000000000000000000
F0010000006305200005000086000089600013552100000000000000000201409230002001SIKA COLOMBIA S.A.                                D000000000273300000000000000000000100010010000000000000000000000F0010000006305200520140923000101 00000000000000000000000000000000000000000000000000000000000000000000000000000000000000000000000000000000000000000N 00000000000NCONT   00    00000000000          00000000000000000000000000000000000000000000 000000000000000A000000000000000000000000000000000000000000000 000000000000000000000000000000000000000     00000000                                                                                                                        000000000000000000
F0010000006305300001000003265780700011050500000000000000000201409230002001ZUNILDA GUERRERO                                  D000000001500000000000000000000000100010010000000000000000000000F0010000006305300120140923000101 00000000000000000000000000000000000000000000000000000000000000000000000000000000000000000000000000000000000000000N 00000000000NCONT   00    00000000000          00000000000000000000000000000000000000000000 000000000000000A000000000000000000000000000000000000000000000 000000000000000000000000000000000000000     00000000                                                                                                                        000000000000000000
F0010000006305300002000003265780700041450500000000000000000201409230002001ZUNILDA GUERRERO                                  C000000001200000000000000000000000100010010000000000000000000000F0010000006305300220140923000101 00000000000000000000000000000000000000000000000000000000000000000000000000000000000000000000000000000000000000000N 00000000000NCONT   00    00000000000          00000000000000000000000000000000000000000000 000000000000000A000000000000000000000000000000000000000000000 000000000000000000000000000000000000000     00000000                                                                                                                        000000000000000000
F0010000006305300003000003265780700042505000000000000000000201409230002001ZUNILDA GUERRERO                                  C000000000300000000000000000000000100010010000000000000000000000F0010000006305300320140923000101 00000000000000000000000000000000000000000000000000000000000000000000000000000000000000000000000000000000000000000N 00000000000NCONT   00    00000000000          00000000000000000000000000000000000000000000 000000000000000A000000000000000000000000000000000000000000000 000000000000000000000000000000000000000     00000000                                                                                                                        000000000000000000
F0010000006305300004000003265780700023658300000000000000000201409230002001ZUNILDA GUERRERO                                  C000000000009600000000000000000000100010010000000000000000000000F0010000006305300420140923000101 00000000000000000000000000000000000000000000000000000000000000000000000000000000000000000000000000000000000000000N 00000000000NCONT   00    00000000000          00000000000000000000000000000000000000000000 000000000000000A000000000000000000000000000000000000000000000 000000000000000000000000000000000000000     00000000                                                                                                                        000000000000000000
F0010000006305300005000003265780700013552100000000000000000201409230002001ZUNILDA GUERRERO                                  D000000000009600000000000000000000100010010000000000000000000000F0010000006305300520140923000101 00000000000000000000000000000000000000000000000000000000000000000000000000000000000000000000000000000000000000000N 00000000000NCONT   00    00000000000          00000000000000000000000000000000000000000000 000000000000000A000000000000000000000000000000000000000000000 000000000000000000000000000000000000000     00000000                                                                                                                        000000000000000000
F0010000006305400001000009123559200011050500000000000000000201409230002001JORGE EDUARDO  GARCIA -- OIL-FILTERS. G.C         D000000017000000000000000000000000100010010000000000000000000000F0010000006305400120140923000101 00000000000000000000000000000000000000000000000000000000000000000000000000000000000000000000000000000000000000000N 00000000000NCONT   00    00000000000          00000000000000000000000000000000000000000000 000000000000000A000000000000000000000000000000000000000000000 000000000000000000000000000000000000000     00000000                                                                                                                        000000000000000000
F0010000006305400002000009123559200041450500000000000000000201409230002001JORGE EDUARDO  GARCIA -- OIL-FILTERS. G.C         C000000015000000000000000000000000100010010000000000000000000000F0010000006305400220140923000101 00000000000000000000000000000000000000000000000000000000000000000000000000000000000000000000000000000000000000000N 00000000000NCONT   00    00000000000          00000000000000000000000000000000000000000000 000000000000000A000000000000000000000000000000000000000000000 000000000000000000000000000000000000000     00000000                                                                                                                        000000000000000000
F0010000006305400003000009123559200042505000000000000000000201409230002001JORGE EDUARDO  GARCIA -- OIL-FILTERS. G.C         C000000002000000000000000000000000100010010000000000000000000000F0010000006305400320140923000101 00000000000000000000000000000000000000000000000000000000000000000000000000000000000000000000000000000000000000000N 00000000000NCONT   00    00000000000          00000000000000000000000000000000000000000000 000000000000000A000000000000000000000000000000000000000000000 000000000000000000000000000000000000000     00000000                                                                                                                        000000000000000000
F0010000006305400004000009123559200023658300000000000000000201409230002001JORGE EDUARDO  GARCIA -- OIL-FILTERS. G.C         C000000000120000000000000000000000100010010000000000000000000000F0010000006305400420140923000101 00000000000000000000000000000000000000000000000000000000000000000000000000000000000000000000000000000000000000000N 00000000000NCONT   00    00000000000          00000000000000000000000000000000000000000000 000000000000000A000000000000000000000000000000000000000000000 000000000000000000000000000000000000000     00000000                                                                                                                        000000000000000000
F0010000006305400005000009123559200013552100000000000000000201409230002001JORGE EDUARDO  GARCIA -- OIL-FILTERS. G.C         D000000000120000000000000000000000100010010000000000000000000000F0010000006305400520140923000101 00000000000000000000000000000000000000000000000000000000000000000000000000000000000000000000000000000000000000000N 00000000000NCONT   00    00000000000          00000000000000000000000000000000000000000000 000000000000000A000000000000000000000000000000000000000000000 000000000000000000000000000000000000000     00000000                                                                                                                        000000000000000000
F0010000006305500001000000869805000011050500000000000000000201409230002001WILMAN RAMBAL LARA                                D000000001500000000000000000000000100010010000000000000000000000F0010000006305500120140923000101 00000000000000000000000000000000000000000000000000000000000000000000000000000000000000000000000000000000000000000N 00000000000NCONT   00    00000000000          00000000000000000000000000000000000000000000 000000000000000A000000000000000000000000000000000000000000000 000000000000000000000000000000000000000     00000000                                                                                                                        000000000000000000
F0010000006305500002000000869805000041450500000000000000000201409230002001WILMAN RAMBAL LARA                                C000000001400000000000000000000000100010010000000000000000000000F0010000006305500220140923000101 00000000000000000000000000000000000000000000000000000000000000000000000000000000000000000000000000000000000000000N 00000000000NCONT   00    00000000000          00000000000000000000000000000000000000000000 000000000000000A000000000000000000000000000000000000000000000 000000000000000000000000000000000000000     00000000                                                                                                                        000000000000000000
F0010000006305500003000000869805000042505000000000000000000201409230002001WILMAN RAMBAL LARA                                C000000000100000000000000000000000100010010000000000000000000000F0010000006305500320140923000101 00000000000000000000000000000000000000000000000000000000000000000000000000000000000000000000000000000000000000000N 00000000000NCONT   00    00000000000          00000000000000000000000000000000000000000000 000000000000000A000000000000000000000000000000000000000000000 000000000000000000000000000000000000000     00000000                                                                                                                        000000000000000000
F0010000006305500004000000869805000023658300000000000000000201409230002001WILMAN RAMBAL LARA                                C000000000011200000000000000000000100010010000000000000000000000F0010000006305500420140923000101 00000000000000000000000000000000000000000000000000000000000000000000000000000000000000000000000000000000000000000N 00000000000NCONT   00    00000000000          00000000000000000000000000000000000000000000 000000000000000A000000000000000000000000000000000000000000000 000000000000000000000000000000000000000     00000000                                                                                                                        000000000000000000
F0010000006305500005000000869805000013552100000000000000000201409230002001WILMAN RAMBAL LARA                                D000000000011200000000000000000000100010010000000000000000000000F0010000006305500520140923000101 00000000000000000000000000000000000000000000000000000000000000000000000000000000000000000000000000000000000000000N 00000000000NCONT   00    00000000000          00000000000000000000000000000000000000000000 000000000000000A000000000000000000000000000000000000000000000 000000000000000000000000000000000000000     00000000                                                                                                                        000000000000000000
F0010000006305600001000000744496800011050500000000000000000201409230002001TOMAS SANCHEZ                                     D000000001000000000000000000000000100010010000000000000000000000F0010000006305600120140923000101 00000000000000000000000000000000000000000000000000000000000000000000000000000000000000000000000000000000000000000N 00000000000NCONT   00    00000000000          00000000000000000000000000000000000000000000 000000000000000A000000000000000000000000000000000000000000000 000000000000000000000000000000000000000     00000000                                                                                                                        000000000000000000
F0010000006305600002000000744496800041450500000000000000000201409230002001TOMAS SANCHEZ                                     C000000000900000000000000000000000100010010000000000000000000000F0010000006305600220140923000101 00000000000000000000000000000000000000000000000000000000000000000000000000000000000000000000000000000000000000000N 00000000000NCONT   00    00000000000          00000000000000000000000000000000000000000000 000000000000000A000000000000000000000000000000000000000000000 000000000000000000000000000000000000000     00000000                                                                                                                        000000000000000000
F0010000006305600003000000744496800042505000000000000000000201409230002001TOMAS SANCHEZ                                     C000000000100000000000000000000000100010010000000000000000000000F0010000006305600320140923000101 00000000000000000000000000000000000000000000000000000000000000000000000000000000000000000000000000000000000000000N 00000000000NCONT   00    00000000000          00000000000000000000000000000000000000000000 000000000000000A000000000000000000000000000000000000000000000 000000000000000000000000000000000000000     00000000                                                                                                                        000000000000000000
F0010000006305600004000000744496800023658300000000000000000201409230002001TOMAS SANCHEZ                                     C000000000007200000000000000000000100010010000000000000000000000F0010000006305600420140923000101 00000000000000000000000000000000000000000000000000000000000000000000000000000000000000000000000000000000000000000N 00000000000NCONT   00    00000000000          00000000000000000000000000000000000000000000 000000000000000A000000000000000000000000000000000000000000000 000000000000000000000000000000000000000     00000000                                                                                                                        000000000000000000
F0010000006305600005000000744496800013552100000000000000000201409230002001TOMAS SANCHEZ                                     D000000000007200000000000000000000100010010000000000000000000000F0010000006305600520140923000101 00000000000000000000000000000000000000000000000000000000000000000000000000000000000000000000000000000000000000000N 00000000000NCONT   00    00000000000          00000000000000000000000000000000000000000000 000000000000000A000000000000000000000000000000000000000000000 000000000000000000000000000000000000000     00000000                                                                                                                        000000000000000000
F0010000006305700001000000870907300011050500000000000000000201409230002001SURTIDOR FERRETERO                                D000000003400000000000000000000000100010010000000000000000000000F0010000006305700120140923000101 00000000000000000000000000000000000000000000000000000000000000000000000000000000000000000000000000000000000000000N 00000000000NCONT   00    00000000000          00000000000000000000000000000000000000000000 000000000000000A000000000000000000000000000000000000000000000 000000000000000000000000000000000000000     00000000                                                                                                                        000000000000000000
F0010000006305700002000000870907300041450500000000000000000201409230002001SURTIDOR FERRETERO                                C000000002250000000000000000000000100010010000000000000000000000F0010000006305700220140923000101 00000000000000000000000000000000000000000000000000000000000000000000000000000000000000000000000000000000000000000N 00000000000NCONT   00    00000000000          00000000000000000000000000000000000000000000 000000000000000A000000000000000000000000000000000000000000000 000000000000000000000000000000000000000     00000000                                                                                                                        000000000000000000
F0010000006305700003000000870907300042505000000000000000000201409230002001SURTIDOR FERRETERO                                C000000001150000000000000000000000100010010000000000000000000000F0010000006305700320140923000101 00000000000000000000000000000000000000000000000000000000000000000000000000000000000000000000000000000000000000000N 00000000000NCONT   00    00000000000          00000000000000000000000000000000000000000000 000000000000000A000000000000000000000000000000000000000000000 000000000000000000000000000000000000000     00000000                                                                                                                        000000000000000000
F0010000006305700004000000870907300023658300000000000000000201409230002001SURTIDOR FERRETERO                                C000000000018000000000000000000000100010010000000000000000000000F0010000006305700420140923000101 00000000000000000000000000000000000000000000000000000000000000000000000000000000000000000000000000000000000000000N 00000000000NCONT   00    00000000000          00000000000000000000000000000000000000000000 000000000000000A000000000000000000000000000000000000000000000 000000000000000000000000000000000000000     00000000                                                                                                                        000000000000000000
F0010000006305700005000000870907300013552100000000000000000201409230002001SURTIDOR FERRETERO                                D000000000018000000000000000000000100010010000000000000000000000F0010000006305700520140923000101 00000000000000000000000000000000000000000000000000000000000000000000000000000000000000000000000000000000000000000N 00000000000NCONT   00    00000000000          00000000000000000000000000000000000000000000 000000000000000A000000000000000000000000000000000000000000000 000000000000000000000000000000000000000     00000000                                                                                                                        000000000000000000
F0010000006305800001000009249843700011050500000000000000000201409230002001CESAR MERCADO                                     D000000006500000000000000000000000100010010000000000000000000000F0010000006305800120140923000101 00000000000000000000000000000000000000000000000000000000000000000000000000000000000000000000000000000000000000000N 00000000000NCONT   00    00000000000          00000000000000000000000000000000000000000000 000000000000000A000000000000000000000000000000000000000000000 000000000000000000000000000000000000000     00000000                                                                                                                        000000000000000000
F0010000006305800002000009249843700041450500000000000000000201409230002001CESAR MERCADO                                     C000000006140000000000000000000000100010010000000000000000000000F0010000006305800220140923000101 00000000000000000000000000000000000000000000000000000000000000000000000000000000000000000000000000000000000000000N 00000000000NCONT   00    00000000000          00000000000000000000000000000000000000000000 000000000000000A000000000000000000000000000000000000000000000 000000000000000000000000000000000000000     00000000                                                                                                                        000000000000000000
F0010000006305800003000009249843700042505000000000000000000201409230002001CESAR MERCADO                                     C000000000360000000000000000000000100010010000000000000000000000F0010000006305800320140923000101 00000000000000000000000000000000000000000000000000000000000000000000000000000000000000000000000000000000000000000N 00000000000NCONT   00    00000000000          00000000000000000000000000000000000000000000 000000000000000A000000000000000000000000000000000000000000000 000000000000000000000000000000000000000     00000000                                                                                                                        000000000000000000
F0010000006305800004000009249843700023658300000000000000000201409230002001CESAR MERCADO                                     C000000000049100000000000000000000100010010000000000000000000000F0010000006305800420140923000101 00000000000000000000000000000000000000000000000000000000000000000000000000000000000000000000000000000000000000000N 00000000000NCONT   00    00000000000          00000000000000000000000000000000000000000000 000000000000000A000000000000000000000000000000000000000000000 000000000000000000000000000000000000000     00000000                                                                                                                        000000000000000000
F0010000006305800005000009249843700013552100000000000000000201409230002001CESAR MERCADO                                     D000000000049100000000000000000000100010010000000000000000000000F0010000006305800520140923000101 00000000000000000000000000000000000000000000000000000000000000000000000000000000000000000000000000000000000000000N 00000000000NCONT   00    00000000000          00000000000000000000000000000000000000000000 000000000000000A000000000000000000000000000000000000000000000 000000000000000000000000000000000000000     00000000                                                                                                                        000000000000000000
F0010000006305900001000000870907300011050500000000000000000201409230002001SURTIDOR FERRETERO                                D000000002000000000000000000000000100010010000000000000000000000F0010000006305900120140923000101 00000000000000000000000000000000000000000000000000000000000000000000000000000000000000000000000000000000000000000N 00000000000NCONT   00    00000000000          00000000000000000000000000000000000000000000 000000000000000A000000000000000000000000000000000000000000000 000000000000000000000000000000000000000     00000000                                                                                                                        000000000000000000
F0010000006305900002000000870907300041450500000000000000000201409230002001SURTIDOR FERRETERO                                C000000000750000000000000000000000100010010000000000000000000000F0010000006305900220140923000101 00000000000000000000000000000000000000000000000000000000000000000000000000000000000000000000000000000000000000000N 00000000000NCONT   00    00000000000          00000000000000000000000000000000000000000000 000000000000000A000000000000000000000000000000000000000000000 000000000000000000000000000000000000000     00000000                                                                                                                        000000000000000000
F0010000006305900003000000870907300042505000000000000000000201409230002001SURTIDOR FERRETERO                                C000000001250000000000000000000000100010010000000000000000000000F0010000006305900320140923000101 00000000000000000000000000000000000000000000000000000000000000000000000000000000000000000000000000000000000000000N 00000000000NCONT   00    00000000000          00000000000000000000000000000000000000000000 000000000000000A000000000000000000000000000000000000000000000 000000000000000000000000000000000000000     00000000                                                                                                                        000000000000000000
F0010000006305900004000000870907300023658300000000000000000201409230002001SURTIDOR FERRETERO                                C000000000006000000000000000000000100010010000000000000000000000F0010000006305900420140923000101 00000000000000000000000000000000000000000000000000000000000000000000000000000000000000000000000000000000000000000N 00000000000NCONT   00    00000000000          00000000000000000000000000000000000000000000 000000000000000A000000000000000000000000000000000000000000000 000000000000000000000000000000000000000     00000000                                                                                                                        000000000000000000
F0010000006305900005000000870907300013552100000000000000000201409230002001SURTIDOR FERRETERO                                D000000000006000000000000000000000100010010000000000000000000000F0010000006305900520140923000101 00000000000000000000000000000000000000000000000000000000000000000000000000000000000000000000000000000000000000000N 00000000000NCONT   00    00000000000          00000000000000000000000000000000000000000000 000000000000000A000000000000000000000000000000000000000000000 000000000000000000000000000000000000000     00000000                                                                                                                        000000000000000000
F0010000006306000001000003319910700011050500000000000000000201409230002001LUZ DARY JIMENEZ MARTINEZ                         D000000001100000000000000000000000100010010000000000000000000000F0010000006306000120140923000101 00000000000000000000000000000000000000000000000000000000000000000000000000000000000000000000000000000000000000000N 00000000000NCONT   00    00000000000          00000000000000000000000000000000000000000000 000000000000000A000000000000000000000000000000000000000000000 000000000000000000000000000000000000000     00000000                                                                                                                        000000000000000000
F0010000006306000002000003319910700041450500000000000000000201409230002001LUZ DARY JIMENEZ MARTINEZ                         C000000001000000000000000000000000100010010000000000000000000000F0010000006306000220140923000101 00000000000000000000000000000000000000000000000000000000000000000000000000000000000000000000000000000000000000000N 00000000000NCONT   00    00000000000          00000000000000000000000000000000000000000000 000000000000000A000000000000000000000000000000000000000000000 000000000000000000000000000000000000000     00000000                                                                                                                        000000000000000000
F0010000006306000003000003319910700042505000000000000000000201409230002001LUZ DARY JIMENEZ MARTINEZ                         C000000000100000000000000000000000100010010000000000000000000000F0010000006306000320140923000101 00000000000000000000000000000000000000000000000000000000000000000000000000000000000000000000000000000000000000000N 00000000000NCONT   00    00000000000          00000000000000000000000000000000000000000000 000000000000000A000000000000000000000000000000000000000000000 000000000000000000000000000000000000000     00000000                                                                                                                        000000000000000000
F0010000006306000004000003319910700023658300000000000000000201409230002001LUZ DARY JIMENEZ MARTINEZ                         C000000000008000000000000000000000100010010000000000000000000000F0010000006306000420140923000101 00000000000000000000000000000000000000000000000000000000000000000000000000000000000000000000000000000000000000000N 00000000000NCONT   00    00000000000          00000000000000000000000000000000000000000000 000000000000000A000000000000000000000000000000000000000000000 000000000000000000000000000000000000000     00000000                                                                                                                        000000000000000000
F0010000006306000005000003319910700013552100000000000000000201409230002001LUZ DARY JIMENEZ MARTINEZ                         D000000000008000000000000000000000100010010000000000000000000000F0010000006306000520140923000101 00000000000000000000000000000000000000000000000000000000000000000000000000000000000000000000000000000000000000000N 00000000000NCONT   00    00000000000          00000000000000000000000000000000000000000000 000000000000000A000000000000000000000000000000000000000000000 000000000000000000000000000000000000000     00000000                                                                                                                        000000000000000000
F0010000006306100001000090036991700011050500000000000000000201409230002001DELTA INTERNACIONAL  S.A.S                        D000000003000000000000000000000000100010010000000000000000000000F0010000006306100120140923000101 00000000000000000000000000000000000000000000000000000000000000000000000000000000000000000000000000000000000000000N 00000000000NCONT   00    00000000000          00000000000000000000000000000000000000000000 000000000000000A000000000000000000000000000000000000000000000 000000000000000000000000000000000000000     00000000                                                                                                                        000000000000000000
F0010000006306100002000090036991700041450500000000000000000201409230002001DELTA INTERNACIONAL  S.A.S                        C000000002400000000000000000000000100010010000000000000000000000F0010000006306100220140923000101 00000000000000000000000000000000000000000000000000000000000000000000000000000000000000000000000000000000000000000N 00000000000NCONT   00    00000000000          00000000000000000000000000000000000000000000 000000000000000A000000000000000000000000000000000000000000000 000000000000000000000000000000000000000     00000000                                                                                                                        000000000000000000
F0010000006306100003000090036991700042505000000000000000000201409230002001DELTA INTERNACIONAL  S.A.S                        C000000000600000000000000000000000100010010000000000000000000000F0010000006306100320140923000101 00000000000000000000000000000000000000000000000000000000000000000000000000000000000000000000000000000000000000000N 00000000000NCONT   00    00000000000          00000000000000000000000000000000000000000000 000000000000000A000000000000000000000000000000000000000000000 000000000000000000000000000000000000000     00000000                                                                                                                        000000000000000000
F0010000006306100004000090036991700023658300000000000000000201409230002001DELTA INTERNACIONAL  S.A.S                        C000000000019200000000000000000000100010010000000000000000000000F0010000006306100420140923000101 00000000000000000000000000000000000000000000000000000000000000000000000000000000000000000000000000000000000000000N 00000000000NCONT   00    00000000000          00000000000000000000000000000000000000000000 000000000000000A000000000000000000000000000000000000000000000 000000000000000000000000000000000000000     00000000                                                                                                                        000000000000000000
F0010000006306100005000090036991700013552100000000000000000201409230002001DELTA INTERNACIONAL  S.A.S                        D000000000019200000000000000000000100010010000000000000000000000F0010000006306100520140923000101 00000000000000000000000000000000000000000000000000000000000000000000000000000000000000000000000000000000000000000N 00000000000NCONT   00    00000000000          00000000000000000000000000000000000000000000 000000000000000A000000000000000000000000000000000000000000000 000000000000000000000000000000000000000     00000000                                                                                                                        000000000000000000
F0010000006306200001000090050144800011050500000000000000000201409230002001PLASTICOS JR ASOCIADOS SAS                        D000000001100000000000000000000000100010010000000000000000000000F0010000006306200120140923000101 00000000000000000000000000000000000000000000000000000000000000000000000000000000000000000000000000000000000000000N 00000000000NCONT   00    00000000000          00000000000000000000000000000000000000000000 000000000000000A000000000000000000000000000000000000000000000 000000000000000000000000000000000000000     00000000                                                                                                                        000000000000000000
F0010000006306200002000090050144800041450500000000000000000201409230002001PLASTICOS JR ASOCIADOS SAS                        C000000000850000000000000000000000100010010000000000000000000000F0010000006306200220140923000101 00000000000000000000000000000000000000000000000000000000000000000000000000000000000000000000000000000000000000000N 00000000000NCONT   00    00000000000          00000000000000000000000000000000000000000000 000000000000000A000000000000000000000000000000000000000000000 000000000000000000000000000000000000000     00000000                                                                                                                        000000000000000000
F0010000006306200003000090050144800042505000000000000000000201409230002001PLASTICOS JR ASOCIADOS SAS                        C000000000250000000000000000000000100010010000000000000000000000F0010000006306200320140923000101 00000000000000000000000000000000000000000000000000000000000000000000000000000000000000000000000000000000000000000N 00000000000NCONT   00    00000000000          00000000000000000000000000000000000000000000 000000000000000A000000000000000000000000000000000000000000000 000000000000000000000000000000000000000     00000000                                                                                                                        000000000000000000
F0010000006306200004000090050144800023658300000000000000000201409230002001PLASTICOS JR ASOCIADOS SAS                        C000000000006800000000000000000000100010010000000000000000000000F0010000006306200420140923000101 00000000000000000000000000000000000000000000000000000000000000000000000000000000000000000000000000000000000000000N 00000000000NCONT   00    00000000000          00000000000000000000000000000000000000000000 000000000000000A000000000000000000000000000000000000000000000 000000000000000000000000000000000000000     00000000                                                                                                                        000000000000000000
F0010000006306200005000090050144800013552100000000000000000201409230002001PLASTICOS JR ASOCIADOS SAS                        D000000000006800000000000000000000100010010000000000000000000000F0010000006306200520140923000101 00000000000000000000000000000000000000000000000000000000000000000000000000000000000000000000000000000000000000000N 00000000000NCONT   00    00000000000          00000000000000000000000000000000000000000000 000000000000000A000000000000000000000000000000000000000000000 000000000000000000000000000000000000000     00000000                                                                                                                        000000000000000000
F0010000006306300001000002245670100011050500000000000000000201409230002001YOLANDA  TOBON                                    D000000028500000000000000000000000100010010000000000000000000000F0010000006306300120140923000101 00000000000000000000000000000000000000000000000000000000000000000000000000000000000000000000000000000000000000000N 00000000000NCONT   00    00000000000          00000000000000000000000000000000000000000000 000000000000000A000000000000000000000000000000000000000000000 000000000000000000000000000000000000000     00000000                                                                                                                        000000000000000000
F0010000006306300002000002245670100041450500000000000000000201409230002001YOLANDA  TOBON                                    C000000024000000000000000000000000100010010000000000000000000000F0010000006306300220140923000101 00000000000000000000000000000000000000000000000000000000000000000000000000000000000000000000000000000000000000000N 00000000000NCONT   00    00000000000          00000000000000000000000000000000000000000000 000000000000000A000000000000000000000000000000000000000000000 000000000000000000000000000000000000000     00000000                                                                                                                        000000000000000000
F0010000006306300003000002245670100042505000000000000000000201409230002001YOLANDA  TOBON                                    C000000004500000000000000000000000100010010000000000000000000000F0010000006306300320140923000101 00000000000000000000000000000000000000000000000000000000000000000000000000000000000000000000000000000000000000000N 00000000000NCONT   00    00000000000          00000000000000000000000000000000000000000000 000000000000000A000000000000000000000000000000000000000000000 000000000000000000000000000000000000000     00000000                                                                                                                        000000000000000000
F0010000006306300004000002245670100023658300000000000000000201409230002001YOLANDA  TOBON                                    C000000000192000000000000000000000100010010000000000000000000000F0010000006306300420140923000101 00000000000000000000000000000000000000000000000000000000000000000000000000000000000000000000000000000000000000000N 00000000000NCONT   00    00000000000          00000000000000000000000000000000000000000000 000000000000000A000000000000000000000000000000000000000000000 000000000000000000000000000000000000000     00000000                                                                                                                        000000000000000000
F0010000006306300005000002245670100013552100000000000000000201409230002001YOLANDA  TOBON                                    D000000000192000000000000000000000100010010000000000000000000000F0010000006306300520140923000101 00000000000000000000000000000000000000000000000000000000000000000000000000000000000000000000000000000000000000000N 00000000000NCONT   00    00000000000          00000000000000000000000000000000000000000000 000000000000000A000000000000000000000000000000000000000000000 000000000000000000000000000000000000000     00000000                                                                                                                        000000000000000000
F0010000006306400001000003262315300011050500000000000000000201409230002001CACHARRERIA LA PROPIA JICHA                       D000000001100000000000000000000000100010010000000000000000000000F0010000006306400120140923000101 00000000000000000000000000000000000000000000000000000000000000000000000000000000000000000000000000000000000000000N 00000000000NCONT   00    00000000000          00000000000000000000000000000000000000000000 000000000000000A000000000000000000000000000000000000000000000 000000000000000000000000000000000000000     00000000                                                                                                                        000000000000000000
F0010000006306400002000003262315300041450500000000000000000201409230002001CACHARRERIA LA PROPIA JICHA                       C000000000900000000000000000000000100010010000000000000000000000F0010000006306400220140923000101 00000000000000000000000000000000000000000000000000000000000000000000000000000000000000000000000000000000000000000N 00000000000NCONT   00    00000000000          00000000000000000000000000000000000000000000 000000000000000A000000000000000000000000000000000000000000000 000000000000000000000000000000000000000     00000000                                                                                                                        000000000000000000
F0010000006306400003000003262315300042505000000000000000000201409230002001CACHARRERIA LA PROPIA JICHA                       C000000000200000000000000000000000100010010000000000000000000000F0010000006306400320140923000101 00000000000000000000000000000000000000000000000000000000000000000000000000000000000000000000000000000000000000000N 00000000000NCONT   00    00000000000          00000000000000000000000000000000000000000000 000000000000000A000000000000000000000000000000000000000000000 000000000000000000000000000000000000000     00000000                                                                                                                        000000000000000000
F0010000006306400004000003262315300023658300000000000000000201409230002001CACHARRERIA LA PROPIA JICHA                       C000000000007200000000000000000000100010010000000000000000000000F0010000006306400420140923000101 00000000000000000000000000000000000000000000000000000000000000000000000000000000000000000000000000000000000000000N 00000000000NCONT   00    00000000000          00000000000000000000000000000000000000000000 000000000000000A000000000000000000000000000000000000000000000 000000000000000000000000000000000000000     00000000                                                                                                                        000000000000000000
F0010000006306400005000003262315300013552100000000000000000201409230002001CACHARRERIA LA PROPIA JICHA                       D000000000007200000000000000000000100010010000000000000000000000F0010000006306400520140923000101 00000000000000000000000000000000000000000000000000000000000000000000000000000000000000000000000000000000000000000N 00000000000NCONT   00    00000000000          00000000000000000000000000000000000000000000 000000000000000A000000000000000000000000000000000000000000000 000000000000000000000000000000000000000     00000000                                                                                                                        000000000000000000
F0010000006306500001000007225511500011050500000000000000000201409230002001MAIGEL CHADID                                     D000000004500000000000000000000000100010010000000000000000000000F0010000006306500120140923000101 00000000000000000000000000000000000000000000000000000000000000000000000000000000000000000000000000000000000000000N 00000000000NCONT   00    00000000000          00000000000000000000000000000000000000000000 000000000000000A000000000000000000000000000000000000000000000 000000000000000000000000000000000000000     00000000                                                                                                                        000000000000000000
F0010000006306500002000007225511500041450500000000000000000201409230002001MAIGEL CHADID                                     C000000003000000000000000000000000100010010000000000000000000000F0010000006306500220140923000101 00000000000000000000000000000000000000000000000000000000000000000000000000000000000000000000000000000000000000000N 00000000000NCONT   00    00000000000          00000000000000000000000000000000000000000000 000000000000000A000000000000000000000000000000000000000000000 000000000000000000000000000000000000000     00000000                                                                                                                        000000000000000000
F0010000006306500003000007225511500042505000000000000000000201409230002001MAIGEL CHADID                                     C000000001500000000000000000000000100010010000000000000000000000F0010000006306500320140923000101 00000000000000000000000000000000000000000000000000000000000000000000000000000000000000000000000000000000000000000N 00000000000NCONT   00    00000000000          00000000000000000000000000000000000000000000 000000000000000A000000000000000000000000000000000000000000000 000000000000000000000000000000000000000     00000000                                                                                                                        000000000000000000
F0010000006306500004000007225511500023658300000000000000000201409230002001MAIGEL CHADID                                     C000000000024000000000000000000000100010010000000000000000000000F0010000006306500420140923000101 00000000000000000000000000000000000000000000000000000000000000000000000000000000000000000000000000000000000000000N 00000000000NCONT   00    00000000000          00000000000000000000000000000000000000000000 000000000000000A000000000000000000000000000000000000000000000 000000000000000000000000000000000000000     00000000                                                                                                                        000000000000000000
F0010000006306500005000007225511500013552100000000000000000201409230002001MAIGEL CHADID                                     D000000000024000000000000000000000100010010000000000000000000000F0010000006306500520140923000101 00000000000000000000000000000000000000000000000000000000000000000000000000000000000000000000000000000000000000000N 00000000000NCONT   00    00000000000          00000000000000000000000000000000000000000000 000000000000000A000000000000000000000000000000000000000000000 000000000000000000000000000000000000000     00000000                                                                                                                        000000000000000000
F0010000006306600001000001022529300011050500000000000000000201409230002001ALBERTO ALVAREZ ISAZA                             D000000000910000000000000000000000100010010000000000000000000000F0010000006306600120140923000101 00000000000000000000000000000000000000000000000000000000000000000000000000000000000000000000000000000000000000000N 00000000000NCONT   00    00000000000          00000000000000000000000000000000000000000000 000000000000000A000000000000000000000000000000000000000000000 000000000000000000000000000000000000000     00000000                                                                                                                        000000000000000000
F0010000006306600002000001022529300041450500000000000000000201409230002001ALBERTO ALVAREZ ISAZA                             C000000000860000000000000000000000100010010000000000000000000000F0010000006306600220140923000101 00000000000000000000000000000000000000000000000000000000000000000000000000000000000000000000000000000000000000000N 00000000000NCONT   00    00000000000          00000000000000000000000000000000000000000000 000000000000000A000000000000000000000000000000000000000000000 000000000000000000000000000000000000000     00000000                                                                                                                        000000000000000000
F0010000006306600003000001022529300042505000000000000000000201409230002001ALBERTO ALVAREZ ISAZA                             C000000000050000000000000000000000100010010000000000000000000000F0010000006306600320140923000101 00000000000000000000000000000000000000000000000000000000000000000000000000000000000000000000000000000000000000000N 00000000000NCONT   00    00000000000          00000000000000000000000000000000000000000000 000000000000000A000000000000000000000000000000000000000000000 000000000000000000000000000000000000000     00000000                                                                                                                        000000000000000000
F0010000006306600004000001022529300023658300000000000000000201409230002001ALBERTO ALVAREZ ISAZA                             C000000000006900000000000000000000100010010000000000000000000000F0010000006306600420140923000101 00000000000000000000000000000000000000000000000000000000000000000000000000000000000000000000000000000000000000000N 00000000000NCONT   00    00000000000          00000000000000000000000000000000000000000000 000000000000000A000000000000000000000000000000000000000000000 000000000000000000000000000000000000000     00000000                                                                                                                        000000000000000000
F0010000006306600005000001022529300013552100000000000000000201409230002001ALBERTO ALVAREZ ISAZA                             D000000000006900000000000000000000100010010000000000000000000000F0010000006306600520140923000101 00000000000000000000000000000000000000000000000000000000000000000000000000000000000000000000000000000000000000000N 00000000000NCONT   00    00000000000          00000000000000000000000000000000000000000000 000000000000000A000000000000000000000000000000000000000000000 000000000000000000000000000000000000000     00000000                                                                                                                        000000000000000000
F0010000006306700001000004544401900011050500000000000000000201409230002001FISIOTER                                          D000000001100000000000000000000000100010010000000000000000000000F0010000006306700120140923000101 00000000000000000000000000000000000000000000000000000000000000000000000000000000000000000000000000000000000000000N 00000000000NCONT   00    00000000000          00000000000000000000000000000000000000000000 000000000000000A000000000000000000000000000000000000000000000 000000000000000000000000000000000000000     00000000                                                                                                                        000000000000000000
F0010000006306700002000004544401900041450500000000000000000201409230002001FISIOTER                                          C000000001000000000000000000000000100010010000000000000000000000F0010000006306700220140923000101 00000000000000000000000000000000000000000000000000000000000000000000000000000000000000000000000000000000000000000N 00000000000NCONT   00    00000000000          00000000000000000000000000000000000000000000 000000000000000A000000000000000000000000000000000000000000000 000000000000000000000000000000000000000     00000000                                                                                                                        000000000000000000
F0010000006306700003000004544401900042505000000000000000000201409230002001FISIOTER                                          C000000000100000000000000000000000100010010000000000000000000000F0010000006306700320140923000101 00000000000000000000000000000000000000000000000000000000000000000000000000000000000000000000000000000000000000000N 00000000000NCONT   00    00000000000          00000000000000000000000000000000000000000000 000000000000000A000000000000000000000000000000000000000000000 000000000000000000000000000000000000000     00000000                                                                                                                        000000000000000000
F0010000006306700004000004544401900023658300000000000000000201409230002001FISIOTER                                          C000000000008000000000000000000000100010010000000000000000000000F0010000006306700420140923000101 00000000000000000000000000000000000000000000000000000000000000000000000000000000000000000000000000000000000000000N 00000000000NCONT   00    00000000000          00000000000000000000000000000000000000000000 000000000000000A000000000000000000000000000000000000000000000 000000000000000000000000000000000000000     00000000                                                                                                                        000000000000000000
F0010000006306700005000004544401900013552100000000000000000201409230002001FISIOTER                                          D000000000008000000000000000000000100010010000000000000000000000F0010000006306700520140923000101 00000000000000000000000000000000000000000000000000000000000000000000000000000000000000000000000000000000000000000N 00000000000NCONT   00    00000000000          00000000000000000000000000000000000000000000 000000000000000A000000000000000000000000000000000000000000000 000000000000000000000000000000000000000     00000000                                                                                                                        000000000000000000
F0010000006306800001000000871573200011050500000000000000000201409230002001ACCESORIAS ARQUITECTONI KJ                        D000000001400000000000000000000000100010010000000000000000000000F0010000006306800120140923000101 00000000000000000000000000000000000000000000000000000000000000000000000000000000000000000000000000000000000000000N 00000000000NCONT   00    00000000000          00000000000000000000000000000000000000000000 000000000000000A000000000000000000000000000000000000000000000 000000000000000000000000000000000000000     00000000                                                                                                                        000000000000000000
F0010000006306800002000000871573200041450500000000000000000201409230002001ACCESORIAS ARQUITECTONI KJ                        C000000000900000000000000000000000100010010000000000000000000000F0010000006306800220140923000101 00000000000000000000000000000000000000000000000000000000000000000000000000000000000000000000000000000000000000000N 00000000000NCONT   00    00000000000          00000000000000000000000000000000000000000000 000000000000000A000000000000000000000000000000000000000000000 000000000000000000000000000000000000000     00000000                                                                                                                        000000000000000000
F0010000006306800003000000871573200042505000000000000000000201409230002001ACCESORIAS ARQUITECTONI KJ                        C000000000500000000000000000000000100010010000000000000000000000F0010000006306800320140923000101 00000000000000000000000000000000000000000000000000000000000000000000000000000000000000000000000000000000000000000N 00000000000NCONT   00    00000000000          00000000000000000000000000000000000000000000 000000000000000A000000000000000000000000000000000000000000000 000000000000000000000000000000000000000     00000000                                                                                                                        000000000000000000
F0010000006306800004000000871573200023658300000000000000000201409230002001ACCESORIAS ARQUITECTONI KJ                        C000000000007200000000000000000000100010010000000000000000000000F0010000006306800420140923000101 00000000000000000000000000000000000000000000000000000000000000000000000000000000000000000000000000000000000000000N 00000000000NCONT   00    00000000000          00000000000000000000000000000000000000000000 000000000000000A000000000000000000000000000000000000000000000 000000000000000000000000000000000000000     00000000                                                                                                                        000000000000000000
F0010000006306800005000000871573200013552100000000000000000201409230002001ACCESORIAS ARQUITECTONI KJ                        D000000000007200000000000000000000100010010000000000000000000000F0010000006306800520140923000101 00000000000000000000000000000000000000000000000000000000000000000000000000000000000000000000000000000000000000000N 00000000000NCONT   00    00000000000          00000000000000000000000000000000000000000000 000000000000000A000000000000000000000000000000000000000000000 000000000000000000000000000000000000000     00000000                                                                                                                        000000000000000000
F0010000006306900001000000871573200011050500000000000000000201409230002001ACCESORIAS ARQUITECTONI KJ                        D000000001500000000000000000000000100010010000000000000000000000F0010000006306900120140923000101 00000000000000000000000000000000000000000000000000000000000000000000000000000000000000000000000000000000000000000N 00000000000NCONT   00    00000000000          00000000000000000000000000000000000000000000 000000000000000A000000000000000000000000000000000000000000000 000000000000000000000000000000000000000     00000000                                                                                                                        000000000000000000
F0010000006306900002000000871573200041450500000000000000000201409230002001ACCESORIAS ARQUITECTONI KJ                        C000000001200000000000000000000000100010010000000000000000000000F0010000006306900220140923000101 00000000000000000000000000000000000000000000000000000000000000000000000000000000000000000000000000000000000000000N 00000000000NCONT   00    00000000000          00000000000000000000000000000000000000000000 000000000000000A000000000000000000000000000000000000000000000 000000000000000000000000000000000000000     00000000                                                                                                                        000000000000000000
F0010000006306900003000000871573200042505000000000000000000201409230002001ACCESORIAS ARQUITECTONI KJ                        C000000000300000000000000000000000100010010000000000000000000000F0010000006306900320140923000101 00000000000000000000000000000000000000000000000000000000000000000000000000000000000000000000000000000000000000000N 00000000000NCONT   00    00000000000          00000000000000000000000000000000000000000000 000000000000000A000000000000000000000000000000000000000000000 000000000000000000000000000000000000000     00000000                                                                                                                        000000000000000000
F0010000006306900004000000871573200023658300000000000000000201409230002001ACCESORIAS ARQUITECTONI KJ                        C000000000009600000000000000000000100010010000000000000000000000F0010000006306900420140923000101 00000000000000000000000000000000000000000000000000000000000000000000000000000000000000000000000000000000000000000N 00000000000NCONT   00    00000000000          00000000000000000000000000000000000000000000 000000000000000A000000000000000000000000000000000000000000000 000000000000000000000000000000000000000     00000000                                                                                                                        000000000000000000
F0010000006306900005000000871573200013552100000000000000000201409230002001ACCESORIAS ARQUITECTONI KJ                        D000000000009600000000000000000000100010010000000000000000000000F0010000006306900520140923000101 00000000000000000000000000000000000000000000000000000000000000000000000000000000000000000000000000000000000000000N 00000000000NCONT   00    00000000000          00000000000000000000000000000000000000000000 000000000000000A000000000000000000000000000000000000000000000 000000000000000000000000000000000000000     00000000                                                                                                                        000000000000000000
F0010000006307000001000002252348100011050500000000000000000201409230002001EL PALACIO DE LA SILLA                            D000000001200000000000000000000000100010010000000000000000000000F0010000006307000120140923000101 00000000000000000000000000000000000000000000000000000000000000000000000000000000000000000000000000000000000000000N 00000000000NCONT   00    00000000000          00000000000000000000000000000000000000000000 000000000000000A000000000000000000000000000000000000000000000 000000000000000000000000000000000000000     00000000                                                                                                                        000000000000000000
F0010000006307000002000002252348100041450500000000000000000201409230002001EL PALACIO DE LA SILLA                            C000000001000000000000000000000000100010010000000000000000000000F0010000006307000220140923000101 00000000000000000000000000000000000000000000000000000000000000000000000000000000000000000000000000000000000000000N 00000000000NCONT   00    00000000000          00000000000000000000000000000000000000000000 000000000000000A000000000000000000000000000000000000000000000 000000000000000000000000000000000000000     00000000                                                                                                                        000000000000000000
F0010000006307000003000002252348100042505000000000000000000201409230002001EL PALACIO DE LA SILLA                            C000000000200000000000000000000000100010010000000000000000000000F0010000006307000320140923000101 00000000000000000000000000000000000000000000000000000000000000000000000000000000000000000000000000000000000000000N 00000000000NCONT   00    00000000000          00000000000000000000000000000000000000000000 000000000000000A000000000000000000000000000000000000000000000 000000000000000000000000000000000000000     00000000                                                                                                                        000000000000000000
F0010000006307000004000002252348100023658300000000000000000201409230002001EL PALACIO DE LA SILLA                            C000000000008000000000000000000000100010010000000000000000000000F0010000006307000420140923000101 00000000000000000000000000000000000000000000000000000000000000000000000000000000000000000000000000000000000000000N 00000000000NCONT   00    00000000000          00000000000000000000000000000000000000000000 000000000000000A000000000000000000000000000000000000000000000 000000000000000000000000000000000000000     00000000                                                                                                                        000000000000000000
F0010000006307000005000002252348100013552100000000000000000201409230002001EL PALACIO DE LA SILLA                            D000000000008000000000000000000000100010010000000000000000000000F0010000006307000520140923000101 00000000000000000000000000000000000000000000000000000000000000000000000000000000000000000000000000000000000000000N 00000000000NCONT   00    00000000000          00000000000000000000000000000000000000000000 000000000000000A000000000000000000000000000000000000000000000 000000000000000000000000000000000000000     00000000                                                                                                                        000000000000000000
F0010000006307100001000090053611800011050500000000000000000201409230002001PELETERIA COSTA CARIBE S.A .S                     D000000001680000000000000000000000100010010000000000000000000000F0010000006307100120140923000101 00000000000000000000000000000000000000000000000000000000000000000000000000000000000000000000000000000000000000000N 00000000000NCONT   00    00000000000          00000000000000000000000000000000000000000000 000000000000000A000000000000000000000000000000000000000000000 000000000000000000000000000000000000000     00000000                                                                                                                        000000000000000000
F0010000006307100002000090053611800041450500000000000000000201409230002001PELETERIA COSTA CARIBE S.A .S                     C000000001280000000000000000000000100010010000000000000000000000F0010000006307100220140923000101 00000000000000000000000000000000000000000000000000000000000000000000000000000000000000000000000000000000000000000N 00000000000NCONT   00    00000000000          00000000000000000000000000000000000000000000 000000000000000A000000000000000000000000000000000000000000000 000000000000000000000000000000000000000     00000000                                                                                                                        000000000000000000
F0010000006307100003000090053611800042505000000000000000000201409230002001PELETERIA COSTA CARIBE S.A .S                     C000000000400000000000000000000000100010010000000000000000000000F0010000006307100320140923000101 00000000000000000000000000000000000000000000000000000000000000000000000000000000000000000000000000000000000000000N 00000000000NCONT   00    00000000000          00000000000000000000000000000000000000000000 000000000000000A000000000000000000000000000000000000000000000 000000000000000000000000000000000000000     00000000                                                                                                                        000000000000000000
F0010000006307100004000090053611800023658300000000000000000201409230002001PELETERIA COSTA CARIBE S.A .S                     C000000000010200000000000000000000100010010000000000000000000000F0010000006307100420140923000101 00000000000000000000000000000000000000000000000000000000000000000000000000000000000000000000000000000000000000000N 00000000000NCONT   00    00000000000          00000000000000000000000000000000000000000000 000000000000000A000000000000000000000000000000000000000000000 000000000000000000000000000000000000000     00000000                                                                                                                        000000000000000000
F0010000006307100005000090053611800013552100000000000000000201409230002001PELETERIA COSTA CARIBE S.A .S                     D000000000010200000000000000000000100010010000000000000000000000F0010000006307100520140923000101 00000000000000000000000000000000000000000000000000000000000000000000000000000000000000000000000000000000000000000N 00000000000NCONT   00    00000000000          00000000000000000000000000000000000000000000 000000000000000A000000000000000000000000000000000000000000000 000000000000000000000000000000000000000     00000000                                                                                                                        000000000000000000
F0010000006307200001000002245670100011050500000000000000000201409230002001YOLANDA  TOBON                                    D000000011000000000000000000000000100010010000000000000000000000F0010000006307200120140923000101 00000000000000000000000000000000000000000000000000000000000000000000000000000000000000000000000000000000000000000N 00000000000NCONT   00    00000000000          00000000000000000000000000000000000000000000 000000000000000A000000000000000000000000000000000000000000000 000000000000000000000000000000000000000     00000000                                                                                                                        000000000000000000
F0010000006307200002000002245670100041450500000000000000000201409230002001YOLANDA  TOBON                                    C000000009000000000000000000000000100010010000000000000000000000F0010000006307200220140923000101 00000000000000000000000000000000000000000000000000000000000000000000000000000000000000000000000000000000000000000N 00000000000NCONT   00    00000000000          00000000000000000000000000000000000000000000 000000000000000A000000000000000000000000000000000000000000000 000000000000000000000000000000000000000     00000000                                                                                                                        000000000000000000
F0010000006307200003000002245670100042505000000000000000000201409230002001YOLANDA  TOBON                                    C000000002000000000000000000000000100010010000000000000000000000F0010000006307200320140923000101 00000000000000000000000000000000000000000000000000000000000000000000000000000000000000000000000000000000000000000N 00000000000NCONT   00    00000000000          00000000000000000000000000000000000000000000 000000000000000A000000000000000000000000000000000000000000000 000000000000000000000000000000000000000     00000000                                                                                                                        000000000000000000
F0010000006307200004000002245670100023658300000000000000000201409230002001YOLANDA  TOBON                                    C000000000072000000000000000000000100010010000000000000000000000F0010000006307200420140923000101 00000000000000000000000000000000000000000000000000000000000000000000000000000000000000000000000000000000000000000N 00000000000NCONT   00    00000000000          00000000000000000000000000000000000000000000 000000000000000A000000000000000000000000000000000000000000000 000000000000000000000000000000000000000     00000000                                                                                                                        000000000000000000
F0010000006307200005000002245670100013552100000000000000000201409230002001YOLANDA  TOBON                                    D000000000072000000000000000000000100010010000000000000000000000F0010000006307200520140923000101 00000000000000000000000000000000000000000000000000000000000000000000000000000000000000000000000000000000000000000N 00000000000NCONT   00    00000000000          00000000000000000000000000000000000000000000 000000000000000A000000000000000000000000000000000000000000000 000000000000000000000000000000000000000     00000000                                                                                                                        000000000000000000
F0010000006307300001000002245670100011050500000000000000000201409230002001YOLANDA  TOBON                                    D000000003100000000000000000000000100010010000000000000000000000F0010000006307300120140923000101 00000000000000000000000000000000000000000000000000000000000000000000000000000000000000000000000000000000000000000N 00000000000NCONT   00    00000000000          00000000000000000000000000000000000000000000 000000000000000A000000000000000000000000000000000000000000000 000000000000000000000000000000000000000     00000000                                                                                                                        000000000000000000
F0010000006307300002000002245670100041450500000000000000000201409230002001YOLANDA  TOBON                                    C000000002650000000000000000000000100010010000000000000000000000F0010000006307300220140923000101 00000000000000000000000000000000000000000000000000000000000000000000000000000000000000000000000000000000000000000N 00000000000NCONT   00    00000000000          00000000000000000000000000000000000000000000 000000000000000A000000000000000000000000000000000000000000000 000000000000000000000000000000000000000     00000000                                                                                                                        000000000000000000
F0010000006307300003000002245670100042505000000000000000000201409230002001YOLANDA  TOBON                                    C000000000450000000000000000000000100010010000000000000000000000F0010000006307300320140923000101 00000000000000000000000000000000000000000000000000000000000000000000000000000000000000000000000000000000000000000N 00000000000NCONT   00    00000000000          00000000000000000000000000000000000000000000 000000000000000A000000000000000000000000000000000000000000000 000000000000000000000000000000000000000     00000000                                                                                                                        000000000000000000
F0010000006307300004000002245670100023658300000000000000000201409230002001YOLANDA  TOBON                                    C000000000021200000000000000000000100010010000000000000000000000F0010000006307300420140923000101 00000000000000000000000000000000000000000000000000000000000000000000000000000000000000000000000000000000000000000N 00000000000NCONT   00    00000000000          00000000000000000000000000000000000000000000 000000000000000A000000000000000000000000000000000000000000000 000000000000000000000000000000000000000     00000000                                                                                                                        000000000000000000
F0010000006307300005000002245670100013552100000000000000000201409230002001YOLANDA  TOBON                                    D000000000021200000000000000000000100010010000000000000000000000F0010000006307300520140923000101 00000000000000000000000000000000000000000000000000000000000000000000000000000000000000000000000000000000000000000N 00000000000NCONT   00    00000000000          00000000000000000000000000000000000000000000 000000000000000A000000000000000000000000000000000000000000000 000000000000000000000000000000000000000     00000000                                                                                                                        000000000000000000
F0010000006307400001000002267446300011050500000000000000000201409230002001NAYIBE ROMERO                                     D000000002400000000000000000000000100010010000000000000000000000F0010000006307400120140923000101 00000000000000000000000000000000000000000000000000000000000000000000000000000000000000000000000000000000000000000N 00000000000NCONT   00    00000000000          00000000000000000000000000000000000000000000 000000000000000A000000000000000000000000000000000000000000000 000000000000000000000000000000000000000     00000000                                                                                                                        000000000000000000
F0010000006307400002000002267446300041450500000000000000000201409230002001NAYIBE ROMERO                                     C000000002250000000000000000000000100010010000000000000000000000F0010000006307400220140923000101 00000000000000000000000000000000000000000000000000000000000000000000000000000000000000000000000000000000000000000N 00000000000NCONT   00    00000000000          00000000000000000000000000000000000000000000 000000000000000A000000000000000000000000000000000000000000000 000000000000000000000000000000000000000     00000000                                                                                                                        000000000000000000
F0010000006307400003000002267446300042505000000000000000000201409230002001NAYIBE ROMERO                                     C000000000150000000000000000000000100010010000000000000000000000F0010000006307400320140923000101 00000000000000000000000000000000000000000000000000000000000000000000000000000000000000000000000000000000000000000N 00000000000NCONT   00    00000000000          00000000000000000000000000000000000000000000 000000000000000A000000000000000000000000000000000000000000000 000000000000000000000000000000000000000     00000000                                                                                                                        000000000000000000
F0010000006307400004000002267446300023658300000000000000000201409230002001NAYIBE ROMERO                                     C000000000018000000000000000000000100010010000000000000000000000F0010000006307400420140923000101 00000000000000000000000000000000000000000000000000000000000000000000000000000000000000000000000000000000000000000N 00000000000NCONT   00    00000000000          00000000000000000000000000000000000000000000 000000000000000A000000000000000000000000000000000000000000000 000000000000000000000000000000000000000     00000000                                                                                                                        000000000000000000
F0010000006307400005000002267446300013552100000000000000000201409230002001NAYIBE ROMERO                                     D000000000018000000000000000000000100010010000000000000000000000F0010000006307400520140923000101 00000000000000000000000000000000000000000000000000000000000000000000000000000000000000000000000000000000000000000N 00000000000NCONT   00    00000000000          00000000000000000000000000000000000000000000 000000000000000A000000000000000000000000000000000000000000000 000000000000000000000000000000000000000     00000000                                                                                                                        000000000000000000
F0010000006307500001000090015579300011050500000000000000000201409230002001CHAFRUT SAS                                       D000000001000000000000000000000000100010010000000000000000000000F0010000006307500120140923000101 00000000000000000000000000000000000000000000000000000000000000000000000000000000000000000000000000000000000000000N 00000000000NCONT   00    00000000000          00000000000000000000000000000000000000000000 000000000000000A000000000000000000000000000000000000000000000 000000000000000000000000000000000000000     00000000                                                                                                                        000000000000000000
F0010000006307500002000090015579300041450500000000000000000201409230002001CHAFRUT SAS                                       C000000000750000000000000000000000100010010000000000000000000000F0010000006307500220140923000101 00000000000000000000000000000000000000000000000000000000000000000000000000000000000000000000000000000000000000000N 00000000000NCONT   00    00000000000          00000000000000000000000000000000000000000000 000000000000000A000000000000000000000000000000000000000000000 000000000000000000000000000000000000000     00000000                                                                                                                        000000000000000000
F0010000006307500003000090015579300042505000000000000000000201409230002001CHAFRUT SAS                                       C000000000250000000000000000000000100010010000000000000000000000F0010000006307500320140923000101 00000000000000000000000000000000000000000000000000000000000000000000000000000000000000000000000000000000000000000N 00000000000NCONT   00    00000000000          00000000000000000000000000000000000000000000 000000000000000A000000000000000000000000000000000000000000000 000000000000000000000000000000000000000     00000000                                                                                                                        000000000000000000
F0010000006307500004000090015579300023658300000000000000000201409230002001CHAFRUT SAS                                       C000000000006000000000000000000000100010010000000000000000000000F0010000006307500420140923000101 00000000000000000000000000000000000000000000000000000000000000000000000000000000000000000000000000000000000000000N 00000000000NCONT   00    00000000000          00000000000000000000000000000000000000000000 000000000000000A000000000000000000000000000000000000000000000 000000000000000000000000000000000000000     00000000                                                                                                                        000000000000000000
F0010000006307500005000090015579300013552100000000000000000201409230002001CHAFRUT SAS                                       D000000000006000000000000000000000100010010000000000000000000000F0010000006307500520140923000101 00000000000000000000000000000000000000000000000000000000000000000000000000000000000000000000000000000000000000000N 00000000000NCONT   00    00000000000          00000000000000000000000000000000000000000000 000000000000000A000000000000000000000000000000000000000000000 000000000000000000000000000000000000000     00000000                                                                                                                        000000000000000000
F0010000006307600001000080201703900011050500000000000000000201409230002001MUNDIAL CHEMICAL LTDA                             D000000001000000000000000000000000100010010000000000000000000000F0010000006307600120140923000101 00000000000000000000000000000000000000000000000000000000000000000000000000000000000000000000000000000000000000000N 00000000000NCONT   00    00000000000          00000000000000000000000000000000000000000000 000000000000000A000000000000000000000000000000000000000000000 000000000000000000000000000000000000000     00000000                                                                                                                        000000000000000000
F0010000006307600002000080201703900041450500000000000000000201409230002001MUNDIAL CHEMICAL LTDA                             C000000000830000000000000000000000100010010000000000000000000000F0010000006307600220140923000101 00000000000000000000000000000000000000000000000000000000000000000000000000000000000000000000000000000000000000000N 00000000000NCONT   00    00000000000          00000000000000000000000000000000000000000000 000000000000000A000000000000000000000000000000000000000000000 000000000000000000000000000000000000000     00000000                                                                                                                        000000000000000000
F0010000006307600003000080201703900042505000000000000000000201409230002001MUNDIAL CHEMICAL LTDA                             C000000000170000000000000000000000100010010000000000000000000000F0010000006307600320140923000101 00000000000000000000000000000000000000000000000000000000000000000000000000000000000000000000000000000000000000000N 00000000000NCONT   00    00000000000          00000000000000000000000000000000000000000000 000000000000000A000000000000000000000000000000000000000000000 000000000000000000000000000000000000000     00000000                                                                                                                        000000000000000000
F0010000006307600004000080201703900023658300000000000000000201409230002001MUNDIAL CHEMICAL LTDA                             C000000000006600000000000000000000100010010000000000000000000000F0010000006307600420140923000101 00000000000000000000000000000000000000000000000000000000000000000000000000000000000000000000000000000000000000000N 00000000000NCONT   00    00000000000          00000000000000000000000000000000000000000000 000000000000000A000000000000000000000000000000000000000000000 000000000000000000000000000000000000000     00000000                                                                                                                        000000000000000000
F0010000006307600005000080201703900013552100000000000000000201409230002001MUNDIAL CHEMICAL LTDA                             D000000000006600000000000000000000100010010000000000000000000000F0010000006307600520140923000101 00000000000000000000000000000000000000000000000000000000000000000000000000000000000000000000000000000000000000000N 00000000000NCONT   00    00000000000          00000000000000000000000000000000000000000000 000000000000000A000000000000000000000000000000000000000000000 000000000000000000000000000000000000000     00000000                                                                                                                        000000000000000000
F0010000006307700001000080201703900011050500000000000000000201409230002001MUNDIAL CHEMICAL LTDA                             D000000001030000000000000000000000100010010000000000000000000000F0010000006307700120140923000101 00000000000000000000000000000000000000000000000000000000000000000000000000000000000000000000000000000000000000000N 00000000000NCONT   00    00000000000          00000000000000000000000000000000000000000000 000000000000000A000000000000000000000000000000000000000000000 000000000000000000000000000000000000000     00000000                                                                                                                        000000000000000000
F0010000006307700002000080201703900041450500000000000000000201409230002001MUNDIAL CHEMICAL LTDA                             C000000000830000000000000000000000100010010000000000000000000000F0010000006307700220140923000101 00000000000000000000000000000000000000000000000000000000000000000000000000000000000000000000000000000000000000000N 00000000000NCONT   00    00000000000          00000000000000000000000000000000000000000000 000000000000000A000000000000000000000000000000000000000000000 000000000000000000000000000000000000000     00000000                                                                                                                        000000000000000000
