F0010000009289100001000000748239700013050500000000000000000201610200002001RAFAEL NAVARRO URIBE                              D000000045949800000000000000000000100010010000000000000000000000F0010000009289100120161020000101 00000000000000000000000000000000000000000000000000000000000000000000000000000000000000000000000000000000000000000N 00000000000NCONT   00    00000000000          00000000000000000000000000000000000000000000 000000000000000A000000000000000000000000000000000000000000000 000000000000000000000000000000000000000     00000000                                                                                                                        000000000000000000
F0010000009289100002000000748239700041450500000000000000000201610200002001RAFAEL NAVARRO URIBE                              C000000030160000000000000000000000100010010000000000000000000000F0010000009289100220161020000101 00000000000000000000000000000000000000000000000000000000000000000000000000000000000000000000000000000000000000000N 00000000000NCONT   00    00000000000          00000000000000000000000000000000000000000000 000000000000000A000000000000000000000000000000000000000000000 000000000000000000000000000000000000000     00000000                                                                                                                        000000000000000000
F0010000009289100003000000748239700042505000000000000000000201610200002001RAFAEL NAVARRO URIBE                              C000000015789800000000000000000000100010010000000000000000000000F0010000009289100320161020000101 00000000000000000000000000000000000000000000000000000000000000000000000000000000000000000000000000000000000000000N 00000000000NCONT   00    00000000000          00000000000000000000000000000000000000000000 000000000000000A000000000000000000000000000000000000000000000 000000000000000000000000000000000000000     00000000                                                                                                                        000000000000000000
F0010000009289100004000000748239700023658300000000000000000201610200002001RAFAEL NAVARRO URIBE                              C000000000241300000000000000000000100010010000000000000000000000F0010000009289100420161020000101 00000000000000000000000000000000000000000000000000000000000000000000000000000000000000000000000000000000000000000N 00000000000NCONT   00    00000000000          00000000000000000000000000000000000000000000 000000000000000A000000000000000000000000000000000000000000000 000000000000000000000000000000000000000     00000000                                                                                                                        000000000000000000
F0010000009289100005000000748239700013552100000000000000000201610200002001RAFAEL NAVARRO URIBE                              D000000000241300000000000000000000100010010000000000000000000000F0010000009289100520161020000101 00000000000000000000000000000000000000000000000000000000000000000000000000000000000000000000000000000000000000000N 00000000000NCONT   00    00000000000          00000000000000000000000000000000000000000000 000000000000000A000000000000000000000000000000000000000000000 000000000000000000000000000000000000000     00000000                                                                                                                        000000000000000000
F0010000009289200001000086000490200013050500000000000000000201610200002001PROV. DE PAPELES ANDINA S.A.                      D000000065009900000000000000000000100010010000000000000000000000F0010000009289200120161020000101 00000000000000000000000000000000000000000000000000000000000000000000000000000000000000000000000000000000000000000N 00000000000NCONT   00    00000000000          00000000000000000000000000000000000000000000 000000000000000A000000000000000000000000000000000000000000000 000000000000000000000000000000000000000     00000000                                                                                                                        000000000000000000
F0010000009289200002000086000490200041450500000000000000000201610200002001PROV. DE PAPELES ANDINA S.A.                      C000000060775600000000000000000000100010010000000000000000000000F0010000009289200220161020000101 00000000000000000000000000000000000000000000000000000000000000000000000000000000000000000000000000000000000000000N 00000000000NCONT   00    00000000000          00000000000000000000000000000000000000000000 000000000000000A000000000000000000000000000000000000000000000 000000000000000000000000000000000000000     00000000                                                                                                                        000000000000000000
F0010000009289200003000086000490200042505000000000000000000201610200002001PROV. DE PAPELES ANDINA S.A.                      C000000004234300000000000000000000100010010000000000000000000000F0010000009289200320161020000101 00000000000000000000000000000000000000000000000000000000000000000000000000000000000000000000000000000000000000000N 00000000000NCONT   00    00000000000          00000000000000000000000000000000000000000000 000000000000000A000000000000000000000000000000000000000000000 000000000000000000000000000000000000000     00000000                                                                                                                        000000000000000000
F0010000009289200004000086000490200023658300000000000000000201610200002001PROV. DE PAPELES ANDINA S.A.                      C000000000486200000000000000000000100010010000000000000000000000F0010000009289200420161020000101 00000000000000000000000000000000000000000000000000000000000000000000000000000000000000000000000000000000000000000N 00000000000NCONT   00    00000000000          00000000000000000000000000000000000000000000 000000000000000A000000000000000000000000000000000000000000000 000000000000000000000000000000000000000     00000000                                                                                                                        000000000000000000
F0010000009289200005000086000490200013552100000000000000000201610200002001PROV. DE PAPELES ANDINA S.A.                      D000000000486200000000000000000000100010010000000000000000000000F0010000009289200520161020000101 00000000000000000000000000000000000000000000000000000000000000000000000000000000000000000000000000000000000000000N 00000000000NCONT   00    00000000000          00000000000000000000000000000000000000000000 000000000000000A000000000000000000000000000000000000000000000 000000000000000000000000000000000000000     00000000                                                                                                                        000000000000000000
F0010000009289400001000090008711200013050500000000000000000201610200002001PACKAGING SUPPLIERS S.A.                          D000000066174400000000000000000000100010010000000000000000000000F0010000009289400120161020000101 00000000000000000000000000000000000000000000000000000000000000000000000000000000000000000000000000000000000000000N 00000000000NCONT   00    00000000000          00000000000000000000000000000000000000000000 000000000000000A000000000000000000000000000000000000000000000 000000000000000000000000000000000000000     00000000                                                                                                                        000000000000000000
F0010000009289400002000090008711200041450500000000000000000201610200002001PACKAGING SUPPLIERS S.A.                          C000000059043900000000000000000000100010010000000000000000000000F0010000009289400220161020000101 00000000000000000000000000000000000000000000000000000000000000000000000000000000000000000000000000000000000000000N 00000000000NCONT   00    00000000000          00000000000000000000000000000000000000000000 000000000000000A000000000000000000000000000000000000000000000 000000000000000000000000000000000000000     00000000                                                                                                                        000000000000000000
F0010000009289400003000090008711200042505000000000000000000201610200002001PACKAGING SUPPLIERS S.A.                          C000000007130500000000000000000000100010010000000000000000000000F0010000009289400320161020000101 00000000000000000000000000000000000000000000000000000000000000000000000000000000000000000000000000000000000000000N 00000000000NCONT   00    00000000000          00000000000000000000000000000000000000000000 000000000000000A000000000000000000000000000000000000000000000 000000000000000000000000000000000000000     00000000                                                                                                                        000000000000000000
F0010000009289400004000090008711200023658300000000000000000201610200002001PACKAGING SUPPLIERS S.A.                          C000000000472400000000000000000000100010010000000000000000000000F0010000009289400420161020000101 00000000000000000000000000000000000000000000000000000000000000000000000000000000000000000000000000000000000000000N 00000000000NCONT   00    00000000000          00000000000000000000000000000000000000000000 000000000000000A000000000000000000000000000000000000000000000 000000000000000000000000000000000000000     00000000                                                                                                                        000000000000000000
F0010000009289400005000090008711200013552100000000000000000201610200002001PACKAGING SUPPLIERS S.A.                          D000000000472400000000000000000000100010010000000000000000000000F0010000009289400520161020000101 00000000000000000000000000000000000000000000000000000000000000000000000000000000000000000000000000000000000000000N 00000000000NCONT   00    00000000000          00000000000000000000000000000000000000000000 000000000000000A000000000000000000000000000000000000000000000 000000000000000000000000000000000000000     00000000                                                                                                                        000000000000000000
F0010000009289500001000089011492400013050500000000000000000201610200002001AGE. CAUCHO SOL DE LA COSTA  SAS                  D000000044807600000000000000000000100010010000000000000000000000F0010000009289500120161020000101 00000000000000000000000000000000000000000000000000000000000000000000000000000000000000000000000000000000000000000N 00000000000NCONT   00    00000000000          00000000000000000000000000000000000000000000 000000000000000A000000000000000000000000000000000000000000000 000000000000000000000000000000000000000     00000000                                                                                                                        000000000000000000
F0010000009289500002000089011492400041450500000000000000000201610200002001AGE. CAUCHO SOL DE LA COSTA  SAS                  C000000030480000000000000000000000100010010000000000000000000000F0010000009289500220161020000101 00000000000000000000000000000000000000000000000000000000000000000000000000000000000000000000000000000000000000000N 00000000000NCONT   00    00000000000          00000000000000000000000000000000000000000000 000000000000000A000000000000000000000000000000000000000000000 000000000000000000000000000000000000000     00000000                                                                                                                        000000000000000000
F0010000009289500003000089011492400042505000000000000000000201610200002001AGE. CAUCHO SOL DE LA COSTA  SAS                  C000000014327600000000000000000000100010010000000000000000000000F0010000009289500320161020000101 00000000000000000000000000000000000000000000000000000000000000000000000000000000000000000000000000000000000000000N 00000000000NCONT   00    00000000000          00000000000000000000000000000000000000000000 000000000000000A000000000000000000000000000000000000000000000 000000000000000000000000000000000000000     00000000                                                                                                                        000000000000000000
F0010000009289500004000089011492400023658300000000000000000201610200002001AGE. CAUCHO SOL DE LA COSTA  SAS                  C000000000243800000000000000000000100010010000000000000000000000F0010000009289500420161020000101 00000000000000000000000000000000000000000000000000000000000000000000000000000000000000000000000000000000000000000N 00000000000NCONT   00    00000000000          00000000000000000000000000000000000000000000 000000000000000A000000000000000000000000000000000000000000000 000000000000000000000000000000000000000     00000000                                                                                                                        000000000000000000
F0010000009289500005000089011492400013552100000000000000000201610200002001AGE. CAUCHO SOL DE LA COSTA  SAS                  D000000000243800000000000000000000100010010000000000000000000000F0010000009289500520161020000101 00000000000000000000000000000000000000000000000000000000000000000000000000000000000000000000000000000000000000000N 00000000000NCONT   00    00000000000          00000000000000000000000000000000000000000000 000000000000000A000000000000000000000000000000000000000000000 000000000000000000000000000000000000000     00000000                                                                                                                        000000000000000000
F0010000009289600001000089010260300013050500000000000000000201610200002001FEDERICO OSORIO A. S.A.                           D000000108562000000000000000000000100010010000000000000000000000F0010000009289600120161020000101 00000000000000000000000000000000000000000000000000000000000000000000000000000000000000000000000000000000000000000N 00000000000NCONT   00    00000000000          00000000000000000000000000000000000000000000 000000000000000A000000000000000000000000000000000000000000000 000000000000000000000000000000000000000     00000000                                                                                                                        000000000000000000
F0010000009289600002000089010260300041450500000000000000000201610200002001FEDERICO OSORIO A. S.A.                           C000000095450000000000000000000000100010010000000000000000000000F0010000009289600220161020000101 00000000000000000000000000000000000000000000000000000000000000000000000000000000000000000000000000000000000000000N 00000000000NCONT   00    00000000000          00000000000000000000000000000000000000000000 000000000000000A000000000000000000000000000000000000000000000 000000000000000000000000000000000000000     00000000                                                                                                                        000000000000000000
F0010000009289600003000089010260300042505000000000000000000201610200002001FEDERICO OSORIO A. S.A.                           C000000013112000000000000000000000100010010000000000000000000000F0010000009289600320161020000101 00000000000000000000000000000000000000000000000000000000000000000000000000000000000000000000000000000000000000000N 00000000000NCONT   00    00000000000          00000000000000000000000000000000000000000000 000000000000000A000000000000000000000000000000000000000000000 000000000000000000000000000000000000000     00000000                                                                                                                        000000000000000000
F0010000009289600004000089010260300023658300000000000000000201610200002001FEDERICO OSORIO A. S.A.                           C000000000763600000000000000000000100010010000000000000000000000F0010000009289600420161020000101 00000000000000000000000000000000000000000000000000000000000000000000000000000000000000000000000000000000000000000N 00000000000NCONT   00    00000000000          00000000000000000000000000000000000000000000 000000000000000A000000000000000000000000000000000000000000000 000000000000000000000000000000000000000     00000000                                                                                                                        000000000000000000
F0010000009289600005000089010260300013552100000000000000000201610200002001FEDERICO OSORIO A. S.A.                           D000000000763600000000000000000000100010010000000000000000000000F0010000009289600520161020000101 00000000000000000000000000000000000000000000000000000000000000000000000000000000000000000000000000000000000000000N 00000000000NCONT   00    00000000000          00000000000000000000000000000000000000000000 000000000000000A000000000000000000000000000000000000000000000 000000000000000000000000000000000000000     00000000                                                                                                                        000000000000000000
F0010000009289700001000089010260300013050500000000000000000201610200002001FEDERICO OSORIO A. S.A.                           D000000160076400000000000000000000100010010000000000000000000000F0010000009289700120161020000101 00000000000000000000000000000000000000000000000000000000000000000000000000000000000000000000000000000000000000000N 00000000000NCONT   00    00000000000          00000000000000000000000000000000000000000000 000000000000000A000000000000000000000000000000000000000000000 000000000000000000000000000000000000000     00000000                                                                                                                        000000000000000000
F0010000009289700002000089010260300041450500000000000000000201610200002001FEDERICO OSORIO A. S.A.                           C000000151380000000000000000000000100010010000000000000000000000F0010000009289700220161020000101 00000000000000000000000000000000000000000000000000000000000000000000000000000000000000000000000000000000000000000N 00000000000NCONT   00    00000000000          00000000000000000000000000000000000000000000 000000000000000A000000000000000000000000000000000000000000000 000000000000000000000000000000000000000     00000000                                                                                                                        000000000000000000
F0010000009289700003000089010260300042505000000000000000000201610200002001FEDERICO OSORIO A. S.A.                           C000000008696400000000000000000000100010010000000000000000000000F0010000009289700320161020000101 00000000000000000000000000000000000000000000000000000000000000000000000000000000000000000000000000000000000000000N 00000000000NCONT   00    00000000000          00000000000000000000000000000000000000000000 000000000000000A000000000000000000000000000000000000000000000 000000000000000000000000000000000000000     00000000                                                                                                                        000000000000000000
F0010000009289700004000089010260300023658300000000000000000201610200002001FEDERICO OSORIO A. S.A.                           C000000001211000000000000000000000100010010000000000000000000000F0010000009289700420161020000101 00000000000000000000000000000000000000000000000000000000000000000000000000000000000000000000000000000000000000000N 00000000000NCONT   00    00000000000          00000000000000000000000000000000000000000000 000000000000000A000000000000000000000000000000000000000000000 000000000000000000000000000000000000000     00000000                                                                                                                        000000000000000000
F0010000009289700005000089010260300013552100000000000000000201610200002001FEDERICO OSORIO A. S.A.                           D000000001211000000000000000000000100010010000000000000000000000F0010000009289700520161020000101 00000000000000000000000000000000000000000000000000000000000000000000000000000000000000000000000000000000000000000N 00000000000NCONT   00    00000000000          00000000000000000000000000000000000000000000 000000000000000A000000000000000000000000000000000000000000000 000000000000000000000000000000000000000     00000000                                                                                                                        000000000000000000
F0010000009289800001000080004943800013050500000000000000000201610200002001PAPELERIA EL CID S.A.                             D000000040657500000000000000000000100010010000000000000000000000F0010000009289800120161020000101 00000000000000000000000000000000000000000000000000000000000000000000000000000000000000000000000000000000000000000N 00000000000NCONT   00    00000000000          00000000000000000000000000000000000000000000 000000000000000A000000000000000000000000000000000000000000000 000000000000000000000000000000000000000     00000000                                                                                                                        000000000000000000
F0010000009289800002000080004943800041450500000000000000000201610200002001PAPELERIA EL CID S.A.                             C000000032550000000000000000000000100010010000000000000000000000F0010000009289800220161020000101 00000000000000000000000000000000000000000000000000000000000000000000000000000000000000000000000000000000000000000N 00000000000NCONT   00    00000000000          00000000000000000000000000000000000000000000 000000000000000A000000000000000000000000000000000000000000000 000000000000000000000000000000000000000     00000000                                                                                                                        000000000000000000
F0010000009289800003000080004943800042505000000000000000000201610200002001PAPELERIA EL CID S.A.                             C000000008107500000000000000000000100010010000000000000000000000F0010000009289800320161020000101 00000000000000000000000000000000000000000000000000000000000000000000000000000000000000000000000000000000000000000N 00000000000NCONT   00    00000000000          00000000000000000000000000000000000000000000 000000000000000A000000000000000000000000000000000000000000000 000000000000000000000000000000000000000     00000000                                                                                                                        000000000000000000
F0010000009289800004000080004943800023658300000000000000000201610200002001PAPELERIA EL CID S.A.                             C000000000260400000000000000000000100010010000000000000000000000F0010000009289800420161020000101 00000000000000000000000000000000000000000000000000000000000000000000000000000000000000000000000000000000000000000N 00000000000NCONT   00    00000000000          00000000000000000000000000000000000000000000 000000000000000A000000000000000000000000000000000000000000000 000000000000000000000000000000000000000     00000000                                                                                                                        000000000000000000
F0010000009289800005000080004943800013552100000000000000000201610200002001PAPELERIA EL CID S.A.                             D000000000260400000000000000000000100010010000000000000000000000F0010000009289800520161020000101 00000000000000000000000000000000000000000000000000000000000000000000000000000000000000000000000000000000000000000N 00000000000NCONT   00    00000000000          00000000000000000000000000000000000000000000 000000000000000A000000000000000000000000000000000000000000000 000000000000000000000000000000000000000     00000000                                                                                                                        000000000000000000
F0010000009289900001000080004943800013050500000000000000000201610200002001PAPELERIA EL CID S.A.                             D000000002752500000000000000000000100010010000000000000000000000F0010000009289900120161020000101 00000000000000000000000000000000000000000000000000000000000000000000000000000000000000000000000000000000000000000N 00000000000NCONT   00    00000000000          00000000000000000000000000000000000000000000 000000000000000A000000000000000000000000000000000000000000000 000000000000000000000000000000000000000     00000000                                                                                                                        000000000000000000
F0010000009289900002000080004943800041450500000000000000000201610200002001PAPELERIA EL CID S.A.                             C000000002630000000000000000000000100010010000000000000000000000F0010000009289900220161020000101 00000000000000000000000000000000000000000000000000000000000000000000000000000000000000000000000000000000000000000N 00000000000NCONT   00    00000000000          00000000000000000000000000000000000000000000 000000000000000A000000000000000000000000000000000000000000000 000000000000000000000000000000000000000     00000000                                                                                                                        000000000000000000
F0010000009289900003000080004943800042505000000000000000000201610200002001PAPELERIA EL CID S.A.                             C000000000122500000000000000000000100010010000000000000000000000F0010000009289900320161020000101 00000000000000000000000000000000000000000000000000000000000000000000000000000000000000000000000000000000000000000N 00000000000NCONT   00    00000000000          00000000000000000000000000000000000000000000 000000000000000A000000000000000000000000000000000000000000000 000000000000000000000000000000000000000     00000000                                                                                                                        000000000000000000
F0010000009289900004000080004943800023658300000000000000000201610200002001PAPELERIA EL CID S.A.                             C000000000021000000000000000000000100010010000000000000000000000F0010000009289900420161020000101 00000000000000000000000000000000000000000000000000000000000000000000000000000000000000000000000000000000000000000N 00000000000NCONT   00    00000000000          00000000000000000000000000000000000000000000 000000000000000A000000000000000000000000000000000000000000000 000000000000000000000000000000000000000     00000000                                                                                                                        000000000000000000
F0010000009289900005000080004943800013552100000000000000000201610200002001PAPELERIA EL CID S.A.                             D000000000021000000000000000000000100010010000000000000000000000F0010000009289900520161020000101 00000000000000000000000000000000000000000000000000000000000000000000000000000000000000000000000000000000000000000N 00000000000NCONT   00    00000000000          00000000000000000000000000000000000000000000 000000000000000A000000000000000000000000000000000000000000000 000000000000000000000000000000000000000     00000000                                                                                                                        000000000000000000
F0010000009290000001000080202094000013050500000000000000000201610200002001DISTRIB. OMAR ORREGO S.A.                         D000000068248700000000000000000000100010010000000000000000000000F0010000009290000120161020000101 00000000000000000000000000000000000000000000000000000000000000000000000000000000000000000000000000000000000000000N 00000000000NCONT   00    00000000000          00000000000000000000000000000000000000000000 000000000000000A000000000000000000000000000000000000000000000 000000000000000000000000000000000000000     00000000                                                                                                                        000000000000000000
F0010000009290000002000080202094000041450500000000000000000201610200002001DISTRIB. OMAR ORREGO S.A.                         C000000041410000000000000000000000100010010000000000000000000000F0010000009290000220161020000101 00000000000000000000000000000000000000000000000000000000000000000000000000000000000000000000000000000000000000000N 00000000000NCONT   00    00000000000          00000000000000000000000000000000000000000000 000000000000000A000000000000000000000000000000000000000000000 000000000000000000000000000000000000000     00000000                                                                                                                        000000000000000000
F0010000009290000003000080202094000042505000000000000000000201610200002001DISTRIB. OMAR ORREGO S.A.                         C000000026838700000000000000000000100010010000000000000000000000F0010000009290000320161020000101 00000000000000000000000000000000000000000000000000000000000000000000000000000000000000000000000000000000000000000N 00000000000NCONT   00    00000000000          00000000000000000000000000000000000000000000 000000000000000A000000000000000000000000000000000000000000000 000000000000000000000000000000000000000     00000000                                                                                                                        000000000000000000
F0010000009290000004000080202094000023658300000000000000000201610200002001DISTRIB. OMAR ORREGO S.A.                         C000000000331300000000000000000000100010010000000000000000000000F0010000009290000420161020000101 00000000000000000000000000000000000000000000000000000000000000000000000000000000000000000000000000000000000000000N 00000000000NCONT   00    00000000000          00000000000000000000000000000000000000000000 000000000000000A000000000000000000000000000000000000000000000 000000000000000000000000000000000000000     00000000                                                                                                                        000000000000000000
F0010000009290000005000080202094000013552100000000000000000201610200002001DISTRIB. OMAR ORREGO S.A.                         D000000000331300000000000000000000100010010000000000000000000000F0010000009290000520161020000101 00000000000000000000000000000000000000000000000000000000000000000000000000000000000000000000000000000000000000000N 00000000000NCONT   00    00000000000          00000000000000000000000000000000000000000000 000000000000000A000000000000000000000000000000000000000000000 000000000000000000000000000000000000000     00000000                                                                                                                        000000000000000000
F0010000009290100001000080202094000013050500000000000000000201610200002001DISTRIB. OMAR ORREGO S.A.                         D000000037549300000000000000000000100010010000000000000000000000F0010000009290100120161020000101 00000000000000000000000000000000000000000000000000000000000000000000000000000000000000000000000000000000000000000N 00000000000NCONT   00    00000000000          00000000000000000000000000000000000000000000 000000000000000A000000000000000000000000000000000000000000000 000000000000000000000000000000000000000     00000000                                                                                                                        000000000000000000
F0010000009290100002000080202094000041450500000000000000000201610200002001DISTRIB. OMAR ORREGO S.A.                         C000000021220000000000000000000000100010010000000000000000000000F0010000009290100220161020000101 00000000000000000000000000000000000000000000000000000000000000000000000000000000000000000000000000000000000000000N 00000000000NCONT   00    00000000000          00000000000000000000000000000000000000000000 000000000000000A000000000000000000000000000000000000000000000 000000000000000000000000000000000000000     00000000                                                                                                                        000000000000000000
F0010000009290100003000080202094000042505000000000000000000201610200002001DISTRIB. OMAR ORREGO S.A.                         C000000016329300000000000000000000100010010000000000000000000000F0010000009290100320161020000101 00000000000000000000000000000000000000000000000000000000000000000000000000000000000000000000000000000000000000000N 00000000000NCONT   00    00000000000          00000000000000000000000000000000000000000000 000000000000000A000000000000000000000000000000000000000000000 000000000000000000000000000000000000000     00000000                                                                                                                        000000000000000000
F0010000009290100004000080202094000023658300000000000000000201610200002001DISTRIB. OMAR ORREGO S.A.                         C000000000169800000000000000000000100010010000000000000000000000F0010000009290100420161020000101 00000000000000000000000000000000000000000000000000000000000000000000000000000000000000000000000000000000000000000N 00000000000NCONT   00    00000000000          00000000000000000000000000000000000000000000 000000000000000A000000000000000000000000000000000000000000000 000000000000000000000000000000000000000     00000000                                                                                                                        000000000000000000
F0010000009290100005000080202094000013552100000000000000000201610200002001DISTRIB. OMAR ORREGO S.A.                         D000000000169800000000000000000000100010010000000000000000000000F0010000009290100520161020000101 00000000000000000000000000000000000000000000000000000000000000000000000000000000000000000000000000000000000000000N 00000000000NCONT   00    00000000000          00000000000000000000000000000000000000000000 000000000000000A000000000000000000000000000000000000000000000 000000000000000000000000000000000000000     00000000                                                                                                                        000000000000000000
F0010000009290200001000080201112800013050500000000000000000201610200002001CANGURO INTERNATIONAL S.A.                        D000000116502800000000000000000000100010010000000000000000000000F0010000009290200120161020000101 00000000000000000000000000000000000000000000000000000000000000000000000000000000000000000000000000000000000000000N 00000000000NCONT   00    00000000000          00000000000000000000000000000000000000000000 000000000000000A000000000000000000000000000000000000000000000 000000000000000000000000000000000000000     00000000                                                                                                                        000000000000000000
F0010000009290200002000080201112800041450500000000000000000201610200002001CANGURO INTERNATIONAL S.A.                        C000000116502800000000000000000000100010010000000000000000000000F0010000009290200220161020000101 00000000000000000000000000000000000000000000000000000000000000000000000000000000000000000000000000000000000000000N 00000000000NCONT   00    00000000000          00000000000000000000000000000000000000000000 000000000000000A000000000000000000000000000000000000000000000 000000000000000000000000000000000000000     00000000                                                                                                                        000000000000000000
F0010000009290200003000080201112800042505000000000000000000201610200002001CANGURO INTERNATIONAL S.A.                        C000000000000000000000000000000000100010010000000000000000000000F0010000009290200320161020000101 00000000000000000000000000000000000000000000000000000000000000000000000000000000000000000000000000000000000000000N 00000000000NCONT   00    00000000000          00000000000000000000000000000000000000000000 000000000000000A000000000000000000000000000000000000000000000 000000000000000000000000000000000000000     00000000                                                                                                                        000000000000000000
F0010000009290200004000080201112800023658300000000000000000201610200002001CANGURO INTERNATIONAL S.A.                        C000000000932000000000000000000000100010010000000000000000000000F0010000009290200420161020000101 00000000000000000000000000000000000000000000000000000000000000000000000000000000000000000000000000000000000000000N 00000000000NCONT   00    00000000000          00000000000000000000000000000000000000000000 000000000000000A000000000000000000000000000000000000000000000 000000000000000000000000000000000000000     00000000                                                                                                                        000000000000000000
F0010000009290200005000080201112800013552100000000000000000201610200002001CANGURO INTERNATIONAL S.A.                        D000000000932000000000000000000000100010010000000000000000000000F0010000009290200520161020000101 00000000000000000000000000000000000000000000000000000000000000000000000000000000000000000000000000000000000000000N 00000000000NCONT   00    00000000000          00000000000000000000000000000000000000000000 000000000000000A000000000000000000000000000000000000000000000 000000000000000000000000000000000000000     00000000                                                                                                                        000000000000000000
F0010000009290300001000080201112800013050500000000000000000201610200002001CANGURO INTERNATIONAL S.A.                        D000000171491100000000000000000000100010010000000000000000000000F0010000009290300120161020000101 00000000000000000000000000000000000000000000000000000000000000000000000000000000000000000000000000000000000000000N 00000000000NCONT   00    00000000000          00000000000000000000000000000000000000000000 000000000000000A000000000000000000000000000000000000000000000 000000000000000000000000000000000000000     00000000                                                                                                                        000000000000000000
F0010000009290300002000080201112800041450500000000000000000201610200002001CANGURO INTERNATIONAL S.A.                        C000000167644100000000000000000000100010010000000000000000000000F0010000009290300220161020000101 00000000000000000000000000000000000000000000000000000000000000000000000000000000000000000000000000000000000000000N 00000000000NCONT   00    00000000000          00000000000000000000000000000000000000000000 000000000000000A000000000000000000000000000000000000000000000 000000000000000000000000000000000000000     00000000                                                                                                                        000000000000000000
F0010000009290300003000080201112800042505000000000000000000201610200002001CANGURO INTERNATIONAL S.A.                        C000000003847000000000000000000000100010010000000000000000000000F0010000009290300320161020000101 00000000000000000000000000000000000000000000000000000000000000000000000000000000000000000000000000000000000000000N 00000000000NCONT   00    00000000000          00000000000000000000000000000000000000000000 000000000000000A000000000000000000000000000000000000000000000 000000000000000000000000000000000000000     00000000                                                                                                                        000000000000000000
F0010000009290300004000080201112800023658300000000000000000201610200002001CANGURO INTERNATIONAL S.A.                        C000000001341200000000000000000000100010010000000000000000000000F0010000009290300420161020000101 00000000000000000000000000000000000000000000000000000000000000000000000000000000000000000000000000000000000000000N 00000000000NCONT   00    00000000000          00000000000000000000000000000000000000000000 000000000000000A000000000000000000000000000000000000000000000 000000000000000000000000000000000000000     00000000                                                                                                                        000000000000000000
F0010000009290300005000080201112800013552100000000000000000201610200002001CANGURO INTERNATIONAL S.A.                        D000000001341200000000000000000000100010010000000000000000000000F0010000009290300520161020000101 00000000000000000000000000000000000000000000000000000000000000000000000000000000000000000000000000000000000000000N 00000000000NCONT   00    00000000000          00000000000000000000000000000000000000000000 000000000000000A000000000000000000000000000000000000000000000 000000000000000000000000000000000000000     00000000                                                                                                                        000000000000000000
F0010000009290400001000090036646700013050500000000000000000201610200002001FERREPROYECTOS S.A.S                              D000000006500000000000000000000000100010010000000000000000000000F0010000009290400120161020000101 00000000000000000000000000000000000000000000000000000000000000000000000000000000000000000000000000000000000000000N 00000000000NCONT   00    00000000000          00000000000000000000000000000000000000000000 000000000000000A000000000000000000000000000000000000000000000 000000000000000000000000000000000000000     00000000                                                                                                                        000000000000000000
F0010000009290400002000090036646700041450500000000000000000201610200002001FERREPROYECTOS S.A.S                              C000000006200000000000000000000000100010010000000000000000000000F0010000009290400220161020000101 00000000000000000000000000000000000000000000000000000000000000000000000000000000000000000000000000000000000000000N 00000000000NCONT   00    00000000000          00000000000000000000000000000000000000000000 000000000000000A000000000000000000000000000000000000000000000 000000000000000000000000000000000000000     00000000                                                                                                                        000000000000000000
F0010000009290400003000090036646700042505000000000000000000201610200002001FERREPROYECTOS S.A.S                              C000000000300000000000000000000000100010010000000000000000000000F0010000009290400320161020000101 00000000000000000000000000000000000000000000000000000000000000000000000000000000000000000000000000000000000000000N 00000000000NCONT   00    00000000000          00000000000000000000000000000000000000000000 000000000000000A000000000000000000000000000000000000000000000 000000000000000000000000000000000000000     00000000                                                                                                                        000000000000000000
F0010000009290400004000090036646700023658300000000000000000201610200002001FERREPROYECTOS S.A.S                              C000000000049600000000000000000000100010010000000000000000000000F0010000009290400420161020000101 00000000000000000000000000000000000000000000000000000000000000000000000000000000000000000000000000000000000000000N 00000000000NCONT   00    00000000000          00000000000000000000000000000000000000000000 000000000000000A000000000000000000000000000000000000000000000 000000000000000000000000000000000000000     00000000                                                                                                                        000000000000000000
F0010000009290400005000090036646700013552100000000000000000201610200002001FERREPROYECTOS S.A.S                              D000000000049600000000000000000000100010010000000000000000000000F0010000009290400520161020000101 00000000000000000000000000000000000000000000000000000000000000000000000000000000000000000000000000000000000000000N 00000000000NCONT   00    00000000000          00000000000000000000000000000000000000000000 000000000000000A000000000000000000000000000000000000000000000 000000000000000000000000000000000000000     00000000                                                                                                                        000000000000000000
F0010000009290500001000083008772100013050500000000000000000201610200002001ILUMEC SAS                                        D000000022860000000000000000000000100010010000000000000000000000F0010000009290500120161020000101 00000000000000000000000000000000000000000000000000000000000000000000000000000000000000000000000000000000000000000N 00000000000NCONT   00    00000000000          00000000000000000000000000000000000000000000 000000000000000A000000000000000000000000000000000000000000000 000000000000000000000000000000000000000     00000000                                                                                                                        000000000000000000
F0010000009290500002000083008772100041450500000000000000000201610200002001ILUMEC SAS                                        C000000017760000000000000000000000100010010000000000000000000000F0010000009290500220161020000101 00000000000000000000000000000000000000000000000000000000000000000000000000000000000000000000000000000000000000000N 00000000000NCONT   00    00000000000          00000000000000000000000000000000000000000000 000000000000000A000000000000000000000000000000000000000000000 000000000000000000000000000000000000000     00000000                                                                                                                        000000000000000000
F0010000009290500003000083008772100042505000000000000000000201610200002001ILUMEC SAS                                        C000000005100000000000000000000000100010010000000000000000000000F0010000009290500320161020000101 00000000000000000000000000000000000000000000000000000000000000000000000000000000000000000000000000000000000000000N 00000000000NCONT   00    00000000000          00000000000000000000000000000000000000000000 000000000000000A000000000000000000000000000000000000000000000 000000000000000000000000000000000000000     00000000                                                                                                                        000000000000000000
F0010000009290500004000083008772100023658300000000000000000201610200002001ILUMEC SAS                                        C000000000142100000000000000000000100010010000000000000000000000F0010000009290500420161020000101 00000000000000000000000000000000000000000000000000000000000000000000000000000000000000000000000000000000000000000N 00000000000NCONT   00    00000000000          00000000000000000000000000000000000000000000 000000000000000A000000000000000000000000000000000000000000000 000000000000000000000000000000000000000     00000000                                                                                                                        000000000000000000
F0010000009290500005000083008772100013552100000000000000000201610200002001ILUMEC SAS                                        D000000000142100000000000000000000100010010000000000000000000000F0010000009290500520161020000101 00000000000000000000000000000000000000000000000000000000000000000000000000000000000000000000000000000000000000000N 00000000000NCONT   00    00000000000          00000000000000000000000000000000000000000000 000000000000000A000000000000000000000000000000000000000000000 000000000000000000000000000000000000000     00000000                                                                                                                        000000000000000000
F0010000009290600001000090007142100013050500000000000000000201610200002001TODO BELLEZA Y MAX S.A.S                          D000000013720000000000000000000000100010010000000000000000000000F0010000009290600120161020000101 00000000000000000000000000000000000000000000000000000000000000000000000000000000000000000000000000000000000000000N 00000000000NCONT   00    00000000000          00000000000000000000000000000000000000000000 000000000000000A000000000000000000000000000000000000000000000 000000000000000000000000000000000000000     00000000                                                                                                                        000000000000000000
F0010000009290600002000090007142100041450500000000000000000201610200002001TODO BELLEZA Y MAX S.A.S                          C000000013070000000000000000000000100010010000000000000000000000F0010000009290600220161020000101 00000000000000000000000000000000000000000000000000000000000000000000000000000000000000000000000000000000000000000N 00000000000NCONT   00    00000000000          00000000000000000000000000000000000000000000 000000000000000A000000000000000000000000000000000000000000000 000000000000000000000000000000000000000     00000000                                                                                                                        000000000000000000
F0010000009290600003000090007142100042505000000000000000000201610200002001TODO BELLEZA Y MAX S.A.S                          C000000000650000000000000000000000100010010000000000000000000000F0010000009290600320161020000101 00000000000000000000000000000000000000000000000000000000000000000000000000000000000000000000000000000000000000000N 00000000000NCONT   00    00000000000          00000000000000000000000000000000000000000000 000000000000000A000000000000000000000000000000000000000000000 000000000000000000000000000000000000000     00000000                                                                                                                        000000000000000000
F0010000009290600004000090007142100023658300000000000000000201610200002001TODO BELLEZA Y MAX S.A.S                          C000000000104600000000000000000000100010010000000000000000000000F0010000009290600420161020000101 00000000000000000000000000000000000000000000000000000000000000000000000000000000000000000000000000000000000000000N 00000000000NCONT   00    00000000000          00000000000000000000000000000000000000000000 000000000000000A000000000000000000000000000000000000000000000 000000000000000000000000000000000000000     00000000                                                                                                                        000000000000000000
F0010000009290600005000090007142100013552100000000000000000201610200002001TODO BELLEZA Y MAX S.A.S                          D000000000104600000000000000000000100010010000000000000000000000F0010000009290600520161020000101 00000000000000000000000000000000000000000000000000000000000000000000000000000000000000000000000000000000000000000N 00000000000NCONT   00    00000000000          00000000000000000000000000000000000000000000 000000000000000A000000000000000000000000000000000000000000000 000000000000000000000000000000000000000     00000000                                                                                                                        000000000000000000
F0010000009290700001000080200250700013050500000000000000000201610200002001ETICOL SAS                                        D000000017050000000000000000000000100010010000000000000000000000F0010000009290700120161020000101 00000000000000000000000000000000000000000000000000000000000000000000000000000000000000000000000000000000000000000N 00000000000NCONT   00    00000000000          00000000000000000000000000000000000000000000 000000000000000A000000000000000000000000000000000000000000000 000000000000000000000000000000000000000     00000000                                                                                                                        000000000000000000
F0010000009290700002000080200250700041450500000000000000000201610200002001ETICOL SAS                                        C000000016150000000000000000000000100010010000000000000000000000F0010000009290700220161020000101 00000000000000000000000000000000000000000000000000000000000000000000000000000000000000000000000000000000000000000N 00000000000NCONT   00    00000000000          00000000000000000000000000000000000000000000 000000000000000A000000000000000000000000000000000000000000000 000000000000000000000000000000000000000     00000000                                                                                                                        000000000000000000
F0010000009290700003000080200250700042505000000000000000000201610200002001ETICOL SAS                                        C000000000900000000000000000000000100010010000000000000000000000F0010000009290700320161020000101 00000000000000000000000000000000000000000000000000000000000000000000000000000000000000000000000000000000000000000N 00000000000NCONT   00    00000000000          00000000000000000000000000000000000000000000 000000000000000A000000000000000000000000000000000000000000000 000000000000000000000000000000000000000     00000000                                                                                                                        000000000000000000
F0010000009290700004000080200250700023658300000000000000000201610200002001ETICOL SAS                                        C000000000129200000000000000000000100010010000000000000000000000F0010000009290700420161020000101 00000000000000000000000000000000000000000000000000000000000000000000000000000000000000000000000000000000000000000N 00000000000NCONT   00    00000000000          00000000000000000000000000000000000000000000 000000000000000A000000000000000000000000000000000000000000000 000000000000000000000000000000000000000     00000000                                                                                                                        000000000000000000
F0010000009290700005000080200250700013552100000000000000000201610200002001ETICOL SAS                                        D000000000129200000000000000000000100010010000000000000000000000F0010000009290700520161020000101 00000000000000000000000000000000000000000000000000000000000000000000000000000000000000000000000000000000000000000N 00000000000NCONT   00    00000000000          00000000000000000000000000000000000000000000 000000000000000A000000000000000000000000000000000000000000000 000000000000000000000000000000000000000     00000000                                                                                                                        000000000000000000
F0010000009290800001000089030195100013050500000000000000000201610200002001LIBRERIA NACIONAL S.A.                            D000000032500000000000000000000000100010010000000000000000000000F0010000009290800120161020000101 00000000000000000000000000000000000000000000000000000000000000000000000000000000000000000000000000000000000000000N 00000000000NCONT   00    00000000000          00000000000000000000000000000000000000000000 000000000000000A000000000000000000000000000000000000000000000 000000000000000000000000000000000000000     00000000                                                                                                                        000000000000000000
F0010000009290800002000089030195100041450500000000000000000201610200002001LIBRERIA NACIONAL S.A.                            C000000026600000000000000000000000100010010000000000000000000000F0010000009290800220161020000101 00000000000000000000000000000000000000000000000000000000000000000000000000000000000000000000000000000000000000000N 00000000000NCONT   00    00000000000          00000000000000000000000000000000000000000000 000000000000000A000000000000000000000000000000000000000000000 000000000000000000000000000000000000000     00000000                                                                                                                        000000000000000000
F0010000009290800003000089030195100042505000000000000000000201610200002001LIBRERIA NACIONAL S.A.                            C000000005900000000000000000000000100010010000000000000000000000F0010000009290800320161020000101 00000000000000000000000000000000000000000000000000000000000000000000000000000000000000000000000000000000000000000N 00000000000NCONT   00    00000000000          00000000000000000000000000000000000000000000 000000000000000A000000000000000000000000000000000000000000000 000000000000000000000000000000000000000     00000000                                                                                                                        000000000000000000
F0010000009290800004000089030195100023658300000000000000000201610200002001LIBRERIA NACIONAL S.A.                            C000000000212800000000000000000000100010010000000000000000000000F0010000009290800420161020000101 00000000000000000000000000000000000000000000000000000000000000000000000000000000000000000000000000000000000000000N 00000000000NCONT   00    00000000000          00000000000000000000000000000000000000000000 000000000000000A000000000000000000000000000000000000000000000 000000000000000000000000000000000000000     00000000                                                                                                                        000000000000000000
F0010000009290800005000089030195100013552100000000000000000201610200002001LIBRERIA NACIONAL S.A.                            D000000000212800000000000000000000100010010000000000000000000000F0010000009290800520161020000101 00000000000000000000000000000000000000000000000000000000000000000000000000000000000000000000000000000000000000000N 00000000000NCONT   00    00000000000          00000000000000000000000000000000000000000000 000000000000000A000000000000000000000000000000000000000000000 000000000000000000000000000000000000000     00000000                                                                                                                        000000000000000000
F0010000009290900001000007215896800013050500000000000000000201610200002001EDDIER CIRO                                       D000000030243400000000000000000000100010010000000000000000000000F0010000009290900120161020000101 00000000000000000000000000000000000000000000000000000000000000000000000000000000000000000000000000000000000000000N 00000000000NCONT   00    00000000000          00000000000000000000000000000000000000000000 000000000000000A000000000000000000000000000000000000000000000 000000000000000000000000000000000000000     00000000                                                                                                                        000000000000000000
F0010000009290900002000007215896800041450500000000000000000201610200002001EDDIER CIRO                                       C000000022576000000000000000000000100010010000000000000000000000F0010000009290900220161020000101 00000000000000000000000000000000000000000000000000000000000000000000000000000000000000000000000000000000000000000N 00000000000NCONT   00    00000000000          00000000000000000000000000000000000000000000 000000000000000A000000000000000000000000000000000000000000000 000000000000000000000000000000000000000     00000000                                                                                                                        000000000000000000
F0010000009290900003000007215896800042505000000000000000000201610200002001EDDIER CIRO                                       C000000007667400000000000000000000100010010000000000000000000000F0010000009290900320161020000101 00000000000000000000000000000000000000000000000000000000000000000000000000000000000000000000000000000000000000000N 00000000000NCONT   00    00000000000          00000000000000000000000000000000000000000000 000000000000000A000000000000000000000000000000000000000000000 000000000000000000000000000000000000000     00000000                                                                                                                        000000000000000000
F0010000009290900004000007215896800023658300000000000000000201610200002001EDDIER CIRO                                       C000000000180600000000000000000000100010010000000000000000000000F0010000009290900420161020000101 00000000000000000000000000000000000000000000000000000000000000000000000000000000000000000000000000000000000000000N 00000000000NCONT   00    00000000000          00000000000000000000000000000000000000000000 000000000000000A000000000000000000000000000000000000000000000 000000000000000000000000000000000000000     00000000                                                                                                                        000000000000000000
F0010000009290900005000007215896800013552100000000000000000201610200002001EDDIER CIRO                                       D000000000180600000000000000000000100010010000000000000000000000F0010000009290900520161020000101 00000000000000000000000000000000000000000000000000000000000000000000000000000000000000000000000000000000000000000N 00000000000NCONT   00    00000000000          00000000000000000000000000000000000000000000 000000000000000A000000000000000000000000000000000000000000000 000000000000000000000000000000000000000     00000000                                                                                                                        000000000000000000
F0010000009291000001000090050863700013050500000000000000000201610200002001COMERCIALIZADORA PERFECT SAS                      D000000023390000000000000000000000100010010000000000000000000000F0010000009291000120161020000101 00000000000000000000000000000000000000000000000000000000000000000000000000000000000000000000000000000000000000000N 00000000000NCONT   00    00000000000          00000000000000000000000000000000000000000000 000000000000000A000000000000000000000000000000000000000000000 000000000000000000000000000000000000000     00000000                                                                                                                        000000000000000000
F0010000009291000002000090050863700041450500000000000000000201610200002001COMERCIALIZADORA PERFECT SAS                      C000000019050000000000000000000000100010010000000000000000000000F0010000009291000220161020000101 00000000000000000000000000000000000000000000000000000000000000000000000000000000000000000000000000000000000000000N 00000000000NCONT   00    00000000000          00000000000000000000000000000000000000000000 000000000000000A000000000000000000000000000000000000000000000 000000000000000000000000000000000000000     00000000                                                                                                                        000000000000000000
F0010000009291000003000090050863700042505000000000000000000201610200002001COMERCIALIZADORA PERFECT SAS                      C000000004340000000000000000000000100010010000000000000000000000F0010000009291000320161020000101 00000000000000000000000000000000000000000000000000000000000000000000000000000000000000000000000000000000000000000N 00000000000NCONT   00    00000000000          00000000000000000000000000000000000000000000 000000000000000A000000000000000000000000000000000000000000000 000000000000000000000000000000000000000     00000000                                                                                                                        000000000000000000
F0010000009291000004000090050863700023658300000000000000000201610200002001COMERCIALIZADORA PERFECT SAS                      C000000000152400000000000000000000100010010000000000000000000000F0010000009291000420161020000101 00000000000000000000000000000000000000000000000000000000000000000000000000000000000000000000000000000000000000000N 00000000000NCONT   00    00000000000          00000000000000000000000000000000000000000000 000000000000000A000000000000000000000000000000000000000000000 000000000000000000000000000000000000000     00000000                                                                                                                        000000000000000000
F0010000009291000005000090050863700013552100000000000000000201610200002001COMERCIALIZADORA PERFECT SAS                      D000000000152400000000000000000000100010010000000000000000000000F0010000009291000520161020000101 00000000000000000000000000000000000000000000000000000000000000000000000000000000000000000000000000000000000000000N 00000000000NCONT   00    00000000000          00000000000000000000000000000000000000000000 000000000000000A000000000000000000000000000000000000000000000 000000000000000000000000000000000000000     00000000                                                                                                                        000000000000000000
F0010000009291100001000090038852800013050500000000000000000201610200002001EL COMERCIO ELECTRICO DE LA CO                    D000000031267000000000000000000000100010010000000000000000000000F0010000009291100120161020000101 00000000000000000000000000000000000000000000000000000000000000000000000000000000000000000000000000000000000000000N 00000000000NCONT   00    00000000000          00000000000000000000000000000000000000000000 000000000000000A000000000000000000000000000000000000000000000 000000000000000000000000000000000000000     00000000                                                                                                                        000000000000000000
F0010000009291100002000090038852800041450500000000000000000201610200002001EL COMERCIO ELECTRICO DE LA CO                    C000000025510000000000000000000000100010010000000000000000000000F0010000009291100220161020000101 00000000000000000000000000000000000000000000000000000000000000000000000000000000000000000000000000000000000000000N 00000000000NCONT   00    00000000000          00000000000000000000000000000000000000000000 000000000000000A000000000000000000000000000000000000000000000 000000000000000000000000000000000000000     00000000                                                                                                                        000000000000000000
F0010000009291100003000090038852800042505000000000000000000201610200002001EL COMERCIO ELECTRICO DE LA CO                    C000000005757000000000000000000000100010010000000000000000000000F0010000009291100320161020000101 00000000000000000000000000000000000000000000000000000000000000000000000000000000000000000000000000000000000000000N 00000000000NCONT   00    00000000000          00000000000000000000000000000000000000000000 000000000000000A000000000000000000000000000000000000000000000 000000000000000000000000000000000000000     00000000                                                                                                                        000000000000000000
F0010000009291100004000090038852800023658300000000000000000201610200002001EL COMERCIO ELECTRICO DE LA CO                    C000000000204100000000000000000000100010010000000000000000000000F0010000009291100420161020000101 00000000000000000000000000000000000000000000000000000000000000000000000000000000000000000000000000000000000000000N 00000000000NCONT   00    00000000000          00000000000000000000000000000000000000000000 000000000000000A000000000000000000000000000000000000000000000 000000000000000000000000000000000000000     00000000                                                                                                                        000000000000000000
F0010000009291100005000090038852800013552100000000000000000201610200002001EL COMERCIO ELECTRICO DE LA CO                    D000000000204100000000000000000000100010010000000000000000000000F0010000009291100520161020000101 00000000000000000000000000000000000000000000000000000000000000000000000000000000000000000000000000000000000000000N 00000000000NCONT   00    00000000000          00000000000000000000000000000000000000000000 000000000000000A000000000000000000000000000000000000000000000 000000000000000000000000000000000000000     00000000                                                                                                                        000000000000000000
F0010000009291200001000080202132300013050500000000000000000201610200002001SUM Y SERV DE LA COSTA LTDA                       D000000033790000000000000000000000100010010000000000000000000000F0010000009291200120161020000101 00000000000000000000000000000000000000000000000000000000000000000000000000000000000000000000000000000000000000000N 00000000000NCONT   00    00000000000          00000000000000000000000000000000000000000000 000000000000000A000000000000000000000000000000000000000000000 000000000000000000000000000000000000000     00000000                                                                                                                        000000000000000000
F0010000009291200002000080202132300041450500000000000000000201610200002001SUM Y SERV DE LA COSTA LTDA                       C000000030960000000000000000000000100010010000000000000000000000F0010000009291200220161020000101 00000000000000000000000000000000000000000000000000000000000000000000000000000000000000000000000000000000000000000N 00000000000NCONT   00    00000000000          00000000000000000000000000000000000000000000 000000000000000A000000000000000000000000000000000000000000000 000000000000000000000000000000000000000     00000000                                                                                                                        000000000000000000
F0010000009291200003000080202132300042505000000000000000000201610200002001SUM Y SERV DE LA COSTA LTDA                       C000000002830000000000000000000000100010010000000000000000000000F0010000009291200320161020000101 00000000000000000000000000000000000000000000000000000000000000000000000000000000000000000000000000000000000000000N 00000000000NCONT   00    00000000000          00000000000000000000000000000000000000000000 000000000000000A000000000000000000000000000000000000000000000 000000000000000000000000000000000000000     00000000                                                                                                                        000000000000000000
F0010000009291200004000080202132300023658300000000000000000201610200002001SUM Y SERV DE LA COSTA LTDA                       C000000000247700000000000000000000100010010000000000000000000000F0010000009291200420161020000101 00000000000000000000000000000000000000000000000000000000000000000000000000000000000000000000000000000000000000000N 00000000000NCONT   00    00000000000          00000000000000000000000000000000000000000000 000000000000000A000000000000000000000000000000000000000000000 000000000000000000000000000000000000000     00000000                                                                                                                        000000000000000000
F0010000009291200005000080202132300013552100000000000000000201610200002001SUM Y SERV DE LA COSTA LTDA                       D000000000247700000000000000000000100010010000000000000000000000F0010000009291200520161020000101 00000000000000000000000000000000000000000000000000000000000000000000000000000000000000000000000000000000000000000N 00000000000NCONT   00    00000000000          00000000000000000000000000000000000000000000 000000000000000A000000000000000000000000000000000000000000000 000000000000000000000000000000000000000     00000000                                                                                                                        000000000000000000
F0010000009291300001000090037881900013050500000000000000000201610200002001COMERCIALIZADORA RACOPI S.A.S                     D000000006020000000000000000000000100010010000000000000000000000F0010000009291300120161020000101 00000000000000000000000000000000000000000000000000000000000000000000000000000000000000000000000000000000000000000N 00000000000NCONT   00    00000000000          00000000000000000000000000000000000000000000 000000000000000A000000000000000000000000000000000000000000000 000000000000000000000000000000000000000     00000000                                                                                                                        000000000000000000
F0010000009291300002000090037881900041450500000000000000000201610200002001COMERCIALIZADORA RACOPI S.A.S                     C000000005320000000000000000000000100010010000000000000000000000F0010000009291300220161020000101 00000000000000000000000000000000000000000000000000000000000000000000000000000000000000000000000000000000000000000N 00000000000NCONT   00    00000000000          00000000000000000000000000000000000000000000 000000000000000A000000000000000000000000000000000000000000000 000000000000000000000000000000000000000     00000000                                                                                                                        000000000000000000
F0010000009291300003000090037881900042505000000000000000000201610200002001COMERCIALIZADORA RACOPI S.A.S                     C000000000700000000000000000000000100010010000000000000000000000F0010000009291300320161020000101 00000000000000000000000000000000000000000000000000000000000000000000000000000000000000000000000000000000000000000N 00000000000NCONT   00    00000000000          00000000000000000000000000000000000000000000 000000000000000A000000000000000000000000000000000000000000000 000000000000000000000000000000000000000     00000000                                                                                                                        000000000000000000
F0010000009291300004000090037881900023658300000000000000000201610200002001COMERCIALIZADORA RACOPI S.A.S                     C000000000042600000000000000000000100010010000000000000000000000F0010000009291300420161020000101 00000000000000000000000000000000000000000000000000000000000000000000000000000000000000000000000000000000000000000N 00000000000NCONT   00    00000000000          00000000000000000000000000000000000000000000 000000000000000A000000000000000000000000000000000000000000000 000000000000000000000000000000000000000     00000000                                                                                                                        000000000000000000
F0010000009291300005000090037881900013552100000000000000000201610200002001COMERCIALIZADORA RACOPI S.A.S                     D000000000042600000000000000000000100010010000000000000000000000F0010000009291300520161020000101 00000000000000000000000000000000000000000000000000000000000000000000000000000000000000000000000000000000000000000N 00000000000NCONT   00    00000000000          00000000000000000000000000000000000000000000 000000000000000A000000000000000000000000000000000000000000000 000000000000000000000000000000000000000     00000000                                                                                                                        000000000000000000
F0010000009291400001000089031248700013050500000000000000000201610200002001DISTRIBUIDORA CALIPLASTICOS LTDA                  D000000051645900000000000000000000100010010000000000000000000000F0010000009291400120161020000101 00000000000000000000000000000000000000000000000000000000000000000000000000000000000000000000000000000000000000000N 00000000000NCONT   00    00000000000          00000000000000000000000000000000000000000000 000000000000000A000000000000000000000000000000000000000000000 000000000000000000000000000000000000000     00000000                                                                                                                        000000000000000000
F0010000009291400002000089031248700041450500000000000000000201610200002001DISTRIBUIDORA CALIPLASTICOS LTDA                  C000000046605900000000000000000000100010010000000000000000000000F0010000009291400220161020000101 00000000000000000000000000000000000000000000000000000000000000000000000000000000000000000000000000000000000000000N 00000000000NCONT   00    00000000000          00000000000000000000000000000000000000000000 000000000000000A000000000000000000000000000000000000000000000 000000000000000000000000000000000000000     00000000                                                                                                                        000000000000000000
F0010000009291400003000089031248700042505000000000000000000201610200002001DISTRIBUIDORA CALIPLASTICOS LTDA                  C000000005040000000000000000000000100010010000000000000000000000F0010000009291400320161020000101 00000000000000000000000000000000000000000000000000000000000000000000000000000000000000000000000000000000000000000N 00000000000NCONT   00    00000000000          00000000000000000000000000000000000000000000 000000000000000A000000000000000000000000000000000000000000000 000000000000000000000000000000000000000     00000000                                                                                                                        000000000000000000
F0010000009291400004000089031248700023658300000000000000000201610200002001DISTRIBUIDORA CALIPLASTICOS LTDA                  C000000000372800000000000000000000100010010000000000000000000000F0010000009291400420161020000101 00000000000000000000000000000000000000000000000000000000000000000000000000000000000000000000000000000000000000000N 00000000000NCONT   00    00000000000          00000000000000000000000000000000000000000000 000000000000000A000000000000000000000000000000000000000000000 000000000000000000000000000000000000000     00000000                                                                                                                        000000000000000000
F0010000009291400005000089031248700013552100000000000000000201610200002001DISTRIBUIDORA CALIPLASTICOS LTDA                  D000000000372800000000000000000000100010010000000000000000000000F0010000009291400520161020000101 00000000000000000000000000000000000000000000000000000000000000000000000000000000000000000000000000000000000000000N 00000000000NCONT   00    00000000000          00000000000000000000000000000000000000000000 000000000000000A000000000000000000000000000000000000000000000 000000000000000000000000000000000000000     00000000                                                                                                                        000000000000000000
F0010000009291500001000003264509600013050500000000000000000201610200002001ROSA E. AGAMEZ                                    D000000005570000000000000000000000100010010000000000000000000000F0010000009291500120161020000101 00000000000000000000000000000000000000000000000000000000000000000000000000000000000000000000000000000000000000000N 00000000000NCONT   00    00000000000          00000000000000000000000000000000000000000000 000000000000000A000000000000000000000000000000000000000000000 000000000000000000000000000000000000000     00000000                                                                                                                        000000000000000000
F0010000009291500002000003264509600041450500000000000000000201610200002001ROSA E. AGAMEZ                                    C000000003660000000000000000000000100010010000000000000000000000F0010000009291500220161020000101 00000000000000000000000000000000000000000000000000000000000000000000000000000000000000000000000000000000000000000N 00000000000NCONT   00    00000000000          00000000000000000000000000000000000000000000 000000000000000A000000000000000000000000000000000000000000000 000000000000000000000000000000000000000     00000000                                                                                                                        000000000000000000
F0010000009291500003000003264509600042505000000000000000000201610200002001ROSA E. AGAMEZ                                    C000000001910000000000000000000000100010010000000000000000000000F0010000009291500320161020000101 00000000000000000000000000000000000000000000000000000000000000000000000000000000000000000000000000000000000000000N 00000000000NCONT   00    00000000000          00000000000000000000000000000000000000000000 000000000000000A000000000000000000000000000000000000000000000 000000000000000000000000000000000000000     00000000                                                                                                                        000000000000000000
F0010000009291500004000003264509600023658300000000000000000201610200002001ROSA E. AGAMEZ                                    C000000000029300000000000000000000100010010000000000000000000000F0010000009291500420161020000101 00000000000000000000000000000000000000000000000000000000000000000000000000000000000000000000000000000000000000000N 00000000000NCONT   00    00000000000          00000000000000000000000000000000000000000000 000000000000000A000000000000000000000000000000000000000000000 000000000000000000000000000000000000000     00000000                                                                                                                        000000000000000000
F0010000009291500005000003264509600013552100000000000000000201610200002001ROSA E. AGAMEZ                                    D000000000029300000000000000000000100010010000000000000000000000F0010000009291500520161020000101 00000000000000000000000000000000000000000000000000000000000000000000000000000000000000000000000000000000000000000N 00000000000NCONT   00    00000000000          00000000000000000000000000000000000000000000 000000000000000A000000000000000000000000000000000000000000000 000000000000000000000000000000000000000     00000000                                                                                                                        000000000000000000
F0010000009291600001000089011719700013050500000000000000000201610200002001REP. MUNERA GALARZA LTDA (FRANCISCO MUNERA)       D000000009945000000000000000000000100010010000000000000000000000F0010000009291600120161020000101 00000000000000000000000000000000000000000000000000000000000000000000000000000000000000000000000000000000000000000N 00000000000NCONT   00    00000000000          00000000000000000000000000000000000000000000 000000000000000A000000000000000000000000000000000000000000000 000000000000000000000000000000000000000     00000000                                                                                                                        000000000000000000
F0010000009291600002000089011719700041450500000000000000000201610200002001REP. MUNERA GALARZA LTDA (FRANCISCO MUNERA)       C000000008190000000000000000000000100010010000000000000000000000F0010000009291600220161020000101 00000000000000000000000000000000000000000000000000000000000000000000000000000000000000000000000000000000000000000N 00000000000NCONT   00    00000000000          00000000000000000000000000000000000000000000 000000000000000A000000000000000000000000000000000000000000000 000000000000000000000000000000000000000     00000000                                                                                                                        000000000000000000
F0010000009291600003000089011719700042505000000000000000000201610200002001REP. MUNERA GALARZA LTDA (FRANCISCO MUNERA)       C000000001755000000000000000000000100010010000000000000000000000F0010000009291600320161020000101 00000000000000000000000000000000000000000000000000000000000000000000000000000000000000000000000000000000000000000N 00000000000NCONT   00    00000000000          00000000000000000000000000000000000000000000 000000000000000A000000000000000000000000000000000000000000000 000000000000000000000000000000000000000     00000000                                                                                                                        000000000000000000
F0010000009291600004000089011719700023658300000000000000000201610200002001REP. MUNERA GALARZA LTDA (FRANCISCO MUNERA)       C000000000065500000000000000000000100010010000000000000000000000F0010000009291600420161020000101 00000000000000000000000000000000000000000000000000000000000000000000000000000000000000000000000000000000000000000N 00000000000NCONT   00    00000000000          00000000000000000000000000000000000000000000 000000000000000A000000000000000000000000000000000000000000000 000000000000000000000000000000000000000     00000000                                                                                                                        000000000000000000
F0010000009291600005000089011719700013552100000000000000000201610200002001REP. MUNERA GALARZA LTDA (FRANCISCO MUNERA)       D000000000065500000000000000000000100010010000000000000000000000F0010000009291600520161020000101 00000000000000000000000000000000000000000000000000000000000000000000000000000000000000000000000000000000000000000N 00000000000NCONT   00    00000000000          00000000000000000000000000000000000000000000 000000000000000A000000000000000000000000000000000000000000000 000000000000000000000000000000000000000     00000000                                                                                                                        000000000000000000
F0010000009291700001000000827614700013050500000000000000000201610200002001ALVARO  HERNAN  PEREZ ALVAREZ                     D000000007940000000000000000000000100010010000000000000000000000F0010000009291700120161020000101 00000000000000000000000000000000000000000000000000000000000000000000000000000000000000000000000000000000000000000N 00000000000NCONT   00    00000000000          00000000000000000000000000000000000000000000 000000000000000A000000000000000000000000000000000000000000000 000000000000000000000000000000000000000     00000000                                                                                                                        000000000000000000
F0010000009291700002000000827614700041450500000000000000000201610200002001ALVARO  HERNAN  PEREZ ALVAREZ                     C000000007200000000000000000000000100010010000000000000000000000F0010000009291700220161020000101 00000000000000000000000000000000000000000000000000000000000000000000000000000000000000000000000000000000000000000N 00000000000NCONT   00    00000000000          00000000000000000000000000000000000000000000 000000000000000A000000000000000000000000000000000000000000000 000000000000000000000000000000000000000     00000000                                                                                                                        000000000000000000
F0010000009291700003000000827614700042505000000000000000000201610200002001ALVARO  HERNAN  PEREZ ALVAREZ                     C000000000740000000000000000000000100010010000000000000000000000F0010000009291700320161020000101 00000000000000000000000000000000000000000000000000000000000000000000000000000000000000000000000000000000000000000N 00000000000NCONT   00    00000000000          00000000000000000000000000000000000000000000 000000000000000A000000000000000000000000000000000000000000000 000000000000000000000000000000000000000     00000000                                                                                                                        000000000000000000
F0010000009291700004000000827614700023658300000000000000000201610200002001ALVARO  HERNAN  PEREZ ALVAREZ                     C000000000057600000000000000000000100010010000000000000000000000F0010000009291700420161020000101 00000000000000000000000000000000000000000000000000000000000000000000000000000000000000000000000000000000000000000N 00000000000NCONT   00    00000000000          00000000000000000000000000000000000000000000 000000000000000A000000000000000000000000000000000000000000000 000000000000000000000000000000000000000     00000000                                                                                                                        000000000000000000
F0010000009291700005000000827614700013552100000000000000000201610200002001ALVARO  HERNAN  PEREZ ALVAREZ                     D000000000057600000000000000000000100010010000000000000000000000F0010000009291700520161020000101 00000000000000000000000000000000000000000000000000000000000000000000000000000000000000000000000000000000000000000N 00000000000NCONT   00    00000000000          00000000000000000000000000000000000000000000 000000000000000A000000000000000000000000000000000000000000000 000000000000000000000000000000000000000     00000000                                                                                                                        000000000000000000
F0010000009291800001000090000859400013050500000000000000000201610200002001COMERCIAL JOTACE LTDA                             D000000017703600000000000000000000100010010000000000000000000000F0010000009291800120161020000101 00000000000000000000000000000000000000000000000000000000000000000000000000000000000000000000000000000000000000000N 00000000000NCONT   00    00000000000          00000000000000000000000000000000000000000000 000000000000000A000000000000000000000000000000000000000000000 000000000000000000000000000000000000000     00000000                                                                                                                        000000000000000000
F0010000009291800002000090000859400041450500000000000000000201610200002001COMERCIAL JOTACE LTDA                             C000000015500000000000000000000000100010010000000000000000000000F0010000009291800220161020000101 00000000000000000000000000000000000000000000000000000000000000000000000000000000000000000000000000000000000000000N 00000000000NCONT   00    00000000000          00000000000000000000000000000000000000000000 000000000000000A000000000000000000000000000000000000000000000 000000000000000000000000000000000000000     00000000                                                                                                                        000000000000000000
F0010000009291800003000090000859400042505000000000000000000201610200002001COMERCIAL JOTACE LTDA                             C000000002203600000000000000000000100010010000000000000000000000F0010000009291800320161020000101 00000000000000000000000000000000000000000000000000000000000000000000000000000000000000000000000000000000000000000N 00000000000NCONT   00    00000000000          00000000000000000000000000000000000000000000 000000000000000A000000000000000000000000000000000000000000000 000000000000000000000000000000000000000     00000000                                                                                                                        000000000000000000
F0010000009291800004000090000859400023658300000000000000000201610200002001COMERCIAL JOTACE LTDA                             C000000000124000000000000000000000100010010000000000000000000000F0010000009291800420161020000101 00000000000000000000000000000000000000000000000000000000000000000000000000000000000000000000000000000000000000000N 00000000000NCONT   00    00000000000          00000000000000000000000000000000000000000000 000000000000000A000000000000000000000000000000000000000000000 000000000000000000000000000000000000000     00000000                                                                                                                        000000000000000000
F0010000009291800005000090000859400013552100000000000000000201610200002001COMERCIAL JOTACE LTDA                             D000000000124000000000000000000000100010010000000000000000000000F0010000009291800520161020000101 00000000000000000000000000000000000000000000000000000000000000000000000000000000000000000000000000000000000000000N 00000000000NCONT   00    00000000000          00000000000000000000000000000000000000000000 000000000000000A000000000000000000000000000000000000000000000 000000000000000000000000000000000000000     00000000                                                                                                                        000000000000000000
F0010000009291900001000090019362000013050500000000000000000201610200002001GENERAL SUPPLIES CIA LTDA                         D000000017391000000000000000000000100010010000000000000000000000F0010000009291900120161020000101 00000000000000000000000000000000000000000000000000000000000000000000000000000000000000000000000000000000000000000N 00000000000NCONT   00    00000000000          00000000000000000000000000000000000000000000 000000000000000A000000000000000000000000000000000000000000000 000000000000000000000000000000000000000     00000000                                                                                                                        000000000000000000
F0010000009291900002000090019362000041450500000000000000000201610200002001GENERAL SUPPLIES CIA LTDA                         C000000015630000000000000000000000100010010000000000000000000000F0010000009291900220161020000101 00000000000000000000000000000000000000000000000000000000000000000000000000000000000000000000000000000000000000000N 00000000000NCONT   00    00000000000          00000000000000000000000000000000000000000000 000000000000000A000000000000000000000000000000000000000000000 000000000000000000000000000000000000000     00000000                                                                                                                        000000000000000000
F0010000009291900003000090019362000042505000000000000000000201610200002001GENERAL SUPPLIES CIA LTDA                         C000000001761000000000000000000000100010010000000000000000000000F0010000009291900320161020000101 00000000000000000000000000000000000000000000000000000000000000000000000000000000000000000000000000000000000000000N 00000000000NCONT   00    00000000000          00000000000000000000000000000000000000000000 000000000000000A000000000000000000000000000000000000000000000 000000000000000000000000000000000000000     00000000                                                                                                                        000000000000000000
F0010000009291900004000090019362000023658300000000000000000201610200002001GENERAL SUPPLIES CIA LTDA                         C000000000125000000000000000000000100010010000000000000000000000F0010000009291900420161020000101 00000000000000000000000000000000000000000000000000000000000000000000000000000000000000000000000000000000000000000N 00000000000NCONT   00    00000000000          00000000000000000000000000000000000000000000 000000000000000A000000000000000000000000000000000000000000000 000000000000000000000000000000000000000     00000000                                                                                                                        000000000000000000
F0010000009291900005000090019362000013552100000000000000000201610200002001GENERAL SUPPLIES CIA LTDA                         D000000000125000000000000000000000100010010000000000000000000000F0010000009291900520161020000101 00000000000000000000000000000000000000000000000000000000000000000000000000000000000000000000000000000000000000000N 00000000000NCONT   00    00000000000          00000000000000000000000000000000000000000000 000000000000000A000000000000000000000000000000000000000000000 000000000000000000000000000000000000000     00000000                                                                                                                        000000000000000000
F0010000009292000001000089010952800013050500000000000000000201610200002001IND. LITOGRAF. BOSTON S.A.S.                      D000000030780000000000000000000000100010010000000000000000000000F0010000009292000120161020000101 00000000000000000000000000000000000000000000000000000000000000000000000000000000000000000000000000000000000000000N 00000000000NCONT   00    00000000000          00000000000000000000000000000000000000000000 000000000000000A000000000000000000000000000000000000000000000 000000000000000000000000000000000000000     00000000                                                                                                                        000000000000000000
F0010000009292000002000089010952800041450500000000000000000201610200002001IND. LITOGRAF. BOSTON S.A.S.                      C000000027680000000000000000000000100010010000000000000000000000F0010000009292000220161020000101 00000000000000000000000000000000000000000000000000000000000000000000000000000000000000000000000000000000000000000N 00000000000NCONT   00    00000000000          00000000000000000000000000000000000000000000 000000000000000A000000000000000000000000000000000000000000000 000000000000000000000000000000000000000     00000000                                                                                                                        000000000000000000
F0010000009292000003000089010952800042505000000000000000000201610200002001IND. LITOGRAF. BOSTON S.A.S.                      C000000003100000000000000000000000100010010000000000000000000000F0010000009292000320161020000101 00000000000000000000000000000000000000000000000000000000000000000000000000000000000000000000000000000000000000000N 00000000000NCONT   00    00000000000          00000000000000000000000000000000000000000000 000000000000000A000000000000000000000000000000000000000000000 000000000000000000000000000000000000000     00000000                                                                                                                        000000000000000000
F0010000009292000004000089010952800023658300000000000000000201610200002001IND. LITOGRAF. BOSTON S.A.S.                      C000000000221400000000000000000000100010010000000000000000000000F0010000009292000420161020000101 00000000000000000000000000000000000000000000000000000000000000000000000000000000000000000000000000000000000000000N 00000000000NCONT   00    00000000000          00000000000000000000000000000000000000000000 000000000000000A000000000000000000000000000000000000000000000 000000000000000000000000000000000000000     00000000                                                                                                                        000000000000000000
F0010000009292000005000089010952800013552100000000000000000201610200002001IND. LITOGRAF. BOSTON S.A.S.                      D000000000221400000000000000000000100010010000000000000000000000F0010000009292000520161020000101 00000000000000000000000000000000000000000000000000000000000000000000000000000000000000000000000000000000000000000N 00000000000NCONT   00    00000000000          00000000000000000000000000000000000000000000 000000000000000A000000000000000000000000000000000000000000000 000000000000000000000000000000000000000     00000000                                                                                                                        000000000000000000
F0010000009292100001000090001973700013050500000000000000000201610200002001DISTRIBUIDORA Y PAPELERIA VENEPLAS LTDA           D000000014550000000000000000000000100010010000000000000000000000F0010000009292100120161020000101 00000000000000000000000000000000000000000000000000000000000000000000000000000000000000000000000000000000000000000N 00000000000NCONT   00    00000000000          00000000000000000000000000000000000000000000 000000000000000A000000000000000000000000000000000000000000000 000000000000000000000000000000000000000     00000000                                                                                                                        000000000000000000
F0010000009292100002000090001973700041450500000000000000000201610200002001DISTRIBUIDORA Y PAPELERIA VENEPLAS LTDA           C000000014400000000000000000000000100010010000000000000000000000F0010000009292100220161020000101 00000000000000000000000000000000000000000000000000000000000000000000000000000000000000000000000000000000000000000N 00000000000NCONT   00    00000000000          00000000000000000000000000000000000000000000 000000000000000A000000000000000000000000000000000000000000000 000000000000000000000000000000000000000     00000000                                                                                                                        000000000000000000
