F0010000010795900001000090040052500011050500000000000000000201712110002001COMERCIALIZADORA INTERNACIONAL RAFF S.A.S. SIGLA RD000000001700000000000000000000000100010010000000000000000000000F0010000010795900120171211000101 00000000000000000000000000000000000000000000000000000000000000000000000000000000000000000000000000000000000000000N 00000000000NCONT   00    00000000000          00000000000000000000000000000000000000000000 000000000000000A000000000000000000000000000000000000000000000 000000000000000000000000000000000000000     00000000                                                                                                                        000000000000000000
F0010000010795900002000090040052500041450500000000000000000201712110002001COMERCIALIZADORA INTERNACIONAL RAFF S.A.S. SIGLA RC000000001400000000000000000000000100010010000000000000000000000F0010000010795900220171211000101 00000000000000000000000000000000000000000000000000000000000000000000000000000000000000000000000000000000000000000N 00000000000NCONT   00    00000000000          00000000000000000000000000000000000000000000 000000000000000A000000000000000000000000000000000000000000000 000000000000000000000000000000000000000     00000000                                                                                                                        000000000000000000
F0010000010795900003000090040052500042505000000000000000000201712110002001COMERCIALIZADORA INTERNACIONAL RAFF S.A.S. SIGLA RC000000000300000000000000000000000100010010000000000000000000000F0010000010795900320171211000101 00000000000000000000000000000000000000000000000000000000000000000000000000000000000000000000000000000000000000000N 00000000000NCONT   00    00000000000          00000000000000000000000000000000000000000000 000000000000000A000000000000000000000000000000000000000000000 000000000000000000000000000000000000000     00000000                                                                                                                        000000000000000000
F0010000010795900004000090040052500023658300000000000000000201712110002001COMERCIALIZADORA INTERNACIONAL RAFF S.A.S. SIGLA RC000000000000000000000000000000000100010010000000000000000000000F0010000010795900420171211000101 00000000000000000000000000000000000000000000000000000000000000000000000000000000000000000000000000000000000000000N 00000000000NCONT   00    00000000000          00000000000000000000000000000000000000000000 000000000000000A000000000000000000000000000000000000000000000 000000000000000000000000000000000000000     00000000                                                                                                                        000000000000000000
F0010000010795900005000090040052500013552100000000000000000201712110002001COMERCIALIZADORA INTERNACIONAL RAFF S.A.S. SIGLA RD000000000000000000000000000000000100010010000000000000000000000F0010000010795900520171211000101 00000000000000000000000000000000000000000000000000000000000000000000000000000000000000000000000000000000000000000N 00000000000NCONT   00    00000000000          00000000000000000000000000000000000000000000 000000000000000A000000000000000000000000000000000000000000000 000000000000000000000000000000000000000     00000000                                                                                                                        000000000000000000
F0010000010796000001000080200624000011050500000000000000000201712110002001INCLICOL VALVULAS Y CONEXIONES                    D000000003500000000000000000000000100010010000000000000000000000F0010000010796000120171211000101 00000000000000000000000000000000000000000000000000000000000000000000000000000000000000000000000000000000000000000N 00000000000NCONT   00    00000000000          00000000000000000000000000000000000000000000 000000000000000A000000000000000000000000000000000000000000000 000000000000000000000000000000000000000     00000000                                                                                                                        000000000000000000
F0010000010796000002000080200624000041450500000000000000000201712110002001INCLICOL VALVULAS Y CONEXIONES                    C000000003400000000000000000000000100010010000000000000000000000F0010000010796000220171211000101 00000000000000000000000000000000000000000000000000000000000000000000000000000000000000000000000000000000000000000N 00000000000NCONT   00    00000000000          00000000000000000000000000000000000000000000 000000000000000A000000000000000000000000000000000000000000000 000000000000000000000000000000000000000     00000000                                                                                                                        000000000000000000
F0010000010796000003000080200624000042505000000000000000000201712110002001INCLICOL VALVULAS Y CONEXIONES                    C000000000100000000000000000000000100010010000000000000000000000F0010000010796000320171211000101 00000000000000000000000000000000000000000000000000000000000000000000000000000000000000000000000000000000000000000N 00000000000NCONT   00    00000000000          00000000000000000000000000000000000000000000 000000000000000A000000000000000000000000000000000000000000000 000000000000000000000000000000000000000     00000000                                                                                                                        000000000000000000
F0010000010796000004000080200624000023658300000000000000000201712110002001INCLICOL VALVULAS Y CONEXIONES                    C000000000000000000000000000000000100010010000000000000000000000F0010000010796000420171211000101 00000000000000000000000000000000000000000000000000000000000000000000000000000000000000000000000000000000000000000N 00000000000NCONT   00    00000000000          00000000000000000000000000000000000000000000 000000000000000A000000000000000000000000000000000000000000000 000000000000000000000000000000000000000     00000000                                                                                                                        000000000000000000
F0010000010796000005000080200624000013552100000000000000000201712110002001INCLICOL VALVULAS Y CONEXIONES                    D000000000000000000000000000000000100010010000000000000000000000F0010000010796000520171211000101 00000000000000000000000000000000000000000000000000000000000000000000000000000000000000000000000000000000000000000N 00000000000NCONT   00    00000000000          00000000000000000000000000000000000000000000 000000000000000A000000000000000000000000000000000000000000000 000000000000000000000000000000000000000     00000000                                                                                                                        000000000000000000
F0010000010796100001000003269129800011050500000000000000000201712110002001MARYOLIS MADARRIAGA                               D000000005000000000000000000000000100010010000000000000000000000F0010000010796100120171211000101 00000000000000000000000000000000000000000000000000000000000000000000000000000000000000000000000000000000000000000N 00000000000NCONT   00    00000000000          00000000000000000000000000000000000000000000 000000000000000A000000000000000000000000000000000000000000000 000000000000000000000000000000000000000     00000000                                                                                                                        000000000000000000
F0010000010796100002000003269129800041450500000000000000000201712110002001MARYOLIS MADARRIAGA                               C000000004500000000000000000000000100010010000000000000000000000F0010000010796100220171211000101 00000000000000000000000000000000000000000000000000000000000000000000000000000000000000000000000000000000000000000N 00000000000NCONT   00    00000000000          00000000000000000000000000000000000000000000 000000000000000A000000000000000000000000000000000000000000000 000000000000000000000000000000000000000     00000000                                                                                                                        000000000000000000
F0010000010796100003000003269129800042505000000000000000000201712110002001MARYOLIS MADARRIAGA                               C000000000500000000000000000000000100010010000000000000000000000F0010000010796100320171211000101 00000000000000000000000000000000000000000000000000000000000000000000000000000000000000000000000000000000000000000N 00000000000NCONT   00    00000000000          00000000000000000000000000000000000000000000 000000000000000A000000000000000000000000000000000000000000000 000000000000000000000000000000000000000     00000000                                                                                                                        000000000000000000
F0010000010796100004000003269129800023658300000000000000000201712110002001MARYOLIS MADARRIAGA                               C000000000000000000000000000000000100010010000000000000000000000F0010000010796100420171211000101 00000000000000000000000000000000000000000000000000000000000000000000000000000000000000000000000000000000000000000N 00000000000NCONT   00    00000000000          00000000000000000000000000000000000000000000 000000000000000A000000000000000000000000000000000000000000000 000000000000000000000000000000000000000     00000000                                                                                                                        000000000000000000
F0010000010796100005000003269129800013552100000000000000000201712110002001MARYOLIS MADARRIAGA                               D000000000000000000000000000000000100010010000000000000000000000F0010000010796100520171211000101 00000000000000000000000000000000000000000000000000000000000000000000000000000000000000000000000000000000000000000N 00000000000NCONT   00    00000000000          00000000000000000000000000000000000000000000 000000000000000A000000000000000000000000000000000000000000000 000000000000000000000000000000000000000     00000000                                                                                                                        000000000000000000
F0010000010796200001000083001155300013050500000000000000000201712110002001COMERCIALIZADORA RUBEN S LTDA                     D000000046569100000000000000000000100010010000000000000000000000F0010000010796200120171211000101 00000000000000000000000000000000000000000000000000000000000000000000000000000000000000000000000000000000000000000N 00000000000NCONT   00    00000000000          00000000000000000000000000000000000000000000 000000000000000A000000000000000000000000000000000000000000000 000000000000000000000000000000000000000     00000000                                                                                                                        000000000000000000
F0010000010796200002000083001155300041450500000000000000000201712110002001COMERCIALIZADORA RUBEN S LTDA                     C000000039290500000000000000000000100010010000000000000000000000F0010000010796200220171211000101 00000000000000000000000000000000000000000000000000000000000000000000000000000000000000000000000000000000000000000N 00000000000NCONT   00    00000000000          00000000000000000000000000000000000000000000 000000000000000A000000000000000000000000000000000000000000000 000000000000000000000000000000000000000     00000000                                                                                                                        000000000000000000
F0010000010796200003000083001155300042505000000000000000000201712110002001COMERCIALIZADORA RUBEN S LTDA                     C000000007278600000000000000000000100010010000000000000000000000F0010000010796200320171211000101 00000000000000000000000000000000000000000000000000000000000000000000000000000000000000000000000000000000000000000N 00000000000NCONT   00    00000000000          00000000000000000000000000000000000000000000 000000000000000A000000000000000000000000000000000000000000000 000000000000000000000000000000000000000     00000000                                                                                                                        000000000000000000
F0010000010796200004000083001155300023658300000000000000000201712110002001COMERCIALIZADORA RUBEN S LTDA                     C000000000000000000000000000000000100010010000000000000000000000F0010000010796200420171211000101 00000000000000000000000000000000000000000000000000000000000000000000000000000000000000000000000000000000000000000N 00000000000NCONT   00    00000000000          00000000000000000000000000000000000000000000 000000000000000A000000000000000000000000000000000000000000000 000000000000000000000000000000000000000     00000000                                                                                                                        000000000000000000
F0010000010796200005000083001155300013552100000000000000000201712110002001COMERCIALIZADORA RUBEN S LTDA                     D000000000000000000000000000000000100010010000000000000000000000F0010000010796200520171211000101 00000000000000000000000000000000000000000000000000000000000000000000000000000000000000000000000000000000000000000N 00000000000NCONT   00    00000000000          00000000000000000000000000000000000000000000 000000000000000A000000000000000000000000000000000000000000000 000000000000000000000000000000000000000     00000000                                                                                                                        000000000000000000
F0010000010796300001000000871714900013050500000000000000000201712110002001ROLNAN DE LA ROSA  INSIGNARES                     D000000010734000000000000000000000100010010000000000000000000000F0010000010796300120171211000101 00000000000000000000000000000000000000000000000000000000000000000000000000000000000000000000000000000000000000000N 00000000000NCONT   00    00000000000          00000000000000000000000000000000000000000000 000000000000000A000000000000000000000000000000000000000000000 000000000000000000000000000000000000000     00000000                                                                                                                        000000000000000000
F0010000010796300002000000871714900041450500000000000000000201712110002001ROLNAN DE LA ROSA  INSIGNARES                     C000000008694000000000000000000000100010010000000000000000000000F0010000010796300220171211000101 00000000000000000000000000000000000000000000000000000000000000000000000000000000000000000000000000000000000000000N 00000000000NCONT   00    00000000000          00000000000000000000000000000000000000000000 000000000000000A000000000000000000000000000000000000000000000 000000000000000000000000000000000000000     00000000                                                                                                                        000000000000000000
F0010000010796300003000000871714900042505000000000000000000201712110002001ROLNAN DE LA ROSA  INSIGNARES                     C000000002040000000000000000000000100010010000000000000000000000F0010000010796300320171211000101 00000000000000000000000000000000000000000000000000000000000000000000000000000000000000000000000000000000000000000N 00000000000NCONT   00    00000000000          00000000000000000000000000000000000000000000 000000000000000A000000000000000000000000000000000000000000000 000000000000000000000000000000000000000     00000000                                                                                                                        000000000000000000
F0010000010796300004000000871714900023658300000000000000000201712110002001ROLNAN DE LA ROSA  INSIGNARES                     C000000000000000000000000000000000100010010000000000000000000000F0010000010796300420171211000101 00000000000000000000000000000000000000000000000000000000000000000000000000000000000000000000000000000000000000000N 00000000000NCONT   00    00000000000          00000000000000000000000000000000000000000000 000000000000000A000000000000000000000000000000000000000000000 000000000000000000000000000000000000000     00000000                                                                                                                        000000000000000000
F0010000010796300005000000871714900013552100000000000000000201712110002001ROLNAN DE LA ROSA  INSIGNARES                     D000000000000000000000000000000000100010010000000000000000000000F0010000010796300520171211000101 00000000000000000000000000000000000000000000000000000000000000000000000000000000000000000000000000000000000000000N 00000000000NCONT   00    00000000000          00000000000000000000000000000000000000000000 000000000000000A000000000000000000000000000000000000000000000 000000000000000000000000000000000000000     00000000                                                                                                                        000000000000000000
F0010000010796400001000090049854300013050500000000000000000201712110002001TRAPOS INDUSTRIALES DE COLOMBIA SAS               D000000009020000000000000000000000100010010000000000000000000000F0010000010796400120171211000101 00000000000000000000000000000000000000000000000000000000000000000000000000000000000000000000000000000000000000000N 00000000000NCONT   00    00000000000          00000000000000000000000000000000000000000000 000000000000000A000000000000000000000000000000000000000000000 000000000000000000000000000000000000000     00000000                                                                                                                        000000000000000000
F0010000010796400002000090049854300041450500000000000000000201712110002001TRAPOS INDUSTRIALES DE COLOMBIA SAS               C000000008000000000000000000000000100010010000000000000000000000F0010000010796400220171211000101 00000000000000000000000000000000000000000000000000000000000000000000000000000000000000000000000000000000000000000N 00000000000NCONT   00    00000000000          00000000000000000000000000000000000000000000 000000000000000A000000000000000000000000000000000000000000000 000000000000000000000000000000000000000     00000000                                                                                                                        000000000000000000
F0010000010796400003000090049854300042505000000000000000000201712110002001TRAPOS INDUSTRIALES DE COLOMBIA SAS               C000000001020000000000000000000000100010010000000000000000000000F0010000010796400320171211000101 00000000000000000000000000000000000000000000000000000000000000000000000000000000000000000000000000000000000000000N 00000000000NCONT   00    00000000000          00000000000000000000000000000000000000000000 000000000000000A000000000000000000000000000000000000000000000 000000000000000000000000000000000000000     00000000                                                                                                                        000000000000000000
F0010000010796400004000090049854300023658300000000000000000201712110002001TRAPOS INDUSTRIALES DE COLOMBIA SAS               C000000000000000000000000000000000100010010000000000000000000000F0010000010796400420171211000101 00000000000000000000000000000000000000000000000000000000000000000000000000000000000000000000000000000000000000000N 00000000000NCONT   00    00000000000          00000000000000000000000000000000000000000000 000000000000000A000000000000000000000000000000000000000000000 000000000000000000000000000000000000000     00000000                                                                                                                        000000000000000000
F0010000010796400005000090049854300013552100000000000000000201712110002001TRAPOS INDUSTRIALES DE COLOMBIA SAS               D000000000000000000000000000000000100010010000000000000000000000F0010000010796400520171211000101 00000000000000000000000000000000000000000000000000000000000000000000000000000000000000000000000000000000000000000N 00000000000NCONT   00    00000000000          00000000000000000000000000000000000000000000 000000000000000A000000000000000000000000000000000000000000000 000000000000000000000000000000000000000     00000000                                                                                                                        000000000000000000
F0010000010796500001000080016664500013050500000000000000000201712110002001TELAPLAS PANCER SAS                               D000000051042900000000000000000000100010010000000000000000000000F0010000010796500120171211000101 00000000000000000000000000000000000000000000000000000000000000000000000000000000000000000000000000000000000000000N 00000000000NCONT   00    00000000000          00000000000000000000000000000000000000000000 000000000000000A000000000000000000000000000000000000000000000 000000000000000000000000000000000000000     00000000                                                                                                                        000000000000000000
F0010000010796500002000080016664500041450500000000000000000201712110002001TELAPLAS PANCER SAS                               C000000044460900000000000000000000100010010000000000000000000000F0010000010796500220171211000101 00000000000000000000000000000000000000000000000000000000000000000000000000000000000000000000000000000000000000000N 00000000000NCONT   00    00000000000          00000000000000000000000000000000000000000000 000000000000000A000000000000000000000000000000000000000000000 000000000000000000000000000000000000000     00000000                                                                                                                        000000000000000000
F0010000010796500003000080016664500042505000000000000000000201712110002001TELAPLAS PANCER SAS                               C000000006582000000000000000000000100010010000000000000000000000F0010000010796500320171211000101 00000000000000000000000000000000000000000000000000000000000000000000000000000000000000000000000000000000000000000N 00000000000NCONT   00    00000000000          00000000000000000000000000000000000000000000 000000000000000A000000000000000000000000000000000000000000000 000000000000000000000000000000000000000     00000000                                                                                                                        000000000000000000
F0010000010796500004000080016664500023658300000000000000000201712110002001TELAPLAS PANCER SAS                               C000000000000000000000000000000000100010010000000000000000000000F0010000010796500420171211000101 00000000000000000000000000000000000000000000000000000000000000000000000000000000000000000000000000000000000000000N 00000000000NCONT   00    00000000000          00000000000000000000000000000000000000000000 000000000000000A000000000000000000000000000000000000000000000 000000000000000000000000000000000000000     00000000                                                                                                                        000000000000000000
F0010000010796500005000080016664500013552100000000000000000201712110002001TELAPLAS PANCER SAS                               D000000000000000000000000000000000100010010000000000000000000000F0010000010796500520171211000101 00000000000000000000000000000000000000000000000000000000000000000000000000000000000000000000000000000000000000000N 00000000000NCONT   00    00000000000          00000000000000000000000000000000000000000000 000000000000000A000000000000000000000000000000000000000000000 000000000000000000000000000000000000000     00000000                                                                                                                        000000000000000000
F0010000010796600001000090060531100013050500000000000000000201712110002001RECUBRIMIENTOS ESENCIALES SAS                     D000000207732700000000000000000000100010010000000000000000000000F0010000010796600120171211000101 00000000000000000000000000000000000000000000000000000000000000000000000000000000000000000000000000000000000000000N 00000000000NCONT   00    00000000000          00000000000000000000000000000000000000000000 000000000000000A000000000000000000000000000000000000000000000 000000000000000000000000000000000000000     00000000                                                                                                                        000000000000000000
F0010000010796600002000090060531100041450500000000000000000201712110002001RECUBRIMIENTOS ESENCIALES SAS                     C000000199820000000000000000000000100010010000000000000000000000F0010000010796600220171211000101 00000000000000000000000000000000000000000000000000000000000000000000000000000000000000000000000000000000000000000N 00000000000NCONT   00    00000000000          00000000000000000000000000000000000000000000 000000000000000A000000000000000000000000000000000000000000000 000000000000000000000000000000000000000     00000000                                                                                                                        000000000000000000
F0010000010796600003000090060531100042505000000000000000000201712110002001RECUBRIMIENTOS ESENCIALES SAS                     C000000007912700000000000000000000100010010000000000000000000000F0010000010796600320171211000101 00000000000000000000000000000000000000000000000000000000000000000000000000000000000000000000000000000000000000000N 00000000000NCONT   00    00000000000          00000000000000000000000000000000000000000000 000000000000000A000000000000000000000000000000000000000000000 000000000000000000000000000000000000000     00000000                                                                                                                        000000000000000000
F0010000010796600004000090060531100023658300000000000000000201712110002001RECUBRIMIENTOS ESENCIALES SAS                     C000000000000000000000000000000000100010010000000000000000000000F0010000010796600420171211000101 00000000000000000000000000000000000000000000000000000000000000000000000000000000000000000000000000000000000000000N 00000000000NCONT   00    00000000000          00000000000000000000000000000000000000000000 000000000000000A000000000000000000000000000000000000000000000 000000000000000000000000000000000000000     00000000                                                                                                                        000000000000000000
F0010000010796600005000090060531100013552100000000000000000201712110002001RECUBRIMIENTOS ESENCIALES SAS                     D000000000000000000000000000000000100010010000000000000000000000F0010000010796600520171211000101 00000000000000000000000000000000000000000000000000000000000000000000000000000000000000000000000000000000000000000N 00000000000NCONT   00    00000000000          00000000000000000000000000000000000000000000 000000000000000A000000000000000000000000000000000000000000000 000000000000000000000000000000000000000     00000000                                                                                                                        000000000000000000
F0010000010796700001000086000490200013050500000000000000000201712110002001PROV. DE PAPELES ANDINA S.A.                      D000000092191900000000000000000000100010010000000000000000000000F0010000010796700120171211000101 00000000000000000000000000000000000000000000000000000000000000000000000000000000000000000000000000000000000000000N 00000000000NCONT   00    00000000000          00000000000000000000000000000000000000000000 000000000000000A000000000000000000000000000000000000000000000 000000000000000000000000000000000000000     00000000                                                                                                                        000000000000000000
F0010000010796700002000086000490200041450500000000000000000201712110002001PROV. DE PAPELES ANDINA S.A.                      C000000084912400000000000000000000100010010000000000000000000000F0010000010796700220171211000101 00000000000000000000000000000000000000000000000000000000000000000000000000000000000000000000000000000000000000000N 00000000000NCONT   00    00000000000          00000000000000000000000000000000000000000000 000000000000000A000000000000000000000000000000000000000000000 000000000000000000000000000000000000000     00000000                                                                                                                        000000000000000000
F0010000010796700003000086000490200042505000000000000000000201712110002001PROV. DE PAPELES ANDINA S.A.                      C000000007279500000000000000000000100010010000000000000000000000F0010000010796700320171211000101 00000000000000000000000000000000000000000000000000000000000000000000000000000000000000000000000000000000000000000N 00000000000NCONT   00    00000000000          00000000000000000000000000000000000000000000 000000000000000A000000000000000000000000000000000000000000000 000000000000000000000000000000000000000     00000000                                                                                                                        000000000000000000
F0010000010796700004000086000490200023658300000000000000000201712110002001PROV. DE PAPELES ANDINA S.A.                      C000000000000000000000000000000000100010010000000000000000000000F0010000010796700420171211000101 00000000000000000000000000000000000000000000000000000000000000000000000000000000000000000000000000000000000000000N 00000000000NCONT   00    00000000000          00000000000000000000000000000000000000000000 000000000000000A000000000000000000000000000000000000000000000 000000000000000000000000000000000000000     00000000                                                                                                                        000000000000000000
F0010000010796700005000086000490200013552100000000000000000201712110002001PROV. DE PAPELES ANDINA S.A.                      D000000000000000000000000000000000100010010000000000000000000000F0010000010796700520171211000101 00000000000000000000000000000000000000000000000000000000000000000000000000000000000000000000000000000000000000000N 00000000000NCONT   00    00000000000          00000000000000000000000000000000000000000000 000000000000000A000000000000000000000000000000000000000000000 000000000000000000000000000000000000000     00000000                                                                                                                        000000000000000000
F0010000010796800001000090009800500013050500000000000000000201712110002001GLORIANT CHEMICHALS DE COLOMBIA LTDA              D000000070430000000000000000000000100010010000000000000000000000F0010000010796800120171211000101 00000000000000000000000000000000000000000000000000000000000000000000000000000000000000000000000000000000000000000N 00000000000NCONT   00    00000000000          00000000000000000000000000000000000000000000 000000000000000A000000000000000000000000000000000000000000000 000000000000000000000000000000000000000     00000000                                                                                                                        000000000000000000
F0010000010796800002000090009800500041450500000000000000000201712110002001GLORIANT CHEMICHALS DE COLOMBIA LTDA              C000000060800000000000000000000000100010010000000000000000000000F0010000010796800220171211000101 00000000000000000000000000000000000000000000000000000000000000000000000000000000000000000000000000000000000000000N 00000000000NCONT   00    00000000000          00000000000000000000000000000000000000000000 000000000000000A000000000000000000000000000000000000000000000 000000000000000000000000000000000000000     00000000                                                                                                                        000000000000000000
F0010000010796800003000090009800500042505000000000000000000201712110002001GLORIANT CHEMICHALS DE COLOMBIA LTDA              C000000009630000000000000000000000100010010000000000000000000000F0010000010796800320171211000101 00000000000000000000000000000000000000000000000000000000000000000000000000000000000000000000000000000000000000000N 00000000000NCONT   00    00000000000          00000000000000000000000000000000000000000000 000000000000000A000000000000000000000000000000000000000000000 000000000000000000000000000000000000000     00000000                                                                                                                        000000000000000000
F0010000010796800004000090009800500023658300000000000000000201712110002001GLORIANT CHEMICHALS DE COLOMBIA LTDA              C000000000000000000000000000000000100010010000000000000000000000F0010000010796800420171211000101 00000000000000000000000000000000000000000000000000000000000000000000000000000000000000000000000000000000000000000N 00000000000NCONT   00    00000000000          00000000000000000000000000000000000000000000 000000000000000A000000000000000000000000000000000000000000000 000000000000000000000000000000000000000     00000000                                                                                                                        000000000000000000
F0010000010796800005000090009800500013552100000000000000000201712110002001GLORIANT CHEMICHALS DE COLOMBIA LTDA              D000000000000000000000000000000000100010010000000000000000000000F0010000010796800520171211000101 00000000000000000000000000000000000000000000000000000000000000000000000000000000000000000000000000000000000000000N 00000000000NCONT   00    00000000000          00000000000000000000000000000000000000000000 000000000000000A000000000000000000000000000000000000000000000 000000000000000000000000000000000000000     00000000                                                                                                                        000000000000000000
F0010000010796900001000080002300200013050500000000000000000201712110002001DISREL S.A.                                       D000000010000000000000000000000000100010010000000000000000000000F0010000010796900120171211000101 00000000000000000000000000000000000000000000000000000000000000000000000000000000000000000000000000000000000000000N 00000000000NCONT   00    00000000000          00000000000000000000000000000000000000000000 000000000000000A000000000000000000000000000000000000000000000 000000000000000000000000000000000000000     00000000                                                                                                                        000000000000000000
F0010000010796900002000080002300200041450500000000000000000201712110002001DISREL S.A.                                       C000000008000000000000000000000000100010010000000000000000000000F0010000010796900220171211000101 00000000000000000000000000000000000000000000000000000000000000000000000000000000000000000000000000000000000000000N 00000000000NCONT   00    00000000000          00000000000000000000000000000000000000000000 000000000000000A000000000000000000000000000000000000000000000 000000000000000000000000000000000000000     00000000                                                                                                                        000000000000000000
F0010000010796900003000080002300200042505000000000000000000201712110002001DISREL S.A.                                       C000000002000000000000000000000000100010010000000000000000000000F0010000010796900320171211000101 00000000000000000000000000000000000000000000000000000000000000000000000000000000000000000000000000000000000000000N 00000000000NCONT   00    00000000000          00000000000000000000000000000000000000000000 000000000000000A000000000000000000000000000000000000000000000 000000000000000000000000000000000000000     00000000                                                                                                                        000000000000000000
F0010000010796900004000080002300200023658300000000000000000201712110002001DISREL S.A.                                       C000000000000000000000000000000000100010010000000000000000000000F0010000010796900420171211000101 00000000000000000000000000000000000000000000000000000000000000000000000000000000000000000000000000000000000000000N 00000000000NCONT   00    00000000000          00000000000000000000000000000000000000000000 000000000000000A000000000000000000000000000000000000000000000 000000000000000000000000000000000000000     00000000                                                                                                                        000000000000000000
F0010000010796900005000080002300200013552100000000000000000201712110002001DISREL S.A.                                       D000000000000000000000000000000000100010010000000000000000000000F0010000010796900520171211000101 00000000000000000000000000000000000000000000000000000000000000000000000000000000000000000000000000000000000000000N 00000000000NCONT   00    00000000000          00000000000000000000000000000000000000000000 000000000000000A000000000000000000000000000000000000000000000 000000000000000000000000000000000000000     00000000                                                                                                                        000000000000000000
F0010000010797000001000002245670100013050500000000000000000201712110002001YOLANDA  TOBON                                    D000000028908000000000000000000000100010010000000000000000000000F0010000010797000120171211000101 00000000000000000000000000000000000000000000000000000000000000000000000000000000000000000000000000000000000000000N 00000000000NCONT   00    00000000000          00000000000000000000000000000000000000000000 000000000000000A000000000000000000000000000000000000000000000 000000000000000000000000000000000000000     00000000                                                                                                                        000000000000000000
F0010000010797000002000002245670100041450500000000000000000201712110002001YOLANDA  TOBON                                    C000000023060000000000000000000000100010010000000000000000000000F0010000010797000220171211000101 00000000000000000000000000000000000000000000000000000000000000000000000000000000000000000000000000000000000000000N 00000000000NCONT   00    00000000000          00000000000000000000000000000000000000000000 000000000000000A000000000000000000000000000000000000000000000 000000000000000000000000000000000000000     00000000                                                                                                                        000000000000000000
F0010000010797000003000002245670100042505000000000000000000201712110002001YOLANDA  TOBON                                    C000000005848000000000000000000000100010010000000000000000000000F0010000010797000320171211000101 00000000000000000000000000000000000000000000000000000000000000000000000000000000000000000000000000000000000000000N 00000000000NCONT   00    00000000000          00000000000000000000000000000000000000000000 000000000000000A000000000000000000000000000000000000000000000 000000000000000000000000000000000000000     00000000                                                                                                                        000000000000000000
F0010000010797000004000002245670100023658300000000000000000201712110002001YOLANDA  TOBON                                    C000000000000000000000000000000000100010010000000000000000000000F0010000010797000420171211000101 00000000000000000000000000000000000000000000000000000000000000000000000000000000000000000000000000000000000000000N 00000000000NCONT   00    00000000000          00000000000000000000000000000000000000000000 000000000000000A000000000000000000000000000000000000000000000 000000000000000000000000000000000000000     00000000                                                                                                                        000000000000000000
F0010000010797000005000002245670100013552100000000000000000201712110002001YOLANDA  TOBON                                    D000000000000000000000000000000000100010010000000000000000000000F0010000010797000520171211000101 00000000000000000000000000000000000000000000000000000000000000000000000000000000000000000000000000000000000000000N 00000000000NCONT   00    00000000000          00000000000000000000000000000000000000000000 000000000000000A000000000000000000000000000000000000000000000 000000000000000000000000000000000000000     00000000                                                                                                                        000000000000000000
F0010000010797100001000000748239700013050500000000000000000201712110002001RAFAEL NAVARRO URIBE                              D000000049207900000000000000000000100010010000000000000000000000F0010000010797100120171211000101 00000000000000000000000000000000000000000000000000000000000000000000000000000000000000000000000000000000000000000N 00000000000NCONT   00    00000000000          00000000000000000000000000000000000000000000 000000000000000A000000000000000000000000000000000000000000000 000000000000000000000000000000000000000     00000000                                                                                                                        000000000000000000
F0010000010797100002000000748239700041450500000000000000000201712110002001RAFAEL NAVARRO URIBE                              C000000034720000000000000000000000100010010000000000000000000000F0010000010797100220171211000101 00000000000000000000000000000000000000000000000000000000000000000000000000000000000000000000000000000000000000000N 00000000000NCONT   00    00000000000          00000000000000000000000000000000000000000000 000000000000000A000000000000000000000000000000000000000000000 000000000000000000000000000000000000000     00000000                                                                                                                        000000000000000000
F0010000010797100003000000748239700042505000000000000000000201712110002001RAFAEL NAVARRO URIBE                              C000000014487900000000000000000000100010010000000000000000000000F0010000010797100320171211000101 00000000000000000000000000000000000000000000000000000000000000000000000000000000000000000000000000000000000000000N 00000000000NCONT   00    00000000000          00000000000000000000000000000000000000000000 000000000000000A000000000000000000000000000000000000000000000 000000000000000000000000000000000000000     00000000                                                                                                                        000000000000000000
F0010000010797100004000000748239700023658300000000000000000201712110002001RAFAEL NAVARRO URIBE                              C000000000000000000000000000000000100010010000000000000000000000F0010000010797100420171211000101 00000000000000000000000000000000000000000000000000000000000000000000000000000000000000000000000000000000000000000N 00000000000NCONT   00    00000000000          00000000000000000000000000000000000000000000 000000000000000A000000000000000000000000000000000000000000000 000000000000000000000000000000000000000     00000000                                                                                                                        000000000000000000
F0010000010797100005000000748239700013552100000000000000000201712110002001RAFAEL NAVARRO URIBE                              D000000000000000000000000000000000100010010000000000000000000000F0010000010797100520171211000101 00000000000000000000000000000000000000000000000000000000000000000000000000000000000000000000000000000000000000000N 00000000000NCONT   00    00000000000          00000000000000000000000000000000000000000000 000000000000000A000000000000000000000000000000000000000000000 000000000000000000000000000000000000000     00000000                                                                                                                        000000000000000000
F0010000010797200001000090070305900013050500000000000000000201712110002001CONSTRUCCIONES Y ASOCIADOS DE LA COSTA            D000000012200000000000000000000000100010010000000000000000000000F0010000010797200120171211000101 00000000000000000000000000000000000000000000000000000000000000000000000000000000000000000000000000000000000000000N 00000000000NCONT   00    00000000000          00000000000000000000000000000000000000000000 000000000000000A000000000000000000000000000000000000000000000 000000000000000000000000000000000000000     00000000                                                                                                                        000000000000000000
F0010000010797200002000090070305900041450500000000000000000201712110002001CONSTRUCCIONES Y ASOCIADOS DE LA COSTA            C000000011700000000000000000000000100010010000000000000000000000F0010000010797200220171211000101 00000000000000000000000000000000000000000000000000000000000000000000000000000000000000000000000000000000000000000N 00000000000NCONT   00    00000000000          00000000000000000000000000000000000000000000 000000000000000A000000000000000000000000000000000000000000000 000000000000000000000000000000000000000     00000000                                                                                                                        000000000000000000
F0010000010797200003000090070305900042505000000000000000000201712110002001CONSTRUCCIONES Y ASOCIADOS DE LA COSTA            C000000000500000000000000000000000100010010000000000000000000000F0010000010797200320171211000101 00000000000000000000000000000000000000000000000000000000000000000000000000000000000000000000000000000000000000000N 00000000000NCONT   00    00000000000          00000000000000000000000000000000000000000000 000000000000000A000000000000000000000000000000000000000000000 000000000000000000000000000000000000000     00000000                                                                                                                        000000000000000000
F0010000010797200004000090070305900023658300000000000000000201712110002001CONSTRUCCIONES Y ASOCIADOS DE LA COSTA            C000000000000000000000000000000000100010010000000000000000000000F0010000010797200420171211000101 00000000000000000000000000000000000000000000000000000000000000000000000000000000000000000000000000000000000000000N 00000000000NCONT   00    00000000000          00000000000000000000000000000000000000000000 000000000000000A000000000000000000000000000000000000000000000 000000000000000000000000000000000000000     00000000                                                                                                                        000000000000000000
F0010000010797200005000090070305900013552100000000000000000201712110002001CONSTRUCCIONES Y ASOCIADOS DE LA COSTA            D000000000000000000000000000000000100010010000000000000000000000F0010000010797200520171211000101 00000000000000000000000000000000000000000000000000000000000000000000000000000000000000000000000000000000000000000N 00000000000NCONT   00    00000000000          00000000000000000000000000000000000000000000 000000000000000A000000000000000000000000000000000000000000000 000000000000000000000000000000000000000     00000000                                                                                                                        000000000000000000
F0010000010797300001000090069145000013050500000000000000000201712110002001TGV DE COLOMBIA SAS                               D000000077000000000000000000000000100010010000000000000000000000F0010000010797300120171211000101 00000000000000000000000000000000000000000000000000000000000000000000000000000000000000000000000000000000000000000N 00000000000NCONT   00    00000000000          00000000000000000000000000000000000000000000 000000000000000A000000000000000000000000000000000000000000000 000000000000000000000000000000000000000     00000000                                                                                                                        000000000000000000
F0010000010797300002000090069145000041450500000000000000000201712110002001TGV DE COLOMBIA SAS                               C000000076500000000000000000000000100010010000000000000000000000F0010000010797300220171211000101 00000000000000000000000000000000000000000000000000000000000000000000000000000000000000000000000000000000000000000N 00000000000NCONT   00    00000000000          00000000000000000000000000000000000000000000 000000000000000A000000000000000000000000000000000000000000000 000000000000000000000000000000000000000     00000000                                                                                                                        000000000000000000
F0010000010797300003000090069145000042505000000000000000000201712110002001TGV DE COLOMBIA SAS                               C000000000500000000000000000000000100010010000000000000000000000F0010000010797300320171211000101 00000000000000000000000000000000000000000000000000000000000000000000000000000000000000000000000000000000000000000N 00000000000NCONT   00    00000000000          00000000000000000000000000000000000000000000 000000000000000A000000000000000000000000000000000000000000000 000000000000000000000000000000000000000     00000000                                                                                                                        000000000000000000
F0010000010797300004000090069145000023658300000000000000000201712110002001TGV DE COLOMBIA SAS                               C000000000000000000000000000000000100010010000000000000000000000F0010000010797300420171211000101 00000000000000000000000000000000000000000000000000000000000000000000000000000000000000000000000000000000000000000N 00000000000NCONT   00    00000000000          00000000000000000000000000000000000000000000 000000000000000A000000000000000000000000000000000000000000000 000000000000000000000000000000000000000     00000000                                                                                                                        000000000000000000
F0010000010797300005000090069145000013552100000000000000000201712110002001TGV DE COLOMBIA SAS                               D000000000000000000000000000000000100010010000000000000000000000F0010000010797300520171211000101 00000000000000000000000000000000000000000000000000000000000000000000000000000000000000000000000000000000000000000N 00000000000NCONT   00    00000000000          00000000000000000000000000000000000000000000 000000000000000A000000000000000000000000000000000000000000000 000000000000000000000000000000000000000     00000000                                                                                                                        000000000000000000
F0010000010797600001000089080078800013050500000000000000000201712110002001SUMATEC S.A.                                      D000000003309000000000000000000000100010010000000000000000000000F0010000010797600120171211000101 00000000000000000000000000000000000000000000000000000000000000000000000000000000000000000000000000000000000000000N 00000000000NCONT   00    00000000000          00000000000000000000000000000000000000000000 000000000000000A000000000000000000000000000000000000000000000 000000000000000000000000000000000000000     00000000                                                                                                                        000000000000000000
F0010000010797600002000089080078800041450500000000000000000201712110002001SUMATEC S.A.                                      C000000003210000000000000000000000100010010000000000000000000000F0010000010797600220171211000101 00000000000000000000000000000000000000000000000000000000000000000000000000000000000000000000000000000000000000000N 00000000000NCONT   00    00000000000          00000000000000000000000000000000000000000000 000000000000000A000000000000000000000000000000000000000000000 000000000000000000000000000000000000000     00000000                                                                                                                        000000000000000000
F0010000010797600003000089080078800042505000000000000000000201712110002001SUMATEC S.A.                                      C000000000099000000000000000000000100010010000000000000000000000F0010000010797600320171211000101 00000000000000000000000000000000000000000000000000000000000000000000000000000000000000000000000000000000000000000N 00000000000NCONT   00    00000000000          00000000000000000000000000000000000000000000 000000000000000A000000000000000000000000000000000000000000000 000000000000000000000000000000000000000     00000000                                                                                                                        000000000000000000
F0010000010797600004000089080078800023658300000000000000000201712110002001SUMATEC S.A.                                      C000000000000000000000000000000000100010010000000000000000000000F0010000010797600420171211000101 00000000000000000000000000000000000000000000000000000000000000000000000000000000000000000000000000000000000000000N 00000000000NCONT   00    00000000000          00000000000000000000000000000000000000000000 000000000000000A000000000000000000000000000000000000000000000 000000000000000000000000000000000000000     00000000                                                                                                                        000000000000000000
F0010000010797600005000089080078800013552100000000000000000201712110002001SUMATEC S.A.                                      D000000000000000000000000000000000100010010000000000000000000000F0010000010797600520171211000101 00000000000000000000000000000000000000000000000000000000000000000000000000000000000000000000000000000000000000000N 00000000000NCONT   00    00000000000          00000000000000000000000000000000000000000000 000000000000000A000000000000000000000000000000000000000000000 000000000000000000000000000000000000000     00000000                                                                                                                        000000000000000000
F0010000010797700001000089080078800013050500000000000000000201712110002001SUMATEC SA                                        D000000006660000000000000000000000100010010000000000000000000000F0010000010797700120171211000101 00000000000000000000000000000000000000000000000000000000000000000000000000000000000000000000000000000000000000000N 00000000000NCONT   00    00000000000          00000000000000000000000000000000000000000000 000000000000000A000000000000000000000000000000000000000000000 000000000000000000000000000000000000000     00000000                                                                                                                        000000000000000000
F0010000010797700002000089080078800041450500000000000000000201712110002001SUMATEC SA                                        C000000006650000000000000000000000100010010000000000000000000000F0010000010797700220171211000101 00000000000000000000000000000000000000000000000000000000000000000000000000000000000000000000000000000000000000000N 00000000000NCONT   00    00000000000          00000000000000000000000000000000000000000000 000000000000000A000000000000000000000000000000000000000000000 000000000000000000000000000000000000000     00000000                                                                                                                        000000000000000000
F0010000010797700003000089080078800042505000000000000000000201712110002001SUMATEC SA                                        C000000000010000000000000000000000100010010000000000000000000000F0010000010797700320171211000101 00000000000000000000000000000000000000000000000000000000000000000000000000000000000000000000000000000000000000000N 00000000000NCONT   00    00000000000          00000000000000000000000000000000000000000000 000000000000000A000000000000000000000000000000000000000000000 000000000000000000000000000000000000000     00000000                                                                                                                        000000000000000000
F0010000010797700004000089080078800023658300000000000000000201712110002001SUMATEC SA                                        C000000000000000000000000000000000100010010000000000000000000000F0010000010797700420171211000101 00000000000000000000000000000000000000000000000000000000000000000000000000000000000000000000000000000000000000000N 00000000000NCONT   00    00000000000          00000000000000000000000000000000000000000000 000000000000000A000000000000000000000000000000000000000000000 000000000000000000000000000000000000000     00000000                                                                                                                        000000000000000000
F0010000010797700005000089080078800013552100000000000000000201712110002001SUMATEC SA                                        D000000000000000000000000000000000100010010000000000000000000000F0010000010797700520171211000101 00000000000000000000000000000000000000000000000000000000000000000000000000000000000000000000000000000000000000000N 00000000000NCONT   00    00000000000          00000000000000000000000000000000000000000000 000000000000000A000000000000000000000000000000000000000000000 000000000000000000000000000000000000000     00000000                                                                                                                        000000000000000000
F0010000010797800001000080201703900013050500000000000000000201712110002001MUNDIAL CHEMICAL LTDA                             D000000001140000000000000000000000100010010000000000000000000000F0010000010797800120171211000101 00000000000000000000000000000000000000000000000000000000000000000000000000000000000000000000000000000000000000000N 00000000000NCONT   00    00000000000          00000000000000000000000000000000000000000000 000000000000000A000000000000000000000000000000000000000000000 000000000000000000000000000000000000000     00000000                                                                                                                        000000000000000000
F0010000010797800002000080201703900041450500000000000000000201712110002001MUNDIAL CHEMICAL LTDA                             C000000001000000000000000000000000100010010000000000000000000000F0010000010797800220171211000101 00000000000000000000000000000000000000000000000000000000000000000000000000000000000000000000000000000000000000000N 00000000000NCONT   00    00000000000          00000000000000000000000000000000000000000000 000000000000000A000000000000000000000000000000000000000000000 000000000000000000000000000000000000000     00000000                                                                                                                        000000000000000000
F0010000010797800003000080201703900042505000000000000000000201712110002001MUNDIAL CHEMICAL LTDA                             C000000000140000000000000000000000100010010000000000000000000000F0010000010797800320171211000101 00000000000000000000000000000000000000000000000000000000000000000000000000000000000000000000000000000000000000000N 00000000000NCONT   00    00000000000          00000000000000000000000000000000000000000000 000000000000000A000000000000000000000000000000000000000000000 000000000000000000000000000000000000000     00000000                                                                                                                        000000000000000000
F0010000010797800004000080201703900023658300000000000000000201712110002001MUNDIAL CHEMICAL LTDA                             C000000000000000000000000000000000100010010000000000000000000000F0010000010797800420171211000101 00000000000000000000000000000000000000000000000000000000000000000000000000000000000000000000000000000000000000000N 00000000000NCONT   00    00000000000          00000000000000000000000000000000000000000000 000000000000000A000000000000000000000000000000000000000000000 000000000000000000000000000000000000000     00000000                                                                                                                        000000000000000000
F0010000010797800005000080201703900013552100000000000000000201712110002001MUNDIAL CHEMICAL LTDA                             D000000000000000000000000000000000100010010000000000000000000000F0010000010797800520171211000101 00000000000000000000000000000000000000000000000000000000000000000000000000000000000000000000000000000000000000000N 00000000000NCONT   00    00000000000          00000000000000000000000000000000000000000000 000000000000000A000000000000000000000000000000000000000000000 000000000000000000000000000000000000000     00000000                                                                                                                        000000000000000000
F0010000010797900001000080014190300013050500000000000000000201712110002001QUIMINSA LTDA                                     D000000007592800000000000000000000100010010000000000000000000000F0010000010797900120171211000101 00000000000000000000000000000000000000000000000000000000000000000000000000000000000000000000000000000000000000000N 00000000000NCONT   00    00000000000          00000000000000000000000000000000000000000000 000000000000000A000000000000000000000000000000000000000000000 000000000000000000000000000000000000000     00000000                                                                                                                        000000000000000000
F0010000010797900002000080014190300041450500000000000000000201712110002001QUIMINSA LTDA                                     C000000006260000000000000000000000100010010000000000000000000000F0010000010797900220171211000101 00000000000000000000000000000000000000000000000000000000000000000000000000000000000000000000000000000000000000000N 00000000000NCONT   00    00000000000          00000000000000000000000000000000000000000000 000000000000000A000000000000000000000000000000000000000000000 000000000000000000000000000000000000000     00000000                                                                                                                        000000000000000000
F0010000010797900003000080014190300042505000000000000000000201712110002001QUIMINSA LTDA                                     C000000001332800000000000000000000100010010000000000000000000000F0010000010797900320171211000101 00000000000000000000000000000000000000000000000000000000000000000000000000000000000000000000000000000000000000000N 00000000000NCONT   00    00000000000          00000000000000000000000000000000000000000000 000000000000000A000000000000000000000000000000000000000000000 000000000000000000000000000000000000000     00000000                                                                                                                        000000000000000000
F0010000010797900004000080014190300023658300000000000000000201712110002001QUIMINSA LTDA                                     C000000000000000000000000000000000100010010000000000000000000000F0010000010797900420171211000101 00000000000000000000000000000000000000000000000000000000000000000000000000000000000000000000000000000000000000000N 00000000000NCONT   00    00000000000          00000000000000000000000000000000000000000000 000000000000000A000000000000000000000000000000000000000000000 000000000000000000000000000000000000000     00000000                                                                                                                        000000000000000000
F0010000010797900005000080014190300013552100000000000000000201712110002001QUIMINSA LTDA                                     D000000000000000000000000000000000100010010000000000000000000000F0010000010797900520171211000101 00000000000000000000000000000000000000000000000000000000000000000000000000000000000000000000000000000000000000000N 00000000000NCONT   00    00000000000          00000000000000000000000000000000000000000000 000000000000000A000000000000000000000000000000000000000000000 000000000000000000000000000000000000000     00000000                                                                                                                        000000000000000000
F0010000010798000001000008822249400011050500000000000000000201712110002001ANDRES LEONARDO MEDINA                            D000000015000000000000000000000000100010010000000000000000000000F0010000010798000120171211000101 00000000000000000000000000000000000000000000000000000000000000000000000000000000000000000000000000000000000000000N 00000000000NCONT   00    00000000000          00000000000000000000000000000000000000000000 000000000000000A000000000000000000000000000000000000000000000 000000000000000000000000000000000000000     00000000                                                                                                                        000000000000000000
F0010000010798000002000008822249400041450500000000000000000201712110002001ANDRES LEONARDO MEDINA                            C000000014000000000000000000000000100010010000000000000000000000F0010000010798000220171211000101 00000000000000000000000000000000000000000000000000000000000000000000000000000000000000000000000000000000000000000N 00000000000NCONT   00    00000000000          00000000000000000000000000000000000000000000 000000000000000A000000000000000000000000000000000000000000000 000000000000000000000000000000000000000     00000000                                                                                                                        000000000000000000
F0010000010798000003000008822249400042505000000000000000000201712110002001ANDRES LEONARDO MEDINA                            C000000001000000000000000000000000100010010000000000000000000000F0010000010798000320171211000101 00000000000000000000000000000000000000000000000000000000000000000000000000000000000000000000000000000000000000000N 00000000000NCONT   00    00000000000          00000000000000000000000000000000000000000000 000000000000000A000000000000000000000000000000000000000000000 000000000000000000000000000000000000000     00000000                                                                                                                        000000000000000000
F0010000010798000004000008822249400023658300000000000000000201712110002001ANDRES LEONARDO MEDINA                            C000000000000000000000000000000000100010010000000000000000000000F0010000010798000420171211000101 00000000000000000000000000000000000000000000000000000000000000000000000000000000000000000000000000000000000000000N 00000000000NCONT   00    00000000000          00000000000000000000000000000000000000000000 000000000000000A000000000000000000000000000000000000000000000 000000000000000000000000000000000000000     00000000                                                                                                                        000000000000000000
F0010000010798000005000008822249400013552100000000000000000201712110002001ANDRES LEONARDO MEDINA                            D000000000000000000000000000000000100010010000000000000000000000F0010000010798000520171211000101 00000000000000000000000000000000000000000000000000000000000000000000000000000000000000000000000000000000000000000N 00000000000NCONT   00    00000000000          00000000000000000000000000000000000000000000 000000000000000A000000000000000000000000000000000000000000000 000000000000000000000000000000000000000     00000000                                                                                                                        000000000000000000
F0010000010798100001000000091780800013050500000000000000000201712110002001ITALO RENE HERAZO CARCAMO /CENTRAL DE TORNILLOS   D000000012520000000000000000000000100010010000000000000000000000F0010000010798100120171211000101 00000000000000000000000000000000000000000000000000000000000000000000000000000000000000000000000000000000000000000N 00000000000NCONT   00    00000000000          00000000000000000000000000000000000000000000 000000000000000A000000000000000000000000000000000000000000000 000000000000000000000000000000000000000     00000000                                                                                                                        000000000000000000
F0010000010798100002000000091780800041450500000000000000000201712110002001ITALO RENE HERAZO CARCAMO /CENTRAL DE TORNILLOS   C000000011620000000000000000000000100010010000000000000000000000F0010000010798100220171211000101 00000000000000000000000000000000000000000000000000000000000000000000000000000000000000000000000000000000000000000N 00000000000NCONT   00    00000000000          00000000000000000000000000000000000000000000 000000000000000A000000000000000000000000000000000000000000000 000000000000000000000000000000000000000     00000000                                                                                                                        000000000000000000
F0010000010798100003000000091780800042505000000000000000000201712110002001ITALO RENE HERAZO CARCAMO /CENTRAL DE TORNILLOS   C000000000900000000000000000000000100010010000000000000000000000F0010000010798100320171211000101 00000000000000000000000000000000000000000000000000000000000000000000000000000000000000000000000000000000000000000N 00000000000NCONT   00    00000000000          00000000000000000000000000000000000000000000 000000000000000A000000000000000000000000000000000000000000000 000000000000000000000000000000000000000     00000000                                                                                                                        000000000000000000
F0010000010798100004000000091780800023658300000000000000000201712110002001ITALO RENE HERAZO CARCAMO /CENTRAL DE TORNILLOS   C000000000000000000000000000000000100010010000000000000000000000F0010000010798100420171211000101 00000000000000000000000000000000000000000000000000000000000000000000000000000000000000000000000000000000000000000N 00000000000NCONT   00    00000000000          00000000000000000000000000000000000000000000 000000000000000A000000000000000000000000000000000000000000000 000000000000000000000000000000000000000     00000000                                                                                                                        000000000000000000
F0010000010798100005000000091780800013552100000000000000000201712110002001ITALO RENE HERAZO CARCAMO /CENTRAL DE TORNILLOS   D000000000000000000000000000000000100010010000000000000000000000F0010000010798100520171211000101 00000000000000000000000000000000000000000000000000000000000000000000000000000000000000000000000000000000000000000N 00000000000NCONT   00    00000000000          00000000000000000000000000000000000000000000 000000000000000A000000000000000000000000000000000000000000000 000000000000000000000000000000000000000     00000000                                                                                                                        000000000000000000
F0010000010798200001000080201112800013050500000000000000000201712110002001CANGURO INTERNATIONAL S.A.                        D000000055597300000000000000000000100010010000000000000000000000F0010000010798200120171211000101 00000000000000000000000000000000000000000000000000000000000000000000000000000000000000000000000000000000000000000N 00000000000NCONT   00    00000000000          00000000000000000000000000000000000000000000 000000000000000A000000000000000000000000000000000000000000000 000000000000000000000000000000000000000     00000000                                                                                                                        000000000000000000
F0010000010798200002000080201112800041450500000000000000000201712110002001CANGURO INTERNATIONAL S.A.                        C000000055597300000000000000000000100010010000000000000000000000F0010000010798200220171211000101 00000000000000000000000000000000000000000000000000000000000000000000000000000000000000000000000000000000000000000N 00000000000NCONT   00    00000000000          00000000000000000000000000000000000000000000 000000000000000A000000000000000000000000000000000000000000000 000000000000000000000000000000000000000     00000000                                                                                                                        000000000000000000
F0010000010798200003000080201112800042505000000000000000000201712110002001CANGURO INTERNATIONAL S.A.                        C000000000000000000000000000000000100010010000000000000000000000F0010000010798200320171211000101 00000000000000000000000000000000000000000000000000000000000000000000000000000000000000000000000000000000000000000N 00000000000NCONT   00    00000000000          00000000000000000000000000000000000000000000 000000000000000A000000000000000000000000000000000000000000000 000000000000000000000000000000000000000     00000000                                                                                                                        000000000000000000
F0010000010798200004000080201112800023658300000000000000000201712110002001CANGURO INTERNATIONAL S.A.                        C000000000000000000000000000000000100010010000000000000000000000F0010000010798200420171211000101 00000000000000000000000000000000000000000000000000000000000000000000000000000000000000000000000000000000000000000N 00000000000NCONT   00    00000000000          00000000000000000000000000000000000000000000 000000000000000A000000000000000000000000000000000000000000000 000000000000000000000000000000000000000     00000000                                                                                                                        000000000000000000
F0010000010798200005000080201112800013552100000000000000000201712110002001CANGURO INTERNATIONAL S.A.                        D000000000000000000000000000000000100010010000000000000000000000F0010000010798200520171211000101 00000000000000000000000000000000000000000000000000000000000000000000000000000000000000000000000000000000000000000N 00000000000NCONT   00    00000000000          00000000000000000000000000000000000000000000 000000000000000A000000000000000000000000000000000000000000000 000000000000000000000000000000000000000     00000000                                                                                                                        000000000000000000
F0010000010798300001000080200069100013050500000000000000000201712110002001PEGANTES Y PINTURAS ATLAS LTDA                    D000000016730000000000000000000000100010010000000000000000000000F0010000010798300120171211000101 00000000000000000000000000000000000000000000000000000000000000000000000000000000000000000000000000000000000000000N 00000000000NCONT   00    00000000000          00000000000000000000000000000000000000000000 000000000000000A000000000000000000000000000000000000000000000 000000000000000000000000000000000000000     00000000                                                                                                                        000000000000000000
F0010000010798300002000080200069100041450500000000000000000201712110002001PEGANTES Y PINTURAS ATLAS LTDA                    C000000014520000000000000000000000100010010000000000000000000000F0010000010798300220171211000101 00000000000000000000000000000000000000000000000000000000000000000000000000000000000000000000000000000000000000000N 00000000000NCONT   00    00000000000          00000000000000000000000000000000000000000000 000000000000000A000000000000000000000000000000000000000000000 000000000000000000000000000000000000000     00000000                                                                                                                        000000000000000000
F0010000010798300003000080200069100042505000000000000000000201712110002001PEGANTES Y PINTURAS ATLAS LTDA                    C000000002210000000000000000000000100010010000000000000000000000F0010000010798300320171211000101 00000000000000000000000000000000000000000000000000000000000000000000000000000000000000000000000000000000000000000N 00000000000NCONT   00    00000000000          00000000000000000000000000000000000000000000 000000000000000A000000000000000000000000000000000000000000000 000000000000000000000000000000000000000     00000000                                                                                                                        000000000000000000
F0010000010798300004000080200069100023658300000000000000000201712110002001PEGANTES Y PINTURAS ATLAS LTDA                    C000000000000000000000000000000000100010010000000000000000000000F0010000010798300420171211000101 00000000000000000000000000000000000000000000000000000000000000000000000000000000000000000000000000000000000000000N 00000000000NCONT   00    00000000000          00000000000000000000000000000000000000000000 000000000000000A000000000000000000000000000000000000000000000 000000000000000000000000000000000000000     00000000                                                                                                                        000000000000000000
F0010000010798300005000080200069100013552100000000000000000201712110002001PEGANTES Y PINTURAS ATLAS LTDA                    D000000000000000000000000000000000100010010000000000000000000000F0010000010798300520171211000101 00000000000000000000000000000000000000000000000000000000000000000000000000000000000000000000000000000000000000000N 00000000000NCONT   00    00000000000          00000000000000000000000000000000000000000000 000000000000000A000000000000000000000000000000000000000000000 000000000000000000000000000000000000000     00000000                                                                                                                        000000000000000000
F0010000010798400001000083007900600013050500000000000000000201712110002001EXPRESO ANDINO DE CARGA SA                        D000000022300000000000000000000000100010010000000000000000000000F0010000010798400120171211000101 00000000000000000000000000000000000000000000000000000000000000000000000000000000000000000000000000000000000000000N 00000000000NCONT   00    00000000000          00000000000000000000000000000000000000000000 000000000000000A000000000000000000000000000000000000000000000 000000000000000000000000000000000000000     00000000                                                                                                                        000000000000000000
F0010000010798400002000083007900600041450500000000000000000201712110002001EXPRESO ANDINO DE CARGA SA                        C000000021900000000000000000000000100010010000000000000000000000F0010000010798400220171211000101 00000000000000000000000000000000000000000000000000000000000000000000000000000000000000000000000000000000000000000N 00000000000NCONT   00    00000000000          00000000000000000000000000000000000000000000 000000000000000A000000000000000000000000000000000000000000000 000000000000000000000000000000000000000     00000000                                                                                                                        000000000000000000
F0010000010798400003000083007900600042505000000000000000000201712110002001EXPRESO ANDINO DE CARGA SA                        C000000000400000000000000000000000100010010000000000000000000000F0010000010798400320171211000101 00000000000000000000000000000000000000000000000000000000000000000000000000000000000000000000000000000000000000000N 00000000000NCONT   00    00000000000          00000000000000000000000000000000000000000000 000000000000000A000000000000000000000000000000000000000000000 000000000000000000000000000000000000000     00000000                                                                                                                        000000000000000000
F0010000010798400004000083007900600023658300000000000000000201712110002001EXPRESO ANDINO DE CARGA SA                        C000000000000000000000000000000000100010010000000000000000000000F0010000010798400420171211000101 00000000000000000000000000000000000000000000000000000000000000000000000000000000000000000000000000000000000000000N 00000000000NCONT   00    00000000000          00000000000000000000000000000000000000000000 000000000000000A000000000000000000000000000000000000000000000 000000000000000000000000000000000000000     00000000                                                                                                                        000000000000000000
F0010000010798400005000083007900600013552100000000000000000201712110002001EXPRESO ANDINO DE CARGA SA                        D000000000000000000000000000000000100010010000000000000000000000F0010000010798400520171211000101 00000000000000000000000000000000000000000000000000000000000000000000000000000000000000000000000000000000000000000N 00000000000NCONT   00    00000000000          00000000000000000000000000000000000000000000 000000000000000A000000000000000000000000000000000000000000000 000000000000000000000000000000000000000     00000000                                                                                                                        000000000000000000
F0010000010798500001000089010260300013050500000000000000000201712110002001FEDERICO OSORIO A. S.A.                           D000000105223300000000000000000000100010010000000000000000000000F0010000010798500120171211000101 00000000000000000000000000000000000000000000000000000000000000000000000000000000000000000000000000000000000000000N 00000000000NCONT   00    00000000000          00000000000000000000000000000000000000000000 000000000000000A000000000000000000000000000000000000000000000 000000000000000000000000000000000000000     00000000                                                                                                                        000000000000000000
F0010000010798500002000089010260300041450500000000000000000201712110002001FEDERICO OSORIO A. S.A.                           C000000099140000000000000000000000100010010000000000000000000000F0010000010798500220171211000101 00000000000000000000000000000000000000000000000000000000000000000000000000000000000000000000000000000000000000000N 00000000000NCONT   00    00000000000          00000000000000000000000000000000000000000000 000000000000000A000000000000000000000000000000000000000000000 000000000000000000000000000000000000000     00000000                                                                                                                        000000000000000000
F0010000010798500003000089010260300042505000000000000000000201712110002001FEDERICO OSORIO A. S.A.                           C000000006083300000000000000000000100010010000000000000000000000F0010000010798500320171211000101 00000000000000000000000000000000000000000000000000000000000000000000000000000000000000000000000000000000000000000N 00000000000NCONT   00    00000000000          00000000000000000000000000000000000000000000 000000000000000A000000000000000000000000000000000000000000000 000000000000000000000000000000000000000     00000000                                                                                                                        000000000000000000
F0010000010798500004000089010260300023658300000000000000000201712110002001FEDERICO OSORIO A. S.A.                           C000000000000000000000000000000000100010010000000000000000000000F0010000010798500420171211000101 00000000000000000000000000000000000000000000000000000000000000000000000000000000000000000000000000000000000000000N 00000000000NCONT   00    00000000000          00000000000000000000000000000000000000000000 000000000000000A000000000000000000000000000000000000000000000 000000000000000000000000000000000000000     00000000                                                                                                                        000000000000000000
F0010000010798500005000089010260300013552100000000000000000201712110002001FEDERICO OSORIO A. S.A.                           D000000000000000000000000000000000100010010000000000000000000000F0010000010798500520171211000101 00000000000000000000000000000000000000000000000000000000000000000000000000000000000000000000000000000000000000000N 00000000000NCONT   00    00000000000          00000000000000000000000000000000000000000000 000000000000000A000000000000000000000000000000000000000000000 000000000000000000000000000000000000000     00000000                                                                                                                        000000000000000000
F0010000010798600001000080201112800013050500000000000000000201712110002001CANGURO INTERNATIONAL S.A.                        D000000078249100000000000000000000100010010000000000000000000000F0010000010798600120171211000101 00000000000000000000000000000000000000000000000000000000000000000000000000000000000000000000000000000000000000000N 00000000000NCONT   00    00000000000          00000000000000000000000000000000000000000000 000000000000000A000000000000000000000000000000000000000000000 000000000000000000000000000000000000000     00000000                                                                                                                        000000000000000000
F0010000010798600002000080201112800041450500000000000000000201712110002001CANGURO INTERNATIONAL S.A.                        C000000077439800000000000000000000100010010000000000000000000000F0010000010798600220171211000101 00000000000000000000000000000000000000000000000000000000000000000000000000000000000000000000000000000000000000000N 00000000000NCONT   00    00000000000          00000000000000000000000000000000000000000000 000000000000000A000000000000000000000000000000000000000000000 000000000000000000000000000000000000000     00000000                                                                                                                        000000000000000000
F0010000010798600003000080201112800042505000000000000000000201712110002001CANGURO INTERNATIONAL S.A.                        C000000000809300000000000000000000100010010000000000000000000000F0010000010798600320171211000101 00000000000000000000000000000000000000000000000000000000000000000000000000000000000000000000000000000000000000000N 00000000000NCONT   00    00000000000          00000000000000000000000000000000000000000000 000000000000000A000000000000000000000000000000000000000000000 000000000000000000000000000000000000000     00000000                                                                                                                        000000000000000000
F0010000010798600004000080201112800023658300000000000000000201712110002001CANGURO INTERNATIONAL S.A.                        C000000000000000000000000000000000100010010000000000000000000000F0010000010798600420171211000101 00000000000000000000000000000000000000000000000000000000000000000000000000000000000000000000000000000000000000000N 00000000000NCONT   00    00000000000          00000000000000000000000000000000000000000000 000000000000000A000000000000000000000000000000000000000000000 000000000000000000000000000000000000000     00000000                                                                                                                        000000000000000000
F0010000010798600005000080201112800013552100000000000000000201712110002001CANGURO INTERNATIONAL S.A.                        D000000000000000000000000000000000100010010000000000000000000000F0010000010798600520171211000101 00000000000000000000000000000000000000000000000000000000000000000000000000000000000000000000000000000000000000000N 00000000000NCONT   00    00000000000          00000000000000000000000000000000000000000000 000000000000000A000000000000000000000000000000000000000000000 000000000000000000000000000000000000000     00000000                                                                                                                        000000000000000000
F0010000010798700001000080201112800013050500000000000000000201712110002001CANGURO INTERNATIONAL S.A.                        D000000008699600000000000000000000100010010000000000000000000000F0010000010798700120171211000101 00000000000000000000000000000000000000000000000000000000000000000000000000000000000000000000000000000000000000000N 00000000000NCONT   00    00000000000          00000000000000000000000000000000000000000000 000000000000000A000000000000000000000000000000000000000000000 000000000000000000000000000000000000000     00000000                                                                                                                        000000000000000000
F0010000010798700002000080201112800041450500000000000000000201712110002001CANGURO INTERNATIONAL S.A.                        C000000007260000000000000000000000100010010000000000000000000000F0010000010798700220171211000101 00000000000000000000000000000000000000000000000000000000000000000000000000000000000000000000000000000000000000000N 00000000000NCONT   00    00000000000          00000000000000000000000000000000000000000000 000000000000000A000000000000000000000000000000000000000000000 000000000000000000000000000000000000000     00000000                                                                                                                        000000000000000000
F0010000010798700003000080201112800042505000000000000000000201712110002001CANGURO INTERNATIONAL S.A.                        C000000001439600000000000000000000100010010000000000000000000000F0010000010798700320171211000101 00000000000000000000000000000000000000000000000000000000000000000000000000000000000000000000000000000000000000000N 00000000000NCONT   00    00000000000          00000000000000000000000000000000000000000000 000000000000000A000000000000000000000000000000000000000000000 000000000000000000000000000000000000000     00000000                                                                                                                        000000000000000000
F0010000010798700004000080201112800023658300000000000000000201712110002001CANGURO INTERNATIONAL S.A.                        C000000000000000000000000000000000100010010000000000000000000000F0010000010798700420171211000101 00000000000000000000000000000000000000000000000000000000000000000000000000000000000000000000000000000000000000000N 00000000000NCONT   00    00000000000          00000000000000000000000000000000000000000000 000000000000000A000000000000000000000000000000000000000000000 000000000000000000000000000000000000000     00000000                                                                                                                        000000000000000000
F0010000010798700005000080201112800013552100000000000000000201712110002001CANGURO INTERNATIONAL S.A.                        D000000000000000000000000000000000100010010000000000000000000000F0010000010798700520171211000101 00000000000000000000000000000000000000000000000000000000000000000000000000000000000000000000000000000000000000000N 00000000000NCONT   00    00000000000          00000000000000000000000000000000000000000000 000000000000000A000000000000000000000000000000000000000000000 000000000000000000000000000000000000000     00000000                                                                                                                        000000000000000000
F0010000010798800001000089011492400013050500000000000000000201712110002001AGE. CAUCHOSOL DE LA COSTA  SAS                   D000000114990800000000000000000000100010010000000000000000000000F0010000010798800120171211000101 00000000000000000000000000000000000000000000000000000000000000000000000000000000000000000000000000000000000000000N 00000000000NCONT   00    00000000000          00000000000000000000000000000000000000000000 000000000000000A000000000000000000000000000000000000000000000 000000000000000000000000000000000000000     00000000                                                                                                                        000000000000000000
F0010000010798800002000089011492400041450500000000000000000201712110002001AGE. CAUCHOSOL DE LA COSTA  SAS                   C000000058560000000000000000000000100010010000000000000000000000F0010000010798800220171211000101 00000000000000000000000000000000000000000000000000000000000000000000000000000000000000000000000000000000000000000N 00000000000NCONT   00    00000000000          00000000000000000000000000000000000000000000 000000000000000A000000000000000000000000000000000000000000000 000000000000000000000000000000000000000     00000000                                                                                                                        000000000000000000
F0010000010798800003000089011492400042505000000000000000000201712110002001AGE. CAUCHOSOL DE LA COSTA  SAS                   C000000056430800000000000000000000100010010000000000000000000000F0010000010798800320171211000101 00000000000000000000000000000000000000000000000000000000000000000000000000000000000000000000000000000000000000000N 00000000000NCONT   00    00000000000          00000000000000000000000000000000000000000000 000000000000000A000000000000000000000000000000000000000000000 000000000000000000000000000000000000000     00000000                                                                                                                        000000000000000000
F0010000010798800004000089011492400023658300000000000000000201712110002001AGE. CAUCHOSOL DE LA COSTA  SAS                   C000000000000000000000000000000000100010010000000000000000000000F0010000010798800420171211000101 00000000000000000000000000000000000000000000000000000000000000000000000000000000000000000000000000000000000000000N 00000000000NCONT   00    00000000000          00000000000000000000000000000000000000000000 000000000000000A000000000000000000000000000000000000000000000 000000000000000000000000000000000000000     00000000                                                                                                                        000000000000000000
F0010000010798800005000089011492400013552100000000000000000201712110002001AGE. CAUCHOSOL DE LA COSTA  SAS                   D000000000000000000000000000000000100010010000000000000000000000F0010000010798800520171211000101 00000000000000000000000000000000000000000000000000000000000000000000000000000000000000000000000000000000000000000N 00000000000NCONT   00    00000000000          00000000000000000000000000000000000000000000 000000000000000A000000000000000000000000000000000000000000000 000000000000000000000000000000000000000     00000000                                                                                                                        000000000000000000
F0010000010798900001000080202094000013050500000000000000000201712110002001DISTRIB. OMAR ORREGO S.A.                         D000000093819400000000000000000000100010010000000000000000000000F0010000010798900120171211000101 00000000000000000000000000000000000000000000000000000000000000000000000000000000000000000000000000000000000000000N 00000000000NCONT   00    00000000000          00000000000000000000000000000000000000000000 000000000000000A000000000000000000000000000000000000000000000 000000000000000000000000000000000000000     00000000                                                                                                                        000000000000000000
F0010000010798900002000080202094000041450500000000000000000201712110002001DISTRIB. OMAR ORREGO S.A.                         C000000054580000000000000000000000100010010000000000000000000000F0010000010798900220171211000101 00000000000000000000000000000000000000000000000000000000000000000000000000000000000000000000000000000000000000000N 00000000000NCONT   00    00000000000          00000000000000000000000000000000000000000000 000000000000000A000000000000000000000000000000000000000000000 000000000000000000000000000000000000000     00000000                                                                                                                        000000000000000000
F0010000010798900003000080202094000042505000000000000000000201712110002001DISTRIB. OMAR ORREGO S.A.                         C000000039239400000000000000000000100010010000000000000000000000F0010000010798900320171211000101 00000000000000000000000000000000000000000000000000000000000000000000000000000000000000000000000000000000000000000N 00000000000NCONT   00    00000000000          00000000000000000000000000000000000000000000 000000000000000A000000000000000000000000000000000000000000000 000000000000000000000000000000000000000     00000000                                                                                                                        000000000000000000
F0010000010798900004000080202094000023658300000000000000000201712110002001DISTRIB. OMAR ORREGO S.A.                         C000000000000000000000000000000000100010010000000000000000000000F0010000010798900420171211000101 00000000000000000000000000000000000000000000000000000000000000000000000000000000000000000000000000000000000000000N 00000000000NCONT   00    00000000000          00000000000000000000000000000000000000000000 000000000000000A000000000000000000000000000000000000000000000 000000000000000000000000000000000000000     00000000                                                                                                                        000000000000000000
F0010000010798900005000080202094000013552100000000000000000201712110002001DISTRIB. OMAR ORREGO S.A.                         D000000000000000000000000000000000100010010000000000000000000000F0010000010798900520171211000101 00000000000000000000000000000000000000000000000000000000000000000000000000000000000000000000000000000000000000000N 00000000000NCONT   00    00000000000          00000000000000000000000000000000000000000000 000000000000000A000000000000000000000000000000000000000000000 000000000000000000000000000000000000000     00000000                                                                                                                        000000000000000000
F0010000010799000001000080202094000013050500000000000000000201712110002001DISTRIB. OMAR ORREGO S.A.                         D000000028486300000000000000000000100010010000000000000000000000F0010000010799000120171211000101 00000000000000000000000000000000000000000000000000000000000000000000000000000000000000000000000000000000000000000N 00000000000NCONT   00    00000000000          00000000000000000000000000000000000000000000 000000000000000A000000000000000000000000000000000000000000000 000000000000000000000000000000000000000     00000000                                                                                                                        000000000000000000
F0010000010799000002000080202094000041450500000000000000000201712110002001DISTRIB. OMAR ORREGO S.A.                         C000000005830000000000000000000000100010010000000000000000000000F0010000010799000220171211000101 00000000000000000000000000000000000000000000000000000000000000000000000000000000000000000000000000000000000000000N 00000000000NCONT   00    00000000000          00000000000000000000000000000000000000000000 000000000000000A000000000000000000000000000000000000000000000 000000000000000000000000000000000000000     00000000                                                                                                                        000000000000000000
